{
  "hex": "010000000001014943688bf13db463748455e3b19fa479806f67cad0fadfef49bcb2107cbf6eb90000000000feffffff0250771315792d0000225120210b1465ffadc5fc6bd7e881375e30fc7a82300dea8ab098b0bdd0fb663419c900e1f50500000000fdd5046a200322a642c6e3589a09bfa031f36c5695400eb623d021647b34955305d36a25b74db004e8395026f5400e43ff4a277b1f687806c1ded2762d84fd109cb0d8fc39971647c8197006d5602e63df6a075b3f485826e1fef2560da4dd30bc90f8dc19b73667a8791066b5004e03bf0a673b5f283846819e92366dc4bd50dcf098bc79d756078859304695206e239f2a471b7f081866a1beb2164de49d70fcd0b89c59f7762768b9d0a675c08ec37fcaa7fb9fe8f886415e52f6ad047d901c30587cb91796c74899f08655e0aee35fea87dbbfc8d8a6617e72d68d245db03c10785c9937b6e728f990e63580ce833f8ae7bbdfa8b8c6011e12b6ed443dd05c70183cf957d68708d9b0c615a0eea31faac79bff8898e6213e3296cd641df07c50381cd977f6a7e8395026f5400e43ff4a277b1f687806c1ded2762d84fd109cb0d8fc39971647c8197006d5602e63df6a075b3f485826e1fef2560da4dd30bc90f8dc19b73667a8791066b5004e03bf0a673b5f283846819e92366dc4bd50dcf098bc79d756078859304695206e239f2a471b7f081866a1beb2164de49d70fcd0b89c59f7762768b9d0a675c08ec37fcaa7fb9fe8f886415e52f6ad047d901c30587cb91796c74899f08655e0aee35fea87dbbfc8d8a6617e72d68d245db03c10785c9937b6e728f990e63580ce833f8ae7bbdfa8b8c6011e12b6ed443dd05c70183cf957d68708d9b0c615a0eea31faac79bff8898e6213e3296cd641df07c50381cd977f6a7e8395026f5400e43ff4a277b1f687806c1ded2762d84fd109cb0d8fc39971647c8197006d5602e63df6a075b3f485826e1fef2560da4dd30bc90f8dc19b73667a8791066b5004e03bf0a673b5f283846819e92366dc4bd50dcf098bc79d756078859304695206e239f2a471b7f081866a1beb2164de49d70fcd0b89c59f7762768b9d0a675c08ec37fcaa7fb9fe8f886415e52f6ad047d901c30587cb91796c74899f08655e0aee35fea87dbbfc8d8a6617e72d68d245db03c10785c9937b6e728f990e63580ce833f8ae7bbdfa8b8c6011e12b6ed443dd05c70183cf957d68708d9b0c615a0eea31faac79bff8898e6213e3296cd641df07c50381cd977f6a7e8395026f5400e43ff4a277b1f687806c1ded2762d84fd109cb0d8fc39971647c8197006d5602e63df6a075b3f485826e1fef2560da4dd30bc90f8dc19b73667a8791066b5004e03bf0a673b5f283846819e92366dc4bd50dcf098bc79d756078859304695206e239f2a471b7f081866a1beb2164de49d70fcd0b89c59f7762768b9d0a675c08ec37fcaa7fb9fe8f886415e52f6ad047d901c30587cb91796c74899f08655e0aee35fea87dbbfc8d8a6617e72d68d245db03c10785c9937b6e728f990e63580ce833f8ae7bbdfa8b8c6011e12b6ed443dd05c70183cf957d68708d9b0c615a0eea31faac79bff8898e6213e3296cd641df07c50381cd977f6a7e8395026f5400e43ff4a277b1f687806c1ded2762d84fd109cb0d8fc39971647c8197006d5602e63df6a075b3f485826e1fef2560da4dd30bc90f8dc19b73667a8791066b5004e03bf0a673b5f283846819e92366dc4bd50dcf098bc79d756078859304695206e239f2a471b7f081866a1beb2164de49d70fcd0b89c59f7762768b9d0a675c08ec37fcaa7fb9fe8f8865b3fdcb30618499479ef474d8b70620a67165477b31446512f83656af1c40fe102fd7509d49a177b65ca322717f43c9c890dc6503b061fa3cffa4c6d0ccace1b8792b95d49932f895a94d129911906b824dbeea8995841ba598f128944bffb242e2ede79c8a08c557c4d87173481f7c15f7a18c701db25f490453d75a60f578b36eb3f2de6f105f5df7438c6fca4e69ab82cf6b5421a70353d8c816a9a674d474adfd850e3e3fbbd5faeeec2cf8898e95efb802223f6d8323988f455728ef2f870455be64a9762104c1cd29b0dc35e59f4adbfd7f8bfe906db41b19aa6a9dec61e2c8f294628cc2a32dce435cd8175d5227b4eccd082670e3702df7ec669f5bef0086dbd04c4eb65ded6def313cd654ecad01e7b82de937e3c95b89d61231ef450a20bba1e3a7345facc465e087450dcd912e5fa7d53a7e1c179ef5828806bca390ee0d1a8841686c496351f41a3629eeac268f491e7243fd6acd663260a9438ae2bcd6425142bcb481a94c136bf12fc996a5f939c7cd527b0344f7361d65a8a2e5d24f23e824d44a1607b2ed99d4fc77faec835fa0430aa5039b0b249087eadf6a44bf34d3b0ad04ac7a34552028b400c4a59f0c8667b9a8c3ea0d35336966140c8770c5a807b0cfb238420ff3ba85eef06a21a2d1323436908408085493d54cb908547e2aa3b45ecd1dbdb01650f23e7f3dd0db4213aa25ca9ccc7dee723893dce6f944bea083fa8a68e14398264f6a8dcb810c01c34ee19dc47853bcdc20bac3b45055d2127fa78914f842ebc5ee5615977280724127e875b5e1fe24235b718ddd6cfd9b005ebd152dedb8a653d5ae82107836055f135ff47f61ee1b7ffbffad0dfbed0681373aa5b066bd43141a540282604eed1f65b9408e3182daeb82bf06c47315254ccf08c97bc8294dbf53a5640b44a95aee6d85a027032481515e6e22577812765d77842fcc5b84e9ad541124cdef4f52aa0cd96db73ea0627d4bfd8e4a5203f1c9a5191b44ca1ee97e8a402ae24be95d4263995d3ee6f22364dba1d05cec01c8886fdf29cfe24bf5d00782798437d1f0f253899ece69c2fe0f375902f0233a199aaae4c70e77783417616ffdfe4b444ee3764a0d54fbe0e786e07736edd975efc987a210c3687c7019a3f97a238b9a4067549c4fd8900aff2e21fbfb5cbb354fc5e81ff934224cfbb2e736223079e931f3ba0142d4d89e09f1ab15a4012033de39186a19f1c078d06c28fdd614b1e2672dfe518bdde1c88b77b091984b8ac5e35216c2fa39c32e15ad4a32679989c15651f2c3f6410df66162ea94cf1e9080dee1c55565574094a4b6ce81e6e5f8e56ee61326d2e6cc53b74307c7cff6aedf7fdb7f563bb452679d4c1b096fc6f580548d9d47a1c8f041ff01a84335939f018b0e4037a4a9cd5bee35cad55e8a808bd9436854eae65ae1944d171ea1c1fdea945457dd4bfc64a69397a864728ff6b9167ed5df92e1259dfab160af8ef1f51982b5e3daebd2c1fe9a551f269a6266ba3c9ac429fd15fec89a78557a060ca46e41f575a16b29b8ba35bdd2f4535e32f2f119a525c6c3d2c97c686724cc83bb5f4c4a4937a88510dca26b4cb625a3b094e1fa8977640d05b34bb8d88dece2bdae14b70c0a98c126f1a1644d7ad45b9d1a96cfef3a4be8c498da8305430ea1a598eb26d69d3305c9d565c91b013eb4a13f0d52ce97249253d09db4e1d235438f2b8bfa6beea0c05edcc6fb0e40f7745575f0bfa0635f15e2cccf728ae32af00561a78947303ccc51cbc412756063153227bfe7e2dc272fe930a548bb0524a60b252c88c3c6b5b889e986fd85bce28c1f6a9c464147ecdb05e5413c44181a0528967a7f8b7053363de074bef5bb927fd9b66728dc70939aacf24dfbb490520089d35e0c8b231f2c4e7e528bcd9811f7fbd7ddc22603c61e512f388ef44dd42bd466d2f78bbeb6fd97d1c13a16e753bbb469fda076d6fa104718b630709982561932299967d79f4b37459e9b3d6005586d03fdecf9ecc645087698aced2b312dd0e4708dfc5f2b1b905001bdd6defec70f31b3df0ebeb5eee7cc1618e7e1cddb86f1a1006cfb03c6a6b0a324ee0d5473fff7247287e282508519b67a63732139cc0bab87886fa3390853f3515b85901114f1f0c290591b7361000ae64661cc7b2ca14caca907b63bed5d11599ce6fa371dcc3aad67acbb8f64b10f79675dee92e5efed499eb8da0a9571545fe05b7714adbda930ba5477c1284f4a793a61dca716f29c5db5f92752e97e8465c734a5025818db35c6d2fd879fc3665ef53de44be16534552d040aaad34e80a7cc5362978361a79d5a3ecf21ea6f5ee0af5108fb6bb314e8dc0fa8012da8712b7fb491e1171dcc861c6671d39af77dca07fe79bbf07e0e45e58115ad9cb50b94fff5563a35a4c3234ac04e497a4ec8666d84bee3c270a42ad5c2a2066b743d72b51615a34493cf267468049a218a0cdadfedd7f9e491a603904abd4337463a42e504a110cc752d04fd2268321c943c12e6b79d4d19693a57fafa4ba64b77880fc70a6d054c4e0c8d51f8095b2699d5b088f6d452bca2b780079d0a836796b14fa28172cd04efbf8fb646e80279ed808b3590fba5b61ac704ca816e8abef8d480316a6cd95146ab759b16165fa544b522b354ffa7a42461add242ef94b9d8a9656f17eb87cad1875b0ab34d926d04d880fcfb4af337232373263aba8fcd3a34daceb9f88d7c0a01d9facdcf063fb2d7e77a01105b2e096bcf6431002a9990004c6f257489d37c7a259fe111f9bb8908fbd7b19e4ac4f1401605393b96a936399167b26932e28bf97205ea19e7c6c9fa4bb8801545fec554fc4291966a32bd8a2cc9f00d054899051d97730f653f99f440f3fa9a039902dab764d491b506b5b0580804fba88f0ae2f83af8027771317bb41b9217972cd6248008c62a41685b209cf4411a8973edd8a12134477fb1b8003c9888aecd8beb2c45e63c358dd5b22701ef54d56c817110317be6ea0f2d223ca00a8b81a76f39b8bf42cabaf4d398e9648d1a8e4690148ed30550cead5fe508f2b12f61a8012174c8ce2754ca855cf056b4f58fc1f12d1386f3a9f03a11b258008d9c442e829e6a20b8dd82fa59784a9e7b89c4e0f7ed52f98d152c1c727f95d96460b58142f4f29ba928a34503fc403664f276fb7c27398cd4e33d2a586cca9d15e55f8548b4f5f6a94cadf0d95f44d90c5eddaa57ba73df64ad5d86e82e6d5e26140bf830fe6fc2f8ebd2b24f952245d44b2fd5f13ef1acaf49242edd2646fbf1366883688acae1ec305aadbc57a5ccdf3b54c413e70fc9ec8394b27620964d78e1586e74d020c153555616f868bbac7dae9f801091951616b8386aeb0b1bfd0e1e5f8fd020a0b0d2f5d6887bdc3c5dddeeaeb1e2a2b3d47535659727c8a8badb5bcbdcfe5000000000000000000000000000000000e1f2e4001fd210500cd8c139701ae4fb86c40e9a77ec6849a863811e00cd777258fbe629ed16e1177ce273b1beed423df5788e7108d84cad458dc97e43495d95cbaf71b5f284c00e1329d5b7f9c4a3f119bcebf8a2f9c31f8d28e925e7f6b1aeec05e1b591a709dc731fd33a12bf1ce2ebca2c23c073637bf9beea5e7b2b5559851cfeddf6c4606bcd1a6196390d53e298a6c7161532cc6f5e3b8bf2728d6da462aba2d06ebd2c31f898bb212d5868ae23cf61739327a496b90cf9e03054845760181ffb5b631fda9d1b259613b0da5dd290006fba1cf2801bc5478e2e9005f7674fe504266ec8172def7cfd49d968ca3dd026d5ceff879b98966e5859bf242d2a38ac28b0e7b7a86f3cf44d3a7cc7547bfd86b70c79e81a2bb04d43d70998bdbcdba28f946c3fc2127a0600835696736e8bfd944fb013bb6bdd42adb041a922f5ef7fc1ce52c311deed2516e61299c29701c681d7ed332f35d15f6e6b94461e3787d8d23b414c980242f55bce7589fb6f67fd9e32e35c0c605e310692d87ce2c2245430204f62b6ba110b56e03f2f007f7ea9d7463ac558514b822093968853571052da7ab2f36e372c5d7841eb0afdd18b4ae9d7759dc5b1203572ec049e5424e5ed92f34f8aa1c7e0c1d03ee96c57c0bf87b8c66c523fa0485da1ed2a66519ff56dcf93b0fd82c316a86793a7e8951c032e9b53de191fdef0c4a579daf77d646fa35dba7dc2d5a6f3afdeb3b53f2b97eea40aa504a3bd36fcf76992d598aaf226ea19c1f8b0372190427c4da0c3e8688d4d23a043d0e55cf17066dee3dfb256441464a7bab10e0662f94e0d7f1b5ecaa018bdef5e4e74425cce62d9a115368293d03a07a8b54e6be535acdb4f2e4f45eed257f81f879a3e97349cbbc29c27b786086332f8713e5b3de92e56d20a8a0827d992a598a19b609646bbfa83c54973b60b5e2d5c02c87955da7ef102456d204bd030bd5bcd6e69bc0eba3fba8e8dd982753499376880828d04ab43c3595234515d36fad4a845c03c7f27f2c6a1eaeb7d447183bed8194e5cfe5ec573625a565b609fa7de711c62f6f62b07ffafacf78dafeb14c20cc2488fac2319094d6cb589c0e4d4f597597a830c360f3d164db9fb348cf8a9a44e9e9b00a4bec5b85e69537087dee821e74d5d39c022a45774ec03ebd171016ab1802fcc94b07ec5fab270ae49df0a0b1ae8ef73cc8283f24ce669e2e3032cc62ed64b69783b15f66bf68fd4a80c55d7f0d03ad15062baf54af287e900199d1b3c3e85201d12c6b26df91c082f6a6e63e72d0906da57c754ec8fce7ea8bbb2f261da73692bf207e6f6a475e4d95f465429ce092c130ccb6ee427fa7c93c671fd29f22f79641fdab41f65bf312cd34163f364c4f1f5808f11708a5d8d68f02834d9002dac5ac4b7ac4a374af526c888f4b174865d63e9e32074f8e4edc9e9ae7fa7d67474c211e64fc1058dbd29a625293564ca981baec3696896355fff6434ed16879f6d914e9eab401e53d6450e7bba31bdb1f82770ae879e2a397531185c34da42de9a42ecdf01f1813b990a457102fbe81fb5d3c6c61f1533294bae5fa3a23c5ed2381905bd3e06184df66e086171a05a9bb07eeecc8b98fb2429b1d82f8e0191f7a94895920ffe9347a93004b198163f1140bb7f923305c7dec1a75991512c6d96450b20ca745f347ad8fb1328459ffc96d8b1f70d5ed24f0aafe9a9ebd6209f9c1f5ce5c471776d99f2fdeccde3c6f5b27a9998790dde280533191cb79371272e4452d7000d3127d3e1d594a9295f8b49b69d4c697edab5564423a5b557ad677b350255b0e89b84a2217b5281931a1da7a863d00bb376d7d25246412082bfb7b000000",
  "txid": "685f56180d6e8cf66f2d72680e5d09a5fd73bac2e9466d0959df89f63327c0b2",
  "hash": "be18745304ced44c743d9b196b34accaf9e3ad856cb30e583717a5c7fe68de6d",
  "size": 5085,
  "vsize": 2278,
  "version": 1,
  "locktime": 123,
  "vin": [
    {
      "txid": "b96ebf7c10b2bc49efdffad0ca676f8079a49fb1e355847463b43df18b684349",
      "vout": 0,
      "scriptSig": {
        "asm": "",
        "hex": ""
      },
      "txinwitness": [
        "d49a177b65ca322717f43c9c890dc6503b061fa3cffa4c6d0ccace1b8792b95d49932f895a94d129911906b824dbeea8995841ba598f128944bffb242e2ede79c8a08c557c4d87173481f7c15f7a18c701db25f490453d75a60f578b36eb3f2de6f105f5df7438c6fca4e69ab82cf6b5421a70353d8c816a9a674d474adfd850e3e3fbbd5faeeec2cf8898e95efb802223f6d8323988f455728ef2f870455be64a9762104c1cd29b0dc35e59f4adbfd7f8bfe906db41b19aa6a9dec61e2c8f294628cc2a32dce435cd8175d5227b4eccd082670e3702df7ec669f5bef0086dbd04c4eb65ded6def313cd654ecad01e7b82de937e3c95b89d61231ef450a20bba1e3a7345facc465e087450dcd912e5fa7d53a7e1c179ef5828806bca390ee0d1a8841686c496351f41a3629eeac268f491e7243fd6acd663260a9438ae2bcd6425142bcb481a94c136bf12fc996a5f939c7cd527b0344f7361d65a8a2e5d24f23e824d44a1607b2ed99d4fc77faec835fa0430aa5039b0b249087eadf6a44bf34d3b0ad04ac7a34552028b400c4a59f0c8667b9a8c3ea0d35336966140c8770c5a807b0cfb238420ff3ba85eef06a21a2d1323436908408085493d54cb908547e2aa3b45ecd1dbdb01650f23e7f3dd0db4213aa25ca9ccc7dee723893dce6f944bea083fa8a68e14398264f6a8dcb810c01c34ee19dc47853bcdc20bac3b45055d2127fa78914f842ebc5ee5615977280724127e875b5e1fe24235b718ddd6cfd9b005ebd152dedb8a653d5ae82107836055f135ff47f61ee1b7ffbffad0dfbed0681373aa5b066bd43141a540282604eed1f65b9408e3182daeb82bf06c47315254ccf08c97bc8294dbf53a5640b44a95aee6d85a027032481515e6e22577812765d77842fcc5b84e9ad541124cdef4f52aa0cd96db73ea0627d4bfd8e4a5203f1c9a5191b44ca1ee97e8a402ae24be95d4263995d3ee6f22364dba1d05cec01c8886fdf29cfe24bf5d00782798437d1f0f253899ece69c2fe0f375902f0233a199aaae4c70e77783417616ffdfe4b444ee3764a0d54fbe0e786e07736edd975efc987a210c3687c7019a3f97a238b9a4067549c4fd8900aff2e21fbfb5cbb354fc5e81ff934224cfbb2e736223079e931f3ba0142d4d89e09f1ab15a4012033de39186a19f1c078d06c28fdd614b1e2672dfe518bdde1c88b77b091984b8ac5e35216c2fa39c32e15ad4a32679989c15651f2c3f6410df66162ea94cf1e9080dee1c55565574094a4b6ce81e6e5f8e56ee61326d2e6cc53b74307c7cff6aedf7fdb7f563bb452679d4c1b096fc6f580548d9d47a1c8f041ff01a84335939f018b0e4037a4a9cd5bee35cad55e8a808bd9436854eae65ae1944d171ea1c1fdea945457dd4bfc64a69397a864728ff6b9167ed5df92e1259dfab160af8ef1f51982b5e3daebd2c1fe9a551f269a6266ba3c9ac429fd15fec89a78557a060ca46e41f575a16b29b8ba35bdd2f4535e32f2f119a525c6c3d2c97c686724cc83bb5f4c4a4937a88510dca26b4cb625a3b094e1fa8977640d05b34bb8d88dece2bdae14b70c0a98c126f1a1644d7ad45b9d1a96cfef3a4be8c498da8305430ea1a598eb26d69d3305c9d565c91b013eb4a13f0d52ce97249253d09db4e1d235438f2b8bfa6beea0c05edcc6fb0e40f7745575f0bfa0635f15e2cccf728ae32af00561a78947303ccc51cbc412756063153227bfe7e2dc272fe930a548bb0524a60b252c88c3c6b5b889e986fd85bce28c1f6a9c464147ecdb05e5413c44181a0528967a7f8b7053363de074bef5bb927fd9b66728dc70939aacf24dfbb490520089d35e0c8b231f2c4e7e528bcd9811f7fbd7ddc22603c61e512f388ef44dd42bd466d2f78bbeb6fd97d1c13a16e753bbb469fda076d6fa104718b630709982561932299967d79f4b37459e9b3d6005586d03fdecf9ecc645087698aced2b312dd0e4708dfc5f2b1b905001bdd6defec70f31b3df0ebeb5eee7cc1618e7e1cddb86f1a1006cfb03c6a6b0a324ee0d5473fff7247287e282508519b67a63732139cc0bab87886fa3390853f3515b85901114f1f0c290591b7361000ae64661cc7b2ca14caca907b63bed5d11599ce6fa371dcc3aad67acbb8f64b10f79675dee92e5efed499eb8da0a9571545fe05b7714adbda930ba5477c1284f4a793a61dca716f29c5db5f92752e97e8465c734a5025818db35c6d2fd879fc3665ef53de44be16534552d040aaad34e80a7cc5362978361a79d5a3ecf21ea6f5ee0af5108fb6bb314e8dc0fa8012da8712b7fb491e1171dcc861c6671d39af77dca07fe79bbf07e0e45e58115ad9cb50b94fff5563a35a4c3234ac04e497a4ec8666d84bee3c270a42ad5c2a2066b743d72b51615a34493cf267468049a218a0cdadfedd7f9e491a603904abd4337463a42e504a110cc752d04fd2268321c943c12e6b79d4d19693a57fafa4ba64b77880fc70a6d054c4e0c8d51f8095b2699d5b088f6d452bca2b780079d0a836796b14fa28172cd04efbf8fb646e80279ed808b3590fba5b61ac704ca816e8abef8d480316a6cd95146ab759b16165fa544b522b354ffa7a42461add242ef94b9d8a9656f17eb87cad1875b0ab34d926d04d880fcfb4af337232373263aba8fcd3a34daceb9f88d7c0a01d9facdcf063fb2d7e77a01105b2e096bcf6431002a9990004c6f257489d37c7a259fe111f9bb8908fbd7b19e4ac4f1401605393b96a936399167b26932e28bf97205ea19e7c6c9fa4bb8801545fec554fc4291966a32bd8a2cc9f00d054899051d97730f653f99f440f3fa9a039902dab764d491b506b5b0580804fba88f0ae2f83af8027771317bb41b9217972cd6248008c62a41685b209cf4411a8973edd8a12134477fb1b8003c9888aecd8beb2c45e63c358dd5b22701ef54d56c817110317be6ea0f2d223ca00a8b81a76f39b8bf42cabaf4d398e9648d1a8e4690148ed30550cead5fe508f2b12f61a8012174c8ce2754ca855cf056b4f58fc1f12d1386f3a9f03a11b258008d9c442e829e6a20b8dd82fa59784a9e7b89c4e0f7ed52f98d152c1c727f95d96460b58142f4f29ba928a34503fc403664f276fb7c27398cd4e33d2a586cca9d15e55f8548b4f5f6a94cadf0d95f44d90c5eddaa57ba73df64ad5d86e82e6d5e26140bf830fe6fc2f8ebd2b24f952245d44b2fd5f13ef1acaf49242edd2646fbf1366883688acae1ec305aadbc57a5ccdf3b54c413e70fc9ec8394b27620964d78e1586e74d020c153555616f868bbac7dae9f801091951616b8386aeb0b1bfd0e1e5f8fd020a0b0d2f5d6887bdc3c5dddeeaeb1e2a2b3d47535659727c8a8badb5bcbdcfe5000000000000000000000000000000000e1f2e4001",
        "00cd8c139701ae4fb86c40e9a77ec6849a863811e00cd777258fbe629ed16e1177ce273b1beed423df5788e7108d84cad458dc97e43495d95cbaf71b5f284c00e1329d5b7f9c4a3f119bcebf8a2f9c31f8d28e925e7f6b1aeec05e1b591a709dc731fd33a12bf1ce2ebca2c23c073637bf9beea5e7b2b5559851cfeddf6c4606bcd1a6196390d53e298a6c7161532cc6f5e3b8bf2728d6da462aba2d06ebd2c31f898bb212d5868ae23cf61739327a496b90cf9e03054845760181ffb5b631fda9d1b259613b0da5dd290006fba1cf2801bc5478e2e9005f7674fe504266ec8172def7cfd49d968ca3dd026d5ceff879b98966e5859bf242d2a38ac28b0e7b7a86f3cf44d3a7cc7547bfd86b70c79e81a2bb04d43d70998bdbcdba28f946c3fc2127a0600835696736e8bfd944fb013bb6bdd42adb041a922f5ef7fc1ce52c311deed2516e61299c29701c681d7ed332f35d15f6e6b94461e3787d8d23b414c980242f55bce7589fb6f67fd9e32e35c0c605e310692d87ce2c2245430204f62b6ba110b56e03f2f007f7ea9d7463ac558514b822093968853571052da7ab2f36e372c5d7841eb0afdd18b4ae9d7759dc5b1203572ec049e5424e5ed92f34f8aa1c7e0c1d03ee96c57c0bf87b8c66c523fa0485da1ed2a66519ff56dcf93b0fd82c316a86793a7e8951c032e9b53de191fdef0c4a579daf77d646fa35dba7dc2d5a6f3afdeb3b53f2b97eea40aa504a3bd36fcf76992d598aaf226ea19c1f8b0372190427c4da0c3e8688d4d23a043d0e55cf17066dee3dfb256441464a7bab10e0662f94e0d7f1b5ecaa018bdef5e4e74425cce62d9a115368293d03a07a8b54e6be535acdb4f2e4f45eed257f81f879a3e97349cbbc29c27b786086332f8713e5b3de92e56d20a8a0827d992a598a19b609646bbfa83c54973b60b5e2d5c02c87955da7ef102456d204bd030bd5bcd6e69bc0eba3fba8e8dd982753499376880828d04ab43c3595234515d36fad4a845c03c7f27f2c6a1eaeb7d447183bed8194e5cfe5ec573625a565b609fa7de711c62f6f62b07ffafacf78dafeb14c20cc2488fac2319094d6cb589c0e4d4f597597a830c360f3d164db9fb348cf8a9a44e9e9b00a4bec5b85e69537087dee821e74d5d39c022a45774ec03ebd171016ab1802fcc94b07ec5fab270ae49df0a0b1ae8ef73cc8283f24ce669e2e3032cc62ed64b69783b15f66bf68fd4a80c55d7f0d03ad15062baf54af287e900199d1b3c3e85201d12c6b26df91c082f6a6e63e72d0906da57c754ec8fce7ea8bbb2f261da73692bf207e6f6a475e4d95f465429ce092c130ccb6ee427fa7c93c671fd29f22f79641fdab41f65bf312cd34163f364c4f1f5808f11708a5d8d68f02834d9002dac5ac4b7ac4a374af526c888f4b174865d63e9e32074f8e4edc9e9ae7fa7d67474c211e64fc1058dbd29a625293564ca981baec3696896355fff6434ed16879f6d914e9eab401e53d6450e7bba31bdb1f82770ae879e2a397531185c34da42de9a42ecdf01f1813b990a457102fbe81fb5d3c6c61f1533294bae5fa3a23c5ed2381905bd3e06184df66e086171a05a9bb07eeecc8b98fb2429b1d82f8e0191f7a94895920ffe9347a93004b198163f1140bb7f923305c7dec1a75991512c6d96450b20ca745f347ad8fb1328459ffc96d8b1f70d5ed24f0aafe9a9ebd6209f9c1f5ce5c471776d99f2fdeccde3c6f5b27a9998790dde280533191cb79371272e4452d7000d3127d3e1d594a9295f8b49b69d4c697edab5564423a5b557ad677b350255b0e89b84a2217b5281931a1da7a863d00bb376d7d25246412082bfb"
      ],
      "sequence": 4294967294
    }
  ],
  "vout": [
    {
      "value": 499980.6789,
      "n": 0,
      "scriptPubKey": {
        "asm": "1 210b1465ffadc5fc6bd7e881375e30fc7a82300dea8ab098b0bdd0fb663419c9",
        "hex": "5120210b1465ffadc5fc6bd7e881375e30fc7a82300dea8ab098b0bdd0fb663419c9",
        "reqSigs": 1,
        "type": "witness_v1_scripthash",
        "addresses": [
          "3QJmnh"
        ]
      }
    },
    {
      "value": 1.0,
      "n": 1,
      "scriptPubKey": {
        "asm": "OP_RETURN 0322a642c6e3589a09bfa031f36c5695400eb623d021647b34955305d36a25b7 e8395026f5400e43ff4a277b1f687806c1ded2762d84fd109cb0d8fc39971647c8197006d5602e63df6a075b3f485826e1fef2560da4dd30bc90f8dc19b73667a8791066b5004e03bf0a673b5f283846819e92366dc4bd50dcf098bc79d756078859304695206e239f2a471b7f081866a1beb2164de49d70fcd0b89c59f7762768b9d0a675c08ec37fcaa7fb9fe8f886415e52f6ad047d901c30587cb91796c74899f08655e0aee35fea87dbbfc8d8a6617e72d68d245db03c10785c9937b6e728f990e63580ce833f8ae7bbdfa8b8c6011e12b6ed443dd05c70183cf957d68708d9b0c615a0eea31faac79bff8898e6213e3296cd641df07c50381cd977f6a7e8395026f5400e43ff4a277b1f687806c1ded2762d84fd109cb0d8fc39971647c8197006d5602e63df6a075b3f485826e1fef2560da4dd30bc90f8dc19b73667a8791066b5004e03bf0a673b5f283846819e92366dc4bd50dcf098bc79d756078859304695206e239f2a471b7f081866a1beb2164de49d70fcd0b89c59f7762768b9d0a675c08ec37fcaa7fb9fe8f886415e52f6ad047d901c30587cb91796c74899f08655e0aee35fea87dbbfc8d8a6617e72d68d245db03c10785c9937b6e728f990e63580ce833f8ae7bbdfa8b8c6011e12b6ed443dd05c70183cf957d68708d9b0c615a0eea31faac79bff8898e6213e3296cd641df07c50381cd977f6a7e8395026f5400e43ff4a277b1f687806c1ded2762d84fd109cb0d8fc39971647c8197006d5602e63df6a075b3f485826e1fef2560da4dd30bc90f8dc19b73667a8791066b5004e03bf0a673b5f283846819e92366dc4bd50dcf098bc79d756078859304695206e239f2a471b7f081866a1beb2164de49d70fcd0b89c59f7762768b9d0a675c08ec37fcaa7fb9fe8f886415e52f6ad047d901c30587cb91796c74899f08655e0aee35fea87dbbfc8d8a6617e72d68d245db03c10785c9937b6e728f990e63580ce833f8ae7bbdfa8b8c6011e12b6ed443dd05c70183cf957d68708d9b0c615a0eea31faac79bff8898e6213e3296cd641df07c50381cd977f6a7e8395026f5400e43ff4a277b1f687806c1ded2762d84fd109cb0d8fc39971647c8197006d5602e63df6a075b3f485826e1fef2560da4dd30bc90f8dc19b73667a8791066b5004e03bf0a673b5f283846819e92366dc4bd50dcf098bc79d756078859304695206e239f2a471b7f081866a1beb2164de49d70fcd0b89c59f7762768b9d0a675c08ec37fcaa7fb9fe8f886415e52f6ad047d901c30587cb91796c74899f08655e0aee35fea87dbbfc8d8a6617e72d68d245db03c10785c9937b6e728f990e63580ce833f8ae7bbdfa8b8c6011e12b6ed443dd05c70183cf957d68708d9b0c615a0eea31faac79bff8898e6213e3296cd641df07c50381cd977f6a7e8395026f5400e43ff4a277b1f687806c1ded2762d84fd109cb0d8fc39971647c8197006d5602e63df6a075b3f485826e1fef2560da4dd30bc90f8dc19b73667a8791066b5004e03bf0a673b5f283846819e92366dc4bd50dcf098bc79d756078859304695206e239f2a471b7f081866a1beb2164de49d70fcd0b89c59f7762768b9d0a675c08ec37fcaa7fb9fe8f8865b3fdcb30618499479ef474d8b70620a67165477b31446512f83656af1c40fe1",
        "hex": "6a200322a642c6e3589a09bfa031f36c5695400eb623d021647b34955305d36a25b74db004e8395026f5400e43ff4a277b1f687806c1ded2762d84fd109cb0d8fc39971647c8197006d5602e63df6a075b3f485826e1fef2560da4dd30bc90f8dc19b73667a8791066b5004e03bf0a673b5f283846819e92366dc4bd50dcf098bc79d756078859304695206e239f2a471b7f081866a1beb2164de49d70fcd0b89c59f7762768b9d0a675c08ec37fcaa7fb9fe8f886415e52f6ad047d901c30587cb91796c74899f08655e0aee35fea87dbbfc8d8a6617e72d68d245db03c10785c9937b6e728f990e63580ce833f8ae7bbdfa8b8c6011e12b6ed443dd05c70183cf957d68708d9b0c615a0eea31faac79bff8898e6213e3296cd641df07c50381cd977f6a7e8395026f5400e43ff4a277b1f687806c1ded2762d84fd109cb0d8fc39971647c8197006d5602e63df6a075b3f485826e1fef2560da4dd30bc90f8dc19b73667a8791066b5004e03bf0a673b5f283846819e92366dc4bd50dcf098bc79d756078859304695206e239f2a471b7f081866a1beb2164de49d70fcd0b89c59f7762768b9d0a675c08ec37fcaa7fb9fe8f886415e52f6ad047d901c30587cb91796c74899f08655e0aee35fea87dbbfc8d8a6617e72d68d245db03c10785c9937b6e728f990e63580ce833f8ae7bbdfa8b8c6011e12b6ed443dd05c70183cf957d68708d9b0c615a0eea31faac79bff8898e6213e3296cd641df07c50381cd977f6a7e8395026f5400e43ff4a277b1f687806c1ded2762d84fd109cb0d8fc39971647c8197006d5602e63df6a075b3f485826e1fef2560da4dd30bc90f8dc19b73667a8791066b5004e03bf0a673b5f283846819e92366dc4bd50dcf098bc79d756078859304695206e239f2a471b7f081866a1beb2164de49d70fcd0b89c59f7762768b9d0a675c08ec37fcaa7fb9fe8f886415e52f6ad047d901c30587cb91796c74899f08655e0aee35fea87dbbfc8d8a6617e72d68d245db03c10785c9937b6e728f990e63580ce833f8ae7bbdfa8b8c6011e12b6ed443dd05c70183cf957d68708d9b0c615a0eea31faac79bff8898e6213e3296cd641df07c50381cd977f6a7e8395026f5400e43ff4a277b1f687806c1ded2762d84fd109cb0d8fc39971647c8197006d5602e63df6a075b3f485826e1fef2560da4dd30bc90f8dc19b73667a8791066b5004e03bf0a673b5f283846819e92366dc4bd50dcf098bc79d756078859304695206e239f2a471b7f081866a1beb2164de49d70fcd0b89c59f7762768b9d0a675c08ec37fcaa7fb9fe8f886415e52f6ad047d901c30587cb91796c74899f08655e0aee35fea87dbbfc8d8a6617e72d68d245db03c10785c9937b6e728f990e63580ce833f8ae7bbdfa8b8c6011e12b6ed443dd05c70183cf957d68708d9b0c615a0eea31faac79bff8898e6213e3296cd641df07c50381cd977f6a7e8395026f5400e43ff4a277b1f687806c1ded2762d84fd109cb0d8fc39971647c8197006d5602e63df6a075b3f485826e1fef2560da4dd30bc90f8dc19b73667a8791066b5004e03bf0a673b5f283846819e92366dc4bd50dcf098bc79d756078859304695206e239f2a471b7f081866a1beb2164de49d70fcd0b89c59f7762768b9d0a675c08ec37fcaa7fb9fe8f8865b3fdcb30618499479ef474d8b70620a67165477b31446512f83656af1c40fe1",
        "type": "nulldata"
      }
    }
  ],
  "blockhash": "3f7b66b34673dd56727b9b27d02dfa4f8333ff75e8b72ddccb546061f2a7d063",
  "confirmations": 1,
  "time": 1764180681,
  "blocktime": 1764180681
}