{
  "hex": "010000000001012146ef625e56a7eac27cdd5471fa6bfc66bffb4cc2b84aadf074bd1f08d99e210000000000feffffff0200e1f50500000000fdd5046a201866fd3b6febba6469625fc224819da09fdf97f7c2a359c3bc96ecb1f01ac3bd4db004994f5994020471713a2f752302cfe3d67d27c5fd99635cef5824431fcb0abf52b96f79b4222451511a0f550322efc3f65d07e5ddb9437ccf7804633feb2a9f72d90f19d4424431317a6f3563428fa3963d6785bdd9231caf1864035f8b4aff12f92f39f4626411115a4f154362af83b61d47a59df9033c8f3844237fab6adf3219cfd9148284f1f1baaff5a3824f6356fda7457d19e3dc6fd8a4c39f4b8a3fd239eff934a2a4d1d19a8fd583a26f4376dd87655d39c3fc4ff884e3bf6baa1ff2598f9954c2c4b1b1faefb5e3c20f2316bde7053d59a39c2f98e483df0bca7f9279afb974e2e49191dacf95c3e22f03369dc7251d7983bc0fb8c4a3ff2bea5fb2994f5994020471713a2f752302cfe3d67d27c5fd99635cef5824431fcb0abf52b96f79b4222451511a0f550322efc3f65d07e5ddb9437ccf7804633feb2a9f72d90f19d4424431317a6f3563428fa3963d6785bdd9231caf1864035f8b4aff12f92f39f4626411115a4f154362af83b61d47a59df9033c8f3844237fab6adf3219cfd9148284f1f1baaff5a3824f6356fda7457d19e3dc6fd8a4c39f4b8a3fd239eff934a2a4d1d19a8fd583a26f4376dd87655d39c3fc4ff884e3bf6baa1ff2598f9954c2c4b1b1faefb5e3c20f2316bde7053d59a39c2f98e483df0bca7f9279afb974e2e49191dacf95c3e22f03369dc7251d7983bc0fb8c4a3ff2bea5fb2994f5994020471713a2f752302cfe3d67d27c5fd99635cef5824431fcb0abf52b96f79b4222451511a0f550322efc3f65d07e5ddb9437ccf7804633feb2a9f72d90f19d4424431317a6f3563428fa3963d6785bdd9231caf1864035f8b4aff12f92f39f4626411115a4f154362af83b61d47a59df9033c8f3844237fab6adf3219cfd9148284f1f1baaff5a3824f6356fda7457d19e3dc6fd8a4c39f4b8a3fd239eff934a2a4d1d19a8fd583a26f4376dd87655d39c3fc4ff884e3bf6baa1ff2598f9954c2c4b1b1faefb5e3c20f2316bde7053d59a39c2f98e483df0bca7f9279afb974e2e49191dacf95c3e22f03369dc7251d7983bc0fb8c4a3ff2bea5fb2994f5994020471713a2f752302cfe3d67d27c5fd99635cef5824431fcb0abf52b96f79b4222451511a0f550322efc3f65d07e5ddb9437ccf7804633feb2a9f72d90f19d4424431317a6f3563428fa3963d6785bdd9231caf1864035f8b4aff12f92f39f4626411115a4f154362af83b61d47a59df9033c8f3844237fab6adf3219cfd9148284f1f1baaff5a3824f6356fda7457d19e3dc6fd8a4c39f4b8a3fd239eff934a2a4d1d19a8fd583a26f4376dd87655d39c3fc4ff884e3bf6baa1ff2598f9954c2c4b1b1faefb5e3c20f2316bde7053d59a39c2f98e483df0bca7f9279afb974e2e49191dacf95c3e22f03369dc7251d7983bc0fb8c4a3ff2bea5fb2994f5994020471713a2f752302cfe3d67d27c5fd99635cef5824431fcb0abf52b96f79b4222451511a0f550322efc3f65d07e5ddb9437ccf7804633feb2a9f72d90f19d4424431317a6f3563428fa3963d6785bdd9231caf1864035f8b4aff12f92f39f4626411115a4f154362af83b61d47a59df9033c8f3844237fab6adf3219cfd9148284f1f1baaff5a3824f63560d75c762cebee5a3db2ddb045072c13e162c199623c84e26eec0851ead8fe17c1024da9b782d0000225120b30aaaf8981a8fd677ae174c8acf76a6b99361584e46ff8d295fdcbcbb7a127202fd7509597f5d48f153968319559c1b87a71aed5037309cf201fd648e656c31c6b3f91c40d0e441275902a68b8d2e1b52d86c224c76a5f5125f510d9c87c84f8d94564fd64ba2b8e7ef2a2763155a154244f464ee177c0c123572be6537d50a1e102e2e3b9e89437feccd200c71f0aa9a94e22334830d0caecb077660768501bc188a8a72a755a98f760f6f00bc0950e510c8139242f00c218dc23375f128efdf3fdaa0f85c8fe997becd9ea99fba160d3b9f9d464edd968571032251d2a78a6af52bdddf8647189e07dfe3a442ecd0686a0d764fb4fa7cdedfc374524ee587d3143007d8d05402f99d82687f5293be46189f18bc31c8142efec4880e438bcf360697a4eb4fbb7c756d232dd879f850e4f12c2869adf4ccb75703184e6565ac4da24d9eb793960d09e8c98208a6a3a8a87e0afeaa167f90fac9b0573dc50d7dc3899f61fc6eb01d1a874f5afe8accd2cc8ef53bf229714b42e8b418f54aa9a8c9939256da4a7dae941c69c4e37a41ea6f1241ea15d02fbaadd84dd836ee9739ae2f17c1eec50fe2d398e9f4a822f6ccf1e4799c586db10aeec47c71511c638391135c9f220961a7f5d0a27e06fd92a89103bab4bfcdcbd792c059a9a0a26ade2c0c2187c838e8290ce1ffcdb70573ee96a354ef2f56b48e19d35cd885314c2f136e84f39dc28f8d23554149c1c361ab2d2cb0c1954d2b36bedc50b28f67fec6b306261d105b277be03afd18314da6c30a84649de10f2991661368fc58e311807b7678cc3e986729a3b39806d7ece853d76d11a20daa3288f28bb00d9b6be86fea8214e8a1302a95f34639b5a015afe89e836b73514ac491ed0314fb92037b8fba37a7ae8527e031ef3d1a28f62505faa244ec7f9f0a1ef0f1c077350074295d0f4c3a9038bc52bea0ff232007ca5d4c7d9bc9b139e5392ee14fd3bbabd50e203fae4efe7a9bc1a2a006fa6b14d46892f7fa8df398434084c2cb64b2ee55c59837dfee8366de4e0883a16103e52cf32aca1f0810b0e9641f79269e4be6cfa36feaa305f0ef1c42986012a18ec2859950e213003b1a369f406012c1cb513e7ebf948aab5769b40786d34c5dc22513a9fe01813b0c7170190ebe6b657dff77824a459be7ff1d7b4f661769f2f4ed84d78d98d45fde28507e5527903c1d60123770db5ba45ab4a04fd711c970b5203c0f629d6b24f843bcab7d3deb916197442f9e756c8706a0d80dc6c5860ef134f8333578ed36a10d61c9b46b37020399719a0ec322742609ea5139c37dd3efcf4d66fbdb1ab396f4daa47d5cbba030f2a0acec686971131073c6c657be30106483b03594d5a42c1b58e1d1e9b187c23f58a7c703d7b864112253cb06dc14c6827a324c26277aab5b391790b8db01814b103122cb4517bbe476eb96c5a4caec6d5635fa73af245bebae5b02deef4728b14f6151b310a0b520111858bdea733860d778d3e106f0bda738538c0163cb147463404c794762763d0eb1d391dae60c6d47bf840a1e4a0e4d646cb9cc7c59572bccf449e2ae888efca59d65c07720bac6c29864de394414f754a15d5c531ce2af7152acf929b076ee971b3d8f8ec9cef96abc91d0f502f3d85f74ff1c672ff8ba88213d33e86b4fb625384616b51c0de53a82cdb62ee5f096870894d1ee471f94ad05966cd1348fb3b90e2370b31275be1cfd6e7f8896e35cc73c21349060655baefdff1f3d171720827dc7d9aad06dc34b74978de18b31a8cfb318913cbeea83c68b19f3e0fe76c92bbe02be2d2c16100dd8471034d7ceda5a87dde8d8ae49ae76d3b754c7c23b21cbe86bee014775332f6268ac2bf37ff41720518ff6d790a9408bcd339544ab447712603b7b4a55987793a8ab9c9bd5d7f45c7d0461a6baae5c7eb93d455a0cde7c7cca07b54bd307518f1268012e07afa7db95bc93973d06220136e46672b0345162bf809791b1070b7b4f24a7e7646de1f2c6ac3b3d89d95d56d353abe9edb36dd968b125e564db8503cf50409d19291ec4b325728841257243b5fb27fbb579bcc77b7ec6263fbb6fa29362d0d3c2bd63de05c184ac4f5ef6ad81cbbe47c06c20da7830451942ca8335a7efcef7ffa210c9e0bb13f019701a0a748afc6ee8b7f7cc0adf96a689f6259b635d9a192483beed3b2b33589020a76a68183d03171fcbed0b31582a21de60873d774b61f20b347eb27a22645835d0a0fa16e21e7060b5eaa29ff13aea60e33ec034d90edf9d540a0a370809a2c037469c8bd1c83a66733567fe8a8844d40f97d2826faaaf34566335c5bad0a8319cc20e7e8ebe41fe31a7174d2d01766fd23544c53af58d659d5d316f919cf3ad7f63733604a427c6d4f1ce04821707dbd0a8aeeafc303827f879997dfed2f7057a8aa21e9225766f5667e940fceef07e1bd5b35431257082c04f05dac18b5cfed7621e9074fbb5c70559c9bee7ca25987181683c9c0ea9e31ada193f566d4888f5314d5a7b9e556e00b7a7aae1fdd85a14376edd5f859b5250074c08bd9c7e87d27435bc31979bd6b54e148242f4c8f5238c2304cbce9a4d71c3f38b71dbaee19de6f39f4c0bbcf5fedbd9a1041e6fbdfa79dca139ac6b7252beb33e80408ac19360103ab854cf5f743f5a61f070c67739dc18428a659ce874b79665579684596cc719fadb57a5e789c5443823089154576721cc5b6c902ff9e7c7fb13d02ce90af9970c22e91c9b3f7b19f31426915faebf668fb121b87b094ead93c44f236a6f62539ddf4f76951d23b2ab7b3b447bdcc4be0cf817c24ff89210552e5229bf49cbed2fcf03902bd1e056644935b892f85f54c5eabdd93e20c08a5b81f4e8fc52e3d725c216939ae714410a3cafb6cff41c7bb13deaf8ea0b9bccfc59c226385904734a3825c8f2399c45e3e0b8325c01fcf3b29080dff68fe0beb511e2bb899b4d8323af71912b66fc086824201670c9195935fbe128524aa989d0e17a31fdb8f03d4eaf3d085bf7c7d47475c73f88caf8762058fd0ded40b5ce6146130a1c22eacae639bffdb8e2836d1e700e03458800102988dddf0eb38e3ecdaade3c25df164a9d6efca69666fabad37bd7678ed3c2f68877fb89d3eca6bc50e9d8d23f7eb6955f371fe54633f2b18011d8bc8116c62e92f924f7f8d27116dc2510172e29c190ce66a9702cc2c7d40ad64abd4fe50ba4541142dff2620a5b019aeb0a6e982e84bdd7a11ae4f6facc0d732cb8bf47b893fcc4ce148c33d327b6684de83f46ea5dd1694af72255729a5d8d9ed1a7127b154a76223fc7f79a9e2e73a1ea9148812473ebb5762b3f4554626d95999bc4ccd1dfe5eaeff50d15294e5b5e7578828ec3d2e9f80b0e161d343c475052849e9fa0c1d2e4e600010a10232f406b878d909aaad1e1e7eef9fc00000000000000000000000000111f304301fd2105003622636dd88a44436d74cff470a0ff0758b6bb790c4c5f50c5f6679d15143c5b9f0aefdcf6739507df90ee8945bb5b403767ddd9e45bca298b38207141904b94f2979aaadf11fea5bb8cacbb27ca8ddc5281163d6b9587f099c77ca312561193c9b1c7c7ee9c296929eb9ce91440a55e73f3d47993486ec84cc8073713872ae9089d9d9c4d1bc852312e38973aa0825f6a77a6d1df8aab524b60b3394951b06aed5dc2ae8f268e1f605fe837526b1d80f7a2ef360c5ad13e2395c6357c779b648e47f163b66d64058420b6b1cf0810f1e77d1e873c7513e6676839a2b28301a0e7d982d9b82357ccde44697a9c3007e09e695e7fa9961118067decb344b61e55dae490122128c2e31c4a73bd29e07af805adbe73206efd99a69c4fe08bf261809649045be1d9a08407c428f202e4e2ab7420d839ecb88a4289c6b84592f71396a1af87a07563eefb10b32eae2646fe2feb41a073715f2378c4315d12bbf520716a26b59573a71bcbca190a197ccbb958237963f0c6829a259f771119f1f5bbe3a403d68f2402ba8b4569ef0bab42405aba68d604d9799cad88f89fb060ba6cb45e85ec3712f14c22cb7b714b78e29c1ac0060bf8c1eca47149231e1ec36db71c161c1906a793cf5ba82fa9e9c0a9a01eca8acd9723279ad77aa2b202920f3535ad956dbc8fd5d12093e87aa45d1764c5025a9fde56c259fa87cf3b60e75bdee1b985199d9a542c36acd71bf834dfe2d7270bfaf246e9f4e02b44d0aaf2b9e479f5cec7a9d0c9e58603f5a8dd4a3d2b9bd25f2b367e55ad597d67040bb2e35be4c15c10989602fb4f5e57ce711ace4bb95760eef2cc1d79c29eb6005917150242793fb2f20e63a2e12b1918babff916d1793e6227ccc71a8788f35754ed0c8e1703a13fc7db8d707b98f319ab054f68db2ca7cfd5e73ca2c1e43138f4f48816123e1084e022cc30bd8dc09f067e85d02f082a690d49df702a130ec3420bb00eb35db88c4ddda8b0a20bd94238f5c73c9cdb48ec2aa306d7668c26c5a168c80b37a0959ae6d84cf61e06ba01a75d6b19d943d2be58373bdd097042e294b95f40d067c7c3c82d2b5801035470afe571769c8c0f6abd4fe28121f39ae56bc5e2b18c66c5eed29e0888d34eb6d149e9c9b1bed7785b31b2186a7666b54773b9a6e692baed88e7d48b574487dbabcd3db9ead19708a343b7d9033e335091b0832a301abcd4a30a23952758d9ef4381f71e6e926036b98abe336af7a37758b799dc39014d1931c0b8075de1c0982f849803186f79982f8683f6e4a7415ce7ee6eb3fce6d5f637b5c5e0ea21e69116ca00d1469f8d057fec1a54b20fd5f6b55ac47cae45efba7739820e026047a9ddf003b3ed85e86971a32bc7e56618b375b3dd3ec2bdf9641d3aa82b85aa9446b72b83cf45d773dd7a9e21e9f5bb117aa15af94d370d09423adf17bcf13a4b9e4ca1f45f49fe019863a44826245f54abccf91e596a6ce318946a500d62c03e3edfabfe81d2ddddec0f349dc06b487fc8aee8f591087a3e80ea1949eb589bf0894066c503f4d2ac37f800d16559e15ea4d2242a3e6848a0f807eac2a5dc915395cf0a44ff8b24a4359f132419572477a50304d934ad6158255e1530a6f049b50dd7e837c48d2feb2549b54a7b6e3ae4877bc662e778c167cbad7d2bb11963617a21880fc10f86edb885915ecfbdc38e24ee5e6824d7f3f7a798f25537428a5cad57da711b7eee8ecd8d4e4c972a99d38494d0fa435da21826da75b92ffd7dc65361b6c00c8943de980bce8f4d181ef60c367abb9bf91e82356175bb8d2330da59462464836a6644cb4e9b30312a60afb34a9f1e428fb68a000000",
  "txid": "6e393d3941b55f86cee59fa18e3f2bd80930ee8741000946d57f0e50abb4b33f",
  "hash": "9f84aa637293082acf6fc54f0c450f537f596e3e6e8d086bd6597c60c6c91396",
  "size": 5085,
  "vsize": 2278,
  "version": 1,
  "locktime": 138,
  "vin": [
    {
      "txid": "219ed9081fbd74f0ad4ab8c24cfbbf66fc6bfa7154dd7cc2eaa7565e62ef4621",
      "vout": 0,
      "scriptSig": {
        "asm": "",
        "hex": ""
      },
      "txinwitness": [
        "597f5d48f153968319559c1b87a71aed5037309cf201fd648e656c31c6b3f91c40d0e441275902a68b8d2e1b52d86c224c76a5f5125f510d9c87c84f8d94564fd64ba2b8e7ef2a2763155a154244f464ee177c0c123572be6537d50a1e102e2e3b9e89437feccd200c71f0aa9a94e22334830d0caecb077660768501bc188a8a72a755a98f760f6f00bc0950e510c8139242f00c218dc23375f128efdf3fdaa0f85c8fe997becd9ea99fba160d3b9f9d464edd968571032251d2a78a6af52bdddf8647189e07dfe3a442ecd0686a0d764fb4fa7cdedfc374524ee587d3143007d8d05402f99d82687f5293be46189f18bc31c8142efec4880e438bcf360697a4eb4fbb7c756d232dd879f850e4f12c2869adf4ccb75703184e6565ac4da24d9eb793960d09e8c98208a6a3a8a87e0afeaa167f90fac9b0573dc50d7dc3899f61fc6eb01d1a874f5afe8accd2cc8ef53bf229714b42e8b418f54aa9a8c9939256da4a7dae941c69c4e37a41ea6f1241ea15d02fbaadd84dd836ee9739ae2f17c1eec50fe2d398e9f4a822f6ccf1e4799c586db10aeec47c71511c638391135c9f220961a7f5d0a27e06fd92a89103bab4bfcdcbd792c059a9a0a26ade2c0c2187c838e8290ce1ffcdb70573ee96a354ef2f56b48e19d35cd885314c2f136e84f39dc28f8d23554149c1c361ab2d2cb0c1954d2b36bedc50b28f67fec6b306261d105b277be03afd18314da6c30a84649de10f2991661368fc58e311807b7678cc3e986729a3b39806d7ece853d76d11a20daa3288f28bb00d9b6be86fea8214e8a1302a95f34639b5a015afe89e836b73514ac491ed0314fb92037b8fba37a7ae8527e031ef3d1a28f62505faa244ec7f9f0a1ef0f1c077350074295d0f4c3a9038bc52bea0ff232007ca5d4c7d9bc9b139e5392ee14fd3bbabd50e203fae4efe7a9bc1a2a006fa6b14d46892f7fa8df398434084c2cb64b2ee55c59837dfee8366de4e0883a16103e52cf32aca1f0810b0e9641f79269e4be6cfa36feaa305f0ef1c42986012a18ec2859950e213003b1a369f406012c1cb513e7ebf948aab5769b40786d34c5dc22513a9fe01813b0c7170190ebe6b657dff77824a459be7ff1d7b4f661769f2f4ed84d78d98d45fde28507e5527903c1d60123770db5ba45ab4a04fd711c970b5203c0f629d6b24f843bcab7d3deb916197442f9e756c8706a0d80dc6c5860ef134f8333578ed36a10d61c9b46b37020399719a0ec322742609ea5139c37dd3efcf4d66fbdb1ab396f4daa47d5cbba030f2a0acec686971131073c6c657be30106483b03594d5a42c1b58e1d1e9b187c23f58a7c703d7b864112253cb06dc14c6827a324c26277aab5b391790b8db01814b103122cb4517bbe476eb96c5a4caec6d5635fa73af245bebae5b02deef4728b14f6151b310a0b520111858bdea733860d778d3e106f0bda738538c0163cb147463404c794762763d0eb1d391dae60c6d47bf840a1e4a0e4d646cb9cc7c59572bccf449e2ae888efca59d65c07720bac6c29864de394414f754a15d5c531ce2af7152acf929b076ee971b3d8f8ec9cef96abc91d0f502f3d85f74ff1c672ff8ba88213d33e86b4fb625384616b51c0de53a82cdb62ee5f096870894d1ee471f94ad05966cd1348fb3b90e2370b31275be1cfd6e7f8896e35cc73c21349060655baefdff1f3d171720827dc7d9aad06dc34b74978de18b31a8cfb318913cbeea83c68b19f3e0fe76c92bbe02be2d2c16100dd8471034d7ceda5a87dde8d8ae49ae76d3b754c7c23b21cbe86bee014775332f6268ac2bf37ff41720518ff6d790a9408bcd339544ab447712603b7b4a55987793a8ab9c9bd5d7f45c7d0461a6baae5c7eb93d455a0cde7c7cca07b54bd307518f1268012e07afa7db95bc93973d06220136e46672b0345162bf809791b1070b7b4f24a7e7646de1f2c6ac3b3d89d95d56d353abe9edb36dd968b125e564db8503cf50409d19291ec4b325728841257243b5fb27fbb579bcc77b7ec6263fbb6fa29362d0d3c2bd63de05c184ac4f5ef6ad81cbbe47c06c20da7830451942ca8335a7efcef7ffa210c9e0bb13f019701a0a748afc6ee8b7f7cc0adf96a689f6259b635d9a192483beed3b2b33589020a76a68183d03171fcbed0b31582a21de60873d774b61f20b347eb27a22645835d0a0fa16e21e7060b5eaa29ff13aea60e33ec034d90edf9d540a0a370809a2c037469c8bd1c83a66733567fe8a8844d40f97d2826faaaf34566335c5bad0a8319cc20e7e8ebe41fe31a7174d2d01766fd23544c53af58d659d5d316f919cf3ad7f63733604a427c6d4f1ce04821707dbd0a8aeeafc303827f879997dfed2f7057a8aa21e9225766f5667e940fceef07e1bd5b35431257082c04f05dac18b5cfed7621e9074fbb5c70559c9bee7ca25987181683c9c0ea9e31ada193f566d4888f5314d5a7b9e556e00b7a7aae1fdd85a14376edd5f859b5250074c08bd9c7e87d27435bc31979bd6b54e148242f4c8f5238c2304cbce9a4d71c3f38b71dbaee19de6f39f4c0bbcf5fedbd9a1041e6fbdfa79dca139ac6b7252beb33e80408ac19360103ab854cf5f743f5a61f070c67739dc18428a659ce874b79665579684596cc719fadb57a5e789c5443823089154576721cc5b6c902ff9e7c7fb13d02ce90af9970c22e91c9b3f7b19f31426915faebf668fb121b87b094ead93c44f236a6f62539ddf4f76951d23b2ab7b3b447bdcc4be0cf817c24ff89210552e5229bf49cbed2fcf03902bd1e056644935b892f85f54c5eabdd93e20c08a5b81f4e8fc52e3d725c216939ae714410a3cafb6cff41c7bb13deaf8ea0b9bccfc59c226385904734a3825c8f2399c45e3e0b8325c01fcf3b29080dff68fe0beb511e2bb899b4d8323af71912b66fc086824201670c9195935fbe128524aa989d0e17a31fdb8f03d4eaf3d085bf7c7d47475c73f88caf8762058fd0ded40b5ce6146130a1c22eacae639bffdb8e2836d1e700e03458800102988dddf0eb38e3ecdaade3c25df164a9d6efca69666fabad37bd7678ed3c2f68877fb89d3eca6bc50e9d8d23f7eb6955f371fe54633f2b18011d8bc8116c62e92f924f7f8d27116dc2510172e29c190ce66a9702cc2c7d40ad64abd4fe50ba4541142dff2620a5b019aeb0a6e982e84bdd7a11ae4f6facc0d732cb8bf47b893fcc4ce148c33d327b6684de83f46ea5dd1694af72255729a5d8d9ed1a7127b154a76223fc7f79a9e2e73a1ea9148812473ebb5762b3f4554626d95999bc4ccd1dfe5eaeff50d15294e5b5e7578828ec3d2e9f80b0e161d343c475052849e9fa0c1d2e4e600010a10232f406b878d909aaad1e1e7eef9fc00000000000000000000000000111f304301",
        "003622636dd88a44436d74cff470a0ff0758b6bb790c4c5f50c5f6679d15143c5b9f0aefdcf6739507df90ee8945bb5b403767ddd9e45bca298b38207141904b94f2979aaadf11fea5bb8cacbb27ca8ddc5281163d6b9587f099c77ca312561193c9b1c7c7ee9c296929eb9ce91440a55e73f3d47993486ec84cc8073713872ae9089d9d9c4d1bc852312e38973aa0825f6a77a6d1df8aab524b60b3394951b06aed5dc2ae8f268e1f605fe837526b1d80f7a2ef360c5ad13e2395c6357c779b648e47f163b66d64058420b6b1cf0810f1e77d1e873c7513e6676839a2b28301a0e7d982d9b82357ccde44697a9c3007e09e695e7fa9961118067decb344b61e55dae490122128c2e31c4a73bd29e07af805adbe73206efd99a69c4fe08bf261809649045be1d9a08407c428f202e4e2ab7420d839ecb88a4289c6b84592f71396a1af87a07563eefb10b32eae2646fe2feb41a073715f2378c4315d12bbf520716a26b59573a71bcbca190a197ccbb958237963f0c6829a259f771119f1f5bbe3a403d68f2402ba8b4569ef0bab42405aba68d604d9799cad88f89fb060ba6cb45e85ec3712f14c22cb7b714b78e29c1ac0060bf8c1eca47149231e1ec36db71c161c1906a793cf5ba82fa9e9c0a9a01eca8acd9723279ad77aa2b202920f3535ad956dbc8fd5d12093e87aa45d1764c5025a9fde56c259fa87cf3b60e75bdee1b985199d9a542c36acd71bf834dfe2d7270bfaf246e9f4e02b44d0aaf2b9e479f5cec7a9d0c9e58603f5a8dd4a3d2b9bd25f2b367e55ad597d67040bb2e35be4c15c10989602fb4f5e57ce711ace4bb95760eef2cc1d79c29eb6005917150242793fb2f20e63a2e12b1918babff916d1793e6227ccc71a8788f35754ed0c8e1703a13fc7db8d707b98f319ab054f68db2ca7cfd5e73ca2c1e43138f4f48816123e1084e022cc30bd8dc09f067e85d02f082a690d49df702a130ec3420bb00eb35db88c4ddda8b0a20bd94238f5c73c9cdb48ec2aa306d7668c26c5a168c80b37a0959ae6d84cf61e06ba01a75d6b19d943d2be58373bdd097042e294b95f40d067c7c3c82d2b5801035470afe571769c8c0f6abd4fe28121f39ae56bc5e2b18c66c5eed29e0888d34eb6d149e9c9b1bed7785b31b2186a7666b54773b9a6e692baed88e7d48b574487dbabcd3db9ead19708a343b7d9033e335091b0832a301abcd4a30a23952758d9ef4381f71e6e926036b98abe336af7a37758b799dc39014d1931c0b8075de1c0982f849803186f79982f8683f6e4a7415ce7ee6eb3fce6d5f637b5c5e0ea21e69116ca00d1469f8d057fec1a54b20fd5f6b55ac47cae45efba7739820e026047a9ddf003b3ed85e86971a32bc7e56618b375b3dd3ec2bdf9641d3aa82b85aa9446b72b83cf45d773dd7a9e21e9f5bb117aa15af94d370d09423adf17bcf13a4b9e4ca1f45f49fe019863a44826245f54abccf91e596a6ce318946a500d62c03e3edfabfe81d2ddddec0f349dc06b487fc8aee8f591087a3e80ea1949eb589bf0894066c503f4d2ac37f800d16559e15ea4d2242a3e6848a0f807eac2a5dc915395cf0a44ff8b24a4359f132419572477a50304d934ad6158255e1530a6f049b50dd7e837c48d2feb2549b54a7b6e3ae4877bc662e778c167cbad7d2bb11963617a21880fc10f86edb885915ecfbdc38e24ee5e6824d7f3f7a798f25537428a5cad57da711b7eee8ecd8d4e4c972a99d38494d0fa435da21826da75b92ffd7dc65361b6c00c8943de980bce8f4d181ef60c367abb9bf91e82356175bb8d2330da59462464836a6644cb4e9b30312a60afb34a9f1e428fb6"
      ],
      "sequence": 4294967294
    }
  ],
  "vout": [
    {
      "value": 1.0,
      "n": 0,
      "scriptPubKey": {
        "asm": "OP_RETURN 1866fd3b6febba6469625fc224819da09fdf97f7c2a359c3bc96ecb1f01ac3bd 994f5994020471713a2f752302cfe3d67d27c5fd99635cef5824431fcb0abf52b96f79b4222451511a0f550322efc3f65d07e5ddb9437ccf7804633feb2a9f72d90f19d4424431317a6f3563428fa3963d6785bdd9231caf1864035f8b4aff12f92f39f4626411115a4f154362af83b61d47a59df9033c8f3844237fab6adf3219cfd9148284f1f1baaff5a3824f6356fda7457d19e3dc6fd8a4c39f4b8a3fd239eff934a2a4d1d19a8fd583a26f4376dd87655d39c3fc4ff884e3bf6baa1ff2598f9954c2c4b1b1faefb5e3c20f2316bde7053d59a39c2f98e483df0bca7f9279afb974e2e49191dacf95c3e22f03369dc7251d7983bc0fb8c4a3ff2bea5fb2994f5994020471713a2f752302cfe3d67d27c5fd99635cef5824431fcb0abf52b96f79b4222451511a0f550322efc3f65d07e5ddb9437ccf7804633feb2a9f72d90f19d4424431317a6f3563428fa3963d6785bdd9231caf1864035f8b4aff12f92f39f4626411115a4f154362af83b61d47a59df9033c8f3844237fab6adf3219cfd9148284f1f1baaff5a3824f6356fda7457d19e3dc6fd8a4c39f4b8a3fd239eff934a2a4d1d19a8fd583a26f4376dd87655d39c3fc4ff884e3bf6baa1ff2598f9954c2c4b1b1faefb5e3c20f2316bde7053d59a39c2f98e483df0bca7f9279afb974e2e49191dacf95c3e22f03369dc7251d7983bc0fb8c4a3ff2bea5fb2994f5994020471713a2f752302cfe3d67d27c5fd99635cef5824431fcb0abf52b96f79b4222451511a0f550322efc3f65d07e5ddb9437ccf7804633feb2a9f72d90f19d4424431317a6f3563428fa3963d6785bdd9231caf1864035f8b4aff12f92f39f4626411115a4f154362af83b61d47a59df9033c8f3844237fab6adf3219cfd9148284f1f1baaff5a3824f6356fda7457d19e3dc6fd8a4c39f4b8a3fd239eff934a2a4d1d19a8fd583a26f4376dd87655d39c3fc4ff884e3bf6baa1ff2598f9954c2c4b1b1faefb5e3c20f2316bde7053d59a39c2f98e483df0bca7f9279afb974e2e49191dacf95c3e22f03369dc7251d7983bc0fb8c4a3ff2bea5fb2994f5994020471713a2f752302cfe3d67d27c5fd99635cef5824431fcb0abf52b96f79b4222451511a0f550322efc3f65d07e5ddb9437ccf7804633feb2a9f72d90f19d4424431317a6f3563428fa3963d6785bdd9231caf1864035f8b4aff12f92f39f4626411115a4f154362af83b61d47a59df9033c8f3844237fab6adf3219cfd9148284f1f1baaff5a3824f6356fda7457d19e3dc6fd8a4c39f4b8a3fd239eff934a2a4d1d19a8fd583a26f4376dd87655d39c3fc4ff884e3bf6baa1ff2598f9954c2c4b1b1faefb5e3c20f2316bde7053d59a39c2f98e483df0bca7f9279afb974e2e49191dacf95c3e22f03369dc7251d7983bc0fb8c4a3ff2bea5fb2994f5994020471713a2f752302cfe3d67d27c5fd99635cef5824431fcb0abf52b96f79b4222451511a0f550322efc3f65d07e5ddb9437ccf7804633feb2a9f72d90f19d4424431317a6f3563428fa3963d6785bdd9231caf1864035f8b4aff12f92f39f4626411115a4f154362af83b61d47a59df9033c8f3844237fab6adf3219cfd9148284f1f1baaff5a3824f63560d75c762cebee5a3db2ddb045072c13e162c199623c84e26eec0851ead8fe17c",
        "hex": "6a201866fd3b6febba6469625fc224819da09fdf97f7c2a359c3bc96ecb1f01ac3bd4db004994f5994020471713a2f752302cfe3d67d27c5fd99635cef5824431fcb0abf52b96f79b4222451511a0f550322efc3f65d07e5ddb9437ccf7804633feb2a9f72d90f19d4424431317a6f3563428fa3963d6785bdd9231caf1864035f8b4aff12f92f39f4626411115a4f154362af83b61d47a59df9033c8f3844237fab6adf3219cfd9148284f1f1baaff5a3824f6356fda7457d19e3dc6fd8a4c39f4b8a3fd239eff934a2a4d1d19a8fd583a26f4376dd87655d39c3fc4ff884e3bf6baa1ff2598f9954c2c4b1b1faefb5e3c20f2316bde7053d59a39c2f98e483df0bca7f9279afb974e2e49191dacf95c3e22f03369dc7251d7983bc0fb8c4a3ff2bea5fb2994f5994020471713a2f752302cfe3d67d27c5fd99635cef5824431fcb0abf52b96f79b4222451511a0f550322efc3f65d07e5ddb9437ccf7804633feb2a9f72d90f19d4424431317a6f3563428fa3963d6785bdd9231caf1864035f8b4aff12f92f39f4626411115a4f154362af83b61d47a59df9033c8f3844237fab6adf3219cfd9148284f1f1baaff5a3824f6356fda7457d19e3dc6fd8a4c39f4b8a3fd239eff934a2a4d1d19a8fd583a26f4376dd87655d39c3fc4ff884e3bf6baa1ff2598f9954c2c4b1b1faefb5e3c20f2316bde7053d59a39c2f98e483df0bca7f9279afb974e2e49191dacf95c3e22f03369dc7251d7983bc0fb8c4a3ff2bea5fb2994f5994020471713a2f752302cfe3d67d27c5fd99635cef5824431fcb0abf52b96f79b4222451511a0f550322efc3f65d07e5ddb9437ccf7804633feb2a9f72d90f19d4424431317a6f3563428fa3963d6785bdd9231caf1864035f8b4aff12f92f39f4626411115a4f154362af83b61d47a59df9033c8f3844237fab6adf3219cfd9148284f1f1baaff5a3824f6356fda7457d19e3dc6fd8a4c39f4b8a3fd239eff934a2a4d1d19a8fd583a26f4376dd87655d39c3fc4ff884e3bf6baa1ff2598f9954c2c4b1b1faefb5e3c20f2316bde7053d59a39c2f98e483df0bca7f9279afb974e2e49191dacf95c3e22f03369dc7251d7983bc0fb8c4a3ff2bea5fb2994f5994020471713a2f752302cfe3d67d27c5fd99635cef5824431fcb0abf52b96f79b4222451511a0f550322efc3f65d07e5ddb9437ccf7804633feb2a9f72d90f19d4424431317a6f3563428fa3963d6785bdd9231caf1864035f8b4aff12f92f39f4626411115a4f154362af83b61d47a59df9033c8f3844237fab6adf3219cfd9148284f1f1baaff5a3824f6356fda7457d19e3dc6fd8a4c39f4b8a3fd239eff934a2a4d1d19a8fd583a26f4376dd87655d39c3fc4ff884e3bf6baa1ff2598f9954c2c4b1b1faefb5e3c20f2316bde7053d59a39c2f98e483df0bca7f9279afb974e2e49191dacf95c3e22f03369dc7251d7983bc0fb8c4a3ff2bea5fb2994f5994020471713a2f752302cfe3d67d27c5fd99635cef5824431fcb0abf52b96f79b4222451511a0f550322efc3f65d07e5ddb9437ccf7804633feb2a9f72d90f19d4424431317a6f3563428fa3963d6785bdd9231caf1864035f8b4aff12f92f39f4626411115a4f154362af83b61d47a59df9033c8f3844237fab6adf3219cfd9148284f1f1baaff5a3824f63560d75c762cebee5a3db2ddb045072c13e162c199623c84e26eec0851ead8fe17c",
        "type": "nulldata"
      }
    },
    {
      "value": 499960.3409,
      "n": 1,
      "scriptPubKey": {
        "asm": "1 b30aaaf8981a8fd677ae174c8acf76a6b99361584e46ff8d295fdcbcbb7a1272",
        "hex": "5120b30aaaf8981a8fd677ae174c8acf76a6b99361584e46ff8d295fdcbcbb7a1272",
        "reqSigs": 1,
        "type": "witness_v1_scripthash",
        "addresses": [
          "3QJmnh"
        ]
      }
    }
  ],
  "blockhash": "394f302ff1829b8db869c98f7b64fb5f27cc2b50e933cff1e5bbeae34fa68a80",
  "confirmations": 1,
  "time": 1764183654,
  "blocktime": 1764183654
}