{
  "hex": "01000000000101eae491faaa32acc5a1911402cd2cb52e3a347e28f172ba288d5717a03f2279730000000000feffffff021076cf5d792d0000225120b7b938d1053760b5f0efcc8c1cb53f8c470026e0885ca0b8c802ff440680862b00e1f50500000000fdd5046a20ac87b87c985476a1d7c1b5c502891c4e9f1283f4eeb3a1851b67d3d11015c4c24db004066b522464633dfa101041109776b004d0822a2c7ce39587d57c425fb065e635264b720444431dda30306130b7569024f0a20a0c5cc3b5a7f55c627f9045c615462b126424237dba50500150d736f04490c26a6c3ca3d5c7953c021ff025a675660b324404035d9a70702170f716d064b0e24a4c1c83f5e7b51c223fd005865586ebd2a4e4e3bd7a9090c19017f630845002aaacfc63150755fcc2df30e566b5a6cbf284c4c39d5ab0b0e1b037d610a470228a8cdc43352775dce2ff10c54695c6ab92e4a4a3fd3ad0d081d057b670c41042eaecbc23554715bc829f70a526f5e68bb2c48483dd1af0f0a1f0779650e43062cacc9c037567359ca2bf508506d5066b522464633dfa101041109776b004d0822a2c7ce39587d57c425fb065e635264b720444431dda30306130b7569024f0a20a0c5cc3b5a7f55c627f9045c615462b126424237dba50500150d736f04490c26a6c3ca3d5c7953c021ff025a675660b324404035d9a70702170f716d064b0e24a4c1c83f5e7b51c223fd005865586ebd2a4e4e3bd7a9090c19017f630845002aaacfc63150755fcc2df30e566b5a6cbf284c4c39d5ab0b0e1b037d610a470228a8cdc43352775dce2ff10c54695c6ab92e4a4a3fd3ad0d081d057b670c41042eaecbc23554715bc829f70a526f5e68bb2c48483dd1af0f0a1f0779650e43062cacc9c037567359ca2bf508506d5066b522464633dfa101041109776b004d0822a2c7ce39587d57c425fb065e635264b720444431dda30306130b7569024f0a20a0c5cc3b5a7f55c627f9045c615462b126424237dba50500150d736f04490c26a6c3ca3d5c7953c021ff025a675660b324404035d9a70702170f716d064b0e24a4c1c83f5e7b51c223fd005865586ebd2a4e4e3bd7a9090c19017f630845002aaacfc63150755fcc2df30e566b5a6cbf284c4c39d5ab0b0e1b037d610a470228a8cdc43352775dce2ff10c54695c6ab92e4a4a3fd3ad0d081d057b670c41042eaecbc23554715bc829f70a526f5e68bb2c48483dd1af0f0a1f0779650e43062cacc9c037567359ca2bf508506d5066b522464633dfa101041109776b004d0822a2c7ce39587d57c425fb065e635264b720444431dda30306130b7569024f0a20a0c5cc3b5a7f55c627f9045c615462b126424237dba50500150d736f04490c26a6c3ca3d5c7953c021ff025a675660b324404035d9a70702170f716d064b0e24a4c1c83f5e7b51c223fd005865586ebd2a4e4e3bd7a9090c19017f630845002aaacfc63150755fcc2df30e566b5a6cbf284c4c39d5ab0b0e1b037d610a470228a8cdc43352775dce2ff10c54695c6ab92e4a4a3fd3ad0d081d057b670c41042eaecbc23554715bc829f70a526f5e68bb2c48483dd1af0f0a1f0779650e43062cacc9c037567359ca2bf508506d5066b522464633dfa101041109776b004d0822a2c7ce39587d57c425fb065e635264b720444431dda30306130b7569024f0a20a0c5cc3b5a7f55c627f9045c615462b126424237dba50500150d736f04490c26a6c3ca3d5c7953c021ff025a675660b324404035d9a70702170f716d064b0e24a4c1c83f5e7b51c223fd005865586ebd2a4e4e3bd7a9090c19017f630845d20a9f0e82aa24767df685ad4c68ecfa0fd3dc9ed706b90388651bf70e0fd9c02fd75097b952fcc969a39947a53b7cab69474c0dd0a7a3eb0d4fdd4418e6c1877ed41df0ec016d88989a1e87bfa3230d99061c84c2693ff0d01d21feb5aef6c6365b0e7db17e641796937ddcfdcab26d6722b1c4f7c3b2dc6ca6738f3c4ad577b18fc7a998c0497538bbee49e6bbce3b567beb1f021e52dc466cb15d88a91e34c0016f50a3bdb8b70951e7df84e7b5fe3fbd2eb3c0754111412711b57e49f7e2fe9b6b4872984fc6ce7885cbf70475c0328a2b354a2a4f0c2b875e9de5c953a47019c8985c34b1a272ad6fb2d56337e44baf3a1695a50e919356e29308612b9339fc78c8321c601710720329126fde15311f3caaaf6ce1ed6d0e9d6c06597e48052e76cb784bb858b12ca0ca5a623775f88c585eb30b6bdb9b02149a4fbb64fa464572ae4d7e9c5ad3e027c33453ada463db840bbdaea6962effb214b4344386f52ff3badb134a0c1aa111ffe245bc3dd17debdd5c3116666d6ada71c826354b295d2b22edcdd5bbf95091ab434754b5690cf2e71210e74b4b8db1a5c4ad44511e0021e7931c83bb4afbf1464c4a796c23bf776dd9c7b7c0b1aa9eed227b3263ad2a58b49f393782e5602c91520e4ebd29bf11fe6c8f9728091f61364245cadf1747fa3c9bffa293c4ac5a3b5c22ea696f5381e570baf0017937210df9cb063d797bf73c2578456299e76e6014f1abca76b7a2d205dba95ccaa004ebb163165780ff5c9e31f61ccd43daac06d6d1e3fbf4ba96fea7b6e9a7e3401d09e43c93fb2826579758f77bc9cf315d7a0ff69f0e8b468a25811b4e5543446dcd0781a0751c5cfe9399dd9d2bd777d4fc3124677ec1c1d79c8a91ba10367914066c72f25d85f3a5545b5b6672aab541c78dec45699f02d9ce2d4d8b58be7bc1b1b27c86e2e6a32892051770eb5ab840f3ba8ebbf0c6e58483ea4fdf7d29d6f3d8f2d37623d3c9d30ba90c96c34314b31eabab91603f922b09d5a5d536d1dbeb6434a18764d1075d13e0666a73708864d43a5a7abc10d131563279b9da48c0ea4f955a1dccdb5f36c3841fca9f7761608e6f69cd21cdf8933a894edd9dd5caab1fb995df632ba25886cea3e2e01ccecf4487cc12f6da1bfc627df4e8a05370a1dd377a864df46f1d6a4ce8341d5c70a65f71786432b60ad1910057be0fd336715dbe23ba76e68146378f3376a89b84253cdb5aeb7bb96c44a874c008c58e38b151528470248f3e876ecc182e15665f6b0ad34be9cbbd0e3c19c51fa27cf73d07540a54a5493dadd2c5ccced888817a82b1a3a55b7dc2e348b0aea57fce62d6c185742be88257b0a4541d14d2c1f976f5109f78c4e709ccfdf62a29e61ab8453caa1b4bf247a4e0e96ff9b4e77b04d896397e167880a1bda8c454eed3a6668dbd9bb2c07f1e2d8a40bb37089b73dfea536b3347dfccf3c42cf21c2c95642d001cdecd9dd71409f74662b6e8ea8803972f6f04de24893623955d621379f96ab01f0b1ddf0c24fafecace9c2de3898bc866b33c52949b589b3b8fae884e97bb5bc88b979b47c8be54d9ffeb39af6cdb66d30d98506e871e9e38f872e2a3a87908f6950ec2629e2c6adbb181d35aa78f80b2274662446be3206910cead3028ec9f5ff0013fe337dc5b9bb98dcfdd029321aa603ac3cf2c2e30683ebddeb34ec17542ec0adca7b1d16f9bff8ad8f9c75e5267301926ed977876e671195c017e23f4232d3a8cb119cfc7e1a90d3b5122b55b2a5707e2d8cb598449803c53b0d4587627949b9f8fc1191387351babcf0a838dc56a1b6bab40d3557d30fcabcdf54ebe655b513b7dc255c7d3b5342eb1ab0141fb5129b4e48a8a3e7c49cf6b6ad0714b7ef9bd5521acf8d3fd9a1bf8e241868103d1a45eb9a003018ffb5cf1d83475f9ece6b0fd02d911718817251626a1770ac07e00c8d76d3ffdb3960bf7d0ac03c6280e71550de3d1f64de8e64f6156db21390100c75bfec261fdcd1d580156203b73e924a2deeb319f09e9cd07491ddb26cf5393a0610dcef19226ed463aca933937035b9f35087c5d6aa9c2325af06c59b86c5ec1edd9b7f0e9ae3c07d322b8496fb9ae331ff7eb0ef43bcddb1d3793e2dfbb1a7312c5052f8cd12b8c485799d10decb1266aebc27fd6b99f97eb1b2645de3441ef60c3fdfbc8d9c2c024e358238f93ce960118bf40a25d6a684a69687c4ee6b4a6e5b6a8ba2a94c59639bf2b50e12e1d73203e99a1b56cc38b2b35de5e1d29bce8d9231ad5ba69017241a745f3f5adb0f3995bc747e93f44e5d49c9cef0a65df63b8229ca424f6e32a8f5c5d30c30e5b02ef2ea9a5b28b9c32f75b63a00663c118e4685c852ed1cac0f1d1a0677dd54b7a126efce57d72abde336ebc13f81e066e659f0c7549379f4af9bda565f913e1cee14406d9eb6266628b2861aee8f1f4431ee25af3b693967b9fe84a5abe993923778fbb14c9ae57131f4bf82bd76c353ff12ca9eaa32c985912ab3f6a03734c0d93072d41bad540d7845b3b4a59d109463845db7a40097ae6e7529049985da55842f92324d925f118e934f3912f2d81c5ef92a667f9bd594c68f5261548a3c6197ca0942422aa5b269cd18b76d3e403602edc09c71260d97b9b42532e2acac78cab0b3bbeab30b78902d5171d91bc45a3d1fe72fc973b120b42d32f16b3d35314217f40c7e287fb7c27dce00545ca1ad40ecc4d45e6c687d5679963fee257b01cfb24ff58f6a973d18d3642b93b9e37e0ecb9cefca04abfa7f2ff83073b7e0b5a8df67e432dc8b0b8a0761e5bbf579c30c5fa0ea7e01155a8acaa36ee88a0d6cce10bd576a5818285f42593074af8ba6b2df88c53aeaaf412b756158bb1a3da1cc339b1154a3dfa3275600319f04b19b73bef8a53ed672abad5c5c600d91cc2d6ed53b9c2b2cb89460a0558af9559089ddfef0dcbda1fa24411ef11a8a22d10aefadd3c324b196dcc28a5be32e52991c83b470b40ff568b88c7b55a491ab16b723eab7e61de2fc693fbf5376a47af8b681ed25e7ec31f352f5adea58c45098106d56fa3ee049808e3e1a20a2e185bdab889818618b890ef34ceb6b331e297ddb60cc7d609b8f55be38adeec9cc3390afa7d5754d47207255bf331bd0498c1ae2beb00e0f188b50a7b6b97f52e2688c72153e145997102af62cdf6232bcd4999139098f563e8498a315b14c78ac16e68e7f928248bed4811d07168f1461d9f62046f02a8d10f4d03c9c3924260d5d3785b3bd45ca0bd9761ab9f2bdeba5bdc350e31f439d75968af57b41358ad323e31650822480511d29d0fe2e30b7ef3eefc59f70822b61fa00050c15181b224e4f63646a77839a9ddef7f814161844587d8a99b2bdcacbed2127353941454f6c88c4c6e3f0f5202628347391be00000000000000000000000000000000000000000000000000000013202e3501fd210500aff90fc51a35da08a8acd9f2a6c578fc479e8f60221aefc4a2022083de69c25d49efe5b67110772ba72d53f2945d1b02a951f32e8926e451ef30e8e7def6709ba752217fe26c000e8ca12d867fb9ff024ac15fa5be7456eb7fd9c58099783826b6971bc7e092d14a4acef17be83f4282c893611758a6601cbe7d46dd36285583086d44a8b19770d6b0e2f3f71c9cff6e081d75357515aeaa1af2b8f334f60b8798630c49428a40f98954b8cc3cf20b83657d6b6fe2d9cb0aeb5ad87e767c34f4fda0756a2f601bc944a11dcd57fc4118fbd46edbb294777a5e7669cd1902e7d8a0806e4d2f34e43ff97a45e5e60aa77ba45d782032de0eb10dafea908a6372e0d98ee36899687cced626629a777d1bdc044fa8a9915322ee10ce6ac7e888a5b4dd140cebc0ff8d48a2918a2773931cb5c5587ca28461294c376caa4b8ceb46a3bc6e95f3fef5d989cfa76e473eb428e05f05ffdf6dbdcbf9c67ba909421c0d975302b243f5dce7a82c8c61f65fc5f2976334c33e0e0a98f078863a31daf83e32b2ba2d0bf7be8c608873991c7636926482d70c84532adfaa71473a1de7906086f5626e35e89d7fbe2ca2585ddea19570e71749572fc52cd74bd4bb4d5b6494a8ccbf64c8b8ae1525fc223202dfbaf1a1634f4eceb77ac4682062e0a0e8e29cb72c22ed5200a3fddb6c256e322906cf6913a1ede92b6c7c29c9d5e12623ca09524d9aebcec0a53a260b54628e6137db56dd56124a39795840c9016a7f923f11dafceec1724e7707c3c8ce3fc1ec8153d42a8610bccac7d05fe7dc75bd7ae538d210ff34ce21852a2af56ebfa8d39fe836ef2bb1d7e127f0895ca52f08c2a962888d7fa2fb5b86040b115880bb48968c075f460f06ffb1d01908107aeb335e580b63bac1950b07854a6787209b7956f9cf89efdd0e04858f71d890a3aa2bcaa84d31a2d05164f41275265a038b961c07c9e6900d9305be0c987a32072286e16a7846c9fe3fada34fcfa99ccd2902bc451aa8dd7286cafa00453c55be5fd639e7f4620494ff6c9f5d10ef896b81dd8872e01ce58772afe7116727583d59e0035645961354de7eaff7ed8f90d6ddbbcaadc57b8b0de363c213d4d4be7154f2dadd506f66b629220d961dfdf5cab210ce061a6549d5b98322855fac48e2acd05d0777f7e1fb48a28297af4d7ca9e1f67391b9d5f2bb3c652fd39d11019343d0a3391c54f02640d2cae252b381018eca439407fbcb04b593be7acc9f51b38d4d74b407096660f3246429475f7725e1611eeeea7873617d73cf73b5032456fd96ab78a9108379a2ad2ddd97f3a7c80550243aada730262b7c09d8fe71bc5ea85d30e456bd7ddd20be8ce121a837c83364ffc2cd42a27cc3bce0cd8c82d10decec569755a5e091e4657df94a4aa1d35e410ddacc54b656677995a329b373ee0f246b283b6de8e3e4e07c291da2995b36336d46e23f9a9a05c7dea18a86a25ed96280dda4df8671634521da3be74b9a6e071f5e596c9195b687ef63c79d308053969a3764e42ee9a48c9b5d680b48005d305888f8a0021aef009a224ea2b130904865822087925a17e0c27f60d811fd72b0e4136bf08a2cb15e5479990666f871de802608e87284fa4f6667a49d8bfe7cdd4e4ca339e5aa204f78248ec0dc9e0c3d430162658f2a555560d36745b9e6d9ace4eff4ca536bd934913d83e13901232ab9dd426ae535cfeef3e3b6a27cab53655951ebcf21f2cc91cea27be96a77c04ce9724854db7bf7c0f89d43de3cf1c4575368ae8a9daaabfde8138e1f3465a8430e0c393340b83ab7329db4bcede5fbbf951712cdacab4d5eaf783054616ed05e9b1ebb69000000",
  "txid": "67777cdf194436e5d37998a07e44dae967bced6ba4dc64d6d49777b54692dc45",
  "hash": "e9e41715066e5a655c367844196ad115d7cd2cf997b3322c98ddd54a8b6fca8e",
  "size": 5085,
  "vsize": 2278,
  "version": 1,
  "locktime": 105,
  "vin": [
    {
      "txid": "7379223fa017578d28ba72f1287e343a2eb52ccd021491a1c5ac32aafa91e4ea",
      "vout": 0,
      "scriptSig": {
        "asm": "",
        "hex": ""
      },
      "txinwitness": [
        "7b952fcc969a39947a53b7cab69474c0dd0a7a3eb0d4fdd4418e6c1877ed41df0ec016d88989a1e87bfa3230d99061c84c2693ff0d01d21feb5aef6c6365b0e7db17e641796937ddcfdcab26d6722b1c4f7c3b2dc6ca6738f3c4ad577b18fc7a998c0497538bbee49e6bbce3b567beb1f021e52dc466cb15d88a91e34c0016f50a3bdb8b70951e7df84e7b5fe3fbd2eb3c0754111412711b57e49f7e2fe9b6b4872984fc6ce7885cbf70475c0328a2b354a2a4f0c2b875e9de5c953a47019c8985c34b1a272ad6fb2d56337e44baf3a1695a50e919356e29308612b9339fc78c8321c601710720329126fde15311f3caaaf6ce1ed6d0e9d6c06597e48052e76cb784bb858b12ca0ca5a623775f88c585eb30b6bdb9b02149a4fbb64fa464572ae4d7e9c5ad3e027c33453ada463db840bbdaea6962effb214b4344386f52ff3badb134a0c1aa111ffe245bc3dd17debdd5c3116666d6ada71c826354b295d2b22edcdd5bbf95091ab434754b5690cf2e71210e74b4b8db1a5c4ad44511e0021e7931c83bb4afbf1464c4a796c23bf776dd9c7b7c0b1aa9eed227b3263ad2a58b49f393782e5602c91520e4ebd29bf11fe6c8f9728091f61364245cadf1747fa3c9bffa293c4ac5a3b5c22ea696f5381e570baf0017937210df9cb063d797bf73c2578456299e76e6014f1abca76b7a2d205dba95ccaa004ebb163165780ff5c9e31f61ccd43daac06d6d1e3fbf4ba96fea7b6e9a7e3401d09e43c93fb2826579758f77bc9cf315d7a0ff69f0e8b468a25811b4e5543446dcd0781a0751c5cfe9399dd9d2bd777d4fc3124677ec1c1d79c8a91ba10367914066c72f25d85f3a5545b5b6672aab541c78dec45699f02d9ce2d4d8b58be7bc1b1b27c86e2e6a32892051770eb5ab840f3ba8ebbf0c6e58483ea4fdf7d29d6f3d8f2d37623d3c9d30ba90c96c34314b31eabab91603f922b09d5a5d536d1dbeb6434a18764d1075d13e0666a73708864d43a5a7abc10d131563279b9da48c0ea4f955a1dccdb5f36c3841fca9f7761608e6f69cd21cdf8933a894edd9dd5caab1fb995df632ba25886cea3e2e01ccecf4487cc12f6da1bfc627df4e8a05370a1dd377a864df46f1d6a4ce8341d5c70a65f71786432b60ad1910057be0fd336715dbe23ba76e68146378f3376a89b84253cdb5aeb7bb96c44a874c008c58e38b151528470248f3e876ecc182e15665f6b0ad34be9cbbd0e3c19c51fa27cf73d07540a54a5493dadd2c5ccced888817a82b1a3a55b7dc2e348b0aea57fce62d6c185742be88257b0a4541d14d2c1f976f5109f78c4e709ccfdf62a29e61ab8453caa1b4bf247a4e0e96ff9b4e77b04d896397e167880a1bda8c454eed3a6668dbd9bb2c07f1e2d8a40bb37089b73dfea536b3347dfccf3c42cf21c2c95642d001cdecd9dd71409f74662b6e8ea8803972f6f04de24893623955d621379f96ab01f0b1ddf0c24fafecace9c2de3898bc866b33c52949b589b3b8fae884e97bb5bc88b979b47c8be54d9ffeb39af6cdb66d30d98506e871e9e38f872e2a3a87908f6950ec2629e2c6adbb181d35aa78f80b2274662446be3206910cead3028ec9f5ff0013fe337dc5b9bb98dcfdd029321aa603ac3cf2c2e30683ebddeb34ec17542ec0adca7b1d16f9bff8ad8f9c75e5267301926ed977876e671195c017e23f4232d3a8cb119cfc7e1a90d3b5122b55b2a5707e2d8cb598449803c53b0d4587627949b9f8fc1191387351babcf0a838dc56a1b6bab40d3557d30fcabcdf54ebe655b513b7dc255c7d3b5342eb1ab0141fb5129b4e48a8a3e7c49cf6b6ad0714b7ef9bd5521acf8d3fd9a1bf8e241868103d1a45eb9a003018ffb5cf1d83475f9ece6b0fd02d911718817251626a1770ac07e00c8d76d3ffdb3960bf7d0ac03c6280e71550de3d1f64de8e64f6156db21390100c75bfec261fdcd1d580156203b73e924a2deeb319f09e9cd07491ddb26cf5393a0610dcef19226ed463aca933937035b9f35087c5d6aa9c2325af06c59b86c5ec1edd9b7f0e9ae3c07d322b8496fb9ae331ff7eb0ef43bcddb1d3793e2dfbb1a7312c5052f8cd12b8c485799d10decb1266aebc27fd6b99f97eb1b2645de3441ef60c3fdfbc8d9c2c024e358238f93ce960118bf40a25d6a684a69687c4ee6b4a6e5b6a8ba2a94c59639bf2b50e12e1d73203e99a1b56cc38b2b35de5e1d29bce8d9231ad5ba69017241a745f3f5adb0f3995bc747e93f44e5d49c9cef0a65df63b8229ca424f6e32a8f5c5d30c30e5b02ef2ea9a5b28b9c32f75b63a00663c118e4685c852ed1cac0f1d1a0677dd54b7a126efce57d72abde336ebc13f81e066e659f0c7549379f4af9bda565f913e1cee14406d9eb6266628b2861aee8f1f4431ee25af3b693967b9fe84a5abe993923778fbb14c9ae57131f4bf82bd76c353ff12ca9eaa32c985912ab3f6a03734c0d93072d41bad540d7845b3b4a59d109463845db7a40097ae6e7529049985da55842f92324d925f118e934f3912f2d81c5ef92a667f9bd594c68f5261548a3c6197ca0942422aa5b269cd18b76d3e403602edc09c71260d97b9b42532e2acac78cab0b3bbeab30b78902d5171d91bc45a3d1fe72fc973b120b42d32f16b3d35314217f40c7e287fb7c27dce00545ca1ad40ecc4d45e6c687d5679963fee257b01cfb24ff58f6a973d18d3642b93b9e37e0ecb9cefca04abfa7f2ff83073b7e0b5a8df67e432dc8b0b8a0761e5bbf579c30c5fa0ea7e01155a8acaa36ee88a0d6cce10bd576a5818285f42593074af8ba6b2df88c53aeaaf412b756158bb1a3da1cc339b1154a3dfa3275600319f04b19b73bef8a53ed672abad5c5c600d91cc2d6ed53b9c2b2cb89460a0558af9559089ddfef0dcbda1fa24411ef11a8a22d10aefadd3c324b196dcc28a5be32e52991c83b470b40ff568b88c7b55a491ab16b723eab7e61de2fc693fbf5376a47af8b681ed25e7ec31f352f5adea58c45098106d56fa3ee049808e3e1a20a2e185bdab889818618b890ef34ceb6b331e297ddb60cc7d609b8f55be38adeec9cc3390afa7d5754d47207255bf331bd0498c1ae2beb00e0f188b50a7b6b97f52e2688c72153e145997102af62cdf6232bcd4999139098f563e8498a315b14c78ac16e68e7f928248bed4811d07168f1461d9f62046f02a8d10f4d03c9c3924260d5d3785b3bd45ca0bd9761ab9f2bdeba5bdc350e31f439d75968af57b41358ad323e31650822480511d29d0fe2e30b7ef3eefc59f70822b61fa00050c15181b224e4f63646a77839a9ddef7f814161844587d8a99b2bdcacbed2127353941454f6c88c4c6e3f0f5202628347391be00000000000000000000000000000000000000000000000000000013202e3501",
        "00aff90fc51a35da08a8acd9f2a6c578fc479e8f60221aefc4a2022083de69c25d49efe5b67110772ba72d53f2945d1b02a951f32e8926e451ef30e8e7def6709ba752217fe26c000e8ca12d867fb9ff024ac15fa5be7456eb7fd9c58099783826b6971bc7e092d14a4acef17be83f4282c893611758a6601cbe7d46dd36285583086d44a8b19770d6b0e2f3f71c9cff6e081d75357515aeaa1af2b8f334f60b8798630c49428a40f98954b8cc3cf20b83657d6b6fe2d9cb0aeb5ad87e767c34f4fda0756a2f601bc944a11dcd57fc4118fbd46edbb294777a5e7669cd1902e7d8a0806e4d2f34e43ff97a45e5e60aa77ba45d782032de0eb10dafea908a6372e0d98ee36899687cced626629a777d1bdc044fa8a9915322ee10ce6ac7e888a5b4dd140cebc0ff8d48a2918a2773931cb5c5587ca28461294c376caa4b8ceb46a3bc6e95f3fef5d989cfa76e473eb428e05f05ffdf6dbdcbf9c67ba909421c0d975302b243f5dce7a82c8c61f65fc5f2976334c33e0e0a98f078863a31daf83e32b2ba2d0bf7be8c608873991c7636926482d70c84532adfaa71473a1de7906086f5626e35e89d7fbe2ca2585ddea19570e71749572fc52cd74bd4bb4d5b6494a8ccbf64c8b8ae1525fc223202dfbaf1a1634f4eceb77ac4682062e0a0e8e29cb72c22ed5200a3fddb6c256e322906cf6913a1ede92b6c7c29c9d5e12623ca09524d9aebcec0a53a260b54628e6137db56dd56124a39795840c9016a7f923f11dafceec1724e7707c3c8ce3fc1ec8153d42a8610bccac7d05fe7dc75bd7ae538d210ff34ce21852a2af56ebfa8d39fe836ef2bb1d7e127f0895ca52f08c2a962888d7fa2fb5b86040b115880bb48968c075f460f06ffb1d01908107aeb335e580b63bac1950b07854a6787209b7956f9cf89efdd0e04858f71d890a3aa2bcaa84d31a2d05164f41275265a038b961c07c9e6900d9305be0c987a32072286e16a7846c9fe3fada34fcfa99ccd2902bc451aa8dd7286cafa00453c55be5fd639e7f4620494ff6c9f5d10ef896b81dd8872e01ce58772afe7116727583d59e0035645961354de7eaff7ed8f90d6ddbbcaadc57b8b0de363c213d4d4be7154f2dadd506f66b629220d961dfdf5cab210ce061a6549d5b98322855fac48e2acd05d0777f7e1fb48a28297af4d7ca9e1f67391b9d5f2bb3c652fd39d11019343d0a3391c54f02640d2cae252b381018eca439407fbcb04b593be7acc9f51b38d4d74b407096660f3246429475f7725e1611eeeea7873617d73cf73b5032456fd96ab78a9108379a2ad2ddd97f3a7c80550243aada730262b7c09d8fe71bc5ea85d30e456bd7ddd20be8ce121a837c83364ffc2cd42a27cc3bce0cd8c82d10decec569755a5e091e4657df94a4aa1d35e410ddacc54b656677995a329b373ee0f246b283b6de8e3e4e07c291da2995b36336d46e23f9a9a05c7dea18a86a25ed96280dda4df8671634521da3be74b9a6e071f5e596c9195b687ef63c79d308053969a3764e42ee9a48c9b5d680b48005d305888f8a0021aef009a224ea2b130904865822087925a17e0c27f60d811fd72b0e4136bf08a2cb15e5479990666f871de802608e87284fa4f6667a49d8bfe7cdd4e4ca339e5aa204f78248ec0dc9e0c3d430162658f2a555560d36745b9e6d9ace4eff4ca536bd934913d83e13901232ab9dd426ae535cfeef3e3b6a27cab53655951ebcf21f2cc91cea27be96a77c04ce9724854db7bf7c0f89d43de3cf1c4575368ae8a9daaabfde8138e1f3465a8430e0c393340b83ab7329db4bcede5fbbf951712cdacab4d5eaf783054616ed05e9b1ebb"
      ],
      "sequence": 4294967294
    }
  ],
  "vout": [
    {
      "value": 499992.8817,
      "n": 0,
      "scriptPubKey": {
        "asm": "1 b7b938d1053760b5f0efcc8c1cb53f8c470026e0885ca0b8c802ff440680862b",
        "hex": "5120b7b938d1053760b5f0efcc8c1cb53f8c470026e0885ca0b8c802ff440680862b",
        "reqSigs": 1,
        "type": "witness_v1_scripthash",
        "addresses": [
          "3QJmnh"
        ]
      }
    },
    {
      "value": 1.0,
      "n": 1,
      "scriptPubKey": {
        "asm": "OP_RETURN ac87b87c985476a1d7c1b5c502891c4e9f1283f4eeb3a1851b67d3d11015c4c2 066b522464633dfa101041109776b004d0822a2c7ce39587d57c425fb065e635264b720444431dda30306130b7569024f0a20a0c5cc3b5a7f55c627f9045c615462b126424237dba50500150d736f04490c26a6c3ca3d5c7953c021ff025a675660b324404035d9a70702170f716d064b0e24a4c1c83f5e7b51c223fd005865586ebd2a4e4e3bd7a9090c19017f630845002aaacfc63150755fcc2df30e566b5a6cbf284c4c39d5ab0b0e1b037d610a470228a8cdc43352775dce2ff10c54695c6ab92e4a4a3fd3ad0d081d057b670c41042eaecbc23554715bc829f70a526f5e68bb2c48483dd1af0f0a1f0779650e43062cacc9c037567359ca2bf508506d5066b522464633dfa101041109776b004d0822a2c7ce39587d57c425fb065e635264b720444431dda30306130b7569024f0a20a0c5cc3b5a7f55c627f9045c615462b126424237dba50500150d736f04490c26a6c3ca3d5c7953c021ff025a675660b324404035d9a70702170f716d064b0e24a4c1c83f5e7b51c223fd005865586ebd2a4e4e3bd7a9090c19017f630845002aaacfc63150755fcc2df30e566b5a6cbf284c4c39d5ab0b0e1b037d610a470228a8cdc43352775dce2ff10c54695c6ab92e4a4a3fd3ad0d081d057b670c41042eaecbc23554715bc829f70a526f5e68bb2c48483dd1af0f0a1f0779650e43062cacc9c037567359ca2bf508506d5066b522464633dfa101041109776b004d0822a2c7ce39587d57c425fb065e635264b720444431dda30306130b7569024f0a20a0c5cc3b5a7f55c627f9045c615462b126424237dba50500150d736f04490c26a6c3ca3d5c7953c021ff025a675660b324404035d9a70702170f716d064b0e24a4c1c83f5e7b51c223fd005865586ebd2a4e4e3bd7a9090c19017f630845002aaacfc63150755fcc2df30e566b5a6cbf284c4c39d5ab0b0e1b037d610a470228a8cdc43352775dce2ff10c54695c6ab92e4a4a3fd3ad0d081d057b670c41042eaecbc23554715bc829f70a526f5e68bb2c48483dd1af0f0a1f0779650e43062cacc9c037567359ca2bf508506d5066b522464633dfa101041109776b004d0822a2c7ce39587d57c425fb065e635264b720444431dda30306130b7569024f0a20a0c5cc3b5a7f55c627f9045c615462b126424237dba50500150d736f04490c26a6c3ca3d5c7953c021ff025a675660b324404035d9a70702170f716d064b0e24a4c1c83f5e7b51c223fd005865586ebd2a4e4e3bd7a9090c19017f630845002aaacfc63150755fcc2df30e566b5a6cbf284c4c39d5ab0b0e1b037d610a470228a8cdc43352775dce2ff10c54695c6ab92e4a4a3fd3ad0d081d057b670c41042eaecbc23554715bc829f70a526f5e68bb2c48483dd1af0f0a1f0779650e43062cacc9c037567359ca2bf508506d5066b522464633dfa101041109776b004d0822a2c7ce39587d57c425fb065e635264b720444431dda30306130b7569024f0a20a0c5cc3b5a7f55c627f9045c615462b126424237dba50500150d736f04490c26a6c3ca3d5c7953c021ff025a675660b324404035d9a70702170f716d064b0e24a4c1c83f5e7b51c223fd005865586ebd2a4e4e3bd7a9090c19017f630845d20a9f0e82aa24767df685ad4c68ecfa0fd3dc9ed706b90388651bf70e0fd9c",
        "hex": "6a20ac87b87c985476a1d7c1b5c502891c4e9f1283f4eeb3a1851b67d3d11015c4c24db004066b522464633dfa101041109776b004d0822a2c7ce39587d57c425fb065e635264b720444431dda30306130b7569024f0a20a0c5cc3b5a7f55c627f9045c615462b126424237dba50500150d736f04490c26a6c3ca3d5c7953c021ff025a675660b324404035d9a70702170f716d064b0e24a4c1c83f5e7b51c223fd005865586ebd2a4e4e3bd7a9090c19017f630845002aaacfc63150755fcc2df30e566b5a6cbf284c4c39d5ab0b0e1b037d610a470228a8cdc43352775dce2ff10c54695c6ab92e4a4a3fd3ad0d081d057b670c41042eaecbc23554715bc829f70a526f5e68bb2c48483dd1af0f0a1f0779650e43062cacc9c037567359ca2bf508506d5066b522464633dfa101041109776b004d0822a2c7ce39587d57c425fb065e635264b720444431dda30306130b7569024f0a20a0c5cc3b5a7f55c627f9045c615462b126424237dba50500150d736f04490c26a6c3ca3d5c7953c021ff025a675660b324404035d9a70702170f716d064b0e24a4c1c83f5e7b51c223fd005865586ebd2a4e4e3bd7a9090c19017f630845002aaacfc63150755fcc2df30e566b5a6cbf284c4c39d5ab0b0e1b037d610a470228a8cdc43352775dce2ff10c54695c6ab92e4a4a3fd3ad0d081d057b670c41042eaecbc23554715bc829f70a526f5e68bb2c48483dd1af0f0a1f0779650e43062cacc9c037567359ca2bf508506d5066b522464633dfa101041109776b004d0822a2c7ce39587d57c425fb065e635264b720444431dda30306130b7569024f0a20a0c5cc3b5a7f55c627f9045c615462b126424237dba50500150d736f04490c26a6c3ca3d5c7953c021ff025a675660b324404035d9a70702170f716d064b0e24a4c1c83f5e7b51c223fd005865586ebd2a4e4e3bd7a9090c19017f630845002aaacfc63150755fcc2df30e566b5a6cbf284c4c39d5ab0b0e1b037d610a470228a8cdc43352775dce2ff10c54695c6ab92e4a4a3fd3ad0d081d057b670c41042eaecbc23554715bc829f70a526f5e68bb2c48483dd1af0f0a1f0779650e43062cacc9c037567359ca2bf508506d5066b522464633dfa101041109776b004d0822a2c7ce39587d57c425fb065e635264b720444431dda30306130b7569024f0a20a0c5cc3b5a7f55c627f9045c615462b126424237dba50500150d736f04490c26a6c3ca3d5c7953c021ff025a675660b324404035d9a70702170f716d064b0e24a4c1c83f5e7b51c223fd005865586ebd2a4e4e3bd7a9090c19017f630845002aaacfc63150755fcc2df30e566b5a6cbf284c4c39d5ab0b0e1b037d610a470228a8cdc43352775dce2ff10c54695c6ab92e4a4a3fd3ad0d081d057b670c41042eaecbc23554715bc829f70a526f5e68bb2c48483dd1af0f0a1f0779650e43062cacc9c037567359ca2bf508506d5066b522464633dfa101041109776b004d0822a2c7ce39587d57c425fb065e635264b720444431dda30306130b7569024f0a20a0c5cc3b5a7f55c627f9045c615462b126424237dba50500150d736f04490c26a6c3ca3d5c7953c021ff025a675660b324404035d9a70702170f716d064b0e24a4c1c83f5e7b51c223fd005865586ebd2a4e4e3bd7a9090c19017f630845d20a9f0e82aa24767df685ad4c68ecfa0fd3dc9ed706b90388651bf70e0fd9c",
        "type": "nulldata"
      }
    }
  ],
  "blockhash": "86d3aa2e412fd1c0ad7fd5d7d84b7ddcf41a8bf652344eaa49dd1e6444ae5dce",
  "confirmations": 1,
  "time": 1764176858,
  "blocktime": 1764176858
}