{
  "hex": "010000000001012ca5bf99ddcfbbb611c5cbaecd399b10f672075b9ed15465f670539c3f3e2b6d0100000000feffffff0200e1f50500000000fdd5046a20d9680df7aca1a049b9f3c9b232a78aa9b67c9390ab4c81d920d1d1d14cba64494db004e0e87d85883cc55e2831838db3406a5d5fa86978f7d6cc25c9eee8d945bae8dfc0c85da5a81ce57e0811a3ad93604a7d7f884958d7f6ec05e9cec8f9659ac8ffa0a83dc5c87c851e6871c3cdf3002a1d1fe82938b7968c6589aea89905faa89f80881de5e85ca53e4851e3edd3200a3d3fc8091897b6ac45a98e88b925da88bf6068fd0508bc45dea8b1030d33c0eadddf28e9f877564ca5496e6859c53a685f4048dd25289c65fe8891232d13e0cafdff08c9d857766c85694e4879e51a487f2028bd4548fc059ee8f1434d7380aa9d9f68a9b837160ce5092e2819857a281f00089d6568dc25bec8d1636d53a08abdbf48899817362cc5290e0839a55a083fe0e87d85883cc55e2831838db3406a5d5fa86978f7d6cc25c9eee8d945bae8dfc0c85da5a81ce57e0811a3ad93604a7d7f884958d7f6ec05e9cec8f9659ac8ffa0a83dc5c87c851e6871c3cdf3002a1d1fe82938b7968c6589aea89905faa89f80881de5e85ca53e4851e3edd3200a3d3fc8091897b6ac45a98e88b925da88bf6068fd0508bc45dea8b1030d33c0eadddf28e9f877564ca5496e6859c53a685f4048dd25289c65fe8891232d13e0cafdff08c9d857766c85694e4879e51a487f2028bd4548fc059ee8f1434d7380aa9d9f68a9b837160ce5092e2819857a281f00089d6568dc25bec8d1636d53a08abdbf48899817362cc5290e0839a55a083fe0e87d85883cc55e2831838db3406a5d5fa86978f7d6cc25c9eee8d945bae8dfc0c85da5a81ce57e0811a3ad93604a7d7f884958d7f6ec05e9cec8f9659ac8ffa0a83dc5c87c851e6871c3cdf3002a1d1fe82938b7968c6589aea89905faa89f80881de5e85ca53e4851e3edd3200a3d3fc8091897b6ac45a98e88b925da88bf6068fd0508bc45dea8b1030d33c0eadddf28e9f877564ca5496e6859c53a685f4048dd25289c65fe8891232d13e0cafdff08c9d857766c85694e4879e51a487f2028bd4548fc059ee8f1434d7380aa9d9f68a9b837160ce5092e2819857a281f00089d6568dc25bec8d1636d53a08abdbf48899817362cc5290e0839a55a083fe0e87d85883cc55e2831838db3406a5d5fa86978f7d6cc25c9eee8d945bae8dfc0c85da5a81ce57e0811a3ad93604a7d7f884958d7f6ec05e9cec8f9659ac8ffa0a83dc5c87c851e6871c3cdf3002a1d1fe82938b7968c6589aea89905faa89f80881de5e85ca53e4851e3edd3200a3d3fc8091897b6ac45a98e88b925da88bf6068fd0508bc45dea8b1030d33c0eadddf28e9f877564ca5496e6859c53a685f4048dd25289c65fe8891232d13e0cafdff08c9d857766c85694e4879e51a487f2028bd4548fc059ee8f1434d7380aa9d9f68a9b837160ce5092e2819857a281f00089d6568dc25bec8d1636d53a08abdbf48899817362cc5290e0839a55a083fe0e87d85883cc55e2831838db3406a5d5fa86978f7d6cc25c9eee8d945bae8dfc0c85da5a81ce57e0811a3ad93604a7d7f884958d7f6ec05e9cec8f9659ac8ffa0a83dc5c87c851e6871c3cdf3002a1d1fe82938b7968c6589aea89905faa89f80881de5e85ca53e4851e3edd3200a3d3fc8091897b6ac45a98e88b925da88bf6068fd0508bc45dea8b1030d33c0eadd31ff1bf2a2ac232242555527e90a1b55c3d7daa3ac50fc3fa371511e652ded744021813f792d00002251206c12c7e226bf5fb77d4ad934e7bdd96583219f073dbdcaeb8b1f72830bf807d302fd750998047548e18468f47807354f3e137ade20021fc65fc223ed22022d97669147c2bec4018b51a4b9d74b460aedfdb4d4b103b91754c9d56a1bf522ace5ce4281c6a8baa002bc74c0cee45c58f9c415153755c2aa11b3cd05b67ad7079ac064e674663cd944f71381ec2de49000aa000c0565d1f96f967cf5decb9a731013099cbefa485852bc8171682e9589f73514536f64c8656b4304e7eff7d2b3d4a6c1be182e4974b1f4bd743cd6531a2c2f8a67f6b979a16dcffb83e1f8d88d7ec894601688bb4e0b369c2ab484b1b6114f1c7d5852371ab72352d353ecced369426b67ed260b92ba2b733b5eedc51b1dd523ac378cc78ca7d42b579942b37fe25084f4e146efbbc434ca999d9001948b0c3d74606680369668a43bc80fbe0412e7589faf69ba503acb396c6ae9f06a54bccb1d8aed35016d6a99d19689460ddf779426a789ca5e7b6e8dbb6192a5ff3970bea39d09ba8c76b6232c2d607bfcbde6fc8830211db33aa84a10adc46eff3708801964b69c7911f1661bc5b40cda503fec9281bd51cebf2b9a0cad3664ee01a00469d7beb114472bc407e32516ecada60f358436fb4bc6d6ec8ba0fffd6726c3caf98e27b4312c2e65444ef638f0848f06a8bf23204e11c831e271e3c6c691db176a084c13b9f122373b96e25c949a4c3f6f5e26bc1df3f63b76ba11027a6c6ceea1cc31ca6d92ed5ba835e09de6f6197d9354bf41fe0b058a42d0b36537298fd0b74ced993759bc80db8584768f815f484070f242a95c97ede2d1bad05dd7518378d70801aee81ab66fc27f62b86e648bbc5673e20623fe5d33b2fbb121910de04df6d012d08e9a64233b034aa7f20cb5a83513c050d6ba96cbba010d1745ed92c3f41d50b13f82512b4a346248ab1165b7627596408a0c04ac2c835ef888c680e9c0bfc756a05ccc264a5786940f85c6e593db83f4ce4da8a147f1a436444f1dce6436740e9a4984b5ebf7febac1e22ed9f671c68ceb59da1a892447af94d8a5925b7d780225dc78ccb111da3724c3fcdb9ec977468f019e219c4a83622c263dcfcac24c1409d37c8c7f30c2e4eeb80765ef1c50368a2e8494a8b1aa45dacc93f121b8b75911d0c096523ce0e0dd0f7f22f916abedec4b6c9f6a633d85f3fb2a1e0aa943818ce70db38ba6f3d8ab36144fcd7b83756293035eda0dfb461a7b176ac77ae08271ce61cb3f7053cf12a637d1909386c16fb8c5875c48765949b345795bdb3ac7d45bffd3a6ca0912f441e3376148361c8ac988dc776b29b6fa6b184eafbdc2605f4e43ebd3ca2590503d00807e2c06865e386f17132f11add3aebd2842ac1f7fd3bb2c598ad6879a84b8727afc1a238c33d5e06ae17fe9b3a78a8963ff5182e2ea0110047c79da0c0ed41655aa9d6d375bd527a2f819c96439434982bc7e76b8f62761fe1b3d4238f63bfa6c4658b61fbdcebd2e3a01ff4f80c874d54e4e5f49fecc24d8aae680a630b3aca0ddbf54d434eab6becb9b1ef41afbddeb8ab6b876731673957a5f602d468c3288ff882adebf6bfe5fe408224b753f22800b4b96d1ef37374059251e59cc2b76676e06686c63b9f1d3b07132a9ae9911b074eac099aaafe511e49e242cbd468a2188a13d022cdb92e1b3f30db74b215d31672bc420041e80f8d60c21ceaf1e6a9a210f791c314e8e1fe2f1a9075112e8e7f4d35a41cafab17a0a5f85b14dc369daf80aa9ca6e63897c0aef1184d431410c9248469dbc5c1ac551553a52573600c3c6253776c5d985288b8fad4cde399136b8315c4ee2221fca8f0df5e624f78ae6107ef531acf06e61be629e0b4a2e69f14fd90ea3bf60f988293e0fbe8a580f1a6fa74d2e45ccd4022cb2d0903f28a74716f56753cb054cb3f94075c0aba43ad03c83d13b5e4eb5c28c879484d5dcff4307e86b29fba78b7cae555ffa119b42d2fed67bc28fd4aec0c3d09760287c561c7f781b91b67453c1955792987918a6ee0dbbe455e1604607eab3e282a71ffd61a60034abf723521a4252e1a3e55056fcf38d50e2223db1008988f0f16c5585dbd4e143662c09ddcb66faa979030233f92a97cf360c2382919fd65e9e33172a021f31ebd401a439dc43c8e8854374cc00d2787bdba04a7b14a79fd68b567faf7712843cbb4c57aad15f3ece57dcd41a695492a7104ddd0506e65ea401273b538a5f16cf2ea55ad3e5a657fe4e3ff93a8d47fa3adf391c45963e3734a56ea0ecae6f48f30d230ad7bb35f35eb8beeaa10bbf17ea6a7fbe29720985fa54ab522ec1e8f9558e6e710babdfe5996de2b54486b684a1fe397b10247befd7f476c92099cb244941fe38716237f2dd093600fa5a2bd54e7d652b8f613bab8837e42b32888fe5ee792d4419685d89f4e00fcc76854736c9232f1c4010c6039365053d3ae84fa3d6ecf086cf9f984dcbfece3185f9e268bbc01e074c144fd2ac6414a22283713f1b831d97cb4be2b3aff78b4d71c50062473e080c7d178ca71c4cfd2720c46f630a2f5a074bfa5d42ea7e64381d52808ba3571ac3e4a52be49d290a3e3a317c3e74c1e3d7230c2f73334cd73f9fe20634859849bca063d50f4aa2c4b7f6cdc08a1a6a3aeba6b1a258a8ec4356dc537b95a56a040137ee106be9f1dfbf1a9789b0138bc06d7ebd10517c90a43b4fed45eaae0b8a94983085de71f3a0948f3d7dab955bc6703856e4e2bfb26919d2f7bef908ce5f41f3d2675fef065b46704620532c5353677db25cf33ab4ba8d69f913fc18caa534a820d33de0e959377dd7a7f166ba0165aaa34ca1fea912737df55d510862f2ff631acbb7c9bb3c5103b4ff8c812a1f558fbb1298e7d92ffbfb7482ff1753c6d3b2cb79df22d34b416f729729d46580da98911c9f310ef261568653136d3eded3a7d10c1c3c84b5d62b49abae5068310852d977abf802db97d316a203a5d311ffc8cf8038755972bd52d051ab6bd2af34d02e41b3a7d338ebbd01f3d5306c1b188244d1a06b0e8d1f7aad1de9c58b256df22e468465caab9eec9b45f19cac148be4ea33791451109b276a7cca447122b214c3b8c1eb4f6e02322418957d439b21402b8f97cac8bd55d96e210d28e9fe3512356ba5e9173e15bd70f36c32d347c41ce9a94117bdc76d12bac7980bd80ef9d0a1d13edc3ae7ec9e0d4811a0bd5514cc1fe30a46c4dcde13480b498ef8dcad42220ee55319767005dcd5bc826f0e894b30917c95b1c8a782a28b7fbfa4629ca400d877c88596864418ddd95a7736767989b081613aa5df3d9b6fff6847b22c8face768c8c84ec4db60f7141b56618c9de1f0f401225c697790a2b5b7c9cbdffbff02080c15242e4e5e6065888b8d979db0b3d0d2d4d9e0e2f22d3a5e636a797ba2abb3d0d500000000000000000000000000000000000000000009172f3b01fd210500936df37905e775368e429265abfb50dbbd45d0fa0c256077e40557140a1dc6a624f31d1b9c976cc40f6a9b872f3fce508684094632ab4026f07b583a68d26302b73babe54da512553a9f74e18bbb94062aa0456ffafd715cdae644c569d7e63ecb322c1620abaf2511b7932fba6441c8bd3d34e28c3542f8e6ccf80f2af2494504f9fbd7428b66361c631521fbe76acb3a3fa96bc3dbd12375897c7541ec67f9387d73a98f4618fb6a1ebff3c1bd72561091280feea4fab62f3f8c0a0e43d10342b56c2fdbc38b097066e5050b0e3ce7901b0accdd1ac25e64efc51045dda00e2add2b8c5188968b3d9c7961b5da4b9d4189c1f99c5c1911d3603192983592b9d297ff001c926394ea5c7253c522adc127a8672692cc71ad3c086c75c3308847fbdcba8ca0f7381df16a368f47e39544b12db069aa2f398ef8918bf173147595abe823eecbad31ad15381074f3ed48dc65ce6b05d2f6af3855d07f2b2334dea693daa987120a649ea42ba7dabcb9930a65fc3e0edac7d3a63c0207572fe2c4ae0d2817b2884c0aa9ea38e1c1e2a6622f1e769072acae60821a5655a6f59b38d5dc6732d5e27827d3898524ae3f58b2c9106a0b2e54f6791c87bf3c6102c83ff1b0a67482002169c3de004b661f1555921c439670c5a571dc3e94a5d93b5294eb6cca5ecad234369f1d36fece748247e91371fbdd532fec55f89d96c62186c14eda528ad42e3557c35d6705443fd60126c539bff05c502a4c7202a3316b7a14fb76d6b12d93dc3c559b5cfb757a0367a6b97a9ba85e3956acab6b4bc01c7baf1eb03ac01a52d78eef91e66b95defeecc3aa47e8bb1b0d3db91123229b117ce7f22904c9e1b8f9d7fa880db5fb44cf67793ff7c086b57ded35ecaf727687565dbd6b2075cf47ca535759e11a7915c65bdfcac38726cdefb3bb0db8765333a625dd3afda0d1adfd14f04d7673fa63b744a99c852475eafcdbb0cca0e1710f553390bcc694b304e9ef66fa48837005da4c816220f5059117450d1b152af0c7ef7f82903d5cd25811fd7d86a010367d32d3da74c56039c99f5772c0f64058c1c90d1d2517944aa41a3a978c76f159b46e6f8a8ed96f1a528bdd7f3ce248430457bbe7c1446b1b7d889f1ca3bffcb14dfa0268a461a263003e4cbcb419c8e68bcd5628dde6b71d02c72e9275079b51fd47370edc490d33fffffcb68521522407fd394c8bb8599c8d25755af3aaf3d4a1f83fae532e35c5910147afb9d57dc591bfe612846d74940ead5e6b0ae8c2844ff894e67832d8562f5efeed0a25483c09520abb6b4ccb9de91fccc7734211916b05200f9e81a839e9a5167bb1b338ae3c7547760a636b381e784e99fe13c22455e48769872e13ae3e4c240a055c47059c9f0fb929443de73be1853b4e03bdf177aef109807dce4b377fb52dfe203f48844d54cb9e1ebd7ad3d7a199793960a766a858c88408dc7acd0c83a38955f47457842bb5a634f45e51c755c5cbd92c8ab971218eb64fcb61e16a3a1dd7c9721905eedb20c45e96161520b2a4a6c4c9deff9b90cc3aef5eff7cb14b22d776f6823e2c0ed83883e5dbe14463944f357dd476b15de0e5a4e771c7d6d8266245f5ce8be25e3c4275d61e96a61ce39c713649b8cf810d62f1f57426883985a95e03e883bb3b9f812f5441959bc08c928a9dbb388b71af63e0564ff1a2a665fd8236be296ad4ece1754c1bb3fde9d94e23278f42f43c942679c2df23c4ff0f69fa1467b9344c5d613cfafd629d2c8632a1471814fec46828b5fd5e498d45c8daec9b6fa08e7fe535e2201a38b7c9d2e1f673c968cabf6bc04a203c4f1aaa492a169e72a0286c066e000000",
  "txid": "662cb63c7af9b161faf60748ed96b047757427e11b3a3c9706d95fba63dc4882",
  "hash": "96e94d575ad6957d41ec854419d17b2ee0ea2d4abbf67a02ef1e161343340ea5",
  "size": 5085,
  "vsize": 2278,
  "version": 1,
  "locktime": 110,
  "vin": [
    {
      "txid": "6d2b3e3f9c5370f66554d19e5b0772f6109b39cdaecbc511b6bbcfdd99bfa52c",
      "vout": 1,
      "scriptSig": {
        "asm": "",
        "hex": ""
      },
      "txinwitness": [
        "98047548e18468f47807354f3e137ade20021fc65fc223ed22022d97669147c2bec4018b51a4b9d74b460aedfdb4d4b103b91754c9d56a1bf522ace5ce4281c6a8baa002bc74c0cee45c58f9c415153755c2aa11b3cd05b67ad7079ac064e674663cd944f71381ec2de49000aa000c0565d1f96f967cf5decb9a731013099cbefa485852bc8171682e9589f73514536f64c8656b4304e7eff7d2b3d4a6c1be182e4974b1f4bd743cd6531a2c2f8a67f6b979a16dcffb83e1f8d88d7ec894601688bb4e0b369c2ab484b1b6114f1c7d5852371ab72352d353ecced369426b67ed260b92ba2b733b5eedc51b1dd523ac378cc78ca7d42b579942b37fe25084f4e146efbbc434ca999d9001948b0c3d74606680369668a43bc80fbe0412e7589faf69ba503acb396c6ae9f06a54bccb1d8aed35016d6a99d19689460ddf779426a789ca5e7b6e8dbb6192a5ff3970bea39d09ba8c76b6232c2d607bfcbde6fc8830211db33aa84a10adc46eff3708801964b69c7911f1661bc5b40cda503fec9281bd51cebf2b9a0cad3664ee01a00469d7beb114472bc407e32516ecada60f358436fb4bc6d6ec8ba0fffd6726c3caf98e27b4312c2e65444ef638f0848f06a8bf23204e11c831e271e3c6c691db176a084c13b9f122373b96e25c949a4c3f6f5e26bc1df3f63b76ba11027a6c6ceea1cc31ca6d92ed5ba835e09de6f6197d9354bf41fe0b058a42d0b36537298fd0b74ced993759bc80db8584768f815f484070f242a95c97ede2d1bad05dd7518378d70801aee81ab66fc27f62b86e648bbc5673e20623fe5d33b2fbb121910de04df6d012d08e9a64233b034aa7f20cb5a83513c050d6ba96cbba010d1745ed92c3f41d50b13f82512b4a346248ab1165b7627596408a0c04ac2c835ef888c680e9c0bfc756a05ccc264a5786940f85c6e593db83f4ce4da8a147f1a436444f1dce6436740e9a4984b5ebf7febac1e22ed9f671c68ceb59da1a892447af94d8a5925b7d780225dc78ccb111da3724c3fcdb9ec977468f019e219c4a83622c263dcfcac24c1409d37c8c7f30c2e4eeb80765ef1c50368a2e8494a8b1aa45dacc93f121b8b75911d0c096523ce0e0dd0f7f22f916abedec4b6c9f6a633d85f3fb2a1e0aa943818ce70db38ba6f3d8ab36144fcd7b83756293035eda0dfb461a7b176ac77ae08271ce61cb3f7053cf12a637d1909386c16fb8c5875c48765949b345795bdb3ac7d45bffd3a6ca0912f441e3376148361c8ac988dc776b29b6fa6b184eafbdc2605f4e43ebd3ca2590503d00807e2c06865e386f17132f11add3aebd2842ac1f7fd3bb2c598ad6879a84b8727afc1a238c33d5e06ae17fe9b3a78a8963ff5182e2ea0110047c79da0c0ed41655aa9d6d375bd527a2f819c96439434982bc7e76b8f62761fe1b3d4238f63bfa6c4658b61fbdcebd2e3a01ff4f80c874d54e4e5f49fecc24d8aae680a630b3aca0ddbf54d434eab6becb9b1ef41afbddeb8ab6b876731673957a5f602d468c3288ff882adebf6bfe5fe408224b753f22800b4b96d1ef37374059251e59cc2b76676e06686c63b9f1d3b07132a9ae9911b074eac099aaafe511e49e242cbd468a2188a13d022cdb92e1b3f30db74b215d31672bc420041e80f8d60c21ceaf1e6a9a210f791c314e8e1fe2f1a9075112e8e7f4d35a41cafab17a0a5f85b14dc369daf80aa9ca6e63897c0aef1184d431410c9248469dbc5c1ac551553a52573600c3c6253776c5d985288b8fad4cde399136b8315c4ee2221fca8f0df5e624f78ae6107ef531acf06e61be629e0b4a2e69f14fd90ea3bf60f988293e0fbe8a580f1a6fa74d2e45ccd4022cb2d0903f28a74716f56753cb054cb3f94075c0aba43ad03c83d13b5e4eb5c28c879484d5dcff4307e86b29fba78b7cae555ffa119b42d2fed67bc28fd4aec0c3d09760287c561c7f781b91b67453c1955792987918a6ee0dbbe455e1604607eab3e282a71ffd61a60034abf723521a4252e1a3e55056fcf38d50e2223db1008988f0f16c5585dbd4e143662c09ddcb66faa979030233f92a97cf360c2382919fd65e9e33172a021f31ebd401a439dc43c8e8854374cc00d2787bdba04a7b14a79fd68b567faf7712843cbb4c57aad15f3ece57dcd41a695492a7104ddd0506e65ea401273b538a5f16cf2ea55ad3e5a657fe4e3ff93a8d47fa3adf391c45963e3734a56ea0ecae6f48f30d230ad7bb35f35eb8beeaa10bbf17ea6a7fbe29720985fa54ab522ec1e8f9558e6e710babdfe5996de2b54486b684a1fe397b10247befd7f476c92099cb244941fe38716237f2dd093600fa5a2bd54e7d652b8f613bab8837e42b32888fe5ee792d4419685d89f4e00fcc76854736c9232f1c4010c6039365053d3ae84fa3d6ecf086cf9f984dcbfece3185f9e268bbc01e074c144fd2ac6414a22283713f1b831d97cb4be2b3aff78b4d71c50062473e080c7d178ca71c4cfd2720c46f630a2f5a074bfa5d42ea7e64381d52808ba3571ac3e4a52be49d290a3e3a317c3e74c1e3d7230c2f73334cd73f9fe20634859849bca063d50f4aa2c4b7f6cdc08a1a6a3aeba6b1a258a8ec4356dc537b95a56a040137ee106be9f1dfbf1a9789b0138bc06d7ebd10517c90a43b4fed45eaae0b8a94983085de71f3a0948f3d7dab955bc6703856e4e2bfb26919d2f7bef908ce5f41f3d2675fef065b46704620532c5353677db25cf33ab4ba8d69f913fc18caa534a820d33de0e959377dd7a7f166ba0165aaa34ca1fea912737df55d510862f2ff631acbb7c9bb3c5103b4ff8c812a1f558fbb1298e7d92ffbfb7482ff1753c6d3b2cb79df22d34b416f729729d46580da98911c9f310ef261568653136d3eded3a7d10c1c3c84b5d62b49abae5068310852d977abf802db97d316a203a5d311ffc8cf8038755972bd52d051ab6bd2af34d02e41b3a7d338ebbd01f3d5306c1b188244d1a06b0e8d1f7aad1de9c58b256df22e468465caab9eec9b45f19cac148be4ea33791451109b276a7cca447122b214c3b8c1eb4f6e02322418957d439b21402b8f97cac8bd55d96e210d28e9fe3512356ba5e9173e15bd70f36c32d347c41ce9a94117bdc76d12bac7980bd80ef9d0a1d13edc3ae7ec9e0d4811a0bd5514cc1fe30a46c4dcde13480b498ef8dcad42220ee55319767005dcd5bc826f0e894b30917c95b1c8a782a28b7fbfa4629ca400d877c88596864418ddd95a7736767989b081613aa5df3d9b6fff6847b22c8face768c8c84ec4db60f7141b56618c9de1f0f401225c697790a2b5b7c9cbdffbff02080c15242e4e5e6065888b8d979db0b3d0d2d4d9e0e2f22d3a5e636a797ba2abb3d0d500000000000000000000000000000000000000000009172f3b01",
        "00936df37905e775368e429265abfb50dbbd45d0fa0c256077e40557140a1dc6a624f31d1b9c976cc40f6a9b872f3fce508684094632ab4026f07b583a68d26302b73babe54da512553a9f74e18bbb94062aa0456ffafd715cdae644c569d7e63ecb322c1620abaf2511b7932fba6441c8bd3d34e28c3542f8e6ccf80f2af2494504f9fbd7428b66361c631521fbe76acb3a3fa96bc3dbd12375897c7541ec67f9387d73a98f4618fb6a1ebff3c1bd72561091280feea4fab62f3f8c0a0e43d10342b56c2fdbc38b097066e5050b0e3ce7901b0accdd1ac25e64efc51045dda00e2add2b8c5188968b3d9c7961b5da4b9d4189c1f99c5c1911d3603192983592b9d297ff001c926394ea5c7253c522adc127a8672692cc71ad3c086c75c3308847fbdcba8ca0f7381df16a368f47e39544b12db069aa2f398ef8918bf173147595abe823eecbad31ad15381074f3ed48dc65ce6b05d2f6af3855d07f2b2334dea693daa987120a649ea42ba7dabcb9930a65fc3e0edac7d3a63c0207572fe2c4ae0d2817b2884c0aa9ea38e1c1e2a6622f1e769072acae60821a5655a6f59b38d5dc6732d5e27827d3898524ae3f58b2c9106a0b2e54f6791c87bf3c6102c83ff1b0a67482002169c3de004b661f1555921c439670c5a571dc3e94a5d93b5294eb6cca5ecad234369f1d36fece748247e91371fbdd532fec55f89d96c62186c14eda528ad42e3557c35d6705443fd60126c539bff05c502a4c7202a3316b7a14fb76d6b12d93dc3c559b5cfb757a0367a6b97a9ba85e3956acab6b4bc01c7baf1eb03ac01a52d78eef91e66b95defeecc3aa47e8bb1b0d3db91123229b117ce7f22904c9e1b8f9d7fa880db5fb44cf67793ff7c086b57ded35ecaf727687565dbd6b2075cf47ca535759e11a7915c65bdfcac38726cdefb3bb0db8765333a625dd3afda0d1adfd14f04d7673fa63b744a99c852475eafcdbb0cca0e1710f553390bcc694b304e9ef66fa48837005da4c816220f5059117450d1b152af0c7ef7f82903d5cd25811fd7d86a010367d32d3da74c56039c99f5772c0f64058c1c90d1d2517944aa41a3a978c76f159b46e6f8a8ed96f1a528bdd7f3ce248430457bbe7c1446b1b7d889f1ca3bffcb14dfa0268a461a263003e4cbcb419c8e68bcd5628dde6b71d02c72e9275079b51fd47370edc490d33fffffcb68521522407fd394c8bb8599c8d25755af3aaf3d4a1f83fae532e35c5910147afb9d57dc591bfe612846d74940ead5e6b0ae8c2844ff894e67832d8562f5efeed0a25483c09520abb6b4ccb9de91fccc7734211916b05200f9e81a839e9a5167bb1b338ae3c7547760a636b381e784e99fe13c22455e48769872e13ae3e4c240a055c47059c9f0fb929443de73be1853b4e03bdf177aef109807dce4b377fb52dfe203f48844d54cb9e1ebd7ad3d7a199793960a766a858c88408dc7acd0c83a38955f47457842bb5a634f45e51c755c5cbd92c8ab971218eb64fcb61e16a3a1dd7c9721905eedb20c45e96161520b2a4a6c4c9deff9b90cc3aef5eff7cb14b22d776f6823e2c0ed83883e5dbe14463944f357dd476b15de0e5a4e771c7d6d8266245f5ce8be25e3c4275d61e96a61ce39c713649b8cf810d62f1f57426883985a95e03e883bb3b9f812f5441959bc08c928a9dbb388b71af63e0564ff1a2a665fd8236be296ad4ece1754c1bb3fde9d94e23278f42f43c942679c2df23c4ff0f69fa1467b9344c5d613cfafd629d2c8632a1471814fec46828b5fd5e498d45c8daec9b6fa08e7fe535e2201a38b7c9d2e1f673c968cabf6bc04a203c4f1aaa492a169e72a0286c06"
      ],
      "sequence": 4294967294
    }
  ],
  "vout": [
    {
      "value": 1.0,
      "n": 0,
      "scriptPubKey": {
        "asm": "OP_RETURN d9680df7aca1a049b9f3c9b232a78aa9b67c9390ab4c81d920d1d1d14cba6449 e0e87d85883cc55e2831838db3406a5d5fa86978f7d6cc25c9eee8d945bae8dfc0c85da5a81ce57e0811a3ad93604a7d7f884958d7f6ec05e9cec8f9659ac8ffa0a83dc5c87c851e6871c3cdf3002a1d1fe82938b7968c6589aea89905faa89f80881de5e85ca53e4851e3edd3200a3d3fc8091897b6ac45a98e88b925da88bf6068fd0508bc45dea8b1030d33c0eadddf28e9f877564ca5496e6859c53a685f4048dd25289c65fe8891232d13e0cafdff08c9d857766c85694e4879e51a487f2028bd4548fc059ee8f1434d7380aa9d9f68a9b837160ce5092e2819857a281f00089d6568dc25bec8d1636d53a08abdbf48899817362cc5290e0839a55a083fe0e87d85883cc55e2831838db3406a5d5fa86978f7d6cc25c9eee8d945bae8dfc0c85da5a81ce57e0811a3ad93604a7d7f884958d7f6ec05e9cec8f9659ac8ffa0a83dc5c87c851e6871c3cdf3002a1d1fe82938b7968c6589aea89905faa89f80881de5e85ca53e4851e3edd3200a3d3fc8091897b6ac45a98e88b925da88bf6068fd0508bc45dea8b1030d33c0eadddf28e9f877564ca5496e6859c53a685f4048dd25289c65fe8891232d13e0cafdff08c9d857766c85694e4879e51a487f2028bd4548fc059ee8f1434d7380aa9d9f68a9b837160ce5092e2819857a281f00089d6568dc25bec8d1636d53a08abdbf48899817362cc5290e0839a55a083fe0e87d85883cc55e2831838db3406a5d5fa86978f7d6cc25c9eee8d945bae8dfc0c85da5a81ce57e0811a3ad93604a7d7f884958d7f6ec05e9cec8f9659ac8ffa0a83dc5c87c851e6871c3cdf3002a1d1fe82938b7968c6589aea89905faa89f80881de5e85ca53e4851e3edd3200a3d3fc8091897b6ac45a98e88b925da88bf6068fd0508bc45dea8b1030d33c0eadddf28e9f877564ca5496e6859c53a685f4048dd25289c65fe8891232d13e0cafdff08c9d857766c85694e4879e51a487f2028bd4548fc059ee8f1434d7380aa9d9f68a9b837160ce5092e2819857a281f00089d6568dc25bec8d1636d53a08abdbf48899817362cc5290e0839a55a083fe0e87d85883cc55e2831838db3406a5d5fa86978f7d6cc25c9eee8d945bae8dfc0c85da5a81ce57e0811a3ad93604a7d7f884958d7f6ec05e9cec8f9659ac8ffa0a83dc5c87c851e6871c3cdf3002a1d1fe82938b7968c6589aea89905faa89f80881de5e85ca53e4851e3edd3200a3d3fc8091897b6ac45a98e88b925da88bf6068fd0508bc45dea8b1030d33c0eadddf28e9f877564ca5496e6859c53a685f4048dd25289c65fe8891232d13e0cafdff08c9d857766c85694e4879e51a487f2028bd4548fc059ee8f1434d7380aa9d9f68a9b837160ce5092e2819857a281f00089d6568dc25bec8d1636d53a08abdbf48899817362cc5290e0839a55a083fe0e87d85883cc55e2831838db3406a5d5fa86978f7d6cc25c9eee8d945bae8dfc0c85da5a81ce57e0811a3ad93604a7d7f884958d7f6ec05e9cec8f9659ac8ffa0a83dc5c87c851e6871c3cdf3002a1d1fe82938b7968c6589aea89905faa89f80881de5e85ca53e4851e3edd3200a3d3fc8091897b6ac45a98e88b925da88bf6068fd0508bc45dea8b1030d33c0eadd31ff1bf2a2ac232242555527e90a1b55c3d7daa3ac50fc3fa371511e652ded74",
        "hex": "6a20d9680df7aca1a049b9f3c9b232a78aa9b67c9390ab4c81d920d1d1d14cba64494db004e0e87d85883cc55e2831838db3406a5d5fa86978f7d6cc25c9eee8d945bae8dfc0c85da5a81ce57e0811a3ad93604a7d7f884958d7f6ec05e9cec8f9659ac8ffa0a83dc5c87c851e6871c3cdf3002a1d1fe82938b7968c6589aea89905faa89f80881de5e85ca53e4851e3edd3200a3d3fc8091897b6ac45a98e88b925da88bf6068fd0508bc45dea8b1030d33c0eadddf28e9f877564ca5496e6859c53a685f4048dd25289c65fe8891232d13e0cafdff08c9d857766c85694e4879e51a487f2028bd4548fc059ee8f1434d7380aa9d9f68a9b837160ce5092e2819857a281f00089d6568dc25bec8d1636d53a08abdbf48899817362cc5290e0839a55a083fe0e87d85883cc55e2831838db3406a5d5fa86978f7d6cc25c9eee8d945bae8dfc0c85da5a81ce57e0811a3ad93604a7d7f884958d7f6ec05e9cec8f9659ac8ffa0a83dc5c87c851e6871c3cdf3002a1d1fe82938b7968c6589aea89905faa89f80881de5e85ca53e4851e3edd3200a3d3fc8091897b6ac45a98e88b925da88bf6068fd0508bc45dea8b1030d33c0eadddf28e9f877564ca5496e6859c53a685f4048dd25289c65fe8891232d13e0cafdff08c9d857766c85694e4879e51a487f2028bd4548fc059ee8f1434d7380aa9d9f68a9b837160ce5092e2819857a281f00089d6568dc25bec8d1636d53a08abdbf48899817362cc5290e0839a55a083fe0e87d85883cc55e2831838db3406a5d5fa86978f7d6cc25c9eee8d945bae8dfc0c85da5a81ce57e0811a3ad93604a7d7f884958d7f6ec05e9cec8f9659ac8ffa0a83dc5c87c851e6871c3cdf3002a1d1fe82938b7968c6589aea89905faa89f80881de5e85ca53e4851e3edd3200a3d3fc8091897b6ac45a98e88b925da88bf6068fd0508bc45dea8b1030d33c0eadddf28e9f877564ca5496e6859c53a685f4048dd25289c65fe8891232d13e0cafdff08c9d857766c85694e4879e51a487f2028bd4548fc059ee8f1434d7380aa9d9f68a9b837160ce5092e2819857a281f00089d6568dc25bec8d1636d53a08abdbf48899817362cc5290e0839a55a083fe0e87d85883cc55e2831838db3406a5d5fa86978f7d6cc25c9eee8d945bae8dfc0c85da5a81ce57e0811a3ad93604a7d7f884958d7f6ec05e9cec8f9659ac8ffa0a83dc5c87c851e6871c3cdf3002a1d1fe82938b7968c6589aea89905faa89f80881de5e85ca53e4851e3edd3200a3d3fc8091897b6ac45a98e88b925da88bf6068fd0508bc45dea8b1030d33c0eadddf28e9f877564ca5496e6859c53a685f4048dd25289c65fe8891232d13e0cafdff08c9d857766c85694e4879e51a487f2028bd4548fc059ee8f1434d7380aa9d9f68a9b837160ce5092e2819857a281f00089d6568dc25bec8d1636d53a08abdbf48899817362cc5290e0839a55a083fe0e87d85883cc55e2831838db3406a5d5fa86978f7d6cc25c9eee8d945bae8dfc0c85da5a81ce57e0811a3ad93604a7d7f884958d7f6ec05e9cec8f9659ac8ffa0a83dc5c87c851e6871c3cdf3002a1d1fe82938b7968c6589aea89905faa89f80881de5e85ca53e4851e3edd3200a3d3fc8091897b6ac45a98e88b925da88bf6068fd0508bc45dea8b1030d33c0eadd31ff1bf2a2ac232242555527e90a1b55c3d7daa3ac50fc3fa371511e652ded74",
        "type": "nulldata"
      }
    },
    {
      "value": 499987.7972,
      "n": 1,
      "scriptPubKey": {
        "asm": "1 6c12c7e226bf5fb77d4ad934e7bdd96583219f073dbdcaeb8b1f72830bf807d3",
        "hex": "51206c12c7e226bf5fb77d4ad934e7bdd96583219f073dbdcaeb8b1f72830bf807d3",
        "reqSigs": 1,
        "type": "witness_v1_scripthash",
        "addresses": [
          "3QJmnh"
        ]
      }
    }
  ],
  "blockhash": "2622e54cefe9d3081f6ac04e4c67f268d7c1e3313b2268ffede4439aafe1acd1",
  "confirmations": 1,
  "time": 1764177922,
  "blocktime": 1764177922
}