{
  "hex": "01000000000101313b49cc7838899cd1fcaff1300e99c5ea2b14ecc9fd9c3e10d4e18a13a6e7410100000000feffffff0260cda5ea782d0000225120f2f534f19ed8424bf48b39b2419fc9372ca0767532975e6e1238857fdd2203ef00e1f50500000000fdd5046a2055c02a9b052cf70f78484c7bed05e78ac3ac3da0311c42b8a531e3be06e4a6164db004d43bb2b357d7040a580a55afbb8d65a3059d977d0520b0354e7f8a684d0ce828f41b929377f7242a782a758f9bad458325bdb75d250090156e5faa486d2cc808947bf2f31797444a184a15effbcd25e345ddd73d4560f0750e3fca280d4ca868b45bd2d337b7646a386a35cfdbed05c365fdf71d6540d0552e1fea082d6c884854bb3233d757848ad88ad52f3b0de523851d17fd85a030b5ceff0ae8cd8c68a8749b1213f777a4aaf8aaf50f1b2dc503a53d37dda5801095eedf2ac8edac488814fb72739717c4ca98ca956f7b4da563c55d57bdc5e070f58ebf4aa88dcc28e834db5253b737e4eab8eab54f5b6d8543e57d779de5c050d5ae9f6a88adec08c8d43bb2b357d7040a580a55afbb8d65a3059d977d0520b0354e7f8a684d0ce828f41b929377f7242a782a758f9bad458325bdb75d250090156e5faa486d2cc808947bf2f31797444a184a15effbcd25e345ddd73d4560f0750e3fca280d4ca868b45bd2d337b7646a386a35cfdbed05c365fdf71d6540d0552e1fea082d6c884854bb3233d757848ad88ad52f3b0de523851d17fd85a030b5ceff0ae8cd8c68a8749b1213f777a4aaf8aaf50f1b2dc503a53d37dda5801095eedf2ac8edac488814fb72739717c4ca98ca956f7b4da563c55d57bdc5e070f58ebf4aa88dcc28e834db5253b737e4eab8eab54f5b6d8543e57d779de5c050d5ae9f6a88adec08c8d43bb2b357d7040a580a55afbb8d65a3059d977d0520b0354e7f8a684d0ce828f41b929377f7242a782a758f9bad458325bdb75d250090156e5faa486d2cc808947bf2f31797444a184a15effbcd25e345ddd73d4560f0750e3fca280d4ca868b45bd2d337b7646a386a35cfdbed05c365fdf71d6540d0552e1fea082d6c884854bb3233d757848ad88ad52f3b0de523851d17fd85a030b5ceff0ae8cd8c68a8749b1213f777a4aaf8aaf50f1b2dc503a53d37dda5801095eedf2ac8edac488814fb72739717c4ca98ca956f7b4da563c55d57bdc5e070f58ebf4aa88dcc28e834db5253b737e4eab8eab54f5b6d8543e57d779de5c050d5ae9f6a88adec08c8d43bb2b357d7040a580a55afbb8d65a3059d977d0520b0354e7f8a684d0ce828f41b929377f7242a782a758f9bad458325bdb75d250090156e5faa486d2cc808947bf2f31797444a184a15effbcd25e345ddd73d4560f0750e3fca280d4ca868b45bd2d337b7646a386a35cfdbed05c365fdf71d6540d0552e1fea082d6c884854bb3233d757848ad88ad52f3b0de523851d17fd85a030b5ceff0ae8cd8c68a8749b1213f777a4aaf8aaf50f1b2dc503a53d37dda5801095eedf2ac8edac488814fb72739717c4ca98ca956f7b4da563c55d57bdc5e070f58ebf4aa88dcc28e834db5253b737e4eab8eab54f5b6d8543e57d779de5c050d5ae9f6a88adec08c8d43bb2b357d7040a580a55afbb8d65a3059d977d0520b0354e7f8a684d0ce828f41b929377f7242a782a758f9bad458325bdb75d250090156e5faa486d2cc808947bf2f31797444a184a15effbcd25e345ddd73d4560f0750e3fca280d4ca868b45bd2d337b7646a386a35cfdbed05c365fdf71d6540d0552e1fea082d6c884854bb3233d757848ad88ad52f3b0de5231c90b8e958d1c0964ffdb5de9bbb4afecf53d3dd25f60f40a0a82e5c155d3f1502fd750963d2d86a8cac2acfd2daebb8f1e5758f32c0eaac7eb1a2e984b4c2b8d529a898cf0a26b2b5fe396ac9b15ba5d7733f1ffbe23aa0e1fafd8a34d6196deb50cb69f06f0e4215e01521010ebf2552047d5c9a4dfbd722d4f1994d6d47209f0cf80142a0a07801620b2001536a12c3d17d96ff0306e6116b7909998d8af21cd9f0dfcfeec5424c8c2a530dd8ca17aa05f375597293c88dfff00f3600283523406817d6c55f5ee5f328a3b4105f56463f1db89dca207b02f163afb130a187b1704dc9d15910496d4153942336cd32f233e6bd9ac24a7cc868e771b88c0a421680d3b2bfa88e914fe91d7374103064b2a3c83682ac3650a56e4b33c1fa45c8fbbe97dd0196338ac1521f8c0edeb76fa7846614bde96ed16605b482def39718966af2a2b13bfd05b6eafa7059ba0f76a098456ccc7695c71cca87af8282a0fad7dcb1ffb43ae407ccff43b530e8836f44ce66d0dafa8d3269b15b2826b82fbc23ce83bb67ada84abcfdfc1e9ef9c6477489ef3851c5b8b8965ab1a64d21883145b86dddc381c580b811062bdeca29875599bcddf3261d747d743262379796f4c4d41ca9a4c0d90428099e02c944555943d4c48f92e05bc295c09aa47b9f3212bf75f70d56528022bc5e5ce52c00743ee6472500e5e6637b9bebd2059778547fc3240d73d606223c1cedcee90b77398e1dd8fe774e8b5065b30421e58ef545c932d6ec19e51db9ed4a77d8a10250ecb84aef8cde0fd1ea456ddf577a092b06e05970d4c35eb1dfceaf3d1770457997a68e901976ba100abeecb38a3218322912f0e66b998185420a9c6ea9b58339bfd9998653dba8ce7223981dd4f201fb81691a2d70870636635d4d7438aca3ddc4ce5cc4dfba74284ab53af95fd8453a3ab4b76356ee674b5ded4a32218f091fbd8104f9b8285d0439430ae342d6752b45964beae12d7a095144efebe2181eea092aa706d2bd6750f56b3846d1f9b6a85c3aa5464333f754a39c9c473d20d5f153bad2df15cf784e761215cab71947bfd5fbe6e3b84e8a4f80695088a0d9c4727d36951a77b0ce6e2fd00d1bf0e5d97cd1dec46fd54e8d56912a00dbd09f535f62d91d0639c638c8bda3931598aecb06929094673ebc9099d8bcfa0c95450964cea5b7da077603a519991dc4b6ba8d9038f948d0871a7a306fc473c27aa24223aeecf41332cd7b93998e6689993a3486d73043bd4a7300a6046c05af66f2a46bbc08bd3071d35f1537f43a33c5f2641f39ebc43dad439ca5611fd404637ba4d468ca49b0122faa23979310d7e42d866ba4562af6daa0cf3c60a23256b6c256acde59c8b88a3eba56f562e79ff1cffc11173e42490313917d241c60da98fa760a0cc7fa7dfa3a6fde81f0cfe85e5ff61a91d4f1417c1d15f2e7cf37ad22235e594e806ceea1911874c6c199d7a4d4208c9260984813689e530f11f49788b1ba9be726a007ba1d45c5237632891f63a79978a2d9be09f590a80f2ffb74d0835432315125f4e3f2e909c9ff734e7bec3db30058626ced889c23de1a1e79df378b246904ae34cb193c8589b9ea83e01c60e3cad0f1c325f42cb5817ee90cc7f8fc7d4c20f20e043c57a41c8146d31596219264824dcd7dda0b23398a11e8b4eed116c653a953ad7f550e660910b7e920817b54deaedc5f8531f54533b00c57c7c116e8322f3e3a5f32bfc0ec2d4b43e56b7deee7f42aa5f993d93536a30ba349757d7f48d6ad33ab2ae88266ea31c06c532017d24dded6b6c6b97a4fb83e3a2bb2cefa9e27379e67c0233d5557c425e76519fd3eced135e277ee60cbf0104ec2a325372707e2ef469d26e1c0562ef1a50783d4722f9c45684f066b5ce672785e1355a9bc880ffe8e91cd733ead0a294e7842b7604c6dd9b9fddd2492dc1604c52c826fd4cfb3eb121865d62e345c3513982c8b8dd4938cab45281b3770bd1362d3614f5fe531735e61cdb3425895d3532d27582d10c990d0f2200b27600c11abfbd212cc76662c23fc0d58888595e834beb29eae7277690cbb50e1077984837614ebb73ab03a1d6e229c2024da68e1be4295bdb4b757831a57fc875c501edc276e021f70353a34f9d0002fc76c0caca2026490e56ef950633d271e5bbe4d7852d06a0734b353fff77aa4e10b85c7923af076cb4dbee46deb71f4ceb4696d1af239ded6f7e5ed6f8770e8b8166c5ab54f833fcba2145828e64f78f898e75ac18540bbfb0460545d8438d0d0275116e48e91d9d9b2d8b2d915892519dc8a8410e3cb5305a4e210e03cc7e25522bb513ef60fcbaba7e2af29410d532da119cc209e7d88e7b0b0d799704a36e72637c65f157b2e84863a436e9ae9131a544cb80b760b12ad3a153b14a7f0aeb1f143f31336039f3281e5e79fd606b044129837800abd5a4658169fe9da53a14009cd27ec9c1e81ac4c1f3b65ae68ab66db4ecc5f808707516ac87954e72b40c33431ddeb03eb5e2b2e0baaf596bdbef0270865cfcfaeb33489b1e37db70afe5c020731e526fc03aa116dec1bc1058aaab892b1b7de9b5534f9e31ebdf6cdcc4c8767188668c656894d8637cf1303fe795ef5302be353e12a4d1ad9754819ecf4244748aaa0526a500c18e8edb64085791080cb26f41f6dddc2de658d4522fd61ad175fd99f71bef87a1cfb1f7169861ae86cef3ca77779f8a4783e3d863bcf6eabef0b1846c49cfdb13e844fe8eadcdd6a464977c5bbafc9b7ebee1d544495a616118cc0e71e95a1b0375e064ce310c05d57cf18b2b13a6c66298cdca368b7893e33e6e1c405b96629a87a9f19348e95fd533e149b45ed2a6738cde33008675f2fb826ccc0eb6f03542afc5773a24612037ea6fe45c7717233cf1f0204c6265e36138e36f1f96e3db4e9073d0a769ec0e45f10226b8935da30fea035bf0f88cd2385601ea29b6081f3477c5922c051c83039a2cbac1ab6bdfd32d50ad51ff479dc3b9b46b77c31e0b59f0a50431d03f7dd044bedc1a3274e69d70952ac2a70e11358eb1d8e54deb72fb256d7ad987c23fbd626aab3b54c2ab842beafa7454d7f4cee64e32e583456a190a2333a27216b70ee61efde2634da1a26e4c5baf0502b61e5f0ca0184b575527d5f795a54bf6cea0f9bb46b98b6c96e87a5155d3658c468e4a34e858098f440be87d2e6bb7af869c221dc726f78012d614ad04c07ceea4b7eb543427ce4703faac663d43c37a003f1f57dce0ac2962e14ab63bf4587ad7e71d6928521f65aeabf5e63bf7806a7aeedc9399df2f8019b8a2f384b7e9944e4b4bb574964ac4f7b6600966d001d475971748a939d9ea1afbed7f1273a41474c4f59a3b4b9c3ebff1750616b7c868abfd4d7e6e9eff202033f404142484e758189b5b8c60000000000000000000000000000000000000000000000000f1c2a3801fd210500d2c77563478d58a30a712a88ea7d2de65f679df55a87df44840e1eac849d8c8a508919a9841050fbeb86dbbe076732c8642fa483a9cf3b73f5c447d19fdb3e8565051d05677b7d769971c66ace704a7dd71a7c794bca34abcf1887532c6cbd2de555b6ec69d4630922f75d9554f42cc508332643b08c1265d686c9e8b6b24dd53be47393169037121a975b2476b0481bcbc4d79ed6ba2cedf5dade45a464d6b41c14a42faf3fa13a6f5e01a6efb4dfda0245273dd417dd45f6c68b7537fabc50ec7f8c85dd28307dd1602910ad665edd6ea7cc57b5c3df51b9e20029addd67a16d0d72f249ff0c74d2d7be103bd9daf610015080ec5fc95b87e8afb181c8f7f8faba380df67697e1dc3d4ea832f335a2b44e253b04feb26c36fb0b664060e4cc57db41589317e90b2b19d9f197a62c2a6e934ab8fa1b61900483fce5ca88351631dd5ba4f8e909a6cde73a941d046ccccebee8731285866a98ef5bda8af168f8f616d8ffe8d9c279613c3a1acf644a891ea4fbf9a68a723612d7813dfe5a700821c25be5af327e28a460bb9cb70f526ef53099e0cceffc66e9a0692975df17449080c07414e4abeefa765f9337f1d52fe68fd73c2c37efcd8a80e429c0f2fb36577fed4231e3b0e38710064c3f40b77aef9278f2cb21874ba34ca211d5919f1932d354c3f4b73761a9d3e3203dbe1fc9752cedadc6a65b29702cbd3e51fb1362db4d782956127e60804f291d0b1536de76964b9bbfb84d1232b999856fe2dcd3a3c79d2ad0acff0fbe8135bc3a9e74f11edc8ce2db5b2d5382bbe2db043b84fc0471f227d3932c976369a3cd16e3a27d1a1bc3e08c32f98a4cc33621c5486c0696c79aef6dc6d48530471a7d41e1b689a053130131ebf6ecc8dea3bc85d15e954da0121d4a2402794f916cbb157c57ab0b9a9f00aa7f1964adec9d5b0e84b5b860758208ee4ca0bf598c94a06ce2ae972d377c809822de2965ae0dccacd14ea6aab1c00e694cb7a2b086ec78fa935eaea7500f89837157ce4ea402d98c93c6e3f74a346b591efa9b283b4658c383478dfacf5273c1c62fd078917d780dd00b2a655e7201c2821a2f82bddac39a36c90d8b7ef7700d3574036108ec94bfb76c1fea6b54943e657ec3463c34798f1050e44e0d556bb32b0d16fc3a7e081014d90b55836ef380e941b0de022e34dfa95cf0d739d1fc92602daaeebb1d44557d4fa462a6ed9a40f3e9078e4fbe7039acb9f9e0530375bd41ba5b7148b880fc6d0c45e15e9a01a3bcf9d6e44d1ccff9f1b219f0402fba51d72e91862f740757fbfa010f7ec7fc851a3f012f5205558adb34681cd14c80106c94b14153e872a9783bd6020cc9fcd4a3d9c152352a5c7406d0e80a5b8c29df75dada78fb6933693ef5ecf059e16d9aa5e5ca50e1317925d35d9ad453908c24d9dffe6c94eb44035599051f91da1d66751a6591d0be53006fe6079f2cbe93612b68277af81b129ff500632c14a71c62c34f4201b74c2350d0fafe9d8fe36af411cba828d87d4e3f8a63516b1e8542dc09441e5d90f6689d430f4f89e7516e7fda83ffbb62999cf9f4cb8f8b6edb9f0975e2e0a25420276450a48c66325f474f3b6ff252b65d9271a92f414fe6575b9d6ec879047ae0af6d6ea1fe6d0b062044569aa7eb92fa34ee5b60f4a0b9e1f5daeb0e45e654c9629b31ca0750cc0d6bfaf8ef24ca10abc3ac68f38b49893277c31abb9d8d6b142765142486ade720ebc38117ad3f6a2b1d953c79aec38ff67d62b53cea32ebbaf502675c63b4434f84571295745b5ae55d34e23791be719bfcbe7d49633b980762050344a1890641e552b9c9e8073a442bee6648777c000000",
  "txid": "6592ad88cded8f14a4cb52082349a186f487821eb3f1ae08e1e79b2a83a9297c",
  "hash": "cdfb8a057e712d30f8dfef58434e1d3ca7d583973ef9c0426c23a4825cc4c9d9",
  "size": 5085,
  "vsize": 2278,
  "version": 1,
  "locktime": 124,
  "vin": [
    {
      "txid": "41e7a6138ae1d4103e9cfdc9ec142beac5990e30f1affcd19c893878cc493b31",
      "vout": 1,
      "scriptSig": {
        "asm": "",
        "hex": ""
      },
      "txinwitness": [
        "63d2d86a8cac2acfd2daebb8f1e5758f32c0eaac7eb1a2e984b4c2b8d529a898cf0a26b2b5fe396ac9b15ba5d7733f1ffbe23aa0e1fafd8a34d6196deb50cb69f06f0e4215e01521010ebf2552047d5c9a4dfbd722d4f1994d6d47209f0cf80142a0a07801620b2001536a12c3d17d96ff0306e6116b7909998d8af21cd9f0dfcfeec5424c8c2a530dd8ca17aa05f375597293c88dfff00f3600283523406817d6c55f5ee5f328a3b4105f56463f1db89dca207b02f163afb130a187b1704dc9d15910496d4153942336cd32f233e6bd9ac24a7cc868e771b88c0a421680d3b2bfa88e914fe91d7374103064b2a3c83682ac3650a56e4b33c1fa45c8fbbe97dd0196338ac1521f8c0edeb76fa7846614bde96ed16605b482def39718966af2a2b13bfd05b6eafa7059ba0f76a098456ccc7695c71cca87af8282a0fad7dcb1ffb43ae407ccff43b530e8836f44ce66d0dafa8d3269b15b2826b82fbc23ce83bb67ada84abcfdfc1e9ef9c6477489ef3851c5b8b8965ab1a64d21883145b86dddc381c580b811062bdeca29875599bcddf3261d747d743262379796f4c4d41ca9a4c0d90428099e02c944555943d4c48f92e05bc295c09aa47b9f3212bf75f70d56528022bc5e5ce52c00743ee6472500e5e6637b9bebd2059778547fc3240d73d606223c1cedcee90b77398e1dd8fe774e8b5065b30421e58ef545c932d6ec19e51db9ed4a77d8a10250ecb84aef8cde0fd1ea456ddf577a092b06e05970d4c35eb1dfceaf3d1770457997a68e901976ba100abeecb38a3218322912f0e66b998185420a9c6ea9b58339bfd9998653dba8ce7223981dd4f201fb81691a2d70870636635d4d7438aca3ddc4ce5cc4dfba74284ab53af95fd8453a3ab4b76356ee674b5ded4a32218f091fbd8104f9b8285d0439430ae342d6752b45964beae12d7a095144efebe2181eea092aa706d2bd6750f56b3846d1f9b6a85c3aa5464333f754a39c9c473d20d5f153bad2df15cf784e761215cab71947bfd5fbe6e3b84e8a4f80695088a0d9c4727d36951a77b0ce6e2fd00d1bf0e5d97cd1dec46fd54e8d56912a00dbd09f535f62d91d0639c638c8bda3931598aecb06929094673ebc9099d8bcfa0c95450964cea5b7da077603a519991dc4b6ba8d9038f948d0871a7a306fc473c27aa24223aeecf41332cd7b93998e6689993a3486d73043bd4a7300a6046c05af66f2a46bbc08bd3071d35f1537f43a33c5f2641f39ebc43dad439ca5611fd404637ba4d468ca49b0122faa23979310d7e42d866ba4562af6daa0cf3c60a23256b6c256acde59c8b88a3eba56f562e79ff1cffc11173e42490313917d241c60da98fa760a0cc7fa7dfa3a6fde81f0cfe85e5ff61a91d4f1417c1d15f2e7cf37ad22235e594e806ceea1911874c6c199d7a4d4208c9260984813689e530f11f49788b1ba9be726a007ba1d45c5237632891f63a79978a2d9be09f590a80f2ffb74d0835432315125f4e3f2e909c9ff734e7bec3db30058626ced889c23de1a1e79df378b246904ae34cb193c8589b9ea83e01c60e3cad0f1c325f42cb5817ee90cc7f8fc7d4c20f20e043c57a41c8146d31596219264824dcd7dda0b23398a11e8b4eed116c653a953ad7f550e660910b7e920817b54deaedc5f8531f54533b00c57c7c116e8322f3e3a5f32bfc0ec2d4b43e56b7deee7f42aa5f993d93536a30ba349757d7f48d6ad33ab2ae88266ea31c06c532017d24dded6b6c6b97a4fb83e3a2bb2cefa9e27379e67c0233d5557c425e76519fd3eced135e277ee60cbf0104ec2a325372707e2ef469d26e1c0562ef1a50783d4722f9c45684f066b5ce672785e1355a9bc880ffe8e91cd733ead0a294e7842b7604c6dd9b9fddd2492dc1604c52c826fd4cfb3eb121865d62e345c3513982c8b8dd4938cab45281b3770bd1362d3614f5fe531735e61cdb3425895d3532d27582d10c990d0f2200b27600c11abfbd212cc76662c23fc0d58888595e834beb29eae7277690cbb50e1077984837614ebb73ab03a1d6e229c2024da68e1be4295bdb4b757831a57fc875c501edc276e021f70353a34f9d0002fc76c0caca2026490e56ef950633d271e5bbe4d7852d06a0734b353fff77aa4e10b85c7923af076cb4dbee46deb71f4ceb4696d1af239ded6f7e5ed6f8770e8b8166c5ab54f833fcba2145828e64f78f898e75ac18540bbfb0460545d8438d0d0275116e48e91d9d9b2d8b2d915892519dc8a8410e3cb5305a4e210e03cc7e25522bb513ef60fcbaba7e2af29410d532da119cc209e7d88e7b0b0d799704a36e72637c65f157b2e84863a436e9ae9131a544cb80b760b12ad3a153b14a7f0aeb1f143f31336039f3281e5e79fd606b044129837800abd5a4658169fe9da53a14009cd27ec9c1e81ac4c1f3b65ae68ab66db4ecc5f808707516ac87954e72b40c33431ddeb03eb5e2b2e0baaf596bdbef0270865cfcfaeb33489b1e37db70afe5c020731e526fc03aa116dec1bc1058aaab892b1b7de9b5534f9e31ebdf6cdcc4c8767188668c656894d8637cf1303fe795ef5302be353e12a4d1ad9754819ecf4244748aaa0526a500c18e8edb64085791080cb26f41f6dddc2de658d4522fd61ad175fd99f71bef87a1cfb1f7169861ae86cef3ca77779f8a4783e3d863bcf6eabef0b1846c49cfdb13e844fe8eadcdd6a464977c5bbafc9b7ebee1d544495a616118cc0e71e95a1b0375e064ce310c05d57cf18b2b13a6c66298cdca368b7893e33e6e1c405b96629a87a9f19348e95fd533e149b45ed2a6738cde33008675f2fb826ccc0eb6f03542afc5773a24612037ea6fe45c7717233cf1f0204c6265e36138e36f1f96e3db4e9073d0a769ec0e45f10226b8935da30fea035bf0f88cd2385601ea29b6081f3477c5922c051c83039a2cbac1ab6bdfd32d50ad51ff479dc3b9b46b77c31e0b59f0a50431d03f7dd044bedc1a3274e69d70952ac2a70e11358eb1d8e54deb72fb256d7ad987c23fbd626aab3b54c2ab842beafa7454d7f4cee64e32e583456a190a2333a27216b70ee61efde2634da1a26e4c5baf0502b61e5f0ca0184b575527d5f795a54bf6cea0f9bb46b98b6c96e87a5155d3658c468e4a34e858098f440be87d2e6bb7af869c221dc726f78012d614ad04c07ceea4b7eb543427ce4703faac663d43c37a003f1f57dce0ac2962e14ab63bf4587ad7e71d6928521f65aeabf5e63bf7806a7aeedc9399df2f8019b8a2f384b7e9944e4b4bb574964ac4f7b6600966d001d475971748a939d9ea1afbed7f1273a41474c4f59a3b4b9c3ebff1750616b7c868abfd4d7e6e9eff202033f404142484e758189b5b8c60000000000000000000000000000000000000000000000000f1c2a3801",
        "00d2c77563478d58a30a712a88ea7d2de65f679df55a87df44840e1eac849d8c8a508919a9841050fbeb86dbbe076732c8642fa483a9cf3b73f5c447d19fdb3e8565051d05677b7d769971c66ace704a7dd71a7c794bca34abcf1887532c6cbd2de555b6ec69d4630922f75d9554f42cc508332643b08c1265d686c9e8b6b24dd53be47393169037121a975b2476b0481bcbc4d79ed6ba2cedf5dade45a464d6b41c14a42faf3fa13a6f5e01a6efb4dfda0245273dd417dd45f6c68b7537fabc50ec7f8c85dd28307dd1602910ad665edd6ea7cc57b5c3df51b9e20029addd67a16d0d72f249ff0c74d2d7be103bd9daf610015080ec5fc95b87e8afb181c8f7f8faba380df67697e1dc3d4ea832f335a2b44e253b04feb26c36fb0b664060e4cc57db41589317e90b2b19d9f197a62c2a6e934ab8fa1b61900483fce5ca88351631dd5ba4f8e909a6cde73a941d046ccccebee8731285866a98ef5bda8af168f8f616d8ffe8d9c279613c3a1acf644a891ea4fbf9a68a723612d7813dfe5a700821c25be5af327e28a460bb9cb70f526ef53099e0cceffc66e9a0692975df17449080c07414e4abeefa765f9337f1d52fe68fd73c2c37efcd8a80e429c0f2fb36577fed4231e3b0e38710064c3f40b77aef9278f2cb21874ba34ca211d5919f1932d354c3f4b73761a9d3e3203dbe1fc9752cedadc6a65b29702cbd3e51fb1362db4d782956127e60804f291d0b1536de76964b9bbfb84d1232b999856fe2dcd3a3c79d2ad0acff0fbe8135bc3a9e74f11edc8ce2db5b2d5382bbe2db043b84fc0471f227d3932c976369a3cd16e3a27d1a1bc3e08c32f98a4cc33621c5486c0696c79aef6dc6d48530471a7d41e1b689a053130131ebf6ecc8dea3bc85d15e954da0121d4a2402794f916cbb157c57ab0b9a9f00aa7f1964adec9d5b0e84b5b860758208ee4ca0bf598c94a06ce2ae972d377c809822de2965ae0dccacd14ea6aab1c00e694cb7a2b086ec78fa935eaea7500f89837157ce4ea402d98c93c6e3f74a346b591efa9b283b4658c383478dfacf5273c1c62fd078917d780dd00b2a655e7201c2821a2f82bddac39a36c90d8b7ef7700d3574036108ec94bfb76c1fea6b54943e657ec3463c34798f1050e44e0d556bb32b0d16fc3a7e081014d90b55836ef380e941b0de022e34dfa95cf0d739d1fc92602daaeebb1d44557d4fa462a6ed9a40f3e9078e4fbe7039acb9f9e0530375bd41ba5b7148b880fc6d0c45e15e9a01a3bcf9d6e44d1ccff9f1b219f0402fba51d72e91862f740757fbfa010f7ec7fc851a3f012f5205558adb34681cd14c80106c94b14153e872a9783bd6020cc9fcd4a3d9c152352a5c7406d0e80a5b8c29df75dada78fb6933693ef5ecf059e16d9aa5e5ca50e1317925d35d9ad453908c24d9dffe6c94eb44035599051f91da1d66751a6591d0be53006fe6079f2cbe93612b68277af81b129ff500632c14a71c62c34f4201b74c2350d0fafe9d8fe36af411cba828d87d4e3f8a63516b1e8542dc09441e5d90f6689d430f4f89e7516e7fda83ffbb62999cf9f4cb8f8b6edb9f0975e2e0a25420276450a48c66325f474f3b6ff252b65d9271a92f414fe6575b9d6ec879047ae0af6d6ea1fe6d0b062044569aa7eb92fa34ee5b60f4a0b9e1f5daeb0e45e654c9629b31ca0750cc0d6bfaf8ef24ca10abc3ac68f38b49893277c31abb9d8d6b142765142486ade720ebc38117ad3f6a2b1d953c79aec38ff67d62b53cea32ebbaf502675c63b4434f84571295745b5ae55d34e23791be719bfcbe7d49633b980762050344a1890641e552b9c9e8073a442bee664877"
      ],
      "sequence": 4294967294
    }
  ],
  "vout": [
    {
      "value": 499973.5606,
      "n": 0,
      "scriptPubKey": {
        "asm": "1 f2f534f19ed8424bf48b39b2419fc9372ca0767532975e6e1238857fdd2203ef",
        "hex": "5120f2f534f19ed8424bf48b39b2419fc9372ca0767532975e6e1238857fdd2203ef",
        "reqSigs": 1,
        "type": "witness_v1_scripthash",
        "addresses": [
          "3QJmnh"
        ]
      }
    },
    {
      "value": 1.0,
      "n": 1,
      "scriptPubKey": {
        "asm": "OP_RETURN 55c02a9b052cf70f78484c7bed05e78ac3ac3da0311c42b8a531e3be06e4a616 d43bb2b357d7040a580a55afbb8d65a3059d977d0520b0354e7f8a684d0ce828f41b929377f7242a782a758f9bad458325bdb75d250090156e5faa486d2cc808947bf2f31797444a184a15effbcd25e345ddd73d4560f0750e3fca280d4ca868b45bd2d337b7646a386a35cfdbed05c365fdf71d6540d0552e1fea082d6c884854bb3233d757848ad88ad52f3b0de523851d17fd85a030b5ceff0ae8cd8c68a8749b1213f777a4aaf8aaf50f1b2dc503a53d37dda5801095eedf2ac8edac488814fb72739717c4ca98ca956f7b4da563c55d57bdc5e070f58ebf4aa88dcc28e834db5253b737e4eab8eab54f5b6d8543e57d779de5c050d5ae9f6a88adec08c8d43bb2b357d7040a580a55afbb8d65a3059d977d0520b0354e7f8a684d0ce828f41b929377f7242a782a758f9bad458325bdb75d250090156e5faa486d2cc808947bf2f31797444a184a15effbcd25e345ddd73d4560f0750e3fca280d4ca868b45bd2d337b7646a386a35cfdbed05c365fdf71d6540d0552e1fea082d6c884854bb3233d757848ad88ad52f3b0de523851d17fd85a030b5ceff0ae8cd8c68a8749b1213f777a4aaf8aaf50f1b2dc503a53d37dda5801095eedf2ac8edac488814fb72739717c4ca98ca956f7b4da563c55d57bdc5e070f58ebf4aa88dcc28e834db5253b737e4eab8eab54f5b6d8543e57d779de5c050d5ae9f6a88adec08c8d43bb2b357d7040a580a55afbb8d65a3059d977d0520b0354e7f8a684d0ce828f41b929377f7242a782a758f9bad458325bdb75d250090156e5faa486d2cc808947bf2f31797444a184a15effbcd25e345ddd73d4560f0750e3fca280d4ca868b45bd2d337b7646a386a35cfdbed05c365fdf71d6540d0552e1fea082d6c884854bb3233d757848ad88ad52f3b0de523851d17fd85a030b5ceff0ae8cd8c68a8749b1213f777a4aaf8aaf50f1b2dc503a53d37dda5801095eedf2ac8edac488814fb72739717c4ca98ca956f7b4da563c55d57bdc5e070f58ebf4aa88dcc28e834db5253b737e4eab8eab54f5b6d8543e57d779de5c050d5ae9f6a88adec08c8d43bb2b357d7040a580a55afbb8d65a3059d977d0520b0354e7f8a684d0ce828f41b929377f7242a782a758f9bad458325bdb75d250090156e5faa486d2cc808947bf2f31797444a184a15effbcd25e345ddd73d4560f0750e3fca280d4ca868b45bd2d337b7646a386a35cfdbed05c365fdf71d6540d0552e1fea082d6c884854bb3233d757848ad88ad52f3b0de523851d17fd85a030b5ceff0ae8cd8c68a8749b1213f777a4aaf8aaf50f1b2dc503a53d37dda5801095eedf2ac8edac488814fb72739717c4ca98ca956f7b4da563c55d57bdc5e070f58ebf4aa88dcc28e834db5253b737e4eab8eab54f5b6d8543e57d779de5c050d5ae9f6a88adec08c8d43bb2b357d7040a580a55afbb8d65a3059d977d0520b0354e7f8a684d0ce828f41b929377f7242a782a758f9bad458325bdb75d250090156e5faa486d2cc808947bf2f31797444a184a15effbcd25e345ddd73d4560f0750e3fca280d4ca868b45bd2d337b7646a386a35cfdbed05c365fdf71d6540d0552e1fea082d6c884854bb3233d757848ad88ad52f3b0de5231c90b8e958d1c0964ffdb5de9bbb4afecf53d3dd25f60f40a0a82e5c155d3f15",
        "hex": "6a2055c02a9b052cf70f78484c7bed05e78ac3ac3da0311c42b8a531e3be06e4a6164db004d43bb2b357d7040a580a55afbb8d65a3059d977d0520b0354e7f8a684d0ce828f41b929377f7242a782a758f9bad458325bdb75d250090156e5faa486d2cc808947bf2f31797444a184a15effbcd25e345ddd73d4560f0750e3fca280d4ca868b45bd2d337b7646a386a35cfdbed05c365fdf71d6540d0552e1fea082d6c884854bb3233d757848ad88ad52f3b0de523851d17fd85a030b5ceff0ae8cd8c68a8749b1213f777a4aaf8aaf50f1b2dc503a53d37dda5801095eedf2ac8edac488814fb72739717c4ca98ca956f7b4da563c55d57bdc5e070f58ebf4aa88dcc28e834db5253b737e4eab8eab54f5b6d8543e57d779de5c050d5ae9f6a88adec08c8d43bb2b357d7040a580a55afbb8d65a3059d977d0520b0354e7f8a684d0ce828f41b929377f7242a782a758f9bad458325bdb75d250090156e5faa486d2cc808947bf2f31797444a184a15effbcd25e345ddd73d4560f0750e3fca280d4ca868b45bd2d337b7646a386a35cfdbed05c365fdf71d6540d0552e1fea082d6c884854bb3233d757848ad88ad52f3b0de523851d17fd85a030b5ceff0ae8cd8c68a8749b1213f777a4aaf8aaf50f1b2dc503a53d37dda5801095eedf2ac8edac488814fb72739717c4ca98ca956f7b4da563c55d57bdc5e070f58ebf4aa88dcc28e834db5253b737e4eab8eab54f5b6d8543e57d779de5c050d5ae9f6a88adec08c8d43bb2b357d7040a580a55afbb8d65a3059d977d0520b0354e7f8a684d0ce828f41b929377f7242a782a758f9bad458325bdb75d250090156e5faa486d2cc808947bf2f31797444a184a15effbcd25e345ddd73d4560f0750e3fca280d4ca868b45bd2d337b7646a386a35cfdbed05c365fdf71d6540d0552e1fea082d6c884854bb3233d757848ad88ad52f3b0de523851d17fd85a030b5ceff0ae8cd8c68a8749b1213f777a4aaf8aaf50f1b2dc503a53d37dda5801095eedf2ac8edac488814fb72739717c4ca98ca956f7b4da563c55d57bdc5e070f58ebf4aa88dcc28e834db5253b737e4eab8eab54f5b6d8543e57d779de5c050d5ae9f6a88adec08c8d43bb2b357d7040a580a55afbb8d65a3059d977d0520b0354e7f8a684d0ce828f41b929377f7242a782a758f9bad458325bdb75d250090156e5faa486d2cc808947bf2f31797444a184a15effbcd25e345ddd73d4560f0750e3fca280d4ca868b45bd2d337b7646a386a35cfdbed05c365fdf71d6540d0552e1fea082d6c884854bb3233d757848ad88ad52f3b0de523851d17fd85a030b5ceff0ae8cd8c68a8749b1213f777a4aaf8aaf50f1b2dc503a53d37dda5801095eedf2ac8edac488814fb72739717c4ca98ca956f7b4da563c55d57bdc5e070f58ebf4aa88dcc28e834db5253b737e4eab8eab54f5b6d8543e57d779de5c050d5ae9f6a88adec08c8d43bb2b357d7040a580a55afbb8d65a3059d977d0520b0354e7f8a684d0ce828f41b929377f7242a782a758f9bad458325bdb75d250090156e5faa486d2cc808947bf2f31797444a184a15effbcd25e345ddd73d4560f0750e3fca280d4ca868b45bd2d337b7646a386a35cfdbed05c365fdf71d6540d0552e1fea082d6c884854bb3233d757848ad88ad52f3b0de5231c90b8e958d1c0964ffdb5de9bbb4afecf53d3dd25f60f40a0a82e5c155d3f15",
        "type": "nulldata"
      }
    }
  ],
  "blockhash": "fe93069f37b49cfb15542a42b300d4e9dc573fdbbe6c5d081907ef62d551896a",
  "confirmations": 1,
  "time": 1764180962,
  "blocktime": 1764180962
}