{
  "hex": "01000000000101c9a7aad87b1acf18a3cd5197bfb0dbc799240248c7b6a5c2d898c4c65ac3611e0000000000feffffff02a020df63792d00002251209a056ba6b089ebe44858d3678b5830ab4cb79d6fcbcb3617bd79f5702452e0e400e1f50500000000fdd5046a2027a369f644b548c4afd206bb49568b76460cb78ce709f1c564abd063c09c395f4db00498248bddbaea74ca7d7e841a8f6f861ccba81d5824653dbac728ab9e58003901b804abfd9aca54ea5d5ea43aaf4fa63ceb883d7804451d9ae7088bbe78201921d864cb9dfaaa348a3d3ec45acf2fc65c8be85d1864257dfa8768ebde18407941f844ebbdda8a14aa1d1ee47aef0fe67cabc87d3844055ddaa748cbfe3860596118a40b5d3a6af44afdfe049a0fef069c4b289dd8a4e5bd3a47a82b1ed880b98138842b7d1a4ad46addde24ba2fcf26bc6b08bdf884c59d1a67880b3ef8a099a158e44b1d7a2ab40abdbe44da4faf46dc0b68dd98e4a5fd7a07e86b5e98c0f9c178c46b3d5a0a942a9d9e64fa6f8f66fc2b48fdb8c485dd5a27c84b7eb8e0d9e198248bddbaea74ca7d7e841a8f6f861ccba81d5824653dbac728ab9e58003901b804abfd9aca54ea5d5ea43aaf4fa63ceb883d7804451d9ae7088bbe78201921d864cb9dfaaa348a3d3ec45acf2fc65c8be85d1864257dfa8768ebde18407941f844ebbdda8a14aa1d1ee47aef0fe67cabc87d3844055ddaa748cbfe3860596118a40b5d3a6af44afdfe049a0fef069c4b289dd8a4e5bd3a47a82b1ed880b98138842b7d1a4ad46addde24ba2fcf26bc6b08bdf884c59d1a67880b3ef8a099a158e44b1d7a2ab40abdbe44da4faf46dc0b68dd98e4a5fd7a07e86b5e98c0f9c178c46b3d5a0a942a9d9e64fa6f8f66fc2b48fdb8c485dd5a27c84b7eb8e0d9e198248bddbaea74ca7d7e841a8f6f861ccba81d5824653dbac728ab9e58003901b804abfd9aca54ea5d5ea43aaf4fa63ceb883d7804451d9ae7088bbe78201921d864cb9dfaaa348a3d3ec45acf2fc65c8be85d1864257dfa8768ebde18407941f844ebbdda8a14aa1d1ee47aef0fe67cabc87d3844055ddaa748cbfe3860596118a40b5d3a6af44afdfe049a0fef069c4b289dd8a4e5bd3a47a82b1ed880b98138842b7d1a4ad46addde24ba2fcf26bc6b08bdf884c59d1a67880b3ef8a099a158e44b1d7a2ab40abdbe44da4faf46dc0b68dd98e4a5fd7a07e86b5e98c0f9c178c46b3d5a0a942a9d9e64fa6f8f66fc2b48fdb8c485dd5a27c84b7eb8e0d9e198248bddbaea74ca7d7e841a8f6f861ccba81d5824653dbac728ab9e58003901b804abfd9aca54ea5d5ea43aaf4fa63ceb883d7804451d9ae7088bbe78201921d864cb9dfaaa348a3d3ec45acf2fc65c8be85d1864257dfa8768ebde18407941f844ebbdda8a14aa1d1ee47aef0fe67cabc87d3844055ddaa748cbfe3860596118a40b5d3a6af44afdfe049a0fef069c4b289dd8a4e5bd3a47a82b1ed880b98138842b7d1a4ad46addde24ba2fcf26bc6b08bdf884c59d1a67880b3ef8a099a158e44b1d7a2ab40abdbe44da4faf46dc0b68dd98e4a5fd7a07e86b5e98c0f9c178c46b3d5a0a942a9d9e64fa6f8f66fc2b48fdb8c485dd5a27c84b7eb8e0d9e198248bddbaea74ca7d7e841a8f6f861ccba81d5824653dbac728ab9e58003901b804abfd9aca54ea5d5ea43aaf4fa63ceb883d7804451d9ae7088bbe78201921d864cb9dfaaa348a3d3ec45acf2fc65c8be85d1864257dfa8768ebde18407941f844ebbdda8a14aa1d1ee47aef0fe67cabc87d3844055ddaa748cbfe3860596118a40b5d3a6af44afdfe049a0fef069c93dd44cccb58e406b29cbdec021099ef32ad3f9e62afdb0ed70aca3a7416f9e802fd75094b2323a94789456c1b4d00df665058b9b399582a936f48983955e862089db4afac026a4bdba66b2b5745bf638291ec2a83840098defd148bde9317e35b60b08338b692d85a29081ed862b175a01f9af6975519d4ba828cf4443639bc74674bdc114bc8cb78d1222a17e85c5cae683d6dcfa08461c56bfc414f867f2f1bd3bd0ef00e9cdb4fb09f5707f6ede0d910144fd5fa2d3d6ea0e8357e71d13e3d36535bacaefb946893f3e3aa4e0b2069184fda7f374d9d476f669b4a89825c9a2ba0e58bc29820fcf6987a4d821fdf283466fdf8d7cec950bb7f5bf68a09ceee72ff3afd7ede37448864c344dee65475b7150bffb141b11eb6952404602aca9392dc23170a735aa2278d5ee25cfa53080e8f8da1f68883ce83791a07e86f04627b7bc4904975c9b1620a9baf671b7b9783df517eb7a7b5fdb3678fa410ef2a98b65080fdcd28b0fc23c3597dcda5574a66ab116ecd14fdede71be50dd604683ee4b75d73b4706c9c7e9a7df91089da1f2343a5c322be8cdac969d3a365c6fe7577615c7a66a5c522dec4a5f1e8e5f396c0db2b180410c570d6635ac7734315ab87b78b4bea002fdf195e8d396cdcceaf57195e0c7d83905287b8c05c75f66a59bd3b2eb36aaedb17d765b193a24a8629df3783dcf49835c17237475ec26cf256542a674d86080a2750808dbfb9c4f913961120427512d9515fd2a33d945609ec324d9030dc96fde0ca579f563a92dbf8519e0cf44b4de4e3f5ff56c053d2bc36a5bcf284f5c7e65a92b4592003ed246a2d02a81623d5b6ede107e2481570e797f24b158a0f13aaeea1f1547c38ad8c0bbb1cb2240c2b6473ad4851933b4838507ea705a4abd1603c36b6b16e33248a277984de2746aee489317fe46386698e0603764eb05725d00e72e8d1d3b306c5b41eb9ef0a17c5cc828e0614e913e7eccade432cd570c5e6cf4b831a2f871991b2edb3397a09b56c5ec5e17e3b8a61bac7821ae7851f4577243dc6924e455640f871214b342e7cbab9d15383140d481b422f745d50ffe7a03000c7539678f49ebffe8ce5c5a155603cc7f211eefa5c887a839e703d0183e632d4ee23244d0dcbc4eb5737e9de418c4141a0cedbd7645bced99027cea421decd132bfe5bb4c00d40871daee9506899b508f26e0945797fc51a5ea9935b4897f983a1077a98a16114c141512e69fef4d3996c9edbca5334e2244fc3a4843954cb5417e41325667eba71827a93b1531f504a5b17d5a230b2ee1659ba5da8b32d597b800984952a6663fb82651cc73492c6fd252346a53ae879861b485daf320f6056ad33da484e5b569cf909b527d95ad060620e607950b3162e7299caa37432744cc4c9c03a557149245c98e58833d81b6d6ee262833db607d401fde085352e8e8ec49ae1ff1ba3d8fd889a42b51033f8dee17684d3597e37e4a388aad495ce325a4b86def502037a60b83f9d68a0dd4dae23a013afc790706f8d8be50ed8f29ef97db16081968d9fd0af86d00c94fee94d273102920929c99a67c60b4cf89d308fae45d0f4f68f196a556cd62d4252078b2f4acd38300be45d064bc31959c6a53f708cdedc0cce7ae8ad57e60edc1c809142912006ca6dd125eb67f8c8e1917440f99f3b03dc38cc09ef467819c5ab5c59ee8a2ef308bbbd097618b2eaf342ba62de2efc5bf09c910083397d1a49e8d469e0328916101ee059b17ad7f0193e60b7befb10240414b835c24f7e64f82b9eef97aa796d1098aeeecdab31d222fc6a729c349d09dc9fb77b3699afc4d7ea2ddde8363103d6dee078846e740ecb300b0da86b2165a5f24ee99b964e06fa0b6c391e27ca454ac4c1e7d16f8d3d357b17607877a312ed6813761afbfd5d80fedfcca1800854be2cd9ce807fd11df30d56efe0ab681e24a8144ec8e18a58d81313151b7ac75473fe0ed1a7098724c2c468f16509b8fee3d21b7acb49f0d646b9f4e028aa6f4d5158153e40d35586c6dd51a29af047c216b4af3d514f1a71954666aa98ccdc26e36a77dcd149772bcd5f110c9a5017fbf7d8a12c19454d8a60467bc457ff6c9726b414c129ad7080dd736ec46e0abf000ceb2d1cc619ae07c37723fbf19fd8d38f7b363ba182785e59d64f83a4500f7bce734f26163fcb75959d647f922af7fd3c780ba66c890cc08e3fb5c262c93a1a0d748d53baeed919d90a7ba4e02bc06fe942c7cdfb994f6e3decbfef6fd3d58cce5120771fe461cd3b9c2e19f3aa8793fe77136c4ea32ca83234366c32e649fc85231dd197516db3aeb5c63c960df1e2539b9a7f54f3b33fe96e96bb007386328eeac57a81e15ce7520ac51d0236bfa06bae5cd6288f2eada8e56f6f4b8dd29a787c18ac9b8c25bc8cd3b7f5abe1db67f72c1be7fa18e83a247d12b2d605958488f326d1d18c4a112021f8c0f182042279eefc9f7cff276a270386987887ccd5b921a376c3309357b80749c11bcde4a43c6c6eef1779f91f000a030a3ebc799796ba89490f335e1c40640c1626916925b4498427c6dfba3df7640f62ccabbdc4cde294faa23e90edaf1da92b0ef693a38a7423d5f8fe738e55ec5c99716c3b87c530bc92f4df0119cb904849c4dd7e48c6b43f7453f3e8ad5733f1f3cf1a5950f88be284f343735e4811963abc2df1e5e94a71e301ef8ee168300f330a637b99bba418ddda1ebefbad6de6dae43559eec55d1dce10d84d60190674673504973627cfe97de11883424e4a50962eb73cbace0a61cdb5ab6b2b56a12b49b00f74ad05aee39006a76aca104f3f3dbfee1d975766787aff98f8ff79b6154f3bf19fdadb2e3d500fe4ccf244f5c6db9df8e4904b1d089bce7281917e1a7b3ff612bca69577a76f8a5cafa8a7972df99c87f18ca0e2ff07bafb9e61fb9f2c7814dcf598ea6e1fcc5afc8f3bf6f9ff83825a2ca6b142bcd9e4bf9dd8e120b3271455083b7a9d0557b802935de8feabd1b31317ad419f166f0341e1c264488bc5d9e5790a568e63029e0727f6ba2310818708473f4717d47ea1406c7afd3b2bff607cee5dc6150010e59a8466e615dc76556ab045f73fe0afb33069de2f9dda9ee1126c3888ce0909123357cd3946d273e42f40a2cb553c6ccb09f410c960fd830f27ec62372e489acc274dec644d466d344d753fd1c283f23d5407b965f38561918b0504b0ba02f7e9bf0e14b88f089b7ce31c7dad456691911111b645134f35c60eb5610e5b672bcbb54c51c3a72ae37914d35378bfaeb4dc8921532471ac722254cde2b0974177b172cf89af1855c4e2eb8069537c131784a83e59666d89989ac3c9e9f2131c214b547aa4a8acafbabdc8d5dde8ebfc1b45616fa2b8bcbfd4090d171d4145575b6d73888ee4f8000000000000000000000000000000000000000000000000000000000b1d263401fd2105007d2435ce336353f65e210449249a5ef7848f0c5191de51a68b6e15b45a054a408d147ace80556d15d3728de56035503387c2531579a193cac7487c44cecc3b8f14c543c61041121c263eb2070ee2916d6d4bbfba88be1465267dad8f0bccaa920139d9d1a03518a2759014d7592791bd5c40d33c5055dfbe5b409d05f8a58c06e2ade534d4c9bd6f391dcb069229ae45ac31fec1d1db0b873421ba34c0d1083969633840aa319a9345062a15062b17ab96ac8ad37610cbafa5e83ed779295353f57889644405714631040122e6f3d7553c3c3d51f2041a56ce37ca4623cba45daae65eb80fd280410813130da787ea37d177eeb06c46cce8cc00db26d81f2d857a324cdc6cce956f80612337ed837c3030396f0a5bcff4e635479da0e381be6cfafcfc1d1769a68e3154ce34eddec54666fa64cbd0418f6b40fb1f9392b3e3a7475fb85b46e0e8b10e36e39a816dcbfaecb7fba316c6addcba2b10409eec1e30aaaf41f9b077114c9f7da92e186aa723c289f25b3122ff42a257862dbd533c888383e4790e97ae5c14b65b9c741d9d3af32ec890f35906118f87cdecc734c4ad9881c342f40c9789203358ce161e5060145426b9951836d036dca13c6e264dcf0e4faf10479d7ab6f13cea66c0bccacd46f05224b57c6d1edbadab66d466c1d754a83987aea5fad40705c552d7e84205058dee2bf588b5acc2572d519a0c12343c4700ebe5befb6930e172db0475895fec0ad3e2b94f199abfbb665229a259a36c06163e2234f039013a2ccf65b98be63522b037c6f8b39b362289d064b89d401af302917e1018305fdf39219473922b26417d39a372cbd026fee3bd423ae60ab4368c413092d9b517006237fa3c186429e6a380a4e1d3d6d3b4e3ad619d57e6d2771b492fae29d46f00f828d0978b71c62a3706cf778f09ee5185e285002ef66da7ab73c7405eee66a8316990bf3ef23ddac8c6b7c70814bb9ce92ec2fe24a3677ff443444241bfe162aa604878d8cfebf425acc6f445962d8a861637914f3c211c69c39e1d49acf2a0e03c2935f48e10dfea13ccf41d9f9ecbdede7fc178d4d815d1915e8503b8e6e58c32c4ceec5c53475fd9b07b680ae53ad7ea247ed1a0c7b74fa15bb1ed6b6816ef69861df6ef2becc3dd55bc1d86114c3f9ddeea4cd2f99fc37a56582c2ac5185d599ff13a07d9bce1b249b62f73b284fe5673af22b48eacda8eec4a56d207787fac34fe3635c306cfc1f58377fce581506c368c3521320dd274872532b86205c9292e568a71dc576d9c1add306211656f1fbe7c5e47df17c3ec29139ede3e07cbf7c9ff3362f1e476d71850017d5e66582a01f135a1410462ead99473283e07b94f927e7e1876b93eecffbe67b7e0751f8b6c72f4e940a88bc56642dc4fa111d23dfe899acf1838891e8a785225dde6a6a9d9ed8de21ec7476d351f9774692bbfaa22ea7f4dd66714b35913910f113ada3394838da55d6a2dc34da19fbdec4eeb349a2d7acc8a7adf6f0cba0c66852084a596b20750ea17847390f93a3c16e1566c72593c95749480c6137b134c08f39a08d61e8e711301f44d516af9f818aed6e333e79946d0061e4a56a9cf9306b775862aaeb4a5b906db15a6471941ce611963f9781c424e6c0ca926f0f45a6c82a4f90a0689b744b35ea9cd5abf00e448baa526c36636ba27c5f25da6b4b8e562d1c6d67390a10c53a21a91d485c62ab819238fa6786d642e90e6c86d64079c79c9cd61bf4571200ba2431ae71a7e5d8c86d25f3179b24524c3bea752b42086478b63df4bae6410a9cfa99277191a0b9f91c47056715b56eb16b3487b75b3154f64fa2737244568000000",
  "txid": "6c85cb73f78a121a56f2cd9940e78a22c6547c6f4b8d6e2bfddd150fc27d129a",
  "hash": "81042ff9c79563ff92e1d34f4356ce128d73b7c0f5ca39e9a5ce6bd1c8a8458e",
  "size": 5085,
  "vsize": 2278,
  "version": 1,
  "locktime": 104,
  "vin": [
    {
      "txid": "1e61c35ac6c498d8c2a5b6c748022499c7dbb0bf9751cda318cf1a7bd8aaa7c9",
      "vout": 0,
      "scriptSig": {
        "asm": "",
        "hex": ""
      },
      "txinwitness": [
        "4b2323a94789456c1b4d00df665058b9b399582a936f48983955e862089db4afac026a4bdba66b2b5745bf638291ec2a83840098defd148bde9317e35b60b08338b692d85a29081ed862b175a01f9af6975519d4ba828cf4443639bc74674bdc114bc8cb78d1222a17e85c5cae683d6dcfa08461c56bfc414f867f2f1bd3bd0ef00e9cdb4fb09f5707f6ede0d910144fd5fa2d3d6ea0e8357e71d13e3d36535bacaefb946893f3e3aa4e0b2069184fda7f374d9d476f669b4a89825c9a2ba0e58bc29820fcf6987a4d821fdf283466fdf8d7cec950bb7f5bf68a09ceee72ff3afd7ede37448864c344dee65475b7150bffb141b11eb6952404602aca9392dc23170a735aa2278d5ee25cfa53080e8f8da1f68883ce83791a07e86f04627b7bc4904975c9b1620a9baf671b7b9783df517eb7a7b5fdb3678fa410ef2a98b65080fdcd28b0fc23c3597dcda5574a66ab116ecd14fdede71be50dd604683ee4b75d73b4706c9c7e9a7df91089da1f2343a5c322be8cdac969d3a365c6fe7577615c7a66a5c522dec4a5f1e8e5f396c0db2b180410c570d6635ac7734315ab87b78b4bea002fdf195e8d396cdcceaf57195e0c7d83905287b8c05c75f66a59bd3b2eb36aaedb17d765b193a24a8629df3783dcf49835c17237475ec26cf256542a674d86080a2750808dbfb9c4f913961120427512d9515fd2a33d945609ec324d9030dc96fde0ca579f563a92dbf8519e0cf44b4de4e3f5ff56c053d2bc36a5bcf284f5c7e65a92b4592003ed246a2d02a81623d5b6ede107e2481570e797f24b158a0f13aaeea1f1547c38ad8c0bbb1cb2240c2b6473ad4851933b4838507ea705a4abd1603c36b6b16e33248a277984de2746aee489317fe46386698e0603764eb05725d00e72e8d1d3b306c5b41eb9ef0a17c5cc828e0614e913e7eccade432cd570c5e6cf4b831a2f871991b2edb3397a09b56c5ec5e17e3b8a61bac7821ae7851f4577243dc6924e455640f871214b342e7cbab9d15383140d481b422f745d50ffe7a03000c7539678f49ebffe8ce5c5a155603cc7f211eefa5c887a839e703d0183e632d4ee23244d0dcbc4eb5737e9de418c4141a0cedbd7645bced99027cea421decd132bfe5bb4c00d40871daee9506899b508f26e0945797fc51a5ea9935b4897f983a1077a98a16114c141512e69fef4d3996c9edbca5334e2244fc3a4843954cb5417e41325667eba71827a93b1531f504a5b17d5a230b2ee1659ba5da8b32d597b800984952a6663fb82651cc73492c6fd252346a53ae879861b485daf320f6056ad33da484e5b569cf909b527d95ad060620e607950b3162e7299caa37432744cc4c9c03a557149245c98e58833d81b6d6ee262833db607d401fde085352e8e8ec49ae1ff1ba3d8fd889a42b51033f8dee17684d3597e37e4a388aad495ce325a4b86def502037a60b83f9d68a0dd4dae23a013afc790706f8d8be50ed8f29ef97db16081968d9fd0af86d00c94fee94d273102920929c99a67c60b4cf89d308fae45d0f4f68f196a556cd62d4252078b2f4acd38300be45d064bc31959c6a53f708cdedc0cce7ae8ad57e60edc1c809142912006ca6dd125eb67f8c8e1917440f99f3b03dc38cc09ef467819c5ab5c59ee8a2ef308bbbd097618b2eaf342ba62de2efc5bf09c910083397d1a49e8d469e0328916101ee059b17ad7f0193e60b7befb10240414b835c24f7e64f82b9eef97aa796d1098aeeecdab31d222fc6a729c349d09dc9fb77b3699afc4d7ea2ddde8363103d6dee078846e740ecb300b0da86b2165a5f24ee99b964e06fa0b6c391e27ca454ac4c1e7d16f8d3d357b17607877a312ed6813761afbfd5d80fedfcca1800854be2cd9ce807fd11df30d56efe0ab681e24a8144ec8e18a58d81313151b7ac75473fe0ed1a7098724c2c468f16509b8fee3d21b7acb49f0d646b9f4e028aa6f4d5158153e40d35586c6dd51a29af047c216b4af3d514f1a71954666aa98ccdc26e36a77dcd149772bcd5f110c9a5017fbf7d8a12c19454d8a60467bc457ff6c9726b414c129ad7080dd736ec46e0abf000ceb2d1cc619ae07c37723fbf19fd8d38f7b363ba182785e59d64f83a4500f7bce734f26163fcb75959d647f922af7fd3c780ba66c890cc08e3fb5c262c93a1a0d748d53baeed919d90a7ba4e02bc06fe942c7cdfb994f6e3decbfef6fd3d58cce5120771fe461cd3b9c2e19f3aa8793fe77136c4ea32ca83234366c32e649fc85231dd197516db3aeb5c63c960df1e2539b9a7f54f3b33fe96e96bb007386328eeac57a81e15ce7520ac51d0236bfa06bae5cd6288f2eada8e56f6f4b8dd29a787c18ac9b8c25bc8cd3b7f5abe1db67f72c1be7fa18e83a247d12b2d605958488f326d1d18c4a112021f8c0f182042279eefc9f7cff276a270386987887ccd5b921a376c3309357b80749c11bcde4a43c6c6eef1779f91f000a030a3ebc799796ba89490f335e1c40640c1626916925b4498427c6dfba3df7640f62ccabbdc4cde294faa23e90edaf1da92b0ef693a38a7423d5f8fe738e55ec5c99716c3b87c530bc92f4df0119cb904849c4dd7e48c6b43f7453f3e8ad5733f1f3cf1a5950f88be284f343735e4811963abc2df1e5e94a71e301ef8ee168300f330a637b99bba418ddda1ebefbad6de6dae43559eec55d1dce10d84d60190674673504973627cfe97de11883424e4a50962eb73cbace0a61cdb5ab6b2b56a12b49b00f74ad05aee39006a76aca104f3f3dbfee1d975766787aff98f8ff79b6154f3bf19fdadb2e3d500fe4ccf244f5c6db9df8e4904b1d089bce7281917e1a7b3ff612bca69577a76f8a5cafa8a7972df99c87f18ca0e2ff07bafb9e61fb9f2c7814dcf598ea6e1fcc5afc8f3bf6f9ff83825a2ca6b142bcd9e4bf9dd8e120b3271455083b7a9d0557b802935de8feabd1b31317ad419f166f0341e1c264488bc5d9e5790a568e63029e0727f6ba2310818708473f4717d47ea1406c7afd3b2bff607cee5dc6150010e59a8466e615dc76556ab045f73fe0afb33069de2f9dda9ee1126c3888ce0909123357cd3946d273e42f40a2cb553c6ccb09f410c960fd830f27ec62372e489acc274dec644d466d344d753fd1c283f23d5407b965f38561918b0504b0ba02f7e9bf0e14b88f089b7ce31c7dad456691911111b645134f35c60eb5610e5b672bcbb54c51c3a72ae37914d35378bfaeb4dc8921532471ac722254cde2b0974177b172cf89af1855c4e2eb8069537c131784a83e59666d89989ac3c9e9f2131c214b547aa4a8acafbabdc8d5dde8ebfc1b45616fa2b8bcbfd4090d171d4145575b6d73888ee4f8000000000000000000000000000000000000000000000000000000000b1d263401",
        "007d2435ce336353f65e210449249a5ef7848f0c5191de51a68b6e15b45a054a408d147ace80556d15d3728de56035503387c2531579a193cac7487c44cecc3b8f14c543c61041121c263eb2070ee2916d6d4bbfba88be1465267dad8f0bccaa920139d9d1a03518a2759014d7592791bd5c40d33c5055dfbe5b409d05f8a58c06e2ade534d4c9bd6f391dcb069229ae45ac31fec1d1db0b873421ba34c0d1083969633840aa319a9345062a15062b17ab96ac8ad37610cbafa5e83ed779295353f57889644405714631040122e6f3d7553c3c3d51f2041a56ce37ca4623cba45daae65eb80fd280410813130da787ea37d177eeb06c46cce8cc00db26d81f2d857a324cdc6cce956f80612337ed837c3030396f0a5bcff4e635479da0e381be6cfafcfc1d1769a68e3154ce34eddec54666fa64cbd0418f6b40fb1f9392b3e3a7475fb85b46e0e8b10e36e39a816dcbfaecb7fba316c6addcba2b10409eec1e30aaaf41f9b077114c9f7da92e186aa723c289f25b3122ff42a257862dbd533c888383e4790e97ae5c14b65b9c741d9d3af32ec890f35906118f87cdecc734c4ad9881c342f40c9789203358ce161e5060145426b9951836d036dca13c6e264dcf0e4faf10479d7ab6f13cea66c0bccacd46f05224b57c6d1edbadab66d466c1d754a83987aea5fad40705c552d7e84205058dee2bf588b5acc2572d519a0c12343c4700ebe5befb6930e172db0475895fec0ad3e2b94f199abfbb665229a259a36c06163e2234f039013a2ccf65b98be63522b037c6f8b39b362289d064b89d401af302917e1018305fdf39219473922b26417d39a372cbd026fee3bd423ae60ab4368c413092d9b517006237fa3c186429e6a380a4e1d3d6d3b4e3ad619d57e6d2771b492fae29d46f00f828d0978b71c62a3706cf778f09ee5185e285002ef66da7ab73c7405eee66a8316990bf3ef23ddac8c6b7c70814bb9ce92ec2fe24a3677ff443444241bfe162aa604878d8cfebf425acc6f445962d8a861637914f3c211c69c39e1d49acf2a0e03c2935f48e10dfea13ccf41d9f9ecbdede7fc178d4d815d1915e8503b8e6e58c32c4ceec5c53475fd9b07b680ae53ad7ea247ed1a0c7b74fa15bb1ed6b6816ef69861df6ef2becc3dd55bc1d86114c3f9ddeea4cd2f99fc37a56582c2ac5185d599ff13a07d9bce1b249b62f73b284fe5673af22b48eacda8eec4a56d207787fac34fe3635c306cfc1f58377fce581506c368c3521320dd274872532b86205c9292e568a71dc576d9c1add306211656f1fbe7c5e47df17c3ec29139ede3e07cbf7c9ff3362f1e476d71850017d5e66582a01f135a1410462ead99473283e07b94f927e7e1876b93eecffbe67b7e0751f8b6c72f4e940a88bc56642dc4fa111d23dfe899acf1838891e8a785225dde6a6a9d9ed8de21ec7476d351f9774692bbfaa22ea7f4dd66714b35913910f113ada3394838da55d6a2dc34da19fbdec4eeb349a2d7acc8a7adf6f0cba0c66852084a596b20750ea17847390f93a3c16e1566c72593c95749480c6137b134c08f39a08d61e8e711301f44d516af9f818aed6e333e79946d0061e4a56a9cf9306b775862aaeb4a5b906db15a6471941ce611963f9781c424e6c0ca926f0f45a6c82a4f90a0689b744b35ea9cd5abf00e448baa526c36636ba27c5f25da6b4b8e562d1c6d67390a10c53a21a91d485c62ab819238fa6786d642e90e6c86d64079c79c9cd61bf4571200ba2431ae71a7e5d8c86d25f3179b24524c3bea752b42086478b63df4bae6410a9cfa99277191a0b9f91c47056715b56eb16b3487b75b3154f64fa27372445"
      ],
      "sequence": 4294967294
    }
  ],
  "vout": [
    {
      "value": 499993.8986,
      "n": 0,
      "scriptPubKey": {
        "asm": "1 9a056ba6b089ebe44858d3678b5830ab4cb79d6fcbcb3617bd79f5702452e0e4",
        "hex": "51209a056ba6b089ebe44858d3678b5830ab4cb79d6fcbcb3617bd79f5702452e0e4",
        "reqSigs": 1,
        "type": "witness_v1_scripthash",
        "addresses": [
          "3QJmnh"
        ]
      }
    },
    {
      "value": 1.0,
      "n": 1,
      "scriptPubKey": {
        "asm": "OP_RETURN 27a369f644b548c4afd206bb49568b76460cb78ce709f1c564abd063c09c395f 98248bddbaea74ca7d7e841a8f6f861ccba81d5824653dbac728ab9e58003901b804abfd9aca54ea5d5ea43aaf4fa63ceb883d7804451d9ae7088bbe78201921d864cb9dfaaa348a3d3ec45acf2fc65c8be85d1864257dfa8768ebde18407941f844ebbdda8a14aa1d1ee47aef0fe67cabc87d3844055ddaa748cbfe3860596118a40b5d3a6af44afdfe049a0fef069c4b289dd8a4e5bd3a47a82b1ed880b98138842b7d1a4ad46addde24ba2fcf26bc6b08bdf884c59d1a67880b3ef8a099a158e44b1d7a2ab40abdbe44da4faf46dc0b68dd98e4a5fd7a07e86b5e98c0f9c178c46b3d5a0a942a9d9e64fa6f8f66fc2b48fdb8c485dd5a27c84b7eb8e0d9e198248bddbaea74ca7d7e841a8f6f861ccba81d5824653dbac728ab9e58003901b804abfd9aca54ea5d5ea43aaf4fa63ceb883d7804451d9ae7088bbe78201921d864cb9dfaaa348a3d3ec45acf2fc65c8be85d1864257dfa8768ebde18407941f844ebbdda8a14aa1d1ee47aef0fe67cabc87d3844055ddaa748cbfe3860596118a40b5d3a6af44afdfe049a0fef069c4b289dd8a4e5bd3a47a82b1ed880b98138842b7d1a4ad46addde24ba2fcf26bc6b08bdf884c59d1a67880b3ef8a099a158e44b1d7a2ab40abdbe44da4faf46dc0b68dd98e4a5fd7a07e86b5e98c0f9c178c46b3d5a0a942a9d9e64fa6f8f66fc2b48fdb8c485dd5a27c84b7eb8e0d9e198248bddbaea74ca7d7e841a8f6f861ccba81d5824653dbac728ab9e58003901b804abfd9aca54ea5d5ea43aaf4fa63ceb883d7804451d9ae7088bbe78201921d864cb9dfaaa348a3d3ec45acf2fc65c8be85d1864257dfa8768ebde18407941f844ebbdda8a14aa1d1ee47aef0fe67cabc87d3844055ddaa748cbfe3860596118a40b5d3a6af44afdfe049a0fef069c4b289dd8a4e5bd3a47a82b1ed880b98138842b7d1a4ad46addde24ba2fcf26bc6b08bdf884c59d1a67880b3ef8a099a158e44b1d7a2ab40abdbe44da4faf46dc0b68dd98e4a5fd7a07e86b5e98c0f9c178c46b3d5a0a942a9d9e64fa6f8f66fc2b48fdb8c485dd5a27c84b7eb8e0d9e198248bddbaea74ca7d7e841a8f6f861ccba81d5824653dbac728ab9e58003901b804abfd9aca54ea5d5ea43aaf4fa63ceb883d7804451d9ae7088bbe78201921d864cb9dfaaa348a3d3ec45acf2fc65c8be85d1864257dfa8768ebde18407941f844ebbdda8a14aa1d1ee47aef0fe67cabc87d3844055ddaa748cbfe3860596118a40b5d3a6af44afdfe049a0fef069c4b289dd8a4e5bd3a47a82b1ed880b98138842b7d1a4ad46addde24ba2fcf26bc6b08bdf884c59d1a67880b3ef8a099a158e44b1d7a2ab40abdbe44da4faf46dc0b68dd98e4a5fd7a07e86b5e98c0f9c178c46b3d5a0a942a9d9e64fa6f8f66fc2b48fdb8c485dd5a27c84b7eb8e0d9e198248bddbaea74ca7d7e841a8f6f861ccba81d5824653dbac728ab9e58003901b804abfd9aca54ea5d5ea43aaf4fa63ceb883d7804451d9ae7088bbe78201921d864cb9dfaaa348a3d3ec45acf2fc65c8be85d1864257dfa8768ebde18407941f844ebbdda8a14aa1d1ee47aef0fe67cabc87d3844055ddaa748cbfe3860596118a40b5d3a6af44afdfe049a0fef069c93dd44cccb58e406b29cbdec021099ef32ad3f9e62afdb0ed70aca3a7416f9e8",
        "hex": "6a2027a369f644b548c4afd206bb49568b76460cb78ce709f1c564abd063c09c395f4db00498248bddbaea74ca7d7e841a8f6f861ccba81d5824653dbac728ab9e58003901b804abfd9aca54ea5d5ea43aaf4fa63ceb883d7804451d9ae7088bbe78201921d864cb9dfaaa348a3d3ec45acf2fc65c8be85d1864257dfa8768ebde18407941f844ebbdda8a14aa1d1ee47aef0fe67cabc87d3844055ddaa748cbfe3860596118a40b5d3a6af44afdfe049a0fef069c4b289dd8a4e5bd3a47a82b1ed880b98138842b7d1a4ad46addde24ba2fcf26bc6b08bdf884c59d1a67880b3ef8a099a158e44b1d7a2ab40abdbe44da4faf46dc0b68dd98e4a5fd7a07e86b5e98c0f9c178c46b3d5a0a942a9d9e64fa6f8f66fc2b48fdb8c485dd5a27c84b7eb8e0d9e198248bddbaea74ca7d7e841a8f6f861ccba81d5824653dbac728ab9e58003901b804abfd9aca54ea5d5ea43aaf4fa63ceb883d7804451d9ae7088bbe78201921d864cb9dfaaa348a3d3ec45acf2fc65c8be85d1864257dfa8768ebde18407941f844ebbdda8a14aa1d1ee47aef0fe67cabc87d3844055ddaa748cbfe3860596118a40b5d3a6af44afdfe049a0fef069c4b289dd8a4e5bd3a47a82b1ed880b98138842b7d1a4ad46addde24ba2fcf26bc6b08bdf884c59d1a67880b3ef8a099a158e44b1d7a2ab40abdbe44da4faf46dc0b68dd98e4a5fd7a07e86b5e98c0f9c178c46b3d5a0a942a9d9e64fa6f8f66fc2b48fdb8c485dd5a27c84b7eb8e0d9e198248bddbaea74ca7d7e841a8f6f861ccba81d5824653dbac728ab9e58003901b804abfd9aca54ea5d5ea43aaf4fa63ceb883d7804451d9ae7088bbe78201921d864cb9dfaaa348a3d3ec45acf2fc65c8be85d1864257dfa8768ebde18407941f844ebbdda8a14aa1d1ee47aef0fe67cabc87d3844055ddaa748cbfe3860596118a40b5d3a6af44afdfe049a0fef069c4b289dd8a4e5bd3a47a82b1ed880b98138842b7d1a4ad46addde24ba2fcf26bc6b08bdf884c59d1a67880b3ef8a099a158e44b1d7a2ab40abdbe44da4faf46dc0b68dd98e4a5fd7a07e86b5e98c0f9c178c46b3d5a0a942a9d9e64fa6f8f66fc2b48fdb8c485dd5a27c84b7eb8e0d9e198248bddbaea74ca7d7e841a8f6f861ccba81d5824653dbac728ab9e58003901b804abfd9aca54ea5d5ea43aaf4fa63ceb883d7804451d9ae7088bbe78201921d864cb9dfaaa348a3d3ec45acf2fc65c8be85d1864257dfa8768ebde18407941f844ebbdda8a14aa1d1ee47aef0fe67cabc87d3844055ddaa748cbfe3860596118a40b5d3a6af44afdfe049a0fef069c4b289dd8a4e5bd3a47a82b1ed880b98138842b7d1a4ad46addde24ba2fcf26bc6b08bdf884c59d1a67880b3ef8a099a158e44b1d7a2ab40abdbe44da4faf46dc0b68dd98e4a5fd7a07e86b5e98c0f9c178c46b3d5a0a942a9d9e64fa6f8f66fc2b48fdb8c485dd5a27c84b7eb8e0d9e198248bddbaea74ca7d7e841a8f6f861ccba81d5824653dbac728ab9e58003901b804abfd9aca54ea5d5ea43aaf4fa63ceb883d7804451d9ae7088bbe78201921d864cb9dfaaa348a3d3ec45acf2fc65c8be85d1864257dfa8768ebde18407941f844ebbdda8a14aa1d1ee47aef0fe67cabc87d3844055ddaa748cbfe3860596118a40b5d3a6af44afdfe049a0fef069c93dd44cccb58e406b29cbdec021099ef32ad3f9e62afdb0ed70aca3a7416f9e8",
        "type": "nulldata"
      }
    }
  ],
  "blockhash": "32a2d379a33ec88ae1cb3a8a1a44f2d12b76aebf574ecf7ac16b289397ed6cd9",
  "confirmations": 1,
  "time": 1764176557,
  "blocktime": 1764176557
}