{
  "hex": "01000000000101edf8b2fd2324ca489ace633bbba1c987fe94f02da1826e4322abd5d82f5a62810000000000feffffff0200ce47c6782d00002251200b7608c3ca41a4609f36e7701a00631315560c7e06a6defd070e6788b931215e00e1f50500000000fdd5046a20e0f920b851ae9bc59493644b4cfb53e57ca871574662dde6f7c1022899f0259a4db004cd5a5298e4616f2e3de660f80eb33cc9858232adb399692dc5ed810203d8986ded7a72b8c4414f0e1dc640d82e931ce9a5a2128d93b9490de5cda12223f8b84d8d1a12d8a4212f6e7da620b84ef37c89c5c272edf3d9296d85adc1424398d82dad3a32f884010f4e5d8600986ed35ca9e5e252cdd3f9094da58de16263b8f80d4ddad21864e1efaebd66e0788e33bc490502b22d3319e9ad456d0182835818ed6dfaf23844c1cf8e9d46c058ae139c692522920d1339c98d654d21a2a37838cd0d9a925824a1afeefd26a038ce73fc094542f26d7359a9ed052d41c2c31858ad2dbab27804818fcedd068018ee53dc296562d24d537989cd250d61e2e338788dcd5a5298e4616f2e3de660f80eb33cc9858232adb399692dc5ed810203d8986ded7a72b8c4414f0e1dc640d82e931ce9a5a2128d93b9490de5cda12223f8b84d8d1a12d8a4212f6e7da620b84ef37c89c5c272edf3d9296d85adc1424398d82dad3a32f884010f4e5d8600986ed35ca9e5e252cdd3f9094da58de16263b8f80d4ddad21864e1efaebd66e0788e33bc490502b22d3319e9ad456d0182835818ed6dfaf23844c1cf8e9d46c058ae139c692522920d1339c98d654d21a2a37838cd0d9a925824a1afeefd26a038ce73fc094542f26d7359a9ed052d41c2c31858ad2dbab27804818fcedd068018ee53dc296562d24d537989cd250d61e2e338788dcd5a5298e4616f2e3de660f80eb33cc9858232adb399692dc5ed810203d8986ded7a72b8c4414f0e1dc640d82e931ce9a5a2128d93b9490de5cda12223f8b84d8d1a12d8a4212f6e7da620b84ef37c89c5c272edf3d9296d85adc1424398d82dad3a32f884010f4e5d8600986ed35ca9e5e252cdd3f9094da58de16263b8f80d4ddad21864e1efaebd66e0788e33bc490502b22d3319e9ad456d0182835818ed6dfaf23844c1cf8e9d46c058ae139c692522920d1339c98d654d21a2a37838cd0d9a925824a1afeefd26a038ce73fc094542f26d7359a9ed052d41c2c31858ad2dbab27804818fcedd068018ee53dc296562d24d537989cd250d61e2e338788dcd5a5298e4616f2e3de660f80eb33cc9858232adb399692dc5ed810203d8986ded7a72b8c4414f0e1dc640d82e931ce9a5a2128d93b9490de5cda12223f8b84d8d1a12d8a4212f6e7da620b84ef37c89c5c272edf3d9296d85adc1424398d82dad3a32f884010f4e5d8600986ed35ca9e5e252cdd3f9094da58de16263b8f80d4ddad21864e1efaebd66e0788e33bc490502b22d3319e9ad456d0182835818ed6dfaf23844c1cf8e9d46c058ae139c692522920d1339c98d654d21a2a37838cd0d9a925824a1afeefd26a038ce73fc094542f26d7359a9ed052d41c2c31858ad2dbab27804818fcedd068018ee53dc296562d24d537989cd250d61e2e338788dcd5a5298e4616f2e3de660f80eb33cc9858232adb399692dc5ed810203d8986ded7a72b8c4414f0e1dc640d82e931ce9a5a2128d93b9490de5cda12223f8b84d8d1a12d8a4212f6e7da620b84ef37c89c5c272edf3d9296d85adc1424398d82dad3a32f884010f4e5d8600986ed35ca9e5e252cdd3f9094da58de16263b8f80d4ddad21864e1efaebd66e0788e33bc4931f1362888d31f3ebe978c0d7fcf29a6679c082b76ccf0074237728557f1cb5e02fd75096be6efb14859adec7786d0346410e5abee3a4a60f32ad06adb195c3bfff4e21f976f4c03dcab2cbe3c2866674c13c9e386b8dbb774b1ba539abedbf8c01322e301bce75fa2c402b110193e9c1834bb6d399977ad3a31467c81cc4b7609e672c75bc173438c1471bfac4a77f1a4698c77585fb8cd0bc6c89a7d5ca4a916be31f1bd34451a1e747b535a142d147273d4c60338fa46a17f62f0d31b8cee55a73ff59bb88256230b7d1a45e249b7b21766cc864ace6cb605e3bd613234dc7bc766b12d3c53afaa69c9b370c2911fdaf5147b22f1906ae3a741e7380888f6c5757af7daa0942afccec7bb522adb5f49bea3eda431688e58ba082520551675dc30f5f7a62d54cfee37e98fe99d16b2b6bb404507050b16e0a93573772a1f03c86c1628db5c94b6efe6e0a55984fa6b2adc703928b1d4123e6426b099c160fcfed7fb2a54eb66d486d57ed9923b840a33fdc41d5c7518fbe0882af59a180db8373f4dfeeca976c4ea97ce42db9e57f579a94180a7c2bb4ed5b840afc3e6e98ff5cf4bd1c1141ece839dc278b3e8bc43e3c3072884a184fb5048315b19de0e5a30e666f7815b83d5655beb3ba8ad6e332f7b2aef832f165206a71269439adf585cb184c9a815ba498617799e83355bddb1dee59b2ac0c75075b08b31bb775bae8d1b2d74c60942ceb8bfcfc329ecb27726db79909deca32034fdcaaadf891ee21f4248afc5f2658ba9b362a098593925e346cc53eca8b8d3de107292aa5140719cf6d435f252ee768d17e049f76027bdb1bf7f6e80881372215ff6c30aa1bd036625b0eb3e0f2b8952e8f3fd899b5b513bf565a9ee94bb198424cfbd2f1ef940ff18872f86377646d3ffee32eb344d21716b5542d3fc3acc4eefcd02fcac4df6bcd0f9ef180c887d5402ab2ba3d9066bcb0405be27bb28920c77d2736e8d86d7f25165b594688f3cd6cf5176e479c6b62acf2d2e1184d5c6477e07ab175eee801f7b7e0b415b567af46794c62147a7d836e0fe1bf695e09716b71fec8e08bef9887d959a9350a34f99b5b3cae68077a6ce1fe8350fa40b30cfffd291c6206d6a501e7ce17905154c3cadc2c16bd05eac53d7954d64ef71f220989f096db7a1b846f863b3e7d86a9cb1105ca73f45a0074523571dd7379b829237083d05da5fe7ce84985ab175ccd9bee366b5ac2498298d7115af8545a1c7eb7dcab3e5b77c53d38bc5e507d4c6c1616423088a3cdea772cbcc02175be9eecff86f079826c33ef48f0244d2670e69c23f2cd8c83eabcfc8061776cce75ae0b30230abf3eacf09d5f669e9314a41f6602425edff73788cb21ae2b18a65703a6533e5efeb8b7d4e4e7aef4a164cd0d1d5b9bd2588477f0361fa6ede22a4d0554e6e2818b259a5dce5e296303c9d088609c1ac4b1bca3e815a063f825da90a547471f8ac4b518d607a063382102fe9168b151674bcb14e55fd3aa720a6f80cdefde854ee1b4a2d8d9809dfcd39f7a5aad7837cc30ff541866ee15f0b945086836a88ca888acdf676c68005e1faa34c029e26ea0be740f121fb72897fb917f37e326bd8ff51ed2a40fa6e709321c70600546b7eed702c3310b6ec9f5da0c0a082c63e95d99607d10e0d4ccaccab200371c6f67d9f1bb7933926abf2e6eb129af04765ee638cedd9c39ab16038f9e8baba09779e23fe0183a64066befcb015118ddac40cdf1cf1c50f8b3e595d8ee38c084353048dc51ca7219fc4b4e470d1e15e27e3d83dd50fc3ce99da0db4c9d26a645419e2af45b5236d7b5e4bbedf69f8cc60fa5bdffc7eff9a0cc209b8302878ae3b7c101442ed9bca6859fe5b0fc683464c9e17fd6c2fa8d13b70fc720300a4a6aba4c4cb4ec58f60df8a1988b4f72938bd875d1a9aaff1df9865c32286e84bbefb116ffcec149d608fcb5ffca5811b98a50abca62e6c2490081b1436f7a9d5d76d66ed40d3b240fb21315263c99fd0c447926d762de1414670028258e0d5dfd0c67a84ffdfc2f5ad90845baabe9995b73f2d63bb77bcbd7cf4884ea93ee9f7b086aa863f67be07866eb67f7fa75adcb6c7207285fc91d2be4d20129ebe153752a2ed4ff87c88a079dfd08647575fee8657940c91be1317bfa181d4aec4bac35d93bc24acdb02338d7c298dfabf417b83df98085ae1529b6c4275159a4b22200a78e6ba18ccca0a228716ac18488b0cd6924658010fe04ac391af57262895f43588ad6637a7195b9246498063fa91d9a7f5294b964a4c5647c9eaaa7bdc030e4681cc049fb1ca60c1e352826322ade9503f91dbf155417cf41df561e186746c3bedc2c65dbf2d23fdd56a0c107b0305d10c557ac4a55189a78adf8a7f864c54702d7972aae81a190958506eba94dcf7a369c3186d1f450769c92d85d8ec13a11b6560ad4785763f065b864a4db45b1d55971859317cc1613d876681eeb30d254ce986cc8a81167098c0669cf8e229403ace76c76a60d532a4c2e01266a3a28075a539e7f3cefc3000e0993402fbab18926ea7ac1d6992560cf194854b02e51533eff1f7a68d310ab0c2bea654ede7f61e9619b4ac2afa0877889812486161aa7632efc6acb77f134a5f0ab56ac94be2dde81ab01cc71e1a9174e12e7933ff995e8fbb054f148f60e170c4a7ff22ec9a991eb788cbc1ab08501e5792a91f5338675629f8b1a674d74b19c794ef31eef38d51da52eafa7d21943b6ebe3782ed361edc85688a5028600d5dd8ac5f04ef51e5775f2b4f07c8200939a5e5fee766e445b4c0554446776c333b86b35b510105d05252b8d08b62cf35e9f84cd132ab85dd9ea404946478d71e3c6f77e3fdd3f5d64b33f81aa09928c9ff145fa4ef8cdb3b2833321e5196a44fa1fdc7a3d650797f9893e3511942c7312694dbb30c986461852babbb872095fd48bd684dfa385dcf269d321e151b9a59807d3dd4ea4d135443208dfe5b0aa4c166b7e798fe39a44f7265d9ea870b5ade531685febbcdc6421b70a22403f68fc091b945d506e05fd1acbfa28fbd71634b73e9196f90569c5f9bc8f34a0990d2d94b381cb70ad7c59a00435c3123865029b2b1eaec8306a4c772b14f1f212ae036ac922cb94a13afcadf3dc18f54a78b5a25da88ce5d278ff8277e831692523e0bec068e1d25c1655269a215dec2bca6fcb4c811724065ed6cd9e5d96a6dbcd55c76f8590191ae87c8868273f9740df3f6d825213962fa84488ba0a981d80082cdc5674c949b97bae9d5cdb63e2c5a555a1e7413de58cffa042fa35d1d98dc29691a95fc3142fae46774eeabf5ca600f3cf9781f20102a363d6173878d929accebfa1112202e364a72929eb3b5b9c7d0d1e5eb061120263d4b607a82b02853545760797b8fb7c3f200000000000000000000000000000000000000000000000000000000000d1e283301fd2105002a9ad10ff9fb195e947a7971aea5c1a82c42a87b25a90e6c88f387f004d91e9ad159edf428c139e0f3df5922d78304fa0474019cce32e4c69d655e33e14bde07edd5b5f485e77d276ad0a9e5a9aeaebe22d074eec6805626f3209613c220aeedab67f6bd91c65a452eb03c7c3563a4c33556c9671e101b2582926b18210e1c7e9853577f6af26681bbce052d684a954c1ccf9f3e126309bdcf6b6fe72a982c83a31c558d6187b11e72676ef06d7bf7e562a62f34b0d0af9de4d7991bd24ddb69d98207df057f29e6b4e65d87186a4e965df739a7479b09cadad74d2d6d67a8053a4bb8ce279c74b825d8542beadfa959469ed130f68544d12da155d5448e50d18e93af74526fcd877d26fa63ad3807c616fb34bdf168400f75e5b87316e798533e9972f17fe3d45122945b0228912c5e1c4eda155ecb1226f6ce767160da4845ad9e800516b623962a37f7ffae5752f5aa902d7b0ef5cc2dbd9ab13f730fc5b1c55d8b077789500d1b1f17c84a29b2820f2c44573dcf583fa56753c6c4cd44d575a193ce93984a213f15aa544014081f4048e7e4ec3b58d7f7ab245d7a4dd5d3d5218a5635026945cd39ec17152b2bf8ff895a53bd3f13f0ffd23531a4d3f50628dec9a259106b9bba98c6ff8db355582bac690ae7d225e7fbd857c287eaa7d5b33eff1b3bc79cb70f9ea1353b2235300b800f128a11577d88a78d61e7698739ed8805f9702499a70f65f059a3ea6b2d4a6d0c82439122830f8070080e358b53d73ab2545a29b033900b775fb408abc1619621e97956f30c822c98a5ebbb50fff8e5fd3da77328c2af48905281d6d831463a507a0b26ae0d79112206a236f70e434176c67a71c026cd35829cb1e1768aab906b9939f9207eb692940e8caea0f153a4d57e33d0285fe09766dbfe1874bcc37450609b7857a3843f2512bb5e7b0f839873ebff77b21600d7bc61f21c1ccc17d15b34299ae4698cc29809f2788517c419ec930e604f19a7ee9a507737e2f57872a99ea6127e60c5b677ea211390a5e6498a2dfcc0d1ef9fafdc8bb6b75850118132e8c5df06631882979e275201b7662073475ce8dceee74b46b37d053d7fff66bf74b9d198d24919bde2f62e02623743302f33cfd8e5da84da2fdc3a9f5eecd5f310a918021aa5c9a017a434c3a143bbfa140c6261d7315640068393c39efebcc4291416fd3824a5ec41b32987c3eb52a24033a000960137dc8fbaba7c215a4866960f8a2100f16f2865fcddbb0a368930141bd526a2ae47a6b760ecabc1912afaf9da95ba68afa4fa6ee0fca26afc3361473a80a47442785683663a8348f9afbd322214010599155e909708445d88e16abdcb58acb58e26d9514dabec425f992f520709f3744828f3c4f681809450aae6421c067a9b67b8274b0c923b881e0255475641a971ac6bde2b17bef5d7ed9b83bea501e3a395ba7b24c6f4c51fa33a26dd215758eeeaa540cdc3ccae7da758926be494f2558e455cf6f4162705656132ad50756a0827951dcf3cb8f38655ca2a1bf7179cda0ec1383bb2c27bc09cdc93ff5be95ca8442d58b09861365d6137d45349689932d940cd8e787681c7566e566d2c873924dc32c9ccad141202728f6c116bfa5d720e112c5c6e706e9f94c02d16247e3cf8542fd512766892c482212af3d3559d1c4421839bd69636bb4d395ebf4f0fc847db9b400385b564efb9e5306ee01d253046ef6bd954c03a93cd97ab8b1e9953732fa9b0bf57ffa6ea3523e25f6f8b5a01c2b0f1672939539cb9ea18abf3be4e417b26dd0ef11513d83ec534d58d6b80ca06fa6a345209a5cfea9b7431bd4b1f24437183c230d3b09982000000",
  "txid": "6eab80dd8de03da42b4d03d3b0ec8662a17bcd92aa92921fa1364882b049ba9f",
  "hash": "c82b2fccb4e75717a444bbbd485c12c9594792a021a5bba14a89d69a976a74ce",
  "size": 5085,
  "vsize": 2278,
  "version": 1,
  "locktime": 130,
  "vin": [
    {
      "txid": "81625a2fd8d5ab22436e82a12df094fe87c9a1bb3b63ce9a48ca2423fdb2f8ed",
      "vout": 0,
      "scriptSig": {
        "asm": "",
        "hex": ""
      },
      "txinwitness": [
        "6be6efb14859adec7786d0346410e5abee3a4a60f32ad06adb195c3bfff4e21f976f4c03dcab2cbe3c2866674c13c9e386b8dbb774b1ba539abedbf8c01322e301bce75fa2c402b110193e9c1834bb6d399977ad3a31467c81cc4b7609e672c75bc173438c1471bfac4a77f1a4698c77585fb8cd0bc6c89a7d5ca4a916be31f1bd34451a1e747b535a142d147273d4c60338fa46a17f62f0d31b8cee55a73ff59bb88256230b7d1a45e249b7b21766cc864ace6cb605e3bd613234dc7bc766b12d3c53afaa69c9b370c2911fdaf5147b22f1906ae3a741e7380888f6c5757af7daa0942afccec7bb522adb5f49bea3eda431688e58ba082520551675dc30f5f7a62d54cfee37e98fe99d16b2b6bb404507050b16e0a93573772a1f03c86c1628db5c94b6efe6e0a55984fa6b2adc703928b1d4123e6426b099c160fcfed7fb2a54eb66d486d57ed9923b840a33fdc41d5c7518fbe0882af59a180db8373f4dfeeca976c4ea97ce42db9e57f579a94180a7c2bb4ed5b840afc3e6e98ff5cf4bd1c1141ece839dc278b3e8bc43e3c3072884a184fb5048315b19de0e5a30e666f7815b83d5655beb3ba8ad6e332f7b2aef832f165206a71269439adf585cb184c9a815ba498617799e83355bddb1dee59b2ac0c75075b08b31bb775bae8d1b2d74c60942ceb8bfcfc329ecb27726db79909deca32034fdcaaadf891ee21f4248afc5f2658ba9b362a098593925e346cc53eca8b8d3de107292aa5140719cf6d435f252ee768d17e049f76027bdb1bf7f6e80881372215ff6c30aa1bd036625b0eb3e0f2b8952e8f3fd899b5b513bf565a9ee94bb198424cfbd2f1ef940ff18872f86377646d3ffee32eb344d21716b5542d3fc3acc4eefcd02fcac4df6bcd0f9ef180c887d5402ab2ba3d9066bcb0405be27bb28920c77d2736e8d86d7f25165b594688f3cd6cf5176e479c6b62acf2d2e1184d5c6477e07ab175eee801f7b7e0b415b567af46794c62147a7d836e0fe1bf695e09716b71fec8e08bef9887d959a9350a34f99b5b3cae68077a6ce1fe8350fa40b30cfffd291c6206d6a501e7ce17905154c3cadc2c16bd05eac53d7954d64ef71f220989f096db7a1b846f863b3e7d86a9cb1105ca73f45a0074523571dd7379b829237083d05da5fe7ce84985ab175ccd9bee366b5ac2498298d7115af8545a1c7eb7dcab3e5b77c53d38bc5e507d4c6c1616423088a3cdea772cbcc02175be9eecff86f079826c33ef48f0244d2670e69c23f2cd8c83eabcfc8061776cce75ae0b30230abf3eacf09d5f669e9314a41f6602425edff73788cb21ae2b18a65703a6533e5efeb8b7d4e4e7aef4a164cd0d1d5b9bd2588477f0361fa6ede22a4d0554e6e2818b259a5dce5e296303c9d088609c1ac4b1bca3e815a063f825da90a547471f8ac4b518d607a063382102fe9168b151674bcb14e55fd3aa720a6f80cdefde854ee1b4a2d8d9809dfcd39f7a5aad7837cc30ff541866ee15f0b945086836a88ca888acdf676c68005e1faa34c029e26ea0be740f121fb72897fb917f37e326bd8ff51ed2a40fa6e709321c70600546b7eed702c3310b6ec9f5da0c0a082c63e95d99607d10e0d4ccaccab200371c6f67d9f1bb7933926abf2e6eb129af04765ee638cedd9c39ab16038f9e8baba09779e23fe0183a64066befcb015118ddac40cdf1cf1c50f8b3e595d8ee38c084353048dc51ca7219fc4b4e470d1e15e27e3d83dd50fc3ce99da0db4c9d26a645419e2af45b5236d7b5e4bbedf69f8cc60fa5bdffc7eff9a0cc209b8302878ae3b7c101442ed9bca6859fe5b0fc683464c9e17fd6c2fa8d13b70fc720300a4a6aba4c4cb4ec58f60df8a1988b4f72938bd875d1a9aaff1df9865c32286e84bbefb116ffcec149d608fcb5ffca5811b98a50abca62e6c2490081b1436f7a9d5d76d66ed40d3b240fb21315263c99fd0c447926d762de1414670028258e0d5dfd0c67a84ffdfc2f5ad90845baabe9995b73f2d63bb77bcbd7cf4884ea93ee9f7b086aa863f67be07866eb67f7fa75adcb6c7207285fc91d2be4d20129ebe153752a2ed4ff87c88a079dfd08647575fee8657940c91be1317bfa181d4aec4bac35d93bc24acdb02338d7c298dfabf417b83df98085ae1529b6c4275159a4b22200a78e6ba18ccca0a228716ac18488b0cd6924658010fe04ac391af57262895f43588ad6637a7195b9246498063fa91d9a7f5294b964a4c5647c9eaaa7bdc030e4681cc049fb1ca60c1e352826322ade9503f91dbf155417cf41df561e186746c3bedc2c65dbf2d23fdd56a0c107b0305d10c557ac4a55189a78adf8a7f864c54702d7972aae81a190958506eba94dcf7a369c3186d1f450769c92d85d8ec13a11b6560ad4785763f065b864a4db45b1d55971859317cc1613d876681eeb30d254ce986cc8a81167098c0669cf8e229403ace76c76a60d532a4c2e01266a3a28075a539e7f3cefc3000e0993402fbab18926ea7ac1d6992560cf194854b02e51533eff1f7a68d310ab0c2bea654ede7f61e9619b4ac2afa0877889812486161aa7632efc6acb77f134a5f0ab56ac94be2dde81ab01cc71e1a9174e12e7933ff995e8fbb054f148f60e170c4a7ff22ec9a991eb788cbc1ab08501e5792a91f5338675629f8b1a674d74b19c794ef31eef38d51da52eafa7d21943b6ebe3782ed361edc85688a5028600d5dd8ac5f04ef51e5775f2b4f07c8200939a5e5fee766e445b4c0554446776c333b86b35b510105d05252b8d08b62cf35e9f84cd132ab85dd9ea404946478d71e3c6f77e3fdd3f5d64b33f81aa09928c9ff145fa4ef8cdb3b2833321e5196a44fa1fdc7a3d650797f9893e3511942c7312694dbb30c986461852babbb872095fd48bd684dfa385dcf269d321e151b9a59807d3dd4ea4d135443208dfe5b0aa4c166b7e798fe39a44f7265d9ea870b5ade531685febbcdc6421b70a22403f68fc091b945d506e05fd1acbfa28fbd71634b73e9196f90569c5f9bc8f34a0990d2d94b381cb70ad7c59a00435c3123865029b2b1eaec8306a4c772b14f1f212ae036ac922cb94a13afcadf3dc18f54a78b5a25da88ce5d278ff8277e831692523e0bec068e1d25c1655269a215dec2bca6fcb4c811724065ed6cd9e5d96a6dbcd55c76f8590191ae87c8868273f9740df3f6d825213962fa84488ba0a981d80082cdc5674c949b97bae9d5cdb63e2c5a555a1e7413de58cffa042fa35d1d98dc29691a95fc3142fae46774eeabf5ca600f3cf9781f20102a363d6173878d929accebfa1112202e364a72929eb3b5b9c7d0d1e5eb061120263d4b607a82b02853545760797b8fb7c3f200000000000000000000000000000000000000000000000000000000000d1e283301",
        "002a9ad10ff9fb195e947a7971aea5c1a82c42a87b25a90e6c88f387f004d91e9ad159edf428c139e0f3df5922d78304fa0474019cce32e4c69d655e33e14bde07edd5b5f485e77d276ad0a9e5a9aeaebe22d074eec6805626f3209613c220aeedab67f6bd91c65a452eb03c7c3563a4c33556c9671e101b2582926b18210e1c7e9853577f6af26681bbce052d684a954c1ccf9f3e126309bdcf6b6fe72a982c83a31c558d6187b11e72676ef06d7bf7e562a62f34b0d0af9de4d7991bd24ddb69d98207df057f29e6b4e65d87186a4e965df739a7479b09cadad74d2d6d67a8053a4bb8ce279c74b825d8542beadfa959469ed130f68544d12da155d5448e50d18e93af74526fcd877d26fa63ad3807c616fb34bdf168400f75e5b87316e798533e9972f17fe3d45122945b0228912c5e1c4eda155ecb1226f6ce767160da4845ad9e800516b623962a37f7ffae5752f5aa902d7b0ef5cc2dbd9ab13f730fc5b1c55d8b077789500d1b1f17c84a29b2820f2c44573dcf583fa56753c6c4cd44d575a193ce93984a213f15aa544014081f4048e7e4ec3b58d7f7ab245d7a4dd5d3d5218a5635026945cd39ec17152b2bf8ff895a53bd3f13f0ffd23531a4d3f50628dec9a259106b9bba98c6ff8db355582bac690ae7d225e7fbd857c287eaa7d5b33eff1b3bc79cb70f9ea1353b2235300b800f128a11577d88a78d61e7698739ed8805f9702499a70f65f059a3ea6b2d4a6d0c82439122830f8070080e358b53d73ab2545a29b033900b775fb408abc1619621e97956f30c822c98a5ebbb50fff8e5fd3da77328c2af48905281d6d831463a507a0b26ae0d79112206a236f70e434176c67a71c026cd35829cb1e1768aab906b9939f9207eb692940e8caea0f153a4d57e33d0285fe09766dbfe1874bcc37450609b7857a3843f2512bb5e7b0f839873ebff77b21600d7bc61f21c1ccc17d15b34299ae4698cc29809f2788517c419ec930e604f19a7ee9a507737e2f57872a99ea6127e60c5b677ea211390a5e6498a2dfcc0d1ef9fafdc8bb6b75850118132e8c5df06631882979e275201b7662073475ce8dceee74b46b37d053d7fff66bf74b9d198d24919bde2f62e02623743302f33cfd8e5da84da2fdc3a9f5eecd5f310a918021aa5c9a017a434c3a143bbfa140c6261d7315640068393c39efebcc4291416fd3824a5ec41b32987c3eb52a24033a000960137dc8fbaba7c215a4866960f8a2100f16f2865fcddbb0a368930141bd526a2ae47a6b760ecabc1912afaf9da95ba68afa4fa6ee0fca26afc3361473a80a47442785683663a8348f9afbd322214010599155e909708445d88e16abdcb58acb58e26d9514dabec425f992f520709f3744828f3c4f681809450aae6421c067a9b67b8274b0c923b881e0255475641a971ac6bde2b17bef5d7ed9b83bea501e3a395ba7b24c6f4c51fa33a26dd215758eeeaa540cdc3ccae7da758926be494f2558e455cf6f4162705656132ad50756a0827951dcf3cb8f38655ca2a1bf7179cda0ec1383bb2c27bc09cdc93ff5be95ca8442d58b09861365d6137d45349689932d940cd8e787681c7566e566d2c873924dc32c9ccad141202728f6c116bfa5d720e112c5c6e706e9f94c02d16247e3cf8542fd512766892c482212af3d3559d1c4421839bd69636bb4d395ebf4f0fc847db9b400385b564efb9e5306ee01d253046ef6bd954c03a93cd97ab8b1e9953732fa9b0bf57ffa6ea3523e25f6f8b5a01c2b0f1672939539cb9ea18abf3be4e417b26dd0ef11513d83ec534d58d6b80ca06fa6a345209a5cfea9b7431bd4b1f24437183c230d3b099"
      ],
      "sequence": 4294967294
    }
  ],
  "vout": [
    {
      "value": 499967.4592,
      "n": 0,
      "scriptPubKey": {
        "asm": "1 0b7608c3ca41a4609f36e7701a00631315560c7e06a6defd070e6788b931215e",
        "hex": "51200b7608c3ca41a4609f36e7701a00631315560c7e06a6defd070e6788b931215e",
        "reqSigs": 1,
        "type": "witness_v1_scripthash",
        "addresses": [
          "3QJmnh"
        ]
      }
    },
    {
      "value": 1.0,
      "n": 1,
      "scriptPubKey": {
        "asm": "OP_RETURN e0f920b851ae9bc59493644b4cfb53e57ca871574662dde6f7c1022899f0259a cd5a5298e4616f2e3de660f80eb33cc9858232adb399692dc5ed810203d8986ded7a72b8c4414f0e1dc640d82e931ce9a5a2128d93b9490de5cda12223f8b84d8d1a12d8a4212f6e7da620b84ef37c89c5c272edf3d9296d85adc1424398d82dad3a32f884010f4e5d8600986ed35ca9e5e252cdd3f9094da58de16263b8f80d4ddad21864e1efaebd66e0788e33bc490502b22d3319e9ad456d0182835818ed6dfaf23844c1cf8e9d46c058ae139c692522920d1339c98d654d21a2a37838cd0d9a925824a1afeefd26a038ce73fc094542f26d7359a9ed052d41c2c31858ad2dbab27804818fcedd068018ee53dc296562d24d537989cd250d61e2e338788dcd5a5298e4616f2e3de660f80eb33cc9858232adb399692dc5ed810203d8986ded7a72b8c4414f0e1dc640d82e931ce9a5a2128d93b9490de5cda12223f8b84d8d1a12d8a4212f6e7da620b84ef37c89c5c272edf3d9296d85adc1424398d82dad3a32f884010f4e5d8600986ed35ca9e5e252cdd3f9094da58de16263b8f80d4ddad21864e1efaebd66e0788e33bc490502b22d3319e9ad456d0182835818ed6dfaf23844c1cf8e9d46c058ae139c692522920d1339c98d654d21a2a37838cd0d9a925824a1afeefd26a038ce73fc094542f26d7359a9ed052d41c2c31858ad2dbab27804818fcedd068018ee53dc296562d24d537989cd250d61e2e338788dcd5a5298e4616f2e3de660f80eb33cc9858232adb399692dc5ed810203d8986ded7a72b8c4414f0e1dc640d82e931ce9a5a2128d93b9490de5cda12223f8b84d8d1a12d8a4212f6e7da620b84ef37c89c5c272edf3d9296d85adc1424398d82dad3a32f884010f4e5d8600986ed35ca9e5e252cdd3f9094da58de16263b8f80d4ddad21864e1efaebd66e0788e33bc490502b22d3319e9ad456d0182835818ed6dfaf23844c1cf8e9d46c058ae139c692522920d1339c98d654d21a2a37838cd0d9a925824a1afeefd26a038ce73fc094542f26d7359a9ed052d41c2c31858ad2dbab27804818fcedd068018ee53dc296562d24d537989cd250d61e2e338788dcd5a5298e4616f2e3de660f80eb33cc9858232adb399692dc5ed810203d8986ded7a72b8c4414f0e1dc640d82e931ce9a5a2128d93b9490de5cda12223f8b84d8d1a12d8a4212f6e7da620b84ef37c89c5c272edf3d9296d85adc1424398d82dad3a32f884010f4e5d8600986ed35ca9e5e252cdd3f9094da58de16263b8f80d4ddad21864e1efaebd66e0788e33bc490502b22d3319e9ad456d0182835818ed6dfaf23844c1cf8e9d46c058ae139c692522920d1339c98d654d21a2a37838cd0d9a925824a1afeefd26a038ce73fc094542f26d7359a9ed052d41c2c31858ad2dbab27804818fcedd068018ee53dc296562d24d537989cd250d61e2e338788dcd5a5298e4616f2e3de660f80eb33cc9858232adb399692dc5ed810203d8986ded7a72b8c4414f0e1dc640d82e931ce9a5a2128d93b9490de5cda12223f8b84d8d1a12d8a4212f6e7da620b84ef37c89c5c272edf3d9296d85adc1424398d82dad3a32f884010f4e5d8600986ed35ca9e5e252cdd3f9094da58de16263b8f80d4ddad21864e1efaebd66e0788e33bc4931f1362888d31f3ebe978c0d7fcf29a6679c082b76ccf0074237728557f1cb5e",
        "hex": "6a20e0f920b851ae9bc59493644b4cfb53e57ca871574662dde6f7c1022899f0259a4db004cd5a5298e4616f2e3de660f80eb33cc9858232adb399692dc5ed810203d8986ded7a72b8c4414f0e1dc640d82e931ce9a5a2128d93b9490de5cda12223f8b84d8d1a12d8a4212f6e7da620b84ef37c89c5c272edf3d9296d85adc1424398d82dad3a32f884010f4e5d8600986ed35ca9e5e252cdd3f9094da58de16263b8f80d4ddad21864e1efaebd66e0788e33bc490502b22d3319e9ad456d0182835818ed6dfaf23844c1cf8e9d46c058ae139c692522920d1339c98d654d21a2a37838cd0d9a925824a1afeefd26a038ce73fc094542f26d7359a9ed052d41c2c31858ad2dbab27804818fcedd068018ee53dc296562d24d537989cd250d61e2e338788dcd5a5298e4616f2e3de660f80eb33cc9858232adb399692dc5ed810203d8986ded7a72b8c4414f0e1dc640d82e931ce9a5a2128d93b9490de5cda12223f8b84d8d1a12d8a4212f6e7da620b84ef37c89c5c272edf3d9296d85adc1424398d82dad3a32f884010f4e5d8600986ed35ca9e5e252cdd3f9094da58de16263b8f80d4ddad21864e1efaebd66e0788e33bc490502b22d3319e9ad456d0182835818ed6dfaf23844c1cf8e9d46c058ae139c692522920d1339c98d654d21a2a37838cd0d9a925824a1afeefd26a038ce73fc094542f26d7359a9ed052d41c2c31858ad2dbab27804818fcedd068018ee53dc296562d24d537989cd250d61e2e338788dcd5a5298e4616f2e3de660f80eb33cc9858232adb399692dc5ed810203d8986ded7a72b8c4414f0e1dc640d82e931ce9a5a2128d93b9490de5cda12223f8b84d8d1a12d8a4212f6e7da620b84ef37c89c5c272edf3d9296d85adc1424398d82dad3a32f884010f4e5d8600986ed35ca9e5e252cdd3f9094da58de16263b8f80d4ddad21864e1efaebd66e0788e33bc490502b22d3319e9ad456d0182835818ed6dfaf23844c1cf8e9d46c058ae139c692522920d1339c98d654d21a2a37838cd0d9a925824a1afeefd26a038ce73fc094542f26d7359a9ed052d41c2c31858ad2dbab27804818fcedd068018ee53dc296562d24d537989cd250d61e2e338788dcd5a5298e4616f2e3de660f80eb33cc9858232adb399692dc5ed810203d8986ded7a72b8c4414f0e1dc640d82e931ce9a5a2128d93b9490de5cda12223f8b84d8d1a12d8a4212f6e7da620b84ef37c89c5c272edf3d9296d85adc1424398d82dad3a32f884010f4e5d8600986ed35ca9e5e252cdd3f9094da58de16263b8f80d4ddad21864e1efaebd66e0788e33bc490502b22d3319e9ad456d0182835818ed6dfaf23844c1cf8e9d46c058ae139c692522920d1339c98d654d21a2a37838cd0d9a925824a1afeefd26a038ce73fc094542f26d7359a9ed052d41c2c31858ad2dbab27804818fcedd068018ee53dc296562d24d537989cd250d61e2e338788dcd5a5298e4616f2e3de660f80eb33cc9858232adb399692dc5ed810203d8986ded7a72b8c4414f0e1dc640d82e931ce9a5a2128d93b9490de5cda12223f8b84d8d1a12d8a4212f6e7da620b84ef37c89c5c272edf3d9296d85adc1424398d82dad3a32f884010f4e5d8600986ed35ca9e5e252cdd3f9094da58de16263b8f80d4ddad21864e1efaebd66e0788e33bc4931f1362888d31f3ebe978c0d7fcf29a6679c082b76ccf0074237728557f1cb5e",
        "type": "nulldata"
      }
    }
  ],
  "blockhash": "a9a7ce638639648c5b111e15e0d4489535a11a846f6b50fba3b7e2925471654c",
  "confirmations": 1,
  "time": 1764182153,
  "blocktime": 1764182153
}