{
  "hex": "010000000001013d9af7f08b25aa00d4761091329ce9db662ac65f428524b0502b1268448e67570000000000feffffff024021813f792d0000225120d68e1d41d1b5b02ccbe64b5f56f62ba48c94ab019abcac141f26c51c8443e54300e1f50500000000fdd5046a209a67bb4b17194f38a0f058503afd160435646577a7d0e96960b0d280f7de94074db00426147420a0f04619afa3ba70bd3c67e3c74e740181345fb3f339727575d949800634540080d066398f839a509d1c47c3e76e5421a1147f93d319525555f969a066543460e0b00659efe3fa30fd7c27a3870e3441c1741ff3b3793235359909c046741440c0902679cfc3da10dd5c0783a72e1461e1543fd39359121515b929e0a694f4a02070c6992f233af03dbce76347cef48101b4df3373b9f2f5f559c90086b4d4800050e6b90f031ad01d9cc74367eed4a12194ff135399d2d5d579e920e6d4b4e0603086d96f637ab07dfca723078eb4c141f49f7333f9b2b5b5198940c6f494c04010a6f94f435a905ddc870327ae94e161d4bf5313d992959539a96026147420a0f04619afa3ba70bd3c67e3c74e740181345fb3f339727575d949800634540080d066398f839a509d1c47c3e76e5421a1147f93d319525555f969a066543460e0b00659efe3fa30fd7c27a3870e3441c1741ff3b3793235359909c046741440c0902679cfc3da10dd5c0783a72e1461e1543fd39359121515b929e0a694f4a02070c6992f233af03dbce76347cef48101b4df3373b9f2f5f559c90086b4d4800050e6b90f031ad01d9cc74367eed4a12194ff135399d2d5d579e920e6d4b4e0603086d96f637ab07dfca723078eb4c141f49f7333f9b2b5b5198940c6f494c04010a6f94f435a905ddc870327ae94e161d4bf5313d992959539a96026147420a0f04619afa3ba70bd3c67e3c74e740181345fb3f339727575d949800634540080d066398f839a509d1c47c3e76e5421a1147f93d319525555f969a066543460e0b00659efe3fa30fd7c27a3870e3441c1741ff3b3793235359909c046741440c0902679cfc3da10dd5c0783a72e1461e1543fd39359121515b929e0a694f4a02070c6992f233af03dbce76347cef48101b4df3373b9f2f5f559c90086b4d4800050e6b90f031ad01d9cc74367eed4a12194ff135399d2d5d579e920e6d4b4e0603086d96f637ab07dfca723078eb4c141f49f7333f9b2b5b5198940c6f494c04010a6f94f435a905ddc870327ae94e161d4bf5313d992959539a96026147420a0f04619afa3ba70bd3c67e3c74e740181345fb3f339727575d949800634540080d066398f839a509d1c47c3e76e5421a1147f93d319525555f969a066543460e0b00659efe3fa30fd7c27a3870e3441c1741ff3b3793235359909c046741440c0902679cfc3da10dd5c0783a72e1461e1543fd39359121515b929e0a694f4a02070c6992f233af03dbce76347cef48101b4df3373b9f2f5f559c90086b4d4800050e6b90f031ad01d9cc74367eed4a12194ff135399d2d5d579e920e6d4b4e0603086d96f637ab07dfca723078eb4c141f49f7333f9b2b5b5198940c6f494c04010a6f94f435a905ddc870327ae94e161d4bf5313d992959539a96026147420a0f04619afa3ba70bd3c67e3c74e740181345fb3f339727575d949800634540080d066398f839a509d1c47c3e76e5421a1147f93d319525555f969a066543460e0b00659efe3fa30fd7c27a3870e3441c1741ff3b3793235359909c046741440c0902679cfc3da10dd5c0783a72e1461e1543fd39359121515b929e0a694f4a02070c6992f233af03dbce763f8f92cc3c93780fc515a4b9b29a536a2945e498878bcd1698dbb5030f84e9ca102fd750942b8e6214df70159d9aefd87ceddae407e66ab0aba29b7edae2f4a0c44820cf6cc301d0b5e40ac59f3e034520f5d45c752eb5298df45aedcf67014e1008d85c9605e4e967a9f3659d6a17b8c99e207966a8e376dd824df20dfe54e8f96c63dc2fea1c5588b56ca7dd0c7ac8e9de7ffdefe192d9c58ba73239b14e5937ef43ba538aeafca580bd66a00121260be3836b17866cf25e5cfa82c0e917950e5c7060ccb768c7d6a5baefaab987ac5d75b083ee28c8d45f76c4cfb8d2dbf1a8d7737ec60484493f6998e7a457eb92bb1ecac2e1ca8013b69af5906a6e6981d93239fd0a7230593a9a9cefea798f45284c6a12fb05a37448a92b53eb6cf040cc995db133c2bf5db9192244576e6678923b4d08b040eeb8b439f98ae84303816fb2981a035450f6b462337b6a73485cd69eb32a57e66fa81070c0edf0744f793ad905b23b0aae27852e42752678ab2ec9f397e8040533a77446ade6ed1b881038fc186a269102c59eac43fa19e1b6d0ba171db4217569555e71ff4cbeebc68f18f5377fa5ab8fa14c2bd63935017113955f4584d38d7ee7a9ab4d093b92a8462d48144042c48c0679e2ceae9d5d9e6967140b4c3fcff526b40e31a18f42ddd1ef17a27d6b2fac96f42e46ee2cd81d26f808176e9f9ca40516f81697e99f748c17627c8d4cf9f2c4bb2735dbde76e2c5deff0d2ca9c372ab93fce7a91f4ea98a0ee73110347cc53dea3e8d5686edd89d449e452244ff0729f2a4ebec12a142f655fd4a4fd8436a53fef88c48027598c12ad5b1b5f4fb289474de05250e21be389bcc1ddc4c68749019c2df4d079a8b776f3d9c1c5518b524a011f291157d0d8a1d11c65b0ef8578a717e3c086d4ccf8d48d14cea7eafc4bcbe3ae8a486e8eb8643d8c2109127717eb15e3bb2938d2b6097673d2219bcac3d526c7ab6acc60ec43dbf1a48f4dc7681e0b52de6a08bd6d44704403c55caba98e50470f59a8ddfb537393abcfa59c6445f6d4ea6ad46d2e82bae4597b5c672926568377c0f3bfbaadd3a9588248067ac9c60e16b7290f4a07d1545e99ef0f31ae82c34b223a36236c6ee81eb8e5044c82081149df06c57ea1843838ae89d36d0078bada3238f44fc675bbc0383b33157b1c96444f0c343323da318a7e45a7bd447e26cab6fe95c34b2110dd77449030ee112c812661928e5a6d39eefbea3b9c9f64b76492068453642a724732929dcbdd213d6c316a23e23c583fe7348c1e94073cc63c30fb5e7d4b5ac97f0a88396e283362c60d3fb6fb9858fb6a85b3b660d5465e2f105aa3c9db5f7fbfcb680f8bef23afec2ef670eff7f38353876552a53c307c534d9ec1390ea4c2376f7f8ca0e54428c48470d07ee3de6efdd3cd2c83fb99be4cfeafcbd0b19b04a2b51f11f6bbc87a4a65a4eb9bba808e55577aa981439704b02bac195b90e502ee3d45153dfb942893f6cf01959f91bfaff0c9c5df39ca889f6b4fc707913322277fedfa30e892c96c4eaa881a2358aed1b965e78d98aec4a155c9da646639e071f0fb0f8e9837be255c06e674a3bebe22b5ee72874c1a1c93f9c64f4d105ff3eb059a5cd7710bc82007616caefd27bb4dc6b83cd86ad77856e905bd3783558f52a2c5a19309f9882595a0a0619a739ef5f3e3bea5948b27df4a90b4fd905fa363d84b0e31137b607116473b22c6b6cf9be4f71671b1f33f5aac0a7127cee85e5a6437843a85aa3d9c86647b312708124198106737be4ce8b095ca942e1eb43d02bc8827fdf130e559b1684e9f2f81ebcda160f2b7c8e42836ae427e8bb9208cd26c9a119258dd33ee05cce4fed56e85dac790ef23477e4653303800b0ca4f5c41b26bc146b96f3175e7a21e7efdbf51ec3b0d1742db7e783bbf752f125c7f38118d6072928f66c9e3b828fb50aa1b3a445ea7e64f6c793c5338b24bf802d1487d01771c2391b3c700b6476f92bc2a6fd31ad7eb34005ccba52c0bb01ef23f0590880e59114dfcf3ce43c0bcf449cc7de4df28e537d15294c4986e22f8cff5d659412ccd03cc548224c80ac884afb08c06c4b9a39932bbed6b8a57dab51ad53f48eb70e759464d12ac6c4f7914885c8ace6fce85db7427395d2877f7c61ac0f80be1ccc79395f30980625247aab92e8878ddc82ce9386d1ceadd2b7792b3720ffa134ddf21f197317e6aaf14f5e2d74abda9fa924bb779b0203ffafb1c9c9da7d0b88e7d64571fe43ff541035c971743dcf8bd3d5ccc7e424c90e6c1df0f1a51e6bc3e91af65026b00506e271a3838c1a3102551efbbab4b10d06108efc44a512a8611953b8076120c88e8acb6a2108ac0598090ea1ad2cba79f9ba32ec1669707d21a3a070a92429674f1721e5b7ba15aa4beee4b34e121f047b4ee70150cfff2690a28c45a724b9a962daec573b3e10be7554f44646e2dd0c2f4c1563ce3252075aaea3deced4a2841a9fd02f6b2f25a2ea9739864fcb11adcdd3d8559f0c0701005e71165d66f31bda45286f55398e86dec190cec2091b55b3596c5aaa8e20878552ebc44e7066995e13a0fd613e80c94a0b2e5c6e030e59644fa064a14e95a4811504c8df3fcb46f174bf7b5cf21d23be70619ed99d6a2d07a8edb0e33b1b40939f92ead2afdd2bbe03b826dd0072d70162a7288264d7f10c43db5d1fd961e9db6a573c144121b23ffe899b7131642ee4dd9fe44c420de70cb731cae19f568705c8cfa19ce93a91e769eabcbd7c5e2cd85b5827dbd58e90d3717f27d12df56a4222ee37001b4e96dce249adf43423588eddb17804b49de019f6bd9cbfb70ea8aa39ef7a51d3bacd1b090b38c366fadab525ee6f275f32b4ff020ed9da68fbccd1465adcae335f7ee4b09816b0aead8dc09c5b2a221dbe56e30d632ee78ba3fb2b8dc02069de4852a23dfda46c8be4ac5cf2d52a6428ffede84dc4c1db580a4f875adbcae4ed4c2e08fe0615a3f04ede8d5a9e560f3f91ebf067ff0309996bc7228076e91efdae3edb9c6a508fcadea329860c52058ca206a50427748644a2a375bbf93c63599a6a08751a902464b31f326d99ce6e933137814610971fc9547ec5fb5b44ccb25cab5568e301c59d975ef049812703a3159a3f88d0e9bd01d0d827d672dc6ff182569c901c97628c4c705abec64104c64dfeae13d42854430f6331e1b5a9f11e4b8c624b780609874787f9ae78659fbc1c93754dce6f75ee09f3b507b79d73bb65dd360ad8812626cfec3ff5ed977907df0d404db6bb1dde24c7d29bdab019d64ed9ac71e52245dbe6bb92238433d66025749f698a90727ea82d8121c1d24303e4f556a6e768dbbe0ecf8fa000e141924424a4f51565a818b95adbdc9d60a0c0d415161a7bec0c2d7e0e9f2f71e1f223f434f557680979cbdc0c1d0ecfdfe0000000000000000000000001123324401fd210500870b79f9b1f5f0daa56054aad3f68d629837ecfb3ca4dd924c59217570b352f96cfe06c7e0fabd01138e7c95d054491e1f09aa122a015a97f5e8efef8f89344518d99910d5699006c8bd054a0db320ee4f22cb8a76b9ace064f1d9b10ba8ff929e008d534fea2f04d40824f34c1a0a686c4876776e86f3721bfcc8c149877bee582bf11cc000bd4886453e8c44027e04bb052c42288c636fe41b7496adc432fbadbf0cba6c4b5dcef90cdde6423ffa5a1dd6a0f55e7c7b7a388de82dba577dab0de95cf043a42a1950b47f89cbaae6a89baf96fcc841218457bb87045e244a0e2aa6ef57eeac069c3a7421fe128e6bb305d4bf2e75eafefb1d001f00d8af13f1ab6a7133e672cf1cea6af247eb5a3582d8c60f6485a009d7df8f9ff8e761210d3518b146dab9f01be37bbcbcc91180c74ecd9f3d112e8d5414c97e6907812f039c4754dcf29a6efb1b99cd7fa8d522e19d98d8b7a906b5935c8cbc1c29f2fef0a2dff4a7db684b6e7c8d53d5d78c375caa3465b9b206c5b3ff871c8b9e73a5f14e6eb644c24daf5a41afac44e7a1b5029cbf267f4fd707820c5de6df090c18cac7ceed29443b4ca0c92180f8d1981eab74c981469b1e7d118ffa9e9c36f6c7d7b7edbdd480cde08a3e1d7acd7b2104caec7ae0cf9ad064c84117d9ee5cb2a2ba21b6b2a8272c7a96e81dc76b991fdfc85cb5fc4d53d5e1a4fc7281477f96badf5f068dc1a6f35688f0b3726197057ef7e245eef3b971610da2f95aab6bb0af44216b013edfbebe1d3c61a04d2209cb1860823f5eca6f24b586ab7b947e85c441296bbffa30e2b32ff37e76f996430081f4649249b387affca37736475f640ce7787cbdca75db537637cbe7099b26534d6acf2e940f6d89b4953148afc81a2e973834ac2ac358b6900e993b2e4c73c964caf113b6742fe0d6673231d2a98129031fc3872f36f53ae50e036a274ca440fad46b994259d895fb76b24d2ef608dd3aa267e2f29e8c0a3b6f945afe16fb2ba962d8f9f11e3141763fd0abcd0e8cb4179d640db70f8e59d02cc5e571668f76c0c9732575e595d0d85de55c8a2c3f059458d4327f5a3338e6d7a474793eefd512b726596d79fa90250a01c2ffb261a5e1638b430dfe55236c32e9009940d40c44643e8b9ab6adb88de53c34cf6eabe9febfafdb4612b264b1eee83287ecb07d9158e6bdeb4192aea28ddb315a966a321ece9e28caf10138b7aa0e2c191d37826f404f49978926399b96d600edf6b5b3e2059b0e762abc87600667b53f06e5da78971483d9389ec335993f2c1701d0f0c5b91a845545435592270c5bedfb332e1b46cf88226f05f59fab27548d9cb1cafcf78e6fb61a74b812b406522122228c5cc9b39e0ad6e1f4dd019fceba077f079afeced7d70e46c255d1b58f168fdf0e130f851a75f30e6e5b49caab4a6fe41a0958767d9ba58166b699539efa875a8cab0bcf73be4ed4b2123708c9209f1415ad807046e4b94a7f4624db25acaa839f1305f7e42db0a692e7335d1ec0f0c4b13c254d7f6b4f6e9323c7a3e9c226c5db7465eb4c6ceec1bd7de4bfb13276727d225530e305dc7305bbcb39a19c67450e13f9ec0f0cb584df50bdebc93ee75cdea7cc5aafebcef74014c4251726af97d1619cdbf1821ed9348cc0c6c3e47ac58c292027ca6c8cb6060ce9ae024b199e7b28813e5940fb89b632dca7fe348017567f481197c92ed0642789b888d0b46990021f34eed746e103ef8cf3d0d45d7bdecffb819a2e19f0062208ee3a00e54299bd5a12141e0af01f6c0e7d9e667179c488e755459888743f0269456ed084f509f5ede4753d5ead45b1aca05ee7228beda46e000000",
  "txid": "6ddada3b213b5371f7cbdd1f8963a89c53c502b00b8669dbf2825d7cce5f4c5e",
  "hash": "2f5878b6528a565d08ed685ca3d3e43bc7aa8d152f909900be5c4c6de4a25b10",
  "size": 5085,
  "vsize": 2278,
  "version": 1,
  "locktime": 110,
  "vin": [
    {
      "txid": "57678e4468122b50b02485425fc62a66dbe99c32911076d400aa258bf0f79a3d",
      "vout": 0,
      "scriptSig": {
        "asm": "",
        "hex": ""
      },
      "txinwitness": [
        "42b8e6214df70159d9aefd87ceddae407e66ab0aba29b7edae2f4a0c44820cf6cc301d0b5e40ac59f3e034520f5d45c752eb5298df45aedcf67014e1008d85c9605e4e967a9f3659d6a17b8c99e207966a8e376dd824df20dfe54e8f96c63dc2fea1c5588b56ca7dd0c7ac8e9de7ffdefe192d9c58ba73239b14e5937ef43ba538aeafca580bd66a00121260be3836b17866cf25e5cfa82c0e917950e5c7060ccb768c7d6a5baefaab987ac5d75b083ee28c8d45f76c4cfb8d2dbf1a8d7737ec60484493f6998e7a457eb92bb1ecac2e1ca8013b69af5906a6e6981d93239fd0a7230593a9a9cefea798f45284c6a12fb05a37448a92b53eb6cf040cc995db133c2bf5db9192244576e6678923b4d08b040eeb8b439f98ae84303816fb2981a035450f6b462337b6a73485cd69eb32a57e66fa81070c0edf0744f793ad905b23b0aae27852e42752678ab2ec9f397e8040533a77446ade6ed1b881038fc186a269102c59eac43fa19e1b6d0ba171db4217569555e71ff4cbeebc68f18f5377fa5ab8fa14c2bd63935017113955f4584d38d7ee7a9ab4d093b92a8462d48144042c48c0679e2ceae9d5d9e6967140b4c3fcff526b40e31a18f42ddd1ef17a27d6b2fac96f42e46ee2cd81d26f808176e9f9ca40516f81697e99f748c17627c8d4cf9f2c4bb2735dbde76e2c5deff0d2ca9c372ab93fce7a91f4ea98a0ee73110347cc53dea3e8d5686edd89d449e452244ff0729f2a4ebec12a142f655fd4a4fd8436a53fef88c48027598c12ad5b1b5f4fb289474de05250e21be389bcc1ddc4c68749019c2df4d079a8b776f3d9c1c5518b524a011f291157d0d8a1d11c65b0ef8578a717e3c086d4ccf8d48d14cea7eafc4bcbe3ae8a486e8eb8643d8c2109127717eb15e3bb2938d2b6097673d2219bcac3d526c7ab6acc60ec43dbf1a48f4dc7681e0b52de6a08bd6d44704403c55caba98e50470f59a8ddfb537393abcfa59c6445f6d4ea6ad46d2e82bae4597b5c672926568377c0f3bfbaadd3a9588248067ac9c60e16b7290f4a07d1545e99ef0f31ae82c34b223a36236c6ee81eb8e5044c82081149df06c57ea1843838ae89d36d0078bada3238f44fc675bbc0383b33157b1c96444f0c343323da318a7e45a7bd447e26cab6fe95c34b2110dd77449030ee112c812661928e5a6d39eefbea3b9c9f64b76492068453642a724732929dcbdd213d6c316a23e23c583fe7348c1e94073cc63c30fb5e7d4b5ac97f0a88396e283362c60d3fb6fb9858fb6a85b3b660d5465e2f105aa3c9db5f7fbfcb680f8bef23afec2ef670eff7f38353876552a53c307c534d9ec1390ea4c2376f7f8ca0e54428c48470d07ee3de6efdd3cd2c83fb99be4cfeafcbd0b19b04a2b51f11f6bbc87a4a65a4eb9bba808e55577aa981439704b02bac195b90e502ee3d45153dfb942893f6cf01959f91bfaff0c9c5df39ca889f6b4fc707913322277fedfa30e892c96c4eaa881a2358aed1b965e78d98aec4a155c9da646639e071f0fb0f8e9837be255c06e674a3bebe22b5ee72874c1a1c93f9c64f4d105ff3eb059a5cd7710bc82007616caefd27bb4dc6b83cd86ad77856e905bd3783558f52a2c5a19309f9882595a0a0619a739ef5f3e3bea5948b27df4a90b4fd905fa363d84b0e31137b607116473b22c6b6cf9be4f71671b1f33f5aac0a7127cee85e5a6437843a85aa3d9c86647b312708124198106737be4ce8b095ca942e1eb43d02bc8827fdf130e559b1684e9f2f81ebcda160f2b7c8e42836ae427e8bb9208cd26c9a119258dd33ee05cce4fed56e85dac790ef23477e4653303800b0ca4f5c41b26bc146b96f3175e7a21e7efdbf51ec3b0d1742db7e783bbf752f125c7f38118d6072928f66c9e3b828fb50aa1b3a445ea7e64f6c793c5338b24bf802d1487d01771c2391b3c700b6476f92bc2a6fd31ad7eb34005ccba52c0bb01ef23f0590880e59114dfcf3ce43c0bcf449cc7de4df28e537d15294c4986e22f8cff5d659412ccd03cc548224c80ac884afb08c06c4b9a39932bbed6b8a57dab51ad53f48eb70e759464d12ac6c4f7914885c8ace6fce85db7427395d2877f7c61ac0f80be1ccc79395f30980625247aab92e8878ddc82ce9386d1ceadd2b7792b3720ffa134ddf21f197317e6aaf14f5e2d74abda9fa924bb779b0203ffafb1c9c9da7d0b88e7d64571fe43ff541035c971743dcf8bd3d5ccc7e424c90e6c1df0f1a51e6bc3e91af65026b00506e271a3838c1a3102551efbbab4b10d06108efc44a512a8611953b8076120c88e8acb6a2108ac0598090ea1ad2cba79f9ba32ec1669707d21a3a070a92429674f1721e5b7ba15aa4beee4b34e121f047b4ee70150cfff2690a28c45a724b9a962daec573b3e10be7554f44646e2dd0c2f4c1563ce3252075aaea3deced4a2841a9fd02f6b2f25a2ea9739864fcb11adcdd3d8559f0c0701005e71165d66f31bda45286f55398e86dec190cec2091b55b3596c5aaa8e20878552ebc44e7066995e13a0fd613e80c94a0b2e5c6e030e59644fa064a14e95a4811504c8df3fcb46f174bf7b5cf21d23be70619ed99d6a2d07a8edb0e33b1b40939f92ead2afdd2bbe03b826dd0072d70162a7288264d7f10c43db5d1fd961e9db6a573c144121b23ffe899b7131642ee4dd9fe44c420de70cb731cae19f568705c8cfa19ce93a91e769eabcbd7c5e2cd85b5827dbd58e90d3717f27d12df56a4222ee37001b4e96dce249adf43423588eddb17804b49de019f6bd9cbfb70ea8aa39ef7a51d3bacd1b090b38c366fadab525ee6f275f32b4ff020ed9da68fbccd1465adcae335f7ee4b09816b0aead8dc09c5b2a221dbe56e30d632ee78ba3fb2b8dc02069de4852a23dfda46c8be4ac5cf2d52a6428ffede84dc4c1db580a4f875adbcae4ed4c2e08fe0615a3f04ede8d5a9e560f3f91ebf067ff0309996bc7228076e91efdae3edb9c6a508fcadea329860c52058ca206a50427748644a2a375bbf93c63599a6a08751a902464b31f326d99ce6e933137814610971fc9547ec5fb5b44ccb25cab5568e301c59d975ef049812703a3159a3f88d0e9bd01d0d827d672dc6ff182569c901c97628c4c705abec64104c64dfeae13d42854430f6331e1b5a9f11e4b8c624b780609874787f9ae78659fbc1c93754dce6f75ee09f3b507b79d73bb65dd360ad8812626cfec3ff5ed977907df0d404db6bb1dde24c7d29bdab019d64ed9ac71e52245dbe6bb92238433d66025749f698a90727ea82d8121c1d24303e4f556a6e768dbbe0ecf8fa000e141924424a4f51565a818b95adbdc9d60a0c0d415161a7bec0c2d7e0e9f2f71e1f223f434f557680979cbdc0c1d0ecfdfe0000000000000000000000001123324401",
        "00870b79f9b1f5f0daa56054aad3f68d629837ecfb3ca4dd924c59217570b352f96cfe06c7e0fabd01138e7c95d054491e1f09aa122a015a97f5e8efef8f89344518d99910d5699006c8bd054a0db320ee4f22cb8a76b9ace064f1d9b10ba8ff929e008d534fea2f04d40824f34c1a0a686c4876776e86f3721bfcc8c149877bee582bf11cc000bd4886453e8c44027e04bb052c42288c636fe41b7496adc432fbadbf0cba6c4b5dcef90cdde6423ffa5a1dd6a0f55e7c7b7a388de82dba577dab0de95cf043a42a1950b47f89cbaae6a89baf96fcc841218457bb87045e244a0e2aa6ef57eeac069c3a7421fe128e6bb305d4bf2e75eafefb1d001f00d8af13f1ab6a7133e672cf1cea6af247eb5a3582d8c60f6485a009d7df8f9ff8e761210d3518b146dab9f01be37bbcbcc91180c74ecd9f3d112e8d5414c97e6907812f039c4754dcf29a6efb1b99cd7fa8d522e19d98d8b7a906b5935c8cbc1c29f2fef0a2dff4a7db684b6e7c8d53d5d78c375caa3465b9b206c5b3ff871c8b9e73a5f14e6eb644c24daf5a41afac44e7a1b5029cbf267f4fd707820c5de6df090c18cac7ceed29443b4ca0c92180f8d1981eab74c981469b1e7d118ffa9e9c36f6c7d7b7edbdd480cde08a3e1d7acd7b2104caec7ae0cf9ad064c84117d9ee5cb2a2ba21b6b2a8272c7a96e81dc76b991fdfc85cb5fc4d53d5e1a4fc7281477f96badf5f068dc1a6f35688f0b3726197057ef7e245eef3b971610da2f95aab6bb0af44216b013edfbebe1d3c61a04d2209cb1860823f5eca6f24b586ab7b947e85c441296bbffa30e2b32ff37e76f996430081f4649249b387affca37736475f640ce7787cbdca75db537637cbe7099b26534d6acf2e940f6d89b4953148afc81a2e973834ac2ac358b6900e993b2e4c73c964caf113b6742fe0d6673231d2a98129031fc3872f36f53ae50e036a274ca440fad46b994259d895fb76b24d2ef608dd3aa267e2f29e8c0a3b6f945afe16fb2ba962d8f9f11e3141763fd0abcd0e8cb4179d640db70f8e59d02cc5e571668f76c0c9732575e595d0d85de55c8a2c3f059458d4327f5a3338e6d7a474793eefd512b726596d79fa90250a01c2ffb261a5e1638b430dfe55236c32e9009940d40c44643e8b9ab6adb88de53c34cf6eabe9febfafdb4612b264b1eee83287ecb07d9158e6bdeb4192aea28ddb315a966a321ece9e28caf10138b7aa0e2c191d37826f404f49978926399b96d600edf6b5b3e2059b0e762abc87600667b53f06e5da78971483d9389ec335993f2c1701d0f0c5b91a845545435592270c5bedfb332e1b46cf88226f05f59fab27548d9cb1cafcf78e6fb61a74b812b406522122228c5cc9b39e0ad6e1f4dd019fceba077f079afeced7d70e46c255d1b58f168fdf0e130f851a75f30e6e5b49caab4a6fe41a0958767d9ba58166b699539efa875a8cab0bcf73be4ed4b2123708c9209f1415ad807046e4b94a7f4624db25acaa839f1305f7e42db0a692e7335d1ec0f0c4b13c254d7f6b4f6e9323c7a3e9c226c5db7465eb4c6ceec1bd7de4bfb13276727d225530e305dc7305bbcb39a19c67450e13f9ec0f0cb584df50bdebc93ee75cdea7cc5aafebcef74014c4251726af97d1619cdbf1821ed9348cc0c6c3e47ac58c292027ca6c8cb6060ce9ae024b199e7b28813e5940fb89b632dca7fe348017567f481197c92ed0642789b888d0b46990021f34eed746e103ef8cf3d0d45d7bdecffb819a2e19f0062208ee3a00e54299bd5a12141e0af01f6c0e7d9e667179c488e755459888743f0269456ed084f509f5ede4753d5ead45b1aca05ee7228beda4"
      ],
      "sequence": 4294967294
    }
  ],
  "vout": [
    {
      "value": 499987.7972,
      "n": 0,
      "scriptPubKey": {
        "asm": "1 d68e1d41d1b5b02ccbe64b5f56f62ba48c94ab019abcac141f26c51c8443e543",
        "hex": "5120d68e1d41d1b5b02ccbe64b5f56f62ba48c94ab019abcac141f26c51c8443e543",
        "reqSigs": 1,
        "type": "witness_v1_scripthash",
        "addresses": [
          "3QJmnh"
        ]
      }
    },
    {
      "value": 1.0,
      "n": 1,
      "scriptPubKey": {
        "asm": "OP_RETURN 9a67bb4b17194f38a0f058503afd160435646577a7d0e96960b0d280f7de9407 26147420a0f04619afa3ba70bd3c67e3c74e740181345fb3f339727575d949800634540080d066398f839a509d1c47c3e76e5421a1147f93d319525555f969a066543460e0b00659efe3fa30fd7c27a3870e3441c1741ff3b3793235359909c046741440c0902679cfc3da10dd5c0783a72e1461e1543fd39359121515b929e0a694f4a02070c6992f233af03dbce76347cef48101b4df3373b9f2f5f559c90086b4d4800050e6b90f031ad01d9cc74367eed4a12194ff135399d2d5d579e920e6d4b4e0603086d96f637ab07dfca723078eb4c141f49f7333f9b2b5b5198940c6f494c04010a6f94f435a905ddc870327ae94e161d4bf5313d992959539a96026147420a0f04619afa3ba70bd3c67e3c74e740181345fb3f339727575d949800634540080d066398f839a509d1c47c3e76e5421a1147f93d319525555f969a066543460e0b00659efe3fa30fd7c27a3870e3441c1741ff3b3793235359909c046741440c0902679cfc3da10dd5c0783a72e1461e1543fd39359121515b929e0a694f4a02070c6992f233af03dbce76347cef48101b4df3373b9f2f5f559c90086b4d4800050e6b90f031ad01d9cc74367eed4a12194ff135399d2d5d579e920e6d4b4e0603086d96f637ab07dfca723078eb4c141f49f7333f9b2b5b5198940c6f494c04010a6f94f435a905ddc870327ae94e161d4bf5313d992959539a96026147420a0f04619afa3ba70bd3c67e3c74e740181345fb3f339727575d949800634540080d066398f839a509d1c47c3e76e5421a1147f93d319525555f969a066543460e0b00659efe3fa30fd7c27a3870e3441c1741ff3b3793235359909c046741440c0902679cfc3da10dd5c0783a72e1461e1543fd39359121515b929e0a694f4a02070c6992f233af03dbce76347cef48101b4df3373b9f2f5f559c90086b4d4800050e6b90f031ad01d9cc74367eed4a12194ff135399d2d5d579e920e6d4b4e0603086d96f637ab07dfca723078eb4c141f49f7333f9b2b5b5198940c6f494c04010a6f94f435a905ddc870327ae94e161d4bf5313d992959539a96026147420a0f04619afa3ba70bd3c67e3c74e740181345fb3f339727575d949800634540080d066398f839a509d1c47c3e76e5421a1147f93d319525555f969a066543460e0b00659efe3fa30fd7c27a3870e3441c1741ff3b3793235359909c046741440c0902679cfc3da10dd5c0783a72e1461e1543fd39359121515b929e0a694f4a02070c6992f233af03dbce76347cef48101b4df3373b9f2f5f559c90086b4d4800050e6b90f031ad01d9cc74367eed4a12194ff135399d2d5d579e920e6d4b4e0603086d96f637ab07dfca723078eb4c141f49f7333f9b2b5b5198940c6f494c04010a6f94f435a905ddc870327ae94e161d4bf5313d992959539a96026147420a0f04619afa3ba70bd3c67e3c74e740181345fb3f339727575d949800634540080d066398f839a509d1c47c3e76e5421a1147f93d319525555f969a066543460e0b00659efe3fa30fd7c27a3870e3441c1741ff3b3793235359909c046741440c0902679cfc3da10dd5c0783a72e1461e1543fd39359121515b929e0a694f4a02070c6992f233af03dbce763f8f92cc3c93780fc515a4b9b29a536a2945e498878bcd1698dbb5030f84e9ca1",
        "hex": "6a209a67bb4b17194f38a0f058503afd160435646577a7d0e96960b0d280f7de94074db00426147420a0f04619afa3ba70bd3c67e3c74e740181345fb3f339727575d949800634540080d066398f839a509d1c47c3e76e5421a1147f93d319525555f969a066543460e0b00659efe3fa30fd7c27a3870e3441c1741ff3b3793235359909c046741440c0902679cfc3da10dd5c0783a72e1461e1543fd39359121515b929e0a694f4a02070c6992f233af03dbce76347cef48101b4df3373b9f2f5f559c90086b4d4800050e6b90f031ad01d9cc74367eed4a12194ff135399d2d5d579e920e6d4b4e0603086d96f637ab07dfca723078eb4c141f49f7333f9b2b5b5198940c6f494c04010a6f94f435a905ddc870327ae94e161d4bf5313d992959539a96026147420a0f04619afa3ba70bd3c67e3c74e740181345fb3f339727575d949800634540080d066398f839a509d1c47c3e76e5421a1147f93d319525555f969a066543460e0b00659efe3fa30fd7c27a3870e3441c1741ff3b3793235359909c046741440c0902679cfc3da10dd5c0783a72e1461e1543fd39359121515b929e0a694f4a02070c6992f233af03dbce76347cef48101b4df3373b9f2f5f559c90086b4d4800050e6b90f031ad01d9cc74367eed4a12194ff135399d2d5d579e920e6d4b4e0603086d96f637ab07dfca723078eb4c141f49f7333f9b2b5b5198940c6f494c04010a6f94f435a905ddc870327ae94e161d4bf5313d992959539a96026147420a0f04619afa3ba70bd3c67e3c74e740181345fb3f339727575d949800634540080d066398f839a509d1c47c3e76e5421a1147f93d319525555f969a066543460e0b00659efe3fa30fd7c27a3870e3441c1741ff3b3793235359909c046741440c0902679cfc3da10dd5c0783a72e1461e1543fd39359121515b929e0a694f4a02070c6992f233af03dbce76347cef48101b4df3373b9f2f5f559c90086b4d4800050e6b90f031ad01d9cc74367eed4a12194ff135399d2d5d579e920e6d4b4e0603086d96f637ab07dfca723078eb4c141f49f7333f9b2b5b5198940c6f494c04010a6f94f435a905ddc870327ae94e161d4bf5313d992959539a96026147420a0f04619afa3ba70bd3c67e3c74e740181345fb3f339727575d949800634540080d066398f839a509d1c47c3e76e5421a1147f93d319525555f969a066543460e0b00659efe3fa30fd7c27a3870e3441c1741ff3b3793235359909c046741440c0902679cfc3da10dd5c0783a72e1461e1543fd39359121515b929e0a694f4a02070c6992f233af03dbce76347cef48101b4df3373b9f2f5f559c90086b4d4800050e6b90f031ad01d9cc74367eed4a12194ff135399d2d5d579e920e6d4b4e0603086d96f637ab07dfca723078eb4c141f49f7333f9b2b5b5198940c6f494c04010a6f94f435a905ddc870327ae94e161d4bf5313d992959539a96026147420a0f04619afa3ba70bd3c67e3c74e740181345fb3f339727575d949800634540080d066398f839a509d1c47c3e76e5421a1147f93d319525555f969a066543460e0b00659efe3fa30fd7c27a3870e3441c1741ff3b3793235359909c046741440c0902679cfc3da10dd5c0783a72e1461e1543fd39359121515b929e0a694f4a02070c6992f233af03dbce763f8f92cc3c93780fc515a4b9b29a536a2945e498878bcd1698dbb5030f84e9ca1",
        "type": "nulldata"
      }
    }
  ],
  "blockhash": "2622e54cefe9d3081f6ac04e4c67f268d7c1e3313b2268ffede4439aafe1acd1",
  "confirmations": 1,
  "time": 1764177922,
  "blocktime": 1764177922
}