{
  "hex": "010000000001010ab5e1146582b115e3cbe67d13c24f669b83c03609adbe5cd55d9202bb78caca0000000000feffffff0200e1f50500000000fdd5046a20a5842d238ae92dd30d0b07f186af7ecb8f447edbf15a4038ae23a504e6140c664db004a36192b1948d5a7ac79b2512b29ecb86179e470f504355fa580036dff3d865308341b291b4ad7a5ae7bb053292beeba637be672f706375da782016ffd3f84510e321d2f1d4cd1a3a87db6552f2de8bc657de074f100315ba1840769fb3982570c301f2d1f4ed3a1aa7fb4572d2feabe677fe276f3023359a386056bf93b8055023e11231140ddafa471ba592321e4b06971ec78fd0c3d57ad880b65f7358e5b003c13211342dfada673b85b2123e6b26b73ee7aff0e3f55af8a0967f5378c59063a15271544d9aba075be5d2725e0b46d75e87cf9083953a98c0f61f3318a5f043817251746dba9a277bc5f2527e2b66f77ea7efb0a3b51ab8e0d63f133885d0a36192b1948d5a7ac79b2512b29ecb86179e470f504355fa580036dff3d865308341b291b4ad7a5ae7bb053292beeba637be672f706375da782016ffd3f84510e321d2f1d4cd1a3a87db6552f2de8bc657de074f100315ba1840769fb3982570c301f2d1f4ed3a1aa7fb4572d2feabe677fe276f3023359a386056bf93b8055023e11231140ddafa471ba592321e4b06971ec78fd0c3d57ad880b65f7358e5b003c13211342dfada673b85b2123e6b26b73ee7aff0e3f55af8a0967f5378c59063a15271544d9aba075be5d2725e0b46d75e87cf9083953a98c0f61f3318a5f043817251746dba9a277bc5f2527e2b66f77ea7efb0a3b51ab8e0d63f133885d0a36192b1948d5a7ac79b2512b29ecb86179e470f504355fa580036dff3d865308341b291b4ad7a5ae7bb053292beeba637be672f706375da782016ffd3f84510e321d2f1d4cd1a3a87db6552f2de8bc657de074f100315ba1840769fb3982570c301f2d1f4ed3a1aa7fb4572d2feabe677fe276f3023359a386056bf93b8055023e11231140ddafa471ba592321e4b06971ec78fd0c3d57ad880b65f7358e5b003c13211342dfada673b85b2123e6b26b73ee7aff0e3f55af8a0967f5378c59063a15271544d9aba075be5d2725e0b46d75e87cf9083953a98c0f61f3318a5f043817251746dba9a277bc5f2527e2b66f77ea7efb0a3b51ab8e0d63f133885d0a36192b1948d5a7ac79b2512b29ecb86179e470f504355fa580036dff3d865308341b291b4ad7a5ae7bb053292beeba637be672f706375da782016ffd3f84510e321d2f1d4cd1a3a87db6552f2de8bc657de074f100315ba1840769fb3982570c301f2d1f4ed3a1aa7fb4572d2feabe677fe276f3023359a386056bf93b8055023e11231140ddafa471ba592321e4b06971ec78fd0c3d57ad880b65f7358e5b003c13211342dfada673b85b2123e6b26b73ee7aff0e3f55af8a0967f5378c59063a15271544d9aba075be5d2725e0b46d75e87cf9083953a98c0f61f3318a5f043817251746dba9a277bc5f2527e2b66f77ea7efb0a3b51ab8e0d63f133885d0a36192b1948d5a7ac79b2512b29ecb86179e470f504355fa580036dff3d865308341b291b4ad7a5ae7bb053292beeba637be672f706375da782016ffd3f84510e321d2f1d4cd1a3a87db6552f2de8bc657de074f100315ba1840769fb3982570c301f2d1f4ed3a1aa7fb4572d2feabe677fe276f3023359a386056bf93b8055023e11231140ddafa471ba592321e4b06348baf4cc265130a439074880208ef564bc189e5a3958924302c644b727cf8916076a04b792d0000225120d1f2b6acbbbd8ed23bf34aa3bc01f3b99cb80105789bafa2ea25128dbbcf7b5f02fd75090d1d90a2a2532b6b5a99b8127f42ab30b937cb4ea6cd51345bfb734c1484cbd48f83c1aad8b223662064a21541a0cf4c45612c07b5480941ea94f2380ec7cee48faca93fc20c9f13446887b44f68ccb0add3875e25f6289ced3066f2b1577f11d3d8442dfca437b803dcd7f133f9fc06a47d25757c77a6d5f023603a6c930ef03056bde36d634c70a7dc9dc8f0d3d88ab2482b9aafed284dd0d72bc797e0bdf3792f69675ce93e119e09b6d667bab4c82cf0b22aba7958bce31b0bd35f79e49657ae1ddb6e88bb0e692bf9ae7c889fa6494730cd13ae973445d2288a7a8078619abc5020297395218d2b2c032c10727b887f5e0fc6b3be7ffdd69a0e702c6cd5091590f081279b26010d92368afa85ed2b75439b1d2cebfee38179744f80513b18356435220314f158237839a925bfe8750af0880b870db77c51fb243452e84514f09c02a58edbf0fc9b50fd523e83c2a81cff1e466dd12742b862edc91c7557473d929d08b54f3ba238c19cfbe4e3b39e5b5c1b4f742e477e9795a94715e6c70e8ceed930dd58815e0a760c5e74b2bcfb616cd58e4aba060ce3ca4d17e6d4770227b05fc99f2fba910d5fc5da2101d6cd56b694ba16bdee569edec21a6716310238c6a05dab6f56e91dd4c9a6d5922ea622ed7d94d7916f163a4bedc3c200a4f0abb2899e4c2800a1c953ea3c8813224a8202c2dc2e7fb68b9d98267e091eb2afe593a99e6f4a76bca0d47781ddebc01e03c0ccf00cce3420191ef8143e0dd56ebba146141c1f2f8a2db4e904c806f5aa10246ae0c5ddc3ae136805b08554717f10c3e0333dcf45c48c65f238069b89552b8095dd10828fdeb782dce676fd7e64b995ae2471f8cf6e0a366ec02725bb14b2b7c59ed09935608176ebbd622d7884339352e9c85cb798b72967427ae4812f0dd12bf1881fc0c16354cba06794c6f0b16cb7531ad605aa234ee47a3bbcb71e9f31158dde80c40e08fa65f6f2bbdce8d4c43f2619ab1a65b3563dfbe4b9b845c2f56995711cec7a13f41bde565e3e4e1db1b3446f4a50615e0fe2a6e0ef38c4e28ba8187ef724183537c75225902ffa82ccbd491d3008041099a044400aa0b9c9844e701b2c26e16f734e293d581af541e9d8e2d761ab3078da0ba879cec6aafa5f8d932b725f906ee51d446f21472f9874124256056040ecbd6443d880a49b6c241f0bfde650558f0dc1cc52261a90a9297239d2a120863b3835b1b4248ace5203abdf9a6b8768e65b3184a2267ffa523042a293b90346841035b61b2aec78ef4f7fce0c287e6b6b3f2e680c3e7f546629c7f0717af8992c699190dacb2429a579504f4839444579e8e967f4eb966d1394395157647c71df29373c5da8de7f96a5ecdb693b916ded08adf20620ed43cbd3eb0f205d9aed9b1ba46f64d63815fd4d2cc46f6043a11836b9e759d58ca7c92c4ac01fccd672bc6eae6b17bfc3bd688040f5759676788e03b75ae4a3686cc51772c91d6138d364870aef6c2597c6b6fed4fb35fe28ddf02955750d516e2c266e08fca36a067caea89ff4792fcc51334c7feb2b1c98028ce181ede0d37ad7f440df56d23cdb0012e5a38a46b7aa293349aa836108c8005a8db8b828c4d4d9e8c073f0484e486303cf6320629c236c81992a23e0c6a5e7d660f43c2e90ae80b35cf4851b031dd941ed4b57204a07c21700530b3807c0a6f36a56d2478637cef2756cf641010dbe8985907724da4286d18c90c3abac7ea06bd074bc8f7918d1d875ddec06a0f3f0e2dc458b8a15da21112e4471617ce1534f05ca7d1a2a7bd69227defea377cb4a93cc5e4fe2c3c85869c5567bc9dfc7bdecadb9e449197b10f63f78206b919a7ddad4360674a1589f6f76bfc29a6e9a0d6a38b449301b46bd22bedce6544f1376d05f0c0b1334e8fb68f1c461a23e95a6c5c5ca5c0044cca2db1f1734e361b4726b4d919b2febb7d7fb61bbaa218963bc36e6dea036dc4e6605736f293fbf8001c4b76d8529ff849f695c21e370dd9db9ac4617fcb20d795c9b163eb035bcbe4efc4f36baa76c78366c9ae09faf1e7ec26bf54143dd63f659effee417420be0bbf11d54a66a319235a4469ac0a798e9372e5a6b5f9fc75faf322d6cf8ebb2bb581ed0614b2c81795bd7fd6af5d41a86e5374bd380551015b71b79d05de10737927d0cbd62dfa8a9b7d1d6b44a75faf9f77157499c0887e9f50596aba7e9c675a062f75a40cfe02de393b86367d4ecf06722111dd01a3e6a7b62be8c30817d471b0d28c14bf63e00650bb9a211cbb418d7d79cb58f504c3e7b99264fe18311dda847e50fa6168d35807461328a3bf4af93d7cef6b2f811542ade6ffca67fa92f2f43e682a12783f404daed32509c6eb466814665236b97754b2d367eeedc8d2c3dc40cbe2b4e2ae46efdb67c07e1a466efb4e27c1814470dcfcae4f0fec42a798e8a6f07c0755d1054e4439907d6bd3ec1d9126c583f70e825474d5b551671cfc0f3eb423eed7f030518c77b5f54d01f4c4c77dfed93e3761175e9a44406bf24f9eda3a714a2d880f5a190ce275a7713974041dcb9f58edd7be8a6fad2f7e96846002b5812ccf16f600ddf55126fccb3f0d94757c1d9ae5cd07506c8151c1de26f249677f4f8c889fc0c5732a8b338e013a148990e08e65ca384dce7e560831a07b31dbfa3742565ca59940023f2ea1b874cf50479a9c899f293f5c8cc8c7d2d07e80ade7c59ce641f43adc7132a1056a04e6e20c5a8d4e01d8d0f231837a20509571c457ab0d8db51dceea74dfb0a5571b69bada765a2f587840ca73984d86e803e2526f5b3a0d0ffbd2d4e45d10b58cfa076eee4c37f52661d930f8eef4e05444997a7b4e10c269ba475e392c8f06ee9d18025a6599d9c1ce2fb4a341c2dc31cf19a2c445e7d4d0678ac39e77ec7679bbec80498edcc6e3fc799e921b870023959d6852812a3bf76302c59e5a1b88c2e1d2bf39dacfb5c4357ad1e9546b9179dab58ba171361fb27446f6af20a736d66947199024e5501222dbf91743d4323f6ae418934e4f489adc4a95168345dcc33f371b50a431acd64c3cf0cd04e49de3369fb21f575caaca59b10c26198b57df1930deb8b39e3cc050d29d5f48f285343b289cdfcbf72091d2c77dc6221650595f6dbae5602973ea280fe3676bc44593d0dfd5180ee664e96ab6a65324cb43eb2b92f1862eeb0e1154965d6960e8ee8a3ca3228831de04f8a6dcd28f78ff6afa578dcc6c3633862292993613cfc762a9530757948a2c0ead715ac1ea6ffc55d4af30234e9d39fff1f3a5b6a83869298b1c1cde408464a557080868b949badbae6eaf3f91d354065839a9eb8c5c6cfd2e3e4eafd0d1a223d4a7c879fc1d0e8f40000000000000000000000000000000000000000000000000c1c2c3801fd210500e24228a641784e0a9df0b640cbf80f57ba5aae6fe0eaecfdbd91d009b119397dfc04ef7d6e08c5a1926730afe04d9360532ee58f0202a9391829ada62ee9924bf40104100fa088e93fb4ff938a2f82f1b0914026e1e0dfcc9beec52baffebda0c1555ff67a84396ecaed7a908ff783d36c27262a7268398b2dada7e536b8422767c47b40c94aac5042b401eff61ac182d740ae427b071744aebeedc239457eae4231244e20339026685fbe7846e76fd15cbc47b263f55792e07fba879fae5dbaf5b0c4a0011182941c93b160659b5944fc36a615f81e5b1e8667ba654b0bf3f21b6862abc6b639be66c40aba3a2630bb589025b9fc6ee23278ea6acf622e33e77c62fb16361d993961d6d952c5504fda6bf5c27ced020c95e5d9ee76a30c21cb6abece35baa5c8e6a04d47f5286ed6da5c2eaabb5fae5ae1493f85f537276d9546dbe910a8e066ccca077be37abe96963b6223b6d173591a081949e091dcb91c9d9a30e8a01f67a4dc5690a2a496de72002b5421c9cb015ce81ee540989009aeea6a4f1e309cba5e1a9066a1cfca31105193d237fb622e9c615231a43617efaa2d65423d4d92d2e3dbfa68cb9a64f5b2d4961aa1f6031e147341bb0d539bf282a4a2d20d7c6e40862bc7444108167a22d3c1e3c16ec40e295c2d030badc09836390ea384875a19bf3503a2a182cae9e39a798ae0189895ce0096f4d9620fd17da5ebf288027930c887f8194383890995ccdc6ea9d84378433d72dffab731eed2b01e3bdf0971344213bd2378d4a59b49c59fcf9e2fa83247d6345e864f89c674b32f4630891bd7c8f139ccb33d816c716e64cc0516680ba0d060daad5475448c9fafd64d6cc4f5fe60a150ca7c086f1c55150ea7fe75284416242aa3e8802e449d71222085a2e3edb12d3ae9b9070045176f0aea56e18d517ce97d7d9ae4981377230ecbd45aac7f842a7fd04377e4c410b8c0abd1bf756c0f0c50532441590e76648da7041778a45e3a3083a8a980a96530394defdca8f3414f557a9cc47369887bb857de589e19a5f3fa151ce62648d731180f7d2342e948507ae60e9148c510476c348cc0cf0ae12d1420f74c22f9ba4da6545d4f27e459a5f29ab750c94c66eec83e84a2c33daeb0f98f8b1fd9f52316a95211e7f6e12ed3a55f9f1b371a30b11748ab88d18867f366a45c7c4a620a94972adb24cae8e2b610551ca0a9ef3380f2ad7d21462d9cc2e01a556d2d1fdcbdf76f815e8ab6ea5fe0fab41f8a0491630a24058fa2240114e85ba7037f2dcb3aeb71a5e6ee3f3d5915117a1a428b6a77eb6ea45916ab6c412ab270aac8daa4c53b62553627e185618911913ce508a02fe305af8687ec2a74f347ac6d5ae075567c87cf143ac6baa5fef6bd632225bd0da102a29bdea6414366c5a86928ee11789293cc544a29dcc21f740fd682f4ff684a0c196652ee90759fefc05969958ca6a96c3d58854750132df922b140bd5e62704d4e9c43e6056699973e8fc485ba304246c3e4d390a1bfa114d48c86a4c356e2cf013eee18b1e6ded4178dc7373dd75df854c1fe028b647a6d3073cb1cd9844a92e5659058d3b1f20908d731ab70c25a33962be3efa907cf1069bddf27c6a155570e0255b7293e0f02aa54007508b16b739489fd666e99093f31f61d4ce66b6510fb210a27001a8f9876107ea1fa5d0f76651793561d97a3d5c77e4fa0b69aad2a2ade499e8c30377c5e5aa46d65fe5be11de197a5deba2e2ea696175772e063e671de18b1f3c234fc68a5ec0c677ba4d7aae1e8e114c77647bf06b15be3b97eaaa923a91c3c12bfe3b02e32dc678e15941a3e6068a3ac34790e067f8328000000",
  "txid": "60ea89a09c5cf92ac4acac3f4f22c9eec52564ce28646da891ed618e313447c2",
  "hash": "d5457566dcd3d794d0f04f65a678c88514ab684cf5131e87b82b4654dc69cee3",
  "size": 5085,
  "vsize": 2278,
  "version": 1,
  "locktime": 40,
  "vin": [
    {
      "txid": "caca78bb02925dd55cbead0936c0839b664fc2137de6cbe315b1826514e1b50a",
      "vout": 0,
      "scriptSig": {
        "asm": "",
        "hex": ""
      },
      "txinwitness": [
        "0d1d90a2a2532b6b5a99b8127f42ab30b937cb4ea6cd51345bfb734c1484cbd48f83c1aad8b223662064a21541a0cf4c45612c07b5480941ea94f2380ec7cee48faca93fc20c9f13446887b44f68ccb0add3875e25f6289ced3066f2b1577f11d3d8442dfca437b803dcd7f133f9fc06a47d25757c77a6d5f023603a6c930ef03056bde36d634c70a7dc9dc8f0d3d88ab2482b9aafed284dd0d72bc797e0bdf3792f69675ce93e119e09b6d667bab4c82cf0b22aba7958bce31b0bd35f79e49657ae1ddb6e88bb0e692bf9ae7c889fa6494730cd13ae973445d2288a7a8078619abc5020297395218d2b2c032c10727b887f5e0fc6b3be7ffdd69a0e702c6cd5091590f081279b26010d92368afa85ed2b75439b1d2cebfee38179744f80513b18356435220314f158237839a925bfe8750af0880b870db77c51fb243452e84514f09c02a58edbf0fc9b50fd523e83c2a81cff1e466dd12742b862edc91c7557473d929d08b54f3ba238c19cfbe4e3b39e5b5c1b4f742e477e9795a94715e6c70e8ceed930dd58815e0a760c5e74b2bcfb616cd58e4aba060ce3ca4d17e6d4770227b05fc99f2fba910d5fc5da2101d6cd56b694ba16bdee569edec21a6716310238c6a05dab6f56e91dd4c9a6d5922ea622ed7d94d7916f163a4bedc3c200a4f0abb2899e4c2800a1c953ea3c8813224a8202c2dc2e7fb68b9d98267e091eb2afe593a99e6f4a76bca0d47781ddebc01e03c0ccf00cce3420191ef8143e0dd56ebba146141c1f2f8a2db4e904c806f5aa10246ae0c5ddc3ae136805b08554717f10c3e0333dcf45c48c65f238069b89552b8095dd10828fdeb782dce676fd7e64b995ae2471f8cf6e0a366ec02725bb14b2b7c59ed09935608176ebbd622d7884339352e9c85cb798b72967427ae4812f0dd12bf1881fc0c16354cba06794c6f0b16cb7531ad605aa234ee47a3bbcb71e9f31158dde80c40e08fa65f6f2bbdce8d4c43f2619ab1a65b3563dfbe4b9b845c2f56995711cec7a13f41bde565e3e4e1db1b3446f4a50615e0fe2a6e0ef38c4e28ba8187ef724183537c75225902ffa82ccbd491d3008041099a044400aa0b9c9844e701b2c26e16f734e293d581af541e9d8e2d761ab3078da0ba879cec6aafa5f8d932b725f906ee51d446f21472f9874124256056040ecbd6443d880a49b6c241f0bfde650558f0dc1cc52261a90a9297239d2a120863b3835b1b4248ace5203abdf9a6b8768e65b3184a2267ffa523042a293b90346841035b61b2aec78ef4f7fce0c287e6b6b3f2e680c3e7f546629c7f0717af8992c699190dacb2429a579504f4839444579e8e967f4eb966d1394395157647c71df29373c5da8de7f96a5ecdb693b916ded08adf20620ed43cbd3eb0f205d9aed9b1ba46f64d63815fd4d2cc46f6043a11836b9e759d58ca7c92c4ac01fccd672bc6eae6b17bfc3bd688040f5759676788e03b75ae4a3686cc51772c91d6138d364870aef6c2597c6b6fed4fb35fe28ddf02955750d516e2c266e08fca36a067caea89ff4792fcc51334c7feb2b1c98028ce181ede0d37ad7f440df56d23cdb0012e5a38a46b7aa293349aa836108c8005a8db8b828c4d4d9e8c073f0484e486303cf6320629c236c81992a23e0c6a5e7d660f43c2e90ae80b35cf4851b031dd941ed4b57204a07c21700530b3807c0a6f36a56d2478637cef2756cf641010dbe8985907724da4286d18c90c3abac7ea06bd074bc8f7918d1d875ddec06a0f3f0e2dc458b8a15da21112e4471617ce1534f05ca7d1a2a7bd69227defea377cb4a93cc5e4fe2c3c85869c5567bc9dfc7bdecadb9e449197b10f63f78206b919a7ddad4360674a1589f6f76bfc29a6e9a0d6a38b449301b46bd22bedce6544f1376d05f0c0b1334e8fb68f1c461a23e95a6c5c5ca5c0044cca2db1f1734e361b4726b4d919b2febb7d7fb61bbaa218963bc36e6dea036dc4e6605736f293fbf8001c4b76d8529ff849f695c21e370dd9db9ac4617fcb20d795c9b163eb035bcbe4efc4f36baa76c78366c9ae09faf1e7ec26bf54143dd63f659effee417420be0bbf11d54a66a319235a4469ac0a798e9372e5a6b5f9fc75faf322d6cf8ebb2bb581ed0614b2c81795bd7fd6af5d41a86e5374bd380551015b71b79d05de10737927d0cbd62dfa8a9b7d1d6b44a75faf9f77157499c0887e9f50596aba7e9c675a062f75a40cfe02de393b86367d4ecf06722111dd01a3e6a7b62be8c30817d471b0d28c14bf63e00650bb9a211cbb418d7d79cb58f504c3e7b99264fe18311dda847e50fa6168d35807461328a3bf4af93d7cef6b2f811542ade6ffca67fa92f2f43e682a12783f404daed32509c6eb466814665236b97754b2d367eeedc8d2c3dc40cbe2b4e2ae46efdb67c07e1a466efb4e27c1814470dcfcae4f0fec42a798e8a6f07c0755d1054e4439907d6bd3ec1d9126c583f70e825474d5b551671cfc0f3eb423eed7f030518c77b5f54d01f4c4c77dfed93e3761175e9a44406bf24f9eda3a714a2d880f5a190ce275a7713974041dcb9f58edd7be8a6fad2f7e96846002b5812ccf16f600ddf55126fccb3f0d94757c1d9ae5cd07506c8151c1de26f249677f4f8c889fc0c5732a8b338e013a148990e08e65ca384dce7e560831a07b31dbfa3742565ca59940023f2ea1b874cf50479a9c899f293f5c8cc8c7d2d07e80ade7c59ce641f43adc7132a1056a04e6e20c5a8d4e01d8d0f231837a20509571c457ab0d8db51dceea74dfb0a5571b69bada765a2f587840ca73984d86e803e2526f5b3a0d0ffbd2d4e45d10b58cfa076eee4c37f52661d930f8eef4e05444997a7b4e10c269ba475e392c8f06ee9d18025a6599d9c1ce2fb4a341c2dc31cf19a2c445e7d4d0678ac39e77ec7679bbec80498edcc6e3fc799e921b870023959d6852812a3bf76302c59e5a1b88c2e1d2bf39dacfb5c4357ad1e9546b9179dab58ba171361fb27446f6af20a736d66947199024e5501222dbf91743d4323f6ae418934e4f489adc4a95168345dcc33f371b50a431acd64c3cf0cd04e49de3369fb21f575caaca59b10c26198b57df1930deb8b39e3cc050d29d5f48f285343b289cdfcbf72091d2c77dc6221650595f6dbae5602973ea280fe3676bc44593d0dfd5180ee664e96ab6a65324cb43eb2b92f1862eeb0e1154965d6960e8ee8a3ca3228831de04f8a6dcd28f78ff6afa578dcc6c3633862292993613cfc762a9530757948a2c0ead715ac1ea6ffc55d4af30234e9d39fff1f3a5b6a83869298b1c1cde408464a557080868b949badbae6eaf3f91d354065839a9eb8c5c6cfd2e3e4eafd0d1a223d4a7c879fc1d0e8f40000000000000000000000000000000000000000000000000c1c2c3801",
        "00e24228a641784e0a9df0b640cbf80f57ba5aae6fe0eaecfdbd91d009b119397dfc04ef7d6e08c5a1926730afe04d9360532ee58f0202a9391829ada62ee9924bf40104100fa088e93fb4ff938a2f82f1b0914026e1e0dfcc9beec52baffebda0c1555ff67a84396ecaed7a908ff783d36c27262a7268398b2dada7e536b8422767c47b40c94aac5042b401eff61ac182d740ae427b071744aebeedc239457eae4231244e20339026685fbe7846e76fd15cbc47b263f55792e07fba879fae5dbaf5b0c4a0011182941c93b160659b5944fc36a615f81e5b1e8667ba654b0bf3f21b6862abc6b639be66c40aba3a2630bb589025b9fc6ee23278ea6acf622e33e77c62fb16361d993961d6d952c5504fda6bf5c27ced020c95e5d9ee76a30c21cb6abece35baa5c8e6a04d47f5286ed6da5c2eaabb5fae5ae1493f85f537276d9546dbe910a8e066ccca077be37abe96963b6223b6d173591a081949e091dcb91c9d9a30e8a01f67a4dc5690a2a496de72002b5421c9cb015ce81ee540989009aeea6a4f1e309cba5e1a9066a1cfca31105193d237fb622e9c615231a43617efaa2d65423d4d92d2e3dbfa68cb9a64f5b2d4961aa1f6031e147341bb0d539bf282a4a2d20d7c6e40862bc7444108167a22d3c1e3c16ec40e295c2d030badc09836390ea384875a19bf3503a2a182cae9e39a798ae0189895ce0096f4d9620fd17da5ebf288027930c887f8194383890995ccdc6ea9d84378433d72dffab731eed2b01e3bdf0971344213bd2378d4a59b49c59fcf9e2fa83247d6345e864f89c674b32f4630891bd7c8f139ccb33d816c716e64cc0516680ba0d060daad5475448c9fafd64d6cc4f5fe60a150ca7c086f1c55150ea7fe75284416242aa3e8802e449d71222085a2e3edb12d3ae9b9070045176f0aea56e18d517ce97d7d9ae4981377230ecbd45aac7f842a7fd04377e4c410b8c0abd1bf756c0f0c50532441590e76648da7041778a45e3a3083a8a980a96530394defdca8f3414f557a9cc47369887bb857de589e19a5f3fa151ce62648d731180f7d2342e948507ae60e9148c510476c348cc0cf0ae12d1420f74c22f9ba4da6545d4f27e459a5f29ab750c94c66eec83e84a2c33daeb0f98f8b1fd9f52316a95211e7f6e12ed3a55f9f1b371a30b11748ab88d18867f366a45c7c4a620a94972adb24cae8e2b610551ca0a9ef3380f2ad7d21462d9cc2e01a556d2d1fdcbdf76f815e8ab6ea5fe0fab41f8a0491630a24058fa2240114e85ba7037f2dcb3aeb71a5e6ee3f3d5915117a1a428b6a77eb6ea45916ab6c412ab270aac8daa4c53b62553627e185618911913ce508a02fe305af8687ec2a74f347ac6d5ae075567c87cf143ac6baa5fef6bd632225bd0da102a29bdea6414366c5a86928ee11789293cc544a29dcc21f740fd682f4ff684a0c196652ee90759fefc05969958ca6a96c3d58854750132df922b140bd5e62704d4e9c43e6056699973e8fc485ba304246c3e4d390a1bfa114d48c86a4c356e2cf013eee18b1e6ded4178dc7373dd75df854c1fe028b647a6d3073cb1cd9844a92e5659058d3b1f20908d731ab70c25a33962be3efa907cf1069bddf27c6a155570e0255b7293e0f02aa54007508b16b739489fd666e99093f31f61d4ce66b6510fb210a27001a8f9876107ea1fa5d0f76651793561d97a3d5c77e4fa0b69aad2a2ade499e8c30377c5e5aa46d65fe5be11de197a5deba2e2ea696175772e063e671de18b1f3c234fc68a5ec0c677ba4d7aae1e8e114c77647bf06b15be3b97eaaa923a91c3c12bfe3b02e32dc678e15941a3e6068a3ac34790e067f83"
      ],
      "sequence": 4294967294
    }
  ],
  "vout": [
    {
      "value": 1.0,
      "n": 0,
      "scriptPubKey": {
        "asm": "OP_RETURN a5842d238ae92dd30d0b07f186af7ecb8f447edbf15a4038ae23a504e6140c66 a36192b1948d5a7ac79b2512b29ecb86179e470f504355fa580036dff3d865308341b291b4ad7a5ae7bb053292beeba637be672f706375da782016ffd3f84510e321d2f1d4cd1a3a87db6552f2de8bc657de074f100315ba1840769fb3982570c301f2d1f4ed3a1aa7fb4572d2feabe677fe276f3023359a386056bf93b8055023e11231140ddafa471ba592321e4b06971ec78fd0c3d57ad880b65f7358e5b003c13211342dfada673b85b2123e6b26b73ee7aff0e3f55af8a0967f5378c59063a15271544d9aba075be5d2725e0b46d75e87cf9083953a98c0f61f3318a5f043817251746dba9a277bc5f2527e2b66f77ea7efb0a3b51ab8e0d63f133885d0a36192b1948d5a7ac79b2512b29ecb86179e470f504355fa580036dff3d865308341b291b4ad7a5ae7bb053292beeba637be672f706375da782016ffd3f84510e321d2f1d4cd1a3a87db6552f2de8bc657de074f100315ba1840769fb3982570c301f2d1f4ed3a1aa7fb4572d2feabe677fe276f3023359a386056bf93b8055023e11231140ddafa471ba592321e4b06971ec78fd0c3d57ad880b65f7358e5b003c13211342dfada673b85b2123e6b26b73ee7aff0e3f55af8a0967f5378c59063a15271544d9aba075be5d2725e0b46d75e87cf9083953a98c0f61f3318a5f043817251746dba9a277bc5f2527e2b66f77ea7efb0a3b51ab8e0d63f133885d0a36192b1948d5a7ac79b2512b29ecb86179e470f504355fa580036dff3d865308341b291b4ad7a5ae7bb053292beeba637be672f706375da782016ffd3f84510e321d2f1d4cd1a3a87db6552f2de8bc657de074f100315ba1840769fb3982570c301f2d1f4ed3a1aa7fb4572d2feabe677fe276f3023359a386056bf93b8055023e11231140ddafa471ba592321e4b06971ec78fd0c3d57ad880b65f7358e5b003c13211342dfada673b85b2123e6b26b73ee7aff0e3f55af8a0967f5378c59063a15271544d9aba075be5d2725e0b46d75e87cf9083953a98c0f61f3318a5f043817251746dba9a277bc5f2527e2b66f77ea7efb0a3b51ab8e0d63f133885d0a36192b1948d5a7ac79b2512b29ecb86179e470f504355fa580036dff3d865308341b291b4ad7a5ae7bb053292beeba637be672f706375da782016ffd3f84510e321d2f1d4cd1a3a87db6552f2de8bc657de074f100315ba1840769fb3982570c301f2d1f4ed3a1aa7fb4572d2feabe677fe276f3023359a386056bf93b8055023e11231140ddafa471ba592321e4b06971ec78fd0c3d57ad880b65f7358e5b003c13211342dfada673b85b2123e6b26b73ee7aff0e3f55af8a0967f5378c59063a15271544d9aba075be5d2725e0b46d75e87cf9083953a98c0f61f3318a5f043817251746dba9a277bc5f2527e2b66f77ea7efb0a3b51ab8e0d63f133885d0a36192b1948d5a7ac79b2512b29ecb86179e470f504355fa580036dff3d865308341b291b4ad7a5ae7bb053292beeba637be672f706375da782016ffd3f84510e321d2f1d4cd1a3a87db6552f2de8bc657de074f100315ba1840769fb3982570c301f2d1f4ed3a1aa7fb4572d2feabe677fe276f3023359a386056bf93b8055023e11231140ddafa471ba592321e4b06348baf4cc265130a439074880208ef564bc189e5a3958924302c644b727cf891",
        "hex": "6a20a5842d238ae92dd30d0b07f186af7ecb8f447edbf15a4038ae23a504e6140c664db004a36192b1948d5a7ac79b2512b29ecb86179e470f504355fa580036dff3d865308341b291b4ad7a5ae7bb053292beeba637be672f706375da782016ffd3f84510e321d2f1d4cd1a3a87db6552f2de8bc657de074f100315ba1840769fb3982570c301f2d1f4ed3a1aa7fb4572d2feabe677fe276f3023359a386056bf93b8055023e11231140ddafa471ba592321e4b06971ec78fd0c3d57ad880b65f7358e5b003c13211342dfada673b85b2123e6b26b73ee7aff0e3f55af8a0967f5378c59063a15271544d9aba075be5d2725e0b46d75e87cf9083953a98c0f61f3318a5f043817251746dba9a277bc5f2527e2b66f77ea7efb0a3b51ab8e0d63f133885d0a36192b1948d5a7ac79b2512b29ecb86179e470f504355fa580036dff3d865308341b291b4ad7a5ae7bb053292beeba637be672f706375da782016ffd3f84510e321d2f1d4cd1a3a87db6552f2de8bc657de074f100315ba1840769fb3982570c301f2d1f4ed3a1aa7fb4572d2feabe677fe276f3023359a386056bf93b8055023e11231140ddafa471ba592321e4b06971ec78fd0c3d57ad880b65f7358e5b003c13211342dfada673b85b2123e6b26b73ee7aff0e3f55af8a0967f5378c59063a15271544d9aba075be5d2725e0b46d75e87cf9083953a98c0f61f3318a5f043817251746dba9a277bc5f2527e2b66f77ea7efb0a3b51ab8e0d63f133885d0a36192b1948d5a7ac79b2512b29ecb86179e470f504355fa580036dff3d865308341b291b4ad7a5ae7bb053292beeba637be672f706375da782016ffd3f84510e321d2f1d4cd1a3a87db6552f2de8bc657de074f100315ba1840769fb3982570c301f2d1f4ed3a1aa7fb4572d2feabe677fe276f3023359a386056bf93b8055023e11231140ddafa471ba592321e4b06971ec78fd0c3d57ad880b65f7358e5b003c13211342dfada673b85b2123e6b26b73ee7aff0e3f55af8a0967f5378c59063a15271544d9aba075be5d2725e0b46d75e87cf9083953a98c0f61f3318a5f043817251746dba9a277bc5f2527e2b66f77ea7efb0a3b51ab8e0d63f133885d0a36192b1948d5a7ac79b2512b29ecb86179e470f504355fa580036dff3d865308341b291b4ad7a5ae7bb053292beeba637be672f706375da782016ffd3f84510e321d2f1d4cd1a3a87db6552f2de8bc657de074f100315ba1840769fb3982570c301f2d1f4ed3a1aa7fb4572d2feabe677fe276f3023359a386056bf93b8055023e11231140ddafa471ba592321e4b06971ec78fd0c3d57ad880b65f7358e5b003c13211342dfada673b85b2123e6b26b73ee7aff0e3f55af8a0967f5378c59063a15271544d9aba075be5d2725e0b46d75e87cf9083953a98c0f61f3318a5f043817251746dba9a277bc5f2527e2b66f77ea7efb0a3b51ab8e0d63f133885d0a36192b1948d5a7ac79b2512b29ecb86179e470f504355fa580036dff3d865308341b291b4ad7a5ae7bb053292beeba637be672f706375da782016ffd3f84510e321d2f1d4cd1a3a87db6552f2de8bc657de074f100315ba1840769fb3982570c301f2d1f4ed3a1aa7fb4572d2feabe677fe276f3023359a386056bf93b8055023e11231140ddafa471ba592321e4b06348baf4cc265130a439074880208ef564bc189e5a3958924302c644b727cf891",
        "type": "nulldata"
      }
    },
    {
      "value": 499989.831,
      "n": 1,
      "scriptPubKey": {
        "asm": "1 d1f2b6acbbbd8ed23bf34aa3bc01f3b99cb80105789bafa2ea25128dbbcf7b5f",
        "hex": "5120d1f2b6acbbbd8ed23bf34aa3bc01f3b99cb80105789bafa2ea25128dbbcf7b5f",
        "reqSigs": 1,
        "type": "witness_v1_scripthash",
        "addresses": [
          "3QJmnh"
        ]
      }
    }
  ],
  "blockhash": "fed18006ccdab590a9e00afae0c126c0756e5b686d02c0375b028c4c6af5cb31",
  "confirmations": 1,
  "time": 1764177489,
  "blocktime": 1764177489
}