{
  "hex": "010000000001014b414a186a98c72125c5e503f7d9c7b6ef44a9eec835fe765fcb13ce6dd0d8ce0000000000feffffff0200e1f50500000000fdd5046a20749fbcf006e5c518486c8f02fd29354c989a16d465a4824043983498b4bc70434db004d1e19a77ad2129a66bc4e4561bdcc0cdd6ec8e038a71a8b82f8da4ded4e7542ff1c1ba578d0109864be4c4763bfce0edf6ccae23aa5188980fad84fef4c7740f91a1da37ed6169e62b84a4165b9c808d96acce43ca31e8f86fcde49e94a7146fb181fa17cd4149c60ba484367bbca0adb68cee63ea11c8d84fedc4beb487344f51611af72da1a926eb4464d69b5c404d566c0e830af12838af0d245e5467d4af71413ad70d818906cb6444f6bb7c606d764c2ea32ad108188f2d047e7447f48f11215ab76de1e966ab042496db1c000d162c4ec34ab16878ef4d641e142794ef31017a974dc1c9468b2404b6fb3c202d360c6ee36a914858cf6d443e3407b4cfd1e19a77ad2129a66bc4e4561bdcc0cdd6ec8e038a71a8b82f8da4ded4e7542ff1c1ba578d0109864be4c4763bfce0edf6ccae23aa5188980fad84fef4c7740f91a1da37ed6169e62b84a4165b9c808d96acce43ca31e8f86fcde49e94a7146fb181fa17cd4149c60ba484367bbca0adb68cee63ea11c8d84fedc4beb487344f51611af72da1a926eb4464d69b5c404d566c0e830af12838af0d245e5467d4af71413ad70d818906cb6444f6bb7c606d764c2ea32ad108188f2d047e7447f48f11215ab76de1e966ab042496db1c000d162c4ec34ab16878ef4d641e142794ef31017a974dc1c9468b2404b6fb3c202d360c6ee36a914858cf6d443e3407b4cfd1e19a77ad2129a66bc4e4561bdcc0cdd6ec8e038a71a8b82f8da4ded4e7542ff1c1ba578d0109864be4c4763bfce0edf6ccae23aa5188980fad84fef4c7740f91a1da37ed6169e62b84a4165b9c808d96acce43ca31e8f86fcde49e94a7146fb181fa17cd4149c60ba484367bbca0adb68cee63ea11c8d84fedc4beb487344f51611af72da1a926eb4464d69b5c404d566c0e830af12838af0d245e5467d4af71413ad70d818906cb6444f6bb7c606d764c2ea32ad108188f2d047e7447f48f11215ab76de1e966ab042496db1c000d162c4ec34ab16878ef4d641e142794ef31017a974dc1c9468b2404b6fb3c202d360c6ee36a914858cf6d443e3407b4cfd1e19a77ad2129a66bc4e4561bdcc0cdd6ec8e038a71a8b82f8da4ded4e7542ff1c1ba578d0109864be4c4763bfce0edf6ccae23aa5188980fad84fef4c7740f91a1da37ed6169e62b84a4165b9c808d96acce43ca31e8f86fcde49e94a7146fb181fa17cd4149c60ba484367bbca0adb68cee63ea11c8d84fedc4beb487344f51611af72da1a926eb4464d69b5c404d566c0e830af12838af0d245e5467d4af71413ad70d818906cb6444f6bb7c606d764c2ea32ad108188f2d047e7447f48f11215ab76de1e966ab042496db1c000d162c4ec34ab16878ef4d641e142794ef31017a974dc1c9468b2404b6fb3c202d360c6ee36a914858cf6d443e3407b4cfd1e19a77ad2129a66bc4e4561bdcc0cdd6ec8e038a71a8b82f8da4ded4e7542ff1c1ba578d0109864be4c4763bfce0edf6ccae23aa5188980fad84fef4c7740f91a1da37ed6169e62b84a4165b9c808d96acce43ca31e8f86fcde49e94a7146fb181fa17cd4149c60ba484367bbca0adb68cee63ea11c8d84fedc4beb487344f51611af72da1a926eb4464d69b5c404de3aa6481cc0f9620666809b18da2cb20df99a35d92ccef2a129a4a7958345bb23079f9a7782d00002251205e6735b85048930272471b6a557540244dfff62bd0958d8db487fa44e3180d3b02fd75096a596d42f1165913043d9de67f99a66a462d62c0fafcc9ce2ac000775661c8985f4b9ba82166d19d3fa2e89564be9dfbf107e021ea54da04d5ecac1e9e757aab246464ab076be74ea01e3d0623f6ddf158621314d3b361ebda3128134e90220c473a819b090162ddb04169a52d748bc3043e695f32794da2b4713acd3de9525e38320b4a77d3a7b4111dd24fbb143d4020557dff4e562fbace45977083153cde863fd01adf637e3cf4e9ced651e55a86047774fcbbea60fae7e072da3d3b6ee93813b1d6d2de76737c0cef72497209ed577239006290ee83c6dd529af0477bd18034bf4d0491ae6c5c49940a7edc087689ea5e914ca0e40a0f8f9c36a026ea7eafad64fa0396bf4d01098a7f2ffccf227c84fe2e06b69e6ae1926289949a840c7f073d17da48d94b5c741dc4f12677ef1032d9567bd1e881261e024af7d92a58b830290805f6cf0c795b04589123b9b52c956d1bf8e0ed0eb12c1d6321e3d014370f138990d987ae77b63a28c99a3c3aab87b034939b3a7f95a6a6ab5ad779636c66ace2b927775a5a0ff311a37967cd0b779b1a96c101ba097edae50aae6c865e0121a6f4a8008fe8f664486215b8f7ecaec998d5ba99c7a99fbd0c51fed9daab84b61172377bc5093f5cf900d4a790ade0b3e6654d63fc38c16f3ccbd52cffd1d8b2ca7591cfabcaf0edaafe775028e2bb8133adeb3db8504a87f7e5110822452e5450bdbd4ea10c60a4d22cdd5138fdcfefb1daa020555d4fa528aa44b6bf94a5cf2d0b589e85fc336d633a19a788e97f43936e162098be66611be8e13c72bce7dcc525fdd1f43162080197170e2133fd2d4b344b0254ae91f04441385635744652f85ffbe8ece4e505428bcf2386a82851178f6cd1debecce87af3a90b9b37223fccc3c126aea2b319ce7c4d3952d39b6a9235e194fafc0bc499a29fdd2c9de7fd90dc0f0a3d2aea71b398777719397b3a41a9c0c47af822e7f4769a00ac8a3a8f0971c84f18309254e202ed91d37e3e12bf492963a61fe38676480b02b25f957322d333cc3fd322a41a106ed176af5bf32043a7872bb0d2e87e16206bd2575723d85cd36b92a84a5b74bd97bd45e4964a4c42fd4c83330b6552a17859f4d2bc638538fe372dac86417833c0a5a9d3f6e28d7cb09ee12d2d2a46d72031bc368b660acb858894f6704c4feafa482ddf29772d3fe0b839e3ccc01154a35098d99741808e9297f07c6fa3f318ab8d2c96cf80a8344d629b94a4db14afd6beea679f3ff677556a6127f82d1cd3502d3bb638d9380cdc77d1fa4a0dcaf38628be2b98127778fe82bd20d2271b8484af65956a07bcedfacabd338fd6b0007095da959911b1f30a0e6ff19ce999141b022a31750356f519a70d3f82539cbb2c4adf584ecc35e9b977589156a89cdc04baaa0704bdefb80f19339bb5fee44ac3c652f097bb15c53ba1db9177ad630b3a6e11d05eb57297e6778bd7a94968a4a055582bf05091e26d8e1401bfe5e4c778498a942de0c0927baceb7cb0decbbc6fbd16428dae11f80f095f70e28549670b049cd10157b61211708c304c673a7b9323bb7b698c4adfbb5a46198e049454e8849bc50dfcc1329aebc0dd3909b6dc0cb60974719ba1f1a84fadefddf61f1c74ba175e5d943a6f2f19067afa073d7f5f94950ae34579003e56929736c50e52ec8fe6a0e96576af799b582e2cc8da29521a4e8c5ced53e300922befd6301d41d8d4bfd32112bbcf50e0e59f9f708416cffc852538531a1e8ed98bcfe13c001a76bcbc194d9e2f85f6babd5646f5f4d5f8ae38511b4eaa93b6c8d33b5f519310e0f868635b55bb83a567dc5e9a7643c02fce57ba9f550c55013bd998bb3f7c01eebc1a94784805a9620ad4f2e5cd5e56fc4fe943d9165ada7b6e84f7ae9672da06cd5190de5d9ce737782a60dceca08841369296f8045e801594acf7e11ef2342f75b65329b9681232b15643cec6f37bd135248a4eb704b8815709ca630b035d5b9048b0745847d3e9cc97cfca7f429ecee761ce53d9541fc4dfffdb714dde9aa9bcbf9c6b8bd8f430d964dc8104b99170338789652a70ea73a8762d63814e9ed5d541fb77802e6f55d5914af0a34c54ee2c38e5d7ee707becfc772624009127c43d5cab53db17c73e5f76b4678f7fdd6117a1ab1d75d3aedea107702dac865220dc838fb465cee98a4fe452922985c77499addc4eb088db6b81e02c4d1a45b9c16a1e6755f6aa48a7e39df1ec2e198bd6e108a0c2e53d8ee941a37ed39f5c06b0453cc703ea3f5010e75957097f4eba7d79244aa6d78808784bba2c6afb6cb791fff6b2e89b0c6d2b385ed5ded8e7770bcb214cc4a9393bf96cd5d2a6839629baaa3950deb92148385da0d06cdfdc91e17b18ce8e4dc0094dc95b0fefbc61908422d9687649aa47e6c368c88adcd30356f930db6c959da500d3dff831a9a00b73d21cdcd1738685c3175fb2cd183ace1cb06f89452e9a0e1726554d59cab2f8d6970bf3296ba6e74f73ae00fd5e98d14527af9deca6f9db56dbf63f873ba751128accb4a4d0bce8fe2e975e8f7702a302be793c0613eed122005f357a8f3f251d59b81e7ad59b045f892c6e13ed62f5a99b893458812d6b77d00397164f4fd4ca4fa35026779aa8233ff54ce48d40440c598c83dbaa60f6527d60d9b44be928e5b5ccfbae5495efa73d79e927afca13de4f84f1a378fd0cd84dfd8f767757d45bdb4aea6486985ad8609547be03613f71522557ecd734574491830d0f9e306c13dbf79e7d944d42e6f6246f28b6aadb813a37534a76c298ccea6dabec017c186b7987d6a23d349df5b8f178942cc3a3b8229c777b1aa4e3ee26c2d652a29b644011269a968b97f2b175935119d99b8544d6115f17ffa85b23e6fffca9317acb2ac323030df32258aa87a7e72b3bc44260df1eabb4947d1c99b3706b531e6812db047e489e70e05f15be246f4b5e3b1f4f7f0e82e1183a28ad3856139f598c9e5eb3850f6ab619e2cbfb142f2bc6cf75865896ca429c6e619d5efc5f0b1ab99178715788a413e9060fa6ca1b2c3b1bb2eaf220b7e39e7b1490e49adb63774dbd51eb227f701dd6fb90e42aa25fefc6d9fa7512870e0f1ca3432637ef8f8ce84d8f2ddf6e1196f6dc7d7eaab79bd95de9cb7a5b988a5279b2f07af1bdf9b8c00ecab077bf8b7bd416b68fe3ec0c8eaf88f55ba4a0a63ca202283f2ed98fd40768db0b22ac1929230d6a5d074a0c5621dfec16455b10c9570f2f7ad43a4b05625483739e503e50afb1b1763e70bcb4978825982e15232b3f51646a6c7f9093c6dfeef8fb2a35bfc7dedf1553686f71a9b0b4b7d5eaee09354b4d50517a7c898b9eb8c6ccd3e9f0f3f5f800000000000000000000000000000000000000000000000000001016223601fd210500da268b7015081e098f2aca1e8bbacdb4fdefa265f0fa360e27e039edc5b181bceeae2151028ab4782eb67ae8559f178b69eb5bf99e1cf9d28c1d8dc8690e51b31e01f46d64135f93c90265305d8e2b3a9bb0d97b3f27fb6e1795a236ba9f820625cea22fea92d85b5300969e44fdbbac1dd44f4e7502891083ed33d56a3e379cb7fe083840d0014511d602eac2a6896952db8a20e48c743cf18017c03fa564b8b5b2e7b97368d782661ea9537098effb730e83776904a09e5f7e105162997388ab2d0e098bb36e3b1da0cf03832774e755cc849941e5587908fbf521682deca094e66b92ca92fb5d646171e322303af1030f1163190373c7b7aefb840169898ca5613433b788e3e8c481457862aa54eb72e61156ad2ff74b0a3b9f4c0b1259115b4535a7b7525e553cfb10fe3ab1bf2381f8935b8ab04fa269f35e31e2ac836eeb64ce6cfb7030d35416ecea72f343a04015d6d5987b04f3b1f021f32933f77aca9be757f0c2044b3d1a24c6bd417679fbb087fa80c2db086526fad605b51b9acefb66469f29e151a8bed9f0b8f85b714786daeadada3e021b8c35019c73726e924eef37469e2a4c4de32545a633c6263a3dd4bf876ba1b25ae91f83ed9c8b07ee1198e9bb0cfc08128c016fa7d3e3fd530421246d689004e47ce836f4be41c51ef87317be2f49357ffe9a62ef6d3a2930998c14f4dcbbdcbd1d90aabbb0661381a4cca6639f4da8a4501c1476631c9404e0dfc1cf1d57bdbc3ffc5a320e82ef9ec4fad5a58ddc48514bffc77b41de5d2aca2f9b33dceee3223be7086351d6d4027b8a0695673e57287012d4e61537708533db2985bd7db761b3a8d9317cfc2c0b2eeb6f445bf76f20d54fb52ce0428fd8e9f02d3b7db9135044d3c1f8f219aeeb1ea20ef597fd41fbb1b8ee63cec3f5e688d1a833423c15b4c7a16e011ec462af043be0c3c29e68cfedeb16b9ea0b1744ba4e46d40359d023e242a98969a95e21269c12f024a2fd15bd9e75cb78702d9c31cd947bac631f69ddaaefadd86c4af971558b6dc3dd5f8630f03dfb654809e74dc125e6a9edd1e07345cd6f7013ff730bc57b185af6d63d064c2bc1c4e100f4809cad15cab89f4aca2538e4ddd891862e71932742b1b2c7b867bfe49486f1fb4a4ef3275bb63ecf8c7ac9b8c70cd5f7710b89e8599be46117bb22a8aa1249a003c1ccac4d6b3321032845ac0092c4b82368b3043e46866acafe83baacad7ea0b932dbb9184109432f1941c97edb3e63c1138085bee09de3d81b26a18b5dc0aabd0c2de1d7db5c4cb494c79329fc89237f0c650e3276feb39637c33d0ffd55b6db5afcf3968b91b90b0efac05d388bfee4f8235fc5854ce5f278c2308465b6f14d4509bf3b34073cb5ff6ffd5dbab78932b3d1f196e29e75c9d178bb01961017759b00cbe38023642690ebc834b0ef74b52468d1f787e54810afe07c5053340314b7ae1f8b570d5dfbab88821d7951e1a03d65197b7062e06490949d27193fc9321edde9b7a54176f591dbb905e6dbedad7a185772262314e1b0a8a69633e84cbe12d58b21e84b6e2b0c52a46cf5c3e29913386b2bb5489f13b25410e9268aa2eeaa7ec7fd4a671d19e4eba03d1bc214d8fe42385ba01cb43d9b0b78ba69cb1dfec54691a66a133d9dc054ca9e24893622122c32fea4d3218b1bb452f28dd3c99fe5b9beae18fb8e37d6d3f79886a7b6279aecaae52f24e03b776be0f985f2cd187037e0ab35663d685c00c676f98038f0a8cec5ef32cb103b83ef470ba952d2ca00026c6c782ffdffb0589383b523e5d06ad33ac5447e34b3d31eaede53d6d433f8baccb38b75f4168c9f054b042c29000000",
  "txid": "675fef8295a558f30285c7c264eb663d3ebf0375b5c71f58a483618b5540bf2a",
  "hash": "0bfe601f44468250fa4dc24097d32478a7f29ef3f17050ddd1754b5061eea43a",
  "size": 5085,
  "vsize": 2278,
  "version": 1,
  "locktime": 41,
  "vin": [
    {
      "txid": "ced8d06dce13cb5f76fe35c8eea944efb6c7d9f703e5c52521c7986a184a414b",
      "vout": 0,
      "scriptSig": {
        "asm": "",
        "hex": ""
      },
      "txinwitness": [
        "6a596d42f1165913043d9de67f99a66a462d62c0fafcc9ce2ac000775661c8985f4b9ba82166d19d3fa2e89564be9dfbf107e021ea54da04d5ecac1e9e757aab246464ab076be74ea01e3d0623f6ddf158621314d3b361ebda3128134e90220c473a819b090162ddb04169a52d748bc3043e695f32794da2b4713acd3de9525e38320b4a77d3a7b4111dd24fbb143d4020557dff4e562fbace45977083153cde863fd01adf637e3cf4e9ced651e55a86047774fcbbea60fae7e072da3d3b6ee93813b1d6d2de76737c0cef72497209ed577239006290ee83c6dd529af0477bd18034bf4d0491ae6c5c49940a7edc087689ea5e914ca0e40a0f8f9c36a026ea7eafad64fa0396bf4d01098a7f2ffccf227c84fe2e06b69e6ae1926289949a840c7f073d17da48d94b5c741dc4f12677ef1032d9567bd1e881261e024af7d92a58b830290805f6cf0c795b04589123b9b52c956d1bf8e0ed0eb12c1d6321e3d014370f138990d987ae77b63a28c99a3c3aab87b034939b3a7f95a6a6ab5ad779636c66ace2b927775a5a0ff311a37967cd0b779b1a96c101ba097edae50aae6c865e0121a6f4a8008fe8f664486215b8f7ecaec998d5ba99c7a99fbd0c51fed9daab84b61172377bc5093f5cf900d4a790ade0b3e6654d63fc38c16f3ccbd52cffd1d8b2ca7591cfabcaf0edaafe775028e2bb8133adeb3db8504a87f7e5110822452e5450bdbd4ea10c60a4d22cdd5138fdcfefb1daa020555d4fa528aa44b6bf94a5cf2d0b589e85fc336d633a19a788e97f43936e162098be66611be8e13c72bce7dcc525fdd1f43162080197170e2133fd2d4b344b0254ae91f04441385635744652f85ffbe8ece4e505428bcf2386a82851178f6cd1debecce87af3a90b9b37223fccc3c126aea2b319ce7c4d3952d39b6a9235e194fafc0bc499a29fdd2c9de7fd90dc0f0a3d2aea71b398777719397b3a41a9c0c47af822e7f4769a00ac8a3a8f0971c84f18309254e202ed91d37e3e12bf492963a61fe38676480b02b25f957322d333cc3fd322a41a106ed176af5bf32043a7872bb0d2e87e16206bd2575723d85cd36b92a84a5b74bd97bd45e4964a4c42fd4c83330b6552a17859f4d2bc638538fe372dac86417833c0a5a9d3f6e28d7cb09ee12d2d2a46d72031bc368b660acb858894f6704c4feafa482ddf29772d3fe0b839e3ccc01154a35098d99741808e9297f07c6fa3f318ab8d2c96cf80a8344d629b94a4db14afd6beea679f3ff677556a6127f82d1cd3502d3bb638d9380cdc77d1fa4a0dcaf38628be2b98127778fe82bd20d2271b8484af65956a07bcedfacabd338fd6b0007095da959911b1f30a0e6ff19ce999141b022a31750356f519a70d3f82539cbb2c4adf584ecc35e9b977589156a89cdc04baaa0704bdefb80f19339bb5fee44ac3c652f097bb15c53ba1db9177ad630b3a6e11d05eb57297e6778bd7a94968a4a055582bf05091e26d8e1401bfe5e4c778498a942de0c0927baceb7cb0decbbc6fbd16428dae11f80f095f70e28549670b049cd10157b61211708c304c673a7b9323bb7b698c4adfbb5a46198e049454e8849bc50dfcc1329aebc0dd3909b6dc0cb60974719ba1f1a84fadefddf61f1c74ba175e5d943a6f2f19067afa073d7f5f94950ae34579003e56929736c50e52ec8fe6a0e96576af799b582e2cc8da29521a4e8c5ced53e300922befd6301d41d8d4bfd32112bbcf50e0e59f9f708416cffc852538531a1e8ed98bcfe13c001a76bcbc194d9e2f85f6babd5646f5f4d5f8ae38511b4eaa93b6c8d33b5f519310e0f868635b55bb83a567dc5e9a7643c02fce57ba9f550c55013bd998bb3f7c01eebc1a94784805a9620ad4f2e5cd5e56fc4fe943d9165ada7b6e84f7ae9672da06cd5190de5d9ce737782a60dceca08841369296f8045e801594acf7e11ef2342f75b65329b9681232b15643cec6f37bd135248a4eb704b8815709ca630b035d5b9048b0745847d3e9cc97cfca7f429ecee761ce53d9541fc4dfffdb714dde9aa9bcbf9c6b8bd8f430d964dc8104b99170338789652a70ea73a8762d63814e9ed5d541fb77802e6f55d5914af0a34c54ee2c38e5d7ee707becfc772624009127c43d5cab53db17c73e5f76b4678f7fdd6117a1ab1d75d3aedea107702dac865220dc838fb465cee98a4fe452922985c77499addc4eb088db6b81e02c4d1a45b9c16a1e6755f6aa48a7e39df1ec2e198bd6e108a0c2e53d8ee941a37ed39f5c06b0453cc703ea3f5010e75957097f4eba7d79244aa6d78808784bba2c6afb6cb791fff6b2e89b0c6d2b385ed5ded8e7770bcb214cc4a9393bf96cd5d2a6839629baaa3950deb92148385da0d06cdfdc91e17b18ce8e4dc0094dc95b0fefbc61908422d9687649aa47e6c368c88adcd30356f930db6c959da500d3dff831a9a00b73d21cdcd1738685c3175fb2cd183ace1cb06f89452e9a0e1726554d59cab2f8d6970bf3296ba6e74f73ae00fd5e98d14527af9deca6f9db56dbf63f873ba751128accb4a4d0bce8fe2e975e8f7702a302be793c0613eed122005f357a8f3f251d59b81e7ad59b045f892c6e13ed62f5a99b893458812d6b77d00397164f4fd4ca4fa35026779aa8233ff54ce48d40440c598c83dbaa60f6527d60d9b44be928e5b5ccfbae5495efa73d79e927afca13de4f84f1a378fd0cd84dfd8f767757d45bdb4aea6486985ad8609547be03613f71522557ecd734574491830d0f9e306c13dbf79e7d944d42e6f6246f28b6aadb813a37534a76c298ccea6dabec017c186b7987d6a23d349df5b8f178942cc3a3b8229c777b1aa4e3ee26c2d652a29b644011269a968b97f2b175935119d99b8544d6115f17ffa85b23e6fffca9317acb2ac323030df32258aa87a7e72b3bc44260df1eabb4947d1c99b3706b531e6812db047e489e70e05f15be246f4b5e3b1f4f7f0e82e1183a28ad3856139f598c9e5eb3850f6ab619e2cbfb142f2bc6cf75865896ca429c6e619d5efc5f0b1ab99178715788a413e9060fa6ca1b2c3b1bb2eaf220b7e39e7b1490e49adb63774dbd51eb227f701dd6fb90e42aa25fefc6d9fa7512870e0f1ca3432637ef8f8ce84d8f2ddf6e1196f6dc7d7eaab79bd95de9cb7a5b988a5279b2f07af1bdf9b8c00ecab077bf8b7bd416b68fe3ec0c8eaf88f55ba4a0a63ca202283f2ed98fd40768db0b22ac1929230d6a5d074a0c5621dfec16455b10c9570f2f7ad43a4b05625483739e503e50afb1b1763e70bcb4978825982e15232b3f51646a6c7f9093c6dfeef8fb2a35bfc7dedf1553686f71a9b0b4b7d5eaee09354b4d50517a7c898b9eb8c6ccd3e9f0f3f5f800000000000000000000000000000000000000000000000000001016223601",
        "00da268b7015081e098f2aca1e8bbacdb4fdefa265f0fa360e27e039edc5b181bceeae2151028ab4782eb67ae8559f178b69eb5bf99e1cf9d28c1d8dc8690e51b31e01f46d64135f93c90265305d8e2b3a9bb0d97b3f27fb6e1795a236ba9f820625cea22fea92d85b5300969e44fdbbac1dd44f4e7502891083ed33d56a3e379cb7fe083840d0014511d602eac2a6896952db8a20e48c743cf18017c03fa564b8b5b2e7b97368d782661ea9537098effb730e83776904a09e5f7e105162997388ab2d0e098bb36e3b1da0cf03832774e755cc849941e5587908fbf521682deca094e66b92ca92fb5d646171e322303af1030f1163190373c7b7aefb840169898ca5613433b788e3e8c481457862aa54eb72e61156ad2ff74b0a3b9f4c0b1259115b4535a7b7525e553cfb10fe3ab1bf2381f8935b8ab04fa269f35e31e2ac836eeb64ce6cfb7030d35416ecea72f343a04015d6d5987b04f3b1f021f32933f77aca9be757f0c2044b3d1a24c6bd417679fbb087fa80c2db086526fad605b51b9acefb66469f29e151a8bed9f0b8f85b714786daeadada3e021b8c35019c73726e924eef37469e2a4c4de32545a633c6263a3dd4bf876ba1b25ae91f83ed9c8b07ee1198e9bb0cfc08128c016fa7d3e3fd530421246d689004e47ce836f4be41c51ef87317be2f49357ffe9a62ef6d3a2930998c14f4dcbbdcbd1d90aabbb0661381a4cca6639f4da8a4501c1476631c9404e0dfc1cf1d57bdbc3ffc5a320e82ef9ec4fad5a58ddc48514bffc77b41de5d2aca2f9b33dceee3223be7086351d6d4027b8a0695673e57287012d4e61537708533db2985bd7db761b3a8d9317cfc2c0b2eeb6f445bf76f20d54fb52ce0428fd8e9f02d3b7db9135044d3c1f8f219aeeb1ea20ef597fd41fbb1b8ee63cec3f5e688d1a833423c15b4c7a16e011ec462af043be0c3c29e68cfedeb16b9ea0b1744ba4e46d40359d023e242a98969a95e21269c12f024a2fd15bd9e75cb78702d9c31cd947bac631f69ddaaefadd86c4af971558b6dc3dd5f8630f03dfb654809e74dc125e6a9edd1e07345cd6f7013ff730bc57b185af6d63d064c2bc1c4e100f4809cad15cab89f4aca2538e4ddd891862e71932742b1b2c7b867bfe49486f1fb4a4ef3275bb63ecf8c7ac9b8c70cd5f7710b89e8599be46117bb22a8aa1249a003c1ccac4d6b3321032845ac0092c4b82368b3043e46866acafe83baacad7ea0b932dbb9184109432f1941c97edb3e63c1138085bee09de3d81b26a18b5dc0aabd0c2de1d7db5c4cb494c79329fc89237f0c650e3276feb39637c33d0ffd55b6db5afcf3968b91b90b0efac05d388bfee4f8235fc5854ce5f278c2308465b6f14d4509bf3b34073cb5ff6ffd5dbab78932b3d1f196e29e75c9d178bb01961017759b00cbe38023642690ebc834b0ef74b52468d1f787e54810afe07c5053340314b7ae1f8b570d5dfbab88821d7951e1a03d65197b7062e06490949d27193fc9321edde9b7a54176f591dbb905e6dbedad7a185772262314e1b0a8a69633e84cbe12d58b21e84b6e2b0c52a46cf5c3e29913386b2bb5489f13b25410e9268aa2eeaa7ec7fd4a671d19e4eba03d1bc214d8fe42385ba01cb43d9b0b78ba69cb1dfec54691a66a133d9dc054ca9e24893622122c32fea4d3218b1bb452f28dd3c99fe5b9beae18fb8e37d6d3f79886a7b6279aecaae52f24e03b776be0f985f2cd187037e0ab35663d685c00c676f98038f0a8cec5ef32cb103b83ef470ba952d2ca00026c6c782ffdffb0589383b523e5d06ad33ac5447e34b3d31eaede53d6d433f8baccb38b75f4168c9f054b042c"
      ],
      "sequence": 4294967294
    }
  ],
  "vout": [
    {
      "value": 1.0,
      "n": 0,
      "scriptPubKey": {
        "asm": "OP_RETURN 749fbcf006e5c518486c8f02fd29354c989a16d465a4824043983498b4bc7043 d1e19a77ad2129a66bc4e4561bdcc0cdd6ec8e038a71a8b82f8da4ded4e7542ff1c1ba578d0109864be4c4763bfce0edf6ccae23aa5188980fad84fef4c7740f91a1da37ed6169e62b84a4165b9c808d96acce43ca31e8f86fcde49e94a7146fb181fa17cd4149c60ba484367bbca0adb68cee63ea11c8d84fedc4beb487344f51611af72da1a926eb4464d69b5c404d566c0e830af12838af0d245e5467d4af71413ad70d818906cb6444f6bb7c606d764c2ea32ad108188f2d047e7447f48f11215ab76de1e966ab042496db1c000d162c4ec34ab16878ef4d641e142794ef31017a974dc1c9468b2404b6fb3c202d360c6ee36a914858cf6d443e3407b4cfd1e19a77ad2129a66bc4e4561bdcc0cdd6ec8e038a71a8b82f8da4ded4e7542ff1c1ba578d0109864be4c4763bfce0edf6ccae23aa5188980fad84fef4c7740f91a1da37ed6169e62b84a4165b9c808d96acce43ca31e8f86fcde49e94a7146fb181fa17cd4149c60ba484367bbca0adb68cee63ea11c8d84fedc4beb487344f51611af72da1a926eb4464d69b5c404d566c0e830af12838af0d245e5467d4af71413ad70d818906cb6444f6bb7c606d764c2ea32ad108188f2d047e7447f48f11215ab76de1e966ab042496db1c000d162c4ec34ab16878ef4d641e142794ef31017a974dc1c9468b2404b6fb3c202d360c6ee36a914858cf6d443e3407b4cfd1e19a77ad2129a66bc4e4561bdcc0cdd6ec8e038a71a8b82f8da4ded4e7542ff1c1ba578d0109864be4c4763bfce0edf6ccae23aa5188980fad84fef4c7740f91a1da37ed6169e62b84a4165b9c808d96acce43ca31e8f86fcde49e94a7146fb181fa17cd4149c60ba484367bbca0adb68cee63ea11c8d84fedc4beb487344f51611af72da1a926eb4464d69b5c404d566c0e830af12838af0d245e5467d4af71413ad70d818906cb6444f6bb7c606d764c2ea32ad108188f2d047e7447f48f11215ab76de1e966ab042496db1c000d162c4ec34ab16878ef4d641e142794ef31017a974dc1c9468b2404b6fb3c202d360c6ee36a914858cf6d443e3407b4cfd1e19a77ad2129a66bc4e4561bdcc0cdd6ec8e038a71a8b82f8da4ded4e7542ff1c1ba578d0109864be4c4763bfce0edf6ccae23aa5188980fad84fef4c7740f91a1da37ed6169e62b84a4165b9c808d96acce43ca31e8f86fcde49e94a7146fb181fa17cd4149c60ba484367bbca0adb68cee63ea11c8d84fedc4beb487344f51611af72da1a926eb4464d69b5c404d566c0e830af12838af0d245e5467d4af71413ad70d818906cb6444f6bb7c606d764c2ea32ad108188f2d047e7447f48f11215ab76de1e966ab042496db1c000d162c4ec34ab16878ef4d641e142794ef31017a974dc1c9468b2404b6fb3c202d360c6ee36a914858cf6d443e3407b4cfd1e19a77ad2129a66bc4e4561bdcc0cdd6ec8e038a71a8b82f8da4ded4e7542ff1c1ba578d0109864be4c4763bfce0edf6ccae23aa5188980fad84fef4c7740f91a1da37ed6169e62b84a4165b9c808d96acce43ca31e8f86fcde49e94a7146fb181fa17cd4149c60ba484367bbca0adb68cee63ea11c8d84fedc4beb487344f51611af72da1a926eb4464d69b5c404de3aa6481cc0f9620666809b18da2cb20df99a35d92ccef2a129a4a7958345bb2",
        "hex": "6a20749fbcf006e5c518486c8f02fd29354c989a16d465a4824043983498b4bc70434db004d1e19a77ad2129a66bc4e4561bdcc0cdd6ec8e038a71a8b82f8da4ded4e7542ff1c1ba578d0109864be4c4763bfce0edf6ccae23aa5188980fad84fef4c7740f91a1da37ed6169e62b84a4165b9c808d96acce43ca31e8f86fcde49e94a7146fb181fa17cd4149c60ba484367bbca0adb68cee63ea11c8d84fedc4beb487344f51611af72da1a926eb4464d69b5c404d566c0e830af12838af0d245e5467d4af71413ad70d818906cb6444f6bb7c606d764c2ea32ad108188f2d047e7447f48f11215ab76de1e966ab042496db1c000d162c4ec34ab16878ef4d641e142794ef31017a974dc1c9468b2404b6fb3c202d360c6ee36a914858cf6d443e3407b4cfd1e19a77ad2129a66bc4e4561bdcc0cdd6ec8e038a71a8b82f8da4ded4e7542ff1c1ba578d0109864be4c4763bfce0edf6ccae23aa5188980fad84fef4c7740f91a1da37ed6169e62b84a4165b9c808d96acce43ca31e8f86fcde49e94a7146fb181fa17cd4149c60ba484367bbca0adb68cee63ea11c8d84fedc4beb487344f51611af72da1a926eb4464d69b5c404d566c0e830af12838af0d245e5467d4af71413ad70d818906cb6444f6bb7c606d764c2ea32ad108188f2d047e7447f48f11215ab76de1e966ab042496db1c000d162c4ec34ab16878ef4d641e142794ef31017a974dc1c9468b2404b6fb3c202d360c6ee36a914858cf6d443e3407b4cfd1e19a77ad2129a66bc4e4561bdcc0cdd6ec8e038a71a8b82f8da4ded4e7542ff1c1ba578d0109864be4c4763bfce0edf6ccae23aa5188980fad84fef4c7740f91a1da37ed6169e62b84a4165b9c808d96acce43ca31e8f86fcde49e94a7146fb181fa17cd4149c60ba484367bbca0adb68cee63ea11c8d84fedc4beb487344f51611af72da1a926eb4464d69b5c404d566c0e830af12838af0d245e5467d4af71413ad70d818906cb6444f6bb7c606d764c2ea32ad108188f2d047e7447f48f11215ab76de1e966ab042496db1c000d162c4ec34ab16878ef4d641e142794ef31017a974dc1c9468b2404b6fb3c202d360c6ee36a914858cf6d443e3407b4cfd1e19a77ad2129a66bc4e4561bdcc0cdd6ec8e038a71a8b82f8da4ded4e7542ff1c1ba578d0109864be4c4763bfce0edf6ccae23aa5188980fad84fef4c7740f91a1da37ed6169e62b84a4165b9c808d96acce43ca31e8f86fcde49e94a7146fb181fa17cd4149c60ba484367bbca0adb68cee63ea11c8d84fedc4beb487344f51611af72da1a926eb4464d69b5c404d566c0e830af12838af0d245e5467d4af71413ad70d818906cb6444f6bb7c606d764c2ea32ad108188f2d047e7447f48f11215ab76de1e966ab042496db1c000d162c4ec34ab16878ef4d641e142794ef31017a974dc1c9468b2404b6fb3c202d360c6ee36a914858cf6d443e3407b4cfd1e19a77ad2129a66bc4e4561bdcc0cdd6ec8e038a71a8b82f8da4ded4e7542ff1c1ba578d0109864be4c4763bfce0edf6ccae23aa5188980fad84fef4c7740f91a1da37ed6169e62b84a4165b9c808d96acce43ca31e8f86fcde49e94a7146fb181fa17cd4149c60ba484367bbca0adb68cee63ea11c8d84fedc4beb487344f51611af72da1a926eb4464d69b5c404de3aa6481cc0f9620666809b18da2cb20df99a35d92ccef2a129a4a7958345bb2",
        "type": "nulldata"
      }
    },
    {
      "value": 499962.3747,
      "n": 1,
      "scriptPubKey": {
        "asm": "1 5e6735b85048930272471b6a557540244dfff62bd0958d8db487fa44e3180d3b",
        "hex": "51205e6735b85048930272471b6a557540244dfff62bd0958d8db487fa44e3180d3b",
        "reqSigs": 1,
        "type": "witness_v1_scripthash",
        "addresses": [
          "3QJmnh"
        ]
      }
    }
  ],
  "blockhash": "2dfbfbf9a9b6a37d5bbaa2d3fd41803f08650e7d63861427b8d0526132d1543b",
  "confirmations": 1,
  "time": 1764182436,
  "blocktime": 1764182436
}