{
  "hex": "0100000000010136cc8511f0cbc64bfb8777758ce0e91860ac97fd2f23f9b4b18105dac884464f0000000000feffffff02e021231b792d0000225120927362cbfc9a3426c518c9e473146d9d1fb5e30edb14a2852d534787d337eb6600e1f50500000000fdd5046a20c5f8b4b03402378962e9f04cb440084f4d00891b77f44c89c0cc92458d4803d14db0047373a87fb64ba593f9dfe0ab09f36995b5a84531df3ddd83c1e73efc992705955353885f966b85b3d9ffc08b29d349b595886511ff1dfda3e1c71edcb90725b53333e83ff60be5d3b99fa0eb49b329d5f5e805719f7d9dc381a77ebcd96745d51313c81fd62bc5f399bf80cb699309f5d5c82551bf5dbde3a1875e9cf94765f5f3f328ff36cb2513795f602b8973e9153528c5b15fbd5d034167be7c19a78515d3d308df16eb0533597f400ba953c9351508e5917f9d7d2361479e5c3987a535b3b368bf768b6553391f206bc933a955756885f11ffd1d430127fe3c59e7c5559393489f56ab4573193f004be91389755548a5d13fdd3d632107de1c79c7e5757373a87fb64ba593f9dfe0ab09f36995b5a84531df3ddd83c1e73efc992705955353885f966b85b3d9ffc08b29d349b595886511ff1dfda3e1c71edcb90725b53333e83ff60be5d3b99fa0eb49b329d5f5e805719f7d9dc381a77ebcd96745d51313c81fd62bc5f399bf80cb699309f5d5c82551bf5dbde3a1875e9cf94765f5f3f328ff36cb2513795f602b8973e9153528c5b15fbd5d034167be7c19a78515d3d308df16eb0533597f400ba953c9351508e5917f9d7d2361479e5c3987a535b3b368bf768b6553391f206bc933a955756885f11ffd1d430127fe3c59e7c5559393489f56ab4573193f004be91389755548a5d13fdd3d632107de1c79c7e5757373a87fb64ba593f9dfe0ab09f36995b5a84531df3ddd83c1e73efc992705955353885f966b85b3d9ffc08b29d349b595886511ff1dfda3e1c71edcb90725b53333e83ff60be5d3b99fa0eb49b329d5f5e805719f7d9dc381a77ebcd96745d51313c81fd62bc5f399bf80cb699309f5d5c82551bf5dbde3a1875e9cf94765f5f3f328ff36cb2513795f602b8973e9153528c5b15fbd5d034167be7c19a78515d3d308df16eb0533597f400ba953c9351508e5917f9d7d2361479e5c3987a535b3b368bf768b6553391f206bc933a955756885f11ffd1d430127fe3c59e7c5559393489f56ab4573193f004be91389755548a5d13fdd3d632107de1c79c7e5757373a87fb64ba593f9dfe0ab09f36995b5a84531df3ddd83c1e73efc992705955353885f966b85b3d9ffc08b29d349b595886511ff1dfda3e1c71edcb90725b53333e83ff60be5d3b99fa0eb49b329d5f5e805719f7d9dc381a77ebcd96745d51313c81fd62bc5f399bf80cb699309f5d5c82551bf5dbde3a1875e9cf94765f5f3f328ff36cb2513795f602b8973e9153528c5b15fbd5d034167be7c19a78515d3d308df16eb0533597f400ba953c9351508e5917f9d7d2361479e5c3987a535b3b368bf768b6553391f206bc933a955756885f11ffd1d430127fe3c59e7c5559393489f56ab4573193f004be91389755548a5d13fdd3d632107de1c79c7e5757373a87fb64ba593f9dfe0ab09f36995b5a84531df3ddd83c1e73efc992705955353885f966b85b3d9ffc08b29d349b595886511ff1dfda3e1c71edcb90725b53333e83ff60be5d3b99fa0eb49b329d5f5e805719f7d9dc381a77ebcd96745d51313c81fd62bc5f399bf80cb699309f5d5c82551bf5dbde3a1875e9cf94765f5f3f328ff36cb2513795f602b8973e915cf509b48219c0ae3afc7a67faa43e010642fa3b6655bb3a3e3cd847e0d992bf802fd75096156916bad5bef1b14a28b18d140dede792dd6fea68739e7a8c0a581133b9cb8556a562856d4457666de0483a2778bd87cd48c3aba4f366e7524d8d4d1be441fbdebbb74d8c5e09096fc79b5fd7d9bf4a9781ae78a247bb996a6ef094ac18ede9d3f258526091a1143bef54fa498efd3ab58c65d4281be4ec25500d49dc8c0aaaf8ee3688b9bed5be150b5b21cc4e672b07d5d2bdac25924eabfa9f9ba4b2e410aa5cf8504d886370c6e60f2cd61224e829ad7476376343cd43190a7ec9a2f284cf070dca21d4be308b1df4b4ebbf140fadca76b5c9b4b24fdaee72b9299411afbd86690c0e492678e8fc4986f551ef05d91d74ac40db770b5f3d0bfdcd65b2c54ba4036a07492af8c9ffdfc56fbbe3968bd2b4ecd169c1b126b20094985848e66a6a144948abe9f90b72f6dd46f8352307f135738d6b9fadc28b7782098b90e118a1d2c2d35c9d61346c9e0f99cd020f005966d4f346a5598efac512686557eeb81a7b247402fd5ca8a2be2a38216474a757c822a96f64b1b97938246c0354fdacca9f36548b5236eaf4f1eb46f292d7bfac5a7181ce36b3a6dfeebd4f50c82b29e7143615aee687ebee960871bc1844ea3ae300bec0d07384e02b5c6d966f37939f6f8c9ec6982a8e6955d269b9499da1388395e6f24fddd3a9bc66ad8e46a3c4263d25f8c029a74954aabbbf0a8ebdc225f6ab89f077a1e555b5f59d4201b1cfd2c368d835938c8c5f195e993ae88c491f6fc20c1e12c4690e26cada35cfa70c493bdbf77352d7b30f89933ee84f16f6c72f1625b63bf54d8a0936d50c57c3b2bbddb34f781775563ae88bbe2750d8e5031e00ed0441faa0d208a5712c44fc61a9ae4a59861a410d3cd02eccb2ff3680a29f9a27d7c921cb1fc57f1c0d9fdb86f521a49b7a39f7133f7184921f1a2dba6d39bf4721883eb60cfe1ae1d11e2e4d6374e60747bfba0526bc05aa9e8059d2780382987df23ebf4db054f5e9ba303dda397ce8888c319cc4686f736c7e0d7a1a6cffe4f15c9078efb01b5f15952f9dfb27080982df19600d6068491ec809b49d9385ef5857dedae02d478fb739829eac3955004584d3f5b6c6a5395bd8cd0cc41fee1bd148b54c6c4231173c46398092e6a3403cf23383bc180eb0ed3dc1d3075086eabad68506d2cd3f274a5cf7ea04a13305ec60be2c54bcc88c28ba6a2622d3822bec0941d090fc0dc53252c624cf9c8fc30603f5c901d20a2b0d7cf03b1f1f57734289c827df9a4fa2829c6aea7ef9d73d49cfb8013cba558df8fe39cd512bd116948519a75301cbf856ca6381f7da0e23350968b50a75f5d6987f014309903b29b32c4c5d85d7ea90917fc76f46460c20b4925b59263a603bd48767c8542b1bbc99af975675bd0bf96a31fe74e7adc5bbbb6e41bd702edd85d5f2c51bef3fe7cadec3bd1e40128243e2b5f828d09a3b03e1c01d9adc3cc0b3e4f8190f897b146561dd74a23da3f116042f504f08f485220d4d416d4a148d1525523f08264d99a1dd9b6bf1282549d76314ad4beb68dd57710f889ef77bb0025b0bfa8eafbed0f40724ab0e9fb4b5897e50e376b3c1de9806b6e8051f867c689eefedd03695a53be9a03dcee8ffcc9c3f3a588c6f437b117073745c051db3519de7ee4c56b7ad8d6fb5153434e8612ac9d2d2e586be97cf6883045ff23983f13d5475c09f63ad629c1301aecf86ada73a0745b791a4a5526e89e3da63eec6db81fa53408b1053171e0b2942fe9594642842a0580cfd1d90d8768a0a341b931f35b8fe0f0f8a81ff8493d8ff6ee7e68d8a4b4f5f9820d0d63c249f8ef1355c883645543ce1db397c8d26c96b8a13b98712b72441f4932d339507f9187b4aa64b066975719e80ae691a24250f1cfb1c6a3297165e253f02da34b2a485cfa3ea38d6c4f5cc58724d73e04b3e4e17f2d5dc8c855d45c9d0fd9c87c44d9d693b61650345b9640f6f26ca144ee5c50f349134daf4df23d36150f6164c8eba71e3beb9b45cea64c37dbd0934661773a06d9aa4ae7ed35659b48374b92348106be6471f7828d5a681b9d2028edfda4a38a6932612ec2ab4434b051b4db21f43eadf956ae797a89a110b1d2d11d0b6e6d9261506ac7da835570fd021723b8bbcecb0764e8817f6259886b219f64a1ac6ab49bbbf6bf83d85168d2af24a577829d13e2125f6a8dd19d085ef9e7e9fb51c66a81135407c8cdc21f245d1d816b31d6267337ee0f8a555e2363ec2741449ed164aa952f7f96494d5bb0627abad38add660d6e314b8cd983d22280581e679dc1b4d04232396b8cd1b2b5fca123677c9583865b29dfe3dd75bcdf24bd0c79172d6615d4df915f13fb4dfe76f43802bc17b778cfa306ab14ab805f702aa4507e44b074fe3b86f140fd7b7bf1692afef605b2892624caa363b97a87716c27ef8dbc2bbe9eebba01d5a68f0138eef66c0cdd3933123a8f96d4371f350ac5a7d0a905aa8be04573ddd8c2a0a657f0dab2530e8bda16379fd4730b64d1068c2238e8b8a1c83d798e687ac3c997f8387d0205373e3636d4525bac0111278644a1ab4b778ee9b5dd4de52755a42d3cc5c54711d090e7556a3f296f255cf77c4369385ed5f1d662979de1b0b9802a1488e0212b8f9baf2846d04bedf553eecdf6793f428b79a5ed6f33f46684a2c16f59892ef359ea64bd0b7ae44e232e4fa63f701442fe691aeffb7719c72964cf207529928ed4cd3c19243dc792f5d67fcfce0a5bb85cd7091dde4fb585dba0ff6e369a0173230492cda60de339f1f932b53668f58ba7e9b3b334695ddf05782232ccd450daeaeac50bd415872626ddec2a6d2c888f5cbf362e8669ebdf40173d7d737178cbee7aed353eec99a1cef0a5d29e97a91f4652504510158c6abfb92d0dfac579d37d1ae414ba0a2cddb18703b1bf8a71914912bf71d3b8406024c3e9030f7d687386645a149ffc9c0f0cd380f5743059212d2a38cbd75a3fc523ac644df29d72c1887e5b29a0ae9e6d5936ee12213f6dc833283c2e0afb19cfaf9d6d27172a35044718ae8d806746cebcc07bc88487f7fe0831783f73db47a6b1de4b073c687fd46ba83de6dcb03478384a04aaf767c08101540a74d720836387095451724ffb2d1e4929789c8f5904aaf6e5857adb89b2b19301e15f31ef6f26f5f065186df2955edf2e024c3d77c6bacfc362b0eab4fd77e0f7e4ba10d0355f53baa22d7f808229e59c3916f9cd19ca0b4e039e9da905d1c8cc065c101b4aea49e18779f432a5a912bddfaf9cc9edd5cd2c9711b1c6a5562bfebce32ee413262832404f58609091959bb0c3d6fdff03080d264349707a9ca3bbd7e5e8ec379799c0d10004053145595d818a929cc2ebf600000000000000000000000000000000000000000000000000000000001120253301fd2105005232c399aa1680dca847be0d48317d6ef1f9d20a4a244b6328ad6eda8b397f005f89c217710e37e98c6e838967c568c30222c08ef3002711ba27f8a2ada4bc0e2666dda3d9713ede30757e8846670900dbd8fdfaa670d9d72da4366e42536df60fd6227cc18c7b69a4a0bc9a050e42203aeb26ac1ce36c684a80657644a0eaca9cbbecec175dd0667f3a9fbd127c8f959af2d6a856ec605c7b5e8424a589a0151a8b042ed1265ce48b4d5d358710e0d64e7ab3161323f69b98471520dda8f19b0da8e03f0e4795761e69fb8661503e0d69a6d5b87edd8fd193880a25558e4c774f8eea85ee5e56a21b59921e982dba1c1c479d1af2dee69134973d46fed79893972c24e0ee60d0ef4a696dd5f476349c7cb0498a1be6b9d1fb510def198ba51d08d65c961a7ceee4f312abb5420aab83e1fa86115f6ab129bba0590f53f724a6f3ae4d20e5e43f5e4cbb9e9ccbc12e3f8f63f3f2df54be488200588a13acb909df063bf7ad1999b14efa89a636d08ab71a6a3b9c82714d83af0c1a212d5a25a19891bff5f2f157dc8d086b210ffc91b344572f53f7cf6f0f3fcceb5ae98ce2d7799e0702ed988021257f49682879223cb5b231a2bd28109f3dc9601abdb55ce529695ea1c2d688ed7b2b3f0da92406f75b3e55aa7a099ffd5321095592034db3266a425ad709770f298ada798ee44853db943e9632ac20ad4b7e0ca306174718390d80c5d36d7c99b399421cc4e381e346a7f6980be76cde24350a719907aecf93fa64ce45f51868d723e1eda72ffb9c1127dd565170682273d74b5bfe8bb9b4089ec2c086c16752e6613a9b2e5e5368efa6c24dc16664be0d10a65fdab944b24f1813086bdab280e5a3fa0f7fd1d6c5f8329e2b5a76b6bc8f57cb11b6715622f332dc18403514694e245c4361682a09a422c3f1d3f8195695a1df614b24d22523852eafe6f248ddb259432afacdd9f08ac6dc1e00c11adeade4e7d16045d59a9d5b5ad9924876b8987bd220df4f6db82d92458acfdade51776ea9c72d47baf17ccef63ee12fac1beaf4dae9d507f42482e44493f53bb1d74a6f97254bfdbdec0fb4414efbe169257ff0870d1f7b3591d63c6c0ff57422b5bf85a8db214060c7a206c73f0e6fb31f86858f1126c2037bdba3397fe4d6976e6e1f793b082773dd05c63e7c4d3c25c29c8b1e8abbb7c27cd10e7b06e68f8627139e295f4ebaed78e5bbe76bf2809c77d317576d47a631d2c3c39b7f4588326975a7fb8cd9fab71c0a71e1b150365a99fc02de6400190bee27c8340f6c0975cb9e46f1acb09e08364c7c12eb3c8c0785674a6555bfbc0223947486e55fecd4c29eede5bbed2d30c5ffadd70f65599d25a1ff7b4b6e51984dfe1ab833829347e1efd0c66b8db57f5410649bb6a961f6f097bc29e795f74518ceedff75b975d6ffd2428d377d44de94f973d10797857200c786dae92329e73f8f69ee8cdf952839afb7433038332460ff5a23e3a3fbc071ea462ae25e3a21ee1698e9daea1c62d7df0e98b05435fab49e4de24a1494db6637ea3418c7889bee18698e1b5c0931498f8044ad4502c68d9ba4fd2764260e46c6811e77b8fedd257225cb9f1b3055325fe5c8057a990f6a04d65819b3f9013ac788f6ac3e9ab999bfd26f3077d39022c2a5af197a93ecc73bf74ebd92ace66c10b8d0c3b50f74609f7087172a290039650e7607ea9abe14d6edaac4fae3f1d6ddcf52ae1171bfbc28e5445b3955030f6523f084c53fe38ebdcf5d887e871971249734c1930684ffd5b19eca4563755ede5416f3028391732b3c9c8992670d6345040276cf4f7308afaf92cf84b2d44fd3d7614384ce588574000000",
  "txid": "6fd4295336667987f500a9aa21b164f7e62c4549eabee8ea34505fea1bb82455",
  "hash": "4b1193387a124b0662cee9b3a8ec1754683c568bd3056e8a45ba1b3682cbf41b",
  "size": 5085,
  "vsize": 2278,
  "version": 1,
  "locktime": 116,
  "vin": [
    {
      "txid": "4f4684c8da0581b1b4f9232ffd97ac6018e9e08c757787fb4bc6cbf01185cc36",
      "vout": 0,
      "scriptSig": {
        "asm": "",
        "hex": ""
      },
      "txinwitness": [
        "6156916bad5bef1b14a28b18d140dede792dd6fea68739e7a8c0a581133b9cb8556a562856d4457666de0483a2778bd87cd48c3aba4f366e7524d8d4d1be441fbdebbb74d8c5e09096fc79b5fd7d9bf4a9781ae78a247bb996a6ef094ac18ede9d3f258526091a1143bef54fa498efd3ab58c65d4281be4ec25500d49dc8c0aaaf8ee3688b9bed5be150b5b21cc4e672b07d5d2bdac25924eabfa9f9ba4b2e410aa5cf8504d886370c6e60f2cd61224e829ad7476376343cd43190a7ec9a2f284cf070dca21d4be308b1df4b4ebbf140fadca76b5c9b4b24fdaee72b9299411afbd86690c0e492678e8fc4986f551ef05d91d74ac40db770b5f3d0bfdcd65b2c54ba4036a07492af8c9ffdfc56fbbe3968bd2b4ecd169c1b126b20094985848e66a6a144948abe9f90b72f6dd46f8352307f135738d6b9fadc28b7782098b90e118a1d2c2d35c9d61346c9e0f99cd020f005966d4f346a5598efac512686557eeb81a7b247402fd5ca8a2be2a38216474a757c822a96f64b1b97938246c0354fdacca9f36548b5236eaf4f1eb46f292d7bfac5a7181ce36b3a6dfeebd4f50c82b29e7143615aee687ebee960871bc1844ea3ae300bec0d07384e02b5c6d966f37939f6f8c9ec6982a8e6955d269b9499da1388395e6f24fddd3a9bc66ad8e46a3c4263d25f8c029a74954aabbbf0a8ebdc225f6ab89f077a1e555b5f59d4201b1cfd2c368d835938c8c5f195e993ae88c491f6fc20c1e12c4690e26cada35cfa70c493bdbf77352d7b30f89933ee84f16f6c72f1625b63bf54d8a0936d50c57c3b2bbddb34f781775563ae88bbe2750d8e5031e00ed0441faa0d208a5712c44fc61a9ae4a59861a410d3cd02eccb2ff3680a29f9a27d7c921cb1fc57f1c0d9fdb86f521a49b7a39f7133f7184921f1a2dba6d39bf4721883eb60cfe1ae1d11e2e4d6374e60747bfba0526bc05aa9e8059d2780382987df23ebf4db054f5e9ba303dda397ce8888c319cc4686f736c7e0d7a1a6cffe4f15c9078efb01b5f15952f9dfb27080982df19600d6068491ec809b49d9385ef5857dedae02d478fb739829eac3955004584d3f5b6c6a5395bd8cd0cc41fee1bd148b54c6c4231173c46398092e6a3403cf23383bc180eb0ed3dc1d3075086eabad68506d2cd3f274a5cf7ea04a13305ec60be2c54bcc88c28ba6a2622d3822bec0941d090fc0dc53252c624cf9c8fc30603f5c901d20a2b0d7cf03b1f1f57734289c827df9a4fa2829c6aea7ef9d73d49cfb8013cba558df8fe39cd512bd116948519a75301cbf856ca6381f7da0e23350968b50a75f5d6987f014309903b29b32c4c5d85d7ea90917fc76f46460c20b4925b59263a603bd48767c8542b1bbc99af975675bd0bf96a31fe74e7adc5bbbb6e41bd702edd85d5f2c51bef3fe7cadec3bd1e40128243e2b5f828d09a3b03e1c01d9adc3cc0b3e4f8190f897b146561dd74a23da3f116042f504f08f485220d4d416d4a148d1525523f08264d99a1dd9b6bf1282549d76314ad4beb68dd57710f889ef77bb0025b0bfa8eafbed0f40724ab0e9fb4b5897e50e376b3c1de9806b6e8051f867c689eefedd03695a53be9a03dcee8ffcc9c3f3a588c6f437b117073745c051db3519de7ee4c56b7ad8d6fb5153434e8612ac9d2d2e586be97cf6883045ff23983f13d5475c09f63ad629c1301aecf86ada73a0745b791a4a5526e89e3da63eec6db81fa53408b1053171e0b2942fe9594642842a0580cfd1d90d8768a0a341b931f35b8fe0f0f8a81ff8493d8ff6ee7e68d8a4b4f5f9820d0d63c249f8ef1355c883645543ce1db397c8d26c96b8a13b98712b72441f4932d339507f9187b4aa64b066975719e80ae691a24250f1cfb1c6a3297165e253f02da34b2a485cfa3ea38d6c4f5cc58724d73e04b3e4e17f2d5dc8c855d45c9d0fd9c87c44d9d693b61650345b9640f6f26ca144ee5c50f349134daf4df23d36150f6164c8eba71e3beb9b45cea64c37dbd0934661773a06d9aa4ae7ed35659b48374b92348106be6471f7828d5a681b9d2028edfda4a38a6932612ec2ab4434b051b4db21f43eadf956ae797a89a110b1d2d11d0b6e6d9261506ac7da835570fd021723b8bbcecb0764e8817f6259886b219f64a1ac6ab49bbbf6bf83d85168d2af24a577829d13e2125f6a8dd19d085ef9e7e9fb51c66a81135407c8cdc21f245d1d816b31d6267337ee0f8a555e2363ec2741449ed164aa952f7f96494d5bb0627abad38add660d6e314b8cd983d22280581e679dc1b4d04232396b8cd1b2b5fca123677c9583865b29dfe3dd75bcdf24bd0c79172d6615d4df915f13fb4dfe76f43802bc17b778cfa306ab14ab805f702aa4507e44b074fe3b86f140fd7b7bf1692afef605b2892624caa363b97a87716c27ef8dbc2bbe9eebba01d5a68f0138eef66c0cdd3933123a8f96d4371f350ac5a7d0a905aa8be04573ddd8c2a0a657f0dab2530e8bda16379fd4730b64d1068c2238e8b8a1c83d798e687ac3c997f8387d0205373e3636d4525bac0111278644a1ab4b778ee9b5dd4de52755a42d3cc5c54711d090e7556a3f296f255cf77c4369385ed5f1d662979de1b0b9802a1488e0212b8f9baf2846d04bedf553eecdf6793f428b79a5ed6f33f46684a2c16f59892ef359ea64bd0b7ae44e232e4fa63f701442fe691aeffb7719c72964cf207529928ed4cd3c19243dc792f5d67fcfce0a5bb85cd7091dde4fb585dba0ff6e369a0173230492cda60de339f1f932b53668f58ba7e9b3b334695ddf05782232ccd450daeaeac50bd415872626ddec2a6d2c888f5cbf362e8669ebdf40173d7d737178cbee7aed353eec99a1cef0a5d29e97a91f4652504510158c6abfb92d0dfac579d37d1ae414ba0a2cddb18703b1bf8a71914912bf71d3b8406024c3e9030f7d687386645a149ffc9c0f0cd380f5743059212d2a38cbd75a3fc523ac644df29d72c1887e5b29a0ae9e6d5936ee12213f6dc833283c2e0afb19cfaf9d6d27172a35044718ae8d806746cebcc07bc88487f7fe0831783f73db47a6b1de4b073c687fd46ba83de6dcb03478384a04aaf767c08101540a74d720836387095451724ffb2d1e4929789c8f5904aaf6e5857adb89b2b19301e15f31ef6f26f5f065186df2955edf2e024c3d77c6bacfc362b0eab4fd77e0f7e4ba10d0355f53baa22d7f808229e59c3916f9cd19ca0b4e039e9da905d1c8cc065c101b4aea49e18779f432a5a912bddfaf9cc9edd5cd2c9711b1c6a5562bfebce32ee413262832404f58609091959bb0c3d6fdff03080d264349707a9ca3bbd7e5e8ec379799c0d10004053145595d818a929cc2ebf600000000000000000000000000000000000000000000000000000000001120253301",
        "005232c399aa1680dca847be0d48317d6ef1f9d20a4a244b6328ad6eda8b397f005f89c217710e37e98c6e838967c568c30222c08ef3002711ba27f8a2ada4bc0e2666dda3d9713ede30757e8846670900dbd8fdfaa670d9d72da4366e42536df60fd6227cc18c7b69a4a0bc9a050e42203aeb26ac1ce36c684a80657644a0eaca9cbbecec175dd0667f3a9fbd127c8f959af2d6a856ec605c7b5e8424a589a0151a8b042ed1265ce48b4d5d358710e0d64e7ab3161323f69b98471520dda8f19b0da8e03f0e4795761e69fb8661503e0d69a6d5b87edd8fd193880a25558e4c774f8eea85ee5e56a21b59921e982dba1c1c479d1af2dee69134973d46fed79893972c24e0ee60d0ef4a696dd5f476349c7cb0498a1be6b9d1fb510def198ba51d08d65c961a7ceee4f312abb5420aab83e1fa86115f6ab129bba0590f53f724a6f3ae4d20e5e43f5e4cbb9e9ccbc12e3f8f63f3f2df54be488200588a13acb909df063bf7ad1999b14efa89a636d08ab71a6a3b9c82714d83af0c1a212d5a25a19891bff5f2f157dc8d086b210ffc91b344572f53f7cf6f0f3fcceb5ae98ce2d7799e0702ed988021257f49682879223cb5b231a2bd28109f3dc9601abdb55ce529695ea1c2d688ed7b2b3f0da92406f75b3e55aa7a099ffd5321095592034db3266a425ad709770f298ada798ee44853db943e9632ac20ad4b7e0ca306174718390d80c5d36d7c99b399421cc4e381e346a7f6980be76cde24350a719907aecf93fa64ce45f51868d723e1eda72ffb9c1127dd565170682273d74b5bfe8bb9b4089ec2c086c16752e6613a9b2e5e5368efa6c24dc16664be0d10a65fdab944b24f1813086bdab280e5a3fa0f7fd1d6c5f8329e2b5a76b6bc8f57cb11b6715622f332dc18403514694e245c4361682a09a422c3f1d3f8195695a1df614b24d22523852eafe6f248ddb259432afacdd9f08ac6dc1e00c11adeade4e7d16045d59a9d5b5ad9924876b8987bd220df4f6db82d92458acfdade51776ea9c72d47baf17ccef63ee12fac1beaf4dae9d507f42482e44493f53bb1d74a6f97254bfdbdec0fb4414efbe169257ff0870d1f7b3591d63c6c0ff57422b5bf85a8db214060c7a206c73f0e6fb31f86858f1126c2037bdba3397fe4d6976e6e1f793b082773dd05c63e7c4d3c25c29c8b1e8abbb7c27cd10e7b06e68f8627139e295f4ebaed78e5bbe76bf2809c77d317576d47a631d2c3c39b7f4588326975a7fb8cd9fab71c0a71e1b150365a99fc02de6400190bee27c8340f6c0975cb9e46f1acb09e08364c7c12eb3c8c0785674a6555bfbc0223947486e55fecd4c29eede5bbed2d30c5ffadd70f65599d25a1ff7b4b6e51984dfe1ab833829347e1efd0c66b8db57f5410649bb6a961f6f097bc29e795f74518ceedff75b975d6ffd2428d377d44de94f973d10797857200c786dae92329e73f8f69ee8cdf952839afb7433038332460ff5a23e3a3fbc071ea462ae25e3a21ee1698e9daea1c62d7df0e98b05435fab49e4de24a1494db6637ea3418c7889bee18698e1b5c0931498f8044ad4502c68d9ba4fd2764260e46c6811e77b8fedd257225cb9f1b3055325fe5c8057a990f6a04d65819b3f9013ac788f6ac3e9ab999bfd26f3077d39022c2a5af197a93ecc73bf74ebd92ace66c10b8d0c3b50f74609f7087172a290039650e7607ea9abe14d6edaac4fae3f1d6ddcf52ae1171bfbc28e5445b3955030f6523f084c53fe38ebdcf5d887e871971249734c1930684ffd5b19eca4563755ede5416f3028391732b3c9c8992670d6345040276cf4f7308afaf92cf84b2d44fd3d7614384ce5885"
      ],
      "sequence": 4294967294
    }
  ],
  "vout": [
    {
      "value": 499981.6958,
      "n": 0,
      "scriptPubKey": {
        "asm": "1 927362cbfc9a3426c518c9e473146d9d1fb5e30edb14a2852d534787d337eb66",
        "hex": "5120927362cbfc9a3426c518c9e473146d9d1fb5e30edb14a2852d534787d337eb66",
        "reqSigs": 1,
        "type": "witness_v1_scripthash",
        "addresses": [
          "3QJmnh"
        ]
      }
    },
    {
      "value": 1.0,
      "n": 1,
      "scriptPubKey": {
        "asm": "OP_RETURN c5f8b4b03402378962e9f04cb440084f4d00891b77f44c89c0cc92458d4803d1 7373a87fb64ba593f9dfe0ab09f36995b5a84531df3ddd83c1e73efc992705955353885f966b85b3d9ffc08b29d349b595886511ff1dfda3e1c71edcb90725b53333e83ff60be5d3b99fa0eb49b329d5f5e805719f7d9dc381a77ebcd96745d51313c81fd62bc5f399bf80cb699309f5d5c82551bf5dbde3a1875e9cf94765f5f3f328ff36cb2513795f602b8973e9153528c5b15fbd5d034167be7c19a78515d3d308df16eb0533597f400ba953c9351508e5917f9d7d2361479e5c3987a535b3b368bf768b6553391f206bc933a955756885f11ffd1d430127fe3c59e7c5559393489f56ab4573193f004be91389755548a5d13fdd3d632107de1c79c7e5757373a87fb64ba593f9dfe0ab09f36995b5a84531df3ddd83c1e73efc992705955353885f966b85b3d9ffc08b29d349b595886511ff1dfda3e1c71edcb90725b53333e83ff60be5d3b99fa0eb49b329d5f5e805719f7d9dc381a77ebcd96745d51313c81fd62bc5f399bf80cb699309f5d5c82551bf5dbde3a1875e9cf94765f5f3f328ff36cb2513795f602b8973e9153528c5b15fbd5d034167be7c19a78515d3d308df16eb0533597f400ba953c9351508e5917f9d7d2361479e5c3987a535b3b368bf768b6553391f206bc933a955756885f11ffd1d430127fe3c59e7c5559393489f56ab4573193f004be91389755548a5d13fdd3d632107de1c79c7e5757373a87fb64ba593f9dfe0ab09f36995b5a84531df3ddd83c1e73efc992705955353885f966b85b3d9ffc08b29d349b595886511ff1dfda3e1c71edcb90725b53333e83ff60be5d3b99fa0eb49b329d5f5e805719f7d9dc381a77ebcd96745d51313c81fd62bc5f399bf80cb699309f5d5c82551bf5dbde3a1875e9cf94765f5f3f328ff36cb2513795f602b8973e9153528c5b15fbd5d034167be7c19a78515d3d308df16eb0533597f400ba953c9351508e5917f9d7d2361479e5c3987a535b3b368bf768b6553391f206bc933a955756885f11ffd1d430127fe3c59e7c5559393489f56ab4573193f004be91389755548a5d13fdd3d632107de1c79c7e5757373a87fb64ba593f9dfe0ab09f36995b5a84531df3ddd83c1e73efc992705955353885f966b85b3d9ffc08b29d349b595886511ff1dfda3e1c71edcb90725b53333e83ff60be5d3b99fa0eb49b329d5f5e805719f7d9dc381a77ebcd96745d51313c81fd62bc5f399bf80cb699309f5d5c82551bf5dbde3a1875e9cf94765f5f3f328ff36cb2513795f602b8973e9153528c5b15fbd5d034167be7c19a78515d3d308df16eb0533597f400ba953c9351508e5917f9d7d2361479e5c3987a535b3b368bf768b6553391f206bc933a955756885f11ffd1d430127fe3c59e7c5559393489f56ab4573193f004be91389755548a5d13fdd3d632107de1c79c7e5757373a87fb64ba593f9dfe0ab09f36995b5a84531df3ddd83c1e73efc992705955353885f966b85b3d9ffc08b29d349b595886511ff1dfda3e1c71edcb90725b53333e83ff60be5d3b99fa0eb49b329d5f5e805719f7d9dc381a77ebcd96745d51313c81fd62bc5f399bf80cb699309f5d5c82551bf5dbde3a1875e9cf94765f5f3f328ff36cb2513795f602b8973e915cf509b48219c0ae3afc7a67faa43e010642fa3b6655bb3a3e3cd847e0d992bf8",
        "hex": "6a20c5f8b4b03402378962e9f04cb440084f4d00891b77f44c89c0cc92458d4803d14db0047373a87fb64ba593f9dfe0ab09f36995b5a84531df3ddd83c1e73efc992705955353885f966b85b3d9ffc08b29d349b595886511ff1dfda3e1c71edcb90725b53333e83ff60be5d3b99fa0eb49b329d5f5e805719f7d9dc381a77ebcd96745d51313c81fd62bc5f399bf80cb699309f5d5c82551bf5dbde3a1875e9cf94765f5f3f328ff36cb2513795f602b8973e9153528c5b15fbd5d034167be7c19a78515d3d308df16eb0533597f400ba953c9351508e5917f9d7d2361479e5c3987a535b3b368bf768b6553391f206bc933a955756885f11ffd1d430127fe3c59e7c5559393489f56ab4573193f004be91389755548a5d13fdd3d632107de1c79c7e5757373a87fb64ba593f9dfe0ab09f36995b5a84531df3ddd83c1e73efc992705955353885f966b85b3d9ffc08b29d349b595886511ff1dfda3e1c71edcb90725b53333e83ff60be5d3b99fa0eb49b329d5f5e805719f7d9dc381a77ebcd96745d51313c81fd62bc5f399bf80cb699309f5d5c82551bf5dbde3a1875e9cf94765f5f3f328ff36cb2513795f602b8973e9153528c5b15fbd5d034167be7c19a78515d3d308df16eb0533597f400ba953c9351508e5917f9d7d2361479e5c3987a535b3b368bf768b6553391f206bc933a955756885f11ffd1d430127fe3c59e7c5559393489f56ab4573193f004be91389755548a5d13fdd3d632107de1c79c7e5757373a87fb64ba593f9dfe0ab09f36995b5a84531df3ddd83c1e73efc992705955353885f966b85b3d9ffc08b29d349b595886511ff1dfda3e1c71edcb90725b53333e83ff60be5d3b99fa0eb49b329d5f5e805719f7d9dc381a77ebcd96745d51313c81fd62bc5f399bf80cb699309f5d5c82551bf5dbde3a1875e9cf94765f5f3f328ff36cb2513795f602b8973e9153528c5b15fbd5d034167be7c19a78515d3d308df16eb0533597f400ba953c9351508e5917f9d7d2361479e5c3987a535b3b368bf768b6553391f206bc933a955756885f11ffd1d430127fe3c59e7c5559393489f56ab4573193f004be91389755548a5d13fdd3d632107de1c79c7e5757373a87fb64ba593f9dfe0ab09f36995b5a84531df3ddd83c1e73efc992705955353885f966b85b3d9ffc08b29d349b595886511ff1dfda3e1c71edcb90725b53333e83ff60be5d3b99fa0eb49b329d5f5e805719f7d9dc381a77ebcd96745d51313c81fd62bc5f399bf80cb699309f5d5c82551bf5dbde3a1875e9cf94765f5f3f328ff36cb2513795f602b8973e9153528c5b15fbd5d034167be7c19a78515d3d308df16eb0533597f400ba953c9351508e5917f9d7d2361479e5c3987a535b3b368bf768b6553391f206bc933a955756885f11ffd1d430127fe3c59e7c5559393489f56ab4573193f004be91389755548a5d13fdd3d632107de1c79c7e5757373a87fb64ba593f9dfe0ab09f36995b5a84531df3ddd83c1e73efc992705955353885f966b85b3d9ffc08b29d349b595886511ff1dfda3e1c71edcb90725b53333e83ff60be5d3b99fa0eb49b329d5f5e805719f7d9dc381a77ebcd96745d51313c81fd62bc5f399bf80cb699309f5d5c82551bf5dbde3a1875e9cf94765f5f3f328ff36cb2513795f602b8973e915cf509b48219c0ae3afc7a67faa43e010642fa3b6655bb3a3e3cd847e0d992bf8",
        "type": "nulldata"
      }
    }
  ],
  "blockhash": "73359bfd0a4582986ffd1e7664419d7a0ef7b090643ab62685454f7a097cd719",
  "confirmations": 1,
  "time": 1764179247,
  "blocktime": 1764179247
}