{
  "hex": "0100000000010147bcfca977a802d165102685ac22cc4d6b50abf8c69d21267498f4900b051b540000000000feffffff02c0cc030f792d0000225120b185a58bb326a9cc40d6a38f4e4e618c03498bb4e87c6195233690901531f5eb00e1f50500000000fdd5046a206411f034c8825519e4c3daed0de9ccfef09f48a163a74d986b99887cf328c96e4db0047af3936fb9e63733281e6e147042e4c7f3225dc830a642dcff700dea6d312fa45ad3b34f99c61713083e4e345062c4e7d3027de8108662fcdf502dca4d110f843ab3d32ff9a67773685e2e543002a487b3621d8870e6029cbf304daa2d716fe41a93f30fd9865753487e0e74102284a793423da850c622bc9f106d8a0d514fc4fa7313ef3966b7b3a89eee94f0c2644773a2dd48b026c25c7ff08d6aedb1af24da5333cf1946979388beceb4d0e244675382fd689006e27c5fd0ad4acd918f04ba3353af7926f7f3e8deaed4b082240733e29d08f066821c3fb0cd2aadf1ef649a13738f5906d7d3c8fe8ef490a2042713c2bd28d046a23c1f90ed0a8dd1cf447af3936fb9e63733281e6e147042e4c7f3225dc830a642dcff700dea6d312fa45ad3b34f99c61713083e4e345062c4e7d3027de8108662fcdf502dca4d110f843ab3d32ff9a67773685e2e543002a487b3621d8870e6029cbf304daa2d716fe41a93f30fd9865753487e0e74102284a793423da850c622bc9f106d8a0d514fc4fa7313ef3966b7b3a89eee94f0c2644773a2dd48b026c25c7ff08d6aedb1af24da5333cf1946979388beceb4d0e244675382fd689006e27c5fd0ad4acd918f04ba3353af7926f7f3e8deaed4b082240733e29d08f066821c3fb0cd2aadf1ef649a13738f5906d7d3c8fe8ef490a2042713c2bd28d046a23c1f90ed0a8dd1cf447af3936fb9e63733281e6e147042e4c7f3225dc830a642dcff700dea6d312fa45ad3b34f99c61713083e4e345062c4e7d3027de8108662fcdf502dca4d110f843ab3d32ff9a67773685e2e543002a487b3621d8870e6029cbf304daa2d716fe41a93f30fd9865753487e0e74102284a793423da850c622bc9f106d8a0d514fc4fa7313ef3966b7b3a89eee94f0c2644773a2dd48b026c25c7ff08d6aedb1af24da5333cf1946979388beceb4d0e244675382fd689006e27c5fd0ad4acd918f04ba3353af7926f7f3e8deaed4b082240733e29d08f066821c3fb0cd2aadf1ef649a13738f5906d7d3c8fe8ef490a2042713c2bd28d046a23c1f90ed0a8dd1cf447af3936fb9e63733281e6e147042e4c7f3225dc830a642dcff700dea6d312fa45ad3b34f99c61713083e4e345062c4e7d3027de8108662fcdf502dca4d110f843ab3d32ff9a67773685e2e543002a487b3621d8870e6029cbf304daa2d716fe41a93f30fd9865753487e0e74102284a793423da850c622bc9f106d8a0d514fc4fa7313ef3966b7b3a89eee94f0c2644773a2dd48b026c25c7ff08d6aedb1af24da5333cf1946979388beceb4d0e244675382fd689006e27c5fd0ad4acd918f04ba3353af7926f7f3e8deaed4b082240733e29d08f066821c3fb0cd2aadf1ef649a13738f5906d7d3c8fe8ef490a2042713c2bd28d046a23c1f90ed0a8dd1cf447af3936fb9e63733281e6e147042e4c7f3225dc830a642dcff700dea6d312fa45ad3b34f99c61713083e4e345062c4e7d3027de8108662fcdf502dca4d110f843ab3d32ff9a67773685e2e543002a487b3621d8870e6029cbf304daa2d716fe41a93f30fd9865753487e0e74102284a793423da850c622bc9f106d8a0d514fc4fa7313ef3966b7b3a89eee94f0c2644724be2442414fbd4e1bd989b444c8ec2bd56deba80d0c6d74b2e4947360ac2e5002fd75092b12ee7e3cb41e17e23255e3cf998e965bf3ec749ccd257207e9ec3a2941e06be49a87ac6b3a6dd54ebacdee71633fd521579d32ac3ccc7667e7ebf2a819243ec86c7b7aaee846ca12183930f7339fcd6e5e1a2d1c06f065d6cc3855a3dcb8328ac2a5394c31ca59e1b47b35fce35ca101d1d7e60da86966a2ab96d47bffd459b92a745bad3d4350da30021b0d5de12934568651ebd81b334039e8db2cfefee55621301f180b46cb4ef6de3bfd27d30ae82aebf26b3906e983bfa73f05529a25647448ad5d385f8a42a324096775b09558f87341635c0a208bbc3faff37f6c6ec48dc1d131f02398b2c0a833f1f8f8f81a63f85d9faa5cb38f3be9b898ca8844e76c81086ad76c94f594d2c7c5fe56e12a717c1eb6a4565009f38582caa50e5927ac58cfa8dc8cda27db94e151fe16de072adfef1ccfa5553515d558cd78e22e544b4db27b14fa6fa39b446c373a69bc854e64e1679b130171cc8e22135265d00efb707ecbafbce65282040548fe99dc54fa054efa6b28b070b7b45e17f98641ef5d16a1cbf63f783106a3c23bfe44dd48919c3432e222a3492e02f175954fa4e986ed9406c9462bbbbdcfaba9b8315e29e7066fa5a63cfc87d588440f3a59404cdd2c6be96cb1f76af8c482a3f8ad25a413238b5cb835d0df99c1ab1d439c756eb74ce58413628e1fcb01cb4dbd68af734ad35f906107458617fd8db860281d70ed50fd347040c925f6c96fedbe6b33f82fc7a48b5fb3fa202983956331826e43195858b051bf867c5fc574984619edd3c7921a3cfeeb4c835537a033fc2b2acd36123818304d2cb321e4d6b22fd5a56343bd4ff2dc1c3467d72cd2aa5e8bde97789aa245ec835ca22050d2bcd8dbf25b944adece358e2a7b940fe6a9906533896a6f558c419c3c5bd5e5750614de2d1a45e82d5bd9fdc482437d1febfa51c03e993265c3d4113152a4fb982c87e40c9925378b748e3cb129f880f6ae15eddf2815da1915b5218d28d975e91f52ef2cd23ae3329270a437381cb54ca82faac672c9614c93a59d97f59a2f24f6511c02806d6b37d4de1ac2328cc28e6851e61d1f3c4026cd31cf8c1c84cc185680fdaf0645b45ca30ba463afc56db9ef4b1c9cf33533db57eaf398cc2cc534b381b255833caebc4fb6c1bdd70a853d2eb2d7d87f2893ca23cd69821406e2018d004ec9613bee7c608a215155dd3ad776b72850c5ed2a51425b087b523b0fdee2888a837ce2df5a99598872cea0ec078d4a3fb8619601bfdf1117fc0725939197d0f7cce89c70a685d523d33b9877509c3c304f2c290bfcd9dfcc41543ea56bf19cfb1e6ad8bc35c78e8ea61bd89c76861b74754cff7bf327d67c5faa82c788d1ee5d8f951a3ba8362109e2de8e6b102292665122c7f0feb10ac4eb3111fd734102f3059a960f6d91e690556405158a1bafa932de279c07b5eb7b505bf7e62b76dc96293c6fa67542984f63dc286104a595b068d125cfc66ef87a7a0333ca776e5fa515126eeae26dbda6ed2e479bc8d14cef47773d76e83c914495dc9d8481f0b9ccd8ea0d67578b63693fa035ebfa040dfd9d40ac43fe25ffa4f9c393216b152e6a3641897850fafb248f7eb545c63f91bf6353efd53e4fd47712c5b30f862c8a90fb910d1868227134da23d94c85e2643efb5a5371a7353b89d56aaa612a0fc302fd93bafde2f6f0a161b806cb2a389c787148e91150ac57c337622e123777afcacbe400a8ee8b4cf864ab573bbc1240c6fab68254006ec458b0842770c091c0da483df89c0428e5838a7244f612ed38887cc222001f4dd149806825943b671f4e1c5d856bcd6476fcfb2b4fdd788d04642113987182284424935540de50a4f76d0c59eeab49cb4c664d25513895a628ae4b46b41b8e645f832597a50d92a5db7a1862c3220291227fe764a63f442e5254d788827d05ccb4e64a568ded3a487550fa85eff81bf508371d3bda63a385ff0f5f304d3c6ea06670cc5259872ea81c7712ee69baabc25a5353569d6ff31760776e74f267d7a557b76fdd75666497fb0723992dbfc2887ea636f5da332d60d3f89ea778f5435bb0e9129a0ac0e90b5bbc7de0332d027a1b777bf7c38e777c7c19b7def25f4437d9fef9d1474b897306cce595c01c546e5c5b2f1d1f5461aa9434e86f2ea983ead8927d27adcdad3ece3f81fbe5232f6955c92ececd43f49a848d8a732253195ae21fb18eb8a5cd33648fa81089545f7d009c1ef597b9561902f03d06f20eda0d05acfc54dda464d27da79f387a722705702f802c500f10f378763d15d2d86183c4e96105371c334a468663052b3d115dcbd4b9141ef66e12bfda49c600c1e4bdd5538b07e2bbdb77d550223c453e51fa9cae6e5d1b3c108de55db931d4ed69a26377e16d6ca61e4662f17fc63c3b33b3e337f3724ccc2bea7abd4a5a0d26a776211def08cb6461743006ac0ec44a1c3a1878e8840b688102945a0fdf000bea439122d9a74f988b23284ab8a4fe404e2c2b62103bd2996649db9fe816c57415a0405872584f8ae970aab1947bd3eef7a17391a9ee19a39fc4d504b36b3a7e42665aef345ea3878b27269931c27fc0e6f42424a4c4760277fe9b485dcd0f917af7605cad1b62f7453a387927753125894a9b1d7afaa1fd19d11227ed16ac68fe05bacde734befc2621d280709cf8556ad47300352e8b42936b7f53b911054d3fb02c70e24232a2ba7ab075d4611f50f2915bb68a1dbeb1523f6b26c12af3511cd6a30e0ce7d613342f5790274504e6e797e362524b5b0037450d22f536a2e52dc5fcfff3dc851062d20ca6f3eb970da571d9ddf6d4aaea1b5e6104bc6c30814be764b758fbb664dc78b3774c9eb645e9f0be1911db9f8433960e499caabdf3307e71e8d6aeeb0cf7e980565156f56e24f7b7a37ec4c8bd6586862d921844944ab40bcb53346a1d71b966839b104fb1a7615f5a3948f25a226ee89c40dd69a4d6aaac354d60310da34063ec31cbebe0cb6231b9419ef0f3be639213cad90c4e8c8efedc6d9c50a70104c766d7dcae961955a7d70a2c6b3e6ec092e54b344909f7cf0cfc2de44a15a9cda59b3f447096b2304b968b5c4a9181f90fcc343bdd8c4bdd6d10eb7995f37c2c4a1a9ad62ad6f48272a445107a1be707173e6d8f42ae1a2c0600a785ce14d005cfcea4a5b6269e26fc80c46505c2b02eda24f368ba7495907c6c8ceebb62ada6a57fa2dd5e66797ed098f5abeb2f526fed0343fc807d37bc66741726430418344a1780650c0fdf38082873a351dfaf2a40c73c0548585d6d828d93b1b7c0c8d0d9e5f00422273c4f69718081adcdedf50111145e6c75979fa9b2bdc2c6f1f7f925262a41444a5255788b8d99d2d6e9f7fc000000000000000000000000000000000000101d2d3e01fd210500432facc9630d4c3a28d5cc78a55c3166972dac8ca28abccfa7b8ee45d06f280e0509e8801287fe75339f6f752c7ba73cc93b6355c6b30615477e713ab40ad47aebaf9d08117c529785c0871803ce4f2318416ac0747811b20f5bdd93ba5d8d50dde0ba26cced3d0f9251fc6fbd248ff6f62bf365fab12d3742bbb50663eeb8bcd375ee74c3c45e55c1a2df730b23c6466dae470ba5e29eb91e80dfe05492ab3c339a9b133647c51f00f59307c7d18829d9c83ce6de5e62592da5bc0c465700406db5c92fcfe4e44705f1b7f17cbb675a5ba15194606b729779d7dfaf28e894773e5363bd7395567a5ab86090bc455b77383fb114f05931d5735b7597d805cec4c4df01be5ba225cbbf1ee38dfafe6fd7caa8b7217e5ee8e4af412c9155c970386abb88ea826ea23dcc71f12a784b2db769784f4dd1e8e936de8bbb14ff005f069c740d420177ba5656ee5d6160d3f82ecb9b5ac5fd0bb15b6a8d426d6aa8a5da23860e41a1cbbe5001bd11695f96c387eaa77f956005fd5f509c40b76105855c281f4c15f087702d60a2e101ce9efc8626123192f2e4559010ada25df4af58942f54b2817f9d3f8b16ff1af61fc8deb96edb858e0df0131430e71136d0f4519cf9bdbbc788d6575f48b6d3733f178d5008b777f7b021b5be54cf2ecc697f1dea8dee13302687835a0d46c454d45ece3f9be9ee3a13864bcf6a47482a08d7a1170fa7c3bf9cf8c3186290346495230aef46c5b35d159addc6c0c5197c075a62b22407373d8487ffaea0a3498dd89b833fce12b9ad460e1cc938296b44887c419d5d22e3a65dc551ae0df29f58203f94da534eb85947a9eb7fd12b4260dd311022e00834293be42bcad1b456140267a6268afb884b836e80f37ffa408a73e7e31468a5a25562eec5ca5b9f9715c60d8b1f49bdb9a13792175170f1bab1ff6dc7d27026db0e139727cdc054a2802529e1f4485ac2a4961758f5ece464f222c5f164c6fdc29492aee884c499c8d8faa014226ce875a03a7054b094dbbc67d23e2ace3ebd70bac288ad031bbb4857e941031be59c82a0f3e8f66614c41246c35055013019c2a3e38803099de85e54d07a320a8e6dfddc079f5dad13599136be07cba74159d9aeefec0f7564f8be6d69c3ca2e5733ead9b72d84fa49e3c95c508895c80bad2f080822b88a6ceccc57796e21eb41bc90c48a3010b5161b700098335df5fc9353c97d4b1d42f0719dccc23a804947f3eb9dc30d74de4aadd7a33631d39c0905fad896bce35bf3ad28178864057449ed4128a4d7749eb379db69543d780cac8bce4ebbfa549d59fe2345dc0e05bac52e01ce6909331d97f128862c00357ede4df4cf3ad220e6a26626bb19a81e9403fe39bc557a28bf8ae15d092593ff647742b11a6b0afb4eb8a41bd626edae37d42bc40e3076927233e4e1058be62f647e7a3a19d45c9d1369314a9a18d5bd3f9597a3bf1c6ab07870410217ef9c30910e0e3b2f262946980248103641c3be5cc358ba0593a0b514b0a1ad731c120df80c23cf8b12b0d7e169064fd71b32fe8f742249cec7554170ff21657064dc2cdc93d875b5bd60c22f49e11838f80ecd18ba9f8db01fe00cc7ef9dc1e3b053ad6342571a48fc83b418cfcf3662958fbcffe8cbe97d980c4728d935c2770b5d6b0e1c005ced5a9671d855b82cf18ad8f6ab8946c7c872d742ef885165b94908c70caa3e5d6ed69c01b4846e91bf1c6905a36aa71da9d2dbbe0877895c5c80fa5a6b60b86d2279af4fdd4296fcca5b263d7a894f6ea9b13abe0f1428be6da6075580c41eadfe4ec2f3260fc1cb59c0ce783f82c5ce0245a8a0d9aeef1ac1f0131fb976000000",
  "txid": "662d5a231f0548a9c86b1411d3b7809ebb179ee11ab0fda972ef5131aab5ed5f",
  "hash": "c4f7f5a6ccba7f602198b411e0ef2b86e61d4fb1d75edc6c2ea94b08f00625be",
  "size": 5085,
  "vsize": 2278,
  "version": 1,
  "locktime": 118,
  "vin": [
    {
      "txid": "541b050b90f4987426219dc6f8ab506b4dcc22ac85261065d102a877a9fcbc47",
      "vout": 0,
      "scriptSig": {
        "asm": "",
        "hex": ""
      },
      "txinwitness": [
        "2b12ee7e3cb41e17e23255e3cf998e965bf3ec749ccd257207e9ec3a2941e06be49a87ac6b3a6dd54ebacdee71633fd521579d32ac3ccc7667e7ebf2a819243ec86c7b7aaee846ca12183930f7339fcd6e5e1a2d1c06f065d6cc3855a3dcb8328ac2a5394c31ca59e1b47b35fce35ca101d1d7e60da86966a2ab96d47bffd459b92a745bad3d4350da30021b0d5de12934568651ebd81b334039e8db2cfefee55621301f180b46cb4ef6de3bfd27d30ae82aebf26b3906e983bfa73f05529a25647448ad5d385f8a42a324096775b09558f87341635c0a208bbc3faff37f6c6ec48dc1d131f02398b2c0a833f1f8f8f81a63f85d9faa5cb38f3be9b898ca8844e76c81086ad76c94f594d2c7c5fe56e12a717c1eb6a4565009f38582caa50e5927ac58cfa8dc8cda27db94e151fe16de072adfef1ccfa5553515d558cd78e22e544b4db27b14fa6fa39b446c373a69bc854e64e1679b130171cc8e22135265d00efb707ecbafbce65282040548fe99dc54fa054efa6b28b070b7b45e17f98641ef5d16a1cbf63f783106a3c23bfe44dd48919c3432e222a3492e02f175954fa4e986ed9406c9462bbbbdcfaba9b8315e29e7066fa5a63cfc87d588440f3a59404cdd2c6be96cb1f76af8c482a3f8ad25a413238b5cb835d0df99c1ab1d439c756eb74ce58413628e1fcb01cb4dbd68af734ad35f906107458617fd8db860281d70ed50fd347040c925f6c96fedbe6b33f82fc7a48b5fb3fa202983956331826e43195858b051bf867c5fc574984619edd3c7921a3cfeeb4c835537a033fc2b2acd36123818304d2cb321e4d6b22fd5a56343bd4ff2dc1c3467d72cd2aa5e8bde97789aa245ec835ca22050d2bcd8dbf25b944adece358e2a7b940fe6a9906533896a6f558c419c3c5bd5e5750614de2d1a45e82d5bd9fdc482437d1febfa51c03e993265c3d4113152a4fb982c87e40c9925378b748e3cb129f880f6ae15eddf2815da1915b5218d28d975e91f52ef2cd23ae3329270a437381cb54ca82faac672c9614c93a59d97f59a2f24f6511c02806d6b37d4de1ac2328cc28e6851e61d1f3c4026cd31cf8c1c84cc185680fdaf0645b45ca30ba463afc56db9ef4b1c9cf33533db57eaf398cc2cc534b381b255833caebc4fb6c1bdd70a853d2eb2d7d87f2893ca23cd69821406e2018d004ec9613bee7c608a215155dd3ad776b72850c5ed2a51425b087b523b0fdee2888a837ce2df5a99598872cea0ec078d4a3fb8619601bfdf1117fc0725939197d0f7cce89c70a685d523d33b9877509c3c304f2c290bfcd9dfcc41543ea56bf19cfb1e6ad8bc35c78e8ea61bd89c76861b74754cff7bf327d67c5faa82c788d1ee5d8f951a3ba8362109e2de8e6b102292665122c7f0feb10ac4eb3111fd734102f3059a960f6d91e690556405158a1bafa932de279c07b5eb7b505bf7e62b76dc96293c6fa67542984f63dc286104a595b068d125cfc66ef87a7a0333ca776e5fa515126eeae26dbda6ed2e479bc8d14cef47773d76e83c914495dc9d8481f0b9ccd8ea0d67578b63693fa035ebfa040dfd9d40ac43fe25ffa4f9c393216b152e6a3641897850fafb248f7eb545c63f91bf6353efd53e4fd47712c5b30f862c8a90fb910d1868227134da23d94c85e2643efb5a5371a7353b89d56aaa612a0fc302fd93bafde2f6f0a161b806cb2a389c787148e91150ac57c337622e123777afcacbe400a8ee8b4cf864ab573bbc1240c6fab68254006ec458b0842770c091c0da483df89c0428e5838a7244f612ed38887cc222001f4dd149806825943b671f4e1c5d856bcd6476fcfb2b4fdd788d04642113987182284424935540de50a4f76d0c59eeab49cb4c664d25513895a628ae4b46b41b8e645f832597a50d92a5db7a1862c3220291227fe764a63f442e5254d788827d05ccb4e64a568ded3a487550fa85eff81bf508371d3bda63a385ff0f5f304d3c6ea06670cc5259872ea81c7712ee69baabc25a5353569d6ff31760776e74f267d7a557b76fdd75666497fb0723992dbfc2887ea636f5da332d60d3f89ea778f5435bb0e9129a0ac0e90b5bbc7de0332d027a1b777bf7c38e777c7c19b7def25f4437d9fef9d1474b897306cce595c01c546e5c5b2f1d1f5461aa9434e86f2ea983ead8927d27adcdad3ece3f81fbe5232f6955c92ececd43f49a848d8a732253195ae21fb18eb8a5cd33648fa81089545f7d009c1ef597b9561902f03d06f20eda0d05acfc54dda464d27da79f387a722705702f802c500f10f378763d15d2d86183c4e96105371c334a468663052b3d115dcbd4b9141ef66e12bfda49c600c1e4bdd5538b07e2bbdb77d550223c453e51fa9cae6e5d1b3c108de55db931d4ed69a26377e16d6ca61e4662f17fc63c3b33b3e337f3724ccc2bea7abd4a5a0d26a776211def08cb6461743006ac0ec44a1c3a1878e8840b688102945a0fdf000bea439122d9a74f988b23284ab8a4fe404e2c2b62103bd2996649db9fe816c57415a0405872584f8ae970aab1947bd3eef7a17391a9ee19a39fc4d504b36b3a7e42665aef345ea3878b27269931c27fc0e6f42424a4c4760277fe9b485dcd0f917af7605cad1b62f7453a387927753125894a9b1d7afaa1fd19d11227ed16ac68fe05bacde734befc2621d280709cf8556ad47300352e8b42936b7f53b911054d3fb02c70e24232a2ba7ab075d4611f50f2915bb68a1dbeb1523f6b26c12af3511cd6a30e0ce7d613342f5790274504e6e797e362524b5b0037450d22f536a2e52dc5fcfff3dc851062d20ca6f3eb970da571d9ddf6d4aaea1b5e6104bc6c30814be764b758fbb664dc78b3774c9eb645e9f0be1911db9f8433960e499caabdf3307e71e8d6aeeb0cf7e980565156f56e24f7b7a37ec4c8bd6586862d921844944ab40bcb53346a1d71b966839b104fb1a7615f5a3948f25a226ee89c40dd69a4d6aaac354d60310da34063ec31cbebe0cb6231b9419ef0f3be639213cad90c4e8c8efedc6d9c50a70104c766d7dcae961955a7d70a2c6b3e6ec092e54b344909f7cf0cfc2de44a15a9cda59b3f447096b2304b968b5c4a9181f90fcc343bdd8c4bdd6d10eb7995f37c2c4a1a9ad62ad6f48272a445107a1be707173e6d8f42ae1a2c0600a785ce14d005cfcea4a5b6269e26fc80c46505c2b02eda24f368ba7495907c6c8ceebb62ada6a57fa2dd5e66797ed098f5abeb2f526fed0343fc807d37bc66741726430418344a1780650c0fdf38082873a351dfaf2a40c73c0548585d6d828d93b1b7c0c8d0d9e5f00422273c4f69718081adcdedf50111145e6c75979fa9b2bdc2c6f1f7f925262a41444a5255788b8d99d2d6e9f7fc000000000000000000000000000000000000101d2d3e01",
        "00432facc9630d4c3a28d5cc78a55c3166972dac8ca28abccfa7b8ee45d06f280e0509e8801287fe75339f6f752c7ba73cc93b6355c6b30615477e713ab40ad47aebaf9d08117c529785c0871803ce4f2318416ac0747811b20f5bdd93ba5d8d50dde0ba26cced3d0f9251fc6fbd248ff6f62bf365fab12d3742bbb50663eeb8bcd375ee74c3c45e55c1a2df730b23c6466dae470ba5e29eb91e80dfe05492ab3c339a9b133647c51f00f59307c7d18829d9c83ce6de5e62592da5bc0c465700406db5c92fcfe4e44705f1b7f17cbb675a5ba15194606b729779d7dfaf28e894773e5363bd7395567a5ab86090bc455b77383fb114f05931d5735b7597d805cec4c4df01be5ba225cbbf1ee38dfafe6fd7caa8b7217e5ee8e4af412c9155c970386abb88ea826ea23dcc71f12a784b2db769784f4dd1e8e936de8bbb14ff005f069c740d420177ba5656ee5d6160d3f82ecb9b5ac5fd0bb15b6a8d426d6aa8a5da23860e41a1cbbe5001bd11695f96c387eaa77f956005fd5f509c40b76105855c281f4c15f087702d60a2e101ce9efc8626123192f2e4559010ada25df4af58942f54b2817f9d3f8b16ff1af61fc8deb96edb858e0df0131430e71136d0f4519cf9bdbbc788d6575f48b6d3733f178d5008b777f7b021b5be54cf2ecc697f1dea8dee13302687835a0d46c454d45ece3f9be9ee3a13864bcf6a47482a08d7a1170fa7c3bf9cf8c3186290346495230aef46c5b35d159addc6c0c5197c075a62b22407373d8487ffaea0a3498dd89b833fce12b9ad460e1cc938296b44887c419d5d22e3a65dc551ae0df29f58203f94da534eb85947a9eb7fd12b4260dd311022e00834293be42bcad1b456140267a6268afb884b836e80f37ffa408a73e7e31468a5a25562eec5ca5b9f9715c60d8b1f49bdb9a13792175170f1bab1ff6dc7d27026db0e139727cdc054a2802529e1f4485ac2a4961758f5ece464f222c5f164c6fdc29492aee884c499c8d8faa014226ce875a03a7054b094dbbc67d23e2ace3ebd70bac288ad031bbb4857e941031be59c82a0f3e8f66614c41246c35055013019c2a3e38803099de85e54d07a320a8e6dfddc079f5dad13599136be07cba74159d9aeefec0f7564f8be6d69c3ca2e5733ead9b72d84fa49e3c95c508895c80bad2f080822b88a6ceccc57796e21eb41bc90c48a3010b5161b700098335df5fc9353c97d4b1d42f0719dccc23a804947f3eb9dc30d74de4aadd7a33631d39c0905fad896bce35bf3ad28178864057449ed4128a4d7749eb379db69543d780cac8bce4ebbfa549d59fe2345dc0e05bac52e01ce6909331d97f128862c00357ede4df4cf3ad220e6a26626bb19a81e9403fe39bc557a28bf8ae15d092593ff647742b11a6b0afb4eb8a41bd626edae37d42bc40e3076927233e4e1058be62f647e7a3a19d45c9d1369314a9a18d5bd3f9597a3bf1c6ab07870410217ef9c30910e0e3b2f262946980248103641c3be5cc358ba0593a0b514b0a1ad731c120df80c23cf8b12b0d7e169064fd71b32fe8f742249cec7554170ff21657064dc2cdc93d875b5bd60c22f49e11838f80ecd18ba9f8db01fe00cc7ef9dc1e3b053ad6342571a48fc83b418cfcf3662958fbcffe8cbe97d980c4728d935c2770b5d6b0e1c005ced5a9671d855b82cf18ad8f6ab8946c7c872d742ef885165b94908c70caa3e5d6ed69c01b4846e91bf1c6905a36aa71da9d2dbbe0877895c5c80fa5a6b60b86d2279af4fdd4296fcca5b263d7a894f6ea9b13abe0f1428be6da6075580c41eadfe4ec2f3260fc1cb59c0ce783f82c5ce0245a8a0d9aeef1ac1f0131fb9"
      ],
      "sequence": 4294967294
    }
  ],
  "vout": [
    {
      "value": 499979.662,
      "n": 0,
      "scriptPubKey": {
        "asm": "1 b185a58bb326a9cc40d6a38f4e4e618c03498bb4e87c6195233690901531f5eb",
        "hex": "5120b185a58bb326a9cc40d6a38f4e4e618c03498bb4e87c6195233690901531f5eb",
        "reqSigs": 1,
        "type": "witness_v1_scripthash",
        "addresses": [
          "3QJmnh"
        ]
      }
    },
    {
      "value": 1.0,
      "n": 1,
      "scriptPubKey": {
        "asm": "OP_RETURN 6411f034c8825519e4c3daed0de9ccfef09f48a163a74d986b99887cf328c96e 7af3936fb9e63733281e6e147042e4c7f3225dc830a642dcff700dea6d312fa45ad3b34f99c61713083e4e345062c4e7d3027de8108662fcdf502dca4d110f843ab3d32ff9a67773685e2e543002a487b3621d8870e6029cbf304daa2d716fe41a93f30fd9865753487e0e74102284a793423da850c622bc9f106d8a0d514fc4fa7313ef3966b7b3a89eee94f0c2644773a2dd48b026c25c7ff08d6aedb1af24da5333cf1946979388beceb4d0e244675382fd689006e27c5fd0ad4acd918f04ba3353af7926f7f3e8deaed4b082240733e29d08f066821c3fb0cd2aadf1ef649a13738f5906d7d3c8fe8ef490a2042713c2bd28d046a23c1f90ed0a8dd1cf447af3936fb9e63733281e6e147042e4c7f3225dc830a642dcff700dea6d312fa45ad3b34f99c61713083e4e345062c4e7d3027de8108662fcdf502dca4d110f843ab3d32ff9a67773685e2e543002a487b3621d8870e6029cbf304daa2d716fe41a93f30fd9865753487e0e74102284a793423da850c622bc9f106d8a0d514fc4fa7313ef3966b7b3a89eee94f0c2644773a2dd48b026c25c7ff08d6aedb1af24da5333cf1946979388beceb4d0e244675382fd689006e27c5fd0ad4acd918f04ba3353af7926f7f3e8deaed4b082240733e29d08f066821c3fb0cd2aadf1ef649a13738f5906d7d3c8fe8ef490a2042713c2bd28d046a23c1f90ed0a8dd1cf447af3936fb9e63733281e6e147042e4c7f3225dc830a642dcff700dea6d312fa45ad3b34f99c61713083e4e345062c4e7d3027de8108662fcdf502dca4d110f843ab3d32ff9a67773685e2e543002a487b3621d8870e6029cbf304daa2d716fe41a93f30fd9865753487e0e74102284a793423da850c622bc9f106d8a0d514fc4fa7313ef3966b7b3a89eee94f0c2644773a2dd48b026c25c7ff08d6aedb1af24da5333cf1946979388beceb4d0e244675382fd689006e27c5fd0ad4acd918f04ba3353af7926f7f3e8deaed4b082240733e29d08f066821c3fb0cd2aadf1ef649a13738f5906d7d3c8fe8ef490a2042713c2bd28d046a23c1f90ed0a8dd1cf447af3936fb9e63733281e6e147042e4c7f3225dc830a642dcff700dea6d312fa45ad3b34f99c61713083e4e345062c4e7d3027de8108662fcdf502dca4d110f843ab3d32ff9a67773685e2e543002a487b3621d8870e6029cbf304daa2d716fe41a93f30fd9865753487e0e74102284a793423da850c622bc9f106d8a0d514fc4fa7313ef3966b7b3a89eee94f0c2644773a2dd48b026c25c7ff08d6aedb1af24da5333cf1946979388beceb4d0e244675382fd689006e27c5fd0ad4acd918f04ba3353af7926f7f3e8deaed4b082240733e29d08f066821c3fb0cd2aadf1ef649a13738f5906d7d3c8fe8ef490a2042713c2bd28d046a23c1f90ed0a8dd1cf447af3936fb9e63733281e6e147042e4c7f3225dc830a642dcff700dea6d312fa45ad3b34f99c61713083e4e345062c4e7d3027de8108662fcdf502dca4d110f843ab3d32ff9a67773685e2e543002a487b3621d8870e6029cbf304daa2d716fe41a93f30fd9865753487e0e74102284a793423da850c622bc9f106d8a0d514fc4fa7313ef3966b7b3a89eee94f0c2644724be2442414fbd4e1bd989b444c8ec2bd56deba80d0c6d74b2e4947360ac2e50",
        "hex": "6a206411f034c8825519e4c3daed0de9ccfef09f48a163a74d986b99887cf328c96e4db0047af3936fb9e63733281e6e147042e4c7f3225dc830a642dcff700dea6d312fa45ad3b34f99c61713083e4e345062c4e7d3027de8108662fcdf502dca4d110f843ab3d32ff9a67773685e2e543002a487b3621d8870e6029cbf304daa2d716fe41a93f30fd9865753487e0e74102284a793423da850c622bc9f106d8a0d514fc4fa7313ef3966b7b3a89eee94f0c2644773a2dd48b026c25c7ff08d6aedb1af24da5333cf1946979388beceb4d0e244675382fd689006e27c5fd0ad4acd918f04ba3353af7926f7f3e8deaed4b082240733e29d08f066821c3fb0cd2aadf1ef649a13738f5906d7d3c8fe8ef490a2042713c2bd28d046a23c1f90ed0a8dd1cf447af3936fb9e63733281e6e147042e4c7f3225dc830a642dcff700dea6d312fa45ad3b34f99c61713083e4e345062c4e7d3027de8108662fcdf502dca4d110f843ab3d32ff9a67773685e2e543002a487b3621d8870e6029cbf304daa2d716fe41a93f30fd9865753487e0e74102284a793423da850c622bc9f106d8a0d514fc4fa7313ef3966b7b3a89eee94f0c2644773a2dd48b026c25c7ff08d6aedb1af24da5333cf1946979388beceb4d0e244675382fd689006e27c5fd0ad4acd918f04ba3353af7926f7f3e8deaed4b082240733e29d08f066821c3fb0cd2aadf1ef649a13738f5906d7d3c8fe8ef490a2042713c2bd28d046a23c1f90ed0a8dd1cf447af3936fb9e63733281e6e147042e4c7f3225dc830a642dcff700dea6d312fa45ad3b34f99c61713083e4e345062c4e7d3027de8108662fcdf502dca4d110f843ab3d32ff9a67773685e2e543002a487b3621d8870e6029cbf304daa2d716fe41a93f30fd9865753487e0e74102284a793423da850c622bc9f106d8a0d514fc4fa7313ef3966b7b3a89eee94f0c2644773a2dd48b026c25c7ff08d6aedb1af24da5333cf1946979388beceb4d0e244675382fd689006e27c5fd0ad4acd918f04ba3353af7926f7f3e8deaed4b082240733e29d08f066821c3fb0cd2aadf1ef649a13738f5906d7d3c8fe8ef490a2042713c2bd28d046a23c1f90ed0a8dd1cf447af3936fb9e63733281e6e147042e4c7f3225dc830a642dcff700dea6d312fa45ad3b34f99c61713083e4e345062c4e7d3027de8108662fcdf502dca4d110f843ab3d32ff9a67773685e2e543002a487b3621d8870e6029cbf304daa2d716fe41a93f30fd9865753487e0e74102284a793423da850c622bc9f106d8a0d514fc4fa7313ef3966b7b3a89eee94f0c2644773a2dd48b026c25c7ff08d6aedb1af24da5333cf1946979388beceb4d0e244675382fd689006e27c5fd0ad4acd918f04ba3353af7926f7f3e8deaed4b082240733e29d08f066821c3fb0cd2aadf1ef649a13738f5906d7d3c8fe8ef490a2042713c2bd28d046a23c1f90ed0a8dd1cf447af3936fb9e63733281e6e147042e4c7f3225dc830a642dcff700dea6d312fa45ad3b34f99c61713083e4e345062c4e7d3027de8108662fcdf502dca4d110f843ab3d32ff9a67773685e2e543002a487b3621d8870e6029cbf304daa2d716fe41a93f30fd9865753487e0e74102284a793423da850c622bc9f106d8a0d514fc4fa7313ef3966b7b3a89eee94f0c2644724be2442414fbd4e1bd989b444c8ec2bd56deba80d0c6d74b2e4947360ac2e50",
        "type": "nulldata"
      }
    }
  ],
  "blockhash": "c592ff09702ccc153ea7e0356b0e5a10b37ebf9436b5bd4870b29e5d1c636d36",
  "confirmations": 1,
  "time": 1764179615,
  "blocktime": 1764179615
}