{
  "hex": "010000000001013fb3b4ab500e7fd54609004187ee3009d82b3f8ea19fe5ce865fb541393d396e0100000000feffffff0200e1f50500000000fdd5046a206c41229dfa1d595665a807b6ab49da2432c3818aee32d3a2e2a4dcaf147281784db004293185e7f33110ca6d6e6e458d9ad851c1fa34c8ed48b8e080caa0f1d02cd4c00911a5c7d31130ea4d4e4e65adbaf871e1da14e8cd6898c0a0ea80d1f00cf4e06971c5a7b371508a2d2e2e05cdda981181ba7488ad08f8a0c08ae0b1906c94804951e587935170aa0d0e0e25edfab831a19a54a88d28d880e0aac091b04cb4a0a9b1056773b1904aedeeeec50d1a58d1417ab4486dc83860004a207150ac5440899125475391b06acdcecee52d3a78f1615a94684de81840206a0051708c7460e9f1452733f1d00aadaeae854d5a1891013af4082d887820400a603110ec1400c9d1650713d1f02a8d8e8ea56d7a38b1211ad4280da85800602a401130cc3420293185e7f33110ca6d6e6e458d9ad851c1fa34c8ed48b8e080caa0f1d02cd4c00911a5c7d31130ea4d4e4e65adbaf871e1da14e8cd6898c0a0ea80d1f00cf4e06971c5a7b371508a2d2e2e05cdda981181ba7488ad08f8a0c08ae0b1906c94804951e587935170aa0d0e0e25edfab831a19a54a88d28d880e0aac091b04cb4a0a9b1056773b1904aedeeeec50d1a58d1417ab4486dc83860004a207150ac5440899125475391b06acdcecee52d3a78f1615a94684de81840206a0051708c7460e9f1452733f1d00aadaeae854d5a1891013af4082d887820400a603110ec1400c9d1650713d1f02a8d8e8ea56d7a38b1211ad4280da85800602a401130cc3420293185e7f33110ca6d6e6e458d9ad851c1fa34c8ed48b8e080caa0f1d02cd4c00911a5c7d31130ea4d4e4e65adbaf871e1da14e8cd6898c0a0ea80d1f00cf4e06971c5a7b371508a2d2e2e05cdda981181ba7488ad08f8a0c08ae0b1906c94804951e587935170aa0d0e0e25edfab831a19a54a88d28d880e0aac091b04cb4a0a9b1056773b1904aedeeeec50d1a58d1417ab4486dc83860004a207150ac5440899125475391b06acdcecee52d3a78f1615a94684de81840206a0051708c7460e9f1452733f1d00aadaeae854d5a1891013af4082d887820400a603110ec1400c9d1650713d1f02a8d8e8ea56d7a38b1211ad4280da85800602a401130cc3420293185e7f33110ca6d6e6e458d9ad851c1fa34c8ed48b8e080caa0f1d02cd4c00911a5c7d31130ea4d4e4e65adbaf871e1da14e8cd6898c0a0ea80d1f00cf4e06971c5a7b371508a2d2e2e05cdda981181ba7488ad08f8a0c08ae0b1906c94804951e587935170aa0d0e0e25edfab831a19a54a88d28d880e0aac091b04cb4a0a9b1056773b1904aedeeeec50d1a58d1417ab4486dc83860004a207150ac5440899125475391b06acdcecee52d3a78f1615a94684de81840206a0051708c7460e9f1452733f1d00aadaeae854d5a1891013af4082d887820400a603110ec1400c9d1650713d1f02a8d8e8ea56d7a38b1211ad4280da85800602a401130cc3420293185e7f33110ca6d6e6e458d9ad851c1fa34c8ed48b8e080caa0f1d02cd4c00911a5c7d31130ea4d4e4e65adbaf871e1da14e8cd6898c0a0ea80d1f00cf4e06971c5a7b371508a2d2e2e05cdda981181ba7488ad08f8a0c08ae0b1906c94804951e587935170aa0d0e0e25edfab831a19a54a88d28d880e0aac091b04cb4a0a9b1056773b1904aedeeeec50d1a58d1ad2fce9dc1bfb6739b881e8b82041243e214f8972853b77e897dfb300bb4101e8079ca95782d0000225120b4d1c6e7144afd54977788d9191a03c5ffde76c8c8cf1518d25789bb49936d5302fd7509e2968b8cf1a68476a9e1d4796800b5186b57ca5546f1bc1e6d4992a1635794fefeaf2c20cbddc72d78845afa6972b23f692f93cf266288a887005672faaf8ad6681ed16b01e7870c47a449f39b011949db77e03bd268de992f5120bd29e796240120a3266837e8cbb586356faee9d8f4f90f26958093caf89db35c671be97039fb0429d95588232d66d57e7b27be1e90ca6d88b3eb75def9aba1e8836f194fe49c9f076c5cd9eec40ac8733c038b33b320f30f4e93dc20b921e1918eb91e184d122b915436e8f90d3944b71466558d6251db3da5f5818ba896de2696c29d90640c016f083d37e7445b53429b7271cb2bca63899da22c2af6521521e524c11a7257e9323346988bb8aa6430bb72fe10fbd4eb3d98ffc8c884a49e2cd91e13a9e0cd74f5e9fc0157e8eb40097d5737ecbe41e225a0052ec69e60136598212b3b9b85549ab6227c03238f51f586c9bb32b93ae0426ec79328e0d9e8611baa49b90522012d003ade814d46b4fb427bc88003e26af2eaceabf3c6dfc79e20b51e1853e4b57e70d64e50883d931271d3eb758c3a85ce7f38fde66936b0495e3b96dc5729e8a484fd35e777fe0284f07af3c3ea13f16ebd59ce5a7c425e48b383ea0f699706d0ab1d1e53384050ea3c2436dc674f79c2176e1a633d09ce1773e09df6dd669790b39c2ff025c801bc37c88f4934c7b8bb12cceaeef47ec4657271788a2fc262bc7a0409af199e5bebd3ee63e80a9c3315de05d3e340f830478a903bf6fc4666dfc02b6c2d6fbaa2789d40f270393604518ce13f302fc4c87e2e99b0a56c6d8f3e3d5f9d71535227c64c138e5c1618da013dad18be0f1ac76b15be9704fcaa8818027de4687d2996cacd65466c8a0e39d548b4e414581cc60e38ed0b8e734d089f5cf99bb0fba48e57c034e8517103b0b42a38ca3a4850ce52c0ec8a963dd5f2f966e050caefff1726d469a7268258ffa453b02db1769c7cd0b0c70172cef757e4d188a22ba8f8fee0f6c372bc784e93f316043390885ce6884d8bf02e80e1b3cea9c8d0f85ddf30f8ce42033a984605cacaf939a316b09be3a7c8f3495145b93ed3aae1a69c2ad9300e46ebe1526b6f453308940c62326aa2197a59802ea484818eed38733a0483d37f5697374be56464a1d62a1859f53aaae609dbcbee59f38cc9627b7500b83b8b42a3475c3d31364536dc714ed665f2f06d83b8742bc8795f7f7962f21b61b5f9b079ff98dd5fc812b7f4e690e898365ee05f6fae56adaf0ff47d9b146afa3c60c739d01916cec3e45a2a1c26521388cf65d6c734bd4da682515067ab5e4ae10a71519229520aed5c0ea26fc1c864d57da0eac47b07132027b4080f3ee0216fbd9a901490eb1f4a71930db56a2067bb720ae1cb1511177ffb3a44fd379891fba3fe8e46367b313c08a0df7b0fc43b9a881ae2c470ab86dbead2e2ff0803c4b6a3c89b0b803bf7c99b97f40f30607be43260dbff95fd7974d17380454e82a631a0ad1bc5c416d19be62d22fb7c554716a7553de2e29eab62835235a8a67eedb233b45c53d1d5f9296a8f1e2f69c93697c1970d530ee71cfc4042f7bc321c67ce5d70bbf9438a982860f0cfa57e80387c185239ad11725a852ef36e8b550095a271e2ff1befe7e6a88367a9b583ddd111e72ef0b9bda340f78109eccfdb154258f8fdfd83493c1df32d773ce10def404b434b9c2a3d2505b4e933cc2d7c27e330322f492071e01a8c52e22758007e37c9520b731e9d111e9c03d7a63cc040c3ec7dfa9177ec97ae6e978c8c823eb908538c891558c3c55f97ab49ea5b5b314348a1d4e8e7600b144606800306b9931a2bef43dbfb2e593c4b06c996430cd9df43dee4dc0fd0ce9144b237381d4ef787f2da484c62e4675e0208e77bd5c02fb648218f628eddaa8cd57293a6376674114732229f2fa5e56366f0b6e47c20a06b4047016761356512538e189c9a7111b35ee20ab55f15803bb78cf29e80a16fe086c4f4d74c284fbe1590ca0453aa62dd6a696776c988e339f1f4f24baa6a51800a65c7f96fc9599fb3012ae6d94d8931916c7e7970d37e4785e71d4ea5a5c39c02229774dfa6133c572f8abc619ea4be73068ce88ac9fdbeed1edaa309b6eb693ef79649cee381176132eb4f87bda2080fc3acd547f8568a3f5d39d49ba7a6454f03d8bf39894c92d86efee62c1d9c6fcaa67221f396c2ae0f4d1b4ba4e60668ffe2ba28bd3173812747708f634fb8cb5746f7227527d9533fd4fd9f59b0a08e4cb0b6028e2bf14b961f518a0ff817423b2f172df57c0889eb979f9e979bc1e1ca15a65716d83f3ac0eb00e8d5f7aad4b64eb7a0ef44a74b80d3d2abed9df6fc4c14eae9cf123a835cd0da193a5de3b0ab07bdad662be188e840ac8bee51f94f56dc8ccbdf3bc22349355db5447c8b8b65437e953a6f4d95bf2fb3402c4fc16253e4307e6dc583f7f348da8d20b3a1d5041a85b052c97e429c5ccf4919ba2342d016f6d2bc825b486fc84d9e814dd02a2a1e45ebd02c1d14010168c57c81c81f4be98ef8caba0262e39811204debdfca84c831339b9693dc3275f7c6827d12c0c2c862597c317232c739a24af2fc63c60798166e0e15a6578131e9451e9f282909781e7ddf6d86ba895e748853ff70af93c42fe77b5dbeec8364e33d90cd26a3c93e117d8d9f907d29be7b676052b27b05ea0c0e456f20b9c63c864c55ba533831bf9df2403baa8c7cd611f53be1dc6c69bde11168717a3a0a231d1412fa984e207f9133ad8221f69b0eea48e077499baba84e4dde0784970d2aa4e6496ee25271d24d76b8a944fc32e85ffe6c9fc8bd38e8a05f466239aa7ba60fa00acc54b096674e5c0914d7d36de9327c93243d83d0aa9c1f4675f45a2fe5c74ffe6d47852392a857ad1e76c7b503be381d2bc10f426a63b4397df833aca04f8ee836ebdf8ffb6c0fcdc7172c5e7bba995ce2a01d882bf55f14721f6c5d785b1a7a3d8e4fdde4359b7f1860b986cced3dbeac16552cad756047696995e7ddb1c31d22aac3b01ef6e4d9e544170212a15c43f8ca96498d5f6179a45991855621eebfa35c7b0d1a490809d7a7a3239ce3bd6893aeeb00750388811a20245924f64a69d9458a8305ee68bc28531581df331d8561f94f5bfc114076545cba15a5a78876253983f3797b86b2dbc12e1d749a64c926da0fb13d1560f1fe7ef7e94cde0785f19f296a426042a47d614edc7690af43eaf2a36bd438b0f9eb0398923181707b7db0b0e01089ae69b61da6fc7f6489638577a462ff61b09ae0da090f125193becbd2d7dafc33516775808cb6c0dee9eaecf7f92526354d5b899495999ecbd9e0eef1f8091a2426272c4c5771778ea7b3b6c8dce0ff0000000000000000000000000000000000000000000b19293b01fd21050008cc7275f95f539111846d67b0da840b7cf49c2aac5004b9b606a261d83ede1d8786503b733f1ce7470b8b9451417f94378171893e4a7d532091fef390ffb03faa58dd44b509653d7fed28a5f67f74aabcd965e61c6f266e3d31bb7a778f2b6c692a35acff44d8d44791351b0e9878bf711ddba66dae372ec07171dc703df6e6c85c0cd5e4048d5dfc2a257fade0da7e49aea5294104f72b3acb021b20c7e261f61233d67f3d66205591a1a1ee69e1948cb1c872a8548e1b3bf8788c0dff0e3e50b8c75d97ac46442e4ae9f3ec97c0b7b96c31ab3564ad0a9d448c26f8bbec369054e0710b0e6df99881d3d042a286b6209ad4a9050bab0e5239ed50d453fa16d8b4cc3c2a52fa078ca08a6080cd1f9fce64f4b2a6b534504429297e729caaa0f9fdfd09c39f80aa2eb4be6d3c71e9f50d244cb831f84d15e03b48b46376a1a6d2c86e92ef3b979ef595edf6fe47cff320045ea8f9d89329b4e3153bc5ee2e3d3d88afe7ff96fead0e086eb932e25a066b41508821512baf2800960ec3a670de37a09104273085a3ff398af1e0846dbb4a22e71d309bf5d35e5de3c10ed851fb06d548ca26ec450547828ddf3fa99b97179f5044fe763f365f9fb63a17fcc9cb55998ec6ee1a41d57bea6808b51c31b539ddc3d6e9357b6b79492272e8bd9db982492ed3ac29364f9f454212751566b92a1132bfa678699667e916e71ddf95bf90c05db2b36de90be41f59f766902bb1b0d6ede33e57f2d2968ef038a8e2d2bf99ae3e6e23664e12a67fc50fd30d4d61861ccae6982360b4256c88b267559df2a36b1093a02b349b6811dd2707652d0fb616641a8d409b4782bf8e199672bd34964d7439885e5cb5896d337ee14a0d9de36aa3c1229e03a90f0ef3311818f784662ba1b884351e5650499de60b3bcf41f9a77b7553d3f6bd2591bb9af56217ab2fee6f3edbf98b9ad586a90bb39735012db9be237303c624a53ee5afefd183dc58f239d0766ad2fcc5a8d1065ba6698614a9d2b0009c498e83190076e9623e6f29c8800bce57125775563b917174f1b9d774dad75ffbaaea76013951d398b59b1d186fd124adabea3ebd33f310c7044678a9387d74c2dce9a0f02cb5213d3a9ddd2773ca36f33583cfbbf1e8e4f40af16fdce030fee6d56e4cd3c08a50fe1ac2ab63b31252b2c258e9216d72ab4d9c1ff40f11bff850bc2fd3d6a4800e3d3bd1e8161a7e213c09e6a47c44cf98fe051680eb10ac9cb4abfa9d5a3a0f091947073a271021c343ecfdb7041da221b363db71d06a61da9465214855c1c336e56ca9d5ae632f9953024bce5171efe1423851f962e6158947b6a9d8a40436cec34450060fc38cca48834a47ba0f588277b8e479dc79c150f9099536efa54bc4ad492c0a031c1e21b3d4ef1844ef095156cb4e6095ee2c868f830dc76144e1e3ca9f2556727fc73f6c3752646c75f2fe94d5d9762d8d4777e07b6fd9d7c100870c468085dc95656152aa25bb51fe69bf5b4f18824a33d4b025df71a993f96797bddd6a8cdd8d8280d27513b2e68cdc1c94e6b1de7c2e33665fae83b2d05d1cece661bc68fdc0e20728f256bbd0ebe4811b019d735519bbf8253bc2c79203bcb5b06751af87cd3f140692b8e1afdeae6e7c14d7336ba40325b5ec3546f7848b40a4566574a9359de0ebf5faf620c03b13733b54fb1c7ce1d84f52012fbea65753783fbd9aee99db54b39dc77e60bfa9c7493d599fac50e601dfc1f9db1d4d4d2818d1182ed91b173decc20d95a572b2cbaea5d6fbe409f037862e7ece95270a87be1b86be604ebee7ae1ee9379b7e6b6adaa48e438ed2183260b1c4d1d8cb57128345258b000000",
  "txid": "609856d82f028df7deed3e13f8565104938a4e518076b03638332fb8a003d8a5",
  "hash": "c1882efebed2259d083e4774e89b4a610efecb040872825afdad3d1f191efd3c",
  "size": 5085,
  "vsize": 2278,
  "version": 1,
  "locktime": 139,
  "vin": [
    {
      "txid": "6e393d3941b55f86cee59fa18e3f2bd80930ee8741000946d57f0e50abb4b33f",
      "vout": 1,
      "scriptSig": {
        "asm": "",
        "hex": ""
      },
      "txinwitness": [
        "e2968b8cf1a68476a9e1d4796800b5186b57ca5546f1bc1e6d4992a1635794fefeaf2c20cbddc72d78845afa6972b23f692f93cf266288a887005672faaf8ad6681ed16b01e7870c47a449f39b011949db77e03bd268de992f5120bd29e796240120a3266837e8cbb586356faee9d8f4f90f26958093caf89db35c671be97039fb0429d95588232d66d57e7b27be1e90ca6d88b3eb75def9aba1e8836f194fe49c9f076c5cd9eec40ac8733c038b33b320f30f4e93dc20b921e1918eb91e184d122b915436e8f90d3944b71466558d6251db3da5f5818ba896de2696c29d90640c016f083d37e7445b53429b7271cb2bca63899da22c2af6521521e524c11a7257e9323346988bb8aa6430bb72fe10fbd4eb3d98ffc8c884a49e2cd91e13a9e0cd74f5e9fc0157e8eb40097d5737ecbe41e225a0052ec69e60136598212b3b9b85549ab6227c03238f51f586c9bb32b93ae0426ec79328e0d9e8611baa49b90522012d003ade814d46b4fb427bc88003e26af2eaceabf3c6dfc79e20b51e1853e4b57e70d64e50883d931271d3eb758c3a85ce7f38fde66936b0495e3b96dc5729e8a484fd35e777fe0284f07af3c3ea13f16ebd59ce5a7c425e48b383ea0f699706d0ab1d1e53384050ea3c2436dc674f79c2176e1a633d09ce1773e09df6dd669790b39c2ff025c801bc37c88f4934c7b8bb12cceaeef47ec4657271788a2fc262bc7a0409af199e5bebd3ee63e80a9c3315de05d3e340f830478a903bf6fc4666dfc02b6c2d6fbaa2789d40f270393604518ce13f302fc4c87e2e99b0a56c6d8f3e3d5f9d71535227c64c138e5c1618da013dad18be0f1ac76b15be9704fcaa8818027de4687d2996cacd65466c8a0e39d548b4e414581cc60e38ed0b8e734d089f5cf99bb0fba48e57c034e8517103b0b42a38ca3a4850ce52c0ec8a963dd5f2f966e050caefff1726d469a7268258ffa453b02db1769c7cd0b0c70172cef757e4d188a22ba8f8fee0f6c372bc784e93f316043390885ce6884d8bf02e80e1b3cea9c8d0f85ddf30f8ce42033a984605cacaf939a316b09be3a7c8f3495145b93ed3aae1a69c2ad9300e46ebe1526b6f453308940c62326aa2197a59802ea484818eed38733a0483d37f5697374be56464a1d62a1859f53aaae609dbcbee59f38cc9627b7500b83b8b42a3475c3d31364536dc714ed665f2f06d83b8742bc8795f7f7962f21b61b5f9b079ff98dd5fc812b7f4e690e898365ee05f6fae56adaf0ff47d9b146afa3c60c739d01916cec3e45a2a1c26521388cf65d6c734bd4da682515067ab5e4ae10a71519229520aed5c0ea26fc1c864d57da0eac47b07132027b4080f3ee0216fbd9a901490eb1f4a71930db56a2067bb720ae1cb1511177ffb3a44fd379891fba3fe8e46367b313c08a0df7b0fc43b9a881ae2c470ab86dbead2e2ff0803c4b6a3c89b0b803bf7c99b97f40f30607be43260dbff95fd7974d17380454e82a631a0ad1bc5c416d19be62d22fb7c554716a7553de2e29eab62835235a8a67eedb233b45c53d1d5f9296a8f1e2f69c93697c1970d530ee71cfc4042f7bc321c67ce5d70bbf9438a982860f0cfa57e80387c185239ad11725a852ef36e8b550095a271e2ff1befe7e6a88367a9b583ddd111e72ef0b9bda340f78109eccfdb154258f8fdfd83493c1df32d773ce10def404b434b9c2a3d2505b4e933cc2d7c27e330322f492071e01a8c52e22758007e37c9520b731e9d111e9c03d7a63cc040c3ec7dfa9177ec97ae6e978c8c823eb908538c891558c3c55f97ab49ea5b5b314348a1d4e8e7600b144606800306b9931a2bef43dbfb2e593c4b06c996430cd9df43dee4dc0fd0ce9144b237381d4ef787f2da484c62e4675e0208e77bd5c02fb648218f628eddaa8cd57293a6376674114732229f2fa5e56366f0b6e47c20a06b4047016761356512538e189c9a7111b35ee20ab55f15803bb78cf29e80a16fe086c4f4d74c284fbe1590ca0453aa62dd6a696776c988e339f1f4f24baa6a51800a65c7f96fc9599fb3012ae6d94d8931916c7e7970d37e4785e71d4ea5a5c39c02229774dfa6133c572f8abc619ea4be73068ce88ac9fdbeed1edaa309b6eb693ef79649cee381176132eb4f87bda2080fc3acd547f8568a3f5d39d49ba7a6454f03d8bf39894c92d86efee62c1d9c6fcaa67221f396c2ae0f4d1b4ba4e60668ffe2ba28bd3173812747708f634fb8cb5746f7227527d9533fd4fd9f59b0a08e4cb0b6028e2bf14b961f518a0ff817423b2f172df57c0889eb979f9e979bc1e1ca15a65716d83f3ac0eb00e8d5f7aad4b64eb7a0ef44a74b80d3d2abed9df6fc4c14eae9cf123a835cd0da193a5de3b0ab07bdad662be188e840ac8bee51f94f56dc8ccbdf3bc22349355db5447c8b8b65437e953a6f4d95bf2fb3402c4fc16253e4307e6dc583f7f348da8d20b3a1d5041a85b052c97e429c5ccf4919ba2342d016f6d2bc825b486fc84d9e814dd02a2a1e45ebd02c1d14010168c57c81c81f4be98ef8caba0262e39811204debdfca84c831339b9693dc3275f7c6827d12c0c2c862597c317232c739a24af2fc63c60798166e0e15a6578131e9451e9f282909781e7ddf6d86ba895e748853ff70af93c42fe77b5dbeec8364e33d90cd26a3c93e117d8d9f907d29be7b676052b27b05ea0c0e456f20b9c63c864c55ba533831bf9df2403baa8c7cd611f53be1dc6c69bde11168717a3a0a231d1412fa984e207f9133ad8221f69b0eea48e077499baba84e4dde0784970d2aa4e6496ee25271d24d76b8a944fc32e85ffe6c9fc8bd38e8a05f466239aa7ba60fa00acc54b096674e5c0914d7d36de9327c93243d83d0aa9c1f4675f45a2fe5c74ffe6d47852392a857ad1e76c7b503be381d2bc10f426a63b4397df833aca04f8ee836ebdf8ffb6c0fcdc7172c5e7bba995ce2a01d882bf55f14721f6c5d785b1a7a3d8e4fdde4359b7f1860b986cced3dbeac16552cad756047696995e7ddb1c31d22aac3b01ef6e4d9e544170212a15c43f8ca96498d5f6179a45991855621eebfa35c7b0d1a490809d7a7a3239ce3bd6893aeeb00750388811a20245924f64a69d9458a8305ee68bc28531581df331d8561f94f5bfc114076545cba15a5a78876253983f3797b86b2dbc12e1d749a64c926da0fb13d1560f1fe7ef7e94cde0785f19f296a426042a47d614edc7690af43eaf2a36bd438b0f9eb0398923181707b7db0b0e01089ae69b61da6fc7f6489638577a462ff61b09ae0da090f125193becbd2d7dafc33516775808cb6c0dee9eaecf7f92526354d5b899495999ecbd9e0eef1f8091a2426272c4c5771778ea7b3b6c8dce0ff0000000000000000000000000000000000000000000b19293b01",
        "0008cc7275f95f539111846d67b0da840b7cf49c2aac5004b9b606a261d83ede1d8786503b733f1ce7470b8b9451417f94378171893e4a7d532091fef390ffb03faa58dd44b509653d7fed28a5f67f74aabcd965e61c6f266e3d31bb7a778f2b6c692a35acff44d8d44791351b0e9878bf711ddba66dae372ec07171dc703df6e6c85c0cd5e4048d5dfc2a257fade0da7e49aea5294104f72b3acb021b20c7e261f61233d67f3d66205591a1a1ee69e1948cb1c872a8548e1b3bf8788c0dff0e3e50b8c75d97ac46442e4ae9f3ec97c0b7b96c31ab3564ad0a9d448c26f8bbec369054e0710b0e6df99881d3d042a286b6209ad4a9050bab0e5239ed50d453fa16d8b4cc3c2a52fa078ca08a6080cd1f9fce64f4b2a6b534504429297e729caaa0f9fdfd09c39f80aa2eb4be6d3c71e9f50d244cb831f84d15e03b48b46376a1a6d2c86e92ef3b979ef595edf6fe47cff320045ea8f9d89329b4e3153bc5ee2e3d3d88afe7ff96fead0e086eb932e25a066b41508821512baf2800960ec3a670de37a09104273085a3ff398af1e0846dbb4a22e71d309bf5d35e5de3c10ed851fb06d548ca26ec450547828ddf3fa99b97179f5044fe763f365f9fb63a17fcc9cb55998ec6ee1a41d57bea6808b51c31b539ddc3d6e9357b6b79492272e8bd9db982492ed3ac29364f9f454212751566b92a1132bfa678699667e916e71ddf95bf90c05db2b36de90be41f59f766902bb1b0d6ede33e57f2d2968ef038a8e2d2bf99ae3e6e23664e12a67fc50fd30d4d61861ccae6982360b4256c88b267559df2a36b1093a02b349b6811dd2707652d0fb616641a8d409b4782bf8e199672bd34964d7439885e5cb5896d337ee14a0d9de36aa3c1229e03a90f0ef3311818f784662ba1b884351e5650499de60b3bcf41f9a77b7553d3f6bd2591bb9af56217ab2fee6f3edbf98b9ad586a90bb39735012db9be237303c624a53ee5afefd183dc58f239d0766ad2fcc5a8d1065ba6698614a9d2b0009c498e83190076e9623e6f29c8800bce57125775563b917174f1b9d774dad75ffbaaea76013951d398b59b1d186fd124adabea3ebd33f310c7044678a9387d74c2dce9a0f02cb5213d3a9ddd2773ca36f33583cfbbf1e8e4f40af16fdce030fee6d56e4cd3c08a50fe1ac2ab63b31252b2c258e9216d72ab4d9c1ff40f11bff850bc2fd3d6a4800e3d3bd1e8161a7e213c09e6a47c44cf98fe051680eb10ac9cb4abfa9d5a3a0f091947073a271021c343ecfdb7041da221b363db71d06a61da9465214855c1c336e56ca9d5ae632f9953024bce5171efe1423851f962e6158947b6a9d8a40436cec34450060fc38cca48834a47ba0f588277b8e479dc79c150f9099536efa54bc4ad492c0a031c1e21b3d4ef1844ef095156cb4e6095ee2c868f830dc76144e1e3ca9f2556727fc73f6c3752646c75f2fe94d5d9762d8d4777e07b6fd9d7c100870c468085dc95656152aa25bb51fe69bf5b4f18824a33d4b025df71a993f96797bddd6a8cdd8d8280d27513b2e68cdc1c94e6b1de7c2e33665fae83b2d05d1cece661bc68fdc0e20728f256bbd0ebe4811b019d735519bbf8253bc2c79203bcb5b06751af87cd3f140692b8e1afdeae6e7c14d7336ba40325b5ec3546f7848b40a4566574a9359de0ebf5faf620c03b13733b54fb1c7ce1d84f52012fbea65753783fbd9aee99db54b39dc77e60bfa9c7493d599fac50e601dfc1f9db1d4d4d2818d1182ed91b173decc20d95a572b2cbaea5d6fbe409f037862e7ece95270a87be1b86be604ebee7ae1ee9379b7e6b6adaa48e438ed2183260b1c4d1d8cb5712834525"
      ],
      "sequence": 4294967294
    }
  ],
  "vout": [
    {
      "value": 1.0,
      "n": 0,
      "scriptPubKey": {
        "asm": "OP_RETURN 6c41229dfa1d595665a807b6ab49da2432c3818aee32d3a2e2a4dcaf14728178 293185e7f33110ca6d6e6e458d9ad851c1fa34c8ed48b8e080caa0f1d02cd4c00911a5c7d31130ea4d4e4e65adbaf871e1da14e8cd6898c0a0ea80d1f00cf4e06971c5a7b371508a2d2e2e05cdda981181ba7488ad08f8a0c08ae0b1906c94804951e587935170aa0d0e0e25edfab831a19a54a88d28d880e0aac091b04cb4a0a9b1056773b1904aedeeeec50d1a58d1417ab4486dc83860004a207150ac5440899125475391b06acdcecee52d3a78f1615a94684de81840206a0051708c7460e9f1452733f1d00aadaeae854d5a1891013af4082d887820400a603110ec1400c9d1650713d1f02a8d8e8ea56d7a38b1211ad4280da85800602a401130cc3420293185e7f33110ca6d6e6e458d9ad851c1fa34c8ed48b8e080caa0f1d02cd4c00911a5c7d31130ea4d4e4e65adbaf871e1da14e8cd6898c0a0ea80d1f00cf4e06971c5a7b371508a2d2e2e05cdda981181ba7488ad08f8a0c08ae0b1906c94804951e587935170aa0d0e0e25edfab831a19a54a88d28d880e0aac091b04cb4a0a9b1056773b1904aedeeeec50d1a58d1417ab4486dc83860004a207150ac5440899125475391b06acdcecee52d3a78f1615a94684de81840206a0051708c7460e9f1452733f1d00aadaeae854d5a1891013af4082d887820400a603110ec1400c9d1650713d1f02a8d8e8ea56d7a38b1211ad4280da85800602a401130cc3420293185e7f33110ca6d6e6e458d9ad851c1fa34c8ed48b8e080caa0f1d02cd4c00911a5c7d31130ea4d4e4e65adbaf871e1da14e8cd6898c0a0ea80d1f00cf4e06971c5a7b371508a2d2e2e05cdda981181ba7488ad08f8a0c08ae0b1906c94804951e587935170aa0d0e0e25edfab831a19a54a88d28d880e0aac091b04cb4a0a9b1056773b1904aedeeeec50d1a58d1417ab4486dc83860004a207150ac5440899125475391b06acdcecee52d3a78f1615a94684de81840206a0051708c7460e9f1452733f1d00aadaeae854d5a1891013af4082d887820400a603110ec1400c9d1650713d1f02a8d8e8ea56d7a38b1211ad4280da85800602a401130cc3420293185e7f33110ca6d6e6e458d9ad851c1fa34c8ed48b8e080caa0f1d02cd4c00911a5c7d31130ea4d4e4e65adbaf871e1da14e8cd6898c0a0ea80d1f00cf4e06971c5a7b371508a2d2e2e05cdda981181ba7488ad08f8a0c08ae0b1906c94804951e587935170aa0d0e0e25edfab831a19a54a88d28d880e0aac091b04cb4a0a9b1056773b1904aedeeeec50d1a58d1417ab4486dc83860004a207150ac5440899125475391b06acdcecee52d3a78f1615a94684de81840206a0051708c7460e9f1452733f1d00aadaeae854d5a1891013af4082d887820400a603110ec1400c9d1650713d1f02a8d8e8ea56d7a38b1211ad4280da85800602a401130cc3420293185e7f33110ca6d6e6e458d9ad851c1fa34c8ed48b8e080caa0f1d02cd4c00911a5c7d31130ea4d4e4e65adbaf871e1da14e8cd6898c0a0ea80d1f00cf4e06971c5a7b371508a2d2e2e05cdda981181ba7488ad08f8a0c08ae0b1906c94804951e587935170aa0d0e0e25edfab831a19a54a88d28d880e0aac091b04cb4a0a9b1056773b1904aedeeeec50d1a58d1ad2fce9dc1bfb6739b881e8b82041243e214f8972853b77e897dfb300bb4101e",
        "hex": "6a206c41229dfa1d595665a807b6ab49da2432c3818aee32d3a2e2a4dcaf147281784db004293185e7f33110ca6d6e6e458d9ad851c1fa34c8ed48b8e080caa0f1d02cd4c00911a5c7d31130ea4d4e4e65adbaf871e1da14e8cd6898c0a0ea80d1f00cf4e06971c5a7b371508a2d2e2e05cdda981181ba7488ad08f8a0c08ae0b1906c94804951e587935170aa0d0e0e25edfab831a19a54a88d28d880e0aac091b04cb4a0a9b1056773b1904aedeeeec50d1a58d1417ab4486dc83860004a207150ac5440899125475391b06acdcecee52d3a78f1615a94684de81840206a0051708c7460e9f1452733f1d00aadaeae854d5a1891013af4082d887820400a603110ec1400c9d1650713d1f02a8d8e8ea56d7a38b1211ad4280da85800602a401130cc3420293185e7f33110ca6d6e6e458d9ad851c1fa34c8ed48b8e080caa0f1d02cd4c00911a5c7d31130ea4d4e4e65adbaf871e1da14e8cd6898c0a0ea80d1f00cf4e06971c5a7b371508a2d2e2e05cdda981181ba7488ad08f8a0c08ae0b1906c94804951e587935170aa0d0e0e25edfab831a19a54a88d28d880e0aac091b04cb4a0a9b1056773b1904aedeeeec50d1a58d1417ab4486dc83860004a207150ac5440899125475391b06acdcecee52d3a78f1615a94684de81840206a0051708c7460e9f1452733f1d00aadaeae854d5a1891013af4082d887820400a603110ec1400c9d1650713d1f02a8d8e8ea56d7a38b1211ad4280da85800602a401130cc3420293185e7f33110ca6d6e6e458d9ad851c1fa34c8ed48b8e080caa0f1d02cd4c00911a5c7d31130ea4d4e4e65adbaf871e1da14e8cd6898c0a0ea80d1f00cf4e06971c5a7b371508a2d2e2e05cdda981181ba7488ad08f8a0c08ae0b1906c94804951e587935170aa0d0e0e25edfab831a19a54a88d28d880e0aac091b04cb4a0a9b1056773b1904aedeeeec50d1a58d1417ab4486dc83860004a207150ac5440899125475391b06acdcecee52d3a78f1615a94684de81840206a0051708c7460e9f1452733f1d00aadaeae854d5a1891013af4082d887820400a603110ec1400c9d1650713d1f02a8d8e8ea56d7a38b1211ad4280da85800602a401130cc3420293185e7f33110ca6d6e6e458d9ad851c1fa34c8ed48b8e080caa0f1d02cd4c00911a5c7d31130ea4d4e4e65adbaf871e1da14e8cd6898c0a0ea80d1f00cf4e06971c5a7b371508a2d2e2e05cdda981181ba7488ad08f8a0c08ae0b1906c94804951e587935170aa0d0e0e25edfab831a19a54a88d28d880e0aac091b04cb4a0a9b1056773b1904aedeeeec50d1a58d1417ab4486dc83860004a207150ac5440899125475391b06acdcecee52d3a78f1615a94684de81840206a0051708c7460e9f1452733f1d00aadaeae854d5a1891013af4082d887820400a603110ec1400c9d1650713d1f02a8d8e8ea56d7a38b1211ad4280da85800602a401130cc3420293185e7f33110ca6d6e6e458d9ad851c1fa34c8ed48b8e080caa0f1d02cd4c00911a5c7d31130ea4d4e4e65adbaf871e1da14e8cd6898c0a0ea80d1f00cf4e06971c5a7b371508a2d2e2e05cdda981181ba7488ad08f8a0c08ae0b1906c94804951e587935170aa0d0e0e25edfab831a19a54a88d28d880e0aac091b04cb4a0a9b1056773b1904aedeeeec50d1a58d1ad2fce9dc1bfb6739b881e8b82041243e214f8972853b77e897dfb300bb4101e",
        "type": "nulldata"
      }
    },
    {
      "value": 499959.324,
      "n": 1,
      "scriptPubKey": {
        "asm": "1 b4d1c6e7144afd54977788d9191a03c5ffde76c8c8cf1518d25789bb49936d53",
        "hex": "5120b4d1c6e7144afd54977788d9191a03c5ffde76c8c8cf1518d25789bb49936d53",
        "reqSigs": 1,
        "type": "witness_v1_scripthash",
        "addresses": [
          "3QJmnh"
        ]
      }
    }
  ],
  "blockhash": "fe774b47c0e88c04e0fb50de4979690042b0828e482e852985a1cce393f947a2",
  "confirmations": 1,
  "time": 1764183806,
  "blocktime": 1764183806
}