{
  "hex": "01000000000101ca1047bc39e663be09b570e32584dc9d08dc7c387513b74940a20e306d5ebd3f0000000000feffffff02a020df63792d0000225120eff5f6e9ad7e9d87441b21db121988fc1a4900f333fa498bbe77a78ea2c8eb7e00e1f50500000000fdd5046a20f0aa225cd7a8bae50184de646addd0bec7ff8b63b53baf7f93a89ba508ff77ec4db004bc89abe691e32f81c0c9c7f2546f0fb9b334c07c29e4ce74c58f0d16bf53acfc9ca98bc6b1c30fa1e0e9e7d2744f2f999314e05c09c4ee54e5af2d369f738cdcfcc9eba6d1a36fc1808987b2142f4ff9f374803c69a48e3485cf4d56ff13ecbcdce9cb86f1834fe1a0a9a792340f6fd9d354a01c4984ae14a5ef6d76df33cc9c3c092b661163af0140494772d4ef8f3933b440fca9644ef4450f8d963fd32c7c1c290b4631438f2160696752f4cfaf19139460dc89446ed4652fadb61ff30c5c7c496b265123ef410009073294afcf7973f400bce9240eb4054fcdd67f936c3c5c694b067103cf6120292712b48fef5953d4209cc9042e94256fedf65fb34c1cbc89abe691e32f81c0c9c7f2546f0fb9b334c07c29e4ce74c58f0d16bf53acfc9ca98bc6b1c30fa1e0e9e7d2744f2f999314e05c09c4ee54e5af2d369f738cdcfcc9eba6d1a36fc1808987b2142f4ff9f374803c69a48e3485cf4d56ff13ecbcdce9cb86f1834fe1a0a9a792340f6fd9d354a01c4984ae14a5ef6d76df33cc9c3c092b661163af0140494772d4ef8f3933b440fca9644ef4450f8d963fd32c7c1c290b4631438f2160696752f4cfaf19139460dc89446ed4652fadb61ff30c5c7c496b265123ef410009073294afcf7973f400bce9240eb4054fcdd67f936c3c5c694b067103cf6120292712b48fef5953d4209cc9042e94256fedf65fb34c1cbc89abe691e32f81c0c9c7f2546f0fb9b334c07c29e4ce74c58f0d16bf53acfc9ca98bc6b1c30fa1e0e9e7d2744f2f999314e05c09c4ee54e5af2d369f738cdcfcc9eba6d1a36fc1808987b2142f4ff9f374803c69a48e3485cf4d56ff13ecbcdce9cb86f1834fe1a0a9a792340f6fd9d354a01c4984ae14a5ef6d76df33cc9c3c092b661163af0140494772d4ef8f3933b440fca9644ef4450f8d963fd32c7c1c290b4631438f2160696752f4cfaf19139460dc89446ed4652fadb61ff30c5c7c496b265123ef410009073294afcf7973f400bce9240eb4054fcdd67f936c3c5c694b067103cf6120292712b48fef5953d4209cc9042e94256fedf65fb34c1cbc89abe691e32f81c0c9c7f2546f0fb9b334c07c29e4ce74c58f0d16bf53acfc9ca98bc6b1c30fa1e0e9e7d2744f2f999314e05c09c4ee54e5af2d369f738cdcfcc9eba6d1a36fc1808987b2142f4ff9f374803c69a48e3485cf4d56ff13ecbcdce9cb86f1834fe1a0a9a792340f6fd9d354a01c4984ae14a5ef6d76df33cc9c3c092b661163af0140494772d4ef8f3933b440fca9644ef4450f8d963fd32c7c1c290b4631438f2160696752f4cfaf19139460dc89446ed4652fadb61ff30c5c7c496b265123ef410009073294afcf7973f400bce9240eb4054fcdd67f936c3c5c694b067103cf6120292712b48fef5953d4209cc9042e94256fedf65fb34c1cbc89abe691e32f81c0c9c7f2546f0fb9b334c07c29e4ce74c58f0d16bf53acfc9ca98bc6b1c30fa1e0e9e7d2744f2f999314e05c09c4ee54e5af2d369f738cdcfcc9eba6d1a36fc1808987b2142f4ff9f374803c69a48e3485cf4d56ff13ecbcdce9cb86f1834fe1a0a9a792340f6fd9d354a01c4984ae14a5ef6d76df33cc9c3c092b661163af0140494772d4ef8f39ad3c0013e1b62ad19878df6b4beb50cee81073a28c543c714c9cad24b970b4d802fd7509e8b69ba89860c8d4e125c8b490004adc5bc27ed5f69641514da4dc1f8362fbb6de440f05fde64dcdedc08ac59eaf118ceda3f49ead194056226bfbf810d68babf92ddd13b844cc4388e1c86007e84de5958b8d9950cd95c8ce489eae8c2e942e131c3637e85b4a348ddb461cfd50f9cdb847933eace4021b98035cfaa08410acbfd50b956ec81b946e834a0853debf4dbc54da542a10a39f3aaa955aa58936895bd37627527f8cf03c7fbba04bc2b688c829f2df920e8012334180c89ea54b42ad6fda01ca4bf7e2d69f209536e8582dcc0c8c43ec6b4795b78f2931594bdaca60b0d0d57a1f8de68daddc95107b7cbc70555ba165c00c83bcc2101740e4af1fea60cc3b18e421a9d7f0f10dd2034dae8dc06fe0a0e62e41e378d6694f26405dba36f15047547693871a7884cb155cfa8e84ce65124db1b970fdb750dc78bab3eb04ff3e906530a7d06ac08bc4baf4786ea42a5b6f7c754df2acc6fccc22daa239c1a0f5fd7bb395b9a97b27f974cc3d3439354e6eadc650741d956247eab54826cb556d1cd8fc77055bad7ce49a1bc884e10298fdfe44ef4a85b5b8d9f4aa0fcd9e3547e1b535537e363b6edc8b98251977cdce230420d1ac9f07c6a8a0ba4043626de9501f093a04243c35d4a8e78b0936e48aa4a9c54f3446514d4f110ef73984ed7ba0cb149f05d25281bddaef8e8fdcf2ccc7b89c0739e569e10585cf6756d32d0aaf9045fb4f92ee584a360d5fab1f7d71be022f72fa30a53856ee0c8ed80ac94c7ec1c88ed621c6c0c833b1117e2694c36be8048c126949df9b320b1dec20cecf67b7b10d218a5f52acca90a49ec80ab46cd6e8a14d7e85d701b2b2e57df8ceb2039e123eac68de89eb154ca5bee0aff90e66691b261a7a59c94d6ae1f0f5e3784b27a8c9a258ad2d2e797eec0b7bdaf1a4ee10a6809be1da46670142e5f59775efe2604e02f7c42f5aa4b08c111172cb88ef27f5181bd73bcadf698ddadf67ae7bbcd1a9cf86d10f3e3617c3721d1c3ab3eee86709bf9d7c85d635f507760dcb1694f9a08898544269fd8941e5d4daf99e3359ed1ceb4cf8fdaaf09cdd4addd7d6c441aa4542b89006e7230b1261791c6cf5033d1bfacc2f93977d5029e510e16d7d15d0139435e5f771ed4fcef5c87a0bed2e8f64fa1f715df9eed9c25ca76b94c03f0129d040b5830be9884f87ad6f526d3d125fe0f0c2a59bf8f56b713cb7847880fc1ee067e43fb1fe7643617749054cba99c881bea59c4f053d697e98754fb1ae299367cc607d908e5530cf0849af7c01854d13c79fcc3defc0f65007231fa8ade7ac447809a39a68a4349d2f61b3b64c103cbcd989221a800c82cea1ae0b9ccb4aad4db0fda398ba8a0050fa9403b51ea1cf84ac4d453a26b45651780ba41354828c42a764f16da960327599ba14a01d853db8280dbaf978cba61dc6b3455cf71900578380535b754be1eea0c0feed7930e9881da1de2509d158974a14665482fe11e756354a378f90641c47fe06fea3728a4e9c7950e364d3a3c9f63c1968a5a1d68118687aa949f486336bb591597418e05e478b68600c68f69716b6b3eb8ccdbbcd7c3f3d0ebcbd4c60fad78435b8869ed98cbcc67fe0387be2d3ae5eb72d726a9666734971104466a597190362588c0e8dd6193c3ee639415a46aa4d9c2d06b74d8fcc107d9922300fbe9a2e79051b0fc382770d0f06aee8db97f9b827aeca5d5586799a135d25a8a15600abaf0b11993ec9e7afac01e701f26ff8dc47aa2518f50192351c95cf61800fa2ec02cf87f56b4b782f07c92c44a3e2b5ed9be4930523deb35f15ad8f76e3d8537d80d7a364dd9fbbe88cf1039135474ac322fe92f8e36782b896f0eb01ff3b8677794a4681862f2d2bba181663a80586908d213c32111f83d8f0480c8e943bbb2e89c46201d1b04107c170adbdc088efc3d81898f4337c51f82166b7131158eb5d8cd2f20d3d1c66d74ededc54114ee54c8f12347643987630023cc40e3d8a6f5f04e609117b898ba5ceca3df0719d98c2a3bedde18875a6c3a5e533eb7f0a381b2b596d4f3fc485cfe624dda89df75c3685e9fe1112ee8beac9f78dad95cd857974e887fb4c3ef4fe83cd8e64b05d8af1f341a6919b2591fb2bfbdfad5daa148746b54d1facf37f155c24807386e82e5382bb74b828c398fb656bfcd91e0e31900ddf2a821b4e2ed6690d6ab80ebfe12c4dc82810a85419fb7a82dee3d13373d3ae8c2c5bed5806d7b88fe467b6f7cbfcaa92b9a9cfdb9b728b97d25548ad6a3ec664e05c82fce6056e4fcb3066cefb7fd64f26a3b59ed6d2996a93cd823de11563dfa79256e627649d1fc3e75cf7d8f51ca24c91427112931e0f7923e00158ae8d36ef6151ddc285d4f060162222037fdad56f85e782bc0c49411d88ba4897aecc95fcc5766586ab76df897a985cbe19d28052023b8941d2f5e94cc8b3c25e6abb49a554f3bd523f3b1c3309811fbd8f89a3eb471e0344c71d43519b39860b7524bbc24b16eb5f07933cee9a6f0e0f121945b6fea7fecc75314918c5ddab863db82eac6264c0dd3f6092ef447abdc0944704e0fe24b5d56d814a2c19af39e5ae6e9093d859b6a2ed34dd9307c05ba7b0145addac8ef5934dd503ebb4ba2c021a88d0e89be637ff594be887737ee6d3d5a84fff25568a39d91d4794bdd3883db17d40efaeba5ce3566341243cfb515545449eba8cda9da679f9543c65237500090f29a391e7355d9770f87dd88fea30931d471f5f0b0a22022cd6eabb11c860fdaaf8de34a88e93652455a16300f06a6ef440c493af12cd926a95d95e6bc25ad5ee6d1c7d321572a1814effbd5c91b5727d010736a937e115cb44c6338286d87c947d86b64b14d1025941b989eaebb37835b9ea5c0a5fd77d8f77a83f4681d665dd7a5614ce31df16be38aadec8df93fe3ee673e4ef1d5337f9c9fece2f6a6c551a2d68d6ed3696879c4c14b689c33f719cb3d87b28e3259522ea66e9e62962272217eba114ac9f6639f253b77ebd98b165e36a57e579d0af8f4058dd4c009935b82ddbef1b759dfe663fe0a4f926be91fae80b003e2f3831ff78a9298d598572b2f7ccdedee6d5f61c28f94efcb522bc0859b25312d6cdc2e43f26e10a6c1e397bfc0bd52666d391121868061f16e5e5b3452b2def476f0007ea80ee7d8cc1f203d3737f54ca9e6b6bc165c4a6f39ec8c143d1841a20c4aaba1b80811f1bc42617f866f681eee3f0d1c340fc8e3ebfa7e4897631514e8454a7546c680c170e584204990ee57a12a366d0a63a3c4046528899b1c3ddfc1c435963727495a0abb6e6e8fa0b18267e828596d2d5ef001f30405e666773747687a9d2dce4fa0000000000000000000000000000000000000000000000000000000000000b18223201fd21050085f6dcf67110505ed0cd44aa7ad1162fb262d4ed6490c7d86be421e3d58a6e534b6b1ff65c583556d394b1c3267b523e832af6b268a58d9b1d09300cc6e0af201d52e006148d757ae84e04189cc2f4f2016a42383c2263900d66a26ef49a1b8539cc83f5f7a156e3b90758260b0dd73254a5bf1f498077a7a55ccb5d4b9ff4d33cb40088cc572e8f7dba3feeb82ad39e35bce39498f96d5466b203ce0672ae363bb9318fadb84fbb8548b57363764c2abfecdb89c244143a8bc76e5a63802eb1380fc6f03314e5ebf8a8dd4a55de67be17c03a8d2e7d7e55926cb6db9f8ed7454361a9add0b8159f81aac3e76e739f90feb1d2caabd2bc3c2fdc030d82f1a871fb22650aedf18a54a8121173b0b7e5de62b39b912276c62134480fe65da4c96997d5731ba521e0c08b13bc6e65e9e6f6cb5217a17e50da7191464db7fdfdfa79df4a2fffaa54d3a26f2d76d596b1fea2030b0108529fc5b536ea461ef04d85a6a0aaef464191cefa03288948a5409ce3a702eb81d3d0d02cff7443d1207e92a35377b6121e467f39295c20283d561ade33c5b96911705531e779747869e4b7152eda72e754781f265cebe10ebc33747da86c0109f75cb94c40b67ef95d5e831891a3b9b62a39ae53e1ac6ddc1235b7e7583b427c5527862f8504f838cc22c04674dcb04b085e4d208dd5dc6f8f2e8f1341c2622637019d4afbae0386cdbeb47cd8073d14330930e9a123e68f206bee7ef7e26433095d377c03af3862a0cddf93534633bc7e24f09016dfa21e8ba1c298bfe30e6162ab9ccbae445b18128bb15ce7f28df20310894e4f4446e519a5fc3a5c7376ada7c33e726b60423f945e05e46aaf864e76d9fbbaf681e9f9f0a16d23ecde2f9a071b8e3bc9d879506d2b9c6ca330f76844150a8ab09f067686a3cdbc1e762ffce0dc8d2e7f20f1034078445db121705820615143eb378491580bc5c29c85e0a4a2f9c088d19a950764e14b37f6ea37a6da028552470680ddba388ef0245eda24b32d394f305dd23011cb78e9beea38a6ea69c2f77f0fd821c4cb36699f623cbade8633c315f48af725691d05f7ea8fe0ed40e51a6f9f184ccf66ad2b5d01b2637276dbdaa83f46d7250b9627d44d38563e99054e7fc2804aeed5f016994bbef1dff4e513eb577ceab5e53a7dce732b5d06e1a20dd9345394b8c47694aa563a1d35a0ceec0247f17f5ad689b1ec5f8f3dc3ef10a103ae1de951e32596a8c57eb2b6c5aed0c48af3830fb88b9ff7a36a15c03e9d8a1daa6e71caee04a2bf481b2748a719c96a57155dda5740c190af652d5e3280bbd200c26129d81c394618910bbfb924429a76ed49010d220156808b4d0d20cf04d16b7608b118ae3befe183d8868fef7023786c1d6c425b84eee79ea1cd6d2fca82da72f8de1df40b8c283d0a188531f536a959c0886c970800dbc23ef73cf6edbbab8288bf64355662d1a69f2976e3e49c4764be98e8d56258bf182b24dc0babfe968916d63791778623423d4cd24f91835463cf04a378564c243a8412fb2c601f31463eefa74e67f5026ba1be8ca44aa096207e305447cd2fd254929d2af77bf4a2db317d1f4a3272e4b243cee2ebf7a3ef22387fa5ff0488cf8008ac548f00a681d6f3c44e1e0ee63b7c68a465fae9f5ffbc70d33e9deb26fd868aefb0a494c0b60b871a42c2179659e8a92b3047f35e8a8a1953c6dc40f10df9b1be9241c5f1afa03a42add0b84269e881784d226de2eaba7bff80791971741ffa1cf26079766c40690f0f98c4646dd644f9eeafd98c194afcd46cf84f30310b05e58001d6813beead1941fb54cb13778e1d353c0d818a9eee2bda43d868000000",
  "txid": "68d4429c4abd3dff4659b9a17befbb189f509ceaeffc22b8efa890fa42489038",
  "hash": "6a494c95fe7be5283c7eec1d0a4fc8ab6902c0f6f383265d5005e06abeac5c49",
  "size": 5085,
  "vsize": 2278,
  "version": 1,
  "locktime": 104,
  "vin": [
    {
      "txid": "3fbd5e6d300ea24049b71375387cdc089ddc8425e370b509be63e639bc4710ca",
      "vout": 0,
      "scriptSig": {
        "asm": "",
        "hex": ""
      },
      "txinwitness": [
        "e8b69ba89860c8d4e125c8b490004adc5bc27ed5f69641514da4dc1f8362fbb6de440f05fde64dcdedc08ac59eaf118ceda3f49ead194056226bfbf810d68babf92ddd13b844cc4388e1c86007e84de5958b8d9950cd95c8ce489eae8c2e942e131c3637e85b4a348ddb461cfd50f9cdb847933eace4021b98035cfaa08410acbfd50b956ec81b946e834a0853debf4dbc54da542a10a39f3aaa955aa58936895bd37627527f8cf03c7fbba04bc2b688c829f2df920e8012334180c89ea54b42ad6fda01ca4bf7e2d69f209536e8582dcc0c8c43ec6b4795b78f2931594bdaca60b0d0d57a1f8de68daddc95107b7cbc70555ba165c00c83bcc2101740e4af1fea60cc3b18e421a9d7f0f10dd2034dae8dc06fe0a0e62e41e378d6694f26405dba36f15047547693871a7884cb155cfa8e84ce65124db1b970fdb750dc78bab3eb04ff3e906530a7d06ac08bc4baf4786ea42a5b6f7c754df2acc6fccc22daa239c1a0f5fd7bb395b9a97b27f974cc3d3439354e6eadc650741d956247eab54826cb556d1cd8fc77055bad7ce49a1bc884e10298fdfe44ef4a85b5b8d9f4aa0fcd9e3547e1b535537e363b6edc8b98251977cdce230420d1ac9f07c6a8a0ba4043626de9501f093a04243c35d4a8e78b0936e48aa4a9c54f3446514d4f110ef73984ed7ba0cb149f05d25281bddaef8e8fdcf2ccc7b89c0739e569e10585cf6756d32d0aaf9045fb4f92ee584a360d5fab1f7d71be022f72fa30a53856ee0c8ed80ac94c7ec1c88ed621c6c0c833b1117e2694c36be8048c126949df9b320b1dec20cecf67b7b10d218a5f52acca90a49ec80ab46cd6e8a14d7e85d701b2b2e57df8ceb2039e123eac68de89eb154ca5bee0aff90e66691b261a7a59c94d6ae1f0f5e3784b27a8c9a258ad2d2e797eec0b7bdaf1a4ee10a6809be1da46670142e5f59775efe2604e02f7c42f5aa4b08c111172cb88ef27f5181bd73bcadf698ddadf67ae7bbcd1a9cf86d10f3e3617c3721d1c3ab3eee86709bf9d7c85d635f507760dcb1694f9a08898544269fd8941e5d4daf99e3359ed1ceb4cf8fdaaf09cdd4addd7d6c441aa4542b89006e7230b1261791c6cf5033d1bfacc2f93977d5029e510e16d7d15d0139435e5f771ed4fcef5c87a0bed2e8f64fa1f715df9eed9c25ca76b94c03f0129d040b5830be9884f87ad6f526d3d125fe0f0c2a59bf8f56b713cb7847880fc1ee067e43fb1fe7643617749054cba99c881bea59c4f053d697e98754fb1ae299367cc607d908e5530cf0849af7c01854d13c79fcc3defc0f65007231fa8ade7ac447809a39a68a4349d2f61b3b64c103cbcd989221a800c82cea1ae0b9ccb4aad4db0fda398ba8a0050fa9403b51ea1cf84ac4d453a26b45651780ba41354828c42a764f16da960327599ba14a01d853db8280dbaf978cba61dc6b3455cf71900578380535b754be1eea0c0feed7930e9881da1de2509d158974a14665482fe11e756354a378f90641c47fe06fea3728a4e9c7950e364d3a3c9f63c1968a5a1d68118687aa949f486336bb591597418e05e478b68600c68f69716b6b3eb8ccdbbcd7c3f3d0ebcbd4c60fad78435b8869ed98cbcc67fe0387be2d3ae5eb72d726a9666734971104466a597190362588c0e8dd6193c3ee639415a46aa4d9c2d06b74d8fcc107d9922300fbe9a2e79051b0fc382770d0f06aee8db97f9b827aeca5d5586799a135d25a8a15600abaf0b11993ec9e7afac01e701f26ff8dc47aa2518f50192351c95cf61800fa2ec02cf87f56b4b782f07c92c44a3e2b5ed9be4930523deb35f15ad8f76e3d8537d80d7a364dd9fbbe88cf1039135474ac322fe92f8e36782b896f0eb01ff3b8677794a4681862f2d2bba181663a80586908d213c32111f83d8f0480c8e943bbb2e89c46201d1b04107c170adbdc088efc3d81898f4337c51f82166b7131158eb5d8cd2f20d3d1c66d74ededc54114ee54c8f12347643987630023cc40e3d8a6f5f04e609117b898ba5ceca3df0719d98c2a3bedde18875a6c3a5e533eb7f0a381b2b596d4f3fc485cfe624dda89df75c3685e9fe1112ee8beac9f78dad95cd857974e887fb4c3ef4fe83cd8e64b05d8af1f341a6919b2591fb2bfbdfad5daa148746b54d1facf37f155c24807386e82e5382bb74b828c398fb656bfcd91e0e31900ddf2a821b4e2ed6690d6ab80ebfe12c4dc82810a85419fb7a82dee3d13373d3ae8c2c5bed5806d7b88fe467b6f7cbfcaa92b9a9cfdb9b728b97d25548ad6a3ec664e05c82fce6056e4fcb3066cefb7fd64f26a3b59ed6d2996a93cd823de11563dfa79256e627649d1fc3e75cf7d8f51ca24c91427112931e0f7923e00158ae8d36ef6151ddc285d4f060162222037fdad56f85e782bc0c49411d88ba4897aecc95fcc5766586ab76df897a985cbe19d28052023b8941d2f5e94cc8b3c25e6abb49a554f3bd523f3b1c3309811fbd8f89a3eb471e0344c71d43519b39860b7524bbc24b16eb5f07933cee9a6f0e0f121945b6fea7fecc75314918c5ddab863db82eac6264c0dd3f6092ef447abdc0944704e0fe24b5d56d814a2c19af39e5ae6e9093d859b6a2ed34dd9307c05ba7b0145addac8ef5934dd503ebb4ba2c021a88d0e89be637ff594be887737ee6d3d5a84fff25568a39d91d4794bdd3883db17d40efaeba5ce3566341243cfb515545449eba8cda9da679f9543c65237500090f29a391e7355d9770f87dd88fea30931d471f5f0b0a22022cd6eabb11c860fdaaf8de34a88e93652455a16300f06a6ef440c493af12cd926a95d95e6bc25ad5ee6d1c7d321572a1814effbd5c91b5727d010736a937e115cb44c6338286d87c947d86b64b14d1025941b989eaebb37835b9ea5c0a5fd77d8f77a83f4681d665dd7a5614ce31df16be38aadec8df93fe3ee673e4ef1d5337f9c9fece2f6a6c551a2d68d6ed3696879c4c14b689c33f719cb3d87b28e3259522ea66e9e62962272217eba114ac9f6639f253b77ebd98b165e36a57e579d0af8f4058dd4c009935b82ddbef1b759dfe663fe0a4f926be91fae80b003e2f3831ff78a9298d598572b2f7ccdedee6d5f61c28f94efcb522bc0859b25312d6cdc2e43f26e10a6c1e397bfc0bd52666d391121868061f16e5e5b3452b2def476f0007ea80ee7d8cc1f203d3737f54ca9e6b6bc165c4a6f39ec8c143d1841a20c4aaba1b80811f1bc42617f866f681eee3f0d1c340fc8e3ebfa7e4897631514e8454a7546c680c170e584204990ee57a12a366d0a63a3c4046528899b1c3ddfc1c435963727495a0abb6e6e8fa0b18267e828596d2d5ef001f30405e666773747687a9d2dce4fa0000000000000000000000000000000000000000000000000000000000000b18223201",
        "0085f6dcf67110505ed0cd44aa7ad1162fb262d4ed6490c7d86be421e3d58a6e534b6b1ff65c583556d394b1c3267b523e832af6b268a58d9b1d09300cc6e0af201d52e006148d757ae84e04189cc2f4f2016a42383c2263900d66a26ef49a1b8539cc83f5f7a156e3b90758260b0dd73254a5bf1f498077a7a55ccb5d4b9ff4d33cb40088cc572e8f7dba3feeb82ad39e35bce39498f96d5466b203ce0672ae363bb9318fadb84fbb8548b57363764c2abfecdb89c244143a8bc76e5a63802eb1380fc6f03314e5ebf8a8dd4a55de67be17c03a8d2e7d7e55926cb6db9f8ed7454361a9add0b8159f81aac3e76e739f90feb1d2caabd2bc3c2fdc030d82f1a871fb22650aedf18a54a8121173b0b7e5de62b39b912276c62134480fe65da4c96997d5731ba521e0c08b13bc6e65e9e6f6cb5217a17e50da7191464db7fdfdfa79df4a2fffaa54d3a26f2d76d596b1fea2030b0108529fc5b536ea461ef04d85a6a0aaef464191cefa03288948a5409ce3a702eb81d3d0d02cff7443d1207e92a35377b6121e467f39295c20283d561ade33c5b96911705531e779747869e4b7152eda72e754781f265cebe10ebc33747da86c0109f75cb94c40b67ef95d5e831891a3b9b62a39ae53e1ac6ddc1235b7e7583b427c5527862f8504f838cc22c04674dcb04b085e4d208dd5dc6f8f2e8f1341c2622637019d4afbae0386cdbeb47cd8073d14330930e9a123e68f206bee7ef7e26433095d377c03af3862a0cddf93534633bc7e24f09016dfa21e8ba1c298bfe30e6162ab9ccbae445b18128bb15ce7f28df20310894e4f4446e519a5fc3a5c7376ada7c33e726b60423f945e05e46aaf864e76d9fbbaf681e9f9f0a16d23ecde2f9a071b8e3bc9d879506d2b9c6ca330f76844150a8ab09f067686a3cdbc1e762ffce0dc8d2e7f20f1034078445db121705820615143eb378491580bc5c29c85e0a4a2f9c088d19a950764e14b37f6ea37a6da028552470680ddba388ef0245eda24b32d394f305dd23011cb78e9beea38a6ea69c2f77f0fd821c4cb36699f623cbade8633c315f48af725691d05f7ea8fe0ed40e51a6f9f184ccf66ad2b5d01b2637276dbdaa83f46d7250b9627d44d38563e99054e7fc2804aeed5f016994bbef1dff4e513eb577ceab5e53a7dce732b5d06e1a20dd9345394b8c47694aa563a1d35a0ceec0247f17f5ad689b1ec5f8f3dc3ef10a103ae1de951e32596a8c57eb2b6c5aed0c48af3830fb88b9ff7a36a15c03e9d8a1daa6e71caee04a2bf481b2748a719c96a57155dda5740c190af652d5e3280bbd200c26129d81c394618910bbfb924429a76ed49010d220156808b4d0d20cf04d16b7608b118ae3befe183d8868fef7023786c1d6c425b84eee79ea1cd6d2fca82da72f8de1df40b8c283d0a188531f536a959c0886c970800dbc23ef73cf6edbbab8288bf64355662d1a69f2976e3e49c4764be98e8d56258bf182b24dc0babfe968916d63791778623423d4cd24f91835463cf04a378564c243a8412fb2c601f31463eefa74e67f5026ba1be8ca44aa096207e305447cd2fd254929d2af77bf4a2db317d1f4a3272e4b243cee2ebf7a3ef22387fa5ff0488cf8008ac548f00a681d6f3c44e1e0ee63b7c68a465fae9f5ffbc70d33e9deb26fd868aefb0a494c0b60b871a42c2179659e8a92b3047f35e8a8a1953c6dc40f10df9b1be9241c5f1afa03a42add0b84269e881784d226de2eaba7bff80791971741ffa1cf26079766c40690f0f98c4646dd644f9eeafd98c194afcd46cf84f30310b05e58001d6813beead1941fb54cb13778e1d353c0d818a9eee2bda43d8"
      ],
      "sequence": 4294967294
    }
  ],
  "vout": [
    {
      "value": 499993.8986,
      "n": 0,
      "scriptPubKey": {
        "asm": "1 eff5f6e9ad7e9d87441b21db121988fc1a4900f333fa498bbe77a78ea2c8eb7e",
        "hex": "5120eff5f6e9ad7e9d87441b21db121988fc1a4900f333fa498bbe77a78ea2c8eb7e",
        "reqSigs": 1,
        "type": "witness_v1_scripthash",
        "addresses": [
          "3QJmnh"
        ]
      }
    },
    {
      "value": 1.0,
      "n": 1,
      "scriptPubKey": {
        "asm": "OP_RETURN f0aa225cd7a8bae50184de646addd0bec7ff8b63b53baf7f93a89ba508ff77ec bc89abe691e32f81c0c9c7f2546f0fb9b334c07c29e4ce74c58f0d16bf53acfc9ca98bc6b1c30fa1e0e9e7d2744f2f999314e05c09c4ee54e5af2d369f738cdcfcc9eba6d1a36fc1808987b2142f4ff9f374803c69a48e3485cf4d56ff13ecbcdce9cb86f1834fe1a0a9a792340f6fd9d354a01c4984ae14a5ef6d76df33cc9c3c092b661163af0140494772d4ef8f3933b440fca9644ef4450f8d963fd32c7c1c290b4631438f2160696752f4cfaf19139460dc89446ed4652fadb61ff30c5c7c496b265123ef410009073294afcf7973f400bce9240eb4054fcdd67f936c3c5c694b067103cf6120292712b48fef5953d4209cc9042e94256fedf65fb34c1cbc89abe691e32f81c0c9c7f2546f0fb9b334c07c29e4ce74c58f0d16bf53acfc9ca98bc6b1c30fa1e0e9e7d2744f2f999314e05c09c4ee54e5af2d369f738cdcfcc9eba6d1a36fc1808987b2142f4ff9f374803c69a48e3485cf4d56ff13ecbcdce9cb86f1834fe1a0a9a792340f6fd9d354a01c4984ae14a5ef6d76df33cc9c3c092b661163af0140494772d4ef8f3933b440fca9644ef4450f8d963fd32c7c1c290b4631438f2160696752f4cfaf19139460dc89446ed4652fadb61ff30c5c7c496b265123ef410009073294afcf7973f400bce9240eb4054fcdd67f936c3c5c694b067103cf6120292712b48fef5953d4209cc9042e94256fedf65fb34c1cbc89abe691e32f81c0c9c7f2546f0fb9b334c07c29e4ce74c58f0d16bf53acfc9ca98bc6b1c30fa1e0e9e7d2744f2f999314e05c09c4ee54e5af2d369f738cdcfcc9eba6d1a36fc1808987b2142f4ff9f374803c69a48e3485cf4d56ff13ecbcdce9cb86f1834fe1a0a9a792340f6fd9d354a01c4984ae14a5ef6d76df33cc9c3c092b661163af0140494772d4ef8f3933b440fca9644ef4450f8d963fd32c7c1c290b4631438f2160696752f4cfaf19139460dc89446ed4652fadb61ff30c5c7c496b265123ef410009073294afcf7973f400bce9240eb4054fcdd67f936c3c5c694b067103cf6120292712b48fef5953d4209cc9042e94256fedf65fb34c1cbc89abe691e32f81c0c9c7f2546f0fb9b334c07c29e4ce74c58f0d16bf53acfc9ca98bc6b1c30fa1e0e9e7d2744f2f999314e05c09c4ee54e5af2d369f738cdcfcc9eba6d1a36fc1808987b2142f4ff9f374803c69a48e3485cf4d56ff13ecbcdce9cb86f1834fe1a0a9a792340f6fd9d354a01c4984ae14a5ef6d76df33cc9c3c092b661163af0140494772d4ef8f3933b440fca9644ef4450f8d963fd32c7c1c290b4631438f2160696752f4cfaf19139460dc89446ed4652fadb61ff30c5c7c496b265123ef410009073294afcf7973f400bce9240eb4054fcdd67f936c3c5c694b067103cf6120292712b48fef5953d4209cc9042e94256fedf65fb34c1cbc89abe691e32f81c0c9c7f2546f0fb9b334c07c29e4ce74c58f0d16bf53acfc9ca98bc6b1c30fa1e0e9e7d2744f2f999314e05c09c4ee54e5af2d369f738cdcfcc9eba6d1a36fc1808987b2142f4ff9f374803c69a48e3485cf4d56ff13ecbcdce9cb86f1834fe1a0a9a792340f6fd9d354a01c4984ae14a5ef6d76df33cc9c3c092b661163af0140494772d4ef8f39ad3c0013e1b62ad19878df6b4beb50cee81073a28c543c714c9cad24b970b4d8",
        "hex": "6a20f0aa225cd7a8bae50184de646addd0bec7ff8b63b53baf7f93a89ba508ff77ec4db004bc89abe691e32f81c0c9c7f2546f0fb9b334c07c29e4ce74c58f0d16bf53acfc9ca98bc6b1c30fa1e0e9e7d2744f2f999314e05c09c4ee54e5af2d369f738cdcfcc9eba6d1a36fc1808987b2142f4ff9f374803c69a48e3485cf4d56ff13ecbcdce9cb86f1834fe1a0a9a792340f6fd9d354a01c4984ae14a5ef6d76df33cc9c3c092b661163af0140494772d4ef8f3933b440fca9644ef4450f8d963fd32c7c1c290b4631438f2160696752f4cfaf19139460dc89446ed4652fadb61ff30c5c7c496b265123ef410009073294afcf7973f400bce9240eb4054fcdd67f936c3c5c694b067103cf6120292712b48fef5953d4209cc9042e94256fedf65fb34c1cbc89abe691e32f81c0c9c7f2546f0fb9b334c07c29e4ce74c58f0d16bf53acfc9ca98bc6b1c30fa1e0e9e7d2744f2f999314e05c09c4ee54e5af2d369f738cdcfcc9eba6d1a36fc1808987b2142f4ff9f374803c69a48e3485cf4d56ff13ecbcdce9cb86f1834fe1a0a9a792340f6fd9d354a01c4984ae14a5ef6d76df33cc9c3c092b661163af0140494772d4ef8f3933b440fca9644ef4450f8d963fd32c7c1c290b4631438f2160696752f4cfaf19139460dc89446ed4652fadb61ff30c5c7c496b265123ef410009073294afcf7973f400bce9240eb4054fcdd67f936c3c5c694b067103cf6120292712b48fef5953d4209cc9042e94256fedf65fb34c1cbc89abe691e32f81c0c9c7f2546f0fb9b334c07c29e4ce74c58f0d16bf53acfc9ca98bc6b1c30fa1e0e9e7d2744f2f999314e05c09c4ee54e5af2d369f738cdcfcc9eba6d1a36fc1808987b2142f4ff9f374803c69a48e3485cf4d56ff13ecbcdce9cb86f1834fe1a0a9a792340f6fd9d354a01c4984ae14a5ef6d76df33cc9c3c092b661163af0140494772d4ef8f3933b440fca9644ef4450f8d963fd32c7c1c290b4631438f2160696752f4cfaf19139460dc89446ed4652fadb61ff30c5c7c496b265123ef410009073294afcf7973f400bce9240eb4054fcdd67f936c3c5c694b067103cf6120292712b48fef5953d4209cc9042e94256fedf65fb34c1cbc89abe691e32f81c0c9c7f2546f0fb9b334c07c29e4ce74c58f0d16bf53acfc9ca98bc6b1c30fa1e0e9e7d2744f2f999314e05c09c4ee54e5af2d369f738cdcfcc9eba6d1a36fc1808987b2142f4ff9f374803c69a48e3485cf4d56ff13ecbcdce9cb86f1834fe1a0a9a792340f6fd9d354a01c4984ae14a5ef6d76df33cc9c3c092b661163af0140494772d4ef8f3933b440fca9644ef4450f8d963fd32c7c1c290b4631438f2160696752f4cfaf19139460dc89446ed4652fadb61ff30c5c7c496b265123ef410009073294afcf7973f400bce9240eb4054fcdd67f936c3c5c694b067103cf6120292712b48fef5953d4209cc9042e94256fedf65fb34c1cbc89abe691e32f81c0c9c7f2546f0fb9b334c07c29e4ce74c58f0d16bf53acfc9ca98bc6b1c30fa1e0e9e7d2744f2f999314e05c09c4ee54e5af2d369f738cdcfcc9eba6d1a36fc1808987b2142f4ff9f374803c69a48e3485cf4d56ff13ecbcdce9cb86f1834fe1a0a9a792340f6fd9d354a01c4984ae14a5ef6d76df33cc9c3c092b661163af0140494772d4ef8f39ad3c0013e1b62ad19878df6b4beb50cee81073a28c543c714c9cad24b970b4d8",
        "type": "nulldata"
      }
    }
  ],
  "blockhash": "32a2d379a33ec88ae1cb3a8a1a44f2d12b76aebf574ecf7ac16b289397ed6cd9",
  "confirmations": 1,
  "time": 1764176557,
  "blocktime": 1764176557
}