{
  "hex": "010000000001014bf29990b6c386033d705c8f3454f8dc8c28281521b1fc20d55c7ac9c215692a0000000000feffffff02f020b051792d00002251207a438d1d443c2e2c29691340a5e269021b7348cef5bd63d2a8064e0e63e7c3a100e1f50500000000fdd5046a2046ac590ba5ac8fcfd83063df151c7b5f3f59d0b10a78e0f6fea776f20594090e4db004a8e36192dac29550b33fa33dc3f666b852d0cd191069657b7c0859e2b191ea4188c341b2fae2b570931f831de3d6469872f0ed393049455b5c2879c291b1ca61e8a321d29a82d510f37fe37d83b626f812908d595029253b3c4819a2f1d1aa01c88301f2baa2f530d35fc35da39606d832b0ad797009051b1c683982d1f18a212863e1125a4215d033bf23bd4376e638d2504d9990e9e5fbfc88d96231116ac10843c1327a6235f0139f039d6356c618f2706db9b0c9c5dbdca8f94211314ae16823a1521a02559073ff63fd0336a67892100dd9d0a9a5bbbcc8992271512a81480381723a2275b053df43dd23168658b2302df9f089859b9ce8b90251710aa1a8e36192dac29550b33fa33dc3f666b852d0cd191069657b7c0859e2b191ea4188c341b2fae2b570931f831de3d6469872f0ed393049455b5c2879c291b1ca61e8a321d29a82d510f37fe37d83b626f812908d595029253b3c4819a2f1d1aa01c88301f2baa2f530d35fc35da39606d832b0ad797009051b1c683982d1f18a212863e1125a4215d033bf23bd4376e638d2504d9990e9e5fbfc88d96231116ac10843c1327a6235f0139f039d6356c618f2706db9b0c9c5dbdca8f94211314ae16823a1521a02559073ff63fd0336a67892100dd9d0a9a5bbbcc8992271512a81480381723a2275b053df43dd23168658b2302df9f089859b9ce8b90251710aa1a8e36192dac29550b33fa33dc3f666b852d0cd191069657b7c0859e2b191ea4188c341b2fae2b570931f831de3d6469872f0ed393049455b5c2879c291b1ca61e8a321d29a82d510f37fe37d83b626f812908d595029253b3c4819a2f1d1aa01c88301f2baa2f530d35fc35da39606d832b0ad797009051b1c683982d1f18a212863e1125a4215d033bf23bd4376e638d2504d9990e9e5fbfc88d96231116ac10843c1327a6235f0139f039d6356c618f2706db9b0c9c5dbdca8f94211314ae16823a1521a02559073ff63fd0336a67892100dd9d0a9a5bbbcc8992271512a81480381723a2275b053df43dd23168658b2302df9f089859b9ce8b90251710aa1a8e36192dac29550b33fa33dc3f666b852d0cd191069657b7c0859e2b191ea4188c341b2fae2b570931f831de3d6469872f0ed393049455b5c2879c291b1ca61e8a321d29a82d510f37fe37d83b626f812908d595029253b3c4819a2f1d1aa01c88301f2baa2f530d35fc35da39606d832b0ad797009051b1c683982d1f18a212863e1125a4215d033bf23bd4376e638d2504d9990e9e5fbfc88d96231116ac10843c1327a6235f0139f039d6356c618f2706db9b0c9c5dbdca8f94211314ae16823a1521a02559073ff63fd0336a67892100dd9d0a9a5bbbcc8992271512a81480381723a2275b053df43dd23168658b2302df9f089859b9ce8b90251710aa1a8e36192dac29550b33fa33dc3f666b852d0cd191069657b7c0859e2b191ea4188c341b2fae2b570931f831de3d6469872f0ed393049455b5c2879c291b1ca61e8a321d29a82d510f37fe37d83b626f812908d595029253b3c4819a2f1d1aa01c88301f2baa2f530d35fc35da39606d832b0ad797009051b1c683982d1f18a212863e1125a4215d033bf23bd4376e638f51da246ebccab33e0dfa97a4a03aa34f8b5e317e8235bbe7be1858fe575156902fd75096df5f701f5993b4425e92228ce24c8e38b3306d17ba9bb15c1e0ec5e4ead9698dbbd8455e1ea996ad83f9c5556743b2e95419b490e020e97736ab8b527e894c80e44c08e14514f84c270687f59ce21e3b007c3f850362543345738e1567f1212d405b6afdac9979a1b6808c65f755ccab017a73d077bc60bd3fe5708ee290f841d89f907b2059b894d9891c206014a32011db6f4ebf27172c24cf170a43d97fdad6ea7e11b29e40d93c16ebd31e99301d6e724a0efbde26f7a5c744991a5b050c9addca631f5e8a0a793575cc15f2112a5f26f769c314ae40de3be2380dee0fd56da025cd0ff203450b929caaf0f38144af7fea64bf1deb8c2ee0b78d78d753f7bc7acc1ea069b00a1f0c216f5546bb46bd6c347ca8d1828449e76b72590f6f2df189e82111094d28724b1b5941eab23d857c605f09f628c4b2d2f49f6aade1ef66a5693fc8b24a7650b9ac5c04ce99f8349d1ba9dd8ef4d38748faabd5d8cec0d717bf6402df4c09b6e09f942083964e41dd1e88392e5508085465b34da15a9c109b18e4fb615312b44df5555e6ebb37fa5da39e0bf73a365837599df7f42a30b31cfeb37018731c87440a1ac7dc09c952a91069cac2774a7d72d3e9f11fe0bef09fa6fce93bbc7ad1edb2587084be688fd84031acc602e6dba223a3e0ad0b7c7aefd8795b42d97ca36d04086dc86147ad303479a966d0b18598fd5c0c3da617c934061fc982a3ae34c417f50a88dcda8f8e8d2aaff93d4edf643ac9bd5286c1d1fb12116577e006a16eccc89ffc88350841543e20f04ac4dfa1f44cb3cb0cdbc87f63ef75c71e6ecee3fc1dc8de6692c20c2deff0783d7e724a06264d76e1f01e7bc16c2aaea3aa4100c9b74becfe3e9a7b3ae83583cdc28bea35f66e5257b8829607f8f0adac7e0550e7101c340f3c25f8d0ed3b69589caf180eed4aede9fc44609b830ad1e3e022d24631d2cc2cab343e47cd8e641486792f94e37ff77dc3445d2a5b49efcb2c268a8a98cab48de3752d719161aa26a7b961e38d9920619423504229d35e1d6cd03057b8efb1b2b65b86d18798a21ca5be8eaec3af0cfe45966ec2e31e4aa421a6add486f339da010ad6c84b9f4c673bf6ed6b16532a0818be3d0c32e8a6c01981ccdff3233156246ecbecf73b193a0b348fe5eca333634233a52f97f633dd4851ac7a846b822a93a58243438d7c85fb8d94679b39582d5b4686716e8cd2912b80b00621de638e556f3d76026e73004bc2dae97a6526f24e8acd71a1fc170d3ab12199977135a94270b3ca690c301f5af2d1440691aad7608155bd87ceca0d16d6f7ea172cde58e0f086515a37c650cec88e9c41b9d733722e6803dfcc92557b859d4452e5e7f75c17807a9564b5a5edbbceeeba91eece10b15a6f01c90508e39c27f6c597c317b6eff90c67204741b6b34d56d3d46164af5c68d424123d50ca8b73bedde7a1bc9661359ed63bf6241d9985bf21e18291daa7f8157af4491e5e8192e3af8302172c20f1741ccac233d05888a66ed9d2909436142233087a870bdd1e2b795d71338dab0b89e8e7ea330ebbf6d482b3f8cc1c48ad27948f41692f4a2fdf6d70e22cf17e4952452bc80b6b4399e591edb1710e3e2f0d5dc83c89a63a39a2d34966d299ae8e2441039fee39fd240cac1026f056389a8296599f68a2d89fad7e946fc0acdb4952097b58210177fde88a1b3091dda0e73f3b603434a49a7439770dbcc9ca0b811f11b8d9dd4baa123067c3aaaf6cc1c3bb60b7a87fe7eab067ba29db88221a8281789c5a30083f3254d0898fbd529ea27b9c95ed0fbc12f2bbefbfa96c2217e8947cd428f11f19570af997a37581a856161d809fe05794d918b5ed940f43be6b235c9102c361fbe7a8db12398c3b562c43bedf0349d9b7a8ab0929a470ba81cd73e0bf8c54e37e9322bb61faecaef86ca8e1cc989b01c98c090d6b759132af5024dd381756db5d64ab4df6874115bd85b2709046dbe4eb5a2a1871c26ac3febf0ca91cfc51e1c297d99af534bcbb09ccbdc3bb9f583760ba00cde0d343965521f9f6038021db9c8a6f69d35d98082d05de01528046d72905dab9708c90188db4ae25bdf22d4940925079a55c50d0236f4970b8174b7c1e79aae60d6b6bea013e7dec5d75b7c2b19cada406f7e001b53d0088a5e6f236ba550e15330daa66951c5700497ee1c1fe318a4234def5ace33a3c2ce058aa6b2f3c64944c34dbbd43f5e10c3f08964f8ae35d7eb87cd1b58bbb9cedc6816ab05802cea9e3cdf903153bb707c3b470d9aa9bf28123817809650a36c4e1855f0637ef32f7e03ed8112132c61d128c9e9c2710cd05e13041754b4384c4ce4a03b6cc0020745c1cab4f9009cbb7a27ddcb7392a32b044bcd293410b484c27ced3a5df3699e36a24c1908be4e3e7b47293897d0c3b4db12bdfb5d91f9ac8085388926678031768150ec04f021d854308dcce25b44a060061cee5f39baae95d8c735cf2bc1d550f7237530a2928d5c6c025e120f136e6dad62b4f89f9482cddb6674a0cd3d5c76c4f57bbcd42df9da419f255d86cf37ba01b23f6b34234c325f9bdd12feda566fdb5a89cd29f62bfa706d0b3e0fe95acfd0a5027fa45bdce02bf397506cd2659e165d25e4a3f64deee0eea80e6d038134d89744a9b1df22ccd7aedbed6bb81cc24acaa73b45f6cee006af5069fb54ebdf9327cc7d1bd05f0e7d813333e53f6821e4afe944301d7c905d643be09dec0380f34c29947e28dc0eec8db98e85dd4549e6611c6de044b1f66857635ecffe3a97da3e0ed8b834fa9eda930d5d27bd100ae8067df17c803dadcf283a404936efb5137294315a11364d11f29fd6af80ca6a63dbd26b467206601f1ca5683f420625e8175e46d4973096a385a3b6c7359e32e93105a09f5454ccc3b73ee84d48add5aa22395068f580fcb47441b024188d1222f550ac6710ce28ba687b6b40ec50b61d8b9dc7bcd09b52c0ff1b2b8631a0d21576da0e7d9f9f715b1a7d2534765ed45377a17f70926d5fdc9174a03974f9d9f251bc6e64632b5ebc4a4368b8d9acff35b785a8f198601dd3980cf27168a61f1d1b1bc32e5cbfe4bb823db9f0ccbf26c12a135be8b8971cf345239a28167689cc1667c50c9e787b6a15e089303a062417f8d1c8a4ffcf93ed7b51bbd3963c05e57e305f38bd9fe7d25f0236e190958c99b7aa1d91fb3012c107505e1a238843b69089ace2f4fbff58970081469143d5133718e792d8db47d770123a03c86fc82081bd1605ef1510d734bdbd3a17bf3458aae80b131c2b393d4b5051687576808c939abec0d0dfe4e7f1171b383e484e505474889097c0c7f90e242d444654606b7274778e9298a5aab6d0dced2c354f578792969b9da2a8b5c0c1dae3e6000000000017263a4b01fd210500801ed9aab82ff0f671248b26c6c0bdc4d352d41441a51c836e0be442ee834d6899550fd18dc16a4238d889cc53e14ce7982c76ff02227bbf1b938d35db7be8e11cfd86be5b58a8652ae96102dffbf1a80896a5633dec17611edede5eb80b94a48f088b933ebc113982b51000d264023acd94c42eee624127cd38998abc00b5fb709646429d6e0b598c05098e028b685f8dbb9c7688568c8253910e98f912e0747bc52a9255d4a038fe70cf4b748277c0315ca23d22e8db1ebe0ea529d357eba46567ee7a00e72551edf626fa55a0f5afc884c52126b03f19a6ccb29a905a7c82c62035c90b351fd04a3a67b1114338add9f3fcf6876db82217c974d100b1d6f273b46bdf1bb30268b6a413d05e7e1f63a4524302b524a03a0ea28381497be0961e63223f289691798c6c14951c9bce284ab377c8366566e73dbddd712846594894f56bb0d7c5e46b2746c97e2389b09510fc942157fcc0cfa51534c76adb0fd5edab2dd7d1e764a477d7141707b626460bad7b39337aac653672a4d4c7eaef166ea713ad0051808cf5051ec71a5f321d2dda1339b35f17ccc5467d04a40784908cf37bcc0a541dff658489ef6f70ab1df3ec7e3f0789db83ab582fa408b2e25da0fc353e1949f6f17d2b281b8a587209ad73b2a24c9773def99a91b14f895f5ac05672a9293d90263a49454ea99096cff033afa503e6ef7a408f5907db33915a73792d410e44ace5b5a94c59c486627bf5977bc551f8daaad85ee989dd8c99b1cf8ecb220ecc7ad905e018d91c8a34c520c9d5da4ecbc75016057e7f33796674cbfd907d50b6572eda59f54bc8441882aedceaf8dc0b24c98d9880352ede29bed2013c3596a0c4a1c64a3e4dac7f6408732b659a0a562652ad4a4f0476453e2b0476c2acfd0a47ece4920c5f896fbb0e9079bab80784ad8c7c1754831cb97ce7c9ca068d8ea3a36b6ef9476f9526a6f691cf04403e145d1047c91e78d0aa330d6139862944cc43caa9764ce6d908b950ad4ebe993a43e18a95be371795f56b6cc601952ef272241a18efc30a93162b43e8fbdb4f1d1519b82f100bbd251a7211ad3fb595275364bd09eb94d19b7e8016e84400adcbbd5a2266d98993fa7b0bc2d1b6b02551f214f7b59eff6c80b0ae86ce223e67e5e708ab51f70e4524a3230842d9daeb7af8b4f488b0bdc3af77f90b0aeaf19c58518d80575cc85cd817cbd6769fb1f665f8e32742f275a0c4cc83d6c91f2a1371d40f86c7fcf624160bb4f2f522b27aa87828664902ca705b83f0cfef2b40e0160c00f5f642ac363371c697631d5cd34d34a0a9ea8d35d9817bdb9d48c078f24492ee84ecc4461df5258a76a5045255e9e8bcd6becb311b883c196741d68c139b6e9683b235de2a2ca0e31da1d69325c0a84203c339f9b83f1af00cd7e44b2dd2cead7b44c4c446c8e6ca9e9103ab9a3eaa4f89dcd350418b714f6493f62bae425dd3a9132dcd282d81c8f93b43aaf256ac91af1aa60219857e23050ed7e6dbc5ca14dfba58970aaf04e5c2ad78837ae3b5dee399b67ca4c8b726eb557fa3209f88849130cf252eda6eb1666ec7f7a6e4673d7864ac9f15b4cd2a61e028b386b63d42f46866a9a36bd02b0d02e751cad2b970adba6a238b57cbd31947d4c7fab0f9fd634b93ce979a93e333a5bbc8136298279350f7d6f92bd434f9dbc366a6e515a1a4ce667919666da45899505fbdbaceb910b9efed89f7ea822d2bc8a5d43a10754a199814173143fc812fc2ac72e45e589891d4e886401cbc5479ebe1128d01874a72227af50cd10d98eb0022d3ed9b3f3b65fa1c9f81ed7f8ed708e91e74aede8632c4de7920071e9c6b000000",
  "txid": "6c78902ebb84145a0959cc6e24dac677574584ef2ca9dd591623609863ee4c45",
  "hash": "4109b886ff65c115a00bf01e510da5bfc9c8474f3bc1f3e4b2ae813dbb967564",
  "size": 5085,
  "vsize": 2278,
  "version": 1,
  "locktime": 107,
  "vin": [
    {
      "txid": "2a6915c2c97a5cd520fcb1211528288cdcf854348f5c703d0386c3b69099f24b",
      "vout": 0,
      "scriptSig": {
        "asm": "",
        "hex": ""
      },
      "txinwitness": [
        "6df5f701f5993b4425e92228ce24c8e38b3306d17ba9bb15c1e0ec5e4ead9698dbbd8455e1ea996ad83f9c5556743b2e95419b490e020e97736ab8b527e894c80e44c08e14514f84c270687f59ce21e3b007c3f850362543345738e1567f1212d405b6afdac9979a1b6808c65f755ccab017a73d077bc60bd3fe5708ee290f841d89f907b2059b894d9891c206014a32011db6f4ebf27172c24cf170a43d97fdad6ea7e11b29e40d93c16ebd31e99301d6e724a0efbde26f7a5c744991a5b050c9addca631f5e8a0a793575cc15f2112a5f26f769c314ae40de3be2380dee0fd56da025cd0ff203450b929caaf0f38144af7fea64bf1deb8c2ee0b78d78d753f7bc7acc1ea069b00a1f0c216f5546bb46bd6c347ca8d1828449e76b72590f6f2df189e82111094d28724b1b5941eab23d857c605f09f628c4b2d2f49f6aade1ef66a5693fc8b24a7650b9ac5c04ce99f8349d1ba9dd8ef4d38748faabd5d8cec0d717bf6402df4c09b6e09f942083964e41dd1e88392e5508085465b34da15a9c109b18e4fb615312b44df5555e6ebb37fa5da39e0bf73a365837599df7f42a30b31cfeb37018731c87440a1ac7dc09c952a91069cac2774a7d72d3e9f11fe0bef09fa6fce93bbc7ad1edb2587084be688fd84031acc602e6dba223a3e0ad0b7c7aefd8795b42d97ca36d04086dc86147ad303479a966d0b18598fd5c0c3da617c934061fc982a3ae34c417f50a88dcda8f8e8d2aaff93d4edf643ac9bd5286c1d1fb12116577e006a16eccc89ffc88350841543e20f04ac4dfa1f44cb3cb0cdbc87f63ef75c71e6ecee3fc1dc8de6692c20c2deff0783d7e724a06264d76e1f01e7bc16c2aaea3aa4100c9b74becfe3e9a7b3ae83583cdc28bea35f66e5257b8829607f8f0adac7e0550e7101c340f3c25f8d0ed3b69589caf180eed4aede9fc44609b830ad1e3e022d24631d2cc2cab343e47cd8e641486792f94e37ff77dc3445d2a5b49efcb2c268a8a98cab48de3752d719161aa26a7b961e38d9920619423504229d35e1d6cd03057b8efb1b2b65b86d18798a21ca5be8eaec3af0cfe45966ec2e31e4aa421a6add486f339da010ad6c84b9f4c673bf6ed6b16532a0818be3d0c32e8a6c01981ccdff3233156246ecbecf73b193a0b348fe5eca333634233a52f97f633dd4851ac7a846b822a93a58243438d7c85fb8d94679b39582d5b4686716e8cd2912b80b00621de638e556f3d76026e73004bc2dae97a6526f24e8acd71a1fc170d3ab12199977135a94270b3ca690c301f5af2d1440691aad7608155bd87ceca0d16d6f7ea172cde58e0f086515a37c650cec88e9c41b9d733722e6803dfcc92557b859d4452e5e7f75c17807a9564b5a5edbbceeeba91eece10b15a6f01c90508e39c27f6c597c317b6eff90c67204741b6b34d56d3d46164af5c68d424123d50ca8b73bedde7a1bc9661359ed63bf6241d9985bf21e18291daa7f8157af4491e5e8192e3af8302172c20f1741ccac233d05888a66ed9d2909436142233087a870bdd1e2b795d71338dab0b89e8e7ea330ebbf6d482b3f8cc1c48ad27948f41692f4a2fdf6d70e22cf17e4952452bc80b6b4399e591edb1710e3e2f0d5dc83c89a63a39a2d34966d299ae8e2441039fee39fd240cac1026f056389a8296599f68a2d89fad7e946fc0acdb4952097b58210177fde88a1b3091dda0e73f3b603434a49a7439770dbcc9ca0b811f11b8d9dd4baa123067c3aaaf6cc1c3bb60b7a87fe7eab067ba29db88221a8281789c5a30083f3254d0898fbd529ea27b9c95ed0fbc12f2bbefbfa96c2217e8947cd428f11f19570af997a37581a856161d809fe05794d918b5ed940f43be6b235c9102c361fbe7a8db12398c3b562c43bedf0349d9b7a8ab0929a470ba81cd73e0bf8c54e37e9322bb61faecaef86ca8e1cc989b01c98c090d6b759132af5024dd381756db5d64ab4df6874115bd85b2709046dbe4eb5a2a1871c26ac3febf0ca91cfc51e1c297d99af534bcbb09ccbdc3bb9f583760ba00cde0d343965521f9f6038021db9c8a6f69d35d98082d05de01528046d72905dab9708c90188db4ae25bdf22d4940925079a55c50d0236f4970b8174b7c1e79aae60d6b6bea013e7dec5d75b7c2b19cada406f7e001b53d0088a5e6f236ba550e15330daa66951c5700497ee1c1fe318a4234def5ace33a3c2ce058aa6b2f3c64944c34dbbd43f5e10c3f08964f8ae35d7eb87cd1b58bbb9cedc6816ab05802cea9e3cdf903153bb707c3b470d9aa9bf28123817809650a36c4e1855f0637ef32f7e03ed8112132c61d128c9e9c2710cd05e13041754b4384c4ce4a03b6cc0020745c1cab4f9009cbb7a27ddcb7392a32b044bcd293410b484c27ced3a5df3699e36a24c1908be4e3e7b47293897d0c3b4db12bdfb5d91f9ac8085388926678031768150ec04f021d854308dcce25b44a060061cee5f39baae95d8c735cf2bc1d550f7237530a2928d5c6c025e120f136e6dad62b4f89f9482cddb6674a0cd3d5c76c4f57bbcd42df9da419f255d86cf37ba01b23f6b34234c325f9bdd12feda566fdb5a89cd29f62bfa706d0b3e0fe95acfd0a5027fa45bdce02bf397506cd2659e165d25e4a3f64deee0eea80e6d038134d89744a9b1df22ccd7aedbed6bb81cc24acaa73b45f6cee006af5069fb54ebdf9327cc7d1bd05f0e7d813333e53f6821e4afe944301d7c905d643be09dec0380f34c29947e28dc0eec8db98e85dd4549e6611c6de044b1f66857635ecffe3a97da3e0ed8b834fa9eda930d5d27bd100ae8067df17c803dadcf283a404936efb5137294315a11364d11f29fd6af80ca6a63dbd26b467206601f1ca5683f420625e8175e46d4973096a385a3b6c7359e32e93105a09f5454ccc3b73ee84d48add5aa22395068f580fcb47441b024188d1222f550ac6710ce28ba687b6b40ec50b61d8b9dc7bcd09b52c0ff1b2b8631a0d21576da0e7d9f9f715b1a7d2534765ed45377a17f70926d5fdc9174a03974f9d9f251bc6e64632b5ebc4a4368b8d9acff35b785a8f198601dd3980cf27168a61f1d1b1bc32e5cbfe4bb823db9f0ccbf26c12a135be8b8971cf345239a28167689cc1667c50c9e787b6a15e089303a062417f8d1c8a4ffcf93ed7b51bbd3963c05e57e305f38bd9fe7d25f0236e190958c99b7aa1d91fb3012c107505e1a238843b69089ace2f4fbff58970081469143d5133718e792d8db47d770123a03c86fc82081bd1605ef1510d734bdbd3a17bf3458aae80b131c2b393d4b5051687576808c939abec0d0dfe4e7f1171b383e484e505474889097c0c7f90e242d444654606b7274778e9298a5aab6d0dced2c354f578792969b9da2a8b5c0c1dae3e6000000000017263a4b01",
        "00801ed9aab82ff0f671248b26c6c0bdc4d352d41441a51c836e0be442ee834d6899550fd18dc16a4238d889cc53e14ce7982c76ff02227bbf1b938d35db7be8e11cfd86be5b58a8652ae96102dffbf1a80896a5633dec17611edede5eb80b94a48f088b933ebc113982b51000d264023acd94c42eee624127cd38998abc00b5fb709646429d6e0b598c05098e028b685f8dbb9c7688568c8253910e98f912e0747bc52a9255d4a038fe70cf4b748277c0315ca23d22e8db1ebe0ea529d357eba46567ee7a00e72551edf626fa55a0f5afc884c52126b03f19a6ccb29a905a7c82c62035c90b351fd04a3a67b1114338add9f3fcf6876db82217c974d100b1d6f273b46bdf1bb30268b6a413d05e7e1f63a4524302b524a03a0ea28381497be0961e63223f289691798c6c14951c9bce284ab377c8366566e73dbddd712846594894f56bb0d7c5e46b2746c97e2389b09510fc942157fcc0cfa51534c76adb0fd5edab2dd7d1e764a477d7141707b626460bad7b39337aac653672a4d4c7eaef166ea713ad0051808cf5051ec71a5f321d2dda1339b35f17ccc5467d04a40784908cf37bcc0a541dff658489ef6f70ab1df3ec7e3f0789db83ab582fa408b2e25da0fc353e1949f6f17d2b281b8a587209ad73b2a24c9773def99a91b14f895f5ac05672a9293d90263a49454ea99096cff033afa503e6ef7a408f5907db33915a73792d410e44ace5b5a94c59c486627bf5977bc551f8daaad85ee989dd8c99b1cf8ecb220ecc7ad905e018d91c8a34c520c9d5da4ecbc75016057e7f33796674cbfd907d50b6572eda59f54bc8441882aedceaf8dc0b24c98d9880352ede29bed2013c3596a0c4a1c64a3e4dac7f6408732b659a0a562652ad4a4f0476453e2b0476c2acfd0a47ece4920c5f896fbb0e9079bab80784ad8c7c1754831cb97ce7c9ca068d8ea3a36b6ef9476f9526a6f691cf04403e145d1047c91e78d0aa330d6139862944cc43caa9764ce6d908b950ad4ebe993a43e18a95be371795f56b6cc601952ef272241a18efc30a93162b43e8fbdb4f1d1519b82f100bbd251a7211ad3fb595275364bd09eb94d19b7e8016e84400adcbbd5a2266d98993fa7b0bc2d1b6b02551f214f7b59eff6c80b0ae86ce223e67e5e708ab51f70e4524a3230842d9daeb7af8b4f488b0bdc3af77f90b0aeaf19c58518d80575cc85cd817cbd6769fb1f665f8e32742f275a0c4cc83d6c91f2a1371d40f86c7fcf624160bb4f2f522b27aa87828664902ca705b83f0cfef2b40e0160c00f5f642ac363371c697631d5cd34d34a0a9ea8d35d9817bdb9d48c078f24492ee84ecc4461df5258a76a5045255e9e8bcd6becb311b883c196741d68c139b6e9683b235de2a2ca0e31da1d69325c0a84203c339f9b83f1af00cd7e44b2dd2cead7b44c4c446c8e6ca9e9103ab9a3eaa4f89dcd350418b714f6493f62bae425dd3a9132dcd282d81c8f93b43aaf256ac91af1aa60219857e23050ed7e6dbc5ca14dfba58970aaf04e5c2ad78837ae3b5dee399b67ca4c8b726eb557fa3209f88849130cf252eda6eb1666ec7f7a6e4673d7864ac9f15b4cd2a61e028b386b63d42f46866a9a36bd02b0d02e751cad2b970adba6a238b57cbd31947d4c7fab0f9fd634b93ce979a93e333a5bbc8136298279350f7d6f92bd434f9dbc366a6e515a1a4ce667919666da45899505fbdbaceb910b9efed89f7ea822d2bc8a5d43a10754a199814173143fc812fc2ac72e45e589891d4e886401cbc5479ebe1128d01874a72227af50cd10d98eb0022d3ed9b3f3b65fa1c9f81ed7f8ed708e91e74aede8632c4de7920071e9c"
      ],
      "sequence": 4294967294
    }
  ],
  "vout": [
    {
      "value": 499990.8479,
      "n": 0,
      "scriptPubKey": {
        "asm": "1 7a438d1d443c2e2c29691340a5e269021b7348cef5bd63d2a8064e0e63e7c3a1",
        "hex": "51207a438d1d443c2e2c29691340a5e269021b7348cef5bd63d2a8064e0e63e7c3a1",
        "reqSigs": 1,
        "type": "witness_v1_scripthash",
        "addresses": [
          "3QJmnh"
        ]
      }
    },
    {
      "value": 1.0,
      "n": 1,
      "scriptPubKey": {
        "asm": "OP_RETURN 46ac590ba5ac8fcfd83063df151c7b5f3f59d0b10a78e0f6fea776f20594090e a8e36192dac29550b33fa33dc3f666b852d0cd191069657b7c0859e2b191ea4188c341b2fae2b570931f831de3d6469872f0ed393049455b5c2879c291b1ca61e8a321d29a82d510f37fe37d83b626f812908d595029253b3c4819a2f1d1aa01c88301f2baa2f530d35fc35da39606d832b0ad797009051b1c683982d1f18a212863e1125a4215d033bf23bd4376e638d2504d9990e9e5fbfc88d96231116ac10843c1327a6235f0139f039d6356c618f2706db9b0c9c5dbdca8f94211314ae16823a1521a02559073ff63fd0336a67892100dd9d0a9a5bbbcc8992271512a81480381723a2275b053df43dd23168658b2302df9f089859b9ce8b90251710aa1a8e36192dac29550b33fa33dc3f666b852d0cd191069657b7c0859e2b191ea4188c341b2fae2b570931f831de3d6469872f0ed393049455b5c2879c291b1ca61e8a321d29a82d510f37fe37d83b626f812908d595029253b3c4819a2f1d1aa01c88301f2baa2f530d35fc35da39606d832b0ad797009051b1c683982d1f18a212863e1125a4215d033bf23bd4376e638d2504d9990e9e5fbfc88d96231116ac10843c1327a6235f0139f039d6356c618f2706db9b0c9c5dbdca8f94211314ae16823a1521a02559073ff63fd0336a67892100dd9d0a9a5bbbcc8992271512a81480381723a2275b053df43dd23168658b2302df9f089859b9ce8b90251710aa1a8e36192dac29550b33fa33dc3f666b852d0cd191069657b7c0859e2b191ea4188c341b2fae2b570931f831de3d6469872f0ed393049455b5c2879c291b1ca61e8a321d29a82d510f37fe37d83b626f812908d595029253b3c4819a2f1d1aa01c88301f2baa2f530d35fc35da39606d832b0ad797009051b1c683982d1f18a212863e1125a4215d033bf23bd4376e638d2504d9990e9e5fbfc88d96231116ac10843c1327a6235f0139f039d6356c618f2706db9b0c9c5dbdca8f94211314ae16823a1521a02559073ff63fd0336a67892100dd9d0a9a5bbbcc8992271512a81480381723a2275b053df43dd23168658b2302df9f089859b9ce8b90251710aa1a8e36192dac29550b33fa33dc3f666b852d0cd191069657b7c0859e2b191ea4188c341b2fae2b570931f831de3d6469872f0ed393049455b5c2879c291b1ca61e8a321d29a82d510f37fe37d83b626f812908d595029253b3c4819a2f1d1aa01c88301f2baa2f530d35fc35da39606d832b0ad797009051b1c683982d1f18a212863e1125a4215d033bf23bd4376e638d2504d9990e9e5fbfc88d96231116ac10843c1327a6235f0139f039d6356c618f2706db9b0c9c5dbdca8f94211314ae16823a1521a02559073ff63fd0336a67892100dd9d0a9a5bbbcc8992271512a81480381723a2275b053df43dd23168658b2302df9f089859b9ce8b90251710aa1a8e36192dac29550b33fa33dc3f666b852d0cd191069657b7c0859e2b191ea4188c341b2fae2b570931f831de3d6469872f0ed393049455b5c2879c291b1ca61e8a321d29a82d510f37fe37d83b626f812908d595029253b3c4819a2f1d1aa01c88301f2baa2f530d35fc35da39606d832b0ad797009051b1c683982d1f18a212863e1125a4215d033bf23bd4376e638f51da246ebccab33e0dfa97a4a03aa34f8b5e317e8235bbe7be1858fe5751569",
        "hex": "6a2046ac590ba5ac8fcfd83063df151c7b5f3f59d0b10a78e0f6fea776f20594090e4db004a8e36192dac29550b33fa33dc3f666b852d0cd191069657b7c0859e2b191ea4188c341b2fae2b570931f831de3d6469872f0ed393049455b5c2879c291b1ca61e8a321d29a82d510f37fe37d83b626f812908d595029253b3c4819a2f1d1aa01c88301f2baa2f530d35fc35da39606d832b0ad797009051b1c683982d1f18a212863e1125a4215d033bf23bd4376e638d2504d9990e9e5fbfc88d96231116ac10843c1327a6235f0139f039d6356c618f2706db9b0c9c5dbdca8f94211314ae16823a1521a02559073ff63fd0336a67892100dd9d0a9a5bbbcc8992271512a81480381723a2275b053df43dd23168658b2302df9f089859b9ce8b90251710aa1a8e36192dac29550b33fa33dc3f666b852d0cd191069657b7c0859e2b191ea4188c341b2fae2b570931f831de3d6469872f0ed393049455b5c2879c291b1ca61e8a321d29a82d510f37fe37d83b626f812908d595029253b3c4819a2f1d1aa01c88301f2baa2f530d35fc35da39606d832b0ad797009051b1c683982d1f18a212863e1125a4215d033bf23bd4376e638d2504d9990e9e5fbfc88d96231116ac10843c1327a6235f0139f039d6356c618f2706db9b0c9c5dbdca8f94211314ae16823a1521a02559073ff63fd0336a67892100dd9d0a9a5bbbcc8992271512a81480381723a2275b053df43dd23168658b2302df9f089859b9ce8b90251710aa1a8e36192dac29550b33fa33dc3f666b852d0cd191069657b7c0859e2b191ea4188c341b2fae2b570931f831de3d6469872f0ed393049455b5c2879c291b1ca61e8a321d29a82d510f37fe37d83b626f812908d595029253b3c4819a2f1d1aa01c88301f2baa2f530d35fc35da39606d832b0ad797009051b1c683982d1f18a212863e1125a4215d033bf23bd4376e638d2504d9990e9e5fbfc88d96231116ac10843c1327a6235f0139f039d6356c618f2706db9b0c9c5dbdca8f94211314ae16823a1521a02559073ff63fd0336a67892100dd9d0a9a5bbbcc8992271512a81480381723a2275b053df43dd23168658b2302df9f089859b9ce8b90251710aa1a8e36192dac29550b33fa33dc3f666b852d0cd191069657b7c0859e2b191ea4188c341b2fae2b570931f831de3d6469872f0ed393049455b5c2879c291b1ca61e8a321d29a82d510f37fe37d83b626f812908d595029253b3c4819a2f1d1aa01c88301f2baa2f530d35fc35da39606d832b0ad797009051b1c683982d1f18a212863e1125a4215d033bf23bd4376e638d2504d9990e9e5fbfc88d96231116ac10843c1327a6235f0139f039d6356c618f2706db9b0c9c5dbdca8f94211314ae16823a1521a02559073ff63fd0336a67892100dd9d0a9a5bbbcc8992271512a81480381723a2275b053df43dd23168658b2302df9f089859b9ce8b90251710aa1a8e36192dac29550b33fa33dc3f666b852d0cd191069657b7c0859e2b191ea4188c341b2fae2b570931f831de3d6469872f0ed393049455b5c2879c291b1ca61e8a321d29a82d510f37fe37d83b626f812908d595029253b3c4819a2f1d1aa01c88301f2baa2f530d35fc35da39606d832b0ad797009051b1c683982d1f18a212863e1125a4215d033bf23bd4376e638f51da246ebccab33e0dfa97a4a03aa34f8b5e317e8235bbe7be1858fe5751569",
        "type": "nulldata"
      }
    }
  ],
  "blockhash": "70f7ec20af3843e0d144de9ce3637c8baa62723aad58289fd59c71fdb9075fdf",
  "confirmations": 1,
  "time": 1764177228,
  "blocktime": 1764177228
}