{
  "hex": "01000000000101ab823c8c269403bec2be0f5ffc4468b809d32ad20121ad5a0064f0c624f75e2c0100000000feffffff0220cc6133792d00002251208d1b09f9c411ee47e2c8802736831297cc865727ad433b1da62de85be004fbe500e1f50500000000fdd5046a20ddc20b09b18db4b66000a10299fc8c43da817f6cf69982b4ec4b11ea8e21ad8b4db004e3bf6b3e8aaff78c08dcfda9c38c450a5c1a88b79ab9bc72ce95313b523c810fc39f4b1eaa8fd7ac28fcdd89e3ac652a7c3aa897ba999c52eeb5111b721ca12fa3ff2b7ecaefb7cc489cbde983cc054a1c5ac8f7daf9fc328ed5717b127cc14f83df0b5eeacf97ec68bc9dc9a3ec256a3c7ae8d7fad9dc12aef5515b325ce16f633febbe0a2f770c885c7d29430cc58adc9a08371a393cf24e15b1bbd2bc018f431fcb9e2a0f572ca87c5d09632ce5aafcba28173a191cd26e35919bf29c21af237fabfe4a6f374cc81c3d69034c85ca9cda48775a797cb20e55f1fb92fc41cf035f8bde6a4f176ce83c1d49236ca5eabcfa68577a595c922e75d1dbb2dc61efe3bf6b3e8aaff78c08dcfda9c38c450a5c1a88b79ab9bc72ce95313b523c810fc39f4b1eaa8fd7ac28fcdd89e3ac652a7c3aa897ba999c52eeb5111b721ca12fa3ff2b7ecaefb7cc489cbde983cc054a1c5ac8f7daf9fc328ed5717b127cc14f83df0b5eeacf97ec68bc9dc9a3ec256a3c7ae8d7fad9dc12aef5515b325ce16f633febbe0a2f770c885c7d29430cc58adc9a08371a393cf24e15b1bbd2bc018f431fcb9e2a0f572ca87c5d09632ce5aafcba28173a191cd26e35919bf29c21af237fabfe4a6f374cc81c3d69034c85ca9cda48775a797cb20e55f1fb92fc41cf035f8bde6a4f176ce83c1d49236ca5eabcfa68577a595c922e75d1dbb2dc61efe3bf6b3e8aaff78c08dcfda9c38c450a5c1a88b79ab9bc72ce95313b523c810fc39f4b1eaa8fd7ac28fcdd89e3ac652a7c3aa897ba999c52eeb5111b721ca12fa3ff2b7ecaefb7cc489cbde983cc054a1c5ac8f7daf9fc328ed5717b127cc14f83df0b5eeacf97ec68bc9dc9a3ec256a3c7ae8d7fad9dc12aef5515b325ce16f633febbe0a2f770c885c7d29430cc58adc9a08371a393cf24e15b1bbd2bc018f431fcb9e2a0f572ca87c5d09632ce5aafcba28173a191cd26e35919bf29c21af237fabfe4a6f374cc81c3d69034c85ca9cda48775a797cb20e55f1fb92fc41cf035f8bde6a4f176ce83c1d49236ca5eabcfa68577a595c922e75d1dbb2dc61efe3bf6b3e8aaff78c08dcfda9c38c450a5c1a88b79ab9bc72ce95313b523c810fc39f4b1eaa8fd7ac28fcdd89e3ac652a7c3aa897ba999c52eeb5111b721ca12fa3ff2b7ecaefb7cc489cbde983cc054a1c5ac8f7daf9fc328ed5717b127cc14f83df0b5eeacf97ec68bc9dc9a3ec256a3c7ae8d7fad9dc12aef5515b325ce16f633febbe0a2f770c885c7d29430cc58adc9a08371a393cf24e15b1bbd2bc018f431fcb9e2a0f572ca87c5d09632ce5aafcba28173a191cd26e35919bf29c21af237fabfe4a6f374cc81c3d69034c85ca9cda48775a797cb20e55f1fb92fc41cf035f8bde6a4f176ce83c1d49236ca5eabcfa68577a595c922e75d1dbb2dc61efe3bf6b3e8aaff78c08dcfda9c38c450a5c1a88b79ab9bc72ce95313b523c810fc39f4b1eaa8fd7ac28fcdd89e3ac652a7c3aa897ba999c52eeb5111b721ca12fa3ff2b7ecaefb7cc489cbde983cc054a1c5ac8f7daf9fc328ed5717b127cc14f83df0b5eeacf97ec68bc9dc9a3ec256a3c7ae8d7fad9dc12aef5515b325ce16f633febbe0a2f770c885c7d29430cc58a160eb028002eba3389a787b27f3069b91cb7b4b2acc88e6cbdf3a7078fed946202fd750921b55a37edd207b2a79ee9c37b07f19536e8558970d7a03baaae98f7ce4ba509f4bdfbd88fc3e391199eda56a8125cb94d9a15abc763d1c897514daedaf2dab2435acc3aed2355c7d9b88783d339dd86c1612baa1da6805d35bd3c5ad826b17fb644632dc4be4f818eac1b5c35d6b3fd9ee026ef8a5040551e59aa844831f406241c52aade019f6a46e7ee403ced4607b68ed0b6598f9f6c229265b59c153f633839c35bf1a4396aa0f9effaccbf3fb02c013b003283abf75e36e753a6906f00c13960f69d522d1515caba1796664d87eff6180522ee0478079385a72b04ed5782ddf4ff3c176b8d6acad06a3133b0397b5327771f7de353e9a975aea5e06de12a06b045f579f1adb4c39438cc16a89070fe5817c7a9ec794171b7169fa6fc27d56fa3c3d224374cd73b5db7f4521666ef6b846c2db065a36412ce577504a57ed0772263676a092d252819a5436feb51086d24aa1dd65808512c0166ae6c3fb9959c863a8a0a7961d7302aec50f22e986c5aac4eebbf77253e832efeac421d19d34e6aaac0d9dba1f7f2d549d341bcbf9cca53aa340224cecd8d4e554ec1b5eac729634c49ef4977a766439d8457d3a1e9f68d763bd3b7bc42beab82f4c339f811462de7333431e1bd5e7b2d739d8f92b34f924731fd54403cc8775bd856a4e653175a7ef8f50146c94ee4cb056a813105f8b6e4c9c38508a8018aacb6f7b731c9575af71be0c9a35c78372155563230814e2005505000229aeb33085b0f7700e757c9461b2c064a5c1728de6ef57e74f0126fd151973880c17607eff4e119c44513508ab822f91fa3a936e0b1f3eb4056a6ac7309107e4caad1fc55fb7d02e5aac3da47ae6e6e444e2ae4d7a908ed4abbb3a2977425365870f6d22f5bef8371acf3438a84f255a102a5e92a93219f40691b3336872be9de0205849b0391ca1f13b15df1567605dd07467a8d07b72a0260a681c00da7f5743125dc4f5fcec1d428fed5637a5ec5ae57ce20998b8a88cc5a8eda602edddb75ae66155660726039bbcfe6b65ad680eb5e3812fa85ec8020c6bef02d797f76a4be62dbddcc49ab2ae6e03bd7816d173111d70ec239ff36f48c9b163b9e8e3b1eda3db60441cc5abea9ce0b97eedc66fa0015ced149ce67e7f4199dea5b17e96a296da82ceaa8a99e73258fd163652a4d1115b399bcc28a28edadf6be20b1d76e8f2c0ce303b62d69401d5f7e2d37626d63a4b579d5931bc56def37679b112b495c944a55876c4300859ef23605e65a8d240ecd7bdff2896d0eccf9c6fbcd5ff66dd6b55217d5f1afc880fa744bf3948e5c1d967c21119f3ca77a2165072bf98d74a5b40b95ef1924129db5d06bf96d13879cffe84dbf3fa0f5d0d5c2eab1a90b0b418be60bfd1a6cd0f0fbc6cbfaf844b9d8de328e00754e8dafe018eb8a8ad6f06ed2f6609471f5187dd408d5d93fb1655f0ff2b91a1648da2fdf8ef4c3f56dccfe130a92afd33fce735c7f536f02ed59dd3d4b42011e0589307e47819de957b7c267da48bc077177d0af8a4a111dd47e642d86747608bee1c37834e14dc0df9e88eee1b6b8006458d75063ae1fcc3ce65d3c26810944a3f5990ca1b9a07e34d1237f7008aa6598a7139abd13ba2d082154a079d1193780a8a8b2cc09e027e2fbae0892703e27ecd02a6ea6af686e5c7af3244c5f307a557d8b85a32bb987b5d2140cf701325c8f44900684e2d9516e21585caa0a06d57cbfe66daf5c06ed6b6a693a28276370b00ef7e3c814f64b6941a670b16acc384592b6cfe91ab5e558ccfe13445f4e58b6e6ef2aae8aed626bd663f1a6b8c3182e1c9daa08c62c13d9e5867e401250e7c8df014396dcd4a1385d80f98731fa0413b58452c5ba266dd21712eb27213446d099ba2dc0f73774ce973e084d4db1b5ed4079b8633d7433af2229e0b03be963f01777b2fc75e235e5fc63117023d47fe96a9661c837f7838a57f03d216e0fb36fd20fee9a8ca43c98dd4aba033b8b3ff9df933335229b3b7a2afeb2a63fae024767ac04d5f814e2a54b86d4317d3b9e89cde3af949e1af0bd8c606027edd100a432539c371b71241d13868e331f9817aeccd40685363891b09d5d9f7bdc62aa4e0e68912d5bb2f80c1a1c0df3a4bee5c33e9028114e751b6594b194745f9d9820957a2fb9389d5a7445246fa4fa516df627d68af328a451d075caae3a26292225cb65fadc4e819b6ac7fcde79d172483021724252aea71509e2c2845abfb99cb32e2585bdaef6d5b2436f5ec593cff83817e6bee8aabce52a2cfa407aa469c517b6fac1f73cb5479b3da71564da2a49f4c977aa9a5057143604a5cadd8ec6b42573343e59166b2f93915a124510ce3a8e7cd45772a1adb4bd1cbb41086c8da77e7733e5c9afa07bbff04c601bc4815e8a214e2697b85b186d8e07063b395936699666bdfe567e4755ad84a70c48109a6656ac6eee5c943efe1de0f46b3d8e76db1f1c389fe28ed30809ba0d04654477bebf7dd134c3ffcaa42724e59744404f983e03a00cc1da1373fed0806b3c60c83e95855a4f11d213275f10183948df92415cc596929781fc990bf5cf63add137aad41be67bd8dfaa26ac5eb54f019b3f59d0b067bb85e016b91ec3cfa0ae16882d627895b4f74ef9fd289b09434f090f6cfc219a47c222a1013ecd872ee594b50dcf334a5c3b7b9ddd589f64a21359dba3cb592b7b6b8ee767e32cd74884f204000184c593a68895c66a9a898286c50367440c29467d03e3080c4e1403be71ce245b4e18a16dd6c1c6cdfe525dad934138d9ab48612f40e87c1610afa4ce94b477e41f3dc942c27b5a62226cad5372700bb23a2eac39ae34aff404e6e255ecaaa9fdd34716fe35c8a7a1f77da6c43c041cb3742b74623f574a52387f3c68c108a5ab43c027af65de77ce40f611a567fb729f8586385eca4f5dd75d557a69671d935348a04ff739d216e9e27a56dd139a285247fb9029a6ca9fd032637c1e17aa9c76025329cacff2fa95c5bcf769bac19d461f0ea3e0d225129ad7bb4fbb1c3067887f8564e34e53dc9064b9136582b3dff05019ef3725dedf4c35a542c22670a951425b0067f7ac0d7f1b455ab044492e19f7d1c310d2d33cb35a4fccfdf6e051734db50ab08ca7ab22162732097a0735c28344663cec3a65a2f640bbe82e48d71ecb4a5b46d715e33ab210ed1b681fc4a2e1da1c70235276e94a5363401aee149108e977c71ec3ba3c55ac714d88ce0ee9e845e599875dc16938334a14ac701dc8a0361c1ca920aef115748cd939d696131718192930366c787e7f898c9da6aab5d7fc0610343f57707173959fa1b0b5bfe9fa1b1e49787a7c7eaebdbfe4ecf904558f97a0a2d9e10000000000000000000000000000000000000000000000001323303801fd210500d4209f2046cdeb8ff16389cd2194cd35f235e3a42651101824936faaa32c41e99255c6299fed9825a3a738c7d0ec74e4828920a165355371f5970b01db1b58dffcd3fa8f5f2668a53230238b881e637434415943df014f62509c64bb5cdfbaad5c755e1d962078bd17a1f9f934a318f79ce11db62290ca3cc49ffa34d27a5827e7a862eaceb1267151f14c283d2c4ca10ef53cd9ab10775e473cb5fdaac8507fe7a8993f80be4fe6a55e9f14d075d716b6f2840307b1b28e505c9cfafc4534391fc18302dd2ec4ff50e4254c1cf94ddf522c4a84f96e916e6729bd068f99d4c3b9bfa731b7afcf0b33cfaab83d6583ad8807baf6215c59a9557e174b47a5d9d8f0620dc253e8e491bd7c7defd62bc89342b81bdfa764efa26c18b9c978acde486492f0b176a079527d7e7c4d54a7524e3ce6d6771fb3df7da7f7ae2a4c4873a059584f05cc09e1d9a973a4bb93476c9bcef5cb976f886f64fc071d2bc9e8dbd92ea185e523c26c6da055ade515a77d9b27bcb126fc082dbc04c633ebbb33e895f48b5da028568c7135770bd8d42cdb9e85922bcced1fd73e86f26ab32ddec63b4426eda3a2c8f25477f2967c608722aa1d6bde68ca86d1e3bddf2b54933018e9501d50a0c3131c6e388229ab8f1ef8f3a066a06841c7cc363cacc41d200da5e3c9c953400d27e1297d68d26f91ae39a4640836e5a9bf00ad714d290787609e22dd29445d1e11693bcadf7d7054626812cd7bc043ee940dd3c032f60c99bc68b913459c03e7ffe933576aa167706bab79be47041f97d1ec79c2b9fa8f0a21cfb48d63bebb69a0e4619b287f8f1c90b25341ae67629ee3e10ecb3da4aab09f1e892419e0a8df5f40b1e7270a65215bcba386d157d7faa6a9ea4f2ec36c5075fb480fafde7e2bdc3de1825929d9a71d66c2f67e36b5878793ac04aa23af2776d65e5e739d50638aa6cf330118639d84e882d0e649038fc610fedc6e3a2090849d088f8766d1ef77a532c71b464d138cc4932a8571e83f3e5828cb94383e710c4b201e35b3e529f3b2deb54a86d6817cf6594b5482201667dddc597a688ff6b84a05ede2570981da79b548f0def987700cbc167bab0dd1e76b6d8b1748514d134e76888ab80d1cfb98f1d92ce9ee900890c137725e7466ea1dcb220dc71fe57a81e926a2ec0b43327b25cce3f661bf93dc3523033e56da0557f813a7a297fcfde05c304a0e20bc159fa6abb1ba96ae85d38e2dd707edfc3e6ac8443bf7e6e7f157a46f6f0f7c74a5df290d675f4ae68622726951c58f27dc46689b0835f145254aaed50fa0f82daeba63cad5753f821a1a08fa630a1244b998ac85dbec174c3959e871eecb777698da9d7a11cec14145e19e164795bf88ff1f83c16030a74563895a43c0ba76723a9fdac3a236d66faec215a874eaaeb1cb0f8ee8404ba8bbc6f795c52c618684c9d602b115b103a2cfeb126fee5affb3809355664406d275feb381d670b80614c3b26bc73710ccb4c20a1d22d544f1e36901c5875efffe8b09f4fc7311b490e8a3ef479833b129270068e35341da351a2e85be2e029ec67df9e9912fcf7cebebdb8c1a57944ec17adaa72709056c4402550622d5875f6e80539449b17482600567d7ec5a925ad3bb659a1495534b85b844fa3898699a8bc5b6ad76b6d019e7b365e5bfc61b383a1712205e6fe6e222b2c8cf61276df88998d05e742fdf9a788b9e1b61c9a0f0be6764d35e252e09b04e2e5ff1b71856337def0b7bd79559bc71683e0040b0613e7b207a728a5d6c1d7b9f447f785a4a48ab6125fbdb30a0030718758eb54a7d1b888cab9dd7b8b18377bc2399ff9d2eaba1a98f527b000000",
  "txid": "670e4ad6bd2f6c463139111213dc4c2688a97aafeec8b5f0bcfd8ac4ca78e0bc",
  "hash": "cc7f2ef3e8b389f115bf3dc891dae215401ca96bbf1c7d3de937969e0dd48be1",
  "size": 5085,
  "vsize": 2278,
  "version": 1,
  "locktime": 123,
  "vin": [
    {
      "txid": "2c5ef724c6f064005aad2101d22ad309b86844fc5f0fbec2be0394268c3c82ab",
      "vout": 1,
      "scriptSig": {
        "asm": "",
        "hex": ""
      },
      "txinwitness": [
        "21b55a37edd207b2a79ee9c37b07f19536e8558970d7a03baaae98f7ce4ba509f4bdfbd88fc3e391199eda56a8125cb94d9a15abc763d1c897514daedaf2dab2435acc3aed2355c7d9b88783d339dd86c1612baa1da6805d35bd3c5ad826b17fb644632dc4be4f818eac1b5c35d6b3fd9ee026ef8a5040551e59aa844831f406241c52aade019f6a46e7ee403ced4607b68ed0b6598f9f6c229265b59c153f633839c35bf1a4396aa0f9effaccbf3fb02c013b003283abf75e36e753a6906f00c13960f69d522d1515caba1796664d87eff6180522ee0478079385a72b04ed5782ddf4ff3c176b8d6acad06a3133b0397b5327771f7de353e9a975aea5e06de12a06b045f579f1adb4c39438cc16a89070fe5817c7a9ec794171b7169fa6fc27d56fa3c3d224374cd73b5db7f4521666ef6b846c2db065a36412ce577504a57ed0772263676a092d252819a5436feb51086d24aa1dd65808512c0166ae6c3fb9959c863a8a0a7961d7302aec50f22e986c5aac4eebbf77253e832efeac421d19d34e6aaac0d9dba1f7f2d549d341bcbf9cca53aa340224cecd8d4e554ec1b5eac729634c49ef4977a766439d8457d3a1e9f68d763bd3b7bc42beab82f4c339f811462de7333431e1bd5e7b2d739d8f92b34f924731fd54403cc8775bd856a4e653175a7ef8f50146c94ee4cb056a813105f8b6e4c9c38508a8018aacb6f7b731c9575af71be0c9a35c78372155563230814e2005505000229aeb33085b0f7700e757c9461b2c064a5c1728de6ef57e74f0126fd151973880c17607eff4e119c44513508ab822f91fa3a936e0b1f3eb4056a6ac7309107e4caad1fc55fb7d02e5aac3da47ae6e6e444e2ae4d7a908ed4abbb3a2977425365870f6d22f5bef8371acf3438a84f255a102a5e92a93219f40691b3336872be9de0205849b0391ca1f13b15df1567605dd07467a8d07b72a0260a681c00da7f5743125dc4f5fcec1d428fed5637a5ec5ae57ce20998b8a88cc5a8eda602edddb75ae66155660726039bbcfe6b65ad680eb5e3812fa85ec8020c6bef02d797f76a4be62dbddcc49ab2ae6e03bd7816d173111d70ec239ff36f48c9b163b9e8e3b1eda3db60441cc5abea9ce0b97eedc66fa0015ced149ce67e7f4199dea5b17e96a296da82ceaa8a99e73258fd163652a4d1115b399bcc28a28edadf6be20b1d76e8f2c0ce303b62d69401d5f7e2d37626d63a4b579d5931bc56def37679b112b495c944a55876c4300859ef23605e65a8d240ecd7bdff2896d0eccf9c6fbcd5ff66dd6b55217d5f1afc880fa744bf3948e5c1d967c21119f3ca77a2165072bf98d74a5b40b95ef1924129db5d06bf96d13879cffe84dbf3fa0f5d0d5c2eab1a90b0b418be60bfd1a6cd0f0fbc6cbfaf844b9d8de328e00754e8dafe018eb8a8ad6f06ed2f6609471f5187dd408d5d93fb1655f0ff2b91a1648da2fdf8ef4c3f56dccfe130a92afd33fce735c7f536f02ed59dd3d4b42011e0589307e47819de957b7c267da48bc077177d0af8a4a111dd47e642d86747608bee1c37834e14dc0df9e88eee1b6b8006458d75063ae1fcc3ce65d3c26810944a3f5990ca1b9a07e34d1237f7008aa6598a7139abd13ba2d082154a079d1193780a8a8b2cc09e027e2fbae0892703e27ecd02a6ea6af686e5c7af3244c5f307a557d8b85a32bb987b5d2140cf701325c8f44900684e2d9516e21585caa0a06d57cbfe66daf5c06ed6b6a693a28276370b00ef7e3c814f64b6941a670b16acc384592b6cfe91ab5e558ccfe13445f4e58b6e6ef2aae8aed626bd663f1a6b8c3182e1c9daa08c62c13d9e5867e401250e7c8df014396dcd4a1385d80f98731fa0413b58452c5ba266dd21712eb27213446d099ba2dc0f73774ce973e084d4db1b5ed4079b8633d7433af2229e0b03be963f01777b2fc75e235e5fc63117023d47fe96a9661c837f7838a57f03d216e0fb36fd20fee9a8ca43c98dd4aba033b8b3ff9df933335229b3b7a2afeb2a63fae024767ac04d5f814e2a54b86d4317d3b9e89cde3af949e1af0bd8c606027edd100a432539c371b71241d13868e331f9817aeccd40685363891b09d5d9f7bdc62aa4e0e68912d5bb2f80c1a1c0df3a4bee5c33e9028114e751b6594b194745f9d9820957a2fb9389d5a7445246fa4fa516df627d68af328a451d075caae3a26292225cb65fadc4e819b6ac7fcde79d172483021724252aea71509e2c2845abfb99cb32e2585bdaef6d5b2436f5ec593cff83817e6bee8aabce52a2cfa407aa469c517b6fac1f73cb5479b3da71564da2a49f4c977aa9a5057143604a5cadd8ec6b42573343e59166b2f93915a124510ce3a8e7cd45772a1adb4bd1cbb41086c8da77e7733e5c9afa07bbff04c601bc4815e8a214e2697b85b186d8e07063b395936699666bdfe567e4755ad84a70c48109a6656ac6eee5c943efe1de0f46b3d8e76db1f1c389fe28ed30809ba0d04654477bebf7dd134c3ffcaa42724e59744404f983e03a00cc1da1373fed0806b3c60c83e95855a4f11d213275f10183948df92415cc596929781fc990bf5cf63add137aad41be67bd8dfaa26ac5eb54f019b3f59d0b067bb85e016b91ec3cfa0ae16882d627895b4f74ef9fd289b09434f090f6cfc219a47c222a1013ecd872ee594b50dcf334a5c3b7b9ddd589f64a21359dba3cb592b7b6b8ee767e32cd74884f204000184c593a68895c66a9a898286c50367440c29467d03e3080c4e1403be71ce245b4e18a16dd6c1c6cdfe525dad934138d9ab48612f40e87c1610afa4ce94b477e41f3dc942c27b5a62226cad5372700bb23a2eac39ae34aff404e6e255ecaaa9fdd34716fe35c8a7a1f77da6c43c041cb3742b74623f574a52387f3c68c108a5ab43c027af65de77ce40f611a567fb729f8586385eca4f5dd75d557a69671d935348a04ff739d216e9e27a56dd139a285247fb9029a6ca9fd032637c1e17aa9c76025329cacff2fa95c5bcf769bac19d461f0ea3e0d225129ad7bb4fbb1c3067887f8564e34e53dc9064b9136582b3dff05019ef3725dedf4c35a542c22670a951425b0067f7ac0d7f1b455ab044492e19f7d1c310d2d33cb35a4fccfdf6e051734db50ab08ca7ab22162732097a0735c28344663cec3a65a2f640bbe82e48d71ecb4a5b46d715e33ab210ed1b681fc4a2e1da1c70235276e94a5363401aee149108e977c71ec3ba3c55ac714d88ce0ee9e845e599875dc16938334a14ac701dc8a0361c1ca920aef115748cd939d696131718192930366c787e7f898c9da6aab5d7fc0610343f57707173959fa1b0b5bfe9fa1b1e49787a7c7eaebdbfe4ecf904558f97a0a2d9e10000000000000000000000000000000000000000000000001323303801",
        "00d4209f2046cdeb8ff16389cd2194cd35f235e3a42651101824936faaa32c41e99255c6299fed9825a3a738c7d0ec74e4828920a165355371f5970b01db1b58dffcd3fa8f5f2668a53230238b881e637434415943df014f62509c64bb5cdfbaad5c755e1d962078bd17a1f9f934a318f79ce11db62290ca3cc49ffa34d27a5827e7a862eaceb1267151f14c283d2c4ca10ef53cd9ab10775e473cb5fdaac8507fe7a8993f80be4fe6a55e9f14d075d716b6f2840307b1b28e505c9cfafc4534391fc18302dd2ec4ff50e4254c1cf94ddf522c4a84f96e916e6729bd068f99d4c3b9bfa731b7afcf0b33cfaab83d6583ad8807baf6215c59a9557e174b47a5d9d8f0620dc253e8e491bd7c7defd62bc89342b81bdfa764efa26c18b9c978acde486492f0b176a079527d7e7c4d54a7524e3ce6d6771fb3df7da7f7ae2a4c4873a059584f05cc09e1d9a973a4bb93476c9bcef5cb976f886f64fc071d2bc9e8dbd92ea185e523c26c6da055ade515a77d9b27bcb126fc082dbc04c633ebbb33e895f48b5da028568c7135770bd8d42cdb9e85922bcced1fd73e86f26ab32ddec63b4426eda3a2c8f25477f2967c608722aa1d6bde68ca86d1e3bddf2b54933018e9501d50a0c3131c6e388229ab8f1ef8f3a066a06841c7cc363cacc41d200da5e3c9c953400d27e1297d68d26f91ae39a4640836e5a9bf00ad714d290787609e22dd29445d1e11693bcadf7d7054626812cd7bc043ee940dd3c032f60c99bc68b913459c03e7ffe933576aa167706bab79be47041f97d1ec79c2b9fa8f0a21cfb48d63bebb69a0e4619b287f8f1c90b25341ae67629ee3e10ecb3da4aab09f1e892419e0a8df5f40b1e7270a65215bcba386d157d7faa6a9ea4f2ec36c5075fb480fafde7e2bdc3de1825929d9a71d66c2f67e36b5878793ac04aa23af2776d65e5e739d50638aa6cf330118639d84e882d0e649038fc610fedc6e3a2090849d088f8766d1ef77a532c71b464d138cc4932a8571e83f3e5828cb94383e710c4b201e35b3e529f3b2deb54a86d6817cf6594b5482201667dddc597a688ff6b84a05ede2570981da79b548f0def987700cbc167bab0dd1e76b6d8b1748514d134e76888ab80d1cfb98f1d92ce9ee900890c137725e7466ea1dcb220dc71fe57a81e926a2ec0b43327b25cce3f661bf93dc3523033e56da0557f813a7a297fcfde05c304a0e20bc159fa6abb1ba96ae85d38e2dd707edfc3e6ac8443bf7e6e7f157a46f6f0f7c74a5df290d675f4ae68622726951c58f27dc46689b0835f145254aaed50fa0f82daeba63cad5753f821a1a08fa630a1244b998ac85dbec174c3959e871eecb777698da9d7a11cec14145e19e164795bf88ff1f83c16030a74563895a43c0ba76723a9fdac3a236d66faec215a874eaaeb1cb0f8ee8404ba8bbc6f795c52c618684c9d602b115b103a2cfeb126fee5affb3809355664406d275feb381d670b80614c3b26bc73710ccb4c20a1d22d544f1e36901c5875efffe8b09f4fc7311b490e8a3ef479833b129270068e35341da351a2e85be2e029ec67df9e9912fcf7cebebdb8c1a57944ec17adaa72709056c4402550622d5875f6e80539449b17482600567d7ec5a925ad3bb659a1495534b85b844fa3898699a8bc5b6ad76b6d019e7b365e5bfc61b383a1712205e6fe6e222b2c8cf61276df88998d05e742fdf9a788b9e1b61c9a0f0be6764d35e252e09b04e2e5ff1b71856337def0b7bd79559bc71683e0040b0613e7b207a728a5d6c1d7b9f447f785a4a48ab6125fbdb30a0030718758eb54a7d1b888cab9dd7b8b18377bc2399ff9d2eaba1a98f52"
      ],
      "sequence": 4294967294
    }
  ],
  "vout": [
    {
      "value": 499985.7634,
      "n": 0,
      "scriptPubKey": {
        "asm": "1 8d1b09f9c411ee47e2c8802736831297cc865727ad433b1da62de85be004fbe5",
        "hex": "51208d1b09f9c411ee47e2c8802736831297cc865727ad433b1da62de85be004fbe5",
        "reqSigs": 1,
        "type": "witness_v1_scripthash",
        "addresses": [
          "3QJmnh"
        ]
      }
    },
    {
      "value": 1.0,
      "n": 1,
      "scriptPubKey": {
        "asm": "OP_RETURN ddc20b09b18db4b66000a10299fc8c43da817f6cf69982b4ec4b11ea8e21ad8b e3bf6b3e8aaff78c08dcfda9c38c450a5c1a88b79ab9bc72ce95313b523c810fc39f4b1eaa8fd7ac28fcdd89e3ac652a7c3aa897ba999c52eeb5111b721ca12fa3ff2b7ecaefb7cc489cbde983cc054a1c5ac8f7daf9fc328ed5717b127cc14f83df0b5eeacf97ec68bc9dc9a3ec256a3c7ae8d7fad9dc12aef5515b325ce16f633febbe0a2f770c885c7d29430cc58adc9a08371a393cf24e15b1bbd2bc018f431fcb9e2a0f572ca87c5d09632ce5aafcba28173a191cd26e35919bf29c21af237fabfe4a6f374cc81c3d69034c85ca9cda48775a797cb20e55f1fb92fc41cf035f8bde6a4f176ce83c1d49236ca5eabcfa68577a595c922e75d1dbb2dc61efe3bf6b3e8aaff78c08dcfda9c38c450a5c1a88b79ab9bc72ce95313b523c810fc39f4b1eaa8fd7ac28fcdd89e3ac652a7c3aa897ba999c52eeb5111b721ca12fa3ff2b7ecaefb7cc489cbde983cc054a1c5ac8f7daf9fc328ed5717b127cc14f83df0b5eeacf97ec68bc9dc9a3ec256a3c7ae8d7fad9dc12aef5515b325ce16f633febbe0a2f770c885c7d29430cc58adc9a08371a393cf24e15b1bbd2bc018f431fcb9e2a0f572ca87c5d09632ce5aafcba28173a191cd26e35919bf29c21af237fabfe4a6f374cc81c3d69034c85ca9cda48775a797cb20e55f1fb92fc41cf035f8bde6a4f176ce83c1d49236ca5eabcfa68577a595c922e75d1dbb2dc61efe3bf6b3e8aaff78c08dcfda9c38c450a5c1a88b79ab9bc72ce95313b523c810fc39f4b1eaa8fd7ac28fcdd89e3ac652a7c3aa897ba999c52eeb5111b721ca12fa3ff2b7ecaefb7cc489cbde983cc054a1c5ac8f7daf9fc328ed5717b127cc14f83df0b5eeacf97ec68bc9dc9a3ec256a3c7ae8d7fad9dc12aef5515b325ce16f633febbe0a2f770c885c7d29430cc58adc9a08371a393cf24e15b1bbd2bc018f431fcb9e2a0f572ca87c5d09632ce5aafcba28173a191cd26e35919bf29c21af237fabfe4a6f374cc81c3d69034c85ca9cda48775a797cb20e55f1fb92fc41cf035f8bde6a4f176ce83c1d49236ca5eabcfa68577a595c922e75d1dbb2dc61efe3bf6b3e8aaff78c08dcfda9c38c450a5c1a88b79ab9bc72ce95313b523c810fc39f4b1eaa8fd7ac28fcdd89e3ac652a7c3aa897ba999c52eeb5111b721ca12fa3ff2b7ecaefb7cc489cbde983cc054a1c5ac8f7daf9fc328ed5717b127cc14f83df0b5eeacf97ec68bc9dc9a3ec256a3c7ae8d7fad9dc12aef5515b325ce16f633febbe0a2f770c885c7d29430cc58adc9a08371a393cf24e15b1bbd2bc018f431fcb9e2a0f572ca87c5d09632ce5aafcba28173a191cd26e35919bf29c21af237fabfe4a6f374cc81c3d69034c85ca9cda48775a797cb20e55f1fb92fc41cf035f8bde6a4f176ce83c1d49236ca5eabcfa68577a595c922e75d1dbb2dc61efe3bf6b3e8aaff78c08dcfda9c38c450a5c1a88b79ab9bc72ce95313b523c810fc39f4b1eaa8fd7ac28fcdd89e3ac652a7c3aa897ba999c52eeb5111b721ca12fa3ff2b7ecaefb7cc489cbde983cc054a1c5ac8f7daf9fc328ed5717b127cc14f83df0b5eeacf97ec68bc9dc9a3ec256a3c7ae8d7fad9dc12aef5515b325ce16f633febbe0a2f770c885c7d29430cc58a160eb028002eba3389a787b27f3069b91cb7b4b2acc88e6cbdf3a7078fed9462",
        "hex": "6a20ddc20b09b18db4b66000a10299fc8c43da817f6cf69982b4ec4b11ea8e21ad8b4db004e3bf6b3e8aaff78c08dcfda9c38c450a5c1a88b79ab9bc72ce95313b523c810fc39f4b1eaa8fd7ac28fcdd89e3ac652a7c3aa897ba999c52eeb5111b721ca12fa3ff2b7ecaefb7cc489cbde983cc054a1c5ac8f7daf9fc328ed5717b127cc14f83df0b5eeacf97ec68bc9dc9a3ec256a3c7ae8d7fad9dc12aef5515b325ce16f633febbe0a2f770c885c7d29430cc58adc9a08371a393cf24e15b1bbd2bc018f431fcb9e2a0f572ca87c5d09632ce5aafcba28173a191cd26e35919bf29c21af237fabfe4a6f374cc81c3d69034c85ca9cda48775a797cb20e55f1fb92fc41cf035f8bde6a4f176ce83c1d49236ca5eabcfa68577a595c922e75d1dbb2dc61efe3bf6b3e8aaff78c08dcfda9c38c450a5c1a88b79ab9bc72ce95313b523c810fc39f4b1eaa8fd7ac28fcdd89e3ac652a7c3aa897ba999c52eeb5111b721ca12fa3ff2b7ecaefb7cc489cbde983cc054a1c5ac8f7daf9fc328ed5717b127cc14f83df0b5eeacf97ec68bc9dc9a3ec256a3c7ae8d7fad9dc12aef5515b325ce16f633febbe0a2f770c885c7d29430cc58adc9a08371a393cf24e15b1bbd2bc018f431fcb9e2a0f572ca87c5d09632ce5aafcba28173a191cd26e35919bf29c21af237fabfe4a6f374cc81c3d69034c85ca9cda48775a797cb20e55f1fb92fc41cf035f8bde6a4f176ce83c1d49236ca5eabcfa68577a595c922e75d1dbb2dc61efe3bf6b3e8aaff78c08dcfda9c38c450a5c1a88b79ab9bc72ce95313b523c810fc39f4b1eaa8fd7ac28fcdd89e3ac652a7c3aa897ba999c52eeb5111b721ca12fa3ff2b7ecaefb7cc489cbde983cc054a1c5ac8f7daf9fc328ed5717b127cc14f83df0b5eeacf97ec68bc9dc9a3ec256a3c7ae8d7fad9dc12aef5515b325ce16f633febbe0a2f770c885c7d29430cc58adc9a08371a393cf24e15b1bbd2bc018f431fcb9e2a0f572ca87c5d09632ce5aafcba28173a191cd26e35919bf29c21af237fabfe4a6f374cc81c3d69034c85ca9cda48775a797cb20e55f1fb92fc41cf035f8bde6a4f176ce83c1d49236ca5eabcfa68577a595c922e75d1dbb2dc61efe3bf6b3e8aaff78c08dcfda9c38c450a5c1a88b79ab9bc72ce95313b523c810fc39f4b1eaa8fd7ac28fcdd89e3ac652a7c3aa897ba999c52eeb5111b721ca12fa3ff2b7ecaefb7cc489cbde983cc054a1c5ac8f7daf9fc328ed5717b127cc14f83df0b5eeacf97ec68bc9dc9a3ec256a3c7ae8d7fad9dc12aef5515b325ce16f633febbe0a2f770c885c7d29430cc58adc9a08371a393cf24e15b1bbd2bc018f431fcb9e2a0f572ca87c5d09632ce5aafcba28173a191cd26e35919bf29c21af237fabfe4a6f374cc81c3d69034c85ca9cda48775a797cb20e55f1fb92fc41cf035f8bde6a4f176ce83c1d49236ca5eabcfa68577a595c922e75d1dbb2dc61efe3bf6b3e8aaff78c08dcfda9c38c450a5c1a88b79ab9bc72ce95313b523c810fc39f4b1eaa8fd7ac28fcdd89e3ac652a7c3aa897ba999c52eeb5111b721ca12fa3ff2b7ecaefb7cc489cbde983cc054a1c5ac8f7daf9fc328ed5717b127cc14f83df0b5eeacf97ec68bc9dc9a3ec256a3c7ae8d7fad9dc12aef5515b325ce16f633febbe0a2f770c885c7d29430cc58a160eb028002eba3389a787b27f3069b91cb7b4b2acc88e6cbdf3a7078fed9462",
        "type": "nulldata"
      }
    }
  ],
  "blockhash": "3f7b66b34673dd56727b9b27d02dfa4f8333ff75e8b72ddccb546061f2a7d063",
  "confirmations": 1,
  "time": 1764180681,
  "blocktime": 1764180681
}