{
  "hex": "01000000000101615f7785e73276ca45a5b4eb00e9a415104302c4509ee8a8c2bbef6fa2474e1f0000000000feffffff0200ce47c6782d000022512027678bff1a888de7828c5a5b9889e1fc47429e39c6b7cad6e32d0f582d18632300e1f50500000000fdd5046a20e0e988042f0ad525d5831c53b8d30ecf798e8138d955a4abd87ee3743257e6fb4db004f34a66a7bbb6dc301d25d15d631008d5f315a036b72ece420b01a34bfedad778d36a46879b96fc103d05f17d433028f5d3358016970eee622b21836bdefaf758b30a26e7fbf69c705d65911d23504895b355e076f76e8e024b41e30bbe9a9738932a06c7dbd6bc507d45b13d037068b59375c056d74eae226b61c32b9ebab71873cae6273b365cb09da551dde3908855739520b637ae4ec28b8123cb7e5a57f853eac6071b167c90bd8571fdc3b0a87553b50096178e6ee2aba103eb5e7a77d8338aa6677b761cf0dde5119da3d0c81533d560f677ee0e82cbc1638b3e1a17b813aa86475b563cd0fdc531bd83f0e83513f540d657ce2ea2ebe143ab1e3a3798f34a66a7bbb6dc301d25d15d631008d5f315a036b72ece420b01a34bfedad778d36a46879b96fc103d05f17d433028f5d3358016970eee622b21836bdefaf758b30a26e7fbf69c705d65911d23504895b355e076f76e8e024b41e30bbe9a9738932a06c7dbd6bc507d45b13d037068b59375c056d74eae226b61c32b9ebab71873cae6273b365cb09da551dde3908855739520b637ae4ec28b8123cb7e5a57f853eac6071b167c90bd8571fdc3b0a87553b50096178e6ee2aba103eb5e7a77d8338aa6677b761cf0dde5119da3d0c81533d560f677ee0e82cbc1638b3e1a17b813aa86475b563cd0fdc531bd83f0e83513f540d657ce2ea2ebe143ab1e3a3798f34a66a7bbb6dc301d25d15d631008d5f315a036b72ece420b01a34bfedad778d36a46879b96fc103d05f17d433028f5d3358016970eee622b21836bdefaf758b30a26e7fbf69c705d65911d23504895b355e076f76e8e024b41e30bbe9a9738932a06c7dbd6bc507d45b13d037068b59375c056d74eae226b61c32b9ebab71873cae6273b365cb09da551dde3908855739520b637ae4ec28b8123cb7e5a57f853eac6071b167c90bd8571fdc3b0a87553b50096178e6ee2aba103eb5e7a77d8338aa6677b761cf0dde5119da3d0c81533d560f677ee0e82cbc1638b3e1a17b813aa86475b563cd0fdc531bd83f0e83513f540d657ce2ea2ebe143ab1e3a3798f34a66a7bbb6dc301d25d15d631008d5f315a036b72ece420b01a34bfedad778d36a46879b96fc103d05f17d433028f5d3358016970eee622b21836bdefaf758b30a26e7fbf69c705d65911d23504895b355e076f76e8e024b41e30bbe9a9738932a06c7dbd6bc507d45b13d037068b59375c056d74eae226b61c32b9ebab71873cae6273b365cb09da551dde3908855739520b637ae4ec28b8123cb7e5a57f853eac6071b167c90bd8571fdc3b0a87553b50096178e6ee2aba103eb5e7a77d8338aa6677b761cf0dde5119da3d0c81533d560f677ee0e82cbc1638b3e1a17b813aa86475b563cd0fdc531bd83f0e83513f540d657ce2ea2ebe143ab1e3a3798f34a66a7bbb6dc301d25d15d631008d5f315a036b72ece420b01a34bfedad778d36a46879b96fc103d05f17d433028f5d3358016970eee622b21836bdefaf758b30a26e7fbf69c705d65911d23504895b355e076f76e8e024b41e30bbe9a9738932a06c7dbd6bc507d45b13d037068b59375c056d74eae226b61c32b9ebab71873cae6273b365cb09da551dde3908855c4c8a3f729aa5a9267198db7fe4adec4f06cf1fffc35b7f1acd30dad1073f25d02fd7509cd7c5ebce0c08cc7296d7de887a8419aa69cf4e06ff6e4f4c261ead16252183cfbcba921835124a196debd56f03e9627ad4f5b8f301624cebc79bd1c0dabf38c981c58d63c23107a676732b3e8b21d3387df5c8df6c71fd790874b5e3e7bcb8a748bf4340a1151383b315b1d4e043fc1ee30872a9c0d09f486f0a66381dfbb85a2717ee1ee150f04d91f130f86697b95a513ac220a5543c8e68ac7b29b491b7ee855bc9c4d61aaf0f9c340b7173a8426083445470a29afb8bf50386e325fbc3cee26d8d131960200f18d739d41e74d01fc993e73f5ec3054950251ab40fc090bc51bb1a707a9cd7d84d883049cf2f3462721974e51f4aa260ffd9b63022e2f6fa475934248487f7ab6eae7f38db2928f90a020e15b6aece8c9d1f8a25e14dcc4622ae0305d11d58f30949d37fe722b22b2533e0c40c2a767eb5e63e8c54a14a90ae65920fa88ba2edae7be60a64609324dd5aa478e0ebeec47e68975928b6e69f70823c086754b6a655d937f4379e4b7659329a8eb1bab12ef135f1b05d47e755279b24bef4ef32e37e9de2796632acbc22b1a06f0ccfced17a14e20db5350a0bc35217dc0cb4cd0cc8b45934af0540897a638f12aac424246a0c8351c106c35ca98aba5dbb0b92ff84d3737f03d3b5b36c96d40dc08f4731bf1451244f0a3907d592b95a959ca951503d28d74a2d321edffabefe7ea57925bb7d83ffb5f1c7ad714f45df0b8cc903f9860475653088266303952786166869083b0af75c0ce6aed16d653c46e157c4c1122e3089686a5e81c6dafb1c4196712236ad80247cf6fa76df74ddf42290cdb1ca693338658c9716b9ad606825d7cda4ae92b2ded9a00ad773a8e40b1521378bc7da963fd0113637c71e86debbbdfd664b4ba7a12641341cc6de00478da943d27288348f31953a0e13aa5d03cf0c05dce8bf2b313fe69fecaad01044ce947f34b99ea3a4459a7f3cb74ee2a8117a8f54c175b739613e32e42d7ad26610366c7843dd00474eeb18fbc368f7b19ccf700cd964c78f1a5a4b8922217174598011eed6e55dfadb312b97463134e13fa2b7220407eb8be155267790570b7036f5080fe10046da86d55113e3d62e1cabfbc773562bc4236c7cc6b7476b41c7cd647f69ee036beda3af19ec3e4abb96f68b758758ed3826c19bbb443311c42bbee98ae2f33d1a5a0ba21f8eb0d0874abeb4d2496db8aa26446505cbfc1bb43ed1d2570cbb4ad47fa8de74f19ed98aa8983a698933796c7486b97fc7feaef42ec7a3546adeba899daeab54158347ff17a275dd2e5c577ae8b3158f763e8001b869a717095d087afec6edda5e1e25a87bb9596fd29fa3b3f87795d3b3ebf684cc3adae2d68d8bbed027f601df0ceb79364769d6ed60704cc27adca33329f0c86413f1efdc8b515fd7314b52f01aa8cee71973bc1cb8caaecf908de66a88755959c5903ab414c24ba0d0a81fd987aa8264b62e651d6c908832046cd74accf2ed1a3b43995b7fc3887384bf0c0160b6de070c24f7b808463d20a4d15699e8a95af509a1f65e2826203de5f8347d3a2f1e34909295f55f5c874e719f3309efce2f70bd618a40102930926f2c78c90e8de0ba3fd52e0bddd5c0ccf2ada5beb5347bb8d91a51f54991636a15591845b4c71eb7e6d41d7335568cf697780ca7f5d58e53fe86c515587dc23360f0455407c10a9e18e11be13a4e15c43398c2692ba6725f3f68e8856880ac888cace25a87e7b2fcdad4f8be8de8f20cda3c0283b9f091512318938ed54c3a2d87263d521880112ff4b7d0842700a653d57218d042592272fa7c5739694504e0075da0ed5c3e52e4f1415ae667e800818f79dc56ec7ae28b601acb8e99cbf669be5cbc9af77d1021d6e409570e41acfdc9af90dea8e63c82496116ea3f530a35ccd26cd64eb4fdd2c8deac5824479cd8fe388444486d0546d89ca0d28f925d5dc098bca1168031a4a501701ecdaf9fbb99919d11d095e82f41309f038c4c8b5a716ba44d684f15fa32d12a3f38d812bf7443530c517fa12b847ac26d43a6f2c77dbd458ef1b6c7f1e3464db415fbbaf7dfde97b625069e38bec3a1ecb78a97d08155473eb57d5e4c39ba474c84b7fb06c82b26a0c5854b7b487dce125a110dbdb97b9ec2da3651876abc6fd08340fbfdf24968f77969ea61f2416ecf91ce79eb068755923de1a04a491a8dc53813d8ef93c9dc0b30e8cf12488d956042954e7824162951c0f1d5232dda058481893f586669175195e6b2310e0ccadfb2fbeb1c91492167dfdc97330dda4adce674f8e66786b021d3ee4fd3ae413d671d02927963d26c6e0c4059be0a99ef32bb4ea574f2a41515f9d1d749d0d1a4b2818a584678873835283f85d261fdb91bf14165e1bb5eae88bcae75e774282cdabc51260f6fd9da04cfadc496a395be321dfce44fbc897e85e6edec7cf2a010ffa94656ed0dfffa94927af11334dae04e79bcadd0bf7ec6ea033f7d27f04666da24d6023321b606b82286430c4841fe0a7e3ef611b7a58456dc56680d0a582efea96828124c19961ab79f189bfc919f20ac8ac795b1bfb28b2d58ea7015d3795ad85a47fb2dceacf90d4cde645595b90a8d3eb2b14ac8194ce556e7d779cd0157e00e9f72c02b5895fa1c7673b74b059da07885a2a7bec926706828d1dfe8afae3da750a0116ce887de50cdb222fad761ea489c5605ac9b059904d4343b88250e829db22e766548fefe7c2d187e8490fe486a0fe412a1f219d161de5b75c6acaa54712ceefeeb24ebcf4e8ed622b52412191e001d04c4909b22c60b66a701ce5ebd2945b3bae88defbc482ff649c526453a6e9e0773e872296db174e06b79b9f60d6b252151be02a6be13cead2e8e81f3731e06180f6bcc1fdc5992dc11a5a2930596f757854e1d1d460c8f36ccd2f41e6f170fa8ad1ff16d62e241a03d75c2ae2de84ffa442f8132978b3da2ea78b80809b9c144cb29985bcb2f4eb425c333b134829cd3e8cb453f696d269fbd2dd73acfcc87cc4775fd6dd49d376d8354459ba946db2e807d611811de64647b849417b269302269d5af5e2c9ce25c7a21bed289de813b7577268e25fffd1821dac8097fd27970d36fde5b7ce29dec5c459b0a1a38f4ccf0b77bac513c91a241b27bf41a2b7225f69575480fcacb94db2d57285946dfc656bf5a591965aa885349f2f3006b6f01c59c75ed1230eb0f0fd8b76e2755b240735c93dfedf64ca541fc14aea2e61f0bd016b2036bd9d9a8d195562cdc214eae06db702d4e005d852b3d99a2f788a054c756206293235374fa7c2d3d5e2f3f7f91b333a4a4c5259668c8ea6c5cbdae30425323c4445585e677f8588959fc2cc1432555d63689ad6e8ef000000000000000000000000000000000000000000000000000e1d2d3701fd210500e8d8afa98c8434034d0df7a26d8df1d02c706b6e14ede65e5c9adf0fea3b8d036c3243f93def56a5cf6517d2274380edda3215bdae7a0811caea8d0753a7e370b8f14d06891b5549988ed0a335449dd640ee1b7dba35043573aa7cf35fac87fa691f9754bb90206c471efd12f101ed26a5c9ab3ed6a8a13522764ce1912033b6e5259de2e8423ad5ccb404bd243d59d562feb58063c725ef08b97e57e06f5da79bc7602d68fe0ce818c272bd68aa43b4f5e3105efe859d98450ba25edaa80489a878c60ca721a8299fb82cbce365fa242dbf37c952870bab561ef3dddd6f2f9016d9f9b7bc362e0951743791d0b6670e923b4b91f1425edefb7df31242e1194e83bce40659cb3f82b2286b1245044f752e6775bc6ff7abe0784ac76ccfc7d92c9e7f00ed1665c3dad07fa5487fb8a49167df19eae6a7fe2476831ca3be96a4047a15e0c0dcdd3dec8e7fac0041774cfa171a40fe28f9c005133eeb6c7743c586d7c64f098f786067f9eada5e535b46c89ac0fc1a839cddb6d132fb5fdfb8d57ec14d94241ff08151bf7b7adc1c1c40b02861df6d05fbdbcf16830df8b694c195f3a9f561bb3296341d9d99bac2bc2f36cb0389fe49ed4b826fe60d3b65d92cf54ed00bcc6b0abe80a502e2e5dcce6a008c2744d7a16d6815b2de53af7e53076d8fa72e7d6b624918ff17227d77b533042d34be0937e5d579d6261625b45fe371c0972277e6dc64326bc3cedb543e8a1bb5942ffb8a227b5c47ab2ba67c8eca7e16bfce3c7b88bddbac0d5658e7d8dd82480797bce6178a48c92213562b77aa85c4265ab42a7f26f4535c52a519e90bbbd1530c5ea9a39c73dfd5ab577b7aae26ae62499acc8fe50f90e7a88b87515a1fa79d2a004a25f6add997838c34d1a85907bc1e71b8f41bf73761a512612c66e75610b4332ce620e7062f6bf24f4d2ca259a0afb86615171f40a458111a830542d2c8e5b06857a2203a6c836380a7c9d07c5b88f8282ae5bc807fdbc781c2a864cd1aeefce171852006f5cceea63c9e6fab790894b6666eeaeeaddc57f27a65760d0de33b43fa7c94eebd50b1ca7ddf02dc39d215a037abcef9c7c99209bfc2ed93647649cf3befa3f02f81076c883ae76913f19903b41489c3fd8f963850434bc52f8802c6ddd5912e87ab6919452c87391d765edb11056aad71d8a689665b6527e6fb360c31907bff2ead279817bfaa789b6732b19486d001632b1e136ded16b5286fe23f86d34f24eb3b2a3e5184d5efa2ba12c4b1723a568d67ad04e63ba04089e70e6b800f8f044714ce3fa60ce57b4ba6c149688ac2f38a4d2a75e811dd192f2703d1a15e99820d2eb13bdedd905132f39d943c588540558d351aa84d626eee0ed2b4ca7dc414d28c6cfc7741b0036efda8cabd37ec4f5f4030e2389594d0b5982f9c634b94168e7cfb3580d82f151f8791f0c84da4db0360cbb8b70503254506c8677fea32a22acf1b861c8c9ae64618f959145b698efbac38aba998a33f0f39378a95b82284ab8eb96071a9df0032b5d027fa19a14ea687440f0d34e9a08bece1e81a97a6ecff1731b8d4a8c2bdae973012167844c307edc7e111e9947cc9f921ef8a9baca28684b467f2ec6c9b684fdff95eb503511c84bf3f6ba63fc8bcc6dd3697349f621499628538e269b6ed3bbfea48224efa181668358917c0dad1e53209219f64d35c9ce878d725f32cc90aeac7e56b36f1294822255ffa7199709df8dc21ad8c5c07891e5fbb67d4c87130de09edeb820e6790c351949c10dc4e7e77d0f47e5d9379865e0b4d05ff7afc9ca94284db9c3eeeffb99d56b2e5cbb48dbf860951cbfde2dbf82f9e355882000000",
  "txid": "6fa70a004ea44f18b978d7bef8b41c6291f0ee5c1770852120ac739dc92922e9",
  "hash": "91f2966e8dc69ab5b2b52306d8dde1b321d3b09541213cfc68b58e492f0affb8",
  "size": 5085,
  "vsize": 2278,
  "version": 1,
  "locktime": 130,
  "vin": [
    {
      "txid": "1f4e47a26fefbbc2a8e89e50c402431015a4e900ebb4a545ca7632e785775f61",
      "vout": 0,
      "scriptSig": {
        "asm": "",
        "hex": ""
      },
      "txinwitness": [
        "cd7c5ebce0c08cc7296d7de887a8419aa69cf4e06ff6e4f4c261ead16252183cfbcba921835124a196debd56f03e9627ad4f5b8f301624cebc79bd1c0dabf38c981c58d63c23107a676732b3e8b21d3387df5c8df6c71fd790874b5e3e7bcb8a748bf4340a1151383b315b1d4e043fc1ee30872a9c0d09f486f0a66381dfbb85a2717ee1ee150f04d91f130f86697b95a513ac220a5543c8e68ac7b29b491b7ee855bc9c4d61aaf0f9c340b7173a8426083445470a29afb8bf50386e325fbc3cee26d8d131960200f18d739d41e74d01fc993e73f5ec3054950251ab40fc090bc51bb1a707a9cd7d84d883049cf2f3462721974e51f4aa260ffd9b63022e2f6fa475934248487f7ab6eae7f38db2928f90a020e15b6aece8c9d1f8a25e14dcc4622ae0305d11d58f30949d37fe722b22b2533e0c40c2a767eb5e63e8c54a14a90ae65920fa88ba2edae7be60a64609324dd5aa478e0ebeec47e68975928b6e69f70823c086754b6a655d937f4379e4b7659329a8eb1bab12ef135f1b05d47e755279b24bef4ef32e37e9de2796632acbc22b1a06f0ccfced17a14e20db5350a0bc35217dc0cb4cd0cc8b45934af0540897a638f12aac424246a0c8351c106c35ca98aba5dbb0b92ff84d3737f03d3b5b36c96d40dc08f4731bf1451244f0a3907d592b95a959ca951503d28d74a2d321edffabefe7ea57925bb7d83ffb5f1c7ad714f45df0b8cc903f9860475653088266303952786166869083b0af75c0ce6aed16d653c46e157c4c1122e3089686a5e81c6dafb1c4196712236ad80247cf6fa76df74ddf42290cdb1ca693338658c9716b9ad606825d7cda4ae92b2ded9a00ad773a8e40b1521378bc7da963fd0113637c71e86debbbdfd664b4ba7a12641341cc6de00478da943d27288348f31953a0e13aa5d03cf0c05dce8bf2b313fe69fecaad01044ce947f34b99ea3a4459a7f3cb74ee2a8117a8f54c175b739613e32e42d7ad26610366c7843dd00474eeb18fbc368f7b19ccf700cd964c78f1a5a4b8922217174598011eed6e55dfadb312b97463134e13fa2b7220407eb8be155267790570b7036f5080fe10046da86d55113e3d62e1cabfbc773562bc4236c7cc6b7476b41c7cd647f69ee036beda3af19ec3e4abb96f68b758758ed3826c19bbb443311c42bbee98ae2f33d1a5a0ba21f8eb0d0874abeb4d2496db8aa26446505cbfc1bb43ed1d2570cbb4ad47fa8de74f19ed98aa8983a698933796c7486b97fc7feaef42ec7a3546adeba899daeab54158347ff17a275dd2e5c577ae8b3158f763e8001b869a717095d087afec6edda5e1e25a87bb9596fd29fa3b3f87795d3b3ebf684cc3adae2d68d8bbed027f601df0ceb79364769d6ed60704cc27adca33329f0c86413f1efdc8b515fd7314b52f01aa8cee71973bc1cb8caaecf908de66a88755959c5903ab414c24ba0d0a81fd987aa8264b62e651d6c908832046cd74accf2ed1a3b43995b7fc3887384bf0c0160b6de070c24f7b808463d20a4d15699e8a95af509a1f65e2826203de5f8347d3a2f1e34909295f55f5c874e719f3309efce2f70bd618a40102930926f2c78c90e8de0ba3fd52e0bddd5c0ccf2ada5beb5347bb8d91a51f54991636a15591845b4c71eb7e6d41d7335568cf697780ca7f5d58e53fe86c515587dc23360f0455407c10a9e18e11be13a4e15c43398c2692ba6725f3f68e8856880ac888cace25a87e7b2fcdad4f8be8de8f20cda3c0283b9f091512318938ed54c3a2d87263d521880112ff4b7d0842700a653d57218d042592272fa7c5739694504e0075da0ed5c3e52e4f1415ae667e800818f79dc56ec7ae28b601acb8e99cbf669be5cbc9af77d1021d6e409570e41acfdc9af90dea8e63c82496116ea3f530a35ccd26cd64eb4fdd2c8deac5824479cd8fe388444486d0546d89ca0d28f925d5dc098bca1168031a4a501701ecdaf9fbb99919d11d095e82f41309f038c4c8b5a716ba44d684f15fa32d12a3f38d812bf7443530c517fa12b847ac26d43a6f2c77dbd458ef1b6c7f1e3464db415fbbaf7dfde97b625069e38bec3a1ecb78a97d08155473eb57d5e4c39ba474c84b7fb06c82b26a0c5854b7b487dce125a110dbdb97b9ec2da3651876abc6fd08340fbfdf24968f77969ea61f2416ecf91ce79eb068755923de1a04a491a8dc53813d8ef93c9dc0b30e8cf12488d956042954e7824162951c0f1d5232dda058481893f586669175195e6b2310e0ccadfb2fbeb1c91492167dfdc97330dda4adce674f8e66786b021d3ee4fd3ae413d671d02927963d26c6e0c4059be0a99ef32bb4ea574f2a41515f9d1d749d0d1a4b2818a584678873835283f85d261fdb91bf14165e1bb5eae88bcae75e774282cdabc51260f6fd9da04cfadc496a395be321dfce44fbc897e85e6edec7cf2a010ffa94656ed0dfffa94927af11334dae04e79bcadd0bf7ec6ea033f7d27f04666da24d6023321b606b82286430c4841fe0a7e3ef611b7a58456dc56680d0a582efea96828124c19961ab79f189bfc919f20ac8ac795b1bfb28b2d58ea7015d3795ad85a47fb2dceacf90d4cde645595b90a8d3eb2b14ac8194ce556e7d779cd0157e00e9f72c02b5895fa1c7673b74b059da07885a2a7bec926706828d1dfe8afae3da750a0116ce887de50cdb222fad761ea489c5605ac9b059904d4343b88250e829db22e766548fefe7c2d187e8490fe486a0fe412a1f219d161de5b75c6acaa54712ceefeeb24ebcf4e8ed622b52412191e001d04c4909b22c60b66a701ce5ebd2945b3bae88defbc482ff649c526453a6e9e0773e872296db174e06b79b9f60d6b252151be02a6be13cead2e8e81f3731e06180f6bcc1fdc5992dc11a5a2930596f757854e1d1d460c8f36ccd2f41e6f170fa8ad1ff16d62e241a03d75c2ae2de84ffa442f8132978b3da2ea78b80809b9c144cb29985bcb2f4eb425c333b134829cd3e8cb453f696d269fbd2dd73acfcc87cc4775fd6dd49d376d8354459ba946db2e807d611811de64647b849417b269302269d5af5e2c9ce25c7a21bed289de813b7577268e25fffd1821dac8097fd27970d36fde5b7ce29dec5c459b0a1a38f4ccf0b77bac513c91a241b27bf41a2b7225f69575480fcacb94db2d57285946dfc656bf5a591965aa885349f2f3006b6f01c59c75ed1230eb0f0fd8b76e2755b240735c93dfedf64ca541fc14aea2e61f0bd016b2036bd9d9a8d195562cdc214eae06db702d4e005d852b3d99a2f788a054c756206293235374fa7c2d3d5e2f3f7f91b333a4a4c5259668c8ea6c5cbdae30425323c4445585e677f8588959fc2cc1432555d63689ad6e8ef000000000000000000000000000000000000000000000000000e1d2d3701",
        "00e8d8afa98c8434034d0df7a26d8df1d02c706b6e14ede65e5c9adf0fea3b8d036c3243f93def56a5cf6517d2274380edda3215bdae7a0811caea8d0753a7e370b8f14d06891b5549988ed0a335449dd640ee1b7dba35043573aa7cf35fac87fa691f9754bb90206c471efd12f101ed26a5c9ab3ed6a8a13522764ce1912033b6e5259de2e8423ad5ccb404bd243d59d562feb58063c725ef08b97e57e06f5da79bc7602d68fe0ce818c272bd68aa43b4f5e3105efe859d98450ba25edaa80489a878c60ca721a8299fb82cbce365fa242dbf37c952870bab561ef3dddd6f2f9016d9f9b7bc362e0951743791d0b6670e923b4b91f1425edefb7df31242e1194e83bce40659cb3f82b2286b1245044f752e6775bc6ff7abe0784ac76ccfc7d92c9e7f00ed1665c3dad07fa5487fb8a49167df19eae6a7fe2476831ca3be96a4047a15e0c0dcdd3dec8e7fac0041774cfa171a40fe28f9c005133eeb6c7743c586d7c64f098f786067f9eada5e535b46c89ac0fc1a839cddb6d132fb5fdfb8d57ec14d94241ff08151bf7b7adc1c1c40b02861df6d05fbdbcf16830df8b694c195f3a9f561bb3296341d9d99bac2bc2f36cb0389fe49ed4b826fe60d3b65d92cf54ed00bcc6b0abe80a502e2e5dcce6a008c2744d7a16d6815b2de53af7e53076d8fa72e7d6b624918ff17227d77b533042d34be0937e5d579d6261625b45fe371c0972277e6dc64326bc3cedb543e8a1bb5942ffb8a227b5c47ab2ba67c8eca7e16bfce3c7b88bddbac0d5658e7d8dd82480797bce6178a48c92213562b77aa85c4265ab42a7f26f4535c52a519e90bbbd1530c5ea9a39c73dfd5ab577b7aae26ae62499acc8fe50f90e7a88b87515a1fa79d2a004a25f6add997838c34d1a85907bc1e71b8f41bf73761a512612c66e75610b4332ce620e7062f6bf24f4d2ca259a0afb86615171f40a458111a830542d2c8e5b06857a2203a6c836380a7c9d07c5b88f8282ae5bc807fdbc781c2a864cd1aeefce171852006f5cceea63c9e6fab790894b6666eeaeeaddc57f27a65760d0de33b43fa7c94eebd50b1ca7ddf02dc39d215a037abcef9c7c99209bfc2ed93647649cf3befa3f02f81076c883ae76913f19903b41489c3fd8f963850434bc52f8802c6ddd5912e87ab6919452c87391d765edb11056aad71d8a689665b6527e6fb360c31907bff2ead279817bfaa789b6732b19486d001632b1e136ded16b5286fe23f86d34f24eb3b2a3e5184d5efa2ba12c4b1723a568d67ad04e63ba04089e70e6b800f8f044714ce3fa60ce57b4ba6c149688ac2f38a4d2a75e811dd192f2703d1a15e99820d2eb13bdedd905132f39d943c588540558d351aa84d626eee0ed2b4ca7dc414d28c6cfc7741b0036efda8cabd37ec4f5f4030e2389594d0b5982f9c634b94168e7cfb3580d82f151f8791f0c84da4db0360cbb8b70503254506c8677fea32a22acf1b861c8c9ae64618f959145b698efbac38aba998a33f0f39378a95b82284ab8eb96071a9df0032b5d027fa19a14ea687440f0d34e9a08bece1e81a97a6ecff1731b8d4a8c2bdae973012167844c307edc7e111e9947cc9f921ef8a9baca28684b467f2ec6c9b684fdff95eb503511c84bf3f6ba63fc8bcc6dd3697349f621499628538e269b6ed3bbfea48224efa181668358917c0dad1e53209219f64d35c9ce878d725f32cc90aeac7e56b36f1294822255ffa7199709df8dc21ad8c5c07891e5fbb67d4c87130de09edeb820e6790c351949c10dc4e7e77d0f47e5d9379865e0b4d05ff7afc9ca94284db9c3eeeffb99d56b2e5cbb48dbf860951cbfde2dbf82f9e3558"
      ],
      "sequence": 4294967294
    }
  ],
  "vout": [
    {
      "value": 499967.4592,
      "n": 0,
      "scriptPubKey": {
        "asm": "1 27678bff1a888de7828c5a5b9889e1fc47429e39c6b7cad6e32d0f582d186323",
        "hex": "512027678bff1a888de7828c5a5b9889e1fc47429e39c6b7cad6e32d0f582d186323",
        "reqSigs": 1,
        "type": "witness_v1_scripthash",
        "addresses": [
          "3QJmnh"
        ]
      }
    },
    {
      "value": 1.0,
      "n": 1,
      "scriptPubKey": {
        "asm": "OP_RETURN e0e988042f0ad525d5831c53b8d30ecf798e8138d955a4abd87ee3743257e6fb f34a66a7bbb6dc301d25d15d631008d5f315a036b72ece420b01a34bfedad778d36a46879b96fc103d05f17d433028f5d3358016970eee622b21836bdefaf758b30a26e7fbf69c705d65911d23504895b355e076f76e8e024b41e30bbe9a9738932a06c7dbd6bc507d45b13d037068b59375c056d74eae226b61c32b9ebab71873cae6273b365cb09da551dde3908855739520b637ae4ec28b8123cb7e5a57f853eac6071b167c90bd8571fdc3b0a87553b50096178e6ee2aba103eb5e7a77d8338aa6677b761cf0dde5119da3d0c81533d560f677ee0e82cbc1638b3e1a17b813aa86475b563cd0fdc531bd83f0e83513f540d657ce2ea2ebe143ab1e3a3798f34a66a7bbb6dc301d25d15d631008d5f315a036b72ece420b01a34bfedad778d36a46879b96fc103d05f17d433028f5d3358016970eee622b21836bdefaf758b30a26e7fbf69c705d65911d23504895b355e076f76e8e024b41e30bbe9a9738932a06c7dbd6bc507d45b13d037068b59375c056d74eae226b61c32b9ebab71873cae6273b365cb09da551dde3908855739520b637ae4ec28b8123cb7e5a57f853eac6071b167c90bd8571fdc3b0a87553b50096178e6ee2aba103eb5e7a77d8338aa6677b761cf0dde5119da3d0c81533d560f677ee0e82cbc1638b3e1a17b813aa86475b563cd0fdc531bd83f0e83513f540d657ce2ea2ebe143ab1e3a3798f34a66a7bbb6dc301d25d15d631008d5f315a036b72ece420b01a34bfedad778d36a46879b96fc103d05f17d433028f5d3358016970eee622b21836bdefaf758b30a26e7fbf69c705d65911d23504895b355e076f76e8e024b41e30bbe9a9738932a06c7dbd6bc507d45b13d037068b59375c056d74eae226b61c32b9ebab71873cae6273b365cb09da551dde3908855739520b637ae4ec28b8123cb7e5a57f853eac6071b167c90bd8571fdc3b0a87553b50096178e6ee2aba103eb5e7a77d8338aa6677b761cf0dde5119da3d0c81533d560f677ee0e82cbc1638b3e1a17b813aa86475b563cd0fdc531bd83f0e83513f540d657ce2ea2ebe143ab1e3a3798f34a66a7bbb6dc301d25d15d631008d5f315a036b72ece420b01a34bfedad778d36a46879b96fc103d05f17d433028f5d3358016970eee622b21836bdefaf758b30a26e7fbf69c705d65911d23504895b355e076f76e8e024b41e30bbe9a9738932a06c7dbd6bc507d45b13d037068b59375c056d74eae226b61c32b9ebab71873cae6273b365cb09da551dde3908855739520b637ae4ec28b8123cb7e5a57f853eac6071b167c90bd8571fdc3b0a87553b50096178e6ee2aba103eb5e7a77d8338aa6677b761cf0dde5119da3d0c81533d560f677ee0e82cbc1638b3e1a17b813aa86475b563cd0fdc531bd83f0e83513f540d657ce2ea2ebe143ab1e3a3798f34a66a7bbb6dc301d25d15d631008d5f315a036b72ece420b01a34bfedad778d36a46879b96fc103d05f17d433028f5d3358016970eee622b21836bdefaf758b30a26e7fbf69c705d65911d23504895b355e076f76e8e024b41e30bbe9a9738932a06c7dbd6bc507d45b13d037068b59375c056d74eae226b61c32b9ebab71873cae6273b365cb09da551dde3908855c4c8a3f729aa5a9267198db7fe4adec4f06cf1fffc35b7f1acd30dad1073f25d",
        "hex": "6a20e0e988042f0ad525d5831c53b8d30ecf798e8138d955a4abd87ee3743257e6fb4db004f34a66a7bbb6dc301d25d15d631008d5f315a036b72ece420b01a34bfedad778d36a46879b96fc103d05f17d433028f5d3358016970eee622b21836bdefaf758b30a26e7fbf69c705d65911d23504895b355e076f76e8e024b41e30bbe9a9738932a06c7dbd6bc507d45b13d037068b59375c056d74eae226b61c32b9ebab71873cae6273b365cb09da551dde3908855739520b637ae4ec28b8123cb7e5a57f853eac6071b167c90bd8571fdc3b0a87553b50096178e6ee2aba103eb5e7a77d8338aa6677b761cf0dde5119da3d0c81533d560f677ee0e82cbc1638b3e1a17b813aa86475b563cd0fdc531bd83f0e83513f540d657ce2ea2ebe143ab1e3a3798f34a66a7bbb6dc301d25d15d631008d5f315a036b72ece420b01a34bfedad778d36a46879b96fc103d05f17d433028f5d3358016970eee622b21836bdefaf758b30a26e7fbf69c705d65911d23504895b355e076f76e8e024b41e30bbe9a9738932a06c7dbd6bc507d45b13d037068b59375c056d74eae226b61c32b9ebab71873cae6273b365cb09da551dde3908855739520b637ae4ec28b8123cb7e5a57f853eac6071b167c90bd8571fdc3b0a87553b50096178e6ee2aba103eb5e7a77d8338aa6677b761cf0dde5119da3d0c81533d560f677ee0e82cbc1638b3e1a17b813aa86475b563cd0fdc531bd83f0e83513f540d657ce2ea2ebe143ab1e3a3798f34a66a7bbb6dc301d25d15d631008d5f315a036b72ece420b01a34bfedad778d36a46879b96fc103d05f17d433028f5d3358016970eee622b21836bdefaf758b30a26e7fbf69c705d65911d23504895b355e076f76e8e024b41e30bbe9a9738932a06c7dbd6bc507d45b13d037068b59375c056d74eae226b61c32b9ebab71873cae6273b365cb09da551dde3908855739520b637ae4ec28b8123cb7e5a57f853eac6071b167c90bd8571fdc3b0a87553b50096178e6ee2aba103eb5e7a77d8338aa6677b761cf0dde5119da3d0c81533d560f677ee0e82cbc1638b3e1a17b813aa86475b563cd0fdc531bd83f0e83513f540d657ce2ea2ebe143ab1e3a3798f34a66a7bbb6dc301d25d15d631008d5f315a036b72ece420b01a34bfedad778d36a46879b96fc103d05f17d433028f5d3358016970eee622b21836bdefaf758b30a26e7fbf69c705d65911d23504895b355e076f76e8e024b41e30bbe9a9738932a06c7dbd6bc507d45b13d037068b59375c056d74eae226b61c32b9ebab71873cae6273b365cb09da551dde3908855739520b637ae4ec28b8123cb7e5a57f853eac6071b167c90bd8571fdc3b0a87553b50096178e6ee2aba103eb5e7a77d8338aa6677b761cf0dde5119da3d0c81533d560f677ee0e82cbc1638b3e1a17b813aa86475b563cd0fdc531bd83f0e83513f540d657ce2ea2ebe143ab1e3a3798f34a66a7bbb6dc301d25d15d631008d5f315a036b72ece420b01a34bfedad778d36a46879b96fc103d05f17d433028f5d3358016970eee622b21836bdefaf758b30a26e7fbf69c705d65911d23504895b355e076f76e8e024b41e30bbe9a9738932a06c7dbd6bc507d45b13d037068b59375c056d74eae226b61c32b9ebab71873cae6273b365cb09da551dde3908855c4c8a3f729aa5a9267198db7fe4adec4f06cf1fffc35b7f1acd30dad1073f25d",
        "type": "nulldata"
      }
    }
  ],
  "blockhash": "a9a7ce638639648c5b111e15e0d4489535a11a846f6b50fba3b7e2925471654c",
  "confirmations": 1,
  "time": 1764182153,
  "blocktime": 1764182153
}