{
  "hex": "01000000000101ca980b433443e27cefcf465d0b2a9bbab090e1aff05c5f44a8acb625ef8f7ce90000000000feffffff0200e1f50500000000fdd5046a20017fa62c171372e80e8f670f1e55a21f56f27e98555e766b99e95528b3d422164db004757efcfdd408566d2b87a24543a052d7e1ced56d41669f030396c69e715689f3555edcddf428764d0ba78265638072f7c1eef54d6146bf2323b6e6be5176a9d3353ebcbd9448162d6bc7e20503e01297a18e952d0126df4343d686de3116c9b3151e9c9db468360d4be7c22523c032b781aeb50d2106ff6363f6a6fe1136e993f5fe7c7d5488d6edab0722c5c320d257614e55edc1e61f838316461ef1d60973d5de5c5d74a8f6cd8b2702e5e300f277416e75cde1c63fa3a336663ed1f62953b5be3c3d14c896adeb47628583609217210e15ad81a65fc3c356065eb1964933959e1c1d34e8b68dcb6742a5a340b237012e358da1867fe3e376267e91b66913757efcfdd408566d2b87a24543a052d7e1ced56d41669f030396c69e715689f3555edcddf428764d0ba78265638072f7c1eef54d6146bf2323b6e6be5176a9d3353ebcbd9448162d6bc7e20503e01297a18e952d0126df4343d686de3116c9b3151e9c9db468360d4be7c22523c032b781aeb50d2106ff6363f6a6fe1136e993f5fe7c7d5488d6edab0722c5c320d257614e55edc1e61f838316461ef1d60973d5de5c5d74a8f6cd8b2702e5e300f277416e75cde1c63fa3a336663ed1f62953b5be3c3d14c896adeb47628583609217210e15ad81a65fc3c356065eb1964933959e1c1d34e8b68dcb6742a5a340b237012e358da1867fe3e376267e91b66913757efcfdd408566d2b87a24543a052d7e1ced56d41669f030396c69e715689f3555edcddf428764d0ba78265638072f7c1eef54d6146bf2323b6e6be5176a9d3353ebcbd9448162d6bc7e20503e01297a18e952d0126df4343d686de3116c9b3151e9c9db468360d4be7c22523c032b781aeb50d2106ff6363f6a6fe1136e993f5fe7c7d5488d6edab0722c5c320d257614e55edc1e61f838316461ef1d60973d5de5c5d74a8f6cd8b2702e5e300f277416e75cde1c63fa3a336663ed1f62953b5be3c3d14c896adeb47628583609217210e15ad81a65fc3c356065eb1964933959e1c1d34e8b68dcb6742a5a340b237012e358da1867fe3e376267e91b66913757efcfdd408566d2b87a24543a052d7e1ced56d41669f030396c69e715689f3555edcddf428764d0ba78265638072f7c1eef54d6146bf2323b6e6be5176a9d3353ebcbd9448162d6bc7e20503e01297a18e952d0126df4343d686de3116c9b3151e9c9db468360d4be7c22523c032b781aeb50d2106ff6363f6a6fe1136e993f5fe7c7d5488d6edab0722c5c320d257614e55edc1e61f838316461ef1d60973d5de5c5d74a8f6cd8b2702e5e300f277416e75cde1c63fa3a336663ed1f62953b5be3c3d14c896adeb47628583609217210e15ad81a65fc3c356065eb1964933959e1c1d34e8b68dcb6742a5a340b237012e358da1867fe3e376267e91b66913757efcfdd408566d2b87a24543a052d7e1ced56d41669f030396c69e715689f3555edcddf428764d0ba78265638072f7c1eef54d6146bf2323b6e6be5176a9d3353ebcbd9448162d6bc7e20503e01297a18e952d0126df4343d686de3116c9b3151e9c9db468360d4be7c22523c032b781aeb50d2106ff6363f6a6fe1136e993f5fe7c7d5488d6edab0722c5c320d257ec31a9b18c1ae3a5fcbb7c66e77a08c467f99cd27c8f24ff2a4b5a826a7c00966076a04b792d00002251209edd004f96890436967995d8c46e973d7e13b703bc66ac7f5c9473caed17123302fd75098204a6c77e2a8221101c2a81a51695c901267d45d7f6f4f950c8b136b0bbd18cecf094c7c6a0e885e435946987c8c24fb5964a83fe76c89285660150e331b75139993264b707939ddb4fc27affa29f4a3ffa2b56732ab2d4e6815e6496f1e403fc73bbd4134708cd7056f1bd1189148436b418bf98826d70dff0f183229562ecdd251d60d2a46cc15dcb1374ff24aede7cc002ce58692a88a8a9fe6c800ad6612ac83788a659d99017c60186a92d94ab4c808f1ab167d47dafe69c56e04e692886b0c1dcaf86fb17f1ff69ce659205493f9d3c9d199993ef1cd4e9ea621489ab22fc503a6be0dad9acf28ef092364973222e724cbb67ebbfa79f782e27a8beffe27b78db33870333f5da42ee899084e26ee97c5ac60cb50f26b31e9af227d67c211003f7d2eb5c5c08265eeb37bd53ff35ae8c888de33ba917d0ddc3c6339d1839817c9a7972975e52b48f6a84f685ebf467d5aa316b3395319541e766745c0e9126b82755e6207447fd76e1adef0a29b165e3855c52d035238bd093dacade73f664f790f0bf45a595e2604a5cfb81bb3a8f05ed30d595ef6983658806fa38f81ccda2c34c345e4eaafdf31cf691ef60607a4e72f78ef243143b8ffaf2f55ff433f8aa6606be39e91d1111fc38761d9d123c768004359b7246363119524c7a9fc544f2aee6cf006d63b0157cb1b28a08730630b91be54d943aa43b477a12fc53f9d23a84082616d6f18b00121cb775c069ca36ecf0fface27e0da995398645f0ee6aee6b26ffbc88a8183d43c70abea49c250649b70c28cd18aba247fc6720152318c5ad87977e7b4644df05f71a920848b75b2aaab3fe444f521711c530e57e8b28f46010697a133e9f8412cab655d3f3424020a2815d30351a2483b30b4328b31bc09af140bafcd5ce18e6825af2b48a83b7440eb82e0b3c76e2797f7dcf463e6b1119308c4ee4393f73bde26b9ea220aef62cf8eefe510221d15ee9ecff056b64d8a793514d0031c2ec8283e6ce7a1de315943bc7232e99ad2198b788284d31fd41610e443e20b44eec864f10ada3415d14702da22c7ff84e32ffc9337b96eda085af1cc36e9bc3d880865138eda3004bf9052ca94711da7fa03e2d6ab05a8630e2eb9fc4754bbf4e41f25edbd3f9a6d8d11cd741ef13d8733e61841df84c6de2405fac5c32d6679bdd0ac10996a54ee34391525c59d1ad4a8bcdbfc66a271c5f50b514a1b5fbcbf2d0869dd5adc2d2b51dc692ff41af138dcd2475a5fc7914f8b5329266f371e9e15ab7de9d61727e77a0eefdc9aed9d54defa4c6773a4081b3165d4fe91a344da916739ff01685df57bd5ca88ec3299449379cad1c1ba231529aac688ae7df86bd694b153b23b20eceeb7ca2b85fa10e8addc78f26b29d9cc1c3991ae3245781a2ceda3866f55523751ae485bc68a06cff844aeb26e0f2a3e47cdd5704ff76544b943b5e586097cdbd67a8344de29ca1670fe11f02be8eebdec92c76b83539a5077c1e9dae087b0c56d2ede3910bc0844016ba11d25de1163b7043b42b38ff0f9b50017e3eeb9baba91b9a714b6ebbb0a4dd1662f5b7c72ef34308658c701691b6cd8363f7b332fb933b12a74e9b511837924f0d754c705ca7a5cb9f3a394684b9b45a222d0bfd9b29365890ae428377e039cecd10aba8c2eb3b8415be4e4e1bd27b982feddec352bd72b7637c3d6714f90bddd468582e7565e3874e976866b26ffc58c9a9057282f30e3303d791854c2028bb7b3c0ff7fb6b6eb4280521e7d88ba0fa3c62a2a5dc0fab3cda3d2ea71bd0cb3e93eeba3254fde541057056f4e2537b1cdc0066add5b318920c97a050b05797aa6ee1a708de33015fe38e330154e34af821207f06ee86bdab0f263b751a54fccddc08c66a7a7e0b31b2ea4f877b7225d3775ca38719cc957d466c41d925d45a503d240b7bd9ac0b2baf9c71ff7ad1c544ceffb3e66237d04c8bf584fe5e2cfcef1341780b9028e1ca52e19d839d0fced291920bfd352904a097def872a922ae082d3f7cee45eb93298552711c917e2300a455810fd32062f391fa45602457f8575764ce3cb6b8063c0d30ddc65bda877c39c369d758d5aab4ed1e7c9a0c8d1c46e632e69558b993b5dfa601a225a49bf9d8f27efcff2d32b918d769af0dc13fa3213a8df029618a7a76472a92ed928fd19f6b90eb9c4775c41cef63d6f6d56c3956ef37cdc64136d6bc75b41300418442611592950decdf792c002f59074badef5981d5848d97b09df280554d23ef71eb4a862e8e0a265f860c8da9f0a1862b7c8735fbf686df5b87773d1ace3dd08f0f4a934500053b7a537da7c4d05cd7f7bbffd0360864b3ee4b750afa82efce5c2fe6e0fe39c42c8e841ba52d7be6f17d3aeec38fef14906eaac03bd4044553c48701b8013f4296481ebcf8f188ba5fd0295fa2db92f7541c05150db520afd81357301a3d8eefb36332bc568c11132c85ec6b098e7a5a018eb96386b082d5c981e0272dddf478fb05f221510bc6194d905a614c5ff73027cdf8cee195960900473d2230fbbac6ffb44d00dbd3b8525fa7f3cc0867c5f39312c68ae5e539042bad37317414358a40a2a731d90499abb099bab555d67c8b6cb199f1be21662785dff002b0254f39481babc0800bafe153acb612c59a1791744e9b46e9d6e0b763f6bd1618f8af2d85c326cfced23dba524d2fff90262e656062816e54b1134f8d3e191926dd9df2fe7cdba5c59d5457849be28c2599610e2f5b36d896151cb294fbebafd9032c5ececa6a815d1080d7b028225809365d3a14e84a527b3303f5ac8b5349cbd7dd070b6c7054984e892248e0f22cba8c4d3420314a4834a0f9f62c605c8ca53847c8aa9674cb7e34b50f0835e24761ed4fe016b77828bc82e3bc23f637004e79428d9a5943c15183bab46fcc55397589c0d2d168d589599beb416a87c1f3122732d4c33b8a0c987c4eda7ecf2c6805454d225612fb06b30b7fee7e43da53215a1b8b12f26bdf1689d399a25077209cb20c12c65363029e9aa65d26bc1ec613d4dd03b68d57c0a0b2e8bae27ec47e1c36aa18917ac53158388b60b255899c5ac7a2738279650149324d27d6d3ca19f1399420d601bf0cd5062b73efc361ae5dbb68dcada14cbf8eca8203e00b6f9fa1087fbac1ce64220f1d142be8ce3516426044d6511004be01fde7209c11eebbf29c9fa909a4d82b6401b6e4f5013c90628a06fd3916c86b0ac2cdc0556dae83b3611be625d491fc3e50ba27dab04557f1e6568a1a094d14a186fc5ae3643ecd647c3200141531535a8f929aa4b3cbd1e0eff60008203b585f687ca1aebbfe07092c39495e7b9899aeb5bbd2d3edf7fe0c2d49585a6b6f7c94a1a6b0b8d2e00000000000000000000000000000000000000000101c2d3c01fd21050056921eeaf510971a0c99a6ba00fa347952ec6b93d07f27a3d25ba56f6e02dba01b5d3c9c439f41d37a6ad642f4f22a1ad3084f80cc1a82a6242666c07244c18bee8f074a544790915c8f422b199c6ac78e7c59e00f1e267a55400da2d19844796d2ae9b170ee59efedc2154193fd1954f63312e1542d0c96878048d1bee41f759afe0f02caccb3d78a96e1d545df4f875c1ca89305d179ba754327f6fd1fa47e5bd69b981b6ebd82a2f94114de0449b7c4512eaa577d81fbc09a614837a0ca0b95cd588f415fe53e576e64c73e5184bb0022dc63d047c7fbcb7a7459a3dc8c6d4ce7e19c13e78995f961fb63b4ed58688a1a18a5e7819a164b809f13d2d96325aca8a3ec5257a17a5d590823a962581271c66e543a1e3dd68fe960665b4be0ec2dd043d03f618cb7260b25cae5449a0e8711c0f73d0877f64db39a2be4d446b908ab81b4af59b348ecb34e72e154d63c80f4a5ff4155d002849b3e55f3df407c1bc629b7a863aec4743f6a497855112f6dceaf17825339e431d742beeb0153873295abc69da2632cbeb38a84fea7c6b2bc7ed3683c66bf458190a57b4a6b2e06e5f31b144763cec3e0c1a47af6864b42ad1b126e035badd570fea51f9f6c5964c4551f092cb4d4cefb9428f21cadb0f3fb1f8f7dbac6ef2a57cadbfb9f20e77c53f450549ed0f643005b01e68e1e8743f4917ba52df3122b399975316e93a22b3ab0f21bb14cf314094ae3475a23c64c5ef13dc2a48a06d0b680cdb1d90cdc418e55f1f711e5b334059146205f5102dd9a067496ebe326128d92070aa7b472d0da1edaaf809e00d3f72783e7802e7a64f706eedacabbd8db415ffb54d1eada0dea0f2d96efddf598b3afeedae412cbd4394bc16df536d6d3f38200686bbd4ec20ac1836d5e027ca5584e79af146460a8d676f77503190a8ae490a94489d523b98e7df6985b8f43ce3d86675a77ec8036e0a4be8758bae1d50f148970bf09b06239edf7bb7f20d21fdf9ac0216bfa93c4fd025121762b075cef634090850d55f10c9073fb01434b8c7307e7d98589d0bbe98df611613e675311cd7027acbf97846e88da00e98f69ffbbce890a22f2becc83236498f05e734513c10a5a947b4bd840dc4fb1ccf16010a6d4131c02b865fc7412a2bb1bedc5838bdae2cd2c1a08da7134426a891d908185a02492ecec14f9380e71256825eb2a59c4feb6276ecf2261890cc105de5e97b216085f8b5f1f19f3ada21d6927d85bfd795d974fdd4fe1532030ece443b6c6d60b155462336db1eee69f43601455f1d9790ecfaa68ea157403f4a6a4b158f6b499fac304e475d9e9b68356ba4bb4724c4f8c57806b5a2d0d14b5d69ea2cd1798978df8f5e2ece69da5bcf1f61f4bbf28583386ae8e4a1dd44b26c70c6d05469d2d8ed73a4200140883636610ff9dbdd96eeb648f0e19ad18b779c513b03d5f0f05c298b0a1ae8174f993a0d41a339bd328889161f8ef9abf1d3289478410223a3f0f338a1d297d9036b1f76529d5ece78c20e1bac1e94a6ed4b4bd081102db84f5394a71c44f8ca7f4196eccfb95791eca2743df8279aae35cf831243322a3f8ef83bf56ca7e7d1961c3b25ea99a60dde9c50dcd5641ead3523285ea22af9ecd5cbedf36faae5cd066455129fb4a93555f458338eaa9d545800a9f5c9c8015c31bc993c32b7b17148a4f090dd0eff2033e8eaa0a9f820ae55db9af33adf0cb2beca571e7bd859c0c69a234b7b744d5de86584cac64e3d156fda2bcb7eb7c37dee834a6a18e6e8e429a3e4096029343881926f3f5428762d2fcaeff3bdedb59bc6bd1ed23005d0a577f93feb33860284d4395c850c1b21f6c000000",
  "txid": "62347b7b92f923211d4a28c29da2661e1da661d4acf710686004daf0c636c540",
  "hash": "6277a42eb84dd41aaddf01f119555c29da4e65290966ff71c08aea776f61fe78",
  "size": 5085,
  "vsize": 2278,
  "version": 1,
  "locktime": 108,
  "vin": [
    {
      "txid": "e97c8fef25b6aca8445f5cf0afe190b0ba9b2a0b5d46cfef7ce24334430b98ca",
      "vout": 0,
      "scriptSig": {
        "asm": "",
        "hex": ""
      },
      "txinwitness": [
        "8204a6c77e2a8221101c2a81a51695c901267d45d7f6f4f950c8b136b0bbd18cecf094c7c6a0e885e435946987c8c24fb5964a83fe76c89285660150e331b75139993264b707939ddb4fc27affa29f4a3ffa2b56732ab2d4e6815e6496f1e403fc73bbd4134708cd7056f1bd1189148436b418bf98826d70dff0f183229562ecdd251d60d2a46cc15dcb1374ff24aede7cc002ce58692a88a8a9fe6c800ad6612ac83788a659d99017c60186a92d94ab4c808f1ab167d47dafe69c56e04e692886b0c1dcaf86fb17f1ff69ce659205493f9d3c9d199993ef1cd4e9ea621489ab22fc503a6be0dad9acf28ef092364973222e724cbb67ebbfa79f782e27a8beffe27b78db33870333f5da42ee899084e26ee97c5ac60cb50f26b31e9af227d67c211003f7d2eb5c5c08265eeb37bd53ff35ae8c888de33ba917d0ddc3c6339d1839817c9a7972975e52b48f6a84f685ebf467d5aa316b3395319541e766745c0e9126b82755e6207447fd76e1adef0a29b165e3855c52d035238bd093dacade73f664f790f0bf45a595e2604a5cfb81bb3a8f05ed30d595ef6983658806fa38f81ccda2c34c345e4eaafdf31cf691ef60607a4e72f78ef243143b8ffaf2f55ff433f8aa6606be39e91d1111fc38761d9d123c768004359b7246363119524c7a9fc544f2aee6cf006d63b0157cb1b28a08730630b91be54d943aa43b477a12fc53f9d23a84082616d6f18b00121cb775c069ca36ecf0fface27e0da995398645f0ee6aee6b26ffbc88a8183d43c70abea49c250649b70c28cd18aba247fc6720152318c5ad87977e7b4644df05f71a920848b75b2aaab3fe444f521711c530e57e8b28f46010697a133e9f8412cab655d3f3424020a2815d30351a2483b30b4328b31bc09af140bafcd5ce18e6825af2b48a83b7440eb82e0b3c76e2797f7dcf463e6b1119308c4ee4393f73bde26b9ea220aef62cf8eefe510221d15ee9ecff056b64d8a793514d0031c2ec8283e6ce7a1de315943bc7232e99ad2198b788284d31fd41610e443e20b44eec864f10ada3415d14702da22c7ff84e32ffc9337b96eda085af1cc36e9bc3d880865138eda3004bf9052ca94711da7fa03e2d6ab05a8630e2eb9fc4754bbf4e41f25edbd3f9a6d8d11cd741ef13d8733e61841df84c6de2405fac5c32d6679bdd0ac10996a54ee34391525c59d1ad4a8bcdbfc66a271c5f50b514a1b5fbcbf2d0869dd5adc2d2b51dc692ff41af138dcd2475a5fc7914f8b5329266f371e9e15ab7de9d61727e77a0eefdc9aed9d54defa4c6773a4081b3165d4fe91a344da916739ff01685df57bd5ca88ec3299449379cad1c1ba231529aac688ae7df86bd694b153b23b20eceeb7ca2b85fa10e8addc78f26b29d9cc1c3991ae3245781a2ceda3866f55523751ae485bc68a06cff844aeb26e0f2a3e47cdd5704ff76544b943b5e586097cdbd67a8344de29ca1670fe11f02be8eebdec92c76b83539a5077c1e9dae087b0c56d2ede3910bc0844016ba11d25de1163b7043b42b38ff0f9b50017e3eeb9baba91b9a714b6ebbb0a4dd1662f5b7c72ef34308658c701691b6cd8363f7b332fb933b12a74e9b511837924f0d754c705ca7a5cb9f3a394684b9b45a222d0bfd9b29365890ae428377e039cecd10aba8c2eb3b8415be4e4e1bd27b982feddec352bd72b7637c3d6714f90bddd468582e7565e3874e976866b26ffc58c9a9057282f30e3303d791854c2028bb7b3c0ff7fb6b6eb4280521e7d88ba0fa3c62a2a5dc0fab3cda3d2ea71bd0cb3e93eeba3254fde541057056f4e2537b1cdc0066add5b318920c97a050b05797aa6ee1a708de33015fe38e330154e34af821207f06ee86bdab0f263b751a54fccddc08c66a7a7e0b31b2ea4f877b7225d3775ca38719cc957d466c41d925d45a503d240b7bd9ac0b2baf9c71ff7ad1c544ceffb3e66237d04c8bf584fe5e2cfcef1341780b9028e1ca52e19d839d0fced291920bfd352904a097def872a922ae082d3f7cee45eb93298552711c917e2300a455810fd32062f391fa45602457f8575764ce3cb6b8063c0d30ddc65bda877c39c369d758d5aab4ed1e7c9a0c8d1c46e632e69558b993b5dfa601a225a49bf9d8f27efcff2d32b918d769af0dc13fa3213a8df029618a7a76472a92ed928fd19f6b90eb9c4775c41cef63d6f6d56c3956ef37cdc64136d6bc75b41300418442611592950decdf792c002f59074badef5981d5848d97b09df280554d23ef71eb4a862e8e0a265f860c8da9f0a1862b7c8735fbf686df5b87773d1ace3dd08f0f4a934500053b7a537da7c4d05cd7f7bbffd0360864b3ee4b750afa82efce5c2fe6e0fe39c42c8e841ba52d7be6f17d3aeec38fef14906eaac03bd4044553c48701b8013f4296481ebcf8f188ba5fd0295fa2db92f7541c05150db520afd81357301a3d8eefb36332bc568c11132c85ec6b098e7a5a018eb96386b082d5c981e0272dddf478fb05f221510bc6194d905a614c5ff73027cdf8cee195960900473d2230fbbac6ffb44d00dbd3b8525fa7f3cc0867c5f39312c68ae5e539042bad37317414358a40a2a731d90499abb099bab555d67c8b6cb199f1be21662785dff002b0254f39481babc0800bafe153acb612c59a1791744e9b46e9d6e0b763f6bd1618f8af2d85c326cfced23dba524d2fff90262e656062816e54b1134f8d3e191926dd9df2fe7cdba5c59d5457849be28c2599610e2f5b36d896151cb294fbebafd9032c5ececa6a815d1080d7b028225809365d3a14e84a527b3303f5ac8b5349cbd7dd070b6c7054984e892248e0f22cba8c4d3420314a4834a0f9f62c605c8ca53847c8aa9674cb7e34b50f0835e24761ed4fe016b77828bc82e3bc23f637004e79428d9a5943c15183bab46fcc55397589c0d2d168d589599beb416a87c1f3122732d4c33b8a0c987c4eda7ecf2c6805454d225612fb06b30b7fee7e43da53215a1b8b12f26bdf1689d399a25077209cb20c12c65363029e9aa65d26bc1ec613d4dd03b68d57c0a0b2e8bae27ec47e1c36aa18917ac53158388b60b255899c5ac7a2738279650149324d27d6d3ca19f1399420d601bf0cd5062b73efc361ae5dbb68dcada14cbf8eca8203e00b6f9fa1087fbac1ce64220f1d142be8ce3516426044d6511004be01fde7209c11eebbf29c9fa909a4d82b6401b6e4f5013c90628a06fd3916c86b0ac2cdc0556dae83b3611be625d491fc3e50ba27dab04557f1e6568a1a094d14a186fc5ae3643ecd647c3200141531535a8f929aa4b3cbd1e0eff60008203b585f687ca1aebbfe07092c39495e7b9899aeb5bbd2d3edf7fe0c2d49585a6b6f7c94a1a6b0b8d2e00000000000000000000000000000000000000000101c2d3c01",
        "0056921eeaf510971a0c99a6ba00fa347952ec6b93d07f27a3d25ba56f6e02dba01b5d3c9c439f41d37a6ad642f4f22a1ad3084f80cc1a82a6242666c07244c18bee8f074a544790915c8f422b199c6ac78e7c59e00f1e267a55400da2d19844796d2ae9b170ee59efedc2154193fd1954f63312e1542d0c96878048d1bee41f759afe0f02caccb3d78a96e1d545df4f875c1ca89305d179ba754327f6fd1fa47e5bd69b981b6ebd82a2f94114de0449b7c4512eaa577d81fbc09a614837a0ca0b95cd588f415fe53e576e64c73e5184bb0022dc63d047c7fbcb7a7459a3dc8c6d4ce7e19c13e78995f961fb63b4ed58688a1a18a5e7819a164b809f13d2d96325aca8a3ec5257a17a5d590823a962581271c66e543a1e3dd68fe960665b4be0ec2dd043d03f618cb7260b25cae5449a0e8711c0f73d0877f64db39a2be4d446b908ab81b4af59b348ecb34e72e154d63c80f4a5ff4155d002849b3e55f3df407c1bc629b7a863aec4743f6a497855112f6dceaf17825339e431d742beeb0153873295abc69da2632cbeb38a84fea7c6b2bc7ed3683c66bf458190a57b4a6b2e06e5f31b144763cec3e0c1a47af6864b42ad1b126e035badd570fea51f9f6c5964c4551f092cb4d4cefb9428f21cadb0f3fb1f8f7dbac6ef2a57cadbfb9f20e77c53f450549ed0f643005b01e68e1e8743f4917ba52df3122b399975316e93a22b3ab0f21bb14cf314094ae3475a23c64c5ef13dc2a48a06d0b680cdb1d90cdc418e55f1f711e5b334059146205f5102dd9a067496ebe326128d92070aa7b472d0da1edaaf809e00d3f72783e7802e7a64f706eedacabbd8db415ffb54d1eada0dea0f2d96efddf598b3afeedae412cbd4394bc16df536d6d3f38200686bbd4ec20ac1836d5e027ca5584e79af146460a8d676f77503190a8ae490a94489d523b98e7df6985b8f43ce3d86675a77ec8036e0a4be8758bae1d50f148970bf09b06239edf7bb7f20d21fdf9ac0216bfa93c4fd025121762b075cef634090850d55f10c9073fb01434b8c7307e7d98589d0bbe98df611613e675311cd7027acbf97846e88da00e98f69ffbbce890a22f2becc83236498f05e734513c10a5a947b4bd840dc4fb1ccf16010a6d4131c02b865fc7412a2bb1bedc5838bdae2cd2c1a08da7134426a891d908185a02492ecec14f9380e71256825eb2a59c4feb6276ecf2261890cc105de5e97b216085f8b5f1f19f3ada21d6927d85bfd795d974fdd4fe1532030ece443b6c6d60b155462336db1eee69f43601455f1d9790ecfaa68ea157403f4a6a4b158f6b499fac304e475d9e9b68356ba4bb4724c4f8c57806b5a2d0d14b5d69ea2cd1798978df8f5e2ece69da5bcf1f61f4bbf28583386ae8e4a1dd44b26c70c6d05469d2d8ed73a4200140883636610ff9dbdd96eeb648f0e19ad18b779c513b03d5f0f05c298b0a1ae8174f993a0d41a339bd328889161f8ef9abf1d3289478410223a3f0f338a1d297d9036b1f76529d5ece78c20e1bac1e94a6ed4b4bd081102db84f5394a71c44f8ca7f4196eccfb95791eca2743df8279aae35cf831243322a3f8ef83bf56ca7e7d1961c3b25ea99a60dde9c50dcd5641ead3523285ea22af9ecd5cbedf36faae5cd066455129fb4a93555f458338eaa9d545800a9f5c9c8015c31bc993c32b7b17148a4f090dd0eff2033e8eaa0a9f820ae55db9af33adf0cb2beca571e7bd859c0c69a234b7b744d5de86584cac64e3d156fda2bcb7eb7c37dee834a6a18e6e8e429a3e4096029343881926f3f5428762d2fcaeff3bdedb59bc6bd1ed23005d0a577f93feb33860284d4395c850c1b21f"
      ],
      "sequence": 4294967294
    }
  ],
  "vout": [
    {
      "value": 1.0,
      "n": 0,
      "scriptPubKey": {
        "asm": "OP_RETURN 017fa62c171372e80e8f670f1e55a21f56f27e98555e766b99e95528b3d42216 757efcfdd408566d2b87a24543a052d7e1ced56d41669f030396c69e715689f3555edcddf428764d0ba78265638072f7c1eef54d6146bf2323b6e6be5176a9d3353ebcbd9448162d6bc7e20503e01297a18e952d0126df4343d686de3116c9b3151e9c9db468360d4be7c22523c032b781aeb50d2106ff6363f6a6fe1136e993f5fe7c7d5488d6edab0722c5c320d257614e55edc1e61f838316461ef1d60973d5de5c5d74a8f6cd8b2702e5e300f277416e75cde1c63fa3a336663ed1f62953b5be3c3d14c896adeb47628583609217210e15ad81a65fc3c356065eb1964933959e1c1d34e8b68dcb6742a5a340b237012e358da1867fe3e376267e91b66913757efcfdd408566d2b87a24543a052d7e1ced56d41669f030396c69e715689f3555edcddf428764d0ba78265638072f7c1eef54d6146bf2323b6e6be5176a9d3353ebcbd9448162d6bc7e20503e01297a18e952d0126df4343d686de3116c9b3151e9c9db468360d4be7c22523c032b781aeb50d2106ff6363f6a6fe1136e993f5fe7c7d5488d6edab0722c5c320d257614e55edc1e61f838316461ef1d60973d5de5c5d74a8f6cd8b2702e5e300f277416e75cde1c63fa3a336663ed1f62953b5be3c3d14c896adeb47628583609217210e15ad81a65fc3c356065eb1964933959e1c1d34e8b68dcb6742a5a340b237012e358da1867fe3e376267e91b66913757efcfdd408566d2b87a24543a052d7e1ced56d41669f030396c69e715689f3555edcddf428764d0ba78265638072f7c1eef54d6146bf2323b6e6be5176a9d3353ebcbd9448162d6bc7e20503e01297a18e952d0126df4343d686de3116c9b3151e9c9db468360d4be7c22523c032b781aeb50d2106ff6363f6a6fe1136e993f5fe7c7d5488d6edab0722c5c320d257614e55edc1e61f838316461ef1d60973d5de5c5d74a8f6cd8b2702e5e300f277416e75cde1c63fa3a336663ed1f62953b5be3c3d14c896adeb47628583609217210e15ad81a65fc3c356065eb1964933959e1c1d34e8b68dcb6742a5a340b237012e358da1867fe3e376267e91b66913757efcfdd408566d2b87a24543a052d7e1ced56d41669f030396c69e715689f3555edcddf428764d0ba78265638072f7c1eef54d6146bf2323b6e6be5176a9d3353ebcbd9448162d6bc7e20503e01297a18e952d0126df4343d686de3116c9b3151e9c9db468360d4be7c22523c032b781aeb50d2106ff6363f6a6fe1136e993f5fe7c7d5488d6edab0722c5c320d257614e55edc1e61f838316461ef1d60973d5de5c5d74a8f6cd8b2702e5e300f277416e75cde1c63fa3a336663ed1f62953b5be3c3d14c896adeb47628583609217210e15ad81a65fc3c356065eb1964933959e1c1d34e8b68dcb6742a5a340b237012e358da1867fe3e376267e91b66913757efcfdd408566d2b87a24543a052d7e1ced56d41669f030396c69e715689f3555edcddf428764d0ba78265638072f7c1eef54d6146bf2323b6e6be5176a9d3353ebcbd9448162d6bc7e20503e01297a18e952d0126df4343d686de3116c9b3151e9c9db468360d4be7c22523c032b781aeb50d2106ff6363f6a6fe1136e993f5fe7c7d5488d6edab0722c5c320d257ec31a9b18c1ae3a5fcbb7c66e77a08c467f99cd27c8f24ff2a4b5a826a7c0096",
        "hex": "6a20017fa62c171372e80e8f670f1e55a21f56f27e98555e766b99e95528b3d422164db004757efcfdd408566d2b87a24543a052d7e1ced56d41669f030396c69e715689f3555edcddf428764d0ba78265638072f7c1eef54d6146bf2323b6e6be5176a9d3353ebcbd9448162d6bc7e20503e01297a18e952d0126df4343d686de3116c9b3151e9c9db468360d4be7c22523c032b781aeb50d2106ff6363f6a6fe1136e993f5fe7c7d5488d6edab0722c5c320d257614e55edc1e61f838316461ef1d60973d5de5c5d74a8f6cd8b2702e5e300f277416e75cde1c63fa3a336663ed1f62953b5be3c3d14c896adeb47628583609217210e15ad81a65fc3c356065eb1964933959e1c1d34e8b68dcb6742a5a340b237012e358da1867fe3e376267e91b66913757efcfdd408566d2b87a24543a052d7e1ced56d41669f030396c69e715689f3555edcddf428764d0ba78265638072f7c1eef54d6146bf2323b6e6be5176a9d3353ebcbd9448162d6bc7e20503e01297a18e952d0126df4343d686de3116c9b3151e9c9db468360d4be7c22523c032b781aeb50d2106ff6363f6a6fe1136e993f5fe7c7d5488d6edab0722c5c320d257614e55edc1e61f838316461ef1d60973d5de5c5d74a8f6cd8b2702e5e300f277416e75cde1c63fa3a336663ed1f62953b5be3c3d14c896adeb47628583609217210e15ad81a65fc3c356065eb1964933959e1c1d34e8b68dcb6742a5a340b237012e358da1867fe3e376267e91b66913757efcfdd408566d2b87a24543a052d7e1ced56d41669f030396c69e715689f3555edcddf428764d0ba78265638072f7c1eef54d6146bf2323b6e6be5176a9d3353ebcbd9448162d6bc7e20503e01297a18e952d0126df4343d686de3116c9b3151e9c9db468360d4be7c22523c032b781aeb50d2106ff6363f6a6fe1136e993f5fe7c7d5488d6edab0722c5c320d257614e55edc1e61f838316461ef1d60973d5de5c5d74a8f6cd8b2702e5e300f277416e75cde1c63fa3a336663ed1f62953b5be3c3d14c896adeb47628583609217210e15ad81a65fc3c356065eb1964933959e1c1d34e8b68dcb6742a5a340b237012e358da1867fe3e376267e91b66913757efcfdd408566d2b87a24543a052d7e1ced56d41669f030396c69e715689f3555edcddf428764d0ba78265638072f7c1eef54d6146bf2323b6e6be5176a9d3353ebcbd9448162d6bc7e20503e01297a18e952d0126df4343d686de3116c9b3151e9c9db468360d4be7c22523c032b781aeb50d2106ff6363f6a6fe1136e993f5fe7c7d5488d6edab0722c5c320d257614e55edc1e61f838316461ef1d60973d5de5c5d74a8f6cd8b2702e5e300f277416e75cde1c63fa3a336663ed1f62953b5be3c3d14c896adeb47628583609217210e15ad81a65fc3c356065eb1964933959e1c1d34e8b68dcb6742a5a340b237012e358da1867fe3e376267e91b66913757efcfdd408566d2b87a24543a052d7e1ced56d41669f030396c69e715689f3555edcddf428764d0ba78265638072f7c1eef54d6146bf2323b6e6be5176a9d3353ebcbd9448162d6bc7e20503e01297a18e952d0126df4343d686de3116c9b3151e9c9db468360d4be7c22523c032b781aeb50d2106ff6363f6a6fe1136e993f5fe7c7d5488d6edab0722c5c320d257ec31a9b18c1ae3a5fcbb7c66e77a08c467f99cd27c8f24ff2a4b5a826a7c0096",
        "type": "nulldata"
      }
    },
    {
      "value": 499989.831,
      "n": 1,
      "scriptPubKey": {
        "asm": "1 9edd004f96890436967995d8c46e973d7e13b703bc66ac7f5c9473caed171233",
        "hex": "51209edd004f96890436967995d8c46e973d7e13b703bc66ac7f5c9473caed171233",
        "reqSigs": 1,
        "type": "witness_v1_scripthash",
        "addresses": [
          "3QJmnh"
        ]
      }
    }
  ],
  "blockhash": "fed18006ccdab590a9e00afae0c126c0756e5b686d02c0375b028c4c6af5cb31",
  "confirmations": 1,
  "time": 1764177489,
  "blocktime": 1764177489
}