{
  "hex": "010000000001017de42845a2632fb3f52f160ee1566eb417736d6fc4930e3d1a1d49338cd932cf0100000000feffffff02a020df63792d00002251206ee477b3bf82905ddbd0db6d3ea5346aca4657be7b7b380ee693628ef661888f00e1f50500000000fdd5046a20bb387f7400cddd31f0813a74ce9e09bbc64b9c5deda537145138ef57dd8dad5b4db004ffe046adae62d3674fb9683e39a889ccca68683518df0a21fe6484b23c7c3ea8dfc0668d8e42f3476f99481e1988a9ecea48481538ff2a01de44a4921c5c1e88bfa006edee2293270ff9287e79e8c98c8a282875589f4a61be24c4f27c3c7ee89f8026cdce02b3072fd9085e59c8e9acaa08085578bf6a419e04e4d25c1c5ec87f60c62d2ee253e7cf39e8beb928094c4ae8e8b5985f8aa17ee40432bcfcbe285f40e60d0ec273c7ef19c89e9908296c6ac8c895b87faa815ec424129cdc9e083f20866d6ea213a78f79a8fef968490c0aa8a8f5d81fcae13ea44472fcbcfe681f00a64d4e823387af5988ded948692c2a8888d5f83feac11e846452dc9cde48ffe046adae62d3674fb9683e39a889ccca68683518df0a21fe6484b23c7c3ea8dfc0668d8e42f3476f99481e1988a9ecea48481538ff2a01de44a4921c5c1e88bfa006edee2293270ff9287e79e8c98c8a282875589f4a61be24c4f27c3c7ee89f8026cdce02b3072fd9085e59c8e9acaa08085578bf6a419e04e4d25c1c5ec87f60c62d2ee253e7cf39e8beb928094c4ae8e8b5985f8aa17ee40432bcfcbe285f40e60d0ec273c7ef19c89e9908296c6ac8c895b87faa815ec424129cdc9e083f20866d6ea213a78f79a8fef968490c0aa8a8f5d81fcae13ea44472fcbcfe681f00a64d4e823387af5988ded948692c2a8888d5f83feac11e846452dc9cde48ffe046adae62d3674fb9683e39a889ccca68683518df0a21fe6484b23c7c3ea8dfc0668d8e42f3476f99481e1988a9ecea48481538ff2a01de44a4921c5c1e88bfa006edee2293270ff9287e79e8c98c8a282875589f4a61be24c4f27c3c7ee89f8026cdce02b3072fd9085e59c8e9acaa08085578bf6a419e04e4d25c1c5ec87f60c62d2ee253e7cf39e8beb928094c4ae8e8b5985f8aa17ee40432bcfcbe285f40e60d0ec273c7ef19c89e9908296c6ac8c895b87faa815ec424129cdc9e083f20866d6ea213a78f79a8fef968490c0aa8a8f5d81fcae13ea44472fcbcfe681f00a64d4e823387af5988ded948692c2a8888d5f83feac11e846452dc9cde48ffe046adae62d3674fb9683e39a889ccca68683518df0a21fe6484b23c7c3ea8dfc0668d8e42f3476f99481e1988a9ecea48481538ff2a01de44a4921c5c1e88bfa006edee2293270ff9287e79e8c98c8a282875589f4a61be24c4f27c3c7ee89f8026cdce02b3072fd9085e59c8e9acaa08085578bf6a419e04e4d25c1c5ec87f60c62d2ee253e7cf39e8beb928094c4ae8e8b5985f8aa17ee40432bcfcbe285f40e60d0ec273c7ef19c89e9908296c6ac8c895b87faa815ec424129cdc9e083f20866d6ea213a78f79a8fef968490c0aa8a8f5d81fcae13ea44472fcbcfe681f00a64d4e823387af5988ded948692c2a8888d5f83feac11e846452dc9cde48ffe046adae62d3674fb9683e39a889ccca68683518df0a21fe6484b23c7c3ea8dfc0668d8e42f3476f99481e1988a9ecea48481538ff2a01de44a4921c5c1e88bfa006edee2293270ff9287e79e8c98c8a282875589f4a61be24c4f27c3c7ee89f8026cdce02b3072fd9085e59c8e9acaa08085578bf6a419e04e4d25c1c5ec87f60c62d2ee253e7cf39e8beb928094cea3957ca753799fe8a33ded4aa259ae657dc376e60a94bbf42e8e5ed7da0158402fd7509b2e29bc50b1511e229f1c618ba9854539006a68639271d06fd3b3f93eb261b7823fff215036e10dd5c9be4580e3a2af603950059ba2c3fa670df80de1f8bdcb9e0c0d0b57514d80ed99e3726842f0178e16fe605bd9d774a1d62384c297b4d9673fc6f83a5266fef40bc266efc9ed33e3c14c91447a9d9433e49e554a115a31e7f6bb94b03f4ae16a38cf6c1466bf524362b24a185b891bf2c2ad9a5ef5e28de2729d342b6a8fa162dffedeede323b69cef5c33aca1d3af1a6719f3e19b3f104e3e88b97fb252912b68925764c4da4d19c84c43115c441bfc7d0dfcc2bd7d996b88a2549ec29ec1fc5d652b39ee6a1a827d5527498144327e1ab1b9590208b59d74a1106b22b90dca33b1537362d2241261ff5b3c8b312da7aa5a6ec968fe62f0475dfed73b73b6c23241719555f9aec12e7d79e872c239eced17c5ccbece82fbf16f4e188a503fedad603afa50bf27578b303f8e1dd8c9cb5a49be510987758db55b0ace3f26d340732d35c2117d3f62f3291774175e3ea484c3382b6e858dad460b44b8495e407df88957677dc486ced42542d31eabeff7833681271e412d8bc9c3ae717e2d26af8e91577ca1e171a369aa9c38fe1152179a30e7cc20fc3b02e01667733cb37dd3d4e4c95225aadf5f3aa17c395ed019480de66510f6671a8a46a6f214698b55ac7a69156ac0f73c9c7b79486cbfccf382d7ce4aa87c390cedaec209624cd89a62c7bf097dd4e7b2c37b40bed00191085f22b93e998200d6a817120ebe9646ad5f5c570a445debcde37671ddefee2fbad3aa96289cd47fc5fc23efded7a10bad684bb2b81547832d2cb6d63fc236c90e28a09abbedbd628bd33b9c023c8cd8be2b645f4639034a9d36db9da2522c5d1da0a7a51b6bcb26243ab5628c2fe4e58c9e9eff9d892e97b33d47ded994e883e790b30ca28b434c32089a91b2d3fb95310ead9829b5d9723558d55ba275d2069714009c3c8beb728ad7fa2220c92f5f86301e1105a30a04a136df60ba64d3f1a8faf2ba259690106de4e41d3bacacad03af38990a83cda2e4ca9a1684f2dcdfa4f35db38a513a2f7351900143a9039222e5d6e040f4d67f767080bbcf0c3692f579f2877b2fd422697bde1265e5ff3a88bd966b2b2d44fe42db84eb6a46471b5e3465cf4c9827b6a6abd13d9367c19002c26c63a20a1838f0287ee2dde58c5a1c11afbd557cd0bcccc663a47f6a20862d1a0db261cc6a6341442d31562325032ff2044b9ff41a0688fa4d15ee9e53d158e789af76e8ae93b5216ebf9bb61ce625c5455bb197cbb54c29fb791a15f9b69766a04cb466b2a2e390e42faed4e241d4a1d4ad9701cd4bf02429d008d95b343dcf6556c0f894a6de21d3990df314e4ba28781eed3cc6c2ad6b54f586b886f14b97f89b8a0bdaf07b9d67cd3a804a1d9561b30ab3eec49d939722476339d44520b32d8f2a6d84a05a7a9edf556141de2dddc6fab1453203f3f39d1b4942b1622c07bcd7c96a70897c96b81bc115747f74a5693d14d4bb00656d0f719e64d779d12e50acad3f8579887bbae00588d84c3492c326e5a682c6b05bf02d165bb02743fc64bddbe24044beda29bd022cdab194712484c1c7907f94550c28f03d7c5baded0472075db1102411f83a03effe19c72c74e73604bb3b8605af4f3dbe723dd0364fb76bdd06e34a2ca959f448751160451d4de18f808dbfd34caca9fe9da7ac111a2c3777ef3dcfa3753b44e7e641fb565763168e6b119a9ed70b66ff65f3a38d6a54654fcb3a8d510b1219733520148238c7f54f660a7e82a851b6bd6f99823d9bc9ddb0886cb15ea44e0a0cc4c60fe9e34a269d0dda5b91b0e4ab09dff29085d97f8b4cefecaeb192fdeee0f86129dbbf9373ba1a6f842d1ee39233fbfebd98f6eb1dfbcb8ed5141a6ebd95bd1808d6a6443ee4357c6df10b26f7bb0d3766b1ca62b7a60cd9b56bc8c1efd36bb43e056c233a9a9c573c0275573938dde272df167c77da4be55e96d85e9839f2ff702b525b7655b179fb95bcea275eeb9268afce0ab52de0b4590e552c546fe9b8a48644a3575f8b1aa1d19d828ef1dd4877ea26185c058741207070eef8df500b4082b34ef35b7294818f8dee6405f1dd9efcade2b4e63546fa7c631010efde0e750476a6551c8f4757a7fab047a542f11e2838b9a5ee5c216cfb637bac4d3349a02dd5da5b2a281dd09c079503bf8e37dbe3a133671c39ca8779fbbce7ab23a97ba343d3285f7b5d8915346058b66ed46e35d13baf2136c9a2388be0772052d1c61c4ae6ee1f60a3825c831a492fe4bc8f2af26e933be068ef6af32c0a3a31b526e4f1da58e4a99eac4d7667a0c4d114d76c95c72113b9db5ab610a861807343e2314195b4468a24489bee704f5af566a2df0ba821bf89144a85a72ea9a367bb83ae77498e735c2d34cc13abb7f77508c9bc08264c9fe683d98adbd4029fd86a409f85dfaad35553f141d4d8e5a8250aa1589e02861c8239a515d930fbcc5f66976db32c8c9138b63cb0e43d304ba35e89e811cec5c559e13c2ce5649501dccc826ed50f9470665453ffcaa3acdce0f04c83c1ae18d214c12df5192460fa709624faad495e71a21a63e9098eedce1a70342fa4a9baf7f544a26bb6684be6112e9ee12e7d4f3d68afe462b98d063dfc805c0dfaa5bc72f1b5fbe287663abd2a08d7654144af236a2474456702ea8c57fe75f1135e03e14b496bdfa9b7a1a24ec960221befd9f4229737a7cfa6c4e3fa8ee104b50e938aa85b49d0ee787b769a1a104ac392f34b67658fa6bfe2402cae2601ab42d213ea0ff99499da23870545581030bef158a23664447ff5b3580df0f5352d09916bb0ff2df533476f4256a5b5454f5927e93cb6390106db023882aea4b4b9c3d6c02069d272ba28837f6aabcf7021d51292dc801f1cd172379db1b0d2330507656298d1c405cecd97f6e129858a600ddee60d03a04153bb53f2c8ef265f63c46f3e8babf67559b49d56ef7bed8876ed87736c12c28b801375b98662e1782372d47c177081ce8b9e42364d8339a879e707688ce9fd91931a269067a61620eb69ad6b6cb9830b05bf2438a1582f2a3ff42d618a779ba94975d3ae515dd25cb169298ad6240028492bf66c6c1269e93cfd08ec8104a5de6931cd9c90090d4575f22f26dec083db9498e444ccc4b483d0bd04d42c8dedb2aee339443ca4824b7507404807762fdb68e48982ef73e3c1b799ab3e6d94103ffd093ee22845f2a70082657eb6d0cab5e8a5f57e6f3d1a9261afe5c46d47317790f4b4d6c717c7d7e969ca0a7d5ef33404f5968879ca0c3eff5fb5364688d95aeb7bfc3cdd8dc1d3e4a55656667698aa7adf20000000000000000000000000000000000000000000000000000000000000e1a263201fd21050030f9343a9df8c8de0084ac92a3e590b201d6cd52b10195412216e6d4d1f4a71da898ff06abb5e2099e48b34bf19e0af1c74fc709a340ff26b1386f652f2dcf765f7fd26d3f895f8f26f6ca2543542a443dc976551520cd7ad2b27a6769de204f7bc0e59d60e1c385ac097821f50a7bc38bcca086af43b6f37a2c1da049b7eb17281ac1de7a4403b10d6be1b32e81ab5ef68c783440e3d8109306c9f53178e3af44f19a0d9eaa344ac729d63c37244f37757d4ce8eb7e6c8a0f974af28e613fb808e23ca9a6413056e5a3166d43c14f42a58b921e9ad5c2f0b8360a8716393144a54efcfb9c1cfacdc7ad0230674d5729ab00ec21a4bbf298a8647948ddd938b4a2893a115eaa8efc58f6f3b6ed852b5469fce48a1ec7ca750abcd5a42197d10784ca8b60cc44d9bd62f1924ab379b2a1419dd23d2a666726c5e0debd1e40f490b42b705c2957c3b4d01e6cd731b4f2844276b4d50e67c59da5502aab3527bd0f54c40fe0e3b664ee8927bcb05439fcb8a14bc9dc2c0b5a1a0a5747e7b7376f0ee2ebe83c46a48b37ffea4b7e483bdc245a08a62e8f357478773cb8875b422a8f8369bcba081e7b8ab23c3067094b203dbbf7df96d253e42ee5cca671410452c52f98faf332ed044977e5fc9a5b887522e84edeceb90225ebe26b663626cdecf48c414a0884fd7b1b245a734a0d988d410ccdf215380e549336e36924d05a8fa4ed061713eea3f5575831ca0d092588bba393238438ab36a60bd442de17ecc57f491a0a111a6f4cde0f5cf06397b7fdd14589cf770869fa0bf71ba7b0c7e16db1a2ae1c456e070e210fc245c03467ce0198785838b736b5a8b5785982528900d60acb014150143c9938ecb5d90bdc5560ee4c0e4fa338f0715c8437585ef8f17abeb7ed4285ab88910c43ee0bc6b22f11dbb8fba8a0fe6df1e58e2b2cdd75b0c0f552d9741b86fe1e5fe5a2a69e6794da4a06a84c0449fbc021043a544df8ff539876aad7e349d8388383096c3ef9799d1fc3a44f7743bc30ba0de58c395313f33f49235432e9f9a567ab80a99d0a77f44aae5e14da3ef715293d3abba82dd9a41ce42d8339d99bea7aa0e747b8b56d2f6f8119e834ec8c1cf1685e35162e0ebc5a0e875df75940c4b40caa292bc936be9c5f7ead9200ab4ff373350993a6a77112137c53a86a14b8473cd243ae254ee35b78d12c56eea1fbee99eecc19a5565566e5b52ac13cfecfb593e1e3c35dd5590fe10baa6747864417d42c0c347621804af68e790ab9bdbbdbc94b797dedb8ef3d236a5595853cc0c8372817329ee9b470543cc8dc24dee5f9ddb2502857405a4f8c6cb3b7602a8d465597940c23cf9add2912cf4f84eb9e8d0a759946a5d008c1f6d096d60c5b2c7229bcebab100d8be4051991eff2cf8a6833d7f3c3ff1a5f4cfcf5e148706455fce00dffb02cb5fd100dfc7260d2c47304db39b2274ccf1166f7bf34911c9ea7d20fb42e2fdfad93dd6a29d5f978503fd1c5deb20488f16a7ad7e8994b81acd87d1c83724e91f14e228effcc3741b51d2f978fe1b73bead9cf931ff459d316d635a430f65817f1622fbc283f7d3d67b1b500b0aeeb24271d615bea042f42469795543dce3666c2f5113a20a7747a04209cddb9958235d6327fefbe92526ca817462f2aaf46ca8824311f686f08da24bbf95392c64e4c117e3d230c3b0d08a5c3cbc3b44ee7f8e7eefe15e069435d643010ac759ce93e3c85e1738099b6fb0f4488cdd534acc3b9bce6054dbf3d5b9de3c1cde521e777a3cbb774edd52822c42c076834b25db43264ab50e8c678fe7ec9953caa74f4743ba8ef7d0157fde120b41bbc7466d4146c4a68000000",
  "txid": "6242d706ca04481a87f779493a7a9ae55e5eb4ec9b7a60a88385176e22d32c3c",
  "hash": "7c65d8a9bf2bd51d80b7203e0fe2f2539e8809a52b44acb079f96b482be71c89",
  "size": 5085,
  "vsize": 2278,
  "version": 1,
  "locktime": 104,
  "vin": [
    {
      "txid": "cf32d98c33491d1a3d0e93c46f6d7317b46e56e10e162ff5b32f63a24528e47d",
      "vout": 1,
      "scriptSig": {
        "asm": "",
        "hex": ""
      },
      "txinwitness": [
        "b2e29bc50b1511e229f1c618ba9854539006a68639271d06fd3b3f93eb261b7823fff215036e10dd5c9be4580e3a2af603950059ba2c3fa670df80de1f8bdcb9e0c0d0b57514d80ed99e3726842f0178e16fe605bd9d774a1d62384c297b4d9673fc6f83a5266fef40bc266efc9ed33e3c14c91447a9d9433e49e554a115a31e7f6bb94b03f4ae16a38cf6c1466bf524362b24a185b891bf2c2ad9a5ef5e28de2729d342b6a8fa162dffedeede323b69cef5c33aca1d3af1a6719f3e19b3f104e3e88b97fb252912b68925764c4da4d19c84c43115c441bfc7d0dfcc2bd7d996b88a2549ec29ec1fc5d652b39ee6a1a827d5527498144327e1ab1b9590208b59d74a1106b22b90dca33b1537362d2241261ff5b3c8b312da7aa5a6ec968fe62f0475dfed73b73b6c23241719555f9aec12e7d79e872c239eced17c5ccbece82fbf16f4e188a503fedad603afa50bf27578b303f8e1dd8c9cb5a49be510987758db55b0ace3f26d340732d35c2117d3f62f3291774175e3ea484c3382b6e858dad460b44b8495e407df88957677dc486ced42542d31eabeff7833681271e412d8bc9c3ae717e2d26af8e91577ca1e171a369aa9c38fe1152179a30e7cc20fc3b02e01667733cb37dd3d4e4c95225aadf5f3aa17c395ed019480de66510f6671a8a46a6f214698b55ac7a69156ac0f73c9c7b79486cbfccf382d7ce4aa87c390cedaec209624cd89a62c7bf097dd4e7b2c37b40bed00191085f22b93e998200d6a817120ebe9646ad5f5c570a445debcde37671ddefee2fbad3aa96289cd47fc5fc23efded7a10bad684bb2b81547832d2cb6d63fc236c90e28a09abbedbd628bd33b9c023c8cd8be2b645f4639034a9d36db9da2522c5d1da0a7a51b6bcb26243ab5628c2fe4e58c9e9eff9d892e97b33d47ded994e883e790b30ca28b434c32089a91b2d3fb95310ead9829b5d9723558d55ba275d2069714009c3c8beb728ad7fa2220c92f5f86301e1105a30a04a136df60ba64d3f1a8faf2ba259690106de4e41d3bacacad03af38990a83cda2e4ca9a1684f2dcdfa4f35db38a513a2f7351900143a9039222e5d6e040f4d67f767080bbcf0c3692f579f2877b2fd422697bde1265e5ff3a88bd966b2b2d44fe42db84eb6a46471b5e3465cf4c9827b6a6abd13d9367c19002c26c63a20a1838f0287ee2dde58c5a1c11afbd557cd0bcccc663a47f6a20862d1a0db261cc6a6341442d31562325032ff2044b9ff41a0688fa4d15ee9e53d158e789af76e8ae93b5216ebf9bb61ce625c5455bb197cbb54c29fb791a15f9b69766a04cb466b2a2e390e42faed4e241d4a1d4ad9701cd4bf02429d008d95b343dcf6556c0f894a6de21d3990df314e4ba28781eed3cc6c2ad6b54f586b886f14b97f89b8a0bdaf07b9d67cd3a804a1d9561b30ab3eec49d939722476339d44520b32d8f2a6d84a05a7a9edf556141de2dddc6fab1453203f3f39d1b4942b1622c07bcd7c96a70897c96b81bc115747f74a5693d14d4bb00656d0f719e64d779d12e50acad3f8579887bbae00588d84c3492c326e5a682c6b05bf02d165bb02743fc64bddbe24044beda29bd022cdab194712484c1c7907f94550c28f03d7c5baded0472075db1102411f83a03effe19c72c74e73604bb3b8605af4f3dbe723dd0364fb76bdd06e34a2ca959f448751160451d4de18f808dbfd34caca9fe9da7ac111a2c3777ef3dcfa3753b44e7e641fb565763168e6b119a9ed70b66ff65f3a38d6a54654fcb3a8d510b1219733520148238c7f54f660a7e82a851b6bd6f99823d9bc9ddb0886cb15ea44e0a0cc4c60fe9e34a269d0dda5b91b0e4ab09dff29085d97f8b4cefecaeb192fdeee0f86129dbbf9373ba1a6f842d1ee39233fbfebd98f6eb1dfbcb8ed5141a6ebd95bd1808d6a6443ee4357c6df10b26f7bb0d3766b1ca62b7a60cd9b56bc8c1efd36bb43e056c233a9a9c573c0275573938dde272df167c77da4be55e96d85e9839f2ff702b525b7655b179fb95bcea275eeb9268afce0ab52de0b4590e552c546fe9b8a48644a3575f8b1aa1d19d828ef1dd4877ea26185c058741207070eef8df500b4082b34ef35b7294818f8dee6405f1dd9efcade2b4e63546fa7c631010efde0e750476a6551c8f4757a7fab047a542f11e2838b9a5ee5c216cfb637bac4d3349a02dd5da5b2a281dd09c079503bf8e37dbe3a133671c39ca8779fbbce7ab23a97ba343d3285f7b5d8915346058b66ed46e35d13baf2136c9a2388be0772052d1c61c4ae6ee1f60a3825c831a492fe4bc8f2af26e933be068ef6af32c0a3a31b526e4f1da58e4a99eac4d7667a0c4d114d76c95c72113b9db5ab610a861807343e2314195b4468a24489bee704f5af566a2df0ba821bf89144a85a72ea9a367bb83ae77498e735c2d34cc13abb7f77508c9bc08264c9fe683d98adbd4029fd86a409f85dfaad35553f141d4d8e5a8250aa1589e02861c8239a515d930fbcc5f66976db32c8c9138b63cb0e43d304ba35e89e811cec5c559e13c2ce5649501dccc826ed50f9470665453ffcaa3acdce0f04c83c1ae18d214c12df5192460fa709624faad495e71a21a63e9098eedce1a70342fa4a9baf7f544a26bb6684be6112e9ee12e7d4f3d68afe462b98d063dfc805c0dfaa5bc72f1b5fbe287663abd2a08d7654144af236a2474456702ea8c57fe75f1135e03e14b496bdfa9b7a1a24ec960221befd9f4229737a7cfa6c4e3fa8ee104b50e938aa85b49d0ee787b769a1a104ac392f34b67658fa6bfe2402cae2601ab42d213ea0ff99499da23870545581030bef158a23664447ff5b3580df0f5352d09916bb0ff2df533476f4256a5b5454f5927e93cb6390106db023882aea4b4b9c3d6c02069d272ba28837f6aabcf7021d51292dc801f1cd172379db1b0d2330507656298d1c405cecd97f6e129858a600ddee60d03a04153bb53f2c8ef265f63c46f3e8babf67559b49d56ef7bed8876ed87736c12c28b801375b98662e1782372d47c177081ce8b9e42364d8339a879e707688ce9fd91931a269067a61620eb69ad6b6cb9830b05bf2438a1582f2a3ff42d618a779ba94975d3ae515dd25cb169298ad6240028492bf66c6c1269e93cfd08ec8104a5de6931cd9c90090d4575f22f26dec083db9498e444ccc4b483d0bd04d42c8dedb2aee339443ca4824b7507404807762fdb68e48982ef73e3c1b799ab3e6d94103ffd093ee22845f2a70082657eb6d0cab5e8a5f57e6f3d1a9261afe5c46d47317790f4b4d6c717c7d7e969ca0a7d5ef33404f5968879ca0c3eff5fb5364688d95aeb7bfc3cdd8dc1d3e4a55656667698aa7adf20000000000000000000000000000000000000000000000000000000000000e1a263201",
        "0030f9343a9df8c8de0084ac92a3e590b201d6cd52b10195412216e6d4d1f4a71da898ff06abb5e2099e48b34bf19e0af1c74fc709a340ff26b1386f652f2dcf765f7fd26d3f895f8f26f6ca2543542a443dc976551520cd7ad2b27a6769de204f7bc0e59d60e1c385ac097821f50a7bc38bcca086af43b6f37a2c1da049b7eb17281ac1de7a4403b10d6be1b32e81ab5ef68c783440e3d8109306c9f53178e3af44f19a0d9eaa344ac729d63c37244f37757d4ce8eb7e6c8a0f974af28e613fb808e23ca9a6413056e5a3166d43c14f42a58b921e9ad5c2f0b8360a8716393144a54efcfb9c1cfacdc7ad0230674d5729ab00ec21a4bbf298a8647948ddd938b4a2893a115eaa8efc58f6f3b6ed852b5469fce48a1ec7ca750abcd5a42197d10784ca8b60cc44d9bd62f1924ab379b2a1419dd23d2a666726c5e0debd1e40f490b42b705c2957c3b4d01e6cd731b4f2844276b4d50e67c59da5502aab3527bd0f54c40fe0e3b664ee8927bcb05439fcb8a14bc9dc2c0b5a1a0a5747e7b7376f0ee2ebe83c46a48b37ffea4b7e483bdc245a08a62e8f357478773cb8875b422a8f8369bcba081e7b8ab23c3067094b203dbbf7df96d253e42ee5cca671410452c52f98faf332ed044977e5fc9a5b887522e84edeceb90225ebe26b663626cdecf48c414a0884fd7b1b245a734a0d988d410ccdf215380e549336e36924d05a8fa4ed061713eea3f5575831ca0d092588bba393238438ab36a60bd442de17ecc57f491a0a111a6f4cde0f5cf06397b7fdd14589cf770869fa0bf71ba7b0c7e16db1a2ae1c456e070e210fc245c03467ce0198785838b736b5a8b5785982528900d60acb014150143c9938ecb5d90bdc5560ee4c0e4fa338f0715c8437585ef8f17abeb7ed4285ab88910c43ee0bc6b22f11dbb8fba8a0fe6df1e58e2b2cdd75b0c0f552d9741b86fe1e5fe5a2a69e6794da4a06a84c0449fbc021043a544df8ff539876aad7e349d8388383096c3ef9799d1fc3a44f7743bc30ba0de58c395313f33f49235432e9f9a567ab80a99d0a77f44aae5e14da3ef715293d3abba82dd9a41ce42d8339d99bea7aa0e747b8b56d2f6f8119e834ec8c1cf1685e35162e0ebc5a0e875df75940c4b40caa292bc936be9c5f7ead9200ab4ff373350993a6a77112137c53a86a14b8473cd243ae254ee35b78d12c56eea1fbee99eecc19a5565566e5b52ac13cfecfb593e1e3c35dd5590fe10baa6747864417d42c0c347621804af68e790ab9bdbbdbc94b797dedb8ef3d236a5595853cc0c8372817329ee9b470543cc8dc24dee5f9ddb2502857405a4f8c6cb3b7602a8d465597940c23cf9add2912cf4f84eb9e8d0a759946a5d008c1f6d096d60c5b2c7229bcebab100d8be4051991eff2cf8a6833d7f3c3ff1a5f4cfcf5e148706455fce00dffb02cb5fd100dfc7260d2c47304db39b2274ccf1166f7bf34911c9ea7d20fb42e2fdfad93dd6a29d5f978503fd1c5deb20488f16a7ad7e8994b81acd87d1c83724e91f14e228effcc3741b51d2f978fe1b73bead9cf931ff459d316d635a430f65817f1622fbc283f7d3d67b1b500b0aeeb24271d615bea042f42469795543dce3666c2f5113a20a7747a04209cddb9958235d6327fefbe92526ca817462f2aaf46ca8824311f686f08da24bbf95392c64e4c117e3d230c3b0d08a5c3cbc3b44ee7f8e7eefe15e069435d643010ac759ce93e3c85e1738099b6fb0f4488cdd534acc3b9bce6054dbf3d5b9de3c1cde521e777a3cbb774edd52822c42c076834b25db43264ab50e8c678fe7ec9953caa74f4743ba8ef7d0157fde120b41bbc7466d4146c4a"
      ],
      "sequence": 4294967294
    }
  ],
  "vout": [
    {
      "value": 499993.8986,
      "n": 0,
      "scriptPubKey": {
        "asm": "1 6ee477b3bf82905ddbd0db6d3ea5346aca4657be7b7b380ee693628ef661888f",
        "hex": "51206ee477b3bf82905ddbd0db6d3ea5346aca4657be7b7b380ee693628ef661888f",
        "reqSigs": 1,
        "type": "witness_v1_scripthash",
        "addresses": [
          "3QJmnh"
        ]
      }
    },
    {
      "value": 1.0,
      "n": 1,
      "scriptPubKey": {
        "asm": "OP_RETURN bb387f7400cddd31f0813a74ce9e09bbc64b9c5deda537145138ef57dd8dad5b ffe046adae62d3674fb9683e39a889ccca68683518df0a21fe6484b23c7c3ea8dfc0668d8e42f3476f99481e1988a9ecea48481538ff2a01de44a4921c5c1e88bfa006edee2293270ff9287e79e8c98c8a282875589f4a61be24c4f27c3c7ee89f8026cdce02b3072fd9085e59c8e9acaa08085578bf6a419e04e4d25c1c5ec87f60c62d2ee253e7cf39e8beb928094c4ae8e8b5985f8aa17ee40432bcfcbe285f40e60d0ec273c7ef19c89e9908296c6ac8c895b87faa815ec424129cdc9e083f20866d6ea213a78f79a8fef968490c0aa8a8f5d81fcae13ea44472fcbcfe681f00a64d4e823387af5988ded948692c2a8888d5f83feac11e846452dc9cde48ffe046adae62d3674fb9683e39a889ccca68683518df0a21fe6484b23c7c3ea8dfc0668d8e42f3476f99481e1988a9ecea48481538ff2a01de44a4921c5c1e88bfa006edee2293270ff9287e79e8c98c8a282875589f4a61be24c4f27c3c7ee89f8026cdce02b3072fd9085e59c8e9acaa08085578bf6a419e04e4d25c1c5ec87f60c62d2ee253e7cf39e8beb928094c4ae8e8b5985f8aa17ee40432bcfcbe285f40e60d0ec273c7ef19c89e9908296c6ac8c895b87faa815ec424129cdc9e083f20866d6ea213a78f79a8fef968490c0aa8a8f5d81fcae13ea44472fcbcfe681f00a64d4e823387af5988ded948692c2a8888d5f83feac11e846452dc9cde48ffe046adae62d3674fb9683e39a889ccca68683518df0a21fe6484b23c7c3ea8dfc0668d8e42f3476f99481e1988a9ecea48481538ff2a01de44a4921c5c1e88bfa006edee2293270ff9287e79e8c98c8a282875589f4a61be24c4f27c3c7ee89f8026cdce02b3072fd9085e59c8e9acaa08085578bf6a419e04e4d25c1c5ec87f60c62d2ee253e7cf39e8beb928094c4ae8e8b5985f8aa17ee40432bcfcbe285f40e60d0ec273c7ef19c89e9908296c6ac8c895b87faa815ec424129cdc9e083f20866d6ea213a78f79a8fef968490c0aa8a8f5d81fcae13ea44472fcbcfe681f00a64d4e823387af5988ded948692c2a8888d5f83feac11e846452dc9cde48ffe046adae62d3674fb9683e39a889ccca68683518df0a21fe6484b23c7c3ea8dfc0668d8e42f3476f99481e1988a9ecea48481538ff2a01de44a4921c5c1e88bfa006edee2293270ff9287e79e8c98c8a282875589f4a61be24c4f27c3c7ee89f8026cdce02b3072fd9085e59c8e9acaa08085578bf6a419e04e4d25c1c5ec87f60c62d2ee253e7cf39e8beb928094c4ae8e8b5985f8aa17ee40432bcfcbe285f40e60d0ec273c7ef19c89e9908296c6ac8c895b87faa815ec424129cdc9e083f20866d6ea213a78f79a8fef968490c0aa8a8f5d81fcae13ea44472fcbcfe681f00a64d4e823387af5988ded948692c2a8888d5f83feac11e846452dc9cde48ffe046adae62d3674fb9683e39a889ccca68683518df0a21fe6484b23c7c3ea8dfc0668d8e42f3476f99481e1988a9ecea48481538ff2a01de44a4921c5c1e88bfa006edee2293270ff9287e79e8c98c8a282875589f4a61be24c4f27c3c7ee89f8026cdce02b3072fd9085e59c8e9acaa08085578bf6a419e04e4d25c1c5ec87f60c62d2ee253e7cf39e8beb928094cea3957ca753799fe8a33ded4aa259ae657dc376e60a94bbf42e8e5ed7da01584",
        "hex": "6a20bb387f7400cddd31f0813a74ce9e09bbc64b9c5deda537145138ef57dd8dad5b4db004ffe046adae62d3674fb9683e39a889ccca68683518df0a21fe6484b23c7c3ea8dfc0668d8e42f3476f99481e1988a9ecea48481538ff2a01de44a4921c5c1e88bfa006edee2293270ff9287e79e8c98c8a282875589f4a61be24c4f27c3c7ee89f8026cdce02b3072fd9085e59c8e9acaa08085578bf6a419e04e4d25c1c5ec87f60c62d2ee253e7cf39e8beb928094c4ae8e8b5985f8aa17ee40432bcfcbe285f40e60d0ec273c7ef19c89e9908296c6ac8c895b87faa815ec424129cdc9e083f20866d6ea213a78f79a8fef968490c0aa8a8f5d81fcae13ea44472fcbcfe681f00a64d4e823387af5988ded948692c2a8888d5f83feac11e846452dc9cde48ffe046adae62d3674fb9683e39a889ccca68683518df0a21fe6484b23c7c3ea8dfc0668d8e42f3476f99481e1988a9ecea48481538ff2a01de44a4921c5c1e88bfa006edee2293270ff9287e79e8c98c8a282875589f4a61be24c4f27c3c7ee89f8026cdce02b3072fd9085e59c8e9acaa08085578bf6a419e04e4d25c1c5ec87f60c62d2ee253e7cf39e8beb928094c4ae8e8b5985f8aa17ee40432bcfcbe285f40e60d0ec273c7ef19c89e9908296c6ac8c895b87faa815ec424129cdc9e083f20866d6ea213a78f79a8fef968490c0aa8a8f5d81fcae13ea44472fcbcfe681f00a64d4e823387af5988ded948692c2a8888d5f83feac11e846452dc9cde48ffe046adae62d3674fb9683e39a889ccca68683518df0a21fe6484b23c7c3ea8dfc0668d8e42f3476f99481e1988a9ecea48481538ff2a01de44a4921c5c1e88bfa006edee2293270ff9287e79e8c98c8a282875589f4a61be24c4f27c3c7ee89f8026cdce02b3072fd9085e59c8e9acaa08085578bf6a419e04e4d25c1c5ec87f60c62d2ee253e7cf39e8beb928094c4ae8e8b5985f8aa17ee40432bcfcbe285f40e60d0ec273c7ef19c89e9908296c6ac8c895b87faa815ec424129cdc9e083f20866d6ea213a78f79a8fef968490c0aa8a8f5d81fcae13ea44472fcbcfe681f00a64d4e823387af5988ded948692c2a8888d5f83feac11e846452dc9cde48ffe046adae62d3674fb9683e39a889ccca68683518df0a21fe6484b23c7c3ea8dfc0668d8e42f3476f99481e1988a9ecea48481538ff2a01de44a4921c5c1e88bfa006edee2293270ff9287e79e8c98c8a282875589f4a61be24c4f27c3c7ee89f8026cdce02b3072fd9085e59c8e9acaa08085578bf6a419e04e4d25c1c5ec87f60c62d2ee253e7cf39e8beb928094c4ae8e8b5985f8aa17ee40432bcfcbe285f40e60d0ec273c7ef19c89e9908296c6ac8c895b87faa815ec424129cdc9e083f20866d6ea213a78f79a8fef968490c0aa8a8f5d81fcae13ea44472fcbcfe681f00a64d4e823387af5988ded948692c2a8888d5f83feac11e846452dc9cde48ffe046adae62d3674fb9683e39a889ccca68683518df0a21fe6484b23c7c3ea8dfc0668d8e42f3476f99481e1988a9ecea48481538ff2a01de44a4921c5c1e88bfa006edee2293270ff9287e79e8c98c8a282875589f4a61be24c4f27c3c7ee89f8026cdce02b3072fd9085e59c8e9acaa08085578bf6a419e04e4d25c1c5ec87f60c62d2ee253e7cf39e8beb928094cea3957ca753799fe8a33ded4aa259ae657dc376e60a94bbf42e8e5ed7da01584",
        "type": "nulldata"
      }
    }
  ],
  "blockhash": "32a2d379a33ec88ae1cb3a8a1a44f2d12b76aebf574ecf7ac16b289397ed6cd9",
  "confirmations": 1,
  "time": 1764176557,
  "blocktime": 1764176557
}