{
  "hex": "010000000001012444ff3d8e05d370ac068f19b3ef1f02a8a0bd8f4bacbc3c16a0d449bbfacf0b0000000000feffffff0200e1f50500000000fdd5046a20c520510d9c89c375b7edc6568d0320979a7a1b3f6e0fbde1be12ecd5e27145a34db0041dabd6d97a211d61fd0f2f772aafa5ff438746aa8074d3b4575af0f744f6fbbe3d8bf6f95a013d41dd2f0f570a8f85df63a7668aa054f394777ad0d764d6db9e5deb96993a615d21bd4f6f376aefe5bf03c706eac03493f4171ab0b704b6bbfe7dcbb6b91a417d019d6f4f174acfc59f23e726cae014b3d4373a909724969bde9d2b5659faa19de17d8faff7aa2f257fc307c62a00f45334d7da7077c4767b3ebd0b7679da81bdc15daf8fd78a0f055fe327e60a20d47314f7fa5057e4565b1edd6b1619bae1dda13dcfefb7ea6f653f8347866a40b41374979a303784363b7efd4b36399ac1fd811defcf97ca4f451fa367a64a60943354b7ba1017a4161b5e1dabd6d97a211d61fd0f2f772aafa5ff438746aa8074d3b4575af0f744f6fbbe3d8bf6f95a013d41dd2f0f570a8f85df63a7668aa054f394777ad0d764d6db9e5deb96993a615d21bd4f6f376aefe5bf03c706eac03493f4171ab0b704b6bbfe7dcbb6b91a417d019d6f4f174acfc59f23e726cae014b3d4373a909724969bde9d2b5659faa19de17d8faff7aa2f257fc307c62a00f45334d7da7077c4767b3ebd0b7679da81bdc15daf8fd78a0f055fe327e60a20d47314f7fa5057e4565b1edd6b1619bae1dda13dcfefb7ea6f653f8347866a40b41374979a303784363b7efd4b36399ac1fd811defcf97ca4f451fa367a64a60943354b7ba1017a4161b5e1dabd6d97a211d61fd0f2f772aafa5ff438746aa8074d3b4575af0f744f6fbbe3d8bf6f95a013d41dd2f0f570a8f85df63a7668aa054f394777ad0d764d6db9e5deb96993a615d21bd4f6f376aefe5bf03c706eac03493f4171ab0b704b6bbfe7dcbb6b91a417d019d6f4f174acfc59f23e726cae014b3d4373a909724969bde9d2b5659faa19de17d8faff7aa2f257fc307c62a00f45334d7da7077c4767b3ebd0b7679da81bdc15daf8fd78a0f055fe327e60a20d47314f7fa5057e4565b1edd6b1619bae1dda13dcfefb7ea6f653f8347866a40b41374979a303784363b7efd4b36399ac1fd811defcf97ca4f451fa367a64a60943354b7ba1017a4161b5e1dabd6d97a211d61fd0f2f772aafa5ff438746aa8074d3b4575af0f744f6fbbe3d8bf6f95a013d41dd2f0f570a8f85df63a7668aa054f394777ad0d764d6db9e5deb96993a615d21bd4f6f376aefe5bf03c706eac03493f4171ab0b704b6bbfe7dcbb6b91a417d019d6f4f174acfc59f23e726cae014b3d4373a909724969bde9d2b5659faa19de17d8faff7aa2f257fc307c62a00f45334d7da7077c4767b3ebd0b7679da81bdc15daf8fd78a0f055fe327e60a20d47314f7fa5057e4565b1edd6b1619bae1dda13dcfefb7ea6f653f8347866a40b41374979a303784363b7efd4b36399ac1fd811defcf97ca4f451fa367a64a60943354b7ba1017a4161b5e1dabd6d97a211d61fd0f2f772aafa5ff438746aa8074d3b4575af0f744f6fbbe3d8bf6f95a013d41dd2f0f570a8f85df63a7668aa054f394777ad0d764d6db9e5deb96993a615d21bd4f6f376aefe5bf03c706eac03493f4171ab0b704b6bbfe7dcbb6b91a417d019d6f4f174acfc59f23e726cae014b3d4373a909724969bde9d2b5659faa19de17d8faff7aa2f257f81c1b2650bae3cceb467b59da5d7ca1e1561db2b174435b033b6a07c04693c4ec0cc030f792d0000225120e15307659a7545d8bf3895bafd67564c08718fc718dc7082312af5d5aa0b3c1302fd750987c3ea67eed5c67d2674ebb5a80d565b0dea9992f96f7e5cffe967871d4c9d56c1884b1c2e14853afd83fa6a6c9682ffb80cce9c2e39f810b0b25150899835ee54ca116fec3c9c6b484e92e3db34d12860adb20f7286765f627470762c071b1d44c66a8c3f6cc2669af865637544d75099fe59ca3690285959bb52fece36a13b6ecff08a10f4509ac8b132ab33534376e85d256acf977505ec0b52dbefc0e639e92a62db3a9854ff28a96c2979bbeb8112fb93b41e3a80cb93c6ef84f4f374c68f3fdcd9871fc88b639140f369f6e2f2978ed71a4f033e3b4c57d8340b1eaf87c33c5592275741e369159df20e7ad2e1bb6738f0063e4f470fd313a7c9ca07c4e54deba3e504b14ec8359878c0320cde70a7c49d570709d3961f2524475a68c6b90b9c0690ef16858c9ea82b1353f4a615e12effad4820ae0acaefe78368e72aea32a8856f6d21898c4c48a4c88945eab7f52a56b96b3cfb8405ad67c702ed40f12cd2babcaf21c4b7751e57b39f6b8002e6f004a41579dbb2404e03dd244547e2de63a877714b357808a4dfdd33f5eca13212b34281eb781fed13018a98e15016774e0920738ad92ccb503f3c26343d13ea9646dd878a204d595f411706c007246df6c7e12cbef19d42e4f104cec25898760c231757dab8f6e7bdb4a6e7a05e6a5d30c46c3557e22ce9f6823facf43960381711f09cca3f79ff7a939ad0fd6d95bd0e955d36c9e6f45e030ebfb2d2f10e99eab24b766f0c7352248d3cddf682ce436476799b285012461acee937cc7ecfb2582bd5f12ea1994932bac6b6359379401bf0d4a198d0fa2850cb1e71236babc971233be4bf82db23645623bbf9bf3a3726721c893c96d1902d5877ea907bdf732e2f3ed74c367268108742bb74aa28ef2e6ce0e68350c5b4468a1bab0452727a3165d88adfdacf155dd72df3ca2e7d427233df7c45f17e43c6170ab775b3bdfcda0740dbc6422aaa59bd968b91674f936b56629c79e43b1c8361ffc5f925142416111abcbf8132c3e50f4a9a66afac95f2b42a717ad891cd8db989bca12454a86ffb98717b525a422b70adb4248d2043e8b4d0a71e754302da484c0202e47aaeb37c5aefa4f26fefa81bc7a36b991082970b381a6390b81bdce7003f4367231fa17bfd2fa4cb7ae5a56197de6b84541a4624dd9815344b7bc08e0d22d5e9d7f7b426389e7587342756f94950b9c4ff07e8a48d89e185735ce3c920526414a64973da1123baa4850e3705212b1cf50e1ed266c744ae58d2adfa316b78179705833ae938a411ad6d54e17a45022970f15ac6479dce4e54253b817a298fca81757bd31403dfec34284c5a2427f0496baf0cd6eb7d0dd55ff63f59ee3273d48685ac3705a037b6babadecd24a6dcac65302b82a2192450c46f351f7e5f30244652020e527253d838f731c44bd056658ad92da4393c4f2172f9ad8dd80890d81a19f1de6d99eb687460a9fbe082d7f48ebfe80e4ab47ccb1f5590fb8bc634dc4c7c165cdbf353ec9d7ad51614866685fa9072e61177a570460fe5a3fbbee5a9c31779e4f819d260bc1176bb67ee4411322398d3515d7ec7505c91ef0dc6037ad31d0aefabf00850dee48b99805f3353630f6e4e8a046cf781393f32f802e91f8f78f7093770ab7fabe2db686665ec5c3f5949ec0de88a3306173ad447b130735b2b73b252bcf35299133990e98c080216229db5be3c8d0d646fc330cf6b841509ca1269cb5c6587a0e8ee7185212dd4f43ce673cccdf98a1d37d006f7705ba008e79cfbf430ac76887731ed07f0ef246aa7b7adf72c14818db8b5e559d93da75279b6323e29814663579d9526b592fd74d4f85d155ec629434fb1ad02abf005e03a7d3d48ca543648fee1e5ce3fda39af537a77c7333684a14cf33d2f63ed89c59b6f10f6bad36d156a1840bb13ec4e5d5ae4cf74b53d459a7a86fc419fe64d5a61424610c983768d2eea8a206bfd4e5b8c86dbc7445cf1d3c01d56ff02ef274255bf6b6d2de67d63361c218cbe0eeb795dba570491e1dd221bdb7d08143926b4529a54f802e09a9df9b591d26502ba26d1281262bc3995e005bece48d55064653ebb8874b1ecc762507ee51f82454f3c7ffd7ca03ba699bdda646bafc95ebf4d8c4c1863527a2fa5cb69f934649bad591bb89e8d7a9e2d585d3ed626285f5b41ea5d7e30c808cd8c654743b1f9e8c01debab0b1678e4b48f376319d299710a7ca7242334028a620ff005a49bfe6ca5ed791ac1b37aa9105b07a50a866aa0882586d9af51b1bcdc0a700848ad64b813bc33bf6e28f8369a927b45c04e59bb9975a0c5bc85505ac7602f4e0cbc4e9a4e666f749a4980e24247a139caf2fc8692e0e1d22614c840af0d5ca717f846d0929ee564fb893e0b9071b7fb0e7d79aeba2208e5626522c45774b3f76e4142092591749c53029f32566566f091509e51d698f12f4e0f91b0f5c5de706d11ab188dbf492edfbd59a89e1cc36a684845c65822553268ad6ed68148defb25e1ab1b87cc9e010cc1a65e8ac9777d8ee811961e6c9b892c27d26430bab9c44a6bba3aa59518920183436fc98b226413e2a469f049084dc4c1b43beff4b2ec08d6f90c596d8735cb9cefdd77db2d416c8600148b4eb316a141f00b820b4deff1adb324170b491b50ab7aacdaa279f760043e1f69fa8bbb697f2162c4c46f0c247b254f5d538537c058590455f4105c8c4210b6566b2e1cc81d7bfbf44625c3098455618cc8aa0f676d3187ea348f450930f65371dd202c1dc2bba9202be49320b5d24cd9ddc92501a6fc6bd963b796ac3db019e8716adaf3aaae57306166df0ae624a7b33747be090f8e904a7a3e7d6af532a6a341e97505ae1c36e219c5488f5e3c0bf9f0ab3ed91937c6e30e58b6a4347bee5d0417d36cbaf02f5140261547d33595832ecdd950263ca85fcce8a2c1db5957d44a34aeffbe0d4ae1e03c01fdac5f7cd0d2e02a6009090f647c1b24cf7b65a88da126660217b188756ca0ede67d25e4c193c9fe37dce1826976dd48558abaa6b817c119f204182899248c5b16602a447a2b32b57361609d4b2264aadf1186977edd3f3dabe67ef1d01fe6a1d9a13fd0ae572edab1813fed7090b83069bc53899cbdca40d901237a2dacaadcf3a468bf25aca9c9c26c8db7ae7e27a1ee7d544964ef04ff34252980b7cc5c01e38a3093d674de274189e2bc85cd2497f0a1774a6f459362b54a5fa5d78011897b2f0604755f95a062286d199459e3d17640ab4cd09d0845e1e04a6f64c0033a4bdb020d434c0206333544486b7174757b898dbcbdbfe5fafb0a1e2b373b4d7a9aadb9bdc4cce3f5030610123b43484e506e91d3dadc050e11162e42565a90989ca5d2f00000000000000000000000000000000000001322303e01fd2105000f2071cc6b9ed2175360d202440a4ca4b84d56391f0e516ff9cb25693927f3a95a39f8a3cb736478bffa36a486a2833be8eddf9455d22ea20e8486764777f113e1ef25ca2a11bd8897dcffcc19485cd1431ba9ad68147979a8c41b9c258f6a915747daa6f4c23df2650d4ce2c05c840443a697e6daa68ab26236be1085af570ea67579f6d4c4ab98f1d31533e85646f80c17e901532d5e6292bd8151e6235d33a7391349589f0a2899c7113413ef57fbd23fc3ee7372fce5973916fae6413b0a45fa828b70744acd27a0b66b3f2d7baf1882ff7de0de9dbd914a5785bcb4582d59b7d81fddee6ce5703fdd4bd74ea7532c45101bd2b2832432fe69a49f9400e772113cf033cde447e5b6bb6cb98e18fe2949a813896e724c43fef3cd3e3415f7d85d8eeca3274a3233b5c37b3ddce6bca3dfb21fc5cb0e647947446a95a01f0f142b5fc5c7916a2422e95bf442ce5f13ec76adc28c41c7e350a1b5d2d475b4569abee01a6fad530f105b15f9b64f422a6b3dc2861f39d6e2bf662a74fda648b1d7f03823e08177225d5082cc6d45aa536971273c4c8e05bd2907da02f8b54ed9a96be618645e54fa97fcc8a37ec8a822714ab23d0e33f348e80f390ea04dced38e81120dc43f39abfae4398162c81c126a697faa27842ac09f02ed6cce0db895205722b567f55c6017bea70f7a3aaaeb1c37a0cd276ec0cc5c9c98fd303e3a3f51c0ee2a075b8a5703d3a624a12fc9e1fee1bcc54fbd00337cd272becd138cf41cf7d4c0a02c28bd88280208a83b467dbcc4247af9f33e6d1b08d51b20a648f6dfc5b3b44d9856ff4d4e19d19185e52718b1190aa1fc57d5d0405a8cfc626afb66fb12185e4c7874a3cf0e60e13f1fddb2d5d2d8a59dc0a30b12f02e9e6ed5a14b80fc564c42eff2e97cf87111cfea4520ebb019050998902ecce6df0b3c75263e47323fc0f62d706c0663f33df77e943cbd8bcd4b1aa7ac96e1eee5d01cd41bd1bf267c92ec3aa1e1f7308e790e029b5319fd3df1f228a248fc08b42159f18b894ea4ce7e924ca5cb5d5e281c2ca2e1e372be70d90eb64095fe5abe28013d2c2790cee7165418dc78353c43621232ebff5d2a3b50bfd8dc587b15b9a2f7643aec13d8872550f0e38332e94be2a98955a100173f2c0b86694b1b683b023bf5e6a181c6cb8fa58874eced8e224e4aa42d4cb622da3faae65465013631b495959124e4046d74ec07e9808054f92c328b18e3362e2b4cbc53e1734ecebed4017c69e3c5e3e24a83a176638170460728b38f6052d1d42154a51af7407a8155738d1bba5c7a70daf51b967c7fd6b479fa8c3d45d62c2b83c40faf1ac84d57fa03edff755079e057f49085e3794d4e3f6112d217f441100af5ee5cb94db88344231c7afcbced08a7669aec68c732fcdb434541ec6aedd20c7fdd3e3c5e508a04e4e8c4ec9237b8345f3ceccc54659b38303bca9941748d561095f803b5fcd1c2d3862c393bf89fe7c80ba179d5f46a784823025dc742d4df5a5af9e231ab480cd1fb4bfd00aa7594e6b7ba08fc6e1949f094613fa9bf8cf014a23f0230bc551ce871effed4f6bdd1f983afe1b1ed6ec40b454760199cf8e9048e16d1095e58fe4f57dda75fb2d1824c721924d6c7a4cd262cb2f120b414aaff018c0e45d5e59e20b910b60ffce29c4c167eace03d225d56602f8ff250c1c2b0e2d929ef7a061d2920a9b8c6b777ac28b21a014630fa8de3ba2ba75316159472459403a1e141adb8ebf4ffd50d07dd69a291f4690bd34a555e78939dd449bb137f105b2d2ff245594b22d61bb06ca1eb3988ba0a68776aa0c38a4fc5196094a017d1633e8989de7a4e6f81000000",
  "txid": "773a6ff6e5017af541852ff1959c15289ba5e12b10bb16bad8eed48db955797a",
  "hash": "3e644d9dba732542a849c97ae86bb0d260d774b3fe1c27fde217fadf963c66c4",
  "size": 5085,
  "vsize": 2278,
  "version": 1,
  "locktime": 129,
  "vin": [
    {
      "txid": "0bcffabb49d4a0163cbcac4b8fbda0a8021fefb3198f06ac70d3058e3dff4424",
      "vout": 0,
      "scriptSig": {
        "asm": "",
        "hex": ""
      },
      "txinwitness": [
        "87c3ea67eed5c67d2674ebb5a80d565b0dea9992f96f7e5cffe967871d4c9d56c1884b1c2e14853afd83fa6a6c9682ffb80cce9c2e39f810b0b25150899835ee54ca116fec3c9c6b484e92e3db34d12860adb20f7286765f627470762c071b1d44c66a8c3f6cc2669af865637544d75099fe59ca3690285959bb52fece36a13b6ecff08a10f4509ac8b132ab33534376e85d256acf977505ec0b52dbefc0e639e92a62db3a9854ff28a96c2979bbeb8112fb93b41e3a80cb93c6ef84f4f374c68f3fdcd9871fc88b639140f369f6e2f2978ed71a4f033e3b4c57d8340b1eaf87c33c5592275741e369159df20e7ad2e1bb6738f0063e4f470fd313a7c9ca07c4e54deba3e504b14ec8359878c0320cde70a7c49d570709d3961f2524475a68c6b90b9c0690ef16858c9ea82b1353f4a615e12effad4820ae0acaefe78368e72aea32a8856f6d21898c4c48a4c88945eab7f52a56b96b3cfb8405ad67c702ed40f12cd2babcaf21c4b7751e57b39f6b8002e6f004a41579dbb2404e03dd244547e2de63a877714b357808a4dfdd33f5eca13212b34281eb781fed13018a98e15016774e0920738ad92ccb503f3c26343d13ea9646dd878a204d595f411706c007246df6c7e12cbef19d42e4f104cec25898760c231757dab8f6e7bdb4a6e7a05e6a5d30c46c3557e22ce9f6823facf43960381711f09cca3f79ff7a939ad0fd6d95bd0e955d36c9e6f45e030ebfb2d2f10e99eab24b766f0c7352248d3cddf682ce436476799b285012461acee937cc7ecfb2582bd5f12ea1994932bac6b6359379401bf0d4a198d0fa2850cb1e71236babc971233be4bf82db23645623bbf9bf3a3726721c893c96d1902d5877ea907bdf732e2f3ed74c367268108742bb74aa28ef2e6ce0e68350c5b4468a1bab0452727a3165d88adfdacf155dd72df3ca2e7d427233df7c45f17e43c6170ab775b3bdfcda0740dbc6422aaa59bd968b91674f936b56629c79e43b1c8361ffc5f925142416111abcbf8132c3e50f4a9a66afac95f2b42a717ad891cd8db989bca12454a86ffb98717b525a422b70adb4248d2043e8b4d0a71e754302da484c0202e47aaeb37c5aefa4f26fefa81bc7a36b991082970b381a6390b81bdce7003f4367231fa17bfd2fa4cb7ae5a56197de6b84541a4624dd9815344b7bc08e0d22d5e9d7f7b426389e7587342756f94950b9c4ff07e8a48d89e185735ce3c920526414a64973da1123baa4850e3705212b1cf50e1ed266c744ae58d2adfa316b78179705833ae938a411ad6d54e17a45022970f15ac6479dce4e54253b817a298fca81757bd31403dfec34284c5a2427f0496baf0cd6eb7d0dd55ff63f59ee3273d48685ac3705a037b6babadecd24a6dcac65302b82a2192450c46f351f7e5f30244652020e527253d838f731c44bd056658ad92da4393c4f2172f9ad8dd80890d81a19f1de6d99eb687460a9fbe082d7f48ebfe80e4ab47ccb1f5590fb8bc634dc4c7c165cdbf353ec9d7ad51614866685fa9072e61177a570460fe5a3fbbee5a9c31779e4f819d260bc1176bb67ee4411322398d3515d7ec7505c91ef0dc6037ad31d0aefabf00850dee48b99805f3353630f6e4e8a046cf781393f32f802e91f8f78f7093770ab7fabe2db686665ec5c3f5949ec0de88a3306173ad447b130735b2b73b252bcf35299133990e98c080216229db5be3c8d0d646fc330cf6b841509ca1269cb5c6587a0e8ee7185212dd4f43ce673cccdf98a1d37d006f7705ba008e79cfbf430ac76887731ed07f0ef246aa7b7adf72c14818db8b5e559d93da75279b6323e29814663579d9526b592fd74d4f85d155ec629434fb1ad02abf005e03a7d3d48ca543648fee1e5ce3fda39af537a77c7333684a14cf33d2f63ed89c59b6f10f6bad36d156a1840bb13ec4e5d5ae4cf74b53d459a7a86fc419fe64d5a61424610c983768d2eea8a206bfd4e5b8c86dbc7445cf1d3c01d56ff02ef274255bf6b6d2de67d63361c218cbe0eeb795dba570491e1dd221bdb7d08143926b4529a54f802e09a9df9b591d26502ba26d1281262bc3995e005bece48d55064653ebb8874b1ecc762507ee51f82454f3c7ffd7ca03ba699bdda646bafc95ebf4d8c4c1863527a2fa5cb69f934649bad591bb89e8d7a9e2d585d3ed626285f5b41ea5d7e30c808cd8c654743b1f9e8c01debab0b1678e4b48f376319d299710a7ca7242334028a620ff005a49bfe6ca5ed791ac1b37aa9105b07a50a866aa0882586d9af51b1bcdc0a700848ad64b813bc33bf6e28f8369a927b45c04e59bb9975a0c5bc85505ac7602f4e0cbc4e9a4e666f749a4980e24247a139caf2fc8692e0e1d22614c840af0d5ca717f846d0929ee564fb893e0b9071b7fb0e7d79aeba2208e5626522c45774b3f76e4142092591749c53029f32566566f091509e51d698f12f4e0f91b0f5c5de706d11ab188dbf492edfbd59a89e1cc36a684845c65822553268ad6ed68148defb25e1ab1b87cc9e010cc1a65e8ac9777d8ee811961e6c9b892c27d26430bab9c44a6bba3aa59518920183436fc98b226413e2a469f049084dc4c1b43beff4b2ec08d6f90c596d8735cb9cefdd77db2d416c8600148b4eb316a141f00b820b4deff1adb324170b491b50ab7aacdaa279f760043e1f69fa8bbb697f2162c4c46f0c247b254f5d538537c058590455f4105c8c4210b6566b2e1cc81d7bfbf44625c3098455618cc8aa0f676d3187ea348f450930f65371dd202c1dc2bba9202be49320b5d24cd9ddc92501a6fc6bd963b796ac3db019e8716adaf3aaae57306166df0ae624a7b33747be090f8e904a7a3e7d6af532a6a341e97505ae1c36e219c5488f5e3c0bf9f0ab3ed91937c6e30e58b6a4347bee5d0417d36cbaf02f5140261547d33595832ecdd950263ca85fcce8a2c1db5957d44a34aeffbe0d4ae1e03c01fdac5f7cd0d2e02a6009090f647c1b24cf7b65a88da126660217b188756ca0ede67d25e4c193c9fe37dce1826976dd48558abaa6b817c119f204182899248c5b16602a447a2b32b57361609d4b2264aadf1186977edd3f3dabe67ef1d01fe6a1d9a13fd0ae572edab1813fed7090b83069bc53899cbdca40d901237a2dacaadcf3a468bf25aca9c9c26c8db7ae7e27a1ee7d544964ef04ff34252980b7cc5c01e38a3093d674de274189e2bc85cd2497f0a1774a6f459362b54a5fa5d78011897b2f0604755f95a062286d199459e3d17640ab4cd09d0845e1e04a6f64c0033a4bdb020d434c0206333544486b7174757b898dbcbdbfe5fafb0a1e2b373b4d7a9aadb9bdc4cce3f5030610123b43484e506e91d3dadc050e11162e42565a90989ca5d2f00000000000000000000000000000000000001322303e01",
        "000f2071cc6b9ed2175360d202440a4ca4b84d56391f0e516ff9cb25693927f3a95a39f8a3cb736478bffa36a486a2833be8eddf9455d22ea20e8486764777f113e1ef25ca2a11bd8897dcffcc19485cd1431ba9ad68147979a8c41b9c258f6a915747daa6f4c23df2650d4ce2c05c840443a697e6daa68ab26236be1085af570ea67579f6d4c4ab98f1d31533e85646f80c17e901532d5e6292bd8151e6235d33a7391349589f0a2899c7113413ef57fbd23fc3ee7372fce5973916fae6413b0a45fa828b70744acd27a0b66b3f2d7baf1882ff7de0de9dbd914a5785bcb4582d59b7d81fddee6ce5703fdd4bd74ea7532c45101bd2b2832432fe69a49f9400e772113cf033cde447e5b6bb6cb98e18fe2949a813896e724c43fef3cd3e3415f7d85d8eeca3274a3233b5c37b3ddce6bca3dfb21fc5cb0e647947446a95a01f0f142b5fc5c7916a2422e95bf442ce5f13ec76adc28c41c7e350a1b5d2d475b4569abee01a6fad530f105b15f9b64f422a6b3dc2861f39d6e2bf662a74fda648b1d7f03823e08177225d5082cc6d45aa536971273c4c8e05bd2907da02f8b54ed9a96be618645e54fa97fcc8a37ec8a822714ab23d0e33f348e80f390ea04dced38e81120dc43f39abfae4398162c81c126a697faa27842ac09f02ed6cce0db895205722b567f55c6017bea70f7a3aaaeb1c37a0cd276ec0cc5c9c98fd303e3a3f51c0ee2a075b8a5703d3a624a12fc9e1fee1bcc54fbd00337cd272becd138cf41cf7d4c0a02c28bd88280208a83b467dbcc4247af9f33e6d1b08d51b20a648f6dfc5b3b44d9856ff4d4e19d19185e52718b1190aa1fc57d5d0405a8cfc626afb66fb12185e4c7874a3cf0e60e13f1fddb2d5d2d8a59dc0a30b12f02e9e6ed5a14b80fc564c42eff2e97cf87111cfea4520ebb019050998902ecce6df0b3c75263e47323fc0f62d706c0663f33df77e943cbd8bcd4b1aa7ac96e1eee5d01cd41bd1bf267c92ec3aa1e1f7308e790e029b5319fd3df1f228a248fc08b42159f18b894ea4ce7e924ca5cb5d5e281c2ca2e1e372be70d90eb64095fe5abe28013d2c2790cee7165418dc78353c43621232ebff5d2a3b50bfd8dc587b15b9a2f7643aec13d8872550f0e38332e94be2a98955a100173f2c0b86694b1b683b023bf5e6a181c6cb8fa58874eced8e224e4aa42d4cb622da3faae65465013631b495959124e4046d74ec07e9808054f92c328b18e3362e2b4cbc53e1734ecebed4017c69e3c5e3e24a83a176638170460728b38f6052d1d42154a51af7407a8155738d1bba5c7a70daf51b967c7fd6b479fa8c3d45d62c2b83c40faf1ac84d57fa03edff755079e057f49085e3794d4e3f6112d217f441100af5ee5cb94db88344231c7afcbced08a7669aec68c732fcdb434541ec6aedd20c7fdd3e3c5e508a04e4e8c4ec9237b8345f3ceccc54659b38303bca9941748d561095f803b5fcd1c2d3862c393bf89fe7c80ba179d5f46a784823025dc742d4df5a5af9e231ab480cd1fb4bfd00aa7594e6b7ba08fc6e1949f094613fa9bf8cf014a23f0230bc551ce871effed4f6bdd1f983afe1b1ed6ec40b454760199cf8e9048e16d1095e58fe4f57dda75fb2d1824c721924d6c7a4cd262cb2f120b414aaff018c0e45d5e59e20b910b60ffce29c4c167eace03d225d56602f8ff250c1c2b0e2d929ef7a061d2920a9b8c6b777ac28b21a014630fa8de3ba2ba75316159472459403a1e141adb8ebf4ffd50d07dd69a291f4690bd34a555e78939dd449bb137f105b2d2ff245594b22d61bb06ca1eb3988ba0a68776aa0c38a4fc5196094a017d1633e8989de7a4e6f"
      ],
      "sequence": 4294967294
    }
  ],
  "vout": [
    {
      "value": 1.0,
      "n": 0,
      "scriptPubKey": {
        "asm": "OP_RETURN c520510d9c89c375b7edc6568d0320979a7a1b3f6e0fbde1be12ecd5e27145a3 1dabd6d97a211d61fd0f2f772aafa5ff438746aa8074d3b4575af0f744f6fbbe3d8bf6f95a013d41dd2f0f570a8f85df63a7668aa054f394777ad0d764d6db9e5deb96993a615d21bd4f6f376aefe5bf03c706eac03493f4171ab0b704b6bbfe7dcbb6b91a417d019d6f4f174acfc59f23e726cae014b3d4373a909724969bde9d2b5659faa19de17d8faff7aa2f257fc307c62a00f45334d7da7077c4767b3ebd0b7679da81bdc15daf8fd78a0f055fe327e60a20d47314f7fa5057e4565b1edd6b1619bae1dda13dcfefb7ea6f653f8347866a40b41374979a303784363b7efd4b36399ac1fd811defcf97ca4f451fa367a64a60943354b7ba1017a4161b5e1dabd6d97a211d61fd0f2f772aafa5ff438746aa8074d3b4575af0f744f6fbbe3d8bf6f95a013d41dd2f0f570a8f85df63a7668aa054f394777ad0d764d6db9e5deb96993a615d21bd4f6f376aefe5bf03c706eac03493f4171ab0b704b6bbfe7dcbb6b91a417d019d6f4f174acfc59f23e726cae014b3d4373a909724969bde9d2b5659faa19de17d8faff7aa2f257fc307c62a00f45334d7da7077c4767b3ebd0b7679da81bdc15daf8fd78a0f055fe327e60a20d47314f7fa5057e4565b1edd6b1619bae1dda13dcfefb7ea6f653f8347866a40b41374979a303784363b7efd4b36399ac1fd811defcf97ca4f451fa367a64a60943354b7ba1017a4161b5e1dabd6d97a211d61fd0f2f772aafa5ff438746aa8074d3b4575af0f744f6fbbe3d8bf6f95a013d41dd2f0f570a8f85df63a7668aa054f394777ad0d764d6db9e5deb96993a615d21bd4f6f376aefe5bf03c706eac03493f4171ab0b704b6bbfe7dcbb6b91a417d019d6f4f174acfc59f23e726cae014b3d4373a909724969bde9d2b5659faa19de17d8faff7aa2f257fc307c62a00f45334d7da7077c4767b3ebd0b7679da81bdc15daf8fd78a0f055fe327e60a20d47314f7fa5057e4565b1edd6b1619bae1dda13dcfefb7ea6f653f8347866a40b41374979a303784363b7efd4b36399ac1fd811defcf97ca4f451fa367a64a60943354b7ba1017a4161b5e1dabd6d97a211d61fd0f2f772aafa5ff438746aa8074d3b4575af0f744f6fbbe3d8bf6f95a013d41dd2f0f570a8f85df63a7668aa054f394777ad0d764d6db9e5deb96993a615d21bd4f6f376aefe5bf03c706eac03493f4171ab0b704b6bbfe7dcbb6b91a417d019d6f4f174acfc59f23e726cae014b3d4373a909724969bde9d2b5659faa19de17d8faff7aa2f257fc307c62a00f45334d7da7077c4767b3ebd0b7679da81bdc15daf8fd78a0f055fe327e60a20d47314f7fa5057e4565b1edd6b1619bae1dda13dcfefb7ea6f653f8347866a40b41374979a303784363b7efd4b36399ac1fd811defcf97ca4f451fa367a64a60943354b7ba1017a4161b5e1dabd6d97a211d61fd0f2f772aafa5ff438746aa8074d3b4575af0f744f6fbbe3d8bf6f95a013d41dd2f0f570a8f85df63a7668aa054f394777ad0d764d6db9e5deb96993a615d21bd4f6f376aefe5bf03c706eac03493f4171ab0b704b6bbfe7dcbb6b91a417d019d6f4f174acfc59f23e726cae014b3d4373a909724969bde9d2b5659faa19de17d8faff7aa2f257f81c1b2650bae3cceb467b59da5d7ca1e1561db2b174435b033b6a07c04693c4e",
        "hex": "6a20c520510d9c89c375b7edc6568d0320979a7a1b3f6e0fbde1be12ecd5e27145a34db0041dabd6d97a211d61fd0f2f772aafa5ff438746aa8074d3b4575af0f744f6fbbe3d8bf6f95a013d41dd2f0f570a8f85df63a7668aa054f394777ad0d764d6db9e5deb96993a615d21bd4f6f376aefe5bf03c706eac03493f4171ab0b704b6bbfe7dcbb6b91a417d019d6f4f174acfc59f23e726cae014b3d4373a909724969bde9d2b5659faa19de17d8faff7aa2f257fc307c62a00f45334d7da7077c4767b3ebd0b7679da81bdc15daf8fd78a0f055fe327e60a20d47314f7fa5057e4565b1edd6b1619bae1dda13dcfefb7ea6f653f8347866a40b41374979a303784363b7efd4b36399ac1fd811defcf97ca4f451fa367a64a60943354b7ba1017a4161b5e1dabd6d97a211d61fd0f2f772aafa5ff438746aa8074d3b4575af0f744f6fbbe3d8bf6f95a013d41dd2f0f570a8f85df63a7668aa054f394777ad0d764d6db9e5deb96993a615d21bd4f6f376aefe5bf03c706eac03493f4171ab0b704b6bbfe7dcbb6b91a417d019d6f4f174acfc59f23e726cae014b3d4373a909724969bde9d2b5659faa19de17d8faff7aa2f257fc307c62a00f45334d7da7077c4767b3ebd0b7679da81bdc15daf8fd78a0f055fe327e60a20d47314f7fa5057e4565b1edd6b1619bae1dda13dcfefb7ea6f653f8347866a40b41374979a303784363b7efd4b36399ac1fd811defcf97ca4f451fa367a64a60943354b7ba1017a4161b5e1dabd6d97a211d61fd0f2f772aafa5ff438746aa8074d3b4575af0f744f6fbbe3d8bf6f95a013d41dd2f0f570a8f85df63a7668aa054f394777ad0d764d6db9e5deb96993a615d21bd4f6f376aefe5bf03c706eac03493f4171ab0b704b6bbfe7dcbb6b91a417d019d6f4f174acfc59f23e726cae014b3d4373a909724969bde9d2b5659faa19de17d8faff7aa2f257fc307c62a00f45334d7da7077c4767b3ebd0b7679da81bdc15daf8fd78a0f055fe327e60a20d47314f7fa5057e4565b1edd6b1619bae1dda13dcfefb7ea6f653f8347866a40b41374979a303784363b7efd4b36399ac1fd811defcf97ca4f451fa367a64a60943354b7ba1017a4161b5e1dabd6d97a211d61fd0f2f772aafa5ff438746aa8074d3b4575af0f744f6fbbe3d8bf6f95a013d41dd2f0f570a8f85df63a7668aa054f394777ad0d764d6db9e5deb96993a615d21bd4f6f376aefe5bf03c706eac03493f4171ab0b704b6bbfe7dcbb6b91a417d019d6f4f174acfc59f23e726cae014b3d4373a909724969bde9d2b5659faa19de17d8faff7aa2f257fc307c62a00f45334d7da7077c4767b3ebd0b7679da81bdc15daf8fd78a0f055fe327e60a20d47314f7fa5057e4565b1edd6b1619bae1dda13dcfefb7ea6f653f8347866a40b41374979a303784363b7efd4b36399ac1fd811defcf97ca4f451fa367a64a60943354b7ba1017a4161b5e1dabd6d97a211d61fd0f2f772aafa5ff438746aa8074d3b4575af0f744f6fbbe3d8bf6f95a013d41dd2f0f570a8f85df63a7668aa054f394777ad0d764d6db9e5deb96993a615d21bd4f6f376aefe5bf03c706eac03493f4171ab0b704b6bbfe7dcbb6b91a417d019d6f4f174acfc59f23e726cae014b3d4373a909724969bde9d2b5659faa19de17d8faff7aa2f257f81c1b2650bae3cceb467b59da5d7ca1e1561db2b174435b033b6a07c04693c4e",
        "type": "nulldata"
      }
    },
    {
      "value": 499979.662,
      "n": 1,
      "scriptPubKey": {
        "asm": "1 e15307659a7545d8bf3895bafd67564c08718fc718dc7082312af5d5aa0b3c13",
        "hex": "5120e15307659a7545d8bf3895bafd67564c08718fc718dc7082312af5d5aa0b3c13",
        "reqSigs": 1,
        "type": "witness_v1_scripthash",
        "addresses": [
          "3QJmnh"
        ]
      }
    }
  ],
  "blockhash": "e950f66e7d48487e03ac7a1b4e7864aa28758accf0e3d98358cdf64a352531e0",
  "confirmations": 1,
  "time": 1764181937,
  "blocktime": 1764181937
}