{
  "hex": "010000000001015e4c5fce7c5d82f2db69860bb002c5539ca863891fddcbf771533b213bdada6d0000000000feffffff02b0767139792d0000225120fb8733fdddd883bc329b88448f749ebeed11da83a4ce23c6f4940041f4fa7be200e1f50500000000fdd5046a20696f4bae3c3a34864856b7a087122473a57712bfd4fdbce97e2d8db2b654b9fb4db004e10344fc75ed34655f13ef8ed1ade689795e4e5cee877ea2d446b49bfadbef35c12364dc55cd14457f33cfaef18dc6a9597e6e7ccea75e82f46694bbdafbcf15a14304bc35ad74251f53afce91eda6c9391e0e1caec73ee29406f4dbba9baf758163249c158d54053f738feeb1cd86e9193e2e3c8ee71ec2b426d4fb9abb8f556183c47cf56db4e5df936f0e512d6609f9decedc6e07fe2254c6341b7a5b6fb541a3e45cd54d94c5ffb34f2e710d4629d9feeefc4e27de0274e6143b5a7b4f9521c3843cb52df4a59fd32f4e116d2649b99e8e9c2e47be621486745b3a1b2ff501e3a41c950dd485bff30f6e314d066999beaebc0e679e4234a6547b1a3b0fd5e10344fc75ed34655f13ef8ed1ade689795e4e5cee877ea2d446b49bfadbef35c12364dc55cd14457f33cfaef18dc6a9597e6e7ccea75e82f46694bbdafbcf15a14304bc35ad74251f53afce91eda6c9391e0e1caec73ee29406f4dbba9baf758163249c158d54053f738feeb1cd86e9193e2e3c8ee71ec2b426d4fb9abb8f556183c47cf56db4e5df936f0e512d6609f9decedc6e07fe2254c6341b7a5b6fb541a3e45cd54d94c5ffb34f2e710d4629d9feeefc4e27de0274e6143b5a7b4f9521c3843cb52df4a59fd32f4e116d2649b99e8e9c2e47be621486745b3a1b2ff501e3a41c950dd485bff30f6e314d066999beaebc0e679e4234a6547b1a3b0fd5e10344fc75ed34655f13ef8ed1ade689795e4e5cee877ea2d446b49bfadbef35c12364dc55cd14457f33cfaef18dc6a9597e6e7ccea75e82f46694bbdafbcf15a14304bc35ad74251f53afce91eda6c9391e0e1caec73ee29406f4dbba9baf758163249c158d54053f738feeb1cd86e9193e2e3c8ee71ec2b426d4fb9abb8f556183c47cf56db4e5df936f0e512d6609f9decedc6e07fe2254c6341b7a5b6fb541a3e45cd54d94c5ffb34f2e710d4629d9feeefc4e27de0274e6143b5a7b4f9521c3843cb52df4a59fd32f4e116d2649b99e8e9c2e47be621486745b3a1b2ff501e3a41c950dd485bff30f6e314d066999beaebc0e679e4234a6547b1a3b0fd5e10344fc75ed34655f13ef8ed1ade689795e4e5cee877ea2d446b49bfadbef35c12364dc55cd14457f33cfaef18dc6a9597e6e7ccea75e82f46694bbdafbcf15a14304bc35ad74251f53afce91eda6c9391e0e1caec73ee29406f4dbba9baf758163249c158d54053f738feeb1cd86e9193e2e3c8ee71ec2b426d4fb9abb8f556183c47cf56db4e5df936f0e512d6609f9decedc6e07fe2254c6341b7a5b6fb541a3e45cd54d94c5ffb34f2e710d4629d9feeefc4e27de0274e6143b5a7b4f9521c3843cb52df4a59fd32f4e116d2649b99e8e9c2e47be621486745b3a1b2ff501e3a41c950dd485bff30f6e314d066999beaebc0e679e4234a6547b1a3b0fd5e10344fc75ed34655f13ef8ed1ade689795e4e5cee877ea2d446b49bfadbef35c12364dc55cd14457f33cfaef18dc6a9597e6e7ccea75e82f46694bbdafbcf15a14304bc35ad74251f53afce91eda6c9391e0e1caec73ee29406f4dbba9baf758163249c158d54053f738feeb1cd86e9193e2e3c8ee71ec2b426d4fb9abb8f556183c47cf56db4e5df936f0e512d66099161c6cb81faf8dcd5923b38bef5963ec141db7a3a6162ae4bbe5ce126339ce902fd7509ee6b1e60da58b20618bbef4450146ed05284646611578b271290202e77d32e643ce23d8b842ad3ed942c5361784fd4d2c7811f0595e8da5a7f1777b9c2b1be623358c73b3fde1c622b02f787396be28f2de43b0f7d9c0bf6410be6cb06070424bd82f8c3c7845d6debea4558a456d126f311638b0177c937189720ba1e0ea127171e7bde6abb970990a663ba0250563889ec7296c6f1cc417a0df5a5d60195289418840e50fe1037620855a0e57c1729047aa854baad1c2fe64e5075fb1246a5d05f648ee5afb93143b98d36e4a5a1e132d8d05476152106e36ac52226eca1454143c72386f56cdec7a98e88c5405b838b3ec5e11a5da2d321430cdbe2322069ed4879d005fd90897a94b1febb2b98d81ad1a0636c8205d9ee0b3663234c6ee45e316fc0093866925852581fa09d89c1f54f993eaba913af83bc3c5756e0231eb908aec0aecde7d0469e13c95194f9ed19d9d2a673fd5f2df7223d78971c7a56becae96ca6b43474113e5b4cca0763cab398f6b7a9dbbf946bb170aa8c8343932a13104d11b50c1c9396b003a3474fa661cc4cd3f7e6dd361dedca4a44251a4f3d3a762739f6570ac2d8b89127048cdf2c390e0c8bccf01b5f6ed9b1feabcc749ee79ab4b717c54fcd16d32eb5aed03ac9b11a05b77d3e57daa67bc7ceedf21958a238a855d62797148c3bb99408139c06f929a2b55923f5e3da5068ac5edb55606107e0c20a788bd32676c762f892ff25570d1d72dcbe3171f138afc5cd5555939f5549e7661a9a8a8e29f34cbfb3d6b72e61af4942ceebfaaa9e28eaddd394fd03a68a821b5861588bda9aaf660a6394813a6bc2dc7e744bc588686e1fa56d9fe24cac99f0028283b484138c702f5ba7045737e4c6a130197c277b7a65a4f7876a04b981b1f1588e3e780d65fb6820e68e315db4e997703c7a10aacc201fd7448aff8b8efc97b78b6582e6f5de2eabf74d08c98522b25eb0f96b156e2847a43f40e6fd50aec9ec7c8ed928376008e60078496358a709bd36f65159fddd94ebdcbe8f49cc4e691d9f175335ed1c9460939b2fb820d70ab01e57080fbcaedb5659cff3270ab24c62e5227cad8f534aeb96aea8ddc47318c2fc7038a74f749df841bc624bf1b4691dc2426ce071b37f2a8a0163f3572bcb7b5b69dc698619fe7b83d11d89e1f7a245e10ab6be62dc9b9b93f97cdd48775d3c386b1bf38d7d6f500d12147bec2db40819c71c5e84cd30d7311bf35175b69a37990e35117d377c5f2b96cc01bc6f4e93e03d5c7b94f16b15449b5e75128c5d5a482ddeafbda7247d3a8f5768d781bab898bdbdd7a32063821a191f0e72c4d832270e7497c1d18a8b412b940669da5bbed682cad373a6ffbd95866bd935ef81f06cde8e11a1f1521bb7bc8475cc0c13f1361e136adc3ef2c580b6857a1ed2ce198b6541fef33f3e62eefa96b12ae388c8362e6b47a5949c4c3d11cba569aa20d8d33e6d1716059deb6c6c3244011fcdb9878d105e5e4826b2f7a38237aeb2b8256b0e380dd8be8698cefcb9bf56fdb559657775acc0117003b99f2b36c17b300cb9568e5380a3b0e358b08d51359282abbb9bc7489616ef02fe3dc9557a2f6b4f0ea2c88a6c16e60a9b5ae5015a5a669c6c78f53a1857a592de935986cb30d2105fc941ae1d26e276cb91ae30068876a0b88de35b5bb3e386bcf42ec50436917e6c34fe816ba633729c90c82622775695623ddedd4a0f8f4adba6eb6b63c5560884871d3ed374c90a7d1e62b96900ac1257c25cb1f0eb0bac68d18587db0dc3b3a0d13dcef2a692812c90a8d2ee7763b93eb53191af1bc8e54055ab195821a74c3302925a4b1142ff8c494b030dcab6275647e92468aad0423248d1994360bae19d254afa6f6659a3e06788a78ae1433721fecbe91d3de7b4548b5ec30ba7141bc9e96408c0b82ec90cf998a804367c19e30f502cb6bb2bea76aad7aa9495617106daab7ff3185becce2961d24f971569b5fd3b7f5a95bea9534ec405b1d5dd56a9748c3a29bea895ccfd4cbb5af4042fb926a326b751c735bad64dbf8479ea596d5de0b386a7d5250c4823a09aa942f45223d23776ea4c762ed38ca7abc4a7ccff1e54293f07c8484eabed46fda4d6f21c8995e1b642b5575c51776fe943f4765a1624650afdfcd75fa982a21034e17ed0e099fb484c079c42d6dc0e55381e49a52a05cec36cf95f34d3a8e078e9c4271c032a75173ec788177db414d0d2c87b57e37458f7f062f04c0e6efcc0f5bb69b89d7642350c48e44c0dbc6e47de536315326867273eecf28caa0f0c95402c3d7b0d695dae9358d2d79b477240ea6f5919bd988845b6490a9c5052f82cec6dd4f11bc10f9c3013b2d45ac1d358b51de17c077186893b3ab0b54a64b6f564240e61aad3990d224fea33b2fd8f1c9a69e063f587012991e3d6d21fbe5c1e5490ac407b51dd31600a44a08acf2c77dc14d82ce277aca8aa2ed6c29df6c21df1e4e0752ff5f74374d891a1c5a38df165f7f49ad861bad0f9b6e71fba261f317270e5c63abfffd33e9a5a5c19dae7baa7054f6110ebff54f126f80caf58caca35b6506aaee2ffed432494c662a16e1c512a876f5c71bde6144238d1c8d038e1f2956c0b816061f76ebeae69a2d349e3b39c9a2159d7438f797fc1672b7bbb291726f7fd378852cefb30f39bc7305f8d57ad7a17632eff034b206319cdc2643a56ea81f036d877d6970f2479796e4dd1e2f52596ca1877f45f70c7d464581923c99d761d4126becdbee8e5a8f6e6c0409cd053dbef33d5c9b0d598ab3c954fbcfae21057471c6cfe4ebcd5ff06ef399f657f9fc5c368fb5786a1ec439569258394989d5c74ded8edf8938628485e2453002379da5dcdb6a3bd3704a00f3011759e8c1d4039f8d375b5403f0023005deb592ff01c1496705495092af520536dfb9753ab32b8438ef978493f6310a2a0214849ef9fa65f217ea0c4a4ecb588583343f836e8a96e35acd7d9f1838009f3f6e06dce18c0309c89d57413f8831282f43edf0d911a70d6db9a205e6627a1b9114d5b1a53221304c03103971ef783b9693c54892f7538c1443b0f60e7d8c6b6cb06a4dfd9aa2935b4c4e889dafab8b6884268d1c2c8cb41c07d70825d80b2d1c93a9d1bb0fc6083b480b795a7fb0434ec30fdef09b13b69646fd0fea1499cee94d0faa65ed2d3147d0d917ce7ef9997bb2b561d2103156023d552e32ce1b9310ebbd800b6c1f21a7b8987d63ce2a9aea0e2c2a6bdf19964cb75788c28849abfc70653824cda7466305bbb2c1015243b3e5facced5dee4e7eaf5071e4c5d606c87a1c9e0f00607123f73758fbdc9cee1f8171c243e4c7a9bb0b5dbe6e8f40000000000000000000000000000000000000000000000000000000000000e19253201fd210500f55efb67843976fd7e3322bb7fafec97b03265ed75ffb94ac872e2cb91b6f5006080e8df45e25a9b47de0d35f26240479a69d8554aabbd0cd8fbdc76cafc9fe9fd7c2c77722bca98a8140e2861f010d822108fe6b778da08be3b1d9c445331ebf15716b1962d334d78b6ae92d94277b42725f6068b6fd8455937b74950ee49bd1f219f479661a70ea9a8e0df1971864bb9c60f17c6870152e117f6eed9705a9e61e95d98ef81a8bf3d930ae0db549974fd0dec9e717899fb0222332eeca3d249f28c7890f2611ceff31e2ddd87d05e79ff9bc4c4f169cf55daf6ff9dbc3aa44d074d8c426ea80f49cc1ffeda968e3e98fa93d1944b5c7d4868e52e139f408f2636242a5cdfbf2ba67485017c785956610174203f371762790ccb9618ea201908052f8fd95cf998729468a3232b3de2e847a8e2c0cd206c7d315894b4b8cb1d96dfb71216e9a332894a94d64f5484dc2972acae4f93599eaa295d3ea75e9659249bd0c3bbd05f898dd394cf5d855abf0e31558cf67ef73d5a69612cc354bb89123dc2cae4255ce2bcc28c8e36e777b6c08aa6355cdf22aca46fa9b8297d972efabefebdd9df0ca3069fc8ec3677715f310f378049912d8085ca8c0e5f0434cfb982f0822b9c13488116426ee185828fdbfba8425c8f35d8d0f3d55289c4fbc2e18d6ac391046d19ee832b2e5d3ad3f2b98bb3bd961d75d0387b8ae20c0f745a5d81fa312fead7416e6c840be9c80d3ed801dea7c67797b7ec118d8febc17cb5e053d0fdc90a7552294f763e93baeb61a17f5ef93d8a09d7ee8d9138151ff23ed1627edffc6acd9d1cbe0e569d4efa02decdd4f3333a53a2c3fb187b41d5e488288bbf9c7c28f530cb1a47f6719ec6c242475c5eda5e38a0321ab4746b59c970aa1d6d34a36a31ebc8f45f62be94c540531cfc40076769e72ec8e8e3d6076e938b7dfbf2fb35e57fc1722c69ee2127310f620ae51cdc8f3e9113c459a1238f5f9bdce08b6bbe575304052a91d33e96ad1147638bf7140bdf55db5e03ddd474da72d04af69c53d8f129097120f406692065a6a817c6e61bef06ef7d1ebcbeee88e9a31b7ecf850303822779eb56a2cd227c0eb550174fa816252d5030285d02085fdd43b998d20a5c2a4f3856fcc86d88a106054df8ad5117f38f67524970cecfd131c6c04acbfe2bef9caebbdaf1a5a5c5357e2fe75f79a36b65a6fb2d55e611c0e769d014a6edbaa2b9136903a9589921d065ce640c313e870b26013946695258c839cb1d32994597497de8bc3766b2a44b98657f4ac6276186643345fb5ed1785016a7fad556e20ff6f31744879d7d5d1c50773e6c1da82df5b6632a768d9dc0c24c651178aa248cb7c729f03a682819ca742aa01b514444d8d91d509eabaa8a45eed32647a574b8b9dfc109fa4d83c6e6f2a869cb42b83259c75d5d3ab47243aacf2301b17927193de3f7cae16fd7f77efc811bdf81c2647ee9aa29f1a19a6f9586aad5ea6f95026d23c7933d33e8c4ec7ba19aaaffe6e41fb4c1b50190b4b13cfb4f1aeb45422fb090d3bb4e6df8abd816029054ebbeb3e9914ba18668bc843ebf6ea6c4234bb2994ecda45f5fdeb0ae5e15cb0a11e9011454ae52ac1a35323b882f954767038f39aea5d5cb13beac41540f35c7d90d8318f1e50280490f33989a1d5184df28ee5b53ffad7b2f686d5d136918ab6568afccd065e033e63da5ab74f81308d56184f9ca8818a89bff4ebd771b1e6702581a54766831899d7fcdec169e159c73b8ee24ec93a607944deadb798979bdf3b24afdb224b1be248a55aceee03c833003d976940ff4cfbc0f3e328a622d764071054fd30172b23e8cf96f000000",
  "txid": "7c3477385c6ba12c75815381750c3dc7db2e6712615ea9ea88c46bf598d3c931",
  "hash": "6924b581f5ab35a5889973e7eca6b68a361b185aa0f8a9ada58f35c916e19dd0",
  "size": 5085,
  "vsize": 2278,
  "version": 1,
  "locktime": 111,
  "vin": [
    {
      "txid": "6ddada3b213b5371f7cbdd1f8963a89c53c502b00b8669dbf2825d7cce5f4c5e",
      "vout": 0,
      "scriptSig": {
        "asm": "",
        "hex": ""
      },
      "txinwitness": [
        "ee6b1e60da58b20618bbef4450146ed05284646611578b271290202e77d32e643ce23d8b842ad3ed942c5361784fd4d2c7811f0595e8da5a7f1777b9c2b1be623358c73b3fde1c622b02f787396be28f2de43b0f7d9c0bf6410be6cb06070424bd82f8c3c7845d6debea4558a456d126f311638b0177c937189720ba1e0ea127171e7bde6abb970990a663ba0250563889ec7296c6f1cc417a0df5a5d60195289418840e50fe1037620855a0e57c1729047aa854baad1c2fe64e5075fb1246a5d05f648ee5afb93143b98d36e4a5a1e132d8d05476152106e36ac52226eca1454143c72386f56cdec7a98e88c5405b838b3ec5e11a5da2d321430cdbe2322069ed4879d005fd90897a94b1febb2b98d81ad1a0636c8205d9ee0b3663234c6ee45e316fc0093866925852581fa09d89c1f54f993eaba913af83bc3c5756e0231eb908aec0aecde7d0469e13c95194f9ed19d9d2a673fd5f2df7223d78971c7a56becae96ca6b43474113e5b4cca0763cab398f6b7a9dbbf946bb170aa8c8343932a13104d11b50c1c9396b003a3474fa661cc4cd3f7e6dd361dedca4a44251a4f3d3a762739f6570ac2d8b89127048cdf2c390e0c8bccf01b5f6ed9b1feabcc749ee79ab4b717c54fcd16d32eb5aed03ac9b11a05b77d3e57daa67bc7ceedf21958a238a855d62797148c3bb99408139c06f929a2b55923f5e3da5068ac5edb55606107e0c20a788bd32676c762f892ff25570d1d72dcbe3171f138afc5cd5555939f5549e7661a9a8a8e29f34cbfb3d6b72e61af4942ceebfaaa9e28eaddd394fd03a68a821b5861588bda9aaf660a6394813a6bc2dc7e744bc588686e1fa56d9fe24cac99f0028283b484138c702f5ba7045737e4c6a130197c277b7a65a4f7876a04b981b1f1588e3e780d65fb6820e68e315db4e997703c7a10aacc201fd7448aff8b8efc97b78b6582e6f5de2eabf74d08c98522b25eb0f96b156e2847a43f40e6fd50aec9ec7c8ed928376008e60078496358a709bd36f65159fddd94ebdcbe8f49cc4e691d9f175335ed1c9460939b2fb820d70ab01e57080fbcaedb5659cff3270ab24c62e5227cad8f534aeb96aea8ddc47318c2fc7038a74f749df841bc624bf1b4691dc2426ce071b37f2a8a0163f3572bcb7b5b69dc698619fe7b83d11d89e1f7a245e10ab6be62dc9b9b93f97cdd48775d3c386b1bf38d7d6f500d12147bec2db40819c71c5e84cd30d7311bf35175b69a37990e35117d377c5f2b96cc01bc6f4e93e03d5c7b94f16b15449b5e75128c5d5a482ddeafbda7247d3a8f5768d781bab898bdbdd7a32063821a191f0e72c4d832270e7497c1d18a8b412b940669da5bbed682cad373a6ffbd95866bd935ef81f06cde8e11a1f1521bb7bc8475cc0c13f1361e136adc3ef2c580b6857a1ed2ce198b6541fef33f3e62eefa96b12ae388c8362e6b47a5949c4c3d11cba569aa20d8d33e6d1716059deb6c6c3244011fcdb9878d105e5e4826b2f7a38237aeb2b8256b0e380dd8be8698cefcb9bf56fdb559657775acc0117003b99f2b36c17b300cb9568e5380a3b0e358b08d51359282abbb9bc7489616ef02fe3dc9557a2f6b4f0ea2c88a6c16e60a9b5ae5015a5a669c6c78f53a1857a592de935986cb30d2105fc941ae1d26e276cb91ae30068876a0b88de35b5bb3e386bcf42ec50436917e6c34fe816ba633729c90c82622775695623ddedd4a0f8f4adba6eb6b63c5560884871d3ed374c90a7d1e62b96900ac1257c25cb1f0eb0bac68d18587db0dc3b3a0d13dcef2a692812c90a8d2ee7763b93eb53191af1bc8e54055ab195821a74c3302925a4b1142ff8c494b030dcab6275647e92468aad0423248d1994360bae19d254afa6f6659a3e06788a78ae1433721fecbe91d3de7b4548b5ec30ba7141bc9e96408c0b82ec90cf998a804367c19e30f502cb6bb2bea76aad7aa9495617106daab7ff3185becce2961d24f971569b5fd3b7f5a95bea9534ec405b1d5dd56a9748c3a29bea895ccfd4cbb5af4042fb926a326b751c735bad64dbf8479ea596d5de0b386a7d5250c4823a09aa942f45223d23776ea4c762ed38ca7abc4a7ccff1e54293f07c8484eabed46fda4d6f21c8995e1b642b5575c51776fe943f4765a1624650afdfcd75fa982a21034e17ed0e099fb484c079c42d6dc0e55381e49a52a05cec36cf95f34d3a8e078e9c4271c032a75173ec788177db414d0d2c87b57e37458f7f062f04c0e6efcc0f5bb69b89d7642350c48e44c0dbc6e47de536315326867273eecf28caa0f0c95402c3d7b0d695dae9358d2d79b477240ea6f5919bd988845b6490a9c5052f82cec6dd4f11bc10f9c3013b2d45ac1d358b51de17c077186893b3ab0b54a64b6f564240e61aad3990d224fea33b2fd8f1c9a69e063f587012991e3d6d21fbe5c1e5490ac407b51dd31600a44a08acf2c77dc14d82ce277aca8aa2ed6c29df6c21df1e4e0752ff5f74374d891a1c5a38df165f7f49ad861bad0f9b6e71fba261f317270e5c63abfffd33e9a5a5c19dae7baa7054f6110ebff54f126f80caf58caca35b6506aaee2ffed432494c662a16e1c512a876f5c71bde6144238d1c8d038e1f2956c0b816061f76ebeae69a2d349e3b39c9a2159d7438f797fc1672b7bbb291726f7fd378852cefb30f39bc7305f8d57ad7a17632eff034b206319cdc2643a56ea81f036d877d6970f2479796e4dd1e2f52596ca1877f45f70c7d464581923c99d761d4126becdbee8e5a8f6e6c0409cd053dbef33d5c9b0d598ab3c954fbcfae21057471c6cfe4ebcd5ff06ef399f657f9fc5c368fb5786a1ec439569258394989d5c74ded8edf8938628485e2453002379da5dcdb6a3bd3704a00f3011759e8c1d4039f8d375b5403f0023005deb592ff01c1496705495092af520536dfb9753ab32b8438ef978493f6310a2a0214849ef9fa65f217ea0c4a4ecb588583343f836e8a96e35acd7d9f1838009f3f6e06dce18c0309c89d57413f8831282f43edf0d911a70d6db9a205e6627a1b9114d5b1a53221304c03103971ef783b9693c54892f7538c1443b0f60e7d8c6b6cb06a4dfd9aa2935b4c4e889dafab8b6884268d1c2c8cb41c07d70825d80b2d1c93a9d1bb0fc6083b480b795a7fb0434ec30fdef09b13b69646fd0fea1499cee94d0faa65ed2d3147d0d917ce7ef9997bb2b561d2103156023d552e32ce1b9310ebbd800b6c1f21a7b8987d63ce2a9aea0e2c2a6bdf19964cb75788c28849abfc70653824cda7466305bbb2c1015243b3e5facced5dee4e7eaf5071e4c5d606c87a1c9e0f00607123f73758fbdc9cee1f8171c243e4c7a9bb0b5dbe6e8f40000000000000000000000000000000000000000000000000000000000000e19253201",
        "00f55efb67843976fd7e3322bb7fafec97b03265ed75ffb94ac872e2cb91b6f5006080e8df45e25a9b47de0d35f26240479a69d8554aabbd0cd8fbdc76cafc9fe9fd7c2c77722bca98a8140e2861f010d822108fe6b778da08be3b1d9c445331ebf15716b1962d334d78b6ae92d94277b42725f6068b6fd8455937b74950ee49bd1f219f479661a70ea9a8e0df1971864bb9c60f17c6870152e117f6eed9705a9e61e95d98ef81a8bf3d930ae0db549974fd0dec9e717899fb0222332eeca3d249f28c7890f2611ceff31e2ddd87d05e79ff9bc4c4f169cf55daf6ff9dbc3aa44d074d8c426ea80f49cc1ffeda968e3e98fa93d1944b5c7d4868e52e139f408f2636242a5cdfbf2ba67485017c785956610174203f371762790ccb9618ea201908052f8fd95cf998729468a3232b3de2e847a8e2c0cd206c7d315894b4b8cb1d96dfb71216e9a332894a94d64f5484dc2972acae4f93599eaa295d3ea75e9659249bd0c3bbd05f898dd394cf5d855abf0e31558cf67ef73d5a69612cc354bb89123dc2cae4255ce2bcc28c8e36e777b6c08aa6355cdf22aca46fa9b8297d972efabefebdd9df0ca3069fc8ec3677715f310f378049912d8085ca8c0e5f0434cfb982f0822b9c13488116426ee185828fdbfba8425c8f35d8d0f3d55289c4fbc2e18d6ac391046d19ee832b2e5d3ad3f2b98bb3bd961d75d0387b8ae20c0f745a5d81fa312fead7416e6c840be9c80d3ed801dea7c67797b7ec118d8febc17cb5e053d0fdc90a7552294f763e93baeb61a17f5ef93d8a09d7ee8d9138151ff23ed1627edffc6acd9d1cbe0e569d4efa02decdd4f3333a53a2c3fb187b41d5e488288bbf9c7c28f530cb1a47f6719ec6c242475c5eda5e38a0321ab4746b59c970aa1d6d34a36a31ebc8f45f62be94c540531cfc40076769e72ec8e8e3d6076e938b7dfbf2fb35e57fc1722c69ee2127310f620ae51cdc8f3e9113c459a1238f5f9bdce08b6bbe575304052a91d33e96ad1147638bf7140bdf55db5e03ddd474da72d04af69c53d8f129097120f406692065a6a817c6e61bef06ef7d1ebcbeee88e9a31b7ecf850303822779eb56a2cd227c0eb550174fa816252d5030285d02085fdd43b998d20a5c2a4f3856fcc86d88a106054df8ad5117f38f67524970cecfd131c6c04acbfe2bef9caebbdaf1a5a5c5357e2fe75f79a36b65a6fb2d55e611c0e769d014a6edbaa2b9136903a9589921d065ce640c313e870b26013946695258c839cb1d32994597497de8bc3766b2a44b98657f4ac6276186643345fb5ed1785016a7fad556e20ff6f31744879d7d5d1c50773e6c1da82df5b6632a768d9dc0c24c651178aa248cb7c729f03a682819ca742aa01b514444d8d91d509eabaa8a45eed32647a574b8b9dfc109fa4d83c6e6f2a869cb42b83259c75d5d3ab47243aacf2301b17927193de3f7cae16fd7f77efc811bdf81c2647ee9aa29f1a19a6f9586aad5ea6f95026d23c7933d33e8c4ec7ba19aaaffe6e41fb4c1b50190b4b13cfb4f1aeb45422fb090d3bb4e6df8abd816029054ebbeb3e9914ba18668bc843ebf6ea6c4234bb2994ecda45f5fdeb0ae5e15cb0a11e9011454ae52ac1a35323b882f954767038f39aea5d5cb13beac41540f35c7d90d8318f1e50280490f33989a1d5184df28ee5b53ffad7b2f686d5d136918ab6568afccd065e033e63da5ab74f81308d56184f9ca8818a89bff4ebd771b1e6702581a54766831899d7fcdec169e159c73b8ee24ec93a607944deadb798979bdf3b24afdb224b1be248a55aceee03c833003d976940ff4cfbc0f3e328a622d764071054fd30172b23e8cf9"
      ],
      "sequence": 4294967294
    }
  ],
  "vout": [
    {
      "value": 499986.7803,
      "n": 0,
      "scriptPubKey": {
        "asm": "1 fb8733fdddd883bc329b88448f749ebeed11da83a4ce23c6f4940041f4fa7be2",
        "hex": "5120fb8733fdddd883bc329b88448f749ebeed11da83a4ce23c6f4940041f4fa7be2",
        "reqSigs": 1,
        "type": "witness_v1_scripthash",
        "addresses": [
          "3QJmnh"
        ]
      }
    },
    {
      "value": 1.0,
      "n": 1,
      "scriptPubKey": {
        "asm": "OP_RETURN 696f4bae3c3a34864856b7a087122473a57712bfd4fdbce97e2d8db2b654b9fb e10344fc75ed34655f13ef8ed1ade689795e4e5cee877ea2d446b49bfadbef35c12364dc55cd14457f33cfaef18dc6a9597e6e7ccea75e82f46694bbdafbcf15a14304bc35ad74251f53afce91eda6c9391e0e1caec73ee29406f4dbba9baf758163249c158d54053f738feeb1cd86e9193e2e3c8ee71ec2b426d4fb9abb8f556183c47cf56db4e5df936f0e512d6609f9decedc6e07fe2254c6341b7a5b6fb541a3e45cd54d94c5ffb34f2e710d4629d9feeefc4e27de0274e6143b5a7b4f9521c3843cb52df4a59fd32f4e116d2649b99e8e9c2e47be621486745b3a1b2ff501e3a41c950dd485bff30f6e314d066999beaebc0e679e4234a6547b1a3b0fd5e10344fc75ed34655f13ef8ed1ade689795e4e5cee877ea2d446b49bfadbef35c12364dc55cd14457f33cfaef18dc6a9597e6e7ccea75e82f46694bbdafbcf15a14304bc35ad74251f53afce91eda6c9391e0e1caec73ee29406f4dbba9baf758163249c158d54053f738feeb1cd86e9193e2e3c8ee71ec2b426d4fb9abb8f556183c47cf56db4e5df936f0e512d6609f9decedc6e07fe2254c6341b7a5b6fb541a3e45cd54d94c5ffb34f2e710d4629d9feeefc4e27de0274e6143b5a7b4f9521c3843cb52df4a59fd32f4e116d2649b99e8e9c2e47be621486745b3a1b2ff501e3a41c950dd485bff30f6e314d066999beaebc0e679e4234a6547b1a3b0fd5e10344fc75ed34655f13ef8ed1ade689795e4e5cee877ea2d446b49bfadbef35c12364dc55cd14457f33cfaef18dc6a9597e6e7ccea75e82f46694bbdafbcf15a14304bc35ad74251f53afce91eda6c9391e0e1caec73ee29406f4dbba9baf758163249c158d54053f738feeb1cd86e9193e2e3c8ee71ec2b426d4fb9abb8f556183c47cf56db4e5df936f0e512d6609f9decedc6e07fe2254c6341b7a5b6fb541a3e45cd54d94c5ffb34f2e710d4629d9feeefc4e27de0274e6143b5a7b4f9521c3843cb52df4a59fd32f4e116d2649b99e8e9c2e47be621486745b3a1b2ff501e3a41c950dd485bff30f6e314d066999beaebc0e679e4234a6547b1a3b0fd5e10344fc75ed34655f13ef8ed1ade689795e4e5cee877ea2d446b49bfadbef35c12364dc55cd14457f33cfaef18dc6a9597e6e7ccea75e82f46694bbdafbcf15a14304bc35ad74251f53afce91eda6c9391e0e1caec73ee29406f4dbba9baf758163249c158d54053f738feeb1cd86e9193e2e3c8ee71ec2b426d4fb9abb8f556183c47cf56db4e5df936f0e512d6609f9decedc6e07fe2254c6341b7a5b6fb541a3e45cd54d94c5ffb34f2e710d4629d9feeefc4e27de0274e6143b5a7b4f9521c3843cb52df4a59fd32f4e116d2649b99e8e9c2e47be621486745b3a1b2ff501e3a41c950dd485bff30f6e314d066999beaebc0e679e4234a6547b1a3b0fd5e10344fc75ed34655f13ef8ed1ade689795e4e5cee877ea2d446b49bfadbef35c12364dc55cd14457f33cfaef18dc6a9597e6e7ccea75e82f46694bbdafbcf15a14304bc35ad74251f53afce91eda6c9391e0e1caec73ee29406f4dbba9baf758163249c158d54053f738feeb1cd86e9193e2e3c8ee71ec2b426d4fb9abb8f556183c47cf56db4e5df936f0e512d66099161c6cb81faf8dcd5923b38bef5963ec141db7a3a6162ae4bbe5ce126339ce9",
        "hex": "6a20696f4bae3c3a34864856b7a087122473a57712bfd4fdbce97e2d8db2b654b9fb4db004e10344fc75ed34655f13ef8ed1ade689795e4e5cee877ea2d446b49bfadbef35c12364dc55cd14457f33cfaef18dc6a9597e6e7ccea75e82f46694bbdafbcf15a14304bc35ad74251f53afce91eda6c9391e0e1caec73ee29406f4dbba9baf758163249c158d54053f738feeb1cd86e9193e2e3c8ee71ec2b426d4fb9abb8f556183c47cf56db4e5df936f0e512d6609f9decedc6e07fe2254c6341b7a5b6fb541a3e45cd54d94c5ffb34f2e710d4629d9feeefc4e27de0274e6143b5a7b4f9521c3843cb52df4a59fd32f4e116d2649b99e8e9c2e47be621486745b3a1b2ff501e3a41c950dd485bff30f6e314d066999beaebc0e679e4234a6547b1a3b0fd5e10344fc75ed34655f13ef8ed1ade689795e4e5cee877ea2d446b49bfadbef35c12364dc55cd14457f33cfaef18dc6a9597e6e7ccea75e82f46694bbdafbcf15a14304bc35ad74251f53afce91eda6c9391e0e1caec73ee29406f4dbba9baf758163249c158d54053f738feeb1cd86e9193e2e3c8ee71ec2b426d4fb9abb8f556183c47cf56db4e5df936f0e512d6609f9decedc6e07fe2254c6341b7a5b6fb541a3e45cd54d94c5ffb34f2e710d4629d9feeefc4e27de0274e6143b5a7b4f9521c3843cb52df4a59fd32f4e116d2649b99e8e9c2e47be621486745b3a1b2ff501e3a41c950dd485bff30f6e314d066999beaebc0e679e4234a6547b1a3b0fd5e10344fc75ed34655f13ef8ed1ade689795e4e5cee877ea2d446b49bfadbef35c12364dc55cd14457f33cfaef18dc6a9597e6e7ccea75e82f46694bbdafbcf15a14304bc35ad74251f53afce91eda6c9391e0e1caec73ee29406f4dbba9baf758163249c158d54053f738feeb1cd86e9193e2e3c8ee71ec2b426d4fb9abb8f556183c47cf56db4e5df936f0e512d6609f9decedc6e07fe2254c6341b7a5b6fb541a3e45cd54d94c5ffb34f2e710d4629d9feeefc4e27de0274e6143b5a7b4f9521c3843cb52df4a59fd32f4e116d2649b99e8e9c2e47be621486745b3a1b2ff501e3a41c950dd485bff30f6e314d066999beaebc0e679e4234a6547b1a3b0fd5e10344fc75ed34655f13ef8ed1ade689795e4e5cee877ea2d446b49bfadbef35c12364dc55cd14457f33cfaef18dc6a9597e6e7ccea75e82f46694bbdafbcf15a14304bc35ad74251f53afce91eda6c9391e0e1caec73ee29406f4dbba9baf758163249c158d54053f738feeb1cd86e9193e2e3c8ee71ec2b426d4fb9abb8f556183c47cf56db4e5df936f0e512d6609f9decedc6e07fe2254c6341b7a5b6fb541a3e45cd54d94c5ffb34f2e710d4629d9feeefc4e27de0274e6143b5a7b4f9521c3843cb52df4a59fd32f4e116d2649b99e8e9c2e47be621486745b3a1b2ff501e3a41c950dd485bff30f6e314d066999beaebc0e679e4234a6547b1a3b0fd5e10344fc75ed34655f13ef8ed1ade689795e4e5cee877ea2d446b49bfadbef35c12364dc55cd14457f33cfaef18dc6a9597e6e7ccea75e82f46694bbdafbcf15a14304bc35ad74251f53afce91eda6c9391e0e1caec73ee29406f4dbba9baf758163249c158d54053f738feeb1cd86e9193e2e3c8ee71ec2b426d4fb9abb8f556183c47cf56db4e5df936f0e512d66099161c6cb81faf8dcd5923b38bef5963ec141db7a3a6162ae4bbe5ce126339ce9",
        "type": "nulldata"
      }
    }
  ],
  "blockhash": "a1887b0a0b2991e806ccea2240d48d15dc99191e60c31f7623b06398d7a984df",
  "confirmations": 1,
  "time": 1764178092,
  "blocktime": 1764178092
}