{
  "hex": "01000000000101a9dbda4b06c549b10ac40a80d384391f8dd1b6adf1a310b245693764d41c65590100000000feffffff0220cc6133792d0000225120549e02a808301a3298026c41057223c1ae85123a18d4d5470cdd3b6e67cd532a00e1f50500000000fdd5046a205a3c5430311047689542aa2b363938928d3c50237c8104f353a29841dda7aa0a4db0040d28716644f5ebbca7229ceea7e234853fb32b7e09a71b1b637c8153cd6e30e82d08514664d5cb9c8702bcce87c214a51f930b5e29873b3b435ca173ed4e10c84d68312604b5abfce762dcaee7a274c57ff36b3e49e75b5b233cc1138d2e70a86d48110624958bdcc742fc8ec78254e55fd34b1e69c77b7b031ce133ad0e50888da8f1e6c4756b3c27a21c6e2762b405bf33abfe89279b9be3fc01d34deeb068ad88d1c6e4554b1c07823c4e074294259f138bdea907bbbbc3dc21f36dce9048cde8b1a684352b7c67e25c2e6722f445ff73ebbec967dbdba3bc41930daef028edc89186a4150b5c47c27c0e4702d465df53cb9ee947fbfb839c61b32d8ed0080d28716644f5ebbca7229ceea7e234853fb32b7e09a71b1b637c8153cd6e30e82d08514664d5cb9c8702bcce87c214a51f930b5e29873b3b435ca173ed4e10c84d68312604b5abfce762dcaee7a274c57ff36b3e49e75b5b233cc1138d2e70a86d48110624958bdcc742fc8ec78254e55fd34b1e69c77b7b031ce133ad0e50888da8f1e6c4756b3c27a21c6e2762b405bf33abfe89279b9be3fc01d34deeb068ad88d1c6e4554b1c07823c4e074294259f138bdea907bbbbc3dc21f36dce9048cde8b1a684352b7c67e25c2e6722f445ff73ebbec967dbdba3bc41930daef028edc89186a4150b5c47c27c0e4702d465df53cb9ee947fbfb839c61b32d8ed0080d28716644f5ebbca7229ceea7e234853fb32b7e09a71b1b637c8153cd6e30e82d08514664d5cb9c8702bcce87c214a51f930b5e29873b3b435ca173ed4e10c84d68312604b5abfce762dcaee7a274c57ff36b3e49e75b5b233cc1138d2e70a86d48110624958bdcc742fc8ec78254e55fd34b1e69c77b7b031ce133ad0e50888da8f1e6c4756b3c27a21c6e2762b405bf33abfe89279b9be3fc01d34deeb068ad88d1c6e4554b1c07823c4e074294259f138bdea907bbbbc3dc21f36dce9048cde8b1a684352b7c67e25c2e6722f445ff73ebbec967dbdba3bc41930daef028edc89186a4150b5c47c27c0e4702d465df53cb9ee947fbfb839c61b32d8ed0080d28716644f5ebbca7229ceea7e234853fb32b7e09a71b1b637c8153cd6e30e82d08514664d5cb9c8702bcce87c214a51f930b5e29873b3b435ca173ed4e10c84d68312604b5abfce762dcaee7a274c57ff36b3e49e75b5b233cc1138d2e70a86d48110624958bdcc742fc8ec78254e55fd34b1e69c77b7b031ce133ad0e50888da8f1e6c4756b3c27a21c6e2762b405bf33abfe89279b9be3fc01d34deeb068ad88d1c6e4554b1c07823c4e074294259f138bdea907bbbbc3dc21f36dce9048cde8b1a684352b7c67e25c2e6722f445ff73ebbec967dbdba3bc41930daef028edc89186a4150b5c47c27c0e4702d465df53cb9ee947fbfb839c61b32d8ed0080d28716644f5ebbca7229ceea7e234853fb32b7e09a71b1b637c8153cd6e30e82d08514664d5cb9c8702bcce87c214a51f930b5e29873b3b435ca173ed4e10c84d68312604b5abfce762dcaee7a274c57ff36b3e49e75b5b233cc1138d2e70a86d48110624958bdcc742fc8ec78254e55fd34b1e69c77b7b031ce133ad0e50888da8f1e6c4756b3c27a21c6e2762b405faf9324e5fcbfc3d2dd716a97d4df30e8b09ec1d48cd1f7579bcc561d50d652402fd7509185a344ffdbfed7a576c6f9c960f771b99a8a1113b2aa705b3bb70fdff1a8a5f7063a8b6e723eaff1eb4c516ac50b059372b015652a6735aecb0b04dcfa3b53912eeb2e47b45e5857f5c87c850eb5b76576426c3653bb9f280d69f7efbf976514f53967d0c327e893648b9fe195523dee4bfb57e08d7e011f425954b367fb035e37c55ea77862bb4c5b703778f8a17f7232ee6cff0597af9a30c373155da76830c3025e8efac0fb86e04ecfa5a945b127de31b17a36112e560dcc577af7808be6b49c7478048165be21ba435d88a28a129abbcc36ef34ef4d1cb005c4a0432d85eab32669240ad2e9bc37c1687a07febdb0bb98503e629bb775dadc26d07135ec0bec16863e93c54c30aa9417a69e6c49cbfe41aaaedf19ae62dc847b6de20dc162c3197f76c75b2efb45d9ee6bb3c28f4a82b9b6fa796df5dffa047d5fc35deab80c2a066a032b9c8861b79ad209e4d76348245cb87d6c82ebfcf9508d3ff19f1b1a6ad8f9da4022fa14883870ac5f1e4be995db7c5318a60ec816c34a790a6d6c91ba865df2059ec9d595e9e7f764c6685cf9514cd73a0c40640d06a519e20bf04032c24d4c265fa6fec49e83ee7a081e70ed24142185ae26ba95f7a38a632e5b4343029bfbfffc24aba54a4248421bd93c17dcca23e575481b651c0a46282f6ef1bafb56b647015743e378fcc5252c36a696417b512791d33f09f85333171ad864da513eb937c2bc7ec3997eda1c601ab3d39bad181d7980d0b907c0506ada538a715e131bbb67e0d7b871d5cf65e30f104ab138aad82c3378a4ca1720c3674f5eb5f871a9d28f0f88a4144db30549a1a769410c2ed199c82b97b01c27359ac0365e995dd2fad8e6107104ecf11e1276e44105d0150bcf6fefb1382b9ac5baa42b1633325463f98d613636e60e9dc023b96d82d3ef34f775508ae1761a0b75902bedb0d32e05b15a75c3e04add9a2fc61be563089e4a1f86ceaa6765639b7c273bbebe1c56c8bfcdd77186088f4752a6f47e40647bed8f60a74b32bf96c90aba7dada675557dc5dd89ed24d3273a9d7f8bd491a0b1bedd5fe5ecc27d6e1de14d76e9fd17c071b907fb3b676845113457ec39b3cd3ec0ec180af35e8751705039a2155c6616081da8a2b5f4668e668bc088935a7359aa25fd1128e385680b2d85806d376eae676da977cf0cecd5944937827d39c646231807e959e55319094c33ead17d93d6a4898f80eccd604f75c14751890808c339515e83d219dd45070c1af417e25d0f8e29bf23139ed647614559f552f3460201e823af1e77b1f24be2b0f65398fbeede2dedf65660ab3b2a68c1474416b4944219d8b0a493d337e40f8981757f1752e2d12b20187cd955fc041d5f9e2dc51a6818663da43ab10169061ce6c5f11d032dc7a4e09a7f94b7a7656a0b976f2820369a90409ca36b7b1e9a657c32de9eb6f1897642f05e66209efad54f3f1367ba515a497ba9a2465a7bfd0148d63338582252ad6de4d123ddb6bfe0371eed0835d41ac275a59207118afeb9f325b7fe2b27eeb57d3369e18e40754a159958ee0c071f11e9b715c114d1ef434d45bd561f1e5fdf2a39e1a0db643e29690058d700c8996daaa0a75ae03a2520518b1a312670acc0bcfc7d87bd49554e4ae5a30261a35885c60316788ae389b72ccabcf09a06c618b280c04d7875fc3914b24b4fb9d2518c521c9025373c04a9410bc56d7256b40df134f28187b1c413db42f66477af182d8d5748094408c29bc81cf2739e3b2519889b3d350f6e85e927b4c537f48a2d296efc92fb45432aeaed5e559d68e3dbfac7c829c5e726deb63293ff5f02c04d6b7575ba0f6c5316bc9bc347bb4a09b54331f72b99226e88cfd4bbc2435e1b12a063fc920c534fa654dfa4101b36aaf2f450dba78167c20bf197479caf1f0792da2ccb759514fdfba3f00962b7675e6eaa7f4dfbe0085c8c7ea5ee447e119c0cb55d65359f0e036fa7975adc28492901e140985aa9a3edf8e40f92dda3b35aa14297c1292bd11d3245b829bed362c5762d944abc8c489ab15107278ad59070ea7c76ecf215754d10210ab84a9ad9741e8f5b6f099e52189eb109573e14f7afc8bf12c0a0e397e97b0a67bbcc09f4fdac19d99ad0624eb30b0d91de5bfd151b176611734c252e64b09f0c64af5eb8cec1e0ad6842fa83c4630b18d67db59895d9827f0943941416c8dc478fc254f01794fc850f1f4b897b95e7d49ee3eed8efaca6f22f4f8663d966826820e69c037be2435230b7312f2c3bda350dca67b8356621f86f29301c4bf6da735a8970f7f7c52d8146dc6af76d36c685bcdf2322d0a541c00fc9b82074e09480edf3167fe2964c1505108b9bea9c558dd63cf8e40fd72b54ddc085a873e478bc32d4f1a31e4bc9597536453f26e15cb33cfe596afa778190aaa54c69b6a9645c7db95b86baeb0402bc1d68bbdd74926c4bd4cd6d0f9000c6653725c09cec8d2f00c0ebf00a23614e034523f2cc3ab4fdc586b7f27c26efd1fc1c49f0f02a9f533502af3d323feedebe41715321f347dc2d00c1774776c87c0f5010b05a3a74793aa2a86611dff6f7cd71ad4c0a1d957b05dd931ab19337b43c9d930f2714880354f8416e1ddb1abdd78fcf4f2fa9236f7c166b60ab621d74b66416ab7924b3e123f162c0aae273161c6a6983f1e0ca890977237ae3d855f80f5b5e394ed63a180446c0476f5965073a7f49a1f22b92a5c5d15b7f6a9931100d0c066f379df78a9a81f271b57ace32495e956910677f493c7132c97eb12647e2469a34057e10dc11d4ce1965d751c3994884b1a0d4adae55607fc75c001d1ca2565540213fd091bef7ff15749d7ee79ab4f31df4828de1c0f85c4d896e7c0a606b107154b691a778896f0d6be212df4b27c9918958cc371cad7b42a8edbf064839cae93a6a836368556e4c4daaa0ff8592f5b223098580f95f42030c75daacca0d17b58948e0a7835dec8e93ff391bda1972d616f0b2b90d29682343c1f3d883badfdf0e96069b22431e514da596f352bb0723966b6e525dda87bf14a7accf4c61b4f5a500874de71c99522178393788c9dcdccd7764cc7bf57d856e37ff596186cada6260920d85e8f1a8b9c56d565445fbc9512a7bccdf8b337953f58fc6586b111e4859cba7ceab0e69708197d2a727879d2d677acde612760cdd89087d761d25504842d84c47620310022448664d2062139ebd1e662b7006f38c12a23b6796e97d8d235a0af29f065239eca7f2a4dd09816b83d759fa1aca495fa29301accd176481a0d0e2326434a6083868b99babdc8ec080b2e34373d525c5e687478797e8994b1b4b5c0cfd8f40d5c6b7c83a0accb0010113034353d3e516d7986899ea6a8cae5eff700000000000000000000000000000f262e4201fd2105005ae52fcad6970f6139312c9de793b2348e8397791925d96795885acb721a3c68464bdda95241156c2ad2231ab481fcbed8a860e5c02e8f81a303f138c890dbfd5fd93a8b217b5c7264305bf9f3f7d191af49c42d2d70f36a6a53db993d707ee3c5cfdc5388fae990ccce07ce2c2ce16012a05d7e34af478d94d61b12d7fb3dc67ee03ae7e2f4c0e7a8397c23c277406148c4bed42a03ad200cd73f1897eea3a88ff2351fb14b00b4ffce39b16c93a6cabd519080313ef5864e05525acd89f8241affb96d62a8ac755e0d0b7a0bb7cb4e3bcb0427fe6df1a5243f470d890694025425cf598c2499d424d730b63c00863b324669bbdcd81f6f2967847f35431e521e166c1e44b07e39b30708661a8c629dcd8adf300c7a2733490645d221b6248ade6d0b34d9d4038edf868d11c724909d75e810db4440bda3fa5fb2576e708945f0fb2c929660ce7a0d95ecbfa946e0410871a5ba15575a1d4b30071a22b183678161f303b2c35eead6ac20d074412caa80e0e2c3ebe106a00148ebd4b9fec38971ca06e5fac3002b19174548b1df32ba63c66842bda1a4c4cfd79be8e9094a8af7ca84f2d1174c7cda4f6126893625895dbabb4a2429a048fb64c0953806d73973c537ae4024a546f641134972835b8777c716464e1e05eee6306f17d2dbe6c13647bda9d58474dfa0b06bdbc0f1b0cd1850437b971e4afb56cf7d1921180dd1ce455aa319676d6cd87328cc7043f33909eb95629c4da89e6ca51606cbc52ffe611317c0e923482b4533df828e81082e62179e6a314d8f165b76514b49442c07521123f12490bafbfdf6d2eff25eb10120ebc054bc76375b8a0f17075ebb7f219b780436a6aa491386dddb2a9e644d8ad8fcd55dbad6bb3e0c23532fc83e4668aee4ac27281ca7382a62928d217e6c2fdaa0d3ab2695d63a6bec28432f27325d8a0a7dae2068827629e22c43b5feb8061e90bf8d4ac2b5882e0de9c2c0977ecca3f141046462ec2dc402d33de4631c86686382d2b4cffa736ed678056d6e066dc4b976d2681f0c5bc4ad0b43801f4d05eb033b9d642ac26945c4b67e7df63bfdf5e771363a8598771af7f93b1ea15beb9c997ccf1201fdde0208f765b1985a4206551d8be4449629cbb181c5cb2d8d019a09e1e985cba418331583d7b56c25a301068c6978bfff6a4ee37ff481e02d40c942ff55feb8b73c90257c6715dde925c1927c5884cbe9c22d5eaf713581d6fccba1e4ae159c1df87222c27bb57961c542757d5fccfa86401f835aea1527ecc43f7f3a7a532f214cf8a75ac7781c5ad69cbe1a0932778bf630d657d746d76da3518473077cf56418e97d3b5f3bb0684d2b87403b8c1ca09aaf59ee310705468afd9b9cbf763e1904bd40bcdbab15b41bfc0f0767326b9667e1ad98895ad8459f51b9acc39828ccf64f6bc9408d08e7cd37dd2cde271561f97626d9dea12aa139728350e93bd58c4d7f58323b6e0c0fd0cef6bbec2f94ad9f55e223e8c7d4931258eb05eddc54b58e576dd06a6f5795fa6109dd1ed7fef019172be1cc14e6afab8ff34410913d9d1f4398a7446550a0c226642db7a2cc883acf37db2a3645eb1dfc5b80bc45341535b2381a9788c9af77422c7147039e4c85d90d569ae8e69f7c9d85e26674b41f524eeba07100c9622665d03c95928ec24061dbdc9bce2fb969a20a27978d943c2cda92dffcac0123c4c9c3e19a9fc8a73c23d58ebde46b72eeb5a2785ba296ca55ba9fb3441599e0952521fb271a2f3d8c55cf65e1a72bb41519c6ca5775c5ae145c133d8487c0937bc66c939369d18178070a1df85ec1d50020d4b7ec5a7f511b6d4b3cf52fc7194070000000",
  "txid": "77b0057727425c6b2e2b8e35c04564666b12b82d2226727b9944860265112302",
  "hash": "d72665fef1eda839b151c5a038d59a4418271d47b131e27735dde0d0ba5ef1bc",
  "size": 5085,
  "vsize": 2278,
  "version": 1,
  "locktime": 112,
  "vin": [
    {
      "txid": "59651cd464376945b210a3f1adb6d18d1f3984d3800ac40ab149c5064bdadba9",
      "vout": 1,
      "scriptSig": {
        "asm": "",
        "hex": ""
      },
      "txinwitness": [
        "185a344ffdbfed7a576c6f9c960f771b99a8a1113b2aa705b3bb70fdff1a8a5f7063a8b6e723eaff1eb4c516ac50b059372b015652a6735aecb0b04dcfa3b53912eeb2e47b45e5857f5c87c850eb5b76576426c3653bb9f280d69f7efbf976514f53967d0c327e893648b9fe195523dee4bfb57e08d7e011f425954b367fb035e37c55ea77862bb4c5b703778f8a17f7232ee6cff0597af9a30c373155da76830c3025e8efac0fb86e04ecfa5a945b127de31b17a36112e560dcc577af7808be6b49c7478048165be21ba435d88a28a129abbcc36ef34ef4d1cb005c4a0432d85eab32669240ad2e9bc37c1687a07febdb0bb98503e629bb775dadc26d07135ec0bec16863e93c54c30aa9417a69e6c49cbfe41aaaedf19ae62dc847b6de20dc162c3197f76c75b2efb45d9ee6bb3c28f4a82b9b6fa796df5dffa047d5fc35deab80c2a066a032b9c8861b79ad209e4d76348245cb87d6c82ebfcf9508d3ff19f1b1a6ad8f9da4022fa14883870ac5f1e4be995db7c5318a60ec816c34a790a6d6c91ba865df2059ec9d595e9e7f764c6685cf9514cd73a0c40640d06a519e20bf04032c24d4c265fa6fec49e83ee7a081e70ed24142185ae26ba95f7a38a632e5b4343029bfbfffc24aba54a4248421bd93c17dcca23e575481b651c0a46282f6ef1bafb56b647015743e378fcc5252c36a696417b512791d33f09f85333171ad864da513eb937c2bc7ec3997eda1c601ab3d39bad181d7980d0b907c0506ada538a715e131bbb67e0d7b871d5cf65e30f104ab138aad82c3378a4ca1720c3674f5eb5f871a9d28f0f88a4144db30549a1a769410c2ed199c82b97b01c27359ac0365e995dd2fad8e6107104ecf11e1276e44105d0150bcf6fefb1382b9ac5baa42b1633325463f98d613636e60e9dc023b96d82d3ef34f775508ae1761a0b75902bedb0d32e05b15a75c3e04add9a2fc61be563089e4a1f86ceaa6765639b7c273bbebe1c56c8bfcdd77186088f4752a6f47e40647bed8f60a74b32bf96c90aba7dada675557dc5dd89ed24d3273a9d7f8bd491a0b1bedd5fe5ecc27d6e1de14d76e9fd17c071b907fb3b676845113457ec39b3cd3ec0ec180af35e8751705039a2155c6616081da8a2b5f4668e668bc088935a7359aa25fd1128e385680b2d85806d376eae676da977cf0cecd5944937827d39c646231807e959e55319094c33ead17d93d6a4898f80eccd604f75c14751890808c339515e83d219dd45070c1af417e25d0f8e29bf23139ed647614559f552f3460201e823af1e77b1f24be2b0f65398fbeede2dedf65660ab3b2a68c1474416b4944219d8b0a493d337e40f8981757f1752e2d12b20187cd955fc041d5f9e2dc51a6818663da43ab10169061ce6c5f11d032dc7a4e09a7f94b7a7656a0b976f2820369a90409ca36b7b1e9a657c32de9eb6f1897642f05e66209efad54f3f1367ba515a497ba9a2465a7bfd0148d63338582252ad6de4d123ddb6bfe0371eed0835d41ac275a59207118afeb9f325b7fe2b27eeb57d3369e18e40754a159958ee0c071f11e9b715c114d1ef434d45bd561f1e5fdf2a39e1a0db643e29690058d700c8996daaa0a75ae03a2520518b1a312670acc0bcfc7d87bd49554e4ae5a30261a35885c60316788ae389b72ccabcf09a06c618b280c04d7875fc3914b24b4fb9d2518c521c9025373c04a9410bc56d7256b40df134f28187b1c413db42f66477af182d8d5748094408c29bc81cf2739e3b2519889b3d350f6e85e927b4c537f48a2d296efc92fb45432aeaed5e559d68e3dbfac7c829c5e726deb63293ff5f02c04d6b7575ba0f6c5316bc9bc347bb4a09b54331f72b99226e88cfd4bbc2435e1b12a063fc920c534fa654dfa4101b36aaf2f450dba78167c20bf197479caf1f0792da2ccb759514fdfba3f00962b7675e6eaa7f4dfbe0085c8c7ea5ee447e119c0cb55d65359f0e036fa7975adc28492901e140985aa9a3edf8e40f92dda3b35aa14297c1292bd11d3245b829bed362c5762d944abc8c489ab15107278ad59070ea7c76ecf215754d10210ab84a9ad9741e8f5b6f099e52189eb109573e14f7afc8bf12c0a0e397e97b0a67bbcc09f4fdac19d99ad0624eb30b0d91de5bfd151b176611734c252e64b09f0c64af5eb8cec1e0ad6842fa83c4630b18d67db59895d9827f0943941416c8dc478fc254f01794fc850f1f4b897b95e7d49ee3eed8efaca6f22f4f8663d966826820e69c037be2435230b7312f2c3bda350dca67b8356621f86f29301c4bf6da735a8970f7f7c52d8146dc6af76d36c685bcdf2322d0a541c00fc9b82074e09480edf3167fe2964c1505108b9bea9c558dd63cf8e40fd72b54ddc085a873e478bc32d4f1a31e4bc9597536453f26e15cb33cfe596afa778190aaa54c69b6a9645c7db95b86baeb0402bc1d68bbdd74926c4bd4cd6d0f9000c6653725c09cec8d2f00c0ebf00a23614e034523f2cc3ab4fdc586b7f27c26efd1fc1c49f0f02a9f533502af3d323feedebe41715321f347dc2d00c1774776c87c0f5010b05a3a74793aa2a86611dff6f7cd71ad4c0a1d957b05dd931ab19337b43c9d930f2714880354f8416e1ddb1abdd78fcf4f2fa9236f7c166b60ab621d74b66416ab7924b3e123f162c0aae273161c6a6983f1e0ca890977237ae3d855f80f5b5e394ed63a180446c0476f5965073a7f49a1f22b92a5c5d15b7f6a9931100d0c066f379df78a9a81f271b57ace32495e956910677f493c7132c97eb12647e2469a34057e10dc11d4ce1965d751c3994884b1a0d4adae55607fc75c001d1ca2565540213fd091bef7ff15749d7ee79ab4f31df4828de1c0f85c4d896e7c0a606b107154b691a778896f0d6be212df4b27c9918958cc371cad7b42a8edbf064839cae93a6a836368556e4c4daaa0ff8592f5b223098580f95f42030c75daacca0d17b58948e0a7835dec8e93ff391bda1972d616f0b2b90d29682343c1f3d883badfdf0e96069b22431e514da596f352bb0723966b6e525dda87bf14a7accf4c61b4f5a500874de71c99522178393788c9dcdccd7764cc7bf57d856e37ff596186cada6260920d85e8f1a8b9c56d565445fbc9512a7bccdf8b337953f58fc6586b111e4859cba7ceab0e69708197d2a727879d2d677acde612760cdd89087d761d25504842d84c47620310022448664d2062139ebd1e662b7006f38c12a23b6796e97d8d235a0af29f065239eca7f2a4dd09816b83d759fa1aca495fa29301accd176481a0d0e2326434a6083868b99babdc8ec080b2e34373d525c5e687478797e8994b1b4b5c0cfd8f40d5c6b7c83a0accb0010113034353d3e516d7986899ea6a8cae5eff700000000000000000000000000000f262e4201",
        "005ae52fcad6970f6139312c9de793b2348e8397791925d96795885acb721a3c68464bdda95241156c2ad2231ab481fcbed8a860e5c02e8f81a303f138c890dbfd5fd93a8b217b5c7264305bf9f3f7d191af49c42d2d70f36a6a53db993d707ee3c5cfdc5388fae990ccce07ce2c2ce16012a05d7e34af478d94d61b12d7fb3dc67ee03ae7e2f4c0e7a8397c23c277406148c4bed42a03ad200cd73f1897eea3a88ff2351fb14b00b4ffce39b16c93a6cabd519080313ef5864e05525acd89f8241affb96d62a8ac755e0d0b7a0bb7cb4e3bcb0427fe6df1a5243f470d890694025425cf598c2499d424d730b63c00863b324669bbdcd81f6f2967847f35431e521e166c1e44b07e39b30708661a8c629dcd8adf300c7a2733490645d221b6248ade6d0b34d9d4038edf868d11c724909d75e810db4440bda3fa5fb2576e708945f0fb2c929660ce7a0d95ecbfa946e0410871a5ba15575a1d4b30071a22b183678161f303b2c35eead6ac20d074412caa80e0e2c3ebe106a00148ebd4b9fec38971ca06e5fac3002b19174548b1df32ba63c66842bda1a4c4cfd79be8e9094a8af7ca84f2d1174c7cda4f6126893625895dbabb4a2429a048fb64c0953806d73973c537ae4024a546f641134972835b8777c716464e1e05eee6306f17d2dbe6c13647bda9d58474dfa0b06bdbc0f1b0cd1850437b971e4afb56cf7d1921180dd1ce455aa319676d6cd87328cc7043f33909eb95629c4da89e6ca51606cbc52ffe611317c0e923482b4533df828e81082e62179e6a314d8f165b76514b49442c07521123f12490bafbfdf6d2eff25eb10120ebc054bc76375b8a0f17075ebb7f219b780436a6aa491386dddb2a9e644d8ad8fcd55dbad6bb3e0c23532fc83e4668aee4ac27281ca7382a62928d217e6c2fdaa0d3ab2695d63a6bec28432f27325d8a0a7dae2068827629e22c43b5feb8061e90bf8d4ac2b5882e0de9c2c0977ecca3f141046462ec2dc402d33de4631c86686382d2b4cffa736ed678056d6e066dc4b976d2681f0c5bc4ad0b43801f4d05eb033b9d642ac26945c4b67e7df63bfdf5e771363a8598771af7f93b1ea15beb9c997ccf1201fdde0208f765b1985a4206551d8be4449629cbb181c5cb2d8d019a09e1e985cba418331583d7b56c25a301068c6978bfff6a4ee37ff481e02d40c942ff55feb8b73c90257c6715dde925c1927c5884cbe9c22d5eaf713581d6fccba1e4ae159c1df87222c27bb57961c542757d5fccfa86401f835aea1527ecc43f7f3a7a532f214cf8a75ac7781c5ad69cbe1a0932778bf630d657d746d76da3518473077cf56418e97d3b5f3bb0684d2b87403b8c1ca09aaf59ee310705468afd9b9cbf763e1904bd40bcdbab15b41bfc0f0767326b9667e1ad98895ad8459f51b9acc39828ccf64f6bc9408d08e7cd37dd2cde271561f97626d9dea12aa139728350e93bd58c4d7f58323b6e0c0fd0cef6bbec2f94ad9f55e223e8c7d4931258eb05eddc54b58e576dd06a6f5795fa6109dd1ed7fef019172be1cc14e6afab8ff34410913d9d1f4398a7446550a0c226642db7a2cc883acf37db2a3645eb1dfc5b80bc45341535b2381a9788c9af77422c7147039e4c85d90d569ae8e69f7c9d85e26674b41f524eeba07100c9622665d03c95928ec24061dbdc9bce2fb969a20a27978d943c2cda92dffcac0123c4c9c3e19a9fc8a73c23d58ebde46b72eeb5a2785ba296ca55ba9fb3441599e0952521fb271a2f3d8c55cf65e1a72bb41519c6ca5775c5ae145c133d8487c0937bc66c939369d18178070a1df85ec1d50020d4b7ec5a7f511b6d4b3cf52fc71940"
      ],
      "sequence": 4294967294
    }
  ],
  "vout": [
    {
      "value": 499985.7634,
      "n": 0,
      "scriptPubKey": {
        "asm": "1 549e02a808301a3298026c41057223c1ae85123a18d4d5470cdd3b6e67cd532a",
        "hex": "5120549e02a808301a3298026c41057223c1ae85123a18d4d5470cdd3b6e67cd532a",
        "reqSigs": 1,
        "type": "witness_v1_scripthash",
        "addresses": [
          "3QJmnh"
        ]
      }
    },
    {
      "value": 1.0,
      "n": 1,
      "scriptPubKey": {
        "asm": "OP_RETURN 5a3c5430311047689542aa2b363938928d3c50237c8104f353a29841dda7aa0a 0d28716644f5ebbca7229ceea7e234853fb32b7e09a71b1b637c8153cd6e30e82d08514664d5cb9c8702bcce87c214a51f930b5e29873b3b435ca173ed4e10c84d68312604b5abfce762dcaee7a274c57ff36b3e49e75b5b233cc1138d2e70a86d48110624958bdcc742fc8ec78254e55fd34b1e69c77b7b031ce133ad0e50888da8f1e6c4756b3c27a21c6e2762b405bf33abfe89279b9be3fc01d34deeb068ad88d1c6e4554b1c07823c4e074294259f138bdea907bbbbc3dc21f36dce9048cde8b1a684352b7c67e25c2e6722f445ff73ebbec967dbdba3bc41930daef028edc89186a4150b5c47c27c0e4702d465df53cb9ee947fbfb839c61b32d8ed0080d28716644f5ebbca7229ceea7e234853fb32b7e09a71b1b637c8153cd6e30e82d08514664d5cb9c8702bcce87c214a51f930b5e29873b3b435ca173ed4e10c84d68312604b5abfce762dcaee7a274c57ff36b3e49e75b5b233cc1138d2e70a86d48110624958bdcc742fc8ec78254e55fd34b1e69c77b7b031ce133ad0e50888da8f1e6c4756b3c27a21c6e2762b405bf33abfe89279b9be3fc01d34deeb068ad88d1c6e4554b1c07823c4e074294259f138bdea907bbbbc3dc21f36dce9048cde8b1a684352b7c67e25c2e6722f445ff73ebbec967dbdba3bc41930daef028edc89186a4150b5c47c27c0e4702d465df53cb9ee947fbfb839c61b32d8ed0080d28716644f5ebbca7229ceea7e234853fb32b7e09a71b1b637c8153cd6e30e82d08514664d5cb9c8702bcce87c214a51f930b5e29873b3b435ca173ed4e10c84d68312604b5abfce762dcaee7a274c57ff36b3e49e75b5b233cc1138d2e70a86d48110624958bdcc742fc8ec78254e55fd34b1e69c77b7b031ce133ad0e50888da8f1e6c4756b3c27a21c6e2762b405bf33abfe89279b9be3fc01d34deeb068ad88d1c6e4554b1c07823c4e074294259f138bdea907bbbbc3dc21f36dce9048cde8b1a684352b7c67e25c2e6722f445ff73ebbec967dbdba3bc41930daef028edc89186a4150b5c47c27c0e4702d465df53cb9ee947fbfb839c61b32d8ed0080d28716644f5ebbca7229ceea7e234853fb32b7e09a71b1b637c8153cd6e30e82d08514664d5cb9c8702bcce87c214a51f930b5e29873b3b435ca173ed4e10c84d68312604b5abfce762dcaee7a274c57ff36b3e49e75b5b233cc1138d2e70a86d48110624958bdcc742fc8ec78254e55fd34b1e69c77b7b031ce133ad0e50888da8f1e6c4756b3c27a21c6e2762b405bf33abfe89279b9be3fc01d34deeb068ad88d1c6e4554b1c07823c4e074294259f138bdea907bbbbc3dc21f36dce9048cde8b1a684352b7c67e25c2e6722f445ff73ebbec967dbdba3bc41930daef028edc89186a4150b5c47c27c0e4702d465df53cb9ee947fbfb839c61b32d8ed0080d28716644f5ebbca7229ceea7e234853fb32b7e09a71b1b637c8153cd6e30e82d08514664d5cb9c8702bcce87c214a51f930b5e29873b3b435ca173ed4e10c84d68312604b5abfce762dcaee7a274c57ff36b3e49e75b5b233cc1138d2e70a86d48110624958bdcc742fc8ec78254e55fd34b1e69c77b7b031ce133ad0e50888da8f1e6c4756b3c27a21c6e2762b405faf9324e5fcbfc3d2dd716a97d4df30e8b09ec1d48cd1f7579bcc561d50d6524",
        "hex": "6a205a3c5430311047689542aa2b363938928d3c50237c8104f353a29841dda7aa0a4db0040d28716644f5ebbca7229ceea7e234853fb32b7e09a71b1b637c8153cd6e30e82d08514664d5cb9c8702bcce87c214a51f930b5e29873b3b435ca173ed4e10c84d68312604b5abfce762dcaee7a274c57ff36b3e49e75b5b233cc1138d2e70a86d48110624958bdcc742fc8ec78254e55fd34b1e69c77b7b031ce133ad0e50888da8f1e6c4756b3c27a21c6e2762b405bf33abfe89279b9be3fc01d34deeb068ad88d1c6e4554b1c07823c4e074294259f138bdea907bbbbc3dc21f36dce9048cde8b1a684352b7c67e25c2e6722f445ff73ebbec967dbdba3bc41930daef028edc89186a4150b5c47c27c0e4702d465df53cb9ee947fbfb839c61b32d8ed0080d28716644f5ebbca7229ceea7e234853fb32b7e09a71b1b637c8153cd6e30e82d08514664d5cb9c8702bcce87c214a51f930b5e29873b3b435ca173ed4e10c84d68312604b5abfce762dcaee7a274c57ff36b3e49e75b5b233cc1138d2e70a86d48110624958bdcc742fc8ec78254e55fd34b1e69c77b7b031ce133ad0e50888da8f1e6c4756b3c27a21c6e2762b405bf33abfe89279b9be3fc01d34deeb068ad88d1c6e4554b1c07823c4e074294259f138bdea907bbbbc3dc21f36dce9048cde8b1a684352b7c67e25c2e6722f445ff73ebbec967dbdba3bc41930daef028edc89186a4150b5c47c27c0e4702d465df53cb9ee947fbfb839c61b32d8ed0080d28716644f5ebbca7229ceea7e234853fb32b7e09a71b1b637c8153cd6e30e82d08514664d5cb9c8702bcce87c214a51f930b5e29873b3b435ca173ed4e10c84d68312604b5abfce762dcaee7a274c57ff36b3e49e75b5b233cc1138d2e70a86d48110624958bdcc742fc8ec78254e55fd34b1e69c77b7b031ce133ad0e50888da8f1e6c4756b3c27a21c6e2762b405bf33abfe89279b9be3fc01d34deeb068ad88d1c6e4554b1c07823c4e074294259f138bdea907bbbbc3dc21f36dce9048cde8b1a684352b7c67e25c2e6722f445ff73ebbec967dbdba3bc41930daef028edc89186a4150b5c47c27c0e4702d465df53cb9ee947fbfb839c61b32d8ed0080d28716644f5ebbca7229ceea7e234853fb32b7e09a71b1b637c8153cd6e30e82d08514664d5cb9c8702bcce87c214a51f930b5e29873b3b435ca173ed4e10c84d68312604b5abfce762dcaee7a274c57ff36b3e49e75b5b233cc1138d2e70a86d48110624958bdcc742fc8ec78254e55fd34b1e69c77b7b031ce133ad0e50888da8f1e6c4756b3c27a21c6e2762b405bf33abfe89279b9be3fc01d34deeb068ad88d1c6e4554b1c07823c4e074294259f138bdea907bbbbc3dc21f36dce9048cde8b1a684352b7c67e25c2e6722f445ff73ebbec967dbdba3bc41930daef028edc89186a4150b5c47c27c0e4702d465df53cb9ee947fbfb839c61b32d8ed0080d28716644f5ebbca7229ceea7e234853fb32b7e09a71b1b637c8153cd6e30e82d08514664d5cb9c8702bcce87c214a51f930b5e29873b3b435ca173ed4e10c84d68312604b5abfce762dcaee7a274c57ff36b3e49e75b5b233cc1138d2e70a86d48110624958bdcc742fc8ec78254e55fd34b1e69c77b7b031ce133ad0e50888da8f1e6c4756b3c27a21c6e2762b405faf9324e5fcbfc3d2dd716a97d4df30e8b09ec1d48cd1f7579bcc561d50d6524",
        "type": "nulldata"
      }
    }
  ],
  "blockhash": "0588000bb82f4b14ca9e4626330a5c84a7bb9e1c31fd2ade5c3732d80cc4fd85",
  "confirmations": 1,
  "time": 1764178356,
  "blocktime": 1764178356
}