{
  "hex": "01000000000101c834752658d1acc59647bef2285cae1988ccb4da1aebede57aa677e3533e700a0000000000feffffff0200e1f50500000000fdd5046a201bb963e308aa98cecae83c441dfa447e2935880c20c4bdae75215179c4a9d52b4db0048d06641f28852ab7cba6dded7c8fa8d7f765f1b4fb582cc250f28d8e06db7beaad26443f08a50a97eb86fdcd5caf88f7d745d194db780ce270d2adae26fb5bcacd46245f68c56af78be69dad3ccfe897b725b1f4bb186c8210b2cdce469b3baaed66047f48e54ad7abc6bd8d1cefc8b7970591d49b384ca23092edee66bb1b8a0d86e49fa805aa374b265d6dfc0f285777e571347bd8ac42d0720d0e865bfb6a2da6c4bf88258a176b067d4ddc2f087757c551145bf88c62f0522d2ea67bdb4a4dc6a4dfe845ea770b661d2dbc4f681737a531743b98ec0290324d4ec61bbb2a6de684ffc865ca572b463d0d9c6f4837178511541bb8cc22b0126d6ee63b9b0a8d06641f28852ab7cba6dded7c8fa8d7f765f1b4fb582cc250f28d8e06db7beaad26443f08a50a97eb86fdcd5caf88f7d745d194db780ce270d2adae26fb5bcacd46245f68c56af78be69dad3ccfe897b725b1f4bb186c8210b2cdce469b3baaed66047f48e54ad7abc6bd8d1cefc8b7970591d49b384ca23092edee66bb1b8a0d86e49fa805aa374b265d6dfc0f285777e571347bd8ac42d0720d0e865bfb6a2da6c4bf88258a176b067d4ddc2f087757c551145bf88c62f0522d2ea67bdb4a4dc6a4dfe845ea770b661d2dbc4f681737a531743b98ec0290324d4ec61bbb2a6de684ffc865ca572b463d0d9c6f4837178511541bb8cc22b0126d6ee63b9b0a8d06641f28852ab7cba6dded7c8fa8d7f765f1b4fb582cc250f28d8e06db7beaad26443f08a50a97eb86fdcd5caf88f7d745d194db780ce270d2adae26fb5bcacd46245f68c56af78be69dad3ccfe897b725b1f4bb186c8210b2cdce469b3baaed66047f48e54ad7abc6bd8d1cefc8b7970591d49b384ca23092edee66bb1b8a0d86e49fa805aa374b265d6dfc0f285777e571347bd8ac42d0720d0e865bfb6a2da6c4bf88258a176b067d4ddc2f087757c551145bf88c62f0522d2ea67bdb4a4dc6a4dfe845ea770b661d2dbc4f681737a531743b98ec0290324d4ec61bbb2a6de684ffc865ca572b463d0d9c6f4837178511541bb8cc22b0126d6ee63b9b0a8d06641f28852ab7cba6dded7c8fa8d7f765f1b4fb582cc250f28d8e06db7beaad26443f08a50a97eb86fdcd5caf88f7d745d194db780ce270d2adae26fb5bcacd46245f68c56af78be69dad3ccfe897b725b1f4bb186c8210b2cdce469b3baaed66047f48e54ad7abc6bd8d1cefc8b7970591d49b384ca23092edee66bb1b8a0d86e49fa805aa374b265d6dfc0f285777e571347bd8ac42d0720d0e865bfb6a2da6c4bf88258a176b067d4ddc2f087757c551145bf88c62f0522d2ea67bdb4a4dc6a4dfe845ea770b661d2dbc4f681737a531743b98ec0290324d4ec61bbb2a6de684ffc865ca572b463d0d9c6f4837178511541bb8cc22b0126d6ee63b9b0a8d06641f28852ab7cba6dded7c8fa8d7f765f1b4fb582cc250f28d8e06db7beaad26443f08a50a97eb86fdcd5caf88f7d745d194db780ce270d2adae26fb5bcacd46245f68c56af78be69dad3ccfe897b725b1f4bb186c8210b2cdce469b3baaed66047f48e54ad7abc6bd8d1cefc8b7970591d49b384ca23092edee66bb1b8a0d86e49fa805aa374b265d6dfc0f2857a388d6fb5c3018cee5d8a5286d9f8e59d1a2f9726cca1ceedb097cee2328c8056076a04b792d0000225120e8f46cc6c7744506856d1abc77637785118009cbb2d325710252b9d4b22c1e6902fd7509f81adbc47542a09f75274f217af21b127fbaea70d956f88a3df4a14c76f06017cf41ff637d135e816a76b34336ca4dd3c5b23add5ccbb7ea09012d343258715de91dd4c7f68f5e2462ac23e1aa58bd2d3c8ef98c570058e81f582e32bf24d6319fe018126f604bfeaed0836f42ddd01a356e78c671d233fc6d388cab025dbac2712084625a1ea3e0331fe73b1bcb83e6ae3466c848f1a23928bae4fc4c47338d79bca5c0c01a019465c2cf387ddee0185c7e962cb32afc27235d59dc58e32e6afafc698c50918bcb12e7afa853d422a91b65c0a237eb02b14b5646da604598d787cd29dea922ab24c13821c94911dd7082473b3cade9a6e192e709c1389ec3bfe58c560aaf2d4d58f0017e89c3859cd038827cac5c611a29d0f87dc37f6a541bd72872e30ecc0872290c55066c41bec6f8dd3c73cced46c6ca91faaeb581f8b9d30a0b88342f23825d0ab07ebf387d6cb68c3d18b35e8ba2dd8388571cbe5ea24d5571e84643641e5379912e2f9a1b376405ce28959c2574b44a364f53402178dc28ed425a924a49158b387b240a1e87fdcc014f28a7ce9c6343ba137dbd1bc4c518b494e271231a81da543cc30d0f32ef6b958637ac64164b5baa37406da41757b3f70817ba877c0d686cc845ef27a1f44b0de67839f1019960233f2557563472f189ff03ba422bd97a4a1fef005fa2572ebf67d158be339ee0f63ac64189d273e9d4bc23da63a938d3afe225aaffbcf2b776de110395bbb276b05eb586395b864da423ce142db4f74f458aa3d7c0404f3b89f8ddd3015839c2dd8a045a56d368c94601b8ea20c144e5a990d409f0c566fdbe14d44c3888a7847a6884f47c3a0af021291b07371c936684333cd93882439ab47121226812588dc64e4eb082c94df93fe1c8be57301d27c09b60b7b08f0e12bb5bfa10c3c9b7d2e8ce5e2d05e518cb1733c577d1aedc285d7a157ee99dacfdbc7f31b8cff4edc10c108a2ffa700fe1bb3c6099551d8db22b13ba9968789414f66302b02b61f6f10621cfa909a48da7e8ebf4c8f4b8c3e24570d5e62fdc5a989cf9e1cbc2003f85533712dbdd58dca6f519f590057bc962ffed5d3b188009623484cde430416565fa6995cd8b6bee7a83d7c96cc6b465346cee9ff3b058c76a602a7725efa72bae04bfd7a8f95c6f5f4496da2a798ef011081be5755cf20661a7902de931f0a193b9860e2a6a109f18f6f4b6f2e370182483985139bfdb74a5a3d02cc19e65f14cedee92d710cff8f44032746d68c44330c64b312840e59fe40975e105a6e5c057abfcac7561824a35a3734da00ba16de9278af98e5fd6b894b9a25123253932770bd5a7f5355560026de65d59ada38cebd5a8827baf3825a01eb5cd921fa7618e3491307f7bb5a796022e2d4d744a9bae76f4d4dd10822439b181456a509372ace4c0cb49e384550c8215fba1dce148d252002efe5ff38d6ebe879433b83befb856daf4ab91368198a5552291acc09307434ba17d5c559f07511a7dca49cb8be886dd50ad2a8f53f932763bbc905c3e5283644bfc7fa09535134b90deccc54b76610f8616e7b35d5dd3d420e898a1085e2517b3b7568da2c4f5c1d0de74c3137decfd0d937e57e116cb84eae73ad4eb6e36d107aaa9e04d3a1051315ee7bbbb458e7314c169f443a40dfafb451f2fe980444aa3aee8b4ff073f35e03ef5be891b23cd7f8b19b8d2f806399e235f3c17b2088bf104e2ce26658faf8665e1a8a439bb291bc38876868e2b39a5e82357d534185456015068342e6660a257c94a1b509457be0995372b2f8278944dcf86ac7e327ea9268132c2611f6d9a5ceff234f8e1d3d5baaf7191c0eab45bfe0533efe6959181fa473d56be693f94132ac29163d53a3ecc70b74eb51f2b931a0ae2d31c08fa541dd5c961853527cce8a28a1f1758643fa0228bb71f2b72b6fdc039fb79435b81ff6146ede3159f53dc50297ca7777efc28c56c64d5328028ea97a7343380bd777390a0543fe3642a691c811adb1f40b3c2dabfe8e82d93c0c7bb16b045baa6f48b52f21fb726655c745aa18112a3e825c3090f174d21ccb83452855307bd5a7e445a8fcfa2ee6ed362a641277b609844d3749c8384807c629d43bb06bb16b2c5bd5d28640a0863e6677983e6a41658483d6bf6add15ef0d2513a0010ceb53abbf239d6542a7c7bd0fee0fbfcaa06888b0c51d0fe65732e490fe036636e3ffab5dac56ccdbabc33de06f103305239ff54978365b146f875237702712136209d0496a6e081bff3d976e59e80d292b09ff3eff02ba15b0b34ef496b2bdb83ccf86925aba1bb7f978b6a5c1436566ca87403cf2811de77ad14255822235ae8a824c80bdad263bbd53631a4bd135819ca1382ca8a27782cc70ca1ec2dde944c5f7f08ea6459357ea0f988e958e9978625bc2b3b21e334f03f33e372ed091b16274cee76053229e7e383d4dee85ebd1621e270fe7e2cdfe3a605d4df14692ff01877aab22798447bdb8d8b650c588028f19b5475a5500ae743d89136f43802806de330fe2fe214fa5d9aeabef7ae5bc1e3bd02adc284312eb09004a8fd447f793eb3edd9d93201e2eb533877cb985603561acbd602747608464644cdcb0c553a1df815a746f8286ebd476a49a5fb458865103234c6327cec908885fab938fd5136c1dcb3376ec307627e21907a434286a4230e190c2d3d17af69369414ea6ba25212bd46d23bd7ad81bb70d20b090fb8a530f7f9d87c226a33548739eef2b7f004754e0bee1d1a60d62ccc1314b6562e362234376067d821b1a6df29b5ca15ce442808193d4405509877261ae11d9fea10bdf738ed5964740705a4a522234df2c4e9b3f6816181c974a36af78a0088543f77dc00baf68f21f7f916cb87d2624c37825ed93bab0448db9f5aed9a4c4bf9593db019d7fbe7c5de488017a79d0b0f33aa88b37bd457ab186fcb7a7a4ab916b345189d796ac51f1a330d7db908b77450f10ba15ba38cc349dcec1a3797bef37f000357edd0ed2f2d726295f2bdbec5282a3bf9b22e46b67ba5052d8c40230bfb7c79fda32e4194e4a97f59c6a23ccf64765c06ab16a51580256f00d7ac795f64f2815ef18ed9523b085af5f91b47ca813510f73702e752d5956f3e466c0aac487f18223825d24cfc6fdefa394eab9652af266e41c76744c8e1fce3e651537ce32c1ec7c376ba9b633d5ecac4f886ae9f2c129379c71332c168af7c613211e2fb8d509c3f2329b5c05e9d6eda8f047c509ba7208d2cc11d57fcc613a957f2794878b52f445b05233132333a99a5adbce204333a878f9cbdc3fa040c0f2d363f449495d9ff070b454f56595a646a8c9096a1a7abaeb7bdd6d8fd000000000000000000000000000000000000000000000000000000000b141f3401fd210500bcbae435c6cc4768d6f5363828e076af06d03307b5a30b9899349ae6e5cd26596dca38829d697967c4fd1e2fdb6834b79a75ac3a92a1ba5c38bc001a32c8156b9f2614d80b5478a8af484b1fb77a175626a7151c93d4598af7ae7b0f7921abe0ad94d373b02a398e1c4714500c7867982188c27b71ae498e080cfac3628761b8253e085df718033cf4254c10603aad92825d05eeae540e2e80abe1f724e8d4991c689b849784959ce120e06c28826b983760e97b2703dfaef75d9fc23a61b2591b726586d5200ea62fbd6242edfd22f73873b019a7a54f0b027f41149101d440a5f0dcbf5d73af007fafd7ca3428c59a0ac24cbafc9b84cc07f3dead54de0da8a1741e4bee33ee071dd175dba7bef1bb1d6bd624ba23faac6c073df0bfb7f9e5a9994225e5c0c4284d8888b41d5b00bec135eb699b7f64d9f2fdf1b6bd43fe1d0da4ca5f3e9e6d3de38bbcbf036557de357292029e931dc9a535ba1b55ad18c6088c4cc03b419a05bf5edfa5ed65b9435e2a896ff56fa4a3916d594521200f5557b400e2adbbe0a8a0c9dafcee1b279d071919261b283afcd0e3f89b52bb44242ed5c9bdf312959b6700b5102b1c03cb03bf5900a2dca1d9eeb012372c31f8d9378c26e8069c260c4585f05558166903947d63153340b474349f42ac5e20079dd492f0d101588f4ead718ffd81d49758ab5707b9831dbc3b7cade359744cbd21e7c08c3b50b936fa09c3d8067930fcd80363f68393ac6bcbe96ee882557d71c845ae7411ac384d3ec9542f248ece01fc0f967247cc34e48e95f88cc965ff8ab48e98da482959aeb28b97487c523e5961138e01ed6ef77c952771bfb76341332718b53de0292da0a8f1e2c27753508d01ffbdb4e16a7a7881e843970930835b7de37555e3f3216778ec7c2c019512c68675df3c228f8d94f0fbeb4c2f8e0c1e5aa76f331ac58cbdf776068aafa94611c4c258e4c9b8768dfb53768f2c93698cd2945b247e7290eeaf026bf62efff0a23a8ba7f76ade57b5058d345c3025028a303721d7feb1f6c5a75c39e66c2fabc15b0118c43315139d24f47dd6cbf4523369ea89ca953edd6cd9d3a8b0314cc2f107d9b91164004a7e9a81d30ac84f4efa15bee7e92bcf2a1b67df093a87e0666a6f90d66718428ce76badf4b9600f99f3dae4b3761cb4396681308ce46497db85bb859680e03a211d30aaed2dec9eb8ce9d56af983be168c6add912d3d135cdb33267d73b1b39a2798218f89230e2a1590b4bbf371cd8fd25cad35e4c6cd5ef4f848b392260324091143738b50d0ed7e89666541ab89c5895d916dfe52a34f54582188b41e2f7db456ab1778b58a54a6514c4a1bb8b517c0d924c4ce597717a86f137c258065fff8f3b9533ce5e7ceab5223cba0f59623267f8bddb491f7134644b52a5da0315093b0f4b522f162babb3a0cd987d835d88599d9f74ce3aa5066e1ea16f303af05d6653668e6aced535d0171cb482e6ac72681eebed30cfd046a562c31fa25156684286e32035b0755f4c9c1ca958ff9374cb1af98586d75bd6f38158722c649b5a519dfaf10e1b48cc288f20fb5e05b11add6e5d0c61429b55340c19fc9e8705adc381c0d148a4b4e6748d2ce5fc820a2e088bc8471f6c04e18199216792e327ed29876dd3e3f80a2a16725f6e41551104817f108394dc03f234487c1e7d2d23b18fc80b03b4475060ec96014de96a6e92492f818fb22b3d2baa324a03b10262225ceaa5e9a136f17e80976123582d20457156a220d3fcaad6ded3bf9827a60703d385f71feed8e7f81861bea0b6db4021278191312f0af86e9ff9b709ad2af6e99a0fd1339c25683e4d716b000000",
  "txid": "712b5d92a31bc05e56a64a90618fc4de3ffc3104347106a70926e8cc4eac8724",
  "hash": "8878a6aa3fb6288c5fa5ae975db4817d09c37ba70356235588cd21e528d8a705",
  "size": 5085,
  "vsize": 2278,
  "version": 1,
  "locktime": 107,
  "vin": [
    {
      "txid": "0a703e53e377a67ae5edeb1adab4cc8819ae5c28f2be4796c5acd158267534c8",
      "vout": 0,
      "scriptSig": {
        "asm": "",
        "hex": ""
      },
      "txinwitness": [
        "f81adbc47542a09f75274f217af21b127fbaea70d956f88a3df4a14c76f06017cf41ff637d135e816a76b34336ca4dd3c5b23add5ccbb7ea09012d343258715de91dd4c7f68f5e2462ac23e1aa58bd2d3c8ef98c570058e81f582e32bf24d6319fe018126f604bfeaed0836f42ddd01a356e78c671d233fc6d388cab025dbac2712084625a1ea3e0331fe73b1bcb83e6ae3466c848f1a23928bae4fc4c47338d79bca5c0c01a019465c2cf387ddee0185c7e962cb32afc27235d59dc58e32e6afafc698c50918bcb12e7afa853d422a91b65c0a237eb02b14b5646da604598d787cd29dea922ab24c13821c94911dd7082473b3cade9a6e192e709c1389ec3bfe58c560aaf2d4d58f0017e89c3859cd038827cac5c611a29d0f87dc37f6a541bd72872e30ecc0872290c55066c41bec6f8dd3c73cced46c6ca91faaeb581f8b9d30a0b88342f23825d0ab07ebf387d6cb68c3d18b35e8ba2dd8388571cbe5ea24d5571e84643641e5379912e2f9a1b376405ce28959c2574b44a364f53402178dc28ed425a924a49158b387b240a1e87fdcc014f28a7ce9c6343ba137dbd1bc4c518b494e271231a81da543cc30d0f32ef6b958637ac64164b5baa37406da41757b3f70817ba877c0d686cc845ef27a1f44b0de67839f1019960233f2557563472f189ff03ba422bd97a4a1fef005fa2572ebf67d158be339ee0f63ac64189d273e9d4bc23da63a938d3afe225aaffbcf2b776de110395bbb276b05eb586395b864da423ce142db4f74f458aa3d7c0404f3b89f8ddd3015839c2dd8a045a56d368c94601b8ea20c144e5a990d409f0c566fdbe14d44c3888a7847a6884f47c3a0af021291b07371c936684333cd93882439ab47121226812588dc64e4eb082c94df93fe1c8be57301d27c09b60b7b08f0e12bb5bfa10c3c9b7d2e8ce5e2d05e518cb1733c577d1aedc285d7a157ee99dacfdbc7f31b8cff4edc10c108a2ffa700fe1bb3c6099551d8db22b13ba9968789414f66302b02b61f6f10621cfa909a48da7e8ebf4c8f4b8c3e24570d5e62fdc5a989cf9e1cbc2003f85533712dbdd58dca6f519f590057bc962ffed5d3b188009623484cde430416565fa6995cd8b6bee7a83d7c96cc6b465346cee9ff3b058c76a602a7725efa72bae04bfd7a8f95c6f5f4496da2a798ef011081be5755cf20661a7902de931f0a193b9860e2a6a109f18f6f4b6f2e370182483985139bfdb74a5a3d02cc19e65f14cedee92d710cff8f44032746d68c44330c64b312840e59fe40975e105a6e5c057abfcac7561824a35a3734da00ba16de9278af98e5fd6b894b9a25123253932770bd5a7f5355560026de65d59ada38cebd5a8827baf3825a01eb5cd921fa7618e3491307f7bb5a796022e2d4d744a9bae76f4d4dd10822439b181456a509372ace4c0cb49e384550c8215fba1dce148d252002efe5ff38d6ebe879433b83befb856daf4ab91368198a5552291acc09307434ba17d5c559f07511a7dca49cb8be886dd50ad2a8f53f932763bbc905c3e5283644bfc7fa09535134b90deccc54b76610f8616e7b35d5dd3d420e898a1085e2517b3b7568da2c4f5c1d0de74c3137decfd0d937e57e116cb84eae73ad4eb6e36d107aaa9e04d3a1051315ee7bbbb458e7314c169f443a40dfafb451f2fe980444aa3aee8b4ff073f35e03ef5be891b23cd7f8b19b8d2f806399e235f3c17b2088bf104e2ce26658faf8665e1a8a439bb291bc38876868e2b39a5e82357d534185456015068342e6660a257c94a1b509457be0995372b2f8278944dcf86ac7e327ea9268132c2611f6d9a5ceff234f8e1d3d5baaf7191c0eab45bfe0533efe6959181fa473d56be693f94132ac29163d53a3ecc70b74eb51f2b931a0ae2d31c08fa541dd5c961853527cce8a28a1f1758643fa0228bb71f2b72b6fdc039fb79435b81ff6146ede3159f53dc50297ca7777efc28c56c64d5328028ea97a7343380bd777390a0543fe3642a691c811adb1f40b3c2dabfe8e82d93c0c7bb16b045baa6f48b52f21fb726655c745aa18112a3e825c3090f174d21ccb83452855307bd5a7e445a8fcfa2ee6ed362a641277b609844d3749c8384807c629d43bb06bb16b2c5bd5d28640a0863e6677983e6a41658483d6bf6add15ef0d2513a0010ceb53abbf239d6542a7c7bd0fee0fbfcaa06888b0c51d0fe65732e490fe036636e3ffab5dac56ccdbabc33de06f103305239ff54978365b146f875237702712136209d0496a6e081bff3d976e59e80d292b09ff3eff02ba15b0b34ef496b2bdb83ccf86925aba1bb7f978b6a5c1436566ca87403cf2811de77ad14255822235ae8a824c80bdad263bbd53631a4bd135819ca1382ca8a27782cc70ca1ec2dde944c5f7f08ea6459357ea0f988e958e9978625bc2b3b21e334f03f33e372ed091b16274cee76053229e7e383d4dee85ebd1621e270fe7e2cdfe3a605d4df14692ff01877aab22798447bdb8d8b650c588028f19b5475a5500ae743d89136f43802806de330fe2fe214fa5d9aeabef7ae5bc1e3bd02adc284312eb09004a8fd447f793eb3edd9d93201e2eb533877cb985603561acbd602747608464644cdcb0c553a1df815a746f8286ebd476a49a5fb458865103234c6327cec908885fab938fd5136c1dcb3376ec307627e21907a434286a4230e190c2d3d17af69369414ea6ba25212bd46d23bd7ad81bb70d20b090fb8a530f7f9d87c226a33548739eef2b7f004754e0bee1d1a60d62ccc1314b6562e362234376067d821b1a6df29b5ca15ce442808193d4405509877261ae11d9fea10bdf738ed5964740705a4a522234df2c4e9b3f6816181c974a36af78a0088543f77dc00baf68f21f7f916cb87d2624c37825ed93bab0448db9f5aed9a4c4bf9593db019d7fbe7c5de488017a79d0b0f33aa88b37bd457ab186fcb7a7a4ab916b345189d796ac51f1a330d7db908b77450f10ba15ba38cc349dcec1a3797bef37f000357edd0ed2f2d726295f2bdbec5282a3bf9b22e46b67ba5052d8c40230bfb7c79fda32e4194e4a97f59c6a23ccf64765c06ab16a51580256f00d7ac795f64f2815ef18ed9523b085af5f91b47ca813510f73702e752d5956f3e466c0aac487f18223825d24cfc6fdefa394eab9652af266e41c76744c8e1fce3e651537ce32c1ec7c376ba9b633d5ecac4f886ae9f2c129379c71332c168af7c613211e2fb8d509c3f2329b5c05e9d6eda8f047c509ba7208d2cc11d57fcc613a957f2794878b52f445b05233132333a99a5adbce204333a878f9cbdc3fa040c0f2d363f449495d9ff070b454f56595a646a8c9096a1a7abaeb7bdd6d8fd000000000000000000000000000000000000000000000000000000000b141f3401",
        "00bcbae435c6cc4768d6f5363828e076af06d03307b5a30b9899349ae6e5cd26596dca38829d697967c4fd1e2fdb6834b79a75ac3a92a1ba5c38bc001a32c8156b9f2614d80b5478a8af484b1fb77a175626a7151c93d4598af7ae7b0f7921abe0ad94d373b02a398e1c4714500c7867982188c27b71ae498e080cfac3628761b8253e085df718033cf4254c10603aad92825d05eeae540e2e80abe1f724e8d4991c689b849784959ce120e06c28826b983760e97b2703dfaef75d9fc23a61b2591b726586d5200ea62fbd6242edfd22f73873b019a7a54f0b027f41149101d440a5f0dcbf5d73af007fafd7ca3428c59a0ac24cbafc9b84cc07f3dead54de0da8a1741e4bee33ee071dd175dba7bef1bb1d6bd624ba23faac6c073df0bfb7f9e5a9994225e5c0c4284d8888b41d5b00bec135eb699b7f64d9f2fdf1b6bd43fe1d0da4ca5f3e9e6d3de38bbcbf036557de357292029e931dc9a535ba1b55ad18c6088c4cc03b419a05bf5edfa5ed65b9435e2a896ff56fa4a3916d594521200f5557b400e2adbbe0a8a0c9dafcee1b279d071919261b283afcd0e3f89b52bb44242ed5c9bdf312959b6700b5102b1c03cb03bf5900a2dca1d9eeb012372c31f8d9378c26e8069c260c4585f05558166903947d63153340b474349f42ac5e20079dd492f0d101588f4ead718ffd81d49758ab5707b9831dbc3b7cade359744cbd21e7c08c3b50b936fa09c3d8067930fcd80363f68393ac6bcbe96ee882557d71c845ae7411ac384d3ec9542f248ece01fc0f967247cc34e48e95f88cc965ff8ab48e98da482959aeb28b97487c523e5961138e01ed6ef77c952771bfb76341332718b53de0292da0a8f1e2c27753508d01ffbdb4e16a7a7881e843970930835b7de37555e3f3216778ec7c2c019512c68675df3c228f8d94f0fbeb4c2f8e0c1e5aa76f331ac58cbdf776068aafa94611c4c258e4c9b8768dfb53768f2c93698cd2945b247e7290eeaf026bf62efff0a23a8ba7f76ade57b5058d345c3025028a303721d7feb1f6c5a75c39e66c2fabc15b0118c43315139d24f47dd6cbf4523369ea89ca953edd6cd9d3a8b0314cc2f107d9b91164004a7e9a81d30ac84f4efa15bee7e92bcf2a1b67df093a87e0666a6f90d66718428ce76badf4b9600f99f3dae4b3761cb4396681308ce46497db85bb859680e03a211d30aaed2dec9eb8ce9d56af983be168c6add912d3d135cdb33267d73b1b39a2798218f89230e2a1590b4bbf371cd8fd25cad35e4c6cd5ef4f848b392260324091143738b50d0ed7e89666541ab89c5895d916dfe52a34f54582188b41e2f7db456ab1778b58a54a6514c4a1bb8b517c0d924c4ce597717a86f137c258065fff8f3b9533ce5e7ceab5223cba0f59623267f8bddb491f7134644b52a5da0315093b0f4b522f162babb3a0cd987d835d88599d9f74ce3aa5066e1ea16f303af05d6653668e6aced535d0171cb482e6ac72681eebed30cfd046a562c31fa25156684286e32035b0755f4c9c1ca958ff9374cb1af98586d75bd6f38158722c649b5a519dfaf10e1b48cc288f20fb5e05b11add6e5d0c61429b55340c19fc9e8705adc381c0d148a4b4e6748d2ce5fc820a2e088bc8471f6c04e18199216792e327ed29876dd3e3f80a2a16725f6e41551104817f108394dc03f234487c1e7d2d23b18fc80b03b4475060ec96014de96a6e92492f818fb22b3d2baa324a03b10262225ceaa5e9a136f17e80976123582d20457156a220d3fcaad6ded3bf9827a60703d385f71feed8e7f81861bea0b6db4021278191312f0af86e9ff9b709ad2af6e99a0fd1339c25683e4d71"
      ],
      "sequence": 4294967294
    }
  ],
  "vout": [
    {
      "value": 1.0,
      "n": 0,
      "scriptPubKey": {
        "asm": "OP_RETURN 1bb963e308aa98cecae83c441dfa447e2935880c20c4bdae75215179c4a9d52b 8d06641f28852ab7cba6dded7c8fa8d7f765f1b4fb582cc250f28d8e06db7beaad26443f08a50a97eb86fdcd5caf88f7d745d194db780ce270d2adae26fb5bcacd46245f68c56af78be69dad3ccfe897b725b1f4bb186c8210b2cdce469b3baaed66047f48e54ad7abc6bd8d1cefc8b7970591d49b384ca23092edee66bb1b8a0d86e49fa805aa374b265d6dfc0f285777e571347bd8ac42d0720d0e865bfb6a2da6c4bf88258a176b067d4ddc2f087757c551145bf88c62f0522d2ea67bdb4a4dc6a4dfe845ea770b661d2dbc4f681737a531743b98ec0290324d4ec61bbb2a6de684ffc865ca572b463d0d9c6f4837178511541bb8cc22b0126d6ee63b9b0a8d06641f28852ab7cba6dded7c8fa8d7f765f1b4fb582cc250f28d8e06db7beaad26443f08a50a97eb86fdcd5caf88f7d745d194db780ce270d2adae26fb5bcacd46245f68c56af78be69dad3ccfe897b725b1f4bb186c8210b2cdce469b3baaed66047f48e54ad7abc6bd8d1cefc8b7970591d49b384ca23092edee66bb1b8a0d86e49fa805aa374b265d6dfc0f285777e571347bd8ac42d0720d0e865bfb6a2da6c4bf88258a176b067d4ddc2f087757c551145bf88c62f0522d2ea67bdb4a4dc6a4dfe845ea770b661d2dbc4f681737a531743b98ec0290324d4ec61bbb2a6de684ffc865ca572b463d0d9c6f4837178511541bb8cc22b0126d6ee63b9b0a8d06641f28852ab7cba6dded7c8fa8d7f765f1b4fb582cc250f28d8e06db7beaad26443f08a50a97eb86fdcd5caf88f7d745d194db780ce270d2adae26fb5bcacd46245f68c56af78be69dad3ccfe897b725b1f4bb186c8210b2cdce469b3baaed66047f48e54ad7abc6bd8d1cefc8b7970591d49b384ca23092edee66bb1b8a0d86e49fa805aa374b265d6dfc0f285777e571347bd8ac42d0720d0e865bfb6a2da6c4bf88258a176b067d4ddc2f087757c551145bf88c62f0522d2ea67bdb4a4dc6a4dfe845ea770b661d2dbc4f681737a531743b98ec0290324d4ec61bbb2a6de684ffc865ca572b463d0d9c6f4837178511541bb8cc22b0126d6ee63b9b0a8d06641f28852ab7cba6dded7c8fa8d7f765f1b4fb582cc250f28d8e06db7beaad26443f08a50a97eb86fdcd5caf88f7d745d194db780ce270d2adae26fb5bcacd46245f68c56af78be69dad3ccfe897b725b1f4bb186c8210b2cdce469b3baaed66047f48e54ad7abc6bd8d1cefc8b7970591d49b384ca23092edee66bb1b8a0d86e49fa805aa374b265d6dfc0f285777e571347bd8ac42d0720d0e865bfb6a2da6c4bf88258a176b067d4ddc2f087757c551145bf88c62f0522d2ea67bdb4a4dc6a4dfe845ea770b661d2dbc4f681737a531743b98ec0290324d4ec61bbb2a6de684ffc865ca572b463d0d9c6f4837178511541bb8cc22b0126d6ee63b9b0a8d06641f28852ab7cba6dded7c8fa8d7f765f1b4fb582cc250f28d8e06db7beaad26443f08a50a97eb86fdcd5caf88f7d745d194db780ce270d2adae26fb5bcacd46245f68c56af78be69dad3ccfe897b725b1f4bb186c8210b2cdce469b3baaed66047f48e54ad7abc6bd8d1cefc8b7970591d49b384ca23092edee66bb1b8a0d86e49fa805aa374b265d6dfc0f2857a388d6fb5c3018cee5d8a5286d9f8e59d1a2f9726cca1ceedb097cee2328c805",
        "hex": "6a201bb963e308aa98cecae83c441dfa447e2935880c20c4bdae75215179c4a9d52b4db0048d06641f28852ab7cba6dded7c8fa8d7f765f1b4fb582cc250f28d8e06db7beaad26443f08a50a97eb86fdcd5caf88f7d745d194db780ce270d2adae26fb5bcacd46245f68c56af78be69dad3ccfe897b725b1f4bb186c8210b2cdce469b3baaed66047f48e54ad7abc6bd8d1cefc8b7970591d49b384ca23092edee66bb1b8a0d86e49fa805aa374b265d6dfc0f285777e571347bd8ac42d0720d0e865bfb6a2da6c4bf88258a176b067d4ddc2f087757c551145bf88c62f0522d2ea67bdb4a4dc6a4dfe845ea770b661d2dbc4f681737a531743b98ec0290324d4ec61bbb2a6de684ffc865ca572b463d0d9c6f4837178511541bb8cc22b0126d6ee63b9b0a8d06641f28852ab7cba6dded7c8fa8d7f765f1b4fb582cc250f28d8e06db7beaad26443f08a50a97eb86fdcd5caf88f7d745d194db780ce270d2adae26fb5bcacd46245f68c56af78be69dad3ccfe897b725b1f4bb186c8210b2cdce469b3baaed66047f48e54ad7abc6bd8d1cefc8b7970591d49b384ca23092edee66bb1b8a0d86e49fa805aa374b265d6dfc0f285777e571347bd8ac42d0720d0e865bfb6a2da6c4bf88258a176b067d4ddc2f087757c551145bf88c62f0522d2ea67bdb4a4dc6a4dfe845ea770b661d2dbc4f681737a531743b98ec0290324d4ec61bbb2a6de684ffc865ca572b463d0d9c6f4837178511541bb8cc22b0126d6ee63b9b0a8d06641f28852ab7cba6dded7c8fa8d7f765f1b4fb582cc250f28d8e06db7beaad26443f08a50a97eb86fdcd5caf88f7d745d194db780ce270d2adae26fb5bcacd46245f68c56af78be69dad3ccfe897b725b1f4bb186c8210b2cdce469b3baaed66047f48e54ad7abc6bd8d1cefc8b7970591d49b384ca23092edee66bb1b8a0d86e49fa805aa374b265d6dfc0f285777e571347bd8ac42d0720d0e865bfb6a2da6c4bf88258a176b067d4ddc2f087757c551145bf88c62f0522d2ea67bdb4a4dc6a4dfe845ea770b661d2dbc4f681737a531743b98ec0290324d4ec61bbb2a6de684ffc865ca572b463d0d9c6f4837178511541bb8cc22b0126d6ee63b9b0a8d06641f28852ab7cba6dded7c8fa8d7f765f1b4fb582cc250f28d8e06db7beaad26443f08a50a97eb86fdcd5caf88f7d745d194db780ce270d2adae26fb5bcacd46245f68c56af78be69dad3ccfe897b725b1f4bb186c8210b2cdce469b3baaed66047f48e54ad7abc6bd8d1cefc8b7970591d49b384ca23092edee66bb1b8a0d86e49fa805aa374b265d6dfc0f285777e571347bd8ac42d0720d0e865bfb6a2da6c4bf88258a176b067d4ddc2f087757c551145bf88c62f0522d2ea67bdb4a4dc6a4dfe845ea770b661d2dbc4f681737a531743b98ec0290324d4ec61bbb2a6de684ffc865ca572b463d0d9c6f4837178511541bb8cc22b0126d6ee63b9b0a8d06641f28852ab7cba6dded7c8fa8d7f765f1b4fb582cc250f28d8e06db7beaad26443f08a50a97eb86fdcd5caf88f7d745d194db780ce270d2adae26fb5bcacd46245f68c56af78be69dad3ccfe897b725b1f4bb186c8210b2cdce469b3baaed66047f48e54ad7abc6bd8d1cefc8b7970591d49b384ca23092edee66bb1b8a0d86e49fa805aa374b265d6dfc0f2857a388d6fb5c3018cee5d8a5286d9f8e59d1a2f9726cca1ceedb097cee2328c805",
        "type": "nulldata"
      }
    },
    {
      "value": 499989.831,
      "n": 1,
      "scriptPubKey": {
        "asm": "1 e8f46cc6c7744506856d1abc77637785118009cbb2d325710252b9d4b22c1e69",
        "hex": "5120e8f46cc6c7744506856d1abc77637785118009cbb2d325710252b9d4b22c1e69",
        "reqSigs": 1,
        "type": "witness_v1_scripthash",
        "addresses": [
          "3QJmnh"
        ]
      }
    }
  ],
  "blockhash": "70f7ec20af3843e0d144de9ce3637c8baa62723aad58289fd59c71fdb9075fdf",
  "confirmations": 1,
  "time": 1764177228,
  "blocktime": 1764177228
}