{
  "hex": "010000000001013fd9050cd31fe0a4c6d37fa72099227554aace2bf8b718a41128dd92d84ba6110000000000feffffff0200e1f50500000000fdd5046a20172b329987e1d6de845177a0248b96c0fbdcf9a349b071bd4973787ff89456524db00450ec4c450b0ee7aa3a86bf8d48eeea113b37544cbb27a6f71d0a393c8b18c84070cc6c652b2ec78a1aa69fad68ceca311b17746c9b0786d73d2a191cab38e86010ac0c054b4ea7ea7ac6ffcd08aeaa517b77140cfb67e6b75d4a797ccb588800308c2c256b6e87ca5ae6dfed288e8a715b57342cdb47c6977d6a595ceb78a820d06cccc58b8e672aba063f0dc86e6a91bbb7d4cc3ba726779d8ab9bc0b9848c0f04cece5abae470a9a261f2de84e4ab19b97f4ec1b870657bdaa999c2bb868e0902c8c85cbce276afa467f4d882e2ad1fbf7948c7be76637ddcaf9fc4bd80880b00caca5ebee074ada665f6da80e0af1dbd7b4ac5bc74617fdead9dc6bf828a050ec4c450b0ee7aa3a86bf8d48eeea113b37544cbb27a6f71d0a393c8b18c84070cc6c652b2ec78a1aa69fad68ceca311b17746c9b0786d73d2a191cab38e86010ac0c054b4ea7ea7ac6ffcd08aeaa517b77140cfb67e6b75d4a797ccb588800308c2c256b6e87ca5ae6dfed288e8a715b57342cdb47c6977d6a595ceb78a820d06cccc58b8e672aba063f0dc86e6a91bbb7d4cc3ba726779d8ab9bc0b9848c0f04cece5abae470a9a261f2de84e4ab19b97f4ec1b870657bdaa999c2bb868e0902c8c85cbce276afa467f4d882e2ad1fbf7948c7be76637ddcaf9fc4bd80880b00caca5ebee074ada665f6da80e0af1dbd7b4ac5bc74617fdead9dc6bf828a050ec4c450b0ee7aa3a86bf8d48eeea113b37544cbb27a6f71d0a393c8b18c84070cc6c652b2ec78a1aa69fad68ceca311b17746c9b0786d73d2a191cab38e86010ac0c054b4ea7ea7ac6ffcd08aeaa517b77140cfb67e6b75d4a797ccb588800308c2c256b6e87ca5ae6dfed288e8a715b57342cdb47c6977d6a595ceb78a820d06cccc58b8e672aba063f0dc86e6a91bbb7d4cc3ba726779d8ab9bc0b9848c0f04cece5abae470a9a261f2de84e4ab19b97f4ec1b870657bdaa999c2bb868e0902c8c85cbce276afa467f4d882e2ad1fbf7948c7be76637ddcaf9fc4bd80880b00caca5ebee074ada665f6da80e0af1dbd7b4ac5bc74617fdead9dc6bf828a050ec4c450b0ee7aa3a86bf8d48eeea113b37544cbb27a6f71d0a393c8b18c84070cc6c652b2ec78a1aa69fad68ceca311b17746c9b0786d73d2a191cab38e86010ac0c054b4ea7ea7ac6ffcd08aeaa517b77140cfb67e6b75d4a797ccb588800308c2c256b6e87ca5ae6dfed288e8a715b57342cdb47c6977d6a595ceb78a820d06cccc58b8e672aba063f0dc86e6a91bbb7d4cc3ba726779d8ab9bc0b9848c0f04cece5abae470a9a261f2de84e4ab19b97f4ec1b870657bdaa999c2bb868e0902c8c85cbce276afa467f4d882e2ad1fbf7948c7be76637ddcaf9fc4bd80880b00caca5ebee074ada665f6da80e0af1dbd7b4ac5bc74617fdead9dc6bf828a050ec4c450b0ee7aa3a86bf8d48eeea113b37544cbb27a6f71d0a393c8b18c84070cc6c652b2ec78a1aa69fad68ceca311b17746c9b0786d73d2a191cab38e86010ac0c054b4ea7ea7ac6ffcd08aeaa517b77140cfb67e6b75d4a797ccb588800308c2c256b6e87ca5ae6dfed288e8a715b57342cdb47c6977d6a595ceb78a820d06cccc58b8e672aba063f0dc86e6a91fb17d51aa0eaa836db0ba4628c5d476ec8514738f5aad0e35e9972cc8c181b488022c5f6782d00002251207a69b1c349e1def5d335f039306001ff5796aebe46346814b18e4442598ea59302fd7509a7bd25c5f2015c987b427482cff2e67db0dd98e032f6ee92e4b5ef5fa4fdbafc51f8b56d4cb9502c7241d353f14f979764735a43b0bf0bc7662024725693bb3400a22fc1d9d719f04fe2cedeb45c0ffda371e9dcc26c4dcee50eb27b3a7ebc3857bdd305e7ca3f4b0415501d395f46534a36040df4982d6998a41a41cf3991b876c59e73e0c1b45b536c2dc32e21d1beb4b32229c95f1577004bacb63857aeb5e5839d5db898829da145271a6a6f11c203d5459eb4ca6c170dbf6769723c1721cf92b4c4656c0f9cdcb2daa32bbfe90f14e75fc1981e8e54478ab588964c46205af475c079749b7ef21536eef79a529d52e6f915a2f0fde226e2e18789a4def069ea1e0208295da27396733c687d09c48dbb7225be9d256e15f089ad2099f0657bb09067e8bd37750ce783e5a73a9e6c68c7ce3f3172702354c22f84003639efa00df1563cbf556343fbfbba422432fccda308b81dbdef2ffe153b6fd534502424a1e004fe29dc3f43647fa7ba185c0756e9aa963c07bfef03e57edddb03f2a978cf7d562033424afdc17d7db4d42e8c9e6c6522d4f4781336369a9ef4fabe19453d78e635baddfaf84da67f62eb7dae731174b56b946ade7cf750146ad5248028115231f78c34d04f7d2936c17da8c6c9d80fd88a922d926e486e99880f4ffb6f4de4a9cf68e8763aa1ba3d1b6f2e33cafc04a34f3eeedb231c30057fa3095b58b2effdc5cc362a23db307e33d47476ec4fedee0bda10ac2413742ca336d2509355f4eb4200c8543fdf1be35f8acc17a513b434b854e80851b8d3f5956d3e4a678e44a412fe43518d8e527879acf5b9a8ac169a864df534378eb5fde6c69dbb867f609d77338aea6a8910f275a880a40c51955f3f8133f673288fc8bddf0c529c094c2250b2deb79604d92d4cec186cf469450570ebb7d808232831326317228b5f009d5d8fc29439a6348fb59229db1e61ce1ab5eaa5dda57e8e489494c8a52243fb212076cfa6594c1de7e4d8c5789b63f0b86a60cb3ff8134e69b093f2e733f88030f1be0cb6f9cab38c747d8d5ae403d3671bb0f3ed7e6a72385f21f845b75f6671ed9b383d51f1a83d547ad83aefe609fffe2301c53d3dea6395b62c6c88fc336c32c091988b948010b7a118600b080b4d5995649f7ffed831b550c560b525c428ad80b4fb588767b07aa2527f7285c5f68bb015a84dffceeb1f5dfb43c625fa2bc4f092d38f6c899671b7790be13b888299871396b2975f70852764582ae7b099777836a001620cda3f71a7b615b01e1f0ac54b5a3a702c1739515b6f375d3606422af4a907cddc8da51875b362faf0a8595e54f833370c98b0751e60a1fffc0c617d2636d6833870acbfb5e767625eb6532168174c9a274ffa677061874917567a393df740b4bc4530784454cedf7190ad35c85f3b9f8f202bcf766df84679f401864e186790a6a35f8535f30517388f35f6997018261fd9870b4636d7f6d79df572ce235a1e3309efe8d95c5f6a91ac9d9d923fc9ecc1ba7e560c163d749a248625a2df5ce71bd1af91726cbc7af6c9346ced5cd9590647cb82d7f5c2557edc0b32db72ecc3b2686b4c196a32ccff24fe9df979d6e0f71fee7e88ca0efefa2eca54e2268ad38e614cb9d3f59fee21dfda29a06cc3187ecbd3d65c5e687a6d5c6e0f1af7620ba35072a7360006211da6cab8c4f82a9c2eb75597509f4cf65c77a0c9f89084469e68257f70ae19448d39f5e9c5b3766525da180e02b33b9e46c64cf0d5b4b3b63ab88567784f5d368ec5335253d1bfd1a24cb69b999b5df9f7b1258dd4604c31ab9c83450ac3ede7018e4f8954b6ac859e4f86ac2e56860352356832ad57169529853705a360029a99928c57f755593c318829cd913f81ca7b3ce44a7ba5ccbff73bbfc29abf30b0191d440d41d7f66da15bd1b4f6c4fffaaff9d3303b8cc0ed7dc1f8d207f79b2a1982fffdc79f814da733925c7b850a3944f537764e40026588b4f3eec5ec18bb7888bfa87418f18634a288047894a66655571ab77a046dade30ea2b656bd6c474300194b5c60ff0653243fd3d66ac9b274f2c182b2285cb017a24f224243301af16ec6673f194e7ec129240d7238c4ed0c2fc4a1b0cfd64d5afd8a1e5e601905e94214525bef8d92bca4b58de8cdcc00e48b14db084e480ac40a9fafe538add972bce62626ed8b2d36f68908e653e27645fed5f4b1a9a566cc2e430dca4e4366d6ca7a686c8ff880dbedf87297e60f2113669124711fad61b006fd66293975a1e9c173510b5a6d50b25dbcb73bf5bcef33f0827b2293148400ff253130189ca105087110995145e9a904b18267a254abcd5ea7203db2440642a5d4b1d40663909d93ade92fe8b332651dc58ec82fbc1796350665df7e295e2f6e120b78c33a0fc74949de951f88090129339e0dde195c3cb04348575f1526b72530a7604179a7865364f9d49343579a01d4dc561840e9deda926966790b656424122574ff772fb8e1d3f982bd934792741c6d1f003d0c1dcb18b41c48d83259d0b001351ab8679ab2dd6b719f6afb00b19f7403cb644cb945b6cfe79a25139181afaec0397983351c298d8661ff9bf2aec8bb9374fed9f1d55937d8b5913c9cace04f83e660e595f3a95a023e95c64d83a72417249643a4f1330ef9636225a7b5b2b990e70433a57189e4d98ce9715081ce40bca241853a9dc9982431a14d93cdcd55109364c97a55b51a60483bde24e40011fc0def44073820c2070cd3fd446126940b2b38032d388fe9638883227f9e497b95b98a974172ee731983ed6f6f25df66133d31c6127d72cb9b034e3bcba51ab42a5fa5475af7f6b0e27fc1fdae0e1a08f0057b2ed7eca925542328a2def5622d41031532a1956f94a1ff04f13a0420696c97b4adc5896a28ae040badaae30be3eb13f6f421642505404cb0e9eef8d078a1de6d36b8667dc34129f5b1eefd3431b583b758c2112a0a1a546c7f1416fa47e7a4faa016518676d9bbf0af48417920361933776de403a1db083776eac38ea2a7cac164e8bb60d242503f2f77c8a834ab55560d7db06a948c94775d4401378b1b49e570cad65977cbd044267917f036c8d6fbcd85206630c7fdddd84a88b69525a5e21d2b2f3185f54d938aa6109c7dcc407de73783bc56fb16bb57d3682a54f043d677fb37251975049d5603b2f08bcae54be0df0ae10214d355c681142e915df099207f6378cf44bd7c827608ec9529f4f020c1a8f14e7e38f936fd745d32a35af7068c50e92beb007af346d7a2c570111b2431393e484d5c5e6d6f798195a5c9d0fdfe0a2f464951535b7e7fa5b2d6ef082526292c2e2f42445b5e696e747a858ba0a1bdc2dfe1f10108191e334f51596a6d7c8a9499bbc3e2e3fb00000000001320384b01fd210500565c940f49603b5ee1ec10c286ae43593cc9c2bed947cb1adec983dc18a82f75b724cd1aa4e39b8ef72ec19ed19e1ba22193dba282980477a814c3509043d95011c863f8ca3a726f3e4923931592a9e0d8d6b31b00ac42200ddafc7fc65b13773673c34141db893759f2efd8ee2ca9bc789d946af77a31a49e7d8528d813cbcac8f35cf46ab3f9fb3a9420c37f86138258a0e8b20a6f7544debb765b0ef23448a902689e512b594f536edd70e3be26121dc71302e1b9302171a8abe744d8d3f81590d35258b806d9e6eabb58976d18f2a71b700418eb9f3b77e51932ed00c76477bac4b94887934bff5e3a6135b3f9d23c559c9bd21d4176a77a864cb931fee48274e1b88e80d7ade554abbac86ca01a6c11ead689005f004be593313ae835062728d2a64aa0a9eb8723c033e2180d5229cb8fc92b1f9dba0b6ba39b8ef754219c757cf2791dec285fa254d17ea68f10540163ff3fe8f184ec70de6411ae9d416b8924de3e37741b5902f40f8790b1522a1e40472aca4b245e1aacbe237afd7ab5168ac2e388de348b44fb06c4bdfbe13e5b17d69bea540570d75a9340d905a41359b38840cb72a12804651ef318664801d9ca4f2d0e40128b6b900ec0b9131848c5673f4ba349bce1647d593716161162766a775edefe6a1e4e8412c170986ff7b027a51570879678548e219502fc71794fbd23b96806d6abcf26110af559dfc21385b2808d4501682bf7e6205a8e557b1b65c37c49ea607dc7283b4a160a134c74661680f9023ded83468056c60a5a829a0185f9196e8458a72c1de50254751cf676921772c0af1712cb0d435a69b722b9f3cea94fd28375f3f6246200863f25e303b2531d3a7ae5666eac54159112241460b5e1a36fce8ddfd469646c4f619e436227f30898ff71b314aebceb585fe682dd9f16fe74a1a046f5b6139ae2683b753558acb06636f1c0ba3f52b9090c1415ccfa4e192fc4c4f53b21f25f44c0f63397fbfa46aa39aedd67a0dd7ae50e0af76bbcb179402ec4de339a05b63f6400f5531554b511a3d2a07c5c46fc8f4f363d0ecb41896ab70c6bc131a7e140b30a258d21daaddb99b915a8b7a6474011eefac86af123ece8b86f2dbf9ba130f7a5a739778aa5305f24c1efcce90b74a1bbeacb6b42f33178b3a009a97c392d87331504fd8e24b7e1616debd7eb01816ab80552bd8269e5191328c778087702561fdeda218f4ef3c4b685af4fea634e0fc20930e13f33842473e610314df6dc85f1ec8ebf221e6c40f17d867fe4a59246253f1841a48b86d6a8daa91441114457da1897ed708cbe09670953c22001a11ab5ce6895b4168c61021f0155bd3e27ff6f5cdd9c1051bc5b82399a3656933311d8a77ad1c6c69a0b3d8b03fac745946f375f9217a59fd32970761b4fba3317a707e2aeab18a10325b48bff05ad1dc1a2e0e67b58f91e99d01855a91b7d13b3e6d44ed8c47e158aa6c534967c6889568929246fc735b73c5bfcd2ec9e0091945e64e5cdaf96b395dd881c1c20d91d6aeeca2efe45ad05cdcc9afe39f7987c52ff6bde1679a5b479a31c0a4e3b3be3ab8d92c7368992f07e7c09434fcc16ad9fcd92a4a8e77b6f82bcd69fdd659a455b4c73a56fe79e0e0143af6a93bcf7fb5c40250c9883fbcdd991e7c632bd3d505f52bc0d2ea2e82cb6f3ed06b649449f8327980bb09a99a49e7c2ec3ddd3683a5586733a4b06b0f5efd26037a4397d68471647f1e024955cac287fef63d14a1363da6bbae8778f053baf38aaad5a52dbbd56bad8d18a327904a2b383d13a1227e6659ea13af47af5c2f255b61de368c69bc3c90208ad0b52717205cc655affea71127c000000",
  "txid": "78606fb01a8f430c914db4bb4f5c78057f33892669a3a192ea559183080be5bc",
  "hash": "07b0bb3968480df40f3e2e6c3e88d70930a045880b3078c92caf0fbb63e08f8e",
  "size": 5085,
  "vsize": 2278,
  "version": 1,
  "locktime": 124,
  "vin": [
    {
      "txid": "11a64bd892dd2811a418b7f82bceaa5475229920a77fd3c6a4e01fd30c05d93f",
      "vout": 0,
      "scriptSig": {
        "asm": "",
        "hex": ""
      },
      "txinwitness": [
        "a7bd25c5f2015c987b427482cff2e67db0dd98e032f6ee92e4b5ef5fa4fdbafc51f8b56d4cb9502c7241d353f14f979764735a43b0bf0bc7662024725693bb3400a22fc1d9d719f04fe2cedeb45c0ffda371e9dcc26c4dcee50eb27b3a7ebc3857bdd305e7ca3f4b0415501d395f46534a36040df4982d6998a41a41cf3991b876c59e73e0c1b45b536c2dc32e21d1beb4b32229c95f1577004bacb63857aeb5e5839d5db898829da145271a6a6f11c203d5459eb4ca6c170dbf6769723c1721cf92b4c4656c0f9cdcb2daa32bbfe90f14e75fc1981e8e54478ab588964c46205af475c079749b7ef21536eef79a529d52e6f915a2f0fde226e2e18789a4def069ea1e0208295da27396733c687d09c48dbb7225be9d256e15f089ad2099f0657bb09067e8bd37750ce783e5a73a9e6c68c7ce3f3172702354c22f84003639efa00df1563cbf556343fbfbba422432fccda308b81dbdef2ffe153b6fd534502424a1e004fe29dc3f43647fa7ba185c0756e9aa963c07bfef03e57edddb03f2a978cf7d562033424afdc17d7db4d42e8c9e6c6522d4f4781336369a9ef4fabe19453d78e635baddfaf84da67f62eb7dae731174b56b946ade7cf750146ad5248028115231f78c34d04f7d2936c17da8c6c9d80fd88a922d926e486e99880f4ffb6f4de4a9cf68e8763aa1ba3d1b6f2e33cafc04a34f3eeedb231c30057fa3095b58b2effdc5cc362a23db307e33d47476ec4fedee0bda10ac2413742ca336d2509355f4eb4200c8543fdf1be35f8acc17a513b434b854e80851b8d3f5956d3e4a678e44a412fe43518d8e527879acf5b9a8ac169a864df534378eb5fde6c69dbb867f609d77338aea6a8910f275a880a40c51955f3f8133f673288fc8bddf0c529c094c2250b2deb79604d92d4cec186cf469450570ebb7d808232831326317228b5f009d5d8fc29439a6348fb59229db1e61ce1ab5eaa5dda57e8e489494c8a52243fb212076cfa6594c1de7e4d8c5789b63f0b86a60cb3ff8134e69b093f2e733f88030f1be0cb6f9cab38c747d8d5ae403d3671bb0f3ed7e6a72385f21f845b75f6671ed9b383d51f1a83d547ad83aefe609fffe2301c53d3dea6395b62c6c88fc336c32c091988b948010b7a118600b080b4d5995649f7ffed831b550c560b525c428ad80b4fb588767b07aa2527f7285c5f68bb015a84dffceeb1f5dfb43c625fa2bc4f092d38f6c899671b7790be13b888299871396b2975f70852764582ae7b099777836a001620cda3f71a7b615b01e1f0ac54b5a3a702c1739515b6f375d3606422af4a907cddc8da51875b362faf0a8595e54f833370c98b0751e60a1fffc0c617d2636d6833870acbfb5e767625eb6532168174c9a274ffa677061874917567a393df740b4bc4530784454cedf7190ad35c85f3b9f8f202bcf766df84679f401864e186790a6a35f8535f30517388f35f6997018261fd9870b4636d7f6d79df572ce235a1e3309efe8d95c5f6a91ac9d9d923fc9ecc1ba7e560c163d749a248625a2df5ce71bd1af91726cbc7af6c9346ced5cd9590647cb82d7f5c2557edc0b32db72ecc3b2686b4c196a32ccff24fe9df979d6e0f71fee7e88ca0efefa2eca54e2268ad38e614cb9d3f59fee21dfda29a06cc3187ecbd3d65c5e687a6d5c6e0f1af7620ba35072a7360006211da6cab8c4f82a9c2eb75597509f4cf65c77a0c9f89084469e68257f70ae19448d39f5e9c5b3766525da180e02b33b9e46c64cf0d5b4b3b63ab88567784f5d368ec5335253d1bfd1a24cb69b999b5df9f7b1258dd4604c31ab9c83450ac3ede7018e4f8954b6ac859e4f86ac2e56860352356832ad57169529853705a360029a99928c57f755593c318829cd913f81ca7b3ce44a7ba5ccbff73bbfc29abf30b0191d440d41d7f66da15bd1b4f6c4fffaaff9d3303b8cc0ed7dc1f8d207f79b2a1982fffdc79f814da733925c7b850a3944f537764e40026588b4f3eec5ec18bb7888bfa87418f18634a288047894a66655571ab77a046dade30ea2b656bd6c474300194b5c60ff0653243fd3d66ac9b274f2c182b2285cb017a24f224243301af16ec6673f194e7ec129240d7238c4ed0c2fc4a1b0cfd64d5afd8a1e5e601905e94214525bef8d92bca4b58de8cdcc00e48b14db084e480ac40a9fafe538add972bce62626ed8b2d36f68908e653e27645fed5f4b1a9a566cc2e430dca4e4366d6ca7a686c8ff880dbedf87297e60f2113669124711fad61b006fd66293975a1e9c173510b5a6d50b25dbcb73bf5bcef33f0827b2293148400ff253130189ca105087110995145e9a904b18267a254abcd5ea7203db2440642a5d4b1d40663909d93ade92fe8b332651dc58ec82fbc1796350665df7e295e2f6e120b78c33a0fc74949de951f88090129339e0dde195c3cb04348575f1526b72530a7604179a7865364f9d49343579a01d4dc561840e9deda926966790b656424122574ff772fb8e1d3f982bd934792741c6d1f003d0c1dcb18b41c48d83259d0b001351ab8679ab2dd6b719f6afb00b19f7403cb644cb945b6cfe79a25139181afaec0397983351c298d8661ff9bf2aec8bb9374fed9f1d55937d8b5913c9cace04f83e660e595f3a95a023e95c64d83a72417249643a4f1330ef9636225a7b5b2b990e70433a57189e4d98ce9715081ce40bca241853a9dc9982431a14d93cdcd55109364c97a55b51a60483bde24e40011fc0def44073820c2070cd3fd446126940b2b38032d388fe9638883227f9e497b95b98a974172ee731983ed6f6f25df66133d31c6127d72cb9b034e3bcba51ab42a5fa5475af7f6b0e27fc1fdae0e1a08f0057b2ed7eca925542328a2def5622d41031532a1956f94a1ff04f13a0420696c97b4adc5896a28ae040badaae30be3eb13f6f421642505404cb0e9eef8d078a1de6d36b8667dc34129f5b1eefd3431b583b758c2112a0a1a546c7f1416fa47e7a4faa016518676d9bbf0af48417920361933776de403a1db083776eac38ea2a7cac164e8bb60d242503f2f77c8a834ab55560d7db06a948c94775d4401378b1b49e570cad65977cbd044267917f036c8d6fbcd85206630c7fdddd84a88b69525a5e21d2b2f3185f54d938aa6109c7dcc407de73783bc56fb16bb57d3682a54f043d677fb37251975049d5603b2f08bcae54be0df0ae10214d355c681142e915df099207f6378cf44bd7c827608ec9529f4f020c1a8f14e7e38f936fd745d32a35af7068c50e92beb007af346d7a2c570111b2431393e484d5c5e6d6f798195a5c9d0fdfe0a2f464951535b7e7fa5b2d6ef082526292c2e2f42445b5e696e747a858ba0a1bdc2dfe1f10108191e334f51596a6d7c8a9499bbc3e2e3fb00000000001320384b01",
        "00565c940f49603b5ee1ec10c286ae43593cc9c2bed947cb1adec983dc18a82f75b724cd1aa4e39b8ef72ec19ed19e1ba22193dba282980477a814c3509043d95011c863f8ca3a726f3e4923931592a9e0d8d6b31b00ac42200ddafc7fc65b13773673c34141db893759f2efd8ee2ca9bc789d946af77a31a49e7d8528d813cbcac8f35cf46ab3f9fb3a9420c37f86138258a0e8b20a6f7544debb765b0ef23448a902689e512b594f536edd70e3be26121dc71302e1b9302171a8abe744d8d3f81590d35258b806d9e6eabb58976d18f2a71b700418eb9f3b77e51932ed00c76477bac4b94887934bff5e3a6135b3f9d23c559c9bd21d4176a77a864cb931fee48274e1b88e80d7ade554abbac86ca01a6c11ead689005f004be593313ae835062728d2a64aa0a9eb8723c033e2180d5229cb8fc92b1f9dba0b6ba39b8ef754219c757cf2791dec285fa254d17ea68f10540163ff3fe8f184ec70de6411ae9d416b8924de3e37741b5902f40f8790b1522a1e40472aca4b245e1aacbe237afd7ab5168ac2e388de348b44fb06c4bdfbe13e5b17d69bea540570d75a9340d905a41359b38840cb72a12804651ef318664801d9ca4f2d0e40128b6b900ec0b9131848c5673f4ba349bce1647d593716161162766a775edefe6a1e4e8412c170986ff7b027a51570879678548e219502fc71794fbd23b96806d6abcf26110af559dfc21385b2808d4501682bf7e6205a8e557b1b65c37c49ea607dc7283b4a160a134c74661680f9023ded83468056c60a5a829a0185f9196e8458a72c1de50254751cf676921772c0af1712cb0d435a69b722b9f3cea94fd28375f3f6246200863f25e303b2531d3a7ae5666eac54159112241460b5e1a36fce8ddfd469646c4f619e436227f30898ff71b314aebceb585fe682dd9f16fe74a1a046f5b6139ae2683b753558acb06636f1c0ba3f52b9090c1415ccfa4e192fc4c4f53b21f25f44c0f63397fbfa46aa39aedd67a0dd7ae50e0af76bbcb179402ec4de339a05b63f6400f5531554b511a3d2a07c5c46fc8f4f363d0ecb41896ab70c6bc131a7e140b30a258d21daaddb99b915a8b7a6474011eefac86af123ece8b86f2dbf9ba130f7a5a739778aa5305f24c1efcce90b74a1bbeacb6b42f33178b3a009a97c392d87331504fd8e24b7e1616debd7eb01816ab80552bd8269e5191328c778087702561fdeda218f4ef3c4b685af4fea634e0fc20930e13f33842473e610314df6dc85f1ec8ebf221e6c40f17d867fe4a59246253f1841a48b86d6a8daa91441114457da1897ed708cbe09670953c22001a11ab5ce6895b4168c61021f0155bd3e27ff6f5cdd9c1051bc5b82399a3656933311d8a77ad1c6c69a0b3d8b03fac745946f375f9217a59fd32970761b4fba3317a707e2aeab18a10325b48bff05ad1dc1a2e0e67b58f91e99d01855a91b7d13b3e6d44ed8c47e158aa6c534967c6889568929246fc735b73c5bfcd2ec9e0091945e64e5cdaf96b395dd881c1c20d91d6aeeca2efe45ad05cdcc9afe39f7987c52ff6bde1679a5b479a31c0a4e3b3be3ab8d92c7368992f07e7c09434fcc16ad9fcd92a4a8e77b6f82bcd69fdd659a455b4c73a56fe79e0e0143af6a93bcf7fb5c40250c9883fbcdd991e7c632bd3d505f52bc0d2ea2e82cb6f3ed06b649449f8327980bb09a99a49e7c2ec3ddd3683a5586733a4b06b0f5efd26037a4397d68471647f1e024955cac287fef63d14a1363da6bbae8778f053baf38aaad5a52dbbd56bad8d18a327904a2b383d13a1227e6659ea13af47af5c2f255b61de368c69bc3c90208ad0b52717205cc655affea7112"
      ],
      "sequence": 4294967294
    }
  ],
  "vout": [
    {
      "value": 1.0,
      "n": 0,
      "scriptPubKey": {
        "asm": "OP_RETURN 172b329987e1d6de845177a0248b96c0fbdcf9a349b071bd4973787ff8945652 50ec4c450b0ee7aa3a86bf8d48eeea113b37544cbb27a6f71d0a393c8b18c84070cc6c652b2ec78a1aa69fad68ceca311b17746c9b0786d73d2a191cab38e86010ac0c054b4ea7ea7ac6ffcd08aeaa517b77140cfb67e6b75d4a797ccb588800308c2c256b6e87ca5ae6dfed288e8a715b57342cdb47c6977d6a595ceb78a820d06cccc58b8e672aba063f0dc86e6a91bbb7d4cc3ba726779d8ab9bc0b9848c0f04cece5abae470a9a261f2de84e4ab19b97f4ec1b870657bdaa999c2bb868e0902c8c85cbce276afa467f4d882e2ad1fbf7948c7be76637ddcaf9fc4bd80880b00caca5ebee074ada665f6da80e0af1dbd7b4ac5bc74617fdead9dc6bf828a050ec4c450b0ee7aa3a86bf8d48eeea113b37544cbb27a6f71d0a393c8b18c84070cc6c652b2ec78a1aa69fad68ceca311b17746c9b0786d73d2a191cab38e86010ac0c054b4ea7ea7ac6ffcd08aeaa517b77140cfb67e6b75d4a797ccb588800308c2c256b6e87ca5ae6dfed288e8a715b57342cdb47c6977d6a595ceb78a820d06cccc58b8e672aba063f0dc86e6a91bbb7d4cc3ba726779d8ab9bc0b9848c0f04cece5abae470a9a261f2de84e4ab19b97f4ec1b870657bdaa999c2bb868e0902c8c85cbce276afa467f4d882e2ad1fbf7948c7be76637ddcaf9fc4bd80880b00caca5ebee074ada665f6da80e0af1dbd7b4ac5bc74617fdead9dc6bf828a050ec4c450b0ee7aa3a86bf8d48eeea113b37544cbb27a6f71d0a393c8b18c84070cc6c652b2ec78a1aa69fad68ceca311b17746c9b0786d73d2a191cab38e86010ac0c054b4ea7ea7ac6ffcd08aeaa517b77140cfb67e6b75d4a797ccb588800308c2c256b6e87ca5ae6dfed288e8a715b57342cdb47c6977d6a595ceb78a820d06cccc58b8e672aba063f0dc86e6a91bbb7d4cc3ba726779d8ab9bc0b9848c0f04cece5abae470a9a261f2de84e4ab19b97f4ec1b870657bdaa999c2bb868e0902c8c85cbce276afa467f4d882e2ad1fbf7948c7be76637ddcaf9fc4bd80880b00caca5ebee074ada665f6da80e0af1dbd7b4ac5bc74617fdead9dc6bf828a050ec4c450b0ee7aa3a86bf8d48eeea113b37544cbb27a6f71d0a393c8b18c84070cc6c652b2ec78a1aa69fad68ceca311b17746c9b0786d73d2a191cab38e86010ac0c054b4ea7ea7ac6ffcd08aeaa517b77140cfb67e6b75d4a797ccb588800308c2c256b6e87ca5ae6dfed288e8a715b57342cdb47c6977d6a595ceb78a820d06cccc58b8e672aba063f0dc86e6a91bbb7d4cc3ba726779d8ab9bc0b9848c0f04cece5abae470a9a261f2de84e4ab19b97f4ec1b870657bdaa999c2bb868e0902c8c85cbce276afa467f4d882e2ad1fbf7948c7be76637ddcaf9fc4bd80880b00caca5ebee074ada665f6da80e0af1dbd7b4ac5bc74617fdead9dc6bf828a050ec4c450b0ee7aa3a86bf8d48eeea113b37544cbb27a6f71d0a393c8b18c84070cc6c652b2ec78a1aa69fad68ceca311b17746c9b0786d73d2a191cab38e86010ac0c054b4ea7ea7ac6ffcd08aeaa517b77140cfb67e6b75d4a797ccb588800308c2c256b6e87ca5ae6dfed288e8a715b57342cdb47c6977d6a595ceb78a820d06cccc58b8e672aba063f0dc86e6a91fb17d51aa0eaa836db0ba4628c5d476ec8514738f5aad0e35e9972cc8c181b48",
        "hex": "6a20172b329987e1d6de845177a0248b96c0fbdcf9a349b071bd4973787ff89456524db00450ec4c450b0ee7aa3a86bf8d48eeea113b37544cbb27a6f71d0a393c8b18c84070cc6c652b2ec78a1aa69fad68ceca311b17746c9b0786d73d2a191cab38e86010ac0c054b4ea7ea7ac6ffcd08aeaa517b77140cfb67e6b75d4a797ccb588800308c2c256b6e87ca5ae6dfed288e8a715b57342cdb47c6977d6a595ceb78a820d06cccc58b8e672aba063f0dc86e6a91bbb7d4cc3ba726779d8ab9bc0b9848c0f04cece5abae470a9a261f2de84e4ab19b97f4ec1b870657bdaa999c2bb868e0902c8c85cbce276afa467f4d882e2ad1fbf7948c7be76637ddcaf9fc4bd80880b00caca5ebee074ada665f6da80e0af1dbd7b4ac5bc74617fdead9dc6bf828a050ec4c450b0ee7aa3a86bf8d48eeea113b37544cbb27a6f71d0a393c8b18c84070cc6c652b2ec78a1aa69fad68ceca311b17746c9b0786d73d2a191cab38e86010ac0c054b4ea7ea7ac6ffcd08aeaa517b77140cfb67e6b75d4a797ccb588800308c2c256b6e87ca5ae6dfed288e8a715b57342cdb47c6977d6a595ceb78a820d06cccc58b8e672aba063f0dc86e6a91bbb7d4cc3ba726779d8ab9bc0b9848c0f04cece5abae470a9a261f2de84e4ab19b97f4ec1b870657bdaa999c2bb868e0902c8c85cbce276afa467f4d882e2ad1fbf7948c7be76637ddcaf9fc4bd80880b00caca5ebee074ada665f6da80e0af1dbd7b4ac5bc74617fdead9dc6bf828a050ec4c450b0ee7aa3a86bf8d48eeea113b37544cbb27a6f71d0a393c8b18c84070cc6c652b2ec78a1aa69fad68ceca311b17746c9b0786d73d2a191cab38e86010ac0c054b4ea7ea7ac6ffcd08aeaa517b77140cfb67e6b75d4a797ccb588800308c2c256b6e87ca5ae6dfed288e8a715b57342cdb47c6977d6a595ceb78a820d06cccc58b8e672aba063f0dc86e6a91bbb7d4cc3ba726779d8ab9bc0b9848c0f04cece5abae470a9a261f2de84e4ab19b97f4ec1b870657bdaa999c2bb868e0902c8c85cbce276afa467f4d882e2ad1fbf7948c7be76637ddcaf9fc4bd80880b00caca5ebee074ada665f6da80e0af1dbd7b4ac5bc74617fdead9dc6bf828a050ec4c450b0ee7aa3a86bf8d48eeea113b37544cbb27a6f71d0a393c8b18c84070cc6c652b2ec78a1aa69fad68ceca311b17746c9b0786d73d2a191cab38e86010ac0c054b4ea7ea7ac6ffcd08aeaa517b77140cfb67e6b75d4a797ccb588800308c2c256b6e87ca5ae6dfed288e8a715b57342cdb47c6977d6a595ceb78a820d06cccc58b8e672aba063f0dc86e6a91bbb7d4cc3ba726779d8ab9bc0b9848c0f04cece5abae470a9a261f2de84e4ab19b97f4ec1b870657bdaa999c2bb868e0902c8c85cbce276afa467f4d882e2ad1fbf7948c7be76637ddcaf9fc4bd80880b00caca5ebee074ada665f6da80e0af1dbd7b4ac5bc74617fdead9dc6bf828a050ec4c450b0ee7aa3a86bf8d48eeea113b37544cbb27a6f71d0a393c8b18c84070cc6c652b2ec78a1aa69fad68ceca311b17746c9b0786d73d2a191cab38e86010ac0c054b4ea7ea7ac6ffcd08aeaa517b77140cfb67e6b75d4a797ccb588800308c2c256b6e87ca5ae6dfed288e8a715b57342cdb47c6977d6a595ceb78a820d06cccc58b8e672aba063f0dc86e6a91fb17d51aa0eaa836db0ba4628c5d476ec8514738f5aad0e35e9972cc8c181b48",
        "type": "nulldata"
      }
    },
    {
      "value": 499975.5944,
      "n": 1,
      "scriptPubKey": {
        "asm": "1 7a69b1c349e1def5d335f039306001ff5796aebe46346814b18e4442598ea593",
        "hex": "51207a69b1c349e1def5d335f039306001ff5796aebe46346814b18e4442598ea593",
        "reqSigs": 1,
        "type": "witness_v1_scripthash",
        "addresses": [
          "3QJmnh"
        ]
      }
    }
  ],
  "blockhash": "fe93069f37b49cfb15542a42b300d4e9dc573fdbbe6c5d081907ef62d551896a",
  "confirmations": 1,
  "time": 1764180962,
  "blocktime": 1764180962
}