{
  "hex": "01000000000101bd0bb9ee8f3d6249cd2959f2cffb47d0cb0a2ab879eff6c6dcd1b93a925994cf0100000000feffffff02c02309ae782d0000225120710f5a1b90f806ec0191f2a2caea14f2ada4e063ec2ae68120ab500f962ce69600e1f50500000000fdd5046a20c9090a298747f28b92ec89bbc5abf0c757a0b60c3aa423926cb22b01204c70164db00494a8d48bffa5e20a0bd5ca24b95f44dc0e6590ec4dc42e977101e4e6a7dd44b1b488f4abdf85c22a2bf5ea04997f64fc2e45b0cc6de40eb75121c4c687fd6491d4e894cbbfe5a24a4b958a64f91f049c4e25d0ac0d846ed73141a4a6e79d04f1f4c8b4eb9fc5826a6bb5aa44d93f24bc6e05f08c2da44ef711618486c7bd24d11428540b7f25628a8b554aa439dfc45c8ee5106ccd44ae17f1816466275dc4313408742b5f0542aaab756a8419ffe47caec5304ced648e37d1a14446077de4115468144b3f6522cacb150ae4799f841ccea5502c8d04ee57b1c12426671d84717448346b1f4502eaeb352ac459bfa43cee85700cad24ce7791e10406473da45194a8d48bffa5e20a0bd5ca24b95f44dc0e6590ec4dc42e977101e4e6a7dd44b1b488f4abdf85c22a2bf5ea04997f64fc2e45b0cc6de40eb75121c4c687fd6491d4e894cbbfe5a24a4b958a64f91f049c4e25d0ac0d846ed73141a4a6e79d04f1f4c8b4eb9fc5826a6bb5aa44d93f24bc6e05f08c2da44ef711618486c7bd24d11428540b7f25628a8b554aa439dfc45c8ee5106ccd44ae17f1816466275dc4313408742b5f0542aaab756a8419ffe47caec5304ced648e37d1a14446077de4115468144b3f6522cacb150ae4799f841ccea5502c8d04ee57b1c12426671d84717448346b1f4502eaeb352ac459bfa43cee85700cad24ce7791e10406473da45194a8d48bffa5e20a0bd5ca24b95f44dc0e6590ec4dc42e977101e4e6a7dd44b1b488f4abdf85c22a2bf5ea04997f64fc2e45b0cc6de40eb75121c4c687fd6491d4e894cbbfe5a24a4b958a64f91f049c4e25d0ac0d846ed73141a4a6e79d04f1f4c8b4eb9fc5826a6bb5aa44d93f24bc6e05f08c2da44ef711618486c7bd24d11428540b7f25628a8b554aa439dfc45c8ee5106ccd44ae17f1816466275dc4313408742b5f0542aaab756a8419ffe47caec5304ced648e37d1a14446077de4115468144b3f6522cacb150ae4799f841ccea5502c8d04ee57b1c12426671d84717448346b1f4502eaeb352ac459bfa43cee85700cad24ce7791e10406473da45194a8d48bffa5e20a0bd5ca24b95f44dc0e6590ec4dc42e977101e4e6a7dd44b1b488f4abdf85c22a2bf5ea04997f64fc2e45b0cc6de40eb75121c4c687fd6491d4e894cbbfe5a24a4b958a64f91f049c4e25d0ac0d846ed73141a4a6e79d04f1f4c8b4eb9fc5826a6bb5aa44d93f24bc6e05f08c2da44ef711618486c7bd24d11428540b7f25628a8b554aa439dfc45c8ee5106ccd44ae17f1816466275dc4313408742b5f0542aaab756a8419ffe47caec5304ced648e37d1a14446077de4115468144b3f6522cacb150ae4799f841ccea5502c8d04ee57b1c12426671d84717448346b1f4502eaeb352ac459bfa43cee85700cad24ce7791e10406473da45194a8d48bffa5e20a0bd5ca24b95f44dc0e6590ec4dc42e977101e4e6a7dd44b1b488f4abdf85c22a2bf5ea04997f64fc2e45b0cc6de40eb75121c4c687fd6491d4e894cbbfe5a24a4b958a64f91f049c4e25d0ac0d846ed73141a4a6e79d04f1f4c8b4eb9fc5826a6bb5aa44d93f24bc6e05f08c2da44ef711618486c7bd24d11428540b7f25628a8b554aa439dfc45c7107c7554df3a520f2fd9efe99191e9a9bb2734b591cd95790421fd05f60fcc202fd750970e7d8ae33c9ddd361cb4b5ff619f585e43488a37debe06b312ed8ead72e7f863d7f87cf9891d6f6fbf333f8fad376c66744db71d6bdcff720c22abe99cf87100ef63ac818a7f9abedd4077cf2fabf0ca9de5cc9959300538c460c003bbaea4d18872b22b19b814bc4e0ebad3b3763a8d4d0fe84f5c371929f32cb6d5336b294a13d6a4a29f126b3ca48e771a97a6e8933aaf8a0d330766d2416fa1443052841765d3ecec6e3fe1ea6b54c8aab4b3f8c8db36f4f3277d9f24ac260605c90331f5472c8a3c207b6492f01b5a514fa725dec3048c0eb7a9b8d65d7f542459399e05569d05a2daf6ed0aef0950e7561cd25b35c88bf77d6b1aa757ec4d96b7a921020d909937a822951a33e1908e9deb27a1a9840feba570afdb9befa5e499e9789fc77b12d9710d26c3c4c662ec087fd1a7aad158ce84fd360bd0cc7f4495873112ce2347b044874d43bff100001785b9371d825b0f72b213f23e8f8ca18e90e708f75a8d23253bdb4060ad03b83769aec7a264070ab20d52d2f066fe71f7a187aa246ca9d5b3620d7229d83ae2bebfbb3adc7789793f44c1d4eac53dbfa8b57e0ab1bcc82e4572b461a7bd6531fa3f28cecd40f33d9a62da1d94d538973c7e399b6eded16af0723a0192de3b4cf28561b990922fa73c205cadfe6e57dcc9c299790a5b3e2e9da226309afc58c170538e08be0fa941105d44c3362a034a16ec55171178a4bac9af1fd8fc5e9b705ae503b1bbcf0b1be0ba2fbbc11bf3648af1430af63970212af4a864804ed63efb7d0d92a17d4913d31d77252dfd48611889597094668f304e155240a63148000c6ae4e29438b183e594b91bd8fdcc796b4e4a5adf9fd68c008a23670b40c89b7685d85671da5e8058e8c7eca010873245cf8b4e43bb17d2775e62443e1b45175d46607a13f24d4e5f91e52266d46e62fbcb6101c83556cecac61a066f12196f589a39f541bc78c1f8a05c1ebdd8c224bb7b6462d292d77bd92813c211ca82dc37a733ab04a1543f9927772a34bc645de387dcfa2185d2142cdca60d8a896b9d6b858a2c600f345adfff885502a28636a9a3e625723391c7f7c546a77ae34a0a9bbfed86004a8acf9c4bd6b2937603bf32826dec2c08450e904e6d37d8423dcdbb00e6a6cc2ab3013e6f61a8af5d125eca0948ac9e56686cddae3044bed23e2355b5638a0a1dc718154d2f5fe176b22a388f27105c6ee316b280faa87445eb8b181825e2df4161e1e1021ab1d0d59151e3d0ccdf4ae1a6a99eb15aa81824c51ec8ce36ffc3b59a34b8aa08597b79f6a453e2658f1de0ec59c97272375a4c42fe977845d9ac4bcc2e45348c7ea733434a13ce6d5ccb0096e4273bf95d04529d1d566767ba9ddd460edb2ca572f69edc0ad6acba2d84f18a089040487b50287789d907adade67a6bcdb4a277b24da083381be79dc847e8eebc2078c7db520ff9826876c40291933859bcb4bd16a05a21577849924c87ecb3ed89fd02c5f6461a9faf1b1dd2169f5ac527fb707227cb68ed46722d46067c7e0885e414bb885bb96216d75dc342104301686d67984d69df958e0577d67ab15c7e0bb2c00211e21841fb5d1b68a339e9aaa0808ee9b9b106ac67083accc9ddff09e39ca0c8ddd3de5bc515e7655b1eecb6dee024df451470b6db8a1c49824352f88824996ee122538ff97fff3bfc37611f73b733a6a160a5c659951f5222b5e377374388c6faf94015e87891757b176935da73b5a4203e3c08bf5809337f9f0b98e48e62e4818070db5b9d641ada1c57a2f1c58e72f6f8c9b0cca6c4d529439b410063e54562139262b1cd6434bd64668d97f563a524060601b470f73b5d8776ec31edf9d9ac85a2b3f1b5cee0b392594854043eb1a154ab77a635d0675858ac0ad43e599c0ac2dc48a9467b225a9f2d3e9c5700fb1d3249630430cf07c9b34746feffe2906a65c0d57159835b98cb8cbb0dd28734cc40cc38bf618c3bce459c5f27b449215c019acca18c69b45c10c49ec0b90be113f320dd393056f238ba8671f91443e7f98e2db74049b5f3dd529bde9bf74bf7590da6f55701ec53067d9eda602d9840de02335715ef90618429c439697b667a88d9897ea748e075096d63609244768ca504c9c81cce392fbaa6a1937d6405061ea5f7c1f7220a81998f8ed735d86401a0ab8aad247e278dfa31837f8d950d3f320a79558303c9cadc7b3562aa1927756481a2bc51429576244186e55abbdfcedc549277a1f152a0533c4f023cece08b002c252f907772e0eb0e6b6c8dd7d68132e89ebd5ea405018688b6c59b6c4f29ac8df0f0361c317651936158a55729f2ecefe5d79055da9e540141ed58d55c08040327671da45f0502510884f8e2d9ab00b914e0ac25da2ec5bd8b164210042a36fb19dca51b24b23333093a3624645e0f108675c84d0ab13bbb0bd02238cdf5c8c3a672a5e4398cd03ba90af606e22afdf937535f408a39c71226edc3be2f401485dcea30d079daf0f63d4b214aaa776fb274003d979ec56fc41679bcf7564c2320b30ed29c9d2a26e236d5732dbd1545a1b51343aa8bca663542411b51b905cc6cf61f8145bf7c6e967c14cb4b29b3ee1aad02f558d91c92d622cf8873607393ffbd6cfd5171d112f2e098bb573ab5ebf7896f8b4e5c61457c9c1b8f02457bebbd17468e8f8336578a845b34d9e3147fa51b24f2ecd3c937c88ba894a7792d134434ae9f6e82cc622f43d9964713b94574bae90b880bfa70c6194ce51435f9e890ed145f739c7668483cb0c3a57c9175bfaf99454183e4d86e9dc67983efd4c9082c95c2286e901a831a4d9f3b2e9d2581c2a8328ab8c83e938b23583b65b3e658e7214b8ccc5ca5dc45ae717ecc9893b35a4dac7ef3093d0874811e00a6b42a2572d975beecfed17f0fe5878a93bc870e4171e6083652e2388130ec394af99d26b5ee9c5cbc34070b8d2a235871a5bcafc5e2a5fde7dce02a1837e3ac44f32293c27f0ef8114bef6b9a065fc4f792f055134ca09605df569949dd71fd47e843532232cc086a085ce91de098ab0b81a41c38eae57e1167f0e06400c17a77beee6981801442f44554473d5c0a83a50bbbf201d83d75391f63d928f6ca332d4c25c42ce86df4d9be901586e769fa5715e50fbdf7037cb94490bd5885f22d79bb1d863dcc6d85df3e52e1e61e54fd2e482e5979a0fac9d240d8c6576e52ca45a7521685e4d006299749d89184ccefc2777aa195f83ac5eaa66481316370da88eea8db8fee7b928b683056e9928bf1c8117e1a2c694cd5eb0020912212b4b64748898a1a2bce1eb0e151f27416d72748b95a1aab8dfe2e4eff3222e373e5960829ec6dadbdce3172f3c3d4b52535d648090b4d3fd00000000000000000000000000000000000000000f212e3c01fd210500b1458e61744779dd3a17b90be6066aa1075210850abd5ac89d89ca2ccf39d84aabb3759601f39287324cb599d294c7ced999d4d40cf5e55263074dbbccb4b9a202a841f40e502890a3257fe10de5e4de522bed0a7859191f729925a1d9b2bde7b9e0ceb3e3fc60ef6437578ff5d990c06647ab9b2ddd042ea1cf9ffc284347ca08fa033c12e582afd317500d600fe8f6f0774dbbda142e6aeedda4f47a1b5416779e9614908301f26719807d2746b58ef96a9bfa342a395761d4feccfbc9293808624cd9f046619e19aad51a76e99e2be2c7ff5d6955cf023fda558cd40283c9b9b11c7dc666851a38c42d1da1afe535522740c2d7b4174d74e847aafbe2a232c78c44424a83d39c6e5bd53af098ba1ea7be848cdd3656edbc9b8f25da110bb778673c8cb9f6cf0624710dbf356c8790bde57d634a074aea022d003bb5f343273f9b934ac111428f44945e76c5b360f24cb8a5765013ee16cbfc82be135f7b4b6c1ea8a1b3febf63f97187b246ea0150914e673d1cb675b13d8a4f3ab56b46489627d93100cadd02bafe40ea4aaec25f47cc746ad0f31cf7ae2b60fac5f00107b13f492390052abf09ff81cc2ddd3dc845adfafb919bfa90b2b50066f56fa1cdee66db22fcadae73f62fcc4bff95ec027fd02c705d81df9b73a526f37581867ec66c08c84d6ddef9c17faa8033a6801f89dec833c3f09fb8827a1ed24b3dcb1a1256ada6238df7dd5f1630564160f0a7fc59b14641fcb41b982d36d171b5f3bb96c23d7d89af058e55f52ea64c93d2df8699322efedcb95b828f4569ed8e66148d1dd894b04f6e8ef65a80dd2ff4563452a249a09658215c4b5686adb953a0b279f88718c0faf1312dc7b24d0b4ccaca144381897c72ca73b9f0a0854221b8385bdbf2168b5fbcd3c393adf3aa3577fad29d195ba40a2e96951820ed96954f3746b62fe61b5cb6c0931a3bc0fccf85d12ca52d7c0819f8c7b7d820b1cce8df2c3b50650e8bfabc99a83c71ba454c7159f319252194953ecba524bc17680c1dabdb769a72df061f86b574a9aafa8c821412a69d66327208c8edeac963e4c4a5faa19f2a290ecc3b2bbf4361730c2b06896be53a6dd64f41b77d97f76651c595a89b3cf304e941ad6171d9acf24673e5fc1af1c6dd9527ec26f2289950a4758545379e82611828d35b99e2fddcd16c176f46b8ae2bd758d58e4feb249113a083d3385893a0ecabf33b1e8b15491cd0e7b481d050ef199a875f2dcaddddafa83b1c54081b4cc15872c2482386b8d9f1b757b1d350c0527a1816b4e6593233e8d44c6ebcd5dc779ef40ca39064a6f7bdc9903880a98651d12e8561612aa605bfe87d85639f807028375da7122a30290dc92ae3851d8fe03a1cf453a005da1e69fb54d4c4db1ec9236a59d68fbde02ab330227d204670dd326c1943282ddccc021e1c503431b0ffc647ff033aef8ac328a4cf3c60eae94c05c43105c5d5e6305e1bc7c28dbc6f68c7705780a864480111b067dd44ebe7c2430a8f9412f729b9806c88ef5953e48863ac784862d0787251a59fc6dde927c5a42ddd25a3b0de7975c909da10ecaff37db116a99c88f40437f627c5f73af5d8e6571b65c70e84f8faedceedf6da28dac5166270581cf1e7c408f714124b8ae52a14df082390c09d342a641cdb8b98a008151c30262979137551e4f41b10437f31f0fcfda58c53dad4442fb2afbd06330a612b6830bd7c88fd9c1f92cf45e88d01c2055375e8c688f14403ae0f90a89eff73fd52b866cbc16f6a05e2484cfe71d8f64f87c8cf3e91feaf5cef826660ab0c16c0290c2685f08b2bafef668362059a9997e77d94bab3629ef186000000",
  "txid": "740b4a2aae9c6fe035493cd071cb3636b3fb06bc76329553411aca0a7757b161",
  "hash": "cf1e31adc63cedcfa827c9619222756fac6a9cefe9e98fa570620427ca846b5b",
  "size": 5085,
  "vsize": 2278,
  "version": 1,
  "locktime": 134,
  "vin": [
    {
      "txid": "cf9459923ab9d1dcc6f6ef79b82a0acbd047fbcff25929cd49623d8feeb90bbd",
      "vout": 1,
      "scriptSig": {
        "asm": "",
        "hex": ""
      },
      "txinwitness": [
        "70e7d8ae33c9ddd361cb4b5ff619f585e43488a37debe06b312ed8ead72e7f863d7f87cf9891d6f6fbf333f8fad376c66744db71d6bdcff720c22abe99cf87100ef63ac818a7f9abedd4077cf2fabf0ca9de5cc9959300538c460c003bbaea4d18872b22b19b814bc4e0ebad3b3763a8d4d0fe84f5c371929f32cb6d5336b294a13d6a4a29f126b3ca48e771a97a6e8933aaf8a0d330766d2416fa1443052841765d3ecec6e3fe1ea6b54c8aab4b3f8c8db36f4f3277d9f24ac260605c90331f5472c8a3c207b6492f01b5a514fa725dec3048c0eb7a9b8d65d7f542459399e05569d05a2daf6ed0aef0950e7561cd25b35c88bf77d6b1aa757ec4d96b7a921020d909937a822951a33e1908e9deb27a1a9840feba570afdb9befa5e499e9789fc77b12d9710d26c3c4c662ec087fd1a7aad158ce84fd360bd0cc7f4495873112ce2347b044874d43bff100001785b9371d825b0f72b213f23e8f8ca18e90e708f75a8d23253bdb4060ad03b83769aec7a264070ab20d52d2f066fe71f7a187aa246ca9d5b3620d7229d83ae2bebfbb3adc7789793f44c1d4eac53dbfa8b57e0ab1bcc82e4572b461a7bd6531fa3f28cecd40f33d9a62da1d94d538973c7e399b6eded16af0723a0192de3b4cf28561b990922fa73c205cadfe6e57dcc9c299790a5b3e2e9da226309afc58c170538e08be0fa941105d44c3362a034a16ec55171178a4bac9af1fd8fc5e9b705ae503b1bbcf0b1be0ba2fbbc11bf3648af1430af63970212af4a864804ed63efb7d0d92a17d4913d31d77252dfd48611889597094668f304e155240a63148000c6ae4e29438b183e594b91bd8fdcc796b4e4a5adf9fd68c008a23670b40c89b7685d85671da5e8058e8c7eca010873245cf8b4e43bb17d2775e62443e1b45175d46607a13f24d4e5f91e52266d46e62fbcb6101c83556cecac61a066f12196f589a39f541bc78c1f8a05c1ebdd8c224bb7b6462d292d77bd92813c211ca82dc37a733ab04a1543f9927772a34bc645de387dcfa2185d2142cdca60d8a896b9d6b858a2c600f345adfff885502a28636a9a3e625723391c7f7c546a77ae34a0a9bbfed86004a8acf9c4bd6b2937603bf32826dec2c08450e904e6d37d8423dcdbb00e6a6cc2ab3013e6f61a8af5d125eca0948ac9e56686cddae3044bed23e2355b5638a0a1dc718154d2f5fe176b22a388f27105c6ee316b280faa87445eb8b181825e2df4161e1e1021ab1d0d59151e3d0ccdf4ae1a6a99eb15aa81824c51ec8ce36ffc3b59a34b8aa08597b79f6a453e2658f1de0ec59c97272375a4c42fe977845d9ac4bcc2e45348c7ea733434a13ce6d5ccb0096e4273bf95d04529d1d566767ba9ddd460edb2ca572f69edc0ad6acba2d84f18a089040487b50287789d907adade67a6bcdb4a277b24da083381be79dc847e8eebc2078c7db520ff9826876c40291933859bcb4bd16a05a21577849924c87ecb3ed89fd02c5f6461a9faf1b1dd2169f5ac527fb707227cb68ed46722d46067c7e0885e414bb885bb96216d75dc342104301686d67984d69df958e0577d67ab15c7e0bb2c00211e21841fb5d1b68a339e9aaa0808ee9b9b106ac67083accc9ddff09e39ca0c8ddd3de5bc515e7655b1eecb6dee024df451470b6db8a1c49824352f88824996ee122538ff97fff3bfc37611f73b733a6a160a5c659951f5222b5e377374388c6faf94015e87891757b176935da73b5a4203e3c08bf5809337f9f0b98e48e62e4818070db5b9d641ada1c57a2f1c58e72f6f8c9b0cca6c4d529439b410063e54562139262b1cd6434bd64668d97f563a524060601b470f73b5d8776ec31edf9d9ac85a2b3f1b5cee0b392594854043eb1a154ab77a635d0675858ac0ad43e599c0ac2dc48a9467b225a9f2d3e9c5700fb1d3249630430cf07c9b34746feffe2906a65c0d57159835b98cb8cbb0dd28734cc40cc38bf618c3bce459c5f27b449215c019acca18c69b45c10c49ec0b90be113f320dd393056f238ba8671f91443e7f98e2db74049b5f3dd529bde9bf74bf7590da6f55701ec53067d9eda602d9840de02335715ef90618429c439697b667a88d9897ea748e075096d63609244768ca504c9c81cce392fbaa6a1937d6405061ea5f7c1f7220a81998f8ed735d86401a0ab8aad247e278dfa31837f8d950d3f320a79558303c9cadc7b3562aa1927756481a2bc51429576244186e55abbdfcedc549277a1f152a0533c4f023cece08b002c252f907772e0eb0e6b6c8dd7d68132e89ebd5ea405018688b6c59b6c4f29ac8df0f0361c317651936158a55729f2ecefe5d79055da9e540141ed58d55c08040327671da45f0502510884f8e2d9ab00b914e0ac25da2ec5bd8b164210042a36fb19dca51b24b23333093a3624645e0f108675c84d0ab13bbb0bd02238cdf5c8c3a672a5e4398cd03ba90af606e22afdf937535f408a39c71226edc3be2f401485dcea30d079daf0f63d4b214aaa776fb274003d979ec56fc41679bcf7564c2320b30ed29c9d2a26e236d5732dbd1545a1b51343aa8bca663542411b51b905cc6cf61f8145bf7c6e967c14cb4b29b3ee1aad02f558d91c92d622cf8873607393ffbd6cfd5171d112f2e098bb573ab5ebf7896f8b4e5c61457c9c1b8f02457bebbd17468e8f8336578a845b34d9e3147fa51b24f2ecd3c937c88ba894a7792d134434ae9f6e82cc622f43d9964713b94574bae90b880bfa70c6194ce51435f9e890ed145f739c7668483cb0c3a57c9175bfaf99454183e4d86e9dc67983efd4c9082c95c2286e901a831a4d9f3b2e9d2581c2a8328ab8c83e938b23583b65b3e658e7214b8ccc5ca5dc45ae717ecc9893b35a4dac7ef3093d0874811e00a6b42a2572d975beecfed17f0fe5878a93bc870e4171e6083652e2388130ec394af99d26b5ee9c5cbc34070b8d2a235871a5bcafc5e2a5fde7dce02a1837e3ac44f32293c27f0ef8114bef6b9a065fc4f792f055134ca09605df569949dd71fd47e843532232cc086a085ce91de098ab0b81a41c38eae57e1167f0e06400c17a77beee6981801442f44554473d5c0a83a50bbbf201d83d75391f63d928f6ca332d4c25c42ce86df4d9be901586e769fa5715e50fbdf7037cb94490bd5885f22d79bb1d863dcc6d85df3e52e1e61e54fd2e482e5979a0fac9d240d8c6576e52ca45a7521685e4d006299749d89184ccefc2777aa195f83ac5eaa66481316370da88eea8db8fee7b928b683056e9928bf1c8117e1a2c694cd5eb0020912212b4b64748898a1a2bce1eb0e151f27416d72748b95a1aab8dfe2e4eff3222e373e5960829ec6dadbdce3172f3c3d4b52535d648090b4d3fd00000000000000000000000000000000000000000f212e3c01",
        "00b1458e61744779dd3a17b90be6066aa1075210850abd5ac89d89ca2ccf39d84aabb3759601f39287324cb599d294c7ced999d4d40cf5e55263074dbbccb4b9a202a841f40e502890a3257fe10de5e4de522bed0a7859191f729925a1d9b2bde7b9e0ceb3e3fc60ef6437578ff5d990c06647ab9b2ddd042ea1cf9ffc284347ca08fa033c12e582afd317500d600fe8f6f0774dbbda142e6aeedda4f47a1b5416779e9614908301f26719807d2746b58ef96a9bfa342a395761d4feccfbc9293808624cd9f046619e19aad51a76e99e2be2c7ff5d6955cf023fda558cd40283c9b9b11c7dc666851a38c42d1da1afe535522740c2d7b4174d74e847aafbe2a232c78c44424a83d39c6e5bd53af098ba1ea7be848cdd3656edbc9b8f25da110bb778673c8cb9f6cf0624710dbf356c8790bde57d634a074aea022d003bb5f343273f9b934ac111428f44945e76c5b360f24cb8a5765013ee16cbfc82be135f7b4b6c1ea8a1b3febf63f97187b246ea0150914e673d1cb675b13d8a4f3ab56b46489627d93100cadd02bafe40ea4aaec25f47cc746ad0f31cf7ae2b60fac5f00107b13f492390052abf09ff81cc2ddd3dc845adfafb919bfa90b2b50066f56fa1cdee66db22fcadae73f62fcc4bff95ec027fd02c705d81df9b73a526f37581867ec66c08c84d6ddef9c17faa8033a6801f89dec833c3f09fb8827a1ed24b3dcb1a1256ada6238df7dd5f1630564160f0a7fc59b14641fcb41b982d36d171b5f3bb96c23d7d89af058e55f52ea64c93d2df8699322efedcb95b828f4569ed8e66148d1dd894b04f6e8ef65a80dd2ff4563452a249a09658215c4b5686adb953a0b279f88718c0faf1312dc7b24d0b4ccaca144381897c72ca73b9f0a0854221b8385bdbf2168b5fbcd3c393adf3aa3577fad29d195ba40a2e96951820ed96954f3746b62fe61b5cb6c0931a3bc0fccf85d12ca52d7c0819f8c7b7d820b1cce8df2c3b50650e8bfabc99a83c71ba454c7159f319252194953ecba524bc17680c1dabdb769a72df061f86b574a9aafa8c821412a69d66327208c8edeac963e4c4a5faa19f2a290ecc3b2bbf4361730c2b06896be53a6dd64f41b77d97f76651c595a89b3cf304e941ad6171d9acf24673e5fc1af1c6dd9527ec26f2289950a4758545379e82611828d35b99e2fddcd16c176f46b8ae2bd758d58e4feb249113a083d3385893a0ecabf33b1e8b15491cd0e7b481d050ef199a875f2dcaddddafa83b1c54081b4cc15872c2482386b8d9f1b757b1d350c0527a1816b4e6593233e8d44c6ebcd5dc779ef40ca39064a6f7bdc9903880a98651d12e8561612aa605bfe87d85639f807028375da7122a30290dc92ae3851d8fe03a1cf453a005da1e69fb54d4c4db1ec9236a59d68fbde02ab330227d204670dd326c1943282ddccc021e1c503431b0ffc647ff033aef8ac328a4cf3c60eae94c05c43105c5d5e6305e1bc7c28dbc6f68c7705780a864480111b067dd44ebe7c2430a8f9412f729b9806c88ef5953e48863ac784862d0787251a59fc6dde927c5a42ddd25a3b0de7975c909da10ecaff37db116a99c88f40437f627c5f73af5d8e6571b65c70e84f8faedceedf6da28dac5166270581cf1e7c408f714124b8ae52a14df082390c09d342a641cdb8b98a008151c30262979137551e4f41b10437f31f0fcfda58c53dad4442fb2afbd06330a612b6830bd7c88fd9c1f92cf45e88d01c2055375e8c688f14403ae0f90a89eff73fd52b866cbc16f6a05e2484cfe71d8f64f87c8cf3e91feaf5cef826660ab0c16c0290c2685f08b2bafef668362059a9997e77d94bab3629ef1"
      ],
      "sequence": 4294967294
    }
  ],
  "vout": [
    {
      "value": 499963.3916,
      "n": 0,
      "scriptPubKey": {
        "asm": "1 710f5a1b90f806ec0191f2a2caea14f2ada4e063ec2ae68120ab500f962ce696",
        "hex": "5120710f5a1b90f806ec0191f2a2caea14f2ada4e063ec2ae68120ab500f962ce696",
        "reqSigs": 1,
        "type": "witness_v1_scripthash",
        "addresses": [
          "3QJmnh"
        ]
      }
    },
    {
      "value": 1.0,
      "n": 1,
      "scriptPubKey": {
        "asm": "OP_RETURN c9090a298747f28b92ec89bbc5abf0c757a0b60c3aa423926cb22b01204c7016 94a8d48bffa5e20a0bd5ca24b95f44dc0e6590ec4dc42e977101e4e6a7dd44b1b488f4abdf85c22a2bf5ea04997f64fc2e45b0cc6de40eb75121c4c687fd6491d4e894cbbfe5a24a4b958a64f91f049c4e25d0ac0d846ed73141a4a6e79d04f1f4c8b4eb9fc5826a6bb5aa44d93f24bc6e05f08c2da44ef711618486c7bd24d11428540b7f25628a8b554aa439dfc45c8ee5106ccd44ae17f1816466275dc4313408742b5f0542aaab756a8419ffe47caec5304ced648e37d1a14446077de4115468144b3f6522cacb150ae4799f841ccea5502c8d04ee57b1c12426671d84717448346b1f4502eaeb352ac459bfa43cee85700cad24ce7791e10406473da45194a8d48bffa5e20a0bd5ca24b95f44dc0e6590ec4dc42e977101e4e6a7dd44b1b488f4abdf85c22a2bf5ea04997f64fc2e45b0cc6de40eb75121c4c687fd6491d4e894cbbfe5a24a4b958a64f91f049c4e25d0ac0d846ed73141a4a6e79d04f1f4c8b4eb9fc5826a6bb5aa44d93f24bc6e05f08c2da44ef711618486c7bd24d11428540b7f25628a8b554aa439dfc45c8ee5106ccd44ae17f1816466275dc4313408742b5f0542aaab756a8419ffe47caec5304ced648e37d1a14446077de4115468144b3f6522cacb150ae4799f841ccea5502c8d04ee57b1c12426671d84717448346b1f4502eaeb352ac459bfa43cee85700cad24ce7791e10406473da45194a8d48bffa5e20a0bd5ca24b95f44dc0e6590ec4dc42e977101e4e6a7dd44b1b488f4abdf85c22a2bf5ea04997f64fc2e45b0cc6de40eb75121c4c687fd6491d4e894cbbfe5a24a4b958a64f91f049c4e25d0ac0d846ed73141a4a6e79d04f1f4c8b4eb9fc5826a6bb5aa44d93f24bc6e05f08c2da44ef711618486c7bd24d11428540b7f25628a8b554aa439dfc45c8ee5106ccd44ae17f1816466275dc4313408742b5f0542aaab756a8419ffe47caec5304ced648e37d1a14446077de4115468144b3f6522cacb150ae4799f841ccea5502c8d04ee57b1c12426671d84717448346b1f4502eaeb352ac459bfa43cee85700cad24ce7791e10406473da45194a8d48bffa5e20a0bd5ca24b95f44dc0e6590ec4dc42e977101e4e6a7dd44b1b488f4abdf85c22a2bf5ea04997f64fc2e45b0cc6de40eb75121c4c687fd6491d4e894cbbfe5a24a4b958a64f91f049c4e25d0ac0d846ed73141a4a6e79d04f1f4c8b4eb9fc5826a6bb5aa44d93f24bc6e05f08c2da44ef711618486c7bd24d11428540b7f25628a8b554aa439dfc45c8ee5106ccd44ae17f1816466275dc4313408742b5f0542aaab756a8419ffe47caec5304ced648e37d1a14446077de4115468144b3f6522cacb150ae4799f841ccea5502c8d04ee57b1c12426671d84717448346b1f4502eaeb352ac459bfa43cee85700cad24ce7791e10406473da45194a8d48bffa5e20a0bd5ca24b95f44dc0e6590ec4dc42e977101e4e6a7dd44b1b488f4abdf85c22a2bf5ea04997f64fc2e45b0cc6de40eb75121c4c687fd6491d4e894cbbfe5a24a4b958a64f91f049c4e25d0ac0d846ed73141a4a6e79d04f1f4c8b4eb9fc5826a6bb5aa44d93f24bc6e05f08c2da44ef711618486c7bd24d11428540b7f25628a8b554aa439dfc45c7107c7554df3a520f2fd9efe99191e9a9bb2734b591cd95790421fd05f60fcc2",
        "hex": "6a20c9090a298747f28b92ec89bbc5abf0c757a0b60c3aa423926cb22b01204c70164db00494a8d48bffa5e20a0bd5ca24b95f44dc0e6590ec4dc42e977101e4e6a7dd44b1b488f4abdf85c22a2bf5ea04997f64fc2e45b0cc6de40eb75121c4c687fd6491d4e894cbbfe5a24a4b958a64f91f049c4e25d0ac0d846ed73141a4a6e79d04f1f4c8b4eb9fc5826a6bb5aa44d93f24bc6e05f08c2da44ef711618486c7bd24d11428540b7f25628a8b554aa439dfc45c8ee5106ccd44ae17f1816466275dc4313408742b5f0542aaab756a8419ffe47caec5304ced648e37d1a14446077de4115468144b3f6522cacb150ae4799f841ccea5502c8d04ee57b1c12426671d84717448346b1f4502eaeb352ac459bfa43cee85700cad24ce7791e10406473da45194a8d48bffa5e20a0bd5ca24b95f44dc0e6590ec4dc42e977101e4e6a7dd44b1b488f4abdf85c22a2bf5ea04997f64fc2e45b0cc6de40eb75121c4c687fd6491d4e894cbbfe5a24a4b958a64f91f049c4e25d0ac0d846ed73141a4a6e79d04f1f4c8b4eb9fc5826a6bb5aa44d93f24bc6e05f08c2da44ef711618486c7bd24d11428540b7f25628a8b554aa439dfc45c8ee5106ccd44ae17f1816466275dc4313408742b5f0542aaab756a8419ffe47caec5304ced648e37d1a14446077de4115468144b3f6522cacb150ae4799f841ccea5502c8d04ee57b1c12426671d84717448346b1f4502eaeb352ac459bfa43cee85700cad24ce7791e10406473da45194a8d48bffa5e20a0bd5ca24b95f44dc0e6590ec4dc42e977101e4e6a7dd44b1b488f4abdf85c22a2bf5ea04997f64fc2e45b0cc6de40eb75121c4c687fd6491d4e894cbbfe5a24a4b958a64f91f049c4e25d0ac0d846ed73141a4a6e79d04f1f4c8b4eb9fc5826a6bb5aa44d93f24bc6e05f08c2da44ef711618486c7bd24d11428540b7f25628a8b554aa439dfc45c8ee5106ccd44ae17f1816466275dc4313408742b5f0542aaab756a8419ffe47caec5304ced648e37d1a14446077de4115468144b3f6522cacb150ae4799f841ccea5502c8d04ee57b1c12426671d84717448346b1f4502eaeb352ac459bfa43cee85700cad24ce7791e10406473da45194a8d48bffa5e20a0bd5ca24b95f44dc0e6590ec4dc42e977101e4e6a7dd44b1b488f4abdf85c22a2bf5ea04997f64fc2e45b0cc6de40eb75121c4c687fd6491d4e894cbbfe5a24a4b958a64f91f049c4e25d0ac0d846ed73141a4a6e79d04f1f4c8b4eb9fc5826a6bb5aa44d93f24bc6e05f08c2da44ef711618486c7bd24d11428540b7f25628a8b554aa439dfc45c8ee5106ccd44ae17f1816466275dc4313408742b5f0542aaab756a8419ffe47caec5304ced648e37d1a14446077de4115468144b3f6522cacb150ae4799f841ccea5502c8d04ee57b1c12426671d84717448346b1f4502eaeb352ac459bfa43cee85700cad24ce7791e10406473da45194a8d48bffa5e20a0bd5ca24b95f44dc0e6590ec4dc42e977101e4e6a7dd44b1b488f4abdf85c22a2bf5ea04997f64fc2e45b0cc6de40eb75121c4c687fd6491d4e894cbbfe5a24a4b958a64f91f049c4e25d0ac0d846ed73141a4a6e79d04f1f4c8b4eb9fc5826a6bb5aa44d93f24bc6e05f08c2da44ef711618486c7bd24d11428540b7f25628a8b554aa439dfc45c7107c7554df3a520f2fd9efe99191e9a9bb2734b591cd95790421fd05f60fcc2",
        "type": "nulldata"
      }
    }
  ],
  "blockhash": "74cd48d8c624c37e1fac27c00c19e94c48df61d3ca85b84b56360e4f6170fa6f",
  "confirmations": 1,
  "time": 1764182926,
  "blocktime": 1764182926
}