{
  "hex": "01000000000101631d0ddfd5e2dabb72f8a8bc857b6510666b8378f9676d53065c2e17a955b2570000000000feffffff02407886de782d00002251202020999d21031084e09e459718ef73e26b2d77d230c6e4da28d65f06b94efd8b00e1f50500000000fdd5046a20a587f084a52c1f5ba4cb42c4341e0713f8a9436397c085f4b756bd8bf09a87614db0049b7ddff7904c4dfcfee67352c968787fc4e52217070e495598d88fd24084e9fabb5dffd7b06c6ddcdec65372e948585fe4c50237272e6975b8f8aff260a4c9dadb3d9fb7d00c0dbcbea633128928383f84a56257474e0915d898cf9200c4a9bafb1dbf97f02c2d9c9e861332a908181fa4854277676e2935f8b8efb220e4899a1bfd5f7710cccd7c7e66f3d249e8f8ff4465a297878ec9d518580f52c004697a3bdd7f5730eced5c5e46d3f269c8d8df644582b7a7aee9f538782f72e024495a5bbd1f37508c8d3c3e26b39209a8b8bf0425e2d7c7ce899558184f128044293a7b9d3f1770acad1c1e0693b22988989f2405c2f7e7eea9b578386f32a064091a9b7ddff7904c4dfcfee67352c968787fc4e52217070e495598d88fd24084e9fabb5dffd7b06c6ddcdec65372e948585fe4c50237272e6975b8f8aff260a4c9dadb3d9fb7d00c0dbcbea633128928383f84a56257474e0915d898cf9200c4a9bafb1dbf97f02c2d9c9e861332a908181fa4854277676e2935f8b8efb220e4899a1bfd5f7710cccd7c7e66f3d249e8f8ff4465a297878ec9d518580f52c004697a3bdd7f5730eced5c5e46d3f269c8d8df644582b7a7aee9f538782f72e024495a5bbd1f37508c8d3c3e26b39209a8b8bf0425e2d7c7ce899558184f128044293a7b9d3f1770acad1c1e0693b22988989f2405c2f7e7eea9b578386f32a064091a9b7ddff7904c4dfcfee67352c968787fc4e52217070e495598d88fd24084e9fabb5dffd7b06c6ddcdec65372e948585fe4c50237272e6975b8f8aff260a4c9dadb3d9fb7d00c0dbcbea633128928383f84a56257474e0915d898cf9200c4a9bafb1dbf97f02c2d9c9e861332a908181fa4854277676e2935f8b8efb220e4899a1bfd5f7710cccd7c7e66f3d249e8f8ff4465a297878ec9d518580f52c004697a3bdd7f5730eced5c5e46d3f269c8d8df644582b7a7aee9f538782f72e024495a5bbd1f37508c8d3c3e26b39209a8b8bf0425e2d7c7ce899558184f128044293a7b9d3f1770acad1c1e0693b22988989f2405c2f7e7eea9b578386f32a064091a9b7ddff7904c4dfcfee67352c968787fc4e52217070e495598d88fd24084e9fabb5dffd7b06c6ddcdec65372e948585fe4c50237272e6975b8f8aff260a4c9dadb3d9fb7d00c0dbcbea633128928383f84a56257474e0915d898cf9200c4a9bafb1dbf97f02c2d9c9e861332a908181fa4854277676e2935f8b8efb220e4899a1bfd5f7710cccd7c7e66f3d249e8f8ff4465a297878ec9d518580f52c004697a3bdd7f5730eced5c5e46d3f269c8d8df644582b7a7aee9f538782f72e024495a5bbd1f37508c8d3c3e26b39209a8b8bf0425e2d7c7ce899558184f128044293a7b9d3f1770acad1c1e0693b22988989f2405c2f7e7eea9b578386f32a064091a9b7ddff7904c4dfcfee67352c968787fc4e52217070e495598d88fd24084e9fabb5dffd7b06c6ddcdec65372e948585fe4c50237272e6975b8f8aff260a4c9dadb3d9fb7d00c0dbcbea633128928383f84a56257474e0915d898cf9200c4a9bafb1dbf97f02c2d9c9e861332a908181fa4854277676e2935f8b8efb220e4899a1bfd5f7710cccd7c7e66f3d249e8f8ff784ba09f7020d7ecf6e5443c2f417ddba9336a30e4891d06f7c0d794b646efd802fd750939c0619a833366c200a8bb7b57fc1c9361b03b625308a56cea9ad838f5459c452c41304b77d3ab3f397bded840432ab76023ca197e4fd9420dc66cef80bdf4daad24efe9fb8e7661b412a57887b89e1b690da512d8607b2b171a756163e860264cdb84c1c81b5c993c9d24932d19975061da10e2050b5b8da47edd1d2d92b0a481ab8ec8c2c7d6074e36a3d058381fb6c4fdfd8e5d7bb641c3a7faf68b48e5af904e53460d7dbe6f8ac93395d00d451d20d5bf993ceff7a19c47d1b2a872e720c41760a00ac7c2434eadab819d355e3b690659697b4e082a98a86fd981392abefb4fff99d1ee75386fa330d0d81d6e2332bbd04c9441dcb9a49c12e7e38f6db2107e45626b51c79631ce1a9bc3977c2f690af091703c56c8dd035216842240a46fa9f17a5a76cbb27189fc5421106142c63f07adaeae11501d09bda2a4d6cdf7b484b5fcf0ebe983e3ac712a7422773c37d7df24c78ae1b40368dda0fd365a27298a4394d08cf0e9bee1a6c6b0582c2c8df2fa70b73fbf191fb06410bff7611ce29e2d6a68f9ecbbd458641d09aaa66c1ea62df4e82139332891e1d3fcb0f9bef7faa46c6f874961a6d60e118d7badc9661ae0a2fa31f07bb70771b108e2f4a18154fe1e7b76f8a45fd415de039dd22f92b8fc1fb70839cbed412ded170ba13d232466787692d83ce8f3a383e596fc72507003d679810f49209c069cc16dc4ad69f733d91b5d2b9ddb4a83cbba99afd14d835d9431c90480ad5ea1f969c8e7292fceb8bda1e98e6092a94446ab06c4b7b01fda430e0a93ccb50d78a710d164ab007b936f09f3eef66fae76ccf18753aa97d46e544b6eea5959e4137c2f4dc6d7395a52369e28073e199e36eb58848ba6393e2fd30906e852ec5892d776fc6390a6b40cc12286613fa1fc93700cc83dfdad325273a273beffe1b7ca1dc8739763e165a53834dc8e6b6d1bab4965e4f8eb3da522ebbb814dc5d1efba927583cab23f8827b3b91ab59d154e5ecb9cb893d2075b0d9d2805159293aec14903cbbfa662a4983bf17012cd2e8aeaee8f56acb549848a265df338e90b114b3b6b35b69b05bbc74fcdf213756dd0bbb7c0c20d6839f04422f9b8fbad65732373868a03599dfa36ffc9302884f2ae2f4e692ff8ea3658e6c32424ce15e7b4a1f1dd4775341dba740d4f59168462d4c354fae28622e502f91329fa01f1acf35b7d1eec39dc7915c4354c6b3eb1ed49647e48e49549f0c3f9d5ecfe863b840a70a81c8686f2c37ed3b18014aa23e1988eb0c8e3cc14f6668f5f52becde21338afd9d85c27946b86942e2f093d78b678a7739289642df51197b812396c794b5948d91c8f35f21e7643292f9dbecc45b59a12b677e7f84bfa749880ed2d23dfcafba8d3628a2b2957db3684e9b14ba0b3157f18cd4e0bc8bd8832352cae1fcfb6f889087b591959d61624c9e2d74ae290aaf2c9bd26423967c8e2450b396d9fecf7b732ea1b5f42d99b1f0238cb6e1d8453c1d04465b6730c65c1f2ee805d066dceb0e4223701cdd351adbc59b78578886df9de348e82aa9d1db52f2d77d134fdf95ec9999a681acc57190837313506a2b0c6cc09ad877e7333e1b083005fc1cd53cf318326020aa47a60390298861d32de771b34c72b14e984dcae36a48a727a9168c40d16393be911476179613843c2fb672f44718881756b9fac4dd9f9a0fa71f0d3346196c4ed7986f8eaf40c13ed8ab9ed45be6e9abdf2c58abea730d0333930dfcb52ce2b1cd982c1d0abf00b38391a9a6f1593b91b3b9679c39ef4c1a7168885882aa5227d3002ce083fd90abd87759b317f3b8951872378fe6affb0abb543e3010689206b89bb68e8b0ce02d4ed7c44ba1341f5de830dd55972bf78be9266b4504983be6aebf65d24db09af359c823800f5e8149801b29c5d7035377cab9978a5707123bf0949b5333b3b991a66bbc0a30ffc5989efacf26e60e3c1773fefb238d89e8522d2231e59b10b080bffafc1a8263c604dbf6d1ebf3b87599273803e7897d63d09a10d60536967678a4c3c3f4ca5db5bb41cf84394dc2ed251ff7d7b7ae36a52ab82f5ef71a80cb8917e129c646a8d8dd6526eb1e832464948fb5205bd6eee57764af5a05e027b469a333173244456dc7357a45a9cf916d048bf694e89ef17a0dc7e5639073d9784b08c449e3f24ee5eb9525fbf439194ffe78a7e8aaffaf3954ac536d3a9a7737a97861a6016360a49b7a1e04b75e28a2be3ec692208cf168df7c84e29610f2dcee40d21de168ecf6a88897f6f9370578ce701bcfc330d84e0870292250df338bcd447db110655ba768f8ff2fcbd4659accbfa1c61b23dc8588c3ccabb66e435ecf304ef0c04ab4ead25b6d533aa63dadb347e6f6fc6172fc2c14b7eab99ba2c8f76abb8c9fea7eeb387f81ce55df1c47804f6093318ba6727c1dce665252d476a8f384b63f33aa49ae3d973d1f6bcc0265b9c31d04de6e702c05053bbca707f6012e049b739e4303261c7ef14cc7d04fa5b5ff07a7a5e878ae52b450bf1d6acbbee45fc7a90c9d50dfeddfd601cc7d04dd2230c514873dd607834152dd84cdce16405ccc0cc53dee915e139d648e2f8ba9570eda8ae1c76ecb5132af7a441e593a95b019a21b561bc1eedfe319ce4683b4169206b8395400123fbe6443f073ef94e93d1eb7734cbb64bbb0a51f4cb4cd4bfa50c3e6f4574f86766f6348ae5d429705470b93288e6bae989685b957843808a27d00383a8074ed3d207fc6b750da114f6cd9cf6b11f32d6e02fc6a30c4aa198bb48bf2c53a78f9264f80143adad4e7395e249ac0c00f7fc9d308be5385f96ad6c98fd42c268da698f3f958c5e1b82664e82c3c1524bf57a3d67bbe4afbd177fa397b739909bd47d9252c223c097911b3695f50819c6f443bbea4e7fd3952cfee07ebe217ff6317f2d9fe830453ade7f25dd818422b6be5b89811d424137042c10aa7ffc97a2fb0b2ba2d7192716e834ec2d790debf257a6e355e9fcb6168765e5cdd0288e952bc9768145d1ff975178eb56fdab71af173c5b4e22297ecb5225bdcc76a46c5c7738455a63e34f40c56d231f55b82e6946108c9df61a890c657b536c4c0288983415e192af255d3c9f0140c8f75a0e14780af9255f3fe38b2d658b5250ac2015c886da29cafc4d73dec12a6e74e61d5039d674b87a6472837f07aed1884e612d69c1cb47623736fe50983e20fec464487187f66df5f845643244cb3661eaeb8d31552b90a135f4419b148308ba8fe4994224a7ecca0287da0ebcea0c5b2ef9062325282c3036526d738199c3cfd2ef0a1529343e4a4c4f53647196aaadc8d7fafd000d1c425e8086acb2b9bedfe1f5f9091920213f44465c607174c4c6cacfd9dfe1ff000000000000000000000000000f21304301fd2105000a136dd0e711783498b2d0a9cc0c18ca0d915e215db1c5f4d8164eb238a29c3f8af0764e9ee16a3adb25137afe8987e354ee6c3b3de5877efa0f3b82ac0f8d1076c43c8f80b52e7e2605189331cbae6a8dae00a9ede61625285e783676a26d05ec270b220b2e1c4e4109f62ce3ac1d97997a1f09a47b9356d744e9769894522a13b3c7b7ef79ee8ea97c099e21a02642578bd0ec3a9711e83d4d9f5cce65f57058c646975aa48342fb1e88c25499913a28b77282e1dc0015726addc3e37498457fc54f53a21ad67328b29fee5b94f770e1847275be75cc09fd37c9f9dceab17f600c1b2f5dfbe3242bd45e681643e24d996a7f79c39211878d487f397e1bb0f72ea373e932437609c677d5af165c2fab5e9004c4b0ce0f6bcdc4ea3c80492ce42359a97792872cb53d07690bd741931b46476785292ea533a3d791184b9d94482d2442ef77756aea7ecc4385dedbcdcba1f429feea1e53f303705f42a02ab92cc90a3cc89d3014214e78374a0e5de93dc619e0afa533ed6773e52c90d579b3945cbc07e7773a2bc6493f38bd9a92f5b2de8a6d8a7a1f20ad28f4a87cad5ace9c894dac92d5970141e04b01ee6d641757a209ce9823567d66b7afdbdbe5d64b2b3c69e0f48b716e7c17508411a5715c47301709f29c5d95756025ae6e6eb657008c699d1d02cb3c468ec6b42e79a02bccef2beef8ea4fe7eba8fe625e8a903f97be53db6af2e2b358109cc707e0ad23d3ebabd640268b81d66931b559946a1d67540c7daed0f8ca43ca2f9c3bd9344578c4da27cebc15eb1ed75d36ce9d3ebb6ab482ebd0e9e4b31f7b33ed5d541bc6facbb41bd23c05008c4db295ff279e7ba8c6a25c54337b3beae216c25aa16706d15bbb68b0d7270a78da06ed2296091e155236a2a180cb677f33600a87271f907810c50fb70fa176b3c27fa7b68191adf46326a99f60f3c91d15ea52127e9b1a685d6535186fefed7258352fe29ca6a80ebee2e31db966b968abb3a382b3a775c09b78aa65be0e3d00f8409d682faf59b0020b1db7632ea7107479977874dda7bb63736882bdc4271e7acfcc978ecbed1331bf62057ab35ae4c7a24ae4d50fd6e96a8a11c34030b607a9d7f39a2bf42c60fc73fa2a0ad695cb76848c46083351cafac6ad59bb4cdeb90d57d78d89e2be3cdf514eb591fe23147d307d396820778e205caf881c8cca35e55f0d814512aca1560c9b440c04ff2822c54fa1dde37bbb6c99c0da6da5dd6fb5a3c6bd5d78ef80a2dda4f8cb1094592460255339af60be38ec617f11b282c061afd59a7ade87c3df015126e62509de92762b55a95ee4b43d267ea25871b27a2776c04c0648da9844b64ebc72d24a0d49b86743a71b454e0bee7ee223387825e01e25e691ee5fb713d3e93506205cf95b24ea5dc0db31e7c31252a0122559c47924cba7a106cbc692643e99fa13fbadb979412954549ef666dd7b460bf50d2c6737b6526c405990e89d7e60e69c5ba5e2fdb0eac5a10d36f8534c3c95fbe53c4d3944d2ef4806a0d3f10116249f250aa0c9f87828981bbdae1f75a5c8f666e55d0493f27f39a1d228717ee58b43ab521d1983a96fb980ec8a944716c40a0c7f1d121b4a0426c0ee3caced37d181b33dd1c94cd50c06591d5ccf33211639f7625f45b890ff291b7d4d331f16b4f329e04ad9f5e2c957449e1f88bc45e0ad4138a61e952031f3dd627052cb90d46b870b3c08c306ba0db8c3737f6f91bd23ae98d5724afbfa1a3569717a29a612a5c477d720b5c055e7ba8e995d7798d6e6e1fe6a58c4712549edc09613dd17a09103476966c36817cc9f7c24a66f6de07093b443b156837acbb8dc7e000000",
  "txid": "70171d7bded9cd3d0bf95022d6dc8c0ae3ea46aa7a87db9eef7ba7b48f867ca5",
  "hash": "ca046dc074aa7c4d39302d67a3916a17fe60e11f296e1af33804b8c80c71898f",
  "size": 5085,
  "vsize": 2278,
  "version": 1,
  "locktime": 126,
  "vin": [
    {
      "txid": "57b255a9172e5c06536d67f978836b6610657b85bca8f872bbdae2d5df0d1d63",
      "vout": 0,
      "scriptSig": {
        "asm": "",
        "hex": ""
      },
      "txinwitness": [
        "39c0619a833366c200a8bb7b57fc1c9361b03b625308a56cea9ad838f5459c452c41304b77d3ab3f397bded840432ab76023ca197e4fd9420dc66cef80bdf4daad24efe9fb8e7661b412a57887b89e1b690da512d8607b2b171a756163e860264cdb84c1c81b5c993c9d24932d19975061da10e2050b5b8da47edd1d2d92b0a481ab8ec8c2c7d6074e36a3d058381fb6c4fdfd8e5d7bb641c3a7faf68b48e5af904e53460d7dbe6f8ac93395d00d451d20d5bf993ceff7a19c47d1b2a872e720c41760a00ac7c2434eadab819d355e3b690659697b4e082a98a86fd981392abefb4fff99d1ee75386fa330d0d81d6e2332bbd04c9441dcb9a49c12e7e38f6db2107e45626b51c79631ce1a9bc3977c2f690af091703c56c8dd035216842240a46fa9f17a5a76cbb27189fc5421106142c63f07adaeae11501d09bda2a4d6cdf7b484b5fcf0ebe983e3ac712a7422773c37d7df24c78ae1b40368dda0fd365a27298a4394d08cf0e9bee1a6c6b0582c2c8df2fa70b73fbf191fb06410bff7611ce29e2d6a68f9ecbbd458641d09aaa66c1ea62df4e82139332891e1d3fcb0f9bef7faa46c6f874961a6d60e118d7badc9661ae0a2fa31f07bb70771b108e2f4a18154fe1e7b76f8a45fd415de039dd22f92b8fc1fb70839cbed412ded170ba13d232466787692d83ce8f3a383e596fc72507003d679810f49209c069cc16dc4ad69f733d91b5d2b9ddb4a83cbba99afd14d835d9431c90480ad5ea1f969c8e7292fceb8bda1e98e6092a94446ab06c4b7b01fda430e0a93ccb50d78a710d164ab007b936f09f3eef66fae76ccf18753aa97d46e544b6eea5959e4137c2f4dc6d7395a52369e28073e199e36eb58848ba6393e2fd30906e852ec5892d776fc6390a6b40cc12286613fa1fc93700cc83dfdad325273a273beffe1b7ca1dc8739763e165a53834dc8e6b6d1bab4965e4f8eb3da522ebbb814dc5d1efba927583cab23f8827b3b91ab59d154e5ecb9cb893d2075b0d9d2805159293aec14903cbbfa662a4983bf17012cd2e8aeaee8f56acb549848a265df338e90b114b3b6b35b69b05bbc74fcdf213756dd0bbb7c0c20d6839f04422f9b8fbad65732373868a03599dfa36ffc9302884f2ae2f4e692ff8ea3658e6c32424ce15e7b4a1f1dd4775341dba740d4f59168462d4c354fae28622e502f91329fa01f1acf35b7d1eec39dc7915c4354c6b3eb1ed49647e48e49549f0c3f9d5ecfe863b840a70a81c8686f2c37ed3b18014aa23e1988eb0c8e3cc14f6668f5f52becde21338afd9d85c27946b86942e2f093d78b678a7739289642df51197b812396c794b5948d91c8f35f21e7643292f9dbecc45b59a12b677e7f84bfa749880ed2d23dfcafba8d3628a2b2957db3684e9b14ba0b3157f18cd4e0bc8bd8832352cae1fcfb6f889087b591959d61624c9e2d74ae290aaf2c9bd26423967c8e2450b396d9fecf7b732ea1b5f42d99b1f0238cb6e1d8453c1d04465b6730c65c1f2ee805d066dceb0e4223701cdd351adbc59b78578886df9de348e82aa9d1db52f2d77d134fdf95ec9999a681acc57190837313506a2b0c6cc09ad877e7333e1b083005fc1cd53cf318326020aa47a60390298861d32de771b34c72b14e984dcae36a48a727a9168c40d16393be911476179613843c2fb672f44718881756b9fac4dd9f9a0fa71f0d3346196c4ed7986f8eaf40c13ed8ab9ed45be6e9abdf2c58abea730d0333930dfcb52ce2b1cd982c1d0abf00b38391a9a6f1593b91b3b9679c39ef4c1a7168885882aa5227d3002ce083fd90abd87759b317f3b8951872378fe6affb0abb543e3010689206b89bb68e8b0ce02d4ed7c44ba1341f5de830dd55972bf78be9266b4504983be6aebf65d24db09af359c823800f5e8149801b29c5d7035377cab9978a5707123bf0949b5333b3b991a66bbc0a30ffc5989efacf26e60e3c1773fefb238d89e8522d2231e59b10b080bffafc1a8263c604dbf6d1ebf3b87599273803e7897d63d09a10d60536967678a4c3c3f4ca5db5bb41cf84394dc2ed251ff7d7b7ae36a52ab82f5ef71a80cb8917e129c646a8d8dd6526eb1e832464948fb5205bd6eee57764af5a05e027b469a333173244456dc7357a45a9cf916d048bf694e89ef17a0dc7e5639073d9784b08c449e3f24ee5eb9525fbf439194ffe78a7e8aaffaf3954ac536d3a9a7737a97861a6016360a49b7a1e04b75e28a2be3ec692208cf168df7c84e29610f2dcee40d21de168ecf6a88897f6f9370578ce701bcfc330d84e0870292250df338bcd447db110655ba768f8ff2fcbd4659accbfa1c61b23dc8588c3ccabb66e435ecf304ef0c04ab4ead25b6d533aa63dadb347e6f6fc6172fc2c14b7eab99ba2c8f76abb8c9fea7eeb387f81ce55df1c47804f6093318ba6727c1dce665252d476a8f384b63f33aa49ae3d973d1f6bcc0265b9c31d04de6e702c05053bbca707f6012e049b739e4303261c7ef14cc7d04fa5b5ff07a7a5e878ae52b450bf1d6acbbee45fc7a90c9d50dfeddfd601cc7d04dd2230c514873dd607834152dd84cdce16405ccc0cc53dee915e139d648e2f8ba9570eda8ae1c76ecb5132af7a441e593a95b019a21b561bc1eedfe319ce4683b4169206b8395400123fbe6443f073ef94e93d1eb7734cbb64bbb0a51f4cb4cd4bfa50c3e6f4574f86766f6348ae5d429705470b93288e6bae989685b957843808a27d00383a8074ed3d207fc6b750da114f6cd9cf6b11f32d6e02fc6a30c4aa198bb48bf2c53a78f9264f80143adad4e7395e249ac0c00f7fc9d308be5385f96ad6c98fd42c268da698f3f958c5e1b82664e82c3c1524bf57a3d67bbe4afbd177fa397b739909bd47d9252c223c097911b3695f50819c6f443bbea4e7fd3952cfee07ebe217ff6317f2d9fe830453ade7f25dd818422b6be5b89811d424137042c10aa7ffc97a2fb0b2ba2d7192716e834ec2d790debf257a6e355e9fcb6168765e5cdd0288e952bc9768145d1ff975178eb56fdab71af173c5b4e22297ecb5225bdcc76a46c5c7738455a63e34f40c56d231f55b82e6946108c9df61a890c657b536c4c0288983415e192af255d3c9f0140c8f75a0e14780af9255f3fe38b2d658b5250ac2015c886da29cafc4d73dec12a6e74e61d5039d674b87a6472837f07aed1884e612d69c1cb47623736fe50983e20fec464487187f66df5f845643244cb3661eaeb8d31552b90a135f4419b148308ba8fe4994224a7ecca0287da0ebcea0c5b2ef9062325282c3036526d738199c3cfd2ef0a1529343e4a4c4f53647196aaadc8d7fafd000d1c425e8086acb2b9bedfe1f5f9091920213f44465c607174c4c6cacfd9dfe1ff000000000000000000000000000f21304301",
        "000a136dd0e711783498b2d0a9cc0c18ca0d915e215db1c5f4d8164eb238a29c3f8af0764e9ee16a3adb25137afe8987e354ee6c3b3de5877efa0f3b82ac0f8d1076c43c8f80b52e7e2605189331cbae6a8dae00a9ede61625285e783676a26d05ec270b220b2e1c4e4109f62ce3ac1d97997a1f09a47b9356d744e9769894522a13b3c7b7ef79ee8ea97c099e21a02642578bd0ec3a9711e83d4d9f5cce65f57058c646975aa48342fb1e88c25499913a28b77282e1dc0015726addc3e37498457fc54f53a21ad67328b29fee5b94f770e1847275be75cc09fd37c9f9dceab17f600c1b2f5dfbe3242bd45e681643e24d996a7f79c39211878d487f397e1bb0f72ea373e932437609c677d5af165c2fab5e9004c4b0ce0f6bcdc4ea3c80492ce42359a97792872cb53d07690bd741931b46476785292ea533a3d791184b9d94482d2442ef77756aea7ecc4385dedbcdcba1f429feea1e53f303705f42a02ab92cc90a3cc89d3014214e78374a0e5de93dc619e0afa533ed6773e52c90d579b3945cbc07e7773a2bc6493f38bd9a92f5b2de8a6d8a7a1f20ad28f4a87cad5ace9c894dac92d5970141e04b01ee6d641757a209ce9823567d66b7afdbdbe5d64b2b3c69e0f48b716e7c17508411a5715c47301709f29c5d95756025ae6e6eb657008c699d1d02cb3c468ec6b42e79a02bccef2beef8ea4fe7eba8fe625e8a903f97be53db6af2e2b358109cc707e0ad23d3ebabd640268b81d66931b559946a1d67540c7daed0f8ca43ca2f9c3bd9344578c4da27cebc15eb1ed75d36ce9d3ebb6ab482ebd0e9e4b31f7b33ed5d541bc6facbb41bd23c05008c4db295ff279e7ba8c6a25c54337b3beae216c25aa16706d15bbb68b0d7270a78da06ed2296091e155236a2a180cb677f33600a87271f907810c50fb70fa176b3c27fa7b68191adf46326a99f60f3c91d15ea52127e9b1a685d6535186fefed7258352fe29ca6a80ebee2e31db966b968abb3a382b3a775c09b78aa65be0e3d00f8409d682faf59b0020b1db7632ea7107479977874dda7bb63736882bdc4271e7acfcc978ecbed1331bf62057ab35ae4c7a24ae4d50fd6e96a8a11c34030b607a9d7f39a2bf42c60fc73fa2a0ad695cb76848c46083351cafac6ad59bb4cdeb90d57d78d89e2be3cdf514eb591fe23147d307d396820778e205caf881c8cca35e55f0d814512aca1560c9b440c04ff2822c54fa1dde37bbb6c99c0da6da5dd6fb5a3c6bd5d78ef80a2dda4f8cb1094592460255339af60be38ec617f11b282c061afd59a7ade87c3df015126e62509de92762b55a95ee4b43d267ea25871b27a2776c04c0648da9844b64ebc72d24a0d49b86743a71b454e0bee7ee223387825e01e25e691ee5fb713d3e93506205cf95b24ea5dc0db31e7c31252a0122559c47924cba7a106cbc692643e99fa13fbadb979412954549ef666dd7b460bf50d2c6737b6526c405990e89d7e60e69c5ba5e2fdb0eac5a10d36f8534c3c95fbe53c4d3944d2ef4806a0d3f10116249f250aa0c9f87828981bbdae1f75a5c8f666e55d0493f27f39a1d228717ee58b43ab521d1983a96fb980ec8a944716c40a0c7f1d121b4a0426c0ee3caced37d181b33dd1c94cd50c06591d5ccf33211639f7625f45b890ff291b7d4d331f16b4f329e04ad9f5e2c957449e1f88bc45e0ad4138a61e952031f3dd627052cb90d46b870b3c08c306ba0db8c3737f6f91bd23ae98d5724afbfa1a3569717a29a612a5c477d720b5c055e7ba8e995d7798d6e6e1fe6a58c4712549edc09613dd17a09103476966c36817cc9f7c24a66f6de07093b443b156837acbb8dc"
      ],
      "sequence": 4294967294
    }
  ],
  "vout": [
    {
      "value": 499971.5268,
      "n": 0,
      "scriptPubKey": {
        "asm": "1 2020999d21031084e09e459718ef73e26b2d77d230c6e4da28d65f06b94efd8b",
        "hex": "51202020999d21031084e09e459718ef73e26b2d77d230c6e4da28d65f06b94efd8b",
        "reqSigs": 1,
        "type": "witness_v1_scripthash",
        "addresses": [
          "3QJmnh"
        ]
      }
    },
    {
      "value": 1.0,
      "n": 1,
      "scriptPubKey": {
        "asm": "OP_RETURN a587f084a52c1f5ba4cb42c4341e0713f8a9436397c085f4b756bd8bf09a8761 9b7ddff7904c4dfcfee67352c968787fc4e52217070e495598d88fd24084e9fabb5dffd7b06c6ddcdec65372e948585fe4c50237272e6975b8f8aff260a4c9dadb3d9fb7d00c0dbcbea633128928383f84a56257474e0915d898cf9200c4a9bafb1dbf97f02c2d9c9e861332a908181fa4854277676e2935f8b8efb220e4899a1bfd5f7710cccd7c7e66f3d249e8f8ff4465a297878ec9d518580f52c004697a3bdd7f5730eced5c5e46d3f269c8d8df644582b7a7aee9f538782f72e024495a5bbd1f37508c8d3c3e26b39209a8b8bf0425e2d7c7ce899558184f128044293a7b9d3f1770acad1c1e0693b22988989f2405c2f7e7eea9b578386f32a064091a9b7ddff7904c4dfcfee67352c968787fc4e52217070e495598d88fd24084e9fabb5dffd7b06c6ddcdec65372e948585fe4c50237272e6975b8f8aff260a4c9dadb3d9fb7d00c0dbcbea633128928383f84a56257474e0915d898cf9200c4a9bafb1dbf97f02c2d9c9e861332a908181fa4854277676e2935f8b8efb220e4899a1bfd5f7710cccd7c7e66f3d249e8f8ff4465a297878ec9d518580f52c004697a3bdd7f5730eced5c5e46d3f269c8d8df644582b7a7aee9f538782f72e024495a5bbd1f37508c8d3c3e26b39209a8b8bf0425e2d7c7ce899558184f128044293a7b9d3f1770acad1c1e0693b22988989f2405c2f7e7eea9b578386f32a064091a9b7ddff7904c4dfcfee67352c968787fc4e52217070e495598d88fd24084e9fabb5dffd7b06c6ddcdec65372e948585fe4c50237272e6975b8f8aff260a4c9dadb3d9fb7d00c0dbcbea633128928383f84a56257474e0915d898cf9200c4a9bafb1dbf97f02c2d9c9e861332a908181fa4854277676e2935f8b8efb220e4899a1bfd5f7710cccd7c7e66f3d249e8f8ff4465a297878ec9d518580f52c004697a3bdd7f5730eced5c5e46d3f269c8d8df644582b7a7aee9f538782f72e024495a5bbd1f37508c8d3c3e26b39209a8b8bf0425e2d7c7ce899558184f128044293a7b9d3f1770acad1c1e0693b22988989f2405c2f7e7eea9b578386f32a064091a9b7ddff7904c4dfcfee67352c968787fc4e52217070e495598d88fd24084e9fabb5dffd7b06c6ddcdec65372e948585fe4c50237272e6975b8f8aff260a4c9dadb3d9fb7d00c0dbcbea633128928383f84a56257474e0915d898cf9200c4a9bafb1dbf97f02c2d9c9e861332a908181fa4854277676e2935f8b8efb220e4899a1bfd5f7710cccd7c7e66f3d249e8f8ff4465a297878ec9d518580f52c004697a3bdd7f5730eced5c5e46d3f269c8d8df644582b7a7aee9f538782f72e024495a5bbd1f37508c8d3c3e26b39209a8b8bf0425e2d7c7ce899558184f128044293a7b9d3f1770acad1c1e0693b22988989f2405c2f7e7eea9b578386f32a064091a9b7ddff7904c4dfcfee67352c968787fc4e52217070e495598d88fd24084e9fabb5dffd7b06c6ddcdec65372e948585fe4c50237272e6975b8f8aff260a4c9dadb3d9fb7d00c0dbcbea633128928383f84a56257474e0915d898cf9200c4a9bafb1dbf97f02c2d9c9e861332a908181fa4854277676e2935f8b8efb220e4899a1bfd5f7710cccd7c7e66f3d249e8f8ff784ba09f7020d7ecf6e5443c2f417ddba9336a30e4891d06f7c0d794b646efd8",
        "hex": "6a20a587f084a52c1f5ba4cb42c4341e0713f8a9436397c085f4b756bd8bf09a87614db0049b7ddff7904c4dfcfee67352c968787fc4e52217070e495598d88fd24084e9fabb5dffd7b06c6ddcdec65372e948585fe4c50237272e6975b8f8aff260a4c9dadb3d9fb7d00c0dbcbea633128928383f84a56257474e0915d898cf9200c4a9bafb1dbf97f02c2d9c9e861332a908181fa4854277676e2935f8b8efb220e4899a1bfd5f7710cccd7c7e66f3d249e8f8ff4465a297878ec9d518580f52c004697a3bdd7f5730eced5c5e46d3f269c8d8df644582b7a7aee9f538782f72e024495a5bbd1f37508c8d3c3e26b39209a8b8bf0425e2d7c7ce899558184f128044293a7b9d3f1770acad1c1e0693b22988989f2405c2f7e7eea9b578386f32a064091a9b7ddff7904c4dfcfee67352c968787fc4e52217070e495598d88fd24084e9fabb5dffd7b06c6ddcdec65372e948585fe4c50237272e6975b8f8aff260a4c9dadb3d9fb7d00c0dbcbea633128928383f84a56257474e0915d898cf9200c4a9bafb1dbf97f02c2d9c9e861332a908181fa4854277676e2935f8b8efb220e4899a1bfd5f7710cccd7c7e66f3d249e8f8ff4465a297878ec9d518580f52c004697a3bdd7f5730eced5c5e46d3f269c8d8df644582b7a7aee9f538782f72e024495a5bbd1f37508c8d3c3e26b39209a8b8bf0425e2d7c7ce899558184f128044293a7b9d3f1770acad1c1e0693b22988989f2405c2f7e7eea9b578386f32a064091a9b7ddff7904c4dfcfee67352c968787fc4e52217070e495598d88fd24084e9fabb5dffd7b06c6ddcdec65372e948585fe4c50237272e6975b8f8aff260a4c9dadb3d9fb7d00c0dbcbea633128928383f84a56257474e0915d898cf9200c4a9bafb1dbf97f02c2d9c9e861332a908181fa4854277676e2935f8b8efb220e4899a1bfd5f7710cccd7c7e66f3d249e8f8ff4465a297878ec9d518580f52c004697a3bdd7f5730eced5c5e46d3f269c8d8df644582b7a7aee9f538782f72e024495a5bbd1f37508c8d3c3e26b39209a8b8bf0425e2d7c7ce899558184f128044293a7b9d3f1770acad1c1e0693b22988989f2405c2f7e7eea9b578386f32a064091a9b7ddff7904c4dfcfee67352c968787fc4e52217070e495598d88fd24084e9fabb5dffd7b06c6ddcdec65372e948585fe4c50237272e6975b8f8aff260a4c9dadb3d9fb7d00c0dbcbea633128928383f84a56257474e0915d898cf9200c4a9bafb1dbf97f02c2d9c9e861332a908181fa4854277676e2935f8b8efb220e4899a1bfd5f7710cccd7c7e66f3d249e8f8ff4465a297878ec9d518580f52c004697a3bdd7f5730eced5c5e46d3f269c8d8df644582b7a7aee9f538782f72e024495a5bbd1f37508c8d3c3e26b39209a8b8bf0425e2d7c7ce899558184f128044293a7b9d3f1770acad1c1e0693b22988989f2405c2f7e7eea9b578386f32a064091a9b7ddff7904c4dfcfee67352c968787fc4e52217070e495598d88fd24084e9fabb5dffd7b06c6ddcdec65372e948585fe4c50237272e6975b8f8aff260a4c9dadb3d9fb7d00c0dbcbea633128928383f84a56257474e0915d898cf9200c4a9bafb1dbf97f02c2d9c9e861332a908181fa4854277676e2935f8b8efb220e4899a1bfd5f7710cccd7c7e66f3d249e8f8ff784ba09f7020d7ecf6e5443c2f417ddba9336a30e4891d06f7c0d794b646efd8",
        "type": "nulldata"
      }
    }
  ],
  "blockhash": "6d9c0c317b6a18c94c8dfa8ecf7920e3db1b4df4697afebc42d3fd28269e39fd",
  "confirmations": 1,
  "time": 1764181315,
  "blocktime": 1764181315
}