{
  "hex": "01000000000101da23bada40c364cc26dfca031470b0d4dcfa4f72301fb86cb6c764c0228daf1b0100000000feffffff0220cc6133792d0000225120c2e6312f28bba2525ecca581737d05f783ee3ffd531ea89e87964fca371c6ff700e1f50500000000fdd5046a2081163f7e14c3317e786fa7240da852567e9b71fc51f65a53c6bbccb6576884354db00459262e33b25fcb7c1a75a26fb9bcd7b539bb4d3373f5a6830349b30b9131034779060e13927feb5c3a55824f999cf795199b6d1353d586a32369932bb111236719666e73f21f8b3c5a35e22ff9fc97f579fb0d7333b5e6c34309f34bd171430739464e53d23fab1c7a15c20fd9dcb7d559db2d531395c6e36329d36bf1516327d9a6aeb332df4bfc9af522ef393c5735b93bcdb3f375260383c9338b11b183c7f9868e9312ff6bdcbad502cf191c7715991bed93d3550623a3e913ab3191a3e799e6eef3729f0bbcdab562af797c1775f97b8df3b3356643c38973cb51f1c387b9c6ced352bf2b9cfa95428f595c3755d95badd393154663e3a953eb71d1e3a759262e33b25fcb7c1a75a26fb9bcd7b539bb4d3373f5a6830349b30b9131034779060e13927feb5c3a55824f999cf795199b6d1353d586a32369932bb111236719666e73f21f8b3c5a35e22ff9fc97f579fb0d7333b5e6c34309f34bd171430739464e53d23fab1c7a15c20fd9dcb7d559db2d531395c6e36329d36bf1516327d9a6aeb332df4bfc9af522ef393c5735b93bcdb3f375260383c9338b11b183c7f9868e9312ff6bdcbad502cf191c7715991bed93d3550623a3e913ab3191a3e799e6eef3729f0bbcdab562af797c1775f97b8df3b3356643c38973cb51f1c387b9c6ced352bf2b9cfa95428f595c3755d95badd393154663e3a953eb71d1e3a759262e33b25fcb7c1a75a26fb9bcd7b539bb4d3373f5a6830349b30b9131034779060e13927feb5c3a55824f999cf795199b6d1353d586a32369932bb111236719666e73f21f8b3c5a35e22ff9fc97f579fb0d7333b5e6c34309f34bd171430739464e53d23fab1c7a15c20fd9dcb7d559db2d531395c6e36329d36bf1516327d9a6aeb332df4bfc9af522ef393c5735b93bcdb3f375260383c9338b11b183c7f9868e9312ff6bdcbad502cf191c7715991bed93d3550623a3e913ab3191a3e799e6eef3729f0bbcdab562af797c1775f97b8df3b3356643c38973cb51f1c387b9c6ced352bf2b9cfa95428f595c3755d95badd393154663e3a953eb71d1e3a759262e33b25fcb7c1a75a26fb9bcd7b539bb4d3373f5a6830349b30b9131034779060e13927feb5c3a55824f999cf795199b6d1353d586a32369932bb111236719666e73f21f8b3c5a35e22ff9fc97f579fb0d7333b5e6c34309f34bd171430739464e53d23fab1c7a15c20fd9dcb7d559db2d531395c6e36329d36bf1516327d9a6aeb332df4bfc9af522ef393c5735b93bcdb3f375260383c9338b11b183c7f9868e9312ff6bdcbad502cf191c7715991bed93d3550623a3e913ab3191a3e799e6eef3729f0bbcdab562af797c1775f97b8df3b3356643c38973cb51f1c387b9c6ced352bf2b9cfa95428f595c3755d95badd393154663e3a953eb71d1e3a759262e33b25fcb7c1a75a26fb9bcd7b539bb4d3373f5a6830349b30b9131034779060e13927feb5c3a55824f999cf795199b6d1353d586a32369932bb111236719666e73f21f8b3c5a35e22ff9fc97f579fb0d7333b5e6c34309f34bd171430739464e53d23fab1c7a15c20fd9dcb7d559db2d531395c6e36329d36bf1516327d9a6aeb332df4bfc9af522ef393c57358bbb76493cb0fa0082b5b316a92ad314e5ed6ee067af7ef47e23fb62cf5cc12102fd7509a4641e3ce5d0e716372b43c4617d17042388e9286f6944e324c6f45cb9dc395a5d9c635e4418fe4e3e17e686138cbdf9fe55421526030fc63b3042f11a546f7f9efb4dd3ce6045ed402fa3b17dc5988ade3d378e2d7c581b88f05f59b8a7b7ca6d409ed84e6188d587192555a2b2b0fffbcb884f162e527dc8af1677bb7dd5a035633b3d5314ad3bd69444ef875c76f7f9228c11d6ec2765b6e356f354490249048b12a7dec9eb3fec4bfbe81c2be57cb78c2e87b35bdac8517c53042e4927edab3e53ac9b2796e5484f1a4ff0adcd6ff13f31f872c0fcaaa152d5540eedb510323fcff3016a268c7adff2f4b0788d53c8f1493beeef2ab1b967458fb9a06bdf45e4f5e7ac0594236b94177a4675ce4ec3d69388b0129b746765350bd09e0b000147055dca366b960593cc60df1fe4ed56969db760879de369daf59cab044ffe4d3c8522d57560a0c8d46f14fe92b212371cb96138b92a469528b0600fc775077138e6c652111320cc0598f7892205fa7a78aafb3754f204e6e8997943b90f7a1574feb53e76d6cc45296f68708721eadcca942be14085051974beeba8e5e305b022e0ee5efa682071e99e5e0cf9a7e66f2ed747e0d2bb37a7de6bbee2e0d05539f9dbf7f28ea75b98704cfb6e616c62c65588612a6bc02fd0e389b0a475a6e77f89e1db9e97df94f146e7367cf01c3c5ef88c8dbcc4a78a51668b4fbfc2784c5e5bf296d98d3a5c9e38aef24547c74284b9a3be6aff3ac4fd34a11de4306a462f39d6a05811a2639d9e48921a13b566c55521da0a51f8a9ad58aca58831f7b0e1097a0692621908375466d9802a76c2a4a24a07db9f6be936ca280bdd6e00ad9f7563550d1a2a1335bb05e050aaf85193e51966201bfd31a1bf91839a994924e860333dd0bad15aa1c7bfeb49dc80d077dfa56b9c79d302901eb44772db06031b45ac49c576e2b4f179c347823cdd5e8cb43b250f3eb8fa00358d4fc1cce8612c39ea06a97a41ab9c9421e5ef934d58a36daaec961a856ea8d039d0edabacc40c6c5f5ecb33eaa6ea8cc978ba09a783a90e3b3c5a8ab5bd7811b54b4e9a72c2cc888dc10fbfa25c6c3845383d89e5ad5901353f6caa1573460cee1332f6fa1286d282702723630ed8ff8c49e912cffc5361f7484f05a69ba4c9d71a90b8dfba5a4a4f4ac738f680f893082296160fcfd4de5806872686797821b62fb133a829e1232122022c7fd6be5bb4b091d68278ad67a3e6dbf9a643ca747c5cd1a6ea7ee01e01dd51edfff4d46af8e0c43de62ebad0e6333395b27d9e30dc4d927b5848c5dfe7b97cdb3e564e9e3f87e219ae931422ad867016cca6e3ca1d9e89cf5b7413d7b969d92c79015087647d77be0995836caff71e50fb64206cd5c65376fd35e835583d23b16d1c450b4716338e360681bafa071b4d4af0bb2ff838828a361115019d28d524e523cb22cfcdc20f769f9a9994e61a518d765a19a613405f540363bac3abba26feb438def7dbb2602e629449c87f42d715fb3c6a4a66ef7dc35510c96f8a8a2fb241e8c4932d6b3d6a38e3483f9926445b7f778d18af1c194c2a4b7ab55f904384ca39f8a97fd3a1f901597ac1b608e74688bb72e1a0f944f60c7f12c0bdd842c9b5ac9a302881b74d3eae2f05cf8489e4bbf2a7cf76cb8a70a802e28e765b45d507a8e6f28847dfbb80c3048e7da5b16277a8d4d74bbc6f5a06c8bea58583f00d3f6b0bee21f7f4ae232f42bfab1fe4ee2b619c330ae767b970ed5f4d5f10f82ee7c74622609c58921814cbd9184f26332eb1a96087fc309c6d7e2bbde7e7f8781fc9e0dc2331596d3be3d9006c002eab9e4b9945060bc71335013bc49de7ce31127cd16840138f224dd607f55a40a6c8afd58189b322855722acaf8e480e354fa03d41d5611e4a4f28dba1e920787f58e9dab08a123a439daf3c457080f67d0ecfeae67044780d3505e12d499dca182697916d7de1085dab9ddc151ed0b90fd385c1cb80e02237c32ef82aa45bf539f1ea2c397e90e45b3522e648101fc38968ac5fbf1583799b365863e5cb7aceee89c8543bb681be2ab7fcbf1a6b0103e24786426e86d1284b17e35c64657f1e13949be63e01e2e78d868692b12b057c6e1d5c74d64e536513b4d617bc1b095cc611b1af0c3a0c63a9c6cffd906165eda43a8c0604d1140a6c039360548af0de4b2aedc8ba4b6aa3015dc69af66601ec15e9bb650bc2d91eb85f9f00a0d5495545777391e22099011b5862ebf5924716e5a28876c909e50684eff0ef5718b2500793547d6a5aa211035a987894577dd1ca3575642692a17993122dd66f2481d0a8f3caa978e502c0d91fabafec2be71d866b1a5418f2c0508275166c42bcdbbe2cfdf5e85d31da32ea0af71978703687defd5a06d3a09eddf9812ae64fdd0f4b980f8d6219f6de2266619ce88b0cf68190cfa7f08cba03aa438aa9fc8d64ed144e3527726135dfe37a4b0c5864bac6612be90059d97d8e1966db4ec9e2ae8581fbe90740ca40737be847a9d9755ae6744601aa07d4ac1c8a70dbc43b5d214f4029d674df4a23e80d467ad377115489c2a03b8c38946e314e0dda237a245bd9679a7c08f96ad2cd13809b49657ccb54d20dbcc96dd732e57fe23d7fe18b56bbb35d019a14eaf96023628cf8d51639a05ec0e4ee3b15e1f7d4424794efec41e1eb775c6749b9ad25fe78f2f29a6b7545ca463c4a382746d9a041bbb71d8ad4c04fb666f8b5bf32913ffdc8eb6aa694dbfacfafc4996bff5fd78d493bd34d28abf06641d330de666d96db08b7ba5e3fb46005066c9310f45575a7f6a4a81f88310f608f502aabc611907eb00320165f94ac45318ad1fbc30814169db9a0a1f8e677c121a044862c04cca658117b5fded4e2105159aa853e2726a8cb1f43abe184b9d52251ccac4de788830efc44a98c40dd5b36e53fdc7f5caa430d73cede3498d89eb8e06a4112766037eb7672cd439327be88504c821a5a8ee0049f8ec510a63f2e67d120e8fb08c6075f0913a33204697b224fdfe2aa5f138972fe415d178493d971f0356ed202071fe79628692ceacfd6d6e5efe0c63e9ad7c312074894f89542c2cd5b4c8000bf34e1d34367957a92f9f769bfdb001de1facc6e781c106869779c6597462e50b2bd69dd487a4999dbe3c6e2e4ca1cded3acc7214f5b62b78f98e42683d7d25df53e09b5cf8afe7c81f1f181f2fad0cc246da269047ffa96bd3bdc2829b854ecfe238d8a0156056391cc28f04cd4a9debb61e2b8a68edd4f68de5a1aea69acdf676df56c0b0f10191b33515455b7e4eaef2324303653586a71788791a3aebdd6e1ed040d15172e444a62687c7da1c6d4dae5e7e8f0fe04090f1e43494a5a6e8e8f9ba9abad0000000000000000000000000000000d1e324101fd21050096ba1aaab131a1cc48cb813e63aa7bbbf0799573eb56e05cc2ee335df1e8e08e54c227f5b9810ee749bbc79a3f940eb4f8a091a1f4e94eb8bf0577d21939608179164f4ddc2b748729f81f4778c02c36d78b2b1c5351a965a7357bb56669a2668938ee778338f869aeae0ba9b8f2071f7a55dc67cafe951472b1980b8769f8f84bb2945a3323012339b3b25e41b6e9af3e9cfdac5296c51d99e3940b8c2b204c957e9edf9307eec86fd3c32bc35974a01b7fdf118b5a22b16735422d4b015ecec9b9a3aa9a68d504ea59a1a80b04f38e941f076e17dee912ce5efa47c16bd268b1c864f733ca8bc2e9ea07ce85182530b1db17e20da2a643ac3584af56e6717c2962b9a31e73d573b5eb6b0b9c9c61846a91cff30c9a3c0cb248dd6b6ca6043302bd8835858012ff7c51e54e9b422bf40b925495b88657cd4fad9f7f335cc9f70167e8b38758d459f85f111d6b936b488c5c3bb8d1a912ab7a6e12ead12eb4c18192d75cef5c28b9cea3c5066a2714094a762aa45fb4e8dbe12c79cc07435e100ff6a578d23ca91a432394d6aec6e9ade03f0873b18e708f43d739916017f21b35697c9ba39a48a4f2ed7c63ea37c0aa6c2c27d6bdec1d18b2bd3a3b515d32cd23279193db59fadeecbb125c6c95601027cae4d8e677c3ad2ed6d5af1e3b639738b10967f825a57b7b76eea816afcac4247da7af88172ac667d994973992297f65a6f9375a89565826612a9622f7518c702cd7bfa5b1537e8cffa2f0be92b6a3265bfef68cb420b07d496018b75224d5624f4674b2147ae1addcc6566040909bffe21be5b34c75880f8d23ce4d3d35e90e3f8cebd0dc8b313f8b899887fc3e35c29e0411c9de423420f5bd4e97ba36af39b7db6d7a14b7bc396fb331fb679234be5cffeeca2ad39510f84ecbc0d2595db3c9cc37a13e0de1810c7aa918cd5f8575dfe617874e568e8bd377c03a00f2ef1e34edb501abaf4765b0453496a219486dac1164689dfa788b67dc1539b460c6482fede8f5236f43aa9b339c1be085a3c05807c5727902ec81e5f909f58164c049d3606c30c3393aed11eaf217c9a3df077fe613812a063687115bfddbd6f56ba21818dfb6818e40455909b35a1f4cedd40cf88f688d45d25a2190c441832b94f461413d71377d04bb391795be0a9bd9ab5a8e5d5603093054b72d9da2cbdc8ba98b62ded57464152260963b45cbd81939450f290ddfdadd4f7915c65ed6e1af113f67ee37c0fc46dc36390d999a7e7f7d10051295db66373dd60bb9f0b60e88ba9341b8fc644e80d4002aa45b71eddc85c6a74f18a8a8bfa31608b9ed0b23423bb7fd5790438b27513a2cc49a2176a4b08ca1995f640f61c05f5159a8ea0b5b9eca9c773fded6745d80dd27867097ce08ab021607fa2509e70660df2d1c1291687ba44da06d9f419db10f41f77902c70df3bf8aeed17647093099e6f1be08439456430466aafdff66b69486bdc6f9d394e60079abe0b32ed7bed1aa3516b38d30895c1c9d8f06e32e17b8c5d5abaaa8371d37b678f9056e9c94e4de0cc38c85dd18d68aecd8e32374c842bfa86973a4f286a5dc29ee827ef4575de43634b053a340df476ca463814476391adb32f1d5d4574668bb59cc177dbadf92746a46cac5eb80ffcbcff044d3502db027853c9405ce7c99bdeaa30fb4808f2064c8b799ae92c7ebc569e90d4fa7226f9944779a244537ca89e069c943b30bd463f5c0957f9b1e495208922f2a31f41c31d0cab7d79612301ab14f06e103ab5b695dda4be4df38eb6eb90d349e8a4298bd9a8827222a96d6e3f6073398bd47670c30b5e906585c8e26372682952f260aea0e44226d000000",
  "txid": "7875e421f5157dd9d41ba150a026379d57abe867aabc67a1d4414de5a8d0426d",
  "hash": "936b09a8b892700006c59dafae391023c661dc0d6b9d7645c0c5caef150e2da4",
  "size": 5085,
  "vsize": 2278,
  "version": 1,
  "locktime": 109,
  "vin": [
    {
      "txid": "1baf8d22c064c7b66cb81f30724ffadcd4b0701403cadf26cc64c340daba23da",
      "vout": 1,
      "scriptSig": {
        "asm": "",
        "hex": ""
      },
      "txinwitness": [
        "a4641e3ce5d0e716372b43c4617d17042388e9286f6944e324c6f45cb9dc395a5d9c635e4418fe4e3e17e686138cbdf9fe55421526030fc63b3042f11a546f7f9efb4dd3ce6045ed402fa3b17dc5988ade3d378e2d7c581b88f05f59b8a7b7ca6d409ed84e6188d587192555a2b2b0fffbcb884f162e527dc8af1677bb7dd5a035633b3d5314ad3bd69444ef875c76f7f9228c11d6ec2765b6e356f354490249048b12a7dec9eb3fec4bfbe81c2be57cb78c2e87b35bdac8517c53042e4927edab3e53ac9b2796e5484f1a4ff0adcd6ff13f31f872c0fcaaa152d5540eedb510323fcff3016a268c7adff2f4b0788d53c8f1493beeef2ab1b967458fb9a06bdf45e4f5e7ac0594236b94177a4675ce4ec3d69388b0129b746765350bd09e0b000147055dca366b960593cc60df1fe4ed56969db760879de369daf59cab044ffe4d3c8522d57560a0c8d46f14fe92b212371cb96138b92a469528b0600fc775077138e6c652111320cc0598f7892205fa7a78aafb3754f204e6e8997943b90f7a1574feb53e76d6cc45296f68708721eadcca942be14085051974beeba8e5e305b022e0ee5efa682071e99e5e0cf9a7e66f2ed747e0d2bb37a7de6bbee2e0d05539f9dbf7f28ea75b98704cfb6e616c62c65588612a6bc02fd0e389b0a475a6e77f89e1db9e97df94f146e7367cf01c3c5ef88c8dbcc4a78a51668b4fbfc2784c5e5bf296d98d3a5c9e38aef24547c74284b9a3be6aff3ac4fd34a11de4306a462f39d6a05811a2639d9e48921a13b566c55521da0a51f8a9ad58aca58831f7b0e1097a0692621908375466d9802a76c2a4a24a07db9f6be936ca280bdd6e00ad9f7563550d1a2a1335bb05e050aaf85193e51966201bfd31a1bf91839a994924e860333dd0bad15aa1c7bfeb49dc80d077dfa56b9c79d302901eb44772db06031b45ac49c576e2b4f179c347823cdd5e8cb43b250f3eb8fa00358d4fc1cce8612c39ea06a97a41ab9c9421e5ef934d58a36daaec961a856ea8d039d0edabacc40c6c5f5ecb33eaa6ea8cc978ba09a783a90e3b3c5a8ab5bd7811b54b4e9a72c2cc888dc10fbfa25c6c3845383d89e5ad5901353f6caa1573460cee1332f6fa1286d282702723630ed8ff8c49e912cffc5361f7484f05a69ba4c9d71a90b8dfba5a4a4f4ac738f680f893082296160fcfd4de5806872686797821b62fb133a829e1232122022c7fd6be5bb4b091d68278ad67a3e6dbf9a643ca747c5cd1a6ea7ee01e01dd51edfff4d46af8e0c43de62ebad0e6333395b27d9e30dc4d927b5848c5dfe7b97cdb3e564e9e3f87e219ae931422ad867016cca6e3ca1d9e89cf5b7413d7b969d92c79015087647d77be0995836caff71e50fb64206cd5c65376fd35e835583d23b16d1c450b4716338e360681bafa071b4d4af0bb2ff838828a361115019d28d524e523cb22cfcdc20f769f9a9994e61a518d765a19a613405f540363bac3abba26feb438def7dbb2602e629449c87f42d715fb3c6a4a66ef7dc35510c96f8a8a2fb241e8c4932d6b3d6a38e3483f9926445b7f778d18af1c194c2a4b7ab55f904384ca39f8a97fd3a1f901597ac1b608e74688bb72e1a0f944f60c7f12c0bdd842c9b5ac9a302881b74d3eae2f05cf8489e4bbf2a7cf76cb8a70a802e28e765b45d507a8e6f28847dfbb80c3048e7da5b16277a8d4d74bbc6f5a06c8bea58583f00d3f6b0bee21f7f4ae232f42bfab1fe4ee2b619c330ae767b970ed5f4d5f10f82ee7c74622609c58921814cbd9184f26332eb1a96087fc309c6d7e2bbde7e7f8781fc9e0dc2331596d3be3d9006c002eab9e4b9945060bc71335013bc49de7ce31127cd16840138f224dd607f55a40a6c8afd58189b322855722acaf8e480e354fa03d41d5611e4a4f28dba1e920787f58e9dab08a123a439daf3c457080f67d0ecfeae67044780d3505e12d499dca182697916d7de1085dab9ddc151ed0b90fd385c1cb80e02237c32ef82aa45bf539f1ea2c397e90e45b3522e648101fc38968ac5fbf1583799b365863e5cb7aceee89c8543bb681be2ab7fcbf1a6b0103e24786426e86d1284b17e35c64657f1e13949be63e01e2e78d868692b12b057c6e1d5c74d64e536513b4d617bc1b095cc611b1af0c3a0c63a9c6cffd906165eda43a8c0604d1140a6c039360548af0de4b2aedc8ba4b6aa3015dc69af66601ec15e9bb650bc2d91eb85f9f00a0d5495545777391e22099011b5862ebf5924716e5a28876c909e50684eff0ef5718b2500793547d6a5aa211035a987894577dd1ca3575642692a17993122dd66f2481d0a8f3caa978e502c0d91fabafec2be71d866b1a5418f2c0508275166c42bcdbbe2cfdf5e85d31da32ea0af71978703687defd5a06d3a09eddf9812ae64fdd0f4b980f8d6219f6de2266619ce88b0cf68190cfa7f08cba03aa438aa9fc8d64ed144e3527726135dfe37a4b0c5864bac6612be90059d97d8e1966db4ec9e2ae8581fbe90740ca40737be847a9d9755ae6744601aa07d4ac1c8a70dbc43b5d214f4029d674df4a23e80d467ad377115489c2a03b8c38946e314e0dda237a245bd9679a7c08f96ad2cd13809b49657ccb54d20dbcc96dd732e57fe23d7fe18b56bbb35d019a14eaf96023628cf8d51639a05ec0e4ee3b15e1f7d4424794efec41e1eb775c6749b9ad25fe78f2f29a6b7545ca463c4a382746d9a041bbb71d8ad4c04fb666f8b5bf32913ffdc8eb6aa694dbfacfafc4996bff5fd78d493bd34d28abf06641d330de666d96db08b7ba5e3fb46005066c9310f45575a7f6a4a81f88310f608f502aabc611907eb00320165f94ac45318ad1fbc30814169db9a0a1f8e677c121a044862c04cca658117b5fded4e2105159aa853e2726a8cb1f43abe184b9d52251ccac4de788830efc44a98c40dd5b36e53fdc7f5caa430d73cede3498d89eb8e06a4112766037eb7672cd439327be88504c821a5a8ee0049f8ec510a63f2e67d120e8fb08c6075f0913a33204697b224fdfe2aa5f138972fe415d178493d971f0356ed202071fe79628692ceacfd6d6e5efe0c63e9ad7c312074894f89542c2cd5b4c8000bf34e1d34367957a92f9f769bfdb001de1facc6e781c106869779c6597462e50b2bd69dd487a4999dbe3c6e2e4ca1cded3acc7214f5b62b78f98e42683d7d25df53e09b5cf8afe7c81f1f181f2fad0cc246da269047ffa96bd3bdc2829b854ecfe238d8a0156056391cc28f04cd4a9debb61e2b8a68edd4f68de5a1aea69acdf676df56c0b0f10191b33515455b7e4eaef2324303653586a71788791a3aebdd6e1ed040d15172e444a62687c7da1c6d4dae5e7e8f0fe04090f1e43494a5a6e8e8f9ba9abad0000000000000000000000000000000d1e324101",
        "0096ba1aaab131a1cc48cb813e63aa7bbbf0799573eb56e05cc2ee335df1e8e08e54c227f5b9810ee749bbc79a3f940eb4f8a091a1f4e94eb8bf0577d21939608179164f4ddc2b748729f81f4778c02c36d78b2b1c5351a965a7357bb56669a2668938ee778338f869aeae0ba9b8f2071f7a55dc67cafe951472b1980b8769f8f84bb2945a3323012339b3b25e41b6e9af3e9cfdac5296c51d99e3940b8c2b204c957e9edf9307eec86fd3c32bc35974a01b7fdf118b5a22b16735422d4b015ecec9b9a3aa9a68d504ea59a1a80b04f38e941f076e17dee912ce5efa47c16bd268b1c864f733ca8bc2e9ea07ce85182530b1db17e20da2a643ac3584af56e6717c2962b9a31e73d573b5eb6b0b9c9c61846a91cff30c9a3c0cb248dd6b6ca6043302bd8835858012ff7c51e54e9b422bf40b925495b88657cd4fad9f7f335cc9f70167e8b38758d459f85f111d6b936b488c5c3bb8d1a912ab7a6e12ead12eb4c18192d75cef5c28b9cea3c5066a2714094a762aa45fb4e8dbe12c79cc07435e100ff6a578d23ca91a432394d6aec6e9ade03f0873b18e708f43d739916017f21b35697c9ba39a48a4f2ed7c63ea37c0aa6c2c27d6bdec1d18b2bd3a3b515d32cd23279193db59fadeecbb125c6c95601027cae4d8e677c3ad2ed6d5af1e3b639738b10967f825a57b7b76eea816afcac4247da7af88172ac667d994973992297f65a6f9375a89565826612a9622f7518c702cd7bfa5b1537e8cffa2f0be92b6a3265bfef68cb420b07d496018b75224d5624f4674b2147ae1addcc6566040909bffe21be5b34c75880f8d23ce4d3d35e90e3f8cebd0dc8b313f8b899887fc3e35c29e0411c9de423420f5bd4e97ba36af39b7db6d7a14b7bc396fb331fb679234be5cffeeca2ad39510f84ecbc0d2595db3c9cc37a13e0de1810c7aa918cd5f8575dfe617874e568e8bd377c03a00f2ef1e34edb501abaf4765b0453496a219486dac1164689dfa788b67dc1539b460c6482fede8f5236f43aa9b339c1be085a3c05807c5727902ec81e5f909f58164c049d3606c30c3393aed11eaf217c9a3df077fe613812a063687115bfddbd6f56ba21818dfb6818e40455909b35a1f4cedd40cf88f688d45d25a2190c441832b94f461413d71377d04bb391795be0a9bd9ab5a8e5d5603093054b72d9da2cbdc8ba98b62ded57464152260963b45cbd81939450f290ddfdadd4f7915c65ed6e1af113f67ee37c0fc46dc36390d999a7e7f7d10051295db66373dd60bb9f0b60e88ba9341b8fc644e80d4002aa45b71eddc85c6a74f18a8a8bfa31608b9ed0b23423bb7fd5790438b27513a2cc49a2176a4b08ca1995f640f61c05f5159a8ea0b5b9eca9c773fded6745d80dd27867097ce08ab021607fa2509e70660df2d1c1291687ba44da06d9f419db10f41f77902c70df3bf8aeed17647093099e6f1be08439456430466aafdff66b69486bdc6f9d394e60079abe0b32ed7bed1aa3516b38d30895c1c9d8f06e32e17b8c5d5abaaa8371d37b678f9056e9c94e4de0cc38c85dd18d68aecd8e32374c842bfa86973a4f286a5dc29ee827ef4575de43634b053a340df476ca463814476391adb32f1d5d4574668bb59cc177dbadf92746a46cac5eb80ffcbcff044d3502db027853c9405ce7c99bdeaa30fb4808f2064c8b799ae92c7ebc569e90d4fa7226f9944779a244537ca89e069c943b30bd463f5c0957f9b1e495208922f2a31f41c31d0cab7d79612301ab14f06e103ab5b695dda4be4df38eb6eb90d349e8a4298bd9a8827222a96d6e3f6073398bd47670c30b5e906585c8e26372682952f260aea0e4422"
      ],
      "sequence": 4294967294
    }
  ],
  "vout": [
    {
      "value": 499985.7634,
      "n": 0,
      "scriptPubKey": {
        "asm": "1 c2e6312f28bba2525ecca581737d05f783ee3ffd531ea89e87964fca371c6ff7",
        "hex": "5120c2e6312f28bba2525ecca581737d05f783ee3ffd531ea89e87964fca371c6ff7",
        "reqSigs": 1,
        "type": "witness_v1_scripthash",
        "addresses": [
          "3QJmnh"
        ]
      }
    },
    {
      "value": 1.0,
      "n": 1,
      "scriptPubKey": {
        "asm": "OP_RETURN 81163f7e14c3317e786fa7240da852567e9b71fc51f65a53c6bbccb657688435 59262e33b25fcb7c1a75a26fb9bcd7b539bb4d3373f5a6830349b30b9131034779060e13927feb5c3a55824f999cf795199b6d1353d586a32369932bb111236719666e73f21f8b3c5a35e22ff9fc97f579fb0d7333b5e6c34309f34bd171430739464e53d23fab1c7a15c20fd9dcb7d559db2d531395c6e36329d36bf1516327d9a6aeb332df4bfc9af522ef393c5735b93bcdb3f375260383c9338b11b183c7f9868e9312ff6bdcbad502cf191c7715991bed93d3550623a3e913ab3191a3e799e6eef3729f0bbcdab562af797c1775f97b8df3b3356643c38973cb51f1c387b9c6ced352bf2b9cfa95428f595c3755d95badd393154663e3a953eb71d1e3a759262e33b25fcb7c1a75a26fb9bcd7b539bb4d3373f5a6830349b30b9131034779060e13927feb5c3a55824f999cf795199b6d1353d586a32369932bb111236719666e73f21f8b3c5a35e22ff9fc97f579fb0d7333b5e6c34309f34bd171430739464e53d23fab1c7a15c20fd9dcb7d559db2d531395c6e36329d36bf1516327d9a6aeb332df4bfc9af522ef393c5735b93bcdb3f375260383c9338b11b183c7f9868e9312ff6bdcbad502cf191c7715991bed93d3550623a3e913ab3191a3e799e6eef3729f0bbcdab562af797c1775f97b8df3b3356643c38973cb51f1c387b9c6ced352bf2b9cfa95428f595c3755d95badd393154663e3a953eb71d1e3a759262e33b25fcb7c1a75a26fb9bcd7b539bb4d3373f5a6830349b30b9131034779060e13927feb5c3a55824f999cf795199b6d1353d586a32369932bb111236719666e73f21f8b3c5a35e22ff9fc97f579fb0d7333b5e6c34309f34bd171430739464e53d23fab1c7a15c20fd9dcb7d559db2d531395c6e36329d36bf1516327d9a6aeb332df4bfc9af522ef393c5735b93bcdb3f375260383c9338b11b183c7f9868e9312ff6bdcbad502cf191c7715991bed93d3550623a3e913ab3191a3e799e6eef3729f0bbcdab562af797c1775f97b8df3b3356643c38973cb51f1c387b9c6ced352bf2b9cfa95428f595c3755d95badd393154663e3a953eb71d1e3a759262e33b25fcb7c1a75a26fb9bcd7b539bb4d3373f5a6830349b30b9131034779060e13927feb5c3a55824f999cf795199b6d1353d586a32369932bb111236719666e73f21f8b3c5a35e22ff9fc97f579fb0d7333b5e6c34309f34bd171430739464e53d23fab1c7a15c20fd9dcb7d559db2d531395c6e36329d36bf1516327d9a6aeb332df4bfc9af522ef393c5735b93bcdb3f375260383c9338b11b183c7f9868e9312ff6bdcbad502cf191c7715991bed93d3550623a3e913ab3191a3e799e6eef3729f0bbcdab562af797c1775f97b8df3b3356643c38973cb51f1c387b9c6ced352bf2b9cfa95428f595c3755d95badd393154663e3a953eb71d1e3a759262e33b25fcb7c1a75a26fb9bcd7b539bb4d3373f5a6830349b30b9131034779060e13927feb5c3a55824f999cf795199b6d1353d586a32369932bb111236719666e73f21f8b3c5a35e22ff9fc97f579fb0d7333b5e6c34309f34bd171430739464e53d23fab1c7a15c20fd9dcb7d559db2d531395c6e36329d36bf1516327d9a6aeb332df4bfc9af522ef393c57358bbb76493cb0fa0082b5b316a92ad314e5ed6ee067af7ef47e23fb62cf5cc121",
        "hex": "6a2081163f7e14c3317e786fa7240da852567e9b71fc51f65a53c6bbccb6576884354db00459262e33b25fcb7c1a75a26fb9bcd7b539bb4d3373f5a6830349b30b9131034779060e13927feb5c3a55824f999cf795199b6d1353d586a32369932bb111236719666e73f21f8b3c5a35e22ff9fc97f579fb0d7333b5e6c34309f34bd171430739464e53d23fab1c7a15c20fd9dcb7d559db2d531395c6e36329d36bf1516327d9a6aeb332df4bfc9af522ef393c5735b93bcdb3f375260383c9338b11b183c7f9868e9312ff6bdcbad502cf191c7715991bed93d3550623a3e913ab3191a3e799e6eef3729f0bbcdab562af797c1775f97b8df3b3356643c38973cb51f1c387b9c6ced352bf2b9cfa95428f595c3755d95badd393154663e3a953eb71d1e3a759262e33b25fcb7c1a75a26fb9bcd7b539bb4d3373f5a6830349b30b9131034779060e13927feb5c3a55824f999cf795199b6d1353d586a32369932bb111236719666e73f21f8b3c5a35e22ff9fc97f579fb0d7333b5e6c34309f34bd171430739464e53d23fab1c7a15c20fd9dcb7d559db2d531395c6e36329d36bf1516327d9a6aeb332df4bfc9af522ef393c5735b93bcdb3f375260383c9338b11b183c7f9868e9312ff6bdcbad502cf191c7715991bed93d3550623a3e913ab3191a3e799e6eef3729f0bbcdab562af797c1775f97b8df3b3356643c38973cb51f1c387b9c6ced352bf2b9cfa95428f595c3755d95badd393154663e3a953eb71d1e3a759262e33b25fcb7c1a75a26fb9bcd7b539bb4d3373f5a6830349b30b9131034779060e13927feb5c3a55824f999cf795199b6d1353d586a32369932bb111236719666e73f21f8b3c5a35e22ff9fc97f579fb0d7333b5e6c34309f34bd171430739464e53d23fab1c7a15c20fd9dcb7d559db2d531395c6e36329d36bf1516327d9a6aeb332df4bfc9af522ef393c5735b93bcdb3f375260383c9338b11b183c7f9868e9312ff6bdcbad502cf191c7715991bed93d3550623a3e913ab3191a3e799e6eef3729f0bbcdab562af797c1775f97b8df3b3356643c38973cb51f1c387b9c6ced352bf2b9cfa95428f595c3755d95badd393154663e3a953eb71d1e3a759262e33b25fcb7c1a75a26fb9bcd7b539bb4d3373f5a6830349b30b9131034779060e13927feb5c3a55824f999cf795199b6d1353d586a32369932bb111236719666e73f21f8b3c5a35e22ff9fc97f579fb0d7333b5e6c34309f34bd171430739464e53d23fab1c7a15c20fd9dcb7d559db2d531395c6e36329d36bf1516327d9a6aeb332df4bfc9af522ef393c5735b93bcdb3f375260383c9338b11b183c7f9868e9312ff6bdcbad502cf191c7715991bed93d3550623a3e913ab3191a3e799e6eef3729f0bbcdab562af797c1775f97b8df3b3356643c38973cb51f1c387b9c6ced352bf2b9cfa95428f595c3755d95badd393154663e3a953eb71d1e3a759262e33b25fcb7c1a75a26fb9bcd7b539bb4d3373f5a6830349b30b9131034779060e13927feb5c3a55824f999cf795199b6d1353d586a32369932bb111236719666e73f21f8b3c5a35e22ff9fc97f579fb0d7333b5e6c34309f34bd171430739464e53d23fab1c7a15c20fd9dcb7d559db2d531395c6e36329d36bf1516327d9a6aeb332df4bfc9af522ef393c57358bbb76493cb0fa0082b5b316a92ad314e5ed6ee067af7ef47e23fb62cf5cc121",
        "type": "nulldata"
      }
    }
  ],
  "blockhash": "9418e69333e129952491dcd6dc324ee50ca4a2e07f0678970cb85d951484494a",
  "confirmations": 1,
  "time": 1764177673,
  "blocktime": 1764177673
}