{
  "hex": "01000000000101e32eac50490b7480f8d5b46e8787f2509fd77d39c72cd53a9c4ab084b9bd1e600000000000feffffff02202367d2782d00002251201061ba86db38c1f880f4e2eed053d75ec1129872095a26cb5ffa39d3ce87f41900e1f50500000000fdd5046a20af2cf57fe900cd6f1852336ae681220f6d991bd873226d1a40f2f5956ef75ba54db004858ae8a756ae4cd9005564c4535e503d4d3269dff4f453bb672858171d06e03aa5aac887768e6cf9207544e4737e701d6d1249ffd4d4739b470878373d26c01ac5caa8e716ee0c9940152484131e107d0d72299fb4b413fb276818575d46a07ae5ea88c736ce2cb9603504a4333e305d2d5209bf949433db074838777d66805a050a6827d62ecc5980d5e444d3ded0bdcdb2e95f7474d33be7a8d8979d8660ba252a4807f60eec79a0f5c464f3fef09ded92c97f5454f31bc788f8b7bda6409a454a2867966e8c19c095a404939e90fd8df2a91f3434937ba7e898d7ddc620fa656a0847b64eac39e0b58424b3beb0ddadd2893f1414b35b87c8b8f7fde600da858ae8a756ae4cd9005564c4535e503d4d3269dff4f453bb672858171d06e03aa5aac887768e6cf9207544e4737e701d6d1249ffd4d4739b470878373d26c01ac5caa8e716ee0c9940152484131e107d0d72299fb4b413fb276818575d46a07ae5ea88c736ce2cb9603504a4333e305d2d5209bf949433db074838777d66805a050a6827d62ecc5980d5e444d3ded0bdcdb2e95f7474d33be7a8d8979d8660ba252a4807f60eec79a0f5c464f3fef09ded92c97f5454f31bc788f8b7bda6409a454a2867966e8c19c095a404939e90fd8df2a91f3434937ba7e898d7ddc620fa656a0847b64eac39e0b58424b3beb0ddadd2893f1414b35b87c8b8f7fde600da858ae8a756ae4cd9005564c4535e503d4d3269dff4f453bb672858171d06e03aa5aac887768e6cf9207544e4737e701d6d1249ffd4d4739b470878373d26c01ac5caa8e716ee0c9940152484131e107d0d72299fb4b413fb276818575d46a07ae5ea88c736ce2cb9603504a4333e305d2d5209bf949433db074838777d66805a050a6827d62ecc5980d5e444d3ded0bdcdb2e95f7474d33be7a8d8979d8660ba252a4807f60eec79a0f5c464f3fef09ded92c97f5454f31bc788f8b7bda6409a454a2867966e8c19c095a404939e90fd8df2a91f3434937ba7e898d7ddc620fa656a0847b64eac39e0b58424b3beb0ddadd2893f1414b35b87c8b8f7fde600da858ae8a756ae4cd9005564c4535e503d4d3269dff4f453bb672858171d06e03aa5aac887768e6cf9207544e4737e701d6d1249ffd4d4739b470878373d26c01ac5caa8e716ee0c9940152484131e107d0d72299fb4b413fb276818575d46a07ae5ea88c736ce2cb9603504a4333e305d2d5209bf949433db074838777d66805a050a6827d62ecc5980d5e444d3ded0bdcdb2e95f7474d33be7a8d8979d8660ba252a4807f60eec79a0f5c464f3fef09ded92c97f5454f31bc788f8b7bda6409a454a2867966e8c19c095a404939e90fd8df2a91f3434937ba7e898d7ddc620fa656a0847b64eac39e0b58424b3beb0ddadd2893f1414b35b87c8b8f7fde600da858ae8a756ae4cd9005564c4535e503d4d3269dff4f453bb672858171d06e03aa5aac887768e6cf9207544e4737e701d6d1249ffd4d4739b470878373d26c01ac5caa8e716ee0c9940152484131e107d0d72299fb4b413fb276818575d46a07ae5ea88c736ce2cb9603504a4333e305d2d5209bf949433db074838777d66805a050a6827d62ecc5980d5e444d3ded0bd985dccaed608e9b1359d2999037f93372620456b39e62119e8fb971e8defcd3802fd750917440e22247e32fe252d5cfe4e7818b85857913a783c91070f5f4929e24081e147370abbaebbaaceedae6ba5abd23eced9c0a00bb36ed7f2ec67659fb968a3faba9d64ae4e67134a5034ab5469e34fc37f34e964c106a58464e29b265e473395a0c368a44fc9e8c28ca48280199f0cbe493a59c9b6ef04774a8e8fe171f10e50c1121b85ebf04c25f57a0b7ecf5fbac1c9dd2f098cc9bfdd86491b25fd9f85fb7115f52dd5cbe75157e4220dd6040c4fd1f262cf86f99d41e5dcc1aa4463ceaac7c6d2483e52031b2df988fe572377e9f725bfb9d79c388016c8c9fcfeebc353cb65e2ef35ff193fad0c90fb162b8980627f289c857e0b1d89f15f7dc0334b8f03025af962f86775775a1b93585b4ae30e6e26e541be986a56e83ae194f56b8dd74aef9f375234d9c874f5b4398bcc5b5b58acada7aad9fa3d4080e4b73e3a08cad8d32adb94a5f9a512ca7a25952058bed1de8ead3cf1cbf1600e25cf737fa95ed875c9f35700913c3bceb97c64886f1400802ca9157f975b4182f5f2d26ffa29d01fec87edbf45915e7121a3e29f134b1c27416dce3f8d0c655cc97871eaf5d5123955a71403240c8eb892368c7a1f051aa1410395ce48bd9207ea64cb29c5c545d747d82e6e50e3c8c2d06944a72298d280fbd5613d286a13ade4dc774799e7761756eee31f8b50a8bda7277284ac62de4f21a939801bd4bd175dfc8a6bbd0fb511fb524a16ed03a5ea286f2f0943b5033347562e2b62fc9e66bf51676d5c0c7e35865d99256f6ce793d47ab74231e48c5f37e26961a43637cf6da28a579389ae1ab466b911fbb56d43b0104ab438cf25492c8abaab55c18ded3e8845e6c2ecb7d65c74a7e2193066b14db47d108d0053a91f55a6267923dd9056fce37df9156e6c52f3fc2f904cbdd97a9ce30e0e006c5d3e75ee4d5e6459e551f8a1ea3af26c4364d28590a9c558f6d38120cd4404c27183bce11d5ae6f0f9d5114671c7aec0d8fa06c73398a7b7343d2d64a0172375b15c3f12920a4c760168524e1d0dddce257b8a6b97f2aaae5bb02793749a4560fe293a912c7c03f61b6ef3918488381378b94b2c0b8d19f5b674a367e372a4b1b148c0fdf446d1c37b8d88fe2e48d7155887152813a4b13f2b86f6f62493216e74718c6cbad4d1958b13a03ee0713e8e8ca0179d1189164f610f6538f5a6c0148d2c225ddb5e35384b5cd3b7240babb4fb26a9d250b728eb274be9a145a76f626dde71313284755a72751a5047a16a35f65183eac5aae5110aef5c4b0eaf632050f077234f331804752f35befbe6f0a727b4d5f32a13a49e9504ab8881f5565c510e472926fd9cfa473861da93a395cba686c2d47ab31570668d6182115af5fc64e53b46524286f96aec0df8eb28267f3d4ee4d114d8ee7313905011877c8f1d24fbd2e16ea8afdb1db7595a40af4237e1b1814da27910262b811f37c42e87ca339c6cdc74ba5ed3d70f3c06e489eb80836ee446f75b16583274d0d16396845b772adc906ebb39a16e0ff0184e084b1ec0aa36929a0603926cc5d3424e49b2f5c037747c49732b686105fce1ad3c0d1d9b30d6042a2d9893e5853da4ee1b94f715cebf73fb9154c4ff2d784eb4179e141f29131dc0e16fea07225ca8c5ae0202761f782c871de886448b82abb1bf9c53f82a09427b6793c3f6cfed427dbef209c4b35948bb6d45e20fbfc79e2d2b105f3e97650cce7f37f7a7ee8eb58b9e04c0f13975329d1af0e1fda9225744f3081ff22eb009ce7c3f34d4b61de104727abf7d1aabb246de7471c680ead864e8d0e430d25aae2a64827696b842e93e5f0c0dd5495a926e3697a126380729533753b16edd84e23a3cef4f2df01e74caadcc6a34a31dd1be26a39e04df61c0db9c656728c8d69cf2e2fddb11a13c9d0c9ad49220b6334adff5e7d4c8884af690ffb720968738a26385eecb3e52f8231cb54172aa11232b2349b52848c282ce4b47c62051b1b7660f46736d646e64f5e702f3b1e6b01370c15a624d4dff441ce1a6a40e5eb05c502f4babc1ba615e064d0ff1ba9e39491dd4f8886f864bc14e45d2086475cd19372f659b18467f5fa8ad43725be72c5372c4ab99740c324ef73c7d88690b3b6d4f24cf69827dd85606b3e8957f12436d3ffddf6e809c254d60060d8e3e828d6f917ab245bb69e21364936ec55fe998142720b68a034d2299037ae62e60bbc9688d0c6d931812a6a4a21c25de017cfa4db22b22f075776ac58db7ed63226a832bcf06783e5080a5db3e267985ff5da73a5797cd447af391e790c302762722e4499121e0e77ebabce9338f4911f63cfe5aa3c3dc611511eca347ebe10de0aed7884c49b4f1b35b0bfc1e6849c3f0ee293fb543d4d6f6eb8f52adda58012e889144c1f9fee796ba898c1101ef77672dac79ee960a4a7b19d664550d5e07457d57ba753633901d0806a4752f15bfefdbfb987b106103799d07c57de994e0d83e8ac34c2a8489c4d9e4ba17fbd9768cb79933139db5d113090b3fc28bbb1c01a29e5bc16342e2c28ceecae0a0961127eded69b8151ac7898ef0ceeb483a5a348116888dee9892b90da23f5a4260c6c2242630ac954cae7793e379c9526a49a0b9c0dff6f1458e55c074f867c6be5f3022162e89b5223650d667571a8f310b09f8313e30ad5c192e677c723e943f5ecdca31d3f17a47a9d7b758bef35c72f80bc643f4892f74c0fc4fefb0ade5035e2bc8042627997df52c585762a86a7a4b9e8efcd7ffa3efa17a81b3d59fa788556d263db46e45e17896b6f22a9c41f140b04a1a786b612d768ab50e73893870a1e9534c39e79b2c7d7fb1e621dcbca66a62513ea34910e5b30946c92456e1e8d6b6f35e91f9eefdd052186fa0e0834c565f8bfe25f39831f5a8a3350cf72436e63db42c60fc521fe44fc64757304cc969658c0459c547de7df447c6700715964bd0049ce41cef169bad5d727419bc25b74cfe096242a2c879d3d0ad87d3b1693367888e4606ffb95bdd24a73b3bdc908d3978df89b3026b741445d6c3753a6f96572f19a176cdff943baaadabd59cd403d031b41542e9f2c5cd5dfb34f8f400676dfea95e0185ce7bbe35a47c236ff1999393d3fb1d999707cdcebb13ba2b24915bb436dd300d4370485c3d2b09fac1ce9a37a16fefcce634d3a59d9536e983026d5f78d8c64462c3569ca9abe91899315b6296eb8a43878ee81c69151664dd99da06c162b5d05b58de26d64d29d0db5220f229a2788204a60ae0e646362f9482a153254f1bc5a817135dbcecd9f28c06222e619aa4b1c2d8dce8f3293f6273757c9da2c0dce5eefd13213c3f666f909299a1a3c0d8e7ee04090a1f2c2d4b4c59626471799c9fe3f0fd000000000000000000000000000000000000000000000c19283a01fd2105003e4a527ca6853ab38f94a84f1225cccf4342a28885d17133e24821a81ee4a6763ec787736ef2de834991acdcbaa84998f37ddfc0bef987ef304ffb1216b415d6a18ed4314fd173346e94065a433bdcefab2b5a82fa4ddfd93fd1c0c500ed476204fe8dc0c83572a7ba25b87b16176643c20ad6dce5ef71fbd8e9073f89ef0b9a5ba8130256a5e054ffdcf175211e9fdc3383ff3938c3bff3d914e1c318a6296fe9ee4105d2e5aa9852414a402879333269e410d07c3233362cc35dd7da0e2bbe8d196970493d0ca55a659ec2f3272b50de370f3a88354531b81bffd3218ed2a0217ba40fd6d352b2ef4b6cf4857ac3fb805fd71137ba1b3e5f9180e6b767f54fd753431271b900c9551441539e7789f9e2b0a073620882dc3559c0c20825651d3929ac860bbed731527b69f8ad4ba4e48f94cb399518dfe28f2ee8c18e388d26963231b9f42ae6e7c9f6b0c9f7d42c143e7e398d9f382d59d68ebc92e17d78e6ed73e8a1e337e0bd0aa657d10916fd220973c59f9403ffd79a810be852f9df7f0dcfcda1500663488d3222c43dcb57d4064577475b79bb172da4a88e14ed87e7006e3e402b37d2296bd04892f618817533e7f7dc256f1cd5ee7b409782e712478ce33cb03bc06291a2de35009bd4a3ab8c317fcc672cb30931b28297aed715438430f53b5c56ff7f5a00c2d97d23be6d969d9db0c21f1fb4e8c7615d2aeb786b3ffd344736aeaa635a5f797dd9d265a6327e319b9cc767c43c494768bdff3adf56875414515e705694da8e6b4586a2ee8fe81da6233cea54960c1ee4f0b9e39665957e7b92a359b85792ccf2a55cb18bf98f17f7d4af7623103623548ef1df032ac10cba6828aba1b2c7442a25a065adf7501759c266da96dc7b8d119c35d6871b125f9ef713e8455566dee6b4a0bcae23ef043b515cdc40975f88f7f400d33cb1fc9dc5fc681987251519170cc82ee94cc0204892bdb75b01ca5b8609e7b28752e45e8f62c95e626a433904aa1f9acbb0d510e04867865afaaacf38e60467c622f71a56ea6bdf6140d2c82d78ffd6f19c7a294eca5ca77e76e53a4f69d62df037c38d132f343b1a259d2e19322eeeb1763a4683c5a8d8caa9e3f141940259ced907ff6d781694a9161c4ae2a26c4b1f9a1f3e135832e5920e2d6ddd748fefab9b79102012a35566f6f83b87f9b31e528d6f2b5256fa5e6f86763daedd5b9b7326453964d8b5f8bc7b0c2d9a625fb8e5f3ce2fcef634262e6430cb7f769b4b08ecbc3e6095696c43f41096aaccd000305b1fbead532195a1962f5c3ccd18a18e6b60ceeb4d6dca707cbb3152815e407197c36ea8e56cc73eee3b5c89e7c8b8a094652f4787ce184b61f2af90361d9dadaf523a99f3c6599703686026de01d68e2329f747d78c7189957dfbab9967357f73e2ba6abbdb56d4aff76aed06c7f28f1af7d751b03bfe4ab47e1403ca21b46a9c55f505cab88eb7a9d924ea26b20b553db12c624890002ada11d53accc9c4a793a2272b45019640db4ded6e5d57be18548881d87eb45ab85a51ff967af2fbf72e6c31fcb50d6c5ca11a57ffbf398ef015e9eb0b3bd950e5941136ec1456964a097d32a4104e3c66766adfa964364c6a81894db0e8b542160c8c9dcea860ddfee03c959e44db767cde1edb1bcc284f77c28e5e91afc4106b1a21b7a15742faf8b7f9c1d70adacee4e3df555e0e1a1421c0db7212e35beea6988cd52a4a881be62bfd59d66ccb7670f80cf2c831637fa174001de9d839ad1cd1d0c1ca37f9e742b6bf172abef636806a58b89752a9c983f0c5871d0e4e755fbf404916a33e0666572144069ccae1be5601dbf0495e756980000000",
  "txid": "7fec2de8774b3cc490a2e3292e5ac07bea6bb63ca60ffd3ac8f851445d92f78f",
  "hash": "6585dfa28cb0cff57acf82cfe6bc596c9c948f920266ac5af723947125472986",
  "size": 5085,
  "vsize": 2278,
  "version": 1,
  "locktime": 128,
  "vin": [
    {
      "txid": "601ebdb984b04a9c3ad52cc7397dd79f50f287876eb4d5f880740b4950ac2ee3",
      "vout": 0,
      "scriptSig": {
        "asm": "",
        "hex": ""
      },
      "txinwitness": [
        "17440e22247e32fe252d5cfe4e7818b85857913a783c91070f5f4929e24081e147370abbaebbaaceedae6ba5abd23eced9c0a00bb36ed7f2ec67659fb968a3faba9d64ae4e67134a5034ab5469e34fc37f34e964c106a58464e29b265e473395a0c368a44fc9e8c28ca48280199f0cbe493a59c9b6ef04774a8e8fe171f10e50c1121b85ebf04c25f57a0b7ecf5fbac1c9dd2f098cc9bfdd86491b25fd9f85fb7115f52dd5cbe75157e4220dd6040c4fd1f262cf86f99d41e5dcc1aa4463ceaac7c6d2483e52031b2df988fe572377e9f725bfb9d79c388016c8c9fcfeebc353cb65e2ef35ff193fad0c90fb162b8980627f289c857e0b1d89f15f7dc0334b8f03025af962f86775775a1b93585b4ae30e6e26e541be986a56e83ae194f56b8dd74aef9f375234d9c874f5b4398bcc5b5b58acada7aad9fa3d4080e4b73e3a08cad8d32adb94a5f9a512ca7a25952058bed1de8ead3cf1cbf1600e25cf737fa95ed875c9f35700913c3bceb97c64886f1400802ca9157f975b4182f5f2d26ffa29d01fec87edbf45915e7121a3e29f134b1c27416dce3f8d0c655cc97871eaf5d5123955a71403240c8eb892368c7a1f051aa1410395ce48bd9207ea64cb29c5c545d747d82e6e50e3c8c2d06944a72298d280fbd5613d286a13ade4dc774799e7761756eee31f8b50a8bda7277284ac62de4f21a939801bd4bd175dfc8a6bbd0fb511fb524a16ed03a5ea286f2f0943b5033347562e2b62fc9e66bf51676d5c0c7e35865d99256f6ce793d47ab74231e48c5f37e26961a43637cf6da28a579389ae1ab466b911fbb56d43b0104ab438cf25492c8abaab55c18ded3e8845e6c2ecb7d65c74a7e2193066b14db47d108d0053a91f55a6267923dd9056fce37df9156e6c52f3fc2f904cbdd97a9ce30e0e006c5d3e75ee4d5e6459e551f8a1ea3af26c4364d28590a9c558f6d38120cd4404c27183bce11d5ae6f0f9d5114671c7aec0d8fa06c73398a7b7343d2d64a0172375b15c3f12920a4c760168524e1d0dddce257b8a6b97f2aaae5bb02793749a4560fe293a912c7c03f61b6ef3918488381378b94b2c0b8d19f5b674a367e372a4b1b148c0fdf446d1c37b8d88fe2e48d7155887152813a4b13f2b86f6f62493216e74718c6cbad4d1958b13a03ee0713e8e8ca0179d1189164f610f6538f5a6c0148d2c225ddb5e35384b5cd3b7240babb4fb26a9d250b728eb274be9a145a76f626dde71313284755a72751a5047a16a35f65183eac5aae5110aef5c4b0eaf632050f077234f331804752f35befbe6f0a727b4d5f32a13a49e9504ab8881f5565c510e472926fd9cfa473861da93a395cba686c2d47ab31570668d6182115af5fc64e53b46524286f96aec0df8eb28267f3d4ee4d114d8ee7313905011877c8f1d24fbd2e16ea8afdb1db7595a40af4237e1b1814da27910262b811f37c42e87ca339c6cdc74ba5ed3d70f3c06e489eb80836ee446f75b16583274d0d16396845b772adc906ebb39a16e0ff0184e084b1ec0aa36929a0603926cc5d3424e49b2f5c037747c49732b686105fce1ad3c0d1d9b30d6042a2d9893e5853da4ee1b94f715cebf73fb9154c4ff2d784eb4179e141f29131dc0e16fea07225ca8c5ae0202761f782c871de886448b82abb1bf9c53f82a09427b6793c3f6cfed427dbef209c4b35948bb6d45e20fbfc79e2d2b105f3e97650cce7f37f7a7ee8eb58b9e04c0f13975329d1af0e1fda9225744f3081ff22eb009ce7c3f34d4b61de104727abf7d1aabb246de7471c680ead864e8d0e430d25aae2a64827696b842e93e5f0c0dd5495a926e3697a126380729533753b16edd84e23a3cef4f2df01e74caadcc6a34a31dd1be26a39e04df61c0db9c656728c8d69cf2e2fddb11a13c9d0c9ad49220b6334adff5e7d4c8884af690ffb720968738a26385eecb3e52f8231cb54172aa11232b2349b52848c282ce4b47c62051b1b7660f46736d646e64f5e702f3b1e6b01370c15a624d4dff441ce1a6a40e5eb05c502f4babc1ba615e064d0ff1ba9e39491dd4f8886f864bc14e45d2086475cd19372f659b18467f5fa8ad43725be72c5372c4ab99740c324ef73c7d88690b3b6d4f24cf69827dd85606b3e8957f12436d3ffddf6e809c254d60060d8e3e828d6f917ab245bb69e21364936ec55fe998142720b68a034d2299037ae62e60bbc9688d0c6d931812a6a4a21c25de017cfa4db22b22f075776ac58db7ed63226a832bcf06783e5080a5db3e267985ff5da73a5797cd447af391e790c302762722e4499121e0e77ebabce9338f4911f63cfe5aa3c3dc611511eca347ebe10de0aed7884c49b4f1b35b0bfc1e6849c3f0ee293fb543d4d6f6eb8f52adda58012e889144c1f9fee796ba898c1101ef77672dac79ee960a4a7b19d664550d5e07457d57ba753633901d0806a4752f15bfefdbfb987b106103799d07c57de994e0d83e8ac34c2a8489c4d9e4ba17fbd9768cb79933139db5d113090b3fc28bbb1c01a29e5bc16342e2c28ceecae0a0961127eded69b8151ac7898ef0ceeb483a5a348116888dee9892b90da23f5a4260c6c2242630ac954cae7793e379c9526a49a0b9c0dff6f1458e55c074f867c6be5f3022162e89b5223650d667571a8f310b09f8313e30ad5c192e677c723e943f5ecdca31d3f17a47a9d7b758bef35c72f80bc643f4892f74c0fc4fefb0ade5035e2bc8042627997df52c585762a86a7a4b9e8efcd7ffa3efa17a81b3d59fa788556d263db46e45e17896b6f22a9c41f140b04a1a786b612d768ab50e73893870a1e9534c39e79b2c7d7fb1e621dcbca66a62513ea34910e5b30946c92456e1e8d6b6f35e91f9eefdd052186fa0e0834c565f8bfe25f39831f5a8a3350cf72436e63db42c60fc521fe44fc64757304cc969658c0459c547de7df447c6700715964bd0049ce41cef169bad5d727419bc25b74cfe096242a2c879d3d0ad87d3b1693367888e4606ffb95bdd24a73b3bdc908d3978df89b3026b741445d6c3753a6f96572f19a176cdff943baaadabd59cd403d031b41542e9f2c5cd5dfb34f8f400676dfea95e0185ce7bbe35a47c236ff1999393d3fb1d999707cdcebb13ba2b24915bb436dd300d4370485c3d2b09fac1ce9a37a16fefcce634d3a59d9536e983026d5f78d8c64462c3569ca9abe91899315b6296eb8a43878ee81c69151664dd99da06c162b5d05b58de26d64d29d0db5220f229a2788204a60ae0e646362f9482a153254f1bc5a817135dbcecd9f28c06222e619aa4b1c2d8dce8f3293f6273757c9da2c0dce5eefd13213c3f666f909299a1a3c0d8e7ee04090a1f2c2d4b4c59626471799c9fe3f0fd000000000000000000000000000000000000000000000c19283a01",
        "003e4a527ca6853ab38f94a84f1225cccf4342a28885d17133e24821a81ee4a6763ec787736ef2de834991acdcbaa84998f37ddfc0bef987ef304ffb1216b415d6a18ed4314fd173346e94065a433bdcefab2b5a82fa4ddfd93fd1c0c500ed476204fe8dc0c83572a7ba25b87b16176643c20ad6dce5ef71fbd8e9073f89ef0b9a5ba8130256a5e054ffdcf175211e9fdc3383ff3938c3bff3d914e1c318a6296fe9ee4105d2e5aa9852414a402879333269e410d07c3233362cc35dd7da0e2bbe8d196970493d0ca55a659ec2f3272b50de370f3a88354531b81bffd3218ed2a0217ba40fd6d352b2ef4b6cf4857ac3fb805fd71137ba1b3e5f9180e6b767f54fd753431271b900c9551441539e7789f9e2b0a073620882dc3559c0c20825651d3929ac860bbed731527b69f8ad4ba4e48f94cb399518dfe28f2ee8c18e388d26963231b9f42ae6e7c9f6b0c9f7d42c143e7e398d9f382d59d68ebc92e17d78e6ed73e8a1e337e0bd0aa657d10916fd220973c59f9403ffd79a810be852f9df7f0dcfcda1500663488d3222c43dcb57d4064577475b79bb172da4a88e14ed87e7006e3e402b37d2296bd04892f618817533e7f7dc256f1cd5ee7b409782e712478ce33cb03bc06291a2de35009bd4a3ab8c317fcc672cb30931b28297aed715438430f53b5c56ff7f5a00c2d97d23be6d969d9db0c21f1fb4e8c7615d2aeb786b3ffd344736aeaa635a5f797dd9d265a6327e319b9cc767c43c494768bdff3adf56875414515e705694da8e6b4586a2ee8fe81da6233cea54960c1ee4f0b9e39665957e7b92a359b85792ccf2a55cb18bf98f17f7d4af7623103623548ef1df032ac10cba6828aba1b2c7442a25a065adf7501759c266da96dc7b8d119c35d6871b125f9ef713e8455566dee6b4a0bcae23ef043b515cdc40975f88f7f400d33cb1fc9dc5fc681987251519170cc82ee94cc0204892bdb75b01ca5b8609e7b28752e45e8f62c95e626a433904aa1f9acbb0d510e04867865afaaacf38e60467c622f71a56ea6bdf6140d2c82d78ffd6f19c7a294eca5ca77e76e53a4f69d62df037c38d132f343b1a259d2e19322eeeb1763a4683c5a8d8caa9e3f141940259ced907ff6d781694a9161c4ae2a26c4b1f9a1f3e135832e5920e2d6ddd748fefab9b79102012a35566f6f83b87f9b31e528d6f2b5256fa5e6f86763daedd5b9b7326453964d8b5f8bc7b0c2d9a625fb8e5f3ce2fcef634262e6430cb7f769b4b08ecbc3e6095696c43f41096aaccd000305b1fbead532195a1962f5c3ccd18a18e6b60ceeb4d6dca707cbb3152815e407197c36ea8e56cc73eee3b5c89e7c8b8a094652f4787ce184b61f2af90361d9dadaf523a99f3c6599703686026de01d68e2329f747d78c7189957dfbab9967357f73e2ba6abbdb56d4aff76aed06c7f28f1af7d751b03bfe4ab47e1403ca21b46a9c55f505cab88eb7a9d924ea26b20b553db12c624890002ada11d53accc9c4a793a2272b45019640db4ded6e5d57be18548881d87eb45ab85a51ff967af2fbf72e6c31fcb50d6c5ca11a57ffbf398ef015e9eb0b3bd950e5941136ec1456964a097d32a4104e3c66766adfa964364c6a81894db0e8b542160c8c9dcea860ddfee03c959e44db767cde1edb1bcc284f77c28e5e91afc4106b1a21b7a15742faf8b7f9c1d70adacee4e3df555e0e1a1421c0db7212e35beea6988cd52a4a881be62bfd59d66ccb7670f80cf2c831637fa174001de9d839ad1cd1d0c1ca37f9e742b6bf172abef636806a58b89752a9c983f0c5871d0e4e755fbf404916a33e0666572144069ccae1be5601dbf0495e7569"
      ],
      "sequence": 4294967294
    }
  ],
  "vout": [
    {
      "value": 499969.493,
      "n": 0,
      "scriptPubKey": {
        "asm": "1 1061ba86db38c1f880f4e2eed053d75ec1129872095a26cb5ffa39d3ce87f419",
        "hex": "51201061ba86db38c1f880f4e2eed053d75ec1129872095a26cb5ffa39d3ce87f419",
        "reqSigs": 1,
        "type": "witness_v1_scripthash",
        "addresses": [
          "3QJmnh"
        ]
      }
    },
    {
      "value": 1.0,
      "n": 1,
      "scriptPubKey": {
        "asm": "OP_RETURN af2cf57fe900cd6f1852336ae681220f6d991bd873226d1a40f2f5956ef75ba5 858ae8a756ae4cd9005564c4535e503d4d3269dff4f453bb672858171d06e03aa5aac887768e6cf9207544e4737e701d6d1249ffd4d4739b470878373d26c01ac5caa8e716ee0c9940152484131e107d0d72299fb4b413fb276818575d46a07ae5ea88c736ce2cb9603504a4333e305d2d5209bf949433db074838777d66805a050a6827d62ecc5980d5e444d3ded0bdcdb2e95f7474d33be7a8d8979d8660ba252a4807f60eec79a0f5c464f3fef09ded92c97f5454f31bc788f8b7bda6409a454a2867966e8c19c095a404939e90fd8df2a91f3434937ba7e898d7ddc620fa656a0847b64eac39e0b58424b3beb0ddadd2893f1414b35b87c8b8f7fde600da858ae8a756ae4cd9005564c4535e503d4d3269dff4f453bb672858171d06e03aa5aac887768e6cf9207544e4737e701d6d1249ffd4d4739b470878373d26c01ac5caa8e716ee0c9940152484131e107d0d72299fb4b413fb276818575d46a07ae5ea88c736ce2cb9603504a4333e305d2d5209bf949433db074838777d66805a050a6827d62ecc5980d5e444d3ded0bdcdb2e95f7474d33be7a8d8979d8660ba252a4807f60eec79a0f5c464f3fef09ded92c97f5454f31bc788f8b7bda6409a454a2867966e8c19c095a404939e90fd8df2a91f3434937ba7e898d7ddc620fa656a0847b64eac39e0b58424b3beb0ddadd2893f1414b35b87c8b8f7fde600da858ae8a756ae4cd9005564c4535e503d4d3269dff4f453bb672858171d06e03aa5aac887768e6cf9207544e4737e701d6d1249ffd4d4739b470878373d26c01ac5caa8e716ee0c9940152484131e107d0d72299fb4b413fb276818575d46a07ae5ea88c736ce2cb9603504a4333e305d2d5209bf949433db074838777d66805a050a6827d62ecc5980d5e444d3ded0bdcdb2e95f7474d33be7a8d8979d8660ba252a4807f60eec79a0f5c464f3fef09ded92c97f5454f31bc788f8b7bda6409a454a2867966e8c19c095a404939e90fd8df2a91f3434937ba7e898d7ddc620fa656a0847b64eac39e0b58424b3beb0ddadd2893f1414b35b87c8b8f7fde600da858ae8a756ae4cd9005564c4535e503d4d3269dff4f453bb672858171d06e03aa5aac887768e6cf9207544e4737e701d6d1249ffd4d4739b470878373d26c01ac5caa8e716ee0c9940152484131e107d0d72299fb4b413fb276818575d46a07ae5ea88c736ce2cb9603504a4333e305d2d5209bf949433db074838777d66805a050a6827d62ecc5980d5e444d3ded0bdcdb2e95f7474d33be7a8d8979d8660ba252a4807f60eec79a0f5c464f3fef09ded92c97f5454f31bc788f8b7bda6409a454a2867966e8c19c095a404939e90fd8df2a91f3434937ba7e898d7ddc620fa656a0847b64eac39e0b58424b3beb0ddadd2893f1414b35b87c8b8f7fde600da858ae8a756ae4cd9005564c4535e503d4d3269dff4f453bb672858171d06e03aa5aac887768e6cf9207544e4737e701d6d1249ffd4d4739b470878373d26c01ac5caa8e716ee0c9940152484131e107d0d72299fb4b413fb276818575d46a07ae5ea88c736ce2cb9603504a4333e305d2d5209bf949433db074838777d66805a050a6827d62ecc5980d5e444d3ded0bd985dccaed608e9b1359d2999037f93372620456b39e62119e8fb971e8defcd38",
        "hex": "6a20af2cf57fe900cd6f1852336ae681220f6d991bd873226d1a40f2f5956ef75ba54db004858ae8a756ae4cd9005564c4535e503d4d3269dff4f453bb672858171d06e03aa5aac887768e6cf9207544e4737e701d6d1249ffd4d4739b470878373d26c01ac5caa8e716ee0c9940152484131e107d0d72299fb4b413fb276818575d46a07ae5ea88c736ce2cb9603504a4333e305d2d5209bf949433db074838777d66805a050a6827d62ecc5980d5e444d3ded0bdcdb2e95f7474d33be7a8d8979d8660ba252a4807f60eec79a0f5c464f3fef09ded92c97f5454f31bc788f8b7bda6409a454a2867966e8c19c095a404939e90fd8df2a91f3434937ba7e898d7ddc620fa656a0847b64eac39e0b58424b3beb0ddadd2893f1414b35b87c8b8f7fde600da858ae8a756ae4cd9005564c4535e503d4d3269dff4f453bb672858171d06e03aa5aac887768e6cf9207544e4737e701d6d1249ffd4d4739b470878373d26c01ac5caa8e716ee0c9940152484131e107d0d72299fb4b413fb276818575d46a07ae5ea88c736ce2cb9603504a4333e305d2d5209bf949433db074838777d66805a050a6827d62ecc5980d5e444d3ded0bdcdb2e95f7474d33be7a8d8979d8660ba252a4807f60eec79a0f5c464f3fef09ded92c97f5454f31bc788f8b7bda6409a454a2867966e8c19c095a404939e90fd8df2a91f3434937ba7e898d7ddc620fa656a0847b64eac39e0b58424b3beb0ddadd2893f1414b35b87c8b8f7fde600da858ae8a756ae4cd9005564c4535e503d4d3269dff4f453bb672858171d06e03aa5aac887768e6cf9207544e4737e701d6d1249ffd4d4739b470878373d26c01ac5caa8e716ee0c9940152484131e107d0d72299fb4b413fb276818575d46a07ae5ea88c736ce2cb9603504a4333e305d2d5209bf949433db074838777d66805a050a6827d62ecc5980d5e444d3ded0bdcdb2e95f7474d33be7a8d8979d8660ba252a4807f60eec79a0f5c464f3fef09ded92c97f5454f31bc788f8b7bda6409a454a2867966e8c19c095a404939e90fd8df2a91f3434937ba7e898d7ddc620fa656a0847b64eac39e0b58424b3beb0ddadd2893f1414b35b87c8b8f7fde600da858ae8a756ae4cd9005564c4535e503d4d3269dff4f453bb672858171d06e03aa5aac887768e6cf9207544e4737e701d6d1249ffd4d4739b470878373d26c01ac5caa8e716ee0c9940152484131e107d0d72299fb4b413fb276818575d46a07ae5ea88c736ce2cb9603504a4333e305d2d5209bf949433db074838777d66805a050a6827d62ecc5980d5e444d3ded0bdcdb2e95f7474d33be7a8d8979d8660ba252a4807f60eec79a0f5c464f3fef09ded92c97f5454f31bc788f8b7bda6409a454a2867966e8c19c095a404939e90fd8df2a91f3434937ba7e898d7ddc620fa656a0847b64eac39e0b58424b3beb0ddadd2893f1414b35b87c8b8f7fde600da858ae8a756ae4cd9005564c4535e503d4d3269dff4f453bb672858171d06e03aa5aac887768e6cf9207544e4737e701d6d1249ffd4d4739b470878373d26c01ac5caa8e716ee0c9940152484131e107d0d72299fb4b413fb276818575d46a07ae5ea88c736ce2cb9603504a4333e305d2d5209bf949433db074838777d66805a050a6827d62ecc5980d5e444d3ded0bd985dccaed608e9b1359d2999037f93372620456b39e62119e8fb971e8defcd38",
        "type": "nulldata"
      }
    }
  ],
  "blockhash": "f0ff1fbaae405cadeb51abb379c93a956cf666ff613992ee95c2f945c1780bd2",
  "confirmations": 1,
  "time": 1764181685,
  "blocktime": 1764181685
}