{
  "hex": "01000000000101e3b4124931de3a884f056b18580e4af0d249e54c1dd9900bead570ef727c2c8b0100000000feffffff0200e1f50500000000fdd5046a20df0cd98ec731d577d52d7bdd52cd114461b020b294d4e4b7b29455a07b2482324db004d90991f8bc80cca95575cf1c7c77012672edf1e7020004a8f4b97f1d7a797214f929b1d89ca0ec897555ef3c5c57210652cdd1c722202488d4995f3d5a5952349949d1b8fcc08ce915358f5c3c37416632adb1a7424044e8b4f93f5d3a393254b969f198dce0acc93515af7c1c176146128d9187626064c894d91f7d1a191274598911783c004c29d5f54f9cfcf781a6f26d7167828084287439ff9dfaf9f29479a931581c206c09f5d56fbcdcd7a186d24d5147a2a0a4085419dfbddad9d2b419c951387c400c6995b50fdcbcb7c1e6b22d3127c2c0c4683479bfddbab9b2d439e971185c602c49b5952ffc9c97e1c6920d1107e2e0e44814599ffd9a9992f4d90991f8bc80cca95575cf1c7c77012672edf1e7020004a8f4b97f1d7a797214f929b1d89ca0ec897555ef3c5c57210652cdd1c722202488d4995f3d5a5952349949d1b8fcc08ce915358f5c3c37416632adb1a7424044e8b4f93f5d3a393254b969f198dce0acc93515af7c1c176146128d9187626064c894d91f7d1a191274598911783c004c29d5f54f9cfcf781a6f26d7167828084287439ff9dfaf9f29479a931581c206c09f5d56fbcdcd7a186d24d5147a2a0a4085419dfbddad9d2b419c951387c400c6995b50fdcbcb7c1e6b22d3127c2c0c4683479bfddbab9b2d439e971185c602c49b5952ffc9c97e1c6920d1107e2e0e44814599ffd9a9992f4d90991f8bc80cca95575cf1c7c77012672edf1e7020004a8f4b97f1d7a797214f929b1d89ca0ec897555ef3c5c57210652cdd1c722202488d4995f3d5a5952349949d1b8fcc08ce915358f5c3c37416632adb1a7424044e8b4f93f5d3a393254b969f198dce0acc93515af7c1c176146128d9187626064c894d91f7d1a191274598911783c004c29d5f54f9cfcf781a6f26d7167828084287439ff9dfaf9f29479a931581c206c09f5d56fbcdcd7a186d24d5147a2a0a4085419dfbddad9d2b419c951387c400c6995b50fdcbcb7c1e6b22d3127c2c0c4683479bfddbab9b2d439e971185c602c49b5952ffc9c97e1c6920d1107e2e0e44814599ffd9a9992f4d90991f8bc80cca95575cf1c7c77012672edf1e7020004a8f4b97f1d7a797214f929b1d89ca0ec897555ef3c5c57210652cdd1c722202488d4995f3d5a5952349949d1b8fcc08ce915358f5c3c37416632adb1a7424044e8b4f93f5d3a393254b969f198dce0acc93515af7c1c176146128d9187626064c894d91f7d1a191274598911783c004c29d5f54f9cfcf781a6f26d7167828084287439ff9dfaf9f29479a931581c206c09f5d56fbcdcd7a186d24d5147a2a0a4085419dfbddad9d2b419c951387c400c6995b50fdcbcb7c1e6b22d3127c2c0c4683479bfddbab9b2d439e971185c602c49b5952ffc9c97e1c6920d1107e2e0e44814599ffd9a9992f4d90991f8bc80cca95575cf1c7c77012672edf1e7020004a8f4b97f1d7a797214f929b1d89ca0ec897555ef3c5c57210652cdd1c722202488d4995f3d5a5952349949d1b8fcc08ce915358f5c3c37416632adb1a7424044e8b4f93f5d3a393254b969f198dce0acc93515af7c1c176146128d9187626064c894d91f7d1a191274598911783c004c29d5f54f9cfcf781a66a4824a1f1aacf251b3ef0fdfe08c6497aa6b8aaade4fa561f072864a9efc777d0cb9045792d00002251205b7e44a4b7cf945ad9ea637b6d79f676c63cfea3ef8b3de29fafa4e67b753eea02fd7509b592c215b2ff9742d0380563e3e7be25a6b7edee0da06950aee0da6b9ab5595736fcfcda2cbaa32f6e5ae4d2e805beaa40e3f103c3dfe09ef15e23385515a2149daa2675e0ad1a970785479412dae37420449b59536fe174150a29dbb559ed907132bec52c22b9e878df2907b575803a6e12219e55f7e96a93658d7b684a9244d6d9558dcfccfe3b57180aab01c904eef7d638b640405608104f9b038d2abecfdd5434cadab58de03ed6df3dbf619921a7c2d54b61c3aee4c01e98c8a60db555cbbf7dd33ca13edb2d7201376d3e7ea1f1c6c354ef48fc91f2cf8a3c01f132bf6f4d29dfaf49d81491ffaba70137c263cbc264cc81c01e7cd8da31d3e8e009fa5275d708a54eaedf620a7fe8de3f59a6a2afffdb6a4d19127cb53e2655926139e81bc122cbb975ddee47dcc0917757a9a70154538ae61ee1904acb63f5348b4c753766cdbab91b7375f3ec1db2b3f325a5f56fb4aa762b200eb6700494a6c457b3800fd90b4f9eab5dfeb5457b9f287c92cd73d85c614e7fd2d94cdae43af5c6ba562d01611c1a06cc7956f2bbe0b8cb5ae430c9fffa00c328bb70059ae4205fcf07dbb19c2554e3a997d5f6c58c959013e5fe9e2c6d30b1c4a7079e8b9f075be2206352f86703db4c37c15055e90189a06cbb83b28f025d02ad0bd8099e269818ed461e44dcad1202da98cea9e0330b755d80dc88c2650768d811f7f51e3f9823f573196d6a515c88fdce314c5f6de0cbf6ee932b203032cb0a4b31e285a64f7d2c3d0edde89738ef6a22ffa8e1e6f4e1a0f1f5dd3d8452625604e7fd61304556ac13eb4ab1600d7df3b6c1da6c13923f73185b8abe21fedb3bbac2db6edd0905586d85542795a9243c27aaa88f12ca8fc13b385d04d56a9622dcef2a7d5c34f32e7bcdfa50a5aa8674c820d0efd443694b6e6a4d8542c2e70f00e5bdb4cd729112edff9dcca49df5e5b62605f3377df91f49cd1fa2d524a6f9a6c96cb392dc5b488060ae2b9b17813f5e3ff12598de958b575a92f68260a99e3156b1d0f511bb5716b1b3405f8b883516c50194e44bade287c662a36f379314a85a9b029f78fff7125987272a2ce511eb04a31a9bc1506bb8d3e0b9d29783cbee8ede833ef0ec79c137ae35359fe4b798c32c29c670d1ecfdaa770e931a786e1c754cdc9c55eb2a066471a33b69ed3552f52724c5e8a0e3cf3ccc27696bf0d29728b6177d4a5ee4789060515b1a1012383f7a0ca4d3625d7f8cbc39092981dfd743732300433da794cc618fadbfd6a2af77a5395b6982b9b30f085200e8f3dafd4b1787e86e50d4371447685a88e9a1f9b169a7f2c39516c4b7b0a3936e84344601d9818a3996828987c0fc6246092b9f46e8e47df7fbc917f0067071a4ce87f212c980e28fec4329c0d1c693795d8de2cfd9d6212e4786dc8cd523742d6d11b37f368aee4e26542915d630b6cb9ef1380f91bd3a756770a1a75b2dd956cc9cf42fc170344ac22800115f74256da3127a4a73aa5fbdf581c757e9199aa4706578256fefbb9d6773692173edae71d37cf9bb2c604bfb9efb6dde1b99b0dfdc59070ddffd480a2f154b8c296fad2ce4c55fa28a6522d535a65e283d58cac82d6db6b83ee9f73b17329513921394ba019d8bb551be2bfffc0aa3f557fbb315ef70b31a2f8a2844b88b3aadd2a4666ce97b740f335624bd42e4000ac72f2f5dd6d052aefa5009060ea9e982effdb439d31a524af27fd0f7a28fc86b988b99fcd7f5496e06d69e6d597955cda22b3544af0fbbb8c3a0c177f31e7ae8b73f11022a0daa4e17723abf931033acf9894da05f0380a98ede9bd0edc728a599a04bd0f6505ee37d727b126ed3d7c50b92cced8edf7c222d81741ce0ae569a65f3b5ea6a8f4cf14f6a72321cfe5a435340c7e9daecb9db7796edb904dfe558030b018b4ea85c7848d70dc7c798da4ed7ba89d17ff7ef06edbeb8da7f6363d8991a9e0d2a108fd97de55b1ed655350833fd3c383aa90eb1629aebc1c0c6e4812ba3ad2f5d494b71ca71cb687b7e1fa28aa9a45adae4e0f3e96eb29cc5a13b27f9bf2989b617fbf6b3efc4f2a016427d4bb2728d8b3f0c8caa79ea6200c7303a05b3ebc6a0d0f1dcd01d3d03c3b7f36bee80b202f828995bcff4d8244302bbe335610af8279006d92e0cdcd37135456acbfa17240c3b3ca53090c124913adc07df10306d0124fd18e2d049de2783c3defd8baf20df2825876bde260d910e3c193cb8b4db6e498835c580184eca5321685c97f7c2f42b7798679dddf2b02d1acc829f57e14e06b95b2ced543cef084f299795a424c15ef028590f5ba630b84bd5d69093ad662f23fed2c7559c2344057484b4c70dbd6d7e9f39fd452b47d44c298f2b1337e851ef31ef8737c9916c7cbeff51d072cba46f3e091463d89b692266a6060ec179804ab3c9a53dc0b00483224b30f9e897a1e8a0744c3f0db1f187092e4e6234d9de87a74dca2c0002a1e5ac7ffa2822c3d4d443fd5f1e5293b62181b175bd3234182943611bbd638445de9b6218f0f3a0a747b3dd91fb4431c808711a7c473a2f87252857755d362a259950e287d74634c5df9fc1c68fa0ce6b2fd54bc318fbc6f222bb5f2188ad28e7d1a0d16e09fde50c9529f6774fc2a6db5e9acf4660cf5fcc3034f79d140d6b6047a1da8a0662fc27d4343daa27d67415c09da58f833a1d0ec65d02bbdfe84ffde11334d1916adbb1da0b1a839219cd643941db220ac434e3b9739fc96f2b73cc38ab875aa9b86c65d96676c9575438d2a6f379b26c0accb122d06d99a77e9378dc1b0d1851a669c1fd99b082260d19a3007ddfc24a2ebf5d9bfbf37f3c29c268081f24b3d009c995c3bf8b0a0173429a6eba9e63b22ba336788d8c0d0c6ee218216bec9512b7c8bb9041e67c9be3c4f905109a71702ba9880381b54b3e2a69044ea2ae58ed96b5933aa0b2d6e1746a5248b5cbdc210cdca8da56fd2d2bb0c54dc70f1f43914ed8b474de4d5c4a949c0931ab4ec88caadc3f4876d2e715bd6832a6d835153b2d9a2b1a4ba1796264ad78ce85d31eaf81949d972f45a205e0ca7c9ed720cad4814de58eb8a2d2fec4d4de7194bd6568f87a27bd89c5b2d7006054e660ca88b99fc3990178e73244461871fd4c42d83b0d9bf270bc2097f8e3c2779496996bf14aedd9dbbb6a1df6131770484ae4ab1fe4b6cd6634153e97260f1422f3fbf119ab691bbcd4816caa939cc820fdd1073a4ed8735e844202d266e666e1aa95e65728300c5aa384a612daa615c13d11f984bbc5ccccf6307accd113214e5a6c71b9bae6ea0b16172a2f323b426b93bcc100050a1f2950526980a5b1bcbed4fd1c2640545c647a899ca5c2c9d5e4ed000000000000000000000000000000000000000000000000000000000a16253401fd210500d35fa056a754b9f0d4ece0b715ba082d353941fc91a159e08fa1209368b834c7729fa4760d2faf7d0e60b3bc506cdcef37ffb43c0d2faf2d363c575607a068a90f62143aced30aed9b64eaeffb73cbcb224c7ea7f9e67ff4a513adc93c5e1f31200a6c89256ef04c91339bc9b5ca5e0344610a8752813425cc8a3924525ed1c911b878edf8704e56ceb7f9d1e8be70c047a2b16427f69ec1789ec5908f485508e321e1e45a89564d21ad4135a358e7d98afd5f5b0d74a260f6d60bdd460924374e4f479c4986b566eb8d83f193113a90e5b20a7b9497ddc934bb9262e28b99d07390f0b257b25c90798dffceae8bde53bec4df33f21f40cbc234cdf5b17d8fda3af010c80af094b01659f5607ff525223e6b7372c6dfd4ee4713196728eebfdf17a4af854efa7ab8432b1fcf158f52895d404cd9226abe6183376b0786b47d9046ed8ec04102dce65542fb4719a227d420d3b7cea24f6309532ff4aab763047ea356ed648b4a7e6a015e8d0da46db11d32deede27b67023f03c598b0ad3e5aeac5f8e92366f9f3992b37c3e9db018c72ae173aea6bb73a405e128de9fcaeaf634a407fbf939b75a898e0b6939d27e57d977cb4a2a481dfff7dd0f62db6f4e70c33ecb444ed039b30051fa3a6b8e6eaee0fb0c04866d60741c0785f00b0eda1391fbbed4ff111496ed431a1801dc6569acf64334c09abc05e529cded1534c63ae085f562e06d2e2485cd5c52f66e969b1808e709206542d7bfad8afc38540c780a48d12e20a30bf9e94ed2ddae3337f1ba0d92043e292bc61bceee6c722527a5e95a3faa390940cecf48b673bf075874bea6e1ffb29c3897c96d7f6858565d764efc6fb3ed69da0698672a6e1d68d58e960a36ad7c41ef2cd7d8765d93394a5694028f9f24b0ab37ccf0f2299de5c50594385923dcc731ac52fe833fe0d83264a833890118f9a9ad9225b23e83d1e4704c4b434f3355d4e172cf25838196ff0654356d2fc25829a8f7394d054259dec2312e23bd99f7aabd8e1af3498f681a54180140c4ca5627474d17912b2f82bb2a9a1a089b2f4ee4ff60172e135f33b3508f3cb18f8dbfb02e30ffbadbf0cc91336f873502f0f830e40a71ffc06c6999929a93a5ca3e54c45c8ddd3a01a5bcdc92007030d0442df6c56cde3c7d77c631d50f4348b4bed38f48ac44e6c4c61f06a33b251b00d9fc1de77d682df3acc3a3e37d8557a50e04ac15bbf1ba37825f02fd058ef33ee7f75a318c8fe11978e46e7d75c9fdccb82dddff98751e2c4e57d8dd5ad273380d73a1d71dd0a345d7df3d1c1822514efecd09aec9eb1275ddf6b50ec95f26478ed83958d6635562f3c2c83e0d9ae2421451aea7bcf879af54eb944f6221484a735d904002b2a0b87f8dedde12378c26e9edebe6683e08687788b604f4fc9b0b2743ea6d9e9e5cc4383fae7d1f616fb9c9585785457f46afda39025300b812f0a96a2dc53947e4b72f07acba6493dbc30eefd11be110c69e781e7c0fe3f7fe251ec2afd2c785f912743cceb34cccf284cf5fc2e2bb8d818a281cf87ea45422ad3a202b72a19f8c8bd162d3794a889016e3655807e3011cc2b0f02571feb41f11ec989b757ea10b9a8a6efc7831dbf3d4bb64f5ab2b81fd9725b0ac1ce24a7a6eab5888bbec943e443c5d95971ed7c0d23425ae87091b821fef780a3a7aa28b788cfb8a4a1fe1dad3539d8cad6276faeee2aae3066f18cbab516c7934cfab4b8e2556f6b6069ed3cb688c5260514b04067d52f9242d264ac941905b12af72cb1f4e693636ee7d0d49d031fc9eff62ecd49d6b483b009ce47e1b382722ef9d9097a8c5624afc662279d04413b586d000000",
  "txid": "778794ec447a341ee747c9fc9927f1f884186e6f975fed563b80f30dac88e30e",
  "hash": "70c0c689efc1202d01ce2cb135d86e2fbd0e8ed44f8c4ff9b0b04e1b3de65c3b",
  "size": 5085,
  "vsize": 2278,
  "version": 1,
  "locktime": 109,
  "vin": [
    {
      "txid": "8b2c7c72ef70d5ea0b90d91d4ce549d2f04a0e58186b054f883ade314912b4e3",
      "vout": 1,
      "scriptSig": {
        "asm": "",
        "hex": ""
      },
      "txinwitness": [
        "b592c215b2ff9742d0380563e3e7be25a6b7edee0da06950aee0da6b9ab5595736fcfcda2cbaa32f6e5ae4d2e805beaa40e3f103c3dfe09ef15e23385515a2149daa2675e0ad1a970785479412dae37420449b59536fe174150a29dbb559ed907132bec52c22b9e878df2907b575803a6e12219e55f7e96a93658d7b684a9244d6d9558dcfccfe3b57180aab01c904eef7d638b640405608104f9b038d2abecfdd5434cadab58de03ed6df3dbf619921a7c2d54b61c3aee4c01e98c8a60db555cbbf7dd33ca13edb2d7201376d3e7ea1f1c6c354ef48fc91f2cf8a3c01f132bf6f4d29dfaf49d81491ffaba70137c263cbc264cc81c01e7cd8da31d3e8e009fa5275d708a54eaedf620a7fe8de3f59a6a2afffdb6a4d19127cb53e2655926139e81bc122cbb975ddee47dcc0917757a9a70154538ae61ee1904acb63f5348b4c753766cdbab91b7375f3ec1db2b3f325a5f56fb4aa762b200eb6700494a6c457b3800fd90b4f9eab5dfeb5457b9f287c92cd73d85c614e7fd2d94cdae43af5c6ba562d01611c1a06cc7956f2bbe0b8cb5ae430c9fffa00c328bb70059ae4205fcf07dbb19c2554e3a997d5f6c58c959013e5fe9e2c6d30b1c4a7079e8b9f075be2206352f86703db4c37c15055e90189a06cbb83b28f025d02ad0bd8099e269818ed461e44dcad1202da98cea9e0330b755d80dc88c2650768d811f7f51e3f9823f573196d6a515c88fdce314c5f6de0cbf6ee932b203032cb0a4b31e285a64f7d2c3d0edde89738ef6a22ffa8e1e6f4e1a0f1f5dd3d8452625604e7fd61304556ac13eb4ab1600d7df3b6c1da6c13923f73185b8abe21fedb3bbac2db6edd0905586d85542795a9243c27aaa88f12ca8fc13b385d04d56a9622dcef2a7d5c34f32e7bcdfa50a5aa8674c820d0efd443694b6e6a4d8542c2e70f00e5bdb4cd729112edff9dcca49df5e5b62605f3377df91f49cd1fa2d524a6f9a6c96cb392dc5b488060ae2b9b17813f5e3ff12598de958b575a92f68260a99e3156b1d0f511bb5716b1b3405f8b883516c50194e44bade287c662a36f379314a85a9b029f78fff7125987272a2ce511eb04a31a9bc1506bb8d3e0b9d29783cbee8ede833ef0ec79c137ae35359fe4b798c32c29c670d1ecfdaa770e931a786e1c754cdc9c55eb2a066471a33b69ed3552f52724c5e8a0e3cf3ccc27696bf0d29728b6177d4a5ee4789060515b1a1012383f7a0ca4d3625d7f8cbc39092981dfd743732300433da794cc618fadbfd6a2af77a5395b6982b9b30f085200e8f3dafd4b1787e86e50d4371447685a88e9a1f9b169a7f2c39516c4b7b0a3936e84344601d9818a3996828987c0fc6246092b9f46e8e47df7fbc917f0067071a4ce87f212c980e28fec4329c0d1c693795d8de2cfd9d6212e4786dc8cd523742d6d11b37f368aee4e26542915d630b6cb9ef1380f91bd3a756770a1a75b2dd956cc9cf42fc170344ac22800115f74256da3127a4a73aa5fbdf581c757e9199aa4706578256fefbb9d6773692173edae71d37cf9bb2c604bfb9efb6dde1b99b0dfdc59070ddffd480a2f154b8c296fad2ce4c55fa28a6522d535a65e283d58cac82d6db6b83ee9f73b17329513921394ba019d8bb551be2bfffc0aa3f557fbb315ef70b31a2f8a2844b88b3aadd2a4666ce97b740f335624bd42e4000ac72f2f5dd6d052aefa5009060ea9e982effdb439d31a524af27fd0f7a28fc86b988b99fcd7f5496e06d69e6d597955cda22b3544af0fbbb8c3a0c177f31e7ae8b73f11022a0daa4e17723abf931033acf9894da05f0380a98ede9bd0edc728a599a04bd0f6505ee37d727b126ed3d7c50b92cced8edf7c222d81741ce0ae569a65f3b5ea6a8f4cf14f6a72321cfe5a435340c7e9daecb9db7796edb904dfe558030b018b4ea85c7848d70dc7c798da4ed7ba89d17ff7ef06edbeb8da7f6363d8991a9e0d2a108fd97de55b1ed655350833fd3c383aa90eb1629aebc1c0c6e4812ba3ad2f5d494b71ca71cb687b7e1fa28aa9a45adae4e0f3e96eb29cc5a13b27f9bf2989b617fbf6b3efc4f2a016427d4bb2728d8b3f0c8caa79ea6200c7303a05b3ebc6a0d0f1dcd01d3d03c3b7f36bee80b202f828995bcff4d8244302bbe335610af8279006d92e0cdcd37135456acbfa17240c3b3ca53090c124913adc07df10306d0124fd18e2d049de2783c3defd8baf20df2825876bde260d910e3c193cb8b4db6e498835c580184eca5321685c97f7c2f42b7798679dddf2b02d1acc829f57e14e06b95b2ced543cef084f299795a424c15ef028590f5ba630b84bd5d69093ad662f23fed2c7559c2344057484b4c70dbd6d7e9f39fd452b47d44c298f2b1337e851ef31ef8737c9916c7cbeff51d072cba46f3e091463d89b692266a6060ec179804ab3c9a53dc0b00483224b30f9e897a1e8a0744c3f0db1f187092e4e6234d9de87a74dca2c0002a1e5ac7ffa2822c3d4d443fd5f1e5293b62181b175bd3234182943611bbd638445de9b6218f0f3a0a747b3dd91fb4431c808711a7c473a2f87252857755d362a259950e287d74634c5df9fc1c68fa0ce6b2fd54bc318fbc6f222bb5f2188ad28e7d1a0d16e09fde50c9529f6774fc2a6db5e9acf4660cf5fcc3034f79d140d6b6047a1da8a0662fc27d4343daa27d67415c09da58f833a1d0ec65d02bbdfe84ffde11334d1916adbb1da0b1a839219cd643941db220ac434e3b9739fc96f2b73cc38ab875aa9b86c65d96676c9575438d2a6f379b26c0accb122d06d99a77e9378dc1b0d1851a669c1fd99b082260d19a3007ddfc24a2ebf5d9bfbf37f3c29c268081f24b3d009c995c3bf8b0a0173429a6eba9e63b22ba336788d8c0d0c6ee218216bec9512b7c8bb9041e67c9be3c4f905109a71702ba9880381b54b3e2a69044ea2ae58ed96b5933aa0b2d6e1746a5248b5cbdc210cdca8da56fd2d2bb0c54dc70f1f43914ed8b474de4d5c4a949c0931ab4ec88caadc3f4876d2e715bd6832a6d835153b2d9a2b1a4ba1796264ad78ce85d31eaf81949d972f45a205e0ca7c9ed720cad4814de58eb8a2d2fec4d4de7194bd6568f87a27bd89c5b2d7006054e660ca88b99fc3990178e73244461871fd4c42d83b0d9bf270bc2097f8e3c2779496996bf14aedd9dbbb6a1df6131770484ae4ab1fe4b6cd6634153e97260f1422f3fbf119ab691bbcd4816caa939cc820fdd1073a4ed8735e844202d266e666e1aa95e65728300c5aa384a612daa615c13d11f984bbc5ccccf6307accd113214e5a6c71b9bae6ea0b16172a2f323b426b93bcc100050a1f2950526980a5b1bcbed4fd1c2640545c647a899ca5c2c9d5e4ed000000000000000000000000000000000000000000000000000000000a16253401",
        "00d35fa056a754b9f0d4ece0b715ba082d353941fc91a159e08fa1209368b834c7729fa4760d2faf7d0e60b3bc506cdcef37ffb43c0d2faf2d363c575607a068a90f62143aced30aed9b64eaeffb73cbcb224c7ea7f9e67ff4a513adc93c5e1f31200a6c89256ef04c91339bc9b5ca5e0344610a8752813425cc8a3924525ed1c911b878edf8704e56ceb7f9d1e8be70c047a2b16427f69ec1789ec5908f485508e321e1e45a89564d21ad4135a358e7d98afd5f5b0d74a260f6d60bdd460924374e4f479c4986b566eb8d83f193113a90e5b20a7b9497ddc934bb9262e28b99d07390f0b257b25c90798dffceae8bde53bec4df33f21f40cbc234cdf5b17d8fda3af010c80af094b01659f5607ff525223e6b7372c6dfd4ee4713196728eebfdf17a4af854efa7ab8432b1fcf158f52895d404cd9226abe6183376b0786b47d9046ed8ec04102dce65542fb4719a227d420d3b7cea24f6309532ff4aab763047ea356ed648b4a7e6a015e8d0da46db11d32deede27b67023f03c598b0ad3e5aeac5f8e92366f9f3992b37c3e9db018c72ae173aea6bb73a405e128de9fcaeaf634a407fbf939b75a898e0b6939d27e57d977cb4a2a481dfff7dd0f62db6f4e70c33ecb444ed039b30051fa3a6b8e6eaee0fb0c04866d60741c0785f00b0eda1391fbbed4ff111496ed431a1801dc6569acf64334c09abc05e529cded1534c63ae085f562e06d2e2485cd5c52f66e969b1808e709206542d7bfad8afc38540c780a48d12e20a30bf9e94ed2ddae3337f1ba0d92043e292bc61bceee6c722527a5e95a3faa390940cecf48b673bf075874bea6e1ffb29c3897c96d7f6858565d764efc6fb3ed69da0698672a6e1d68d58e960a36ad7c41ef2cd7d8765d93394a5694028f9f24b0ab37ccf0f2299de5c50594385923dcc731ac52fe833fe0d83264a833890118f9a9ad9225b23e83d1e4704c4b434f3355d4e172cf25838196ff0654356d2fc25829a8f7394d054259dec2312e23bd99f7aabd8e1af3498f681a54180140c4ca5627474d17912b2f82bb2a9a1a089b2f4ee4ff60172e135f33b3508f3cb18f8dbfb02e30ffbadbf0cc91336f873502f0f830e40a71ffc06c6999929a93a5ca3e54c45c8ddd3a01a5bcdc92007030d0442df6c56cde3c7d77c631d50f4348b4bed38f48ac44e6c4c61f06a33b251b00d9fc1de77d682df3acc3a3e37d8557a50e04ac15bbf1ba37825f02fd058ef33ee7f75a318c8fe11978e46e7d75c9fdccb82dddff98751e2c4e57d8dd5ad273380d73a1d71dd0a345d7df3d1c1822514efecd09aec9eb1275ddf6b50ec95f26478ed83958d6635562f3c2c83e0d9ae2421451aea7bcf879af54eb944f6221484a735d904002b2a0b87f8dedde12378c26e9edebe6683e08687788b604f4fc9b0b2743ea6d9e9e5cc4383fae7d1f616fb9c9585785457f46afda39025300b812f0a96a2dc53947e4b72f07acba6493dbc30eefd11be110c69e781e7c0fe3f7fe251ec2afd2c785f912743cceb34cccf284cf5fc2e2bb8d818a281cf87ea45422ad3a202b72a19f8c8bd162d3794a889016e3655807e3011cc2b0f02571feb41f11ec989b757ea10b9a8a6efc7831dbf3d4bb64f5ab2b81fd9725b0ac1ce24a7a6eab5888bbec943e443c5d95971ed7c0d23425ae87091b821fef780a3a7aa28b788cfb8a4a1fe1dad3539d8cad6276faeee2aae3066f18cbab516c7934cfab4b8e2556f6b6069ed3cb688c5260514b04067d52f9242d264ac941905b12af72cb1f4e693636ee7d0d49d031fc9eff62ecd49d6b483b009ce47e1b382722ef9d9097a8c5624afc662279d04413b58"
      ],
      "sequence": 4294967294
    }
  ],
  "vout": [
    {
      "value": 1.0,
      "n": 0,
      "scriptPubKey": {
        "asm": "OP_RETURN df0cd98ec731d577d52d7bdd52cd114461b020b294d4e4b7b29455a07b248232 d90991f8bc80cca95575cf1c7c77012672edf1e7020004a8f4b97f1d7a797214f929b1d89ca0ec897555ef3c5c57210652cdd1c722202488d4995f3d5a5952349949d1b8fcc08ce915358f5c3c37416632adb1a7424044e8b4f93f5d3a393254b969f198dce0acc93515af7c1c176146128d9187626064c894d91f7d1a191274598911783c004c29d5f54f9cfcf781a6f26d7167828084287439ff9dfaf9f29479a931581c206c09f5d56fbcdcd7a186d24d5147a2a0a4085419dfbddad9d2b419c951387c400c6995b50fdcbcb7c1e6b22d3127c2c0c4683479bfddbab9b2d439e971185c602c49b5952ffc9c97e1c6920d1107e2e0e44814599ffd9a9992f4d90991f8bc80cca95575cf1c7c77012672edf1e7020004a8f4b97f1d7a797214f929b1d89ca0ec897555ef3c5c57210652cdd1c722202488d4995f3d5a5952349949d1b8fcc08ce915358f5c3c37416632adb1a7424044e8b4f93f5d3a393254b969f198dce0acc93515af7c1c176146128d9187626064c894d91f7d1a191274598911783c004c29d5f54f9cfcf781a6f26d7167828084287439ff9dfaf9f29479a931581c206c09f5d56fbcdcd7a186d24d5147a2a0a4085419dfbddad9d2b419c951387c400c6995b50fdcbcb7c1e6b22d3127c2c0c4683479bfddbab9b2d439e971185c602c49b5952ffc9c97e1c6920d1107e2e0e44814599ffd9a9992f4d90991f8bc80cca95575cf1c7c77012672edf1e7020004a8f4b97f1d7a797214f929b1d89ca0ec897555ef3c5c57210652cdd1c722202488d4995f3d5a5952349949d1b8fcc08ce915358f5c3c37416632adb1a7424044e8b4f93f5d3a393254b969f198dce0acc93515af7c1c176146128d9187626064c894d91f7d1a191274598911783c004c29d5f54f9cfcf781a6f26d7167828084287439ff9dfaf9f29479a931581c206c09f5d56fbcdcd7a186d24d5147a2a0a4085419dfbddad9d2b419c951387c400c6995b50fdcbcb7c1e6b22d3127c2c0c4683479bfddbab9b2d439e971185c602c49b5952ffc9c97e1c6920d1107e2e0e44814599ffd9a9992f4d90991f8bc80cca95575cf1c7c77012672edf1e7020004a8f4b97f1d7a797214f929b1d89ca0ec897555ef3c5c57210652cdd1c722202488d4995f3d5a5952349949d1b8fcc08ce915358f5c3c37416632adb1a7424044e8b4f93f5d3a393254b969f198dce0acc93515af7c1c176146128d9187626064c894d91f7d1a191274598911783c004c29d5f54f9cfcf781a6f26d7167828084287439ff9dfaf9f29479a931581c206c09f5d56fbcdcd7a186d24d5147a2a0a4085419dfbddad9d2b419c951387c400c6995b50fdcbcb7c1e6b22d3127c2c0c4683479bfddbab9b2d439e971185c602c49b5952ffc9c97e1c6920d1107e2e0e44814599ffd9a9992f4d90991f8bc80cca95575cf1c7c77012672edf1e7020004a8f4b97f1d7a797214f929b1d89ca0ec897555ef3c5c57210652cdd1c722202488d4995f3d5a5952349949d1b8fcc08ce915358f5c3c37416632adb1a7424044e8b4f93f5d3a393254b969f198dce0acc93515af7c1c176146128d9187626064c894d91f7d1a191274598911783c004c29d5f54f9cfcf781a66a4824a1f1aacf251b3ef0fdfe08c6497aa6b8aaade4fa561f072864a9efc777",
        "hex": "6a20df0cd98ec731d577d52d7bdd52cd114461b020b294d4e4b7b29455a07b2482324db004d90991f8bc80cca95575cf1c7c77012672edf1e7020004a8f4b97f1d7a797214f929b1d89ca0ec897555ef3c5c57210652cdd1c722202488d4995f3d5a5952349949d1b8fcc08ce915358f5c3c37416632adb1a7424044e8b4f93f5d3a393254b969f198dce0acc93515af7c1c176146128d9187626064c894d91f7d1a191274598911783c004c29d5f54f9cfcf781a6f26d7167828084287439ff9dfaf9f29479a931581c206c09f5d56fbcdcd7a186d24d5147a2a0a4085419dfbddad9d2b419c951387c400c6995b50fdcbcb7c1e6b22d3127c2c0c4683479bfddbab9b2d439e971185c602c49b5952ffc9c97e1c6920d1107e2e0e44814599ffd9a9992f4d90991f8bc80cca95575cf1c7c77012672edf1e7020004a8f4b97f1d7a797214f929b1d89ca0ec897555ef3c5c57210652cdd1c722202488d4995f3d5a5952349949d1b8fcc08ce915358f5c3c37416632adb1a7424044e8b4f93f5d3a393254b969f198dce0acc93515af7c1c176146128d9187626064c894d91f7d1a191274598911783c004c29d5f54f9cfcf781a6f26d7167828084287439ff9dfaf9f29479a931581c206c09f5d56fbcdcd7a186d24d5147a2a0a4085419dfbddad9d2b419c951387c400c6995b50fdcbcb7c1e6b22d3127c2c0c4683479bfddbab9b2d439e971185c602c49b5952ffc9c97e1c6920d1107e2e0e44814599ffd9a9992f4d90991f8bc80cca95575cf1c7c77012672edf1e7020004a8f4b97f1d7a797214f929b1d89ca0ec897555ef3c5c57210652cdd1c722202488d4995f3d5a5952349949d1b8fcc08ce915358f5c3c37416632adb1a7424044e8b4f93f5d3a393254b969f198dce0acc93515af7c1c176146128d9187626064c894d91f7d1a191274598911783c004c29d5f54f9cfcf781a6f26d7167828084287439ff9dfaf9f29479a931581c206c09f5d56fbcdcd7a186d24d5147a2a0a4085419dfbddad9d2b419c951387c400c6995b50fdcbcb7c1e6b22d3127c2c0c4683479bfddbab9b2d439e971185c602c49b5952ffc9c97e1c6920d1107e2e0e44814599ffd9a9992f4d90991f8bc80cca95575cf1c7c77012672edf1e7020004a8f4b97f1d7a797214f929b1d89ca0ec897555ef3c5c57210652cdd1c722202488d4995f3d5a5952349949d1b8fcc08ce915358f5c3c37416632adb1a7424044e8b4f93f5d3a393254b969f198dce0acc93515af7c1c176146128d9187626064c894d91f7d1a191274598911783c004c29d5f54f9cfcf781a6f26d7167828084287439ff9dfaf9f29479a931581c206c09f5d56fbcdcd7a186d24d5147a2a0a4085419dfbddad9d2b419c951387c400c6995b50fdcbcb7c1e6b22d3127c2c0c4683479bfddbab9b2d439e971185c602c49b5952ffc9c97e1c6920d1107e2e0e44814599ffd9a9992f4d90991f8bc80cca95575cf1c7c77012672edf1e7020004a8f4b97f1d7a797214f929b1d89ca0ec897555ef3c5c57210652cdd1c722202488d4995f3d5a5952349949d1b8fcc08ce915358f5c3c37416632adb1a7424044e8b4f93f5d3a393254b969f198dce0acc93515af7c1c176146128d9187626064c894d91f7d1a191274598911783c004c29d5f54f9cfcf781a66a4824a1f1aacf251b3ef0fdfe08c6497aa6b8aaade4fa561f072864a9efc777",
        "type": "nulldata"
      }
    },
    {
      "value": 499988.8141,
      "n": 1,
      "scriptPubKey": {
        "asm": "1 5b7e44a4b7cf945ad9ea637b6d79f676c63cfea3ef8b3de29fafa4e67b753eea",
        "hex": "51205b7e44a4b7cf945ad9ea637b6d79f676c63cfea3ef8b3de29fafa4e67b753eea",
        "reqSigs": 1,
        "type": "witness_v1_scripthash",
        "addresses": [
          "3QJmnh"
        ]
      }
    }
  ],
  "blockhash": "9418e69333e129952491dcd6dc324ee50ca4a2e07f0678970cb85d951484494a",
  "confirmations": 1,
  "time": 1764177673,
  "blocktime": 1764177673
}