{
  "hex": "01000000000101307b81666c01180b55492c96a1d882c6228227976b4fbb07d8d0aa05db9d80f20000000000feffffff02e0ca1d7c792d00002251201964350f3864f2f3a14195dcf65ddc864a39e74baf8fe4ea9f4db3191618887900e1f50500000000fdd5046a20c5b907f38ce83e4e166e2852f3f2b95050635e581db615ffff38ddb11ac885054db00455a95795271c7b1e21eed80c98b3cf181f7bf5e7890f85c7544e60b36892c15a758977b5073c5b3e01cef82cb893ef383f5bd5c7a92fa5e7746e409348b2e17a15e917d5675c3b5e61ae984cd8f38f585f3bb5a7c94fc587140e20f328d2811a35c937f5477c1b7e418eb86cf8d3af787f1b9587e96fe5a7342e00d308f2a13ad529d715a79cfb9ea16e588c18334f989ffb7567098f0547d4cee033e81241daf509f73587bcdbbe814e78ac38136fb8bfdb554729af2567f4eec013c83261fa95699755e7dcbbdee12e18cc58730fd8dfbb352749cf4507948ea073a852019ab549b775c7fc9bfec10e38ec78532ff8ff9b150769ef6527b4ae8053887221ba55a95795271c7b1e21eed80c98b3cf181f7bf5e7890f85c7544e60b36892c15a758977b5073c5b3e01cef82cb893ef383f5bd5c7a92fa5e7746e409348b2e17a15e917d5675c3b5e61ae984cd8f38f585f3bb5a7c94fc587140e20f328d2811a35c937f5477c1b7e418eb86cf8d3af787f1b9587e96fe5a7342e00d308f2a13ad529d715a79cfb9ea16e588c18334f989ffb7567098f0547d4cee033e81241daf509f73587bcdbbe814e78ac38136fb8bfdb554729af2567f4eec013c83261fa95699755e7dcbbdee12e18cc58730fd8dfbb352749cf4507948ea073a852019ab549b775c7fc9bfec10e38ec78532ff8ff9b150769ef6527b4ae8053887221ba55a95795271c7b1e21eed80c98b3cf181f7bf5e7890f85c7544e60b36892c15a758977b5073c5b3e01cef82cb893ef383f5bd5c7a92fa5e7746e409348b2e17a15e917d5675c3b5e61ae984cd8f38f585f3bb5a7c94fc587140e20f328d2811a35c937f5477c1b7e418eb86cf8d3af787f1b9587e96fe5a7342e00d308f2a13ad529d715a79cfb9ea16e588c18334f989ffb7567098f0547d4cee033e81241daf509f73587bcdbbe814e78ac38136fb8bfdb554729af2567f4eec013c83261fa95699755e7dcbbdee12e18cc58730fd8dfbb352749cf4507948ea073a852019ab549b775c7fc9bfec10e38ec78532ff8ff9b150769ef6527b4ae8053887221ba55a95795271c7b1e21eed80c98b3cf181f7bf5e7890f85c7544e60b36892c15a758977b5073c5b3e01cef82cb893ef383f5bd5c7a92fa5e7746e409348b2e17a15e917d5675c3b5e61ae984cd8f38f585f3bb5a7c94fc587140e20f328d2811a35c937f5477c1b7e418eb86cf8d3af787f1b9587e96fe5a7342e00d308f2a13ad529d715a79cfb9ea16e588c18334f989ffb7567098f0547d4cee033e81241daf509f73587bcdbbe814e78ac38136fb8bfdb554729af2567f4eec013c83261fa95699755e7dcbbdee12e18cc58730fd8dfbb352749cf4507948ea073a852019ab549b775c7fc9bfec10e38ec78532ff8ff9b150769ef6527b4ae8053887221ba55a95795271c7b1e21eed80c98b3cf181f7bf5e7890f85c7544e60b36892c15a758977b5073c5b3e01cef82cb893ef383f5bd5c7a92fa5e7746e409348b2e17a15e917d5675c3b5e61ae984cd8f38f585f3bb5a7c94fc587140e20f328d2811a35c937f5477c1b7e418eb86cf8d3af787f1b9587e96fe5a7342e00d308f2a13ad529d715a79cfb9ea16e588c18334f988233ca8c5b51eeeb389ae6428bb5c1a6843a12cd3339d18292336a58512e31bf02fd75091b8ea3e27375f5f55d03ebf8578d5e444ae438a2f7fc987ab32b396ee8661a9e768f2d86cde38498b5b5d7b7ab7f2deb42d828094fd8c339babbb8c865aa239852d7f42b823f159706315ded855233c74f3eb888c57d47cdbf54671b50432725458b95c9da96eeac8606998b2f62034aa5864976f4693c58f66caf58b692f1cf8e0d090fc18bceeaef0ddfbad0720ae0a2682a07fc0582b9e47f53bba7ac8422d886f153c3ed975ff3d324cf168d3a13e5c392830c4d9c8ebea2c980629f7005f8b7c8f114136529294e2efc4fe1c9945848dd7136080a0538997edaa2eff717d7ce38a6afef08c00fa318c7fd1b32901ab28dc65926c34d8e3b220f9b30e1e1118d4a71b16e934a1c9ec294ceadd5dbf514ecb837c02d7c55e5a7505a34abe5ba5fc6813bddce0f7c03f473ebd2754730fdede3ac4b93bd57fb65cd375ffe85be0d331f5b7b69edbd6de9ab020a04d3c5a8c58dbdce41e142032f04eee2fb6cec3ef40478a7942eb87ef015bf4b10c76c4c63d30411beb2818f60c55038073c92967c5dcb337ff62a26ef6567f59c6d1c3267c3b963fd92556a24c87f3eeb2c3ab11d1c8c7a45caa67d8e3f0625c08ca2debca40b052d20ced1e3ed2b76299d9903418b987e0563c45137d85edce68b8875c2ffbd9dfd7b98a34746033476dd80f0feb8d078828b73c4c479f72bb872b6d398c37fd57583252580e8654d805f6d6d2a3d6d79d2ac57e587543de9c11cf141480f51c4607bfea513a71f8316472a64c6a26078ae1d2df4c3cb29785dbfe9bc7cfab8fcaa5190ddb48fdc0c6fc44db21d67266b37ef0fe9c8840471898b3949240e335017cbe6c927d6c4d5dfa47337fa5e83c156ab1df0d05e19af8aecbc669230974b61fe0e52723a667862f3e43329da8b79c05de5435488745ed4082195d4dbb084335dad1f536b72b58fba96db742199ce42be2d1d95987e34b1c0f6f6a21a3b7001e60e52d0e785c121df97c7c77fbaf3aa916342e99c2666dd0a14262cbefb698fec4554adfacc36078c1dcc155747c3f6fd951214abf2ae098bf4d40e7a073e8002e45fb5734252d118738b406e4f7862542ea64bf644c84674d29bb449c72fcad47e4e05fa9652c90e61e2f6a9b0ef916e9eb3a9878620581dcfd635fe9ea1f366b9c12b327a78992cc10f9771b2ee94f787264f115b57504fb9a0927f58639dde4b49496342dccae1bbd315f3f141081be9f6a606e4076d60bab605d6bd13fb4d8647533baf89affb289154926a419481786a789c0bb26f4fbf0fb098aa27d6d2dc14c0072d23779228742f710d380ba5b77c35f0e9485331ec6fc482317dd25718f3cd22c3851ea16056cc5b50b89a7d65d22712690aafdde7ad5fae72c88ce8b48144d06192a58ab693f2c9e7efa0eada2c7ad7782a79ef760e8a31174fc49c5936e455130746a52ee6246702e4d0539a3da309fea40848bf93f71654b1c3d79c35f6248f8fb816c19eca8424949bb5f6512d1dc73fe3ec3b09944c56bf76ca0932ae796550ab0d1ca6504953d005815d9876e8cb356246d75856fa79aae13c6c3f751ba4214a1f8159530eca7fb60aa48cf41e6c068152ccaaf1385beaf734101945be3f10c5e0e5e4b944d9cf6f5df8784c7c4c973919b5d46c004c1e6f42c882cacca464d5b3c0baa2b0043c3c94f18d6f69fa07cbf2ce80e451c4bcf54e5ab0c0aab003d959a538667cccc1ddad42b035ce856a896248ff470be2660fefe3f1653ac13f4641daf0e62b62577149936c23127b210be6fb27a156b4e0f8e4572dad0fc82cd364fddf45514b9bd10040b59d6bd28c57f77b64dc41c47ba127f0c5407e5cc4b253165adf817a4ddb5f1901cfc5139c0434bd2a4a14618e622a8d03de5fa276b10005f86c79974b44d96b6f87448f18fe8fc388adb12fa9ffa8afcdc52a15de48047fdccab5d1483fb19fc5f938eec7e8502e7d7f981eb31b71a9aa5c83006e5e8b11b032812833739427c72e80a0bac6fbd37b27171ab3cc194bf7367de732e2537a7843ccfa48ec9c477ab5e50588dd9ea00b684ab60a5952ae46baed678c856f2e10641c202fab4eeae4f18ab1da9d2aabbe520f26a7015a98a26d54f8743ad2fb4f05d589d9c812d8d5de1d7962da5bfe94f6d80dd75e37f4c35ae66fd37c34379440a25ebf6535323b41f0178cb622a83a9e0c9845ea189a7b9485863f45be1c212683f03a9180227160565cd4437241c1352a9b57f63dbd26ee81d11b66ca60aa04401af718dd87b83d7f0379e0a418276985dc65452787870275276ef01376a9da880572c52deea42c792263ca04178a5ac72217313cc5170ba5d355f80e8ad7295c8d7cd1602780eee5dae522b32872dfc2be610ff92e37f2e9a605e1626b3eb21066d98938d40033159fd2e8ae0c969b00284eded7d93658e17d4918b03cc1dbd6b6095b686b557ec840ad0c95068408a5de4fee7287a62d7826605b79ac241ef422c4a3f6dda3d35bad1acfac744b97521a22bc96a9706f288ce4ed35b2d47520a86a689ac765cf2ae40a0b2bcf45d3f34774496c85eac9467ca919718d75f8ea48e3a9394cefa42bd6d99a060e1a62f629bf6651cc1da72a9785d3d7e518643f2fa39ac7840817a32b5235c2d57c8315b94b47095ce410ec46340024b45c2cc0d6b8a3d8fcb84cff04b75fe0222951d3a79cd9102dec676667adff3027ccae0cc8363ab629331f115282c2388cdfdc45a9dcaeb88ecca357b466e354e314969da62b7b316c9d7d39c3fb2a4e33f747a8d7f4fbd44cba7b504c2fd26bd3f6b861790e66ea65da1639df50fc56d9add53809079abef12783694e5003e24fdbba53a9daa87b242ce40ce9320a1cb18007fbb79a1903e917e68fdf6a32f1b9a9062d339265e1b8131a5d9d465b6a3292453842008d3d0b6d3e9daf0ad96f8895d5a01886d9eeb1f77f6a5a35feb9e8e05b23c9c493e2c2c021fd01ce49c82fe5001efb0fa58490cb8afcc7edec9eb3527ae22e2192bc8fc29418d731f108e0cbe63007a04475faca25e8470cf7c9859220488e955a4bd85dc49ad6dbe21b0392bbcb6cc4b570a6100bb26fa8c00b64b430d00a47848aa0bc4ee1aec33ada352ed9ef65414300cdf03b9827aa291b92ad221e3520ce09b0730ea5fa96b84d967291751e2b717dec50c665e87be500dba59657488636d0b2301c555495ebbfe94ca73878bd9c1c1af4feac1a04cb58cd658ed764adf1840cbcc814e3b4399f777e90a8f1fc248bd31059504300011bb6e9deb2f3c5c36e4d65aa00bdf2113528363c41475f69858a9cc2edf3fa2a2e445e637fa4a7a8afbfc2ca424e64808a94b0b3b6ddf005060d20393e447f8aa4a7afbef4000000000000000000000000000000000000000000000000000000000e1b263401fd210500182db658bead60c3ceb79a901fc854ff55f5a5cd99fe8cd8381972369418d1fc84b7fb428398bbc86e9d7c6e13318c145f8072e458853707507541450cb28332dc62a43d64b843291311d52b1dd8dd1dd485b0bf7c0417ae748f74be1afbdeddb4d958ec20e4adc8394faaed48b2606a63598c79f5432acab165626c561bd684f7855cfc77aa0254724d4bf99af65a2f61095ab607e9cd46fefeb8d1d6247364de96a48cb78fc671580ff697cd260e3336ed3b00e191d28e32fdb81dcb6008bf6b654b472e6c7ff577b886ff977903d6f8c4884834d34f560d4d973ea0b14e50822feabf0203bea5092fb5cf08b5ec8d5d0a39030ade121f2a94cfa0e2b39a5b97cc4ea19bf68db12d29fa6ffcfa644040d5571f789724d3b9761520d014de0592d31b2b7b5861f5ddc2305c38135f64706dc43cad71bdd3df8686e72a6c79916443bce2705e67279ba0c30e702e95b41fd0162f5de7c4061aac822c7e333983875d1bc75d963718ad27d90d3ad5cd1718b6df7480f3e4ea3f261c29be7ca14ec2838cf42aaec5fb233543f6a74683cac24d756d505a05e469014b23f12a53cbfc108a57680a1f38dcea45d0fe2107cb007ad4dcce4b842b815b548890fc9117c73c660f140ce46fbfe5f8f7139de9b6ae721bd0d9bb8bdaa4053eff6716b947dea77168af1c2fda93ba7be7cfaa539bac2ce5de1dd20c2e3eec7371bc9cf2faf4ac64300d4bf1b318beeb3592cf7088fe7e2a6d408f54f8e6551c5333cd3d4aa1e1acb64e8d560857024767854684f22b36250a8952232d233c562890ac1c510008a5d1fdcd8edcc8bc1b00d772a4db0ed4a9f9a43cd54c386ab0a1172e8d12ec29e92bf638a95b79702b47a342ab917c31bf44f65ecbbeaf3d8032079c54aa7363b44bb9b8808cd132b85b84014522ce775da1f2bc4cad66d77871cc433c7f672cf9d3883d63841e759976ada051ec5cf58cbed9d04f6f68f93a74a553a4644270091eea11f26b77a4ce0d84c9e64b87a2bb8a09d2216aca4a2337e5eb6e874083d660a7d7e5414998b7ff40408936d0a593c920adbe931b41a57a42038de670b06b86776f7dbf555bdba2a3ab8163d73077106e7de806a459cb90b8225ae33c6b11ca3d732071749005fe8fdde6b3a731a31193dc1bfed0e8e9e26c3e015263be2e4dd2211c2eafedaa3a68d69d641dd194bfc4812e5e24fbf60099586832e2ec496e8d28ceb060c3ca6ec167ccd047c4d5fbd77f7a49ab1f7a002d676c9696392162240f01fb86baf1fb47f34cb5ce69dc99d4d1e56cbd1f199e680fd29442a0b3b7c7c90f5ec44bd64c94b8b926c524b98a96df85d585004248324e2fb7a323559d0acdb60dccf8e34f0199be248d1b9f5b1a787abdc6dc94a6feee8339b5cb86a781dc285707ac652c60a470b30571903457e23a32a1bf3460e105c4e4dca7f3c4252d0e6079398a11750550c64107e799e34d5b7da8cbc31de798e3fb0e7fc6aebf7c12a29f699a8684c0e36408afc4feeda33b392098a4ab12671722fa09b78d5a829e0fe8896ce8edaa8268167ab894d7300f352c586581d27c451af578eba74ce10d4dfb3050edcfda3cf28d7889bcaf8a4000a82d58479e9b2523914005dbd76ab9267e104ddb514ec1eba92e6a37aa6df8eda8f34beb69cc951e2e3fba0b675bb60691b3762142bab49adbf0dc228982e218fd74d31db5018215f63b2b97ce2612503fa00ab4a96167d7054e3ed6aa734977e0d59dfc1aeb83c888af629442604251b8bd0375cb176835594feb539e5f506a0fe84d7e2083ad55b86bf66602145c601b50bba1fb50e761f897945d42d24f1332f0ee328501476067000000",
  "txid": "74aa0d875d31479a0cb41f7cf2ad2ce8d36572dde676319a30359577a165a6c4",
  "hash": "80a395d8a420945a54edfec6d1f345c17afc4addc05174bbbcb9731105a34519",
  "size": 5085,
  "vsize": 2278,
  "version": 1,
  "locktime": 103,
  "vin": [
    {
      "txid": "f2809ddb05aad0d807bb4f6b97278222c682d8a1962c49550b18016c66817b30",
      "vout": 0,
      "scriptSig": {
        "asm": "",
        "hex": ""
      },
      "txinwitness": [
        "1b8ea3e27375f5f55d03ebf8578d5e444ae438a2f7fc987ab32b396ee8661a9e768f2d86cde38498b5b5d7b7ab7f2deb42d828094fd8c339babbb8c865aa239852d7f42b823f159706315ded855233c74f3eb888c57d47cdbf54671b50432725458b95c9da96eeac8606998b2f62034aa5864976f4693c58f66caf58b692f1cf8e0d090fc18bceeaef0ddfbad0720ae0a2682a07fc0582b9e47f53bba7ac8422d886f153c3ed975ff3d324cf168d3a13e5c392830c4d9c8ebea2c980629f7005f8b7c8f114136529294e2efc4fe1c9945848dd7136080a0538997edaa2eff717d7ce38a6afef08c00fa318c7fd1b32901ab28dc65926c34d8e3b220f9b30e1e1118d4a71b16e934a1c9ec294ceadd5dbf514ecb837c02d7c55e5a7505a34abe5ba5fc6813bddce0f7c03f473ebd2754730fdede3ac4b93bd57fb65cd375ffe85be0d331f5b7b69edbd6de9ab020a04d3c5a8c58dbdce41e142032f04eee2fb6cec3ef40478a7942eb87ef015bf4b10c76c4c63d30411beb2818f60c55038073c92967c5dcb337ff62a26ef6567f59c6d1c3267c3b963fd92556a24c87f3eeb2c3ab11d1c8c7a45caa67d8e3f0625c08ca2debca40b052d20ced1e3ed2b76299d9903418b987e0563c45137d85edce68b8875c2ffbd9dfd7b98a34746033476dd80f0feb8d078828b73c4c479f72bb872b6d398c37fd57583252580e8654d805f6d6d2a3d6d79d2ac57e587543de9c11cf141480f51c4607bfea513a71f8316472a64c6a26078ae1d2df4c3cb29785dbfe9bc7cfab8fcaa5190ddb48fdc0c6fc44db21d67266b37ef0fe9c8840471898b3949240e335017cbe6c927d6c4d5dfa47337fa5e83c156ab1df0d05e19af8aecbc669230974b61fe0e52723a667862f3e43329da8b79c05de5435488745ed4082195d4dbb084335dad1f536b72b58fba96db742199ce42be2d1d95987e34b1c0f6f6a21a3b7001e60e52d0e785c121df97c7c77fbaf3aa916342e99c2666dd0a14262cbefb698fec4554adfacc36078c1dcc155747c3f6fd951214abf2ae098bf4d40e7a073e8002e45fb5734252d118738b406e4f7862542ea64bf644c84674d29bb449c72fcad47e4e05fa9652c90e61e2f6a9b0ef916e9eb3a9878620581dcfd635fe9ea1f366b9c12b327a78992cc10f9771b2ee94f787264f115b57504fb9a0927f58639dde4b49496342dccae1bbd315f3f141081be9f6a606e4076d60bab605d6bd13fb4d8647533baf89affb289154926a419481786a789c0bb26f4fbf0fb098aa27d6d2dc14c0072d23779228742f710d380ba5b77c35f0e9485331ec6fc482317dd25718f3cd22c3851ea16056cc5b50b89a7d65d22712690aafdde7ad5fae72c88ce8b48144d06192a58ab693f2c9e7efa0eada2c7ad7782a79ef760e8a31174fc49c5936e455130746a52ee6246702e4d0539a3da309fea40848bf93f71654b1c3d79c35f6248f8fb816c19eca8424949bb5f6512d1dc73fe3ec3b09944c56bf76ca0932ae796550ab0d1ca6504953d005815d9876e8cb356246d75856fa79aae13c6c3f751ba4214a1f8159530eca7fb60aa48cf41e6c068152ccaaf1385beaf734101945be3f10c5e0e5e4b944d9cf6f5df8784c7c4c973919b5d46c004c1e6f42c882cacca464d5b3c0baa2b0043c3c94f18d6f69fa07cbf2ce80e451c4bcf54e5ab0c0aab003d959a538667cccc1ddad42b035ce856a896248ff470be2660fefe3f1653ac13f4641daf0e62b62577149936c23127b210be6fb27a156b4e0f8e4572dad0fc82cd364fddf45514b9bd10040b59d6bd28c57f77b64dc41c47ba127f0c5407e5cc4b253165adf817a4ddb5f1901cfc5139c0434bd2a4a14618e622a8d03de5fa276b10005f86c79974b44d96b6f87448f18fe8fc388adb12fa9ffa8afcdc52a15de48047fdccab5d1483fb19fc5f938eec7e8502e7d7f981eb31b71a9aa5c83006e5e8b11b032812833739427c72e80a0bac6fbd37b27171ab3cc194bf7367de732e2537a7843ccfa48ec9c477ab5e50588dd9ea00b684ab60a5952ae46baed678c856f2e10641c202fab4eeae4f18ab1da9d2aabbe520f26a7015a98a26d54f8743ad2fb4f05d589d9c812d8d5de1d7962da5bfe94f6d80dd75e37f4c35ae66fd37c34379440a25ebf6535323b41f0178cb622a83a9e0c9845ea189a7b9485863f45be1c212683f03a9180227160565cd4437241c1352a9b57f63dbd26ee81d11b66ca60aa04401af718dd87b83d7f0379e0a418276985dc65452787870275276ef01376a9da880572c52deea42c792263ca04178a5ac72217313cc5170ba5d355f80e8ad7295c8d7cd1602780eee5dae522b32872dfc2be610ff92e37f2e9a605e1626b3eb21066d98938d40033159fd2e8ae0c969b00284eded7d93658e17d4918b03cc1dbd6b6095b686b557ec840ad0c95068408a5de4fee7287a62d7826605b79ac241ef422c4a3f6dda3d35bad1acfac744b97521a22bc96a9706f288ce4ed35b2d47520a86a689ac765cf2ae40a0b2bcf45d3f34774496c85eac9467ca919718d75f8ea48e3a9394cefa42bd6d99a060e1a62f629bf6651cc1da72a9785d3d7e518643f2fa39ac7840817a32b5235c2d57c8315b94b47095ce410ec46340024b45c2cc0d6b8a3d8fcb84cff04b75fe0222951d3a79cd9102dec676667adff3027ccae0cc8363ab629331f115282c2388cdfdc45a9dcaeb88ecca357b466e354e314969da62b7b316c9d7d39c3fb2a4e33f747a8d7f4fbd44cba7b504c2fd26bd3f6b861790e66ea65da1639df50fc56d9add53809079abef12783694e5003e24fdbba53a9daa87b242ce40ce9320a1cb18007fbb79a1903e917e68fdf6a32f1b9a9062d339265e1b8131a5d9d465b6a3292453842008d3d0b6d3e9daf0ad96f8895d5a01886d9eeb1f77f6a5a35feb9e8e05b23c9c493e2c2c021fd01ce49c82fe5001efb0fa58490cb8afcc7edec9eb3527ae22e2192bc8fc29418d731f108e0cbe63007a04475faca25e8470cf7c9859220488e955a4bd85dc49ad6dbe21b0392bbcb6cc4b570a6100bb26fa8c00b64b430d00a47848aa0bc4ee1aec33ada352ed9ef65414300cdf03b9827aa291b92ad221e3520ce09b0730ea5fa96b84d967291751e2b717dec50c665e87be500dba59657488636d0b2301c555495ebbfe94ca73878bd9c1c1af4feac1a04cb58cd658ed764adf1840cbcc814e3b4399f777e90a8f1fc248bd31059504300011bb6e9deb2f3c5c36e4d65aa00bdf2113528363c41475f69858a9cc2edf3fa2a2e445e637fa4a7a8afbfc2ca424e64808a94b0b3b6ddf005060d20393e447f8aa4a7afbef4000000000000000000000000000000000000000000000000000000000e1b263401",
        "00182db658bead60c3ceb79a901fc854ff55f5a5cd99fe8cd8381972369418d1fc84b7fb428398bbc86e9d7c6e13318c145f8072e458853707507541450cb28332dc62a43d64b843291311d52b1dd8dd1dd485b0bf7c0417ae748f74be1afbdeddb4d958ec20e4adc8394faaed48b2606a63598c79f5432acab165626c561bd684f7855cfc77aa0254724d4bf99af65a2f61095ab607e9cd46fefeb8d1d6247364de96a48cb78fc671580ff697cd260e3336ed3b00e191d28e32fdb81dcb6008bf6b654b472e6c7ff577b886ff977903d6f8c4884834d34f560d4d973ea0b14e50822feabf0203bea5092fb5cf08b5ec8d5d0a39030ade121f2a94cfa0e2b39a5b97cc4ea19bf68db12d29fa6ffcfa644040d5571f789724d3b9761520d014de0592d31b2b7b5861f5ddc2305c38135f64706dc43cad71bdd3df8686e72a6c79916443bce2705e67279ba0c30e702e95b41fd0162f5de7c4061aac822c7e333983875d1bc75d963718ad27d90d3ad5cd1718b6df7480f3e4ea3f261c29be7ca14ec2838cf42aaec5fb233543f6a74683cac24d756d505a05e469014b23f12a53cbfc108a57680a1f38dcea45d0fe2107cb007ad4dcce4b842b815b548890fc9117c73c660f140ce46fbfe5f8f7139de9b6ae721bd0d9bb8bdaa4053eff6716b947dea77168af1c2fda93ba7be7cfaa539bac2ce5de1dd20c2e3eec7371bc9cf2faf4ac64300d4bf1b318beeb3592cf7088fe7e2a6d408f54f8e6551c5333cd3d4aa1e1acb64e8d560857024767854684f22b36250a8952232d233c562890ac1c510008a5d1fdcd8edcc8bc1b00d772a4db0ed4a9f9a43cd54c386ab0a1172e8d12ec29e92bf638a95b79702b47a342ab917c31bf44f65ecbbeaf3d8032079c54aa7363b44bb9b8808cd132b85b84014522ce775da1f2bc4cad66d77871cc433c7f672cf9d3883d63841e759976ada051ec5cf58cbed9d04f6f68f93a74a553a4644270091eea11f26b77a4ce0d84c9e64b87a2bb8a09d2216aca4a2337e5eb6e874083d660a7d7e5414998b7ff40408936d0a593c920adbe931b41a57a42038de670b06b86776f7dbf555bdba2a3ab8163d73077106e7de806a459cb90b8225ae33c6b11ca3d732071749005fe8fdde6b3a731a31193dc1bfed0e8e9e26c3e015263be2e4dd2211c2eafedaa3a68d69d641dd194bfc4812e5e24fbf60099586832e2ec496e8d28ceb060c3ca6ec167ccd047c4d5fbd77f7a49ab1f7a002d676c9696392162240f01fb86baf1fb47f34cb5ce69dc99d4d1e56cbd1f199e680fd29442a0b3b7c7c90f5ec44bd64c94b8b926c524b98a96df85d585004248324e2fb7a323559d0acdb60dccf8e34f0199be248d1b9f5b1a787abdc6dc94a6feee8339b5cb86a781dc285707ac652c60a470b30571903457e23a32a1bf3460e105c4e4dca7f3c4252d0e6079398a11750550c64107e799e34d5b7da8cbc31de798e3fb0e7fc6aebf7c12a29f699a8684c0e36408afc4feeda33b392098a4ab12671722fa09b78d5a829e0fe8896ce8edaa8268167ab894d7300f352c586581d27c451af578eba74ce10d4dfb3050edcfda3cf28d7889bcaf8a4000a82d58479e9b2523914005dbd76ab9267e104ddb514ec1eba92e6a37aa6df8eda8f34beb69cc951e2e3fba0b675bb60691b3762142bab49adbf0dc228982e218fd74d31db5018215f63b2b97ce2612503fa00ab4a96167d7054e3ed6aa734977e0d59dfc1aeb83c888af629442604251b8bd0375cb176835594feb539e5f506a0fe84d7e2083ad55b86bf66602145c601b50bba1fb50e761f897945d42d24f1332f0ee3285014760"
      ],
      "sequence": 4294967294
    }
  ],
  "vout": [
    {
      "value": 499997.9662,
      "n": 0,
      "scriptPubKey": {
        "asm": "1 1964350f3864f2f3a14195dcf65ddc864a39e74baf8fe4ea9f4db31916188879",
        "hex": "51201964350f3864f2f3a14195dcf65ddc864a39e74baf8fe4ea9f4db31916188879",
        "reqSigs": 1,
        "type": "witness_v1_scripthash",
        "addresses": [
          "3QJmnh"
        ]
      }
    },
    {
      "value": 1.0,
      "n": 1,
      "scriptPubKey": {
        "asm": "OP_RETURN c5b907f38ce83e4e166e2852f3f2b95050635e581db615ffff38ddb11ac88505 55a95795271c7b1e21eed80c98b3cf181f7bf5e7890f85c7544e60b36892c15a758977b5073c5b3e01cef82cb893ef383f5bd5c7a92fa5e7746e409348b2e17a15e917d5675c3b5e61ae984cd8f38f585f3bb5a7c94fc587140e20f328d2811a35c937f5477c1b7e418eb86cf8d3af787f1b9587e96fe5a7342e00d308f2a13ad529d715a79cfb9ea16e588c18334f989ffb7567098f0547d4cee033e81241daf509f73587bcdbbe814e78ac38136fb8bfdb554729af2567f4eec013c83261fa95699755e7dcbbdee12e18cc58730fd8dfbb352749cf4507948ea073a852019ab549b775c7fc9bfec10e38ec78532ff8ff9b150769ef6527b4ae8053887221ba55a95795271c7b1e21eed80c98b3cf181f7bf5e7890f85c7544e60b36892c15a758977b5073c5b3e01cef82cb893ef383f5bd5c7a92fa5e7746e409348b2e17a15e917d5675c3b5e61ae984cd8f38f585f3bb5a7c94fc587140e20f328d2811a35c937f5477c1b7e418eb86cf8d3af787f1b9587e96fe5a7342e00d308f2a13ad529d715a79cfb9ea16e588c18334f989ffb7567098f0547d4cee033e81241daf509f73587bcdbbe814e78ac38136fb8bfdb554729af2567f4eec013c83261fa95699755e7dcbbdee12e18cc58730fd8dfbb352749cf4507948ea073a852019ab549b775c7fc9bfec10e38ec78532ff8ff9b150769ef6527b4ae8053887221ba55a95795271c7b1e21eed80c98b3cf181f7bf5e7890f85c7544e60b36892c15a758977b5073c5b3e01cef82cb893ef383f5bd5c7a92fa5e7746e409348b2e17a15e917d5675c3b5e61ae984cd8f38f585f3bb5a7c94fc587140e20f328d2811a35c937f5477c1b7e418eb86cf8d3af787f1b9587e96fe5a7342e00d308f2a13ad529d715a79cfb9ea16e588c18334f989ffb7567098f0547d4cee033e81241daf509f73587bcdbbe814e78ac38136fb8bfdb554729af2567f4eec013c83261fa95699755e7dcbbdee12e18cc58730fd8dfbb352749cf4507948ea073a852019ab549b775c7fc9bfec10e38ec78532ff8ff9b150769ef6527b4ae8053887221ba55a95795271c7b1e21eed80c98b3cf181f7bf5e7890f85c7544e60b36892c15a758977b5073c5b3e01cef82cb893ef383f5bd5c7a92fa5e7746e409348b2e17a15e917d5675c3b5e61ae984cd8f38f585f3bb5a7c94fc587140e20f328d2811a35c937f5477c1b7e418eb86cf8d3af787f1b9587e96fe5a7342e00d308f2a13ad529d715a79cfb9ea16e588c18334f989ffb7567098f0547d4cee033e81241daf509f73587bcdbbe814e78ac38136fb8bfdb554729af2567f4eec013c83261fa95699755e7dcbbdee12e18cc58730fd8dfbb352749cf4507948ea073a852019ab549b775c7fc9bfec10e38ec78532ff8ff9b150769ef6527b4ae8053887221ba55a95795271c7b1e21eed80c98b3cf181f7bf5e7890f85c7544e60b36892c15a758977b5073c5b3e01cef82cb893ef383f5bd5c7a92fa5e7746e409348b2e17a15e917d5675c3b5e61ae984cd8f38f585f3bb5a7c94fc587140e20f328d2811a35c937f5477c1b7e418eb86cf8d3af787f1b9587e96fe5a7342e00d308f2a13ad529d715a79cfb9ea16e588c18334f988233ca8c5b51eeeb389ae6428bb5c1a6843a12cd3339d18292336a58512e31bf",
        "hex": "6a20c5b907f38ce83e4e166e2852f3f2b95050635e581db615ffff38ddb11ac885054db00455a95795271c7b1e21eed80c98b3cf181f7bf5e7890f85c7544e60b36892c15a758977b5073c5b3e01cef82cb893ef383f5bd5c7a92fa5e7746e409348b2e17a15e917d5675c3b5e61ae984cd8f38f585f3bb5a7c94fc587140e20f328d2811a35c937f5477c1b7e418eb86cf8d3af787f1b9587e96fe5a7342e00d308f2a13ad529d715a79cfb9ea16e588c18334f989ffb7567098f0547d4cee033e81241daf509f73587bcdbbe814e78ac38136fb8bfdb554729af2567f4eec013c83261fa95699755e7dcbbdee12e18cc58730fd8dfbb352749cf4507948ea073a852019ab549b775c7fc9bfec10e38ec78532ff8ff9b150769ef6527b4ae8053887221ba55a95795271c7b1e21eed80c98b3cf181f7bf5e7890f85c7544e60b36892c15a758977b5073c5b3e01cef82cb893ef383f5bd5c7a92fa5e7746e409348b2e17a15e917d5675c3b5e61ae984cd8f38f585f3bb5a7c94fc587140e20f328d2811a35c937f5477c1b7e418eb86cf8d3af787f1b9587e96fe5a7342e00d308f2a13ad529d715a79cfb9ea16e588c18334f989ffb7567098f0547d4cee033e81241daf509f73587bcdbbe814e78ac38136fb8bfdb554729af2567f4eec013c83261fa95699755e7dcbbdee12e18cc58730fd8dfbb352749cf4507948ea073a852019ab549b775c7fc9bfec10e38ec78532ff8ff9b150769ef6527b4ae8053887221ba55a95795271c7b1e21eed80c98b3cf181f7bf5e7890f85c7544e60b36892c15a758977b5073c5b3e01cef82cb893ef383f5bd5c7a92fa5e7746e409348b2e17a15e917d5675c3b5e61ae984cd8f38f585f3bb5a7c94fc587140e20f328d2811a35c937f5477c1b7e418eb86cf8d3af787f1b9587e96fe5a7342e00d308f2a13ad529d715a79cfb9ea16e588c18334f989ffb7567098f0547d4cee033e81241daf509f73587bcdbbe814e78ac38136fb8bfdb554729af2567f4eec013c83261fa95699755e7dcbbdee12e18cc58730fd8dfbb352749cf4507948ea073a852019ab549b775c7fc9bfec10e38ec78532ff8ff9b150769ef6527b4ae8053887221ba55a95795271c7b1e21eed80c98b3cf181f7bf5e7890f85c7544e60b36892c15a758977b5073c5b3e01cef82cb893ef383f5bd5c7a92fa5e7746e409348b2e17a15e917d5675c3b5e61ae984cd8f38f585f3bb5a7c94fc587140e20f328d2811a35c937f5477c1b7e418eb86cf8d3af787f1b9587e96fe5a7342e00d308f2a13ad529d715a79cfb9ea16e588c18334f989ffb7567098f0547d4cee033e81241daf509f73587bcdbbe814e78ac38136fb8bfdb554729af2567f4eec013c83261fa95699755e7dcbbdee12e18cc58730fd8dfbb352749cf4507948ea073a852019ab549b775c7fc9bfec10e38ec78532ff8ff9b150769ef6527b4ae8053887221ba55a95795271c7b1e21eed80c98b3cf181f7bf5e7890f85c7544e60b36892c15a758977b5073c5b3e01cef82cb893ef383f5bd5c7a92fa5e7746e409348b2e17a15e917d5675c3b5e61ae984cd8f38f585f3bb5a7c94fc587140e20f328d2811a35c937f5477c1b7e418eb86cf8d3af787f1b9587e96fe5a7342e00d308f2a13ad529d715a79cfb9ea16e588c18334f988233ca8c5b51eeeb389ae6428bb5c1a6843a12cd3339d18292336a58512e31bf",
        "type": "nulldata"
      }
    }
  ],
  "blockhash": "15af9b025c636b87e0a10c18a1a8de0e5f3c2069ad563b293161176d75df89a4",
  "confirmations": 1,
  "time": 1764174659,
  "blocktime": 1764174659
}