{
  "hex": "01000000000101c62be5a4399469e5ba840c179b2c1ee6adbb1b6428b4525b265555b5b84fbd8d0000000000feffffff0200e1f50500000000fdd5046a203155ed00242cb54a2661d728faf7236fb07653716adb89d56f64f74adeeb89404db004cf08233279b484e7f0a5b448277266fb91dd8548d16908229f42cdf465d76f6bef2803125994a4c7d0859468075246dbb1fda568f1492802bf62edd445f74f4b8f48637239f4c4a7b0e5f408673226bbd19dc50891294862df028db425972f2baf68435219d4e48790c5d4284712069bf1bde528b1096842ff22ad9405b70f0b4f88a3b2f9340467702534c8a7f2e67b115d05c851e988a21fc24d74e557efeb6fa88392d9142447500514e887d2c65b317d25e871c9a8823fe26d54c577cfcb0fc8e3f2b974442730657488e7b2a63b511d458811a9c8e25f820d34a517afab2fe8c3d299546407104554a8c792861b713d65a83189e8c27fa22d1485378f8bcf08233279b484e7f0a5b448277266fb91dd8548d16908229f42cdf465d76f6bef2803125994a4c7d0859468075246dbb1fda568f1492802bf62edd445f74f4b8f48637239f4c4a7b0e5f408673226bbd19dc50891294862df028db425972f2baf68435219d4e48790c5d4284712069bf1bde528b1096842ff22ad9405b70f0b4f88a3b2f9340467702534c8a7f2e67b115d05c851e988a21fc24d74e557efeb6fa88392d9142447500514e887d2c65b317d25e871c9a8823fe26d54c577cfcb0fc8e3f2b974442730657488e7b2a63b511d458811a9c8e25f820d34a517afab2fe8c3d299546407104554a8c792861b713d65a83189e8c27fa22d1485378f8bcf08233279b484e7f0a5b448277266fb91dd8548d16908229f42cdf465d76f6bef2803125994a4c7d0859468075246dbb1fda568f1492802bf62edd445f74f4b8f48637239f4c4a7b0e5f408673226bbd19dc50891294862df028db425972f2baf68435219d4e48790c5d4284712069bf1bde528b1096842ff22ad9405b70f0b4f88a3b2f9340467702534c8a7f2e67b115d05c851e988a21fc24d74e557efeb6fa88392d9142447500514e887d2c65b317d25e871c9a8823fe26d54c577cfcb0fc8e3f2b974442730657488e7b2a63b511d458811a9c8e25f820d34a517afab2fe8c3d299546407104554a8c792861b713d65a83189e8c27fa22d1485378f8bcf08233279b484e7f0a5b448277266fb91dd8548d16908229f42cdf465d76f6bef2803125994a4c7d0859468075246dbb1fda568f1492802bf62edd445f74f4b8f48637239f4c4a7b0e5f408673226bbd19dc50891294862df028db425972f2baf68435219d4e48790c5d4284712069bf1bde528b1096842ff22ad9405b70f0b4f88a3b2f9340467702534c8a7f2e67b115d05c851e988a21fc24d74e557efeb6fa88392d9142447500514e887d2c65b317d25e871c9a8823fe26d54c577cfcb0fc8e3f2b974442730657488e7b2a63b511d458811a9c8e25f820d34a517afab2fe8c3d299546407104554a8c792861b713d65a83189e8c27fa22d1485378f8bcf08233279b484e7f0a5b448277266fb91dd8548d16908229f42cdf465d76f6bef2803125994a4c7d0859468075246dbb1fda568f1492802bf62edd445f74f4b8f48637239f4c4a7b0e5f408673226bbd19dc50891294862df028db425972f2baf68435219d4e48790c5d4284712069bf1bde528b1096842ff22ad9405b70f0b4f88a3b2f9340467702534c8a7f2e67b6eea21de50cf25e89e11d9e435b3230e143048bf127d4cc5623ea1d8151aac9ab0767139792d00002251203829702ec71b01df585342a3b2cbc61693b49f963cbb5c5469d2faaed86edbac02fd7509a89f2e6e9aa2c0a16df33f308225a5cc30b1fc419a06c4a18ae34a070e33af8c3e7aeed165be7ca8718542db789e8e63de5f8daf6f0024f38ca0be0dd607e40cb8739a9dc52654d130cdeb9347d44eb9ae1f4826bd39298ad024f9661db135eed36f675cf0b6b45480178bcb4139e5595e2888e2cfbe2be44069ea53dda3cbbcedf0da35c01d8a210958e23d3c3fc11440f663b1a7468901e7172bfa7cc0257d6b66d7bef36db46e1ef1fe2da4c05e918b7caa39b826c87e63ec7f869b92a377a520f8e545f935f3c4e498040dbe4dfa1f0a150ea88ab1c2015ecee012ef1d16ff72d0200e9d382b9429e073250a011598742612b799e666543a141d6f2d02b5c460266817bba489d9be177cf13cfafb5c6964832c412f82300ebbe717de3d3748cf14e00c03c7f891318f69fa43e25c433d036b79e7c91f4bf6efd60d41498f9d59230ce96e6e89fc9706b0f2516772c6f3a41c9f5e6d6fcf1e6a8f9bb8797d4d1c2f95abbfcbc07821d50040f9449815b45ea30f070cfc2982ef8d478b515b6e37c49ca56c0ac0e0befb8d322040f9d132b5a15a04301493266957ba37f3e89512afcf61066fec1a9ca672133f6af99bce0ce8880647db3c28a461e68d3a7533ae2006389675b484c9748c1611fc0ddeca691e63dff4d144f63a641fd68b2165344e438e320dccd4c0b97746feddcebedb1d4122fc7f0c9595e35aa826e311662760220cdc12ff228b438cc35373251d1c7fd226d4ee5bb27c605c0456f1c9b733e296151acbebc6fa26e3df05f18cac1a0ef000b30ee8afebad7f07be08d2d15edc267f2747d765a312313ff0c1deb37cae3d09f8ed8da2f8258b646c6e26298d10f985a3be788348b712543b45e31ef5ea7c4c3d2b69cc55d629847a51a3a5a149b28695ba6ca181314beaf2bd175fdc00e6f7658ba5d27f1502765bbc84fed01651201e0b5a965daa478ece1a3710cd494c7adf1fc4c176eb3ecddb8c1586fae0ac31bc22310d53afa79b1c0a9cb96513430c60a77fd91c1351dab3590fcaa4d3a9a667d116ca074f19c5a2504fa13c1801e2e4d952d7b84d5aa9886c6a651ee41edd416de4cb34aac1a11cd7810b4eb492cf4f3aab065b797da97ce946f4ea6a2fc822c1f24d59de26ff8067e66635bed6fe8688d25fd1f57ee6ce2e0f1d532020c3394f717ec7d87c24ce4fd30cf161f710566a950d25ac5c3b5c1564e0e44009f1db74ab221190b98ad97c7ae4ea2acf59f4e769e1e38bf17acffb6cac252463296faff9a7d0fc1a309008a0df772a7b3f78c7827627f9910cc6f2c736754a79527bba7ec06d4a58cd794f3826bcfc48b119a6237bf8d508651654fa48fe361012a9c62a94f70aeadc1d9cb6e081fb81b97fc74f678bad7c4f2301c14f29829ce5194298ed10ecb8094fa6353f3fcfe8b21b8937f5908c9d5eac67336ec478a11cc63808e40b186f577d633ea7bbc15a8c8e1301ab0234c9a00a6376f93d0554047e47560b19e4ac762de1aa46b5305a30a665a95458dde840a341bc6681156280cdfae70786d1158f4480a374923659fe4c1c38b3687fdd1805f3447381404288a8bee367927e899b541be9f3c57145faabd4907f60d855e4164cd3c026f8c7bb38693704e9e4253d11b759749c947b458d61daf8a0af4fc3fff656468c1581c61184fcee74bf5e180d17463013cff05be00f3d0bb4abe26f8f347d8057898af37867dd24ba12fad138cf3663e5b32c27be99970bfff44cbd62e74555ede6365fb6e91de0090b84d0d36109eeeaf2b5bd2049bdf1f44bbf80dcd0e2ff130661dccf98a1e406c8b74d66d90bfb7ac54ab0458a93e6c566aedad161af9b3ac1709980b17efe655bd0951f1dbb18a79d99d96680da7d7dedc79cf0cab9de8c7a593308866fc2b1392d934f673b0b71704edbea24bec26e11b61a6ca5ad88f5be4166e70943722f55925cc88b4f6bcb5cf74a38c7229c23e1303bfdc9c79ea0059532ea32f281fd3573e97453ce23d91735556bf5e9e93878e8aa1371f28bcf1818b8a879fabd8e043061d4aafa7bf2067ac19e7b9e1d9254a2905683753f2e91796ec0dec976aadbeec49a1f52737ee909d9cbd56011d7e8c26a7ca2d44198af51843636d97d7c5e37bda6a55a3d2a8b1e56b783be71d5fc7cc324b277d42cd28debce92b8d5624cd261729532b2ab2c4888f72a5b49d50abc952721e7a75132c3d6da678f7d0b4f51f029e19524ab6817c6ca1435422e51d78d6ba0830e9410acc7f6b0328f20e4548fd06809ad34d37ed5d0691cca4f0b2c3cf188dd85dbc0d357243d08d95ae366d2be6cd1a4c5f60502d8f023599b504d9e7201f5bba5af4418fe88f5dce1ee770b9d9e9e9cc47e42ca2dd63d8f181f4646a1b49b0998862209638c28c00a5286460aafa2379d8b8c4c2bdae7dd532226800f83b077fdb283018e56e52bc4f773928dc00fbfcb20d71666a5e32269ae1ab9f67528537bcb8011de99612ca6057d52449bf3a3d90739e16ef018e21e2433c66bdc37d99a463b390be63030db62b1830e534faa7169707cdffe8d7aa5c77b863dbfd39b972fc3c987d4721aa07ee92e063237ce4d8422dbfee09f99adc2add8dc99f38d1e971bc0646802e7d7a8fcdb42cef99945910192789f308622c0945a10f8d8f19a1c50e8bf8af3e60af4c0701721d6dd5bd4872196c352a55062baa0a4775ac6a6ccfc6ad1db4835af53440c57782839aacff253cf0576297625ccdae7c2464e3106f91aa1e417671d218ee80b016e522404077ada7ebb62b459ef9dad4cf9c77999085d559f97eb465fa8fd952563678ca0722eaf519433cdcb72b7558534cafc5a70a776405311d283c8b8e76aa71234945158f11d978bf05eee6655f4ea6077005473d45f0b3ad0131fe9b1286497f412af3d9ef1c8c9482505e86f70ee3bf151c8fd3dc8675aa2fc80a2912d81e0a69717af3db1e7e58df3558526a18c060fbec901114b70f79dec79b357218c01cc76ca93f6c2266ba76fd232760f9dc98ce30aecf9b54329aca97303bed72ab8109015f205099901dadc473c3df050f88c1fc9ceb261fec3d10b8e3b1fad7980d2cfd8faf3eee9a23adc615f08760e3d4d9f9b20a17d2936bbda85d9ad4cbd92020034811d7e5704ea78bf2ccaf9aeca52f10f5b13bb338b05985c06c6f0d9ee232f13562a25872489463b099997433ce8bd3690916fc60ab5bfe793150d05e8e02d3944ca6a5d9f7399d18b41ba1ee48ba85d996805ebdcd1f4a280d40c8c001030c3d93b04e36ae0749ffc737b400410116d7285b6c0c5cfd1d9ddf4f60007191e2e3238424448565875858b8e8f96a1b4c0c4d6dfeaecf8575e9395b0b2e9edf91827384d6f999bb2c8e1e7eafeff0000000000000000000000000000000f2a334101fd2105003399bdefea8c13250e78fffccd01c379a0135b7245de8d88e35f4dc15f919b35284af3175e6ff28ca517f2ed40b6b7d28660d4ccf932a94701f739e71ac1ede5002ad4c311fb812005b3f0efe240ef342c5d2f26ddb7baf0abb77b3c9d17609ed7e4a677935b0fb657cb215547c3a1fe3dd1f8c8c4057aebc8c9b588f35a9d6490a4671c43d5877dea1d9e792d130f3a0b235567ddffd95d71498205a787215c127f88732d75eca162045c4d7a069d3457ce0da84b70f48fb12c5398b2675ecd8e2e20cf98be485683396fe7268616a395f87bd47ae5bdffc645b2acc36e9cdf2feb21f6c047c4a67704f26cb0c74f58a9d7e5b5fac3633d00793e0dc792888a95e3020df8e9400890ca34a985d55dc35d0383d09f3dd8d5cfd0b49e8a6932252ce37695f0796640c2ec675ec5576b943606e8166921651b723cf99b7f4df24f2632d47721294ba74f4a0d55c46ee37d2b306a6d6e91928d3cf91feb64e42c65c27141d10126469fbdcd6d1bfa6d0a53de980c33bb41e2c5720076e68ca269e0e8cae8a40c78172554e4030c7c56d0e3659a3b848421f01d9a52fa10b7e7ea2bc90e780bb16ab17f4bba9ff07a6c4f3c5b139e9d94581453b57944243359062ec93a71366d6967529662fa45643e1c519bc3b5b49b3e6bf30e0b4b0be0c7b28d26895ab899e92d5930d6c58e9b15ef93ec64162d78fddec8f691aa0139624d43cbbb0b97812770e2d6215f7aae1309597e06f047e5b10df0d1fe7f217318237454c958770848e7ced92e17bc2d76666d67465227480f208a0adee4566e481438c61d6560957d5bfcb3f3916068f8db74a8dc0497d0a047a1e981a996df33a9a3f145cc1da467720812aca7903e4fbed2bd3dc65ac19cdb8256f8d0fa3204bbc89f87ebfb67516ca99d8849f1833e25e617eb372b283eb6cfac0ad61c03ea14a3bf4b5b9f147d29008891c8cb443cde6b621301e2a8d425976ebc648d1190d0d846be1e24ee15c1eb32d1b0eea6c6889c5f5b8cb24a32bdd2f02d9d413ba99f90c5c154475c728ad46d5992f0d6953ecf57f15a636ca7817467ea2e4285240985d4c5b7e7c0063fccc90df3b26140e736bfbf542da0874956e1dcb8d0bbcf08e8e1a09707abbb1e69800dbbac8d16fda9e7216dcd0c1fef22ab9e285376b81b52942b6221f3cb22849c134415452e6341f43b95ec7c00f56aefdc981aaa250b7e080e4d112d0fec1c80439c0e4c358844e824e3709550e28ce8b5d5ba70f24845c08a6ebfd7592f1fefe658b60e748500a496c1f72c09e80fb7b98eaf613d90c0ef39f61583e1b2178c964ea020b60458ed83782a11348c3ea796da7df7ccdb02de456965831d46ce64516228313e783fbf025a87e7b7f6b37467850ed366cf03c03f5ea629b169980f8b5fea4c3d1e8230e514c12e9ab4d4067a475cd40f544e38eb001f7975c1f6aa53103f8d359147c90edb88a15379afc1eaf1607a2c01c9aa6b3c888a7d0b540c7ef7635776140389ccad366861651f911752fdf3d03d890dcf34bbab03ac9a6959726b6a2d9f896e7b84a567b33d508c447f9bc4999441cb6ebb918f21df0aec984ceb3fd1d21756dac3d89778cdf9e22b240a76132b249ae140d9a3b6bee0a5f5af8905d42932724097f7ab20b3640f34df5d4f6a9bd881aee001ea778d74d812fb9e6ba85c0d6e34e0b086c80b7a0fba66abe1ff95d86aad09d9d5cb5bc3be741391377deae59155b8f5ec3110ad3f112c52175425e62bb8d0be95b4896da918a1fae23e6a7a8796d1dac7eb641c16481a7b31d95987b387cd0e8fa10c8dd107ddd71e1028ef5e5a859371c124314f5a4753af3e27b76f000000",
  "txid": "7ddd5a8c0d46682ec9e6a1310ea5dcbd388cc1dff55bad5fe94809625499eb53",
  "hash": "4e97f941654ab82823069c9569a9a385940e7ebeb46ecf03ba4f516fc6ad7179",
  "size": 5085,
  "vsize": 2278,
  "version": 1,
  "locktime": 111,
  "vin": [
    {
      "txid": "8dbd4fb8b55555265b52b428641bbbade61e2c9b170c84bae5699439a4e52bc6",
      "vout": 0,
      "scriptSig": {
        "asm": "",
        "hex": ""
      },
      "txinwitness": [
        "a89f2e6e9aa2c0a16df33f308225a5cc30b1fc419a06c4a18ae34a070e33af8c3e7aeed165be7ca8718542db789e8e63de5f8daf6f0024f38ca0be0dd607e40cb8739a9dc52654d130cdeb9347d44eb9ae1f4826bd39298ad024f9661db135eed36f675cf0b6b45480178bcb4139e5595e2888e2cfbe2be44069ea53dda3cbbcedf0da35c01d8a210958e23d3c3fc11440f663b1a7468901e7172bfa7cc0257d6b66d7bef36db46e1ef1fe2da4c05e918b7caa39b826c87e63ec7f869b92a377a520f8e545f935f3c4e498040dbe4dfa1f0a150ea88ab1c2015ecee012ef1d16ff72d0200e9d382b9429e073250a011598742612b799e666543a141d6f2d02b5c460266817bba489d9be177cf13cfafb5c6964832c412f82300ebbe717de3d3748cf14e00c03c7f891318f69fa43e25c433d036b79e7c91f4bf6efd60d41498f9d59230ce96e6e89fc9706b0f2516772c6f3a41c9f5e6d6fcf1e6a8f9bb8797d4d1c2f95abbfcbc07821d50040f9449815b45ea30f070cfc2982ef8d478b515b6e37c49ca56c0ac0e0befb8d322040f9d132b5a15a04301493266957ba37f3e89512afcf61066fec1a9ca672133f6af99bce0ce8880647db3c28a461e68d3a7533ae2006389675b484c9748c1611fc0ddeca691e63dff4d144f63a641fd68b2165344e438e320dccd4c0b97746feddcebedb1d4122fc7f0c9595e35aa826e311662760220cdc12ff228b438cc35373251d1c7fd226d4ee5bb27c605c0456f1c9b733e296151acbebc6fa26e3df05f18cac1a0ef000b30ee8afebad7f07be08d2d15edc267f2747d765a312313ff0c1deb37cae3d09f8ed8da2f8258b646c6e26298d10f985a3be788348b712543b45e31ef5ea7c4c3d2b69cc55d629847a51a3a5a149b28695ba6ca181314beaf2bd175fdc00e6f7658ba5d27f1502765bbc84fed01651201e0b5a965daa478ece1a3710cd494c7adf1fc4c176eb3ecddb8c1586fae0ac31bc22310d53afa79b1c0a9cb96513430c60a77fd91c1351dab3590fcaa4d3a9a667d116ca074f19c5a2504fa13c1801e2e4d952d7b84d5aa9886c6a651ee41edd416de4cb34aac1a11cd7810b4eb492cf4f3aab065b797da97ce946f4ea6a2fc822c1f24d59de26ff8067e66635bed6fe8688d25fd1f57ee6ce2e0f1d532020c3394f717ec7d87c24ce4fd30cf161f710566a950d25ac5c3b5c1564e0e44009f1db74ab221190b98ad97c7ae4ea2acf59f4e769e1e38bf17acffb6cac252463296faff9a7d0fc1a309008a0df772a7b3f78c7827627f9910cc6f2c736754a79527bba7ec06d4a58cd794f3826bcfc48b119a6237bf8d508651654fa48fe361012a9c62a94f70aeadc1d9cb6e081fb81b97fc74f678bad7c4f2301c14f29829ce5194298ed10ecb8094fa6353f3fcfe8b21b8937f5908c9d5eac67336ec478a11cc63808e40b186f577d633ea7bbc15a8c8e1301ab0234c9a00a6376f93d0554047e47560b19e4ac762de1aa46b5305a30a665a95458dde840a341bc6681156280cdfae70786d1158f4480a374923659fe4c1c38b3687fdd1805f3447381404288a8bee367927e899b541be9f3c57145faabd4907f60d855e4164cd3c026f8c7bb38693704e9e4253d11b759749c947b458d61daf8a0af4fc3fff656468c1581c61184fcee74bf5e180d17463013cff05be00f3d0bb4abe26f8f347d8057898af37867dd24ba12fad138cf3663e5b32c27be99970bfff44cbd62e74555ede6365fb6e91de0090b84d0d36109eeeaf2b5bd2049bdf1f44bbf80dcd0e2ff130661dccf98a1e406c8b74d66d90bfb7ac54ab0458a93e6c566aedad161af9b3ac1709980b17efe655bd0951f1dbb18a79d99d96680da7d7dedc79cf0cab9de8c7a593308866fc2b1392d934f673b0b71704edbea24bec26e11b61a6ca5ad88f5be4166e70943722f55925cc88b4f6bcb5cf74a38c7229c23e1303bfdc9c79ea0059532ea32f281fd3573e97453ce23d91735556bf5e9e93878e8aa1371f28bcf1818b8a879fabd8e043061d4aafa7bf2067ac19e7b9e1d9254a2905683753f2e91796ec0dec976aadbeec49a1f52737ee909d9cbd56011d7e8c26a7ca2d44198af51843636d97d7c5e37bda6a55a3d2a8b1e56b783be71d5fc7cc324b277d42cd28debce92b8d5624cd261729532b2ab2c4888f72a5b49d50abc952721e7a75132c3d6da678f7d0b4f51f029e19524ab6817c6ca1435422e51d78d6ba0830e9410acc7f6b0328f20e4548fd06809ad34d37ed5d0691cca4f0b2c3cf188dd85dbc0d357243d08d95ae366d2be6cd1a4c5f60502d8f023599b504d9e7201f5bba5af4418fe88f5dce1ee770b9d9e9e9cc47e42ca2dd63d8f181f4646a1b49b0998862209638c28c00a5286460aafa2379d8b8c4c2bdae7dd532226800f83b077fdb283018e56e52bc4f773928dc00fbfcb20d71666a5e32269ae1ab9f67528537bcb8011de99612ca6057d52449bf3a3d90739e16ef018e21e2433c66bdc37d99a463b390be63030db62b1830e534faa7169707cdffe8d7aa5c77b863dbfd39b972fc3c987d4721aa07ee92e063237ce4d8422dbfee09f99adc2add8dc99f38d1e971bc0646802e7d7a8fcdb42cef99945910192789f308622c0945a10f8d8f19a1c50e8bf8af3e60af4c0701721d6dd5bd4872196c352a55062baa0a4775ac6a6ccfc6ad1db4835af53440c57782839aacff253cf0576297625ccdae7c2464e3106f91aa1e417671d218ee80b016e522404077ada7ebb62b459ef9dad4cf9c77999085d559f97eb465fa8fd952563678ca0722eaf519433cdcb72b7558534cafc5a70a776405311d283c8b8e76aa71234945158f11d978bf05eee6655f4ea6077005473d45f0b3ad0131fe9b1286497f412af3d9ef1c8c9482505e86f70ee3bf151c8fd3dc8675aa2fc80a2912d81e0a69717af3db1e7e58df3558526a18c060fbec901114b70f79dec79b357218c01cc76ca93f6c2266ba76fd232760f9dc98ce30aecf9b54329aca97303bed72ab8109015f205099901dadc473c3df050f88c1fc9ceb261fec3d10b8e3b1fad7980d2cfd8faf3eee9a23adc615f08760e3d4d9f9b20a17d2936bbda85d9ad4cbd92020034811d7e5704ea78bf2ccaf9aeca52f10f5b13bb338b05985c06c6f0d9ee232f13562a25872489463b099997433ce8bd3690916fc60ab5bfe793150d05e8e02d3944ca6a5d9f7399d18b41ba1ee48ba85d996805ebdcd1f4a280d40c8c001030c3d93b04e36ae0749ffc737b400410116d7285b6c0c5cfd1d9ddf4f60007191e2e3238424448565875858b8e8f96a1b4c0c4d6dfeaecf8575e9395b0b2e9edf91827384d6f999bb2c8e1e7eafeff0000000000000000000000000000000f2a334101",
        "003399bdefea8c13250e78fffccd01c379a0135b7245de8d88e35f4dc15f919b35284af3175e6ff28ca517f2ed40b6b7d28660d4ccf932a94701f739e71ac1ede5002ad4c311fb812005b3f0efe240ef342c5d2f26ddb7baf0abb77b3c9d17609ed7e4a677935b0fb657cb215547c3a1fe3dd1f8c8c4057aebc8c9b588f35a9d6490a4671c43d5877dea1d9e792d130f3a0b235567ddffd95d71498205a787215c127f88732d75eca162045c4d7a069d3457ce0da84b70f48fb12c5398b2675ecd8e2e20cf98be485683396fe7268616a395f87bd47ae5bdffc645b2acc36e9cdf2feb21f6c047c4a67704f26cb0c74f58a9d7e5b5fac3633d00793e0dc792888a95e3020df8e9400890ca34a985d55dc35d0383d09f3dd8d5cfd0b49e8a6932252ce37695f0796640c2ec675ec5576b943606e8166921651b723cf99b7f4df24f2632d47721294ba74f4a0d55c46ee37d2b306a6d6e91928d3cf91feb64e42c65c27141d10126469fbdcd6d1bfa6d0a53de980c33bb41e2c5720076e68ca269e0e8cae8a40c78172554e4030c7c56d0e3659a3b848421f01d9a52fa10b7e7ea2bc90e780bb16ab17f4bba9ff07a6c4f3c5b139e9d94581453b57944243359062ec93a71366d6967529662fa45643e1c519bc3b5b49b3e6bf30e0b4b0be0c7b28d26895ab899e92d5930d6c58e9b15ef93ec64162d78fddec8f691aa0139624d43cbbb0b97812770e2d6215f7aae1309597e06f047e5b10df0d1fe7f217318237454c958770848e7ced92e17bc2d76666d67465227480f208a0adee4566e481438c61d6560957d5bfcb3f3916068f8db74a8dc0497d0a047a1e981a996df33a9a3f145cc1da467720812aca7903e4fbed2bd3dc65ac19cdb8256f8d0fa3204bbc89f87ebfb67516ca99d8849f1833e25e617eb372b283eb6cfac0ad61c03ea14a3bf4b5b9f147d29008891c8cb443cde6b621301e2a8d425976ebc648d1190d0d846be1e24ee15c1eb32d1b0eea6c6889c5f5b8cb24a32bdd2f02d9d413ba99f90c5c154475c728ad46d5992f0d6953ecf57f15a636ca7817467ea2e4285240985d4c5b7e7c0063fccc90df3b26140e736bfbf542da0874956e1dcb8d0bbcf08e8e1a09707abbb1e69800dbbac8d16fda9e7216dcd0c1fef22ab9e285376b81b52942b6221f3cb22849c134415452e6341f43b95ec7c00f56aefdc981aaa250b7e080e4d112d0fec1c80439c0e4c358844e824e3709550e28ce8b5d5ba70f24845c08a6ebfd7592f1fefe658b60e748500a496c1f72c09e80fb7b98eaf613d90c0ef39f61583e1b2178c964ea020b60458ed83782a11348c3ea796da7df7ccdb02de456965831d46ce64516228313e783fbf025a87e7b7f6b37467850ed366cf03c03f5ea629b169980f8b5fea4c3d1e8230e514c12e9ab4d4067a475cd40f544e38eb001f7975c1f6aa53103f8d359147c90edb88a15379afc1eaf1607a2c01c9aa6b3c888a7d0b540c7ef7635776140389ccad366861651f911752fdf3d03d890dcf34bbab03ac9a6959726b6a2d9f896e7b84a567b33d508c447f9bc4999441cb6ebb918f21df0aec984ceb3fd1d21756dac3d89778cdf9e22b240a76132b249ae140d9a3b6bee0a5f5af8905d42932724097f7ab20b3640f34df5d4f6a9bd881aee001ea778d74d812fb9e6ba85c0d6e34e0b086c80b7a0fba66abe1ff95d86aad09d9d5cb5bc3be741391377deae59155b8f5ec3110ad3f112c52175425e62bb8d0be95b4896da918a1fae23e6a7a8796d1dac7eb641c16481a7b31d95987b387cd0e8fa10c8dd107ddd71e1028ef5e5a859371c124314f5a4753af3e27b7"
      ],
      "sequence": 4294967294
    }
  ],
  "vout": [
    {
      "value": 1.0,
      "n": 0,
      "scriptPubKey": {
        "asm": "OP_RETURN 3155ed00242cb54a2661d728faf7236fb07653716adb89d56f64f74adeeb8940 cf08233279b484e7f0a5b448277266fb91dd8548d16908229f42cdf465d76f6bef2803125994a4c7d0859468075246dbb1fda568f1492802bf62edd445f74f4b8f48637239f4c4a7b0e5f408673226bbd19dc50891294862df028db425972f2baf68435219d4e48790c5d4284712069bf1bde528b1096842ff22ad9405b70f0b4f88a3b2f9340467702534c8a7f2e67b115d05c851e988a21fc24d74e557efeb6fa88392d9142447500514e887d2c65b317d25e871c9a8823fe26d54c577cfcb0fc8e3f2b974442730657488e7b2a63b511d458811a9c8e25f820d34a517afab2fe8c3d299546407104554a8c792861b713d65a83189e8c27fa22d1485378f8bcf08233279b484e7f0a5b448277266fb91dd8548d16908229f42cdf465d76f6bef2803125994a4c7d0859468075246dbb1fda568f1492802bf62edd445f74f4b8f48637239f4c4a7b0e5f408673226bbd19dc50891294862df028db425972f2baf68435219d4e48790c5d4284712069bf1bde528b1096842ff22ad9405b70f0b4f88a3b2f9340467702534c8a7f2e67b115d05c851e988a21fc24d74e557efeb6fa88392d9142447500514e887d2c65b317d25e871c9a8823fe26d54c577cfcb0fc8e3f2b974442730657488e7b2a63b511d458811a9c8e25f820d34a517afab2fe8c3d299546407104554a8c792861b713d65a83189e8c27fa22d1485378f8bcf08233279b484e7f0a5b448277266fb91dd8548d16908229f42cdf465d76f6bef2803125994a4c7d0859468075246dbb1fda568f1492802bf62edd445f74f4b8f48637239f4c4a7b0e5f408673226bbd19dc50891294862df028db425972f2baf68435219d4e48790c5d4284712069bf1bde528b1096842ff22ad9405b70f0b4f88a3b2f9340467702534c8a7f2e67b115d05c851e988a21fc24d74e557efeb6fa88392d9142447500514e887d2c65b317d25e871c9a8823fe26d54c577cfcb0fc8e3f2b974442730657488e7b2a63b511d458811a9c8e25f820d34a517afab2fe8c3d299546407104554a8c792861b713d65a83189e8c27fa22d1485378f8bcf08233279b484e7f0a5b448277266fb91dd8548d16908229f42cdf465d76f6bef2803125994a4c7d0859468075246dbb1fda568f1492802bf62edd445f74f4b8f48637239f4c4a7b0e5f408673226bbd19dc50891294862df028db425972f2baf68435219d4e48790c5d4284712069bf1bde528b1096842ff22ad9405b70f0b4f88a3b2f9340467702534c8a7f2e67b115d05c851e988a21fc24d74e557efeb6fa88392d9142447500514e887d2c65b317d25e871c9a8823fe26d54c577cfcb0fc8e3f2b974442730657488e7b2a63b511d458811a9c8e25f820d34a517afab2fe8c3d299546407104554a8c792861b713d65a83189e8c27fa22d1485378f8bcf08233279b484e7f0a5b448277266fb91dd8548d16908229f42cdf465d76f6bef2803125994a4c7d0859468075246dbb1fda568f1492802bf62edd445f74f4b8f48637239f4c4a7b0e5f408673226bbd19dc50891294862df028db425972f2baf68435219d4e48790c5d4284712069bf1bde528b1096842ff22ad9405b70f0b4f88a3b2f9340467702534c8a7f2e67b6eea21de50cf25e89e11d9e435b3230e143048bf127d4cc5623ea1d8151aac9a",
        "hex": "6a203155ed00242cb54a2661d728faf7236fb07653716adb89d56f64f74adeeb89404db004cf08233279b484e7f0a5b448277266fb91dd8548d16908229f42cdf465d76f6bef2803125994a4c7d0859468075246dbb1fda568f1492802bf62edd445f74f4b8f48637239f4c4a7b0e5f408673226bbd19dc50891294862df028db425972f2baf68435219d4e48790c5d4284712069bf1bde528b1096842ff22ad9405b70f0b4f88a3b2f9340467702534c8a7f2e67b115d05c851e988a21fc24d74e557efeb6fa88392d9142447500514e887d2c65b317d25e871c9a8823fe26d54c577cfcb0fc8e3f2b974442730657488e7b2a63b511d458811a9c8e25f820d34a517afab2fe8c3d299546407104554a8c792861b713d65a83189e8c27fa22d1485378f8bcf08233279b484e7f0a5b448277266fb91dd8548d16908229f42cdf465d76f6bef2803125994a4c7d0859468075246dbb1fda568f1492802bf62edd445f74f4b8f48637239f4c4a7b0e5f408673226bbd19dc50891294862df028db425972f2baf68435219d4e48790c5d4284712069bf1bde528b1096842ff22ad9405b70f0b4f88a3b2f9340467702534c8a7f2e67b115d05c851e988a21fc24d74e557efeb6fa88392d9142447500514e887d2c65b317d25e871c9a8823fe26d54c577cfcb0fc8e3f2b974442730657488e7b2a63b511d458811a9c8e25f820d34a517afab2fe8c3d299546407104554a8c792861b713d65a83189e8c27fa22d1485378f8bcf08233279b484e7f0a5b448277266fb91dd8548d16908229f42cdf465d76f6bef2803125994a4c7d0859468075246dbb1fda568f1492802bf62edd445f74f4b8f48637239f4c4a7b0e5f408673226bbd19dc50891294862df028db425972f2baf68435219d4e48790c5d4284712069bf1bde528b1096842ff22ad9405b70f0b4f88a3b2f9340467702534c8a7f2e67b115d05c851e988a21fc24d74e557efeb6fa88392d9142447500514e887d2c65b317d25e871c9a8823fe26d54c577cfcb0fc8e3f2b974442730657488e7b2a63b511d458811a9c8e25f820d34a517afab2fe8c3d299546407104554a8c792861b713d65a83189e8c27fa22d1485378f8bcf08233279b484e7f0a5b448277266fb91dd8548d16908229f42cdf465d76f6bef2803125994a4c7d0859468075246dbb1fda568f1492802bf62edd445f74f4b8f48637239f4c4a7b0e5f408673226bbd19dc50891294862df028db425972f2baf68435219d4e48790c5d4284712069bf1bde528b1096842ff22ad9405b70f0b4f88a3b2f9340467702534c8a7f2e67b115d05c851e988a21fc24d74e557efeb6fa88392d9142447500514e887d2c65b317d25e871c9a8823fe26d54c577cfcb0fc8e3f2b974442730657488e7b2a63b511d458811a9c8e25f820d34a517afab2fe8c3d299546407104554a8c792861b713d65a83189e8c27fa22d1485378f8bcf08233279b484e7f0a5b448277266fb91dd8548d16908229f42cdf465d76f6bef2803125994a4c7d0859468075246dbb1fda568f1492802bf62edd445f74f4b8f48637239f4c4a7b0e5f408673226bbd19dc50891294862df028db425972f2baf68435219d4e48790c5d4284712069bf1bde528b1096842ff22ad9405b70f0b4f88a3b2f9340467702534c8a7f2e67b6eea21de50cf25e89e11d9e435b3230e143048bf127d4cc5623ea1d8151aac9a",
        "type": "nulldata"
      }
    },
    {
      "value": 499986.7803,
      "n": 1,
      "scriptPubKey": {
        "asm": "1 3829702ec71b01df585342a3b2cbc61693b49f963cbb5c5469d2faaed86edbac",
        "hex": "51203829702ec71b01df585342a3b2cbc61693b49f963cbb5c5469d2faaed86edbac",
        "reqSigs": 1,
        "type": "witness_v1_scripthash",
        "addresses": [
          "3QJmnh"
        ]
      }
    }
  ],
  "blockhash": "a1887b0a0b2991e806ccea2240d48d15dc99191e60c31f7623b06398d7a984df",
  "confirmations": 1,
  "time": 1764178092,
  "blocktime": 1764178092
}