{
  "hex": "01000000000101c0dc3bcfb86276fcf77c0c9147c6891f40403f0adae207c1945ac16811f8fa0f0000000000feffffff026076a04b792d0000225120569a7fd9c3c48c0daadb8e9b8d0ec033f60553d656a3f976f7e93ccc3001e15b00e1f50500000000fdd5046a204bc782aaa9e6ace2146e009c925df7f9ecf922e31329952ad1cb2e8f83f1d8614db004dc3a1d38ac858c10df6d2d8e5e7c43cc75e774cb7297f03a5354719f735dd940fc1a3d188ca5ac30ff4d0dae7e5c63ec55c754eb52b7d01a737451bf537df9609c7a5d78ecc5cc509f2d6dce1e3c038c35a7348b32d7b07a131431df331d9900bc5a7d58cce5ec70bf0d4dee3e1c23ac158714ab12f7905a333411ff133db9205cba9db82c050c905fedad0edefcc34cf567f44bf21770bad3d4f11ff3dd59c07c9abd980c252cb07fcd8d2efedce36cd547d46bd237509af3f4d13fd3fd79e01cfaddf86c454cd01faded4e9ebc830cb527b40bb25730fa9394b15fb39d19803cdafdd84c656cf03f8dcd6ebe9ca32c9507942b927710dab3b4917f93bd39a0dc3a1d38ac858c10df6d2d8e5e7c43cc75e774cb7297f03a5354719f735dd940fc1a3d188ca5ac30ff4d0dae7e5c63ec55c754eb52b7d01a737451bf537df9609c7a5d78ecc5cc509f2d6dce1e3c038c35a7348b32d7b07a131431df331d9900bc5a7d58cce5ec70bf0d4dee3e1c23ac158714ab12f7905a333411ff133db9205cba9db82c050c905fedad0edefcc34cf567f44bf21770bad3d4f11ff3dd59c07c9abd980c252cb07fcd8d2efedce36cd547d46bd237509af3f4d13fd3fd79e01cfaddf86c454cd01faded4e9ebc830cb527b40bb25730fa9394b15fb39d19803cdafdd84c656cf03f8dcd6ebe9ca32c9507942b927710dab3b4917f93bd39a0dc3a1d38ac858c10df6d2d8e5e7c43cc75e774cb7297f03a5354719f735dd940fc1a3d188ca5ac30ff4d0dae7e5c63ec55c754eb52b7d01a737451bf537df9609c7a5d78ecc5cc509f2d6dce1e3c038c35a7348b32d7b07a131431df331d9900bc5a7d58cce5ec70bf0d4dee3e1c23ac158714ab12f7905a333411ff133db9205cba9db82c050c905fedad0edefcc34cf567f44bf21770bad3d4f11ff3dd59c07c9abd980c252cb07fcd8d2efedce36cd547d46bd237509af3f4d13fd3fd79e01cfaddf86c454cd01faded4e9ebc830cb527b40bb25730fa9394b15fb39d19803cdafdd84c656cf03f8dcd6ebe9ca32c9507942b927710dab3b4917f93bd39a0dc3a1d38ac858c10df6d2d8e5e7c43cc75e774cb7297f03a5354719f735dd940fc1a3d188ca5ac30ff4d0dae7e5c63ec55c754eb52b7d01a737451bf537df9609c7a5d78ecc5cc509f2d6dce1e3c038c35a7348b32d7b07a131431df331d9900bc5a7d58cce5ec70bf0d4dee3e1c23ac158714ab12f7905a333411ff133db9205cba9db82c050c905fedad0edefcc34cf567f44bf21770bad3d4f11ff3dd59c07c9abd980c252cb07fcd8d2efedce36cd547d46bd237509af3f4d13fd3fd79e01cfaddf86c454cd01faded4e9ebc830cb527b40bb25730fa9394b15fb39d19803cdafdd84c656cf03f8dcd6ebe9ca32c9507942b927710dab3b4917f93bd39a0dc3a1d38ac858c10df6d2d8e5e7c43cc75e774cb7297f03a5354719f735dd940fc1a3d188ca5ac30ff4d0dae7e5c63ec55c754eb52b7d01a737451bf537df9609c7a5d78ecc5cc509f2d6dce1e3c038c35a7348b32d7b07a131431df331d9900bc5a7d58cce5ec70bf0d4dee3e1c23ac158714ab12f7905a333411ff133db9205cba9db82c050c905fedad0edefcc34ca05d46b80a631467ff35ac18388555b5bcf3ed4fbba59e845827a6390ffe9ede02fd7509fd91ecfac4550fc16b47e06782cd89f00fb970029b38a475a6ec65d1c438e213f84c9c9b71f374925eba06acd0b77dda35ad26b242643a2119cfc2fe8c1d62f9e4073c53b127b3b8502e589b5edd9b34ce509c002a0d14ed6e2fe1fcbc3a3e877b5d8854c9d3569fedc815cff6023337d221e3b39e04b5484b4511e8f0a76fb0ff6da3412c72e1728a8b1e9b018147609ee4e41d3f919733902fbe296606d382221b4d589e218743f57bf6176538da54c7b4e6e8f8b165360122b45be3bc33e05bff67f7c800394a879467a0575aae65f31db3cf1405d5675476774a0b781feb454ec3306f50d97a1e13c26044e8ed5ad61decfaacec580c51719099191e8e1e04a24d41b0f035cd1a41ef3e2e0574cd9096159f841736085986de9f73a392f2c4c525ee59f707a81f6b1748bcbc4d85f1a603088f65890b2923ed933255a1a068d78d4c293fc1d5cca2fe7c4352ac9fc561497cb1e3e17d60b5416fbdb2a34ba9b53e7431e355490fe6d03d507ddc5571bc293096328455ee4e256a243f60a9fd5f2ab8c470c0777f99d400372e38eaf3f3697c108d7523246a285ad857ae86180d5a35c7e85ea099639d756fb3df55ea8208563ca00b1e08bf8c1176ddf90d8110f7a988224ce3a37d27b67f3e9814b30b60f26cf7343547b3974308ec35fe40544e742612a84b3204746f8cfb5128e14cd538b831a878a08bdbd6483737e8088448f502aafffc67cc4d3a01e15dcc9b46d3efefbf202e437c5c7bc915d537203bad05bb5aec9120b79adb9c6b9e048ab93f92a42e44e05dfc3af8cbf804887772318bf43c3438da722ec8a8916958609a981c1985f389974f37ab9dcc167a653bfbce8ce5c4671a8e2054b44ebf24b658ea899feaf282afcb70fffa575a450b98d0db79a134e5fdec45816fd33f7b3793c1a442406354fa1115d2409a62354ab6aa8f37202d6dcdcbadc5558a8d6af2c2c2c529518448758444ffa006c2c4d73cba0d1b31d3b38398e953353d876ff342974d98d690d1a53c3818c6be6596240d12f9ece3145c06b0cb72c80cd1f790837e61d054185fb2988241bb1df7949ad24c706bdef1702a4d3f2d04edbe9420569db0daf390c6261ed5f6d072219e4a5c4b39a542c0339cfd42ce319ff64c042bf307857fdd2533c837dc7d383aa50e58bcdb987586cac2753f4ff01747973c0e97ee476055803a21a158a07ad2cdac9ac00078894f479a4cae9ffaaa8d0501c77a3c096cb02e26ca13fd5405bb83689a87ef2b8a2a359d3f5c67c38c0cf915a8a92049735590b87bb74d7e2a6a7895ff28796a4a76178724c468915aff8711385583a7ac7197b4034d704f88cb0ff3975c6dfb1a07f014ff81d94001be062c563558fa36b466cfe3aff833863edd93d0a575cadcbb6a94d0f92355ce3fb67b97ed7fe9cd6795247a1a6eec7726d24c4b3c209c03af367864e2503947da13152be028f84d1e4e0dc89c0553ddc83f97887a678d3f8137090a1e3fb49a85a97136b2c4d77a23742c8640c47848a46e31ea44b3ad23051c60a6a78818bf4f8e5eef5a38597e1092c951992d96d869f057ac7875ed018eecb22e20b7f8d1a6beb8c494cfa8e9385e738c03dfefea7704fdfd8026bc453b0ced6e6a41a5c9028106a68195905c552809230b0b41922f5cd141955c9c60da05cb57350a5a2bb2ae264a36a1f7373820778f89e17440d1426666c6b4dcf9880fabc7f1a43b2aeabb2a761d91122e7732d885ad5f699b9a4870d78c82db6ccd5974c84b9f8112c474b37a0cd017f1b14a143a0332026b5a6db7c583293d5d5a1a06fd7cb52d1a573e0f6069d85948e6d504f97cfa58e6384fa50b0c8d83a2c6414d8e2520428e1da5f688d583217a7eb6207dbcc39643635772409ed9a5dea8833ed01ef1256e0f20926afc72e81a7a3e6d6b7dd31cb6191ba88166b188538b8bcf437350bf5a6d11f5f46853c5b934a343e3477f70ea65620feacd298f90dbf8643c8caef6962b5d9de6649d78a67073bf784dad2c60993fc851f9b631af5ec3c9687d528166bb3494d6ee89ae2fdb34876591925b83778f53c0474e99ad624a38cb66a192e985bdda47d6b75ef1f3ec51e316c7deaab97d8f64613c660024fb957ac558103d0ab00166bb831bd898713eecb7b9dbf54fde088d2b933daa517954f06fb99104a4891d7eac9a787a1b4de20d9fb449a14249cda71669babf38c96640bb76dc26fc03e4e7941575e5f1d27061deaac119b220712e8714578e86cf27e866b03e7fef43cc62f58536e6c1641e9d88553841db8fab6b99b2c6930b60ef191478b8d2e7e57c67594e4cb408e15f33c15c3f436a7402579651c064af70e0069775e2900b3ccc34be8f4cc92d9286e2ae074c929874fc18b9d7f6790dada8ebc1d639d7a78045ff87a3f05f96e096bb2bfe1fddfab014411fed64f44a6612e7a917cfb93873614a9c234ed8f3a42211c52017efa939c78e50dec87800683b8fb510fd798547d2904c9a7973cbcc8f98c4206c72a5d1dd7508afbe0bface5c6e8385ecf41c424fef04066a4258fa468f1ae3e855f8ff5bbcf00f78f55876883e61949dfd00da1a67f7c7b54f44dbb5890f22d0aff31ddd1510647148f4041a62c0e6b35471d435e4d0397ea74280c82d69ec29ce97bb78a3ef7f07327900a8fad7d74902fe987fff3ed07363ed6d79148230a2e476d7278b8a8502abf9226662143441bdb52595e06e84a6ff5d312dcfe4ed18baa698c15fc15843d44ee66978a4329a1e33feb672f19290492d619a9bb771e220711c95e2970345fec0add35518777bb54333dec9d4f8183a1a3866bb53bf27544b2373aacb54d9b96c81f4d1a281f5c95da6fe0b7417024c3f3509af76d82e5d6ad134a639646a0a2e14c86da1168df43e144ed63fe957f92a8fb344312fd4fbeabe26e9f26fc0baa2b9c033b0708d64fd71a90cd47fad458b0472e43c9dc7677d3707dca5f96fc4d7482b44b450f4741bfc83a61aa5077a753eff38e03a01c7d89874325e8a0adc1679bde8563497aaad69d483f20ae7bba4ffa49a7102236af9e4d2fc5d70ad978040d7a17af7914a1e3f6bd90ea52e8f1f85fa90e3124747f2c5c4e886f2bab48e8e93c40c413bcceaa43c9f2104adf9fc62e424ba5852126c5aa78a7ead6f55d93b6032034fd685ad0d84285d26bcc86469a077889583b57998f0c9a922397df844498286b82ea8d855ba43a2054ca1b8788b82682b9e01877510084b071f703179e6d8e8eec32e698d33248a6a4fb8b9e640ccf97eb3ba8940000408121a22333741647e96a0a5afb6c7cdd5212c40494b505256586b859eb2b5bec2cedcdeed20282c4344454651676a769091b0e73d738493a5b0b3bbbed8dadbe3e60000000000000000000000001327364401fd210500a6ec9236bf0a6ea45757c7d496f4d1126c53b34610f0f901c4f3b15bdf2e2f8fe4f70e7fe15f5a452f7be455b4e940f9bd1e5a65d37408ce1491ffb39e166fa5e8c14ac84c4afb48f990390debb2d2039cb6f479423aca805c58d396fcdc5340aae228a6ca4a9db0d4f3aa744b93f390a08d2a881f86cabdfdc74a88dfc0490c77d7032d9a3d556cc449ea19176768e9e846e46acd20d0b15e52d45aed4834482a76ded88352234fee6cde557333fb6dc26d8b536ff2fb2ca7622551b3b58e652e04b78ebbdb15775d56cf2db99cfcf78f0f95f1f3708864caac00aec63d064a12182be1b8aa39d4d4b2935c78687314f267324fcf8fc0453ce20c493d612be02f090361242ea456435ca437ff181640240d058b102c4abcf48912d30c8ded94f6eee648f10eb3994edf7acb8818aa765bb203f14224a7855b2b5603f61129de5094f432f8ef76bf792ed534c84d739cf53653ead3956fbc79be3eeecb5a1c71ebc1d2578bba26f393a8ed6b4d248bc57549382ae9163f73a6b3ea6f5bbcb57061a2b3d01bafe10dd0678e6f6e854faa65cf6f95c51ed6947d8b2a9eac15b4432ee7efdb84499e35062f3115b08266a28e8ce7737d37feecdfad4c1b5acf1b6f585caaebf94f8fee901554539d1bd9c0bee35759ffa33d999bc00b078310e4902b5a6d4a16a5ed4e6771b7b4f9eae7a255f4a6a711da478da01a09f3e7ca410b319767ab22202905e811779cbec4e0093e734428868868e667768017babb93f033d276dcfaca6112a527a81d309cd47e32f8c26369ae2aa8b9b0bae31cbf4f6ba9674c7932221e813cee2d7a4c9fa51bdc4e14ba8c1f92434ecd3b5ed0b1f8d181d89cb73cd98619bcfcc4289a382db4168bcfc6e416cae5ff1dd7b807558bc76a41146e782249c4141138b915cb86f0529889ca6e07b0369482571a3dd17e90a179f859142853e94b5b0770a3b05583f094cf0b4da817538aae31c012f2a5866d9d3df4e1eea4e74c31beb9239e7555bea1f369d26164637ce6f275958e67d3975eb0d1ca6fa244721379eba67f3c18617665bc51b0e5c477486c95e0f5bc2a3cd8477b74e21b64359bbf96bdaad06cce10d405e96c1e8cb7eca1eef902429a7a9f09c7dc1cdca1c4aa998d6bb36f3a45169a4434d6466f3415f00a140e2ce90e940f78f2897b2f2fa523aee0871c4f6af2c7410ca5f44ef46407ee0c530c10491295c1238abfd07a7d059b3a2ae6bb960001ab6de8ca4a120502c81f471bd1b3ac53673d75794fe66aec04c4ce9365bf34443779a750ddc747f747b5f10735ccbe6602331c5528bdb5501c2b48410b7b5cbd5e06cf8ccd9a64adc69f85c643ebfbc5f26ef76b01ebc1dd01d0bbd3408cc23b5eedf9151f926985464b99c2adac7284efdbd1e4c4b666034cc01b4085c29656dc21b50ad6732b36aa5a7afa3041d85c8edbf986d2f65424c947acdfd742772868817a7c56833e65fd2bcfa031d8bb707d4f15958b3f884320b8b7adc4c32360b0df2faea6217adfa4b7e2820e22953acedc78256f47b3d23605247c64b9038e5e81fb7aafa1fb29bc9b0710b253589dc2015830d84b72c6510091a526d61af3baaeaab7a5ab0654446bf0630d4f417e4851d9adf7fcb50c2c993b19346f1f256664169924f2267432a0284a23d6f3d8d96145c472507aec11db273811a98256053f5a5dbb54f723f57379a89296f0bd53e75d96f78de2f47c141e00854566a06ea714ed954e3893315ebde27296f85a97a6c467570910490ed849601fc95209f22f105ef72f9dc54b21cdcc632b2f2230ebf6bd8bf610910849fc85083230e0d45f0ac8dfcf20b3ef8a94982569000000",
  "txid": "759ddb25310191fc0cfbe9ccad5c65009c09dfc537663817d43a6571ce61b908",
  "hash": "e532bb1de1b3d921aa7c2a0c3a40a653ff4aadee59202299e970a3b5215b1396",
  "size": 5085,
  "vsize": 2278,
  "version": 1,
  "locktime": 105,
  "vin": [
    {
      "txid": "0ffaf81168c15a94c107e2da0a3f40401f89c647910c7cf7fc7662b8cf3bdcc0",
      "vout": 0,
      "scriptSig": {
        "asm": "",
        "hex": ""
      },
      "txinwitness": [
        "fd91ecfac4550fc16b47e06782cd89f00fb970029b38a475a6ec65d1c438e213f84c9c9b71f374925eba06acd0b77dda35ad26b242643a2119cfc2fe8c1d62f9e4073c53b127b3b8502e589b5edd9b34ce509c002a0d14ed6e2fe1fcbc3a3e877b5d8854c9d3569fedc815cff6023337d221e3b39e04b5484b4511e8f0a76fb0ff6da3412c72e1728a8b1e9b018147609ee4e41d3f919733902fbe296606d382221b4d589e218743f57bf6176538da54c7b4e6e8f8b165360122b45be3bc33e05bff67f7c800394a879467a0575aae65f31db3cf1405d5675476774a0b781feb454ec3306f50d97a1e13c26044e8ed5ad61decfaacec580c51719099191e8e1e04a24d41b0f035cd1a41ef3e2e0574cd9096159f841736085986de9f73a392f2c4c525ee59f707a81f6b1748bcbc4d85f1a603088f65890b2923ed933255a1a068d78d4c293fc1d5cca2fe7c4352ac9fc561497cb1e3e17d60b5416fbdb2a34ba9b53e7431e355490fe6d03d507ddc5571bc293096328455ee4e256a243f60a9fd5f2ab8c470c0777f99d400372e38eaf3f3697c108d7523246a285ad857ae86180d5a35c7e85ea099639d756fb3df55ea8208563ca00b1e08bf8c1176ddf90d8110f7a988224ce3a37d27b67f3e9814b30b60f26cf7343547b3974308ec35fe40544e742612a84b3204746f8cfb5128e14cd538b831a878a08bdbd6483737e8088448f502aafffc67cc4d3a01e15dcc9b46d3efefbf202e437c5c7bc915d537203bad05bb5aec9120b79adb9c6b9e048ab93f92a42e44e05dfc3af8cbf804887772318bf43c3438da722ec8a8916958609a981c1985f389974f37ab9dcc167a653bfbce8ce5c4671a8e2054b44ebf24b658ea899feaf282afcb70fffa575a450b98d0db79a134e5fdec45816fd33f7b3793c1a442406354fa1115d2409a62354ab6aa8f37202d6dcdcbadc5558a8d6af2c2c2c529518448758444ffa006c2c4d73cba0d1b31d3b38398e953353d876ff342974d98d690d1a53c3818c6be6596240d12f9ece3145c06b0cb72c80cd1f790837e61d054185fb2988241bb1df7949ad24c706bdef1702a4d3f2d04edbe9420569db0daf390c6261ed5f6d072219e4a5c4b39a542c0339cfd42ce319ff64c042bf307857fdd2533c837dc7d383aa50e58bcdb987586cac2753f4ff01747973c0e97ee476055803a21a158a07ad2cdac9ac00078894f479a4cae9ffaaa8d0501c77a3c096cb02e26ca13fd5405bb83689a87ef2b8a2a359d3f5c67c38c0cf915a8a92049735590b87bb74d7e2a6a7895ff28796a4a76178724c468915aff8711385583a7ac7197b4034d704f88cb0ff3975c6dfb1a07f014ff81d94001be062c563558fa36b466cfe3aff833863edd93d0a575cadcbb6a94d0f92355ce3fb67b97ed7fe9cd6795247a1a6eec7726d24c4b3c209c03af367864e2503947da13152be028f84d1e4e0dc89c0553ddc83f97887a678d3f8137090a1e3fb49a85a97136b2c4d77a23742c8640c47848a46e31ea44b3ad23051c60a6a78818bf4f8e5eef5a38597e1092c951992d96d869f057ac7875ed018eecb22e20b7f8d1a6beb8c494cfa8e9385e738c03dfefea7704fdfd8026bc453b0ced6e6a41a5c9028106a68195905c552809230b0b41922f5cd141955c9c60da05cb57350a5a2bb2ae264a36a1f7373820778f89e17440d1426666c6b4dcf9880fabc7f1a43b2aeabb2a761d91122e7732d885ad5f699b9a4870d78c82db6ccd5974c84b9f8112c474b37a0cd017f1b14a143a0332026b5a6db7c583293d5d5a1a06fd7cb52d1a573e0f6069d85948e6d504f97cfa58e6384fa50b0c8d83a2c6414d8e2520428e1da5f688d583217a7eb6207dbcc39643635772409ed9a5dea8833ed01ef1256e0f20926afc72e81a7a3e6d6b7dd31cb6191ba88166b188538b8bcf437350bf5a6d11f5f46853c5b934a343e3477f70ea65620feacd298f90dbf8643c8caef6962b5d9de6649d78a67073bf784dad2c60993fc851f9b631af5ec3c9687d528166bb3494d6ee89ae2fdb34876591925b83778f53c0474e99ad624a38cb66a192e985bdda47d6b75ef1f3ec51e316c7deaab97d8f64613c660024fb957ac558103d0ab00166bb831bd898713eecb7b9dbf54fde088d2b933daa517954f06fb99104a4891d7eac9a787a1b4de20d9fb449a14249cda71669babf38c96640bb76dc26fc03e4e7941575e5f1d27061deaac119b220712e8714578e86cf27e866b03e7fef43cc62f58536e6c1641e9d88553841db8fab6b99b2c6930b60ef191478b8d2e7e57c67594e4cb408e15f33c15c3f436a7402579651c064af70e0069775e2900b3ccc34be8f4cc92d9286e2ae074c929874fc18b9d7f6790dada8ebc1d639d7a78045ff87a3f05f96e096bb2bfe1fddfab014411fed64f44a6612e7a917cfb93873614a9c234ed8f3a42211c52017efa939c78e50dec87800683b8fb510fd798547d2904c9a7973cbcc8f98c4206c72a5d1dd7508afbe0bface5c6e8385ecf41c424fef04066a4258fa468f1ae3e855f8ff5bbcf00f78f55876883e61949dfd00da1a67f7c7b54f44dbb5890f22d0aff31ddd1510647148f4041a62c0e6b35471d435e4d0397ea74280c82d69ec29ce97bb78a3ef7f07327900a8fad7d74902fe987fff3ed07363ed6d79148230a2e476d7278b8a8502abf9226662143441bdb52595e06e84a6ff5d312dcfe4ed18baa698c15fc15843d44ee66978a4329a1e33feb672f19290492d619a9bb771e220711c95e2970345fec0add35518777bb54333dec9d4f8183a1a3866bb53bf27544b2373aacb54d9b96c81f4d1a281f5c95da6fe0b7417024c3f3509af76d82e5d6ad134a639646a0a2e14c86da1168df43e144ed63fe957f92a8fb344312fd4fbeabe26e9f26fc0baa2b9c033b0708d64fd71a90cd47fad458b0472e43c9dc7677d3707dca5f96fc4d7482b44b450f4741bfc83a61aa5077a753eff38e03a01c7d89874325e8a0adc1679bde8563497aaad69d483f20ae7bba4ffa49a7102236af9e4d2fc5d70ad978040d7a17af7914a1e3f6bd90ea52e8f1f85fa90e3124747f2c5c4e886f2bab48e8e93c40c413bcceaa43c9f2104adf9fc62e424ba5852126c5aa78a7ead6f55d93b6032034fd685ad0d84285d26bcc86469a077889583b57998f0c9a922397df844498286b82ea8d855ba43a2054ca1b8788b82682b9e01877510084b071f703179e6d8e8eec32e698d33248a6a4fb8b9e640ccf97eb3ba8940000408121a22333741647e96a0a5afb6c7cdd5212c40494b505256586b859eb2b5bec2cedcdeed20282c4344454651676a769091b0e73d738493a5b0b3bbbed8dadbe3e60000000000000000000000001327364401",
        "00a6ec9236bf0a6ea45757c7d496f4d1126c53b34610f0f901c4f3b15bdf2e2f8fe4f70e7fe15f5a452f7be455b4e940f9bd1e5a65d37408ce1491ffb39e166fa5e8c14ac84c4afb48f990390debb2d2039cb6f479423aca805c58d396fcdc5340aae228a6ca4a9db0d4f3aa744b93f390a08d2a881f86cabdfdc74a88dfc0490c77d7032d9a3d556cc449ea19176768e9e846e46acd20d0b15e52d45aed4834482a76ded88352234fee6cde557333fb6dc26d8b536ff2fb2ca7622551b3b58e652e04b78ebbdb15775d56cf2db99cfcf78f0f95f1f3708864caac00aec63d064a12182be1b8aa39d4d4b2935c78687314f267324fcf8fc0453ce20c493d612be02f090361242ea456435ca437ff181640240d058b102c4abcf48912d30c8ded94f6eee648f10eb3994edf7acb8818aa765bb203f14224a7855b2b5603f61129de5094f432f8ef76bf792ed534c84d739cf53653ead3956fbc79be3eeecb5a1c71ebc1d2578bba26f393a8ed6b4d248bc57549382ae9163f73a6b3ea6f5bbcb57061a2b3d01bafe10dd0678e6f6e854faa65cf6f95c51ed6947d8b2a9eac15b4432ee7efdb84499e35062f3115b08266a28e8ce7737d37feecdfad4c1b5acf1b6f585caaebf94f8fee901554539d1bd9c0bee35759ffa33d999bc00b078310e4902b5a6d4a16a5ed4e6771b7b4f9eae7a255f4a6a711da478da01a09f3e7ca410b319767ab22202905e811779cbec4e0093e734428868868e667768017babb93f033d276dcfaca6112a527a81d309cd47e32f8c26369ae2aa8b9b0bae31cbf4f6ba9674c7932221e813cee2d7a4c9fa51bdc4e14ba8c1f92434ecd3b5ed0b1f8d181d89cb73cd98619bcfcc4289a382db4168bcfc6e416cae5ff1dd7b807558bc76a41146e782249c4141138b915cb86f0529889ca6e07b0369482571a3dd17e90a179f859142853e94b5b0770a3b05583f094cf0b4da817538aae31c012f2a5866d9d3df4e1eea4e74c31beb9239e7555bea1f369d26164637ce6f275958e67d3975eb0d1ca6fa244721379eba67f3c18617665bc51b0e5c477486c95e0f5bc2a3cd8477b74e21b64359bbf96bdaad06cce10d405e96c1e8cb7eca1eef902429a7a9f09c7dc1cdca1c4aa998d6bb36f3a45169a4434d6466f3415f00a140e2ce90e940f78f2897b2f2fa523aee0871c4f6af2c7410ca5f44ef46407ee0c530c10491295c1238abfd07a7d059b3a2ae6bb960001ab6de8ca4a120502c81f471bd1b3ac53673d75794fe66aec04c4ce9365bf34443779a750ddc747f747b5f10735ccbe6602331c5528bdb5501c2b48410b7b5cbd5e06cf8ccd9a64adc69f85c643ebfbc5f26ef76b01ebc1dd01d0bbd3408cc23b5eedf9151f926985464b99c2adac7284efdbd1e4c4b666034cc01b4085c29656dc21b50ad6732b36aa5a7afa3041d85c8edbf986d2f65424c947acdfd742772868817a7c56833e65fd2bcfa031d8bb707d4f15958b3f884320b8b7adc4c32360b0df2faea6217adfa4b7e2820e22953acedc78256f47b3d23605247c64b9038e5e81fb7aafa1fb29bc9b0710b253589dc2015830d84b72c6510091a526d61af3baaeaab7a5ab0654446bf0630d4f417e4851d9adf7fcb50c2c993b19346f1f256664169924f2267432a0284a23d6f3d8d96145c472507aec11db273811a98256053f5a5dbb54f723f57379a89296f0bd53e75d96f78de2f47c141e00854566a06ea714ed954e3893315ebde27296f85a97a6c467570910490ed849601fc95209f22f105ef72f9dc54b21cdcc632b2f2230ebf6bd8bf610910849fc85083230e0d45f0ac8dfcf20b3ef8a949825"
      ],
      "sequence": 4294967294
    }
  ],
  "vout": [
    {
      "value": 499989.831,
      "n": 0,
      "scriptPubKey": {
        "asm": "1 569a7fd9c3c48c0daadb8e9b8d0ec033f60553d656a3f976f7e93ccc3001e15b",
        "hex": "5120569a7fd9c3c48c0daadb8e9b8d0ec033f60553d656a3f976f7e93ccc3001e15b",
        "reqSigs": 1,
        "type": "witness_v1_scripthash",
        "addresses": [
          "3QJmnh"
        ]
      }
    },
    {
      "value": 1.0,
      "n": 1,
      "scriptPubKey": {
        "asm": "OP_RETURN 4bc782aaa9e6ace2146e009c925df7f9ecf922e31329952ad1cb2e8f83f1d861 dc3a1d38ac858c10df6d2d8e5e7c43cc75e774cb7297f03a5354719f735dd940fc1a3d188ca5ac30ff4d0dae7e5c63ec55c754eb52b7d01a737451bf537df9609c7a5d78ecc5cc509f2d6dce1e3c038c35a7348b32d7b07a131431df331d9900bc5a7d58cce5ec70bf0d4dee3e1c23ac158714ab12f7905a333411ff133db9205cba9db82c050c905fedad0edefcc34cf567f44bf21770bad3d4f11ff3dd59c07c9abd980c252cb07fcd8d2efedce36cd547d46bd237509af3f4d13fd3fd79e01cfaddf86c454cd01faded4e9ebc830cb527b40bb25730fa9394b15fb39d19803cdafdd84c656cf03f8dcd6ebe9ca32c9507942b927710dab3b4917f93bd39a0dc3a1d38ac858c10df6d2d8e5e7c43cc75e774cb7297f03a5354719f735dd940fc1a3d188ca5ac30ff4d0dae7e5c63ec55c754eb52b7d01a737451bf537df9609c7a5d78ecc5cc509f2d6dce1e3c038c35a7348b32d7b07a131431df331d9900bc5a7d58cce5ec70bf0d4dee3e1c23ac158714ab12f7905a333411ff133db9205cba9db82c050c905fedad0edefcc34cf567f44bf21770bad3d4f11ff3dd59c07c9abd980c252cb07fcd8d2efedce36cd547d46bd237509af3f4d13fd3fd79e01cfaddf86c454cd01faded4e9ebc830cb527b40bb25730fa9394b15fb39d19803cdafdd84c656cf03f8dcd6ebe9ca32c9507942b927710dab3b4917f93bd39a0dc3a1d38ac858c10df6d2d8e5e7c43cc75e774cb7297f03a5354719f735dd940fc1a3d188ca5ac30ff4d0dae7e5c63ec55c754eb52b7d01a737451bf537df9609c7a5d78ecc5cc509f2d6dce1e3c038c35a7348b32d7b07a131431df331d9900bc5a7d58cce5ec70bf0d4dee3e1c23ac158714ab12f7905a333411ff133db9205cba9db82c050c905fedad0edefcc34cf567f44bf21770bad3d4f11ff3dd59c07c9abd980c252cb07fcd8d2efedce36cd547d46bd237509af3f4d13fd3fd79e01cfaddf86c454cd01faded4e9ebc830cb527b40bb25730fa9394b15fb39d19803cdafdd84c656cf03f8dcd6ebe9ca32c9507942b927710dab3b4917f93bd39a0dc3a1d38ac858c10df6d2d8e5e7c43cc75e774cb7297f03a5354719f735dd940fc1a3d188ca5ac30ff4d0dae7e5c63ec55c754eb52b7d01a737451bf537df9609c7a5d78ecc5cc509f2d6dce1e3c038c35a7348b32d7b07a131431df331d9900bc5a7d58cce5ec70bf0d4dee3e1c23ac158714ab12f7905a333411ff133db9205cba9db82c050c905fedad0edefcc34cf567f44bf21770bad3d4f11ff3dd59c07c9abd980c252cb07fcd8d2efedce36cd547d46bd237509af3f4d13fd3fd79e01cfaddf86c454cd01faded4e9ebc830cb527b40bb25730fa9394b15fb39d19803cdafdd84c656cf03f8dcd6ebe9ca32c9507942b927710dab3b4917f93bd39a0dc3a1d38ac858c10df6d2d8e5e7c43cc75e774cb7297f03a5354719f735dd940fc1a3d188ca5ac30ff4d0dae7e5c63ec55c754eb52b7d01a737451bf537df9609c7a5d78ecc5cc509f2d6dce1e3c038c35a7348b32d7b07a131431df331d9900bc5a7d58cce5ec70bf0d4dee3e1c23ac158714ab12f7905a333411ff133db9205cba9db82c050c905fedad0edefcc34ca05d46b80a631467ff35ac18388555b5bcf3ed4fbba59e845827a6390ffe9ede",
        "hex": "6a204bc782aaa9e6ace2146e009c925df7f9ecf922e31329952ad1cb2e8f83f1d8614db004dc3a1d38ac858c10df6d2d8e5e7c43cc75e774cb7297f03a5354719f735dd940fc1a3d188ca5ac30ff4d0dae7e5c63ec55c754eb52b7d01a737451bf537df9609c7a5d78ecc5cc509f2d6dce1e3c038c35a7348b32d7b07a131431df331d9900bc5a7d58cce5ec70bf0d4dee3e1c23ac158714ab12f7905a333411ff133db9205cba9db82c050c905fedad0edefcc34cf567f44bf21770bad3d4f11ff3dd59c07c9abd980c252cb07fcd8d2efedce36cd547d46bd237509af3f4d13fd3fd79e01cfaddf86c454cd01faded4e9ebc830cb527b40bb25730fa9394b15fb39d19803cdafdd84c656cf03f8dcd6ebe9ca32c9507942b927710dab3b4917f93bd39a0dc3a1d38ac858c10df6d2d8e5e7c43cc75e774cb7297f03a5354719f735dd940fc1a3d188ca5ac30ff4d0dae7e5c63ec55c754eb52b7d01a737451bf537df9609c7a5d78ecc5cc509f2d6dce1e3c038c35a7348b32d7b07a131431df331d9900bc5a7d58cce5ec70bf0d4dee3e1c23ac158714ab12f7905a333411ff133db9205cba9db82c050c905fedad0edefcc34cf567f44bf21770bad3d4f11ff3dd59c07c9abd980c252cb07fcd8d2efedce36cd547d46bd237509af3f4d13fd3fd79e01cfaddf86c454cd01faded4e9ebc830cb527b40bb25730fa9394b15fb39d19803cdafdd84c656cf03f8dcd6ebe9ca32c9507942b927710dab3b4917f93bd39a0dc3a1d38ac858c10df6d2d8e5e7c43cc75e774cb7297f03a5354719f735dd940fc1a3d188ca5ac30ff4d0dae7e5c63ec55c754eb52b7d01a737451bf537df9609c7a5d78ecc5cc509f2d6dce1e3c038c35a7348b32d7b07a131431df331d9900bc5a7d58cce5ec70bf0d4dee3e1c23ac158714ab12f7905a333411ff133db9205cba9db82c050c905fedad0edefcc34cf567f44bf21770bad3d4f11ff3dd59c07c9abd980c252cb07fcd8d2efedce36cd547d46bd237509af3f4d13fd3fd79e01cfaddf86c454cd01faded4e9ebc830cb527b40bb25730fa9394b15fb39d19803cdafdd84c656cf03f8dcd6ebe9ca32c9507942b927710dab3b4917f93bd39a0dc3a1d38ac858c10df6d2d8e5e7c43cc75e774cb7297f03a5354719f735dd940fc1a3d188ca5ac30ff4d0dae7e5c63ec55c754eb52b7d01a737451bf537df9609c7a5d78ecc5cc509f2d6dce1e3c038c35a7348b32d7b07a131431df331d9900bc5a7d58cce5ec70bf0d4dee3e1c23ac158714ab12f7905a333411ff133db9205cba9db82c050c905fedad0edefcc34cf567f44bf21770bad3d4f11ff3dd59c07c9abd980c252cb07fcd8d2efedce36cd547d46bd237509af3f4d13fd3fd79e01cfaddf86c454cd01faded4e9ebc830cb527b40bb25730fa9394b15fb39d19803cdafdd84c656cf03f8dcd6ebe9ca32c9507942b927710dab3b4917f93bd39a0dc3a1d38ac858c10df6d2d8e5e7c43cc75e774cb7297f03a5354719f735dd940fc1a3d188ca5ac30ff4d0dae7e5c63ec55c754eb52b7d01a737451bf537df9609c7a5d78ecc5cc509f2d6dce1e3c038c35a7348b32d7b07a131431df331d9900bc5a7d58cce5ec70bf0d4dee3e1c23ac158714ab12f7905a333411ff133db9205cba9db82c050c905fedad0edefcc34ca05d46b80a631467ff35ac18388555b5bcf3ed4fbba59e845827a6390ffe9ede",
        "type": "nulldata"
      }
    }
  ],
  "blockhash": "86d3aa2e412fd1c0ad7fd5d7d84b7ddcf41a8bf652344eaa49dd1e6444ae5dce",
  "confirmations": 1,
  "time": 1764176858,
  "blocktime": 1764176858
}