{
  "hex": "01000000000101a869f3239c65c0ab19e0dd673f7f906e9aeb91fa6292a48323dc37e6a91668b10000000000feffffff02a020df63792d00002251208b05a3e3e353efb42cc14f3f92edaaf6e6f80778e14f7d2c245de91b142c326100e1f50500000000fdd5046a201bbcdb20b0e322f4f32487250e261c7937907bf8feaff236ceb16e5cb94c265e4db00428731340d313544a7a72cba6e8330caaa75dd98ac6cfb360d6dd7c9658bd302908533360f333746a5a52eb86c8132c8a877df9aae6ef9340f6fd5cb6789d1009683353009353140a3a328be6a8734ceae71d99ca868ff320969d3cd618fd706948137320b373342a1a12abc688536ccac73db9eaa6afd300b6bd1cf638dd5049a8f393c05393d4cafaf24b2668b38c2a27dd590a464f33e0565dfc16d83db0a988d3b3e073b3f4eadad26b064893ac0a07fd792a666f13c0767ddc36f81d9089e8b3d38013d3948abab20b6628f3cc6a679d194a060f73a0161dbc56987df0e9c893f3a033f3b4aa9a922b4608d3ec4a47bd396a262f5380363d9c76b85dd0c928731340d313544a7a72cba6e8330caaa75dd98ac6cfb360d6dd7c9658bd302908533360f333746a5a52eb86c8132c8a877df9aae6ef9340f6fd5cb6789d1009683353009353140a3a328be6a8734ceae71d99ca868ff320969d3cd618fd706948137320b373342a1a12abc688536ccac73db9eaa6afd300b6bd1cf638dd5049a8f393c05393d4cafaf24b2668b38c2a27dd590a464f33e0565dfc16d83db0a988d3b3e073b3f4eadad26b064893ac0a07fd792a666f13c0767ddc36f81d9089e8b3d38013d3948abab20b6628f3cc6a679d194a060f73a0161dbc56987df0e9c893f3a033f3b4aa9a922b4608d3ec4a47bd396a262f5380363d9c76b85dd0c928731340d313544a7a72cba6e8330caaa75dd98ac6cfb360d6dd7c9658bd302908533360f333746a5a52eb86c8132c8a877df9aae6ef9340f6fd5cb6789d1009683353009353140a3a328be6a8734ceae71d99ca868ff320969d3cd618fd706948137320b373342a1a12abc688536ccac73db9eaa6afd300b6bd1cf638dd5049a8f393c05393d4cafaf24b2668b38c2a27dd590a464f33e0565dfc16d83db0a988d3b3e073b3f4eadad26b064893ac0a07fd792a666f13c0767ddc36f81d9089e8b3d38013d3948abab20b6628f3cc6a679d194a060f73a0161dbc56987df0e9c893f3a033f3b4aa9a922b4608d3ec4a47bd396a262f5380363d9c76b85dd0c928731340d313544a7a72cba6e8330caaa75dd98ac6cfb360d6dd7c9658bd302908533360f333746a5a52eb86c8132c8a877df9aae6ef9340f6fd5cb6789d1009683353009353140a3a328be6a8734ceae71d99ca868ff320969d3cd618fd706948137320b373342a1a12abc688536ccac73db9eaa6afd300b6bd1cf638dd5049a8f393c05393d4cafaf24b2668b38c2a27dd590a464f33e0565dfc16d83db0a988d3b3e073b3f4eadad26b064893ac0a07fd792a666f13c0767ddc36f81d9089e8b3d38013d3948abab20b6628f3cc6a679d194a060f73a0161dbc56987df0e9c893f3a033f3b4aa9a922b4608d3ec4a47bd396a262f5380363d9c76b85dd0c928731340d313544a7a72cba6e8330caaa75dd98ac6cfb360d6dd7c9658bd302908533360f333746a5a52eb86c8132c8a877df9aae6ef9340f6fd5cb6789d1009683353009353140a3a328be6a8734ceae71d99ca868ff320969d3cd618fd706948137320b373342a1a12abc688536ccac73db9eaa6afd300b6bd1cf638dd5049a8f393c05393d4cafaf24b2668b38c2aa3e8c1ed0cc2cb49007c18a65c916b7b921b08cba0441c719770e15708c14aa102fd750941426c55b45ef6b8b346ff2c5edae5107d1ebe314c352b82fed86c5e14baf8a6f9eda4f8143c718ba12d3fa1941803a7a9090642b619a63e7a20eadacfdcafc1c46f11fca50a43ef1e56ce353a13320c9117cefb2fab5802ccb71d7044ed150def79124109fa069431f8044722386c6d2e45b21e44f8208f4f8234ab79a55e300c44bad635c5b1cd1f5838b0c01b0c171ff751db7f46061b7a84a804b09764392ec568cae1ca3de9b6729b2b56ed3f9d87cfd02014113b6c78fe6e6a28f7c54f315aaad0714434783384ab011811b2b49edcc325c5c20de51e5f47cc124ccc4650515c1526b8d2ab06d50615764acb4b8ebfc345f9df416e9e4aa434d44b264a20aca4319d9ca666c32d031a1d8d3c88c91bef235bebfdb0fcb590913292b9aaa49fb082bf10c25baa61d3ac50d62abf56901cca3d1b28fde5282d2fdc7b8f002dd5d0476831d53628a7247c1f623c47ed2fef93297b669a29557df5fb4743bf7da8560089da2493e6096fcfe93e160ef50ab9f335e21b1993287870404f4a81a87322bc5628a99f8b53f695324ef79dc29e4c6444d435ac95d580c37ff816bfc07be4648ab27853f9b6ccbb9bbe312b50462068ea2cae93e1a116006e0fe83537177fc11da300fdd2d973b8c3dd53b98bb1bb22ea6693e5d913f1fcdc1a4b5df799f08ec2eb9fac26b0250a06926a68315a3cc386a1c3c8328757aadc46278a80506527f5cd4506dd762798c951ee0fd030ade52a73f2ec3de3fce084c700a36367e34507e6793568ac009fb27cea562562f6deecc40d155344098fa6ca836902fb227030e32c3dbafcc1ec5b1af6329e285800fc4707b8d0da5207e4df299d64c48fd6585a590a836970f5395a849e8724398977aff36e0b3eef9dde57a148e68f6c0130e89d7f25803e854e64912bef0488d61d347bc0086f0d3b4ba02c5cbea18b9a4e5e038493c7736f7b5b8c4c5ecd0dfbf5f549216a509c84a9f661b8327bb5800aeded3010c3358111275b33979d760f5367a11792bb27b0484b54f8877791af964009d722cb3519569d3b73484e19647b7c2ecc845222ed5ef3007727f8bc4aa27b0755dcbb766d6abdc4954d1955eff6c8f970c5682b7f29d1cef95da79d9c12f2676e186b11ef0b5defc8ce1c4fea685f7588c173b63f1a214bbf6cbc87d8e85a081cbc050da338f0b98be1a0ec85fdca701a1d652d654530b9738b18d9a1cb20076ade7f41d6ffdd0ab6a97a9cfddacaa3b029cf63afbdeb679f77d466a9f8709686183d1d5ec25311f462e8e97f434f6543a0b9e3efd49fc930f1ff5d7fcf23fb36377c4c218559bfcb8b3ddd2839b8104f27f410a69b6fcc9e3da126d889be7865ed582afae412b99d5226dd36e1845e416fe692fa8f4e790cd93953abde07504ba0d52f89260d951b9a5bc01479f4222dbd625c774b97500d682af388e9e0a90ac63ea56923ad1cf33853005d7d2aa490be831da320844995e3995173d907435905793ce0f204074547b0fa9faf644f0afb244f3ecc66c74ef155eefce935fb0920d3188142c4bec455f745db663d11ce5040cdddbf3c7088ce268986b913a0343fff87eb3a4c851ad659d57bf9fe31c9747004165758054e67261555f892f45424cf186b50493f8b9eb5bcd2e4041f6bba4add1b9096a3ce5a9f8b732b81f7700fa6b2dc0512834fb8325a67028b8f2f308f2a829267fa56bfc9bc0d5d25377ce94776f22b4af7ec010cf52f713af3c09fed951ca68443a67b2e55d0eb9c0b9bdfaeaa619bd4a30fa61c0e79ee0cb790040e9898f79ed741eab54c4672811cb8761be1c9cdea6455b02721038ea2454e275f33bf2e49b81afce9cef58854813f8627df3c9ea3067761c569af4e991508987c1ae661085a98b47b99d7b73f03f9dd51983b030d90d09b906ed73a1b5a4bde0df33fe426c32748c1e2ac02e23f3d6df82301de9a362b12935247dd084040ab38313e5bb89380975d88c7841acffc276fa7bcdc96d35ad23c748ed29a16272cf107c37b9a5ecbd6330b6bd0dc3748f1b833521a5914ffa7bd586f4f22c126ce0bee28ef11cd8e0f0b405b38b64cf63bc4aee1e003631bd2fb637bbddce17b2f63ddb29a967bfc3eec6bcbfff6375874a9b5f401f30172f1aa8a2e0da23655c442c55f8e7ad6a3edeb13ff855d9c0a7960296a61c1859ae0d19a45101c042d65b20836cd48daec19668fb30cbe570541879e8463f01941f3ac2110529750661d980dab982e2c70f8947b9205e2c25d81ae0321a028333b05cb6966bde2859dbee3653499019c4c38ae6fb51705b9ed5d28db6bd53d76d632e8b23b0bff61a13e66dbc1fab03f631c6db231305465e09354d847b177f6483300041ce53ef39e635e98e41924165f0badfef08e77d7203094e23cb9454d67f7b3cf6d51f7c910fcc0bbb851272f4be8c76af269549120bbdbba97e78a3eaa66ab988bd1fd7c81d71100494542104b02b1e24c150bc367f2e917a8c9311d436b5947d9414fc399fd84fd2311ce465a35f52ea7d7c13c91b1462c966a3874472982a83fab8f8eed5a091400ff32663ddb9266545948967af9dd29f5dbc9eea7eb8f4d36142d89615dec7d6b6b9ccf10d3ed180bc5a71701d2b78f41caf29ab0532e368343ab08fb150d093dceed5669ddd28b8172a81515a847e27762be3cffe6d47bb31d30356d9f2b3af695bd153c852c8b6b3377c4c8d7c672ef43de2ac60a8002f6ccff4cf135095abf18897fefeae5f9a7486ce9b5fe1e6c46c1f380adfcfbfc6b6c3c0f471023cf6116edd83fa5d3161e6b1debeede1c4f33e9cc2dcc04ed62e19b6ce5c247fca508cd69d1ab25f1fb03332dd09af89f374b3dfd4556c363c1090fd5ece8693c67b95d051949198b5360f334f441895d003238df789d7b6994f1009385c335b1f77243888f9115abded80ecf34c1918f359803f5c93f60f4f1f940e825674e10814f07f13f9c8cf248e3a92840da7ed6b963d3a1edc5093254b37288d60b8b9452b65f48d884ab1ec0fcfd2a05d5ded0933b72843a853c802f069eb47ec8e3ce8c688432b7bb28e65027e7126cc56c6a7cfec23d48c10b94b3935d528fffa6cd174874b77b16321a55adc2950572f090328f150a8adbd1f3210b984ae171fbea9e52f68a90a48d45b8a6cd9dcad806e4468e85c63533e2f64516390a4cf76b044db0265f8c0c255b07e0a18ff29cec3347416b23fe7baa4e9d20c5ef175ef1e3b03a305b0209991a95b4207701ff9d1b481a007dfca545cac2cc70936450175396524b563983050c0e191b282a39484e52696e72737ec5c6d9e5f0f3131a394a4c54656b9091b5bbc3c9cbd9f5283034446d7186878a8f95a9aecee6f601050e14192f304050525471797f898b9ea8acaebadff100001627374e01fd2105005ee570c4c4a8f3999331f3c2859ad6b6ce9ea7f50121d456b3beb759f1d078c7c32b12bfff98d80945c39706cf303245d88d4869e99c2432c218e715e5e51c99c624646e542b82307089d00f04ed8c7cec2469be72589fd9bf1582ad1b5efce5248471f2597beb48e9b6a2e0cc25af6a34b141c914c805689994bb331534606e59bf252c79c17bad7331991f7d05988336b0d5839a39a9611cf263c085513bf1f839690aaff0249a09314f4edb38fd03ee58a0ecbbe263a199938f205fb6f2b847fda88aadfecc6a9ce83eb98aa09e51dcdc03fe85bfabd398a0256269b219213b3bd67087c316b844dbae28874a3de49fae0ab966c027e3aa17056191a16296071a777ac892d3d7eab0cbf0646bf277046de4aaa5c358d7cecacb09dc888d8f6d5b5295a2df3e693786015cf9580dd02f013e4818253c65e81d4c86944972f04a884f6b2bac28d7b38c279fc738ac5c2c644c8ac85beaa3204e963d3e46a31141e485157f958afa10572f172a5f1d44309181a83af7fd375099c894e2c9fbeaaf6f6cb794649f79828b56274bbfd3eadb10031c58a966c3cca723c2ebb77b24fd58bae7e2c2a7ec8c7ede7ccf6a068d3f12025739d667cabfb2307079900609e231b9b45c305648bf8abdd8bb8d92addeb2f9c51ee428a58cba53c7f09f4cf75f0839bd699185bf1d78dedd791c7a2e327e9e09fb1ad02ec84dea4b04429cf99f2d286665ace37a5bb88e9958be583f4725bf6c169a01f95e17e403d01b631672214d9f10dac77497116feb1b24ece519139f2bdf2105ff5c58a380a5df59e62d2715eff643cc9a2df0d694bebb8f6984e3115467dca003615ff175e5c4cc40c820d07e96c1e7f98d02b796459befa9cc08bb2ca0628e31d9771229915c193742e9bb2369a6eb587b136b735a207e67e4c3021a9badcb6fe7c91a96f54e63603078f0b1aede63c4694abb9dd584b13c48d2870bbeafc9b165e8689a81dd70f6a25901caf8eda1b6cfcaa35ee36b4318694d7d2b5601b2350c63734733fb850f842221cdd2a85359edd90dfdc2aa773de2fb62584122fe63173f1946a945857363af453d6a20882c6eba358d28971b313b36e16137ca727c6eac3c17937f49014f5477dbf076adf3dc636e95c9b76e3e2c7c823fd2d9d460f45cef5c28fd431a973fd9e83748d2dfdd4f939f6a0d34c6c8a0509ef94f9497c795c5115c51092737ac4e28a7facb772e3b19000fe2f973dfa43b2e2e1f16690717d626bf9c55d741371076a23cb4eb21d9d1adcdb43562d7351157f10093635a8fd6e19bd46abeff4ecd4eb7337158e9ff9893465643ea3eb09ec4141ea3541a2c10ffa8e8538894c8fbe04668d5c4e8a6285d29ff3279d54447f291076d2517c5d91bd1b9033f2a1353c3dd2d5aa1fe47c7f9d04e9fbc73868e98092f10dfa48c70eb143613535149501dfb1f86a78c4d806b4b4882be6e0d121d9b0aeabaab822870e3589652d70346d3bc92a8254133bac5e10aa5eb519d91505854fecb1698c4af5c8a19f19dfeb2868e886da1188c122a1ee42f3c194407287a24dbe9574f241832f0a36f3f8935f56f104dd4d84e039ce7639e0f1c642ab5911ac9e20d8b163e6f40ebc1da4545ec32d0833defd11709f3f3162dd38ffbf552ee5ac67e87938b4add219f3b06b99afa3dacb53d7235c4e3acd0a05e11494a3d09536a3c565609e6ff9e5a1eca01ca356ee4b54e09693a4646c796e10a5e5a0be3cff1912b32843008c0d419f240c0e7bdf2fed10b5f750d4305bd9b6e677e13c31c22134f03baeeb3ebcea1c7e77366af7ce48096bd1b9a944508506b876bc2a8a7f22fb3fd3373a8a39568000000",
  "txid": "730a855c48830a7020365370eedbe6f8133a593db430b6f4422d09e6ae6b626e",
  "hash": "2e470a24b39574e472521873e4718310dcc0e190b23b5ee4ebaf2f2972f6a5cd",
  "size": 5085,
  "vsize": 2278,
  "version": 1,
  "locktime": 104,
  "vin": [
    {
      "txid": "b16816a9e637dc2383a49262fa91eb9a6e907f3f67dde019abc0659c23f369a8",
      "vout": 0,
      "scriptSig": {
        "asm": "",
        "hex": ""
      },
      "txinwitness": [
        "41426c55b45ef6b8b346ff2c5edae5107d1ebe314c352b82fed86c5e14baf8a6f9eda4f8143c718ba12d3fa1941803a7a9090642b619a63e7a20eadacfdcafc1c46f11fca50a43ef1e56ce353a13320c9117cefb2fab5802ccb71d7044ed150def79124109fa069431f8044722386c6d2e45b21e44f8208f4f8234ab79a55e300c44bad635c5b1cd1f5838b0c01b0c171ff751db7f46061b7a84a804b09764392ec568cae1ca3de9b6729b2b56ed3f9d87cfd02014113b6c78fe6e6a28f7c54f315aaad0714434783384ab011811b2b49edcc325c5c20de51e5f47cc124ccc4650515c1526b8d2ab06d50615764acb4b8ebfc345f9df416e9e4aa434d44b264a20aca4319d9ca666c32d031a1d8d3c88c91bef235bebfdb0fcb590913292b9aaa49fb082bf10c25baa61d3ac50d62abf56901cca3d1b28fde5282d2fdc7b8f002dd5d0476831d53628a7247c1f623c47ed2fef93297b669a29557df5fb4743bf7da8560089da2493e6096fcfe93e160ef50ab9f335e21b1993287870404f4a81a87322bc5628a99f8b53f695324ef79dc29e4c6444d435ac95d580c37ff816bfc07be4648ab27853f9b6ccbb9bbe312b50462068ea2cae93e1a116006e0fe83537177fc11da300fdd2d973b8c3dd53b98bb1bb22ea6693e5d913f1fcdc1a4b5df799f08ec2eb9fac26b0250a06926a68315a3cc386a1c3c8328757aadc46278a80506527f5cd4506dd762798c951ee0fd030ade52a73f2ec3de3fce084c700a36367e34507e6793568ac009fb27cea562562f6deecc40d155344098fa6ca836902fb227030e32c3dbafcc1ec5b1af6329e285800fc4707b8d0da5207e4df299d64c48fd6585a590a836970f5395a849e8724398977aff36e0b3eef9dde57a148e68f6c0130e89d7f25803e854e64912bef0488d61d347bc0086f0d3b4ba02c5cbea18b9a4e5e038493c7736f7b5b8c4c5ecd0dfbf5f549216a509c84a9f661b8327bb5800aeded3010c3358111275b33979d760f5367a11792bb27b0484b54f8877791af964009d722cb3519569d3b73484e19647b7c2ecc845222ed5ef3007727f8bc4aa27b0755dcbb766d6abdc4954d1955eff6c8f970c5682b7f29d1cef95da79d9c12f2676e186b11ef0b5defc8ce1c4fea685f7588c173b63f1a214bbf6cbc87d8e85a081cbc050da338f0b98be1a0ec85fdca701a1d652d654530b9738b18d9a1cb20076ade7f41d6ffdd0ab6a97a9cfddacaa3b029cf63afbdeb679f77d466a9f8709686183d1d5ec25311f462e8e97f434f6543a0b9e3efd49fc930f1ff5d7fcf23fb36377c4c218559bfcb8b3ddd2839b8104f27f410a69b6fcc9e3da126d889be7865ed582afae412b99d5226dd36e1845e416fe692fa8f4e790cd93953abde07504ba0d52f89260d951b9a5bc01479f4222dbd625c774b97500d682af388e9e0a90ac63ea56923ad1cf33853005d7d2aa490be831da320844995e3995173d907435905793ce0f204074547b0fa9faf644f0afb244f3ecc66c74ef155eefce935fb0920d3188142c4bec455f745db663d11ce5040cdddbf3c7088ce268986b913a0343fff87eb3a4c851ad659d57bf9fe31c9747004165758054e67261555f892f45424cf186b50493f8b9eb5bcd2e4041f6bba4add1b9096a3ce5a9f8b732b81f7700fa6b2dc0512834fb8325a67028b8f2f308f2a829267fa56bfc9bc0d5d25377ce94776f22b4af7ec010cf52f713af3c09fed951ca68443a67b2e55d0eb9c0b9bdfaeaa619bd4a30fa61c0e79ee0cb790040e9898f79ed741eab54c4672811cb8761be1c9cdea6455b02721038ea2454e275f33bf2e49b81afce9cef58854813f8627df3c9ea3067761c569af4e991508987c1ae661085a98b47b99d7b73f03f9dd51983b030d90d09b906ed73a1b5a4bde0df33fe426c32748c1e2ac02e23f3d6df82301de9a362b12935247dd084040ab38313e5bb89380975d88c7841acffc276fa7bcdc96d35ad23c748ed29a16272cf107c37b9a5ecbd6330b6bd0dc3748f1b833521a5914ffa7bd586f4f22c126ce0bee28ef11cd8e0f0b405b38b64cf63bc4aee1e003631bd2fb637bbddce17b2f63ddb29a967bfc3eec6bcbfff6375874a9b5f401f30172f1aa8a2e0da23655c442c55f8e7ad6a3edeb13ff855d9c0a7960296a61c1859ae0d19a45101c042d65b20836cd48daec19668fb30cbe570541879e8463f01941f3ac2110529750661d980dab982e2c70f8947b9205e2c25d81ae0321a028333b05cb6966bde2859dbee3653499019c4c38ae6fb51705b9ed5d28db6bd53d76d632e8b23b0bff61a13e66dbc1fab03f631c6db231305465e09354d847b177f6483300041ce53ef39e635e98e41924165f0badfef08e77d7203094e23cb9454d67f7b3cf6d51f7c910fcc0bbb851272f4be8c76af269549120bbdbba97e78a3eaa66ab988bd1fd7c81d71100494542104b02b1e24c150bc367f2e917a8c9311d436b5947d9414fc399fd84fd2311ce465a35f52ea7d7c13c91b1462c966a3874472982a83fab8f8eed5a091400ff32663ddb9266545948967af9dd29f5dbc9eea7eb8f4d36142d89615dec7d6b6b9ccf10d3ed180bc5a71701d2b78f41caf29ab0532e368343ab08fb150d093dceed5669ddd28b8172a81515a847e27762be3cffe6d47bb31d30356d9f2b3af695bd153c852c8b6b3377c4c8d7c672ef43de2ac60a8002f6ccff4cf135095abf18897fefeae5f9a7486ce9b5fe1e6c46c1f380adfcfbfc6b6c3c0f471023cf6116edd83fa5d3161e6b1debeede1c4f33e9cc2dcc04ed62e19b6ce5c247fca508cd69d1ab25f1fb03332dd09af89f374b3dfd4556c363c1090fd5ece8693c67b95d051949198b5360f334f441895d003238df789d7b6994f1009385c335b1f77243888f9115abded80ecf34c1918f359803f5c93f60f4f1f940e825674e10814f07f13f9c8cf248e3a92840da7ed6b963d3a1edc5093254b37288d60b8b9452b65f48d884ab1ec0fcfd2a05d5ded0933b72843a853c802f069eb47ec8e3ce8c688432b7bb28e65027e7126cc56c6a7cfec23d48c10b94b3935d528fffa6cd174874b77b16321a55adc2950572f090328f150a8adbd1f3210b984ae171fbea9e52f68a90a48d45b8a6cd9dcad806e4468e85c63533e2f64516390a4cf76b044db0265f8c0c255b07e0a18ff29cec3347416b23fe7baa4e9d20c5ef175ef1e3b03a305b0209991a95b4207701ff9d1b481a007dfca545cac2cc70936450175396524b563983050c0e191b282a39484e52696e72737ec5c6d9e5f0f3131a394a4c54656b9091b5bbc3c9cbd9f5283034446d7186878a8f95a9aecee6f601050e14192f304050525471797f898b9ea8acaebadff100001627374e01",
        "005ee570c4c4a8f3999331f3c2859ad6b6ce9ea7f50121d456b3beb759f1d078c7c32b12bfff98d80945c39706cf303245d88d4869e99c2432c218e715e5e51c99c624646e542b82307089d00f04ed8c7cec2469be72589fd9bf1582ad1b5efce5248471f2597beb48e9b6a2e0cc25af6a34b141c914c805689994bb331534606e59bf252c79c17bad7331991f7d05988336b0d5839a39a9611cf263c085513bf1f839690aaff0249a09314f4edb38fd03ee58a0ecbbe263a199938f205fb6f2b847fda88aadfecc6a9ce83eb98aa09e51dcdc03fe85bfabd398a0256269b219213b3bd67087c316b844dbae28874a3de49fae0ab966c027e3aa17056191a16296071a777ac892d3d7eab0cbf0646bf277046de4aaa5c358d7cecacb09dc888d8f6d5b5295a2df3e693786015cf9580dd02f013e4818253c65e81d4c86944972f04a884f6b2bac28d7b38c279fc738ac5c2c644c8ac85beaa3204e963d3e46a31141e485157f958afa10572f172a5f1d44309181a83af7fd375099c894e2c9fbeaaf6f6cb794649f79828b56274bbfd3eadb10031c58a966c3cca723c2ebb77b24fd58bae7e2c2a7ec8c7ede7ccf6a068d3f12025739d667cabfb2307079900609e231b9b45c305648bf8abdd8bb8d92addeb2f9c51ee428a58cba53c7f09f4cf75f0839bd699185bf1d78dedd791c7a2e327e9e09fb1ad02ec84dea4b04429cf99f2d286665ace37a5bb88e9958be583f4725bf6c169a01f95e17e403d01b631672214d9f10dac77497116feb1b24ece519139f2bdf2105ff5c58a380a5df59e62d2715eff643cc9a2df0d694bebb8f6984e3115467dca003615ff175e5c4cc40c820d07e96c1e7f98d02b796459befa9cc08bb2ca0628e31d9771229915c193742e9bb2369a6eb587b136b735a207e67e4c3021a9badcb6fe7c91a96f54e63603078f0b1aede63c4694abb9dd584b13c48d2870bbeafc9b165e8689a81dd70f6a25901caf8eda1b6cfcaa35ee36b4318694d7d2b5601b2350c63734733fb850f842221cdd2a85359edd90dfdc2aa773de2fb62584122fe63173f1946a945857363af453d6a20882c6eba358d28971b313b36e16137ca727c6eac3c17937f49014f5477dbf076adf3dc636e95c9b76e3e2c7c823fd2d9d460f45cef5c28fd431a973fd9e83748d2dfdd4f939f6a0d34c6c8a0509ef94f9497c795c5115c51092737ac4e28a7facb772e3b19000fe2f973dfa43b2e2e1f16690717d626bf9c55d741371076a23cb4eb21d9d1adcdb43562d7351157f10093635a8fd6e19bd46abeff4ecd4eb7337158e9ff9893465643ea3eb09ec4141ea3541a2c10ffa8e8538894c8fbe04668d5c4e8a6285d29ff3279d54447f291076d2517c5d91bd1b9033f2a1353c3dd2d5aa1fe47c7f9d04e9fbc73868e98092f10dfa48c70eb143613535149501dfb1f86a78c4d806b4b4882be6e0d121d9b0aeabaab822870e3589652d70346d3bc92a8254133bac5e10aa5eb519d91505854fecb1698c4af5c8a19f19dfeb2868e886da1188c122a1ee42f3c194407287a24dbe9574f241832f0a36f3f8935f56f104dd4d84e039ce7639e0f1c642ab5911ac9e20d8b163e6f40ebc1da4545ec32d0833defd11709f3f3162dd38ffbf552ee5ac67e87938b4add219f3b06b99afa3dacb53d7235c4e3acd0a05e11494a3d09536a3c565609e6ff9e5a1eca01ca356ee4b54e09693a4646c796e10a5e5a0be3cff1912b32843008c0d419f240c0e7bdf2fed10b5f750d4305bd9b6e677e13c31c22134f03baeeb3ebcea1c7e77366af7ce48096bd1b9a944508506b876bc2a8a7f22fb3fd3373a8a395"
      ],
      "sequence": 4294967294
    }
  ],
  "vout": [
    {
      "value": 499993.8986,
      "n": 0,
      "scriptPubKey": {
        "asm": "1 8b05a3e3e353efb42cc14f3f92edaaf6e6f80778e14f7d2c245de91b142c3261",
        "hex": "51208b05a3e3e353efb42cc14f3f92edaaf6e6f80778e14f7d2c245de91b142c3261",
        "reqSigs": 1,
        "type": "witness_v1_scripthash",
        "addresses": [
          "3QJmnh"
        ]
      }
    },
    {
      "value": 1.0,
      "n": 1,
      "scriptPubKey": {
        "asm": "OP_RETURN 1bbcdb20b0e322f4f32487250e261c7937907bf8feaff236ceb16e5cb94c265e 28731340d313544a7a72cba6e8330caaa75dd98ac6cfb360d6dd7c9658bd302908533360f333746a5a52eb86c8132c8a877df9aae6ef9340f6fd5cb6789d1009683353009353140a3a328be6a8734ceae71d99ca868ff320969d3cd618fd706948137320b373342a1a12abc688536ccac73db9eaa6afd300b6bd1cf638dd5049a8f393c05393d4cafaf24b2668b38c2a27dd590a464f33e0565dfc16d83db0a988d3b3e073b3f4eadad26b064893ac0a07fd792a666f13c0767ddc36f81d9089e8b3d38013d3948abab20b6628f3cc6a679d194a060f73a0161dbc56987df0e9c893f3a033f3b4aa9a922b4608d3ec4a47bd396a262f5380363d9c76b85dd0c928731340d313544a7a72cba6e8330caaa75dd98ac6cfb360d6dd7c9658bd302908533360f333746a5a52eb86c8132c8a877df9aae6ef9340f6fd5cb6789d1009683353009353140a3a328be6a8734ceae71d99ca868ff320969d3cd618fd706948137320b373342a1a12abc688536ccac73db9eaa6afd300b6bd1cf638dd5049a8f393c05393d4cafaf24b2668b38c2a27dd590a464f33e0565dfc16d83db0a988d3b3e073b3f4eadad26b064893ac0a07fd792a666f13c0767ddc36f81d9089e8b3d38013d3948abab20b6628f3cc6a679d194a060f73a0161dbc56987df0e9c893f3a033f3b4aa9a922b4608d3ec4a47bd396a262f5380363d9c76b85dd0c928731340d313544a7a72cba6e8330caaa75dd98ac6cfb360d6dd7c9658bd302908533360f333746a5a52eb86c8132c8a877df9aae6ef9340f6fd5cb6789d1009683353009353140a3a328be6a8734ceae71d99ca868ff320969d3cd618fd706948137320b373342a1a12abc688536ccac73db9eaa6afd300b6bd1cf638dd5049a8f393c05393d4cafaf24b2668b38c2a27dd590a464f33e0565dfc16d83db0a988d3b3e073b3f4eadad26b064893ac0a07fd792a666f13c0767ddc36f81d9089e8b3d38013d3948abab20b6628f3cc6a679d194a060f73a0161dbc56987df0e9c893f3a033f3b4aa9a922b4608d3ec4a47bd396a262f5380363d9c76b85dd0c928731340d313544a7a72cba6e8330caaa75dd98ac6cfb360d6dd7c9658bd302908533360f333746a5a52eb86c8132c8a877df9aae6ef9340f6fd5cb6789d1009683353009353140a3a328be6a8734ceae71d99ca868ff320969d3cd618fd706948137320b373342a1a12abc688536ccac73db9eaa6afd300b6bd1cf638dd5049a8f393c05393d4cafaf24b2668b38c2a27dd590a464f33e0565dfc16d83db0a988d3b3e073b3f4eadad26b064893ac0a07fd792a666f13c0767ddc36f81d9089e8b3d38013d3948abab20b6628f3cc6a679d194a060f73a0161dbc56987df0e9c893f3a033f3b4aa9a922b4608d3ec4a47bd396a262f5380363d9c76b85dd0c928731340d313544a7a72cba6e8330caaa75dd98ac6cfb360d6dd7c9658bd302908533360f333746a5a52eb86c8132c8a877df9aae6ef9340f6fd5cb6789d1009683353009353140a3a328be6a8734ceae71d99ca868ff320969d3cd618fd706948137320b373342a1a12abc688536ccac73db9eaa6afd300b6bd1cf638dd5049a8f393c05393d4cafaf24b2668b38c2aa3e8c1ed0cc2cb49007c18a65c916b7b921b08cba0441c719770e15708c14aa1",
        "hex": "6a201bbcdb20b0e322f4f32487250e261c7937907bf8feaff236ceb16e5cb94c265e4db00428731340d313544a7a72cba6e8330caaa75dd98ac6cfb360d6dd7c9658bd302908533360f333746a5a52eb86c8132c8a877df9aae6ef9340f6fd5cb6789d1009683353009353140a3a328be6a8734ceae71d99ca868ff320969d3cd618fd706948137320b373342a1a12abc688536ccac73db9eaa6afd300b6bd1cf638dd5049a8f393c05393d4cafaf24b2668b38c2a27dd590a464f33e0565dfc16d83db0a988d3b3e073b3f4eadad26b064893ac0a07fd792a666f13c0767ddc36f81d9089e8b3d38013d3948abab20b6628f3cc6a679d194a060f73a0161dbc56987df0e9c893f3a033f3b4aa9a922b4608d3ec4a47bd396a262f5380363d9c76b85dd0c928731340d313544a7a72cba6e8330caaa75dd98ac6cfb360d6dd7c9658bd302908533360f333746a5a52eb86c8132c8a877df9aae6ef9340f6fd5cb6789d1009683353009353140a3a328be6a8734ceae71d99ca868ff320969d3cd618fd706948137320b373342a1a12abc688536ccac73db9eaa6afd300b6bd1cf638dd5049a8f393c05393d4cafaf24b2668b38c2a27dd590a464f33e0565dfc16d83db0a988d3b3e073b3f4eadad26b064893ac0a07fd792a666f13c0767ddc36f81d9089e8b3d38013d3948abab20b6628f3cc6a679d194a060f73a0161dbc56987df0e9c893f3a033f3b4aa9a922b4608d3ec4a47bd396a262f5380363d9c76b85dd0c928731340d313544a7a72cba6e8330caaa75dd98ac6cfb360d6dd7c9658bd302908533360f333746a5a52eb86c8132c8a877df9aae6ef9340f6fd5cb6789d1009683353009353140a3a328be6a8734ceae71d99ca868ff320969d3cd618fd706948137320b373342a1a12abc688536ccac73db9eaa6afd300b6bd1cf638dd5049a8f393c05393d4cafaf24b2668b38c2a27dd590a464f33e0565dfc16d83db0a988d3b3e073b3f4eadad26b064893ac0a07fd792a666f13c0767ddc36f81d9089e8b3d38013d3948abab20b6628f3cc6a679d194a060f73a0161dbc56987df0e9c893f3a033f3b4aa9a922b4608d3ec4a47bd396a262f5380363d9c76b85dd0c928731340d313544a7a72cba6e8330caaa75dd98ac6cfb360d6dd7c9658bd302908533360f333746a5a52eb86c8132c8a877df9aae6ef9340f6fd5cb6789d1009683353009353140a3a328be6a8734ceae71d99ca868ff320969d3cd618fd706948137320b373342a1a12abc688536ccac73db9eaa6afd300b6bd1cf638dd5049a8f393c05393d4cafaf24b2668b38c2a27dd590a464f33e0565dfc16d83db0a988d3b3e073b3f4eadad26b064893ac0a07fd792a666f13c0767ddc36f81d9089e8b3d38013d3948abab20b6628f3cc6a679d194a060f73a0161dbc56987df0e9c893f3a033f3b4aa9a922b4608d3ec4a47bd396a262f5380363d9c76b85dd0c928731340d313544a7a72cba6e8330caaa75dd98ac6cfb360d6dd7c9658bd302908533360f333746a5a52eb86c8132c8a877df9aae6ef9340f6fd5cb6789d1009683353009353140a3a328be6a8734ceae71d99ca868ff320969d3cd618fd706948137320b373342a1a12abc688536ccac73db9eaa6afd300b6bd1cf638dd5049a8f393c05393d4cafaf24b2668b38c2aa3e8c1ed0cc2cb49007c18a65c916b7b921b08cba0441c719770e15708c14aa1",
        "type": "nulldata"
      }
    }
  ],
  "blockhash": "32a2d379a33ec88ae1cb3a8a1a44f2d12b76aebf574ecf7ac16b289397ed6cd9",
  "confirmations": 1,
  "time": 1764176557,
  "blocktime": 1764176557
}