{
  "hex": "010000000001011f0a9e83b8ba223517592575fd9e10cbb129e6a95ab908b239da3d59236bd7c50100000000feffffff021024da9b782d00002251208a2f24d7f82f114c2d829fae31c7fd7f8ba60629f1ce6afc3816cef71e23eb3a00e1f50500000000fdd5046a20c1c49549aff6436d82850439337bd23fb00d8d89e2f9b0f64fe5bfc3a39d4d3a4db0047324182a44815b18bedc02a5cbb2f05b481117ea8a0425dab59d1635e770c1125304380a64a17b389efc2285eb92d07b683137caaa2405fa95bd3615c750e1323364586a04c11b58fe9c42e58bf2b01b085157aaca44659af5dd5675a73081521344784a24e13b78debc62c5abd2903b2871778aea6445bad5fd76558710a172f3a498aac401db983e5c82254b3270dbc891976a0a84a55a351d96b567f04192d384b88ae421fbb81e7ca2056b1250fbe8b1b74a2aa4857a153db69547d061b2b3e4d8ea84419bd87e1cc2650b72309b88d1d72a4ac4e51a755dd6f527b001d293c4f8caa461bbf85e3ce2452b5210bba8f1f70a6ae4c53a557df6d5079021f27324182a44815b18bedc02a5cbb2f05b481117ea8a0425dab59d1635e770c1125304380a64a17b389efc2285eb92d07b683137caaa2405fa95bd3615c750e1323364586a04c11b58fe9c42e58bf2b01b085157aaca44659af5dd5675a73081521344784a24e13b78debc62c5abd2903b2871778aea6445bad5fd76558710a172f3a498aac401db983e5c82254b3270dbc891976a0a84a55a351d96b567f04192d384b88ae421fbb81e7ca2056b1250fbe8b1b74a2aa4857a153db69547d061b2b3e4d8ea84419bd87e1cc2650b72309b88d1d72a4ac4e51a755dd6f527b001d293c4f8caa461bbf85e3ce2452b5210bba8f1f70a6ae4c53a557df6d5079021f27324182a44815b18bedc02a5cbb2f05b481117ea8a0425dab59d1635e770c1125304380a64a17b389efc2285eb92d07b683137caaa2405fa95bd3615c750e1323364586a04c11b58fe9c42e58bf2b01b085157aaca44659af5dd5675a73081521344784a24e13b78debc62c5abd2903b2871778aea6445bad5fd76558710a172f3a498aac401db983e5c82254b3270dbc891976a0a84a55a351d96b567f04192d384b88ae421fbb81e7ca2056b1250fbe8b1b74a2aa4857a153db69547d061b2b3e4d8ea84419bd87e1cc2650b72309b88d1d72a4ac4e51a755dd6f527b001d293c4f8caa461bbf85e3ce2452b5210bba8f1f70a6ae4c53a557df6d5079021f27324182a44815b18bedc02a5cbb2f05b481117ea8a0425dab59d1635e770c1125304380a64a17b389efc2285eb92d07b683137caaa2405fa95bd3615c750e1323364586a04c11b58fe9c42e58bf2b01b085157aaca44659af5dd5675a73081521344784a24e13b78debc62c5abd2903b2871778aea6445bad5fd76558710a172f3a498aac401db983e5c82254b3270dbc891976a0a84a55a351d96b567f04192d384b88ae421fbb81e7ca2056b1250fbe8b1b74a2aa4857a153db69547d061b2b3e4d8ea84419bd87e1cc2650b72309b88d1d72a4ac4e51a755dd6f527b001d293c4f8caa461bbf85e3ce2452b5210bba8f1f70a6ae4c53a557df6d5079021f27324182a44815b18bedc02a5cbb2f05b481117ea8a0425dab59d1635e770c1125304380a64a17b389efc2285eb92d07b683137caaa2405fa95bd3615c750e1323364586a04c11b58fe9c42e58bf2b01b085157aaca44659af5dd5675a73081521344784a24e13b78debc62c5abd2903b2871778aea6445bad5fd76558710a172f3a498aac401db983e5c82254b3270db0b260051b5bd46dc0b9800af5abe8a1d6ef95759be09f1b7de7f5d347fc5e34202fd750905fa82930fea048d5a05443149281ae163c25f67f5d88d611cb035e3cd740bce110187fc0195dc89bc03bd06a2889d95d543676683d963722b841287cbb1fdb176f2bc9959c86d2b0410d1a5fbbae83c5a8dae0305e38f2cd9eb84f9bead4ea46767d0f3ba2aa19bee884c1393afeafdee3b8d38d241d0ac28beb75275a100f407b00fba052a50baefa820a9028a15b99cff7b070d6d024f2b028e70834ed33071802e63d238df42dbf96903760c5af936c3cdc5bef360d237492f146c9e9063377615f16981a67cd3278f0c19a8b42dc3114e486f894a1d7357d729e1cf5bede356040738ed8c4b8fbfccc5cbc6ac87a743ee628535dc41c4cccf1b71e26ca64405b69e6c06c6b802490ad49b463e40ba61ec2589ca2bbb41411635e80e835b8fa552898e8b99dac77b49b0321ed511a4c61e4e0322d5d45d05046f8d683dc22ef97a2ca596dc47ca1ae9b26179235f7945d36eb3fd399a4d405293ee809912221635facf7690c8009e3b2c4e20ab9f9833bf106cc22ab6aaee87d821e490aabb44836cdb8665f248427f551cdce6def68c34b3f181818bf8a3e67fc25203b9e6b2f2f740a73c2e24426db0ff1c3f1b65d18b5bcaf67a7c88291231cec7538df9d08cccddae17bacd8f25a396e9feb08864d2f85a4536ebf9d43c5098e2edc8d7a39d47a3a3f1530a1cdb53c37e266bc765d71ca3d769405f27e26f260680ca52d066274c67e2e33351386c6ce484fbddd0118d28c0addfd601a64b32cb3c54a81872e74fa70a53c3bcd172e5a02c8da2422c375c0bfe6464f1baab698d3995125174bd86201d738ab6521f93fc604ae9f04535ef98079c764730f5b4c7389da76f51811e131802e18ed2a23542191bf0859c5ffe07c539252ee5d2ea95297de782116c6a0cbf7145da219a4c8c6ed4c4bcb2feacc9edd4a8ee0a384bf99bbebe87ca58b8bf52aa891a48c6b4d87fe4c73d4bf9bcaf7ff3010a8cff79b7c092f8963fe046677106108471274f26705bb16c210e0e195e87f224f30ed648bcc217384582bfe223848faf8cfbe243532d92ee897887c7bf187661fb84aa2e27196b84ad689655ad9fe365ae924f8886c1adbbe72997df8824a67150fa8166281c2f9b0faa48f2855cc2536db0daad961f85e348eb81c02ccace352d17e8564aa10b64fe9a60fdd237edf11c60dcffecebb1349bb7adfefdd0b25376c0b21c11ee78e19239512738975290c8f02ae70bee21423d2e26521506da626c332799df60eda81148be4cc15e12db45620927daa626cfdffb509d6e7429de3ee10e9d07f59e5ad6c9d2361e43bef3d2bb90e3962757d6a09a98a21e479282f8f6883d628ffc53238965ff2628c007aaf910b8873e81647b5401740564c16ff354c66dfb459bcaf936d08b7ef2e214c7e11fc557b39f1d0bb748ef37900c8996ed10495778e54d8f1312ae35b4e9f8ae8eae712a4861587c56ab8fdf34e7040424b2c0b668cf66a0e319c5e18bbf59789b652c79e661d82554afb9c54df2863d59f78efd65151a0ff968234edf922601a64ef999f6f55da093e10015caeb9662b98d555f6df7bfdfa2e782310812bd7176dc4a9d3323456eb7808867890a9b872ae473041b910065fce6bb66b8b2fc4f3f696c584f2bc53fca93b95c7e800daf05d1b6dbf8e8e8088286dbdffad4e388b2d1935f53c5e8d8ba4288112c6c7fd53484a6684e9c05b1ce5fbd6e8e358817a9efa443e2fdc194f502491f306e9400ebb60c09d954a539cf3b049edeeb92a63a15790197bfe0e6aa63b8892434fe0438168ae7487a2e73537815a94b1685ac36e591d22054cb6292c984733307581a6931f629915961c7f9268dcfb87e3253c988d78921e8465b467848d0a6178ae07ac9fae0915f66441929ab0827143af6aafb709ac07ac54797ce891036ddd29c9f9682b2a702657b40542e92c6121a52e779883bbdc87a165c6e89afb10a0fe9dcb0171cd98f9208cd69c83648d7e7e6ce1a0aa57b7565f2d64ee15156d8f7b492c576b76b65515df63cf97bcd93dc57e8a3724cc6a379b3defe0726f7c7d95fdd3074142b0f2fb2da545fa2dbdd2326dced12655d039ef50f85d6d6d61da4a0542a815e552720ff43d6ea34675f4e14143b6f6bfb162084d0275442c1f8f91b86294a892cf7304b757b52e73479d9cdbc2e385087355dbbe45ad8cfbf9beb330bbea8d8e6e444df890f8a284b7448eab6fcdbdea399154b645dffa0912e101f798e092f880df149663d8f644bb39e93a902a9aed5608a14da17137959cd7d9950cf99cf73a27381705d07e03fe56763a28c38546fda94a2ccecf2fad656b7fcc12fb1d32e044bdc2986e15dc849e8a0f02fc232c84884826f71cb2a39a10fb71764c267cd209db06836a079a5a41c5c96c66fb3a2d2a63cf28803de1004231f1cebc6470fe8e50cd42fc4805919dcac38bc8e24008d8c78fae1266756de5e149a7e94c654654451b1f94957372f84cc3f0d1d8d2deb3c20b771585466c195f67427c0755b49ab5a7aabf8868ea0c224642c2d8e3c19671a0b46f7b81ba1f78705a33670d3786b21467af329638c8ab9c66c0d0b3b1401a6f4363f18609d92723bb5ba0d1496c2ac13722830da1091cea5c360d378ddf13d3a11750b2bac6fa98e22c4ef069bf28fdaba12a2cf16aa409ed7b73a21e1cae393d35c2250eaf87c229c06a1c7634bbbba253a5ec7c0a3faf4345f6ff3e8fa552d02b53cdba470d212a73c93bcab2a83e0f02fe8e3d5b6cc32e688f7d36fa555f5466204757ddd4ce30a29ca41ea558b4ca04aeebfe7562749fba15bcbb6352072d6b9cec05585167445090f6c19f8f1921dcaf340273c6ee41c4a71d53d22bf0a0d4781d70d4d6bf65124fc305ede41393c7e1c44446a97cd3d5f9788ed68935b4ba985230d37869394bd8f6b59894ff863f40a2c07521b4b1d46dc92314548a47ffd1d471054d90ac822a35d08fc20756dd43d9d699229393bddad18af0db8194b4f3d0880d40373fffb67706c1e38e1b53837f3dcde10e5f3927e8fd0bf80fb1b3694b58ab1d34f15e83af68870c78516ee091833418513e5ed5776717cab6776541c65ab0c39e6c88670ea85f8dc9040c5ba2f7bc0830789d86e53a4c9949f09a2748c468654c0633a6dddebf3dc682183483a4ed72a8053085d341cf8807d0687e4f5cc6a4260bf2cd4bbd07a0d5f7947db8bebd45b91d1247a04a607b3c6425351585bf45489c801162497bf8d7816e13fd9fdbe4d9798b405ec03f83d2b829185dae728d60c10b4af12303251556063a3afc1d0d1d9e90f254d506e929597adb5bbc3cfe1e9fb06474859688898a4d2d4fc14254a656d93d1dce7e9f300000000000000000000000000000000000000000000000000000000000d1d283301fd210500ad18a402a1c21d97b8a6c7ae51308613055f63b853dfd33e691bdb6175db17be60db5b251e6394738316e8d44207673e20e06a214df35eb5bb7ecf41f2ca741af7c8d236e354a03d9539b84740f91d38450eb25c85013fb9c8e260809db0e5ef606c673a8f2b56c90583d05a567f12ab46fdd952021d5de5cb6dd6b997b78c8d7c1f22ccebf25ab91426abb9b5ff471dbb011b77b2dfcedbb669f4e740bfa10cda1e202dee36eb15fb8b596afd5cd73335140a3da76746f4ad64848188fe0d1a80b4cb87bfc0e19512f4d781c80c897f388fed98ac9d6d0282215a89db562ddce34626b20fa15e27f9f24d91ab1f70e29b0ed38c25cae34559d87a25ec482d83db046ed85fbd770eb2248433f2d0d0959339594afd3d86c9c9d91aa452acd8544bc8deb583a1b0531a785a243e19d2461f2f4a7190f91c2cacf5824d7fdb53db64a201a4f84a9b051116c33876a68b812926859225f4db3a1ca268919df760f24aa1f3cb752c9fbd987f0266895ee4d91ba9c6bb6911caabe0872e0ee9c86c73245d213fce9f5ef3c06ea6202483b179cfdb11b273f62f2f4f977fccc5e6b08a3a6cc6776dbef5eafaad0b64f715b6ffad6f03a2d36e2f4d2dbc8d80331dfd8e97d6e778fa1cfb027458fff28cbd563b9028f8c96e8d15e97585d50fe64d736b742a9290007f2c61bdf59f4259e984d7e95edd7aaa328e2c76bfaa7dc70a5f0907a974043de0b673ca3b3ac93170d270682ff57cdb06ad0911aead59f8f8fe54d53fdd0be7fd20a3ed0430adb083588e22d5fabc910663bc9b66b5929c33fa936d70c91d594f64f4dcac9075185311b2f6695dd1c72312dbe4b1989a4734f3289e4483e4a5162d68e80c027503fec3a377f3b141d29acf88d846c5d52d7b898f962abe56e273bf3964386e9a4a81b8645eba083567e69bd313391942a1160440cd64780eaa9d2ff8dd151a4ef06e5c4f32dd7c9d401220fdb50ffa8118d8ada07db25bc1539674b2ce9329b29aea467d3c4ec48a9d4507c5e483be3c9b22f129cc39b290cf5e69e0191e666cac1380d78326cd72523b238feb8a638a529e9f47f40e887273600b4b07af6d118fb6d052e17250595f25176d46a19b492c862f5a095928844cb42e41046af9fcf19be38cddcc53cd17dcb2fb55b467210a2ead18561b6681bb7c474ab116237557ab5e5aff760c3a608fbda669a26d28476621509655273dd95efdaa6cb226d7e5f577d0c4807d4b01d64a661371c5de91e5cfcee8cc6d0ee9596ee77b3bc10adf32cb2d222458b1554baa7a8dd15b23d4e2b750eb366bf526ea2fb3fdf9b6191cf753269b58e89de98384489cedae93d7cbfc8e4c0c800bbd22ef3055496af50d2aaa7612c716cf0ae2f73e45d951266e906ee54846ec78166201d3fbf010fb5e655637dd756eef10f84b0909e34714414491b65ebf33180bee3c554f2fe961328f3ea498cb3c82ebf4422c80b7aac3d24c6249ca337be20817d7ab64d4a8763f7a7da29bebffb9cafae0502e772cbd8c0891b272a6bfc6c83dd7cec61f6ad365cacd7061d744ca3a59a0f9739ce9813dc190aefbf4b6417e94e38e65b3202d5a0f865192b2946e2dfc5e03ed8c4edc88f4eba1413115d8ef0b3ccbec0abd31e4a72700459ebbdd680de536b4ad7670ffd32796b79c1523b4d564bcccf604b77bb05dfd3c34bfb666d98190545aa286cd5e1bcce118010d4a5b40dd42083ba1b7174bed5504e5264de1bd8076b2058ca559410da1116dabf2d24c05485a3aef2a7287a7b4e0c733b0246f1768e8e38ef587dc8fd8a2c313dfc5083bf7c2a57bd8f28f1c302d62050c07db7228048966fb1027e586000000",
  "txid": "798a7b78ba2420d3a6a8798216f5b2c54db602f09d830a11b2c548ff9669848e",
  "hash": "7febc07f71ba0bcc0778a8e53c6f024253346d8ccd6db3bae5fdcc902e9dc107",
  "size": 5085,
  "vsize": 2278,
  "version": 1,
  "locktime": 134,
  "vin": [
    {
      "txid": "c5d76b23593dda39b208b95aa9e629b1cb109efd752559173522bab8839e0a1f",
      "vout": 1,
      "scriptSig": {
        "asm": "",
        "hex": ""
      },
      "txinwitness": [
        "05fa82930fea048d5a05443149281ae163c25f67f5d88d611cb035e3cd740bce110187fc0195dc89bc03bd06a2889d95d543676683d963722b841287cbb1fdb176f2bc9959c86d2b0410d1a5fbbae83c5a8dae0305e38f2cd9eb84f9bead4ea46767d0f3ba2aa19bee884c1393afeafdee3b8d38d241d0ac28beb75275a100f407b00fba052a50baefa820a9028a15b99cff7b070d6d024f2b028e70834ed33071802e63d238df42dbf96903760c5af936c3cdc5bef360d237492f146c9e9063377615f16981a67cd3278f0c19a8b42dc3114e486f894a1d7357d729e1cf5bede356040738ed8c4b8fbfccc5cbc6ac87a743ee628535dc41c4cccf1b71e26ca64405b69e6c06c6b802490ad49b463e40ba61ec2589ca2bbb41411635e80e835b8fa552898e8b99dac77b49b0321ed511a4c61e4e0322d5d45d05046f8d683dc22ef97a2ca596dc47ca1ae9b26179235f7945d36eb3fd399a4d405293ee809912221635facf7690c8009e3b2c4e20ab9f9833bf106cc22ab6aaee87d821e490aabb44836cdb8665f248427f551cdce6def68c34b3f181818bf8a3e67fc25203b9e6b2f2f740a73c2e24426db0ff1c3f1b65d18b5bcaf67a7c88291231cec7538df9d08cccddae17bacd8f25a396e9feb08864d2f85a4536ebf9d43c5098e2edc8d7a39d47a3a3f1530a1cdb53c37e266bc765d71ca3d769405f27e26f260680ca52d066274c67e2e33351386c6ce484fbddd0118d28c0addfd601a64b32cb3c54a81872e74fa70a53c3bcd172e5a02c8da2422c375c0bfe6464f1baab698d3995125174bd86201d738ab6521f93fc604ae9f04535ef98079c764730f5b4c7389da76f51811e131802e18ed2a23542191bf0859c5ffe07c539252ee5d2ea95297de782116c6a0cbf7145da219a4c8c6ed4c4bcb2feacc9edd4a8ee0a384bf99bbebe87ca58b8bf52aa891a48c6b4d87fe4c73d4bf9bcaf7ff3010a8cff79b7c092f8963fe046677106108471274f26705bb16c210e0e195e87f224f30ed648bcc217384582bfe223848faf8cfbe243532d92ee897887c7bf187661fb84aa2e27196b84ad689655ad9fe365ae924f8886c1adbbe72997df8824a67150fa8166281c2f9b0faa48f2855cc2536db0daad961f85e348eb81c02ccace352d17e8564aa10b64fe9a60fdd237edf11c60dcffecebb1349bb7adfefdd0b25376c0b21c11ee78e19239512738975290c8f02ae70bee21423d2e26521506da626c332799df60eda81148be4cc15e12db45620927daa626cfdffb509d6e7429de3ee10e9d07f59e5ad6c9d2361e43bef3d2bb90e3962757d6a09a98a21e479282f8f6883d628ffc53238965ff2628c007aaf910b8873e81647b5401740564c16ff354c66dfb459bcaf936d08b7ef2e214c7e11fc557b39f1d0bb748ef37900c8996ed10495778e54d8f1312ae35b4e9f8ae8eae712a4861587c56ab8fdf34e7040424b2c0b668cf66a0e319c5e18bbf59789b652c79e661d82554afb9c54df2863d59f78efd65151a0ff968234edf922601a64ef999f6f55da093e10015caeb9662b98d555f6df7bfdfa2e782310812bd7176dc4a9d3323456eb7808867890a9b872ae473041b910065fce6bb66b8b2fc4f3f696c584f2bc53fca93b95c7e800daf05d1b6dbf8e8e8088286dbdffad4e388b2d1935f53c5e8d8ba4288112c6c7fd53484a6684e9c05b1ce5fbd6e8e358817a9efa443e2fdc194f502491f306e9400ebb60c09d954a539cf3b049edeeb92a63a15790197bfe0e6aa63b8892434fe0438168ae7487a2e73537815a94b1685ac36e591d22054cb6292c984733307581a6931f629915961c7f9268dcfb87e3253c988d78921e8465b467848d0a6178ae07ac9fae0915f66441929ab0827143af6aafb709ac07ac54797ce891036ddd29c9f9682b2a702657b40542e92c6121a52e779883bbdc87a165c6e89afb10a0fe9dcb0171cd98f9208cd69c83648d7e7e6ce1a0aa57b7565f2d64ee15156d8f7b492c576b76b65515df63cf97bcd93dc57e8a3724cc6a379b3defe0726f7c7d95fdd3074142b0f2fb2da545fa2dbdd2326dced12655d039ef50f85d6d6d61da4a0542a815e552720ff43d6ea34675f4e14143b6f6bfb162084d0275442c1f8f91b86294a892cf7304b757b52e73479d9cdbc2e385087355dbbe45ad8cfbf9beb330bbea8d8e6e444df890f8a284b7448eab6fcdbdea399154b645dffa0912e101f798e092f880df149663d8f644bb39e93a902a9aed5608a14da17137959cd7d9950cf99cf73a27381705d07e03fe56763a28c38546fda94a2ccecf2fad656b7fcc12fb1d32e044bdc2986e15dc849e8a0f02fc232c84884826f71cb2a39a10fb71764c267cd209db06836a079a5a41c5c96c66fb3a2d2a63cf28803de1004231f1cebc6470fe8e50cd42fc4805919dcac38bc8e24008d8c78fae1266756de5e149a7e94c654654451b1f94957372f84cc3f0d1d8d2deb3c20b771585466c195f67427c0755b49ab5a7aabf8868ea0c224642c2d8e3c19671a0b46f7b81ba1f78705a33670d3786b21467af329638c8ab9c66c0d0b3b1401a6f4363f18609d92723bb5ba0d1496c2ac13722830da1091cea5c360d378ddf13d3a11750b2bac6fa98e22c4ef069bf28fdaba12a2cf16aa409ed7b73a21e1cae393d35c2250eaf87c229c06a1c7634bbbba253a5ec7c0a3faf4345f6ff3e8fa552d02b53cdba470d212a73c93bcab2a83e0f02fe8e3d5b6cc32e688f7d36fa555f5466204757ddd4ce30a29ca41ea558b4ca04aeebfe7562749fba15bcbb6352072d6b9cec05585167445090f6c19f8f1921dcaf340273c6ee41c4a71d53d22bf0a0d4781d70d4d6bf65124fc305ede41393c7e1c44446a97cd3d5f9788ed68935b4ba985230d37869394bd8f6b59894ff863f40a2c07521b4b1d46dc92314548a47ffd1d471054d90ac822a35d08fc20756dd43d9d699229393bddad18af0db8194b4f3d0880d40373fffb67706c1e38e1b53837f3dcde10e5f3927e8fd0bf80fb1b3694b58ab1d34f15e83af68870c78516ee091833418513e5ed5776717cab6776541c65ab0c39e6c88670ea85f8dc9040c5ba2f7bc0830789d86e53a4c9949f09a2748c468654c0633a6dddebf3dc682183483a4ed72a8053085d341cf8807d0687e4f5cc6a4260bf2cd4bbd07a0d5f7947db8bebd45b91d1247a04a607b3c6425351585bf45489c801162497bf8d7816e13fd9fdbe4d9798b405ec03f83d2b829185dae728d60c10b4af12303251556063a3afc1d0d1d9e90f254d506e929597adb5bbc3cfe1e9fb06474859688898a4d2d4fc14254a656d93d1dce7e9f300000000000000000000000000000000000000000000000000000000000d1d283301",
        "00ad18a402a1c21d97b8a6c7ae51308613055f63b853dfd33e691bdb6175db17be60db5b251e6394738316e8d44207673e20e06a214df35eb5bb7ecf41f2ca741af7c8d236e354a03d9539b84740f91d38450eb25c85013fb9c8e260809db0e5ef606c673a8f2b56c90583d05a567f12ab46fdd952021d5de5cb6dd6b997b78c8d7c1f22ccebf25ab91426abb9b5ff471dbb011b77b2dfcedbb669f4e740bfa10cda1e202dee36eb15fb8b596afd5cd73335140a3da76746f4ad64848188fe0d1a80b4cb87bfc0e19512f4d781c80c897f388fed98ac9d6d0282215a89db562ddce34626b20fa15e27f9f24d91ab1f70e29b0ed38c25cae34559d87a25ec482d83db046ed85fbd770eb2248433f2d0d0959339594afd3d86c9c9d91aa452acd8544bc8deb583a1b0531a785a243e19d2461f2f4a7190f91c2cacf5824d7fdb53db64a201a4f84a9b051116c33876a68b812926859225f4db3a1ca268919df760f24aa1f3cb752c9fbd987f0266895ee4d91ba9c6bb6911caabe0872e0ee9c86c73245d213fce9f5ef3c06ea6202483b179cfdb11b273f62f2f4f977fccc5e6b08a3a6cc6776dbef5eafaad0b64f715b6ffad6f03a2d36e2f4d2dbc8d80331dfd8e97d6e778fa1cfb027458fff28cbd563b9028f8c96e8d15e97585d50fe64d736b742a9290007f2c61bdf59f4259e984d7e95edd7aaa328e2c76bfaa7dc70a5f0907a974043de0b673ca3b3ac93170d270682ff57cdb06ad0911aead59f8f8fe54d53fdd0be7fd20a3ed0430adb083588e22d5fabc910663bc9b66b5929c33fa936d70c91d594f64f4dcac9075185311b2f6695dd1c72312dbe4b1989a4734f3289e4483e4a5162d68e80c027503fec3a377f3b141d29acf88d846c5d52d7b898f962abe56e273bf3964386e9a4a81b8645eba083567e69bd313391942a1160440cd64780eaa9d2ff8dd151a4ef06e5c4f32dd7c9d401220fdb50ffa8118d8ada07db25bc1539674b2ce9329b29aea467d3c4ec48a9d4507c5e483be3c9b22f129cc39b290cf5e69e0191e666cac1380d78326cd72523b238feb8a638a529e9f47f40e887273600b4b07af6d118fb6d052e17250595f25176d46a19b492c862f5a095928844cb42e41046af9fcf19be38cddcc53cd17dcb2fb55b467210a2ead18561b6681bb7c474ab116237557ab5e5aff760c3a608fbda669a26d28476621509655273dd95efdaa6cb226d7e5f577d0c4807d4b01d64a661371c5de91e5cfcee8cc6d0ee9596ee77b3bc10adf32cb2d222458b1554baa7a8dd15b23d4e2b750eb366bf526ea2fb3fdf9b6191cf753269b58e89de98384489cedae93d7cbfc8e4c0c800bbd22ef3055496af50d2aaa7612c716cf0ae2f73e45d951266e906ee54846ec78166201d3fbf010fb5e655637dd756eef10f84b0909e34714414491b65ebf33180bee3c554f2fe961328f3ea498cb3c82ebf4422c80b7aac3d24c6249ca337be20817d7ab64d4a8763f7a7da29bebffb9cafae0502e772cbd8c0891b272a6bfc6c83dd7cec61f6ad365cacd7061d744ca3a59a0f9739ce9813dc190aefbf4b6417e94e38e65b3202d5a0f865192b2946e2dfc5e03ed8c4edc88f4eba1413115d8ef0b3ccbec0abd31e4a72700459ebbdd680de536b4ad7670ffd32796b79c1523b4d564bcccf604b77bb05dfd3c34bfb666d98190545aa286cd5e1bcce118010d4a5b40dd42083ba1b7174bed5504e5264de1bd8076b2058ca559410da1116dabf2d24c05485a3aef2a7287a7b4e0c733b0246f1768e8e38ef587dc8fd8a2c313dfc5083bf7c2a57bd8f28f1c302d62050c07db7228048966fb1027e5"
      ],
      "sequence": 4294967294
    }
  ],
  "vout": [
    {
      "value": 499960.3409,
      "n": 0,
      "scriptPubKey": {
        "asm": "1 8a2f24d7f82f114c2d829fae31c7fd7f8ba60629f1ce6afc3816cef71e23eb3a",
        "hex": "51208a2f24d7f82f114c2d829fae31c7fd7f8ba60629f1ce6afc3816cef71e23eb3a",
        "reqSigs": 1,
        "type": "witness_v1_scripthash",
        "addresses": [
          "3QJmnh"
        ]
      }
    },
    {
      "value": 1.0,
      "n": 1,
      "scriptPubKey": {
        "asm": "OP_RETURN c1c49549aff6436d82850439337bd23fb00d8d89e2f9b0f64fe5bfc3a39d4d3a 7324182a44815b18bedc02a5cbb2f05b481117ea8a0425dab59d1635e770c1125304380a64a17b389efc2285eb92d07b683137caaa2405fa95bd3615c750e1323364586a04c11b58fe9c42e58bf2b01b085157aaca44659af5dd5675a73081521344784a24e13b78debc62c5abd2903b2871778aea6445bad5fd76558710a172f3a498aac401db983e5c82254b3270dbc891976a0a84a55a351d96b567f04192d384b88ae421fbb81e7ca2056b1250fbe8b1b74a2aa4857a153db69547d061b2b3e4d8ea84419bd87e1cc2650b72309b88d1d72a4ac4e51a755dd6f527b001d293c4f8caa461bbf85e3ce2452b5210bba8f1f70a6ae4c53a557df6d5079021f27324182a44815b18bedc02a5cbb2f05b481117ea8a0425dab59d1635e770c1125304380a64a17b389efc2285eb92d07b683137caaa2405fa95bd3615c750e1323364586a04c11b58fe9c42e58bf2b01b085157aaca44659af5dd5675a73081521344784a24e13b78debc62c5abd2903b2871778aea6445bad5fd76558710a172f3a498aac401db983e5c82254b3270dbc891976a0a84a55a351d96b567f04192d384b88ae421fbb81e7ca2056b1250fbe8b1b74a2aa4857a153db69547d061b2b3e4d8ea84419bd87e1cc2650b72309b88d1d72a4ac4e51a755dd6f527b001d293c4f8caa461bbf85e3ce2452b5210bba8f1f70a6ae4c53a557df6d5079021f27324182a44815b18bedc02a5cbb2f05b481117ea8a0425dab59d1635e770c1125304380a64a17b389efc2285eb92d07b683137caaa2405fa95bd3615c750e1323364586a04c11b58fe9c42e58bf2b01b085157aaca44659af5dd5675a73081521344784a24e13b78debc62c5abd2903b2871778aea6445bad5fd76558710a172f3a498aac401db983e5c82254b3270dbc891976a0a84a55a351d96b567f04192d384b88ae421fbb81e7ca2056b1250fbe8b1b74a2aa4857a153db69547d061b2b3e4d8ea84419bd87e1cc2650b72309b88d1d72a4ac4e51a755dd6f527b001d293c4f8caa461bbf85e3ce2452b5210bba8f1f70a6ae4c53a557df6d5079021f27324182a44815b18bedc02a5cbb2f05b481117ea8a0425dab59d1635e770c1125304380a64a17b389efc2285eb92d07b683137caaa2405fa95bd3615c750e1323364586a04c11b58fe9c42e58bf2b01b085157aaca44659af5dd5675a73081521344784a24e13b78debc62c5abd2903b2871778aea6445bad5fd76558710a172f3a498aac401db983e5c82254b3270dbc891976a0a84a55a351d96b567f04192d384b88ae421fbb81e7ca2056b1250fbe8b1b74a2aa4857a153db69547d061b2b3e4d8ea84419bd87e1cc2650b72309b88d1d72a4ac4e51a755dd6f527b001d293c4f8caa461bbf85e3ce2452b5210bba8f1f70a6ae4c53a557df6d5079021f27324182a44815b18bedc02a5cbb2f05b481117ea8a0425dab59d1635e770c1125304380a64a17b389efc2285eb92d07b683137caaa2405fa95bd3615c750e1323364586a04c11b58fe9c42e58bf2b01b085157aaca44659af5dd5675a73081521344784a24e13b78debc62c5abd2903b2871778aea6445bad5fd76558710a172f3a498aac401db983e5c82254b3270db0b260051b5bd46dc0b9800af5abe8a1d6ef95759be09f1b7de7f5d347fc5e342",
        "hex": "6a20c1c49549aff6436d82850439337bd23fb00d8d89e2f9b0f64fe5bfc3a39d4d3a4db0047324182a44815b18bedc02a5cbb2f05b481117ea8a0425dab59d1635e770c1125304380a64a17b389efc2285eb92d07b683137caaa2405fa95bd3615c750e1323364586a04c11b58fe9c42e58bf2b01b085157aaca44659af5dd5675a73081521344784a24e13b78debc62c5abd2903b2871778aea6445bad5fd76558710a172f3a498aac401db983e5c82254b3270dbc891976a0a84a55a351d96b567f04192d384b88ae421fbb81e7ca2056b1250fbe8b1b74a2aa4857a153db69547d061b2b3e4d8ea84419bd87e1cc2650b72309b88d1d72a4ac4e51a755dd6f527b001d293c4f8caa461bbf85e3ce2452b5210bba8f1f70a6ae4c53a557df6d5079021f27324182a44815b18bedc02a5cbb2f05b481117ea8a0425dab59d1635e770c1125304380a64a17b389efc2285eb92d07b683137caaa2405fa95bd3615c750e1323364586a04c11b58fe9c42e58bf2b01b085157aaca44659af5dd5675a73081521344784a24e13b78debc62c5abd2903b2871778aea6445bad5fd76558710a172f3a498aac401db983e5c82254b3270dbc891976a0a84a55a351d96b567f04192d384b88ae421fbb81e7ca2056b1250fbe8b1b74a2aa4857a153db69547d061b2b3e4d8ea84419bd87e1cc2650b72309b88d1d72a4ac4e51a755dd6f527b001d293c4f8caa461bbf85e3ce2452b5210bba8f1f70a6ae4c53a557df6d5079021f27324182a44815b18bedc02a5cbb2f05b481117ea8a0425dab59d1635e770c1125304380a64a17b389efc2285eb92d07b683137caaa2405fa95bd3615c750e1323364586a04c11b58fe9c42e58bf2b01b085157aaca44659af5dd5675a73081521344784a24e13b78debc62c5abd2903b2871778aea6445bad5fd76558710a172f3a498aac401db983e5c82254b3270dbc891976a0a84a55a351d96b567f04192d384b88ae421fbb81e7ca2056b1250fbe8b1b74a2aa4857a153db69547d061b2b3e4d8ea84419bd87e1cc2650b72309b88d1d72a4ac4e51a755dd6f527b001d293c4f8caa461bbf85e3ce2452b5210bba8f1f70a6ae4c53a557df6d5079021f27324182a44815b18bedc02a5cbb2f05b481117ea8a0425dab59d1635e770c1125304380a64a17b389efc2285eb92d07b683137caaa2405fa95bd3615c750e1323364586a04c11b58fe9c42e58bf2b01b085157aaca44659af5dd5675a73081521344784a24e13b78debc62c5abd2903b2871778aea6445bad5fd76558710a172f3a498aac401db983e5c82254b3270dbc891976a0a84a55a351d96b567f04192d384b88ae421fbb81e7ca2056b1250fbe8b1b74a2aa4857a153db69547d061b2b3e4d8ea84419bd87e1cc2650b72309b88d1d72a4ac4e51a755dd6f527b001d293c4f8caa461bbf85e3ce2452b5210bba8f1f70a6ae4c53a557df6d5079021f27324182a44815b18bedc02a5cbb2f05b481117ea8a0425dab59d1635e770c1125304380a64a17b389efc2285eb92d07b683137caaa2405fa95bd3615c750e1323364586a04c11b58fe9c42e58bf2b01b085157aaca44659af5dd5675a73081521344784a24e13b78debc62c5abd2903b2871778aea6445bad5fd76558710a172f3a498aac401db983e5c82254b3270db0b260051b5bd46dc0b9800af5abe8a1d6ef95759be09f1b7de7f5d347fc5e342",
        "type": "nulldata"
      }
    }
  ],
  "blockhash": "74cd48d8c624c37e1fac27c00c19e94c48df61d3ca85b84b56360e4f6170fa6f",
  "confirmations": 1,
  "time": 1764182926,
  "blocktime": 1764182926
}