{
  "hex": "01000000000101008e17ed64e48e3610102ecd9d50a17642a052e31af3ab503e2d04b4f7bbff060100000000feffffff023022f408792d0000225120a14d1c1a690c088b24657b8c8efb6a562caa57fb051b406b0c870f7c81c5647400e1f50500000000fdd5046a204e81e9f1211f931c8078c73c615e1ec09be9d1248a167f43746653b8348f03554db00456bd1ae9e081518d6baa9db08b4e80abb6cf71b586feb369c711262efc4f74a6769d3ac9c0a171ad4b8abd90ab6ea08b96ef5195a6de9349e731060edc6f548616fd5aa9a0c111cd2beaddf0cb0ec0ebf68f31f5c6bef3298751666ebc0f34e636dd7a8980e131ed0bcafdd0eb2ee0cbd6af11d5e69ed309a771464e9c2f14c6d63d9a696001d10deb2a1d300bce002b364ff135067e33e94791a6ae7ccff426f61dba494021f12dcb0a3d102bee200b166fd115265e13c967b1868e5cefd406967dda292041914dab6a5d704b8e406b760fb175463e73a907d1e6ee3c8fb466b65dfa090061b16d8b4a7d506bae604b562f9155661e538927f1c6ce1caf944656bd1ae9e081518d6baa9db08b4e80abb6cf71b586feb369c711262efc4f74a6769d3ac9c0a171ad4b8abd90ab6ea08b96ef5195a6de9349e731060edc6f548616fd5aa9a0c111cd2beaddf0cb0ec0ebf68f31f5c6bef3298751666ebc0f34e636dd7a8980e131ed0bcafdd0eb2ee0cbd6af11d5e69ed309a771464e9c2f14c6d63d9a696001d10deb2a1d300bce002b364ff135067e33e94791a6ae7ccff426f61dba494021f12dcb0a3d102bee200b166fd115265e13c967b1868e5cefd406967dda292041914dab6a5d704b8e406b760fb175463e73a907d1e6ee3c8fb466b65dfa090061b16d8b4a7d506bae604b562f9155661e538927f1c6ce1caf944656bd1ae9e081518d6baa9db08b4e80abb6cf71b586feb369c711262efc4f74a6769d3ac9c0a171ad4b8abd90ab6ea08b96ef5195a6de9349e731060edc6f548616fd5aa9a0c111cd2beaddf0cb0ec0ebf68f31f5c6bef3298751666ebc0f34e636dd7a8980e131ed0bcafdd0eb2ee0cbd6af11d5e69ed309a771464e9c2f14c6d63d9a696001d10deb2a1d300bce002b364ff135067e33e94791a6ae7ccff426f61dba494021f12dcb0a3d102bee200b166fd115265e13c967b1868e5cefd406967dda292041914dab6a5d704b8e406b760fb175463e73a907d1e6ee3c8fb466b65dfa090061b16d8b4a7d506bae604b562f9155661e538927f1c6ce1caf944656bd1ae9e081518d6baa9db08b4e80abb6cf71b586feb369c711262efc4f74a6769d3ac9c0a171ad4b8abd90ab6ea08b96ef5195a6de9349e731060edc6f548616fd5aa9a0c111cd2beaddf0cb0ec0ebf68f31f5c6bef3298751666ebc0f34e636dd7a8980e131ed0bcafdd0eb2ee0cbd6af11d5e69ed309a771464e9c2f14c6d63d9a696001d10deb2a1d300bce002b364ff135067e33e94791a6ae7ccff426f61dba494021f12dcb0a3d102bee200b166fd115265e13c967b1868e5cefd406967dda292041914dab6a5d704b8e406b760fb175463e73a907d1e6ee3c8fb466b65dfa090061b16d8b4a7d506bae604b562f9155661e538927f1c6ce1caf944656bd1ae9e081518d6baa9db08b4e80abb6cf71b586feb369c711262efc4f74a6769d3ac9c0a171ad4b8abd90ab6ea08b96ef5195a6de9349e731060edc6f548616fd5aa9a0c111cd2beaddf0cb0ec0ebf68f31f5c6bef3298751666ebc0f34e636dd7a8980e131ed0bcafdd0eb2ee0cbd6af11d5e69ed309a771464e9c2f14c6d63d9a696001d10deb2a1d300bce002bfcd4b4cf91c5ecea8976a55631dc32a871734964b2cd893f23ca59554cca230a02fd75095ca6a20e6a8e04e1d862d61ec09de87f956948956ef947c1b05ab8809be8ad3483569a4bb33c787c66e7934e877109e5f6f37200ca7b4f490a0d7da66fd4befd682e75f5cfe3621084446187495cea6892e7465b2b31362e4ba0d3fe0ed828146f6029a8982f962d6196f376355186bb71cdfebdaaaf2f36436ededff09929fab8a317655b5ab522cc16164a9aad3d363f8e2d29ea7397dcd422644a16dfbc721bde80d307372ccf3e95c92f21ac6d5a8d9d58bf74d2fc24b416bbf28d682c41eea145202a87f0a5a7322c98764f99897a77eb1eeadb82f86fe01bfd3c10316d7b103c239b1ecccc05ae1c806caa49de4908927c5b598dfef3437837849605b45b8f63dd22bd81d5ba2a330a68296ece38e3793b694abab232876d31066f794a00b60e3b0c0b1a247fa792469fbbe44d400cd64214253610b0e2772098150527cc7f16065c1acbfa0b311b397b1d8ce9db158eb5a9022f8ef703a70309d7b0f60756585f641fdc7d0d083da7fe8a46b025a350477d8f4c2ca26e8923311fafc49cc26f99a901584379df632d577a047cd7afb8cb324e2cd090ebbee7c9c1153719e8d5653f760d95efbc551b8fe43bce0dbf9d8f91e4df882bfb929a45c3b0519ce829380432c5c4fa09961bb67e0fdf3b3b163c97cd7021cf4f2acc01aff4333e46a447d633bb6bd16e01b19636e15e0dcda322983537ad8a7b92bffd8487f1b41dbd4ee2dfbae6071cf1099c11a74f0e0ca048b84d4366aa43f78e97465fa3cdf7955f36863d0837ffb9bee80420a882adef5a1d3f44f7b7c1d18f0bb737136fbf5b491a1cc4941a2920ce854c117c20047556fa809353f9045ab1513855b63128b8a56e24ccaf3501d1e8ce437bac76f70ba7071866c72c55ea570ec3c627407030d27ba217425cda695f19d069a38db788da045d0d72b155fceb0509c2130bf4d3c3a695cd2db145eb0dc1768e110fac5776fa14645dbb2ab3f05f69f02feb448b508a35da6384fde0ed4d972d8ebd434decb9fcacb854ef66a922490f0fb6cf0a77538fdff5053909ebb7dc6caaf7270a286b1dd81d28a848a5b2af3c33b95a778193ae894f6d66e99574b36e36f3168834ac457633259b920bc2a477fc072d98b8f8633e884e6d0eff90c494d85100b0f38bc30c82464bfa7fba92ae708cf630d9f8d042d5097daae9ac1bfc88b3d26bda9b9adafc530cffcff9a52efcac5e45b8600250f490b2ee7e521d8bdb7481392202d1262d9e85b27b57e7ac730cc2f513bf2f6f3a06546e25dc45fac048ca708815bca6451368291e03eb73e99cfe0f4541500216125f3699d8c1ec85f59b7f5d3fc0cd5772bd18bea0d18668df63a2026a16be01bded96f86fc2475d9970fd34c747968c4b2860cae446127f97532c75825f1ebfaf3b90d5203e264ba212aa32ee3aaa8fc45d542aa1e0c974a5f90076dbea13876d1b1a5443b2638dbbf2e3fbb2317cb880298dd445cd7e0461478f57f078cc0f18089100b60c52021ddac72de24fc3b23f95d9a52198461f9abda8278985c7394e7133457c0ccaf08b8420058315d13fa318676c2f8038f8614a3aa95d194f902b2d16a3a84c8a60d02062a7e95019cfc78c05dd7fc976078aa83d9176b038181a92a905139ac38e94d6a30d13c6a4efa61769502a1358fc80cddcd8f599ac36862d31a025c08d84eebaf9afef919ffae3a16dd61919442e19c35b19dd2fcce67b3bb20d769251dcaeeba4c39de17782940e84c0ef86317538466d8a1e91fdba7a8779972d3a89cc6cde05e4d3453ee2d1b48799deab4fc01135e449b687271c69c31810dc22d63b60a5f830e2b0a1ff8a285b1ffdb4f187e37b18a37f615eebc7f26a64101b5c6df44bc7585ef837ec595325f154449b8912efdb52d6db0c2fbfa6714fb5d0a3d9bcfb290135a02caab32dd2eeb6a45a01c86e98d6b6576c7e5b2f760153d84f73536c86bd32dbe4ce750a1600486b5c841908dc3bd13110bb07210116f565a52993dea58cf30e175d530672de69d06380e20087da0c24442831852d0b9a696b987dfbf31a366891912cce22419903c61f55182e7be9f5338477f79e0672fbffc6075dc7e1d0e4745c093344c4a02a5cb8d890b0c2aa67d62aa7a31292e80a417def9e4f06f45f4c8798d7ad5ef1ec0f8024bf0948852f6fc4b83c939e56cd5cd8d94489e411fd1b9047095fae900246484dda65fd5c304c8deddd94554e0f3ccb1f99c8186cc9199f747fca1eef04307e0fa7c0825efcb3a1c91657adab3fdb3ca367c5e9bdc17e117a25c25dd31dccc136d262e1e3022a8d44d9efa617873a78c3857fb595e4180b035307963d5b9f6e06db6b5b618622f7886643c587d6a9243bf077276f0b34166ec5451f9856dc90c8d41366b96c4820c51c96825aea7dfa57fda960a350b470d15251e3122ea0c561922be7d7af4f98b48edb439c827850a7347c882ae0dfe0e6a6b52e746199c3d1cf50df433c47161a5d2a2cc64bc07ef853e9331c1ea378cd0597275501754dff29f5ef0a64a6b377e9309a91fa3212d3484352d4501b7e3a5c8eebc4253b634e7f4b02c663bafa9623bcda9bab073bb7e2ba30f161c054c093c37bba450b89a7f66a3b12bb03f9355e758f869cd7dbf5e7109a7006fc3064ec62ac888a4c1b9e44a2e95ac105b808f50309f684a482071632ce0362fc7153ddc3aaa50b4a73ba0444ad7fa65688e4c6c919d683b3af09e2ab449accf10475a3157ed36c469ffd66e726437319fa6baf8b08aed95a84e9476f8f9ed82a363313f10362ac50c9ef12e7564ed0d6070020fd0a7f0aceac0882131e70d9bd9a2e3e1ed4a0a4d7fb2291296d79b2d38667b9dc627f143babc9c5ac0e5d63eccca861d28d6fe203befefc66a4859dfe4c1bb8e78fdeb82e21e625a2e49718ec6946de2d77d71e1b7d0d8c4f93faab7bb2925355897a640ce1e8564b9b758e9efefe540eabfe0f413417cc84b1c15b92fefa2023f36e159067f3592fde4ae10702a5594fbe6c2703b40849312555088c4fe73762578c86453c76916832e1cefb6b930b499b4ed7692c10bb9ed90eb71a5276ae3ff9921bee6e93d3784fd5e5ac31876baf6650fbc61866ae5f6acf92180cbff5b7c33a8719dbcc5a90309c54196cf9f9c876cf0cd71c5143863748a407ff64bb5ae07a57b695bdba9349aa18ac1a52ef23793c32519284642670b60f98b7f8211d16910f00130508f8d14b6904f95db2f0230b40b58d5e53bbcbd59e8af7a8e8522ec066fde3e850053519ced187fd0a51f68030070602030c0e1a393e45485d656a76a9aeb1d5e01a2032506775b6c0d6e20c11171b508994b2bfc6d7dcdeeaf50e1748505e5f7d80b7b8babccdd6e600000000000000000000000000000000000000000000121c2b3a01fd210500515aea32b41814fd7af2a9b92c32f75eb6e9880520bc4fcf2177911fd2b251c57779093b04f84ab3a413203ff94883ac65329628fabd84e8feceabb6e2efb70145602834ae2e1c3c1ac45674b10698565ae131f54b9f486efde497126ad0c2541fad227d9e3a086a9812266847829adc108da4a67d7b4d1a62b9bc3562ff320d27153d32ba23534a6a52ba808cf9f2610038a54b04368aa3ada60983fa3efe370758d4cbc0d3774991af507d418ccd7fd282a25751322455660405c6831c75cc2c68952b3f541064f8afb3da4b2ce7717c460ace7f5fb0e5c6e42c645c061bcedf78010c311656f7530bcd49ae9c9225fa955decfc9f1b79ea2fbe8e7bb7e5a4743019e60dd5513ac579a46acc681c1981c7c2d99432eb59b9d051773012c65e852a6bf5ef0494f03d68356a70dfa1e3317c5bd7231ea1e7e3c36257599791ae7e39f90326d2c0d6a0887b65a7316351d0732922475cb107f7b03954b466e3abf3dd310fa960d6d7f728a48049d7a4894ab0e92fda8d6f5e95233c53613c0cd4440d590a9c7ff3e1c36b513d8aa2a843771a08abead293e592c27d77998c281a707a84bdc12be326a1a3033a01f1cabe11ba9b915af8469d911f2139c839ac3fe431bde2f66790293a15d984085e0435e968a20160b382a6144f1e17cca39cd85f883a7c001692a522a13205497e1f18b0a67810f207df42ba46b8958f43ad5331ddcd113ceb518d44490cd1f48e456f4a90e29fa3e5d6cf1155551d0ec816eccda7dcf6dc66d20b0137623f57e4148b1d83db5245869da973e3d201ac7c306202a99c0e8965e9d6154bd95e657d75206e14ffd2e0deda8d2f510d6a48c8c3e44e694cc2222e342c55fba6e32af8b3aa0029e13d5e3818b963b0d71e01ee7aa2bb525f705dbeedbccb77c03fee084b6de8f9c8ef564c43e8a0c8af8dd46c83e29833cbddeac180bf09d989a1deb16ce5fae9ca476d6eebee5afbea428ab5906f54d55760dd1ab9a19377531c274e9ff06f03a56a8696bca167389dcfb4b4108d0e3ffb655a00b9fc9579bbe41ab9e51ff2a3821fbd6ceef7b8b3b0e5bcc3e2fbc14d467c5447a5e6527d6199879a7aea614d48815e5b770ad0386e922ee4cd4746bb766626af80ff762f4afa41bed141f9459d79ca1a34a368f461263045f8c28e7d4beda931d7c655741f8b3a80ea10cac2f96995c3d85df14be33296d3e13d98eef28f8cdf05219ac651c8c2bc6efe6bdc33c66a693a878a9830717d5a52f790e73717942a55e79ea01442237b5f822352251369c3d57a9673bc4d63ad8f1b5925d3029b207d92c420ec0de6862fab1e3a546e976b68a0c7e76884c6ae67fb66fef136aaacce99b6526d4e97f5024c7546767951296cb522cab9f303cab990dc3461f39f98dbab17898e011e4ba2c79eff1ecfe569406f3a221092f8bb13c6cdf7d829f0bbc8a6f575498a2cf0637331ff7d3e0bad18082f123b5cd900641870119fe55f6e837906fb478d3947f94d5362574fff543063a803feb3372f130d4c2cada253a9ec6c05d7b9e844262c32db391d0beded0743b380d3deda806f2f6befdd4ffb7071c0b966c2cd1c41457516dd480186766d4eaf990dce308fa286f3c0e1b622ae664609e15955a84f9629f378fee6342d0962bd2de7cf49d65d0a3d17ceb09c0ca39dc3c412ef90f267a2e75443ac7b1bfe5133eeb66abeb49bf7984210de89921fb481ff0a3f3867fb9cc94412bf5e73c4acbaffac4835c662807b2702536fb1f8c2d84bb460e708de05c99cf77dc31e588205483a0cbe1c58e2a7c69c6d28d22e670e3e3faf472616863f411b9bd7360509c57f28153cf263a977000000",
  "txid": "760750abff3eedee0b98e597dbe36dc7f0ac065fd76bfe9c11bccdf9470d3c8a",
  "hash": "b567e8f31be6e6de1edb8b79d4b596b7f3546262af901d3cdcbf1ffca4ae1306",
  "size": 5085,
  "vsize": 2278,
  "version": 1,
  "locktime": 119,
  "vin": [
    {
      "txid": "06ffbbf7b4042d3e50abf31ae352a04276a1509dcd2e1010368ee464ed178e00",
      "vout": 1,
      "scriptSig": {
        "asm": "",
        "hex": ""
      },
      "txinwitness": [
        "5ca6a20e6a8e04e1d862d61ec09de87f956948956ef947c1b05ab8809be8ad3483569a4bb33c787c66e7934e877109e5f6f37200ca7b4f490a0d7da66fd4befd682e75f5cfe3621084446187495cea6892e7465b2b31362e4ba0d3fe0ed828146f6029a8982f962d6196f376355186bb71cdfebdaaaf2f36436ededff09929fab8a317655b5ab522cc16164a9aad3d363f8e2d29ea7397dcd422644a16dfbc721bde80d307372ccf3e95c92f21ac6d5a8d9d58bf74d2fc24b416bbf28d682c41eea145202a87f0a5a7322c98764f99897a77eb1eeadb82f86fe01bfd3c10316d7b103c239b1ecccc05ae1c806caa49de4908927c5b598dfef3437837849605b45b8f63dd22bd81d5ba2a330a68296ece38e3793b694abab232876d31066f794a00b60e3b0c0b1a247fa792469fbbe44d400cd64214253610b0e2772098150527cc7f16065c1acbfa0b311b397b1d8ce9db158eb5a9022f8ef703a70309d7b0f60756585f641fdc7d0d083da7fe8a46b025a350477d8f4c2ca26e8923311fafc49cc26f99a901584379df632d577a047cd7afb8cb324e2cd090ebbee7c9c1153719e8d5653f760d95efbc551b8fe43bce0dbf9d8f91e4df882bfb929a45c3b0519ce829380432c5c4fa09961bb67e0fdf3b3b163c97cd7021cf4f2acc01aff4333e46a447d633bb6bd16e01b19636e15e0dcda322983537ad8a7b92bffd8487f1b41dbd4ee2dfbae6071cf1099c11a74f0e0ca048b84d4366aa43f78e97465fa3cdf7955f36863d0837ffb9bee80420a882adef5a1d3f44f7b7c1d18f0bb737136fbf5b491a1cc4941a2920ce854c117c20047556fa809353f9045ab1513855b63128b8a56e24ccaf3501d1e8ce437bac76f70ba7071866c72c55ea570ec3c627407030d27ba217425cda695f19d069a38db788da045d0d72b155fceb0509c2130bf4d3c3a695cd2db145eb0dc1768e110fac5776fa14645dbb2ab3f05f69f02feb448b508a35da6384fde0ed4d972d8ebd434decb9fcacb854ef66a922490f0fb6cf0a77538fdff5053909ebb7dc6caaf7270a286b1dd81d28a848a5b2af3c33b95a778193ae894f6d66e99574b36e36f3168834ac457633259b920bc2a477fc072d98b8f8633e884e6d0eff90c494d85100b0f38bc30c82464bfa7fba92ae708cf630d9f8d042d5097daae9ac1bfc88b3d26bda9b9adafc530cffcff9a52efcac5e45b8600250f490b2ee7e521d8bdb7481392202d1262d9e85b27b57e7ac730cc2f513bf2f6f3a06546e25dc45fac048ca708815bca6451368291e03eb73e99cfe0f4541500216125f3699d8c1ec85f59b7f5d3fc0cd5772bd18bea0d18668df63a2026a16be01bded96f86fc2475d9970fd34c747968c4b2860cae446127f97532c75825f1ebfaf3b90d5203e264ba212aa32ee3aaa8fc45d542aa1e0c974a5f90076dbea13876d1b1a5443b2638dbbf2e3fbb2317cb880298dd445cd7e0461478f57f078cc0f18089100b60c52021ddac72de24fc3b23f95d9a52198461f9abda8278985c7394e7133457c0ccaf08b8420058315d13fa318676c2f8038f8614a3aa95d194f902b2d16a3a84c8a60d02062a7e95019cfc78c05dd7fc976078aa83d9176b038181a92a905139ac38e94d6a30d13c6a4efa61769502a1358fc80cddcd8f599ac36862d31a025c08d84eebaf9afef919ffae3a16dd61919442e19c35b19dd2fcce67b3bb20d769251dcaeeba4c39de17782940e84c0ef86317538466d8a1e91fdba7a8779972d3a89cc6cde05e4d3453ee2d1b48799deab4fc01135e449b687271c69c31810dc22d63b60a5f830e2b0a1ff8a285b1ffdb4f187e37b18a37f615eebc7f26a64101b5c6df44bc7585ef837ec595325f154449b8912efdb52d6db0c2fbfa6714fb5d0a3d9bcfb290135a02caab32dd2eeb6a45a01c86e98d6b6576c7e5b2f760153d84f73536c86bd32dbe4ce750a1600486b5c841908dc3bd13110bb07210116f565a52993dea58cf30e175d530672de69d06380e20087da0c24442831852d0b9a696b987dfbf31a366891912cce22419903c61f55182e7be9f5338477f79e0672fbffc6075dc7e1d0e4745c093344c4a02a5cb8d890b0c2aa67d62aa7a31292e80a417def9e4f06f45f4c8798d7ad5ef1ec0f8024bf0948852f6fc4b83c939e56cd5cd8d94489e411fd1b9047095fae900246484dda65fd5c304c8deddd94554e0f3ccb1f99c8186cc9199f747fca1eef04307e0fa7c0825efcb3a1c91657adab3fdb3ca367c5e9bdc17e117a25c25dd31dccc136d262e1e3022a8d44d9efa617873a78c3857fb595e4180b035307963d5b9f6e06db6b5b618622f7886643c587d6a9243bf077276f0b34166ec5451f9856dc90c8d41366b96c4820c51c96825aea7dfa57fda960a350b470d15251e3122ea0c561922be7d7af4f98b48edb439c827850a7347c882ae0dfe0e6a6b52e746199c3d1cf50df433c47161a5d2a2cc64bc07ef853e9331c1ea378cd0597275501754dff29f5ef0a64a6b377e9309a91fa3212d3484352d4501b7e3a5c8eebc4253b634e7f4b02c663bafa9623bcda9bab073bb7e2ba30f161c054c093c37bba450b89a7f66a3b12bb03f9355e758f869cd7dbf5e7109a7006fc3064ec62ac888a4c1b9e44a2e95ac105b808f50309f684a482071632ce0362fc7153ddc3aaa50b4a73ba0444ad7fa65688e4c6c919d683b3af09e2ab449accf10475a3157ed36c469ffd66e726437319fa6baf8b08aed95a84e9476f8f9ed82a363313f10362ac50c9ef12e7564ed0d6070020fd0a7f0aceac0882131e70d9bd9a2e3e1ed4a0a4d7fb2291296d79b2d38667b9dc627f143babc9c5ac0e5d63eccca861d28d6fe203befefc66a4859dfe4c1bb8e78fdeb82e21e625a2e49718ec6946de2d77d71e1b7d0d8c4f93faab7bb2925355897a640ce1e8564b9b758e9efefe540eabfe0f413417cc84b1c15b92fefa2023f36e159067f3592fde4ae10702a5594fbe6c2703b40849312555088c4fe73762578c86453c76916832e1cefb6b930b499b4ed7692c10bb9ed90eb71a5276ae3ff9921bee6e93d3784fd5e5ac31876baf6650fbc61866ae5f6acf92180cbff5b7c33a8719dbcc5a90309c54196cf9f9c876cf0cd71c5143863748a407ff64bb5ae07a57b695bdba9349aa18ac1a52ef23793c32519284642670b60f98b7f8211d16910f00130508f8d14b6904f95db2f0230b40b58d5e53bbcbd59e8af7a8e8522ec066fde3e850053519ced187fd0a51f68030070602030c0e1a393e45485d656a76a9aeb1d5e01a2032506775b6c0d6e20c11171b508994b2bfc6d7dcdeeaf50e1748505e5f7d80b7b8babccdd6e600000000000000000000000000000000000000000000121c2b3a01",
        "00515aea32b41814fd7af2a9b92c32f75eb6e9880520bc4fcf2177911fd2b251c57779093b04f84ab3a413203ff94883ac65329628fabd84e8feceabb6e2efb70145602834ae2e1c3c1ac45674b10698565ae131f54b9f486efde497126ad0c2541fad227d9e3a086a9812266847829adc108da4a67d7b4d1a62b9bc3562ff320d27153d32ba23534a6a52ba808cf9f2610038a54b04368aa3ada60983fa3efe370758d4cbc0d3774991af507d418ccd7fd282a25751322455660405c6831c75cc2c68952b3f541064f8afb3da4b2ce7717c460ace7f5fb0e5c6e42c645c061bcedf78010c311656f7530bcd49ae9c9225fa955decfc9f1b79ea2fbe8e7bb7e5a4743019e60dd5513ac579a46acc681c1981c7c2d99432eb59b9d051773012c65e852a6bf5ef0494f03d68356a70dfa1e3317c5bd7231ea1e7e3c36257599791ae7e39f90326d2c0d6a0887b65a7316351d0732922475cb107f7b03954b466e3abf3dd310fa960d6d7f728a48049d7a4894ab0e92fda8d6f5e95233c53613c0cd4440d590a9c7ff3e1c36b513d8aa2a843771a08abead293e592c27d77998c281a707a84bdc12be326a1a3033a01f1cabe11ba9b915af8469d911f2139c839ac3fe431bde2f66790293a15d984085e0435e968a20160b382a6144f1e17cca39cd85f883a7c001692a522a13205497e1f18b0a67810f207df42ba46b8958f43ad5331ddcd113ceb518d44490cd1f48e456f4a90e29fa3e5d6cf1155551d0ec816eccda7dcf6dc66d20b0137623f57e4148b1d83db5245869da973e3d201ac7c306202a99c0e8965e9d6154bd95e657d75206e14ffd2e0deda8d2f510d6a48c8c3e44e694cc2222e342c55fba6e32af8b3aa0029e13d5e3818b963b0d71e01ee7aa2bb525f705dbeedbccb77c03fee084b6de8f9c8ef564c43e8a0c8af8dd46c83e29833cbddeac180bf09d989a1deb16ce5fae9ca476d6eebee5afbea428ab5906f54d55760dd1ab9a19377531c274e9ff06f03a56a8696bca167389dcfb4b4108d0e3ffb655a00b9fc9579bbe41ab9e51ff2a3821fbd6ceef7b8b3b0e5bcc3e2fbc14d467c5447a5e6527d6199879a7aea614d48815e5b770ad0386e922ee4cd4746bb766626af80ff762f4afa41bed141f9459d79ca1a34a368f461263045f8c28e7d4beda931d7c655741f8b3a80ea10cac2f96995c3d85df14be33296d3e13d98eef28f8cdf05219ac651c8c2bc6efe6bdc33c66a693a878a9830717d5a52f790e73717942a55e79ea01442237b5f822352251369c3d57a9673bc4d63ad8f1b5925d3029b207d92c420ec0de6862fab1e3a546e976b68a0c7e76884c6ae67fb66fef136aaacce99b6526d4e97f5024c7546767951296cb522cab9f303cab990dc3461f39f98dbab17898e011e4ba2c79eff1ecfe569406f3a221092f8bb13c6cdf7d829f0bbc8a6f575498a2cf0637331ff7d3e0bad18082f123b5cd900641870119fe55f6e837906fb478d3947f94d5362574fff543063a803feb3372f130d4c2cada253a9ec6c05d7b9e844262c32db391d0beded0743b380d3deda806f2f6befdd4ffb7071c0b966c2cd1c41457516dd480186766d4eaf990dce308fa286f3c0e1b622ae664609e15955a84f9629f378fee6342d0962bd2de7cf49d65d0a3d17ceb09c0ca39dc3c412ef90f267a2e75443ac7b1bfe5133eeb66abeb49bf7984210de89921fb481ff0a3f3867fb9cc94412bf5e73c4acbaffac4835c662807b2702536fb1f8c2d84bb460e708de05c99cf77dc31e588205483a0cbe1c58e2a7c69c6d28d22e670e3e3faf472616863f411b9bd7360509c57f28153cf263a9"
      ],
      "sequence": 4294967294
    }
  ],
  "vout": [
    {
      "value": 499978.6451,
      "n": 0,
      "scriptPubKey": {
        "asm": "1 a14d1c1a690c088b24657b8c8efb6a562caa57fb051b406b0c870f7c81c56474",
        "hex": "5120a14d1c1a690c088b24657b8c8efb6a562caa57fb051b406b0c870f7c81c56474",
        "reqSigs": 1,
        "type": "witness_v1_scripthash",
        "addresses": [
          "3QJmnh"
        ]
      }
    },
    {
      "value": 1.0,
      "n": 1,
      "scriptPubKey": {
        "asm": "OP_RETURN 4e81e9f1211f931c8078c73c615e1ec09be9d1248a167f43746653b8348f0355 56bd1ae9e081518d6baa9db08b4e80abb6cf71b586feb369c711262efc4f74a6769d3ac9c0a171ad4b8abd90ab6ea08b96ef5195a6de9349e731060edc6f548616fd5aa9a0c111cd2beaddf0cb0ec0ebf68f31f5c6bef3298751666ebc0f34e636dd7a8980e131ed0bcafdd0eb2ee0cbd6af11d5e69ed309a771464e9c2f14c6d63d9a696001d10deb2a1d300bce002b364ff135067e33e94791a6ae7ccff426f61dba494021f12dcb0a3d102bee200b166fd115265e13c967b1868e5cefd406967dda292041914dab6a5d704b8e406b760fb175463e73a907d1e6ee3c8fb466b65dfa090061b16d8b4a7d506bae604b562f9155661e538927f1c6ce1caf944656bd1ae9e081518d6baa9db08b4e80abb6cf71b586feb369c711262efc4f74a6769d3ac9c0a171ad4b8abd90ab6ea08b96ef5195a6de9349e731060edc6f548616fd5aa9a0c111cd2beaddf0cb0ec0ebf68f31f5c6bef3298751666ebc0f34e636dd7a8980e131ed0bcafdd0eb2ee0cbd6af11d5e69ed309a771464e9c2f14c6d63d9a696001d10deb2a1d300bce002b364ff135067e33e94791a6ae7ccff426f61dba494021f12dcb0a3d102bee200b166fd115265e13c967b1868e5cefd406967dda292041914dab6a5d704b8e406b760fb175463e73a907d1e6ee3c8fb466b65dfa090061b16d8b4a7d506bae604b562f9155661e538927f1c6ce1caf944656bd1ae9e081518d6baa9db08b4e80abb6cf71b586feb369c711262efc4f74a6769d3ac9c0a171ad4b8abd90ab6ea08b96ef5195a6de9349e731060edc6f548616fd5aa9a0c111cd2beaddf0cb0ec0ebf68f31f5c6bef3298751666ebc0f34e636dd7a8980e131ed0bcafdd0eb2ee0cbd6af11d5e69ed309a771464e9c2f14c6d63d9a696001d10deb2a1d300bce002b364ff135067e33e94791a6ae7ccff426f61dba494021f12dcb0a3d102bee200b166fd115265e13c967b1868e5cefd406967dda292041914dab6a5d704b8e406b760fb175463e73a907d1e6ee3c8fb466b65dfa090061b16d8b4a7d506bae604b562f9155661e538927f1c6ce1caf944656bd1ae9e081518d6baa9db08b4e80abb6cf71b586feb369c711262efc4f74a6769d3ac9c0a171ad4b8abd90ab6ea08b96ef5195a6de9349e731060edc6f548616fd5aa9a0c111cd2beaddf0cb0ec0ebf68f31f5c6bef3298751666ebc0f34e636dd7a8980e131ed0bcafdd0eb2ee0cbd6af11d5e69ed309a771464e9c2f14c6d63d9a696001d10deb2a1d300bce002b364ff135067e33e94791a6ae7ccff426f61dba494021f12dcb0a3d102bee200b166fd115265e13c967b1868e5cefd406967dda292041914dab6a5d704b8e406b760fb175463e73a907d1e6ee3c8fb466b65dfa090061b16d8b4a7d506bae604b562f9155661e538927f1c6ce1caf944656bd1ae9e081518d6baa9db08b4e80abb6cf71b586feb369c711262efc4f74a6769d3ac9c0a171ad4b8abd90ab6ea08b96ef5195a6de9349e731060edc6f548616fd5aa9a0c111cd2beaddf0cb0ec0ebf68f31f5c6bef3298751666ebc0f34e636dd7a8980e131ed0bcafdd0eb2ee0cbd6af11d5e69ed309a771464e9c2f14c6d63d9a696001d10deb2a1d300bce002bfcd4b4cf91c5ecea8976a55631dc32a871734964b2cd893f23ca59554cca230a",
        "hex": "6a204e81e9f1211f931c8078c73c615e1ec09be9d1248a167f43746653b8348f03554db00456bd1ae9e081518d6baa9db08b4e80abb6cf71b586feb369c711262efc4f74a6769d3ac9c0a171ad4b8abd90ab6ea08b96ef5195a6de9349e731060edc6f548616fd5aa9a0c111cd2beaddf0cb0ec0ebf68f31f5c6bef3298751666ebc0f34e636dd7a8980e131ed0bcafdd0eb2ee0cbd6af11d5e69ed309a771464e9c2f14c6d63d9a696001d10deb2a1d300bce002b364ff135067e33e94791a6ae7ccff426f61dba494021f12dcb0a3d102bee200b166fd115265e13c967b1868e5cefd406967dda292041914dab6a5d704b8e406b760fb175463e73a907d1e6ee3c8fb466b65dfa090061b16d8b4a7d506bae604b562f9155661e538927f1c6ce1caf944656bd1ae9e081518d6baa9db08b4e80abb6cf71b586feb369c711262efc4f74a6769d3ac9c0a171ad4b8abd90ab6ea08b96ef5195a6de9349e731060edc6f548616fd5aa9a0c111cd2beaddf0cb0ec0ebf68f31f5c6bef3298751666ebc0f34e636dd7a8980e131ed0bcafdd0eb2ee0cbd6af11d5e69ed309a771464e9c2f14c6d63d9a696001d10deb2a1d300bce002b364ff135067e33e94791a6ae7ccff426f61dba494021f12dcb0a3d102bee200b166fd115265e13c967b1868e5cefd406967dda292041914dab6a5d704b8e406b760fb175463e73a907d1e6ee3c8fb466b65dfa090061b16d8b4a7d506bae604b562f9155661e538927f1c6ce1caf944656bd1ae9e081518d6baa9db08b4e80abb6cf71b586feb369c711262efc4f74a6769d3ac9c0a171ad4b8abd90ab6ea08b96ef5195a6de9349e731060edc6f548616fd5aa9a0c111cd2beaddf0cb0ec0ebf68f31f5c6bef3298751666ebc0f34e636dd7a8980e131ed0bcafdd0eb2ee0cbd6af11d5e69ed309a771464e9c2f14c6d63d9a696001d10deb2a1d300bce002b364ff135067e33e94791a6ae7ccff426f61dba494021f12dcb0a3d102bee200b166fd115265e13c967b1868e5cefd406967dda292041914dab6a5d704b8e406b760fb175463e73a907d1e6ee3c8fb466b65dfa090061b16d8b4a7d506bae604b562f9155661e538927f1c6ce1caf944656bd1ae9e081518d6baa9db08b4e80abb6cf71b586feb369c711262efc4f74a6769d3ac9c0a171ad4b8abd90ab6ea08b96ef5195a6de9349e731060edc6f548616fd5aa9a0c111cd2beaddf0cb0ec0ebf68f31f5c6bef3298751666ebc0f34e636dd7a8980e131ed0bcafdd0eb2ee0cbd6af11d5e69ed309a771464e9c2f14c6d63d9a696001d10deb2a1d300bce002b364ff135067e33e94791a6ae7ccff426f61dba494021f12dcb0a3d102bee200b166fd115265e13c967b1868e5cefd406967dda292041914dab6a5d704b8e406b760fb175463e73a907d1e6ee3c8fb466b65dfa090061b16d8b4a7d506bae604b562f9155661e538927f1c6ce1caf944656bd1ae9e081518d6baa9db08b4e80abb6cf71b586feb369c711262efc4f74a6769d3ac9c0a171ad4b8abd90ab6ea08b96ef5195a6de9349e731060edc6f548616fd5aa9a0c111cd2beaddf0cb0ec0ebf68f31f5c6bef3298751666ebc0f34e636dd7a8980e131ed0bcafdd0eb2ee0cbd6af11d5e69ed309a771464e9c2f14c6d63d9a696001d10deb2a1d300bce002bfcd4b4cf91c5ecea8976a55631dc32a871734964b2cd893f23ca59554cca230a",
        "type": "nulldata"
      }
    }
  ],
  "blockhash": "2c44072194b49e49486c87ae6b37abdd6c2c23e2c7b477f70371a1b5276080d1",
  "confirmations": 1,
  "time": 1764179865,
  "blocktime": 1764179865
}