{
  "hex": "01000000000101a6de2c7a6c08217ef6bde5efe9ddc3b60314b8f8b2ee17f0a5145b114a855ebf0000000000feffffff0200e1f50500000000fdd5046a203cec53533584d5903e596480552029a15b7687f6ad7d3328a3f806ec890348bb4db00426deed9e265ac29b76d3ca988513fcaf9e4d26b780dc8a2051aaff0254c282c106fecdbe067ae2bb56f3eab8a533dc8fbe6d0697a0fcaa00718adf2274e2a2e1669eadde661a82db36938ad8c553bcefde0d66f7c09cca6011eabf421482c28146be8dfe463aa2fb16b3aaf8e5739ccffe2d46d7e0bcea4031ca9f6234a2e2a1a65e6d1ea6da421bf6534a1805937c2f1ecda637005c0aa0d12a7f82d4420241867e4d3e86fa623bd6736a3825b35c0f3eed8617207c2a80f10a5fa2f4622261e61e2d5ee69a025bb6130a5845d33c6f5e8de677401c4ae0916a3fc294024201c63e0d7ec6ba227b96332a7865f31c4f7eadc657603c6ac0b14a1fe2b422622126deed9e265ac29b76d3ca988513fcaf9e4d26b780dc8a2051aaff0254c282c106fecdbe067ae2bb56f3eab8a533dc8fbe6d0697a0fcaa00718adf2274e2a2e1669eadde661a82db36938ad8c553bcefde0d66f7c09cca6011eabf421482c28146be8dfe463aa2fb16b3aaf8e5739ccffe2d46d7e0bcea4031ca9f6234a2e2a1a65e6d1ea6da421bf6534a1805937c2f1ecda637005c0aa0d12a7f82d4420241867e4d3e86fa623bd6736a3825b35c0f3eed8617207c2a80f10a5fa2f4622261e61e2d5ee69a025bb6130a5845d33c6f5e8de677401c4ae0916a3fc294024201c63e0d7ec6ba227b96332a7865f31c4f7eadc657603c6ac0b14a1fe2b422622126deed9e265ac29b76d3ca988513fcaf9e4d26b780dc8a2051aaff0254c282c106fecdbe067ae2bb56f3eab8a533dc8fbe6d0697a0fcaa00718adf2274e2a2e1669eadde661a82db36938ad8c553bcefde0d66f7c09cca6011eabf421482c28146be8dfe463aa2fb16b3aaf8e5739ccffe2d46d7e0bcea4031ca9f6234a2e2a1a65e6d1ea6da421bf6534a1805937c2f1ecda637005c0aa0d12a7f82d4420241867e4d3e86fa623bd6736a3825b35c0f3eed8617207c2a80f10a5fa2f4622261e61e2d5ee69a025bb6130a5845d33c6f5e8de677401c4ae0916a3fc294024201c63e0d7ec6ba227b96332a7865f31c4f7eadc657603c6ac0b14a1fe2b422622126deed9e265ac29b76d3ca988513fcaf9e4d26b780dc8a2051aaff0254c282c106fecdbe067ae2bb56f3eab8a533dc8fbe6d0697a0fcaa00718adf2274e2a2e1669eadde661a82db36938ad8c553bcefde0d66f7c09cca6011eabf421482c28146be8dfe463aa2fb16b3aaf8e5739ccffe2d46d7e0bcea4031ca9f6234a2e2a1a65e6d1ea6da421bf6534a1805937c2f1ecda637005c0aa0d12a7f82d4420241867e4d3e86fa623bd6736a3825b35c0f3eed8617207c2a80f10a5fa2f4622261e61e2d5ee69a025bb6130a5845d33c6f5e8de677401c4ae0916a3fc294024201c63e0d7ec6ba227b96332a7865f31c4f7eadc657603c6ac0b14a1fe2b422622126deed9e265ac29b76d3ca988513fcaf9e4d26b780dc8a2051aaff0254c282c106fecdbe067ae2bb56f3eab8a533dc8fbe6d0697a0fcaa00718adf2274e2a2e1669eadde661a82db36938ad8c553bcefde0d66f7c09cca6011eabf421482c28146be8dfe463aa2fb16b3aaf8e5739ccffe2d46d7e0bcea4031ca9f6234a2e2a1a65e6d1ea6da421bf6534a1805937c2f93e453300fbaa0cf54f9ac4dd33cf7583c940608907f0820cbea7776f36256ddf077b5f0782d00002251207985682f17031bf6236321f7d1bcded481f03463e525cfb0193f55181ba60b6802fd750912fc130c44447501f7a63fbaeffa121ef944681afac421b6bf3eb2d8b0f25b8ad1c5a307f2233235e36783f989f510a6aa70aa73ad4fb625c78ff90bb97bf45253d5690aae871ea4f9c453177040025b59fe0febd588b5b2826010067e7cb6f823900751e4d44629c50357f2eebbde703358735b322aeab80a34a194e5ac414265dd52260c3918ca287d14cb0dae6eb173b32b005a5c5de1325b4f0c73adc447e0acee4a3f7d732e5b440a4f633bd394d7b1d99550fdd593f70562483c43b05628cc19cadb5b8cbf9e185d793a111ac8571289f5a796f90f92a790add7a222d6d9ba5ddfae0fa15b5ef5b237747c675bf0f994e15ad0543acabf439969c9619fc5f31a57578b47c2384813a6abd3f291a0c7bf124df8bf89c545b0f414cee47254661a81ec6b56a644137e5c0c6a56bdd6f8088b029f0656a04ae581a7cbcb3e8b20425c1eaa56bbac9785abdfa2bee973562e2a8e5de0847cbe19b4c6291323f19745d50cbdb240da2df7acb80b28e519c3bc8bb21ed8e3a0d5937be7bdeaa8bb82259c85a53b21b3d54ea0e67349c696ed6e92b3d08bf3a3fe5f0ddeaee17d07630786f4b7492a9241b9fc7be29b067a9639b00809af7e6134e4144dcbf79d644accc2ef12c411ce6b60b21d5e2215bf0d83c192f2f29fe1090ce0c8e513d5bde2c21141abfbdd1b80733df1a21c5500ef9ce379f17d9d8e44f72b9ac5de36ebaffb57848c8ce4d3f40ae6cf40978d6350fbdc2d9f8ef135fbd389c5a12bdb50938911229a9801bb06a0132b4d4451a363c8484ee0f62d304e9abf0338b950b5dc0a2f3a3a02a582addcdeba43ab18f3de19d07888130581da67fa4ef409c6a54b207f49439ae8b5721ee8fb4ce17d81f5ad3ca5e850e999c8cdbea06d9688f3983d782b1cae5712c6eb4bd13aa1b4d3cd354a0ce46357b7886ec5439b9fc22e698f7973c91120235e55b860b10a2bcc28f40e7681adfd4c10bbf7351fcf1ce9b5cf54dd56e7dc3c9b601f6cd43d6183f39137d82876f0b2de2159370eff7cdbe52166bd5a0533f650444833aabea154e849f3786a8dfaf9a8aa376c4a2c786bddadaac107b9d629a06d61a9fbade7f6a5a55476de472a40780a3fa9776e224cca445dac9951ddf4753be3d840f6304ae76c6939755e8e178622ef2f9c3a1cb59738440ead2753f8239834ca55179eb4eea2a8445c80fcc765443f0a90bdd42730ddcb03009fb9fec32a816f592e05a0ce615c480c49d00266b7385789ec873c424eacd0d50fcee1a44db6c762192b80b4e20c333c4c8ea7cea120beef311fe1451744f9fd0d84f5bd901571390931f786a1a7acf63305b47809fe8428dfddf0308ceb6620b416ac0685a642a111a08b0553cd82f9ab1a0b55e16765ea319317fd0d14cbb59ff6813f8648f9715130b7b17c71c328dbc75999f17d1d4373704e7c09c3a4c5b364db80b18fc2d298f2cdfc119bacf9c057457e9ca4bcaf3a0f943eeecd905f08415cf6a734a62fe4c9631c0eba9cd3911b21fe33627ae41ac59d68df6cb7477ce3116c6736c3ef9e59c13277a07da85a0271d742f95c3f76d2fd601346e0afe952f5a25a96a737ee591e10d5d0db09ecd0ed2e0027b7bbf0233c1062149977f9ee2bb90ea7217ce29ceb1908bc617cfdb6415b45cbe77bd69f21d17fb1a3a3b796fa47b6368a5f42bfeff08695740c9a48e4d8f03b6fdf5fbfeea43c69293070dedc456032e1db72d19c991b90a08bf8ebf32a7a8e8bf8a714b150ef2e3bf610a6ee68371a8341932526d88f76a629962dba82b11813e242b243c3c514d088e721c67a92f85312436cfb07a28edc9226166cc3a0717d77080c78a4e718cfc9babd84cabb64035a831260ffb367d9e5856f5d6c753a31cd43bc86feae504126848b949c53f63ac5341783ff169e408a047f804556ae80ffc1e26f1b8ef25ac1ed7548903d2dc8cf6a27230a7ec86e2430945290e374c80b2aa964abff0b68ef2469f20c2b1cf6f16f38aaf0d502248fd8b4047c471e4e09f4a6ef40952f3d2cd18a85c349da6c54cb0ac536b74826d4b8aec9d42badfd48aa275f171365729e4902b3b3041696d5585431e20f7d92c14be545d2d62f712c12f3696838110b9f4edbd98379d107560213a4d3e240eb5ea6938692cadc51524fe265cc312f97ede0b01866505c17f645e3ea78ec495d88e033a955f0f15877c4b27e3c647387e964ad317fd3c3a0a0f0fce4cbafbbd010a93f910971325fc0a8d416a5167c0fd6bc7a99be5244357b5bfef2d5f60438819caca88ec6aee4ba4e3ea984effe137ec6ecfb975c1181d581c44c4f72734f85a67749b8c7ecea3d76ad55a54821bbd4c76c7d2d53520a33edfdf74337eec1754e97ec6cc08b92af4a4b3b4f07bb55ed09e102fe49f8bea97ca3f5058cfc8483503356f757a53715e7730c6b31c84d213b3a69bf526d7d983002c7a1e3f75de08e669e24e1f87e59b390109745e90c2587a87fa6e9877a81b649a578f089872ad60fb81437e06192af8170aa66a56da1e28a7a5c3c93eaccf794cc6d889174bb0a799b16adc6bfbb2e0907cfc3e662bb3e7fc74382ab36ca688d27c1c2773882a2f200a83452cc69e53589507b04497bd582658c992f2ef8a9fbc80f1161bca6cf67a1ed7bef827e05c70b2c840e542adfae2c03654ca2a75d7c5d23d5413befda70260a1e317d4364f2f0e24baa398a333ffb2995c1539b82b1ebf7bc436368fd617a1c6a0e4fb84b6861ad8a0a0c77a6b5a0d75b797bd21e7fed665eb05888b82b034711aee0e982feecec13a11dfafdcc114be3845a4e149dfe523a5507cc2003135a7df6685144b284ea70f3a5b6256c55e711819ce585deb68f79d9065e21ec3d177c49431c3a7fba15b03190aed05e77fe866c5f33a894415bcb6d659bd68e041928b619b82013109171a0ef926be82e72d3d5b4917f73f5dfe1dacc1d757e42db7b145503b5492d73d63db66f8c359573f7484ab7ef4e68ff15cf69d154c90b242ee3f1a44a7373d41572528d9c73819f592d6c05fcbe4ca601b0cafd77b65e58e556e0fdbc15ff79f1ddf68b3f9da789a56b6b2da02a8ac1921a30a9e48bfd71954869f2608c6557f780ad33d0c26e29bba45dd0c0afab45c73b2f23bb6a32b9b2cf97db19b6c3f2915ba7e50d474192513414712603b413c4f3a77da909a51f9fd72a54eb4709b996a4aab47279a0aa475cab4414916f6001ed9a29166659ea5e4cc17bec2f0a628f39cd4cb6f47b126b680211154fa486d83ead3071fd3ae4e5f4e06a381f071f366178b2bed7d8e5f4010d18363e4556656d707a89a9bedee4fa0a12406a6d7593b2bfc3dbe4eff5030b1c2c33505c618f90acc8ddf4fd00000000000000000000000000000000000000000000000b1c2a3901fd21050085959a9ee1c31053ce92b9a3839d56a74b1c5cda58c1257f393190ae10dfaa56b4fd45de0ab05d49b0c8b2c0956beebb51d891c30a8ac621f443f23d5beb93e49aa0e8c435c8585d12545a1ba89c37866b72fd0e3f93e32497c6dd059605d16c6ec6dd464e627f0740429eb3cb79450deee36ceb88ed56cea0887095d602ce29e7b3c9a72678f41ca04de801439b06ab4a3ec78a2366136415cb7a869b01a8a954805448e69d8956015633da4a4331b5d32161cbbcd42d9b07aab30ebf2f1aab73ab563e6b9e18ccaf6f4d8f3e7a6a15ea65e7b28ee1f423827313f7b5d476427200187dd5d2aea44b39ab2a2146deacb4a6024a3724d62fb82e410fc7e28e89a2d7c9dbfb4edc21d1617a005fa2a113522f4b724bd50536cc90e71f7c79089cca5a7a5b557ae2e0312f5b15a305bf0281c4c9a2588472d9fed7c52909caafd3fa18e07e8699a44b9f3e3627223ac682b1f9d134aef80fd640fd7191551acdfd4ea406afb086645c8d89688ad7a08ebd01b3fe5d186d43c23139c07464a7e26caaeb2a0c452b7fcbb4d2e89e21360053a8e39890af18694b792235b4c02177074611e987fa5d025d1eac8189618fe5961f0fa9e2aa464ebe90aed66c7df992f477ef911b8a66f668746a33fe64945831cee40cf69915486b122c1d0e27dcd052ef0576ddd6af0b2f1e08ebc9c907edced2f0ee3f52312c3b3e50b38b641a5ad1449ea71bdb1ae826e677a9949f462e3a2b0aab328a29a9e4ac9dad38730439918d8b4c97be8d467a2eb1b2459d2c593b77f6a8fa5f5fdda4b223eef67afbcb021e7fe014c751958646da5c53e54aacc9b4acc6bd88e966e5d3e2f5f247db8951160f0491d19d9e6652d2bc82ae643f9d14c7ee5ec5e5cf8ff0be07fb4c1fd2f48c5cab15a5790f43eb35f23d1f1d74079b3d02a67d2f4e26432a8f49164efc79af4c36998e32b4cc7157a29dd036463351f09f9daa24b81777799d692eb09abc657d44ac7fb04dd5ca57865348066fa939fc20389d6295a03cf8abca5c5bf8ecbe346d5049abc9204e01c0e89af57b066e3866aa0d4dd1825dc5cf7262292ce5caa4b2bea884f99135bf47f20f8e7e277e020e1e5017c1fbca4ce368c45e4ce8bfc7b7499d72855249a9da1b5241e07f2070b284847a38fe3044efd2a864eca429a06f210171d05494e3ad3752805c3a2b950ee70a2b6b89fdb252baadcc648473b604638e252718038ad67c575dd8631281a87fbafcc4823c9e818026dbdc926554299d85135d6108eff36f0aec9475761b6e7d13359264a205b2b05b6c5e24da7098c4bc478207804a2d0eedb8f99376c81d258fb3526b4cff0a17df6db2b47c54e1fe479369ff6c1874f0645f7c6ac52d63590e98603a1d1442715620439e3356ec6f97c73e312b69e1b36a03f543de4e691b01198a5a8efa65b07f08ee3ba10da62e3d787388310c7779a6f105087c69e66c35d457be3940399cd489d4711a23d6405123682dc2ebdd9a0ce7830fdeea896aad5e65946932bb3a625ddb0e0122161e83cb08004d39d48c530e69b04fe350795a0526d80a1d006bc3444baf12356d3e341c11e6104837750c49d3bbb03f2758f085dec9b1bce96eef2848a2b0e12e2a10d3f5707d0dd3fa889dbe8ff5d00d63b742153cda012b80ff675ac6eb79a33a8dd33ae21c3afa9545bae7aca06ea37d838fb16c301aa43827b4ba77a0ec561483b5510e91ff30f8d67371016e91b96056f01e9a568f9760fc954fd20d2b184dbf30cb9f72890a8d2daa2d55d8b219b290267c9e3243681ceff494d3842964adf6657d10b67dca0866ed3f3586010d58da4b0c6005716789f65a29257b000000",
  "txid": "7c80409d564af52e1ca675ae7691fa57870462b86d227da88cebd9ffe63992cc",
  "hash": "0a9c4a8a3042a6535f50f7e97db532703f84a82bcf5c5b1417bfc18a32957190",
  "size": 5085,
  "vsize": 2278,
  "version": 1,
  "locktime": 123,
  "vin": [
    {
      "txid": "bf5e854a115b14a5f017eeb2f8b81403b6c3dde9efe5bdf67e21086c7a2cdea6",
      "vout": 0,
      "scriptSig": {
        "asm": "",
        "hex": ""
      },
      "txinwitness": [
        "12fc130c44447501f7a63fbaeffa121ef944681afac421b6bf3eb2d8b0f25b8ad1c5a307f2233235e36783f989f510a6aa70aa73ad4fb625c78ff90bb97bf45253d5690aae871ea4f9c453177040025b59fe0febd588b5b2826010067e7cb6f823900751e4d44629c50357f2eebbde703358735b322aeab80a34a194e5ac414265dd52260c3918ca287d14cb0dae6eb173b32b005a5c5de1325b4f0c73adc447e0acee4a3f7d732e5b440a4f633bd394d7b1d99550fdd593f70562483c43b05628cc19cadb5b8cbf9e185d793a111ac8571289f5a796f90f92a790add7a222d6d9ba5ddfae0fa15b5ef5b237747c675bf0f994e15ad0543acabf439969c9619fc5f31a57578b47c2384813a6abd3f291a0c7bf124df8bf89c545b0f414cee47254661a81ec6b56a644137e5c0c6a56bdd6f8088b029f0656a04ae581a7cbcb3e8b20425c1eaa56bbac9785abdfa2bee973562e2a8e5de0847cbe19b4c6291323f19745d50cbdb240da2df7acb80b28e519c3bc8bb21ed8e3a0d5937be7bdeaa8bb82259c85a53b21b3d54ea0e67349c696ed6e92b3d08bf3a3fe5f0ddeaee17d07630786f4b7492a9241b9fc7be29b067a9639b00809af7e6134e4144dcbf79d644accc2ef12c411ce6b60b21d5e2215bf0d83c192f2f29fe1090ce0c8e513d5bde2c21141abfbdd1b80733df1a21c5500ef9ce379f17d9d8e44f72b9ac5de36ebaffb57848c8ce4d3f40ae6cf40978d6350fbdc2d9f8ef135fbd389c5a12bdb50938911229a9801bb06a0132b4d4451a363c8484ee0f62d304e9abf0338b950b5dc0a2f3a3a02a582addcdeba43ab18f3de19d07888130581da67fa4ef409c6a54b207f49439ae8b5721ee8fb4ce17d81f5ad3ca5e850e999c8cdbea06d9688f3983d782b1cae5712c6eb4bd13aa1b4d3cd354a0ce46357b7886ec5439b9fc22e698f7973c91120235e55b860b10a2bcc28f40e7681adfd4c10bbf7351fcf1ce9b5cf54dd56e7dc3c9b601f6cd43d6183f39137d82876f0b2de2159370eff7cdbe52166bd5a0533f650444833aabea154e849f3786a8dfaf9a8aa376c4a2c786bddadaac107b9d629a06d61a9fbade7f6a5a55476de472a40780a3fa9776e224cca445dac9951ddf4753be3d840f6304ae76c6939755e8e178622ef2f9c3a1cb59738440ead2753f8239834ca55179eb4eea2a8445c80fcc765443f0a90bdd42730ddcb03009fb9fec32a816f592e05a0ce615c480c49d00266b7385789ec873c424eacd0d50fcee1a44db6c762192b80b4e20c333c4c8ea7cea120beef311fe1451744f9fd0d84f5bd901571390931f786a1a7acf63305b47809fe8428dfddf0308ceb6620b416ac0685a642a111a08b0553cd82f9ab1a0b55e16765ea319317fd0d14cbb59ff6813f8648f9715130b7b17c71c328dbc75999f17d1d4373704e7c09c3a4c5b364db80b18fc2d298f2cdfc119bacf9c057457e9ca4bcaf3a0f943eeecd905f08415cf6a734a62fe4c9631c0eba9cd3911b21fe33627ae41ac59d68df6cb7477ce3116c6736c3ef9e59c13277a07da85a0271d742f95c3f76d2fd601346e0afe952f5a25a96a737ee591e10d5d0db09ecd0ed2e0027b7bbf0233c1062149977f9ee2bb90ea7217ce29ceb1908bc617cfdb6415b45cbe77bd69f21d17fb1a3a3b796fa47b6368a5f42bfeff08695740c9a48e4d8f03b6fdf5fbfeea43c69293070dedc456032e1db72d19c991b90a08bf8ebf32a7a8e8bf8a714b150ef2e3bf610a6ee68371a8341932526d88f76a629962dba82b11813e242b243c3c514d088e721c67a92f85312436cfb07a28edc9226166cc3a0717d77080c78a4e718cfc9babd84cabb64035a831260ffb367d9e5856f5d6c753a31cd43bc86feae504126848b949c53f63ac5341783ff169e408a047f804556ae80ffc1e26f1b8ef25ac1ed7548903d2dc8cf6a27230a7ec86e2430945290e374c80b2aa964abff0b68ef2469f20c2b1cf6f16f38aaf0d502248fd8b4047c471e4e09f4a6ef40952f3d2cd18a85c349da6c54cb0ac536b74826d4b8aec9d42badfd48aa275f171365729e4902b3b3041696d5585431e20f7d92c14be545d2d62f712c12f3696838110b9f4edbd98379d107560213a4d3e240eb5ea6938692cadc51524fe265cc312f97ede0b01866505c17f645e3ea78ec495d88e033a955f0f15877c4b27e3c647387e964ad317fd3c3a0a0f0fce4cbafbbd010a93f910971325fc0a8d416a5167c0fd6bc7a99be5244357b5bfef2d5f60438819caca88ec6aee4ba4e3ea984effe137ec6ecfb975c1181d581c44c4f72734f85a67749b8c7ecea3d76ad55a54821bbd4c76c7d2d53520a33edfdf74337eec1754e97ec6cc08b92af4a4b3b4f07bb55ed09e102fe49f8bea97ca3f5058cfc8483503356f757a53715e7730c6b31c84d213b3a69bf526d7d983002c7a1e3f75de08e669e24e1f87e59b390109745e90c2587a87fa6e9877a81b649a578f089872ad60fb81437e06192af8170aa66a56da1e28a7a5c3c93eaccf794cc6d889174bb0a799b16adc6bfbb2e0907cfc3e662bb3e7fc74382ab36ca688d27c1c2773882a2f200a83452cc69e53589507b04497bd582658c992f2ef8a9fbc80f1161bca6cf67a1ed7bef827e05c70b2c840e542adfae2c03654ca2a75d7c5d23d5413befda70260a1e317d4364f2f0e24baa398a333ffb2995c1539b82b1ebf7bc436368fd617a1c6a0e4fb84b6861ad8a0a0c77a6b5a0d75b797bd21e7fed665eb05888b82b034711aee0e982feecec13a11dfafdcc114be3845a4e149dfe523a5507cc2003135a7df6685144b284ea70f3a5b6256c55e711819ce585deb68f79d9065e21ec3d177c49431c3a7fba15b03190aed05e77fe866c5f33a894415bcb6d659bd68e041928b619b82013109171a0ef926be82e72d3d5b4917f73f5dfe1dacc1d757e42db7b145503b5492d73d63db66f8c359573f7484ab7ef4e68ff15cf69d154c90b242ee3f1a44a7373d41572528d9c73819f592d6c05fcbe4ca601b0cafd77b65e58e556e0fdbc15ff79f1ddf68b3f9da789a56b6b2da02a8ac1921a30a9e48bfd71954869f2608c6557f780ad33d0c26e29bba45dd0c0afab45c73b2f23bb6a32b9b2cf97db19b6c3f2915ba7e50d474192513414712603b413c4f3a77da909a51f9fd72a54eb4709b996a4aab47279a0aa475cab4414916f6001ed9a29166659ea5e4cc17bec2f0a628f39cd4cb6f47b126b680211154fa486d83ead3071fd3ae4e5f4e06a381f071f366178b2bed7d8e5f4010d18363e4556656d707a89a9bedee4fa0a12406a6d7593b2bfc3dbe4eff5030b1c2c33505c618f90acc8ddf4fd00000000000000000000000000000000000000000000000b1c2a3901",
        "0085959a9ee1c31053ce92b9a3839d56a74b1c5cda58c1257f393190ae10dfaa56b4fd45de0ab05d49b0c8b2c0956beebb51d891c30a8ac621f443f23d5beb93e49aa0e8c435c8585d12545a1ba89c37866b72fd0e3f93e32497c6dd059605d16c6ec6dd464e627f0740429eb3cb79450deee36ceb88ed56cea0887095d602ce29e7b3c9a72678f41ca04de801439b06ab4a3ec78a2366136415cb7a869b01a8a954805448e69d8956015633da4a4331b5d32161cbbcd42d9b07aab30ebf2f1aab73ab563e6b9e18ccaf6f4d8f3e7a6a15ea65e7b28ee1f423827313f7b5d476427200187dd5d2aea44b39ab2a2146deacb4a6024a3724d62fb82e410fc7e28e89a2d7c9dbfb4edc21d1617a005fa2a113522f4b724bd50536cc90e71f7c79089cca5a7a5b557ae2e0312f5b15a305bf0281c4c9a2588472d9fed7c52909caafd3fa18e07e8699a44b9f3e3627223ac682b1f9d134aef80fd640fd7191551acdfd4ea406afb086645c8d89688ad7a08ebd01b3fe5d186d43c23139c07464a7e26caaeb2a0c452b7fcbb4d2e89e21360053a8e39890af18694b792235b4c02177074611e987fa5d025d1eac8189618fe5961f0fa9e2aa464ebe90aed66c7df992f477ef911b8a66f668746a33fe64945831cee40cf69915486b122c1d0e27dcd052ef0576ddd6af0b2f1e08ebc9c907edced2f0ee3f52312c3b3e50b38b641a5ad1449ea71bdb1ae826e677a9949f462e3a2b0aab328a29a9e4ac9dad38730439918d8b4c97be8d467a2eb1b2459d2c593b77f6a8fa5f5fdda4b223eef67afbcb021e7fe014c751958646da5c53e54aacc9b4acc6bd88e966e5d3e2f5f247db8951160f0491d19d9e6652d2bc82ae643f9d14c7ee5ec5e5cf8ff0be07fb4c1fd2f48c5cab15a5790f43eb35f23d1f1d74079b3d02a67d2f4e26432a8f49164efc79af4c36998e32b4cc7157a29dd036463351f09f9daa24b81777799d692eb09abc657d44ac7fb04dd5ca57865348066fa939fc20389d6295a03cf8abca5c5bf8ecbe346d5049abc9204e01c0e89af57b066e3866aa0d4dd1825dc5cf7262292ce5caa4b2bea884f99135bf47f20f8e7e277e020e1e5017c1fbca4ce368c45e4ce8bfc7b7499d72855249a9da1b5241e07f2070b284847a38fe3044efd2a864eca429a06f210171d05494e3ad3752805c3a2b950ee70a2b6b89fdb252baadcc648473b604638e252718038ad67c575dd8631281a87fbafcc4823c9e818026dbdc926554299d85135d6108eff36f0aec9475761b6e7d13359264a205b2b05b6c5e24da7098c4bc478207804a2d0eedb8f99376c81d258fb3526b4cff0a17df6db2b47c54e1fe479369ff6c1874f0645f7c6ac52d63590e98603a1d1442715620439e3356ec6f97c73e312b69e1b36a03f543de4e691b01198a5a8efa65b07f08ee3ba10da62e3d787388310c7779a6f105087c69e66c35d457be3940399cd489d4711a23d6405123682dc2ebdd9a0ce7830fdeea896aad5e65946932bb3a625ddb0e0122161e83cb08004d39d48c530e69b04fe350795a0526d80a1d006bc3444baf12356d3e341c11e6104837750c49d3bbb03f2758f085dec9b1bce96eef2848a2b0e12e2a10d3f5707d0dd3fa889dbe8ff5d00d63b742153cda012b80ff675ac6eb79a33a8dd33ae21c3afa9545bae7aca06ea37d838fb16c301aa43827b4ba77a0ec561483b5510e91ff30f8d67371016e91b96056f01e9a568f9760fc954fd20d2b184dbf30cb9f72890a8d2daa2d55d8b219b290267c9e3243681ceff494d3842964adf6657d10b67dca0866ed3f3586010d58da4b0c6005716789f65a2925"
      ],
      "sequence": 4294967294
    }
  ],
  "vout": [
    {
      "value": 1.0,
      "n": 0,
      "scriptPubKey": {
        "asm": "OP_RETURN 3cec53533584d5903e596480552029a15b7687f6ad7d3328a3f806ec890348bb 26deed9e265ac29b76d3ca988513fcaf9e4d26b780dc8a2051aaff0254c282c106fecdbe067ae2bb56f3eab8a533dc8fbe6d0697a0fcaa00718adf2274e2a2e1669eadde661a82db36938ad8c553bcefde0d66f7c09cca6011eabf421482c28146be8dfe463aa2fb16b3aaf8e5739ccffe2d46d7e0bcea4031ca9f6234a2e2a1a65e6d1ea6da421bf6534a1805937c2f1ecda637005c0aa0d12a7f82d4420241867e4d3e86fa623bd6736a3825b35c0f3eed8617207c2a80f10a5fa2f4622261e61e2d5ee69a025bb6130a5845d33c6f5e8de677401c4ae0916a3fc294024201c63e0d7ec6ba227b96332a7865f31c4f7eadc657603c6ac0b14a1fe2b422622126deed9e265ac29b76d3ca988513fcaf9e4d26b780dc8a2051aaff0254c282c106fecdbe067ae2bb56f3eab8a533dc8fbe6d0697a0fcaa00718adf2274e2a2e1669eadde661a82db36938ad8c553bcefde0d66f7c09cca6011eabf421482c28146be8dfe463aa2fb16b3aaf8e5739ccffe2d46d7e0bcea4031ca9f6234a2e2a1a65e6d1ea6da421bf6534a1805937c2f1ecda637005c0aa0d12a7f82d4420241867e4d3e86fa623bd6736a3825b35c0f3eed8617207c2a80f10a5fa2f4622261e61e2d5ee69a025bb6130a5845d33c6f5e8de677401c4ae0916a3fc294024201c63e0d7ec6ba227b96332a7865f31c4f7eadc657603c6ac0b14a1fe2b422622126deed9e265ac29b76d3ca988513fcaf9e4d26b780dc8a2051aaff0254c282c106fecdbe067ae2bb56f3eab8a533dc8fbe6d0697a0fcaa00718adf2274e2a2e1669eadde661a82db36938ad8c553bcefde0d66f7c09cca6011eabf421482c28146be8dfe463aa2fb16b3aaf8e5739ccffe2d46d7e0bcea4031ca9f6234a2e2a1a65e6d1ea6da421bf6534a1805937c2f1ecda637005c0aa0d12a7f82d4420241867e4d3e86fa623bd6736a3825b35c0f3eed8617207c2a80f10a5fa2f4622261e61e2d5ee69a025bb6130a5845d33c6f5e8de677401c4ae0916a3fc294024201c63e0d7ec6ba227b96332a7865f31c4f7eadc657603c6ac0b14a1fe2b422622126deed9e265ac29b76d3ca988513fcaf9e4d26b780dc8a2051aaff0254c282c106fecdbe067ae2bb56f3eab8a533dc8fbe6d0697a0fcaa00718adf2274e2a2e1669eadde661a82db36938ad8c553bcefde0d66f7c09cca6011eabf421482c28146be8dfe463aa2fb16b3aaf8e5739ccffe2d46d7e0bcea4031ca9f6234a2e2a1a65e6d1ea6da421bf6534a1805937c2f1ecda637005c0aa0d12a7f82d4420241867e4d3e86fa623bd6736a3825b35c0f3eed8617207c2a80f10a5fa2f4622261e61e2d5ee69a025bb6130a5845d33c6f5e8de677401c4ae0916a3fc294024201c63e0d7ec6ba227b96332a7865f31c4f7eadc657603c6ac0b14a1fe2b422622126deed9e265ac29b76d3ca988513fcaf9e4d26b780dc8a2051aaff0254c282c106fecdbe067ae2bb56f3eab8a533dc8fbe6d0697a0fcaa00718adf2274e2a2e1669eadde661a82db36938ad8c553bcefde0d66f7c09cca6011eabf421482c28146be8dfe463aa2fb16b3aaf8e5739ccffe2d46d7e0bcea4031ca9f6234a2e2a1a65e6d1ea6da421bf6534a1805937c2f93e453300fbaa0cf54f9ac4dd33cf7583c940608907f0820cbea7776f36256dd",
        "hex": "6a203cec53533584d5903e596480552029a15b7687f6ad7d3328a3f806ec890348bb4db00426deed9e265ac29b76d3ca988513fcaf9e4d26b780dc8a2051aaff0254c282c106fecdbe067ae2bb56f3eab8a533dc8fbe6d0697a0fcaa00718adf2274e2a2e1669eadde661a82db36938ad8c553bcefde0d66f7c09cca6011eabf421482c28146be8dfe463aa2fb16b3aaf8e5739ccffe2d46d7e0bcea4031ca9f6234a2e2a1a65e6d1ea6da421bf6534a1805937c2f1ecda637005c0aa0d12a7f82d4420241867e4d3e86fa623bd6736a3825b35c0f3eed8617207c2a80f10a5fa2f4622261e61e2d5ee69a025bb6130a5845d33c6f5e8de677401c4ae0916a3fc294024201c63e0d7ec6ba227b96332a7865f31c4f7eadc657603c6ac0b14a1fe2b422622126deed9e265ac29b76d3ca988513fcaf9e4d26b780dc8a2051aaff0254c282c106fecdbe067ae2bb56f3eab8a533dc8fbe6d0697a0fcaa00718adf2274e2a2e1669eadde661a82db36938ad8c553bcefde0d66f7c09cca6011eabf421482c28146be8dfe463aa2fb16b3aaf8e5739ccffe2d46d7e0bcea4031ca9f6234a2e2a1a65e6d1ea6da421bf6534a1805937c2f1ecda637005c0aa0d12a7f82d4420241867e4d3e86fa623bd6736a3825b35c0f3eed8617207c2a80f10a5fa2f4622261e61e2d5ee69a025bb6130a5845d33c6f5e8de677401c4ae0916a3fc294024201c63e0d7ec6ba227b96332a7865f31c4f7eadc657603c6ac0b14a1fe2b422622126deed9e265ac29b76d3ca988513fcaf9e4d26b780dc8a2051aaff0254c282c106fecdbe067ae2bb56f3eab8a533dc8fbe6d0697a0fcaa00718adf2274e2a2e1669eadde661a82db36938ad8c553bcefde0d66f7c09cca6011eabf421482c28146be8dfe463aa2fb16b3aaf8e5739ccffe2d46d7e0bcea4031ca9f6234a2e2a1a65e6d1ea6da421bf6534a1805937c2f1ecda637005c0aa0d12a7f82d4420241867e4d3e86fa623bd6736a3825b35c0f3eed8617207c2a80f10a5fa2f4622261e61e2d5ee69a025bb6130a5845d33c6f5e8de677401c4ae0916a3fc294024201c63e0d7ec6ba227b96332a7865f31c4f7eadc657603c6ac0b14a1fe2b422622126deed9e265ac29b76d3ca988513fcaf9e4d26b780dc8a2051aaff0254c282c106fecdbe067ae2bb56f3eab8a533dc8fbe6d0697a0fcaa00718adf2274e2a2e1669eadde661a82db36938ad8c553bcefde0d66f7c09cca6011eabf421482c28146be8dfe463aa2fb16b3aaf8e5739ccffe2d46d7e0bcea4031ca9f6234a2e2a1a65e6d1ea6da421bf6534a1805937c2f1ecda637005c0aa0d12a7f82d4420241867e4d3e86fa623bd6736a3825b35c0f3eed8617207c2a80f10a5fa2f4622261e61e2d5ee69a025bb6130a5845d33c6f5e8de677401c4ae0916a3fc294024201c63e0d7ec6ba227b96332a7865f31c4f7eadc657603c6ac0b14a1fe2b422622126deed9e265ac29b76d3ca988513fcaf9e4d26b780dc8a2051aaff0254c282c106fecdbe067ae2bb56f3eab8a533dc8fbe6d0697a0fcaa00718adf2274e2a2e1669eadde661a82db36938ad8c553bcefde0d66f7c09cca6011eabf421482c28146be8dfe463aa2fb16b3aaf8e5739ccffe2d46d7e0bcea4031ca9f6234a2e2a1a65e6d1ea6da421bf6534a1805937c2f93e453300fbaa0cf54f9ac4dd33cf7583c940608907f0820cbea7776f36256dd",
        "type": "nulldata"
      }
    },
    {
      "value": 499974.5775,
      "n": 1,
      "scriptPubKey": {
        "asm": "1 7985682f17031bf6236321f7d1bcded481f03463e525cfb0193f55181ba60b68",
        "hex": "51207985682f17031bf6236321f7d1bcded481f03463e525cfb0193f55181ba60b68",
        "reqSigs": 1,
        "type": "witness_v1_scripthash",
        "addresses": [
          "3QJmnh"
        ]
      }
    }
  ],
  "blockhash": "3f7b66b34673dd56727b9b27d02dfa4f8333ff75e8b72ddccb546061f2a7d063",
  "confirmations": 1,
  "time": 1764180681,
  "blocktime": 1764180681
}