{
  "hex": "010000000001016d19791db59da5435d494f56883e01d5708a6308cb37d59b1f8dd256f0faf0e50100000000feffffff0200e1f50500000000fdd5046a2068cffaf4ac67c00efbfba603a301f6e94ae08834bab6ebc20120975c399332594db0041d1f1e1c44abcc82a97c48c2724f3f90a63b1db72ac1df7c6e7d4e53cb0184aa3d3f3e3c648beca2895c68e2526f1fb0861b3d970ae1ff5c4e5d6e73eb21a48a5d5f5e5c04eb8cc2e93c0882320f7fd0e67b5df76a819f3c2e3d0e138b41c4ea7d7f7e7c24cbace2c91c28a2122f5ff0c65b7dd74aa1bf1c0e1d2e33ab61e4ca9d9f9e9cc42b4c0229fcc842f2cfbf1026bb9d37aa415ffceefdced34b81042abdbfbebce40b6c2209dce862d2ef9f30069bbd178a617fdcceddeef36ba1240adddfdedc846b0c4269bc8802b28fff5066fbdd77ea011fbcaebd8e930bc1446afdfffefca44b2c62499ca82292afdf7046dbfd57ca213f9c8e9daeb32be1644a1d1f1e1c44abcc82a97c48c2724f3f90a63b1db72ac1df7c6e7d4e53cb0184aa3d3f3e3c648beca2895c68e2526f1fb0861b3d970ae1ff5c4e5d6e73eb21a48a5d5f5e5c04eb8cc2e93c0882320f7fd0e67b5df76a819f3c2e3d0e138b41c4ea7d7f7e7c24cbace2c91c28a2122f5ff0c65b7dd74aa1bf1c0e1d2e33ab61e4ca9d9f9e9cc42b4c0229fcc842f2cfbf1026bb9d37aa415ffceefdced34b81042abdbfbebce40b6c2209dce862d2ef9f30069bbd178a617fdcceddeef36ba1240adddfdedc846b0c4269bc8802b28fff5066fbdd77ea011fbcaebd8e930bc1446afdfffefca44b2c62499ca82292afdf7046dbfd57ca213f9c8e9daeb32be1644a1d1f1e1c44abcc82a97c48c2724f3f90a63b1db72ac1df7c6e7d4e53cb0184aa3d3f3e3c648beca2895c68e2526f1fb0861b3d970ae1ff5c4e5d6e73eb21a48a5d5f5e5c04eb8cc2e93c0882320f7fd0e67b5df76a819f3c2e3d0e138b41c4ea7d7f7e7c24cbace2c91c28a2122f5ff0c65b7dd74aa1bf1c0e1d2e33ab61e4ca9d9f9e9cc42b4c0229fcc842f2cfbf1026bb9d37aa415ffceefdced34b81042abdbfbebce40b6c2209dce862d2ef9f30069bbd178a617fdcceddeef36ba1240adddfdedc846b0c4269bc8802b28fff5066fbdd77ea011fbcaebd8e930bc1446afdfffefca44b2c62499ca82292afdf7046dbfd57ca213f9c8e9daeb32be1644a1d1f1e1c44abcc82a97c48c2724f3f90a63b1db72ac1df7c6e7d4e53cb0184aa3d3f3e3c648beca2895c68e2526f1fb0861b3d970ae1ff5c4e5d6e73eb21a48a5d5f5e5c04eb8cc2e93c0882320f7fd0e67b5df76a819f3c2e3d0e138b41c4ea7d7f7e7c24cbace2c91c28a2122f5ff0c65b7dd74aa1bf1c0e1d2e33ab61e4ca9d9f9e9cc42b4c0229fcc842f2cfbf1026bb9d37aa415ffceefdced34b81042abdbfbebce40b6c2209dce862d2ef9f30069bbd178a617fdcceddeef36ba1240adddfdedc846b0c4269bc8802b28fff5066fbdd77ea011fbcaebd8e930bc1446afdfffefca44b2c62499ca82292afdf7046dbfd57ca213f9c8e9daeb32be1644a1d1f1e1c44abcc82a97c48c2724f3f90a63b1db72ac1df7c6e7d4e53cb0184aa3d3f3e3c648beca2895c68e2526f1fb0861b3d970ae1ff5c4e5d6e73eb21a48a5d5f5e5c04eb8cc2e93c0882320f7fd0e67b5df76a819f3c2e3d0e138b41c4ea7d7f7e7c24cbace2c91c28a2122f5ff0c65b7dd74aa1bf1c0e1d2e33ab61e4ca9d9f9e9cc42b4c0229fcc842f2cfbf105cecce0c3d01aed98f8acad491a6d3409c1cea2a2875479ab632744ce13903f46024ab89782d0000225120c217833317714b1cc59701465c8a64a5149e16ed1f01ba55b0e29a787143ff2502fd750979abb5e9200a05ddad8b792eb493e16de34d52e07b65d2373e23c2f82cda113973b3934b87379aac788be42505ab68007daa67bacacdd69bd6b21850e14cdfe08ad6423fd3acc673f9f9cb4635b7f3438a3ec85d878114ddc3e2d468f99b704261983383b06ec82a4f1fdb598e68971103519eac90e2f513b7f81e2199423016fc2dab2917a3c01dca11da5cf11fcc855dc8094c8df570cc2436cc6f5d752cef54755b1e6f57a112ab4af67409af6852d287efd1ebb9e54047358921398327745bfd2a77aa7d6830e697e0bdb42547e5d5bd30229ae27bc1cce6a8e9040269ae9acf3eb917247a4d0203a82207a630557cb627d4a25871721888ba523e19af0f2ce53266358ed9f6354f70cd60af46e78542aa3d0ac4fc60a8dfb2e8ee37c426c68f0d65688f743b895742bca5fc3c50f93432a295354b1091bb90b717a8f2f34bc1da74f8dd0da0d6c3a181fe6404ef05a36a686ebf1c3f04926793bc6fa79bd1f464772bbf6692bac9dbd621e74736c2a5382514dc77df4b89cfa74c32a2d8d417767508cfe88b5b49f5eb6499b9f188b8439b7b7e0c6a4206ba0d14b929badda08a07cbe6c80502c55c40a16480196c6d5050307c430b68cb95d0c548b24fc38471cfc22ca51099c9ee1c120bad8f707aa10480a1599088a3187034b524b3f73b01f98398bc41420e41094de4af328587a011092822f1c7f5deaa3a8de8848a0b96119c566a72375f444dbffad7f111161a520ba54dbefac53161e8d087d83ce5a21f85680b1eb93d209f00674128d9a555c9286d9633fb28586016512fb202c9fd13387ac61959fd49dd662491d432b01f04d20b8e30eb3be848e109c4061dfa81b4820e646b9f6e0643f616a03d1781dc8c8d76ee86e60d72b40119b84448042abb80ae154557d0595ebc43632accd5d9697fb8b7f8a665df96735f52b63cec047883085d46662d15c1310d93f8dd2f70acd3942d830c5bcbc2b93444a3b39fd15ee7d79809f2d94ecc54984801a0a9391c56eb7845ebccd008e65aa1fe14a3a96a210c2ab6c0a84c0f4ec76c75a3129768cb39de6ec0e7be272bcf0fc28b10fde37b573f900bf468872f09cb1bc379f3084987c498d10a0dacec889714a47b90587794668921b883acf06913e0309fad5c2dea118dfc24367f6d16387392bd4afbcf7ff1e1260926e36efab468569ad4d1831b9a550e8b9ab2f233aa450de48202d20f2402f423a2d2ef8db38a67a76e37fe3db2ac8893727f642fd48710f9b7e89cf8a53806e371861116cf5f715624a8ec0ea4ce51501fe25b147c2385a64d6da0a5bfa421305850b02ce184cde1e2a906757ad4b21c9abf4fb5120c3715bc5f156ff4af29cdff8c6c8ae2e284b662c5f3178c13513e550b35a1c234f684df9370797fc2dad6831abd1e16def00a40950fb60353dd919ae229d0151ae68db338f0291f7ef75d42acf462cf0d59e05a20e191f6dded0f2476cdd9cf5b7e328002a1a9b8809206c1b5ddf4bc3fed3d6a5db0d43a06ded1d2a78a98a54f3ea7efe502482f424ba68188abaa5426b6d7d402a7893961e26af064fe85a5d24f64290f44e07743e025d7b93c62c48dc9fae9ecb1d313c3f6717dd3fa83e45be6e9a8b6ad6a2cf809fe7c7073bd02b5a620555d5194727748106ef8956f6ca938a6054d5be6bcb8f09c792d8d55e54e9db5e51c5e996110b66bee4f218ed71837b3987a0053fee76c53bcfae5fa0faafd33bbfa3b6139c161812345561226437ef50e5bf0f0b7fc56a0313818ecc8eecfc72be01ddec5a06cc24056580e09ac25a9020159609772a442f2182a9c95ab5870224568becda16dc8279e40dd2379eb52ed23b9d460c89d15d95877779ece6a379dd080af2c6d61aae2aa7f0e58849a1617d8461d57bbc672f5cae3ae27462709f0a2aa5416287a8928933ff9d68ba2e63899c4ad16f3944f3b53696505d23a246cf9f7a2af39d5b9e43d24768dae02f6e52176318916e1da9adb492d21380bfe11b368600494a09c70450b4440eb9f397be9a72d0577987873235de1b8b0348e863f0ef98b148898898f237e2880e9f0102f9e0bbec080fb9724b951e1ed66505de74dcc41e36dc53c68134c3e80ce3244109c5bd3f5044d7bc0e537f459e54da013d89de3f26d9f365b436e520d35591463a561f76f5b0a348f9397218b338fec2f2a7d791f354745287f8990013b4616b4bbec2e8142805b651ac83545ae75ae04acbe80b88105a705e3e161f7ffd39db38278dfbe6e93035925b2d8a5c82b26feb7d67d279341ac29e509323695fe7df2611e870567f96cc1a1c9fae27ce9949f50c788e1ade6f6f55449be57d3648000756c8003788b33a78863855fc878a61a77fc693ac9496420af227b2804e1f67e1991992f48bb4133bdfbf10ecc02326a9adcca13e30c058a9f01fdd4026a7f964db418cc3a7dc3e10d5a3751f9436953f3ae74304db5565767d5c9a8e07734b49f367b52015c0f9345a5324429d65574a5f5e43192d393b54cf8e081450a7226d1bef6c65f83f9d289b2a95107dc22938698ca779b40692a810a6223260f1955f3da8f571959e122348eed6607810005243c2a0bc5e613461586fd520024c79d4d96d1c8c61d465d1a8f500508b1f919fc093079e2f408cb6ac2f2d1675956d45352092a0b42dec23b59a501e6babb4528f6dd4c74fe685a3bf381c0ec4b38216bc1458c81aa93a69d86827a7068bb898bc0fc5fe0b400584d7923d8957d230c35c13772eb3787627459d968e0211dc3233125b6d4ecf052ced06a32ed7f1d8dddc09ac534733c95023357d12af45d353469435e2f904cb48db612f4c1e6be2e6c49ae72d7375916d82765805e9029f6fd31940f7fcb6e8816c3fe218a4fdc70b66331d495a6a2291c1e905db2f16a67c46dbd78b6f3e66b4b2f7b078e968b55185c1bcec89f4f2abd6950bb87697054343f58dacec9f9ac4e3f1468ae9b874b1f5d6d68c4229c79b436730692b08029b4b6cee36c287779df9912c5f21b03e4c12c3d9b638dd56316c45147281dda1816963757b4cd4d8dc102932baf34b24e144fbd409f74992e999b2f2b13a39c1647a0f22d250594e1fb69513e8a769236774b8acb86136c6bee715109721e80a7fac751ff6abc8c16a531314bb1d7185344bbb2bc285dec8914bd6db75e1ce993c853c5ec2633fc4998755bd103b97dc60fd293f6c2f505edfa8d63959d668fe847685b0986fadc7f1812a973da9435570b2e4bcf8af9c5c64923e1444168a16e0856f9104f0342cd4eb58e4212393f4d62707b8795a4e2070d233a3d405e686f73829fa5b5c4cfd0f50a4e508d8eb4b7bdbfdfe1f5051b2c466474788388a5a8b2b7c4d7e5ec000000000000000000000000000000000000000000000b1d293a01fd2105003a8d7529cb5022359b4ba168bcadd49c9ebe9c4fbe0afd2c512bd201c4f6770f8d154b05587b2608be4b9d20769be28e444322c15ec867dc74becf5d049a78c13ffb0ec083d152e62efd5387a233562793ddb2c97604e54e1a4110fa478b7e91ad3f3051304e46107ce4a7bba10b8e26f0fb2e664839aab66bab55c5a857f2ce6696d3cb6b0ce175516199ca25362409b17553ceab2a92f0698f100a670e7e6f1678f2489d26b9ec7fe089faea5d3d54d5c30448297fa18384553ef8a1e71aee52e4ad98d095f2c0fe9154a3347eafc1ce5285633256c0bd825bd374e13847f572ae2a99ee25a0d3c268cae719645440cb9d52cbdef89104314d59cbdc1a98b61c47a21a492dc156dcc31d8f9d1c956cb83a2f19a939af04b3e37dc15f4c481502c8f137457eb27330d8057520edf07137f284dfd8e529f5f29770becfe484c02c2d3b84aaee1d9c01144fcb4ddc302a48c410e496bb3bf9184e06793701219adf8fe83536bd09c0249483ed503936d9813ea4f05c2364bfc8ede70fd5c89ed278a77d17757f4e95192d83aae35b9d64856a6e5a66bae31b586c9e62288a6005c1d95d7d5fae0a9aa62649fbaa7387d829087c2723a7300499d59c57f71c0dc5dd527e450f46a3388864b5b8bf1bacf017d54262ef58ee734890d63d77d8f2de8fb9a52bb5648e9a16ea1e81649379daf482a3655e22588a421500f2d29ce661162d1de0ceafea1ed37e5650612dee941ba47c97e3871507c360e7198fdfc68294698fb19e31704c81d60fa1d114ff4a4c596abd92d5aa8ca6e5007edc529320658a787e2ba184b83aae31f06f629f17b0a114d1e2fb75f2ffc4e8fa79b35974f82b91774e27bf8ae4c498f79c56eedde1416df8aa9902fa31dd7d894bb9e5e9c7e2c0c6de0eeb96e7f553c7024f9ad45b28f369aaa6c2cb7598893750551863bd25b9376f293028d5c819159db2f27eddc04d77a59091d44d92f34f6f2ae11d3c2c62e4dc9ddc9915d27db2712d328212ba7665e7adc8662afde05950713aff8ec6298fabd5a6d862d7637386c906193e28a846ae06a2ba92b143091f17982cf4739047a7594b48ddeb6506ad9ba1dd90c264bc7ec6aa689d224fbe49ffc4c0b91df8afa251e597cfab2beadeccf7ba99dc88e24b55b52c2efc9095f689429cb4a882620c4131de99a414c5715657f924f8f7626bab2ab37b5ccf4c1e0917187f222dea3bf232c7f327a98a43fee67ce49fc40d3d30ddbe3da3c8d8e06393655ccd8e63a2a62d29d03d65e4a1cd159fe7ed4babf3be3b74bcd63360d380a7ccec53daafff2cb337f3141ab691f0018af32d748314ac1a86fce660d64eb8ec01864c91babb1c5eb42472a6cf70917517b4a3deecacc2c2253da958551ad10888ba738f10fc5140d2fc8862980c020e44d9bd27555404f1d10059021b74adba8627eb9bf783f2f10f4286f4fa9af2edc06cd25410c0746715600e655f6d11739f7c9d4aa7d63f2dccb6a3c8a4f97b367c9775818fc07167a00ade2b1e67c28b8e51f5a877b2088044e0d2dac8b74f790c980125058f26030d459d924dad5fe4b5065e4b0e30229de7bf59214a24c1384b547a42e418a8f92e63755b7d7bdbd153eb839bc60a34f355f08723289437f094d900bcaff4c7e852f3fba83f9e2420fbf7086ac652f0014139e7eae173ab531922366c7f6507a82fa5fcc091ef73425e2ecd16c65d6b3018390dfc728a159939cf56fe08047f4658b2768d44bc9abde183a1f1d21b303848520444c453401d0378c1656068980fcac091e8d96d6c21bb064509c00560c0ed3af9d7571de84d49f28286b58cc18355a28056ec3f2b37998c000000",
  "txid": "81b9f8d451f062d2f6bd43ec8a7c2fdb7d8a46551737e9bd073a679ade1ca713",
  "hash": "3a1716bcf7f0aad39f5d0e0af45ea825e66b1d7baa501337189a806ba7272b84",
  "size": 5085,
  "vsize": 2278,
  "version": 1,
  "locktime": 140,
  "vin": [
    {
      "txid": "e5f0faf056d28d1f9bd537cb08638a70d5013e88564f495d43a59db51d79196d",
      "vout": 1,
      "scriptSig": {
        "asm": "",
        "hex": ""
      },
      "txinwitness": [
        "79abb5e9200a05ddad8b792eb493e16de34d52e07b65d2373e23c2f82cda113973b3934b87379aac788be42505ab68007daa67bacacdd69bd6b21850e14cdfe08ad6423fd3acc673f9f9cb4635b7f3438a3ec85d878114ddc3e2d468f99b704261983383b06ec82a4f1fdb598e68971103519eac90e2f513b7f81e2199423016fc2dab2917a3c01dca11da5cf11fcc855dc8094c8df570cc2436cc6f5d752cef54755b1e6f57a112ab4af67409af6852d287efd1ebb9e54047358921398327745bfd2a77aa7d6830e697e0bdb42547e5d5bd30229ae27bc1cce6a8e9040269ae9acf3eb917247a4d0203a82207a630557cb627d4a25871721888ba523e19af0f2ce53266358ed9f6354f70cd60af46e78542aa3d0ac4fc60a8dfb2e8ee37c426c68f0d65688f743b895742bca5fc3c50f93432a295354b1091bb90b717a8f2f34bc1da74f8dd0da0d6c3a181fe6404ef05a36a686ebf1c3f04926793bc6fa79bd1f464772bbf6692bac9dbd621e74736c2a5382514dc77df4b89cfa74c32a2d8d417767508cfe88b5b49f5eb6499b9f188b8439b7b7e0c6a4206ba0d14b929badda08a07cbe6c80502c55c40a16480196c6d5050307c430b68cb95d0c548b24fc38471cfc22ca51099c9ee1c120bad8f707aa10480a1599088a3187034b524b3f73b01f98398bc41420e41094de4af328587a011092822f1c7f5deaa3a8de8848a0b96119c566a72375f444dbffad7f111161a520ba54dbefac53161e8d087d83ce5a21f85680b1eb93d209f00674128d9a555c9286d9633fb28586016512fb202c9fd13387ac61959fd49dd662491d432b01f04d20b8e30eb3be848e109c4061dfa81b4820e646b9f6e0643f616a03d1781dc8c8d76ee86e60d72b40119b84448042abb80ae154557d0595ebc43632accd5d9697fb8b7f8a665df96735f52b63cec047883085d46662d15c1310d93f8dd2f70acd3942d830c5bcbc2b93444a3b39fd15ee7d79809f2d94ecc54984801a0a9391c56eb7845ebccd008e65aa1fe14a3a96a210c2ab6c0a84c0f4ec76c75a3129768cb39de6ec0e7be272bcf0fc28b10fde37b573f900bf468872f09cb1bc379f3084987c498d10a0dacec889714a47b90587794668921b883acf06913e0309fad5c2dea118dfc24367f6d16387392bd4afbcf7ff1e1260926e36efab468569ad4d1831b9a550e8b9ab2f233aa450de48202d20f2402f423a2d2ef8db38a67a76e37fe3db2ac8893727f642fd48710f9b7e89cf8a53806e371861116cf5f715624a8ec0ea4ce51501fe25b147c2385a64d6da0a5bfa421305850b02ce184cde1e2a906757ad4b21c9abf4fb5120c3715bc5f156ff4af29cdff8c6c8ae2e284b662c5f3178c13513e550b35a1c234f684df9370797fc2dad6831abd1e16def00a40950fb60353dd919ae229d0151ae68db338f0291f7ef75d42acf462cf0d59e05a20e191f6dded0f2476cdd9cf5b7e328002a1a9b8809206c1b5ddf4bc3fed3d6a5db0d43a06ded1d2a78a98a54f3ea7efe502482f424ba68188abaa5426b6d7d402a7893961e26af064fe85a5d24f64290f44e07743e025d7b93c62c48dc9fae9ecb1d313c3f6717dd3fa83e45be6e9a8b6ad6a2cf809fe7c7073bd02b5a620555d5194727748106ef8956f6ca938a6054d5be6bcb8f09c792d8d55e54e9db5e51c5e996110b66bee4f218ed71837b3987a0053fee76c53bcfae5fa0faafd33bbfa3b6139c161812345561226437ef50e5bf0f0b7fc56a0313818ecc8eecfc72be01ddec5a06cc24056580e09ac25a9020159609772a442f2182a9c95ab5870224568becda16dc8279e40dd2379eb52ed23b9d460c89d15d95877779ece6a379dd080af2c6d61aae2aa7f0e58849a1617d8461d57bbc672f5cae3ae27462709f0a2aa5416287a8928933ff9d68ba2e63899c4ad16f3944f3b53696505d23a246cf9f7a2af39d5b9e43d24768dae02f6e52176318916e1da9adb492d21380bfe11b368600494a09c70450b4440eb9f397be9a72d0577987873235de1b8b0348e863f0ef98b148898898f237e2880e9f0102f9e0bbec080fb9724b951e1ed66505de74dcc41e36dc53c68134c3e80ce3244109c5bd3f5044d7bc0e537f459e54da013d89de3f26d9f365b436e520d35591463a561f76f5b0a348f9397218b338fec2f2a7d791f354745287f8990013b4616b4bbec2e8142805b651ac83545ae75ae04acbe80b88105a705e3e161f7ffd39db38278dfbe6e93035925b2d8a5c82b26feb7d67d279341ac29e509323695fe7df2611e870567f96cc1a1c9fae27ce9949f50c788e1ade6f6f55449be57d3648000756c8003788b33a78863855fc878a61a77fc693ac9496420af227b2804e1f67e1991992f48bb4133bdfbf10ecc02326a9adcca13e30c058a9f01fdd4026a7f964db418cc3a7dc3e10d5a3751f9436953f3ae74304db5565767d5c9a8e07734b49f367b52015c0f9345a5324429d65574a5f5e43192d393b54cf8e081450a7226d1bef6c65f83f9d289b2a95107dc22938698ca779b40692a810a6223260f1955f3da8f571959e122348eed6607810005243c2a0bc5e613461586fd520024c79d4d96d1c8c61d465d1a8f500508b1f919fc093079e2f408cb6ac2f2d1675956d45352092a0b42dec23b59a501e6babb4528f6dd4c74fe685a3bf381c0ec4b38216bc1458c81aa93a69d86827a7068bb898bc0fc5fe0b400584d7923d8957d230c35c13772eb3787627459d968e0211dc3233125b6d4ecf052ced06a32ed7f1d8dddc09ac534733c95023357d12af45d353469435e2f904cb48db612f4c1e6be2e6c49ae72d7375916d82765805e9029f6fd31940f7fcb6e8816c3fe218a4fdc70b66331d495a6a2291c1e905db2f16a67c46dbd78b6f3e66b4b2f7b078e968b55185c1bcec89f4f2abd6950bb87697054343f58dacec9f9ac4e3f1468ae9b874b1f5d6d68c4229c79b436730692b08029b4b6cee36c287779df9912c5f21b03e4c12c3d9b638dd56316c45147281dda1816963757b4cd4d8dc102932baf34b24e144fbd409f74992e999b2f2b13a39c1647a0f22d250594e1fb69513e8a769236774b8acb86136c6bee715109721e80a7fac751ff6abc8c16a531314bb1d7185344bbb2bc285dec8914bd6db75e1ce993c853c5ec2633fc4998755bd103b97dc60fd293f6c2f505edfa8d63959d668fe847685b0986fadc7f1812a973da9435570b2e4bcf8af9c5c64923e1444168a16e0856f9104f0342cd4eb58e4212393f4d62707b8795a4e2070d233a3d405e686f73829fa5b5c4cfd0f50a4e508d8eb4b7bdbfdfe1f5051b2c466474788388a5a8b2b7c4d7e5ec000000000000000000000000000000000000000000000b1d293a01",
        "003a8d7529cb5022359b4ba168bcadd49c9ebe9c4fbe0afd2c512bd201c4f6770f8d154b05587b2608be4b9d20769be28e444322c15ec867dc74becf5d049a78c13ffb0ec083d152e62efd5387a233562793ddb2c97604e54e1a4110fa478b7e91ad3f3051304e46107ce4a7bba10b8e26f0fb2e664839aab66bab55c5a857f2ce6696d3cb6b0ce175516199ca25362409b17553ceab2a92f0698f100a670e7e6f1678f2489d26b9ec7fe089faea5d3d54d5c30448297fa18384553ef8a1e71aee52e4ad98d095f2c0fe9154a3347eafc1ce5285633256c0bd825bd374e13847f572ae2a99ee25a0d3c268cae719645440cb9d52cbdef89104314d59cbdc1a98b61c47a21a492dc156dcc31d8f9d1c956cb83a2f19a939af04b3e37dc15f4c481502c8f137457eb27330d8057520edf07137f284dfd8e529f5f29770becfe484c02c2d3b84aaee1d9c01144fcb4ddc302a48c410e496bb3bf9184e06793701219adf8fe83536bd09c0249483ed503936d9813ea4f05c2364bfc8ede70fd5c89ed278a77d17757f4e95192d83aae35b9d64856a6e5a66bae31b586c9e62288a6005c1d95d7d5fae0a9aa62649fbaa7387d829087c2723a7300499d59c57f71c0dc5dd527e450f46a3388864b5b8bf1bacf017d54262ef58ee734890d63d77d8f2de8fb9a52bb5648e9a16ea1e81649379daf482a3655e22588a421500f2d29ce661162d1de0ceafea1ed37e5650612dee941ba47c97e3871507c360e7198fdfc68294698fb19e31704c81d60fa1d114ff4a4c596abd92d5aa8ca6e5007edc529320658a787e2ba184b83aae31f06f629f17b0a114d1e2fb75f2ffc4e8fa79b35974f82b91774e27bf8ae4c498f79c56eedde1416df8aa9902fa31dd7d894bb9e5e9c7e2c0c6de0eeb96e7f553c7024f9ad45b28f369aaa6c2cb7598893750551863bd25b9376f293028d5c819159db2f27eddc04d77a59091d44d92f34f6f2ae11d3c2c62e4dc9ddc9915d27db2712d328212ba7665e7adc8662afde05950713aff8ec6298fabd5a6d862d7637386c906193e28a846ae06a2ba92b143091f17982cf4739047a7594b48ddeb6506ad9ba1dd90c264bc7ec6aa689d224fbe49ffc4c0b91df8afa251e597cfab2beadeccf7ba99dc88e24b55b52c2efc9095f689429cb4a882620c4131de99a414c5715657f924f8f7626bab2ab37b5ccf4c1e0917187f222dea3bf232c7f327a98a43fee67ce49fc40d3d30ddbe3da3c8d8e06393655ccd8e63a2a62d29d03d65e4a1cd159fe7ed4babf3be3b74bcd63360d380a7ccec53daafff2cb337f3141ab691f0018af32d748314ac1a86fce660d64eb8ec01864c91babb1c5eb42472a6cf70917517b4a3deecacc2c2253da958551ad10888ba738f10fc5140d2fc8862980c020e44d9bd27555404f1d10059021b74adba8627eb9bf783f2f10f4286f4fa9af2edc06cd25410c0746715600e655f6d11739f7c9d4aa7d63f2dccb6a3c8a4f97b367c9775818fc07167a00ade2b1e67c28b8e51f5a877b2088044e0d2dac8b74f790c980125058f26030d459d924dad5fe4b5065e4b0e30229de7bf59214a24c1384b547a42e418a8f92e63755b7d7bdbd153eb839bc60a34f355f08723289437f094d900bcaff4c7e852f3fba83f9e2420fbf7086ac652f0014139e7eae173ab531922366c7f6507a82fa5fcc091ef73425e2ecd16c65d6b3018390dfc728a159939cf56fe08047f4658b2768d44bc9abde183a1f1d21b303848520444c453401d0378c1656068980fcac091e8d96d6c21bb064509c00560c0ed3af9d7571de84d49f28286b58cc18355a28056ec3f2b3799"
      ],
      "sequence": 4294967294
    }
  ],
  "vout": [
    {
      "value": 1.0,
      "n": 0,
      "scriptPubKey": {
        "asm": "OP_RETURN 68cffaf4ac67c00efbfba603a301f6e94ae08834bab6ebc20120975c39933259 1d1f1e1c44abcc82a97c48c2724f3f90a63b1db72ac1df7c6e7d4e53cb0184aa3d3f3e3c648beca2895c68e2526f1fb0861b3d970ae1ff5c4e5d6e73eb21a48a5d5f5e5c04eb8cc2e93c0882320f7fd0e67b5df76a819f3c2e3d0e138b41c4ea7d7f7e7c24cbace2c91c28a2122f5ff0c65b7dd74aa1bf1c0e1d2e33ab61e4ca9d9f9e9cc42b4c0229fcc842f2cfbf1026bb9d37aa415ffceefdced34b81042abdbfbebce40b6c2209dce862d2ef9f30069bbd178a617fdcceddeef36ba1240adddfdedc846b0c4269bc8802b28fff5066fbdd77ea011fbcaebd8e930bc1446afdfffefca44b2c62499ca82292afdf7046dbfd57ca213f9c8e9daeb32be1644a1d1f1e1c44abcc82a97c48c2724f3f90a63b1db72ac1df7c6e7d4e53cb0184aa3d3f3e3c648beca2895c68e2526f1fb0861b3d970ae1ff5c4e5d6e73eb21a48a5d5f5e5c04eb8cc2e93c0882320f7fd0e67b5df76a819f3c2e3d0e138b41c4ea7d7f7e7c24cbace2c91c28a2122f5ff0c65b7dd74aa1bf1c0e1d2e33ab61e4ca9d9f9e9cc42b4c0229fcc842f2cfbf1026bb9d37aa415ffceefdced34b81042abdbfbebce40b6c2209dce862d2ef9f30069bbd178a617fdcceddeef36ba1240adddfdedc846b0c4269bc8802b28fff5066fbdd77ea011fbcaebd8e930bc1446afdfffefca44b2c62499ca82292afdf7046dbfd57ca213f9c8e9daeb32be1644a1d1f1e1c44abcc82a97c48c2724f3f90a63b1db72ac1df7c6e7d4e53cb0184aa3d3f3e3c648beca2895c68e2526f1fb0861b3d970ae1ff5c4e5d6e73eb21a48a5d5f5e5c04eb8cc2e93c0882320f7fd0e67b5df76a819f3c2e3d0e138b41c4ea7d7f7e7c24cbace2c91c28a2122f5ff0c65b7dd74aa1bf1c0e1d2e33ab61e4ca9d9f9e9cc42b4c0229fcc842f2cfbf1026bb9d37aa415ffceefdced34b81042abdbfbebce40b6c2209dce862d2ef9f30069bbd178a617fdcceddeef36ba1240adddfdedc846b0c4269bc8802b28fff5066fbdd77ea011fbcaebd8e930bc1446afdfffefca44b2c62499ca82292afdf7046dbfd57ca213f9c8e9daeb32be1644a1d1f1e1c44abcc82a97c48c2724f3f90a63b1db72ac1df7c6e7d4e53cb0184aa3d3f3e3c648beca2895c68e2526f1fb0861b3d970ae1ff5c4e5d6e73eb21a48a5d5f5e5c04eb8cc2e93c0882320f7fd0e67b5df76a819f3c2e3d0e138b41c4ea7d7f7e7c24cbace2c91c28a2122f5ff0c65b7dd74aa1bf1c0e1d2e33ab61e4ca9d9f9e9cc42b4c0229fcc842f2cfbf1026bb9d37aa415ffceefdced34b81042abdbfbebce40b6c2209dce862d2ef9f30069bbd178a617fdcceddeef36ba1240adddfdedc846b0c4269bc8802b28fff5066fbdd77ea011fbcaebd8e930bc1446afdfffefca44b2c62499ca82292afdf7046dbfd57ca213f9c8e9daeb32be1644a1d1f1e1c44abcc82a97c48c2724f3f90a63b1db72ac1df7c6e7d4e53cb0184aa3d3f3e3c648beca2895c68e2526f1fb0861b3d970ae1ff5c4e5d6e73eb21a48a5d5f5e5c04eb8cc2e93c0882320f7fd0e67b5df76a819f3c2e3d0e138b41c4ea7d7f7e7c24cbace2c91c28a2122f5ff0c65b7dd74aa1bf1c0e1d2e33ab61e4ca9d9f9e9cc42b4c0229fcc842f2cfbf105cecce0c3d01aed98f8acad491a6d3409c1cea2a2875479ab632744ce13903f4",
        "hex": "6a2068cffaf4ac67c00efbfba603a301f6e94ae08834bab6ebc20120975c399332594db0041d1f1e1c44abcc82a97c48c2724f3f90a63b1db72ac1df7c6e7d4e53cb0184aa3d3f3e3c648beca2895c68e2526f1fb0861b3d970ae1ff5c4e5d6e73eb21a48a5d5f5e5c04eb8cc2e93c0882320f7fd0e67b5df76a819f3c2e3d0e138b41c4ea7d7f7e7c24cbace2c91c28a2122f5ff0c65b7dd74aa1bf1c0e1d2e33ab61e4ca9d9f9e9cc42b4c0229fcc842f2cfbf1026bb9d37aa415ffceefdced34b81042abdbfbebce40b6c2209dce862d2ef9f30069bbd178a617fdcceddeef36ba1240adddfdedc846b0c4269bc8802b28fff5066fbdd77ea011fbcaebd8e930bc1446afdfffefca44b2c62499ca82292afdf7046dbfd57ca213f9c8e9daeb32be1644a1d1f1e1c44abcc82a97c48c2724f3f90a63b1db72ac1df7c6e7d4e53cb0184aa3d3f3e3c648beca2895c68e2526f1fb0861b3d970ae1ff5c4e5d6e73eb21a48a5d5f5e5c04eb8cc2e93c0882320f7fd0e67b5df76a819f3c2e3d0e138b41c4ea7d7f7e7c24cbace2c91c28a2122f5ff0c65b7dd74aa1bf1c0e1d2e33ab61e4ca9d9f9e9cc42b4c0229fcc842f2cfbf1026bb9d37aa415ffceefdced34b81042abdbfbebce40b6c2209dce862d2ef9f30069bbd178a617fdcceddeef36ba1240adddfdedc846b0c4269bc8802b28fff5066fbdd77ea011fbcaebd8e930bc1446afdfffefca44b2c62499ca82292afdf7046dbfd57ca213f9c8e9daeb32be1644a1d1f1e1c44abcc82a97c48c2724f3f90a63b1db72ac1df7c6e7d4e53cb0184aa3d3f3e3c648beca2895c68e2526f1fb0861b3d970ae1ff5c4e5d6e73eb21a48a5d5f5e5c04eb8cc2e93c0882320f7fd0e67b5df76a819f3c2e3d0e138b41c4ea7d7f7e7c24cbace2c91c28a2122f5ff0c65b7dd74aa1bf1c0e1d2e33ab61e4ca9d9f9e9cc42b4c0229fcc842f2cfbf1026bb9d37aa415ffceefdced34b81042abdbfbebce40b6c2209dce862d2ef9f30069bbd178a617fdcceddeef36ba1240adddfdedc846b0c4269bc8802b28fff5066fbdd77ea011fbcaebd8e930bc1446afdfffefca44b2c62499ca82292afdf7046dbfd57ca213f9c8e9daeb32be1644a1d1f1e1c44abcc82a97c48c2724f3f90a63b1db72ac1df7c6e7d4e53cb0184aa3d3f3e3c648beca2895c68e2526f1fb0861b3d970ae1ff5c4e5d6e73eb21a48a5d5f5e5c04eb8cc2e93c0882320f7fd0e67b5df76a819f3c2e3d0e138b41c4ea7d7f7e7c24cbace2c91c28a2122f5ff0c65b7dd74aa1bf1c0e1d2e33ab61e4ca9d9f9e9cc42b4c0229fcc842f2cfbf1026bb9d37aa415ffceefdced34b81042abdbfbebce40b6c2209dce862d2ef9f30069bbd178a617fdcceddeef36ba1240adddfdedc846b0c4269bc8802b28fff5066fbdd77ea011fbcaebd8e930bc1446afdfffefca44b2c62499ca82292afdf7046dbfd57ca213f9c8e9daeb32be1644a1d1f1e1c44abcc82a97c48c2724f3f90a63b1db72ac1df7c6e7d4e53cb0184aa3d3f3e3c648beca2895c68e2526f1fb0861b3d970ae1ff5c4e5d6e73eb21a48a5d5f5e5c04eb8cc2e93c0882320f7fd0e67b5df76a819f3c2e3d0e138b41c4ea7d7f7e7c24cbace2c91c28a2122f5ff0c65b7dd74aa1bf1c0e1d2e33ab61e4ca9d9f9e9cc42b4c0229fcc842f2cfbf105cecce0c3d01aed98f8acad491a6d3409c1cea2a2875479ab632744ce13903f4",
        "type": "nulldata"
      }
    },
    {
      "value": 499957.2902,
      "n": 1,
      "scriptPubKey": {
        "asm": "1 c217833317714b1cc59701465c8a64a5149e16ed1f01ba55b0e29a787143ff25",
        "hex": "5120c217833317714b1cc59701465c8a64a5149e16ed1f01ba55b0e29a787143ff25",
        "reqSigs": 1,
        "type": "witness_v1_scripthash",
        "addresses": [
          "3QJmnh"
        ]
      }
    }
  ],
  "blockhash": "39d4bea9c9c25d41b43db6cdde5dd715e5d3be3597965cba0de2d48951f8c4e3",
  "confirmations": 1,
  "time": 1764183939,
  "blocktime": 1764183939
}