{
  "hex": "01000000000101b7ef83beeb8b48c965cae5c5f1176854170f4dac9705aab542cc9488e73f96240000000000feffffff0200e1f50500000000fdd5046a20d1961e2afeca34ab0bfb3b40161253a45fdfa0780c514821f4cef8906cd486d24db004c7c2df6060fc4a38da55e3c8a0a5735a3dcf2d5c88da557ea9d019603be45f21e7e2ff4040dc6a18fa75c3e88085537a1def0d7ca8fa755e89f039401bc47f0187829f2020bc0a789a15a388e0e5331a7d8f6d1cc89a153ee99059207ba41f61a7a2bf00009c2a58ba3583a8c0c5133a5daf4d3ce8ba351ec9b079005b843f4147425fe0e07ccab85ad563482025f3dabd4faddc085ad5fe295099e0bb64dfa167627fc0c05cea987af543680005d3fa9d6f8dfc287af5de0970b9c09b44ff8107021fa0a03c8af81a9523086065b39afd0fed9c481a95be6910d9a0fb249fe127223f80801caad83ab50328404593badd2fcdbc683ab59e4930f980db04bfc1c7c2df6060fc4a38da55e3c8a0a5735a3dcf2d5c88da557ea9d019603be45f21e7e2ff4040dc6a18fa75c3e88085537a1def0d7ca8fa755e89f039401bc47f0187829f2020bc0a789a15a388e0e5331a7d8f6d1cc89a153ee99059207ba41f61a7a2bf00009c2a58ba3583a8c0c5133a5daf4d3ce8ba351ec9b079005b843f4147425fe0e07ccab85ad563482025f3dabd4faddc085ad5fe295099e0bb64dfa167627fc0c05cea987af543680005d3fa9d6f8dfc287af5de0970b9c09b44ff8107021fa0a03c8af81a9523086065b39afd0fed9c481a95be6910d9a0fb249fe127223f80801caad83ab50328404593badd2fcdbc683ab59e4930f980db04bfc1c7c2df6060fc4a38da55e3c8a0a5735a3dcf2d5c88da557ea9d019603be45f21e7e2ff4040dc6a18fa75c3e88085537a1def0d7ca8fa755e89f039401bc47f0187829f2020bc0a789a15a388e0e5331a7d8f6d1cc89a153ee99059207ba41f61a7a2bf00009c2a58ba3583a8c0c5133a5daf4d3ce8ba351ec9b079005b843f4147425fe0e07ccab85ad563482025f3dabd4faddc085ad5fe295099e0bb64dfa167627fc0c05cea987af543680005d3fa9d6f8dfc287af5de0970b9c09b44ff8107021fa0a03c8af81a9523086065b39afd0fed9c481a95be6910d9a0fb249fe127223f80801caad83ab50328404593badd2fcdbc683ab59e4930f980db04bfc1c7c2df6060fc4a38da55e3c8a0a5735a3dcf2d5c88da557ea9d019603be45f21e7e2ff4040dc6a18fa75c3e88085537a1def0d7ca8fa755e89f039401bc47f0187829f2020bc0a789a15a388e0e5331a7d8f6d1cc89a153ee99059207ba41f61a7a2bf00009c2a58ba3583a8c0c5133a5daf4d3ce8ba351ec9b079005b843f4147425fe0e07ccab85ad563482025f3dabd4faddc085ad5fe295099e0bb64dfa167627fc0c05cea987af543680005d3fa9d6f8dfc287af5de0970b9c09b44ff8107021fa0a03c8af81a9523086065b39afd0fed9c481a95be6910d9a0fb249fe127223f80801caad83ab50328404593badd2fcdbc683ab59e4930f980db04bfc1c7c2df6060fc4a38da55e3c8a0a5735a3dcf2d5c88da557ea9d019603be45f21e7e2ff4040dc6a18fa75c3e88085537a1def0d7ca8fa755e89f039401bc47f0187829f2020bc0a789a15a388e0e5331a7d8f6d1cc89a153ee99059207ba41f61a7a2bf00009c2a58ba3583a8c0c5133a5daf4d3ce8ba351ec9b079005b843f4147425fe0e07ccab85ad563482025f3da234c0d1f7e152e308a69cc24483de8d8a60a8ef0560167320d38d7afd6ff960950771315792d00002251208df80039b3df0d98de3d94061322f9bb265b942434a5dbca5c777fda742d014002fd7509927a431750b310e89df68d4aa80af6b01d6d355d1a9d37de44355262c7cb201398929d7743ac64fb6d017409d1b7b056981ce743b7eb7696ddf2d7a0a59f6e63f78301cef219b61fd27284ef6b7e429624720494495c198c0d3ee7aea95e1b7a3ef556a0e285835b19dc8e73824fcb5ea393cdef8c1c604c6ba131acb95290389222f66044783b4f4f43037d10c05c49192a0f53f7d47442cd3d2e7882ea43539c54840e6389a67896d4f0fc91d98feeef02696bf68e99fead0bfbc1941e3d35c4c1ac165f9d78014ce14ff2770c13077de04428214d92bbd39f2fd40b7889967ea607ba9a83f397044dcfdff2e60aa502383716177d9d4f97bc9c288458cd9551ee19565f150e9f9ced9b6eea4067db8ce1d74259f433284dd36e2d2c5459f61068f7f6ba35d01cecc30515a0091d11ee72b296ced589cb4a2970cf3104a7903cc89594cd6b12cac1f591e7b392d82398885e41f81f74d7d44ddcf67edcba98733efdacf16216735b0859698a0a1e87c2fd4672f55eca6bb62fa48bc8904dddff8a8c97a5ef853dbeee20473a6c568924a627e8424f01d8f4b0f8ebd03ea6c18f4e0c9f367129ba2483b9801bb21116647d33792e1790df1af65641c92f939126c489800a16be646470a0b79bacd1880129db77daab80ed861e727ab131b858938f38267c7ee06ab4cf7d88eed70236866e054ceac87978d18f1e9ceb56ef324494b23ac11f48f81fffca14502eaa040a8496a8d1d40aa67d63f7b88bb8454e2e9f6bffc10979fc31a3ca3c6ee3e00c1473d8b17381bc0e7bbe6c21097d83d00783e0ed098249a95e8442630307dc14e501ed889e3d516698fd4ccc05271f9fff149939923bf9f00f037a3b3dee59c86bc667ac4c0503775c82207a8178bb153844bbeddf7a97bc1fe5fe4a0aa3b217c15df230123e5d77400f3883998301a73d5af94338c3d0f9ac747c0dee0543be35728574dbc42fcc26b437fc61a70bbaaa37348a0d743918aac7eec2406b2f362d13886224cd07fd684166d5f5837c35341b2e7f9455dab073bae05fa375629504964bc43c7095ce811d65ce1de3a9dfb5f00723c0041be6e3a7e513b3fb589e3f76cc0f1f4b90551d0f715354ab5d0b863a708b2d864b2a7d5f19e62227fe03e9d0daea7fdbaea505ddc32de16cc48502c1a1d34d15bcc9be175824ef02952b18962c73680a8d76075ac0a119d6de8105051d221d1c90be2cf5e42d2d45a6e3c6cc5e7bc9c6164f7eef8aeedbe92b3daf094fa3dc6ae133ed15e45273d2d2911425b06d3e7944d8eddc31cb13a5391c798daadeb5d7ebd184ba2a531e10bc41207b706272d5d823535014e1cf4bad3eb7eb63f65f33358657437e5c587251ea250b88bf32489fa5e165df6f4df8d78ebb82f27537fb5c8b7e46ddcb696638ede348455f0d6bc3c147013e5cb9f0ac74f701d0af44551e1a84559a59ed616d160d1c62a76efd2ef353cccb52550af7355d3caa8deed20681751297d7632da36fd527bf3b80ee89714a2915a055788883a8c4c8263bd167e15dd1c4effe7b04dfc4a6ffee7d6894aae0839a2ce5754d5dbc17b0c335e56aac37f688db8b830203fd152b1d5512510244e8498fa12e6a763aee352bc2040c9373088ae1bcd7b442e6cbbfb8341b4b80b0181e4362df546b7e26d2e85828a475c3419260e64d0d39a01805025410d985545a861079c2a288ff9351da90cbdfb672dbf38d59006a07c35ff3748224872c19bc34901cbebb84aa02cb69f21172c0ccd4d26a3d9a90743bcde028fe48ed5193c84fdc49aa6c5696366aa8fa7d1ef8c22cbf99f069817fbe0cf522851fb63cbb51d8abdfd69500ac9794f2caec8733328cda91f2350dc5775a5fe7995ea2f4f2add35ae1b08322dfb55bc0643bce39bc1b5b32ff3c22fbbcd4a562f5a3dae83c891c37d5e57e9e681a43e2647a0fa94821788ed9d6da22b8fd656cc46e1baef84c87cf76e63ffb2e50be0cfb86ea50b8138a018da5cba9c0ec2410513139b02da46151516f419110b5125f060da7dfcc168b54a4d34feb6e4084c48232c29c49f3fa3dbbab44cea48acba654e1dfa0cf15ff61307a7aa15cb61ccdeb75a0d502f9c64990e5f6f83decce05a3f4125fda60021f57288ad900bbef2ee96fa5b5f99901bcafa81c428233f00f459f70cf09fd072a10446da780e1fa863c355730e501c352990c871852981743c3c0b3b6ce9810d4cd929834e5945d3a881eb0b2d5598a4127fb490cc207073224b46c905bd3c63a153315b422dca1b63d0ff9ef27f8f48ea4d18dde5c45f27a188b9770150f9865efa3e3aa1e01a3e4896864780f55d58388896ce59aec7c9b27cc6b5e30415977996dc0289550cad23caa5b532521ab286dd58e520d38966d5ff87d49be925034220e0026e37418d5601e771e5068399260d4a20157b8ae4f01219487130322f04ba2e3b55d371125ac9ec9809ac52be898963a2d84650b1cb2524f33f06119e9956c16ba3fc3342faa4048aeef26431722a232f8a7baa6d92dc766961fabe77ef46f95c4e5c0d973f379a6537db095a01f6b394d8a49276e56555f486c060252003967517569656175f6073e8bc2418f044d2a1b1891a07ac47b23784c7d3b6bd0857dd0e68bfbbfa5afce9d51ce4db9cb8f9fba4b6cd929f295259011de58345d2698986338722b1d29091691101b39605f772c5d3e89b146ea9ea2a2ac369933e90ad02494000e596f19211624cf69882de0e276886801df54ff2cd03272580065e4935181c199d045a198a5733e03904b0b7b7d23bf0b00843d8eb1674e2b5e620a15ed76a5f2772cb5e66b1296d0884a5cd3e6a5ac8ce35dc4c92385352624c83db0c06b6b19a1a50c1bfa9d496f5db14aae93189f05569f2e882abed3488855f5f4c37a89e1149484ae283ea2f525fdb78b9d46043cbfc9fe23bd965e553f38b9f837ead0b7c3b800820c39ded448b0ee03d4d7596bbe6c36ca216a6855e29c0a0a0388bd49f1cff2ea580bf80fd32129078f94252eb322108e91c57d84ac86e509db14f3e198f19b26b6a118e3269c956dafb1ee289c4e120a6c0dea09e158b64b6d4fac03080a449e2d263d06117f476c936f453d643daf1ab26721b30d31ec7ce624807689683516833eb5f83d3cc37dd4e04665a521c575d5f133486f5ec9177ef7bb2e7a60b85c745672c58ac85eda20a6252740029016b4db53fc38776d07e36a1ca1552c3d728ce73206427c88230458c4bcc2b3034a4afa31e32b28e3741c9b5095c2c273f79ec3def2dce55903404b7b7d7fa9c3d4e8ebeef1fc01082936393f4a696d7c898d9da1a8abbabec5dae9edf5171e1f5770768a95a3b1c4ebf1fafc2a2e3356626a788f95a2aaacb2dae0e3e9ff00000000000000000000000d24334501fd21050050744eb012b130f174995a1b4d28ad4f4ae6be8085186d0f7f05be69f6a8c4148cee993f05e82446de0019b8daf04db0e34a55497ced5f1e1bc492e774e1b015b5d17552f87f0c9c3327521842029e8d545697fe0f4710bb98d53226e338e8823cff61b7ca2fd0c4d96fbaba08ffeb9c9f50f27a31011b6db09ea97ee8da555827bf51709b7dbcddbd0e3cf4322760cf2c2e07ad2dcf08e761520f52468e8c8d4656375204b9a4b330f7517d405a57f8eacda72edaf9d0d3298727d4ba1c1f20ef8c0af5dc0b0b2ab996cd5586fd62982a5935dc3ee1d646801b672bcf0599d42090f8c2e017d0c863f25fb000ee56279192b776b53d59f69ff7994f4a5b8bcc3e4ea8822c933c6a5e2970f6ecfd8310ca78d000ff6ddf286a700b9fd412cde8ef9704120d14f3463f30aa61da94054f528f9067639d1d90a9ac231df8d9674062fbf596577c342c8aebead2566333bb7c3737cc5a38395596995d47ffb5d6227cfe0235b6a5cb5bfbacf23e831eb6596629244f47701089d768d2eba1ee3767ab52e77004ece52a6d626d68041e284a1970351a3db664f5c950df77fd883ffbfda061f5950f5ed4d3a1492e748ada6a028f7fe3844abcc14f9cd5586e5e3177309647337e3f3daab8dbc4dc8bc9f45931170cbfb005ee56f4a91c34c89aa05b8b58015081d1ce4ed89529da5f589a226004c4eb24925c584d2e0121c975e5b625b0fc71489ec11e04ffd9f8d476c6a372cb640b241c9aa9ff7c25b10b40c916498aa43fe970f30d4d6afce396e9b307cda80e994311bf1ff8e22c33467bbdbc814ca97e46894f023524ef2f040dcd89a55201fd69f3fce26ae5b23af7f6d098305c27a84241e8b091ee9e5a6280d7c6651e709ab7861c1d80c2cbafed5a8c00c1f487b81e7f7048d7be8de8eea4ec0d23546e328504bd14256a6784af7c0fcffc3e17df768ebe5190472f6f6f3bca1c3e45c271798768163af4145906795965c59cb436451ee1e5c91ffed48e76ccc8edbf20889448b24648eb8f8915c6a574e85552b1e57e8aac29314e8e2ae86da2848be7a93f946775079d652b34aa3b40eae9c020f279cb2564f0913ff60715f75092a8e119b06f8e27ab491b9c1ea1e4a5ede6c0743104e4c6817a0033d9143ae744f4539b6b8ce703a6417aa4ecc24e28b3a4da7462f214f85f2b463527161d1323785b70c3660e704e74044df8caac605f8ed29cd1f9282e802845dcd672b41f563ecbff558e0c5bbe1e56bd361c1fcd3e4a20536ff00f14e851762cac9accd51bfecd406fd33536115fc124735fded4eec05c246f56a6fb29d5aa600a0be441dc7d64a1676ef06c43d71b6db14de252a1719f30a82a325f88bf8dcfe54f4c4fe5725463a12c0b01ebb40b82a5f42fed2faa0e9890a79405f21f4799da4dd1dd4e674fd77c88f147b531370b50bd8e8f1bbeee7e8d4b9e34172697c722d7c2f09ff9e921d7cfe31924e98323dc94e98faa1f163dad545e3b01de9c2c0d0bd5c190f292bb806664bb52b67c5a7794ef1d7d5d52b4d84e352a4712bc4bd2a0009f232d1645c4fb6c12c51604cfd8de518d6fa54127e0eafcc95a4a47ca08a3f5a71e4ddb491adcb6c5cf321b2ea1f1f9c034f3f6a82a92cc7104676468cf23bb075444131237c16671ee75ace134cfee560868410aee4ace2c7b5e2aed345b6785454275777fd9887ff09f0c8c19df9e4ca8867f6f8816a3bf405f28f8b541212503f7107246c74e9e0d01a7215f7927b176d6e5fbbb1a712ebbd81ce9c3f294c6fda30a07be63287591fb2e6a4144c91a078baac15b4cc1ffb4e7869ea72673b8e554e3dea554b665e514caf745f26d4c000000",
  "txid": "8b52ad2708cbed79a53f70324db4398f787d048092d746a5bcde7540f71abfdc",
  "hash": "45ce3b491e9583b15e24155f0e6950aa62fe35af68bf2744f48fa65f8d00c7b6",
  "size": 5085,
  "vsize": 2278,
  "version": 1,
  "locktime": 76,
  "vin": [
    {
      "txid": "24963fe78894cc42b5aa0597ac4d0f17546817f1c5e5ca65c9488bebbe83efb7",
      "vout": 0,
      "scriptSig": {
        "asm": "",
        "hex": ""
      },
      "txinwitness": [
        "927a431750b310e89df68d4aa80af6b01d6d355d1a9d37de44355262c7cb201398929d7743ac64fb6d017409d1b7b056981ce743b7eb7696ddf2d7a0a59f6e63f78301cef219b61fd27284ef6b7e429624720494495c198c0d3ee7aea95e1b7a3ef556a0e285835b19dc8e73824fcb5ea393cdef8c1c604c6ba131acb95290389222f66044783b4f4f43037d10c05c49192a0f53f7d47442cd3d2e7882ea43539c54840e6389a67896d4f0fc91d98feeef02696bf68e99fead0bfbc1941e3d35c4c1ac165f9d78014ce14ff2770c13077de04428214d92bbd39f2fd40b7889967ea607ba9a83f397044dcfdff2e60aa502383716177d9d4f97bc9c288458cd9551ee19565f150e9f9ced9b6eea4067db8ce1d74259f433284dd36e2d2c5459f61068f7f6ba35d01cecc30515a0091d11ee72b296ced589cb4a2970cf3104a7903cc89594cd6b12cac1f591e7b392d82398885e41f81f74d7d44ddcf67edcba98733efdacf16216735b0859698a0a1e87c2fd4672f55eca6bb62fa48bc8904dddff8a8c97a5ef853dbeee20473a6c568924a627e8424f01d8f4b0f8ebd03ea6c18f4e0c9f367129ba2483b9801bb21116647d33792e1790df1af65641c92f939126c489800a16be646470a0b79bacd1880129db77daab80ed861e727ab131b858938f38267c7ee06ab4cf7d88eed70236866e054ceac87978d18f1e9ceb56ef324494b23ac11f48f81fffca14502eaa040a8496a8d1d40aa67d63f7b88bb8454e2e9f6bffc10979fc31a3ca3c6ee3e00c1473d8b17381bc0e7bbe6c21097d83d00783e0ed098249a95e8442630307dc14e501ed889e3d516698fd4ccc05271f9fff149939923bf9f00f037a3b3dee59c86bc667ac4c0503775c82207a8178bb153844bbeddf7a97bc1fe5fe4a0aa3b217c15df230123e5d77400f3883998301a73d5af94338c3d0f9ac747c0dee0543be35728574dbc42fcc26b437fc61a70bbaaa37348a0d743918aac7eec2406b2f362d13886224cd07fd684166d5f5837c35341b2e7f9455dab073bae05fa375629504964bc43c7095ce811d65ce1de3a9dfb5f00723c0041be6e3a7e513b3fb589e3f76cc0f1f4b90551d0f715354ab5d0b863a708b2d864b2a7d5f19e62227fe03e9d0daea7fdbaea505ddc32de16cc48502c1a1d34d15bcc9be175824ef02952b18962c73680a8d76075ac0a119d6de8105051d221d1c90be2cf5e42d2d45a6e3c6cc5e7bc9c6164f7eef8aeedbe92b3daf094fa3dc6ae133ed15e45273d2d2911425b06d3e7944d8eddc31cb13a5391c798daadeb5d7ebd184ba2a531e10bc41207b706272d5d823535014e1cf4bad3eb7eb63f65f33358657437e5c587251ea250b88bf32489fa5e165df6f4df8d78ebb82f27537fb5c8b7e46ddcb696638ede348455f0d6bc3c147013e5cb9f0ac74f701d0af44551e1a84559a59ed616d160d1c62a76efd2ef353cccb52550af7355d3caa8deed20681751297d7632da36fd527bf3b80ee89714a2915a055788883a8c4c8263bd167e15dd1c4effe7b04dfc4a6ffee7d6894aae0839a2ce5754d5dbc17b0c335e56aac37f688db8b830203fd152b1d5512510244e8498fa12e6a763aee352bc2040c9373088ae1bcd7b442e6cbbfb8341b4b80b0181e4362df546b7e26d2e85828a475c3419260e64d0d39a01805025410d985545a861079c2a288ff9351da90cbdfb672dbf38d59006a07c35ff3748224872c19bc34901cbebb84aa02cb69f21172c0ccd4d26a3d9a90743bcde028fe48ed5193c84fdc49aa6c5696366aa8fa7d1ef8c22cbf99f069817fbe0cf522851fb63cbb51d8abdfd69500ac9794f2caec8733328cda91f2350dc5775a5fe7995ea2f4f2add35ae1b08322dfb55bc0643bce39bc1b5b32ff3c22fbbcd4a562f5a3dae83c891c37d5e57e9e681a43e2647a0fa94821788ed9d6da22b8fd656cc46e1baef84c87cf76e63ffb2e50be0cfb86ea50b8138a018da5cba9c0ec2410513139b02da46151516f419110b5125f060da7dfcc168b54a4d34feb6e4084c48232c29c49f3fa3dbbab44cea48acba654e1dfa0cf15ff61307a7aa15cb61ccdeb75a0d502f9c64990e5f6f83decce05a3f4125fda60021f57288ad900bbef2ee96fa5b5f99901bcafa81c428233f00f459f70cf09fd072a10446da780e1fa863c355730e501c352990c871852981743c3c0b3b6ce9810d4cd929834e5945d3a881eb0b2d5598a4127fb490cc207073224b46c905bd3c63a153315b422dca1b63d0ff9ef27f8f48ea4d18dde5c45f27a188b9770150f9865efa3e3aa1e01a3e4896864780f55d58388896ce59aec7c9b27cc6b5e30415977996dc0289550cad23caa5b532521ab286dd58e520d38966d5ff87d49be925034220e0026e37418d5601e771e5068399260d4a20157b8ae4f01219487130322f04ba2e3b55d371125ac9ec9809ac52be898963a2d84650b1cb2524f33f06119e9956c16ba3fc3342faa4048aeef26431722a232f8a7baa6d92dc766961fabe77ef46f95c4e5c0d973f379a6537db095a01f6b394d8a49276e56555f486c060252003967517569656175f6073e8bc2418f044d2a1b1891a07ac47b23784c7d3b6bd0857dd0e68bfbbfa5afce9d51ce4db9cb8f9fba4b6cd929f295259011de58345d2698986338722b1d29091691101b39605f772c5d3e89b146ea9ea2a2ac369933e90ad02494000e596f19211624cf69882de0e276886801df54ff2cd03272580065e4935181c199d045a198a5733e03904b0b7b7d23bf0b00843d8eb1674e2b5e620a15ed76a5f2772cb5e66b1296d0884a5cd3e6a5ac8ce35dc4c92385352624c83db0c06b6b19a1a50c1bfa9d496f5db14aae93189f05569f2e882abed3488855f5f4c37a89e1149484ae283ea2f525fdb78b9d46043cbfc9fe23bd965e553f38b9f837ead0b7c3b800820c39ded448b0ee03d4d7596bbe6c36ca216a6855e29c0a0a0388bd49f1cff2ea580bf80fd32129078f94252eb322108e91c57d84ac86e509db14f3e198f19b26b6a118e3269c956dafb1ee289c4e120a6c0dea09e158b64b6d4fac03080a449e2d263d06117f476c936f453d643daf1ab26721b30d31ec7ce624807689683516833eb5f83d3cc37dd4e04665a521c575d5f133486f5ec9177ef7bb2e7a60b85c745672c58ac85eda20a6252740029016b4db53fc38776d07e36a1ca1552c3d728ce73206427c88230458c4bcc2b3034a4afa31e32b28e3741c9b5095c2c273f79ec3def2dce55903404b7b7d7fa9c3d4e8ebeef1fc01082936393f4a696d7c898d9da1a8abbabec5dae9edf5171e1f5770768a95a3b1c4ebf1fafc2a2e3356626a788f95a2aaacb2dae0e3e9ff00000000000000000000000d24334501",
        "0050744eb012b130f174995a1b4d28ad4f4ae6be8085186d0f7f05be69f6a8c4148cee993f05e82446de0019b8daf04db0e34a55497ced5f1e1bc492e774e1b015b5d17552f87f0c9c3327521842029e8d545697fe0f4710bb98d53226e338e8823cff61b7ca2fd0c4d96fbaba08ffeb9c9f50f27a31011b6db09ea97ee8da555827bf51709b7dbcddbd0e3cf4322760cf2c2e07ad2dcf08e761520f52468e8c8d4656375204b9a4b330f7517d405a57f8eacda72edaf9d0d3298727d4ba1c1f20ef8c0af5dc0b0b2ab996cd5586fd62982a5935dc3ee1d646801b672bcf0599d42090f8c2e017d0c863f25fb000ee56279192b776b53d59f69ff7994f4a5b8bcc3e4ea8822c933c6a5e2970f6ecfd8310ca78d000ff6ddf286a700b9fd412cde8ef9704120d14f3463f30aa61da94054f528f9067639d1d90a9ac231df8d9674062fbf596577c342c8aebead2566333bb7c3737cc5a38395596995d47ffb5d6227cfe0235b6a5cb5bfbacf23e831eb6596629244f47701089d768d2eba1ee3767ab52e77004ece52a6d626d68041e284a1970351a3db664f5c950df77fd883ffbfda061f5950f5ed4d3a1492e748ada6a028f7fe3844abcc14f9cd5586e5e3177309647337e3f3daab8dbc4dc8bc9f45931170cbfb005ee56f4a91c34c89aa05b8b58015081d1ce4ed89529da5f589a226004c4eb24925c584d2e0121c975e5b625b0fc71489ec11e04ffd9f8d476c6a372cb640b241c9aa9ff7c25b10b40c916498aa43fe970f30d4d6afce396e9b307cda80e994311bf1ff8e22c33467bbdbc814ca97e46894f023524ef2f040dcd89a55201fd69f3fce26ae5b23af7f6d098305c27a84241e8b091ee9e5a6280d7c6651e709ab7861c1d80c2cbafed5a8c00c1f487b81e7f7048d7be8de8eea4ec0d23546e328504bd14256a6784af7c0fcffc3e17df768ebe5190472f6f6f3bca1c3e45c271798768163af4145906795965c59cb436451ee1e5c91ffed48e76ccc8edbf20889448b24648eb8f8915c6a574e85552b1e57e8aac29314e8e2ae86da2848be7a93f946775079d652b34aa3b40eae9c020f279cb2564f0913ff60715f75092a8e119b06f8e27ab491b9c1ea1e4a5ede6c0743104e4c6817a0033d9143ae744f4539b6b8ce703a6417aa4ecc24e28b3a4da7462f214f85f2b463527161d1323785b70c3660e704e74044df8caac605f8ed29cd1f9282e802845dcd672b41f563ecbff558e0c5bbe1e56bd361c1fcd3e4a20536ff00f14e851762cac9accd51bfecd406fd33536115fc124735fded4eec05c246f56a6fb29d5aa600a0be441dc7d64a1676ef06c43d71b6db14de252a1719f30a82a325f88bf8dcfe54f4c4fe5725463a12c0b01ebb40b82a5f42fed2faa0e9890a79405f21f4799da4dd1dd4e674fd77c88f147b531370b50bd8e8f1bbeee7e8d4b9e34172697c722d7c2f09ff9e921d7cfe31924e98323dc94e98faa1f163dad545e3b01de9c2c0d0bd5c190f292bb806664bb52b67c5a7794ef1d7d5d52b4d84e352a4712bc4bd2a0009f232d1645c4fb6c12c51604cfd8de518d6fa54127e0eafcc95a4a47ca08a3f5a71e4ddb491adcb6c5cf321b2ea1f1f9c034f3f6a82a92cc7104676468cf23bb075444131237c16671ee75ace134cfee560868410aee4ace2c7b5e2aed345b6785454275777fd9887ff09f0c8c19df9e4ca8867f6f8816a3bf405f28f8b541212503f7107246c74e9e0d01a7215f7927b176d6e5fbbb1a712ebbd81ce9c3f294c6fda30a07be63287591fb2e6a4144c91a078baac15b4cc1ffb4e7869ea72673b8e554e3dea554b665e514caf745f26d"
      ],
      "sequence": 4294967294
    }
  ],
  "vout": [
    {
      "value": 1.0,
      "n": 0,
      "scriptPubKey": {
        "asm": "OP_RETURN d1961e2afeca34ab0bfb3b40161253a45fdfa0780c514821f4cef8906cd486d2 c7c2df6060fc4a38da55e3c8a0a5735a3dcf2d5c88da557ea9d019603be45f21e7e2ff4040dc6a18fa75c3e88085537a1def0d7ca8fa755e89f039401bc47f0187829f2020bc0a789a15a388e0e5331a7d8f6d1cc89a153ee99059207ba41f61a7a2bf00009c2a58ba3583a8c0c5133a5daf4d3ce8ba351ec9b079005b843f4147425fe0e07ccab85ad563482025f3dabd4faddc085ad5fe295099e0bb64dfa167627fc0c05cea987af543680005d3fa9d6f8dfc287af5de0970b9c09b44ff8107021fa0a03c8af81a9523086065b39afd0fed9c481a95be6910d9a0fb249fe127223f80801caad83ab50328404593badd2fcdbc683ab59e4930f980db04bfc1c7c2df6060fc4a38da55e3c8a0a5735a3dcf2d5c88da557ea9d019603be45f21e7e2ff4040dc6a18fa75c3e88085537a1def0d7ca8fa755e89f039401bc47f0187829f2020bc0a789a15a388e0e5331a7d8f6d1cc89a153ee99059207ba41f61a7a2bf00009c2a58ba3583a8c0c5133a5daf4d3ce8ba351ec9b079005b843f4147425fe0e07ccab85ad563482025f3dabd4faddc085ad5fe295099e0bb64dfa167627fc0c05cea987af543680005d3fa9d6f8dfc287af5de0970b9c09b44ff8107021fa0a03c8af81a9523086065b39afd0fed9c481a95be6910d9a0fb249fe127223f80801caad83ab50328404593badd2fcdbc683ab59e4930f980db04bfc1c7c2df6060fc4a38da55e3c8a0a5735a3dcf2d5c88da557ea9d019603be45f21e7e2ff4040dc6a18fa75c3e88085537a1def0d7ca8fa755e89f039401bc47f0187829f2020bc0a789a15a388e0e5331a7d8f6d1cc89a153ee99059207ba41f61a7a2bf00009c2a58ba3583a8c0c5133a5daf4d3ce8ba351ec9b079005b843f4147425fe0e07ccab85ad563482025f3dabd4faddc085ad5fe295099e0bb64dfa167627fc0c05cea987af543680005d3fa9d6f8dfc287af5de0970b9c09b44ff8107021fa0a03c8af81a9523086065b39afd0fed9c481a95be6910d9a0fb249fe127223f80801caad83ab50328404593badd2fcdbc683ab59e4930f980db04bfc1c7c2df6060fc4a38da55e3c8a0a5735a3dcf2d5c88da557ea9d019603be45f21e7e2ff4040dc6a18fa75c3e88085537a1def0d7ca8fa755e89f039401bc47f0187829f2020bc0a789a15a388e0e5331a7d8f6d1cc89a153ee99059207ba41f61a7a2bf00009c2a58ba3583a8c0c5133a5daf4d3ce8ba351ec9b079005b843f4147425fe0e07ccab85ad563482025f3dabd4faddc085ad5fe295099e0bb64dfa167627fc0c05cea987af543680005d3fa9d6f8dfc287af5de0970b9c09b44ff8107021fa0a03c8af81a9523086065b39afd0fed9c481a95be6910d9a0fb249fe127223f80801caad83ab50328404593badd2fcdbc683ab59e4930f980db04bfc1c7c2df6060fc4a38da55e3c8a0a5735a3dcf2d5c88da557ea9d019603be45f21e7e2ff4040dc6a18fa75c3e88085537a1def0d7ca8fa755e89f039401bc47f0187829f2020bc0a789a15a388e0e5331a7d8f6d1cc89a153ee99059207ba41f61a7a2bf00009c2a58ba3583a8c0c5133a5daf4d3ce8ba351ec9b079005b843f4147425fe0e07ccab85ad563482025f3da234c0d1f7e152e308a69cc24483de8d8a60a8ef0560167320d38d7afd6ff9609",
        "hex": "6a20d1961e2afeca34ab0bfb3b40161253a45fdfa0780c514821f4cef8906cd486d24db004c7c2df6060fc4a38da55e3c8a0a5735a3dcf2d5c88da557ea9d019603be45f21e7e2ff4040dc6a18fa75c3e88085537a1def0d7ca8fa755e89f039401bc47f0187829f2020bc0a789a15a388e0e5331a7d8f6d1cc89a153ee99059207ba41f61a7a2bf00009c2a58ba3583a8c0c5133a5daf4d3ce8ba351ec9b079005b843f4147425fe0e07ccab85ad563482025f3dabd4faddc085ad5fe295099e0bb64dfa167627fc0c05cea987af543680005d3fa9d6f8dfc287af5de0970b9c09b44ff8107021fa0a03c8af81a9523086065b39afd0fed9c481a95be6910d9a0fb249fe127223f80801caad83ab50328404593badd2fcdbc683ab59e4930f980db04bfc1c7c2df6060fc4a38da55e3c8a0a5735a3dcf2d5c88da557ea9d019603be45f21e7e2ff4040dc6a18fa75c3e88085537a1def0d7ca8fa755e89f039401bc47f0187829f2020bc0a789a15a388e0e5331a7d8f6d1cc89a153ee99059207ba41f61a7a2bf00009c2a58ba3583a8c0c5133a5daf4d3ce8ba351ec9b079005b843f4147425fe0e07ccab85ad563482025f3dabd4faddc085ad5fe295099e0bb64dfa167627fc0c05cea987af543680005d3fa9d6f8dfc287af5de0970b9c09b44ff8107021fa0a03c8af81a9523086065b39afd0fed9c481a95be6910d9a0fb249fe127223f80801caad83ab50328404593badd2fcdbc683ab59e4930f980db04bfc1c7c2df6060fc4a38da55e3c8a0a5735a3dcf2d5c88da557ea9d019603be45f21e7e2ff4040dc6a18fa75c3e88085537a1def0d7ca8fa755e89f039401bc47f0187829f2020bc0a789a15a388e0e5331a7d8f6d1cc89a153ee99059207ba41f61a7a2bf00009c2a58ba3583a8c0c5133a5daf4d3ce8ba351ec9b079005b843f4147425fe0e07ccab85ad563482025f3dabd4faddc085ad5fe295099e0bb64dfa167627fc0c05cea987af543680005d3fa9d6f8dfc287af5de0970b9c09b44ff8107021fa0a03c8af81a9523086065b39afd0fed9c481a95be6910d9a0fb249fe127223f80801caad83ab50328404593badd2fcdbc683ab59e4930f980db04bfc1c7c2df6060fc4a38da55e3c8a0a5735a3dcf2d5c88da557ea9d019603be45f21e7e2ff4040dc6a18fa75c3e88085537a1def0d7ca8fa755e89f039401bc47f0187829f2020bc0a789a15a388e0e5331a7d8f6d1cc89a153ee99059207ba41f61a7a2bf00009c2a58ba3583a8c0c5133a5daf4d3ce8ba351ec9b079005b843f4147425fe0e07ccab85ad563482025f3dabd4faddc085ad5fe295099e0bb64dfa167627fc0c05cea987af543680005d3fa9d6f8dfc287af5de0970b9c09b44ff8107021fa0a03c8af81a9523086065b39afd0fed9c481a95be6910d9a0fb249fe127223f80801caad83ab50328404593badd2fcdbc683ab59e4930f980db04bfc1c7c2df6060fc4a38da55e3c8a0a5735a3dcf2d5c88da557ea9d019603be45f21e7e2ff4040dc6a18fa75c3e88085537a1def0d7ca8fa755e89f039401bc47f0187829f2020bc0a789a15a388e0e5331a7d8f6d1cc89a153ee99059207ba41f61a7a2bf00009c2a58ba3583a8c0c5133a5daf4d3ce8ba351ec9b079005b843f4147425fe0e07ccab85ad563482025f3da234c0d1f7e152e308a69cc24483de8d8a60a8ef0560167320d38d7afd6ff9609",
        "type": "nulldata"
      }
    },
    {
      "value": 499980.6789,
      "n": 1,
      "scriptPubKey": {
        "asm": "1 8df80039b3df0d98de3d94061322f9bb265b942434a5dbca5c777fda742d0140",
        "hex": "51208df80039b3df0d98de3d94061322f9bb265b942434a5dbca5c777fda742d0140",
        "reqSigs": 1,
        "type": "witness_v1_scripthash",
        "addresses": [
          "3QJmnh"
        ]
      }
    }
  ],
  "blockhash": "443ef5589806c3570db60b1178f56898637f167918ce0f0236a27ac7d0512dc1",
  "confirmations": 1,
  "time": 1764179461,
  "blocktime": 1764179461
}