{
  "hex": "0100000000010151d0ce8a0b04416074ce5dbc3c70874faaa2ad69f7601890f08bf27cc376a2850000000000feffffff0200e1f50500000000fdd5046a20f5a4b4fe05bf532d92323f3aae6e2afc4a3ec17114e3e69a5ba4a185f99679a94db004ad8996408ce5d14c8582d3e4ffb457f8b37c5456e52c1b85c11e8651b12038238da9b660acc5f16ca5a2f3c4df9477d8935c7476c50c3ba5e13ea67191001803edc9d600cca5910cc5c293a4bff417b8f33c1416a56c5bc5815ec611f1607863cde9f620ec85b12ce5e2b3849fd43798d31c3436854c7be5a17ee631d14058432d0916c00c6551cc050253647f34d77833fcd4d665ac9b05419e06d131a0b8a30d2936e02c4571ec252273445f14f75813dcf4f6458cbb2561be26f1118098836d4956804c25118c454213243f74973873bc949625ecdb4501de469171e0f8e34d6976a06c0531ac656233041f54b718539cb4b605ccfb6521fe66b151c0d8c3ad8996408ce5d14c8582d3e4ffb457f8b37c5456e52c1b85c11e8651b12038238da9b660acc5f16ca5a2f3c4df9477d8935c7476c50c3ba5e13ea67191001803edc9d600cca5910cc5c293a4bff417b8f33c1416a56c5bc5815ec611f1607863cde9f620ec85b12ce5e2b3849fd43798d31c3436854c7be5a17ee631d14058432d0916c00c6551cc050253647f34d77833fcd4d665ac9b05419e06d131a0b8a30d2936e02c4571ec252273445f14f75813dcf4f6458cbb2561be26f1118098836d4956804c25118c454213243f74973873bc949625ecdb4501de469171e0f8e34d6976a06c0531ac656233041f54b718539cb4b605ccfb6521fe66b151c0d8c3ad8996408ce5d14c8582d3e4ffb457f8b37c5456e52c1b85c11e8651b12038238da9b660acc5f16ca5a2f3c4df9477d8935c7476c50c3ba5e13ea67191001803edc9d600cca5910cc5c293a4bff417b8f33c1416a56c5bc5815ec611f1607863cde9f620ec85b12ce5e2b3849fd43798d31c3436854c7be5a17ee631d14058432d0916c00c6551cc050253647f34d77833fcd4d665ac9b05419e06d131a0b8a30d2936e02c4571ec252273445f14f75813dcf4f6458cbb2561be26f1118098836d4956804c25118c454213243f74973873bc949625ecdb4501de469171e0f8e34d6976a06c0531ac656233041f54b718539cb4b605ccfb6521fe66b151c0d8c3ad8996408ce5d14c8582d3e4ffb457f8b37c5456e52c1b85c11e8651b12038238da9b660acc5f16ca5a2f3c4df9477d8935c7476c50c3ba5e13ea67191001803edc9d600cca5910cc5c293a4bff417b8f33c1416a56c5bc5815ec611f1607863cde9f620ec85b12ce5e2b3849fd43798d31c3436854c7be5a17ee631d14058432d0916c00c6551cc050253647f34d77833fcd4d665ac9b05419e06d131a0b8a30d2936e02c4571ec252273445f14f75813dcf4f6458cbb2561be26f1118098836d4956804c25118c454213243f74973873bc949625ecdb4501de469171e0f8e34d6976a06c0531ac656233041f54b718539cb4b605ccfb6521fe66b151c0d8c3ad8996408ce5d14c8582d3e4ffb457f8b37c5456e52c1b85c11e8651b12038238da9b660acc5f16ca5a2f3c4df9477d8935c7476c50c3ba5e13ea67191001803edc9d600cca5910cc5c293a4bff417b8f33c1416a56c5bc5815ec611f1607863cde9f620ec85b12ce5e2b3849fd43798d31c3436854c7be5a17ee631d14058432d0916c00c6551cc050253647f34d77839132fcbfc0114414634991d2aa0d51083f1bdd72c9d98ccd3ff819527559e1c6076a04b792d000022512040689cb1af7c8e590fbfef2a7f4e8f704208d09389a9d25fcb5adcba095a053502fd7509cbff2b16bbc375d9d48a218b58b4b26f7f304f411981136b127280b116042f99d7447690c7be3adb56f46c325f5b30ca04316bc40fbce08f4c4b12af45e6294c9271f0f083a8308a8403011fe4b34231a7403219c52e90756087d1b87fde149178175cdc9369427cb9ae7c6de74126b7cb3e2f74e2493f039c34477b61e12253bf104fcc97958c067661c2a8a6a7e24a9d0d6a43ea565b53d1afc506d7bc48898916395d2c1d5af02961eb3e5b8d8d6837086119863095e06a80365e35657e95cb2494bbe6b29396e7b45c86135cde6fa9810be676a154043e9e25be8c38bf32943fb32b73cf34aa2cbe809732aca25d182c393f39562103137ca56c00b34c22bab8bac6118434cacd9ce63d8ca68da14de4dc19053a407fb378e49fb5b57900465e58e22fdcd1247daedcd08849c976ab7198d3cd0ebabce6ed149e8e388421044b2f902760f2c84b1aad60646a2d4c5a33c73fda7901d761c83fada15b57e056591cfe58f733edd4f3a33f4ae65df4dc7e55fbd4086979f0f7dab8946541e8bd400e2e49723d14139739ef567be45c8f8e2c632b8369eecf9af29f336151dbcf531e489fc5bd82cad3a34c38f9e8fbe3fefe9f401c085f31dcf936b293efb658f55292c5c319fe33add6f465d9da96c6bb2ce05787fec85d0e9cfd6925b936ff4582607075bbb7b20ec9a976395bdb30588ea5186937d1fc0ec2a2fa2e96c8cde4bfe923ad1911d622a979bdb03f0c9661618b104e4f5b335cdd368996c5f964c22753ed9f879a33f38a051c7dfe45ae0c541bacdbe31222973d5dde825172a04e3675bdf45df332e3f418d6c023ecff0d253e77b5a926eaf555d6f9c2d153cc1038fbcb32939d4bdf1b98daea1e7136a47e14e617848b8d92a30198af949e6aa64396e6f8f0b205343fcd343d54cc4b2cd762e9781fc58814ae2e57957a2350a2776a3450138c461c7770c025625bde5f6b566c15505eab59bca31a9b7f8e32bf3f3f8f35d0673037461494cafdb260933dcfa1d7d21dd3d1aa32f68bfe2f572584627967e2caacd32ced9a78a42732e0b41bbf9e59489cdbeda2b595bb14f836933597dab7007165337adc968ac00e07dacac6bcaf5c717cb23e8bdb735c19c1fc213918a206d4193c26a3adea18b09e9cb4440724b44cadb61ac3fba7ed70ca2e609f099aee2f435e3f4769a87ad916ceb4b09f89fbb7e1c4e28ba7063fbeb0a94afc8946fe9fbf16a48a6de750cab50ad946de63001be6c543e17b78b2e1ca11a7ce36b49fdf07de5b990dbba8dfa7b41b8fa307c8693d21d5645df247e1444e12dfc6e7b21e9efd0d1f6b7da5159e90d6eaf0d103320b503c2f7f92f0772175ecb521a378fc9df5d6ddcdb7003abf4c3786fb63e2c084aec447da621b7a7c5b406f359eac6690b9eba21109bdbcc06e08fed0049b7edc469c7ce3940c869d9ce869a10e8b9fdba889ea41c463425b7458f918c3d4a9f885fd27e9d3f1b2bd6e6f0c77157a37b23a2591b7d7deb31f806ee8ef6f70a57984779c5899f73c0b7182dbb763321bab4ad273e99bd13dea8f10fc23a2ce8e430d59b45e2975ab04e3fde7ebd54d15fa807ffb0b315aeed8ce484d06c40c1b49122e42c4bfc552f1c6137b4617b85161a1c46fe0842172369d321cbab24977d1851f488ce2c4560cf45366ddfa72063c1f6120dac4fb27cd442f39ed4434aa133c332cd33ddab086ca5f5a59342913b5f1997cb5e181a897d6b2cb65936bae409cde48b72698780961189c109e78b94b788efe7a4cde6d45c8ee6a76747e45aac1421160ad26ecc4983d4bfb68ce5c7edecfbc34015774e433fde9061a0a4215eb334ca2f53b8677525e2fc8ebaae853caf0dc168481d7ca06e31c08a3cfc2f93e457139467e7668af2049f269d1a07d5d53fc9a50466bbceb8e0d8d16285143631394474df63e1addf0e0abf31f60654d5e4665177e92d82366f62934e569e2024993f700d208c59bb7e015bd48718d9bc0e7650dbd15552ff4d66ad370d855d5f0ed3a40d67516422107d501e83b5929b0d59be9bd62c0b64a81326e67e63aa0ce52426e3119b121a451ca3f66a8e3aa85d5027980078918962fc3d0edf91ba65dc22b4e80a8cc2f4e622f00123ea366a2fd6757993891a73a4d4fbac4457e9fe0bea729648c159f04c090f3a78ffa8c11e70020deaefc939252e4c4b8ef943c12be11d294b20d59406b2728a51b46c2b0b37f6be8cfea7236c3978704be38c6758f31a5dd0d0a04ca57c2f3ad4605e5109c59a16b929e79d3d50a87c9a4d918ac838df84edb5c6e4db251b58762df75435e8aab41011bf55f6fb6a0ae26056a0e0a0584d49b59daa812db229b315575ee37f2579cf17f007b00ad2e0973a4cebc775876a64d19e9383a455540c6aaa779eeb9f04a50fbd14d44df290e6a75f61261e3e204918e7f29a25f2a0fe22448474752b45ace30a0fa405b1affb266f75292d4c345bbb98daee1b0c51af6d7a93c8ca6c729f976481f57f8362a26911a3a9d1af14b13608110da2adb548840af2f7832bd9b77a093030dee1f95a4ead7a5fdcea796b038034515b144f915cf8fca3ab19474223a9cd4d3be8213de9016cde8e4354a6de553c59149fbb5e7595a7bfc3edf953346687ca3f3fe562d5cb0a3026f2bfe00cb2b86d55e6d9a71fbda45f4797c768277cddddc2a9422b3bdfd39e65ca5e9d56d733a6c68578253d2e8ffd1d1c8262cffe8f0a837d278c80be4900fd0e80daac2f893ce33b67611be8784614d58d36ca473fc5ea861f7528fa440d4a2b2535625dcbd9e88eaa68ad575d55b4388655b8414ac6fd21d766741e8b7c23583c2605b08a925abd2a1faf3718a2dd1d30f452d3bfe1d3a3df184f800d9a17a79edf697969a366d21afef0ada280a259e0ff6621573661e37c0f4cf6976455725b217554c5c4c40285a03f71c2a7990f1ea77425f1e373d0ec72dd653a758071ce54a112a273f58282be8c32bef5731830871ba0bb4a52241c5fad911aa4d3a69ca9147c926171bda842c05128630bbd53068f15fc1fab8a5e5782d008ac9450cb2c426e18a23598178d626f17aad8a8a51b9a11d6708ed486fc1877526c580cc87c4ee7190c5bf0d14fe2316d00bcb4e6922071e585281b948783e456c74b6b0d35a0a5ff9eb76e4eca6b5eb089daf48f21f399f84514116da64bc549367db94ace2cbb45008d6cd761bb17e9b0432e024a38ab174b695a9364d165f9fa05bdc87349638d0e3be72fd57782f66c890fe3b180e483681d74c7c8f406be8cd2742910c13191d646e7695b4baefff031f2292a4c5cde600101d3f415976787d9197999dbec2d5e7e8f703050e162242505e62737d838f91a4e0e4ecfc000000000000000000000000000000000000000000000c14273a01fd2105002ff7120421f9fa0f87f5ac0f60f1acb838807f44287e4c8aeb7371b71706672a8901806af21ddaa7eb8e428846447a8912ed990288723b359d5e39cd3df605580ef171cce97a9bea0146fa49253042dfdcc40ac1e158ef0651b035dbf4f2f23ec6127ac6ff24fe90fc83f5500b3a468e58bfd740b152f4ff6b077ebd3782205725a7458c90ddb8121c8f8088cdd094d328697ffdc4046170af579b4ff9af5d026c600442b8d94ac2439675e58c456b2ca2310521b152fd7d23cd7e580770843a3573a596e36bbb282030fc4d497f8371bcb70ca174fcb0bc5440c6c4a4376b13c9bd837b8a5e9f046ff936044331d4db9c09e112f20ac77a6b88feca6e63d3ee9607e9a23cc8be5fd933dc85eb33279e012f7b29b0df6dae2bd7ee73864f6507f31be75a6e288b93e67987149efa924600e1991ef1a351e2a3d9f4ef985cdcf6e33f4cfb8ee28c93279ed5da762ea6e39e1c1891e59f9e497a7a37409acc823d2b9f41583f4cc991a0d2963a36468444825bee108cade21c0e09b103af05ce8db86e1b964c84f459853f801178a3b4c55a09e30de6bf397a7e399465b4dd16c573de1ab905078406da7d076d3257af684724baff3ff7d9e4fcc8e61f95a9ff80a7e606882bf48ff089aef541c16a0ba2ac88a4d15cfbf065d7669535c56d4b6da4f328bb835b83330c27be48f919c65dc46d5eda8e8f9726b5ae8c54f8192d22179fce1cc9a2fe3e6aa06492e211c938eadeb91c91e1be3614e61e37d56c81a80535f0bb460d219dda4c6cf028da7d1f7f1809ca1cce0832c926911af4c627e52cb997986ef2b0c5ce5696d4b9066d5c7b32a41e161e3d96555c62973b81e22f1c497e2df80fd0d7cccee635c6361a4c7a5e874d59ac5bbf802d0968edf11db2e0c7bb5d856ec280dbd95a3435157047f8e8ab056a18f0ee0819b1a58addd7dbf83556e207616fc95f4ebda4ae5c57a9c2639cc159c2839bff7b663567e73354307167fb16e89995a36a8c88af138ebe0faceb8dd86b9ab0de4de11a74730ef8e0237889bb1256e448d7aad2e5e439af6d4c0a6520f87386249e33553c612889d7237d4f510bd2981ee62a792562a00d4f33e109e63775c05d6f9d12a254655c3190d8baaeb92c31a33e4260f9b0440d13240c524997751f8ef6a959449dc817a011837f23a849e09e2708ba8a8d374b5ec4482304eeb2ec69b5c0c859c03aae9a49cdacc12ed7bb6ab27dfaee1af28c877aee5abc2ccb85032e9c064f56983412f62564917783906c9eb2097ea938c777246cda0546390dfafc7d4b5a727fce47533119fbfba86af761cbefa52058bd017d6125964308df338762d6bc9946d290a75c1c41dcfb0117faf388cd8e90db646bc43918a12a7c54184ed31e30547b3a7ac2ba0c5a5c8600a20cb2da60dd76e87e2445735b400686acdc841d8e65160d39e956207056152b38f4d74b8c49a0a085d97f8963e69f5bf790c394ae54890ed9a76e7829b5a2cf91caf63d42c7997076acf0fd094e65bfe1453eb6149b509c925f5310a812b3846d4fe84557b954167499ddeb056b46f1e27936375721892548c74cdf7a20b5723fb664fc7c687b8b8296f2c6e7d0e37f870a218231f48e6cdc63805ca21150e4974cc28d904c49a6cb2ec8bca79bcc1f539b0c8e18185bb4730fbd36f0fac8ff3544d3d5ab45dc33decd07be29b122cebd2763de9f2c387e6a34fc3d507e97c24de674b166acad37914f367afe0feb8ebc1f07b7b5a7f7f2092f229945f5482a9c601ce5c2c25256bb6fbb2e4666b93c6f81027b1d1b75f0d2cb512b82346c62f290f1e8df5d61d99089fe5cc50b870401294d9b97b9ae6c000000",
  "txid": "8b2c7c72ef70d5ea0b90d91d4ce549d2f04a0e58186b054f883ade314912b4e3",
  "hash": "1759387f4ff467cffbd663b24a55928df1b719e6895ff3d628f7298362231a8c",
  "size": 5085,
  "vsize": 2278,
  "version": 1,
  "locktime": 108,
  "vin": [
    {
      "txid": "85a276c37cf28bf0901860f769ada2aa4f87703cbc5dce746041040b8aced051",
      "vout": 0,
      "scriptSig": {
        "asm": "",
        "hex": ""
      },
      "txinwitness": [
        "cbff2b16bbc375d9d48a218b58b4b26f7f304f411981136b127280b116042f99d7447690c7be3adb56f46c325f5b30ca04316bc40fbce08f4c4b12af45e6294c9271f0f083a8308a8403011fe4b34231a7403219c52e90756087d1b87fde149178175cdc9369427cb9ae7c6de74126b7cb3e2f74e2493f039c34477b61e12253bf104fcc97958c067661c2a8a6a7e24a9d0d6a43ea565b53d1afc506d7bc48898916395d2c1d5af02961eb3e5b8d8d6837086119863095e06a80365e35657e95cb2494bbe6b29396e7b45c86135cde6fa9810be676a154043e9e25be8c38bf32943fb32b73cf34aa2cbe809732aca25d182c393f39562103137ca56c00b34c22bab8bac6118434cacd9ce63d8ca68da14de4dc19053a407fb378e49fb5b57900465e58e22fdcd1247daedcd08849c976ab7198d3cd0ebabce6ed149e8e388421044b2f902760f2c84b1aad60646a2d4c5a33c73fda7901d761c83fada15b57e056591cfe58f733edd4f3a33f4ae65df4dc7e55fbd4086979f0f7dab8946541e8bd400e2e49723d14139739ef567be45c8f8e2c632b8369eecf9af29f336151dbcf531e489fc5bd82cad3a34c38f9e8fbe3fefe9f401c085f31dcf936b293efb658f55292c5c319fe33add6f465d9da96c6bb2ce05787fec85d0e9cfd6925b936ff4582607075bbb7b20ec9a976395bdb30588ea5186937d1fc0ec2a2fa2e96c8cde4bfe923ad1911d622a979bdb03f0c9661618b104e4f5b335cdd368996c5f964c22753ed9f879a33f38a051c7dfe45ae0c541bacdbe31222973d5dde825172a04e3675bdf45df332e3f418d6c023ecff0d253e77b5a926eaf555d6f9c2d153cc1038fbcb32939d4bdf1b98daea1e7136a47e14e617848b8d92a30198af949e6aa64396e6f8f0b205343fcd343d54cc4b2cd762e9781fc58814ae2e57957a2350a2776a3450138c461c7770c025625bde5f6b566c15505eab59bca31a9b7f8e32bf3f3f8f35d0673037461494cafdb260933dcfa1d7d21dd3d1aa32f68bfe2f572584627967e2caacd32ced9a78a42732e0b41bbf9e59489cdbeda2b595bb14f836933597dab7007165337adc968ac00e07dacac6bcaf5c717cb23e8bdb735c19c1fc213918a206d4193c26a3adea18b09e9cb4440724b44cadb61ac3fba7ed70ca2e609f099aee2f435e3f4769a87ad916ceb4b09f89fbb7e1c4e28ba7063fbeb0a94afc8946fe9fbf16a48a6de750cab50ad946de63001be6c543e17b78b2e1ca11a7ce36b49fdf07de5b990dbba8dfa7b41b8fa307c8693d21d5645df247e1444e12dfc6e7b21e9efd0d1f6b7da5159e90d6eaf0d103320b503c2f7f92f0772175ecb521a378fc9df5d6ddcdb7003abf4c3786fb63e2c084aec447da621b7a7c5b406f359eac6690b9eba21109bdbcc06e08fed0049b7edc469c7ce3940c869d9ce869a10e8b9fdba889ea41c463425b7458f918c3d4a9f885fd27e9d3f1b2bd6e6f0c77157a37b23a2591b7d7deb31f806ee8ef6f70a57984779c5899f73c0b7182dbb763321bab4ad273e99bd13dea8f10fc23a2ce8e430d59b45e2975ab04e3fde7ebd54d15fa807ffb0b315aeed8ce484d06c40c1b49122e42c4bfc552f1c6137b4617b85161a1c46fe0842172369d321cbab24977d1851f488ce2c4560cf45366ddfa72063c1f6120dac4fb27cd442f39ed4434aa133c332cd33ddab086ca5f5a59342913b5f1997cb5e181a897d6b2cb65936bae409cde48b72698780961189c109e78b94b788efe7a4cde6d45c8ee6a76747e45aac1421160ad26ecc4983d4bfb68ce5c7edecfbc34015774e433fde9061a0a4215eb334ca2f53b8677525e2fc8ebaae853caf0dc168481d7ca06e31c08a3cfc2f93e457139467e7668af2049f269d1a07d5d53fc9a50466bbceb8e0d8d16285143631394474df63e1addf0e0abf31f60654d5e4665177e92d82366f62934e569e2024993f700d208c59bb7e015bd48718d9bc0e7650dbd15552ff4d66ad370d855d5f0ed3a40d67516422107d501e83b5929b0d59be9bd62c0b64a81326e67e63aa0ce52426e3119b121a451ca3f66a8e3aa85d5027980078918962fc3d0edf91ba65dc22b4e80a8cc2f4e622f00123ea366a2fd6757993891a73a4d4fbac4457e9fe0bea729648c159f04c090f3a78ffa8c11e70020deaefc939252e4c4b8ef943c12be11d294b20d59406b2728a51b46c2b0b37f6be8cfea7236c3978704be38c6758f31a5dd0d0a04ca57c2f3ad4605e5109c59a16b929e79d3d50a87c9a4d918ac838df84edb5c6e4db251b58762df75435e8aab41011bf55f6fb6a0ae26056a0e0a0584d49b59daa812db229b315575ee37f2579cf17f007b00ad2e0973a4cebc775876a64d19e9383a455540c6aaa779eeb9f04a50fbd14d44df290e6a75f61261e3e204918e7f29a25f2a0fe22448474752b45ace30a0fa405b1affb266f75292d4c345bbb98daee1b0c51af6d7a93c8ca6c729f976481f57f8362a26911a3a9d1af14b13608110da2adb548840af2f7832bd9b77a093030dee1f95a4ead7a5fdcea796b038034515b144f915cf8fca3ab19474223a9cd4d3be8213de9016cde8e4354a6de553c59149fbb5e7595a7bfc3edf953346687ca3f3fe562d5cb0a3026f2bfe00cb2b86d55e6d9a71fbda45f4797c768277cddddc2a9422b3bdfd39e65ca5e9d56d733a6c68578253d2e8ffd1d1c8262cffe8f0a837d278c80be4900fd0e80daac2f893ce33b67611be8784614d58d36ca473fc5ea861f7528fa440d4a2b2535625dcbd9e88eaa68ad575d55b4388655b8414ac6fd21d766741e8b7c23583c2605b08a925abd2a1faf3718a2dd1d30f452d3bfe1d3a3df184f800d9a17a79edf697969a366d21afef0ada280a259e0ff6621573661e37c0f4cf6976455725b217554c5c4c40285a03f71c2a7990f1ea77425f1e373d0ec72dd653a758071ce54a112a273f58282be8c32bef5731830871ba0bb4a52241c5fad911aa4d3a69ca9147c926171bda842c05128630bbd53068f15fc1fab8a5e5782d008ac9450cb2c426e18a23598178d626f17aad8a8a51b9a11d6708ed486fc1877526c580cc87c4ee7190c5bf0d14fe2316d00bcb4e6922071e585281b948783e456c74b6b0d35a0a5ff9eb76e4eca6b5eb089daf48f21f399f84514116da64bc549367db94ace2cbb45008d6cd761bb17e9b0432e024a38ab174b695a9364d165f9fa05bdc87349638d0e3be72fd57782f66c890fe3b180e483681d74c7c8f406be8cd2742910c13191d646e7695b4baefff031f2292a4c5cde600101d3f415976787d9197999dbec2d5e7e8f703050e162242505e62737d838f91a4e0e4ecfc000000000000000000000000000000000000000000000c14273a01",
        "002ff7120421f9fa0f87f5ac0f60f1acb838807f44287e4c8aeb7371b71706672a8901806af21ddaa7eb8e428846447a8912ed990288723b359d5e39cd3df605580ef171cce97a9bea0146fa49253042dfdcc40ac1e158ef0651b035dbf4f2f23ec6127ac6ff24fe90fc83f5500b3a468e58bfd740b152f4ff6b077ebd3782205725a7458c90ddb8121c8f8088cdd094d328697ffdc4046170af579b4ff9af5d026c600442b8d94ac2439675e58c456b2ca2310521b152fd7d23cd7e580770843a3573a596e36bbb282030fc4d497f8371bcb70ca174fcb0bc5440c6c4a4376b13c9bd837b8a5e9f046ff936044331d4db9c09e112f20ac77a6b88feca6e63d3ee9607e9a23cc8be5fd933dc85eb33279e012f7b29b0df6dae2bd7ee73864f6507f31be75a6e288b93e67987149efa924600e1991ef1a351e2a3d9f4ef985cdcf6e33f4cfb8ee28c93279ed5da762ea6e39e1c1891e59f9e497a7a37409acc823d2b9f41583f4cc991a0d2963a36468444825bee108cade21c0e09b103af05ce8db86e1b964c84f459853f801178a3b4c55a09e30de6bf397a7e399465b4dd16c573de1ab905078406da7d076d3257af684724baff3ff7d9e4fcc8e61f95a9ff80a7e606882bf48ff089aef541c16a0ba2ac88a4d15cfbf065d7669535c56d4b6da4f328bb835b83330c27be48f919c65dc46d5eda8e8f9726b5ae8c54f8192d22179fce1cc9a2fe3e6aa06492e211c938eadeb91c91e1be3614e61e37d56c81a80535f0bb460d219dda4c6cf028da7d1f7f1809ca1cce0832c926911af4c627e52cb997986ef2b0c5ce5696d4b9066d5c7b32a41e161e3d96555c62973b81e22f1c497e2df80fd0d7cccee635c6361a4c7a5e874d59ac5bbf802d0968edf11db2e0c7bb5d856ec280dbd95a3435157047f8e8ab056a18f0ee0819b1a58addd7dbf83556e207616fc95f4ebda4ae5c57a9c2639cc159c2839bff7b663567e73354307167fb16e89995a36a8c88af138ebe0faceb8dd86b9ab0de4de11a74730ef8e0237889bb1256e448d7aad2e5e439af6d4c0a6520f87386249e33553c612889d7237d4f510bd2981ee62a792562a00d4f33e109e63775c05d6f9d12a254655c3190d8baaeb92c31a33e4260f9b0440d13240c524997751f8ef6a959449dc817a011837f23a849e09e2708ba8a8d374b5ec4482304eeb2ec69b5c0c859c03aae9a49cdacc12ed7bb6ab27dfaee1af28c877aee5abc2ccb85032e9c064f56983412f62564917783906c9eb2097ea938c777246cda0546390dfafc7d4b5a727fce47533119fbfba86af761cbefa52058bd017d6125964308df338762d6bc9946d290a75c1c41dcfb0117faf388cd8e90db646bc43918a12a7c54184ed31e30547b3a7ac2ba0c5a5c8600a20cb2da60dd76e87e2445735b400686acdc841d8e65160d39e956207056152b38f4d74b8c49a0a085d97f8963e69f5bf790c394ae54890ed9a76e7829b5a2cf91caf63d42c7997076acf0fd094e65bfe1453eb6149b509c925f5310a812b3846d4fe84557b954167499ddeb056b46f1e27936375721892548c74cdf7a20b5723fb664fc7c687b8b8296f2c6e7d0e37f870a218231f48e6cdc63805ca21150e4974cc28d904c49a6cb2ec8bca79bcc1f539b0c8e18185bb4730fbd36f0fac8ff3544d3d5ab45dc33decd07be29b122cebd2763de9f2c387e6a34fc3d507e97c24de674b166acad37914f367afe0feb8ebc1f07b7b5a7f7f2092f229945f5482a9c601ce5c2c25256bb6fbb2e4666b93c6f81027b1d1b75f0d2cb512b82346c62f290f1e8df5d61d99089fe5cc50b870401294d9b97b9ae"
      ],
      "sequence": 4294967294
    }
  ],
  "vout": [
    {
      "value": 1.0,
      "n": 0,
      "scriptPubKey": {
        "asm": "OP_RETURN f5a4b4fe05bf532d92323f3aae6e2afc4a3ec17114e3e69a5ba4a185f99679a9 ad8996408ce5d14c8582d3e4ffb457f8b37c5456e52c1b85c11e8651b12038238da9b660acc5f16ca5a2f3c4df9477d8935c7476c50c3ba5e13ea67191001803edc9d600cca5910cc5c293a4bff417b8f33c1416a56c5bc5815ec611f1607863cde9f620ec85b12ce5e2b3849fd43798d31c3436854c7be5a17ee631d14058432d0916c00c6551cc050253647f34d77833fcd4d665ac9b05419e06d131a0b8a30d2936e02c4571ec252273445f14f75813dcf4f6458cbb2561be26f1118098836d4956804c25118c454213243f74973873bc949625ecdb4501de469171e0f8e34d6976a06c0531ac656233041f54b718539cb4b605ccfb6521fe66b151c0d8c3ad8996408ce5d14c8582d3e4ffb457f8b37c5456e52c1b85c11e8651b12038238da9b660acc5f16ca5a2f3c4df9477d8935c7476c50c3ba5e13ea67191001803edc9d600cca5910cc5c293a4bff417b8f33c1416a56c5bc5815ec611f1607863cde9f620ec85b12ce5e2b3849fd43798d31c3436854c7be5a17ee631d14058432d0916c00c6551cc050253647f34d77833fcd4d665ac9b05419e06d131a0b8a30d2936e02c4571ec252273445f14f75813dcf4f6458cbb2561be26f1118098836d4956804c25118c454213243f74973873bc949625ecdb4501de469171e0f8e34d6976a06c0531ac656233041f54b718539cb4b605ccfb6521fe66b151c0d8c3ad8996408ce5d14c8582d3e4ffb457f8b37c5456e52c1b85c11e8651b12038238da9b660acc5f16ca5a2f3c4df9477d8935c7476c50c3ba5e13ea67191001803edc9d600cca5910cc5c293a4bff417b8f33c1416a56c5bc5815ec611f1607863cde9f620ec85b12ce5e2b3849fd43798d31c3436854c7be5a17ee631d14058432d0916c00c6551cc050253647f34d77833fcd4d665ac9b05419e06d131a0b8a30d2936e02c4571ec252273445f14f75813dcf4f6458cbb2561be26f1118098836d4956804c25118c454213243f74973873bc949625ecdb4501de469171e0f8e34d6976a06c0531ac656233041f54b718539cb4b605ccfb6521fe66b151c0d8c3ad8996408ce5d14c8582d3e4ffb457f8b37c5456e52c1b85c11e8651b12038238da9b660acc5f16ca5a2f3c4df9477d8935c7476c50c3ba5e13ea67191001803edc9d600cca5910cc5c293a4bff417b8f33c1416a56c5bc5815ec611f1607863cde9f620ec85b12ce5e2b3849fd43798d31c3436854c7be5a17ee631d14058432d0916c00c6551cc050253647f34d77833fcd4d665ac9b05419e06d131a0b8a30d2936e02c4571ec252273445f14f75813dcf4f6458cbb2561be26f1118098836d4956804c25118c454213243f74973873bc949625ecdb4501de469171e0f8e34d6976a06c0531ac656233041f54b718539cb4b605ccfb6521fe66b151c0d8c3ad8996408ce5d14c8582d3e4ffb457f8b37c5456e52c1b85c11e8651b12038238da9b660acc5f16ca5a2f3c4df9477d8935c7476c50c3ba5e13ea67191001803edc9d600cca5910cc5c293a4bff417b8f33c1416a56c5bc5815ec611f1607863cde9f620ec85b12ce5e2b3849fd43798d31c3436854c7be5a17ee631d14058432d0916c00c6551cc050253647f34d77839132fcbfc0114414634991d2aa0d51083f1bdd72c9d98ccd3ff819527559e1c",
        "hex": "6a20f5a4b4fe05bf532d92323f3aae6e2afc4a3ec17114e3e69a5ba4a185f99679a94db004ad8996408ce5d14c8582d3e4ffb457f8b37c5456e52c1b85c11e8651b12038238da9b660acc5f16ca5a2f3c4df9477d8935c7476c50c3ba5e13ea67191001803edc9d600cca5910cc5c293a4bff417b8f33c1416a56c5bc5815ec611f1607863cde9f620ec85b12ce5e2b3849fd43798d31c3436854c7be5a17ee631d14058432d0916c00c6551cc050253647f34d77833fcd4d665ac9b05419e06d131a0b8a30d2936e02c4571ec252273445f14f75813dcf4f6458cbb2561be26f1118098836d4956804c25118c454213243f74973873bc949625ecdb4501de469171e0f8e34d6976a06c0531ac656233041f54b718539cb4b605ccfb6521fe66b151c0d8c3ad8996408ce5d14c8582d3e4ffb457f8b37c5456e52c1b85c11e8651b12038238da9b660acc5f16ca5a2f3c4df9477d8935c7476c50c3ba5e13ea67191001803edc9d600cca5910cc5c293a4bff417b8f33c1416a56c5bc5815ec611f1607863cde9f620ec85b12ce5e2b3849fd43798d31c3436854c7be5a17ee631d14058432d0916c00c6551cc050253647f34d77833fcd4d665ac9b05419e06d131a0b8a30d2936e02c4571ec252273445f14f75813dcf4f6458cbb2561be26f1118098836d4956804c25118c454213243f74973873bc949625ecdb4501de469171e0f8e34d6976a06c0531ac656233041f54b718539cb4b605ccfb6521fe66b151c0d8c3ad8996408ce5d14c8582d3e4ffb457f8b37c5456e52c1b85c11e8651b12038238da9b660acc5f16ca5a2f3c4df9477d8935c7476c50c3ba5e13ea67191001803edc9d600cca5910cc5c293a4bff417b8f33c1416a56c5bc5815ec611f1607863cde9f620ec85b12ce5e2b3849fd43798d31c3436854c7be5a17ee631d14058432d0916c00c6551cc050253647f34d77833fcd4d665ac9b05419e06d131a0b8a30d2936e02c4571ec252273445f14f75813dcf4f6458cbb2561be26f1118098836d4956804c25118c454213243f74973873bc949625ecdb4501de469171e0f8e34d6976a06c0531ac656233041f54b718539cb4b605ccfb6521fe66b151c0d8c3ad8996408ce5d14c8582d3e4ffb457f8b37c5456e52c1b85c11e8651b12038238da9b660acc5f16ca5a2f3c4df9477d8935c7476c50c3ba5e13ea67191001803edc9d600cca5910cc5c293a4bff417b8f33c1416a56c5bc5815ec611f1607863cde9f620ec85b12ce5e2b3849fd43798d31c3436854c7be5a17ee631d14058432d0916c00c6551cc050253647f34d77833fcd4d665ac9b05419e06d131a0b8a30d2936e02c4571ec252273445f14f75813dcf4f6458cbb2561be26f1118098836d4956804c25118c454213243f74973873bc949625ecdb4501de469171e0f8e34d6976a06c0531ac656233041f54b718539cb4b605ccfb6521fe66b151c0d8c3ad8996408ce5d14c8582d3e4ffb457f8b37c5456e52c1b85c11e8651b12038238da9b660acc5f16ca5a2f3c4df9477d8935c7476c50c3ba5e13ea67191001803edc9d600cca5910cc5c293a4bff417b8f33c1416a56c5bc5815ec611f1607863cde9f620ec85b12ce5e2b3849fd43798d31c3436854c7be5a17ee631d14058432d0916c00c6551cc050253647f34d77839132fcbfc0114414634991d2aa0d51083f1bdd72c9d98ccd3ff819527559e1c",
        "type": "nulldata"
      }
    },
    {
      "value": 499989.831,
      "n": 1,
      "scriptPubKey": {
        "asm": "1 40689cb1af7c8e590fbfef2a7f4e8f704208d09389a9d25fcb5adcba095a0535",
        "hex": "512040689cb1af7c8e590fbfef2a7f4e8f704208d09389a9d25fcb5adcba095a0535",
        "reqSigs": 1,
        "type": "witness_v1_scripthash",
        "addresses": [
          "3QJmnh"
        ]
      }
    }
  ],
  "blockhash": "fed18006ccdab590a9e00afae0c126c0756e5b686d02c0375b028c4c6af5cb31",
  "confirmations": 1,
  "time": 1764177489,
  "blocktime": 1764177489
}