{
  "hex": "01000000000101ebf3b6947c97a63a9bf70c70e078f3257ef9af8f6096d85e75fa990988034ef20000000000feffffff0200e1f50500000000fdd5046a206033bcfa189d4502a9b60c14da797f4a7dffa581714261c2d8a6b7702dc73f384db004815634470ad9445b852c75df8d677ddf1bf309f48f5247fbd0b1e548812d2cf6a17614672af9647ba50c55ffad475dff3bd329d4af7267dbf091c568a10d0cd6c11674074a99041bc56c359fcd273d9f5bb349b4cf1207bb90f1a508c16d6cb6e13654276ab9243be54c15bfed071dbf7b936994ef32279bb0d18528e14d4c9601d6b4c78a59c4db05acf55f0de7fd5f9b7389740fd2c77b503165c801adac7621f694e7aa79e4fb258cd57f2dc7dd7fbb53a9542ff2e75b701145e8218d8c564196f487ca19849b45ecb51f4da7bd1fdb33c9344f92873b1071258841edec3661b6d4a7ea39a4bb65cc953f6d879d3ffb13e9146fb2a71b305105a861cdcc16815634470ad9445b852c75df8d677ddf1bf309f48f5247fbd0b1e548812d2cf6a17614672af9647ba50c55ffad475dff3bd329d4af7267dbf091c568a10d0cd6c11674074a99041bc56c359fcd273d9f5bb349b4cf1207bb90f1a508c16d6cb6e13654276ab9243be54c15bfed071dbf7b936994ef32279bb0d18528e14d4c9601d6b4c78a59c4db05acf55f0de7fd5f9b7389740fd2c77b503165c801adac7621f694e7aa79e4fb258cd57f2dc7dd7fbb53a9542ff2e75b701145e8218d8c564196f487ca19849b45ecb51f4da7bd1fdb33c9344f92873b1071258841edec3661b6d4a7ea39a4bb65cc953f6d879d3ffb13e9146fb2a71b305105a861cdcc16815634470ad9445b852c75df8d677ddf1bf309f48f5247fbd0b1e548812d2cf6a17614672af9647ba50c55ffad475dff3bd329d4af7267dbf091c568a10d0cd6c11674074a99041bc56c359fcd273d9f5bb349b4cf1207bb90f1a508c16d6cb6e13654276ab9243be54c15bfed071dbf7b936994ef32279bb0d18528e14d4c9601d6b4c78a59c4db05acf55f0de7fd5f9b7389740fd2c77b503165c801adac7621f694e7aa79e4fb258cd57f2dc7dd7fbb53a9542ff2e75b701145e8218d8c564196f487ca19849b45ecb51f4da7bd1fdb33c9344f92873b1071258841edec3661b6d4a7ea39a4bb65cc953f6d879d3ffb13e9146fb2a71b305105a861cdcc16815634470ad9445b852c75df8d677ddf1bf309f48f5247fbd0b1e548812d2cf6a17614672af9647ba50c55ffad475dff3bd329d4af7267dbf091c568a10d0cd6c11674074a99041bc56c359fcd273d9f5bb349b4cf1207bb90f1a508c16d6cb6e13654276ab9243be54c15bfed071dbf7b936994ef32279bb0d18528e14d4c9601d6b4c78a59c4db05acf55f0de7fd5f9b7389740fd2c77b503165c801adac7621f694e7aa79e4fb258cd57f2dc7dd7fbb53a9542ff2e75b701145e8218d8c564196f487ca19849b45ecb51f4da7bd1fdb33c9344f92873b1071258841edec3661b6d4a7ea39a4bb65cc953f6d879d3ffb13e9146fb2a71b305105a861cdcc16815634470ad9445b852c75df8d677ddf1bf309f48f5247fbd0b1e548812d2cf6a17614672af9647ba50c55ffad475dff3bd329d4af7267dbf091c568a10d0cd6c11674074a99041bc56c359fcd273d9f5bb349b4cf1207bb90f1a508c16d6cb6e13654276ab9243be54c15bfed071dbf7b936994ef32279bb0d18528e14d4c9601d6b4c78a59c4db05acf55f0de7fd5f8d549016d9d7b6d83652d48e27116f46c2e0d31c8de6bdd77ba9be67cbf550b9d02296e4782d0000225120e94092601886c0c5b3dda1aa6a18e16abd4a33714beb47d5a3019c744db2ac4f02fd7509879c6cd6d5221406a65ad82792efcda1f54ff4313ee7a12362b834e0d5bc05f86ec67181c7b8602f694e180386fe8ccd2190cbba7f70ad47a5ad5157a29e2e4d9f372b7cb8f7e6c5c5270c798567128271ee9d4515ba18dac1eb7f68cc0bb680fad02a7b2d603040eab167eee0f90a050cb8a6f8a1f3ce57bf405d1326a49ff8df52a2449633c0ef9740d5a9d38612836c375a69105ba7bc7ce57f9b8a5af28db2233948c906610922bfd9b34f1c58b1deb43f4ea113ef2bf8edda049bb70257f3a32f5039c049b03951e82ba116ae157ef1f49edfbfab9b84e84c062b6de95d0581718f2a1d324bf06dee6bb0762d526b505137a7d6f0f759f9c0a7a4a3aa2f753e321f6601605536f66d2992d8ccbd100ca286f0d6bcba9400357a46153f702999506a4ba128c00abe0831a4b71c2a842da2f57a2076dffbada3432ed74bf13121dd8df950ecefb53f0ed48afb9a73fab2757b863ce35c3e642137a7d3e841080b23748f5c68c618be8bf9a1d3c2a490d54e38da814b429e7fb59963122116952dd4024465a3b8d5d33dbffcada411ade46158389ace9f53e3dd9730da0162e37fa7bf4314062f1e9973781360576d3ebc75ae620408ec984bf7eba83df9d4111bea72502a40ef8634892c73079a62b895654d28fc97169323e3ac6fbaaec406658e55d82bf87cc2fc742fab8c9866911a27a4153a2d6173ffa67a8f018dba2f582d122dcd444a6298402afbcd19db2aabcbbd9e7e4e45d090fcb553830d7840bf8d23ed192167f708ea1c92856f86fe1b3beda222e759e0d2851d5f6f7cd0a02a923bd7e2f21ad3418b45c11ba01f2f50fd80c7748f40644097b206d84a7568d184f37d511ffd8134be7906f24e40fca4a6e98ec6af9169b81c1606e0070a8934bb1594d2175e07abb5cfefebaa6cfe611993faa3cecad16cd0b11479caa7cac18c9028a2529d9882f51b09e5eb0db4e63571c39bf842ca5b21ac1c2a8cbec058f8c0f19e40fb8b32ccb64a94c7e400d24a97b66b58b156863dad9bba62484de59ededdc746c03ab95071d263125925728f13b0fd4b81e4e5e8b7dee186474c699f61962ef4c5ad0492e1fedb61e7f486da7435d6eef6513b80bf4afeeb5f485421c81fa57cc5864d1af769cef1ada8b0071cba76368aa4db9c77f66175a82ae7ed98d45c6938a0095c37646f665f15d0a0e201841f2b09eea7af39603363fd8f55a391b903335ae1e4716569f59aea8c9291a9842d0f8964df4f85de9ca4f9dbd224471e34795937305ba3ac23442bb30877677feaa4bad10b79025f656580ee9f72cb0751916d6cc3a4ebe93a70bc2fd31e3aede7e2caebea824debcd365e47b373c3de297f8cb06dd3ea1d47d4326944c3c9e163200d7c4e33c6e754094f083f36349b0a97badb50463576d5b5696a68329cad06c8f2be72313379c6a31574a3b396cae7ab1edbfe96e2836ecc275534dfcaf78fd14fba1c1ee32eb2567a8865a7158fb90a726d7b880742b14a956556ff987fa4db2141406af57ac3435dab652399724ef872dcebc24e0bb32ac630101c4e3ae01410e5b847eea0c8e5a90ad5924e41234720ecc5a823178c8876958d2cefddae47b6f0f85eeaa0d6d749f7bb03d2081f17897327353982053710461bb44ed1b4f64de9da218d94e7cedd38ea47c3406bdc4395e5237bcfee9c02cf8de29e824e9f0ff1942808652da6ff4bb35e9c9c41b6d3951a0afefcc3bd69c15c61da6eae01c5ac25f2a993ab73edac24d7a0d0d05b261cfa5ea721ae4a0e1a11baf3dadecac5448fa99debdff071f79b56dcbaacd229b20dd16f85b2d8f5bf4bc2c50909912cb89436fef9539825f82569ca40008fdff64ceee57be16439f1b3180e3da45e4559e356bb80dec3a719fbe4202c5451c1dbc988fe13758836961bfe1882a39cf8a001dcf071a43cf37eeab5febe9151626d0b988e5eaf87f4e9c2257d78c3c93ec0910c3ecb6daa40f1d5135df6f6520bca5609cac383417f0f3e0905fa58900e92f345ad240b010fc7f268532ad186d88b0ba42282ba7f4734d43bc38a37c61a0f27e8f1c0f2803adeb85058d61c549d75c8ad5fc9b22389446f76c842cb0bda07a99ce7ea32834da1b5e504eb3152f5240b80f02ddc7eb8788c74703b8371a2ec9050133eaf8b2d74753926db02ae766dbdc28659fe765e3148227477e76f2cfed421ea9db08aa338e5400fcb3b8f83bd692d37a0cf7fe9beb1a96ebbf58044bbcaaf3fc35442729f82e00b41e47dda9caebe2ee819a13cac322a272fac450d75fde75749ec87f9dec5ac0d6da2aa3fcda423f67949b5a26ced955b7a91f10b386504cc98684fe8984d1c8f9c00477171368d8578128340839a766e4a8df6d6d81b94c64e1b6ab4297312062d2b9d97e5565003ada0c7da8855a1375832bc43d79ad190e2c70f0c978e26666d69e6f8d7b9671be33aa45e7a9f23eb569132aace8935e31d3a978c10a03d3916aa1eb1d2b3680a31c6c59ba12f81ff8ceedd55d385928e96b2e144618e6d8964fcfba1c7cdbfd57d5499916a52f99f7dd154497d4380409eeddafd21c22a04a065f68dce2fb248143cf9083d1c55ee58de0f811e943ca4614c8bec980e6d15854ee5909ce381249c0a92c0ccf92865d5b65cd472898fec6e8b038c1676d96b7f192d6be0773dad0dea236318c04788e71708f540bb642c98765555e40b24cf2117282916c1544540ff58dafadc25a953c8ec1b2db2428db454fe66cc6542f2d929e7e70901519886030ea579ce199a2cb6118d0f007b7fb2e7a17e7256c33e3a2e269cf9ba6c59b05d5ffe4aaae8b815c5445a18a527b594e48c7d91afd2cdb0c9c325c89025c409ca9006d7d85adcbb6a03a852e6e30909aa1cfc2345db3ffc7e28bee221bb21f7c5f972ac7a4fb3bbf6abeec26b7bb6d5e036a52df42ca049b723d1b74c5d6dd811402c79edcd49a51f2902ccabd1c67dbf7dfd8170c2d74a4869ccd9a9ba96453a34b7f4b70b3d7379e67eeb470de00d44b29f5e4907038fdca10a2eb73c6b93f3052e8fd5f57a4fc175b20b7def9ae13d6f87284754bf6da893dd5e7d74df50bf53bbb750b484ed10ecb929696101717c94609df290f8370e94cabeb29e1c00fc0e83d29e7878acf7f36be31f968bf15d46fd9e0101adda2ecf72da2a20f3c54df6fb299cfe08cd7ad11685ba0fa0cbba1561f13b9efef34034a2923817f050f440da9b35ce34c8f4c6f06492842252ff8fdf274e0892f4a8f2b8bad84708cb9b0d94c06b107ffd66643643fcdf5b45cae5141d4144575c62737cbde530384b657579869b9ca1c0dcdddf0a161e3e46505c697b93afbfcef20209173b4043595e696f767788bcc8cb000000000000000000000000000000000000000000000000000b19273701fd2105004052d061bce2334c6f11fc1f4579f2b7d27a5f1ffe9836c2ca8db03f9ac9b31bb65b896d7bbaa5b10a9bae7299da165a7b33b308f5bc38e86ee93b795a0c4cbe01392e40db839934263ec93def838f79cac3f072b6954bbfed4c0cc9c16d03126b491976f7143ea9ee178aeaea0cb8c6f8e40d6f41a75c78b5b662adcb86748660bcef534943f31c730e0546a2ac4c0e23edab8d5912d9d90e24c337c2b845871c31065472975778057e0dfac92684b876915506905d4616eca8c1d7a432767c791820c397c33261cd17de7bce5fc2391fe8b73f33ebd2eaecbc47afac1a475ea859858646414ddd0009573adbfc936d9bf9754dd049501e913d5fec676d770fda64ed7b86ed5f61c8593828d33513f071cccea9456cee942cf7b3be31fab3d57476c38dfed51bf2620748c31863567420a0a0698b764bb2734b75ab15b6382ba8820332f3ebcbfb972ff63410e2649dce8d70f78719fdd2f84b9bdf7fd229faa0cb91b1461b675a33ea98dde8b6aa5329ca63b404591d5a8b383bc9d2c48716bb519f38411e58e19d559dbc8165d047cd2cf29ab89b0a97677c8a503a271455a7840676ecc97bb8a9823e9abda3f8596e3053531f47f90f04d4b8138de6ae39255c52295d1b96b302570e05dfb1e13ef8c326a3f91bc677f9738b748ebb285046429d5b3e819ff60c81e541d4420b8e9d3352f1179e203a9fd8932d99acfc9e1312e348e7ee233ce2053712e90cea0a8910bc678d839ff0aafec433e6119773e480ea15fe5c1015f41fba482cad8236ed8e604ebe5fc188301c3dbcc63d33263eeab2ac7c9c824e63cc17fc1d182349e626f2202c39db99ea37adb29a2d5dd876157d13c039366f2a62c45a56d95e66f2ecb4545f04d347d0752d61a095bb94b6a89cd65e69e588d71a9db2d0898730d2720de88cb69a68b73c991ec5c31aaeb887de87eff6826c37bf3cf057a94ada0a2f5d01279982b4d7288470f9461429b11bbdb26ab64c26bcafa834e4e6a71e038e199f5ec9757e9e51a2085ad4c297f3cf8f2e39bef0aabf93b72506a06967eca9c537850d3bb4121466cdbd231f5df7dbfca41755f9f2262f3037200028e2c043e7c87e75e21f0117638b4d6dfd5937070ab8bf3f272f3633dc7cc5d6279112f2447747a9151665ab17e19a8ba6a1350b75a994e75630db70f761832e8ffc3d4b249470c67994ab6ff326a791eadf4da47dc096c34056f2f159d2f3963a9ebfa5aa94c2750ca6c656a6119eccb7e6238009bc965b1da8413460988120fed174e4ffd5d435fb3b6f2022c8ffc2395f31e58bab8dd37756facfcedaf9b8b81a65b8e45af8495a16639e122ae0dc9dc7723c9272945fb5a0492a6806a9d8330cdf7d11f1528fb459146878c0662a5a90f09cf2c0fbedc9541e3e28a1d5fcd56ae340ab9d6dd7cbe2193a6058758ddabc72cfd06266f5fe552223e7d7d4d466944b39be537c9302d01ee9efd408df8bbaec1f8d6c5bebe2214cd00cabeca196e4bc4eae9040d3139bb666b7b4230f47d49868ad8bc563dec4f3e3142e39a893378f234daf1bcc2c894803f55b97caaa127b288bab039aa3b3438e893c19f18c9833879afc77b3fecbdb6380fd281c72cb42cf4f7ff79a92cbf32f1dcf0a83e034049d0b2f0e598430c4e68c087a7b997fee6a65461d03f41e0ac9b2368736f5a3d8177f51d8ca293c1e2f1cb4d5283e7e88344ccf66d04560e433c491cbed14cad8a17184aa1938b9ccc949e95a4e41fe532e04dde4d429b5fd2c3058f17e1e11346d817ae554d175dd642a519e10934fef4879e63ba66c5402e23a7a6515839ebc0bf414180efe9d399203968e84de097d000000",
  "txid": "8a2ccbb87c9f60b19133d0d4ebcec8aec93ecfaf22bf1bf45c3a4aa599fffe4f",
  "hash": "d74bc8f9b6d22aebeb0f54f0981640c377c0b535f8867d8890e2159687a9fa90",
  "size": 5085,
  "vsize": 2278,
  "version": 1,
  "locktime": 125,
  "vin": [
    {
      "txid": "f24e03880999fa755ed896608faff97e25f378e0700cf79b3aa6977c94b6f3eb",
      "vout": 0,
      "scriptSig": {
        "asm": "",
        "hex": ""
      },
      "txinwitness": [
        "879c6cd6d5221406a65ad82792efcda1f54ff4313ee7a12362b834e0d5bc05f86ec67181c7b8602f694e180386fe8ccd2190cbba7f70ad47a5ad5157a29e2e4d9f372b7cb8f7e6c5c5270c798567128271ee9d4515ba18dac1eb7f68cc0bb680fad02a7b2d603040eab167eee0f90a050cb8a6f8a1f3ce57bf405d1326a49ff8df52a2449633c0ef9740d5a9d38612836c375a69105ba7bc7ce57f9b8a5af28db2233948c906610922bfd9b34f1c58b1deb43f4ea113ef2bf8edda049bb70257f3a32f5039c049b03951e82ba116ae157ef1f49edfbfab9b84e84c062b6de95d0581718f2a1d324bf06dee6bb0762d526b505137a7d6f0f759f9c0a7a4a3aa2f753e321f6601605536f66d2992d8ccbd100ca286f0d6bcba9400357a46153f702999506a4ba128c00abe0831a4b71c2a842da2f57a2076dffbada3432ed74bf13121dd8df950ecefb53f0ed48afb9a73fab2757b863ce35c3e642137a7d3e841080b23748f5c68c618be8bf9a1d3c2a490d54e38da814b429e7fb59963122116952dd4024465a3b8d5d33dbffcada411ade46158389ace9f53e3dd9730da0162e37fa7bf4314062f1e9973781360576d3ebc75ae620408ec984bf7eba83df9d4111bea72502a40ef8634892c73079a62b895654d28fc97169323e3ac6fbaaec406658e55d82bf87cc2fc742fab8c9866911a27a4153a2d6173ffa67a8f018dba2f582d122dcd444a6298402afbcd19db2aabcbbd9e7e4e45d090fcb553830d7840bf8d23ed192167f708ea1c92856f86fe1b3beda222e759e0d2851d5f6f7cd0a02a923bd7e2f21ad3418b45c11ba01f2f50fd80c7748f40644097b206d84a7568d184f37d511ffd8134be7906f24e40fca4a6e98ec6af9169b81c1606e0070a8934bb1594d2175e07abb5cfefebaa6cfe611993faa3cecad16cd0b11479caa7cac18c9028a2529d9882f51b09e5eb0db4e63571c39bf842ca5b21ac1c2a8cbec058f8c0f19e40fb8b32ccb64a94c7e400d24a97b66b58b156863dad9bba62484de59ededdc746c03ab95071d263125925728f13b0fd4b81e4e5e8b7dee186474c699f61962ef4c5ad0492e1fedb61e7f486da7435d6eef6513b80bf4afeeb5f485421c81fa57cc5864d1af769cef1ada8b0071cba76368aa4db9c77f66175a82ae7ed98d45c6938a0095c37646f665f15d0a0e201841f2b09eea7af39603363fd8f55a391b903335ae1e4716569f59aea8c9291a9842d0f8964df4f85de9ca4f9dbd224471e34795937305ba3ac23442bb30877677feaa4bad10b79025f656580ee9f72cb0751916d6cc3a4ebe93a70bc2fd31e3aede7e2caebea824debcd365e47b373c3de297f8cb06dd3ea1d47d4326944c3c9e163200d7c4e33c6e754094f083f36349b0a97badb50463576d5b5696a68329cad06c8f2be72313379c6a31574a3b396cae7ab1edbfe96e2836ecc275534dfcaf78fd14fba1c1ee32eb2567a8865a7158fb90a726d7b880742b14a956556ff987fa4db2141406af57ac3435dab652399724ef872dcebc24e0bb32ac630101c4e3ae01410e5b847eea0c8e5a90ad5924e41234720ecc5a823178c8876958d2cefddae47b6f0f85eeaa0d6d749f7bb03d2081f17897327353982053710461bb44ed1b4f64de9da218d94e7cedd38ea47c3406bdc4395e5237bcfee9c02cf8de29e824e9f0ff1942808652da6ff4bb35e9c9c41b6d3951a0afefcc3bd69c15c61da6eae01c5ac25f2a993ab73edac24d7a0d0d05b261cfa5ea721ae4a0e1a11baf3dadecac5448fa99debdff071f79b56dcbaacd229b20dd16f85b2d8f5bf4bc2c50909912cb89436fef9539825f82569ca40008fdff64ceee57be16439f1b3180e3da45e4559e356bb80dec3a719fbe4202c5451c1dbc988fe13758836961bfe1882a39cf8a001dcf071a43cf37eeab5febe9151626d0b988e5eaf87f4e9c2257d78c3c93ec0910c3ecb6daa40f1d5135df6f6520bca5609cac383417f0f3e0905fa58900e92f345ad240b010fc7f268532ad186d88b0ba42282ba7f4734d43bc38a37c61a0f27e8f1c0f2803adeb85058d61c549d75c8ad5fc9b22389446f76c842cb0bda07a99ce7ea32834da1b5e504eb3152f5240b80f02ddc7eb8788c74703b8371a2ec9050133eaf8b2d74753926db02ae766dbdc28659fe765e3148227477e76f2cfed421ea9db08aa338e5400fcb3b8f83bd692d37a0cf7fe9beb1a96ebbf58044bbcaaf3fc35442729f82e00b41e47dda9caebe2ee819a13cac322a272fac450d75fde75749ec87f9dec5ac0d6da2aa3fcda423f67949b5a26ced955b7a91f10b386504cc98684fe8984d1c8f9c00477171368d8578128340839a766e4a8df6d6d81b94c64e1b6ab4297312062d2b9d97e5565003ada0c7da8855a1375832bc43d79ad190e2c70f0c978e26666d69e6f8d7b9671be33aa45e7a9f23eb569132aace8935e31d3a978c10a03d3916aa1eb1d2b3680a31c6c59ba12f81ff8ceedd55d385928e96b2e144618e6d8964fcfba1c7cdbfd57d5499916a52f99f7dd154497d4380409eeddafd21c22a04a065f68dce2fb248143cf9083d1c55ee58de0f811e943ca4614c8bec980e6d15854ee5909ce381249c0a92c0ccf92865d5b65cd472898fec6e8b038c1676d96b7f192d6be0773dad0dea236318c04788e71708f540bb642c98765555e40b24cf2117282916c1544540ff58dafadc25a953c8ec1b2db2428db454fe66cc6542f2d929e7e70901519886030ea579ce199a2cb6118d0f007b7fb2e7a17e7256c33e3a2e269cf9ba6c59b05d5ffe4aaae8b815c5445a18a527b594e48c7d91afd2cdb0c9c325c89025c409ca9006d7d85adcbb6a03a852e6e30909aa1cfc2345db3ffc7e28bee221bb21f7c5f972ac7a4fb3bbf6abeec26b7bb6d5e036a52df42ca049b723d1b74c5d6dd811402c79edcd49a51f2902ccabd1c67dbf7dfd8170c2d74a4869ccd9a9ba96453a34b7f4b70b3d7379e67eeb470de00d44b29f5e4907038fdca10a2eb73c6b93f3052e8fd5f57a4fc175b20b7def9ae13d6f87284754bf6da893dd5e7d74df50bf53bbb750b484ed10ecb929696101717c94609df290f8370e94cabeb29e1c00fc0e83d29e7878acf7f36be31f968bf15d46fd9e0101adda2ecf72da2a20f3c54df6fb299cfe08cd7ad11685ba0fa0cbba1561f13b9efef34034a2923817f050f440da9b35ce34c8f4c6f06492842252ff8fdf274e0892f4a8f2b8bad84708cb9b0d94c06b107ffd66643643fcdf5b45cae5141d4144575c62737cbde530384b657579869b9ca1c0dcdddf0a161e3e46505c697b93afbfcef20209173b4043595e696f767788bcc8cb000000000000000000000000000000000000000000000000000b19273701",
        "004052d061bce2334c6f11fc1f4579f2b7d27a5f1ffe9836c2ca8db03f9ac9b31bb65b896d7bbaa5b10a9bae7299da165a7b33b308f5bc38e86ee93b795a0c4cbe01392e40db839934263ec93def838f79cac3f072b6954bbfed4c0cc9c16d03126b491976f7143ea9ee178aeaea0cb8c6f8e40d6f41a75c78b5b662adcb86748660bcef534943f31c730e0546a2ac4c0e23edab8d5912d9d90e24c337c2b845871c31065472975778057e0dfac92684b876915506905d4616eca8c1d7a432767c791820c397c33261cd17de7bce5fc2391fe8b73f33ebd2eaecbc47afac1a475ea859858646414ddd0009573adbfc936d9bf9754dd049501e913d5fec676d770fda64ed7b86ed5f61c8593828d33513f071cccea9456cee942cf7b3be31fab3d57476c38dfed51bf2620748c31863567420a0a0698b764bb2734b75ab15b6382ba8820332f3ebcbfb972ff63410e2649dce8d70f78719fdd2f84b9bdf7fd229faa0cb91b1461b675a33ea98dde8b6aa5329ca63b404591d5a8b383bc9d2c48716bb519f38411e58e19d559dbc8165d047cd2cf29ab89b0a97677c8a503a271455a7840676ecc97bb8a9823e9abda3f8596e3053531f47f90f04d4b8138de6ae39255c52295d1b96b302570e05dfb1e13ef8c326a3f91bc677f9738b748ebb285046429d5b3e819ff60c81e541d4420b8e9d3352f1179e203a9fd8932d99acfc9e1312e348e7ee233ce2053712e90cea0a8910bc678d839ff0aafec433e6119773e480ea15fe5c1015f41fba482cad8236ed8e604ebe5fc188301c3dbcc63d33263eeab2ac7c9c824e63cc17fc1d182349e626f2202c39db99ea37adb29a2d5dd876157d13c039366f2a62c45a56d95e66f2ecb4545f04d347d0752d61a095bb94b6a89cd65e69e588d71a9db2d0898730d2720de88cb69a68b73c991ec5c31aaeb887de87eff6826c37bf3cf057a94ada0a2f5d01279982b4d7288470f9461429b11bbdb26ab64c26bcafa834e4e6a71e038e199f5ec9757e9e51a2085ad4c297f3cf8f2e39bef0aabf93b72506a06967eca9c537850d3bb4121466cdbd231f5df7dbfca41755f9f2262f3037200028e2c043e7c87e75e21f0117638b4d6dfd5937070ab8bf3f272f3633dc7cc5d6279112f2447747a9151665ab17e19a8ba6a1350b75a994e75630db70f761832e8ffc3d4b249470c67994ab6ff326a791eadf4da47dc096c34056f2f159d2f3963a9ebfa5aa94c2750ca6c656a6119eccb7e6238009bc965b1da8413460988120fed174e4ffd5d435fb3b6f2022c8ffc2395f31e58bab8dd37756facfcedaf9b8b81a65b8e45af8495a16639e122ae0dc9dc7723c9272945fb5a0492a6806a9d8330cdf7d11f1528fb459146878c0662a5a90f09cf2c0fbedc9541e3e28a1d5fcd56ae340ab9d6dd7cbe2193a6058758ddabc72cfd06266f5fe552223e7d7d4d466944b39be537c9302d01ee9efd408df8bbaec1f8d6c5bebe2214cd00cabeca196e4bc4eae9040d3139bb666b7b4230f47d49868ad8bc563dec4f3e3142e39a893378f234daf1bcc2c894803f55b97caaa127b288bab039aa3b3438e893c19f18c9833879afc77b3fecbdb6380fd281c72cb42cf4f7ff79a92cbf32f1dcf0a83e034049d0b2f0e598430c4e68c087a7b997fee6a65461d03f41e0ac9b2368736f5a3d8177f51d8ca293c1e2f1cb4d5283e7e88344ccf66d04560e433c491cbed14cad8a17184aa1938b9ccc949e95a4e41fe532e04dde4d429b5fd2c3058f17e1e11346d817ae554d175dd642a519e10934fef4879e63ba66c5402e23a7a6515839ebc0bf414180efe9d399203968e84de09"
      ],
      "sequence": 4294967294
    }
  ],
  "vout": [
    {
      "value": 1.0,
      "n": 0,
      "scriptPubKey": {
        "asm": "OP_RETURN 6033bcfa189d4502a9b60c14da797f4a7dffa581714261c2d8a6b7702dc73f38 815634470ad9445b852c75df8d677ddf1bf309f48f5247fbd0b1e548812d2cf6a17614672af9647ba50c55ffad475dff3bd329d4af7267dbf091c568a10d0cd6c11674074a99041bc56c359fcd273d9f5bb349b4cf1207bb90f1a508c16d6cb6e13654276ab9243be54c15bfed071dbf7b936994ef32279bb0d18528e14d4c9601d6b4c78a59c4db05acf55f0de7fd5f9b7389740fd2c77b503165c801adac7621f694e7aa79e4fb258cd57f2dc7dd7fbb53a9542ff2e75b701145e8218d8c564196f487ca19849b45ecb51f4da7bd1fdb33c9344f92873b1071258841edec3661b6d4a7ea39a4bb65cc953f6d879d3ffb13e9146fb2a71b305105a861cdcc16815634470ad9445b852c75df8d677ddf1bf309f48f5247fbd0b1e548812d2cf6a17614672af9647ba50c55ffad475dff3bd329d4af7267dbf091c568a10d0cd6c11674074a99041bc56c359fcd273d9f5bb349b4cf1207bb90f1a508c16d6cb6e13654276ab9243be54c15bfed071dbf7b936994ef32279bb0d18528e14d4c9601d6b4c78a59c4db05acf55f0de7fd5f9b7389740fd2c77b503165c801adac7621f694e7aa79e4fb258cd57f2dc7dd7fbb53a9542ff2e75b701145e8218d8c564196f487ca19849b45ecb51f4da7bd1fdb33c9344f92873b1071258841edec3661b6d4a7ea39a4bb65cc953f6d879d3ffb13e9146fb2a71b305105a861cdcc16815634470ad9445b852c75df8d677ddf1bf309f48f5247fbd0b1e548812d2cf6a17614672af9647ba50c55ffad475dff3bd329d4af7267dbf091c568a10d0cd6c11674074a99041bc56c359fcd273d9f5bb349b4cf1207bb90f1a508c16d6cb6e13654276ab9243be54c15bfed071dbf7b936994ef32279bb0d18528e14d4c9601d6b4c78a59c4db05acf55f0de7fd5f9b7389740fd2c77b503165c801adac7621f694e7aa79e4fb258cd57f2dc7dd7fbb53a9542ff2e75b701145e8218d8c564196f487ca19849b45ecb51f4da7bd1fdb33c9344f92873b1071258841edec3661b6d4a7ea39a4bb65cc953f6d879d3ffb13e9146fb2a71b305105a861cdcc16815634470ad9445b852c75df8d677ddf1bf309f48f5247fbd0b1e548812d2cf6a17614672af9647ba50c55ffad475dff3bd329d4af7267dbf091c568a10d0cd6c11674074a99041bc56c359fcd273d9f5bb349b4cf1207bb90f1a508c16d6cb6e13654276ab9243be54c15bfed071dbf7b936994ef32279bb0d18528e14d4c9601d6b4c78a59c4db05acf55f0de7fd5f9b7389740fd2c77b503165c801adac7621f694e7aa79e4fb258cd57f2dc7dd7fbb53a9542ff2e75b701145e8218d8c564196f487ca19849b45ecb51f4da7bd1fdb33c9344f92873b1071258841edec3661b6d4a7ea39a4bb65cc953f6d879d3ffb13e9146fb2a71b305105a861cdcc16815634470ad9445b852c75df8d677ddf1bf309f48f5247fbd0b1e548812d2cf6a17614672af9647ba50c55ffad475dff3bd329d4af7267dbf091c568a10d0cd6c11674074a99041bc56c359fcd273d9f5bb349b4cf1207bb90f1a508c16d6cb6e13654276ab9243be54c15bfed071dbf7b936994ef32279bb0d18528e14d4c9601d6b4c78a59c4db05acf55f0de7fd5f8d549016d9d7b6d83652d48e27116f46c2e0d31c8de6bdd77ba9be67cbf550b9",
        "hex": "6a206033bcfa189d4502a9b60c14da797f4a7dffa581714261c2d8a6b7702dc73f384db004815634470ad9445b852c75df8d677ddf1bf309f48f5247fbd0b1e548812d2cf6a17614672af9647ba50c55ffad475dff3bd329d4af7267dbf091c568a10d0cd6c11674074a99041bc56c359fcd273d9f5bb349b4cf1207bb90f1a508c16d6cb6e13654276ab9243be54c15bfed071dbf7b936994ef32279bb0d18528e14d4c9601d6b4c78a59c4db05acf55f0de7fd5f9b7389740fd2c77b503165c801adac7621f694e7aa79e4fb258cd57f2dc7dd7fbb53a9542ff2e75b701145e8218d8c564196f487ca19849b45ecb51f4da7bd1fdb33c9344f92873b1071258841edec3661b6d4a7ea39a4bb65cc953f6d879d3ffb13e9146fb2a71b305105a861cdcc16815634470ad9445b852c75df8d677ddf1bf309f48f5247fbd0b1e548812d2cf6a17614672af9647ba50c55ffad475dff3bd329d4af7267dbf091c568a10d0cd6c11674074a99041bc56c359fcd273d9f5bb349b4cf1207bb90f1a508c16d6cb6e13654276ab9243be54c15bfed071dbf7b936994ef32279bb0d18528e14d4c9601d6b4c78a59c4db05acf55f0de7fd5f9b7389740fd2c77b503165c801adac7621f694e7aa79e4fb258cd57f2dc7dd7fbb53a9542ff2e75b701145e8218d8c564196f487ca19849b45ecb51f4da7bd1fdb33c9344f92873b1071258841edec3661b6d4a7ea39a4bb65cc953f6d879d3ffb13e9146fb2a71b305105a861cdcc16815634470ad9445b852c75df8d677ddf1bf309f48f5247fbd0b1e548812d2cf6a17614672af9647ba50c55ffad475dff3bd329d4af7267dbf091c568a10d0cd6c11674074a99041bc56c359fcd273d9f5bb349b4cf1207bb90f1a508c16d6cb6e13654276ab9243be54c15bfed071dbf7b936994ef32279bb0d18528e14d4c9601d6b4c78a59c4db05acf55f0de7fd5f9b7389740fd2c77b503165c801adac7621f694e7aa79e4fb258cd57f2dc7dd7fbb53a9542ff2e75b701145e8218d8c564196f487ca19849b45ecb51f4da7bd1fdb33c9344f92873b1071258841edec3661b6d4a7ea39a4bb65cc953f6d879d3ffb13e9146fb2a71b305105a861cdcc16815634470ad9445b852c75df8d677ddf1bf309f48f5247fbd0b1e548812d2cf6a17614672af9647ba50c55ffad475dff3bd329d4af7267dbf091c568a10d0cd6c11674074a99041bc56c359fcd273d9f5bb349b4cf1207bb90f1a508c16d6cb6e13654276ab9243be54c15bfed071dbf7b936994ef32279bb0d18528e14d4c9601d6b4c78a59c4db05acf55f0de7fd5f9b7389740fd2c77b503165c801adac7621f694e7aa79e4fb258cd57f2dc7dd7fbb53a9542ff2e75b701145e8218d8c564196f487ca19849b45ecb51f4da7bd1fdb33c9344f92873b1071258841edec3661b6d4a7ea39a4bb65cc953f6d879d3ffb13e9146fb2a71b305105a861cdcc16815634470ad9445b852c75df8d677ddf1bf309f48f5247fbd0b1e548812d2cf6a17614672af9647ba50c55ffad475dff3bd329d4af7267dbf091c568a10d0cd6c11674074a99041bc56c359fcd273d9f5bb349b4cf1207bb90f1a508c16d6cb6e13654276ab9243be54c15bfed071dbf7b936994ef32279bb0d18528e14d4c9601d6b4c78a59c4db05acf55f0de7fd5f8d549016d9d7b6d83652d48e27116f46c2e0d31c8de6bdd77ba9be67cbf550b9",
        "type": "nulldata"
      }
    },
    {
      "value": 499972.5437,
      "n": 1,
      "scriptPubKey": {
        "asm": "1 e94092601886c0c5b3dda1aa6a18e16abd4a33714beb47d5a3019c744db2ac4f",
        "hex": "5120e94092601886c0c5b3dda1aa6a18e16abd4a33714beb47d5a3019c744db2ac4f",
        "reqSigs": 1,
        "type": "witness_v1_scripthash",
        "addresses": [
          "3QJmnh"
        ]
      }
    }
  ],
  "blockhash": "e6a4adf54726245f4c34283d217923918cb1557d6baaa77edf2bc72597605551",
  "confirmations": 1,
  "time": 1764181118,
  "blocktime": 1764181118
}