{
  "hex": "010000000001013e27bedebf364dbc78b5b7d850ec6043d57f5a3c5b157f887d83f3426851ed180000000000feffffff0200e1f50500000000fdd5046a20a572fafcd2de7a40c4a2ea97d8a49f42b72fcdb324886cf7bd2323c94a195d9e4db004d77db108df6bca43147c5db0934ee119d9de8ee0836ad60cffc3588d78d31fbbf75d9128ff4bea63345c7d90b36ec139f9feaec0a34af62cdfe378ad58f33f9b973df1489f2b8a03543c1df0d30ea159999ecea0c32a964cbf8318cd38935ffbb71dd168bf0baa23741c3dd0f32e8179b9beee80e30ab66c9fa338ed18b37fdb57fd31885feb4ac394fcdd3013ce6199595e0e6003ea568c7f43d80df8539f3b77dd11a87fcb6ae3b4dcfd1033ee41b9797e2e4023ca76ac5f63f82dd873bf1b17bd71c81fab0a83d4bc9d70538e21d9191e4e2043aa16cc3f03984db813df7b379d51e83f8b2aa3f49cbd5073ae01f9393e6e00638a36ec1f23b86d9833ff5bd77db108df6bca43147c5db0934ee119d9de8ee0836ad60cffc3588d78d31fbbf75d9128ff4bea63345c7d90b36ec139f9feaec0a34af62cdfe378ad58f33f9b973df1489f2b8a03543c1df0d30ea159999ecea0c32a964cbf8318cd38935ffbb71dd168bf0baa23741c3dd0f32e8179b9beee80e30ab66c9fa338ed18b37fdb57fd31885feb4ac394fcdd3013ce6199595e0e6003ea568c7f43d80df8539f3b77dd11a87fcb6ae3b4dcfd1033ee41b9797e2e4023ca76ac5f63f82dd873bf1b17bd71c81fab0a83d4bc9d70538e21d9191e4e2043aa16cc3f03984db813df7b379d51e83f8b2aa3f49cbd5073ae01f9393e6e00638a36ec1f23b86d9833ff5bd77db108df6bca43147c5db0934ee119d9de8ee0836ad60cffc3588d78d31fbbf75d9128ff4bea63345c7d90b36ec139f9feaec0a34af62cdfe378ad58f33f9b973df1489f2b8a03543c1df0d30ea159999ecea0c32a964cbf8318cd38935ffbb71dd168bf0baa23741c3dd0f32e8179b9beee80e30ab66c9fa338ed18b37fdb57fd31885feb4ac394fcdd3013ce6199595e0e6003ea568c7f43d80df8539f3b77dd11a87fcb6ae3b4dcfd1033ee41b9797e2e4023ca76ac5f63f82dd873bf1b17bd71c81fab0a83d4bc9d70538e21d9191e4e2043aa16cc3f03984db813df7b379d51e83f8b2aa3f49cbd5073ae01f9393e6e00638a36ec1f23b86d9833ff5bd77db108df6bca43147c5db0934ee119d9de8ee0836ad60cffc3588d78d31fbbf75d9128ff4bea63345c7d90b36ec139f9feaec0a34af62cdfe378ad58f33f9b973df1489f2b8a03543c1df0d30ea159999ecea0c32a964cbf8318cd38935ffbb71dd168bf0baa23741c3dd0f32e8179b9beee80e30ab66c9fa338ed18b37fdb57fd31885feb4ac394fcdd3013ce6199595e0e6003ea568c7f43d80df8539f3b77dd11a87fcb6ae3b4dcfd1033ee41b9797e2e4023ca76ac5f63f82dd873bf1b17bd71c81fab0a83d4bc9d70538e21d9191e4e2043aa16cc3f03984db813df7b379d51e83f8b2aa3f49cbd5073ae01f9393e6e00638a36ec1f23b86d9833ff5bd77db108df6bca43147c5db0934ee119d9de8ee0836ad60cffc3588d78d31fbbf75d9128ff4bea63345c7d90b36ec139f9feaec0a34af62cdfe378ad58f33f9b973df1489f2b8a03543c1df0d30ea159999ecea0c32a964cbf8318cd38935ffbb71dd168bf0baa23741c3dd0f32e8179b9beee80e30ab66c9fa338ed18b37fdb57fd31885feb4ac394fcdd3013ce61994499aed3832988255e4be424302953e7e436a2a58799b627b1b33a302f52fd5df077b5f0782d0000225120438aea65109600a13c6dba488c135d900a0758c69dc20c1e35e7d4ae59935dd802fd7509785b9442f2a9e897e03e8ef94d71bfef60787c6c5477e73d58256a1de5341ce71425db11a28123e43b8c7d27b2299b1c227958499487815d3ec75e24d7427a4c79f62b446b6bb1844f5f4b269c37b179bca7d3ce6dcd2c26b90f877bd51dfd467e2f43f5df895859927b9028207aea47d8b1284f3e635649dbbe69f4aa5ee28a5a7a7a0cbb5a85b284bda8756e655aa720f55e7d1514ae42a29c57a7e404b06cf2ec4ea20b3fc2ca1193d5a884efaa7cf001a5550977fc5ec221cef1563d5d1411cdc0ec9669b43af79054cd3424b5a94405b7be318233ec0e3a95f281200811433ed850f1890d4084def09974df1a9cb396b7e73f3a94200a95a7bd4722fe39750acfea52b00164d31e2ffdaf99f77856161746bbba285cba7b1e2883236c49d8753ab7df1b299a4ad5f72aa7118481ea79840675e01adc0035f0825d7763795757b4ffac5d6f4a8617adcc0a381942aea5ad448b127c50e9628bd5cf72cf856100ab5b4a3887b791ba7f7baf27cc8950842d7bbc15d85c6584f921e21716120a36e9f5bf6bc652f24cb213ef51a9b1beb727f3d474b7286e55d74145896233c9f7f0ffee9ea94d57077b1e0ace4897629397abaa1c80332cb3ad05faa139accf44fd62e404c006efa8a373ab64ee5ec705f27d6e3eda50552f1dbc2d70f18208a7bfeacd8f790a1ec1aef501715b01cee0de038785f0cb9fd42abb9f1f0ac225bf06aa614a44f8c66e44f5e140e07a81641da274bf3e7a8e549d87c9d5fffe3d7cb69f0281e7ad59029bfb28f3cc1d1d553b9fc53caef0add52f0ea21ab63bd07e7451e2ac8d82bf5cfa13bfdb91c493c9512995cc34ebd7f11435d26dfc7d306601c2525e603ed8e26582a16cc7d1bab6236afe64131c7b500718413075edfa95c30c9b3272ac34919c036333a7995d68c997dc0aefd32b90867113556d65220f174505be67bf3a5d003cf8cc3a569eb40b9d10bedb722470f9b5954f395f131af8b72171e005993e60871a7ed4fe434f7b7abd5da10a41890744206573c2bd4f77d7787ca670a1d49a30694088eccf46dc9ba91e50077f6fed134dafef6a6a47daa2b76772968259ed498b1ec336e76f52aca01366e3490efb10a29d4d512ac447d756955be0ec4007d0799fbcaf878c63fbcc15aabece79edd8b5dc276ea132a4f52b68cbc3c2029ac8da978d724f42586c0c06b063aa47d9b3f2e721b6000765016fad24ffc042f429af0dd0f7a2837d3bc4ca1b9bca082b6fe692ff14a7b6eb9a9ca59d61221e376ca9189a25687cd47cfabd8b93b3357c1a3ee97459369814bbcf7e11140b41596cdfc22dc8b2cf9049df5fc6d011abc79bd6ca250941e06fffcfe4629b50ff56cfd9172f2a59afce3fb14f8ab7c98c887fcab3428889e2689227e1f927b0681831d2d02f0c374e783f3143cb353c34954f0cc25b3763da2be14df24dd302bc1ad0844cb9e2144a73574c54bfef82bee9b98c045574b322cf5b53eff4f8606debccb0c6647960d6dfd034da1457e0aedc2456537a7ef9784b02cdf749c57c489afb0af837ea4849d4602c7e4d247ab9df99da5d7bfade6dd7a7f27d094c671733a1c26498e262758f31836e300eedc24f9afc80857d4189ae3d83d8cea6aebd436a6ea0d6fdde173a4324d8b107be6cf9863a1cfeaacbab2b74b1039b842afd1eea62e163204ef23a163a8d0edd3d6bd704066bfe811b50f5df4c89b9d53e8c95d0ec18aeb14f48d0c5ee2e1023f66c1b940bf8b47ef00fb53fc09af2c03f230c9137b77ca46f0efd5807da393ef37d3e37be88c84431f4b13de0df9bfa772399b2117134a19ced2f2124dc30262d8314e2f07a7e2dcfc25f44eb8024d8bf34610481e5d621a215092387f08d681d8a3b3004f637e450a5d446f2afee5ddf9fa803cc08649f0a3065422efc6a0cc88dd2533cc47d559ebb8e8aa70e4a15046e131a166d83d2579a5e0f1e33a6e80411f8b74db05a7477fdcd49c826587bdca3af885158ec5ce59c22b02f2ec5529eaf2ef40c5371409304a23abcbc79ffece467ab1614324f9e3b38e35dec78f30cc782b6dc825c10b7e378ac3b92ab798b7e14842c30acd98dee3c6de3cd878cb48d4f71d24c50837a6b6e17a3ddf46a060799d05c126c4af6d1e8361d337f0b52ac91e29c71dbad2e90690cf0c859e922777f5a9e14dd865cfd52d8784498075ccfcb0e0a80f974dee4279373fdcd082ca1f702796dc67f26c71634cfb63d85332dae17b1ca688356199d263c51c5a08cf3df9ea813b6b9381618d9d8d9aacd62da3e98ece467c93a5c6c9698a0ed1f7f16e647f4279ed2d883ab3f49c08efbe2979b348ddf44c9d174aabbe0f4bb8a79bb3742900ac9b1f1c83c96deb1e90376d934b80164dcff5e67d044b406b6a7b39f943af9ceafd0f12439242f5982071617f66723c91209dae654afc73ab45cb90a917b9c0c52452ad0ea49d6f459ce8376667f4dc16b56649146967883758a798723ce3c650ef25195173278f2cd595989f139b5695c2153435538df7f3981c71976731e6bc0faa24e127551f2f30140d2632d8354cc9a46c6bf4d24959b3ad742424d55179817701b40a46532b71476e46b6421400b1c130018487a8b56fda6659227d1fc2829d19a3f669c9a46650777e989c475ee6d3cca9242fde9ccb959d844d801bc631e42d05304df55bec061ee3b3f0538dfbd3c2327864a659bf7495364553b05c1d8acc7b63c5453619c09bcb770f97dc1149ab185c11410df96be0763bf6cf6fb1f9bc20bada781ee60bc2028541515a5aaeaf115a2533bf22d1021f38f6a82087f7d1e1c392ec33d855e533a78624835529fb533901252bb4974cfc6be824b7b491fea0bfbfb65489f1f80b3bfd9ac4d6d4481972e913c3ed0321503a86a2de2f39f1fb177522919740a20dd8d0c9225da8fd79bfc3ea57ed2ed3178f174f5c51df8de646ffd4ebf3d749e2665661d0089475ec40ba2205536e7b6abf44b0604bcdaa6ca1cb13aee1bcfd6d10a04c46d28b150e8a08ea4f87bdeeb61b3229cec93b0c1c6e7399dbcdd312d3c8395ff0fb49d6f052d5971aa8eab2133f9e6de24807c398d70868450db77ebb617546e4a410fd4e1e925d99cfbbedb716d4a701b39b0b2debb42710a141aeb0fa02f4878f34f89ab650321ddde6b09bb01def3f08a0a2d859186b1d4580d9937e577661730a10989f851447ec2fa810291fe9474a3d201cf6cd3e5c72b6c30fb9438ae840c2ca0cd18875d57cace699b9dfa92410059404e72e515058f8a74af3ec9ae0aea073d7b86bcbfcadbe1eef9ff0b11353c4b515b646f888b8d97a6c0c2c6dddee0e62b537379838c9eb0c9cacce7eef8fafc06181e2430484d5054586e7f949a9fb4c9cad9dce4fbfd00000000000000000c21314801fd21050085ff193c9be11b8feb6b613b6d174705b658400228f843a9664f626b57e85ad0c296a21cee80423e089e463c69353891bd22e3d4139ccc0dc1b5e0d18a169960bdaed755a916bcda75e1ddb18192569db2539ef0e016e90495a26c0465afc1ee7ae8267bb8da1025c19e3928e9240aa6429a463032283035a79be5fef071d00a196e6f6b37561fc151876285037ca3b1e85b58ea1dc05e32f0e6f06a118565cc05fc7a98a3da1a5d9c89113632e47482d64d8a220a0ea7cb04b5ba8b9004a0987f8ef9a8a907c7c0285bf15388f095d010d38315cce735c8b2e39c2aa843b1fc94f201d8ce43b188b78153e7d85b85a740d1ca0daf6399725f3017d840ed1180f48429196f1cbce65fc2bddba5384279d1c7184ac0f8463df46791b796bf57e3d5df102ef10e3165ae806834cef292307318fc5bb738a009721a2cab7d6a5c4039a8461c0574fd58db7cf809de6fcfce4e74aad137520b91d7a70ca8cac9b27a4d8c98bbe8b6767e122ec285c697d54f881a9a1e4ff26f7bfad5ee7812cfa552701a6bb8f89a116aeddb129fbd95d2eac7ecdfeddd26c3924894cb21ad1a77b2fdb210b08d599ec70afafed12b59aefc5f3026c60bf22f4d685ed57259be5a0bbbc4c083c50596d6b74d45c95e81f25a50850db3f04ec7ecb9955af71e31928347354f1c274a99e9c5155cb29f4cd18533cd326f089abefb199a560b5fcdd3f298c9e3dbc5a985d1aaaf241e6d457c348622e24e717152eb390eddf16c4e0e47d6e3c54a47ed5f9ca413780cfbb8d7871abb8dac4c9c8fdb7ca5d1bc76c74113e068605f4a0d71e2b30b6df91e6b280230317ce06ac8ba0b851ab84c94385b9cfc657b61cc20500baeac9923eb9c408f49294896b3856b33c7f5a42dc786a134aa4d41f9e8b52e2d7a6e031b4632e4f2062718cdc337d86db5faea24eec2235ccc2a20cd5f035392eba2bf6342b7359d73abdbd2ab995c42e354776cac4d51a081963c7e78045798de1e8a469648e553d3991dc9fa20f88354285aaef614a89a42982b9a45fb97abff262710dda8b3a46ae996dbd3970b8b71a445a8f1b2a390e94cad34aaa8b9fec2f13ad64b28e3fa6891180f2268f53e6aa0288bc1fe7d9b3eb867ddcddf6654b8acfb5762a0be52b430b00905eeb784c4e2e1c694427de2f489cfe50982b1b80f1d9432b4d0f1930b266674030b8b287c18b7815632c150bb467b223696139e4e8456401bb0838cc6d9f7ab85b6d7fb4472187b3a8f5b1960cc5db69d8389c245e3b0478e46eea2e741573c7ca724bd34472136449da9beb5bcb9d3496a8af3a3bc4b96a32ec589cbae49ee7f01bc3d0c24b90c73bf847752f81c1fe9f34b8f472de0ad8d9bb134436e139508268831d905006d113d7165a8a901397405f2b6ccb86c351f7b4b05a61666ef350d39542fa28f960831682787973929603ef483c82f0d3bdac1a60d2c1abf11858a1cee1324eabe6d8d0a9951eb17138464444180c95a83e18e71f132e6d7d0fec07ed32240b0c448ba6f0ab9db6893af1ebe7af358e7124bc5361e9a335f9f1f776afcf4914c1314dc847583ff26ce9489f7c08226c5b53f5cc50af4b8e8deed1d7c6f70fb9c96dd5bf76e30dbf8263821a56efdcd1a1aaa168e03b866bf444362b8cffd8bf6ff5ebcd6441707e6b7cdf6c1722b6fd339e77ce1f12d163b093a102aaaa1f8834768a3e7299a10a6513c0c1cb31ef50a6d92e764096f3bebb549df661fc7220f026dee4baaf85343320d2f79ac14b29ec76159edebfcece4683c4d164647fba6883992eaedd7b1401e446c7933f73b19a60899492ff12857f5e006e198c2ab92477a2a15237b000000",
  "txid": "8341481dc77970187531f7d49ba8f7a0f240bc350a0fb6454667ea7db124b1d7",
  "hash": "6de51beef1e5e048ff169dbce33442c9ec1e86184bd6d4a7e3c036534cd22efa",
  "size": 5085,
  "vsize": 2278,
  "version": 1,
  "locktime": 123,
  "vin": [
    {
      "txid": "18ed516842f3837d887f155b3c5a7fd54360ec50d8b7b578bc4d36bfdebe273e",
      "vout": 0,
      "scriptSig": {
        "asm": "",
        "hex": ""
      },
      "txinwitness": [
        "785b9442f2a9e897e03e8ef94d71bfef60787c6c5477e73d58256a1de5341ce71425db11a28123e43b8c7d27b2299b1c227958499487815d3ec75e24d7427a4c79f62b446b6bb1844f5f4b269c37b179bca7d3ce6dcd2c26b90f877bd51dfd467e2f43f5df895859927b9028207aea47d8b1284f3e635649dbbe69f4aa5ee28a5a7a7a0cbb5a85b284bda8756e655aa720f55e7d1514ae42a29c57a7e404b06cf2ec4ea20b3fc2ca1193d5a884efaa7cf001a5550977fc5ec221cef1563d5d1411cdc0ec9669b43af79054cd3424b5a94405b7be318233ec0e3a95f281200811433ed850f1890d4084def09974df1a9cb396b7e73f3a94200a95a7bd4722fe39750acfea52b00164d31e2ffdaf99f77856161746bbba285cba7b1e2883236c49d8753ab7df1b299a4ad5f72aa7118481ea79840675e01adc0035f0825d7763795757b4ffac5d6f4a8617adcc0a381942aea5ad448b127c50e9628bd5cf72cf856100ab5b4a3887b791ba7f7baf27cc8950842d7bbc15d85c6584f921e21716120a36e9f5bf6bc652f24cb213ef51a9b1beb727f3d474b7286e55d74145896233c9f7f0ffee9ea94d57077b1e0ace4897629397abaa1c80332cb3ad05faa139accf44fd62e404c006efa8a373ab64ee5ec705f27d6e3eda50552f1dbc2d70f18208a7bfeacd8f790a1ec1aef501715b01cee0de038785f0cb9fd42abb9f1f0ac225bf06aa614a44f8c66e44f5e140e07a81641da274bf3e7a8e549d87c9d5fffe3d7cb69f0281e7ad59029bfb28f3cc1d1d553b9fc53caef0add52f0ea21ab63bd07e7451e2ac8d82bf5cfa13bfdb91c493c9512995cc34ebd7f11435d26dfc7d306601c2525e603ed8e26582a16cc7d1bab6236afe64131c7b500718413075edfa95c30c9b3272ac34919c036333a7995d68c997dc0aefd32b90867113556d65220f174505be67bf3a5d003cf8cc3a569eb40b9d10bedb722470f9b5954f395f131af8b72171e005993e60871a7ed4fe434f7b7abd5da10a41890744206573c2bd4f77d7787ca670a1d49a30694088eccf46dc9ba91e50077f6fed134dafef6a6a47daa2b76772968259ed498b1ec336e76f52aca01366e3490efb10a29d4d512ac447d756955be0ec4007d0799fbcaf878c63fbcc15aabece79edd8b5dc276ea132a4f52b68cbc3c2029ac8da978d724f42586c0c06b063aa47d9b3f2e721b6000765016fad24ffc042f429af0dd0f7a2837d3bc4ca1b9bca082b6fe692ff14a7b6eb9a9ca59d61221e376ca9189a25687cd47cfabd8b93b3357c1a3ee97459369814bbcf7e11140b41596cdfc22dc8b2cf9049df5fc6d011abc79bd6ca250941e06fffcfe4629b50ff56cfd9172f2a59afce3fb14f8ab7c98c887fcab3428889e2689227e1f927b0681831d2d02f0c374e783f3143cb353c34954f0cc25b3763da2be14df24dd302bc1ad0844cb9e2144a73574c54bfef82bee9b98c045574b322cf5b53eff4f8606debccb0c6647960d6dfd034da1457e0aedc2456537a7ef9784b02cdf749c57c489afb0af837ea4849d4602c7e4d247ab9df99da5d7bfade6dd7a7f27d094c671733a1c26498e262758f31836e300eedc24f9afc80857d4189ae3d83d8cea6aebd436a6ea0d6fdde173a4324d8b107be6cf9863a1cfeaacbab2b74b1039b842afd1eea62e163204ef23a163a8d0edd3d6bd704066bfe811b50f5df4c89b9d53e8c95d0ec18aeb14f48d0c5ee2e1023f66c1b940bf8b47ef00fb53fc09af2c03f230c9137b77ca46f0efd5807da393ef37d3e37be88c84431f4b13de0df9bfa772399b2117134a19ced2f2124dc30262d8314e2f07a7e2dcfc25f44eb8024d8bf34610481e5d621a215092387f08d681d8a3b3004f637e450a5d446f2afee5ddf9fa803cc08649f0a3065422efc6a0cc88dd2533cc47d559ebb8e8aa70e4a15046e131a166d83d2579a5e0f1e33a6e80411f8b74db05a7477fdcd49c826587bdca3af885158ec5ce59c22b02f2ec5529eaf2ef40c5371409304a23abcbc79ffece467ab1614324f9e3b38e35dec78f30cc782b6dc825c10b7e378ac3b92ab798b7e14842c30acd98dee3c6de3cd878cb48d4f71d24c50837a6b6e17a3ddf46a060799d05c126c4af6d1e8361d337f0b52ac91e29c71dbad2e90690cf0c859e922777f5a9e14dd865cfd52d8784498075ccfcb0e0a80f974dee4279373fdcd082ca1f702796dc67f26c71634cfb63d85332dae17b1ca688356199d263c51c5a08cf3df9ea813b6b9381618d9d8d9aacd62da3e98ece467c93a5c6c9698a0ed1f7f16e647f4279ed2d883ab3f49c08efbe2979b348ddf44c9d174aabbe0f4bb8a79bb3742900ac9b1f1c83c96deb1e90376d934b80164dcff5e67d044b406b6a7b39f943af9ceafd0f12439242f5982071617f66723c91209dae654afc73ab45cb90a917b9c0c52452ad0ea49d6f459ce8376667f4dc16b56649146967883758a798723ce3c650ef25195173278f2cd595989f139b5695c2153435538df7f3981c71976731e6bc0faa24e127551f2f30140d2632d8354cc9a46c6bf4d24959b3ad742424d55179817701b40a46532b71476e46b6421400b1c130018487a8b56fda6659227d1fc2829d19a3f669c9a46650777e989c475ee6d3cca9242fde9ccb959d844d801bc631e42d05304df55bec061ee3b3f0538dfbd3c2327864a659bf7495364553b05c1d8acc7b63c5453619c09bcb770f97dc1149ab185c11410df96be0763bf6cf6fb1f9bc20bada781ee60bc2028541515a5aaeaf115a2533bf22d1021f38f6a82087f7d1e1c392ec33d855e533a78624835529fb533901252bb4974cfc6be824b7b491fea0bfbfb65489f1f80b3bfd9ac4d6d4481972e913c3ed0321503a86a2de2f39f1fb177522919740a20dd8d0c9225da8fd79bfc3ea57ed2ed3178f174f5c51df8de646ffd4ebf3d749e2665661d0089475ec40ba2205536e7b6abf44b0604bcdaa6ca1cb13aee1bcfd6d10a04c46d28b150e8a08ea4f87bdeeb61b3229cec93b0c1c6e7399dbcdd312d3c8395ff0fb49d6f052d5971aa8eab2133f9e6de24807c398d70868450db77ebb617546e4a410fd4e1e925d99cfbbedb716d4a701b39b0b2debb42710a141aeb0fa02f4878f34f89ab650321ddde6b09bb01def3f08a0a2d859186b1d4580d9937e577661730a10989f851447ec2fa810291fe9474a3d201cf6cd3e5c72b6c30fb9438ae840c2ca0cd18875d57cace699b9dfa92410059404e72e515058f8a74af3ec9ae0aea073d7b86bcbfcadbe1eef9ff0b11353c4b515b646f888b8d97a6c0c2c6dddee0e62b537379838c9eb0c9cacce7eef8fafc06181e2430484d5054586e7f949a9fb4c9cad9dce4fbfd00000000000000000c21314801",
        "0085ff193c9be11b8feb6b613b6d174705b658400228f843a9664f626b57e85ad0c296a21cee80423e089e463c69353891bd22e3d4139ccc0dc1b5e0d18a169960bdaed755a916bcda75e1ddb18192569db2539ef0e016e90495a26c0465afc1ee7ae8267bb8da1025c19e3928e9240aa6429a463032283035a79be5fef071d00a196e6f6b37561fc151876285037ca3b1e85b58ea1dc05e32f0e6f06a118565cc05fc7a98a3da1a5d9c89113632e47482d64d8a220a0ea7cb04b5ba8b9004a0987f8ef9a8a907c7c0285bf15388f095d010d38315cce735c8b2e39c2aa843b1fc94f201d8ce43b188b78153e7d85b85a740d1ca0daf6399725f3017d840ed1180f48429196f1cbce65fc2bddba5384279d1c7184ac0f8463df46791b796bf57e3d5df102ef10e3165ae806834cef292307318fc5bb738a009721a2cab7d6a5c4039a8461c0574fd58db7cf809de6fcfce4e74aad137520b91d7a70ca8cac9b27a4d8c98bbe8b6767e122ec285c697d54f881a9a1e4ff26f7bfad5ee7812cfa552701a6bb8f89a116aeddb129fbd95d2eac7ecdfeddd26c3924894cb21ad1a77b2fdb210b08d599ec70afafed12b59aefc5f3026c60bf22f4d685ed57259be5a0bbbc4c083c50596d6b74d45c95e81f25a50850db3f04ec7ecb9955af71e31928347354f1c274a99e9c5155cb29f4cd18533cd326f089abefb199a560b5fcdd3f298c9e3dbc5a985d1aaaf241e6d457c348622e24e717152eb390eddf16c4e0e47d6e3c54a47ed5f9ca413780cfbb8d7871abb8dac4c9c8fdb7ca5d1bc76c74113e068605f4a0d71e2b30b6df91e6b280230317ce06ac8ba0b851ab84c94385b9cfc657b61cc20500baeac9923eb9c408f49294896b3856b33c7f5a42dc786a134aa4d41f9e8b52e2d7a6e031b4632e4f2062718cdc337d86db5faea24eec2235ccc2a20cd5f035392eba2bf6342b7359d73abdbd2ab995c42e354776cac4d51a081963c7e78045798de1e8a469648e553d3991dc9fa20f88354285aaef614a89a42982b9a45fb97abff262710dda8b3a46ae996dbd3970b8b71a445a8f1b2a390e94cad34aaa8b9fec2f13ad64b28e3fa6891180f2268f53e6aa0288bc1fe7d9b3eb867ddcddf6654b8acfb5762a0be52b430b00905eeb784c4e2e1c694427de2f489cfe50982b1b80f1d9432b4d0f1930b266674030b8b287c18b7815632c150bb467b223696139e4e8456401bb0838cc6d9f7ab85b6d7fb4472187b3a8f5b1960cc5db69d8389c245e3b0478e46eea2e741573c7ca724bd34472136449da9beb5bcb9d3496a8af3a3bc4b96a32ec589cbae49ee7f01bc3d0c24b90c73bf847752f81c1fe9f34b8f472de0ad8d9bb134436e139508268831d905006d113d7165a8a901397405f2b6ccb86c351f7b4b05a61666ef350d39542fa28f960831682787973929603ef483c82f0d3bdac1a60d2c1abf11858a1cee1324eabe6d8d0a9951eb17138464444180c95a83e18e71f132e6d7d0fec07ed32240b0c448ba6f0ab9db6893af1ebe7af358e7124bc5361e9a335f9f1f776afcf4914c1314dc847583ff26ce9489f7c08226c5b53f5cc50af4b8e8deed1d7c6f70fb9c96dd5bf76e30dbf8263821a56efdcd1a1aaa168e03b866bf444362b8cffd8bf6ff5ebcd6441707e6b7cdf6c1722b6fd339e77ce1f12d163b093a102aaaa1f8834768a3e7299a10a6513c0c1cb31ef50a6d92e764096f3bebb549df661fc7220f026dee4baaf85343320d2f79ac14b29ec76159edebfcece4683c4d164647fba6883992eaedd7b1401e446c7933f73b19a60899492ff12857f5e006e198c2ab92477a2a1523"
      ],
      "sequence": 4294967294
    }
  ],
  "vout": [
    {
      "value": 1.0,
      "n": 0,
      "scriptPubKey": {
        "asm": "OP_RETURN a572fafcd2de7a40c4a2ea97d8a49f42b72fcdb324886cf7bd2323c94a195d9e d77db108df6bca43147c5db0934ee119d9de8ee0836ad60cffc3588d78d31fbbf75d9128ff4bea63345c7d90b36ec139f9feaec0a34af62cdfe378ad58f33f9b973df1489f2b8a03543c1df0d30ea159999ecea0c32a964cbf8318cd38935ffbb71dd168bf0baa23741c3dd0f32e8179b9beee80e30ab66c9fa338ed18b37fdb57fd31885feb4ac394fcdd3013ce6199595e0e6003ea568c7f43d80df8539f3b77dd11a87fcb6ae3b4dcfd1033ee41b9797e2e4023ca76ac5f63f82dd873bf1b17bd71c81fab0a83d4bc9d70538e21d9191e4e2043aa16cc3f03984db813df7b379d51e83f8b2aa3f49cbd5073ae01f9393e6e00638a36ec1f23b86d9833ff5bd77db108df6bca43147c5db0934ee119d9de8ee0836ad60cffc3588d78d31fbbf75d9128ff4bea63345c7d90b36ec139f9feaec0a34af62cdfe378ad58f33f9b973df1489f2b8a03543c1df0d30ea159999ecea0c32a964cbf8318cd38935ffbb71dd168bf0baa23741c3dd0f32e8179b9beee80e30ab66c9fa338ed18b37fdb57fd31885feb4ac394fcdd3013ce6199595e0e6003ea568c7f43d80df8539f3b77dd11a87fcb6ae3b4dcfd1033ee41b9797e2e4023ca76ac5f63f82dd873bf1b17bd71c81fab0a83d4bc9d70538e21d9191e4e2043aa16cc3f03984db813df7b379d51e83f8b2aa3f49cbd5073ae01f9393e6e00638a36ec1f23b86d9833ff5bd77db108df6bca43147c5db0934ee119d9de8ee0836ad60cffc3588d78d31fbbf75d9128ff4bea63345c7d90b36ec139f9feaec0a34af62cdfe378ad58f33f9b973df1489f2b8a03543c1df0d30ea159999ecea0c32a964cbf8318cd38935ffbb71dd168bf0baa23741c3dd0f32e8179b9beee80e30ab66c9fa338ed18b37fdb57fd31885feb4ac394fcdd3013ce6199595e0e6003ea568c7f43d80df8539f3b77dd11a87fcb6ae3b4dcfd1033ee41b9797e2e4023ca76ac5f63f82dd873bf1b17bd71c81fab0a83d4bc9d70538e21d9191e4e2043aa16cc3f03984db813df7b379d51e83f8b2aa3f49cbd5073ae01f9393e6e00638a36ec1f23b86d9833ff5bd77db108df6bca43147c5db0934ee119d9de8ee0836ad60cffc3588d78d31fbbf75d9128ff4bea63345c7d90b36ec139f9feaec0a34af62cdfe378ad58f33f9b973df1489f2b8a03543c1df0d30ea159999ecea0c32a964cbf8318cd38935ffbb71dd168bf0baa23741c3dd0f32e8179b9beee80e30ab66c9fa338ed18b37fdb57fd31885feb4ac394fcdd3013ce6199595e0e6003ea568c7f43d80df8539f3b77dd11a87fcb6ae3b4dcfd1033ee41b9797e2e4023ca76ac5f63f82dd873bf1b17bd71c81fab0a83d4bc9d70538e21d9191e4e2043aa16cc3f03984db813df7b379d51e83f8b2aa3f49cbd5073ae01f9393e6e00638a36ec1f23b86d9833ff5bd77db108df6bca43147c5db0934ee119d9de8ee0836ad60cffc3588d78d31fbbf75d9128ff4bea63345c7d90b36ec139f9feaec0a34af62cdfe378ad58f33f9b973df1489f2b8a03543c1df0d30ea159999ecea0c32a964cbf8318cd38935ffbb71dd168bf0baa23741c3dd0f32e8179b9beee80e30ab66c9fa338ed18b37fdb57fd31885feb4ac394fcdd3013ce61994499aed3832988255e4be424302953e7e436a2a58799b627b1b33a302f52fd5d",
        "hex": "6a20a572fafcd2de7a40c4a2ea97d8a49f42b72fcdb324886cf7bd2323c94a195d9e4db004d77db108df6bca43147c5db0934ee119d9de8ee0836ad60cffc3588d78d31fbbf75d9128ff4bea63345c7d90b36ec139f9feaec0a34af62cdfe378ad58f33f9b973df1489f2b8a03543c1df0d30ea159999ecea0c32a964cbf8318cd38935ffbb71dd168bf0baa23741c3dd0f32e8179b9beee80e30ab66c9fa338ed18b37fdb57fd31885feb4ac394fcdd3013ce6199595e0e6003ea568c7f43d80df8539f3b77dd11a87fcb6ae3b4dcfd1033ee41b9797e2e4023ca76ac5f63f82dd873bf1b17bd71c81fab0a83d4bc9d70538e21d9191e4e2043aa16cc3f03984db813df7b379d51e83f8b2aa3f49cbd5073ae01f9393e6e00638a36ec1f23b86d9833ff5bd77db108df6bca43147c5db0934ee119d9de8ee0836ad60cffc3588d78d31fbbf75d9128ff4bea63345c7d90b36ec139f9feaec0a34af62cdfe378ad58f33f9b973df1489f2b8a03543c1df0d30ea159999ecea0c32a964cbf8318cd38935ffbb71dd168bf0baa23741c3dd0f32e8179b9beee80e30ab66c9fa338ed18b37fdb57fd31885feb4ac394fcdd3013ce6199595e0e6003ea568c7f43d80df8539f3b77dd11a87fcb6ae3b4dcfd1033ee41b9797e2e4023ca76ac5f63f82dd873bf1b17bd71c81fab0a83d4bc9d70538e21d9191e4e2043aa16cc3f03984db813df7b379d51e83f8b2aa3f49cbd5073ae01f9393e6e00638a36ec1f23b86d9833ff5bd77db108df6bca43147c5db0934ee119d9de8ee0836ad60cffc3588d78d31fbbf75d9128ff4bea63345c7d90b36ec139f9feaec0a34af62cdfe378ad58f33f9b973df1489f2b8a03543c1df0d30ea159999ecea0c32a964cbf8318cd38935ffbb71dd168bf0baa23741c3dd0f32e8179b9beee80e30ab66c9fa338ed18b37fdb57fd31885feb4ac394fcdd3013ce6199595e0e6003ea568c7f43d80df8539f3b77dd11a87fcb6ae3b4dcfd1033ee41b9797e2e4023ca76ac5f63f82dd873bf1b17bd71c81fab0a83d4bc9d70538e21d9191e4e2043aa16cc3f03984db813df7b379d51e83f8b2aa3f49cbd5073ae01f9393e6e00638a36ec1f23b86d9833ff5bd77db108df6bca43147c5db0934ee119d9de8ee0836ad60cffc3588d78d31fbbf75d9128ff4bea63345c7d90b36ec139f9feaec0a34af62cdfe378ad58f33f9b973df1489f2b8a03543c1df0d30ea159999ecea0c32a964cbf8318cd38935ffbb71dd168bf0baa23741c3dd0f32e8179b9beee80e30ab66c9fa338ed18b37fdb57fd31885feb4ac394fcdd3013ce6199595e0e6003ea568c7f43d80df8539f3b77dd11a87fcb6ae3b4dcfd1033ee41b9797e2e4023ca76ac5f63f82dd873bf1b17bd71c81fab0a83d4bc9d70538e21d9191e4e2043aa16cc3f03984db813df7b379d51e83f8b2aa3f49cbd5073ae01f9393e6e00638a36ec1f23b86d9833ff5bd77db108df6bca43147c5db0934ee119d9de8ee0836ad60cffc3588d78d31fbbf75d9128ff4bea63345c7d90b36ec139f9feaec0a34af62cdfe378ad58f33f9b973df1489f2b8a03543c1df0d30ea159999ecea0c32a964cbf8318cd38935ffbb71dd168bf0baa23741c3dd0f32e8179b9beee80e30ab66c9fa338ed18b37fdb57fd31885feb4ac394fcdd3013ce61994499aed3832988255e4be424302953e7e436a2a58799b627b1b33a302f52fd5d",
        "type": "nulldata"
      }
    },
    {
      "value": 499974.5775,
      "n": 1,
      "scriptPubKey": {
        "asm": "1 438aea65109600a13c6dba488c135d900a0758c69dc20c1e35e7d4ae59935dd8",
        "hex": "5120438aea65109600a13c6dba488c135d900a0758c69dc20c1e35e7d4ae59935dd8",
        "reqSigs": 1,
        "type": "witness_v1_scripthash",
        "addresses": [
          "3QJmnh"
        ]
      }
    }
  ],
  "blockhash": "3f7b66b34673dd56727b9b27d02dfa4f8333ff75e8b72ddccb546061f2a7d063",
  "confirmations": 1,
  "time": 1764180681,
  "blocktime": 1764180681
}