{
  "hex": "01000000000101cbebd11fe3ca9f38ca6d619058c61ed399d235c8d3d4afe0fac326b97cf6561c0000000000feffffff0270752d82792d0000225120aa3b1ada1a85bfba163f7f585773b827df7de818e87d4bc67ab9700abc1a4b6e00e1f50500000000fdd5046a208305aca65051d86d912e4dc296eed0b6092455be77d4541b707032b5d5df1f254db0045357070f0840edd60c6671e2eda49d2db5a6a3b9f8f428eb56d8a881a21228ec7377272f2860cdf62c4651c2cd84bd0d95868399d8d408cb76f888a1823208cc1317474f4800ad964c2631a2ade4dd6df5e6e3f9b8b468ab1698e8c1e25268ac3337676f68208db66c0611828dc4fd4dd5c6c3d99894488b36b8c8e1c272488cd3d7878f88c06d568ce6f1626d241dad352623397874a86bd65828012292a86cf3f7a7afa8e04d76acc6d1424d043d8d150603195854884bf678082102b2884c9397c7cfc8802d16cca6b1222d645ded756663793834e82b9618684162d2e82cb3b7e7efe8a00d36ec8691020d447dcd554643591814c80bb638486142f2c80c5357070f0840edd60c6671e2eda49d2db5a6a3b9f8f428eb56d8a881a21228ec7377272f2860cdf62c4651c2cd84bd0d95868399d8d408cb76f888a1823208cc1317474f4800ad964c2631a2ade4dd6df5e6e3f9b8b468ab1698e8c1e25268ac3337676f68208db66c0611828dc4fd4dd5c6c3d99894488b36b8c8e1c272488cd3d7878f88c06d568ce6f1626d241dad352623397874a86bd65828012292a86cf3f7a7afa8e04d76acc6d1424d043d8d150603195854884bf678082102b2884c9397c7cfc8802d16cca6b1222d645ded756663793834e82b9618684162d2e82cb3b7e7efe8a00d36ec8691020d447dcd554643591814c80bb638486142f2c80c5357070f0840edd60c6671e2eda49d2db5a6a3b9f8f428eb56d8a881a21228ec7377272f2860cdf62c4651c2cd84bd0d95868399d8d408cb76f888a1823208cc1317474f4800ad964c2631a2ade4dd6df5e6e3f9b8b468ab1698e8c1e25268ac3337676f68208db66c0611828dc4fd4dd5c6c3d99894488b36b8c8e1c272488cd3d7878f88c06d568ce6f1626d241dad352623397874a86bd65828012292a86cf3f7a7afa8e04d76acc6d1424d043d8d150603195854884bf678082102b2884c9397c7cfc8802d16cca6b1222d645ded756663793834e82b9618684162d2e82cb3b7e7efe8a00d36ec8691020d447dcd554643591814c80bb638486142f2c80c5357070f0840edd60c6671e2eda49d2db5a6a3b9f8f428eb56d8a881a21228ec7377272f2860cdf62c4651c2cd84bd0d95868399d8d408cb76f888a1823208cc1317474f4800ad964c2631a2ade4dd6df5e6e3f9b8b468ab1698e8c1e25268ac3337676f68208db66c0611828dc4fd4dd5c6c3d99894488b36b8c8e1c272488cd3d7878f88c06d568ce6f1626d241dad352623397874a86bd65828012292a86cf3f7a7afa8e04d76acc6d1424d043d8d150603195854884bf678082102b2884c9397c7cfc8802d16cca6b1222d645ded756663793834e82b9618684162d2e82cb3b7e7efe8a00d36ec8691020d447dcd554643591814c80bb638486142f2c80c5357070f0840edd60c6671e2eda49d2db5a6a3b9f8f428eb56d8a881a21228ec7377272f2860cdf62c4651c2cd84bd0d95868399d8d408cb76f888a1823208cc1317474f4800ad964c2631a2ade4dd6df5e6e3f9b8b468ab1698e8c1e25268ac3337676f68208db66c0611828dc4fd4dd5c6c3d99894488b36b8c8e1c272488cd3d7878f88c06d568ce6f1626d241daddd1dffd3be515f3796d2485bd738ae41aeb89ee981108b73c02acee0440de06a02fd750979d0fd100b91415fb94392ba722ddd66afdd35f96450cd988e37dc362834da6b6fd247a786196b8a3df6cf6c54aa7e757106f5ae254e717d58727053bed9e93fbd096478e501d718b7586c57b13852a0e70decc0459f7d15b7497ce5b7793a6dc194b2e36c2386595295d3b35d09c54456428a4f6bbc2c1faf432b302aceef766a041b94c25cade68aeaa2573feda2ea30c7444452584993e880efadf571557763655ae7aaa8574d326f77d82b2a1141bd53ce75df5d099100f5f22baa50c0132da00be81cf90fc378d3865ebb87ea3527293690e656305980f0d1b6dc5de5232bd4276f06665ed3130f64106a5bd009ead4c6cf4c0a5cdc42725a77e620e7d68eb87e90e953b30e7f740182620a04e31ab4811c9cf9eefd893a10be632dce81f203a40c4f8d5f89d2d281dcf373be8fadd263dd3666e0466ee4613bdf5397df5fdf221e1fb07a4e0525f1b88e07ea978fb220d78b7b1f35c9540d5038e4eab2b96557fd363a6b0d21897aed1d8a452ca1f01f98af6f3f48c40f038bd681b2f7728c50a480766870cb6e7b02ba658570a1337befcdfeedb60efc38f704219f129e7057c1a8219a37f812b0b8e4fe1bd43d5ad9d3c47ae5bc1a749a940b3f8c6572f854d29e04404955a3c7e0115e3dbe7eb006f27051fdfc457f0cff448fa54dde8aacadd38ba3987886ace271874660f6e357b01ef0148c0682064b0c7b198d79b35dcab65a437c06953673102b62350072c3df23c1aeeb12cb07f5d4e8c37853444b0df86656a5cd4734250a607be0c7d23f68aaed474675f9c61a36cc6f07249f9a719d9286993ede976924d3264af7086b29157f8932bc4dd0a68a97601600406696a77c20ea3af1d9f25b7daf7fd76303c37c337e2494770ac31614dece43c15138e9e46b15c331f9ffc6e9395d02ae31a4f11cf644b6e822c82a2eb6893594f8cd8f953706864fa93bbb913ad728d967113f77e2f0da0abd73045824050c23024b81cec3c05c37117464888131ed1f68f4aec501f12402f9e08a33ede4772d8008002c777a40d2ecde97c4fe42b5561805921d1cdd70c8cc65b838c00af76f43c44ac21cf758b6defebd3aebcde6ab9d7d0794644efe8f36a1b7dc85f76a897149075309bc7c8c1164791eb91a390c25883ad6b8783423eb65c442d7f8c0f170fa6528b2a6825a491d5bba6e570db3bcde3296d0375e1f776270cdd66fe52fa1bc21b38f4822256c89232eeb69e91c770b55291c2c542c690710d976cd79a8b494e4dd563d24d7390c416c2ee355e7fbb2e8f80e3d8687ab0bbceb10d45ad5094f8cfea635df0cdd22e1a70f72a32435aa1b34713e2210f7fab207e820d87eca088cf8776ea4737f945404485854ef430a437da624856677d94292ae93c28c2e13eee7a51a43a166de2cebe10faee9e7fdb333530b0122424b49e944a71174561627d25ecac1a1cfb6de2541189d0dffa5e8f050e8bcbfa72114d852c863ef85609ecd681622794bf5df1465105f01bbcc95d70781dfe89b9e59d4669f6c954e28ac0140036260b35dfc6692c499ec2c714b8a26631e58fba80be0be11a9bc94f69d567992d821b26c510ca64597a4b75b7cf359ef48876dc0485acacda846d08d88ca296b958f8480d3886a8994cfdce94caac630d718efdadb515061248e9d526608a2499eae34b7e55d714c3fdb02d3472d04f22cbf6307762d4e0c31e9ffe27444b103a5d50e3e8383f6127a09fa59ecf9029cb3370e97a843b38ee40166a7d58d2fda5142fe6975a33b682a0fa782ad461433e19c21a8958bc7b6b64db917fd1de4da0f2b6ac27e157748a2f70562a188f5da39b30ddbab83767d27f8d596824930d6e33d4fe480b662b43121d9653351de3e2b51f60bb66714c5bc0e73d01c00f9c1006071d710375adde40bce1cd7a26df6c6b33993cfa8df1edac77c04fec608203c53af1ca241a14922230c9af9b3a4b33ad932e98e78440afbbd86ebc472b5c8fb98560993faa258b42b50f37f4094ab005b2069422a1499411368f3d6aed400213ef91cc53a05030532513b31b1d91b2094d57ab8dd5a90bec11e233e452df2765db187cec30842249e3063316ffaab5b0deb4b3d308f15412c2d13357ec171848c493fa53fa63debd8e5b29f0ea402e06abc458c0d4802c706b3a2144f26c5f0c5a4011e5622663471ed24d6ef6f87f59ab332b71a74a14d7a8347806bb4a9b711a4f3c846f010394415b05afb55e4bacecb80d4cd33ac0bbe8dc95483644eb42c8235513af465470829030c4ca4f7b443c2169ea23d75853417d4af7511971f71002458c29c795b346e58bc3258e30f5f069221f1ad5444b7387efe77d6433e66332dacd41f2dda05647648b1b5dd2e2e5294a9cc1b050fd0e145d4e6b911dd421bbd5a4da7185c388b79c9f705c8a230dc0e70a50e7467fcd3922569121454aa5184e62ab069088bc618585b2a8efae0d85b7c0c0803f23f3402278fb9e0866a68c388e6acf8d982ccfdb104830eccef597daccf8239fa35e634cc0a54b1157af8bb467db6e55beb6e19486f679eecd8c500cc1983f835cab1c7bfb5fd5ccee222878bc016262305a977d2c449da9ff6d55ab9393bded5796eda83fa0f756748792194e34b09670675a26be4320a21a2584628e1f1a0c38e490be7e2783dcf940a52748ba5d7a80b01f9739a35868f5a676a34ea8ef15ffa970cf6a5f60615d27dd1015434d6cf23743ac696eea30dd7d6b11c37404a26e657d3edaff7298c2d098093820460e06aead831760730f44d5318453d11ec7ba957f51f64af5bddcbb987e148bee421fada9b13dbb97fb78c19ef88529e49197fd88b921cc858cb275e9c87e515ce0dbfe5a51f49d47cc6f6787487bd39604eb495129edb1f4a1f1de0b9661985976761f4e7021e16540023e3f608d13dba59e8fd5f755dedad0391c89ff5823cb785011f5416efdcd8bbe293f60df3f2e8a0480ec0b5ca7df6109b9c0ac43b1120cdec8ff1a456088766ba38d5bdf137a0d1e2c1ae2ade8cf263d75f0479363a62124bfef2ec115a42fb2eda0ede15fe3f072a93a7873dee01086e37c92a1625daabb76a4dd6af43fa43f5256a8bb5a157299cf380bc34c6d11d7f125bf65a55d4b530791c52c0d1e797e62d442a5009dace27313b8760fe9f595d66e016d77b9d5c53eb27a854723aa23db67793508dfff152c2715fbf68cee0fac1f09268ff67c6bde2b15c90c247c29c1dab9d71993ea6fea5adbfbf4143c4678fd07ade904cca1d0cf9837caefa6f3302cc65b1394c161e25323959676c878c8f909498a1a4badeec000308121740445d6a7f9ca0a1a8abb8c3dee1fc1934394648585d75839fb3b6b7cad2e5eef0f6182930363a4550586d777e8f9bc4ce0000000000000013273a4901fd21050037b4682e93411fa63111aa3b20f390327cb5df7e74582a5190665fa2b3aee13007720b884f072bdf83a690f4f792ed0a401d376d9454471f22d6d9d45a93805b5591d1969d1cf8f541d42c7a0e9a4679cb6c155e8b06305e814af2a1013b71aa5505f0119ef3e53e02aec5fb06840db733a7e02e5ae2e67b84fb14088e2218670ff59ad5aea884786eed0fac52e98ccd0e9c474caf4ed69ee1ec9a648b3fcda5f26b33c0e5b19b401f05695fad6d2d475b3bf50c6005ab98bad5f5be3cba9e324d437c7c0fc70d0e627accc53b851324011ff466b59b64fcdda3019bf722aeba8d31bdbfe722cd2e8d314971c8fb6adf764fe08aff504c8e8ac766b6da74575834acbaf28b5435e032969346d88d075af31a77e425b080f674b8ff90840f0a35328e77475ebec3d22f5781f10e2fb001110890408da9617209b3e820b07d5e46b8c90826ed36a232acf21d2b95aa06fd629b302aacb6d1a40770a8a711d719514522d0b50bd803054be799450e6c2f4c28feb8ba4ed24ed42470137a7bb6b616900e8d2c8cbd247347aa2d9bb08a61b0937e677490de6919cac7a3797cff7c193527b492a42de47a18d84ac4ec903bc1bcf23895bb68527b31199f5e83f5aa3db7ffef5ca578a9ec69d42c2de462fcf2acf0ada57fe681e25fafa0a495a819a11aec899276d8490a3ae752f0fd1be04bb3c8ccdffaea82744e0e05ed0133004ca5210b3e6f579f74a8667e6fb0f086ac2d4da9d9b1f0069ba839d21b4af085d6bd29b115f34b8117d351f65b8b81fce731f2bd007f4b78b32d9059f45ce62c40565a098eef1ffa8afeb2dc3379e59d0a1583bdc1f97eed253aebc4460ea5eb6e250c9cc851b76006d11c03c70760a5367e98882eb113ee86061f18f7e924250309358d8f16bc8568401ae33c4f3889e7ba83b65495a9e2725d37ef91da7be4f46a98a7c7bae7cb8d45af3b6fac9b85669f20e9271cae67c51f54e220c56c5fa5f6627d4d1a711917d1c56ca3f9e6f54f1de03f5514017e85d6c512cbc59eed5ec998ee29001564df3dca0ea3d5c331771ccf4f99e3ac46681d95d124eded06b128a663e03921137f8fba93c9357d6062d14b5f599354f738e548818adfd576c6a4909c99413ed49dd2422acb54738dfdb28a4869c12fa575af41333180d02c7ba7b288e30f1989b7f36309966b766903a4a86c32dfaf183239dbfb106f94b34da6450a18a7ff8ffb6f8410069317a39dc4a3ad09aa8d36ee6b8cf20c1c773cb6f80e8dccb98e0c1daf3106695e0117fb5f97c9c0bb1f17e1826308ca910ed6463488a189e4b68e92149453a41ea9d2a89aa69e1702b5606e3386a8d883cecb7467c174c911410d3b9defde663d07869e6baa9d9dde52e50baef2dc5c1b546e736bab692419fe03c40fddec69b69d65b63f6aa1c4e4be2579c667e3d17e9135e8b6a68ab2da754e4374e3708d5c2407a83620f9145fc61ea427d956c706e44bad238ca557da1a5e012b564d2ff4290af34450e8433352b179c0e7b49b60d9258185f37df4584659a3b53ea7cb11f5130116dfdbdf43ad0f016ad3c3a1bb679fb03aa34a27cdf660380894a89797d817c1346c3dc0048bfdf2792bf90a64ec6f1a1f4f8d50c28476a45abef6a2214a1cfec8df89568f08b530bfac11d5f175446f464ddac965b65f6037783a6a4ca014c369bb32d920a8c4551075f13d57e28a0defa5353dfb2899b1230c9b933a51a35e8fd7f1da9574fcd1a0f88783bce4e4950bf2e6f967d8964aea0e5d8cabb24bd4b1741b83e1fbee598a1da2c9a5dc10cbb5d605dc33bc8e786fd62a5dd414631c201e1b83e2d55f89503b44a50b4055c367000000",
  "txid": "83550a80c7fddba59d58e020319057a8a94c36c2ec2935fd5fbe2f140c188b6e",
  "hash": "fa0d140ac13289acbe6b683ac8a6b1241e77936b552756999e646ec260b1c9b7",
  "size": 5085,
  "vsize": 2278,
  "version": 1,
  "locktime": 103,
  "vin": [
    {
      "txid": "1c56f67cb926c3fae0afd4d3c835d299d31ec65890616dca389fcae31fd1ebcb",
      "vout": 0,
      "scriptSig": {
        "asm": "",
        "hex": ""
      },
      "txinwitness": [
        "79d0fd100b91415fb94392ba722ddd66afdd35f96450cd988e37dc362834da6b6fd247a786196b8a3df6cf6c54aa7e757106f5ae254e717d58727053bed9e93fbd096478e501d718b7586c57b13852a0e70decc0459f7d15b7497ce5b7793a6dc194b2e36c2386595295d3b35d09c54456428a4f6bbc2c1faf432b302aceef766a041b94c25cade68aeaa2573feda2ea30c7444452584993e880efadf571557763655ae7aaa8574d326f77d82b2a1141bd53ce75df5d099100f5f22baa50c0132da00be81cf90fc378d3865ebb87ea3527293690e656305980f0d1b6dc5de5232bd4276f06665ed3130f64106a5bd009ead4c6cf4c0a5cdc42725a77e620e7d68eb87e90e953b30e7f740182620a04e31ab4811c9cf9eefd893a10be632dce81f203a40c4f8d5f89d2d281dcf373be8fadd263dd3666e0466ee4613bdf5397df5fdf221e1fb07a4e0525f1b88e07ea978fb220d78b7b1f35c9540d5038e4eab2b96557fd363a6b0d21897aed1d8a452ca1f01f98af6f3f48c40f038bd681b2f7728c50a480766870cb6e7b02ba658570a1337befcdfeedb60efc38f704219f129e7057c1a8219a37f812b0b8e4fe1bd43d5ad9d3c47ae5bc1a749a940b3f8c6572f854d29e04404955a3c7e0115e3dbe7eb006f27051fdfc457f0cff448fa54dde8aacadd38ba3987886ace271874660f6e357b01ef0148c0682064b0c7b198d79b35dcab65a437c06953673102b62350072c3df23c1aeeb12cb07f5d4e8c37853444b0df86656a5cd4734250a607be0c7d23f68aaed474675f9c61a36cc6f07249f9a719d9286993ede976924d3264af7086b29157f8932bc4dd0a68a97601600406696a77c20ea3af1d9f25b7daf7fd76303c37c337e2494770ac31614dece43c15138e9e46b15c331f9ffc6e9395d02ae31a4f11cf644b6e822c82a2eb6893594f8cd8f953706864fa93bbb913ad728d967113f77e2f0da0abd73045824050c23024b81cec3c05c37117464888131ed1f68f4aec501f12402f9e08a33ede4772d8008002c777a40d2ecde97c4fe42b5561805921d1cdd70c8cc65b838c00af76f43c44ac21cf758b6defebd3aebcde6ab9d7d0794644efe8f36a1b7dc85f76a897149075309bc7c8c1164791eb91a390c25883ad6b8783423eb65c442d7f8c0f170fa6528b2a6825a491d5bba6e570db3bcde3296d0375e1f776270cdd66fe52fa1bc21b38f4822256c89232eeb69e91c770b55291c2c542c690710d976cd79a8b494e4dd563d24d7390c416c2ee355e7fbb2e8f80e3d8687ab0bbceb10d45ad5094f8cfea635df0cdd22e1a70f72a32435aa1b34713e2210f7fab207e820d87eca088cf8776ea4737f945404485854ef430a437da624856677d94292ae93c28c2e13eee7a51a43a166de2cebe10faee9e7fdb333530b0122424b49e944a71174561627d25ecac1a1cfb6de2541189d0dffa5e8f050e8bcbfa72114d852c863ef85609ecd681622794bf5df1465105f01bbcc95d70781dfe89b9e59d4669f6c954e28ac0140036260b35dfc6692c499ec2c714b8a26631e58fba80be0be11a9bc94f69d567992d821b26c510ca64597a4b75b7cf359ef48876dc0485acacda846d08d88ca296b958f8480d3886a8994cfdce94caac630d718efdadb515061248e9d526608a2499eae34b7e55d714c3fdb02d3472d04f22cbf6307762d4e0c31e9ffe27444b103a5d50e3e8383f6127a09fa59ecf9029cb3370e97a843b38ee40166a7d58d2fda5142fe6975a33b682a0fa782ad461433e19c21a8958bc7b6b64db917fd1de4da0f2b6ac27e157748a2f70562a188f5da39b30ddbab83767d27f8d596824930d6e33d4fe480b662b43121d9653351de3e2b51f60bb66714c5bc0e73d01c00f9c1006071d710375adde40bce1cd7a26df6c6b33993cfa8df1edac77c04fec608203c53af1ca241a14922230c9af9b3a4b33ad932e98e78440afbbd86ebc472b5c8fb98560993faa258b42b50f37f4094ab005b2069422a1499411368f3d6aed400213ef91cc53a05030532513b31b1d91b2094d57ab8dd5a90bec11e233e452df2765db187cec30842249e3063316ffaab5b0deb4b3d308f15412c2d13357ec171848c493fa53fa63debd8e5b29f0ea402e06abc458c0d4802c706b3a2144f26c5f0c5a4011e5622663471ed24d6ef6f87f59ab332b71a74a14d7a8347806bb4a9b711a4f3c846f010394415b05afb55e4bacecb80d4cd33ac0bbe8dc95483644eb42c8235513af465470829030c4ca4f7b443c2169ea23d75853417d4af7511971f71002458c29c795b346e58bc3258e30f5f069221f1ad5444b7387efe77d6433e66332dacd41f2dda05647648b1b5dd2e2e5294a9cc1b050fd0e145d4e6b911dd421bbd5a4da7185c388b79c9f705c8a230dc0e70a50e7467fcd3922569121454aa5184e62ab069088bc618585b2a8efae0d85b7c0c0803f23f3402278fb9e0866a68c388e6acf8d982ccfdb104830eccef597daccf8239fa35e634cc0a54b1157af8bb467db6e55beb6e19486f679eecd8c500cc1983f835cab1c7bfb5fd5ccee222878bc016262305a977d2c449da9ff6d55ab9393bded5796eda83fa0f756748792194e34b09670675a26be4320a21a2584628e1f1a0c38e490be7e2783dcf940a52748ba5d7a80b01f9739a35868f5a676a34ea8ef15ffa970cf6a5f60615d27dd1015434d6cf23743ac696eea30dd7d6b11c37404a26e657d3edaff7298c2d098093820460e06aead831760730f44d5318453d11ec7ba957f51f64af5bddcbb987e148bee421fada9b13dbb97fb78c19ef88529e49197fd88b921cc858cb275e9c87e515ce0dbfe5a51f49d47cc6f6787487bd39604eb495129edb1f4a1f1de0b9661985976761f4e7021e16540023e3f608d13dba59e8fd5f755dedad0391c89ff5823cb785011f5416efdcd8bbe293f60df3f2e8a0480ec0b5ca7df6109b9c0ac43b1120cdec8ff1a456088766ba38d5bdf137a0d1e2c1ae2ade8cf263d75f0479363a62124bfef2ec115a42fb2eda0ede15fe3f072a93a7873dee01086e37c92a1625daabb76a4dd6af43fa43f5256a8bb5a157299cf380bc34c6d11d7f125bf65a55d4b530791c52c0d1e797e62d442a5009dace27313b8760fe9f595d66e016d77b9d5c53eb27a854723aa23db67793508dfff152c2715fbf68cee0fac1f09268ff67c6bde2b15c90c247c29c1dab9d71993ea6fea5adbfbf4143c4678fd07ade904cca1d0cf9837caefa6f3302cc65b1394c161e25323959676c878c8f909498a1a4badeec000308121740445d6a7f9ca0a1a8abb8c3dee1fc1934394648585d75839fb3b6b7cad2e5eef0f6182930363a4550586d777e8f9bc4ce0000000000000013273a4901",
        "0037b4682e93411fa63111aa3b20f390327cb5df7e74582a5190665fa2b3aee13007720b884f072bdf83a690f4f792ed0a401d376d9454471f22d6d9d45a93805b5591d1969d1cf8f541d42c7a0e9a4679cb6c155e8b06305e814af2a1013b71aa5505f0119ef3e53e02aec5fb06840db733a7e02e5ae2e67b84fb14088e2218670ff59ad5aea884786eed0fac52e98ccd0e9c474caf4ed69ee1ec9a648b3fcda5f26b33c0e5b19b401f05695fad6d2d475b3bf50c6005ab98bad5f5be3cba9e324d437c7c0fc70d0e627accc53b851324011ff466b59b64fcdda3019bf722aeba8d31bdbfe722cd2e8d314971c8fb6adf764fe08aff504c8e8ac766b6da74575834acbaf28b5435e032969346d88d075af31a77e425b080f674b8ff90840f0a35328e77475ebec3d22f5781f10e2fb001110890408da9617209b3e820b07d5e46b8c90826ed36a232acf21d2b95aa06fd629b302aacb6d1a40770a8a711d719514522d0b50bd803054be799450e6c2f4c28feb8ba4ed24ed42470137a7bb6b616900e8d2c8cbd247347aa2d9bb08a61b0937e677490de6919cac7a3797cff7c193527b492a42de47a18d84ac4ec903bc1bcf23895bb68527b31199f5e83f5aa3db7ffef5ca578a9ec69d42c2de462fcf2acf0ada57fe681e25fafa0a495a819a11aec899276d8490a3ae752f0fd1be04bb3c8ccdffaea82744e0e05ed0133004ca5210b3e6f579f74a8667e6fb0f086ac2d4da9d9b1f0069ba839d21b4af085d6bd29b115f34b8117d351f65b8b81fce731f2bd007f4b78b32d9059f45ce62c40565a098eef1ffa8afeb2dc3379e59d0a1583bdc1f97eed253aebc4460ea5eb6e250c9cc851b76006d11c03c70760a5367e98882eb113ee86061f18f7e924250309358d8f16bc8568401ae33c4f3889e7ba83b65495a9e2725d37ef91da7be4f46a98a7c7bae7cb8d45af3b6fac9b85669f20e9271cae67c51f54e220c56c5fa5f6627d4d1a711917d1c56ca3f9e6f54f1de03f5514017e85d6c512cbc59eed5ec998ee29001564df3dca0ea3d5c331771ccf4f99e3ac46681d95d124eded06b128a663e03921137f8fba93c9357d6062d14b5f599354f738e548818adfd576c6a4909c99413ed49dd2422acb54738dfdb28a4869c12fa575af41333180d02c7ba7b288e30f1989b7f36309966b766903a4a86c32dfaf183239dbfb106f94b34da6450a18a7ff8ffb6f8410069317a39dc4a3ad09aa8d36ee6b8cf20c1c773cb6f80e8dccb98e0c1daf3106695e0117fb5f97c9c0bb1f17e1826308ca910ed6463488a189e4b68e92149453a41ea9d2a89aa69e1702b5606e3386a8d883cecb7467c174c911410d3b9defde663d07869e6baa9d9dde52e50baef2dc5c1b546e736bab692419fe03c40fddec69b69d65b63f6aa1c4e4be2579c667e3d17e9135e8b6a68ab2da754e4374e3708d5c2407a83620f9145fc61ea427d956c706e44bad238ca557da1a5e012b564d2ff4290af34450e8433352b179c0e7b49b60d9258185f37df4584659a3b53ea7cb11f5130116dfdbdf43ad0f016ad3c3a1bb679fb03aa34a27cdf660380894a89797d817c1346c3dc0048bfdf2792bf90a64ec6f1a1f4f8d50c28476a45abef6a2214a1cfec8df89568f08b530bfac11d5f175446f464ddac965b65f6037783a6a4ca014c369bb32d920a8c4551075f13d57e28a0defa5353dfb2899b1230c9b933a51a35e8fd7f1da9574fcd1a0f88783bce4e4950bf2e6f967d8964aea0e5d8cabb24bd4b1741b83e1fbee598a1da2c9a5dc10cbb5d605dc33bc8e786fd62a5dd414631c201e1b83e2d55f89503b44a50b4055c3"
      ],
      "sequence": 4294967294
    }
  ],
  "vout": [
    {
      "value": 499998.9831,
      "n": 0,
      "scriptPubKey": {
        "asm": "1 aa3b1ada1a85bfba163f7f585773b827df7de818e87d4bc67ab9700abc1a4b6e",
        "hex": "5120aa3b1ada1a85bfba163f7f585773b827df7de818e87d4bc67ab9700abc1a4b6e",
        "reqSigs": 1,
        "type": "witness_v1_scripthash",
        "addresses": [
          "3QJmnh"
        ]
      }
    },
    {
      "value": 1.0,
      "n": 1,
      "scriptPubKey": {
        "asm": "OP_RETURN 8305aca65051d86d912e4dc296eed0b6092455be77d4541b707032b5d5df1f25 5357070f0840edd60c6671e2eda49d2db5a6a3b9f8f428eb56d8a881a21228ec7377272f2860cdf62c4651c2cd84bd0d95868399d8d408cb76f888a1823208cc1317474f4800ad964c2631a2ade4dd6df5e6e3f9b8b468ab1698e8c1e25268ac3337676f68208db66c0611828dc4fd4dd5c6c3d99894488b36b8c8e1c272488cd3d7878f88c06d568ce6f1626d241dad352623397874a86bd65828012292a86cf3f7a7afa8e04d76acc6d1424d043d8d150603195854884bf678082102b2884c9397c7cfc8802d16cca6b1222d645ded756663793834e82b9618684162d2e82cb3b7e7efe8a00d36ec8691020d447dcd554643591814c80bb638486142f2c80c5357070f0840edd60c6671e2eda49d2db5a6a3b9f8f428eb56d8a881a21228ec7377272f2860cdf62c4651c2cd84bd0d95868399d8d408cb76f888a1823208cc1317474f4800ad964c2631a2ade4dd6df5e6e3f9b8b468ab1698e8c1e25268ac3337676f68208db66c0611828dc4fd4dd5c6c3d99894488b36b8c8e1c272488cd3d7878f88c06d568ce6f1626d241dad352623397874a86bd65828012292a86cf3f7a7afa8e04d76acc6d1424d043d8d150603195854884bf678082102b2884c9397c7cfc8802d16cca6b1222d645ded756663793834e82b9618684162d2e82cb3b7e7efe8a00d36ec8691020d447dcd554643591814c80bb638486142f2c80c5357070f0840edd60c6671e2eda49d2db5a6a3b9f8f428eb56d8a881a21228ec7377272f2860cdf62c4651c2cd84bd0d95868399d8d408cb76f888a1823208cc1317474f4800ad964c2631a2ade4dd6df5e6e3f9b8b468ab1698e8c1e25268ac3337676f68208db66c0611828dc4fd4dd5c6c3d99894488b36b8c8e1c272488cd3d7878f88c06d568ce6f1626d241dad352623397874a86bd65828012292a86cf3f7a7afa8e04d76acc6d1424d043d8d150603195854884bf678082102b2884c9397c7cfc8802d16cca6b1222d645ded756663793834e82b9618684162d2e82cb3b7e7efe8a00d36ec8691020d447dcd554643591814c80bb638486142f2c80c5357070f0840edd60c6671e2eda49d2db5a6a3b9f8f428eb56d8a881a21228ec7377272f2860cdf62c4651c2cd84bd0d95868399d8d408cb76f888a1823208cc1317474f4800ad964c2631a2ade4dd6df5e6e3f9b8b468ab1698e8c1e25268ac3337676f68208db66c0611828dc4fd4dd5c6c3d99894488b36b8c8e1c272488cd3d7878f88c06d568ce6f1626d241dad352623397874a86bd65828012292a86cf3f7a7afa8e04d76acc6d1424d043d8d150603195854884bf678082102b2884c9397c7cfc8802d16cca6b1222d645ded756663793834e82b9618684162d2e82cb3b7e7efe8a00d36ec8691020d447dcd554643591814c80bb638486142f2c80c5357070f0840edd60c6671e2eda49d2db5a6a3b9f8f428eb56d8a881a21228ec7377272f2860cdf62c4651c2cd84bd0d95868399d8d408cb76f888a1823208cc1317474f4800ad964c2631a2ade4dd6df5e6e3f9b8b468ab1698e8c1e25268ac3337676f68208db66c0611828dc4fd4dd5c6c3d99894488b36b8c8e1c272488cd3d7878f88c06d568ce6f1626d241daddd1dffd3be515f3796d2485bd738ae41aeb89ee981108b73c02acee0440de06a",
        "hex": "6a208305aca65051d86d912e4dc296eed0b6092455be77d4541b707032b5d5df1f254db0045357070f0840edd60c6671e2eda49d2db5a6a3b9f8f428eb56d8a881a21228ec7377272f2860cdf62c4651c2cd84bd0d95868399d8d408cb76f888a1823208cc1317474f4800ad964c2631a2ade4dd6df5e6e3f9b8b468ab1698e8c1e25268ac3337676f68208db66c0611828dc4fd4dd5c6c3d99894488b36b8c8e1c272488cd3d7878f88c06d568ce6f1626d241dad352623397874a86bd65828012292a86cf3f7a7afa8e04d76acc6d1424d043d8d150603195854884bf678082102b2884c9397c7cfc8802d16cca6b1222d645ded756663793834e82b9618684162d2e82cb3b7e7efe8a00d36ec8691020d447dcd554643591814c80bb638486142f2c80c5357070f0840edd60c6671e2eda49d2db5a6a3b9f8f428eb56d8a881a21228ec7377272f2860cdf62c4651c2cd84bd0d95868399d8d408cb76f888a1823208cc1317474f4800ad964c2631a2ade4dd6df5e6e3f9b8b468ab1698e8c1e25268ac3337676f68208db66c0611828dc4fd4dd5c6c3d99894488b36b8c8e1c272488cd3d7878f88c06d568ce6f1626d241dad352623397874a86bd65828012292a86cf3f7a7afa8e04d76acc6d1424d043d8d150603195854884bf678082102b2884c9397c7cfc8802d16cca6b1222d645ded756663793834e82b9618684162d2e82cb3b7e7efe8a00d36ec8691020d447dcd554643591814c80bb638486142f2c80c5357070f0840edd60c6671e2eda49d2db5a6a3b9f8f428eb56d8a881a21228ec7377272f2860cdf62c4651c2cd84bd0d95868399d8d408cb76f888a1823208cc1317474f4800ad964c2631a2ade4dd6df5e6e3f9b8b468ab1698e8c1e25268ac3337676f68208db66c0611828dc4fd4dd5c6c3d99894488b36b8c8e1c272488cd3d7878f88c06d568ce6f1626d241dad352623397874a86bd65828012292a86cf3f7a7afa8e04d76acc6d1424d043d8d150603195854884bf678082102b2884c9397c7cfc8802d16cca6b1222d645ded756663793834e82b9618684162d2e82cb3b7e7efe8a00d36ec8691020d447dcd554643591814c80bb638486142f2c80c5357070f0840edd60c6671e2eda49d2db5a6a3b9f8f428eb56d8a881a21228ec7377272f2860cdf62c4651c2cd84bd0d95868399d8d408cb76f888a1823208cc1317474f4800ad964c2631a2ade4dd6df5e6e3f9b8b468ab1698e8c1e25268ac3337676f68208db66c0611828dc4fd4dd5c6c3d99894488b36b8c8e1c272488cd3d7878f88c06d568ce6f1626d241dad352623397874a86bd65828012292a86cf3f7a7afa8e04d76acc6d1424d043d8d150603195854884bf678082102b2884c9397c7cfc8802d16cca6b1222d645ded756663793834e82b9618684162d2e82cb3b7e7efe8a00d36ec8691020d447dcd554643591814c80bb638486142f2c80c5357070f0840edd60c6671e2eda49d2db5a6a3b9f8f428eb56d8a881a21228ec7377272f2860cdf62c4651c2cd84bd0d95868399d8d408cb76f888a1823208cc1317474f4800ad964c2631a2ade4dd6df5e6e3f9b8b468ab1698e8c1e25268ac3337676f68208db66c0611828dc4fd4dd5c6c3d99894488b36b8c8e1c272488cd3d7878f88c06d568ce6f1626d241daddd1dffd3be515f3796d2485bd738ae41aeb89ee981108b73c02acee0440de06a",
        "type": "nulldata"
      }
    }
  ],
  "blockhash": "15af9b025c636b87e0a10c18a1a8de0e5f3c2069ad563b293161176d75df89a4",
  "confirmations": 1,
  "time": 1764174659,
  "blocktime": 1764174659
}