{
  "hex": "01000000000101e0a27a33554be04d2278fb4c7dcd6e594c6da6b352fec32dcf221620640428f70100000000feffffff0200e1f50500000000fdd5046a20e4df6307729ceaa1e18d8b902f5cbb52039cc881765449b6021b19a555ef964a4db004274aae204b06494f06dee7b70c3dfe9d1be8065a1f6d7679a6404f9d6cfc6bbb076a8e006b26696f26fec7972c1ddebd3bc8267a3f4d565986606fbd4cdc4b9b670aee600b46090f469ea7f74c7dbedd5ba8461a5f2d3639e6000fdd2cbc2bfb472ace402b66292f66be87d76c5d9efd7b88663a7f0d1619c6202ffd0c9c0bdba7ca2ea0cb86c9cf865e67378cbd7e1d9b6886da9fedf6f926c0cf1dec7ceb3b87ea0e80eba6e9efa67e4717ac9d5e3dbb48a6fabfcdd6d906e0ef3dcc5ccb1be78a6ee08bc6898fc61e2777ccfd3e5ddb28c69adfadb6b966808f5dac3cab7bc7aa4ec0abe6a9afe63e0757ecdd1e7dfb08e6baff8d969946a0af7d8c1c8b5b274aae204b06494f06dee7b70c3dfe9d1be8065a1f6d7679a6404f9d6cfc6bbb076a8e006b26696f26fec7972c1ddebd3bc8267a3f4d565986606fbd4cdc4b9b670aee600b46090f469ea7f74c7dbedd5ba8461a5f2d3639e6000fdd2cbc2bfb472ace402b66292f66be87d76c5d9efd7b88663a7f0d1619c6202ffd0c9c0bdba7ca2ea0cb86c9cf865e67378cbd7e1d9b6886da9fedf6f926c0cf1dec7ceb3b87ea0e80eba6e9efa67e4717ac9d5e3dbb48a6fabfcdd6d906e0ef3dcc5ccb1be78a6ee08bc6898fc61e2777ccfd3e5ddb28c69adfadb6b966808f5dac3cab7bc7aa4ec0abe6a9afe63e0757ecdd1e7dfb08e6baff8d969946a0af7d8c1c8b5b274aae204b06494f06dee7b70c3dfe9d1be8065a1f6d7679a6404f9d6cfc6bbb076a8e006b26696f26fec7972c1ddebd3bc8267a3f4d565986606fbd4cdc4b9b670aee600b46090f469ea7f74c7dbedd5ba8461a5f2d3639e6000fdd2cbc2bfb472ace402b66292f66be87d76c5d9efd7b88663a7f0d1619c6202ffd0c9c0bdba7ca2ea0cb86c9cf865e67378cbd7e1d9b6886da9fedf6f926c0cf1dec7ceb3b87ea0e80eba6e9efa67e4717ac9d5e3dbb48a6fabfcdd6d906e0ef3dcc5ccb1be78a6ee08bc6898fc61e2777ccfd3e5ddb28c69adfadb6b966808f5dac3cab7bc7aa4ec0abe6a9afe63e0757ecdd1e7dfb08e6baff8d969946a0af7d8c1c8b5b274aae204b06494f06dee7b70c3dfe9d1be8065a1f6d7679a6404f9d6cfc6bbb076a8e006b26696f26fec7972c1ddebd3bc8267a3f4d565986606fbd4cdc4b9b670aee600b46090f469ea7f74c7dbedd5ba8461a5f2d3639e6000fdd2cbc2bfb472ace402b66292f66be87d76c5d9efd7b88663a7f0d1619c6202ffd0c9c0bdba7ca2ea0cb86c9cf865e67378cbd7e1d9b6886da9fedf6f926c0cf1dec7ceb3b87ea0e80eba6e9efa67e4717ac9d5e3dbb48a6fabfcdd6d906e0ef3dcc5ccb1be78a6ee08bc6898fc61e2777ccfd3e5ddb28c69adfadb6b966808f5dac3cab7bc7aa4ec0abe6a9afe63e0757ecdd1e7dfb08e6baff8d969946a0af7d8c1c8b5b274aae204b06494f06dee7b70c3dfe9d1be8065a1f6d7679a6404f9d6cfc6bbb076a8e006b26696f26fec7972c1ddebd3bc8267a3f4d565986606fbd4cdc4b9b670aee600b46090f469ea7f74c7dbedd5ba8461a5f2d3639e6000fdd2cbc2bfb472ace402b66292f66be87d76c5d9efd7b88663a7f0d1619c6202ffd0c9c0bdba7ca2ea0cb86c9cf865e67378cbd7e1de138eb2a9cfae83d22e54809a9dc812250974fbf6710f32ceb851fb90fd8b52ad0cb9045792d0000225120c7445847724c1e2d7f1a1c9876afbcf17192d43b918ad6baaad51895495bace002fd7509a629f53f196e6ab7ccc41dd471e617596312f0b796a418bb87e17bc3813762cb49c2f1cb6b882cb88ca6608c01b2fcc4b7b4ec08589ab73bf73c110b37ba1acee469cb9fc480729cf9f01ed8caf2a0ced7cfd15f2d70971db5feb6e256f5c5ba16285b3ab6d4e5348f148811fd16f59995ace17ad743c8de9121071df3546c02e4fee8470a04f4097314f9d73a081d0e61e62f47a03cf1d970337f5f36dded797b9a288bb79f318bc530d1d1f5288a79b0ffa95883ff61cf7d5d8e2762c3f7c47a9efb804c1b4cbb60a4eaf0a1aa80e70f1018c22651acc78749dbf54cd1c981b95c00f1ddef3d9f27c997f887047d5bdc592cbc5bda65500415d470cf9fb98f1a5c9ed433f1eb75e4f38ee0910cef59ff89e2ba44a84c40ebb0446fdbaffbcb6575f02f9538a5f74415d148b6bcbf39f86942ef9d79f6b361fa0e213c67c7c7fff579ac53627bf62e3637a3bdd4d6794d0d11015453d66f6133fcadcc03327e680e2a264674ec8df5b136c1665ecb4f009f807de4c8a5533540c4045313d6d5e4eff94147025e15f191473648f2ad7ea5b958a58b0d9cec86cf45673ef0a0753fb738604fc51e03eac037ef34ec679351469a03ed7051d4299ef782c9d2bd3e40d1fe1015c056f844e337a976efdb72feb614c4b58bc5e4fa223728f37cb862420a4ffd1fb842b0b33ad4937e856fc34039bed2a31df976618952f6e941e1de076c8d7270140a451e9e5343666f59054ca7311c4057c80da06b642f3af83ffeecbf48ac240116638e942c9fb7fdd54846d840176094cfd51f9fc2c0f10e055d05f7bea1a6fb728a748714b6726b1544c266e8ab31471f98b759468228efa2d97eee4a7629e2a69727edbde1f39e13f870f991b7b07171dadc9ac09e7c8fcbdbaa7188712eab5c5e178dd11ef7f83a5441985cf48cfb6caf9eb4c846c5e18a804613766aef508f952d5b6153a0dfe00af8b822262511edacba436dc5b0108b33c891af34147ac1c6d4fd4531279f17fc7e2c9bcc9f11c6cdf8b029bfa0560cdcd033eff43d98525f612b65018c7b29ff1fded8a51bbe408fc99d747aa11a97d12e36fe8b769759378757f7cc6d32bdba200d003c5378f398930047fe2f7e3a62547b363d893510b32441823f313d3a07c50cbcb32567464a92e0ef7c3cf3b7c38b5fd6e8f225349e52ddc8110b55804e4243eb550759c11283f56ac14b4c2a53d0de5a3d985807d62c49099d95665cd158d650366d961be37365bb81d2c39c17739a42a7afc2cb885c1c4234197b18ecf9b63e315c92b27621d825b1bf7ef8466c2e5c9303b8ce9e5084a033169a3ec0ce291ba1430f9c10f9f6ed9125a020acf780399808be4ff372fa855b17a50071c403b482113a3b9b073d703467566908161abadf4577f939fb69952854448bcc8c4991829cd678afcb29abfe85bb681f57c9cb6e7e3f3c131ae689c26b5068f2ee4d2f1aa629befee2be899fc2d8ef7ddc2413cd81a0fc0594a34be9ec054cdcfeaceeacfb863e83b682e121a780f29f6eba68a53115ee2debd874cd13bd158a69fdc718bbcfb79312c35dde8a4c59ae6a7a194b7a4142090a9abfb1ea85b1217d27eecc59c503f6f5a19ef1a2de2f38782638b60e43fad72f5a93aa45ab42652e14949071cc196e4e4c0182121d0fcbacbea4ff3bdf075879779b44ac063a7c81621397fdba7822d1ab909f5f8f3ab6deea34587fdc5939c2831115fa08a6b73121999348cfeca3251b3ee5b14ca03f3a219cd932d18aae47536ac8a2cd8e6af59c128a95996ee0880ce0226444fc138f861ecaab1c99a60ba7d421313188db8c0341f7251dfd3b7b11e6a4bb3cbd5c28ee77ec3e9daf7e48643ff4b7e42ac8f56f68f67841e83eacadd21a797c76401feb5e9d27f606f097226caa8ac0bc7fa4c51e1978691eebde98616cf9bc3dde4dcba702fb4febaf99bab04ee9e0c167eb82980b7ceb53dc49c5f30b2fe8693cbbf8e56457fbd4dc8acbb5465bc7c7e9496073e1541c815b8d6c7f1e29dc8a5982c4a995e3e0cb32f464bc889f3b094856fa9671acb8f4955a57d49bccfcff867db8a516716867cdb1f894fd71eff8d76ce3a368c1858d6b57e766a46d632fede4aad21fb7ba900aa41d7eaf42e2767895bae4c8700d35261797a3f64d4fcd615f517bbc65618a9249197f492b73f832bdf50319c9985e735154e32577719ad1d98f7d597ce3f070b85479cdcadfa551da7c469b40b7dd2ace01a2fae87340713499a3b5ea38d34f89a586d2fb92ab2bc351e2d50fbb768d69777e669fbee332ec252008de126200a9da94359c0d94db0960426ce19b62a1db74605f4f4902b4b82108ab09e254c5148eac6e8cf68e67a2c18e5c87ab581d1c1c5aaf3b19147f89f044ddea85d503df407ae65753c938ef5fd151eecc5567e46672bb40587aee4f7a1def92beb81d81026b53f18e4c655b9d44f4b6ca00988e05d1127541d173a41af9ccae3a39d2271b966746588f7229302050ce51c312599321826b0b797f72c3e4916f46370fa9717a00918228a93e352fab367bce12e72cf980a2d216fbeab469bc88b4882347c8ca5e0601e84ed152368e7fa7accb23abf2a29b76c9f108fe8b76f5b703251fe8dff1e343464036e11c9cd775d43f2a6a42277ae900b6b25284ab7d17c9ced8ceb764b6d138419a5822f0fc314b3da2e8d5e56cd3b38047c5f9838ec30b1def4a9de142e348d9d4cba59251fb5833c7b7f41b10c8b6b49176beef1063694988c3c15e1bc1e1d61a82f471a0329551186d801565d837c16c1a8206f346cf81314042a1b77c08002d00845f2cf22b584e5a739c938dddb8194ea5c954b8b1ac020aaddd26cc091d4d89603a920389d5f84d1d7e0ba7b90aa20cc618d7d61f5329cc4ab16c3215019e3d1ea3643e48c47f67e8f403f3b6ecfaef6e87ac65ace5dc29a598ec02a7f267162df9e62110060af18fea11c27f2e50697bdd9d7335f3d6e401edd21c51e1e5f42fccf5b294cc7037151eec435dd2a95e8abc0f4c2afd9d9dee27a1c263d81c3fd8413e1e597b94fa2f7246da9c53dd920137c7f024190d5afecbe99740dcd4ffb08e7d8c7aab2618b586feb862fad7040e17dbc4eca46046c8c25e3120ecdf25e0b5aaf4c6266984e2bc0e7d89e215d3494724c611fb675fbc904fef8e21f82bf7f0ce1105053a7a47f02331be5aa84a6e100868f499252ee9ef4fe578c0667cbd0291b294e9fd8056a14b14f3e3d1b298529f7bec75fa34f25c4b2693829e73fdc3d18d04c76fc71049333ed56a212932394b7b84888aa1a2a6b1bddd0f4860696b77848e9b9fa7b4b5d4e3e4e9fb020c0d0e112744495d60769abbbec9cad0d5de091112303e4b6893b1c0e200000000000000000000000000000000000f21343f01fd210500feae4f9b3b03d6a52ef54071ab72bc651b73c3ae54b9faf35cba8655129dcef23793725b42dc3cf80205b316db364b36e66fb3253ee7384e6ea1b68d07e43cd0d4b8a8cda7c79813af9a7e07a271134511a40632bba0237ef66c2602e60d76757f5a37676419842798067aa06e8b8ea723942610a0a70b2a0af6be65f94cd41ed7f0585a3b711e0954779535d04e6444b4e694e8dfb483293d1ec46126fe5db363e83c9692ad303573f264568e107062350eb24778b0d19e132e4389d253df4ce795e0b8cfc5a21e811b3df1305afe343ea0a41de25b2e8ed7c899ff1b254e8b8f3003f2994a9af96537cf264eff21b0f676a94fe365dece7d3af4f8fb96af216710ae3c2b87a6cab7f7e0c9127ecd09802e1e3f7bb891bb1d1cea9ac0d2d0750b4761d3840f96406384b1e329651be58c15388eedd7d67572514ab6be34484ef6197a0554ee594b753fb779d863052ff84378d860263b1dd0a191044b448b329e4b94c1823c4c3d51e0bf544365eac5293d69e0c1a0f99cca04cf6c685fd0deedb4277b08ae281b856bc740a54b3737fb092e10f06b6e62c5d6a9cba505e1ba8109fbd272f2a072e7e07660677e5e6a6c61cef9a5ef80339ea4152d7c5c3dedefe69a19818bc1a135ed7d552c1ba1c2aa288ac00d45657bfcfa298a0eed06ee15f6ba80d1241c8e5f5de587475251fc8fb4241f0c46d66bb68e3ca685f4b1f89f1c3c86c733ccb681d75d20e6f8fed6a730c3df888d481f91ffa2ea12fb2a9ad904c9f0f2a9435bb398df10c0457c8c63f65ce05f06d6fb983f73930cebcdaa7cf8472cbaaa7aa31219a8ac5606b1a7c6aa0303a48f6171536bd38d5e9ee054a010273d3eb7f7998d2bcd3e9a539cbd75d3f4edde735c7d3e97466afa6cf3920f15bd9f4e9b1267d806a0cd96b8673c923bcab845934529f530b098417e2baf82e9a3ea99ca449230fd7c0018de805c75943590f1ca26ef8c85796e89c0410cccb0827bd162e656e99c0b1e8ed928e5a548256a05f942456a3b7a24f19af9557683455d576c15866e258927a9be7a32f604d4583e313ae891f635f16a7c596c7199a35054291b37595a13a8112c5bac0e4c0abfc72e0df210f79a4351d15300cdccb5ea79b481f2562ab79a35d71607832999b262dad42be36e8de761439cd8403a986c2517e7faab895b210bbd0328d135520d098d35175709e10a809214940e0a51da0a83d10a19fa355b6c77becd415f3d168c9abf5c6faa503082390d1f2d7b1fbef8512e048a873791646c59b42a5b8b756a85a8cf9e8e024287528ed02ebb6a72c4f81769d250805716eb45b00f946964f2220af0db1366b62b6e73932182acd371a9e7b8374480fac237414b2feb232265ffae4c34384aa2045ff1d1de5dc7ade8a60db5a35dfa096e0e99e0057ed829ff10d8aea5844af2cae06f53fc1e3579f1412fe81e620156a9f310eb478770b4fe84f974e2d4a822d40dcb060353510ef39c9ee23557a1a862503fb0387f3d7880979c99c1f47d1082f6aa95ee06bdf4da7625edb1e9b5fdc57e1344cf0b6921e4bea118f94edec36c134f62b8c7f09f19426461e6db3ad7f856d9cf1912e1d49bb580fd65cbd5c0a9fb9f1022c9bbfe52e22af5b69c12acbacca193cd658a9de3da91eddd6b7a0865249915a1f5e7da2d327fd4d48c4d407d55cae635fddefb7179443aa8b9f6f6ca80d464c1715d9f42794efb59b22e5800b6150249b3be5f7160191b785052df0d1407291ea825f8ea088ae35e78a3999d7841f4a6e1f7e479df11f177ffe31e84a975b0c589a42c21c5a59a68ea07dbfc98d623d68a7579b6f85b15d32093f272337b116d000000",
  "txid": "81436d747af32f9a68ec9cc2e2c4acac1567e3384d3fea1e79cce2897e5bbc83",
  "hash": "471cf084f2c975ae7c505ea171f76e9d2feb9a8074815f9601d594e46a1fd69a",
  "size": 5085,
  "vsize": 2278,
  "version": 1,
  "locktime": 109,
  "vin": [
    {
      "txid": "f7280464201622cf2dc3fe52b3a66d4c596ecd7d4cfb78224de04b55337aa2e0",
      "vout": 1,
      "scriptSig": {
        "asm": "",
        "hex": ""
      },
      "txinwitness": [
        "a629f53f196e6ab7ccc41dd471e617596312f0b796a418bb87e17bc3813762cb49c2f1cb6b882cb88ca6608c01b2fcc4b7b4ec08589ab73bf73c110b37ba1acee469cb9fc480729cf9f01ed8caf2a0ced7cfd15f2d70971db5feb6e256f5c5ba16285b3ab6d4e5348f148811fd16f59995ace17ad743c8de9121071df3546c02e4fee8470a04f4097314f9d73a081d0e61e62f47a03cf1d970337f5f36dded797b9a288bb79f318bc530d1d1f5288a79b0ffa95883ff61cf7d5d8e2762c3f7c47a9efb804c1b4cbb60a4eaf0a1aa80e70f1018c22651acc78749dbf54cd1c981b95c00f1ddef3d9f27c997f887047d5bdc592cbc5bda65500415d470cf9fb98f1a5c9ed433f1eb75e4f38ee0910cef59ff89e2ba44a84c40ebb0446fdbaffbcb6575f02f9538a5f74415d148b6bcbf39f86942ef9d79f6b361fa0e213c67c7c7fff579ac53627bf62e3637a3bdd4d6794d0d11015453d66f6133fcadcc03327e680e2a264674ec8df5b136c1665ecb4f009f807de4c8a5533540c4045313d6d5e4eff94147025e15f191473648f2ad7ea5b958a58b0d9cec86cf45673ef0a0753fb738604fc51e03eac037ef34ec679351469a03ed7051d4299ef782c9d2bd3e40d1fe1015c056f844e337a976efdb72feb614c4b58bc5e4fa223728f37cb862420a4ffd1fb842b0b33ad4937e856fc34039bed2a31df976618952f6e941e1de076c8d7270140a451e9e5343666f59054ca7311c4057c80da06b642f3af83ffeecbf48ac240116638e942c9fb7fdd54846d840176094cfd51f9fc2c0f10e055d05f7bea1a6fb728a748714b6726b1544c266e8ab31471f98b759468228efa2d97eee4a7629e2a69727edbde1f39e13f870f991b7b07171dadc9ac09e7c8fcbdbaa7188712eab5c5e178dd11ef7f83a5441985cf48cfb6caf9eb4c846c5e18a804613766aef508f952d5b6153a0dfe00af8b822262511edacba436dc5b0108b33c891af34147ac1c6d4fd4531279f17fc7e2c9bcc9f11c6cdf8b029bfa0560cdcd033eff43d98525f612b65018c7b29ff1fded8a51bbe408fc99d747aa11a97d12e36fe8b769759378757f7cc6d32bdba200d003c5378f398930047fe2f7e3a62547b363d893510b32441823f313d3a07c50cbcb32567464a92e0ef7c3cf3b7c38b5fd6e8f225349e52ddc8110b55804e4243eb550759c11283f56ac14b4c2a53d0de5a3d985807d62c49099d95665cd158d650366d961be37365bb81d2c39c17739a42a7afc2cb885c1c4234197b18ecf9b63e315c92b27621d825b1bf7ef8466c2e5c9303b8ce9e5084a033169a3ec0ce291ba1430f9c10f9f6ed9125a020acf780399808be4ff372fa855b17a50071c403b482113a3b9b073d703467566908161abadf4577f939fb69952854448bcc8c4991829cd678afcb29abfe85bb681f57c9cb6e7e3f3c131ae689c26b5068f2ee4d2f1aa629befee2be899fc2d8ef7ddc2413cd81a0fc0594a34be9ec054cdcfeaceeacfb863e83b682e121a780f29f6eba68a53115ee2debd874cd13bd158a69fdc718bbcfb79312c35dde8a4c59ae6a7a194b7a4142090a9abfb1ea85b1217d27eecc59c503f6f5a19ef1a2de2f38782638b60e43fad72f5a93aa45ab42652e14949071cc196e4e4c0182121d0fcbacbea4ff3bdf075879779b44ac063a7c81621397fdba7822d1ab909f5f8f3ab6deea34587fdc5939c2831115fa08a6b73121999348cfeca3251b3ee5b14ca03f3a219cd932d18aae47536ac8a2cd8e6af59c128a95996ee0880ce0226444fc138f861ecaab1c99a60ba7d421313188db8c0341f7251dfd3b7b11e6a4bb3cbd5c28ee77ec3e9daf7e48643ff4b7e42ac8f56f68f67841e83eacadd21a797c76401feb5e9d27f606f097226caa8ac0bc7fa4c51e1978691eebde98616cf9bc3dde4dcba702fb4febaf99bab04ee9e0c167eb82980b7ceb53dc49c5f30b2fe8693cbbf8e56457fbd4dc8acbb5465bc7c7e9496073e1541c815b8d6c7f1e29dc8a5982c4a995e3e0cb32f464bc889f3b094856fa9671acb8f4955a57d49bccfcff867db8a516716867cdb1f894fd71eff8d76ce3a368c1858d6b57e766a46d632fede4aad21fb7ba900aa41d7eaf42e2767895bae4c8700d35261797a3f64d4fcd615f517bbc65618a9249197f492b73f832bdf50319c9985e735154e32577719ad1d98f7d597ce3f070b85479cdcadfa551da7c469b40b7dd2ace01a2fae87340713499a3b5ea38d34f89a586d2fb92ab2bc351e2d50fbb768d69777e669fbee332ec252008de126200a9da94359c0d94db0960426ce19b62a1db74605f4f4902b4b82108ab09e254c5148eac6e8cf68e67a2c18e5c87ab581d1c1c5aaf3b19147f89f044ddea85d503df407ae65753c938ef5fd151eecc5567e46672bb40587aee4f7a1def92beb81d81026b53f18e4c655b9d44f4b6ca00988e05d1127541d173a41af9ccae3a39d2271b966746588f7229302050ce51c312599321826b0b797f72c3e4916f46370fa9717a00918228a93e352fab367bce12e72cf980a2d216fbeab469bc88b4882347c8ca5e0601e84ed152368e7fa7accb23abf2a29b76c9f108fe8b76f5b703251fe8dff1e343464036e11c9cd775d43f2a6a42277ae900b6b25284ab7d17c9ced8ceb764b6d138419a5822f0fc314b3da2e8d5e56cd3b38047c5f9838ec30b1def4a9de142e348d9d4cba59251fb5833c7b7f41b10c8b6b49176beef1063694988c3c15e1bc1e1d61a82f471a0329551186d801565d837c16c1a8206f346cf81314042a1b77c08002d00845f2cf22b584e5a739c938dddb8194ea5c954b8b1ac020aaddd26cc091d4d89603a920389d5f84d1d7e0ba7b90aa20cc618d7d61f5329cc4ab16c3215019e3d1ea3643e48c47f67e8f403f3b6ecfaef6e87ac65ace5dc29a598ec02a7f267162df9e62110060af18fea11c27f2e50697bdd9d7335f3d6e401edd21c51e1e5f42fccf5b294cc7037151eec435dd2a95e8abc0f4c2afd9d9dee27a1c263d81c3fd8413e1e597b94fa2f7246da9c53dd920137c7f024190d5afecbe99740dcd4ffb08e7d8c7aab2618b586feb862fad7040e17dbc4eca46046c8c25e3120ecdf25e0b5aaf4c6266984e2bc0e7d89e215d3494724c611fb675fbc904fef8e21f82bf7f0ce1105053a7a47f02331be5aa84a6e100868f499252ee9ef4fe578c0667cbd0291b294e9fd8056a14b14f3e3d1b298529f7bec75fa34f25c4b2693829e73fdc3d18d04c76fc71049333ed56a212932394b7b84888aa1a2a6b1bddd0f4860696b77848e9b9fa7b4b5d4e3e4e9fb020c0d0e112744495d60769abbbec9cad0d5de091112303e4b6893b1c0e200000000000000000000000000000000000f21343f01",
        "00feae4f9b3b03d6a52ef54071ab72bc651b73c3ae54b9faf35cba8655129dcef23793725b42dc3cf80205b316db364b36e66fb3253ee7384e6ea1b68d07e43cd0d4b8a8cda7c79813af9a7e07a271134511a40632bba0237ef66c2602e60d76757f5a37676419842798067aa06e8b8ea723942610a0a70b2a0af6be65f94cd41ed7f0585a3b711e0954779535d04e6444b4e694e8dfb483293d1ec46126fe5db363e83c9692ad303573f264568e107062350eb24778b0d19e132e4389d253df4ce795e0b8cfc5a21e811b3df1305afe343ea0a41de25b2e8ed7c899ff1b254e8b8f3003f2994a9af96537cf264eff21b0f676a94fe365dece7d3af4f8fb96af216710ae3c2b87a6cab7f7e0c9127ecd09802e1e3f7bb891bb1d1cea9ac0d2d0750b4761d3840f96406384b1e329651be58c15388eedd7d67572514ab6be34484ef6197a0554ee594b753fb779d863052ff84378d860263b1dd0a191044b448b329e4b94c1823c4c3d51e0bf544365eac5293d69e0c1a0f99cca04cf6c685fd0deedb4277b08ae281b856bc740a54b3737fb092e10f06b6e62c5d6a9cba505e1ba8109fbd272f2a072e7e07660677e5e6a6c61cef9a5ef80339ea4152d7c5c3dedefe69a19818bc1a135ed7d552c1ba1c2aa288ac00d45657bfcfa298a0eed06ee15f6ba80d1241c8e5f5de587475251fc8fb4241f0c46d66bb68e3ca685f4b1f89f1c3c86c733ccb681d75d20e6f8fed6a730c3df888d481f91ffa2ea12fb2a9ad904c9f0f2a9435bb398df10c0457c8c63f65ce05f06d6fb983f73930cebcdaa7cf8472cbaaa7aa31219a8ac5606b1a7c6aa0303a48f6171536bd38d5e9ee054a010273d3eb7f7998d2bcd3e9a539cbd75d3f4edde735c7d3e97466afa6cf3920f15bd9f4e9b1267d806a0cd96b8673c923bcab845934529f530b098417e2baf82e9a3ea99ca449230fd7c0018de805c75943590f1ca26ef8c85796e89c0410cccb0827bd162e656e99c0b1e8ed928e5a548256a05f942456a3b7a24f19af9557683455d576c15866e258927a9be7a32f604d4583e313ae891f635f16a7c596c7199a35054291b37595a13a8112c5bac0e4c0abfc72e0df210f79a4351d15300cdccb5ea79b481f2562ab79a35d71607832999b262dad42be36e8de761439cd8403a986c2517e7faab895b210bbd0328d135520d098d35175709e10a809214940e0a51da0a83d10a19fa355b6c77becd415f3d168c9abf5c6faa503082390d1f2d7b1fbef8512e048a873791646c59b42a5b8b756a85a8cf9e8e024287528ed02ebb6a72c4f81769d250805716eb45b00f946964f2220af0db1366b62b6e73932182acd371a9e7b8374480fac237414b2feb232265ffae4c34384aa2045ff1d1de5dc7ade8a60db5a35dfa096e0e99e0057ed829ff10d8aea5844af2cae06f53fc1e3579f1412fe81e620156a9f310eb478770b4fe84f974e2d4a822d40dcb060353510ef39c9ee23557a1a862503fb0387f3d7880979c99c1f47d1082f6aa95ee06bdf4da7625edb1e9b5fdc57e1344cf0b6921e4bea118f94edec36c134f62b8c7f09f19426461e6db3ad7f856d9cf1912e1d49bb580fd65cbd5c0a9fb9f1022c9bbfe52e22af5b69c12acbacca193cd658a9de3da91eddd6b7a0865249915a1f5e7da2d327fd4d48c4d407d55cae635fddefb7179443aa8b9f6f6ca80d464c1715d9f42794efb59b22e5800b6150249b3be5f7160191b785052df0d1407291ea825f8ea088ae35e78a3999d7841f4a6e1f7e479df11f177ffe31e84a975b0c589a42c21c5a59a68ea07dbfc98d623d68a7579b6f85b15d32093f272337b11"
      ],
      "sequence": 4294967294
    }
  ],
  "vout": [
    {
      "value": 1.0,
      "n": 0,
      "scriptPubKey": {
        "asm": "OP_RETURN e4df6307729ceaa1e18d8b902f5cbb52039cc881765449b6021b19a555ef964a 274aae204b06494f06dee7b70c3dfe9d1be8065a1f6d7679a6404f9d6cfc6bbb076a8e006b26696f26fec7972c1ddebd3bc8267a3f4d565986606fbd4cdc4b9b670aee600b46090f469ea7f74c7dbedd5ba8461a5f2d3639e6000fdd2cbc2bfb472ace402b66292f66be87d76c5d9efd7b88663a7f0d1619c6202ffd0c9c0bdba7ca2ea0cb86c9cf865e67378cbd7e1d9b6886da9fedf6f926c0cf1dec7ceb3b87ea0e80eba6e9efa67e4717ac9d5e3dbb48a6fabfcdd6d906e0ef3dcc5ccb1be78a6ee08bc6898fc61e2777ccfd3e5ddb28c69adfadb6b966808f5dac3cab7bc7aa4ec0abe6a9afe63e0757ecdd1e7dfb08e6baff8d969946a0af7d8c1c8b5b274aae204b06494f06dee7b70c3dfe9d1be8065a1f6d7679a6404f9d6cfc6bbb076a8e006b26696f26fec7972c1ddebd3bc8267a3f4d565986606fbd4cdc4b9b670aee600b46090f469ea7f74c7dbedd5ba8461a5f2d3639e6000fdd2cbc2bfb472ace402b66292f66be87d76c5d9efd7b88663a7f0d1619c6202ffd0c9c0bdba7ca2ea0cb86c9cf865e67378cbd7e1d9b6886da9fedf6f926c0cf1dec7ceb3b87ea0e80eba6e9efa67e4717ac9d5e3dbb48a6fabfcdd6d906e0ef3dcc5ccb1be78a6ee08bc6898fc61e2777ccfd3e5ddb28c69adfadb6b966808f5dac3cab7bc7aa4ec0abe6a9afe63e0757ecdd1e7dfb08e6baff8d969946a0af7d8c1c8b5b274aae204b06494f06dee7b70c3dfe9d1be8065a1f6d7679a6404f9d6cfc6bbb076a8e006b26696f26fec7972c1ddebd3bc8267a3f4d565986606fbd4cdc4b9b670aee600b46090f469ea7f74c7dbedd5ba8461a5f2d3639e6000fdd2cbc2bfb472ace402b66292f66be87d76c5d9efd7b88663a7f0d1619c6202ffd0c9c0bdba7ca2ea0cb86c9cf865e67378cbd7e1d9b6886da9fedf6f926c0cf1dec7ceb3b87ea0e80eba6e9efa67e4717ac9d5e3dbb48a6fabfcdd6d906e0ef3dcc5ccb1be78a6ee08bc6898fc61e2777ccfd3e5ddb28c69adfadb6b966808f5dac3cab7bc7aa4ec0abe6a9afe63e0757ecdd1e7dfb08e6baff8d969946a0af7d8c1c8b5b274aae204b06494f06dee7b70c3dfe9d1be8065a1f6d7679a6404f9d6cfc6bbb076a8e006b26696f26fec7972c1ddebd3bc8267a3f4d565986606fbd4cdc4b9b670aee600b46090f469ea7f74c7dbedd5ba8461a5f2d3639e6000fdd2cbc2bfb472ace402b66292f66be87d76c5d9efd7b88663a7f0d1619c6202ffd0c9c0bdba7ca2ea0cb86c9cf865e67378cbd7e1d9b6886da9fedf6f926c0cf1dec7ceb3b87ea0e80eba6e9efa67e4717ac9d5e3dbb48a6fabfcdd6d906e0ef3dcc5ccb1be78a6ee08bc6898fc61e2777ccfd3e5ddb28c69adfadb6b966808f5dac3cab7bc7aa4ec0abe6a9afe63e0757ecdd1e7dfb08e6baff8d969946a0af7d8c1c8b5b274aae204b06494f06dee7b70c3dfe9d1be8065a1f6d7679a6404f9d6cfc6bbb076a8e006b26696f26fec7972c1ddebd3bc8267a3f4d565986606fbd4cdc4b9b670aee600b46090f469ea7f74c7dbedd5ba8461a5f2d3639e6000fdd2cbc2bfb472ace402b66292f66be87d76c5d9efd7b88663a7f0d1619c6202ffd0c9c0bdba7ca2ea0cb86c9cf865e67378cbd7e1de138eb2a9cfae83d22e54809a9dc812250974fbf6710f32ceb851fb90fd8b52a",
        "hex": "6a20e4df6307729ceaa1e18d8b902f5cbb52039cc881765449b6021b19a555ef964a4db004274aae204b06494f06dee7b70c3dfe9d1be8065a1f6d7679a6404f9d6cfc6bbb076a8e006b26696f26fec7972c1ddebd3bc8267a3f4d565986606fbd4cdc4b9b670aee600b46090f469ea7f74c7dbedd5ba8461a5f2d3639e6000fdd2cbc2bfb472ace402b66292f66be87d76c5d9efd7b88663a7f0d1619c6202ffd0c9c0bdba7ca2ea0cb86c9cf865e67378cbd7e1d9b6886da9fedf6f926c0cf1dec7ceb3b87ea0e80eba6e9efa67e4717ac9d5e3dbb48a6fabfcdd6d906e0ef3dcc5ccb1be78a6ee08bc6898fc61e2777ccfd3e5ddb28c69adfadb6b966808f5dac3cab7bc7aa4ec0abe6a9afe63e0757ecdd1e7dfb08e6baff8d969946a0af7d8c1c8b5b274aae204b06494f06dee7b70c3dfe9d1be8065a1f6d7679a6404f9d6cfc6bbb076a8e006b26696f26fec7972c1ddebd3bc8267a3f4d565986606fbd4cdc4b9b670aee600b46090f469ea7f74c7dbedd5ba8461a5f2d3639e6000fdd2cbc2bfb472ace402b66292f66be87d76c5d9efd7b88663a7f0d1619c6202ffd0c9c0bdba7ca2ea0cb86c9cf865e67378cbd7e1d9b6886da9fedf6f926c0cf1dec7ceb3b87ea0e80eba6e9efa67e4717ac9d5e3dbb48a6fabfcdd6d906e0ef3dcc5ccb1be78a6ee08bc6898fc61e2777ccfd3e5ddb28c69adfadb6b966808f5dac3cab7bc7aa4ec0abe6a9afe63e0757ecdd1e7dfb08e6baff8d969946a0af7d8c1c8b5b274aae204b06494f06dee7b70c3dfe9d1be8065a1f6d7679a6404f9d6cfc6bbb076a8e006b26696f26fec7972c1ddebd3bc8267a3f4d565986606fbd4cdc4b9b670aee600b46090f469ea7f74c7dbedd5ba8461a5f2d3639e6000fdd2cbc2bfb472ace402b66292f66be87d76c5d9efd7b88663a7f0d1619c6202ffd0c9c0bdba7ca2ea0cb86c9cf865e67378cbd7e1d9b6886da9fedf6f926c0cf1dec7ceb3b87ea0e80eba6e9efa67e4717ac9d5e3dbb48a6fabfcdd6d906e0ef3dcc5ccb1be78a6ee08bc6898fc61e2777ccfd3e5ddb28c69adfadb6b966808f5dac3cab7bc7aa4ec0abe6a9afe63e0757ecdd1e7dfb08e6baff8d969946a0af7d8c1c8b5b274aae204b06494f06dee7b70c3dfe9d1be8065a1f6d7679a6404f9d6cfc6bbb076a8e006b26696f26fec7972c1ddebd3bc8267a3f4d565986606fbd4cdc4b9b670aee600b46090f469ea7f74c7dbedd5ba8461a5f2d3639e6000fdd2cbc2bfb472ace402b66292f66be87d76c5d9efd7b88663a7f0d1619c6202ffd0c9c0bdba7ca2ea0cb86c9cf865e67378cbd7e1d9b6886da9fedf6f926c0cf1dec7ceb3b87ea0e80eba6e9efa67e4717ac9d5e3dbb48a6fabfcdd6d906e0ef3dcc5ccb1be78a6ee08bc6898fc61e2777ccfd3e5ddb28c69adfadb6b966808f5dac3cab7bc7aa4ec0abe6a9afe63e0757ecdd1e7dfb08e6baff8d969946a0af7d8c1c8b5b274aae204b06494f06dee7b70c3dfe9d1be8065a1f6d7679a6404f9d6cfc6bbb076a8e006b26696f26fec7972c1ddebd3bc8267a3f4d565986606fbd4cdc4b9b670aee600b46090f469ea7f74c7dbedd5ba8461a5f2d3639e6000fdd2cbc2bfb472ace402b66292f66be87d76c5d9efd7b88663a7f0d1619c6202ffd0c9c0bdba7ca2ea0cb86c9cf865e67378cbd7e1de138eb2a9cfae83d22e54809a9dc812250974fbf6710f32ceb851fb90fd8b52a",
        "type": "nulldata"
      }
    },
    {
      "value": 499988.8141,
      "n": 1,
      "scriptPubKey": {
        "asm": "1 c7445847724c1e2d7f1a1c9876afbcf17192d43b918ad6baaad51895495bace0",
        "hex": "5120c7445847724c1e2d7f1a1c9876afbcf17192d43b918ad6baaad51895495bace0",
        "reqSigs": 1,
        "type": "witness_v1_scripthash",
        "addresses": [
          "3QJmnh"
        ]
      }
    }
  ],
  "blockhash": "9418e69333e129952491dcd6dc324ee50ca4a2e07f0678970cb85d951484494a",
  "confirmations": 1,
  "time": 1764177673,
  "blocktime": 1764177673
}