{
  "hex": "0100000000010158ca962d19c50a8b546e9235507032d57fb2c56b0366d5359ea6afae522ac23f0100000000feffffff02d0cb9045792d00002251209993f9d2acc5f833685560a05fee5a095eca3a9096f8e0f6ff08d8944cf7c77900e1f50500000000fdd5046a2087f0f412fb1caed69e06a09592b96fb31aa90727851ef2518f26ea6627f964b24db0042c9688783248c0cf7e8b860b12fa842f2bc09e5adad3f761f85bab83ebdbf8500cb6a8581268e0ef5eaba62b32daa40f0be0be7afaf3d741d87b8ba3cbfbd8706cd6c8387208808f3ecbc64b52bac46f6b80de1a9a93b721b81bebc3ab9bb8104cf6e8185228a0af1eebe66b729ae44f4ba0fe3abab39701983bcbe38bbb9830ac1608f8b2c8404ffe0b068b927a04afab401eda5a5377e178db2b036b5b78d08c3628d892e8606fde2b26abb25a248f8b603efa7a7357c158fb0b234b7b58f0ec5648b8f288000fbe4b46cbd23a44efeb005e9a1a1337a1389b6b432b1b3890cc766898d2a8202f9e6b66ebf21a64cfcb207eba3a33178118bb4b630b3b18b02c9688783248c0cf7e8b860b12fa842f2bc09e5adad3f761f85bab83ebdbf8500cb6a8581268e0ef5eaba62b32daa40f0be0be7afaf3d741d87b8ba3cbfbd8706cd6c8387208808f3ecbc64b52bac46f6b80de1a9a93b721b81bebc3ab9bb8104cf6e8185228a0af1eebe66b729ae44f4ba0fe3abab39701983bcbe38bbb9830ac1608f8b2c8404ffe0b068b927a04afab401eda5a5377e178db2b036b5b78d08c3628d892e8606fde2b26abb25a248f8b603efa7a7357c158fb0b234b7b58f0ec5648b8f288000fbe4b46cbd23a44efeb005e9a1a1337a1389b6b432b1b3890cc766898d2a8202f9e6b66ebf21a64cfcb207eba3a33178118bb4b630b3b18b02c9688783248c0cf7e8b860b12fa842f2bc09e5adad3f761f85bab83ebdbf8500cb6a8581268e0ef5eaba62b32daa40f0be0be7afaf3d741d87b8ba3cbfbd8706cd6c8387208808f3ecbc64b52bac46f6b80de1a9a93b721b81bebc3ab9bb8104cf6e8185228a0af1eebe66b729ae44f4ba0fe3abab39701983bcbe38bbb9830ac1608f8b2c8404ffe0b068b927a04afab401eda5a5377e178db2b036b5b78d08c3628d892e8606fde2b26abb25a248f8b603efa7a7357c158fb0b234b7b58f0ec5648b8f288000fbe4b46cbd23a44efeb005e9a1a1337a1389b6b432b1b3890cc766898d2a8202f9e6b66ebf21a64cfcb207eba3a33178118bb4b630b3b18b02c9688783248c0cf7e8b860b12fa842f2bc09e5adad3f761f85bab83ebdbf8500cb6a8581268e0ef5eaba62b32daa40f0be0be7afaf3d741d87b8ba3cbfbd8706cd6c8387208808f3ecbc64b52bac46f6b80de1a9a93b721b81bebc3ab9bb8104cf6e8185228a0af1eebe66b729ae44f4ba0fe3abab39701983bcbe38bbb9830ac1608f8b2c8404ffe0b068b927a04afab401eda5a5377e178db2b036b5b78d08c3628d892e8606fde2b26abb25a248f8b603efa7a7357c158fb0b234b7b58f0ec5648b8f288000fbe4b46cbd23a44efeb005e9a1a1337a1389b6b432b1b3890cc766898d2a8202f9e6b66ebf21a64cfcb207eba3a33178118bb4b630b3b18b02c9688783248c0cf7e8b860b12fa842f2bc09e5adad3f761f85bab83ebdbf8500cb6a8581268e0ef5eaba62b32daa40f0be0be7afaf3d741d87b8ba3cbfbd8706cd6c8387208808f3ecbc64b52bac46f6b80de1a9a93b721b81bebc3ab9bb8104cf6e8185228a0af1eebe66b729ae44f4ba0fe3abab39701983bcbe38bbb9830ac1608f8b2c8404ffe0b068b927a04afeced942038298231eb3051d4b1f8744c4f0f15714407c24fa94876975f6fb53902fd7509458d833d443b5d3b3a57e0ad0e089ab4812fc9fb81c6ccf21d430a336d05245f05673bdfbdac2c9f5d0c8dd7ccef83dc886473778b39e8a84e038824ed67fb5236b726138e12873c36c3e456ab72f6b81c7115d7cb1140f3393b77aa1f99a8cd3e6fa8fd410fb55e1d01196436410cebc4ec2a2d3c7f002ff14cbc432b93dbdfcaf124dd40c2e81c80b8d030e58cf5e1dc67e932be4159a5e47295a7f063f07e743738b8b4b149ddbf0f3bad8c5c7e521520d17eb715f67e865d0e5bf0fad9602414248268e1a8fa2b9fd8f3d47dc64bb492d45bcc7ba0eac4fffe16a2ca4bde4078ea6268aca4fd595ff43303154f490b2da6b8018a5198521740ff69eb05b7a98aa34479563319bf3187a557aca8845d2835bca6be2763961c07492f778bc643e8271a3e5d519f3106e755ce8dc538ab2b9ef378c56a3aad0b640b521d70e28e4249d6c4e28187f14a195c9a6bce6e1614cef802ca61cba6b28b5302ebcb769a2375034233af0533355cf8e1e115e4c2af29e4532211e481f6bdc2985e8d243f4ce5515afce75c170730177bd43ae9b290c3b0f34ed95a6f828a892ffeeda71f00f951ca25869de157290631c553f2fd1afe1c54f7bb1b67b14c6aab86a756188f18653d26b089f418c512b17eac96b3e9f878061f06086b5476218ba704e0699339762b7259ff6d924e185b336b752f83b03855162073e22b2979091b3a312a8d4fb090deba5ff1080c9df94ba4bbad36bdcc5a0b358cc0a1249039a864ad067a90d4855abae70c782ff172897cf43f70f1618623107ddbc3f7572d065aa24c23430b31b93aba795700e35242041083bb3ebfc039d85dbddb9be2ace2344a62e02c55da52d858bf48b04175f1801cdbc0a4fc416744ef1b29a865ebbb60ccae21f86eafa950fa8be200bdbffc0eeec411d4b344dd36317b4ef1affdc3c0d54aef9c9b21b928b9c73602304f1cd724ffa1357c56a595677e216eb14f379bb7693555dc0d7b7e9da5766ae78ca64149a817d3e35fd12f1b941453f52db136dc4c3a300ac4fbf473e09bc83c81a3629a0b70d3d187ab804b039974635c4aa1c74fd25cbfb2f50ecab76d3da1e5a00eb506d2ef163bf8635c20e5c6ef97b2f23572825cfe533d541ee4a470f220e45cb430e1410e642fb823929ab887df99458582ac4ad5603c71fe36fed531e5b05ba3d97caebfc437c50464534e711837bab9249166863dc43e3b050bed205d996fbb65e6de3f6bc68d602cfe5e55a03b35540b26686f13a79a530a343d0a33f893b544b8c6176daf76ed68a3e7117d7d18b24114b59e884f3ddfc8431cc4aa5f2dadf88cafd085f34458c0823e933ebac159acd72c7f86efa66fede5da5d39ba3b3a3cc8ec8304b5604eaabc557dfc588ae24d742af22e37ed9cf8f46c27aade17c4c9c8f77bba57515c2d85c8f295084a2aa0fd138f265e88a2872694c530f64fc92c61c4bb1635cde455676f09612306be66d491fa0bf99de9db3a94aa42b966ba3e617a452f8dda35d82356073ae858b77698e70062834f513f7ba179fc1a2f7ffe70a703c061fc541c0ac78bb29de81db64c9c9bf9d9553cfd0124b7bcdccd9ec2a48b390206c1ff60ad13aa4f58e61a0b71b724e945eb9b6b3a15ce6cbbf183e7ff4e449096202918b56dc6cc65b242ee4c852af05ab8a72e09244082c644da281729c302b48b60f407548aacc40c27c2e51c7600ac6a470c37bcc144b0916407ff35f860a6b5c24fafcf9a7b3beca7bdaa964b515f96797bd6804c8cd5c4c4d93d47a36ef9089c65529c61ae5fcfc7fdd0401f1f3a07cd8ebd80d8923c7f4f67f24b457c021a5cd68781ad8d993027698b97c70e4bcc399c79d83a40898897dd802f799a2d6e6707365c469208194aa846a58145597847b0663c0c724a19656b38ed573b317e70d12e879bc85a28d27507c02a4c48cbb92c81772c68f0d87c8cceb3951f70e365ed07ccc30c65b5911654f142d4d5599ca552056577c268d5eeb4142aec08e012e34562bb1ddd9c9ba791992371f7233a24abc662a55a92f94b76594b4da6a462e94a2cad69e8a84a4b3f751da1e05e9efdc35934c3010fa8d2e37396ccc1065e3d7e06809ed61fdfbac771f81a366ff6aba0c152a509120b5a6b3c084f12043714aba6ebb4f1ca636e74b176d739ff68c17eb56c623121cda9bffe4758864c8fafed28d4d0ad4ca435b51d3229ef7888ed23daf82c746fa7acce0c596ed20eebfdf0b8dc956ee557a993ad872f469f023fd9c5457a78f69d794457b72a3db6b7756e9e0c2e0aa328a05eaddc874b6db82980b48a3622b7be0b5430e199e6aa500c0ddbec840df1b9f25817093357e9e6d36094a284648fb4035d4d36a8c4a1da1231d6dceb20e2fa12fb0f629b427f19c127934306050996ddc8fd91278d7c0182343080242963b172e437f5e063b1fb46c143b98b49d83ea7c4694c627253a44efb4dfcdf644724c82dbbda42678bd08f0d8be837fd474cebdd05ac68114bb99b7fb770ba44a3e1e0d1240f3fca4b5e0e1d27d2356a895ad94652c36edab7befda48358cbca2ba38c0fbd3f22c8bd905793e60ca62b6281e7abbf2677c45868b7dd72ee97018d7544a7c7a1745ef6a1939672cad8b30d04bc397f350bebc710f2d89ea0b50abe49c635bca7aa96bd39e7862e886ad2c632faafb0750ef12961440bf958cd519670dae9460b1b51e11781a9215a800600d386a9607ddc5fd1c23099c654bfee9b0dc29f9a0959747fb1babd0dff345f9c5f75f3c4c0906ceefd1a20b5d23f87117256ef0deafe9b7cc1a06c6ceba01ec6ba113841e42e4a298ab6183b0e3da6a0c470c2c3acec50225ff595d398e731f1b44e213271b4ca94c74a2939f1e832a93ceca4c36dbba72eb7b138ed914ef97d9dbd72c78299059ea73ed1fdff6cfb450c0bf9d7f355bd43437f1dd5cd235fb30c85077f81c0a7824c912e3a1e533a6c7d316e0b49e74c82cf9e13873c23e22bbb498a19f145386d4cd97ad2347b397bc77e3056b5e1774e93adbbdb1d7729cde6c4e66d30894c7672b29937365aa714dd323388d46d57989bb7068a1720ce573bcc8355cb9e7baceaabfc5a3b28b317604a5cd3a83d256792bd6f818378044f9e96c020caa2f227f150b550b9ca36f24491e227a3f14e68bc1effa87f2bed34e90570710c5163581e913d025006f17993caaa8985e2da6a6380155259537d792d6f8ea95896e9b8898d24e61424f165642db81bb2d158ecca45d5a312eecf631e8e014e116d5ff21fdad6db4e87ae2e9102090e18202f326376939aabcfd3dee1f905071b1c20234b575b5c7f9d9fa3b2b3dee7ecf1f3f5fafc0d11121b34454a4e5657595d5e689cd9dcf0f71b23292c43454b8398a1a5c1d6e700000000000011293c4a01fd210500ceca1241abdf7a7e7e7b7871696d531a0054502ec75b41ae0f7d58921a7dbfa632c598dee19bc6b4bee759cd747fb4c3c08c44bb9136e9b7a6e7471a2ea40b6f2ae60ac776e9c240a0ab2c71de4c3892bc3cdc2afc6aaf621d79f18e322367b9c8b7b014950b877a126b563d471e4b469cfe413c70887d08797a2c19b1f8124d685750b8d0f88aefd2c25b2973a2316ebe2acb222398a985563a482482294cf71f5f951ff6846e13c00dc723d14e516a22145c0795ee255fbf8f75debe0869a48ec1180a689b5f7e5ede63ecea33c6aa26de45385f82ccb9a6bab7797ca4d4adc4249d3cb21b55bd15dc32c5c0e5666ab0dfa2703b229a125cb28ba72cc3231a1d255b517cd07f5cbb70f88a9a40d065c3ad4ca57a5c3c0f46429a1023a1ce53768134ee4d8fd55e8b93e7ed4f1e731dd852f16726330b8d5bfe543449e32d52a6d21b19d7f35f02fe13478a0bba318ff1625be7470063733bba5857c5c82c6bc9cdfe03391932cc04c31bac6bc325f0c6821ad4013b74b5520ab9423b44d1e00c564abdac09e3fcd3eaee34f6565a60199b2b6ca2d20f87088a0fe37fddc8acf3ea8420f50e6e0a62324dccdbb091a03027372d1dd2424cd47ffbb531c85754c821563b3a10f1e780e04db26d3ae9b52ccfc1ca93847b7ade485db8625590ee7aef03b23031370efbfe6aef7cc7de32a63b16d82772cae73d4395799516e0f8c6f74f69c1b15c24a894b035a4f0cc338d65f249e8e2b8b4c6f2ac15bbf246e75cf600fc0b72ce1b5fdd2fd86d1032f9fe192c6f7401e90efa9f225e04d0a25934d8da07a3e5262e48f08cd81cfd2e56c9032e5004d6ad1f77943000f7a0349b2d2a094d02fd7cfd4eafbad78599b0e5612424cb521a860b61743fa6225b8f44b63e2c81709314615a95dcb4a54e443155b7d8803cf291a0c4d8ed2d9ee5ba4a7e7c2300d7e6fc03903ef5139cbf536328e941328f53d55f516fffaf503405dd0f033038441d69b719821fc5b473098194f11efe76edccd7888809e72ba6b096d6d981205c7836c95543c737fbf04f876f2cf8111440725f001384dbc93a3e44ac5418816fc4cdcee3424eefeb13b1fac95ba882d85ba89f51bcbfaa6963ce9ec72096f4f4926de404878600ade10019c219bd8498630249e15530cac9f8df630828111eb47fec2cc0b9b94e2a7a4956c026aad940896e45e482b59ff052c0fdcbd0437ab81fda0bfffffcfd04bcaf5ce7690cfd13dc471ac74b777dbc864b9c39219ee8f2a20b3ddbd453ce5be3c75abf4bc0ee9e91574e213e6d0f7fd645c1f40cfa2e7551a282ac220c192a1afa09c741d3905ced2a1e1206099fecadef11f9f805943189aed13f9d4bf28fb51318a796a678f339bd73e8752dc5fc64b3cac995a54808a23aa35edd3e7e71d7bb524228ce184d7e440489ff657c18572bc1cd8d74c2bc643a7a0c90b71916d018f2a567a9ab30343f49159fffec7294034f88ddd29589cf2a2838cd464394744931e89ae7626e012a14b7b6d3301caef9896bfe17949d38c3708e529329f28d5315cd90c54612426b35931d1fb0e3b66a5add9576fe47617998ba79cd11b658c9f913450db316eee6e77eff06dc20dee42ccf8f55e18a96f97a9b4bcce7265dbaba726aaae9e0e14100d1abc6d7118338861bcfc1a1ddb9a0e6601d1df3bfb4e8d859a1b1aad3a84e4f454b2aff5bb07774376ad7c500138ac4a81be0916311ead975e84b81ee7f10d1b136334baa9d77e56734bdd1bc698fa8a7c23db32fd424a3d8fe2aaa652897b6d2ab6c2b7b99cf14ca48a1c414ab2dda991705c571b3daa4b5a57549d2a7e1884407069736543ab871000000",
  "txid": "8bc3c0f64ff650fe8009b9b9567000a45c9692bdaf66231cf4b353fdf28c627f",
  "hash": "2308fda48da0e964ddf1569bb724d560d91e79bd744ed5d6800f6e82a166507b",
  "size": 5085,
  "vsize": 2278,
  "version": 1,
  "locktime": 113,
  "vin": [
    {
      "txid": "3fc22a52aeafa69e35d566036bc5b27fd532705035926e548b0ac5192d96ca58",
      "vout": 1,
      "scriptSig": {
        "asm": "",
        "hex": ""
      },
      "txinwitness": [
        "458d833d443b5d3b3a57e0ad0e089ab4812fc9fb81c6ccf21d430a336d05245f05673bdfbdac2c9f5d0c8dd7ccef83dc886473778b39e8a84e038824ed67fb5236b726138e12873c36c3e456ab72f6b81c7115d7cb1140f3393b77aa1f99a8cd3e6fa8fd410fb55e1d01196436410cebc4ec2a2d3c7f002ff14cbc432b93dbdfcaf124dd40c2e81c80b8d030e58cf5e1dc67e932be4159a5e47295a7f063f07e743738b8b4b149ddbf0f3bad8c5c7e521520d17eb715f67e865d0e5bf0fad9602414248268e1a8fa2b9fd8f3d47dc64bb492d45bcc7ba0eac4fffe16a2ca4bde4078ea6268aca4fd595ff43303154f490b2da6b8018a5198521740ff69eb05b7a98aa34479563319bf3187a557aca8845d2835bca6be2763961c07492f778bc643e8271a3e5d519f3106e755ce8dc538ab2b9ef378c56a3aad0b640b521d70e28e4249d6c4e28187f14a195c9a6bce6e1614cef802ca61cba6b28b5302ebcb769a2375034233af0533355cf8e1e115e4c2af29e4532211e481f6bdc2985e8d243f4ce5515afce75c170730177bd43ae9b290c3b0f34ed95a6f828a892ffeeda71f00f951ca25869de157290631c553f2fd1afe1c54f7bb1b67b14c6aab86a756188f18653d26b089f418c512b17eac96b3e9f878061f06086b5476218ba704e0699339762b7259ff6d924e185b336b752f83b03855162073e22b2979091b3a312a8d4fb090deba5ff1080c9df94ba4bbad36bdcc5a0b358cc0a1249039a864ad067a90d4855abae70c782ff172897cf43f70f1618623107ddbc3f7572d065aa24c23430b31b93aba795700e35242041083bb3ebfc039d85dbddb9be2ace2344a62e02c55da52d858bf48b04175f1801cdbc0a4fc416744ef1b29a865ebbb60ccae21f86eafa950fa8be200bdbffc0eeec411d4b344dd36317b4ef1affdc3c0d54aef9c9b21b928b9c73602304f1cd724ffa1357c56a595677e216eb14f379bb7693555dc0d7b7e9da5766ae78ca64149a817d3e35fd12f1b941453f52db136dc4c3a300ac4fbf473e09bc83c81a3629a0b70d3d187ab804b039974635c4aa1c74fd25cbfb2f50ecab76d3da1e5a00eb506d2ef163bf8635c20e5c6ef97b2f23572825cfe533d541ee4a470f220e45cb430e1410e642fb823929ab887df99458582ac4ad5603c71fe36fed531e5b05ba3d97caebfc437c50464534e711837bab9249166863dc43e3b050bed205d996fbb65e6de3f6bc68d602cfe5e55a03b35540b26686f13a79a530a343d0a33f893b544b8c6176daf76ed68a3e7117d7d18b24114b59e884f3ddfc8431cc4aa5f2dadf88cafd085f34458c0823e933ebac159acd72c7f86efa66fede5da5d39ba3b3a3cc8ec8304b5604eaabc557dfc588ae24d742af22e37ed9cf8f46c27aade17c4c9c8f77bba57515c2d85c8f295084a2aa0fd138f265e88a2872694c530f64fc92c61c4bb1635cde455676f09612306be66d491fa0bf99de9db3a94aa42b966ba3e617a452f8dda35d82356073ae858b77698e70062834f513f7ba179fc1a2f7ffe70a703c061fc541c0ac78bb29de81db64c9c9bf9d9553cfd0124b7bcdccd9ec2a48b390206c1ff60ad13aa4f58e61a0b71b724e945eb9b6b3a15ce6cbbf183e7ff4e449096202918b56dc6cc65b242ee4c852af05ab8a72e09244082c644da281729c302b48b60f407548aacc40c27c2e51c7600ac6a470c37bcc144b0916407ff35f860a6b5c24fafcf9a7b3beca7bdaa964b515f96797bd6804c8cd5c4c4d93d47a36ef9089c65529c61ae5fcfc7fdd0401f1f3a07cd8ebd80d8923c7f4f67f24b457c021a5cd68781ad8d993027698b97c70e4bcc399c79d83a40898897dd802f799a2d6e6707365c469208194aa846a58145597847b0663c0c724a19656b38ed573b317e70d12e879bc85a28d27507c02a4c48cbb92c81772c68f0d87c8cceb3951f70e365ed07ccc30c65b5911654f142d4d5599ca552056577c268d5eeb4142aec08e012e34562bb1ddd9c9ba791992371f7233a24abc662a55a92f94b76594b4da6a462e94a2cad69e8a84a4b3f751da1e05e9efdc35934c3010fa8d2e37396ccc1065e3d7e06809ed61fdfbac771f81a366ff6aba0c152a509120b5a6b3c084f12043714aba6ebb4f1ca636e74b176d739ff68c17eb56c623121cda9bffe4758864c8fafed28d4d0ad4ca435b51d3229ef7888ed23daf82c746fa7acce0c596ed20eebfdf0b8dc956ee557a993ad872f469f023fd9c5457a78f69d794457b72a3db6b7756e9e0c2e0aa328a05eaddc874b6db82980b48a3622b7be0b5430e199e6aa500c0ddbec840df1b9f25817093357e9e6d36094a284648fb4035d4d36a8c4a1da1231d6dceb20e2fa12fb0f629b427f19c127934306050996ddc8fd91278d7c0182343080242963b172e437f5e063b1fb46c143b98b49d83ea7c4694c627253a44efb4dfcdf644724c82dbbda42678bd08f0d8be837fd474cebdd05ac68114bb99b7fb770ba44a3e1e0d1240f3fca4b5e0e1d27d2356a895ad94652c36edab7befda48358cbca2ba38c0fbd3f22c8bd905793e60ca62b6281e7abbf2677c45868b7dd72ee97018d7544a7c7a1745ef6a1939672cad8b30d04bc397f350bebc710f2d89ea0b50abe49c635bca7aa96bd39e7862e886ad2c632faafb0750ef12961440bf958cd519670dae9460b1b51e11781a9215a800600d386a9607ddc5fd1c23099c654bfee9b0dc29f9a0959747fb1babd0dff345f9c5f75f3c4c0906ceefd1a20b5d23f87117256ef0deafe9b7cc1a06c6ceba01ec6ba113841e42e4a298ab6183b0e3da6a0c470c2c3acec50225ff595d398e731f1b44e213271b4ca94c74a2939f1e832a93ceca4c36dbba72eb7b138ed914ef97d9dbd72c78299059ea73ed1fdff6cfb450c0bf9d7f355bd43437f1dd5cd235fb30c85077f81c0a7824c912e3a1e533a6c7d316e0b49e74c82cf9e13873c23e22bbb498a19f145386d4cd97ad2347b397bc77e3056b5e1774e93adbbdb1d7729cde6c4e66d30894c7672b29937365aa714dd323388d46d57989bb7068a1720ce573bcc8355cb9e7baceaabfc5a3b28b317604a5cd3a83d256792bd6f818378044f9e96c020caa2f227f150b550b9ca36f24491e227a3f14e68bc1effa87f2bed34e90570710c5163581e913d025006f17993caaa8985e2da6a6380155259537d792d6f8ea95896e9b8898d24e61424f165642db81bb2d158ecca45d5a312eecf631e8e014e116d5ff21fdad6db4e87ae2e9102090e18202f326376939aabcfd3dee1f905071b1c20234b575b5c7f9d9fa3b2b3dee7ecf1f3f5fafc0d11121b34454a4e5657595d5e689cd9dcf0f71b23292c43454b8398a1a5c1d6e700000000000011293c4a01",
        "00ceca1241abdf7a7e7e7b7871696d531a0054502ec75b41ae0f7d58921a7dbfa632c598dee19bc6b4bee759cd747fb4c3c08c44bb9136e9b7a6e7471a2ea40b6f2ae60ac776e9c240a0ab2c71de4c3892bc3cdc2afc6aaf621d79f18e322367b9c8b7b014950b877a126b563d471e4b469cfe413c70887d08797a2c19b1f8124d685750b8d0f88aefd2c25b2973a2316ebe2acb222398a985563a482482294cf71f5f951ff6846e13c00dc723d14e516a22145c0795ee255fbf8f75debe0869a48ec1180a689b5f7e5ede63ecea33c6aa26de45385f82ccb9a6bab7797ca4d4adc4249d3cb21b55bd15dc32c5c0e5666ab0dfa2703b229a125cb28ba72cc3231a1d255b517cd07f5cbb70f88a9a40d065c3ad4ca57a5c3c0f46429a1023a1ce53768134ee4d8fd55e8b93e7ed4f1e731dd852f16726330b8d5bfe543449e32d52a6d21b19d7f35f02fe13478a0bba318ff1625be7470063733bba5857c5c82c6bc9cdfe03391932cc04c31bac6bc325f0c6821ad4013b74b5520ab9423b44d1e00c564abdac09e3fcd3eaee34f6565a60199b2b6ca2d20f87088a0fe37fddc8acf3ea8420f50e6e0a62324dccdbb091a03027372d1dd2424cd47ffbb531c85754c821563b3a10f1e780e04db26d3ae9b52ccfc1ca93847b7ade485db8625590ee7aef03b23031370efbfe6aef7cc7de32a63b16d82772cae73d4395799516e0f8c6f74f69c1b15c24a894b035a4f0cc338d65f249e8e2b8b4c6f2ac15bbf246e75cf600fc0b72ce1b5fdd2fd86d1032f9fe192c6f7401e90efa9f225e04d0a25934d8da07a3e5262e48f08cd81cfd2e56c9032e5004d6ad1f77943000f7a0349b2d2a094d02fd7cfd4eafbad78599b0e5612424cb521a860b61743fa6225b8f44b63e2c81709314615a95dcb4a54e443155b7d8803cf291a0c4d8ed2d9ee5ba4a7e7c2300d7e6fc03903ef5139cbf536328e941328f53d55f516fffaf503405dd0f033038441d69b719821fc5b473098194f11efe76edccd7888809e72ba6b096d6d981205c7836c95543c737fbf04f876f2cf8111440725f001384dbc93a3e44ac5418816fc4cdcee3424eefeb13b1fac95ba882d85ba89f51bcbfaa6963ce9ec72096f4f4926de404878600ade10019c219bd8498630249e15530cac9f8df630828111eb47fec2cc0b9b94e2a7a4956c026aad940896e45e482b59ff052c0fdcbd0437ab81fda0bfffffcfd04bcaf5ce7690cfd13dc471ac74b777dbc864b9c39219ee8f2a20b3ddbd453ce5be3c75abf4bc0ee9e91574e213e6d0f7fd645c1f40cfa2e7551a282ac220c192a1afa09c741d3905ced2a1e1206099fecadef11f9f805943189aed13f9d4bf28fb51318a796a678f339bd73e8752dc5fc64b3cac995a54808a23aa35edd3e7e71d7bb524228ce184d7e440489ff657c18572bc1cd8d74c2bc643a7a0c90b71916d018f2a567a9ab30343f49159fffec7294034f88ddd29589cf2a2838cd464394744931e89ae7626e012a14b7b6d3301caef9896bfe17949d38c3708e529329f28d5315cd90c54612426b35931d1fb0e3b66a5add9576fe47617998ba79cd11b658c9f913450db316eee6e77eff06dc20dee42ccf8f55e18a96f97a9b4bcce7265dbaba726aaae9e0e14100d1abc6d7118338861bcfc1a1ddb9a0e6601d1df3bfb4e8d859a1b1aad3a84e4f454b2aff5bb07774376ad7c500138ac4a81be0916311ead975e84b81ee7f10d1b136334baa9d77e56734bdd1bc698fa8a7c23db32fd424a3d8fe2aaa652897b6d2ab6c2b7b99cf14ca48a1c414ab2dda991705c571b3daa4b5a57549d2a7e1884407069736543ab8"
      ],
      "sequence": 4294967294
    }
  ],
  "vout": [
    {
      "value": 499988.8141,
      "n": 0,
      "scriptPubKey": {
        "asm": "1 9993f9d2acc5f833685560a05fee5a095eca3a9096f8e0f6ff08d8944cf7c779",
        "hex": "51209993f9d2acc5f833685560a05fee5a095eca3a9096f8e0f6ff08d8944cf7c779",
        "reqSigs": 1,
        "type": "witness_v1_scripthash",
        "addresses": [
          "3QJmnh"
        ]
      }
    },
    {
      "value": 1.0,
      "n": 1,
      "scriptPubKey": {
        "asm": "OP_RETURN 87f0f412fb1caed69e06a09592b96fb31aa90727851ef2518f26ea6627f964b2 2c9688783248c0cf7e8b860b12fa842f2bc09e5adad3f761f85bab83ebdbf8500cb6a8581268e0ef5eaba62b32daa40f0be0be7afaf3d741d87b8ba3cbfbd8706cd6c8387208808f3ecbc64b52bac46f6b80de1a9a93b721b81bebc3ab9bb8104cf6e8185228a0af1eebe66b729ae44f4ba0fe3abab39701983bcbe38bbb9830ac1608f8b2c8404ffe0b068b927a04afab401eda5a5377e178db2b036b5b78d08c3628d892e8606fde2b26abb25a248f8b603efa7a7357c158fb0b234b7b58f0ec5648b8f288000fbe4b46cbd23a44efeb005e9a1a1337a1389b6b432b1b3890cc766898d2a8202f9e6b66ebf21a64cfcb207eba3a33178118bb4b630b3b18b02c9688783248c0cf7e8b860b12fa842f2bc09e5adad3f761f85bab83ebdbf8500cb6a8581268e0ef5eaba62b32daa40f0be0be7afaf3d741d87b8ba3cbfbd8706cd6c8387208808f3ecbc64b52bac46f6b80de1a9a93b721b81bebc3ab9bb8104cf6e8185228a0af1eebe66b729ae44f4ba0fe3abab39701983bcbe38bbb9830ac1608f8b2c8404ffe0b068b927a04afab401eda5a5377e178db2b036b5b78d08c3628d892e8606fde2b26abb25a248f8b603efa7a7357c158fb0b234b7b58f0ec5648b8f288000fbe4b46cbd23a44efeb005e9a1a1337a1389b6b432b1b3890cc766898d2a8202f9e6b66ebf21a64cfcb207eba3a33178118bb4b630b3b18b02c9688783248c0cf7e8b860b12fa842f2bc09e5adad3f761f85bab83ebdbf8500cb6a8581268e0ef5eaba62b32daa40f0be0be7afaf3d741d87b8ba3cbfbd8706cd6c8387208808f3ecbc64b52bac46f6b80de1a9a93b721b81bebc3ab9bb8104cf6e8185228a0af1eebe66b729ae44f4ba0fe3abab39701983bcbe38bbb9830ac1608f8b2c8404ffe0b068b927a04afab401eda5a5377e178db2b036b5b78d08c3628d892e8606fde2b26abb25a248f8b603efa7a7357c158fb0b234b7b58f0ec5648b8f288000fbe4b46cbd23a44efeb005e9a1a1337a1389b6b432b1b3890cc766898d2a8202f9e6b66ebf21a64cfcb207eba3a33178118bb4b630b3b18b02c9688783248c0cf7e8b860b12fa842f2bc09e5adad3f761f85bab83ebdbf8500cb6a8581268e0ef5eaba62b32daa40f0be0be7afaf3d741d87b8ba3cbfbd8706cd6c8387208808f3ecbc64b52bac46f6b80de1a9a93b721b81bebc3ab9bb8104cf6e8185228a0af1eebe66b729ae44f4ba0fe3abab39701983bcbe38bbb9830ac1608f8b2c8404ffe0b068b927a04afab401eda5a5377e178db2b036b5b78d08c3628d892e8606fde2b26abb25a248f8b603efa7a7357c158fb0b234b7b58f0ec5648b8f288000fbe4b46cbd23a44efeb005e9a1a1337a1389b6b432b1b3890cc766898d2a8202f9e6b66ebf21a64cfcb207eba3a33178118bb4b630b3b18b02c9688783248c0cf7e8b860b12fa842f2bc09e5adad3f761f85bab83ebdbf8500cb6a8581268e0ef5eaba62b32daa40f0be0be7afaf3d741d87b8ba3cbfbd8706cd6c8387208808f3ecbc64b52bac46f6b80de1a9a93b721b81bebc3ab9bb8104cf6e8185228a0af1eebe66b729ae44f4ba0fe3abab39701983bcbe38bbb9830ac1608f8b2c8404ffe0b068b927a04afeced942038298231eb3051d4b1f8744c4f0f15714407c24fa94876975f6fb539",
        "hex": "6a2087f0f412fb1caed69e06a09592b96fb31aa90727851ef2518f26ea6627f964b24db0042c9688783248c0cf7e8b860b12fa842f2bc09e5adad3f761f85bab83ebdbf8500cb6a8581268e0ef5eaba62b32daa40f0be0be7afaf3d741d87b8ba3cbfbd8706cd6c8387208808f3ecbc64b52bac46f6b80de1a9a93b721b81bebc3ab9bb8104cf6e8185228a0af1eebe66b729ae44f4ba0fe3abab39701983bcbe38bbb9830ac1608f8b2c8404ffe0b068b927a04afab401eda5a5377e178db2b036b5b78d08c3628d892e8606fde2b26abb25a248f8b603efa7a7357c158fb0b234b7b58f0ec5648b8f288000fbe4b46cbd23a44efeb005e9a1a1337a1389b6b432b1b3890cc766898d2a8202f9e6b66ebf21a64cfcb207eba3a33178118bb4b630b3b18b02c9688783248c0cf7e8b860b12fa842f2bc09e5adad3f761f85bab83ebdbf8500cb6a8581268e0ef5eaba62b32daa40f0be0be7afaf3d741d87b8ba3cbfbd8706cd6c8387208808f3ecbc64b52bac46f6b80de1a9a93b721b81bebc3ab9bb8104cf6e8185228a0af1eebe66b729ae44f4ba0fe3abab39701983bcbe38bbb9830ac1608f8b2c8404ffe0b068b927a04afab401eda5a5377e178db2b036b5b78d08c3628d892e8606fde2b26abb25a248f8b603efa7a7357c158fb0b234b7b58f0ec5648b8f288000fbe4b46cbd23a44efeb005e9a1a1337a1389b6b432b1b3890cc766898d2a8202f9e6b66ebf21a64cfcb207eba3a33178118bb4b630b3b18b02c9688783248c0cf7e8b860b12fa842f2bc09e5adad3f761f85bab83ebdbf8500cb6a8581268e0ef5eaba62b32daa40f0be0be7afaf3d741d87b8ba3cbfbd8706cd6c8387208808f3ecbc64b52bac46f6b80de1a9a93b721b81bebc3ab9bb8104cf6e8185228a0af1eebe66b729ae44f4ba0fe3abab39701983bcbe38bbb9830ac1608f8b2c8404ffe0b068b927a04afab401eda5a5377e178db2b036b5b78d08c3628d892e8606fde2b26abb25a248f8b603efa7a7357c158fb0b234b7b58f0ec5648b8f288000fbe4b46cbd23a44efeb005e9a1a1337a1389b6b432b1b3890cc766898d2a8202f9e6b66ebf21a64cfcb207eba3a33178118bb4b630b3b18b02c9688783248c0cf7e8b860b12fa842f2bc09e5adad3f761f85bab83ebdbf8500cb6a8581268e0ef5eaba62b32daa40f0be0be7afaf3d741d87b8ba3cbfbd8706cd6c8387208808f3ecbc64b52bac46f6b80de1a9a93b721b81bebc3ab9bb8104cf6e8185228a0af1eebe66b729ae44f4ba0fe3abab39701983bcbe38bbb9830ac1608f8b2c8404ffe0b068b927a04afab401eda5a5377e178db2b036b5b78d08c3628d892e8606fde2b26abb25a248f8b603efa7a7357c158fb0b234b7b58f0ec5648b8f288000fbe4b46cbd23a44efeb005e9a1a1337a1389b6b432b1b3890cc766898d2a8202f9e6b66ebf21a64cfcb207eba3a33178118bb4b630b3b18b02c9688783248c0cf7e8b860b12fa842f2bc09e5adad3f761f85bab83ebdbf8500cb6a8581268e0ef5eaba62b32daa40f0be0be7afaf3d741d87b8ba3cbfbd8706cd6c8387208808f3ecbc64b52bac46f6b80de1a9a93b721b81bebc3ab9bb8104cf6e8185228a0af1eebe66b729ae44f4ba0fe3abab39701983bcbe38bbb9830ac1608f8b2c8404ffe0b068b927a04afeced942038298231eb3051d4b1f8744c4f0f15714407c24fa94876975f6fb539",
        "type": "nulldata"
      }
    }
  ],
  "blockhash": "d7a7b9a6fa9b7eeca4ed3b292cd4c21f070551bfab2aaeca0619c41458c07723",
  "confirmations": 1,
  "time": 1764178593,
  "blocktime": 1764178593
}