{
  "hex": "01000000000101e1bc1ce0b8bb17f1d35ce045e930419b93f1fd19bee96bb1ced382aac6cbf1fa0100000000feffffff0200e1f50500000000fdd5046a20ede33e9c3fbc8d5c00fc2eae48528391073e1cff561dad71817144b93b0c75374db0049d7c9d71849327983194061333505dbf9e6e6f0becadcdfe37b18946762a0f41bd5cbd51a4b307b811b4263313707d9fbe4e4f2bcc8dedde1791a966560a2f61dd3cdd31c4d367d871d4465373101dffde2e2f4baced8dbe77f1c906366a4f01fd1cfd11e4f347f851f4667353303ddffe0e0f6b8ccdad9e57d1e926164a6f211dfc1df10413a718b1148693b3d0dd3f1eeeef8b6c2d4d7eb73109c6f6aa8fc13ddc3dd1243387389134a6b393f0fd1f3ececfab4c0d6d5e971129e6d68aafe15dbc5db14453e758f154c6d3f3909d7f5eaeafcb2c6d0d3ef7714986b6eacf817d9c7d916473c778d174e6f3d3b0bd5f7e8e8feb0c4d2d1ed75169a696caefa19d7c9d71849327983194061333505dbf9e6e6f0becadcdfe37b18946762a0f41bd5cbd51a4b307b811b4263313707d9fbe4e4f2bcc8dedde1791a966560a2f61dd3cdd31c4d367d871d4465373101dffde2e2f4baced8dbe77f1c906366a4f01fd1cfd11e4f347f851f4667353303ddffe0e0f6b8ccdad9e57d1e926164a6f211dfc1df10413a718b1148693b3d0dd3f1eeeef8b6c2d4d7eb73109c6f6aa8fc13ddc3dd1243387389134a6b393f0fd1f3ececfab4c0d6d5e971129e6d68aafe15dbc5db14453e758f154c6d3f3909d7f5eaeafcb2c6d0d3ef7714986b6eacf817d9c7d916473c778d174e6f3d3b0bd5f7e8e8feb0c4d2d1ed75169a696caefa19d7c9d71849327983194061333505dbf9e6e6f0becadcdfe37b18946762a0f41bd5cbd51a4b307b811b4263313707d9fbe4e4f2bcc8dedde1791a966560a2f61dd3cdd31c4d367d871d4465373101dffde2e2f4baced8dbe77f1c906366a4f01fd1cfd11e4f347f851f4667353303ddffe0e0f6b8ccdad9e57d1e926164a6f211dfc1df10413a718b1148693b3d0dd3f1eeeef8b6c2d4d7eb73109c6f6aa8fc13ddc3dd1243387389134a6b393f0fd1f3ececfab4c0d6d5e971129e6d68aafe15dbc5db14453e758f154c6d3f3909d7f5eaeafcb2c6d0d3ef7714986b6eacf817d9c7d916473c778d174e6f3d3b0bd5f7e8e8feb0c4d2d1ed75169a696caefa19d7c9d71849327983194061333505dbf9e6e6f0becadcdfe37b18946762a0f41bd5cbd51a4b307b811b4263313707d9fbe4e4f2bcc8dedde1791a966560a2f61dd3cdd31c4d367d871d4465373101dffde2e2f4baced8dbe77f1c906366a4f01fd1cfd11e4f347f851f4667353303ddffe0e0f6b8ccdad9e57d1e926164a6f211dfc1df10413a718b1148693b3d0dd3f1eeeef8b6c2d4d7eb73109c6f6aa8fc13ddc3dd1243387389134a6b393f0fd1f3ececfab4c0d6d5e971129e6d68aafe15dbc5db14453e758f154c6d3f3909d7f5eaeafcb2c6d0d3ef7714986b6eacf817d9c7d916473c778d174e6f3d3b0bd5f7e8e8feb0c4d2d1ed75169a696caefa19d7c9d71849327983194061333505dbf9e6e6f0becadcdfe37b18946762a0f41bd5cbd51a4b307b811b4263313707d9fbe4e4f2bcc8dedde1791a966560a2f61dd3cdd31c4d367d871d4465373101dffde2e2f4baced8dbe77f1c906366a4f01fd1cfd11e4f347f851f4667353303ddffe0e0f6b8ccdad9e57d1e926164a6f211dfc1df10413a718b1148693b3d0dd3f2940357c906af59b906b2ca4168b560ffa7c75ea7958c08008102f7ec7008706f020b051792d000022512024212baa7fd5bb66161917074c9961bcb509876f78ea7239889123f480e3256102fd75090e56a70cf456874711491ec3f777378f4d775e403c50e74fc6e5c46991f059e44c07ab282efefade3c2e29795a8bda8dd3fe1754bb088142c094a88ce7ef9d4f41e2c98b0237629b5721708b49005b60de317d6d1755bd6f65cccece183c6f82d9cb4afa0928b91c097055eaa6fffd6f137f4be3efbc1daab9d9659da0138914d6420f08a83a68c416a49e3bc9a2dda6e31edb402f125105c1f914dcc723dae08ed8a6c6bbc8d70a0a2d2b093fd7e5bf92702f6b01496306d565f6e124e31750d2777b8d20e73d4cf12462f0d49cdbb1d4ebe394ae3a86736f5a42e5752452f56f13fa1bf3026e4a93db84a57c9d7ef72aded44ec1fb298a48beb93e04afd0766f4cee140ecb68eecd000b21fa3629e4d9cf7c9d3b2846bd90be2390ebb33e72979885534519a1d5897f7db47ad4aed6b196ac6f9ac4ef597f2a5df5d1a9a9c920abb3a54999237cf19f17e31371afac328e1f3b57b1f5d49c07e17cd7313a965a7b0b7285a6d685ce2a6d66e6bcece56842b309cf10a69270a04060f63f676613f7ebc6ae89bed26aac9a18923bc30e476b699a2e52fdc52242fb20a42a31ce36e7585c1b47fbb94ab96e8a1b3f6b88280a39345ab50284c4c5fa4a5271dfe96322fd47652aceaf6614123e3137b36f4f1b51f121830a2129e87a1f02964dfb9c5591d323c8cc67e57f44a35f49b6a54069edcaf0f58a432b71ae06eb41e1771a62a1a2f7429e7c7a7742b531a6f9667810b6149fc301a335c32030a3a4aa0b432cfbe4569f77d565194c3c3cfdf664c1b55d8aac50c12d720302bc8ea61bca5aa94cc5578f7429fb76035de96189a1deca3fa40cdc1e17f2c07c278ba70956e1299aee64bf36ec4cde1a4ce2a98f4fc2c0625107454a3eb4544e9568cad924220e17c7e6611b38819664d6466cca1ad7007be2ea9114cfc0770b38a3442858352cafcb2ab837ccc13d454753e14f72084750262d75c5e64cd11e6517180ba802406753a6a41ca03ec7dbdc03d2fe2196765415777418abac1a6c1400f4d07eb72c4ee9bde890ee57efa64d70b21fab4587cae6d27055d602adcbfdfa6dbf455b5dd21b4647e29a1128acb42d9ca34d3dae1541199bb2cae1d45b485a1e6268c6a1cb365a979a57b535b2012c1c6d52aaf0e70d32d24ae7feea8b317cf430b81d7e832d637aceeeb583d6658d1ec957e50c2b536796a8237c99f9558022422151fa3ff79da4759ddefd77ba3a79b1e0dc4c4118f0cd5e07ac4a9c3af17eb5f7645dae0e746998b47fa3acce19a8273f412a9ad396db66646679e613f561e95acb148d45cb00222cb013c7c2c9b4c2fb537f9328e051c53a3ced34ade89d3c1d4d55c959d6db9903406045c137b8a0ccb1f1cb3d2594a241f24f532c12f0ff0c7989e82c169a6834a703e7983f3842de140a73bb2acd00db8a566f1f9170e64185bd61520f7042c33fb7ea11d97358b49ae7dc4426e821edc9063fa272aeca9e686454ce89ebb07761d67390b26baba71602a714faee33592b9f3b2ac73f40009994d49fbd7fe1ab1f30859fb0cd9f88c273515953f064796b566cc1cd3b3dfdae2c8a1624295ba1478b7a4f4872765aa7d271be798050d2a61c67fd2b1901e95ee09a66a919210df0f548ab3815c593ec8bcaa001e2cb5a764ae06642f079aedd35d86a994d57e11ae2a3ac91996656062ab4c65e962ca4f87250c7408ce55c04352c93c0a1a767bb25018b6b1f5d549c0369bf367cc0791e44a60ee85aabad357d80ec5ac5005d708d4489dd48a131e851fe60df5c5bbdfe7ed1d46db37fd22e176e3387da442c12d6a50c2a010271808a133d0b6d2ae7512bdb8c47cd4e4fd3a6667aa643b6a8b21a33cdd55c3bda6128e07c654155d20d72fecbca750ef2e204780dd007e3f270a8954ef9c79589151775683f86e17c4dcb6eb70211973df3425098c061ddd92b0be2ac7658f565b5d2a3fef8eb3e41ee5ffe2c1bd71a85ad31a1688a993e00b2b66755638e88cf6eef199f9166cad70244ca3073562a1bf8dcf63316393445f511ac5acf863bc8ba17a25bbac62ecff6bee2c1962109108c652c65af379a0056f765cb221efc5e904409afa1dce138362bd1f35e550e8d9e181e456d9e227c16720134309b2d76141bab59f4c0fef9847a2214fe8a139146655452e5ac5145075e7c1d750c21b4fdeb887f8b4d173843b7b55b10439b9d56cd1c084138d33759be5d6d9d393dd6965e74802915e6482a6eb920aa74c857a8f0611f0e07f3749e5864af8e51a791eef8e892a0a96aa824d3bfb588e841e6fd0113da3c8ac8a7c8a1065494c22bc4aed38a146bf46194c5b8aa68565692023862a770e7348764253960bfb4fc058e041bd8022c1ae1e776b16900f4279d7acc6ecfa16ff0e11a77846b718cd170616529587fb5fa5c2acb22ad690583e8a14d35b180a8928cd8be5628a5d8e829f88dd410c5bfa048c7708035e2de43e15c44a43af578ccda1f3cd6c07d43697fcc5f4be84435b2056ba3a39056c8e90ad0c589e8de74e1d97501bfc955583e6cf817d7443ee6d4629efc029fa1119ab57d39af2c64ac42a0527d554b68becafd6be9e4e69e48662230a42b6489ae3594a3988288be6822e8f4de5658bea092d01e6804af1d95a523205d5f4f111d021ef789e2853297675634b1ea0ba143cbc85a74fb1f91078696a403668dd0cc860374fc80d13d2f909e93bf3d48fd4421835fa0538d5b54a293228a7c8cf99c2bf792d2d0ec7c623105399fb701092fd99917b26b4f520bb56f224690e58c6da23fe2697de44073b680c9615f04e7cf920d936fc1411ee697a940423db108389bf8566eba68c96bc27403a29fc3644104a654ba566352ba845359cf7b3ed9224f667bc4e4b8fcbd4ded69d48723771056daa5ac3f1a55c5f724a2b900783bd22d19b4758c4441fa8586bac091d204535ba8eb5b8864f087a2d9662861557637d8cf612ef6fde5450b7ba48003f1c321dd1e1820157c998d0daa920a1d4024513102dad57b91c4b6b1571cff2ca94904c84624a7221cdcfb30f91e6007ec88864cf5421afb85a77cacf96e73526faa0d9e3d53a56fee4ac81c81cb0f3eeda5567bc658c561b6e355610f23e39af433d701fea2d6be595a41fd6b118b20a124abf26e1c65a0d011aaa563b2b79cb9a6016ac227f4340286177ebd5debe143bd1ea5c08ea88f545181381bc6dd07ddf05edc24815cd3140f56510d4276004e5a28188141a55591806ed44f51c03178a52eaa0dfeae910ac6068e38d7e256f03cf994b77d14254f55565f6e819ea4c4dcdeeb33364057666f757d8b8d9cb6babbd5e0e1e4e6ef112534384a4c536168aeafb1b2b3b9cbcdcfd8dce9f802071c2a384548a6a9bbc5e70000000000000000000000000e22384401fd210500bb298dc17a9f2a08604e0797f30e17b0f95841e3d58690f24eca7c8c7b17b34beb973bf44816ee105c377a29b79d5a0c991ea04a504404676d0c834fcdfa79464d03d15a8f4edfe8fda0b8a818cb73bb1fc37c29993a2079feda75e19f46a81f5b3276b03fa626a099dd6128f1f405e71a57aeaa5e08307e8b57769516ed339926883c2cc6de671c401db49e44720974f983d2615b5b7023f6410d3732617db8d71ab239c6333fe61bc31510575a23dca69f2684d4f24c916696c7bd9bdc5ede68cc8fec5072883a738950f620b110e2d48e670ee8c90a38a04a635093cad2d145ec27049bbba162d19d9e4e8fa6e1e8471cf5c9dc1a23e763eba6faae0fd139538fab9cf3934a7c538e9c17394ea0d365aac16f8710afbfc0a2269016394ec94c1eab777c0c23359f414287c24f43ab67d435fda3d353248e5d21abfd44e227043d0b85d1636cb28c13306848f6ca39813626bd97e3c77ffba470584ecc3730628e97701dbc4d604f58344aeaec9c3c272fae696bcc443f1f36bd8dd8183312957e9ec9e7812b6e52b3bfd88fa6e3efc1f8f54086041ebda96aca3f535d4b093a84c9aeee4ef9cafa23575f73b7bb45b4baaf27dc11daaced5fb73211493fb03701435d7701bef01b18861954ccbfb2befcdf59cb169ff171c1b1bf3741e96164dfd5f5179af2959f2323e8b502466aefeb3541f5401ddd1c299c39e7ecc147c6dfe7e3e79f65b64de8793428251c97f62558b797c5d29086ec3699696e66cdf5634927175ab2fa1b2adb167e17d11b4b37c17e2aee7668d367b4ef14448b7f60d5b98c5a44abe4a1165fb7da6baeab9f05bd7c062bf2df3044cf39779f2c687d8a48ae598975ddfce615756df1ad95bede6bdfb34efb1405a05cf99930e2eb02b1e04e36dbde9bec9a28fedfde72bd832c9e9154f51311e4b235c994494020d515a1ed806aa7e1044c71fccae9c4d5f06989a1f9fb55d1216699db4eabd81f43c1d99b67c05d381fc910f563052b9af2ed68dc1c69d661363212911cb34cd6f51ac2a7021a850e65ae0400db0cb1c1c36a0daab96bad1a9efd54f2c4494851e7fe235bc564c0a6f927387bea3916347a2cf05e92a33c3887cfc4a2966b82ba4f32c7dc282bf33bc0727af94f21d8f62b5ba236aafc3bba5516858a2a8828b9ea99cf997b116a40d956a4450c765d1cc93bdc87a821c2f34ca33552feb43f8c79966b0d159e0cb85bcf883136311f49dc76f90e61a903186596fc2d2c245f6ba41756bad060f32958f509c24edfe2f1898a9f03f6c1fde8004052b4518e4338f72a138f2faa852c3f7e26607ca8c6ebbeefc3df19cf08367c80926059f862fe6b5f8480b20e4b2b4586eb2b8f1a9fcc6bd4955cf0c82a1ce681fac8a9f96e9c28a28725a9015708e0cc3b2a759cceb387a05e73c33414d311d573957b096a279318a4ac9e206846a20e2468933a8859c05663f05450810b09ad6904ea75b799e010b2e6cdf9f61ce95f175688f4b1ce6d903c5030aad93dd1bc3dddb954fb3bafe829bb74aae5fcaae8c98fc53e83cf6b254d3d45bc7d08a4f7bb849e355b2c7da53e5e05cd6759c6f9989dbfa75d0b26fabfdfda35e500b673d0f01a208bb20535d36bae3a6c842703a1e40d849b1021bde9673df2e145827fb335663bff655203e33667b4ad7aed91d254efc63c3cdba152ee1b6188baa609d80105766aa0fc333180b0d5280c4a9f1703b996314539aec07fc2a7dc6b15fe97b75b7b77da43538dc99e101f3d6d63352e0a2c2f312ec7528921925a37bc46aea7912a0082a37e841946d5d73d59e76dbc0b205379da6477cd642ea9b22d186732b63b068a6b000000",
  "txid": "8c6aa4ecfe101bac5e0451bdc2693547a2d7849711950960369e1623d4fa3ac0",
  "hash": "a59f27c347836742f3731604c217a227c011653bf9df6ceaf754657f6dae8802",
  "size": 5085,
  "vsize": 2278,
  "version": 1,
  "locktime": 107,
  "vin": [
    {
      "txid": "faf1cbc6aa82d3ceb16be9be19fdf1939b4130e945e05cd3f117bbb8e01cbce1",
      "vout": 1,
      "scriptSig": {
        "asm": "",
        "hex": ""
      },
      "txinwitness": [
        "0e56a70cf456874711491ec3f777378f4d775e403c50e74fc6e5c46991f059e44c07ab282efefade3c2e29795a8bda8dd3fe1754bb088142c094a88ce7ef9d4f41e2c98b0237629b5721708b49005b60de317d6d1755bd6f65cccece183c6f82d9cb4afa0928b91c097055eaa6fffd6f137f4be3efbc1daab9d9659da0138914d6420f08a83a68c416a49e3bc9a2dda6e31edb402f125105c1f914dcc723dae08ed8a6c6bbc8d70a0a2d2b093fd7e5bf92702f6b01496306d565f6e124e31750d2777b8d20e73d4cf12462f0d49cdbb1d4ebe394ae3a86736f5a42e5752452f56f13fa1bf3026e4a93db84a57c9d7ef72aded44ec1fb298a48beb93e04afd0766f4cee140ecb68eecd000b21fa3629e4d9cf7c9d3b2846bd90be2390ebb33e72979885534519a1d5897f7db47ad4aed6b196ac6f9ac4ef597f2a5df5d1a9a9c920abb3a54999237cf19f17e31371afac328e1f3b57b1f5d49c07e17cd7313a965a7b0b7285a6d685ce2a6d66e6bcece56842b309cf10a69270a04060f63f676613f7ebc6ae89bed26aac9a18923bc30e476b699a2e52fdc52242fb20a42a31ce36e7585c1b47fbb94ab96e8a1b3f6b88280a39345ab50284c4c5fa4a5271dfe96322fd47652aceaf6614123e3137b36f4f1b51f121830a2129e87a1f02964dfb9c5591d323c8cc67e57f44a35f49b6a54069edcaf0f58a432b71ae06eb41e1771a62a1a2f7429e7c7a7742b531a6f9667810b6149fc301a335c32030a3a4aa0b432cfbe4569f77d565194c3c3cfdf664c1b55d8aac50c12d720302bc8ea61bca5aa94cc5578f7429fb76035de96189a1deca3fa40cdc1e17f2c07c278ba70956e1299aee64bf36ec4cde1a4ce2a98f4fc2c0625107454a3eb4544e9568cad924220e17c7e6611b38819664d6466cca1ad7007be2ea9114cfc0770b38a3442858352cafcb2ab837ccc13d454753e14f72084750262d75c5e64cd11e6517180ba802406753a6a41ca03ec7dbdc03d2fe2196765415777418abac1a6c1400f4d07eb72c4ee9bde890ee57efa64d70b21fab4587cae6d27055d602adcbfdfa6dbf455b5dd21b4647e29a1128acb42d9ca34d3dae1541199bb2cae1d45b485a1e6268c6a1cb365a979a57b535b2012c1c6d52aaf0e70d32d24ae7feea8b317cf430b81d7e832d637aceeeb583d6658d1ec957e50c2b536796a8237c99f9558022422151fa3ff79da4759ddefd77ba3a79b1e0dc4c4118f0cd5e07ac4a9c3af17eb5f7645dae0e746998b47fa3acce19a8273f412a9ad396db66646679e613f561e95acb148d45cb00222cb013c7c2c9b4c2fb537f9328e051c53a3ced34ade89d3c1d4d55c959d6db9903406045c137b8a0ccb1f1cb3d2594a241f24f532c12f0ff0c7989e82c169a6834a703e7983f3842de140a73bb2acd00db8a566f1f9170e64185bd61520f7042c33fb7ea11d97358b49ae7dc4426e821edc9063fa272aeca9e686454ce89ebb07761d67390b26baba71602a714faee33592b9f3b2ac73f40009994d49fbd7fe1ab1f30859fb0cd9f88c273515953f064796b566cc1cd3b3dfdae2c8a1624295ba1478b7a4f4872765aa7d271be798050d2a61c67fd2b1901e95ee09a66a919210df0f548ab3815c593ec8bcaa001e2cb5a764ae06642f079aedd35d86a994d57e11ae2a3ac91996656062ab4c65e962ca4f87250c7408ce55c04352c93c0a1a767bb25018b6b1f5d549c0369bf367cc0791e44a60ee85aabad357d80ec5ac5005d708d4489dd48a131e851fe60df5c5bbdfe7ed1d46db37fd22e176e3387da442c12d6a50c2a010271808a133d0b6d2ae7512bdb8c47cd4e4fd3a6667aa643b6a8b21a33cdd55c3bda6128e07c654155d20d72fecbca750ef2e204780dd007e3f270a8954ef9c79589151775683f86e17c4dcb6eb70211973df3425098c061ddd92b0be2ac7658f565b5d2a3fef8eb3e41ee5ffe2c1bd71a85ad31a1688a993e00b2b66755638e88cf6eef199f9166cad70244ca3073562a1bf8dcf63316393445f511ac5acf863bc8ba17a25bbac62ecff6bee2c1962109108c652c65af379a0056f765cb221efc5e904409afa1dce138362bd1f35e550e8d9e181e456d9e227c16720134309b2d76141bab59f4c0fef9847a2214fe8a139146655452e5ac5145075e7c1d750c21b4fdeb887f8b4d173843b7b55b10439b9d56cd1c084138d33759be5d6d9d393dd6965e74802915e6482a6eb920aa74c857a8f0611f0e07f3749e5864af8e51a791eef8e892a0a96aa824d3bfb588e841e6fd0113da3c8ac8a7c8a1065494c22bc4aed38a146bf46194c5b8aa68565692023862a770e7348764253960bfb4fc058e041bd8022c1ae1e776b16900f4279d7acc6ecfa16ff0e11a77846b718cd170616529587fb5fa5c2acb22ad690583e8a14d35b180a8928cd8be5628a5d8e829f88dd410c5bfa048c7708035e2de43e15c44a43af578ccda1f3cd6c07d43697fcc5f4be84435b2056ba3a39056c8e90ad0c589e8de74e1d97501bfc955583e6cf817d7443ee6d4629efc029fa1119ab57d39af2c64ac42a0527d554b68becafd6be9e4e69e48662230a42b6489ae3594a3988288be6822e8f4de5658bea092d01e6804af1d95a523205d5f4f111d021ef789e2853297675634b1ea0ba143cbc85a74fb1f91078696a403668dd0cc860374fc80d13d2f909e93bf3d48fd4421835fa0538d5b54a293228a7c8cf99c2bf792d2d0ec7c623105399fb701092fd99917b26b4f520bb56f224690e58c6da23fe2697de44073b680c9615f04e7cf920d936fc1411ee697a940423db108389bf8566eba68c96bc27403a29fc3644104a654ba566352ba845359cf7b3ed9224f667bc4e4b8fcbd4ded69d48723771056daa5ac3f1a55c5f724a2b900783bd22d19b4758c4441fa8586bac091d204535ba8eb5b8864f087a2d9662861557637d8cf612ef6fde5450b7ba48003f1c321dd1e1820157c998d0daa920a1d4024513102dad57b91c4b6b1571cff2ca94904c84624a7221cdcfb30f91e6007ec88864cf5421afb85a77cacf96e73526faa0d9e3d53a56fee4ac81c81cb0f3eeda5567bc658c561b6e355610f23e39af433d701fea2d6be595a41fd6b118b20a124abf26e1c65a0d011aaa563b2b79cb9a6016ac227f4340286177ebd5debe143bd1ea5c08ea88f545181381bc6dd07ddf05edc24815cd3140f56510d4276004e5a28188141a55591806ed44f51c03178a52eaa0dfeae910ac6068e38d7e256f03cf994b77d14254f55565f6e819ea4c4dcdeeb33364057666f757d8b8d9cb6babbd5e0e1e4e6ef112534384a4c536168aeafb1b2b3b9cbcdcfd8dce9f802071c2a384548a6a9bbc5e70000000000000000000000000e22384401",
        "00bb298dc17a9f2a08604e0797f30e17b0f95841e3d58690f24eca7c8c7b17b34beb973bf44816ee105c377a29b79d5a0c991ea04a504404676d0c834fcdfa79464d03d15a8f4edfe8fda0b8a818cb73bb1fc37c29993a2079feda75e19f46a81f5b3276b03fa626a099dd6128f1f405e71a57aeaa5e08307e8b57769516ed339926883c2cc6de671c401db49e44720974f983d2615b5b7023f6410d3732617db8d71ab239c6333fe61bc31510575a23dca69f2684d4f24c916696c7bd9bdc5ede68cc8fec5072883a738950f620b110e2d48e670ee8c90a38a04a635093cad2d145ec27049bbba162d19d9e4e8fa6e1e8471cf5c9dc1a23e763eba6faae0fd139538fab9cf3934a7c538e9c17394ea0d365aac16f8710afbfc0a2269016394ec94c1eab777c0c23359f414287c24f43ab67d435fda3d353248e5d21abfd44e227043d0b85d1636cb28c13306848f6ca39813626bd97e3c77ffba470584ecc3730628e97701dbc4d604f58344aeaec9c3c272fae696bcc443f1f36bd8dd8183312957e9ec9e7812b6e52b3bfd88fa6e3efc1f8f54086041ebda96aca3f535d4b093a84c9aeee4ef9cafa23575f73b7bb45b4baaf27dc11daaced5fb73211493fb03701435d7701bef01b18861954ccbfb2befcdf59cb169ff171c1b1bf3741e96164dfd5f5179af2959f2323e8b502466aefeb3541f5401ddd1c299c39e7ecc147c6dfe7e3e79f65b64de8793428251c97f62558b797c5d29086ec3699696e66cdf5634927175ab2fa1b2adb167e17d11b4b37c17e2aee7668d367b4ef14448b7f60d5b98c5a44abe4a1165fb7da6baeab9f05bd7c062bf2df3044cf39779f2c687d8a48ae598975ddfce615756df1ad95bede6bdfb34efb1405a05cf99930e2eb02b1e04e36dbde9bec9a28fedfde72bd832c9e9154f51311e4b235c994494020d515a1ed806aa7e1044c71fccae9c4d5f06989a1f9fb55d1216699db4eabd81f43c1d99b67c05d381fc910f563052b9af2ed68dc1c69d661363212911cb34cd6f51ac2a7021a850e65ae0400db0cb1c1c36a0daab96bad1a9efd54f2c4494851e7fe235bc564c0a6f927387bea3916347a2cf05e92a33c3887cfc4a2966b82ba4f32c7dc282bf33bc0727af94f21d8f62b5ba236aafc3bba5516858a2a8828b9ea99cf997b116a40d956a4450c765d1cc93bdc87a821c2f34ca33552feb43f8c79966b0d159e0cb85bcf883136311f49dc76f90e61a903186596fc2d2c245f6ba41756bad060f32958f509c24edfe2f1898a9f03f6c1fde8004052b4518e4338f72a138f2faa852c3f7e26607ca8c6ebbeefc3df19cf08367c80926059f862fe6b5f8480b20e4b2b4586eb2b8f1a9fcc6bd4955cf0c82a1ce681fac8a9f96e9c28a28725a9015708e0cc3b2a759cceb387a05e73c33414d311d573957b096a279318a4ac9e206846a20e2468933a8859c05663f05450810b09ad6904ea75b799e010b2e6cdf9f61ce95f175688f4b1ce6d903c5030aad93dd1bc3dddb954fb3bafe829bb74aae5fcaae8c98fc53e83cf6b254d3d45bc7d08a4f7bb849e355b2c7da53e5e05cd6759c6f9989dbfa75d0b26fabfdfda35e500b673d0f01a208bb20535d36bae3a6c842703a1e40d849b1021bde9673df2e145827fb335663bff655203e33667b4ad7aed91d254efc63c3cdba152ee1b6188baa609d80105766aa0fc333180b0d5280c4a9f1703b996314539aec07fc2a7dc6b15fe97b75b7b77da43538dc99e101f3d6d63352e0a2c2f312ec7528921925a37bc46aea7912a0082a37e841946d5d73d59e76dbc0b205379da6477cd642ea9b22d186732b63b068a"
      ],
      "sequence": 4294967294
    }
  ],
  "vout": [
    {
      "value": 1.0,
      "n": 0,
      "scriptPubKey": {
        "asm": "OP_RETURN ede33e9c3fbc8d5c00fc2eae48528391073e1cff561dad71817144b93b0c7537 9d7c9d71849327983194061333505dbf9e6e6f0becadcdfe37b18946762a0f41bd5cbd51a4b307b811b4263313707d9fbe4e4f2bcc8dedde1791a966560a2f61dd3cdd31c4d367d871d4465373101dffde2e2f4baced8dbe77f1c906366a4f01fd1cfd11e4f347f851f4667353303ddffe0e0f6b8ccdad9e57d1e926164a6f211dfc1df10413a718b1148693b3d0dd3f1eeeef8b6c2d4d7eb73109c6f6aa8fc13ddc3dd1243387389134a6b393f0fd1f3ececfab4c0d6d5e971129e6d68aafe15dbc5db14453e758f154c6d3f3909d7f5eaeafcb2c6d0d3ef7714986b6eacf817d9c7d916473c778d174e6f3d3b0bd5f7e8e8feb0c4d2d1ed75169a696caefa19d7c9d71849327983194061333505dbf9e6e6f0becadcdfe37b18946762a0f41bd5cbd51a4b307b811b4263313707d9fbe4e4f2bcc8dedde1791a966560a2f61dd3cdd31c4d367d871d4465373101dffde2e2f4baced8dbe77f1c906366a4f01fd1cfd11e4f347f851f4667353303ddffe0e0f6b8ccdad9e57d1e926164a6f211dfc1df10413a718b1148693b3d0dd3f1eeeef8b6c2d4d7eb73109c6f6aa8fc13ddc3dd1243387389134a6b393f0fd1f3ececfab4c0d6d5e971129e6d68aafe15dbc5db14453e758f154c6d3f3909d7f5eaeafcb2c6d0d3ef7714986b6eacf817d9c7d916473c778d174e6f3d3b0bd5f7e8e8feb0c4d2d1ed75169a696caefa19d7c9d71849327983194061333505dbf9e6e6f0becadcdfe37b18946762a0f41bd5cbd51a4b307b811b4263313707d9fbe4e4f2bcc8dedde1791a966560a2f61dd3cdd31c4d367d871d4465373101dffde2e2f4baced8dbe77f1c906366a4f01fd1cfd11e4f347f851f4667353303ddffe0e0f6b8ccdad9e57d1e926164a6f211dfc1df10413a718b1148693b3d0dd3f1eeeef8b6c2d4d7eb73109c6f6aa8fc13ddc3dd1243387389134a6b393f0fd1f3ececfab4c0d6d5e971129e6d68aafe15dbc5db14453e758f154c6d3f3909d7f5eaeafcb2c6d0d3ef7714986b6eacf817d9c7d916473c778d174e6f3d3b0bd5f7e8e8feb0c4d2d1ed75169a696caefa19d7c9d71849327983194061333505dbf9e6e6f0becadcdfe37b18946762a0f41bd5cbd51a4b307b811b4263313707d9fbe4e4f2bcc8dedde1791a966560a2f61dd3cdd31c4d367d871d4465373101dffde2e2f4baced8dbe77f1c906366a4f01fd1cfd11e4f347f851f4667353303ddffe0e0f6b8ccdad9e57d1e926164a6f211dfc1df10413a718b1148693b3d0dd3f1eeeef8b6c2d4d7eb73109c6f6aa8fc13ddc3dd1243387389134a6b393f0fd1f3ececfab4c0d6d5e971129e6d68aafe15dbc5db14453e758f154c6d3f3909d7f5eaeafcb2c6d0d3ef7714986b6eacf817d9c7d916473c778d174e6f3d3b0bd5f7e8e8feb0c4d2d1ed75169a696caefa19d7c9d71849327983194061333505dbf9e6e6f0becadcdfe37b18946762a0f41bd5cbd51a4b307b811b4263313707d9fbe4e4f2bcc8dedde1791a966560a2f61dd3cdd31c4d367d871d4465373101dffde2e2f4baced8dbe77f1c906366a4f01fd1cfd11e4f347f851f4667353303ddffe0e0f6b8ccdad9e57d1e926164a6f211dfc1df10413a718b1148693b3d0dd3f2940357c906af59b906b2ca4168b560ffa7c75ea7958c08008102f7ec7008706",
        "hex": "6a20ede33e9c3fbc8d5c00fc2eae48528391073e1cff561dad71817144b93b0c75374db0049d7c9d71849327983194061333505dbf9e6e6f0becadcdfe37b18946762a0f41bd5cbd51a4b307b811b4263313707d9fbe4e4f2bcc8dedde1791a966560a2f61dd3cdd31c4d367d871d4465373101dffde2e2f4baced8dbe77f1c906366a4f01fd1cfd11e4f347f851f4667353303ddffe0e0f6b8ccdad9e57d1e926164a6f211dfc1df10413a718b1148693b3d0dd3f1eeeef8b6c2d4d7eb73109c6f6aa8fc13ddc3dd1243387389134a6b393f0fd1f3ececfab4c0d6d5e971129e6d68aafe15dbc5db14453e758f154c6d3f3909d7f5eaeafcb2c6d0d3ef7714986b6eacf817d9c7d916473c778d174e6f3d3b0bd5f7e8e8feb0c4d2d1ed75169a696caefa19d7c9d71849327983194061333505dbf9e6e6f0becadcdfe37b18946762a0f41bd5cbd51a4b307b811b4263313707d9fbe4e4f2bcc8dedde1791a966560a2f61dd3cdd31c4d367d871d4465373101dffde2e2f4baced8dbe77f1c906366a4f01fd1cfd11e4f347f851f4667353303ddffe0e0f6b8ccdad9e57d1e926164a6f211dfc1df10413a718b1148693b3d0dd3f1eeeef8b6c2d4d7eb73109c6f6aa8fc13ddc3dd1243387389134a6b393f0fd1f3ececfab4c0d6d5e971129e6d68aafe15dbc5db14453e758f154c6d3f3909d7f5eaeafcb2c6d0d3ef7714986b6eacf817d9c7d916473c778d174e6f3d3b0bd5f7e8e8feb0c4d2d1ed75169a696caefa19d7c9d71849327983194061333505dbf9e6e6f0becadcdfe37b18946762a0f41bd5cbd51a4b307b811b4263313707d9fbe4e4f2bcc8dedde1791a966560a2f61dd3cdd31c4d367d871d4465373101dffde2e2f4baced8dbe77f1c906366a4f01fd1cfd11e4f347f851f4667353303ddffe0e0f6b8ccdad9e57d1e926164a6f211dfc1df10413a718b1148693b3d0dd3f1eeeef8b6c2d4d7eb73109c6f6aa8fc13ddc3dd1243387389134a6b393f0fd1f3ececfab4c0d6d5e971129e6d68aafe15dbc5db14453e758f154c6d3f3909d7f5eaeafcb2c6d0d3ef7714986b6eacf817d9c7d916473c778d174e6f3d3b0bd5f7e8e8feb0c4d2d1ed75169a696caefa19d7c9d71849327983194061333505dbf9e6e6f0becadcdfe37b18946762a0f41bd5cbd51a4b307b811b4263313707d9fbe4e4f2bcc8dedde1791a966560a2f61dd3cdd31c4d367d871d4465373101dffde2e2f4baced8dbe77f1c906366a4f01fd1cfd11e4f347f851f4667353303ddffe0e0f6b8ccdad9e57d1e926164a6f211dfc1df10413a718b1148693b3d0dd3f1eeeef8b6c2d4d7eb73109c6f6aa8fc13ddc3dd1243387389134a6b393f0fd1f3ececfab4c0d6d5e971129e6d68aafe15dbc5db14453e758f154c6d3f3909d7f5eaeafcb2c6d0d3ef7714986b6eacf817d9c7d916473c778d174e6f3d3b0bd5f7e8e8feb0c4d2d1ed75169a696caefa19d7c9d71849327983194061333505dbf9e6e6f0becadcdfe37b18946762a0f41bd5cbd51a4b307b811b4263313707d9fbe4e4f2bcc8dedde1791a966560a2f61dd3cdd31c4d367d871d4465373101dffde2e2f4baced8dbe77f1c906366a4f01fd1cfd11e4f347f851f4667353303ddffe0e0f6b8ccdad9e57d1e926164a6f211dfc1df10413a718b1148693b3d0dd3f2940357c906af59b906b2ca4168b560ffa7c75ea7958c08008102f7ec7008706",
        "type": "nulldata"
      }
    },
    {
      "value": 499990.8479,
      "n": 1,
      "scriptPubKey": {
        "asm": "1 24212baa7fd5bb66161917074c9961bcb509876f78ea7239889123f480e32561",
        "hex": "512024212baa7fd5bb66161917074c9961bcb509876f78ea7239889123f480e32561",
        "reqSigs": 1,
        "type": "witness_v1_scripthash",
        "addresses": [
          "3QJmnh"
        ]
      }
    }
  ],
  "blockhash": "70f7ec20af3843e0d144de9ce3637c8baa62723aad58289fd59c71fdb9075fdf",
  "confirmations": 1,
  "time": 1764177228,
  "blocktime": 1764177228
}