{
  "hex": "01000000000101fd0914a06e58cb95951041b31e1e2fceeee92cc22b1d19c6abb8b67e2cc42f010000000000feffffff02f020b051792d00002251204d1f43447960eabdfe3d17d8ca86b5e72d09fdaa4869adf9d0d4b0859ad306df00e1f50500000000fdd5046a20618706fd378c579c47ca7b05c820bde5577059cbfb0b2b6ce189fafea54a83034db004b34145e170e0977653da2e38c6e35a19f7ecb4e6dfd2282e4969f156178137b4936165c150c0b75673fa0e18e6c37a39d7cc94c6fff2080e6949d17637a11794f30105a130a0d736139a6e7886a31a59b7acf4a69f92686e0929b11657c177f4d32125811080f71633ba4e58a6833a79978cd486bfb2484e2909913677e157d433c1c561f06017f6d35aaeb84663da99776c34665f52a8aec9e971d69701b73413e1e541d04037d6f37a8e986643fab9574c14467f72888ee9c951f6b721971473818521b02057b6931aeef806239ad9372c74261f12e8ee89a93196d741f77453a1a50190007796b33aced82603baf9170c54063f32c8cea98911b6f761d754b34145e170e0977653da2e38c6e35a19f7ecb4e6dfd2282e4969f156178137b4936165c150c0b75673fa0e18e6c37a39d7cc94c6fff2080e6949d17637a11794f30105a130a0d736139a6e7886a31a59b7acf4a69f92686e0929b11657c177f4d32125811080f71633ba4e58a6833a79978cd486bfb2484e2909913677e157d433c1c561f06017f6d35aaeb84663da99776c34665f52a8aec9e971d69701b73413e1e541d04037d6f37a8e986643fab9574c14467f72888ee9c951f6b721971473818521b02057b6931aeef806239ad9372c74261f12e8ee89a93196d741f77453a1a50190007796b33aced82603baf9170c54063f32c8cea98911b6f761d754b34145e170e0977653da2e38c6e35a19f7ecb4e6dfd2282e4969f156178137b4936165c150c0b75673fa0e18e6c37a39d7cc94c6fff2080e6949d17637a11794f30105a130a0d736139a6e7886a31a59b7acf4a69f92686e0929b11657c177f4d32125811080f71633ba4e58a6833a79978cd486bfb2484e2909913677e157d433c1c561f06017f6d35aaeb84663da99776c34665f52a8aec9e971d69701b73413e1e541d04037d6f37a8e986643fab9574c14467f72888ee9c951f6b721971473818521b02057b6931aeef806239ad9372c74261f12e8ee89a93196d741f77453a1a50190007796b33aced82603baf9170c54063f32c8cea98911b6f761d754b34145e170e0977653da2e38c6e35a19f7ecb4e6dfd2282e4969f156178137b4936165c150c0b75673fa0e18e6c37a39d7cc94c6fff2080e6949d17637a11794f30105a130a0d736139a6e7886a31a59b7acf4a69f92686e0929b11657c177f4d32125811080f71633ba4e58a6833a79978cd486bfb2484e2909913677e157d433c1c561f06017f6d35aaeb84663da99776c34665f52a8aec9e971d69701b73413e1e541d04037d6f37a8e986643fab9574c14467f72888ee9c951f6b721971473818521b02057b6931aeef806239ad9372c74261f12e8ee89a93196d741f77453a1a50190007796b33aced82603baf9170c54063f32c8cea98911b6f761d754b34145e170e0977653da2e38c6e35a19f7ecb4e6dfd2282e4969f156178137b4936165c150c0b75673fa0e18e6c37a39d7cc94c6fff2080e6949d17637a11794f30105a130a0d736139a6e7886a31a59b7acf4a69f92686e0929b11657c177f4d32125811080f71633ba4e58a6833a79978cd486bfb2484e2909913677e157d433c1c561f06017f6d35aaeb84663da99f0588d41413dcd58b2c17be8e7ce5477d80526dc524d8e156e1069898c9c012102fd750986a9a3f5eb1c22fddf65cdc4189633841f45d11f627a56b5d1c5f4466d425452538c08f7c74a5d0295a9e7cdc7706c5294da80ce6a3cdc48283545242e9757cfa99392b8edc463931eb19b4d9e6930f729eea08a4e92d6016e2bf59b78a42efbea8ae339171bf6552a247415c20fa76bc4d87902d6a1ce43f0297baf46392a4ccdae12721ea0359a2feed65595f7779afb125d34e172ebc9bb7fc5a54cc7cf4c0a4ab5a94b0a1b6b170a7fdc0e682772bd59252f3fd709071f8c760b80aa10c8f533f7a53ffad232ae124f96468b5ed55f271acbc801dcdc88baeb04b4948901ab2e28d4f08462edf5df3fb50c549ea27d1b8b29365b6c6edc15ecc2154cae8b63c4603a89e5872d7629b1eb2da9bf3051150fefcab6d996bdda2c09545da616bff1699cc8f2c6ec1eb8aeb5d0be80f71a9004027503cec65bbbe9773433df0e0a67b2a6ab583e822c16bc04abe4f4e550144367858f5d2c70b0e79ba5af724cc12b2bee845470ad3b97d9765f21a1700b383ac761e1a4162fc2e6822674253b10f176261fd3593d05a4daa770fc780a4eb6e0b461d4a99aa85b1271f4bce5d362201e1445b8ff710f75478c9a17c4f2c2dca1fc221f746267bbe3e5db8aba84392bdd5a05b198e24907049a0a874f989b7d0a5217224c371a5a072c501fb42dd327c2baf477342a2be75c9839a257fa7c16fd2c76f2cee1a98d860f63b3c40180df6ac89d5a574e06f35ef1442093aa1d7438babb7a26b7aeb35d5fbb6d3e9c3855a68f34dbd67fcc51d481361baaed1c327987b6b42499b3c717a3e8c9f36b1fa466211d62ebc95f726470b9d6ff3f9ac4507774dc3b1c40fae0fcba208aebd583561b584be0b490867ab029f043aaa443e99a78ca6da863b75163daac314ec46a9157f1a2447695059375325339dc105d4aa93e3c996c07767bc950a2aaf877a82f2a2ec66bfd4622a35b6368cddac81a56fa77705b338bdbb56d6f17012e416d02d78595b33dc79a90fbe2be936ca248600e4948b9ee67169c60d19d9f80e14349efec0dc817cf0f149cdd37e74f333bb3e1fd738fc55f166aeeffd8cf6412dc6e417bce4c531d7982e04103e3519c9014b105cc2ff4c2a874b447ad1354de4b23180efc1cd2af1112cb1dab3680e0fe1c0fc80c59d4a7ba85b13a18bd13ba8d37f56e0d1d10ea774802fb8a8ddb1c76be74193e4cf6dc98bfd112c918bdfb85671c3a21f7f3c6748d0f9b140bb0fd70734745650a0680a84be158b94850c280c67b5a871c1e5a08fad9142c0a4b2d965248ed8181acea71b41c19e51087510e6b1e3fa5749607ae064a1374e59377e7c3c73e4f14d3b3e8002638f42971216a78c10c5705d7b4405d18b437af56a55adbc11ee6fd41ff56a5b652a68c5f45799383af4a362ae8b34cabfaeae06172d45a059fa333142222832c2935b17b32f56a35ae74d87fb33b3e94d328b5e1644a6e7d6857c7fdc0b4d1573ee8251ce4d23a06d47ff81cb4e98af05a8beea0bc81ce835b2f46808b32482986ece98a584274f2f074de067227d80f4d066687761a1f43a9b01b9de4716890f643f12d58ef3e4fa9dc79905df7550a0becdcaf215c0cdf289bae82f24dc3e36fbad7453a1a59f1dc3695786640b9818e81b44ef1f3a50c6a8b6ab570dab74756b7b1957d827ccc74dfefefe6eeb0170df33f8d7c9dadbf9ca8d359bc9155037f511ab76978d9f9677e2de4d13ca5942d781f01f28b2ae6c3932e1bf0050cf694a7767cce3d4dd43a6a7e247d12ee8dc4ad747ba5dddf752459092a235be2d13854753922c3c09901eb885785c9e70a7c4c817b115ae2d5eecee0cecc67b55724fd92c0046f0ad11d947575e5b952b9df604540c10134445c5669eae938a87b42a34e92acb3f163f100b3729b65df4149b16d335c218c131343ba0ab48c3b2ea13280fe05b71ac63c6b3f42f5b25f8d56c01b554d344e554c40615decb3b45352bbd14df9ce329b22de3b82d9a7d8f2cd705757f9d9ef93b2ec7ac4e9d5656764efc44394c8a57fe1540d289dde568c1aeb9d3aee28f9f8af65cfea7955f5d59c6282924728aa9da63e1f296b17a41497aac892bcba5050ae974c0bc18b04ab1aa88118a95d2fd9657be3393d2ed55e33d76e4b302e7b7c05e9917487c39bc84c2a9685491e748c9d36341f285277d6645fd1ff2352f8679fdf329228a6aa89d7bc5240503eb6026a40539507f06794388f69a922132101f82ed0f38027353124de0f553468970afb887ee8d41e0d1cecfcf296311ee9959be1406500b3ffd94f219078fccce956196f4ea34c9ee197e568ca5e105abf8b9fd5101e61248bf0a3ffac9cd68bead5256aea0df2085d9681fde05d4d1259df73003bc3bda44c0ecd004385b5c7abacc58709eec33b652b7cd1c16ff6273caf48cf0537df9b85070b36a8d96baf3d859cb347ad8bd96c9b86bbdc2d53bb325e86b618c2f488a214b6125cc400dd4c18b2108688501a5018bb5441e5a7a33816b941ada806250d39efca5a3118064fc22f2c78cbc6a45508bb40ca1a962fd8669b0a5aa21f870db295223ac5e0b74b2408c91b5195e354b3419ca972ef6c014cd511a68a275046f0a4431bea054affc7f4096425f27957239a6cf6a67d1efd39cda347601e67ebd9017640124ca49476111bbd7e4768b9b1f0e810bc3b2415039a885436db75c15bd3965ca9306af86d1ce8222e064dc7d4c1280bd55a381cfa41a2c1dc1d36fcf33781fdc2fbbd83077c7af55d33db206f0bc1eb5c5587f261b8eb4458f8453023c2fadbf912f6c596ab7d537f3ae1a8a11f3def5ceeaf34295163867dd2e6c9b8013ab1d6ea1b86983c66ea2911fa95467c213cf9336ba9545c08acc5c99dd2fd6e442dd168d625b3d5f3066c10a37b3cc5ae19027242252f4bde6e8c0584732aa49b3ba577ccb79be307aca990341fabd195c9f98652fda6e4f5d9fc6afb9a2307c8c02b633613f916b67dce587d6efe990f0ee3c888897116b8c73aa490dc21bafa56d60a1d39ad2d55fbdbe5b80dbacdfcfa0d61b88ce0ee5d24760c9ef8409c23f6798f35fc20c57d07c1248b4bd1649c372bfc3202f2878209e5a8579b3fdbfc4cfafa9be27f2eadc624274e5d44c194b52df07fcde2582cbe8dba20b7b5079a9a2ec26e9e31a7a7ad1c2e68994c8963c62f7c219d1d979b915246bedf9ef73fd335f4e8b993298f65b1e1ea5697428b447e777c988bb0341ec3302dd5ff08c5cc736fe16a4fe4b58489a72f2a73d36a8d0a6925de443ab8f9a82c1000433868d0a0242b31454e50556367939ac3dce7e8ebf6161d2038444a51698791bddbedf90d2c344b4e556373aeb0bec5d0e7010c253b41575f62747b7e87989fb3bcc1c7d1dfe2e7e8ecf7f8000000000000000000111f2d4701fd210500c13e9ed00ec6dae23c80ad09d0eb24479bebcbb723806fc4671e8feb83607b3a95fca365b83ac3ea18b217af1a9620d60c50fdf62bdb8cfdd1f2e021aa548ffe8250321f121edb71d8bf779d1b3067174a21ed9a071dcfc68355c0ac4e375b4fda173f356578a1948eaa04d6771587aaa008cbf3fae30de936a9e1e48bd3faa9f9477b438162bf104c4a1f735974658ee499bbb1043332686e605f614df8bf25ff1570965942c93765be6d63c358d6bde38d11bf29234fe02d3f1ef6fbaf2b5e3b5f7b5d0d7ea3d3415e09b146a096745a3a5f79a49eed234307325cdd69e43b699a70febd4fe75d18fffe842472361a47737e76b7865a4ec1a9797fda336206b5eed2b8adca1f7dd399768329772803e7673566a9e8dbdfe1026be88701f2cb0a5678475acfddb3c8ece7c8a4b1159d7802813f8e0df55b806af8efdfb72efc3f3d2d28622772e9180a2798d7c8ed22383d2b3e242ef679e1f7bfe930accd1e53a7c34606e975b53949829387d096a711a7807807349f1bd8accd7b24f44ce273d22ef3332b4c19825827b2c8cf11451148ba0f9fd6357ba93a265a137961c50b470b9de8d4eac1991336c679e72d67205342298f2dde9edf55845c211eca1ce8c249f4209a5439727793465d60146bf3fb346ec10bbc0da73e7b490a69be5fc9c9e807c3da7e6367aaecde42a205965a900bf5e176806f8cc3f9d31fe60050745ee23d931006635d38a1aa1c0c5ca5db6ffa6f94c6737d917295c734a44236b4fb1ee5b3beaaeda37b60c9173c8c8375f4f7a958a4f87f0bfd3cb7ae5ddc685dd24d55087acefbf80ea2bbcef28da53fb8ecfc0e3f30863960359841195ef904a697e674b2b19e862e88d7f0444e134a9ca2a3bd09764ca9e57a739f384f117a6c2d08612d6846d5f148f17d7a5fe8a001c85395dba706140331f5a87ef7f3b3a603287702a8ee2ecec51acc1fde93e372f5507d3787449a46b647696b124660440d302a1f405c54076d8836b50412a6650a7f43800a1cc04d1dcb6ab1897bafba2d3234f870488a70a290c6c12a4a9bb70f039b56499f2c2358891e10a19031511c4b36f4521deaea0a1cd92e38ae34b2a7fef1775dfcb17dd163cae6cd0ecb342554bd9e0bfa522e1af48557e9c5f4dabd8b6b2c593e03306c0db1e5c727ef6a857934f81d87b192e97c864044198dda4c71d3f23b123f2ce694a4819400122d4644f8fc9638f63d8886b8574fe79b108212f4f2ed07f74b693dba097faa98edb28c9a16a246c02a61af129f90d17824f094b40db6efc49845f87fdb17f110e5fe03101d1803d0f5eb8140c42e00e3599be812daa02f5c3bee8ec4469bc04f4a3678e2d69a04f688d1a62b4ce65658e69072f471d1c986b49378f2fcf615c874bfd95653bba6d707c1d0839771ce9d3bca5214ea4f68be287b9b9d9b92b7a9782d947fb557efad01923be24c29e1d06c73265161b66a5d1844735b470baf564a0ab14e9ed76ea23772979f645e88a1e57bf462d1dc14ed3588ce7f2b8613a67c1afa2b545571026457cc06648348e00a5b52643cfccb34496dc6faf2d88c559cf76c0f0f8365505d2bc6e08b2cfaf0f9fe5721dd739796564f2586e03b8519c82927e8af4f9c42c08aadabdd3a38735a38f0ea6df66e9106ccc66b920fa7b3244bfb4370c1cecda2ffcda30328f6d4ce46f3b213ab6cf9f8cbbce058b620cdfc865fe29d376b03baec9c82b31ff3620f7a20394c1bec31cc335d3f0d7a887a2ad705d4dec87bc0a522a5415891e7656e3eb2be184bd94ac3ca9cf99f9353b368203032a0549eb9f31f6e0f9e50d738976830071277db1acb8cef6a6fda4e6b000000",
  "txid": "85a276c37cf28bf0901860f769ada2aa4f87703cbc5dce746041040b8aced051",
  "hash": "3f7c3f248fc82418716f224ffd48c46a06a788f00b999f85962c42bd5b1e892e",
  "size": 5085,
  "vsize": 2278,
  "version": 1,
  "locktime": 107,
  "vin": [
    {
      "txid": "012fc42c7eb6b8abc6191d2bc22ce9eece2f1e1eb341109595cb586ea01409fd",
      "vout": 0,
      "scriptSig": {
        "asm": "",
        "hex": ""
      },
      "txinwitness": [
        "86a9a3f5eb1c22fddf65cdc4189633841f45d11f627a56b5d1c5f4466d425452538c08f7c74a5d0295a9e7cdc7706c5294da80ce6a3cdc48283545242e9757cfa99392b8edc463931eb19b4d9e6930f729eea08a4e92d6016e2bf59b78a42efbea8ae339171bf6552a247415c20fa76bc4d87902d6a1ce43f0297baf46392a4ccdae12721ea0359a2feed65595f7779afb125d34e172ebc9bb7fc5a54cc7cf4c0a4ab5a94b0a1b6b170a7fdc0e682772bd59252f3fd709071f8c760b80aa10c8f533f7a53ffad232ae124f96468b5ed55f271acbc801dcdc88baeb04b4948901ab2e28d4f08462edf5df3fb50c549ea27d1b8b29365b6c6edc15ecc2154cae8b63c4603a89e5872d7629b1eb2da9bf3051150fefcab6d996bdda2c09545da616bff1699cc8f2c6ec1eb8aeb5d0be80f71a9004027503cec65bbbe9773433df0e0a67b2a6ab583e822c16bc04abe4f4e550144367858f5d2c70b0e79ba5af724cc12b2bee845470ad3b97d9765f21a1700b383ac761e1a4162fc2e6822674253b10f176261fd3593d05a4daa770fc780a4eb6e0b461d4a99aa85b1271f4bce5d362201e1445b8ff710f75478c9a17c4f2c2dca1fc221f746267bbe3e5db8aba84392bdd5a05b198e24907049a0a874f989b7d0a5217224c371a5a072c501fb42dd327c2baf477342a2be75c9839a257fa7c16fd2c76f2cee1a98d860f63b3c40180df6ac89d5a574e06f35ef1442093aa1d7438babb7a26b7aeb35d5fbb6d3e9c3855a68f34dbd67fcc51d481361baaed1c327987b6b42499b3c717a3e8c9f36b1fa466211d62ebc95f726470b9d6ff3f9ac4507774dc3b1c40fae0fcba208aebd583561b584be0b490867ab029f043aaa443e99a78ca6da863b75163daac314ec46a9157f1a2447695059375325339dc105d4aa93e3c996c07767bc950a2aaf877a82f2a2ec66bfd4622a35b6368cddac81a56fa77705b338bdbb56d6f17012e416d02d78595b33dc79a90fbe2be936ca248600e4948b9ee67169c60d19d9f80e14349efec0dc817cf0f149cdd37e74f333bb3e1fd738fc55f166aeeffd8cf6412dc6e417bce4c531d7982e04103e3519c9014b105cc2ff4c2a874b447ad1354de4b23180efc1cd2af1112cb1dab3680e0fe1c0fc80c59d4a7ba85b13a18bd13ba8d37f56e0d1d10ea774802fb8a8ddb1c76be74193e4cf6dc98bfd112c918bdfb85671c3a21f7f3c6748d0f9b140bb0fd70734745650a0680a84be158b94850c280c67b5a871c1e5a08fad9142c0a4b2d965248ed8181acea71b41c19e51087510e6b1e3fa5749607ae064a1374e59377e7c3c73e4f14d3b3e8002638f42971216a78c10c5705d7b4405d18b437af56a55adbc11ee6fd41ff56a5b652a68c5f45799383af4a362ae8b34cabfaeae06172d45a059fa333142222832c2935b17b32f56a35ae74d87fb33b3e94d328b5e1644a6e7d6857c7fdc0b4d1573ee8251ce4d23a06d47ff81cb4e98af05a8beea0bc81ce835b2f46808b32482986ece98a584274f2f074de067227d80f4d066687761a1f43a9b01b9de4716890f643f12d58ef3e4fa9dc79905df7550a0becdcaf215c0cdf289bae82f24dc3e36fbad7453a1a59f1dc3695786640b9818e81b44ef1f3a50c6a8b6ab570dab74756b7b1957d827ccc74dfefefe6eeb0170df33f8d7c9dadbf9ca8d359bc9155037f511ab76978d9f9677e2de4d13ca5942d781f01f28b2ae6c3932e1bf0050cf694a7767cce3d4dd43a6a7e247d12ee8dc4ad747ba5dddf752459092a235be2d13854753922c3c09901eb885785c9e70a7c4c817b115ae2d5eecee0cecc67b55724fd92c0046f0ad11d947575e5b952b9df604540c10134445c5669eae938a87b42a34e92acb3f163f100b3729b65df4149b16d335c218c131343ba0ab48c3b2ea13280fe05b71ac63c6b3f42f5b25f8d56c01b554d344e554c40615decb3b45352bbd14df9ce329b22de3b82d9a7d8f2cd705757f9d9ef93b2ec7ac4e9d5656764efc44394c8a57fe1540d289dde568c1aeb9d3aee28f9f8af65cfea7955f5d59c6282924728aa9da63e1f296b17a41497aac892bcba5050ae974c0bc18b04ab1aa88118a95d2fd9657be3393d2ed55e33d76e4b302e7b7c05e9917487c39bc84c2a9685491e748c9d36341f285277d6645fd1ff2352f8679fdf329228a6aa89d7bc5240503eb6026a40539507f06794388f69a922132101f82ed0f38027353124de0f553468970afb887ee8d41e0d1cecfcf296311ee9959be1406500b3ffd94f219078fccce956196f4ea34c9ee197e568ca5e105abf8b9fd5101e61248bf0a3ffac9cd68bead5256aea0df2085d9681fde05d4d1259df73003bc3bda44c0ecd004385b5c7abacc58709eec33b652b7cd1c16ff6273caf48cf0537df9b85070b36a8d96baf3d859cb347ad8bd96c9b86bbdc2d53bb325e86b618c2f488a214b6125cc400dd4c18b2108688501a5018bb5441e5a7a33816b941ada806250d39efca5a3118064fc22f2c78cbc6a45508bb40ca1a962fd8669b0a5aa21f870db295223ac5e0b74b2408c91b5195e354b3419ca972ef6c014cd511a68a275046f0a4431bea054affc7f4096425f27957239a6cf6a67d1efd39cda347601e67ebd9017640124ca49476111bbd7e4768b9b1f0e810bc3b2415039a885436db75c15bd3965ca9306af86d1ce8222e064dc7d4c1280bd55a381cfa41a2c1dc1d36fcf33781fdc2fbbd83077c7af55d33db206f0bc1eb5c5587f261b8eb4458f8453023c2fadbf912f6c596ab7d537f3ae1a8a11f3def5ceeaf34295163867dd2e6c9b8013ab1d6ea1b86983c66ea2911fa95467c213cf9336ba9545c08acc5c99dd2fd6e442dd168d625b3d5f3066c10a37b3cc5ae19027242252f4bde6e8c0584732aa49b3ba577ccb79be307aca990341fabd195c9f98652fda6e4f5d9fc6afb9a2307c8c02b633613f916b67dce587d6efe990f0ee3c888897116b8c73aa490dc21bafa56d60a1d39ad2d55fbdbe5b80dbacdfcfa0d61b88ce0ee5d24760c9ef8409c23f6798f35fc20c57d07c1248b4bd1649c372bfc3202f2878209e5a8579b3fdbfc4cfafa9be27f2eadc624274e5d44c194b52df07fcde2582cbe8dba20b7b5079a9a2ec26e9e31a7a7ad1c2e68994c8963c62f7c219d1d979b915246bedf9ef73fd335f4e8b993298f65b1e1ea5697428b447e777c988bb0341ec3302dd5ff08c5cc736fe16a4fe4b58489a72f2a73d36a8d0a6925de443ab8f9a82c1000433868d0a0242b31454e50556367939ac3dce7e8ebf6161d2038444a51698791bddbedf90d2c344b4e556373aeb0bec5d0e7010c253b41575f62747b7e87989fb3bcc1c7d1dfe2e7e8ecf7f8000000000000000000111f2d4701",
        "00c13e9ed00ec6dae23c80ad09d0eb24479bebcbb723806fc4671e8feb83607b3a95fca365b83ac3ea18b217af1a9620d60c50fdf62bdb8cfdd1f2e021aa548ffe8250321f121edb71d8bf779d1b3067174a21ed9a071dcfc68355c0ac4e375b4fda173f356578a1948eaa04d6771587aaa008cbf3fae30de936a9e1e48bd3faa9f9477b438162bf104c4a1f735974658ee499bbb1043332686e605f614df8bf25ff1570965942c93765be6d63c358d6bde38d11bf29234fe02d3f1ef6fbaf2b5e3b5f7b5d0d7ea3d3415e09b146a096745a3a5f79a49eed234307325cdd69e43b699a70febd4fe75d18fffe842472361a47737e76b7865a4ec1a9797fda336206b5eed2b8adca1f7dd399768329772803e7673566a9e8dbdfe1026be88701f2cb0a5678475acfddb3c8ece7c8a4b1159d7802813f8e0df55b806af8efdfb72efc3f3d2d28622772e9180a2798d7c8ed22383d2b3e242ef679e1f7bfe930accd1e53a7c34606e975b53949829387d096a711a7807807349f1bd8accd7b24f44ce273d22ef3332b4c19825827b2c8cf11451148ba0f9fd6357ba93a265a137961c50b470b9de8d4eac1991336c679e72d67205342298f2dde9edf55845c211eca1ce8c249f4209a5439727793465d60146bf3fb346ec10bbc0da73e7b490a69be5fc9c9e807c3da7e6367aaecde42a205965a900bf5e176806f8cc3f9d31fe60050745ee23d931006635d38a1aa1c0c5ca5db6ffa6f94c6737d917295c734a44236b4fb1ee5b3beaaeda37b60c9173c8c8375f4f7a958a4f87f0bfd3cb7ae5ddc685dd24d55087acefbf80ea2bbcef28da53fb8ecfc0e3f30863960359841195ef904a697e674b2b19e862e88d7f0444e134a9ca2a3bd09764ca9e57a739f384f117a6c2d08612d6846d5f148f17d7a5fe8a001c85395dba706140331f5a87ef7f3b3a603287702a8ee2ecec51acc1fde93e372f5507d3787449a46b647696b124660440d302a1f405c54076d8836b50412a6650a7f43800a1cc04d1dcb6ab1897bafba2d3234f870488a70a290c6c12a4a9bb70f039b56499f2c2358891e10a19031511c4b36f4521deaea0a1cd92e38ae34b2a7fef1775dfcb17dd163cae6cd0ecb342554bd9e0bfa522e1af48557e9c5f4dabd8b6b2c593e03306c0db1e5c727ef6a857934f81d87b192e97c864044198dda4c71d3f23b123f2ce694a4819400122d4644f8fc9638f63d8886b8574fe79b108212f4f2ed07f74b693dba097faa98edb28c9a16a246c02a61af129f90d17824f094b40db6efc49845f87fdb17f110e5fe03101d1803d0f5eb8140c42e00e3599be812daa02f5c3bee8ec4469bc04f4a3678e2d69a04f688d1a62b4ce65658e69072f471d1c986b49378f2fcf615c874bfd95653bba6d707c1d0839771ce9d3bca5214ea4f68be287b9b9d9b92b7a9782d947fb557efad01923be24c29e1d06c73265161b66a5d1844735b470baf564a0ab14e9ed76ea23772979f645e88a1e57bf462d1dc14ed3588ce7f2b8613a67c1afa2b545571026457cc06648348e00a5b52643cfccb34496dc6faf2d88c559cf76c0f0f8365505d2bc6e08b2cfaf0f9fe5721dd739796564f2586e03b8519c82927e8af4f9c42c08aadabdd3a38735a38f0ea6df66e9106ccc66b920fa7b3244bfb4370c1cecda2ffcda30328f6d4ce46f3b213ab6cf9f8cbbce058b620cdfc865fe29d376b03baec9c82b31ff3620f7a20394c1bec31cc335d3f0d7a887a2ad705d4dec87bc0a522a5415891e7656e3eb2be184bd94ac3ca9cf99f9353b368203032a0549eb9f31f6e0f9e50d738976830071277db1acb8cef6a6fda4e"
      ],
      "sequence": 4294967294
    }
  ],
  "vout": [
    {
      "value": 499990.8479,
      "n": 0,
      "scriptPubKey": {
        "asm": "1 4d1f43447960eabdfe3d17d8ca86b5e72d09fdaa4869adf9d0d4b0859ad306df",
        "hex": "51204d1f43447960eabdfe3d17d8ca86b5e72d09fdaa4869adf9d0d4b0859ad306df",
        "reqSigs": 1,
        "type": "witness_v1_scripthash",
        "addresses": [
          "3QJmnh"
        ]
      }
    },
    {
      "value": 1.0,
      "n": 1,
      "scriptPubKey": {
        "asm": "OP_RETURN 618706fd378c579c47ca7b05c820bde5577059cbfb0b2b6ce189fafea54a8303 b34145e170e0977653da2e38c6e35a19f7ecb4e6dfd2282e4969f156178137b4936165c150c0b75673fa0e18e6c37a39d7cc94c6fff2080e6949d17637a11794f30105a130a0d736139a6e7886a31a59b7acf4a69f92686e0929b11657c177f4d32125811080f71633ba4e58a6833a79978cd486bfb2484e2909913677e157d433c1c561f06017f6d35aaeb84663da99776c34665f52a8aec9e971d69701b73413e1e541d04037d6f37a8e986643fab9574c14467f72888ee9c951f6b721971473818521b02057b6931aeef806239ad9372c74261f12e8ee89a93196d741f77453a1a50190007796b33aced82603baf9170c54063f32c8cea98911b6f761d754b34145e170e0977653da2e38c6e35a19f7ecb4e6dfd2282e4969f156178137b4936165c150c0b75673fa0e18e6c37a39d7cc94c6fff2080e6949d17637a11794f30105a130a0d736139a6e7886a31a59b7acf4a69f92686e0929b11657c177f4d32125811080f71633ba4e58a6833a79978cd486bfb2484e2909913677e157d433c1c561f06017f6d35aaeb84663da99776c34665f52a8aec9e971d69701b73413e1e541d04037d6f37a8e986643fab9574c14467f72888ee9c951f6b721971473818521b02057b6931aeef806239ad9372c74261f12e8ee89a93196d741f77453a1a50190007796b33aced82603baf9170c54063f32c8cea98911b6f761d754b34145e170e0977653da2e38c6e35a19f7ecb4e6dfd2282e4969f156178137b4936165c150c0b75673fa0e18e6c37a39d7cc94c6fff2080e6949d17637a11794f30105a130a0d736139a6e7886a31a59b7acf4a69f92686e0929b11657c177f4d32125811080f71633ba4e58a6833a79978cd486bfb2484e2909913677e157d433c1c561f06017f6d35aaeb84663da99776c34665f52a8aec9e971d69701b73413e1e541d04037d6f37a8e986643fab9574c14467f72888ee9c951f6b721971473818521b02057b6931aeef806239ad9372c74261f12e8ee89a93196d741f77453a1a50190007796b33aced82603baf9170c54063f32c8cea98911b6f761d754b34145e170e0977653da2e38c6e35a19f7ecb4e6dfd2282e4969f156178137b4936165c150c0b75673fa0e18e6c37a39d7cc94c6fff2080e6949d17637a11794f30105a130a0d736139a6e7886a31a59b7acf4a69f92686e0929b11657c177f4d32125811080f71633ba4e58a6833a79978cd486bfb2484e2909913677e157d433c1c561f06017f6d35aaeb84663da99776c34665f52a8aec9e971d69701b73413e1e541d04037d6f37a8e986643fab9574c14467f72888ee9c951f6b721971473818521b02057b6931aeef806239ad9372c74261f12e8ee89a93196d741f77453a1a50190007796b33aced82603baf9170c54063f32c8cea98911b6f761d754b34145e170e0977653da2e38c6e35a19f7ecb4e6dfd2282e4969f156178137b4936165c150c0b75673fa0e18e6c37a39d7cc94c6fff2080e6949d17637a11794f30105a130a0d736139a6e7886a31a59b7acf4a69f92686e0929b11657c177f4d32125811080f71633ba4e58a6833a79978cd486bfb2484e2909913677e157d433c1c561f06017f6d35aaeb84663da99f0588d41413dcd58b2c17be8e7ce5477d80526dc524d8e156e1069898c9c0121",
        "hex": "6a20618706fd378c579c47ca7b05c820bde5577059cbfb0b2b6ce189fafea54a83034db004b34145e170e0977653da2e38c6e35a19f7ecb4e6dfd2282e4969f156178137b4936165c150c0b75673fa0e18e6c37a39d7cc94c6fff2080e6949d17637a11794f30105a130a0d736139a6e7886a31a59b7acf4a69f92686e0929b11657c177f4d32125811080f71633ba4e58a6833a79978cd486bfb2484e2909913677e157d433c1c561f06017f6d35aaeb84663da99776c34665f52a8aec9e971d69701b73413e1e541d04037d6f37a8e986643fab9574c14467f72888ee9c951f6b721971473818521b02057b6931aeef806239ad9372c74261f12e8ee89a93196d741f77453a1a50190007796b33aced82603baf9170c54063f32c8cea98911b6f761d754b34145e170e0977653da2e38c6e35a19f7ecb4e6dfd2282e4969f156178137b4936165c150c0b75673fa0e18e6c37a39d7cc94c6fff2080e6949d17637a11794f30105a130a0d736139a6e7886a31a59b7acf4a69f92686e0929b11657c177f4d32125811080f71633ba4e58a6833a79978cd486bfb2484e2909913677e157d433c1c561f06017f6d35aaeb84663da99776c34665f52a8aec9e971d69701b73413e1e541d04037d6f37a8e986643fab9574c14467f72888ee9c951f6b721971473818521b02057b6931aeef806239ad9372c74261f12e8ee89a93196d741f77453a1a50190007796b33aced82603baf9170c54063f32c8cea98911b6f761d754b34145e170e0977653da2e38c6e35a19f7ecb4e6dfd2282e4969f156178137b4936165c150c0b75673fa0e18e6c37a39d7cc94c6fff2080e6949d17637a11794f30105a130a0d736139a6e7886a31a59b7acf4a69f92686e0929b11657c177f4d32125811080f71633ba4e58a6833a79978cd486bfb2484e2909913677e157d433c1c561f06017f6d35aaeb84663da99776c34665f52a8aec9e971d69701b73413e1e541d04037d6f37a8e986643fab9574c14467f72888ee9c951f6b721971473818521b02057b6931aeef806239ad9372c74261f12e8ee89a93196d741f77453a1a50190007796b33aced82603baf9170c54063f32c8cea98911b6f761d754b34145e170e0977653da2e38c6e35a19f7ecb4e6dfd2282e4969f156178137b4936165c150c0b75673fa0e18e6c37a39d7cc94c6fff2080e6949d17637a11794f30105a130a0d736139a6e7886a31a59b7acf4a69f92686e0929b11657c177f4d32125811080f71633ba4e58a6833a79978cd486bfb2484e2909913677e157d433c1c561f06017f6d35aaeb84663da99776c34665f52a8aec9e971d69701b73413e1e541d04037d6f37a8e986643fab9574c14467f72888ee9c951f6b721971473818521b02057b6931aeef806239ad9372c74261f12e8ee89a93196d741f77453a1a50190007796b33aced82603baf9170c54063f32c8cea98911b6f761d754b34145e170e0977653da2e38c6e35a19f7ecb4e6dfd2282e4969f156178137b4936165c150c0b75673fa0e18e6c37a39d7cc94c6fff2080e6949d17637a11794f30105a130a0d736139a6e7886a31a59b7acf4a69f92686e0929b11657c177f4d32125811080f71633ba4e58a6833a79978cd486bfb2484e2909913677e157d433c1c561f06017f6d35aaeb84663da99f0588d41413dcd58b2c17be8e7ce5477d80526dc524d8e156e1069898c9c0121",
        "type": "nulldata"
      }
    }
  ],
  "blockhash": "70f7ec20af3843e0d144de9ce3637c8baa62723aad58289fd59c71fdb9075fdf",
  "confirmations": 1,
  "time": 1764177228,
  "blocktime": 1764177228
}