{
  "hex": "0100000000010101e150993ba225c355805bb6773b0d8b907d470b37855966950bacb4e5b68c940000000000feffffff0200e1f50500000000fdd5046a20122b4256db62e305bc31c0e1f0f57571bbc6476a926a705f29324d3bbbbf251e4db004aaaa10cb276e3efb8455b33060a6e06dec56fbe25dcd9679ecf4733575a77ea28a8a30eb074e1edba47593104086c04dcc76dbc27dedb659ccd4531555875e82eaea508b672e7ebbc415f37020e6a02dac16bba21d8dd639acb4337535e73ee2caca70ab470e5e9be435d35000c6800d8c369b823dadf6198c94135515c71ec22a2a904ba7eebe7b04d533b0e02660ed6cd67b62dd4d16f96c74f3b5f527fe220a0ab06b87ce9e5b24f51390c00640cd4cf65b42fd6d36d94c54d395d507de026a6ad00be7aefe3b449573f0a06620ad2c963b229d0d56b92c34b3f5b567be624a4af02bc78ede1b64b553d08046008d0cb61b02bd2d76990c1493d595479e42aaaa10cb276e3efb8455b33060a6e06dec56fbe25dcd9679ecf4733575a77ea28a8a30eb074e1edba47593104086c04dcc76dbc27dedb659ccd4531555875e82eaea508b672e7ebbc415f37020e6a02dac16bba21d8dd639acb4337535e73ee2caca70ab470e5e9be435d35000c6800d8c369b823dadf6198c94135515c71ec22a2a904ba7eebe7b04d533b0e02660ed6cd67b62dd4d16f96c74f3b5f527fe220a0ab06b87ce9e5b24f51390c00640cd4cf65b42fd6d36d94c54d395d507de026a6ad00be7aefe3b449573f0a06620ad2c963b229d0d56b92c34b3f5b567be624a4af02bc78ede1b64b553d08046008d0cb61b02bd2d76990c1493d595479e42aaaa10cb276e3efb8455b33060a6e06dec56fbe25dcd9679ecf4733575a77ea28a8a30eb074e1edba47593104086c04dcc76dbc27dedb659ccd4531555875e82eaea508b672e7ebbc415f37020e6a02dac16bba21d8dd639acb4337535e73ee2caca70ab470e5e9be435d35000c6800d8c369b823dadf6198c94135515c71ec22a2a904ba7eebe7b04d533b0e02660ed6cd67b62dd4d16f96c74f3b5f527fe220a0ab06b87ce9e5b24f51390c00640cd4cf65b42fd6d36d94c54d395d507de026a6ad00be7aefe3b449573f0a06620ad2c963b229d0d56b92c34b3f5b567be624a4af02bc78ede1b64b553d08046008d0cb61b02bd2d76990c1493d595479e42aaaa10cb276e3efb8455b33060a6e06dec56fbe25dcd9679ecf4733575a77ea28a8a30eb074e1edba47593104086c04dcc76dbc27dedb659ccd4531555875e82eaea508b672e7ebbc415f37020e6a02dac16bba21d8dd639acb4337535e73ee2caca70ab470e5e9be435d35000c6800d8c369b823dadf6198c94135515c71ec22a2a904ba7eebe7b04d533b0e02660ed6cd67b62dd4d16f96c74f3b5f527fe220a0ab06b87ce9e5b24f51390c00640cd4cf65b42fd6d36d94c54d395d507de026a6ad00be7aefe3b449573f0a06620ad2c963b229d0d56b92c34b3f5b567be624a4af02bc78ede1b64b553d08046008d0cb61b02bd2d76990c1493d595479e42aaaa10cb276e3efb8455b33060a6e06dec56fbe25dcd9679ecf4733575a77ea28a8a30eb074e1edba47593104086c04dcc76dbc27dedb659ccd4531555875e82eaea508b672e7ebbc415f37020e6a02dac16bba21d8dd639acb4337535e73ee2caca70ab470e5e9be435d35000c6800d8c369b823dadf6198c94135515c71ec22a2a904ba7eebe7b04d533b0e02660edbef4f3933db7a69125e4eec2998144bfcec193253a83d3844837c7b29296ab1b6076a04b792d0000225120e1b5521aadcfb1e4646a3b30db0af81716a981f547885c4f85fdf003911884b602fd7509b5bdc1130346c0626d499c9de31d7181ea945b4a6bf04c1a6747452bbe232a122317f8bc8599919c54ef5a4c980ec06c1bb60f05d54174781cd5e1bb671a9073b8d9a5f931d621dbe6c2ec2c8b5b1c44b8c132c29c58c5ecfc5ad7af2a4895416f7792881c0bf08ea73f86f2aac317d0423e0e57fd46633c0aa0c04dd928a2c3b3b3800faab27feb1db36ff3488bf08514ab67b2dbeb74df8279fb54775e35bc320532e7f17d32aba06e8bea884b90ad02da3d2d3b03e542d918256d9a107723243ba130ff34e6560aea490e44c1fd6fcf0f359abb1a8d79055d4cbab3241205a265e40e4ab34a31200f917b754ea8757574adcd33b724def44a35459e5c7c07ccb6e3a54036dc039d8fe655e83af82d9a84264d01bf13456eed273653ad35a166c183adb46876102153291b3f25626fb0e7438b4fb04e9e71821c2a3764fa02e1fa42dee11542bed7231738b35383c7a68cbb9e2d57cbba4a65781f67d7351f508125922aa76bfd7a095a55ed27c727853e654614aa595816decf956f50bcae0ce2e3200dd0350f7a3daf75ccdd4ccd2f8683dcd338c5a5adf740346da3fa96adbed7f5a6db6901b512af0c2a594a4af03220dcbd04c439a0a432b7d785fafd90d829a2c6fcf5bf6a2464f9ddcd8bdd23bfba0c628f49e0a204b410688b1cc04531ef39b09457d1c1b2e57c033b9a4fcf5a6fd40a2d6f4d04a4d92f12532e9b8ddafd2f3b69f9087fe25ef50616df9577e2a30941dd770a8bc8ff3390f803b297f9227f135552b5e56172268280608ccfc2d8e9791a25b15f6ba37b61b57d4b378abf88629a6af34e94fcc14bdacad40c7f090bc66475c6985a9efba2ef50ced879c3929d619bde67b2c5af9535f6945f6006dfe6f72e6112c64b18c6a310957c99b3cee901fec1b173b7b70c0895879e9b1ab56f473c1057739f0e9df5621927f290dd0aaefc67ed3783177d38bceb54c3fbcab16859172e1dbc40238167bd29bc518cea17e93fbbe58c619b4ffcf742a6414e9c352b7e3f62a65a114fb9925fd66093263988da86d45aacdfa75c4dd5242a22bd959a835fa690eaba99f96e3672a594142a2b29a81628607c40f9e2fde743867a1034caf558d8f47eba075427d13a8dc007778a3108b3b18f5c62971310032e0ba1d2f3a88390d3d87c2f722d4ce8eb4d1b88a795fa3754f5849881cf3c9a0c56131f15b85044f12d90f73b34fa3d1ee34d69dad7032897c7efbc078deb5f461ab5649df2347ab587175f27d522a8b37a37db0678faeb25c8252a03c07e302b87eb023ca79cd8840a17ed52a23425ce488c0886bad5a76b2525f971e7a27822e2c90be978bf1156e869808fcfa2867e0b830b29c34c6de4396c78c89d2dd49370a0e98e7a032d60810498cc91376906eacd2e3faca9498c2c53a6ea05342d2789b86a0c1e34203f954ef88bc3f0de5986072c39243de4d50a45cfe17fd38f7e6117b695b6d28ccc3ef4922504b7845c45b4ea61bc5354bb338976ea5b49bd8bce66e93308c0d6cdab63775bf7abea49df2d2bd507c92818f2edcb6441855d6d39a937b3f9408b9705f32312ca2a727c098a32102188fcb4b033fdf7321a3fbb3cad16684e30f0588583c32fac59695de66f46bb67b4f331391ef1ea1d7b6d119d69bb45c9a1b0f0ec840c88c12e3d985519d9ab3906d9058cf2a64dd5af469df8b2c9adcdd601760b41e00bb066811e92a85c7f3ab5bb2cabbe62550291b93c455049e0227d29cb25d82d98f551da534a4400d95f5e0c79460e484a7b2ff6ff869ae61cf6707333e5745246a21aad8a857d915fd2202190605305635989a7019110a2baf3ef4ad00e42609cc9303148a2a3b48ba2ff52adcc58240e34d067cfa17511942c57c9bce3e1c1d522f2efa4170f1231c6d86b8146383fe30c8343b416ef2347e76fd975b525082d00410395331b5d077fc376d304464a830a062e3b77d180218d2ddead7c87f54cafea00a6bc624d5ce3ff313333bf3a0f03be84825b39687c87f2f1d4e3bdae7b2c93af675345f1ff4b5fe995788fedb2146487d145b84a08837795fbb570b1d534b58b4b01689c5cb02e09d5f98739c1aaee7962c875b17286b7283ba58fc1b85084323b43d979e68fcb360beabb842a56fb289d7979aa8427afef3f865bf89d5de4d4f150f8539775f95ecfe0179b0b1ca4ca7a8d3a2dc33a74cb34a17d761fef1d48a528d44c2700fac1fd2f01e0ffa54e4936bc93c8150e8910eb3aa375016e97f7059338a82f1d416983950376ffb78777ddfe28889389187f030c12a86bf363559ed87c065a6693ffb9b31833d55c8ce0d77ff416414e8cc1459bcd8540a43643eaae6aa97d35521b5c1aa62b9432c1c50d62a9adc04d80026a4488c7d7e8d35fcc7c6b7b63ad512ce027b0e873bc28763cfb15ed6dece073f16ecaac8e38e9cb2f2612b4672ce485712884155cc788dbf156ee8d2e283135dced4ba5cc7b01b4b1762227ae54759f6415f1238b2e75173b96c8fd71e5eb2846212634c9a95ef48f94e8265c5878c01fc3481c89fe31584001f26a5d5c6011e587b24620671484f1f7de58e05822afd7521627e1583cf49a691d506d4c3b5df9a0d62b0d000f7d7dafc1559f9f21bfb1c04dab561020c68b5299210edf8de3ab6ed5beda6c04881bd02549bf870199dd30385e974043abf97d1f04e62e13ee1954e48d1a08321c3188ecc512df1d3bd7350e52261a1dfdcecf822610165d731c3849e694bf94eea31aedb3b45065c0b3e503380b74b96020e94a49618518305a4e5e576585e028c8b4f58840e668a3ce55d771db8abff956b52a4a4dc6bdbee9c79ea472a9ab0c7612a7936fdbe16844ded52cd9b254b1e6cb2b0c8f64df5acdc42564b94eb7fc6e518f17d24cabe796ffea4129ed5cf39710b6ca05ff4ab130f4a96564ad6f98ae0fb0d8e2526a2bd7b58e410f0d5910122c79c196b045230a8ab66858936f16ca2d70c1eb2d97fd2b6635d494a2962bcdc951fc09e98c7cea6f7f9ffba067cab30eaa20dcb7818273e8ea664f011bd0058194da2483735b4669487960cf36c5120a12f7ffe73cf3e5172c5f2fe4dc1fb5860ca7bd0db9d93d2eaaf84c3da95e202b0ea8001fbee0ca5a1a949dfe946ba03e0c26c7484f134d5ce213f54283004e4f70ddf3c862973132e5cf54f58e6d58d4aa1198bc9d3f59385b77fbfbe560ec5d075ac9faaf80a22d952543aded9e9d11b80e730a4d6daf7325e66b92c7fdb90504920a454868a26868aefe8bf1393b356514418c8657b41ddf1877040e1b252b344f6f79818b95b2dbeaf9fa0016497b9eacaebbddf3fe015c6e829098a4d1d4dee13e717a8096a3b1b2b7c8d5dd0000000000000000000000000000000000000000000000000000000000111c273301fd210500dae2754646707e30aaa2734bf3c11383bffecc759aef7e5a9bfef460f286ab3f0bf09b73cb882fc126c4faf0c7b6cb59de0a6f11dce594c1cc07100dd5a2c37d3c951b9af671ea741b2211fd28ac4c5b69bb73a20f10d4aa6cab3773e5b77770068c79256525298753901bd6a51cf4aa02cd695eed8994a8171c32f8a21b16db7083c822bb0b11451f4e54c5716193bb1ae4f56178899fb9f8d401fd36d4b8e753911c48c113af775ec6a8fc83035aacd2d560e4ed96beabefda8d889642f6c068ec238ff8ccff142156c43dddd09081d61e8b792891db53914bc63de4708093907df1a6136a3915e46f5f06630399a1aa44099dd9e46da18eb115a912f2d8138876c5767f4bcf5a94af043858c194119c5ebec5e0dca685a31658adbda7b9306efb214f747f09b541ea2514211b1ff417757b6ca8b37eafadf285336ca6e43d6fc000c9281e660c4e94f78ec58979310bc33420c56a3eabf877286cb601f73251eff0a8af20cd9dc1f115385b335b7b633c6e1a185dc07095dfa9e2d0273575867e570fe6ba12ae96088797ddc83ab2cdc94f7f51818b8a1cdb9c9f085dac6ecc14ab2b75613ec7375bde58596ae58dfeb2e824ac759ec2aaf58a9c6baa821d954b9cd0737d803cf06bd4311e28e1c385ac576764d52242432f6579aa8677b2188d81470a5da2c0fcf1506f55f634d3075503b395b09b1035844bb04ec72bcde026c746bde377b573f75457b2ed88c2c6133d82af2908eb20e34feb61c336a91e7dce7b2add2fd8bd423fd040e625fc50350425bfea70b826db162c8eb11abf03a914a29db072904113a72168a4c057ce4e0beafd6df128e6d6cb9b0247fbb54d3dfd664cc03aa93db735a902787670f0dc86392eb35d41d937d528181d51d3e8c05347e2ebeceaa21e918686be01cf446388eecc0408ed6e8756aa67d691b6b8cc7836b18357deb5e4ec0d6af2f73ec0fe6fd4ba92b43236f6635da0705e96c59ad0e497fafa58370e549113a81c3a25b46999d94645e5bdf5526d4845b158e6adfe384a333c9c53759d8d6d12e1a5a4d22c82ca7ec4533c1d7a18c0d7a55d70598545bc609a5d94fa05effd21f1d96614b8bbe5dd29fa65c9e1507ded57c4746f786ccff4bb7c0c8b1bfb800f74bb4ed76e64fd8e29c9094f748742fe1e8639eab57e3e77a6f78abb6c858ee508f475a1e428e9947688bc6b1a897ae43467f967c75c5a269ae9730dfd49a2098c4bb02734da0660275181fad09a4244f80cfb98db0127e70f1ae7aade728b7f2175ec2a233015adeab02b0047beeb9473fb1ea1248ec2fea57879d9262ec11ea6b73c4ef51f28d26da5d1550c641d80588f2abd681361b0e612e7498d0bfe40dd2be39f12e13e94cc82b4d6d8a3e57c16bc3c2574d58a90f875ca3de1649a5919ba2433352e7bccf04eb50d8a0bfdd9666eb6cfeed0bcafc91ba819cde26ae0962422aa5b1c12462e90eb82b5ac52bc56110b5ea38eb92754709a49de2c18467bb47db38c94da320a17517713ae27368cea431ac42d511c646e7b1d1028a06f92bad75c41b16e3ccc3de165135e8e45bc2ad2e3ea181f76ddd88ff6890a1e07d61ec527ecfeb93e6c7ea01dfaaa5779300290966d856f8266dfc49adc607712499da83e38577066d01e3b98173fcf4d13b76e71afc29e60dee2260fbb01d04ebbaaaedccaa9e37cb15f7b879a85caac6b14b85b91f82e584f24e6806b12908cac9920238684967a0ac40628132e487531ecf52067ad657f8e21cc2c0c113f2bd3e4ad4c072162cde7f9c7a70f346c0ea57ddab1a43265b5885151961a4bcd57e8be693bcc61d15c80d11bdd431495a9cab76c000000",
  "txid": "8dba2b7556660fc16664ceabde42d00cf39f1ae1e235951040304fffc00fc5dd",
  "hash": "a4a571d62b315bbae4052debfbcfa0342132336b95bd11adb4c00cc532700d0c",
  "size": 5085,
  "vsize": 2278,
  "version": 1,
  "locktime": 108,
  "vin": [
    {
      "txid": "948cb6e5b4ac0b95665985370b477d908b0d3b77b65b8055c325a23b9950e101",
      "vout": 0,
      "scriptSig": {
        "asm": "",
        "hex": ""
      },
      "txinwitness": [
        "b5bdc1130346c0626d499c9de31d7181ea945b4a6bf04c1a6747452bbe232a122317f8bc8599919c54ef5a4c980ec06c1bb60f05d54174781cd5e1bb671a9073b8d9a5f931d621dbe6c2ec2c8b5b1c44b8c132c29c58c5ecfc5ad7af2a4895416f7792881c0bf08ea73f86f2aac317d0423e0e57fd46633c0aa0c04dd928a2c3b3b3800faab27feb1db36ff3488bf08514ab67b2dbeb74df8279fb54775e35bc320532e7f17d32aba06e8bea884b90ad02da3d2d3b03e542d918256d9a107723243ba130ff34e6560aea490e44c1fd6fcf0f359abb1a8d79055d4cbab3241205a265e40e4ab34a31200f917b754ea8757574adcd33b724def44a35459e5c7c07ccb6e3a54036dc039d8fe655e83af82d9a84264d01bf13456eed273653ad35a166c183adb46876102153291b3f25626fb0e7438b4fb04e9e71821c2a3764fa02e1fa42dee11542bed7231738b35383c7a68cbb9e2d57cbba4a65781f67d7351f508125922aa76bfd7a095a55ed27c727853e654614aa595816decf956f50bcae0ce2e3200dd0350f7a3daf75ccdd4ccd2f8683dcd338c5a5adf740346da3fa96adbed7f5a6db6901b512af0c2a594a4af03220dcbd04c439a0a432b7d785fafd90d829a2c6fcf5bf6a2464f9ddcd8bdd23bfba0c628f49e0a204b410688b1cc04531ef39b09457d1c1b2e57c033b9a4fcf5a6fd40a2d6f4d04a4d92f12532e9b8ddafd2f3b69f9087fe25ef50616df9577e2a30941dd770a8bc8ff3390f803b297f9227f135552b5e56172268280608ccfc2d8e9791a25b15f6ba37b61b57d4b378abf88629a6af34e94fcc14bdacad40c7f090bc66475c6985a9efba2ef50ced879c3929d619bde67b2c5af9535f6945f6006dfe6f72e6112c64b18c6a310957c99b3cee901fec1b173b7b70c0895879e9b1ab56f473c1057739f0e9df5621927f290dd0aaefc67ed3783177d38bceb54c3fbcab16859172e1dbc40238167bd29bc518cea17e93fbbe58c619b4ffcf742a6414e9c352b7e3f62a65a114fb9925fd66093263988da86d45aacdfa75c4dd5242a22bd959a835fa690eaba99f96e3672a594142a2b29a81628607c40f9e2fde743867a1034caf558d8f47eba075427d13a8dc007778a3108b3b18f5c62971310032e0ba1d2f3a88390d3d87c2f722d4ce8eb4d1b88a795fa3754f5849881cf3c9a0c56131f15b85044f12d90f73b34fa3d1ee34d69dad7032897c7efbc078deb5f461ab5649df2347ab587175f27d522a8b37a37db0678faeb25c8252a03c07e302b87eb023ca79cd8840a17ed52a23425ce488c0886bad5a76b2525f971e7a27822e2c90be978bf1156e869808fcfa2867e0b830b29c34c6de4396c78c89d2dd49370a0e98e7a032d60810498cc91376906eacd2e3faca9498c2c53a6ea05342d2789b86a0c1e34203f954ef88bc3f0de5986072c39243de4d50a45cfe17fd38f7e6117b695b6d28ccc3ef4922504b7845c45b4ea61bc5354bb338976ea5b49bd8bce66e93308c0d6cdab63775bf7abea49df2d2bd507c92818f2edcb6441855d6d39a937b3f9408b9705f32312ca2a727c098a32102188fcb4b033fdf7321a3fbb3cad16684e30f0588583c32fac59695de66f46bb67b4f331391ef1ea1d7b6d119d69bb45c9a1b0f0ec840c88c12e3d985519d9ab3906d9058cf2a64dd5af469df8b2c9adcdd601760b41e00bb066811e92a85c7f3ab5bb2cabbe62550291b93c455049e0227d29cb25d82d98f551da534a4400d95f5e0c79460e484a7b2ff6ff869ae61cf6707333e5745246a21aad8a857d915fd2202190605305635989a7019110a2baf3ef4ad00e42609cc9303148a2a3b48ba2ff52adcc58240e34d067cfa17511942c57c9bce3e1c1d522f2efa4170f1231c6d86b8146383fe30c8343b416ef2347e76fd975b525082d00410395331b5d077fc376d304464a830a062e3b77d180218d2ddead7c87f54cafea00a6bc624d5ce3ff313333bf3a0f03be84825b39687c87f2f1d4e3bdae7b2c93af675345f1ff4b5fe995788fedb2146487d145b84a08837795fbb570b1d534b58b4b01689c5cb02e09d5f98739c1aaee7962c875b17286b7283ba58fc1b85084323b43d979e68fcb360beabb842a56fb289d7979aa8427afef3f865bf89d5de4d4f150f8539775f95ecfe0179b0b1ca4ca7a8d3a2dc33a74cb34a17d761fef1d48a528d44c2700fac1fd2f01e0ffa54e4936bc93c8150e8910eb3aa375016e97f7059338a82f1d416983950376ffb78777ddfe28889389187f030c12a86bf363559ed87c065a6693ffb9b31833d55c8ce0d77ff416414e8cc1459bcd8540a43643eaae6aa97d35521b5c1aa62b9432c1c50d62a9adc04d80026a4488c7d7e8d35fcc7c6b7b63ad512ce027b0e873bc28763cfb15ed6dece073f16ecaac8e38e9cb2f2612b4672ce485712884155cc788dbf156ee8d2e283135dced4ba5cc7b01b4b1762227ae54759f6415f1238b2e75173b96c8fd71e5eb2846212634c9a95ef48f94e8265c5878c01fc3481c89fe31584001f26a5d5c6011e587b24620671484f1f7de58e05822afd7521627e1583cf49a691d506d4c3b5df9a0d62b0d000f7d7dafc1559f9f21bfb1c04dab561020c68b5299210edf8de3ab6ed5beda6c04881bd02549bf870199dd30385e974043abf97d1f04e62e13ee1954e48d1a08321c3188ecc512df1d3bd7350e52261a1dfdcecf822610165d731c3849e694bf94eea31aedb3b45065c0b3e503380b74b96020e94a49618518305a4e5e576585e028c8b4f58840e668a3ce55d771db8abff956b52a4a4dc6bdbee9c79ea472a9ab0c7612a7936fdbe16844ded52cd9b254b1e6cb2b0c8f64df5acdc42564b94eb7fc6e518f17d24cabe796ffea4129ed5cf39710b6ca05ff4ab130f4a96564ad6f98ae0fb0d8e2526a2bd7b58e410f0d5910122c79c196b045230a8ab66858936f16ca2d70c1eb2d97fd2b6635d494a2962bcdc951fc09e98c7cea6f7f9ffba067cab30eaa20dcb7818273e8ea664f011bd0058194da2483735b4669487960cf36c5120a12f7ffe73cf3e5172c5f2fe4dc1fb5860ca7bd0db9d93d2eaaf84c3da95e202b0ea8001fbee0ca5a1a949dfe946ba03e0c26c7484f134d5ce213f54283004e4f70ddf3c862973132e5cf54f58e6d58d4aa1198bc9d3f59385b77fbfbe560ec5d075ac9faaf80a22d952543aded9e9d11b80e730a4d6daf7325e66b92c7fdb90504920a454868a26868aefe8bf1393b356514418c8657b41ddf1877040e1b252b344f6f79818b95b2dbeaf9fa0016497b9eacaebbddf3fe015c6e829098a4d1d4dee13e717a8096a3b1b2b7c8d5dd0000000000000000000000000000000000000000000000000000000000111c273301",
        "00dae2754646707e30aaa2734bf3c11383bffecc759aef7e5a9bfef460f286ab3f0bf09b73cb882fc126c4faf0c7b6cb59de0a6f11dce594c1cc07100dd5a2c37d3c951b9af671ea741b2211fd28ac4c5b69bb73a20f10d4aa6cab3773e5b77770068c79256525298753901bd6a51cf4aa02cd695eed8994a8171c32f8a21b16db7083c822bb0b11451f4e54c5716193bb1ae4f56178899fb9f8d401fd36d4b8e753911c48c113af775ec6a8fc83035aacd2d560e4ed96beabefda8d889642f6c068ec238ff8ccff142156c43dddd09081d61e8b792891db53914bc63de4708093907df1a6136a3915e46f5f06630399a1aa44099dd9e46da18eb115a912f2d8138876c5767f4bcf5a94af043858c194119c5ebec5e0dca685a31658adbda7b9306efb214f747f09b541ea2514211b1ff417757b6ca8b37eafadf285336ca6e43d6fc000c9281e660c4e94f78ec58979310bc33420c56a3eabf877286cb601f73251eff0a8af20cd9dc1f115385b335b7b633c6e1a185dc07095dfa9e2d0273575867e570fe6ba12ae96088797ddc83ab2cdc94f7f51818b8a1cdb9c9f085dac6ecc14ab2b75613ec7375bde58596ae58dfeb2e824ac759ec2aaf58a9c6baa821d954b9cd0737d803cf06bd4311e28e1c385ac576764d52242432f6579aa8677b2188d81470a5da2c0fcf1506f55f634d3075503b395b09b1035844bb04ec72bcde026c746bde377b573f75457b2ed88c2c6133d82af2908eb20e34feb61c336a91e7dce7b2add2fd8bd423fd040e625fc50350425bfea70b826db162c8eb11abf03a914a29db072904113a72168a4c057ce4e0beafd6df128e6d6cb9b0247fbb54d3dfd664cc03aa93db735a902787670f0dc86392eb35d41d937d528181d51d3e8c05347e2ebeceaa21e918686be01cf446388eecc0408ed6e8756aa67d691b6b8cc7836b18357deb5e4ec0d6af2f73ec0fe6fd4ba92b43236f6635da0705e96c59ad0e497fafa58370e549113a81c3a25b46999d94645e5bdf5526d4845b158e6adfe384a333c9c53759d8d6d12e1a5a4d22c82ca7ec4533c1d7a18c0d7a55d70598545bc609a5d94fa05effd21f1d96614b8bbe5dd29fa65c9e1507ded57c4746f786ccff4bb7c0c8b1bfb800f74bb4ed76e64fd8e29c9094f748742fe1e8639eab57e3e77a6f78abb6c858ee508f475a1e428e9947688bc6b1a897ae43467f967c75c5a269ae9730dfd49a2098c4bb02734da0660275181fad09a4244f80cfb98db0127e70f1ae7aade728b7f2175ec2a233015adeab02b0047beeb9473fb1ea1248ec2fea57879d9262ec11ea6b73c4ef51f28d26da5d1550c641d80588f2abd681361b0e612e7498d0bfe40dd2be39f12e13e94cc82b4d6d8a3e57c16bc3c2574d58a90f875ca3de1649a5919ba2433352e7bccf04eb50d8a0bfdd9666eb6cfeed0bcafc91ba819cde26ae0962422aa5b1c12462e90eb82b5ac52bc56110b5ea38eb92754709a49de2c18467bb47db38c94da320a17517713ae27368cea431ac42d511c646e7b1d1028a06f92bad75c41b16e3ccc3de165135e8e45bc2ad2e3ea181f76ddd88ff6890a1e07d61ec527ecfeb93e6c7ea01dfaaa5779300290966d856f8266dfc49adc607712499da83e38577066d01e3b98173fcf4d13b76e71afc29e60dee2260fbb01d04ebbaaaedccaa9e37cb15f7b879a85caac6b14b85b91f82e584f24e6806b12908cac9920238684967a0ac40628132e487531ecf52067ad657f8e21cc2c0c113f2bd3e4ad4c072162cde7f9c7a70f346c0ea57ddab1a43265b5885151961a4bcd57e8be693bcc61d15c80d11bdd431495a9cab7"
      ],
      "sequence": 4294967294
    }
  ],
  "vout": [
    {
      "value": 1.0,
      "n": 0,
      "scriptPubKey": {
        "asm": "OP_RETURN 122b4256db62e305bc31c0e1f0f57571bbc6476a926a705f29324d3bbbbf251e aaaa10cb276e3efb8455b33060a6e06dec56fbe25dcd9679ecf4733575a77ea28a8a30eb074e1edba47593104086c04dcc76dbc27dedb659ccd4531555875e82eaea508b672e7ebbc415f37020e6a02dac16bba21d8dd639acb4337535e73ee2caca70ab470e5e9be435d35000c6800d8c369b823dadf6198c94135515c71ec22a2a904ba7eebe7b04d533b0e02660ed6cd67b62dd4d16f96c74f3b5f527fe220a0ab06b87ce9e5b24f51390c00640cd4cf65b42fd6d36d94c54d395d507de026a6ad00be7aefe3b449573f0a06620ad2c963b229d0d56b92c34b3f5b567be624a4af02bc78ede1b64b553d08046008d0cb61b02bd2d76990c1493d595479e42aaaa10cb276e3efb8455b33060a6e06dec56fbe25dcd9679ecf4733575a77ea28a8a30eb074e1edba47593104086c04dcc76dbc27dedb659ccd4531555875e82eaea508b672e7ebbc415f37020e6a02dac16bba21d8dd639acb4337535e73ee2caca70ab470e5e9be435d35000c6800d8c369b823dadf6198c94135515c71ec22a2a904ba7eebe7b04d533b0e02660ed6cd67b62dd4d16f96c74f3b5f527fe220a0ab06b87ce9e5b24f51390c00640cd4cf65b42fd6d36d94c54d395d507de026a6ad00be7aefe3b449573f0a06620ad2c963b229d0d56b92c34b3f5b567be624a4af02bc78ede1b64b553d08046008d0cb61b02bd2d76990c1493d595479e42aaaa10cb276e3efb8455b33060a6e06dec56fbe25dcd9679ecf4733575a77ea28a8a30eb074e1edba47593104086c04dcc76dbc27dedb659ccd4531555875e82eaea508b672e7ebbc415f37020e6a02dac16bba21d8dd639acb4337535e73ee2caca70ab470e5e9be435d35000c6800d8c369b823dadf6198c94135515c71ec22a2a904ba7eebe7b04d533b0e02660ed6cd67b62dd4d16f96c74f3b5f527fe220a0ab06b87ce9e5b24f51390c00640cd4cf65b42fd6d36d94c54d395d507de026a6ad00be7aefe3b449573f0a06620ad2c963b229d0d56b92c34b3f5b567be624a4af02bc78ede1b64b553d08046008d0cb61b02bd2d76990c1493d595479e42aaaa10cb276e3efb8455b33060a6e06dec56fbe25dcd9679ecf4733575a77ea28a8a30eb074e1edba47593104086c04dcc76dbc27dedb659ccd4531555875e82eaea508b672e7ebbc415f37020e6a02dac16bba21d8dd639acb4337535e73ee2caca70ab470e5e9be435d35000c6800d8c369b823dadf6198c94135515c71ec22a2a904ba7eebe7b04d533b0e02660ed6cd67b62dd4d16f96c74f3b5f527fe220a0ab06b87ce9e5b24f51390c00640cd4cf65b42fd6d36d94c54d395d507de026a6ad00be7aefe3b449573f0a06620ad2c963b229d0d56b92c34b3f5b567be624a4af02bc78ede1b64b553d08046008d0cb61b02bd2d76990c1493d595479e42aaaa10cb276e3efb8455b33060a6e06dec56fbe25dcd9679ecf4733575a77ea28a8a30eb074e1edba47593104086c04dcc76dbc27dedb659ccd4531555875e82eaea508b672e7ebbc415f37020e6a02dac16bba21d8dd639acb4337535e73ee2caca70ab470e5e9be435d35000c6800d8c369b823dadf6198c94135515c71ec22a2a904ba7eebe7b04d533b0e02660edbef4f3933db7a69125e4eec2998144bfcec193253a83d3844837c7b29296ab1b",
        "hex": "6a20122b4256db62e305bc31c0e1f0f57571bbc6476a926a705f29324d3bbbbf251e4db004aaaa10cb276e3efb8455b33060a6e06dec56fbe25dcd9679ecf4733575a77ea28a8a30eb074e1edba47593104086c04dcc76dbc27dedb659ccd4531555875e82eaea508b672e7ebbc415f37020e6a02dac16bba21d8dd639acb4337535e73ee2caca70ab470e5e9be435d35000c6800d8c369b823dadf6198c94135515c71ec22a2a904ba7eebe7b04d533b0e02660ed6cd67b62dd4d16f96c74f3b5f527fe220a0ab06b87ce9e5b24f51390c00640cd4cf65b42fd6d36d94c54d395d507de026a6ad00be7aefe3b449573f0a06620ad2c963b229d0d56b92c34b3f5b567be624a4af02bc78ede1b64b553d08046008d0cb61b02bd2d76990c1493d595479e42aaaa10cb276e3efb8455b33060a6e06dec56fbe25dcd9679ecf4733575a77ea28a8a30eb074e1edba47593104086c04dcc76dbc27dedb659ccd4531555875e82eaea508b672e7ebbc415f37020e6a02dac16bba21d8dd639acb4337535e73ee2caca70ab470e5e9be435d35000c6800d8c369b823dadf6198c94135515c71ec22a2a904ba7eebe7b04d533b0e02660ed6cd67b62dd4d16f96c74f3b5f527fe220a0ab06b87ce9e5b24f51390c00640cd4cf65b42fd6d36d94c54d395d507de026a6ad00be7aefe3b449573f0a06620ad2c963b229d0d56b92c34b3f5b567be624a4af02bc78ede1b64b553d08046008d0cb61b02bd2d76990c1493d595479e42aaaa10cb276e3efb8455b33060a6e06dec56fbe25dcd9679ecf4733575a77ea28a8a30eb074e1edba47593104086c04dcc76dbc27dedb659ccd4531555875e82eaea508b672e7ebbc415f37020e6a02dac16bba21d8dd639acb4337535e73ee2caca70ab470e5e9be435d35000c6800d8c369b823dadf6198c94135515c71ec22a2a904ba7eebe7b04d533b0e02660ed6cd67b62dd4d16f96c74f3b5f527fe220a0ab06b87ce9e5b24f51390c00640cd4cf65b42fd6d36d94c54d395d507de026a6ad00be7aefe3b449573f0a06620ad2c963b229d0d56b92c34b3f5b567be624a4af02bc78ede1b64b553d08046008d0cb61b02bd2d76990c1493d595479e42aaaa10cb276e3efb8455b33060a6e06dec56fbe25dcd9679ecf4733575a77ea28a8a30eb074e1edba47593104086c04dcc76dbc27dedb659ccd4531555875e82eaea508b672e7ebbc415f37020e6a02dac16bba21d8dd639acb4337535e73ee2caca70ab470e5e9be435d35000c6800d8c369b823dadf6198c94135515c71ec22a2a904ba7eebe7b04d533b0e02660ed6cd67b62dd4d16f96c74f3b5f527fe220a0ab06b87ce9e5b24f51390c00640cd4cf65b42fd6d36d94c54d395d507de026a6ad00be7aefe3b449573f0a06620ad2c963b229d0d56b92c34b3f5b567be624a4af02bc78ede1b64b553d08046008d0cb61b02bd2d76990c1493d595479e42aaaa10cb276e3efb8455b33060a6e06dec56fbe25dcd9679ecf4733575a77ea28a8a30eb074e1edba47593104086c04dcc76dbc27dedb659ccd4531555875e82eaea508b672e7ebbc415f37020e6a02dac16bba21d8dd639acb4337535e73ee2caca70ab470e5e9be435d35000c6800d8c369b823dadf6198c94135515c71ec22a2a904ba7eebe7b04d533b0e02660edbef4f3933db7a69125e4eec2998144bfcec193253a83d3844837c7b29296ab1b",
        "type": "nulldata"
      }
    },
    {
      "value": 499989.831,
      "n": 1,
      "scriptPubKey": {
        "asm": "1 e1b5521aadcfb1e4646a3b30db0af81716a981f547885c4f85fdf003911884b6",
        "hex": "5120e1b5521aadcfb1e4646a3b30db0af81716a981f547885c4f85fdf003911884b6",
        "reqSigs": 1,
        "type": "witness_v1_scripthash",
        "addresses": [
          "3QJmnh"
        ]
      }
    }
  ],
  "blockhash": "fed18006ccdab590a9e00afae0c126c0756e5b686d02c0375b028c4c6af5cb31",
  "confirmations": 1,
  "time": 1764177489,
  "blocktime": 1764177489
}