{
  "hex": "01000000000101ae818bd33664430a7ee3194b25a45b18e26d27ac8e12f2734f10904542691f1f0000000000feffffff028022c5f6782d0000225120a092b7bd3591ba4a8270e9eee7ed0000e0a3e5c10563c6b89194adab6ad0e8af00e1f50500000000fdd5046a20d9edc8f660b6e2d74e319b428d244d06eee59f716433bc3c4d7f9d91995fe1fc4db004c42c2a8d95a1487d253009617b4f60a6bc72a37706ecf4c8ba0cf0f4482abe9fe40c0aadb581685d051029415b6f40869c52835726ccd4e89a2cd0d4680a9ebf846c6acdd5e1083d657049213b0f20e6fc32e33746acb488fa4cb0b4086afedfa44c4aedf5c1281d455069011b2f00c6dc12c317668c94a8da6c9094284adeff44acaa0d1521c8fda5b089e1fbcfe0263cf223f7866c74483a8c7074c8aa3e1f648c8a2d3501e8dd8590a9c1dbefc0061cd203d7a64c54681aac5054e88a1e3f04ecea4d556188bde5f0c9a1bb8fa0667cb263b7c62c34087acc303488ea7e5f24ccca6d7541a89dc5d0e9819baf80465c924397e60c14285aec1014a8ca5e7fc42c2a8d95a1487d253009617b4f60a6bc72a37706ecf4c8ba0cf0f4482abe9fe40c0aadb581685d051029415b6f40869c52835726ccd4e89a2cd0d4680a9ebf846c6acdd5e1083d657049213b0f20e6fc32e33746acb488fa4cb0b4086afedfa44c4aedf5c1281d455069011b2f00c6dc12c317668c94a8da6c9094284adeff44acaa0d1521c8fda5b089e1fbcfe0263cf223f7866c74483a8c7074c8aa3e1f648c8a2d3501e8dd8590a9c1dbefc0061cd203d7a64c54681aac5054e88a1e3f04ecea4d556188bde5f0c9a1bb8fa0667cb263b7c62c34087acc303488ea7e5f24ccca6d7541a89dc5d0e9819baf80465c924397e60c14285aec1014a8ca5e7fc42c2a8d95a1487d253009617b4f60a6bc72a37706ecf4c8ba0cf0f4482abe9fe40c0aadb581685d051029415b6f40869c52835726ccd4e89a2cd0d4680a9ebf846c6acdd5e1083d657049213b0f20e6fc32e33746acb488fa4cb0b4086afedfa44c4aedf5c1281d455069011b2f00c6dc12c317668c94a8da6c9094284adeff44acaa0d1521c8fda5b089e1fbcfe0263cf223f7866c74483a8c7074c8aa3e1f648c8a2d3501e8dd8590a9c1dbefc0061cd203d7a64c54681aac5054e88a1e3f04ecea4d556188bde5f0c9a1bb8fa0667cb263b7c62c34087acc303488ea7e5f24ccca6d7541a89dc5d0e9819baf80465c924397e60c14285aec1014a8ca5e7fc42c2a8d95a1487d253009617b4f60a6bc72a37706ecf4c8ba0cf0f4482abe9fe40c0aadb581685d051029415b6f40869c52835726ccd4e89a2cd0d4680a9ebf846c6acdd5e1083d657049213b0f20e6fc32e33746acb488fa4cb0b4086afedfa44c4aedf5c1281d455069011b2f00c6dc12c317668c94a8da6c9094284adeff44acaa0d1521c8fda5b089e1fbcfe0263cf223f7866c74483a8c7074c8aa3e1f648c8a2d3501e8dd8590a9c1dbefc0061cd203d7a64c54681aac5054e88a1e3f04ecea4d556188bde5f0c9a1bb8fa0667cb263b7c62c34087acc303488ea7e5f24ccca6d7541a89dc5d0e9819baf80465c924397e60c14285aec1014a8ca5e7fc42c2a8d95a1487d253009617b4f60a6bc72a37706ecf4c8ba0cf0f4482abe9fe40c0aadb581685d051029415b6f40869c52835726ccd4e89a2cd0d4680a9ebf846c6acdd5e1083d657049213b0f20e6fc32e33746acb488fa4cb0b4086afedfa44c4aedf5c1281d455069011b2f00c6dc12c317668c94a8da6c9094284adeff44acaa0d1521c8fda5b089e1fbcfe0262ff5bb96520b7189947d7d456710c450ac9bd29e1ac5714a5b8d7b3e7d8b2ad002fd7509c640b16bf27b84d6d8c767e13b7178dce483cabd6c0d34ff2c15e844de4b67106623cf708e749259fa3b79081f4275ac7755545e3f8e7bab605bd97523e495d4cfb71111be56a8a8d9e17fbe27390245773d1319b9645544840b3e161413a2969bcb387aab8249020c0e5776e4eecb7bfa4ba2a78b8b5eda3c00ff942b5c53b3c5829cbbea51a60e5aa78677e457b8541730ab0feadc3c1117ccbf63d2f26974e9b9f34ceb64e973d8dca2bd674c3014469a549af994d5b3f6fd39f7610abeb18aad1f412dfaf2126cd3fc47e92f041de1896dcf99b020a84262344cba0bd15d9e707d0e5e601ec964371e4c9233bad84e329f8ac0369071fd77365a15a5139473f4371b63826d8305a8642d1994102a5d9eb4da4c2a91212052853397733084a91284e0f1efbc3c228a6eb0666f6f28187a442f6b4037fde5510a42778fb5f67a0a7b04872bd2c0c78a18ff31be1a3082f4cb2c4e8d194990ab565951cf4f2a35de9961807c787283d77b96b4d90c0c7d57df3ee3a0a2434aaa1ccef1caf02acd51f1dbee3a6e328fc69fa154ca30c040e716e26968f3c305f778cb2c6cf445d6c60b8b585339cf3adb70fa9d83d8daeec1a8bfeb075d1d5898dad1e8c84442e8e403bf378bc34144407252eb24d2ade24ee095d3b78eaceac4d478ab615a368f9b4ec30b281f33388095a0d5856d655883aa4b1653b8c2a5f1e9e80858c1f4bf9191a5b19e368e7caf810e9eb672ed733fb473ab7d5da5c6a6515a727027c592b9082c240c75f3a8f53718b869fcd817b9553d7a64ebda7089d5d89d7a64c4456979726fc5fd3d383cbc556c7d4ce559b027b93cd52dca652c14e5ab0880a6bb4bdd0abd31c8b3c916689ce2a00a71f4029f33f661b911635fcffb97e488624002e9ae48dbad4bd6192d026314058a6b74c2409327b82810929a06c47bfd9d099747f701ad58a35ea2c29b1167ad2e7530d5163a58a9ebf7da1a63a5feaed1236b104587d415fbb520a631d42a1cbbf3dc217ac79918ff9ff612f8296b4e09b63609cdccdc73028c9c7608649a33838ade1af3d923cabcb7f73d8495108d38dcc49cb4cba1d024ea4c99b5e28d324f95be10c2fd904d88d9dcafb31dd3739b35270502101b505ea67086a775b64c14e77f61a66f87c831d57af1038609c141908490522a18cb6b1787300c4785dbbda3f25680e18181fe69a4b48242c3746f95702913116b61ab835232f044a4dc275ae0419201242bd14beebaeb6b6f60275d6db8cdf67cd46546ac6f6478638c60ac02a47ecc04e63f8d25099e15563b5b5281234ccc618ce80f07999e381ca91acd1464633207558acee9829d044f6643f9941fb853c777a20b34743b7d38acd648e2cc91511709ff8c57538bafc156a9161abfd8e40043a11784441c4682440256cc5df9d22eae22b357cb419447f7c72ede91ae5b5fd70f7c3cadc1abd2e225ceda2094d50ea1caffff89a88cd41b8dfda50cdcb57189ba2f5d76b44a59195f7fa85e3ea23351cfaebe0eb04de8fc02b7c6c969801f91e5135049608ae7fdf96ba7193d4ce578b78cd99515f1412b91b6223858d99fad8560a76c4a310c9e63e0052574be35081f9e2800de93267af1c1fc61a8de67780c25a68f7a56b5cbb0ca39259103c37e2124887712c8cc9be299eb4b5fcbc7de0002b48aba03e142265dd02f90bbe650b552d5c6eccb6c5e054dec25f292543c9e84f4e6bceb3685a8c51a102d6254e5386fb1e1f61df7cdf011252ba3f472ae71f4c9ba61d00687a476ca6ed86031d27ca163c285f81b203006f1752909baef076210166fb1942dd364f312a1f6d94be5f78d79f1532c140d8ce4f697c3ca0f9239b820acdbd14fa9a3c076d1c754a3c604ac3d10bc5464038cd198fa52fad5fdcc8c82ba0cb1e0cfe0b242a44c72f97d0345d45189fa358f25e341d1f4a58b3fea5cef2b5c66a10e09addfbc35339f8e4a8f03fcdef576ac34695f7df5261b6a950709c78b5894ac5b0cf475cd47b7e9069f4b4ceef2fa3abcfec4257ada655c83ae5f57037f8468ecaa7dc791b7572a2585c79f9bbbb388a8505db5c546942046d03087a108ad15f0452f23c3288b642dd5f2069004d968f517605381793a91247af8760e261e5ab56124824745e309ebb6a21b5001b39751cac7b3d3cf4441e3c850b9ad7e763108c1228f297e6e8f6235efb0fca1fd465bd542b79e3448d01d5e0cbbda131089c4137ffdb78775d44d69dc9993a2436c5ffdb820ca39cb7cc0f4fa4d1d8d7bd8b8a4cd842b135521df67571ac5a284610da270aac505575b2ddc8c269bb7f1418b7a915d69cd9d191a65d425873c3e5c023805839ff92fabaffce87a83bd0bed217e15f4035866910154285ab06d90fec31df81676525e438ebd7801bdcf8e03e95c2226e4580b3c091d8c0064bbea9195220fe5fd7b7a1bcc8d970568b1d9dabadfe86e3f2e24326bef2e8093f9ea79942a7e7a17587a87f095ea105f8c34a745be7077cb697e7671944279dc87c864fb2ab3f2dc527a44e541917d219fee8c473c1cde7973c013dc4b9afb792fe6092b4c405a9fa26bde9b26e348e73d257ccb19b1e06acb315fafe9267088ca92bf2299cefd5ed235d56a3758d26f12fa62e262009af2c24dc7bcffec88b863387780f0543301ee0efdaacbda7daf4d00415fa7101eaa2183c39effec26fa343de3e07f8fd276e22d78033a627ee9f630feb62c5f1a5d16169310789ce41f5c9fe6b2ec35eeb3261db9efb7abc862596c25f3fa1873f975522dfaefc6b3c2d25a2c0cd46a4ee2d22c6a2e086643cc69277f276be5163a81895059eea5f8936777160a9d0a4609a51e5b81a25af06116f121fafbc235d7bef676508d8882bbf4de34fcf174385a9c208bc5fbc8c43c8765edc3305d3ec2d5b202f9fdebef3a239d2d9f103171ef475fb26d350ef249aa33b21b1af5ebb1c7c54ec90506c5310ad6ed44ccda89b517fc1d373d99db78f69450f87cec755ab3ef8fe18bb9ec469e95771944e9cdf1c13697de23bc0d390276a96dafbe90835cf452daf62bc77fe11de684ef2e49cc8cafe95544c94dc7c9dde96cf14e64af5f16aad6a1f74d0065fbde459e36357db6ee104c5a6d45fb60c0046ea8c90b8a79f6d0882945b61905122564764e751086e62a907e4cdf0e4dad5ff8ca015880ce42af5a2746e8f12d04d8117a87c9e90e3bed5ec9e1b6177668ffef2dec6e295422df67eab35c87ca87979fb6bac93dedf6814290f0a67315153c8078be0f2109295d82f69d99732af5f50e292b34414e5280839099a0bce2fe272d53555e61849d9ec9d6da3260788081849195aaadb4dce90f17191d3c50545b67686d7b7c899ca9ade1e9f700000000000000000000000000000000000000000f1b283c01fd210500c99902fab6bfac6556d35e2a7708989f7038b9d5f839f751a160004edaea7ecbbea1bd080af0cf2705466417140ef0e9008cab81ea7282fc89fca70c3c41b0a335cd14545bb9a607d38f6ff25506ae4ef1cad675c9851d16631e17c1e7edd71891e249fd3ef4364a7c996e3f298e23b3e99463b76a6a69c3e60e0f1e8dc56dbeb975bd96bcbb26fb17e1714465cb3d716eb578cd444ce94ab7a85d020a7535689406aae42fd069b9d753480a73379e1809b7dec55e2e33f2bcf2417cfea15c7623cccddc706e8a37eb8981b24094403e0d4720fadb1c59ee729c473136b3aec2b56f505072bedf1e8d065ec784e5adaf27607f1b56b889aac2dd7aaa99ece6af01a73c912d9c71b9f3fec069635383457beff6886f10f9278b2d46c5869383d3460c88f89ffd898a7c5ea2bd7ef658b1655e224d0436896ce96b74a50481fcf1cc7c75db9e7be67ede0dfbb617959c2eec633e83cf5dc362ea2875666d4cd5ee3b2ad88d84eabdddc2d93fc0bea4e89c7350fa7e24853a0c2c64adf1dd77df2d00bf63ef7be41af97c3e9fdf7e138ec32d161eee8117ca4c45a09c0af0911aa98e0270a156fdd529b82f1754aad8cb7e13cb0eb24b8a52e6c673a932267785f0596a16a15c111e0f4d013e4baf21117fb4d5834443b64ed328b5293df5840b863d405622a5e76ebab4c87965ba4829cc173d193dd19905f50f93e665473e3a671c7787fe0f54c2e743f631c819d824e2aa27d9ae7064df23e2247c9bedb3574665b68c05c2ed761568fe83dd05787eb565a773cece2b623b6637ab655589a4e86517e21bc6cd141d3bcc1835755338c2efddec77337b72dfa87d41d93ea1e744b54a9dd3344d3378ffcc43bbc05d98e9ed817606c97afde0dd448202b6d184e569f3b8f5fb8ec2c81ace8d0a7d9fa358ba072fb944b75f9355958234ab431f5f59cceb0c78a986ecb29339330cf5eed426d6213bcc3fc0ae89f5d89372e96fbe6a4edf6105cc4a78dacbc9b7aaeb0ab9c7b9a32d3867e08c29b3be28f859e6e64da995361761e9153ee5b4787eecffb880446b48e80f1f09c117acf4acd6089b4ea5037ab2de9594a3e3241d299d7734d55b060e2d77f2477dc6bb7a45ab0122724d67751385e8935a6722e02ebde3675f2b052e5d0a55da13058c4940c7261a283150f1bb00289b7430c055197dfa1ba3dee7c614f5b9a98042edbb8bb3c8a18b8d9ab1e098241b4c0897212f8b71a378811192b760e00d9ee1703a3931907c7b995dea4972ec8ae458712996a90d7733872460053d9b8dc4f9904981c529531835237d43798bbb140ab75537015064b60f3502496bc6ddd3a548a1768a4f0b4d4c13a85b412b3da1fd6f93791cb6477e7238a6254f61370fd758315a79278641ca5a2e3091dc8a604842a565eb73b14a2c08a7ae09a126d0a4426dfe7581eef2f7448507d1d653bf498ec25227f719296e5ccc774b4a2fbaf8799af85472fea5a23c14ac1d11a966f0580bec348d4fe8079f49a4ba0bdc5ae3806fb86d003b0489463ab659f12b8edc0a2c68235efa973583022868f67bcf8aabf9fcfc19b0231e03478fd5150c37c736b6467fd38f1014a86ea87c74c99ab86e8d34b85f6caf68ce198663797d01193a3c8fbddf4a08a1765d9ffe9aef5848c6138e652918bdb3cf8b845848a86648388078c11a54bcb0933c5281267acd302c4890d6b4cf5c8fd956c2f1ff0c915331206c0d4132be68243657bd9a4b01c555547defae9b89e75ec8ea5e588e26525c82405b2fa2bebfdf072fca175bea850ac8c230c10ad529aa50fcdc3570c46f6be9e0c4942c5b0663ceac96723d06fdc67241d906b238000000",
  "txid": "870490204721b246c15e8398d2f684af5e1797005c0af080533b8932312e4fd5",
  "hash": "2b317acad76425cafed0be7ecc4a3c7c7ac9cde998415f6cd9400053353420cb",
  "size": 5085,
  "vsize": 2278,
  "version": 1,
  "locktime": 56,
  "vin": [
    {
      "txid": "1f1f69424590104f73f2128eac276de2185ba4254b19e37e0a436436d38b81ae",
      "vout": 0,
      "scriptSig": {
        "asm": "",
        "hex": ""
      },
      "txinwitness": [
        "c640b16bf27b84d6d8c767e13b7178dce483cabd6c0d34ff2c15e844de4b67106623cf708e749259fa3b79081f4275ac7755545e3f8e7bab605bd97523e495d4cfb71111be56a8a8d9e17fbe27390245773d1319b9645544840b3e161413a2969bcb387aab8249020c0e5776e4eecb7bfa4ba2a78b8b5eda3c00ff942b5c53b3c5829cbbea51a60e5aa78677e457b8541730ab0feadc3c1117ccbf63d2f26974e9b9f34ceb64e973d8dca2bd674c3014469a549af994d5b3f6fd39f7610abeb18aad1f412dfaf2126cd3fc47e92f041de1896dcf99b020a84262344cba0bd15d9e707d0e5e601ec964371e4c9233bad84e329f8ac0369071fd77365a15a5139473f4371b63826d8305a8642d1994102a5d9eb4da4c2a91212052853397733084a91284e0f1efbc3c228a6eb0666f6f28187a442f6b4037fde5510a42778fb5f67a0a7b04872bd2c0c78a18ff31be1a3082f4cb2c4e8d194990ab565951cf4f2a35de9961807c787283d77b96b4d90c0c7d57df3ee3a0a2434aaa1ccef1caf02acd51f1dbee3a6e328fc69fa154ca30c040e716e26968f3c305f778cb2c6cf445d6c60b8b585339cf3adb70fa9d83d8daeec1a8bfeb075d1d5898dad1e8c84442e8e403bf378bc34144407252eb24d2ade24ee095d3b78eaceac4d478ab615a368f9b4ec30b281f33388095a0d5856d655883aa4b1653b8c2a5f1e9e80858c1f4bf9191a5b19e368e7caf810e9eb672ed733fb473ab7d5da5c6a6515a727027c592b9082c240c75f3a8f53718b869fcd817b9553d7a64ebda7089d5d89d7a64c4456979726fc5fd3d383cbc556c7d4ce559b027b93cd52dca652c14e5ab0880a6bb4bdd0abd31c8b3c916689ce2a00a71f4029f33f661b911635fcffb97e488624002e9ae48dbad4bd6192d026314058a6b74c2409327b82810929a06c47bfd9d099747f701ad58a35ea2c29b1167ad2e7530d5163a58a9ebf7da1a63a5feaed1236b104587d415fbb520a631d42a1cbbf3dc217ac79918ff9ff612f8296b4e09b63609cdccdc73028c9c7608649a33838ade1af3d923cabcb7f73d8495108d38dcc49cb4cba1d024ea4c99b5e28d324f95be10c2fd904d88d9dcafb31dd3739b35270502101b505ea67086a775b64c14e77f61a66f87c831d57af1038609c141908490522a18cb6b1787300c4785dbbda3f25680e18181fe69a4b48242c3746f95702913116b61ab835232f044a4dc275ae0419201242bd14beebaeb6b6f60275d6db8cdf67cd46546ac6f6478638c60ac02a47ecc04e63f8d25099e15563b5b5281234ccc618ce80f07999e381ca91acd1464633207558acee9829d044f6643f9941fb853c777a20b34743b7d38acd648e2cc91511709ff8c57538bafc156a9161abfd8e40043a11784441c4682440256cc5df9d22eae22b357cb419447f7c72ede91ae5b5fd70f7c3cadc1abd2e225ceda2094d50ea1caffff89a88cd41b8dfda50cdcb57189ba2f5d76b44a59195f7fa85e3ea23351cfaebe0eb04de8fc02b7c6c969801f91e5135049608ae7fdf96ba7193d4ce578b78cd99515f1412b91b6223858d99fad8560a76c4a310c9e63e0052574be35081f9e2800de93267af1c1fc61a8de67780c25a68f7a56b5cbb0ca39259103c37e2124887712c8cc9be299eb4b5fcbc7de0002b48aba03e142265dd02f90bbe650b552d5c6eccb6c5e054dec25f292543c9e84f4e6bceb3685a8c51a102d6254e5386fb1e1f61df7cdf011252ba3f472ae71f4c9ba61d00687a476ca6ed86031d27ca163c285f81b203006f1752909baef076210166fb1942dd364f312a1f6d94be5f78d79f1532c140d8ce4f697c3ca0f9239b820acdbd14fa9a3c076d1c754a3c604ac3d10bc5464038cd198fa52fad5fdcc8c82ba0cb1e0cfe0b242a44c72f97d0345d45189fa358f25e341d1f4a58b3fea5cef2b5c66a10e09addfbc35339f8e4a8f03fcdef576ac34695f7df5261b6a950709c78b5894ac5b0cf475cd47b7e9069f4b4ceef2fa3abcfec4257ada655c83ae5f57037f8468ecaa7dc791b7572a2585c79f9bbbb388a8505db5c546942046d03087a108ad15f0452f23c3288b642dd5f2069004d968f517605381793a91247af8760e261e5ab56124824745e309ebb6a21b5001b39751cac7b3d3cf4441e3c850b9ad7e763108c1228f297e6e8f6235efb0fca1fd465bd542b79e3448d01d5e0cbbda131089c4137ffdb78775d44d69dc9993a2436c5ffdb820ca39cb7cc0f4fa4d1d8d7bd8b8a4cd842b135521df67571ac5a284610da270aac505575b2ddc8c269bb7f1418b7a915d69cd9d191a65d425873c3e5c023805839ff92fabaffce87a83bd0bed217e15f4035866910154285ab06d90fec31df81676525e438ebd7801bdcf8e03e95c2226e4580b3c091d8c0064bbea9195220fe5fd7b7a1bcc8d970568b1d9dabadfe86e3f2e24326bef2e8093f9ea79942a7e7a17587a87f095ea105f8c34a745be7077cb697e7671944279dc87c864fb2ab3f2dc527a44e541917d219fee8c473c1cde7973c013dc4b9afb792fe6092b4c405a9fa26bde9b26e348e73d257ccb19b1e06acb315fafe9267088ca92bf2299cefd5ed235d56a3758d26f12fa62e262009af2c24dc7bcffec88b863387780f0543301ee0efdaacbda7daf4d00415fa7101eaa2183c39effec26fa343de3e07f8fd276e22d78033a627ee9f630feb62c5f1a5d16169310789ce41f5c9fe6b2ec35eeb3261db9efb7abc862596c25f3fa1873f975522dfaefc6b3c2d25a2c0cd46a4ee2d22c6a2e086643cc69277f276be5163a81895059eea5f8936777160a9d0a4609a51e5b81a25af06116f121fafbc235d7bef676508d8882bbf4de34fcf174385a9c208bc5fbc8c43c8765edc3305d3ec2d5b202f9fdebef3a239d2d9f103171ef475fb26d350ef249aa33b21b1af5ebb1c7c54ec90506c5310ad6ed44ccda89b517fc1d373d99db78f69450f87cec755ab3ef8fe18bb9ec469e95771944e9cdf1c13697de23bc0d390276a96dafbe90835cf452daf62bc77fe11de684ef2e49cc8cafe95544c94dc7c9dde96cf14e64af5f16aad6a1f74d0065fbde459e36357db6ee104c5a6d45fb60c0046ea8c90b8a79f6d0882945b61905122564764e751086e62a907e4cdf0e4dad5ff8ca015880ce42af5a2746e8f12d04d8117a87c9e90e3bed5ec9e1b6177668ffef2dec6e295422df67eab35c87ca87979fb6bac93dedf6814290f0a67315153c8078be0f2109295d82f69d99732af5f50e292b34414e5280839099a0bce2fe272d53555e61849d9ec9d6da3260788081849195aaadb4dce90f17191d3c50545b67686d7b7c899ca9ade1e9f700000000000000000000000000000000000000000f1b283c01",
        "00c99902fab6bfac6556d35e2a7708989f7038b9d5f839f751a160004edaea7ecbbea1bd080af0cf2705466417140ef0e9008cab81ea7282fc89fca70c3c41b0a335cd14545bb9a607d38f6ff25506ae4ef1cad675c9851d16631e17c1e7edd71891e249fd3ef4364a7c996e3f298e23b3e99463b76a6a69c3e60e0f1e8dc56dbeb975bd96bcbb26fb17e1714465cb3d716eb578cd444ce94ab7a85d020a7535689406aae42fd069b9d753480a73379e1809b7dec55e2e33f2bcf2417cfea15c7623cccddc706e8a37eb8981b24094403e0d4720fadb1c59ee729c473136b3aec2b56f505072bedf1e8d065ec784e5adaf27607f1b56b889aac2dd7aaa99ece6af01a73c912d9c71b9f3fec069635383457beff6886f10f9278b2d46c5869383d3460c88f89ffd898a7c5ea2bd7ef658b1655e224d0436896ce96b74a50481fcf1cc7c75db9e7be67ede0dfbb617959c2eec633e83cf5dc362ea2875666d4cd5ee3b2ad88d84eabdddc2d93fc0bea4e89c7350fa7e24853a0c2c64adf1dd77df2d00bf63ef7be41af97c3e9fdf7e138ec32d161eee8117ca4c45a09c0af0911aa98e0270a156fdd529b82f1754aad8cb7e13cb0eb24b8a52e6c673a932267785f0596a16a15c111e0f4d013e4baf21117fb4d5834443b64ed328b5293df5840b863d405622a5e76ebab4c87965ba4829cc173d193dd19905f50f93e665473e3a671c7787fe0f54c2e743f631c819d824e2aa27d9ae7064df23e2247c9bedb3574665b68c05c2ed761568fe83dd05787eb565a773cece2b623b6637ab655589a4e86517e21bc6cd141d3bcc1835755338c2efddec77337b72dfa87d41d93ea1e744b54a9dd3344d3378ffcc43bbc05d98e9ed817606c97afde0dd448202b6d184e569f3b8f5fb8ec2c81ace8d0a7d9fa358ba072fb944b75f9355958234ab431f5f59cceb0c78a986ecb29339330cf5eed426d6213bcc3fc0ae89f5d89372e96fbe6a4edf6105cc4a78dacbc9b7aaeb0ab9c7b9a32d3867e08c29b3be28f859e6e64da995361761e9153ee5b4787eecffb880446b48e80f1f09c117acf4acd6089b4ea5037ab2de9594a3e3241d299d7734d55b060e2d77f2477dc6bb7a45ab0122724d67751385e8935a6722e02ebde3675f2b052e5d0a55da13058c4940c7261a283150f1bb00289b7430c055197dfa1ba3dee7c614f5b9a98042edbb8bb3c8a18b8d9ab1e098241b4c0897212f8b71a378811192b760e00d9ee1703a3931907c7b995dea4972ec8ae458712996a90d7733872460053d9b8dc4f9904981c529531835237d43798bbb140ab75537015064b60f3502496bc6ddd3a548a1768a4f0b4d4c13a85b412b3da1fd6f93791cb6477e7238a6254f61370fd758315a79278641ca5a2e3091dc8a604842a565eb73b14a2c08a7ae09a126d0a4426dfe7581eef2f7448507d1d653bf498ec25227f719296e5ccc774b4a2fbaf8799af85472fea5a23c14ac1d11a966f0580bec348d4fe8079f49a4ba0bdc5ae3806fb86d003b0489463ab659f12b8edc0a2c68235efa973583022868f67bcf8aabf9fcfc19b0231e03478fd5150c37c736b6467fd38f1014a86ea87c74c99ab86e8d34b85f6caf68ce198663797d01193a3c8fbddf4a08a1765d9ffe9aef5848c6138e652918bdb3cf8b845848a86648388078c11a54bcb0933c5281267acd302c4890d6b4cf5c8fd956c2f1ff0c915331206c0d4132be68243657bd9a4b01c555547defae9b89e75ec8ea5e588e26525c82405b2fa2bebfdf072fca175bea850ac8c230c10ad529aa50fcdc3570c46f6be9e0c4942c5b0663ceac96723d06fdc67241d906b2"
      ],
      "sequence": 4294967294
    }
  ],
  "vout": [
    {
      "value": 499975.5944,
      "n": 0,
      "scriptPubKey": {
        "asm": "1 a092b7bd3591ba4a8270e9eee7ed0000e0a3e5c10563c6b89194adab6ad0e8af",
        "hex": "5120a092b7bd3591ba4a8270e9eee7ed0000e0a3e5c10563c6b89194adab6ad0e8af",
        "reqSigs": 1,
        "type": "witness_v1_scripthash",
        "addresses": [
          "3QJmnh"
        ]
      }
    },
    {
      "value": 1.0,
      "n": 1,
      "scriptPubKey": {
        "asm": "OP_RETURN d9edc8f660b6e2d74e319b428d244d06eee59f716433bc3c4d7f9d91995fe1fc c42c2a8d95a1487d253009617b4f60a6bc72a37706ecf4c8ba0cf0f4482abe9fe40c0aadb581685d051029415b6f40869c52835726ccd4e89a2cd0d4680a9ebf846c6acdd5e1083d657049213b0f20e6fc32e33746acb488fa4cb0b4086afedfa44c4aedf5c1281d455069011b2f00c6dc12c317668c94a8da6c9094284adeff44acaa0d1521c8fda5b089e1fbcfe0263cf223f7866c74483a8c7074c8aa3e1f648c8a2d3501e8dd8590a9c1dbefc0061cd203d7a64c54681aac5054e88a1e3f04ecea4d556188bde5f0c9a1bb8fa0667cb263b7c62c34087acc303488ea7e5f24ccca6d7541a89dc5d0e9819baf80465c924397e60c14285aec1014a8ca5e7fc42c2a8d95a1487d253009617b4f60a6bc72a37706ecf4c8ba0cf0f4482abe9fe40c0aadb581685d051029415b6f40869c52835726ccd4e89a2cd0d4680a9ebf846c6acdd5e1083d657049213b0f20e6fc32e33746acb488fa4cb0b4086afedfa44c4aedf5c1281d455069011b2f00c6dc12c317668c94a8da6c9094284adeff44acaa0d1521c8fda5b089e1fbcfe0263cf223f7866c74483a8c7074c8aa3e1f648c8a2d3501e8dd8590a9c1dbefc0061cd203d7a64c54681aac5054e88a1e3f04ecea4d556188bde5f0c9a1bb8fa0667cb263b7c62c34087acc303488ea7e5f24ccca6d7541a89dc5d0e9819baf80465c924397e60c14285aec1014a8ca5e7fc42c2a8d95a1487d253009617b4f60a6bc72a37706ecf4c8ba0cf0f4482abe9fe40c0aadb581685d051029415b6f40869c52835726ccd4e89a2cd0d4680a9ebf846c6acdd5e1083d657049213b0f20e6fc32e33746acb488fa4cb0b4086afedfa44c4aedf5c1281d455069011b2f00c6dc12c317668c94a8da6c9094284adeff44acaa0d1521c8fda5b089e1fbcfe0263cf223f7866c74483a8c7074c8aa3e1f648c8a2d3501e8dd8590a9c1dbefc0061cd203d7a64c54681aac5054e88a1e3f04ecea4d556188bde5f0c9a1bb8fa0667cb263b7c62c34087acc303488ea7e5f24ccca6d7541a89dc5d0e9819baf80465c924397e60c14285aec1014a8ca5e7fc42c2a8d95a1487d253009617b4f60a6bc72a37706ecf4c8ba0cf0f4482abe9fe40c0aadb581685d051029415b6f40869c52835726ccd4e89a2cd0d4680a9ebf846c6acdd5e1083d657049213b0f20e6fc32e33746acb488fa4cb0b4086afedfa44c4aedf5c1281d455069011b2f00c6dc12c317668c94a8da6c9094284adeff44acaa0d1521c8fda5b089e1fbcfe0263cf223f7866c74483a8c7074c8aa3e1f648c8a2d3501e8dd8590a9c1dbefc0061cd203d7a64c54681aac5054e88a1e3f04ecea4d556188bde5f0c9a1bb8fa0667cb263b7c62c34087acc303488ea7e5f24ccca6d7541a89dc5d0e9819baf80465c924397e60c14285aec1014a8ca5e7fc42c2a8d95a1487d253009617b4f60a6bc72a37706ecf4c8ba0cf0f4482abe9fe40c0aadb581685d051029415b6f40869c52835726ccd4e89a2cd0d4680a9ebf846c6acdd5e1083d657049213b0f20e6fc32e33746acb488fa4cb0b4086afedfa44c4aedf5c1281d455069011b2f00c6dc12c317668c94a8da6c9094284adeff44acaa0d1521c8fda5b089e1fbcfe0262ff5bb96520b7189947d7d456710c450ac9bd29e1ac5714a5b8d7b3e7d8b2ad0",
        "hex": "6a20d9edc8f660b6e2d74e319b428d244d06eee59f716433bc3c4d7f9d91995fe1fc4db004c42c2a8d95a1487d253009617b4f60a6bc72a37706ecf4c8ba0cf0f4482abe9fe40c0aadb581685d051029415b6f40869c52835726ccd4e89a2cd0d4680a9ebf846c6acdd5e1083d657049213b0f20e6fc32e33746acb488fa4cb0b4086afedfa44c4aedf5c1281d455069011b2f00c6dc12c317668c94a8da6c9094284adeff44acaa0d1521c8fda5b089e1fbcfe0263cf223f7866c74483a8c7074c8aa3e1f648c8a2d3501e8dd8590a9c1dbefc0061cd203d7a64c54681aac5054e88a1e3f04ecea4d556188bde5f0c9a1bb8fa0667cb263b7c62c34087acc303488ea7e5f24ccca6d7541a89dc5d0e9819baf80465c924397e60c14285aec1014a8ca5e7fc42c2a8d95a1487d253009617b4f60a6bc72a37706ecf4c8ba0cf0f4482abe9fe40c0aadb581685d051029415b6f40869c52835726ccd4e89a2cd0d4680a9ebf846c6acdd5e1083d657049213b0f20e6fc32e33746acb488fa4cb0b4086afedfa44c4aedf5c1281d455069011b2f00c6dc12c317668c94a8da6c9094284adeff44acaa0d1521c8fda5b089e1fbcfe0263cf223f7866c74483a8c7074c8aa3e1f648c8a2d3501e8dd8590a9c1dbefc0061cd203d7a64c54681aac5054e88a1e3f04ecea4d556188bde5f0c9a1bb8fa0667cb263b7c62c34087acc303488ea7e5f24ccca6d7541a89dc5d0e9819baf80465c924397e60c14285aec1014a8ca5e7fc42c2a8d95a1487d253009617b4f60a6bc72a37706ecf4c8ba0cf0f4482abe9fe40c0aadb581685d051029415b6f40869c52835726ccd4e89a2cd0d4680a9ebf846c6acdd5e1083d657049213b0f20e6fc32e33746acb488fa4cb0b4086afedfa44c4aedf5c1281d455069011b2f00c6dc12c317668c94a8da6c9094284adeff44acaa0d1521c8fda5b089e1fbcfe0263cf223f7866c74483a8c7074c8aa3e1f648c8a2d3501e8dd8590a9c1dbefc0061cd203d7a64c54681aac5054e88a1e3f04ecea4d556188bde5f0c9a1bb8fa0667cb263b7c62c34087acc303488ea7e5f24ccca6d7541a89dc5d0e9819baf80465c924397e60c14285aec1014a8ca5e7fc42c2a8d95a1487d253009617b4f60a6bc72a37706ecf4c8ba0cf0f4482abe9fe40c0aadb581685d051029415b6f40869c52835726ccd4e89a2cd0d4680a9ebf846c6acdd5e1083d657049213b0f20e6fc32e33746acb488fa4cb0b4086afedfa44c4aedf5c1281d455069011b2f00c6dc12c317668c94a8da6c9094284adeff44acaa0d1521c8fda5b089e1fbcfe0263cf223f7866c74483a8c7074c8aa3e1f648c8a2d3501e8dd8590a9c1dbefc0061cd203d7a64c54681aac5054e88a1e3f04ecea4d556188bde5f0c9a1bb8fa0667cb263b7c62c34087acc303488ea7e5f24ccca6d7541a89dc5d0e9819baf80465c924397e60c14285aec1014a8ca5e7fc42c2a8d95a1487d253009617b4f60a6bc72a37706ecf4c8ba0cf0f4482abe9fe40c0aadb581685d051029415b6f40869c52835726ccd4e89a2cd0d4680a9ebf846c6acdd5e1083d657049213b0f20e6fc32e33746acb488fa4cb0b4086afedfa44c4aedf5c1281d455069011b2f00c6dc12c317668c94a8da6c9094284adeff44acaa0d1521c8fda5b089e1fbcfe0262ff5bb96520b7189947d7d456710c450ac9bd29e1ac5714a5b8d7b3e7d8b2ad0",
        "type": "nulldata"
      }
    }
  ],
  "blockhash": "ccdcfedcff6ade259e7f17160cbcd6ff75249aea4f0a85a59e1a4fb3f710df5f",
  "confirmations": 1,
  "time": 1764180435,
  "blocktime": 1764180435
}