{
  "hex": "010000000001019a127dc20f15ddfd2b6e8d4b6f7c54c6228ae74099cdf2561a128af773cb856c0000000000feffffff0200e1f50500000000fdd5046a20255e2e6539024f00ddfd15bffb4cc470b64955ad500479a390454e6f8e1eb35b4db004742f5a1c80c720af7f2f7427a6b7934f957ff7e22f7b4cd68ca19ffe885882e9540f7a3ca0e7008f5f0f54078697b36fb55fd7c20f5b6cf6ac81bfdea878a2c9346f1a5cc08760ef3f6f3467e6f7d30fd53fb7a26f3b0c96cce1dfbec818c2a9144f3a7ce0a740cf1f4f1447c6d7f32ff51f97824f1b2cb6ecc1ff9ee838e289f4afda9c0047a02fffaff4a7263713cf15ff7762affbcc560c211f7e08d80269d48ffabc2067800fdf8fd487061733ef35df57428fdbec762c013f5e28f82249b4ef9adc4007e06fbfefb4e76677538f55bf3722efbb8c164c615f3e4898422994cfbafc6027c04f9fcf94c7465773af759f1702cf9bac366c417f1e68b86209742f5a1c80c720af7f2f7427a6b7934f957ff7e22f7b4cd68ca19ffe885882e9540f7a3ca0e7008f5f0f54078697b36fb55fd7c20f5b6cf6ac81bfdea878a2c9346f1a5cc08760ef3f6f3467e6f7d30fd53fb7a26f3b0c96cce1dfbec818c2a9144f3a7ce0a740cf1f4f1447c6d7f32ff51f97824f1b2cb6ecc1ff9ee838e289f4afda9c0047a02fffaff4a7263713cf15ff7762affbcc560c211f7e08d80269d48ffabc2067800fdf8fd487061733ef35df57428fdbec762c013f5e28f82249b4ef9adc4007e06fbfefb4e76677538f55bf3722efbb8c164c615f3e4898422994cfbafc6027c04f9fcf94c7465773af759f1702cf9bac366c417f1e68b86209742f5a1c80c720af7f2f7427a6b7934f957ff7e22f7b4cd68ca19ffe885882e9540f7a3ca0e7008f5f0f54078697b36fb55fd7c20f5b6cf6ac81bfdea878a2c9346f1a5cc08760ef3f6f3467e6f7d30fd53fb7a26f3b0c96cce1dfbec818c2a9144f3a7ce0a740cf1f4f1447c6d7f32ff51f97824f1b2cb6ecc1ff9ee838e289f4afda9c0047a02fffaff4a7263713cf15ff7762affbcc560c211f7e08d80269d48ffabc2067800fdf8fd487061733ef35df57428fdbec762c013f5e28f82249b4ef9adc4007e06fbfefb4e76677538f55bf3722efbb8c164c615f3e4898422994cfbafc6027c04f9fcf94c7465773af759f1702cf9bac366c417f1e68b86209742f5a1c80c720af7f2f7427a6b7934f957ff7e22f7b4cd68ca19ffe885882e9540f7a3ca0e7008f5f0f54078697b36fb55fd7c20f5b6cf6ac81bfdea878a2c9346f1a5cc08760ef3f6f3467e6f7d30fd53fb7a26f3b0c96cce1dfbec818c2a9144f3a7ce0a740cf1f4f1447c6d7f32ff51f97824f1b2cb6ecc1ff9ee838e289f4afda9c0047a02fffaff4a7263713cf15ff7762affbcc560c211f7e08d80269d48ffabc2067800fdf8fd487061733ef35df57428fdbec762c013f5e28f82249b4ef9adc4007e06fbfefb4e76677538f55bf3722efbb8c164c615f3e4898422994cfbafc6027c04f9fcf94c7465773af759f1702cf9bac366c417f1e68b86209742f5a1c80c720af7f2f7427a6b7934f957ff7e22f7b4cd68ca19ffe885882e9540f7a3ca0e7008f5f0f54078697b36fb55fd7c20f5b6cf6ac81bfdea878a2c9346f1a5cc08760ef3f6f3467e6f7d30fd53fb7a26f3b0c96cce1dfbec818c2a9144f3a7ce0a740cf1f4f1447c6d7f32ff51f97824f1b2cb6ecc1ff9ee838e289f4afda9c0047a02fffaff4a7263713cf5de4d6ce7704d014a13cc68eeaf97076f743ae2cd326e5afc20f3f646a22e1c21076cf5d792d0000225120204bcc6189b5920cf7b49d61a872781a6d046703ea8c6a909c10a2517c0d42ad02fd7509ddb0e85072d62a1f825440d08dbe475585cfffb74cad3624355a766c5cba9cb41366811751edca3e75fe4fdf4402557608c49a435593dae0465e203fc7d05ad3663699503a6b6474f64a44be781d30bbb012d8776be129f8d7b82676587a9ddf0ad770d9ad88142a00fb8b31a5e19c6d78ecc15cca9cf54a6be010d494b5f92a73651d02b06fd1195ed5157a7bd0d2c735708403b945662dc7cb79af94d9f1a3c3b7ca024e1dff6ffa616f0f91244661fc49ab7878a93aea1b455706aa88ad6324a8e01a7bd6148c5b119f3831f3d94b08c0e144ec9bc7a8f4f70c4965af17c4f74cc695ba1010df98437504133e4e3636a404b4103c3b43b68d66b1bb00f8cc505b66ae31236e90893bf0fb5ccc55b4f10eb114e207a349c24a58c404d7eb80ea2b123ee3791047c7297036c48bb8a58dee4105d59b4a77d3c0411d806bf6cf82d2283121b1246a6da7b9cfaee16df64de7e55d9eea00b369640440657104d1d02f7a0e2a17aab5b7dd17ddd343cf3f4ea4b04d172eefb38db64dc1d670422e873742d9ccf589646b3c74cc27403335422619bcb6c67d51e56e91c4621e0df0fa0f4bec3f442bbdf01114f46b1f221e1b5ff3a086b719614e380a912110221d7a6c47dd63fc59549092c61712b07fa9c544b849f46fd90bd97f3b8f64ccd1de27fe7839fb45af86d67605d802be2aec382500d2977654eff08cdab9265caf949afd0ba273618fc50a948f858db03ab58bdef4194258ae008fded0c17fc162985c929749183d5bffec1a0245fe678dae3af2f6b6b7f5d5276d1009d6b948642f0dd1caaa5c14d7291a1d19245a668135b29e5403d862a4296a6f4da640293aa411b8c530d7db54ae3430b8dbfd7ad8a5a698e2bc063a00f89c31910d8346f309ce1595f9a071c83c128b03263ff46b732806915f2ffd7969d7f9707e9128c8dac0b928628b7966f5234f06b12242edb5dbfd5fbb75c5ec98ba32dee55ee69a3f6bda07972dbf09f36edf07c05236b7d70bf93b19b87e3acf07e2a19a713a859c2c5dfd786b60e4250599dbedcd3760d19081dea745b88e5d2c65536f5aba61b6da2c0ff94aa71ba50ea29b1db2a88268fdb12e4f205abee195ddb50659bf3fa5bd9b4442d9d0c192f1b37ce1dade5b8bf6ed98a373653c38511df3ead2bdfb8a4171731cb26527bab7f4c822acd943930a2bea438950a752a475a50bbffd47574d41066c0c97f478e987169e5e788f162dfe1adf3d8244d015129d344c9b01fcb1b9452d738a7db53a153fdca7fe391bbf4bf1e5da8efa59b6c844ea481d0a924dfa51ec2f17d4da646bd3929a3f4654f69d618ae63a5fe108d2b198ba69387a46ad5656aa91eaef5437c188a0ad15d3f5cc68b92c95acec2c12ba04d4f1ed5216fd2c7947b222719ec6cb18fa8bc9b14748291be59d314f9d34fcf349f1ac83932a97add2c02b6faecbad3652d1019d1402ba1ccaa604016f1c20854d5b09f0be8bf2076e43bce9268c9d0f2c6016e49d7bcefd4df18b66039833b2c49e556f0802b80d1443ae269ffc65715ddcc877c6cc8f8854a0fffbaad72211f788946d8e50339dc78d92f84219f71d6f4b5d8c8d6f7868771a10e0035cba637246d29baf9d9f75cda8d9587181d7301df0b4b507ebef6e8ecd51d4c7a64bbe995ff3a9d108f9bcce3cd6bc96514725846269895d60852c74c52de5813c68fcc7fbd212a6edfe78ac704a7d82874ef3e034f4d23c1744c3602c24b150ffc07ec1ca0699c3b13200b27792ea17dc9c58e7d700316b3019d6decf32f655275010d658ce363114078dc206c56a33d5f19d017f5050face53be117c99bb3bcade97e9504a30c0e7c04ef455ac20514868926f9f16f661bba3c0dc7d309703449eb90b10ab6344dffcd2d4e807877d0730083de211f273c0f4667d571ed8ea7d392c17342ab67b1fed024a72e6f5b3c5c81b40bf41f14467dc44f48a03c2e6a6c6a86f1026a49f41ba8cf9d19fbc4532c49268814cc13116f9eaf24a3b876c97a569dd239e125eb5597e6579d1e94f5cc428f113f635e3b98c93dff19083a423bb647b1725d380fd7bf1f7c736297c668fc118e9615c7067f0ea953551b8c27af559550ce0247fcfc9bd5f7a740fda6f2281ba62161bbddeb6cc08c7cd0242e7f745464e689ec4a09d523f2925ec67579682e4f5922d97f53a516f114a31e54a84153153d680b0b14f87db579022b398ad57e82aedc3e4649e71d214d9fddfd4dc1db0c81bc7a28432636da6f963c7ef27d951faee4f38e3e0d49352e2f97549f6dca1b7a866fae67b3a371f3f6f5214d3e49e9097434628e9e94fe0428138d7187b65f961ebab1a35f511230c81a03a9851753fff3f71cb6100c091997ed44997c70b809ea5414953454a9b34a680bb0b8a1e4436975ad3e05f4f2dbde382d6e69d1f88025b464ce403fd23fe6e9e531f975bc6a5cf464883ca0220ece27825e40795dbd769cafefce1cd2d73b54fc57aded60687dcc6e7151f58a62171fbbf9e761ff7be9cb629d1033ec363de0731625ffb78b030dea131578d86585f0645ba96a29e2f98835cf26c9ae54e8ab9ebb561a61e16882e09cb1de2d02b117d840da7f178bc1ff64ebf6cdbcbc670f30dfa7aad643c1f331fb672ed0abc348ab29c34ab301e88d7ee197670d20ea33a15dd199957afd4148dd5958e4eb9d087599d3847bb4dc557fb90b6f578741ad949f36f27f7b47ee232e63da85566ce60faa4a91ff24b7cb143c44c9643c2db1bd38d2ee16f7fe68abd49189492f72519d551abcd84a64547ecb099afa2cb9b759e002888c8455100723a6e32592c4628ebad0a99e85b84ed643e4c5aa1ca48219e1efc01bde3296ca3d7617b4f75bb021b997823060b1ea1ad6bb611e7d0f5acc91e6dd2ebdec606e11a905d52e6ad935514906112a9ad9b0342faf1e569b4392485566e593ca026ba66195c4e5b3297e284269bca58d3d022855be5cd6611950db5d019e56edeb632da9b523f644a9e9e70cd4a62f080208949dd6b5c2a87378b5a4d89f2db18d72fb845968904236841942bc887b128945aefa53c1563e276229c7c9b9855dd11c6f5f2e1496253042a55a3ba38c8c51298c43780aa5091c7f18bd0c27454f331c2dffd29fc4ddba6d8ae7663509690fbe791f4c1f364f1dc61c3c3730659ae543b944c8fc15a51f977a94282d107edc365aed6f4c3bcaf0effbec9dda24758f8049582783e51389b7b48a374131e3c02f1d5e29bb4ec9780de58faaa2250b570e88b35eba089ee34af4886071c58220b10304a5376888c94a6b8dbf6fbfc070e294547618ea8b8d50432476d708493b7bac5c7c8d1e5f4090e193a6875797a8b9db6bcd0d9daf90000000000000000000000000000000000000000000000000f19283801fd2105000b73cddca5aabed47289c16a5befb9a7a7dba135b9186522de4e12c9f12f4e77768391aef265a300ceff3159e076caf45a7b1e991ae944fa2930c0a52910bfd83b9ddbd149b824021f4a8e90001463027ae7586938c86ccb5ecc43028ddde3ab2fca28fba9ec7ad9c44f62344af35bd853de9871f04f606bb9d84204e5fc82e4da531009226661a6b09849d28e43a4d7debf1db1155dd61829f07565dcd80ce69fe3aa4fa87e7e0f3d5e6cd952fa5c115d06415b3104de78c155c6361a1ffdc7a564f972ed0cb7b0756b978fd56ed059a376f20c2f3ee8329fc1ea817c7f5c5d7915778a3762aad820239b9102fef608baf635d5ef33eaec94920c9705bb666eb0fac1ef83ef85ea802cc80159351d41709fb981cfb840405e97178b4ee524ec471849eed9a230d6088719a54456378f4fffef25e9a7744f1a473946a969dc765adb2d386cc62144a8d89a78168f7361d777a3d4fc842d2efa3270387163d2808772757670c288988db1912059dfed9ce834a9fef5e06f8068207c40cb62b8742b3f0c74e3d2117c1a788e439321ab86a0dbe27a35884854da39ef5b7a6e84e83a049b095a0ecaa78becfd1b208b79fbcbe2869a5a8eea190e0e8d2cf7d00e2e514d5f1a31c96fc28da9f85d07c0f35c97756b647fe031c356903d14223f4f8291fc1ca1a5fc73902be3cbe2d8596c54d91fdb9c3daae0d1434dcd02934c3772d5d0dc08daf396bf71bd816e4ef47e77937b9c767cbae84340c8362d17c89ab0da426a2ac79ea3c1dbebd54f571bdbc8097737377b152928fc97acdffacb2e099d9330612ccbffeaa3d6edf315931f06ab4705731e904bcbd5c48356dd519fa63a812d8c828138f381d468171ca7700666261c1771f0f9a4bdd2d235193d9f6e0278780523b215fb0365c98eca8d3676cfcaeabe07c4aaeed956c1fe1c14ba53e4d5dfe251e1139f173f9d7c55ae35e1a2ef766b6e54facf33bb94cabb3786f3e157ae2b5137dbd9de2061460cf001cd705846fbcb185141f61295cbfdef386f71d88ea5555f4c3cf3a3930f598bcbd0c50856424efa384efc9c7be806df45b22a0fecdd5224e72040fa71dda589fad24d2579270500979eef043ca3d4befe18c0b7a525ae09bd409da814e2d8658711969216b1633b682fb9f77698991a33d90ca4a63ea1f9ba1a9bf1e6bcf54a3a6a15d510355768d297402585a17efe1e1da76b26303e02c12983f99fb222558ad527104c313954435b232ea6dcf952c064fbfe98b4db686f5c1ad340a2b5684010316c372c891a6d57051d0085ac0fffdf1486e31d32c8dd140d7a678059c72561fbd67fb0a6e286a26fb2df4b07f5df1f5b12ba0c80428c799efbc7ea2aea7d92743eba77ce3aa24c5a7484aa3b89fc72c13f5323c18dbcc93f716e718ba9ee71a32c703d9a3cb40489049e225f8283f05fb76d299920f93558d377827411ce7f590def17f211d226d5d93ce4623d997f1690eb474a4f48a269178eb16d2478d05e9227efd5ec17eb9154720c50476189e66fbaf48ee96abf5e4ded3547fc3d8a750fb9f8c80fff15f3a3320eba95979c344cc4bd86957cdbce166a22bbe8e2134ada5b338b36f304f756445c490463116bd7115118976b480ce0d0c024f2f5c8f3be0d37c2200678baa5aef1710f89e596afe3249f7e1a7682f885e6e262c6d52a42428bc1413df479901916cd7d049a79f4649936cc38a041dcf1d5776eefc392f55dca3a6c53baf57f5c904e42cec1662a2e2f26f412134cad718244ee3e18a64659b747867c3dc7641d24e4a34c44dd9a2495d22c3167fa8a4a12573ded082329b74b15748c8155baf6bf720cd6f269000000",
  "txid": "87f54e86292f828934c9ca2093611b05e1d500a831490801fc8f36a62d359998",
  "hash": "75d90864f7d4a95872dffc7eb35a31ee4655abc82ac4c28f09e9b56c67e4b258",
  "size": 5085,
  "vsize": 2278,
  "version": 1,
  "locktime": 105,
  "vin": [
    {
      "txid": "6c85cb73f78a121a56f2cd9940e78a22c6547c6f4b8d6e2bfddd150fc27d129a",
      "vout": 0,
      "scriptSig": {
        "asm": "",
        "hex": ""
      },
      "txinwitness": [
        "ddb0e85072d62a1f825440d08dbe475585cfffb74cad3624355a766c5cba9cb41366811751edca3e75fe4fdf4402557608c49a435593dae0465e203fc7d05ad3663699503a6b6474f64a44be781d30bbb012d8776be129f8d7b82676587a9ddf0ad770d9ad88142a00fb8b31a5e19c6d78ecc15cca9cf54a6be010d494b5f92a73651d02b06fd1195ed5157a7bd0d2c735708403b945662dc7cb79af94d9f1a3c3b7ca024e1dff6ffa616f0f91244661fc49ab7878a93aea1b455706aa88ad6324a8e01a7bd6148c5b119f3831f3d94b08c0e144ec9bc7a8f4f70c4965af17c4f74cc695ba1010df98437504133e4e3636a404b4103c3b43b68d66b1bb00f8cc505b66ae31236e90893bf0fb5ccc55b4f10eb114e207a349c24a58c404d7eb80ea2b123ee3791047c7297036c48bb8a58dee4105d59b4a77d3c0411d806bf6cf82d2283121b1246a6da7b9cfaee16df64de7e55d9eea00b369640440657104d1d02f7a0e2a17aab5b7dd17ddd343cf3f4ea4b04d172eefb38db64dc1d670422e873742d9ccf589646b3c74cc27403335422619bcb6c67d51e56e91c4621e0df0fa0f4bec3f442bbdf01114f46b1f221e1b5ff3a086b719614e380a912110221d7a6c47dd63fc59549092c61712b07fa9c544b849f46fd90bd97f3b8f64ccd1de27fe7839fb45af86d67605d802be2aec382500d2977654eff08cdab9265caf949afd0ba273618fc50a948f858db03ab58bdef4194258ae008fded0c17fc162985c929749183d5bffec1a0245fe678dae3af2f6b6b7f5d5276d1009d6b948642f0dd1caaa5c14d7291a1d19245a668135b29e5403d862a4296a6f4da640293aa411b8c530d7db54ae3430b8dbfd7ad8a5a698e2bc063a00f89c31910d8346f309ce1595f9a071c83c128b03263ff46b732806915f2ffd7969d7f9707e9128c8dac0b928628b7966f5234f06b12242edb5dbfd5fbb75c5ec98ba32dee55ee69a3f6bda07972dbf09f36edf07c05236b7d70bf93b19b87e3acf07e2a19a713a859c2c5dfd786b60e4250599dbedcd3760d19081dea745b88e5d2c65536f5aba61b6da2c0ff94aa71ba50ea29b1db2a88268fdb12e4f205abee195ddb50659bf3fa5bd9b4442d9d0c192f1b37ce1dade5b8bf6ed98a373653c38511df3ead2bdfb8a4171731cb26527bab7f4c822acd943930a2bea438950a752a475a50bbffd47574d41066c0c97f478e987169e5e788f162dfe1adf3d8244d015129d344c9b01fcb1b9452d738a7db53a153fdca7fe391bbf4bf1e5da8efa59b6c844ea481d0a924dfa51ec2f17d4da646bd3929a3f4654f69d618ae63a5fe108d2b198ba69387a46ad5656aa91eaef5437c188a0ad15d3f5cc68b92c95acec2c12ba04d4f1ed5216fd2c7947b222719ec6cb18fa8bc9b14748291be59d314f9d34fcf349f1ac83932a97add2c02b6faecbad3652d1019d1402ba1ccaa604016f1c20854d5b09f0be8bf2076e43bce9268c9d0f2c6016e49d7bcefd4df18b66039833b2c49e556f0802b80d1443ae269ffc65715ddcc877c6cc8f8854a0fffbaad72211f788946d8e50339dc78d92f84219f71d6f4b5d8c8d6f7868771a10e0035cba637246d29baf9d9f75cda8d9587181d7301df0b4b507ebef6e8ecd51d4c7a64bbe995ff3a9d108f9bcce3cd6bc96514725846269895d60852c74c52de5813c68fcc7fbd212a6edfe78ac704a7d82874ef3e034f4d23c1744c3602c24b150ffc07ec1ca0699c3b13200b27792ea17dc9c58e7d700316b3019d6decf32f655275010d658ce363114078dc206c56a33d5f19d017f5050face53be117c99bb3bcade97e9504a30c0e7c04ef455ac20514868926f9f16f661bba3c0dc7d309703449eb90b10ab6344dffcd2d4e807877d0730083de211f273c0f4667d571ed8ea7d392c17342ab67b1fed024a72e6f5b3c5c81b40bf41f14467dc44f48a03c2e6a6c6a86f1026a49f41ba8cf9d19fbc4532c49268814cc13116f9eaf24a3b876c97a569dd239e125eb5597e6579d1e94f5cc428f113f635e3b98c93dff19083a423bb647b1725d380fd7bf1f7c736297c668fc118e9615c7067f0ea953551b8c27af559550ce0247fcfc9bd5f7a740fda6f2281ba62161bbddeb6cc08c7cd0242e7f745464e689ec4a09d523f2925ec67579682e4f5922d97f53a516f114a31e54a84153153d680b0b14f87db579022b398ad57e82aedc3e4649e71d214d9fddfd4dc1db0c81bc7a28432636da6f963c7ef27d951faee4f38e3e0d49352e2f97549f6dca1b7a866fae67b3a371f3f6f5214d3e49e9097434628e9e94fe0428138d7187b65f961ebab1a35f511230c81a03a9851753fff3f71cb6100c091997ed44997c70b809ea5414953454a9b34a680bb0b8a1e4436975ad3e05f4f2dbde382d6e69d1f88025b464ce403fd23fe6e9e531f975bc6a5cf464883ca0220ece27825e40795dbd769cafefce1cd2d73b54fc57aded60687dcc6e7151f58a62171fbbf9e761ff7be9cb629d1033ec363de0731625ffb78b030dea131578d86585f0645ba96a29e2f98835cf26c9ae54e8ab9ebb561a61e16882e09cb1de2d02b117d840da7f178bc1ff64ebf6cdbcbc670f30dfa7aad643c1f331fb672ed0abc348ab29c34ab301e88d7ee197670d20ea33a15dd199957afd4148dd5958e4eb9d087599d3847bb4dc557fb90b6f578741ad949f36f27f7b47ee232e63da85566ce60faa4a91ff24b7cb143c44c9643c2db1bd38d2ee16f7fe68abd49189492f72519d551abcd84a64547ecb099afa2cb9b759e002888c8455100723a6e32592c4628ebad0a99e85b84ed643e4c5aa1ca48219e1efc01bde3296ca3d7617b4f75bb021b997823060b1ea1ad6bb611e7d0f5acc91e6dd2ebdec606e11a905d52e6ad935514906112a9ad9b0342faf1e569b4392485566e593ca026ba66195c4e5b3297e284269bca58d3d022855be5cd6611950db5d019e56edeb632da9b523f644a9e9e70cd4a62f080208949dd6b5c2a87378b5a4d89f2db18d72fb845968904236841942bc887b128945aefa53c1563e276229c7c9b9855dd11c6f5f2e1496253042a55a3ba38c8c51298c43780aa5091c7f18bd0c27454f331c2dffd29fc4ddba6d8ae7663509690fbe791f4c1f364f1dc61c3c3730659ae543b944c8fc15a51f977a94282d107edc365aed6f4c3bcaf0effbec9dda24758f8049582783e51389b7b48a374131e3c02f1d5e29bb4ec9780de58faaa2250b570e88b35eba089ee34af4886071c58220b10304a5376888c94a6b8dbf6fbfc070e294547618ea8b8d50432476d708493b7bac5c7c8d1e5f4090e193a6875797a8b9db6bcd0d9daf90000000000000000000000000000000000000000000000000f19283801",
        "000b73cddca5aabed47289c16a5befb9a7a7dba135b9186522de4e12c9f12f4e77768391aef265a300ceff3159e076caf45a7b1e991ae944fa2930c0a52910bfd83b9ddbd149b824021f4a8e90001463027ae7586938c86ccb5ecc43028ddde3ab2fca28fba9ec7ad9c44f62344af35bd853de9871f04f606bb9d84204e5fc82e4da531009226661a6b09849d28e43a4d7debf1db1155dd61829f07565dcd80ce69fe3aa4fa87e7e0f3d5e6cd952fa5c115d06415b3104de78c155c6361a1ffdc7a564f972ed0cb7b0756b978fd56ed059a376f20c2f3ee8329fc1ea817c7f5c5d7915778a3762aad820239b9102fef608baf635d5ef33eaec94920c9705bb666eb0fac1ef83ef85ea802cc80159351d41709fb981cfb840405e97178b4ee524ec471849eed9a230d6088719a54456378f4fffef25e9a7744f1a473946a969dc765adb2d386cc62144a8d89a78168f7361d777a3d4fc842d2efa3270387163d2808772757670c288988db1912059dfed9ce834a9fef5e06f8068207c40cb62b8742b3f0c74e3d2117c1a788e439321ab86a0dbe27a35884854da39ef5b7a6e84e83a049b095a0ecaa78becfd1b208b79fbcbe2869a5a8eea190e0e8d2cf7d00e2e514d5f1a31c96fc28da9f85d07c0f35c97756b647fe031c356903d14223f4f8291fc1ca1a5fc73902be3cbe2d8596c54d91fdb9c3daae0d1434dcd02934c3772d5d0dc08daf396bf71bd816e4ef47e77937b9c767cbae84340c8362d17c89ab0da426a2ac79ea3c1dbebd54f571bdbc8097737377b152928fc97acdffacb2e099d9330612ccbffeaa3d6edf315931f06ab4705731e904bcbd5c48356dd519fa63a812d8c828138f381d468171ca7700666261c1771f0f9a4bdd2d235193d9f6e0278780523b215fb0365c98eca8d3676cfcaeabe07c4aaeed956c1fe1c14ba53e4d5dfe251e1139f173f9d7c55ae35e1a2ef766b6e54facf33bb94cabb3786f3e157ae2b5137dbd9de2061460cf001cd705846fbcb185141f61295cbfdef386f71d88ea5555f4c3cf3a3930f598bcbd0c50856424efa384efc9c7be806df45b22a0fecdd5224e72040fa71dda589fad24d2579270500979eef043ca3d4befe18c0b7a525ae09bd409da814e2d8658711969216b1633b682fb9f77698991a33d90ca4a63ea1f9ba1a9bf1e6bcf54a3a6a15d510355768d297402585a17efe1e1da76b26303e02c12983f99fb222558ad527104c313954435b232ea6dcf952c064fbfe98b4db686f5c1ad340a2b5684010316c372c891a6d57051d0085ac0fffdf1486e31d32c8dd140d7a678059c72561fbd67fb0a6e286a26fb2df4b07f5df1f5b12ba0c80428c799efbc7ea2aea7d92743eba77ce3aa24c5a7484aa3b89fc72c13f5323c18dbcc93f716e718ba9ee71a32c703d9a3cb40489049e225f8283f05fb76d299920f93558d377827411ce7f590def17f211d226d5d93ce4623d997f1690eb474a4f48a269178eb16d2478d05e9227efd5ec17eb9154720c50476189e66fbaf48ee96abf5e4ded3547fc3d8a750fb9f8c80fff15f3a3320eba95979c344cc4bd86957cdbce166a22bbe8e2134ada5b338b36f304f756445c490463116bd7115118976b480ce0d0c024f2f5c8f3be0d37c2200678baa5aef1710f89e596afe3249f7e1a7682f885e6e262c6d52a42428bc1413df479901916cd7d049a79f4649936cc38a041dcf1d5776eefc392f55dca3a6c53baf57f5c904e42cec1662a2e2f26f412134cad718244ee3e18a64659b747867c3dc7641d24e4a34c44dd9a2495d22c3167fa8a4a12573ded082329b74b15748c8155baf6bf720cd6f2"
      ],
      "sequence": 4294967294
    }
  ],
  "vout": [
    {
      "value": 1.0,
      "n": 0,
      "scriptPubKey": {
        "asm": "OP_RETURN 255e2e6539024f00ddfd15bffb4cc470b64955ad500479a390454e6f8e1eb35b 742f5a1c80c720af7f2f7427a6b7934f957ff7e22f7b4cd68ca19ffe885882e9540f7a3ca0e7008f5f0f54078697b36fb55fd7c20f5b6cf6ac81bfdea878a2c9346f1a5cc08760ef3f6f3467e6f7d30fd53fb7a26f3b0c96cce1dfbec818c2a9144f3a7ce0a740cf1f4f1447c6d7f32ff51f97824f1b2cb6ecc1ff9ee838e289f4afda9c0047a02fffaff4a7263713cf15ff7762affbcc560c211f7e08d80269d48ffabc2067800fdf8fd487061733ef35df57428fdbec762c013f5e28f82249b4ef9adc4007e06fbfefb4e76677538f55bf3722efbb8c164c615f3e4898422994cfbafc6027c04f9fcf94c7465773af759f1702cf9bac366c417f1e68b86209742f5a1c80c720af7f2f7427a6b7934f957ff7e22f7b4cd68ca19ffe885882e9540f7a3ca0e7008f5f0f54078697b36fb55fd7c20f5b6cf6ac81bfdea878a2c9346f1a5cc08760ef3f6f3467e6f7d30fd53fb7a26f3b0c96cce1dfbec818c2a9144f3a7ce0a740cf1f4f1447c6d7f32ff51f97824f1b2cb6ecc1ff9ee838e289f4afda9c0047a02fffaff4a7263713cf15ff7762affbcc560c211f7e08d80269d48ffabc2067800fdf8fd487061733ef35df57428fdbec762c013f5e28f82249b4ef9adc4007e06fbfefb4e76677538f55bf3722efbb8c164c615f3e4898422994cfbafc6027c04f9fcf94c7465773af759f1702cf9bac366c417f1e68b86209742f5a1c80c720af7f2f7427a6b7934f957ff7e22f7b4cd68ca19ffe885882e9540f7a3ca0e7008f5f0f54078697b36fb55fd7c20f5b6cf6ac81bfdea878a2c9346f1a5cc08760ef3f6f3467e6f7d30fd53fb7a26f3b0c96cce1dfbec818c2a9144f3a7ce0a740cf1f4f1447c6d7f32ff51f97824f1b2cb6ecc1ff9ee838e289f4afda9c0047a02fffaff4a7263713cf15ff7762affbcc560c211f7e08d80269d48ffabc2067800fdf8fd487061733ef35df57428fdbec762c013f5e28f82249b4ef9adc4007e06fbfefb4e76677538f55bf3722efbb8c164c615f3e4898422994cfbafc6027c04f9fcf94c7465773af759f1702cf9bac366c417f1e68b86209742f5a1c80c720af7f2f7427a6b7934f957ff7e22f7b4cd68ca19ffe885882e9540f7a3ca0e7008f5f0f54078697b36fb55fd7c20f5b6cf6ac81bfdea878a2c9346f1a5cc08760ef3f6f3467e6f7d30fd53fb7a26f3b0c96cce1dfbec818c2a9144f3a7ce0a740cf1f4f1447c6d7f32ff51f97824f1b2cb6ecc1ff9ee838e289f4afda9c0047a02fffaff4a7263713cf15ff7762affbcc560c211f7e08d80269d48ffabc2067800fdf8fd487061733ef35df57428fdbec762c013f5e28f82249b4ef9adc4007e06fbfefb4e76677538f55bf3722efbb8c164c615f3e4898422994cfbafc6027c04f9fcf94c7465773af759f1702cf9bac366c417f1e68b86209742f5a1c80c720af7f2f7427a6b7934f957ff7e22f7b4cd68ca19ffe885882e9540f7a3ca0e7008f5f0f54078697b36fb55fd7c20f5b6cf6ac81bfdea878a2c9346f1a5cc08760ef3f6f3467e6f7d30fd53fb7a26f3b0c96cce1dfbec818c2a9144f3a7ce0a740cf1f4f1447c6d7f32ff51f97824f1b2cb6ecc1ff9ee838e289f4afda9c0047a02fffaff4a7263713cf5de4d6ce7704d014a13cc68eeaf97076f743ae2cd326e5afc20f3f646a22e1c2",
        "hex": "6a20255e2e6539024f00ddfd15bffb4cc470b64955ad500479a390454e6f8e1eb35b4db004742f5a1c80c720af7f2f7427a6b7934f957ff7e22f7b4cd68ca19ffe885882e9540f7a3ca0e7008f5f0f54078697b36fb55fd7c20f5b6cf6ac81bfdea878a2c9346f1a5cc08760ef3f6f3467e6f7d30fd53fb7a26f3b0c96cce1dfbec818c2a9144f3a7ce0a740cf1f4f1447c6d7f32ff51f97824f1b2cb6ecc1ff9ee838e289f4afda9c0047a02fffaff4a7263713cf15ff7762affbcc560c211f7e08d80269d48ffabc2067800fdf8fd487061733ef35df57428fdbec762c013f5e28f82249b4ef9adc4007e06fbfefb4e76677538f55bf3722efbb8c164c615f3e4898422994cfbafc6027c04f9fcf94c7465773af759f1702cf9bac366c417f1e68b86209742f5a1c80c720af7f2f7427a6b7934f957ff7e22f7b4cd68ca19ffe885882e9540f7a3ca0e7008f5f0f54078697b36fb55fd7c20f5b6cf6ac81bfdea878a2c9346f1a5cc08760ef3f6f3467e6f7d30fd53fb7a26f3b0c96cce1dfbec818c2a9144f3a7ce0a740cf1f4f1447c6d7f32ff51f97824f1b2cb6ecc1ff9ee838e289f4afda9c0047a02fffaff4a7263713cf15ff7762affbcc560c211f7e08d80269d48ffabc2067800fdf8fd487061733ef35df57428fdbec762c013f5e28f82249b4ef9adc4007e06fbfefb4e76677538f55bf3722efbb8c164c615f3e4898422994cfbafc6027c04f9fcf94c7465773af759f1702cf9bac366c417f1e68b86209742f5a1c80c720af7f2f7427a6b7934f957ff7e22f7b4cd68ca19ffe885882e9540f7a3ca0e7008f5f0f54078697b36fb55fd7c20f5b6cf6ac81bfdea878a2c9346f1a5cc08760ef3f6f3467e6f7d30fd53fb7a26f3b0c96cce1dfbec818c2a9144f3a7ce0a740cf1f4f1447c6d7f32ff51f97824f1b2cb6ecc1ff9ee838e289f4afda9c0047a02fffaff4a7263713cf15ff7762affbcc560c211f7e08d80269d48ffabc2067800fdf8fd487061733ef35df57428fdbec762c013f5e28f82249b4ef9adc4007e06fbfefb4e76677538f55bf3722efbb8c164c615f3e4898422994cfbafc6027c04f9fcf94c7465773af759f1702cf9bac366c417f1e68b86209742f5a1c80c720af7f2f7427a6b7934f957ff7e22f7b4cd68ca19ffe885882e9540f7a3ca0e7008f5f0f54078697b36fb55fd7c20f5b6cf6ac81bfdea878a2c9346f1a5cc08760ef3f6f3467e6f7d30fd53fb7a26f3b0c96cce1dfbec818c2a9144f3a7ce0a740cf1f4f1447c6d7f32ff51f97824f1b2cb6ecc1ff9ee838e289f4afda9c0047a02fffaff4a7263713cf15ff7762affbcc560c211f7e08d80269d48ffabc2067800fdf8fd487061733ef35df57428fdbec762c013f5e28f82249b4ef9adc4007e06fbfefb4e76677538f55bf3722efbb8c164c615f3e4898422994cfbafc6027c04f9fcf94c7465773af759f1702cf9bac366c417f1e68b86209742f5a1c80c720af7f2f7427a6b7934f957ff7e22f7b4cd68ca19ffe885882e9540f7a3ca0e7008f5f0f54078697b36fb55fd7c20f5b6cf6ac81bfdea878a2c9346f1a5cc08760ef3f6f3467e6f7d30fd53fb7a26f3b0c96cce1dfbec818c2a9144f3a7ce0a740cf1f4f1447c6d7f32ff51f97824f1b2cb6ecc1ff9ee838e289f4afda9c0047a02fffaff4a7263713cf5de4d6ce7704d014a13cc68eeaf97076f743ae2cd326e5afc20f3f646a22e1c2",
        "type": "nulldata"
      }
    },
    {
      "value": 499992.8817,
      "n": 1,
      "scriptPubKey": {
        "asm": "1 204bcc6189b5920cf7b49d61a872781a6d046703ea8c6a909c10a2517c0d42ad",
        "hex": "5120204bcc6189b5920cf7b49d61a872781a6d046703ea8c6a909c10a2517c0d42ad",
        "reqSigs": 1,
        "type": "witness_v1_scripthash",
        "addresses": [
          "3QJmnh"
        ]
      }
    }
  ],
  "blockhash": "86d3aa2e412fd1c0ad7fd5d7d84b7ddcf41a8bf652344eaa49dd1e6444ae5dce",
  "confirmations": 1,
  "time": 1764176858,
  "blocktime": 1764176858
}