{
  "hex": "0100000000010134d5d7085785ee0ad1d4ab6483581546eb20c7450f4efb95abdfda4423ade99c0000000000feffffff0200e1f50500000000fdd5046a20b3851848d72f428425d9654c4e078ba8cf9141f8f559865d522290bdf44f99de4db0043334b0eee9a7f33ea73b77a8129ae1dce9cb0072a4e5750d89849b47d2da623e131490cec987d31e871b578832bac1fcc9eb205284c5552da9a4bb67f2fa421e7374f0aea9e7b37ee77b37e852daa19ca98b4032e4a5354dc9c4db07929a227e5354d08e89c7935ec75b17c872fa81bc89ab6012c485156de9e4fb27b2ba025eb3b4306e692773be27bbf728921a615c694b80f22465f58d09041bc7525ae2be9394104e4907539e079bd708b23a417c496ba0d20445d5ad29243be7727ac29ef3f4702e296733fe67fbb768d25a211c290bc0b26425b5cd49445b87121aa2fed3d4500e094713de47db9748f27a013c092be092440595ed69647ba7323a82de3334b0eee9a7f33ea73b77a8129ae1dce9cb0072a4e5750d89849b47d2da623e131490cec987d31e871b578832bac1fcc9eb205284c5552da9a4bb67f2fa421e7374f0aea9e7b37ee77b37e852daa19ca98b4032e4a5354dc9c4db07929a227e5354d08e89c7935ec75b17c872fa81bc89ab6012c485156de9e4fb27b2ba025eb3b4306e692773be27bbf728921a615c694b80f22465f58d09041bc7525ae2be9394104e4907539e079bd708b23a417c496ba0d20445d5ad29243be7727ac29ef3f4702e296733fe67fbb768d25a211c290bc0b26425b5cd49445b87121aa2fed3d4500e094713de47db9748f27a013c092be092440595ed69647ba7323a82de3334b0eee9a7f33ea73b77a8129ae1dce9cb0072a4e5750d89849b47d2da623e131490cec987d31e871b578832bac1fcc9eb205284c5552da9a4bb67f2fa421e7374f0aea9e7b37ee77b37e852daa19ca98b4032e4a5354dc9c4db07929a227e5354d08e89c7935ec75b17c872fa81bc89ab6012c485156de9e4fb27b2ba025eb3b4306e692773be27bbf728921a615c694b80f22465f58d09041bc7525ae2be9394104e4907539e079bd708b23a417c496ba0d20445d5ad29243be7727ac29ef3f4702e296733fe67fbb768d25a211c290bc0b26425b5cd49445b87121aa2fed3d4500e094713de47db9748f27a013c092be092440595ed69647ba7323a82de3334b0eee9a7f33ea73b77a8129ae1dce9cb0072a4e5750d89849b47d2da623e131490cec987d31e871b578832bac1fcc9eb205284c5552da9a4bb67f2fa421e7374f0aea9e7b37ee77b37e852daa19ca98b4032e4a5354dc9c4db07929a227e5354d08e89c7935ec75b17c872fa81bc89ab6012c485156de9e4fb27b2ba025eb3b4306e692773be27bbf728921a615c694b80f22465f58d09041bc7525ae2be9394104e4907539e079bd708b23a417c496ba0d20445d5ad29243be7727ac29ef3f4702e296733fe67fbb768d25a211c290bc0b26425b5cd49445b87121aa2fed3d4500e094713de47db9748f27a013c092be092440595ed69647ba7323a82de3334b0eee9a7f33ea73b77a8129ae1dce9cb0072a4e5750d89849b47d2da623e131490cec987d31e871b578832bac1fcc9eb205284c5552da9a4bb67f2fa421e7374f0aea9e7b37ee77b37e852daa19ca98b4032e4a5354dc9c4db07929a227e5354d08e89c7935ec75b17c872fa81bc89ab6012c485156de9e4fb27b2ba025eb3b4306e692773be27bbf728921a615c2cef5dc476d1ef1531bdc6e93a996db9c0278f99ef9d46fab619b34882776682c075fe6f792d0000225120a8b3113d51edc50e7ed223a558b174755287b55155bb8f3ea70e36b925e9c16a02fd750944a3cfa16c38952b143aec8d6a92ce4186ece3456edbce031fe0f5eae912d8eefd097b66f50c1fcf1487ae69d4e8b9bd7dbea6ea6803cc5e4f9987a23f34073b83fd8e033a4a380e7fcd52db1cd6ca9eedbdbdf10b9a5389ebae04106db3ced7755c656d6b70341218e1138370ad9d34fad2573e392b9bff3f280fc33cec4a93a36b7287a14a5bedfe29af6e215ae405fd798db642320938f7fe7219401ff6547087b3f8571cde15d2cbd16cdb293744b420667ff3b2fd29841b937f7935d65145c1cb2ba1827289c110bdfb0d8fd6c11ee44a092f537d87b4d4c9be519fd30ee606bc87513c89f5971cc44be0f8a0abb99ef29dafe452963241dc7c3c6d317ad16e2a616a37c1fce71e3e7a2ebf1197a17a7b770f09224f02d1bf53820958281bda30153fe62777380dcff16bf633b2fe9c6c54b45a6be23198f99ff76e2c9670f60b665e56b5c06597b962c3f1ed5a089646a9819a37a0d1fe7c8221149e7827ffcbcaf7112935d69f88044ef984e756cd4971fa0c646d2300b5569323a6a2064d30c80013c79357e764345dbb3e427ed85a1ed09a1ea3ffc1cbc4c3beb0adc558c06652a52ad6b47f6ea1db4543d0e3f775b3b7f20cac6fc6095d06f5f31c8b592b137b3bfb24581e2259edaf7eb4b4f4ffa79a99dae76a545601a4f4d93f041191e568ef34850bd662b3665b1a50ae6660f8e88738854865bb4a884090f2da1b3f677570d6381483f0194b5df0f75a6527aedf108ed913f46763015be2a7964effb118a34c6756174fe111950a0c1e982039d38883cd503e11da01b24709fe36bf91fe082ac38609f511511e261bdf9235efd0a1c4b50d2817f9f8354d8c226a07e0002c7adae75f820aa69b3bc14af6e7b719d31ebe10f884044c60d4ecba10c13f666009bdd14fb02645ffe00cf785baef4a9f6beea17978ddd0af04157f7f373620a89cf2b840b30cb2bf8f369a37a95b9ef844b50e0b38d9c870d2ef8f31c384c1d50aab0afcbeb762712ebb3610968e2c9ab4e18fdd4edf3072325afececf2cc8037743f9db930e538dfa3096a4c66e5cd0ccc6282e5c7f4d2f7bcd4c3d4a8cfec808467d1e0d24b7bff2a2b59a4e8d1a3a0cd54b8c9d061d1276e77269d2cf59fc2d0a0ef1092396e016311bfe0fb751a2beef08c7336c25a8a548ea8fc41dcb932f3d29e08710514d6c5c4f1dbdd59b9a4c0d7af231892fd983a7e42319bf965eea685038d18a7f2cdca512902023ce33008e07d845ebbd192bfb8c6bc66400e08f978e3a656a040cdb2091271b272d5e86035144a9ee8c9bfbcebbcfc89ee057b53b9ae54c2274f05044fd195d2ccbb2c5de0832408dc227b56672a464446d69cfd356110e6e9b73cf01be31fdab0ecb59e994844ea3c0fbd01e5bdcc4220c933c02efa30522771903be8a3e6b2e3244b4e7c9719b9a37ed260c292919bd1b9544fb6dccc8e9ffa33a72de62f34ffc90dde23699989c6d222f6b7f40a48098c52adc09b4be1713df44219a04f6f734b3d7b79678ba5ec7e2bcacde156b3539f3e6a3583118f33b1f1ee8d1afb61e1ef7793860e55dcedbe3af2ef758cd10ac6070f410db2a7dac7e388ddda93281e5ea2c36821f04fb4033fb62ebe045bbd6bcbeb6bfb983c59f19383ed01816cf7dad303dbc2da4db6243d0082b0d8d63cf35ec30da500b1700118b014588bb018cba8136a4e8b984c680b64d1563f3dd6876b61196e035d5531b20d12f191b0e6b9c44f57c70d8f6e50d0f384a521994c42b8e1ed7bf9e6245de65e26a7389e937967a30c4e081bfa59f2b30309cef381b74d6b5a8c2b6a1e5308c25ca375c37805975354531423a8f5cf6834f3a81c8dd1adacc92eba0a505bc59f778b4f2c0c35e12bf5f7cf487b3ee44c6c72639ae45bb7e3b747126d7efdf7ab9a190394bc80f6bba0345b62c56039293d6ef8931c3faa1c754e3ec372766dc7f715a17417691bbf771043c90e0d5332cb5bbfd8850c1e452220290013605e7ca04687ce493b1ba0c5d6f3e799f4c960c67640478aa0ea6a020521f9af6b7f2bf9bf1952140f360d892a4db786f0e1d22f72a9e74b707932dd4531c92ecf14721aa86af9dca41b9c8013d70dee75538ab6950b2eda6fc2190ba60b26eb14ab518642bf53f20a9bd11e8734be95d5be55e920685031bd1a7f8cd145166c855496179bc71d45a62cdbf871b9c282eb9ba12f63bc16419853ef36e24eabfd649e377a02ef125420fdad6b41b9b153fd61b17877b8c3b37616e3278ad76ff6b084330ebdb72285a9277e18db3e1a20921e715a5e8c0f904bfd2b2c147470f3d9e45bc1de119a88c6130e86848dda3e7e4b9583ef752c87c720e98fe2fe1caa096b873e6268a87567c0c94b2e75e60206cdc891f94e597c154843ec7641c8bbc7c6b474a0a892c89889402c31872e0dbfaccaedddb23bf87492919214c868006db14a9213dbbdd3dbaa81251e17b59821f7da7196dabb4129a4ea11f4dbdf22f8286bddb5e6ee8bcde080b7ba47efec198c8945ea29c2dc28e99d58c36ebd387e94ac9ca704034458f87e44eef3057e040feaf1d5bcc001991d0cbb4a26157083e0485fd2000f56c6875b7f8ed7017e5b550d65b1c542d319dc3f108a613df03dcd1994cf5439ef8b71a3f39ea7e6ddbb22684352c6ddf5ccd6be752ce64e39a346468b0a849cf35ad2dde636561af32e2bc0c582ace31811105cc5ac3b292fa519e59448a6c639098eb7871a17bc13e125d6462142c007b7041b6aa50d270ea289c69e34094f1e50655d6bd971f553c3dc6196a6915391857245674c652d7eb326df80b7d5420292648de262f8878db738ec51d118394bb3186132e55f009d0a3ea22c55a0a7772bda034bae21e547b0d6611bb822a3ced5c454ab8f2cc8d55fbee144ec116f9f08e8c882950c3f72d9bf9ea093c31f43c5e2eb702025c79f3b0c4758de92991629ecb112582770d8adf6578b49657b2411c4bd6dd6fc61240a5b8c5b250494ba110c5f64f637c38d604faac7ef10bbbb88ec022f7bfc8c9e8deba633812b73691a344b09618aec0c40b3cd0289fb49868c26d96bfb1944df248a994a967e315befd957448dfc15062e589eb6cb58c7a0e11310c0d54782d7b28af17c431ea8ef0103df742f486f01b3691bca38b523373b35426f2e5da10a678d3addaf2b6fcc0adc0463eb2282b84fbb6a47c1e273c08475b07e66099e0bf44f59c3afd99595995d0e705cbc52e0714c7d1d0f3bc58383998d780c3374471d82de393606a2c64a841f225ff05481fabe3540004181f224c5056a0a8b7c9cfdaf4f7fe00203d3e4354556365767c8791afbfc1ccdc1032465574898e9aa0a2add0e6f71c2a393e434d565e6f718687939eabaeb0b8c0d7dbedf300000000000000001123314801fd21050035e8e585e8372f996231a913771b3ee5b2adb97ac04e4247dbb70e4201ada27f68d61991346ddfed12476a2fe284cfbdab77b83ff8fecd43701e7390ed274f69e9003b95d3e21e28b273be77722b41eac251105822957a27eefe0bc78bd9b6e6f492957b957713fe9da8df1e9e11f6f0c707ce8fd29553edb59c5c1b09ce5b5b930bb218b9b99b753ca32f0060987da49dc83f245c9a791be51d133c9d75fc7682d9a5ea614f9f0403ce9b8196f87e6b8956605e72bfdb4a9c2e83f29f6f83facd8d83fee9677ed55138d820f3793c0dbfb797d99112bdbfaafed3b971b4d7e6bbe0563daacba2c02c0e033f7a0625ceadae9fa0a56c50e2b3d7ceb0f609d2208ba2ced5f6fe05adc8d38570dda268641fc85fe21e74523273397b019488b39e2497b7bc5892523f9de83dff5cff8c9230c3d1909eec97b7d95ced09954877c4d4dd3c1d646e64ceb278433f05eb5e41a3567e2e21ed2eb5a60e6f0933dd32adefc13b38dad781e3016a416ee5a310ce640acec619036d8fb73d9049eb7c3e7a48908d0f91040695d96f9366242bc9e21dbd9f47f5956dfc20153678a0d2812890a1aa12b1c17cad533be1b8a279109529d89d9edaa3fa7e56379cb5565e4e8a79db8602795590cc98ea2e3f15a008447a329571f76ca316a4c13ede144de6c188ee4f23de9e0732bc02494587ca0911c4cb5897e1e59c59ce9545e2fa859f9112751ad47d87dbfb549d91db72bdbce6578e513b6d8799e2d2b551717cf6033d3cbd5c1f3e429163e34b7f055031a2b6f0bb37d7fd40c583e768d5445c79606729dada240896194a2f3d872b2a2cdf2106e8106cf206eb8179820b8c5d8875ff04481da3f34b2ba620eb264fa488b12325baaab42f457e60249210f697d49da3df3b2857436983700b6527ea77dabf6da12970915b4d2704977779ac1aca232d389bed2a76a7f1f306ec11614cc7ccefc7704f1722e057ddfc9070abe98354890a572531f7a79c4a7ac1ba3d4df24e26accfe1a4166a621618f962517c5e32c9e6c2036d4ea551b2bf6a5855629161f6530b0e7956f86b05d31a60a7f0f31de769908455df4f645e7a5e2acf7002910cffa33cb03dfc31317f184768e8bfb3cdd8c140ec8f6108a0f9dcd2f62c33ebd19fd8512978b7d34bdbb6c91b3336a600e82f4b1e623dd391ebbc34a904b58f2c9044e0558dc99fa6e26ddcbf4028d1eadc9a4d3d6fa729ddcb1eaef8a72ebcd8ab2bc368d72d4c1582299ec336a1a250d98f8bd86e2e9fdebd792e126583c3b5ab9fed582eba21d957a403302a9af7c7e109af0411bbffa1006f06ddf674a0cd76965a97091bb7ab188df8326930401a213f52bb8b58fd6e45ce1bde8da86819f0eddf3d5da3011b394b6b41e34e3d3d983bc07dc131d48a9bea15a487412ce3f98a3794b27f85e6d0b55e874a4f99c59faa63103586cf9d08af9a203c75e7b671daf386c24a421d8c3b286f864d04ac284dd9724f0c5d5ec27c959d4841a6626e81b8f81e59fb39b82782137250c86ddd3f06a48a533f4062e8c51c85bd0f4ea7cb3ccb80c2307627dfd8f048f5f9d56d09a58733de40ac33fe051002bda40cf183441fd300b5bb2d1d41cf134bfd9395c57ef02cc3af35760c6d09cb032af91a67d940ac97dde5d275505ea4a58aec30db6d9213cd17cc490ca8488136035d5431a5bc6ce92e6b9358de689c45dfc43ce0bb2c99fa415da18e4c59ccebe0e027a7b65647c743a07e2b06619c13d94a88f10760672e32e6135e3a1a3efd8d8dfe2d6920fa7fc04229fc1f8a4a98e6872dd3a57123768ccea1da968093c3fadc2c7472ed4f420ad17897dc4208d0edfc46000000",
  "txid": "8698dc8115e849049496dd136d9dd7e684b6c0bd50f9c60e474aedf0f8229d65",
  "hash": "c626155beef4012d0e399dbc5a54338ff7522bf0c5dff9100146f00ef50276c5",
  "size": 5085,
  "vsize": 2278,
  "version": 1,
  "locktime": 70,
  "vin": [
    {
      "txid": "9ce9ad2344dadfab95fb4e0f45c720eb4615588364abd4d10aee855708d7d534",
      "vout": 0,
      "scriptSig": {
        "asm": "",
        "hex": ""
      },
      "txinwitness": [
        "44a3cfa16c38952b143aec8d6a92ce4186ece3456edbce031fe0f5eae912d8eefd097b66f50c1fcf1487ae69d4e8b9bd7dbea6ea6803cc5e4f9987a23f34073b83fd8e033a4a380e7fcd52db1cd6ca9eedbdbdf10b9a5389ebae04106db3ced7755c656d6b70341218e1138370ad9d34fad2573e392b9bff3f280fc33cec4a93a36b7287a14a5bedfe29af6e215ae405fd798db642320938f7fe7219401ff6547087b3f8571cde15d2cbd16cdb293744b420667ff3b2fd29841b937f7935d65145c1cb2ba1827289c110bdfb0d8fd6c11ee44a092f537d87b4d4c9be519fd30ee606bc87513c89f5971cc44be0f8a0abb99ef29dafe452963241dc7c3c6d317ad16e2a616a37c1fce71e3e7a2ebf1197a17a7b770f09224f02d1bf53820958281bda30153fe62777380dcff16bf633b2fe9c6c54b45a6be23198f99ff76e2c9670f60b665e56b5c06597b962c3f1ed5a089646a9819a37a0d1fe7c8221149e7827ffcbcaf7112935d69f88044ef984e756cd4971fa0c646d2300b5569323a6a2064d30c80013c79357e764345dbb3e427ed85a1ed09a1ea3ffc1cbc4c3beb0adc558c06652a52ad6b47f6ea1db4543d0e3f775b3b7f20cac6fc6095d06f5f31c8b592b137b3bfb24581e2259edaf7eb4b4f4ffa79a99dae76a545601a4f4d93f041191e568ef34850bd662b3665b1a50ae6660f8e88738854865bb4a884090f2da1b3f677570d6381483f0194b5df0f75a6527aedf108ed913f46763015be2a7964effb118a34c6756174fe111950a0c1e982039d38883cd503e11da01b24709fe36bf91fe082ac38609f511511e261bdf9235efd0a1c4b50d2817f9f8354d8c226a07e0002c7adae75f820aa69b3bc14af6e7b719d31ebe10f884044c60d4ecba10c13f666009bdd14fb02645ffe00cf785baef4a9f6beea17978ddd0af04157f7f373620a89cf2b840b30cb2bf8f369a37a95b9ef844b50e0b38d9c870d2ef8f31c384c1d50aab0afcbeb762712ebb3610968e2c9ab4e18fdd4edf3072325afececf2cc8037743f9db930e538dfa3096a4c66e5cd0ccc6282e5c7f4d2f7bcd4c3d4a8cfec808467d1e0d24b7bff2a2b59a4e8d1a3a0cd54b8c9d061d1276e77269d2cf59fc2d0a0ef1092396e016311bfe0fb751a2beef08c7336c25a8a548ea8fc41dcb932f3d29e08710514d6c5c4f1dbdd59b9a4c0d7af231892fd983a7e42319bf965eea685038d18a7f2cdca512902023ce33008e07d845ebbd192bfb8c6bc66400e08f978e3a656a040cdb2091271b272d5e86035144a9ee8c9bfbcebbcfc89ee057b53b9ae54c2274f05044fd195d2ccbb2c5de0832408dc227b56672a464446d69cfd356110e6e9b73cf01be31fdab0ecb59e994844ea3c0fbd01e5bdcc4220c933c02efa30522771903be8a3e6b2e3244b4e7c9719b9a37ed260c292919bd1b9544fb6dccc8e9ffa33a72de62f34ffc90dde23699989c6d222f6b7f40a48098c52adc09b4be1713df44219a04f6f734b3d7b79678ba5ec7e2bcacde156b3539f3e6a3583118f33b1f1ee8d1afb61e1ef7793860e55dcedbe3af2ef758cd10ac6070f410db2a7dac7e388ddda93281e5ea2c36821f04fb4033fb62ebe045bbd6bcbeb6bfb983c59f19383ed01816cf7dad303dbc2da4db6243d0082b0d8d63cf35ec30da500b1700118b014588bb018cba8136a4e8b984c680b64d1563f3dd6876b61196e035d5531b20d12f191b0e6b9c44f57c70d8f6e50d0f384a521994c42b8e1ed7bf9e6245de65e26a7389e937967a30c4e081bfa59f2b30309cef381b74d6b5a8c2b6a1e5308c25ca375c37805975354531423a8f5cf6834f3a81c8dd1adacc92eba0a505bc59f778b4f2c0c35e12bf5f7cf487b3ee44c6c72639ae45bb7e3b747126d7efdf7ab9a190394bc80f6bba0345b62c56039293d6ef8931c3faa1c754e3ec372766dc7f715a17417691bbf771043c90e0d5332cb5bbfd8850c1e452220290013605e7ca04687ce493b1ba0c5d6f3e799f4c960c67640478aa0ea6a020521f9af6b7f2bf9bf1952140f360d892a4db786f0e1d22f72a9e74b707932dd4531c92ecf14721aa86af9dca41b9c8013d70dee75538ab6950b2eda6fc2190ba60b26eb14ab518642bf53f20a9bd11e8734be95d5be55e920685031bd1a7f8cd145166c855496179bc71d45a62cdbf871b9c282eb9ba12f63bc16419853ef36e24eabfd649e377a02ef125420fdad6b41b9b153fd61b17877b8c3b37616e3278ad76ff6b084330ebdb72285a9277e18db3e1a20921e715a5e8c0f904bfd2b2c147470f3d9e45bc1de119a88c6130e86848dda3e7e4b9583ef752c87c720e98fe2fe1caa096b873e6268a87567c0c94b2e75e60206cdc891f94e597c154843ec7641c8bbc7c6b474a0a892c89889402c31872e0dbfaccaedddb23bf87492919214c868006db14a9213dbbdd3dbaa81251e17b59821f7da7196dabb4129a4ea11f4dbdf22f8286bddb5e6ee8bcde080b7ba47efec198c8945ea29c2dc28e99d58c36ebd387e94ac9ca704034458f87e44eef3057e040feaf1d5bcc001991d0cbb4a26157083e0485fd2000f56c6875b7f8ed7017e5b550d65b1c542d319dc3f108a613df03dcd1994cf5439ef8b71a3f39ea7e6ddbb22684352c6ddf5ccd6be752ce64e39a346468b0a849cf35ad2dde636561af32e2bc0c582ace31811105cc5ac3b292fa519e59448a6c639098eb7871a17bc13e125d6462142c007b7041b6aa50d270ea289c69e34094f1e50655d6bd971f553c3dc6196a6915391857245674c652d7eb326df80b7d5420292648de262f8878db738ec51d118394bb3186132e55f009d0a3ea22c55a0a7772bda034bae21e547b0d6611bb822a3ced5c454ab8f2cc8d55fbee144ec116f9f08e8c882950c3f72d9bf9ea093c31f43c5e2eb702025c79f3b0c4758de92991629ecb112582770d8adf6578b49657b2411c4bd6dd6fc61240a5b8c5b250494ba110c5f64f637c38d604faac7ef10bbbb88ec022f7bfc8c9e8deba633812b73691a344b09618aec0c40b3cd0289fb49868c26d96bfb1944df248a994a967e315befd957448dfc15062e589eb6cb58c7a0e11310c0d54782d7b28af17c431ea8ef0103df742f486f01b3691bca38b523373b35426f2e5da10a678d3addaf2b6fcc0adc0463eb2282b84fbb6a47c1e273c08475b07e66099e0bf44f59c3afd99595995d0e705cbc52e0714c7d1d0f3bc58383998d780c3374471d82de393606a2c64a841f225ff05481fabe3540004181f224c5056a0a8b7c9cfdaf4f7fe00203d3e4354556365767c8791afbfc1ccdc1032465574898e9aa0a2add0e6f71c2a393e434d565e6f718687939eabaeb0b8c0d7dbedf300000000000000001123314801",
        "0035e8e585e8372f996231a913771b3ee5b2adb97ac04e4247dbb70e4201ada27f68d61991346ddfed12476a2fe284cfbdab77b83ff8fecd43701e7390ed274f69e9003b95d3e21e28b273be77722b41eac251105822957a27eefe0bc78bd9b6e6f492957b957713fe9da8df1e9e11f6f0c707ce8fd29553edb59c5c1b09ce5b5b930bb218b9b99b753ca32f0060987da49dc83f245c9a791be51d133c9d75fc7682d9a5ea614f9f0403ce9b8196f87e6b8956605e72bfdb4a9c2e83f29f6f83facd8d83fee9677ed55138d820f3793c0dbfb797d99112bdbfaafed3b971b4d7e6bbe0563daacba2c02c0e033f7a0625ceadae9fa0a56c50e2b3d7ceb0f609d2208ba2ced5f6fe05adc8d38570dda268641fc85fe21e74523273397b019488b39e2497b7bc5892523f9de83dff5cff8c9230c3d1909eec97b7d95ced09954877c4d4dd3c1d646e64ceb278433f05eb5e41a3567e2e21ed2eb5a60e6f0933dd32adefc13b38dad781e3016a416ee5a310ce640acec619036d8fb73d9049eb7c3e7a48908d0f91040695d96f9366242bc9e21dbd9f47f5956dfc20153678a0d2812890a1aa12b1c17cad533be1b8a279109529d89d9edaa3fa7e56379cb5565e4e8a79db8602795590cc98ea2e3f15a008447a329571f76ca316a4c13ede144de6c188ee4f23de9e0732bc02494587ca0911c4cb5897e1e59c59ce9545e2fa859f9112751ad47d87dbfb549d91db72bdbce6578e513b6d8799e2d2b551717cf6033d3cbd5c1f3e429163e34b7f055031a2b6f0bb37d7fd40c583e768d5445c79606729dada240896194a2f3d872b2a2cdf2106e8106cf206eb8179820b8c5d8875ff04481da3f34b2ba620eb264fa488b12325baaab42f457e60249210f697d49da3df3b2857436983700b6527ea77dabf6da12970915b4d2704977779ac1aca232d389bed2a76a7f1f306ec11614cc7ccefc7704f1722e057ddfc9070abe98354890a572531f7a79c4a7ac1ba3d4df24e26accfe1a4166a621618f962517c5e32c9e6c2036d4ea551b2bf6a5855629161f6530b0e7956f86b05d31a60a7f0f31de769908455df4f645e7a5e2acf7002910cffa33cb03dfc31317f184768e8bfb3cdd8c140ec8f6108a0f9dcd2f62c33ebd19fd8512978b7d34bdbb6c91b3336a600e82f4b1e623dd391ebbc34a904b58f2c9044e0558dc99fa6e26ddcbf4028d1eadc9a4d3d6fa729ddcb1eaef8a72ebcd8ab2bc368d72d4c1582299ec336a1a250d98f8bd86e2e9fdebd792e126583c3b5ab9fed582eba21d957a403302a9af7c7e109af0411bbffa1006f06ddf674a0cd76965a97091bb7ab188df8326930401a213f52bb8b58fd6e45ce1bde8da86819f0eddf3d5da3011b394b6b41e34e3d3d983bc07dc131d48a9bea15a487412ce3f98a3794b27f85e6d0b55e874a4f99c59faa63103586cf9d08af9a203c75e7b671daf386c24a421d8c3b286f864d04ac284dd9724f0c5d5ec27c959d4841a6626e81b8f81e59fb39b82782137250c86ddd3f06a48a533f4062e8c51c85bd0f4ea7cb3ccb80c2307627dfd8f048f5f9d56d09a58733de40ac33fe051002bda40cf183441fd300b5bb2d1d41cf134bfd9395c57ef02cc3af35760c6d09cb032af91a67d940ac97dde5d275505ea4a58aec30db6d9213cd17cc490ca8488136035d5431a5bc6ce92e6b9358de689c45dfc43ce0bb2c99fa415da18e4c59ccebe0e027a7b65647c743a07e2b06619c13d94a88f10760672e32e6135e3a1a3efd8d8dfe2d6920fa7fc04229fc1f8a4a98e6872dd3a57123768ccea1da968093c3fadc2c7472ed4f420ad17897dc4208d0edfc"
      ],
      "sequence": 4294967294
    }
  ],
  "vout": [
    {
      "value": 1.0,
      "n": 0,
      "scriptPubKey": {
        "asm": "OP_RETURN b3851848d72f428425d9654c4e078ba8cf9141f8f559865d522290bdf44f99de 3334b0eee9a7f33ea73b77a8129ae1dce9cb0072a4e5750d89849b47d2da623e131490cec987d31e871b578832bac1fcc9eb205284c5552da9a4bb67f2fa421e7374f0aea9e7b37ee77b37e852daa19ca98b4032e4a5354dc9c4db07929a227e5354d08e89c7935ec75b17c872fa81bc89ab6012c485156de9e4fb27b2ba025eb3b4306e692773be27bbf728921a615c694b80f22465f58d09041bc7525ae2be9394104e4907539e079bd708b23a417c496ba0d20445d5ad29243be7727ac29ef3f4702e296733fe67fbb768d25a211c290bc0b26425b5cd49445b87121aa2fed3d4500e094713de47db9748f27a013c092be092440595ed69647ba7323a82de3334b0eee9a7f33ea73b77a8129ae1dce9cb0072a4e5750d89849b47d2da623e131490cec987d31e871b578832bac1fcc9eb205284c5552da9a4bb67f2fa421e7374f0aea9e7b37ee77b37e852daa19ca98b4032e4a5354dc9c4db07929a227e5354d08e89c7935ec75b17c872fa81bc89ab6012c485156de9e4fb27b2ba025eb3b4306e692773be27bbf728921a615c694b80f22465f58d09041bc7525ae2be9394104e4907539e079bd708b23a417c496ba0d20445d5ad29243be7727ac29ef3f4702e296733fe67fbb768d25a211c290bc0b26425b5cd49445b87121aa2fed3d4500e094713de47db9748f27a013c092be092440595ed69647ba7323a82de3334b0eee9a7f33ea73b77a8129ae1dce9cb0072a4e5750d89849b47d2da623e131490cec987d31e871b578832bac1fcc9eb205284c5552da9a4bb67f2fa421e7374f0aea9e7b37ee77b37e852daa19ca98b4032e4a5354dc9c4db07929a227e5354d08e89c7935ec75b17c872fa81bc89ab6012c485156de9e4fb27b2ba025eb3b4306e692773be27bbf728921a615c694b80f22465f58d09041bc7525ae2be9394104e4907539e079bd708b23a417c496ba0d20445d5ad29243be7727ac29ef3f4702e296733fe67fbb768d25a211c290bc0b26425b5cd49445b87121aa2fed3d4500e094713de47db9748f27a013c092be092440595ed69647ba7323a82de3334b0eee9a7f33ea73b77a8129ae1dce9cb0072a4e5750d89849b47d2da623e131490cec987d31e871b578832bac1fcc9eb205284c5552da9a4bb67f2fa421e7374f0aea9e7b37ee77b37e852daa19ca98b4032e4a5354dc9c4db07929a227e5354d08e89c7935ec75b17c872fa81bc89ab6012c485156de9e4fb27b2ba025eb3b4306e692773be27bbf728921a615c694b80f22465f58d09041bc7525ae2be9394104e4907539e079bd708b23a417c496ba0d20445d5ad29243be7727ac29ef3f4702e296733fe67fbb768d25a211c290bc0b26425b5cd49445b87121aa2fed3d4500e094713de47db9748f27a013c092be092440595ed69647ba7323a82de3334b0eee9a7f33ea73b77a8129ae1dce9cb0072a4e5750d89849b47d2da623e131490cec987d31e871b578832bac1fcc9eb205284c5552da9a4bb67f2fa421e7374f0aea9e7b37ee77b37e852daa19ca98b4032e4a5354dc9c4db07929a227e5354d08e89c7935ec75b17c872fa81bc89ab6012c485156de9e4fb27b2ba025eb3b4306e692773be27bbf728921a615c2cef5dc476d1ef1531bdc6e93a996db9c0278f99ef9d46fab619b34882776682",
        "hex": "6a20b3851848d72f428425d9654c4e078ba8cf9141f8f559865d522290bdf44f99de4db0043334b0eee9a7f33ea73b77a8129ae1dce9cb0072a4e5750d89849b47d2da623e131490cec987d31e871b578832bac1fcc9eb205284c5552da9a4bb67f2fa421e7374f0aea9e7b37ee77b37e852daa19ca98b4032e4a5354dc9c4db07929a227e5354d08e89c7935ec75b17c872fa81bc89ab6012c485156de9e4fb27b2ba025eb3b4306e692773be27bbf728921a615c694b80f22465f58d09041bc7525ae2be9394104e4907539e079bd708b23a417c496ba0d20445d5ad29243be7727ac29ef3f4702e296733fe67fbb768d25a211c290bc0b26425b5cd49445b87121aa2fed3d4500e094713de47db9748f27a013c092be092440595ed69647ba7323a82de3334b0eee9a7f33ea73b77a8129ae1dce9cb0072a4e5750d89849b47d2da623e131490cec987d31e871b578832bac1fcc9eb205284c5552da9a4bb67f2fa421e7374f0aea9e7b37ee77b37e852daa19ca98b4032e4a5354dc9c4db07929a227e5354d08e89c7935ec75b17c872fa81bc89ab6012c485156de9e4fb27b2ba025eb3b4306e692773be27bbf728921a615c694b80f22465f58d09041bc7525ae2be9394104e4907539e079bd708b23a417c496ba0d20445d5ad29243be7727ac29ef3f4702e296733fe67fbb768d25a211c290bc0b26425b5cd49445b87121aa2fed3d4500e094713de47db9748f27a013c092be092440595ed69647ba7323a82de3334b0eee9a7f33ea73b77a8129ae1dce9cb0072a4e5750d89849b47d2da623e131490cec987d31e871b578832bac1fcc9eb205284c5552da9a4bb67f2fa421e7374f0aea9e7b37ee77b37e852daa19ca98b4032e4a5354dc9c4db07929a227e5354d08e89c7935ec75b17c872fa81bc89ab6012c485156de9e4fb27b2ba025eb3b4306e692773be27bbf728921a615c694b80f22465f58d09041bc7525ae2be9394104e4907539e079bd708b23a417c496ba0d20445d5ad29243be7727ac29ef3f4702e296733fe67fbb768d25a211c290bc0b26425b5cd49445b87121aa2fed3d4500e094713de47db9748f27a013c092be092440595ed69647ba7323a82de3334b0eee9a7f33ea73b77a8129ae1dce9cb0072a4e5750d89849b47d2da623e131490cec987d31e871b578832bac1fcc9eb205284c5552da9a4bb67f2fa421e7374f0aea9e7b37ee77b37e852daa19ca98b4032e4a5354dc9c4db07929a227e5354d08e89c7935ec75b17c872fa81bc89ab6012c485156de9e4fb27b2ba025eb3b4306e692773be27bbf728921a615c694b80f22465f58d09041bc7525ae2be9394104e4907539e079bd708b23a417c496ba0d20445d5ad29243be7727ac29ef3f4702e296733fe67fbb768d25a211c290bc0b26425b5cd49445b87121aa2fed3d4500e094713de47db9748f27a013c092be092440595ed69647ba7323a82de3334b0eee9a7f33ea73b77a8129ae1dce9cb0072a4e5750d89849b47d2da623e131490cec987d31e871b578832bac1fcc9eb205284c5552da9a4bb67f2fa421e7374f0aea9e7b37ee77b37e852daa19ca98b4032e4a5354dc9c4db07929a227e5354d08e89c7935ec75b17c872fa81bc89ab6012c485156de9e4fb27b2ba025eb3b4306e692773be27bbf728921a615c2cef5dc476d1ef1531bdc6e93a996db9c0278f99ef9d46fab619b34882776682",
        "type": "nulldata"
      }
    },
    {
      "value": 499995.9324,
      "n": 1,
      "scriptPubKey": {
        "asm": "1 a8b3113d51edc50e7ed223a558b174755287b55155bb8f3ea70e36b925e9c16a",
        "hex": "5120a8b3113d51edc50e7ed223a558b174755287b55155bb8f3ea70e36b925e9c16a",
        "reqSigs": 1,
        "type": "witness_v1_scripthash",
        "addresses": [
          "3QJmnh"
        ]
      }
    }
  ],
  "blockhash": "15af9b025c636b87e0a10c18a1a8de0e5f3c2069ad563b293161176d75df89a4",
  "confirmations": 1,
  "time": 1764174659,
  "blocktime": 1764174659
}