{
  "hex": "010000000001015ae6508670d0d6f71ccf83f6e76f2f57606a2c36bcbc0a779da9a513864ac9290100000000feffffff02f020b051792d000022512025446c427bc72aa68b3c9d3e1149748480242a557fd560d5207a2a24084d702300e1f50500000000fdd5046a20884c3cf6e7d4fb81bf0c378a5720269d6c09fca2af9f4c34d7bb4f04e286da3a4db0040c4b713db33656616675abe9ab02f8a46794fb8e9c4f1119b09b9b91c2c504452c6b511d9316764146558bc98b22d88447b4dbaebc6f313990bbbbb1e2e524654c0b317df37616212635eba9eb42b8e427d4bbcedc0f5159f0dbdbd1828544056c2b115dd35636010615cb89cb6298c407f49beefc2f7179d0fbfbf1a2a564258ccbf1bd33b6d6e1e6f52b692b827824e7147b0e1ccf9199301b1b11424584c5acebd19d1396f6c1c6d50b490ba25804c7345b2e3cefb1b9103b3b316265a4e5cc8bb1fd73f696a1a6b56b296bc23864a7543b4e5c8fd1d9705b5b510205c485ecab91dd53d6b68186954b094be2184487741b6e7caff1f9507b7b712225e4a50c4b713db33656616675abe9ab02f8a46794fb8e9c4f1119b09b9b91c2c504452c6b511d9316764146558bc98b22d88447b4dbaebc6f313990bbbbb1e2e524654c0b317df37616212635eba9eb42b8e427d4bbcedc0f5159f0dbdbd1828544056c2b115dd35636010615cb89cb6298c407f49beefc2f7179d0fbfbf1a2a564258ccbf1bd33b6d6e1e6f52b692b827824e7147b0e1ccf9199301b1b11424584c5acebd19d1396f6c1c6d50b490ba25804c7345b2e3cefb1b9103b3b316265a4e5cc8bb1fd73f696a1a6b56b296bc23864a7543b4e5c8fd1d9705b5b510205c485ecab91dd53d6b68186954b094be2184487741b6e7caff1f9507b7b712225e4a50c4b713db33656616675abe9ab02f8a46794fb8e9c4f1119b09b9b91c2c504452c6b511d9316764146558bc98b22d88447b4dbaebc6f313990bbbbb1e2e524654c0b317df37616212635eba9eb42b8e427d4bbcedc0f5159f0dbdbd1828544056c2b115dd35636010615cb89cb6298c407f49beefc2f7179d0fbfbf1a2a564258ccbf1bd33b6d6e1e6f52b692b827824e7147b0e1ccf9199301b1b11424584c5acebd19d1396f6c1c6d50b490ba25804c7345b2e3cefb1b9103b3b316265a4e5cc8bb1fd73f696a1a6b56b296bc23864a7543b4e5c8fd1d9705b5b510205c485ecab91dd53d6b68186954b094be2184487741b6e7caff1f9507b7b712225e4a50c4b713db33656616675abe9ab02f8a46794fb8e9c4f1119b09b9b91c2c504452c6b511d9316764146558bc98b22d88447b4dbaebc6f313990bbbbb1e2e524654c0b317df37616212635eba9eb42b8e427d4bbcedc0f5159f0dbdbd1828544056c2b115dd35636010615cb89cb6298c407f49beefc2f7179d0fbfbf1a2a564258ccbf1bd33b6d6e1e6f52b692b827824e7147b0e1ccf9199301b1b11424584c5acebd19d1396f6c1c6d50b490ba25804c7345b2e3cefb1b9103b3b316265a4e5cc8bb1fd73f696a1a6b56b296bc23864a7543b4e5c8fd1d9705b5b510205c485ecab91dd53d6b68186954b094be2184487741b6e7caff1f9507b7b712225e4a50c4b713db33656616675abe9ab02f8a46794fb8e9c4f1119b09b9b91c2c504452c6b511d9316764146558bc98b22d88447b4dbaebc6f313990bbbbb1e2e524654c0b317df37616212635eba9eb42b8e427d4bbcedc0f5159f0dbdbd1828544056c2b115dd35636010615cb89cb6298c407f49beefc2f7179d0fbfbf1a2a564258ccbf1bd33b6d6e1e6f52b692b8278246b4c6a0df090dd0217b805ec961fc765a30f903f313aa5a6c619242a6259bc8802fd7509700892ce803b5436b95da65a7c8bf8b5480c329682633dfdc619b4e23aebe8c540083b3f88eece74ebbed0f21a5e327d1fe01510b0cdb231c447f84ddf910e68d7dbdbe9e7922af680011ebddce38782d411b3d9b1f2368b85d6524056356f279da6b82e55430645f9fc90e3fd8aef18cb15c662d780b8fa425905f8317e4672c583a827e0b4c1a4d84031fcbf99aecd68c1850040368fab06eb717d95d55f65b7534fd643793ccb97baf5740acb54b6cb7e5161c3d350aa739375ba05463933d1e661551e7ff17efb7a8bb1db0f9ec894425061df185898e55f695892c00d6da6a7d60b9151c66e0e0d8e2493ad65c3bb1b6e5a07cac5e448957e9829f95f70be33acd6b18feb70599885f2b5b0dc650d5eea2a636c6689cf80762e6e1754c212603e819ba1207f47b3dd4985f7b1c3e6a84c66201f7b727de4f8c3883ae72598bc2b5fde86ea88413ac646f75ee86a77f50f38a590e6bc1bc7051b8d79c1b5735277d280ab3ec4096109753bd61d92cf53ea7b523247f37e53e3231910c8790d357d96c0491b1d97506dc73006b6db2f274a18ac87ca8263824ee5b1ab703bd5ce613e6ab56a8a4e08d0864fa8f0afaf98b1878051ce186c4f2a427562d3ff55df92c035350d9bb49a1ebbefbfe8af1ce3f25fda3f3c76b8c2827868ec48fdf027d951d95393c60b74b5d5adadd002ac7c552a7a56581e14e6d034ebd3b9e51f989025b25036b40b1e4bab0df5c2f2e0cf765551fb96868ecf2a6d6f100a0297522c927e0213a7386a1927506dcf383152ec7bc71e108f2769f247aa7ce0dce4b6ea73ffe408538471e45d34af1a449d58a10b7e112c68d673d480d38503887f00fc8ec51e23068042c8d115443ec53dad0147bb1061497a0a5dbef1e4d1cf394fc0e46188ec7c2509f5cd69e602c2f4b59971c3d2425103fcda0b6e0ecc8abff263405bfea3d199b8725cdb7a333d28e7a882a08ddfa0ace1a8725ca816c06093e99a6b92b811892e4cf5e765b168beeae80e4dcb0b18fd551c2e0cacb03d6f48b67ffdbb77c126e9b7ae80ea143ccc2c1f585ef71a3350b647f5a647af692818c9754bf7aa3ae26063a7171704953bae933b50c78fa3172803840a376d7b22e29ba1e736c5f41273950d846644de9843072a4870f69f1c6f890d549c85edc334a39a24774a730b2e046b5e946c6a0d7e7e0a75a96f5b0afa9d3f95385d36a76824a8298d23b9f087293f09f635b35eba70992951aac10f6bf969cc31d89aff9d1d969f53692a42c96c73d2241b1d55b876f02d6ad7ed15ea1b95d37030622008ad6695669561154a2a7797487a80b21c0cef7fafaa93c1857d58e3e6dd148ff943bdfdccbcc4f6e6cdb7767e8efb9ba33c0e3d252b6dc2603e74f2950bb27aeca15faf2caf0c67a770ceb1ce62e52d37e36110e536392ec7a49fa29d5d2ca2cd34fc5771688fa59d803b2a277d1c23d79be214167242a5896efe5250e3bba0f5e3ff44d143653aa197998bb6a68fc15a8ca361c6e07f51748df413ef1e105c3e70c8551eea1415215fa2fa2af926b99a62f1ff3ec9e322093ffb8b22c3a8807a52ac858475b8472121c93f93cfc1b5585b3cd915328ccad2160410edb9e04395e7c974a1edfc5e2da1f03cc4c26b6e7306ac39be391604e86b22b2a6dbcc3b8fa02f90b86ec07d65bd264c666dd9892a0e90b658463b62bbb23069928e8b37cd369b204a572aa0282784c2231b7c1cfecb55b23377e387973dc9f874499f284f8e3cdb0415077e0f1d6e24628be2ec9fdd2f66cc898ea4466c713518ac221acdd8a6b58e6562a29bbbb10f039113602e3f8895111f2cf0eb2bab01275537b234f3e11c754738d10584135ccde8ec7f2e1ff2e1c97ad4d60338e525b817a6f31d9c033b7c5eb883c484dc72bd91b522c2e94d1969566987353190572efcf038fc3861411a7b95b1301b358c355d6d2d9880c9c03522e22bd9a04f94f27ef59887948ee5911852b1be944549b679710613145416c74bf88b1995ec94a766d273b57032da0f74c804b623ef223df781aa67c6948566ca385495ebb93dfbc7e6e0b79403d224395380d3b7ee865e7366433dca3c90fe50a40a2483f6b1b5ffbe318d262ee2bf26cf01864e867e1780a39669437c582cde97a507e338a416361262afd333b1087d2d75965fa6a25ab1cde1a6d119c2649abb1f46a88395375b0257e37178c6090a7b735a303eb39685e9d897da7e172b04eacfa729ce618f6f96587f430ba6946185953754f7cec16822fd33b28e1ef66d4f53051f5ef1396cfd49678a101d37ffd957ebe835b8870d5208d244df0a1d980ae8336c2aceeeb8cf9eab6cdf7b4290e360462ed252a4c2bde4a2b43c70e60f1fb94a3ac1a201ca57cc90f7382aff24447de3b3793404ad51654615f71b96bec5c05dbc1d93ad759460b5738516cbf500ed7e0588de58f38c87f209282e143f44e23b3988e3a0ae66bc6d0e8c9030ce065a86702c4d5f961250529d7473fe7cfb9278c207cad685dceae3211119b8e4515bff315d9d938332d325ad3c1581e28af70491c436a82fa7cdb9c3e54c8ce9dd0347c6dc26d8712ac2a3278cc5165ef64b54480d8bb534a4456921cd9736985b7f49b15685484d905532bd833352653e105b269af4871fc7937f028311397d108ed34e07f0018015819345c3ffb3d903a252439fd95311ca421bd2187a54d8e36b98f6f90c2fccb5b48b238acf7492ec528ca82bd72bcbc21e184035ce51b9cae1c07a848ea42f4213343c8fadc34c6babf408b39e913e7dffc9591e59e67b17fb2255ca82cc4b1ce0b80132e1dfb9e9fc8d433eb9e8b6d2c5ac33b226f652439b62c5af0cd31bc9a52393d3e373ce9364ddc06393475c8cd3d343feef18b576ed3e321dd7815bbe1b5b9680b6d87bfc4acc9da7fb6a59387a6358bf59199d2303d2a83fb934bec4d56dd4cace0506b61936965e2f4b963561b2e32235cc7642ddd1b023f5ac25c50b0246d22f5afa205d5b94af2edfe8fb89df50f35c77d16e69e105a25718cbf3d7dea3bebc98918e19183f7d57bb4487f71c20410a910837ac4a9a50e921d5599751536af46e8cf7e2164996104934d46ec0b4da747d8fee3a96c31d08422dfe8c619414677ef66a960b48cdbbdb71be2791394ab5eaa43930af22c94be2f705d0477f9f8bca5f1f2f5d6ec559cdc28f7aa3950c524ffc59afd69a7f5b4c9606bb5930c488efef009b56d4bcaf4a01cd311909c27b4a02938979b099ff36f5111c57a4a31df2a4a3d2fd896091259336090c42575c6d7b99a5a7c3cbdce9eb242933343a424d4e659cbabce3ee0708192068747f849da6b0f40b0c111921242f505b7f8193adafb2e1e6f30000000000000000000000000000000000000000000f1d293b01fd210500c974ceb769e52ea757d6918c0379c1430927e891b2c72c6368ea66d0a156e2b748af2f755d3c425d8854bd99948eaa88224198b59f9087e232197dc06f0334436db2fc0850f0ca68d57853a2483b5938842f0b4c94d9850356f095cdfa8e737e2d69099aa760b1cb6f0b6dceaeb31b1e2b6f0ea31554fb70e6dfd73549448df0818141e454198345f337c51df1fddd9539840c0ebc47afcc66ccdfaba24c2a2baab3e1d68fec2374dc0bedae58012c09cc1cda946c3bf56d65b95a89ef3c456935c9cf4efcbeb120ee33b03deec7a45281c286f1e4f2e6adb75be300d7d5179d501a570a33a8a02adde6bab06cc659f4c2b042b6062a2ae98f39550e6b6b5ebe44c5e3cdf6847e3e1993876a0d0ba7ca77899be02dd572ac7ccb60e06e59f616f53d6743ac5a98c97f64e7e66e0ae71ec5fda6a0381797b6e2cb07698c3cf152fac49fcc0fce19f4906c9497f6062a37bb0d59c9826f1bc3442896d9ce5337b5d415721da29911447107bee5582a4c6951cff7013a5b5609ec7cfbd286e26e10e085e63257b8adb26aec5c3f7186d7a7479c5cf8e668ecd4eeaa0815d1c942801beca6598c8473b5b6d483b23d9f922be31e0b4d9b330007552b67776fb01dec747826357fa94a4981a0a726b6f6017647146ac31b74ddd3722fe1187d79e371daab3d9bbee8cab65974076d40b061acc605291a4149018bc7ae1d6b696e0c77ee8ca77bb37059a1414b6503ab778356eaf54b06a35a288af4fc2d058264d94dcb2f88dec7f592c8abc9d899fe6e9e36e943353692831d872d1112babb8eb858373d3ce5b1c7fc5e32d1d75b2d1895559b5ff6ce6d53aca93ffff23495f531613cdef90c6c27f4a13ae87081a6d41970340e291197b7136ee240d22c20dddae3fd08a292285eb044ac8eee04ed4304037ef6b372e68da379271c41cee39044446f0e48d9de56681dc36549ebb1cd88d04c45f2c4270630d7f7232c5c778ad25f707761ecfc9b3d5165e8d377033a7d9320357f9112c9ad5eb253465ac4cd23412626ee2f5d11fc1703d8d41b3c18051ce0cbb6e50347b7e9e93eb263edc3e683afac00908e0d49d8cdbe3e70e4c21c61e966f1d1da5dd4032accdcea18a075b3a75bb3ea81524d2c34d9224cd5cfa85f3317295c87c17cde6341885880ed9b279ff071a7a74ef014d181af913497682dd531e20960436a4c5f54e7a951eb5e2ea7e63cee5a236cd9cd1f16df385b043b8a74347d74eeb197c527360e7f9d9eff2c38447b53dc70c8073c8b9962c62b7c701c8477dd226d98ed82640368548a16b068bcaef3279c5dbb9dc58eaa9cc68908872ee6d92afca6b8841d2dabfcb6d6ca6f034701d394361342190891624cae7b54a794af9e73dfa54884e85c6f60e246f3d2109acff4971a16ad74594f79abbcba874c8971ca1d18d5a3197b761473870937ddea7d779961b90bf02ca2b7a39b1b5f44a4d92553fc6767756b4503b8a147499744438d285c168dbfc6ce2d1ee23cd932724725b6d58b8eb8b9b3c753440534332bd2a233abee7628d7d184e4a18e758d3eb4c129894dc4daac5107be9b202e9d5e624e7874247241aff665b67a20b494ef32d709a4e0a865e9a04daa66ee33c8f61d2878321863fba681b4b9e7fa62a99d4e3d1aa64a9b43b04ce852bed60527f4b3913eb08eaa3c3d084d1b561f85deb92701ae328ca27b3652b93071d91e2482c00d1c7f39520875fee76d797f8dfb33a619901cef309ed295747fbc20f61a354c075f89092ec0cf042c1c6da83087bbce34e89e45721130d7b2b3b1555e50fd9185ec287e61f8e493a76ca39b1ea4a02ba6a622427a8a879e70306b000000",
  "txid": "948cb6e5b4ac0b95665985370b477d908b0d3b77b65b8055c325a23b9950e101",
  "hash": "0e1e38b1b2f5668bafbb3dfdcb1fdfc1d551631a5f166a5a27ce1d516a4f92ce",
  "size": 5085,
  "vsize": 2278,
  "version": 1,
  "locktime": 107,
  "vin": [
    {
      "txid": "29c94a8613a5a99d770abcbc362c6a60572f6fe7f683cf1cf7d6d0708650e65a",
      "vout": 1,
      "scriptSig": {
        "asm": "",
        "hex": ""
      },
      "txinwitness": [
        "700892ce803b5436b95da65a7c8bf8b5480c329682633dfdc619b4e23aebe8c540083b3f88eece74ebbed0f21a5e327d1fe01510b0cdb231c447f84ddf910e68d7dbdbe9e7922af680011ebddce38782d411b3d9b1f2368b85d6524056356f279da6b82e55430645f9fc90e3fd8aef18cb15c662d780b8fa425905f8317e4672c583a827e0b4c1a4d84031fcbf99aecd68c1850040368fab06eb717d95d55f65b7534fd643793ccb97baf5740acb54b6cb7e5161c3d350aa739375ba05463933d1e661551e7ff17efb7a8bb1db0f9ec894425061df185898e55f695892c00d6da6a7d60b9151c66e0e0d8e2493ad65c3bb1b6e5a07cac5e448957e9829f95f70be33acd6b18feb70599885f2b5b0dc650d5eea2a636c6689cf80762e6e1754c212603e819ba1207f47b3dd4985f7b1c3e6a84c66201f7b727de4f8c3883ae72598bc2b5fde86ea88413ac646f75ee86a77f50f38a590e6bc1bc7051b8d79c1b5735277d280ab3ec4096109753bd61d92cf53ea7b523247f37e53e3231910c8790d357d96c0491b1d97506dc73006b6db2f274a18ac87ca8263824ee5b1ab703bd5ce613e6ab56a8a4e08d0864fa8f0afaf98b1878051ce186c4f2a427562d3ff55df92c035350d9bb49a1ebbefbfe8af1ce3f25fda3f3c76b8c2827868ec48fdf027d951d95393c60b74b5d5adadd002ac7c552a7a56581e14e6d034ebd3b9e51f989025b25036b40b1e4bab0df5c2f2e0cf765551fb96868ecf2a6d6f100a0297522c927e0213a7386a1927506dcf383152ec7bc71e108f2769f247aa7ce0dce4b6ea73ffe408538471e45d34af1a449d58a10b7e112c68d673d480d38503887f00fc8ec51e23068042c8d115443ec53dad0147bb1061497a0a5dbef1e4d1cf394fc0e46188ec7c2509f5cd69e602c2f4b59971c3d2425103fcda0b6e0ecc8abff263405bfea3d199b8725cdb7a333d28e7a882a08ddfa0ace1a8725ca816c06093e99a6b92b811892e4cf5e765b168beeae80e4dcb0b18fd551c2e0cacb03d6f48b67ffdbb77c126e9b7ae80ea143ccc2c1f585ef71a3350b647f5a647af692818c9754bf7aa3ae26063a7171704953bae933b50c78fa3172803840a376d7b22e29ba1e736c5f41273950d846644de9843072a4870f69f1c6f890d549c85edc334a39a24774a730b2e046b5e946c6a0d7e7e0a75a96f5b0afa9d3f95385d36a76824a8298d23b9f087293f09f635b35eba70992951aac10f6bf969cc31d89aff9d1d969f53692a42c96c73d2241b1d55b876f02d6ad7ed15ea1b95d37030622008ad6695669561154a2a7797487a80b21c0cef7fafaa93c1857d58e3e6dd148ff943bdfdccbcc4f6e6cdb7767e8efb9ba33c0e3d252b6dc2603e74f2950bb27aeca15faf2caf0c67a770ceb1ce62e52d37e36110e536392ec7a49fa29d5d2ca2cd34fc5771688fa59d803b2a277d1c23d79be214167242a5896efe5250e3bba0f5e3ff44d143653aa197998bb6a68fc15a8ca361c6e07f51748df413ef1e105c3e70c8551eea1415215fa2fa2af926b99a62f1ff3ec9e322093ffb8b22c3a8807a52ac858475b8472121c93f93cfc1b5585b3cd915328ccad2160410edb9e04395e7c974a1edfc5e2da1f03cc4c26b6e7306ac39be391604e86b22b2a6dbcc3b8fa02f90b86ec07d65bd264c666dd9892a0e90b658463b62bbb23069928e8b37cd369b204a572aa0282784c2231b7c1cfecb55b23377e387973dc9f874499f284f8e3cdb0415077e0f1d6e24628be2ec9fdd2f66cc898ea4466c713518ac221acdd8a6b58e6562a29bbbb10f039113602e3f8895111f2cf0eb2bab01275537b234f3e11c754738d10584135ccde8ec7f2e1ff2e1c97ad4d60338e525b817a6f31d9c033b7c5eb883c484dc72bd91b522c2e94d1969566987353190572efcf038fc3861411a7b95b1301b358c355d6d2d9880c9c03522e22bd9a04f94f27ef59887948ee5911852b1be944549b679710613145416c74bf88b1995ec94a766d273b57032da0f74c804b623ef223df781aa67c6948566ca385495ebb93dfbc7e6e0b79403d224395380d3b7ee865e7366433dca3c90fe50a40a2483f6b1b5ffbe318d262ee2bf26cf01864e867e1780a39669437c582cde97a507e338a416361262afd333b1087d2d75965fa6a25ab1cde1a6d119c2649abb1f46a88395375b0257e37178c6090a7b735a303eb39685e9d897da7e172b04eacfa729ce618f6f96587f430ba6946185953754f7cec16822fd33b28e1ef66d4f53051f5ef1396cfd49678a101d37ffd957ebe835b8870d5208d244df0a1d980ae8336c2aceeeb8cf9eab6cdf7b4290e360462ed252a4c2bde4a2b43c70e60f1fb94a3ac1a201ca57cc90f7382aff24447de3b3793404ad51654615f71b96bec5c05dbc1d93ad759460b5738516cbf500ed7e0588de58f38c87f209282e143f44e23b3988e3a0ae66bc6d0e8c9030ce065a86702c4d5f961250529d7473fe7cfb9278c207cad685dceae3211119b8e4515bff315d9d938332d325ad3c1581e28af70491c436a82fa7cdb9c3e54c8ce9dd0347c6dc26d8712ac2a3278cc5165ef64b54480d8bb534a4456921cd9736985b7f49b15685484d905532bd833352653e105b269af4871fc7937f028311397d108ed34e07f0018015819345c3ffb3d903a252439fd95311ca421bd2187a54d8e36b98f6f90c2fccb5b48b238acf7492ec528ca82bd72bcbc21e184035ce51b9cae1c07a848ea42f4213343c8fadc34c6babf408b39e913e7dffc9591e59e67b17fb2255ca82cc4b1ce0b80132e1dfb9e9fc8d433eb9e8b6d2c5ac33b226f652439b62c5af0cd31bc9a52393d3e373ce9364ddc06393475c8cd3d343feef18b576ed3e321dd7815bbe1b5b9680b6d87bfc4acc9da7fb6a59387a6358bf59199d2303d2a83fb934bec4d56dd4cace0506b61936965e2f4b963561b2e32235cc7642ddd1b023f5ac25c50b0246d22f5afa205d5b94af2edfe8fb89df50f35c77d16e69e105a25718cbf3d7dea3bebc98918e19183f7d57bb4487f71c20410a910837ac4a9a50e921d5599751536af46e8cf7e2164996104934d46ec0b4da747d8fee3a96c31d08422dfe8c619414677ef66a960b48cdbbdb71be2791394ab5eaa43930af22c94be2f705d0477f9f8bca5f1f2f5d6ec559cdc28f7aa3950c524ffc59afd69a7f5b4c9606bb5930c488efef009b56d4bcaf4a01cd311909c27b4a02938979b099ff36f5111c57a4a31df2a4a3d2fd896091259336090c42575c6d7b99a5a7c3cbdce9eb242933343a424d4e659cbabce3ee0708192068747f849da6b0f40b0c111921242f505b7f8193adafb2e1e6f30000000000000000000000000000000000000000000f1d293b01",
        "00c974ceb769e52ea757d6918c0379c1430927e891b2c72c6368ea66d0a156e2b748af2f755d3c425d8854bd99948eaa88224198b59f9087e232197dc06f0334436db2fc0850f0ca68d57853a2483b5938842f0b4c94d9850356f095cdfa8e737e2d69099aa760b1cb6f0b6dceaeb31b1e2b6f0ea31554fb70e6dfd73549448df0818141e454198345f337c51df1fddd9539840c0ebc47afcc66ccdfaba24c2a2baab3e1d68fec2374dc0bedae58012c09cc1cda946c3bf56d65b95a89ef3c456935c9cf4efcbeb120ee33b03deec7a45281c286f1e4f2e6adb75be300d7d5179d501a570a33a8a02adde6bab06cc659f4c2b042b6062a2ae98f39550e6b6b5ebe44c5e3cdf6847e3e1993876a0d0ba7ca77899be02dd572ac7ccb60e06e59f616f53d6743ac5a98c97f64e7e66e0ae71ec5fda6a0381797b6e2cb07698c3cf152fac49fcc0fce19f4906c9497f6062a37bb0d59c9826f1bc3442896d9ce5337b5d415721da29911447107bee5582a4c6951cff7013a5b5609ec7cfbd286e26e10e085e63257b8adb26aec5c3f7186d7a7479c5cf8e668ecd4eeaa0815d1c942801beca6598c8473b5b6d483b23d9f922be31e0b4d9b330007552b67776fb01dec747826357fa94a4981a0a726b6f6017647146ac31b74ddd3722fe1187d79e371daab3d9bbee8cab65974076d40b061acc605291a4149018bc7ae1d6b696e0c77ee8ca77bb37059a1414b6503ab778356eaf54b06a35a288af4fc2d058264d94dcb2f88dec7f592c8abc9d899fe6e9e36e943353692831d872d1112babb8eb858373d3ce5b1c7fc5e32d1d75b2d1895559b5ff6ce6d53aca93ffff23495f531613cdef90c6c27f4a13ae87081a6d41970340e291197b7136ee240d22c20dddae3fd08a292285eb044ac8eee04ed4304037ef6b372e68da379271c41cee39044446f0e48d9de56681dc36549ebb1cd88d04c45f2c4270630d7f7232c5c778ad25f707761ecfc9b3d5165e8d377033a7d9320357f9112c9ad5eb253465ac4cd23412626ee2f5d11fc1703d8d41b3c18051ce0cbb6e50347b7e9e93eb263edc3e683afac00908e0d49d8cdbe3e70e4c21c61e966f1d1da5dd4032accdcea18a075b3a75bb3ea81524d2c34d9224cd5cfa85f3317295c87c17cde6341885880ed9b279ff071a7a74ef014d181af913497682dd531e20960436a4c5f54e7a951eb5e2ea7e63cee5a236cd9cd1f16df385b043b8a74347d74eeb197c527360e7f9d9eff2c38447b53dc70c8073c8b9962c62b7c701c8477dd226d98ed82640368548a16b068bcaef3279c5dbb9dc58eaa9cc68908872ee6d92afca6b8841d2dabfcb6d6ca6f034701d394361342190891624cae7b54a794af9e73dfa54884e85c6f60e246f3d2109acff4971a16ad74594f79abbcba874c8971ca1d18d5a3197b761473870937ddea7d779961b90bf02ca2b7a39b1b5f44a4d92553fc6767756b4503b8a147499744438d285c168dbfc6ce2d1ee23cd932724725b6d58b8eb8b9b3c753440534332bd2a233abee7628d7d184e4a18e758d3eb4c129894dc4daac5107be9b202e9d5e624e7874247241aff665b67a20b494ef32d709a4e0a865e9a04daa66ee33c8f61d2878321863fba681b4b9e7fa62a99d4e3d1aa64a9b43b04ce852bed60527f4b3913eb08eaa3c3d084d1b561f85deb92701ae328ca27b3652b93071d91e2482c00d1c7f39520875fee76d797f8dfb33a619901cef309ed295747fbc20f61a354c075f89092ec0cf042c1c6da83087bbce34e89e45721130d7b2b3b1555e50fd9185ec287e61f8e493a76ca39b1ea4a02ba6a622427a8a879e7030"
      ],
      "sequence": 4294967294
    }
  ],
  "vout": [
    {
      "value": 499990.8479,
      "n": 0,
      "scriptPubKey": {
        "asm": "1 25446c427bc72aa68b3c9d3e1149748480242a557fd560d5207a2a24084d7023",
        "hex": "512025446c427bc72aa68b3c9d3e1149748480242a557fd560d5207a2a24084d7023",
        "reqSigs": 1,
        "type": "witness_v1_scripthash",
        "addresses": [
          "3QJmnh"
        ]
      }
    },
    {
      "value": 1.0,
      "n": 1,
      "scriptPubKey": {
        "asm": "OP_RETURN 884c3cf6e7d4fb81bf0c378a5720269d6c09fca2af9f4c34d7bb4f04e286da3a 0c4b713db33656616675abe9ab02f8a46794fb8e9c4f1119b09b9b91c2c504452c6b511d9316764146558bc98b22d88447b4dbaebc6f313990bbbbb1e2e524654c0b317df37616212635eba9eb42b8e427d4bbcedc0f5159f0dbdbd1828544056c2b115dd35636010615cb89cb6298c407f49beefc2f7179d0fbfbf1a2a564258ccbf1bd33b6d6e1e6f52b692b827824e7147b0e1ccf9199301b1b11424584c5acebd19d1396f6c1c6d50b490ba25804c7345b2e3cefb1b9103b3b316265a4e5cc8bb1fd73f696a1a6b56b296bc23864a7543b4e5c8fd1d9705b5b510205c485ecab91dd53d6b68186954b094be2184487741b6e7caff1f9507b7b712225e4a50c4b713db33656616675abe9ab02f8a46794fb8e9c4f1119b09b9b91c2c504452c6b511d9316764146558bc98b22d88447b4dbaebc6f313990bbbbb1e2e524654c0b317df37616212635eba9eb42b8e427d4bbcedc0f5159f0dbdbd1828544056c2b115dd35636010615cb89cb6298c407f49beefc2f7179d0fbfbf1a2a564258ccbf1bd33b6d6e1e6f52b692b827824e7147b0e1ccf9199301b1b11424584c5acebd19d1396f6c1c6d50b490ba25804c7345b2e3cefb1b9103b3b316265a4e5cc8bb1fd73f696a1a6b56b296bc23864a7543b4e5c8fd1d9705b5b510205c485ecab91dd53d6b68186954b094be2184487741b6e7caff1f9507b7b712225e4a50c4b713db33656616675abe9ab02f8a46794fb8e9c4f1119b09b9b91c2c504452c6b511d9316764146558bc98b22d88447b4dbaebc6f313990bbbbb1e2e524654c0b317df37616212635eba9eb42b8e427d4bbcedc0f5159f0dbdbd1828544056c2b115dd35636010615cb89cb6298c407f49beefc2f7179d0fbfbf1a2a564258ccbf1bd33b6d6e1e6f52b692b827824e7147b0e1ccf9199301b1b11424584c5acebd19d1396f6c1c6d50b490ba25804c7345b2e3cefb1b9103b3b316265a4e5cc8bb1fd73f696a1a6b56b296bc23864a7543b4e5c8fd1d9705b5b510205c485ecab91dd53d6b68186954b094be2184487741b6e7caff1f9507b7b712225e4a50c4b713db33656616675abe9ab02f8a46794fb8e9c4f1119b09b9b91c2c504452c6b511d9316764146558bc98b22d88447b4dbaebc6f313990bbbbb1e2e524654c0b317df37616212635eba9eb42b8e427d4bbcedc0f5159f0dbdbd1828544056c2b115dd35636010615cb89cb6298c407f49beefc2f7179d0fbfbf1a2a564258ccbf1bd33b6d6e1e6f52b692b827824e7147b0e1ccf9199301b1b11424584c5acebd19d1396f6c1c6d50b490ba25804c7345b2e3cefb1b9103b3b316265a4e5cc8bb1fd73f696a1a6b56b296bc23864a7543b4e5c8fd1d9705b5b510205c485ecab91dd53d6b68186954b094be2184487741b6e7caff1f9507b7b712225e4a50c4b713db33656616675abe9ab02f8a46794fb8e9c4f1119b09b9b91c2c504452c6b511d9316764146558bc98b22d88447b4dbaebc6f313990bbbbb1e2e524654c0b317df37616212635eba9eb42b8e427d4bbcedc0f5159f0dbdbd1828544056c2b115dd35636010615cb89cb6298c407f49beefc2f7179d0fbfbf1a2a564258ccbf1bd33b6d6e1e6f52b692b8278246b4c6a0df090dd0217b805ec961fc765a30f903f313aa5a6c619242a6259bc88",
        "hex": "6a20884c3cf6e7d4fb81bf0c378a5720269d6c09fca2af9f4c34d7bb4f04e286da3a4db0040c4b713db33656616675abe9ab02f8a46794fb8e9c4f1119b09b9b91c2c504452c6b511d9316764146558bc98b22d88447b4dbaebc6f313990bbbbb1e2e524654c0b317df37616212635eba9eb42b8e427d4bbcedc0f5159f0dbdbd1828544056c2b115dd35636010615cb89cb6298c407f49beefc2f7179d0fbfbf1a2a564258ccbf1bd33b6d6e1e6f52b692b827824e7147b0e1ccf9199301b1b11424584c5acebd19d1396f6c1c6d50b490ba25804c7345b2e3cefb1b9103b3b316265a4e5cc8bb1fd73f696a1a6b56b296bc23864a7543b4e5c8fd1d9705b5b510205c485ecab91dd53d6b68186954b094be2184487741b6e7caff1f9507b7b712225e4a50c4b713db33656616675abe9ab02f8a46794fb8e9c4f1119b09b9b91c2c504452c6b511d9316764146558bc98b22d88447b4dbaebc6f313990bbbbb1e2e524654c0b317df37616212635eba9eb42b8e427d4bbcedc0f5159f0dbdbd1828544056c2b115dd35636010615cb89cb6298c407f49beefc2f7179d0fbfbf1a2a564258ccbf1bd33b6d6e1e6f52b692b827824e7147b0e1ccf9199301b1b11424584c5acebd19d1396f6c1c6d50b490ba25804c7345b2e3cefb1b9103b3b316265a4e5cc8bb1fd73f696a1a6b56b296bc23864a7543b4e5c8fd1d9705b5b510205c485ecab91dd53d6b68186954b094be2184487741b6e7caff1f9507b7b712225e4a50c4b713db33656616675abe9ab02f8a46794fb8e9c4f1119b09b9b91c2c504452c6b511d9316764146558bc98b22d88447b4dbaebc6f313990bbbbb1e2e524654c0b317df37616212635eba9eb42b8e427d4bbcedc0f5159f0dbdbd1828544056c2b115dd35636010615cb89cb6298c407f49beefc2f7179d0fbfbf1a2a564258ccbf1bd33b6d6e1e6f52b692b827824e7147b0e1ccf9199301b1b11424584c5acebd19d1396f6c1c6d50b490ba25804c7345b2e3cefb1b9103b3b316265a4e5cc8bb1fd73f696a1a6b56b296bc23864a7543b4e5c8fd1d9705b5b510205c485ecab91dd53d6b68186954b094be2184487741b6e7caff1f9507b7b712225e4a50c4b713db33656616675abe9ab02f8a46794fb8e9c4f1119b09b9b91c2c504452c6b511d9316764146558bc98b22d88447b4dbaebc6f313990bbbbb1e2e524654c0b317df37616212635eba9eb42b8e427d4bbcedc0f5159f0dbdbd1828544056c2b115dd35636010615cb89cb6298c407f49beefc2f7179d0fbfbf1a2a564258ccbf1bd33b6d6e1e6f52b692b827824e7147b0e1ccf9199301b1b11424584c5acebd19d1396f6c1c6d50b490ba25804c7345b2e3cefb1b9103b3b316265a4e5cc8bb1fd73f696a1a6b56b296bc23864a7543b4e5c8fd1d9705b5b510205c485ecab91dd53d6b68186954b094be2184487741b6e7caff1f9507b7b712225e4a50c4b713db33656616675abe9ab02f8a46794fb8e9c4f1119b09b9b91c2c504452c6b511d9316764146558bc98b22d88447b4dbaebc6f313990bbbbb1e2e524654c0b317df37616212635eba9eb42b8e427d4bbcedc0f5159f0dbdbd1828544056c2b115dd35636010615cb89cb6298c407f49beefc2f7179d0fbfbf1a2a564258ccbf1bd33b6d6e1e6f52b692b8278246b4c6a0df090dd0217b805ec961fc765a30f903f313aa5a6c619242a6259bc88",
        "type": "nulldata"
      }
    }
  ],
  "blockhash": "70f7ec20af3843e0d144de9ce3637c8baa62723aad58289fd59c71fdb9075fdf",
  "confirmations": 1,
  "time": 1764177228,
  "blocktime": 1764177228
}