{
  "hex": "0100000000010131e3f885de04218559e7e6d5cecd651a2a7fedd8162988110a016a46a161f2be0100000000feffffff0280cbbf57792d000022512037c184cc87be6c1b1ea2156067711e187879eed6a4432568aa92473c0352818100e1f50500000000fdd5046a209524bea8662320945f376ea2dd969209a8d42b1b6eb6f72dee5a94c400c7d80e4db00436993ea3d63cdc507ffd43932a98e5a7c15ecfee871c66a1b16b5f270bb6afe116b91e83f61cfc705fdd63b30ab8c587e17eefcea73c4681914b7f072b968fc176d97ee3967c9c103fbd03d36ad8a5e7811e8faec75c26e1f12b1f674bf6efa156f95ec3b65cbc301f9d23f34af885c7a13eaf8ee77c06c1d10b3f476bd6cf81b619be2356bc5cd0ff7dc313aa18652741de4f6e079ce62131ebdfa78b362f6196399e03769c7cf0df5de3338a38450761fe6f4e27bcc60111cbff87ab160f41f659fe6316fc1c90bf3d8353ea582567019e0f2e47dca66171ab9fe7cb766f21d679de4336dc3cb09f1da373ca78054721be2f0e67fc8641518bbfc7eb564f0136993ea3d63cdc507ffd43932a98e5a7c15ecfee871c66a1b16b5f270bb6afe116b91e83f61cfc705fdd63b30ab8c587e17eefcea73c4681914b7f072b968fc176d97ee3967c9c103fbd03d36ad8a5e7811e8faec75c26e1f12b1f674bf6efa156f95ec3b65cbc301f9d23f34af885c7a13eaf8ee77c06c1d10b3f476bd6cf81b619be2356bc5cd0ff7dc313aa18652741de4f6e079ce62131ebdfa78b362f6196399e03769c7cf0df5de3338a38450761fe6f4e27bcc60111cbff87ab160f41f659fe6316fc1c90bf3d8353ea582567019e0f2e47dca66171ab9fe7cb766f21d679de4336dc3cb09f1da373ca78054721be2f0e67fc8641518bbfc7eb564f0136993ea3d63cdc507ffd43932a98e5a7c15ecfee871c66a1b16b5f270bb6afe116b91e83f61cfc705fdd63b30ab8c587e17eefcea73c4681914b7f072b968fc176d97ee3967c9c103fbd03d36ad8a5e7811e8faec75c26e1f12b1f674bf6efa156f95ec3b65cbc301f9d23f34af885c7a13eaf8ee77c06c1d10b3f476bd6cf81b619be2356bc5cd0ff7dc313aa18652741de4f6e079ce62131ebdfa78b362f6196399e03769c7cf0df5de3338a38450761fe6f4e27bcc60111cbff87ab160f41f659fe6316fc1c90bf3d8353ea582567019e0f2e47dca66171ab9fe7cb766f21d679de4336dc3cb09f1da373ca78054721be2f0e67fc8641518bbfc7eb564f0136993ea3d63cdc507ffd43932a98e5a7c15ecfee871c66a1b16b5f270bb6afe116b91e83f61cfc705fdd63b30ab8c587e17eefcea73c4681914b7f072b968fc176d97ee3967c9c103fbd03d36ad8a5e7811e8faec75c26e1f12b1f674bf6efa156f95ec3b65cbc301f9d23f34af885c7a13eaf8ee77c06c1d10b3f476bd6cf81b619be2356bc5cd0ff7dc313aa18652741de4f6e079ce62131ebdfa78b362f6196399e03769c7cf0df5de3338a38450761fe6f4e27bcc60111cbff87ab160f41f659fe6316fc1c90bf3d8353ea582567019e0f2e47dca66171ab9fe7cb766f21d679de4336dc3cb09f1da373ca78054721be2f0e67fc8641518bbfc7eb564f0136993ea3d63cdc507ffd43932a98e5a7c15ecfee871c66a1b16b5f270bb6afe116b91e83f61cfc705fdd63b30ab8c587e17eefcea73c4681914b7f072b968fc176d97ee3967c9c103fbd03d36ad8a5e7811e8faec75c26e1f12b1f674bf6efa156f95ec3b65cbc301f9d23f34af885c7a13eaf8ee77c06c1d10b3f476bd6cf81b619be2356bc5cd0ff7dc313aa1865271b745f2a2ea89e7d19b5a04654c99c2309ddfe8d4b0f03407429e253ffa61d4d02fd7509fe5978646c90168caccaaf2beab1da9ae4b590858c720a6d3cd54870328a5cce2ff749806b5777c885e83357b3e908ed1ea17ad33a3609c9d3b38d71fc8a0ab2f5e3f5840bfeadfc4a87e763a562f0e1519ebd24bff57388c1afa17c449f3cb74c6e91ea6dada9bcc5cf7e29000c0bfa818f62620372a2b0bfdb375d3a1289a2ba7c916c327f44a8179e6057a97cad7db412ddc7d6b91d0cb260a2482d8c2aea2046e2203e24c7387fef753c9133a56934ed9dbf0146ab3c054ea01452bc0fe21668f28fce298ed376e0e4baa021303bf4593f04b86e5672490738b26964a27cb65237932e54f1e5e7f5b07d9f31f439f4001c9a21921f56486660342c03021f66e19f02dcb300987617c7729e86fe1b9963c2807ac06df3f8bd6b7838e33c899bc5a65b2e5a782b1a5be7d0926ddd2c50f7d553479c3eb752b9c6b15375891d8a271d8f68a100e118fc9bb90e12c73c1c946c9c0a1dc6b1b35b9b0dcb7c38645f3dff5e8191d07ec3e557177b43b3e8ad49eb86ba32fe15b3617d57b8d06c2b3e9b8baff729b717147686c403d740d612f652156867e9f8714ef680ddd160bb21918bb028dbea5761b18af9b180b90e14db8422bc67d54dfc6141befcb417c14460a365dfb3361788efa49e6e5d9e0bd7c9bf612bbe482aff887a6eb916c7e49e954911f562af67b92eec078665969bcfaab1d7774c6e853e531ff9da9cdbeff54c980aa2684b2fed789352114eca249008c2a796446786cddafd50e8cacda9a04134b306f7d861dd4a508b3ea33368734e075c35055116d3653dee506cf2e4e7a17124e9f299fe6ed256498c86e64ccc196505a5696ab14ca91171b958cf1dec200f6e92c02414f3b56eae654cb2ad5ce628d7d10a4850db7d949cb7f95c171d39610a191bbf912fa48edde76eebca5ed7b8b8c76998c512e7f4e6bddaf1df9766346e82877fb6b0db57f74be90fc2b76b49936aa170aa9590454a6fe7b70fd58f5acb7994774f3c248e6f9aa3a2dfb96b90ab1fe5122b09e7b62c767e92b0ba13f49c1fd1b588233d3a48585bdae2b76fddecc42e71d645101306abcd8824a3cb036c21bee3c6aa3fc05620377c12d2040c6807191aa97701f5891091aa5630a81a46d6d9a45651afb420a5797a1528601872078bbfda5b20442cd3e3a2d54a755e8433a4a0b3297460b61a61acec0175864ae3ed4585ca99eeaafc8dac01db06c8b49abd2acc1fd3c0b55f736e711e928a6bb8974fc70966641508906be036c6b385ca01e17e29cab9c1c298d70994607ffc50f03e57f434f16cbfe9ac0f405e02cf51ad02b59436a489ce052862831c45b72bb1e5ae4e0830b16673f04f1265d7829a7c86d735fd0570ce09d82866aea3c9fadf0f5317b95d898cc3c39f03d9414e6a37bc02ac00098a65be0d67f46bf82bcced18b1dafdde00c46f8707d76b019aba06259986a65a7fdafdd5ec075087356407e97efd25756635316d7b9c15f2e50bf71991bf05de805b0fb7b382afbb6d4080d9cdf31ed130576afab36eda786d604d47a54101b134b6047fe44a299c335a02a3d8018a01e44f792ed4ee52a7b4f67ddf29b73de807bed10814d15b7b9a47fb863b70befd217c34cc0fd96df00a6c686f8cc9c80f4088f66badefc04832cfa54c9da2d1a0f2a382dcc7c10b75c3554caf094d3c7ad74ed4a4e47bf7a6866e29b38852e9ef9894030e811dd5d5cd1f5c0859292352db31be1f07e300bcf22531f699f32f9a29fcb271ac0df58561071a9d518d467880b00b1f99472b336db8ecb888cf25593ed5ff8747fb0b234e7c27d919800937439b52f5cb3c2323d5aeded4967983d0f05339d58dc1ce6b2583b0a344e8059d0c2c1e06727095daf7a4c12b27707594adbed936884237438255424c8f162c1fd2aae2337b94031248c3368e8a093d589dfb63950a132f987867dd0fcd5174fbd3fd72a3a5bd72a71b94164c49d71e89dea02b299da4da22fdf851d38673ddca9fdc344fb2f2abd96675d296b667eb3cee6c8e027e6a79200b9e9b7b028ef04005be5c3eeee2f2fd7b4f3b86c05006b5b4f27c430b3f633e50023d7661e3c434e6d726a52504607dd7529c0a2ef831160b2b1ec7758a6813e7cc15e2947151e1d7b433351758891f2f4625f6a9ec42cf71c86e28a473c7410dd8a4b68480095e7a813070fbe197e214f312b25d48b67703ae193318b33eb84fd033e3631d0e7c75cf3f2ab518e27385e3a20676c4a4e42a29baa2a5366a647d6fab1c05f1dff39195a035071f18aca4614a51b416cf5609e0346ac90d37a71ec1d54e8d6318f4ac795b7390ffda78a7417dda2f5a12a4dc32f4ac85f9c05873a65399e887e9e0c49ad3c4e553f781cb6704b4c9d6d686e59bd51401036ec76f9a5b98f8f103ced7248e72b5790f490444cd854d96350563a340c4f8e71b9d72d1b38868eae4886b118a97f49a4a897a51615290ca806f6914fdd4b4396766a1c6ef065f766db46866fe46e3e0a9ee71e076a268d853cdbccda1531d9664eab0edbb53afbc205b5cebae5401e0a90b22bd2dc8ce2c6be6b3d5d28e0781ebc93134e78b75872d4f0cb7234ae7b429f67f885a7191bd28ef7b98c770cde54b435d6639a7d3cd40eea3a771ed3f5a9eb6176fe61a008e1c10dc50fb35df9d162bfe3a2f8c154df6d1704243d50042cb2f326a98e9c168ab4d4c37eae831c9151e2946355f241880a554f1fac6133b60803791dc611701c5a0247158310c407b500b6741fc0c25b071de0231046081058f5a5ede17fb7d697eff30567e51333e9f9a2e5cf4080fbbe2169558fb84fd017bc8335e1757c67f4465a052889aaa2b67453f6a0c7f50adf9bf039bfc051f5dddfa93684277f624832fa9eb5e69ae0a2159935d0fc62885751eade4f0f86f3095be6918dd10218f7f9fb3887474d09ab4f3632e5e458facd6d49905ea9cb9ca3fe38578b6fadd8bc8e3c206ed595dbf293dc93624149bc2b157115840bb6f5866e058ed63781bbf46a1732894c66fc610524964e9ff670f358bfaddaf8247a8a69dc3a389ca4aa4b75ec9ef78bea8cd1480513fb2f786cf265b04b73c64e22c3f2e2d65723ce741da4dfe405c755974c1c4d909951ce5d68693b457584339a30dbf005d27404955e82dd0db92f49140d3f91cc787020d5798f5f71734bb186fa3f53381838db9939a92e011311e3b73202b76dbdfcc7caae54c1fe8c38dcbab9a8415fc8220796b0f9d9f8c0d6587d9e1d31ca4e53ba4ccb75f0375b29d48e7f82d16a42b2b2e9a9b670737e6f52355779ca8b6bdbec0c5c61f263e4142434c4d5056585e6a7c88898fbdbfd5e1e6f7ff252838484b5b60666e79818c91b1b4c0c6cade080b131f2e69717a8997a3a4b2becad3dde2fa000000000000000b23364901fd210500728cc5a2e69cf9871d880658b071e4991aa7626e7b5b70461a2f80f03bd6c07f6f4c9c41fbe68d5ba89b34a227e7e358986c1b53ff7aedd29548b1994a7f095c95a674d915350e84206a58aac0ec106306aa7ee4c7b6992f4202cd782b6fae6039c30e18674cbe5367a4d1ad4ed515a1f7b0a9c896467f999ded76a9af2f009541c4cbf7d8e0f9d34c86d026babc10a6ce9ec5ad9f6a5ee83c95aa1ae8a41a3af619e59b65f29cf41250a8c2420a08d2b3130c90d238c6a9dc3ae13a5f873f1e8d8130e14d4e07325eee7b85975734abf1abfdb0e768b4d848a3e06810e4f38a8bdb5fa8ee2deeb5649ae671aeabcbd500e4a8b56bb3697fa7d4aa4e9f1ebf384d04923450d8a62adfc822b1892c6d10712347b27f8c19c5bc8504fa2b6bb23319e1d7e65337848dfccbc78f9cc3c3e00b075d1870f56f89bd6041ec0df668e935374bf9d1614ad7abbfc106ba5df99afcb2a74d10d042f077be21b0346abe640831a3656cfc8c25eb366a6719542dce845e64e66618eedee980bbdf3d178532d23d07c01ba4337047193f5de8f1e25943c67140b43719d5d7dec760fa438bc00d9b4e9b76d6d672bf0ba8965be4fc5b978501632d47b864e22948c3f50581a368247f387161f65186387c6bba19682bf39b5813ac36c43f222e044caec06920a5a2b5c70366b242b60051341c8baf80743a3d2ebdf83dd2e846e826342d6da17999601d90572f9ddf3d6a96f00d6b4a1e6b760a4ffa27060dbec89492b59488489d3667e9b3e07773426a3788e0dd0fa00fc507cbc964b8e73f03a96cc8a3cc7493f17c9f32e71fe3fb5e8fb5d1731a8e5e731710bf1b668b804a4d5cb44df1b3b2707ec5c05d02280411ad137e8de9ad7fa64237bf4dc694074764dae53a513555f395fcb59d69aeb6e126a6682d8509082a28402e3adb00641fd2230eab2235d0895aabaf3d6dbc06cb13a16f0bdb2f02845b49ce20d9fdcd47938a11c145e1245a72cb99e1e2762d95794124cd9e6465dea0e40eedc567e7699d99e702012c6458a10bdd809d856284540da1c7269e6621a44933c888ef146f4a30813d56f1fa30030e0a572b9388e8942cb1ddc21066b17bab3faddfa765cfcbbce71137ff20497664b7ce8dbb6d92636b343dcf1055a19631a72b194763019a860ad2fe71f9670207394c94547aed1df830345474e5c4f278e876cad2d6dedd608d24e982c4226342222f7b3f8ae8ceeceab254c1da0e311ddfffb2dbb8a295a4229cd84d8cf1310619c409f9b3f4748928be1495476e2bd165fe770335ce3f10a310251be6c42339e60b6f84fa628bae56e5755af759b3db1726fbedf6e037a89f292ab28f84a0f1df34c85701259002931a6e4e2648538573e0c1884983d9df72740bedefa942141d014a615b2d8ecae969e749d043fa1a94ae545e6f8b82c2d4af444a4de5bc7da086f8f822fdaf845ab0857fc8fd4f210091b3c0d59b9c145db3af211c000c7832d390f2dd1d0b8dbdc3550a77d9e61dc4c0977a9066173c9367dc8cff1d39c7caa53e1c421ad38a18ada6c102f0fe83dbfb3859f561407d02aed85c0e8a3a5c2eac1a5099130a18308de00215d7d429a4b248ebe7025a0e9f12ebad646af0e72039d414f4813369377b2a02642e50672a840e73433d87cc5d0eae476f6fab6bf3735c1f12bd3b6b9c5e4a97d5cfbcd68e9b037edef050963e3985e60afd2b6300e68c49cf4693d8106a6d2e380c85507e2535ae09b978f08a96fb692afb15547a83888bae92b09578299535c9ae1163d10b16a041205c766358456be275df925536d3bc989337d8fc0d630d80b8ece1b8148dbeb83a4c28c7234b4c000000",
  "txid": "96e297e03acbabd5407c07c6184164342ccba621ff44dc9d355f341f8ad30fcb",
  "hash": "0362c0ba4eaa8ee3bd9e3e27970fdf624729ba28d444b18b9c97ab65bc88fe52",
  "size": 5085,
  "vsize": 2278,
  "version": 1,
  "locktime": 76,
  "vin": [
    {
      "txid": "bef261a1466a010a11882916d8ed7f2a1a65cdced5e6e759852104de85f8e331",
      "vout": 1,
      "scriptSig": {
        "asm": "",
        "hex": ""
      },
      "txinwitness": [
        "fe5978646c90168caccaaf2beab1da9ae4b590858c720a6d3cd54870328a5cce2ff749806b5777c885e83357b3e908ed1ea17ad33a3609c9d3b38d71fc8a0ab2f5e3f5840bfeadfc4a87e763a562f0e1519ebd24bff57388c1afa17c449f3cb74c6e91ea6dada9bcc5cf7e29000c0bfa818f62620372a2b0bfdb375d3a1289a2ba7c916c327f44a8179e6057a97cad7db412ddc7d6b91d0cb260a2482d8c2aea2046e2203e24c7387fef753c9133a56934ed9dbf0146ab3c054ea01452bc0fe21668f28fce298ed376e0e4baa021303bf4593f04b86e5672490738b26964a27cb65237932e54f1e5e7f5b07d9f31f439f4001c9a21921f56486660342c03021f66e19f02dcb300987617c7729e86fe1b9963c2807ac06df3f8bd6b7838e33c899bc5a65b2e5a782b1a5be7d0926ddd2c50f7d553479c3eb752b9c6b15375891d8a271d8f68a100e118fc9bb90e12c73c1c946c9c0a1dc6b1b35b9b0dcb7c38645f3dff5e8191d07ec3e557177b43b3e8ad49eb86ba32fe15b3617d57b8d06c2b3e9b8baff729b717147686c403d740d612f652156867e9f8714ef680ddd160bb21918bb028dbea5761b18af9b180b90e14db8422bc67d54dfc6141befcb417c14460a365dfb3361788efa49e6e5d9e0bd7c9bf612bbe482aff887a6eb916c7e49e954911f562af67b92eec078665969bcfaab1d7774c6e853e531ff9da9cdbeff54c980aa2684b2fed789352114eca249008c2a796446786cddafd50e8cacda9a04134b306f7d861dd4a508b3ea33368734e075c35055116d3653dee506cf2e4e7a17124e9f299fe6ed256498c86e64ccc196505a5696ab14ca91171b958cf1dec200f6e92c02414f3b56eae654cb2ad5ce628d7d10a4850db7d949cb7f95c171d39610a191bbf912fa48edde76eebca5ed7b8b8c76998c512e7f4e6bddaf1df9766346e82877fb6b0db57f74be90fc2b76b49936aa170aa9590454a6fe7b70fd58f5acb7994774f3c248e6f9aa3a2dfb96b90ab1fe5122b09e7b62c767e92b0ba13f49c1fd1b588233d3a48585bdae2b76fddecc42e71d645101306abcd8824a3cb036c21bee3c6aa3fc05620377c12d2040c6807191aa97701f5891091aa5630a81a46d6d9a45651afb420a5797a1528601872078bbfda5b20442cd3e3a2d54a755e8433a4a0b3297460b61a61acec0175864ae3ed4585ca99eeaafc8dac01db06c8b49abd2acc1fd3c0b55f736e711e928a6bb8974fc70966641508906be036c6b385ca01e17e29cab9c1c298d70994607ffc50f03e57f434f16cbfe9ac0f405e02cf51ad02b59436a489ce052862831c45b72bb1e5ae4e0830b16673f04f1265d7829a7c86d735fd0570ce09d82866aea3c9fadf0f5317b95d898cc3c39f03d9414e6a37bc02ac00098a65be0d67f46bf82bcced18b1dafdde00c46f8707d76b019aba06259986a65a7fdafdd5ec075087356407e97efd25756635316d7b9c15f2e50bf71991bf05de805b0fb7b382afbb6d4080d9cdf31ed130576afab36eda786d604d47a54101b134b6047fe44a299c335a02a3d8018a01e44f792ed4ee52a7b4f67ddf29b73de807bed10814d15b7b9a47fb863b70befd217c34cc0fd96df00a6c686f8cc9c80f4088f66badefc04832cfa54c9da2d1a0f2a382dcc7c10b75c3554caf094d3c7ad74ed4a4e47bf7a6866e29b38852e9ef9894030e811dd5d5cd1f5c0859292352db31be1f07e300bcf22531f699f32f9a29fcb271ac0df58561071a9d518d467880b00b1f99472b336db8ecb888cf25593ed5ff8747fb0b234e7c27d919800937439b52f5cb3c2323d5aeded4967983d0f05339d58dc1ce6b2583b0a344e8059d0c2c1e06727095daf7a4c12b27707594adbed936884237438255424c8f162c1fd2aae2337b94031248c3368e8a093d589dfb63950a132f987867dd0fcd5174fbd3fd72a3a5bd72a71b94164c49d71e89dea02b299da4da22fdf851d38673ddca9fdc344fb2f2abd96675d296b667eb3cee6c8e027e6a79200b9e9b7b028ef04005be5c3eeee2f2fd7b4f3b86c05006b5b4f27c430b3f633e50023d7661e3c434e6d726a52504607dd7529c0a2ef831160b2b1ec7758a6813e7cc15e2947151e1d7b433351758891f2f4625f6a9ec42cf71c86e28a473c7410dd8a4b68480095e7a813070fbe197e214f312b25d48b67703ae193318b33eb84fd033e3631d0e7c75cf3f2ab518e27385e3a20676c4a4e42a29baa2a5366a647d6fab1c05f1dff39195a035071f18aca4614a51b416cf5609e0346ac90d37a71ec1d54e8d6318f4ac795b7390ffda78a7417dda2f5a12a4dc32f4ac85f9c05873a65399e887e9e0c49ad3c4e553f781cb6704b4c9d6d686e59bd51401036ec76f9a5b98f8f103ced7248e72b5790f490444cd854d96350563a340c4f8e71b9d72d1b38868eae4886b118a97f49a4a897a51615290ca806f6914fdd4b4396766a1c6ef065f766db46866fe46e3e0a9ee71e076a268d853cdbccda1531d9664eab0edbb53afbc205b5cebae5401e0a90b22bd2dc8ce2c6be6b3d5d28e0781ebc93134e78b75872d4f0cb7234ae7b429f67f885a7191bd28ef7b98c770cde54b435d6639a7d3cd40eea3a771ed3f5a9eb6176fe61a008e1c10dc50fb35df9d162bfe3a2f8c154df6d1704243d50042cb2f326a98e9c168ab4d4c37eae831c9151e2946355f241880a554f1fac6133b60803791dc611701c5a0247158310c407b500b6741fc0c25b071de0231046081058f5a5ede17fb7d697eff30567e51333e9f9a2e5cf4080fbbe2169558fb84fd017bc8335e1757c67f4465a052889aaa2b67453f6a0c7f50adf9bf039bfc051f5dddfa93684277f624832fa9eb5e69ae0a2159935d0fc62885751eade4f0f86f3095be6918dd10218f7f9fb3887474d09ab4f3632e5e458facd6d49905ea9cb9ca3fe38578b6fadd8bc8e3c206ed595dbf293dc93624149bc2b157115840bb6f5866e058ed63781bbf46a1732894c66fc610524964e9ff670f358bfaddaf8247a8a69dc3a389ca4aa4b75ec9ef78bea8cd1480513fb2f786cf265b04b73c64e22c3f2e2d65723ce741da4dfe405c755974c1c4d909951ce5d68693b457584339a30dbf005d27404955e82dd0db92f49140d3f91cc787020d5798f5f71734bb186fa3f53381838db9939a92e011311e3b73202b76dbdfcc7caae54c1fe8c38dcbab9a8415fc8220796b0f9d9f8c0d6587d9e1d31ca4e53ba4ccb75f0375b29d48e7f82d16a42b2b2e9a9b670737e6f52355779ca8b6bdbec0c5c61f263e4142434c4d5056585e6a7c88898fbdbfd5e1e6f7ff252838484b5b60666e79818c91b1b4c0c6cade080b131f2e69717a8997a3a4b2becad3dde2fa000000000000000b23364901",
        "00728cc5a2e69cf9871d880658b071e4991aa7626e7b5b70461a2f80f03bd6c07f6f4c9c41fbe68d5ba89b34a227e7e358986c1b53ff7aedd29548b1994a7f095c95a674d915350e84206a58aac0ec106306aa7ee4c7b6992f4202cd782b6fae6039c30e18674cbe5367a4d1ad4ed515a1f7b0a9c896467f999ded76a9af2f009541c4cbf7d8e0f9d34c86d026babc10a6ce9ec5ad9f6a5ee83c95aa1ae8a41a3af619e59b65f29cf41250a8c2420a08d2b3130c90d238c6a9dc3ae13a5f873f1e8d8130e14d4e07325eee7b85975734abf1abfdb0e768b4d848a3e06810e4f38a8bdb5fa8ee2deeb5649ae671aeabcbd500e4a8b56bb3697fa7d4aa4e9f1ebf384d04923450d8a62adfc822b1892c6d10712347b27f8c19c5bc8504fa2b6bb23319e1d7e65337848dfccbc78f9cc3c3e00b075d1870f56f89bd6041ec0df668e935374bf9d1614ad7abbfc106ba5df99afcb2a74d10d042f077be21b0346abe640831a3656cfc8c25eb366a6719542dce845e64e66618eedee980bbdf3d178532d23d07c01ba4337047193f5de8f1e25943c67140b43719d5d7dec760fa438bc00d9b4e9b76d6d672bf0ba8965be4fc5b978501632d47b864e22948c3f50581a368247f387161f65186387c6bba19682bf39b5813ac36c43f222e044caec06920a5a2b5c70366b242b60051341c8baf80743a3d2ebdf83dd2e846e826342d6da17999601d90572f9ddf3d6a96f00d6b4a1e6b760a4ffa27060dbec89492b59488489d3667e9b3e07773426a3788e0dd0fa00fc507cbc964b8e73f03a96cc8a3cc7493f17c9f32e71fe3fb5e8fb5d1731a8e5e731710bf1b668b804a4d5cb44df1b3b2707ec5c05d02280411ad137e8de9ad7fa64237bf4dc694074764dae53a513555f395fcb59d69aeb6e126a6682d8509082a28402e3adb00641fd2230eab2235d0895aabaf3d6dbc06cb13a16f0bdb2f02845b49ce20d9fdcd47938a11c145e1245a72cb99e1e2762d95794124cd9e6465dea0e40eedc567e7699d99e702012c6458a10bdd809d856284540da1c7269e6621a44933c888ef146f4a30813d56f1fa30030e0a572b9388e8942cb1ddc21066b17bab3faddfa765cfcbbce71137ff20497664b7ce8dbb6d92636b343dcf1055a19631a72b194763019a860ad2fe71f9670207394c94547aed1df830345474e5c4f278e876cad2d6dedd608d24e982c4226342222f7b3f8ae8ceeceab254c1da0e311ddfffb2dbb8a295a4229cd84d8cf1310619c409f9b3f4748928be1495476e2bd165fe770335ce3f10a310251be6c42339e60b6f84fa628bae56e5755af759b3db1726fbedf6e037a89f292ab28f84a0f1df34c85701259002931a6e4e2648538573e0c1884983d9df72740bedefa942141d014a615b2d8ecae969e749d043fa1a94ae545e6f8b82c2d4af444a4de5bc7da086f8f822fdaf845ab0857fc8fd4f210091b3c0d59b9c145db3af211c000c7832d390f2dd1d0b8dbdc3550a77d9e61dc4c0977a9066173c9367dc8cff1d39c7caa53e1c421ad38a18ada6c102f0fe83dbfb3859f561407d02aed85c0e8a3a5c2eac1a5099130a18308de00215d7d429a4b248ebe7025a0e9f12ebad646af0e72039d414f4813369377b2a02642e50672a840e73433d87cc5d0eae476f6fab6bf3735c1f12bd3b6b9c5e4a97d5cfbcd68e9b037edef050963e3985e60afd2b6300e68c49cf4693d8106a6d2e380c85507e2535ae09b978f08a96fb692afb15547a83888bae92b09578299535c9ae1163d10b16a041205c766358456be275df925536d3bc989337d8fc0d630d80b8ece1b8148dbeb83a4c28c7234b"
      ],
      "sequence": 4294967294
    }
  ],
  "vout": [
    {
      "value": 499991.8648,
      "n": 0,
      "scriptPubKey": {
        "asm": "1 37c184cc87be6c1b1ea2156067711e187879eed6a4432568aa92473c03528181",
        "hex": "512037c184cc87be6c1b1ea2156067711e187879eed6a4432568aa92473c03528181",
        "reqSigs": 1,
        "type": "witness_v1_scripthash",
        "addresses": [
          "3QJmnh"
        ]
      }
    },
    {
      "value": 1.0,
      "n": 1,
      "scriptPubKey": {
        "asm": "OP_RETURN 9524bea8662320945f376ea2dd969209a8d42b1b6eb6f72dee5a94c400c7d80e 36993ea3d63cdc507ffd43932a98e5a7c15ecfee871c66a1b16b5f270bb6afe116b91e83f61cfc705fdd63b30ab8c587e17eefcea73c4681914b7f072b968fc176d97ee3967c9c103fbd03d36ad8a5e7811e8faec75c26e1f12b1f674bf6efa156f95ec3b65cbc301f9d23f34af885c7a13eaf8ee77c06c1d10b3f476bd6cf81b619be2356bc5cd0ff7dc313aa18652741de4f6e079ce62131ebdfa78b362f6196399e03769c7cf0df5de3338a38450761fe6f4e27bcc60111cbff87ab160f41f659fe6316fc1c90bf3d8353ea582567019e0f2e47dca66171ab9fe7cb766f21d679de4336dc3cb09f1da373ca78054721be2f0e67fc8641518bbfc7eb564f0136993ea3d63cdc507ffd43932a98e5a7c15ecfee871c66a1b16b5f270bb6afe116b91e83f61cfc705fdd63b30ab8c587e17eefcea73c4681914b7f072b968fc176d97ee3967c9c103fbd03d36ad8a5e7811e8faec75c26e1f12b1f674bf6efa156f95ec3b65cbc301f9d23f34af885c7a13eaf8ee77c06c1d10b3f476bd6cf81b619be2356bc5cd0ff7dc313aa18652741de4f6e079ce62131ebdfa78b362f6196399e03769c7cf0df5de3338a38450761fe6f4e27bcc60111cbff87ab160f41f659fe6316fc1c90bf3d8353ea582567019e0f2e47dca66171ab9fe7cb766f21d679de4336dc3cb09f1da373ca78054721be2f0e67fc8641518bbfc7eb564f0136993ea3d63cdc507ffd43932a98e5a7c15ecfee871c66a1b16b5f270bb6afe116b91e83f61cfc705fdd63b30ab8c587e17eefcea73c4681914b7f072b968fc176d97ee3967c9c103fbd03d36ad8a5e7811e8faec75c26e1f12b1f674bf6efa156f95ec3b65cbc301f9d23f34af885c7a13eaf8ee77c06c1d10b3f476bd6cf81b619be2356bc5cd0ff7dc313aa18652741de4f6e079ce62131ebdfa78b362f6196399e03769c7cf0df5de3338a38450761fe6f4e27bcc60111cbff87ab160f41f659fe6316fc1c90bf3d8353ea582567019e0f2e47dca66171ab9fe7cb766f21d679de4336dc3cb09f1da373ca78054721be2f0e67fc8641518bbfc7eb564f0136993ea3d63cdc507ffd43932a98e5a7c15ecfee871c66a1b16b5f270bb6afe116b91e83f61cfc705fdd63b30ab8c587e17eefcea73c4681914b7f072b968fc176d97ee3967c9c103fbd03d36ad8a5e7811e8faec75c26e1f12b1f674bf6efa156f95ec3b65cbc301f9d23f34af885c7a13eaf8ee77c06c1d10b3f476bd6cf81b619be2356bc5cd0ff7dc313aa18652741de4f6e079ce62131ebdfa78b362f6196399e03769c7cf0df5de3338a38450761fe6f4e27bcc60111cbff87ab160f41f659fe6316fc1c90bf3d8353ea582567019e0f2e47dca66171ab9fe7cb766f21d679de4336dc3cb09f1da373ca78054721be2f0e67fc8641518bbfc7eb564f0136993ea3d63cdc507ffd43932a98e5a7c15ecfee871c66a1b16b5f270bb6afe116b91e83f61cfc705fdd63b30ab8c587e17eefcea73c4681914b7f072b968fc176d97ee3967c9c103fbd03d36ad8a5e7811e8faec75c26e1f12b1f674bf6efa156f95ec3b65cbc301f9d23f34af885c7a13eaf8ee77c06c1d10b3f476bd6cf81b619be2356bc5cd0ff7dc313aa1865271b745f2a2ea89e7d19b5a04654c99c2309ddfe8d4b0f03407429e253ffa61d4d",
        "hex": "6a209524bea8662320945f376ea2dd969209a8d42b1b6eb6f72dee5a94c400c7d80e4db00436993ea3d63cdc507ffd43932a98e5a7c15ecfee871c66a1b16b5f270bb6afe116b91e83f61cfc705fdd63b30ab8c587e17eefcea73c4681914b7f072b968fc176d97ee3967c9c103fbd03d36ad8a5e7811e8faec75c26e1f12b1f674bf6efa156f95ec3b65cbc301f9d23f34af885c7a13eaf8ee77c06c1d10b3f476bd6cf81b619be2356bc5cd0ff7dc313aa18652741de4f6e079ce62131ebdfa78b362f6196399e03769c7cf0df5de3338a38450761fe6f4e27bcc60111cbff87ab160f41f659fe6316fc1c90bf3d8353ea582567019e0f2e47dca66171ab9fe7cb766f21d679de4336dc3cb09f1da373ca78054721be2f0e67fc8641518bbfc7eb564f0136993ea3d63cdc507ffd43932a98e5a7c15ecfee871c66a1b16b5f270bb6afe116b91e83f61cfc705fdd63b30ab8c587e17eefcea73c4681914b7f072b968fc176d97ee3967c9c103fbd03d36ad8a5e7811e8faec75c26e1f12b1f674bf6efa156f95ec3b65cbc301f9d23f34af885c7a13eaf8ee77c06c1d10b3f476bd6cf81b619be2356bc5cd0ff7dc313aa18652741de4f6e079ce62131ebdfa78b362f6196399e03769c7cf0df5de3338a38450761fe6f4e27bcc60111cbff87ab160f41f659fe6316fc1c90bf3d8353ea582567019e0f2e47dca66171ab9fe7cb766f21d679de4336dc3cb09f1da373ca78054721be2f0e67fc8641518bbfc7eb564f0136993ea3d63cdc507ffd43932a98e5a7c15ecfee871c66a1b16b5f270bb6afe116b91e83f61cfc705fdd63b30ab8c587e17eefcea73c4681914b7f072b968fc176d97ee3967c9c103fbd03d36ad8a5e7811e8faec75c26e1f12b1f674bf6efa156f95ec3b65cbc301f9d23f34af885c7a13eaf8ee77c06c1d10b3f476bd6cf81b619be2356bc5cd0ff7dc313aa18652741de4f6e079ce62131ebdfa78b362f6196399e03769c7cf0df5de3338a38450761fe6f4e27bcc60111cbff87ab160f41f659fe6316fc1c90bf3d8353ea582567019e0f2e47dca66171ab9fe7cb766f21d679de4336dc3cb09f1da373ca78054721be2f0e67fc8641518bbfc7eb564f0136993ea3d63cdc507ffd43932a98e5a7c15ecfee871c66a1b16b5f270bb6afe116b91e83f61cfc705fdd63b30ab8c587e17eefcea73c4681914b7f072b968fc176d97ee3967c9c103fbd03d36ad8a5e7811e8faec75c26e1f12b1f674bf6efa156f95ec3b65cbc301f9d23f34af885c7a13eaf8ee77c06c1d10b3f476bd6cf81b619be2356bc5cd0ff7dc313aa18652741de4f6e079ce62131ebdfa78b362f6196399e03769c7cf0df5de3338a38450761fe6f4e27bcc60111cbff87ab160f41f659fe6316fc1c90bf3d8353ea582567019e0f2e47dca66171ab9fe7cb766f21d679de4336dc3cb09f1da373ca78054721be2f0e67fc8641518bbfc7eb564f0136993ea3d63cdc507ffd43932a98e5a7c15ecfee871c66a1b16b5f270bb6afe116b91e83f61cfc705fdd63b30ab8c587e17eefcea73c4681914b7f072b968fc176d97ee3967c9c103fbd03d36ad8a5e7811e8faec75c26e1f12b1f674bf6efa156f95ec3b65cbc301f9d23f34af885c7a13eaf8ee77c06c1d10b3f476bd6cf81b619be2356bc5cd0ff7dc313aa1865271b745f2a2ea89e7d19b5a04654c99c2309ddfe8d4b0f03407429e253ffa61d4d",
        "type": "nulldata"
      }
    }
  ],
  "blockhash": "ed58b71ef50cb049f6fd5c1ad274bdeb3951d970e0a56ec51ef7152d34b6d8c5",
  "confirmations": 1,
  "time": 1764177054,
  "blocktime": 1764177054
}