{
  "hex": "01000000000101cc12e3594484472030e28d7eea331ef8bab1955690316d93918912c02a4961e80100000000feffffff02a020df63792d0000225120cbfbb7393d2fb248b8d7656459000e814c7b83fcbec98614dcd13ce401b779c800e1f50500000000fdd5046a20ee38c50cbf26209cbe22820b6ac09ba80c265a4f03ca4f4d81a371d330b699ae4db004f5a1f77f17c489d5d2e53473f777274b6200a507b492b7fa6666a3b49fb871b4d581d75f37e4a9f5f2c51453d757076b4220852794b297da46468394bf985194b5e1b73f5784c99592a57433b737670b2240e547f4d2f7ba2626e3f4dff831f495c1971f77a4e9b5b28554139717472b0260c567d4f2d79a0606c3d4ffd811d4752177ff974409555265b4f377f7a7cbe28025873412377ae6e623341f38f134550157dfb7642975724594d357d787ebc2a005a71432175ac6c603143f18d114356137bfd70449151225f4b337b7e78ba2c065c77452773aa6a663745f78b1741541179ff72469353205d4931797c7ab82e045e75472571a868643547f589154f5a1f77f17c489d5d2e53473f777274b6200a507b492b7fa6666a3b49fb871b4d581d75f37e4a9f5f2c51453d757076b4220852794b297da46468394bf985194b5e1b73f5784c99592a57433b737670b2240e547f4d2f7ba2626e3f4dff831f495c1971f77a4e9b5b28554139717472b0260c567d4f2d79a0606c3d4ffd811d4752177ff974409555265b4f377f7a7cbe28025873412377ae6e623341f38f134550157dfb7642975724594d357d787ebc2a005a71432175ac6c603143f18d114356137bfd70449151225f4b337b7e78ba2c065c77452773aa6a663745f78b1741541179ff72469353205d4931797c7ab82e045e75472571a868643547f589154f5a1f77f17c489d5d2e53473f777274b6200a507b492b7fa6666a3b49fb871b4d581d75f37e4a9f5f2c51453d757076b4220852794b297da46468394bf985194b5e1b73f5784c99592a57433b737670b2240e547f4d2f7ba2626e3f4dff831f495c1971f77a4e9b5b28554139717472b0260c567d4f2d79a0606c3d4ffd811d4752177ff974409555265b4f377f7a7cbe28025873412377ae6e623341f38f134550157dfb7642975724594d357d787ebc2a005a71432175ac6c603143f18d114356137bfd70449151225f4b337b7e78ba2c065c77452773aa6a663745f78b1741541179ff72469353205d4931797c7ab82e045e75472571a868643547f589154f5a1f77f17c489d5d2e53473f777274b6200a507b492b7fa6666a3b49fb871b4d581d75f37e4a9f5f2c51453d757076b4220852794b297da46468394bf985194b5e1b73f5784c99592a57433b737670b2240e547f4d2f7ba2626e3f4dff831f495c1971f77a4e9b5b28554139717472b0260c567d4f2d79a0606c3d4ffd811d4752177ff974409555265b4f377f7a7cbe28025873412377ae6e623341f38f134550157dfb7642975724594d357d787ebc2a005a71432175ac6c603143f18d114356137bfd70449151225f4b337b7e78ba2c065c77452773aa6a663745f78b1741541179ff72469353205d4931797c7ab82e045e75472571a868643547f589154f5a1f77f17c489d5d2e53473f777274b6200a507b492b7fa6666a3b49fb871b4d581d75f37e4a9f5f2c51453d757076b4220852794b297da46468394bf985194b5e1b73f5784c99592a57433b737670b2240e547f4d2f7ba2626e3f4dff831f495c1971f77a4e9b5b28554139717472b0260c567d4f2d79a0606c3d4ffd811d4752177ff974409555265b4f377f7a7cbdda9eda1916037a2d3defe11cec6889da7a345c0c85bee10247c3ee02e5ea4a302fd7509862e2d3af0f31d766533183bbd65a1d7246a708fdf164532955e05de091cbae56afa43893d87075010bc3b987a94ac403014caa0a36c32e9aa43fd6fb431d4109bc3ebec749f236e872dc5fa6eb77b5654cbe268866749507118a96fa01cf3a18c58060e157fd5e44fbc00926e11f218587f85240eccb907ba16017acaee111366763ae1411f6707bebbc0a47b6061832d8f5b840c8ef0a9dc3dbcb7a0e83283041a5815bdf1931d44971a7b57c582407d2ab3130bf874cac4f2d7701468e30ca309ae05ac11970d4202ff267126d14fefb7c098830d70f150a2dd8638b5d2adf29cffcff641b14dbae29f561a157a426c507ee90a1ccce3fbad72e8267c7e60ed13285011aca61e98e787dddb7d166a19c0569b66405fc7f0e000d907ddff8d50d93fb2d0f40362605ea433d6d69b497fc2a56a322d22d5be042a42f8a866c7cdd899fdd29fc4a3e26c0686e8b0941e601f9f5cdc40405b2e8a25ce7bc2684ae38dd733f05f4c4b4873d6c46665b15cbc864030f133b1b6b34c3c90292e79a685ce96899f850ac077179add65882b2431afc0f43cc529233d1a53e010547b55039e92a36c10df357c59825887f1c11be3aeb3c79cdbf3e0d75fab6134f3357cb695700af91556d87354622173866c83d65fdd314e8c5d854fe66d2b6d75277d3669ad02cfb4a66df85cf0946c35706a8768aa101e924332b610efc596a7e797554cff79c9306036cf1ed326a7f2ef3e3d660710c145a7109d72c95e767b91c5818fbeec48103edb46d2e16c4222f373545d3c31081163258542321f60c9fab6e4a611aa3db9eb3141bcd9eb48a3855b0e767dafa45814bf52f12273d365f8ed75a087babcd0233f7c6142abb5d7a3c5beef9cb74bb133ee22965d5822faacf069c06db923378e93ed97c8a8c4222ba37b5aeaaa3d0f9ab489894749fed304186afe5278a01dd3e31fac223455e2ceb1670f959cb86692fcd917740a671681dbfdb5e7d64268bc0dae00b95665e3d0d472c5c341d2a99a0c2d67a2455bb6d8a969215340a5b2056412d3cba6d1d3c84a015e61a03340d4066714517f65a03491798da3258b62e88180e4cc69185f5a949f0e41db7128c9be65efa96c0dc94231e7fb73c6d1163a4081d3720f779c05b26a5b9e73999e31260d97e22f7285379bddb9c3cfa9f98d2bd0a153936d2e6e627213feb18aa8f189d44b860784b0aebe4c211f9c7024b6133af410de39fdbf76626c0251cd002de0e974d5f8c50a09a694f8f41348a31c8d5d5c79df321df9b81ad96e809496a814fe23e37442f8f8d050c14f69495ed8235036b43c1a199fde1a5eb16c0782abab7c72dfc9fefcbf1db01112b928966fb7f5705f860589b19a45a70fd8eea5452e79a213beb6ad43727985be5e2d815b5a9c2a452b4307d7a46b2ff2f6abca4a59304965718cf19fa2ebe04dba22edafcfccd0e3b2bcc4ebf8dde48ca92544ea59eaf4237dbe61b297c0620b788bbbaa403e8baad92e4e89838cc53e63b0f331f56f31f0675ac437f9e5cf75913b08f39ed44f0e0dbe491474cd0fe239fae48e24e359a757834c73961c12d036f959d53dc40fab87152c5e6ed1670591235faf19853d85996c439e70473154e4aa8e5c2fc9b7c56d59366e47208a87f7c09c5cd9791e199069bb55c0a881f65044b46baf5e4dc8713737dd8325d6f7e8a4cba77821b02d5380460b178378ab6fe0c00aa62f94bf3c0c9cea26fd521dceaaee77fbf8499bd3cdf03294b38a590cbb9dc1e70675f64ba218819a832b8b7928f870d2dcf7031244194b8d4873c5c3c4316b10b06c53b326a535813992a82fe7c555d74855a1456019d40d0c616c7639399d4db3493721c4731cec04febd453de31e27400dcf94dbb97f1fd7b0d6ae40acf9953ebca059142fcd118ad52d07b8322302f8077b7c0253d44aaec67985f6b783b3b1acc654d63b47736db45a13b222d7d3a29637e875bc96ae3c3929a3734b5cc3965dc4f778f597b9464ebf3997d3f9497537eb37509fa933065f4a88b6afc2f2f57e5c45b17ba5450b4ae9c50802e2fb207c8113d7f07bde6588b9f217f11eb70c5c2cec41b3fa73c31158fd04dfa6478e72e9c4689ecb080be9dcd5112cfbe0ae4b7b609d548b06de1add1810ce3ac1daa7bd9839f305d6d4dd383a57101beec9381814312fceee359798d8c8145c9003cfea153e579e02832d78ebde5b03592c0bf5fc0594a67cabfa309fe0b07eee142e1a12fc98d0ba6284c94e5cae7498a1747f4e13a7bc8c146b8f8a2cc9e3c8d307b3757faee7d7130f844a9c4fe8406680ba09ce27e56a994c12497a060059c4524a3842775c90717f56fccfbb6730f4964c2fac5c294792c7bfc43a63e9dd5ca4de32e2b074fb00f0115d69790828f6164672f70c02c2d4927258e056bcc5b37d01849ca7b4a5f5472c7bc4f8c744d632aaae9381d108141ed4669f22b614014e835a2d58be24804d0b53029375efbb08a3aa05edecaffa8bb06089e209c073c294333c42d518a63c225269c5430a65f4de97c20f965d3ec2b1623e47fc2a686f96d63a49a754bb426e8f562bfb5dfe9d7af9428fb49738715b4f7267ef5b34138ea9d46ab1c23796aadab0c55fc6e37e4a6b99f3e01cee310d44a98c114b823f36381d9ae0078dd5c556912c53b6fce0360fe1c1468a66536c48e359aa3f71a0968d33fc55d84fc5a35a5747e9e6cfc35f26c69e61da2df6b5b1065341788c9fc2a5742fd41aaa88e0df6fa6aed916651718ef81d37290fcc2256ec19ba429282a782a81e76255cd189226840527219dba81bec4b922829aa03ad545cbf42c88a2a86fe30f9ee8021ad471af7982fa374e33f2ac92eac6fde4a7e2ab517bd6bd2b130702d29e5984ee3cf277c122747320f4612bfbdf26d985550dd51c4c40102948966be1b491b8597240d3cf44fa2635cdf12951afe8eb3a19497d2509c517c220334246b9eda8d092778b00706b0205b92733579b112b39a269a6eb3d826eb8e50c949dfc4abbe0a6299a7c3addceb77204397f6d74c154a044bce3090db4917986229609be146a6fa6b4ae8881560ab309db746febe85b8a31ac13adc9c2790b46fabd699f73561163145af234379554ca39ed7ed62173d9dc64b73abacd4093e9fe5c181f0055150509cad779d32753668c1b48fa767fe1fd1b446c4aeabec17cce483a8a3c18e060d1abc16cbe83d7b7a2cc3a34b9736a901b599d9e4726fd1447447ea2a5a7f9dff8050f1fd59adfbcc741d3c7a77ab7f2082fe1383bce035fe15f5a04151729324a5f798d99a2a5adb0c0d4dfe2e60412496475828aa5cfdddef2fa09121f36444e50535e7a89949a9fa2b0c9f503283a4b4f585c7ca7a9c7cfdbdde4f900000000000000000000000000001320324201fd210500acfc42df373a7bab133e69c364346ec9f2e69da3c5babb5e8637aa3d76368296fa5b1541765c11f256d86616fa36ad3de9dd6d9222c6583f542452fbbe0298d1bad9f05af712d0cd08420b7bb546e362a7eb8f2ba4a64ec4585a56b607851ff42a630f3264136a80b2b27e5de99c5cf609c28454126f10ca99b574ea001f62724165f5e6726495871e4e3b859ef17dca757c470246fe3ab4c49e4f34fcf5124471994613fb1b65fab07aa02d34dd213260b53a2651d3d79587285f99c78cb05eca23dd7f075f50f2e9326cd1004ce1665091f54b795634732b8cc071d7a929b211b1d097efb8663f5eb0dec9f9f95fecf66a2fc2ee329c016244318d24c590eaded20b7bfd0675d5ec4d9049f986dfed2460bae5c1abccbb6bcc8647b7afa9822759bafb93d758f60ceda5ecfe0d8b0eddd6bbc501bbc049b7fd13601fe8bb5ba13e0bdd8b68bff338823e1598f1c3665d3e956ddd44498572d0a0f6defdb21e3304003f3c916865acd3db50f022b345b40b50c43ab3bbf3308c9f136323ced442c4c12f85191fb011ab138fc39704fec50455a7dfaff433eec03a9edf76a2de3ad4666ee359e91e1337a2063a33303382d6f5432086ecb8ae58dbed3d42f8926393908f8b877aa756e23a9f95b2426eb78b6b7ae18d7448ffef4b1e4a2da0a00d4f2fd38361a7918de9817d302fca3ac004f569f347c25cf9ffb26f1badba9a7602b83f47d5c7c85268f7647dda751c2f7b449491689ca1891ace15160e33894038c3110a9249221a2694ea6becba0980e0644f3f9692955b5f0f93005b2b87d8faa7027b7dfa458bb8178657f77d87e3bc34e88b388408f740f2e1c692877ffe4d250d6d742f8dada98b39609da4e43abe73c3668e8166689ff56a511595437b0fc606675415996ff089ad6d28834ee65b0eb0fd376462069dee32893b46c6316d019d443eb1fe5400c1c5c4da5f54f10e5a9b609e079a349435fd813607f765102ab085c9168af8b8cef6b9c19f40c47c73c5fffea8b123e8c929ccf329dbb6428ec11e7feaf32ccca337e4aaebcb7677410f66caf81389dc1d3e62f110c340ea48aec4afdb13677a5bbbf3859750870d4d030a156c849665aa87a8bc54ea9a0df5634b5eeb93c555b9a30e0d022a85a59162a8d581d0ce3b50f773ed1f8c9d0605b410f607a4eeffc57b66cf7c10c08a126cfd20822d8f0b54317b9752a0c6c7d55c6d7e0e8961f17faee664a36161ca73a504535dbf5d5db190ba123a6bb44b6140874ee235e8bd163ab4961d70711dc2f0639d570a8551f778553316d50f82b3c63177326ff283753d655c1582d670e7ef7bc67ff69e72a65e23d7690e84d6551f12ee66453ab8da28b62294db630b89b1ba64eebf827706eec421adc925068d447540c469673db8f869ff9066ab89eabfc58443f82f4f5532548de3c77cdcb830709ae582aff7b7529b54ccca2bf757afe399ddf42988b0f63b1eccac7c88d368cf0dab6dba38fd2b62d63940e3e7dc9c66a5ecfb032b7df823e8058cc5abac49761e743cea0b7cbfce0d455eb9903e3932b22c2a133001cc88ec7b14706d376deaa995e11450f2dddbb60dc5a4027099a64773cdfa5a1dcb18cd6470b9635abd14ff5e2090be6f5f0914d7ce15a4db084bbef4a2201af14f461616ebe49cd5d0544c6edc4ad19a516b36599b3b3c4f972f4f5168f90dea22bf05e19639df85520ca3c771dcb251ccbea480a2ca710de51d5103f8dfcb53ea7e2f60bb25d9ebd26e7f9e6f91c2cbf4f756e9d21148036524fc3da4390cfbacd43489483de30c0772d989c2d599089cfaa2088f9e9f6a23b299a8ec2ac3457d33f6906168000000",
  "txid": "9627371f22761ee5dc3a564c1777c3375c82d9ea67bfee3b8d7bcf2ae57a0aff",
  "hash": "57f38501d49e8329b6bd2237da40c5e36d5143bdc1ec7db425fbaf11f62a929a",
  "size": 5085,
  "vsize": 2278,
  "version": 1,
  "locktime": 104,
  "vin": [
    {
      "txid": "e861492ac0128991936d31905695b1baf81e33ea7e8de2302047844459e312cc",
      "vout": 1,
      "scriptSig": {
        "asm": "",
        "hex": ""
      },
      "txinwitness": [
        "862e2d3af0f31d766533183bbd65a1d7246a708fdf164532955e05de091cbae56afa43893d87075010bc3b987a94ac403014caa0a36c32e9aa43fd6fb431d4109bc3ebec749f236e872dc5fa6eb77b5654cbe268866749507118a96fa01cf3a18c58060e157fd5e44fbc00926e11f218587f85240eccb907ba16017acaee111366763ae1411f6707bebbc0a47b6061832d8f5b840c8ef0a9dc3dbcb7a0e83283041a5815bdf1931d44971a7b57c582407d2ab3130bf874cac4f2d7701468e30ca309ae05ac11970d4202ff267126d14fefb7c098830d70f150a2dd8638b5d2adf29cffcff641b14dbae29f561a157a426c507ee90a1ccce3fbad72e8267c7e60ed13285011aca61e98e787dddb7d166a19c0569b66405fc7f0e000d907ddff8d50d93fb2d0f40362605ea433d6d69b497fc2a56a322d22d5be042a42f8a866c7cdd899fdd29fc4a3e26c0686e8b0941e601f9f5cdc40405b2e8a25ce7bc2684ae38dd733f05f4c4b4873d6c46665b15cbc864030f133b1b6b34c3c90292e79a685ce96899f850ac077179add65882b2431afc0f43cc529233d1a53e010547b55039e92a36c10df357c59825887f1c11be3aeb3c79cdbf3e0d75fab6134f3357cb695700af91556d87354622173866c83d65fdd314e8c5d854fe66d2b6d75277d3669ad02cfb4a66df85cf0946c35706a8768aa101e924332b610efc596a7e797554cff79c9306036cf1ed326a7f2ef3e3d660710c145a7109d72c95e767b91c5818fbeec48103edb46d2e16c4222f373545d3c31081163258542321f60c9fab6e4a611aa3db9eb3141bcd9eb48a3855b0e767dafa45814bf52f12273d365f8ed75a087babcd0233f7c6142abb5d7a3c5beef9cb74bb133ee22965d5822faacf069c06db923378e93ed97c8a8c4222ba37b5aeaaa3d0f9ab489894749fed304186afe5278a01dd3e31fac223455e2ceb1670f959cb86692fcd917740a671681dbfdb5e7d64268bc0dae00b95665e3d0d472c5c341d2a99a0c2d67a2455bb6d8a969215340a5b2056412d3cba6d1d3c84a015e61a03340d4066714517f65a03491798da3258b62e88180e4cc69185f5a949f0e41db7128c9be65efa96c0dc94231e7fb73c6d1163a4081d3720f779c05b26a5b9e73999e31260d97e22f7285379bddb9c3cfa9f98d2bd0a153936d2e6e627213feb18aa8f189d44b860784b0aebe4c211f9c7024b6133af410de39fdbf76626c0251cd002de0e974d5f8c50a09a694f8f41348a31c8d5d5c79df321df9b81ad96e809496a814fe23e37442f8f8d050c14f69495ed8235036b43c1a199fde1a5eb16c0782abab7c72dfc9fefcbf1db01112b928966fb7f5705f860589b19a45a70fd8eea5452e79a213beb6ad43727985be5e2d815b5a9c2a452b4307d7a46b2ff2f6abca4a59304965718cf19fa2ebe04dba22edafcfccd0e3b2bcc4ebf8dde48ca92544ea59eaf4237dbe61b297c0620b788bbbaa403e8baad92e4e89838cc53e63b0f331f56f31f0675ac437f9e5cf75913b08f39ed44f0e0dbe491474cd0fe239fae48e24e359a757834c73961c12d036f959d53dc40fab87152c5e6ed1670591235faf19853d85996c439e70473154e4aa8e5c2fc9b7c56d59366e47208a87f7c09c5cd9791e199069bb55c0a881f65044b46baf5e4dc8713737dd8325d6f7e8a4cba77821b02d5380460b178378ab6fe0c00aa62f94bf3c0c9cea26fd521dceaaee77fbf8499bd3cdf03294b38a590cbb9dc1e70675f64ba218819a832b8b7928f870d2dcf7031244194b8d4873c5c3c4316b10b06c53b326a535813992a82fe7c555d74855a1456019d40d0c616c7639399d4db3493721c4731cec04febd453de31e27400dcf94dbb97f1fd7b0d6ae40acf9953ebca059142fcd118ad52d07b8322302f8077b7c0253d44aaec67985f6b783b3b1acc654d63b47736db45a13b222d7d3a29637e875bc96ae3c3929a3734b5cc3965dc4f778f597b9464ebf3997d3f9497537eb37509fa933065f4a88b6afc2f2f57e5c45b17ba5450b4ae9c50802e2fb207c8113d7f07bde6588b9f217f11eb70c5c2cec41b3fa73c31158fd04dfa6478e72e9c4689ecb080be9dcd5112cfbe0ae4b7b609d548b06de1add1810ce3ac1daa7bd9839f305d6d4dd383a57101beec9381814312fceee359798d8c8145c9003cfea153e579e02832d78ebde5b03592c0bf5fc0594a67cabfa309fe0b07eee142e1a12fc98d0ba6284c94e5cae7498a1747f4e13a7bc8c146b8f8a2cc9e3c8d307b3757faee7d7130f844a9c4fe8406680ba09ce27e56a994c12497a060059c4524a3842775c90717f56fccfbb6730f4964c2fac5c294792c7bfc43a63e9dd5ca4de32e2b074fb00f0115d69790828f6164672f70c02c2d4927258e056bcc5b37d01849ca7b4a5f5472c7bc4f8c744d632aaae9381d108141ed4669f22b614014e835a2d58be24804d0b53029375efbb08a3aa05edecaffa8bb06089e209c073c294333c42d518a63c225269c5430a65f4de97c20f965d3ec2b1623e47fc2a686f96d63a49a754bb426e8f562bfb5dfe9d7af9428fb49738715b4f7267ef5b34138ea9d46ab1c23796aadab0c55fc6e37e4a6b99f3e01cee310d44a98c114b823f36381d9ae0078dd5c556912c53b6fce0360fe1c1468a66536c48e359aa3f71a0968d33fc55d84fc5a35a5747e9e6cfc35f26c69e61da2df6b5b1065341788c9fc2a5742fd41aaa88e0df6fa6aed916651718ef81d37290fcc2256ec19ba429282a782a81e76255cd189226840527219dba81bec4b922829aa03ad545cbf42c88a2a86fe30f9ee8021ad471af7982fa374e33f2ac92eac6fde4a7e2ab517bd6bd2b130702d29e5984ee3cf277c122747320f4612bfbdf26d985550dd51c4c40102948966be1b491b8597240d3cf44fa2635cdf12951afe8eb3a19497d2509c517c220334246b9eda8d092778b00706b0205b92733579b112b39a269a6eb3d826eb8e50c949dfc4abbe0a6299a7c3addceb77204397f6d74c154a044bce3090db4917986229609be146a6fa6b4ae8881560ab309db746febe85b8a31ac13adc9c2790b46fabd699f73561163145af234379554ca39ed7ed62173d9dc64b73abacd4093e9fe5c181f0055150509cad779d32753668c1b48fa767fe1fd1b446c4aeabec17cce483a8a3c18e060d1abc16cbe83d7b7a2cc3a34b9736a901b599d9e4726fd1447447ea2a5a7f9dff8050f1fd59adfbcc741d3c7a77ab7f2082fe1383bce035fe15f5a04151729324a5f798d99a2a5adb0c0d4dfe2e60412496475828aa5cfdddef2fa09121f36444e50535e7a89949a9fa2b0c9f503283a4b4f585c7ca7a9c7cfdbdde4f900000000000000000000000000001320324201",
        "00acfc42df373a7bab133e69c364346ec9f2e69da3c5babb5e8637aa3d76368296fa5b1541765c11f256d86616fa36ad3de9dd6d9222c6583f542452fbbe0298d1bad9f05af712d0cd08420b7bb546e362a7eb8f2ba4a64ec4585a56b607851ff42a630f3264136a80b2b27e5de99c5cf609c28454126f10ca99b574ea001f62724165f5e6726495871e4e3b859ef17dca757c470246fe3ab4c49e4f34fcf5124471994613fb1b65fab07aa02d34dd213260b53a2651d3d79587285f99c78cb05eca23dd7f075f50f2e9326cd1004ce1665091f54b795634732b8cc071d7a929b211b1d097efb8663f5eb0dec9f9f95fecf66a2fc2ee329c016244318d24c590eaded20b7bfd0675d5ec4d9049f986dfed2460bae5c1abccbb6bcc8647b7afa9822759bafb93d758f60ceda5ecfe0d8b0eddd6bbc501bbc049b7fd13601fe8bb5ba13e0bdd8b68bff338823e1598f1c3665d3e956ddd44498572d0a0f6defdb21e3304003f3c916865acd3db50f022b345b40b50c43ab3bbf3308c9f136323ced442c4c12f85191fb011ab138fc39704fec50455a7dfaff433eec03a9edf76a2de3ad4666ee359e91e1337a2063a33303382d6f5432086ecb8ae58dbed3d42f8926393908f8b877aa756e23a9f95b2426eb78b6b7ae18d7448ffef4b1e4a2da0a00d4f2fd38361a7918de9817d302fca3ac004f569f347c25cf9ffb26f1badba9a7602b83f47d5c7c85268f7647dda751c2f7b449491689ca1891ace15160e33894038c3110a9249221a2694ea6becba0980e0644f3f9692955b5f0f93005b2b87d8faa7027b7dfa458bb8178657f77d87e3bc34e88b388408f740f2e1c692877ffe4d250d6d742f8dada98b39609da4e43abe73c3668e8166689ff56a511595437b0fc606675415996ff089ad6d28834ee65b0eb0fd376462069dee32893b46c6316d019d443eb1fe5400c1c5c4da5f54f10e5a9b609e079a349435fd813607f765102ab085c9168af8b8cef6b9c19f40c47c73c5fffea8b123e8c929ccf329dbb6428ec11e7feaf32ccca337e4aaebcb7677410f66caf81389dc1d3e62f110c340ea48aec4afdb13677a5bbbf3859750870d4d030a156c849665aa87a8bc54ea9a0df5634b5eeb93c555b9a30e0d022a85a59162a8d581d0ce3b50f773ed1f8c9d0605b410f607a4eeffc57b66cf7c10c08a126cfd20822d8f0b54317b9752a0c6c7d55c6d7e0e8961f17faee664a36161ca73a504535dbf5d5db190ba123a6bb44b6140874ee235e8bd163ab4961d70711dc2f0639d570a8551f778553316d50f82b3c63177326ff283753d655c1582d670e7ef7bc67ff69e72a65e23d7690e84d6551f12ee66453ab8da28b62294db630b89b1ba64eebf827706eec421adc925068d447540c469673db8f869ff9066ab89eabfc58443f82f4f5532548de3c77cdcb830709ae582aff7b7529b54ccca2bf757afe399ddf42988b0f63b1eccac7c88d368cf0dab6dba38fd2b62d63940e3e7dc9c66a5ecfb032b7df823e8058cc5abac49761e743cea0b7cbfce0d455eb9903e3932b22c2a133001cc88ec7b14706d376deaa995e11450f2dddbb60dc5a4027099a64773cdfa5a1dcb18cd6470b9635abd14ff5e2090be6f5f0914d7ce15a4db084bbef4a2201af14f461616ebe49cd5d0544c6edc4ad19a516b36599b3b3c4f972f4f5168f90dea22bf05e19639df85520ca3c771dcb251ccbea480a2ca710de51d5103f8dfcb53ea7e2f60bb25d9ebd26e7f9e6f91c2cbf4f756e9d21148036524fc3da4390cfbacd43489483de30c0772d989c2d599089cfaa2088f9e9f6a23b299a8ec2ac3457d33f69061"
      ],
      "sequence": 4294967294
    }
  ],
  "vout": [
    {
      "value": 499993.8986,
      "n": 0,
      "scriptPubKey": {
        "asm": "1 cbfbb7393d2fb248b8d7656459000e814c7b83fcbec98614dcd13ce401b779c8",
        "hex": "5120cbfbb7393d2fb248b8d7656459000e814c7b83fcbec98614dcd13ce401b779c8",
        "reqSigs": 1,
        "type": "witness_v1_scripthash",
        "addresses": [
          "3QJmnh"
        ]
      }
    },
    {
      "value": 1.0,
      "n": 1,
      "scriptPubKey": {
        "asm": "OP_RETURN ee38c50cbf26209cbe22820b6ac09ba80c265a4f03ca4f4d81a371d330b699ae f5a1f77f17c489d5d2e53473f777274b6200a507b492b7fa6666a3b49fb871b4d581d75f37e4a9f5f2c51453d757076b4220852794b297da46468394bf985194b5e1b73f5784c99592a57433b737670b2240e547f4d2f7ba2626e3f4dff831f495c1971f77a4e9b5b28554139717472b0260c567d4f2d79a0606c3d4ffd811d4752177ff974409555265b4f377f7a7cbe28025873412377ae6e623341f38f134550157dfb7642975724594d357d787ebc2a005a71432175ac6c603143f18d114356137bfd70449151225f4b337b7e78ba2c065c77452773aa6a663745f78b1741541179ff72469353205d4931797c7ab82e045e75472571a868643547f589154f5a1f77f17c489d5d2e53473f777274b6200a507b492b7fa6666a3b49fb871b4d581d75f37e4a9f5f2c51453d757076b4220852794b297da46468394bf985194b5e1b73f5784c99592a57433b737670b2240e547f4d2f7ba2626e3f4dff831f495c1971f77a4e9b5b28554139717472b0260c567d4f2d79a0606c3d4ffd811d4752177ff974409555265b4f377f7a7cbe28025873412377ae6e623341f38f134550157dfb7642975724594d357d787ebc2a005a71432175ac6c603143f18d114356137bfd70449151225f4b337b7e78ba2c065c77452773aa6a663745f78b1741541179ff72469353205d4931797c7ab82e045e75472571a868643547f589154f5a1f77f17c489d5d2e53473f777274b6200a507b492b7fa6666a3b49fb871b4d581d75f37e4a9f5f2c51453d757076b4220852794b297da46468394bf985194b5e1b73f5784c99592a57433b737670b2240e547f4d2f7ba2626e3f4dff831f495c1971f77a4e9b5b28554139717472b0260c567d4f2d79a0606c3d4ffd811d4752177ff974409555265b4f377f7a7cbe28025873412377ae6e623341f38f134550157dfb7642975724594d357d787ebc2a005a71432175ac6c603143f18d114356137bfd70449151225f4b337b7e78ba2c065c77452773aa6a663745f78b1741541179ff72469353205d4931797c7ab82e045e75472571a868643547f589154f5a1f77f17c489d5d2e53473f777274b6200a507b492b7fa6666a3b49fb871b4d581d75f37e4a9f5f2c51453d757076b4220852794b297da46468394bf985194b5e1b73f5784c99592a57433b737670b2240e547f4d2f7ba2626e3f4dff831f495c1971f77a4e9b5b28554139717472b0260c567d4f2d79a0606c3d4ffd811d4752177ff974409555265b4f377f7a7cbe28025873412377ae6e623341f38f134550157dfb7642975724594d357d787ebc2a005a71432175ac6c603143f18d114356137bfd70449151225f4b337b7e78ba2c065c77452773aa6a663745f78b1741541179ff72469353205d4931797c7ab82e045e75472571a868643547f589154f5a1f77f17c489d5d2e53473f777274b6200a507b492b7fa6666a3b49fb871b4d581d75f37e4a9f5f2c51453d757076b4220852794b297da46468394bf985194b5e1b73f5784c99592a57433b737670b2240e547f4d2f7ba2626e3f4dff831f495c1971f77a4e9b5b28554139717472b0260c567d4f2d79a0606c3d4ffd811d4752177ff974409555265b4f377f7a7cbdda9eda1916037a2d3defe11cec6889da7a345c0c85bee10247c3ee02e5ea4a3",
        "hex": "6a20ee38c50cbf26209cbe22820b6ac09ba80c265a4f03ca4f4d81a371d330b699ae4db004f5a1f77f17c489d5d2e53473f777274b6200a507b492b7fa6666a3b49fb871b4d581d75f37e4a9f5f2c51453d757076b4220852794b297da46468394bf985194b5e1b73f5784c99592a57433b737670b2240e547f4d2f7ba2626e3f4dff831f495c1971f77a4e9b5b28554139717472b0260c567d4f2d79a0606c3d4ffd811d4752177ff974409555265b4f377f7a7cbe28025873412377ae6e623341f38f134550157dfb7642975724594d357d787ebc2a005a71432175ac6c603143f18d114356137bfd70449151225f4b337b7e78ba2c065c77452773aa6a663745f78b1741541179ff72469353205d4931797c7ab82e045e75472571a868643547f589154f5a1f77f17c489d5d2e53473f777274b6200a507b492b7fa6666a3b49fb871b4d581d75f37e4a9f5f2c51453d757076b4220852794b297da46468394bf985194b5e1b73f5784c99592a57433b737670b2240e547f4d2f7ba2626e3f4dff831f495c1971f77a4e9b5b28554139717472b0260c567d4f2d79a0606c3d4ffd811d4752177ff974409555265b4f377f7a7cbe28025873412377ae6e623341f38f134550157dfb7642975724594d357d787ebc2a005a71432175ac6c603143f18d114356137bfd70449151225f4b337b7e78ba2c065c77452773aa6a663745f78b1741541179ff72469353205d4931797c7ab82e045e75472571a868643547f589154f5a1f77f17c489d5d2e53473f777274b6200a507b492b7fa6666a3b49fb871b4d581d75f37e4a9f5f2c51453d757076b4220852794b297da46468394bf985194b5e1b73f5784c99592a57433b737670b2240e547f4d2f7ba2626e3f4dff831f495c1971f77a4e9b5b28554139717472b0260c567d4f2d79a0606c3d4ffd811d4752177ff974409555265b4f377f7a7cbe28025873412377ae6e623341f38f134550157dfb7642975724594d357d787ebc2a005a71432175ac6c603143f18d114356137bfd70449151225f4b337b7e78ba2c065c77452773aa6a663745f78b1741541179ff72469353205d4931797c7ab82e045e75472571a868643547f589154f5a1f77f17c489d5d2e53473f777274b6200a507b492b7fa6666a3b49fb871b4d581d75f37e4a9f5f2c51453d757076b4220852794b297da46468394bf985194b5e1b73f5784c99592a57433b737670b2240e547f4d2f7ba2626e3f4dff831f495c1971f77a4e9b5b28554139717472b0260c567d4f2d79a0606c3d4ffd811d4752177ff974409555265b4f377f7a7cbe28025873412377ae6e623341f38f134550157dfb7642975724594d357d787ebc2a005a71432175ac6c603143f18d114356137bfd70449151225f4b337b7e78ba2c065c77452773aa6a663745f78b1741541179ff72469353205d4931797c7ab82e045e75472571a868643547f589154f5a1f77f17c489d5d2e53473f777274b6200a507b492b7fa6666a3b49fb871b4d581d75f37e4a9f5f2c51453d757076b4220852794b297da46468394bf985194b5e1b73f5784c99592a57433b737670b2240e547f4d2f7ba2626e3f4dff831f495c1971f77a4e9b5b28554139717472b0260c567d4f2d79a0606c3d4ffd811d4752177ff974409555265b4f377f7a7cbdda9eda1916037a2d3defe11cec6889da7a345c0c85bee10247c3ee02e5ea4a3",
        "type": "nulldata"
      }
    }
  ],
  "blockhash": "32a2d379a33ec88ae1cb3a8a1a44f2d12b76aebf574ecf7ac16b289397ed6cd9",
  "confirmations": 1,
  "time": 1764176557,
  "blocktime": 1764176557
}