{
  "hex": "010000000001016c6fe9cade044b803bd259f4e76ad9b65cc0e82e6f1e729095662986357f40d00100000000feffffff02c075fe6f792d0000225120bc53537d05c5115037bdacfea062da7bb5f278cbf721765ea37dca8548537ad300e1f50500000000fdd5046a205beaa314d8d3cc35a9ef16a9db7221f0294bbe6c422a97ebe0ed174378d745aa4db004b00ca5557e89c4d50d8d98abdbabcad59d6a6d9b72e96152390c2114dd3f8583902c85755ea9e4f52dadb88bfb8beaf5bd4a4dbb52c94172192c0134fd1fa5a3f04ce5153ec984954dcdd8eb9beb8a95dd2a2ddb32a92112794c61549d7fc5c3d06cc5351ee9a4b56dedf8cbbbcbaab5fd0a0dfb12890132596c4174bd5fe5e3308c25d5fe0944558d0d182b5b2b4a551deaed1bf269e1d2b98ca1945dbf050310ac05f5de296475ad2d380b7b0b6a753dcacd3bd249c1f299ac81b47d9f252370cc6595be490415cd4d586b1b6b0a155daaad5bb229a192f9cce1d41dff454350ec45b59e692435ed6d784b3b4b2a357d8a8d7b920981b2d9ecc1f43ddf6563b00ca5557e89c4d50d8d98abdbabcad59d6a6d9b72e96152390c2114dd3f8583902c85755ea9e4f52dadb88bfb8beaf5bd4a4dbb52c94172192c0134fd1fa5a3f04ce5153ec984954dcdd8eb9beb8a95dd2a2ddb32a92112794c61549d7fc5c3d06cc5351ee9a4b56dedf8cbbbcbaab5fd0a0dfb12890132596c4174bd5fe5e3308c25d5fe0944558d0d182b5b2b4a551deaed1bf269e1d2b98ca1945dbf050310ac05f5de296475ad2d380b7b0b6a753dcacd3bd249c1f299ac81b47d9f252370cc6595be490415cd4d586b1b6b0a155daaad5bb229a192f9cce1d41dff454350ec45b59e692435ed6d784b3b4b2a357d8a8d7b920981b2d9ecc1f43ddf6563b00ca5557e89c4d50d8d98abdbabcad59d6a6d9b72e96152390c2114dd3f8583902c85755ea9e4f52dadb88bfb8beaf5bd4a4dbb52c94172192c0134fd1fa5a3f04ce5153ec984954dcdd8eb9beb8a95dd2a2ddb32a92112794c61549d7fc5c3d06cc5351ee9a4b56dedf8cbbbcbaab5fd0a0dfb12890132596c4174bd5fe5e3308c25d5fe0944558d0d182b5b2b4a551deaed1bf269e1d2b98ca1945dbf050310ac05f5de296475ad2d380b7b0b6a753dcacd3bd249c1f299ac81b47d9f252370cc6595be490415cd4d586b1b6b0a155daaad5bb229a192f9cce1d41dff454350ec45b59e692435ed6d784b3b4b2a357d8a8d7b920981b2d9ecc1f43ddf6563b00ca5557e89c4d50d8d98abdbabcad59d6a6d9b72e96152390c2114dd3f8583902c85755ea9e4f52dadb88bfb8beaf5bd4a4dbb52c94172192c0134fd1fa5a3f04ce5153ec984954dcdd8eb9beb8a95dd2a2ddb32a92112794c61549d7fc5c3d06cc5351ee9a4b56dedf8cbbbcbaab5fd0a0dfb12890132596c4174bd5fe5e3308c25d5fe0944558d0d182b5b2b4a551deaed1bf269e1d2b98ca1945dbf050310ac05f5de296475ad2d380b7b0b6a753dcacd3bd249c1f299ac81b47d9f252370cc6595be490415cd4d586b1b6b0a155daaad5bb229a192f9cce1d41dff454350ec45b59e692435ed6d784b3b4b2a357d8a8d7b920981b2d9ecc1f43ddf6563b00ca5557e89c4d50d8d98abdbabcad59d6a6d9b72e96152390c2114dd3f8583902c85755ea9e4f52dadb88bfb8beaf5bd4a4dbb52c94172192c0134fd1fa5a3f04ce5153ec984954dcdd8eb9beb8a95dd2a2ddb32a92112794c61549d7fc5c3d06cc5351ee9a4b56dedf8cbbbcbaab5fd0a0dfb12890132596c4174bd5fe5e3308c25d5fe0944558d0d182b5b2b4a559dcf23f5d8e9427f3c7bec6782cbffdd22e8616565fe80eb592e0e5654bee6c302fd7509fda33eb223445cf8d70d1b842474b5cedd86c98a6bab947d05f6d7776dd65ba32e0aa4c95b5a0b6b9e3a269234f01f598955bda5cc5b67458a48dbd9c3f56aa96229920e2c5a4aedb0dea6954bf7fa9c809a0c854492e98f3c2024280b773045c7e41b2307cfa8b311263c4241b3d2c383aae5ae4216c5ee9e141db59b61e2a0c154813e8bdd20b14b2dd40d509626f118c971ff92c5fb941d7808baef4ba40fff69baba620f8e89a86d9d217953e7ffd30f478dbbb27ca4d92ad5ff2eb5d94f7a1ee16b6fe903403e9ef4cb30f1ea6a4d650f0782e558ebfbf0490d7a671cfb7252bbccb4aaac5c8cd440bc405513eb9187fe5bd3efc7ae5e6e711a9ae82a79ada10320fb52373ad4647eb23b3d10d1fc1503a5bbd13b9625f6ad1fd8451aafecf943118efac76e3aedc7bf490a5600bd48b3397b67f22a8187914f2fae9efb24da3f6fa91f43be3a71f77e423694256182dc49007ab20bb76eed929cdd4567417f1fefc33cc2335ca9b95939b8c869398c793a82bb826084243f03d6c7383a7f67410d74605a62d8339961b1be3a2be803d09f69d6b7459f74632506f78bf712b86348353624100261c9e6a70e8629596daeae1b17d5cfaa917cd75f7db59009db6ba84a7dabb9fd43560ff84c5b58115413855e9d8b9e8de7a747f9923de550a7ada82ba297240f6442dbb1b2720e741b2c612ad4dba46a6f5610741b37440202fe97160ce36b750cad0a9884f2fbf018ba27435a3dbe686af02ef7849e6e4e81fbc7f8831fc2f83f12639c65b7900a9549bde50902fc055df33f341480b424b102bd686924d03c459db39e8706e49897fd37ef5b26c377d84abd19eb5a508870d55038e08cdc232f0be4710a79f1d5988ade48f4704fd73ae663015fb9c55fd0c01f9b51a1a5cb5496b423fa9dbfa867e039d954a861a45ff7fec32937e9d9844be77109fc494a3c35d2c82835a4906c94a80a66a70701f4c10dd4d51db6d1e85082043bcd6a502bf2876edb31bcad76c61e56225165754840068be18b27fa606292d77ffaa88bc0693a94f1c104628888d6bbfd80f68ae65942883ea27c2ede211af2119e902f9da1e0b71a7b178a4dadd2773867323c028f77cadc2a20f2edb537a51774615eafc26c03ec6fd69cae3da175e6357a5fef4b7ac21124e653c6c87fd24c7ba8888b4e691c7e2af4b54d444cff1870f50f5eaa2b1d8ab3d459311868c80ab5b84cc0136b057a190631bab3983c468356e0065c5a96f5c9f3c5f8311af20e86c7e65cd454a48fbb2fde7dc594b28bdd71a57729deed10cb973a48d2b41b2e4e5390f7fa066f9aec8c042b5795b34073a8bd909e51ceaa835018e8778d4487a007d9781f9435d235e1dc4420e84cc8fc7aa114817069848a08c9fc0b71d28350806702723750e46b14b0b463751a7d2811817264b0377527f010139991d980b971e81428a1b3e6e0976e699d9fa07d2355649aa3961f8168a4033349795318f6edd5cc27bd1e4c8438f8a7f6edb19ddba381148b4a888992c264ce871c8f3d78105fa3f74fbcf3d69b8da18b6ba4302ba155fbe964d8e9ecc676669ad97098a0b66e63c5879546e867a5410deb05cc95a3f8939c9d8c0afc912eb00f711ddcd90ee3f2a54ce4ea26c9b0aefd2ac2e27e0516287be2e24503a321204ebb88bb73d204cd06814b74d4e2f2b5c51b6a31bff2ba4ae1b8419613786c400b3987b0f9203d26d7faa02c39326b5a25ea1fe3329d7f6023df8d0847ffe4ec21a62606f90ffb5b9279886b81831355fe0eedca2c3e74fead2ba4864038299ddc3e1bc4aeeae59913258a32fd0a7c574c409e4b831a567c04dd635a0f824685c2cb4672198c663d4b50f7f438b5178764a788d12cddfb1226122fc8c4d708e692c22515a33598227797e9bdb486886d5110366d8ba929b2708327cb42bc8387e575efe1008127983f9ddf9325f147ad690df2c3e8148d7e298d5eef4e90306302ddfe410ae2d324917539d6ce1c796dd819002e3efc72b9e5a2b056a031d2a58dc16a3c1d236a378a633872752cf6455b32c16e5d6f7ffdf355cc5c9d7080cdf590b4dfbcfc3128b1f497a78422f1859e5e0c24ca3f3f30d0d318bd2bad7374ccdea88f1c457a51e68711baab504ceda951ce5e46589c16adf107bdfa060cd47aa2ee5a83aab288589b3cf91ab53e0b75702889cc9a05663ae64ecfe5c483e8d78adae12eeed4a87e5a4e01139528f4e713cba3feb412bf6e8b0b03d85e875920f7588f81e98c8740327ab9ae0bc08ed77e49a2be245b36dbce84bd0da54df171fc679c66f40f72534bcb58d3c7fbf9d502595f446a9906d276bd6c250e05ac7e172caead24c208b68879d3943ae8f5604417e42eba45f6abfeb29d401f193bdf8806e6fae344e5714f49ef1ed2c8ab8593302ceff1380f1a75a86293f2ba672232d43bc85a73ec86ac31146ead382d86270ee39ea7ed72927daddf50f33dda6b69a65a79483ba51fc1a8b324677e2d31aa3d514addb99bed742d3bc4a502eefbfa0c8aab95a4445fc20b10cc7fe6c005d17ef03660018c9817731e8a67513b6842acfb3779fac84ffb31d5c6047c36e4943b22e450e1234ab1b0c4f261856388e227b2dbc920cc0583d6c57d0abd589d9e32e5f8aa28087c4c311d7ccc0f185fa264d94703be27ed855dad58d54d93cbb4d9b8170bb2ce64bf2bd071eaaee16e1c6a9a39e83c3066242ca31757d9e674d3c475bb3774fa955b56cb0db4381aae7d23bbd6d421a2fb258a767ff06faae1f07722c570163c811c4f1abffd80f72d7adfa13a5c7114c015836f73cfb6c666781139d329d9296d6b55d797d68cb6c47a5f6de8360e1016c59af2de871f3cfae29b5239521d8a2553e107dbad8e3ccbef3aab4802fe1b9e73add06a71b03b9650b8d15a5c650ab51b62620ae35d221302308699ca4541e3d645192d2cd8d1f2b99cd59b2bb8437cf52d57b306898508f9fa6ff6206ec8be8c1cfef9c9d45ae7697e40889dd55cca29c6855946f59a82fedc525e16aa65efb18c823e65360c3645b9b3f465a16e6684f06b5706429127907edb9b9188f71b42490b9be7a5beecad63370d30390d427f314b773205c2c88d4571410ca2d0f08b008b9bb3f8f0a7c8b76fd2050d3dfb4f596c2e9eb1da553d8d13e36defd0456c1773307ed646bc3cb79c9210bb33a40323385895d5d58f4225c75233bfded670e9174fa8e467d0024cdf03364e598b2ea27b774004f19831b2430c7da5188e07a3d109b35cf84b10adb08d180a150f31229334660b1e314d50616673899da2a8aaadc3c4d4f5f6f8041c24313e405763677c7f8d8fa1b0b2b3c1e9141e303539585b5f6669758085102b2c306e75797ba8c3c9d5dafc00000000000000000000000000001427344201fd210500e77462c240d4a326bf4b06213255e16b0756eecdf768ca34bb9baf3e6f33ccb15df9fb571e84b55094b6fd918a0ca31108249c3335ea0accc5b84b1aaf7e16c9958ce402e6ffaf9868cddb036e3eb77130504c3363eabeda26e915e07113055b0ecf36eb3eb5940c4ef5c212a7e868f6fef1cc8076ec776ca54342bc637bbb2d9244f7611ab7838895be6dea320e27433f6a1aec311d5ef928f0a9bc41384ff5c87151ed45f2368d8e81403f791fd11c5a05bdfd82e3f4b2d94f30f42e26464cc74f4ecbbbf94263d664cf4e00dfc56e552e89639a77ce55b7106857576ba7b4983c07f19c14a15d4a539aa51f93823c5ad5543a443247f43cfa17a0abf45ae7e0ebc0961ae8d73513329ea6dc4cd7360a12fad7f4dc9fc9da157cbbc827fd76a399999a2fe9274761784f5ae5abe28360b0144fc7965e7b8a56d7c12a2ca860b42a06c708aff27f85e3dc149ee075e3cb3dbcc4753d80b65574cb8a5db4c5860be94f2b86bfaff5535d0d60baa3855ec786d2785c5723635bcd358a9a6423f5a62df3c1cc66529a67f1376b93f11e6ff2c3cdd88c30a1b61047a9476202598e444737528f4681b50a3a9f60c144455eb5e9305273df96907d264b4b2661ef068382706896473592b6c11908cd1ce60fd851fbeb155f3592d8d388e03f016a472e735887787aec3ecf1ee8962b86e7256e3394742d5918a9f81ccda1339b416a740052cc102b0820eddeea87f5db50e3e2dd1a8aa87ed906ad1d3c6b03f04cffc725da9ac7534aee6ea947b869c8ea3541372c39006e0d1b71dc0ec23fb1ea474363176a66b7c860dd6319c54a476fe870cfc7b3b02d8b6825a8565af947ea70c4c75a2a11d05331027002359715c3e29e9a5a982806f0a6df3904fdd36b4feb9bf3cd8bf0c4cd752bb97c4e4be31665b8432875078d1f4d6c03be47173b0c9362b47c54ee518290d7f6df23bab1ddd22bb5f65c539bac8c8ec9c8d60cfffe6313a8042a82c2a7e0ca0ef1537e46da8b02d41655fee17558c71b81ba4e2f0032942942ad272192b5530a9076ee703b4127b5fdb5177c9682403ca75226b86886d2f57df3eeea0619b6aad0a6ddf3a075e28f54df95a5c87c83f3c4ac9a0cd83a9090ca41e8687c988d01f42f6fa21610d55d956833be0e2316f89128461cbebd3e457ef98e0d6cbe0ad86451a917c5d06023a354fd2454c61c6654ca0a7566e72041756f94b9700724221dfc4849ee9dcdceb992738955925048f304eba46a52fd10eb0a32a732a762b74f5578fa002905de8af4ac02843f9598afc8952a78d4a705bf7ed13cdcfa9a297e10b05441fd8b9849d6f21ba8d57c1f5e8561b899378d47bbfa965ed93546a91aff150df5d1b3287ba985580a7d7446cbe7e44eb34d84b3502bdebd4133fc932bb5bc66036e97af75fdcd4711ff7319dc2b4050a676c2932e4871255eff83cf0e8a260f43c8b742fab4bed549e91e7f73da84191f4aed8bb5c8497b25493c54a259850e2cf0d37cfd14a50d8471ed990912004c935ba1ed1fadccb43874fbdc2a2f5357624fdd9bad42ffd570563a7b39209891d1974ebfbc720eec13634f50dc28c5931dff01c1ceff712cbc8b6faa0e9933238ccf7094c7e4f0824c7a4572bfbc2b931ddeaae9d1747a053a96f86f118bac0e62b9470574ce0ce7429e6fb007a89f8405c8d2e9894b3ce5f462c4994f9453e6bc27bec1fd5f5a8e7ea9aea1476ef785d09825bb32c11a8312dbd859faef312e0caa626a480d5cdd2d6f709e071fbbfe71d6946b60878fe1427a9a2fbdac1217ba50d9686f165e146c7e069a7994218f21b65bd2ad31f606d273d4c83b42abe7589b42000000",
  "txid": "90a59c4a40a976a47484a10936213cc5eb38ff0a5b08c5c77da5639aef37b790",
  "hash": "364696cfef66efc62a0a2d4955f48f81c63b9d7eb3b857fea00b223dfcfb58f0",
  "size": 5085,
  "vsize": 2278,
  "version": 1,
  "locktime": 66,
  "vin": [
    {
      "txid": "d0407f358629669590721e6f2ee8c05cb6d96ae7f459d23b804b04decae96f6c",
      "vout": 1,
      "scriptSig": {
        "asm": "",
        "hex": ""
      },
      "txinwitness": [
        "fda33eb223445cf8d70d1b842474b5cedd86c98a6bab947d05f6d7776dd65ba32e0aa4c95b5a0b6b9e3a269234f01f598955bda5cc5b67458a48dbd9c3f56aa96229920e2c5a4aedb0dea6954bf7fa9c809a0c854492e98f3c2024280b773045c7e41b2307cfa8b311263c4241b3d2c383aae5ae4216c5ee9e141db59b61e2a0c154813e8bdd20b14b2dd40d509626f118c971ff92c5fb941d7808baef4ba40fff69baba620f8e89a86d9d217953e7ffd30f478dbbb27ca4d92ad5ff2eb5d94f7a1ee16b6fe903403e9ef4cb30f1ea6a4d650f0782e558ebfbf0490d7a671cfb7252bbccb4aaac5c8cd440bc405513eb9187fe5bd3efc7ae5e6e711a9ae82a79ada10320fb52373ad4647eb23b3d10d1fc1503a5bbd13b9625f6ad1fd8451aafecf943118efac76e3aedc7bf490a5600bd48b3397b67f22a8187914f2fae9efb24da3f6fa91f43be3a71f77e423694256182dc49007ab20bb76eed929cdd4567417f1fefc33cc2335ca9b95939b8c869398c793a82bb826084243f03d6c7383a7f67410d74605a62d8339961b1be3a2be803d09f69d6b7459f74632506f78bf712b86348353624100261c9e6a70e8629596daeae1b17d5cfaa917cd75f7db59009db6ba84a7dabb9fd43560ff84c5b58115413855e9d8b9e8de7a747f9923de550a7ada82ba297240f6442dbb1b2720e741b2c612ad4dba46a6f5610741b37440202fe97160ce36b750cad0a9884f2fbf018ba27435a3dbe686af02ef7849e6e4e81fbc7f8831fc2f83f12639c65b7900a9549bde50902fc055df33f341480b424b102bd686924d03c459db39e8706e49897fd37ef5b26c377d84abd19eb5a508870d55038e08cdc232f0be4710a79f1d5988ade48f4704fd73ae663015fb9c55fd0c01f9b51a1a5cb5496b423fa9dbfa867e039d954a861a45ff7fec32937e9d9844be77109fc494a3c35d2c82835a4906c94a80a66a70701f4c10dd4d51db6d1e85082043bcd6a502bf2876edb31bcad76c61e56225165754840068be18b27fa606292d77ffaa88bc0693a94f1c104628888d6bbfd80f68ae65942883ea27c2ede211af2119e902f9da1e0b71a7b178a4dadd2773867323c028f77cadc2a20f2edb537a51774615eafc26c03ec6fd69cae3da175e6357a5fef4b7ac21124e653c6c87fd24c7ba8888b4e691c7e2af4b54d444cff1870f50f5eaa2b1d8ab3d459311868c80ab5b84cc0136b057a190631bab3983c468356e0065c5a96f5c9f3c5f8311af20e86c7e65cd454a48fbb2fde7dc594b28bdd71a57729deed10cb973a48d2b41b2e4e5390f7fa066f9aec8c042b5795b34073a8bd909e51ceaa835018e8778d4487a007d9781f9435d235e1dc4420e84cc8fc7aa114817069848a08c9fc0b71d28350806702723750e46b14b0b463751a7d2811817264b0377527f010139991d980b971e81428a1b3e6e0976e699d9fa07d2355649aa3961f8168a4033349795318f6edd5cc27bd1e4c8438f8a7f6edb19ddba381148b4a888992c264ce871c8f3d78105fa3f74fbcf3d69b8da18b6ba4302ba155fbe964d8e9ecc676669ad97098a0b66e63c5879546e867a5410deb05cc95a3f8939c9d8c0afc912eb00f711ddcd90ee3f2a54ce4ea26c9b0aefd2ac2e27e0516287be2e24503a321204ebb88bb73d204cd06814b74d4e2f2b5c51b6a31bff2ba4ae1b8419613786c400b3987b0f9203d26d7faa02c39326b5a25ea1fe3329d7f6023df8d0847ffe4ec21a62606f90ffb5b9279886b81831355fe0eedca2c3e74fead2ba4864038299ddc3e1bc4aeeae59913258a32fd0a7c574c409e4b831a567c04dd635a0f824685c2cb4672198c663d4b50f7f438b5178764a788d12cddfb1226122fc8c4d708e692c22515a33598227797e9bdb486886d5110366d8ba929b2708327cb42bc8387e575efe1008127983f9ddf9325f147ad690df2c3e8148d7e298d5eef4e90306302ddfe410ae2d324917539d6ce1c796dd819002e3efc72b9e5a2b056a031d2a58dc16a3c1d236a378a633872752cf6455b32c16e5d6f7ffdf355cc5c9d7080cdf590b4dfbcfc3128b1f497a78422f1859e5e0c24ca3f3f30d0d318bd2bad7374ccdea88f1c457a51e68711baab504ceda951ce5e46589c16adf107bdfa060cd47aa2ee5a83aab288589b3cf91ab53e0b75702889cc9a05663ae64ecfe5c483e8d78adae12eeed4a87e5a4e01139528f4e713cba3feb412bf6e8b0b03d85e875920f7588f81e98c8740327ab9ae0bc08ed77e49a2be245b36dbce84bd0da54df171fc679c66f40f72534bcb58d3c7fbf9d502595f446a9906d276bd6c250e05ac7e172caead24c208b68879d3943ae8f5604417e42eba45f6abfeb29d401f193bdf8806e6fae344e5714f49ef1ed2c8ab8593302ceff1380f1a75a86293f2ba672232d43bc85a73ec86ac31146ead382d86270ee39ea7ed72927daddf50f33dda6b69a65a79483ba51fc1a8b324677e2d31aa3d514addb99bed742d3bc4a502eefbfa0c8aab95a4445fc20b10cc7fe6c005d17ef03660018c9817731e8a67513b6842acfb3779fac84ffb31d5c6047c36e4943b22e450e1234ab1b0c4f261856388e227b2dbc920cc0583d6c57d0abd589d9e32e5f8aa28087c4c311d7ccc0f185fa264d94703be27ed855dad58d54d93cbb4d9b8170bb2ce64bf2bd071eaaee16e1c6a9a39e83c3066242ca31757d9e674d3c475bb3774fa955b56cb0db4381aae7d23bbd6d421a2fb258a767ff06faae1f07722c570163c811c4f1abffd80f72d7adfa13a5c7114c015836f73cfb6c666781139d329d9296d6b55d797d68cb6c47a5f6de8360e1016c59af2de871f3cfae29b5239521d8a2553e107dbad8e3ccbef3aab4802fe1b9e73add06a71b03b9650b8d15a5c650ab51b62620ae35d221302308699ca4541e3d645192d2cd8d1f2b99cd59b2bb8437cf52d57b306898508f9fa6ff6206ec8be8c1cfef9c9d45ae7697e40889dd55cca29c6855946f59a82fedc525e16aa65efb18c823e65360c3645b9b3f465a16e6684f06b5706429127907edb9b9188f71b42490b9be7a5beecad63370d30390d427f314b773205c2c88d4571410ca2d0f08b008b9bb3f8f0a7c8b76fd2050d3dfb4f596c2e9eb1da553d8d13e36defd0456c1773307ed646bc3cb79c9210bb33a40323385895d5d58f4225c75233bfded670e9174fa8e467d0024cdf03364e598b2ea27b774004f19831b2430c7da5188e07a3d109b35cf84b10adb08d180a150f31229334660b1e314d50616673899da2a8aaadc3c4d4f5f6f8041c24313e405763677c7f8d8fa1b0b2b3c1e9141e303539585b5f6669758085102b2c306e75797ba8c3c9d5dafc00000000000000000000000000001427344201",
        "00e77462c240d4a326bf4b06213255e16b0756eecdf768ca34bb9baf3e6f33ccb15df9fb571e84b55094b6fd918a0ca31108249c3335ea0accc5b84b1aaf7e16c9958ce402e6ffaf9868cddb036e3eb77130504c3363eabeda26e915e07113055b0ecf36eb3eb5940c4ef5c212a7e868f6fef1cc8076ec776ca54342bc637bbb2d9244f7611ab7838895be6dea320e27433f6a1aec311d5ef928f0a9bc41384ff5c87151ed45f2368d8e81403f791fd11c5a05bdfd82e3f4b2d94f30f42e26464cc74f4ecbbbf94263d664cf4e00dfc56e552e89639a77ce55b7106857576ba7b4983c07f19c14a15d4a539aa51f93823c5ad5543a443247f43cfa17a0abf45ae7e0ebc0961ae8d73513329ea6dc4cd7360a12fad7f4dc9fc9da157cbbc827fd76a399999a2fe9274761784f5ae5abe28360b0144fc7965e7b8a56d7c12a2ca860b42a06c708aff27f85e3dc149ee075e3cb3dbcc4753d80b65574cb8a5db4c5860be94f2b86bfaff5535d0d60baa3855ec786d2785c5723635bcd358a9a6423f5a62df3c1cc66529a67f1376b93f11e6ff2c3cdd88c30a1b61047a9476202598e444737528f4681b50a3a9f60c144455eb5e9305273df96907d264b4b2661ef068382706896473592b6c11908cd1ce60fd851fbeb155f3592d8d388e03f016a472e735887787aec3ecf1ee8962b86e7256e3394742d5918a9f81ccda1339b416a740052cc102b0820eddeea87f5db50e3e2dd1a8aa87ed906ad1d3c6b03f04cffc725da9ac7534aee6ea947b869c8ea3541372c39006e0d1b71dc0ec23fb1ea474363176a66b7c860dd6319c54a476fe870cfc7b3b02d8b6825a8565af947ea70c4c75a2a11d05331027002359715c3e29e9a5a982806f0a6df3904fdd36b4feb9bf3cd8bf0c4cd752bb97c4e4be31665b8432875078d1f4d6c03be47173b0c9362b47c54ee518290d7f6df23bab1ddd22bb5f65c539bac8c8ec9c8d60cfffe6313a8042a82c2a7e0ca0ef1537e46da8b02d41655fee17558c71b81ba4e2f0032942942ad272192b5530a9076ee703b4127b5fdb5177c9682403ca75226b86886d2f57df3eeea0619b6aad0a6ddf3a075e28f54df95a5c87c83f3c4ac9a0cd83a9090ca41e8687c988d01f42f6fa21610d55d956833be0e2316f89128461cbebd3e457ef98e0d6cbe0ad86451a917c5d06023a354fd2454c61c6654ca0a7566e72041756f94b9700724221dfc4849ee9dcdceb992738955925048f304eba46a52fd10eb0a32a732a762b74f5578fa002905de8af4ac02843f9598afc8952a78d4a705bf7ed13cdcfa9a297e10b05441fd8b9849d6f21ba8d57c1f5e8561b899378d47bbfa965ed93546a91aff150df5d1b3287ba985580a7d7446cbe7e44eb34d84b3502bdebd4133fc932bb5bc66036e97af75fdcd4711ff7319dc2b4050a676c2932e4871255eff83cf0e8a260f43c8b742fab4bed549e91e7f73da84191f4aed8bb5c8497b25493c54a259850e2cf0d37cfd14a50d8471ed990912004c935ba1ed1fadccb43874fbdc2a2f5357624fdd9bad42ffd570563a7b39209891d1974ebfbc720eec13634f50dc28c5931dff01c1ceff712cbc8b6faa0e9933238ccf7094c7e4f0824c7a4572bfbc2b931ddeaae9d1747a053a96f86f118bac0e62b9470574ce0ce7429e6fb007a89f8405c8d2e9894b3ce5f462c4994f9453e6bc27bec1fd5f5a8e7ea9aea1476ef785d09825bb32c11a8312dbd859faef312e0caa626a480d5cdd2d6f709e071fbbfe71d6946b60878fe1427a9a2fbdac1217ba50d9686f165e146c7e069a7994218f21b65bd2ad31f606d273d4c83b42abe7589b"
      ],
      "sequence": 4294967294
    }
  ],
  "vout": [
    {
      "value": 499995.9324,
      "n": 0,
      "scriptPubKey": {
        "asm": "1 bc53537d05c5115037bdacfea062da7bb5f278cbf721765ea37dca8548537ad3",
        "hex": "5120bc53537d05c5115037bdacfea062da7bb5f278cbf721765ea37dca8548537ad3",
        "reqSigs": 1,
        "type": "witness_v1_scripthash",
        "addresses": [
          "3QJmnh"
        ]
      }
    },
    {
      "value": 1.0,
      "n": 1,
      "scriptPubKey": {
        "asm": "OP_RETURN 5beaa314d8d3cc35a9ef16a9db7221f0294bbe6c422a97ebe0ed174378d745aa b00ca5557e89c4d50d8d98abdbabcad59d6a6d9b72e96152390c2114dd3f8583902c85755ea9e4f52dadb88bfb8beaf5bd4a4dbb52c94172192c0134fd1fa5a3f04ce5153ec984954dcdd8eb9beb8a95dd2a2ddb32a92112794c61549d7fc5c3d06cc5351ee9a4b56dedf8cbbbcbaab5fd0a0dfb12890132596c4174bd5fe5e3308c25d5fe0944558d0d182b5b2b4a551deaed1bf269e1d2b98ca1945dbf050310ac05f5de296475ad2d380b7b0b6a753dcacd3bd249c1f299ac81b47d9f252370cc6595be490415cd4d586b1b6b0a155daaad5bb229a192f9cce1d41dff454350ec45b59e692435ed6d784b3b4b2a357d8a8d7b920981b2d9ecc1f43ddf6563b00ca5557e89c4d50d8d98abdbabcad59d6a6d9b72e96152390c2114dd3f8583902c85755ea9e4f52dadb88bfb8beaf5bd4a4dbb52c94172192c0134fd1fa5a3f04ce5153ec984954dcdd8eb9beb8a95dd2a2ddb32a92112794c61549d7fc5c3d06cc5351ee9a4b56dedf8cbbbcbaab5fd0a0dfb12890132596c4174bd5fe5e3308c25d5fe0944558d0d182b5b2b4a551deaed1bf269e1d2b98ca1945dbf050310ac05f5de296475ad2d380b7b0b6a753dcacd3bd249c1f299ac81b47d9f252370cc6595be490415cd4d586b1b6b0a155daaad5bb229a192f9cce1d41dff454350ec45b59e692435ed6d784b3b4b2a357d8a8d7b920981b2d9ecc1f43ddf6563b00ca5557e89c4d50d8d98abdbabcad59d6a6d9b72e96152390c2114dd3f8583902c85755ea9e4f52dadb88bfb8beaf5bd4a4dbb52c94172192c0134fd1fa5a3f04ce5153ec984954dcdd8eb9beb8a95dd2a2ddb32a92112794c61549d7fc5c3d06cc5351ee9a4b56dedf8cbbbcbaab5fd0a0dfb12890132596c4174bd5fe5e3308c25d5fe0944558d0d182b5b2b4a551deaed1bf269e1d2b98ca1945dbf050310ac05f5de296475ad2d380b7b0b6a753dcacd3bd249c1f299ac81b47d9f252370cc6595be490415cd4d586b1b6b0a155daaad5bb229a192f9cce1d41dff454350ec45b59e692435ed6d784b3b4b2a357d8a8d7b920981b2d9ecc1f43ddf6563b00ca5557e89c4d50d8d98abdbabcad59d6a6d9b72e96152390c2114dd3f8583902c85755ea9e4f52dadb88bfb8beaf5bd4a4dbb52c94172192c0134fd1fa5a3f04ce5153ec984954dcdd8eb9beb8a95dd2a2ddb32a92112794c61549d7fc5c3d06cc5351ee9a4b56dedf8cbbbcbaab5fd0a0dfb12890132596c4174bd5fe5e3308c25d5fe0944558d0d182b5b2b4a551deaed1bf269e1d2b98ca1945dbf050310ac05f5de296475ad2d380b7b0b6a753dcacd3bd249c1f299ac81b47d9f252370cc6595be490415cd4d586b1b6b0a155daaad5bb229a192f9cce1d41dff454350ec45b59e692435ed6d784b3b4b2a357d8a8d7b920981b2d9ecc1f43ddf6563b00ca5557e89c4d50d8d98abdbabcad59d6a6d9b72e96152390c2114dd3f8583902c85755ea9e4f52dadb88bfb8beaf5bd4a4dbb52c94172192c0134fd1fa5a3f04ce5153ec984954dcdd8eb9beb8a95dd2a2ddb32a92112794c61549d7fc5c3d06cc5351ee9a4b56dedf8cbbbcbaab5fd0a0dfb12890132596c4174bd5fe5e3308c25d5fe0944558d0d182b5b2b4a559dcf23f5d8e9427f3c7bec6782cbffdd22e8616565fe80eb592e0e5654bee6c3",
        "hex": "6a205beaa314d8d3cc35a9ef16a9db7221f0294bbe6c422a97ebe0ed174378d745aa4db004b00ca5557e89c4d50d8d98abdbabcad59d6a6d9b72e96152390c2114dd3f8583902c85755ea9e4f52dadb88bfb8beaf5bd4a4dbb52c94172192c0134fd1fa5a3f04ce5153ec984954dcdd8eb9beb8a95dd2a2ddb32a92112794c61549d7fc5c3d06cc5351ee9a4b56dedf8cbbbcbaab5fd0a0dfb12890132596c4174bd5fe5e3308c25d5fe0944558d0d182b5b2b4a551deaed1bf269e1d2b98ca1945dbf050310ac05f5de296475ad2d380b7b0b6a753dcacd3bd249c1f299ac81b47d9f252370cc6595be490415cd4d586b1b6b0a155daaad5bb229a192f9cce1d41dff454350ec45b59e692435ed6d784b3b4b2a357d8a8d7b920981b2d9ecc1f43ddf6563b00ca5557e89c4d50d8d98abdbabcad59d6a6d9b72e96152390c2114dd3f8583902c85755ea9e4f52dadb88bfb8beaf5bd4a4dbb52c94172192c0134fd1fa5a3f04ce5153ec984954dcdd8eb9beb8a95dd2a2ddb32a92112794c61549d7fc5c3d06cc5351ee9a4b56dedf8cbbbcbaab5fd0a0dfb12890132596c4174bd5fe5e3308c25d5fe0944558d0d182b5b2b4a551deaed1bf269e1d2b98ca1945dbf050310ac05f5de296475ad2d380b7b0b6a753dcacd3bd249c1f299ac81b47d9f252370cc6595be490415cd4d586b1b6b0a155daaad5bb229a192f9cce1d41dff454350ec45b59e692435ed6d784b3b4b2a357d8a8d7b920981b2d9ecc1f43ddf6563b00ca5557e89c4d50d8d98abdbabcad59d6a6d9b72e96152390c2114dd3f8583902c85755ea9e4f52dadb88bfb8beaf5bd4a4dbb52c94172192c0134fd1fa5a3f04ce5153ec984954dcdd8eb9beb8a95dd2a2ddb32a92112794c61549d7fc5c3d06cc5351ee9a4b56dedf8cbbbcbaab5fd0a0dfb12890132596c4174bd5fe5e3308c25d5fe0944558d0d182b5b2b4a551deaed1bf269e1d2b98ca1945dbf050310ac05f5de296475ad2d380b7b0b6a753dcacd3bd249c1f299ac81b47d9f252370cc6595be490415cd4d586b1b6b0a155daaad5bb229a192f9cce1d41dff454350ec45b59e692435ed6d784b3b4b2a357d8a8d7b920981b2d9ecc1f43ddf6563b00ca5557e89c4d50d8d98abdbabcad59d6a6d9b72e96152390c2114dd3f8583902c85755ea9e4f52dadb88bfb8beaf5bd4a4dbb52c94172192c0134fd1fa5a3f04ce5153ec984954dcdd8eb9beb8a95dd2a2ddb32a92112794c61549d7fc5c3d06cc5351ee9a4b56dedf8cbbbcbaab5fd0a0dfb12890132596c4174bd5fe5e3308c25d5fe0944558d0d182b5b2b4a551deaed1bf269e1d2b98ca1945dbf050310ac05f5de296475ad2d380b7b0b6a753dcacd3bd249c1f299ac81b47d9f252370cc6595be490415cd4d586b1b6b0a155daaad5bb229a192f9cce1d41dff454350ec45b59e692435ed6d784b3b4b2a357d8a8d7b920981b2d9ecc1f43ddf6563b00ca5557e89c4d50d8d98abdbabcad59d6a6d9b72e96152390c2114dd3f8583902c85755ea9e4f52dadb88bfb8beaf5bd4a4dbb52c94172192c0134fd1fa5a3f04ce5153ec984954dcdd8eb9beb8a95dd2a2ddb32a92112794c61549d7fc5c3d06cc5351ee9a4b56dedf8cbbbcbaab5fd0a0dfb12890132596c4174bd5fe5e3308c25d5fe0944558d0d182b5b2b4a559dcf23f5d8e9427f3c7bec6782cbffdd22e8616565fe80eb592e0e5654bee6c3",
        "type": "nulldata"
      }
    }
  ],
  "blockhash": "15af9b025c636b87e0a10c18a1a8de0e5f3c2069ad563b293161176d75df89a4",
  "confirmations": 1,
  "time": 1764174659,
  "blocktime": 1764174659
}