{
  "hex": "01000000000101ddfc0eebc696bcbeecc2e14eb62d3b190692fc0b9bf77650be0f0bf571ae08040100000000feffffff0200e1f50500000000fdd5046a20c8cb3ef8c6d74e7daa72a1959df77bbe7283b52017644681a0d96cc0f354dbf34db0043a102a0f74fa83634c8fa32ad94c61a1b9cf056a9ac01bcc83061dd20457829c1a300a2f54daa3436caf830af96c418199ef254abae03beca3263df22477a2bc7a506a4f34bac3230ccfe36a990c21e1f98f452ada805b8cc3465d924417c2dc5a704a6f149ae3032cefc34ab92c01c1d9af650afaa07bace3667db26437e2fcba90aa8ff47a03e3cc0f23aa59cce121394f85ea1a409b4c03869d5284d7021c9ab08aafd45a23c3ec2f038a79ecc101196fa5ca3a60bb6c23a6bd72a4f7223cfad0eacfb43a43a38c4f63ea198ca161790fc5aa5a00db0c43c6dd12c497425cdaf0caef941a6383ac6f43ca39ac8141592fe58a7a20fb2c63e6fd32e4b7627c3a102a0f74fa83634c8fa32ad94c61a1b9cf056a9ac01bcc83061dd20457829c1a300a2f54daa3436caf830af96c418199ef254abae03beca3263df22477a2bc7a506a4f34bac3230ccfe36a990c21e1f98f452ada805b8cc3465d924417c2dc5a704a6f149ae3032cefc34ab92c01c1d9af650afaa07bace3667db26437e2fcba90aa8ff47a03e3cc0f23aa59cce121394f85ea1a409b4c03869d5284d7021c9ab08aafd45a23c3ec2f038a79ecc101196fa5ca3a60bb6c23a6bd72a4f7223cfad0eacfb43a43a38c4f63ea198ca161790fc5aa5a00db0c43c6dd12c497425cdaf0caef941a6383ac6f43ca39ac8141592fe58a7a20fb2c63e6fd32e4b7627c3a102a0f74fa83634c8fa32ad94c61a1b9cf056a9ac01bcc83061dd20457829c1a300a2f54daa3436caf830af96c418199ef254abae03beca3263df22477a2bc7a506a4f34bac3230ccfe36a990c21e1f98f452ada805b8cc3465d924417c2dc5a704a6f149ae3032cefc34ab92c01c1d9af650afaa07bace3667db26437e2fcba90aa8ff47a03e3cc0f23aa59cce121394f85ea1a409b4c03869d5284d7021c9ab08aafd45a23c3ec2f038a79ecc101196fa5ca3a60bb6c23a6bd72a4f7223cfad0eacfb43a43a38c4f63ea198ca161790fc5aa5a00db0c43c6dd12c497425cdaf0caef941a6383ac6f43ca39ac8141592fe58a7a20fb2c63e6fd32e4b7627c3a102a0f74fa83634c8fa32ad94c61a1b9cf056a9ac01bcc83061dd20457829c1a300a2f54daa3436caf830af96c418199ef254abae03beca3263df22477a2bc7a506a4f34bac3230ccfe36a990c21e1f98f452ada805b8cc3465d924417c2dc5a704a6f149ae3032cefc34ab92c01c1d9af650afaa07bace3667db26437e2fcba90aa8ff47a03e3cc0f23aa59cce121394f85ea1a409b4c03869d5284d7021c9ab08aafd45a23c3ec2f038a79ecc101196fa5ca3a60bb6c23a6bd72a4f7223cfad0eacfb43a43a38c4f63ea198ca161790fc5aa5a00db0c43c6dd12c497425cdaf0caef941a6383ac6f43ca39ac8141592fe58a7a20fb2c63e6fd32e4b7627c3a102a0f74fa83634c8fa32ad94c61a1b9cf056a9ac01bcc83061dd20457829c1a300a2f54daa3436caf830af96c418199ef254abae03beca3263df22477a2bc7a506a4f34bac3230ccfe36a990c21e1f98f452ada805b8cc3465d924417c2dc5a704a6f149ae3032cefc34ab92c01c1d9af650afaa07bace3667db26437e2fcba90aa8ff47a03e3cc0f23aa59cce1217ceda0c26d08e7bbc0a32f09a225ae093808f734ec427aa598622ca415a7cdde10cdd4fc782d0000225120b29feda0c26bf9bd3cfcf41be083307b5c51e344b76f1a8a11b0612b57f01f1e02fd750990062c240f726787dbceb45f224192c36b8f1d26ee2131cff36cba805eba96db5a781319b63150d65f0737fdd00279b31a422fd4ecd4b173b3ace61ab77a97c04595564764aeef9a2d87d1e4f67fb9fdaa4fc44fe7d8dac0106e01fc8cd92aa352575c16f1485cd847a3ae4fc7721fdd58af9ba7382b7b5ae7ccdf0ed06184a1a6f68e5cf93a149a15b61212c3c84fd5ad22b506985fc752046ba3c9f6dc59042f37f9377da854721b3c973e28ea1e8baac5894ebcb05a19d4fc16616b66ea2958e00a45a4989acf49afd70fe0ee01bf68d8c7780e8526c209dfbdb19f6eaef4180f61d505873898b2a0d223ca39ca89b0a72f383399b67cc1c7f2faafd4af0acb3a7282b6a1bb986e8dfdd450f85015b82327231c8b49ceb02fd6ecf6405844b35f1c019242b17ad038d805da3c9992cad5dd3daeab7bf93213fc028893d1d46994a6393fc9cc999864f06e892e04f594c66ce8d8aaf0189b87bb21cf83e34992e52e39d265412f4237578caac9ec4aefe2833d680e66055f9edba9f6ac5ad6d31c0875b699d781b73469142c62f44647f6f85291064cdefd45ab2d3e0309a9e1af93bda3bd15e096a4667324e46fc1805b5e6e74334e90619f371311235cef3956632c9f0f74f5a8bea89b1a12424d169b532bc77be124a9012fa0f2ea864d7e96faa617214c6b565f5d2e2737579103b932dc9ef3e444d994e6f8e98d53c56e4a305085985bbe5aceeb9689e0842ce87dc37e954a7ef67b18e3494fd453162e8991de02d549242bd54d47930ddbc6826321764319c1473796b436299c662a2e86966052d82875a2496cd32db6cff62c576388236dda4ff34b6d89ac4c7d8207167f0e1412879abe97f2073164e9f4c650bb461cdb588389197318d812229e739d731c54314cf131765bb8ecd28a9b1e2d54e60761693646b7d4a44aed22765906f0adec982486a434dc6daef6172b539be82029de91da05a91cbb78094db70c8b41f3c269ec845b73324295a1e781b4e44abde3453053b44d3a94d7cabb23a885e525b5c1697a1a173fa89f2b5c20cce74f0d544f5ada5482018ce213493ef2ecadac0f1c6c088235f2066a9f4f4b0cdd8b8fcaec33975cb6fd25c758d5991080a2debceac78f6ae52b0f1b7c06930bfee5da307b2d93809192be3251ee06d8bfd10d04ec29b26c2cb49a7e79a59db2041e8f4bd5c0eb1b4804062b622538ac6c67ff94b940d290fd1b269842e8bf34685e981b977fa66dd9952484a3036b3915792d7605a23877633a9e53eae91c2589f3c0e73f1386af2537c8cba989f711582d776337ffbc22f5c55a7360c4f6fce5c2b2485e1b85da34ddc0aac44b6244e8e9e64795df822cf81a6585b3823fdabef662fd8520fc5ade45bfbeee12d6e48c8d24763b1d3861a651297807f172789bc3e9e393365958ad1e9061e1b88eb5a223b839e254e6966cc336c0d0ddeaf932cfb94c00a104d6c39d17f3e434a2878b3a90731a44293a455c47114a68ca58d78eb644f91474acd8103efd36def7e4a414e9dc4b23d9612306ddae130a4172e5f6ae2fdd09687366cc1c2db0970eed2e502714b6ec845d10381cd569980e3448c404327a9b84f0ab85fc7b8bf425d62bef282678929abf41f88654827a16cbb7dff4fc43e2164063aa265c9e6c696d4468aa26b5420c4b5a82c44e05b03a3cb0d19111dcf8e88e5fb94d115c1dc6670c2d43334066c1bafc63d9286c5ccef5cc4605f93071892304561ce45cf1a481c1bc60a6d3a1ef89225c7715dffc19cfe16f9a07202f0d0e0effa605beba11e59ec47123dc4dce7caf302f14281ebeab4b510457680bc7554221b80d6438629564af2f4825dd13458601f618ceb943e831cdf4925d942300614bda0faa09be3c0b7b0487e8322e8ac48af133a461b087eae910bfb76ad6cf05e82dc195f2b9a60db2f6febe4e98806fbd66859e8ccd05c253db8062c3f1740f0cb78f2659dd4f0d225b78d73a172b3b8771ab9a40775959cf496326036cbb9f2aacffd3a7251e922fae380718871d98c085ac4fd8baad9669bdb80dad4b270991c8e8afb197b83c11e1d5cc829a5a86029565ae814f5b67319bbc722745e2280d352b1656a52d3a40ecc164804a499859089747a395d020c0326ba18461632faa80997fc44082aa302e9296badf109622634597bd7f55ea1693b084e0d4770ab468aa56edafe85837112984e0bc74afe359f5891b68e46c1514d47fcf79acd521493e3ee822bb58e5f7022c9ebf000863df99de5964d274c974d9c1d9bc3fad08c8984215641832570814e581f3f5e6a370aef8b6c5bedab48b12c9bf52e5c0e980a0e5112bb638ea46b3ce5999c6b0e918f56ce6b972b3b930b9198e1e45de048166293646429df48960ebd38fea704e666414716c808495ca9483a300b7bcba84e2247eec9ea40c931f376d93afc09d2afd1fcd96d7d213541bc74a67432d8283688b5314d70687aec96ac2fc909ce981ccc9a11de77ef22d154d340b56dbd76dc663b669ff585b0e2e3e81f3d6566da4a55d062e5e6a0dc02c04b3a22cfc60de05b09b4eaf16e27bf9b8cd279f77c81960c30a726c201ae48cecd24a4ea872abcc710fe831f4c48c69a4389e498871aa07f64a65fcedb3b96017f90d1e9c408d8ae45c37bcde4cdaeb606421b2d8346422509bc9595b9125311828da1332e93273570fc6638b11b5595fee30ad1327452ed9a83c74cb7869737591cd80763389d143ce77096a510257919a7bbe48dcfac80bec231edefaf7477d4fa6838168b2c4907e54d68a16111f9a84fd171f9f2fbf0fea6378c6df1b983dc192c10620d5ca4b49d983b3db5caf3828abac030320d1cd02e625b0b2310a9e023bbd95c9930bbbebbf787cba1b8ef4dfac2284af6664e4c82891579df2ae9033107f4439a1aae31a42d1da636e41ea9ff4406d974952c1437b55a6c902893296003570aa1ec33e593aef5a71fad0a293960aeb61b631e890395a562d09df43ca5a25c810d0cf341fd05910931fffe92133b2a69ebaf3775696a47ba4e86f8b74301005a7e722ae816894742b303257ff33bb255c9e1aa0c2d7e3b194a549f51dc22ba4a1abf4f79cc7dd8df6fe36edac6bf4a33c06e8c1dc1d909b175e5a94ed3721c2e0d3e73feaf44e8d83b98fb28b27698fca5005d7eafc7e30fa67ff66e3ad21a3a4daa985e2dac2d84f13727a318f22b033f52b9b085e9d9d0540ba4bd8b62849e5bcaa55d1612335337d40e7ea9c010660f05d423f35476a8e32719cf41bbeec49b545ad4d500102090f1013373a3b626b727b87888ba5abbbfc05192f31484a6b828eb0b8c0e7e8e9ea0c1821355f626c717d90a8dae0e2e3e5f701171e2e52536b757b9193b0c8c9f50000000000000000000000001424354401fd210500acb6d35179c3fda3266aa9e3b8604096fbdf5261238cd4a632c8463c5d838408f39e23d11de021b64a9f8df031bf847f05398551deda85de6c4149244af7449fa41c87c1b4707e3a8e341c68fc5e29d6ec41a145ccac737d311ce4b006da1978d7a75afd6c8a7ebb02461929ee50e5fb003530c08286792e9e07ad157428109f99b3698c4f3991142ce29183ca52b28bafcf812d3747b1beffe28b85c3f37738de4350118910165535b96c292a3c8fe317b6b474a3c2d1fd04fcc7cd563b3c6ac7b54a5dff426ec218bafed32f5bbabf76c0c395e3d525d446ada8cc2eedc4f7532c70c93d0b2f182e2aba072c484b415d0520fcdad7d6f52727fa1633ce67a1d5f927c1a018df75859d1de387c2b48552480074759f18efa09de58b9204a4fa6f42f27faec88a9bfb9c1b85f2b5163280b50387e8be2e6587fb5c62a0817c760bb0b2caa96204c5e020b6e63c03dc106234980724b50bbaf996cfc369d628d35e12df74e757481bcf5cad2a04ba8248d2828cd94533f2c90ecd3ed9beb31162c63bfd0dca255e29f30fd3ff31e47f4eb312d751173470bc4a65752af25132c838c5f4c56bc46c2c84cf88178ebdf18e8bf563291661e535d6362e5674ea855f22a92eabba91b427c64863812731dfa5ba9ecb15c3cb2b4a4fe6e45a5951de51a697aee7fa21c50389ae9677cbbdf863d79f5a3984f84a1357c8b2d097555f76eb5f0b29e845a60dd64176172e4700cc498975b015b7b05bb1444828deb0dabf2fbced9fbac9133ac3c267a57f558b3bec9a83e99cbcbd188a11dbf3bbb3e5cbd46a4f2ff237b93b2d4c1ed484e364b931fcd9da860cd5dbcf619742187db4a61774c3cf0301ab6504ebf1729aca7af438778849ce1c6a91673df9c4e3fce257bd1fb36af5160f903d1b2bf808b1aa4871f60b9a6ded7740f959971294f41d76b65f22d05cbc9a9b6483470ad5b90987b361d72d21cd0525bcde0ebb7876cb8344699db0f0b74e36354c18c37cba2a6d961f19601366a5988264746912481896dbe47b7a358af4f9d43c6cc1edc660d1ad7cbabec600d601b54da652a9c88d9c939b425fe089bfce2b81aabd7143ecae34b3145dfca7bf5c84cb4e3c8ccdcb757dc04e3fe0764c5607936e0e5e8263465cbd5b5c42ecaaa176af37af23c8e09c0d4921258303216c9fce6996e3ce04cf2b86729de78d90ede10a972f49c8229239f3cb4ef7dd604e05fb10209a139da5efc1ed6cf472c436c5712dff8565cdc03622aaa2ff99e1798e38c29a2619d7a7025cc0b19cde5bd163117daff63fe98309e0aa5b59d4d84433e88b7f8a45094dc9341b862ae43262c30f88023e9f300260828bd454582454fffdd11b95dd3771d99b77dce04457fc3b347a2a9a91846de4c201da1b16f0fd54e0995f0d35eb6b22492ec8479a8b1fd4b342a2286f1128bac85d0af70488528987ac57f9cba7b1f925d01f3300dcdad960d2795dd6a4bd902f35919153f00751bc0bb5da5cb8e21b068877c7bd5b46fc47094c4fb4b95c6a38735e3db652b91f492365cc831a619b9c5462e59c3bcf896e434021e59ff90c0149a2ad061d2f4d091e8f02fa206616fae047588ad5af100e8e287d26fd6b244b9e4fcdf45ec75b0c02b381b9df23dc42d6fc59dd1f0be5d31fde320b0ef050357cf538a298442489def953a79d10fa0f879ccd8b43c3506b4a06dd7239985c2ae36333ed0b53c2c7992b12c1511d900ccca22add62c0bb8a087e01ed4de55458528c5533b5a88229b859af2044e0a7ef68e940bf7cb77b505fa4cbbe8b3a69ec8d52c8d25c77007c89d4d5a5222f76619299202b2e3a5326f7caab0e6d5976000000",
  "txid": "92dcdbea2023c5deb32ed65c925f6a40edf54725fbc8049a179ffa9d526b2fd1",
  "hash": "019d0f7ce51933f5928b637748281d2f199e56be3925b0946ac01c2edd43c7c0",
  "size": 5085,
  "vsize": 2278,
  "version": 1,
  "locktime": 118,
  "vin": [
    {
      "txid": "0408ae71f50b0fbe5076f79b0bfc9206193b2db64ee1c2ecbebc96c6eb0efcdd",
      "vout": 1,
      "scriptSig": {
        "asm": "",
        "hex": ""
      },
      "txinwitness": [
        "90062c240f726787dbceb45f224192c36b8f1d26ee2131cff36cba805eba96db5a781319b63150d65f0737fdd00279b31a422fd4ecd4b173b3ace61ab77a97c04595564764aeef9a2d87d1e4f67fb9fdaa4fc44fe7d8dac0106e01fc8cd92aa352575c16f1485cd847a3ae4fc7721fdd58af9ba7382b7b5ae7ccdf0ed06184a1a6f68e5cf93a149a15b61212c3c84fd5ad22b506985fc752046ba3c9f6dc59042f37f9377da854721b3c973e28ea1e8baac5894ebcb05a19d4fc16616b66ea2958e00a45a4989acf49afd70fe0ee01bf68d8c7780e8526c209dfbdb19f6eaef4180f61d505873898b2a0d223ca39ca89b0a72f383399b67cc1c7f2faafd4af0acb3a7282b6a1bb986e8dfdd450f85015b82327231c8b49ceb02fd6ecf6405844b35f1c019242b17ad038d805da3c9992cad5dd3daeab7bf93213fc028893d1d46994a6393fc9cc999864f06e892e04f594c66ce8d8aaf0189b87bb21cf83e34992e52e39d265412f4237578caac9ec4aefe2833d680e66055f9edba9f6ac5ad6d31c0875b699d781b73469142c62f44647f6f85291064cdefd45ab2d3e0309a9e1af93bda3bd15e096a4667324e46fc1805b5e6e74334e90619f371311235cef3956632c9f0f74f5a8bea89b1a12424d169b532bc77be124a9012fa0f2ea864d7e96faa617214c6b565f5d2e2737579103b932dc9ef3e444d994e6f8e98d53c56e4a305085985bbe5aceeb9689e0842ce87dc37e954a7ef67b18e3494fd453162e8991de02d549242bd54d47930ddbc6826321764319c1473796b436299c662a2e86966052d82875a2496cd32db6cff62c576388236dda4ff34b6d89ac4c7d8207167f0e1412879abe97f2073164e9f4c650bb461cdb588389197318d812229e739d731c54314cf131765bb8ecd28a9b1e2d54e60761693646b7d4a44aed22765906f0adec982486a434dc6daef6172b539be82029de91da05a91cbb78094db70c8b41f3c269ec845b73324295a1e781b4e44abde3453053b44d3a94d7cabb23a885e525b5c1697a1a173fa89f2b5c20cce74f0d544f5ada5482018ce213493ef2ecadac0f1c6c088235f2066a9f4f4b0cdd8b8fcaec33975cb6fd25c758d5991080a2debceac78f6ae52b0f1b7c06930bfee5da307b2d93809192be3251ee06d8bfd10d04ec29b26c2cb49a7e79a59db2041e8f4bd5c0eb1b4804062b622538ac6c67ff94b940d290fd1b269842e8bf34685e981b977fa66dd9952484a3036b3915792d7605a23877633a9e53eae91c2589f3c0e73f1386af2537c8cba989f711582d776337ffbc22f5c55a7360c4f6fce5c2b2485e1b85da34ddc0aac44b6244e8e9e64795df822cf81a6585b3823fdabef662fd8520fc5ade45bfbeee12d6e48c8d24763b1d3861a651297807f172789bc3e9e393365958ad1e9061e1b88eb5a223b839e254e6966cc336c0d0ddeaf932cfb94c00a104d6c39d17f3e434a2878b3a90731a44293a455c47114a68ca58d78eb644f91474acd8103efd36def7e4a414e9dc4b23d9612306ddae130a4172e5f6ae2fdd09687366cc1c2db0970eed2e502714b6ec845d10381cd569980e3448c404327a9b84f0ab85fc7b8bf425d62bef282678929abf41f88654827a16cbb7dff4fc43e2164063aa265c9e6c696d4468aa26b5420c4b5a82c44e05b03a3cb0d19111dcf8e88e5fb94d115c1dc6670c2d43334066c1bafc63d9286c5ccef5cc4605f93071892304561ce45cf1a481c1bc60a6d3a1ef89225c7715dffc19cfe16f9a07202f0d0e0effa605beba11e59ec47123dc4dce7caf302f14281ebeab4b510457680bc7554221b80d6438629564af2f4825dd13458601f618ceb943e831cdf4925d942300614bda0faa09be3c0b7b0487e8322e8ac48af133a461b087eae910bfb76ad6cf05e82dc195f2b9a60db2f6febe4e98806fbd66859e8ccd05c253db8062c3f1740f0cb78f2659dd4f0d225b78d73a172b3b8771ab9a40775959cf496326036cbb9f2aacffd3a7251e922fae380718871d98c085ac4fd8baad9669bdb80dad4b270991c8e8afb197b83c11e1d5cc829a5a86029565ae814f5b67319bbc722745e2280d352b1656a52d3a40ecc164804a499859089747a395d020c0326ba18461632faa80997fc44082aa302e9296badf109622634597bd7f55ea1693b084e0d4770ab468aa56edafe85837112984e0bc74afe359f5891b68e46c1514d47fcf79acd521493e3ee822bb58e5f7022c9ebf000863df99de5964d274c974d9c1d9bc3fad08c8984215641832570814e581f3f5e6a370aef8b6c5bedab48b12c9bf52e5c0e980a0e5112bb638ea46b3ce5999c6b0e918f56ce6b972b3b930b9198e1e45de048166293646429df48960ebd38fea704e666414716c808495ca9483a300b7bcba84e2247eec9ea40c931f376d93afc09d2afd1fcd96d7d213541bc74a67432d8283688b5314d70687aec96ac2fc909ce981ccc9a11de77ef22d154d340b56dbd76dc663b669ff585b0e2e3e81f3d6566da4a55d062e5e6a0dc02c04b3a22cfc60de05b09b4eaf16e27bf9b8cd279f77c81960c30a726c201ae48cecd24a4ea872abcc710fe831f4c48c69a4389e498871aa07f64a65fcedb3b96017f90d1e9c408d8ae45c37bcde4cdaeb606421b2d8346422509bc9595b9125311828da1332e93273570fc6638b11b5595fee30ad1327452ed9a83c74cb7869737591cd80763389d143ce77096a510257919a7bbe48dcfac80bec231edefaf7477d4fa6838168b2c4907e54d68a16111f9a84fd171f9f2fbf0fea6378c6df1b983dc192c10620d5ca4b49d983b3db5caf3828abac030320d1cd02e625b0b2310a9e023bbd95c9930bbbebbf787cba1b8ef4dfac2284af6664e4c82891579df2ae9033107f4439a1aae31a42d1da636e41ea9ff4406d974952c1437b55a6c902893296003570aa1ec33e593aef5a71fad0a293960aeb61b631e890395a562d09df43ca5a25c810d0cf341fd05910931fffe92133b2a69ebaf3775696a47ba4e86f8b74301005a7e722ae816894742b303257ff33bb255c9e1aa0c2d7e3b194a549f51dc22ba4a1abf4f79cc7dd8df6fe36edac6bf4a33c06e8c1dc1d909b175e5a94ed3721c2e0d3e73feaf44e8d83b98fb28b27698fca5005d7eafc7e30fa67ff66e3ad21a3a4daa985e2dac2d84f13727a318f22b033f52b9b085e9d9d0540ba4bd8b62849e5bcaa55d1612335337d40e7ea9c010660f05d423f35476a8e32719cf41bbeec49b545ad4d500102090f1013373a3b626b727b87888ba5abbbfc05192f31484a6b828eb0b8c0e7e8e9ea0c1821355f626c717d90a8dae0e2e3e5f701171e2e52536b757b9193b0c8c9f50000000000000000000000001424354401",
        "00acb6d35179c3fda3266aa9e3b8604096fbdf5261238cd4a632c8463c5d838408f39e23d11de021b64a9f8df031bf847f05398551deda85de6c4149244af7449fa41c87c1b4707e3a8e341c68fc5e29d6ec41a145ccac737d311ce4b006da1978d7a75afd6c8a7ebb02461929ee50e5fb003530c08286792e9e07ad157428109f99b3698c4f3991142ce29183ca52b28bafcf812d3747b1beffe28b85c3f37738de4350118910165535b96c292a3c8fe317b6b474a3c2d1fd04fcc7cd563b3c6ac7b54a5dff426ec218bafed32f5bbabf76c0c395e3d525d446ada8cc2eedc4f7532c70c93d0b2f182e2aba072c484b415d0520fcdad7d6f52727fa1633ce67a1d5f927c1a018df75859d1de387c2b48552480074759f18efa09de58b9204a4fa6f42f27faec88a9bfb9c1b85f2b5163280b50387e8be2e6587fb5c62a0817c760bb0b2caa96204c5e020b6e63c03dc106234980724b50bbaf996cfc369d628d35e12df74e757481bcf5cad2a04ba8248d2828cd94533f2c90ecd3ed9beb31162c63bfd0dca255e29f30fd3ff31e47f4eb312d751173470bc4a65752af25132c838c5f4c56bc46c2c84cf88178ebdf18e8bf563291661e535d6362e5674ea855f22a92eabba91b427c64863812731dfa5ba9ecb15c3cb2b4a4fe6e45a5951de51a697aee7fa21c50389ae9677cbbdf863d79f5a3984f84a1357c8b2d097555f76eb5f0b29e845a60dd64176172e4700cc498975b015b7b05bb1444828deb0dabf2fbced9fbac9133ac3c267a57f558b3bec9a83e99cbcbd188a11dbf3bbb3e5cbd46a4f2ff237b93b2d4c1ed484e364b931fcd9da860cd5dbcf619742187db4a61774c3cf0301ab6504ebf1729aca7af438778849ce1c6a91673df9c4e3fce257bd1fb36af5160f903d1b2bf808b1aa4871f60b9a6ded7740f959971294f41d76b65f22d05cbc9a9b6483470ad5b90987b361d72d21cd0525bcde0ebb7876cb8344699db0f0b74e36354c18c37cba2a6d961f19601366a5988264746912481896dbe47b7a358af4f9d43c6cc1edc660d1ad7cbabec600d601b54da652a9c88d9c939b425fe089bfce2b81aabd7143ecae34b3145dfca7bf5c84cb4e3c8ccdcb757dc04e3fe0764c5607936e0e5e8263465cbd5b5c42ecaaa176af37af23c8e09c0d4921258303216c9fce6996e3ce04cf2b86729de78d90ede10a972f49c8229239f3cb4ef7dd604e05fb10209a139da5efc1ed6cf472c436c5712dff8565cdc03622aaa2ff99e1798e38c29a2619d7a7025cc0b19cde5bd163117daff63fe98309e0aa5b59d4d84433e88b7f8a45094dc9341b862ae43262c30f88023e9f300260828bd454582454fffdd11b95dd3771d99b77dce04457fc3b347a2a9a91846de4c201da1b16f0fd54e0995f0d35eb6b22492ec8479a8b1fd4b342a2286f1128bac85d0af70488528987ac57f9cba7b1f925d01f3300dcdad960d2795dd6a4bd902f35919153f00751bc0bb5da5cb8e21b068877c7bd5b46fc47094c4fb4b95c6a38735e3db652b91f492365cc831a619b9c5462e59c3bcf896e434021e59ff90c0149a2ad061d2f4d091e8f02fa206616fae047588ad5af100e8e287d26fd6b244b9e4fcdf45ec75b0c02b381b9df23dc42d6fc59dd1f0be5d31fde320b0ef050357cf538a298442489def953a79d10fa0f879ccd8b43c3506b4a06dd7239985c2ae36333ed0b53c2c7992b12c1511d900ccca22add62c0bb8a087e01ed4de55458528c5533b5a88229b859af2044e0a7ef68e940bf7cb77b505fa4cbbe8b3a69ec8d52c8d25c77007c89d4d5a5222f76619299202b2e3a5326f7caab0e6d59"
      ],
      "sequence": 4294967294
    }
  ],
  "vout": [
    {
      "value": 1.0,
      "n": 0,
      "scriptPubKey": {
        "asm": "OP_RETURN c8cb3ef8c6d74e7daa72a1959df77bbe7283b52017644681a0d96cc0f354dbf3 3a102a0f74fa83634c8fa32ad94c61a1b9cf056a9ac01bcc83061dd20457829c1a300a2f54daa3436caf830af96c418199ef254abae03beca3263df22477a2bc7a506a4f34bac3230ccfe36a990c21e1f98f452ada805b8cc3465d924417c2dc5a704a6f149ae3032cefc34ab92c01c1d9af650afaa07bace3667db26437e2fcba90aa8ff47a03e3cc0f23aa59cce121394f85ea1a409b4c03869d5284d7021c9ab08aafd45a23c3ec2f038a79ecc101196fa5ca3a60bb6c23a6bd72a4f7223cfad0eacfb43a43a38c4f63ea198ca161790fc5aa5a00db0c43c6dd12c497425cdaf0caef941a6383ac6f43ca39ac8141592fe58a7a20fb2c63e6fd32e4b7627c3a102a0f74fa83634c8fa32ad94c61a1b9cf056a9ac01bcc83061dd20457829c1a300a2f54daa3436caf830af96c418199ef254abae03beca3263df22477a2bc7a506a4f34bac3230ccfe36a990c21e1f98f452ada805b8cc3465d924417c2dc5a704a6f149ae3032cefc34ab92c01c1d9af650afaa07bace3667db26437e2fcba90aa8ff47a03e3cc0f23aa59cce121394f85ea1a409b4c03869d5284d7021c9ab08aafd45a23c3ec2f038a79ecc101196fa5ca3a60bb6c23a6bd72a4f7223cfad0eacfb43a43a38c4f63ea198ca161790fc5aa5a00db0c43c6dd12c497425cdaf0caef941a6383ac6f43ca39ac8141592fe58a7a20fb2c63e6fd32e4b7627c3a102a0f74fa83634c8fa32ad94c61a1b9cf056a9ac01bcc83061dd20457829c1a300a2f54daa3436caf830af96c418199ef254abae03beca3263df22477a2bc7a506a4f34bac3230ccfe36a990c21e1f98f452ada805b8cc3465d924417c2dc5a704a6f149ae3032cefc34ab92c01c1d9af650afaa07bace3667db26437e2fcba90aa8ff47a03e3cc0f23aa59cce121394f85ea1a409b4c03869d5284d7021c9ab08aafd45a23c3ec2f038a79ecc101196fa5ca3a60bb6c23a6bd72a4f7223cfad0eacfb43a43a38c4f63ea198ca161790fc5aa5a00db0c43c6dd12c497425cdaf0caef941a6383ac6f43ca39ac8141592fe58a7a20fb2c63e6fd32e4b7627c3a102a0f74fa83634c8fa32ad94c61a1b9cf056a9ac01bcc83061dd20457829c1a300a2f54daa3436caf830af96c418199ef254abae03beca3263df22477a2bc7a506a4f34bac3230ccfe36a990c21e1f98f452ada805b8cc3465d924417c2dc5a704a6f149ae3032cefc34ab92c01c1d9af650afaa07bace3667db26437e2fcba90aa8ff47a03e3cc0f23aa59cce121394f85ea1a409b4c03869d5284d7021c9ab08aafd45a23c3ec2f038a79ecc101196fa5ca3a60bb6c23a6bd72a4f7223cfad0eacfb43a43a38c4f63ea198ca161790fc5aa5a00db0c43c6dd12c497425cdaf0caef941a6383ac6f43ca39ac8141592fe58a7a20fb2c63e6fd32e4b7627c3a102a0f74fa83634c8fa32ad94c61a1b9cf056a9ac01bcc83061dd20457829c1a300a2f54daa3436caf830af96c418199ef254abae03beca3263df22477a2bc7a506a4f34bac3230ccfe36a990c21e1f98f452ada805b8cc3465d924417c2dc5a704a6f149ae3032cefc34ab92c01c1d9af650afaa07bace3667db26437e2fcba90aa8ff47a03e3cc0f23aa59cce1217ceda0c26d08e7bbc0a32f09a225ae093808f734ec427aa598622ca415a7cdde",
        "hex": "6a20c8cb3ef8c6d74e7daa72a1959df77bbe7283b52017644681a0d96cc0f354dbf34db0043a102a0f74fa83634c8fa32ad94c61a1b9cf056a9ac01bcc83061dd20457829c1a300a2f54daa3436caf830af96c418199ef254abae03beca3263df22477a2bc7a506a4f34bac3230ccfe36a990c21e1f98f452ada805b8cc3465d924417c2dc5a704a6f149ae3032cefc34ab92c01c1d9af650afaa07bace3667db26437e2fcba90aa8ff47a03e3cc0f23aa59cce121394f85ea1a409b4c03869d5284d7021c9ab08aafd45a23c3ec2f038a79ecc101196fa5ca3a60bb6c23a6bd72a4f7223cfad0eacfb43a43a38c4f63ea198ca161790fc5aa5a00db0c43c6dd12c497425cdaf0caef941a6383ac6f43ca39ac8141592fe58a7a20fb2c63e6fd32e4b7627c3a102a0f74fa83634c8fa32ad94c61a1b9cf056a9ac01bcc83061dd20457829c1a300a2f54daa3436caf830af96c418199ef254abae03beca3263df22477a2bc7a506a4f34bac3230ccfe36a990c21e1f98f452ada805b8cc3465d924417c2dc5a704a6f149ae3032cefc34ab92c01c1d9af650afaa07bace3667db26437e2fcba90aa8ff47a03e3cc0f23aa59cce121394f85ea1a409b4c03869d5284d7021c9ab08aafd45a23c3ec2f038a79ecc101196fa5ca3a60bb6c23a6bd72a4f7223cfad0eacfb43a43a38c4f63ea198ca161790fc5aa5a00db0c43c6dd12c497425cdaf0caef941a6383ac6f43ca39ac8141592fe58a7a20fb2c63e6fd32e4b7627c3a102a0f74fa83634c8fa32ad94c61a1b9cf056a9ac01bcc83061dd20457829c1a300a2f54daa3436caf830af96c418199ef254abae03beca3263df22477a2bc7a506a4f34bac3230ccfe36a990c21e1f98f452ada805b8cc3465d924417c2dc5a704a6f149ae3032cefc34ab92c01c1d9af650afaa07bace3667db26437e2fcba90aa8ff47a03e3cc0f23aa59cce121394f85ea1a409b4c03869d5284d7021c9ab08aafd45a23c3ec2f038a79ecc101196fa5ca3a60bb6c23a6bd72a4f7223cfad0eacfb43a43a38c4f63ea198ca161790fc5aa5a00db0c43c6dd12c497425cdaf0caef941a6383ac6f43ca39ac8141592fe58a7a20fb2c63e6fd32e4b7627c3a102a0f74fa83634c8fa32ad94c61a1b9cf056a9ac01bcc83061dd20457829c1a300a2f54daa3436caf830af96c418199ef254abae03beca3263df22477a2bc7a506a4f34bac3230ccfe36a990c21e1f98f452ada805b8cc3465d924417c2dc5a704a6f149ae3032cefc34ab92c01c1d9af650afaa07bace3667db26437e2fcba90aa8ff47a03e3cc0f23aa59cce121394f85ea1a409b4c03869d5284d7021c9ab08aafd45a23c3ec2f038a79ecc101196fa5ca3a60bb6c23a6bd72a4f7223cfad0eacfb43a43a38c4f63ea198ca161790fc5aa5a00db0c43c6dd12c497425cdaf0caef941a6383ac6f43ca39ac8141592fe58a7a20fb2c63e6fd32e4b7627c3a102a0f74fa83634c8fa32ad94c61a1b9cf056a9ac01bcc83061dd20457829c1a300a2f54daa3436caf830af96c418199ef254abae03beca3263df22477a2bc7a506a4f34bac3230ccfe36a990c21e1f98f452ada805b8cc3465d924417c2dc5a704a6f149ae3032cefc34ab92c01c1d9af650afaa07bace3667db26437e2fcba90aa8ff47a03e3cc0f23aa59cce1217ceda0c26d08e7bbc0a32f09a225ae093808f734ec427aa598622ca415a7cdde",
        "type": "nulldata"
      }
    },
    {
      "value": 499976.6113,
      "n": 1,
      "scriptPubKey": {
        "asm": "1 b29feda0c26bf9bd3cfcf41be083307b5c51e344b76f1a8a11b0612b57f01f1e",
        "hex": "5120b29feda0c26bf9bd3cfcf41be083307b5c51e344b76f1a8a11b0612b57f01f1e",
        "reqSigs": 1,
        "type": "witness_v1_scripthash",
        "addresses": [
          "3QJmnh"
        ]
      }
    }
  ],
  "blockhash": "c592ff09702ccc153ea7e0356b0e5a10b37ebf9436b5bd4870b29e5d1c636d36",
  "confirmations": 1,
  "time": 1764179615,
  "blocktime": 1764179615
}