{
  "hex": "01000000000101ca95595947bf510593fcfc73bc53e814eddc9737d66d8a92fde2858f1909206a0100000000feffffff0200e1f50500000000fdd5046a20a666b1ac1dd6a85177a64676bd19d7dfff8b8b3e2f0220b1eb76702b538b3aa34db004f9f0c7fdcc0de935328bb78e6040315e271b3cd274b53c5a369c2cc950780f7ed9d0e7ddec2dc91512ab97ae4060117e073b1cf254951c7a16bc0ce970582f5eb9b087bd8c4da97572cbf7ce2000711e675b7c9234f57c1a76dc6c8910384f3e9990a79dac6d895552ebd7ee0020513e477b5cb214d55c3a56fc4ca930186f1e7970477d4c8d69b5b20b370ee0c0b1dea79bbc52f435bcdab61cac49d0f88ffe5950675d6cad4995922b172ec0e091fe87bb9c72d4159cfa963c8c69f0d8afde3930073d0ccd29f5f24b774ea080f19ee7dbfc12b475fc9af65cec0990b8cfbe1910271d2ced09d5d26b576e80a0d1bec7fbdc329455dcbad67ccc29b098ef9ef9f0c7fdcc0de935328bb78e6040315e271b3cd274b53c5a369c2cc950780f7ed9d0e7ddec2dc91512ab97ae4060117e073b1cf254951c7a16bc0ce970582f5eb9b087bd8c4da97572cbf7ce2000711e675b7c9234f57c1a76dc6c8910384f3e9990a79dac6d895552ebd7ee0020513e477b5cb214d55c3a56fc4ca930186f1e7970477d4c8d69b5b20b370ee0c0b1dea79bbc52f435bcdab61cac49d0f88ffe5950675d6cad4995922b172ec0e091fe87bb9c72d4159cfa963c8c69f0d8afde3930073d0ccd29f5f24b774ea080f19ee7dbfc12b475fc9af65cec0990b8cfbe1910271d2ced09d5d26b576e80a0d1bec7fbdc329455dcbad67ccc29b098ef9ef9f0c7fdcc0de935328bb78e6040315e271b3cd274b53c5a369c2cc950780f7ed9d0e7ddec2dc91512ab97ae4060117e073b1cf254951c7a16bc0ce970582f5eb9b087bd8c4da97572cbf7ce2000711e675b7c9234f57c1a76dc6c8910384f3e9990a79dac6d895552ebd7ee0020513e477b5cb214d55c3a56fc4ca930186f1e7970477d4c8d69b5b20b370ee0c0b1dea79bbc52f435bcdab61cac49d0f88ffe5950675d6cad4995922b172ec0e091fe87bb9c72d4159cfa963c8c69f0d8afde3930073d0ccd29f5f24b774ea080f19ee7dbfc12b475fc9af65cec0990b8cfbe1910271d2ced09d5d26b576e80a0d1bec7fbdc329455dcbad67ccc29b098ef9ef9f0c7fdcc0de935328bb78e6040315e271b3cd274b53c5a369c2cc950780f7ed9d0e7ddec2dc91512ab97ae4060117e073b1cf254951c7a16bc0ce970582f5eb9b087bd8c4da97572cbf7ce2000711e675b7c9234f57c1a76dc6c8910384f3e9990a79dac6d895552ebd7ee0020513e477b5cb214d55c3a56fc4ca930186f1e7970477d4c8d69b5b20b370ee0c0b1dea79bbc52f435bcdab61cac49d0f88ffe5950675d6cad4995922b172ec0e091fe87bb9c72d4159cfa963c8c69f0d8afde3930073d0ccd29f5f24b774ea080f19ee7dbfc12b475fc9af65cec0990b8cfbe1910271d2ced09d5d26b576e80a0d1bec7fbdc329455dcbad67ccc29b098ef9ef9f0c7fdcc0de935328bb78e6040315e271b3cd274b53c5a369c2cc950780f7ed9d0e7ddec2dc91512ab97ae4060117e073b1cf254951c7a16bc0ce970582f5eb9b087bd8c4da97572cbf7ce2000711e675b7c9234f57c1a76dc6c8910384f3e9990a79dac6d895552ebd7ee0020513e477b5cb214d55c3a56fc4ca930186f1e7970477d4c8d69b5b20b370ee0c0b1de9dac55e73232d40bd1d946e9b4b4adce4fd4ff1844ba3eb97849ed8fdd5eabd08022c5f6782d00002251209783ffd2cac11de12b12f19cd1e370090c08c452b8c4bc3686348ea1a5bcceab02fd7509784ad1ad655faf4d21a73a9134c0c680cefedfba62a60ab6a481e557cf4927e503c6516c3bdfe259eafadc3881e4c2dde6f782c035e1e420b2e3f8930b1edeefa2e98f16adbacfa83375865d889b84df77ef29a2a340a06486560cdaf65fd590b83b542497152901c784dbe3d774cc3f72e1d2fcd0f384ad08c8482bd7717dfe8faa30f6ff51ce0f66d65314f60241137f4f6be7895581effe5e39c519fb6ba427a017b8ad9de32d54096a6a27957d0a15b6e3f179c158fd7feecd9548e0def8b67f9fbdd0d0a79a1797576c0b8362d32753e5b0ba28422f0a7beed84bb96d9572c2f0562e83e1de3b382bf917b884893ff25179b383ca42f8b6fa21ca8a87286cf974541d0e5e5d902cfac1cbd99502ba600a5927d618c5f1a33d458a6ab489876515205235f45529052b3ae8898463d59076cee23e35af7671461256ab6668725a5e4d7edc11a5edf188816e47d92e38fca706eca6006cc0f8752774d7c604387efadd8b45db14d71ef167ab99e83851e128ab2a1da9da298c61acf26f1530172501f1807b96fe3259cad8a722973edfc84a9f65be43558f8e389fb6f3693380e6ffa3063ac64b36ba9348afc2fec9ab3a6531ef16a92daa214a9e95245d1540bb55a053225d35bbab5a2fd46be330cebf9f2666d84c141a76d0beee4db6ff4bcc916b67bf8ce82ae614760c16841036d43550ea97e90c2bcda2d5e2c726b1a8c8ec71de25066619192e9c73c1b4867a1c6e739ce0ebc2ee1986cf9d3fdfb65deaac4cea743ecb544292ed730160b9f9261aef402ce06f24af0f8714cc7f5e3393a34e982077cbaa7897f4e43aa2b748143519a9ccf8d35069f0d0fa12e29327e2fc8c42091144f51f37bb70aa1117288ae67d5263efc0e8d0d13b845ef54352a62684544fc64d673d0a9972e9869b8db828def7ae575e144238a417576f6659e0eaae70d404f1d66ab3c142edcd45c02c510fe444b727bd6b40df153858e9dd0d562dd297cb5ee1a11fb39f3eabc14e5309349ae1197e54ffa015f43e9e04f088c1802d488886801dfacf1f614d891632bc0abe981a1648b68b7704dceba2690af902369534851d621cfafa4ff592422d62c66e0bfb7ea8c31dceb0d4d13386f37b0b4d2a6282d1bc67da904782f045054a698606728338666c0e7ab05f56b23a4aeb41b9138c5faa01bdaef11b62de043505b8fd01cf8b21ec3e9f29e54eca4e2d0089ba73f8eb9afec92ea7139533061cf859f3201bec4889706b4cc9fe8aa516c6e38720180dfea3f9d898c8e88358c944385269f2e60b19db6418aa393a5262333f487420d0082d518e70396aaeb58e466ee7ef2287552e22ff98e8f5bec524836d5c79efd3438b1638d3add835a9f475d08424ca4a29ab680097b7611779e315c09fa2b51dd08d1fd31c744887e87e4158825ec9a91796f9885cd39ef1a91c619056e363d9720b90a25b3695e6f85aff1ab730d559f1e8d5ac5dce4f4694c9664f10f03f4f52fddfdc2edeb64d37f04206ab5eb06eca5d55f76d32cd4cca86f9c6ea9f0ca711025939eb21c6e2d9649b44b6d30f7fece6e4aba89a3ab86482179a11083c8563543a08c8ec2dbefddcb7da1a86905ea5599298c831da5d5d0127904ac985a36bf0e41784b35063a3a501d959029c3f13c919b2c88e6a9f54cff7a4d6c279f61f061951b6b91bede1bcac7ced0762bc8ed2ef7cac8188f5ea6a4cd6408cf70b24827d142cb5951398edf6fbc570fb92c8cd35e3691e17dde9f34b8a8ead267a7a67eca887284ce24279dc495993271a1ea73efe58d49648edc83b62107c3d5ab66c03e88c791fb6f0e4f27b95a8e390b41e37d41787a80ad1f23a7ece9a8fbdb2cc1df5d650d4ae3b8dbc0c241157aa4180b961ed1a8d6d97e24ff9184a3b1842abbb103c0ceb83ff8cc1b9e8012b64d08ed971ad76898355b2feca0eb73b4b137795ad042f8c6fb6cccbf8ed425f3e1276805fb3a7750e77277685ef21349f2541985fc378645b1541b5d12116674893af9c123c8a59b0dc9b461a0f6ba4924f8c73d126ff299e35dcb2ec91ffcddd619bfb0cb68507a21bcd7498757548fe5304ee68c537313f322487ead681c1e5d394a349ef1c02bdfe9bc6b250e154e4ba1abc6d863d82572eb42d6644012d5900becd0a9b368009cfd3c37804eaaf015779337187596b191859868d21b8b53a433306f33affec0c56ba493827cacab92d05442b6ebef1aaf373b8a47e4a1caf0682cce64e5726ef91b66a1339186c8274eb7d2a2ab45c3c73e3a29837930fba121b04869798dcdac64dc656f26e2b0c052831bb07b0d961bdcb3aae4c3d8f3ea96f63d2387cbc05f9d1a2008470b941102a57b6ef74b9b29cea374d8dbb5f114fd138d79d4f0682de9303c08880fa5d4d59ee0dc206923be2b189f2b0dfd26132f970e992500240120775b33052bb926a03513b64ba512135dd1ef43d933e03e9a5dc631231e0a6b75c5d6baa3a4ac635292caae1bf42dba13cc2bb8b2fdba6d440f79e0c2cc09cb0c0444e5ac6448fa0900c1d56cbf36a334ea0311b4fd3510386d8a015246d7b06fbd375552c9392ba2879d1bd365fa64dc6999e4f99aa3fe792bd171f2c4657991fd274306329d5d662a883f719107a0401337544e6ec6c42063df96a2e7318e9816c52d39b335fe3018ad2d69ee745d120ad63a7922d73242a0c4238eaaf7b1fa21145765bcd337ea72749bffe8424184d299a1379f7455d1544071cf12c4f10de1738d94c70e77ff79995a7855991115843607ffdee4615687db16d724a264dd0281f783a5e62d3b548642325d3f85189b0277419b045f765660ecc404c41ef045452818dc2cff00990fe359f9bbb69550afafe18a89b9f4131a540ebd4c57cafd069b7b24e05b8bb85ca0db0bbab3a62ca3cf5725bae84c249cd23d992682a035ea1f8de8e7fc16f57820f27730ccfd4c72c9fff0c473a1e23cdf1622255697f2851b06a9b8f2e55fac652620c27350486e76544dc9049866fff5ca779beea91c8d1db5670e5e1170f6988b88d8e59bf5a05654a9ff860c8dcdbb44426148c7abd8c16be63a8ef50b6d71f7d1a485c537eea8f5cbd9efe69004e8e6a8928afcd9d1bdd0772cffd14effa83e9c093170415e733f23fa6427c32ec6fd5ad24ba9be5de9f92fb46459c27145632327cf82c249985591940cd684ee43efc9aab2590a397c639dad59cefb02ea2cc3146203dd398116d50edbfbfb8687def189aa9b2237de7c3a31724b15cb3b50f3f23a152f8fc9673123a26ac2cf005f24b111832383b3d424a4d51535f6a90acb0c2cce2f0fe080b1c3c455f6b91a4b1c5cbdbeefc1b35474a77b1b2c3d0deebfe013a5c66728085888d8ea7b5ccd9dceefc0000000000000000000000000000001524304101fd2105007c7c5505754131c92d66045891d56956681f51a7df295b108605688c242b30f5dc623ba09ff8cb4a98236927948a5c213df0e6578cab631025ae7e9a77b41c3bcdcbebe5a90e9af861a96e92e891a0b33d6e4a2d3c37ca8aedb1bbb4d585158c55b7ccf5769dda17ea0fe730ce06b9942e53aadf393c1a96490db1878b8fc7e15683625edb463f2d65fe5cc28456bbe944d3cb46b201f568ea6ade7452e08b8f091a5289cc2b31af2fd2d7d96c2d9157c751e7feba5bf61eff1c85c71729eaa987610cb0fba42fe9472ee3acc139c3fa35baa3b3d85013c9cb5340caf657bf8b8cf645bfc1cdff4872097c49d3d80b7a0aae7522e4fc8a1a7b436199a175d58001166e03f6d73b148142df3b01b658b92f913ee7d248865930d39e62b03ec25f7dcb0489f953cc21b8bf335971edf2ce87b8cfa8c59cc3e836a36871f04eef88fe43bc958d8ec5285f827284ead81a87602f1b3c2d0796f57a6b9837dc5b7767fdd1d3d8c57671dab5ebbc5debaee83df9d58fe615650a88815fdb3e21ca693459b6e7a618d53236d0a1f2d5f64c302d93e03fc26328436dcd6c08c3fbe63e5327a0e81cc1aaf977405eaaed5aa2bafd06c5a0452d4a241ee9cad24c4d3be62b1abf2611fb695d278831a3364029efd63c86dbfd88c945ef7426a87913dd1fd3b6edddad1c1ea46aa5836e6c262f8665a7a61dfd819cae12e14959e355e5c6ca48f4b2ca1604fbd004b75771813a302381cdeb90b46d438a6c090338c793ab1244207811c73933a1975eb63024dbefed7f9c8d10adc07c31698dd814efadc2be2ecc401b2ab91372b7ebdb05b05d51a12fe90b4b813fdddb6c69962f238289e61677722ee0e17a2a43c7acb59b93013149a0c64afb279d2ef6b4e6ff5cc81e018dc09c0945124550f9f254872f9015722cd99c512d9c9f47329ba9380ea35edbb0aeb2ddafc3f5e0f0c8b9fdaeaff7ed56ddc0bc543ad350be3fe67146447d2cbe4736361af85accdd6aedb9ff434849e080f032a164243467fa6108efc64a8c9786cad61817510590fdb6eedf239bb7e169eeefcd4b3007c14afbc41101cf7f4518fb700a852f050c9e6f27fe07a95282b59d88dc628a7a19ab2e22146352a560ff873a2592d7b39a1d1d59a2cab7f61e684c2a6ef559d3b9c42bc6e6bd16ca668b32945c8d42c75450db6944e8fc1d22cbc3c6d84b0c8eed093a2c4cc44f85fecfa628c5cedac57b02426e19d182eb7bfba0de3d509d3b705e2e7ae4abe1de76fe64ea62fbe4b9597329a1712867c963de389b89016c6dfa6951c22efb9e9b0bdc994b10f7994d66817b6eb146d2a7c2fe8513b63f752544f46fc7b3d925683251b6c5e7f714b01a085cc5d8bfb4fc1b2c8eb7590f8897e0995907c39b87a28e747149ebf265c3ea5e654804ace45fa5e0c58c630930be77850f5a8a7a3d7649dc0d83a0aad5dbed1d6283300e9ea857d9cee70ea6821759f4d5f6b59bb33b5afd6da2f2d0da9e5bd9257d0109624de6bd579016dd65491f3fc711096a648c203b76d305704d4c477b009e13da919bb2ac53a9a8dec91ccdb6100ea422913e3d433adf4e3dd26bf880a883bde08a7e3d85950eb53306c048aa88153809d502f7d623f7a2caa2bdd38c52194cbd3a9c1ac85630be448198ea82605832acf0afb3a2d19d10c8c565f5e79a5d5869897d5cb72655e83f10142a10f11fc1a8587eab76df14b86ec5fa6f931c3b02e7b5c440865d7d0d3f149e64730c71ede437734a6bf94c00194fccf436274ab283290a8b25217abdbf6d15ef52b5ff1648d883a7eec3c59137c958b8c004de9f454b5b70d964f8398615474917a2a4a0c75f9d7a000000",
  "txid": "93543b233e5a8988ca2a817396f5030d717e8fe9374cc8c21f18e0914d8a8061",
  "hash": "a63d9f45b1ae139b6892382f20cad901c6a6afc75a16d647a62410f538d38f72",
  "size": 5085,
  "vsize": 2278,
  "version": 1,
  "locktime": 122,
  "vin": [
    {
      "txid": "6a2009198f85e2fd928a6dd63797dced14e853bc73fcfc930551bf47595995ca",
      "vout": 1,
      "scriptSig": {
        "asm": "",
        "hex": ""
      },
      "txinwitness": [
        "784ad1ad655faf4d21a73a9134c0c680cefedfba62a60ab6a481e557cf4927e503c6516c3bdfe259eafadc3881e4c2dde6f782c035e1e420b2e3f8930b1edeefa2e98f16adbacfa83375865d889b84df77ef29a2a340a06486560cdaf65fd590b83b542497152901c784dbe3d774cc3f72e1d2fcd0f384ad08c8482bd7717dfe8faa30f6ff51ce0f66d65314f60241137f4f6be7895581effe5e39c519fb6ba427a017b8ad9de32d54096a6a27957d0a15b6e3f179c158fd7feecd9548e0def8b67f9fbdd0d0a79a1797576c0b8362d32753e5b0ba28422f0a7beed84bb96d9572c2f0562e83e1de3b382bf917b884893ff25179b383ca42f8b6fa21ca8a87286cf974541d0e5e5d902cfac1cbd99502ba600a5927d618c5f1a33d458a6ab489876515205235f45529052b3ae8898463d59076cee23e35af7671461256ab6668725a5e4d7edc11a5edf188816e47d92e38fca706eca6006cc0f8752774d7c604387efadd8b45db14d71ef167ab99e83851e128ab2a1da9da298c61acf26f1530172501f1807b96fe3259cad8a722973edfc84a9f65be43558f8e389fb6f3693380e6ffa3063ac64b36ba9348afc2fec9ab3a6531ef16a92daa214a9e95245d1540bb55a053225d35bbab5a2fd46be330cebf9f2666d84c141a76d0beee4db6ff4bcc916b67bf8ce82ae614760c16841036d43550ea97e90c2bcda2d5e2c726b1a8c8ec71de25066619192e9c73c1b4867a1c6e739ce0ebc2ee1986cf9d3fdfb65deaac4cea743ecb544292ed730160b9f9261aef402ce06f24af0f8714cc7f5e3393a34e982077cbaa7897f4e43aa2b748143519a9ccf8d35069f0d0fa12e29327e2fc8c42091144f51f37bb70aa1117288ae67d5263efc0e8d0d13b845ef54352a62684544fc64d673d0a9972e9869b8db828def7ae575e144238a417576f6659e0eaae70d404f1d66ab3c142edcd45c02c510fe444b727bd6b40df153858e9dd0d562dd297cb5ee1a11fb39f3eabc14e5309349ae1197e54ffa015f43e9e04f088c1802d488886801dfacf1f614d891632bc0abe981a1648b68b7704dceba2690af902369534851d621cfafa4ff592422d62c66e0bfb7ea8c31dceb0d4d13386f37b0b4d2a6282d1bc67da904782f045054a698606728338666c0e7ab05f56b23a4aeb41b9138c5faa01bdaef11b62de043505b8fd01cf8b21ec3e9f29e54eca4e2d0089ba73f8eb9afec92ea7139533061cf859f3201bec4889706b4cc9fe8aa516c6e38720180dfea3f9d898c8e88358c944385269f2e60b19db6418aa393a5262333f487420d0082d518e70396aaeb58e466ee7ef2287552e22ff98e8f5bec524836d5c79efd3438b1638d3add835a9f475d08424ca4a29ab680097b7611779e315c09fa2b51dd08d1fd31c744887e87e4158825ec9a91796f9885cd39ef1a91c619056e363d9720b90a25b3695e6f85aff1ab730d559f1e8d5ac5dce4f4694c9664f10f03f4f52fddfdc2edeb64d37f04206ab5eb06eca5d55f76d32cd4cca86f9c6ea9f0ca711025939eb21c6e2d9649b44b6d30f7fece6e4aba89a3ab86482179a11083c8563543a08c8ec2dbefddcb7da1a86905ea5599298c831da5d5d0127904ac985a36bf0e41784b35063a3a501d959029c3f13c919b2c88e6a9f54cff7a4d6c279f61f061951b6b91bede1bcac7ced0762bc8ed2ef7cac8188f5ea6a4cd6408cf70b24827d142cb5951398edf6fbc570fb92c8cd35e3691e17dde9f34b8a8ead267a7a67eca887284ce24279dc495993271a1ea73efe58d49648edc83b62107c3d5ab66c03e88c791fb6f0e4f27b95a8e390b41e37d41787a80ad1f23a7ece9a8fbdb2cc1df5d650d4ae3b8dbc0c241157aa4180b961ed1a8d6d97e24ff9184a3b1842abbb103c0ceb83ff8cc1b9e8012b64d08ed971ad76898355b2feca0eb73b4b137795ad042f8c6fb6cccbf8ed425f3e1276805fb3a7750e77277685ef21349f2541985fc378645b1541b5d12116674893af9c123c8a59b0dc9b461a0f6ba4924f8c73d126ff299e35dcb2ec91ffcddd619bfb0cb68507a21bcd7498757548fe5304ee68c537313f322487ead681c1e5d394a349ef1c02bdfe9bc6b250e154e4ba1abc6d863d82572eb42d6644012d5900becd0a9b368009cfd3c37804eaaf015779337187596b191859868d21b8b53a433306f33affec0c56ba493827cacab92d05442b6ebef1aaf373b8a47e4a1caf0682cce64e5726ef91b66a1339186c8274eb7d2a2ab45c3c73e3a29837930fba121b04869798dcdac64dc656f26e2b0c052831bb07b0d961bdcb3aae4c3d8f3ea96f63d2387cbc05f9d1a2008470b941102a57b6ef74b9b29cea374d8dbb5f114fd138d79d4f0682de9303c08880fa5d4d59ee0dc206923be2b189f2b0dfd26132f970e992500240120775b33052bb926a03513b64ba512135dd1ef43d933e03e9a5dc631231e0a6b75c5d6baa3a4ac635292caae1bf42dba13cc2bb8b2fdba6d440f79e0c2cc09cb0c0444e5ac6448fa0900c1d56cbf36a334ea0311b4fd3510386d8a015246d7b06fbd375552c9392ba2879d1bd365fa64dc6999e4f99aa3fe792bd171f2c4657991fd274306329d5d662a883f719107a0401337544e6ec6c42063df96a2e7318e9816c52d39b335fe3018ad2d69ee745d120ad63a7922d73242a0c4238eaaf7b1fa21145765bcd337ea72749bffe8424184d299a1379f7455d1544071cf12c4f10de1738d94c70e77ff79995a7855991115843607ffdee4615687db16d724a264dd0281f783a5e62d3b548642325d3f85189b0277419b045f765660ecc404c41ef045452818dc2cff00990fe359f9bbb69550afafe18a89b9f4131a540ebd4c57cafd069b7b24e05b8bb85ca0db0bbab3a62ca3cf5725bae84c249cd23d992682a035ea1f8de8e7fc16f57820f27730ccfd4c72c9fff0c473a1e23cdf1622255697f2851b06a9b8f2e55fac652620c27350486e76544dc9049866fff5ca779beea91c8d1db5670e5e1170f6988b88d8e59bf5a05654a9ff860c8dcdbb44426148c7abd8c16be63a8ef50b6d71f7d1a485c537eea8f5cbd9efe69004e8e6a8928afcd9d1bdd0772cffd14effa83e9c093170415e733f23fa6427c32ec6fd5ad24ba9be5de9f92fb46459c27145632327cf82c249985591940cd684ee43efc9aab2590a397c639dad59cefb02ea2cc3146203dd398116d50edbfbfb8687def189aa9b2237de7c3a31724b15cb3b50f3f23a152f8fc9673123a26ac2cf005f24b111832383b3d424a4d51535f6a90acb0c2cce2f0fe080b1c3c455f6b91a4b1c5cbdbeefc1b35474a77b1b2c3d0deebfe013a5c66728085888d8ea7b5ccd9dceefc0000000000000000000000000000001524304101",
        "007c7c5505754131c92d66045891d56956681f51a7df295b108605688c242b30f5dc623ba09ff8cb4a98236927948a5c213df0e6578cab631025ae7e9a77b41c3bcdcbebe5a90e9af861a96e92e891a0b33d6e4a2d3c37ca8aedb1bbb4d585158c55b7ccf5769dda17ea0fe730ce06b9942e53aadf393c1a96490db1878b8fc7e15683625edb463f2d65fe5cc28456bbe944d3cb46b201f568ea6ade7452e08b8f091a5289cc2b31af2fd2d7d96c2d9157c751e7feba5bf61eff1c85c71729eaa987610cb0fba42fe9472ee3acc139c3fa35baa3b3d85013c9cb5340caf657bf8b8cf645bfc1cdff4872097c49d3d80b7a0aae7522e4fc8a1a7b436199a175d58001166e03f6d73b148142df3b01b658b92f913ee7d248865930d39e62b03ec25f7dcb0489f953cc21b8bf335971edf2ce87b8cfa8c59cc3e836a36871f04eef88fe43bc958d8ec5285f827284ead81a87602f1b3c2d0796f57a6b9837dc5b7767fdd1d3d8c57671dab5ebbc5debaee83df9d58fe615650a88815fdb3e21ca693459b6e7a618d53236d0a1f2d5f64c302d93e03fc26328436dcd6c08c3fbe63e5327a0e81cc1aaf977405eaaed5aa2bafd06c5a0452d4a241ee9cad24c4d3be62b1abf2611fb695d278831a3364029efd63c86dbfd88c945ef7426a87913dd1fd3b6edddad1c1ea46aa5836e6c262f8665a7a61dfd819cae12e14959e355e5c6ca48f4b2ca1604fbd004b75771813a302381cdeb90b46d438a6c090338c793ab1244207811c73933a1975eb63024dbefed7f9c8d10adc07c31698dd814efadc2be2ecc401b2ab91372b7ebdb05b05d51a12fe90b4b813fdddb6c69962f238289e61677722ee0e17a2a43c7acb59b93013149a0c64afb279d2ef6b4e6ff5cc81e018dc09c0945124550f9f254872f9015722cd99c512d9c9f47329ba9380ea35edbb0aeb2ddafc3f5e0f0c8b9fdaeaff7ed56ddc0bc543ad350be3fe67146447d2cbe4736361af85accdd6aedb9ff434849e080f032a164243467fa6108efc64a8c9786cad61817510590fdb6eedf239bb7e169eeefcd4b3007c14afbc41101cf7f4518fb700a852f050c9e6f27fe07a95282b59d88dc628a7a19ab2e22146352a560ff873a2592d7b39a1d1d59a2cab7f61e684c2a6ef559d3b9c42bc6e6bd16ca668b32945c8d42c75450db6944e8fc1d22cbc3c6d84b0c8eed093a2c4cc44f85fecfa628c5cedac57b02426e19d182eb7bfba0de3d509d3b705e2e7ae4abe1de76fe64ea62fbe4b9597329a1712867c963de389b89016c6dfa6951c22efb9e9b0bdc994b10f7994d66817b6eb146d2a7c2fe8513b63f752544f46fc7b3d925683251b6c5e7f714b01a085cc5d8bfb4fc1b2c8eb7590f8897e0995907c39b87a28e747149ebf265c3ea5e654804ace45fa5e0c58c630930be77850f5a8a7a3d7649dc0d83a0aad5dbed1d6283300e9ea857d9cee70ea6821759f4d5f6b59bb33b5afd6da2f2d0da9e5bd9257d0109624de6bd579016dd65491f3fc711096a648c203b76d305704d4c477b009e13da919bb2ac53a9a8dec91ccdb6100ea422913e3d433adf4e3dd26bf880a883bde08a7e3d85950eb53306c048aa88153809d502f7d623f7a2caa2bdd38c52194cbd3a9c1ac85630be448198ea82605832acf0afb3a2d19d10c8c565f5e79a5d5869897d5cb72655e83f10142a10f11fc1a8587eab76df14b86ec5fa6f931c3b02e7b5c440865d7d0d3f149e64730c71ede437734a6bf94c00194fccf436274ab283290a8b25217abdbf6d15ef52b5ff1648d883a7eec3c59137c958b8c004de9f454b5b70d964f8398615474917a2a4a0c75f9d"
      ],
      "sequence": 4294967294
    }
  ],
  "vout": [
    {
      "value": 1.0,
      "n": 0,
      "scriptPubKey": {
        "asm": "OP_RETURN a666b1ac1dd6a85177a64676bd19d7dfff8b8b3e2f0220b1eb76702b538b3aa3 f9f0c7fdcc0de935328bb78e6040315e271b3cd274b53c5a369c2cc950780f7ed9d0e7ddec2dc91512ab97ae4060117e073b1cf254951c7a16bc0ce970582f5eb9b087bd8c4da97572cbf7ce2000711e675b7c9234f57c1a76dc6c8910384f3e9990a79dac6d895552ebd7ee0020513e477b5cb214d55c3a56fc4ca930186f1e7970477d4c8d69b5b20b370ee0c0b1dea79bbc52f435bcdab61cac49d0f88ffe5950675d6cad4995922b172ec0e091fe87bb9c72d4159cfa963c8c69f0d8afde3930073d0ccd29f5f24b774ea080f19ee7dbfc12b475fc9af65cec0990b8cfbe1910271d2ced09d5d26b576e80a0d1bec7fbdc329455dcbad67ccc29b098ef9ef9f0c7fdcc0de935328bb78e6040315e271b3cd274b53c5a369c2cc950780f7ed9d0e7ddec2dc91512ab97ae4060117e073b1cf254951c7a16bc0ce970582f5eb9b087bd8c4da97572cbf7ce2000711e675b7c9234f57c1a76dc6c8910384f3e9990a79dac6d895552ebd7ee0020513e477b5cb214d55c3a56fc4ca930186f1e7970477d4c8d69b5b20b370ee0c0b1dea79bbc52f435bcdab61cac49d0f88ffe5950675d6cad4995922b172ec0e091fe87bb9c72d4159cfa963c8c69f0d8afde3930073d0ccd29f5f24b774ea080f19ee7dbfc12b475fc9af65cec0990b8cfbe1910271d2ced09d5d26b576e80a0d1bec7fbdc329455dcbad67ccc29b098ef9ef9f0c7fdcc0de935328bb78e6040315e271b3cd274b53c5a369c2cc950780f7ed9d0e7ddec2dc91512ab97ae4060117e073b1cf254951c7a16bc0ce970582f5eb9b087bd8c4da97572cbf7ce2000711e675b7c9234f57c1a76dc6c8910384f3e9990a79dac6d895552ebd7ee0020513e477b5cb214d55c3a56fc4ca930186f1e7970477d4c8d69b5b20b370ee0c0b1dea79bbc52f435bcdab61cac49d0f88ffe5950675d6cad4995922b172ec0e091fe87bb9c72d4159cfa963c8c69f0d8afde3930073d0ccd29f5f24b774ea080f19ee7dbfc12b475fc9af65cec0990b8cfbe1910271d2ced09d5d26b576e80a0d1bec7fbdc329455dcbad67ccc29b098ef9ef9f0c7fdcc0de935328bb78e6040315e271b3cd274b53c5a369c2cc950780f7ed9d0e7ddec2dc91512ab97ae4060117e073b1cf254951c7a16bc0ce970582f5eb9b087bd8c4da97572cbf7ce2000711e675b7c9234f57c1a76dc6c8910384f3e9990a79dac6d895552ebd7ee0020513e477b5cb214d55c3a56fc4ca930186f1e7970477d4c8d69b5b20b370ee0c0b1dea79bbc52f435bcdab61cac49d0f88ffe5950675d6cad4995922b172ec0e091fe87bb9c72d4159cfa963c8c69f0d8afde3930073d0ccd29f5f24b774ea080f19ee7dbfc12b475fc9af65cec0990b8cfbe1910271d2ced09d5d26b576e80a0d1bec7fbdc329455dcbad67ccc29b098ef9ef9f0c7fdcc0de935328bb78e6040315e271b3cd274b53c5a369c2cc950780f7ed9d0e7ddec2dc91512ab97ae4060117e073b1cf254951c7a16bc0ce970582f5eb9b087bd8c4da97572cbf7ce2000711e675b7c9234f57c1a76dc6c8910384f3e9990a79dac6d895552ebd7ee0020513e477b5cb214d55c3a56fc4ca930186f1e7970477d4c8d69b5b20b370ee0c0b1de9dac55e73232d40bd1d946e9b4b4adce4fd4ff1844ba3eb97849ed8fdd5eabd0",
        "hex": "6a20a666b1ac1dd6a85177a64676bd19d7dfff8b8b3e2f0220b1eb76702b538b3aa34db004f9f0c7fdcc0de935328bb78e6040315e271b3cd274b53c5a369c2cc950780f7ed9d0e7ddec2dc91512ab97ae4060117e073b1cf254951c7a16bc0ce970582f5eb9b087bd8c4da97572cbf7ce2000711e675b7c9234f57c1a76dc6c8910384f3e9990a79dac6d895552ebd7ee0020513e477b5cb214d55c3a56fc4ca930186f1e7970477d4c8d69b5b20b370ee0c0b1dea79bbc52f435bcdab61cac49d0f88ffe5950675d6cad4995922b172ec0e091fe87bb9c72d4159cfa963c8c69f0d8afde3930073d0ccd29f5f24b774ea080f19ee7dbfc12b475fc9af65cec0990b8cfbe1910271d2ced09d5d26b576e80a0d1bec7fbdc329455dcbad67ccc29b098ef9ef9f0c7fdcc0de935328bb78e6040315e271b3cd274b53c5a369c2cc950780f7ed9d0e7ddec2dc91512ab97ae4060117e073b1cf254951c7a16bc0ce970582f5eb9b087bd8c4da97572cbf7ce2000711e675b7c9234f57c1a76dc6c8910384f3e9990a79dac6d895552ebd7ee0020513e477b5cb214d55c3a56fc4ca930186f1e7970477d4c8d69b5b20b370ee0c0b1dea79bbc52f435bcdab61cac49d0f88ffe5950675d6cad4995922b172ec0e091fe87bb9c72d4159cfa963c8c69f0d8afde3930073d0ccd29f5f24b774ea080f19ee7dbfc12b475fc9af65cec0990b8cfbe1910271d2ced09d5d26b576e80a0d1bec7fbdc329455dcbad67ccc29b098ef9ef9f0c7fdcc0de935328bb78e6040315e271b3cd274b53c5a369c2cc950780f7ed9d0e7ddec2dc91512ab97ae4060117e073b1cf254951c7a16bc0ce970582f5eb9b087bd8c4da97572cbf7ce2000711e675b7c9234f57c1a76dc6c8910384f3e9990a79dac6d895552ebd7ee0020513e477b5cb214d55c3a56fc4ca930186f1e7970477d4c8d69b5b20b370ee0c0b1dea79bbc52f435bcdab61cac49d0f88ffe5950675d6cad4995922b172ec0e091fe87bb9c72d4159cfa963c8c69f0d8afde3930073d0ccd29f5f24b774ea080f19ee7dbfc12b475fc9af65cec0990b8cfbe1910271d2ced09d5d26b576e80a0d1bec7fbdc329455dcbad67ccc29b098ef9ef9f0c7fdcc0de935328bb78e6040315e271b3cd274b53c5a369c2cc950780f7ed9d0e7ddec2dc91512ab97ae4060117e073b1cf254951c7a16bc0ce970582f5eb9b087bd8c4da97572cbf7ce2000711e675b7c9234f57c1a76dc6c8910384f3e9990a79dac6d895552ebd7ee0020513e477b5cb214d55c3a56fc4ca930186f1e7970477d4c8d69b5b20b370ee0c0b1dea79bbc52f435bcdab61cac49d0f88ffe5950675d6cad4995922b172ec0e091fe87bb9c72d4159cfa963c8c69f0d8afde3930073d0ccd29f5f24b774ea080f19ee7dbfc12b475fc9af65cec0990b8cfbe1910271d2ced09d5d26b576e80a0d1bec7fbdc329455dcbad67ccc29b098ef9ef9f0c7fdcc0de935328bb78e6040315e271b3cd274b53c5a369c2cc950780f7ed9d0e7ddec2dc91512ab97ae4060117e073b1cf254951c7a16bc0ce970582f5eb9b087bd8c4da97572cbf7ce2000711e675b7c9234f57c1a76dc6c8910384f3e9990a79dac6d895552ebd7ee0020513e477b5cb214d55c3a56fc4ca930186f1e7970477d4c8d69b5b20b370ee0c0b1de9dac55e73232d40bd1d946e9b4b4adce4fd4ff1844ba3eb97849ed8fdd5eabd0",
        "type": "nulldata"
      }
    },
    {
      "value": 499975.5944,
      "n": 1,
      "scriptPubKey": {
        "asm": "1 9783ffd2cac11de12b12f19cd1e370090c08c452b8c4bc3686348ea1a5bcceab",
        "hex": "51209783ffd2cac11de12b12f19cd1e370090c08c452b8c4bc3686348ea1a5bcceab",
        "reqSigs": 1,
        "type": "witness_v1_scripthash",
        "addresses": [
          "3QJmnh"
        ]
      }
    }
  ],
  "blockhash": "ccdcfedcff6ade259e7f17160cbcd6ff75249aea4f0a85a59e1a4fb3f710df5f",
  "confirmations": 1,
  "time": 1764180435,
  "blocktime": 1764180435
}