{
  "hex": "010000000001013c56c278b9dcc29210422918c8962676a3da68707205be3db4b7a8a7c87917190100000000feffffff024021813f792d0000225120c091a2e893e23a267998816c2fec69af28c41008bcb320839a6a5ac2608b710500e1f50500000000fdd5046a2015b3308953421bb8e913e54548a6ba636e979917a05a44b5a86a19e56430a8854db004016a6c3edf197432e75565f44e5748440f7442a8b94e5f12578ff8520ef52c75214a4c1eff395412c77545d46e7768642f546288996e7f3277afd8722ed50c55412a2c7e9f593472a71525b40e1708044f3402e8f90e1f5217cfb8124eb56c35610a0c5ebf791452873505942e3728246f1422c8d92e3f7237ef98326e954c1581eaecbe5f99f4b267d5e574ced7c8c48ff4c22839cedf92d70f78d28e75acf5a1cacc9e7fb9d49247f5c554eef7e8e4afd4e20819eeffb2f72f58f2ae558cd5c1aaacfe1fd9b4f22795a5348e978884cfb48268798e9fd2974f3892ce35ecb5e18a8cde3ff994d207b58514aeb7a8a4ef94a24859aebff2b76f18b2ee15cc95016a6c3edf197432e75565f44e5748440f7442a8b94e5f12578ff8520ef52c75214a4c1eff395412c77545d46e7768642f546288996e7f3277afd8722ed50c55412a2c7e9f593472a71525b40e1708044f3402e8f90e1f5217cfb8124eb56c35610a0c5ebf791452873505942e3728246f1422c8d92e3f7237ef98326e954c1581eaecbe5f99f4b267d5e574ced7c8c48ff4c22839cedf92d70f78d28e75acf5a1cacc9e7fb9d49247f5c554eef7e8e4afd4e20819eeffb2f72f58f2ae558cd5c1aaacfe1fd9b4f22795a5348e978884cfb48268798e9fd2974f3892ce35ecb5e18a8cde3ff994d207b58514aeb7a8a4ef94a24859aebff2b76f18b2ee15cc95016a6c3edf197432e75565f44e5748440f7442a8b94e5f12578ff8520ef52c75214a4c1eff395412c77545d46e7768642f546288996e7f3277afd8722ed50c55412a2c7e9f593472a71525b40e1708044f3402e8f90e1f5217cfb8124eb56c35610a0c5ebf791452873505942e3728246f1422c8d92e3f7237ef98326e954c1581eaecbe5f99f4b267d5e574ced7c8c48ff4c22839cedf92d70f78d28e75acf5a1cacc9e7fb9d49247f5c554eef7e8e4afd4e20819eeffb2f72f58f2ae558cd5c1aaacfe1fd9b4f22795a5348e978884cfb48268798e9fd2974f3892ce35ecb5e18a8cde3ff994d207b58514aeb7a8a4ef94a24859aebff2b76f18b2ee15cc95016a6c3edf197432e75565f44e5748440f7442a8b94e5f12578ff8520ef52c75214a4c1eff395412c77545d46e7768642f546288996e7f3277afd8722ed50c55412a2c7e9f593472a71525b40e1708044f3402e8f90e1f5217cfb8124eb56c35610a0c5ebf791452873505942e3728246f1422c8d92e3f7237ef98326e954c1581eaecbe5f99f4b267d5e574ced7c8c48ff4c22839cedf92d70f78d28e75acf5a1cacc9e7fb9d49247f5c554eef7e8e4afd4e20819eeffb2f72f58f2ae558cd5c1aaacfe1fd9b4f22795a5348e978884cfb48268798e9fd2974f3892ce35ecb5e18a8cde3ff994d207b58514aeb7a8a4ef94a24859aebff2b76f18b2ee15cc95016a6c3edf197432e75565f44e5748440f7442a8b94e5f12578ff8520ef52c75214a4c1eff395412c77545d46e7768642f546288996e7f3277afd8722ed50c55412a2c7e9f593472a71525b40e1708044f3402e8f90e1f5217cfb8124eb56c35610a0c5ebf791452873505942e3728246f1422c8d92e3f7237ef98326e954c1581eaecbe5f99f4b267d5e574ced7c8c452e33ca0220c777113909e4c73ea86d62ad61c53aa51b6b8c4e697bda7ff580102fd75091233d65ec6bb8cf59e243f8d433552a97a3c33dc4fbcbd80f8253ab4d605bb28b85c70fd3ad5c9e4d25f4731be82e6ed8a29f9f56464a443d740710352e55c17f6fefa5682243dfcd902a7a3e8d0f9d204ece7494e3f4a8dcc940aa6d67e3708f20e359c0961d6cca74a5d7498a82c83a3100b57e90aaa832c1bc806492a34337b1963f0c12f38d62e1e0bae9088eaed7b46e59b8666e5e03fe565e75391189f5c162b9cf5c78664a58c02f9074070a73c6510133749276ddf4d0d08373a3d1427591459b30e7e62d663ac13864acbe6621bb623a3df57ecc803b701a26bae50812748addd0d352acbeb4bcc8b6f7ff261bf56382003e3a203409d71da5666bed10c7978d75933b2cbc38d98685c20cd06ed27ade0657e63b6d5afabc1a50848c215c886f076a19cc3e237c0700014ae00b6a4ff4dc67b910098e3726ff914244347cb8b615aff5009063ac73ffc362d0ed035550fd44f03b0c54de42fa7e62712892bf38cceebc4c753655d99c1ece11a8e2912641b93c6c74f21b4e7a45dd6e80db28d65db693baa62f478654776ff68bc1807dbd9595856188ae2fb2386e2169196494ebbed46132f854bc87a4c608b347e9ea5f3faa8b66e7ebdf48721fc7b3e3f92c8e8823833d50bcf4805d8d01f59c1ced4fdcb8bf2e60d9aa85466e56b5c8c33bbe0f512eee468d9a8ac3aae20fc84a0555f6c7ca208111f1d0d7bddd4b801b9ac96e45500444719f658e284971617ce3173502607a4566fb9e4be2bdaa1352cea60347c734a430b3522451853ba576a67d1a1c6f2d50a390508da6ea6f031bf773a74c0aee78239b08ac32b230ea645320df56ec78a55cd3e39c5fc6089f13ad72bb0b39f40cefd2f7393774e947457000add3a2ca33977baa2e5a29947795c197af7f288457e4a266b6be72d29f769de023008bc778d66d8af502eebee04f2e9ceb000ecaa7b62d453c496a04e8e7722cc2db7af1ae6c9f3a73b4d98854d3c7a2354a4a0626b07ca98d00418572e8281cc20ce98d7c9135eeebc0ade02afebe77992c0a4b3f5d1d1a17de7138f3ec55ccd328a5199d081feff21d977b76863cbb9f0080cb74c9480dbd2db30153573138754f32c346dc7fbeb7e2c237f6b019900b4921eee469a2bd9d2e21251ab7b1f726f8b9bc068a32e8c7413fa7d0698f92f8d16980b20a797f7cc634a54a3baa4c2c899864cf2f2d14f4c5ada5141ab4f2a27483e26c34ceedcd8c5aaf3e7541c355eb7be8782fa96b5592da8cb09056e616ae82819ad749b23a60945429000da438961f2f2e5fab968675d18e62d6b96f78663ac46ac99868a6d642e9e8a3cddb4a4bf2aa16b47aa146d1645d545ad32d6c8dee17f5485363010a47991b981b1b104e8fd4e453d8bb55e724a5223bf3b89cc29470de4de9bb09e45dd59b57f482cbef625b849f219e33dc04c9e0d3bf67ab4b940407f4f7d65c8299e703ae2c087c5dc5afac933ce0d846fa5affcf1ac4b269913d15c0b41f5b503151812fd8155d378d9601e8cf9e77f2bf760c6cf1175889ab634fb92f7b6574faf15853a42fece9ac7ddca6b1abaca1e7c622eeb3dc8998f7347547cf2dc0d5e0c4ab2cf39c7e76537e18ad1c546b04e05932e79710794211da8748e5d6250f073d2601c2652dd577c75d5071744be2e124d5d6f6adec2d4eae7725f72ff70f19e1e5866aaa4541a10dbb592e3e21dab8aaef4ccc9e8bc9d70751e6570844efd0378057d0d126a66ada1f597c4c52a392a1e8cf56409ae8f937d45adf11b05165454dfeefaa88b18b214f29907b9bb427ba12a2b86520ecc039a0368cbc8594de24385f384f2ee7963e72b048dc4dc6093a6ddd5c781cb3baa65a845f92268a1547e48b907303cf2878280199292202f0240425b0ad6adcaca5d680982877b8874c6e0583636bf5de0325c50c1bded5f4cf3ea941c258338578e6e4a2cc337122b64b4516a572bf855878aa967e515ca2a258e8546620325248c986c0fa1f1f83eeccf2c172e24069162c9bced28e0742284a93025ce84153b5e327fc80a9d06d6db04e6e09ae2076b080e149f6f87d4169a5b38ad267fddc6a3aac63121e9cf6667e4a4cedffb568959198d2ac76fd06aad545798f1094aa904f99860d4878c86ae619e65bf0388f6fc8fb4a4399e4b349aac060d4116731663cbb4aae0d4a0846a8182eda682989bbdcc261f5beb3185004dd1fd8ca49ad2c006adde3a62c625e77e2e89fa648570f3392af32739789cbe53eed6512601b8c214d2364863808247f6a49f4a62873721fe923b0c6403ac9d6789ab4043986580f3bca7e4a1115d73f140fe029725758db57ed2187da7a132094b65c2be7bb28a73ec69b5772f815e06485db98d54197032b7ade38cb9d4212caf5c59ace4bf0c4f92f216265cd561ca8a90625e5e8c8670fedc97434d1175127046a2ec96c1449e56fc1c2c91b4d75bdfd9ff6d5273c3af4727b705eccf2f764bd531265c4a065f7ba87b3478db42618f3d3fcefac3a91a4d28f18a6e1b850b4fb568b83871fa03c8328349fc0de24db9c9a58175e7c01cb06ca25985d50a7e587d70fe71539828d8a30289494013994722df63dcad80d38b398f478ab63517121fa2c19334dd665bc19c780466ed019915b1900d1873e709f7354d77bccbc86dd64ae3c710c39951cc16bb33b0120e6e0296d6c26976833fa0395eb0a4dd8d3602a96af8183e1cc33ecbdd66c9e08680bf346a7b83d6168f9394a519153dbd133171a280dff768e825718595de8600bdc195097db4f707216788562c764369104e79a07110c57d9994c53fa53cf1a57a882614c8adda0dab82efad5f700755961c72ff741b4af6bca2e2b45ce4d98e070f44602deddb736f9d9b4ac0bd772e6ca07e014b9e57e5da85ff5b610f0a0f9c22cdc913f016cecc076fde85eddac2c36f6677a0544aaea93db7b5c439daffce1a549dceddedcfc42b04f823396b15af0becbc8284d2e4aee07629e7847dc8e1c38d8f13d5c6c75adf5e92942cfd3b24f34921f9c7a64f26d83e2c98a93d79a8adae22112b8930a759f0c51efef6126e691112739ec37574b561440dc0b2228b1acc5ac07947b9d620d7fd11f45e85bc74d9fb49caa2e621ac783d2398462a37af0e3e27fdbecce894f8a2907a0f404962c2f3bbeff2c8a1b8f48926b441690ea1f0dc251ef0765a0c274cd11a6c64811f6ffd7362f9ea20b7fb5a8f67e8c4b0208c6ef4699b81bc7f940cb42913a95547778a1b192e359bedc9e9326c894081a9e16031f92c574f0945e0cb0608111a1c212c3f4b5f75a2b5b6c1c4c5c6d8dae71336475259778386899aa7b9c7cfd0d7d8dce3ec12181f41454a7b8699b0b6badff611323f5b6472778491c1d1d2d6d7dbf90000000000000000001529374701fd210500c375602c970c13d27d58c3be51014ba782f012fd42b5cfeeef5de98ee08d04cb67e530d911ee0963e5567cd55f1e3b7b447951704d1622b304fc12ce12a1a7541edafedc1cc0c6b714569e6836ed50128115cd0e7c4336e43c41040d3953a75a9593a5838e00eb195cb52a91774b241eeeacceb94bb86c217d4a0dc51640495d3259402688b323d50c350824bcf1aea4562f0f0fd70f29f9dc8b82006e74a74571d4f22053700220d5a6d0b5f6d771b46f076dc5c242369c58b2a493d18c6d0e35b2af43ba7a5594f814034c50478e1bb58a93e63904bb5ca41908ce25cd2b87457f7b935edd2ed9b24922ca9d18dcb353e618c62a7895a3d948f50e99ca9658bb3a2a5fa1645f3d7c5341586406be97587e28a882e8d58ea205ca72a290e29f6e2e0c5c12d7d4e05244f1853ec8669412d1cc4924bf5b4af75671129f3f3aba9f7016dc67c6490818fd30c7cff72975d34e0787eb9064d8753d98f195330fe9588b31d369bedd0524a9685668b11cc9cf10fef2d6daddf427b3531f14e74ff9cd4c8e5de9a3a89cbaa333f06082ddd50c5b4a64e2bb4853b3a513da1f1a37b445c9093c8509c6f39aa226e11dc7dd519098b07e86bae5999e1125e8c5827ff8e65713c00e98b1303ce204a8dd720212fb826f8a5fc19ab0e183824594f21bc5e2445a7b29e1ce253f42b660624d9d3285a31ba73e1412db3b50f4bd35ab13ad381b0629abcd69d3357d3474b87c9d0f2b46bd981600ade98df3c677407a254d8cfb4f24df10cdbf9bec70c06aca0c8d036c3fc549b02d0727e8023fff81ce581b0d89ad8444abfe212d1c4a5d3370ffad9680ba84f864bafe911f2093b25b984dcf7c9dfdaf019b1be80be159467bf2c7c54bf5c9b010c652f38f2506158da1cb753342e05dfcaa50bc2f9ff771f347b87f26c5cf8e0ba54c92940b0ef855e85af6bf0cd63e26531d2dfc2909720d70e2852f21aadc6e6996f128f467acb8ded0440c4da84a143ceaca9f34c17ec45fa2af11aa52cd882f39cbe618add9c6c4fb6a948ac12029ba0f755938c167f35d77c73c825ed6a2f42c46a29ce40b8c7842d534dc80b8a6028e7fe7795104c635181ae205c0375947d9d42c2815c055e3491b4318c83fc34badb925cdc0dcfb8956f53c2b6d0f3c54bb142a9080a496ac71edbfcbb512e6a4de29683bd0607ddb5d6d25c8bbf0c359f431213f15dfc850e435625d9805ac281cb9ea6f1e9fd85ed0dcd8d2c9354acde3bc1dfa8da201b1d86b7a14cbe2bc3279bbda6f7322a58124ebcb126bd24ce384fde98275dd592866e3b4b887e2f3d37f69293a87d94d6e519314f36f28bba7a06939ed59ccd09077fb90f9cbcb9c79f63304f1eb8637e2a81c406bce989de6dfb329ec18aa81dd0daaac5b31ef3f12982bf9a8681ac41239349a9b7fe6abfa138a3f05985b712a329b10640543d438705f4c7cf6c4d2f405df66ca9d74778ae340ed8003929f8bde6a9303bf7dded0d73134652af70cfde770046c8fed0c0d17b7f9f12355edfe9485cf3a2f376c2c97bf49a1b682722c4af5099c137e2c0cc350bdc5530f88bec71c5281490cc9533e924a5971fe7c34f21411222281d2c467b571efcf46d9352076f58490af8f954dc7e84b7ffab1f4706832d47507649e32bf75771362fa2c8414ead777d2592a6b7e98bea5a9677a5165dc19dbf7da6fae59a719b68fe63967868dd09a4105eb4ddd97f5362c974b4c305ba295e8ca45017a0df4695281ecff208fb8a235dbbac436be1a2eeb6f8e29853e713c44ae463fac4ad18fd63107823c8d533ee6804f9396cf32ccae36671baeb11d7276bc327326d7ad7bba39f96d000000",
  "txid": "91713b6711f8939f224167ceeb025a5e8c3420aa179f1183899f0b8730e15fa7",
  "hash": "13eaef6f4f29ee8f809ee626d196eacfb54cd0838d38542a269ab395257613b6",
  "size": 5085,
  "vsize": 2278,
  "version": 1,
  "locktime": 109,
  "vin": [
    {
      "txid": "191779c8a7a8b7b43dbe05727068daa3762696c81829421092c2dcb978c2563c",
      "vout": 1,
      "scriptSig": {
        "asm": "",
        "hex": ""
      },
      "txinwitness": [
        "1233d65ec6bb8cf59e243f8d433552a97a3c33dc4fbcbd80f8253ab4d605bb28b85c70fd3ad5c9e4d25f4731be82e6ed8a29f9f56464a443d740710352e55c17f6fefa5682243dfcd902a7a3e8d0f9d204ece7494e3f4a8dcc940aa6d67e3708f20e359c0961d6cca74a5d7498a82c83a3100b57e90aaa832c1bc806492a34337b1963f0c12f38d62e1e0bae9088eaed7b46e59b8666e5e03fe565e75391189f5c162b9cf5c78664a58c02f9074070a73c6510133749276ddf4d0d08373a3d1427591459b30e7e62d663ac13864acbe6621bb623a3df57ecc803b701a26bae50812748addd0d352acbeb4bcc8b6f7ff261bf56382003e3a203409d71da5666bed10c7978d75933b2cbc38d98685c20cd06ed27ade0657e63b6d5afabc1a50848c215c886f076a19cc3e237c0700014ae00b6a4ff4dc67b910098e3726ff914244347cb8b615aff5009063ac73ffc362d0ed035550fd44f03b0c54de42fa7e62712892bf38cceebc4c753655d99c1ece11a8e2912641b93c6c74f21b4e7a45dd6e80db28d65db693baa62f478654776ff68bc1807dbd9595856188ae2fb2386e2169196494ebbed46132f854bc87a4c608b347e9ea5f3faa8b66e7ebdf48721fc7b3e3f92c8e8823833d50bcf4805d8d01f59c1ced4fdcb8bf2e60d9aa85466e56b5c8c33bbe0f512eee468d9a8ac3aae20fc84a0555f6c7ca208111f1d0d7bddd4b801b9ac96e45500444719f658e284971617ce3173502607a4566fb9e4be2bdaa1352cea60347c734a430b3522451853ba576a67d1a1c6f2d50a390508da6ea6f031bf773a74c0aee78239b08ac32b230ea645320df56ec78a55cd3e39c5fc6089f13ad72bb0b39f40cefd2f7393774e947457000add3a2ca33977baa2e5a29947795c197af7f288457e4a266b6be72d29f769de023008bc778d66d8af502eebee04f2e9ceb000ecaa7b62d453c496a04e8e7722cc2db7af1ae6c9f3a73b4d98854d3c7a2354a4a0626b07ca98d00418572e8281cc20ce98d7c9135eeebc0ade02afebe77992c0a4b3f5d1d1a17de7138f3ec55ccd328a5199d081feff21d977b76863cbb9f0080cb74c9480dbd2db30153573138754f32c346dc7fbeb7e2c237f6b019900b4921eee469a2bd9d2e21251ab7b1f726f8b9bc068a32e8c7413fa7d0698f92f8d16980b20a797f7cc634a54a3baa4c2c899864cf2f2d14f4c5ada5141ab4f2a27483e26c34ceedcd8c5aaf3e7541c355eb7be8782fa96b5592da8cb09056e616ae82819ad749b23a60945429000da438961f2f2e5fab968675d18e62d6b96f78663ac46ac99868a6d642e9e8a3cddb4a4bf2aa16b47aa146d1645d545ad32d6c8dee17f5485363010a47991b981b1b104e8fd4e453d8bb55e724a5223bf3b89cc29470de4de9bb09e45dd59b57f482cbef625b849f219e33dc04c9e0d3bf67ab4b940407f4f7d65c8299e703ae2c087c5dc5afac933ce0d846fa5affcf1ac4b269913d15c0b41f5b503151812fd8155d378d9601e8cf9e77f2bf760c6cf1175889ab634fb92f7b6574faf15853a42fece9ac7ddca6b1abaca1e7c622eeb3dc8998f7347547cf2dc0d5e0c4ab2cf39c7e76537e18ad1c546b04e05932e79710794211da8748e5d6250f073d2601c2652dd577c75d5071744be2e124d5d6f6adec2d4eae7725f72ff70f19e1e5866aaa4541a10dbb592e3e21dab8aaef4ccc9e8bc9d70751e6570844efd0378057d0d126a66ada1f597c4c52a392a1e8cf56409ae8f937d45adf11b05165454dfeefaa88b18b214f29907b9bb427ba12a2b86520ecc039a0368cbc8594de24385f384f2ee7963e72b048dc4dc6093a6ddd5c781cb3baa65a845f92268a1547e48b907303cf2878280199292202f0240425b0ad6adcaca5d680982877b8874c6e0583636bf5de0325c50c1bded5f4cf3ea941c258338578e6e4a2cc337122b64b4516a572bf855878aa967e515ca2a258e8546620325248c986c0fa1f1f83eeccf2c172e24069162c9bced28e0742284a93025ce84153b5e327fc80a9d06d6db04e6e09ae2076b080e149f6f87d4169a5b38ad267fddc6a3aac63121e9cf6667e4a4cedffb568959198d2ac76fd06aad545798f1094aa904f99860d4878c86ae619e65bf0388f6fc8fb4a4399e4b349aac060d4116731663cbb4aae0d4a0846a8182eda682989bbdcc261f5beb3185004dd1fd8ca49ad2c006adde3a62c625e77e2e89fa648570f3392af32739789cbe53eed6512601b8c214d2364863808247f6a49f4a62873721fe923b0c6403ac9d6789ab4043986580f3bca7e4a1115d73f140fe029725758db57ed2187da7a132094b65c2be7bb28a73ec69b5772f815e06485db98d54197032b7ade38cb9d4212caf5c59ace4bf0c4f92f216265cd561ca8a90625e5e8c8670fedc97434d1175127046a2ec96c1449e56fc1c2c91b4d75bdfd9ff6d5273c3af4727b705eccf2f764bd531265c4a065f7ba87b3478db42618f3d3fcefac3a91a4d28f18a6e1b850b4fb568b83871fa03c8328349fc0de24db9c9a58175e7c01cb06ca25985d50a7e587d70fe71539828d8a30289494013994722df63dcad80d38b398f478ab63517121fa2c19334dd665bc19c780466ed019915b1900d1873e709f7354d77bccbc86dd64ae3c710c39951cc16bb33b0120e6e0296d6c26976833fa0395eb0a4dd8d3602a96af8183e1cc33ecbdd66c9e08680bf346a7b83d6168f9394a519153dbd133171a280dff768e825718595de8600bdc195097db4f707216788562c764369104e79a07110c57d9994c53fa53cf1a57a882614c8adda0dab82efad5f700755961c72ff741b4af6bca2e2b45ce4d98e070f44602deddb736f9d9b4ac0bd772e6ca07e014b9e57e5da85ff5b610f0a0f9c22cdc913f016cecc076fde85eddac2c36f6677a0544aaea93db7b5c439daffce1a549dceddedcfc42b04f823396b15af0becbc8284d2e4aee07629e7847dc8e1c38d8f13d5c6c75adf5e92942cfd3b24f34921f9c7a64f26d83e2c98a93d79a8adae22112b8930a759f0c51efef6126e691112739ec37574b561440dc0b2228b1acc5ac07947b9d620d7fd11f45e85bc74d9fb49caa2e621ac783d2398462a37af0e3e27fdbecce894f8a2907a0f404962c2f3bbeff2c8a1b8f48926b441690ea1f0dc251ef0765a0c274cd11a6c64811f6ffd7362f9ea20b7fb5a8f67e8c4b0208c6ef4699b81bc7f940cb42913a95547778a1b192e359bedc9e9326c894081a9e16031f92c574f0945e0cb0608111a1c212c3f4b5f75a2b5b6c1c4c5c6d8dae71336475259778386899aa7b9c7cfd0d7d8dce3ec12181f41454a7b8699b0b6badff611323f5b6472778491c1d1d2d6d7dbf90000000000000000001529374701",
        "00c375602c970c13d27d58c3be51014ba782f012fd42b5cfeeef5de98ee08d04cb67e530d911ee0963e5567cd55f1e3b7b447951704d1622b304fc12ce12a1a7541edafedc1cc0c6b714569e6836ed50128115cd0e7c4336e43c41040d3953a75a9593a5838e00eb195cb52a91774b241eeeacceb94bb86c217d4a0dc51640495d3259402688b323d50c350824bcf1aea4562f0f0fd70f29f9dc8b82006e74a74571d4f22053700220d5a6d0b5f6d771b46f076dc5c242369c58b2a493d18c6d0e35b2af43ba7a5594f814034c50478e1bb58a93e63904bb5ca41908ce25cd2b87457f7b935edd2ed9b24922ca9d18dcb353e618c62a7895a3d948f50e99ca9658bb3a2a5fa1645f3d7c5341586406be97587e28a882e8d58ea205ca72a290e29f6e2e0c5c12d7d4e05244f1853ec8669412d1cc4924bf5b4af75671129f3f3aba9f7016dc67c6490818fd30c7cff72975d34e0787eb9064d8753d98f195330fe9588b31d369bedd0524a9685668b11cc9cf10fef2d6daddf427b3531f14e74ff9cd4c8e5de9a3a89cbaa333f06082ddd50c5b4a64e2bb4853b3a513da1f1a37b445c9093c8509c6f39aa226e11dc7dd519098b07e86bae5999e1125e8c5827ff8e65713c00e98b1303ce204a8dd720212fb826f8a5fc19ab0e183824594f21bc5e2445a7b29e1ce253f42b660624d9d3285a31ba73e1412db3b50f4bd35ab13ad381b0629abcd69d3357d3474b87c9d0f2b46bd981600ade98df3c677407a254d8cfb4f24df10cdbf9bec70c06aca0c8d036c3fc549b02d0727e8023fff81ce581b0d89ad8444abfe212d1c4a5d3370ffad9680ba84f864bafe911f2093b25b984dcf7c9dfdaf019b1be80be159467bf2c7c54bf5c9b010c652f38f2506158da1cb753342e05dfcaa50bc2f9ff771f347b87f26c5cf8e0ba54c92940b0ef855e85af6bf0cd63e26531d2dfc2909720d70e2852f21aadc6e6996f128f467acb8ded0440c4da84a143ceaca9f34c17ec45fa2af11aa52cd882f39cbe618add9c6c4fb6a948ac12029ba0f755938c167f35d77c73c825ed6a2f42c46a29ce40b8c7842d534dc80b8a6028e7fe7795104c635181ae205c0375947d9d42c2815c055e3491b4318c83fc34badb925cdc0dcfb8956f53c2b6d0f3c54bb142a9080a496ac71edbfcbb512e6a4de29683bd0607ddb5d6d25c8bbf0c359f431213f15dfc850e435625d9805ac281cb9ea6f1e9fd85ed0dcd8d2c9354acde3bc1dfa8da201b1d86b7a14cbe2bc3279bbda6f7322a58124ebcb126bd24ce384fde98275dd592866e3b4b887e2f3d37f69293a87d94d6e519314f36f28bba7a06939ed59ccd09077fb90f9cbcb9c79f63304f1eb8637e2a81c406bce989de6dfb329ec18aa81dd0daaac5b31ef3f12982bf9a8681ac41239349a9b7fe6abfa138a3f05985b712a329b10640543d438705f4c7cf6c4d2f405df66ca9d74778ae340ed8003929f8bde6a9303bf7dded0d73134652af70cfde770046c8fed0c0d17b7f9f12355edfe9485cf3a2f376c2c97bf49a1b682722c4af5099c137e2c0cc350bdc5530f88bec71c5281490cc9533e924a5971fe7c34f21411222281d2c467b571efcf46d9352076f58490af8f954dc7e84b7ffab1f4706832d47507649e32bf75771362fa2c8414ead777d2592a6b7e98bea5a9677a5165dc19dbf7da6fae59a719b68fe63967868dd09a4105eb4ddd97f5362c974b4c305ba295e8ca45017a0df4695281ecff208fb8a235dbbac436be1a2eeb6f8e29853e713c44ae463fac4ad18fd63107823c8d533ee6804f9396cf32ccae36671baeb11d7276bc327326d7ad7bba39f9"
      ],
      "sequence": 4294967294
    }
  ],
  "vout": [
    {
      "value": 499987.7972,
      "n": 0,
      "scriptPubKey": {
        "asm": "1 c091a2e893e23a267998816c2fec69af28c41008bcb320839a6a5ac2608b7105",
        "hex": "5120c091a2e893e23a267998816c2fec69af28c41008bcb320839a6a5ac2608b7105",
        "reqSigs": 1,
        "type": "witness_v1_scripthash",
        "addresses": [
          "3QJmnh"
        ]
      }
    },
    {
      "value": 1.0,
      "n": 1,
      "scriptPubKey": {
        "asm": "OP_RETURN 15b3308953421bb8e913e54548a6ba636e979917a05a44b5a86a19e56430a885 016a6c3edf197432e75565f44e5748440f7442a8b94e5f12578ff8520ef52c75214a4c1eff395412c77545d46e7768642f546288996e7f3277afd8722ed50c55412a2c7e9f593472a71525b40e1708044f3402e8f90e1f5217cfb8124eb56c35610a0c5ebf791452873505942e3728246f1422c8d92e3f7237ef98326e954c1581eaecbe5f99f4b267d5e574ced7c8c48ff4c22839cedf92d70f78d28e75acf5a1cacc9e7fb9d49247f5c554eef7e8e4afd4e20819eeffb2f72f58f2ae558cd5c1aaacfe1fd9b4f22795a5348e978884cfb48268798e9fd2974f3892ce35ecb5e18a8cde3ff994d207b58514aeb7a8a4ef94a24859aebff2b76f18b2ee15cc95016a6c3edf197432e75565f44e5748440f7442a8b94e5f12578ff8520ef52c75214a4c1eff395412c77545d46e7768642f546288996e7f3277afd8722ed50c55412a2c7e9f593472a71525b40e1708044f3402e8f90e1f5217cfb8124eb56c35610a0c5ebf791452873505942e3728246f1422c8d92e3f7237ef98326e954c1581eaecbe5f99f4b267d5e574ced7c8c48ff4c22839cedf92d70f78d28e75acf5a1cacc9e7fb9d49247f5c554eef7e8e4afd4e20819eeffb2f72f58f2ae558cd5c1aaacfe1fd9b4f22795a5348e978884cfb48268798e9fd2974f3892ce35ecb5e18a8cde3ff994d207b58514aeb7a8a4ef94a24859aebff2b76f18b2ee15cc95016a6c3edf197432e75565f44e5748440f7442a8b94e5f12578ff8520ef52c75214a4c1eff395412c77545d46e7768642f546288996e7f3277afd8722ed50c55412a2c7e9f593472a71525b40e1708044f3402e8f90e1f5217cfb8124eb56c35610a0c5ebf791452873505942e3728246f1422c8d92e3f7237ef98326e954c1581eaecbe5f99f4b267d5e574ced7c8c48ff4c22839cedf92d70f78d28e75acf5a1cacc9e7fb9d49247f5c554eef7e8e4afd4e20819eeffb2f72f58f2ae558cd5c1aaacfe1fd9b4f22795a5348e978884cfb48268798e9fd2974f3892ce35ecb5e18a8cde3ff994d207b58514aeb7a8a4ef94a24859aebff2b76f18b2ee15cc95016a6c3edf197432e75565f44e5748440f7442a8b94e5f12578ff8520ef52c75214a4c1eff395412c77545d46e7768642f546288996e7f3277afd8722ed50c55412a2c7e9f593472a71525b40e1708044f3402e8f90e1f5217cfb8124eb56c35610a0c5ebf791452873505942e3728246f1422c8d92e3f7237ef98326e954c1581eaecbe5f99f4b267d5e574ced7c8c48ff4c22839cedf92d70f78d28e75acf5a1cacc9e7fb9d49247f5c554eef7e8e4afd4e20819eeffb2f72f58f2ae558cd5c1aaacfe1fd9b4f22795a5348e978884cfb48268798e9fd2974f3892ce35ecb5e18a8cde3ff994d207b58514aeb7a8a4ef94a24859aebff2b76f18b2ee15cc95016a6c3edf197432e75565f44e5748440f7442a8b94e5f12578ff8520ef52c75214a4c1eff395412c77545d46e7768642f546288996e7f3277afd8722ed50c55412a2c7e9f593472a71525b40e1708044f3402e8f90e1f5217cfb8124eb56c35610a0c5ebf791452873505942e3728246f1422c8d92e3f7237ef98326e954c1581eaecbe5f99f4b267d5e574ced7c8c452e33ca0220c777113909e4c73ea86d62ad61c53aa51b6b8c4e697bda7ff5801",
        "hex": "6a2015b3308953421bb8e913e54548a6ba636e979917a05a44b5a86a19e56430a8854db004016a6c3edf197432e75565f44e5748440f7442a8b94e5f12578ff8520ef52c75214a4c1eff395412c77545d46e7768642f546288996e7f3277afd8722ed50c55412a2c7e9f593472a71525b40e1708044f3402e8f90e1f5217cfb8124eb56c35610a0c5ebf791452873505942e3728246f1422c8d92e3f7237ef98326e954c1581eaecbe5f99f4b267d5e574ced7c8c48ff4c22839cedf92d70f78d28e75acf5a1cacc9e7fb9d49247f5c554eef7e8e4afd4e20819eeffb2f72f58f2ae558cd5c1aaacfe1fd9b4f22795a5348e978884cfb48268798e9fd2974f3892ce35ecb5e18a8cde3ff994d207b58514aeb7a8a4ef94a24859aebff2b76f18b2ee15cc95016a6c3edf197432e75565f44e5748440f7442a8b94e5f12578ff8520ef52c75214a4c1eff395412c77545d46e7768642f546288996e7f3277afd8722ed50c55412a2c7e9f593472a71525b40e1708044f3402e8f90e1f5217cfb8124eb56c35610a0c5ebf791452873505942e3728246f1422c8d92e3f7237ef98326e954c1581eaecbe5f99f4b267d5e574ced7c8c48ff4c22839cedf92d70f78d28e75acf5a1cacc9e7fb9d49247f5c554eef7e8e4afd4e20819eeffb2f72f58f2ae558cd5c1aaacfe1fd9b4f22795a5348e978884cfb48268798e9fd2974f3892ce35ecb5e18a8cde3ff994d207b58514aeb7a8a4ef94a24859aebff2b76f18b2ee15cc95016a6c3edf197432e75565f44e5748440f7442a8b94e5f12578ff8520ef52c75214a4c1eff395412c77545d46e7768642f546288996e7f3277afd8722ed50c55412a2c7e9f593472a71525b40e1708044f3402e8f90e1f5217cfb8124eb56c35610a0c5ebf791452873505942e3728246f1422c8d92e3f7237ef98326e954c1581eaecbe5f99f4b267d5e574ced7c8c48ff4c22839cedf92d70f78d28e75acf5a1cacc9e7fb9d49247f5c554eef7e8e4afd4e20819eeffb2f72f58f2ae558cd5c1aaacfe1fd9b4f22795a5348e978884cfb48268798e9fd2974f3892ce35ecb5e18a8cde3ff994d207b58514aeb7a8a4ef94a24859aebff2b76f18b2ee15cc95016a6c3edf197432e75565f44e5748440f7442a8b94e5f12578ff8520ef52c75214a4c1eff395412c77545d46e7768642f546288996e7f3277afd8722ed50c55412a2c7e9f593472a71525b40e1708044f3402e8f90e1f5217cfb8124eb56c35610a0c5ebf791452873505942e3728246f1422c8d92e3f7237ef98326e954c1581eaecbe5f99f4b267d5e574ced7c8c48ff4c22839cedf92d70f78d28e75acf5a1cacc9e7fb9d49247f5c554eef7e8e4afd4e20819eeffb2f72f58f2ae558cd5c1aaacfe1fd9b4f22795a5348e978884cfb48268798e9fd2974f3892ce35ecb5e18a8cde3ff994d207b58514aeb7a8a4ef94a24859aebff2b76f18b2ee15cc95016a6c3edf197432e75565f44e5748440f7442a8b94e5f12578ff8520ef52c75214a4c1eff395412c77545d46e7768642f546288996e7f3277afd8722ed50c55412a2c7e9f593472a71525b40e1708044f3402e8f90e1f5217cfb8124eb56c35610a0c5ebf791452873505942e3728246f1422c8d92e3f7237ef98326e954c1581eaecbe5f99f4b267d5e574ced7c8c452e33ca0220c777113909e4c73ea86d62ad61c53aa51b6b8c4e697bda7ff5801",
        "type": "nulldata"
      }
    }
  ],
  "blockhash": "9418e69333e129952491dcd6dc324ee50ca4a2e07f0678970cb85d951484494a",
  "confirmations": 1,
  "time": 1764177673,
  "blocktime": 1764177673
}