{
  "hex": "010000000001010ebff7fc1fb686c18fd43e0c0bdfff7f379819f2f80dd34eb4fa80bf559bc3340000000000feffffff026024ab89782d0000225120933a7dc7f2c0f11bee5050d39dc3607ac6c0aa9b70ebcb1442dc34dd3e30c89400e1f50500000000fdd5046a20c7cdf10f0103ac38e6367912fa07cf7d50797b8a2868c04f806a1956cdb4db1d4db00439699ef78951eaae9f9872887fbf8dc80b84a5bf35c1b10fa36fb3fbf9b992751949bed7a971ca8ebfb852a85f9fade82ba4859f15e1912f834f93dbd999b2557929deb7c911aaeedfd832c83fffcd884bc4e5ff7581f14fe32ff3bbb9f9d2355909fe97e9318acefff812e81fdfeda86be4c5df55a1d16fc30fd39b99d9f215b9e91e7709d16a2e1f18f208ff3f0d488b04253fb541318f23ef337b793912f599c93e5729f14a0e3f38d228df1f2d68ab24051f956111af03cf135b591932d5f9a95e3749912a6e5f58b248bf7f4d08cb44657ff50171cf63af733b397952b5d9897e1769b10a4e7f7892689f5f6d28eb64455fd52151ef438f531b1959729539699ef78951eaae9f9872887fbf8dc80b84a5bf35c1b10fa36fb3fbf9b992751949bed7a971ca8ebfb852a85f9fade82ba4859f15e1912f834f93dbd999b2557929deb7c911aaeedfd832c83fffcd884bc4e5ff7581f14fe32ff3bbb9f9d2355909fe97e9318acefff812e81fdfeda86be4c5df55a1d16fc30fd39b99d9f215b9e91e7709d16a2e1f18f208ff3f0d488b04253fb541318f23ef337b793912f599c93e5729f14a0e3f38d228df1f2d68ab24051f956111af03cf135b591932d5f9a95e3749912a6e5f58b248bf7f4d08cb44657ff50171cf63af733b397952b5d9897e1769b10a4e7f7892689f5f6d28eb64455fd52151ef438f531b1959729539699ef78951eaae9f9872887fbf8dc80b84a5bf35c1b10fa36fb3fbf9b992751949bed7a971ca8ebfb852a85f9fade82ba4859f15e1912f834f93dbd999b2557929deb7c911aaeedfd832c83fffcd884bc4e5ff7581f14fe32ff3bbb9f9d2355909fe97e9318acefff812e81fdfeda86be4c5df55a1d16fc30fd39b99d9f215b9e91e7709d16a2e1f18f208ff3f0d488b04253fb541318f23ef337b793912f599c93e5729f14a0e3f38d228df1f2d68ab24051f956111af03cf135b591932d5f9a95e3749912a6e5f58b248bf7f4d08cb44657ff50171cf63af733b397952b5d9897e1769b10a4e7f7892689f5f6d28eb64455fd52151ef438f531b1959729539699ef78951eaae9f9872887fbf8dc80b84a5bf35c1b10fa36fb3fbf9b992751949bed7a971ca8ebfb852a85f9fade82ba4859f15e1912f834f93dbd999b2557929deb7c911aaeedfd832c83fffcd884bc4e5ff7581f14fe32ff3bbb9f9d2355909fe97e9318acefff812e81fdfeda86be4c5df55a1d16fc30fd39b99d9f215b9e91e7709d16a2e1f18f208ff3f0d488b04253fb541318f23ef337b793912f599c93e5729f14a0e3f38d228df1f2d68ab24051f956111af03cf135b591932d5f9a95e3749912a6e5f58b248bf7f4d08cb44657ff50171cf63af733b397952b5d9897e1769b10a4e7f7892689f5f6d28eb64455fd52151ef438f531b1959729539699ef78951eaae9f9872887fbf8dc80b84a5bf35c1b10fa36fb3fbf9b992751949bed7a971ca8ebfb852a85f9fade82ba4859f15e1912f834f93dbd999b2557929deb7c911aaeedfd832c83fffcd884bc4e5ff7581f14fe32ff3bbb9f9d2355909fe97e9318acefff812e81fdfeda86be4c5df55a1d16fc30fd39b99d9f215b9e91e7709d16a2e1f18f208ff3f0d48868e6d37ec4a793bc7b3a021c0ad75ff1300afe2d2ebd0657e4c677c70402f9d02fd7509e35c5aaeb6bf9d890bc91596099265ae57d07f478a50ab3c8611b55f5b2ecf87eeacb5af6a46b7c4043f1fb4e3921125870177f7107d0e8ddb4c5bfbccee9e1740fff3781ce70aff92e48d427f408b56e4562e1aa9a60c1c966ea0ac7311fa95d76d280ce4a46b5cad05a5a30860d3badcb44fa2bc2e6a85354127893710d32623e7d571d476f0c995ed45b824f8c13da8a17e5dced14371d69cb16af7a7b84a04ea90b267c632cc230dd37020c2c0d37eb1fce4da4a51ad7b30bed3f85eaffb0a6352b3b31b2d7e0c52a7c89019b0596dc9519687f20b5f7b3c67ea6f18380d32d5461c58af3ad092d561e52e7ae1dd5230161f2f4c26530750b1212aab0404b189a08462611ac47e32a30caf7108015e69b3633bad59904037b455154b2c8a94fd67641e7812dc428d58605cfbf26ebc5065a033ef3d389f84c4d3671837210491985ea78c28d497eb7d3e4448e1279edf2c91ebaaeb7de8e781519380118e2a9f50592e92f7aa9d6c2b8ff99f92ccac98323bdaa5f7ee2e36121bca5c61757c95ed9ff386ccce370e38c9b19a2178df8cb5ce2d2ce8a9fa0b4f835f631df30f56bba7f4ad5c56c5c2fe23977cf953bf63d5d37ae16d01d771eaff0f7f007f61b5092d4f81a6edef7fc51ed72c5f12c1d4590624362329c098347718de28657c9378eced0eea868f1544d8347caf80f25a9bea6aed6c778328109b51c852877cf9fb00f1e9e4f5f760a0fb810325b3b3b5fa591608cd4790594a080c7405a107733f6b95e4888ade14219e40b1f3b0a1737de45341569a8113766c97f1a399f3629a600e1f7c6ccfef480f3d05edaa246fe358e8209d1b9c9c96c35bde249dae64a766e75d0910a740909af75b8f416b9d5af726a419946bd770a1a645cfe0e83a24f532e855d870dd1c11a418ff11dac9c3b8cf23ddf571c71c365b4353d5147f40a7e3c7df459ec66c4a1a59b5ae0f3b902aa5a77a99c2a68953e83d9197a164e5057e1bb655b08730467a247163a9011dcd28e7dc4694e5ab672e6e206e744c4eb856deb563081e50d159d0a7fb0e6decf1a0f334a512be68b66c66f18d2d3d2490cccae26958d29f31ecb3ea12cfffd1b56cc859bbe0e9a04d9b114c2f03b45055ebac089646fa75dafb5d815848b3a79be824ee2226aab5e505dc23bb1b412d6b4fe0995df73d2518ff0d0a0030e35fe4ef6e06ffaffc92605da2fda3fca3c86a488a15f766e0b63875e4cedc349e7cef5067e67743b57f38efff474a38865db46bd4c4fc16656329d98b4b1403805db49d97559e377bf8fb498298d2ec498db97c317c88864f7c43625a0f1f7f3eb94fd475d839e3847f0cd02dd6261e3f863ce5430794189c4ed081688b9667623a3df64e6769a4b7633c7fac1a5500a76445dff0772daefd31505949fe34aa53c00b8cd23db12b8ce609c7c5655072e27533a6f4a066e39884005cee8153d5cb315115d2735924c871703513b0287019febabaad65d9134c4ca57625aa2cd699d56987eae4e89952ba46ef1b164396a58bd1199e44cbee0744ec40197c04830a96ef403b93c9b26290d1a194854f2b85ac0e19dd03ec76c96c23dff3694700c5a21903f68c31dc39f3b597c2605de60d8bb72d67866a91fc1ae256aa6ff020f944c3236e5e42b512a235cf785f3e5a45d3ac0440263eb7177bc9e98a999ee174d6fc7703d7451c8e09ae3d60ffd241852d35b7c06664b56322f8eb6f473615e8f6d7524ede14b5f13447bb6e9cfcbaed4154f48ea60fad17718b3823db2c7a1fc50309969b9ed4ad792f83b143ebd1a09b8a3afbf58b577bbfe4ca17fe62ee4fb1d241f0bd7ff875f2a0481ab3eb6accea1d3fe019b9d6189e74052da4daac56719d4029187d99bcd36d2c88a300ebc12f652a2aaab9a34c055bcb05eb0d3d92f440c483ee03e2d161abc9ac62a06bfa311b4167fbd0167077c087cdc480b380c51cdb19c373596d6b62e54b41740d8080b9999471c02971d00ff8aa8d0686609a19fdd352df7e54caa0e963cff498967bca9576a34ed6422936cea220ef3f084488cd7adfda03fee4f6bcbd63fb380a0c84874634cb2e21b6e2810f26d271b79b18df3b950f760b7013b3d4c25e7eff1f55acaf0aaecdbd9d80f68ab78944e02c2fc535cc992afb9f72433f53acf31281b3178dc4ac3cafc44c060302e726ae31f70b3508535d6bf9945d879a023af107b0f94530f8b9427e6898ac33b4c3d463350d47f2c2c7170aa1e15497c535bda4a3f9550bfe0b66a4efa6b7b3b4839f40bb0a3b6c1a05d48883dd0fd3e473f633f1c87f899453188c7b6ef9ecfa778b4b1ab201524a01ed2df2458942d7e7a959f25041155d1875f99459a548ecea2ffbd1836e8dc34bab8e6cb9212fc4933505c7f3e1c65cd4bbc8055426a9d230b0114271552f0eace6ac1d6729337da14ef95b0d12aafbbacd70ca20f6ab0da08a05ef3a30732aaa843e9a5abaf6faac2b0e81512317e613e946b917a96bb6fa3c7e81ff8fe72106b5cb9c9ba319eed9aed7f4970223ce1e09719ce144ffaa69247d449ebb7df1be2f6c7eda1166bd33bab966a9c4cd72becda84d21a4f54cba4f73aea62eb1118a7a46c77e95dadcc5b566a652ffd03010268269f9aa4cb66e1890e98a2c7e196f5e136359d1323c5511ca44d9fe246e04c59ca408531efe4b8f87bbf54a9628d57af523f14e8cc5556158c90bafe083c065d03ff2ed37367c0f8e292870779435993ee9ba05b3d331779111bc1ee2f64dcf84c48f223f39175730bc16a4872498ed3c8d0b6111bc561e6ba0af9afcaa127cd2d6208fa51d82fc5f08e95577d0ed4fcef2ce078a7b48f46116fd83c61146e3c42bd514b7b2269b84fe2f378822a933593587e2ea4108e3c64270ccad80bea60e5f309684babd178247071ee38d372a8ccdad1fe73547271a56bdf741dba7d06e9426a5b18a511fe3a5de5a1c39db768cb8aa8e50129c20ac656b847f1a086209e2f1018856879630ecc554873b203d151b8a9043157d64b3aa54d01c670a0837015c94412752707f308b83acc06c889a0743d300ade29721bfb006d20dfaa6e05627920e564d383a86ce83654e200c719c9597595b924159f808ad2918877b70e6bf49a780aa03338f04c33157768ed851d6349c593c3f2f238c5788550c95be321b694c1031160393c98fdb18b0f52ef1c5084a4480226e21cbe5cac63fea3f861325d587af8864badc12dae6e79d79d0626b922ffda919911ff44484b55bf5e1b2e6ac28bf11405a12f77447efe375c225fdc3351c20385564718081b2c5d1d2d3e512393b54606573939bafb2c0c3c9f2ff06090a0d273050555a6266888f989fafc6c7e6f0f2f7050d14454957586170797a7e8d979a9ba8b1cae900000000000000000e1e344801fd21050061e417f257a7fb446602234307ff211f5192ac12cd6fdf71de6e6154e55633d6836dbe4a52fd74a238d027e675b85dcdfa075896d914f7349574b569509092e4676a9142428c7c972ea9b08b83fadd68d8c3f04b5f9cb9b17b8abd9537a5298fbdbf09b538c9e76d2b58892fd4ea7f7bba1546b56f2bafa85fbf8e4d4d6ba0b9b6f5eefc8f3421130dae7608f2e50b7a49e301cc43ae503e2f90406441d9841808b0c501d14efb4c4f72c41909c5e16bcd8fb930dbb4e33e872e01cbd722cfdef2757f63047752a742bb4a1ccd16f14d269f02b8e8ab89d24f567aa3c8727a236e8347be273a5a4469acc7f0e3e1a53b439bcb6674c5e04f7d131c676dc402e0908e787df9b6cbe09b07f1c040279573afcc707022c71ea3391fa8c906634cff310a34e01c787b0fe2b4eee309f54b863da8d1a51ce3124278a816a80ec60f57d1ba3c724940018733039acf434148c487af26a8b543af5cbff8d17caaad7272bb525d0d0b0d1efccfd25c1e885238946e3e47c913dd92fd7ecae09fe7c969c2891613faf269efa41e1cad8e6f7a64f43e63e6723bae4d897e5ed82de2f77d0c44fa6c7fd4ec82e5e187d4c10ea4111a97e9ee4936048b1c44152ffd211f5efe72d3736e511f4054eedbe6c4fcc4a3732ceb831a0bb816ef61d887893c679d06394fd9d663a3d843fd5ee97069887953141056b8d3f2add4ab860df430059e10cec370bf99e71394a1b24211d67d7dbc3ef8fe530e8d77599a64e02a5adcce852d8a15e65af93983accec9ce1238a9636e76025bff4ea9ef9d2534d91ca2ad691cd619aa873dbc831ec949338efa3c87e4d1f751143405bed0588fcc4b9b10314d0941bcbb6f6c4e0393124a85ee68af9bd8bc09793c05f0c28fe2ad06738ebab91fc8107829e04c462a60af7d652db4375639bc4516acbadacfbbbd9a5c428c576c94651d56b6db484dee8cb9b73def139cfb3742c37ec6eb31ab91850d8d34e148234a7004a777ff6e551868fe65d93c24f2d6ea0967d7e1b64bfdb656102fb607722f7bc5afc6c0324593786d1967ac3fea5bb3e4e1f711e1e9c2af914648c5f969eb425dab0960ada0c3df38a3f7f179c458589b1eaea8ca813c75c2cc054e950fd20a1db502d961bfccf523658bbc3f28b9bc4ed9ab58091526648b368fd34d45f733f4ecb1fbf4783dd025495e521fc8fd61ff1d56b921982058cf160756343d71bd649b6b571c757c5ecb91611fd485340dd7b399547b929eb3376fae954dd2a0b39b3714f8db146f945e718de5494a4cc43214942c5b5a90a30e2544a436d2c33b96e010bc1974ba40585e7e6b6935525956b7633d7207d045040b4768c09931e8b7cb63470420f9e8b58402937901448d9c55a0f52e3656179fdd3e5844dfd0a6f97a63741305b1445e4a02450b0cb054a89a2ab00fce0534a4c809a75b9e4dac7c663310e27fc5c45eb6d26bec73c2f4d807236c068f65a86e7f2f1a87cd50459771dd4ccfe1269d7c2cfd89fd471c6aa7d09e3bf5e5fb9d1b185cf0363873483323e536cda2c964fd5eddd8d8dab3fe913ca7ab9547698e231b48430d0cf2fb907f00b51ee8a0bfba72cb3e2194f171dff15dc5ae215b6332824f49068a4bb283ebd98a2ec325971049f046d64581767ba606b92edb49a6114b7881e716d36c2ae48d481f3fada96e145397b2a89fda9f97e55f7018a2c3768db815e5b3aee6a75861a2a484086ed60d4d96dfe2fa52945c33c0f1e5bf255030ac8af985b3d088db9d8c6807c0579a1ed66e10daaa82d9e4449bb29863a4cc578e2d0737c79cac5859ca802c8eed9d4ff2de9c38051d1fb7aacc9380eb804d120b8b000000",
  "txid": "91c069db1615633e1de84fab6824bbe4bb2771217815507a867f53f923850e15",
  "hash": "7bf071afca4085b4340701bfabb9880de243423302f3f2bb6469091f5440a86d",
  "size": 5085,
  "vsize": 2278,
  "version": 1,
  "locktime": 139,
  "vin": [
    {
      "txid": "34c39b55bf80fab44ed30df8f21998377fffdf0b0c3ed48fc186b61ffcf7bf0e",
      "vout": 0,
      "scriptSig": {
        "asm": "",
        "hex": ""
      },
      "txinwitness": [
        "e35c5aaeb6bf9d890bc91596099265ae57d07f478a50ab3c8611b55f5b2ecf87eeacb5af6a46b7c4043f1fb4e3921125870177f7107d0e8ddb4c5bfbccee9e1740fff3781ce70aff92e48d427f408b56e4562e1aa9a60c1c966ea0ac7311fa95d76d280ce4a46b5cad05a5a30860d3badcb44fa2bc2e6a85354127893710d32623e7d571d476f0c995ed45b824f8c13da8a17e5dced14371d69cb16af7a7b84a04ea90b267c632cc230dd37020c2c0d37eb1fce4da4a51ad7b30bed3f85eaffb0a6352b3b31b2d7e0c52a7c89019b0596dc9519687f20b5f7b3c67ea6f18380d32d5461c58af3ad092d561e52e7ae1dd5230161f2f4c26530750b1212aab0404b189a08462611ac47e32a30caf7108015e69b3633bad59904037b455154b2c8a94fd67641e7812dc428d58605cfbf26ebc5065a033ef3d389f84c4d3671837210491985ea78c28d497eb7d3e4448e1279edf2c91ebaaeb7de8e781519380118e2a9f50592e92f7aa9d6c2b8ff99f92ccac98323bdaa5f7ee2e36121bca5c61757c95ed9ff386ccce370e38c9b19a2178df8cb5ce2d2ce8a9fa0b4f835f631df30f56bba7f4ad5c56c5c2fe23977cf953bf63d5d37ae16d01d771eaff0f7f007f61b5092d4f81a6edef7fc51ed72c5f12c1d4590624362329c098347718de28657c9378eced0eea868f1544d8347caf80f25a9bea6aed6c778328109b51c852877cf9fb00f1e9e4f5f760a0fb810325b3b3b5fa591608cd4790594a080c7405a107733f6b95e4888ade14219e40b1f3b0a1737de45341569a8113766c97f1a399f3629a600e1f7c6ccfef480f3d05edaa246fe358e8209d1b9c9c96c35bde249dae64a766e75d0910a740909af75b8f416b9d5af726a419946bd770a1a645cfe0e83a24f532e855d870dd1c11a418ff11dac9c3b8cf23ddf571c71c365b4353d5147f40a7e3c7df459ec66c4a1a59b5ae0f3b902aa5a77a99c2a68953e83d9197a164e5057e1bb655b08730467a247163a9011dcd28e7dc4694e5ab672e6e206e744c4eb856deb563081e50d159d0a7fb0e6decf1a0f334a512be68b66c66f18d2d3d2490cccae26958d29f31ecb3ea12cfffd1b56cc859bbe0e9a04d9b114c2f03b45055ebac089646fa75dafb5d815848b3a79be824ee2226aab5e505dc23bb1b412d6b4fe0995df73d2518ff0d0a0030e35fe4ef6e06ffaffc92605da2fda3fca3c86a488a15f766e0b63875e4cedc349e7cef5067e67743b57f38efff474a38865db46bd4c4fc16656329d98b4b1403805db49d97559e377bf8fb498298d2ec498db97c317c88864f7c43625a0f1f7f3eb94fd475d839e3847f0cd02dd6261e3f863ce5430794189c4ed081688b9667623a3df64e6769a4b7633c7fac1a5500a76445dff0772daefd31505949fe34aa53c00b8cd23db12b8ce609c7c5655072e27533a6f4a066e39884005cee8153d5cb315115d2735924c871703513b0287019febabaad65d9134c4ca57625aa2cd699d56987eae4e89952ba46ef1b164396a58bd1199e44cbee0744ec40197c04830a96ef403b93c9b26290d1a194854f2b85ac0e19dd03ec76c96c23dff3694700c5a21903f68c31dc39f3b597c2605de60d8bb72d67866a91fc1ae256aa6ff020f944c3236e5e42b512a235cf785f3e5a45d3ac0440263eb7177bc9e98a999ee174d6fc7703d7451c8e09ae3d60ffd241852d35b7c06664b56322f8eb6f473615e8f6d7524ede14b5f13447bb6e9cfcbaed4154f48ea60fad17718b3823db2c7a1fc50309969b9ed4ad792f83b143ebd1a09b8a3afbf58b577bbfe4ca17fe62ee4fb1d241f0bd7ff875f2a0481ab3eb6accea1d3fe019b9d6189e74052da4daac56719d4029187d99bcd36d2c88a300ebc12f652a2aaab9a34c055bcb05eb0d3d92f440c483ee03e2d161abc9ac62a06bfa311b4167fbd0167077c087cdc480b380c51cdb19c373596d6b62e54b41740d8080b9999471c02971d00ff8aa8d0686609a19fdd352df7e54caa0e963cff498967bca9576a34ed6422936cea220ef3f084488cd7adfda03fee4f6bcbd63fb380a0c84874634cb2e21b6e2810f26d271b79b18df3b950f760b7013b3d4c25e7eff1f55acaf0aaecdbd9d80f68ab78944e02c2fc535cc992afb9f72433f53acf31281b3178dc4ac3cafc44c060302e726ae31f70b3508535d6bf9945d879a023af107b0f94530f8b9427e6898ac33b4c3d463350d47f2c2c7170aa1e15497c535bda4a3f9550bfe0b66a4efa6b7b3b4839f40bb0a3b6c1a05d48883dd0fd3e473f633f1c87f899453188c7b6ef9ecfa778b4b1ab201524a01ed2df2458942d7e7a959f25041155d1875f99459a548ecea2ffbd1836e8dc34bab8e6cb9212fc4933505c7f3e1c65cd4bbc8055426a9d230b0114271552f0eace6ac1d6729337da14ef95b0d12aafbbacd70ca20f6ab0da08a05ef3a30732aaa843e9a5abaf6faac2b0e81512317e613e946b917a96bb6fa3c7e81ff8fe72106b5cb9c9ba319eed9aed7f4970223ce1e09719ce144ffaa69247d449ebb7df1be2f6c7eda1166bd33bab966a9c4cd72becda84d21a4f54cba4f73aea62eb1118a7a46c77e95dadcc5b566a652ffd03010268269f9aa4cb66e1890e98a2c7e196f5e136359d1323c5511ca44d9fe246e04c59ca408531efe4b8f87bbf54a9628d57af523f14e8cc5556158c90bafe083c065d03ff2ed37367c0f8e292870779435993ee9ba05b3d331779111bc1ee2f64dcf84c48f223f39175730bc16a4872498ed3c8d0b6111bc561e6ba0af9afcaa127cd2d6208fa51d82fc5f08e95577d0ed4fcef2ce078a7b48f46116fd83c61146e3c42bd514b7b2269b84fe2f378822a933593587e2ea4108e3c64270ccad80bea60e5f309684babd178247071ee38d372a8ccdad1fe73547271a56bdf741dba7d06e9426a5b18a511fe3a5de5a1c39db768cb8aa8e50129c20ac656b847f1a086209e2f1018856879630ecc554873b203d151b8a9043157d64b3aa54d01c670a0837015c94412752707f308b83acc06c889a0743d300ade29721bfb006d20dfaa6e05627920e564d383a86ce83654e200c719c9597595b924159f808ad2918877b70e6bf49a780aa03338f04c33157768ed851d6349c593c3f2f238c5788550c95be321b694c1031160393c98fdb18b0f52ef1c5084a4480226e21cbe5cac63fea3f861325d587af8864badc12dae6e79d79d0626b922ffda919911ff44484b55bf5e1b2e6ac28bf11405a12f77447efe375c225fdc3351c20385564718081b2c5d1d2d3e512393b54606573939bafb2c0c3c9f2ff06090a0d273050555a6266888f989fafc6c7e6f0f2f7050d14454957586170797a7e8d979a9ba8b1cae900000000000000000e1e344801",
        "0061e417f257a7fb446602234307ff211f5192ac12cd6fdf71de6e6154e55633d6836dbe4a52fd74a238d027e675b85dcdfa075896d914f7349574b569509092e4676a9142428c7c972ea9b08b83fadd68d8c3f04b5f9cb9b17b8abd9537a5298fbdbf09b538c9e76d2b58892fd4ea7f7bba1546b56f2bafa85fbf8e4d4d6ba0b9b6f5eefc8f3421130dae7608f2e50b7a49e301cc43ae503e2f90406441d9841808b0c501d14efb4c4f72c41909c5e16bcd8fb930dbb4e33e872e01cbd722cfdef2757f63047752a742bb4a1ccd16f14d269f02b8e8ab89d24f567aa3c8727a236e8347be273a5a4469acc7f0e3e1a53b439bcb6674c5e04f7d131c676dc402e0908e787df9b6cbe09b07f1c040279573afcc707022c71ea3391fa8c906634cff310a34e01c787b0fe2b4eee309f54b863da8d1a51ce3124278a816a80ec60f57d1ba3c724940018733039acf434148c487af26a8b543af5cbff8d17caaad7272bb525d0d0b0d1efccfd25c1e885238946e3e47c913dd92fd7ecae09fe7c969c2891613faf269efa41e1cad8e6f7a64f43e63e6723bae4d897e5ed82de2f77d0c44fa6c7fd4ec82e5e187d4c10ea4111a97e9ee4936048b1c44152ffd211f5efe72d3736e511f4054eedbe6c4fcc4a3732ceb831a0bb816ef61d887893c679d06394fd9d663a3d843fd5ee97069887953141056b8d3f2add4ab860df430059e10cec370bf99e71394a1b24211d67d7dbc3ef8fe530e8d77599a64e02a5adcce852d8a15e65af93983accec9ce1238a9636e76025bff4ea9ef9d2534d91ca2ad691cd619aa873dbc831ec949338efa3c87e4d1f751143405bed0588fcc4b9b10314d0941bcbb6f6c4e0393124a85ee68af9bd8bc09793c05f0c28fe2ad06738ebab91fc8107829e04c462a60af7d652db4375639bc4516acbadacfbbbd9a5c428c576c94651d56b6db484dee8cb9b73def139cfb3742c37ec6eb31ab91850d8d34e148234a7004a777ff6e551868fe65d93c24f2d6ea0967d7e1b64bfdb656102fb607722f7bc5afc6c0324593786d1967ac3fea5bb3e4e1f711e1e9c2af914648c5f969eb425dab0960ada0c3df38a3f7f179c458589b1eaea8ca813c75c2cc054e950fd20a1db502d961bfccf523658bbc3f28b9bc4ed9ab58091526648b368fd34d45f733f4ecb1fbf4783dd025495e521fc8fd61ff1d56b921982058cf160756343d71bd649b6b571c757c5ecb91611fd485340dd7b399547b929eb3376fae954dd2a0b39b3714f8db146f945e718de5494a4cc43214942c5b5a90a30e2544a436d2c33b96e010bc1974ba40585e7e6b6935525956b7633d7207d045040b4768c09931e8b7cb63470420f9e8b58402937901448d9c55a0f52e3656179fdd3e5844dfd0a6f97a63741305b1445e4a02450b0cb054a89a2ab00fce0534a4c809a75b9e4dac7c663310e27fc5c45eb6d26bec73c2f4d807236c068f65a86e7f2f1a87cd50459771dd4ccfe1269d7c2cfd89fd471c6aa7d09e3bf5e5fb9d1b185cf0363873483323e536cda2c964fd5eddd8d8dab3fe913ca7ab9547698e231b48430d0cf2fb907f00b51ee8a0bfba72cb3e2194f171dff15dc5ae215b6332824f49068a4bb283ebd98a2ec325971049f046d64581767ba606b92edb49a6114b7881e716d36c2ae48d481f3fada96e145397b2a89fda9f97e55f7018a2c3768db815e5b3aee6a75861a2a484086ed60d4d96dfe2fa52945c33c0f1e5bf255030ac8af985b3d088db9d8c6807c0579a1ed66e10daaa82d9e4449bb29863a4cc578e2d0737c79cac5859ca802c8eed9d4ff2de9c38051d1fb7aacc9380eb804d120b"
      ],
      "sequence": 4294967294
    }
  ],
  "vout": [
    {
      "value": 499957.2902,
      "n": 0,
      "scriptPubKey": {
        "asm": "1 933a7dc7f2c0f11bee5050d39dc3607ac6c0aa9b70ebcb1442dc34dd3e30c894",
        "hex": "5120933a7dc7f2c0f11bee5050d39dc3607ac6c0aa9b70ebcb1442dc34dd3e30c894",
        "reqSigs": 1,
        "type": "witness_v1_scripthash",
        "addresses": [
          "3QJmnh"
        ]
      }
    },
    {
      "value": 1.0,
      "n": 1,
      "scriptPubKey": {
        "asm": "OP_RETURN c7cdf10f0103ac38e6367912fa07cf7d50797b8a2868c04f806a1956cdb4db1d 39699ef78951eaae9f9872887fbf8dc80b84a5bf35c1b10fa36fb3fbf9b992751949bed7a971ca8ebfb852a85f9fade82ba4859f15e1912f834f93dbd999b2557929deb7c911aaeedfd832c83fffcd884bc4e5ff7581f14fe32ff3bbb9f9d2355909fe97e9318acefff812e81fdfeda86be4c5df55a1d16fc30fd39b99d9f215b9e91e7709d16a2e1f18f208ff3f0d488b04253fb541318f23ef337b793912f599c93e5729f14a0e3f38d228df1f2d68ab24051f956111af03cf135b591932d5f9a95e3749912a6e5f58b248bf7f4d08cb44657ff50171cf63af733b397952b5d9897e1769b10a4e7f7892689f5f6d28eb64455fd52151ef438f531b1959729539699ef78951eaae9f9872887fbf8dc80b84a5bf35c1b10fa36fb3fbf9b992751949bed7a971ca8ebfb852a85f9fade82ba4859f15e1912f834f93dbd999b2557929deb7c911aaeedfd832c83fffcd884bc4e5ff7581f14fe32ff3bbb9f9d2355909fe97e9318acefff812e81fdfeda86be4c5df55a1d16fc30fd39b99d9f215b9e91e7709d16a2e1f18f208ff3f0d488b04253fb541318f23ef337b793912f599c93e5729f14a0e3f38d228df1f2d68ab24051f956111af03cf135b591932d5f9a95e3749912a6e5f58b248bf7f4d08cb44657ff50171cf63af733b397952b5d9897e1769b10a4e7f7892689f5f6d28eb64455fd52151ef438f531b1959729539699ef78951eaae9f9872887fbf8dc80b84a5bf35c1b10fa36fb3fbf9b992751949bed7a971ca8ebfb852a85f9fade82ba4859f15e1912f834f93dbd999b2557929deb7c911aaeedfd832c83fffcd884bc4e5ff7581f14fe32ff3bbb9f9d2355909fe97e9318acefff812e81fdfeda86be4c5df55a1d16fc30fd39b99d9f215b9e91e7709d16a2e1f18f208ff3f0d488b04253fb541318f23ef337b793912f599c93e5729f14a0e3f38d228df1f2d68ab24051f956111af03cf135b591932d5f9a95e3749912a6e5f58b248bf7f4d08cb44657ff50171cf63af733b397952b5d9897e1769b10a4e7f7892689f5f6d28eb64455fd52151ef438f531b1959729539699ef78951eaae9f9872887fbf8dc80b84a5bf35c1b10fa36fb3fbf9b992751949bed7a971ca8ebfb852a85f9fade82ba4859f15e1912f834f93dbd999b2557929deb7c911aaeedfd832c83fffcd884bc4e5ff7581f14fe32ff3bbb9f9d2355909fe97e9318acefff812e81fdfeda86be4c5df55a1d16fc30fd39b99d9f215b9e91e7709d16a2e1f18f208ff3f0d488b04253fb541318f23ef337b793912f599c93e5729f14a0e3f38d228df1f2d68ab24051f956111af03cf135b591932d5f9a95e3749912a6e5f58b248bf7f4d08cb44657ff50171cf63af733b397952b5d9897e1769b10a4e7f7892689f5f6d28eb64455fd52151ef438f531b1959729539699ef78951eaae9f9872887fbf8dc80b84a5bf35c1b10fa36fb3fbf9b992751949bed7a971ca8ebfb852a85f9fade82ba4859f15e1912f834f93dbd999b2557929deb7c911aaeedfd832c83fffcd884bc4e5ff7581f14fe32ff3bbb9f9d2355909fe97e9318acefff812e81fdfeda86be4c5df55a1d16fc30fd39b99d9f215b9e91e7709d16a2e1f18f208ff3f0d48868e6d37ec4a793bc7b3a021c0ad75ff1300afe2d2ebd0657e4c677c70402f9d",
        "hex": "6a20c7cdf10f0103ac38e6367912fa07cf7d50797b8a2868c04f806a1956cdb4db1d4db00439699ef78951eaae9f9872887fbf8dc80b84a5bf35c1b10fa36fb3fbf9b992751949bed7a971ca8ebfb852a85f9fade82ba4859f15e1912f834f93dbd999b2557929deb7c911aaeedfd832c83fffcd884bc4e5ff7581f14fe32ff3bbb9f9d2355909fe97e9318acefff812e81fdfeda86be4c5df55a1d16fc30fd39b99d9f215b9e91e7709d16a2e1f18f208ff3f0d488b04253fb541318f23ef337b793912f599c93e5729f14a0e3f38d228df1f2d68ab24051f956111af03cf135b591932d5f9a95e3749912a6e5f58b248bf7f4d08cb44657ff50171cf63af733b397952b5d9897e1769b10a4e7f7892689f5f6d28eb64455fd52151ef438f531b1959729539699ef78951eaae9f9872887fbf8dc80b84a5bf35c1b10fa36fb3fbf9b992751949bed7a971ca8ebfb852a85f9fade82ba4859f15e1912f834f93dbd999b2557929deb7c911aaeedfd832c83fffcd884bc4e5ff7581f14fe32ff3bbb9f9d2355909fe97e9318acefff812e81fdfeda86be4c5df55a1d16fc30fd39b99d9f215b9e91e7709d16a2e1f18f208ff3f0d488b04253fb541318f23ef337b793912f599c93e5729f14a0e3f38d228df1f2d68ab24051f956111af03cf135b591932d5f9a95e3749912a6e5f58b248bf7f4d08cb44657ff50171cf63af733b397952b5d9897e1769b10a4e7f7892689f5f6d28eb64455fd52151ef438f531b1959729539699ef78951eaae9f9872887fbf8dc80b84a5bf35c1b10fa36fb3fbf9b992751949bed7a971ca8ebfb852a85f9fade82ba4859f15e1912f834f93dbd999b2557929deb7c911aaeedfd832c83fffcd884bc4e5ff7581f14fe32ff3bbb9f9d2355909fe97e9318acefff812e81fdfeda86be4c5df55a1d16fc30fd39b99d9f215b9e91e7709d16a2e1f18f208ff3f0d488b04253fb541318f23ef337b793912f599c93e5729f14a0e3f38d228df1f2d68ab24051f956111af03cf135b591932d5f9a95e3749912a6e5f58b248bf7f4d08cb44657ff50171cf63af733b397952b5d9897e1769b10a4e7f7892689f5f6d28eb64455fd52151ef438f531b1959729539699ef78951eaae9f9872887fbf8dc80b84a5bf35c1b10fa36fb3fbf9b992751949bed7a971ca8ebfb852a85f9fade82ba4859f15e1912f834f93dbd999b2557929deb7c911aaeedfd832c83fffcd884bc4e5ff7581f14fe32ff3bbb9f9d2355909fe97e9318acefff812e81fdfeda86be4c5df55a1d16fc30fd39b99d9f215b9e91e7709d16a2e1f18f208ff3f0d488b04253fb541318f23ef337b793912f599c93e5729f14a0e3f38d228df1f2d68ab24051f956111af03cf135b591932d5f9a95e3749912a6e5f58b248bf7f4d08cb44657ff50171cf63af733b397952b5d9897e1769b10a4e7f7892689f5f6d28eb64455fd52151ef438f531b1959729539699ef78951eaae9f9872887fbf8dc80b84a5bf35c1b10fa36fb3fbf9b992751949bed7a971ca8ebfb852a85f9fade82ba4859f15e1912f834f93dbd999b2557929deb7c911aaeedfd832c83fffcd884bc4e5ff7581f14fe32ff3bbb9f9d2355909fe97e9318acefff812e81fdfeda86be4c5df55a1d16fc30fd39b99d9f215b9e91e7709d16a2e1f18f208ff3f0d48868e6d37ec4a793bc7b3a021c0ad75ff1300afe2d2ebd0657e4c677c70402f9d",
        "type": "nulldata"
      }
    }
  ],
  "blockhash": "fe774b47c0e88c04e0fb50de4979690042b0828e482e852985a1cce393f947a2",
  "confirmations": 1,
  "time": 1764183806,
  "blocktime": 1764183806
}