{
  "hex": "010000000001011e977308beb7c07832f1419b7b25423c76a9788489c05a1c98b5e14b2048683d0000000000feffffff0200e1f50500000000fdd5046a203366be587c419e70bc5ec4f61006b1db7fa5522ccfae83ece8727eddf2b18e784db0045010a5404c7c2c32802f97fe392915b6b47f96d3955caa72d45070012b2716d3703085606c5c0c12a00fb7de19093596945fb6f3b57c8a52f47050210b0736f31050e5000c3c6c72c06fd7be796955f6f43fd693d51cea32941030416b6756933070c5202c1c4c52e04ff79e594975d6d41ff6b3f53cca12b43010614b4776b3d09025c0ccfcacb200af177eb9a9953634ff165315dc2af254d0f081aba79653f0b005e0ecdc8c92208f375e9989b51614df367335fc0ad274f0d0a18b87b67390d065808cbcecf240ef573ef9e9d57674bf5613559c6ab21490b0c1ebe7d613b0f045a0ac9cccd260cf771ed9c9f556549f763375bc4a9234b090e1cbc7f6335010a5404c7c2c32802f97fe392915b6b47f96d3955caa72d45070012b2716d3703085606c5c0c12a00fb7de19093596945fb6f3b57c8a52f47050210b0736f31050e5000c3c6c72c06fd7be796955f6f43fd693d51cea32941030416b6756933070c5202c1c4c52e04ff79e594975d6d41ff6b3f53cca12b43010614b4776b3d09025c0ccfcacb200af177eb9a9953634ff165315dc2af254d0f081aba79653f0b005e0ecdc8c92208f375e9989b51614df367335fc0ad274f0d0a18b87b67390d065808cbcecf240ef573ef9e9d57674bf5613559c6ab21490b0c1ebe7d613b0f045a0ac9cccd260cf771ed9c9f556549f763375bc4a9234b090e1cbc7f6335010a5404c7c2c32802f97fe392915b6b47f96d3955caa72d45070012b2716d3703085606c5c0c12a00fb7de19093596945fb6f3b57c8a52f47050210b0736f31050e5000c3c6c72c06fd7be796955f6f43fd693d51cea32941030416b6756933070c5202c1c4c52e04ff79e594975d6d41ff6b3f53cca12b43010614b4776b3d09025c0ccfcacb200af177eb9a9953634ff165315dc2af254d0f081aba79653f0b005e0ecdc8c92208f375e9989b51614df367335fc0ad274f0d0a18b87b67390d065808cbcecf240ef573ef9e9d57674bf5613559c6ab21490b0c1ebe7d613b0f045a0ac9cccd260cf771ed9c9f556549f763375bc4a9234b090e1cbc7f6335010a5404c7c2c32802f97fe392915b6b47f96d3955caa72d45070012b2716d3703085606c5c0c12a00fb7de19093596945fb6f3b57c8a52f47050210b0736f31050e5000c3c6c72c06fd7be796955f6f43fd693d51cea32941030416b6756933070c5202c1c4c52e04ff79e594975d6d41ff6b3f53cca12b43010614b4776b3d09025c0ccfcacb200af177eb9a9953634ff165315dc2af254d0f081aba79653f0b005e0ecdc8c92208f375e9989b51614df367335fc0ad274f0d0a18b87b67390d065808cbcecf240ef573ef9e9d57674bf5613559c6ab21490b0c1ebe7d613b0f045a0ac9cccd260cf771ed9c9f556549f763375bc4a9234b090e1cbc7f6335010a5404c7c2c32802f97fe392915b6b47f96d3955caa72d45070012b2716d3703085606c5c0c12a00fb7de19093596945fb6f3b57c8a52f47050210b0736f31050e5000c3c6c72c06fd7be796955f6f43fd693d51cea32941030416b6756933070c5202c1c4c52e04ff79e594975d6d41ff6b3f53cca12b43010614b4776b3d09025c0ccfcacb200af177eb9a995365d4c3848107f087a3b5bab7c41143df473d00d6d87e7943cd26a04cec5c0f4ab407886de782d000022512053a95ce524a9d6c7be3b2d3942d29950589f33e3f5ebdab7da02cd0bddc2c1b002fd7509f6c54801bdefe874d80fcbb5744eae8a71f0ab380728fb69fdee8700b82292b7fa6f6d7b5006495cd561334b9e8bbf7eae6243fea0c642f524f2920263792eb660a23faad914e3c61a153ac097814d2095c0fe85a79894a11cd056870d734f4aa6e288e3a83f3626a8ff50beaa30bcbc3ad43ac3cd6041a67a8b8c63000d211f428447302cb97d181ae7d7d1cba05bb2953823b5080627631515674c7c750438e24e588047f4ae6aa4446a161022a231c41c6d5757691fb40c4d5de66529b6249dafc28f11c4510c14458d2d2e8e37e2aafa261eb3cf7776b3d912f994ce5e162dd5342f904c4364e5e4cf7676bb569d7e33ce82ade1fbd9a38b7f005661c01c11ddd5c6157d7ed4d1a89066671ef165a7e70d2e61d82468fdc5b77f39912f48b100b723405373900d710a4b2e24330564ac41f540c921bab599abdc05797d1f089ec308576d105d72b428f8543f25f368a87d5fb021030be6a8641cd53218e71c61fe9dca4171f38ad5c9a9f7b8f3bffa7b64b0e7adc139a950dd2ac780ac656fe0ed8f6d665b91e25e14e41d9221a9aadb96fc4764ea0d44bdff212a37b7fc1795b413d018fccadd39ff07a4d4bb93cf57340de73d5d2b9dc6e20b4e584ae218d284c2503f6c78a7c0c78ea758c3bb224d810bdfc5b200142d7d978281aaa3fbddcdc72733baf9b32eb5b0ecb408a292f7fe3119dea8a6b1c666fbbf6baa7ab400373f7da92f64e80b9f46ea5f3c55dc215cce7bb24caef69f2b87ca4b4b35a83d36fdf943720d42ec78e443b5c9024c0a54dfd323997b2666315caec8a8dc7d780413b12de442c1be99f0652522b9f9887e85cd9f0a22530475d7fb77a75d82acf4adc20287df0f7bcccc60aefc8d3ad765b11156e029ae10bfd9c0da2721b8985ea99efb25912e0087e8139baff0b7faa3a27ad2b4ba59dc59f8f02647f9fe263d59afe0ebc840f902dba446d7e75241295d3b53253e91d2c410cb70cecfaf9db49d901097d5ce7eae6d6dac97fbb6e009f302360ce426631e7bbaaf9ca303b8dd12bb41384a4cb69997b63fcbcce3846fa86f7afb3454fbde0646e8736315f09ac725e79ed38fe863e01ead8a0c8d9e975386f300ecca1399d19e5e9a3caff55c9885508f6e8ad1b5ce7d7c33af97b3f4e8f67564a7437e022721bb0c137b13b9c949a285bf62a71eeb528b69b0b94d832d3a257aa1a120615cff717d5297d3d410b390e82cc4fd1c6d9c83773d8ed62f6e5c39f67284274b0d5c3b2f77ba904c3488dab586d7d9416b11fb6bca6eb4e73e5bfc44f39c48805a62ae2e529f002e7d8017ca5baf37c99df4399af8faedb785590f25913f7bab1d97c4499be62ed8e2d8806f0dc7f305ab9932b8ca9ff459e5becd7441d708101ae20c2eb72a9f12b97117f46fa59b4a858efa6e5c5c42c0df250ed3df175be9527ee8cbaf144ab22bd5c6729a7986c6de1c0e8661e3e6ca978a63f5d6f302ada22ef21f5eeec9f35878a330715d5372d208128e71079b1b1101f35a272f6dbbe6bdc51d34c65dfc872559faff1c9f5f98d353b69cbd2c1fbe3e8d55723fd895deb21600c4188d5e25bec3cecb1b6efac33b4b7f0a51d41d1f88a9c55b051cb2e36a5da2c6990207b7df9c9b0ff3bf2b0f3a1ae247a7cd4fa7f85cd30b013795dfcfbd7c916c863e6b479700e4bd34f927b355990ad7f4a338a198d47fc5cd62413dc16814d96d4caae0c4dc3fb1ebd5bedc856218c30695aa73a24f2ad05ca052f857da82d0c28dc8ac90abd04b9b716e55072c7d9b372dc8c41031a33fc5632fec859b3ed0d3c72eb70364ef01812750d8ab2f7a8a7aa81e50e97fd1828c8a486d448a83a7662661499dfc3123b49da154f4c16636393af6bbf9c9f81ee392404241ee63be0719d6ffae4b411826f98e9c12f85ce572b1ebc2bdf0b9ba8916a111726cc79be7a3a7103f41f67246fdbffce310963128ff2a6c633488423c33983c70d33ed1c84b52a7cdbc831c6d85b6dbe70cb5a3f5e1e76a97a6172f9d7b1f8af10f3d6b7c9a226c47fcb4a258169b52e75ade465d11e081b9764879d8b27fe7ddf0d811baa8029b65ab854e131d6039f30cde1e6365bdf858206d8d32cb6e546b89e7e7fdd564595793e3dd114b34cecb28611f2a570dc73cae6b3ba7a5b3f9b7b274efea1de9c8f834651fc4dd9e3b3e73223e4f0fc155d6fda071bc2c6893e687f8b72e504e1ebaf1bd369d4e8a79f4753e42aaab7e46a205501147fad20140ebd76a3abefc26f037667734a5b785c68d78551b63aaf128fd0a523f6e6f8539ce2718776ac12282bc28a4324b6643aec495e7e4ddc6255b57cccf91a1cf4d1c40a5887c2474e96c5d8f5b6bc3b1f4dcdf6f3be5b4dc48bd11431163bc5c556454d8591c76872cd787fcb103b700ecf999ac8073f7a146b5e88fc7bb787ad8c847ca41f3fec9f00f6c06492775c20bd3d8ce165bd48d668cc294167bb2484a721bc0cabd51a87f8073bdc1087fad3bde0d38d784620a877bcf6f5d1e74d8c4cde79f1b403833ae3c2f45ccd0ec4b3739f05a86b635ec01c3d702e58dc1c267f691338192a60254ffc24b9a5e50c04bd00b4b6dbf0ba1c46991eaa47a70a358dd0c5dae3587b3ebdfb8f55f58eb617fb37bc871a1201dda12fa300a167e6087dd2e17a5d48cef61312c54b8c8419c68f3214e13088afc588202e6ce7c327f06ccc9bfb8ab40df618a5cc06196554d177652e4ab5e8dccf969da280bf42de6c9c50b6334b89e9d740ad36c3d1b53dd4ef2e12ce291c5e88e61900abf684a8a5ccf107bf7493ea99e53b1d5d5aab11d4a7c555164c9ab7ae6896569c65bf32e7aba45b2dc4159962a3b08ec86a73928a5f4c0bb86fc58270ea88643c40e35fb3207b4641a21e249f0bb74e34259a2b5892726601bb08745b8b009b882f88001e081b0142875c78d7bbc4179354eed14ae534512f31eae6d013699446e83cee71977dd82dfa7a4a1ff58f7fa144649028ed3385d1b23872b793ffa2e93b74001ba26e1e4f337a454605ca5a00ade16eb3dc71ce0ca38306dec0d8fc44352fb6d7b8dc23f70a8b37497874cd9b791dcb4931739a6af815dbd4876e443fb03d067a70798a3370dfe5cf083cd56384df12b37387c9992850a92b092022c875d84b03f12001982f27ffb9ec82403ca5a78d7f2d657eab2130fb46b2e2ea2bd4e9e73afb0c33191001b80ccf50e7396db7fa91a33aa6ed493ae7003673916047f69f1cef8ff42434d1cba4e309819781ad3c1e2370712ec2b282a7a021e5d8b2466b6dee04d8e284257606c788fa5e0e5eb0c2a4178aab2c8cfdee2ed05071113717f858d999aa1b7def4fe06171c355052597b8f9baab4cad2e0000000000000000000000000000000000000000000000000000000000b16253401fd2105007edec4ea914dea48bd1157af3292abdd5305ebb81bb2b764f15ff8ea8b36b2fa0be57734a890e873a176b3e3486bdb9436faf8cb2d88f1cfa79bb8a16d0260805613f3b4612b8f23503e3e05871d84fea17c1a95b6058be2c2ce43be4b14e5030a32d7150d9c6c4ef9d54a9df9c88e6d710617957cd4bb34b29ba7a269624ba7d77093d9b867b0009fed04cb01f79b680ae0b32e582c28d3f272ecfb3369acd51a667ad02fc2a51da8f0695b468e98b96f1d7bc8511e9072aa39cf2ff79b0ace1201f21c1496979ba128733111e5621c3264194ea30c28c9bb0ccbc30a8c7c328718e1a9a530538abbcd890430de5eaa7b6eac97167037f10d2c96339ab7dfb684d0d69e246c62430fc5d25c6fcb02873d1bfb64cee8c1639037d29cfaf6d2099cdec7babd1980886409a5a8f24b754b2fae7de9111ab68ed3f50949540e138aaf8e11cd7f615639d14cea33dd7e95cdac9d4b1eca11e8711be19afdb426aaf4a17347b521fdf08e2350afd81fd897bf9f92b16da9f2f932efe8e115f12a2fc273367f7e2a830a5427688a9712fca74cd537b661cd85e0970a9509beff04f2d6c42c9ee5b1c64530997631ba9978587b9508daf49d34083d8f7e0545acfbac2017b4391151ff9ad938f66b1a26b79c0d2284a74de6309c56abde8ab6d5108462d294b33b4027acaddbb09bae4f9640cbcd2804fd54e40e1ce59558edbda36ab9c382d1ddbfe16bf36caa21795218ae886b8c69d062fc73b3f2284bf2ec53138de08a2fbd879ad1bcdfd34af1accf515ab798afe92ffa166e4ccbb16b4a26640390de5da0dc07823a11b158f354d05d748afac460ab83c101ad7e7ea34b17d1f6494a7ab0efc24c0e6f858f951376d6fab2dbaac3717a36866c4861a109a74563f7f715e200e9e0c38a96e4d7e0d0d66a8c17dba457940474f1bcedb4192be92831f9f58b9d26f2882547ed48bf6176f767c3891a001e5a02836514c31a58c6d41fb719c87924ab494759ab4094ea423e12c0724cecd9b34800104c6a928ee8cb20f5894847b6fa7c835c3f3c9e1eb220fb037f71bd6fa9d607ac858897b61bb2a30d4f5347412fd7b07e43d2a8faed8e10ba9e3e5695729788c843f6182966018920ec6e3407affc581a3dead1197522e58acae453d0aa7b93c0634a3af792fd099bc96c47e11cc7f05c79468127e5a048be9c4d5a231b818fc57897611c0f5e31441293194bfff22844ac60638c48ac6a6380b5ea1f98e8e923869689090b9eb1655d7178a1b8e1e50070b4666608af27891dec40fbb004df4153e05391f0b4d787750283d9455bd67a71168a7b1107e6db102f0fefc97a18982e32c128d1f5dcac64be0d54c8b54715998b23ae01ff89d1dfa616792a962c8800baadd6857dba7bcd42a7c75ee31fc0690d57d0d4ddc7646ac32574f23e646a9858abf51bd6a9993fda7c5dfcefbb1e8a73b8a6a65833cc71985c3833d990bf22c3cc5714a139622255bf7b3cce11190c6c477ccf3ba84617f73108e89ec5951e776f2b0474a3a26ac441b06a1cb85d9e94ef6f89e40c594d1fcb209846362664221044a3d05015a319eb1f2aac03f86a52227f2c65207db4c6013fcbd4bade91b157c942d68f3866e7e2f4549e67586050cc26c8270f019f9f2358f8d97dccd88af842c1aea3ad8ef87a7e03fdb0b8e8fdf2935212bc16253c632c7ddb1a073ccc6d24172400e023d7112fe05e29deb37278f357108ada4ee32d58990d4774f4fba44ec41e52c42ba7cb96799dca4feadec40353a0b9e6af837a2bd4728f89a97a67872cc274ac841092710a5194e5a09cbaeaa18972bcc784b6be1edcddc2ab16c0e1865e7d000000",
  "txid": "98cecf26916e8d65881b858cbf10243674756c381baf87dce2e5968c621f8037",
  "hash": "e0367bf540ff943cb3a1410a8177f381bd67d0bf5d949fa4c57e54a4ab1e3c97",
  "size": 5085,
  "vsize": 2278,
  "version": 1,
  "locktime": 125,
  "vin": [
    {
      "txid": "3d6848204be1b5981c5ac0898478a9763c42257b9b41f13278c0b7be0873971e",
      "vout": 0,
      "scriptSig": {
        "asm": "",
        "hex": ""
      },
      "txinwitness": [
        "f6c54801bdefe874d80fcbb5744eae8a71f0ab380728fb69fdee8700b82292b7fa6f6d7b5006495cd561334b9e8bbf7eae6243fea0c642f524f2920263792eb660a23faad914e3c61a153ac097814d2095c0fe85a79894a11cd056870d734f4aa6e288e3a83f3626a8ff50beaa30bcbc3ad43ac3cd6041a67a8b8c63000d211f428447302cb97d181ae7d7d1cba05bb2953823b5080627631515674c7c750438e24e588047f4ae6aa4446a161022a231c41c6d5757691fb40c4d5de66529b6249dafc28f11c4510c14458d2d2e8e37e2aafa261eb3cf7776b3d912f994ce5e162dd5342f904c4364e5e4cf7676bb569d7e33ce82ade1fbd9a38b7f005661c01c11ddd5c6157d7ed4d1a89066671ef165a7e70d2e61d82468fdc5b77f39912f48b100b723405373900d710a4b2e24330564ac41f540c921bab599abdc05797d1f089ec308576d105d72b428f8543f25f368a87d5fb021030be6a8641cd53218e71c61fe9dca4171f38ad5c9a9f7b8f3bffa7b64b0e7adc139a950dd2ac780ac656fe0ed8f6d665b91e25e14e41d9221a9aadb96fc4764ea0d44bdff212a37b7fc1795b413d018fccadd39ff07a4d4bb93cf57340de73d5d2b9dc6e20b4e584ae218d284c2503f6c78a7c0c78ea758c3bb224d810bdfc5b200142d7d978281aaa3fbddcdc72733baf9b32eb5b0ecb408a292f7fe3119dea8a6b1c666fbbf6baa7ab400373f7da92f64e80b9f46ea5f3c55dc215cce7bb24caef69f2b87ca4b4b35a83d36fdf943720d42ec78e443b5c9024c0a54dfd323997b2666315caec8a8dc7d780413b12de442c1be99f0652522b9f9887e85cd9f0a22530475d7fb77a75d82acf4adc20287df0f7bcccc60aefc8d3ad765b11156e029ae10bfd9c0da2721b8985ea99efb25912e0087e8139baff0b7faa3a27ad2b4ba59dc59f8f02647f9fe263d59afe0ebc840f902dba446d7e75241295d3b53253e91d2c410cb70cecfaf9db49d901097d5ce7eae6d6dac97fbb6e009f302360ce426631e7bbaaf9ca303b8dd12bb41384a4cb69997b63fcbcce3846fa86f7afb3454fbde0646e8736315f09ac725e79ed38fe863e01ead8a0c8d9e975386f300ecca1399d19e5e9a3caff55c9885508f6e8ad1b5ce7d7c33af97b3f4e8f67564a7437e022721bb0c137b13b9c949a285bf62a71eeb528b69b0b94d832d3a257aa1a120615cff717d5297d3d410b390e82cc4fd1c6d9c83773d8ed62f6e5c39f67284274b0d5c3b2f77ba904c3488dab586d7d9416b11fb6bca6eb4e73e5bfc44f39c48805a62ae2e529f002e7d8017ca5baf37c99df4399af8faedb785590f25913f7bab1d97c4499be62ed8e2d8806f0dc7f305ab9932b8ca9ff459e5becd7441d708101ae20c2eb72a9f12b97117f46fa59b4a858efa6e5c5c42c0df250ed3df175be9527ee8cbaf144ab22bd5c6729a7986c6de1c0e8661e3e6ca978a63f5d6f302ada22ef21f5eeec9f35878a330715d5372d208128e71079b1b1101f35a272f6dbbe6bdc51d34c65dfc872559faff1c9f5f98d353b69cbd2c1fbe3e8d55723fd895deb21600c4188d5e25bec3cecb1b6efac33b4b7f0a51d41d1f88a9c55b051cb2e36a5da2c6990207b7df9c9b0ff3bf2b0f3a1ae247a7cd4fa7f85cd30b013795dfcfbd7c916c863e6b479700e4bd34f927b355990ad7f4a338a198d47fc5cd62413dc16814d96d4caae0c4dc3fb1ebd5bedc856218c30695aa73a24f2ad05ca052f857da82d0c28dc8ac90abd04b9b716e55072c7d9b372dc8c41031a33fc5632fec859b3ed0d3c72eb70364ef01812750d8ab2f7a8a7aa81e50e97fd1828c8a486d448a83a7662661499dfc3123b49da154f4c16636393af6bbf9c9f81ee392404241ee63be0719d6ffae4b411826f98e9c12f85ce572b1ebc2bdf0b9ba8916a111726cc79be7a3a7103f41f67246fdbffce310963128ff2a6c633488423c33983c70d33ed1c84b52a7cdbc831c6d85b6dbe70cb5a3f5e1e76a97a6172f9d7b1f8af10f3d6b7c9a226c47fcb4a258169b52e75ade465d11e081b9764879d8b27fe7ddf0d811baa8029b65ab854e131d6039f30cde1e6365bdf858206d8d32cb6e546b89e7e7fdd564595793e3dd114b34cecb28611f2a570dc73cae6b3ba7a5b3f9b7b274efea1de9c8f834651fc4dd9e3b3e73223e4f0fc155d6fda071bc2c6893e687f8b72e504e1ebaf1bd369d4e8a79f4753e42aaab7e46a205501147fad20140ebd76a3abefc26f037667734a5b785c68d78551b63aaf128fd0a523f6e6f8539ce2718776ac12282bc28a4324b6643aec495e7e4ddc6255b57cccf91a1cf4d1c40a5887c2474e96c5d8f5b6bc3b1f4dcdf6f3be5b4dc48bd11431163bc5c556454d8591c76872cd787fcb103b700ecf999ac8073f7a146b5e88fc7bb787ad8c847ca41f3fec9f00f6c06492775c20bd3d8ce165bd48d668cc294167bb2484a721bc0cabd51a87f8073bdc1087fad3bde0d38d784620a877bcf6f5d1e74d8c4cde79f1b403833ae3c2f45ccd0ec4b3739f05a86b635ec01c3d702e58dc1c267f691338192a60254ffc24b9a5e50c04bd00b4b6dbf0ba1c46991eaa47a70a358dd0c5dae3587b3ebdfb8f55f58eb617fb37bc871a1201dda12fa300a167e6087dd2e17a5d48cef61312c54b8c8419c68f3214e13088afc588202e6ce7c327f06ccc9bfb8ab40df618a5cc06196554d177652e4ab5e8dccf969da280bf42de6c9c50b6334b89e9d740ad36c3d1b53dd4ef2e12ce291c5e88e61900abf684a8a5ccf107bf7493ea99e53b1d5d5aab11d4a7c555164c9ab7ae6896569c65bf32e7aba45b2dc4159962a3b08ec86a73928a5f4c0bb86fc58270ea88643c40e35fb3207b4641a21e249f0bb74e34259a2b5892726601bb08745b8b009b882f88001e081b0142875c78d7bbc4179354eed14ae534512f31eae6d013699446e83cee71977dd82dfa7a4a1ff58f7fa144649028ed3385d1b23872b793ffa2e93b74001ba26e1e4f337a454605ca5a00ade16eb3dc71ce0ca38306dec0d8fc44352fb6d7b8dc23f70a8b37497874cd9b791dcb4931739a6af815dbd4876e443fb03d067a70798a3370dfe5cf083cd56384df12b37387c9992850a92b092022c875d84b03f12001982f27ffb9ec82403ca5a78d7f2d657eab2130fb46b2e2ea2bd4e9e73afb0c33191001b80ccf50e7396db7fa91a33aa6ed493ae7003673916047f69f1cef8ff42434d1cba4e309819781ad3c1e2370712ec2b282a7a021e5d8b2466b6dee04d8e284257606c788fa5e0e5eb0c2a4178aab2c8cfdee2ed05071113717f858d999aa1b7def4fe06171c355052597b8f9baab4cad2e0000000000000000000000000000000000000000000000000000000000b16253401",
        "007edec4ea914dea48bd1157af3292abdd5305ebb81bb2b764f15ff8ea8b36b2fa0be57734a890e873a176b3e3486bdb9436faf8cb2d88f1cfa79bb8a16d0260805613f3b4612b8f23503e3e05871d84fea17c1a95b6058be2c2ce43be4b14e5030a32d7150d9c6c4ef9d54a9df9c88e6d710617957cd4bb34b29ba7a269624ba7d77093d9b867b0009fed04cb01f79b680ae0b32e582c28d3f272ecfb3369acd51a667ad02fc2a51da8f0695b468e98b96f1d7bc8511e9072aa39cf2ff79b0ace1201f21c1496979ba128733111e5621c3264194ea30c28c9bb0ccbc30a8c7c328718e1a9a530538abbcd890430de5eaa7b6eac97167037f10d2c96339ab7dfb684d0d69e246c62430fc5d25c6fcb02873d1bfb64cee8c1639037d29cfaf6d2099cdec7babd1980886409a5a8f24b754b2fae7de9111ab68ed3f50949540e138aaf8e11cd7f615639d14cea33dd7e95cdac9d4b1eca11e8711be19afdb426aaf4a17347b521fdf08e2350afd81fd897bf9f92b16da9f2f932efe8e115f12a2fc273367f7e2a830a5427688a9712fca74cd537b661cd85e0970a9509beff04f2d6c42c9ee5b1c64530997631ba9978587b9508daf49d34083d8f7e0545acfbac2017b4391151ff9ad938f66b1a26b79c0d2284a74de6309c56abde8ab6d5108462d294b33b4027acaddbb09bae4f9640cbcd2804fd54e40e1ce59558edbda36ab9c382d1ddbfe16bf36caa21795218ae886b8c69d062fc73b3f2284bf2ec53138de08a2fbd879ad1bcdfd34af1accf515ab798afe92ffa166e4ccbb16b4a26640390de5da0dc07823a11b158f354d05d748afac460ab83c101ad7e7ea34b17d1f6494a7ab0efc24c0e6f858f951376d6fab2dbaac3717a36866c4861a109a74563f7f715e200e9e0c38a96e4d7e0d0d66a8c17dba457940474f1bcedb4192be92831f9f58b9d26f2882547ed48bf6176f767c3891a001e5a02836514c31a58c6d41fb719c87924ab494759ab4094ea423e12c0724cecd9b34800104c6a928ee8cb20f5894847b6fa7c835c3f3c9e1eb220fb037f71bd6fa9d607ac858897b61bb2a30d4f5347412fd7b07e43d2a8faed8e10ba9e3e5695729788c843f6182966018920ec6e3407affc581a3dead1197522e58acae453d0aa7b93c0634a3af792fd099bc96c47e11cc7f05c79468127e5a048be9c4d5a231b818fc57897611c0f5e31441293194bfff22844ac60638c48ac6a6380b5ea1f98e8e923869689090b9eb1655d7178a1b8e1e50070b4666608af27891dec40fbb004df4153e05391f0b4d787750283d9455bd67a71168a7b1107e6db102f0fefc97a18982e32c128d1f5dcac64be0d54c8b54715998b23ae01ff89d1dfa616792a962c8800baadd6857dba7bcd42a7c75ee31fc0690d57d0d4ddc7646ac32574f23e646a9858abf51bd6a9993fda7c5dfcefbb1e8a73b8a6a65833cc71985c3833d990bf22c3cc5714a139622255bf7b3cce11190c6c477ccf3ba84617f73108e89ec5951e776f2b0474a3a26ac441b06a1cb85d9e94ef6f89e40c594d1fcb209846362664221044a3d05015a319eb1f2aac03f86a52227f2c65207db4c6013fcbd4bade91b157c942d68f3866e7e2f4549e67586050cc26c8270f019f9f2358f8d97dccd88af842c1aea3ad8ef87a7e03fdb0b8e8fdf2935212bc16253c632c7ddb1a073ccc6d24172400e023d7112fe05e29deb37278f357108ada4ee32d58990d4774f4fba44ec41e52c42ba7cb96799dca4feadec40353a0b9e6af837a2bd4728f89a97a67872cc274ac841092710a5194e5a09cbaeaa18972bcc784b6be1edcddc2ab16c0e1865e"
      ],
      "sequence": 4294967294
    }
  ],
  "vout": [
    {
      "value": 1.0,
      "n": 0,
      "scriptPubKey": {
        "asm": "OP_RETURN 3366be587c419e70bc5ec4f61006b1db7fa5522ccfae83ece8727eddf2b18e78 5010a5404c7c2c32802f97fe392915b6b47f96d3955caa72d45070012b2716d3703085606c5c0c12a00fb7de19093596945fb6f3b57c8a52f47050210b0736f31050e5000c3c6c72c06fd7be796955f6f43fd693d51cea32941030416b6756933070c5202c1c4c52e04ff79e594975d6d41ff6b3f53cca12b43010614b4776b3d09025c0ccfcacb200af177eb9a9953634ff165315dc2af254d0f081aba79653f0b005e0ecdc8c92208f375e9989b51614df367335fc0ad274f0d0a18b87b67390d065808cbcecf240ef573ef9e9d57674bf5613559c6ab21490b0c1ebe7d613b0f045a0ac9cccd260cf771ed9c9f556549f763375bc4a9234b090e1cbc7f6335010a5404c7c2c32802f97fe392915b6b47f96d3955caa72d45070012b2716d3703085606c5c0c12a00fb7de19093596945fb6f3b57c8a52f47050210b0736f31050e5000c3c6c72c06fd7be796955f6f43fd693d51cea32941030416b6756933070c5202c1c4c52e04ff79e594975d6d41ff6b3f53cca12b43010614b4776b3d09025c0ccfcacb200af177eb9a9953634ff165315dc2af254d0f081aba79653f0b005e0ecdc8c92208f375e9989b51614df367335fc0ad274f0d0a18b87b67390d065808cbcecf240ef573ef9e9d57674bf5613559c6ab21490b0c1ebe7d613b0f045a0ac9cccd260cf771ed9c9f556549f763375bc4a9234b090e1cbc7f6335010a5404c7c2c32802f97fe392915b6b47f96d3955caa72d45070012b2716d3703085606c5c0c12a00fb7de19093596945fb6f3b57c8a52f47050210b0736f31050e5000c3c6c72c06fd7be796955f6f43fd693d51cea32941030416b6756933070c5202c1c4c52e04ff79e594975d6d41ff6b3f53cca12b43010614b4776b3d09025c0ccfcacb200af177eb9a9953634ff165315dc2af254d0f081aba79653f0b005e0ecdc8c92208f375e9989b51614df367335fc0ad274f0d0a18b87b67390d065808cbcecf240ef573ef9e9d57674bf5613559c6ab21490b0c1ebe7d613b0f045a0ac9cccd260cf771ed9c9f556549f763375bc4a9234b090e1cbc7f6335010a5404c7c2c32802f97fe392915b6b47f96d3955caa72d45070012b2716d3703085606c5c0c12a00fb7de19093596945fb6f3b57c8a52f47050210b0736f31050e5000c3c6c72c06fd7be796955f6f43fd693d51cea32941030416b6756933070c5202c1c4c52e04ff79e594975d6d41ff6b3f53cca12b43010614b4776b3d09025c0ccfcacb200af177eb9a9953634ff165315dc2af254d0f081aba79653f0b005e0ecdc8c92208f375e9989b51614df367335fc0ad274f0d0a18b87b67390d065808cbcecf240ef573ef9e9d57674bf5613559c6ab21490b0c1ebe7d613b0f045a0ac9cccd260cf771ed9c9f556549f763375bc4a9234b090e1cbc7f6335010a5404c7c2c32802f97fe392915b6b47f96d3955caa72d45070012b2716d3703085606c5c0c12a00fb7de19093596945fb6f3b57c8a52f47050210b0736f31050e5000c3c6c72c06fd7be796955f6f43fd693d51cea32941030416b6756933070c5202c1c4c52e04ff79e594975d6d41ff6b3f53cca12b43010614b4776b3d09025c0ccfcacb200af177eb9a995365d4c3848107f087a3b5bab7c41143df473d00d6d87e7943cd26a04cec5c0f4ab",
        "hex": "6a203366be587c419e70bc5ec4f61006b1db7fa5522ccfae83ece8727eddf2b18e784db0045010a5404c7c2c32802f97fe392915b6b47f96d3955caa72d45070012b2716d3703085606c5c0c12a00fb7de19093596945fb6f3b57c8a52f47050210b0736f31050e5000c3c6c72c06fd7be796955f6f43fd693d51cea32941030416b6756933070c5202c1c4c52e04ff79e594975d6d41ff6b3f53cca12b43010614b4776b3d09025c0ccfcacb200af177eb9a9953634ff165315dc2af254d0f081aba79653f0b005e0ecdc8c92208f375e9989b51614df367335fc0ad274f0d0a18b87b67390d065808cbcecf240ef573ef9e9d57674bf5613559c6ab21490b0c1ebe7d613b0f045a0ac9cccd260cf771ed9c9f556549f763375bc4a9234b090e1cbc7f6335010a5404c7c2c32802f97fe392915b6b47f96d3955caa72d45070012b2716d3703085606c5c0c12a00fb7de19093596945fb6f3b57c8a52f47050210b0736f31050e5000c3c6c72c06fd7be796955f6f43fd693d51cea32941030416b6756933070c5202c1c4c52e04ff79e594975d6d41ff6b3f53cca12b43010614b4776b3d09025c0ccfcacb200af177eb9a9953634ff165315dc2af254d0f081aba79653f0b005e0ecdc8c92208f375e9989b51614df367335fc0ad274f0d0a18b87b67390d065808cbcecf240ef573ef9e9d57674bf5613559c6ab21490b0c1ebe7d613b0f045a0ac9cccd260cf771ed9c9f556549f763375bc4a9234b090e1cbc7f6335010a5404c7c2c32802f97fe392915b6b47f96d3955caa72d45070012b2716d3703085606c5c0c12a00fb7de19093596945fb6f3b57c8a52f47050210b0736f31050e5000c3c6c72c06fd7be796955f6f43fd693d51cea32941030416b6756933070c5202c1c4c52e04ff79e594975d6d41ff6b3f53cca12b43010614b4776b3d09025c0ccfcacb200af177eb9a9953634ff165315dc2af254d0f081aba79653f0b005e0ecdc8c92208f375e9989b51614df367335fc0ad274f0d0a18b87b67390d065808cbcecf240ef573ef9e9d57674bf5613559c6ab21490b0c1ebe7d613b0f045a0ac9cccd260cf771ed9c9f556549f763375bc4a9234b090e1cbc7f6335010a5404c7c2c32802f97fe392915b6b47f96d3955caa72d45070012b2716d3703085606c5c0c12a00fb7de19093596945fb6f3b57c8a52f47050210b0736f31050e5000c3c6c72c06fd7be796955f6f43fd693d51cea32941030416b6756933070c5202c1c4c52e04ff79e594975d6d41ff6b3f53cca12b43010614b4776b3d09025c0ccfcacb200af177eb9a9953634ff165315dc2af254d0f081aba79653f0b005e0ecdc8c92208f375e9989b51614df367335fc0ad274f0d0a18b87b67390d065808cbcecf240ef573ef9e9d57674bf5613559c6ab21490b0c1ebe7d613b0f045a0ac9cccd260cf771ed9c9f556549f763375bc4a9234b090e1cbc7f6335010a5404c7c2c32802f97fe392915b6b47f96d3955caa72d45070012b2716d3703085606c5c0c12a00fb7de19093596945fb6f3b57c8a52f47050210b0736f31050e5000c3c6c72c06fd7be796955f6f43fd693d51cea32941030416b6756933070c5202c1c4c52e04ff79e594975d6d41ff6b3f53cca12b43010614b4776b3d09025c0ccfcacb200af177eb9a995365d4c3848107f087a3b5bab7c41143df473d00d6d87e7943cd26a04cec5c0f4ab",
        "type": "nulldata"
      }
    },
    {
      "value": 499971.5268,
      "n": 1,
      "scriptPubKey": {
        "asm": "1 53a95ce524a9d6c7be3b2d3942d29950589f33e3f5ebdab7da02cd0bddc2c1b0",
        "hex": "512053a95ce524a9d6c7be3b2d3942d29950589f33e3f5ebdab7da02cd0bddc2c1b0",
        "reqSigs": 1,
        "type": "witness_v1_scripthash",
        "addresses": [
          "3QJmnh"
        ]
      }
    }
  ],
  "blockhash": "e6a4adf54726245f4c34283d217923918cb1557d6baaa77edf2bc72597605551",
  "confirmations": 1,
  "time": 1764181118,
  "blocktime": 1764181118
}