{
  "hex": "01000000000101e752245292fab3f49d59bf64f620c4c4cd1c423d8aeb1de61877762046a1d9010000000000feffffff02f077b5f0782d0000225120809d1c40b1ad649a3ddee41fa463f7e4c36e545a6d8c308ea2a80db882b3dd5a00e1f50500000000fdd5046a20485f43d18631a3fb29dc6952af5128508fe47f32f94ace730f91e36bbdecac2c4db004e7eb2906b7a0fad3c90b5f90118a69e9722acef8310ea931387fc5e3d58718dcc7cb09269780daf3e92b7fb031aa49c9520aeed8112e8911185fe5c3f5a738fca7ab6946f7e0ba93894b1fd051ca29a9326a8eb8714ee971783f85a395c7589c878b4966d7c09ab3a96b3ff071ea0989124aae98516ec951581fa583b5e778bc676ba98637207a53498bdf10910ae969f2aa4e78b18e29b1b8ff45635507985c474b89a617005a7369abff30b12ac949d28a6e5891ae099198df65437527b87c272be9c677603a1309cb9f50d14aa929b2ea0e38f1ce69f1f8bf05231547d81c070bc9e657401a3329ebbf70f16a890992ca2e18d1ee49d1d89f25033567f83ce7eb2906b7a0fad3c90b5f90118a69e9722acef8310ea931387fc5e3d58718dcc7cb09269780daf3e92b7fb031aa49c9520aeed8112e8911185fe5c3f5a738fca7ab6946f7e0ba93894b1fd051ca29a9326a8eb8714ee971783f85a395c7589c878b4966d7c09ab3a96b3ff071ea0989124aae98516ec951581fa583b5e778bc676ba98637207a53498bdf10910ae969f2aa4e78b18e29b1b8ff45635507985c474b89a617005a7369abff30b12ac949d28a6e5891ae099198df65437527b87c272be9c677603a1309cb9f50d14aa929b2ea0e38f1ce69f1f8bf05231547d81c070bc9e657401a3329ebbf70f16a890992ca2e18d1ee49d1d89f25033567f83ce7eb2906b7a0fad3c90b5f90118a69e9722acef8310ea931387fc5e3d58718dcc7cb09269780daf3e92b7fb031aa49c9520aeed8112e8911185fe5c3f5a738fca7ab6946f7e0ba93894b1fd051ca29a9326a8eb8714ee971783f85a395c7589c878b4966d7c09ab3a96b3ff071ea0989124aae98516ec951581fa583b5e778bc676ba98637207a53498bdf10910ae969f2aa4e78b18e29b1b8ff45635507985c474b89a617005a7369abff30b12ac949d28a6e5891ae099198df65437527b87c272be9c677603a1309cb9f50d14aa929b2ea0e38f1ce69f1f8bf05231547d81c070bc9e657401a3329ebbf70f16a890992ca2e18d1ee49d1d89f25033567f83ce7eb2906b7a0fad3c90b5f90118a69e9722acef8310ea931387fc5e3d58718dcc7cb09269780daf3e92b7fb031aa49c9520aeed8112e8911185fe5c3f5a738fca7ab6946f7e0ba93894b1fd051ca29a9326a8eb8714ee971783f85a395c7589c878b4966d7c09ab3a96b3ff071ea0989124aae98516ec951581fa583b5e778bc676ba98637207a53498bdf10910ae969f2aa4e78b18e29b1b8ff45635507985c474b89a617005a7369abff30b12ac949d28a6e5891ae099198df65437527b87c272be9c677603a1309cb9f50d14aa929b2ea0e38f1ce69f1f8bf05231547d81c070bc9e657401a3329ebbf70f16a890992ca2e18d1ee49d1d89f25033567f83ce7eb2906b7a0fad3c90b5f90118a69e9722acef8310ea931387fc5e3d58718dcc7cb09269780daf3e92b7fb031aa49c9520aeed8112e8911185fe5c3f5a738fca7ab6946f7e0ba93894b1fd051ca29a9326a8eb8714ee971783f85a395c7589c878b4966d7c09ab3a96b3ff071ea0989124aae98516ec951581fa583b5e778bc676ba98637207a53498bdf10910ae969522d741e9c34cd10c4824e73f9bd571fd7ddeef0e67e198756326229490fae6a02fd75096dca50124a28194fbbf303d83854eb12eba106e0f5c9350bdae9aae8b0c366bf0071f418cf24f1f4b7b5c7a9ae29dd6a665041260e0648acc868204db5213c6ece27640fd9b7989dff072e056e7b1a3200e87f5e71117d8b2d4a65fc3697e2394879968399d531144ec887c20f6af4d264cdb5caf975bb527dfa862aacd9a45f579c9341c85747cb7a3441d9f12605c04695ac89e1f3c614125035bc7a25b2b9b0beee08eae9050f644612b0f230e346de087c2e82f3ca8df48f377655bcd7543dbc57c8fb00d45b745f92fd332231582cac9e330c5a8643c1d9c4437d11c68bf6f07dc74348d4ce6a116c4f560a97337d79053e44fb8ad596140bc5a0f5f2f931114c32741cb47c6f352672209d5d380dc02119db0c47c24b5c40871d0be90f0e4aeae21ac9976823b8f73a9a1cd4666525e69866c9547ab3325eea86a551dd348b81530b728a478a1f56922df035ab7185936ff18f8374ff4c13ef8c5a8a86712585bead09061bf94991508b0ea90ca84332c91ddc7e1fdb10b391eb7dd5bbc8a4713ca80375051471467e805a8782e22d5f507c1cdc2a854baacab8a86743866d39cb8c57e743307e84cf3baaa896df03b766933ab8daac2264506b30333b6fd22fab0707324957230fa1a65456800bc02d6c1650c281c3fd1134813a5613584c3313f7ac6ff7ccb44129afa6f2109ebfd7303eda5b3bbb42d6249a5eb9cf3128e1fcb60b5f1effd9b27bd9c5f9ddb1fbab1e307a512249d50ecf0219d5bc650e3509010274d8c0272cf3c5e6dffecd6fc11f5beb88485bf8c8e04e447dc7e58f5d791719e230a2554842ff5f3822952e0b1a35d85d3f6d0779f8d32f3f16704940cdb79970fffb3a58705ef72742c35888eb99ce2bd8141c26466c305ec9f8bfbd9dca098317c9396c9235239385cab7445a7458722ccd12963c6aa683554a0b54c0e8a0fb4bea2ac225fbdd54ba7764b5bbda1395e90d9ba62ba830c2816b71c9b5f37f7f15a252f676439696f02ca507b94b516ec9283b2ee3540710736f15ec19f9b1e9b6d24ed58ef2202f097851a5ce930ddfb55574824cf141f23b2e48770f07e4d16d8bcc96525342325a70d9c5df158eee73a2fbda1320c03ceb6197e46f31618acaed62c842ec5145bdbb68e4b384aa57b4a4ad28a9ce28138cce5e1ebc15ae277dc1f6075edffb7132a366ec0f514d78e0fe624884a52c1e036c80b6c68adfd2fcb27b1f5ebd41ab74cba0dfb6e50bbecfef3cb6fffb358466116db6a2e67a7651e68c0f70a43bd37e2bc8d6d616c33b468c4f3fdfd43c67b87fecc3a6af63f6a07212f2b71b3d08053e900e0344683b703f80d2ef953f7e4bdd5f87aff309168e01116342b08cc24b98ba4a5af63400ce067c228e4a1a8156549793666fe6f40bad7deebc9b192b92eb409fdb008a908e7d7e577d150eb070bc0f48432da35fabf1f1fe7b82e9352b327a64da00cbe12ce3c0e6abdc4d1a39f0a782408832ce250a8ad2579fffb20b55dcd6e0981dfbe2c24211b5690d0277b33b12372656c30a3127de276614457572b17c20983e0854762a5deeb11bbb1ee2c83bc127e4356fae5cae854500715d700e2af6e24df15521c211d139445b5109935a788f208a07e226f57ee37b17049cf74cae29accb145e321e9d6663dd99fe03e79eebf720def4b7f7fe596a7573e8e1ff73c9bab087a58e3a793981c2649e962bd1565315d7ac0e691c4d794e4498942747702d95277ff7994bc04c5f0ff20c0b2a07cfb92ad32413a18a9909adea03ee14cd9070c2f93e0246c0ed0ec0f32f75eab9fb7e6aeb0c2af727d7a96425e037bff04e647a74f99aaed174502d95e895f88e655b8e3cf8bccd9973b702fea712b1dffa2889ee600dcb843c12c4e88d52f7920b8c6d0301ba9e0af59f360d83cd853a57ea6dcd1f8fd47118502b9ab4ed19ecad7e8dd38d9c070b1e00a90dd5b38fda5488b4c96431d4485e706f5eb20c49945cb913dc478ca31d95ccd7fded64cf4f1c6789333d4e0fff75f2cf5674ab64354faccc1190473aeb7e629d4138b90b1d24ec8be36a518a71248b4b8f5c9e7f42eab8c2aac46c3d3c28ea3cb875c28bc5cddcb329c65d0e86aa96bfc9073c5fee33cb0faef286325a87703585515333dcbda030dbed77531612fb15e609b7aae4a11eafd65f1419d52262572fce0b5c4e28e1facc76aa9d803326330351615b66283374f9548f30e7c500265ad82f08e1181cf9fffd11ab4b722791e2ed7f8fbe370a438c7c31a3ffe81243e11a00eeab1c683121b0ed44cb5806c7c3793d2c0a04c3a2e50e5bb2be64893fef59158bd2c19028124a8ca0d36edb6c6f9913ef32ea784e25120b2e9ccf17cf7915241b3ffcc698cd27ded4db847b67c94b4db81ca0995493845a14994d02da74a6171a358cea7277daba7ba2b1267782e04efefc2bdd97634089439275d00b532bbaf40a04cfec34344ea88f64c5f896d5ff2dacdade08b6f206ae01c21fdfc624617b8200a5fd30c155c1f19cd8504acf014a51d6e9476dc33b9f5292524c046c263065c492a43c65ce9e69c7b5e54341e215ccd695c009eac56f60cb60ff83ea9201180d9b76a5f9ed0895d04f6e6487dfeb164a7ae06779ced23689fbcd59dcf3d54de539250d2aac3249a6f0871d05539a210f6e75943c60cff3f04955820116ab59ef39b7d20ef99bad9608778276d1d72f198007c8d53257518cf173901abedb926e78e431ba1c937324def1b31390241b4ff345aa9d2abb02cc2e146664ece3595832ec573a5574a86f30022ce2eafe63d4adaba7a13178260658add8754efba6e9345087ab1f0be5df8369dd61f0faa03baa7ff16d371fa3ae658963c2cbd23e45315f3fd750095744b7a0144c839424b4ba95408b2502610a3e1f7b691b0359dd4841b3b51e9a795f33f64f841b55194ec1b4db450cb24f5e1c65d595d6831c78d64f0af27befda8d2ee21c14c3693d2e4dc82da1fcadf2980bc78e52779b70b7fadea31a349213982fcb750e6a4b4b8d5982c26d8dd4358513147f03cab0eb37cbd6f88d2a85c918ffe0bc2f26ae2ffdca35f005448a3870c8ac93cca317b2ee9bf9d241fb004dea4056e09c81ed8973bd952448f339e39e7b5bb07454ad5fad961b0a4f3309858500445c546e56d17eccb74076c6b11669bbc017cad3997b01f9ae0c65c028a785353b40008c8d02c4b5af995ba0f9920966a0199a668dbdcda7e5996ef32ef4008f85f5c047aa5138ab3e892f0b7b26fc8f3d36db5f3d3bbe2af21479dff0c5b5414621243f43454c4e555a5d838b8e9299b9bcc0ccdce1fb21252c36383a404254595d6d757d9da6a73a729fa1a2a7a8a90c3357656a7883a3a6a7a8a9b0b7cee5000000000000000000000000000000000016272f3f01fd210500e527673946d0151db023350b5c167897ffbfe2f5ba36829ab80ca9899e701daf87c8519a63b96d8b6f0b7357ce54afdd1840e6d83cf217d0be7ca6d222e15d1a669e8ff168c7e737670659a8430980eb0d3c08decbf3c3c0f06f4cf2473dc5540691f8283f3796d8f6b386c39627c4043bc39e966e76f2ffb602397aa0810da7bb188d543d2405b1f9cba99d94a61d13b5c9c9a848d70b836fc24be9bead18fb108990ccb47e9d4ccd45cad35446b8739745bed876e2f18f0494807996bf6440c01c36921576b8fc79fb88faff9055e738d5b470d6b4f77aa62580a60f9ac164ce6394da249bcfa7c2749774088f8e60875f55adf9c8c942c9676fe8db96ba05d6e15f12e71f42bc8af79ad69c230c4ff3b88659fef423f54d90f40d735acff195fa5c799b01e22ad038b0ba456f92f3a39567e8a53d9db730699d81be2d16aa85b3656aa4c8b3f0f86ac48469c521d0b1df26bed6725a1eb323c06d42a1e3463dc2a4701ceb31e1f6ab35f2627b6c8aaca094d0491c1ed6f48a3758fe5673863309b88ef36fb6d4e140a2d82ef113268059d69992ed3fd70d5ef1af9aa8c029207b6bbbdeb96bae2ef4a9452007e1fbdd8f8a00dabe08f6f13c03aa3d0ad4233c48ab3d8e6a0f4da166d2cc4283c3c384375a69e862caa2cf6adbd91da9f76ef0bea35adbebb78a7c7348f7b524e193c0e1c99ee2f64f893d1b238fb4e1fc8d6c85b7639ce921e398c268a118048ea73ea5fd61d40aca93bd02caadf5042c9ad2804fe7e6e254ec4eca961982d7fee1c6fab2192be9cf71e431eff3abdb5c5a32b11d3035bb58853086a698199dc2737ea0ba060dc7ffc0a187371c6a99a8684b090dc12be3c9cf57431863cc8a0d13c187298289e6100819c6807a09f4bb939f6b3a2d63ead99a29011579ad3d983991a2243ce59ee762fa9af228f2469ae2a72051b7f2b1225b7588790cc8ca06f9eab66169e10ffbda4c24aa234cf6172bc7b1841f8ba325ad8557773ea5fb21a87b39160b6986338adb83ae98425b51b23bea92b34ba3d603c3187875829574d0893bae69c19b8415b57abbd621c6fcdb70601460e4a94fcd94ab1bfb64ef2e1783d11a65b2d9446898bc8aba3f591c696f8af087ca23ed21f8aa6bfbb7cde0b10e0706596fe9d74664060c9a5e9d1692423055cc7b3b59bcee80406fa7e80c043c777a1e56b62f3365810489e447f7ca8f45de20d260c0248070f3a58c4d78444bcc4798718259105206de7cd6cbc0cc34029a081f9109a62b61b3c28391dc3ebc0a31fd5a9ea794b8558bf83a63fec414ed90a1f42dbd47095cb0c32780236cbb54830766c75500aa8d379f9fb75ff94c232b429a214ec77ba21845fc336d7a02da1ff8a18fb0b6003ba27a9f097644283821925cc72fe4e7c962b3991ca768c83f23324831f6cd55498e3092354eca3866922cec25721707b9020333a18057436bee255958398f344b5908aa18cf55737c79d9345d7d0f1c671a8ddaf5b6a46f3d3f9d3845f7902840f7608b43064b994830ffc1f0c4948a9bba69b8da88e60909c5bf626d01fa902ab215bb38bd1f12404b697fa0a3f12b53ac69dbd55e014d55a031216083325b8863d834ac574acf2410aab3851ae348d107e452f40626200f95b581643405f65234aaddd7489ad3c635e0b1d50c2886020115076fc2198ad940585195b7cbf76ffc371b764c18e7111cd883275ac3e639e2981676002cb3ed58cf4385aa915cff97be16bb38ee9b4f81f3aff3417e9f97fd8096c835316e0025122bfb7fff97797d403b24487d73282fe12b7a08ed098a3f8e178cac86f454e2df99bab28406d764cf464130cb60000000",
  "txid": "97c5ec1c3ccd68cb36a1c89b4cfe1dd34377244fce58babc3c2390263ab7963a",
  "hash": "ed30d8b3b2448329d609da1421b380b80dd9727be6cc4239edebd847051cbade",
  "size": 5085,
  "vsize": 2278,
  "version": 1,
  "locktime": 96,
  "vin": [
    {
      "txid": "01d9a14620767718e61deb8a3d421ccdc4c420f664bf599df4b3fa92522452e7",
      "vout": 0,
      "scriptSig": {
        "asm": "",
        "hex": ""
      },
      "txinwitness": [
        "6dca50124a28194fbbf303d83854eb12eba106e0f5c9350bdae9aae8b0c366bf0071f418cf24f1f4b7b5c7a9ae29dd6a665041260e0648acc868204db5213c6ece27640fd9b7989dff072e056e7b1a3200e87f5e71117d8b2d4a65fc3697e2394879968399d531144ec887c20f6af4d264cdb5caf975bb527dfa862aacd9a45f579c9341c85747cb7a3441d9f12605c04695ac89e1f3c614125035bc7a25b2b9b0beee08eae9050f644612b0f230e346de087c2e82f3ca8df48f377655bcd7543dbc57c8fb00d45b745f92fd332231582cac9e330c5a8643c1d9c4437d11c68bf6f07dc74348d4ce6a116c4f560a97337d79053e44fb8ad596140bc5a0f5f2f931114c32741cb47c6f352672209d5d380dc02119db0c47c24b5c40871d0be90f0e4aeae21ac9976823b8f73a9a1cd4666525e69866c9547ab3325eea86a551dd348b81530b728a478a1f56922df035ab7185936ff18f8374ff4c13ef8c5a8a86712585bead09061bf94991508b0ea90ca84332c91ddc7e1fdb10b391eb7dd5bbc8a4713ca80375051471467e805a8782e22d5f507c1cdc2a854baacab8a86743866d39cb8c57e743307e84cf3baaa896df03b766933ab8daac2264506b30333b6fd22fab0707324957230fa1a65456800bc02d6c1650c281c3fd1134813a5613584c3313f7ac6ff7ccb44129afa6f2109ebfd7303eda5b3bbb42d6249a5eb9cf3128e1fcb60b5f1effd9b27bd9c5f9ddb1fbab1e307a512249d50ecf0219d5bc650e3509010274d8c0272cf3c5e6dffecd6fc11f5beb88485bf8c8e04e447dc7e58f5d791719e230a2554842ff5f3822952e0b1a35d85d3f6d0779f8d32f3f16704940cdb79970fffb3a58705ef72742c35888eb99ce2bd8141c26466c305ec9f8bfbd9dca098317c9396c9235239385cab7445a7458722ccd12963c6aa683554a0b54c0e8a0fb4bea2ac225fbdd54ba7764b5bbda1395e90d9ba62ba830c2816b71c9b5f37f7f15a252f676439696f02ca507b94b516ec9283b2ee3540710736f15ec19f9b1e9b6d24ed58ef2202f097851a5ce930ddfb55574824cf141f23b2e48770f07e4d16d8bcc96525342325a70d9c5df158eee73a2fbda1320c03ceb6197e46f31618acaed62c842ec5145bdbb68e4b384aa57b4a4ad28a9ce28138cce5e1ebc15ae277dc1f6075edffb7132a366ec0f514d78e0fe624884a52c1e036c80b6c68adfd2fcb27b1f5ebd41ab74cba0dfb6e50bbecfef3cb6fffb358466116db6a2e67a7651e68c0f70a43bd37e2bc8d6d616c33b468c4f3fdfd43c67b87fecc3a6af63f6a07212f2b71b3d08053e900e0344683b703f80d2ef953f7e4bdd5f87aff309168e01116342b08cc24b98ba4a5af63400ce067c228e4a1a8156549793666fe6f40bad7deebc9b192b92eb409fdb008a908e7d7e577d150eb070bc0f48432da35fabf1f1fe7b82e9352b327a64da00cbe12ce3c0e6abdc4d1a39f0a782408832ce250a8ad2579fffb20b55dcd6e0981dfbe2c24211b5690d0277b33b12372656c30a3127de276614457572b17c20983e0854762a5deeb11bbb1ee2c83bc127e4356fae5cae854500715d700e2af6e24df15521c211d139445b5109935a788f208a07e226f57ee37b17049cf74cae29accb145e321e9d6663dd99fe03e79eebf720def4b7f7fe596a7573e8e1ff73c9bab087a58e3a793981c2649e962bd1565315d7ac0e691c4d794e4498942747702d95277ff7994bc04c5f0ff20c0b2a07cfb92ad32413a18a9909adea03ee14cd9070c2f93e0246c0ed0ec0f32f75eab9fb7e6aeb0c2af727d7a96425e037bff04e647a74f99aaed174502d95e895f88e655b8e3cf8bccd9973b702fea712b1dffa2889ee600dcb843c12c4e88d52f7920b8c6d0301ba9e0af59f360d83cd853a57ea6dcd1f8fd47118502b9ab4ed19ecad7e8dd38d9c070b1e00a90dd5b38fda5488b4c96431d4485e706f5eb20c49945cb913dc478ca31d95ccd7fded64cf4f1c6789333d4e0fff75f2cf5674ab64354faccc1190473aeb7e629d4138b90b1d24ec8be36a518a71248b4b8f5c9e7f42eab8c2aac46c3d3c28ea3cb875c28bc5cddcb329c65d0e86aa96bfc9073c5fee33cb0faef286325a87703585515333dcbda030dbed77531612fb15e609b7aae4a11eafd65f1419d52262572fce0b5c4e28e1facc76aa9d803326330351615b66283374f9548f30e7c500265ad82f08e1181cf9fffd11ab4b722791e2ed7f8fbe370a438c7c31a3ffe81243e11a00eeab1c683121b0ed44cb5806c7c3793d2c0a04c3a2e50e5bb2be64893fef59158bd2c19028124a8ca0d36edb6c6f9913ef32ea784e25120b2e9ccf17cf7915241b3ffcc698cd27ded4db847b67c94b4db81ca0995493845a14994d02da74a6171a358cea7277daba7ba2b1267782e04efefc2bdd97634089439275d00b532bbaf40a04cfec34344ea88f64c5f896d5ff2dacdade08b6f206ae01c21fdfc624617b8200a5fd30c155c1f19cd8504acf014a51d6e9476dc33b9f5292524c046c263065c492a43c65ce9e69c7b5e54341e215ccd695c009eac56f60cb60ff83ea9201180d9b76a5f9ed0895d04f6e6487dfeb164a7ae06779ced23689fbcd59dcf3d54de539250d2aac3249a6f0871d05539a210f6e75943c60cff3f04955820116ab59ef39b7d20ef99bad9608778276d1d72f198007c8d53257518cf173901abedb926e78e431ba1c937324def1b31390241b4ff345aa9d2abb02cc2e146664ece3595832ec573a5574a86f30022ce2eafe63d4adaba7a13178260658add8754efba6e9345087ab1f0be5df8369dd61f0faa03baa7ff16d371fa3ae658963c2cbd23e45315f3fd750095744b7a0144c839424b4ba95408b2502610a3e1f7b691b0359dd4841b3b51e9a795f33f64f841b55194ec1b4db450cb24f5e1c65d595d6831c78d64f0af27befda8d2ee21c14c3693d2e4dc82da1fcadf2980bc78e52779b70b7fadea31a349213982fcb750e6a4b4b8d5982c26d8dd4358513147f03cab0eb37cbd6f88d2a85c918ffe0bc2f26ae2ffdca35f005448a3870c8ac93cca317b2ee9bf9d241fb004dea4056e09c81ed8973bd952448f339e39e7b5bb07454ad5fad961b0a4f3309858500445c546e56d17eccb74076c6b11669bbc017cad3997b01f9ae0c65c028a785353b40008c8d02c4b5af995ba0f9920966a0199a668dbdcda7e5996ef32ef4008f85f5c047aa5138ab3e892f0b7b26fc8f3d36db5f3d3bbe2af21479dff0c5b5414621243f43454c4e555a5d838b8e9299b9bcc0ccdce1fb21252c36383a404254595d6d757d9da6a73a729fa1a2a7a8a90c3357656a7883a3a6a7a8a9b0b7cee5000000000000000000000000000000000016272f3f01",
        "00e527673946d0151db023350b5c167897ffbfe2f5ba36829ab80ca9899e701daf87c8519a63b96d8b6f0b7357ce54afdd1840e6d83cf217d0be7ca6d222e15d1a669e8ff168c7e737670659a8430980eb0d3c08decbf3c3c0f06f4cf2473dc5540691f8283f3796d8f6b386c39627c4043bc39e966e76f2ffb602397aa0810da7bb188d543d2405b1f9cba99d94a61d13b5c9c9a848d70b836fc24be9bead18fb108990ccb47e9d4ccd45cad35446b8739745bed876e2f18f0494807996bf6440c01c36921576b8fc79fb88faff9055e738d5b470d6b4f77aa62580a60f9ac164ce6394da249bcfa7c2749774088f8e60875f55adf9c8c942c9676fe8db96ba05d6e15f12e71f42bc8af79ad69c230c4ff3b88659fef423f54d90f40d735acff195fa5c799b01e22ad038b0ba456f92f3a39567e8a53d9db730699d81be2d16aa85b3656aa4c8b3f0f86ac48469c521d0b1df26bed6725a1eb323c06d42a1e3463dc2a4701ceb31e1f6ab35f2627b6c8aaca094d0491c1ed6f48a3758fe5673863309b88ef36fb6d4e140a2d82ef113268059d69992ed3fd70d5ef1af9aa8c029207b6bbbdeb96bae2ef4a9452007e1fbdd8f8a00dabe08f6f13c03aa3d0ad4233c48ab3d8e6a0f4da166d2cc4283c3c384375a69e862caa2cf6adbd91da9f76ef0bea35adbebb78a7c7348f7b524e193c0e1c99ee2f64f893d1b238fb4e1fc8d6c85b7639ce921e398c268a118048ea73ea5fd61d40aca93bd02caadf5042c9ad2804fe7e6e254ec4eca961982d7fee1c6fab2192be9cf71e431eff3abdb5c5a32b11d3035bb58853086a698199dc2737ea0ba060dc7ffc0a187371c6a99a8684b090dc12be3c9cf57431863cc8a0d13c187298289e6100819c6807a09f4bb939f6b3a2d63ead99a29011579ad3d983991a2243ce59ee762fa9af228f2469ae2a72051b7f2b1225b7588790cc8ca06f9eab66169e10ffbda4c24aa234cf6172bc7b1841f8ba325ad8557773ea5fb21a87b39160b6986338adb83ae98425b51b23bea92b34ba3d603c3187875829574d0893bae69c19b8415b57abbd621c6fcdb70601460e4a94fcd94ab1bfb64ef2e1783d11a65b2d9446898bc8aba3f591c696f8af087ca23ed21f8aa6bfbb7cde0b10e0706596fe9d74664060c9a5e9d1692423055cc7b3b59bcee80406fa7e80c043c777a1e56b62f3365810489e447f7ca8f45de20d260c0248070f3a58c4d78444bcc4798718259105206de7cd6cbc0cc34029a081f9109a62b61b3c28391dc3ebc0a31fd5a9ea794b8558bf83a63fec414ed90a1f42dbd47095cb0c32780236cbb54830766c75500aa8d379f9fb75ff94c232b429a214ec77ba21845fc336d7a02da1ff8a18fb0b6003ba27a9f097644283821925cc72fe4e7c962b3991ca768c83f23324831f6cd55498e3092354eca3866922cec25721707b9020333a18057436bee255958398f344b5908aa18cf55737c79d9345d7d0f1c671a8ddaf5b6a46f3d3f9d3845f7902840f7608b43064b994830ffc1f0c4948a9bba69b8da88e60909c5bf626d01fa902ab215bb38bd1f12404b697fa0a3f12b53ac69dbd55e014d55a031216083325b8863d834ac574acf2410aab3851ae348d107e452f40626200f95b581643405f65234aaddd7489ad3c635e0b1d50c2886020115076fc2198ad940585195b7cbf76ffc371b764c18e7111cd883275ac3e639e2981676002cb3ed58cf4385aa915cff97be16bb38ee9b4f81f3aff3417e9f97fd8096c835316e0025122bfb7fff97797d403b24487d73282fe12b7a08ed098a3f8e178cac86f454e2df99bab28406d764cf464130cb"
      ],
      "sequence": 4294967294
    }
  ],
  "vout": [
    {
      "value": 499974.5775,
      "n": 0,
      "scriptPubKey": {
        "asm": "1 809d1c40b1ad649a3ddee41fa463f7e4c36e545a6d8c308ea2a80db882b3dd5a",
        "hex": "5120809d1c40b1ad649a3ddee41fa463f7e4c36e545a6d8c308ea2a80db882b3dd5a",
        "reqSigs": 1,
        "type": "witness_v1_scripthash",
        "addresses": [
          "3QJmnh"
        ]
      }
    },
    {
      "value": 1.0,
      "n": 1,
      "scriptPubKey": {
        "asm": "OP_RETURN 485f43d18631a3fb29dc6952af5128508fe47f32f94ace730f91e36bbdecac2c e7eb2906b7a0fad3c90b5f90118a69e9722acef8310ea931387fc5e3d58718dcc7cb09269780daf3e92b7fb031aa49c9520aeed8112e8911185fe5c3f5a738fca7ab6946f7e0ba93894b1fd051ca29a9326a8eb8714ee971783f85a395c7589c878b4966d7c09ab3a96b3ff071ea0989124aae98516ec951581fa583b5e778bc676ba98637207a53498bdf10910ae969f2aa4e78b18e29b1b8ff45635507985c474b89a617005a7369abff30b12ac949d28a6e5891ae099198df65437527b87c272be9c677603a1309cb9f50d14aa929b2ea0e38f1ce69f1f8bf05231547d81c070bc9e657401a3329ebbf70f16a890992ca2e18d1ee49d1d89f25033567f83ce7eb2906b7a0fad3c90b5f90118a69e9722acef8310ea931387fc5e3d58718dcc7cb09269780daf3e92b7fb031aa49c9520aeed8112e8911185fe5c3f5a738fca7ab6946f7e0ba93894b1fd051ca29a9326a8eb8714ee971783f85a395c7589c878b4966d7c09ab3a96b3ff071ea0989124aae98516ec951581fa583b5e778bc676ba98637207a53498bdf10910ae969f2aa4e78b18e29b1b8ff45635507985c474b89a617005a7369abff30b12ac949d28a6e5891ae099198df65437527b87c272be9c677603a1309cb9f50d14aa929b2ea0e38f1ce69f1f8bf05231547d81c070bc9e657401a3329ebbf70f16a890992ca2e18d1ee49d1d89f25033567f83ce7eb2906b7a0fad3c90b5f90118a69e9722acef8310ea931387fc5e3d58718dcc7cb09269780daf3e92b7fb031aa49c9520aeed8112e8911185fe5c3f5a738fca7ab6946f7e0ba93894b1fd051ca29a9326a8eb8714ee971783f85a395c7589c878b4966d7c09ab3a96b3ff071ea0989124aae98516ec951581fa583b5e778bc676ba98637207a53498bdf10910ae969f2aa4e78b18e29b1b8ff45635507985c474b89a617005a7369abff30b12ac949d28a6e5891ae099198df65437527b87c272be9c677603a1309cb9f50d14aa929b2ea0e38f1ce69f1f8bf05231547d81c070bc9e657401a3329ebbf70f16a890992ca2e18d1ee49d1d89f25033567f83ce7eb2906b7a0fad3c90b5f90118a69e9722acef8310ea931387fc5e3d58718dcc7cb09269780daf3e92b7fb031aa49c9520aeed8112e8911185fe5c3f5a738fca7ab6946f7e0ba93894b1fd051ca29a9326a8eb8714ee971783f85a395c7589c878b4966d7c09ab3a96b3ff071ea0989124aae98516ec951581fa583b5e778bc676ba98637207a53498bdf10910ae969f2aa4e78b18e29b1b8ff45635507985c474b89a617005a7369abff30b12ac949d28a6e5891ae099198df65437527b87c272be9c677603a1309cb9f50d14aa929b2ea0e38f1ce69f1f8bf05231547d81c070bc9e657401a3329ebbf70f16a890992ca2e18d1ee49d1d89f25033567f83ce7eb2906b7a0fad3c90b5f90118a69e9722acef8310ea931387fc5e3d58718dcc7cb09269780daf3e92b7fb031aa49c9520aeed8112e8911185fe5c3f5a738fca7ab6946f7e0ba93894b1fd051ca29a9326a8eb8714ee971783f85a395c7589c878b4966d7c09ab3a96b3ff071ea0989124aae98516ec951581fa583b5e778bc676ba98637207a53498bdf10910ae969522d741e9c34cd10c4824e73f9bd571fd7ddeef0e67e198756326229490fae6a",
        "hex": "6a20485f43d18631a3fb29dc6952af5128508fe47f32f94ace730f91e36bbdecac2c4db004e7eb2906b7a0fad3c90b5f90118a69e9722acef8310ea931387fc5e3d58718dcc7cb09269780daf3e92b7fb031aa49c9520aeed8112e8911185fe5c3f5a738fca7ab6946f7e0ba93894b1fd051ca29a9326a8eb8714ee971783f85a395c7589c878b4966d7c09ab3a96b3ff071ea0989124aae98516ec951581fa583b5e778bc676ba98637207a53498bdf10910ae969f2aa4e78b18e29b1b8ff45635507985c474b89a617005a7369abff30b12ac949d28a6e5891ae099198df65437527b87c272be9c677603a1309cb9f50d14aa929b2ea0e38f1ce69f1f8bf05231547d81c070bc9e657401a3329ebbf70f16a890992ca2e18d1ee49d1d89f25033567f83ce7eb2906b7a0fad3c90b5f90118a69e9722acef8310ea931387fc5e3d58718dcc7cb09269780daf3e92b7fb031aa49c9520aeed8112e8911185fe5c3f5a738fca7ab6946f7e0ba93894b1fd051ca29a9326a8eb8714ee971783f85a395c7589c878b4966d7c09ab3a96b3ff071ea0989124aae98516ec951581fa583b5e778bc676ba98637207a53498bdf10910ae969f2aa4e78b18e29b1b8ff45635507985c474b89a617005a7369abff30b12ac949d28a6e5891ae099198df65437527b87c272be9c677603a1309cb9f50d14aa929b2ea0e38f1ce69f1f8bf05231547d81c070bc9e657401a3329ebbf70f16a890992ca2e18d1ee49d1d89f25033567f83ce7eb2906b7a0fad3c90b5f90118a69e9722acef8310ea931387fc5e3d58718dcc7cb09269780daf3e92b7fb031aa49c9520aeed8112e8911185fe5c3f5a738fca7ab6946f7e0ba93894b1fd051ca29a9326a8eb8714ee971783f85a395c7589c878b4966d7c09ab3a96b3ff071ea0989124aae98516ec951581fa583b5e778bc676ba98637207a53498bdf10910ae969f2aa4e78b18e29b1b8ff45635507985c474b89a617005a7369abff30b12ac949d28a6e5891ae099198df65437527b87c272be9c677603a1309cb9f50d14aa929b2ea0e38f1ce69f1f8bf05231547d81c070bc9e657401a3329ebbf70f16a890992ca2e18d1ee49d1d89f25033567f83ce7eb2906b7a0fad3c90b5f90118a69e9722acef8310ea931387fc5e3d58718dcc7cb09269780daf3e92b7fb031aa49c9520aeed8112e8911185fe5c3f5a738fca7ab6946f7e0ba93894b1fd051ca29a9326a8eb8714ee971783f85a395c7589c878b4966d7c09ab3a96b3ff071ea0989124aae98516ec951581fa583b5e778bc676ba98637207a53498bdf10910ae969f2aa4e78b18e29b1b8ff45635507985c474b89a617005a7369abff30b12ac949d28a6e5891ae099198df65437527b87c272be9c677603a1309cb9f50d14aa929b2ea0e38f1ce69f1f8bf05231547d81c070bc9e657401a3329ebbf70f16a890992ca2e18d1ee49d1d89f25033567f83ce7eb2906b7a0fad3c90b5f90118a69e9722acef8310ea931387fc5e3d58718dcc7cb09269780daf3e92b7fb031aa49c9520aeed8112e8911185fe5c3f5a738fca7ab6946f7e0ba93894b1fd051ca29a9326a8eb8714ee971783f85a395c7589c878b4966d7c09ab3a96b3ff071ea0989124aae98516ec951581fa583b5e778bc676ba98637207a53498bdf10910ae969522d741e9c34cd10c4824e73f9bd571fd7ddeef0e67e198756326229490fae6a",
        "type": "nulldata"
      }
    }
  ],
  "blockhash": "3f7b66b34673dd56727b9b27d02dfa4f8333ff75e8b72ddccb546061f2a7d063",
  "confirmations": 1,
  "time": 1764180681,
  "blocktime": 1764180681
}