{
  "hex": "01000000000101b040eedfab67406e2c67ca49c52722a3493f4b4ccba08fd058f06a93b507133c0000000000feffffff0200e1f50500000000fdd5046a2087781c90efc3051e53611bacc3522073bfce754b707644df55128b91d09d45834db00413fc769aa5449abdfad9f7359ca4269b5fcff94a5f503585663c20811bf9faa433dc56ba8564ba9ddaf9d715bc8406bb7fefd96a7f7015a5461c00a13bd9da8453bc36dae504dafdba99b775dce466db1f8fb90a1f1075c5267c60c15bb9bae4739c16fac524fadd9ab99755fcc446fb3faf992a3f3055e5065c40e17b999ac4937cf61a25c41a3d7a5977b51c24a61bdf4f79cadfd0b505e6bca0019b797a24b35cd63a05e43a1d5a7957953c04863bff6f59eafff09525c69c8021bb595a04d33cb65a65845a7d3a1937f55c64e65b9f0f398a9f90f545a6fce041db393a64f31c967a45a47a5d1a3917d57c44c67bbf2f19aabfb0d56586dcc061fb191a4413fc769aa5449abdfad9f7359ca4269b5fcff94a5f503585663c20811bf9faa433dc56ba8564ba9ddaf9d715bc8406bb7fefd96a7f7015a5461c00a13bd9da8453bc36dae504dafdba99b775dce466db1f8fb90a1f1075c5267c60c15bb9bae4739c16fac524fadd9ab99755fcc446fb3faf992a3f3055e5065c40e17b999ac4937cf61a25c41a3d7a5977b51c24a61bdf4f79cadfd0b505e6bca0019b797a24b35cd63a05e43a1d5a7957953c04863bff6f59eafff09525c69c8021bb595a04d33cb65a65845a7d3a1937f55c64e65b9f0f398a9f90f545a6fce041db393a64f31c967a45a47a5d1a3917d57c44c67bbf2f19aabfb0d56586dcc061fb191a4413fc769aa5449abdfad9f7359ca4269b5fcff94a5f503585663c20811bf9faa433dc56ba8564ba9ddaf9d715bc8406bb7fefd96a7f7015a5461c00a13bd9da8453bc36dae504dafdba99b775dce466db1f8fb90a1f1075c5267c60c15bb9bae4739c16fac524fadd9ab99755fcc446fb3faf992a3f3055e5065c40e17b999ac4937cf61a25c41a3d7a5977b51c24a61bdf4f79cadfd0b505e6bca0019b797a24b35cd63a05e43a1d5a7957953c04863bff6f59eafff09525c69c8021bb595a04d33cb65a65845a7d3a1937f55c64e65b9f0f398a9f90f545a6fce041db393a64f31c967a45a47a5d1a3917d57c44c67bbf2f19aabfb0d56586dcc061fb191a4413fc769aa5449abdfad9f7359ca4269b5fcff94a5f503585663c20811bf9faa433dc56ba8564ba9ddaf9d715bc8406bb7fefd96a7f7015a5461c00a13bd9da8453bc36dae504dafdba99b775dce466db1f8fb90a1f1075c5267c60c15bb9bae4739c16fac524fadd9ab99755fcc446fb3faf992a3f3055e5065c40e17b999ac4937cf61a25c41a3d7a5977b51c24a61bdf4f79cadfd0b505e6bca0019b797a24b35cd63a05e43a1d5a7957953c04863bff6f59eafff09525c69c8021bb595a04d33cb65a65845a7d3a1937f55c64e65b9f0f398a9f90f545a6fce041db393a64f31c967a45a47a5d1a3917d57c44c67bbf2f19aabfb0d56586dcc061fb191a4413fc769aa5449abdfad9f7359ca4269b5fcff94a5f503585663c20811bf9faa433dc56ba8564ba9ddaf9d715bc8406bb7fefd96a7f7015a5461c00a13bd9da8453bc36dae504dafdba99b775dce466db1f8fb90a1f1075c5267c60c15bb9bae4739c16fac524fadd9ab99755fcc446fb3faf992a3f3055e5065c40e17b999ac4937cf61a25c41a3d7a5977b51c24a61b124ccd67fefef37bd706966e260d85b383e2865a53c1e1cf9f53245a273a20508022c5f6782d00002251202a3c836f4dbef58a01c39dc32c603562d4f9d34ebf6adfeeb6674ed2e473934e02fd75095e95b55893f539b66eca2e22a8524afb2f01a5051424864922c3dce57d39aafc1a0b9549902b464f1beb6ad9e93a221f89076d3ce7e50c44939c38103f6e66eb9e1861b1c275537e61e1c5fa6e8e6fb9bf5ddf2514bb664bf4c7304a547ce6486b9ad03bf7a953b3feeef0e8c6d4eca72f12713bef78761256e1a0cfc9fbaa4314d983596114a346d26ffe53bbf0235d5005623e359c5062d1d5ec1ece98a3f95641f999617fcd979b4ff9a9ee71df19e5af384adba98baf88d18d3b0726bf2f227894c5997bb105f03cbed1f28886b0ddd43e43845828b7b9ed865517c794c3ce01ec1786d05518abbfb114cf04d80db412c20d2d10ca5af9af86fa05d44fd1afb5d329817478a6db214dee50ec42f7d81d65745d0faf511c96fab7f82c5f6ece95f5d34367f97530ee71fc90b1ed94ec3368fd25895571c2ad0ef240985514df7ded04f31b8b74a5eb4701017ed99094a05e5b499b4e6288c81eafe04ad7d6c356c29c3724fb199c08320f6ede23c09fec082062cdb68ae344d6f2452214625a84460ea70066393220d6781170531bc894b0b2cb9924d917dda25f6064914665215156a840b1d702a350e812f317abdd8aed532065432f9d8b3a14b3bd7bc14ffb1600bb691d1d73e33c79e852185df554e3b58d111295185141f4007157446d110d607f85f69d9e8c1d2a55b513c212d2d37a366b1bdc579db649762e64a71f0ab2515e1982fdb2b803e7208d5d19cfebff218f08a5e2724914e4e1eece530df1e5f745a3b5b18079f2c64a4de58db3285f972ab0fd97f6d1c77f83f8103c50b4c70326671f5ad1d2762be6c6f8afe7b0505c414879210d78bb444954274b895d73b1ba74aa84b28c052f07d539a13fa6b84fcfdc4d2bcd6de429100e273ecfd517dcf75feda4d14736f1b881c899337f77299eae1c824947f29cf96be36aa69977b73c79e6e4ae841d463dc4fb06d4805bae18dd409e40a5537ed1ff8e31f7f48db8a5161a672a5f6b9aed674b28d9ece28323cf2d3bedb8e7b89d756f6a80977acf0c2bae395b581088afc3cbd4417f39b1796d55f5e98e73bb87ecde6e8ec834b3075e69ef4aa64ba6dab7d840ceb44b840af992f50098edbb2768a6c562fee4338caec1ff5cdb42d1d338cb0bd8d48d4528a648736484f97ed330f6435268d68268a7490cf205540ae4448051b92a57fbe85cf34a43e1e2403277db761acaf890ebcb384525b1ea513b50e6bc82999042f5b988f68b3ed4164abb3ff91469cde67280db4a620fa1e9a79c25a0b47962473006562bfd343ec97a3c5215b71000d8943feb377e09533819ed5328d80a79d41c8dab4d70c217796dd43b479d5119b3d9b3ae3aaadc50aa65a12bf462b3097e3437de802f137dbf753649e960235eba87c565c8a9cf598ab39cc5600ce005996e64b173cafd199e4b798e49d98853d93b61e1b6e284044e8c49f0225c6c4db338ac4ea46ee8215c10707617daea8ed3323bcfc2b652efe31e4ab6b03d68eaa93e7dd5ed779a93d448572a2f5e123b1ed9c3f756eabd571dff298dc3464b3bc1d61dfd9409cd7d9b816ca67a31fd5a144c07393debb89f6fdd2f1f5add650f90352f3aae2b2f837d19ae93b446b4e8f612fa06c2c4b4855dc04c66c999ce9931cb09bf2c0138e188606ee28f903a12b21e78e64b599f9f9b5af28c37784f4786f71ba158ddb9d390a55d2bb7c38f5e6d6856d489000cc8655d10952ed09f988b4ab398bfc5e955dbb4f3eee85f105059ea4724e4bbe66c8d033c07f46b7c3444713c46330e99b0d7ffe392ca8f3c5712341e3238ab64eace23d3588ec2d5ec40078a214e60d50e365f56d18f4e6b9ee9e66c98e57b9e7b3b32dd4421e7869dec98eb37757b40c780f07a00e07f5f1f115838bfde940cf011278ba28f9e32c4155ba2ad8c91a684192f72af67a7a3ee889b6eb06996c84b2e1fbd6fe78d7d77cc60e07d78ecd97338b284d3b59fcf0feca939b7d8bbe13fb2f47b22ae18e54c23a1ee101350f92f63e452edc6450b1117245cb9033e5e8072ac031e85fe34eec62452c8a13abe24487e101207e6fa2e86abb5c1d7011a9329589aa6f079c57c83f63f7d5735bbf72b8746373290c140f47e8fef7c2fc63b3eacee9d3d4a00ce314dc0456519c10365ac44aca9ae48941dddcc631daebf2d27e875e0b274707a85932a2265307d3d6218825546cac7508740a604ec7fec81db920957c916c799bf266d67f8e23a4b9ce576752625f6e799d8fa734c67c60d6a69e40c6525b9f59cfba781f3afaedad1423307f8ac5120d442f8c45f6da8ce8a0c6955cfd7248a153edf50cb32081d92a42e893095133b74d84234fd687b370252ca673ca6fedb58f3a3320e46ec3972e279d73363eeea522a899e686f91615a75f74a4d8a760a2cc79d38f6fe2fc18862af888db6bb0d8999eaa72ba76de444498e8bb707a68629486894208cbec17d6bcd72de272b3d0e5f85335d9a30e03a9eda2764f746c60c82a17a2a067c1a6169cd42fcf9a648c2d3bad8cb91c7f50cb6acc085f6e6bbe9d09e465f4b0becc3ea46986f4a037261cdc56442f9502b9e649ecc779e94f4d1d1d3c3380ecea346167360b69f73d2b97e7133d36504e9a78c9aee48d14d84a801e2f660dd42446ee06bfacce3a55e4fe48f3ebe1833841c11b464f3a78067131893c5f6f2a089a2f3f5466ea7f6006153338421a116ecdf746d3403a2bf8b364646741ef5e12565a7809833c9dea6c70fcb5019c4cb66f1ca60ad1f54102749ae8586bbbe19894068d3375848202254bf82e0d5ce0ccad1e65a0e28662bc08340de86caf99c46f5550d1a0aa80ceb36a5fe437df583690b4c6c1df3fa2e41c8adf9c26c6993506339e31f69598eadb7787a81b3a321f2b5cdc34437da79ad75b9a966413db08f68e44a3b9d697c0e652c10dfc5ad9201cba4deddd3ea810912e7f7aa4fe07ab311be6114ed26a9d3499f95799b3527d17173dea9f6446213d532ca08e32d0ec987f93717986c935d4b65931e06c1fe46bde58d99f2397b65168e9eda81d7084559e31e1b41cb0204001d1c48d7bede4f9fb2e144fc77b1ec62545699606b4c697f95aae76f05fdebe8ec94cf3b8ef176c6799eba29b62cae9fb2fc88a6c21b46acc82e3ae2bfbcad44ad7a61af5d551b8f74d9cd7f3b22ab980a4d8294ceeceb5cd0b48631535dba430fdad0fd46b7eb9b12941d6a7520bceea45c25daf5e54078eb2df79d54c5d279c2c0d44218bac6c96d9345cce9831f90a8a7962a74c0c2dcd8e72ef60b11131418232a2d46656c768bb8b9d5d9e7f9050d11393c4a727d949eb4c5cfe0e7f5fafc0d0f1f274e5963646b7b8796b9c8d6d9dce1e2edf00b384775777c83848c969b9ca4b0bbbdcef6fd00000013253a4d01fd210500ee41b5fe1bef8fb79a6e723b1c6bfa15529f742f0b48451b3787783e6d35f3d9e098991ae7e06c3d09830db5b24a5a0a6803af6b2d4959c61baf44b04b19ec65dbdc7a67947fa619bc8846f0c6d71f747d89c5569d09d88826089dfe44d3efac017bbf102811c94ceefa8fcaa65a831880d48e1fa342cd83566532de4dd117ac84cdc84927a419902374878c78667511812dbbabd18ffb865880ab05f23b8f02f2e0958b5556c571e9a3dd8f8354931f869dca332e955d47e4a2e49b429835f4088093a37ce27f3f173a5a9bbc7cbe6930d76e9c551a9971d1e68ba14bf360f136b6eccc72924d6298052ec8cb006dd7f7c01906215ba113d3c52cc0c439f466d4ec2cfd155393afec133d2910be9c7b83b98618d19bdf8bfce55c388260eba201b1439aa052e1ca363ecad271f1b755dec58ae97e2722b6ec9da412a4fd2933a846598bb67c4fcc671956737c97e064b51aab6362d09cf4d1f404503288c47f240ea6dab5c10840fbdae257270d3456cbd006b9fddccb41231a5b959f1e0a1ccb09a0573587cf7fc8701dde264a3b3f6b4c22a01ea12efee0527eb39cbe99614251fbf48d7fa9b9776604e9257ff9dbe911674782acd3b4f50d07d37f38d4695578bc58c07fb3dd489b0e5c9876101a24231cd0551ebae772cecd48085924c9efc88b0892abf76cbf312bf96a7663639361852dcc0a716d951908684375340e0fe67db7b5a6a2ed7a6d6ec52535f6a7aea30229974951ae06f0c5b2c263be0ac8a6668546c973153c0dc904dd39e6d8a6793d5b7f4394ea04a5915c57f74755d50b323ba35edf2b49550e5ce2b96efe0c011096227fdfbf9b6f4b022248828b76a050aba3fd2a4631e369e5b69ce2497f7a6ee9b7af4c6d77f80e86094d4778be49858a88922b64aca0ce8e36e6c92611ef2c04c4c1eb31802a036fe8c86e7e59ba2c8e82995af52536638836f9e11c6b85fe0e891b4539f76d323da6eb9ed2dfbdf6214fca6281ba049eb0de96ee9f3353e6a9ed18e445dad85d52456200afa077ce8fabadce81eaa0d1fdc17c821a97509fc7b968eb26d44048930730fb3c0a65fc3c30cd14584eccb6ada3d08f374af5688765139dce8f8c9461c025bbbd2fcf3974737cd06519d902c3ee2dac3c728f172651b295d0f3fc0ef9e31125df5ada8a5d082913fdfb66994def10dfc66cf32f22b98ab2b98a1a1839e34ed1a475aa5dbca13aa3aaaa762e7404b6d36bd4fcbc5735cb36e1f7e0f4316426790a653c8b9187264248ea1802cdc7c06021c4e81dbb405271b75394bcd45ccc58b4d67a1f1fb8f1e03cc53f0861c068b9af98db50093b37b9814e67990d682ec9213d5dabb3c7240ba2490a72d340480068e50df61426f56d95db47df6249b1f8444163aa0a73e20fe9ad4f86eb74587e4da9603fef292114b75b17f024d76421d435dcb6f3987183f170c245f6ae982ec7b377186d050422efcc5121a764674f5b37fa9f70b562860bfcb5413832594cae6baeecf5aaa5357ab80ea8c599438c56865cb8d102facc0f10e95ddb350273438bb8b1d1806d311d982c903aa6a16be751102655109fd4da143f8fb5c788f11d4d857d65ceda3cd7081caa11d7df0ca6cac218a3669fe22630f3d0591e4c4561b7e9d786d3bad05d2a3f3b314d5910c2118a5e26acbfbbe85e2db428e55125a30425673a4775f1547ac23de77d4d7fbd2ef61ba3822b58e6a3810e217e942c76f202c40f459bff88a8af606e2bc904151af32d9fe1e0557e16564dff0f4421d40e1f01879bdc048417b1ff6b58b0296d629c3a98429c5c547a838f8fa4fd4856ca725eff4673d658038660b24667049a7c000000",
  "txid": "9f90d27e21d88d4795187e7bb1ee38edd9bf0715862737f15c7ff0021ff9d026",
  "hash": "b35a267c08085a3a0f8df232fd076b689f05f1d7164c614c9a4fcb1272c1a804",
  "size": 5085,
  "vsize": 2278,
  "version": 1,
  "locktime": 124,
  "vin": [
    {
      "txid": "3c1307b5936af058d08fa0cb4c4b3f49a32227c549ca672c6e4067abdfee40b0",
      "vout": 0,
      "scriptSig": {
        "asm": "",
        "hex": ""
      },
      "txinwitness": [
        "5e95b55893f539b66eca2e22a8524afb2f01a5051424864922c3dce57d39aafc1a0b9549902b464f1beb6ad9e93a221f89076d3ce7e50c44939c38103f6e66eb9e1861b1c275537e61e1c5fa6e8e6fb9bf5ddf2514bb664bf4c7304a547ce6486b9ad03bf7a953b3feeef0e8c6d4eca72f12713bef78761256e1a0cfc9fbaa4314d983596114a346d26ffe53bbf0235d5005623e359c5062d1d5ec1ece98a3f95641f999617fcd979b4ff9a9ee71df19e5af384adba98baf88d18d3b0726bf2f227894c5997bb105f03cbed1f28886b0ddd43e43845828b7b9ed865517c794c3ce01ec1786d05518abbfb114cf04d80db412c20d2d10ca5af9af86fa05d44fd1afb5d329817478a6db214dee50ec42f7d81d65745d0faf511c96fab7f82c5f6ece95f5d34367f97530ee71fc90b1ed94ec3368fd25895571c2ad0ef240985514df7ded04f31b8b74a5eb4701017ed99094a05e5b499b4e6288c81eafe04ad7d6c356c29c3724fb199c08320f6ede23c09fec082062cdb68ae344d6f2452214625a84460ea70066393220d6781170531bc894b0b2cb9924d917dda25f6064914665215156a840b1d702a350e812f317abdd8aed532065432f9d8b3a14b3bd7bc14ffb1600bb691d1d73e33c79e852185df554e3b58d111295185141f4007157446d110d607f85f69d9e8c1d2a55b513c212d2d37a366b1bdc579db649762e64a71f0ab2515e1982fdb2b803e7208d5d19cfebff218f08a5e2724914e4e1eece530df1e5f745a3b5b18079f2c64a4de58db3285f972ab0fd97f6d1c77f83f8103c50b4c70326671f5ad1d2762be6c6f8afe7b0505c414879210d78bb444954274b895d73b1ba74aa84b28c052f07d539a13fa6b84fcfdc4d2bcd6de429100e273ecfd517dcf75feda4d14736f1b881c899337f77299eae1c824947f29cf96be36aa69977b73c79e6e4ae841d463dc4fb06d4805bae18dd409e40a5537ed1ff8e31f7f48db8a5161a672a5f6b9aed674b28d9ece28323cf2d3bedb8e7b89d756f6a80977acf0c2bae395b581088afc3cbd4417f39b1796d55f5e98e73bb87ecde6e8ec834b3075e69ef4aa64ba6dab7d840ceb44b840af992f50098edbb2768a6c562fee4338caec1ff5cdb42d1d338cb0bd8d48d4528a648736484f97ed330f6435268d68268a7490cf205540ae4448051b92a57fbe85cf34a43e1e2403277db761acaf890ebcb384525b1ea513b50e6bc82999042f5b988f68b3ed4164abb3ff91469cde67280db4a620fa1e9a79c25a0b47962473006562bfd343ec97a3c5215b71000d8943feb377e09533819ed5328d80a79d41c8dab4d70c217796dd43b479d5119b3d9b3ae3aaadc50aa65a12bf462b3097e3437de802f137dbf753649e960235eba87c565c8a9cf598ab39cc5600ce005996e64b173cafd199e4b798e49d98853d93b61e1b6e284044e8c49f0225c6c4db338ac4ea46ee8215c10707617daea8ed3323bcfc2b652efe31e4ab6b03d68eaa93e7dd5ed779a93d448572a2f5e123b1ed9c3f756eabd571dff298dc3464b3bc1d61dfd9409cd7d9b816ca67a31fd5a144c07393debb89f6fdd2f1f5add650f90352f3aae2b2f837d19ae93b446b4e8f612fa06c2c4b4855dc04c66c999ce9931cb09bf2c0138e188606ee28f903a12b21e78e64b599f9f9b5af28c37784f4786f71ba158ddb9d390a55d2bb7c38f5e6d6856d489000cc8655d10952ed09f988b4ab398bfc5e955dbb4f3eee85f105059ea4724e4bbe66c8d033c07f46b7c3444713c46330e99b0d7ffe392ca8f3c5712341e3238ab64eace23d3588ec2d5ec40078a214e60d50e365f56d18f4e6b9ee9e66c98e57b9e7b3b32dd4421e7869dec98eb37757b40c780f07a00e07f5f1f115838bfde940cf011278ba28f9e32c4155ba2ad8c91a684192f72af67a7a3ee889b6eb06996c84b2e1fbd6fe78d7d77cc60e07d78ecd97338b284d3b59fcf0feca939b7d8bbe13fb2f47b22ae18e54c23a1ee101350f92f63e452edc6450b1117245cb9033e5e8072ac031e85fe34eec62452c8a13abe24487e101207e6fa2e86abb5c1d7011a9329589aa6f079c57c83f63f7d5735bbf72b8746373290c140f47e8fef7c2fc63b3eacee9d3d4a00ce314dc0456519c10365ac44aca9ae48941dddcc631daebf2d27e875e0b274707a85932a2265307d3d6218825546cac7508740a604ec7fec81db920957c916c799bf266d67f8e23a4b9ce576752625f6e799d8fa734c67c60d6a69e40c6525b9f59cfba781f3afaedad1423307f8ac5120d442f8c45f6da8ce8a0c6955cfd7248a153edf50cb32081d92a42e893095133b74d84234fd687b370252ca673ca6fedb58f3a3320e46ec3972e279d73363eeea522a899e686f91615a75f74a4d8a760a2cc79d38f6fe2fc18862af888db6bb0d8999eaa72ba76de444498e8bb707a68629486894208cbec17d6bcd72de272b3d0e5f85335d9a30e03a9eda2764f746c60c82a17a2a067c1a6169cd42fcf9a648c2d3bad8cb91c7f50cb6acc085f6e6bbe9d09e465f4b0becc3ea46986f4a037261cdc56442f9502b9e649ecc779e94f4d1d1d3c3380ecea346167360b69f73d2b97e7133d36504e9a78c9aee48d14d84a801e2f660dd42446ee06bfacce3a55e4fe48f3ebe1833841c11b464f3a78067131893c5f6f2a089a2f3f5466ea7f6006153338421a116ecdf746d3403a2bf8b364646741ef5e12565a7809833c9dea6c70fcb5019c4cb66f1ca60ad1f54102749ae8586bbbe19894068d3375848202254bf82e0d5ce0ccad1e65a0e28662bc08340de86caf99c46f5550d1a0aa80ceb36a5fe437df583690b4c6c1df3fa2e41c8adf9c26c6993506339e31f69598eadb7787a81b3a321f2b5cdc34437da79ad75b9a966413db08f68e44a3b9d697c0e652c10dfc5ad9201cba4deddd3ea810912e7f7aa4fe07ab311be6114ed26a9d3499f95799b3527d17173dea9f6446213d532ca08e32d0ec987f93717986c935d4b65931e06c1fe46bde58d99f2397b65168e9eda81d7084559e31e1b41cb0204001d1c48d7bede4f9fb2e144fc77b1ec62545699606b4c697f95aae76f05fdebe8ec94cf3b8ef176c6799eba29b62cae9fb2fc88a6c21b46acc82e3ae2bfbcad44ad7a61af5d551b8f74d9cd7f3b22ab980a4d8294ceeceb5cd0b48631535dba430fdad0fd46b7eb9b12941d6a7520bceea45c25daf5e54078eb2df79d54c5d279c2c0d44218bac6c96d9345cce9831f90a8a7962a74c0c2dcd8e72ef60b11131418232a2d46656c768bb8b9d5d9e7f9050d11393c4a727d949eb4c5cfe0e7f5fafc0d0f1f274e5963646b7b8796b9c8d6d9dce1e2edf00b384775777c83848c969b9ca4b0bbbdcef6fd00000013253a4d01",
        "00ee41b5fe1bef8fb79a6e723b1c6bfa15529f742f0b48451b3787783e6d35f3d9e098991ae7e06c3d09830db5b24a5a0a6803af6b2d4959c61baf44b04b19ec65dbdc7a67947fa619bc8846f0c6d71f747d89c5569d09d88826089dfe44d3efac017bbf102811c94ceefa8fcaa65a831880d48e1fa342cd83566532de4dd117ac84cdc84927a419902374878c78667511812dbbabd18ffb865880ab05f23b8f02f2e0958b5556c571e9a3dd8f8354931f869dca332e955d47e4a2e49b429835f4088093a37ce27f3f173a5a9bbc7cbe6930d76e9c551a9971d1e68ba14bf360f136b6eccc72924d6298052ec8cb006dd7f7c01906215ba113d3c52cc0c439f466d4ec2cfd155393afec133d2910be9c7b83b98618d19bdf8bfce55c388260eba201b1439aa052e1ca363ecad271f1b755dec58ae97e2722b6ec9da412a4fd2933a846598bb67c4fcc671956737c97e064b51aab6362d09cf4d1f404503288c47f240ea6dab5c10840fbdae257270d3456cbd006b9fddccb41231a5b959f1e0a1ccb09a0573587cf7fc8701dde264a3b3f6b4c22a01ea12efee0527eb39cbe99614251fbf48d7fa9b9776604e9257ff9dbe911674782acd3b4f50d07d37f38d4695578bc58c07fb3dd489b0e5c9876101a24231cd0551ebae772cecd48085924c9efc88b0892abf76cbf312bf96a7663639361852dcc0a716d951908684375340e0fe67db7b5a6a2ed7a6d6ec52535f6a7aea30229974951ae06f0c5b2c263be0ac8a6668546c973153c0dc904dd39e6d8a6793d5b7f4394ea04a5915c57f74755d50b323ba35edf2b49550e5ce2b96efe0c011096227fdfbf9b6f4b022248828b76a050aba3fd2a4631e369e5b69ce2497f7a6ee9b7af4c6d77f80e86094d4778be49858a88922b64aca0ce8e36e6c92611ef2c04c4c1eb31802a036fe8c86e7e59ba2c8e82995af52536638836f9e11c6b85fe0e891b4539f76d323da6eb9ed2dfbdf6214fca6281ba049eb0de96ee9f3353e6a9ed18e445dad85d52456200afa077ce8fabadce81eaa0d1fdc17c821a97509fc7b968eb26d44048930730fb3c0a65fc3c30cd14584eccb6ada3d08f374af5688765139dce8f8c9461c025bbbd2fcf3974737cd06519d902c3ee2dac3c728f172651b295d0f3fc0ef9e31125df5ada8a5d082913fdfb66994def10dfc66cf32f22b98ab2b98a1a1839e34ed1a475aa5dbca13aa3aaaa762e7404b6d36bd4fcbc5735cb36e1f7e0f4316426790a653c8b9187264248ea1802cdc7c06021c4e81dbb405271b75394bcd45ccc58b4d67a1f1fb8f1e03cc53f0861c068b9af98db50093b37b9814e67990d682ec9213d5dabb3c7240ba2490a72d340480068e50df61426f56d95db47df6249b1f8444163aa0a73e20fe9ad4f86eb74587e4da9603fef292114b75b17f024d76421d435dcb6f3987183f170c245f6ae982ec7b377186d050422efcc5121a764674f5b37fa9f70b562860bfcb5413832594cae6baeecf5aaa5357ab80ea8c599438c56865cb8d102facc0f10e95ddb350273438bb8b1d1806d311d982c903aa6a16be751102655109fd4da143f8fb5c788f11d4d857d65ceda3cd7081caa11d7df0ca6cac218a3669fe22630f3d0591e4c4561b7e9d786d3bad05d2a3f3b314d5910c2118a5e26acbfbbe85e2db428e55125a30425673a4775f1547ac23de77d4d7fbd2ef61ba3822b58e6a3810e217e942c76f202c40f459bff88a8af606e2bc904151af32d9fe1e0557e16564dff0f4421d40e1f01879bdc048417b1ff6b58b0296d629c3a98429c5c547a838f8fa4fd4856ca725eff4673d658038660b24667049a"
      ],
      "sequence": 4294967294
    }
  ],
  "vout": [
    {
      "value": 1.0,
      "n": 0,
      "scriptPubKey": {
        "asm": "OP_RETURN 87781c90efc3051e53611bacc3522073bfce754b707644df55128b91d09d4583 13fc769aa5449abdfad9f7359ca4269b5fcff94a5f503585663c20811bf9faa433dc56ba8564ba9ddaf9d715bc8406bb7fefd96a7f7015a5461c00a13bd9da8453bc36dae504dafdba99b775dce466db1f8fb90a1f1075c5267c60c15bb9bae4739c16fac524fadd9ab99755fcc446fb3faf992a3f3055e5065c40e17b999ac4937cf61a25c41a3d7a5977b51c24a61bdf4f79cadfd0b505e6bca0019b797a24b35cd63a05e43a1d5a7957953c04863bff6f59eafff09525c69c8021bb595a04d33cb65a65845a7d3a1937f55c64e65b9f0f398a9f90f545a6fce041db393a64f31c967a45a47a5d1a3917d57c44c67bbf2f19aabfb0d56586dcc061fb191a4413fc769aa5449abdfad9f7359ca4269b5fcff94a5f503585663c20811bf9faa433dc56ba8564ba9ddaf9d715bc8406bb7fefd96a7f7015a5461c00a13bd9da8453bc36dae504dafdba99b775dce466db1f8fb90a1f1075c5267c60c15bb9bae4739c16fac524fadd9ab99755fcc446fb3faf992a3f3055e5065c40e17b999ac4937cf61a25c41a3d7a5977b51c24a61bdf4f79cadfd0b505e6bca0019b797a24b35cd63a05e43a1d5a7957953c04863bff6f59eafff09525c69c8021bb595a04d33cb65a65845a7d3a1937f55c64e65b9f0f398a9f90f545a6fce041db393a64f31c967a45a47a5d1a3917d57c44c67bbf2f19aabfb0d56586dcc061fb191a4413fc769aa5449abdfad9f7359ca4269b5fcff94a5f503585663c20811bf9faa433dc56ba8564ba9ddaf9d715bc8406bb7fefd96a7f7015a5461c00a13bd9da8453bc36dae504dafdba99b775dce466db1f8fb90a1f1075c5267c60c15bb9bae4739c16fac524fadd9ab99755fcc446fb3faf992a3f3055e5065c40e17b999ac4937cf61a25c41a3d7a5977b51c24a61bdf4f79cadfd0b505e6bca0019b797a24b35cd63a05e43a1d5a7957953c04863bff6f59eafff09525c69c8021bb595a04d33cb65a65845a7d3a1937f55c64e65b9f0f398a9f90f545a6fce041db393a64f31c967a45a47a5d1a3917d57c44c67bbf2f19aabfb0d56586dcc061fb191a4413fc769aa5449abdfad9f7359ca4269b5fcff94a5f503585663c20811bf9faa433dc56ba8564ba9ddaf9d715bc8406bb7fefd96a7f7015a5461c00a13bd9da8453bc36dae504dafdba99b775dce466db1f8fb90a1f1075c5267c60c15bb9bae4739c16fac524fadd9ab99755fcc446fb3faf992a3f3055e5065c40e17b999ac4937cf61a25c41a3d7a5977b51c24a61bdf4f79cadfd0b505e6bca0019b797a24b35cd63a05e43a1d5a7957953c04863bff6f59eafff09525c69c8021bb595a04d33cb65a65845a7d3a1937f55c64e65b9f0f398a9f90f545a6fce041db393a64f31c967a45a47a5d1a3917d57c44c67bbf2f19aabfb0d56586dcc061fb191a4413fc769aa5449abdfad9f7359ca4269b5fcff94a5f503585663c20811bf9faa433dc56ba8564ba9ddaf9d715bc8406bb7fefd96a7f7015a5461c00a13bd9da8453bc36dae504dafdba99b775dce466db1f8fb90a1f1075c5267c60c15bb9bae4739c16fac524fadd9ab99755fcc446fb3faf992a3f3055e5065c40e17b999ac4937cf61a25c41a3d7a5977b51c24a61b124ccd67fefef37bd706966e260d85b383e2865a53c1e1cf9f53245a273a2050",
        "hex": "6a2087781c90efc3051e53611bacc3522073bfce754b707644df55128b91d09d45834db00413fc769aa5449abdfad9f7359ca4269b5fcff94a5f503585663c20811bf9faa433dc56ba8564ba9ddaf9d715bc8406bb7fefd96a7f7015a5461c00a13bd9da8453bc36dae504dafdba99b775dce466db1f8fb90a1f1075c5267c60c15bb9bae4739c16fac524fadd9ab99755fcc446fb3faf992a3f3055e5065c40e17b999ac4937cf61a25c41a3d7a5977b51c24a61bdf4f79cadfd0b505e6bca0019b797a24b35cd63a05e43a1d5a7957953c04863bff6f59eafff09525c69c8021bb595a04d33cb65a65845a7d3a1937f55c64e65b9f0f398a9f90f545a6fce041db393a64f31c967a45a47a5d1a3917d57c44c67bbf2f19aabfb0d56586dcc061fb191a4413fc769aa5449abdfad9f7359ca4269b5fcff94a5f503585663c20811bf9faa433dc56ba8564ba9ddaf9d715bc8406bb7fefd96a7f7015a5461c00a13bd9da8453bc36dae504dafdba99b775dce466db1f8fb90a1f1075c5267c60c15bb9bae4739c16fac524fadd9ab99755fcc446fb3faf992a3f3055e5065c40e17b999ac4937cf61a25c41a3d7a5977b51c24a61bdf4f79cadfd0b505e6bca0019b797a24b35cd63a05e43a1d5a7957953c04863bff6f59eafff09525c69c8021bb595a04d33cb65a65845a7d3a1937f55c64e65b9f0f398a9f90f545a6fce041db393a64f31c967a45a47a5d1a3917d57c44c67bbf2f19aabfb0d56586dcc061fb191a4413fc769aa5449abdfad9f7359ca4269b5fcff94a5f503585663c20811bf9faa433dc56ba8564ba9ddaf9d715bc8406bb7fefd96a7f7015a5461c00a13bd9da8453bc36dae504dafdba99b775dce466db1f8fb90a1f1075c5267c60c15bb9bae4739c16fac524fadd9ab99755fcc446fb3faf992a3f3055e5065c40e17b999ac4937cf61a25c41a3d7a5977b51c24a61bdf4f79cadfd0b505e6bca0019b797a24b35cd63a05e43a1d5a7957953c04863bff6f59eafff09525c69c8021bb595a04d33cb65a65845a7d3a1937f55c64e65b9f0f398a9f90f545a6fce041db393a64f31c967a45a47a5d1a3917d57c44c67bbf2f19aabfb0d56586dcc061fb191a4413fc769aa5449abdfad9f7359ca4269b5fcff94a5f503585663c20811bf9faa433dc56ba8564ba9ddaf9d715bc8406bb7fefd96a7f7015a5461c00a13bd9da8453bc36dae504dafdba99b775dce466db1f8fb90a1f1075c5267c60c15bb9bae4739c16fac524fadd9ab99755fcc446fb3faf992a3f3055e5065c40e17b999ac4937cf61a25c41a3d7a5977b51c24a61bdf4f79cadfd0b505e6bca0019b797a24b35cd63a05e43a1d5a7957953c04863bff6f59eafff09525c69c8021bb595a04d33cb65a65845a7d3a1937f55c64e65b9f0f398a9f90f545a6fce041db393a64f31c967a45a47a5d1a3917d57c44c67bbf2f19aabfb0d56586dcc061fb191a4413fc769aa5449abdfad9f7359ca4269b5fcff94a5f503585663c20811bf9faa433dc56ba8564ba9ddaf9d715bc8406bb7fefd96a7f7015a5461c00a13bd9da8453bc36dae504dafdba99b775dce466db1f8fb90a1f1075c5267c60c15bb9bae4739c16fac524fadd9ab99755fcc446fb3faf992a3f3055e5065c40e17b999ac4937cf61a25c41a3d7a5977b51c24a61b124ccd67fefef37bd706966e260d85b383e2865a53c1e1cf9f53245a273a2050",
        "type": "nulldata"
      }
    },
    {
      "value": 499975.5944,
      "n": 1,
      "scriptPubKey": {
        "asm": "1 2a3c836f4dbef58a01c39dc32c603562d4f9d34ebf6adfeeb6674ed2e473934e",
        "hex": "51202a3c836f4dbef58a01c39dc32c603562d4f9d34ebf6adfeeb6674ed2e473934e",
        "reqSigs": 1,
        "type": "witness_v1_scripthash",
        "addresses": [
          "3QJmnh"
        ]
      }
    }
  ],
  "blockhash": "fe93069f37b49cfb15542a42b300d4e9dc573fdbbe6c5d081907ef62d551896a",
  "confirmations": 1,
  "time": 1764180962,
  "blocktime": 1764180962
}