{
  "hex": "0100000000010153eb9954620948e95fad5bf5dfc18c38bddca50e31a1e6c92e68460d8c5add7d0100000000feffffff0220cc6133792d0000225120f000288d602a181c36d05d3a083f2b69d78a1f338968528f19d2401cd38aa80b00e1f50500000000fdd5046a2010d1803d812511b664a6fa1f6593ebab7c891c7015956e0769067d41abec6e854db004075e3109128c8018a8d37848e9eedef732d2e27c3bd991aa3d1b6259ab2fd10f277e112932aca03888f35868c9cefed712f2c25c1bf9b18a1d3b42798b0ff12f471e714952ccc058e8933808a9ae9eb77292a23c7b99d1ea7d5b2219eb6f914f673e516972ece078c8b31828898ebe9752b2821c5bb9f1ca5d7b0239cb4fb16f87deb189920c00982853f8c8696e5e77b25262fcbb59112abd9be2d92baf518fa7fe91a9b22c20b80873d8e8494e7e57927242dc9b79310a9dbbc2f90b8f71afc79ef1c9d24c40d86813b888292e1e37f21222bcfb19516afddba2996bef11cfe7bed1e9f26c60f8483398a8090e3e17d232029cdb39714addfb82b94bcf31ef075e3109128c8018a8d37848e9eedef732d2e27c3bd991aa3d1b6259ab2fd10f277e112932aca03888f35868c9cefed712f2c25c1bf9b18a1d3b42798b0ff12f471e714952ccc058e8933808a9ae9eb77292a23c7b99d1ea7d5b2219eb6f914f673e516972ece078c8b31828898ebe9752b2821c5bb9f1ca5d7b0239cb4fb16f87deb189920c00982853f8c8696e5e77b25262fcbb59112abd9be2d92baf518fa7fe91a9b22c20b80873d8e8494e7e57927242dc9b79310a9dbbc2f90b8f71afc79ef1c9d24c40d86813b888292e1e37f21222bcfb19516afddba2996bef11cfe7bed1e9f26c60f8483398a8090e3e17d232029cdb39714addfb82b94bcf31ef075e3109128c8018a8d37848e9eedef732d2e27c3bd991aa3d1b6259ab2fd10f277e112932aca03888f35868c9cefed712f2c25c1bf9b18a1d3b42798b0ff12f471e714952ccc058e8933808a9ae9eb77292a23c7b99d1ea7d5b2219eb6f914f673e516972ece078c8b31828898ebe9752b2821c5bb9f1ca5d7b0239cb4fb16f87deb189920c00982853f8c8696e5e77b25262fcbb59112abd9be2d92baf518fa7fe91a9b22c20b80873d8e8494e7e57927242dc9b79310a9dbbc2f90b8f71afc79ef1c9d24c40d86813b888292e1e37f21222bcfb19516afddba2996bef11cfe7bed1e9f26c60f8483398a8090e3e17d232029cdb39714addfb82b94bcf31ef075e3109128c8018a8d37848e9eedef732d2e27c3bd991aa3d1b6259ab2fd10f277e112932aca03888f35868c9cefed712f2c25c1bf9b18a1d3b42798b0ff12f471e714952ccc058e8933808a9ae9eb77292a23c7b99d1ea7d5b2219eb6f914f673e516972ece078c8b31828898ebe9752b2821c5bb9f1ca5d7b0239cb4fb16f87deb189920c00982853f8c8696e5e77b25262fcbb59112abd9be2d92baf518fa7fe91a9b22c20b80873d8e8494e7e57927242dc9b79310a9dbbc2f90b8f71afc79ef1c9d24c40d86813b888292e1e37f21222bcfb19516afddba2996bef11cfe7bed1e9f26c60f8483398a8090e3e17d232029cdb39714addfb82b94bcf31ef075e3109128c8018a8d37848e9eedef732d2e27c3bd991aa3d1b6259ab2fd10f277e112932aca03888f35868c9cefed712f2c25c1bf9b18a1d3b42798b0ff12f471e714952ccc058e8933808a9ae9eb77292a23c7b99d1ea7d5b2219eb6f914f673e516972ece078c8b31828898ebe9752b2821c5bb9f1ca5d7b0239cb4fb16f87deb189920c00982853f8c8696e5e77cb5640a408944cba8eb7f38a1b961f37da41377353d6cb407540ec869d9ecbd202fd750988de2db43a517f3ced07671533133a9811cb814ae9c397b6c76a164d2472ea3b531d9976f8858fe482f4acabce813d377422fd2857fe310990f1cd9f2fd1bc3b79c12ff41ff5f595c07d68caaea45fdc20b4f7bf0e8f99a0ff4002eabaad480fe25dc6123edce987dfc9dd1769c867b2b7fa0ad9ea416dafa7a14527b10d84ea935a4cc9e9898cebf05f671a4b887c85d20b56d07500a02f36297309f8c67f3978d8e925180a8ded30ce3943137dd06fc38399744389295dcee807a0ed6a9aeeed4450924200d973f256fce005665bc4fe2582f58dbefa0f0a496df2e61d9dfb6615bb8507876cb8f2367220d6e7e2b52d1074c55c0f97ba153d2ab6fbcbe25ff685f659d7d063d6615c9a68228a51fa1ee4f9a1c881ec4b24394ed35acc30bdea879d596642ee0f4e6bdb16186e8dd57eeba29c894d5938427006489e00de53fa99309b6f303da0c1945ba864b48a6f3ba62f1eab5c82b53ebcf58961a30bc98f37d628b617c4294627659648d58e9049159aa955fa5355b5ea4a6aa3b428ebd5148448af38eebcdaf0fd8338b1c5d509823f54455d29616bae0e96e099ea2000b95d61feeda825fab35d3d1e4b4b04846697bea695d02f57951cdbd5496b1049056f9714de2e1af07dfe44c8b7d7659895765e2cc7931abf3b462178b7c355661757806a3a4929efd3dfe8501e5932cad2ed1c2398d17cb01eaba9202da23728ac1cb8a93e80cc8c483aede86ae7baed10a00850e3c59691209b2965abd81a034b931b2c05c15f2b75c9abef21974e967e1dce07a1583a228e4c04633563c95a046b7634315f3f22544def68b0404726bc165e7f9003145fb54980ca739907916296124547b84c5a65d632d90e1061961136962e7ca2eb27807cd01a604491073c81535d9cceb203e6a709901ab37c101c184ddcdf1db114c1859920a7b3f876019a09a215a5856235448406aee1f4de2f1f7874269660312dfd56b224b57facd5b79bbbf53bb505e9cf3b67422d8475b811d906a6ebd335ffc136e4fdb2ecd7ff43c90ed5489cf4b6fc259fbc6865ff026816b5d03c3e9737e2f117756713b6044a49bfa0da1f51bb7da7e2352c4a46c343a941ec444bd98c456047c1c0f38feb7d650ddbcef858d608d1c53c99d43db6c2275fd4f673c5bc7eb1d7f47484d2568aabb62621d48bde1478755d641199939cb3bac2f71c3577bb0d4d4cd72bb6b1e62eefd4a3d6e606759f7be8acac70243bd5c41f468016af44d888a3d67eafdf696c96f39ae13f857427283eb7fb76fca3a56a88a35bb61fb910a509096464317daa0d17986771d8a30bf2cb469387ca26ca1d90882ec35513430ad61ecd0c56f7087d9823c39563d4bbbbfd03966de179481b15e04b4415217a91e0217c8dd1f99e90b00dfbad83055956641da1c8be027b201c1b5cec8fc99dbcb083ff1a062703274f49b205481f0bce28de4b66914d84aacd5ab1a4aa714c82f80e4e6055ee9d8964f3e30f39d58912cf089f03767b4a4a168a00341dd01189a154f75efd5bbc63d3ec5b45b7dc52073971fdb3eb319ddef9519a8eab19e86d51965545e8f43b76feb6e62a2dbf71b39358c366dd29479d48483d4ff055391c74bc65f3758ee26b07f4ecb68938a81c9237e0c20d29b73a7effe268b2158803f91b5d8fd30e535c8441ce93c1bec5bfc646c21aada9c1e63b67097ade75beb0bfc6f77c00e649783ef4be5ef2d2cc1c28e99b12721a2630d66bcf99a9c26680612b09f05421338f7b3aac6046a1759bfc7a19318e3f47db17af886701b419a7ddabab43b45f3c2c922c21c97192a5f7f88a8930d1e383a5dde330c4f7d6703bea679a433f18017ce013c83afc68105de4445329f0ba66517b8e8f36b37410bed945d963685c90e29152e910958090b248df64521301a35ba8e71dd57fc0088979fc2ecd64c4b572141e8cc07474c91e66f8c8dc3ea042fe881c3405c6706fcd95ac59bd613a51def493d09ac5057001884a30845767c38ff64ffd7880aca6fdd4b69659971b98c20e8f5621b2a7a6bf62313e30359dc195aaad1f4be61582229a999598576b49aa63484ebdfc65dd5fb813bfb6fdb4314dfa06945f269b778dca454c269cdc1e33c93a866658bd5747e8c3f0e0a2464294c4961be60ae889409406a6e2df58b0d50339008529b901da5d2f2c381cbae7ed2320a3fc96abd1852db1c5120e646af0000f71dc8c8ffdc259c150f2de30143f80e4b1f74744ef9b860b740a9469916d6599e066a3c9cbc6739b43ef575f7ecda0a5b69d5671bec5c024df43ae499c7e718a5a9abdb26648559bbf136edffd1d73b3caf9d3d9f82cc6811f2501670fd12a09fde15fd151c0e75338911e7134bf4c4f3d432d7d4d928b4d4cb302b7b675a85f5daf2ab314349171568ffb7799b4811d93cfc9d2eed2fa38ab146136c29fa8298b146d0dde0e7300a932ef6c2177a5018e10594e78ed6a62c9130086a03cac90f2a55a620f6b46469f5137658450f5405feac86fe557421aaff0516d6b4fa39f3fd6e6b0a681ef509a736c7e556c1f0c2cf752032a699484a8a4dfed5bffcb3f74484bf64c72086185cd02afb476b65238c2b76c2884df7a6c61d688bbc9880828d75acde14ed89ec51d6147047eaa37059abd34a9766a5c487ba7660bbbed885acdf8154ad814dc9c10567a30549a68e9763f4c146550c8bdf906184c4ce902d9146bbe3282a84b2235011468b4ca1cb16210bac423f412c12089ca3d2acbdb6abef710c41876f672f4f77f188b0af5312644afd4a08bc48911f97276f7529ff0f2987c2ec054b07e87c47f49fa0fd72416417b0f223c9f0a7201cdac7130427bcb1885c4c435a770c250ddd84dc1db4c8d809e30b26a1cb846f98095d72645bf5b66cb7d83110acbb4c3ddf0ee0ef2d2b874474f8028dbc7b61231a75c6ddedd1e55d452a84ca8ce40f02c64da11e9d2ed8380771ee9ef686e3c76a27eb7f5790a984d7b363766e91bf6c6478a0891c11ee3ea85e13aae733586f8a5d57c24ac7326f16a097a6ceee74e9124df37b893975f1aca9070ba7dae1de4e4069c79f54c80846d2632c12bfa1544be3c3cc0da4a5e40d071661990145e8a9ea13c724681ef32700d439e44a199d7fdafcdbb448b79e71b38c7255d51a8724bbfd2994d3c17171f6a401ffaed923eb63b588e0ce4a3a541b9453f57a75ee17dbbffc44aa4595c370809a4a1e380b084b4731cec6bcc42dcf229e98d89d93332c368692165a35acba876ede9ee3b07836ef1b21c09a86211376ab1b2060b141d1e25282e3343585d656878797b8b9d9ea9c20405070b1516262728354050595f66848990a1b7f6f8000b152953728595a1a6b2bec2cdd0db0e26283742586f74787e8687a6b4c4d5e3fc0000162c3c4e01fd210500608e4d19053c954c6ce1f2021e07f172b0a3039f1aaa763172e838b0d7bb73d8038e4073168a6a742dcee2a0b0fe5e037578137e803740563c7024bada0da3c03470e53690279fcfda5b75c08b442af1c4f5e24f5596bd5176f4423924e5e38d78c2b6af68cf025538526708534ccc50f0d125ee5593979b2c14abdc957a99072ccce9a672157f9cc7deb35d44d9e9010f4b44cf18d4b75264fba5ff74e62b6b6121c9985aa36f4c63ed7de55fe44007745ababd2d1c76cfec1641a7538e159fa2c5e0ecf6f0ef5fc9ccb591cc3fcd14d07296b396d8ca2f5ba7a51dae7d44532c72994e1423d852946ad4a5c64b6fb963f58129a712d5a322579a851daa8c8dc7de3178605ab7dd4d508b51292d1ce87f7b23659877851e48463586ed6d2564fb99a195de9630774751463420d0335cb7eeca9bca08ef2ea7d539489a58e691dabf80a8082462d243a9e6b584a8164b58ed02a4907720de8481cf82b420828673ca06cc8e9c9eb5142be409cd0c1e2111a613872dcea72384175c953f4870d18fa163b34c766c641bd960641de5f37a637a9d17a01151e57f999e01830dc522c5a8d34fb1c0d125545aeaf2ca01a30433d13bb6defd7930e0885be62af1b51d3ac7e51aa79ceefa6e544cee788a3366d6ee5b6c95097177aa56d57131c3a25bd90397fa6a31bbdfc788fc71db78c1b26f29a98681226ad52885d2e67e69ccd0e1f58c6c1391fd354c1b9baacf307c99f14254f84d2ae7b028c366acba712eadced4da3d75274450436583776df6da443b7e7f7f5bd18f510d0127d0766eb41c29760ff271e956bd795c04cfffbdb2c13025f079502232ac498ad11e75fdc87560a7de3f516c6cb337d9b4c4acd00cbb9a43ab1fdece17d8ce6351bad1924b19e9b1998a0105299174e42d23c3fd2a0fd353dab4fc6e42edf9bcac671d47c76ba4c1f87d87feaf1eb85499151ea909aaa30e139a541a69e6a84c894a554c7437a46a3e2c77147e1c2bceaf57eac1a9c8713e0d20b42bddf0f0190b02dbbc8dd9dadf457ff39e8a5da02fd3fb6b2ece12d685d244c1752a5c706d1030b65c708fef45856304788ef6d4649df48d3aa2631a9387d72d3be32edd921967e55bea6225aae8a74a7d5beba7d907384b2f6087fd64458fc70b7c8f08ae084ec1197997e06af7b6158ac9f92480500f0dd08a10e2be764ceb735c74d16ce8590b43cd37f69b06c2a310c64274228faf70c09e80c9523c4096acff2f54c3ee1cc7936aa63a8448bc5fa7e98a736466d5fed6a85ca31dd06a7698580bdb1c4a7253db7543d76732b6750fc70f97df9a3c676aef04738880347ca674ff259de7e155567c6b8a116bed36baeabd712c5944d8f1b58516943f6eadfaa9c034f0fc80099e654266ba2d6657593e9aab149b5c3e9a647cc75d74be0295f5be2e5c035517026e1676441afb0520a9e2508f11d933341518403a50a1bf68fab51e6b538a3296ac98b9f0c804397a07fe7d1461e637bdc5634b4223a88ba47c671871f23c36e25a53bcac4cfac48b89b9454e08bdb31a349dcf5329f84a0d8b5a43c5c722964d0ab091c51b5b7335fd4a0ced06b136725b0b8cd2626c30a173251640b19e2caaee2f55ea255902af5267639bdabc3f9ef05fe64d6e8a7aa52175d6baccc93789b45e735b06bafa3bb82de7108bbdcbcf52de9fe056d844f54f0b67339a351ced0735447fc8c81a56e59331db924465a089fd7fdc8e76941a2f7b35a9d63eb1fc21da686a02a020d19a62f4d6307d6151c52db27b79e0aee0ccfe82b730a886f2ee342fc634c8603fc52feb47cced688c857631b10a82dfd7db0639638bbdd6909fa139000000",
  "txid": "9e020ce1e6fb4359b3c8da12e7b4bd1adc1a152c7b257013fefb8276640deb7a",
  "hash": "d6d936e8ca85636c78bc9cf21180caa3c34669ccb9df9c2b509cbc850c15005c",
  "size": 5085,
  "vsize": 2278,
  "version": 1,
  "locktime": 57,
  "vin": [
    {
      "txid": "7ddd5a8c0d46682ec9e6a1310ea5dcbd388cc1dff55bad5fe94809625499eb53",
      "vout": 1,
      "scriptSig": {
        "asm": "",
        "hex": ""
      },
      "txinwitness": [
        "88de2db43a517f3ced07671533133a9811cb814ae9c397b6c76a164d2472ea3b531d9976f8858fe482f4acabce813d377422fd2857fe310990f1cd9f2fd1bc3b79c12ff41ff5f595c07d68caaea45fdc20b4f7bf0e8f99a0ff4002eabaad480fe25dc6123edce987dfc9dd1769c867b2b7fa0ad9ea416dafa7a14527b10d84ea935a4cc9e9898cebf05f671a4b887c85d20b56d07500a02f36297309f8c67f3978d8e925180a8ded30ce3943137dd06fc38399744389295dcee807a0ed6a9aeeed4450924200d973f256fce005665bc4fe2582f58dbefa0f0a496df2e61d9dfb6615bb8507876cb8f2367220d6e7e2b52d1074c55c0f97ba153d2ab6fbcbe25ff685f659d7d063d6615c9a68228a51fa1ee4f9a1c881ec4b24394ed35acc30bdea879d596642ee0f4e6bdb16186e8dd57eeba29c894d5938427006489e00de53fa99309b6f303da0c1945ba864b48a6f3ba62f1eab5c82b53ebcf58961a30bc98f37d628b617c4294627659648d58e9049159aa955fa5355b5ea4a6aa3b428ebd5148448af38eebcdaf0fd8338b1c5d509823f54455d29616bae0e96e099ea2000b95d61feeda825fab35d3d1e4b4b04846697bea695d02f57951cdbd5496b1049056f9714de2e1af07dfe44c8b7d7659895765e2cc7931abf3b462178b7c355661757806a3a4929efd3dfe8501e5932cad2ed1c2398d17cb01eaba9202da23728ac1cb8a93e80cc8c483aede86ae7baed10a00850e3c59691209b2965abd81a034b931b2c05c15f2b75c9abef21974e967e1dce07a1583a228e4c04633563c95a046b7634315f3f22544def68b0404726bc165e7f9003145fb54980ca739907916296124547b84c5a65d632d90e1061961136962e7ca2eb27807cd01a604491073c81535d9cceb203e6a709901ab37c101c184ddcdf1db114c1859920a7b3f876019a09a215a5856235448406aee1f4de2f1f7874269660312dfd56b224b57facd5b79bbbf53bb505e9cf3b67422d8475b811d906a6ebd335ffc136e4fdb2ecd7ff43c90ed5489cf4b6fc259fbc6865ff026816b5d03c3e9737e2f117756713b6044a49bfa0da1f51bb7da7e2352c4a46c343a941ec444bd98c456047c1c0f38feb7d650ddbcef858d608d1c53c99d43db6c2275fd4f673c5bc7eb1d7f47484d2568aabb62621d48bde1478755d641199939cb3bac2f71c3577bb0d4d4cd72bb6b1e62eefd4a3d6e606759f7be8acac70243bd5c41f468016af44d888a3d67eafdf696c96f39ae13f857427283eb7fb76fca3a56a88a35bb61fb910a509096464317daa0d17986771d8a30bf2cb469387ca26ca1d90882ec35513430ad61ecd0c56f7087d9823c39563d4bbbbfd03966de179481b15e04b4415217a91e0217c8dd1f99e90b00dfbad83055956641da1c8be027b201c1b5cec8fc99dbcb083ff1a062703274f49b205481f0bce28de4b66914d84aacd5ab1a4aa714c82f80e4e6055ee9d8964f3e30f39d58912cf089f03767b4a4a168a00341dd01189a154f75efd5bbc63d3ec5b45b7dc52073971fdb3eb319ddef9519a8eab19e86d51965545e8f43b76feb6e62a2dbf71b39358c366dd29479d48483d4ff055391c74bc65f3758ee26b07f4ecb68938a81c9237e0c20d29b73a7effe268b2158803f91b5d8fd30e535c8441ce93c1bec5bfc646c21aada9c1e63b67097ade75beb0bfc6f77c00e649783ef4be5ef2d2cc1c28e99b12721a2630d66bcf99a9c26680612b09f05421338f7b3aac6046a1759bfc7a19318e3f47db17af886701b419a7ddabab43b45f3c2c922c21c97192a5f7f88a8930d1e383a5dde330c4f7d6703bea679a433f18017ce013c83afc68105de4445329f0ba66517b8e8f36b37410bed945d963685c90e29152e910958090b248df64521301a35ba8e71dd57fc0088979fc2ecd64c4b572141e8cc07474c91e66f8c8dc3ea042fe881c3405c6706fcd95ac59bd613a51def493d09ac5057001884a30845767c38ff64ffd7880aca6fdd4b69659971b98c20e8f5621b2a7a6bf62313e30359dc195aaad1f4be61582229a999598576b49aa63484ebdfc65dd5fb813bfb6fdb4314dfa06945f269b778dca454c269cdc1e33c93a866658bd5747e8c3f0e0a2464294c4961be60ae889409406a6e2df58b0d50339008529b901da5d2f2c381cbae7ed2320a3fc96abd1852db1c5120e646af0000f71dc8c8ffdc259c150f2de30143f80e4b1f74744ef9b860b740a9469916d6599e066a3c9cbc6739b43ef575f7ecda0a5b69d5671bec5c024df43ae499c7e718a5a9abdb26648559bbf136edffd1d73b3caf9d3d9f82cc6811f2501670fd12a09fde15fd151c0e75338911e7134bf4c4f3d432d7d4d928b4d4cb302b7b675a85f5daf2ab314349171568ffb7799b4811d93cfc9d2eed2fa38ab146136c29fa8298b146d0dde0e7300a932ef6c2177a5018e10594e78ed6a62c9130086a03cac90f2a55a620f6b46469f5137658450f5405feac86fe557421aaff0516d6b4fa39f3fd6e6b0a681ef509a736c7e556c1f0c2cf752032a699484a8a4dfed5bffcb3f74484bf64c72086185cd02afb476b65238c2b76c2884df7a6c61d688bbc9880828d75acde14ed89ec51d6147047eaa37059abd34a9766a5c487ba7660bbbed885acdf8154ad814dc9c10567a30549a68e9763f4c146550c8bdf906184c4ce902d9146bbe3282a84b2235011468b4ca1cb16210bac423f412c12089ca3d2acbdb6abef710c41876f672f4f77f188b0af5312644afd4a08bc48911f97276f7529ff0f2987c2ec054b07e87c47f49fa0fd72416417b0f223c9f0a7201cdac7130427bcb1885c4c435a770c250ddd84dc1db4c8d809e30b26a1cb846f98095d72645bf5b66cb7d83110acbb4c3ddf0ee0ef2d2b874474f8028dbc7b61231a75c6ddedd1e55d452a84ca8ce40f02c64da11e9d2ed8380771ee9ef686e3c76a27eb7f5790a984d7b363766e91bf6c6478a0891c11ee3ea85e13aae733586f8a5d57c24ac7326f16a097a6ceee74e9124df37b893975f1aca9070ba7dae1de4e4069c79f54c80846d2632c12bfa1544be3c3cc0da4a5e40d071661990145e8a9ea13c724681ef32700d439e44a199d7fdafcdbb448b79e71b38c7255d51a8724bbfd2994d3c17171f6a401ffaed923eb63b588e0ce4a3a541b9453f57a75ee17dbbffc44aa4595c370809a4a1e380b084b4731cec6bcc42dcf229e98d89d93332c368692165a35acba876ede9ee3b07836ef1b21c09a86211376ab1b2060b141d1e25282e3343585d656878797b8b9d9ea9c20405070b1516262728354050595f66848990a1b7f6f8000b152953728595a1a6b2bec2cdd0db0e26283742586f74787e8687a6b4c4d5e3fc0000162c3c4e01",
        "00608e4d19053c954c6ce1f2021e07f172b0a3039f1aaa763172e838b0d7bb73d8038e4073168a6a742dcee2a0b0fe5e037578137e803740563c7024bada0da3c03470e53690279fcfda5b75c08b442af1c4f5e24f5596bd5176f4423924e5e38d78c2b6af68cf025538526708534ccc50f0d125ee5593979b2c14abdc957a99072ccce9a672157f9cc7deb35d44d9e9010f4b44cf18d4b75264fba5ff74e62b6b6121c9985aa36f4c63ed7de55fe44007745ababd2d1c76cfec1641a7538e159fa2c5e0ecf6f0ef5fc9ccb591cc3fcd14d07296b396d8ca2f5ba7a51dae7d44532c72994e1423d852946ad4a5c64b6fb963f58129a712d5a322579a851daa8c8dc7de3178605ab7dd4d508b51292d1ce87f7b23659877851e48463586ed6d2564fb99a195de9630774751463420d0335cb7eeca9bca08ef2ea7d539489a58e691dabf80a8082462d243a9e6b584a8164b58ed02a4907720de8481cf82b420828673ca06cc8e9c9eb5142be409cd0c1e2111a613872dcea72384175c953f4870d18fa163b34c766c641bd960641de5f37a637a9d17a01151e57f999e01830dc522c5a8d34fb1c0d125545aeaf2ca01a30433d13bb6defd7930e0885be62af1b51d3ac7e51aa79ceefa6e544cee788a3366d6ee5b6c95097177aa56d57131c3a25bd90397fa6a31bbdfc788fc71db78c1b26f29a98681226ad52885d2e67e69ccd0e1f58c6c1391fd354c1b9baacf307c99f14254f84d2ae7b028c366acba712eadced4da3d75274450436583776df6da443b7e7f7f5bd18f510d0127d0766eb41c29760ff271e956bd795c04cfffbdb2c13025f079502232ac498ad11e75fdc87560a7de3f516c6cb337d9b4c4acd00cbb9a43ab1fdece17d8ce6351bad1924b19e9b1998a0105299174e42d23c3fd2a0fd353dab4fc6e42edf9bcac671d47c76ba4c1f87d87feaf1eb85499151ea909aaa30e139a541a69e6a84c894a554c7437a46a3e2c77147e1c2bceaf57eac1a9c8713e0d20b42bddf0f0190b02dbbc8dd9dadf457ff39e8a5da02fd3fb6b2ece12d685d244c1752a5c706d1030b65c708fef45856304788ef6d4649df48d3aa2631a9387d72d3be32edd921967e55bea6225aae8a74a7d5beba7d907384b2f6087fd64458fc70b7c8f08ae084ec1197997e06af7b6158ac9f92480500f0dd08a10e2be764ceb735c74d16ce8590b43cd37f69b06c2a310c64274228faf70c09e80c9523c4096acff2f54c3ee1cc7936aa63a8448bc5fa7e98a736466d5fed6a85ca31dd06a7698580bdb1c4a7253db7543d76732b6750fc70f97df9a3c676aef04738880347ca674ff259de7e155567c6b8a116bed36baeabd712c5944d8f1b58516943f6eadfaa9c034f0fc80099e654266ba2d6657593e9aab149b5c3e9a647cc75d74be0295f5be2e5c035517026e1676441afb0520a9e2508f11d933341518403a50a1bf68fab51e6b538a3296ac98b9f0c804397a07fe7d1461e637bdc5634b4223a88ba47c671871f23c36e25a53bcac4cfac48b89b9454e08bdb31a349dcf5329f84a0d8b5a43c5c722964d0ab091c51b5b7335fd4a0ced06b136725b0b8cd2626c30a173251640b19e2caaee2f55ea255902af5267639bdabc3f9ef05fe64d6e8a7aa52175d6baccc93789b45e735b06bafa3bb82de7108bbdcbcf52de9fe056d844f54f0b67339a351ced0735447fc8c81a56e59331db924465a089fd7fdc8e76941a2f7b35a9d63eb1fc21da686a02a020d19a62f4d6307d6151c52db27b79e0aee0ccfe82b730a886f2ee342fc634c8603fc52feb47cced688c857631b10a82dfd7db0639638bbdd6909fa1"
      ],
      "sequence": 4294967294
    }
  ],
  "vout": [
    {
      "value": 499985.7634,
      "n": 0,
      "scriptPubKey": {
        "asm": "1 f000288d602a181c36d05d3a083f2b69d78a1f338968528f19d2401cd38aa80b",
        "hex": "5120f000288d602a181c36d05d3a083f2b69d78a1f338968528f19d2401cd38aa80b",
        "reqSigs": 1,
        "type": "witness_v1_scripthash",
        "addresses": [
          "3QJmnh"
        ]
      }
    },
    {
      "value": 1.0,
      "n": 1,
      "scriptPubKey": {
        "asm": "OP_RETURN 10d1803d812511b664a6fa1f6593ebab7c891c7015956e0769067d41abec6e85 075e3109128c8018a8d37848e9eedef732d2e27c3bd991aa3d1b6259ab2fd10f277e112932aca03888f35868c9cefed712f2c25c1bf9b18a1d3b42798b0ff12f471e714952ccc058e8933808a9ae9eb77292a23c7b99d1ea7d5b2219eb6f914f673e516972ece078c8b31828898ebe9752b2821c5bb9f1ca5d7b0239cb4fb16f87deb189920c00982853f8c8696e5e77b25262fcbb59112abd9be2d92baf518fa7fe91a9b22c20b80873d8e8494e7e57927242dc9b79310a9dbbc2f90b8f71afc79ef1c9d24c40d86813b888292e1e37f21222bcfb19516afddba2996bef11cfe7bed1e9f26c60f8483398a8090e3e17d232029cdb39714addfb82b94bcf31ef075e3109128c8018a8d37848e9eedef732d2e27c3bd991aa3d1b6259ab2fd10f277e112932aca03888f35868c9cefed712f2c25c1bf9b18a1d3b42798b0ff12f471e714952ccc058e8933808a9ae9eb77292a23c7b99d1ea7d5b2219eb6f914f673e516972ece078c8b31828898ebe9752b2821c5bb9f1ca5d7b0239cb4fb16f87deb189920c00982853f8c8696e5e77b25262fcbb59112abd9be2d92baf518fa7fe91a9b22c20b80873d8e8494e7e57927242dc9b79310a9dbbc2f90b8f71afc79ef1c9d24c40d86813b888292e1e37f21222bcfb19516afddba2996bef11cfe7bed1e9f26c60f8483398a8090e3e17d232029cdb39714addfb82b94bcf31ef075e3109128c8018a8d37848e9eedef732d2e27c3bd991aa3d1b6259ab2fd10f277e112932aca03888f35868c9cefed712f2c25c1bf9b18a1d3b42798b0ff12f471e714952ccc058e8933808a9ae9eb77292a23c7b99d1ea7d5b2219eb6f914f673e516972ece078c8b31828898ebe9752b2821c5bb9f1ca5d7b0239cb4fb16f87deb189920c00982853f8c8696e5e77b25262fcbb59112abd9be2d92baf518fa7fe91a9b22c20b80873d8e8494e7e57927242dc9b79310a9dbbc2f90b8f71afc79ef1c9d24c40d86813b888292e1e37f21222bcfb19516afddba2996bef11cfe7bed1e9f26c60f8483398a8090e3e17d232029cdb39714addfb82b94bcf31ef075e3109128c8018a8d37848e9eedef732d2e27c3bd991aa3d1b6259ab2fd10f277e112932aca03888f35868c9cefed712f2c25c1bf9b18a1d3b42798b0ff12f471e714952ccc058e8933808a9ae9eb77292a23c7b99d1ea7d5b2219eb6f914f673e516972ece078c8b31828898ebe9752b2821c5bb9f1ca5d7b0239cb4fb16f87deb189920c00982853f8c8696e5e77b25262fcbb59112abd9be2d92baf518fa7fe91a9b22c20b80873d8e8494e7e57927242dc9b79310a9dbbc2f90b8f71afc79ef1c9d24c40d86813b888292e1e37f21222bcfb19516afddba2996bef11cfe7bed1e9f26c60f8483398a8090e3e17d232029cdb39714addfb82b94bcf31ef075e3109128c8018a8d37848e9eedef732d2e27c3bd991aa3d1b6259ab2fd10f277e112932aca03888f35868c9cefed712f2c25c1bf9b18a1d3b42798b0ff12f471e714952ccc058e8933808a9ae9eb77292a23c7b99d1ea7d5b2219eb6f914f673e516972ece078c8b31828898ebe9752b2821c5bb9f1ca5d7b0239cb4fb16f87deb189920c00982853f8c8696e5e77cb5640a408944cba8eb7f38a1b961f37da41377353d6cb407540ec869d9ecbd2",
        "hex": "6a2010d1803d812511b664a6fa1f6593ebab7c891c7015956e0769067d41abec6e854db004075e3109128c8018a8d37848e9eedef732d2e27c3bd991aa3d1b6259ab2fd10f277e112932aca03888f35868c9cefed712f2c25c1bf9b18a1d3b42798b0ff12f471e714952ccc058e8933808a9ae9eb77292a23c7b99d1ea7d5b2219eb6f914f673e516972ece078c8b31828898ebe9752b2821c5bb9f1ca5d7b0239cb4fb16f87deb189920c00982853f8c8696e5e77b25262fcbb59112abd9be2d92baf518fa7fe91a9b22c20b80873d8e8494e7e57927242dc9b79310a9dbbc2f90b8f71afc79ef1c9d24c40d86813b888292e1e37f21222bcfb19516afddba2996bef11cfe7bed1e9f26c60f8483398a8090e3e17d232029cdb39714addfb82b94bcf31ef075e3109128c8018a8d37848e9eedef732d2e27c3bd991aa3d1b6259ab2fd10f277e112932aca03888f35868c9cefed712f2c25c1bf9b18a1d3b42798b0ff12f471e714952ccc058e8933808a9ae9eb77292a23c7b99d1ea7d5b2219eb6f914f673e516972ece078c8b31828898ebe9752b2821c5bb9f1ca5d7b0239cb4fb16f87deb189920c00982853f8c8696e5e77b25262fcbb59112abd9be2d92baf518fa7fe91a9b22c20b80873d8e8494e7e57927242dc9b79310a9dbbc2f90b8f71afc79ef1c9d24c40d86813b888292e1e37f21222bcfb19516afddba2996bef11cfe7bed1e9f26c60f8483398a8090e3e17d232029cdb39714addfb82b94bcf31ef075e3109128c8018a8d37848e9eedef732d2e27c3bd991aa3d1b6259ab2fd10f277e112932aca03888f35868c9cefed712f2c25c1bf9b18a1d3b42798b0ff12f471e714952ccc058e8933808a9ae9eb77292a23c7b99d1ea7d5b2219eb6f914f673e516972ece078c8b31828898ebe9752b2821c5bb9f1ca5d7b0239cb4fb16f87deb189920c00982853f8c8696e5e77b25262fcbb59112abd9be2d92baf518fa7fe91a9b22c20b80873d8e8494e7e57927242dc9b79310a9dbbc2f90b8f71afc79ef1c9d24c40d86813b888292e1e37f21222bcfb19516afddba2996bef11cfe7bed1e9f26c60f8483398a8090e3e17d232029cdb39714addfb82b94bcf31ef075e3109128c8018a8d37848e9eedef732d2e27c3bd991aa3d1b6259ab2fd10f277e112932aca03888f35868c9cefed712f2c25c1bf9b18a1d3b42798b0ff12f471e714952ccc058e8933808a9ae9eb77292a23c7b99d1ea7d5b2219eb6f914f673e516972ece078c8b31828898ebe9752b2821c5bb9f1ca5d7b0239cb4fb16f87deb189920c00982853f8c8696e5e77b25262fcbb59112abd9be2d92baf518fa7fe91a9b22c20b80873d8e8494e7e57927242dc9b79310a9dbbc2f90b8f71afc79ef1c9d24c40d86813b888292e1e37f21222bcfb19516afddba2996bef11cfe7bed1e9f26c60f8483398a8090e3e17d232029cdb39714addfb82b94bcf31ef075e3109128c8018a8d37848e9eedef732d2e27c3bd991aa3d1b6259ab2fd10f277e112932aca03888f35868c9cefed712f2c25c1bf9b18a1d3b42798b0ff12f471e714952ccc058e8933808a9ae9eb77292a23c7b99d1ea7d5b2219eb6f914f673e516972ece078c8b31828898ebe9752b2821c5bb9f1ca5d7b0239cb4fb16f87deb189920c00982853f8c8696e5e77cb5640a408944cba8eb7f38a1b961f37da41377353d6cb407540ec869d9ecbd2",
        "type": "nulldata"
      }
    }
  ],
  "blockhash": "0588000bb82f4b14ca9e4626330a5c84a7bb9e1c31fd2ade5c3732d80cc4fd85",
  "confirmations": 1,
  "time": 1764178356,
  "blocktime": 1764178356
}