{
  "hex": "0100000000010164cd6bb531880466287dd99a73704ea699fce1190941fb2db0ae8ae73a86681a0000000000feffffff023022f408792d000022512026073c1177182c7822d658fe70bf0b05971a777adb9202a4e9312b625ea618a900e1f50500000000fdd5046a207dc70d7a82df93c82689410075a324e724e706d660241a4c5bb7cfab4b476ccc4db004eab53c67faa32980c029655ec61f7ed1ea80d2b1860ba49c63cdf079f87f7471ca951c47da8309a0e009457ee63f5ef1caa0f291a62b84bc43edd059d85f5451aaf57c27bae369c08069251e865f3e91aac092f1c64be4dc238db039b83f34318ad55c079ac349e0a049053ea67f1eb18ae0b2d1e66bc4fc03ad9019981f14116a35bce77a23a90040a9e5de469ffe516a005231068b241ce34d70f978fff4f14a159cc75a0389206089c5fe66bfde714a20721126ab043cc36d50d958dfd4d12a75fca73a63e94000e9a59e06dfbe112a40127146cb645ca30d30b938bfb4b10a55dc871a43c96020c985be26ff9e310a60325166eb447c832d1099189f9491eab53c67faa32980c029655ec61f7ed1ea80d2b1860ba49c63cdf079f87f7471ca951c47da8309a0e009457ee63f5ef1caa0f291a62b84bc43edd059d85f5451aaf57c27bae369c08069251e865f3e91aac092f1c64be4dc238db039b83f34318ad55c079ac349e0a049053ea67f1eb18ae0b2d1e66bc4fc03ad9019981f14116a35bce77a23a90040a9e5de469ffe516a005231068b241ce34d70f978fff4f14a159cc75a0389206089c5fe66bfde714a20721126ab043cc36d50d958dfd4d12a75fca73a63e94000e9a59e06dfbe112a40127146cb645ca30d30b938bfb4b10a55dc871a43c96020c985be26ff9e310a60325166eb447c832d1099189f9491eab53c67faa32980c029655ec61f7ed1ea80d2b1860ba49c63cdf079f87f7471ca951c47da8309a0e009457ee63f5ef1caa0f291a62b84bc43edd059d85f5451aaf57c27bae369c08069251e865f3e91aac092f1c64be4dc238db039b83f34318ad55c079ac349e0a049053ea67f1eb18ae0b2d1e66bc4fc03ad9019981f14116a35bce77a23a90040a9e5de469ffe516a005231068b241ce34d70f978fff4f14a159cc75a0389206089c5fe66bfde714a20721126ab043cc36d50d958dfd4d12a75fca73a63e94000e9a59e06dfbe112a40127146cb645ca30d30b938bfb4b10a55dc871a43c96020c985be26ff9e310a60325166eb447c832d1099189f9491eab53c67faa32980c029655ec61f7ed1ea80d2b1860ba49c63cdf079f87f7471ca951c47da8309a0e009457ee63f5ef1caa0f291a62b84bc43edd059d85f5451aaf57c27bae369c08069251e865f3e91aac092f1c64be4dc238db039b83f34318ad55c079ac349e0a049053ea67f1eb18ae0b2d1e66bc4fc03ad9019981f14116a35bce77a23a90040a9e5de469ffe516a005231068b241ce34d70f978fff4f14a159cc75a0389206089c5fe66bfde714a20721126ab043cc36d50d958dfd4d12a75fca73a63e94000e9a59e06dfbe112a40127146cb645ca30d30b938bfb4b10a55dc871a43c96020c985be26ff9e310a60325166eb447c832d1099189f9491eab53c67faa32980c029655ec61f7ed1ea80d2b1860ba49c63cdf079f87f7471ca951c47da8309a0e009457ee63f5ef1caa0f291a62b84bc43edd059d85f5451aaf57c27bae369c08069251e865f3e91aac092f1c64be4dc238db039b83f34318ad55c079ac349e0a049053ea67f1eb18ae0b2d1e66bc4fc03ad9019981f14116a35bce77a23a90040a9e5de469ffe51aa34150abca5eab3a7cf7f3ae1423aff844f98634bc023f9fa91c08553d360ca02fd7509f9c00517687cb42e653e005501084f3ad78f4b28ebc4a33ca7b3f988b04bf02334f7965ba1653c8eb522b10fabbd980befa4ed776ecc783b8c4d61a8680ff78a91bf647cf1e063083facc556c763f7f7853ea753d79b0fa76bf50683cc30c203f10b84959f24701b2b1fe1a501d0b6f57f5598a708cc5d1dc2b509f61262ed87e9e911ded905a393568e10ad3ab295ef760fb0037945671c284ac9338c06aa2bb8163b5646d155c789853287e73193a7dcbb5d33be89f44c80741bbd338f71e13cf2941ed71a936d555206553812b8207151c71c7b68939029af11cbaf4cff1c2b61943d253c487035abd9e88b34c4279e89b807c7934df1ffe61ce1bfa2e468c1fa67facce1b1fd3957f5aa31dc7a7b7f3af85a6ed559e1c8dca7745f36e8e146fedb9540bd93b40941a3e6e48ef3a061b6074d834ccd0220d3edcdcf8703ceecd486b9a482957bfed081ef4be060f9e73446d039431a70f90face2fc2808d1d12bde7cb5bc7b9ca9f4a1764a3ee85968984cb7dbc60a12bd79b0ecebc16dc2e69349556c77eb84f46815db653e0baadb75f9e246c3c108633105dd532557dadfc280093b75d3369e2e3c8f92246b2e0bdf3420f3d0007f91c7f49bd6aba7f11e066a4bb265b0b52a26f1ec2bed6220c552fb15cf9f38143996b50bb895868057d8ba70c44df06446c07bd913ef3498a6f687446a54bcdc6485898a4cddadae24c246bb602cdf97ee93ecdcbe3bfcd6b116ca5a0c92306b832efeac00198a0b040b2272dba07edad426d3110fd136364160ee8c6bdaf5cbf65e6b67996be187d772b5ba94edcca44b12de64dbd499a1e950dbb4ff8aadebeb8c83f08780bb774cef0d86fd4cca53115c86184e9884b2cdb4d286d275e077e823154d32f510a382d3e98ce645cdfd6f80092b4ae22410bd9f940c8dcfd13f5ba4a46d138de0c43f24d87a240a8f95971fb0de95cba9b48699430c11dfaadcc634fb3e6ba50c4cfbb8a81f68b48ea713d2c498e083d5e4ca7713e47084c52a9e688dda7809014b3ce67a6e77e36ccce1e54fbe9aa4b6a8d4eb432939f241a69aa7dc071a8546380577669b46e7f293494f8be140d15c317ba710c8dce8ebef91b7b8d34e0fc321e3a5af3617053469b6b888802cbf6c70dc554c98208aa3f4f052aa82e23b0e5104e600135ece18c54deec699825d275e7bd923a8e31d96dbf0df2da1da43c9ec09aa9b583aa116c01b3eac15b72fbd9f573eadb561da0bff356822ddcbf2f4a67f764929a29bc9494a8f25a529a299a54df0daab52fa55d4946a5ebf058ec9b0a0d2560051f2d9a044ca667c7dce9ae8a0ff16bf42dc4845fd84650d261db0a723a5c304fbf043d7f500fc4c5baa676eefb9970bd9f7d0e4e4a37f4d8917700d36e546490f791b7e5dd85bca34ee31bd383fa7649c789b5da20e9c4e65177635d5327ff67fc03be92a78954d951b10eb662458c6fe0b0493e5ac54175ddd0cf8781031797f4dfae24c4eb585b545a2c4d0a10c4274520bafdf9e575f751976d291d54a1b16e6da4734a1a2d105f3f28542027492349e3ba9beca9287af77a8d3c77c1e6e2212bde16780e32d3f869d30b8d78d09f5411ab4fbfb55633c9c5cf1c09e0ad38f5d2c0f2c030a36363ae286957f31f7bbd0af6fb339a38024cde93c32d9cb036dbd00256796647c61c13621a3cc907768fbde75255b7c2e70491f9f1dfb21216dcef32f8ba2e15bb4a4d9a6b0caaa890cb86e26edfb8dcd3975b3c04cdb52e4bff86b8c3035d2e35479e49efdf286d9a9e87a451a65f673645f01e8c90101e86b9b138b5af9b55a4e334138e49d7cfeb70cd6d4c8cd567b1bdfd565a3b163a271fc87b9db5a3001952f6d0f20c6c4b488426809c5fa5acbd7280827b5c1da074113e91c1277e5d69ef4baa1f8f93df5bd473107316551cc078f6f70f5bb6c543501263236c0fe0f4fae5ca2fba3cfd5f7a6ec312febc70fdffa8004de2c32d6938a0fe06b695005c2372d902ac786e715c238927dfa4b2accea00bbdf3aba1835f9a6d65a8d70b9c837fe5b68caa85c04a2f204621a2bfb9245539e0e24e8116a48d5abe71a19bea97d9078ecf41d05cf24f048686971cb8fbe10cb44dad7d38df07099d3c294282b99e440866f91452bed380caf9284773e389b1be2128f382790386d522b2d7fa3b561512b377f7482d2f370f8edba7f8d422701cf0e3deafd6a253b54bfa04cb4fa1ed9652eed542ab4608ebb2457f96668dc56796b9eb2f050813646ec5b11b427958c40b62c369a9abe617c056d24a79ced49b818c812d38872d916205d5e7023c21c8d82a0004bed4edf7e9f56cca2f4fc627d1bf9c5f2dd6bd880cdb054c43c3b5842b919c2739072c3cdc431800820eaa24625f85eab89e9e626d1891eb73ab7be29693b29dc284cff852a53c55ef4239e4347d3f69a403152c550de78d79ab66cadd2803d404810e78ba45a94f82350b2d086051616e1f6d35d6811ac615815d957b9237e731c3afa7706d2849dff1474fb6b0a7715b42c84e045a216598134e98371a957c0bb51f42197152f012f45c637ee4fbc002abadeaa83c0762a1ac1c9d54ea771c3f69aed9e09005366fa094a011e5c41453612ff2c851f458ec3f6839162d3e65cc3f5542cd777473b16e0b644fbe3bfde756d42beba41676132fcfce749b39aeda49971a6bf0ccbe73a2070b68d81914498205aa14b51b2063832bccc9c97740fc7fbedaa2bddffa733aefe8604e6e9a9f275b4af269e826f727199fbaaa92749225e7a980156a2231eff5e6c0ab9214c7aa3a211b182459619c9e8e4ab7d2a78df7a492f0559950c28095476988c1e016061674982ac440f4fa5f8d903d3ec7455c42afa51d98bf39ceb1bd8048bb05862975c5a45faa55a1904c6475dda719b502189f3d84bc8fbf500466821b728f77c9c90349232ab36a8a54fe8cec7166d634d86abbb1f5f538405a8ed0ae65394619a0057fe645ad607a8cf954e2614abdf62c6ca699880591d00183133f7004e1a0051480df12703740eeb8c3a054e2ff043f5b3e3d54432ff5173aebf3e16c1d8df1ddb4eaa12f79bdf1a972e3a0115e97da486f696d3f972f9fad5d69a50b7b5e895209b765be4b9f09387d9b73331c93cb047b548ca490c3190e52bacc1439c7607894b2e76da1aa96e085fdade8bdd97210734ee23545b6412880484d04f0e97780c360417418e9c5984bc7ee8c47c71c6ec0d67a9c7cce6423e1342214238695c6500b4da0017e5258c27eb8c44d4f62016a277e4eace117512263a4b5254698998a5aaadbec2caddfb0a183e4097b4c0d909182b2e2f3e41526377a6c3eff3f40203051f2a3a5459606d727982838fa3a8a9acb0b8c0cf00000000000000000000000000000000001119283f01fd21050016d8eac8cc7cb56c5347bb140c190fb89d611fbb7792b10209e23638e979a1bf6da985fd7b8ea5f7f3d173617c1352d16428105dbcadc6da2403c97d81c0bd77a013f318e3aeb7b04cb4c61f4bbab9e4f705219317ee2762341f30583bb43c6ac7a2b88144ff30fd560596891bbd1c91eed6b0c3370d2cbaabd4ce4c4db89953a290b8d5c2c387f75027bbe9a6cd56343417ef74263afa21c7f7fc1034c30d92167986dbe0e4b06141d710e11dc0c9cb91182897ea3a16a5687a0fa8e0cedb5a8a152a3bcc5b0987d35ec740ee1de618690e953665e3a77ff253f4009dbea2e0d48b3ab7128f5549a818ab4b9b66a78152f7f39ffb8f66ec0afc0d0f618115e64422503b99f3a5330670a0ebe4e6c1e229839271b12bb0a73fac6c31de8e97960b4fc09ddbce39f67de8135f5d8594ccd69fcd6ac3c7dd6498b184435d0ca275245b41d2a66c0bdbdc31141822a09991be3fe2fd0c021cb7d9ee62150a598e52194387f0ea30123bba02a5c07ec38f79add9cedc61ade48b30fcfa40a6621a659401b615ec11c6caf87c5a558ffe9ceabe97c766d32422934ae50cbe6bad590024147d419b7b1b860877b92848ef99959680c1ab9eaa89c8f411b5ac94f83fab14f27599f9a19a912b6e6c4ccc2a955adf0895475ce35c91b0ce97a556617fd1205e966e160c210cd5d5fb1f54cfc25cdd31641dfb2bba32e04b5a3ada9c4b19e0f4a381d64f03b4ef1c9051a0f03fc0e22386cf99ebebafa86b8f94c58aa6cdc2b8e334b0352384b9a4c0edee2ded37820bc0308f2457c3b701a5ccd4997277ff7a0e7c8c7c512878b3d5a5a1dbb6f525e776f388e7566ef8d53028daf4c3bba940589d850d60cc715afbca93151e8aeb8d129635907600f64822bfd94916c2e8e6d4fe8b56a064f244f905c7ee22112d409949e6f6c828e117dc2b2419066e260bd0cfb9808535aac1b81011051bfc0e5a782dbb85774bd8224f4bae85172c0f91ac2af36635e56637ab3a6cf7e0e2f320f89cd710fd5f8d09e18351ab0734243e69b7ccecaf78c8df717a2ad06efc2f718389f98f9dfd6cd814131782ad971ccc3cc4e819edce1cea6c83eeb1e1d79dea78607127f7eb3b9e373c8d7a321d8dc94a7b3dcd91fa7997cf92b5a50e615f59a35da78604b713526f0f2941c230e8280a920304c77eed2d81f1edf0eb97bbd425a2af84d8a21b93bc47545b1dc0292c5d821c2c5ce6503171a56c722ba14e21fe9ac06f4c54c42bc76f5d355566d16b2e30484caccdba9bf759596af6d834bc0ba58a8c4007f4298543062a6a69ef6cc8c07e6347d258265274737d710afc49e7bb430e43932720a3f97af21cc7218706ceb3cc9db13e15943068c77808749b9129a4ad5b42940e2d6dc9d4cbf29d8a057983deafeda1cf93d8b6af1aece2cb50b55747275c8e8e7689b07e8166c54167d7b5fc149d0fd75b1502376d882cbb6eaeec795fcd24f102a115e84747e6d34014fd6755505e90792a10e3373cd87a6d34015dbe5d0a1e7778aa8fcc500ad6a6983bbd2ee12650513a94bcd26a4df024fdabfd5718583f825cb7aff4bfe12d45bfd52f879a175280bed711d8e109d15218e34509440d89ff543cbac0334a53a747619c745b3dbfd1661cd14433e84b1604fee6af8b0d2d910e0d230b701f462188303fc9e345de8cc6e7ad332fbee94ee6575841837701c83e667ea32f704c7dd8caf38bbf1bce247b06439b52e855a98381004512ee7add9decd86a4c2bbc95466e3688c925f4bfd459e2f0fcfe3d932d9d0632ada80a55d50e1085b189c8b10ee8ebf8df40906806ad5b132d658704dcfb1ee5972cf2555d59416b9977000000",
  "txid": "9d083598ff22c3418e04f33a96db17ee8cb23e78d001ec62c8a8a40ab6a55026",
  "hash": "b8baa9da21967c2f5af751330fccf1300b99eed1d2bc013f6b6aeb2b0045604d",
  "size": 5085,
  "vsize": 2278,
  "version": 1,
  "locktime": 119,
  "vin": [
    {
      "txid": "1a68863ae78aaeb02dfb410919e1fc99a64e70739ad97d2866048831b56bcd64",
      "vout": 0,
      "scriptSig": {
        "asm": "",
        "hex": ""
      },
      "txinwitness": [
        "f9c00517687cb42e653e005501084f3ad78f4b28ebc4a33ca7b3f988b04bf02334f7965ba1653c8eb522b10fabbd980befa4ed776ecc783b8c4d61a8680ff78a91bf647cf1e063083facc556c763f7f7853ea753d79b0fa76bf50683cc30c203f10b84959f24701b2b1fe1a501d0b6f57f5598a708cc5d1dc2b509f61262ed87e9e911ded905a393568e10ad3ab295ef760fb0037945671c284ac9338c06aa2bb8163b5646d155c789853287e73193a7dcbb5d33be89f44c80741bbd338f71e13cf2941ed71a936d555206553812b8207151c71c7b68939029af11cbaf4cff1c2b61943d253c487035abd9e88b34c4279e89b807c7934df1ffe61ce1bfa2e468c1fa67facce1b1fd3957f5aa31dc7a7b7f3af85a6ed559e1c8dca7745f36e8e146fedb9540bd93b40941a3e6e48ef3a061b6074d834ccd0220d3edcdcf8703ceecd486b9a482957bfed081ef4be060f9e73446d039431a70f90face2fc2808d1d12bde7cb5bc7b9ca9f4a1764a3ee85968984cb7dbc60a12bd79b0ecebc16dc2e69349556c77eb84f46815db653e0baadb75f9e246c3c108633105dd532557dadfc280093b75d3369e2e3c8f92246b2e0bdf3420f3d0007f91c7f49bd6aba7f11e066a4bb265b0b52a26f1ec2bed6220c552fb15cf9f38143996b50bb895868057d8ba70c44df06446c07bd913ef3498a6f687446a54bcdc6485898a4cddadae24c246bb602cdf97ee93ecdcbe3bfcd6b116ca5a0c92306b832efeac00198a0b040b2272dba07edad426d3110fd136364160ee8c6bdaf5cbf65e6b67996be187d772b5ba94edcca44b12de64dbd499a1e950dbb4ff8aadebeb8c83f08780bb774cef0d86fd4cca53115c86184e9884b2cdb4d286d275e077e823154d32f510a382d3e98ce645cdfd6f80092b4ae22410bd9f940c8dcfd13f5ba4a46d138de0c43f24d87a240a8f95971fb0de95cba9b48699430c11dfaadcc634fb3e6ba50c4cfbb8a81f68b48ea713d2c498e083d5e4ca7713e47084c52a9e688dda7809014b3ce67a6e77e36ccce1e54fbe9aa4b6a8d4eb432939f241a69aa7dc071a8546380577669b46e7f293494f8be140d15c317ba710c8dce8ebef91b7b8d34e0fc321e3a5af3617053469b6b888802cbf6c70dc554c98208aa3f4f052aa82e23b0e5104e600135ece18c54deec699825d275e7bd923a8e31d96dbf0df2da1da43c9ec09aa9b583aa116c01b3eac15b72fbd9f573eadb561da0bff356822ddcbf2f4a67f764929a29bc9494a8f25a529a299a54df0daab52fa55d4946a5ebf058ec9b0a0d2560051f2d9a044ca667c7dce9ae8a0ff16bf42dc4845fd84650d261db0a723a5c304fbf043d7f500fc4c5baa676eefb9970bd9f7d0e4e4a37f4d8917700d36e546490f791b7e5dd85bca34ee31bd383fa7649c789b5da20e9c4e65177635d5327ff67fc03be92a78954d951b10eb662458c6fe0b0493e5ac54175ddd0cf8781031797f4dfae24c4eb585b545a2c4d0a10c4274520bafdf9e575f751976d291d54a1b16e6da4734a1a2d105f3f28542027492349e3ba9beca9287af77a8d3c77c1e6e2212bde16780e32d3f869d30b8d78d09f5411ab4fbfb55633c9c5cf1c09e0ad38f5d2c0f2c030a36363ae286957f31f7bbd0af6fb339a38024cde93c32d9cb036dbd00256796647c61c13621a3cc907768fbde75255b7c2e70491f9f1dfb21216dcef32f8ba2e15bb4a4d9a6b0caaa890cb86e26edfb8dcd3975b3c04cdb52e4bff86b8c3035d2e35479e49efdf286d9a9e87a451a65f673645f01e8c90101e86b9b138b5af9b55a4e334138e49d7cfeb70cd6d4c8cd567b1bdfd565a3b163a271fc87b9db5a3001952f6d0f20c6c4b488426809c5fa5acbd7280827b5c1da074113e91c1277e5d69ef4baa1f8f93df5bd473107316551cc078f6f70f5bb6c543501263236c0fe0f4fae5ca2fba3cfd5f7a6ec312febc70fdffa8004de2c32d6938a0fe06b695005c2372d902ac786e715c238927dfa4b2accea00bbdf3aba1835f9a6d65a8d70b9c837fe5b68caa85c04a2f204621a2bfb9245539e0e24e8116a48d5abe71a19bea97d9078ecf41d05cf24f048686971cb8fbe10cb44dad7d38df07099d3c294282b99e440866f91452bed380caf9284773e389b1be2128f382790386d522b2d7fa3b561512b377f7482d2f370f8edba7f8d422701cf0e3deafd6a253b54bfa04cb4fa1ed9652eed542ab4608ebb2457f96668dc56796b9eb2f050813646ec5b11b427958c40b62c369a9abe617c056d24a79ced49b818c812d38872d916205d5e7023c21c8d82a0004bed4edf7e9f56cca2f4fc627d1bf9c5f2dd6bd880cdb054c43c3b5842b919c2739072c3cdc431800820eaa24625f85eab89e9e626d1891eb73ab7be29693b29dc284cff852a53c55ef4239e4347d3f69a403152c550de78d79ab66cadd2803d404810e78ba45a94f82350b2d086051616e1f6d35d6811ac615815d957b9237e731c3afa7706d2849dff1474fb6b0a7715b42c84e045a216598134e98371a957c0bb51f42197152f012f45c637ee4fbc002abadeaa83c0762a1ac1c9d54ea771c3f69aed9e09005366fa094a011e5c41453612ff2c851f458ec3f6839162d3e65cc3f5542cd777473b16e0b644fbe3bfde756d42beba41676132fcfce749b39aeda49971a6bf0ccbe73a2070b68d81914498205aa14b51b2063832bccc9c97740fc7fbedaa2bddffa733aefe8604e6e9a9f275b4af269e826f727199fbaaa92749225e7a980156a2231eff5e6c0ab9214c7aa3a211b182459619c9e8e4ab7d2a78df7a492f0559950c28095476988c1e016061674982ac440f4fa5f8d903d3ec7455c42afa51d98bf39ceb1bd8048bb05862975c5a45faa55a1904c6475dda719b502189f3d84bc8fbf500466821b728f77c9c90349232ab36a8a54fe8cec7166d634d86abbb1f5f538405a8ed0ae65394619a0057fe645ad607a8cf954e2614abdf62c6ca699880591d00183133f7004e1a0051480df12703740eeb8c3a054e2ff043f5b3e3d54432ff5173aebf3e16c1d8df1ddb4eaa12f79bdf1a972e3a0115e97da486f696d3f972f9fad5d69a50b7b5e895209b765be4b9f09387d9b73331c93cb047b548ca490c3190e52bacc1439c7607894b2e76da1aa96e085fdade8bdd97210734ee23545b6412880484d04f0e97780c360417418e9c5984bc7ee8c47c71c6ec0d67a9c7cce6423e1342214238695c6500b4da0017e5258c27eb8c44d4f62016a277e4eace117512263a4b5254698998a5aaadbec2caddfb0a183e4097b4c0d909182b2e2f3e41526377a6c3eff3f40203051f2a3a5459606d727982838fa3a8a9acb0b8c0cf00000000000000000000000000000000001119283f01",
        "0016d8eac8cc7cb56c5347bb140c190fb89d611fbb7792b10209e23638e979a1bf6da985fd7b8ea5f7f3d173617c1352d16428105dbcadc6da2403c97d81c0bd77a013f318e3aeb7b04cb4c61f4bbab9e4f705219317ee2762341f30583bb43c6ac7a2b88144ff30fd560596891bbd1c91eed6b0c3370d2cbaabd4ce4c4db89953a290b8d5c2c387f75027bbe9a6cd56343417ef74263afa21c7f7fc1034c30d92167986dbe0e4b06141d710e11dc0c9cb91182897ea3a16a5687a0fa8e0cedb5a8a152a3bcc5b0987d35ec740ee1de618690e953665e3a77ff253f4009dbea2e0d48b3ab7128f5549a818ab4b9b66a78152f7f39ffb8f66ec0afc0d0f618115e64422503b99f3a5330670a0ebe4e6c1e229839271b12bb0a73fac6c31de8e97960b4fc09ddbce39f67de8135f5d8594ccd69fcd6ac3c7dd6498b184435d0ca275245b41d2a66c0bdbdc31141822a09991be3fe2fd0c021cb7d9ee62150a598e52194387f0ea30123bba02a5c07ec38f79add9cedc61ade48b30fcfa40a6621a659401b615ec11c6caf87c5a558ffe9ceabe97c766d32422934ae50cbe6bad590024147d419b7b1b860877b92848ef99959680c1ab9eaa89c8f411b5ac94f83fab14f27599f9a19a912b6e6c4ccc2a955adf0895475ce35c91b0ce97a556617fd1205e966e160c210cd5d5fb1f54cfc25cdd31641dfb2bba32e04b5a3ada9c4b19e0f4a381d64f03b4ef1c9051a0f03fc0e22386cf99ebebafa86b8f94c58aa6cdc2b8e334b0352384b9a4c0edee2ded37820bc0308f2457c3b701a5ccd4997277ff7a0e7c8c7c512878b3d5a5a1dbb6f525e776f388e7566ef8d53028daf4c3bba940589d850d60cc715afbca93151e8aeb8d129635907600f64822bfd94916c2e8e6d4fe8b56a064f244f905c7ee22112d409949e6f6c828e117dc2b2419066e260bd0cfb9808535aac1b81011051bfc0e5a782dbb85774bd8224f4bae85172c0f91ac2af36635e56637ab3a6cf7e0e2f320f89cd710fd5f8d09e18351ab0734243e69b7ccecaf78c8df717a2ad06efc2f718389f98f9dfd6cd814131782ad971ccc3cc4e819edce1cea6c83eeb1e1d79dea78607127f7eb3b9e373c8d7a321d8dc94a7b3dcd91fa7997cf92b5a50e615f59a35da78604b713526f0f2941c230e8280a920304c77eed2d81f1edf0eb97bbd425a2af84d8a21b93bc47545b1dc0292c5d821c2c5ce6503171a56c722ba14e21fe9ac06f4c54c42bc76f5d355566d16b2e30484caccdba9bf759596af6d834bc0ba58a8c4007f4298543062a6a69ef6cc8c07e6347d258265274737d710afc49e7bb430e43932720a3f97af21cc7218706ceb3cc9db13e15943068c77808749b9129a4ad5b42940e2d6dc9d4cbf29d8a057983deafeda1cf93d8b6af1aece2cb50b55747275c8e8e7689b07e8166c54167d7b5fc149d0fd75b1502376d882cbb6eaeec795fcd24f102a115e84747e6d34014fd6755505e90792a10e3373cd87a6d34015dbe5d0a1e7778aa8fcc500ad6a6983bbd2ee12650513a94bcd26a4df024fdabfd5718583f825cb7aff4bfe12d45bfd52f879a175280bed711d8e109d15218e34509440d89ff543cbac0334a53a747619c745b3dbfd1661cd14433e84b1604fee6af8b0d2d910e0d230b701f462188303fc9e345de8cc6e7ad332fbee94ee6575841837701c83e667ea32f704c7dd8caf38bbf1bce247b06439b52e855a98381004512ee7add9decd86a4c2bbc95466e3688c925f4bfd459e2f0fcfe3d932d9d0632ada80a55d50e1085b189c8b10ee8ebf8df40906806ad5b132d658704dcfb1ee5972cf2555d59416b99"
      ],
      "sequence": 4294967294
    }
  ],
  "vout": [
    {
      "value": 499978.6451,
      "n": 0,
      "scriptPubKey": {
        "asm": "1 26073c1177182c7822d658fe70bf0b05971a777adb9202a4e9312b625ea618a9",
        "hex": "512026073c1177182c7822d658fe70bf0b05971a777adb9202a4e9312b625ea618a9",
        "reqSigs": 1,
        "type": "witness_v1_scripthash",
        "addresses": [
          "3QJmnh"
        ]
      }
    },
    {
      "value": 1.0,
      "n": 1,
      "scriptPubKey": {
        "asm": "OP_RETURN 7dc70d7a82df93c82689410075a324e724e706d660241a4c5bb7cfab4b476ccc eab53c67faa32980c029655ec61f7ed1ea80d2b1860ba49c63cdf079f87f7471ca951c47da8309a0e009457ee63f5ef1caa0f291a62b84bc43edd059d85f5451aaf57c27bae369c08069251e865f3e91aac092f1c64be4dc238db039b83f34318ad55c079ac349e0a049053ea67f1eb18ae0b2d1e66bc4fc03ad9019981f14116a35bce77a23a90040a9e5de469ffe516a005231068b241ce34d70f978fff4f14a159cc75a0389206089c5fe66bfde714a20721126ab043cc36d50d958dfd4d12a75fca73a63e94000e9a59e06dfbe112a40127146cb645ca30d30b938bfb4b10a55dc871a43c96020c985be26ff9e310a60325166eb447c832d1099189f9491eab53c67faa32980c029655ec61f7ed1ea80d2b1860ba49c63cdf079f87f7471ca951c47da8309a0e009457ee63f5ef1caa0f291a62b84bc43edd059d85f5451aaf57c27bae369c08069251e865f3e91aac092f1c64be4dc238db039b83f34318ad55c079ac349e0a049053ea67f1eb18ae0b2d1e66bc4fc03ad9019981f14116a35bce77a23a90040a9e5de469ffe516a005231068b241ce34d70f978fff4f14a159cc75a0389206089c5fe66bfde714a20721126ab043cc36d50d958dfd4d12a75fca73a63e94000e9a59e06dfbe112a40127146cb645ca30d30b938bfb4b10a55dc871a43c96020c985be26ff9e310a60325166eb447c832d1099189f9491eab53c67faa32980c029655ec61f7ed1ea80d2b1860ba49c63cdf079f87f7471ca951c47da8309a0e009457ee63f5ef1caa0f291a62b84bc43edd059d85f5451aaf57c27bae369c08069251e865f3e91aac092f1c64be4dc238db039b83f34318ad55c079ac349e0a049053ea67f1eb18ae0b2d1e66bc4fc03ad9019981f14116a35bce77a23a90040a9e5de469ffe516a005231068b241ce34d70f978fff4f14a159cc75a0389206089c5fe66bfde714a20721126ab043cc36d50d958dfd4d12a75fca73a63e94000e9a59e06dfbe112a40127146cb645ca30d30b938bfb4b10a55dc871a43c96020c985be26ff9e310a60325166eb447c832d1099189f9491eab53c67faa32980c029655ec61f7ed1ea80d2b1860ba49c63cdf079f87f7471ca951c47da8309a0e009457ee63f5ef1caa0f291a62b84bc43edd059d85f5451aaf57c27bae369c08069251e865f3e91aac092f1c64be4dc238db039b83f34318ad55c079ac349e0a049053ea67f1eb18ae0b2d1e66bc4fc03ad9019981f14116a35bce77a23a90040a9e5de469ffe516a005231068b241ce34d70f978fff4f14a159cc75a0389206089c5fe66bfde714a20721126ab043cc36d50d958dfd4d12a75fca73a63e94000e9a59e06dfbe112a40127146cb645ca30d30b938bfb4b10a55dc871a43c96020c985be26ff9e310a60325166eb447c832d1099189f9491eab53c67faa32980c029655ec61f7ed1ea80d2b1860ba49c63cdf079f87f7471ca951c47da8309a0e009457ee63f5ef1caa0f291a62b84bc43edd059d85f5451aaf57c27bae369c08069251e865f3e91aac092f1c64be4dc238db039b83f34318ad55c079ac349e0a049053ea67f1eb18ae0b2d1e66bc4fc03ad9019981f14116a35bce77a23a90040a9e5de469ffe51aa34150abca5eab3a7cf7f3ae1423aff844f98634bc023f9fa91c08553d360ca",
        "hex": "6a207dc70d7a82df93c82689410075a324e724e706d660241a4c5bb7cfab4b476ccc4db004eab53c67faa32980c029655ec61f7ed1ea80d2b1860ba49c63cdf079f87f7471ca951c47da8309a0e009457ee63f5ef1caa0f291a62b84bc43edd059d85f5451aaf57c27bae369c08069251e865f3e91aac092f1c64be4dc238db039b83f34318ad55c079ac349e0a049053ea67f1eb18ae0b2d1e66bc4fc03ad9019981f14116a35bce77a23a90040a9e5de469ffe516a005231068b241ce34d70f978fff4f14a159cc75a0389206089c5fe66bfde714a20721126ab043cc36d50d958dfd4d12a75fca73a63e94000e9a59e06dfbe112a40127146cb645ca30d30b938bfb4b10a55dc871a43c96020c985be26ff9e310a60325166eb447c832d1099189f9491eab53c67faa32980c029655ec61f7ed1ea80d2b1860ba49c63cdf079f87f7471ca951c47da8309a0e009457ee63f5ef1caa0f291a62b84bc43edd059d85f5451aaf57c27bae369c08069251e865f3e91aac092f1c64be4dc238db039b83f34318ad55c079ac349e0a049053ea67f1eb18ae0b2d1e66bc4fc03ad9019981f14116a35bce77a23a90040a9e5de469ffe516a005231068b241ce34d70f978fff4f14a159cc75a0389206089c5fe66bfde714a20721126ab043cc36d50d958dfd4d12a75fca73a63e94000e9a59e06dfbe112a40127146cb645ca30d30b938bfb4b10a55dc871a43c96020c985be26ff9e310a60325166eb447c832d1099189f9491eab53c67faa32980c029655ec61f7ed1ea80d2b1860ba49c63cdf079f87f7471ca951c47da8309a0e009457ee63f5ef1caa0f291a62b84bc43edd059d85f5451aaf57c27bae369c08069251e865f3e91aac092f1c64be4dc238db039b83f34318ad55c079ac349e0a049053ea67f1eb18ae0b2d1e66bc4fc03ad9019981f14116a35bce77a23a90040a9e5de469ffe516a005231068b241ce34d70f978fff4f14a159cc75a0389206089c5fe66bfde714a20721126ab043cc36d50d958dfd4d12a75fca73a63e94000e9a59e06dfbe112a40127146cb645ca30d30b938bfb4b10a55dc871a43c96020c985be26ff9e310a60325166eb447c832d1099189f9491eab53c67faa32980c029655ec61f7ed1ea80d2b1860ba49c63cdf079f87f7471ca951c47da8309a0e009457ee63f5ef1caa0f291a62b84bc43edd059d85f5451aaf57c27bae369c08069251e865f3e91aac092f1c64be4dc238db039b83f34318ad55c079ac349e0a049053ea67f1eb18ae0b2d1e66bc4fc03ad9019981f14116a35bce77a23a90040a9e5de469ffe516a005231068b241ce34d70f978fff4f14a159cc75a0389206089c5fe66bfde714a20721126ab043cc36d50d958dfd4d12a75fca73a63e94000e9a59e06dfbe112a40127146cb645ca30d30b938bfb4b10a55dc871a43c96020c985be26ff9e310a60325166eb447c832d1099189f9491eab53c67faa32980c029655ec61f7ed1ea80d2b1860ba49c63cdf079f87f7471ca951c47da8309a0e009457ee63f5ef1caa0f291a62b84bc43edd059d85f5451aaf57c27bae369c08069251e865f3e91aac092f1c64be4dc238db039b83f34318ad55c079ac349e0a049053ea67f1eb18ae0b2d1e66bc4fc03ad9019981f14116a35bce77a23a90040a9e5de469ffe51aa34150abca5eab3a7cf7f3ae1423aff844f98634bc023f9fa91c08553d360ca",
        "type": "nulldata"
      }
    }
  ],
  "blockhash": "2c44072194b49e49486c87ae6b37abdd6c2c23e2c7b477f70371a1b5276080d1",
  "confirmations": 1,
  "time": 1764179865,
  "blocktime": 1764179865
}