{
  "hex": "0100000000010125d94795f8d840e45c91fe3d0e9ea26655fc4bc68e032c76a8319e850700ba470100000000feffffff0200e1f50500000000fdd5046a204f29013d45e7707032118136b35073a92832987c99cb70bb9c4a9c2363d680cd4db004f75df2ee33a55f95f1d6ab11b6b047cced4a57c06b00083cc1337c25285ea68fd77dd2ce13857fb5d1f68b31969067eccd6a77e04b20281ce1135c05087e86afb71db2ae73e51fd5b196eb51f6f0078cad0a17802b40487c81733c65681ee6cf973d928e53c53ff591b6cb71d6d027ac8d2a37a00b60685ca1531c45483ec6ef77dd726eb325df1571562b913630c74c6dcad740eb8088bc41b3fca5a8de260f57fd524e9305ff3551760bb11610e76c4deaf760cba0a89c6193dc8588fe062f379d322ef3659f5531166bd17670870c2d8a9700abc0c8fc01f3bce5e89e664f17bd120ed345bf7511364bf15650a72c0daab7208be0e8dc21d39cc5c8be466ff75df2ee33a55f95f1d6ab11b6b047cced4a57c06b00083cc1337c25285ea68fd77dd2ce13857fb5d1f68b31969067eccd6a77e04b20281ce1135c05087e86afb71db2ae73e51fd5b196eb51f6f0078cad0a17802b40487c81733c65681ee6cf973d928e53c53ff591b6cb71d6d027ac8d2a37a00b60685ca1531c45483ec6ef77dd726eb325df1571562b913630c74c6dcad740eb8088bc41b3fca5a8de260f57fd524e9305ff3551760bb11610e76c4deaf760cba0a89c6193dc8588fe062f379d322ef3659f5531166bd17670870c2d8a9700abc0c8fc01f3bce5e89e664f17bd120ed345bf7511364bf15650a72c0daab7208be0e8dc21d39cc5c8be466ff75df2ee33a55f95f1d6ab11b6b047cced4a57c06b00083cc1337c25285ea68fd77dd2ce13857fb5d1f68b31969067eccd6a77e04b20281ce1135c05087e86afb71db2ae73e51fd5b196eb51f6f0078cad0a17802b40487c81733c65681ee6cf973d928e53c53ff591b6cb71d6d027ac8d2a37a00b60685ca1531c45483ec6ef77dd726eb325df1571562b913630c74c6dcad740eb8088bc41b3fca5a8de260f57fd524e9305ff3551760bb11610e76c4deaf760cba0a89c6193dc8588fe062f379d322ef3659f5531166bd17670870c2d8a9700abc0c8fc01f3bce5e89e664f17bd120ed345bf7511364bf15650a72c0daab7208be0e8dc21d39cc5c8be466ff75df2ee33a55f95f1d6ab11b6b047cced4a57c06b00083cc1337c25285ea68fd77dd2ce13857fb5d1f68b31969067eccd6a77e04b20281ce1135c05087e86afb71db2ae73e51fd5b196eb51f6f0078cad0a17802b40487c81733c65681ee6cf973d928e53c53ff591b6cb71d6d027ac8d2a37a00b60685ca1531c45483ec6ef77dd726eb325df1571562b913630c74c6dcad740eb8088bc41b3fca5a8de260f57fd524e9305ff3551760bb11610e76c4deaf760cba0a89c6193dc8588fe062f379d322ef3659f5531166bd17670870c2d8a9700abc0c8fc01f3bce5e89e664f17bd120ed345bf7511364bf15650a72c0daab7208be0e8dc21d39cc5c8be466ff75df2ee33a55f95f1d6ab11b6b047cced4a57c06b00083cc1337c25285ea68fd77dd2ce13857fb5d1f68b31969067eccd6a77e04b20281ce1135c05087e86afb71db2ae73e51fd5b196eb51f6f0078cad0a17802b40487c81733c65681ee6cf973d928e53c53ff591b6cb71d6d027ac8d2a37a00b60685ca1531c45483ec6ef77dd726eb325df1571562b913630c74c468b28964835ff1ebedd145aeaddda81fa444c2f94c078a8325de0729098eede10cdd4fc782d0000225120e5a0bb39dfb4a8995f62d4e78486b66b88e7c51c64a4a0befc03c62aaa02242902fd750939347e76a2b64f1a779ecf5a3d06849f15d4da1dcd7690c281b9647c1a53381d77dd29ce05f7f2a043e89b0e1f572e2c479d8896c7e45ceebd53068089ff8b9ba08368b49b743fda2873ecbad846322b1ca09aff56330979b05b66055ee5a8b907d02439469d9a65d40ce33802c4a5af00ea9d762fa3e53852051d523717b00c1d8e01c20b88530ef59ffb169c514f0a8977f99d80ccb49cbb87321b85e5b84cafc9a7cd44bf3174a8b04576c25427792901bb7a8d135a5d920f92acdfb5fa1240f62bb93e782043d840a1c490ea146f318216c9b5ca5d1946e65d8381b5fbda39de3554b8bb218e49e233c2ae439b3da39753f40179de446248ec170ee3f575359307082f7588c3d749982882d863d308fcaa4fe3a99cefe9e74c092ae3917d9ddc75adf5667893019319d7c5a9777a8fc814cec59636ccaa5e0f2230ec400db7714fa665b28eed99a0afeee23d9ed3416f06d89e909c3c584d61760707277cfab14e906bfadeb000983f96559722fa6e23bf4892f48b1e4447c8d917d71f1cd423c9c2ba9f7edeb158dc0d26adc503bd8a71656a0d2aeb3f1ff98c0a473b31e66d05bcbb3014c95737aaf940370a90dc9342a904f5f3ae0440485fac4d890bde4c26779e1a1cc4a3d9d72a1c223cda0ac38086ba237a12658bf996753fa49c7f489bf1647ad8d1ba0e0edf9df8d572a02aa8aa370dc77c292e1fc267a75ee420afb4ba7319bb86a0b447e338c6cd671592e6367cf87b151f66623006458125053feea58e1b20e01c0a0a948af75d51e5018fa001ae9e7609a1a5c0efec1d99d31da370451933870d71db98d56f358019b41e8aefa2d7e0fd3cb2badfae8934f3419e375c46fa1c7f6f4f2276c07ee6fd699e2b32b5033fb4b0a17353525b496efb322e40fcec67a6cd4b7b86b1a7a910e8088963b20371c232c535c666447e2bf729c8eb70ba47c3d12009471be6d190da6f0a09219df94facdd995910f452c65f2a54ff1cd88462f6eb25656ae969d0f04d39bf0c2b2cb90712d2af1679010e4ff804a7873544e5a5b75a2288664430442f4b0f73bd9cebb7837da9a528e62b36731659652635b6ec3466db5ecbbe110563b542e4d207ecc46011185e6e794071dd454a38a44853048c4b42ff13e08549325389e155962be933fcd00a58ae1b38fc40df3bf7ad68180c29b6dbb26fe104226b63a6f91e2a387b623ab1ac29ef861d5f7eabb9dd7c52a6ea1214a0a716981867ce03401382dd3f9582e199634ec9a4cf95c3aa555cf967a9bcadb2af9a92c6a13e6b9d5612106507c262b374fbe016ab521caaee14b9c507b396a1724c9cdec81a8c089f8fe30ac457d83c3fdded38efbf23c00fd537e31599b7901f9452e56e6ccc41cb6c92718c894b28c35a4682b97b3ecfdb1b944682c996986f828d8c50a9d98cae314ac3a1b0e465ba63c39eacaeeb1821a6e312cf6f6dec802e762514de1fda43613418d6430abe1aaa721834167728a16fccecc747b96a3134192f48b59816c0d4440e3b07e9771a9a854185b484189340b480a88f2c76ea8f253973fbc4759f4be1e8dcd9fc56a8d5e268fdedd7d3fa1eaacb2182669e45c2c3fae3fb4ad8166b8f5bea5ce335cb29fec3cebecd389e08df0a806f2985721a436a4cfa1e9fe668040b12bdb9ebd6458b8294ce74121fd87ddbcb8901fbb1b82f293fc666206f10a451a41158f4c9e2cf6fc42487df286e11f03634fe205f22b1023f6d57ec4c0765614433ae14087a49a118f76ffe446206ab104d35e39af46812732f3ab0395f9b0a41c8917ff9fcf92806b407549f637b19cac964904d47580d999a95ee4d5fa570dff2fb85067746b608418af7bd07409114a40cefb573716e724a9ae8c33965c47873955d23568ada29ea68b85f7ccf04de774845960dec5200876cf959dffadcd20be7c189d48814e90eb2890fbb5b7b18f75d60e004c55abd1127c0fe516c18c6fe03cd136cf31d124510ba44aaef2a25abdb0ecb92dd03384aec4114bf332bc4db3ec5d5b151a4531f4d153686b22b88a14147acac1944b09e3859bee857e76a01cd8e987f7369b51982631e70ab88a939ec23d66f6e15f993c2dd9a244a42532680f4df9a702688a883ec9073936313cd8c7ad0eb724f81dabdf279b68e2621ea3d7813a0aa34ec0da64c9af1158a59a15de1338ac2491617b3c72ce3693cabe61e2f8b06ef0e6e2d6ab26552865f4bbaa9cd7d35c261dd0ca526790bbd0fb506ff740099f691714bb603179458970d88adbe97f3b10d642b53acf219dad8ada434597a2d25cf295dd734f3731426afb014ade506294ec59082a8cb5fbc0933f61af540ecf29214cfe3f1f98fd8d8b8e4b9b79379701aad5abeb76a1b6172a3611401fb191cccfd74c7af3cb37118a268d924d492a18ffbbe7e8ded599c7511ca849ee50aa4d23589f2dda8ee96bd42b6ca2dc4a07c0cd06055509a2cd5f96a115083c444683727de6d0a296862ba6a78cc7a7202eb813ad190962f743e10e616029a44950907a6e7b37728e1d57b4413ef2e2104b0ce47c4ec6fa5e61faa55cfe167d6fbdcdde6d9c7f9fe7dbc97e2d875e070f1a881d5b5ed486bd115a211351dbf4553413cec52c639492fad2a548c04d4b446b0cdcb5555b8c3763e6ac83a085888203fbc4c1f5c912e7cf1fca1c76cf3798df88f97446032633a2f12d02ecc156a53289c118d0290cc184173138b5f0eba7b9a77773c1b0edfec9000b8aef296337da92a6eb5d15a12245ae4086eff2277fdef66ac12ac16b2ad19a6ad3e3fd62501fbec9b47e8a37efffcab8b6cd4219dc94609e69cf3afc3b589f0eeab17a81d2482ae44ebfd2825390e085ffb27948d2078593fe2e17230dfa005958848db6e50debe4caf4134f1bb1da74ea47edd9188dab6ed384312b1272b846c33f49845578fbfc2b6204e27b5918b84d2b63273b2d09710eed0fc7dfc40754a0f43885bb29c39d90c8fd338a86b662b9603b612087370fd7590a783428b1cf22b8248b08d648086eaebd636c567fef7ac4b71676756e10325f66a30a4d78766c85f51c1c82708b1fe7045f1c649141f50be6d96c9666830e192c161274d5ae74e6fbdfc40c666d0003a96bf3cb1eace028085c2c335554812bb5815caa79ceb7cf29c644ac6aa37304119a4c14282fa1947af777ae0dcb3339da812cb3e2d14fde27774edf17a8e8ea0ae15490e9f819f1fbd8b23b67af5d101fb93b3bb206153892e203a9c6f3e54a7f134226bedddec6ddb7eb790fb37b85d0e7cf3139271e1424468102a54828894999eabacebfa1f2e4f5561767788949cacb1de010f2c303e575c6d7d949aa8afb5dbf5fe022d596069797b7c96afb4c5caddedf9fc0000000000000000000000000000000000000000000c192a3b01fd210500fd18c2efc20a082b23994e2e8bda32e9cdcc7c392a726e33d2acc8c65f71aa504c26b8579e6aa55fcedaf96fca375121a3c836429713d0823006c7249ce54429182df46ad56a2d9b696d0655b20c126e3ecbd07c2c8722faec166f7f6e84cfa25bb9aface12556f683942f82f045a36ef9c6b2a06837dad873bc47cff750328a0b05c973987ed431da249ec45f3ac942ae493c5713f427ac56112db2e9985a58ace31a8f92b262ab5db2bfe9239718cc21c88711b8a29d838511376b0a043db7644a07ad87bdcc29fd04b279d828ff9db95324d64338d0283e091ad43e52d0ead74b5cc1deb7081bfb94e50529821cd023c8f72e55b466c3e06d0965db4f3ee17071c61b2fc0e818571134af613b07114e883e7fbd912f81f453ebf61e9e99a8a900c8d7288c455b8e2e2759a55e5de5fb4a6373aec9c0cebe23306aaeb6391939430dab2665315dd5420bc4725a5dc513e7bcfa216e20bb4562153f9d73f5c73cdf29c2f22f927fc1fa7bdb772a04b1bf4769bd9bc4ce5b6b9808c03d205cbd7d20cb2236007c35ea6adb7a274bfb5c9260a2bac99253d5313e77bc4e68b8c93982deb62f5d8160990514dc798fddd8c6d2bf16b73d89d428127d0e7816bacbe60afb47cfe4bbd1bacff02255b2b97f635c23bbc1e3b6c13f4f40644e0bb4735e4d5e143409d63f534a73c3971847c1e2fdb879a1b69d522dc47892d34237f1edf94620f1612436fdbe02a3d7c23f6206ece7dcaef0a805dd0cb1000aac2a075d4a3578f79e53a62ddfc43e355d8fd3d0792d933df69ec61f2cbe70d029042de901d83fc3c9d18870a3ab10b2fbbc39c009a7e4e5982784aedd9590254c9556710de36c886ee76d89de96813f1205d069366b26a355517a38d78185fcc8b83576b13ac917724813ac7b931971846d181daa92dbbf169f8b31093101a07c4667f12f15144f6305a296f8c9f2d8f24127aca4b7f022c841fb52ff32f895120e57c50bba0ccdcdb68f5278a64e99d3f90f5213b920681f8240781e3f944055dec088ae5c6c5f001fbbd8de41b74b03a9f4c87eeeeee4c893dee084a7cd9e92565a3d3d4368c9fab559c8dc7b4f19c3638075126573af2052032607d43ced0f13bd370a02d86cfc18990d3a3016d91549614224acbd5aa4d33913980b0bfbc89a839f3d8fdb82d3264ca43c5adeff712d218e1ee4155905c4da3c622474cd01d89dc9f65c7cb7865b4b38007a1f3c5b9296f9a59c428830b0b146542f54f670fc6b2c81f97c650721f09a439264f500a9487450e7f95eee0a7d8892e3c1dee280147e9351743c286018defb03ac55ce7b5fca4d7691ec9ced50479d66bb2edd94e408e86d7180ab4e09ef4a79867c3343dd9722ca55e6ee7b52608f4e5417969e3f39695b147cc7d4b9379ffbac89387318d3901411074b5131ad1655a4994cd68efe1c660a7ac8bdbd175e8bfdd61cc07d91a6eb09da86414cbe3b859a970a6cfcfcd0bbdaf769e28a523cca35470bb20a7ccf778c7e4e58203d45dcc155cf557da02d5dce544eb488d25cd7f949749f02cbdc050abcfad9e9e112affd01a32d6539ee3d24363c26e31b94d0b1311f88b5538e557778718d293a4ae1e81caeff7666fc078111e26303741d6ec9c6503cc81f18ec4661d65cb3a09221e6c9c8277283cdcc04b7acea27bbd136627d03bbd3c301064c6564e78544a681082b05301b6c604d7042ef5d00bb20c371a7b0dc7a51e7e1e041e1be36c33228e833e7a9d0b4991e64bb6de81b41b75ed6e51f26258144a5167cfb1938161268efc49e625ab77bf65b751d9c158aa7a5e9356a1cfa36cf6b75b84208c2f4107d9dbcbe8f9979000000",
  "txid": "90849b853750375dc61f43ac0e9cb98be4d0fe848a98f31738b56b2ac04a7670",
  "hash": "8a426d2a6900af0a8715357818692463245cb78ff53e3c614131f91d2262f316",
  "size": 5085,
  "vsize": 2278,
  "version": 1,
  "locktime": 121,
  "vin": [
    {
      "txid": "47ba0007859e31a8762c038ec64bfc5566a29e0e3dfe915ce440d8f89547d925",
      "vout": 1,
      "scriptSig": {
        "asm": "",
        "hex": ""
      },
      "txinwitness": [
        "39347e76a2b64f1a779ecf5a3d06849f15d4da1dcd7690c281b9647c1a53381d77dd29ce05f7f2a043e89b0e1f572e2c479d8896c7e45ceebd53068089ff8b9ba08368b49b743fda2873ecbad846322b1ca09aff56330979b05b66055ee5a8b907d02439469d9a65d40ce33802c4a5af00ea9d762fa3e53852051d523717b00c1d8e01c20b88530ef59ffb169c514f0a8977f99d80ccb49cbb87321b85e5b84cafc9a7cd44bf3174a8b04576c25427792901bb7a8d135a5d920f92acdfb5fa1240f62bb93e782043d840a1c490ea146f318216c9b5ca5d1946e65d8381b5fbda39de3554b8bb218e49e233c2ae439b3da39753f40179de446248ec170ee3f575359307082f7588c3d749982882d863d308fcaa4fe3a99cefe9e74c092ae3917d9ddc75adf5667893019319d7c5a9777a8fc814cec59636ccaa5e0f2230ec400db7714fa665b28eed99a0afeee23d9ed3416f06d89e909c3c584d61760707277cfab14e906bfadeb000983f96559722fa6e23bf4892f48b1e4447c8d917d71f1cd423c9c2ba9f7edeb158dc0d26adc503bd8a71656a0d2aeb3f1ff98c0a473b31e66d05bcbb3014c95737aaf940370a90dc9342a904f5f3ae0440485fac4d890bde4c26779e1a1cc4a3d9d72a1c223cda0ac38086ba237a12658bf996753fa49c7f489bf1647ad8d1ba0e0edf9df8d572a02aa8aa370dc77c292e1fc267a75ee420afb4ba7319bb86a0b447e338c6cd671592e6367cf87b151f66623006458125053feea58e1b20e01c0a0a948af75d51e5018fa001ae9e7609a1a5c0efec1d99d31da370451933870d71db98d56f358019b41e8aefa2d7e0fd3cb2badfae8934f3419e375c46fa1c7f6f4f2276c07ee6fd699e2b32b5033fb4b0a17353525b496efb322e40fcec67a6cd4b7b86b1a7a910e8088963b20371c232c535c666447e2bf729c8eb70ba47c3d12009471be6d190da6f0a09219df94facdd995910f452c65f2a54ff1cd88462f6eb25656ae969d0f04d39bf0c2b2cb90712d2af1679010e4ff804a7873544e5a5b75a2288664430442f4b0f73bd9cebb7837da9a528e62b36731659652635b6ec3466db5ecbbe110563b542e4d207ecc46011185e6e794071dd454a38a44853048c4b42ff13e08549325389e155962be933fcd00a58ae1b38fc40df3bf7ad68180c29b6dbb26fe104226b63a6f91e2a387b623ab1ac29ef861d5f7eabb9dd7c52a6ea1214a0a716981867ce03401382dd3f9582e199634ec9a4cf95c3aa555cf967a9bcadb2af9a92c6a13e6b9d5612106507c262b374fbe016ab521caaee14b9c507b396a1724c9cdec81a8c089f8fe30ac457d83c3fdded38efbf23c00fd537e31599b7901f9452e56e6ccc41cb6c92718c894b28c35a4682b97b3ecfdb1b944682c996986f828d8c50a9d98cae314ac3a1b0e465ba63c39eacaeeb1821a6e312cf6f6dec802e762514de1fda43613418d6430abe1aaa721834167728a16fccecc747b96a3134192f48b59816c0d4440e3b07e9771a9a854185b484189340b480a88f2c76ea8f253973fbc4759f4be1e8dcd9fc56a8d5e268fdedd7d3fa1eaacb2182669e45c2c3fae3fb4ad8166b8f5bea5ce335cb29fec3cebecd389e08df0a806f2985721a436a4cfa1e9fe668040b12bdb9ebd6458b8294ce74121fd87ddbcb8901fbb1b82f293fc666206f10a451a41158f4c9e2cf6fc42487df286e11f03634fe205f22b1023f6d57ec4c0765614433ae14087a49a118f76ffe446206ab104d35e39af46812732f3ab0395f9b0a41c8917ff9fcf92806b407549f637b19cac964904d47580d999a95ee4d5fa570dff2fb85067746b608418af7bd07409114a40cefb573716e724a9ae8c33965c47873955d23568ada29ea68b85f7ccf04de774845960dec5200876cf959dffadcd20be7c189d48814e90eb2890fbb5b7b18f75d60e004c55abd1127c0fe516c18c6fe03cd136cf31d124510ba44aaef2a25abdb0ecb92dd03384aec4114bf332bc4db3ec5d5b151a4531f4d153686b22b88a14147acac1944b09e3859bee857e76a01cd8e987f7369b51982631e70ab88a939ec23d66f6e15f993c2dd9a244a42532680f4df9a702688a883ec9073936313cd8c7ad0eb724f81dabdf279b68e2621ea3d7813a0aa34ec0da64c9af1158a59a15de1338ac2491617b3c72ce3693cabe61e2f8b06ef0e6e2d6ab26552865f4bbaa9cd7d35c261dd0ca526790bbd0fb506ff740099f691714bb603179458970d88adbe97f3b10d642b53acf219dad8ada434597a2d25cf295dd734f3731426afb014ade506294ec59082a8cb5fbc0933f61af540ecf29214cfe3f1f98fd8d8b8e4b9b79379701aad5abeb76a1b6172a3611401fb191cccfd74c7af3cb37118a268d924d492a18ffbbe7e8ded599c7511ca849ee50aa4d23589f2dda8ee96bd42b6ca2dc4a07c0cd06055509a2cd5f96a115083c444683727de6d0a296862ba6a78cc7a7202eb813ad190962f743e10e616029a44950907a6e7b37728e1d57b4413ef2e2104b0ce47c4ec6fa5e61faa55cfe167d6fbdcdde6d9c7f9fe7dbc97e2d875e070f1a881d5b5ed486bd115a211351dbf4553413cec52c639492fad2a548c04d4b446b0cdcb5555b8c3763e6ac83a085888203fbc4c1f5c912e7cf1fca1c76cf3798df88f97446032633a2f12d02ecc156a53289c118d0290cc184173138b5f0eba7b9a77773c1b0edfec9000b8aef296337da92a6eb5d15a12245ae4086eff2277fdef66ac12ac16b2ad19a6ad3e3fd62501fbec9b47e8a37efffcab8b6cd4219dc94609e69cf3afc3b589f0eeab17a81d2482ae44ebfd2825390e085ffb27948d2078593fe2e17230dfa005958848db6e50debe4caf4134f1bb1da74ea47edd9188dab6ed384312b1272b846c33f49845578fbfc2b6204e27b5918b84d2b63273b2d09710eed0fc7dfc40754a0f43885bb29c39d90c8fd338a86b662b9603b612087370fd7590a783428b1cf22b8248b08d648086eaebd636c567fef7ac4b71676756e10325f66a30a4d78766c85f51c1c82708b1fe7045f1c649141f50be6d96c9666830e192c161274d5ae74e6fbdfc40c666d0003a96bf3cb1eace028085c2c335554812bb5815caa79ceb7cf29c644ac6aa37304119a4c14282fa1947af777ae0dcb3339da812cb3e2d14fde27774edf17a8e8ea0ae15490e9f819f1fbd8b23b67af5d101fb93b3bb206153892e203a9c6f3e54a7f134226bedddec6ddb7eb790fb37b85d0e7cf3139271e1424468102a54828894999eabacebfa1f2e4f5561767788949cacb1de010f2c303e575c6d7d949aa8afb5dbf5fe022d596069797b7c96afb4c5caddedf9fc0000000000000000000000000000000000000000000c192a3b01",
        "00fd18c2efc20a082b23994e2e8bda32e9cdcc7c392a726e33d2acc8c65f71aa504c26b8579e6aa55fcedaf96fca375121a3c836429713d0823006c7249ce54429182df46ad56a2d9b696d0655b20c126e3ecbd07c2c8722faec166f7f6e84cfa25bb9aface12556f683942f82f045a36ef9c6b2a06837dad873bc47cff750328a0b05c973987ed431da249ec45f3ac942ae493c5713f427ac56112db2e9985a58ace31a8f92b262ab5db2bfe9239718cc21c88711b8a29d838511376b0a043db7644a07ad87bdcc29fd04b279d828ff9db95324d64338d0283e091ad43e52d0ead74b5cc1deb7081bfb94e50529821cd023c8f72e55b466c3e06d0965db4f3ee17071c61b2fc0e818571134af613b07114e883e7fbd912f81f453ebf61e9e99a8a900c8d7288c455b8e2e2759a55e5de5fb4a6373aec9c0cebe23306aaeb6391939430dab2665315dd5420bc4725a5dc513e7bcfa216e20bb4562153f9d73f5c73cdf29c2f22f927fc1fa7bdb772a04b1bf4769bd9bc4ce5b6b9808c03d205cbd7d20cb2236007c35ea6adb7a274bfb5c9260a2bac99253d5313e77bc4e68b8c93982deb62f5d8160990514dc798fddd8c6d2bf16b73d89d428127d0e7816bacbe60afb47cfe4bbd1bacff02255b2b97f635c23bbc1e3b6c13f4f40644e0bb4735e4d5e143409d63f534a73c3971847c1e2fdb879a1b69d522dc47892d34237f1edf94620f1612436fdbe02a3d7c23f6206ece7dcaef0a805dd0cb1000aac2a075d4a3578f79e53a62ddfc43e355d8fd3d0792d933df69ec61f2cbe70d029042de901d83fc3c9d18870a3ab10b2fbbc39c009a7e4e5982784aedd9590254c9556710de36c886ee76d89de96813f1205d069366b26a355517a38d78185fcc8b83576b13ac917724813ac7b931971846d181daa92dbbf169f8b31093101a07c4667f12f15144f6305a296f8c9f2d8f24127aca4b7f022c841fb52ff32f895120e57c50bba0ccdcdb68f5278a64e99d3f90f5213b920681f8240781e3f944055dec088ae5c6c5f001fbbd8de41b74b03a9f4c87eeeeee4c893dee084a7cd9e92565a3d3d4368c9fab559c8dc7b4f19c3638075126573af2052032607d43ced0f13bd370a02d86cfc18990d3a3016d91549614224acbd5aa4d33913980b0bfbc89a839f3d8fdb82d3264ca43c5adeff712d218e1ee4155905c4da3c622474cd01d89dc9f65c7cb7865b4b38007a1f3c5b9296f9a59c428830b0b146542f54f670fc6b2c81f97c650721f09a439264f500a9487450e7f95eee0a7d8892e3c1dee280147e9351743c286018defb03ac55ce7b5fca4d7691ec9ced50479d66bb2edd94e408e86d7180ab4e09ef4a79867c3343dd9722ca55e6ee7b52608f4e5417969e3f39695b147cc7d4b9379ffbac89387318d3901411074b5131ad1655a4994cd68efe1c660a7ac8bdbd175e8bfdd61cc07d91a6eb09da86414cbe3b859a970a6cfcfcd0bbdaf769e28a523cca35470bb20a7ccf778c7e4e58203d45dcc155cf557da02d5dce544eb488d25cd7f949749f02cbdc050abcfad9e9e112affd01a32d6539ee3d24363c26e31b94d0b1311f88b5538e557778718d293a4ae1e81caeff7666fc078111e26303741d6ec9c6503cc81f18ec4661d65cb3a09221e6c9c8277283cdcc04b7acea27bbd136627d03bbd3c301064c6564e78544a681082b05301b6c604d7042ef5d00bb20c371a7b0dc7a51e7e1e041e1be36c33228e833e7a9d0b4991e64bb6de81b41b75ed6e51f26258144a5167cfb1938161268efc49e625ab77bf65b751d9c158aa7a5e9356a1cfa36cf6b75b84208c2f4107d9dbcbe8f99"
      ],
      "sequence": 4294967294
    }
  ],
  "vout": [
    {
      "value": 1.0,
      "n": 0,
      "scriptPubKey": {
        "asm": "OP_RETURN 4f29013d45e7707032118136b35073a92832987c99cb70bb9c4a9c2363d680cd f75df2ee33a55f95f1d6ab11b6b047cced4a57c06b00083cc1337c25285ea68fd77dd2ce13857fb5d1f68b31969067eccd6a77e04b20281ce1135c05087e86afb71db2ae73e51fd5b196eb51f6f0078cad0a17802b40487c81733c65681ee6cf973d928e53c53ff591b6cb71d6d027ac8d2a37a00b60685ca1531c45483ec6ef77dd726eb325df1571562b913630c74c6dcad740eb8088bc41b3fca5a8de260f57fd524e9305ff3551760bb11610e76c4deaf760cba0a89c6193dc8588fe062f379d322ef3659f5531166bd17670870c2d8a9700abc0c8fc01f3bce5e89e664f17bd120ed345bf7511364bf15650a72c0daab7208be0e8dc21d39cc5c8be466ff75df2ee33a55f95f1d6ab11b6b047cced4a57c06b00083cc1337c25285ea68fd77dd2ce13857fb5d1f68b31969067eccd6a77e04b20281ce1135c05087e86afb71db2ae73e51fd5b196eb51f6f0078cad0a17802b40487c81733c65681ee6cf973d928e53c53ff591b6cb71d6d027ac8d2a37a00b60685ca1531c45483ec6ef77dd726eb325df1571562b913630c74c6dcad740eb8088bc41b3fca5a8de260f57fd524e9305ff3551760bb11610e76c4deaf760cba0a89c6193dc8588fe062f379d322ef3659f5531166bd17670870c2d8a9700abc0c8fc01f3bce5e89e664f17bd120ed345bf7511364bf15650a72c0daab7208be0e8dc21d39cc5c8be466ff75df2ee33a55f95f1d6ab11b6b047cced4a57c06b00083cc1337c25285ea68fd77dd2ce13857fb5d1f68b31969067eccd6a77e04b20281ce1135c05087e86afb71db2ae73e51fd5b196eb51f6f0078cad0a17802b40487c81733c65681ee6cf973d928e53c53ff591b6cb71d6d027ac8d2a37a00b60685ca1531c45483ec6ef77dd726eb325df1571562b913630c74c6dcad740eb8088bc41b3fca5a8de260f57fd524e9305ff3551760bb11610e76c4deaf760cba0a89c6193dc8588fe062f379d322ef3659f5531166bd17670870c2d8a9700abc0c8fc01f3bce5e89e664f17bd120ed345bf7511364bf15650a72c0daab7208be0e8dc21d39cc5c8be466ff75df2ee33a55f95f1d6ab11b6b047cced4a57c06b00083cc1337c25285ea68fd77dd2ce13857fb5d1f68b31969067eccd6a77e04b20281ce1135c05087e86afb71db2ae73e51fd5b196eb51f6f0078cad0a17802b40487c81733c65681ee6cf973d928e53c53ff591b6cb71d6d027ac8d2a37a00b60685ca1531c45483ec6ef77dd726eb325df1571562b913630c74c6dcad740eb8088bc41b3fca5a8de260f57fd524e9305ff3551760bb11610e76c4deaf760cba0a89c6193dc8588fe062f379d322ef3659f5531166bd17670870c2d8a9700abc0c8fc01f3bce5e89e664f17bd120ed345bf7511364bf15650a72c0daab7208be0e8dc21d39cc5c8be466ff75df2ee33a55f95f1d6ab11b6b047cced4a57c06b00083cc1337c25285ea68fd77dd2ce13857fb5d1f68b31969067eccd6a77e04b20281ce1135c05087e86afb71db2ae73e51fd5b196eb51f6f0078cad0a17802b40487c81733c65681ee6cf973d928e53c53ff591b6cb71d6d027ac8d2a37a00b60685ca1531c45483ec6ef77dd726eb325df1571562b913630c74c468b28964835ff1ebedd145aeaddda81fa444c2f94c078a8325de0729098eede",
        "hex": "6a204f29013d45e7707032118136b35073a92832987c99cb70bb9c4a9c2363d680cd4db004f75df2ee33a55f95f1d6ab11b6b047cced4a57c06b00083cc1337c25285ea68fd77dd2ce13857fb5d1f68b31969067eccd6a77e04b20281ce1135c05087e86afb71db2ae73e51fd5b196eb51f6f0078cad0a17802b40487c81733c65681ee6cf973d928e53c53ff591b6cb71d6d027ac8d2a37a00b60685ca1531c45483ec6ef77dd726eb325df1571562b913630c74c6dcad740eb8088bc41b3fca5a8de260f57fd524e9305ff3551760bb11610e76c4deaf760cba0a89c6193dc8588fe062f379d322ef3659f5531166bd17670870c2d8a9700abc0c8fc01f3bce5e89e664f17bd120ed345bf7511364bf15650a72c0daab7208be0e8dc21d39cc5c8be466ff75df2ee33a55f95f1d6ab11b6b047cced4a57c06b00083cc1337c25285ea68fd77dd2ce13857fb5d1f68b31969067eccd6a77e04b20281ce1135c05087e86afb71db2ae73e51fd5b196eb51f6f0078cad0a17802b40487c81733c65681ee6cf973d928e53c53ff591b6cb71d6d027ac8d2a37a00b60685ca1531c45483ec6ef77dd726eb325df1571562b913630c74c6dcad740eb8088bc41b3fca5a8de260f57fd524e9305ff3551760bb11610e76c4deaf760cba0a89c6193dc8588fe062f379d322ef3659f5531166bd17670870c2d8a9700abc0c8fc01f3bce5e89e664f17bd120ed345bf7511364bf15650a72c0daab7208be0e8dc21d39cc5c8be466ff75df2ee33a55f95f1d6ab11b6b047cced4a57c06b00083cc1337c25285ea68fd77dd2ce13857fb5d1f68b31969067eccd6a77e04b20281ce1135c05087e86afb71db2ae73e51fd5b196eb51f6f0078cad0a17802b40487c81733c65681ee6cf973d928e53c53ff591b6cb71d6d027ac8d2a37a00b60685ca1531c45483ec6ef77dd726eb325df1571562b913630c74c6dcad740eb8088bc41b3fca5a8de260f57fd524e9305ff3551760bb11610e76c4deaf760cba0a89c6193dc8588fe062f379d322ef3659f5531166bd17670870c2d8a9700abc0c8fc01f3bce5e89e664f17bd120ed345bf7511364bf15650a72c0daab7208be0e8dc21d39cc5c8be466ff75df2ee33a55f95f1d6ab11b6b047cced4a57c06b00083cc1337c25285ea68fd77dd2ce13857fb5d1f68b31969067eccd6a77e04b20281ce1135c05087e86afb71db2ae73e51fd5b196eb51f6f0078cad0a17802b40487c81733c65681ee6cf973d928e53c53ff591b6cb71d6d027ac8d2a37a00b60685ca1531c45483ec6ef77dd726eb325df1571562b913630c74c6dcad740eb8088bc41b3fca5a8de260f57fd524e9305ff3551760bb11610e76c4deaf760cba0a89c6193dc8588fe062f379d322ef3659f5531166bd17670870c2d8a9700abc0c8fc01f3bce5e89e664f17bd120ed345bf7511364bf15650a72c0daab7208be0e8dc21d39cc5c8be466ff75df2ee33a55f95f1d6ab11b6b047cced4a57c06b00083cc1337c25285ea68fd77dd2ce13857fb5d1f68b31969067eccd6a77e04b20281ce1135c05087e86afb71db2ae73e51fd5b196eb51f6f0078cad0a17802b40487c81733c65681ee6cf973d928e53c53ff591b6cb71d6d027ac8d2a37a00b60685ca1531c45483ec6ef77dd726eb325df1571562b913630c74c468b28964835ff1ebedd145aeaddda81fa444c2f94c078a8325de0729098eede",
        "type": "nulldata"
      }
    },
    {
      "value": 499976.6113,
      "n": 1,
      "scriptPubKey": {
        "asm": "1 e5a0bb39dfb4a8995f62d4e78486b66b88e7c51c64a4a0befc03c62aaa022429",
        "hex": "5120e5a0bb39dfb4a8995f62d4e78486b66b88e7c51c64a4a0befc03c62aaa022429",
        "reqSigs": 1,
        "type": "witness_v1_scripthash",
        "addresses": [
          "3QJmnh"
        ]
      }
    }
  ],
  "blockhash": "b00c1afcc726d07acf9b884f47bf06130e4cba196c4900690ef7405d42c36beb",
  "confirmations": 1,
  "time": 1764180257,
  "blocktime": 1764180257
}