{
  "hex": "01000000000101257490914f1edfa4abeae01fff4667ce2a63db2c6b5d6c160e1de7bd913109ee0000000000feffffff02702338c0782d000022512032ad6868624fa4872ab6fdd363566e53946998fde8a9d152d6320482c9c47ce000e1f50500000000fdd5046a2070a20593fa94bdd976db75791d84af2fdba236418790e5e015bb0c5d2f1114654db0047335c09ef476f61b1ff6db9e14be08addf05575548e494b0caeb1391350f64a05315e0bed456d63b3fd6fbbe349e288dff25777568c4b490eacb33b1152f4480337580deb436b65b5fb69bde54fe48ed9f45171508a4d4f08aab53d1754f24e01355a0fe9416967b7f96bbfe74de68cdbf6537352884f4d0aa8b73f1556f04c0f3b5401e74f6769b9f765b1e943e882d5f85d7d5c86414304a6b9311b58fe420d395603e54d656bbbf567b3eb41ea80d7fa5f7f5e84434106a4bb33195afc400b3f5005e34b636dbdf361b5ed47ec86d1fc59795882454700a2bd351f5cfa46093d5207e149616fbff163b7ef45ee84d3fe5b7b5a80474502a0bf371d5ef84407335c09ef476f61b1ff6db9e14be08addf05575548e494b0caeb1391350f64a05315e0bed456d63b3fd6fbbe349e288dff25777568c4b490eacb33b1152f4480337580deb436b65b5fb69bde54fe48ed9f45171508a4d4f08aab53d1754f24e01355a0fe9416967b7f96bbfe74de68cdbf6537352884f4d0aa8b73f1556f04c0f3b5401e74f6769b9f765b1e943e882d5f85d7d5c86414304a6b9311b58fe420d395603e54d656bbbf567b3eb41ea80d7fa5f7f5e84434106a4bb33195afc400b3f5005e34b636dbdf361b5ed47ec86d1fc59795882454700a2bd351f5cfa46093d5207e149616fbff163b7ef45ee84d3fe5b7b5a80474502a0bf371d5ef84407335c09ef476f61b1ff6db9e14be08addf05575548e494b0caeb1391350f64a05315e0bed456d63b3fd6fbbe349e288dff25777568c4b490eacb33b1152f4480337580deb436b65b5fb69bde54fe48ed9f45171508a4d4f08aab53d1754f24e01355a0fe9416967b7f96bbfe74de68cdbf6537352884f4d0aa8b73f1556f04c0f3b5401e74f6769b9f765b1e943e882d5f85d7d5c86414304a6b9311b58fe420d395603e54d656bbbf567b3eb41ea80d7fa5f7f5e84434106a4bb33195afc400b3f5005e34b636dbdf361b5ed47ec86d1fc59795882454700a2bd351f5cfa46093d5207e149616fbff163b7ef45ee84d3fe5b7b5a80474502a0bf371d5ef84407335c09ef476f61b1ff6db9e14be08addf05575548e494b0caeb1391350f64a05315e0bed456d63b3fd6fbbe349e288dff25777568c4b490eacb33b1152f4480337580deb436b65b5fb69bde54fe48ed9f45171508a4d4f08aab53d1754f24e01355a0fe9416967b7f96bbfe74de68cdbf6537352884f4d0aa8b73f1556f04c0f3b5401e74f6769b9f765b1e943e882d5f85d7d5c86414304a6b9311b58fe420d395603e54d656bbbf567b3eb41ea80d7fa5f7f5e84434106a4bb33195afc400b3f5005e34b636dbdf361b5ed47ec86d1fc59795882454700a2bd351f5cfa46093d5207e149616fbff163b7ef45ee84d3fe5b7b5a80474502a0bf371d5ef84407335c09ef476f61b1ff6db9e14be08addf05575548e494b0caeb1391350f64a05315e0bed456d63b3fd6fbbe349e288dff25777568c4b490eacb33b1152f4480337580deb436b65b5fb69bde54fe48ed9f45171508a4d4f08aab53d1754f24e01355a0fe9416967b7f96bbfe74de68cdbf6537352884f4d0aa8b73f1556f04c0f3b5401e74f6769b9f765b1e943e882d5f3910f9f27948f2df098cfd4f9042a7208f073d9573c0f9dad3d06495cf4c2b02fd7509c5946dd7e52b783a5a7be29a3d5ec39ab397cf2ec8c2b90e2e7d04d57f53c5b997f70d32ac99a5f68e4c1a62018dfeae0592acf0f834b77936d63630cd7de5e16fc43d859cf636bce6f53f44a28a8ef3c3ad07e6445c86cbc7395c455514fc811e8fc0a334bd9e56ae8932d18bce17adb092a164af76cc3bfbfa122c795968e9315cad34ad3087d9d69b2349452391f95723e513269a1a20a13ab23982daa18c8b970df66365d5a11f6f5af14aee4838772d274fa0dad30f7dd1b10bc4be3c23c20fd850c4285bcd0553224ed66d9bf565bc327ef5a47ec215e1113bf7c9f30c4092d8495066a3ca871fd140209307d0e02e5fdff04236568cfb788d0971ab3dfdcc3d89dd560d9b3644a16d2ebf328afd3ec73581955fa946d8587d441a106e7dee83345a9b04e22a5712db9b4d05f62505e324a2421ad6de232ca53ee6af7476bae0269f86d58cdfd446886681d72f02e686d0df659e774c45404b10f4fc348c975f5855c3a0b31d15db0ac3b0e699bca282b2aecb7c4b9cc7049ed89d8deb2f07bfc6bf12c7ce5131186d3178dd54e12e1f8cc7672bc83c7d4f0f981ffa796bdf3cc44c34d41dce2768e1d25a1107b438511b55cb8bc17c67c49c66b625249475fe6bb52dd2a423465a704a7dfb4205f12280aeb4277b17e701f1d382e02f79e3e34a787213dd97b95133f9b765d21b239b43a9d6bc5ad4536430a68b78c571148370d69ad25d8b4bbaf646409b3089d6637b3b74b59aaa8cc0423ca6dbadf4f804b6cd5323ff24fe352e7ca2c662001967fc3c95b5b455389ff2932f9116405e6226155226fd4ffeab239fe72b8fe7c35c8c4c209ba908654ccd7ae07cae19c95af3da2880ef7408ecf4fa89e658b1353e9d4c62a8cb3198ca70ac3c65bab0062a4938f279ebce48929733c183e7dc4d8c9cf6e27a5599af90748ef2434b557bb77fa1316a66efbf61c80a8d56e545d132e74d2462f9679cf8b247234bbba513b51ec7193f8848ff5a2c5d947cc7d6c3e53da7e04bfb125fbfb15c5514eccf7917767aa0d8db3afd5eb6a877fbcf9659cbc2ddef305cc098d8500f24f2aff1fbdc561188f06a1bbeeeb341b5218ac2f849cb12e3435c0ea7fb69cff33aa1e1c0c01c5387c523e10e870d90b7e8879c65802cea4a83ec5f7085cfd05a4cbad6acd2f27530c87da48786249665503f43f379b2bcec91a48dbfd6f2183756ed334dcd1a5110808a725bc9d4b18ec393faac2a85bfafe7d98dcab078610536485eae8aac601602ae623bb6fced051a850309b44016c48e80f2b525a4eb4dab9b64855cad489b4b26bca3d4e5129adc0b4069b742e8cb93b0a53555c13a1d1c321f8b1e36d331672986484d1b46d4a7ba3b000771cd80c07883a8ea2f86196f4c55f8c44dcb0f5a93be91fdb960c9102cc10c4b2ec12ed918d1b3ba4b2c90fa1836e91a1606e751591790c50cdbcf68b2fc802722138057cc85a7d0331542ab72517da666bdf5ea3e851b038bee7dca742ed1928bdeebdbfb8adb0e910fdb7a772a19f63b070328869c21706fe70abf0fee1f062e76bfb849b0028205618d387736df48eeea3462e3b5e451dea1f3000a5122fa1a385e6e32761dc19633ed23703c2370f154e2cbaf33e3dbf933a093f868967024429c37bb5a5355ab20a510f5577c5326598c742839a607bdcda6ce7cf19399419edf4dea21e1acfae999f32c07002440cf038b57874746ef8039e422d2e9b942e67123c55514155abc04f33424b197beae4941d841089c5029c473a5cf3af9b11a0188cdaf6a6503bfcfffe6213e1bdb9431b01a0afcdc2f786c062b328054228534cf95319a044a64c108137bb14d0e92e5b98d21525dc26a94ab292d7a885b908948d1aa009b8d986b699b24d35282b285386d466935f59e6b60b6ff9c436812acc8edb8b013e3e4d885590854cf422341aa16c441e4d17767e0a55dc12921f8419a7346e7eef3167185f3e0ef0e9743eac7d05f701badc065889d3cc815858c07a576e242dc1e13c162781f8fe20d0fe9cb1d7fd48214e38de42170db98d843d5cba9f0e4f5bdebfcf29e54b24e2e72d52186f3132a73ffd5a844bfdf6fcfb688a91dccb1c1f35fc2f2cf7a58bd3e4a01e5d3b8ea45782a7a9c7ee5ef930955002b1a72e3cd1a3454fb302c04a5e71abcca60676a35b9622040317e1321ec0fdba12924e17ce24ee5dbda5b6be7a3561c65f032a6da11bd1dc4cd55b2e613732b25a313ae8f56963856f6df826937da7e747e2854ab8bc9e237ab24245c8f8c05126e62f6bf9b391a577877dd47020c616ba233d75f760e8ac781df717dc67b219fb71add504c083bbcdecfaf56741652062eb6f90f573d038c2d976b553549e5b18f5a192801e637c21605cb8f90a3d6ea458dd1498b01d14a2ad0ff9305f8e74d451cc08e56134fad9a60ac491780955b23d9f7837eb31a252d51645c21af5bb16e76791f81a0094057ee5b16ff86ae0b955340e7403adf6c92969d6001b19a1f105c71ad984fa7ad79c8bc29fa8dac88a0c0cce306c2f3d6357abfeb3e47de23717d87234eac4678bc85f36a2e39d92258cfd889a3133bcf42957492674a8a50037a69f2c6a842a7b14b84f01f5407d73b0953bfeefcb47a5123a5e6514e7855c987a7babaf639bd3567ba8147436c95e1c610257e283c51785616240ab9e0c2f5c3fc7d9d040277845b41e85db8e1a3bb446f513922aeb0cc910128fc41ad03537cb35d706eefd9b5ea036f0427040ef894738461d1025fc024cc97cc926a6989455861c635b26157a0cca9bad85574bdd85cc93602cd9107b4a7f64d43ecf2ebd51d22c6f40dead769da163318f6df103ba2dd1dc507bed06e2e7b56dc41912be1dfef50c9722a593a8fab1702b7386a7c220a89da408b6d38a8dd1734e777c9e3ae1463304e7691b4ada7a4354fed9f6f4d806b5f1cb750ce9d822248fdb07f0dc3e745c59ca2f9fb537989f5f295e01e45e0972db2e1135aa7ab5266cdc7007f97eb7a8ff29b2ac3772369422795fe9d013206d326e1b9bb3178e67441e3665504b45564e3b44a989f3c6ae9e43ff0e904638856ed3527ff85f388944b9d1cc8195f31bc26237648b7b76149b452389cb42bf01d41c412527a1f6954d7e267ade2417bdf4537a150ea9db0120d20dcea7adb4236809d207a6befd2773646bd16e831948f671c942eafb469480c2dbabb35ec6f903e598bdd3847e859f194e56b3bf41154369a3c0d9efc48462b2e23845d6b4e3ffa921af67c5f3a6f1f80e74743b240f2e49c560e142947646c787f80828b9da9bacbe8edf03c686b83888e8f9598cad6f2031215171d2b364754868a9dc6ee11474d52616667707480919aacb1b6bbcfd6e1ed00000000000000000000000000000000121e2c4001fd210500cd71bdf4d6efbdca59d324de300a43648ad3398844450be1b408c26e679931776621e131ac38a312ba1699d9baa343adbca3342784abfb1e92e4387b1cd098fbe794858e55f3d1e59e195e352885e5ae61ad2b04bf1958163a7142018325867103250c2916d0448428d82c778789b82701ebc5b1e1e5c6885af51233efee5770b25f671a11e00d01ba9ccb78f7d6f49bba9b8090accdb0b9c56c3669f5158fc445b9de8baa5a30ba7618f962c7d2f09bddd362bdfe67f3dc5664e1486961a4b7b159b8fad3126fce0d0f9003bba950e1cfafc1ac83319018d73ad2dfeebfde69097f6583fbca8a025007593bb540807068f6c13fdf6287c8615a239b158a2301560b1affc57ab49a41f91c15482d4cb9d70b4767fd29495a31b55f2ea881826b98fda77f8b70642e8a55728c1f787016ca941a1fe8c211688854a168502c592f6969c4f7ea838e3e1231e8109b8fbe34f51003718d5467d555d0faba7cc399d322f0486cec3709ec2f2dc462cbacd536f3c2989cbcc2207a8e2ef92f50ad55c4d323c665c5e94ef7b0cfe7f797c4363cfaeef368d3b394bb41973be4d40f528ea54ec704040a4533c7e5940e65326c0699d3eb48f45a457d4fbb07d877a602eb90085d0c7c18608f4c550955f6d050d549c95ad8a6da68e765be2293b869c5ea49e65167b50054ebb81641b5eb8df93c1697728ef8d4596733f05c202e7b8d16c2971fdbbecbef034ea2b68fd80027bf6841bf21330e9b3aac3ba9c19cbd67678fb1f9b0984ca40e77ad3285ac5c270f146e1d214d974cabf3060543211ec64501681c3e1bbdf74be829e3048b07e5b036185b5105799793785634e642152c7f78b80faee5cfd9d6a6a716a76e7f4744f57b97840d5bd5809140409d677e5f9f9d0f3c81108c9921860d3f6e7d15a5009b9b0e37bf20b53b0e5190fc148cddae66f6e2505cf8970f680972595cb8127425c506c5a13497c4adfec98e93181e2b3148d086e34ec3ef6a294918767de86072369e4ac9df70d6a466bdd36e897056a7233156af4b16ac94f2a9cd244f0f235e27081484332dca4ebcce6803fb071e8c810aa7f546c3b19eb1de40018e0f177da305c96dec7338aba09eb857f904aef0cf010265e68b75af8082c25b34801567ed44cc6205115d7c9010291363516f3d71f76327a46c591021ed2b6fe083e0eeea7edffc10900ef19687ae305c9b00dc1b6641be2f47e13075a9d99e33af832f967ccc2d68279de07c5252bac8c6548609c1c755d40b92c34a4f8f6b8679679f3b192b381a8c4568a61ef81ab6aa137501dfcb58e9f602e2184d4da6d790526aa57a6edc9b6ce49f29dc8bf7a85cade207033ceb4e8499173f7d16dfdaf6b1bb4a4cbe845d9bcfdf114a1429ed724c3200c40106d1363c3c41763c40830338c4ffc92ea0a5c482ac59bf51502ed1cce7f24e65cb22e64a95cc0a7c3181b3cddebd98a588b9f840ac248e6d02e6af3092dfa8395659c5259c62b4695386bc9d75874f8a5f2c46d2d91d8a1ed6912603b8c9285b76cff6ada33cd55139f32e69d8abacd9e96e750c1fd9247aa1d52f62906e240b65db8df6c827f83eba7c6757ef150d6b0fad54db274eb9dc16fe3c517f8a255426aa797752454320a74d32e3268269e57be845109e71df3ab1febb874e6a172f01cb685acda4cb694a10b84cb83ad323aab019cf674e179880d9745541f78cca7593b6727ba4363f30e8ac2b5e85393d78c5bad0e2066fc4966e73f176e7d8a82f2aec4054609fff37cf333f6ab4be68d79567da29ff0508d6ecacedb74fc7539b96f281da0ff289315dde7002bafbebc99ae335ef00493d6359943383000000",
  "txid": "98713e9aad34d53554e91fac8a29a8a59e4d1f512c90c009a98cff53c674a7da",
  "hash": "99c64e55af8edfc3df7272f4b8d843e0f3b5e91c2bf77bbc959fc34a28d5f40f",
  "size": 5085,
  "vsize": 2278,
  "version": 1,
  "locktime": 131,
  "vin": [
    {
      "txid": "ee093191bde71d0e166c5d6b2cdb632ace6746ff1fe0eaaba4df1e4f91907425",
      "vout": 0,
      "scriptSig": {
        "asm": "",
        "hex": ""
      },
      "txinwitness": [
        "c5946dd7e52b783a5a7be29a3d5ec39ab397cf2ec8c2b90e2e7d04d57f53c5b997f70d32ac99a5f68e4c1a62018dfeae0592acf0f834b77936d63630cd7de5e16fc43d859cf636bce6f53f44a28a8ef3c3ad07e6445c86cbc7395c455514fc811e8fc0a334bd9e56ae8932d18bce17adb092a164af76cc3bfbfa122c795968e9315cad34ad3087d9d69b2349452391f95723e513269a1a20a13ab23982daa18c8b970df66365d5a11f6f5af14aee4838772d274fa0dad30f7dd1b10bc4be3c23c20fd850c4285bcd0553224ed66d9bf565bc327ef5a47ec215e1113bf7c9f30c4092d8495066a3ca871fd140209307d0e02e5fdff04236568cfb788d0971ab3dfdcc3d89dd560d9b3644a16d2ebf328afd3ec73581955fa946d8587d441a106e7dee83345a9b04e22a5712db9b4d05f62505e324a2421ad6de232ca53ee6af7476bae0269f86d58cdfd446886681d72f02e686d0df659e774c45404b10f4fc348c975f5855c3a0b31d15db0ac3b0e699bca282b2aecb7c4b9cc7049ed89d8deb2f07bfc6bf12c7ce5131186d3178dd54e12e1f8cc7672bc83c7d4f0f981ffa796bdf3cc44c34d41dce2768e1d25a1107b438511b55cb8bc17c67c49c66b625249475fe6bb52dd2a423465a704a7dfb4205f12280aeb4277b17e701f1d382e02f79e3e34a787213dd97b95133f9b765d21b239b43a9d6bc5ad4536430a68b78c571148370d69ad25d8b4bbaf646409b3089d6637b3b74b59aaa8cc0423ca6dbadf4f804b6cd5323ff24fe352e7ca2c662001967fc3c95b5b455389ff2932f9116405e6226155226fd4ffeab239fe72b8fe7c35c8c4c209ba908654ccd7ae07cae19c95af3da2880ef7408ecf4fa89e658b1353e9d4c62a8cb3198ca70ac3c65bab0062a4938f279ebce48929733c183e7dc4d8c9cf6e27a5599af90748ef2434b557bb77fa1316a66efbf61c80a8d56e545d132e74d2462f9679cf8b247234bbba513b51ec7193f8848ff5a2c5d947cc7d6c3e53da7e04bfb125fbfb15c5514eccf7917767aa0d8db3afd5eb6a877fbcf9659cbc2ddef305cc098d8500f24f2aff1fbdc561188f06a1bbeeeb341b5218ac2f849cb12e3435c0ea7fb69cff33aa1e1c0c01c5387c523e10e870d90b7e8879c65802cea4a83ec5f7085cfd05a4cbad6acd2f27530c87da48786249665503f43f379b2bcec91a48dbfd6f2183756ed334dcd1a5110808a725bc9d4b18ec393faac2a85bfafe7d98dcab078610536485eae8aac601602ae623bb6fced051a850309b44016c48e80f2b525a4eb4dab9b64855cad489b4b26bca3d4e5129adc0b4069b742e8cb93b0a53555c13a1d1c321f8b1e36d331672986484d1b46d4a7ba3b000771cd80c07883a8ea2f86196f4c55f8c44dcb0f5a93be91fdb960c9102cc10c4b2ec12ed918d1b3ba4b2c90fa1836e91a1606e751591790c50cdbcf68b2fc802722138057cc85a7d0331542ab72517da666bdf5ea3e851b038bee7dca742ed1928bdeebdbfb8adb0e910fdb7a772a19f63b070328869c21706fe70abf0fee1f062e76bfb849b0028205618d387736df48eeea3462e3b5e451dea1f3000a5122fa1a385e6e32761dc19633ed23703c2370f154e2cbaf33e3dbf933a093f868967024429c37bb5a5355ab20a510f5577c5326598c742839a607bdcda6ce7cf19399419edf4dea21e1acfae999f32c07002440cf038b57874746ef8039e422d2e9b942e67123c55514155abc04f33424b197beae4941d841089c5029c473a5cf3af9b11a0188cdaf6a6503bfcfffe6213e1bdb9431b01a0afcdc2f786c062b328054228534cf95319a044a64c108137bb14d0e92e5b98d21525dc26a94ab292d7a885b908948d1aa009b8d986b699b24d35282b285386d466935f59e6b60b6ff9c436812acc8edb8b013e3e4d885590854cf422341aa16c441e4d17767e0a55dc12921f8419a7346e7eef3167185f3e0ef0e9743eac7d05f701badc065889d3cc815858c07a576e242dc1e13c162781f8fe20d0fe9cb1d7fd48214e38de42170db98d843d5cba9f0e4f5bdebfcf29e54b24e2e72d52186f3132a73ffd5a844bfdf6fcfb688a91dccb1c1f35fc2f2cf7a58bd3e4a01e5d3b8ea45782a7a9c7ee5ef930955002b1a72e3cd1a3454fb302c04a5e71abcca60676a35b9622040317e1321ec0fdba12924e17ce24ee5dbda5b6be7a3561c65f032a6da11bd1dc4cd55b2e613732b25a313ae8f56963856f6df826937da7e747e2854ab8bc9e237ab24245c8f8c05126e62f6bf9b391a577877dd47020c616ba233d75f760e8ac781df717dc67b219fb71add504c083bbcdecfaf56741652062eb6f90f573d038c2d976b553549e5b18f5a192801e637c21605cb8f90a3d6ea458dd1498b01d14a2ad0ff9305f8e74d451cc08e56134fad9a60ac491780955b23d9f7837eb31a252d51645c21af5bb16e76791f81a0094057ee5b16ff86ae0b955340e7403adf6c92969d6001b19a1f105c71ad984fa7ad79c8bc29fa8dac88a0c0cce306c2f3d6357abfeb3e47de23717d87234eac4678bc85f36a2e39d92258cfd889a3133bcf42957492674a8a50037a69f2c6a842a7b14b84f01f5407d73b0953bfeefcb47a5123a5e6514e7855c987a7babaf639bd3567ba8147436c95e1c610257e283c51785616240ab9e0c2f5c3fc7d9d040277845b41e85db8e1a3bb446f513922aeb0cc910128fc41ad03537cb35d706eefd9b5ea036f0427040ef894738461d1025fc024cc97cc926a6989455861c635b26157a0cca9bad85574bdd85cc93602cd9107b4a7f64d43ecf2ebd51d22c6f40dead769da163318f6df103ba2dd1dc507bed06e2e7b56dc41912be1dfef50c9722a593a8fab1702b7386a7c220a89da408b6d38a8dd1734e777c9e3ae1463304e7691b4ada7a4354fed9f6f4d806b5f1cb750ce9d822248fdb07f0dc3e745c59ca2f9fb537989f5f295e01e45e0972db2e1135aa7ab5266cdc7007f97eb7a8ff29b2ac3772369422795fe9d013206d326e1b9bb3178e67441e3665504b45564e3b44a989f3c6ae9e43ff0e904638856ed3527ff85f388944b9d1cc8195f31bc26237648b7b76149b452389cb42bf01d41c412527a1f6954d7e267ade2417bdf4537a150ea9db0120d20dcea7adb4236809d207a6befd2773646bd16e831948f671c942eafb469480c2dbabb35ec6f903e598bdd3847e859f194e56b3bf41154369a3c0d9efc48462b2e23845d6b4e3ffa921af67c5f3a6f1f80e74743b240f2e49c560e142947646c787f80828b9da9bacbe8edf03c686b83888e8f9598cad6f2031215171d2b364754868a9dc6ee11474d52616667707480919aacb1b6bbcfd6e1ed00000000000000000000000000000000121e2c4001",
        "00cd71bdf4d6efbdca59d324de300a43648ad3398844450be1b408c26e679931776621e131ac38a312ba1699d9baa343adbca3342784abfb1e92e4387b1cd098fbe794858e55f3d1e59e195e352885e5ae61ad2b04bf1958163a7142018325867103250c2916d0448428d82c778789b82701ebc5b1e1e5c6885af51233efee5770b25f671a11e00d01ba9ccb78f7d6f49bba9b8090accdb0b9c56c3669f5158fc445b9de8baa5a30ba7618f962c7d2f09bddd362bdfe67f3dc5664e1486961a4b7b159b8fad3126fce0d0f9003bba950e1cfafc1ac83319018d73ad2dfeebfde69097f6583fbca8a025007593bb540807068f6c13fdf6287c8615a239b158a2301560b1affc57ab49a41f91c15482d4cb9d70b4767fd29495a31b55f2ea881826b98fda77f8b70642e8a55728c1f787016ca941a1fe8c211688854a168502c592f6969c4f7ea838e3e1231e8109b8fbe34f51003718d5467d555d0faba7cc399d322f0486cec3709ec2f2dc462cbacd536f3c2989cbcc2207a8e2ef92f50ad55c4d323c665c5e94ef7b0cfe7f797c4363cfaeef368d3b394bb41973be4d40f528ea54ec704040a4533c7e5940e65326c0699d3eb48f45a457d4fbb07d877a602eb90085d0c7c18608f4c550955f6d050d549c95ad8a6da68e765be2293b869c5ea49e65167b50054ebb81641b5eb8df93c1697728ef8d4596733f05c202e7b8d16c2971fdbbecbef034ea2b68fd80027bf6841bf21330e9b3aac3ba9c19cbd67678fb1f9b0984ca40e77ad3285ac5c270f146e1d214d974cabf3060543211ec64501681c3e1bbdf74be829e3048b07e5b036185b5105799793785634e642152c7f78b80faee5cfd9d6a6a716a76e7f4744f57b97840d5bd5809140409d677e5f9f9d0f3c81108c9921860d3f6e7d15a5009b9b0e37bf20b53b0e5190fc148cddae66f6e2505cf8970f680972595cb8127425c506c5a13497c4adfec98e93181e2b3148d086e34ec3ef6a294918767de86072369e4ac9df70d6a466bdd36e897056a7233156af4b16ac94f2a9cd244f0f235e27081484332dca4ebcce6803fb071e8c810aa7f546c3b19eb1de40018e0f177da305c96dec7338aba09eb857f904aef0cf010265e68b75af8082c25b34801567ed44cc6205115d7c9010291363516f3d71f76327a46c591021ed2b6fe083e0eeea7edffc10900ef19687ae305c9b00dc1b6641be2f47e13075a9d99e33af832f967ccc2d68279de07c5252bac8c6548609c1c755d40b92c34a4f8f6b8679679f3b192b381a8c4568a61ef81ab6aa137501dfcb58e9f602e2184d4da6d790526aa57a6edc9b6ce49f29dc8bf7a85cade207033ceb4e8499173f7d16dfdaf6b1bb4a4cbe845d9bcfdf114a1429ed724c3200c40106d1363c3c41763c40830338c4ffc92ea0a5c482ac59bf51502ed1cce7f24e65cb22e64a95cc0a7c3181b3cddebd98a588b9f840ac248e6d02e6af3092dfa8395659c5259c62b4695386bc9d75874f8a5f2c46d2d91d8a1ed6912603b8c9285b76cff6ada33cd55139f32e69d8abacd9e96e750c1fd9247aa1d52f62906e240b65db8df6c827f83eba7c6757ef150d6b0fad54db274eb9dc16fe3c517f8a255426aa797752454320a74d32e3268269e57be845109e71df3ab1febb874e6a172f01cb685acda4cb694a10b84cb83ad323aab019cf674e179880d9745541f78cca7593b6727ba4363f30e8ac2b5e85393d78c5bad0e2066fc4966e73f176e7d8a82f2aec4054609fff37cf333f6ab4be68d79567da29ff0508d6ecacedb74fc7539b96f281da0ff289315dde7002bafbebc99ae335ef00493d63599433"
      ],
      "sequence": 4294967294
    }
  ],
  "vout": [
    {
      "value": 499966.4423,
      "n": 0,
      "scriptPubKey": {
        "asm": "1 32ad6868624fa4872ab6fdd363566e53946998fde8a9d152d6320482c9c47ce0",
        "hex": "512032ad6868624fa4872ab6fdd363566e53946998fde8a9d152d6320482c9c47ce0",
        "reqSigs": 1,
        "type": "witness_v1_scripthash",
        "addresses": [
          "3QJmnh"
        ]
      }
    },
    {
      "value": 1.0,
      "n": 1,
      "scriptPubKey": {
        "asm": "OP_RETURN 70a20593fa94bdd976db75791d84af2fdba236418790e5e015bb0c5d2f111465 7335c09ef476f61b1ff6db9e14be08addf05575548e494b0caeb1391350f64a05315e0bed456d63b3fd6fbbe349e288dff25777568c4b490eacb33b1152f4480337580deb436b65b5fb69bde54fe48ed9f45171508a4d4f08aab53d1754f24e01355a0fe9416967b7f96bbfe74de68cdbf6537352884f4d0aa8b73f1556f04c0f3b5401e74f6769b9f765b1e943e882d5f85d7d5c86414304a6b9311b58fe420d395603e54d656bbbf567b3eb41ea80d7fa5f7f5e84434106a4bb33195afc400b3f5005e34b636dbdf361b5ed47ec86d1fc59795882454700a2bd351f5cfa46093d5207e149616fbff163b7ef45ee84d3fe5b7b5a80474502a0bf371d5ef84407335c09ef476f61b1ff6db9e14be08addf05575548e494b0caeb1391350f64a05315e0bed456d63b3fd6fbbe349e288dff25777568c4b490eacb33b1152f4480337580deb436b65b5fb69bde54fe48ed9f45171508a4d4f08aab53d1754f24e01355a0fe9416967b7f96bbfe74de68cdbf6537352884f4d0aa8b73f1556f04c0f3b5401e74f6769b9f765b1e943e882d5f85d7d5c86414304a6b9311b58fe420d395603e54d656bbbf567b3eb41ea80d7fa5f7f5e84434106a4bb33195afc400b3f5005e34b636dbdf361b5ed47ec86d1fc59795882454700a2bd351f5cfa46093d5207e149616fbff163b7ef45ee84d3fe5b7b5a80474502a0bf371d5ef84407335c09ef476f61b1ff6db9e14be08addf05575548e494b0caeb1391350f64a05315e0bed456d63b3fd6fbbe349e288dff25777568c4b490eacb33b1152f4480337580deb436b65b5fb69bde54fe48ed9f45171508a4d4f08aab53d1754f24e01355a0fe9416967b7f96bbfe74de68cdbf6537352884f4d0aa8b73f1556f04c0f3b5401e74f6769b9f765b1e943e882d5f85d7d5c86414304a6b9311b58fe420d395603e54d656bbbf567b3eb41ea80d7fa5f7f5e84434106a4bb33195afc400b3f5005e34b636dbdf361b5ed47ec86d1fc59795882454700a2bd351f5cfa46093d5207e149616fbff163b7ef45ee84d3fe5b7b5a80474502a0bf371d5ef84407335c09ef476f61b1ff6db9e14be08addf05575548e494b0caeb1391350f64a05315e0bed456d63b3fd6fbbe349e288dff25777568c4b490eacb33b1152f4480337580deb436b65b5fb69bde54fe48ed9f45171508a4d4f08aab53d1754f24e01355a0fe9416967b7f96bbfe74de68cdbf6537352884f4d0aa8b73f1556f04c0f3b5401e74f6769b9f765b1e943e882d5f85d7d5c86414304a6b9311b58fe420d395603e54d656bbbf567b3eb41ea80d7fa5f7f5e84434106a4bb33195afc400b3f5005e34b636dbdf361b5ed47ec86d1fc59795882454700a2bd351f5cfa46093d5207e149616fbff163b7ef45ee84d3fe5b7b5a80474502a0bf371d5ef84407335c09ef476f61b1ff6db9e14be08addf05575548e494b0caeb1391350f64a05315e0bed456d63b3fd6fbbe349e288dff25777568c4b490eacb33b1152f4480337580deb436b65b5fb69bde54fe48ed9f45171508a4d4f08aab53d1754f24e01355a0fe9416967b7f96bbfe74de68cdbf6537352884f4d0aa8b73f1556f04c0f3b5401e74f6769b9f765b1e943e882d5f3910f9f27948f2df098cfd4f9042a7208f073d9573c0f9dad3d06495cf4c2b",
        "hex": "6a2070a20593fa94bdd976db75791d84af2fdba236418790e5e015bb0c5d2f1114654db0047335c09ef476f61b1ff6db9e14be08addf05575548e494b0caeb1391350f64a05315e0bed456d63b3fd6fbbe349e288dff25777568c4b490eacb33b1152f4480337580deb436b65b5fb69bde54fe48ed9f45171508a4d4f08aab53d1754f24e01355a0fe9416967b7f96bbfe74de68cdbf6537352884f4d0aa8b73f1556f04c0f3b5401e74f6769b9f765b1e943e882d5f85d7d5c86414304a6b9311b58fe420d395603e54d656bbbf567b3eb41ea80d7fa5f7f5e84434106a4bb33195afc400b3f5005e34b636dbdf361b5ed47ec86d1fc59795882454700a2bd351f5cfa46093d5207e149616fbff163b7ef45ee84d3fe5b7b5a80474502a0bf371d5ef84407335c09ef476f61b1ff6db9e14be08addf05575548e494b0caeb1391350f64a05315e0bed456d63b3fd6fbbe349e288dff25777568c4b490eacb33b1152f4480337580deb436b65b5fb69bde54fe48ed9f45171508a4d4f08aab53d1754f24e01355a0fe9416967b7f96bbfe74de68cdbf6537352884f4d0aa8b73f1556f04c0f3b5401e74f6769b9f765b1e943e882d5f85d7d5c86414304a6b9311b58fe420d395603e54d656bbbf567b3eb41ea80d7fa5f7f5e84434106a4bb33195afc400b3f5005e34b636dbdf361b5ed47ec86d1fc59795882454700a2bd351f5cfa46093d5207e149616fbff163b7ef45ee84d3fe5b7b5a80474502a0bf371d5ef84407335c09ef476f61b1ff6db9e14be08addf05575548e494b0caeb1391350f64a05315e0bed456d63b3fd6fbbe349e288dff25777568c4b490eacb33b1152f4480337580deb436b65b5fb69bde54fe48ed9f45171508a4d4f08aab53d1754f24e01355a0fe9416967b7f96bbfe74de68cdbf6537352884f4d0aa8b73f1556f04c0f3b5401e74f6769b9f765b1e943e882d5f85d7d5c86414304a6b9311b58fe420d395603e54d656bbbf567b3eb41ea80d7fa5f7f5e84434106a4bb33195afc400b3f5005e34b636dbdf361b5ed47ec86d1fc59795882454700a2bd351f5cfa46093d5207e149616fbff163b7ef45ee84d3fe5b7b5a80474502a0bf371d5ef84407335c09ef476f61b1ff6db9e14be08addf05575548e494b0caeb1391350f64a05315e0bed456d63b3fd6fbbe349e288dff25777568c4b490eacb33b1152f4480337580deb436b65b5fb69bde54fe48ed9f45171508a4d4f08aab53d1754f24e01355a0fe9416967b7f96bbfe74de68cdbf6537352884f4d0aa8b73f1556f04c0f3b5401e74f6769b9f765b1e943e882d5f85d7d5c86414304a6b9311b58fe420d395603e54d656bbbf567b3eb41ea80d7fa5f7f5e84434106a4bb33195afc400b3f5005e34b636dbdf361b5ed47ec86d1fc59795882454700a2bd351f5cfa46093d5207e149616fbff163b7ef45ee84d3fe5b7b5a80474502a0bf371d5ef84407335c09ef476f61b1ff6db9e14be08addf05575548e494b0caeb1391350f64a05315e0bed456d63b3fd6fbbe349e288dff25777568c4b490eacb33b1152f4480337580deb436b65b5fb69bde54fe48ed9f45171508a4d4f08aab53d1754f24e01355a0fe9416967b7f96bbfe74de68cdbf6537352884f4d0aa8b73f1556f04c0f3b5401e74f6769b9f765b1e943e882d5f3910f9f27948f2df098cfd4f9042a7208f073d9573c0f9dad3d06495cf4c2b",
        "type": "nulldata"
      }
    }
  ],
  "blockhash": "3357cb4dc001b5acbac31fcce3a77df76b11eaba9a4d126a2528d529fe11213e",
  "confirmations": 1,
  "time": 1764182290,
  "blocktime": 1764182290
}