{
  "hex": "0100000000010168de86ed80f6df5529fe3e8258a5f2c6e581c1c58400f4203329922b74f9b9ab0100000000feffffff0200e1f50500000000fdd5046a20eaf8f03eabb75c2ecf478bd88e07c65a991d57a351b90b3362bfd1bcd012202a4db004f7e9e03801bfb043dba8a230ae900b22c06320117338d5bbc977dd0baa1449c8d7c9c018219f9063fb8882108eb02b02e04300315318f59be957fd2b8a3469e8b7a9a07841fff0039be8e270eed04b6280236051337895fb89379d4bea5409889789805861dfd023bbc8c250cef06b42a00340711358b5dba917bd6bca7429a8776960b8813f30c35b2822b02e108ba240e3a091f3b8553b49f75d8b2a94c94857494098a11f10e37b0802900e30ab8260c380b1d398751b69d77dab0ab4e968372920f8c17f70831b6862f06e50cbe200a3e0d1b3f8157b09b71dcb6ad48908170900d8e15f50a33b4842d04e70ebc22083c0f193d8355b29973deb4af4a928f7e9e03801bfb043dba8a230ae900b22c06320117338d5bbc977dd0baa1449c8d7c9c018219f9063fb8882108eb02b02e04300315318f59be957fd2b8a3469e8b7a9a07841fff0039be8e270eed04b6280236051337895fb89379d4bea5409889789805861dfd023bbc8c250cef06b42a00340711358b5dba917bd6bca7429a8776960b8813f30c35b2822b02e108ba240e3a091f3b8553b49f75d8b2a94c94857494098a11f10e37b0802900e30ab8260c380b1d398751b69d77dab0ab4e968372920f8c17f70831b6862f06e50cbe200a3e0d1b3f8157b09b71dcb6ad48908170900d8e15f50a33b4842d04e70ebc22083c0f193d8355b29973deb4af4a928f7e9e03801bfb043dba8a230ae900b22c06320117338d5bbc977dd0baa1449c8d7c9c018219f9063fb8882108eb02b02e04300315318f59be957fd2b8a3469e8b7a9a07841fff0039be8e270eed04b6280236051337895fb89379d4bea5409889789805861dfd023bbc8c250cef06b42a00340711358b5dba917bd6bca7429a8776960b8813f30c35b2822b02e108ba240e3a091f3b8553b49f75d8b2a94c94857494098a11f10e37b0802900e30ab8260c380b1d398751b69d77dab0ab4e968372920f8c17f70831b6862f06e50cbe200a3e0d1b3f8157b09b71dcb6ad48908170900d8e15f50a33b4842d04e70ebc22083c0f193d8355b29973deb4af4a928f7e9e03801bfb043dba8a230ae900b22c06320117338d5bbc977dd0baa1449c8d7c9c018219f9063fb8882108eb02b02e04300315318f59be957fd2b8a3469e8b7a9a07841fff0039be8e270eed04b6280236051337895fb89379d4bea5409889789805861dfd023bbc8c250cef06b42a00340711358b5dba917bd6bca7429a8776960b8813f30c35b2822b02e108ba240e3a091f3b8553b49f75d8b2a94c94857494098a11f10e37b0802900e30ab8260c380b1d398751b69d77dab0ab4e968372920f8c17f70831b6862f06e50cbe200a3e0d1b3f8157b09b71dcb6ad48908170900d8e15f50a33b4842d04e70ebc22083c0f193d8355b29973deb4af4a928f7e9e03801bfb043dba8a230ae900b22c06320117338d5bbc977dd0baa1449c8d7c9c018219f9063fb8882108eb02b02e04300315318f59be957fd2b8a3469e8b7a9a07841fff0039be8e270eed04b6280236051337895fb89379d4bea5409889789805861dfd023bbc8c250cef06b42a00340711358b5dba917bd6bca7429a8776960b8813f30c35b2822b02e108ba25a16ae5456ad41b7974080c52a5e8c7dc1bcbbdc29b63033b980832a367e426510cdd4fc782d000022512004f84892b0b8bd07828061451277964df236f55715a60e47dbb97a034d1c60db02fd7509f4077838d0fb2cb962cc626cdda917ee7fb4d6885799a5d698dd7ce6dac7bd3c6fd232a9f0604a5bf81d4ad559895b827647560646bf91c5cf8b973d1538c8e13953c8841b7da7773e50e15c9b00e785d0392f58c936244b7507dc56e8338e20b57ac43c050bfed43bb9a87c87057546478bc0d62b9da8bfbb2c085c881db4b99fee372a23474ab067b3ae5871558bd78933448ce5b0ad0b2ceaa10e98479490233298db6191ce512f677dcd96b5c8b8e738acc2ea35074878f398b7a4d7657c8da6e200f5b3813727578fd3977b177ff8cd410310cdab93b7cdae997a2905788b284092014521c6b47e78b10158e4c528a87d5f8700883ba0e95f1aab5b1d477384deaab7c1aad237b7ff6bc8e598b120c0b39ab00907f73cdd8c9986c7dd75245f4500b4b5a54657ab0504321243b76e439f2238034c3e6e5f6161e3ab596281dfee4a17e041efbb3bf926b2133c88fa0ff6306ec358de7ac77ccfc405b8eb0c739a13c48d9d4ed4cfcdbc944aea081fd516c380fbbd8536333f11164729350bec1fa3bbd35b6e90c693ba15180cd9cb8bebbd4428957e7cf2c6eadf5ab0ca0273348eea982d85d2ec5ac207e6e740626c54ce31d9f1d0032ae2d4b52095c82a3e1980db7d9031a6b2f67d3e3803b049359949dfb14528641f5d67876b07e843e320e42ebf102161bb0b3548ad2dd0b50daf682f06322c6e88011b1a03be9a6ade8df383a0e9ab9df1821a5b011524dac3c5ecb13e99173910a25d4b942ae42f17768aae7cd44557a688eb248d99deac1922f55aefab25f037bd172ba88db663a1035e91a351691db28ccdfdad887efa55f4d828b7a5524d8204a730d6fceffcf23ec0bfb061b142659d61bde54fa2287f2c33a51805af72f50305d25bb119789f29bfe7ef2eaa8200f2d57ec66783906c992691738c1dc38d089e646c8b025e3794cda99961fc35acdec83c24ca621d5aaf1949b4f22c35b1c32eef064114c66549ba2a86e219a38a1065b27d9b8dee84076e1dfb65f3d911a24b8b92afd7bef3f206227415eb13b96e00cb4276d4bb486b06a94d0a69e731a071ecae57da9b1fb1d5b6bb9a3c9d08c8c2a7e8d4a35c68dcf59bd2bf9901efd91c449deff6e5080ec723a093ca09fd7b3795238119242d62cad70ecdcde5b6dd0da2473d10ef7f4979d772c96629f304af9acf69a934f750e38f21a1196ae4249f46e3804fa6ff26c1379565f8d395828710118d400a9de42ab4324ee66777f01cd859aa85c2d80b36b15a61914e3216048a45a3fc5c602d08b83fda1102cf924dbedf0da955663a0444abe46d43a8aa1cf978003154f935ab6604588263e029d7ddf8b262ce9d0d41ae7a7ebb82be162e51b31a97de5707bd526e8b975eb60c814ca3c49f7456a6b36cbb89b5a37c95d44f5c168d14dae985f3fa9f4a7bdf5179bdd515aaa8f7ba7995f322067efe3fd7ecc0ac544fa0c757c5d8d45ba285e87a22521e3c0b8cbed15628912c2512872ac700409222676313e4191e27314a695cc6ab55b8261127dd9947b4e4c0ce3a61c8f757bfdd8a60099b9230292a93c1cd9019fbca210ac5670ebf8607f678bd6f8c9873b8dad8ba1a713349cd1bf0ea04f5d8694c63558eb1b30612c2cd167937c570857c0e0869a0fe1e3cf64d4a72e0004eafd476ef953d527c7adafe540601ce144cde385d3803be7ad3e9db4e5f656f678a5584406ef957cf909dcaded0462ec939ab1a97725fa89d728c7ef323fcef7a945f766ab3aaf035ed7c4e590a18f1440e3798f853ee030887d35017e0400efdc42388b00c507129e23c0dd376476eda51e723ea9f1a4feebee78916f40ca064323d671e7daa150e86122ddb6e55a574e748ddf7b2bf848dd866318c2635645555fbd5299c43a524df4c92612c8b34d7bd7c1b62578746454f5323f5e7cbbae698bc371e507b36caf07669a4f53adeb38633326a5b72140e5e4cd98827ac84f9921a1dff35c32430ef7fd16f520c43437b21634bc2c26aea42a833c02822e1aa7f68c0430edd7ffb20b8fe25258fdf3dadd1243656ce5a6c69450d7c73831a199ec8b242ea48f8b1b6a2713c0df9e597d9add6cdd3fabcb4ee5449625ed67421ed31725ff825792c05f6571301f673f36ea80065fd82c388e7bb16134bad2caf422ce2b871b9537172137aba76d297949893d5a3332917b405f8cd6cc369dbcd5b92c3427164f0da95953ada754cf79bbb1363dab78bfe583066bf96c159f21389c379c692d131f13b7306f495bce2a68b1d393b8adb8e75bbb792854b820eb56e6c9ff67b657d22a3f8c42b5b11eb65007432c8e6d10a9e8ed4676562c0ac8c266a3d654af7960bc92f4b4d153c76c42c40b4980cb02698ba436df95983b5f397b14962bf31d7d4b74f630d5960a1bcefadc19b0c30fbec9e18a99b427cd0ac7a4a665a2e6b2672f3f3b9c3595ab2cdcae3958f42cfd5bc729a752b58d3d267e595b8f09429696c14aaffe2c27b4401f8a1f8ceaaf18f3125f543f0c3b54d73e49758ef516c3a26b399cb025ba54eb449324a67a73cb86a11eef5484c4d1773c8afacfae44c2da5927bdf3bc4e01241ee02f9188c6ac4e77c052522baf5bdfb7f4e32e5fb0bf128dda200b342c03b029db52995dd8f065f33952e962769ef38e31dce36f7facc494fb82ab66d203ec599491fe970659718e5a7412c037a011a3a90ef915462ef78db8d2ccc1d1b6e3b7a986e57d95f8e4f1befd1efe3ccb4024787a37866fe5162fe752674aa9e2f2142219bfa17e95e665423a384e9c7ed346004d579f4ff8c3eb7cdda780507d2423695a5c532f0d59b4528db4612e52b9eed1a7ab9b20381204572f374f609b5fb1ea2f764964326b35c6ffaca7be95afb57aa24b70218079253cbf46f301b8ed517cf718a0c5cc50233aa3e01a5b9d2a8813ac886ced678f757efee2b32ffd10179bec7faa4e43947deb304281ad02fb062f2836ea15f0ea781e4f97d738fc4a35cb2c2499213520528013f0275139083b95fd82f1ed661e9b3da8dff723bed2e816c5c4fd3fc81061868124c40b93b98db8c7b64290614dabbc3f1af174bc4d606f0eaa5dbcb1eff4f26b95f9e58d4f0fdc1d279072b0da6dd776efb6ade37b7338d623c69e88be176a0b95088ae818315dda58d9ff1128f18eac8ec49a1c82c07ff34732d2553671ac009da3fb06cdd5f16bd114efe8868451b706a894e856cbfa305700589445268cd3e37d2f85ed017ddb6577674a78ff9815c8bc1dad035b91526a3e41f376699ca9b0694b333714b5025262c2d3036383e495472737486accbdddee80c1820252f4a5d676d74afb0b5b7cbd1030616253b414f5d5f6a8aa1c0cce6f6f70104070b0f1b283e4f515b6873aabec2dc00000000000000000000001323344501fd210500bbc8f9d72d9b01e5113806f46e4d972ce78e5cd4787c7782b1f64d0fefe5ab793e78143b5f642026d4600463c8ed339a1369581d660789370ef46d5b7899e624d9b50586871a227192811268406f94b1e5707f33153503405ac9d58cf1aab499333a121aad38d019b27257aa32a7bf8c086ba559d139b03bb46b81c0fa53aaebf2d50a99a93062ffac7222ff0c0e0e393acb9f9e5a38a75b8eb040d969b23c83aa3d405125de9c0d1cd438fda511389346cd323eca43124d404f4a66630ed409236e492798941d6c421b1e35bee174224548d836e1172cf0ca0a5174b9316fc21b7faff543d4f826113e97cb8802db89e1a7361c692a2b0355f02a818c508d7a1a082d7ecc615453ecab8d6c2fae401071f696fbd11369b6438aec45bd3da818cf6b4129d4323f83943556874e52a57076bd83376fe3db1bb3bc523756c835d701047f90b4bcfb8087c42279a89e69f82a5e944caea6c5c5b2fa93fa8306d6f82c06a2a0978e49ed8d04076cdee6647f0bfe20876ef8554837aa20413bdf92989852a6d14c3af0ae869c0af3e9c67eaf63662a9b130ff10f5c19801dbab84a95cfb459ef6bfe54242f4ab34522622b912ad96e77b74b888a2dd2e6d5354e3788120d3aed71270e6b18d45f9da6138f9b6ced470f36b00555d0d93a1d26ec2a64b8f77508de856794fd1ef9317edb98d505285530729f44ce122438ca316206517c4872e5ae5666fe726781b058f68d75d94ba7233625c52e393b48797798c81f7348c0d61d77818bd0e8082c9bdf86b453de3ccaed34ffb7bb13cdb76d3e5426a8b2cb79b3d0fc3d51056b72130f8e2f5d95d7638670e822ae0347ad164f0433297e58822009b1241c764d58abd6edf1af0e2eb76aad8b30c2c91e12310996fab7595b01a5f0043c3a2752314ac1bb640dd425f29d066707e7afbd7aac08b4b1cb5a295f951bb37c3cfca39c7ffdbc748b9764886c58cf2a136dd9cd5404a7d8f50a7f867d908e1f1534956aee9f3435e0479f4855e885f6ee405903ea8cb3ac083e6b7b8ceaea15005adb5ac215de8cd7f8a6b7b24ae81bc90317a13315f44ea1d443f0b25748ba9e7e02b837f1a932cc32b107679bf99ac252e44b35781303725bc403a7f3ae89ebb9c74042f960590dfb50521415a7f6d697dae94ed24560d31dcf3f5fa4b7ad207d895753e0952d840ab38273f044d5d16ddf4c6a0e810f8c7e2b3e2ccffdca9ab0033e53418db277aa003686d78d6f48b54e96ca881372af024fd9676c605492bcdbef1b5beabd363a01f6fb671394b6cf67ce0f009f9635112edd9e35f4e95478704fefdfa516a0a73f93eb213487eb31e5f8ce397a2abd82981b5dd7f6676297d92ad546e9807c2d1a2f08f971284dc2bd62e7a3933718c6db52335ac1da4044752b93c0f8830483396a7cc1d50441fed504e48362385e206caddf621fdfaedbef4704ce2a1fd80b75025b44781bb1a57fa477ee803bda9c441240b032cb9e8c909dab4b9286c16490ad07fb01aa1b671c6d209173f797f975fcd622704bf08a1df7a8a5c638145e23656fb3a49b1ed489d335fea3679a62cd9836bb0502854fbc7853754a133d849a6cf3a527bf8421367c2fbbaed7f7d9387a73a0709bf6d76239c2274fa80cf2462e9d253b8aa5b5e2f6646db195871b28b0b1f25ba175cafe48dacb8ff0c8eaed794a436cc41f04673c25e7a87c89cd99ca96db189539ae1e7b70ee48dd347140595e8fbb738b54229e44d558b16adf674646ed824313fee4da22c6eeeff6dd24de6dcdaf6dcd5ed25fbfe67ec999dcf5cf442be955c65406a5b82c6febc54d15f02da3a63d2bce5aefef3c554570000000",
  "txid": "9d48491400f0804d7188339cf6e287e6da6e83bacd6d01cbd0d93ae5abdb7517",
  "hash": "4a7578bf2972d6c5d275f74f75d580be2e661f87855cf959aba29823d1e09b17",
  "size": 5085,
  "vsize": 2278,
  "version": 1,
  "locktime": 112,
  "vin": [
    {
      "txid": "abb9f9742b92293320f40084c5c181e5c6f2a558823efe2955dff680ed86de68",
      "vout": 1,
      "scriptSig": {
        "asm": "",
        "hex": ""
      },
      "txinwitness": [
        "f4077838d0fb2cb962cc626cdda917ee7fb4d6885799a5d698dd7ce6dac7bd3c6fd232a9f0604a5bf81d4ad559895b827647560646bf91c5cf8b973d1538c8e13953c8841b7da7773e50e15c9b00e785d0392f58c936244b7507dc56e8338e20b57ac43c050bfed43bb9a87c87057546478bc0d62b9da8bfbb2c085c881db4b99fee372a23474ab067b3ae5871558bd78933448ce5b0ad0b2ceaa10e98479490233298db6191ce512f677dcd96b5c8b8e738acc2ea35074878f398b7a4d7657c8da6e200f5b3813727578fd3977b177ff8cd410310cdab93b7cdae997a2905788b284092014521c6b47e78b10158e4c528a87d5f8700883ba0e95f1aab5b1d477384deaab7c1aad237b7ff6bc8e598b120c0b39ab00907f73cdd8c9986c7dd75245f4500b4b5a54657ab0504321243b76e439f2238034c3e6e5f6161e3ab596281dfee4a17e041efbb3bf926b2133c88fa0ff6306ec358de7ac77ccfc405b8eb0c739a13c48d9d4ed4cfcdbc944aea081fd516c380fbbd8536333f11164729350bec1fa3bbd35b6e90c693ba15180cd9cb8bebbd4428957e7cf2c6eadf5ab0ca0273348eea982d85d2ec5ac207e6e740626c54ce31d9f1d0032ae2d4b52095c82a3e1980db7d9031a6b2f67d3e3803b049359949dfb14528641f5d67876b07e843e320e42ebf102161bb0b3548ad2dd0b50daf682f06322c6e88011b1a03be9a6ade8df383a0e9ab9df1821a5b011524dac3c5ecb13e99173910a25d4b942ae42f17768aae7cd44557a688eb248d99deac1922f55aefab25f037bd172ba88db663a1035e91a351691db28ccdfdad887efa55f4d828b7a5524d8204a730d6fceffcf23ec0bfb061b142659d61bde54fa2287f2c33a51805af72f50305d25bb119789f29bfe7ef2eaa8200f2d57ec66783906c992691738c1dc38d089e646c8b025e3794cda99961fc35acdec83c24ca621d5aaf1949b4f22c35b1c32eef064114c66549ba2a86e219a38a1065b27d9b8dee84076e1dfb65f3d911a24b8b92afd7bef3f206227415eb13b96e00cb4276d4bb486b06a94d0a69e731a071ecae57da9b1fb1d5b6bb9a3c9d08c8c2a7e8d4a35c68dcf59bd2bf9901efd91c449deff6e5080ec723a093ca09fd7b3795238119242d62cad70ecdcde5b6dd0da2473d10ef7f4979d772c96629f304af9acf69a934f750e38f21a1196ae4249f46e3804fa6ff26c1379565f8d395828710118d400a9de42ab4324ee66777f01cd859aa85c2d80b36b15a61914e3216048a45a3fc5c602d08b83fda1102cf924dbedf0da955663a0444abe46d43a8aa1cf978003154f935ab6604588263e029d7ddf8b262ce9d0d41ae7a7ebb82be162e51b31a97de5707bd526e8b975eb60c814ca3c49f7456a6b36cbb89b5a37c95d44f5c168d14dae985f3fa9f4a7bdf5179bdd515aaa8f7ba7995f322067efe3fd7ecc0ac544fa0c757c5d8d45ba285e87a22521e3c0b8cbed15628912c2512872ac700409222676313e4191e27314a695cc6ab55b8261127dd9947b4e4c0ce3a61c8f757bfdd8a60099b9230292a93c1cd9019fbca210ac5670ebf8607f678bd6f8c9873b8dad8ba1a713349cd1bf0ea04f5d8694c63558eb1b30612c2cd167937c570857c0e0869a0fe1e3cf64d4a72e0004eafd476ef953d527c7adafe540601ce144cde385d3803be7ad3e9db4e5f656f678a5584406ef957cf909dcaded0462ec939ab1a97725fa89d728c7ef323fcef7a945f766ab3aaf035ed7c4e590a18f1440e3798f853ee030887d35017e0400efdc42388b00c507129e23c0dd376476eda51e723ea9f1a4feebee78916f40ca064323d671e7daa150e86122ddb6e55a574e748ddf7b2bf848dd866318c2635645555fbd5299c43a524df4c92612c8b34d7bd7c1b62578746454f5323f5e7cbbae698bc371e507b36caf07669a4f53adeb38633326a5b72140e5e4cd98827ac84f9921a1dff35c32430ef7fd16f520c43437b21634bc2c26aea42a833c02822e1aa7f68c0430edd7ffb20b8fe25258fdf3dadd1243656ce5a6c69450d7c73831a199ec8b242ea48f8b1b6a2713c0df9e597d9add6cdd3fabcb4ee5449625ed67421ed31725ff825792c05f6571301f673f36ea80065fd82c388e7bb16134bad2caf422ce2b871b9537172137aba76d297949893d5a3332917b405f8cd6cc369dbcd5b92c3427164f0da95953ada754cf79bbb1363dab78bfe583066bf96c159f21389c379c692d131f13b7306f495bce2a68b1d393b8adb8e75bbb792854b820eb56e6c9ff67b657d22a3f8c42b5b11eb65007432c8e6d10a9e8ed4676562c0ac8c266a3d654af7960bc92f4b4d153c76c42c40b4980cb02698ba436df95983b5f397b14962bf31d7d4b74f630d5960a1bcefadc19b0c30fbec9e18a99b427cd0ac7a4a665a2e6b2672f3f3b9c3595ab2cdcae3958f42cfd5bc729a752b58d3d267e595b8f09429696c14aaffe2c27b4401f8a1f8ceaaf18f3125f543f0c3b54d73e49758ef516c3a26b399cb025ba54eb449324a67a73cb86a11eef5484c4d1773c8afacfae44c2da5927bdf3bc4e01241ee02f9188c6ac4e77c052522baf5bdfb7f4e32e5fb0bf128dda200b342c03b029db52995dd8f065f33952e962769ef38e31dce36f7facc494fb82ab66d203ec599491fe970659718e5a7412c037a011a3a90ef915462ef78db8d2ccc1d1b6e3b7a986e57d95f8e4f1befd1efe3ccb4024787a37866fe5162fe752674aa9e2f2142219bfa17e95e665423a384e9c7ed346004d579f4ff8c3eb7cdda780507d2423695a5c532f0d59b4528db4612e52b9eed1a7ab9b20381204572f374f609b5fb1ea2f764964326b35c6ffaca7be95afb57aa24b70218079253cbf46f301b8ed517cf718a0c5cc50233aa3e01a5b9d2a8813ac886ced678f757efee2b32ffd10179bec7faa4e43947deb304281ad02fb062f2836ea15f0ea781e4f97d738fc4a35cb2c2499213520528013f0275139083b95fd82f1ed661e9b3da8dff723bed2e816c5c4fd3fc81061868124c40b93b98db8c7b64290614dabbc3f1af174bc4d606f0eaa5dbcb1eff4f26b95f9e58d4f0fdc1d279072b0da6dd776efb6ade37b7338d623c69e88be176a0b95088ae818315dda58d9ff1128f18eac8ec49a1c82c07ff34732d2553671ac009da3fb06cdd5f16bd114efe8868451b706a894e856cbfa305700589445268cd3e37d2f85ed017ddb6577674a78ff9815c8bc1dad035b91526a3e41f376699ca9b0694b333714b5025262c2d3036383e495472737486accbdddee80c1820252f4a5d676d74afb0b5b7cbd1030616253b414f5d5f6a8aa1c0cce6f6f70104070b0f1b283e4f515b6873aabec2dc00000000000000000000001323344501",
        "00bbc8f9d72d9b01e5113806f46e4d972ce78e5cd4787c7782b1f64d0fefe5ab793e78143b5f642026d4600463c8ed339a1369581d660789370ef46d5b7899e624d9b50586871a227192811268406f94b1e5707f33153503405ac9d58cf1aab499333a121aad38d019b27257aa32a7bf8c086ba559d139b03bb46b81c0fa53aaebf2d50a99a93062ffac7222ff0c0e0e393acb9f9e5a38a75b8eb040d969b23c83aa3d405125de9c0d1cd438fda511389346cd323eca43124d404f4a66630ed409236e492798941d6c421b1e35bee174224548d836e1172cf0ca0a5174b9316fc21b7faff543d4f826113e97cb8802db89e1a7361c692a2b0355f02a818c508d7a1a082d7ecc615453ecab8d6c2fae401071f696fbd11369b6438aec45bd3da818cf6b4129d4323f83943556874e52a57076bd83376fe3db1bb3bc523756c835d701047f90b4bcfb8087c42279a89e69f82a5e944caea6c5c5b2fa93fa8306d6f82c06a2a0978e49ed8d04076cdee6647f0bfe20876ef8554837aa20413bdf92989852a6d14c3af0ae869c0af3e9c67eaf63662a9b130ff10f5c19801dbab84a95cfb459ef6bfe54242f4ab34522622b912ad96e77b74b888a2dd2e6d5354e3788120d3aed71270e6b18d45f9da6138f9b6ced470f36b00555d0d93a1d26ec2a64b8f77508de856794fd1ef9317edb98d505285530729f44ce122438ca316206517c4872e5ae5666fe726781b058f68d75d94ba7233625c52e393b48797798c81f7348c0d61d77818bd0e8082c9bdf86b453de3ccaed34ffb7bb13cdb76d3e5426a8b2cb79b3d0fc3d51056b72130f8e2f5d95d7638670e822ae0347ad164f0433297e58822009b1241c764d58abd6edf1af0e2eb76aad8b30c2c91e12310996fab7595b01a5f0043c3a2752314ac1bb640dd425f29d066707e7afbd7aac08b4b1cb5a295f951bb37c3cfca39c7ffdbc748b9764886c58cf2a136dd9cd5404a7d8f50a7f867d908e1f1534956aee9f3435e0479f4855e885f6ee405903ea8cb3ac083e6b7b8ceaea15005adb5ac215de8cd7f8a6b7b24ae81bc90317a13315f44ea1d443f0b25748ba9e7e02b837f1a932cc32b107679bf99ac252e44b35781303725bc403a7f3ae89ebb9c74042f960590dfb50521415a7f6d697dae94ed24560d31dcf3f5fa4b7ad207d895753e0952d840ab38273f044d5d16ddf4c6a0e810f8c7e2b3e2ccffdca9ab0033e53418db277aa003686d78d6f48b54e96ca881372af024fd9676c605492bcdbef1b5beabd363a01f6fb671394b6cf67ce0f009f9635112edd9e35f4e95478704fefdfa516a0a73f93eb213487eb31e5f8ce397a2abd82981b5dd7f6676297d92ad546e9807c2d1a2f08f971284dc2bd62e7a3933718c6db52335ac1da4044752b93c0f8830483396a7cc1d50441fed504e48362385e206caddf621fdfaedbef4704ce2a1fd80b75025b44781bb1a57fa477ee803bda9c441240b032cb9e8c909dab4b9286c16490ad07fb01aa1b671c6d209173f797f975fcd622704bf08a1df7a8a5c638145e23656fb3a49b1ed489d335fea3679a62cd9836bb0502854fbc7853754a133d849a6cf3a527bf8421367c2fbbaed7f7d9387a73a0709bf6d76239c2274fa80cf2462e9d253b8aa5b5e2f6646db195871b28b0b1f25ba175cafe48dacb8ff0c8eaed794a436cc41f04673c25e7a87c89cd99ca96db189539ae1e7b70ee48dd347140595e8fbb738b54229e44d558b16adf674646ed824313fee4da22c6eeeff6dd24de6dcdaf6dcd5ed25fbfe67ec999dcf5cf442be955c65406a5b82c6febc54d15f02da3a63d2bce5aefef3c5545"
      ],
      "sequence": 4294967294
    }
  ],
  "vout": [
    {
      "value": 1.0,
      "n": 0,
      "scriptPubKey": {
        "asm": "OP_RETURN eaf8f03eabb75c2ecf478bd88e07c65a991d57a351b90b3362bfd1bcd012202a f7e9e03801bfb043dba8a230ae900b22c06320117338d5bbc977dd0baa1449c8d7c9c018219f9063fb8882108eb02b02e04300315318f59be957fd2b8a3469e8b7a9a07841fff0039be8e270eed04b6280236051337895fb89379d4bea5409889789805861dfd023bbc8c250cef06b42a00340711358b5dba917bd6bca7429a8776960b8813f30c35b2822b02e108ba240e3a091f3b8553b49f75d8b2a94c94857494098a11f10e37b0802900e30ab8260c380b1d398751b69d77dab0ab4e968372920f8c17f70831b6862f06e50cbe200a3e0d1b3f8157b09b71dcb6ad48908170900d8e15f50a33b4842d04e70ebc22083c0f193d8355b29973deb4af4a928f7e9e03801bfb043dba8a230ae900b22c06320117338d5bbc977dd0baa1449c8d7c9c018219f9063fb8882108eb02b02e04300315318f59be957fd2b8a3469e8b7a9a07841fff0039be8e270eed04b6280236051337895fb89379d4bea5409889789805861dfd023bbc8c250cef06b42a00340711358b5dba917bd6bca7429a8776960b8813f30c35b2822b02e108ba240e3a091f3b8553b49f75d8b2a94c94857494098a11f10e37b0802900e30ab8260c380b1d398751b69d77dab0ab4e968372920f8c17f70831b6862f06e50cbe200a3e0d1b3f8157b09b71dcb6ad48908170900d8e15f50a33b4842d04e70ebc22083c0f193d8355b29973deb4af4a928f7e9e03801bfb043dba8a230ae900b22c06320117338d5bbc977dd0baa1449c8d7c9c018219f9063fb8882108eb02b02e04300315318f59be957fd2b8a3469e8b7a9a07841fff0039be8e270eed04b6280236051337895fb89379d4bea5409889789805861dfd023bbc8c250cef06b42a00340711358b5dba917bd6bca7429a8776960b8813f30c35b2822b02e108ba240e3a091f3b8553b49f75d8b2a94c94857494098a11f10e37b0802900e30ab8260c380b1d398751b69d77dab0ab4e968372920f8c17f70831b6862f06e50cbe200a3e0d1b3f8157b09b71dcb6ad48908170900d8e15f50a33b4842d04e70ebc22083c0f193d8355b29973deb4af4a928f7e9e03801bfb043dba8a230ae900b22c06320117338d5bbc977dd0baa1449c8d7c9c018219f9063fb8882108eb02b02e04300315318f59be957fd2b8a3469e8b7a9a07841fff0039be8e270eed04b6280236051337895fb89379d4bea5409889789805861dfd023bbc8c250cef06b42a00340711358b5dba917bd6bca7429a8776960b8813f30c35b2822b02e108ba240e3a091f3b8553b49f75d8b2a94c94857494098a11f10e37b0802900e30ab8260c380b1d398751b69d77dab0ab4e968372920f8c17f70831b6862f06e50cbe200a3e0d1b3f8157b09b71dcb6ad48908170900d8e15f50a33b4842d04e70ebc22083c0f193d8355b29973deb4af4a928f7e9e03801bfb043dba8a230ae900b22c06320117338d5bbc977dd0baa1449c8d7c9c018219f9063fb8882108eb02b02e04300315318f59be957fd2b8a3469e8b7a9a07841fff0039be8e270eed04b6280236051337895fb89379d4bea5409889789805861dfd023bbc8c250cef06b42a00340711358b5dba917bd6bca7429a8776960b8813f30c35b2822b02e108ba25a16ae5456ad41b7974080c52a5e8c7dc1bcbbdc29b63033b980832a367e4265",
        "hex": "6a20eaf8f03eabb75c2ecf478bd88e07c65a991d57a351b90b3362bfd1bcd012202a4db004f7e9e03801bfb043dba8a230ae900b22c06320117338d5bbc977dd0baa1449c8d7c9c018219f9063fb8882108eb02b02e04300315318f59be957fd2b8a3469e8b7a9a07841fff0039be8e270eed04b6280236051337895fb89379d4bea5409889789805861dfd023bbc8c250cef06b42a00340711358b5dba917bd6bca7429a8776960b8813f30c35b2822b02e108ba240e3a091f3b8553b49f75d8b2a94c94857494098a11f10e37b0802900e30ab8260c380b1d398751b69d77dab0ab4e968372920f8c17f70831b6862f06e50cbe200a3e0d1b3f8157b09b71dcb6ad48908170900d8e15f50a33b4842d04e70ebc22083c0f193d8355b29973deb4af4a928f7e9e03801bfb043dba8a230ae900b22c06320117338d5bbc977dd0baa1449c8d7c9c018219f9063fb8882108eb02b02e04300315318f59be957fd2b8a3469e8b7a9a07841fff0039be8e270eed04b6280236051337895fb89379d4bea5409889789805861dfd023bbc8c250cef06b42a00340711358b5dba917bd6bca7429a8776960b8813f30c35b2822b02e108ba240e3a091f3b8553b49f75d8b2a94c94857494098a11f10e37b0802900e30ab8260c380b1d398751b69d77dab0ab4e968372920f8c17f70831b6862f06e50cbe200a3e0d1b3f8157b09b71dcb6ad48908170900d8e15f50a33b4842d04e70ebc22083c0f193d8355b29973deb4af4a928f7e9e03801bfb043dba8a230ae900b22c06320117338d5bbc977dd0baa1449c8d7c9c018219f9063fb8882108eb02b02e04300315318f59be957fd2b8a3469e8b7a9a07841fff0039be8e270eed04b6280236051337895fb89379d4bea5409889789805861dfd023bbc8c250cef06b42a00340711358b5dba917bd6bca7429a8776960b8813f30c35b2822b02e108ba240e3a091f3b8553b49f75d8b2a94c94857494098a11f10e37b0802900e30ab8260c380b1d398751b69d77dab0ab4e968372920f8c17f70831b6862f06e50cbe200a3e0d1b3f8157b09b71dcb6ad48908170900d8e15f50a33b4842d04e70ebc22083c0f193d8355b29973deb4af4a928f7e9e03801bfb043dba8a230ae900b22c06320117338d5bbc977dd0baa1449c8d7c9c018219f9063fb8882108eb02b02e04300315318f59be957fd2b8a3469e8b7a9a07841fff0039be8e270eed04b6280236051337895fb89379d4bea5409889789805861dfd023bbc8c250cef06b42a00340711358b5dba917bd6bca7429a8776960b8813f30c35b2822b02e108ba240e3a091f3b8553b49f75d8b2a94c94857494098a11f10e37b0802900e30ab8260c380b1d398751b69d77dab0ab4e968372920f8c17f70831b6862f06e50cbe200a3e0d1b3f8157b09b71dcb6ad48908170900d8e15f50a33b4842d04e70ebc22083c0f193d8355b29973deb4af4a928f7e9e03801bfb043dba8a230ae900b22c06320117338d5bbc977dd0baa1449c8d7c9c018219f9063fb8882108eb02b02e04300315318f59be957fd2b8a3469e8b7a9a07841fff0039be8e270eed04b6280236051337895fb89379d4bea5409889789805861dfd023bbc8c250cef06b42a00340711358b5dba917bd6bca7429a8776960b8813f30c35b2822b02e108ba25a16ae5456ad41b7974080c52a5e8c7dc1bcbbdc29b63033b980832a367e4265",
        "type": "nulldata"
      }
    },
    {
      "value": 499976.6113,
      "n": 1,
      "scriptPubKey": {
        "asm": "1 04f84892b0b8bd07828061451277964df236f55715a60e47dbb97a034d1c60db",
        "hex": "512004f84892b0b8bd07828061451277964df236f55715a60e47dbb97a034d1c60db",
        "reqSigs": 1,
        "type": "witness_v1_scripthash",
        "addresses": [
          "3QJmnh"
        ]
      }
    }
  ],
  "blockhash": "b00c1afcc726d07acf9b884f47bf06130e4cba196c4900690ef7405d42c36beb",
  "confirmations": 1,
  "time": 1764180257,
  "blocktime": 1764180257
}