{
  "hex": "010000000001014ea025e975558f6c4983146235af934196433d7532efa0b65eb1789580ff195c0100000000feffffff0200e1f50500000000fdd5046a206d2d272d97324894511c26459f77bb1f1238edd04d34516b89db6fbcbc7a5f964db0048d4c0b5f5eeb951461566d312d5c2356cd28d491372a5c7c6bd539180b064224ad6c2b7f7ecbb53441764d110d7c0376ed08f4b1170a7c5c4bf519382b266204cd0c4b1f1eabd55421162d716d1c63168d6894d1776a1c3c2b9579584b460264ed2c6b3f3e8bf57401360d514d3c4336ad48b4f1574a3c1c0bb559786b6622440dcc8bdfde6b1594e1d6edb1addca3d64da85411b7aadcfceb55b9988b86c2a42decabfffe4b35b4c1f6cd918dfc83f66d887431978afcdccb7599b8aba6e2844d8ccb9f9e2b55d4a196adf1ed9ce3960de81451f7ea9cbcab15f9d8cbc682e46dacebbfbe0b75f481b68dd1cdbcc3b62dc83471d7cabc9c8b35d9f8ebe6a2c48d4c0b5f5eeb951461566d312d5c2356cd28d491372a5c7c6bd539180b064224ad6c2b7f7ecbb53441764d110d7c0376ed08f4b1170a7c5c4bf519382b266204cd0c4b1f1eabd55421162d716d1c63168d6894d1776a1c3c2b9579584b460264ed2c6b3f3e8bf57401360d514d3c4336ad48b4f1574a3c1c0bb559786b6622440dcc8bdfde6b1594e1d6edb1addca3d64da85411b7aadcfceb55b9988b86c2a42decabfffe4b35b4c1f6cd918dfc83f66d887431978afcdccb7599b8aba6e2844d8ccb9f9e2b55d4a196adf1ed9ce3960de81451f7ea9cbcab15f9d8cbc682e46dacebbfbe0b75f481b68dd1cdbcc3b62dc83471d7cabc9c8b35d9f8ebe6a2c48d4c0b5f5eeb951461566d312d5c2356cd28d491372a5c7c6bd539180b064224ad6c2b7f7ecbb53441764d110d7c0376ed08f4b1170a7c5c4bf519382b266204cd0c4b1f1eabd55421162d716d1c63168d6894d1776a1c3c2b9579584b460264ed2c6b3f3e8bf57401360d514d3c4336ad48b4f1574a3c1c0bb559786b6622440dcc8bdfde6b1594e1d6edb1addca3d64da85411b7aadcfceb55b9988b86c2a42decabfffe4b35b4c1f6cd918dfc83f66d887431978afcdccb7599b8aba6e2844d8ccb9f9e2b55d4a196adf1ed9ce3960de81451f7ea9cbcab15f9d8cbc682e46dacebbfbe0b75f481b68dd1cdbcc3b62dc83471d7cabc9c8b35d9f8ebe6a2c48d4c0b5f5eeb951461566d312d5c2356cd28d491372a5c7c6bd539180b064224ad6c2b7f7ecbb53441764d110d7c0376ed08f4b1170a7c5c4bf519382b266204cd0c4b1f1eabd55421162d716d1c63168d6894d1776a1c3c2b9579584b460264ed2c6b3f3e8bf57401360d514d3c4336ad48b4f1574a3c1c0bb559786b6622440dcc8bdfde6b1594e1d6edb1addca3d64da85411b7aadcfceb55b9988b86c2a42decabfffe4b35b4c1f6cd918dfc83f66d887431978afcdccb7599b8aba6e2844d8ccb9f9e2b55d4a196adf1ed9ce3960de81451f7ea9cbcab15f9d8cbc682e46dacebbfbe0b75f481b68dd1cdbcc3b62dc83471d7cabc9c8b35d9f8ebe6a2c48d4c0b5f5eeb951461566d312d5c2356cd28d491372a5c7c6bd539180b064224ad6c2b7f7ecbb53441764d110d7c0376ed08f4b1170a7c5c4bf519382b266204cd0c4b1f1eabd55421162d716d1c63168d6894d1776a1c3c2b9579584b460264ed2c6b3f3e8bf57401360d514d3c4336ad48b4f1574a3c1c0bb559786b6622440dcc8bdfde6b1594e1d6edb1addca3d6e90ce66505353887df7ed96c2b0db4759b49fa33de4feaa4b3905afd170e1ae2c075fe6f792d0000225120954fe796a2112d848076f70f7b73651cf5fb94063cbf12c1ee4d8f1ed614be8b02fd7509986f5c83f6764e3c863c1ab46188e49d11b2235afa2824f680cfaf1107d1cdf4b46cbb4d89ee1ab60bc38ed46beb5d3a1c9f48d23f3a2955753ab1762e49f78dde3145e1e65c1cf6f46cc5e83d4f84629316aa592e1f4b1fdf32cd3d735c3dcdabffd03c83615dd8a0436b22f65a48c20e1fd35b893fb2952c943c2f9ba6c4cd590d5135a28821bdcfd7d7e69d29035b8625539851f4b9206c982a9b272637d038ec12996ed1e34613c848e2290af4cdb08fa27a1c443ff55bdc2384fe4f2940cd76004c87cea2ba0c8f05e602dd149eae5b2cf2f7feb3c4d2ace91761f99764a4ca7107bbe72cafc265c45f42e521215ac2e4d40f9543efcfd0584f488f9849be79ec5cf0ac7ff936276a4b16dc3aee523155a837d3ac20cfdd76f8d10d14d90593d6a772a06c60443030ffc84363549a60e793abe39fd52192a6cf5ec80449874f306020538f384e57f130d5dee2020fe96ad1653d6ae4728fdbf4c0cd133678683be4e264e8fb48fb12ae8f41d0e247629393df3be0c599b290644e52de240f0575d59309f4341e415a104d1fd1c736acb5253cf2ed3e1f62a535cb485a91bfd3386c0e4f77b3c6bc763c400833a9fb09992cd99fe45a423b3fc58b6a38594ef6e33990529bf31fc14c2ee91c865f7c6f862b93960ebf1a3a2e2b71e3a9d279093125ec853c3785765471dae972f8818485fbdafed57824e8a43e0bac0b8d62efea849746091532d85c57feec719c9b221551ddb8fcb4a737a609a272b12b6bbaef1c97b4a5e77d8d08d08ba12a52f5e7fbae207abf7f64cee2bd7d86657f08d3b72c0672a8cb1dffbb72c739b3e8d87d40d753385c9e0d73cbfab1f5a703badafb6caa94961d6283e6d7942d99d84362e14814c5d7f02da78b2bd77e728b68d487b4ab776326763295da6072f470ec5e38ae572e6a0e77d5a3d9f4627be2b14baddb5e2c925f321ae2f48780a75da56516cda6397c430196e8baeb8c8d9bb4e84677a5e84226e4df492208a492205c322b668347ca1f7bc09db5482882ee4dae96df61f4d33dd878fdb4b3b8ea88d2ec9bb081e786f5d039c773861b47b414fedc4440c741cf3d6fcd4caa0486cbae3170b8f443e51907b87627a67529b8cb3a168b77c1716b0c70965c6d1170e0539e15ee155fa844a46c241c30bd8660a94f8b9f4f761da9fa60e7c180cc9e5415aedf92c7bb233952e13e10b36271342721e4453a52fd4a6ca1ae3854ebfe154392e408b29ff317f52cde83d4ac901a80e868e919a1380175f4978f270fb0dbfec8457952786945c58b2b31870ff3c1d97b08431906218be98fa8e26e951d7c5aca5b88622b5d01e6c7938afaf9ec4de26d60683cd78490171d92009a38bbbe7de13ebf8d6bee3f08a26138a5ed7c8541a180b9fb31d6bd1d2011561458c4d72fa4f8aab20e12ffe732b64cc17d667b4fc7bfaaf425a1afe145c358f4326ac2d3562efb36af73f1427c02c0112f0aef961053336e8732e0aac8b53da91277bee26b77810876656142cbe087bf3638d8b90d7a75e7343696b7218dab21b69dd6388cb024c5081c3b4aa978976dbdf323f639d438fe3de395233a9c087cfaf9b843a0a7cba34c2f6dd2501ad0117e39e3e375adaa30dbe060f6ddfef3b3064f7e3a7dd350a6446b9934041bc03442bb5456c9c96713ec1edb053c89c70b21e431b66935e0227f13392b1a8544805daa53493d3163b07c2644a66f446925f8021b6dda76fe82d2f97113158b39e396d2f2ca88d1106010e25f68b13c412255dbaad99ff18ae305faa41c4dc26b4c9744de181c8eb7cdf4e60d618be03cd8513d80d4b5ec9bbffeb5e1215e225e460149a09a58b4cf3ed7c3b24ceebd70a8c7b2ab2533f0b77547e6a860ae78b8c561eeaf817ac4a718b6b810e13fb10fcffb2e17803e7dad7a92aea88c2f3de5a2e7081e19502250d4b43b494f34476f387bfad5eb249746294a37e8319b13faca4f4324799ca196d93104055f4e160f31bbdc89569f6dbd4efa102b8b4399dbe253fbf0e9876fd8e5e6b9a02695f6d6e1db42f10829f45214f0f430803117c009e39745b3f4145b2bc0ed5aca0212f837d1193ae48387bf7b49c29533eb9f2e5fae1cf4aa3aa064d34ff028c0a0f92d505ac2c841fcbf44755d01f1430d70566ee0500c3dde78da3da40f4495bbedd97558257d2b3a85ba2dc8b2edb366058399adf5c2ab0362394f5588386a5e777eaf9330f69f7403dbf3c1b4917eff756e8b17dd458c1b256202fdd68705bc6769f3ad0dab98ff98e3502a177eb9b74d31ac7406097729cf0a654b6a3b8ae5f6b475925667592eb1c921c3e674661009eaa36d807aa563d58d1a8a933f91f04684c29bedb40f0ef1825955ee522a8d2a4645c226a27ca4bca8f9227107de2ba627083f911180462063907038f62b978b6efc8664f67764f20c5e5357469d6ecd93bd96c324eeab5f29d4475ae7e7b9d4b8490366fbf24092e17e5a647c55f5b9a1abb16ca82c3f4aed8833ea475a6e8a5eab6c3beff258567bb4eea081780a7164e24104fb3fa8382eecfe95af88479e0929ffaeecbe0ac593150c91f1118771caa0b6ef3c6017112cbd95446db16e7e969d10bf3466b337641b7644fc34b4e5b754c0d63411589f5574d03df45a1489c43cc19cc619e403d044f7300cd7ea1bfd243815cbe5e4f41c93750cbdb088d0c4a21019780a26333b81946d899d3f94508c225a2512d3685d73c4d0b5c3caeb300bb795f615df5435c27eb2bc6a81ea0597fa884e6e6fcac8570942fc08ec8e1788614cc6720e05867e0aca8b553948e04086a2997d2bf5d9db41aaf91b66e6f5bfd1934c5730da5c556b69d2573ccca033a5c179539748b82b766add5c03a092d59ea24a5c7db0905a6d241de2ca5e604bb022c33cba6580768cea56ba491188677a90c7aded1f80cc853c10af4cf07245f747f3cad5f9daf06283642cce8e77ce7af756bf4894c3dd367a43394b322d68984d12d4dd7a8fddf337ef05df0ccdbc04dc8bbb92c3015cb086fb86ded81e7fd3365f63e52cff4a36ef85da26d143e4d618b8b80ca20b62c80848ad8328803ce4fe8ba6080dcca474ad3aaddd5dd1ac159c07d71a585da5c2224496f0977b49847efa659969191e7ef1198c8237c374770f8a322b70ad10827cbf28ceed90101b87d706d194e324ad8181da8929309ddf91ba10f53ac152e834bc9ec51f00fa2fecc515da5b0ff115a32190056f9f0d3274b12066219d27c62b4ae260a3f280c99370840945649d484a469baadc95c659d55d13252d2f3f4354646b75abb6bbd0e5e7e9eff915224b4d4f7688acb4bdbeced2eaeff0f210162543447f868d91b1d5e5feff051516364a545c6c8c9ca0a4fc00000000000000000000000000000000001324323f01fd2105006576b11fae954cf3f2ca26f8fb3b1f998a40afc0c1d2ebcebc7b2422e510e48ab8d3a85d35de0b4585e98df8a09364156d714a9b29555283c8322bf301ba1a3be1add6f9dbef0599ba5bb00916ac6f7685b886ca03b6e8bc705c14c42a6ea7e552ce0b91787fbbdc6cbda86f4e4eb851aab7e0656b462a9f222c48d278fea16be90f9d89f83a35c2505f8e3fec3d90a35abdbb4050338fedda2fb11c084f05ffe4a0e28785eed8a1aedd57cd21c7d4cf26c809028d17226986b0ebdd6e6e49359a461178f7c5ce9a82369a44fc0513c3272d5f64939c7778b5fae5067fe31a6b68af45f0994ddaa31f5f0403c63f89cf4e401b31672d05f5f2566e12c9fb16d92cc050b6ff3d793b924b8887a71627e130b2c7a3990f4c392a146cd1daf5b13bbf0319f0195a3f173474a7681e1143e3e0fef3ea139923b86599d627b3eeb5cae11ca4a331a98bf3831c2681724275be259fefdf8686f621851d89a225eebff023733a2031fc2eb5ef0693ff6806ba126e18a9d0f23d443bc30785a814d162dc5ed37af84af7bece87c18ad9f6d688cb0f433c414331cba63cc974a5f92b869e9b351124d8d370111ec3e85127103304b8a2d4e7188bfc2e4e5ed6fca728ac0b3c8fd21c5aab4913d5d34b548640212bb6a27b078b990c7dedbbc2e399264cd996779c36c1b18eddccae7c8b8e04e89f3459597d181985c205dbadd8616969d77b810388f772c8e6741cd976320ee7ffc4063bf0a4e6d0013f2fae339a346086a8a73cc46da3c5f7ab9b3ab29d8017358cb317f7ffd1b71ea85661cfcd0a14ab36f581f8e8933ed58810877c60b88f68edd71b554188e57677a19c208bbba90f8d9e2178fbb99256898a3f60c3ae53896aec56d5654d6e596f198ffdfc9fe733fc164e380b0087915a3978868935360fac309aca3666a402e759db069d8e6f9557ef272eef12b316e63fbeec550f9b4801df02a10caffeab6fc35947de8f49302788c9de8c78e54e12692cd0754737bf7d4bbde425ace0d58052efb7488dd09c6004df63304ada65d18bbd320a13204505e1b45243cea4770921554d78325697669a53ed4ff7301e56ac322bc120159ed7621cfb90ed50fb8971b0fa581f10ad018452ce02e40ea5da55c7d574096fe4ee9c914ddc5476f127b89278106741cf0ce75593820ffc1e2dee5ae99add7b2acc3d634f4bd21c14736264c05578be96dc36660d896a72977ce2b15ac82075f9ee92193c297a7d53f8ab4da26d3722b4143b41baaffdedb5a771e90305e410364ac937b1416e1aad6d29f39a574e7c25bdfaa9cb0edd9de3865e7a7e208d90b7a2272de276a83eb434939668825ad39394e106679ca2fa1bc1aa9177efbf62e955228cf6b03796c5b095016e3c6b767c505035067e272c5d44bd57398dc1b1154968173b4b7a23498276b17359d25b851d151c277bdebaf55992e98f90705d6364c580c7b95e921301e91ff7f7137307425a3e2b6328f0953f8731169c00fb31979f258e096a82d48f4581d1ca84bb807d90ef8ef42e022428a2b8161ba113271f9611fcecfad7941f41eee7d78618570bce133e6fd1e883600f9775a2aad4965f593ac1d82af618f3606242140a67f2ab4be98a5bd7330076999358e91bfe1d9dd64593bcf7263ed9a00602fc2c134ad79c76e60bc3e5020da361e0039b28d7599eddb3d2b761c654d015d918d636e9137ba66b2c43e86651457a5a976b7b90c500c42cb92e8af5e85fa1cf04563fd191109aba42c2962c331effc3377c40661c21d252feeddcc788a3f267ce88d753ee35b6032560088a9f8aaf32a29457df0b42f48e553399927f86ae50da64f89967000000",
  "txid": "95a2d059ffaccca649258730eb4bf198a83b089bbe26c87b1488263971a1702e",
  "hash": "21311e249d0e7e441f71b4705aa7c1ab3ce6b657ebbb6b4b1db3dcdcf626c06f",
  "size": 5085,
  "vsize": 2278,
  "version": 1,
  "locktime": 103,
  "vin": [
    {
      "txid": "5c19ff809578b15eb6a0ef32753d43964193af35621483496c8f5575e925a04e",
      "vout": 1,
      "scriptSig": {
        "asm": "",
        "hex": ""
      },
      "txinwitness": [
        "986f5c83f6764e3c863c1ab46188e49d11b2235afa2824f680cfaf1107d1cdf4b46cbb4d89ee1ab60bc38ed46beb5d3a1c9f48d23f3a2955753ab1762e49f78dde3145e1e65c1cf6f46cc5e83d4f84629316aa592e1f4b1fdf32cd3d735c3dcdabffd03c83615dd8a0436b22f65a48c20e1fd35b893fb2952c943c2f9ba6c4cd590d5135a28821bdcfd7d7e69d29035b8625539851f4b9206c982a9b272637d038ec12996ed1e34613c848e2290af4cdb08fa27a1c443ff55bdc2384fe4f2940cd76004c87cea2ba0c8f05e602dd149eae5b2cf2f7feb3c4d2ace91761f99764a4ca7107bbe72cafc265c45f42e521215ac2e4d40f9543efcfd0584f488f9849be79ec5cf0ac7ff936276a4b16dc3aee523155a837d3ac20cfdd76f8d10d14d90593d6a772a06c60443030ffc84363549a60e793abe39fd52192a6cf5ec80449874f306020538f384e57f130d5dee2020fe96ad1653d6ae4728fdbf4c0cd133678683be4e264e8fb48fb12ae8f41d0e247629393df3be0c599b290644e52de240f0575d59309f4341e415a104d1fd1c736acb5253cf2ed3e1f62a535cb485a91bfd3386c0e4f77b3c6bc763c400833a9fb09992cd99fe45a423b3fc58b6a38594ef6e33990529bf31fc14c2ee91c865f7c6f862b93960ebf1a3a2e2b71e3a9d279093125ec853c3785765471dae972f8818485fbdafed57824e8a43e0bac0b8d62efea849746091532d85c57feec719c9b221551ddb8fcb4a737a609a272b12b6bbaef1c97b4a5e77d8d08d08ba12a52f5e7fbae207abf7f64cee2bd7d86657f08d3b72c0672a8cb1dffbb72c739b3e8d87d40d753385c9e0d73cbfab1f5a703badafb6caa94961d6283e6d7942d99d84362e14814c5d7f02da78b2bd77e728b68d487b4ab776326763295da6072f470ec5e38ae572e6a0e77d5a3d9f4627be2b14baddb5e2c925f321ae2f48780a75da56516cda6397c430196e8baeb8c8d9bb4e84677a5e84226e4df492208a492205c322b668347ca1f7bc09db5482882ee4dae96df61f4d33dd878fdb4b3b8ea88d2ec9bb081e786f5d039c773861b47b414fedc4440c741cf3d6fcd4caa0486cbae3170b8f443e51907b87627a67529b8cb3a168b77c1716b0c70965c6d1170e0539e15ee155fa844a46c241c30bd8660a94f8b9f4f761da9fa60e7c180cc9e5415aedf92c7bb233952e13e10b36271342721e4453a52fd4a6ca1ae3854ebfe154392e408b29ff317f52cde83d4ac901a80e868e919a1380175f4978f270fb0dbfec8457952786945c58b2b31870ff3c1d97b08431906218be98fa8e26e951d7c5aca5b88622b5d01e6c7938afaf9ec4de26d60683cd78490171d92009a38bbbe7de13ebf8d6bee3f08a26138a5ed7c8541a180b9fb31d6bd1d2011561458c4d72fa4f8aab20e12ffe732b64cc17d667b4fc7bfaaf425a1afe145c358f4326ac2d3562efb36af73f1427c02c0112f0aef961053336e8732e0aac8b53da91277bee26b77810876656142cbe087bf3638d8b90d7a75e7343696b7218dab21b69dd6388cb024c5081c3b4aa978976dbdf323f639d438fe3de395233a9c087cfaf9b843a0a7cba34c2f6dd2501ad0117e39e3e375adaa30dbe060f6ddfef3b3064f7e3a7dd350a6446b9934041bc03442bb5456c9c96713ec1edb053c89c70b21e431b66935e0227f13392b1a8544805daa53493d3163b07c2644a66f446925f8021b6dda76fe82d2f97113158b39e396d2f2ca88d1106010e25f68b13c412255dbaad99ff18ae305faa41c4dc26b4c9744de181c8eb7cdf4e60d618be03cd8513d80d4b5ec9bbffeb5e1215e225e460149a09a58b4cf3ed7c3b24ceebd70a8c7b2ab2533f0b77547e6a860ae78b8c561eeaf817ac4a718b6b810e13fb10fcffb2e17803e7dad7a92aea88c2f3de5a2e7081e19502250d4b43b494f34476f387bfad5eb249746294a37e8319b13faca4f4324799ca196d93104055f4e160f31bbdc89569f6dbd4efa102b8b4399dbe253fbf0e9876fd8e5e6b9a02695f6d6e1db42f10829f45214f0f430803117c009e39745b3f4145b2bc0ed5aca0212f837d1193ae48387bf7b49c29533eb9f2e5fae1cf4aa3aa064d34ff028c0a0f92d505ac2c841fcbf44755d01f1430d70566ee0500c3dde78da3da40f4495bbedd97558257d2b3a85ba2dc8b2edb366058399adf5c2ab0362394f5588386a5e777eaf9330f69f7403dbf3c1b4917eff756e8b17dd458c1b256202fdd68705bc6769f3ad0dab98ff98e3502a177eb9b74d31ac7406097729cf0a654b6a3b8ae5f6b475925667592eb1c921c3e674661009eaa36d807aa563d58d1a8a933f91f04684c29bedb40f0ef1825955ee522a8d2a4645c226a27ca4bca8f9227107de2ba627083f911180462063907038f62b978b6efc8664f67764f20c5e5357469d6ecd93bd96c324eeab5f29d4475ae7e7b9d4b8490366fbf24092e17e5a647c55f5b9a1abb16ca82c3f4aed8833ea475a6e8a5eab6c3beff258567bb4eea081780a7164e24104fb3fa8382eecfe95af88479e0929ffaeecbe0ac593150c91f1118771caa0b6ef3c6017112cbd95446db16e7e969d10bf3466b337641b7644fc34b4e5b754c0d63411589f5574d03df45a1489c43cc19cc619e403d044f7300cd7ea1bfd243815cbe5e4f41c93750cbdb088d0c4a21019780a26333b81946d899d3f94508c225a2512d3685d73c4d0b5c3caeb300bb795f615df5435c27eb2bc6a81ea0597fa884e6e6fcac8570942fc08ec8e1788614cc6720e05867e0aca8b553948e04086a2997d2bf5d9db41aaf91b66e6f5bfd1934c5730da5c556b69d2573ccca033a5c179539748b82b766add5c03a092d59ea24a5c7db0905a6d241de2ca5e604bb022c33cba6580768cea56ba491188677a90c7aded1f80cc853c10af4cf07245f747f3cad5f9daf06283642cce8e77ce7af756bf4894c3dd367a43394b322d68984d12d4dd7a8fddf337ef05df0ccdbc04dc8bbb92c3015cb086fb86ded81e7fd3365f63e52cff4a36ef85da26d143e4d618b8b80ca20b62c80848ad8328803ce4fe8ba6080dcca474ad3aaddd5dd1ac159c07d71a585da5c2224496f0977b49847efa659969191e7ef1198c8237c374770f8a322b70ad10827cbf28ceed90101b87d706d194e324ad8181da8929309ddf91ba10f53ac152e834bc9ec51f00fa2fecc515da5b0ff115a32190056f9f0d3274b12066219d27c62b4ae260a3f280c99370840945649d484a469baadc95c659d55d13252d2f3f4354646b75abb6bbd0e5e7e9eff915224b4d4f7688acb4bdbeced2eaeff0f210162543447f868d91b1d5e5feff051516364a545c6c8c9ca0a4fc00000000000000000000000000000000001324323f01",
        "006576b11fae954cf3f2ca26f8fb3b1f998a40afc0c1d2ebcebc7b2422e510e48ab8d3a85d35de0b4585e98df8a09364156d714a9b29555283c8322bf301ba1a3be1add6f9dbef0599ba5bb00916ac6f7685b886ca03b6e8bc705c14c42a6ea7e552ce0b91787fbbdc6cbda86f4e4eb851aab7e0656b462a9f222c48d278fea16be90f9d89f83a35c2505f8e3fec3d90a35abdbb4050338fedda2fb11c084f05ffe4a0e28785eed8a1aedd57cd21c7d4cf26c809028d17226986b0ebdd6e6e49359a461178f7c5ce9a82369a44fc0513c3272d5f64939c7778b5fae5067fe31a6b68af45f0994ddaa31f5f0403c63f89cf4e401b31672d05f5f2566e12c9fb16d92cc050b6ff3d793b924b8887a71627e130b2c7a3990f4c392a146cd1daf5b13bbf0319f0195a3f173474a7681e1143e3e0fef3ea139923b86599d627b3eeb5cae11ca4a331a98bf3831c2681724275be259fefdf8686f621851d89a225eebff023733a2031fc2eb5ef0693ff6806ba126e18a9d0f23d443bc30785a814d162dc5ed37af84af7bece87c18ad9f6d688cb0f433c414331cba63cc974a5f92b869e9b351124d8d370111ec3e85127103304b8a2d4e7188bfc2e4e5ed6fca728ac0b3c8fd21c5aab4913d5d34b548640212bb6a27b078b990c7dedbbc2e399264cd996779c36c1b18eddccae7c8b8e04e89f3459597d181985c205dbadd8616969d77b810388f772c8e6741cd976320ee7ffc4063bf0a4e6d0013f2fae339a346086a8a73cc46da3c5f7ab9b3ab29d8017358cb317f7ffd1b71ea85661cfcd0a14ab36f581f8e8933ed58810877c60b88f68edd71b554188e57677a19c208bbba90f8d9e2178fbb99256898a3f60c3ae53896aec56d5654d6e596f198ffdfc9fe733fc164e380b0087915a3978868935360fac309aca3666a402e759db069d8e6f9557ef272eef12b316e63fbeec550f9b4801df02a10caffeab6fc35947de8f49302788c9de8c78e54e12692cd0754737bf7d4bbde425ace0d58052efb7488dd09c6004df63304ada65d18bbd320a13204505e1b45243cea4770921554d78325697669a53ed4ff7301e56ac322bc120159ed7621cfb90ed50fb8971b0fa581f10ad018452ce02e40ea5da55c7d574096fe4ee9c914ddc5476f127b89278106741cf0ce75593820ffc1e2dee5ae99add7b2acc3d634f4bd21c14736264c05578be96dc36660d896a72977ce2b15ac82075f9ee92193c297a7d53f8ab4da26d3722b4143b41baaffdedb5a771e90305e410364ac937b1416e1aad6d29f39a574e7c25bdfaa9cb0edd9de3865e7a7e208d90b7a2272de276a83eb434939668825ad39394e106679ca2fa1bc1aa9177efbf62e955228cf6b03796c5b095016e3c6b767c505035067e272c5d44bd57398dc1b1154968173b4b7a23498276b17359d25b851d151c277bdebaf55992e98f90705d6364c580c7b95e921301e91ff7f7137307425a3e2b6328f0953f8731169c00fb31979f258e096a82d48f4581d1ca84bb807d90ef8ef42e022428a2b8161ba113271f9611fcecfad7941f41eee7d78618570bce133e6fd1e883600f9775a2aad4965f593ac1d82af618f3606242140a67f2ab4be98a5bd7330076999358e91bfe1d9dd64593bcf7263ed9a00602fc2c134ad79c76e60bc3e5020da361e0039b28d7599eddb3d2b761c654d015d918d636e9137ba66b2c43e86651457a5a976b7b90c500c42cb92e8af5e85fa1cf04563fd191109aba42c2962c331effc3377c40661c21d252feeddcc788a3f267ce88d753ee35b6032560088a9f8aaf32a29457df0b42f48e553399927f86ae50da64f899"
      ],
      "sequence": 4294967294
    }
  ],
  "vout": [
    {
      "value": 1.0,
      "n": 0,
      "scriptPubKey": {
        "asm": "OP_RETURN 6d2d272d97324894511c26459f77bb1f1238edd04d34516b89db6fbcbc7a5f96 8d4c0b5f5eeb951461566d312d5c2356cd28d491372a5c7c6bd539180b064224ad6c2b7f7ecbb53441764d110d7c0376ed08f4b1170a7c5c4bf519382b266204cd0c4b1f1eabd55421162d716d1c63168d6894d1776a1c3c2b9579584b460264ed2c6b3f3e8bf57401360d514d3c4336ad48b4f1574a3c1c0bb559786b6622440dcc8bdfde6b1594e1d6edb1addca3d64da85411b7aadcfceb55b9988b86c2a42decabfffe4b35b4c1f6cd918dfc83f66d887431978afcdccb7599b8aba6e2844d8ccb9f9e2b55d4a196adf1ed9ce3960de81451f7ea9cbcab15f9d8cbc682e46dacebbfbe0b75f481b68dd1cdbcc3b62dc83471d7cabc9c8b35d9f8ebe6a2c48d4c0b5f5eeb951461566d312d5c2356cd28d491372a5c7c6bd539180b064224ad6c2b7f7ecbb53441764d110d7c0376ed08f4b1170a7c5c4bf519382b266204cd0c4b1f1eabd55421162d716d1c63168d6894d1776a1c3c2b9579584b460264ed2c6b3f3e8bf57401360d514d3c4336ad48b4f1574a3c1c0bb559786b6622440dcc8bdfde6b1594e1d6edb1addca3d64da85411b7aadcfceb55b9988b86c2a42decabfffe4b35b4c1f6cd918dfc83f66d887431978afcdccb7599b8aba6e2844d8ccb9f9e2b55d4a196adf1ed9ce3960de81451f7ea9cbcab15f9d8cbc682e46dacebbfbe0b75f481b68dd1cdbcc3b62dc83471d7cabc9c8b35d9f8ebe6a2c48d4c0b5f5eeb951461566d312d5c2356cd28d491372a5c7c6bd539180b064224ad6c2b7f7ecbb53441764d110d7c0376ed08f4b1170a7c5c4bf519382b266204cd0c4b1f1eabd55421162d716d1c63168d6894d1776a1c3c2b9579584b460264ed2c6b3f3e8bf57401360d514d3c4336ad48b4f1574a3c1c0bb559786b6622440dcc8bdfde6b1594e1d6edb1addca3d64da85411b7aadcfceb55b9988b86c2a42decabfffe4b35b4c1f6cd918dfc83f66d887431978afcdccb7599b8aba6e2844d8ccb9f9e2b55d4a196adf1ed9ce3960de81451f7ea9cbcab15f9d8cbc682e46dacebbfbe0b75f481b68dd1cdbcc3b62dc83471d7cabc9c8b35d9f8ebe6a2c48d4c0b5f5eeb951461566d312d5c2356cd28d491372a5c7c6bd539180b064224ad6c2b7f7ecbb53441764d110d7c0376ed08f4b1170a7c5c4bf519382b266204cd0c4b1f1eabd55421162d716d1c63168d6894d1776a1c3c2b9579584b460264ed2c6b3f3e8bf57401360d514d3c4336ad48b4f1574a3c1c0bb559786b6622440dcc8bdfde6b1594e1d6edb1addca3d64da85411b7aadcfceb55b9988b86c2a42decabfffe4b35b4c1f6cd918dfc83f66d887431978afcdccb7599b8aba6e2844d8ccb9f9e2b55d4a196adf1ed9ce3960de81451f7ea9cbcab15f9d8cbc682e46dacebbfbe0b75f481b68dd1cdbcc3b62dc83471d7cabc9c8b35d9f8ebe6a2c48d4c0b5f5eeb951461566d312d5c2356cd28d491372a5c7c6bd539180b064224ad6c2b7f7ecbb53441764d110d7c0376ed08f4b1170a7c5c4bf519382b266204cd0c4b1f1eabd55421162d716d1c63168d6894d1776a1c3c2b9579584b460264ed2c6b3f3e8bf57401360d514d3c4336ad48b4f1574a3c1c0bb559786b6622440dcc8bdfde6b1594e1d6edb1addca3d6e90ce66505353887df7ed96c2b0db4759b49fa33de4feaa4b3905afd170e1ae2",
        "hex": "6a206d2d272d97324894511c26459f77bb1f1238edd04d34516b89db6fbcbc7a5f964db0048d4c0b5f5eeb951461566d312d5c2356cd28d491372a5c7c6bd539180b064224ad6c2b7f7ecbb53441764d110d7c0376ed08f4b1170a7c5c4bf519382b266204cd0c4b1f1eabd55421162d716d1c63168d6894d1776a1c3c2b9579584b460264ed2c6b3f3e8bf57401360d514d3c4336ad48b4f1574a3c1c0bb559786b6622440dcc8bdfde6b1594e1d6edb1addca3d64da85411b7aadcfceb55b9988b86c2a42decabfffe4b35b4c1f6cd918dfc83f66d887431978afcdccb7599b8aba6e2844d8ccb9f9e2b55d4a196adf1ed9ce3960de81451f7ea9cbcab15f9d8cbc682e46dacebbfbe0b75f481b68dd1cdbcc3b62dc83471d7cabc9c8b35d9f8ebe6a2c48d4c0b5f5eeb951461566d312d5c2356cd28d491372a5c7c6bd539180b064224ad6c2b7f7ecbb53441764d110d7c0376ed08f4b1170a7c5c4bf519382b266204cd0c4b1f1eabd55421162d716d1c63168d6894d1776a1c3c2b9579584b460264ed2c6b3f3e8bf57401360d514d3c4336ad48b4f1574a3c1c0bb559786b6622440dcc8bdfde6b1594e1d6edb1addca3d64da85411b7aadcfceb55b9988b86c2a42decabfffe4b35b4c1f6cd918dfc83f66d887431978afcdccb7599b8aba6e2844d8ccb9f9e2b55d4a196adf1ed9ce3960de81451f7ea9cbcab15f9d8cbc682e46dacebbfbe0b75f481b68dd1cdbcc3b62dc83471d7cabc9c8b35d9f8ebe6a2c48d4c0b5f5eeb951461566d312d5c2356cd28d491372a5c7c6bd539180b064224ad6c2b7f7ecbb53441764d110d7c0376ed08f4b1170a7c5c4bf519382b266204cd0c4b1f1eabd55421162d716d1c63168d6894d1776a1c3c2b9579584b460264ed2c6b3f3e8bf57401360d514d3c4336ad48b4f1574a3c1c0bb559786b6622440dcc8bdfde6b1594e1d6edb1addca3d64da85411b7aadcfceb55b9988b86c2a42decabfffe4b35b4c1f6cd918dfc83f66d887431978afcdccb7599b8aba6e2844d8ccb9f9e2b55d4a196adf1ed9ce3960de81451f7ea9cbcab15f9d8cbc682e46dacebbfbe0b75f481b68dd1cdbcc3b62dc83471d7cabc9c8b35d9f8ebe6a2c48d4c0b5f5eeb951461566d312d5c2356cd28d491372a5c7c6bd539180b064224ad6c2b7f7ecbb53441764d110d7c0376ed08f4b1170a7c5c4bf519382b266204cd0c4b1f1eabd55421162d716d1c63168d6894d1776a1c3c2b9579584b460264ed2c6b3f3e8bf57401360d514d3c4336ad48b4f1574a3c1c0bb559786b6622440dcc8bdfde6b1594e1d6edb1addca3d64da85411b7aadcfceb55b9988b86c2a42decabfffe4b35b4c1f6cd918dfc83f66d887431978afcdccb7599b8aba6e2844d8ccb9f9e2b55d4a196adf1ed9ce3960de81451f7ea9cbcab15f9d8cbc682e46dacebbfbe0b75f481b68dd1cdbcc3b62dc83471d7cabc9c8b35d9f8ebe6a2c48d4c0b5f5eeb951461566d312d5c2356cd28d491372a5c7c6bd539180b064224ad6c2b7f7ecbb53441764d110d7c0376ed08f4b1170a7c5c4bf519382b266204cd0c4b1f1eabd55421162d716d1c63168d6894d1776a1c3c2b9579584b460264ed2c6b3f3e8bf57401360d514d3c4336ad48b4f1574a3c1c0bb559786b6622440dcc8bdfde6b1594e1d6edb1addca3d6e90ce66505353887df7ed96c2b0db4759b49fa33de4feaa4b3905afd170e1ae2",
        "type": "nulldata"
      }
    },
    {
      "value": 499995.9324,
      "n": 1,
      "scriptPubKey": {
        "asm": "1 954fe796a2112d848076f70f7b73651cf5fb94063cbf12c1ee4d8f1ed614be8b",
        "hex": "5120954fe796a2112d848076f70f7b73651cf5fb94063cbf12c1ee4d8f1ed614be8b",
        "reqSigs": 1,
        "type": "witness_v1_scripthash",
        "addresses": [
          "3QJmnh"
        ]
      }
    }
  ],
  "blockhash": "15af9b025c636b87e0a10c18a1a8de0e5f3c2069ad563b293161176d75df89a4",
  "confirmations": 1,
  "time": 1764174659,
  "blocktime": 1764174659
}