{
  "hex": "010000000001019ba1e9832c7a4b1efc91766b5a96ea2ba542893b5f2756bc1e32b46effb6f94a0100000000feffffff029021522d792d0000225120cedd060de4fc84eaede82eacff11b4a58cc97b0b9abcde1a69038aa5f92c9ea000e1f50500000000fdd5046a20d65d3be01e256ab60e997b91c95cac639a9c60267b0548eeebaf07d152f5913a4db00414515f77eacb64d19074ff1057d015fc58037a060343851ee4781ef032a7023334717f57caeb44f1b054df3077f035dc78235a262363a53ec4583ed01287221354111f37aa8b2491d034bf50179055bc18433a464303c55ea4385eb072e7427374313f178aab04b1f0149f7037b0759c38631a666323e57e84187e9052c7625394d1dff76a4be45110f47f90d750957cd883fa8683c3059e64f89e70b22782b3b4f1ffd74a6bc47130d45fb0f770b55cf8a3daa6a3e325be44d8be509207a293d4919fb72a0ba41150b43fd09710d53c98c3bac6c38345de24b8de30f267c2f3f4b1bf970a2b843170941ff0b730f51cb8e39ae6e3a365fe0498fe10d247e2d314515f77eacb64d19074ff1057d015fc58037a060343851ee4781ef032a7023334717f57caeb44f1b054df3077f035dc78235a262363a53ec4583ed01287221354111f37aa8b2491d034bf50179055bc18433a464303c55ea4385eb072e7427374313f178aab04b1f0149f7037b0759c38631a666323e57e84187e9052c7625394d1dff76a4be45110f47f90d750957cd883fa8683c3059e64f89e70b22782b3b4f1ffd74a6bc47130d45fb0f770b55cf8a3daa6a3e325be44d8be509207a293d4919fb72a0ba41150b43fd09710d53c98c3bac6c38345de24b8de30f267c2f3f4b1bf970a2b843170941ff0b730f51cb8e39ae6e3a365fe0498fe10d247e2d314515f77eacb64d19074ff1057d015fc58037a060343851ee4781ef032a7023334717f57caeb44f1b054df3077f035dc78235a262363a53ec4583ed01287221354111f37aa8b2491d034bf50179055bc18433a464303c55ea4385eb072e7427374313f178aab04b1f0149f7037b0759c38631a666323e57e84187e9052c7625394d1dff76a4be45110f47f90d750957cd883fa8683c3059e64f89e70b22782b3b4f1ffd74a6bc47130d45fb0f770b55cf8a3daa6a3e325be44d8be509207a293d4919fb72a0ba41150b43fd09710d53c98c3bac6c38345de24b8de30f267c2f3f4b1bf970a2b843170941ff0b730f51cb8e39ae6e3a365fe0498fe10d247e2d314515f77eacb64d19074ff1057d015fc58037a060343851ee4781ef032a7023334717f57caeb44f1b054df3077f035dc78235a262363a53ec4583ed01287221354111f37aa8b2491d034bf50179055bc18433a464303c55ea4385eb072e7427374313f178aab04b1f0149f7037b0759c38631a666323e57e84187e9052c7625394d1dff76a4be45110f47f90d750957cd883fa8683c3059e64f89e70b22782b3b4f1ffd74a6bc47130d45fb0f770b55cf8a3daa6a3e325be44d8be509207a293d4919fb72a0ba41150b43fd09710d53c98c3bac6c38345de24b8de30f267c2f3f4b1bf970a2b843170941ff0b730f51cb8e39ae6e3a365fe0498fe10d247e2d314515f77eacb64d19074ff1057d015fc58037a060343851ee4781ef032a7023334717f57caeb44f1b054df3077f035dc78235a262363a53ec4583ed01287221354111f37aa8b2491d034bf50179055bc18433a464303c55ea4385eb072e7427374313f178aab04b1f0149f7037b0759c38631a666323e57e84187e9052c7625394d1dff76a4be45110f47f90d750957ca3e1ea9a128b5672dd39d3fff57b48a3e88db33d912c3899f6d504f75ac0156d02fd750987005f8fa413d626115f36854df6e6be48d79a8ea47eeca5ebdcb61eb5d152ce169171ef779434e45b9d22c4761e1bbf4b6af4026241402f4b94c9b081b72c14bfd1c1ae62f28e310a30a79ff0e051aa8b6c65e7aeec37cad27671ab63a41ce92dd1a339177fcb55dac99a5c064df4f3a1a1f63036753b7669df7ceeaee38d179d763dd7657f24a1f82641375cf3bed31c2851b3305f8004a836a96c606fc9ee075f9cdd850d7914c23469664b34beb2df420b2be3ff8c71a260d73c967b44786219a90f79a6ec87d7facdcfbb5b29a017815278a07a128d40c08d6a23ecc8d847e25bd063c98f98eca4719c96d5e58b2a8a67c7824da497b3b3894d5f0943f3f27c22b2aa63331e3842aee7c2628bac9498c4ce536c5fef41876ad185a2d7ebb3dc7ab2fd7784513c3cc26e71c89de215e78112d97725e4724d9ec8be2632e032965c37c52f9ea3daae82d2d142885e4fa007418d7dd5a7966914446a12e0a05d1daea397fec0d3ef6452e431a209ccc56b7af393d0a621820088a3bc1833706fd88b5f7e54cfd32ac6134d90ed83d7da2d359db31f0ec0fa8fc33444e81fe49d94947c82e9bd75ba95b61fb691de876dd5dd4e1d043a518180608f55055bd5977a8cc09db4f73503e9c4dc397584c032ab72f4ea68fc9347c0facf2debaf869363b3f759bf302cfd85368abf88459b78c7e9c8aed6f078d15d2807405d1ff80a11daf34c1f14ad5b6a18df26e5e355aaa88370e15cd28b71c1033edddfbeb1b4565336507ab35e4f72d5493132735896667fdac73f5cddcddd8dca4d238c7e0084e83381c2419023559c30035e44bba268b124ae24ab459768af2e351c6b317d31e82a8c9f235b0822122d0deec4e62400a768fcfee6a49a97b987ea7bb93d5159218de0455132cdc2a19ed12ab30f2d4df4fca0c636c80532873893e95d1208f116b7d646490a4014c350eb230ff981b592375db9d17a3a037743aa4f01a539d08f46baac8502e40616808ad99c044f4dbf76b54440675a3febfa4562bea8119d25ab7d2081f755ada123afc7434558f259424041743268c6224a835f950f8792f45f575800d73aee7efab10497eee16a1caa7d3ef07200e1cbc464e66a84804827db303d38be3933989dcba241ce8a5dc9829833e2168dd7e8cce131b787e1b337acffee0d63564b19aecfdf1dfbafd0b919d153666c25ea8924ff61affd78ef828f88a4ebdd7614040c46cb374c35bcb08c4304ab97f8c592e2e5244a598baca194b5a8bd9c3270954e7f94938a525d819d61d8a0451f543436a4f8a88517bfd9f52103678602a55f2149d10e9d3c4e6ce594841ec400750e1101e3072a5d25fbbc7ca23aaba60f1acf9dff21859dd4926343cb1af6ff5301cf18f26019c3b103a430d8651620d325680a0ad6e5c65e9954d0d010a532a00f6a0f481d418401421ecfddacca45370a2ae13859c4a90db8256a848e27a37fa5290dd349e597df4cd78b5f54ecfa7b86bbf4f8cee1ce4113e4f99b77846a52353113baef3f7c7f00254111d591b4a2be6105412b82dd1dcc9b4575e7dde76906c307d080db951452f5ded9c4063316835d58ece956ebea7b436903caef6934253bae7b31450aad8c24f5fde5e0b3a0c7ba0e217fbf6e6ff9ebd733f48ef2d65f27d8fa23046de80b317d4f9ae4db795ce4e4ea1924ea0e782c530dbce8025b598a5a555f4266da2f0588a0cd8097ecb1be3622e42f5672d778c4d21b7cc97f55469a71341d20bebb1543c266ff5683dda6231f0da9b40fdebfb24e6f32f9bbf1fe88d4386a3d7d9428c9c304f6d2e122cc0c31477f6c6d6cfc7b1cc11df94475cefe91a0ad7de3f49e9845bf5fd1e4dc84fbcd5e95272aae155f79e72b244df7dfa60bd4d57fb8a2b4b9986867e64f5345f7a25596ef6ba6699219818e4abc13b0c43acab82ac00464e5cfafc58ef79f46a33dfacf9cd9b0bd238627aa4f2f4c60b4db2bb2d9ebc602998eb9d7f5905f34db59a478bd97d513d05714236d25f489b7372f81f0c2e82c2ea4e276097e23f250d31627ad78208c78421db9ac780e708fe8f07e7cb2374321f386220829f66a7eff2dc0587c6f154fb0b73f4ba053cf58a47c8aef134cbbc804fad3597dc43151c9ae9a862d33ecc5664b13d349990c687d538eda47f341a8d2961ba23533b814dfb4c5354ad7403ad3cf36e5b872004740cfe89410c0a63b42ad3600ba3ab51dedd478324f1da761ad24018b5edf38d5ad4269c57a9f4c3dfd7f0d5e316bd45b60ed864c9f9d603b83d9d3d64dc9854ed7c62684f8e3c283db2889a2a749c359a7a34cff696be1ff7583f3adaba5c84d45f774b2579c8558a3c4cf35bcc657eeeac13ac5aaca2a29e2b32a2939e6eb9095943f9ac3b20240c71b214890b110bb9c68b72b5d1bdc2155d53f3c9522e4bda997fc6ca0c22358293b67164c8704943449d2ab8a625481e25b55a66577afbfa68d30ccdecbad91cab645af6a767f30c9c8319bc4863c796a9e828af80706dbb7667baae62f06ee12a666e99675a4797f259c9e4566f7c719278be2efd7a938d39e30801c990eb783b955bdec317afacf8423a1039adbd8aad7f7950b82aae06b9d1c3be38ae9f606ced93870de055eec7cb6040e5a2bb3a9ec680799db886270313405ca3493de76838b43f46f547d82c821afe434e2c2203b24c0c3e149ecedbfb191eafca22cf6754bd857328a8a602c994b4815994ffe1a697fd7871a468dd7986a58fcfda347e9d22c5a3ae2dc92c7d8627e44e1a805151cb42cf31a4203bfafe5fc731e856668c74fcb03cd68079490e59541780cd9f022025aad701b41b7f0cd3add4110b13bacbee6e0520a0ec5fc4e3746984e9e34cb64be0f0a4f91ace0e8fb6a2069d64ef1b464f4152cd38e38feb423af71859cfe8cf97bde5885deec06909ae4b6c15baa8801a3f2b39d68ad2ee4844c1917d9d1d120bab40c040ae14c5773ce4f7ce50a10eb9c3b30ccda76d22252f2842794c877d9b588519360bdff51db1df3c981f663310b0c5b261de269a5c44c00b0d3e191ad4cc4fa6ec6c737bd5d0778ac9747d3f1939f635b7b9ad371fc327e129cd59de14b4cca336d51bf556ef44d0e810983f2b40eedc8c5dde83eb803ee80c019ec257d42095900a1fc2903c9cca5e33c3dc5a3622113b5b6fae424389f41330b6d4499951c7b755af2b78cd1c05ee42e651ed9c59ad17de17c9f5b083cfde0853b931d74ba687f57d1afebce6f46dd8e66434140d24da6f6b0d2ef88edf4edfb7cfccf0c4cc1edd0091d303c4d62787d808589cbf200323550545d77889093959da8acc9f0f5ff0306181a3f4951a9bac6cae4f3000518232a2d555a62676f7c8c8e99b5c6c7d9f2000000000000000000000000000000000d1f2c4001fd210500dcaf0daa45713e8e7255cff434d0e0bb217fd40767e9243a3b54db17fc201b4a9fa115554804f4fbff7ae87dff57274c9a08b8494e255ac2028016da5751db7e58917f96c4843e26ca534bdd98491dffeee0cf6643aafb92598349647a7564e1b5209cd1e924d07e843c31bf6c703f2e0be8cf40bd0a32175e7e92145b098d93cbac96a491a73537b4ea7c3a8bb38b877d42de39134f96b96554d77ccbafb197242afbb55bf755c1e9b2a6897d7c51991993a11f9a380b28df03b31bf97c69cc99a32412692ee297ad7963a10f3ad8f42ccff407c5f3ebe1d8f1602563bf1587359539dcb0323c73b12f7e0befc17b681aab8ffe263e63f911a634a5e8223f7b615751ceec1cf8216d73386e9720b76cdbe0eb5b24b9412a1637cbf3ac23f65cac383ca0f4406f20e239c600eb23181672b769be8c880b999748eb8cb6a5b02ab718326a136bcce66b2f8d07c5ee13a2c3bca6eb3bf3fcdac65f4960068ccf79de1c4040435f9378421bf507de5603f392cc80e67050e92b670d4dd98807a97d3aa883607b41e4f56a3f74527bad342ca180962f55787d562b2ee6baee29f8997294c1297b188fce34f9b61ecdf26e54996a779f43ef7f97b1c01eb94b6e2fab2e5317ca4d392f94113de4b6e79546ca7370c99c1e9c1cbd88ec332c35ad164476d3b8b4e1c901d84d3a2be104a6d643eded059d502177df3d7a6a975c5cedaa6dbc9762d27b8327f535d7adf93a6db668307ea0efd59177dfab192c1ec6ac941caf7de9dfdc58ac5509d2bab926cbdcd5b4d0b1a3f385af870a32974fe753819829cd226e0b7013a4b20c8a5b3f5e261dfc8308a9e244a5c7292b2b544359581f9ed1da7bb902b3da54b58dd98df145c4bed2d1493ababfad3b78665f9c87e3b1209a7d8d83285fab5b9fe01299fa479062b3e768efdc796e887921bc11378a838e91639f322e84fb3f68a0ba379c990a85130ab32eccaced35425212ff57fbe54409aa8d1f2bda790b8314f709134da0a2b119a7e8a7baca64e62a9d8d41cb4f83e24289c93c13a441176246619ed68ff2e9101dac90a97293e00037650e81b2391cfb65955b242669f12cd6705d4f9685f3eaee93ecd30646f894c711690b1f9281b0d84e8d36848cfb5e4333f41e6ac3ed12aac6591cbcf4ef20080299b2538332c023902f263879915b82b7ac79ae95c783fa5da9eda753c82d226677bd9288d9a1de6f9a34b541a1c24a6593e871b65f608ad27ea200a32cba43ed96a9bb2aba65d2b9313f4232ef686cb43d18c46e2fd099449aca0c14cbeca999bf39f72cc9b1a17ff4cb00f46d95d277f912d29b9cee5602e47b191723e97939b2e46ae7b827735c2d3c1cdb00a324d3de90cd368d206832fe539db5956cde226963758a1a2b4fe462467ab0f30a827ca0cc79c2b7d1e2d86cb7674cef68dfd7d7ca24cbf99c190527898cd62da3b159d9ad365846a04e56625ad88c490f7751345c9f14981d3918d6ba6b09975c094b25b4d0a745d2d17e327c83a58cc6afe957a44ab850fb565d152f1ddae3c024174a16b34d0d0de65741eaf83b881491fd1a5d9ef0d6ea2a26c4d297d8e2145f4e21b516abbb0f8f5f6bc46dbc0eb253a6a166f97c546e23737cc6bd8895217187de4f26d57b28ad4e79594efde9b285f62f51a6a4f5d212256d8a15fc494bbd526c66cf4d54cba79fc9bf681e535c37a27f684425fcb099ec79243887dddafd535c8c4e351bfcaa95748d6a78cfa7f5700e9e6eaaa312336a025e5a029e10dd62a69d94ba63a18cd351f0c13532e3f26045d491fcd244580127029d8c0bf4fd3dfd5668466cb69075deaeb8e4a128c076f21a71000000",
  "txid": "91a48b027921c83dd2d43f9b10464eddd6ff012de66c0dcd1cc9865ba9762c8e",
  "hash": "7808c13c2a5f103d0808dc7b08a0fea8cbb5c951db1f2f70ecd5f3109620fbfa",
  "size": 5085,
  "vsize": 2278,
  "version": 1,
  "locktime": 113,
  "vin": [
    {
      "txid": "4af9b6ff6eb4321ebc56275f3b8942a52bea965a6b7691fc1e4b7a2c83e9a19b",
      "vout": 1,
      "scriptSig": {
        "asm": "",
        "hex": ""
      },
      "txinwitness": [
        "87005f8fa413d626115f36854df6e6be48d79a8ea47eeca5ebdcb61eb5d152ce169171ef779434e45b9d22c4761e1bbf4b6af4026241402f4b94c9b081b72c14bfd1c1ae62f28e310a30a79ff0e051aa8b6c65e7aeec37cad27671ab63a41ce92dd1a339177fcb55dac99a5c064df4f3a1a1f63036753b7669df7ceeaee38d179d763dd7657f24a1f82641375cf3bed31c2851b3305f8004a836a96c606fc9ee075f9cdd850d7914c23469664b34beb2df420b2be3ff8c71a260d73c967b44786219a90f79a6ec87d7facdcfbb5b29a017815278a07a128d40c08d6a23ecc8d847e25bd063c98f98eca4719c96d5e58b2a8a67c7824da497b3b3894d5f0943f3f27c22b2aa63331e3842aee7c2628bac9498c4ce536c5fef41876ad185a2d7ebb3dc7ab2fd7784513c3cc26e71c89de215e78112d97725e4724d9ec8be2632e032965c37c52f9ea3daae82d2d142885e4fa007418d7dd5a7966914446a12e0a05d1daea397fec0d3ef6452e431a209ccc56b7af393d0a621820088a3bc1833706fd88b5f7e54cfd32ac6134d90ed83d7da2d359db31f0ec0fa8fc33444e81fe49d94947c82e9bd75ba95b61fb691de876dd5dd4e1d043a518180608f55055bd5977a8cc09db4f73503e9c4dc397584c032ab72f4ea68fc9347c0facf2debaf869363b3f759bf302cfd85368abf88459b78c7e9c8aed6f078d15d2807405d1ff80a11daf34c1f14ad5b6a18df26e5e355aaa88370e15cd28b71c1033edddfbeb1b4565336507ab35e4f72d5493132735896667fdac73f5cddcddd8dca4d238c7e0084e83381c2419023559c30035e44bba268b124ae24ab459768af2e351c6b317d31e82a8c9f235b0822122d0deec4e62400a768fcfee6a49a97b987ea7bb93d5159218de0455132cdc2a19ed12ab30f2d4df4fca0c636c80532873893e95d1208f116b7d646490a4014c350eb230ff981b592375db9d17a3a037743aa4f01a539d08f46baac8502e40616808ad99c044f4dbf76b54440675a3febfa4562bea8119d25ab7d2081f755ada123afc7434558f259424041743268c6224a835f950f8792f45f575800d73aee7efab10497eee16a1caa7d3ef07200e1cbc464e66a84804827db303d38be3933989dcba241ce8a5dc9829833e2168dd7e8cce131b787e1b337acffee0d63564b19aecfdf1dfbafd0b919d153666c25ea8924ff61affd78ef828f88a4ebdd7614040c46cb374c35bcb08c4304ab97f8c592e2e5244a598baca194b5a8bd9c3270954e7f94938a525d819d61d8a0451f543436a4f8a88517bfd9f52103678602a55f2149d10e9d3c4e6ce594841ec400750e1101e3072a5d25fbbc7ca23aaba60f1acf9dff21859dd4926343cb1af6ff5301cf18f26019c3b103a430d8651620d325680a0ad6e5c65e9954d0d010a532a00f6a0f481d418401421ecfddacca45370a2ae13859c4a90db8256a848e27a37fa5290dd349e597df4cd78b5f54ecfa7b86bbf4f8cee1ce4113e4f99b77846a52353113baef3f7c7f00254111d591b4a2be6105412b82dd1dcc9b4575e7dde76906c307d080db951452f5ded9c4063316835d58ece956ebea7b436903caef6934253bae7b31450aad8c24f5fde5e0b3a0c7ba0e217fbf6e6ff9ebd733f48ef2d65f27d8fa23046de80b317d4f9ae4db795ce4e4ea1924ea0e782c530dbce8025b598a5a555f4266da2f0588a0cd8097ecb1be3622e42f5672d778c4d21b7cc97f55469a71341d20bebb1543c266ff5683dda6231f0da9b40fdebfb24e6f32f9bbf1fe88d4386a3d7d9428c9c304f6d2e122cc0c31477f6c6d6cfc7b1cc11df94475cefe91a0ad7de3f49e9845bf5fd1e4dc84fbcd5e95272aae155f79e72b244df7dfa60bd4d57fb8a2b4b9986867e64f5345f7a25596ef6ba6699219818e4abc13b0c43acab82ac00464e5cfafc58ef79f46a33dfacf9cd9b0bd238627aa4f2f4c60b4db2bb2d9ebc602998eb9d7f5905f34db59a478bd97d513d05714236d25f489b7372f81f0c2e82c2ea4e276097e23f250d31627ad78208c78421db9ac780e708fe8f07e7cb2374321f386220829f66a7eff2dc0587c6f154fb0b73f4ba053cf58a47c8aef134cbbc804fad3597dc43151c9ae9a862d33ecc5664b13d349990c687d538eda47f341a8d2961ba23533b814dfb4c5354ad7403ad3cf36e5b872004740cfe89410c0a63b42ad3600ba3ab51dedd478324f1da761ad24018b5edf38d5ad4269c57a9f4c3dfd7f0d5e316bd45b60ed864c9f9d603b83d9d3d64dc9854ed7c62684f8e3c283db2889a2a749c359a7a34cff696be1ff7583f3adaba5c84d45f774b2579c8558a3c4cf35bcc657eeeac13ac5aaca2a29e2b32a2939e6eb9095943f9ac3b20240c71b214890b110bb9c68b72b5d1bdc2155d53f3c9522e4bda997fc6ca0c22358293b67164c8704943449d2ab8a625481e25b55a66577afbfa68d30ccdecbad91cab645af6a767f30c9c8319bc4863c796a9e828af80706dbb7667baae62f06ee12a666e99675a4797f259c9e4566f7c719278be2efd7a938d39e30801c990eb783b955bdec317afacf8423a1039adbd8aad7f7950b82aae06b9d1c3be38ae9f606ced93870de055eec7cb6040e5a2bb3a9ec680799db886270313405ca3493de76838b43f46f547d82c821afe434e2c2203b24c0c3e149ecedbfb191eafca22cf6754bd857328a8a602c994b4815994ffe1a697fd7871a468dd7986a58fcfda347e9d22c5a3ae2dc92c7d8627e44e1a805151cb42cf31a4203bfafe5fc731e856668c74fcb03cd68079490e59541780cd9f022025aad701b41b7f0cd3add4110b13bacbee6e0520a0ec5fc4e3746984e9e34cb64be0f0a4f91ace0e8fb6a2069d64ef1b464f4152cd38e38feb423af71859cfe8cf97bde5885deec06909ae4b6c15baa8801a3f2b39d68ad2ee4844c1917d9d1d120bab40c040ae14c5773ce4f7ce50a10eb9c3b30ccda76d22252f2842794c877d9b588519360bdff51db1df3c981f663310b0c5b261de269a5c44c00b0d3e191ad4cc4fa6ec6c737bd5d0778ac9747d3f1939f635b7b9ad371fc327e129cd59de14b4cca336d51bf556ef44d0e810983f2b40eedc8c5dde83eb803ee80c019ec257d42095900a1fc2903c9cca5e33c3dc5a3622113b5b6fae424389f41330b6d4499951c7b755af2b78cd1c05ee42e651ed9c59ad17de17c9f5b083cfde0853b931d74ba687f57d1afebce6f46dd8e66434140d24da6f6b0d2ef88edf4edfb7cfccf0c4cc1edd0091d303c4d62787d808589cbf200323550545d77889093959da8acc9f0f5ff0306181a3f4951a9bac6cae4f3000518232a2d555a62676f7c8c8e99b5c6c7d9f2000000000000000000000000000000000d1f2c4001",
        "00dcaf0daa45713e8e7255cff434d0e0bb217fd40767e9243a3b54db17fc201b4a9fa115554804f4fbff7ae87dff57274c9a08b8494e255ac2028016da5751db7e58917f96c4843e26ca534bdd98491dffeee0cf6643aafb92598349647a7564e1b5209cd1e924d07e843c31bf6c703f2e0be8cf40bd0a32175e7e92145b098d93cbac96a491a73537b4ea7c3a8bb38b877d42de39134f96b96554d77ccbafb197242afbb55bf755c1e9b2a6897d7c51991993a11f9a380b28df03b31bf97c69cc99a32412692ee297ad7963a10f3ad8f42ccff407c5f3ebe1d8f1602563bf1587359539dcb0323c73b12f7e0befc17b681aab8ffe263e63f911a634a5e8223f7b615751ceec1cf8216d73386e9720b76cdbe0eb5b24b9412a1637cbf3ac23f65cac383ca0f4406f20e239c600eb23181672b769be8c880b999748eb8cb6a5b02ab718326a136bcce66b2f8d07c5ee13a2c3bca6eb3bf3fcdac65f4960068ccf79de1c4040435f9378421bf507de5603f392cc80e67050e92b670d4dd98807a97d3aa883607b41e4f56a3f74527bad342ca180962f55787d562b2ee6baee29f8997294c1297b188fce34f9b61ecdf26e54996a779f43ef7f97b1c01eb94b6e2fab2e5317ca4d392f94113de4b6e79546ca7370c99c1e9c1cbd88ec332c35ad164476d3b8b4e1c901d84d3a2be104a6d643eded059d502177df3d7a6a975c5cedaa6dbc9762d27b8327f535d7adf93a6db668307ea0efd59177dfab192c1ec6ac941caf7de9dfdc58ac5509d2bab926cbdcd5b4d0b1a3f385af870a32974fe753819829cd226e0b7013a4b20c8a5b3f5e261dfc8308a9e244a5c7292b2b544359581f9ed1da7bb902b3da54b58dd98df145c4bed2d1493ababfad3b78665f9c87e3b1209a7d8d83285fab5b9fe01299fa479062b3e768efdc796e887921bc11378a838e91639f322e84fb3f68a0ba379c990a85130ab32eccaced35425212ff57fbe54409aa8d1f2bda790b8314f709134da0a2b119a7e8a7baca64e62a9d8d41cb4f83e24289c93c13a441176246619ed68ff2e9101dac90a97293e00037650e81b2391cfb65955b242669f12cd6705d4f9685f3eaee93ecd30646f894c711690b1f9281b0d84e8d36848cfb5e4333f41e6ac3ed12aac6591cbcf4ef20080299b2538332c023902f263879915b82b7ac79ae95c783fa5da9eda753c82d226677bd9288d9a1de6f9a34b541a1c24a6593e871b65f608ad27ea200a32cba43ed96a9bb2aba65d2b9313f4232ef686cb43d18c46e2fd099449aca0c14cbeca999bf39f72cc9b1a17ff4cb00f46d95d277f912d29b9cee5602e47b191723e97939b2e46ae7b827735c2d3c1cdb00a324d3de90cd368d206832fe539db5956cde226963758a1a2b4fe462467ab0f30a827ca0cc79c2b7d1e2d86cb7674cef68dfd7d7ca24cbf99c190527898cd62da3b159d9ad365846a04e56625ad88c490f7751345c9f14981d3918d6ba6b09975c094b25b4d0a745d2d17e327c83a58cc6afe957a44ab850fb565d152f1ddae3c024174a16b34d0d0de65741eaf83b881491fd1a5d9ef0d6ea2a26c4d297d8e2145f4e21b516abbb0f8f5f6bc46dbc0eb253a6a166f97c546e23737cc6bd8895217187de4f26d57b28ad4e79594efde9b285f62f51a6a4f5d212256d8a15fc494bbd526c66cf4d54cba79fc9bf681e535c37a27f684425fcb099ec79243887dddafd535c8c4e351bfcaa95748d6a78cfa7f5700e9e6eaaa312336a025e5a029e10dd62a69d94ba63a18cd351f0c13532e3f26045d491fcd244580127029d8c0bf4fd3dfd5668466cb69075deaeb8e4a128c076f21a"
      ],
      "sequence": 4294967294
    }
  ],
  "vout": [
    {
      "value": 499984.7465,
      "n": 0,
      "scriptPubKey": {
        "asm": "1 cedd060de4fc84eaede82eacff11b4a58cc97b0b9abcde1a69038aa5f92c9ea0",
        "hex": "5120cedd060de4fc84eaede82eacff11b4a58cc97b0b9abcde1a69038aa5f92c9ea0",
        "reqSigs": 1,
        "type": "witness_v1_scripthash",
        "addresses": [
          "3QJmnh"
        ]
      }
    },
    {
      "value": 1.0,
      "n": 1,
      "scriptPubKey": {
        "asm": "OP_RETURN d65d3be01e256ab60e997b91c95cac639a9c60267b0548eeebaf07d152f5913a 14515f77eacb64d19074ff1057d015fc58037a060343851ee4781ef032a7023334717f57caeb44f1b054df3077f035dc78235a262363a53ec4583ed01287221354111f37aa8b2491d034bf50179055bc18433a464303c55ea4385eb072e7427374313f178aab04b1f0149f7037b0759c38631a666323e57e84187e9052c7625394d1dff76a4be45110f47f90d750957cd883fa8683c3059e64f89e70b22782b3b4f1ffd74a6bc47130d45fb0f770b55cf8a3daa6a3e325be44d8be509207a293d4919fb72a0ba41150b43fd09710d53c98c3bac6c38345de24b8de30f267c2f3f4b1bf970a2b843170941ff0b730f51cb8e39ae6e3a365fe0498fe10d247e2d314515f77eacb64d19074ff1057d015fc58037a060343851ee4781ef032a7023334717f57caeb44f1b054df3077f035dc78235a262363a53ec4583ed01287221354111f37aa8b2491d034bf50179055bc18433a464303c55ea4385eb072e7427374313f178aab04b1f0149f7037b0759c38631a666323e57e84187e9052c7625394d1dff76a4be45110f47f90d750957cd883fa8683c3059e64f89e70b22782b3b4f1ffd74a6bc47130d45fb0f770b55cf8a3daa6a3e325be44d8be509207a293d4919fb72a0ba41150b43fd09710d53c98c3bac6c38345de24b8de30f267c2f3f4b1bf970a2b843170941ff0b730f51cb8e39ae6e3a365fe0498fe10d247e2d314515f77eacb64d19074ff1057d015fc58037a060343851ee4781ef032a7023334717f57caeb44f1b054df3077f035dc78235a262363a53ec4583ed01287221354111f37aa8b2491d034bf50179055bc18433a464303c55ea4385eb072e7427374313f178aab04b1f0149f7037b0759c38631a666323e57e84187e9052c7625394d1dff76a4be45110f47f90d750957cd883fa8683c3059e64f89e70b22782b3b4f1ffd74a6bc47130d45fb0f770b55cf8a3daa6a3e325be44d8be509207a293d4919fb72a0ba41150b43fd09710d53c98c3bac6c38345de24b8de30f267c2f3f4b1bf970a2b843170941ff0b730f51cb8e39ae6e3a365fe0498fe10d247e2d314515f77eacb64d19074ff1057d015fc58037a060343851ee4781ef032a7023334717f57caeb44f1b054df3077f035dc78235a262363a53ec4583ed01287221354111f37aa8b2491d034bf50179055bc18433a464303c55ea4385eb072e7427374313f178aab04b1f0149f7037b0759c38631a666323e57e84187e9052c7625394d1dff76a4be45110f47f90d750957cd883fa8683c3059e64f89e70b22782b3b4f1ffd74a6bc47130d45fb0f770b55cf8a3daa6a3e325be44d8be509207a293d4919fb72a0ba41150b43fd09710d53c98c3bac6c38345de24b8de30f267c2f3f4b1bf970a2b843170941ff0b730f51cb8e39ae6e3a365fe0498fe10d247e2d314515f77eacb64d19074ff1057d015fc58037a060343851ee4781ef032a7023334717f57caeb44f1b054df3077f035dc78235a262363a53ec4583ed01287221354111f37aa8b2491d034bf50179055bc18433a464303c55ea4385eb072e7427374313f178aab04b1f0149f7037b0759c38631a666323e57e84187e9052c7625394d1dff76a4be45110f47f90d750957ca3e1ea9a128b5672dd39d3fff57b48a3e88db33d912c3899f6d504f75ac0156d",
        "hex": "6a20d65d3be01e256ab60e997b91c95cac639a9c60267b0548eeebaf07d152f5913a4db00414515f77eacb64d19074ff1057d015fc58037a060343851ee4781ef032a7023334717f57caeb44f1b054df3077f035dc78235a262363a53ec4583ed01287221354111f37aa8b2491d034bf50179055bc18433a464303c55ea4385eb072e7427374313f178aab04b1f0149f7037b0759c38631a666323e57e84187e9052c7625394d1dff76a4be45110f47f90d750957cd883fa8683c3059e64f89e70b22782b3b4f1ffd74a6bc47130d45fb0f770b55cf8a3daa6a3e325be44d8be509207a293d4919fb72a0ba41150b43fd09710d53c98c3bac6c38345de24b8de30f267c2f3f4b1bf970a2b843170941ff0b730f51cb8e39ae6e3a365fe0498fe10d247e2d314515f77eacb64d19074ff1057d015fc58037a060343851ee4781ef032a7023334717f57caeb44f1b054df3077f035dc78235a262363a53ec4583ed01287221354111f37aa8b2491d034bf50179055bc18433a464303c55ea4385eb072e7427374313f178aab04b1f0149f7037b0759c38631a666323e57e84187e9052c7625394d1dff76a4be45110f47f90d750957cd883fa8683c3059e64f89e70b22782b3b4f1ffd74a6bc47130d45fb0f770b55cf8a3daa6a3e325be44d8be509207a293d4919fb72a0ba41150b43fd09710d53c98c3bac6c38345de24b8de30f267c2f3f4b1bf970a2b843170941ff0b730f51cb8e39ae6e3a365fe0498fe10d247e2d314515f77eacb64d19074ff1057d015fc58037a060343851ee4781ef032a7023334717f57caeb44f1b054df3077f035dc78235a262363a53ec4583ed01287221354111f37aa8b2491d034bf50179055bc18433a464303c55ea4385eb072e7427374313f178aab04b1f0149f7037b0759c38631a666323e57e84187e9052c7625394d1dff76a4be45110f47f90d750957cd883fa8683c3059e64f89e70b22782b3b4f1ffd74a6bc47130d45fb0f770b55cf8a3daa6a3e325be44d8be509207a293d4919fb72a0ba41150b43fd09710d53c98c3bac6c38345de24b8de30f267c2f3f4b1bf970a2b843170941ff0b730f51cb8e39ae6e3a365fe0498fe10d247e2d314515f77eacb64d19074ff1057d015fc58037a060343851ee4781ef032a7023334717f57caeb44f1b054df3077f035dc78235a262363a53ec4583ed01287221354111f37aa8b2491d034bf50179055bc18433a464303c55ea4385eb072e7427374313f178aab04b1f0149f7037b0759c38631a666323e57e84187e9052c7625394d1dff76a4be45110f47f90d750957cd883fa8683c3059e64f89e70b22782b3b4f1ffd74a6bc47130d45fb0f770b55cf8a3daa6a3e325be44d8be509207a293d4919fb72a0ba41150b43fd09710d53c98c3bac6c38345de24b8de30f267c2f3f4b1bf970a2b843170941ff0b730f51cb8e39ae6e3a365fe0498fe10d247e2d314515f77eacb64d19074ff1057d015fc58037a060343851ee4781ef032a7023334717f57caeb44f1b054df3077f035dc78235a262363a53ec4583ed01287221354111f37aa8b2491d034bf50179055bc18433a464303c55ea4385eb072e7427374313f178aab04b1f0149f7037b0759c38631a666323e57e84187e9052c7625394d1dff76a4be45110f47f90d750957ca3e1ea9a128b5672dd39d3fff57b48a3e88db33d912c3899f6d504f75ac0156d",
        "type": "nulldata"
      }
    }
  ],
  "blockhash": "d7a7b9a6fa9b7eeca4ed3b292cd4c21f070551bfab2aaeca0619c41458c07723",
  "confirmations": 1,
  "time": 1764178593,
  "blocktime": 1764178593
}