{
  "hex": "010000000001019f65d438d3eb2ea639029f10c927f239f2cc2720adf6272f48de62e8ed058b380000000000feffffff0200e1f50500000000fdd5046a208d49f24f205f94b1177981f947afbc54c3db20b3db8ce1431c0121bb925448744db0045f28efce2a027f7f7b6fac426a1524a1f384ca263827c8ca1bebe3133f9f930e7f08cfee0a225f5f5b4f8c624a350481d3a4ea061807e8ea3bcbc3331fbfb32e1f68af8e6a423f3f3b2fec022a5564e1b3c48a667867888a5baba3537fdfd34e3f488fae4a621f1f1b0fcc220a7544c193e4aa465847a8aa7b8b83735ffff36edfa86f4eaa82fffffbef2cc2ea95a42173044aa6b8a7484a9b6b6393bf1f138eff884f6e8aa2dfdfdbcf0ce2cab5840153246a869887686abb4b43b39f3f33ae9fe82f0eeac2bfbfbbaf6c82aad5e46133440ae6f8e7080adb2b23d3ff5f53cebfc80f2ecae29f9f9b8f4ca28af5c44113642ac6d8c7282afb0b03f3df7f73ee5f28efce2a027f7f7b6fac426a1524a1f384ca263827c8ca1bebe3133f9f930e7f08cfee0a225f5f5b4f8c624a350481d3a4ea061807e8ea3bcbc3331fbfb32e1f68af8e6a423f3f3b2fec022a5564e1b3c48a667867888a5baba3537fdfd34e3f488fae4a621f1f1b0fcc220a7544c193e4aa465847a8aa7b8b83735ffff36edfa86f4eaa82fffffbef2cc2ea95a42173044aa6b8a7484a9b6b6393bf1f138eff884f6e8aa2dfdfdbcf0ce2cab5840153246a869887686abb4b43b39f3f33ae9fe82f0eeac2bfbfbbaf6c82aad5e46133440ae6f8e7080adb2b23d3ff5f53cebfc80f2ecae29f9f9b8f4ca28af5c44113642ac6d8c7282afb0b03f3df7f73ee5f28efce2a027f7f7b6fac426a1524a1f384ca263827c8ca1bebe3133f9f930e7f08cfee0a225f5f5b4f8c624a350481d3a4ea061807e8ea3bcbc3331fbfb32e1f68af8e6a423f3f3b2fec022a5564e1b3c48a667867888a5baba3537fdfd34e3f488fae4a621f1f1b0fcc220a7544c193e4aa465847a8aa7b8b83735ffff36edfa86f4eaa82fffffbef2cc2ea95a42173044aa6b8a7484a9b6b6393bf1f138eff884f6e8aa2dfdfdbcf0ce2cab5840153246a869887686abb4b43b39f3f33ae9fe82f0eeac2bfbfbbaf6c82aad5e46133440ae6f8e7080adb2b23d3ff5f53cebfc80f2ecae29f9f9b8f4ca28af5c44113642ac6d8c7282afb0b03f3df7f73ee5f28efce2a027f7f7b6fac426a1524a1f384ca263827c8ca1bebe3133f9f930e7f08cfee0a225f5f5b4f8c624a350481d3a4ea061807e8ea3bcbc3331fbfb32e1f68af8e6a423f3f3b2fec022a5564e1b3c48a667867888a5baba3537fdfd34e3f488fae4a621f1f1b0fcc220a7544c193e4aa465847a8aa7b8b83735ffff36edfa86f4eaa82fffffbef2cc2ea95a42173044aa6b8a7484a9b6b6393bf1f138eff884f6e8aa2dfdfdbcf0ce2cab5840153246a869887686abb4b43b39f3f33ae9fe82f0eeac2bfbfbbaf6c82aad5e46133440ae6f8e7080adb2b23d3ff5f53cebfc80f2ecae29f9f9b8f4ca28af5c44113642ac6d8c7282afb0b03f3df7f73ee5f28efce2a027f7f7b6fac426a1524a1f384ca263827c8ca1bebe3133f9f930e7f08cfee0a225f5f5b4f8c624a350481d3a4ea061807e8ea3bcbc3331fbfb32e1f68af8e6a423f3f3b2fec022a5564e1b3c48a667867888a5baba3537fdfd34e3f488fae4a621f1f1b0fcc220a7544c193e4aa465847a8aa7b8b83735ffff36edfa86f4eaa82fffffbef2cc2ea95a421a66775c0b4d77a8cceda3f44024ddcd17fbb5cc28e101f5105a08b4af37db9eb70cc3221792d0000225120c7db17421a2e617c33ce4448cc4680adedffdbe257a72f05561611cbad0ba6f402fd750928b86c0bf1eb25b8e2f8223c528c0bbc01dc000ad54df8b245221a77375aae55a79023a8e97d13a3fbaf13bae8a078ac9ca8239787f2ebfe6cc4ae5de58cc55fd15905bf55036135cf14507b07694b0d531d2521b5b13574d95cbc40c46f26fd7837d5e1a7d5df101b25f40e30119172644583489dc941579938337aabd513cc2c6186f02f496a97069f9047a282ffcb96d8c87db2063ca56da8c889fb5c2f95d85e9cec32d182548db2f48796a2451b9413f40553290184316a33581ae03c24003af0ae9159dd994a505637edd6cdaa696ab9ccb617a54f372b74c951751a9aa2e6e9386865a9c613e4340b514fcd4aac53423d57fefd7adcfccd286d471bc631c0507c0e904c67ddc5d48f9fbadf04d0a0c6d261d0a6ff61d4aa625bc68ac653eb921c1acab11d37d3b8ece4f90d85fece597ccb9bbadfe664b7f9e4dea5437e9c064d8c368a74d9d79b5052f79b2696469a5813efe1a528b127237d2e4a1e74784b2f1cebc600ddaa5ad2bb781661a219122f774503f2f9732aa1dffb90aa4cfb819dc79a2deae40822a25c774dee4e8ace3056d1217115ce7471f4b284b1a4adb50f08a718fc80ea7af4760953d09a4b7272a9557f9efb4a6e8af707a43bc01d89d3a67f167946d6423e604195d44e6d2ceeaa31dfd25e7cc49a8485a6c7ff887192ab8adecf3d61a97db072996ca6cc2d9efaa6a5f5f69d8799cf16c7b9d65f7bb0eea92cb2f99413d7b88bb404e08976357bdbdf2db1f55386a156c611b5ecce49cbac0aa52d95063485621a3073192d3a5f2b6eb22b802032d3621e07e090525e945967cc65d449949b71df3161eddace3b1d95f5d57988fe590abfdfcfd217ee35572ced8e5ea4f644c673e7159e163cb15dff575772fdf0d5ca3b4a8b3a826fda75c8c075130ee942c3309daafe5fd9ee0dad483c7db78f9ea6550ed81c86b6282820ffceb16b2a33022e3d8a9e4cc874989be2be49aaad67d4e25170b75051af49ed7e0c7df95d57fea63c01510baf8bc729bd1ba7c587604223c4209a7dd0ff4d7d6dce6520ce04a38884313557801555a34b937fb69d1252b5e7c21eef45ec171378893cff13662ff3135b45f45028411dacfb9fd42f09072b877d4a05dd7dcfe2f7662d362491c0a0ece1cd3e1e7de1f531fc8e3d52d978be9dc08f8c226d35b6da32d72a207ea45ba1c9a890a933d1cde07c5e9915ba722c4bed4c63d15cbdd90a85f44067146a4be938d33b8c47e6238d51b961225b35e27b4f17e3b0ce58526191666d0c3415431dc6804687dba0954265696c6c75e9b04fb5124780f6291c6210b45022644efc6b429e0e9067512b637c29fe346f6d321d7851de030e4ce00650ceabf1818765168b1576d083d45462e27e062058142c1bc53b9bcae4ec73457c09c9d43e30c46e0a580177b8cfb9323a076f104bf42118bfa269a58d9ee4a258102cc363a453936b5daa246f113cd36aae8073e03c3bc2011d185a18cd5fcb16834ed1d162ef56ba6eff7a6a163ad5f5a2571d3530231f98d0797c9d7152d1bc099bd9f29466ecb92646bb9927c097e9aa6ede1430ac2a940e60a1b618b120c54ec057d72b94e27ff18b042906e0d60a95e57e35c71db279508198ebbaa9358486dee9cfde493b28221d1f11b6288f11e50df67727b343e25ea7034b97ad5ba00943cc6f7b5df814be68865ce1b939435cf36fa367a9563c06e36d42bc98a9b791d3573feb419b36c8d4ae65fd6f08a6d32ce2c8bd6d2614e2613a3856fd67c5e3b7ac9627f6e4e373abd14878fc43472b8d7a7681fbfccab67ad2ee7d356c6060725bb09cee6f6d7d7ff42b24e30a34ca457be09ce1db1bf850d1e299e04977b0362531d4093940cf2c02e38bcd80c488ffcc33227578ed615a4db6b4674ae5311c8b57be5fbefa7d60f6a97ec1386024009a7500b61316a123dda07003eefcfe29676f93f0fca9872e7fab02b581815cef188bc00f78c42d4701ebbcdf16d7e1cd6b0ae2e373f38d73c0be968d740ae5abddcc2c17149c5fb8faf084536498751871dffe3af0d9de0837e89f383eac725ad46f73a928eb538797017ef770533cd194b774c76551a8501bd34d51768c8993722f49abba7120ecb5df8448cc3672aa2366726f29da66961f7cfc1326f2c3b71ecb3c9cee7a214c86752e016dbaf1bb6ac2a5c1a9ff3dafad198540b144429aef1b2ffcfa776017f9d515fa7f086ca456700dfb84997affd4cce60e1f798bdc48e804e107af2640d02e78af83776347fd1e3de0a82976395ac236fee6365379bcb2deb42dab7f10b23ef7f8b8e7f316d890a078db672c1a42c7c5a9cfbb91705a2cac476f61394b4b93f5219b6008401f63eebaf82ad2482460fdbfc50f4b5b58afa2307fc1c8c41499fcb41f8ba62ca0a6deea9a937fa0b7beeda8c4764bcad6fbc8a61f5860924bcda6613d02ac0d09181bc519d431248db64e354e495269447647935b6dbf4ea7f673f3928d116727a3c8b3761e3d7059eb7bff04ec18a52482b458ba2e30a4864f8d98f10d715360e3704bf00709ebaca6c6597f7146f7999f943e53b6227c26da2befb2da0e8ad23b6592bc993535d6d2ab2ffcca10d662bb20ee1a6c02548ecb5597acc9c6f9ca8ac85846b843c198a043de0a492c8a4e9670152893fd6e9f94c8ec98752f652c8ce14083f42f4665b47326f7cd66d358743e20a38476ca2cb6e0baf1b068164eaa1721f10bbfb9be6eea3d55c765a945174f19d40ec559b0626d3925735c1d04a77435b626a9d392471d550e0489f4ac76260bcc51dfac3c017bfaf94a7e5ebeae728c89f75de338f542813b5c50e8c40fa18dd6d38cac811ef09920d5b0d23fe575fbc3c273de53bd29d06215f49fb22060bcf2a423d8b7f1d2b9b06412d9c63ea62651c5a0c3ee88fe5e133e3cc24d0adfc7817c25bd76221ea6991b87af6898140978d585b1da74caf1ba607584880d2f7ea100bea2cdd8b23548a98583788d6f0581b72d960c3dbf63ed43be6e5aaeb3bb9f0c5f1bc3ccc0d7b897d84d906127c7a791efb3fbdc13fa9dfae54c8dd101f125f0f6602b4b1674c15cd8b61292236166a460b7b284602c3018c78f7d7ecc7767fafb86b77f5881e2e8647366e8efb4332cef71a69e91cf1937e73a20e1c705b06d944ba3d4d4a3bedbbe3a4b26aac3208c0be9ceae87b59e89bc3e94c9bef9b147db5af78432237d242a28f7dd901c920297ee91a031829f7791e4e7459a85948d498d6382682a277bc499c8673eb0881682debc1a0933e6b79b9e4f7cbf82e124264d676a6f919cb8c2cdd0ed1c2742556fe018192c3141636fa2aacbced3dce917222c4e76a3a4a7eaf6fc0000000000000000000000000000000000000000000000000000000000000000000000000d13212c01fd21050010a724f6778659b3fb919b1df75a3a0b9a45ed45f914a2f93500e4ab068c96434519cac6d284680a6b6542e234e7e1cf57af7cbc30496cbdd3dbdef7b24da68bbd6816630f75692b7eaa039c90a411be8975a851525c1e3442598e07ca95a24036eb3daa71df5f8b8c9d05d17ae485557fbd73d0b3b8f4fc2cfa6bc97d18d1dea702c818644b6c0e09f9cc52c27c881a344b63acae55322798563d98d87eb82165944f72a29a2757d0e2eb1b369da7206b60271b14b828490a65e8180cc905f2570248be3465f6108b7e07f273c57b35265b25b1ac321d3ad45db3fb6ed534254a48baa762daea98f680a7830f9582b49cb84ffce19e90ab827d989af118cf20323854b3807358dd4341025d4ee8593ad6e47eff57a470f72e06573fd5cb2553aabd6ebbf961a35f4d9ac2394c54fedb8c805a850d0b45039b582d8fc5417367c62021be90d5ea607a7fb7f49b33e7d9e5cdd8541da6a40284b45d813a68afc3396915392de358ea7a4979da4060f345f44ef7617c70c247ceecda32da9129b2db477dc0d7d3e2d0ee4adbf5bf2beedcbbf7dbf5ce1d8db32d1c66fa8135ab87ccbe13cba11517d795d2b098e0f538337bb8eaad8790010305fd7a5bc6bb2abef236573d1e9ce217be67255a9ddb58615b1409198d1d105aeff04b3dbed5481e361c500ac1570209ce6e13984f6cbd53ced54d8598db57c5944072bd875ff1f742e43a8e95ce2816333bf101bcffae5b28cdb398eaa3ac59b6b0682bce46dd6e25b511edceb76b3d3e6b97f8e992189c588994a0955c7b521ccd7feb8a72dd3ca72964eac9504e3006075278a3f68baafefea041fd0b31f892e793a035372f23dfd5ac6d7bfcc4d5c434965bd162e96e0d1a26c0e444aeef5f2d0a2b96adc59ba8cfb3af31a71bb46d1408dd5e20d89b2d8b575f07bee7cdd8811d65c91b8313ac6a666fa6a8eb0d95b32443cf58acf025d9aa8e4d9debd3bd8238e5e000b3c97f80b68d0bd9ead38c858217e11565ee1c7b3eb9a19112cb3889f20458ed0d50445f8c097f6b61854ae3bbc097114ce5bc5ff6a280df21d8da647bb804cb64a8c518ebf75c59b0e1696392107165c03806e2d5bd5747005ea1a2512c9a3271fc4b0cdea6096af37ef51ced0558021ba3e36e18d44e9a2bd6118e7e47b0a09c707391157797bf9d1c1ea4e82093d035c52a3ee60c5ee99b2780fdc7458d55492d183005570eb7aa86e8df1048641915a90505a553313f9f50a180e08079fcc15a5ad90380cdcafd27632263cc988f3ba571f67acd6c6e6e7943d02addc31eaf655242428c92c2106c9af16586d2049ca67614b9bba5077031824c6d217966b76e7a67a3b730baf55a5b72b56cf516d8283b2d33b8848a00d5450929207cbe5e5e4e61e77ccbb76ded94f52e2d44f41b756d3ed5d4ed57c83d7a311e5f8b3b20620be78c7865300ad33519528fc531d519d6f172370772fd19c4857bccfa9668358992307632bfee65e4f72b364388b7ef3f111010771f04d7d8994cd05b06595958f05b6b46266a8908086cfc2671487bd9037f1563ddfdfa85ab565a764ed31ba9ea7c36a282a596a746754325cfc8861ca514acf9922be4efb36ded3911d6b7f2c0dab8fd993df6cd96cd838b020478a77b6c50a8b56f1138cf5f9755172b538b21299683d3d92f0a4b680c7c6693f5f5c8199e2969de0386506aabe1a70d8ff530846af871b20f4e3834e26cb05f8325df7920d102d20df9967cee25006fdc63e57bb34c562ec65570d6a7b1ab5f6c460ee196e963ae5fd914614c4b4a691a5704edb4123c401c6db804c7bd257bea5d9f14475c6e703356f2a50b11fcc10274000000",
  "txid": "9b85d6c3cd8838739805461f7790f93312ef596e03a126c79d43182715777c0a",
  "hash": "54e399f593d219ee35ac052138657074bfa9fed81b620af3cd0f1cc346fbbe90",
  "size": 5085,
  "vsize": 2278,
  "version": 1,
  "locktime": 116,
  "vin": [
    {
      "txid": "388b05ede862de482f27f6ad2027ccf239f227c9109f0239a62eebd338d4659f",
      "vout": 0,
      "scriptSig": {
        "asm": "",
        "hex": ""
      },
      "txinwitness": [
        "28b86c0bf1eb25b8e2f8223c528c0bbc01dc000ad54df8b245221a77375aae55a79023a8e97d13a3fbaf13bae8a078ac9ca8239787f2ebfe6cc4ae5de58cc55fd15905bf55036135cf14507b07694b0d531d2521b5b13574d95cbc40c46f26fd7837d5e1a7d5df101b25f40e30119172644583489dc941579938337aabd513cc2c6186f02f496a97069f9047a282ffcb96d8c87db2063ca56da8c889fb5c2f95d85e9cec32d182548db2f48796a2451b9413f40553290184316a33581ae03c24003af0ae9159dd994a505637edd6cdaa696ab9ccb617a54f372b74c951751a9aa2e6e9386865a9c613e4340b514fcd4aac53423d57fefd7adcfccd286d471bc631c0507c0e904c67ddc5d48f9fbadf04d0a0c6d261d0a6ff61d4aa625bc68ac653eb921c1acab11d37d3b8ece4f90d85fece597ccb9bbadfe664b7f9e4dea5437e9c064d8c368a74d9d79b5052f79b2696469a5813efe1a528b127237d2e4a1e74784b2f1cebc600ddaa5ad2bb781661a219122f774503f2f9732aa1dffb90aa4cfb819dc79a2deae40822a25c774dee4e8ace3056d1217115ce7471f4b284b1a4adb50f08a718fc80ea7af4760953d09a4b7272a9557f9efb4a6e8af707a43bc01d89d3a67f167946d6423e604195d44e6d2ceeaa31dfd25e7cc49a8485a6c7ff887192ab8adecf3d61a97db072996ca6cc2d9efaa6a5f5f69d8799cf16c7b9d65f7bb0eea92cb2f99413d7b88bb404e08976357bdbdf2db1f55386a156c611b5ecce49cbac0aa52d95063485621a3073192d3a5f2b6eb22b802032d3621e07e090525e945967cc65d449949b71df3161eddace3b1d95f5d57988fe590abfdfcfd217ee35572ced8e5ea4f644c673e7159e163cb15dff575772fdf0d5ca3b4a8b3a826fda75c8c075130ee942c3309daafe5fd9ee0dad483c7db78f9ea6550ed81c86b6282820ffceb16b2a33022e3d8a9e4cc874989be2be49aaad67d4e25170b75051af49ed7e0c7df95d57fea63c01510baf8bc729bd1ba7c587604223c4209a7dd0ff4d7d6dce6520ce04a38884313557801555a34b937fb69d1252b5e7c21eef45ec171378893cff13662ff3135b45f45028411dacfb9fd42f09072b877d4a05dd7dcfe2f7662d362491c0a0ece1cd3e1e7de1f531fc8e3d52d978be9dc08f8c226d35b6da32d72a207ea45ba1c9a890a933d1cde07c5e9915ba722c4bed4c63d15cbdd90a85f44067146a4be938d33b8c47e6238d51b961225b35e27b4f17e3b0ce58526191666d0c3415431dc6804687dba0954265696c6c75e9b04fb5124780f6291c6210b45022644efc6b429e0e9067512b637c29fe346f6d321d7851de030e4ce00650ceabf1818765168b1576d083d45462e27e062058142c1bc53b9bcae4ec73457c09c9d43e30c46e0a580177b8cfb9323a076f104bf42118bfa269a58d9ee4a258102cc363a453936b5daa246f113cd36aae8073e03c3bc2011d185a18cd5fcb16834ed1d162ef56ba6eff7a6a163ad5f5a2571d3530231f98d0797c9d7152d1bc099bd9f29466ecb92646bb9927c097e9aa6ede1430ac2a940e60a1b618b120c54ec057d72b94e27ff18b042906e0d60a95e57e35c71db279508198ebbaa9358486dee9cfde493b28221d1f11b6288f11e50df67727b343e25ea7034b97ad5ba00943cc6f7b5df814be68865ce1b939435cf36fa367a9563c06e36d42bc98a9b791d3573feb419b36c8d4ae65fd6f08a6d32ce2c8bd6d2614e2613a3856fd67c5e3b7ac9627f6e4e373abd14878fc43472b8d7a7681fbfccab67ad2ee7d356c6060725bb09cee6f6d7d7ff42b24e30a34ca457be09ce1db1bf850d1e299e04977b0362531d4093940cf2c02e38bcd80c488ffcc33227578ed615a4db6b4674ae5311c8b57be5fbefa7d60f6a97ec1386024009a7500b61316a123dda07003eefcfe29676f93f0fca9872e7fab02b581815cef188bc00f78c42d4701ebbcdf16d7e1cd6b0ae2e373f38d73c0be968d740ae5abddcc2c17149c5fb8faf084536498751871dffe3af0d9de0837e89f383eac725ad46f73a928eb538797017ef770533cd194b774c76551a8501bd34d51768c8993722f49abba7120ecb5df8448cc3672aa2366726f29da66961f7cfc1326f2c3b71ecb3c9cee7a214c86752e016dbaf1bb6ac2a5c1a9ff3dafad198540b144429aef1b2ffcfa776017f9d515fa7f086ca456700dfb84997affd4cce60e1f798bdc48e804e107af2640d02e78af83776347fd1e3de0a82976395ac236fee6365379bcb2deb42dab7f10b23ef7f8b8e7f316d890a078db672c1a42c7c5a9cfbb91705a2cac476f61394b4b93f5219b6008401f63eebaf82ad2482460fdbfc50f4b5b58afa2307fc1c8c41499fcb41f8ba62ca0a6deea9a937fa0b7beeda8c4764bcad6fbc8a61f5860924bcda6613d02ac0d09181bc519d431248db64e354e495269447647935b6dbf4ea7f673f3928d116727a3c8b3761e3d7059eb7bff04ec18a52482b458ba2e30a4864f8d98f10d715360e3704bf00709ebaca6c6597f7146f7999f943e53b6227c26da2befb2da0e8ad23b6592bc993535d6d2ab2ffcca10d662bb20ee1a6c02548ecb5597acc9c6f9ca8ac85846b843c198a043de0a492c8a4e9670152893fd6e9f94c8ec98752f652c8ce14083f42f4665b47326f7cd66d358743e20a38476ca2cb6e0baf1b068164eaa1721f10bbfb9be6eea3d55c765a945174f19d40ec559b0626d3925735c1d04a77435b626a9d392471d550e0489f4ac76260bcc51dfac3c017bfaf94a7e5ebeae728c89f75de338f542813b5c50e8c40fa18dd6d38cac811ef09920d5b0d23fe575fbc3c273de53bd29d06215f49fb22060bcf2a423d8b7f1d2b9b06412d9c63ea62651c5a0c3ee88fe5e133e3cc24d0adfc7817c25bd76221ea6991b87af6898140978d585b1da74caf1ba607584880d2f7ea100bea2cdd8b23548a98583788d6f0581b72d960c3dbf63ed43be6e5aaeb3bb9f0c5f1bc3ccc0d7b897d84d906127c7a791efb3fbdc13fa9dfae54c8dd101f125f0f6602b4b1674c15cd8b61292236166a460b7b284602c3018c78f7d7ecc7767fafb86b77f5881e2e8647366e8efb4332cef71a69e91cf1937e73a20e1c705b06d944ba3d4d4a3bedbbe3a4b26aac3208c0be9ceae87b59e89bc3e94c9bef9b147db5af78432237d242a28f7dd901c920297ee91a031829f7791e4e7459a85948d498d6382682a277bc499c8673eb0881682debc1a0933e6b79b9e4f7cbf82e124264d676a6f919cb8c2cdd0ed1c2742556fe018192c3141636fa2aacbced3dce917222c4e76a3a4a7eaf6fc0000000000000000000000000000000000000000000000000000000000000000000000000d13212c01",
        "0010a724f6778659b3fb919b1df75a3a0b9a45ed45f914a2f93500e4ab068c96434519cac6d284680a6b6542e234e7e1cf57af7cbc30496cbdd3dbdef7b24da68bbd6816630f75692b7eaa039c90a411be8975a851525c1e3442598e07ca95a24036eb3daa71df5f8b8c9d05d17ae485557fbd73d0b3b8f4fc2cfa6bc97d18d1dea702c818644b6c0e09f9cc52c27c881a344b63acae55322798563d98d87eb82165944f72a29a2757d0e2eb1b369da7206b60271b14b828490a65e8180cc905f2570248be3465f6108b7e07f273c57b35265b25b1ac321d3ad45db3fb6ed534254a48baa762daea98f680a7830f9582b49cb84ffce19e90ab827d989af118cf20323854b3807358dd4341025d4ee8593ad6e47eff57a470f72e06573fd5cb2553aabd6ebbf961a35f4d9ac2394c54fedb8c805a850d0b45039b582d8fc5417367c62021be90d5ea607a7fb7f49b33e7d9e5cdd8541da6a40284b45d813a68afc3396915392de358ea7a4979da4060f345f44ef7617c70c247ceecda32da9129b2db477dc0d7d3e2d0ee4adbf5bf2beedcbbf7dbf5ce1d8db32d1c66fa8135ab87ccbe13cba11517d795d2b098e0f538337bb8eaad8790010305fd7a5bc6bb2abef236573d1e9ce217be67255a9ddb58615b1409198d1d105aeff04b3dbed5481e361c500ac1570209ce6e13984f6cbd53ced54d8598db57c5944072bd875ff1f742e43a8e95ce2816333bf101bcffae5b28cdb398eaa3ac59b6b0682bce46dd6e25b511edceb76b3d3e6b97f8e992189c588994a0955c7b521ccd7feb8a72dd3ca72964eac9504e3006075278a3f68baafefea041fd0b31f892e793a035372f23dfd5ac6d7bfcc4d5c434965bd162e96e0d1a26c0e444aeef5f2d0a2b96adc59ba8cfb3af31a71bb46d1408dd5e20d89b2d8b575f07bee7cdd8811d65c91b8313ac6a666fa6a8eb0d95b32443cf58acf025d9aa8e4d9debd3bd8238e5e000b3c97f80b68d0bd9ead38c858217e11565ee1c7b3eb9a19112cb3889f20458ed0d50445f8c097f6b61854ae3bbc097114ce5bc5ff6a280df21d8da647bb804cb64a8c518ebf75c59b0e1696392107165c03806e2d5bd5747005ea1a2512c9a3271fc4b0cdea6096af37ef51ced0558021ba3e36e18d44e9a2bd6118e7e47b0a09c707391157797bf9d1c1ea4e82093d035c52a3ee60c5ee99b2780fdc7458d55492d183005570eb7aa86e8df1048641915a90505a553313f9f50a180e08079fcc15a5ad90380cdcafd27632263cc988f3ba571f67acd6c6e6e7943d02addc31eaf655242428c92c2106c9af16586d2049ca67614b9bba5077031824c6d217966b76e7a67a3b730baf55a5b72b56cf516d8283b2d33b8848a00d5450929207cbe5e5e4e61e77ccbb76ded94f52e2d44f41b756d3ed5d4ed57c83d7a311e5f8b3b20620be78c7865300ad33519528fc531d519d6f172370772fd19c4857bccfa9668358992307632bfee65e4f72b364388b7ef3f111010771f04d7d8994cd05b06595958f05b6b46266a8908086cfc2671487bd9037f1563ddfdfa85ab565a764ed31ba9ea7c36a282a596a746754325cfc8861ca514acf9922be4efb36ded3911d6b7f2c0dab8fd993df6cd96cd838b020478a77b6c50a8b56f1138cf5f9755172b538b21299683d3d92f0a4b680c7c6693f5f5c8199e2969de0386506aabe1a70d8ff530846af871b20f4e3834e26cb05f8325df7920d102d20df9967cee25006fdc63e57bb34c562ec65570d6a7b1ab5f6c460ee196e963ae5fd914614c4b4a691a5704edb4123c401c6db804c7bd257bea5d9f14475c6e703356f2a50b11fcc102"
      ],
      "sequence": 4294967294
    }
  ],
  "vout": [
    {
      "value": 1.0,
      "n": 0,
      "scriptPubKey": {
        "asm": "OP_RETURN 8d49f24f205f94b1177981f947afbc54c3db20b3db8ce1431c0121bb92544874 5f28efce2a027f7f7b6fac426a1524a1f384ca263827c8ca1bebe3133f9f930e7f08cfee0a225f5f5b4f8c624a350481d3a4ea061807e8ea3bcbc3331fbfb32e1f68af8e6a423f3f3b2fec022a5564e1b3c48a667867888a5baba3537fdfd34e3f488fae4a621f1f1b0fcc220a7544c193e4aa465847a8aa7b8b83735ffff36edfa86f4eaa82fffffbef2cc2ea95a42173044aa6b8a7484a9b6b6393bf1f138eff884f6e8aa2dfdfdbcf0ce2cab5840153246a869887686abb4b43b39f3f33ae9fe82f0eeac2bfbfbbaf6c82aad5e46133440ae6f8e7080adb2b23d3ff5f53cebfc80f2ecae29f9f9b8f4ca28af5c44113642ac6d8c7282afb0b03f3df7f73ee5f28efce2a027f7f7b6fac426a1524a1f384ca263827c8ca1bebe3133f9f930e7f08cfee0a225f5f5b4f8c624a350481d3a4ea061807e8ea3bcbc3331fbfb32e1f68af8e6a423f3f3b2fec022a5564e1b3c48a667867888a5baba3537fdfd34e3f488fae4a621f1f1b0fcc220a7544c193e4aa465847a8aa7b8b83735ffff36edfa86f4eaa82fffffbef2cc2ea95a42173044aa6b8a7484a9b6b6393bf1f138eff884f6e8aa2dfdfdbcf0ce2cab5840153246a869887686abb4b43b39f3f33ae9fe82f0eeac2bfbfbbaf6c82aad5e46133440ae6f8e7080adb2b23d3ff5f53cebfc80f2ecae29f9f9b8f4ca28af5c44113642ac6d8c7282afb0b03f3df7f73ee5f28efce2a027f7f7b6fac426a1524a1f384ca263827c8ca1bebe3133f9f930e7f08cfee0a225f5f5b4f8c624a350481d3a4ea061807e8ea3bcbc3331fbfb32e1f68af8e6a423f3f3b2fec022a5564e1b3c48a667867888a5baba3537fdfd34e3f488fae4a621f1f1b0fcc220a7544c193e4aa465847a8aa7b8b83735ffff36edfa86f4eaa82fffffbef2cc2ea95a42173044aa6b8a7484a9b6b6393bf1f138eff884f6e8aa2dfdfdbcf0ce2cab5840153246a869887686abb4b43b39f3f33ae9fe82f0eeac2bfbfbbaf6c82aad5e46133440ae6f8e7080adb2b23d3ff5f53cebfc80f2ecae29f9f9b8f4ca28af5c44113642ac6d8c7282afb0b03f3df7f73ee5f28efce2a027f7f7b6fac426a1524a1f384ca263827c8ca1bebe3133f9f930e7f08cfee0a225f5f5b4f8c624a350481d3a4ea061807e8ea3bcbc3331fbfb32e1f68af8e6a423f3f3b2fec022a5564e1b3c48a667867888a5baba3537fdfd34e3f488fae4a621f1f1b0fcc220a7544c193e4aa465847a8aa7b8b83735ffff36edfa86f4eaa82fffffbef2cc2ea95a42173044aa6b8a7484a9b6b6393bf1f138eff884f6e8aa2dfdfdbcf0ce2cab5840153246a869887686abb4b43b39f3f33ae9fe82f0eeac2bfbfbbaf6c82aad5e46133440ae6f8e7080adb2b23d3ff5f53cebfc80f2ecae29f9f9b8f4ca28af5c44113642ac6d8c7282afb0b03f3df7f73ee5f28efce2a027f7f7b6fac426a1524a1f384ca263827c8ca1bebe3133f9f930e7f08cfee0a225f5f5b4f8c624a350481d3a4ea061807e8ea3bcbc3331fbfb32e1f68af8e6a423f3f3b2fec022a5564e1b3c48a667867888a5baba3537fdfd34e3f488fae4a621f1f1b0fcc220a7544c193e4aa465847a8aa7b8b83735ffff36edfa86f4eaa82fffffbef2cc2ea95a421a66775c0b4d77a8cceda3f44024ddcd17fbb5cc28e101f5105a08b4af37db9eb",
        "hex": "6a208d49f24f205f94b1177981f947afbc54c3db20b3db8ce1431c0121bb925448744db0045f28efce2a027f7f7b6fac426a1524a1f384ca263827c8ca1bebe3133f9f930e7f08cfee0a225f5f5b4f8c624a350481d3a4ea061807e8ea3bcbc3331fbfb32e1f68af8e6a423f3f3b2fec022a5564e1b3c48a667867888a5baba3537fdfd34e3f488fae4a621f1f1b0fcc220a7544c193e4aa465847a8aa7b8b83735ffff36edfa86f4eaa82fffffbef2cc2ea95a42173044aa6b8a7484a9b6b6393bf1f138eff884f6e8aa2dfdfdbcf0ce2cab5840153246a869887686abb4b43b39f3f33ae9fe82f0eeac2bfbfbbaf6c82aad5e46133440ae6f8e7080adb2b23d3ff5f53cebfc80f2ecae29f9f9b8f4ca28af5c44113642ac6d8c7282afb0b03f3df7f73ee5f28efce2a027f7f7b6fac426a1524a1f384ca263827c8ca1bebe3133f9f930e7f08cfee0a225f5f5b4f8c624a350481d3a4ea061807e8ea3bcbc3331fbfb32e1f68af8e6a423f3f3b2fec022a5564e1b3c48a667867888a5baba3537fdfd34e3f488fae4a621f1f1b0fcc220a7544c193e4aa465847a8aa7b8b83735ffff36edfa86f4eaa82fffffbef2cc2ea95a42173044aa6b8a7484a9b6b6393bf1f138eff884f6e8aa2dfdfdbcf0ce2cab5840153246a869887686abb4b43b39f3f33ae9fe82f0eeac2bfbfbbaf6c82aad5e46133440ae6f8e7080adb2b23d3ff5f53cebfc80f2ecae29f9f9b8f4ca28af5c44113642ac6d8c7282afb0b03f3df7f73ee5f28efce2a027f7f7b6fac426a1524a1f384ca263827c8ca1bebe3133f9f930e7f08cfee0a225f5f5b4f8c624a350481d3a4ea061807e8ea3bcbc3331fbfb32e1f68af8e6a423f3f3b2fec022a5564e1b3c48a667867888a5baba3537fdfd34e3f488fae4a621f1f1b0fcc220a7544c193e4aa465847a8aa7b8b83735ffff36edfa86f4eaa82fffffbef2cc2ea95a42173044aa6b8a7484a9b6b6393bf1f138eff884f6e8aa2dfdfdbcf0ce2cab5840153246a869887686abb4b43b39f3f33ae9fe82f0eeac2bfbfbbaf6c82aad5e46133440ae6f8e7080adb2b23d3ff5f53cebfc80f2ecae29f9f9b8f4ca28af5c44113642ac6d8c7282afb0b03f3df7f73ee5f28efce2a027f7f7b6fac426a1524a1f384ca263827c8ca1bebe3133f9f930e7f08cfee0a225f5f5b4f8c624a350481d3a4ea061807e8ea3bcbc3331fbfb32e1f68af8e6a423f3f3b2fec022a5564e1b3c48a667867888a5baba3537fdfd34e3f488fae4a621f1f1b0fcc220a7544c193e4aa465847a8aa7b8b83735ffff36edfa86f4eaa82fffffbef2cc2ea95a42173044aa6b8a7484a9b6b6393bf1f138eff884f6e8aa2dfdfdbcf0ce2cab5840153246a869887686abb4b43b39f3f33ae9fe82f0eeac2bfbfbbaf6c82aad5e46133440ae6f8e7080adb2b23d3ff5f53cebfc80f2ecae29f9f9b8f4ca28af5c44113642ac6d8c7282afb0b03f3df7f73ee5f28efce2a027f7f7b6fac426a1524a1f384ca263827c8ca1bebe3133f9f930e7f08cfee0a225f5f5b4f8c624a350481d3a4ea061807e8ea3bcbc3331fbfb32e1f68af8e6a423f3f3b2fec022a5564e1b3c48a667867888a5baba3537fdfd34e3f488fae4a621f1f1b0fcc220a7544c193e4aa465847a8aa7b8b83735ffff36edfa86f4eaa82fffffbef2cc2ea95a421a66775c0b4d77a8cceda3f44024ddcd17fbb5cc28e101f5105a08b4af37db9eb",
        "type": "nulldata"
      }
    },
    {
      "value": 499982.7127,
      "n": 1,
      "scriptPubKey": {
        "asm": "1 c7db17421a2e617c33ce4448cc4680adedffdbe257a72f05561611cbad0ba6f4",
        "hex": "5120c7db17421a2e617c33ce4448cc4680adedffdbe257a72f05561611cbad0ba6f4",
        "reqSigs": 1,
        "type": "witness_v1_scripthash",
        "addresses": [
          "3QJmnh"
        ]
      }
    }
  ],
  "blockhash": "73359bfd0a4582986ffd1e7664419d7a0ef7b090643ab62685454f7a097cd719",
  "confirmations": 1,
  "time": 1764179247,
  "blocktime": 1764179247
}