{
  "hex": "0100000000010179b08a3190d969cb45acab2773dd125eb131644d97297447e1e0381f4dc8f7c60100000000feffffff0200e1f50500000000fdd5046a2031baa96ea4a7d943636da8c2b18d6f09a9ad32b73d7a50140fa4d7caeea7f6c74db004e4a526939425d8e9760bf145aaf2f04046967dd997946d22e22e5c9fff108165c48506b3b405f8c9562bd1658ad2d06066b65df9b7b44d02c20e7cbfdf30a145a4e566d3d46598a9364bb105eab2b00006d63d99d7d42d62a26e1cdfbf50c12584c546f3f445b889166b9125ca92902026f61db9f7f40d42824e3cff9f70e1056425a61314a55869f68b71c52a7270c0c616fd591714eda262aedc1f7f9001e54405863334857849d6ab51e50a5250e0e636dd793734cd82428efc3f5fb021c52465e65354e51829b6cb31856a3230808656bd195754ade222ee9c5f3fd041a50445c67374c5380996eb11a54a1210a0a6769d3977748dc202cebc7f1ff06185e4a526939425d8e9760bf145aaf2f04046967dd997946d22e22e5c9fff108165c48506b3b405f8c9562bd1658ad2d06066b65df9b7b44d02c20e7cbfdf30a145a4e566d3d46598a9364bb105eab2b00006d63d99d7d42d62a26e1cdfbf50c12584c546f3f445b889166b9125ca92902026f61db9f7f40d42824e3cff9f70e1056425a61314a55869f68b71c52a7270c0c616fd591714eda262aedc1f7f9001e54405863334857849d6ab51e50a5250e0e636dd793734cd82428efc3f5fb021c52465e65354e51829b6cb31856a3230808656bd195754ade222ee9c5f3fd041a50445c67374c5380996eb11a54a1210a0a6769d3977748dc202cebc7f1ff06185e4a526939425d8e9760bf145aaf2f04046967dd997946d22e22e5c9fff108165c48506b3b405f8c9562bd1658ad2d06066b65df9b7b44d02c20e7cbfdf30a145a4e566d3d46598a9364bb105eab2b00006d63d99d7d42d62a26e1cdfbf50c12584c546f3f445b889166b9125ca92902026f61db9f7f40d42824e3cff9f70e1056425a61314a55869f68b71c52a7270c0c616fd591714eda262aedc1f7f9001e54405863334857849d6ab51e50a5250e0e636dd793734cd82428efc3f5fb021c52465e65354e51829b6cb31856a3230808656bd195754ade222ee9c5f3fd041a50445c67374c5380996eb11a54a1210a0a6769d3977748dc202cebc7f1ff06185e4a526939425d8e9760bf145aaf2f04046967dd997946d22e22e5c9fff108165c48506b3b405f8c9562bd1658ad2d06066b65df9b7b44d02c20e7cbfdf30a145a4e566d3d46598a9364bb105eab2b00006d63d99d7d42d62a26e1cdfbf50c12584c546f3f445b889166b9125ca92902026f61db9f7f40d42824e3cff9f70e1056425a61314a55869f68b71c52a7270c0c616fd591714eda262aedc1f7f9001e54405863334857849d6ab51e50a5250e0e636dd793734cd82428efc3f5fb021c52465e65354e51829b6cb31856a3230808656bd195754ade222ee9c5f3fd041a50445c67374c5380996eb11a54a1210a0a6769d3977748dc202cebc7f1ff06185e4a526939425d8e9760bf145aaf2f04046967dd997946d22e22e5c9fff108165c48506b3b405f8c9562bd1658ad2d06066b65df9b7b44d02c20e7cbfdf30a145a4e566d3d46598a9364bb105eab2b00006d63d99d7d42d62a26e1cdfbf50c12584c546f3f445b889166b9125ca92902026f61db9f7f40d42824e3cff9f70e1056425a61314a55869f68b71c52a7270c069625f2a1bbe485966997190dcc85ad32aa3f5c0a2b1954f28c59bd77609031eb0767139792d0000225120b2c583acfb1461f12d1e1e55b396e620c2360cf602d2adfc6e35850f5e919f1302fd75097f8ac6c5073d4d6c5956144c67a47aa7fa11defd89ba07d9687c829f5694184ce61070ddd50a5d32edced5a956038ac3b3d2a2efa4231cba3b09155d7cb9fd77fd6ae0e869321c8f274f8bfd62d3af503f2c8a24f6bec594fd4071b2577eb142c35fd376c9765bcb41c98bbc162101330fce80a82ede524f4f4d0d66571b0c17b395efe2da0f80e528fca8e54af672ea7f8d6d793185ed366eb7869723910dc8c136430e9ee4044175fbd25e7b0b54145d47aa107dc2843233de18a12b466631d7982f31ba8971abe71599e0360f73af36feb01c3a129c42f32aff85333316967ac2f593eaa7ed6bd3bb4c57fb2b188b105b10d66a0f20b47211a0aadf2005c0e492940dd50a60f1194a0bb0ca0a4796912504b762b1aea46b4478e40c71fcf4a79b61d0219d20ac68aac825430ce40cad386cfe53e5e8259f8ba69e7b3c35ef70ae58115d85f9697920238d18103f932cef2b1b4a21333f5586446ede82bf0ba6479723134969132ebf8f06c1dd85a39725228beca36d4d318ccf488239e8603847a21a1e44f0ee35fc1399449799a2d8f5e0a39fefb5f2fc7510a54fcb6d61448e6c71d05093c269ffe8ac1a108137c5651c28fb0d21f046ce048159f72aa05270b69fc589f2556ae2adcee3fe7749890f183b89e47e50de2ef714be5310e2ccd4a6f6530c87a8f7f511c4f0d9b63dc4108252b4c91cde17ed7fb352c22e211b25aa75a93fd4dfe8b867fc4da0bb4ff1f80e5eb88d5d88e2a6d16ca548d8d6e07b8894dc18fa9b24d8797233981e8fed9bb6e00e7f9106fbb993fb57cd2738e94b65aeceab384ae7cf09e17be4371c9c4aae3ec5a29f1709be17671231b7fb93c77b21fb738aabdba28b429558cbcb843c2c487e001e5ab37359936808295cb0bbe7f3d2c218efafdba767635d741734d90559cba68195cb52f63535f2d52c38dc02d58e1111364e26805a566963dd652a5bc4b805ec1d28855fbdc9b7d6aa090d4fa156f7bc3b94cf40b0b9748604651dc1644d154a5e1c8dc12e593774dcf87fd1608f45d6aee5c3219f55ba9ab51889032b3c554ec2d07db7f286fb23096a5f406a6b09635ee0f01ead0e0d0ad71723910558cf6c6e1082d14e51267f92131ad1d95e269799909d2f92a7a0670e92eb520a6c0ff366a25cad7661ebdf4ef4d757bb416094aa74c46e8deb707bcb5bec4cf19501c56e218679d96488bafb0454fe4f55036fb38b35864fcdc59974cfbc0f36f0e835a31566120528703c9370614f28522c24a0d02a431cc22ff5ce65378793ff8f7683dfe3ccdbf5c35e3a5a96501c6c3297308f5b8899159ad66faa4c0136090ff4c9bb6bc48f676e97002d9cc48ae37cdcbf9d4965bd9f92212f8c2794d41cd87606de6e10ce9ad30a4c2d7c9a08a295ddf2679c18afa550ebf480537cc70c85de87d29a3ebcc355053b25e4b5828710ec2929c8bfcd440eede02096159f8512c9a35bbe3ee2f81ee87c840579b008d45e9a7c94ec59e46be56811a61fa3e0d37fd465c0da0e07f244ad03f678ec607e81c74afcb4cceb19ce8365869a33f8440089e4892b5a13539e02dd8adb1800895f433467ed3faeedaf0b2611aeaa61d4e8dce848bb35500101c49f188b089fd28c0e0a0cd8e9b440348eaea524c372cc9ed16992b56b29b2ae6fbc800bb34d24550a7b4b306ff675f6b3ecdbbb2874ae443012028963c94dca6cac883b24fddf0bc432b3ab050ebfd5070a6ae5e113cf48e098813512bfdc3ca1e7aaa6b74aa8ce9ae5f5aa284f112d8dd13fc3a2f6173f79284a2eac080fd865d9331173b6f2004234c31ca9f32f479bfa09e44e2f4f2dda3a9fd164f93ae7ad39993af1c19a9abf625603eaf73af9f4bfc7deb323ae764c137da8a2e25e3fcc5ac4f128fe57ba54d9549fe2e0af85f682c02cdb3d6b28bafbe9f70ccba7f74a7e31fc48cbe3071c531f580977bed8cc056cf35a939c60d450741994d6c922142d95329ec21de62d756b444b08a7253931da21819e9a41c38a0008317624279fd1a2058df5bfa4c88b566011f935c309fe5dca60ee3f9f859db28dd328512e9cdf1b03ea1f24de9adb154bdd4734423535337fabf3456f7073880a2b6665268b53dc87695875f34f424569df9c883fc675a17fabd83423b8889f49f0b86d88a14ade589a69e440fc45180adc6d862daf45b92c349d613eb428b4df3bb2ef51501aba44c635ae1918a3f76bed18a1db11f8a6e6410502dfeace386563e5d4e4658a097e758b73884fd288406b99efb929b26a4b3af19f98f7b5c46426f97889291e9f742748ee6c7b410ecf2dd5010257669287af9bc1043d7b6606b92146042221799f2ea6fae9e08dacecf213c59e3f961288df1a0210bb83e0039391cf6c9e1b62c29044f852855d277e871004b931bd0d62147b41cd55b1bc4ae5e3af7a921565678cc3528f8f6d13369169863bc19b978f11eba9f93aa15b421a20de218badb05e2ac4b8c147208353705052a109df421af1fc265b371a06655d4bcb7c39afd0355fa6eb17e4ee85a987a1cfeac2051579c9fb0f0c95a95468d54adb10a5b8949423ba2d5838d7cbea06f87839652841b395b45c4b3856bd32f7eadc82bd3aa00bcfa291683410ef18f0954f20f01dfe6652ce3f5e20d8bfe06a94d979166fee77a9cb80360d89fda85110ee47c3a91bde8af601131dd9eea6282b2faaf1b325250d422ccbe2cfe04454b67ad78fbe3cc6061a1fd5f2086f4fd1ef8aa99ec4360ab7be99d1304a8fe65e2709c4b887b4c2b2505d228baf336f1d8b1e2034016bb3652908d8241f63a2c670601f41c75e13b19e6e51822e9eb02c5b7eb4caccdb968bb2f1f7509125ec9bb3695a92f44a2981296ca1e4ddfc745c236dbb1b61a1201403ffc14a420fcd4fde5cb512fcc4efb4b59ebd57da2e1050ba9184b997771ea4392c02f1f5ae5109f4b2c4e10a3c5b3be8bb15da89e4b3273bec57524d5043328bd6837654d6805506cfc6536284d3c3569d01102e0aca26894200bfc1a11d06697d09cf1861f38868a47c1b613dcc8cc30d41b569a89381ed558b6959a4bbd5f654b32e6d63362d71b67b4a81a6d4a4612f13c14da8c268a849238f5a93753ea7673ec35c2d5ec8e368d6f9b1fc95fbd6999db734b776b1897cc419879f97fa32bca8e4f834e4a770e257aaf629846287d4d229c037ece4db3a21372635f3edf22bb7deb09fb1d51f6ff9a65db096760a1d3d067e4b3848430cdf80996e2f7834375bd29b5192ef6287a06e3626b2be220409cdb1eebf3e94b6914f050d1a3a3b609498c4c5cbfe002e3b4952567577a3b8c8d7f2323350516a8084babec7d2eef20124315d76878895a1aab8cdd4e6e9f8fa000000000000000000000000000000000000000000000000000c19263701fd21050007cc7e45d3e51d38b17e9a7afa9212464e0ff316bb9e0b3a0b798ae3f42467ca61243dba5008d27254ea1d0142f3bc27e97c4e77584eebc089bd5da1479faa30799875470733b472bcb8af692d15ea8f4b6ed9785c85cfb9c5b7b875bf84b125e729d2d320b0681f9d2a1bdc13738004f044e02ec69fc8246a5a54c1a6f0568b52995927d75e1f6639189f361ac236898f74a41269a95ae8eda238a1658b2bf4235df9b64091bea8ef4660b6078b0bdbc6d563befcd34296eeb8f17ab6e314e76e113c02c7edbbe5f4990dadd4722a1458402a799a96f4a9b7b22dd430aafb94cc912ee99a2ebe0f702b878dda5e55ec3f1c674b759eb6982d1a4857dec673e267a30cceb923a75a5d73db934a607c5010e62e07344cc187c0248a48b12c2358ad6b62750224f78c1bab06d789b16fbfc8cb4d190931b6968f45d9892f94bf3bb8e4a89387bef04ca1561b1a11c354efbaf2fd5538765e4003532319552c77389fc4b1f50eeca3244fa611af4f8bcfd9f59c17decb7571e0f044d962ea8fccf73134f5ce2c4cb7d930177cab41766d277a037a3e1230a671f855cadd71947418ea141ecb1b5837d62751fa15f4ac7d81f2cb3610393ee8c525822665858fce9b60deaab73d82493cd12579c30c020a7eaea773b2fa55036c82b0fca9f79c6ec3b61b57ae74a2db59d0ea92a072bd34b47967b8f7114440c4dee27d394c01af11aa1002786d717607322b47a91f57280824e9ec3e30ec963be48a6b3e1a729fdc527eff1248c40e057fe23779fdf4919246d2a4ad938e3db68927ceafb0de7d65e5ed93064939041fa15a8b8cabd6bfff809117f74ccc52c1088a4db36c713245eab1298e1d6dbfaff933173edb529c54cb720e7e1f12a07670111ef76ee5ef44de2fc847a052c1fb26157aedaa89f0704cda8558447ef4998ab9fcfafaf362efe2a045162b56c6a6982b6632a8374965dd86039887f3725f881b23cbd135e31c1979428f5cbf0db1afd7b0cdefe6fb60322425cd8eeb069c9f3ab178509ac380271ef23bdb731455548b02d9160f3814312301fdad11d04d449c441ef95ab2718f155296cebc919c9799009b2254ea8eba9a01e98ae7ae3452e1f1010d1fafc86868024c3faa5c407b6ec0ed1c737dfc17160378e4f36f9c7f5256b82b9ae2ece51f99ee851565d7e4c5a4e1068165c1e4cf6afef70dba16ffe6faa3e2d55a24ba4909ef993e80f8da988149c0e2a578e9d8cea0eac43e720e90836c7d23cedad7a979c816ad33108b00b18dc35e1c8145455c2c2dccba6519cf8120c2d4c5bc7fb5e2d70d591c14c183b8a7beef05e86e1d8282cbee9737a592d5946d7ada66a3e982e16147a1c6d891093ce91e847b83a1412c97b707330c2ec7be15202a0d12686d03e0029cb54ccb3ec4b5bf652114660454844699ce0cd66945634fce0b00acd773b7a9b21daae579f26e8d51f272ff6e59fb846cb4180c4bec413f5796b17c4a035a762eb6fc24844b2435dc59e3781ff05414fd2e20ab8e3fc3527127f6aba164cd7e7fef798936bf1453816313c4b1438a11893d92c1e2138eec4d59ba7ddab6e0c9cb4046058be958b62c569485bc5d0aad73654e0da265d22ff1a0d7fdd835f50c9b92fd2806c1dfca0aa683eb02ad24feb6a317380c4d3ac24e89d79cc7ce1a4f5944f1649b1279aac4013308dd40f1b2c51387c0834e30b6052704dd1d1a2cff47a1c73f68e4b466c9de28a46aba329df6be6f3f1a6a7d99d16ed2393d5a39dc9175f710c8993535b4b368df3286e452a36ef3f5c5d10759299a3693c011d22a4f67aafedefadf0c66ed77c42efbf93206d2f363cd376bc065036f000000",
  "txid": "a41de60582ebed9c7849907cb5d9e58ed062d6d8a4840f535aa23451029572e6",
  "hash": "8fc351ce3ca4b3e37c0969149c9b88fcfe1b714e37d73d2ba17bbdc048b46110",
  "size": 5085,
  "vsize": 2278,
  "version": 1,
  "locktime": 111,
  "vin": [
    {
      "txid": "c6f7c84d1f38e0e1477429974d6431b15e12dd7327abac45cb69d990318ab079",
      "vout": 1,
      "scriptSig": {
        "asm": "",
        "hex": ""
      },
      "txinwitness": [
        "7f8ac6c5073d4d6c5956144c67a47aa7fa11defd89ba07d9687c829f5694184ce61070ddd50a5d32edced5a956038ac3b3d2a2efa4231cba3b09155d7cb9fd77fd6ae0e869321c8f274f8bfd62d3af503f2c8a24f6bec594fd4071b2577eb142c35fd376c9765bcb41c98bbc162101330fce80a82ede524f4f4d0d66571b0c17b395efe2da0f80e528fca8e54af672ea7f8d6d793185ed366eb7869723910dc8c136430e9ee4044175fbd25e7b0b54145d47aa107dc2843233de18a12b466631d7982f31ba8971abe71599e0360f73af36feb01c3a129c42f32aff85333316967ac2f593eaa7ed6bd3bb4c57fb2b188b105b10d66a0f20b47211a0aadf2005c0e492940dd50a60f1194a0bb0ca0a4796912504b762b1aea46b4478e40c71fcf4a79b61d0219d20ac68aac825430ce40cad386cfe53e5e8259f8ba69e7b3c35ef70ae58115d85f9697920238d18103f932cef2b1b4a21333f5586446ede82bf0ba6479723134969132ebf8f06c1dd85a39725228beca36d4d318ccf488239e8603847a21a1e44f0ee35fc1399449799a2d8f5e0a39fefb5f2fc7510a54fcb6d61448e6c71d05093c269ffe8ac1a108137c5651c28fb0d21f046ce048159f72aa05270b69fc589f2556ae2adcee3fe7749890f183b89e47e50de2ef714be5310e2ccd4a6f6530c87a8f7f511c4f0d9b63dc4108252b4c91cde17ed7fb352c22e211b25aa75a93fd4dfe8b867fc4da0bb4ff1f80e5eb88d5d88e2a6d16ca548d8d6e07b8894dc18fa9b24d8797233981e8fed9bb6e00e7f9106fbb993fb57cd2738e94b65aeceab384ae7cf09e17be4371c9c4aae3ec5a29f1709be17671231b7fb93c77b21fb738aabdba28b429558cbcb843c2c487e001e5ab37359936808295cb0bbe7f3d2c218efafdba767635d741734d90559cba68195cb52f63535f2d52c38dc02d58e1111364e26805a566963dd652a5bc4b805ec1d28855fbdc9b7d6aa090d4fa156f7bc3b94cf40b0b9748604651dc1644d154a5e1c8dc12e593774dcf87fd1608f45d6aee5c3219f55ba9ab51889032b3c554ec2d07db7f286fb23096a5f406a6b09635ee0f01ead0e0d0ad71723910558cf6c6e1082d14e51267f92131ad1d95e269799909d2f92a7a0670e92eb520a6c0ff366a25cad7661ebdf4ef4d757bb416094aa74c46e8deb707bcb5bec4cf19501c56e218679d96488bafb0454fe4f55036fb38b35864fcdc59974cfbc0f36f0e835a31566120528703c9370614f28522c24a0d02a431cc22ff5ce65378793ff8f7683dfe3ccdbf5c35e3a5a96501c6c3297308f5b8899159ad66faa4c0136090ff4c9bb6bc48f676e97002d9cc48ae37cdcbf9d4965bd9f92212f8c2794d41cd87606de6e10ce9ad30a4c2d7c9a08a295ddf2679c18afa550ebf480537cc70c85de87d29a3ebcc355053b25e4b5828710ec2929c8bfcd440eede02096159f8512c9a35bbe3ee2f81ee87c840579b008d45e9a7c94ec59e46be56811a61fa3e0d37fd465c0da0e07f244ad03f678ec607e81c74afcb4cceb19ce8365869a33f8440089e4892b5a13539e02dd8adb1800895f433467ed3faeedaf0b2611aeaa61d4e8dce848bb35500101c49f188b089fd28c0e0a0cd8e9b440348eaea524c372cc9ed16992b56b29b2ae6fbc800bb34d24550a7b4b306ff675f6b3ecdbbb2874ae443012028963c94dca6cac883b24fddf0bc432b3ab050ebfd5070a6ae5e113cf48e098813512bfdc3ca1e7aaa6b74aa8ce9ae5f5aa284f112d8dd13fc3a2f6173f79284a2eac080fd865d9331173b6f2004234c31ca9f32f479bfa09e44e2f4f2dda3a9fd164f93ae7ad39993af1c19a9abf625603eaf73af9f4bfc7deb323ae764c137da8a2e25e3fcc5ac4f128fe57ba54d9549fe2e0af85f682c02cdb3d6b28bafbe9f70ccba7f74a7e31fc48cbe3071c531f580977bed8cc056cf35a939c60d450741994d6c922142d95329ec21de62d756b444b08a7253931da21819e9a41c38a0008317624279fd1a2058df5bfa4c88b566011f935c309fe5dca60ee3f9f859db28dd328512e9cdf1b03ea1f24de9adb154bdd4734423535337fabf3456f7073880a2b6665268b53dc87695875f34f424569df9c883fc675a17fabd83423b8889f49f0b86d88a14ade589a69e440fc45180adc6d862daf45b92c349d613eb428b4df3bb2ef51501aba44c635ae1918a3f76bed18a1db11f8a6e6410502dfeace386563e5d4e4658a097e758b73884fd288406b99efb929b26a4b3af19f98f7b5c46426f97889291e9f742748ee6c7b410ecf2dd5010257669287af9bc1043d7b6606b92146042221799f2ea6fae9e08dacecf213c59e3f961288df1a0210bb83e0039391cf6c9e1b62c29044f852855d277e871004b931bd0d62147b41cd55b1bc4ae5e3af7a921565678cc3528f8f6d13369169863bc19b978f11eba9f93aa15b421a20de218badb05e2ac4b8c147208353705052a109df421af1fc265b371a06655d4bcb7c39afd0355fa6eb17e4ee85a987a1cfeac2051579c9fb0f0c95a95468d54adb10a5b8949423ba2d5838d7cbea06f87839652841b395b45c4b3856bd32f7eadc82bd3aa00bcfa291683410ef18f0954f20f01dfe6652ce3f5e20d8bfe06a94d979166fee77a9cb80360d89fda85110ee47c3a91bde8af601131dd9eea6282b2faaf1b325250d422ccbe2cfe04454b67ad78fbe3cc6061a1fd5f2086f4fd1ef8aa99ec4360ab7be99d1304a8fe65e2709c4b887b4c2b2505d228baf336f1d8b1e2034016bb3652908d8241f63a2c670601f41c75e13b19e6e51822e9eb02c5b7eb4caccdb968bb2f1f7509125ec9bb3695a92f44a2981296ca1e4ddfc745c236dbb1b61a1201403ffc14a420fcd4fde5cb512fcc4efb4b59ebd57da2e1050ba9184b997771ea4392c02f1f5ae5109f4b2c4e10a3c5b3be8bb15da89e4b3273bec57524d5043328bd6837654d6805506cfc6536284d3c3569d01102e0aca26894200bfc1a11d06697d09cf1861f38868a47c1b613dcc8cc30d41b569a89381ed558b6959a4bbd5f654b32e6d63362d71b67b4a81a6d4a4612f13c14da8c268a849238f5a93753ea7673ec35c2d5ec8e368d6f9b1fc95fbd6999db734b776b1897cc419879f97fa32bca8e4f834e4a770e257aaf629846287d4d229c037ece4db3a21372635f3edf22bb7deb09fb1d51f6ff9a65db096760a1d3d067e4b3848430cdf80996e2f7834375bd29b5192ef6287a06e3626b2be220409cdb1eebf3e94b6914f050d1a3a3b609498c4c5cbfe002e3b4952567577a3b8c8d7f2323350516a8084babec7d2eef20124315d76878895a1aab8cdd4e6e9f8fa000000000000000000000000000000000000000000000000000c19263701",
        "0007cc7e45d3e51d38b17e9a7afa9212464e0ff316bb9e0b3a0b798ae3f42467ca61243dba5008d27254ea1d0142f3bc27e97c4e77584eebc089bd5da1479faa30799875470733b472bcb8af692d15ea8f4b6ed9785c85cfb9c5b7b875bf84b125e729d2d320b0681f9d2a1bdc13738004f044e02ec69fc8246a5a54c1a6f0568b52995927d75e1f6639189f361ac236898f74a41269a95ae8eda238a1658b2bf4235df9b64091bea8ef4660b6078b0bdbc6d563befcd34296eeb8f17ab6e314e76e113c02c7edbbe5f4990dadd4722a1458402a799a96f4a9b7b22dd430aafb94cc912ee99a2ebe0f702b878dda5e55ec3f1c674b759eb6982d1a4857dec673e267a30cceb923a75a5d73db934a607c5010e62e07344cc187c0248a48b12c2358ad6b62750224f78c1bab06d789b16fbfc8cb4d190931b6968f45d9892f94bf3bb8e4a89387bef04ca1561b1a11c354efbaf2fd5538765e4003532319552c77389fc4b1f50eeca3244fa611af4f8bcfd9f59c17decb7571e0f044d962ea8fccf73134f5ce2c4cb7d930177cab41766d277a037a3e1230a671f855cadd71947418ea141ecb1b5837d62751fa15f4ac7d81f2cb3610393ee8c525822665858fce9b60deaab73d82493cd12579c30c020a7eaea773b2fa55036c82b0fca9f79c6ec3b61b57ae74a2db59d0ea92a072bd34b47967b8f7114440c4dee27d394c01af11aa1002786d717607322b47a91f57280824e9ec3e30ec963be48a6b3e1a729fdc527eff1248c40e057fe23779fdf4919246d2a4ad938e3db68927ceafb0de7d65e5ed93064939041fa15a8b8cabd6bfff809117f74ccc52c1088a4db36c713245eab1298e1d6dbfaff933173edb529c54cb720e7e1f12a07670111ef76ee5ef44de2fc847a052c1fb26157aedaa89f0704cda8558447ef4998ab9fcfafaf362efe2a045162b56c6a6982b6632a8374965dd86039887f3725f881b23cbd135e31c1979428f5cbf0db1afd7b0cdefe6fb60322425cd8eeb069c9f3ab178509ac380271ef23bdb731455548b02d9160f3814312301fdad11d04d449c441ef95ab2718f155296cebc919c9799009b2254ea8eba9a01e98ae7ae3452e1f1010d1fafc86868024c3faa5c407b6ec0ed1c737dfc17160378e4f36f9c7f5256b82b9ae2ece51f99ee851565d7e4c5a4e1068165c1e4cf6afef70dba16ffe6faa3e2d55a24ba4909ef993e80f8da988149c0e2a578e9d8cea0eac43e720e90836c7d23cedad7a979c816ad33108b00b18dc35e1c8145455c2c2dccba6519cf8120c2d4c5bc7fb5e2d70d591c14c183b8a7beef05e86e1d8282cbee9737a592d5946d7ada66a3e982e16147a1c6d891093ce91e847b83a1412c97b707330c2ec7be15202a0d12686d03e0029cb54ccb3ec4b5bf652114660454844699ce0cd66945634fce0b00acd773b7a9b21daae579f26e8d51f272ff6e59fb846cb4180c4bec413f5796b17c4a035a762eb6fc24844b2435dc59e3781ff05414fd2e20ab8e3fc3527127f6aba164cd7e7fef798936bf1453816313c4b1438a11893d92c1e2138eec4d59ba7ddab6e0c9cb4046058be958b62c569485bc5d0aad73654e0da265d22ff1a0d7fdd835f50c9b92fd2806c1dfca0aa683eb02ad24feb6a317380c4d3ac24e89d79cc7ce1a4f5944f1649b1279aac4013308dd40f1b2c51387c0834e30b6052704dd1d1a2cff47a1c73f68e4b466c9de28a46aba329df6be6f3f1a6a7d99d16ed2393d5a39dc9175f710c8993535b4b368df3286e452a36ef3f5c5d10759299a3693c011d22a4f67aafedefadf0c66ed77c42efbf93206d2f363cd376bc06503"
      ],
      "sequence": 4294967294
    }
  ],
  "vout": [
    {
      "value": 1.0,
      "n": 0,
      "scriptPubKey": {
        "asm": "OP_RETURN 31baa96ea4a7d943636da8c2b18d6f09a9ad32b73d7a50140fa4d7caeea7f6c7 e4a526939425d8e9760bf145aaf2f04046967dd997946d22e22e5c9fff108165c48506b3b405f8c9562bd1658ad2d06066b65df9b7b44d02c20e7cbfdf30a145a4e566d3d46598a9364bb105eab2b00006d63d99d7d42d62a26e1cdfbf50c12584c546f3f445b889166b9125ca92902026f61db9f7f40d42824e3cff9f70e1056425a61314a55869f68b71c52a7270c0c616fd591714eda262aedc1f7f9001e54405863334857849d6ab51e50a5250e0e636dd793734cd82428efc3f5fb021c52465e65354e51829b6cb31856a3230808656bd195754ade222ee9c5f3fd041a50445c67374c5380996eb11a54a1210a0a6769d3977748dc202cebc7f1ff06185e4a526939425d8e9760bf145aaf2f04046967dd997946d22e22e5c9fff108165c48506b3b405f8c9562bd1658ad2d06066b65df9b7b44d02c20e7cbfdf30a145a4e566d3d46598a9364bb105eab2b00006d63d99d7d42d62a26e1cdfbf50c12584c546f3f445b889166b9125ca92902026f61db9f7f40d42824e3cff9f70e1056425a61314a55869f68b71c52a7270c0c616fd591714eda262aedc1f7f9001e54405863334857849d6ab51e50a5250e0e636dd793734cd82428efc3f5fb021c52465e65354e51829b6cb31856a3230808656bd195754ade222ee9c5f3fd041a50445c67374c5380996eb11a54a1210a0a6769d3977748dc202cebc7f1ff06185e4a526939425d8e9760bf145aaf2f04046967dd997946d22e22e5c9fff108165c48506b3b405f8c9562bd1658ad2d06066b65df9b7b44d02c20e7cbfdf30a145a4e566d3d46598a9364bb105eab2b00006d63d99d7d42d62a26e1cdfbf50c12584c546f3f445b889166b9125ca92902026f61db9f7f40d42824e3cff9f70e1056425a61314a55869f68b71c52a7270c0c616fd591714eda262aedc1f7f9001e54405863334857849d6ab51e50a5250e0e636dd793734cd82428efc3f5fb021c52465e65354e51829b6cb31856a3230808656bd195754ade222ee9c5f3fd041a50445c67374c5380996eb11a54a1210a0a6769d3977748dc202cebc7f1ff06185e4a526939425d8e9760bf145aaf2f04046967dd997946d22e22e5c9fff108165c48506b3b405f8c9562bd1658ad2d06066b65df9b7b44d02c20e7cbfdf30a145a4e566d3d46598a9364bb105eab2b00006d63d99d7d42d62a26e1cdfbf50c12584c546f3f445b889166b9125ca92902026f61db9f7f40d42824e3cff9f70e1056425a61314a55869f68b71c52a7270c0c616fd591714eda262aedc1f7f9001e54405863334857849d6ab51e50a5250e0e636dd793734cd82428efc3f5fb021c52465e65354e51829b6cb31856a3230808656bd195754ade222ee9c5f3fd041a50445c67374c5380996eb11a54a1210a0a6769d3977748dc202cebc7f1ff06185e4a526939425d8e9760bf145aaf2f04046967dd997946d22e22e5c9fff108165c48506b3b405f8c9562bd1658ad2d06066b65df9b7b44d02c20e7cbfdf30a145a4e566d3d46598a9364bb105eab2b00006d63d99d7d42d62a26e1cdfbf50c12584c546f3f445b889166b9125ca92902026f61db9f7f40d42824e3cff9f70e1056425a61314a55869f68b71c52a7270c069625f2a1bbe485966997190dcc85ad32aa3f5c0a2b1954f28c59bd77609031e",
        "hex": "6a2031baa96ea4a7d943636da8c2b18d6f09a9ad32b73d7a50140fa4d7caeea7f6c74db004e4a526939425d8e9760bf145aaf2f04046967dd997946d22e22e5c9fff108165c48506b3b405f8c9562bd1658ad2d06066b65df9b7b44d02c20e7cbfdf30a145a4e566d3d46598a9364bb105eab2b00006d63d99d7d42d62a26e1cdfbf50c12584c546f3f445b889166b9125ca92902026f61db9f7f40d42824e3cff9f70e1056425a61314a55869f68b71c52a7270c0c616fd591714eda262aedc1f7f9001e54405863334857849d6ab51e50a5250e0e636dd793734cd82428efc3f5fb021c52465e65354e51829b6cb31856a3230808656bd195754ade222ee9c5f3fd041a50445c67374c5380996eb11a54a1210a0a6769d3977748dc202cebc7f1ff06185e4a526939425d8e9760bf145aaf2f04046967dd997946d22e22e5c9fff108165c48506b3b405f8c9562bd1658ad2d06066b65df9b7b44d02c20e7cbfdf30a145a4e566d3d46598a9364bb105eab2b00006d63d99d7d42d62a26e1cdfbf50c12584c546f3f445b889166b9125ca92902026f61db9f7f40d42824e3cff9f70e1056425a61314a55869f68b71c52a7270c0c616fd591714eda262aedc1f7f9001e54405863334857849d6ab51e50a5250e0e636dd793734cd82428efc3f5fb021c52465e65354e51829b6cb31856a3230808656bd195754ade222ee9c5f3fd041a50445c67374c5380996eb11a54a1210a0a6769d3977748dc202cebc7f1ff06185e4a526939425d8e9760bf145aaf2f04046967dd997946d22e22e5c9fff108165c48506b3b405f8c9562bd1658ad2d06066b65df9b7b44d02c20e7cbfdf30a145a4e566d3d46598a9364bb105eab2b00006d63d99d7d42d62a26e1cdfbf50c12584c546f3f445b889166b9125ca92902026f61db9f7f40d42824e3cff9f70e1056425a61314a55869f68b71c52a7270c0c616fd591714eda262aedc1f7f9001e54405863334857849d6ab51e50a5250e0e636dd793734cd82428efc3f5fb021c52465e65354e51829b6cb31856a3230808656bd195754ade222ee9c5f3fd041a50445c67374c5380996eb11a54a1210a0a6769d3977748dc202cebc7f1ff06185e4a526939425d8e9760bf145aaf2f04046967dd997946d22e22e5c9fff108165c48506b3b405f8c9562bd1658ad2d06066b65df9b7b44d02c20e7cbfdf30a145a4e566d3d46598a9364bb105eab2b00006d63d99d7d42d62a26e1cdfbf50c12584c546f3f445b889166b9125ca92902026f61db9f7f40d42824e3cff9f70e1056425a61314a55869f68b71c52a7270c0c616fd591714eda262aedc1f7f9001e54405863334857849d6ab51e50a5250e0e636dd793734cd82428efc3f5fb021c52465e65354e51829b6cb31856a3230808656bd195754ade222ee9c5f3fd041a50445c67374c5380996eb11a54a1210a0a6769d3977748dc202cebc7f1ff06185e4a526939425d8e9760bf145aaf2f04046967dd997946d22e22e5c9fff108165c48506b3b405f8c9562bd1658ad2d06066b65df9b7b44d02c20e7cbfdf30a145a4e566d3d46598a9364bb105eab2b00006d63d99d7d42d62a26e1cdfbf50c12584c546f3f445b889166b9125ca92902026f61db9f7f40d42824e3cff9f70e1056425a61314a55869f68b71c52a7270c069625f2a1bbe485966997190dcc85ad32aa3f5c0a2b1954f28c59bd77609031e",
        "type": "nulldata"
      }
    },
    {
      "value": 499986.7803,
      "n": 1,
      "scriptPubKey": {
        "asm": "1 b2c583acfb1461f12d1e1e55b396e620c2360cf602d2adfc6e35850f5e919f13",
        "hex": "5120b2c583acfb1461f12d1e1e55b396e620c2360cf602d2adfc6e35850f5e919f13",
        "reqSigs": 1,
        "type": "witness_v1_scripthash",
        "addresses": [
          "3QJmnh"
        ]
      }
    }
  ],
  "blockhash": "a1887b0a0b2991e806ccea2240d48d15dc99191e60c31f7623b06398d7a984df",
  "confirmations": 1,
  "time": 1764178092,
  "blocktime": 1764178092
}