{
  "hex": "01000000000101da4ebcb8d64307593fd1a5b31654572534cd402402972894342e6abc179f7d5c0000000000feffffff021076cf5d792d000022512091ec5dd16aee1a3e2cbfcbc63e72cf7fd654c85654ef165aabe93e194643d39c00e1f50500000000fdd5046a20476daddb65e4e5f17517f9dc1984dd18547411aa3e32a64fd8cc63b4d7d5afd64db004619b761397460991fc4f81f02524cc0786d36dc95a5aa617b5d9fcef9fd70f7b41bb5633b76629b1dc6fa1d00504ec27a6f34de97a7a863795f9dccfbff72f5b21db3653d70649d1bc0fc1b065648c47c6932d891a1ae657f599bcafdf974f3b01fb1673f72669f19c2fe1904544ac67e6b30da93a3ac677d5b99c8fffb76f1be11bf69317c689117ccf0170a5a44c870653ed49dada269735597c6f1f578ffbc13bd6b337e6a9315cef215085846ca72673cd69fafa06b715795c4f3f77afdba15bb6d35786c9513c8f4130e5e40cc74613ad099a9a66d775193c2f5f17cfbb817b96f377a6e9711caf6110c5c42ce766338d29baba46f755391c0f7f37ef9b619b761397460991fc4f81f02524cc0786d36dc95a5aa617b5d9fcef9fd70f7b41bb5633b76629b1dc6fa1d00504ec27a6f34de97a7a863795f9dccfbff72f5b21db3653d70649d1bc0fc1b065648c47c6932d891a1ae657f599bcafdf974f3b01fb1673f72669f19c2fe1904544ac67e6b30da93a3ac677d5b99c8fffb76f1be11bf69317c689117ccf0170a5a44c870653ed49dada269735597c6f1f578ffbc13bd6b337e6a9315cef215085846ca72673cd69fafa06b715795c4f3f77afdba15bb6d35786c9513c8f4130e5e40cc74613ad099a9a66d775193c2f5f17cfbb817b96f377a6e9711caf6110c5c42ce766338d29baba46f755391c0f7f37ef9b619b761397460991fc4f81f02524cc0786d36dc95a5aa617b5d9fcef9fd70f7b41bb5633b76629b1dc6fa1d00504ec27a6f34de97a7a863795f9dccfbff72f5b21db3653d70649d1bc0fc1b065648c47c6932d891a1ae657f599bcafdf974f3b01fb1673f72669f19c2fe1904544ac67e6b30da93a3ac677d5b99c8fffb76f1be11bf69317c689117ccf0170a5a44c870653ed49dada269735597c6f1f578ffbc13bd6b337e6a9315cef215085846ca72673cd69fafa06b715795c4f3f77afdba15bb6d35786c9513c8f4130e5e40cc74613ad099a9a66d775193c2f5f17cfbb817b96f377a6e9711caf6110c5c42ce766338d29baba46f755391c0f7f37ef9b619b761397460991fc4f81f02524cc0786d36dc95a5aa617b5d9fcef9fd70f7b41bb5633b76629b1dc6fa1d00504ec27a6f34de97a7a863795f9dccfbff72f5b21db3653d70649d1bc0fc1b065648c47c6932d891a1ae657f599bcafdf974f3b01fb1673f72669f19c2fe1904544ac67e6b30da93a3ac677d5b99c8fffb76f1be11bf69317c689117ccf0170a5a44c870653ed49dada269735597c6f1f578ffbc13bd6b337e6a9315cef215085846ca72673cd69fafa06b715795c4f3f77afdba15bb6d35786c9513c8f4130e5e40cc74613ad099a9a66d775193c2f5f17cfbb817b96f377a6e9711caf6110c5c42ce766338d29baba46f755391c0f7f37ef9b619b761397460991fc4f81f02524cc0786d36dc95a5aa617b5d9fcef9fd70f7b41bb5633b76629b1dc6fa1d00504ec27a6f34de97a7a863795f9dccfbff72f5b21db3653d70649d1bc0fc1b065648c47c6932d891a1ae657f599bcafdf974f3b01fb1673f72669f19c2fe1904544ac67e6b30da93a3ac677d5b99c8fffb76f1be11bf69317c689117ccf0170a5a44c872e5cfd1e52e1cad436ac06994e6d4003a6ae3b31a2d90210b43506cdb051489302fd75096dbb9651d5dc07ca753c47c1aa4811f2f889c2796e49f6c7d76522ba93f6b469ad84da3c526a89e2a9d43aa027e1d89973b4dbf7526ac9221a35b75abce9261f1a1a0acdfde50701953113c5de79d6c31c77a5a2bb065e8fa6c8dd842c63582bc38fb88b1326cb8ffc0a7f6c3bf448d2a9ba980f37f78553df5a4ae5af60491edbfcbd84ec9565e5460ddd1dca01bd6fec9879525d60d3e2ff7b2dbcedb49166b06982fbd1940f2def3740ff436843c754bb382f07821e5849d179eca65f896468d8ff9e80bcbef538f2ab7dcd397d41fe18b75b275a43ad5ea546c632e90b9c1bed9ed9f92815386cef8bccef79250a3995abea8fc07647a9ca8a12618eac444af4d6758162961db3b602ab2bb1b42056bd3b0e68132e6c8a2908bbfe6bfb36569376044a7eb9ac4be1ceb47c03a5e89a9adb7c8a2868707c34529e0a538b1169fe8adc3a2fbea76a3c870f8817803a0f39696e41a55ad754102a6aa4433b3e935b801e036bd04a86e2885f59e3766b177e8f9ffa3d349ab4bd55a2b3ce18b69ac80ab7d6e2aa3f086aff5b0477e8ed3af60b17a2c4e94a56f42fbbb87f97a77a46078014e94c6c4b36d874720b089062d11bb447f5a87f5620d9fd71abce0b4581173af3b2efb4a505bdd9429c8d3471fcbe082e3fbf6c04b1334cb710ca68c526dae58f74953a0404265839f92dae7376e416bc1a48aaf0459ba3c2bb67aa780411e3d5a6dbcbce487a8cd1c13710e5ba5b3b17dac57576f94de8a471b0ef01a6f34eea46ab9288baff758975ea8b3ebbda988c42f4900ad625043bbfc4254f29882bf8257f0ddbfa11dabaa767bd1712f45ce4623d4c5790207566e86db316c92824de59c07b3c9d13e953af82fc78b8f8687b9497ee8ee0354684e84db9910bf4e72210dfa4ed6eb936d30fde6a60cbbc8c53736e43afe77b68d2ec23cc2aae1265b45ddfb8b8fa5b3e4bcc8a89e165d79b22b37c2f07ecda33403a34c91ea33504328c45a7030e0e873add73fbbe474f77b19407f691a19e1835c7ba2428ff4257877fe26d4eea378dc159fb38cd58408f7ef686902c30cfaa594ac7a74ab9ee81a9c6b13ee61b18f392e1cb04eb287a3f2e7d8a740e055a88a114371935171b6c49d0e4b9424883bb28eeb44c4619336a43d2c24c9532e1b16288ae8ba50fb1d813469a4cbe639774b14cac5ba6a58e66f8c018aef456f5f544d9ffbd185cf75885dd748db3ae18bce69f7c28a7e34a5e8daa30989ccf43111b9b2e52f942a383f8ffbc031f6a7c2bdb54282d7032622ff1588e8f6a3716a256e40a4d72d712bbd762b00a9ddfb22c7d6c400b8dff8a4d06aabdadfaa8c5a63e4b6f7913e532e4cd6a0892e62df75b614690fbb966646aac6fed3663a0aac0f79fd90208129ca9d73e1dfb670f07796b9a8ebdbf66a05576b242c1d6755aa39e87e339b2ecc05bd808f3d13ae7547e57caae6a545dcd75006b9f7799ec7ca016b4ed4e521c03121b2c6ef3f4442b588c0bcb78e703b579f37b52422ce0ea8e06ba55a0d001abbb5b86a33a792307e98e33d0c02a82e7ae561dabc0f8843816e13543b12009d23fa0b9e5639c2b9e861772470276761c0265d2187a7390a3ae3e041d1ee01753679030c4dbd3b30cff909b5dd4f7b232ee0d9e93a9c622ddbd4bf265cf118976f4eceda606ddeecc274dd272c28aceaeef6f8115f1ccaf17662fa7229ad8ff94631a971dd76ad60112cac3b1532fdd8c324a21348d92338d53ed432ac3ef1491d7cbc379fed569122cd13b3a1b06e205b6d77af0997053225098e83a7449e34529227bf555876dd50a6455fa1ebf722cae088bcb588e2dd9977a1b7077abf802aa333a520ad05abfc64c5d0ef1e5a26a58bee112127c162fb96d5926bca6625ed0b2d5bf72f7f7b7f51d0c6826c83b1a8d556118f76d388f13c05c2898ed6b4aa004693c9c7299b72d05042055462686b2ab14107f8236c9b4ef5271d1c2ef72bdbea4e739b7819b16273534129f93aa2c4298af2edc10f347dec8e7654b3c17b551751ba4e3b9b532e61dd021696136c07bf4f53159825e45341f18740990dc37f5cfc6fe779f005f9ad37c6776a23e1402388b54981ceafcb9c43c625b6f1df1f9e56bc9988a37237403332275ea989ecff060a3204d95aa4ed0a9e4edcafe707b3194561b4d25adc770fdfb7e37643252842c7dc1d6f237b41a6e3f2bc405e0808647e2e99eb2f038ab709b70425c80ef9f7f34106f4d242f9b8a12468d01ed16634901f3a049834bb728354d8927babda1d63632e3ae7081dcb4e44e8deb44d8cc84034a437a4f41eb9d3a1bfede73237b0cacae433c162208d4e6bd0d8ae727b66628b06b4a84124f5d6a26de3ba8b1d0af008e9c5f483bfa86e84bfbfcd110d5f0a3081994e8b7f1cfbb36ac17c452ec04866acc519a39d76a38ba0023e8971cca9052d9c729ff85bc3a564ac632bf2ac7d9db4ac406f982659003222a4d2a8703c3890ebb1a21616909b8746a94876fec17c5a43cdc238f34b73310ec4ca9a1e2b221b8aec4a0b52dc2d2e9126c9c3c5ea36796bf8e2aa87aea010d90c4270e946e2ca7db8c569bb3ae4b21adaf54f8d49b4f2efcab815606fc54e01bfdc65a6402cd6c3c83af8fe9d14458e0a25696bccd13106e646be06a2ba197f4ec302e8586ade54fd4f85661f9bc4e3c7458d2861dca64adafb74a921283680d1166a9232d58068ce4c70bcba4300d70ca9f7765499589abf6f4c507bc38d148c7832d834ad916a7dbea23dcd9ef781a1a8a28732f9dc3f1dba4722ac687e73106e4b1491decf245881344c692442aeb2e1b8e6269d1fb2bfb4c660c778bd206ee17b1ddb03e5202c67f9cffb87ba95d796e6d069729036a28677d5ef46d86bc01549830e0c194c09206e2532ee0f101f60f1877cbc34f9ba75faf189a727a0371ee42d29484842818396cd75a15e0e5b1bea8567b9c195ae19016c88904b2b020fe8f96572ae4e1e32ab72cb85e5043c5f88b34f957a7b27457eb99e04e390ca7cd8512af26953499bba114a3af783002c17a4c9e3d0493f7250616d1aa737850ec1bb5d221fb6b188b733c5bc3587b6581ac445c432ef59a2f47189378b708383c17e4d193457037949c6c1997e44e27348d5a70767a0ea8e16240b8c8734ab2c5ab8e99d56631545ae24f638ffec5f54eb1a646886b56a9e41c4c4637e5f221fe8c7fe338b93e89e991b1f6b050ebd96913d60609e9ee16d4d49326abca772218a0a68171a269e81b4b90d336b02fa174a8ae905244edf446de71711a1c1e2136424c6783becbd6edf6fb010c47758391aec2c5de131926324d63666c7c848c8d95aac3d2d7e7040c111318202c3c4a5457647faaadc8d3ddf0f600000000000000000000000000000000000f192b3f01fd210500d8a5f5c71e40a02542788f38646f5371107e558e2e8db9f3b99e6add25c54dc19a4497c038b47cc424d2fc471582e90f82ca1d7542230f81448e4899a3a51e44097ab8a4e711cbf1024520f5cc621e0ae433e09325778bc8ae13bcaefb6fe8b78707727dedc2e725b3174d07d1beb46a329e7267177bb3e2a23fc03be50e1fc64f14aca2a81cb3ab647c6125b949c48f2b16e88d398d377173f9d3890560668a0a7e5ae6760661e440623e593ce90079feac9ff5fe5ea57d37df74ae72feb93c4387ee089151e4825b9cfe106e751439aac41dc21095757aabbe0d585da19a3215ea806a1dcaa25b395b3ac093b2848af5cc9ebd404dc27276f188c693262a2b64c160d07e1c1291e077d4811a02c6feb18c8d353642ab9c059b80be9988b3aaf9c10a45f61e830972a389344635c5ca51341da0aeed70e180def4201df449b26150d24181f058f3672cf2a35e46ff33d5fc279e83eb3022908246056250690027a4785ef5ec2baa7c8f13bb709e72d77fdd57e579178ca75ab29686a0e6562d48666d02b8654e84f30e0f85575abb1aec3db26e57136110de1133f8d4b0ee39806d848f00412cf17caebaddbf9149fb64a44e188c6c930a19696da783fd7715127a37d093bcd89295a38b2f6b3d78efe7bd144db863e4e03bae3889a90e55908881e4bced9e77563d132211607eaa5351ad99bbab48b0727544d17fa10b1e4541bf819a486baf7bbe41ce9b57154fb3b8cec34a2cf64eee23ddc9d76d3ac7abe31434d681badc6e099f9c4fd3edc86897fd47467e34403ec5db7d4ce05976f07db6609deecc367ca32e7084dff5b4af94f16fbd7834474b111528a1ed91ae55173e8b116aa5c244a329e099cac46745c54a5ae0f165607298b8d1ac422550825606a3197717fbb71a6ecb1f66acf490035bfd973256300c0632a31cbda9036c28a720b2b8c6f78ae604d6f8d523db1ed7309d51ba4408ca6f9ec4651723800f26f43daa42f85277274470f0cd0a22b72a8c58c9d5a794a18b806408cea3266210df84ffee5d4c8106591840f55ba9843c338b97001e1e20653bef39537ce9a3647acf3d18e8f19a17366377d95c0016464bd06a45c62ca3c1668fc2d9b1ffdcf25df0405670b0294a7f0db8011f80837dcf1fef117acb949d8fdff93ff2060aacd28d297d94d9775b73fa8235941b1bdb26589fd3004e0768b76bdd8e84f9b18d818d8c4fcdaad28f63462dd138ef7e23e1c72e6eb6f3f775a06755c976cb373fd70a8f22d29034bcef1f5e0c528457156092ca05bfcfe36abf39f58ffa81e7d03aab462e431db4c8aea09862eb4e2cb9c1b2472bc1bce02e5f7cbe4d7dd0f99ad8e42a4ddef6383298cab6095c211bcf0e2485539a5ebc3e77c73f4115a538a3308e237cc03dcd41477eea134d9f69f6c9a7ef81b4343f920c620cd4de494dad79edf3b3c9c6f39c670feece1da9c416dbcf634273afdc0e65230beb814b8099b3582deb866fb9c05297ca9fb86a2be8b43d6eb55e0aa92c1d7f6e7417fc72ae26bf575b61600b8ebc9e7de3f760401e972fc38229c347718e38d9609125e1f077b2d61f7b4489179492b39bc7ae6e8731ab1893a2ab076e1d47d2ebcf972d10f19a820a8e7bb9a0d772ef7154b5b863d43d435c3b97d168ec6604370b66cab37bf8faf4c56375657c2f5074578fbd799ffe2f274e1447ff7e4965573c6cb65cc4b49945c2c0ed66dcc10d952e01a9c532fc137509683552fa619e3b6f367e2209bea67b56efd988f6c001e23c9dcfdea4f1dd0d0299a383729cd32662a49fca8821beee8f9cb23e19a70eaeb0fb674c04018d8e65a6152193a438a413b5f569000000",
  "txid": "a6c45f62b8961e423b2606c6ac32f7785686d16c1436f1003b8dfc05bc20d1bf",
  "hash": "4fbe33cf5f3ec6fe9d8e8b2c2311e7ee8dcde61bee39d4e30c89a8fff2014e30",
  "size": 5085,
  "vsize": 2278,
  "version": 1,
  "locktime": 105,
  "vin": [
    {
      "txid": "5c7d9f17bc6a2e34942897022440cd3425575416b3a5d13f590743d6b8bc4eda",
      "vout": 0,
      "scriptSig": {
        "asm": "",
        "hex": ""
      },
      "txinwitness": [
        "6dbb9651d5dc07ca753c47c1aa4811f2f889c2796e49f6c7d76522ba93f6b469ad84da3c526a89e2a9d43aa027e1d89973b4dbf7526ac9221a35b75abce9261f1a1a0acdfde50701953113c5de79d6c31c77a5a2bb065e8fa6c8dd842c63582bc38fb88b1326cb8ffc0a7f6c3bf448d2a9ba980f37f78553df5a4ae5af60491edbfcbd84ec9565e5460ddd1dca01bd6fec9879525d60d3e2ff7b2dbcedb49166b06982fbd1940f2def3740ff436843c754bb382f07821e5849d179eca65f896468d8ff9e80bcbef538f2ab7dcd397d41fe18b75b275a43ad5ea546c632e90b9c1bed9ed9f92815386cef8bccef79250a3995abea8fc07647a9ca8a12618eac444af4d6758162961db3b602ab2bb1b42056bd3b0e68132e6c8a2908bbfe6bfb36569376044a7eb9ac4be1ceb47c03a5e89a9adb7c8a2868707c34529e0a538b1169fe8adc3a2fbea76a3c870f8817803a0f39696e41a55ad754102a6aa4433b3e935b801e036bd04a86e2885f59e3766b177e8f9ffa3d349ab4bd55a2b3ce18b69ac80ab7d6e2aa3f086aff5b0477e8ed3af60b17a2c4e94a56f42fbbb87f97a77a46078014e94c6c4b36d874720b089062d11bb447f5a87f5620d9fd71abce0b4581173af3b2efb4a505bdd9429c8d3471fcbe082e3fbf6c04b1334cb710ca68c526dae58f74953a0404265839f92dae7376e416bc1a48aaf0459ba3c2bb67aa780411e3d5a6dbcbce487a8cd1c13710e5ba5b3b17dac57576f94de8a471b0ef01a6f34eea46ab9288baff758975ea8b3ebbda988c42f4900ad625043bbfc4254f29882bf8257f0ddbfa11dabaa767bd1712f45ce4623d4c5790207566e86db316c92824de59c07b3c9d13e953af82fc78b8f8687b9497ee8ee0354684e84db9910bf4e72210dfa4ed6eb936d30fde6a60cbbc8c53736e43afe77b68d2ec23cc2aae1265b45ddfb8b8fa5b3e4bcc8a89e165d79b22b37c2f07ecda33403a34c91ea33504328c45a7030e0e873add73fbbe474f77b19407f691a19e1835c7ba2428ff4257877fe26d4eea378dc159fb38cd58408f7ef686902c30cfaa594ac7a74ab9ee81a9c6b13ee61b18f392e1cb04eb287a3f2e7d8a740e055a88a114371935171b6c49d0e4b9424883bb28eeb44c4619336a43d2c24c9532e1b16288ae8ba50fb1d813469a4cbe639774b14cac5ba6a58e66f8c018aef456f5f544d9ffbd185cf75885dd748db3ae18bce69f7c28a7e34a5e8daa30989ccf43111b9b2e52f942a383f8ffbc031f6a7c2bdb54282d7032622ff1588e8f6a3716a256e40a4d72d712bbd762b00a9ddfb22c7d6c400b8dff8a4d06aabdadfaa8c5a63e4b6f7913e532e4cd6a0892e62df75b614690fbb966646aac6fed3663a0aac0f79fd90208129ca9d73e1dfb670f07796b9a8ebdbf66a05576b242c1d6755aa39e87e339b2ecc05bd808f3d13ae7547e57caae6a545dcd75006b9f7799ec7ca016b4ed4e521c03121b2c6ef3f4442b588c0bcb78e703b579f37b52422ce0ea8e06ba55a0d001abbb5b86a33a792307e98e33d0c02a82e7ae561dabc0f8843816e13543b12009d23fa0b9e5639c2b9e861772470276761c0265d2187a7390a3ae3e041d1ee01753679030c4dbd3b30cff909b5dd4f7b232ee0d9e93a9c622ddbd4bf265cf118976f4eceda606ddeecc274dd272c28aceaeef6f8115f1ccaf17662fa7229ad8ff94631a971dd76ad60112cac3b1532fdd8c324a21348d92338d53ed432ac3ef1491d7cbc379fed569122cd13b3a1b06e205b6d77af0997053225098e83a7449e34529227bf555876dd50a6455fa1ebf722cae088bcb588e2dd9977a1b7077abf802aa333a520ad05abfc64c5d0ef1e5a26a58bee112127c162fb96d5926bca6625ed0b2d5bf72f7f7b7f51d0c6826c83b1a8d556118f76d388f13c05c2898ed6b4aa004693c9c7299b72d05042055462686b2ab14107f8236c9b4ef5271d1c2ef72bdbea4e739b7819b16273534129f93aa2c4298af2edc10f347dec8e7654b3c17b551751ba4e3b9b532e61dd021696136c07bf4f53159825e45341f18740990dc37f5cfc6fe779f005f9ad37c6776a23e1402388b54981ceafcb9c43c625b6f1df1f9e56bc9988a37237403332275ea989ecff060a3204d95aa4ed0a9e4edcafe707b3194561b4d25adc770fdfb7e37643252842c7dc1d6f237b41a6e3f2bc405e0808647e2e99eb2f038ab709b70425c80ef9f7f34106f4d242f9b8a12468d01ed16634901f3a049834bb728354d8927babda1d63632e3ae7081dcb4e44e8deb44d8cc84034a437a4f41eb9d3a1bfede73237b0cacae433c162208d4e6bd0d8ae727b66628b06b4a84124f5d6a26de3ba8b1d0af008e9c5f483bfa86e84bfbfcd110d5f0a3081994e8b7f1cfbb36ac17c452ec04866acc519a39d76a38ba0023e8971cca9052d9c729ff85bc3a564ac632bf2ac7d9db4ac406f982659003222a4d2a8703c3890ebb1a21616909b8746a94876fec17c5a43cdc238f34b73310ec4ca9a1e2b221b8aec4a0b52dc2d2e9126c9c3c5ea36796bf8e2aa87aea010d90c4270e946e2ca7db8c569bb3ae4b21adaf54f8d49b4f2efcab815606fc54e01bfdc65a6402cd6c3c83af8fe9d14458e0a25696bccd13106e646be06a2ba197f4ec302e8586ade54fd4f85661f9bc4e3c7458d2861dca64adafb74a921283680d1166a9232d58068ce4c70bcba4300d70ca9f7765499589abf6f4c507bc38d148c7832d834ad916a7dbea23dcd9ef781a1a8a28732f9dc3f1dba4722ac687e73106e4b1491decf245881344c692442aeb2e1b8e6269d1fb2bfb4c660c778bd206ee17b1ddb03e5202c67f9cffb87ba95d796e6d069729036a28677d5ef46d86bc01549830e0c194c09206e2532ee0f101f60f1877cbc34f9ba75faf189a727a0371ee42d29484842818396cd75a15e0e5b1bea8567b9c195ae19016c88904b2b020fe8f96572ae4e1e32ab72cb85e5043c5f88b34f957a7b27457eb99e04e390ca7cd8512af26953499bba114a3af783002c17a4c9e3d0493f7250616d1aa737850ec1bb5d221fb6b188b733c5bc3587b6581ac445c432ef59a2f47189378b708383c17e4d193457037949c6c1997e44e27348d5a70767a0ea8e16240b8c8734ab2c5ab8e99d56631545ae24f638ffec5f54eb1a646886b56a9e41c4c4637e5f221fe8c7fe338b93e89e991b1f6b050ebd96913d60609e9ee16d4d49326abca772218a0a68171a269e81b4b90d336b02fa174a8ae905244edf446de71711a1c1e2136424c6783becbd6edf6fb010c47758391aec2c5de131926324d63666c7c848c8d95aac3d2d7e7040c111318202c3c4a5457647faaadc8d3ddf0f600000000000000000000000000000000000f192b3f01",
        "00d8a5f5c71e40a02542788f38646f5371107e558e2e8db9f3b99e6add25c54dc19a4497c038b47cc424d2fc471582e90f82ca1d7542230f81448e4899a3a51e44097ab8a4e711cbf1024520f5cc621e0ae433e09325778bc8ae13bcaefb6fe8b78707727dedc2e725b3174d07d1beb46a329e7267177bb3e2a23fc03be50e1fc64f14aca2a81cb3ab647c6125b949c48f2b16e88d398d377173f9d3890560668a0a7e5ae6760661e440623e593ce90079feac9ff5fe5ea57d37df74ae72feb93c4387ee089151e4825b9cfe106e751439aac41dc21095757aabbe0d585da19a3215ea806a1dcaa25b395b3ac093b2848af5cc9ebd404dc27276f188c693262a2b64c160d07e1c1291e077d4811a02c6feb18c8d353642ab9c059b80be9988b3aaf9c10a45f61e830972a389344635c5ca51341da0aeed70e180def4201df449b26150d24181f058f3672cf2a35e46ff33d5fc279e83eb3022908246056250690027a4785ef5ec2baa7c8f13bb709e72d77fdd57e579178ca75ab29686a0e6562d48666d02b8654e84f30e0f85575abb1aec3db26e57136110de1133f8d4b0ee39806d848f00412cf17caebaddbf9149fb64a44e188c6c930a19696da783fd7715127a37d093bcd89295a38b2f6b3d78efe7bd144db863e4e03bae3889a90e55908881e4bced9e77563d132211607eaa5351ad99bbab48b0727544d17fa10b1e4541bf819a486baf7bbe41ce9b57154fb3b8cec34a2cf64eee23ddc9d76d3ac7abe31434d681badc6e099f9c4fd3edc86897fd47467e34403ec5db7d4ce05976f07db6609deecc367ca32e7084dff5b4af94f16fbd7834474b111528a1ed91ae55173e8b116aa5c244a329e099cac46745c54a5ae0f165607298b8d1ac422550825606a3197717fbb71a6ecb1f66acf490035bfd973256300c0632a31cbda9036c28a720b2b8c6f78ae604d6f8d523db1ed7309d51ba4408ca6f9ec4651723800f26f43daa42f85277274470f0cd0a22b72a8c58c9d5a794a18b806408cea3266210df84ffee5d4c8106591840f55ba9843c338b97001e1e20653bef39537ce9a3647acf3d18e8f19a17366377d95c0016464bd06a45c62ca3c1668fc2d9b1ffdcf25df0405670b0294a7f0db8011f80837dcf1fef117acb949d8fdff93ff2060aacd28d297d94d9775b73fa8235941b1bdb26589fd3004e0768b76bdd8e84f9b18d818d8c4fcdaad28f63462dd138ef7e23e1c72e6eb6f3f775a06755c976cb373fd70a8f22d29034bcef1f5e0c528457156092ca05bfcfe36abf39f58ffa81e7d03aab462e431db4c8aea09862eb4e2cb9c1b2472bc1bce02e5f7cbe4d7dd0f99ad8e42a4ddef6383298cab6095c211bcf0e2485539a5ebc3e77c73f4115a538a3308e237cc03dcd41477eea134d9f69f6c9a7ef81b4343f920c620cd4de494dad79edf3b3c9c6f39c670feece1da9c416dbcf634273afdc0e65230beb814b8099b3582deb866fb9c05297ca9fb86a2be8b43d6eb55e0aa92c1d7f6e7417fc72ae26bf575b61600b8ebc9e7de3f760401e972fc38229c347718e38d9609125e1f077b2d61f7b4489179492b39bc7ae6e8731ab1893a2ab076e1d47d2ebcf972d10f19a820a8e7bb9a0d772ef7154b5b863d43d435c3b97d168ec6604370b66cab37bf8faf4c56375657c2f5074578fbd799ffe2f274e1447ff7e4965573c6cb65cc4b49945c2c0ed66dcc10d952e01a9c532fc137509683552fa619e3b6f367e2209bea67b56efd988f6c001e23c9dcfdea4f1dd0d0299a383729cd32662a49fca8821beee8f9cb23e19a70eaeb0fb674c04018d8e65a6152193a438a413b5f5"
      ],
      "sequence": 4294967294
    }
  ],
  "vout": [
    {
      "value": 499992.8817,
      "n": 0,
      "scriptPubKey": {
        "asm": "1 91ec5dd16aee1a3e2cbfcbc63e72cf7fd654c85654ef165aabe93e194643d39c",
        "hex": "512091ec5dd16aee1a3e2cbfcbc63e72cf7fd654c85654ef165aabe93e194643d39c",
        "reqSigs": 1,
        "type": "witness_v1_scripthash",
        "addresses": [
          "3QJmnh"
        ]
      }
    },
    {
      "value": 1.0,
      "n": 1,
      "scriptPubKey": {
        "asm": "OP_RETURN 476daddb65e4e5f17517f9dc1984dd18547411aa3e32a64fd8cc63b4d7d5afd6 619b761397460991fc4f81f02524cc0786d36dc95a5aa617b5d9fcef9fd70f7b41bb5633b76629b1dc6fa1d00504ec27a6f34de97a7a863795f9dccfbff72f5b21db3653d70649d1bc0fc1b065648c47c6932d891a1ae657f599bcafdf974f3b01fb1673f72669f19c2fe1904544ac67e6b30da93a3ac677d5b99c8fffb76f1be11bf69317c689117ccf0170a5a44c870653ed49dada269735597c6f1f578ffbc13bd6b337e6a9315cef215085846ca72673cd69fafa06b715795c4f3f77afdba15bb6d35786c9513c8f4130e5e40cc74613ad099a9a66d775193c2f5f17cfbb817b96f377a6e9711caf6110c5c42ce766338d29baba46f755391c0f7f37ef9b619b761397460991fc4f81f02524cc0786d36dc95a5aa617b5d9fcef9fd70f7b41bb5633b76629b1dc6fa1d00504ec27a6f34de97a7a863795f9dccfbff72f5b21db3653d70649d1bc0fc1b065648c47c6932d891a1ae657f599bcafdf974f3b01fb1673f72669f19c2fe1904544ac67e6b30da93a3ac677d5b99c8fffb76f1be11bf69317c689117ccf0170a5a44c870653ed49dada269735597c6f1f578ffbc13bd6b337e6a9315cef215085846ca72673cd69fafa06b715795c4f3f77afdba15bb6d35786c9513c8f4130e5e40cc74613ad099a9a66d775193c2f5f17cfbb817b96f377a6e9711caf6110c5c42ce766338d29baba46f755391c0f7f37ef9b619b761397460991fc4f81f02524cc0786d36dc95a5aa617b5d9fcef9fd70f7b41bb5633b76629b1dc6fa1d00504ec27a6f34de97a7a863795f9dccfbff72f5b21db3653d70649d1bc0fc1b065648c47c6932d891a1ae657f599bcafdf974f3b01fb1673f72669f19c2fe1904544ac67e6b30da93a3ac677d5b99c8fffb76f1be11bf69317c689117ccf0170a5a44c870653ed49dada269735597c6f1f578ffbc13bd6b337e6a9315cef215085846ca72673cd69fafa06b715795c4f3f77afdba15bb6d35786c9513c8f4130e5e40cc74613ad099a9a66d775193c2f5f17cfbb817b96f377a6e9711caf6110c5c42ce766338d29baba46f755391c0f7f37ef9b619b761397460991fc4f81f02524cc0786d36dc95a5aa617b5d9fcef9fd70f7b41bb5633b76629b1dc6fa1d00504ec27a6f34de97a7a863795f9dccfbff72f5b21db3653d70649d1bc0fc1b065648c47c6932d891a1ae657f599bcafdf974f3b01fb1673f72669f19c2fe1904544ac67e6b30da93a3ac677d5b99c8fffb76f1be11bf69317c689117ccf0170a5a44c870653ed49dada269735597c6f1f578ffbc13bd6b337e6a9315cef215085846ca72673cd69fafa06b715795c4f3f77afdba15bb6d35786c9513c8f4130e5e40cc74613ad099a9a66d775193c2f5f17cfbb817b96f377a6e9711caf6110c5c42ce766338d29baba46f755391c0f7f37ef9b619b761397460991fc4f81f02524cc0786d36dc95a5aa617b5d9fcef9fd70f7b41bb5633b76629b1dc6fa1d00504ec27a6f34de97a7a863795f9dccfbff72f5b21db3653d70649d1bc0fc1b065648c47c6932d891a1ae657f599bcafdf974f3b01fb1673f72669f19c2fe1904544ac67e6b30da93a3ac677d5b99c8fffb76f1be11bf69317c689117ccf0170a5a44c872e5cfd1e52e1cad436ac06994e6d4003a6ae3b31a2d90210b43506cdb0514893",
        "hex": "6a20476daddb65e4e5f17517f9dc1984dd18547411aa3e32a64fd8cc63b4d7d5afd64db004619b761397460991fc4f81f02524cc0786d36dc95a5aa617b5d9fcef9fd70f7b41bb5633b76629b1dc6fa1d00504ec27a6f34de97a7a863795f9dccfbff72f5b21db3653d70649d1bc0fc1b065648c47c6932d891a1ae657f599bcafdf974f3b01fb1673f72669f19c2fe1904544ac67e6b30da93a3ac677d5b99c8fffb76f1be11bf69317c689117ccf0170a5a44c870653ed49dada269735597c6f1f578ffbc13bd6b337e6a9315cef215085846ca72673cd69fafa06b715795c4f3f77afdba15bb6d35786c9513c8f4130e5e40cc74613ad099a9a66d775193c2f5f17cfbb817b96f377a6e9711caf6110c5c42ce766338d29baba46f755391c0f7f37ef9b619b761397460991fc4f81f02524cc0786d36dc95a5aa617b5d9fcef9fd70f7b41bb5633b76629b1dc6fa1d00504ec27a6f34de97a7a863795f9dccfbff72f5b21db3653d70649d1bc0fc1b065648c47c6932d891a1ae657f599bcafdf974f3b01fb1673f72669f19c2fe1904544ac67e6b30da93a3ac677d5b99c8fffb76f1be11bf69317c689117ccf0170a5a44c870653ed49dada269735597c6f1f578ffbc13bd6b337e6a9315cef215085846ca72673cd69fafa06b715795c4f3f77afdba15bb6d35786c9513c8f4130e5e40cc74613ad099a9a66d775193c2f5f17cfbb817b96f377a6e9711caf6110c5c42ce766338d29baba46f755391c0f7f37ef9b619b761397460991fc4f81f02524cc0786d36dc95a5aa617b5d9fcef9fd70f7b41bb5633b76629b1dc6fa1d00504ec27a6f34de97a7a863795f9dccfbff72f5b21db3653d70649d1bc0fc1b065648c47c6932d891a1ae657f599bcafdf974f3b01fb1673f72669f19c2fe1904544ac67e6b30da93a3ac677d5b99c8fffb76f1be11bf69317c689117ccf0170a5a44c870653ed49dada269735597c6f1f578ffbc13bd6b337e6a9315cef215085846ca72673cd69fafa06b715795c4f3f77afdba15bb6d35786c9513c8f4130e5e40cc74613ad099a9a66d775193c2f5f17cfbb817b96f377a6e9711caf6110c5c42ce766338d29baba46f755391c0f7f37ef9b619b761397460991fc4f81f02524cc0786d36dc95a5aa617b5d9fcef9fd70f7b41bb5633b76629b1dc6fa1d00504ec27a6f34de97a7a863795f9dccfbff72f5b21db3653d70649d1bc0fc1b065648c47c6932d891a1ae657f599bcafdf974f3b01fb1673f72669f19c2fe1904544ac67e6b30da93a3ac677d5b99c8fffb76f1be11bf69317c689117ccf0170a5a44c870653ed49dada269735597c6f1f578ffbc13bd6b337e6a9315cef215085846ca72673cd69fafa06b715795c4f3f77afdba15bb6d35786c9513c8f4130e5e40cc74613ad099a9a66d775193c2f5f17cfbb817b96f377a6e9711caf6110c5c42ce766338d29baba46f755391c0f7f37ef9b619b761397460991fc4f81f02524cc0786d36dc95a5aa617b5d9fcef9fd70f7b41bb5633b76629b1dc6fa1d00504ec27a6f34de97a7a863795f9dccfbff72f5b21db3653d70649d1bc0fc1b065648c47c6932d891a1ae657f599bcafdf974f3b01fb1673f72669f19c2fe1904544ac67e6b30da93a3ac677d5b99c8fffb76f1be11bf69317c689117ccf0170a5a44c872e5cfd1e52e1cad436ac06994e6d4003a6ae3b31a2d90210b43506cdb0514893",
        "type": "nulldata"
      }
    }
  ],
  "blockhash": "86d3aa2e412fd1c0ad7fd5d7d84b7ddcf41a8bf652344eaa49dd1e6444ae5dce",
  "confirmations": 1,
  "time": 1764176858,
  "blocktime": 1764176858
}