{
  "hex": "010000000001018f425140b2106a686f5def941afab6c7c85b551ad2727e394a59805cf013c69e0000000000feffffff02e021231b792d00002251202af571b32a3f79e7c2c4c5cbc001d84918a0b597f439a1a83bd891adffa14dd300e1f50500000000fdd5046a20af5538caa4ff8cb013d420e16d0171a293e492209ecb288af3e257ddad40bbd34db004ad62e3ae16288cf258920ddd7def0059df6b319ad5ab718eb917e2c3c4de90978d42c38e3608acd278b22dfd5dcf2079ff4b11baf58b51ae9937c2e3e4feb0b7ed22a3ee5668ccb218d24d9d3daf40199f2b71da95eb31cef957a283849ed0d7cd0283ce7648ec9238f26dbd1d8f6039bf0b51fab5cb11eed97782a3a4bef0f72de2632e96a80c72d8128d5dfd6f80d95febb11a552bf10e39976243445e10170dc2430eb6882c52f832ad7ddd4fa0f97fcb913a750bd12e19b74263647e30376da2236ed6e84c329852cd1dbd2fc0991fabf15a156bb14e79d72203041e50574d82034ef6c86c12b872ed3d9d0fe0b93f8bd17a354b916e59f70223243e7077ad62e3ae16288cf258920ddd7def0059df6b319ad5ab718eb917e2c3c4de90978d42c38e3608acd278b22dfd5dcf2079ff4b11baf58b51ae9937c2e3e4feb0b7ed22a3ee5668ccb218d24d9d3daf40199f2b71da95eb31cef957a283849ed0d7cd0283ce7648ec9238f26dbd1d8f6039bf0b51fab5cb11eed97782a3a4bef0f72de2632e96a80c72d8128d5dfd6f80d95febb11a552bf10e39976243445e10170dc2430eb6882c52f832ad7ddd4fa0f97fcb913a750bd12e19b74263647e30376da2236ed6e84c329852cd1dbd2fc0991fabf15a156bb14e79d72203041e50574d82034ef6c86c12b872ed3d9d0fe0b93f8bd17a354b916e59f70223243e7077ad62e3ae16288cf258920ddd7def0059df6b319ad5ab718eb917e2c3c4de90978d42c38e3608acd278b22dfd5dcf2079ff4b11baf58b51ae9937c2e3e4feb0b7ed22a3ee5668ccb218d24d9d3daf40199f2b71da95eb31cef957a283849ed0d7cd0283ce7648ec9238f26dbd1d8f6039bf0b51fab5cb11eed97782a3a4bef0f72de2632e96a80c72d8128d5dfd6f80d95febb11a552bf10e39976243445e10170dc2430eb6882c52f832ad7ddd4fa0f97fcb913a750bd12e19b74263647e30376da2236ed6e84c329852cd1dbd2fc0991fabf15a156bb14e79d72203041e50574d82034ef6c86c12b872ed3d9d0fe0b93f8bd17a354b916e59f70223243e7077ad62e3ae16288cf258920ddd7def0059df6b319ad5ab718eb917e2c3c4de90978d42c38e3608acd278b22dfd5dcf2079ff4b11baf58b51ae9937c2e3e4feb0b7ed22a3ee5668ccb218d24d9d3daf40199f2b71da95eb31cef957a283849ed0d7cd0283ce7648ec9238f26dbd1d8f6039bf0b51fab5cb11eed97782a3a4bef0f72de2632e96a80c72d8128d5dfd6f80d95febb11a552bf10e39976243445e10170dc2430eb6882c52f832ad7ddd4fa0f97fcb913a750bd12e19b74263647e30376da2236ed6e84c329852cd1dbd2fc0991fabf15a156bb14e79d72203041e50574d82034ef6c86c12b872ed3d9d0fe0b93f8bd17a354b916e59f70223243e7077ad62e3ae16288cf258920ddd7def0059df6b319ad5ab718eb917e2c3c4de90978d42c38e3608acd278b22dfd5dcf2079ff4b11baf58b51ae9937c2e3e4feb0b7ed22a3ee5668ccb218d24d9d3daf40199f2b71da95eb31cef957a283849ed0d7cd0283ce7648ec9238f26dbd1d8f6039bf0b51fab5cb11eed97782a3a4bef0f72de2632e96a80c72d8128d5dfd6f80d9327fda96205fb1bb4a4bc12bd81cca15c763906b29dac7d30b132b25379d3a3302fd7509f0b908ea8ae166e0315c3b60ed74f08e21065061436f06e8abef071d9611419cfde09ef884512c7dc4483aa4085d5476bd82e9917f12d6c3100a48db7ab92a9801c86c333657a780ae62170339d90bffcb225e0420f91a8a999bc4d7cadffbc31f641b3ccebe6e03bcfb2903bcdef3111298113284aa5a885af36b2a86689059edc27829ab9a749a39b19bef9d15dd1d6349c1040bd92f4f274db761a444f84e871daecdab4890e253145e91d9079cc0ab6be0b8a94858ac5254a2faadc431c8368083bf0e0645d6c77880fd761f3c2585b1dfe9f04a22f582a828ad46a4a3829db4d44caea8528151efe5bef341c6d3d5d895182e580a4826e939cb4c9d08b3fbf5d13992d32be75d220024c358a24b52464cf466b3f4f8b14aac29a57bd393f666f92728e2ccdac226fd95bf43177a3128158f2fb08ca4da1e1cdd43e8f8aa37628d277fe7671771b7a84013d95cc2ae8a60e78a17fb2c6ed8dce28212f0f783bd75a42cd1a9d7aa045f967a3685373e569cb8c74e782facb0be44b819ab04b6e0a5632c92c38593f1e988e4c67db8cb6c9a51df61d362e0d664a411c539720b5124272554ede3eee596b5d42564a921408f5b578c2ea54244a81ae46b8ef06c4210e84cf0042fb1c8d409be729044f738375392fb0fce648ee66d392b190076fcc1b0eb70d393cbfd6a5d9749a0a657b006a456d5c21994d036e40f4630dcf733c9b7fab0b951007958295d84d6f0516634c8b31029b6318db9769834effc70e11d78a52aae7ab8d322fd301b11c7f7ec92d3fdec4e72670728b08096961df10a42f083cd527381b089627a748aa73b4a92bdd36190b7f257a9d646a7cb68e99659d7c1cc8be4fedfc2d377fbfb25e420516c25cfc4617261b9af4c117e3053cd256df85765f8ba05ac4bc51302b062229d5951a68ee79f9a20bb55bb844e524f947e2a9afbe30dddf629c4418f9b38cb3483116cb7f55b1c3808aeefc316adf6fcaa0e58f3da4c35be53b519113393761477f139bdacb3d3d312793b998d05aba9623f9469a5bb3a00959bdeeb5aa2d44d2b2c4d803e0729038f2602dbcaeed7cc98cdee632498d5456569efaf2bced64bc6583e3444e865d84ce5c0323fbd548b225151e63a32d42702c71bcc12a5cf0fb08f58d7ba440b1781109df652e79d41370fc9aae66e477ab085ecf575f6642e843d5880803e24221144f90164fe39c947a73d6e789abf68f45df05a798174a8a656b4b30d0c4f22e9183292c5fc5c19faea7963ae604ffa39895d2af9bce9376552a2e013ae1def4615c367e46ce72267c406aa9564a9756859a21ba1b03b68021403116054da9807a30aeba6ea1e04d535efa32a1d2874a3572d27b53da2005cf6ede3fe507185605d251df35fe49881000c93edc7df96216e7b492e6fc1231231db36efea0ef3420eb4a4cd8949abcf7797d89ca475a1a9cf9f4c30bd862457ac73fe1fa7b65d97bc53b3e2eaffa5a92811cfbda2fd6bd3c2812f9032a4a8cf683ebd20f42232da99f59e3466ca9eb7dae377b0364ccfeec67a99922c4acd8f5857d40bb7326648c73440ad0546ca01d7427ead8ba2e258ecadb16010dc278727385d781a69a8f5f203e533c540bce4b667361c8c31f6968536a25417f2e20284adb83163d5ee6da6606fa6d2738942644c6478f4408b2492f29f28dab13c32fbe0042587b7211816815e2223d4af2051e35a99367cc77df5eaae7e966a5ddb07b52cd137e1beab76409ed2b45b162fdb0144e733443a5093b1ab398354a3809e2c1f10f35a3a8857413a0084ef0905f40607a1a09efbe49c64b53de12f7eeef02a11b3c59d218db7e1673f8372352c2a01269de96e3b8e34716abe6b5fc1e38b657acd23d8a187b698309f56c1f4f55a76617d9e9892816ec00e99f38b0e304a29d2055b097e1624cad1cb4d507fc3cffa249e1fcbad56d5f86854ebfbf88d3d16cbfd04a8d62c128f5fb9d648613f97f49c9b4e0ad0f368eba500fd75d6c060dc371dd81a59380d7f48e4d0b6b94bb8de92d7323026294956a21a3c34c1b018b78d47d496efcbecf0fd29743fe5e1410e45df8737fd301afd6412f72868d2f4172f87ae0ee8bbd742e35edda08426f16785cbb0cdd7aa2881953ac90c5591c696bc3dc48e01fe4ee8b71fd20d2db92d58ca40b6413de4b2fe78180482167a91c9449c059ad44f2c403a7dfdeeb8bc3436923c5b6e60441e89e7cdf20d9906338af06afea3277d0e529168534eed515615d95f0d7be71788fdfbe71c3e975e6dc417b953703ade1101902c151c2b69b6034077bfa563f8e570acab203e4b5364e8c7810657538617b655c907a497838031474866b0613bced266737f439c7cc499894961fd0d165f9cf9eed1160db195172b8023de902e9168b7041d45f163d740aa5bb53a233abcba18ec0cb6059ac572ae7e2e53e766333e2783b35a1fc0c8a4b4691fad2e6ea1d2ff2231ee32554c4f35031719362d25dc5d69c893c5096e65a50f07bcbcd9721090c011c5b0792cfe9b21200a8f061c77af589a52bc332d085771921f7f287e6e156580900a78cbe91b272627a1904c64e1aed38d961fa9dde282143f91d9b81c135c0bd92d1da260ec58405fa80e5d75ac59fa283e3875474b72a665b1e068ea13c1c2aa670b43f511402788f6d82b4d80ea2c8f50440b21eea9fd4fd2df299f7946543d7fca71fb8b0114ab6ab315672b8066b36538518f251cc7bae598b374f8b50920f3e2d017476caf1e2b3e48a74df158c023d9ccea4ffbb00f3d664633cce1eae667e25c15c96e2701c5ec178d383fe6b5cee4a21059705f50aa8ffdfe00bde4d6414c31ff6754a79da31affa3f8ae6e811745d785843698ccf7b74a2ac5bef5762244e2ba09134d7aefd487732abc6fe6b885407795f422fc8e9c62f347ad2f8fc8639749c0c95a311ac226a1081442916d8039dcab31105fbc31e00bc68a6777c3814706fb35c823068c702a14a1063d493945f36238af4622bdf163fa04bab9cd531603d008d416f0fac3c822533577feafb38f60259412d604eb5fa50ba689a4ac00c497e989baf5b1a0a53254b67eaa6a9692c6720f5df6d5e2d7c388f54fe0b5fdf65a8ef1ad2f23c493c35dab16945467e9efb50363d7e66213f7c3bd274b907da954b76dda5c0c4c920bf49ccfb2cf8741fbbf7d12b3014de788343066105cd5112c6d3921e764013d920900b1d25d34fd7726e7838f61fa77588ac2f4d4a5404f8d753b16582f371520417de7a995c339c1f72c0bed7978f97fb3040b4450526a798a959eb9caeb041d212d3e6a70779497a2aadcecf5ff012d33bcc7c9e008090b185362787b818fa0a9b0b4c8d0f4fa00000000000000000000000000000000000000000000000000000d1d243601fd21050005d2cd39a76091563fb3246b17209cc1fdfba8278f27e89f5426d0aaf0daa460fccee0a90ac1610e672bdf34c81c5e959d0b415caeb91631fdb20a1d22736b00a1506b866a367f61d1a57610a9cd58148246a6c5a6f7d3c5c15d221f0defc2c92396fe7683047e48d8d5697d97d157949a77ac636346ac9080b2d663f15e386728918de20b807c86a8cc95e64dd1eba3775711109da94f96f02d1b2c79ae49149123dbcf39f6a445211916edf20e6076d6b592322b83d01dbe2ca2f2bb3087f53a8e43336e8662a2a8bce239ef35a5b188f7dbf63d53c12393b5eaea575eeb4ab3fe71891646a01854a8da4047f98979424e9cbf014e821e51b7f327bbaa30ef3b99947b7af4446335257a7c89de92009e50e3281b6a4d4fee751b45d19015041a844705ae5690ed28c00fda93098f7743aa9b39d21fc238f4010ceb81c376b91d9eeb00471092d38eadb9aa90e82980ce0998682b57402174aaf3ad06d9d42f9ca5ffd6b95b8ce0d6a37b2364918571d8a563ccc032a1a9a9b8c44541a2b224cba7267c918c23cf2bf16b8f203aaf0337872849dc98695af03fa2eef48e996b5dd1f581acd7e191d4210bafe87491778ae03d4ef819c6f086b35dd44d91ae7bb2bdab0f3a38c94c491e49ee9fa3d6677754a0c8ce904f6509f35a880cf03e975f4b98cd28718b9ffc444506085256d56de6d58adf4f62e07b8a78c9c5b0884f795acc6b2e87b78ebdb895f1534fe16cc19d0ba383c7820df8cc954f0e7dab7da747f33d737fb0ea624bea50dbbbd35ae20ae448abf206b78bd929eb5bf4091e8097c17a71ac8e648a2c307c9819a27826ffff1d8a11e5d5a2189c6f6d6159f0d175d7553cb1c75b4b881032fa8f1decee2825e4dee3bc840afdd071df7c25b5b138e2ac723acd7b92b42613b926e43ff1e5a16388f007d9bb2754be243eacd5e4da762467c637b51838e3f755c74cb627c5c2aee2f60ebddcf2aacd6ec18247b958a5c0d3aa69a082b51dd006e64d0c59f8ab9a2245843b8079730b78771b425a7ed517c5da835b6724dfe5d440ea51837118473ccacb31eec8b65168eca854e56fa7c29fc44d85c50190eb138fac3302a0165be1b53c20ce931cb86736e8b9cab62798d8458ce4725e478d1607b9ed85eaa987aa9459ce41a93b7ff4cd91f914756a8199f8bf67f7a70797323cdb16e798ddcb3e2c1f3412ceb62412d8dcfdcd156130ada2db102666e13334e8f9cf150211add9ae8a901dde690e45483919476902ee152ddbaa7cc8088bc5202e37108a4469e9ed71ae5a7628728a25465e3c28ba099b8e67ef9d495dfdd48f8f59c222df4ea9485c8fad6ee92b1347929702353d8f692824789c822dd72923800d36aef82f2ab04b63818d957f5dcab35c567a19e096249393a7a89652a41bd26b6127e8416fbd5b5e4a3eb46bc607cdfdfe5f69b4b32375da3cd44447c4f9f673dc06ee76b42484f944c5eebe18fca1f0b89da6b27cbfe28f1a6d046e564caa5ca4c75ff82a31c846ec210c104f433b7b2c988247b37b602d808ddf7638d4be83615cdb60cf731395831eb1570e5d82f1c3caafd865a206ef041a5176bea474b6ba10509e1c2697d965c39605ceea9da21e22ff6141901287ace49baa0ca0bb463533f9262efb2f0c1b9cd9623265741abe36f93974cf1a75c068ca0c54447f38e91cf61912a716cbff0264381d7df204bf7a83f48ff831450cb87e2f1937d93a43a5c6ba1a58d46e8d16e7f0c00e256770fc340cef424d0e4f37d5c08f0fc7a289f26057262d4311552ef4190fbdfc565f3e446dcadd7b00402835bf77f6d6d3e2246b2a41d46e8f109e718f0cc6a8218a000000",
  "txid": "ac29fbee6a2c9726a84a4a4dbb8f2cec51b505794fc3916dac88487a76746e42",
  "hash": "0ad6a24ac84cdd06ad722fe17345dc508cf51d21ff0c95efa19e8b85c278636c",
  "size": 5085,
  "vsize": 2278,
  "version": 1,
  "locktime": 138,
  "vin": [
    {
      "txid": "9ec613f05c80594a397e72d21a555bc8c7b6fa1a94ef5d6f686a10b24051428f",
      "vout": 0,
      "scriptSig": {
        "asm": "",
        "hex": ""
      },
      "txinwitness": [
        "f0b908ea8ae166e0315c3b60ed74f08e21065061436f06e8abef071d9611419cfde09ef884512c7dc4483aa4085d5476bd82e9917f12d6c3100a48db7ab92a9801c86c333657a780ae62170339d90bffcb225e0420f91a8a999bc4d7cadffbc31f641b3ccebe6e03bcfb2903bcdef3111298113284aa5a885af36b2a86689059edc27829ab9a749a39b19bef9d15dd1d6349c1040bd92f4f274db761a444f84e871daecdab4890e253145e91d9079cc0ab6be0b8a94858ac5254a2faadc431c8368083bf0e0645d6c77880fd761f3c2585b1dfe9f04a22f582a828ad46a4a3829db4d44caea8528151efe5bef341c6d3d5d895182e580a4826e939cb4c9d08b3fbf5d13992d32be75d220024c358a24b52464cf466b3f4f8b14aac29a57bd393f666f92728e2ccdac226fd95bf43177a3128158f2fb08ca4da1e1cdd43e8f8aa37628d277fe7671771b7a84013d95cc2ae8a60e78a17fb2c6ed8dce28212f0f783bd75a42cd1a9d7aa045f967a3685373e569cb8c74e782facb0be44b819ab04b6e0a5632c92c38593f1e988e4c67db8cb6c9a51df61d362e0d664a411c539720b5124272554ede3eee596b5d42564a921408f5b578c2ea54244a81ae46b8ef06c4210e84cf0042fb1c8d409be729044f738375392fb0fce648ee66d392b190076fcc1b0eb70d393cbfd6a5d9749a0a657b006a456d5c21994d036e40f4630dcf733c9b7fab0b951007958295d84d6f0516634c8b31029b6318db9769834effc70e11d78a52aae7ab8d322fd301b11c7f7ec92d3fdec4e72670728b08096961df10a42f083cd527381b089627a748aa73b4a92bdd36190b7f257a9d646a7cb68e99659d7c1cc8be4fedfc2d377fbfb25e420516c25cfc4617261b9af4c117e3053cd256df85765f8ba05ac4bc51302b062229d5951a68ee79f9a20bb55bb844e524f947e2a9afbe30dddf629c4418f9b38cb3483116cb7f55b1c3808aeefc316adf6fcaa0e58f3da4c35be53b519113393761477f139bdacb3d3d312793b998d05aba9623f9469a5bb3a00959bdeeb5aa2d44d2b2c4d803e0729038f2602dbcaeed7cc98cdee632498d5456569efaf2bced64bc6583e3444e865d84ce5c0323fbd548b225151e63a32d42702c71bcc12a5cf0fb08f58d7ba440b1781109df652e79d41370fc9aae66e477ab085ecf575f6642e843d5880803e24221144f90164fe39c947a73d6e789abf68f45df05a798174a8a656b4b30d0c4f22e9183292c5fc5c19faea7963ae604ffa39895d2af9bce9376552a2e013ae1def4615c367e46ce72267c406aa9564a9756859a21ba1b03b68021403116054da9807a30aeba6ea1e04d535efa32a1d2874a3572d27b53da2005cf6ede3fe507185605d251df35fe49881000c93edc7df96216e7b492e6fc1231231db36efea0ef3420eb4a4cd8949abcf7797d89ca475a1a9cf9f4c30bd862457ac73fe1fa7b65d97bc53b3e2eaffa5a92811cfbda2fd6bd3c2812f9032a4a8cf683ebd20f42232da99f59e3466ca9eb7dae377b0364ccfeec67a99922c4acd8f5857d40bb7326648c73440ad0546ca01d7427ead8ba2e258ecadb16010dc278727385d781a69a8f5f203e533c540bce4b667361c8c31f6968536a25417f2e20284adb83163d5ee6da6606fa6d2738942644c6478f4408b2492f29f28dab13c32fbe0042587b7211816815e2223d4af2051e35a99367cc77df5eaae7e966a5ddb07b52cd137e1beab76409ed2b45b162fdb0144e733443a5093b1ab398354a3809e2c1f10f35a3a8857413a0084ef0905f40607a1a09efbe49c64b53de12f7eeef02a11b3c59d218db7e1673f8372352c2a01269de96e3b8e34716abe6b5fc1e38b657acd23d8a187b698309f56c1f4f55a76617d9e9892816ec00e99f38b0e304a29d2055b097e1624cad1cb4d507fc3cffa249e1fcbad56d5f86854ebfbf88d3d16cbfd04a8d62c128f5fb9d648613f97f49c9b4e0ad0f368eba500fd75d6c060dc371dd81a59380d7f48e4d0b6b94bb8de92d7323026294956a21a3c34c1b018b78d47d496efcbecf0fd29743fe5e1410e45df8737fd301afd6412f72868d2f4172f87ae0ee8bbd742e35edda08426f16785cbb0cdd7aa2881953ac90c5591c696bc3dc48e01fe4ee8b71fd20d2db92d58ca40b6413de4b2fe78180482167a91c9449c059ad44f2c403a7dfdeeb8bc3436923c5b6e60441e89e7cdf20d9906338af06afea3277d0e529168534eed515615d95f0d7be71788fdfbe71c3e975e6dc417b953703ade1101902c151c2b69b6034077bfa563f8e570acab203e4b5364e8c7810657538617b655c907a497838031474866b0613bced266737f439c7cc499894961fd0d165f9cf9eed1160db195172b8023de902e9168b7041d45f163d740aa5bb53a233abcba18ec0cb6059ac572ae7e2e53e766333e2783b35a1fc0c8a4b4691fad2e6ea1d2ff2231ee32554c4f35031719362d25dc5d69c893c5096e65a50f07bcbcd9721090c011c5b0792cfe9b21200a8f061c77af589a52bc332d085771921f7f287e6e156580900a78cbe91b272627a1904c64e1aed38d961fa9dde282143f91d9b81c135c0bd92d1da260ec58405fa80e5d75ac59fa283e3875474b72a665b1e068ea13c1c2aa670b43f511402788f6d82b4d80ea2c8f50440b21eea9fd4fd2df299f7946543d7fca71fb8b0114ab6ab315672b8066b36538518f251cc7bae598b374f8b50920f3e2d017476caf1e2b3e48a74df158c023d9ccea4ffbb00f3d664633cce1eae667e25c15c96e2701c5ec178d383fe6b5cee4a21059705f50aa8ffdfe00bde4d6414c31ff6754a79da31affa3f8ae6e811745d785843698ccf7b74a2ac5bef5762244e2ba09134d7aefd487732abc6fe6b885407795f422fc8e9c62f347ad2f8fc8639749c0c95a311ac226a1081442916d8039dcab31105fbc31e00bc68a6777c3814706fb35c823068c702a14a1063d493945f36238af4622bdf163fa04bab9cd531603d008d416f0fac3c822533577feafb38f60259412d604eb5fa50ba689a4ac00c497e989baf5b1a0a53254b67eaa6a9692c6720f5df6d5e2d7c388f54fe0b5fdf65a8ef1ad2f23c493c35dab16945467e9efb50363d7e66213f7c3bd274b907da954b76dda5c0c4c920bf49ccfb2cf8741fbbf7d12b3014de788343066105cd5112c6d3921e764013d920900b1d25d34fd7726e7838f61fa77588ac2f4d4a5404f8d753b16582f371520417de7a995c339c1f72c0bed7978f97fb3040b4450526a798a959eb9caeb041d212d3e6a70779497a2aadcecf5ff012d33bcc7c9e008090b185362787b818fa0a9b0b4c8d0f4fa00000000000000000000000000000000000000000000000000000d1d243601",
        "0005d2cd39a76091563fb3246b17209cc1fdfba8278f27e89f5426d0aaf0daa460fccee0a90ac1610e672bdf34c81c5e959d0b415caeb91631fdb20a1d22736b00a1506b866a367f61d1a57610a9cd58148246a6c5a6f7d3c5c15d221f0defc2c92396fe7683047e48d8d5697d97d157949a77ac636346ac9080b2d663f15e386728918de20b807c86a8cc95e64dd1eba3775711109da94f96f02d1b2c79ae49149123dbcf39f6a445211916edf20e6076d6b592322b83d01dbe2ca2f2bb3087f53a8e43336e8662a2a8bce239ef35a5b188f7dbf63d53c12393b5eaea575eeb4ab3fe71891646a01854a8da4047f98979424e9cbf014e821e51b7f327bbaa30ef3b99947b7af4446335257a7c89de92009e50e3281b6a4d4fee751b45d19015041a844705ae5690ed28c00fda93098f7743aa9b39d21fc238f4010ceb81c376b91d9eeb00471092d38eadb9aa90e82980ce0998682b57402174aaf3ad06d9d42f9ca5ffd6b95b8ce0d6a37b2364918571d8a563ccc032a1a9a9b8c44541a2b224cba7267c918c23cf2bf16b8f203aaf0337872849dc98695af03fa2eef48e996b5dd1f581acd7e191d4210bafe87491778ae03d4ef819c6f086b35dd44d91ae7bb2bdab0f3a38c94c491e49ee9fa3d6677754a0c8ce904f6509f35a880cf03e975f4b98cd28718b9ffc444506085256d56de6d58adf4f62e07b8a78c9c5b0884f795acc6b2e87b78ebdb895f1534fe16cc19d0ba383c7820df8cc954f0e7dab7da747f33d737fb0ea624bea50dbbbd35ae20ae448abf206b78bd929eb5bf4091e8097c17a71ac8e648a2c307c9819a27826ffff1d8a11e5d5a2189c6f6d6159f0d175d7553cb1c75b4b881032fa8f1decee2825e4dee3bc840afdd071df7c25b5b138e2ac723acd7b92b42613b926e43ff1e5a16388f007d9bb2754be243eacd5e4da762467c637b51838e3f755c74cb627c5c2aee2f60ebddcf2aacd6ec18247b958a5c0d3aa69a082b51dd006e64d0c59f8ab9a2245843b8079730b78771b425a7ed517c5da835b6724dfe5d440ea51837118473ccacb31eec8b65168eca854e56fa7c29fc44d85c50190eb138fac3302a0165be1b53c20ce931cb86736e8b9cab62798d8458ce4725e478d1607b9ed85eaa987aa9459ce41a93b7ff4cd91f914756a8199f8bf67f7a70797323cdb16e798ddcb3e2c1f3412ceb62412d8dcfdcd156130ada2db102666e13334e8f9cf150211add9ae8a901dde690e45483919476902ee152ddbaa7cc8088bc5202e37108a4469e9ed71ae5a7628728a25465e3c28ba099b8e67ef9d495dfdd48f8f59c222df4ea9485c8fad6ee92b1347929702353d8f692824789c822dd72923800d36aef82f2ab04b63818d957f5dcab35c567a19e096249393a7a89652a41bd26b6127e8416fbd5b5e4a3eb46bc607cdfdfe5f69b4b32375da3cd44447c4f9f673dc06ee76b42484f944c5eebe18fca1f0b89da6b27cbfe28f1a6d046e564caa5ca4c75ff82a31c846ec210c104f433b7b2c988247b37b602d808ddf7638d4be83615cdb60cf731395831eb1570e5d82f1c3caafd865a206ef041a5176bea474b6ba10509e1c2697d965c39605ceea9da21e22ff6141901287ace49baa0ca0bb463533f9262efb2f0c1b9cd9623265741abe36f93974cf1a75c068ca0c54447f38e91cf61912a716cbff0264381d7df204bf7a83f48ff831450cb87e2f1937d93a43a5c6ba1a58d46e8d16e7f0c00e256770fc340cef424d0e4f37d5c08f0fc7a289f26057262d4311552ef4190fbdfc565f3e446dcadd7b00402835bf77f6d6d3e2246b2a41d46e8f109e718f0cc6a821"
      ],
      "sequence": 4294967294
    }
  ],
  "vout": [
    {
      "value": 499981.6958,
      "n": 0,
      "scriptPubKey": {
        "asm": "1 2af571b32a3f79e7c2c4c5cbc001d84918a0b597f439a1a83bd891adffa14dd3",
        "hex": "51202af571b32a3f79e7c2c4c5cbc001d84918a0b597f439a1a83bd891adffa14dd3",
        "reqSigs": 1,
        "type": "witness_v1_scripthash",
        "addresses": [
          "3QJmnh"
        ]
      }
    },
    {
      "value": 1.0,
      "n": 1,
      "scriptPubKey": {
        "asm": "OP_RETURN af5538caa4ff8cb013d420e16d0171a293e492209ecb288af3e257ddad40bbd3 ad62e3ae16288cf258920ddd7def0059df6b319ad5ab718eb917e2c3c4de90978d42c38e3608acd278b22dfd5dcf2079ff4b11baf58b51ae9937c2e3e4feb0b7ed22a3ee5668ccb218d24d9d3daf40199f2b71da95eb31cef957a283849ed0d7cd0283ce7648ec9238f26dbd1d8f6039bf0b51fab5cb11eed97782a3a4bef0f72de2632e96a80c72d8128d5dfd6f80d95febb11a552bf10e39976243445e10170dc2430eb6882c52f832ad7ddd4fa0f97fcb913a750bd12e19b74263647e30376da2236ed6e84c329852cd1dbd2fc0991fabf15a156bb14e79d72203041e50574d82034ef6c86c12b872ed3d9d0fe0b93f8bd17a354b916e59f70223243e7077ad62e3ae16288cf258920ddd7def0059df6b319ad5ab718eb917e2c3c4de90978d42c38e3608acd278b22dfd5dcf2079ff4b11baf58b51ae9937c2e3e4feb0b7ed22a3ee5668ccb218d24d9d3daf40199f2b71da95eb31cef957a283849ed0d7cd0283ce7648ec9238f26dbd1d8f6039bf0b51fab5cb11eed97782a3a4bef0f72de2632e96a80c72d8128d5dfd6f80d95febb11a552bf10e39976243445e10170dc2430eb6882c52f832ad7ddd4fa0f97fcb913a750bd12e19b74263647e30376da2236ed6e84c329852cd1dbd2fc0991fabf15a156bb14e79d72203041e50574d82034ef6c86c12b872ed3d9d0fe0b93f8bd17a354b916e59f70223243e7077ad62e3ae16288cf258920ddd7def0059df6b319ad5ab718eb917e2c3c4de90978d42c38e3608acd278b22dfd5dcf2079ff4b11baf58b51ae9937c2e3e4feb0b7ed22a3ee5668ccb218d24d9d3daf40199f2b71da95eb31cef957a283849ed0d7cd0283ce7648ec9238f26dbd1d8f6039bf0b51fab5cb11eed97782a3a4bef0f72de2632e96a80c72d8128d5dfd6f80d95febb11a552bf10e39976243445e10170dc2430eb6882c52f832ad7ddd4fa0f97fcb913a750bd12e19b74263647e30376da2236ed6e84c329852cd1dbd2fc0991fabf15a156bb14e79d72203041e50574d82034ef6c86c12b872ed3d9d0fe0b93f8bd17a354b916e59f70223243e7077ad62e3ae16288cf258920ddd7def0059df6b319ad5ab718eb917e2c3c4de90978d42c38e3608acd278b22dfd5dcf2079ff4b11baf58b51ae9937c2e3e4feb0b7ed22a3ee5668ccb218d24d9d3daf40199f2b71da95eb31cef957a283849ed0d7cd0283ce7648ec9238f26dbd1d8f6039bf0b51fab5cb11eed97782a3a4bef0f72de2632e96a80c72d8128d5dfd6f80d95febb11a552bf10e39976243445e10170dc2430eb6882c52f832ad7ddd4fa0f97fcb913a750bd12e19b74263647e30376da2236ed6e84c329852cd1dbd2fc0991fabf15a156bb14e79d72203041e50574d82034ef6c86c12b872ed3d9d0fe0b93f8bd17a354b916e59f70223243e7077ad62e3ae16288cf258920ddd7def0059df6b319ad5ab718eb917e2c3c4de90978d42c38e3608acd278b22dfd5dcf2079ff4b11baf58b51ae9937c2e3e4feb0b7ed22a3ee5668ccb218d24d9d3daf40199f2b71da95eb31cef957a283849ed0d7cd0283ce7648ec9238f26dbd1d8f6039bf0b51fab5cb11eed97782a3a4bef0f72de2632e96a80c72d8128d5dfd6f80d9327fda96205fb1bb4a4bc12bd81cca15c763906b29dac7d30b132b25379d3a33",
        "hex": "6a20af5538caa4ff8cb013d420e16d0171a293e492209ecb288af3e257ddad40bbd34db004ad62e3ae16288cf258920ddd7def0059df6b319ad5ab718eb917e2c3c4de90978d42c38e3608acd278b22dfd5dcf2079ff4b11baf58b51ae9937c2e3e4feb0b7ed22a3ee5668ccb218d24d9d3daf40199f2b71da95eb31cef957a283849ed0d7cd0283ce7648ec9238f26dbd1d8f6039bf0b51fab5cb11eed97782a3a4bef0f72de2632e96a80c72d8128d5dfd6f80d95febb11a552bf10e39976243445e10170dc2430eb6882c52f832ad7ddd4fa0f97fcb913a750bd12e19b74263647e30376da2236ed6e84c329852cd1dbd2fc0991fabf15a156bb14e79d72203041e50574d82034ef6c86c12b872ed3d9d0fe0b93f8bd17a354b916e59f70223243e7077ad62e3ae16288cf258920ddd7def0059df6b319ad5ab718eb917e2c3c4de90978d42c38e3608acd278b22dfd5dcf2079ff4b11baf58b51ae9937c2e3e4feb0b7ed22a3ee5668ccb218d24d9d3daf40199f2b71da95eb31cef957a283849ed0d7cd0283ce7648ec9238f26dbd1d8f6039bf0b51fab5cb11eed97782a3a4bef0f72de2632e96a80c72d8128d5dfd6f80d95febb11a552bf10e39976243445e10170dc2430eb6882c52f832ad7ddd4fa0f97fcb913a750bd12e19b74263647e30376da2236ed6e84c329852cd1dbd2fc0991fabf15a156bb14e79d72203041e50574d82034ef6c86c12b872ed3d9d0fe0b93f8bd17a354b916e59f70223243e7077ad62e3ae16288cf258920ddd7def0059df6b319ad5ab718eb917e2c3c4de90978d42c38e3608acd278b22dfd5dcf2079ff4b11baf58b51ae9937c2e3e4feb0b7ed22a3ee5668ccb218d24d9d3daf40199f2b71da95eb31cef957a283849ed0d7cd0283ce7648ec9238f26dbd1d8f6039bf0b51fab5cb11eed97782a3a4bef0f72de2632e96a80c72d8128d5dfd6f80d95febb11a552bf10e39976243445e10170dc2430eb6882c52f832ad7ddd4fa0f97fcb913a750bd12e19b74263647e30376da2236ed6e84c329852cd1dbd2fc0991fabf15a156bb14e79d72203041e50574d82034ef6c86c12b872ed3d9d0fe0b93f8bd17a354b916e59f70223243e7077ad62e3ae16288cf258920ddd7def0059df6b319ad5ab718eb917e2c3c4de90978d42c38e3608acd278b22dfd5dcf2079ff4b11baf58b51ae9937c2e3e4feb0b7ed22a3ee5668ccb218d24d9d3daf40199f2b71da95eb31cef957a283849ed0d7cd0283ce7648ec9238f26dbd1d8f6039bf0b51fab5cb11eed97782a3a4bef0f72de2632e96a80c72d8128d5dfd6f80d95febb11a552bf10e39976243445e10170dc2430eb6882c52f832ad7ddd4fa0f97fcb913a750bd12e19b74263647e30376da2236ed6e84c329852cd1dbd2fc0991fabf15a156bb14e79d72203041e50574d82034ef6c86c12b872ed3d9d0fe0b93f8bd17a354b916e59f70223243e7077ad62e3ae16288cf258920ddd7def0059df6b319ad5ab718eb917e2c3c4de90978d42c38e3608acd278b22dfd5dcf2079ff4b11baf58b51ae9937c2e3e4feb0b7ed22a3ee5668ccb218d24d9d3daf40199f2b71da95eb31cef957a283849ed0d7cd0283ce7648ec9238f26dbd1d8f6039bf0b51fab5cb11eed97782a3a4bef0f72de2632e96a80c72d8128d5dfd6f80d9327fda96205fb1bb4a4bc12bd81cca15c763906b29dac7d30b132b25379d3a33",
        "type": "nulldata"
      }
    }
  ],
  "blockhash": "394f302ff1829b8db869c98f7b64fb5f27cc2b50e933cff1e5bbeae34fa68a80",
  "confirmations": 1,
  "time": 1764183654,
  "blocktime": 1764183654
}