{
  "hex": "01000000000101bf216970d7c9b670a72ee7b13f9967a6232f1b171670c576d7377860a020a4fe0000000000feffffff0270cc3221792d0000225120a19c0a49e643479ea4fa2c4982384892740c7bfc427d5d7e778be2060db32f4000e1f50500000000fdd5046a20c4af004ec9c6f970c1b521e5a4bf932bb171d2a0544b818e81d97fc4366c66e24db004d8a1291764721a30647a61295399b7e7d220e355ad06fa878e1c261e87045570f881093744523a10445a410973b997c7f200c3758d26daa7ae3c063ea724755098e1695724325a70243a216913d9f7a79260a315ed46bac7ce5c665ec7441530b8c1497704127a50041a014933f9d787b2408335cd669ae7ee7c467ee76435105821a997e4f29ab0e4fae1a9d319376752a063d52d867a070e9ca69e0784d5f0780189b7c4d2ba90c4dac189f3391747728043f50da65a272ebc86be27a4f5d01861e9d7a4b2daf0a4baa1e99359772712e023956dc63a474edce6de47c495b03841c9f78492fad0849a81c9b379570732c003b54de61a676efcc6fe67e4b590d8a1291764721a30647a61295399b7e7d220e355ad06fa878e1c261e87045570f881093744523a10445a410973b997c7f200c3758d26daa7ae3c063ea724755098e1695724325a70243a216913d9f7a79260a315ed46bac7ce5c665ec7441530b8c1497704127a50041a014933f9d787b2408335cd669ae7ee7c467ee76435105821a997e4f29ab0e4fae1a9d319376752a063d52d867a070e9ca69e0784d5f0780189b7c4d2ba90c4dac189f3391747728043f50da65a272ebc86be27a4f5d01861e9d7a4b2daf0a4baa1e99359772712e023956dc63a474edce6de47c495b03841c9f78492fad0849a81c9b379570732c003b54de61a676efcc6fe67e4b590d8a1291764721a30647a61295399b7e7d220e355ad06fa878e1c261e87045570f881093744523a10445a410973b997c7f200c3758d26daa7ae3c063ea724755098e1695724325a70243a216913d9f7a79260a315ed46bac7ce5c665ec7441530b8c1497704127a50041a014933f9d787b2408335cd669ae7ee7c467ee76435105821a997e4f29ab0e4fae1a9d319376752a063d52d867a070e9ca69e0784d5f0780189b7c4d2ba90c4dac189f3391747728043f50da65a272ebc86be27a4f5d01861e9d7a4b2daf0a4baa1e99359772712e023956dc63a474edce6de47c495b03841c9f78492fad0849a81c9b379570732c003b54de61a676efcc6fe67e4b590d8a1291764721a30647a61295399b7e7d220e355ad06fa878e1c261e87045570f881093744523a10445a410973b997c7f200c3758d26daa7ae3c063ea724755098e1695724325a70243a216913d9f7a79260a315ed46bac7ce5c665ec7441530b8c1497704127a50041a014933f9d787b2408335cd669ae7ee7c467ee76435105821a997e4f29ab0e4fae1a9d319376752a063d52d867a070e9ca69e0784d5f0780189b7c4d2ba90c4dac189f3391747728043f50da65a272ebc86be27a4f5d01861e9d7a4b2daf0a4baa1e99359772712e023956dc63a474edce6de47c495b03841c9f78492fad0849a81c9b379570732c003b54de61a676efcc6fe67e4b590d8a1291764721a30647a61295399b7e7d220e355ad06fa878e1c261e87045570f881093744523a10445a410973b997c7f200c3758d26daa7ae3c063ea724755098e1695724325a70243a216913d9f7a79260a315ed46bac7ce5c665ec7441530b8c1497704127a50041a014933f9d787b2408335cd669ae7ee7c467ee76435105821a997e4f29ab0e4fae1a9d3193767b97ff212830a1d303d2e4da9c638f6ce1bc68bca5e18c8377542f306bdea0ed102fd7509bcd5a0cf5343848fdd652ceddcaa2a786b7a72bc6535444c0c23a4af16b200d269f2e99aaf296f5743b2d00e7ced3f9e2848a1b29cddb3b94ade2d13a435ff8914e2a419f5a754aa86c6511ac2352c6f9ef28c0972e13b9b2ca43221c9e3ea0f181a741f6601921815fd7dc72a24d284fa8faa73c4689c433624580cd80aa6a7a248fbc093f8687d50033e1ce9422d88a09fc78c8e8f7e565bc82cc36bdcf0a076bad245342dca4af850ea777607efc215e22cedd8a1a34976cea2a28e953867221cc2c10c8cd7c23f3ebaf35f966b91e996854ffa42c27bd947a1718652c3f647288b4f2462f619da71d5f5a7ca1a675e43a9fcdfad269476a795fae3601af18ee730c075f7c58246dc0a47a56afe6c0c45982a5dbea4bce17fee7d87805166f6e308e59f3e30b14d603c6abb35257f3d6d1db973a5173ba1e28dc1caf8efbb09e1ad5d593b1378453705d44373469128dd51be03193c3d146a2a01a15b6e362656d533a3e7307c0d42b30d0b97c26c257f272056fd59b62e97607da0822791a7eb82237bcb95f709b79d91a07f884d4f6429d5667dcf8ac5242da0462f2e82353fc306b7010ae6254ad3d0bd80431041e2ba921e1d52daac45ba4b313366055e627f361130e0b96d744e0e079f49623999a10127f17f2c5f0008705b885ebcbd345e10fdd0c4ce1c07808802b40a7676fd1004b90f74112322d580a1ced7aee30f5b84b906016226ce4b7b663da9dd7af276b9680f767f5ee780b72d17d59186d4eb0dab965183465400dc5eab33afb318c05784d788d4281c7afe0e02fb23aeb97def8f8e5965cb280fe698148ebeda7bfae1f7081288dfab846ab2c291ac095e1b8b9faf5f433604f505864d9e3b1fcf955ecfdc8a822cf3253e095db3159b279a190b1f45710d16b3413eb3cc7e7d9454766d9965b2b623837e28b86756fac30188db5953c4f4e2989cb32cd1ba55566d8c7b78a64fbf9fcbf243cad9c996cf66ed9395b3a8700e0bb9066896ec81a00f354ae146d7eef05d21810284bea64ba352652c0d905a4e0cfd326a2957b7d39623ceb6dd200e3ec161a7ce09cdb5e3bfead302a8918e932d5ce73c7d5bd5c30be5fb019fe15f446caeb0c5ed104596236648d6d15b7902f7c199eee14914f5e883afd20489b3499444efe2527e6fea43f7bd04ac6de89d8829834d1a3c25a766aef556cfebc9bcebf58230f9588f50a0b12fc83f74cf3e319540ec5d3e772c225ebfc430a49986ba7a3ae7f7aeb493c9cf6f9eb6eeeb636cb46b6a3fc5b7c8ce35d5bf4c9fc7dba29864482a64f4b61de30188a87c161ad8d4773dae37225d96228f1d85b3a1786c3cc0db7bf5371e82771e826a748fe0830495858649e9460248dced2fb044fff0f7fb198500b4425ff02dee555b68370c51b2adf944dcf8e83450d0c56ea8c00258c476e94717e8b0a08ad0da642fea0b5a879860600213560fbfebb54c951c1681c6071348eb6217e044bd5620a34462b37ceb3e0c395b036c07a8220366367035d29fb59129664f6abea68238513f36104e4e096b5eb195eb047afbd5903b44739fa37d415b8798b59aa6582c0d66d5b4cd4c34a52804533bd78a474ac29b2f7f16584de5c2efaee4480efbe5143fed54fe683faddaf32d5b4b7bb67857a77bcef08ac1603bcd7c05d0664ffad53bec2b59af1a3fa6b19a7e6e6fd0ac9fd6f8bbbbc1bfac2a9c1f2ac573324719d6a81637f83893b4127f4ae68a3b5bb6e7e09eafcd363fc0ec6139b15a09f553d7a8c7adeb7cbaddae57d2819f001c58995f942b04848ccc5582d4afaa42a5cf08240c93e4535ead85d1a38c3e1e854d44b58b1b4352c93d55338da2fc803974fe92613ac814253ae747ce7e8ddb3a160a3fdb2dae68b56424484e2baa8a7079080165604e86229b2d7a6d039ed0648d59547fe5108c8871fcca9f2ca487a386a021a733e6b9bd926fba0dbc9bf1d352ade95a8bd97dd8d396ceeb82e02efc5e074ed6875d0e39072d9993c7308284c9c07ac1c788135c73a5793e363e40bebf669e8d9bcecbecbcebe0da41778470bb63e4dd44e43fa9c14c7ac2f11557b21161580af77b0248c158c94224f84eebcc63aec064d5dc45b9e1524e983fa6a73d41c91dac7bf531cd0ebbea1fc417ad938fe19146d6d7a62b4d19cf2aa376c946394acc3b298a2ac15a6ff9942536c45932e6cb5abccd4ea59e2deeb9ce76aadf59e79ab78f7cb393ba43a097bda2fac37888923be1371c701336ff4a4e5e83581a51adaee2c3aa7458ba2ee05c8660e9735dd8f1f5b1592f97f4bfe567991300dc926366f69b300111ac26773ba6730862e8c23547bbd09fac2e801e8206a983c3bf849769d7ccb9c91fdc0e2cb1df3cf0e8d05ce0776dd019effecb02b32decbf241407f423988aae1909e2ded38c7dce67ef798e575b3f7551ba1c8d77a34ad6e39eebbf1277db6adcabfe84ec88aaa69b2f36a1acc194cf274d29238774d20349057b329fb7d119071a10a1e1033a0220266526394e117b97ee2ecd7667479843f7c60307468af431007eb70349f1909948b9cb7e2d7bfabaad4f3f5f5db889fdbae4339eec395c738d30504877764d3061428eb2c06c425f6f21e76316474f6f848214b9a08c9b05deedebf5dc3188334f062d94461ca5d15e647485d5253905013fd013d8135dda5de649f3f42e38bfa52c073eb0d2e77b5a118609584e9f087f280ac3346379900e4c5a77616e6ea821908b0366763f75547cf0f9a597416e4842966885984bf47d702260fa4519c08c48b3cd370b2a1e1579df846b23e48823d325e51342fd13ff3b4999b86dfebd7b556e923711a514f1e85757d9b67e442dced015169e20dccfca495c83ccf24e6de60c8589a31fb84f0fb435a63d728a6b333ca0f03d0919be4e856b63b9b6826304ae78bb28ffa8fbb993fa5458335d790223343e846407f6bbdace556626816800a32cdd44e1c842a9c12a2562cb5be1cdb3d233678000bc7ebec4e6842409ea40378c5d8bc00291b7cd5950f60c2dd1fe41d540fe4f3aabdf2563925bb581a2e3cb3f8b772a9206193137ef903419505a4658c94a9a734840e1a57f7f2544fb1cd1a914e5cf053b27062ec0627ee9c39e234d05a9ef3e149554a296ac0291e6885a4171b4cc7ea93abab30062ee763dd3a2a11ea09bb60b973ef1b812477ea7ef80664ad3ed9b50819904fd562836160916e69a667cb08cb453029b60f809dd449c8b32a78111a5ce0bd6a94556fb6f786e241090af21d053f3b5bf54ab62ecc71c81bf151f27303f4c595d5f676983849da6e9f3f505061f354f62787c7e8895b7cde2f3011f2e4a557678909ba5b2bac9dee7f3fc1a2042596c85a7abbdc2c6c7d5e4000000000000000000000000000000001221324001fd210500479ac8a96678b17bbe50c959a31474de93505a0a6ca1dd74bc6ee8ede3351a4ca3b857434deb7c31546e4c65ff3d7f51809c5d90439c9ccdc23bbd88de9d4289f348b27d4892aeb4122e27e7616cd34aedef6fdbc2728481b703acb30b7187ba5d2d08cc950a4477d87c6f9567d4c1c1f36a9771ac93c2843c489b8e4c11572d1291f44214b1726d992c15b38947cd24be67ef2d6ae7a9fd5505f0af22d1a61f9a8046551499531aba4bc7daa0e052ba045d8b05094727fbe405e8aadd41c095eb067cbbc3cf53f46188cf07b2e3b27552f157eb16fbdea519f14f6f3dd2ee5b9a9508094cbfb660891ca51c5fde221450deec0944b144951b3d1742d4141841db0bd2401f72bdf64d5ad29bd6566f085c9aacc7cf31d59b03aad81b971b899b900b3689639ac13cbb9ff93df8fa5743808823431a28c51842530da764b1ac8d16d2208c5bf8528158d8a8996280c59ff1ec4e9ed90746164ff58cb6dccba35667c158ede22bdab9bb18dd6a587a54471dfaaf0574c8d699e2f8dfa0fe7d5a8e27d6c6ba89eda1d855666a8b22b89f7de88b80162e7377e5de066592436e6e8ad9df0cd26f433637415a18114cdec303183d4ad937192423e2fcb00c186a54ffa022d602fbb481afc440d84650b80121d4b861e3cdc1507a7e515f373910f727c412dd247064d1a2724ce617ae5b69f0f287fda11b8bbb4f43418835a02d2deb64f414ab7cb19618720eae5accd95c28f06cc38ab5a5bc8b2614518b768a11c097d1901b03fb050adb7555ea58761d3b19de185fd45a55fac2f2efff9f16fa376f4d0f5d419ca87c75bee10b352360c943cb10cadc92fd9980648634f91e41f45b25442d72b7852abea4597a0197e38d6a6e1fd5eae5b8b2ea20352c65c46a162113e2861295c55ae286eb004685668aba1532e903a767265fda8e016cac85620632965faa39acd089eae470af4a7215cef0c4271ba9f29784548ff678adedeef5397f8423bc694e8bc4a72cdfbf448ef5e1b1ceb7fcc44bae27a4c1d25719b5f36b45724dc6a99cb5855855b7756cf258f7fb543db4f6f2c1f8ca543f6cebdb88204cc6019ab81dabbadb28dee024adaf3a8351527aa06ca5671825b018b395613fcac1b72abc019cc885221fcefaa3b495177986d8687a4e77223f9def5f59f9e27111b24e6ab58019a6ef00f3540cef43f4e09acf6f580dc3f0bb685d31ced55fafe4edce97903922a00b15ea0f040d6c26aa5eaaa85f1d4d7a56003e315ee4388bf7e30ffc0646d59e8fd3230cfa044aa078af67d53e631fc4694351e87d4dc4cf1dfcb0b0798f968ce87ba5f8518f868853a0565909684a6dfeb2ac34187489a138c8a08bb7e40c4a92f95e1750d4b459f8d8dd3fc3b0d736bf110c6fbfde9c62dd32992dca092e6a23e870c8b6cf15e3053d711441d304b269b497c6123e93debcfc0c4ad7aec9bfcd4f5ff814e7083318db2534c752648090fbae56c3742bc18afbe08c14577c7aced8c020caba4593cdd2b28dfc6f002b6b0a68a605836a7e815dc346995ebfb3bb9e42422f4a35476968eda43d5860554541d981dde3b5f7dd3468f503c38f04c4e83cb1bf519eabd2acfd7d3ec0187ad2d5990584cdc879335df0384e32b24932e84d92bceddddfbc996fc57175108000f83e308b84d889a7d1bcd3df8400a1d2895ea7a9d6186badc44642bf651d3d7bf0826616a34fdce9cdf52195e068fbb4bb285354e343672c703203e098c5026bc3d1753f7b7b8357af58965a3971a65af220a7892134b8c5a15887972cff3d7660439ae0d2b64d3fdb7fceb422fc8492d174c769aa58d853b8eeffcacf3d3c2a5360da1a31000000",
  "txid": "aa7982ad5c5a32ef31ebb46c36621fdb317d2b0c5fdf8636af657c58354f720f",
  "hash": "2f4a3d5d9a8f35a3970afc202307a3092efccbb07c504ddf568d2c6c48a05504",
  "size": 5085,
  "vsize": 2278,
  "version": 1,
  "locktime": 49,
  "vin": [
    {
      "txid": "fea420a0607837d776c57016171b2f23a667993fb1e72ea770b6c9d7706921bf",
      "vout": 0,
      "scriptSig": {
        "asm": "",
        "hex": ""
      },
      "txinwitness": [
        "bcd5a0cf5343848fdd652ceddcaa2a786b7a72bc6535444c0c23a4af16b200d269f2e99aaf296f5743b2d00e7ced3f9e2848a1b29cddb3b94ade2d13a435ff8914e2a419f5a754aa86c6511ac2352c6f9ef28c0972e13b9b2ca43221c9e3ea0f181a741f6601921815fd7dc72a24d284fa8faa73c4689c433624580cd80aa6a7a248fbc093f8687d50033e1ce9422d88a09fc78c8e8f7e565bc82cc36bdcf0a076bad245342dca4af850ea777607efc215e22cedd8a1a34976cea2a28e953867221cc2c10c8cd7c23f3ebaf35f966b91e996854ffa42c27bd947a1718652c3f647288b4f2462f619da71d5f5a7ca1a675e43a9fcdfad269476a795fae3601af18ee730c075f7c58246dc0a47a56afe6c0c45982a5dbea4bce17fee7d87805166f6e308e59f3e30b14d603c6abb35257f3d6d1db973a5173ba1e28dc1caf8efbb09e1ad5d593b1378453705d44373469128dd51be03193c3d146a2a01a15b6e362656d533a3e7307c0d42b30d0b97c26c257f272056fd59b62e97607da0822791a7eb82237bcb95f709b79d91a07f884d4f6429d5667dcf8ac5242da0462f2e82353fc306b7010ae6254ad3d0bd80431041e2ba921e1d52daac45ba4b313366055e627f361130e0b96d744e0e079f49623999a10127f17f2c5f0008705b885ebcbd345e10fdd0c4ce1c07808802b40a7676fd1004b90f74112322d580a1ced7aee30f5b84b906016226ce4b7b663da9dd7af276b9680f767f5ee780b72d17d59186d4eb0dab965183465400dc5eab33afb318c05784d788d4281c7afe0e02fb23aeb97def8f8e5965cb280fe698148ebeda7bfae1f7081288dfab846ab2c291ac095e1b8b9faf5f433604f505864d9e3b1fcf955ecfdc8a822cf3253e095db3159b279a190b1f45710d16b3413eb3cc7e7d9454766d9965b2b623837e28b86756fac30188db5953c4f4e2989cb32cd1ba55566d8c7b78a64fbf9fcbf243cad9c996cf66ed9395b3a8700e0bb9066896ec81a00f354ae146d7eef05d21810284bea64ba352652c0d905a4e0cfd326a2957b7d39623ceb6dd200e3ec161a7ce09cdb5e3bfead302a8918e932d5ce73c7d5bd5c30be5fb019fe15f446caeb0c5ed104596236648d6d15b7902f7c199eee14914f5e883afd20489b3499444efe2527e6fea43f7bd04ac6de89d8829834d1a3c25a766aef556cfebc9bcebf58230f9588f50a0b12fc83f74cf3e319540ec5d3e772c225ebfc430a49986ba7a3ae7f7aeb493c9cf6f9eb6eeeb636cb46b6a3fc5b7c8ce35d5bf4c9fc7dba29864482a64f4b61de30188a87c161ad8d4773dae37225d96228f1d85b3a1786c3cc0db7bf5371e82771e826a748fe0830495858649e9460248dced2fb044fff0f7fb198500b4425ff02dee555b68370c51b2adf944dcf8e83450d0c56ea8c00258c476e94717e8b0a08ad0da642fea0b5a879860600213560fbfebb54c951c1681c6071348eb6217e044bd5620a34462b37ceb3e0c395b036c07a8220366367035d29fb59129664f6abea68238513f36104e4e096b5eb195eb047afbd5903b44739fa37d415b8798b59aa6582c0d66d5b4cd4c34a52804533bd78a474ac29b2f7f16584de5c2efaee4480efbe5143fed54fe683faddaf32d5b4b7bb67857a77bcef08ac1603bcd7c05d0664ffad53bec2b59af1a3fa6b19a7e6e6fd0ac9fd6f8bbbbc1bfac2a9c1f2ac573324719d6a81637f83893b4127f4ae68a3b5bb6e7e09eafcd363fc0ec6139b15a09f553d7a8c7adeb7cbaddae57d2819f001c58995f942b04848ccc5582d4afaa42a5cf08240c93e4535ead85d1a38c3e1e854d44b58b1b4352c93d55338da2fc803974fe92613ac814253ae747ce7e8ddb3a160a3fdb2dae68b56424484e2baa8a7079080165604e86229b2d7a6d039ed0648d59547fe5108c8871fcca9f2ca487a386a021a733e6b9bd926fba0dbc9bf1d352ade95a8bd97dd8d396ceeb82e02efc5e074ed6875d0e39072d9993c7308284c9c07ac1c788135c73a5793e363e40bebf669e8d9bcecbecbcebe0da41778470bb63e4dd44e43fa9c14c7ac2f11557b21161580af77b0248c158c94224f84eebcc63aec064d5dc45b9e1524e983fa6a73d41c91dac7bf531cd0ebbea1fc417ad938fe19146d6d7a62b4d19cf2aa376c946394acc3b298a2ac15a6ff9942536c45932e6cb5abccd4ea59e2deeb9ce76aadf59e79ab78f7cb393ba43a097bda2fac37888923be1371c701336ff4a4e5e83581a51adaee2c3aa7458ba2ee05c8660e9735dd8f1f5b1592f97f4bfe567991300dc926366f69b300111ac26773ba6730862e8c23547bbd09fac2e801e8206a983c3bf849769d7ccb9c91fdc0e2cb1df3cf0e8d05ce0776dd019effecb02b32decbf241407f423988aae1909e2ded38c7dce67ef798e575b3f7551ba1c8d77a34ad6e39eebbf1277db6adcabfe84ec88aaa69b2f36a1acc194cf274d29238774d20349057b329fb7d119071a10a1e1033a0220266526394e117b97ee2ecd7667479843f7c60307468af431007eb70349f1909948b9cb7e2d7bfabaad4f3f5f5db889fdbae4339eec395c738d30504877764d3061428eb2c06c425f6f21e76316474f6f848214b9a08c9b05deedebf5dc3188334f062d94461ca5d15e647485d5253905013fd013d8135dda5de649f3f42e38bfa52c073eb0d2e77b5a118609584e9f087f280ac3346379900e4c5a77616e6ea821908b0366763f75547cf0f9a597416e4842966885984bf47d702260fa4519c08c48b3cd370b2a1e1579df846b23e48823d325e51342fd13ff3b4999b86dfebd7b556e923711a514f1e85757d9b67e442dced015169e20dccfca495c83ccf24e6de60c8589a31fb84f0fb435a63d728a6b333ca0f03d0919be4e856b63b9b6826304ae78bb28ffa8fbb993fa5458335d790223343e846407f6bbdace556626816800a32cdd44e1c842a9c12a2562cb5be1cdb3d233678000bc7ebec4e6842409ea40378c5d8bc00291b7cd5950f60c2dd1fe41d540fe4f3aabdf2563925bb581a2e3cb3f8b772a9206193137ef903419505a4658c94a9a734840e1a57f7f2544fb1cd1a914e5cf053b27062ec0627ee9c39e234d05a9ef3e149554a296ac0291e6885a4171b4cc7ea93abab30062ee763dd3a2a11ea09bb60b973ef1b812477ea7ef80664ad3ed9b50819904fd562836160916e69a667cb08cb453029b60f809dd449c8b32a78111a5ce0bd6a94556fb6f786e241090af21d053f3b5bf54ab62ecc71c81bf151f27303f4c595d5f676983849da6e9f3f505061f354f62787c7e8895b7cde2f3011f2e4a557678909ba5b2bac9dee7f3fc1a2042596c85a7abbdc2c6c7d5e4000000000000000000000000000000001221324001",
        "00479ac8a96678b17bbe50c959a31474de93505a0a6ca1dd74bc6ee8ede3351a4ca3b857434deb7c31546e4c65ff3d7f51809c5d90439c9ccdc23bbd88de9d4289f348b27d4892aeb4122e27e7616cd34aedef6fdbc2728481b703acb30b7187ba5d2d08cc950a4477d87c6f9567d4c1c1f36a9771ac93c2843c489b8e4c11572d1291f44214b1726d992c15b38947cd24be67ef2d6ae7a9fd5505f0af22d1a61f9a8046551499531aba4bc7daa0e052ba045d8b05094727fbe405e8aadd41c095eb067cbbc3cf53f46188cf07b2e3b27552f157eb16fbdea519f14f6f3dd2ee5b9a9508094cbfb660891ca51c5fde221450deec0944b144951b3d1742d4141841db0bd2401f72bdf64d5ad29bd6566f085c9aacc7cf31d59b03aad81b971b899b900b3689639ac13cbb9ff93df8fa5743808823431a28c51842530da764b1ac8d16d2208c5bf8528158d8a8996280c59ff1ec4e9ed90746164ff58cb6dccba35667c158ede22bdab9bb18dd6a587a54471dfaaf0574c8d699e2f8dfa0fe7d5a8e27d6c6ba89eda1d855666a8b22b89f7de88b80162e7377e5de066592436e6e8ad9df0cd26f433637415a18114cdec303183d4ad937192423e2fcb00c186a54ffa022d602fbb481afc440d84650b80121d4b861e3cdc1507a7e515f373910f727c412dd247064d1a2724ce617ae5b69f0f287fda11b8bbb4f43418835a02d2deb64f414ab7cb19618720eae5accd95c28f06cc38ab5a5bc8b2614518b768a11c097d1901b03fb050adb7555ea58761d3b19de185fd45a55fac2f2efff9f16fa376f4d0f5d419ca87c75bee10b352360c943cb10cadc92fd9980648634f91e41f45b25442d72b7852abea4597a0197e38d6a6e1fd5eae5b8b2ea20352c65c46a162113e2861295c55ae286eb004685668aba1532e903a767265fda8e016cac85620632965faa39acd089eae470af4a7215cef0c4271ba9f29784548ff678adedeef5397f8423bc694e8bc4a72cdfbf448ef5e1b1ceb7fcc44bae27a4c1d25719b5f36b45724dc6a99cb5855855b7756cf258f7fb543db4f6f2c1f8ca543f6cebdb88204cc6019ab81dabbadb28dee024adaf3a8351527aa06ca5671825b018b395613fcac1b72abc019cc885221fcefaa3b495177986d8687a4e77223f9def5f59f9e27111b24e6ab58019a6ef00f3540cef43f4e09acf6f580dc3f0bb685d31ced55fafe4edce97903922a00b15ea0f040d6c26aa5eaaa85f1d4d7a56003e315ee4388bf7e30ffc0646d59e8fd3230cfa044aa078af67d53e631fc4694351e87d4dc4cf1dfcb0b0798f968ce87ba5f8518f868853a0565909684a6dfeb2ac34187489a138c8a08bb7e40c4a92f95e1750d4b459f8d8dd3fc3b0d736bf110c6fbfde9c62dd32992dca092e6a23e870c8b6cf15e3053d711441d304b269b497c6123e93debcfc0c4ad7aec9bfcd4f5ff814e7083318db2534c752648090fbae56c3742bc18afbe08c14577c7aced8c020caba4593cdd2b28dfc6f002b6b0a68a605836a7e815dc346995ebfb3bb9e42422f4a35476968eda43d5860554541d981dde3b5f7dd3468f503c38f04c4e83cb1bf519eabd2acfd7d3ec0187ad2d5990584cdc879335df0384e32b24932e84d92bceddddfbc996fc57175108000f83e308b84d889a7d1bcd3df8400a1d2895ea7a9d6186badc44642bf651d3d7bf0826616a34fdce9cdf52195e068fbb4bb285354e343672c703203e098c5026bc3d1753f7b7b8357af58965a3971a65af220a7892134b8c5a15887972cff3d7660439ae0d2b64d3fdb7fceb422fc8492d174c769aa58d853b8eeffcacf3d3c2a5360da1a"
      ],
      "sequence": 4294967294
    }
  ],
  "vout": [
    {
      "value": 499982.7127,
      "n": 0,
      "scriptPubKey": {
        "asm": "1 a19c0a49e643479ea4fa2c4982384892740c7bfc427d5d7e778be2060db32f40",
        "hex": "5120a19c0a49e643479ea4fa2c4982384892740c7bfc427d5d7e778be2060db32f40",
        "reqSigs": 1,
        "type": "witness_v1_scripthash",
        "addresses": [
          "3QJmnh"
        ]
      }
    },
    {
      "value": 1.0,
      "n": 1,
      "scriptPubKey": {
        "asm": "OP_RETURN c4af004ec9c6f970c1b521e5a4bf932bb171d2a0544b818e81d97fc4366c66e2 d8a1291764721a30647a61295399b7e7d220e355ad06fa878e1c261e87045570f881093744523a10445a410973b997c7f200c3758d26daa7ae3c063ea724755098e1695724325a70243a216913d9f7a79260a315ed46bac7ce5c665ec7441530b8c1497704127a50041a014933f9d787b2408335cd669ae7ee7c467ee76435105821a997e4f29ab0e4fae1a9d319376752a063d52d867a070e9ca69e0784d5f0780189b7c4d2ba90c4dac189f3391747728043f50da65a272ebc86be27a4f5d01861e9d7a4b2daf0a4baa1e99359772712e023956dc63a474edce6de47c495b03841c9f78492fad0849a81c9b379570732c003b54de61a676efcc6fe67e4b590d8a1291764721a30647a61295399b7e7d220e355ad06fa878e1c261e87045570f881093744523a10445a410973b997c7f200c3758d26daa7ae3c063ea724755098e1695724325a70243a216913d9f7a79260a315ed46bac7ce5c665ec7441530b8c1497704127a50041a014933f9d787b2408335cd669ae7ee7c467ee76435105821a997e4f29ab0e4fae1a9d319376752a063d52d867a070e9ca69e0784d5f0780189b7c4d2ba90c4dac189f3391747728043f50da65a272ebc86be27a4f5d01861e9d7a4b2daf0a4baa1e99359772712e023956dc63a474edce6de47c495b03841c9f78492fad0849a81c9b379570732c003b54de61a676efcc6fe67e4b590d8a1291764721a30647a61295399b7e7d220e355ad06fa878e1c261e87045570f881093744523a10445a410973b997c7f200c3758d26daa7ae3c063ea724755098e1695724325a70243a216913d9f7a79260a315ed46bac7ce5c665ec7441530b8c1497704127a50041a014933f9d787b2408335cd669ae7ee7c467ee76435105821a997e4f29ab0e4fae1a9d319376752a063d52d867a070e9ca69e0784d5f0780189b7c4d2ba90c4dac189f3391747728043f50da65a272ebc86be27a4f5d01861e9d7a4b2daf0a4baa1e99359772712e023956dc63a474edce6de47c495b03841c9f78492fad0849a81c9b379570732c003b54de61a676efcc6fe67e4b590d8a1291764721a30647a61295399b7e7d220e355ad06fa878e1c261e87045570f881093744523a10445a410973b997c7f200c3758d26daa7ae3c063ea724755098e1695724325a70243a216913d9f7a79260a315ed46bac7ce5c665ec7441530b8c1497704127a50041a014933f9d787b2408335cd669ae7ee7c467ee76435105821a997e4f29ab0e4fae1a9d319376752a063d52d867a070e9ca69e0784d5f0780189b7c4d2ba90c4dac189f3391747728043f50da65a272ebc86be27a4f5d01861e9d7a4b2daf0a4baa1e99359772712e023956dc63a474edce6de47c495b03841c9f78492fad0849a81c9b379570732c003b54de61a676efcc6fe67e4b590d8a1291764721a30647a61295399b7e7d220e355ad06fa878e1c261e87045570f881093744523a10445a410973b997c7f200c3758d26daa7ae3c063ea724755098e1695724325a70243a216913d9f7a79260a315ed46bac7ce5c665ec7441530b8c1497704127a50041a014933f9d787b2408335cd669ae7ee7c467ee76435105821a997e4f29ab0e4fae1a9d3193767b97ff212830a1d303d2e4da9c638f6ce1bc68bca5e18c8377542f306bdea0ed1",
        "hex": "6a20c4af004ec9c6f970c1b521e5a4bf932bb171d2a0544b818e81d97fc4366c66e24db004d8a1291764721a30647a61295399b7e7d220e355ad06fa878e1c261e87045570f881093744523a10445a410973b997c7f200c3758d26daa7ae3c063ea724755098e1695724325a70243a216913d9f7a79260a315ed46bac7ce5c665ec7441530b8c1497704127a50041a014933f9d787b2408335cd669ae7ee7c467ee76435105821a997e4f29ab0e4fae1a9d319376752a063d52d867a070e9ca69e0784d5f0780189b7c4d2ba90c4dac189f3391747728043f50da65a272ebc86be27a4f5d01861e9d7a4b2daf0a4baa1e99359772712e023956dc63a474edce6de47c495b03841c9f78492fad0849a81c9b379570732c003b54de61a676efcc6fe67e4b590d8a1291764721a30647a61295399b7e7d220e355ad06fa878e1c261e87045570f881093744523a10445a410973b997c7f200c3758d26daa7ae3c063ea724755098e1695724325a70243a216913d9f7a79260a315ed46bac7ce5c665ec7441530b8c1497704127a50041a014933f9d787b2408335cd669ae7ee7c467ee76435105821a997e4f29ab0e4fae1a9d319376752a063d52d867a070e9ca69e0784d5f0780189b7c4d2ba90c4dac189f3391747728043f50da65a272ebc86be27a4f5d01861e9d7a4b2daf0a4baa1e99359772712e023956dc63a474edce6de47c495b03841c9f78492fad0849a81c9b379570732c003b54de61a676efcc6fe67e4b590d8a1291764721a30647a61295399b7e7d220e355ad06fa878e1c261e87045570f881093744523a10445a410973b997c7f200c3758d26daa7ae3c063ea724755098e1695724325a70243a216913d9f7a79260a315ed46bac7ce5c665ec7441530b8c1497704127a50041a014933f9d787b2408335cd669ae7ee7c467ee76435105821a997e4f29ab0e4fae1a9d319376752a063d52d867a070e9ca69e0784d5f0780189b7c4d2ba90c4dac189f3391747728043f50da65a272ebc86be27a4f5d01861e9d7a4b2daf0a4baa1e99359772712e023956dc63a474edce6de47c495b03841c9f78492fad0849a81c9b379570732c003b54de61a676efcc6fe67e4b590d8a1291764721a30647a61295399b7e7d220e355ad06fa878e1c261e87045570f881093744523a10445a410973b997c7f200c3758d26daa7ae3c063ea724755098e1695724325a70243a216913d9f7a79260a315ed46bac7ce5c665ec7441530b8c1497704127a50041a014933f9d787b2408335cd669ae7ee7c467ee76435105821a997e4f29ab0e4fae1a9d319376752a063d52d867a070e9ca69e0784d5f0780189b7c4d2ba90c4dac189f3391747728043f50da65a272ebc86be27a4f5d01861e9d7a4b2daf0a4baa1e99359772712e023956dc63a474edce6de47c495b03841c9f78492fad0849a81c9b379570732c003b54de61a676efcc6fe67e4b590d8a1291764721a30647a61295399b7e7d220e355ad06fa878e1c261e87045570f881093744523a10445a410973b997c7f200c3758d26daa7ae3c063ea724755098e1695724325a70243a216913d9f7a79260a315ed46bac7ce5c665ec7441530b8c1497704127a50041a014933f9d787b2408335cd669ae7ee7c467ee76435105821a997e4f29ab0e4fae1a9d3193767b97ff212830a1d303d2e4da9c638f6ce1bc68bca5e18c8377542f306bdea0ed1",
        "type": "nulldata"
      }
    }
  ],
  "blockhash": "a404c97fd79b0f74ac8935f18e4afcd6ffd73e4b441b9f6bd67a7215b8c8499e",
  "confirmations": 1,
  "time": 1764178774,
  "blocktime": 1764178774
}