{
  "hex": "01000000000101db08327eff769767874b80e5787aabc0796590adaca7e40609d9692424ccaed80100000000feffffff0200e1f50500000000fdd5046a20572af39465cb160c116a870ebd72cdb8fd0c0a1a8ab24dbf60fc01589481b4854db0040ebbdab330626253f47607c94856987b87f2751db21b5bcdd65400d4df0b97212e9bfa9310424273d45627e96876b85ba7d2553d923b7bedf67420f4ff2bb7014efb9af370222213b43647890816d83bc7b2355df25b1b8d961440949f4bd7616edbbad350020233941667a92836f81be792157dd27b3badb63460b4bf6bf7418e3b5a33b0e2e2d374f68749c8d618fb0772f59d329bdb4d56d480545f8b17a1ae1b7a1390c2c2f354d6a769e8f638db2752d5bd12bbfb6d76f4a0747fab3781ce7b1a73f0a2a29334b6c709889658bb4732b5dd72db9b0d1694c0141fcb57e1ee5b3a53d08282b31496e729a8b6789b671295fd52fbbb2d36b4e0343feb77c10ebbdab330626253f47607c94856987b87f2751db21b5bcdd65400d4df0b97212e9bfa9310424273d45627e96876b85ba7d2553d923b7bedf67420f4ff2bb7014efb9af370222213b43647890816d83bc7b2355df25b1b8d961440949f4bd7616edbbad350020233941667a92836f81be792157dd27b3badb63460b4bf6bf7418e3b5a33b0e2e2d374f68749c8d618fb0772f59d329bdb4d56d480545f8b17a1ae1b7a1390c2c2f354d6a769e8f638db2752d5bd12bbfb6d76f4a0747fab3781ce7b1a73f0a2a29334b6c709889658bb4732b5dd72db9b0d1694c0141fcb57e1ee5b3a53d08282b31496e729a8b6789b671295fd52fbbb2d36b4e0343feb77c10ebbdab330626253f47607c94856987b87f2751db21b5bcdd65400d4df0b97212e9bfa9310424273d45627e96876b85ba7d2553d923b7bedf67420f4ff2bb7014efb9af370222213b43647890816d83bc7b2355df25b1b8d961440949f4bd7616edbbad350020233941667a92836f81be792157dd27b3badb63460b4bf6bf7418e3b5a33b0e2e2d374f68749c8d618fb0772f59d329bdb4d56d480545f8b17a1ae1b7a1390c2c2f354d6a769e8f638db2752d5bd12bbfb6d76f4a0747fab3781ce7b1a73f0a2a29334b6c709889658bb4732b5dd72db9b0d1694c0141fcb57e1ee5b3a53d08282b31496e729a8b6789b671295fd52fbbb2d36b4e0343feb77c10ebbdab330626253f47607c94856987b87f2751db21b5bcdd65400d4df0b97212e9bfa9310424273d45627e96876b85ba7d2553d923b7bedf67420f4ff2bb7014efb9af370222213b43647890816d83bc7b2355df25b1b8d961440949f4bd7616edbbad350020233941667a92836f81be792157dd27b3badb63460b4bf6bf7418e3b5a33b0e2e2d374f68749c8d618fb0772f59d329bdb4d56d480545f8b17a1ae1b7a1390c2c2f354d6a769e8f638db2752d5bd12bbfb6d76f4a0747fab3781ce7b1a73f0a2a29334b6c709889658bb4732b5dd72db9b0d1694c0141fcb57e1ee5b3a53d08282b31496e729a8b6789b671295fd52fbbb2d36b4e0343feb77c10ebbdab330626253f47607c94856987b87f2751db21b5bcdd65400d4df0b97212e9bfa9310424273d45627e96876b85ba7d2553d923b7bedf67420f4ff2bb7014efb9af370222213b43647890816d83bc7b2355df25b1b8d961440949f4bd7616edbbad350020233941667a92836f81be792157dd27b3badb63460b4bf6bf7418e3b5a33b0e2e2d374f68749c8d618fbfb5b6a2ec1fcb1fc9915788a80a89312a15846abd7d8725eba97ccaa7e450faf3079f9a7782d0000225120965501c9f6a3be94fa32e0624e20566edbc88f7c977f78cdcb33a0c9f1d5ffbc02fd75099fc1b4e1537bd4d7501c0b1fcd84e6fa8ef4736884ce1acb0aabbc7557fde7d439a81c9fa3909553f0737ddab2883ad3bc7d66614f9dcc66ca5e4cc8621cc8ae57d4e83df90838c53dfaa01a23672f030874c9c06808945a182ecdf905f67c4a351348b66887d5c490bd1a2d3c546d80b9a597c34633c38aad833d3c336f648a914f2f07f757a913fd8f2892c2b47db925221c7e1d49f284695576174e79c2d91433d4aa375bd448110a5dcbbe46bbd4a2eb97a209ee2b2b852e046e2d9d63579303abfe0178bee7f1d760e8642d77fb5dfd9cb751a969bb69788291140e5503dc9631bc67bdc95f4569da83b174190a4b5c19106ff2b34324cb3242945eda9af389c2a42d33a9d0a67e7d65a4a8af0880d0ed1b225825d6f02c43600ea4c23a1479fd90d50ccad724f1d17ea5536ef1f84a16842219ce425415caab67c22f381b64d6be8c598456db5991fba3ae22f7d444c693f1cd63f1cd4f799987149bcf164ae7dbb44b6abff673837d2982b3fe4cca25ca773a61ebb3c47aa342fd269df6ac090788fc61be8ab55dc9d88012cbd5584c495ff79a7afe70b002cc77ae7f5eafd4bce5b5b53e5df0037862ea368a83a17477726b0053f2bed043ce0422280954640c7307232f9ea618d9dc78d4fa1d70df6f0fee7180ede1d9be33bc352fffdac01541d5023a86a5cc0e1ffef89f9bca505df329f7579b73541ccc4ad23a0a36c81f4af1176054c37869f16c30fbe36e1ff12393b7d72cfa2a1c1ecdd2868f9d89f6aeecbcd84e781bc4204cbf93ee9dd6b323411acfa6783c665354c0454798c92caff8ea05c3888464ec44a8e816a236ac1f4018293ab5e0afc0d4fa6dae310f541670449166c9f77ca21469006f1f7abdbeb02a6f97925a02b6ca898f5eec094f34f6d1b9b51599e774a12f61f58f5daf608187c092b04574eded9116faa027b56b31b52b75979d8f59f3243312749b9291c9ce21047ba0f93edf331f9a6ff06b3c2e18752f993ee4044401689b3de2960ef33ee60f6ffc11e4841376e3edc167650411dd66dae33052066834f3ee3503d649d7faaa1547de23ca237bc5b1f5622c20a9a45954dafc0ef8841d1c2572ca79702916b05d3d7dfc97b8a50f0656307895e3d5630e772c8baac6deab7d5a53016df5f988c03443a5ab75e04c50fce74b42ac6c22e788323d1c5d1c7fbb7fed174225530c98ac535c1612067cf3f0975b7e6ffeb3f03ebf1ab4041e22680e46a7310ed4675b5eff7448f8fbf01e0ff8426640db664636bf1141b832c375125b3094897fcc8591f73ef7eef5388b3993af1ca69cb78580b0d6b8b89c0da81527c4095d72af26cc2627f005eb6c77dad9108bd886c8d8831fe835b67ba7a2553113cb9261e2eb23931b957f8a3044584d8f3c28079fa157ffd46c7ea4fb0e673cb95137e3148cf8c8ee0f0368f9429b83ae39121999e3f9a925668102b2666e25bfbde3f0d1dec6530094dec13f44576317ce4acdd13dd9baa2cbda9bead581ed46c989d2988dc8a2e9ba79c4238ae4b0fb762693377ac5cc15c2f01a3f60331609a79f5ea5eb185c34959aa87fd89442d7ce908f907fa849468efdc29e1953979ef61f85a6711b9f2ff9b57a4ae581983d90aed52e6a93f11f4f149eb9c88f443daf086e985287cd2f149a4f9ce1ee47fafff86bf9c09c7225980bd05ae6806a89063dd04e169a39d9f5e3ff912a8fe59978b9421b6fb225376131a3e5ffee340986fb51e295cea5487d655afade9d2f9822337685999e16bbb22637d943b0c042408cf7aa8dc0c0be804a67ece9d8636430512aed66b50161a81d4a2422d61e66ac2c304a0d1632fd4cedf4ec93e35064dd6914bcd25162c9e607e43c6e42e54c73b1c19f2f256b32ff70c7e1eefd5868da3102532182260698718e11cd35ebbe0cdf40a4d2270a7360d469d324f22373a90e4d46b41cfb1a9259df160f4095d2c13100ea21b7dc9ef5a0b4a82cf901ef72f2ef24e34ae1982b02761bac2578c008e777a70959f5d2a94eaf5634e85fc66cc1919499b528afd3d63ea1b18617c762c52bccc1cd8eb31f94c8a94e859acde8fe33ea604709ce26c17b88b18b94cd5295e527a85e4b352e62e701ceda4f9c58d2d64bc120f541ad69a2d4da48a129ec41c05d3bada26f8252293730f1f1419612635ec9979ee0aed0a966b4f56557ba4a203fc615a95a680e85099c2b0f5359b3088bf484fb76b3749b77361be1ef91cbafe0097931a10cb7f2efcf187636362cfd4ea839a4fd1a8e41aa93714a6eca46a22b286bb6c260fd2c86a3a1cfe27595a4593326b2fadde215be0b2df8d71f5b27380ce8d66c3cd814d42ddec3c9858fcde596cc62a2148f3a7ea2f2597808989a49265980224f99ddf9f79ad9297b608e651b74a4ddc79fbb8a95bc03eb80ad08c37c7c9c8fc05060badebf30b95d6b1150f4ff8c1add4963aa13d64e5faa85fafd401998484db8a35946e8b009d759ae1c43ebcc70f147716c119e74ee84d6b75a6fd3048a2ee21546f3414909629f73e42193607044a7b9e3413203c509b13955492216b141abb9c4a614a4c1aa1a1dfdf14ca06e47a897f8873981d121fc3875d6ed17b76ef4425d36dc44dfeb483f5ac2e547b74dc16613e48266c975d3f6707d96f1a614f8baec4d0857a6be8d45939a53129491ec19f4ae05225568ab9a57d00f926e76cc50cde3d5434a6cd651da189d5f9057b144cbfa2139d971ccf2b563237c73925f7c4819862dd939ba0ede3dfddc38b98dfbe8ac69d37c5108cee1e33079c9278170f76c05d29902dd85e5cf29f1992bff75f9ca42e800b6c2b43806f79e7d89c5562651895ac63b5375625b2d33fc2720f5829f8dffa1d194243e34279148041b876791cdd99903c48294a63d09f177699af550ebe5539f79bf428e1c8075f83a3d9bf042677bc3ee9710cbfa2a7a46bf3051d0e569bfc508d5ef52a0afb927ede529cdf1d71f26d70a1f2a7b1843df6943693b4c4f1a74a16193b97abf99acafe4a6542867a7fa71655d77707c79182b3b3110a90c111dd57919cd1cf3f7ed674ac09e20a5ff2f2109c33c1d13137b9ba8c107904bfd78c191efd6d11996faa42304d1f1ca3db951f6bb8d42f5c2a917bbb642cad8ca4fb168244eb40931895b564efe3b101291f5f62406291bcbc6154b08290ff5f190fe13a4660d96c2e2cb3318dc12c3e58a423d91d51b1cad6cc06ab789815e4f11f06e91ae037c95308aca8b5f5f21fae44422d4f1d4a9414efc268809d26a02cd00ed178f8aeb46e3d6fc053e51525f64717698aeb3b6b8bdc2cacee2e8040e11383a3f575d6070adb6bed1d8e1fb404e58afb1bcd2dce2eef1132228525b90aeb4ec00000000000000000000000000000000000000000000000013242f3801fd2105007a26e2e610cf1db0862fee91cc16c59865e8209002b916a9dd8ab14527ae893861c6e8c96557e16d3636b2cfe6c3365ad49d3b27b1efd7500edf270ce0ff9b29e7c8c057c08e5cb37beefafa041661fa90e103d1ad36543a7f90c1b56a186dabd813bdd5dcfdac40873cb6a957bcb32bf6075991b782e8490f113e097b55dd87279ffb08594ba4e11d3affc0297a797aca8185f5a40ef44b3ddc6c6d66088def730cfc4e2706f1604292bd99e842a5672d864d53b22e0112fa4ad312870f2379ce0b9763eb75ed6a4c7faaf96af134fe8d4dadd29b63527bb63e0ea8ab6e3e5ec448ab5aa04348100518a4c6d16295c71af139a5d713144f5893e7b3e4db15245cb267c65db582a44cd4775be0bb5a4a26742b7be9e3aa57134f9c3b37fde4214f431c42590b447fee3704011aaaadb1c1bb20d4f4282454cc8960dadcb195a73fc689d23e8e4884f447c7386ecc8839e20d2c0725f46c284930c94e96be3a41b4c99a0f1f6b05dba7006354d6a97f48b8b0e590171ae6373c1a99b6d38a1881aff0a9ab56e0a0d8b4ea90e9a3cf553ada37ee4e35394c5d426b6d5c120bb1532909e3da7cb2e76900b54e9b374e65bf311c5e0e7713f6b4f1f2ab83c161ecc0f7d497f619b84bfddeb095c063f7d039747224cc57f692223bc25ca6d28a501e88d70c5394d563f6fc7f0f9c2db77ff13b3309da3bd39fc07d34e8e411089fc220e88442fd51173f6c86288850e936faa619b5dd1ceb82bd1f2dbed03be52319ebd709558278f3bebe69e364cf852b2b6c5909cf6b437f2850ac8567d8666591627d8b667e2d9185b3e372d8da3db3eada1e051438ce59098dfe9b372e3ce09051b72ba1d857a9d65a95e753230f2a98a02d12f7fd04585fcddf99716e75690d516576d95eed119119c9936e2f9e9f18ea5fbede4623ba9803da3271b7b1103702c78db231d1f1a261af127c5e7232162ca33431b4936eacea88763835e2bfc215fe10ec9ec21e896ff317daf36c889946848db53b8bb0df65f0562a1712b11c9e8fe26ad038d07537128d319848696906d233531e23298f0190b7b193dab351d93d2b015834cdd901e7b2f5db3bf21d6269f64fd895b6d7bc462222cc3328e2aacc5f7d1c9637d4721189d555e79582f3295ad5e99851c215d031c694c575cd7b798a0a4ea67174ae724a1ce437b6f6654427f2851692fca98e68b81220e9b39b6438a9a3896a52bf5ea1f19e20236876c95cec21ac5f74cfdbf4d4667e188d884a419d335ee93a73a05a3b328ed18da1ec1c8a067d337ec1cc7f1c6cb00d4324cf471f60e32f5f0d29912f744c98a65b877ac6029d7b777382998515ebfd97f26d3dd29de402e5c37e2646cf830383317f7b0414da0aafd2d29b82cef249e21bc7e3f05537a20be21a7f9d64a44cfd68cff850b87c34b6070d09281b30356bb22f13ec81d5ec1e117194bed7d58def971ff415e6f1a9c62fbde3e2f517f59662c904809ed2da2e1ffe74364542807c039aa86d9764b62fd7b6e538dfd7412fe4eac7c58868af4f8826bc1f77ada82ed88af6e9fed64bbd62ad2465320a651589211fbf8ede2c235118f7fceda6e1ba216a31bbb07399a3d16512ead3bd0d3ae1e9145180de10e9ba654f297600d987133f239d75029924a1441186a5b90640158d3397ad2e76dc6dd31da80dde17918a66aec55455a774d18be1c39eaac0c0ed93467346d4398fc367ac1220c86e00f562a2554a68373791e458da6646918b9b79859c4053539d02e5591b914032a672f8d678b7ecebab63d4b1bd38b496038dd769ea2fa69785bf954dcb8c844da4985b9a64f227aace9049fad0428c66f187000000",
  "txid": "aba795d52dabcd65dcaeaa3035e45cbab2893efd8bc5d2e74f4981b97948ef1e",
  "hash": "1116c996c409832feac6efc0e8947ad13e2b6724d5e7d5c2e3411a594dbf9fa0",
  "size": 5085,
  "vsize": 2278,
  "version": 1,
  "locktime": 135,
  "vin": [
    {
      "txid": "d8aecc242469d90906e4a7acad906579c0ab7a78e5804b87679776ff7e3208db",
      "vout": 1,
      "scriptSig": {
        "asm": "",
        "hex": ""
      },
      "txinwitness": [
        "9fc1b4e1537bd4d7501c0b1fcd84e6fa8ef4736884ce1acb0aabbc7557fde7d439a81c9fa3909553f0737ddab2883ad3bc7d66614f9dcc66ca5e4cc8621cc8ae57d4e83df90838c53dfaa01a23672f030874c9c06808945a182ecdf905f67c4a351348b66887d5c490bd1a2d3c546d80b9a597c34633c38aad833d3c336f648a914f2f07f757a913fd8f2892c2b47db925221c7e1d49f284695576174e79c2d91433d4aa375bd448110a5dcbbe46bbd4a2eb97a209ee2b2b852e046e2d9d63579303abfe0178bee7f1d760e8642d77fb5dfd9cb751a969bb69788291140e5503dc9631bc67bdc95f4569da83b174190a4b5c19106ff2b34324cb3242945eda9af389c2a42d33a9d0a67e7d65a4a8af0880d0ed1b225825d6f02c43600ea4c23a1479fd90d50ccad724f1d17ea5536ef1f84a16842219ce425415caab67c22f381b64d6be8c598456db5991fba3ae22f7d444c693f1cd63f1cd4f799987149bcf164ae7dbb44b6abff673837d2982b3fe4cca25ca773a61ebb3c47aa342fd269df6ac090788fc61be8ab55dc9d88012cbd5584c495ff79a7afe70b002cc77ae7f5eafd4bce5b5b53e5df0037862ea368a83a17477726b0053f2bed043ce0422280954640c7307232f9ea618d9dc78d4fa1d70df6f0fee7180ede1d9be33bc352fffdac01541d5023a86a5cc0e1ffef89f9bca505df329f7579b73541ccc4ad23a0a36c81f4af1176054c37869f16c30fbe36e1ff12393b7d72cfa2a1c1ecdd2868f9d89f6aeecbcd84e781bc4204cbf93ee9dd6b323411acfa6783c665354c0454798c92caff8ea05c3888464ec44a8e816a236ac1f4018293ab5e0afc0d4fa6dae310f541670449166c9f77ca21469006f1f7abdbeb02a6f97925a02b6ca898f5eec094f34f6d1b9b51599e774a12f61f58f5daf608187c092b04574eded9116faa027b56b31b52b75979d8f59f3243312749b9291c9ce21047ba0f93edf331f9a6ff06b3c2e18752f993ee4044401689b3de2960ef33ee60f6ffc11e4841376e3edc167650411dd66dae33052066834f3ee3503d649d7faaa1547de23ca237bc5b1f5622c20a9a45954dafc0ef8841d1c2572ca79702916b05d3d7dfc97b8a50f0656307895e3d5630e772c8baac6deab7d5a53016df5f988c03443a5ab75e04c50fce74b42ac6c22e788323d1c5d1c7fbb7fed174225530c98ac535c1612067cf3f0975b7e6ffeb3f03ebf1ab4041e22680e46a7310ed4675b5eff7448f8fbf01e0ff8426640db664636bf1141b832c375125b3094897fcc8591f73ef7eef5388b3993af1ca69cb78580b0d6b8b89c0da81527c4095d72af26cc2627f005eb6c77dad9108bd886c8d8831fe835b67ba7a2553113cb9261e2eb23931b957f8a3044584d8f3c28079fa157ffd46c7ea4fb0e673cb95137e3148cf8c8ee0f0368f9429b83ae39121999e3f9a925668102b2666e25bfbde3f0d1dec6530094dec13f44576317ce4acdd13dd9baa2cbda9bead581ed46c989d2988dc8a2e9ba79c4238ae4b0fb762693377ac5cc15c2f01a3f60331609a79f5ea5eb185c34959aa87fd89442d7ce908f907fa849468efdc29e1953979ef61f85a6711b9f2ff9b57a4ae581983d90aed52e6a93f11f4f149eb9c88f443daf086e985287cd2f149a4f9ce1ee47fafff86bf9c09c7225980bd05ae6806a89063dd04e169a39d9f5e3ff912a8fe59978b9421b6fb225376131a3e5ffee340986fb51e295cea5487d655afade9d2f9822337685999e16bbb22637d943b0c042408cf7aa8dc0c0be804a67ece9d8636430512aed66b50161a81d4a2422d61e66ac2c304a0d1632fd4cedf4ec93e35064dd6914bcd25162c9e607e43c6e42e54c73b1c19f2f256b32ff70c7e1eefd5868da3102532182260698718e11cd35ebbe0cdf40a4d2270a7360d469d324f22373a90e4d46b41cfb1a9259df160f4095d2c13100ea21b7dc9ef5a0b4a82cf901ef72f2ef24e34ae1982b02761bac2578c008e777a70959f5d2a94eaf5634e85fc66cc1919499b528afd3d63ea1b18617c762c52bccc1cd8eb31f94c8a94e859acde8fe33ea604709ce26c17b88b18b94cd5295e527a85e4b352e62e701ceda4f9c58d2d64bc120f541ad69a2d4da48a129ec41c05d3bada26f8252293730f1f1419612635ec9979ee0aed0a966b4f56557ba4a203fc615a95a680e85099c2b0f5359b3088bf484fb76b3749b77361be1ef91cbafe0097931a10cb7f2efcf187636362cfd4ea839a4fd1a8e41aa93714a6eca46a22b286bb6c260fd2c86a3a1cfe27595a4593326b2fadde215be0b2df8d71f5b27380ce8d66c3cd814d42ddec3c9858fcde596cc62a2148f3a7ea2f2597808989a49265980224f99ddf9f79ad9297b608e651b74a4ddc79fbb8a95bc03eb80ad08c37c7c9c8fc05060badebf30b95d6b1150f4ff8c1add4963aa13d64e5faa85fafd401998484db8a35946e8b009d759ae1c43ebcc70f147716c119e74ee84d6b75a6fd3048a2ee21546f3414909629f73e42193607044a7b9e3413203c509b13955492216b141abb9c4a614a4c1aa1a1dfdf14ca06e47a897f8873981d121fc3875d6ed17b76ef4425d36dc44dfeb483f5ac2e547b74dc16613e48266c975d3f6707d96f1a614f8baec4d0857a6be8d45939a53129491ec19f4ae05225568ab9a57d00f926e76cc50cde3d5434a6cd651da189d5f9057b144cbfa2139d971ccf2b563237c73925f7c4819862dd939ba0ede3dfddc38b98dfbe8ac69d37c5108cee1e33079c9278170f76c05d29902dd85e5cf29f1992bff75f9ca42e800b6c2b43806f79e7d89c5562651895ac63b5375625b2d33fc2720f5829f8dffa1d194243e34279148041b876791cdd99903c48294a63d09f177699af550ebe5539f79bf428e1c8075f83a3d9bf042677bc3ee9710cbfa2a7a46bf3051d0e569bfc508d5ef52a0afb927ede529cdf1d71f26d70a1f2a7b1843df6943693b4c4f1a74a16193b97abf99acafe4a6542867a7fa71655d77707c79182b3b3110a90c111dd57919cd1cf3f7ed674ac09e20a5ff2f2109c33c1d13137b9ba8c107904bfd78c191efd6d11996faa42304d1f1ca3db951f6bb8d42f5c2a917bbb642cad8ca4fb168244eb40931895b564efe3b101291f5f62406291bcbc6154b08290ff5f190fe13a4660d96c2e2cb3318dc12c3e58a423d91d51b1cad6cc06ab789815e4f11f06e91ae037c95308aca8b5f5f21fae44422d4f1d4a9414efc268809d26a02cd00ed178f8aeb46e3d6fc053e51525f64717698aeb3b6b8bdc2cacee2e8040e11383a3f575d6070adb6bed1d8e1fb404e58afb1bcd2dce2eef1132228525b90aeb4ec00000000000000000000000000000000000000000000000013242f3801",
        "007a26e2e610cf1db0862fee91cc16c59865e8209002b916a9dd8ab14527ae893861c6e8c96557e16d3636b2cfe6c3365ad49d3b27b1efd7500edf270ce0ff9b29e7c8c057c08e5cb37beefafa041661fa90e103d1ad36543a7f90c1b56a186dabd813bdd5dcfdac40873cb6a957bcb32bf6075991b782e8490f113e097b55dd87279ffb08594ba4e11d3affc0297a797aca8185f5a40ef44b3ddc6c6d66088def730cfc4e2706f1604292bd99e842a5672d864d53b22e0112fa4ad312870f2379ce0b9763eb75ed6a4c7faaf96af134fe8d4dadd29b63527bb63e0ea8ab6e3e5ec448ab5aa04348100518a4c6d16295c71af139a5d713144f5893e7b3e4db15245cb267c65db582a44cd4775be0bb5a4a26742b7be9e3aa57134f9c3b37fde4214f431c42590b447fee3704011aaaadb1c1bb20d4f4282454cc8960dadcb195a73fc689d23e8e4884f447c7386ecc8839e20d2c0725f46c284930c94e96be3a41b4c99a0f1f6b05dba7006354d6a97f48b8b0e590171ae6373c1a99b6d38a1881aff0a9ab56e0a0d8b4ea90e9a3cf553ada37ee4e35394c5d426b6d5c120bb1532909e3da7cb2e76900b54e9b374e65bf311c5e0e7713f6b4f1f2ab83c161ecc0f7d497f619b84bfddeb095c063f7d039747224cc57f692223bc25ca6d28a501e88d70c5394d563f6fc7f0f9c2db77ff13b3309da3bd39fc07d34e8e411089fc220e88442fd51173f6c86288850e936faa619b5dd1ceb82bd1f2dbed03be52319ebd709558278f3bebe69e364cf852b2b6c5909cf6b437f2850ac8567d8666591627d8b667e2d9185b3e372d8da3db3eada1e051438ce59098dfe9b372e3ce09051b72ba1d857a9d65a95e753230f2a98a02d12f7fd04585fcddf99716e75690d516576d95eed119119c9936e2f9e9f18ea5fbede4623ba9803da3271b7b1103702c78db231d1f1a261af127c5e7232162ca33431b4936eacea88763835e2bfc215fe10ec9ec21e896ff317daf36c889946848db53b8bb0df65f0562a1712b11c9e8fe26ad038d07537128d319848696906d233531e23298f0190b7b193dab351d93d2b015834cdd901e7b2f5db3bf21d6269f64fd895b6d7bc462222cc3328e2aacc5f7d1c9637d4721189d555e79582f3295ad5e99851c215d031c694c575cd7b798a0a4ea67174ae724a1ce437b6f6654427f2851692fca98e68b81220e9b39b6438a9a3896a52bf5ea1f19e20236876c95cec21ac5f74cfdbf4d4667e188d884a419d335ee93a73a05a3b328ed18da1ec1c8a067d337ec1cc7f1c6cb00d4324cf471f60e32f5f0d29912f744c98a65b877ac6029d7b777382998515ebfd97f26d3dd29de402e5c37e2646cf830383317f7b0414da0aafd2d29b82cef249e21bc7e3f05537a20be21a7f9d64a44cfd68cff850b87c34b6070d09281b30356bb22f13ec81d5ec1e117194bed7d58def971ff415e6f1a9c62fbde3e2f517f59662c904809ed2da2e1ffe74364542807c039aa86d9764b62fd7b6e538dfd7412fe4eac7c58868af4f8826bc1f77ada82ed88af6e9fed64bbd62ad2465320a651589211fbf8ede2c235118f7fceda6e1ba216a31bbb07399a3d16512ead3bd0d3ae1e9145180de10e9ba654f297600d987133f239d75029924a1441186a5b90640158d3397ad2e76dc6dd31da80dde17918a66aec55455a774d18be1c39eaac0c0ed93467346d4398fc367ac1220c86e00f562a2554a68373791e458da6646918b9b79859c4053539d02e5591b914032a672f8d678b7ecebab63d4b1bd38b496038dd769ea2fa69785bf954dcb8c844da4985b9a64f227aace9049fad0428c66f1"
      ],
      "sequence": 4294967294
    }
  ],
  "vout": [
    {
      "value": 1.0,
      "n": 0,
      "scriptPubKey": {
        "asm": "OP_RETURN 572af39465cb160c116a870ebd72cdb8fd0c0a1a8ab24dbf60fc01589481b485 0ebbdab330626253f47607c94856987b87f2751db21b5bcdd65400d4df0b97212e9bfa9310424273d45627e96876b85ba7d2553d923b7bedf67420f4ff2bb7014efb9af370222213b43647890816d83bc7b2355df25b1b8d961440949f4bd7616edbbad350020233941667a92836f81be792157dd27b3badb63460b4bf6bf7418e3b5a33b0e2e2d374f68749c8d618fb0772f59d329bdb4d56d480545f8b17a1ae1b7a1390c2c2f354d6a769e8f638db2752d5bd12bbfb6d76f4a0747fab3781ce7b1a73f0a2a29334b6c709889658bb4732b5dd72db9b0d1694c0141fcb57e1ee5b3a53d08282b31496e729a8b6789b671295fd52fbbb2d36b4e0343feb77c10ebbdab330626253f47607c94856987b87f2751db21b5bcdd65400d4df0b97212e9bfa9310424273d45627e96876b85ba7d2553d923b7bedf67420f4ff2bb7014efb9af370222213b43647890816d83bc7b2355df25b1b8d961440949f4bd7616edbbad350020233941667a92836f81be792157dd27b3badb63460b4bf6bf7418e3b5a33b0e2e2d374f68749c8d618fb0772f59d329bdb4d56d480545f8b17a1ae1b7a1390c2c2f354d6a769e8f638db2752d5bd12bbfb6d76f4a0747fab3781ce7b1a73f0a2a29334b6c709889658bb4732b5dd72db9b0d1694c0141fcb57e1ee5b3a53d08282b31496e729a8b6789b671295fd52fbbb2d36b4e0343feb77c10ebbdab330626253f47607c94856987b87f2751db21b5bcdd65400d4df0b97212e9bfa9310424273d45627e96876b85ba7d2553d923b7bedf67420f4ff2bb7014efb9af370222213b43647890816d83bc7b2355df25b1b8d961440949f4bd7616edbbad350020233941667a92836f81be792157dd27b3badb63460b4bf6bf7418e3b5a33b0e2e2d374f68749c8d618fb0772f59d329bdb4d56d480545f8b17a1ae1b7a1390c2c2f354d6a769e8f638db2752d5bd12bbfb6d76f4a0747fab3781ce7b1a73f0a2a29334b6c709889658bb4732b5dd72db9b0d1694c0141fcb57e1ee5b3a53d08282b31496e729a8b6789b671295fd52fbbb2d36b4e0343feb77c10ebbdab330626253f47607c94856987b87f2751db21b5bcdd65400d4df0b97212e9bfa9310424273d45627e96876b85ba7d2553d923b7bedf67420f4ff2bb7014efb9af370222213b43647890816d83bc7b2355df25b1b8d961440949f4bd7616edbbad350020233941667a92836f81be792157dd27b3badb63460b4bf6bf7418e3b5a33b0e2e2d374f68749c8d618fb0772f59d329bdb4d56d480545f8b17a1ae1b7a1390c2c2f354d6a769e8f638db2752d5bd12bbfb6d76f4a0747fab3781ce7b1a73f0a2a29334b6c709889658bb4732b5dd72db9b0d1694c0141fcb57e1ee5b3a53d08282b31496e729a8b6789b671295fd52fbbb2d36b4e0343feb77c10ebbdab330626253f47607c94856987b87f2751db21b5bcdd65400d4df0b97212e9bfa9310424273d45627e96876b85ba7d2553d923b7bedf67420f4ff2bb7014efb9af370222213b43647890816d83bc7b2355df25b1b8d961440949f4bd7616edbbad350020233941667a92836f81be792157dd27b3badb63460b4bf6bf7418e3b5a33b0e2e2d374f68749c8d618fbfb5b6a2ec1fcb1fc9915788a80a89312a15846abd7d8725eba97ccaa7e450faf",
        "hex": "6a20572af39465cb160c116a870ebd72cdb8fd0c0a1a8ab24dbf60fc01589481b4854db0040ebbdab330626253f47607c94856987b87f2751db21b5bcdd65400d4df0b97212e9bfa9310424273d45627e96876b85ba7d2553d923b7bedf67420f4ff2bb7014efb9af370222213b43647890816d83bc7b2355df25b1b8d961440949f4bd7616edbbad350020233941667a92836f81be792157dd27b3badb63460b4bf6bf7418e3b5a33b0e2e2d374f68749c8d618fb0772f59d329bdb4d56d480545f8b17a1ae1b7a1390c2c2f354d6a769e8f638db2752d5bd12bbfb6d76f4a0747fab3781ce7b1a73f0a2a29334b6c709889658bb4732b5dd72db9b0d1694c0141fcb57e1ee5b3a53d08282b31496e729a8b6789b671295fd52fbbb2d36b4e0343feb77c10ebbdab330626253f47607c94856987b87f2751db21b5bcdd65400d4df0b97212e9bfa9310424273d45627e96876b85ba7d2553d923b7bedf67420f4ff2bb7014efb9af370222213b43647890816d83bc7b2355df25b1b8d961440949f4bd7616edbbad350020233941667a92836f81be792157dd27b3badb63460b4bf6bf7418e3b5a33b0e2e2d374f68749c8d618fb0772f59d329bdb4d56d480545f8b17a1ae1b7a1390c2c2f354d6a769e8f638db2752d5bd12bbfb6d76f4a0747fab3781ce7b1a73f0a2a29334b6c709889658bb4732b5dd72db9b0d1694c0141fcb57e1ee5b3a53d08282b31496e729a8b6789b671295fd52fbbb2d36b4e0343feb77c10ebbdab330626253f47607c94856987b87f2751db21b5bcdd65400d4df0b97212e9bfa9310424273d45627e96876b85ba7d2553d923b7bedf67420f4ff2bb7014efb9af370222213b43647890816d83bc7b2355df25b1b8d961440949f4bd7616edbbad350020233941667a92836f81be792157dd27b3badb63460b4bf6bf7418e3b5a33b0e2e2d374f68749c8d618fb0772f59d329bdb4d56d480545f8b17a1ae1b7a1390c2c2f354d6a769e8f638db2752d5bd12bbfb6d76f4a0747fab3781ce7b1a73f0a2a29334b6c709889658bb4732b5dd72db9b0d1694c0141fcb57e1ee5b3a53d08282b31496e729a8b6789b671295fd52fbbb2d36b4e0343feb77c10ebbdab330626253f47607c94856987b87f2751db21b5bcdd65400d4df0b97212e9bfa9310424273d45627e96876b85ba7d2553d923b7bedf67420f4ff2bb7014efb9af370222213b43647890816d83bc7b2355df25b1b8d961440949f4bd7616edbbad350020233941667a92836f81be792157dd27b3badb63460b4bf6bf7418e3b5a33b0e2e2d374f68749c8d618fb0772f59d329bdb4d56d480545f8b17a1ae1b7a1390c2c2f354d6a769e8f638db2752d5bd12bbfb6d76f4a0747fab3781ce7b1a73f0a2a29334b6c709889658bb4732b5dd72db9b0d1694c0141fcb57e1ee5b3a53d08282b31496e729a8b6789b671295fd52fbbb2d36b4e0343feb77c10ebbdab330626253f47607c94856987b87f2751db21b5bcdd65400d4df0b97212e9bfa9310424273d45627e96876b85ba7d2553d923b7bedf67420f4ff2bb7014efb9af370222213b43647890816d83bc7b2355df25b1b8d961440949f4bd7616edbbad350020233941667a92836f81be792157dd27b3badb63460b4bf6bf7418e3b5a33b0e2e2d374f68749c8d618fbfb5b6a2ec1fcb1fc9915788a80a89312a15846abd7d8725eba97ccaa7e450faf",
        "type": "nulldata"
      }
    },
    {
      "value": 499962.3747,
      "n": 1,
      "scriptPubKey": {
        "asm": "1 965501c9f6a3be94fa32e0624e20566edbc88f7c977f78cdcb33a0c9f1d5ffbc",
        "hex": "5120965501c9f6a3be94fa32e0624e20566edbc88f7c977f78cdcb33a0c9f1d5ffbc",
        "reqSigs": 1,
        "type": "witness_v1_scripthash",
        "addresses": [
          "3QJmnh"
        ]
      }
    }
  ],
  "blockhash": "04b08afa406522d4605e5542ad480440adf33b25b306f33fff8225e2cbbf4733",
  "confirmations": 1,
  "time": 1764183055,
  "blocktime": 1764183055
}