{
  "hex": "01000000000101d074ec4efcd098bac81c369f2f6218a5eab9731d467b40cf1e6a745f8a2b35830000000000feffffff0200e1f50500000000fdd5046a20603d68567878bc2ed21054885c51c56f9bdea5962a5e5db1b2dd179687be84e64db00453734811b11ee19c66495b73accfac1096f875ca6df975e47c88afe3b624067473536831913ec1bc46697b538cef8c30b6d855ea4dd955c45ca88fc39604265413330851f15ea1dc26091b33ec8fec50d6b8358a2db935a43cc8efa3f664463433132871d17e81fc06293b13ccafcc70f69815aa0d9915841ce8cf83d6446614d3f3c891319e611ce6c9dbf32c4f2c901678f54aed79f564fc082f6336a486f4f3d3e8b111be413cc6e9fbd30c6f0cb03658d56acd59d544dc280f431684a6d493b388d171de215ca6899bb36c0f6cd05638b50aad39b524bc486f2376e4c6b4b393a8f151fe017c86a9bb934c2f4cf07618952a8d1995049c684f0356c4e69453734811b11ee19c66495b73accfac1096f875ca6df975e47c88afe3b624067473536831913ec1bc46697b538cef8c30b6d855ea4dd955c45ca88fc39604265413330851f15ea1dc26091b33ec8fec50d6b8358a2db935a43cc8efa3f664463433132871d17e81fc06293b13ccafcc70f69815aa0d9915841ce8cf83d6446614d3f3c891319e611ce6c9dbf32c4f2c901678f54aed79f564fc082f6336a486f4f3d3e8b111be413cc6e9fbd30c6f0cb03658d56acd59d544dc280f431684a6d493b388d171de215ca6899bb36c0f6cd05638b50aad39b524bc486f2376e4c6b4b393a8f151fe017c86a9bb934c2f4cf07618952a8d1995049c684f0356c4e69453734811b11ee19c66495b73accfac1096f875ca6df975e47c88afe3b624067473536831913ec1bc46697b538cef8c30b6d855ea4dd955c45ca88fc39604265413330851f15ea1dc26091b33ec8fec50d6b8358a2db935a43cc8efa3f664463433132871d17e81fc06293b13ccafcc70f69815aa0d9915841ce8cf83d6446614d3f3c891319e611ce6c9dbf32c4f2c901678f54aed79f564fc082f6336a486f4f3d3e8b111be413cc6e9fbd30c6f0cb03658d56acd59d544dc280f431684a6d493b388d171de215ca6899bb36c0f6cd05638b50aad39b524bc486f2376e4c6b4b393a8f151fe017c86a9bb934c2f4cf07618952a8d1995049c684f0356c4e69453734811b11ee19c66495b73accfac1096f875ca6df975e47c88afe3b624067473536831913ec1bc46697b538cef8c30b6d855ea4dd955c45ca88fc39604265413330851f15ea1dc26091b33ec8fec50d6b8358a2db935a43cc8efa3f664463433132871d17e81fc06293b13ccafcc70f69815aa0d9915841ce8cf83d6446614d3f3c891319e611ce6c9dbf32c4f2c901678f54aed79f564fc082f6336a486f4f3d3e8b111be413cc6e9fbd30c6f0cb03658d56acd59d544dc280f431684a6d493b388d171de215ca6899bb36c0f6cd05638b50aad39b524bc486f2376e4c6b4b393a8f151fe017c86a9bb934c2f4cf07618952a8d1995049c684f0356c4e69453734811b11ee19c66495b73accfac1096f875ca6df975e47c88afe3b624067473536831913ec1bc46697b538cef8c30b6d855ea4dd955c45ca88fc39604265413330851f15ea1dc26091b33ec8fec50d6b8358a2db935a43cc8efa3f664463433132871d17e81fc06293b13ccafcc70f69815aa0d9915841ce8cf83d6446614d3f3c891319e611ce6c9dbf32c4f2c9046a02b4abb1d888e8640de692c1281ac81649d896f0b93c106d599abe95c840a50ce18b4782d000022512069f68d2c91f3427def761fbdf3981334cbaae9010284f2ee4905ac6e09019bfc02fd750906a5124f0bf108230ebadb652dd6f3ad08b9c3b40b06ecc3ca3883c389f4368ca64d7a790cccb8dd2683d96deeac88593df210683365eabd9a17e219642cdde4ab9c1f316e9d42f6dce4a3fdcddbd351d9b7005fd620c0e028679db1d40b187a62c6ccc50f65e6d6502854c86e66f60bcd8d62da5cb1d69e0de43ef832789e45ed5b39cf96a4dbc969481bc9a8850df72ebfd0e75ce72ce69545e615fb374a8536ee31bfca6153fd45077ab8001e4f40ac2e0ff592c4033f35981ab6f49577a15511bb5f9658babb7d0e7f87f40983b2a533d29a326caee44a03fade257f511a4bba4f3efb8bc51d88233e913e5072c78dbc6cc5f0820955fc08123aded6fef1b8b5f5f09be64534e4b1cfe34457fde3e46c8e3a45515a530d8e39c2e110d2c9a0d4713d4afd0bb27645eb7c01a7993574bf6b8865be64f1ccb3efb70187bae50ba1fddae7bdb22c8f4bb2dbf6f4bd4c0c428af743f4d2174c79753e037525cd979a5d1894bb3a6b9059d378570dac4b2d7ba033b6a04df7f076e239c2b574738ca8ffc1157b935f804896080d5befbc7eed9660fadf9036df6afca024205b8fdd2cec9ab54127ce709cd9ba52155a750e7e72977820712293e6948860a109db89905482b1817fe52115460aac7e6b91a709b1eaf69003fbb0cf83eaf63f021ccf03c58fd57ef2238070394cb63cf8d9929e104376294ec5504fa4210dff80d8d8de088d217d7461699c80831fb03f7ab1c78e1327d3066135bf2478df20554a6f3734c3a70a094155a20f0e1c5ada00c9edbdc234ae443b140fcf17f14ddb4ca523ba8d250005f4823a5e1e8f727b7b6f8fed0f666ebbdceedb3a548c9cd878b69fbe982aa825d7aa704b13b7861e1c98e4f137e142dda0434621f05169adb7fbd90790878c755f98329df1ebfdb76116e5d244d747945169a3766f690c18deabfd7cf7953a99e836c69ed14ace7c766aa521227b9358fe9d7cc7f4de524bd0c5175b9894c01adc060c88789fd662770feb5ba5b0af00f18d97379ae7048ef29fe2b9e82ffcc92f1ffb14d1cefb31f5840c41a84101c13e5ffaababb8f23e044b12e40308c77df9dd4f9d4a8c8f821f755a4c89a825863bbe395d4c8d3d3ad5d4564d263986ebc0c2a18ae610bfb68a2840c72d4a8c5391ad67ab1aae1cec5486ae0abf039e6829d84fc63c5d5df4f4c7e9c4d34c87a8ef3daca9708415574e9f99a9a913ec29f9e22ce3728f6aaab34fb88706d826d4dff463c5e9d9ea28cf55f76d5f71e6625b702c33ff3162b78126f49c222867a7f54e3deebb3049d34c29e8091c2a8de6e5d9b4232126dff8c15281548a9bff1519d13ef93f3ef24d260de4d2d07914e3922a3f7a6c02ae07d19a9cf24029f109963cedb1518abd806380dfe274aeeebdc40c19618f12a5bf4592eb9be3eb59aa830f1f3e69406fbae0b3a63e497ba24e13d402f31ca21cf0198ab501c8ae719284b7f4f6c8b1da8318407ec52a82bab699560c5890194db3bb0c381843ccd6dfac5725fc88c51d2437dfb4881d9bcf18148fd241a617f1f8a161fcf3b7ccaf5ed927f623c52f28663351de2daa26634d4dd47145d584b748de7c8bb51ee0ba0622ef73c1eb8a62feda52baae8d565116b2fca67dbf6932c17ec471ddb6c16ac300a120abcf17a70c54dfaa02962774384c87d84638c8ffe10cc584c5dfd1aad2b28085ed120dd23b8b072caadb392a3c0f9906e235294af02197a29b3ffe949302e15ad713af948dc9326784cfa7588537b3810838d665f1bae935f502ee32b616362fa89eecbd46560bbe0af88b12774d1535a3e7a068112b171771fd7c33422a62d215239906cb0abfddbf725abe60dfb2e7d369166ad6cd0c5d224faafe1376499293bc3b117e2b5074f47bcf9c768ca921f25d65a4f86b1a320e26e8cdff2261c3d4d4a3a6765f8f4dd9ba4172217ef4e3a97f38b7f836c152883d6b39f5fec7d829f03b21f91885113bec0b0f14630623b38c215dc3ffd5136b2e277e4676070e490c18874538f05dd9a21a573340ee45b4016cfd95b4ab91f015b7bf0e6edc7767abdd0bc9b0eb1d59c088b733a2e79362827259e7015b90956c33a003da62f3d7b0e8b1b2e7d0a1470879df8dc86776cbb4324f3b4391670d95c5c2d8e2e6d1dbb7151aefb539593317a0f69fe5a404ccf3ee994397ea879cd3fc6a86297c5f8c3afca26f7888e374cf684de6e34fe75bf3e80c442066cd13559391c9996dad1f8fa2d1591595bd09d78b43c178cd1b8c77ef8f7827369ad2c8d1ed75cff887dfb84ddb7bc685356d1435c358c3d9489dd5fd32e7d13d6efaeb0764ab5fa9685188212231690f5c7650e30d1e604321875372a951bc51b64dfb54bd1f1b8d8e0a48e17518c3ec01ddb7351f18dd0ecba1ed80baf3e779b97682d7a5ec191c42db0f26aff3568dba737830ce63c2ae996fab8d770c649f6c3adc7271db6208f788b41648b8a3832d054c8101b0578a10247d25f6d472deca8c46dd9a1f97f3a5970f596bb64e8add59c27f138dba2435204734950491e656e6465a57779d2132baec4d52276e771a2a7467fdc6511f279b64f325438ba37e2744d21b6839e433564422f0e466c26f23631820fedbd8967f17da6c6d44340ded72ed7342c55122b8beede14cf7bfd78c669494a152af13b2524efcfcf1a58fb2a6b50bb87b3d04d8f4479332c4d90cb65da598c19421a7baf870d82bc17640119b663b0b34246cc16b68c1ca3e149c4ae1794fa1f2078bbf3e9ad4589f311b7cd327d202a80390d5318ad50750eed24adec48605bc98782b41e71c7589c8594dcd44256edf8d720a0b6e5ad26c75ea6c8f2c2c6dedd18c7e8ff428d03044519fa9a2057c70ec3b0d095d42e39b3dec2a2556d9d318b384a0e9d0ecc37ee8e43922c8fdff58e4ff13b1d436ad25e67e8c7ffe9f14b84ccb1ebeab76627d62a9be352182d77a1900d4edb7c39621716efd3f3d09550eb3a42c12e15fb813fdf8e7815497fc506437befbd8448c33ef989d834f77d4e3cb5ec0214454640e019b75c3bdd2a6163258b59fd0437fef607a7711155721fa6d9e0d5b26ed16311a4c15f6f4550e42a442979cf157726845b356231b35420b1be443a27e66a7e5c9a22bc24d4dd7abd1324183728a5d2fe1b6a336dab11f2e0c641cf930b183e694dda9c5a8cb11529d231fb6caf74f6bb73d848da3c96512c58f9dacf62659e53d827e356f70f44d9776aaa74ece8451bb4a5cd7383d5456bdfd9dafc9ea1aa2ef4506fdd6763e14bdd62c4a9bfdcd802021a1a4c3c9d9df0509464a4e63748b99a9b4bbc9dcfbfc202a31546185bdc1c3c8de0710192c3a3e42727b859db2ff00000000000000000000000000000000000000000000000000000000000000000818233001fd210500228f6cf0731179cbe44ad0f131558c8179e632ae3a5f87e09e7b92e69fc3ac9f75dd0a75fb854a05b334530fa826deb45a635184e0f44faeaac5162d6eb18446477839022ff26a69c9d377d3aa91ea91c406359569637fdd3b5a70ddafc079754034eae741616ce0af5d91aa9f61b75f80d671ef268bd34679712c5079b5ccc03ec758ec142bb5d89e4fad7d0536dacf59f99674d8e28243f75d07018bc459661aadd1d9736c58c08ad15872516e50551a4e5d433bea4a192279d867fb935c8acd3cff683f3bb1d54dddcd4d68094a7f701a290203b6abdfda6ea322e690859118aa357b3d8c53a21b0eb5e60019ba81459eedb7b3bece4a5ece9830de1c21e051aa0d84582eecf4bf87825720dbafa09080db4eea25246d3515ff28378eecfb4c323bb200b0a95dba964080eb7788a2cbe1aac4488679d5410554b1ab232d04e75721f5e9ed07f1aa4ddf3783e9b9ac3d0cbb2d7d49b39f7d1f2231d32efd3c50729b827fd2c95b986e31a4e9d63fe9b1f7d0f808676e276daa27e0e0b2d9a6073bf1c0c67a9c77c237696cf6d831abebb7e0562d453224697eff0ca3a36989ad347aafa3076beeea2d3c57129e512de748ac8c65962dbff51f49d1f0a969b516c083ff0079e9df0eb07e6b1ac4fc8852c8551c20699acdddb561b30c26cd7fbbc1591d669b30a9195088b84cff5e80257e2769a4218b886091c91d8ec7786bbd5ee2bff4dd96ed7c5e5d8bd8e50d096e6b91aedd0c4ae8551497d474de5b39bc894c507340fc1d3188d0f8bc2fb07537a7f776937eec0509129d02d4aad8a1fe553dabab566ea3786d2bcf92d8de4f0d16c579cace54c850660ace5104ef8ff697b989fcf220e2a33970f56c9f88d73727610b3af9038750f12afb16cc09c7b2263fa85c0adaab099a45879dec515ac98188672d9abc183a1f1137e7024a95401ea191e0759ca4f5ad78aa3741d764c872eda40cf42f144df4552ae1728f6cf96c4fedc702dc4f2592337c7db178fb380eed2ab3b99d6a0f674c576f12cb30ee096e8fe2aec5b1481c968ccc8392388c624e89834e60f42da39d79fddcdc3695836cc6a896efcf036e57a9bbb9e5a9f8b8be491dbeea643b0ee6cf1405dfafc3ce780f90c1239d22c943976953718761d4cd546092d5c39b85c68b8aaedef6270cdd3cd7a6e0cf7dd64527ead3e2773a86acb01e363955e451c62fcee2ca657a73b8168be7d249dc9a9b7ecabe52abde3be53c4f3b73d5a3c16bca79ae8d1d7441759e521b1c5204e853bb2543525b80138f1a29bcdb6281452c9cd811ccc8612c68519c4ea607a12d58f72f5e45dc3b449aa13bd63daabd422cb858d7b8a4e91eececa7a9912f94a484073db396ef35fef640d9b1bc7cc9e522c44a42f862b1b648403db6f8a46cd01dccc21c1038e6118a55c2137040e8aab92191103afaf337b040e068193fcc6253f8401395e5797e2ec5467a7a0d64000cbd0b6d8d3c0d643ffb7b1c284e4fba2c09343ac4a09c0093b6cde948594923e0e91efc74e81ba3b749e128e75370c84f787f1c551cb372b54f81a5c625f0a47af182a59fd971d4635267e977b9574938e12204008a736e1da4ffaf65c73e42e633b0ec997b00b271a0263f39019ec9c948d43473c68541af404d5cda0a5b85dca76c881d4da815ddc3431eb32bd6dc0d2b001629f057bf7a84ae739860e6adca39fc7eecfc667b4441ad228a215199ad3c489489cea0e0c5fd0644a2244b1da8d527c5afcfcfec45ee753b62a990da3ed7ef73a655fc5be7de65b205d4a3e6be4ca51ce0fb8d719efc6e9fc754bcab4e72fe007169c0e62ed749db02a7123fa2f1ad725d1b38000000",
  "txid": "a3fd197ecfbf66f375646ab4904b599badb0d99c4f0fc27ad54e915c7abd4665",
  "hash": "c049b93c4e2f2d04725e19a96acbd66646b44807e6d4531f74eaae9514eaec3b",
  "size": 5085,
  "vsize": 2278,
  "version": 1,
  "locktime": 56,
  "vin": [
    {
      "txid": "83352b8a5f746a1ecf407b461d73b9eaa518622f9f361cc8ba98d0fc4eec74d0",
      "vout": 0,
      "scriptSig": {
        "asm": "",
        "hex": ""
      },
      "txinwitness": [
        "06a5124f0bf108230ebadb652dd6f3ad08b9c3b40b06ecc3ca3883c389f4368ca64d7a790cccb8dd2683d96deeac88593df210683365eabd9a17e219642cdde4ab9c1f316e9d42f6dce4a3fdcddbd351d9b7005fd620c0e028679db1d40b187a62c6ccc50f65e6d6502854c86e66f60bcd8d62da5cb1d69e0de43ef832789e45ed5b39cf96a4dbc969481bc9a8850df72ebfd0e75ce72ce69545e615fb374a8536ee31bfca6153fd45077ab8001e4f40ac2e0ff592c4033f35981ab6f49577a15511bb5f9658babb7d0e7f87f40983b2a533d29a326caee44a03fade257f511a4bba4f3efb8bc51d88233e913e5072c78dbc6cc5f0820955fc08123aded6fef1b8b5f5f09be64534e4b1cfe34457fde3e46c8e3a45515a530d8e39c2e110d2c9a0d4713d4afd0bb27645eb7c01a7993574bf6b8865be64f1ccb3efb70187bae50ba1fddae7bdb22c8f4bb2dbf6f4bd4c0c428af743f4d2174c79753e037525cd979a5d1894bb3a6b9059d378570dac4b2d7ba033b6a04df7f076e239c2b574738ca8ffc1157b935f804896080d5befbc7eed9660fadf9036df6afca024205b8fdd2cec9ab54127ce709cd9ba52155a750e7e72977820712293e6948860a109db89905482b1817fe52115460aac7e6b91a709b1eaf69003fbb0cf83eaf63f021ccf03c58fd57ef2238070394cb63cf8d9929e104376294ec5504fa4210dff80d8d8de088d217d7461699c80831fb03f7ab1c78e1327d3066135bf2478df20554a6f3734c3a70a094155a20f0e1c5ada00c9edbdc234ae443b140fcf17f14ddb4ca523ba8d250005f4823a5e1e8f727b7b6f8fed0f666ebbdceedb3a548c9cd878b69fbe982aa825d7aa704b13b7861e1c98e4f137e142dda0434621f05169adb7fbd90790878c755f98329df1ebfdb76116e5d244d747945169a3766f690c18deabfd7cf7953a99e836c69ed14ace7c766aa521227b9358fe9d7cc7f4de524bd0c5175b9894c01adc060c88789fd662770feb5ba5b0af00f18d97379ae7048ef29fe2b9e82ffcc92f1ffb14d1cefb31f5840c41a84101c13e5ffaababb8f23e044b12e40308c77df9dd4f9d4a8c8f821f755a4c89a825863bbe395d4c8d3d3ad5d4564d263986ebc0c2a18ae610bfb68a2840c72d4a8c5391ad67ab1aae1cec5486ae0abf039e6829d84fc63c5d5df4f4c7e9c4d34c87a8ef3daca9708415574e9f99a9a913ec29f9e22ce3728f6aaab34fb88706d826d4dff463c5e9d9ea28cf55f76d5f71e6625b702c33ff3162b78126f49c222867a7f54e3deebb3049d34c29e8091c2a8de6e5d9b4232126dff8c15281548a9bff1519d13ef93f3ef24d260de4d2d07914e3922a3f7a6c02ae07d19a9cf24029f109963cedb1518abd806380dfe274aeeebdc40c19618f12a5bf4592eb9be3eb59aa830f1f3e69406fbae0b3a63e497ba24e13d402f31ca21cf0198ab501c8ae719284b7f4f6c8b1da8318407ec52a82bab699560c5890194db3bb0c381843ccd6dfac5725fc88c51d2437dfb4881d9bcf18148fd241a617f1f8a161fcf3b7ccaf5ed927f623c52f28663351de2daa26634d4dd47145d584b748de7c8bb51ee0ba0622ef73c1eb8a62feda52baae8d565116b2fca67dbf6932c17ec471ddb6c16ac300a120abcf17a70c54dfaa02962774384c87d84638c8ffe10cc584c5dfd1aad2b28085ed120dd23b8b072caadb392a3c0f9906e235294af02197a29b3ffe949302e15ad713af948dc9326784cfa7588537b3810838d665f1bae935f502ee32b616362fa89eecbd46560bbe0af88b12774d1535a3e7a068112b171771fd7c33422a62d215239906cb0abfddbf725abe60dfb2e7d369166ad6cd0c5d224faafe1376499293bc3b117e2b5074f47bcf9c768ca921f25d65a4f86b1a320e26e8cdff2261c3d4d4a3a6765f8f4dd9ba4172217ef4e3a97f38b7f836c152883d6b39f5fec7d829f03b21f91885113bec0b0f14630623b38c215dc3ffd5136b2e277e4676070e490c18874538f05dd9a21a573340ee45b4016cfd95b4ab91f015b7bf0e6edc7767abdd0bc9b0eb1d59c088b733a2e79362827259e7015b90956c33a003da62f3d7b0e8b1b2e7d0a1470879df8dc86776cbb4324f3b4391670d95c5c2d8e2e6d1dbb7151aefb539593317a0f69fe5a404ccf3ee994397ea879cd3fc6a86297c5f8c3afca26f7888e374cf684de6e34fe75bf3e80c442066cd13559391c9996dad1f8fa2d1591595bd09d78b43c178cd1b8c77ef8f7827369ad2c8d1ed75cff887dfb84ddb7bc685356d1435c358c3d9489dd5fd32e7d13d6efaeb0764ab5fa9685188212231690f5c7650e30d1e604321875372a951bc51b64dfb54bd1f1b8d8e0a48e17518c3ec01ddb7351f18dd0ecba1ed80baf3e779b97682d7a5ec191c42db0f26aff3568dba737830ce63c2ae996fab8d770c649f6c3adc7271db6208f788b41648b8a3832d054c8101b0578a10247d25f6d472deca8c46dd9a1f97f3a5970f596bb64e8add59c27f138dba2435204734950491e656e6465a57779d2132baec4d52276e771a2a7467fdc6511f279b64f325438ba37e2744d21b6839e433564422f0e466c26f23631820fedbd8967f17da6c6d44340ded72ed7342c55122b8beede14cf7bfd78c669494a152af13b2524efcfcf1a58fb2a6b50bb87b3d04d8f4479332c4d90cb65da598c19421a7baf870d82bc17640119b663b0b34246cc16b68c1ca3e149c4ae1794fa1f2078bbf3e9ad4589f311b7cd327d202a80390d5318ad50750eed24adec48605bc98782b41e71c7589c8594dcd44256edf8d720a0b6e5ad26c75ea6c8f2c2c6dedd18c7e8ff428d03044519fa9a2057c70ec3b0d095d42e39b3dec2a2556d9d318b384a0e9d0ecc37ee8e43922c8fdff58e4ff13b1d436ad25e67e8c7ffe9f14b84ccb1ebeab76627d62a9be352182d77a1900d4edb7c39621716efd3f3d09550eb3a42c12e15fb813fdf8e7815497fc506437befbd8448c33ef989d834f77d4e3cb5ec0214454640e019b75c3bdd2a6163258b59fd0437fef607a7711155721fa6d9e0d5b26ed16311a4c15f6f4550e42a442979cf157726845b356231b35420b1be443a27e66a7e5c9a22bc24d4dd7abd1324183728a5d2fe1b6a336dab11f2e0c641cf930b183e694dda9c5a8cb11529d231fb6caf74f6bb73d848da3c96512c58f9dacf62659e53d827e356f70f44d9776aaa74ece8451bb4a5cd7383d5456bdfd9dafc9ea1aa2ef4506fdd6763e14bdd62c4a9bfdcd802021a1a4c3c9d9df0509464a4e63748b99a9b4bbc9dcfbfc202a31546185bdc1c3c8de0710192c3a3e42727b859db2ff00000000000000000000000000000000000000000000000000000000000000000818233001",
        "00228f6cf0731179cbe44ad0f131558c8179e632ae3a5f87e09e7b92e69fc3ac9f75dd0a75fb854a05b334530fa826deb45a635184e0f44faeaac5162d6eb18446477839022ff26a69c9d377d3aa91ea91c406359569637fdd3b5a70ddafc079754034eae741616ce0af5d91aa9f61b75f80d671ef268bd34679712c5079b5ccc03ec758ec142bb5d89e4fad7d0536dacf59f99674d8e28243f75d07018bc459661aadd1d9736c58c08ad15872516e50551a4e5d433bea4a192279d867fb935c8acd3cff683f3bb1d54dddcd4d68094a7f701a290203b6abdfda6ea322e690859118aa357b3d8c53a21b0eb5e60019ba81459eedb7b3bece4a5ece9830de1c21e051aa0d84582eecf4bf87825720dbafa09080db4eea25246d3515ff28378eecfb4c323bb200b0a95dba964080eb7788a2cbe1aac4488679d5410554b1ab232d04e75721f5e9ed07f1aa4ddf3783e9b9ac3d0cbb2d7d49b39f7d1f2231d32efd3c50729b827fd2c95b986e31a4e9d63fe9b1f7d0f808676e276daa27e0e0b2d9a6073bf1c0c67a9c77c237696cf6d831abebb7e0562d453224697eff0ca3a36989ad347aafa3076beeea2d3c57129e512de748ac8c65962dbff51f49d1f0a969b516c083ff0079e9df0eb07e6b1ac4fc8852c8551c20699acdddb561b30c26cd7fbbc1591d669b30a9195088b84cff5e80257e2769a4218b886091c91d8ec7786bbd5ee2bff4dd96ed7c5e5d8bd8e50d096e6b91aedd0c4ae8551497d474de5b39bc894c507340fc1d3188d0f8bc2fb07537a7f776937eec0509129d02d4aad8a1fe553dabab566ea3786d2bcf92d8de4f0d16c579cace54c850660ace5104ef8ff697b989fcf220e2a33970f56c9f88d73727610b3af9038750f12afb16cc09c7b2263fa85c0adaab099a45879dec515ac98188672d9abc183a1f1137e7024a95401ea191e0759ca4f5ad78aa3741d764c872eda40cf42f144df4552ae1728f6cf96c4fedc702dc4f2592337c7db178fb380eed2ab3b99d6a0f674c576f12cb30ee096e8fe2aec5b1481c968ccc8392388c624e89834e60f42da39d79fddcdc3695836cc6a896efcf036e57a9bbb9e5a9f8b8be491dbeea643b0ee6cf1405dfafc3ce780f90c1239d22c943976953718761d4cd546092d5c39b85c68b8aaedef6270cdd3cd7a6e0cf7dd64527ead3e2773a86acb01e363955e451c62fcee2ca657a73b8168be7d249dc9a9b7ecabe52abde3be53c4f3b73d5a3c16bca79ae8d1d7441759e521b1c5204e853bb2543525b80138f1a29bcdb6281452c9cd811ccc8612c68519c4ea607a12d58f72f5e45dc3b449aa13bd63daabd422cb858d7b8a4e91eececa7a9912f94a484073db396ef35fef640d9b1bc7cc9e522c44a42f862b1b648403db6f8a46cd01dccc21c1038e6118a55c2137040e8aab92191103afaf337b040e068193fcc6253f8401395e5797e2ec5467a7a0d64000cbd0b6d8d3c0d643ffb7b1c284e4fba2c09343ac4a09c0093b6cde948594923e0e91efc74e81ba3b749e128e75370c84f787f1c551cb372b54f81a5c625f0a47af182a59fd971d4635267e977b9574938e12204008a736e1da4ffaf65c73e42e633b0ec997b00b271a0263f39019ec9c948d43473c68541af404d5cda0a5b85dca76c881d4da815ddc3431eb32bd6dc0d2b001629f057bf7a84ae739860e6adca39fc7eecfc667b4441ad228a215199ad3c489489cea0e0c5fd0644a2244b1da8d527c5afcfcfec45ee753b62a990da3ed7ef73a655fc5be7de65b205d4a3e6be4ca51ce0fb8d719efc6e9fc754bcab4e72fe007169c0e62ed749db02a7123fa2f1ad725d1b"
      ],
      "sequence": 4294967294
    }
  ],
  "vout": [
    {
      "value": 1.0,
      "n": 0,
      "scriptPubKey": {
        "asm": "OP_RETURN 603d68567878bc2ed21054885c51c56f9bdea5962a5e5db1b2dd179687be84e6 53734811b11ee19c66495b73accfac1096f875ca6df975e47c88afe3b624067473536831913ec1bc46697b538cef8c30b6d855ea4dd955c45ca88fc39604265413330851f15ea1dc26091b33ec8fec50d6b8358a2db935a43cc8efa3f664463433132871d17e81fc06293b13ccafcc70f69815aa0d9915841ce8cf83d6446614d3f3c891319e611ce6c9dbf32c4f2c901678f54aed79f564fc082f6336a486f4f3d3e8b111be413cc6e9fbd30c6f0cb03658d56acd59d544dc280f431684a6d493b388d171de215ca6899bb36c0f6cd05638b50aad39b524bc486f2376e4c6b4b393a8f151fe017c86a9bb934c2f4cf07618952a8d1995049c684f0356c4e69453734811b11ee19c66495b73accfac1096f875ca6df975e47c88afe3b624067473536831913ec1bc46697b538cef8c30b6d855ea4dd955c45ca88fc39604265413330851f15ea1dc26091b33ec8fec50d6b8358a2db935a43cc8efa3f664463433132871d17e81fc06293b13ccafcc70f69815aa0d9915841ce8cf83d6446614d3f3c891319e611ce6c9dbf32c4f2c901678f54aed79f564fc082f6336a486f4f3d3e8b111be413cc6e9fbd30c6f0cb03658d56acd59d544dc280f431684a6d493b388d171de215ca6899bb36c0f6cd05638b50aad39b524bc486f2376e4c6b4b393a8f151fe017c86a9bb934c2f4cf07618952a8d1995049c684f0356c4e69453734811b11ee19c66495b73accfac1096f875ca6df975e47c88afe3b624067473536831913ec1bc46697b538cef8c30b6d855ea4dd955c45ca88fc39604265413330851f15ea1dc26091b33ec8fec50d6b8358a2db935a43cc8efa3f664463433132871d17e81fc06293b13ccafcc70f69815aa0d9915841ce8cf83d6446614d3f3c891319e611ce6c9dbf32c4f2c901678f54aed79f564fc082f6336a486f4f3d3e8b111be413cc6e9fbd30c6f0cb03658d56acd59d544dc280f431684a6d493b388d171de215ca6899bb36c0f6cd05638b50aad39b524bc486f2376e4c6b4b393a8f151fe017c86a9bb934c2f4cf07618952a8d1995049c684f0356c4e69453734811b11ee19c66495b73accfac1096f875ca6df975e47c88afe3b624067473536831913ec1bc46697b538cef8c30b6d855ea4dd955c45ca88fc39604265413330851f15ea1dc26091b33ec8fec50d6b8358a2db935a43cc8efa3f664463433132871d17e81fc06293b13ccafcc70f69815aa0d9915841ce8cf83d6446614d3f3c891319e611ce6c9dbf32c4f2c901678f54aed79f564fc082f6336a486f4f3d3e8b111be413cc6e9fbd30c6f0cb03658d56acd59d544dc280f431684a6d493b388d171de215ca6899bb36c0f6cd05638b50aad39b524bc486f2376e4c6b4b393a8f151fe017c86a9bb934c2f4cf07618952a8d1995049c684f0356c4e69453734811b11ee19c66495b73accfac1096f875ca6df975e47c88afe3b624067473536831913ec1bc46697b538cef8c30b6d855ea4dd955c45ca88fc39604265413330851f15ea1dc26091b33ec8fec50d6b8358a2db935a43cc8efa3f664463433132871d17e81fc06293b13ccafcc70f69815aa0d9915841ce8cf83d6446614d3f3c891319e611ce6c9dbf32c4f2c9046a02b4abb1d888e8640de692c1281ac81649d896f0b93c106d599abe95c840a",
        "hex": "6a20603d68567878bc2ed21054885c51c56f9bdea5962a5e5db1b2dd179687be84e64db00453734811b11ee19c66495b73accfac1096f875ca6df975e47c88afe3b624067473536831913ec1bc46697b538cef8c30b6d855ea4dd955c45ca88fc39604265413330851f15ea1dc26091b33ec8fec50d6b8358a2db935a43cc8efa3f664463433132871d17e81fc06293b13ccafcc70f69815aa0d9915841ce8cf83d6446614d3f3c891319e611ce6c9dbf32c4f2c901678f54aed79f564fc082f6336a486f4f3d3e8b111be413cc6e9fbd30c6f0cb03658d56acd59d544dc280f431684a6d493b388d171de215ca6899bb36c0f6cd05638b50aad39b524bc486f2376e4c6b4b393a8f151fe017c86a9bb934c2f4cf07618952a8d1995049c684f0356c4e69453734811b11ee19c66495b73accfac1096f875ca6df975e47c88afe3b624067473536831913ec1bc46697b538cef8c30b6d855ea4dd955c45ca88fc39604265413330851f15ea1dc26091b33ec8fec50d6b8358a2db935a43cc8efa3f664463433132871d17e81fc06293b13ccafcc70f69815aa0d9915841ce8cf83d6446614d3f3c891319e611ce6c9dbf32c4f2c901678f54aed79f564fc082f6336a486f4f3d3e8b111be413cc6e9fbd30c6f0cb03658d56acd59d544dc280f431684a6d493b388d171de215ca6899bb36c0f6cd05638b50aad39b524bc486f2376e4c6b4b393a8f151fe017c86a9bb934c2f4cf07618952a8d1995049c684f0356c4e69453734811b11ee19c66495b73accfac1096f875ca6df975e47c88afe3b624067473536831913ec1bc46697b538cef8c30b6d855ea4dd955c45ca88fc39604265413330851f15ea1dc26091b33ec8fec50d6b8358a2db935a43cc8efa3f664463433132871d17e81fc06293b13ccafcc70f69815aa0d9915841ce8cf83d6446614d3f3c891319e611ce6c9dbf32c4f2c901678f54aed79f564fc082f6336a486f4f3d3e8b111be413cc6e9fbd30c6f0cb03658d56acd59d544dc280f431684a6d493b388d171de215ca6899bb36c0f6cd05638b50aad39b524bc486f2376e4c6b4b393a8f151fe017c86a9bb934c2f4cf07618952a8d1995049c684f0356c4e69453734811b11ee19c66495b73accfac1096f875ca6df975e47c88afe3b624067473536831913ec1bc46697b538cef8c30b6d855ea4dd955c45ca88fc39604265413330851f15ea1dc26091b33ec8fec50d6b8358a2db935a43cc8efa3f664463433132871d17e81fc06293b13ccafcc70f69815aa0d9915841ce8cf83d6446614d3f3c891319e611ce6c9dbf32c4f2c901678f54aed79f564fc082f6336a486f4f3d3e8b111be413cc6e9fbd30c6f0cb03658d56acd59d544dc280f431684a6d493b388d171de215ca6899bb36c0f6cd05638b50aad39b524bc486f2376e4c6b4b393a8f151fe017c86a9bb934c2f4cf07618952a8d1995049c684f0356c4e69453734811b11ee19c66495b73accfac1096f875ca6df975e47c88afe3b624067473536831913ec1bc46697b538cef8c30b6d855ea4dd955c45ca88fc39604265413330851f15ea1dc26091b33ec8fec50d6b8358a2db935a43cc8efa3f664463433132871d17e81fc06293b13ccafcc70f69815aa0d9915841ce8cf83d6446614d3f3c891319e611ce6c9dbf32c4f2c9046a02b4abb1d888e8640de692c1281ac81649d896f0b93c106d599abe95c840a",
        "type": "nulldata"
      }
    },
    {
      "value": 499964.4085,
      "n": 1,
      "scriptPubKey": {
        "asm": "1 69f68d2c91f3427def761fbdf3981334cbaae9010284f2ee4905ac6e09019bfc",
        "hex": "512069f68d2c91f3427def761fbdf3981334cbaae9010284f2ee4905ac6e09019bfc",
        "reqSigs": 1,
        "type": "witness_v1_scripthash",
        "addresses": [
          "3QJmnh"
        ]
      }
    }
  ],
  "blockhash": "e83fb8d8eae63b54f6b1b3d1fbcbee555d4e910f42cfd1b5d97cc48d92172bc4",
  "confirmations": 1,
  "time": 1764182633,
  "blocktime": 1764182633
}