{
  "hex": "010000000001011c9013aaa60f0bb4839e7ef2cefc4115a5e599dc1e2dabb35fd5cc2161be67540100000000feffffff021076cf5d792d0000225120d251cec0e2915638d636bd1054589edec0d743674b655beb3d572fb10cf939a900e1f50500000000fdd5046a20df8b0099128c82dd492f6b052cf3577031b3f50af4617eed24588391d9ad538c4db0048347bd96a44ef4b4c0d61c6ae8f9d5173ee21005ec121ec15fcfb54dd4a33e99a3679db6846ed494e0f63c4ac8d9f5371ec23025cc323ee17fef956df4831eb9c307fdd6e40eb4f480965c2aa8b995577ea25045ac525e811f8ff50d94e37ed9e327ddf6c42e94d4a0b67c0a8899b5775e8270658c727ea13fafd52db4c35ef903c73d1624ce743440569cea68795597be6290856c929e41df4f35cd5423be1923e71d3604ee54146076bcca485975b79e42b0a54cb2be61ff6f15ed74039e3943877d56648e34740016dcaa283915d7fe22d0c52cd2de019f0f758d1463fe5963a75d7644ae14542036fc8a081935f7de02f0e50cf2fe21bf2f55ad3443de798347bd96a44ef4b4c0d61c6ae8f9d5173ee21005ec121ec15fcfb54dd4a33e99a3679db6846ed494e0f63c4ac8d9f5371ec23025cc323ee17fef956df4831eb9c307fdd6e40eb4f480965c2aa8b995577ea25045ac525e811f8ff50d94e37ed9e327ddf6c42e94d4a0b67c0a8899b5775e8270658c727ea13fafd52db4c35ef903c73d1624ce743440569cea68795597be6290856c929e41df4f35cd5423be1923e71d3604ee54146076bcca485975b79e42b0a54cb2be61ff6f15ed74039e3943877d56648e34740016dcaa283915d7fe22d0c52cd2de019f0f758d1463fe5963a75d7644ae14542036fc8a081935f7de02f0e50cf2fe21bf2f55ad3443de798347bd96a44ef4b4c0d61c6ae8f9d5173ee21005ec121ec15fcfb54dd4a33e99a3679db6846ed494e0f63c4ac8d9f5371ec23025cc323ee17fef956df4831eb9c307fdd6e40eb4f480965c2aa8b995577ea25045ac525e811f8ff50d94e37ed9e327ddf6c42e94d4a0b67c0a8899b5775e8270658c727ea13fafd52db4c35ef903c73d1624ce743440569cea68795597be6290856c929e41df4f35cd5423be1923e71d3604ee54146076bcca485975b79e42b0a54cb2be61ff6f15ed74039e3943877d56648e34740016dcaa283915d7fe22d0c52cd2de019f0f758d1463fe5963a75d7644ae14542036fc8a081935f7de02f0e50cf2fe21bf2f55ad3443de798347bd96a44ef4b4c0d61c6ae8f9d5173ee21005ec121ec15fcfb54dd4a33e99a3679db6846ed494e0f63c4ac8d9f5371ec23025cc323ee17fef956df4831eb9c307fdd6e40eb4f480965c2aa8b995577ea25045ac525e811f8ff50d94e37ed9e327ddf6c42e94d4a0b67c0a8899b5775e8270658c727ea13fafd52db4c35ef903c73d1624ce743440569cea68795597be6290856c929e41df4f35cd5423be1923e71d3604ee54146076bcca485975b79e42b0a54cb2be61ff6f15ed74039e3943877d56648e34740016dcaa283915d7fe22d0c52cd2de019f0f758d1463fe5963a75d7644ae14542036fc8a081935f7de02f0e50cf2fe21bf2f55ad3443de798347bd96a44ef4b4c0d61c6ae8f9d5173ee21005ec121ec15fcfb54dd4a33e99a3679db6846ed494e0f63c4ac8d9f5371ec23025cc323ee17fef956df4831eb9c307fdd6e40eb4f480965c2aa8b995577ea25045ac525e811f8ff50d94e37ed9e327ddf6c42e94d4a0b67c0a8899b5775e8270658c727ea13fafd52db4c35ef903c73d1624ce743440569cea68795597e4ccae89c65cfc2e7b7db6a2ed85fd2c7cc20079eb40bc788d95bcc96ad881a602fd7509105767d0d6192939c6beb658133f6190802a81770d772c6b3c13ce0514fb0629e0988e51fada3c2fd293a06f2fe2f75bc2ef8472401e2bd197a1c19b0503a87041b6422c5bdf88624713a0ea4440807e1ffbb96dbaa7e9d07caadef7de5791c886cbfad4f9f439d191321f40e3c9f85eb40220877684ac03146927dc2021abab2dfb981ac5bbff27f706c997141269d6849c2feb84f2a41789e588bd14896751c2eb4333b864aebcd1796b71c0329b151d1ebb06ad2b4c28abaf2827d5df90dbed12c9d550f07bd98480b79fa271175cf190b8ac18a79881f4a518e602c8ea5cb7ab8baf37b52f35d80f00c3c7affa5723fb3641657468140c4eb8415169e1739b9ff9b2a742f843c6cafd83530286abd1b995a87d03f5e65ba23cb56c846a902bc729ee97b301aa34f0257b444a659186c982b9ef289184593b4c704bb5471bea9c9a49f11712a19212e824cfe2fc2c0ba169d53bafad2bc425ea8708bfd658ea6751091a65f86600847addaf882d64d4b888401f2134dd612c92d37b997f137ef5e6887ccb6ff76a0f2ef48eabec9985027486c4ddaa66a8e84913be0702d5def17ff48457ad2edf38887864e1c4d5ac16f5479e167271e3053a3b174aef32bc8b5950a884125d363b913d57fe9909b9df05681946f8678a96eee8547103981d96d107d7a20418fcf4b4f001e40e506399140347e2b86cb83b3ef188c68cbf7be34f8ce26d81f884a44a78d8ed3d73a54e69e58784468de0c6c695da431605ac28a65fc7baf0eb2952422e5c47246bda108524d32dde25540c58f59442c311fd1cab49e0d6250141f4074fdc5f508a2aba34bb5580a98e769c3219e52e4db0013ebe7cb8759aacd1b12e64e6c0c9f5fe320f652b6b0f4d6b5ac5e7c277b7826e81c79d5044f40dbea38c05bdfcc36294cc5c4a35b6a20d15ddf0fc674deda4d763f2ab3c52b1b5991f6bf691dc4d7a0bfe0583e11c82c96d16d67592fd5f232dadf8776f0e08c152033401f940b1bc03dcb694e49324e3e3499ecadeecc4a590122ef561acb2b572ec7cba2123ca18fcaafd1bd8291b35da068efc5087156a2befc7f7c693d34be2a423e00205b4503412ed80add302d7ca1a62815fd244a3b56e97801f39dde8ea8256206be8265bea53dda9763434fa82cf01ed4ef75649c0b23fd314a2b9e6241a70c619d0619e20c692cbfb9073905354c5f08ce296394af0a21b4c9e21ed2fea7a5aa35f1ab8020054a174bd2f4b4f55dd2e47c936c8ff31755f836ff5dc2c52ac91e733d116c85f5cd995d99fd318bfaad42e54190c3c55621c39121457731c731dbe9135d36b353ce980c212a9023e07d9ef6ebf7d1522b753e545c0bc93263d6e068d14838144ac4620da110f183c7e6925652100396cfcb1c9edfd8719bd0057d4bfa5da5ea4c3fd4bd5fe832e472b595c914777ac65021276af9ea8d63ac2eac36916b0b3c9a758b1e5cbee1369ba61c174c252a464a823a5f7ffb5c4dfe3776bd9a2d03b1f48546c2d85b102fac323a4dbd51f2b14a71207bb26144c5c0765fcb40ed799d0cd8f7c77b1a4bb5992dd34d3991ec2676968e45723182f52ab55cf4b3d39e718714c0868856051ecf7ea94e2fe3c6d8983e17db4a71470964b76f49216950eb12453a65cc5e9c4b136b1fd4fb941dd7258f938a7cea748c4426f684b5058b3842a091140282f8891841c35dffc7b9721da3c50c6c7307e01254e108291c8a157062c151350e17012edfe6c0535b61efc4ef2f50cf1aff62efdd7c29a4878a229c5afc5419ace1e83200b471566d50d0ffe765e26f93f633ebdd342f9490919bcfc6684eba35ac9ee8877fb44c980f45ef4822578092d849058bb84ca84f349d07dd4d37e3f9b5b7b5620ffbecde446448efcdbfb5cc27925184dc36e2a5875c8297fb7e07385cf04cffabc52bb6dfc7f5f7a54353668c5b9ad79ffeb9e8ae4035323f6a2cb34b9e51f1ed0dfc716c39cfb90d6574ed14f7fbee8a2de8dee13a360c035e24ba6f43927a8b9b4ba5139ee24fe985d22ad9e61b8dc5525fded274372cf73c67d00d8424e58a637119892a3250f9e4cff9dd6cea7a640b820eec362cda522fab27abf01a65f0dc62d7e8b51546e531c196db81402b1e4db7472eb2de42d067a60234f36ca3da571846c6cd7071e92512575bc341197aba5c4e33cba3161e0ea02d6ecc445b8487f98ff5566a630c8b5a394d26a06bc0bcf2065c06cd461f1251dfa1255bf64d70cb1b55ec5ba91114cdbb8a670579509b0c23cab4a0a624ca031f3a79d4280de6dfacae4ec8ea7b599fd957944a460cbdfceeae1d4cd4a236357822c18c73436649f4dc3f9ac9123219c8dff0bcd6f4ef2e55db18900b70f3e0c61256e89fa789c66f995666172cf9c46abae722b71547feabd8cbb7586e29ad6d8d486af52aa135633498905e575ad0401bd5eecdc6664e39f02073694ccbb7f6d85d036f019a682c5b11ce5e397a778a95a6ff0e97f353186f4c9c26cd31e840b209492c0de55a4c27813c49cb5aac89f6530798502635eebbb078029ded4c66c3ec1b31ac9a60de42c6b1aa7235bd5bf954905a829fb2f11cd2c93b75c8e18850f3e1571f4a72fa449f8180442445b102a1846032579a7f30e7d263462d7d436072fa713b9a7bc0ce3bc73b55ceb387d57824750e1681aed6be2bfd7660f64d95f8fec1d544d34a8a6c41c1b6b27f01e19488bc536742386882542d32a13781724e861109528bb32daa4a9513542a6ac9c4fac2e35a023bae802739c681c93d85cb947c60a5d38695ef9cf0934b6f82c4ff2b98449ca28615d7db8d924c211bf88e61f16f4ccb53d5e8e7e377ca38f2b8cfb4ca2db749d8aeec5d0083a5633d0bb76540b4a20e9c73a6a55bc9f0e6557af777ff42e5b4cd6707800bba4f6acc0cc8508d338b18a97064143688941fd58a341134c3d6b19fc88e645d3bb65296acdd1415466929f2edde36dc83d93725d3870123bbb87cd19ba92fa7ab7d03c5541cbd6e0d1ad5d9ec7715a5197d911e664d982dc8d4fd0425c20c362da26b6934f05fd8adf1bfd42c150be6adc11c59cf609cd4a394c9631298e09dfa921089fe112f147b44f6e3f19f283e9815d9114cc3f5f7af2630b48354bc93070310b27b53ea755b615adb44c3dd22f3a571c7cbe67cd054deecac1c52b71981b0d7322ac3bd8c84072e2eac80ed40d59ca114ca0877bc84b309ce6fda56b221a2e46b07b7c1870c60e029a35105fd6fcf1e414ca7c8f45b5b10f0ff5c43569ce27a69eef23a30821cdb627060a272b464c66687279858890afbdc6d6e2f70f1923292e4e5589a0c1ccebecf101131e2c4d5d626f797a8c97a1a8b6bcc9e4fa1821245a676886939eced9eef5f700000000000000000000000000001321344201fd2105000b8a0282b759a9c4207d8573a2e81db7a1cc035bfcc5452fa8bc2ec7a59bcb2bf4fb815733088509084160721804a3720f7cf411c5d0a5fee45d0784ff737661d5ecc8175ba186269b22da74808e122bcfd008840f22154d726fa6705f77013ec232c2f4d7956be697e62ea02efacb8e268394870f340e66c81e3f290f7a7cb9dbda47e818b10fa167b99b37bb73f2b0ffdff243ab9cbc2ec598dba94660bbb2bc4aac246eafc1eb6f2b85b31c0f8523b121a42e0d458444c9dd415e12181afe6d1949e0eade937aca86ef7d08f3ae2231c175ff1b9d91a4a0ca4d035fa09bde7f1a21b910ceec3081c8a4e833b3e56b1e22b8f63a51b18cd471928c463ef2da81bef882725f9b4cfc79df4c1f894fddeb3a5b041370eb0d6cbff8feee0d743f90d41667fb4f7a13c2c1518aac22afb33cd302630b4f95bc24a66bf9ef7ed65755c6fd10d889939f859ab5f0baf022e6da2bd001c397eb227e136c37ae1f64369cf15e7f767d32abf7b85141c6f6e4ed9454590a4da849a20bc961ca11044ede590acf8181d31405871c32e70da55a8377e1981e5f708b7ce6ba9d9787479870ae5bd3f8af7d006164b7d6bda81d1f8be6938e7229bdfa665ced9c2877aead379ae59ee219d3b49320fead8b04e7310bf244020b2c65641e0e80e4380a93adc03dab9625c3fe1ff601cb73a9433d8df6f01b063415cb1bcaefd9d00051a8b75f766b352cf7d13a51bac6e7cc28f42bae91d8a52df912c2506c3cb77b750b43e312c8870e06ba389498132745d491ff0abda45cdee1eb1ff9811ac3598e539542f21de8137a213677612909e47df6e42b19fe806ecef22d7b1d33971fd54e075aef0abfa8f847790bcc237a750f2964303ab2ee4522c20351066595984f06d0d36236d7f9626f91e74b1806a23464077b9e2715ae6dd161c715281b3d5de632a1ab21933636e0e8a7a04f39b8a140033a6385de6edac162aaa6668cfd765932009993373b2656f7d72d84e3de6a0b33bcb654e9b9d684ab4fc91d8f825f3e38c41bacfd91306d989ba792601e61d38704c3fc75c8f721fa522fe88831b118ff8597eeed18fe2541c122b20ed635c40ecd9786e65057668211a9ba26572bf0dde35b9cad13aa0db24491699d3684da6b1acba1439cca1b0afa21d991774f98e1454c52a5b954b451ed0d27a44384b5b47ef3085f2e98a7b972c5c6b3032181c39b6996183981928c4ecd49baf55c811580f7ae91bd14d9f9c2f28b54ed98f8823c8e2e1ab3a1513cd91da461ea16e0fc3c27f2fa53ce79b02ec38b70715af2ebf23262ebd9b4e706781712128c2ad73ead2d846e505f29a5ef0652976a9ba7fd5d3ac63f38b5925d5415441622a22394c509d48a2f6ffdaf388802e0d76f55cb4731b38146aead265708fbdb872d51b1d35fb79a9dd336ad4172d1f01d08552bec75d50e1148acc1f491cf3532dce9f687c0a3bb2537028dfac38ce6805d2bca5ae6626be0bc1a7509922f361eacb5150a72909eaf587c9d19331adb7c15711eb19cbc34cb2a1f3a5dd5503b9ada27e7763bf75b8f3e5cf7c3b3e330542449290918d7b4ce8f19ba8840eca6fd61b7c40f30f0b08373925368cbc1b6e0e2093ba3cdfdfb5c0b58ed94b5d9d3f4200f18d41ec9e2e0917ffe66e9d5e0355be33067c80886f39274c66a577620f7a596268d864177a827838e8786bddb3ff0325c27e1ab135eb4179ca08684845952c4fe14ccc6c10ca980952e4475c832e66c87512695413845afa637564ee7ee17f9c370682699cc0eaef6fcf81b51b645fdfa608868c94547090b9957f8acf088cbdfd5ead7da6d2ccf83ae09a9ccb7df212bad68000000",
  "txid": "a6f37a031012989832ead189c0aeed8f8c51f5df462f3a9de003eaffea3c13de",
  "hash": "3d08856fc55db7ac453c773387c63b5e8e497856d7bd6ea137fb7f0a2533018e",
  "size": 5085,
  "vsize": 2278,
  "version": 1,
  "locktime": 104,
  "vin": [
    {
      "txid": "5467be6121ccd55fb3ab2d1edc99e5a51541fccef27e9e83b40b0fa6aa13901c",
      "vout": 1,
      "scriptSig": {
        "asm": "",
        "hex": ""
      },
      "txinwitness": [
        "105767d0d6192939c6beb658133f6190802a81770d772c6b3c13ce0514fb0629e0988e51fada3c2fd293a06f2fe2f75bc2ef8472401e2bd197a1c19b0503a87041b6422c5bdf88624713a0ea4440807e1ffbb96dbaa7e9d07caadef7de5791c886cbfad4f9f439d191321f40e3c9f85eb40220877684ac03146927dc2021abab2dfb981ac5bbff27f706c997141269d6849c2feb84f2a41789e588bd14896751c2eb4333b864aebcd1796b71c0329b151d1ebb06ad2b4c28abaf2827d5df90dbed12c9d550f07bd98480b79fa271175cf190b8ac18a79881f4a518e602c8ea5cb7ab8baf37b52f35d80f00c3c7affa5723fb3641657468140c4eb8415169e1739b9ff9b2a742f843c6cafd83530286abd1b995a87d03f5e65ba23cb56c846a902bc729ee97b301aa34f0257b444a659186c982b9ef289184593b4c704bb5471bea9c9a49f11712a19212e824cfe2fc2c0ba169d53bafad2bc425ea8708bfd658ea6751091a65f86600847addaf882d64d4b888401f2134dd612c92d37b997f137ef5e6887ccb6ff76a0f2ef48eabec9985027486c4ddaa66a8e84913be0702d5def17ff48457ad2edf38887864e1c4d5ac16f5479e167271e3053a3b174aef32bc8b5950a884125d363b913d57fe9909b9df05681946f8678a96eee8547103981d96d107d7a20418fcf4b4f001e40e506399140347e2b86cb83b3ef188c68cbf7be34f8ce26d81f884a44a78d8ed3d73a54e69e58784468de0c6c695da431605ac28a65fc7baf0eb2952422e5c47246bda108524d32dde25540c58f59442c311fd1cab49e0d6250141f4074fdc5f508a2aba34bb5580a98e769c3219e52e4db0013ebe7cb8759aacd1b12e64e6c0c9f5fe320f652b6b0f4d6b5ac5e7c277b7826e81c79d5044f40dbea38c05bdfcc36294cc5c4a35b6a20d15ddf0fc674deda4d763f2ab3c52b1b5991f6bf691dc4d7a0bfe0583e11c82c96d16d67592fd5f232dadf8776f0e08c152033401f940b1bc03dcb694e49324e3e3499ecadeecc4a590122ef561acb2b572ec7cba2123ca18fcaafd1bd8291b35da068efc5087156a2befc7f7c693d34be2a423e00205b4503412ed80add302d7ca1a62815fd244a3b56e97801f39dde8ea8256206be8265bea53dda9763434fa82cf01ed4ef75649c0b23fd314a2b9e6241a70c619d0619e20c692cbfb9073905354c5f08ce296394af0a21b4c9e21ed2fea7a5aa35f1ab8020054a174bd2f4b4f55dd2e47c936c8ff31755f836ff5dc2c52ac91e733d116c85f5cd995d99fd318bfaad42e54190c3c55621c39121457731c731dbe9135d36b353ce980c212a9023e07d9ef6ebf7d1522b753e545c0bc93263d6e068d14838144ac4620da110f183c7e6925652100396cfcb1c9edfd8719bd0057d4bfa5da5ea4c3fd4bd5fe832e472b595c914777ac65021276af9ea8d63ac2eac36916b0b3c9a758b1e5cbee1369ba61c174c252a464a823a5f7ffb5c4dfe3776bd9a2d03b1f48546c2d85b102fac323a4dbd51f2b14a71207bb26144c5c0765fcb40ed799d0cd8f7c77b1a4bb5992dd34d3991ec2676968e45723182f52ab55cf4b3d39e718714c0868856051ecf7ea94e2fe3c6d8983e17db4a71470964b76f49216950eb12453a65cc5e9c4b136b1fd4fb941dd7258f938a7cea748c4426f684b5058b3842a091140282f8891841c35dffc7b9721da3c50c6c7307e01254e108291c8a157062c151350e17012edfe6c0535b61efc4ef2f50cf1aff62efdd7c29a4878a229c5afc5419ace1e83200b471566d50d0ffe765e26f93f633ebdd342f9490919bcfc6684eba35ac9ee8877fb44c980f45ef4822578092d849058bb84ca84f349d07dd4d37e3f9b5b7b5620ffbecde446448efcdbfb5cc27925184dc36e2a5875c8297fb7e07385cf04cffabc52bb6dfc7f5f7a54353668c5b9ad79ffeb9e8ae4035323f6a2cb34b9e51f1ed0dfc716c39cfb90d6574ed14f7fbee8a2de8dee13a360c035e24ba6f43927a8b9b4ba5139ee24fe985d22ad9e61b8dc5525fded274372cf73c67d00d8424e58a637119892a3250f9e4cff9dd6cea7a640b820eec362cda522fab27abf01a65f0dc62d7e8b51546e531c196db81402b1e4db7472eb2de42d067a60234f36ca3da571846c6cd7071e92512575bc341197aba5c4e33cba3161e0ea02d6ecc445b8487f98ff5566a630c8b5a394d26a06bc0bcf2065c06cd461f1251dfa1255bf64d70cb1b55ec5ba91114cdbb8a670579509b0c23cab4a0a624ca031f3a79d4280de6dfacae4ec8ea7b599fd957944a460cbdfceeae1d4cd4a236357822c18c73436649f4dc3f9ac9123219c8dff0bcd6f4ef2e55db18900b70f3e0c61256e89fa789c66f995666172cf9c46abae722b71547feabd8cbb7586e29ad6d8d486af52aa135633498905e575ad0401bd5eecdc6664e39f02073694ccbb7f6d85d036f019a682c5b11ce5e397a778a95a6ff0e97f353186f4c9c26cd31e840b209492c0de55a4c27813c49cb5aac89f6530798502635eebbb078029ded4c66c3ec1b31ac9a60de42c6b1aa7235bd5bf954905a829fb2f11cd2c93b75c8e18850f3e1571f4a72fa449f8180442445b102a1846032579a7f30e7d263462d7d436072fa713b9a7bc0ce3bc73b55ceb387d57824750e1681aed6be2bfd7660f64d95f8fec1d544d34a8a6c41c1b6b27f01e19488bc536742386882542d32a13781724e861109528bb32daa4a9513542a6ac9c4fac2e35a023bae802739c681c93d85cb947c60a5d38695ef9cf0934b6f82c4ff2b98449ca28615d7db8d924c211bf88e61f16f4ccb53d5e8e7e377ca38f2b8cfb4ca2db749d8aeec5d0083a5633d0bb76540b4a20e9c73a6a55bc9f0e6557af777ff42e5b4cd6707800bba4f6acc0cc8508d338b18a97064143688941fd58a341134c3d6b19fc88e645d3bb65296acdd1415466929f2edde36dc83d93725d3870123bbb87cd19ba92fa7ab7d03c5541cbd6e0d1ad5d9ec7715a5197d911e664d982dc8d4fd0425c20c362da26b6934f05fd8adf1bfd42c150be6adc11c59cf609cd4a394c9631298e09dfa921089fe112f147b44f6e3f19f283e9815d9114cc3f5f7af2630b48354bc93070310b27b53ea755b615adb44c3dd22f3a571c7cbe67cd054deecac1c52b71981b0d7322ac3bd8c84072e2eac80ed40d59ca114ca0877bc84b309ce6fda56b221a2e46b07b7c1870c60e029a35105fd6fcf1e414ca7c8f45b5b10f0ff5c43569ce27a69eef23a30821cdb627060a272b464c66687279858890afbdc6d6e2f70f1923292e4e5589a0c1ccebecf101131e2c4d5d626f797a8c97a1a8b6bcc9e4fa1821245a676886939eced9eef5f700000000000000000000000000001321344201",
        "000b8a0282b759a9c4207d8573a2e81db7a1cc035bfcc5452fa8bc2ec7a59bcb2bf4fb815733088509084160721804a3720f7cf411c5d0a5fee45d0784ff737661d5ecc8175ba186269b22da74808e122bcfd008840f22154d726fa6705f77013ec232c2f4d7956be697e62ea02efacb8e268394870f340e66c81e3f290f7a7cb9dbda47e818b10fa167b99b37bb73f2b0ffdff243ab9cbc2ec598dba94660bbb2bc4aac246eafc1eb6f2b85b31c0f8523b121a42e0d458444c9dd415e12181afe6d1949e0eade937aca86ef7d08f3ae2231c175ff1b9d91a4a0ca4d035fa09bde7f1a21b910ceec3081c8a4e833b3e56b1e22b8f63a51b18cd471928c463ef2da81bef882725f9b4cfc79df4c1f894fddeb3a5b041370eb0d6cbff8feee0d743f90d41667fb4f7a13c2c1518aac22afb33cd302630b4f95bc24a66bf9ef7ed65755c6fd10d889939f859ab5f0baf022e6da2bd001c397eb227e136c37ae1f64369cf15e7f767d32abf7b85141c6f6e4ed9454590a4da849a20bc961ca11044ede590acf8181d31405871c32e70da55a8377e1981e5f708b7ce6ba9d9787479870ae5bd3f8af7d006164b7d6bda81d1f8be6938e7229bdfa665ced9c2877aead379ae59ee219d3b49320fead8b04e7310bf244020b2c65641e0e80e4380a93adc03dab9625c3fe1ff601cb73a9433d8df6f01b063415cb1bcaefd9d00051a8b75f766b352cf7d13a51bac6e7cc28f42bae91d8a52df912c2506c3cb77b750b43e312c8870e06ba389498132745d491ff0abda45cdee1eb1ff9811ac3598e539542f21de8137a213677612909e47df6e42b19fe806ecef22d7b1d33971fd54e075aef0abfa8f847790bcc237a750f2964303ab2ee4522c20351066595984f06d0d36236d7f9626f91e74b1806a23464077b9e2715ae6dd161c715281b3d5de632a1ab21933636e0e8a7a04f39b8a140033a6385de6edac162aaa6668cfd765932009993373b2656f7d72d84e3de6a0b33bcb654e9b9d684ab4fc91d8f825f3e38c41bacfd91306d989ba792601e61d38704c3fc75c8f721fa522fe88831b118ff8597eeed18fe2541c122b20ed635c40ecd9786e65057668211a9ba26572bf0dde35b9cad13aa0db24491699d3684da6b1acba1439cca1b0afa21d991774f98e1454c52a5b954b451ed0d27a44384b5b47ef3085f2e98a7b972c5c6b3032181c39b6996183981928c4ecd49baf55c811580f7ae91bd14d9f9c2f28b54ed98f8823c8e2e1ab3a1513cd91da461ea16e0fc3c27f2fa53ce79b02ec38b70715af2ebf23262ebd9b4e706781712128c2ad73ead2d846e505f29a5ef0652976a9ba7fd5d3ac63f38b5925d5415441622a22394c509d48a2f6ffdaf388802e0d76f55cb4731b38146aead265708fbdb872d51b1d35fb79a9dd336ad4172d1f01d08552bec75d50e1148acc1f491cf3532dce9f687c0a3bb2537028dfac38ce6805d2bca5ae6626be0bc1a7509922f361eacb5150a72909eaf587c9d19331adb7c15711eb19cbc34cb2a1f3a5dd5503b9ada27e7763bf75b8f3e5cf7c3b3e330542449290918d7b4ce8f19ba8840eca6fd61b7c40f30f0b08373925368cbc1b6e0e2093ba3cdfdfb5c0b58ed94b5d9d3f4200f18d41ec9e2e0917ffe66e9d5e0355be33067c80886f39274c66a577620f7a596268d864177a827838e8786bddb3ff0325c27e1ab135eb4179ca08684845952c4fe14ccc6c10ca980952e4475c832e66c87512695413845afa637564ee7ee17f9c370682699cc0eaef6fcf81b51b645fdfa608868c94547090b9957f8acf088cbdfd5ead7da6d2ccf83ae09a9ccb7df212bad"
      ],
      "sequence": 4294967294
    }
  ],
  "vout": [
    {
      "value": 499992.8817,
      "n": 0,
      "scriptPubKey": {
        "asm": "1 d251cec0e2915638d636bd1054589edec0d743674b655beb3d572fb10cf939a9",
        "hex": "5120d251cec0e2915638d636bd1054589edec0d743674b655beb3d572fb10cf939a9",
        "reqSigs": 1,
        "type": "witness_v1_scripthash",
        "addresses": [
          "3QJmnh"
        ]
      }
    },
    {
      "value": 1.0,
      "n": 1,
      "scriptPubKey": {
        "asm": "OP_RETURN df8b0099128c82dd492f6b052cf3577031b3f50af4617eed24588391d9ad538c 8347bd96a44ef4b4c0d61c6ae8f9d5173ee21005ec121ec15fcfb54dd4a33e99a3679db6846ed494e0f63c4ac8d9f5371ec23025cc323ee17fef956df4831eb9c307fdd6e40eb4f480965c2aa8b995577ea25045ac525e811f8ff50d94e37ed9e327ddf6c42e94d4a0b67c0a8899b5775e8270658c727ea13fafd52db4c35ef903c73d1624ce743440569cea68795597be6290856c929e41df4f35cd5423be1923e71d3604ee54146076bcca485975b79e42b0a54cb2be61ff6f15ed74039e3943877d56648e34740016dcaa283915d7fe22d0c52cd2de019f0f758d1463fe5963a75d7644ae14542036fc8a081935f7de02f0e50cf2fe21bf2f55ad3443de798347bd96a44ef4b4c0d61c6ae8f9d5173ee21005ec121ec15fcfb54dd4a33e99a3679db6846ed494e0f63c4ac8d9f5371ec23025cc323ee17fef956df4831eb9c307fdd6e40eb4f480965c2aa8b995577ea25045ac525e811f8ff50d94e37ed9e327ddf6c42e94d4a0b67c0a8899b5775e8270658c727ea13fafd52db4c35ef903c73d1624ce743440569cea68795597be6290856c929e41df4f35cd5423be1923e71d3604ee54146076bcca485975b79e42b0a54cb2be61ff6f15ed74039e3943877d56648e34740016dcaa283915d7fe22d0c52cd2de019f0f758d1463fe5963a75d7644ae14542036fc8a081935f7de02f0e50cf2fe21bf2f55ad3443de798347bd96a44ef4b4c0d61c6ae8f9d5173ee21005ec121ec15fcfb54dd4a33e99a3679db6846ed494e0f63c4ac8d9f5371ec23025cc323ee17fef956df4831eb9c307fdd6e40eb4f480965c2aa8b995577ea25045ac525e811f8ff50d94e37ed9e327ddf6c42e94d4a0b67c0a8899b5775e8270658c727ea13fafd52db4c35ef903c73d1624ce743440569cea68795597be6290856c929e41df4f35cd5423be1923e71d3604ee54146076bcca485975b79e42b0a54cb2be61ff6f15ed74039e3943877d56648e34740016dcaa283915d7fe22d0c52cd2de019f0f758d1463fe5963a75d7644ae14542036fc8a081935f7de02f0e50cf2fe21bf2f55ad3443de798347bd96a44ef4b4c0d61c6ae8f9d5173ee21005ec121ec15fcfb54dd4a33e99a3679db6846ed494e0f63c4ac8d9f5371ec23025cc323ee17fef956df4831eb9c307fdd6e40eb4f480965c2aa8b995577ea25045ac525e811f8ff50d94e37ed9e327ddf6c42e94d4a0b67c0a8899b5775e8270658c727ea13fafd52db4c35ef903c73d1624ce743440569cea68795597be6290856c929e41df4f35cd5423be1923e71d3604ee54146076bcca485975b79e42b0a54cb2be61ff6f15ed74039e3943877d56648e34740016dcaa283915d7fe22d0c52cd2de019f0f758d1463fe5963a75d7644ae14542036fc8a081935f7de02f0e50cf2fe21bf2f55ad3443de798347bd96a44ef4b4c0d61c6ae8f9d5173ee21005ec121ec15fcfb54dd4a33e99a3679db6846ed494e0f63c4ac8d9f5371ec23025cc323ee17fef956df4831eb9c307fdd6e40eb4f480965c2aa8b995577ea25045ac525e811f8ff50d94e37ed9e327ddf6c42e94d4a0b67c0a8899b5775e8270658c727ea13fafd52db4c35ef903c73d1624ce743440569cea68795597e4ccae89c65cfc2e7b7db6a2ed85fd2c7cc20079eb40bc788d95bcc96ad881a6",
        "hex": "6a20df8b0099128c82dd492f6b052cf3577031b3f50af4617eed24588391d9ad538c4db0048347bd96a44ef4b4c0d61c6ae8f9d5173ee21005ec121ec15fcfb54dd4a33e99a3679db6846ed494e0f63c4ac8d9f5371ec23025cc323ee17fef956df4831eb9c307fdd6e40eb4f480965c2aa8b995577ea25045ac525e811f8ff50d94e37ed9e327ddf6c42e94d4a0b67c0a8899b5775e8270658c727ea13fafd52db4c35ef903c73d1624ce743440569cea68795597be6290856c929e41df4f35cd5423be1923e71d3604ee54146076bcca485975b79e42b0a54cb2be61ff6f15ed74039e3943877d56648e34740016dcaa283915d7fe22d0c52cd2de019f0f758d1463fe5963a75d7644ae14542036fc8a081935f7de02f0e50cf2fe21bf2f55ad3443de798347bd96a44ef4b4c0d61c6ae8f9d5173ee21005ec121ec15fcfb54dd4a33e99a3679db6846ed494e0f63c4ac8d9f5371ec23025cc323ee17fef956df4831eb9c307fdd6e40eb4f480965c2aa8b995577ea25045ac525e811f8ff50d94e37ed9e327ddf6c42e94d4a0b67c0a8899b5775e8270658c727ea13fafd52db4c35ef903c73d1624ce743440569cea68795597be6290856c929e41df4f35cd5423be1923e71d3604ee54146076bcca485975b79e42b0a54cb2be61ff6f15ed74039e3943877d56648e34740016dcaa283915d7fe22d0c52cd2de019f0f758d1463fe5963a75d7644ae14542036fc8a081935f7de02f0e50cf2fe21bf2f55ad3443de798347bd96a44ef4b4c0d61c6ae8f9d5173ee21005ec121ec15fcfb54dd4a33e99a3679db6846ed494e0f63c4ac8d9f5371ec23025cc323ee17fef956df4831eb9c307fdd6e40eb4f480965c2aa8b995577ea25045ac525e811f8ff50d94e37ed9e327ddf6c42e94d4a0b67c0a8899b5775e8270658c727ea13fafd52db4c35ef903c73d1624ce743440569cea68795597be6290856c929e41df4f35cd5423be1923e71d3604ee54146076bcca485975b79e42b0a54cb2be61ff6f15ed74039e3943877d56648e34740016dcaa283915d7fe22d0c52cd2de019f0f758d1463fe5963a75d7644ae14542036fc8a081935f7de02f0e50cf2fe21bf2f55ad3443de798347bd96a44ef4b4c0d61c6ae8f9d5173ee21005ec121ec15fcfb54dd4a33e99a3679db6846ed494e0f63c4ac8d9f5371ec23025cc323ee17fef956df4831eb9c307fdd6e40eb4f480965c2aa8b995577ea25045ac525e811f8ff50d94e37ed9e327ddf6c42e94d4a0b67c0a8899b5775e8270658c727ea13fafd52db4c35ef903c73d1624ce743440569cea68795597be6290856c929e41df4f35cd5423be1923e71d3604ee54146076bcca485975b79e42b0a54cb2be61ff6f15ed74039e3943877d56648e34740016dcaa283915d7fe22d0c52cd2de019f0f758d1463fe5963a75d7644ae14542036fc8a081935f7de02f0e50cf2fe21bf2f55ad3443de798347bd96a44ef4b4c0d61c6ae8f9d5173ee21005ec121ec15fcfb54dd4a33e99a3679db6846ed494e0f63c4ac8d9f5371ec23025cc323ee17fef956df4831eb9c307fdd6e40eb4f480965c2aa8b995577ea25045ac525e811f8ff50d94e37ed9e327ddf6c42e94d4a0b67c0a8899b5775e8270658c727ea13fafd52db4c35ef903c73d1624ce743440569cea68795597e4ccae89c65cfc2e7b7db6a2ed85fd2c7cc20079eb40bc788d95bcc96ad881a6",
        "type": "nulldata"
      }
    }
  ],
  "blockhash": "32a2d379a33ec88ae1cb3a8a1a44f2d12b76aebf574ecf7ac16b289397ed6cd9",
  "confirmations": 1,
  "time": 1764176557,
  "blocktime": 1764176557
}