{
  "hex": "010000000001012650a5b60aa4a8c862ec01d0783eb28cee17db963af3048e41c322ff9835089d0000000000feffffff0200e1f50500000000fdd5046a206ef43f6776e5a68a13284ccf9181d80fe4ccead6ca744a01506a0565655f5d1e4db00467dd44b9e3412d431db753d28aa6b96f3b8feda4535bce4b1c0b2205796ea98747fd6499c3610d633d9773f2aa86994f1bafcd84737bee6b3c2b0225594e89a7279d04f9a3016d035df71392cae6f92f7bcfade4131b8e0b5c4b6245392ee9c707bd24d983214d237dd733b2eac6d90f5bef8dc4333bae2b7c6b4265190ec9e7e75dc43963c1adc39d37d3520a2639efbb0f6d24d3db4ecb9c8ba285f9ee2907c77de41943e18de3bd17f3722a0619cf9b2f4d04f3fb6eebbcab82a5d9ce0927a71d84792381ed83dd7793124a6679affb4f2d64939b0e8bdccbe2c5b9ae6947873da45903a1cda3fd57b3326a46598fdb6f0d44b3bb2eabfcebc2e5998e496767dd44b9e3412d431db753d28aa6b96f3b8feda4535bce4b1c0b2205796ea98747fd6499c3610d633d9773f2aa86994f1bafcd84737bee6b3c2b0225594e89a7279d04f9a3016d035df71392cae6f92f7bcfade4131b8e0b5c4b6245392ee9c707bd24d983214d237dd733b2eac6d90f5bef8dc4333bae2b7c6b4265190ec9e7e75dc43963c1adc39d37d3520a2639efbb0f6d24d3db4ecb9c8ba285f9ee2907c77de41943e18de3bd17f3722a0619cf9b2f4d04f3fb6eebbcab82a5d9ce0927a71d84792381ed83dd7793124a6679affb4f2d64939b0e8bdccbe2c5b9ae6947873da45903a1cda3fd57b3326a46598fdb6f0d44b3bb2eabfcebc2e5998e496767dd44b9e3412d431db753d28aa6b96f3b8feda4535bce4b1c0b2205796ea98747fd6499c3610d633d9773f2aa86994f1bafcd84737bee6b3c2b0225594e89a7279d04f9a3016d035df71392cae6f92f7bcfade4131b8e0b5c4b6245392ee9c707bd24d983214d237dd733b2eac6d90f5bef8dc4333bae2b7c6b4265190ec9e7e75dc43963c1adc39d37d3520a2639efbb0f6d24d3db4ecb9c8ba285f9ee2907c77de41943e18de3bd17f3722a0619cf9b2f4d04f3fb6eebbcab82a5d9ce0927a71d84792381ed83dd7793124a6679affb4f2d64939b0e8bdccbe2c5b9ae6947873da45903a1cda3fd57b3326a46598fdb6f0d44b3bb2eabfcebc2e5998e496767dd44b9e3412d431db753d28aa6b96f3b8feda4535bce4b1c0b2205796ea98747fd6499c3610d633d9773f2aa86994f1bafcd84737bee6b3c2b0225594e89a7279d04f9a3016d035df71392cae6f92f7bcfade4131b8e0b5c4b6245392ee9c707bd24d983214d237dd733b2eac6d90f5bef8dc4333bae2b7c6b4265190ec9e7e75dc43963c1adc39d37d3520a2639efbb0f6d24d3db4ecb9c8ba285f9ee2907c77de41943e18de3bd17f3722a0619cf9b2f4d04f3fb6eebbcab82a5d9ce0927a71d84792381ed83dd7793124a6679affb4f2d64939b0e8bdccbe2c5b9ae6947873da45903a1cda3fd57b3326a46598fdb6f0d44b3bb2eabfcebc2e5998e496767dd44b9e3412d431db753d28aa6b96f3b8feda4535bce4b1c0b2205796ea98747fd6499c3610d633d9773f2aa86994f1bafcd84737bee6b3c2b0225594e89a7279d04f9a3016d035df71392cae6f92f7bcfade4131b8e0b5c4b6245392ee9c707bd24d983214d237dd733b2eac6d90f5bef8dc4333bae2b7c6b4265190ec9e7e75dc43963c1adc39d37d3520a2639ef0742ebe3b968312da574cb3117a6b8133be6164e59abdbcfea3eccda82791e7da077e402792d00002251207c1130d33f8c4e6ddf1c4a7cf938c91a53c9916f5b77c5697b6dab8d5b69dea502fd75090f58e99db819488a102183a2cb1c000a35b498a32756083c4035f6d3f851acab730873562dd44605e959d2192182ee02c9f11af4a1412b5faa2d712d22a3dda8bebe655434d2938c30912dee5e93d1a3616f4ed27887b3c5820b365238b31971f5b3e292d7e1beb7731cc7438d836cdb42831cc0c98599775530788a3a3a5d0649097487a488c490bd41f5904da845ffe3423ab77999534dceea25624084e107dda760f03402551be5ac0e58e49ae9f857093216f7ff0f37d6b7eac115e46332a803817b98e2a9b1db1c580f44db66fb3559db9983c95798c9a0ee266e091dcf013d9869f7d358f5427390fca4e5bc9ab0f94eff7d9407fe0c146982619f06531046f48e3b0e3a3b25970ab905498d43b08e3884e9fa911beffc8b9f2eb0e7b0462dc4a8a4d3e1c1a0099308483e48af92b9cf28958bc7a7d936b604581dcf30dfc0fdff0e2c5e6d98b27a9f9b16f53b67ea56e4ef508db05362090bfec046cdcf9a4be3cf70ef33bb16c803257b1c5d639848d4373808f09e3e47212e546e059aead2acc5f46db04c8483fd2fb2f45236c68a3fb1af036686157383c0b59b0db2cd4ff25e5d24126a0dc5902a5eb5302df0e0c398a707466a4e096c61c2d6e626788509f3999f34b790fdaff6a449de1a788c9a12dd4dd15a434bbb797951f9bbe0ce03a240bd2cdd7a8c56691b3ddfc85239950cd4da7a45c3256228f7a3352a05489f61c6ccbfad901a5f4286d786c6db38b1443feb736c118cbd7bce949c92a6e6fc3e8085698a112dc732248627a76fdbb7c67a62b1925b146de604fcc4113d58e0380ff4ce7cd012c5d5929d5290ba4fa701fc34b7f339e5786e28b4edbaedfee8bb01940fadf4c3b3baa382c493d8e7941ed3abe999da7fbe6e3fd249ce786b0a42d2fdb26e9bb9f7f7d36152fc7bfb1746fe92b3bde42a6a1cad2fc5a2322321fe88b9c6f6afca55400f0ace5856d35cc76db29896f54a78450f13afde9b49526ec4113960959c03859e340a4389461868326f47a028701fc1c774d453e512b46a64f44a94237e9c040c390ba0602ca1190f800b22ab48eeaf5ff7e16ca9856e7b30691362280f10440480cfcac7ee3f77462e66fac7fad47f99e15e00f6bf5a66f9419deebb804fd90a140f825b2aa1e79584f9f021f9753b5f1f706dc37c6112966b992c4dcc407dae87b497fbb188d874fc0b7ed77a0aa2cffc29e41867d69cfcd29a9d9b441f4a3b6ea058a0fee37d3d7fbbe5eb00eeff029d7d8659ea4f6079e4b65f63a8f59f5445d53fd00d79411644a746a5682f91e333d93e169cec069bda0ae946d4d043c8a9d1773fdc45e64367dc20b275c343829c34bd3bcc3a652397d1912ce633965251cd2ced9a3b67d41113900c01cc3713c01c4694015ca53a91c52c48d5ecba150a62611d72b5c1be1d0388cc031f295563a5284007017cce842c02130a8281620d1bbfb21250d82f336577bd67d3211a3ae4f74237f61bcf0701682e44399da51c7fc8c5c94564dabffe4ddb1f654f3dd132c4326631057eb39c4ebeebc76230897f2f0f40804da053b35412a4b4583d1abf7b021f8d067c4316e26ad329dae3c2883472d30b11051863e8008689c1d9cd5a349222b326e1f647239cf0da746a23fc73c861a833a2e30d46afba33a7d32f4099379d0eb18d12af5376a04f0de4a5b800bb44572562ba1cba60dc623fb3bd86b668684497adfe28abf61263e8b0fc2de3ff15ffe60c111f9fbba935d5f1abcf8969fd30e66e7a35fd79a1f16501db49f4fe77dc0ae991434e44fec4cbb0f3247c88437e5e0e64236b6595be7d09a184e5240468eb164267f0e69e0aa79db7e1c8e756a3a02ac48651541b0a9385dda90373310b32f9261fcd36868bf5faef5b83cfd0631a272f38b462a822e2dc0c74d535814fd25063b566c0d705f65fd15efbcc35efda1deed42e17ddace190e0ab7deaf8a0cb5439c6d1436ba011737a1d53c44ef0e925c58f602cdb26e4ece5547d77971c8ea6c21e6e651da90268cf47c92d38c1cb02fe749aa6851fa0d369f23e0664570fb2fe617d9b1a806df74992cd3b0941e2078aa027678324da82efd43d4326fe9c3a8647b7d293accda7aa7a29daeb64425afbde32044699e67e39f1befc5b61547d50cbc7a8dc7bcb3470b3ab25ebad8826d1840d1dbb0ea05099c5da4472162f5b8a363278898e572b14c21305d0786a7b35f0965ca40cc8f94c58b0b27f01b058a5dba84f631f7595eb7503742305cb6446abd2cd913fa94aa4ec7808e90ca4599db522738b457218078904a52f1a823601999733e90c78aa72fe13f1df30bd12574f715f87706eec3bc753cc6883a3ef090a2d8752637e8ad4421b79bda15b70b13cd0829c9d2e99b1c9531e190bd00f4e18b0d69ed724d8206f3965fa7dce62361359e4b47fa8b28826aeaabfee0143256b087767f9e6fed91905a6e8f8603e0d31207e8940543fcc608726203e4f67a3bd71741fd4be2d8c9ebe2fe7355baad0c130d1dbe2379f2ea81e4130cffe4b878494cd8796440d84b33b6e7a1026d81c27aaf5c71d00c1d575b90d2c19418631875cffc84e43e4ed80607ed09fe71e051a1d92349e51299f57a8c0791a69aa6b07fa9382af829f32d0b8ce83dc524ae9b0049e51bcd6cd54a923c3d7241aabe362aaecd9f7f0f2acf2a16a727c7ff3ae760e030aaf86bc37dc3424d92cdde5ba2f9f17c30c8cf3f6489f67c68be75dcca92ab25fac83568b4c70362974754e1eab38d0dd51cead5f862e9f356da22af00ffbeeda6eba947959f00e969d564c1d24a7f70e8ea4ea151e3ee657b4e19b6a777e4728456fd5239ec563f37b6be8fcd4b4887af4de5f12aca8cc66a6487ee1261653db201f2f5c4734508efe29230232d7fbc1cee68bba24cfbd021e793167e2ca26282f46cf7675ff1ac1cefa973a49cccba2227bc514aba621b016bf39146012b47f160720174c316c2eb1803301e8a4855af825883793ef7da1328684d063770a3b950a4e7c1e180774391e2129763d42488b2b0d79ae0ed4cc57dfd56dd631934c742f1224a4e097205cabcb8cd5f5ac0cace91284fc478625578d69c79530f6147ebb1b42fe72da9e89558f331a97443fb6bee524bcc7a13c2a67560681963b21c845075230f22df4916c6864b006148cd995e08851d9177b76c4f29dd4f0f903eda77213ec9dcf8fff9de6ffdbc7c84ce1fb86579a0e57a82bc53783b5dd754e5ee21ffca3b4217c25c02cbbe421c2e4bbc1fa577d78ba2197fc0b85b259719bb71e64d95314192a38494e5158747f939497a0b0c1cadde9f30f171e21252d40414f5a6a6da6adafbcc8d9ee0e353c4a54669ab9dfe1e4ef040d2334414761626479839ba3b2babfc0d4d5e0eff0000000000000001427334901fd210500c16bee7a6b528cda806ab1d6b668636050ba451fb22604a6d5dad9811c0334693e4020c281ce945341d01f6f14aa1ab35692a128b9039dd1a244727a89f0ea5c3a77568d424c48c617028510848d1f4a4629f0eba00f24b1fa58cd0413ef4398ae2d54f971eff13644d1e6f44b97ee2edac4be8b61a4eba63ec815484f963bee199708874fe20f12805cf35d1f59d52f3e2be18486a7d5d7b230938b38a0a6d6a33504d5e4a5d9b9204ba88e531b235a8196c84aebfb26ede9fa2588bf6d721e65508a416c759c1366fdf448ebe813a13c8f6fd76b95e10f5b7140c3fe655c2124edbb91715e4468967a557f8a5a4cb05803600b123cb4e603c1b3203498257786be17a5d514a10a576291271a1b484f0cfc2f7bbb39363c8daaaa7ddd9794046cbfccc7951c74690ce394fb5c1ef9fc5c6ba726decd5d56e98da77a03ab4ca03c7e0a76efdcf317d819954fff741753c677f6f273357f715fa37ede21817c3fedcab2b3967c1c0aa8dd9009b5c9a9babb78d402138b7bb1d9acd21879585943c351f5f712a4aa2471101e544db67ed5d437d5ae019ecfdd48b1f3f4b6c6d8bbb9584bd59d1309f61f2d823258d2d994022b485913cf384edfb9e9f17f0315214238c27c5d4d6fe10ceeed9aa3b2b5440e229f4b19579ce309c50107dcb1c2dbc25272f868e1340cb26ac711bba91de0dcf1040175915148e0d181723a706872a4eb3184948092b873b3be0c4f2df9c00b8215eef4a53c9a2d5dc9308ac8a0c71c60a0a5f4b5221f5937b9be66ad94022631ee4582dc923824a141bc1ed71cf84eb94661cd268e29ba51e81665741e3f5b270222f96335b99fe45644a47b1b1e366952d72dd6f72f53f3a4bf227f0e8cb9b2b474784c318fe2657f705f82ad9cedbce4feb243ab32ab61972b0f1b3a5b56b8edc8ba7480434a58a749c32e2c1a57bae171a898bb3b0d122705f0e3814f741cf37ed192cc206c8f65fdf26c652a0eab0c6ede713e72852a3fe2360fe128a2ff23b16fdd8e88d761717a1b0b3be74b9a9f45fdef49a1b23492cc47329f7e7571c9f5c22c63b6f6c789fd953769ca029062a8a515cace7d14f27ff66476133a64226566af8482552abf861085a42df218278ce412fb1305e8daab19ea125bfba21968fb8030e50391f1eba44bf50aa26e9845b8dfa1cdb0559965d1faad0e1c9717219682e3e9dfd83c3f27907ea4ceda3384d059c6bb0878eabb5ba9a314f4ce6d409eeb0a90d9c0f98f4bb7a0aed35ff4e27e76c34887caf2a2feebbfbe8e95eae555b903ac65ee15749d3b4ea4c6e1c4c5b45c921913898049d92a19c028119794d322f98a66b644e482ca31c8c32acb5112897444fba91b6683eccfa163545f5c2fc2f39c6b4f73ee3747619a0991bbbed709d9f685db3ee2de9c858cb56c8effb126c08aca25267c8f85545aa0c986be7386fce1a05e2b2d7493541f84aea1c43552ce0e3dac1c49050eedf3293b5341760de3b11f9da0555fe9a0a4122fa470ce5ceabaed28f6cd67d5e073a5d4f2e0dea38b5fb0f8f32304a73c60a14fc5dbdc7d3903190fcfb96486ffb3e72313323131e5d8ccb453d58b73b70c700ce01e5014cd59e592dce2e2324bbf0ce3653a573332e587d6b20b015ac261c01dc22758abc9d6fafc910d528fbffa06a00e3243ba92ad5554c622ec08c35fb6b4a8dcc59f0a041f6903a6a7eb98c2b70279f39eb0354c87d12e71de5edaf86356741205b2c35325d80a18e7dca1055f88923c9653e55a2ad048eea138e8339e161b6452f40e635fa35d23867668a7ef332f621395e861ca0a1e9b4bff996e7f6c35b212a4e6a444953e9b2f0d965d78000000",
  "txid": "abb9f9742b92293320f40084c5c181e5c6f2a558823efe2955dff680ed86de68",
  "hash": "90ef6efae5481fcb8effa8808205252f03f0f9dcefcb8aa401c557cebdbd177f",
  "size": 5085,
  "vsize": 2278,
  "version": 1,
  "locktime": 120,
  "vin": [
    {
      "txid": "9d083598ff22c3418e04f33a96db17ee8cb23e78d001ec62c8a8a40ab6a55026",
      "vout": 0,
      "scriptSig": {
        "asm": "",
        "hex": ""
      },
      "txinwitness": [
        "0f58e99db819488a102183a2cb1c000a35b498a32756083c4035f6d3f851acab730873562dd44605e959d2192182ee02c9f11af4a1412b5faa2d712d22a3dda8bebe655434d2938c30912dee5e93d1a3616f4ed27887b3c5820b365238b31971f5b3e292d7e1beb7731cc7438d836cdb42831cc0c98599775530788a3a3a5d0649097487a488c490bd41f5904da845ffe3423ab77999534dceea25624084e107dda760f03402551be5ac0e58e49ae9f857093216f7ff0f37d6b7eac115e46332a803817b98e2a9b1db1c580f44db66fb3559db9983c95798c9a0ee266e091dcf013d9869f7d358f5427390fca4e5bc9ab0f94eff7d9407fe0c146982619f06531046f48e3b0e3a3b25970ab905498d43b08e3884e9fa911beffc8b9f2eb0e7b0462dc4a8a4d3e1c1a0099308483e48af92b9cf28958bc7a7d936b604581dcf30dfc0fdff0e2c5e6d98b27a9f9b16f53b67ea56e4ef508db05362090bfec046cdcf9a4be3cf70ef33bb16c803257b1c5d639848d4373808f09e3e47212e546e059aead2acc5f46db04c8483fd2fb2f45236c68a3fb1af036686157383c0b59b0db2cd4ff25e5d24126a0dc5902a5eb5302df0e0c398a707466a4e096c61c2d6e626788509f3999f34b790fdaff6a449de1a788c9a12dd4dd15a434bbb797951f9bbe0ce03a240bd2cdd7a8c56691b3ddfc85239950cd4da7a45c3256228f7a3352a05489f61c6ccbfad901a5f4286d786c6db38b1443feb736c118cbd7bce949c92a6e6fc3e8085698a112dc732248627a76fdbb7c67a62b1925b146de604fcc4113d58e0380ff4ce7cd012c5d5929d5290ba4fa701fc34b7f339e5786e28b4edbaedfee8bb01940fadf4c3b3baa382c493d8e7941ed3abe999da7fbe6e3fd249ce786b0a42d2fdb26e9bb9f7f7d36152fc7bfb1746fe92b3bde42a6a1cad2fc5a2322321fe88b9c6f6afca55400f0ace5856d35cc76db29896f54a78450f13afde9b49526ec4113960959c03859e340a4389461868326f47a028701fc1c774d453e512b46a64f44a94237e9c040c390ba0602ca1190f800b22ab48eeaf5ff7e16ca9856e7b30691362280f10440480cfcac7ee3f77462e66fac7fad47f99e15e00f6bf5a66f9419deebb804fd90a140f825b2aa1e79584f9f021f9753b5f1f706dc37c6112966b992c4dcc407dae87b497fbb188d874fc0b7ed77a0aa2cffc29e41867d69cfcd29a9d9b441f4a3b6ea058a0fee37d3d7fbbe5eb00eeff029d7d8659ea4f6079e4b65f63a8f59f5445d53fd00d79411644a746a5682f91e333d93e169cec069bda0ae946d4d043c8a9d1773fdc45e64367dc20b275c343829c34bd3bcc3a652397d1912ce633965251cd2ced9a3b67d41113900c01cc3713c01c4694015ca53a91c52c48d5ecba150a62611d72b5c1be1d0388cc031f295563a5284007017cce842c02130a8281620d1bbfb21250d82f336577bd67d3211a3ae4f74237f61bcf0701682e44399da51c7fc8c5c94564dabffe4ddb1f654f3dd132c4326631057eb39c4ebeebc76230897f2f0f40804da053b35412a4b4583d1abf7b021f8d067c4316e26ad329dae3c2883472d30b11051863e8008689c1d9cd5a349222b326e1f647239cf0da746a23fc73c861a833a2e30d46afba33a7d32f4099379d0eb18d12af5376a04f0de4a5b800bb44572562ba1cba60dc623fb3bd86b668684497adfe28abf61263e8b0fc2de3ff15ffe60c111f9fbba935d5f1abcf8969fd30e66e7a35fd79a1f16501db49f4fe77dc0ae991434e44fec4cbb0f3247c88437e5e0e64236b6595be7d09a184e5240468eb164267f0e69e0aa79db7e1c8e756a3a02ac48651541b0a9385dda90373310b32f9261fcd36868bf5faef5b83cfd0631a272f38b462a822e2dc0c74d535814fd25063b566c0d705f65fd15efbcc35efda1deed42e17ddace190e0ab7deaf8a0cb5439c6d1436ba011737a1d53c44ef0e925c58f602cdb26e4ece5547d77971c8ea6c21e6e651da90268cf47c92d38c1cb02fe749aa6851fa0d369f23e0664570fb2fe617d9b1a806df74992cd3b0941e2078aa027678324da82efd43d4326fe9c3a8647b7d293accda7aa7a29daeb64425afbde32044699e67e39f1befc5b61547d50cbc7a8dc7bcb3470b3ab25ebad8826d1840d1dbb0ea05099c5da4472162f5b8a363278898e572b14c21305d0786a7b35f0965ca40cc8f94c58b0b27f01b058a5dba84f631f7595eb7503742305cb6446abd2cd913fa94aa4ec7808e90ca4599db522738b457218078904a52f1a823601999733e90c78aa72fe13f1df30bd12574f715f87706eec3bc753cc6883a3ef090a2d8752637e8ad4421b79bda15b70b13cd0829c9d2e99b1c9531e190bd00f4e18b0d69ed724d8206f3965fa7dce62361359e4b47fa8b28826aeaabfee0143256b087767f9e6fed91905a6e8f8603e0d31207e8940543fcc608726203e4f67a3bd71741fd4be2d8c9ebe2fe7355baad0c130d1dbe2379f2ea81e4130cffe4b878494cd8796440d84b33b6e7a1026d81c27aaf5c71d00c1d575b90d2c19418631875cffc84e43e4ed80607ed09fe71e051a1d92349e51299f57a8c0791a69aa6b07fa9382af829f32d0b8ce83dc524ae9b0049e51bcd6cd54a923c3d7241aabe362aaecd9f7f0f2acf2a16a727c7ff3ae760e030aaf86bc37dc3424d92cdde5ba2f9f17c30c8cf3f6489f67c68be75dcca92ab25fac83568b4c70362974754e1eab38d0dd51cead5f862e9f356da22af00ffbeeda6eba947959f00e969d564c1d24a7f70e8ea4ea151e3ee657b4e19b6a777e4728456fd5239ec563f37b6be8fcd4b4887af4de5f12aca8cc66a6487ee1261653db201f2f5c4734508efe29230232d7fbc1cee68bba24cfbd021e793167e2ca26282f46cf7675ff1ac1cefa973a49cccba2227bc514aba621b016bf39146012b47f160720174c316c2eb1803301e8a4855af825883793ef7da1328684d063770a3b950a4e7c1e180774391e2129763d42488b2b0d79ae0ed4cc57dfd56dd631934c742f1224a4e097205cabcb8cd5f5ac0cace91284fc478625578d69c79530f6147ebb1b42fe72da9e89558f331a97443fb6bee524bcc7a13c2a67560681963b21c845075230f22df4916c6864b006148cd995e08851d9177b76c4f29dd4f0f903eda77213ec9dcf8fff9de6ffdbc7c84ce1fb86579a0e57a82bc53783b5dd754e5ee21ffca3b4217c25c02cbbe421c2e4bbc1fa577d78ba2197fc0b85b259719bb71e64d95314192a38494e5158747f939497a0b0c1cadde9f30f171e21252d40414f5a6a6da6adafbcc8d9ee0e353c4a54669ab9dfe1e4ef040d2334414761626479839ba3b2babfc0d4d5e0eff0000000000000001427334901",
        "00c16bee7a6b528cda806ab1d6b668636050ba451fb22604a6d5dad9811c0334693e4020c281ce945341d01f6f14aa1ab35692a128b9039dd1a244727a89f0ea5c3a77568d424c48c617028510848d1f4a4629f0eba00f24b1fa58cd0413ef4398ae2d54f971eff13644d1e6f44b97ee2edac4be8b61a4eba63ec815484f963bee199708874fe20f12805cf35d1f59d52f3e2be18486a7d5d7b230938b38a0a6d6a33504d5e4a5d9b9204ba88e531b235a8196c84aebfb26ede9fa2588bf6d721e65508a416c759c1366fdf448ebe813a13c8f6fd76b95e10f5b7140c3fe655c2124edbb91715e4468967a557f8a5a4cb05803600b123cb4e603c1b3203498257786be17a5d514a10a576291271a1b484f0cfc2f7bbb39363c8daaaa7ddd9794046cbfccc7951c74690ce394fb5c1ef9fc5c6ba726decd5d56e98da77a03ab4ca03c7e0a76efdcf317d819954fff741753c677f6f273357f715fa37ede21817c3fedcab2b3967c1c0aa8dd9009b5c9a9babb78d402138b7bb1d9acd21879585943c351f5f712a4aa2471101e544db67ed5d437d5ae019ecfdd48b1f3f4b6c6d8bbb9584bd59d1309f61f2d823258d2d994022b485913cf384edfb9e9f17f0315214238c27c5d4d6fe10ceeed9aa3b2b5440e229f4b19579ce309c50107dcb1c2dbc25272f868e1340cb26ac711bba91de0dcf1040175915148e0d181723a706872a4eb3184948092b873b3be0c4f2df9c00b8215eef4a53c9a2d5dc9308ac8a0c71c60a0a5f4b5221f5937b9be66ad94022631ee4582dc923824a141bc1ed71cf84eb94661cd268e29ba51e81665741e3f5b270222f96335b99fe45644a47b1b1e366952d72dd6f72f53f3a4bf227f0e8cb9b2b474784c318fe2657f705f82ad9cedbce4feb243ab32ab61972b0f1b3a5b56b8edc8ba7480434a58a749c32e2c1a57bae171a898bb3b0d122705f0e3814f741cf37ed192cc206c8f65fdf26c652a0eab0c6ede713e72852a3fe2360fe128a2ff23b16fdd8e88d761717a1b0b3be74b9a9f45fdef49a1b23492cc47329f7e7571c9f5c22c63b6f6c789fd953769ca029062a8a515cace7d14f27ff66476133a64226566af8482552abf861085a42df218278ce412fb1305e8daab19ea125bfba21968fb8030e50391f1eba44bf50aa26e9845b8dfa1cdb0559965d1faad0e1c9717219682e3e9dfd83c3f27907ea4ceda3384d059c6bb0878eabb5ba9a314f4ce6d409eeb0a90d9c0f98f4bb7a0aed35ff4e27e76c34887caf2a2feebbfbe8e95eae555b903ac65ee15749d3b4ea4c6e1c4c5b45c921913898049d92a19c028119794d322f98a66b644e482ca31c8c32acb5112897444fba91b6683eccfa163545f5c2fc2f39c6b4f73ee3747619a0991bbbed709d9f685db3ee2de9c858cb56c8effb126c08aca25267c8f85545aa0c986be7386fce1a05e2b2d7493541f84aea1c43552ce0e3dac1c49050eedf3293b5341760de3b11f9da0555fe9a0a4122fa470ce5ceabaed28f6cd67d5e073a5d4f2e0dea38b5fb0f8f32304a73c60a14fc5dbdc7d3903190fcfb96486ffb3e72313323131e5d8ccb453d58b73b70c700ce01e5014cd59e592dce2e2324bbf0ce3653a573332e587d6b20b015ac261c01dc22758abc9d6fafc910d528fbffa06a00e3243ba92ad5554c622ec08c35fb6b4a8dcc59f0a041f6903a6a7eb98c2b70279f39eb0354c87d12e71de5edaf86356741205b2c35325d80a18e7dca1055f88923c9653e55a2ad048eea138e8339e161b6452f40e635fa35d23867668a7ef332f621395e861ca0a1e9b4bff996e7f6c35b212a4e6a444953e9b2f0d965d"
      ],
      "sequence": 4294967294
    }
  ],
  "vout": [
    {
      "value": 1.0,
      "n": 0,
      "scriptPubKey": {
        "asm": "OP_RETURN 6ef43f6776e5a68a13284ccf9181d80fe4ccead6ca744a01506a0565655f5d1e 67dd44b9e3412d431db753d28aa6b96f3b8feda4535bce4b1c0b2205796ea98747fd6499c3610d633d9773f2aa86994f1bafcd84737bee6b3c2b0225594e89a7279d04f9a3016d035df71392cae6f92f7bcfade4131b8e0b5c4b6245392ee9c707bd24d983214d237dd733b2eac6d90f5bef8dc4333bae2b7c6b4265190ec9e7e75dc43963c1adc39d37d3520a2639efbb0f6d24d3db4ecb9c8ba285f9ee2907c77de41943e18de3bd17f3722a0619cf9b2f4d04f3fb6eebbcab82a5d9ce0927a71d84792381ed83dd7793124a6679affb4f2d64939b0e8bdccbe2c5b9ae6947873da45903a1cda3fd57b3326a46598fdb6f0d44b3bb2eabfcebc2e5998e496767dd44b9e3412d431db753d28aa6b96f3b8feda4535bce4b1c0b2205796ea98747fd6499c3610d633d9773f2aa86994f1bafcd84737bee6b3c2b0225594e89a7279d04f9a3016d035df71392cae6f92f7bcfade4131b8e0b5c4b6245392ee9c707bd24d983214d237dd733b2eac6d90f5bef8dc4333bae2b7c6b4265190ec9e7e75dc43963c1adc39d37d3520a2639efbb0f6d24d3db4ecb9c8ba285f9ee2907c77de41943e18de3bd17f3722a0619cf9b2f4d04f3fb6eebbcab82a5d9ce0927a71d84792381ed83dd7793124a6679affb4f2d64939b0e8bdccbe2c5b9ae6947873da45903a1cda3fd57b3326a46598fdb6f0d44b3bb2eabfcebc2e5998e496767dd44b9e3412d431db753d28aa6b96f3b8feda4535bce4b1c0b2205796ea98747fd6499c3610d633d9773f2aa86994f1bafcd84737bee6b3c2b0225594e89a7279d04f9a3016d035df71392cae6f92f7bcfade4131b8e0b5c4b6245392ee9c707bd24d983214d237dd733b2eac6d90f5bef8dc4333bae2b7c6b4265190ec9e7e75dc43963c1adc39d37d3520a2639efbb0f6d24d3db4ecb9c8ba285f9ee2907c77de41943e18de3bd17f3722a0619cf9b2f4d04f3fb6eebbcab82a5d9ce0927a71d84792381ed83dd7793124a6679affb4f2d64939b0e8bdccbe2c5b9ae6947873da45903a1cda3fd57b3326a46598fdb6f0d44b3bb2eabfcebc2e5998e496767dd44b9e3412d431db753d28aa6b96f3b8feda4535bce4b1c0b2205796ea98747fd6499c3610d633d9773f2aa86994f1bafcd84737bee6b3c2b0225594e89a7279d04f9a3016d035df71392cae6f92f7bcfade4131b8e0b5c4b6245392ee9c707bd24d983214d237dd733b2eac6d90f5bef8dc4333bae2b7c6b4265190ec9e7e75dc43963c1adc39d37d3520a2639efbb0f6d24d3db4ecb9c8ba285f9ee2907c77de41943e18de3bd17f3722a0619cf9b2f4d04f3fb6eebbcab82a5d9ce0927a71d84792381ed83dd7793124a6679affb4f2d64939b0e8bdccbe2c5b9ae6947873da45903a1cda3fd57b3326a46598fdb6f0d44b3bb2eabfcebc2e5998e496767dd44b9e3412d431db753d28aa6b96f3b8feda4535bce4b1c0b2205796ea98747fd6499c3610d633d9773f2aa86994f1bafcd84737bee6b3c2b0225594e89a7279d04f9a3016d035df71392cae6f92f7bcfade4131b8e0b5c4b6245392ee9c707bd24d983214d237dd733b2eac6d90f5bef8dc4333bae2b7c6b4265190ec9e7e75dc43963c1adc39d37d3520a2639ef0742ebe3b968312da574cb3117a6b8133be6164e59abdbcfea3eccda82791e7d",
        "hex": "6a206ef43f6776e5a68a13284ccf9181d80fe4ccead6ca744a01506a0565655f5d1e4db00467dd44b9e3412d431db753d28aa6b96f3b8feda4535bce4b1c0b2205796ea98747fd6499c3610d633d9773f2aa86994f1bafcd84737bee6b3c2b0225594e89a7279d04f9a3016d035df71392cae6f92f7bcfade4131b8e0b5c4b6245392ee9c707bd24d983214d237dd733b2eac6d90f5bef8dc4333bae2b7c6b4265190ec9e7e75dc43963c1adc39d37d3520a2639efbb0f6d24d3db4ecb9c8ba285f9ee2907c77de41943e18de3bd17f3722a0619cf9b2f4d04f3fb6eebbcab82a5d9ce0927a71d84792381ed83dd7793124a6679affb4f2d64939b0e8bdccbe2c5b9ae6947873da45903a1cda3fd57b3326a46598fdb6f0d44b3bb2eabfcebc2e5998e496767dd44b9e3412d431db753d28aa6b96f3b8feda4535bce4b1c0b2205796ea98747fd6499c3610d633d9773f2aa86994f1bafcd84737bee6b3c2b0225594e89a7279d04f9a3016d035df71392cae6f92f7bcfade4131b8e0b5c4b6245392ee9c707bd24d983214d237dd733b2eac6d90f5bef8dc4333bae2b7c6b4265190ec9e7e75dc43963c1adc39d37d3520a2639efbb0f6d24d3db4ecb9c8ba285f9ee2907c77de41943e18de3bd17f3722a0619cf9b2f4d04f3fb6eebbcab82a5d9ce0927a71d84792381ed83dd7793124a6679affb4f2d64939b0e8bdccbe2c5b9ae6947873da45903a1cda3fd57b3326a46598fdb6f0d44b3bb2eabfcebc2e5998e496767dd44b9e3412d431db753d28aa6b96f3b8feda4535bce4b1c0b2205796ea98747fd6499c3610d633d9773f2aa86994f1bafcd84737bee6b3c2b0225594e89a7279d04f9a3016d035df71392cae6f92f7bcfade4131b8e0b5c4b6245392ee9c707bd24d983214d237dd733b2eac6d90f5bef8dc4333bae2b7c6b4265190ec9e7e75dc43963c1adc39d37d3520a2639efbb0f6d24d3db4ecb9c8ba285f9ee2907c77de41943e18de3bd17f3722a0619cf9b2f4d04f3fb6eebbcab82a5d9ce0927a71d84792381ed83dd7793124a6679affb4f2d64939b0e8bdccbe2c5b9ae6947873da45903a1cda3fd57b3326a46598fdb6f0d44b3bb2eabfcebc2e5998e496767dd44b9e3412d431db753d28aa6b96f3b8feda4535bce4b1c0b2205796ea98747fd6499c3610d633d9773f2aa86994f1bafcd84737bee6b3c2b0225594e89a7279d04f9a3016d035df71392cae6f92f7bcfade4131b8e0b5c4b6245392ee9c707bd24d983214d237dd733b2eac6d90f5bef8dc4333bae2b7c6b4265190ec9e7e75dc43963c1adc39d37d3520a2639efbb0f6d24d3db4ecb9c8ba285f9ee2907c77de41943e18de3bd17f3722a0619cf9b2f4d04f3fb6eebbcab82a5d9ce0927a71d84792381ed83dd7793124a6679affb4f2d64939b0e8bdccbe2c5b9ae6947873da45903a1cda3fd57b3326a46598fdb6f0d44b3bb2eabfcebc2e5998e496767dd44b9e3412d431db753d28aa6b96f3b8feda4535bce4b1c0b2205796ea98747fd6499c3610d633d9773f2aa86994f1bafcd84737bee6b3c2b0225594e89a7279d04f9a3016d035df71392cae6f92f7bcfade4131b8e0b5c4b6245392ee9c707bd24d983214d237dd733b2eac6d90f5bef8dc4333bae2b7c6b4265190ec9e7e75dc43963c1adc39d37d3520a2639ef0742ebe3b968312da574cb3117a6b8133be6164e59abdbcfea3eccda82791e7d",
        "type": "nulldata"
      }
    },
    {
      "value": 499977.6282,
      "n": 1,
      "scriptPubKey": {
        "asm": "1 7c1130d33f8c4e6ddf1c4a7cf938c91a53c9916f5b77c5697b6dab8d5b69dea5",
        "hex": "51207c1130d33f8c4e6ddf1c4a7cf938c91a53c9916f5b77c5697b6dab8d5b69dea5",
        "reqSigs": 1,
        "type": "witness_v1_scripthash",
        "addresses": [
          "3QJmnh"
        ]
      }
    }
  ],
  "blockhash": "0125d69e6984563ac74cb1b0b8601a67b424e71230e7918fa710584dbb11162a",
  "confirmations": 1,
  "time": 1764180090,
  "blocktime": 1764180090
}