{
  "hex": "010000000001017ec10df074e070dac32dbe84e1a6a706f0e26a8337a0ca52e04f061893298ed30000000000feffffff0200e1f50500000000fdd5046a20d38d8cb4ffc4988b1d123ce73a0578a8fd771835658320950866dbffbdef93a04db004c1e70e6d9655450d0b401d1c9a9285d17f20c9bcc71d1f9528efd8f86f08b1f8e1c72e4db675652d2b603d3cbab2a5f15f00e99ce73d3fb508cff8d84f2891d881a74e2dd615054d4b005d5cdad2c5913f6089fc875d5fd568af98b82f48f1b8a1876e0df635256d6b207d7cfaf2e5b11f40a9dca77d7ff5488fb8980f68d19841678eed16d5c58d8bc09d9c1a120551ffa0493c479d9f15a86f5878ef8831786147aecd36f5e5adabe0bdbc3a322571df80691c67bdbf35884f7858cfa811580127cead569585cdcb80dddc5a524511bfe0097c07dddf55e82f1838afc871382107ee8d76b5a5edeba0fdfc7a7265319fc0295c27fdff75c80f38188fe85118c1e70e6d9655450d0b401d1c9a9285d17f20c9bcc71d1f9528efd8f86f08b1f8e1c72e4db675652d2b603d3cbab2a5f15f00e99ce73d3fb508cff8d84f2891d881a74e2dd615054d4b005d5cdad2c5913f6089fc875d5fd568af98b82f48f1b8a1876e0df635256d6b207d7cfaf2e5b11f40a9dca77d7ff5488fb8980f68d19841678eed16d5c58d8bc09d9c1a120551ffa0493c479d9f15a86f5878ef8831786147aecd36f5e5adabe0bdbc3a322571df80691c67bdbf35884f7858cfa811580127cead569585cdcb80dddc5a524511bfe0097c07dddf55e82f1838afc871382107ee8d76b5a5edeba0fdfc7a7265319fc0295c27fdff75c80f38188fe85118c1e70e6d9655450d0b401d1c9a9285d17f20c9bcc71d1f9528efd8f86f08b1f8e1c72e4db675652d2b603d3cbab2a5f15f00e99ce73d3fb508cff8d84f2891d881a74e2dd615054d4b005d5cdad2c5913f6089fc875d5fd568af98b82f48f1b8a1876e0df635256d6b207d7cfaf2e5b11f40a9dca77d7ff5488fb8980f68d19841678eed16d5c58d8bc09d9c1a120551ffa0493c479d9f15a86f5878ef8831786147aecd36f5e5adabe0bdbc3a322571df80691c67bdbf35884f7858cfa811580127cead569585cdcb80dddc5a524511bfe0097c07dddf55e82f1838afc871382107ee8d76b5a5edeba0fdfc7a7265319fc0295c27fdff75c80f38188fe85118c1e70e6d9655450d0b401d1c9a9285d17f20c9bcc71d1f9528efd8f86f08b1f8e1c72e4db675652d2b603d3cbab2a5f15f00e99ce73d3fb508cff8d84f2891d881a74e2dd615054d4b005d5cdad2c5913f6089fc875d5fd568af98b82f48f1b8a1876e0df635256d6b207d7cfaf2e5b11f40a9dca77d7ff5488fb8980f68d19841678eed16d5c58d8bc09d9c1a120551ffa0493c479d9f15a86f5878ef8831786147aecd36f5e5adabe0bdbc3a322571df80691c67bdbf35884f7858cfa811580127cead569585cdcb80dddc5a524511bfe0097c07dddf55e82f1838afc871382107ee8d76b5a5edeba0fdfc7a7265319fc0295c27fdff75c80f38188fe85118c1e70e6d9655450d0b401d1c9a9285d17f20c9bcc71d1f9528efd8f86f08b1f8e1c72e4db675652d2b603d3cbab2a5f15f00e99ce73d3fb508cff8d84f2891d881a74e2dd615054d4b005d5cdad2c5913f6089fc875d5fd568af98b82f48f1b8a1876e0df635256d6b207d7cfaf2e5b11f40a9dca77d7ff5488fb8980f68d19841678eed16d5c58d8bc09d9c1a120551790acefef8be56350ff282208dcd38be0d9cec7e419e9d5c317ae79d853d78ab3079f9a7782d000022512052bb7d7e288fa09ddd7e250bba40a60d2b1658c8efd40d835114719fda1ed67902fd75092b3bff36389724eaaa0465ff7a8048cad5f2b02d9dc53f0dbcaf6f08a6ed5901a5e8821c814215870f5a88744d23bc8e7a81f147aabfa10d39656fca5229fe20fa6386944b88e4c221eaa8559d03d0cbbfa5b413cba6478e11587f5e6edd2a0f23b3cc6e525b56d63accf94eeb4ab73d09426fec92420abe2ab38194ff668eb2ec74767f612c2c700b99fda5495e24cb2bb6d11110b2de98be96cb943c7329ac04a7bd99b68570221e7f941092ddccdb1c31ece2a48932fe763e9eec2de8a068b90c9b1089525223879ddbde4c5367761114e07d6f01d50bad4c30987c5ea19dd21aa8d239c92e3ff044f5d40e6f4ab202bec38db1d56386ce47e04724b967aebab70ce007522106479167b9ad3b5947b13a608cba4a2c7779cce116cf819bd68a8ead257e322e2486972d4fc41de67362f374f3925b248b9326dbe5e49b846bf8bbed55fefa9ee994fabcef4f282117aeb3f23bf1743710558b06255420b25d47b4f1d3e1d860b7152cb3832e93a5e69c62d83379f86bb3bc1387623ab999db28a6aaa62ef0893f968663a468b4871db37879ecb790574a09982f683b83f5c9fe6910c78dc6f297c0c6a67a7e2f9f26f1a82fd86b850cb248cd6e0397949b1b5710e773579cedd401bc4345369cf67c0b4a5e69d7f8ce6cebfe99154e0b23b1872504c5cbf43b6e78394427243a575867fa3255fac673bed4c589e802bdcf1144635cd9736e08b34b7846faaf30eb5611bed0f8c8ccc9cfb167aaa2fbbd88e0d38fcb0868987fca5dd4698884761053bd8e41c504b79b77b90b1337bdc511fc061017bd63b5be3ea4f5260c34c770e8bd184cb297aefd896b29bc04854376491aabc3c4943bc46bb6609c08a41c7498477d0ffbae4cb73b8e500296832ac4d354b1eb454a36920954e1439be767b4b7f95e4b31f5921abf6a4a097605501fc36ebff1d448696e105b4273b9d47f4fef417a8ccd8c001e8501f4ce1b8a13f975134b681f088c46232b172027a43d3dbdc1952039680409288cfde2ff819a6b63bafba95c373331d6f17a92905000fc00f42b38906295db9a3b166d0ecd9dea6716da08b226b12a83546a5b108915461cf5fad8992b3f4a073e19a443fd5b55846797364f483b3fa1a515c32c5c6edae1190999aa9faa33f06f42f6ae01bdc7e06db319360215f66f614dbdc4afb56b841e7160497b175d9cac4c56b0356a8ea25eac41565ff7aca20a329fb98f27128c366c820542fe10a5092165cc43c34147c98b06339ad5a72e1e684af6ab80b4e8947f4fd0941b00c1a349b39ed2f43ade0eb059ef96807d66b4c09be3f391682db9db319ce0c4aeb141c39ae57d860db85834a8fdc6fd0bb3b6cbcb8521fb08a1f977b96fb474bd783784ae9d5347a944d9b8982295f2b4ba5bc164220f75f4cc23daba65c832783773d7af245b64a87e72846f9c6d7d364b58d6440a5df626725e8de4940866597aceaaf3b94dabf2f3a54df25e58a844cf8428d13c0564cb8fa52cf9c5a7d2a3d4d11ee155afde925dd48193931f731608c6eebea69c4c9e690da6bc62918ca31b3268bed1f15a6a7a801830faa4508432fcfaf9a3f90fec9a78f77c249bb059f20dfc100e78a2bbb18d2a7287a998742d41bc10bf016c89b85c5d3e7ef7deac57c91d00a250a8d93d0da0684f3d7a59895b0e8688446fc5f08d8444739ea98fa2ce92ca7f48ca4e503d58e6217ba156f799b6c58bab360d2cf7dc5728b52da99d972061403e7025a2193c4da4b6a4322f16f4fa3ad97a8ff80364d5ee6634e9ae7bb29ae3d0008147a8113b25646a1cce4c63bd77eab0cd1821b0c2d5eda6633c4b843d79dd5dc2577fa24af0f1df89b50dc03f871b46881e6d0236e85a4bba1cb17b9b768409f163cce061aa1d65a537a228104a747ad753acbe7ca209f2fb3709f25cd3a1490b5294f7610448caec342659182186fc9cf92e102662679ba92e0b0a4ef1c6df64b3dc0b90517602887908c3e9ae2b0890c88d30841dc1e207593024fff7161fddb717312af4bcef4a12cdc0832de8c47b9a22eae68d2700995b6689eb11d1d8f711754a03a7e60c460c46bc899b675b7fcf418a23d7067a24f96a923bf09be4cee6e8ffe31f58700ceef0cf6db036b0233aba77670060acc34f6240fe3d37a6fec4b0fd94dbbac35cb712f9143e0154a10f1b8fdb4df80d84c80324f3c41c2bcd981e0cb976c2cfdca368c94d2c9cd1857c3e70df01c716bf702cc285d1bd3287c9da5326187f6ea53694b6fec63d5e7845ef10d3d3625b4ca6ded70abf34b536a6f92bb8839a1c801ea40ec2ac442799d3996c6108f598350e82d407b08f8c38eb411ee0a358d0c588c8f74960f8113e4a84eda5ab6b7009f2b6db63f5ff8e5c0423ad87a47c6554d810fc063ad19f5007d0eadca428b2250a3bfba984e49741132804503f79d2c380f343319be3e7c62dab530f4903c9f4339599b9e7c949ef9877a538e011f26c4dece6c25c848efc16328127926ac7d0d06e061800844e613e71b53ae58fbdaff601ebb64b37be132a1a1f49a3cf69109488168e2d03cc015b68859340f2c83636dcdcb0620d9ae51888d02e67042ef911058dfc6862feb56932b9ec7b96b719548bc144d8feb097d751e28212ae62e27b914dfd75744df1177d407d3d0119ad274b1346e43d6f61e5ca71d66f688f3f7de1cb2fce25f9ec5d0c6b9f4af87fd60d872b6bae4652663f09d52eaa95360138077101ad17c613b2689b74546aec41b988eaaea253fbcf685a1e3fb4779df9706186485dcbfdb3191dc427a7f5b74bb5d8bddf3dad015b81a830a2ea8be0cb89ab046221844fb0c360e69e7001789af899394256fae64530470bfd676e17da18d433a397cd62d5ece1a3f5d3dab5eb011c7f9787ea9c3a67a149c03efecdbe6039f405d3f684698a04b083af335dc7cb46df1d00af2d240c6c02da7bfd27c8575b0c3fd7d956f622664ed22e11326fdae82102f2432aae73ad16edea5f19f5c3bb9bcb8b5264a34f0809a89b18557f587780e0df4b78691945f6f038a579131801df130c16bd8c9fcdf097c571ee3b922af4f72893dd98304ead7d879a200467e2e7fd8f85d80e5e93e69f196ef81467f3c98b7664630457c2bcbbb3930281a34dc2cbdda31a99873fcea02a3dc3c9549406de75365c65a9dba34d9bcad9e628edaf482bee60159fd10e1e96acd1e04e0c5a4c8e5679a93c1c1a19028f601e682febc46849bf51aec6b789006d698c3d90775d5aa8bae3b75ed6467e66ec24d41c33a7f6e129d814061b363d4a5154606d838592a1acbcbdd1ddeefbfc131f20212e364f969bacc7d5ee3b4c5a666ca8b0bddbdfe805191e355152548eafc6d7e1e9eb00000000000000000000000000000000000000000015222d3b01fd2105000f4ab9d191893e5c3719f2c8688004e12127e2d534fd9fb8f2ccaa8b89241c1cd5cca0d2b388eeefa589bb02ab6f91728ec9b3e9e33ab4ce167e8c4d283ec20ed0a5767dfb596f9430be02f09a05ee30ba364ba20eb1da0f0646306927f2f8e8b0d3e1de86eceeb0c260cfb2f9928f3c3bc7aba8e14e8991bbc600660ac239fc3d086233987bcd0056b96d28262d7b10de27cf8f01fea7d2fec8db005ea3f3a5ac4b9dc63c6934fd4c82d853bf15c451bf8bc4795a39bec0a457d7055738cee12ed5bc37b16c3e5abcdfd9ae7d342b24174eb925b6e8599022f302e72cafd2dde14b1718812dd1bdc85e42871da79389ff1a1b6fa73232b9137c0f7f6887360bb5d71ef70d5547f55cb1cdfd54ef093c2e500c79fb02ae4d85276bbddd4c5f9f1f73b8ee13541ab9201950d36350c8f31aaf0def6c921a99a2360bafb71b9f38831b594f7c793c7afca2e4eb6ac48b2cfc8e76e153f48851ae87f727bb7ea65c6581f1b14c7f7a4375ceb11f74b663fb7e566c39b019294ae61c486372d325a3493f508c5d7f49ebcb9a8f222caee429ea8a3a94608013a667fc554e851783adb87b4bc47fd847f081eaf0c4b7d4f6e10cd549aa83761850cbb2037537d46da4238b358b3316aa403a764103787a65583a25c8554a73de1e08c12a7cc76fb5e4cc741ac1057d267b1e1a62502ea1080ff72db7c4c64806131738a3158f50a236a25fd9704b18e35303dd62f604ccd0a622d5584bb9a316e531765884bdd19fef4c8795632a7aacaad593c9312c25e8115681e74f79688fd12f008502714b0fda19c6420a5b1cebe33dd5add80d857651fc851201d4a8db7b7fb00c2bf533e43b666171632d757a81947f7843eee2670ab931b6e052288ed2f104088bef46b33ff8ecc87ef36ac8ca7e22d52baab88211b5c59694163f5d14729a27cff3149e7c7ba9edc60c59cf9994d57be2ab68c113e7a748dd5639d2c98b4cbad4f54a8d0ae6dcbaaaa3fd89ba509bca2eb41fa1103fbcf4d67e0aefb93230b1ef54c28858439229f0a0acfd1144d964fb882f0360bace91163a11ffe1ecc0e05123fd87da908abe5e0751caab10706394601c47d82533ccba814c5ed092cf58ff5857e76c8f5fe596c4480d3d623d4dcb40dfaf316f22d8d59a712c1c172baa4ccd5c46af8e36906397b67bf635c6b345fa2585ed05f488ef9262e88c07e1f66b1b2dd8270c592bcfa805d068b93a7bdca0641e5fdabf5471bb88905169a8baa927fb660876fc440bc425eb9e92fad1c3285923b6c99b406f690f8de7ecc0bcd3e499da41dc6a874f21c857db871a78a2ab5a7149b361ed40e08dfa069421a7b4d79b52b10ad9a87c73b01c5d980207dede21f7d1a72cb77a431d3a28d8f14e50f073304bd49b095d91becaa477e782d3d76d0c814b55b5a1f9ca54bc1085fcf7988ecd35402c9e0126e19342f3ad83553246a777d81a6e6952228dfc8474d83866393d30533f4ed2700833bd19c2eb8c516e877cfb56c8d8c9af7b6a7841f14f4b1a623da7679ffad8bbf0a1f203ba986692c2c54818947a5fb8a0ab06fd19784291f20545e767eeae9beef4aedba6256fc86f21c7dc64c1bd711d42942bfc161f7cb71c65391daa708a4184b0a9b0e667bb6f81b8908cc3dad06b3da0a44d9a6f9333ede2474d0c77ae8cfee419000934eff749293c5295ae8eccff0b4b7e0bda512cf8ade09ae83e904be7a4bcb50c97f284596059bd74176a68f5f99755fbd7ce6c864f5e657870f8b0d9adf0037ad2f61d1423e0c19bfeb67d43aaf3a03f723a564c6f94a8f216a16085c87ee5f77b0986bfb69d6cb569cd0f5fbbade874350111b487000000",
  "txid": "ab6823786bbd4e5dccac39c7f7e99886b9e4d25818310054e7ed885955d1acfe",
  "hash": "52194d28f555a3709bf69d8314c9417f90d9f0efc0ba890cdc4ce28dfff6faf5",
  "size": 5085,
  "vsize": 2278,
  "version": 1,
  "locktime": 135,
  "vin": [
    {
      "txid": "d38e299318064fe052caa037836ae2f006a7a6e184be2dc3da70e074f00dc17e",
      "vout": 0,
      "scriptSig": {
        "asm": "",
        "hex": ""
      },
      "txinwitness": [
        "2b3bff36389724eaaa0465ff7a8048cad5f2b02d9dc53f0dbcaf6f08a6ed5901a5e8821c814215870f5a88744d23bc8e7a81f147aabfa10d39656fca5229fe20fa6386944b88e4c221eaa8559d03d0cbbfa5b413cba6478e11587f5e6edd2a0f23b3cc6e525b56d63accf94eeb4ab73d09426fec92420abe2ab38194ff668eb2ec74767f612c2c700b99fda5495e24cb2bb6d11110b2de98be96cb943c7329ac04a7bd99b68570221e7f941092ddccdb1c31ece2a48932fe763e9eec2de8a068b90c9b1089525223879ddbde4c5367761114e07d6f01d50bad4c30987c5ea19dd21aa8d239c92e3ff044f5d40e6f4ab202bec38db1d56386ce47e04724b967aebab70ce007522106479167b9ad3b5947b13a608cba4a2c7779cce116cf819bd68a8ead257e322e2486972d4fc41de67362f374f3925b248b9326dbe5e49b846bf8bbed55fefa9ee994fabcef4f282117aeb3f23bf1743710558b06255420b25d47b4f1d3e1d860b7152cb3832e93a5e69c62d83379f86bb3bc1387623ab999db28a6aaa62ef0893f968663a468b4871db37879ecb790574a09982f683b83f5c9fe6910c78dc6f297c0c6a67a7e2f9f26f1a82fd86b850cb248cd6e0397949b1b5710e773579cedd401bc4345369cf67c0b4a5e69d7f8ce6cebfe99154e0b23b1872504c5cbf43b6e78394427243a575867fa3255fac673bed4c589e802bdcf1144635cd9736e08b34b7846faaf30eb5611bed0f8c8ccc9cfb167aaa2fbbd88e0d38fcb0868987fca5dd4698884761053bd8e41c504b79b77b90b1337bdc511fc061017bd63b5be3ea4f5260c34c770e8bd184cb297aefd896b29bc04854376491aabc3c4943bc46bb6609c08a41c7498477d0ffbae4cb73b8e500296832ac4d354b1eb454a36920954e1439be767b4b7f95e4b31f5921abf6a4a097605501fc36ebff1d448696e105b4273b9d47f4fef417a8ccd8c001e8501f4ce1b8a13f975134b681f088c46232b172027a43d3dbdc1952039680409288cfde2ff819a6b63bafba95c373331d6f17a92905000fc00f42b38906295db9a3b166d0ecd9dea6716da08b226b12a83546a5b108915461cf5fad8992b3f4a073e19a443fd5b55846797364f483b3fa1a515c32c5c6edae1190999aa9faa33f06f42f6ae01bdc7e06db319360215f66f614dbdc4afb56b841e7160497b175d9cac4c56b0356a8ea25eac41565ff7aca20a329fb98f27128c366c820542fe10a5092165cc43c34147c98b06339ad5a72e1e684af6ab80b4e8947f4fd0941b00c1a349b39ed2f43ade0eb059ef96807d66b4c09be3f391682db9db319ce0c4aeb141c39ae57d860db85834a8fdc6fd0bb3b6cbcb8521fb08a1f977b96fb474bd783784ae9d5347a944d9b8982295f2b4ba5bc164220f75f4cc23daba65c832783773d7af245b64a87e72846f9c6d7d364b58d6440a5df626725e8de4940866597aceaaf3b94dabf2f3a54df25e58a844cf8428d13c0564cb8fa52cf9c5a7d2a3d4d11ee155afde925dd48193931f731608c6eebea69c4c9e690da6bc62918ca31b3268bed1f15a6a7a801830faa4508432fcfaf9a3f90fec9a78f77c249bb059f20dfc100e78a2bbb18d2a7287a998742d41bc10bf016c89b85c5d3e7ef7deac57c91d00a250a8d93d0da0684f3d7a59895b0e8688446fc5f08d8444739ea98fa2ce92ca7f48ca4e503d58e6217ba156f799b6c58bab360d2cf7dc5728b52da99d972061403e7025a2193c4da4b6a4322f16f4fa3ad97a8ff80364d5ee6634e9ae7bb29ae3d0008147a8113b25646a1cce4c63bd77eab0cd1821b0c2d5eda6633c4b843d79dd5dc2577fa24af0f1df89b50dc03f871b46881e6d0236e85a4bba1cb17b9b768409f163cce061aa1d65a537a228104a747ad753acbe7ca209f2fb3709f25cd3a1490b5294f7610448caec342659182186fc9cf92e102662679ba92e0b0a4ef1c6df64b3dc0b90517602887908c3e9ae2b0890c88d30841dc1e207593024fff7161fddb717312af4bcef4a12cdc0832de8c47b9a22eae68d2700995b6689eb11d1d8f711754a03a7e60c460c46bc899b675b7fcf418a23d7067a24f96a923bf09be4cee6e8ffe31f58700ceef0cf6db036b0233aba77670060acc34f6240fe3d37a6fec4b0fd94dbbac35cb712f9143e0154a10f1b8fdb4df80d84c80324f3c41c2bcd981e0cb976c2cfdca368c94d2c9cd1857c3e70df01c716bf702cc285d1bd3287c9da5326187f6ea53694b6fec63d5e7845ef10d3d3625b4ca6ded70abf34b536a6f92bb8839a1c801ea40ec2ac442799d3996c6108f598350e82d407b08f8c38eb411ee0a358d0c588c8f74960f8113e4a84eda5ab6b7009f2b6db63f5ff8e5c0423ad87a47c6554d810fc063ad19f5007d0eadca428b2250a3bfba984e49741132804503f79d2c380f343319be3e7c62dab530f4903c9f4339599b9e7c949ef9877a538e011f26c4dece6c25c848efc16328127926ac7d0d06e061800844e613e71b53ae58fbdaff601ebb64b37be132a1a1f49a3cf69109488168e2d03cc015b68859340f2c83636dcdcb0620d9ae51888d02e67042ef911058dfc6862feb56932b9ec7b96b719548bc144d8feb097d751e28212ae62e27b914dfd75744df1177d407d3d0119ad274b1346e43d6f61e5ca71d66f688f3f7de1cb2fce25f9ec5d0c6b9f4af87fd60d872b6bae4652663f09d52eaa95360138077101ad17c613b2689b74546aec41b988eaaea253fbcf685a1e3fb4779df9706186485dcbfdb3191dc427a7f5b74bb5d8bddf3dad015b81a830a2ea8be0cb89ab046221844fb0c360e69e7001789af899394256fae64530470bfd676e17da18d433a397cd62d5ece1a3f5d3dab5eb011c7f9787ea9c3a67a149c03efecdbe6039f405d3f684698a04b083af335dc7cb46df1d00af2d240c6c02da7bfd27c8575b0c3fd7d956f622664ed22e11326fdae82102f2432aae73ad16edea5f19f5c3bb9bcb8b5264a34f0809a89b18557f587780e0df4b78691945f6f038a579131801df130c16bd8c9fcdf097c571ee3b922af4f72893dd98304ead7d879a200467e2e7fd8f85d80e5e93e69f196ef81467f3c98b7664630457c2bcbbb3930281a34dc2cbdda31a99873fcea02a3dc3c9549406de75365c65a9dba34d9bcad9e628edaf482bee60159fd10e1e96acd1e04e0c5a4c8e5679a93c1c1a19028f601e682febc46849bf51aec6b789006d698c3d90775d5aa8bae3b75ed6467e66ec24d41c33a7f6e129d814061b363d4a5154606d838592a1acbcbdd1ddeefbfc131f20212e364f969bacc7d5ee3b4c5a666ca8b0bddbdfe805191e355152548eafc6d7e1e9eb00000000000000000000000000000000000000000015222d3b01",
        "000f4ab9d191893e5c3719f2c8688004e12127e2d534fd9fb8f2ccaa8b89241c1cd5cca0d2b388eeefa589bb02ab6f91728ec9b3e9e33ab4ce167e8c4d283ec20ed0a5767dfb596f9430be02f09a05ee30ba364ba20eb1da0f0646306927f2f8e8b0d3e1de86eceeb0c260cfb2f9928f3c3bc7aba8e14e8991bbc600660ac239fc3d086233987bcd0056b96d28262d7b10de27cf8f01fea7d2fec8db005ea3f3a5ac4b9dc63c6934fd4c82d853bf15c451bf8bc4795a39bec0a457d7055738cee12ed5bc37b16c3e5abcdfd9ae7d342b24174eb925b6e8599022f302e72cafd2dde14b1718812dd1bdc85e42871da79389ff1a1b6fa73232b9137c0f7f6887360bb5d71ef70d5547f55cb1cdfd54ef093c2e500c79fb02ae4d85276bbddd4c5f9f1f73b8ee13541ab9201950d36350c8f31aaf0def6c921a99a2360bafb71b9f38831b594f7c793c7afca2e4eb6ac48b2cfc8e76e153f48851ae87f727bb7ea65c6581f1b14c7f7a4375ceb11f74b663fb7e566c39b019294ae61c486372d325a3493f508c5d7f49ebcb9a8f222caee429ea8a3a94608013a667fc554e851783adb87b4bc47fd847f081eaf0c4b7d4f6e10cd549aa83761850cbb2037537d46da4238b358b3316aa403a764103787a65583a25c8554a73de1e08c12a7cc76fb5e4cc741ac1057d267b1e1a62502ea1080ff72db7c4c64806131738a3158f50a236a25fd9704b18e35303dd62f604ccd0a622d5584bb9a316e531765884bdd19fef4c8795632a7aacaad593c9312c25e8115681e74f79688fd12f008502714b0fda19c6420a5b1cebe33dd5add80d857651fc851201d4a8db7b7fb00c2bf533e43b666171632d757a81947f7843eee2670ab931b6e052288ed2f104088bef46b33ff8ecc87ef36ac8ca7e22d52baab88211b5c59694163f5d14729a27cff3149e7c7ba9edc60c59cf9994d57be2ab68c113e7a748dd5639d2c98b4cbad4f54a8d0ae6dcbaaaa3fd89ba509bca2eb41fa1103fbcf4d67e0aefb93230b1ef54c28858439229f0a0acfd1144d964fb882f0360bace91163a11ffe1ecc0e05123fd87da908abe5e0751caab10706394601c47d82533ccba814c5ed092cf58ff5857e76c8f5fe596c4480d3d623d4dcb40dfaf316f22d8d59a712c1c172baa4ccd5c46af8e36906397b67bf635c6b345fa2585ed05f488ef9262e88c07e1f66b1b2dd8270c592bcfa805d068b93a7bdca0641e5fdabf5471bb88905169a8baa927fb660876fc440bc425eb9e92fad1c3285923b6c99b406f690f8de7ecc0bcd3e499da41dc6a874f21c857db871a78a2ab5a7149b361ed40e08dfa069421a7b4d79b52b10ad9a87c73b01c5d980207dede21f7d1a72cb77a431d3a28d8f14e50f073304bd49b095d91becaa477e782d3d76d0c814b55b5a1f9ca54bc1085fcf7988ecd35402c9e0126e19342f3ad83553246a777d81a6e6952228dfc8474d83866393d30533f4ed2700833bd19c2eb8c516e877cfb56c8d8c9af7b6a7841f14f4b1a623da7679ffad8bbf0a1f203ba986692c2c54818947a5fb8a0ab06fd19784291f20545e767eeae9beef4aedba6256fc86f21c7dc64c1bd711d42942bfc161f7cb71c65391daa708a4184b0a9b0e667bb6f81b8908cc3dad06b3da0a44d9a6f9333ede2474d0c77ae8cfee419000934eff749293c5295ae8eccff0b4b7e0bda512cf8ade09ae83e904be7a4bcb50c97f284596059bd74176a68f5f99755fbd7ce6c864f5e657870f8b0d9adf0037ad2f61d1423e0c19bfeb67d43aaf3a03f723a564c6f94a8f216a16085c87ee5f77b0986bfb69d6cb569cd0f5fbbade874350111b4"
      ],
      "sequence": 4294967294
    }
  ],
  "vout": [
    {
      "value": 1.0,
      "n": 0,
      "scriptPubKey": {
        "asm": "OP_RETURN d38d8cb4ffc4988b1d123ce73a0578a8fd771835658320950866dbffbdef93a0 c1e70e6d9655450d0b401d1c9a9285d17f20c9bcc71d1f9528efd8f86f08b1f8e1c72e4db675652d2b603d3cbab2a5f15f00e99ce73d3fb508cff8d84f2891d881a74e2dd615054d4b005d5cdad2c5913f6089fc875d5fd568af98b82f48f1b8a1876e0df635256d6b207d7cfaf2e5b11f40a9dca77d7ff5488fb8980f68d19841678eed16d5c58d8bc09d9c1a120551ffa0493c479d9f15a86f5878ef8831786147aecd36f5e5adabe0bdbc3a322571df80691c67bdbf35884f7858cfa811580127cead569585cdcb80dddc5a524511bfe0097c07dddf55e82f1838afc871382107ee8d76b5a5edeba0fdfc7a7265319fc0295c27fdff75c80f38188fe85118c1e70e6d9655450d0b401d1c9a9285d17f20c9bcc71d1f9528efd8f86f08b1f8e1c72e4db675652d2b603d3cbab2a5f15f00e99ce73d3fb508cff8d84f2891d881a74e2dd615054d4b005d5cdad2c5913f6089fc875d5fd568af98b82f48f1b8a1876e0df635256d6b207d7cfaf2e5b11f40a9dca77d7ff5488fb8980f68d19841678eed16d5c58d8bc09d9c1a120551ffa0493c479d9f15a86f5878ef8831786147aecd36f5e5adabe0bdbc3a322571df80691c67bdbf35884f7858cfa811580127cead569585cdcb80dddc5a524511bfe0097c07dddf55e82f1838afc871382107ee8d76b5a5edeba0fdfc7a7265319fc0295c27fdff75c80f38188fe85118c1e70e6d9655450d0b401d1c9a9285d17f20c9bcc71d1f9528efd8f86f08b1f8e1c72e4db675652d2b603d3cbab2a5f15f00e99ce73d3fb508cff8d84f2891d881a74e2dd615054d4b005d5cdad2c5913f6089fc875d5fd568af98b82f48f1b8a1876e0df635256d6b207d7cfaf2e5b11f40a9dca77d7ff5488fb8980f68d19841678eed16d5c58d8bc09d9c1a120551ffa0493c479d9f15a86f5878ef8831786147aecd36f5e5adabe0bdbc3a322571df80691c67bdbf35884f7858cfa811580127cead569585cdcb80dddc5a524511bfe0097c07dddf55e82f1838afc871382107ee8d76b5a5edeba0fdfc7a7265319fc0295c27fdff75c80f38188fe85118c1e70e6d9655450d0b401d1c9a9285d17f20c9bcc71d1f9528efd8f86f08b1f8e1c72e4db675652d2b603d3cbab2a5f15f00e99ce73d3fb508cff8d84f2891d881a74e2dd615054d4b005d5cdad2c5913f6089fc875d5fd568af98b82f48f1b8a1876e0df635256d6b207d7cfaf2e5b11f40a9dca77d7ff5488fb8980f68d19841678eed16d5c58d8bc09d9c1a120551ffa0493c479d9f15a86f5878ef8831786147aecd36f5e5adabe0bdbc3a322571df80691c67bdbf35884f7858cfa811580127cead569585cdcb80dddc5a524511bfe0097c07dddf55e82f1838afc871382107ee8d76b5a5edeba0fdfc7a7265319fc0295c27fdff75c80f38188fe85118c1e70e6d9655450d0b401d1c9a9285d17f20c9bcc71d1f9528efd8f86f08b1f8e1c72e4db675652d2b603d3cbab2a5f15f00e99ce73d3fb508cff8d84f2891d881a74e2dd615054d4b005d5cdad2c5913f6089fc875d5fd568af98b82f48f1b8a1876e0df635256d6b207d7cfaf2e5b11f40a9dca77d7ff5488fb8980f68d19841678eed16d5c58d8bc09d9c1a120551790acefef8be56350ff282208dcd38be0d9cec7e419e9d5c317ae79d853d78ab",
        "hex": "6a20d38d8cb4ffc4988b1d123ce73a0578a8fd771835658320950866dbffbdef93a04db004c1e70e6d9655450d0b401d1c9a9285d17f20c9bcc71d1f9528efd8f86f08b1f8e1c72e4db675652d2b603d3cbab2a5f15f00e99ce73d3fb508cff8d84f2891d881a74e2dd615054d4b005d5cdad2c5913f6089fc875d5fd568af98b82f48f1b8a1876e0df635256d6b207d7cfaf2e5b11f40a9dca77d7ff5488fb8980f68d19841678eed16d5c58d8bc09d9c1a120551ffa0493c479d9f15a86f5878ef8831786147aecd36f5e5adabe0bdbc3a322571df80691c67bdbf35884f7858cfa811580127cead569585cdcb80dddc5a524511bfe0097c07dddf55e82f1838afc871382107ee8d76b5a5edeba0fdfc7a7265319fc0295c27fdff75c80f38188fe85118c1e70e6d9655450d0b401d1c9a9285d17f20c9bcc71d1f9528efd8f86f08b1f8e1c72e4db675652d2b603d3cbab2a5f15f00e99ce73d3fb508cff8d84f2891d881a74e2dd615054d4b005d5cdad2c5913f6089fc875d5fd568af98b82f48f1b8a1876e0df635256d6b207d7cfaf2e5b11f40a9dca77d7ff5488fb8980f68d19841678eed16d5c58d8bc09d9c1a120551ffa0493c479d9f15a86f5878ef8831786147aecd36f5e5adabe0bdbc3a322571df80691c67bdbf35884f7858cfa811580127cead569585cdcb80dddc5a524511bfe0097c07dddf55e82f1838afc871382107ee8d76b5a5edeba0fdfc7a7265319fc0295c27fdff75c80f38188fe85118c1e70e6d9655450d0b401d1c9a9285d17f20c9bcc71d1f9528efd8f86f08b1f8e1c72e4db675652d2b603d3cbab2a5f15f00e99ce73d3fb508cff8d84f2891d881a74e2dd615054d4b005d5cdad2c5913f6089fc875d5fd568af98b82f48f1b8a1876e0df635256d6b207d7cfaf2e5b11f40a9dca77d7ff5488fb8980f68d19841678eed16d5c58d8bc09d9c1a120551ffa0493c479d9f15a86f5878ef8831786147aecd36f5e5adabe0bdbc3a322571df80691c67bdbf35884f7858cfa811580127cead569585cdcb80dddc5a524511bfe0097c07dddf55e82f1838afc871382107ee8d76b5a5edeba0fdfc7a7265319fc0295c27fdff75c80f38188fe85118c1e70e6d9655450d0b401d1c9a9285d17f20c9bcc71d1f9528efd8f86f08b1f8e1c72e4db675652d2b603d3cbab2a5f15f00e99ce73d3fb508cff8d84f2891d881a74e2dd615054d4b005d5cdad2c5913f6089fc875d5fd568af98b82f48f1b8a1876e0df635256d6b207d7cfaf2e5b11f40a9dca77d7ff5488fb8980f68d19841678eed16d5c58d8bc09d9c1a120551ffa0493c479d9f15a86f5878ef8831786147aecd36f5e5adabe0bdbc3a322571df80691c67bdbf35884f7858cfa811580127cead569585cdcb80dddc5a524511bfe0097c07dddf55e82f1838afc871382107ee8d76b5a5edeba0fdfc7a7265319fc0295c27fdff75c80f38188fe85118c1e70e6d9655450d0b401d1c9a9285d17f20c9bcc71d1f9528efd8f86f08b1f8e1c72e4db675652d2b603d3cbab2a5f15f00e99ce73d3fb508cff8d84f2891d881a74e2dd615054d4b005d5cdad2c5913f6089fc875d5fd568af98b82f48f1b8a1876e0df635256d6b207d7cfaf2e5b11f40a9dca77d7ff5488fb8980f68d19841678eed16d5c58d8bc09d9c1a120551790acefef8be56350ff282208dcd38be0d9cec7e419e9d5c317ae79d853d78ab",
        "type": "nulldata"
      }
    },
    {
      "value": 499962.3747,
      "n": 1,
      "scriptPubKey": {
        "asm": "1 52bb7d7e288fa09ddd7e250bba40a60d2b1658c8efd40d835114719fda1ed679",
        "hex": "512052bb7d7e288fa09ddd7e250bba40a60d2b1658c8efd40d835114719fda1ed679",
        "reqSigs": 1,
        "type": "witness_v1_scripthash",
        "addresses": [
          "3QJmnh"
        ]
      }
    }
  ],
  "blockhash": "04b08afa406522d4605e5542ad480440adf33b25b306f33fff8225e2cbbf4733",
  "confirmations": 1,
  "time": 1764183055,
  "blocktime": 1764183055
}