{
  "hex": "01000000000101c021290a5134ebcc79149d2ee18f8c3f13e63836c0feb4e4871269706c21872d0000000000feffffff02407886de782d0000225120e4e4896bca69f4c42e9a02338274268cb93f38c24cf42a17b72c255e1c10f21d00e1f50500000000fdd5046a20fd2d6662da245ec4be137a8a64363db6080aabff166e4c5b4c5da89332f361674db004157859d0c29cd3a066483211a74371a3b5527e382981121ef94435ddcb6135c7355879f0e2bcf380466812318763518395725e1809a1323ed96415fdeb4115e75538199082dc93e026087251e70331e3f5123e7869c1525eb904759d8b217587751839b0a2fcb3c006285271c72311c3d5321e5849e1727e992455bdab0155a795f8d950421c5320e6c8b29127c3f12335d2feb8a901929e79c4b55d4be1b547b5d8f970623c7300c6e892b107e3d10315f2de988921b2be59e4957d6bc19567d5b89910025c1360a688f2d16783b1637592bef8e941d2de3984f51d0ba1f507f598b930227c334086a8d2f147a3914355b29ed8c961f2fe19a4d53d2b81d527157859d0c29cd3a066483211a74371a3b5527e382981121ef94435ddcb6135c7355879f0e2bcf380466812318763518395725e1809a1323ed96415fdeb4115e75538199082dc93e026087251e70331e3f5123e7869c1525eb904759d8b217587751839b0a2fcb3c006285271c72311c3d5321e5849e1727e992455bdab0155a795f8d950421c5320e6c8b29127c3f12335d2feb8a901929e79c4b55d4be1b547b5d8f970623c7300c6e892b107e3d10315f2de988921b2be59e4957d6bc19567d5b89910025c1360a688f2d16783b1637592bef8e941d2de3984f51d0ba1f507f598b930227c334086a8d2f147a3914355b29ed8c961f2fe19a4d53d2b81d527157859d0c29cd3a066483211a74371a3b5527e382981121ef94435ddcb6135c7355879f0e2bcf380466812318763518395725e1809a1323ed96415fdeb4115e75538199082dc93e026087251e70331e3f5123e7869c1525eb904759d8b217587751839b0a2fcb3c006285271c72311c3d5321e5849e1727e992455bdab0155a795f8d950421c5320e6c8b29127c3f12335d2feb8a901929e79c4b55d4be1b547b5d8f970623c7300c6e892b107e3d10315f2de988921b2be59e4957d6bc19567d5b89910025c1360a688f2d16783b1637592bef8e941d2de3984f51d0ba1f507f598b930227c334086a8d2f147a3914355b29ed8c961f2fe19a4d53d2b81d527157859d0c29cd3a066483211a74371a3b5527e382981121ef94435ddcb6135c7355879f0e2bcf380466812318763518395725e1809a1323ed96415fdeb4115e75538199082dc93e026087251e70331e3f5123e7869c1525eb904759d8b217587751839b0a2fcb3c006285271c72311c3d5321e5849e1727e992455bdab0155a795f8d950421c5320e6c8b29127c3f12335d2feb8a901929e79c4b55d4be1b547b5d8f970623c7300c6e892b107e3d10315f2de988921b2be59e4957d6bc19567d5b89910025c1360a688f2d16783b1637592bef8e941d2de3984f51d0ba1f507f598b930227c334086a8d2f147a3914355b29ed8c961f2fe19a4d53d2b81d527157859d0c29cd3a066483211a74371a3b5527e382981121ef94435ddcb6135c7355879f0e2bcf380466812318763518395725e1809a1323ed96415fdeb4115e75538199082dc93e026087251e70331e3f5123e7869c1525eb904759d8b217587751839b0a2fcb3c006285271c72311c3d5321e5849e1727e992455bdab0155a795f8d950421c5320e6c8b29127c3f123e2b1b49af30134f8807a8c1b9f934d065a2e8063146460ef9c413389228f2ea802fd750984944399d375702c5934f9ae874495754ba018f10ab1d629dfd211af56d821c6340522828aebec45e7c058946b4f0979195f7ae9ae6e4e81399421da5aa6416f81066e76a17394073af3ae754e82f23b1660aac75a45e772a410aa288ac8939b3eac6d5a5212f367186872dfc35c3819cd02bb65421e73e78a7d847778440dbc49dc52513932b3fa3bb57cb48d35215fda4cd14ed979d18f9fec1b78506345684f2350b7f0153549c1887e62aec2bd70c57594601f7f3f91490082b10f0ced4e15a9d71c1ae1d317ff48a25bb4e37f4593504343521fa63c5ee7266f7a0a476756da10efcb8e60e5b9cdeb35a2c0f756e6fc0c309250dfcd0fef4f020cc32dd90e95b5bbff6474fe3cb037907bc8264b2b36bb8bbb2e5e2695a5f368df6c9bcca91885b62ec8cda2fafadd098f72db4ef7fa348ebf575c7cd1338978137c3c3d2aea01276d2e2a11b9a012065dba695e7465ffbcef0e5495ee678f015371297db51bfa28006d3aebce57fcaf5b5d7730493b302c8d68138f99e1f8cd122a74e1a959555750239b174dff41ca5904f330321176ff61a858a1ec5f7e12e6cc1300d731b6ed8d00cc7a0d1efc90e9036a2db2c0e6ce1cf85f3c89578d09eea16dcc8b22c0dbd106a142c68fa3a6b0151d43670a4a8ffbbf3a385cd6e9e2db59f7951003fe5036f9e63ab320a42373556e2305a8f923a8276f33df82947525b9d40e810cb612f14cd4567a222c3e7b2f4c4ec1ad9f4714a5f6cfade2b8c817544e6d9f0a2c238e926df39fd684cb6815aad3f8f1f04ceec007b0f5c25f91ae5cd90d990c06de15d5cf24085c1f00500a2e56b5d6015e056933e9bfcc136dcc64487aff39a29a06af1041bdb3013c949f2a0247988c002d719a3bbc57aa30bd163cecf96131c3617215a2e144e22b6fc18dac239b147672aa277e82611c1e7b0dd43296362fb45d8c5e8b6fd27b165d4241407901731e5467e77f1107e7331e643f8bc8c49c503a11078fbfe6536e804653b6cee8f75aa353b06e8e3df8f2c736cd159932557bb1863e4b63efd004e7a8499ec5e6692c1b0f5ec4aefbe299ed29a48d50ecebeb7a79e4a9f16bb00ef1502a6213687019f84f8218fe2a737f866f0735ff79d2b5f9381c5211856de6b704128a91b36ff2a2b4a0a4e6fd855c70a82f4a3c4954ff9ddf7f7a55db0d1c8985eaebf0aad8cc5d461849975dc6da36d983a046fafb8fdd49f13ae9253c1f30da289d16171db0990e3ab79d547d8ea196a7d0d91b64521ec929d9a8bea8e9c71530730c9be2294185da1620b050088aa97efa56d6f324bc506d44a0d88f0401a7ddd7a3ce660c1eee9bcaf5ffc714fd06c4d42ae0083418dd3b40f5a95ac8d02c7d437f6ef44b77edcfccddb686c3061b0e1d8ae92307ae9ab5f1823f48d683f1c5c1dcdff0d4d07abed229cd49ed550998aa98703fc020ba8e4c2244147f6e25c2b63a6debfebc4f4e90147336745e866504fa0f2a7eb985c2395fb59dab37d7a6563b1baf21eb3bead639b6b36441e6017509936ef24aaa6279cfd2c192819629b4d9a6d2f23f5a5a450ee4971d07b0a33d6df69a9aee8df00b6c8cb8464d8e53206197c94dde1d78bce887b16764da1bdbcecdd8f9feceee65f019655d2c0ece478f2e49eeb5d28a4bb400f2f93752f2eeeac8aaac7a5ac14e9a9d485e981f0a606644e7fa09d3e87f8ff3cfd7e9da0a804a2ddbb5f6bb1c320b335555c4e617234f437f1610a878423fe57bfbee09ccc04a56540940dfd772fb8988daa65291421e054379d6805443a6fbb6d9f674f2f6db5fd3b0e64dfbd11d0f93e9d5355b981fbcf5b1ebcdd36a81bd2649c66badef23e8a8938d1500ce85a0bd4b200cde77d6e58863fe20fce609f3428d1f480a8b2adb5eec67f159b11f54fced2a6e8f6c1f1598c74a76276d0646dbd09969f749f8847cfe33f83e060445fea6ab3c7a240c286a4aedb1b6741761a5db927264d8b63d855ea698c59d0ef1fdd80ea3d383658a1af7185a3be8e656804ebeb90bd888105d24c003416f824edd52dfa4078cab9cf786e68f925e0b3587ead07ae752b5a10da39652c8d8268116618822de28efb98f9cd3f20da64cae8212428cbca9e2fb466987423c529e86825e52a4cf8cac84271772ab5efe3fd64fa780e7ca55e5b1dcc920b38bce643bb3c424f3cc14797f2c5e07777580db9e1039dc1455330672429328691eef8aca1930539f312e65301731bd2345159d587809afeec07241ac80a99a22e05a2196c1509aa1e00f9c2d379fb58a52b1f25567f0fca783ce3606dd2338548a6b166bade781d9eb010aacf088e1fd3e0cb8f66484e4696d5858668b3fdb619a06b3470f90885c93f4431f188adb1bfc2f0efe965c21b74f77935e4c3d29a69a2dc7257b64f5e0a006a9ada7f384181349b0cdf35956b08dd1f042d44e60c82cb396a64b2848a7f8c9c652ddf05f9cd86749139b650fbf249f717a99bb7df3af283251caca11844526727c6f861145322139d9f17ec3cdb9c5a274b52129ab916ed023d6ee38b9ba4e5208634fbb12750e1c1a0e675131626ca247ab6717dfba17ede2647c6a8b00aa6b542be366621894d8f008d4edafa8a8c9dc9e8e7006b47c6a5cd311af318a151cd5cc7452f031271300d476be200c53e75ab757bc2d6342a0d50f96d74f7c582a76a0aed6c2b7a18539bec73f258d358bba87b6799d2cc8cf60a4633f09c0cd16e27faf217a76c3fad66bf9b165e4998daeadcfec243787b0c7be3d510e29437471feec2d00b444c98bf6addb293eed32aef9fc28fe176178ff88a06958a84157123d6788095b6015676bced0cd172cc5f86db25702490f1de3693e214b4b096f3961ca8af6096a8f96149c9291645aa78b3c114613fe97ec0b136ba0c80a8b048b6525eb929dc248773a2167f778ca542e6a692e107951983c1e0005638c51088fe48f5ca52631bd884e087818bb0937864503ccc8bbdcc313fd00539839eb0ed5c35c3127097c19f26f63caab29ca459f8a83bb8adb1f6a6a9562fc6ac84e4fac758a263250645877e1678374bfbe0af88709bec2c4f1a027c7e5306014a7aa63b622286b1dddfc47b4a25a268294961492ab243216832f45cc8a70106ebd373ffe2f100b2a0602ec6b7aab7fee5c7214b0bfffde5d9b92c323cdd43d3b1cd234038fecacecb18a3f29a4291c0eb0bd4fdf6eeac6c4156a074280af26ba457da38692eae200d438b3356478931b8b155c9f2e7833152fcd14d1ac97be28b6972238ea1eba9e09f2915a3df26e01c4021e2334585e668485889192959ea2a3b3c2e8f30c0e17215c77797c8c95969ca5adb1c7cfdff5102b2c2f3553808da2b5c3cbd5e3e7030c1e23363a7c7d8a98b1ed00000000000000000000000000001427364201fd2105008a3542f34d300c5b1516fc8fa4ed451c9410e921d9c2a022b05b9e4cac790ea8b31ef8edbc627491f019342e4bc602311ba95399ff964553369143f16dae38e7a11aaeae56448b643797ab8846a8ffd7e43cfe7722a5bcb97da2695229b09ed99471ed279b4f3b9ac1e6063a0901ba15be0c2a96af603b10fae29827ed0bbecb0d05dcef8d60a440e42e2e90a81dbc6d6dd958a0476a3895d399f2b4fe396393f49f755389f0d1ac2b6511eb6c5d942bed61e749df94e7e340accaee7245f4f781cd9c64a0028a45ef3c6d6b6fc39f4dba5b05989c185f577d386dc2fa894698e2d4edb0984fee0a2cd3418e88d422188da7dd0d192237074a9dd97bc7b089ae4590235069f5f3d14fed31ba53883339ed9ade7a597b749f0829426633d1d428d56a2790ffa16fd410abafb55e3f87e41c6420f1a1ae9f2c7f05d98a58a098c56ae773bc14b631ed56e262c891aedfe8ce245d6a5ef9479491a6329c0f00cf0ad8b393bf204697ce6906f87335f1e11af27b0457d4315daf86cfd12b94538f3df1d266430bd3b39989c89f4e6ba515996c039cb4174272143c6c98af61815bfb4735f790dd0fd3abf8f61eb0ffa0df02d2f5806aca28f13c03e8617b84a56e6679c3551792dee589e73695cc981f77a0e43ab8cae1815373d679a9e1052b5c65a8b847b68825edac1fa1d113915ee6f84bbfd8c2730137e3edbb0f3970b748eb7a61f1173f1b3c2d0b41896cd4b2ffe8b9598cf9221d0bf411724e7c7caf5962250342e79aff5f22acdc720131f36bf08e51492252fd1b4b1e4679550270784e142b5280f6902f5a8cb14e3df694d4a5bdf2b78483b4ba9e743ac6138a1a32ab43ae00f42c7dbcdc8cd52f1b3a4726585c20fd099cf192a6349c49ecb3fdc02b7eb3b6986bee05ca367977e732cb85067502d593a489d091250c376f3644e9e3c77efaa3ce29b93efeab1902ac4d69fae98b0c3c63f078a5f0e229041ee4b6cae47604ba0fa0badbcab78663d95093c34a35db8129ad5b7cee6c7a99db8c2d86a43879e303d8a24b8c3bb0f6db7d324335a1a80981a0e706922e3d79fda228d17c7ccf5e088627ab7a190f0812c121a274035a1151c6585bb76e28061c740cb90c501cd11b1e5f0a866d72233f34c516171c3ae9e68de36efc2be8410d2d95aac0ddf9b973d4997cee58e28ff2b826fd751b071c5b8ed159f6f40d1925296defedb606a4da366efffef6eeb3874c92a3412cd22a73a500ad11e70f8be4051c0d8667d0654f6c6c97cebf96a242079ec1bfd2a750367f6a8521ef56b3b05f48228acb5c399efb715c6bcf45d26008a32de47db30b75d67e89c48b1c2488faf9122a331032c4568aa10896f294ab73e2d94cf39c1b5a8b91d7200d1c4ebd4857eb94790887b63f858aa3751bb09f437e036bd8c8ebea4f9891f1e7f4783df7447bd1c413b76f728377425f6c9b88e46948379299b1c1ef27e8c34d9bccac31d5c29c61c134fb46a8bebd1cce8f69f4d9e41032b22833808cf1eafead57dec80cf3167e33dc6411e061dcfa6559bb284edc19fe307a3a6a8002f492bdbe061b280825d78e194b547a06fcd710586393d0d3c97604e6493fd9e4e6488efa9c2b765f8e838b7801c3442778eb3437dfa980eca5b873ed2fcbcd1241a8ab926f3edbe2445515be39138d7e42febe05bb82803ab6f0f473c108f753c4205b0b18e3d7125e91e20868c93fa49ab05d08c4a8848c02ff1c11ce9ef166abd6594cc7e575cd4907971622bb23e7b0702ce2fe4dfe11f634dc5adb02ba14eeb9678f30910a8d9d6fc48deea4d5ffb571a8b683bc3e304fdb510fa52f7c118b1ce1bdfae9467e7e000000",
  "txid": "a3aa97af8917b10afb66f02050f05bbfb1ae17a4d53e0f99ed052cf82d02c6cb",
  "hash": "544714e80a85a615c76a02bf6829af7c2868d29d8d199b85093ade03364d32fb",
  "size": 5085,
  "vsize": 2278,
  "version": 1,
  "locktime": 126,
  "vin": [
    {
      "txid": "2d87216c70691287e4b4fec03638e6133f8c8fe12e9d1479cceb34510a2921c0",
      "vout": 0,
      "scriptSig": {
        "asm": "",
        "hex": ""
      },
      "txinwitness": [
        "84944399d375702c5934f9ae874495754ba018f10ab1d629dfd211af56d821c6340522828aebec45e7c058946b4f0979195f7ae9ae6e4e81399421da5aa6416f81066e76a17394073af3ae754e82f23b1660aac75a45e772a410aa288ac8939b3eac6d5a5212f367186872dfc35c3819cd02bb65421e73e78a7d847778440dbc49dc52513932b3fa3bb57cb48d35215fda4cd14ed979d18f9fec1b78506345684f2350b7f0153549c1887e62aec2bd70c57594601f7f3f91490082b10f0ced4e15a9d71c1ae1d317ff48a25bb4e37f4593504343521fa63c5ee7266f7a0a476756da10efcb8e60e5b9cdeb35a2c0f756e6fc0c309250dfcd0fef4f020cc32dd90e95b5bbff6474fe3cb037907bc8264b2b36bb8bbb2e5e2695a5f368df6c9bcca91885b62ec8cda2fafadd098f72db4ef7fa348ebf575c7cd1338978137c3c3d2aea01276d2e2a11b9a012065dba695e7465ffbcef0e5495ee678f015371297db51bfa28006d3aebce57fcaf5b5d7730493b302c8d68138f99e1f8cd122a74e1a959555750239b174dff41ca5904f330321176ff61a858a1ec5f7e12e6cc1300d731b6ed8d00cc7a0d1efc90e9036a2db2c0e6ce1cf85f3c89578d09eea16dcc8b22c0dbd106a142c68fa3a6b0151d43670a4a8ffbbf3a385cd6e9e2db59f7951003fe5036f9e63ab320a42373556e2305a8f923a8276f33df82947525b9d40e810cb612f14cd4567a222c3e7b2f4c4ec1ad9f4714a5f6cfade2b8c817544e6d9f0a2c238e926df39fd684cb6815aad3f8f1f04ceec007b0f5c25f91ae5cd90d990c06de15d5cf24085c1f00500a2e56b5d6015e056933e9bfcc136dcc64487aff39a29a06af1041bdb3013c949f2a0247988c002d719a3bbc57aa30bd163cecf96131c3617215a2e144e22b6fc18dac239b147672aa277e82611c1e7b0dd43296362fb45d8c5e8b6fd27b165d4241407901731e5467e77f1107e7331e643f8bc8c49c503a11078fbfe6536e804653b6cee8f75aa353b06e8e3df8f2c736cd159932557bb1863e4b63efd004e7a8499ec5e6692c1b0f5ec4aefbe299ed29a48d50ecebeb7a79e4a9f16bb00ef1502a6213687019f84f8218fe2a737f866f0735ff79d2b5f9381c5211856de6b704128a91b36ff2a2b4a0a4e6fd855c70a82f4a3c4954ff9ddf7f7a55db0d1c8985eaebf0aad8cc5d461849975dc6da36d983a046fafb8fdd49f13ae9253c1f30da289d16171db0990e3ab79d547d8ea196a7d0d91b64521ec929d9a8bea8e9c71530730c9be2294185da1620b050088aa97efa56d6f324bc506d44a0d88f0401a7ddd7a3ce660c1eee9bcaf5ffc714fd06c4d42ae0083418dd3b40f5a95ac8d02c7d437f6ef44b77edcfccddb686c3061b0e1d8ae92307ae9ab5f1823f48d683f1c5c1dcdff0d4d07abed229cd49ed550998aa98703fc020ba8e4c2244147f6e25c2b63a6debfebc4f4e90147336745e866504fa0f2a7eb985c2395fb59dab37d7a6563b1baf21eb3bead639b6b36441e6017509936ef24aaa6279cfd2c192819629b4d9a6d2f23f5a5a450ee4971d07b0a33d6df69a9aee8df00b6c8cb8464d8e53206197c94dde1d78bce887b16764da1bdbcecdd8f9feceee65f019655d2c0ece478f2e49eeb5d28a4bb400f2f93752f2eeeac8aaac7a5ac14e9a9d485e981f0a606644e7fa09d3e87f8ff3cfd7e9da0a804a2ddbb5f6bb1c320b335555c4e617234f437f1610a878423fe57bfbee09ccc04a56540940dfd772fb8988daa65291421e054379d6805443a6fbb6d9f674f2f6db5fd3b0e64dfbd11d0f93e9d5355b981fbcf5b1ebcdd36a81bd2649c66badef23e8a8938d1500ce85a0bd4b200cde77d6e58863fe20fce609f3428d1f480a8b2adb5eec67f159b11f54fced2a6e8f6c1f1598c74a76276d0646dbd09969f749f8847cfe33f83e060445fea6ab3c7a240c286a4aedb1b6741761a5db927264d8b63d855ea698c59d0ef1fdd80ea3d383658a1af7185a3be8e656804ebeb90bd888105d24c003416f824edd52dfa4078cab9cf786e68f925e0b3587ead07ae752b5a10da39652c8d8268116618822de28efb98f9cd3f20da64cae8212428cbca9e2fb466987423c529e86825e52a4cf8cac84271772ab5efe3fd64fa780e7ca55e5b1dcc920b38bce643bb3c424f3cc14797f2c5e07777580db9e1039dc1455330672429328691eef8aca1930539f312e65301731bd2345159d587809afeec07241ac80a99a22e05a2196c1509aa1e00f9c2d379fb58a52b1f25567f0fca783ce3606dd2338548a6b166bade781d9eb010aacf088e1fd3e0cb8f66484e4696d5858668b3fdb619a06b3470f90885c93f4431f188adb1bfc2f0efe965c21b74f77935e4c3d29a69a2dc7257b64f5e0a006a9ada7f384181349b0cdf35956b08dd1f042d44e60c82cb396a64b2848a7f8c9c652ddf05f9cd86749139b650fbf249f717a99bb7df3af283251caca11844526727c6f861145322139d9f17ec3cdb9c5a274b52129ab916ed023d6ee38b9ba4e5208634fbb12750e1c1a0e675131626ca247ab6717dfba17ede2647c6a8b00aa6b542be366621894d8f008d4edafa8a8c9dc9e8e7006b47c6a5cd311af318a151cd5cc7452f031271300d476be200c53e75ab757bc2d6342a0d50f96d74f7c582a76a0aed6c2b7a18539bec73f258d358bba87b6799d2cc8cf60a4633f09c0cd16e27faf217a76c3fad66bf9b165e4998daeadcfec243787b0c7be3d510e29437471feec2d00b444c98bf6addb293eed32aef9fc28fe176178ff88a06958a84157123d6788095b6015676bced0cd172cc5f86db25702490f1de3693e214b4b096f3961ca8af6096a8f96149c9291645aa78b3c114613fe97ec0b136ba0c80a8b048b6525eb929dc248773a2167f778ca542e6a692e107951983c1e0005638c51088fe48f5ca52631bd884e087818bb0937864503ccc8bbdcc313fd00539839eb0ed5c35c3127097c19f26f63caab29ca459f8a83bb8adb1f6a6a9562fc6ac84e4fac758a263250645877e1678374bfbe0af88709bec2c4f1a027c7e5306014a7aa63b622286b1dddfc47b4a25a268294961492ab243216832f45cc8a70106ebd373ffe2f100b2a0602ec6b7aab7fee5c7214b0bfffde5d9b92c323cdd43d3b1cd234038fecacecb18a3f29a4291c0eb0bd4fdf6eeac6c4156a074280af26ba457da38692eae200d438b3356478931b8b155c9f2e7833152fcd14d1ac97be28b6972238ea1eba9e09f2915a3df26e01c4021e2334585e668485889192959ea2a3b3c2e8f30c0e17215c77797c8c95969ca5adb1c7cfdff5102b2c2f3553808da2b5c3cbd5e3e7030c1e23363a7c7d8a98b1ed00000000000000000000000000001427364201",
        "008a3542f34d300c5b1516fc8fa4ed451c9410e921d9c2a022b05b9e4cac790ea8b31ef8edbc627491f019342e4bc602311ba95399ff964553369143f16dae38e7a11aaeae56448b643797ab8846a8ffd7e43cfe7722a5bcb97da2695229b09ed99471ed279b4f3b9ac1e6063a0901ba15be0c2a96af603b10fae29827ed0bbecb0d05dcef8d60a440e42e2e90a81dbc6d6dd958a0476a3895d399f2b4fe396393f49f755389f0d1ac2b6511eb6c5d942bed61e749df94e7e340accaee7245f4f781cd9c64a0028a45ef3c6d6b6fc39f4dba5b05989c185f577d386dc2fa894698e2d4edb0984fee0a2cd3418e88d422188da7dd0d192237074a9dd97bc7b089ae4590235069f5f3d14fed31ba53883339ed9ade7a597b749f0829426633d1d428d56a2790ffa16fd410abafb55e3f87e41c6420f1a1ae9f2c7f05d98a58a098c56ae773bc14b631ed56e262c891aedfe8ce245d6a5ef9479491a6329c0f00cf0ad8b393bf204697ce6906f87335f1e11af27b0457d4315daf86cfd12b94538f3df1d266430bd3b39989c89f4e6ba515996c039cb4174272143c6c98af61815bfb4735f790dd0fd3abf8f61eb0ffa0df02d2f5806aca28f13c03e8617b84a56e6679c3551792dee589e73695cc981f77a0e43ab8cae1815373d679a9e1052b5c65a8b847b68825edac1fa1d113915ee6f84bbfd8c2730137e3edbb0f3970b748eb7a61f1173f1b3c2d0b41896cd4b2ffe8b9598cf9221d0bf411724e7c7caf5962250342e79aff5f22acdc720131f36bf08e51492252fd1b4b1e4679550270784e142b5280f6902f5a8cb14e3df694d4a5bdf2b78483b4ba9e743ac6138a1a32ab43ae00f42c7dbcdc8cd52f1b3a4726585c20fd099cf192a6349c49ecb3fdc02b7eb3b6986bee05ca367977e732cb85067502d593a489d091250c376f3644e9e3c77efaa3ce29b93efeab1902ac4d69fae98b0c3c63f078a5f0e229041ee4b6cae47604ba0fa0badbcab78663d95093c34a35db8129ad5b7cee6c7a99db8c2d86a43879e303d8a24b8c3bb0f6db7d324335a1a80981a0e706922e3d79fda228d17c7ccf5e088627ab7a190f0812c121a274035a1151c6585bb76e28061c740cb90c501cd11b1e5f0a866d72233f34c516171c3ae9e68de36efc2be8410d2d95aac0ddf9b973d4997cee58e28ff2b826fd751b071c5b8ed159f6f40d1925296defedb606a4da366efffef6eeb3874c92a3412cd22a73a500ad11e70f8be4051c0d8667d0654f6c6c97cebf96a242079ec1bfd2a750367f6a8521ef56b3b05f48228acb5c399efb715c6bcf45d26008a32de47db30b75d67e89c48b1c2488faf9122a331032c4568aa10896f294ab73e2d94cf39c1b5a8b91d7200d1c4ebd4857eb94790887b63f858aa3751bb09f437e036bd8c8ebea4f9891f1e7f4783df7447bd1c413b76f728377425f6c9b88e46948379299b1c1ef27e8c34d9bccac31d5c29c61c134fb46a8bebd1cce8f69f4d9e41032b22833808cf1eafead57dec80cf3167e33dc6411e061dcfa6559bb284edc19fe307a3a6a8002f492bdbe061b280825d78e194b547a06fcd710586393d0d3c97604e6493fd9e4e6488efa9c2b765f8e838b7801c3442778eb3437dfa980eca5b873ed2fcbcd1241a8ab926f3edbe2445515be39138d7e42febe05bb82803ab6f0f473c108f753c4205b0b18e3d7125e91e20868c93fa49ab05d08c4a8848c02ff1c11ce9ef166abd6594cc7e575cd4907971622bb23e7b0702ce2fe4dfe11f634dc5adb02ba14eeb9678f30910a8d9d6fc48deea4d5ffb571a8b683bc3e304fdb510fa52f7c118b1ce1bdfae9467e"
      ],
      "sequence": 4294967294
    }
  ],
  "vout": [
    {
      "value": 499971.5268,
      "n": 0,
      "scriptPubKey": {
        "asm": "1 e4e4896bca69f4c42e9a02338274268cb93f38c24cf42a17b72c255e1c10f21d",
        "hex": "5120e4e4896bca69f4c42e9a02338274268cb93f38c24cf42a17b72c255e1c10f21d",
        "reqSigs": 1,
        "type": "witness_v1_scripthash",
        "addresses": [
          "3QJmnh"
        ]
      }
    },
    {
      "value": 1.0,
      "n": 1,
      "scriptPubKey": {
        "asm": "OP_RETURN fd2d6662da245ec4be137a8a64363db6080aabff166e4c5b4c5da89332f36167 157859d0c29cd3a066483211a74371a3b5527e382981121ef94435ddcb6135c7355879f0e2bcf380466812318763518395725e1809a1323ed96415fdeb4115e75538199082dc93e026087251e70331e3f5123e7869c1525eb904759d8b217587751839b0a2fcb3c006285271c72311c3d5321e5849e1727e992455bdab0155a795f8d950421c5320e6c8b29127c3f12335d2feb8a901929e79c4b55d4be1b547b5d8f970623c7300c6e892b107e3d10315f2de988921b2be59e4957d6bc19567d5b89910025c1360a688f2d16783b1637592bef8e941d2de3984f51d0ba1f507f598b930227c334086a8d2f147a3914355b29ed8c961f2fe19a4d53d2b81d527157859d0c29cd3a066483211a74371a3b5527e382981121ef94435ddcb6135c7355879f0e2bcf380466812318763518395725e1809a1323ed96415fdeb4115e75538199082dc93e026087251e70331e3f5123e7869c1525eb904759d8b217587751839b0a2fcb3c006285271c72311c3d5321e5849e1727e992455bdab0155a795f8d950421c5320e6c8b29127c3f12335d2feb8a901929e79c4b55d4be1b547b5d8f970623c7300c6e892b107e3d10315f2de988921b2be59e4957d6bc19567d5b89910025c1360a688f2d16783b1637592bef8e941d2de3984f51d0ba1f507f598b930227c334086a8d2f147a3914355b29ed8c961f2fe19a4d53d2b81d527157859d0c29cd3a066483211a74371a3b5527e382981121ef94435ddcb6135c7355879f0e2bcf380466812318763518395725e1809a1323ed96415fdeb4115e75538199082dc93e026087251e70331e3f5123e7869c1525eb904759d8b217587751839b0a2fcb3c006285271c72311c3d5321e5849e1727e992455bdab0155a795f8d950421c5320e6c8b29127c3f12335d2feb8a901929e79c4b55d4be1b547b5d8f970623c7300c6e892b107e3d10315f2de988921b2be59e4957d6bc19567d5b89910025c1360a688f2d16783b1637592bef8e941d2de3984f51d0ba1f507f598b930227c334086a8d2f147a3914355b29ed8c961f2fe19a4d53d2b81d527157859d0c29cd3a066483211a74371a3b5527e382981121ef94435ddcb6135c7355879f0e2bcf380466812318763518395725e1809a1323ed96415fdeb4115e75538199082dc93e026087251e70331e3f5123e7869c1525eb904759d8b217587751839b0a2fcb3c006285271c72311c3d5321e5849e1727e992455bdab0155a795f8d950421c5320e6c8b29127c3f12335d2feb8a901929e79c4b55d4be1b547b5d8f970623c7300c6e892b107e3d10315f2de988921b2be59e4957d6bc19567d5b89910025c1360a688f2d16783b1637592bef8e941d2de3984f51d0ba1f507f598b930227c334086a8d2f147a3914355b29ed8c961f2fe19a4d53d2b81d527157859d0c29cd3a066483211a74371a3b5527e382981121ef94435ddcb6135c7355879f0e2bcf380466812318763518395725e1809a1323ed96415fdeb4115e75538199082dc93e026087251e70331e3f5123e7869c1525eb904759d8b217587751839b0a2fcb3c006285271c72311c3d5321e5849e1727e992455bdab0155a795f8d950421c5320e6c8b29127c3f123e2b1b49af30134f8807a8c1b9f934d065a2e8063146460ef9c413389228f2ea8",
        "hex": "6a20fd2d6662da245ec4be137a8a64363db6080aabff166e4c5b4c5da89332f361674db004157859d0c29cd3a066483211a74371a3b5527e382981121ef94435ddcb6135c7355879f0e2bcf380466812318763518395725e1809a1323ed96415fdeb4115e75538199082dc93e026087251e70331e3f5123e7869c1525eb904759d8b217587751839b0a2fcb3c006285271c72311c3d5321e5849e1727e992455bdab0155a795f8d950421c5320e6c8b29127c3f12335d2feb8a901929e79c4b55d4be1b547b5d8f970623c7300c6e892b107e3d10315f2de988921b2be59e4957d6bc19567d5b89910025c1360a688f2d16783b1637592bef8e941d2de3984f51d0ba1f507f598b930227c334086a8d2f147a3914355b29ed8c961f2fe19a4d53d2b81d527157859d0c29cd3a066483211a74371a3b5527e382981121ef94435ddcb6135c7355879f0e2bcf380466812318763518395725e1809a1323ed96415fdeb4115e75538199082dc93e026087251e70331e3f5123e7869c1525eb904759d8b217587751839b0a2fcb3c006285271c72311c3d5321e5849e1727e992455bdab0155a795f8d950421c5320e6c8b29127c3f12335d2feb8a901929e79c4b55d4be1b547b5d8f970623c7300c6e892b107e3d10315f2de988921b2be59e4957d6bc19567d5b89910025c1360a688f2d16783b1637592bef8e941d2de3984f51d0ba1f507f598b930227c334086a8d2f147a3914355b29ed8c961f2fe19a4d53d2b81d527157859d0c29cd3a066483211a74371a3b5527e382981121ef94435ddcb6135c7355879f0e2bcf380466812318763518395725e1809a1323ed96415fdeb4115e75538199082dc93e026087251e70331e3f5123e7869c1525eb904759d8b217587751839b0a2fcb3c006285271c72311c3d5321e5849e1727e992455bdab0155a795f8d950421c5320e6c8b29127c3f12335d2feb8a901929e79c4b55d4be1b547b5d8f970623c7300c6e892b107e3d10315f2de988921b2be59e4957d6bc19567d5b89910025c1360a688f2d16783b1637592bef8e941d2de3984f51d0ba1f507f598b930227c334086a8d2f147a3914355b29ed8c961f2fe19a4d53d2b81d527157859d0c29cd3a066483211a74371a3b5527e382981121ef94435ddcb6135c7355879f0e2bcf380466812318763518395725e1809a1323ed96415fdeb4115e75538199082dc93e026087251e70331e3f5123e7869c1525eb904759d8b217587751839b0a2fcb3c006285271c72311c3d5321e5849e1727e992455bdab0155a795f8d950421c5320e6c8b29127c3f12335d2feb8a901929e79c4b55d4be1b547b5d8f970623c7300c6e892b107e3d10315f2de988921b2be59e4957d6bc19567d5b89910025c1360a688f2d16783b1637592bef8e941d2de3984f51d0ba1f507f598b930227c334086a8d2f147a3914355b29ed8c961f2fe19a4d53d2b81d527157859d0c29cd3a066483211a74371a3b5527e382981121ef94435ddcb6135c7355879f0e2bcf380466812318763518395725e1809a1323ed96415fdeb4115e75538199082dc93e026087251e70331e3f5123e7869c1525eb904759d8b217587751839b0a2fcb3c006285271c72311c3d5321e5849e1727e992455bdab0155a795f8d950421c5320e6c8b29127c3f123e2b1b49af30134f8807a8c1b9f934d065a2e8063146460ef9c413389228f2ea8",
        "type": "nulldata"
      }
    }
  ],
  "blockhash": "6d9c0c317b6a18c94c8dfa8ecf7920e3db1b4df4697afebc42d3fd28269e39fd",
  "confirmations": 1,
  "time": 1764181315,
  "blocktime": 1764181315
}