{
  "hex": "01000000000101a82060f70881b148301406bc681a6582f0eb1ff1c53397d8dc9b26d31c7cf7eb0100000000feffffff0200e1f50500000000fdd5046a20bc72c819d1faeda5293e3b9ecb51954e29b4722c0903c8d10b56ff8c818275be4db0047ffe7c0bc116b508fe46a515b265d9d30fac0af0987afc57d72940341ee2ed1d5fde5c2be1369528de6685359245f9f32f8c2ad0b85adc77f70960143ec2cd3d3fbe3c4b8156f548be06e555f22599934fec4ab0d83abc17976900745ea2ad5d1f9e1c6ba176d5689e26c575d205b9b36fcc6a90f81a9c37b74920547e828d7dff7efc8b419635887ec6259532e559538f2c8a7018fa7cd757a9c0b49e626d9ddf5edcab61b615a85ee605b512c57973af0caa5038da5cf77789e094be424dbdbf3ebccb01d675c83e8665d572a51913cf6cca3058ba3c9717e980f4de222ddd9f1e9ceb21f655e81ea645f552853933ef4cea10789a1cb737c9a0d4fe020dfd7ffe7c0bc116b508fe46a515b265d9d30fac0af0987afc57d72940341ee2ed1d5fde5c2be1369528de6685359245f9f32f8c2ad0b85adc77f70960143ec2cd3d3fbe3c4b8156f548be06e555f22599934fec4ab0d83abc17976900745ea2ad5d1f9e1c6ba176d5689e26c575d205b9b36fcc6a90f81a9c37b74920547e828d7dff7efc8b419635887ec6259532e559538f2c8a7018fa7cd757a9c0b49e626d9ddf5edcab61b615a85ee605b512c57973af0caa5038da5cf77789e094be424dbdbf3ebccb01d675c83e8665d572a51913cf6cca3058ba3c9717e980f4de222ddd9f1e9ceb21f655e81ea645f552853933ef4cea10789a1cb737c9a0d4fe020dfd7ffe7c0bc116b508fe46a515b265d9d30fac0af0987afc57d72940341ee2ed1d5fde5c2be1369528de6685359245f9f32f8c2ad0b85adc77f70960143ec2cd3d3fbe3c4b8156f548be06e555f22599934fec4ab0d83abc17976900745ea2ad5d1f9e1c6ba176d5689e26c575d205b9b36fcc6a90f81a9c37b74920547e828d7dff7efc8b419635887ec6259532e559538f2c8a7018fa7cd757a9c0b49e626d9ddf5edcab61b615a85ee605b512c57973af0caa5038da5cf77789e094be424dbdbf3ebccb01d675c83e8665d572a51913cf6cca3058ba3c9717e980f4de222ddd9f1e9ceb21f655e81ea645f552853933ef4cea10789a1cb737c9a0d4fe020dfd7ffe7c0bc116b508fe46a515b265d9d30fac0af0987afc57d72940341ee2ed1d5fde5c2be1369528de6685359245f9f32f8c2ad0b85adc77f70960143ec2cd3d3fbe3c4b8156f548be06e555f22599934fec4ab0d83abc17976900745ea2ad5d1f9e1c6ba176d5689e26c575d205b9b36fcc6a90f81a9c37b74920547e828d7dff7efc8b419635887ec6259532e559538f2c8a7018fa7cd757a9c0b49e626d9ddf5edcab61b615a85ee605b512c57973af0caa5038da5cf77789e094be424dbdbf3ebccb01d675c83e8665d572a51913cf6cca3058ba3c9717e980f4de222ddd9f1e9ceb21f655e81ea645f552853933ef4cea10789a1cb737c9a0d4fe020dfd7ffe7c0bc116b508fe46a515b265d9d30fac0af0987afc57d72940341ee2ed1d5fde5c2be1369528de6685359245f9f32f8c2ad0b85adc77f70960143ec2cd3d3fbe3c4b8156f548be06e555f22599934fec4ab0d83abc17976900745ea2ad5d1f9e1c6ba176d5689e26c575d205b9b36fcc6a90f81a9c37b74920547e828d7dff7efc8b419635887ec6259532e559539da784488fead4f36d0cae5287f7fc8cc62522dc4addd56daaa7e91f6f649534e0ca1d7c792d00002251201b5ffad5e87f4f3a15d5426ee5a45055f164a8b4ac8bf2fab5c54fe067b7f2ea02fd75090fd3558381b181460cb0b61dd8af431353c53353397fafab93c25808ef77654663bacb68e46f0e3c871f880322247c97cd8f12b0746ba53e55708e103b2c7512099f1ce8b586eadf5202f9ffc52f5dde4fa3e2040b1ca587e867468dbb5fada6e7ab53be26815388b7caea9060e2a06dd4e31788bd9d71dde15532ed42682467fd516e7300c7f4b8f3828db77f8c2143fb0f38262dab4504837e3aaa7904e90e788215342eb9157c132745d7049f8e6dbb8e4cb6d2d9f261f8ed29f5fc7e3f255570f38cd977f59d9e18b4f85c0bb0a1dc78082815046701184ec27498f80e11a52f9fc01e536498c79d3bc89feae8836aec13e42c4f2931c86394810cae2e2b287c1dc380b83c2faa4336fc2607b338a424a21cb779658ab717983f44a350a6851bbb81a50d7a2919a700c32b75623fa36a2019935d7bd5d743bec91fbf1ec5790197056ced996a6051e8c3229dd9e340e7dfc2e52fe28e06f807dfa69e2e605c2ccdff6d6931bacde7acfecaaf992c858a409e06d17391c0f9bb43ad562dd8e5e8d40e5566530afc9da97d49b98da41de471008d8b9643d3dab9270e43b467afc47f8dac26cdfb58638a2870afbea088bdfb86f7f86bb70dcb5ff2e2f64b193fd3cb6b7f1ee9588ad6a6cf716d01d3d08160601507617bb3be1e557a58753aa645e82c333663e584d43c335ad32db0de821ade82e11830f2533cb5783722068a93863e9064e7ca20d00a5a5f82c9fe9a3fdf7ca38fb93d6811ea617dbfbb1aa45f74a08da9ea07a620e060056b62d94b0e22b64586cfcbfc6d811909514c00372c069cdd98cda727c11d793ebe1253c507e9fc50120545be07deee68abb949aeff2cbb64695a185850e70faef662667a1993f0007d980083d6396424561fda6a9129fff5bbce8564d7f113ea16bd04c3d240909b12a6ef6443edfeba8d16f29265c5a776776a7245d1fad4872400206b4c54708406d541048c4e5058709ea46e204d2795a9af4202f18440e90460cbf9ec58b5b91804a3c9fb7de0f17f9ebd1cfca9259cd45f7d904eaa8ebf5e503d5b416a7f01718c7fe32f3e66718693d90bb87cfdbe994f094c2e3f6401b8af776e08498a8facc6b81d208649116672c99d2ba64ebf121c97f5182e3fa3ae97b5870aa242fe9736e4c873e7d3b5df7b0e6c6e577bf3e9b47db4256f03312f625a6d1efb27cfb555d59cfa952112773549d100d574f143f5214411a80b526781bf107afd7a660aa6f4a7f005f8996e3c9f88efc7842502b26af753391a3536574525cda8694e8e6f245104f5968cecd0f4f285e5fa6ae969fc1485323b9653e432735271dd75807b9f7851faea5fbe2cb7373cacf09e8cd9ef0a52d493fe5f5dbc2dc65edc05f93b027cc2867c43690f2ab14c67c1cc88fd4164f0c02068896e71191b7993c03c199ee8a0fad32292415030606ddb7d0696f67a255c01e5ac4570eedfbba92414989c40614ad1f7c871b09440193aaa9183c35e4c3d49bf10f868034227d65dfa6550b77df124c6134697bd52eedd32f9efb3b0f4dda634af567143943c2f44df33cfd6114466b43686593858d7cf85a3da2eb9581fe8002f03ba9cda414f732c7089d71dfdad2e545808a43475ad650243e039e2a0fbb6f1661ada8be68d86a97d824ba7f3f94294ec4086ad90980cdb5c280de0d601751c462dccea0c74b52663cc6dc80da3e8106978c81c37daa48e6b9091c81775d12f908ce9ab0a3cc7ca8f2f0f0c4e4a5a2bbfd3dad2891f5116240e4af3d854ef655f0d3a9e6d09494c711f75e6afd263a08773cd5bbf67452f7271aa0a471dc603bfe9ee08da76246c732f0a7579252368ac75a0a9be1bdb03fc1cb9f083569ea874d0a5359571ce82c52c95151365e4a0fe13460a25ec76f3a1f311af60a05aeb87fdadd04cab6b6b7102a4f545618685c20ed81c78c00c6075ef0c6efc9f07d3e4b77670968079c9b73e34e61b6d21730ba69a1c1eada4cae79d76aa22a3218ba752923a20f8af4c035f69ab001544ce1b694be71f3e3b075a0023006474801c47223a70df52e445949c806b337802fb4dc2a457cd71bf822d3ef34c1b4b1a17c3da833ebd6a301df6e5e6d5c5602580383847d713c0506da674b810b17741d41644df8b7bc0b5df89d78008d01301885bb9902a258c07d5778ea646dbb010a1864a48838788398fca06b43fe63f21fe8f9cb0b6af4038e134ef54188571cfae9b04547973f8c35353d49cd1141c3adb7c2928897c8065d493d2d3649aee8c90b233c1b162f7d8d65fbde70636e2346973d6bfc9b4e5cb26bdcc53db1c848d78aa7570bc25ffdbf4650b9c826f3ceeb20fabd1dfc64f2d55b0af2ac82d30665d540c90eb838e90f5ec778e80be2c094f88d53ac89ef7f63524deec45a56d09ecf0a98e4f504358c70b35af2ed5cdeaab0e419836f4c174ec43716c6f4d5c67cea2ca5483340b8e541a6a20f68bb2cc28650bde201a024e60a915ca84b80b99529782371c5aab7eeba0c38bd6012887494e4b730192e8181b8af37b0e96917dbd7e9561924ced3423b47e0e65e2a2518379bfebfab7b0d1b387b53bf51cf5c9d8f2a03874984c17a81bcae0a70a94f2400b3adf7900a3112018d411d5a0921730ebb4a0e7f3f84fd7b988d1a9d0fc4e156d4b7a2d5377a04264e4ac6265c5a281d08a2348e6aaf38cd7aceda964e3a60c8eae2c3b35579a389fa026c7e6a4e932512f9fa8c0ad3126d77d54b566e8c3251c3efd57244969359287677c103b785effa0fdfd474ac8ba551e88854c729f6de7cc00251362cd9561f62d14894dc5d8e7f0f2b4d38c642ea4b049afa0d9da90e20c8f032364f626c353830cd0b4c926ccd109748c17f051d474bfa509292b578df14c0f9049b75348f077eae624b254dcb3cd09ea5c4952c38923dd27c72db07bf68a9bd4a7414ebf9d3bb88aad48d33cb95417759c3df7a78fae266728b76f56fdd74981f0878dc51a00a96682f300cc9a0d9f9529457f23278403e457db0af9ff91bbe07a23efae83adae673cfee8a32c40bb750b69fcdd6f65cfbb68eb79ecd9041b4bf8b0f81dd48cdf56d51aa9b939689909024e453cf51a3b598d4952a3b5a432f7a17a77450863655d589202e2bce09347cf43e4bcfaf6cf2d72f231312850a59ee2c16ed0ec8d3f7287e7537ef2601dedf2dcc6522b5c61790e20bc5d7ab7824c96a15a7a570f5cd7096b0ccb29ad2580e4ee69e13b2c44a18017fb45d2b4423e5d7d5561e63497ad64031612e6cbba5346f7c9e56bd11a32c95cbf83f6121523262a2e6bb2d0dfeaf1040524252b307f82acadc3ecfa010f1f2c3d4354557c8a9da5b0b3cad8e5f9010f15181c1f242d375e848a9fa0a1a3b9d6fa0000000000000000000000000000000000000c192b3e01fd21050043fc2f99487034e550fe20630caa275fb33c9784ad7ade8b6c7e28c8c2e85aa4c9018ca2ac47291dd1d135a015e0fc980f0c155c731a0952a1b4654ab55c3f33a44ed0c11ccdfe595ed06a085d9b84228775c7cc14b832224c6cd2c37d111dab058d835f1173283a33e19656993fdb60f00fcefefa98ce4b0e9ea10cb0849e2b9ad92bb62c44e6e412bc3dc4fe914ba10a54c51696c147f40d487ce4984438360e85f4ed3b053724e2f867238d5bb4feb1b43da228450f398e6dec1b4c7a559a29e5f3ee4f66a014eec49044f2e08319f8411d1a20f6c39eb96dabd240e86eeaf6af7b2b35cf6d067a5c08846614286efd4b61d3725ffb445397c3b8ac584f996e8c9834451fb3cf07a313701ec76d5d973ee1c2d4b8bd91b1a822d5249a00bef9d105c8e1b93f914178bc1365da037e530631aaa098e02f664c46abfb92f77f34f3f3bf602345d15aecbc2739e8303d2c167b6db738cdd383a56f5705b5bd6080a1b8ff85c3047a23e67df82d47e9153c98f73381c4c32e9cdcceee186532467081b1185f7348b5678454089d07e90bfa712c63702895e719a9f1643cbca647a44094d370eb01d522f17d7e152b3d9984c838f3d51c55db6f5e77a2d793fc414af67baf6ca85f298d3b780f013bbdac7dd2c0acff34b4492ef042509cf86578676c38f074fbd68a748a02da30e340b3979a6a9f7bee757f7818b04e6c7a313de91c7311f502c1d215e371a9ecf700e577140ec124852bfd499d7bca10746949f55e99c1ea8627bf988935c91ed80d134aee40683e9e02e9954ca36cf2b62f2f31e2e7e8903f6f09c858b037f33197f5e5b3dbfcc81784598e287fd9974edb6705c95156405a83c8997b38b2ee21de6a6e9e1d701c29703801b8fe614c9ea6701f5098080c940f613ab59ad93aec4e880bb9c62b8df5e022aa89a86160705f186ca424105d81933eb7f91b01c7817c2e13550352812f57a6dbe38cbf79d51ceb1a8cbb09bf83667d466c5fc939cd44c2e9d68f0575131e7cb732beff0950ae97e0804c554760e12b156cd57a60836dde8272b9966dfe073975d5029f8ec7e791adf9ea015def31938e167a8d9e3cdc27568be543e8b309f03a7fe4ea5c6df56847936834264c9fa40eb0be391fb6f5a45799445b640ed853c4f2a5341c4c39d65fbb5d2c4b51e479f8d5a3ac092b11ab2742714e8bde7a166ce3f69001cb05d2904621f28dcfaa9c95c870a90a6b3d7bdd7030f1d05c3885f3d682f36c1c032ee0f97e86f574ac9831b8c4fa59bb20d03f967bc514af2e6d59ded131763aa032b86f33e75f8e290af5fe20f2800de6238810054b0d8e77991828c9713cb5b012b18babe36417eaaa3344199f97cdf281ae1f772e99a27cebe8d564b07d280a124f15d29904562394ecd7ce9546e33deebd2bf10a69ae40efa046adc318412b4f7feeeabbf160893678392de598da39243255d0c9145fc3310c7af05339ba508f4bc5295e9f841de97d80011ea22c39e63e10202b44d8d17bcb018b20114d1d571ec390437dd6c84f7ce05cbd60c9f8693d4971fc7a95a1953ffb663174eb0cdab2644490a3a4c69c969425c4f27980f9f674393b4b139feb484ecee39500eb7418de79cf3f479f8b7ddd4c95f509c374ef2e0504b212733b0f21c213364a38cf430d0e815f7d01fe81dffd2d4781c01399d0cba0b93f540e6b82f92b1f546543baaacbb691db3e52d25bfba4d158598be50b6d7dd237153e61cc73358cbc66c6458f93350d04b69c97af5c1385fc90818d4b3a7aa40a462d5cfe2bf8680d9887f0deb8f5108de5a7b263ad41a5fe5860c8bac44bb9bac758a62aaebfef5af1eb68000000",
  "txid": "afbd638d2d79792b5cd8858f44e4a2889c61754c81a36f3f5c6892c184a4d317",
  "hash": "b380c8d5c674d08bdcd71e9ad6178ead5d9e973d923ffc7c49c3d0480705aa71",
  "size": 5085,
  "vsize": 2278,
  "version": 1,
  "locktime": 104,
  "vin": [
    {
      "txid": "ebf77c1cd3269bdcd89733c5f11febf082651a68bc06143048b18108f76020a8",
      "vout": 1,
      "scriptSig": {
        "asm": "",
        "hex": ""
      },
      "txinwitness": [
        "0fd3558381b181460cb0b61dd8af431353c53353397fafab93c25808ef77654663bacb68e46f0e3c871f880322247c97cd8f12b0746ba53e55708e103b2c7512099f1ce8b586eadf5202f9ffc52f5dde4fa3e2040b1ca587e867468dbb5fada6e7ab53be26815388b7caea9060e2a06dd4e31788bd9d71dde15532ed42682467fd516e7300c7f4b8f3828db77f8c2143fb0f38262dab4504837e3aaa7904e90e788215342eb9157c132745d7049f8e6dbb8e4cb6d2d9f261f8ed29f5fc7e3f255570f38cd977f59d9e18b4f85c0bb0a1dc78082815046701184ec27498f80e11a52f9fc01e536498c79d3bc89feae8836aec13e42c4f2931c86394810cae2e2b287c1dc380b83c2faa4336fc2607b338a424a21cb779658ab717983f44a350a6851bbb81a50d7a2919a700c32b75623fa36a2019935d7bd5d743bec91fbf1ec5790197056ced996a6051e8c3229dd9e340e7dfc2e52fe28e06f807dfa69e2e605c2ccdff6d6931bacde7acfecaaf992c858a409e06d17391c0f9bb43ad562dd8e5e8d40e5566530afc9da97d49b98da41de471008d8b9643d3dab9270e43b467afc47f8dac26cdfb58638a2870afbea088bdfb86f7f86bb70dcb5ff2e2f64b193fd3cb6b7f1ee9588ad6a6cf716d01d3d08160601507617bb3be1e557a58753aa645e82c333663e584d43c335ad32db0de821ade82e11830f2533cb5783722068a93863e9064e7ca20d00a5a5f82c9fe9a3fdf7ca38fb93d6811ea617dbfbb1aa45f74a08da9ea07a620e060056b62d94b0e22b64586cfcbfc6d811909514c00372c069cdd98cda727c11d793ebe1253c507e9fc50120545be07deee68abb949aeff2cbb64695a185850e70faef662667a1993f0007d980083d6396424561fda6a9129fff5bbce8564d7f113ea16bd04c3d240909b12a6ef6443edfeba8d16f29265c5a776776a7245d1fad4872400206b4c54708406d541048c4e5058709ea46e204d2795a9af4202f18440e90460cbf9ec58b5b91804a3c9fb7de0f17f9ebd1cfca9259cd45f7d904eaa8ebf5e503d5b416a7f01718c7fe32f3e66718693d90bb87cfdbe994f094c2e3f6401b8af776e08498a8facc6b81d208649116672c99d2ba64ebf121c97f5182e3fa3ae97b5870aa242fe9736e4c873e7d3b5df7b0e6c6e577bf3e9b47db4256f03312f625a6d1efb27cfb555d59cfa952112773549d100d574f143f5214411a80b526781bf107afd7a660aa6f4a7f005f8996e3c9f88efc7842502b26af753391a3536574525cda8694e8e6f245104f5968cecd0f4f285e5fa6ae969fc1485323b9653e432735271dd75807b9f7851faea5fbe2cb7373cacf09e8cd9ef0a52d493fe5f5dbc2dc65edc05f93b027cc2867c43690f2ab14c67c1cc88fd4164f0c02068896e71191b7993c03c199ee8a0fad32292415030606ddb7d0696f67a255c01e5ac4570eedfbba92414989c40614ad1f7c871b09440193aaa9183c35e4c3d49bf10f868034227d65dfa6550b77df124c6134697bd52eedd32f9efb3b0f4dda634af567143943c2f44df33cfd6114466b43686593858d7cf85a3da2eb9581fe8002f03ba9cda414f732c7089d71dfdad2e545808a43475ad650243e039e2a0fbb6f1661ada8be68d86a97d824ba7f3f94294ec4086ad90980cdb5c280de0d601751c462dccea0c74b52663cc6dc80da3e8106978c81c37daa48e6b9091c81775d12f908ce9ab0a3cc7ca8f2f0f0c4e4a5a2bbfd3dad2891f5116240e4af3d854ef655f0d3a9e6d09494c711f75e6afd263a08773cd5bbf67452f7271aa0a471dc603bfe9ee08da76246c732f0a7579252368ac75a0a9be1bdb03fc1cb9f083569ea874d0a5359571ce82c52c95151365e4a0fe13460a25ec76f3a1f311af60a05aeb87fdadd04cab6b6b7102a4f545618685c20ed81c78c00c6075ef0c6efc9f07d3e4b77670968079c9b73e34e61b6d21730ba69a1c1eada4cae79d76aa22a3218ba752923a20f8af4c035f69ab001544ce1b694be71f3e3b075a0023006474801c47223a70df52e445949c806b337802fb4dc2a457cd71bf822d3ef34c1b4b1a17c3da833ebd6a301df6e5e6d5c5602580383847d713c0506da674b810b17741d41644df8b7bc0b5df89d78008d01301885bb9902a258c07d5778ea646dbb010a1864a48838788398fca06b43fe63f21fe8f9cb0b6af4038e134ef54188571cfae9b04547973f8c35353d49cd1141c3adb7c2928897c8065d493d2d3649aee8c90b233c1b162f7d8d65fbde70636e2346973d6bfc9b4e5cb26bdcc53db1c848d78aa7570bc25ffdbf4650b9c826f3ceeb20fabd1dfc64f2d55b0af2ac82d30665d540c90eb838e90f5ec778e80be2c094f88d53ac89ef7f63524deec45a56d09ecf0a98e4f504358c70b35af2ed5cdeaab0e419836f4c174ec43716c6f4d5c67cea2ca5483340b8e541a6a20f68bb2cc28650bde201a024e60a915ca84b80b99529782371c5aab7eeba0c38bd6012887494e4b730192e8181b8af37b0e96917dbd7e9561924ced3423b47e0e65e2a2518379bfebfab7b0d1b387b53bf51cf5c9d8f2a03874984c17a81bcae0a70a94f2400b3adf7900a3112018d411d5a0921730ebb4a0e7f3f84fd7b988d1a9d0fc4e156d4b7a2d5377a04264e4ac6265c5a281d08a2348e6aaf38cd7aceda964e3a60c8eae2c3b35579a389fa026c7e6a4e932512f9fa8c0ad3126d77d54b566e8c3251c3efd57244969359287677c103b785effa0fdfd474ac8ba551e88854c729f6de7cc00251362cd9561f62d14894dc5d8e7f0f2b4d38c642ea4b049afa0d9da90e20c8f032364f626c353830cd0b4c926ccd109748c17f051d474bfa509292b578df14c0f9049b75348f077eae624b254dcb3cd09ea5c4952c38923dd27c72db07bf68a9bd4a7414ebf9d3bb88aad48d33cb95417759c3df7a78fae266728b76f56fdd74981f0878dc51a00a96682f300cc9a0d9f9529457f23278403e457db0af9ff91bbe07a23efae83adae673cfee8a32c40bb750b69fcdd6f65cfbb68eb79ecd9041b4bf8b0f81dd48cdf56d51aa9b939689909024e453cf51a3b598d4952a3b5a432f7a17a77450863655d589202e2bce09347cf43e4bcfaf6cf2d72f231312850a59ee2c16ed0ec8d3f7287e7537ef2601dedf2dcc6522b5c61790e20bc5d7ab7824c96a15a7a570f5cd7096b0ccb29ad2580e4ee69e13b2c44a18017fb45d2b4423e5d7d5561e63497ad64031612e6cbba5346f7c9e56bd11a32c95cbf83f6121523262a2e6bb2d0dfeaf1040524252b307f82acadc3ecfa010f1f2c3d4354557c8a9da5b0b3cad8e5f9010f15181c1f242d375e848a9fa0a1a3b9d6fa0000000000000000000000000000000000000c192b3e01",
        "0043fc2f99487034e550fe20630caa275fb33c9784ad7ade8b6c7e28c8c2e85aa4c9018ca2ac47291dd1d135a015e0fc980f0c155c731a0952a1b4654ab55c3f33a44ed0c11ccdfe595ed06a085d9b84228775c7cc14b832224c6cd2c37d111dab058d835f1173283a33e19656993fdb60f00fcefefa98ce4b0e9ea10cb0849e2b9ad92bb62c44e6e412bc3dc4fe914ba10a54c51696c147f40d487ce4984438360e85f4ed3b053724e2f867238d5bb4feb1b43da228450f398e6dec1b4c7a559a29e5f3ee4f66a014eec49044f2e08319f8411d1a20f6c39eb96dabd240e86eeaf6af7b2b35cf6d067a5c08846614286efd4b61d3725ffb445397c3b8ac584f996e8c9834451fb3cf07a313701ec76d5d973ee1c2d4b8bd91b1a822d5249a00bef9d105c8e1b93f914178bc1365da037e530631aaa098e02f664c46abfb92f77f34f3f3bf602345d15aecbc2739e8303d2c167b6db738cdd383a56f5705b5bd6080a1b8ff85c3047a23e67df82d47e9153c98f73381c4c32e9cdcceee186532467081b1185f7348b5678454089d07e90bfa712c63702895e719a9f1643cbca647a44094d370eb01d522f17d7e152b3d9984c838f3d51c55db6f5e77a2d793fc414af67baf6ca85f298d3b780f013bbdac7dd2c0acff34b4492ef042509cf86578676c38f074fbd68a748a02da30e340b3979a6a9f7bee757f7818b04e6c7a313de91c7311f502c1d215e371a9ecf700e577140ec124852bfd499d7bca10746949f55e99c1ea8627bf988935c91ed80d134aee40683e9e02e9954ca36cf2b62f2f31e2e7e8903f6f09c858b037f33197f5e5b3dbfcc81784598e287fd9974edb6705c95156405a83c8997b38b2ee21de6a6e9e1d701c29703801b8fe614c9ea6701f5098080c940f613ab59ad93aec4e880bb9c62b8df5e022aa89a86160705f186ca424105d81933eb7f91b01c7817c2e13550352812f57a6dbe38cbf79d51ceb1a8cbb09bf83667d466c5fc939cd44c2e9d68f0575131e7cb732beff0950ae97e0804c554760e12b156cd57a60836dde8272b9966dfe073975d5029f8ec7e791adf9ea015def31938e167a8d9e3cdc27568be543e8b309f03a7fe4ea5c6df56847936834264c9fa40eb0be391fb6f5a45799445b640ed853c4f2a5341c4c39d65fbb5d2c4b51e479f8d5a3ac092b11ab2742714e8bde7a166ce3f69001cb05d2904621f28dcfaa9c95c870a90a6b3d7bdd7030f1d05c3885f3d682f36c1c032ee0f97e86f574ac9831b8c4fa59bb20d03f967bc514af2e6d59ded131763aa032b86f33e75f8e290af5fe20f2800de6238810054b0d8e77991828c9713cb5b012b18babe36417eaaa3344199f97cdf281ae1f772e99a27cebe8d564b07d280a124f15d29904562394ecd7ce9546e33deebd2bf10a69ae40efa046adc318412b4f7feeeabbf160893678392de598da39243255d0c9145fc3310c7af05339ba508f4bc5295e9f841de97d80011ea22c39e63e10202b44d8d17bcb018b20114d1d571ec390437dd6c84f7ce05cbd60c9f8693d4971fc7a95a1953ffb663174eb0cdab2644490a3a4c69c969425c4f27980f9f674393b4b139feb484ecee39500eb7418de79cf3f479f8b7ddd4c95f509c374ef2e0504b212733b0f21c213364a38cf430d0e815f7d01fe81dffd2d4781c01399d0cba0b93f540e6b82f92b1f546543baaacbb691db3e52d25bfba4d158598be50b6d7dd237153e61cc73358cbc66c6458f93350d04b69c97af5c1385fc90818d4b3a7aa40a462d5cfe2bf8680d9887f0deb8f5108de5a7b263ad41a5fe5860c8bac44bb9bac758a62aaebfef5af1eb"
      ],
      "sequence": 4294967294
    }
  ],
  "vout": [
    {
      "value": 1.0,
      "n": 0,
      "scriptPubKey": {
        "asm": "OP_RETURN bc72c819d1faeda5293e3b9ecb51954e29b4722c0903c8d10b56ff8c818275be 7ffe7c0bc116b508fe46a515b265d9d30fac0af0987afc57d72940341ee2ed1d5fde5c2be1369528de6685359245f9f32f8c2ad0b85adc77f70960143ec2cd3d3fbe3c4b8156f548be06e555f22599934fec4ab0d83abc17976900745ea2ad5d1f9e1c6ba176d5689e26c575d205b9b36fcc6a90f81a9c37b74920547e828d7dff7efc8b419635887ec6259532e559538f2c8a7018fa7cd757a9c0b49e626d9ddf5edcab61b615a85ee605b512c57973af0caa5038da5cf77789e094be424dbdbf3ebccb01d675c83e8665d572a51913cf6cca3058ba3c9717e980f4de222ddd9f1e9ceb21f655e81ea645f552853933ef4cea10789a1cb737c9a0d4fe020dfd7ffe7c0bc116b508fe46a515b265d9d30fac0af0987afc57d72940341ee2ed1d5fde5c2be1369528de6685359245f9f32f8c2ad0b85adc77f70960143ec2cd3d3fbe3c4b8156f548be06e555f22599934fec4ab0d83abc17976900745ea2ad5d1f9e1c6ba176d5689e26c575d205b9b36fcc6a90f81a9c37b74920547e828d7dff7efc8b419635887ec6259532e559538f2c8a7018fa7cd757a9c0b49e626d9ddf5edcab61b615a85ee605b512c57973af0caa5038da5cf77789e094be424dbdbf3ebccb01d675c83e8665d572a51913cf6cca3058ba3c9717e980f4de222ddd9f1e9ceb21f655e81ea645f552853933ef4cea10789a1cb737c9a0d4fe020dfd7ffe7c0bc116b508fe46a515b265d9d30fac0af0987afc57d72940341ee2ed1d5fde5c2be1369528de6685359245f9f32f8c2ad0b85adc77f70960143ec2cd3d3fbe3c4b8156f548be06e555f22599934fec4ab0d83abc17976900745ea2ad5d1f9e1c6ba176d5689e26c575d205b9b36fcc6a90f81a9c37b74920547e828d7dff7efc8b419635887ec6259532e559538f2c8a7018fa7cd757a9c0b49e626d9ddf5edcab61b615a85ee605b512c57973af0caa5038da5cf77789e094be424dbdbf3ebccb01d675c83e8665d572a51913cf6cca3058ba3c9717e980f4de222ddd9f1e9ceb21f655e81ea645f552853933ef4cea10789a1cb737c9a0d4fe020dfd7ffe7c0bc116b508fe46a515b265d9d30fac0af0987afc57d72940341ee2ed1d5fde5c2be1369528de6685359245f9f32f8c2ad0b85adc77f70960143ec2cd3d3fbe3c4b8156f548be06e555f22599934fec4ab0d83abc17976900745ea2ad5d1f9e1c6ba176d5689e26c575d205b9b36fcc6a90f81a9c37b74920547e828d7dff7efc8b419635887ec6259532e559538f2c8a7018fa7cd757a9c0b49e626d9ddf5edcab61b615a85ee605b512c57973af0caa5038da5cf77789e094be424dbdbf3ebccb01d675c83e8665d572a51913cf6cca3058ba3c9717e980f4de222ddd9f1e9ceb21f655e81ea645f552853933ef4cea10789a1cb737c9a0d4fe020dfd7ffe7c0bc116b508fe46a515b265d9d30fac0af0987afc57d72940341ee2ed1d5fde5c2be1369528de6685359245f9f32f8c2ad0b85adc77f70960143ec2cd3d3fbe3c4b8156f548be06e555f22599934fec4ab0d83abc17976900745ea2ad5d1f9e1c6ba176d5689e26c575d205b9b36fcc6a90f81a9c37b74920547e828d7dff7efc8b419635887ec6259532e559539da784488fead4f36d0cae5287f7fc8cc62522dc4addd56daaa7e91f6f649534",
        "hex": "6a20bc72c819d1faeda5293e3b9ecb51954e29b4722c0903c8d10b56ff8c818275be4db0047ffe7c0bc116b508fe46a515b265d9d30fac0af0987afc57d72940341ee2ed1d5fde5c2be1369528de6685359245f9f32f8c2ad0b85adc77f70960143ec2cd3d3fbe3c4b8156f548be06e555f22599934fec4ab0d83abc17976900745ea2ad5d1f9e1c6ba176d5689e26c575d205b9b36fcc6a90f81a9c37b74920547e828d7dff7efc8b419635887ec6259532e559538f2c8a7018fa7cd757a9c0b49e626d9ddf5edcab61b615a85ee605b512c57973af0caa5038da5cf77789e094be424dbdbf3ebccb01d675c83e8665d572a51913cf6cca3058ba3c9717e980f4de222ddd9f1e9ceb21f655e81ea645f552853933ef4cea10789a1cb737c9a0d4fe020dfd7ffe7c0bc116b508fe46a515b265d9d30fac0af0987afc57d72940341ee2ed1d5fde5c2be1369528de6685359245f9f32f8c2ad0b85adc77f70960143ec2cd3d3fbe3c4b8156f548be06e555f22599934fec4ab0d83abc17976900745ea2ad5d1f9e1c6ba176d5689e26c575d205b9b36fcc6a90f81a9c37b74920547e828d7dff7efc8b419635887ec6259532e559538f2c8a7018fa7cd757a9c0b49e626d9ddf5edcab61b615a85ee605b512c57973af0caa5038da5cf77789e094be424dbdbf3ebccb01d675c83e8665d572a51913cf6cca3058ba3c9717e980f4de222ddd9f1e9ceb21f655e81ea645f552853933ef4cea10789a1cb737c9a0d4fe020dfd7ffe7c0bc116b508fe46a515b265d9d30fac0af0987afc57d72940341ee2ed1d5fde5c2be1369528de6685359245f9f32f8c2ad0b85adc77f70960143ec2cd3d3fbe3c4b8156f548be06e555f22599934fec4ab0d83abc17976900745ea2ad5d1f9e1c6ba176d5689e26c575d205b9b36fcc6a90f81a9c37b74920547e828d7dff7efc8b419635887ec6259532e559538f2c8a7018fa7cd757a9c0b49e626d9ddf5edcab61b615a85ee605b512c57973af0caa5038da5cf77789e094be424dbdbf3ebccb01d675c83e8665d572a51913cf6cca3058ba3c9717e980f4de222ddd9f1e9ceb21f655e81ea645f552853933ef4cea10789a1cb737c9a0d4fe020dfd7ffe7c0bc116b508fe46a515b265d9d30fac0af0987afc57d72940341ee2ed1d5fde5c2be1369528de6685359245f9f32f8c2ad0b85adc77f70960143ec2cd3d3fbe3c4b8156f548be06e555f22599934fec4ab0d83abc17976900745ea2ad5d1f9e1c6ba176d5689e26c575d205b9b36fcc6a90f81a9c37b74920547e828d7dff7efc8b419635887ec6259532e559538f2c8a7018fa7cd757a9c0b49e626d9ddf5edcab61b615a85ee605b512c57973af0caa5038da5cf77789e094be424dbdbf3ebccb01d675c83e8665d572a51913cf6cca3058ba3c9717e980f4de222ddd9f1e9ceb21f655e81ea645f552853933ef4cea10789a1cb737c9a0d4fe020dfd7ffe7c0bc116b508fe46a515b265d9d30fac0af0987afc57d72940341ee2ed1d5fde5c2be1369528de6685359245f9f32f8c2ad0b85adc77f70960143ec2cd3d3fbe3c4b8156f548be06e555f22599934fec4ab0d83abc17976900745ea2ad5d1f9e1c6ba176d5689e26c575d205b9b36fcc6a90f81a9c37b74920547e828d7dff7efc8b419635887ec6259532e559539da784488fead4f36d0cae5287f7fc8cc62522dc4addd56daaa7e91f6f649534",
        "type": "nulldata"
      }
    },
    {
      "value": 499997.9662,
      "n": 1,
      "scriptPubKey": {
        "asm": "1 1b5ffad5e87f4f3a15d5426ee5a45055f164a8b4ac8bf2fab5c54fe067b7f2ea",
        "hex": "51201b5ffad5e87f4f3a15d5426ee5a45055f164a8b4ac8bf2fab5c54fe067b7f2ea",
        "reqSigs": 1,
        "type": "witness_v1_scripthash",
        "addresses": [
          "3QJmnh"
        ]
      }
    }
  ],
  "blockhash": "32a2d379a33ec88ae1cb3a8a1a44f2d12b76aebf574ecf7ac16b289397ed6cd9",
  "confirmations": 1,
  "time": 1764176557,
  "blocktime": 1764176557
}