{
  "hex": "0100000000010113292d66c5a8c4494248f467567e545706d1911efbbffd69a9e14256b199ae250000000000feffffff0200e1f50500000000fdd5046a201f2e26790dd46ed69cec0eaf06a06bd729333103b7693035721a7da6d19e38b74db004f7f9eae3573563210d538978c92fa6767b0dcf973c8a7aebb6b2f103eb3e45e5d7d9cac3771543012d73a958e90f86565b2defb71caa5acb9692d123cb1e65c5b7b9aaa3177523614d13c938896fe6363b4d8fd77cca3aabf6f2b143ab7e05a597998a83375503416d33e918a94fc6161b6daff75cea1a8bd6d291638b5e258577796a63d7b5e3a18dd309f849af26f6fb8d4f17bc0afa6b363271836bbec56557594a43f795c381adf329d8698f06d6dbad6f379c2ada4b161251a34b9ee54537392a2397f5a3e1cd9349b809ef66b6bbcd0f57fc4aba2b767231c32bfe852517190a03b7d583c1edb3699829cf46969bed2f77dc6a9a0b565211e30bdea505f7f9eae3573563210d538978c92fa6767b0dcf973c8a7aebb6b2f103eb3e45e5d7d9cac3771543012d73a958e90f86565b2defb71caa5acb9692d123cb1e65c5b7b9aaa3177523614d13c938896fe6363b4d8fd77cca3aabf6f2b143ab7e05a597998a83375503416d33e918a94fc6161b6daff75cea1a8bd6d291638b5e258577796a63d7b5e3a18dd309f849af26f6fb8d4f17bc0afa6b363271836bbec56557594a43f795c381adf329d8698f06d6dbad6f379c2ada4b161251a34b9ee54537392a2397f5a3e1cd9349b809ef66b6bbcd0f57fc4aba2b767231c32bfe852517190a03b7d583c1edb3699829cf46969bed2f77dc6a9a0b565211e30bdea505f7f9eae3573563210d538978c92fa6767b0dcf973c8a7aebb6b2f103eb3e45e5d7d9cac3771543012d73a958e90f86565b2defb71caa5acb9692d123cb1e65c5b7b9aaa3177523614d13c938896fe6363b4d8fd77cca3aabf6f2b143ab7e05a597998a83375503416d33e918a94fc6161b6daff75cea1a8bd6d291638b5e258577796a63d7b5e3a18dd309f849af26f6fb8d4f17bc0afa6b363271836bbec56557594a43f795c381adf329d8698f06d6dbad6f379c2ada4b161251a34b9ee54537392a2397f5a3e1cd9349b809ef66b6bbcd0f57fc4aba2b767231c32bfe852517190a03b7d583c1edb3699829cf46969bed2f77dc6a9a0b565211e30bdea505f7f9eae3573563210d538978c92fa6767b0dcf973c8a7aebb6b2f103eb3e45e5d7d9cac3771543012d73a958e90f86565b2defb71caa5acb9692d123cb1e65c5b7b9aaa3177523614d13c938896fe6363b4d8fd77cca3aabf6f2b143ab7e05a597998a83375503416d33e918a94fc6161b6daff75cea1a8bd6d291638b5e258577796a63d7b5e3a18dd309f849af26f6fb8d4f17bc0afa6b363271836bbec56557594a43f795c381adf329d8698f06d6dbad6f379c2ada4b161251a34b9ee54537392a2397f5a3e1cd9349b809ef66b6bbcd0f57fc4aba2b767231c32bfe852517190a03b7d583c1edb3699829cf46969bed2f77dc6a9a0b565211e30bdea505f7f9eae3573563210d538978c92fa6767b0dcf973c8a7aebb6b2f103eb3e45e5d7d9cac3771543012d73a958e90f86565b2defb71caa5acb9692d123cb1e65c5b7b9aaa3177523614d13c938896fe6363b4d8fd77cca3aabf6f2b143ab7e05a597998a83375503416d33e918a94fc6161b6daff75cea1a8bd6d291638b5e258577796a63d7b5e3a18dd309f849af26f608218554850a1dc0d857983236f5cfe3805f7a258556d0229fddc74bd200ab4b00774227792d0000225120093990de084ce1aea113de81015290b205f1f76001d066156437ad233e7dff6702fd75094409ab86d937464a0451a58bd8ff4e1b5a2e0b4981d6144dbd34088385e01de812e46ff3f9d999f6dde4bcc500cb05b772ecc2b2a7fad226f2a93092d3bae9aab1a7ed9d972aad88204d457faf74171bdabb1d06bd95da28ed3522a43022ab543cd8fe4687a3264b83cbb3d052dd954f568edb1c33309c89fcc2253f6abb9f49afbf44ba60404cbe6a31a819dae0d41464efaaeeae7eca258cda563c54fcac599060d5b05ad4872163f0a7fb0e4438e60c750dafa2fd5182ea6bdc3b60f9b432f778bfdd87d7046c74685a4f303086dce3dc36bbd1c3ae2282ab37e81251752565875145d75b81cb8ccd58874c7871ae29781a4cc82e904138e6cd94086e7dd49467c5f2bad98ac30891949b70d9bdc76a4c26682341063a6b815cfa7e3c010435237a00d77939d7b49022fbf5f341095909e36803f6da38d663216039592ae2ecbb47b72d6541714655ff389429590a3753009587ed08e309b02a135f62ffb9bcd6bfa6433ce1be3ca02321ff74c93be224b3c5a9272ee8f638aca2115e53cee8a882029c37aedf500e0d42abef76402dc7d8d9c95b6b86261e81f7ba062e3a859188dabfcf81c4a1c889350a1e3a55ba40345541db66ae69548b5a53007cfcdc850e9ea894d82eef8ef98b82369d19b0c5b801715430dfbd258eee85107bda233c885d30ee03a60ac13fa9788eeca724eb7806321e0a453483113bce573c07e97eba222a6638ab5e920ad76879cbd1e7504f6f602f4a7e57d6d3bc32536cd56dc769c4fbd8ce10904da15b8c54af3e6b7ce00b67a954a8811ed5f6cf9fd51c43119ec4b32248617d8dcc5be62c3b523e52a67bae897fdd4f208d57c9fc3c19a822c6054ba9f650eaa75c1802a50ba84189b6235b3569d269d7d1339f8c143b06599e0ec13cc8a363e90d736d4253cd2e339f721190bab218568bcb43c53398b37ecb77c3196a3b1dc8f7d63ad5590e1196d8d7470204fd90ca2e72ab162dbf3996ed4f11041d5be8568ce8d53166ecfbab71a7bd48e68eaaf1561572c122e5ef6fc17078b9486c2267ed0ba7a48f2ab63fc39aad810b4df910d2d1c7de03ae9239bbdb92fc7a8341309333935a5896f549f0c8ab754823ce674bebe37597aecce8c2ef53979ea556f793382e50d7c2f86f3e5eaccdd8cb80b7faf7be70115d6767799ca00bda09938eb2abcbc1a8a91c66d072294444d4f6feaaa93821f052376c63c1e790de4fa604e5117728224ffaecaa4268887a20033caa7da2f02845ce7df615d382b629d6844cf5877ed87023430d16e5425b1c69ce6e4d8c04caa422998fce073a2d18f1b455526fe8e201c005cfdcb21813662f48f5ae58d3e8c208c69a0fae897da457e8e9f595d6ed93a42b4858ee90c66c07a0c79178f11bb563575cb67b93a5e3d05fba49c241ac1a494c8906ce47fbe927409513cc705572b9f284950762ff168802161aec6365dcd2e293a4e73fdbb04af64b470e430be57301dad842bd3bc7c694f7365d38d1a9627bacf5608d567679cf18e137828c809297f3f78cf1f85d8ce8ea856e25aab33b280f1c5240a7e90b9a925b6dc1b1f76dfded6e4f27a3048e67fd585aecf7ac5e02e3e25f4c4773c6f886d523dd5cfe4374a2a5640f8fe281247c0941e14235fc35e2c6940e6d91eea94cf52e53bc12649a0f97ad9dd7686334ed4742ca66adf49d1df68d6cdbd40dccbef936540c0e9a16686b3195300ff15136999917311b75a27fde0985e5c07d501c14bbb29c556681bec5a7afdc5948d007b901b7aecae08a8ae1ebdbe6ddf57bc3ddc9cde7f8ed2635dabf313f19d097748a667f2b5325a4062630857569ad7da6dd89d640d090b5640c9b7ddaf47df0fa25f3de57c4467dab454d1d54bb912428cfffc7ca78441bc6d4441cd486b2fa60932106be117248d1bcc50b28b988a09a6a316e60a52690c81d0ebfaf2cc8f1bc4864b2c3fd8d2107d2fc2d91c862bb1fcd6360ea9c01e47c44536cea8e2d7107c5c007a2e3f2bdf24804a56474c9eae9927cf0aab35d60973dc8b1c0e438e63d2292bc74fdca75473dd9d2462d11c57d5046bc4e7b7e731be51a0f1db24945f7345fedb94f8b4381227de940a4893d67ccc3b3894036eb698d7b0d4f7e49a96b933071a1a4572337ff2ba06dc6742f9931f008d9196b6a4ccc022fb68ed53010712de7432b72f6585d267ef77c1c80a38fc07261fe9f43fd078d029460bcb08f8e654b3a4ba20df5319d262b0452a89d7b240e64919a17145cd89c59729da3b09689d22f53e45056c717ab37025b7394e326f10346e93ab3cb1251f66e8d12f9f192af8d2b01d0e913de861c146afa879f463b280efb08f1092c35fe5b21bfb970d06785ea2085f80ef27be6e0c96873f0b5db50723902569b536179e28077ae749617e4cb16fb1a3929de1d6365a733ff7dc50835c5c72e711c5c0720cb007ce4b5e0ba5c072424c737ceac836ec012574e9fa59d5d9e0ff57365c4751fee4849a376ed28d9d754c95e53ef8d90c1a17e042bcb6306be84c210c57b0d953dfecdf2307317e9efa2a192f00d5122ae3b7107f5db9e54b3c89a884cff4e46d86edf41490f3fffeafb7e0e6ce5bce9e5c628a3177ad1fda559339a41224bf0b4dbf7072bebb40d1f445f9ef620ca66830ec3da3e6786315510ef7eb92744ceb3c6d3481f6529e428cee49fad917d3bc238ffc40418cfac3fbb6d9f400966e30cdc3107de9f4707900457cfa8e81e524bb4d3be1564abb88e9215b7035622982d204fc125fd37630c4f374c3d84046d72a80bb45340458032f3dcbf1b72f3ba0a6c5af5fea1096edfd4b95b8d0afc1305844b547495ca4328013c1a28b05966225055f62da2171254462abd02a0fdde900b38e79547a0d29bf6a224725693376fd9b8a004a5f696e88ae3d5c85b280bde4df649472d726c5a286327b5c4593c3fa31f967674cae0f3de31a4080db911c0d1376be69396f8598e57aec7c25d136fa8790235f41a11c4e1b2e6d9bf965678f452f0d4819bb3da846221763a68818d0d1c5941457363e8473935ce31ffd112f79703b9252223c13f3baaac782cbea16bc4cbed64b9e0d3958e71e1fb41d4f38cbac72e952772c075488dfa693a32b49791160347b50973f708cfc5dbe6445dcfae6823a32c3d8f00c9a98fcb7ecbfa4352150c37f92bd0341ea22863c64e822ee8f5b4ebb625c7cf32acb119ef951f05d40d21b12266c94bbb6e7a27d1409bfe441d2cd8bf28a31d2d0560e55736301d4a36ec7327aa3213e01d31a1319b9e229d2fe75ddf01171d25384344485d66689db4c1c9cdf7fc2b466a8c96aac7cacbced4eef10622395662798284909aa1b3bbbccddde5f2fa0e1417181d1f27282a3338415a8d9599b0c6c7cad9dced00000000000000121f324901fd210500cb8e99cb95e95d1c7d4b8ffced6b89f90ea363887bc6428de5736210eda94a7669ce9e1832153ea1f28e60ca7e16db8b5f920d06ea9b48852dfc3ad5ef57482f01bce2b5babd36e8e9a6af849da05e296551d4a83a2ad267047f4dc0f5e10dc5fc7bdf999bcaa8198c3fb1e1fced194ff95472a7870d2aebef608b5f4f55f40fabb15e0c05a172dec80d95ce9dd8a8049a8ac3796bebcd8609156347d372d8b61551cd7c03f5ea63f6bb0f8e0ed3836b517e4d8aa9a2dc0f508e5312c0182dc08ba2b71fdfbcacee96cd3f29da6a67a447114fe5ec67c6c7a473231cc2243ca8756e7b7a8e96c775f6fbcfe812c10429120a982b166d0ffbf2aeb433a9b120b55623e080ff01a029c167e8a6587cf8d519c4bb9b2e5b08744661876a7da6cc3a4fa83fb003073e47d3ae312c3a235ca2657ceadf9e6750947a8819833844e49784b4a6b5c5fa302b880ea91fac80acc9fad7716cfa01c46f768c6f912aee5d478383e4f7afd7075aefd9ab8499cb60d73eb519788d0fe0309f8ae4dd7c1cda3f20c3650acf3c920bf4d0992d3481cab0f343e2266f326269facbb4b8e8ba30512baf53d9e58bfe209df5c3fcf0ab050721a7634a8c77c41ae671eeb137694784c704641c8a5a3450f86e2c1c7bfec9a143212950c5bf52f14a77228cfce4faa353c936b066c7d0fa57a857468150404dc8de3c10bad8798bd90cc12460e78129aa9521ed70327a1c25a61a8ce92f489382f1aef63e8a100ca1085140a9b7aee2c8079c281bd8cf654c22737d5af9beb1b2caf8915876b11715dac8ab0fd96a6c2423a81952c73d2fb38f7e2ce4f24fc6349923a389afafc5c6aca40d8460ee51fdbc2f77fbe80d2724bf23bcb5a4a51f53748c721ff00e8622e5e1b1a9c113a923837014b55414b35fe4c9f3bb3ee1116e4851bd7e93b823384835dcc5d7b4f9de18851ea4884966925a0da4f4a70f7564bb001b573a32eeaa8418d66f7011b9d568383bc4b7a07493ebc491fe561094e4c8cb8e7d98c56b4670f16a9de0394b4714862593a3bfae2ff3ceff296dd9f12d8c2c51d53b61c630a10cdec858cee7bdb40063d387033b01a747a3dd14a38d7a6f595a9f60906369b5c5b92d021013c32f7c4e2cf4fa022aa5ddb9414f42e0f859d110786888e3fb8710749648a882f68c2bd801eff59384dee9b0ab4261b2b1d3f527136aaf4ab0e8aeac27cc9f01f520cb4e5b66fafa0db5e250462204f1054f0ade2de9a4becec048dfab8cb7c0b6b191280698274c9b52642d3a435527538747e855eed1f2e95901cde1090e0d32cad9de7953aa2d1c3c9db11f4e7e937c6d823a5955c84994bf62fe725c3c36280a68a66ba16f8e64d1ecbe986d96c1996164baba08f13c0b8c87e7c3ef39944b2959e3608a28e004ffece6d6fecf9caed3df1a67286196d83af103a1f3d75912565544ddead4e93f8aab996c76eff779b7d2d6c389eb9152022c0b8363a15e82570c952768f770a683744ed7fe712e03a1d7ed6b7f1ea23e465f6d6eb01bef6d41b6dcdb2133edbd2cb50fddd5405a024e764b1cad458040da4061bebe29fdb204135468671579ac0cd697da89e56834de20b1c2ce4f5d5b60cb4c65bd4c5eaa0628cecfe715ac358cc66180f98bd73113a7136deebee4f939e8d5f45f72e40d18bfe07c026f6af8273e9700e110474342e23b3c8ea551d114ba0ea3eb06062ac222aaa8bd537e8df1b81e5befc3e31bfbbf0c25a4addc695a4779958b08e8064cbf53f5d095c42f28970b5e405e879b9ef74b80a2b9784812c04261454412f76a6876c46875f8e7597deac93dce0e4398d79f06118a3c50cd571fe251c56472000000",
  "txid": "a366ed97f9977999acc20e93371141786d63484c9f81b339d1226153095c334d",
  "hash": "5a957083fd3b4f47fd283900586ce085141a22c80694fb7249a9fcba1ef0d3a6",
  "size": 5085,
  "vsize": 2278,
  "version": 1,
  "locktime": 114,
  "vin": [
    {
      "txid": "25ae99b15642e1a969fdbffb1e91d10657547e5667f4484249c4a8c5662d2913",
      "vout": 0,
      "scriptSig": {
        "asm": "",
        "hex": ""
      },
      "txinwitness": [
        "4409ab86d937464a0451a58bd8ff4e1b5a2e0b4981d6144dbd34088385e01de812e46ff3f9d999f6dde4bcc500cb05b772ecc2b2a7fad226f2a93092d3bae9aab1a7ed9d972aad88204d457faf74171bdabb1d06bd95da28ed3522a43022ab543cd8fe4687a3264b83cbb3d052dd954f568edb1c33309c89fcc2253f6abb9f49afbf44ba60404cbe6a31a819dae0d41464efaaeeae7eca258cda563c54fcac599060d5b05ad4872163f0a7fb0e4438e60c750dafa2fd5182ea6bdc3b60f9b432f778bfdd87d7046c74685a4f303086dce3dc36bbd1c3ae2282ab37e81251752565875145d75b81cb8ccd58874c7871ae29781a4cc82e904138e6cd94086e7dd49467c5f2bad98ac30891949b70d9bdc76a4c26682341063a6b815cfa7e3c010435237a00d77939d7b49022fbf5f341095909e36803f6da38d663216039592ae2ecbb47b72d6541714655ff389429590a3753009587ed08e309b02a135f62ffb9bcd6bfa6433ce1be3ca02321ff74c93be224b3c5a9272ee8f638aca2115e53cee8a882029c37aedf500e0d42abef76402dc7d8d9c95b6b86261e81f7ba062e3a859188dabfcf81c4a1c889350a1e3a55ba40345541db66ae69548b5a53007cfcdc850e9ea894d82eef8ef98b82369d19b0c5b801715430dfbd258eee85107bda233c885d30ee03a60ac13fa9788eeca724eb7806321e0a453483113bce573c07e97eba222a6638ab5e920ad76879cbd1e7504f6f602f4a7e57d6d3bc32536cd56dc769c4fbd8ce10904da15b8c54af3e6b7ce00b67a954a8811ed5f6cf9fd51c43119ec4b32248617d8dcc5be62c3b523e52a67bae897fdd4f208d57c9fc3c19a822c6054ba9f650eaa75c1802a50ba84189b6235b3569d269d7d1339f8c143b06599e0ec13cc8a363e90d736d4253cd2e339f721190bab218568bcb43c53398b37ecb77c3196a3b1dc8f7d63ad5590e1196d8d7470204fd90ca2e72ab162dbf3996ed4f11041d5be8568ce8d53166ecfbab71a7bd48e68eaaf1561572c122e5ef6fc17078b9486c2267ed0ba7a48f2ab63fc39aad810b4df910d2d1c7de03ae9239bbdb92fc7a8341309333935a5896f549f0c8ab754823ce674bebe37597aecce8c2ef53979ea556f793382e50d7c2f86f3e5eaccdd8cb80b7faf7be70115d6767799ca00bda09938eb2abcbc1a8a91c66d072294444d4f6feaaa93821f052376c63c1e790de4fa604e5117728224ffaecaa4268887a20033caa7da2f02845ce7df615d382b629d6844cf5877ed87023430d16e5425b1c69ce6e4d8c04caa422998fce073a2d18f1b455526fe8e201c005cfdcb21813662f48f5ae58d3e8c208c69a0fae897da457e8e9f595d6ed93a42b4858ee90c66c07a0c79178f11bb563575cb67b93a5e3d05fba49c241ac1a494c8906ce47fbe927409513cc705572b9f284950762ff168802161aec6365dcd2e293a4e73fdbb04af64b470e430be57301dad842bd3bc7c694f7365d38d1a9627bacf5608d567679cf18e137828c809297f3f78cf1f85d8ce8ea856e25aab33b280f1c5240a7e90b9a925b6dc1b1f76dfded6e4f27a3048e67fd585aecf7ac5e02e3e25f4c4773c6f886d523dd5cfe4374a2a5640f8fe281247c0941e14235fc35e2c6940e6d91eea94cf52e53bc12649a0f97ad9dd7686334ed4742ca66adf49d1df68d6cdbd40dccbef936540c0e9a16686b3195300ff15136999917311b75a27fde0985e5c07d501c14bbb29c556681bec5a7afdc5948d007b901b7aecae08a8ae1ebdbe6ddf57bc3ddc9cde7f8ed2635dabf313f19d097748a667f2b5325a4062630857569ad7da6dd89d640d090b5640c9b7ddaf47df0fa25f3de57c4467dab454d1d54bb912428cfffc7ca78441bc6d4441cd486b2fa60932106be117248d1bcc50b28b988a09a6a316e60a52690c81d0ebfaf2cc8f1bc4864b2c3fd8d2107d2fc2d91c862bb1fcd6360ea9c01e47c44536cea8e2d7107c5c007a2e3f2bdf24804a56474c9eae9927cf0aab35d60973dc8b1c0e438e63d2292bc74fdca75473dd9d2462d11c57d5046bc4e7b7e731be51a0f1db24945f7345fedb94f8b4381227de940a4893d67ccc3b3894036eb698d7b0d4f7e49a96b933071a1a4572337ff2ba06dc6742f9931f008d9196b6a4ccc022fb68ed53010712de7432b72f6585d267ef77c1c80a38fc07261fe9f43fd078d029460bcb08f8e654b3a4ba20df5319d262b0452a89d7b240e64919a17145cd89c59729da3b09689d22f53e45056c717ab37025b7394e326f10346e93ab3cb1251f66e8d12f9f192af8d2b01d0e913de861c146afa879f463b280efb08f1092c35fe5b21bfb970d06785ea2085f80ef27be6e0c96873f0b5db50723902569b536179e28077ae749617e4cb16fb1a3929de1d6365a733ff7dc50835c5c72e711c5c0720cb007ce4b5e0ba5c072424c737ceac836ec012574e9fa59d5d9e0ff57365c4751fee4849a376ed28d9d754c95e53ef8d90c1a17e042bcb6306be84c210c57b0d953dfecdf2307317e9efa2a192f00d5122ae3b7107f5db9e54b3c89a884cff4e46d86edf41490f3fffeafb7e0e6ce5bce9e5c628a3177ad1fda559339a41224bf0b4dbf7072bebb40d1f445f9ef620ca66830ec3da3e6786315510ef7eb92744ceb3c6d3481f6529e428cee49fad917d3bc238ffc40418cfac3fbb6d9f400966e30cdc3107de9f4707900457cfa8e81e524bb4d3be1564abb88e9215b7035622982d204fc125fd37630c4f374c3d84046d72a80bb45340458032f3dcbf1b72f3ba0a6c5af5fea1096edfd4b95b8d0afc1305844b547495ca4328013c1a28b05966225055f62da2171254462abd02a0fdde900b38e79547a0d29bf6a224725693376fd9b8a004a5f696e88ae3d5c85b280bde4df649472d726c5a286327b5c4593c3fa31f967674cae0f3de31a4080db911c0d1376be69396f8598e57aec7c25d136fa8790235f41a11c4e1b2e6d9bf965678f452f0d4819bb3da846221763a68818d0d1c5941457363e8473935ce31ffd112f79703b9252223c13f3baaac782cbea16bc4cbed64b9e0d3958e71e1fb41d4f38cbac72e952772c075488dfa693a32b49791160347b50973f708cfc5dbe6445dcfae6823a32c3d8f00c9a98fcb7ecbfa4352150c37f92bd0341ea22863c64e822ee8f5b4ebb625c7cf32acb119ef951f05d40d21b12266c94bbb6e7a27d1409bfe441d2cd8bf28a31d2d0560e55736301d4a36ec7327aa3213e01d31a1319b9e229d2fe75ddf01171d25384344485d66689db4c1c9cdf7fc2b466a8c96aac7cacbced4eef10622395662798284909aa1b3bbbccddde5f2fa0e1417181d1f27282a3338415a8d9599b0c6c7cad9dced00000000000000121f324901",
        "00cb8e99cb95e95d1c7d4b8ffced6b89f90ea363887bc6428de5736210eda94a7669ce9e1832153ea1f28e60ca7e16db8b5f920d06ea9b48852dfc3ad5ef57482f01bce2b5babd36e8e9a6af849da05e296551d4a83a2ad267047f4dc0f5e10dc5fc7bdf999bcaa8198c3fb1e1fced194ff95472a7870d2aebef608b5f4f55f40fabb15e0c05a172dec80d95ce9dd8a8049a8ac3796bebcd8609156347d372d8b61551cd7c03f5ea63f6bb0f8e0ed3836b517e4d8aa9a2dc0f508e5312c0182dc08ba2b71fdfbcacee96cd3f29da6a67a447114fe5ec67c6c7a473231cc2243ca8756e7b7a8e96c775f6fbcfe812c10429120a982b166d0ffbf2aeb433a9b120b55623e080ff01a029c167e8a6587cf8d519c4bb9b2e5b08744661876a7da6cc3a4fa83fb003073e47d3ae312c3a235ca2657ceadf9e6750947a8819833844e49784b4a6b5c5fa302b880ea91fac80acc9fad7716cfa01c46f768c6f912aee5d478383e4f7afd7075aefd9ab8499cb60d73eb519788d0fe0309f8ae4dd7c1cda3f20c3650acf3c920bf4d0992d3481cab0f343e2266f326269facbb4b8e8ba30512baf53d9e58bfe209df5c3fcf0ab050721a7634a8c77c41ae671eeb137694784c704641c8a5a3450f86e2c1c7bfec9a143212950c5bf52f14a77228cfce4faa353c936b066c7d0fa57a857468150404dc8de3c10bad8798bd90cc12460e78129aa9521ed70327a1c25a61a8ce92f489382f1aef63e8a100ca1085140a9b7aee2c8079c281bd8cf654c22737d5af9beb1b2caf8915876b11715dac8ab0fd96a6c2423a81952c73d2fb38f7e2ce4f24fc6349923a389afafc5c6aca40d8460ee51fdbc2f77fbe80d2724bf23bcb5a4a51f53748c721ff00e8622e5e1b1a9c113a923837014b55414b35fe4c9f3bb3ee1116e4851bd7e93b823384835dcc5d7b4f9de18851ea4884966925a0da4f4a70f7564bb001b573a32eeaa8418d66f7011b9d568383bc4b7a07493ebc491fe561094e4c8cb8e7d98c56b4670f16a9de0394b4714862593a3bfae2ff3ceff296dd9f12d8c2c51d53b61c630a10cdec858cee7bdb40063d387033b01a747a3dd14a38d7a6f595a9f60906369b5c5b92d021013c32f7c4e2cf4fa022aa5ddb9414f42e0f859d110786888e3fb8710749648a882f68c2bd801eff59384dee9b0ab4261b2b1d3f527136aaf4ab0e8aeac27cc9f01f520cb4e5b66fafa0db5e250462204f1054f0ade2de9a4becec048dfab8cb7c0b6b191280698274c9b52642d3a435527538747e855eed1f2e95901cde1090e0d32cad9de7953aa2d1c3c9db11f4e7e937c6d823a5955c84994bf62fe725c3c36280a68a66ba16f8e64d1ecbe986d96c1996164baba08f13c0b8c87e7c3ef39944b2959e3608a28e004ffece6d6fecf9caed3df1a67286196d83af103a1f3d75912565544ddead4e93f8aab996c76eff779b7d2d6c389eb9152022c0b8363a15e82570c952768f770a683744ed7fe712e03a1d7ed6b7f1ea23e465f6d6eb01bef6d41b6dcdb2133edbd2cb50fddd5405a024e764b1cad458040da4061bebe29fdb204135468671579ac0cd697da89e56834de20b1c2ce4f5d5b60cb4c65bd4c5eaa0628cecfe715ac358cc66180f98bd73113a7136deebee4f939e8d5f45f72e40d18bfe07c026f6af8273e9700e110474342e23b3c8ea551d114ba0ea3eb06062ac222aaa8bd537e8df1b81e5befc3e31bfbbf0c25a4addc695a4779958b08e8064cbf53f5d095c42f28970b5e405e879b9ef74b80a2b9784812c04261454412f76a6876c46875f8e7597deac93dce0e4398d79f06118a3c50cd571fe251c564"
      ],
      "sequence": 4294967294
    }
  ],
  "vout": [
    {
      "value": 1.0,
      "n": 0,
      "scriptPubKey": {
        "asm": "OP_RETURN 1f2e26790dd46ed69cec0eaf06a06bd729333103b7693035721a7da6d19e38b7 f7f9eae3573563210d538978c92fa6767b0dcf973c8a7aebb6b2f103eb3e45e5d7d9cac3771543012d73a958e90f86565b2defb71caa5acb9692d123cb1e65c5b7b9aaa3177523614d13c938896fe6363b4d8fd77cca3aabf6f2b143ab7e05a597998a83375503416d33e918a94fc6161b6daff75cea1a8bd6d291638b5e258577796a63d7b5e3a18dd309f849af26f6fb8d4f17bc0afa6b363271836bbec56557594a43f795c381adf329d8698f06d6dbad6f379c2ada4b161251a34b9ee54537392a2397f5a3e1cd9349b809ef66b6bbcd0f57fc4aba2b767231c32bfe852517190a03b7d583c1edb3699829cf46969bed2f77dc6a9a0b565211e30bdea505f7f9eae3573563210d538978c92fa6767b0dcf973c8a7aebb6b2f103eb3e45e5d7d9cac3771543012d73a958e90f86565b2defb71caa5acb9692d123cb1e65c5b7b9aaa3177523614d13c938896fe6363b4d8fd77cca3aabf6f2b143ab7e05a597998a83375503416d33e918a94fc6161b6daff75cea1a8bd6d291638b5e258577796a63d7b5e3a18dd309f849af26f6fb8d4f17bc0afa6b363271836bbec56557594a43f795c381adf329d8698f06d6dbad6f379c2ada4b161251a34b9ee54537392a2397f5a3e1cd9349b809ef66b6bbcd0f57fc4aba2b767231c32bfe852517190a03b7d583c1edb3699829cf46969bed2f77dc6a9a0b565211e30bdea505f7f9eae3573563210d538978c92fa6767b0dcf973c8a7aebb6b2f103eb3e45e5d7d9cac3771543012d73a958e90f86565b2defb71caa5acb9692d123cb1e65c5b7b9aaa3177523614d13c938896fe6363b4d8fd77cca3aabf6f2b143ab7e05a597998a83375503416d33e918a94fc6161b6daff75cea1a8bd6d291638b5e258577796a63d7b5e3a18dd309f849af26f6fb8d4f17bc0afa6b363271836bbec56557594a43f795c381adf329d8698f06d6dbad6f379c2ada4b161251a34b9ee54537392a2397f5a3e1cd9349b809ef66b6bbcd0f57fc4aba2b767231c32bfe852517190a03b7d583c1edb3699829cf46969bed2f77dc6a9a0b565211e30bdea505f7f9eae3573563210d538978c92fa6767b0dcf973c8a7aebb6b2f103eb3e45e5d7d9cac3771543012d73a958e90f86565b2defb71caa5acb9692d123cb1e65c5b7b9aaa3177523614d13c938896fe6363b4d8fd77cca3aabf6f2b143ab7e05a597998a83375503416d33e918a94fc6161b6daff75cea1a8bd6d291638b5e258577796a63d7b5e3a18dd309f849af26f6fb8d4f17bc0afa6b363271836bbec56557594a43f795c381adf329d8698f06d6dbad6f379c2ada4b161251a34b9ee54537392a2397f5a3e1cd9349b809ef66b6bbcd0f57fc4aba2b767231c32bfe852517190a03b7d583c1edb3699829cf46969bed2f77dc6a9a0b565211e30bdea505f7f9eae3573563210d538978c92fa6767b0dcf973c8a7aebb6b2f103eb3e45e5d7d9cac3771543012d73a958e90f86565b2defb71caa5acb9692d123cb1e65c5b7b9aaa3177523614d13c938896fe6363b4d8fd77cca3aabf6f2b143ab7e05a597998a83375503416d33e918a94fc6161b6daff75cea1a8bd6d291638b5e258577796a63d7b5e3a18dd309f849af26f608218554850a1dc0d857983236f5cfe3805f7a258556d0229fddc74bd200ab4b",
        "hex": "6a201f2e26790dd46ed69cec0eaf06a06bd729333103b7693035721a7da6d19e38b74db004f7f9eae3573563210d538978c92fa6767b0dcf973c8a7aebb6b2f103eb3e45e5d7d9cac3771543012d73a958e90f86565b2defb71caa5acb9692d123cb1e65c5b7b9aaa3177523614d13c938896fe6363b4d8fd77cca3aabf6f2b143ab7e05a597998a83375503416d33e918a94fc6161b6daff75cea1a8bd6d291638b5e258577796a63d7b5e3a18dd309f849af26f6fb8d4f17bc0afa6b363271836bbec56557594a43f795c381adf329d8698f06d6dbad6f379c2ada4b161251a34b9ee54537392a2397f5a3e1cd9349b809ef66b6bbcd0f57fc4aba2b767231c32bfe852517190a03b7d583c1edb3699829cf46969bed2f77dc6a9a0b565211e30bdea505f7f9eae3573563210d538978c92fa6767b0dcf973c8a7aebb6b2f103eb3e45e5d7d9cac3771543012d73a958e90f86565b2defb71caa5acb9692d123cb1e65c5b7b9aaa3177523614d13c938896fe6363b4d8fd77cca3aabf6f2b143ab7e05a597998a83375503416d33e918a94fc6161b6daff75cea1a8bd6d291638b5e258577796a63d7b5e3a18dd309f849af26f6fb8d4f17bc0afa6b363271836bbec56557594a43f795c381adf329d8698f06d6dbad6f379c2ada4b161251a34b9ee54537392a2397f5a3e1cd9349b809ef66b6bbcd0f57fc4aba2b767231c32bfe852517190a03b7d583c1edb3699829cf46969bed2f77dc6a9a0b565211e30bdea505f7f9eae3573563210d538978c92fa6767b0dcf973c8a7aebb6b2f103eb3e45e5d7d9cac3771543012d73a958e90f86565b2defb71caa5acb9692d123cb1e65c5b7b9aaa3177523614d13c938896fe6363b4d8fd77cca3aabf6f2b143ab7e05a597998a83375503416d33e918a94fc6161b6daff75cea1a8bd6d291638b5e258577796a63d7b5e3a18dd309f849af26f6fb8d4f17bc0afa6b363271836bbec56557594a43f795c381adf329d8698f06d6dbad6f379c2ada4b161251a34b9ee54537392a2397f5a3e1cd9349b809ef66b6bbcd0f57fc4aba2b767231c32bfe852517190a03b7d583c1edb3699829cf46969bed2f77dc6a9a0b565211e30bdea505f7f9eae3573563210d538978c92fa6767b0dcf973c8a7aebb6b2f103eb3e45e5d7d9cac3771543012d73a958e90f86565b2defb71caa5acb9692d123cb1e65c5b7b9aaa3177523614d13c938896fe6363b4d8fd77cca3aabf6f2b143ab7e05a597998a83375503416d33e918a94fc6161b6daff75cea1a8bd6d291638b5e258577796a63d7b5e3a18dd309f849af26f6fb8d4f17bc0afa6b363271836bbec56557594a43f795c381adf329d8698f06d6dbad6f379c2ada4b161251a34b9ee54537392a2397f5a3e1cd9349b809ef66b6bbcd0f57fc4aba2b767231c32bfe852517190a03b7d583c1edb3699829cf46969bed2f77dc6a9a0b565211e30bdea505f7f9eae3573563210d538978c92fa6767b0dcf973c8a7aebb6b2f103eb3e45e5d7d9cac3771543012d73a958e90f86565b2defb71caa5acb9692d123cb1e65c5b7b9aaa3177523614d13c938896fe6363b4d8fd77cca3aabf6f2b143ab7e05a597998a83375503416d33e918a94fc6161b6daff75cea1a8bd6d291638b5e258577796a63d7b5e3a18dd309f849af26f608218554850a1dc0d857983236f5cfe3805f7a258556d0229fddc74bd200ab4b",
        "type": "nulldata"
      }
    },
    {
      "value": 499983.7296,
      "n": 1,
      "scriptPubKey": {
        "asm": "1 093990de084ce1aea113de81015290b205f1f76001d066156437ad233e7dff67",
        "hex": "5120093990de084ce1aea113de81015290b205f1f76001d066156437ad233e7dff67",
        "reqSigs": 1,
        "type": "witness_v1_scripthash",
        "addresses": [
          "3QJmnh"
        ]
      }
    }
  ],
  "blockhash": "a404c97fd79b0f74ac8935f18e4afcd6ffd73e4b441b9f6bd67a7215b8c8499e",
  "confirmations": 1,
  "time": 1764178774,
  "blocktime": 1764178774
}