{
  "hex": "010000000001012acac6fb7abf6501ce40cf1e1b6537f0694ad11cd848701f1aab4dad2df7b09f0000000000feffffff026024ab89782d0000225120171e558e1f1ec19acbc9cd93b885d13d48f2aa83a2b309f220b0c8e1d347dfd900e1f50500000000fdd5046a201dbb997aadbe79fc331d04500e89a361dfa7a3920e9aec4816d070cdb8d8b7314db004429997fc2400dbdc9f90622f66026c53c00229f8fba7fc151000c4be04a5b7f262b9b7dc0420fbfcbfb0420f46224c73e02209d8db87dc353020e49e248597d202d9d7bc64409b9cdfd0226f26422c13804269b8bbe7bc55504084fe44e5f7b222f9f79c4460bbbcfff0024f06620c33a06249989bc79c757060a4de64c5d792c219177ca4805b5c1f10e2afe682ecd34082a9787b277c959080443e84253772e239375c84a07b7c3f30c28fc6a2ccf360a289585b075cb5b0a0641ea40517528259573ce4c01b1c5f50a2efa6c2ac9300c2e9383b673cd5d0c0047ec4657732a279771cc4e03b3c7f7082cf86e28cb320e2c9181b471cf5f0e0245ee4455712429997fc2400dbdc9f90622f66026c53c00229f8fba7fc151000c4be04a5b7f262b9b7dc0420fbfcbfb0420f46224c73e02209d8db87dc353020e49e248597d202d9d7bc64409b9cdfd0226f26422c13804269b8bbe7bc55504084fe44e5f7b222f9f79c4460bbbcfff0024f06620c33a06249989bc79c757060a4de64c5d792c219177ca4805b5c1f10e2afe682ecd34082a9787b277c959080443e84253772e239375c84a07b7c3f30c28fc6a2ccf360a289585b075cb5b0a0641ea40517528259573ce4c01b1c5f50a2efa6c2ac9300c2e9383b673cd5d0c0047ec4657732a279771cc4e03b3c7f7082cf86e28cb320e2c9181b471cf5f0e0245ee4455712429997fc2400dbdc9f90622f66026c53c00229f8fba7fc151000c4be04a5b7f262b9b7dc0420fbfcbfb0420f46224c73e02209d8db87dc353020e49e248597d202d9d7bc64409b9cdfd0226f26422c13804269b8bbe7bc55504084fe44e5f7b222f9f79c4460bbbcfff0024f06620c33a06249989bc79c757060a4de64c5d792c219177ca4805b5c1f10e2afe682ecd34082a9787b277c959080443e84253772e239375c84a07b7c3f30c28fc6a2ccf360a289585b075cb5b0a0641ea40517528259573ce4c01b1c5f50a2efa6c2ac9300c2e9383b673cd5d0c0047ec4657732a279771cc4e03b3c7f7082cf86e28cb320e2c9181b471cf5f0e0245ee4455712429997fc2400dbdc9f90622f66026c53c00229f8fba7fc151000c4be04a5b7f262b9b7dc0420fbfcbfb0420f46224c73e02209d8db87dc353020e49e248597d202d9d7bc64409b9cdfd0226f26422c13804269b8bbe7bc55504084fe44e5f7b222f9f79c4460bbbcfff0024f06620c33a06249989bc79c757060a4de64c5d792c219177ca4805b5c1f10e2afe682ecd34082a9787b277c959080443e84253772e239375c84a07b7c3f30c28fc6a2ccf360a289585b075cb5b0a0641ea40517528259573ce4c01b1c5f50a2efa6c2ac9300c2e9383b673cd5d0c0047ec4657732a279771cc4e03b3c7f7082cf86e28cb320e2c9181b471cf5f0e0245ee4455712429997fc2400dbdc9f90622f66026c53c00229f8fba7fc151000c4be04a5b7f262b9b7dc0420fbfcbfb0420f46224c73e02209d8db87dc353020e49e248597d202d9d7bc64409b9cdfd0226f26422c13804269b8bbe7bc55504084fe44e5f7b222f9f79c4460bbbcfff0024f06620c33a06249989bc79c757060a4de64c5d792c219177ca4805b5c1f10e2afe682ecd327533ae517c19e768d682ee5e017277bab4cfbe1d99dcd7309493b3160b56e5202fd7509cbd38f27054ecf5b5a0b40314721c80980197648116369763d9e6e51d71467378a55d3dcc21283384b25a1d5b19ed2edb948b306e5a573df9f23ebd3047e4e7f911b65d6b5d85bbb973d5485f9fae7123d1b4327a330d9564caa6372620233396d5bdd7091658e1c4a2776f1c1c47af97eca212bc649efc8ac53a87a74d09d8eefa860ee68eae89faeb02fbb22f821fc48e75a8c3db75dfd91db9da664ecb7caf7f90e0d0577129d155421a7c86b3369354b6c3c39a426acc08e917c458992566282f7c870026a72ceeb3e99cbb2ae50807c1230edac62c71516afae80445e25e9fdd7a3374c3e7e82f6c19aaa6b089c236803cd6541887d4e15f965cbb3b59bc658ab8ee5fb40043817f15e46db4b8042775427ab01a946c988130d01b6ae4296997e8798e4f4229f22a216199a8dd2ddc8c375e2bc0efe81ba2e43dc74c8bf85d3a3df36691641cb6d707c7cbb60237c67cb1f445181ecd07990493706842f159f0a801ad0deae2ace545f1a365c030b0a7b2b5ffff1d1d7d132f6d79e679b6edaaedf46133fef4591c8132d3a363c8856f4fd9dfde8c4e173e6e13ef59e23b07ef0e7f82aa549a302e952795766d4b44196352ee0bc883f9cfe2f3b0b748e56c5fd3298fb1fc13522d68bfd931f274ba728736c6fb64f4d74ffd29f45f66f62c126c565cecd14cbc0b4e88a12e8f372d5ea88d2e0716e3e2390caf0a7ad8406f5888a7cde7b7e3fa8d1f33482a644a58c18b3bf93f0bb91c40388c2f9010964539d0df778fd7c119bb670a6422dccf0ff76be48bf9b1624af2e491390c3286e85563749203dc371249a4fe5216fcd84efcfb47d80df68faffd0a2765bc1cbc56d114d05dd4b343ced4f42c376b292f0f4654bf1df3b914b407147acae7d90d7aefac39673190c5053f1896db8e75c02f2d11376f421c3f4e237fb4f2ee59adf8f38f40b3ac7d3614e76738c1c96e82b3d4158a4c9109d2af82c0112b397a5cd84f4c186c07579d45bc609681e52df152853c24d9c533562e2ca7bfbeef9e854fe99857a5fd351c365497953792a0797e029dd7df2a7259cf916222c6488e586534079b9d554c5297ff7bb188ef6e8a94022c6d5b593fddf08cda3be792dc493730d634fc71f5795db254027b8c2e2c8046d405e285f8e703765e3f9770b3b492914dc7818b03a3c9af1fa10cebcb87b171819bcf51ddb6b8bfd19a80da6903bbeac943057ff567fe1f7c918e317ebad28a27f8e45daa4c180537b1a62bb77ea0013d601f38aa3cb4e7587533720228a684e5fb5e1229ba41fae5e78f3d4069992c9e42fe3188bce73f393ecbf89caa70712a7dbcbd7164a153d878631d69a15bc03b1ee2225093acd0117608ac9da44406bc1146452849cd71a74c6c56c69327664cc79bdf7a89c36762fc30cf22f69cdc63a237953ac56046110057796073ae3f41593b4c05f62606bbf52c7c318cb44be6d94108a81d8778ccdec4bfe200be30f629abaa2a0910179cee215b36b7c081f7ccf286da2e62ee68eb42c210dff89f568b601f4dc62b32b4fe1f1df371891d5d303193587838fa4f35604bfd9d567a9038b0b1cd9419061a26a95ed40b7047c85e9539a19c20fee1749d20ff50028dd03060a7210c8bfa0404e09c90df18ffa271d0145f85a556bf66b3946b035fc678ba84ef5eb4e8ec3ef19da81a2e253b8289ee7ffc6287686a3ada71203fd4de3ce1666f6354f71a0e7f16150cf125c600c169379ae18effc34655da08426c7687c5819b0e44608fbfb321c53dedeb989dd754eb780cf97e3633fb96bb1e85e87ea3f729353bf7f4ced7339cc8735f058fc35211152b0de1d849148fc6680dd4c8471a9739b9339d3c6f583166406c587354345f6b55b2eb0e6cde3f05b20ac906452b7169c209f8e88a2cb4c2d0ebba14b19cfa3140e84e3d9e0e716e858b98299bd478fd7c6c688a20c3d7b3a21b27fddc78ffdc2c7f8d381547642d5c2e28d3776a9c50273203f28ece618f0b8ced87096af21ad4991efb2ea1e3612b00ae9e4eb7edadbb7fecad6512b84baa7ef32dffb568f3205ef83321edd34a54863ccbbd5a3c918bcd98a3cd5c6b256c8c8d9432d720ea08b98b0f3f78f328c8e4ac84b1cccb3b9d70703a60f924291b253343a0c37aea863f731ba2174733e84aeba055e4e423e05f8a41a835e90ca597f717fcfbcaa1ca837356b5f6eb00b446daf0398fb28de2f4fab3b25c6d1552462745688b2fa20fb77806718a5e96a940b3c5557529990d807887c0af37c54abc10982faf1a1df47bf3c467c5f54e61e4f8aa5ae19a10da9f35deefdc2d9273b14fcc114c585cd57f3740fe8e32229575caf766359fba7c2d35be4ffe6c2aa89705b69945da04e1d20cb6e87d7eeba86c68698e3020edea142f1a02a3c61c9d1e5af2ef35e722e97b48964242db07152752fad6bbab4b54d247f0f0fff03141c817d24874fbb82e4412cc0f44b7abc37d0ad70fbc439645b349c5f161c8b8efc1a71325c8c893bd38728c9bb61d3791d6f7de3f9a47454a98b2f26daaef58d2b85c9fead6f8da2a5e3d1fcef7ba4eb6328a3fc726fb9b66560d67ac550d671d55789243ef0d2d4e7488c1f2cfbaa8d419a65e3ba88ec84d2ec226e8d00140b27fa573e1a6eba4e2eb0f053c5ecde262b1ab668d468a4f538d7fe48058f0820de766f6088f106c652c07257c5cfc15f029b322ca0f90389c6c3fc092f4241cb9834bcc7f8b1d79aa002d63183f62ab25c2cfecfc11b0df48e5f14ad0f6ddd6b68b49ca7cb41e3c0cfe3608f021c4ddfab47dffd7d9889c33ba828728d5a6e2ea5a57e58716c9b5f392e0cbfc8f8c884f092e539679f1bb34b6b6a0fdef3b0939aa2dbbdfec2e6cf7a51cb91948c2b006e0763769c3770e57a2d74755cfb690bf4db3b90ff9aa8d54a046b1248fc5dbc3df39cbe02727877ac3caf0a2df67757857fb8aff41eded77f7bfc905b2b2b8afd9a0873ea2c9adce7ef5cfa047cca0bbe0b3955803310ebf7d52d758425dac9db28024a690a2d833e5bc33e4374dde67e0511c2226296ab7d82478d8db773cd3772b05138d14921e7356af066a5c5807e0f711a4b7ec12d5abfd7072e2a6703017c262a635b503b6f48f068c9095e8bac8239e5eb64b87668ab0fd722885553295c04f0b594d213b7b0fdf0b0c79fb78001946c048a901134ce0555faf6be86259ae1285affffdd0b8cb19260b60435193543b6508d3a7331d8b3d4e8aad4dfcc58ea0342ae2307c0d636e7fc393863c581c297e037da40f7a28087030a89c1072446536a9facadcfdffe08090c1b1c23355455638bb7c0dbe7060d11233238495a5e61647f92b9bcbecbd1d5dee2ec061826384d588b91a6adbdd4e4f90000000000000000000000000000000000000b1a303e01fd210500b6e9d73e909efc1464d0c01c38caf31691a7e433a0d4da55296b70c90f0e4ff56b416dfbab4473d94485dd1cefa66f5237ce552a5a9455ac95e83fe66bc91f65dcd314dfcf9a83b5b0cc989c833995f910befbad90835f7dad2b736b25ef52ba9b7d9b3c65cb729407050bba979a187645a11aabc3fe9b5c901d65b877a234b1698b5edf44e3f879c08a218829922e31592dace036a82330235e3d899b1f8a08583148b9985b8705c717a7f6953f917977eae6aa8df88e394ee5bf479efe2b46816cb8c08d321d3bca4754044fbb14183339f5acad7f003d511facc2f71b11823256a746d5269777a8899cdd2292acd9e7f41dc5bcabf7e13cd800d592164b93b12cad7703d00ff15002be6030a4d93601a08b1c8bc0ce157cc9da726505155c97b031028a1c8230612031c592c70f7e49d34c9b41d713cbbd8f9470050bfb569669e5512e99df064f2ec9956733c1f2c5e3318393b2f3b1647b4c186fa0a6284772a363e4eebdba653ad1a032298a289f34b704b0df9635719f43630e3c90fc9af330722045ca50cc5f264a95a1807f7546e116b35b87d15018c19b4209ad2d4cecf6c46a2d37b5b6241b82a3b405f1390bd2ab6107f1e1b53f9d9b3f7317b32a52fbdecaf10dfb9e002fc6d6c8d565f4cb47248cb9c351f54a3b4297e3de89b3bc05579b3f333e4c77172cdde174e428dc07ae1a237b8710bd89d4a945dfb6bb7aad0e585f88fbceb6a573b414578038d2b37fd4470816611ebafc6d29041a054de72241074c6b6639d2699a4ac6d175fcb23fc34eabbb8987433325dcdc4985fc2b422b470aaf60f29d55b389fc25cdbcc89caf5865b372f248bfec92d21dcb246fca226370a19315e6a9a56a8657cfd9ed66cde26356b3ca180a0a32f2e118fe613df09f2831fa90b6a9c9bf5704c894d454a40db8a868ca62752b38cf80f92d6a2ec7bde8595d935b89ab539ad6f804a38b542320ab6105ddb467e47ecd7c808bb7558b554c4fda54512ad8c3c341a0d6a6881dbd5d0b69481e5eaf354d54c39d62caf7e79cd71e598bfe164c0ea503f3741d423ea5be27c96b9f99597abcf2745f1da503247a85e08f733d662b633f41ad7bd3a74c4cd21409ac488ed1bf992ff4034f8037ed5eb063b4180775ed2200ab09e8626b022cb3fe61ef4163998d262e7a2bc4d7b87960424bf2e2fc4064ca366d22fa579cdb8010a1456f1baa50b823c8e2aee0172b4ce47259a5294c9f973fb3822930e6385306e9edc83a8a9f77f2856e59cdd4bcab00b285ce0dbe7309c844d006f54033304554044cb6000abd05ab64a6ca7ba150df2db6903abf37965c87e783c312a9a9ea40cf320520df71e2d45c41d5c048cac0023c71387ceb5d6665752982eb07a1052a0578cbe1f40f874d84041a9363da7f08aef5ec786e49803e9e0f9aff5b4f61bc40f58f403a5ff8bddc16bbfa568ef2af1780ff6bf0fca2295e5914f78909007f997a08a7d1f8bb2ec13fabc9795b2fcc23c12138db84631b2ab35934d1e22030b4de36518218728bdda7d6ec42dfae832f81d9911d94c08727c0d37f0374bd1f49546c20131e59de5c5c32c3a99b68b021e97098dc740b9d46cd1fa3e882bd302ff585a4be402e70422d005316177e165532a97fd7b40af5e7b99c7958e0a297b59e8b8787ae160d6534434ec62af7e54062a4b580e6d9ec81b3c63f9fcf64a4027398d69c12b1b52533ce48872a0d319b3c26bdc8da752e9e103bec3ca474cece47620ecc72f60abf1f305538a9f85f770b49b2d977bc0d0c6ef153d5c92b5c872d70f9e495f770624f54f125937be359fd2dc5c38e9a10e51b57909ee2c45e6949778c000000",
  "txid": "a7afb19842b1468946d59ebf2c79d4e2caa7376dbe7d248a9c4b838741e0c2c2",
  "hash": "ec98e790f3f4e670fd429b64555349f6780fbdc1a1343b6f84a20d592ae040d1",
  "size": 5085,
  "vsize": 2278,
  "version": 1,
  "locktime": 140,
  "vin": [
    {
      "txid": "9fb0f72dad4dab1a1f7048d81cd14a69f037651b1ecf40ce0165bf7afbc6ca2a",
      "vout": 0,
      "scriptSig": {
        "asm": "",
        "hex": ""
      },
      "txinwitness": [
        "cbd38f27054ecf5b5a0b40314721c80980197648116369763d9e6e51d71467378a55d3dcc21283384b25a1d5b19ed2edb948b306e5a573df9f23ebd3047e4e7f911b65d6b5d85bbb973d5485f9fae7123d1b4327a330d9564caa6372620233396d5bdd7091658e1c4a2776f1c1c47af97eca212bc649efc8ac53a87a74d09d8eefa860ee68eae89faeb02fbb22f821fc48e75a8c3db75dfd91db9da664ecb7caf7f90e0d0577129d155421a7c86b3369354b6c3c39a426acc08e917c458992566282f7c870026a72ceeb3e99cbb2ae50807c1230edac62c71516afae80445e25e9fdd7a3374c3e7e82f6c19aaa6b089c236803cd6541887d4e15f965cbb3b59bc658ab8ee5fb40043817f15e46db4b8042775427ab01a946c988130d01b6ae4296997e8798e4f4229f22a216199a8dd2ddc8c375e2bc0efe81ba2e43dc74c8bf85d3a3df36691641cb6d707c7cbb60237c67cb1f445181ecd07990493706842f159f0a801ad0deae2ace545f1a365c030b0a7b2b5ffff1d1d7d132f6d79e679b6edaaedf46133fef4591c8132d3a363c8856f4fd9dfde8c4e173e6e13ef59e23b07ef0e7f82aa549a302e952795766d4b44196352ee0bc883f9cfe2f3b0b748e56c5fd3298fb1fc13522d68bfd931f274ba728736c6fb64f4d74ffd29f45f66f62c126c565cecd14cbc0b4e88a12e8f372d5ea88d2e0716e3e2390caf0a7ad8406f5888a7cde7b7e3fa8d1f33482a644a58c18b3bf93f0bb91c40388c2f9010964539d0df778fd7c119bb670a6422dccf0ff76be48bf9b1624af2e491390c3286e85563749203dc371249a4fe5216fcd84efcfb47d80df68faffd0a2765bc1cbc56d114d05dd4b343ced4f42c376b292f0f4654bf1df3b914b407147acae7d90d7aefac39673190c5053f1896db8e75c02f2d11376f421c3f4e237fb4f2ee59adf8f38f40b3ac7d3614e76738c1c96e82b3d4158a4c9109d2af82c0112b397a5cd84f4c186c07579d45bc609681e52df152853c24d9c533562e2ca7bfbeef9e854fe99857a5fd351c365497953792a0797e029dd7df2a7259cf916222c6488e586534079b9d554c5297ff7bb188ef6e8a94022c6d5b593fddf08cda3be792dc493730d634fc71f5795db254027b8c2e2c8046d405e285f8e703765e3f9770b3b492914dc7818b03a3c9af1fa10cebcb87b171819bcf51ddb6b8bfd19a80da6903bbeac943057ff567fe1f7c918e317ebad28a27f8e45daa4c180537b1a62bb77ea0013d601f38aa3cb4e7587533720228a684e5fb5e1229ba41fae5e78f3d4069992c9e42fe3188bce73f393ecbf89caa70712a7dbcbd7164a153d878631d69a15bc03b1ee2225093acd0117608ac9da44406bc1146452849cd71a74c6c56c69327664cc79bdf7a89c36762fc30cf22f69cdc63a237953ac56046110057796073ae3f41593b4c05f62606bbf52c7c318cb44be6d94108a81d8778ccdec4bfe200be30f629abaa2a0910179cee215b36b7c081f7ccf286da2e62ee68eb42c210dff89f568b601f4dc62b32b4fe1f1df371891d5d303193587838fa4f35604bfd9d567a9038b0b1cd9419061a26a95ed40b7047c85e9539a19c20fee1749d20ff50028dd03060a7210c8bfa0404e09c90df18ffa271d0145f85a556bf66b3946b035fc678ba84ef5eb4e8ec3ef19da81a2e253b8289ee7ffc6287686a3ada71203fd4de3ce1666f6354f71a0e7f16150cf125c600c169379ae18effc34655da08426c7687c5819b0e44608fbfb321c53dedeb989dd754eb780cf97e3633fb96bb1e85e87ea3f729353bf7f4ced7339cc8735f058fc35211152b0de1d849148fc6680dd4c8471a9739b9339d3c6f583166406c587354345f6b55b2eb0e6cde3f05b20ac906452b7169c209f8e88a2cb4c2d0ebba14b19cfa3140e84e3d9e0e716e858b98299bd478fd7c6c688a20c3d7b3a21b27fddc78ffdc2c7f8d381547642d5c2e28d3776a9c50273203f28ece618f0b8ced87096af21ad4991efb2ea1e3612b00ae9e4eb7edadbb7fecad6512b84baa7ef32dffb568f3205ef83321edd34a54863ccbbd5a3c918bcd98a3cd5c6b256c8c8d9432d720ea08b98b0f3f78f328c8e4ac84b1cccb3b9d70703a60f924291b253343a0c37aea863f731ba2174733e84aeba055e4e423e05f8a41a835e90ca597f717fcfbcaa1ca837356b5f6eb00b446daf0398fb28de2f4fab3b25c6d1552462745688b2fa20fb77806718a5e96a940b3c5557529990d807887c0af37c54abc10982faf1a1df47bf3c467c5f54e61e4f8aa5ae19a10da9f35deefdc2d9273b14fcc114c585cd57f3740fe8e32229575caf766359fba7c2d35be4ffe6c2aa89705b69945da04e1d20cb6e87d7eeba86c68698e3020edea142f1a02a3c61c9d1e5af2ef35e722e97b48964242db07152752fad6bbab4b54d247f0f0fff03141c817d24874fbb82e4412cc0f44b7abc37d0ad70fbc439645b349c5f161c8b8efc1a71325c8c893bd38728c9bb61d3791d6f7de3f9a47454a98b2f26daaef58d2b85c9fead6f8da2a5e3d1fcef7ba4eb6328a3fc726fb9b66560d67ac550d671d55789243ef0d2d4e7488c1f2cfbaa8d419a65e3ba88ec84d2ec226e8d00140b27fa573e1a6eba4e2eb0f053c5ecde262b1ab668d468a4f538d7fe48058f0820de766f6088f106c652c07257c5cfc15f029b322ca0f90389c6c3fc092f4241cb9834bcc7f8b1d79aa002d63183f62ab25c2cfecfc11b0df48e5f14ad0f6ddd6b68b49ca7cb41e3c0cfe3608f021c4ddfab47dffd7d9889c33ba828728d5a6e2ea5a57e58716c9b5f392e0cbfc8f8c884f092e539679f1bb34b6b6a0fdef3b0939aa2dbbdfec2e6cf7a51cb91948c2b006e0763769c3770e57a2d74755cfb690bf4db3b90ff9aa8d54a046b1248fc5dbc3df39cbe02727877ac3caf0a2df67757857fb8aff41eded77f7bfc905b2b2b8afd9a0873ea2c9adce7ef5cfa047cca0bbe0b3955803310ebf7d52d758425dac9db28024a690a2d833e5bc33e4374dde67e0511c2226296ab7d82478d8db773cd3772b05138d14921e7356af066a5c5807e0f711a4b7ec12d5abfd7072e2a6703017c262a635b503b6f48f068c9095e8bac8239e5eb64b87668ab0fd722885553295c04f0b594d213b7b0fdf0b0c79fb78001946c048a901134ce0555faf6be86259ae1285affffdd0b8cb19260b60435193543b6508d3a7331d8b3d4e8aad4dfcc58ea0342ae2307c0d636e7fc393863c581c297e037da40f7a28087030a89c1072446536a9facadcfdffe08090c1b1c23355455638bb7c0dbe7060d11233238495a5e61647f92b9bcbecbd1d5dee2ec061826384d588b91a6adbdd4e4f90000000000000000000000000000000000000b1a303e01",
        "00b6e9d73e909efc1464d0c01c38caf31691a7e433a0d4da55296b70c90f0e4ff56b416dfbab4473d94485dd1cefa66f5237ce552a5a9455ac95e83fe66bc91f65dcd314dfcf9a83b5b0cc989c833995f910befbad90835f7dad2b736b25ef52ba9b7d9b3c65cb729407050bba979a187645a11aabc3fe9b5c901d65b877a234b1698b5edf44e3f879c08a218829922e31592dace036a82330235e3d899b1f8a08583148b9985b8705c717a7f6953f917977eae6aa8df88e394ee5bf479efe2b46816cb8c08d321d3bca4754044fbb14183339f5acad7f003d511facc2f71b11823256a746d5269777a8899cdd2292acd9e7f41dc5bcabf7e13cd800d592164b93b12cad7703d00ff15002be6030a4d93601a08b1c8bc0ce157cc9da726505155c97b031028a1c8230612031c592c70f7e49d34c9b41d713cbbd8f9470050bfb569669e5512e99df064f2ec9956733c1f2c5e3318393b2f3b1647b4c186fa0a6284772a363e4eebdba653ad1a032298a289f34b704b0df9635719f43630e3c90fc9af330722045ca50cc5f264a95a1807f7546e116b35b87d15018c19b4209ad2d4cecf6c46a2d37b5b6241b82a3b405f1390bd2ab6107f1e1b53f9d9b3f7317b32a52fbdecaf10dfb9e002fc6d6c8d565f4cb47248cb9c351f54a3b4297e3de89b3bc05579b3f333e4c77172cdde174e428dc07ae1a237b8710bd89d4a945dfb6bb7aad0e585f88fbceb6a573b414578038d2b37fd4470816611ebafc6d29041a054de72241074c6b6639d2699a4ac6d175fcb23fc34eabbb8987433325dcdc4985fc2b422b470aaf60f29d55b389fc25cdbcc89caf5865b372f248bfec92d21dcb246fca226370a19315e6a9a56a8657cfd9ed66cde26356b3ca180a0a32f2e118fe613df09f2831fa90b6a9c9bf5704c894d454a40db8a868ca62752b38cf80f92d6a2ec7bde8595d935b89ab539ad6f804a38b542320ab6105ddb467e47ecd7c808bb7558b554c4fda54512ad8c3c341a0d6a6881dbd5d0b69481e5eaf354d54c39d62caf7e79cd71e598bfe164c0ea503f3741d423ea5be27c96b9f99597abcf2745f1da503247a85e08f733d662b633f41ad7bd3a74c4cd21409ac488ed1bf992ff4034f8037ed5eb063b4180775ed2200ab09e8626b022cb3fe61ef4163998d262e7a2bc4d7b87960424bf2e2fc4064ca366d22fa579cdb8010a1456f1baa50b823c8e2aee0172b4ce47259a5294c9f973fb3822930e6385306e9edc83a8a9f77f2856e59cdd4bcab00b285ce0dbe7309c844d006f54033304554044cb6000abd05ab64a6ca7ba150df2db6903abf37965c87e783c312a9a9ea40cf320520df71e2d45c41d5c048cac0023c71387ceb5d6665752982eb07a1052a0578cbe1f40f874d84041a9363da7f08aef5ec786e49803e9e0f9aff5b4f61bc40f58f403a5ff8bddc16bbfa568ef2af1780ff6bf0fca2295e5914f78909007f997a08a7d1f8bb2ec13fabc9795b2fcc23c12138db84631b2ab35934d1e22030b4de36518218728bdda7d6ec42dfae832f81d9911d94c08727c0d37f0374bd1f49546c20131e59de5c5c32c3a99b68b021e97098dc740b9d46cd1fa3e882bd302ff585a4be402e70422d005316177e165532a97fd7b40af5e7b99c7958e0a297b59e8b8787ae160d6534434ec62af7e54062a4b580e6d9ec81b3c63f9fcf64a4027398d69c12b1b52533ce48872a0d319b3c26bdc8da752e9e103bec3ca474cece47620ecc72f60abf1f305538a9f85f770b49b2d977bc0d0c6ef153d5c92b5c872d70f9e495f770624f54f125937be359fd2dc5c38e9a10e51b57909ee2c45e694977"
      ],
      "sequence": 4294967294
    }
  ],
  "vout": [
    {
      "value": 499957.2902,
      "n": 0,
      "scriptPubKey": {
        "asm": "1 171e558e1f1ec19acbc9cd93b885d13d48f2aa83a2b309f220b0c8e1d347dfd9",
        "hex": "5120171e558e1f1ec19acbc9cd93b885d13d48f2aa83a2b309f220b0c8e1d347dfd9",
        "reqSigs": 1,
        "type": "witness_v1_scripthash",
        "addresses": [
          "3QJmnh"
        ]
      }
    },
    {
      "value": 1.0,
      "n": 1,
      "scriptPubKey": {
        "asm": "OP_RETURN 1dbb997aadbe79fc331d04500e89a361dfa7a3920e9aec4816d070cdb8d8b731 429997fc2400dbdc9f90622f66026c53c00229f8fba7fc151000c4be04a5b7f262b9b7dc0420fbfcbfb0420f46224c73e02209d8db87dc353020e49e248597d202d9d7bc64409b9cdfd0226f26422c13804269b8bbe7bc55504084fe44e5f7b222f9f79c4460bbbcfff0024f06620c33a06249989bc79c757060a4de64c5d792c219177ca4805b5c1f10e2afe682ecd34082a9787b277c959080443e84253772e239375c84a07b7c3f30c28fc6a2ccf360a289585b075cb5b0a0641ea40517528259573ce4c01b1c5f50a2efa6c2ac9300c2e9383b673cd5d0c0047ec4657732a279771cc4e03b3c7f7082cf86e28cb320e2c9181b471cf5f0e0245ee4455712429997fc2400dbdc9f90622f66026c53c00229f8fba7fc151000c4be04a5b7f262b9b7dc0420fbfcbfb0420f46224c73e02209d8db87dc353020e49e248597d202d9d7bc64409b9cdfd0226f26422c13804269b8bbe7bc55504084fe44e5f7b222f9f79c4460bbbcfff0024f06620c33a06249989bc79c757060a4de64c5d792c219177ca4805b5c1f10e2afe682ecd34082a9787b277c959080443e84253772e239375c84a07b7c3f30c28fc6a2ccf360a289585b075cb5b0a0641ea40517528259573ce4c01b1c5f50a2efa6c2ac9300c2e9383b673cd5d0c0047ec4657732a279771cc4e03b3c7f7082cf86e28cb320e2c9181b471cf5f0e0245ee4455712429997fc2400dbdc9f90622f66026c53c00229f8fba7fc151000c4be04a5b7f262b9b7dc0420fbfcbfb0420f46224c73e02209d8db87dc353020e49e248597d202d9d7bc64409b9cdfd0226f26422c13804269b8bbe7bc55504084fe44e5f7b222f9f79c4460bbbcfff0024f06620c33a06249989bc79c757060a4de64c5d792c219177ca4805b5c1f10e2afe682ecd34082a9787b277c959080443e84253772e239375c84a07b7c3f30c28fc6a2ccf360a289585b075cb5b0a0641ea40517528259573ce4c01b1c5f50a2efa6c2ac9300c2e9383b673cd5d0c0047ec4657732a279771cc4e03b3c7f7082cf86e28cb320e2c9181b471cf5f0e0245ee4455712429997fc2400dbdc9f90622f66026c53c00229f8fba7fc151000c4be04a5b7f262b9b7dc0420fbfcbfb0420f46224c73e02209d8db87dc353020e49e248597d202d9d7bc64409b9cdfd0226f26422c13804269b8bbe7bc55504084fe44e5f7b222f9f79c4460bbbcfff0024f06620c33a06249989bc79c757060a4de64c5d792c219177ca4805b5c1f10e2afe682ecd34082a9787b277c959080443e84253772e239375c84a07b7c3f30c28fc6a2ccf360a289585b075cb5b0a0641ea40517528259573ce4c01b1c5f50a2efa6c2ac9300c2e9383b673cd5d0c0047ec4657732a279771cc4e03b3c7f7082cf86e28cb320e2c9181b471cf5f0e0245ee4455712429997fc2400dbdc9f90622f66026c53c00229f8fba7fc151000c4be04a5b7f262b9b7dc0420fbfcbfb0420f46224c73e02209d8db87dc353020e49e248597d202d9d7bc64409b9cdfd0226f26422c13804269b8bbe7bc55504084fe44e5f7b222f9f79c4460bbbcfff0024f06620c33a06249989bc79c757060a4de64c5d792c219177ca4805b5c1f10e2afe682ecd327533ae517c19e768d682ee5e017277bab4cfbe1d99dcd7309493b3160b56e52",
        "hex": "6a201dbb997aadbe79fc331d04500e89a361dfa7a3920e9aec4816d070cdb8d8b7314db004429997fc2400dbdc9f90622f66026c53c00229f8fba7fc151000c4be04a5b7f262b9b7dc0420fbfcbfb0420f46224c73e02209d8db87dc353020e49e248597d202d9d7bc64409b9cdfd0226f26422c13804269b8bbe7bc55504084fe44e5f7b222f9f79c4460bbbcfff0024f06620c33a06249989bc79c757060a4de64c5d792c219177ca4805b5c1f10e2afe682ecd34082a9787b277c959080443e84253772e239375c84a07b7c3f30c28fc6a2ccf360a289585b075cb5b0a0641ea40517528259573ce4c01b1c5f50a2efa6c2ac9300c2e9383b673cd5d0c0047ec4657732a279771cc4e03b3c7f7082cf86e28cb320e2c9181b471cf5f0e0245ee4455712429997fc2400dbdc9f90622f66026c53c00229f8fba7fc151000c4be04a5b7f262b9b7dc0420fbfcbfb0420f46224c73e02209d8db87dc353020e49e248597d202d9d7bc64409b9cdfd0226f26422c13804269b8bbe7bc55504084fe44e5f7b222f9f79c4460bbbcfff0024f06620c33a06249989bc79c757060a4de64c5d792c219177ca4805b5c1f10e2afe682ecd34082a9787b277c959080443e84253772e239375c84a07b7c3f30c28fc6a2ccf360a289585b075cb5b0a0641ea40517528259573ce4c01b1c5f50a2efa6c2ac9300c2e9383b673cd5d0c0047ec4657732a279771cc4e03b3c7f7082cf86e28cb320e2c9181b471cf5f0e0245ee4455712429997fc2400dbdc9f90622f66026c53c00229f8fba7fc151000c4be04a5b7f262b9b7dc0420fbfcbfb0420f46224c73e02209d8db87dc353020e49e248597d202d9d7bc64409b9cdfd0226f26422c13804269b8bbe7bc55504084fe44e5f7b222f9f79c4460bbbcfff0024f06620c33a06249989bc79c757060a4de64c5d792c219177ca4805b5c1f10e2afe682ecd34082a9787b277c959080443e84253772e239375c84a07b7c3f30c28fc6a2ccf360a289585b075cb5b0a0641ea40517528259573ce4c01b1c5f50a2efa6c2ac9300c2e9383b673cd5d0c0047ec4657732a279771cc4e03b3c7f7082cf86e28cb320e2c9181b471cf5f0e0245ee4455712429997fc2400dbdc9f90622f66026c53c00229f8fba7fc151000c4be04a5b7f262b9b7dc0420fbfcbfb0420f46224c73e02209d8db87dc353020e49e248597d202d9d7bc64409b9cdfd0226f26422c13804269b8bbe7bc55504084fe44e5f7b222f9f79c4460bbbcfff0024f06620c33a06249989bc79c757060a4de64c5d792c219177ca4805b5c1f10e2afe682ecd34082a9787b277c959080443e84253772e239375c84a07b7c3f30c28fc6a2ccf360a289585b075cb5b0a0641ea40517528259573ce4c01b1c5f50a2efa6c2ac9300c2e9383b673cd5d0c0047ec4657732a279771cc4e03b3c7f7082cf86e28cb320e2c9181b471cf5f0e0245ee4455712429997fc2400dbdc9f90622f66026c53c00229f8fba7fc151000c4be04a5b7f262b9b7dc0420fbfcbfb0420f46224c73e02209d8db87dc353020e49e248597d202d9d7bc64409b9cdfd0226f26422c13804269b8bbe7bc55504084fe44e5f7b222f9f79c4460bbbcfff0024f06620c33a06249989bc79c757060a4de64c5d792c219177ca4805b5c1f10e2afe682ecd327533ae517c19e768d682ee5e017277bab4cfbe1d99dcd7309493b3160b56e52",
        "type": "nulldata"
      }
    }
  ],
  "blockhash": "39d4bea9c9c25d41b43db6cdde5dd715e5d3be3597965cba0de2d48951f8c4e3",
  "confirmations": 1,
  "time": 1764183939,
  "blocktime": 1764183939
}