{
  "hex": "01000000000101a2b2dcfb03eaf652ce3d479be495c9c7586d6d4b4910ec63e3c0e9ebd94b19210100000000feffffff0260cda5ea782d0000225120d3c19a7675cb65ce129a157a6c06ccfe1e8e93f04b27bc006d6cc65f1ef9e45000e1f50500000000fdd5046a201705ec8eb4a229b900c88e75235025d0c1d9f1373a2e437a79274cfd5316b0c94db0040ab569062bbe36ff46b0987cf70075576a3e2b50f6b150c7ebb6fd79695533a82a9549260b9e16df6690b85cd72055774a1e0b70d69170e7cb96dd59497513884af529466bfe76bf06f0d83cb74035172a7e6b10b6f11087abf6bd39291573e86ad509664bde569f26d0f81c976015370a5e4b3096d130a78bd69d19093553c88a35e986ab3eb67fc63018fc7780f5d7eabeabd07631d0476b367df9e9d5b328aa15c9a68b1e965fe61038dc57a0d5f7ca9e8bf05611f0674b165dd9c9f59308ca75a9c6eb7ef63f867058bc37c0b597aafeeb90367190072b763db9a995f368ea5589e6cb5ed61fa650789c17e095b78adecbb01651b0270b561d9989b5d3480ab569062bbe36ff46b0987cf70075576a3e2b50f6b150c7ebb6fd79695533a82a9549260b9e16df6690b85cd72055774a1e0b70d69170e7cb96dd59497513884af529466bfe76bf06f0d83cb74035172a7e6b10b6f11087abf6bd39291573e86ad509664bde569f26d0f81c976015370a5e4b3096d130a78bd69d19093553c88a35e986ab3eb67fc63018fc7780f5d7eabeabd07631d0476b367df9e9d5b328aa15c9a68b1e965fe61038dc57a0d5f7ca9e8bf05611f0674b165dd9c9f59308ca75a9c6eb7ef63f867058bc37c0b597aafeeb90367190072b763db9a995f368ea5589e6cb5ed61fa650789c17e095b78adecbb01651b0270b561d9989b5d3480ab569062bbe36ff46b0987cf70075576a3e2b50f6b150c7ebb6fd79695533a82a9549260b9e16df6690b85cd72055774a1e0b70d69170e7cb96dd59497513884af529466bfe76bf06f0d83cb74035172a7e6b10b6f11087abf6bd39291573e86ad509664bde569f26d0f81c976015370a5e4b3096d130a78bd69d19093553c88a35e986ab3eb67fc63018fc7780f5d7eabeabd07631d0476b367df9e9d5b328aa15c9a68b1e965fe61038dc57a0d5f7ca9e8bf05611f0674b165dd9c9f59308ca75a9c6eb7ef63f867058bc37c0b597aafeeb90367190072b763db9a995f368ea5589e6cb5ed61fa650789c17e095b78adecbb01651b0270b561d9989b5d3480ab569062bbe36ff46b0987cf70075576a3e2b50f6b150c7ebb6fd79695533a82a9549260b9e16df6690b85cd72055774a1e0b70d69170e7cb96dd59497513884af529466bfe76bf06f0d83cb74035172a7e6b10b6f11087abf6bd39291573e86ad509664bde569f26d0f81c976015370a5e4b3096d130a78bd69d19093553c88a35e986ab3eb67fc63018fc7780f5d7eabeabd07631d0476b367df9e9d5b328aa15c9a68b1e965fe61038dc57a0d5f7ca9e8bf05611f0674b165dd9c9f59308ca75a9c6eb7ef63f867058bc37c0b597aafeeb90367190072b763db9a995f368ea5589e6cb5ed61fa650789c17e095b78adecbb01651b0270b561d9989b5d3480ab569062bbe36ff46b0987cf70075576a3e2b50f6b150c7ebb6fd79695533a82a9549260b9e16df6690b85cd72055774a1e0b70d69170e7cb96dd59497513884af529466bfe76bf06f0d83cb74035172a7e6b10b6f11087abf6bd39291573e86ad509664bde569f26d0f81c976015370a5e4b3096d130a78bd69d19093553c88a35e986ab3eb67fc63018fc7780f5d7f3ff0e0317411d0beac778677c660fb2e75acd1edde3f0e473dd6a77e097474302fd7509475877c5c9017f4cc7847ecabf8b8b9f559e8a242560ec81039447b083a8ce97d013d67fdc6bdb8c855371bbc3fdb224f48ff5e55e32154d3104b55d2fd491ca56f314382536fc66413afe944eaa0e7c33e5b86d57473093bab5803761fae8ca9a05fa75b2a7957521f9800a2ddd23615fbda5be2347abcc5683a5fa96e4c553e7e2879ac7a40e2179b12c963fd1f76d988b17b9808d05a4519bed958e7e9a7416181e9e2fe8d9b4e6fb21a3fd866749913f1e617f3b0fb1eb549a102497985a81e93b8b55675caf9d1ef031dc25d9ef7de550d5a4efce78eca9cb46f8114d6e2f862253eb809d728761931000e32ee93920baac203e438e94ea2ad72a859ecd93ad736706497ad962e5db04ef15c87ffb51eb8c6c81d5e6955a3cb55aa962a453c53e67a8e2b1b7aa8e4226f3c37cd176fd656f60668d7c5dcd8197be6d70aaee49988ae067eabed110c03859b09b4a179f142180512402c12e7c9beffc7790b12abe7732c26e40c63aa17ae00758fe6a7489ec02e81f360544094ab15e458bdeca2554a3e37054fe454e33c58da94681c7d3720a521dc90e1fb73c360dabe554e561eff36e1929b88d7b63823b7bcee63552005e13ca041c870793815b5bc4b3df92c760830b7d57fae4c5c9e14f30201d4679a27938fecd71deec0d9a0d678416f80f145148d6f39f5f4865914a8aa45b7b67e969b66baa2737ae17f800e744adef1825fe4304879191af76eb1e642e46a82c58ed18e92e58b2c0a38b60c552550153f22c7dddfbf576386ceb804e74e073489fda246e1a8d5a1f5268b49ff0999ab9bd44eacb81bb5d0e6c37dafa4a9be6cd851fb7a8e0b8453d69074f471579700616f459c0df796da9b806a73286f0e8af1975a9af2c19c53228dbf84276248de12c3bcb5f338e98de485bf7d2e34516ad2279074ff894c8d1dddceb1d6660d777a0df3f7e4601f6214b2516658c29a692ae2ec625e84839c299a1dc3dffc48d0c8b5d2a8eb4fa642fe27bdbdb3da6b1cbd339ca9e9425dcf7045432e9a5fcaa3612b4b5441c593beb1c8269f82ebdbd58955a85eeeace5de1b2bdd8e46a869038e48ac732b07457c5e081d1d3d3a8d234e5f6875a495173f96e89e270ba4a3a030b2573cac57c3028a21bb0e54de30a043d816b30c54180f0514e10f7f3d74834b7f6eaca6b04037e1844b388f4d7396fe7a65d41e9eabb75f268c1d15e7a66b3d9e00410b14e9da39d478dcdd1047df87d8b7bdbd6589eef5bdc771abc77c7e597a4add1615fb333220c36332e087ded1019a234483b24673b441096bd09ff33c7c03131621252849e1c3d9d408622af6f1466fb98ed7a9500819c4b97f6771a101642be23b0943aa2f0a7637b82ad2883ea6e9bae043047e102d9356d8d100255e4d8475adab1a7588bf82fcfeff4fbec2dbb820b32ab7de017cdbeb440b1a561d1f6e1d7f73f6daab00a04546cdf48de88bd1b61e1ab4ef658399a309e75b5f2cf0723c17ce11663466051f9c2e07058f0a65d7e7ace7bf22d6430e3589f711adc9f4ebcc6989f030fcea67669253a2bb310e44f997a0d03339af4f6017a49534a29aee4f23cdcdce8bdeb3c85a2c9785992af3ae01c9c61908b108ef21b2832067701a994e51f1d50121846442707b6ff4ac75e01659598d9bd76ef2fe810f8b959a78bbc43ff27ce13def4cd7b09e265753e5041240156e3f356e297e03897243daa2dd68cce5c22c37b052e3898e3f4d119ea54548bb2006bb91ff66b9835039666ae713e1c4837cd7a797b32519625a4ddc7f6b3249f5fae57ff7df8c23e0518a644cdc2bffdebc1a6c469550e752d9b3a26cdd9011c76c818c0daf49da393326f0ae428268486f62f8a4efd5dc1a3135a222b6e62b261395514048c168c7171407a99b6b2acaa8ac1db26e247c4885912eaafe17337b05efc54febfd0c62eff639c0a1b6d595ab29e90b023639a4def88d009fe9aec847102956ea7ddf7b3ca950751f8de6e9397851af63587749deed8c46849267b8982a7378a4ae0efa2122970a077ec087ebc8c2819ecab01b093edf181a8ce356f10b1dd7c27d38c637bc8e0fc743bb2762a435bce45ba20feb368335213e5b00ad354a0a8f4221729c663a9244de314f4029a9b15eb19f260a6e4d8a6b98cab455c426a696dbd5f11789b08c0a7969d50402591c4be2af8b58ecbb27085e20cac73ab625f9473c92eb98404ce63996a8e3a5d73e8eeb6f4509648d048cb84d7ce409bdbbbc7dd8533101dac98009e3e647ed7ea479401e58050fdf8f0ce9f827c0376d214a54c194c751c0fd865face87fdf624ec99501546c174b75b1db58628bd3291cc596ccb4eaf61308c53284e08ac5694366589a5b6ff1b4f7b424875fd31e73c6fbfcd3d21057ce22e3a4ceb8428427682e0ba95e96d503e324cd7ef665678f05591dbb00f46367b6e9f803619f5c3c811eef17a1256b45c5dfa6eaf070b3579a7496efc1ea5ef43be845dd6b1d37c7d9e4f08d08b0f62d3cf0252db2e2fb35a0a160b0c4214b4da6156e9783dc13eae6f556c29f53cedc1689c033b480d52c6c4a243d1cce8b9472ba0985a7e5ac2eb0d67fd82a06c8399ab6190d5e786b67ad40ad33feed952c301ffb65fc2c4fa82d46f204e39e61a3bac0aa56d4d705b6c1b3ee4ffe22f7830f596b0151bb18f20bbb1c267a7e121922edadd28393c7af83cabb2af81a0d2de2a8e014bee7fa39649cb49edf2ed970f53a20b6969299647e2169c0f65c637b87037595c16e190fb69094d54ced387126248f8d38f2ca5e4da05af2d4c665326e12763a656c9303dd2b52bef9296cb4fd8ea6c453bf66094a39b2a66ac633cc63af609a9d9cacd2cc600ab447d6c9f1ef0e4c5d9fa3c164cf59e1690a21c88e9a13ca6d3386793dc8383a6e11ecd837267c44e2be9be8d2849eb7077c93432094b35d84197c1036ada33ae983a25f1db656e8e365a3fa78d0b70585f1867c116c7cb942a371c707e5677e4c6a1727355622a437869c21e9938d81fed25b2f293f4314b2717286711d86cb88c6e47bf8a32ad76d0a06122150976cec8ebbb6c2b8ce7a2019ac9e4813a0446e86779cac23720d579c58a79df40fc96662e578e00c3fed99e94a26e4fa3bf1ef626398cc05eb0a8807a9c173d76573864766c8bafae3d7613e341dbbd8620ebfaa1872b69cb74fccf5946bd9a78bd6452e6c0a0476b76e16c58f7baecd6235e49dd3bde004c9e22fb0f2a19d3e08d6e75b094256f0c940ef51347cdd831934c3e2fe5f2098e078805de86670e1049526ebed1d5e0eff4fe03111f222642494a677578b0bac3c4cfd9e3ef015166767a7b8ac7cddadbeef91d26343a4361626c727a88a3abb8c50000000000000000000000000000000000000000000c1f2c3b01fd210500ec14153db2d364be29ce1b130962a202e0f5d61b21f7c9b0bdfe053edca50bca1128ed0d56a0ae0a29cbad1b262fe30fa6eed66a5d0a45d28f4d77f09c2fd5684e5680376561557fac5cadbf4396275dd69d09c0253c885bc01ba81d937561cfea02ad471a2479f2c27cb70ee0b38dcc265fe270d34e8aa6f581164dc256995ae9390aa47ca7ac9e1333ee15ce4b7b58ffac127474ea6a55b78dfa47e4805f071bc7b65e3f3f4362d84130e001e12de6b0b13d938d08a30cd3fb66477837b31727089a195f1372cf22af888667676181a55e2149b19a10198692c15b2c70d16d047a538326ba24d95192694c441271504105d26b7e341f3bffa8ff79e309d86bff41b98833b4a20fb3f5829c8d072c56644fcea4ed60815f697126b5fc9d073adf42449b256a3c79fc29e756c5b5c926b07ad14ec9258148d6c32ac93a4720111d60fcf31310b5b31693a5de98422e46a23de9df3aa53840f69ca0ac97ff1336a45cd0f13c2fdde749ec1b726dac82bfe80810fafa571c5c8753c7ea564c75cd62e039418184a4c47748319aa2bc33715ec00ff7211d58ad3670a8b22517ef3c6e5c7e445f0ba96071757fc58ddeb3d85c00b4564b1dd379c365c14dbd821fe3d077caf2300e47c7cf0bf5d46b0dffb159ae12b04707d229e5977c54e37247db965983f7cea6381ab3689be4d1b6605897589e01ffcc8fb5c3b9e0637bde2e2de535fb8cb4b7c4c1f82a01933fbb6ebc3b5644c94d94b22ad067e8a38b20212c7eef9a4970a24ef761fc75aaa29204ffea8f1df0cf4be9e2ee786ecb26e9a8c3f425cd0172140171c8d2a5b694bbd5ced0ff02399f3a8d9c9a793cff68e9ff6e8228c153ec640c173ae2862a907ac6e7813721c4c4ccd0d364e54d161e38b2774c313fb2c3467b44bbd5eb250267b7758f18b9630f772393da8cd440a1826f964f75242c7fb3aedb639a583b348398d67b74cd4c4f0c7c01bcad74f3bbcc8c0672ba43e60a14e1b60215b1137981326e651123f0e13d2bcd3623a265e2370c9f7bf1931e269d5f419557833fbb1068192cb57f288bf8e774ace420705bb578b85be0169ab105661775a0e1ca040438012109ca510c667e0a81387d2726d0d6d739daddb08d97836110758201f803c733a6c234ccc4104c8ccecd22a3fd7778b633f0576cac0e0055761f450cea0e8499b2cac4b90283c95af69738e876b0a98f95bfa827b47e5a90772c589db4ec115300e8e2d2b0bb1369a5b46a7b266c81a87de54735f5e42dd1ed42a2d345367906cb5508b589a7e411cf0e59eb7a47334bc8947c841fa670bac92bc99cbdbb8fa2693becef5553dcec5c5ac403e3ffd3c023221c4244e2917eacaa1a0be19ddfab726ca4d457013851919d2184a4800c11be969df221ffbd7585b86530a87f56dd4529a9c2df1dfb30e331c3dbce406fc2e1d5671a0993da542fceda26f2f85b2fe6c3f20f7d7c7be9efeadd6cd2d679043c1b18fa6dfdfbf149ae753401bdb88cbebe2439f4f21c09893c6bf48e6f6814abd78e8ea44c736f52e25862a7f5766b39952dd27ae3af5ac7b04c18b33b591ddadb6f15b5d9b67647d68e3232127e632fd6e13bd599a12986823f14b98b7f6d08ecb078760905bc6de96f97541863fce609c8a573a6327f3933f2e7ef6694db5876be3f1778e353fe839a2cc93568057ec9e68e614bf0a007d80e70dbbdd7c996a598ad7c3051af5e3e526a05b774b3fa921386a35cc6c65cd3a2b811a0860510b52610bf44f667aecf6063a6b70e098f67579465ad3866aed271613b162df5d9969d9678d58315e4ffbac91820c1b37ef33676c9593a1f90ea2f63bab474cc80000000",
  "txid": "b9b7e4abf424def9076d5528fd83fa0f8ca50d61a03e3d0fe1748fd68698c7cf",
  "hash": "3595eef9df9908fceb8d218f188df5e87ad99ec9ac2b110e91af10e901c1ae60",
  "size": 5085,
  "vsize": 2278,
  "version": 1,
  "locktime": 128,
  "vin": [
    {
      "txid": "21194bd9ebe9c0e363ec10494b6d6d58c7c995e49b473dce52f6ea03fbdcb2a2",
      "vout": 1,
      "scriptSig": {
        "asm": "",
        "hex": ""
      },
      "txinwitness": [
        "475877c5c9017f4cc7847ecabf8b8b9f559e8a242560ec81039447b083a8ce97d013d67fdc6bdb8c855371bbc3fdb224f48ff5e55e32154d3104b55d2fd491ca56f314382536fc66413afe944eaa0e7c33e5b86d57473093bab5803761fae8ca9a05fa75b2a7957521f9800a2ddd23615fbda5be2347abcc5683a5fa96e4c553e7e2879ac7a40e2179b12c963fd1f76d988b17b9808d05a4519bed958e7e9a7416181e9e2fe8d9b4e6fb21a3fd866749913f1e617f3b0fb1eb549a102497985a81e93b8b55675caf9d1ef031dc25d9ef7de550d5a4efce78eca9cb46f8114d6e2f862253eb809d728761931000e32ee93920baac203e438e94ea2ad72a859ecd93ad736706497ad962e5db04ef15c87ffb51eb8c6c81d5e6955a3cb55aa962a453c53e67a8e2b1b7aa8e4226f3c37cd176fd656f60668d7c5dcd8197be6d70aaee49988ae067eabed110c03859b09b4a179f142180512402c12e7c9beffc7790b12abe7732c26e40c63aa17ae00758fe6a7489ec02e81f360544094ab15e458bdeca2554a3e37054fe454e33c58da94681c7d3720a521dc90e1fb73c360dabe554e561eff36e1929b88d7b63823b7bcee63552005e13ca041c870793815b5bc4b3df92c760830b7d57fae4c5c9e14f30201d4679a27938fecd71deec0d9a0d678416f80f145148d6f39f5f4865914a8aa45b7b67e969b66baa2737ae17f800e744adef1825fe4304879191af76eb1e642e46a82c58ed18e92e58b2c0a38b60c552550153f22c7dddfbf576386ceb804e74e073489fda246e1a8d5a1f5268b49ff0999ab9bd44eacb81bb5d0e6c37dafa4a9be6cd851fb7a8e0b8453d69074f471579700616f459c0df796da9b806a73286f0e8af1975a9af2c19c53228dbf84276248de12c3bcb5f338e98de485bf7d2e34516ad2279074ff894c8d1dddceb1d6660d777a0df3f7e4601f6214b2516658c29a692ae2ec625e84839c299a1dc3dffc48d0c8b5d2a8eb4fa642fe27bdbdb3da6b1cbd339ca9e9425dcf7045432e9a5fcaa3612b4b5441c593beb1c8269f82ebdbd58955a85eeeace5de1b2bdd8e46a869038e48ac732b07457c5e081d1d3d3a8d234e5f6875a495173f96e89e270ba4a3a030b2573cac57c3028a21bb0e54de30a043d816b30c54180f0514e10f7f3d74834b7f6eaca6b04037e1844b388f4d7396fe7a65d41e9eabb75f268c1d15e7a66b3d9e00410b14e9da39d478dcdd1047df87d8b7bdbd6589eef5bdc771abc77c7e597a4add1615fb333220c36332e087ded1019a234483b24673b441096bd09ff33c7c03131621252849e1c3d9d408622af6f1466fb98ed7a9500819c4b97f6771a101642be23b0943aa2f0a7637b82ad2883ea6e9bae043047e102d9356d8d100255e4d8475adab1a7588bf82fcfeff4fbec2dbb820b32ab7de017cdbeb440b1a561d1f6e1d7f73f6daab00a04546cdf48de88bd1b61e1ab4ef658399a309e75b5f2cf0723c17ce11663466051f9c2e07058f0a65d7e7ace7bf22d6430e3589f711adc9f4ebcc6989f030fcea67669253a2bb310e44f997a0d03339af4f6017a49534a29aee4f23cdcdce8bdeb3c85a2c9785992af3ae01c9c61908b108ef21b2832067701a994e51f1d50121846442707b6ff4ac75e01659598d9bd76ef2fe810f8b959a78bbc43ff27ce13def4cd7b09e265753e5041240156e3f356e297e03897243daa2dd68cce5c22c37b052e3898e3f4d119ea54548bb2006bb91ff66b9835039666ae713e1c4837cd7a797b32519625a4ddc7f6b3249f5fae57ff7df8c23e0518a644cdc2bffdebc1a6c469550e752d9b3a26cdd9011c76c818c0daf49da393326f0ae428268486f62f8a4efd5dc1a3135a222b6e62b261395514048c168c7171407a99b6b2acaa8ac1db26e247c4885912eaafe17337b05efc54febfd0c62eff639c0a1b6d595ab29e90b023639a4def88d009fe9aec847102956ea7ddf7b3ca950751f8de6e9397851af63587749deed8c46849267b8982a7378a4ae0efa2122970a077ec087ebc8c2819ecab01b093edf181a8ce356f10b1dd7c27d38c637bc8e0fc743bb2762a435bce45ba20feb368335213e5b00ad354a0a8f4221729c663a9244de314f4029a9b15eb19f260a6e4d8a6b98cab455c426a696dbd5f11789b08c0a7969d50402591c4be2af8b58ecbb27085e20cac73ab625f9473c92eb98404ce63996a8e3a5d73e8eeb6f4509648d048cb84d7ce409bdbbbc7dd8533101dac98009e3e647ed7ea479401e58050fdf8f0ce9f827c0376d214a54c194c751c0fd865face87fdf624ec99501546c174b75b1db58628bd3291cc596ccb4eaf61308c53284e08ac5694366589a5b6ff1b4f7b424875fd31e73c6fbfcd3d21057ce22e3a4ceb8428427682e0ba95e96d503e324cd7ef665678f05591dbb00f46367b6e9f803619f5c3c811eef17a1256b45c5dfa6eaf070b3579a7496efc1ea5ef43be845dd6b1d37c7d9e4f08d08b0f62d3cf0252db2e2fb35a0a160b0c4214b4da6156e9783dc13eae6f556c29f53cedc1689c033b480d52c6c4a243d1cce8b9472ba0985a7e5ac2eb0d67fd82a06c8399ab6190d5e786b67ad40ad33feed952c301ffb65fc2c4fa82d46f204e39e61a3bac0aa56d4d705b6c1b3ee4ffe22f7830f596b0151bb18f20bbb1c267a7e121922edadd28393c7af83cabb2af81a0d2de2a8e014bee7fa39649cb49edf2ed970f53a20b6969299647e2169c0f65c637b87037595c16e190fb69094d54ced387126248f8d38f2ca5e4da05af2d4c665326e12763a656c9303dd2b52bef9296cb4fd8ea6c453bf66094a39b2a66ac633cc63af609a9d9cacd2cc600ab447d6c9f1ef0e4c5d9fa3c164cf59e1690a21c88e9a13ca6d3386793dc8383a6e11ecd837267c44e2be9be8d2849eb7077c93432094b35d84197c1036ada33ae983a25f1db656e8e365a3fa78d0b70585f1867c116c7cb942a371c707e5677e4c6a1727355622a437869c21e9938d81fed25b2f293f4314b2717286711d86cb88c6e47bf8a32ad76d0a06122150976cec8ebbb6c2b8ce7a2019ac9e4813a0446e86779cac23720d579c58a79df40fc96662e578e00c3fed99e94a26e4fa3bf1ef626398cc05eb0a8807a9c173d76573864766c8bafae3d7613e341dbbd8620ebfaa1872b69cb74fccf5946bd9a78bd6452e6c0a0476b76e16c58f7baecd6235e49dd3bde004c9e22fb0f2a19d3e08d6e75b094256f0c940ef51347cdd831934c3e2fe5f2098e078805de86670e1049526ebed1d5e0eff4fe03111f222642494a677578b0bac3c4cfd9e3ef015166767a7b8ac7cddadbeef91d26343a4361626c727a88a3abb8c50000000000000000000000000000000000000000000c1f2c3b01",
        "00ec14153db2d364be29ce1b130962a202e0f5d61b21f7c9b0bdfe053edca50bca1128ed0d56a0ae0a29cbad1b262fe30fa6eed66a5d0a45d28f4d77f09c2fd5684e5680376561557fac5cadbf4396275dd69d09c0253c885bc01ba81d937561cfea02ad471a2479f2c27cb70ee0b38dcc265fe270d34e8aa6f581164dc256995ae9390aa47ca7ac9e1333ee15ce4b7b58ffac127474ea6a55b78dfa47e4805f071bc7b65e3f3f4362d84130e001e12de6b0b13d938d08a30cd3fb66477837b31727089a195f1372cf22af888667676181a55e2149b19a10198692c15b2c70d16d047a538326ba24d95192694c441271504105d26b7e341f3bffa8ff79e309d86bff41b98833b4a20fb3f5829c8d072c56644fcea4ed60815f697126b5fc9d073adf42449b256a3c79fc29e756c5b5c926b07ad14ec9258148d6c32ac93a4720111d60fcf31310b5b31693a5de98422e46a23de9df3aa53840f69ca0ac97ff1336a45cd0f13c2fdde749ec1b726dac82bfe80810fafa571c5c8753c7ea564c75cd62e039418184a4c47748319aa2bc33715ec00ff7211d58ad3670a8b22517ef3c6e5c7e445f0ba96071757fc58ddeb3d85c00b4564b1dd379c365c14dbd821fe3d077caf2300e47c7cf0bf5d46b0dffb159ae12b04707d229e5977c54e37247db965983f7cea6381ab3689be4d1b6605897589e01ffcc8fb5c3b9e0637bde2e2de535fb8cb4b7c4c1f82a01933fbb6ebc3b5644c94d94b22ad067e8a38b20212c7eef9a4970a24ef761fc75aaa29204ffea8f1df0cf4be9e2ee786ecb26e9a8c3f425cd0172140171c8d2a5b694bbd5ced0ff02399f3a8d9c9a793cff68e9ff6e8228c153ec640c173ae2862a907ac6e7813721c4c4ccd0d364e54d161e38b2774c313fb2c3467b44bbd5eb250267b7758f18b9630f772393da8cd440a1826f964f75242c7fb3aedb639a583b348398d67b74cd4c4f0c7c01bcad74f3bbcc8c0672ba43e60a14e1b60215b1137981326e651123f0e13d2bcd3623a265e2370c9f7bf1931e269d5f419557833fbb1068192cb57f288bf8e774ace420705bb578b85be0169ab105661775a0e1ca040438012109ca510c667e0a81387d2726d0d6d739daddb08d97836110758201f803c733a6c234ccc4104c8ccecd22a3fd7778b633f0576cac0e0055761f450cea0e8499b2cac4b90283c95af69738e876b0a98f95bfa827b47e5a90772c589db4ec115300e8e2d2b0bb1369a5b46a7b266c81a87de54735f5e42dd1ed42a2d345367906cb5508b589a7e411cf0e59eb7a47334bc8947c841fa670bac92bc99cbdbb8fa2693becef5553dcec5c5ac403e3ffd3c023221c4244e2917eacaa1a0be19ddfab726ca4d457013851919d2184a4800c11be969df221ffbd7585b86530a87f56dd4529a9c2df1dfb30e331c3dbce406fc2e1d5671a0993da542fceda26f2f85b2fe6c3f20f7d7c7be9efeadd6cd2d679043c1b18fa6dfdfbf149ae753401bdb88cbebe2439f4f21c09893c6bf48e6f6814abd78e8ea44c736f52e25862a7f5766b39952dd27ae3af5ac7b04c18b33b591ddadb6f15b5d9b67647d68e3232127e632fd6e13bd599a12986823f14b98b7f6d08ecb078760905bc6de96f97541863fce609c8a573a6327f3933f2e7ef6694db5876be3f1778e353fe839a2cc93568057ec9e68e614bf0a007d80e70dbbdd7c996a598ad7c3051af5e3e526a05b774b3fa921386a35cc6c65cd3a2b811a0860510b52610bf44f667aecf6063a6b70e098f67579465ad3866aed271613b162df5d9969d9678d58315e4ffbac91820c1b37ef33676c9593a1f90ea2f63bab474cc"
      ],
      "sequence": 4294967294
    }
  ],
  "vout": [
    {
      "value": 499973.5606,
      "n": 0,
      "scriptPubKey": {
        "asm": "1 d3c19a7675cb65ce129a157a6c06ccfe1e8e93f04b27bc006d6cc65f1ef9e450",
        "hex": "5120d3c19a7675cb65ce129a157a6c06ccfe1e8e93f04b27bc006d6cc65f1ef9e450",
        "reqSigs": 1,
        "type": "witness_v1_scripthash",
        "addresses": [
          "3QJmnh"
        ]
      }
    },
    {
      "value": 1.0,
      "n": 1,
      "scriptPubKey": {
        "asm": "OP_RETURN 1705ec8eb4a229b900c88e75235025d0c1d9f1373a2e437a79274cfd5316b0c9 0ab569062bbe36ff46b0987cf70075576a3e2b50f6b150c7ebb6fd79695533a82a9549260b9e16df6690b85cd72055774a1e0b70d69170e7cb96dd59497513884af529466bfe76bf06f0d83cb74035172a7e6b10b6f11087abf6bd39291573e86ad509664bde569f26d0f81c976015370a5e4b3096d130a78bd69d19093553c88a35e986ab3eb67fc63018fc7780f5d7eabeabd07631d0476b367df9e9d5b328aa15c9a68b1e965fe61038dc57a0d5f7ca9e8bf05611f0674b165dd9c9f59308ca75a9c6eb7ef63f867058bc37c0b597aafeeb90367190072b763db9a995f368ea5589e6cb5ed61fa650789c17e095b78adecbb01651b0270b561d9989b5d3480ab569062bbe36ff46b0987cf70075576a3e2b50f6b150c7ebb6fd79695533a82a9549260b9e16df6690b85cd72055774a1e0b70d69170e7cb96dd59497513884af529466bfe76bf06f0d83cb74035172a7e6b10b6f11087abf6bd39291573e86ad509664bde569f26d0f81c976015370a5e4b3096d130a78bd69d19093553c88a35e986ab3eb67fc63018fc7780f5d7eabeabd07631d0476b367df9e9d5b328aa15c9a68b1e965fe61038dc57a0d5f7ca9e8bf05611f0674b165dd9c9f59308ca75a9c6eb7ef63f867058bc37c0b597aafeeb90367190072b763db9a995f368ea5589e6cb5ed61fa650789c17e095b78adecbb01651b0270b561d9989b5d3480ab569062bbe36ff46b0987cf70075576a3e2b50f6b150c7ebb6fd79695533a82a9549260b9e16df6690b85cd72055774a1e0b70d69170e7cb96dd59497513884af529466bfe76bf06f0d83cb74035172a7e6b10b6f11087abf6bd39291573e86ad509664bde569f26d0f81c976015370a5e4b3096d130a78bd69d19093553c88a35e986ab3eb67fc63018fc7780f5d7eabeabd07631d0476b367df9e9d5b328aa15c9a68b1e965fe61038dc57a0d5f7ca9e8bf05611f0674b165dd9c9f59308ca75a9c6eb7ef63f867058bc37c0b597aafeeb90367190072b763db9a995f368ea5589e6cb5ed61fa650789c17e095b78adecbb01651b0270b561d9989b5d3480ab569062bbe36ff46b0987cf70075576a3e2b50f6b150c7ebb6fd79695533a82a9549260b9e16df6690b85cd72055774a1e0b70d69170e7cb96dd59497513884af529466bfe76bf06f0d83cb74035172a7e6b10b6f11087abf6bd39291573e86ad509664bde569f26d0f81c976015370a5e4b3096d130a78bd69d19093553c88a35e986ab3eb67fc63018fc7780f5d7eabeabd07631d0476b367df9e9d5b328aa15c9a68b1e965fe61038dc57a0d5f7ca9e8bf05611f0674b165dd9c9f59308ca75a9c6eb7ef63f867058bc37c0b597aafeeb90367190072b763db9a995f368ea5589e6cb5ed61fa650789c17e095b78adecbb01651b0270b561d9989b5d3480ab569062bbe36ff46b0987cf70075576a3e2b50f6b150c7ebb6fd79695533a82a9549260b9e16df6690b85cd72055774a1e0b70d69170e7cb96dd59497513884af529466bfe76bf06f0d83cb74035172a7e6b10b6f11087abf6bd39291573e86ad509664bde569f26d0f81c976015370a5e4b3096d130a78bd69d19093553c88a35e986ab3eb67fc63018fc7780f5d7f3ff0e0317411d0beac778677c660fb2e75acd1edde3f0e473dd6a77e0974743",
        "hex": "6a201705ec8eb4a229b900c88e75235025d0c1d9f1373a2e437a79274cfd5316b0c94db0040ab569062bbe36ff46b0987cf70075576a3e2b50f6b150c7ebb6fd79695533a82a9549260b9e16df6690b85cd72055774a1e0b70d69170e7cb96dd59497513884af529466bfe76bf06f0d83cb74035172a7e6b10b6f11087abf6bd39291573e86ad509664bde569f26d0f81c976015370a5e4b3096d130a78bd69d19093553c88a35e986ab3eb67fc63018fc7780f5d7eabeabd07631d0476b367df9e9d5b328aa15c9a68b1e965fe61038dc57a0d5f7ca9e8bf05611f0674b165dd9c9f59308ca75a9c6eb7ef63f867058bc37c0b597aafeeb90367190072b763db9a995f368ea5589e6cb5ed61fa650789c17e095b78adecbb01651b0270b561d9989b5d3480ab569062bbe36ff46b0987cf70075576a3e2b50f6b150c7ebb6fd79695533a82a9549260b9e16df6690b85cd72055774a1e0b70d69170e7cb96dd59497513884af529466bfe76bf06f0d83cb74035172a7e6b10b6f11087abf6bd39291573e86ad509664bde569f26d0f81c976015370a5e4b3096d130a78bd69d19093553c88a35e986ab3eb67fc63018fc7780f5d7eabeabd07631d0476b367df9e9d5b328aa15c9a68b1e965fe61038dc57a0d5f7ca9e8bf05611f0674b165dd9c9f59308ca75a9c6eb7ef63f867058bc37c0b597aafeeb90367190072b763db9a995f368ea5589e6cb5ed61fa650789c17e095b78adecbb01651b0270b561d9989b5d3480ab569062bbe36ff46b0987cf70075576a3e2b50f6b150c7ebb6fd79695533a82a9549260b9e16df6690b85cd72055774a1e0b70d69170e7cb96dd59497513884af529466bfe76bf06f0d83cb74035172a7e6b10b6f11087abf6bd39291573e86ad509664bde569f26d0f81c976015370a5e4b3096d130a78bd69d19093553c88a35e986ab3eb67fc63018fc7780f5d7eabeabd07631d0476b367df9e9d5b328aa15c9a68b1e965fe61038dc57a0d5f7ca9e8bf05611f0674b165dd9c9f59308ca75a9c6eb7ef63f867058bc37c0b597aafeeb90367190072b763db9a995f368ea5589e6cb5ed61fa650789c17e095b78adecbb01651b0270b561d9989b5d3480ab569062bbe36ff46b0987cf70075576a3e2b50f6b150c7ebb6fd79695533a82a9549260b9e16df6690b85cd72055774a1e0b70d69170e7cb96dd59497513884af529466bfe76bf06f0d83cb74035172a7e6b10b6f11087abf6bd39291573e86ad509664bde569f26d0f81c976015370a5e4b3096d130a78bd69d19093553c88a35e986ab3eb67fc63018fc7780f5d7eabeabd07631d0476b367df9e9d5b328aa15c9a68b1e965fe61038dc57a0d5f7ca9e8bf05611f0674b165dd9c9f59308ca75a9c6eb7ef63f867058bc37c0b597aafeeb90367190072b763db9a995f368ea5589e6cb5ed61fa650789c17e095b78adecbb01651b0270b561d9989b5d3480ab569062bbe36ff46b0987cf70075576a3e2b50f6b150c7ebb6fd79695533a82a9549260b9e16df6690b85cd72055774a1e0b70d69170e7cb96dd59497513884af529466bfe76bf06f0d83cb74035172a7e6b10b6f11087abf6bd39291573e86ad509664bde569f26d0f81c976015370a5e4b3096d130a78bd69d19093553c88a35e986ab3eb67fc63018fc7780f5d7f3ff0e0317411d0beac778677c660fb2e75acd1edde3f0e473dd6a77e0974743",
        "type": "nulldata"
      }
    }
  ],
  "blockhash": "f0ff1fbaae405cadeb51abb379c93a956cf666ff613992ee95c2f945c1780bd2",
  "confirmations": 1,
  "time": 1764181685,
  "blocktime": 1764181685
}