{
  "hex": "01000000000101c08cb472ca45296f7bf76a34f8051862bfc8dcb46e514b9556f061d180087b020100000000feffffff02d0cb9045792d0000225120c0bf14bab8f9e9c740675d23d00a67b7d068c9857df05c84268b8098ce2ea59300e1f50500000000fdd5046a2026a0546b7c5ff0f7e86e40bc4fe35b629026a49b4939fa026564552cbc9622204db00439baa6ba78c365cc46bd388b8c71ccddd2923dbd125fee4c1160cd222aeeb072199a869a58e345ec669d18abac51ecfdf2b21d9d327fce6c3140ed020ace905279fae6fa3883258c06fd78cbcc318c9d92d27dfd521fae0c51208d626aaef03259dac6da18a305ac26dd58ebec11acbdb2f25ddd723f8e2c7100ad424a8ed012b93a263af843e54cc63db80b0cf14c5d5212bd3d92df6ecc91e04da2aa6e30f2991a061ad863c56ce61d982b2cd16c7d72329d1db2ff4eecb1c06d828a4e10d2f97a667ab803a50c867df84b4cb10c1d1252fd7dd29f2e8cd1a00de2ea2e70b2d95a465a9823852ca65dd86b6c912c3d3272dd5df2bf0eacf1802dc2ca0e509239baa6ba78c365cc46bd388b8c71ccddd2923dbd125fee4c1160cd222aeeb072199a869a58e345ec669d18abac51ecfdf2b21d9d327fce6c3140ed020ace905279fae6fa3883258c06fd78cbcc318c9d92d27dfd521fae0c51208d626aaef03259dac6da18a305ac26dd58ebec11acbdb2f25ddd723f8e2c7100ad424a8ed012b93a263af843e54cc63db80b0cf14c5d5212bd3d92df6ecc91e04da2aa6e30f2991a061ad863c56ce61d982b2cd16c7d72329d1db2ff4eecb1c06d828a4e10d2f97a667ab803a50c867df84b4cb10c1d1252fd7dd29f2e8cd1a00de2ea2e70b2d95a465a9823852ca65dd86b6c912c3d3272dd5df2bf0eacf1802dc2ca0e509239baa6ba78c365cc46bd388b8c71ccddd2923dbd125fee4c1160cd222aeeb072199a869a58e345ec669d18abac51ecfdf2b21d9d327fce6c3140ed020ace905279fae6fa3883258c06fd78cbcc318c9d92d27dfd521fae0c51208d626aaef03259dac6da18a305ac26dd58ebec11acbdb2f25ddd723f8e2c7100ad424a8ed012b93a263af843e54cc63db80b0cf14c5d5212bd3d92df6ecc91e04da2aa6e30f2991a061ad863c56ce61d982b2cd16c7d72329d1db2ff4eecb1c06d828a4e10d2f97a667ab803a50c867df84b4cb10c1d1252fd7dd29f2e8cd1a00de2ea2e70b2d95a465a9823852ca65dd86b6c912c3d3272dd5df2bf0eacf1802dc2ca0e509239baa6ba78c365cc46bd388b8c71ccddd2923dbd125fee4c1160cd222aeeb072199a869a58e345ec669d18abac51ecfdf2b21d9d327fce6c3140ed020ace905279fae6fa3883258c06fd78cbcc318c9d92d27dfd521fae0c51208d626aaef03259dac6da18a305ac26dd58ebec11acbdb2f25ddd723f8e2c7100ad424a8ed012b93a263af843e54cc63db80b0cf14c5d5212bd3d92df6ecc91e04da2aa6e30f2991a061ad863c56ce61d982b2cd16c7d72329d1db2ff4eecb1c06d828a4e10d2f97a667ab803a50c867df84b4cb10c1d1252fd7dd29f2e8cd1a00de2ea2e70b2d95a465a9823852ca65dd86b6c912c3d3272dd5df2bf0eacf1802dc2ca0e509239baa6ba78c365cc46bd388b8c71ccddd2923dbd125fee4c1160cd222aeeb072199a869a58e345ec669d18abac51ecfdf2b21d9d327fce6c3140ed020ace905279fae6fa3883258c06fd78cbcc318c9d92d27dfd521fae0c51208d626aaef03259dac6da18a305ac26dd58ebec11acbdb2f25ddd723f8e2c7100ad424a8ed012b93a263af843e54cc63db80b0cf14c5dc087a424fb370ffd493f52aaaa149a53eab25fdbfeab6fc7d9317b76e92632a102fd750986128146ce3c525716fd9dac5e4525ebe69c7d8136942e0bf32bc6bf329a0048c222f354a4e48d1f5cbd3cac31c8c1bbe3bfadbb20e01577833d0b0e26be69a435f216e539134fab20abd9048a1e69a05da71aaa2160ce0aadfd7ff20e28da768b06bcc315019671a02ee3ed8dde3f0f11f840d4bd4708f4c911f42c8d19c5977e87ff9631aa6079a2db074ac010d34ead07d3b055c23a12f62507f5ea704b0983da9fd0fc5aa4797ce37339fb5578130d69bd8daa613eb747b3db38a06630a5bb295eaa90ee6f7c7fc8c4cefdd7eb5b2374a7e4d28eb6d65059e6f25ab83469c1fd83763bbb9a29c78631c97b052016e7771ffaa3992d3f0f296a2617f422bb338904bed50ebb2114476dbed808caa08649968a7216dd03d6266a859c6c02a97af976c3b5fc24ab451b04ca4258904156341697492f4297141851932fff24c6cbde1817bed34e080fc64fb7a8c8f0a43c62b22127c9629b43a5e093b442f92199f1ce1bb20f9b1768e3cda64104f45d56ede325f2b41d29c8787f3341be01c79880eb3219cfd597d076071d031bb1cd5ba63b8706e35aacc2faad62442ba8f886e47f9326c7282f8a1e3d7fff9b276ca1507b07bdcbf505990db5ae1c5f17fb138ee9a4e9e2c17701ff9cbef641af40d854497cef46f1f1da45d17b0737abaf042bec6bbb3177a24573bbf71f2e75f14b103ebb805a18a0ecffb7b1110a8759b493c73e5a37d26a7be51b826f7807a9a33442f8340a08bc7d985d3f889bd4d02f9b65445001af44e67bab6a0ca7c68253a1bcfb0a1b30a9619b8320c54e46f8ea209ad5116fcd2712ed7f4061c860164648efb3dd9993243f2d397c9ec2f974a88f5a168fdcd86281de4718bc69db9c2a2b17f5fe864364fe2e58eaf99e25e8333cff9992af6894240169ee1786544d0242083f48938d2b1d957d24386ff5b03002c21d567731676a0edb7087472a81152688132573827cb3fbf90d7b0ba9d6c7d885607c2982679dd1e0f006a02a78b39c8829a9fc8e3de03d311c05a793dd6b057db22e060fd09cbcd6cc3435b83a8a7b37b6e8d7597412644c298d06c1106a4b0d94908f9e0f5b48b743a9d0ff40c9ebfb04eec1812243a694ebeea6ea5dcc76f4211f59fa2f9c28dd19812e9aa61191be9173e4888dcb1afd5852307eafb15fb709a2a215967686ef6c4ab09d7371a16cf0900d881bb0920cd65ba86cab72a48158c4e0bcad5139613b5f20507cbef49eeeeb0d30031a34769415fa04c28093ceb4721dc13869170f0780206ffaaeccb594eb3ec20155c0481d713f90a6dfd3275e2fb2b7092e03ad1722024dccecc94999cd3259f52e17c2e07f0215a3c1b6733a18fb99ad09ef2a2696ebe49668e50811a2d08a1653babd4fdab6565ef6f6587769dc9ed2d2ecf8c99dd436dff38eb1898675187069c6ca9de94b2be7577fbd296f7b12769e4ca3f5dda7e39480fae3d00e34284e4bcb7e16e869ce9e990ffb13f73f353cf18dc454d6030a28f3e8bc05f1bc7184948b364530461bf68915b04ea1c1cfad4b0228fdf6f828788528b68d6c23835ae81b0827e6b1eb46f2b7c5fe5dd78f028f56246fbda4b1359d8966acf3a7d712d4adf3d58f3a8578b7d7980a3a752c4ccbfd4a8464f41385b9c51744521f382fbb48b43826abf162d6ae81ea7ac033c386aa6f871b8f9bdfaad8020215eb4d51d9b300794bd22a835b62a60b36f4c069da9f4758f78893d0d819988f5f842ef9f8daec925e06f29ce2024f15f298141c36d6e15967db3e3a2011ae3af662c23f40ee3e071cffb9004d3324f47bc75ef4254b7bd4790ff4fe55a861065eca7a82bfade19fd8a3c08a6a455b2f7745534978e1b9b90f58b9a43dac388b75d2652d1c7b5245c493d3fd64c41fbf6c960be1778ca71566917986d6c2705a84c18e4b6d18a94c996d4d7be5536e24e516f3fe0e4a62fa0bb7a6996134e51f9d3c2107e12dad75dfb06783c6d6dc4143ade0a8680a8c7af2e4c699caae980b2da4fe956b838caddcadaabc9c3a8ab9aecbebf8dbcdbf0a8be6e577aa6ad0f538d66e4c7f626a4f82da45a619960c48f238b670c8d009d99afefaa2e6ddb6cdb19d9c7c37597c552c9410b7791779263bcf33a35991b2b64186acf194eb9bf9408f3bd681584fcbcb67093e5e61055b6df62539703fba99dfe18d70d84ae0cbfd2d7494ed22185b6afab43d0db8f0b6f22743b92e6d5ee9fcb4cd24491fa1bcd0579735ca7a9e760d62816787d2de78b4838a07afc0a997ca163ecc7af3b6587145874c8115d7b6fa28f16a244e4f4c48d95ad1177670d790dbc694ab2e3c4e18d5c5779faa275e234a711e1f298863b33a2f7cff0a0c684189c1ec07dcd1188c47815dc0eee3329ea329174fbc014f4896c884209aef81c256cf16a9cc2e3e3e698e0ac89153c27ceed037c01e097206b23a2724bd0162ecc7ca54539f833ecdbca21ffbd9dbd6e3c61ba1b87a146d5d33cd1424b7a059e05fe45facf2a79404ddcd58d61e03d2b9b6da72bdd88bbe6546e6329ca14e465a4331ebbc631228f07d83c123ae181e5906043bd4dd9bcd0a16f603d601ada96a78233229a76ce80857a646c78ea49fce5915ae91c775a2ebe7f23f53dc11d0fb857bc713aba7f44d7a37e92a9c90edd1ba21330970d1f85cd29096ee92283fce8cd3bc87cf6d204837d3d21f18296b6e433594f36b87c67831dd6d3805e6fb9cf6825054f5867a667b8d56f179c98fcb1d95752496a5a4f5defc4b3cda184e7c76c9bf04e158e0c8bb65ca3b51ab3ae197d0cb47063f9589416acb02c688514feb1fdcf4ccef49e241686e87f574f3a9d1e2b7a321375726cbaca954d28a22e313a0566e6817538528e6c745ac483b3d15752f962f04790066036498d610bb09dafa9e5230f88a381e749dea09c26622fa36b654830fc11f2c168a3b05f2afa658563b1c0830cd247fb3600f9b8f778a15cb1c62d808dc95686a1baf06bad7820bbcdb9d3a3fca449cc9614898bf633902afb40539a64b6078a8743679075d266b9eac55e2f3a1dba460144ffe3013ded0f8c3efb8b082908a0d9f93bd75fbcac15e275ea98ea6984b70135cc1db5c1fb60a443da706ee7e0582f72080befc849edd1c2195a4352292615028b10ef1f00f95dc078044cb5777b2f08b47ba93ac52459caf440e385b4b0fdb088899a9f788f9d7911947d517620439089ec183583e41044cf8460fecc0bf82eb746474a638ba64b5818c578fb66ff74a51c217d5d3b991520d5c9da467c14f0bb04dd7f76e0b69081a20292f424f5b6f718091a3b2b5c1dde4f4f7063541565759686c7b7ca4a6c1e8f3f907141c313b5d6a7096a4b1c1f7061727406c8894979bb3e6e8000000000000000000000000000000000000001424313d01fd210500485c3ebe7277bd4839eae978640a89ba2bb6c021df324cd679bd42fde78c87acad93038043f7a70c0ed56ce0c43dc7f9795a870429bacb3be1c62d71c77c123bc84d192ad48186f5127d55acc38b6713b18c9770e1e9fefd19f4f9194000e1af063d5bca1e45ead28e2c826574056779f38817104a91253accf5347f38f915443313a1bc0a8c1016406a650740e1e010c4a51a185b8a2791aabc01b2d83cab67816a8d6f5ad176845c6377b032d67398d808fb11266d38b56a385bcd9e461198035aa980d32139a4ca8ceea2a49dc1650638faa400bd7c4bc0c89eb17e8c4e4656acd1925fa4299ee7d9fdb185760c979264bb8ccad0b537017063c8e5457a52b8c62a705ea623ed54e2cc612b52d9e0961bcf7bd367e883f33328935a4920804b13a344e6717546fe7a2c7b4d404531b94169d17a92e6f6c31d56373658e37a271a67560d2b8b68c3324da2c761d84d62b5e01f3670e7e8b16387d9dbd5d716a8618910033855394b2ccfc1d88ae3afc953f361d9a72fca77a0d0a6a3bfb8b09821d51cb1126df85419928309d16403f2a107b79cca0811004934645cfa393c16fb71d8bcaaa1355a0e74e29adbe95909df6f9ed75bef44b7503765a074144cef42052abeaac1d5c380f5ef07e52e53292844467d79d87a35997b525863418457d031af08b1d35042de501eb01ffb083e0bb1c08d04e190c62daf4f059c045c9fa1b46b31463ecd3233002607eab7b907ca8fccf1d0c6149b467890adb116a9c12e15cef1a5c0ad9a695932b32b1b433def096c54222cce00ea4cc36301e5d449d4fc4d379db6c8d378bf7fc9b35cec467b21ffc2552d57d8da10c73c96fc2f41cf6689edc96063d8562e5fec9ef1505766a3deb02e92f67538922815df7016d41521d6c8c173fc7719cc9dd5b2651af485b0788666bb760b484458b8677332f2e70e0bb00cc66fb2fee37b660ce0a61de9bf0f80af564a256617cff8cc2f3caef6acb9f47f7b99bb86f43611770a399070de5aa6d0336285ac6823c1628017377bd6bc5cf68d3d524bcd3fb8ddf41bb8d292a6bf885d3eb845c2ffebb08978da8552c074e65c2678aa50f69f46deecd93d87d9a0f0672aeab53b625fd9cfd45d98c92d795a3bcd4a9e9c8dcfa9d73c9917ae9e2cff311771c521d909f9bfd769e2fead125c974e011a40d53fc9b9df2cc9a4f7a6db7599782ce20cc8701427005f26992aa1653434a13122249d64acb763d5c2f645fb959bd388d305213cab01945d6b4f41fc36e79251f883bbee145957d86a8107b006ada8882c96dcccb2b856db80ae5f4711d783240d7211861a6a19d46eb0a6640bb0f1e58909b878e44acf3792b618e0bc6325dd86736137ea6cf1a9cd181bd5002ae571908029c1971b7b72b0abeb67381694a1a761ec6c3b713dd417a4b4409b2f395a2bde3f4d707f76fedde7310b5e50c846a14641bac01b441dfd437c5f5e75f1891e12c3bb63a9aae75661744c6f8ca17d85b1835133de08ea25be7dd2ff2f3c31975b2218cabdd572b61a4ff53e64878cc979787d01f359ef2322602be33822ad275cf9595ee555a4e06eb024530ec658e275ec1d06056830c52dc20ea35c2c8fb8b5854882083bbe106d0326398c4f0e1b4102c6319303ed8dca5e586041f277789790d13fbfb2077baacb88d27a0f50e1313ad7b71ef269b206ad2f3899958e2927a12dbbb1c9861d29ccfd5e92172307c67880d5becea15eadbceb4d2e216e5713b850b99e6843fcc47a7e4726e0815e5a6ea4dab6d605c9323bea07079cd87619d870093d7a3b23065b585bda47d56fa4157c25133b39c7890c25632eabfd85f2f0979517000000",
  "txid": "b586b05dc48b075be645ba4a03af09f7472633fa1a168f33c02ea1342e526a6f",
  "hash": "fc4327a675ea6a591c079ea449fa5abb45255e7178f0b4ecefdace8d2e2af8e3",
  "size": 5085,
  "vsize": 2278,
  "version": 1,
  "locktime": 23,
  "vin": [
    {
      "txid": "027b0880d161f056954b516eb4dcc8bf621805f8346af77b6f2945ca72b48cc0",
      "vout": 1,
      "scriptSig": {
        "asm": "",
        "hex": ""
      },
      "txinwitness": [
        "86128146ce3c525716fd9dac5e4525ebe69c7d8136942e0bf32bc6bf329a0048c222f354a4e48d1f5cbd3cac31c8c1bbe3bfadbb20e01577833d0b0e26be69a435f216e539134fab20abd9048a1e69a05da71aaa2160ce0aadfd7ff20e28da768b06bcc315019671a02ee3ed8dde3f0f11f840d4bd4708f4c911f42c8d19c5977e87ff9631aa6079a2db074ac010d34ead07d3b055c23a12f62507f5ea704b0983da9fd0fc5aa4797ce37339fb5578130d69bd8daa613eb747b3db38a06630a5bb295eaa90ee6f7c7fc8c4cefdd7eb5b2374a7e4d28eb6d65059e6f25ab83469c1fd83763bbb9a29c78631c97b052016e7771ffaa3992d3f0f296a2617f422bb338904bed50ebb2114476dbed808caa08649968a7216dd03d6266a859c6c02a97af976c3b5fc24ab451b04ca4258904156341697492f4297141851932fff24c6cbde1817bed34e080fc64fb7a8c8f0a43c62b22127c9629b43a5e093b442f92199f1ce1bb20f9b1768e3cda64104f45d56ede325f2b41d29c8787f3341be01c79880eb3219cfd597d076071d031bb1cd5ba63b8706e35aacc2faad62442ba8f886e47f9326c7282f8a1e3d7fff9b276ca1507b07bdcbf505990db5ae1c5f17fb138ee9a4e9e2c17701ff9cbef641af40d854497cef46f1f1da45d17b0737abaf042bec6bbb3177a24573bbf71f2e75f14b103ebb805a18a0ecffb7b1110a8759b493c73e5a37d26a7be51b826f7807a9a33442f8340a08bc7d985d3f889bd4d02f9b65445001af44e67bab6a0ca7c68253a1bcfb0a1b30a9619b8320c54e46f8ea209ad5116fcd2712ed7f4061c860164648efb3dd9993243f2d397c9ec2f974a88f5a168fdcd86281de4718bc69db9c2a2b17f5fe864364fe2e58eaf99e25e8333cff9992af6894240169ee1786544d0242083f48938d2b1d957d24386ff5b03002c21d567731676a0edb7087472a81152688132573827cb3fbf90d7b0ba9d6c7d885607c2982679dd1e0f006a02a78b39c8829a9fc8e3de03d311c05a793dd6b057db22e060fd09cbcd6cc3435b83a8a7b37b6e8d7597412644c298d06c1106a4b0d94908f9e0f5b48b743a9d0ff40c9ebfb04eec1812243a694ebeea6ea5dcc76f4211f59fa2f9c28dd19812e9aa61191be9173e4888dcb1afd5852307eafb15fb709a2a215967686ef6c4ab09d7371a16cf0900d881bb0920cd65ba86cab72a48158c4e0bcad5139613b5f20507cbef49eeeeb0d30031a34769415fa04c28093ceb4721dc13869170f0780206ffaaeccb594eb3ec20155c0481d713f90a6dfd3275e2fb2b7092e03ad1722024dccecc94999cd3259f52e17c2e07f0215a3c1b6733a18fb99ad09ef2a2696ebe49668e50811a2d08a1653babd4fdab6565ef6f6587769dc9ed2d2ecf8c99dd436dff38eb1898675187069c6ca9de94b2be7577fbd296f7b12769e4ca3f5dda7e39480fae3d00e34284e4bcb7e16e869ce9e990ffb13f73f353cf18dc454d6030a28f3e8bc05f1bc7184948b364530461bf68915b04ea1c1cfad4b0228fdf6f828788528b68d6c23835ae81b0827e6b1eb46f2b7c5fe5dd78f028f56246fbda4b1359d8966acf3a7d712d4adf3d58f3a8578b7d7980a3a752c4ccbfd4a8464f41385b9c51744521f382fbb48b43826abf162d6ae81ea7ac033c386aa6f871b8f9bdfaad8020215eb4d51d9b300794bd22a835b62a60b36f4c069da9f4758f78893d0d819988f5f842ef9f8daec925e06f29ce2024f15f298141c36d6e15967db3e3a2011ae3af662c23f40ee3e071cffb9004d3324f47bc75ef4254b7bd4790ff4fe55a861065eca7a82bfade19fd8a3c08a6a455b2f7745534978e1b9b90f58b9a43dac388b75d2652d1c7b5245c493d3fd64c41fbf6c960be1778ca71566917986d6c2705a84c18e4b6d18a94c996d4d7be5536e24e516f3fe0e4a62fa0bb7a6996134e51f9d3c2107e12dad75dfb06783c6d6dc4143ade0a8680a8c7af2e4c699caae980b2da4fe956b838caddcadaabc9c3a8ab9aecbebf8dbcdbf0a8be6e577aa6ad0f538d66e4c7f626a4f82da45a619960c48f238b670c8d009d99afefaa2e6ddb6cdb19d9c7c37597c552c9410b7791779263bcf33a35991b2b64186acf194eb9bf9408f3bd681584fcbcb67093e5e61055b6df62539703fba99dfe18d70d84ae0cbfd2d7494ed22185b6afab43d0db8f0b6f22743b92e6d5ee9fcb4cd24491fa1bcd0579735ca7a9e760d62816787d2de78b4838a07afc0a997ca163ecc7af3b6587145874c8115d7b6fa28f16a244e4f4c48d95ad1177670d790dbc694ab2e3c4e18d5c5779faa275e234a711e1f298863b33a2f7cff0a0c684189c1ec07dcd1188c47815dc0eee3329ea329174fbc014f4896c884209aef81c256cf16a9cc2e3e3e698e0ac89153c27ceed037c01e097206b23a2724bd0162ecc7ca54539f833ecdbca21ffbd9dbd6e3c61ba1b87a146d5d33cd1424b7a059e05fe45facf2a79404ddcd58d61e03d2b9b6da72bdd88bbe6546e6329ca14e465a4331ebbc631228f07d83c123ae181e5906043bd4dd9bcd0a16f603d601ada96a78233229a76ce80857a646c78ea49fce5915ae91c775a2ebe7f23f53dc11d0fb857bc713aba7f44d7a37e92a9c90edd1ba21330970d1f85cd29096ee92283fce8cd3bc87cf6d204837d3d21f18296b6e433594f36b87c67831dd6d3805e6fb9cf6825054f5867a667b8d56f179c98fcb1d95752496a5a4f5defc4b3cda184e7c76c9bf04e158e0c8bb65ca3b51ab3ae197d0cb47063f9589416acb02c688514feb1fdcf4ccef49e241686e87f574f3a9d1e2b7a321375726cbaca954d28a22e313a0566e6817538528e6c745ac483b3d15752f962f04790066036498d610bb09dafa9e5230f88a381e749dea09c26622fa36b654830fc11f2c168a3b05f2afa658563b1c0830cd247fb3600f9b8f778a15cb1c62d808dc95686a1baf06bad7820bbcdb9d3a3fca449cc9614898bf633902afb40539a64b6078a8743679075d266b9eac55e2f3a1dba460144ffe3013ded0f8c3efb8b082908a0d9f93bd75fbcac15e275ea98ea6984b70135cc1db5c1fb60a443da706ee7e0582f72080befc849edd1c2195a4352292615028b10ef1f00f95dc078044cb5777b2f08b47ba93ac52459caf440e385b4b0fdb088899a9f788f9d7911947d517620439089ec183583e41044cf8460fecc0bf82eb746474a638ba64b5818c578fb66ff74a51c217d5d3b991520d5c9da467c14f0bb04dd7f76e0b69081a20292f424f5b6f718091a3b2b5c1dde4f4f7063541565759686c7b7ca4a6c1e8f3f907141c313b5d6a7096a4b1c1f7061727406c8894979bb3e6e8000000000000000000000000000000000000001424313d01",
        "00485c3ebe7277bd4839eae978640a89ba2bb6c021df324cd679bd42fde78c87acad93038043f7a70c0ed56ce0c43dc7f9795a870429bacb3be1c62d71c77c123bc84d192ad48186f5127d55acc38b6713b18c9770e1e9fefd19f4f9194000e1af063d5bca1e45ead28e2c826574056779f38817104a91253accf5347f38f915443313a1bc0a8c1016406a650740e1e010c4a51a185b8a2791aabc01b2d83cab67816a8d6f5ad176845c6377b032d67398d808fb11266d38b56a385bcd9e461198035aa980d32139a4ca8ceea2a49dc1650638faa400bd7c4bc0c89eb17e8c4e4656acd1925fa4299ee7d9fdb185760c979264bb8ccad0b537017063c8e5457a52b8c62a705ea623ed54e2cc612b52d9e0961bcf7bd367e883f33328935a4920804b13a344e6717546fe7a2c7b4d404531b94169d17a92e6f6c31d56373658e37a271a67560d2b8b68c3324da2c761d84d62b5e01f3670e7e8b16387d9dbd5d716a8618910033855394b2ccfc1d88ae3afc953f361d9a72fca77a0d0a6a3bfb8b09821d51cb1126df85419928309d16403f2a107b79cca0811004934645cfa393c16fb71d8bcaaa1355a0e74e29adbe95909df6f9ed75bef44b7503765a074144cef42052abeaac1d5c380f5ef07e52e53292844467d79d87a35997b525863418457d031af08b1d35042de501eb01ffb083e0bb1c08d04e190c62daf4f059c045c9fa1b46b31463ecd3233002607eab7b907ca8fccf1d0c6149b467890adb116a9c12e15cef1a5c0ad9a695932b32b1b433def096c54222cce00ea4cc36301e5d449d4fc4d379db6c8d378bf7fc9b35cec467b21ffc2552d57d8da10c73c96fc2f41cf6689edc96063d8562e5fec9ef1505766a3deb02e92f67538922815df7016d41521d6c8c173fc7719cc9dd5b2651af485b0788666bb760b484458b8677332f2e70e0bb00cc66fb2fee37b660ce0a61de9bf0f80af564a256617cff8cc2f3caef6acb9f47f7b99bb86f43611770a399070de5aa6d0336285ac6823c1628017377bd6bc5cf68d3d524bcd3fb8ddf41bb8d292a6bf885d3eb845c2ffebb08978da8552c074e65c2678aa50f69f46deecd93d87d9a0f0672aeab53b625fd9cfd45d98c92d795a3bcd4a9e9c8dcfa9d73c9917ae9e2cff311771c521d909f9bfd769e2fead125c974e011a40d53fc9b9df2cc9a4f7a6db7599782ce20cc8701427005f26992aa1653434a13122249d64acb763d5c2f645fb959bd388d305213cab01945d6b4f41fc36e79251f883bbee145957d86a8107b006ada8882c96dcccb2b856db80ae5f4711d783240d7211861a6a19d46eb0a6640bb0f1e58909b878e44acf3792b618e0bc6325dd86736137ea6cf1a9cd181bd5002ae571908029c1971b7b72b0abeb67381694a1a761ec6c3b713dd417a4b4409b2f395a2bde3f4d707f76fedde7310b5e50c846a14641bac01b441dfd437c5f5e75f1891e12c3bb63a9aae75661744c6f8ca17d85b1835133de08ea25be7dd2ff2f3c31975b2218cabdd572b61a4ff53e64878cc979787d01f359ef2322602be33822ad275cf9595ee555a4e06eb024530ec658e275ec1d06056830c52dc20ea35c2c8fb8b5854882083bbe106d0326398c4f0e1b4102c6319303ed8dca5e586041f277789790d13fbfb2077baacb88d27a0f50e1313ad7b71ef269b206ad2f3899958e2927a12dbbb1c9861d29ccfd5e92172307c67880d5becea15eadbceb4d2e216e5713b850b99e6843fcc47a7e4726e0815e5a6ea4dab6d605c9323bea07079cd87619d870093d7a3b23065b585bda47d56fa4157c25133b39c7890c25632eabfd85f2f09795"
      ],
      "sequence": 4294967294
    }
  ],
  "vout": [
    {
      "value": 499988.8141,
      "n": 0,
      "scriptPubKey": {
        "asm": "1 c0bf14bab8f9e9c740675d23d00a67b7d068c9857df05c84268b8098ce2ea593",
        "hex": "5120c0bf14bab8f9e9c740675d23d00a67b7d068c9857df05c84268b8098ce2ea593",
        "reqSigs": 1,
        "type": "witness_v1_scripthash",
        "addresses": [
          "3QJmnh"
        ]
      }
    },
    {
      "value": 1.0,
      "n": 1,
      "scriptPubKey": {
        "asm": "OP_RETURN 26a0546b7c5ff0f7e86e40bc4fe35b629026a49b4939fa026564552cbc962220 39baa6ba78c365cc46bd388b8c71ccddd2923dbd125fee4c1160cd222aeeb072199a869a58e345ec669d18abac51ecfdf2b21d9d327fce6c3140ed020ace905279fae6fa3883258c06fd78cbcc318c9d92d27dfd521fae0c51208d626aaef03259dac6da18a305ac26dd58ebec11acbdb2f25ddd723f8e2c7100ad424a8ed012b93a263af843e54cc63db80b0cf14c5d5212bd3d92df6ecc91e04da2aa6e30f2991a061ad863c56ce61d982b2cd16c7d72329d1db2ff4eecb1c06d828a4e10d2f97a667ab803a50c867df84b4cb10c1d1252fd7dd29f2e8cd1a00de2ea2e70b2d95a465a9823852ca65dd86b6c912c3d3272dd5df2bf0eacf1802dc2ca0e509239baa6ba78c365cc46bd388b8c71ccddd2923dbd125fee4c1160cd222aeeb072199a869a58e345ec669d18abac51ecfdf2b21d9d327fce6c3140ed020ace905279fae6fa3883258c06fd78cbcc318c9d92d27dfd521fae0c51208d626aaef03259dac6da18a305ac26dd58ebec11acbdb2f25ddd723f8e2c7100ad424a8ed012b93a263af843e54cc63db80b0cf14c5d5212bd3d92df6ecc91e04da2aa6e30f2991a061ad863c56ce61d982b2cd16c7d72329d1db2ff4eecb1c06d828a4e10d2f97a667ab803a50c867df84b4cb10c1d1252fd7dd29f2e8cd1a00de2ea2e70b2d95a465a9823852ca65dd86b6c912c3d3272dd5df2bf0eacf1802dc2ca0e509239baa6ba78c365cc46bd388b8c71ccddd2923dbd125fee4c1160cd222aeeb072199a869a58e345ec669d18abac51ecfdf2b21d9d327fce6c3140ed020ace905279fae6fa3883258c06fd78cbcc318c9d92d27dfd521fae0c51208d626aaef03259dac6da18a305ac26dd58ebec11acbdb2f25ddd723f8e2c7100ad424a8ed012b93a263af843e54cc63db80b0cf14c5d5212bd3d92df6ecc91e04da2aa6e30f2991a061ad863c56ce61d982b2cd16c7d72329d1db2ff4eecb1c06d828a4e10d2f97a667ab803a50c867df84b4cb10c1d1252fd7dd29f2e8cd1a00de2ea2e70b2d95a465a9823852ca65dd86b6c912c3d3272dd5df2bf0eacf1802dc2ca0e509239baa6ba78c365cc46bd388b8c71ccddd2923dbd125fee4c1160cd222aeeb072199a869a58e345ec669d18abac51ecfdf2b21d9d327fce6c3140ed020ace905279fae6fa3883258c06fd78cbcc318c9d92d27dfd521fae0c51208d626aaef03259dac6da18a305ac26dd58ebec11acbdb2f25ddd723f8e2c7100ad424a8ed012b93a263af843e54cc63db80b0cf14c5d5212bd3d92df6ecc91e04da2aa6e30f2991a061ad863c56ce61d982b2cd16c7d72329d1db2ff4eecb1c06d828a4e10d2f97a667ab803a50c867df84b4cb10c1d1252fd7dd29f2e8cd1a00de2ea2e70b2d95a465a9823852ca65dd86b6c912c3d3272dd5df2bf0eacf1802dc2ca0e509239baa6ba78c365cc46bd388b8c71ccddd2923dbd125fee4c1160cd222aeeb072199a869a58e345ec669d18abac51ecfdf2b21d9d327fce6c3140ed020ace905279fae6fa3883258c06fd78cbcc318c9d92d27dfd521fae0c51208d626aaef03259dac6da18a305ac26dd58ebec11acbdb2f25ddd723f8e2c7100ad424a8ed012b93a263af843e54cc63db80b0cf14c5dc087a424fb370ffd493f52aaaa149a53eab25fdbfeab6fc7d9317b76e92632a1",
        "hex": "6a2026a0546b7c5ff0f7e86e40bc4fe35b629026a49b4939fa026564552cbc9622204db00439baa6ba78c365cc46bd388b8c71ccddd2923dbd125fee4c1160cd222aeeb072199a869a58e345ec669d18abac51ecfdf2b21d9d327fce6c3140ed020ace905279fae6fa3883258c06fd78cbcc318c9d92d27dfd521fae0c51208d626aaef03259dac6da18a305ac26dd58ebec11acbdb2f25ddd723f8e2c7100ad424a8ed012b93a263af843e54cc63db80b0cf14c5d5212bd3d92df6ecc91e04da2aa6e30f2991a061ad863c56ce61d982b2cd16c7d72329d1db2ff4eecb1c06d828a4e10d2f97a667ab803a50c867df84b4cb10c1d1252fd7dd29f2e8cd1a00de2ea2e70b2d95a465a9823852ca65dd86b6c912c3d3272dd5df2bf0eacf1802dc2ca0e509239baa6ba78c365cc46bd388b8c71ccddd2923dbd125fee4c1160cd222aeeb072199a869a58e345ec669d18abac51ecfdf2b21d9d327fce6c3140ed020ace905279fae6fa3883258c06fd78cbcc318c9d92d27dfd521fae0c51208d626aaef03259dac6da18a305ac26dd58ebec11acbdb2f25ddd723f8e2c7100ad424a8ed012b93a263af843e54cc63db80b0cf14c5d5212bd3d92df6ecc91e04da2aa6e30f2991a061ad863c56ce61d982b2cd16c7d72329d1db2ff4eecb1c06d828a4e10d2f97a667ab803a50c867df84b4cb10c1d1252fd7dd29f2e8cd1a00de2ea2e70b2d95a465a9823852ca65dd86b6c912c3d3272dd5df2bf0eacf1802dc2ca0e509239baa6ba78c365cc46bd388b8c71ccddd2923dbd125fee4c1160cd222aeeb072199a869a58e345ec669d18abac51ecfdf2b21d9d327fce6c3140ed020ace905279fae6fa3883258c06fd78cbcc318c9d92d27dfd521fae0c51208d626aaef03259dac6da18a305ac26dd58ebec11acbdb2f25ddd723f8e2c7100ad424a8ed012b93a263af843e54cc63db80b0cf14c5d5212bd3d92df6ecc91e04da2aa6e30f2991a061ad863c56ce61d982b2cd16c7d72329d1db2ff4eecb1c06d828a4e10d2f97a667ab803a50c867df84b4cb10c1d1252fd7dd29f2e8cd1a00de2ea2e70b2d95a465a9823852ca65dd86b6c912c3d3272dd5df2bf0eacf1802dc2ca0e509239baa6ba78c365cc46bd388b8c71ccddd2923dbd125fee4c1160cd222aeeb072199a869a58e345ec669d18abac51ecfdf2b21d9d327fce6c3140ed020ace905279fae6fa3883258c06fd78cbcc318c9d92d27dfd521fae0c51208d626aaef03259dac6da18a305ac26dd58ebec11acbdb2f25ddd723f8e2c7100ad424a8ed012b93a263af843e54cc63db80b0cf14c5d5212bd3d92df6ecc91e04da2aa6e30f2991a061ad863c56ce61d982b2cd16c7d72329d1db2ff4eecb1c06d828a4e10d2f97a667ab803a50c867df84b4cb10c1d1252fd7dd29f2e8cd1a00de2ea2e70b2d95a465a9823852ca65dd86b6c912c3d3272dd5df2bf0eacf1802dc2ca0e509239baa6ba78c365cc46bd388b8c71ccddd2923dbd125fee4c1160cd222aeeb072199a869a58e345ec669d18abac51ecfdf2b21d9d327fce6c3140ed020ace905279fae6fa3883258c06fd78cbcc318c9d92d27dfd521fae0c51208d626aaef03259dac6da18a305ac26dd58ebec11acbdb2f25ddd723f8e2c7100ad424a8ed012b93a263af843e54cc63db80b0cf14c5dc087a424fb370ffd493f52aaaa149a53eab25fdbfeab6fc7d9317b76e92632a1",
        "type": "nulldata"
      }
    }
  ],
  "blockhash": "9418e69333e129952491dcd6dc324ee50ca4a2e07f0678970cb85d951484494a",
  "confirmations": 1,
  "time": 1764177673,
  "blocktime": 1764177673
}