{
  "hex": "010000000001012834aba65784c15b0e0a1a194ed63598da3ee89907da30265b8e49049fe635e60000000000feffffff0200e1f50500000000fdd5046a20992d61caab5f6e4aa3c179e127febfd1d9becec9549f4475ede9f49dec96f8cd4db0048ab328fecf443076581d217c78458dd15109bc5b3b1970f5ab021d71d050df3faa9308deef641056783d015c5865adf171299c7b1b3950d58b223d51f070ff1fcaf368be8f047036185d613c3805cd911149fc1b7b5930b5eb425d3190109f7fead3489eaf245016387d411c1825edb13169dc3b5b791095cb627d11b030bf5f0a33a87e4fc4b0f6d89da1fcf8c50d51d1893cdbbb99f0752b829df150d05fbf2a13885e6fe490d6f8bd81dcd8e52d71f1a91cfb9bb9d0550ba2bdd170f07f9f4a73e83e0f84f0b698dde1bcb8854d1191c97c9bfbd9b0356bc2ddb110901fff6a53c81e2fa4d096b8fdc19c98a56d31b1e95cbbdbf990154be2fd9130b03fdf8ab328fecf443076581d217c78458dd15109bc5b3b1970f5ab021d71d050df3faa9308deef641056783d015c5865adf171299c7b1b3950d58b223d51f070ff1fcaf368be8f047036185d613c3805cd911149fc1b7b5930b5eb425d3190109f7fead3489eaf245016387d411c1825edb13169dc3b5b791095cb627d11b030bf5f0a33a87e4fc4b0f6d89da1fcf8c50d51d1893cdbbb99f0752b829df150d05fbf2a13885e6fe490d6f8bd81dcd8e52d71f1a91cfb9bb9d0550ba2bdd170f07f9f4a73e83e0f84f0b698dde1bcb8854d1191c97c9bfbd9b0356bc2ddb110901fff6a53c81e2fa4d096b8fdc19c98a56d31b1e95cbbdbf990154be2fd9130b03fdf8ab328fecf443076581d217c78458dd15109bc5b3b1970f5ab021d71d050df3faa9308deef641056783d015c5865adf171299c7b1b3950d58b223d51f070ff1fcaf368be8f047036185d613c3805cd911149fc1b7b5930b5eb425d3190109f7fead3489eaf245016387d411c1825edb13169dc3b5b791095cb627d11b030bf5f0a33a87e4fc4b0f6d89da1fcf8c50d51d1893cdbbb99f0752b829df150d05fbf2a13885e6fe490d6f8bd81dcd8e52d71f1a91cfb9bb9d0550ba2bdd170f07f9f4a73e83e0f84f0b698dde1bcb8854d1191c97c9bfbd9b0356bc2ddb110901fff6a53c81e2fa4d096b8fdc19c98a56d31b1e95cbbdbf990154be2fd9130b03fdf8ab328fecf443076581d217c78458dd15109bc5b3b1970f5ab021d71d050df3faa9308deef641056783d015c5865adf171299c7b1b3950d58b223d51f070ff1fcaf368be8f047036185d613c3805cd911149fc1b7b5930b5eb425d3190109f7fead3489eaf245016387d411c1825edb13169dc3b5b791095cb627d11b030bf5f0a33a87e4fc4b0f6d89da1fcf8c50d51d1893cdbbb99f0752b829df150d05fbf2a13885e6fe490d6f8bd81dcd8e52d71f1a91cfb9bb9d0550ba2bdd170f07f9f4a73e83e0f84f0b698dde1bcb8854d1191c97c9bfbd9b0356bc2ddb110901fff6a53c81e2fa4d096b8fdc19c98a56d31b1e95cbbdbf990154be2fd9130b03fdf8ab328fecf443076581d217c78458dd15109bc5b3b1970f5ab021d71d050df3faa9308deef641056783d015c5865adf171299c7b1b3950d58b223d51f070ff1fcaf368be8f047036185d613c3805cd911149fc1b7b5930b5eb425d3190109f7fead3489eaf245016387d411c1825edb13169dc3b5b791095cb627d11b030bf5f0a33a87e4fc4b0f6d89da1fcf8c50d512036cf391b8b989a22cdc40ce7b1e081bdd83d3369f3e1cce14013a13798390dc0cc030f792d0000225120ab2693aaef0b58fe30337ce5342a8d2e0a3a2ff39b25d3bdd6adec696f4eae0302fd7509e01631c43cc8290fb2af6b5450d2e0805b1072766d60cff89bc1364d6d68e56d24c97ac140e29343cc4576f010da7b5a035a183e3d9bb67ec013c4c9befddf0a0e9e71e2cf387524c02cb71987f38d824032989e717c84e13ac6ad48d7ac04783f1657cd5da1e8707834c73da7dbdbef3c540f13eb59cd9533ceb92b48a5770d1aa4cf1a515e17c95b86b579a4f605329d2b88f73edc43879e3e5a680db6679385dab6e3d1d5a6ca63b29dba5b8ebe082593a4cfd0a77b8a20796432e201999ef282fba00b56561ab2c875e8272773e10efaa830f51de158c22e65cabe625eca22953f3b42d037e532b8ea310c0324cdc182b6df4be0068170ca0061a8bbc1d31265e027ecf4eac40ddff2233819c824ecbeb3da13852df7d4c1cf95c01d5d4b48dc1e98c91a29286b5da34b5b1e6306ca1837827cb02b7cfb54ea52715a96f9e72a94ec942c32276bfd8707fcd309f066c038e6850ea7ace8566afdbdc335f2f3e17548b4ba0964b7b8e907d2fefa459590b1415c497f54c5e403a0578ca0695019f758a6809851825f3e59b0544f013e1b7b4ebc91512700773db5e6bad3275b49f064177420862e004bf2e2cc65fdafd56e17137eb5ad483003f83ff04e291773950d7bdcc47131efca812f2494aea228993ae70bfdabc72408fd5017ddee2275c0420b79debb44e26443f84eca6a8c07a1d2c4425b92786f257a1c128a1ca5bbf2744fa8394c55648f9ed718de9b082af5894ab9d6764aee8dd0d6484460f832fdf112c55e42980816715548716ebacc18aede12ef6bc6eef5c34509c54329db321266b818cc9ccfd664ce3ebab62143fac96780f344a899256723cee8c98df5462c35ba6ca2d4d18fc74e6a02a68024e8ceb0e6e65463fb1d2b9a2e6b4f310b1bc0a461e3eef959bc7e5e76ddf839e2ac59c2c87461d5a0695b37e4dc3d06f0798a79f775a6bcd7db4b698df7c7e46cd12b067e612b42b66c7201372eb1beae8c58d0b8bb911ba2b58b62414f5173340e2830704da56111200070f775fbe1167f7cda8d02d9437e9af150f2237ad892961136afef4fccb9fb2026766cbcc71431a8f7f9f6f04cb7df880a47883bbf737131345f63cb8a0fd9f8cf2235780ba229df54b8f70590eb9de856a4427f075e8fb48232ff583a901ebb5bf1d1f130f19fa2d081d3dfe064bee0343a5aa42b2aab2d28a4a16fa1d5a25371d71c0a9646eb322423d922de87603cdb8951eff88e0a5d1a8798c93d26d70ad60187b41a7cedad18b14b909e56fb46c025da4c97446fdf01b2233559651451fcac765ca6627dd53d44fecb36762b109e8c8ca2bc451bc0227be3dba8b59dcdbd40b691beb1c993cc0136b4911e2e37aaafdab19dfb300aea5c8a0875294a7062e76ed313d0dc01b9e9ba5896a10e132ccfc653422a966c1dccc5b474689d87cab69a61b67d838ba4d4dff1322debe7a91c4e89ae83103cbf1aba46a0a93f4693a3c716af746f7eb9ffe4f839f33db2b50881acb2bf069c1c4d450558872e094de66b4749b0e35d4cfb80ca944fe9df4844f841c79ad35170f0f6ce914c04532e854ef44e69730f3a539316d8b34de7a84d040e738433211b5b10a92ef8c3ee3fbc830a769036786d7aab1dac2c29f7b1336bdf38d7d3354e22f67c289c2efe4216986009a6857827e51fe42555b7d78f99ec230d90e34c559af380ed4f3ac00fdcdae9fc1464408fa4241608618f3d5fcfd0dba69c6348cb12819dba2255af3d1d899ff35a517bde26140950275a89ad2ff232994c2545a11163b871030e7d825c71437ee1ef14cc35e11d4d5164e1e305ed4b5534b7340278d7e12b5d6c36d687ce2629c10b2419a531d88d352d9a991a409153ad2d89f31639eb70dff2df50fd1b74013fb4e908769768376a83b31337099ee19be6b35bd7ca22de058121c7ea58ddba850f71ffb9ff83bc82e9a7f6d5686fea7b854d04619572c0f318b9f5027055315039fb9d84bbaf0a9e57fc1c8302d32e4d4d3453d494814d70014503bbed874856cfed9dda0c04b2b217509e94caec67ba67b12174ba5d46f44889a26dc731fe6db85bede76776d91387e317fe22583d9e04d1d934d657ce41c8459095bec35bb433197e8aeb4fe0ffeb9ceae6c77e82925608860300d9bc4c1cee18b5b2f76ab683f778245bd52ab0118d1ac4accf6a312b19cf4a45af1268794528dfe59e30cc23a116dd4b335861586d97decd13a0d2825cba3519dac133e3e72e74a419c36697ef4651a4f5a0727799a9ef338a91919022979b2cd856c543f7a1c8ebb3b2fce1033b0be8b965c8c31e717a4d5757d6d084bfd47c02b5aa1f885678d3a1e0ff765ad93a45afb612c5e9efbe16338478ffddd333bff70ccbb287326e0a68db6cef6647764e62e47351b71e03960a34e43d5616ab616f1f9bdc0a3dd1906e600a464522036c7d77ad96006b65c1e6ec6d6ebb7c0453114adade8fef873ff6d8e4f546ffdcb165c2f3213d7d68cbe2fc6126f7c56b625ef175b2a3a3d229e3ca4cac8dcc9e6093584bf8e353bdc59f422114e0b65d0be20f9df5a7397ecd5e23cb543bfc8db9459c1b692c2b7c3786399b5bf088430f86fde01200c503c459a9fb5e241c902f82c054b2b05629175e64df5676782a3c7e17d76ae9f8c3dbee0e033133ab8b0ded83e42f095784be2e34820a76969fc745b722816dfd6d8e3b8f1f451420976026bb4ea4cded8e3f916d6a51f59564c3c7925edea61a9c417046c19118adabd9bdb8df87684ebe014723edec5fe83614e7148fb275b69655ae2eb2da940d3a879a8151dbebab733450b11d35210aded7de8482bebd7d25fad3c5df658c7705644e696d67f37e7d5287ea3f526633dca11d0fc8a99b3a97a02cb17ced01d782b0be79b43e7330e11d5fdd685b50545649f3e44706c65d1c22b00e847f20b71c48b909622b8ea248844e8e5b54993a189ed0d218a8e96f25992215f7d24e2f7384bbb52a440c385c11bb276e3e36a7ef66525f819f0c614fd36eb0c921fc845f472f98f8c49a3f5414e8115150e7f500727ca65cce17d6317865096000b443285174682bfe309526d261eb5dc9f35b7970393c694964f691bf50d368abeae4adca771b99f7141c001317141d1bf0d1058c45f8b8dcf6c5756cf761726486ad99df449d2f59d5d28c62896bdeebf167101b6be57aac5a5076e6efa915fd2e88de05484f26388bfc312810ba9dc9b275436bc8c654e1a9caaf79656e2374726bf52c4ce7e37a8870c30aa59680f57a72f5ce525c35466e663d59000d37446669748cbfdffa0e0f154f668082889abaccfd0507192d39434f516a6e7a9799aeb4b6eeeffbfcfd0508505a5d626798a2a3a7afb7c3c5d3dae3f70000000000000000000000000000000000000a162b3e01fd2105009d49ca0d48d8ccf4dab49e7449d467f0287ea84487fb0d047e5735e312839fbea3988e0012c4b7325a801909c1095e48286227d05031c3effef9a52ceaf5262e86b5518e459e44d2a4d6805ebd54ee579c5bc85238136648e40bbd76f6320f575e5948165f246769fe333bc338c1b4c9ea60b7dafde8fe41eb45498dd554bc206b17df3bf1fe56d294911fef99bd134899b93a28d98b4ae0711a5909767dd34f5c3575abe0aba4f7214d7f4f941796bbb4662e87737c3d162ffab0b9ba8ea03d2a7610b4eeff28ef6fe2713110896123d8c368de75b69b4646cd175c9fc761232b0ca94820f1dfd903124c390dbe5c29361ce026a04158ef29992c3cc031d24b38d41194c637a2673e377d8fd5de14f665657a5a59e4b5d28d0aa941be9efec57663196f75d4fea05a74e7ccd09ab864ca3c461d89d78d8060b7c960fe9c431e4dcf8328fa93a0b43bcd2b4bdd166473a8122775f8f5f39ea534ebc27a2bbd565f4c15881ef4c9143d399c74ee2f7d195a06ffc5e57b7d76c355d0b9bc23e9ca65ba74b605c34b637326b4a05542805ca9ec5478d5f3ae5c0cfff65524ec06841cf1be91cfe76dd4fdfbe98de667abf5c4795a019c5ebfa1ea225bbf0bf92affa4f6a735261c11e0336eb95b92ad440deca46297344254de7ce3cbb36e47992af692dd91977e59462321720f9e533e0b0cb6951f6f213d9e9175cbd3d142467758ce1c761652eadbee49856acf0ba64f87611186328e271771e4025d3774fdf13c164f0541943e6ee4c0c426697a20b95c3c509eeb33704230be0085e326d1fcb736219b63fa66cc4e9cbe5d67e21ad2e29fc43a96439e66d9d9b464fcc7c9c1c372f68b9808c4595c2d2aecc49a02b6e989e761b6e08f8de0bc21c94a7cf83b6af4c14ac2681debf77dfe8d7c324d346b3e95a33fb4cd377f0242142573ae86d5ca7873045a8196d83633f261152501c4c7eafe16c0e280967dd78ed041d303f0fa5cd80e690e890cdf72bd1799c5da5ea7317c2cf76cd3137df165ae26fa70d91bdbcabfd90c76f95981cdb91606721da1de33c3a8dd306d1eed928cb06ea49b98b6bf8f1571ab0f2ce50f2bc8b399399bdf6fc176dbc31acd955edf7ba076571c3871c60d14852b979c408d8397185c22a2eedc1ebc44c35b3fce1fa4b34cc436d2a0c0f4f71929fe64b1cb8fbefc47a7384d182d0c5fc56b1b8351256631760b4488167dca220fdf7e8f66bb1e27dfef9496ee6ca8ea4dfb2aa266391440170d40551da8c5e917204c9ba58c0ef6af992d40ee6e7d3665edb10238baba4d8e9285d9e6fd9bfb3b23ab65d44fb0ad41429ea225aa90955eca3e2ddb2e0d9d4806617904959415c6fffefd96e76638deb3ed25a7471705a993e7bd3fcee5e42c60dd68cb99fe8c726c3fd8d6e0f37e4f07dd14d88716dbb970292d1112993a3ecc9bce22236ebe05dbd2b1e99b64bc4603a300a615c3ccfebd0fec77b80c5869f03dfb9205fbc6c2035a73a6db82552b4d28fe8c1e6a6f52660d6075d7d69a2dde9f11f6a766e793aebafd1f2107e4fb154b1325f42c2c25760d86aed74a0498208e163f44a3e49f65f5411bc03674d62e0ec0a9b5a1e405f16d2ffaee23a4dad6a19fc1706c23fa1ef82eb600794df393ed69cbf4a2e19adac1e3ad4289212ff64040f38476dec5f6c5845d0059f8738cad651bc20c2128d335f0633df048921785c1cd2d0da5dede4511496bcced5961410d203491c516f3e8b1beb1fae3d2a65998ccc923bdf84dabc7691671fa30b3bf7cc080b70bd13017082015102382cb278648d94c317558d30f19554d3eaf1b1d4fd1c300cd645cc2575a96b27b76000000",
  "txid": "bab774c125ca85c976d9d636da793e30c3d26f08c357b1df319778c03c3a6d9a",
  "hash": "268fb38c98a992632429e5a75b88aaa2ea3709a632b9a1f630dd9902a318e46e",
  "size": 5085,
  "vsize": 2278,
  "version": 1,
  "locktime": 118,
  "vin": [
    {
      "txid": "e635e69f04498e5b2630da0799e83eda9835d64e191a0a0e5bc18457a6ab3428",
      "vout": 0,
      "scriptSig": {
        "asm": "",
        "hex": ""
      },
      "txinwitness": [
        "e01631c43cc8290fb2af6b5450d2e0805b1072766d60cff89bc1364d6d68e56d24c97ac140e29343cc4576f010da7b5a035a183e3d9bb67ec013c4c9befddf0a0e9e71e2cf387524c02cb71987f38d824032989e717c84e13ac6ad48d7ac04783f1657cd5da1e8707834c73da7dbdbef3c540f13eb59cd9533ceb92b48a5770d1aa4cf1a515e17c95b86b579a4f605329d2b88f73edc43879e3e5a680db6679385dab6e3d1d5a6ca63b29dba5b8ebe082593a4cfd0a77b8a20796432e201999ef282fba00b56561ab2c875e8272773e10efaa830f51de158c22e65cabe625eca22953f3b42d037e532b8ea310c0324cdc182b6df4be0068170ca0061a8bbc1d31265e027ecf4eac40ddff2233819c824ecbeb3da13852df7d4c1cf95c01d5d4b48dc1e98c91a29286b5da34b5b1e6306ca1837827cb02b7cfb54ea52715a96f9e72a94ec942c32276bfd8707fcd309f066c038e6850ea7ace8566afdbdc335f2f3e17548b4ba0964b7b8e907d2fefa459590b1415c497f54c5e403a0578ca0695019f758a6809851825f3e59b0544f013e1b7b4ebc91512700773db5e6bad3275b49f064177420862e004bf2e2cc65fdafd56e17137eb5ad483003f83ff04e291773950d7bdcc47131efca812f2494aea228993ae70bfdabc72408fd5017ddee2275c0420b79debb44e26443f84eca6a8c07a1d2c4425b92786f257a1c128a1ca5bbf2744fa8394c55648f9ed718de9b082af5894ab9d6764aee8dd0d6484460f832fdf112c55e42980816715548716ebacc18aede12ef6bc6eef5c34509c54329db321266b818cc9ccfd664ce3ebab62143fac96780f344a899256723cee8c98df5462c35ba6ca2d4d18fc74e6a02a68024e8ceb0e6e65463fb1d2b9a2e6b4f310b1bc0a461e3eef959bc7e5e76ddf839e2ac59c2c87461d5a0695b37e4dc3d06f0798a79f775a6bcd7db4b698df7c7e46cd12b067e612b42b66c7201372eb1beae8c58d0b8bb911ba2b58b62414f5173340e2830704da56111200070f775fbe1167f7cda8d02d9437e9af150f2237ad892961136afef4fccb9fb2026766cbcc71431a8f7f9f6f04cb7df880a47883bbf737131345f63cb8a0fd9f8cf2235780ba229df54b8f70590eb9de856a4427f075e8fb48232ff583a901ebb5bf1d1f130f19fa2d081d3dfe064bee0343a5aa42b2aab2d28a4a16fa1d5a25371d71c0a9646eb322423d922de87603cdb8951eff88e0a5d1a8798c93d26d70ad60187b41a7cedad18b14b909e56fb46c025da4c97446fdf01b2233559651451fcac765ca6627dd53d44fecb36762b109e8c8ca2bc451bc0227be3dba8b59dcdbd40b691beb1c993cc0136b4911e2e37aaafdab19dfb300aea5c8a0875294a7062e76ed313d0dc01b9e9ba5896a10e132ccfc653422a966c1dccc5b474689d87cab69a61b67d838ba4d4dff1322debe7a91c4e89ae83103cbf1aba46a0a93f4693a3c716af746f7eb9ffe4f839f33db2b50881acb2bf069c1c4d450558872e094de66b4749b0e35d4cfb80ca944fe9df4844f841c79ad35170f0f6ce914c04532e854ef44e69730f3a539316d8b34de7a84d040e738433211b5b10a92ef8c3ee3fbc830a769036786d7aab1dac2c29f7b1336bdf38d7d3354e22f67c289c2efe4216986009a6857827e51fe42555b7d78f99ec230d90e34c559af380ed4f3ac00fdcdae9fc1464408fa4241608618f3d5fcfd0dba69c6348cb12819dba2255af3d1d899ff35a517bde26140950275a89ad2ff232994c2545a11163b871030e7d825c71437ee1ef14cc35e11d4d5164e1e305ed4b5534b7340278d7e12b5d6c36d687ce2629c10b2419a531d88d352d9a991a409153ad2d89f31639eb70dff2df50fd1b74013fb4e908769768376a83b31337099ee19be6b35bd7ca22de058121c7ea58ddba850f71ffb9ff83bc82e9a7f6d5686fea7b854d04619572c0f318b9f5027055315039fb9d84bbaf0a9e57fc1c8302d32e4d4d3453d494814d70014503bbed874856cfed9dda0c04b2b217509e94caec67ba67b12174ba5d46f44889a26dc731fe6db85bede76776d91387e317fe22583d9e04d1d934d657ce41c8459095bec35bb433197e8aeb4fe0ffeb9ceae6c77e82925608860300d9bc4c1cee18b5b2f76ab683f778245bd52ab0118d1ac4accf6a312b19cf4a45af1268794528dfe59e30cc23a116dd4b335861586d97decd13a0d2825cba3519dac133e3e72e74a419c36697ef4651a4f5a0727799a9ef338a91919022979b2cd856c543f7a1c8ebb3b2fce1033b0be8b965c8c31e717a4d5757d6d084bfd47c02b5aa1f885678d3a1e0ff765ad93a45afb612c5e9efbe16338478ffddd333bff70ccbb287326e0a68db6cef6647764e62e47351b71e03960a34e43d5616ab616f1f9bdc0a3dd1906e600a464522036c7d77ad96006b65c1e6ec6d6ebb7c0453114adade8fef873ff6d8e4f546ffdcb165c2f3213d7d68cbe2fc6126f7c56b625ef175b2a3a3d229e3ca4cac8dcc9e6093584bf8e353bdc59f422114e0b65d0be20f9df5a7397ecd5e23cb543bfc8db9459c1b692c2b7c3786399b5bf088430f86fde01200c503c459a9fb5e241c902f82c054b2b05629175e64df5676782a3c7e17d76ae9f8c3dbee0e033133ab8b0ded83e42f095784be2e34820a76969fc745b722816dfd6d8e3b8f1f451420976026bb4ea4cded8e3f916d6a51f59564c3c7925edea61a9c417046c19118adabd9bdb8df87684ebe014723edec5fe83614e7148fb275b69655ae2eb2da940d3a879a8151dbebab733450b11d35210aded7de8482bebd7d25fad3c5df658c7705644e696d67f37e7d5287ea3f526633dca11d0fc8a99b3a97a02cb17ced01d782b0be79b43e7330e11d5fdd685b50545649f3e44706c65d1c22b00e847f20b71c48b909622b8ea248844e8e5b54993a189ed0d218a8e96f25992215f7d24e2f7384bbb52a440c385c11bb276e3e36a7ef66525f819f0c614fd36eb0c921fc845f472f98f8c49a3f5414e8115150e7f500727ca65cce17d6317865096000b443285174682bfe309526d261eb5dc9f35b7970393c694964f691bf50d368abeae4adca771b99f7141c001317141d1bf0d1058c45f8b8dcf6c5756cf761726486ad99df449d2f59d5d28c62896bdeebf167101b6be57aac5a5076e6efa915fd2e88de05484f26388bfc312810ba9dc9b275436bc8c654e1a9caaf79656e2374726bf52c4ce7e37a8870c30aa59680f57a72f5ce525c35466e663d59000d37446669748cbfdffa0e0f154f668082889abaccfd0507192d39434f516a6e7a9799aeb4b6eeeffbfcfd0508505a5d626798a2a3a7afb7c3c5d3dae3f70000000000000000000000000000000000000a162b3e01",
        "009d49ca0d48d8ccf4dab49e7449d467f0287ea84487fb0d047e5735e312839fbea3988e0012c4b7325a801909c1095e48286227d05031c3effef9a52ceaf5262e86b5518e459e44d2a4d6805ebd54ee579c5bc85238136648e40bbd76f6320f575e5948165f246769fe333bc338c1b4c9ea60b7dafde8fe41eb45498dd554bc206b17df3bf1fe56d294911fef99bd134899b93a28d98b4ae0711a5909767dd34f5c3575abe0aba4f7214d7f4f941796bbb4662e87737c3d162ffab0b9ba8ea03d2a7610b4eeff28ef6fe2713110896123d8c368de75b69b4646cd175c9fc761232b0ca94820f1dfd903124c390dbe5c29361ce026a04158ef29992c3cc031d24b38d41194c637a2673e377d8fd5de14f665657a5a59e4b5d28d0aa941be9efec57663196f75d4fea05a74e7ccd09ab864ca3c461d89d78d8060b7c960fe9c431e4dcf8328fa93a0b43bcd2b4bdd166473a8122775f8f5f39ea534ebc27a2bbd565f4c15881ef4c9143d399c74ee2f7d195a06ffc5e57b7d76c355d0b9bc23e9ca65ba74b605c34b637326b4a05542805ca9ec5478d5f3ae5c0cfff65524ec06841cf1be91cfe76dd4fdfbe98de667abf5c4795a019c5ebfa1ea225bbf0bf92affa4f6a735261c11e0336eb95b92ad440deca46297344254de7ce3cbb36e47992af692dd91977e59462321720f9e533e0b0cb6951f6f213d9e9175cbd3d142467758ce1c761652eadbee49856acf0ba64f87611186328e271771e4025d3774fdf13c164f0541943e6ee4c0c426697a20b95c3c509eeb33704230be0085e326d1fcb736219b63fa66cc4e9cbe5d67e21ad2e29fc43a96439e66d9d9b464fcc7c9c1c372f68b9808c4595c2d2aecc49a02b6e989e761b6e08f8de0bc21c94a7cf83b6af4c14ac2681debf77dfe8d7c324d346b3e95a33fb4cd377f0242142573ae86d5ca7873045a8196d83633f261152501c4c7eafe16c0e280967dd78ed041d303f0fa5cd80e690e890cdf72bd1799c5da5ea7317c2cf76cd3137df165ae26fa70d91bdbcabfd90c76f95981cdb91606721da1de33c3a8dd306d1eed928cb06ea49b98b6bf8f1571ab0f2ce50f2bc8b399399bdf6fc176dbc31acd955edf7ba076571c3871c60d14852b979c408d8397185c22a2eedc1ebc44c35b3fce1fa4b34cc436d2a0c0f4f71929fe64b1cb8fbefc47a7384d182d0c5fc56b1b8351256631760b4488167dca220fdf7e8f66bb1e27dfef9496ee6ca8ea4dfb2aa266391440170d40551da8c5e917204c9ba58c0ef6af992d40ee6e7d3665edb10238baba4d8e9285d9e6fd9bfb3b23ab65d44fb0ad41429ea225aa90955eca3e2ddb2e0d9d4806617904959415c6fffefd96e76638deb3ed25a7471705a993e7bd3fcee5e42c60dd68cb99fe8c726c3fd8d6e0f37e4f07dd14d88716dbb970292d1112993a3ecc9bce22236ebe05dbd2b1e99b64bc4603a300a615c3ccfebd0fec77b80c5869f03dfb9205fbc6c2035a73a6db82552b4d28fe8c1e6a6f52660d6075d7d69a2dde9f11f6a766e793aebafd1f2107e4fb154b1325f42c2c25760d86aed74a0498208e163f44a3e49f65f5411bc03674d62e0ec0a9b5a1e405f16d2ffaee23a4dad6a19fc1706c23fa1ef82eb600794df393ed69cbf4a2e19adac1e3ad4289212ff64040f38476dec5f6c5845d0059f8738cad651bc20c2128d335f0633df048921785c1cd2d0da5dede4511496bcced5961410d203491c516f3e8b1beb1fae3d2a65998ccc923bdf84dabc7691671fa30b3bf7cc080b70bd13017082015102382cb278648d94c317558d30f19554d3eaf1b1d4fd1c300cd645cc2575a96b27b"
      ],
      "sequence": 4294967294
    }
  ],
  "vout": [
    {
      "value": 1.0,
      "n": 0,
      "scriptPubKey": {
        "asm": "OP_RETURN 992d61caab5f6e4aa3c179e127febfd1d9becec9549f4475ede9f49dec96f8cd 8ab328fecf443076581d217c78458dd15109bc5b3b1970f5ab021d71d050df3faa9308deef641056783d015c5865adf171299c7b1b3950d58b223d51f070ff1fcaf368be8f047036185d613c3805cd911149fc1b7b5930b5eb425d3190109f7fead3489eaf245016387d411c1825edb13169dc3b5b791095cb627d11b030bf5f0a33a87e4fc4b0f6d89da1fcf8c50d51d1893cdbbb99f0752b829df150d05fbf2a13885e6fe490d6f8bd81dcd8e52d71f1a91cfb9bb9d0550ba2bdd170f07f9f4a73e83e0f84f0b698dde1bcb8854d1191c97c9bfbd9b0356bc2ddb110901fff6a53c81e2fa4d096b8fdc19c98a56d31b1e95cbbdbf990154be2fd9130b03fdf8ab328fecf443076581d217c78458dd15109bc5b3b1970f5ab021d71d050df3faa9308deef641056783d015c5865adf171299c7b1b3950d58b223d51f070ff1fcaf368be8f047036185d613c3805cd911149fc1b7b5930b5eb425d3190109f7fead3489eaf245016387d411c1825edb13169dc3b5b791095cb627d11b030bf5f0a33a87e4fc4b0f6d89da1fcf8c50d51d1893cdbbb99f0752b829df150d05fbf2a13885e6fe490d6f8bd81dcd8e52d71f1a91cfb9bb9d0550ba2bdd170f07f9f4a73e83e0f84f0b698dde1bcb8854d1191c97c9bfbd9b0356bc2ddb110901fff6a53c81e2fa4d096b8fdc19c98a56d31b1e95cbbdbf990154be2fd9130b03fdf8ab328fecf443076581d217c78458dd15109bc5b3b1970f5ab021d71d050df3faa9308deef641056783d015c5865adf171299c7b1b3950d58b223d51f070ff1fcaf368be8f047036185d613c3805cd911149fc1b7b5930b5eb425d3190109f7fead3489eaf245016387d411c1825edb13169dc3b5b791095cb627d11b030bf5f0a33a87e4fc4b0f6d89da1fcf8c50d51d1893cdbbb99f0752b829df150d05fbf2a13885e6fe490d6f8bd81dcd8e52d71f1a91cfb9bb9d0550ba2bdd170f07f9f4a73e83e0f84f0b698dde1bcb8854d1191c97c9bfbd9b0356bc2ddb110901fff6a53c81e2fa4d096b8fdc19c98a56d31b1e95cbbdbf990154be2fd9130b03fdf8ab328fecf443076581d217c78458dd15109bc5b3b1970f5ab021d71d050df3faa9308deef641056783d015c5865adf171299c7b1b3950d58b223d51f070ff1fcaf368be8f047036185d613c3805cd911149fc1b7b5930b5eb425d3190109f7fead3489eaf245016387d411c1825edb13169dc3b5b791095cb627d11b030bf5f0a33a87e4fc4b0f6d89da1fcf8c50d51d1893cdbbb99f0752b829df150d05fbf2a13885e6fe490d6f8bd81dcd8e52d71f1a91cfb9bb9d0550ba2bdd170f07f9f4a73e83e0f84f0b698dde1bcb8854d1191c97c9bfbd9b0356bc2ddb110901fff6a53c81e2fa4d096b8fdc19c98a56d31b1e95cbbdbf990154be2fd9130b03fdf8ab328fecf443076581d217c78458dd15109bc5b3b1970f5ab021d71d050df3faa9308deef641056783d015c5865adf171299c7b1b3950d58b223d51f070ff1fcaf368be8f047036185d613c3805cd911149fc1b7b5930b5eb425d3190109f7fead3489eaf245016387d411c1825edb13169dc3b5b791095cb627d11b030bf5f0a33a87e4fc4b0f6d89da1fcf8c50d512036cf391b8b989a22cdc40ce7b1e081bdd83d3369f3e1cce14013a13798390d",
        "hex": "6a20992d61caab5f6e4aa3c179e127febfd1d9becec9549f4475ede9f49dec96f8cd4db0048ab328fecf443076581d217c78458dd15109bc5b3b1970f5ab021d71d050df3faa9308deef641056783d015c5865adf171299c7b1b3950d58b223d51f070ff1fcaf368be8f047036185d613c3805cd911149fc1b7b5930b5eb425d3190109f7fead3489eaf245016387d411c1825edb13169dc3b5b791095cb627d11b030bf5f0a33a87e4fc4b0f6d89da1fcf8c50d51d1893cdbbb99f0752b829df150d05fbf2a13885e6fe490d6f8bd81dcd8e52d71f1a91cfb9bb9d0550ba2bdd170f07f9f4a73e83e0f84f0b698dde1bcb8854d1191c97c9bfbd9b0356bc2ddb110901fff6a53c81e2fa4d096b8fdc19c98a56d31b1e95cbbdbf990154be2fd9130b03fdf8ab328fecf443076581d217c78458dd15109bc5b3b1970f5ab021d71d050df3faa9308deef641056783d015c5865adf171299c7b1b3950d58b223d51f070ff1fcaf368be8f047036185d613c3805cd911149fc1b7b5930b5eb425d3190109f7fead3489eaf245016387d411c1825edb13169dc3b5b791095cb627d11b030bf5f0a33a87e4fc4b0f6d89da1fcf8c50d51d1893cdbbb99f0752b829df150d05fbf2a13885e6fe490d6f8bd81dcd8e52d71f1a91cfb9bb9d0550ba2bdd170f07f9f4a73e83e0f84f0b698dde1bcb8854d1191c97c9bfbd9b0356bc2ddb110901fff6a53c81e2fa4d096b8fdc19c98a56d31b1e95cbbdbf990154be2fd9130b03fdf8ab328fecf443076581d217c78458dd15109bc5b3b1970f5ab021d71d050df3faa9308deef641056783d015c5865adf171299c7b1b3950d58b223d51f070ff1fcaf368be8f047036185d613c3805cd911149fc1b7b5930b5eb425d3190109f7fead3489eaf245016387d411c1825edb13169dc3b5b791095cb627d11b030bf5f0a33a87e4fc4b0f6d89da1fcf8c50d51d1893cdbbb99f0752b829df150d05fbf2a13885e6fe490d6f8bd81dcd8e52d71f1a91cfb9bb9d0550ba2bdd170f07f9f4a73e83e0f84f0b698dde1bcb8854d1191c97c9bfbd9b0356bc2ddb110901fff6a53c81e2fa4d096b8fdc19c98a56d31b1e95cbbdbf990154be2fd9130b03fdf8ab328fecf443076581d217c78458dd15109bc5b3b1970f5ab021d71d050df3faa9308deef641056783d015c5865adf171299c7b1b3950d58b223d51f070ff1fcaf368be8f047036185d613c3805cd911149fc1b7b5930b5eb425d3190109f7fead3489eaf245016387d411c1825edb13169dc3b5b791095cb627d11b030bf5f0a33a87e4fc4b0f6d89da1fcf8c50d51d1893cdbbb99f0752b829df150d05fbf2a13885e6fe490d6f8bd81dcd8e52d71f1a91cfb9bb9d0550ba2bdd170f07f9f4a73e83e0f84f0b698dde1bcb8854d1191c97c9bfbd9b0356bc2ddb110901fff6a53c81e2fa4d096b8fdc19c98a56d31b1e95cbbdbf990154be2fd9130b03fdf8ab328fecf443076581d217c78458dd15109bc5b3b1970f5ab021d71d050df3faa9308deef641056783d015c5865adf171299c7b1b3950d58b223d51f070ff1fcaf368be8f047036185d613c3805cd911149fc1b7b5930b5eb425d3190109f7fead3489eaf245016387d411c1825edb13169dc3b5b791095cb627d11b030bf5f0a33a87e4fc4b0f6d89da1fcf8c50d512036cf391b8b989a22cdc40ce7b1e081bdd83d3369f3e1cce14013a13798390d",
        "type": "nulldata"
      }
    },
    {
      "value": 499979.662,
      "n": 1,
      "scriptPubKey": {
        "asm": "1 ab2693aaef0b58fe30337ce5342a8d2e0a3a2ff39b25d3bdd6adec696f4eae03",
        "hex": "5120ab2693aaef0b58fe30337ce5342a8d2e0a3a2ff39b25d3bdd6adec696f4eae03",
        "reqSigs": 1,
        "type": "witness_v1_scripthash",
        "addresses": [
          "3QJmnh"
        ]
      }
    }
  ],
  "blockhash": "c592ff09702ccc153ea7e0356b0e5a10b37ebf9436b5bd4870b29e5d1c636d36",
  "confirmations": 1,
  "time": 1764179615,
  "blocktime": 1764179615
}