{
  "hex": "01000000000101a6b20629a24137214bcb47a1c5386df1d51eae17c03856248637acb79cd6ae3d0000000000feffffff0200e1f50500000000fdd5046a206bdea94b43c6eaf076a6322b2bb0e6d09fe5d9b0d0e413ffbf8c0b9520b5bd7c4db0043a5c0647d63deede64a32615b9bcc88147b5e48c7ce929787a727e28a4bf84b91a7c2667f61dcefe44830635999ce8a16795c4ac5cc909585a525e08849fa4997a1c4607967dae9e24e36655f9fc88c107f5a4cc3ca969383a323e68e4ffc4f95a3c6627b65d8ebe04c34675d9dca8e127d584ec1c8949181a121e48c4dfe4d9badc86c756bd6e5ee423a695393c4801c735640cfc69a9f8faf2fea8243f04399afca6e7769d4e7ec40386b5191c6821e715442cdc4989d8dad2de88041f2419fa9cc68716fd2e1ea463e6d5797c08418775244cbc29e9b8bab2bee8647f4479dabce6a736dd0e3e8443c6f5595c2861a755046c9c09c9989a929ec8445f64593a5c0647d63deede64a32615b9bcc88147b5e48c7ce929787a727e28a4bf84b91a7c2667f61dcefe44830635999ce8a16795c4ac5cc909585a525e08849fa4997a1c4607967dae9e24e36655f9fc88c107f5a4cc3ca969383a323e68e4ffc4f95a3c6627b65d8ebe04c34675d9dca8e127d584ec1c8949181a121e48c4dfe4d9badc86c756bd6e5ee423a695393c4801c735640cfc69a9f8faf2fea8243f04399afca6e7769d4e7ec40386b5191c6821e715442cdc4989d8dad2de88041f2419fa9cc68716fd2e1ea463e6d5797c08418775244cbc29e9b8bab2bee8647f4479dabce6a736dd0e3e8443c6f5595c2861a755046c9c09c9989a929ec8445f64593a5c0647d63deede64a32615b9bcc88147b5e48c7ce929787a727e28a4bf84b91a7c2667f61dcefe44830635999ce8a16795c4ac5cc909585a525e08849fa4997a1c4607967dae9e24e36655f9fc88c107f5a4cc3ca969383a323e68e4ffc4f95a3c6627b65d8ebe04c34675d9dca8e127d584ec1c8949181a121e48c4dfe4d9badc86c756bd6e5ee423a695393c4801c735640cfc69a9f8faf2fea8243f04399afca6e7769d4e7ec40386b5191c6821e715442cdc4989d8dad2de88041f2419fa9cc68716fd2e1ea463e6d5797c08418775244cbc29e9b8bab2bee8647f4479dabce6a736dd0e3e8443c6f5595c2861a755046c9c09c9989a929ec8445f64593a5c0647d63deede64a32615b9bcc88147b5e48c7ce929787a727e28a4bf84b91a7c2667f61dcefe44830635999ce8a16795c4ac5cc909585a525e08849fa4997a1c4607967dae9e24e36655f9fc88c107f5a4cc3ca969383a323e68e4ffc4f95a3c6627b65d8ebe04c34675d9dca8e127d584ec1c8949181a121e48c4dfe4d9badc86c756bd6e5ee423a695393c4801c735640cfc69a9f8faf2fea8243f04399afca6e7769d4e7ec40386b5191c6821e715442cdc4989d8dad2de88041f2419fa9cc68716fd2e1ea463e6d5797c08418775244cbc29e9b8bab2bee8647f4479dabce6a736dd0e3e8443c6f5595c2861a755046c9c09c9989a929ec8445f64593a5c0647d63deede64a32615b9bcc88147b5e48c7ce929787a727e28a4bf84b91a7c2667f61dcefe44830635999ce8a16795c4ac5cc909585a525e08849fa4997a1c4607967dae9e24e36655f9fc88c107f5a4cc3ca969383a323e68e4ffc4f95a3c6627b65d8ebe04c34675d9dca8e127d584ec1c8949181a121e48c4dfe4d9badc86c756bd6e5ee423a695393c480132e87e07a464cc947e9bef6cb362abab748cd7eced69fb955ecbf8a7360f4a13c075fe6f792d0000225120972015854f6aad8211b7b44627988be59cf370783b98c6e6f7a29b73c03fab5702fd7509ddd8e108115ae3f66662508eeeab979f377dd0a4b8a3f95904f3032e8f13a34e6cc61a5244fb4e43427576e497eb7f7fcccc906ed8cb796008a6298614b18cb2a5b9713ad6c678979cb61a3fe7129247bac1639dc72bf1a9a87ca6c8ef164b5bcb2238ecdb61d99d87bbb9d588832e7e888ea32255bca9069e04684fe174f5839981bfa4c7d76296aa1dab8587230f995f94d52178ae6ca7bd6e13d034b3cad5cfe85470649666fa6776aefe70f3e73b23efa450200773644360048bd1dccf57e4b4a4279cc6f352ff1a297004d2f7fabb8fc0a6a4f8b5719fd5764d8d073c3317b7ea4e977e93955c54c000f5663c3f4ea63e0b41653144ce48962112e756078430e4313300b737337e3df3f3e7d62429f371266e631d188eb2d44ff88b195f48f6fe0be5b0f1721c8a5596f1a23bf028b183e7a25aa48be375c86ff48025c695f3558acecfc6553a8975ccb2ca233561068a4590db1927312b571f3ed644a87fab3ebe5654d5dc2e5bf78e9ced12a8059d53d40d1bd54b3e35c028281567ac9e0f3673de53e74f536838e8c62dd1aa69631c757c5ccc81753922d335112e636d3b4a587e77282553d9aee519f333f3a69bd0eca6457378fec4f582ab7d13a04427918177a2f179a1fae0a1f2fc1a45a43f6b6e6f40753080bc414c902946421e6ff4ab3a6affed7e511f09ab8a58ee3d509e3dc291a50344bdc781a3bc1736a5d5fffb6ee21f4a6f1687f737e83f8ccbfbf172e78a7f42581f45f3565b01fc76eeaa5abf6cba5a4fc3097a38d503afe95e0ce49e48b43cf11143ed074299dcacb0b8086cb8a6269a0cd90654aad0aafbde6590abd779c42dbc5314249538fb8454cc8510b74673ba4109ea5ff17d3da9080fdd259c72a3802d310611d3ccee88a13abb4420c5d52435e942e5d10d6f2c85ed92523cb1dfd10b9d03b6f5389f2da48364105b767486dbac3417c3fb7bf72b62714eb83645ffcc09c228e370e2c7a0d1e84418b87647ca4b09bf344fb273ec63a5ea58b1598da53f8c11a983e3f924527075d188231dade5b017fae8253859aafbdbaee744bdbc863906a3937d5b3a392f79a9bbbe78e7325193ad333a9086fa7fb81bc337a203843636f5fb5ec971e3e2d84b40c00b39f71ae4273dc80e75b839c3613d366f52c03b2c5ee9b5aeb6c12a630817f7550b07f5bfb898c87558d4242c795e1e7f874039351d63b44ab3e40f225114db5c8b1c5dd0644c7f6c0ad3bbe0db1212c9a3d08ea818d3f1f01758beed16d77f3722f22942263772c16dbb8479571b6e6a0f7389a02f0add91185a4efc7b6bbb8a2ae598ada84726ce71f922657484252ce1872a7c88ed98536acd4caba92512899851e06baf5b0471192528def6806f18ee4e22a3e23523636d6300239ef7690428d0970f03f9df1353d85be9df29040c4e900addeccb4ff74b77983a41dc9a2891a2b2de6e5cd33647a939435aeb1c1c69b6ecacdf3baf0959eadc4963b558e861bc91995dafb0a8abb6e1a7793b326433bb6b8f7506ee04f938bf92fa4e97cc5741842542cfd12e2e001ae454159a489208eaab1df43e052386dedc643c994b2d6ba944b4e753dca3ca1be4e485b6666e398d7802ff4f33905b6b9912746747baf75aeadab9d1b250c17cac3773124365e3abc265f457d0e5bf5b8a0153650ae835f0119de53439a4e4389eb4f908c885bfc22d2604ec2ed4053d18560171599ea1235e645cadc2d221d7e2542c240f8dfa598dd6cb4b5070920c5731ba4b7251ad2c25e2e2a7c29ada65a634be1f81597f0ae260aea4b97241794bacaf7c95ec33b8ee1df698f1cdc4e85603ce8770a358a9487d4c2c756080c1f37c35c9bbc4c30719b2e02405c3559a838918de42c2e1fe8275a386ce01dcbde3c67ae293d4fae63451b52a6e9bf16d9b4bd3321d0b81789bcf9f1cbffa50bc03b0e59fe3d43d02ad000231714dd05926dfbf4683c5bd3bdb32ceec4379f9ed2c548513b518ac05b2e423ecf89fb181259f52331daa30858ad1eadd9dca51dd9f1df72fe034fb2fb2d0db6d2e90b1858e9d1526fdb350ee471af12352961c0a837a9e16c98172eb8804aed4cbe5b2c2dff2db166def046de510843faab741e4defe06d23e43bc1d1f6d2a8f6ccf1496f9936b4968a705d90429fbf32c058e55eeef23436869bc0276bcbe386c45e38945ab5be168d6f959840c87a2204dce1b902637dd850861643bb33823921ac2a8729fef0ae18ad0efe11b0c6110bed70651690a74e96ec0b79369001b3676802a0ee88265953a92408eba4cdd31ba61dce6766cfc061dd175b8b90756a1e03938a12d2fc9657ee5e54ac24cc8c77ce8e5532fc07f6a5f74cbd112ee775ae76a7634fe3fcd109a7a12abde54679002503107b227fba9a9e14e2ee0f08a08a7f8ab29e982071a3e4ccdc1e95d83fe83c01c109b5e7de8637975a4b12c372a68aa940d03bb8c38f06311eae00e9d11ec53f6482e0df587789977671bce7485905641cb63e08a3e365e823f761285cb162233b45d5272ddfa89de72231e501eade75a7b10df2fd9110e1fb4aadfcbcbf587bdce0f799a8954097d7a5db4bfbaac148fb148d13b5abe4fdfa80faac81956e6bce10fa3af5466c08ea6dcc4b0633a7bcdeb45858b6de45bd8d772e6f0f7c7cd60ccaf2e9460ac9eec5762e2d0b0ebf82886f08a4d446da35f0e1262cd7a9e5b48b9bfd4026daadc070adbfe32894a5b3ff9825560f1765a3b831b9c992e840abad3c80c9a4ceddf72f4c8fedaed6973aa72ee59e69aa112aca7a23c7882be409a4a4cfca1acb10344b140a1b4bb588cc55e734803e6032a26682d6efa7ef1e7f2a350fdb1a96d1e89d9219eec533384b97c47cf7d516d95c8d7b4c3e19a7add95b155f664fe72cb7471d13372de3a2b90d798e694d3ed3e247199e93a2ff16742be9921e1df4a94e3a7ea92123aa88c341098fb7f75e1ba0aab6ca4215e35b18ec4d269d2cdec67716c9ba6fd7359aca27705885d79075aed571512e23e9e954d1e11b6ba5a53092424824e5c9453793b1d3016bf54116b8f637809ba3501320e66c03f48956ce9ea7ea600f3718c9c05ba27eb3d01bf3f4a41633115e8406cd187be15a51730ed221f27a0d35d4ad7a015e7f90ec7448c6c585d9b562c545d27c88612ed3a2010f8e614bcb02b3389febe6791fc583a2e7dd093a97c46add4e558ce01bb9869fa1b43d42eab9acf98d56eb3c8437a5739412fc20f2dec48edf86d9070ff740fe81617dec7482fc9e5aa962f52d306be4c43676d9946061f228ea2afb7c0c9ccd2e9eced092e3437404d595f6e73898ea8f5050f2e494b717b93a5aecbf3f7fb196e717576898c9fabacd7e0e5e70000000000000000000000000000000000000000000000000e1c2a3801fd210500b2f4ec81685e5d297df64b7444b8d5ff674c0503c54b12ca73c5a9e7e5d673bc0cd11cd4c017834c1af3179e11886246cf1499ee971f23b2287895e3200f8d13561c315a542645c8890814f5fa6a977557f635c64bcd54a98216a27fbc57cc5318c07b93daf5e703c4620ce3d62d6a47bfae8397184cab00229cb64f63626d7b437a7d0a607cbf97d9f829dfb886e2199ef258c878e819357a852f79e87bee9582649855ba385c621c29c33f48c937168e498091df31ad5509762702fb243c35977d7fa0f3314a9a3c432175fd8b7f04c70af1c82ab034642720a72761a8c77a1bab1788d746302efa8a2e05e9a26740dc2354a8bf9ff1d6b7c5d91e30b7229700c33c1acbbf0f91d178be2e23a4d4cc91e68ff4acb193a90692b8005b9c73a6c50a371ba88b2e3716b433cbb89f6477b12d7f889f81a3e8f24e2719d68f20f8925525e979eae4f6b7f8600dadf716cd537c5036c0e85124ebbbed11f3e488ccd3b3bffb98c864306e10392de2acfd4b5faaf7fc819248581f61e78065a768cffec6d4414ebac9f3a1d4e6dbbcc38e34ede7fd41f35196a6a89d21894d1f16379a2f8df8056128865406aa157b380e389a542a67dac48a1d582b7175e0afb24f5374283ef66eb5969174e598bf9136f9bd051f6ea701335609af3266bfec3d8b06c7c7678d771e4e44951052f1564eb93163e3a23bbe61abbda252a5e6461dfd8219b6688a32bbe9b055db8cb09fa522f9870f3cef395047611504b35681590ca325cc5cf163f523d53c934206abdd443fe722e7748d855d9d1065aa061be016fa303473aeaf734f4e26cce36dd4f9321cb0fe96a2b31c2e9471005220c81d03c6990a680b2ce2738f9960bcb3937a6e29a045b355b8907518f563ba1f9ed54a9f7fe2137fcb3d322dceeda9f5f9a48933dbdbaa64fb1218c73858c763fdedaba1a570ba0e70dc8af826791224b1ca98cdd437b3274581ca033e8a90f3d4f2780dd25c7fe70e89b1ef0a4f003e3a5cdddc9f33ebe2fcb39ec8e0bfee6bea05207e38568e45e2d48720ffa1e1b0ff39e2fef5eebe65ffc90c4d175a6402a41135e1337de7c4a12d382e484d45f33bda87e15d5186f6fa197e54f8bc481b7e442414dd6b1da7134bb3f66fd1cf8a65aeb7732dbb8fe33dcf43d6a08b73f11c45afca97b525bcfe776185ea3dbcb19ed912f777054ef66f71f10c56d654703b73abb61cb59d159bc72a5da36e55c19c3f929c52272c8c8fc6ec001743ebe15403d8d71e1a42e1ee27906e0ebd1393eca28a887953cbdc67e75e416fdc20e0b02811b7878b137ea5c4ba4fb699330dcdcd02267abb9ecd0abd5613f6ffd8f1f7c32367e1e986efce4f0def9e70cec1f9a92b9b16766892e51a8699fb07a983be68d77a3c0a792dcafab5f39aab8585ed39ff1cb8a8d30be7ed76a5a34bcba9c2e52ac815d39b9c955432f2a88827c663a493a77994e4b26dc83387ecacaea794f76e1656c03977525abd531c70ada8ba2cb928ce3ef401d0dd037353ea423000747229ecbb6187e884f975608caacbd8e5d258adfd5b89479828ac30eaab74a1ee83f23622e3e33a943d175c28d837a24b936c2eb4b106208402f4ef354e697a5006cf4bb4d15df9688b0b928f6cfe63832f9e6614cb40894fc6790213c62cc8d5e6c549f0d916417e1ebba27b29c0be8d7e005fc2eac682a2fa94b7d717a8f84df8146f47ec65b82d02a5c32b6f6df32583684331dd76f57639dd115e2601cbf532c9cdba99effb0924a4374c6b560c4ac7392fb312d15859dd3da117df019afcf5b3f31951738b481e108237ec901c276ff42933ece02392e65f0b1ab2d6aacb6f68000000",
  "txid": "bf9c437541acae33afc616989b4318155e688f2a5832e45f8345fee85c65ca6c",
  "hash": "60ffb0dbd1a7b5eec91c755547f77fdc9fce7fb6ea7c90f345abee39a06ae140",
  "size": 5085,
  "vsize": 2278,
  "version": 1,
  "locktime": 104,
  "vin": [
    {
      "txid": "3daed69cb7ac3786245638c017ae1ed5f16d38c5a147cb4b213741a22906b2a6",
      "vout": 0,
      "scriptSig": {
        "asm": "",
        "hex": ""
      },
      "txinwitness": [
        "ddd8e108115ae3f66662508eeeab979f377dd0a4b8a3f95904f3032e8f13a34e6cc61a5244fb4e43427576e497eb7f7fcccc906ed8cb796008a6298614b18cb2a5b9713ad6c678979cb61a3fe7129247bac1639dc72bf1a9a87ca6c8ef164b5bcb2238ecdb61d99d87bbb9d588832e7e888ea32255bca9069e04684fe174f5839981bfa4c7d76296aa1dab8587230f995f94d52178ae6ca7bd6e13d034b3cad5cfe85470649666fa6776aefe70f3e73b23efa450200773644360048bd1dccf57e4b4a4279cc6f352ff1a297004d2f7fabb8fc0a6a4f8b5719fd5764d8d073c3317b7ea4e977e93955c54c000f5663c3f4ea63e0b41653144ce48962112e756078430e4313300b737337e3df3f3e7d62429f371266e631d188eb2d44ff88b195f48f6fe0be5b0f1721c8a5596f1a23bf028b183e7a25aa48be375c86ff48025c695f3558acecfc6553a8975ccb2ca233561068a4590db1927312b571f3ed644a87fab3ebe5654d5dc2e5bf78e9ced12a8059d53d40d1bd54b3e35c028281567ac9e0f3673de53e74f536838e8c62dd1aa69631c757c5ccc81753922d335112e636d3b4a587e77282553d9aee519f333f3a69bd0eca6457378fec4f582ab7d13a04427918177a2f179a1fae0a1f2fc1a45a43f6b6e6f40753080bc414c902946421e6ff4ab3a6affed7e511f09ab8a58ee3d509e3dc291a50344bdc781a3bc1736a5d5fffb6ee21f4a6f1687f737e83f8ccbfbf172e78a7f42581f45f3565b01fc76eeaa5abf6cba5a4fc3097a38d503afe95e0ce49e48b43cf11143ed074299dcacb0b8086cb8a6269a0cd90654aad0aafbde6590abd779c42dbc5314249538fb8454cc8510b74673ba4109ea5ff17d3da9080fdd259c72a3802d310611d3ccee88a13abb4420c5d52435e942e5d10d6f2c85ed92523cb1dfd10b9d03b6f5389f2da48364105b767486dbac3417c3fb7bf72b62714eb83645ffcc09c228e370e2c7a0d1e84418b87647ca4b09bf344fb273ec63a5ea58b1598da53f8c11a983e3f924527075d188231dade5b017fae8253859aafbdbaee744bdbc863906a3937d5b3a392f79a9bbbe78e7325193ad333a9086fa7fb81bc337a203843636f5fb5ec971e3e2d84b40c00b39f71ae4273dc80e75b839c3613d366f52c03b2c5ee9b5aeb6c12a630817f7550b07f5bfb898c87558d4242c795e1e7f874039351d63b44ab3e40f225114db5c8b1c5dd0644c7f6c0ad3bbe0db1212c9a3d08ea818d3f1f01758beed16d77f3722f22942263772c16dbb8479571b6e6a0f7389a02f0add91185a4efc7b6bbb8a2ae598ada84726ce71f922657484252ce1872a7c88ed98536acd4caba92512899851e06baf5b0471192528def6806f18ee4e22a3e23523636d6300239ef7690428d0970f03f9df1353d85be9df29040c4e900addeccb4ff74b77983a41dc9a2891a2b2de6e5cd33647a939435aeb1c1c69b6ecacdf3baf0959eadc4963b558e861bc91995dafb0a8abb6e1a7793b326433bb6b8f7506ee04f938bf92fa4e97cc5741842542cfd12e2e001ae454159a489208eaab1df43e052386dedc643c994b2d6ba944b4e753dca3ca1be4e485b6666e398d7802ff4f33905b6b9912746747baf75aeadab9d1b250c17cac3773124365e3abc265f457d0e5bf5b8a0153650ae835f0119de53439a4e4389eb4f908c885bfc22d2604ec2ed4053d18560171599ea1235e645cadc2d221d7e2542c240f8dfa598dd6cb4b5070920c5731ba4b7251ad2c25e2e2a7c29ada65a634be1f81597f0ae260aea4b97241794bacaf7c95ec33b8ee1df698f1cdc4e85603ce8770a358a9487d4c2c756080c1f37c35c9bbc4c30719b2e02405c3559a838918de42c2e1fe8275a386ce01dcbde3c67ae293d4fae63451b52a6e9bf16d9b4bd3321d0b81789bcf9f1cbffa50bc03b0e59fe3d43d02ad000231714dd05926dfbf4683c5bd3bdb32ceec4379f9ed2c548513b518ac05b2e423ecf89fb181259f52331daa30858ad1eadd9dca51dd9f1df72fe034fb2fb2d0db6d2e90b1858e9d1526fdb350ee471af12352961c0a837a9e16c98172eb8804aed4cbe5b2c2dff2db166def046de510843faab741e4defe06d23e43bc1d1f6d2a8f6ccf1496f9936b4968a705d90429fbf32c058e55eeef23436869bc0276bcbe386c45e38945ab5be168d6f959840c87a2204dce1b902637dd850861643bb33823921ac2a8729fef0ae18ad0efe11b0c6110bed70651690a74e96ec0b79369001b3676802a0ee88265953a92408eba4cdd31ba61dce6766cfc061dd175b8b90756a1e03938a12d2fc9657ee5e54ac24cc8c77ce8e5532fc07f6a5f74cbd112ee775ae76a7634fe3fcd109a7a12abde54679002503107b227fba9a9e14e2ee0f08a08a7f8ab29e982071a3e4ccdc1e95d83fe83c01c109b5e7de8637975a4b12c372a68aa940d03bb8c38f06311eae00e9d11ec53f6482e0df587789977671bce7485905641cb63e08a3e365e823f761285cb162233b45d5272ddfa89de72231e501eade75a7b10df2fd9110e1fb4aadfcbcbf587bdce0f799a8954097d7a5db4bfbaac148fb148d13b5abe4fdfa80faac81956e6bce10fa3af5466c08ea6dcc4b0633a7bcdeb45858b6de45bd8d772e6f0f7c7cd60ccaf2e9460ac9eec5762e2d0b0ebf82886f08a4d446da35f0e1262cd7a9e5b48b9bfd4026daadc070adbfe32894a5b3ff9825560f1765a3b831b9c992e840abad3c80c9a4ceddf72f4c8fedaed6973aa72ee59e69aa112aca7a23c7882be409a4a4cfca1acb10344b140a1b4bb588cc55e734803e6032a26682d6efa7ef1e7f2a350fdb1a96d1e89d9219eec533384b97c47cf7d516d95c8d7b4c3e19a7add95b155f664fe72cb7471d13372de3a2b90d798e694d3ed3e247199e93a2ff16742be9921e1df4a94e3a7ea92123aa88c341098fb7f75e1ba0aab6ca4215e35b18ec4d269d2cdec67716c9ba6fd7359aca27705885d79075aed571512e23e9e954d1e11b6ba5a53092424824e5c9453793b1d3016bf54116b8f637809ba3501320e66c03f48956ce9ea7ea600f3718c9c05ba27eb3d01bf3f4a41633115e8406cd187be15a51730ed221f27a0d35d4ad7a015e7f90ec7448c6c585d9b562c545d27c88612ed3a2010f8e614bcb02b3389febe6791fc583a2e7dd093a97c46add4e558ce01bb9869fa1b43d42eab9acf98d56eb3c8437a5739412fc20f2dec48edf86d9070ff740fe81617dec7482fc9e5aa962f52d306be4c43676d9946061f228ea2afb7c0c9ccd2e9eced092e3437404d595f6e73898ea8f5050f2e494b717b93a5aecbf3f7fb196e717576898c9fabacd7e0e5e70000000000000000000000000000000000000000000000000e1c2a3801",
        "00b2f4ec81685e5d297df64b7444b8d5ff674c0503c54b12ca73c5a9e7e5d673bc0cd11cd4c017834c1af3179e11886246cf1499ee971f23b2287895e3200f8d13561c315a542645c8890814f5fa6a977557f635c64bcd54a98216a27fbc57cc5318c07b93daf5e703c4620ce3d62d6a47bfae8397184cab00229cb64f63626d7b437a7d0a607cbf97d9f829dfb886e2199ef258c878e819357a852f79e87bee9582649855ba385c621c29c33f48c937168e498091df31ad5509762702fb243c35977d7fa0f3314a9a3c432175fd8b7f04c70af1c82ab034642720a72761a8c77a1bab1788d746302efa8a2e05e9a26740dc2354a8bf9ff1d6b7c5d91e30b7229700c33c1acbbf0f91d178be2e23a4d4cc91e68ff4acb193a90692b8005b9c73a6c50a371ba88b2e3716b433cbb89f6477b12d7f889f81a3e8f24e2719d68f20f8925525e979eae4f6b7f8600dadf716cd537c5036c0e85124ebbbed11f3e488ccd3b3bffb98c864306e10392de2acfd4b5faaf7fc819248581f61e78065a768cffec6d4414ebac9f3a1d4e6dbbcc38e34ede7fd41f35196a6a89d21894d1f16379a2f8df8056128865406aa157b380e389a542a67dac48a1d582b7175e0afb24f5374283ef66eb5969174e598bf9136f9bd051f6ea701335609af3266bfec3d8b06c7c7678d771e4e44951052f1564eb93163e3a23bbe61abbda252a5e6461dfd8219b6688a32bbe9b055db8cb09fa522f9870f3cef395047611504b35681590ca325cc5cf163f523d53c934206abdd443fe722e7748d855d9d1065aa061be016fa303473aeaf734f4e26cce36dd4f9321cb0fe96a2b31c2e9471005220c81d03c6990a680b2ce2738f9960bcb3937a6e29a045b355b8907518f563ba1f9ed54a9f7fe2137fcb3d322dceeda9f5f9a48933dbdbaa64fb1218c73858c763fdedaba1a570ba0e70dc8af826791224b1ca98cdd437b3274581ca033e8a90f3d4f2780dd25c7fe70e89b1ef0a4f003e3a5cdddc9f33ebe2fcb39ec8e0bfee6bea05207e38568e45e2d48720ffa1e1b0ff39e2fef5eebe65ffc90c4d175a6402a41135e1337de7c4a12d382e484d45f33bda87e15d5186f6fa197e54f8bc481b7e442414dd6b1da7134bb3f66fd1cf8a65aeb7732dbb8fe33dcf43d6a08b73f11c45afca97b525bcfe776185ea3dbcb19ed912f777054ef66f71f10c56d654703b73abb61cb59d159bc72a5da36e55c19c3f929c52272c8c8fc6ec001743ebe15403d8d71e1a42e1ee27906e0ebd1393eca28a887953cbdc67e75e416fdc20e0b02811b7878b137ea5c4ba4fb699330dcdcd02267abb9ecd0abd5613f6ffd8f1f7c32367e1e986efce4f0def9e70cec1f9a92b9b16766892e51a8699fb07a983be68d77a3c0a792dcafab5f39aab8585ed39ff1cb8a8d30be7ed76a5a34bcba9c2e52ac815d39b9c955432f2a88827c663a493a77994e4b26dc83387ecacaea794f76e1656c03977525abd531c70ada8ba2cb928ce3ef401d0dd037353ea423000747229ecbb6187e884f975608caacbd8e5d258adfd5b89479828ac30eaab74a1ee83f23622e3e33a943d175c28d837a24b936c2eb4b106208402f4ef354e697a5006cf4bb4d15df9688b0b928f6cfe63832f9e6614cb40894fc6790213c62cc8d5e6c549f0d916417e1ebba27b29c0be8d7e005fc2eac682a2fa94b7d717a8f84df8146f47ec65b82d02a5c32b6f6df32583684331dd76f57639dd115e2601cbf532c9cdba99effb0924a4374c6b560c4ac7392fb312d15859dd3da117df019afcf5b3f31951738b481e108237ec901c276ff42933ece02392e65f0b1ab2d6aacb6f"
      ],
      "sequence": 4294967294
    }
  ],
  "vout": [
    {
      "value": 1.0,
      "n": 0,
      "scriptPubKey": {
        "asm": "OP_RETURN 6bdea94b43c6eaf076a6322b2bb0e6d09fe5d9b0d0e413ffbf8c0b9520b5bd7c 3a5c0647d63deede64a32615b9bcc88147b5e48c7ce929787a727e28a4bf84b91a7c2667f61dcefe44830635999ce8a16795c4ac5cc909585a525e08849fa4997a1c4607967dae9e24e36655f9fc88c107f5a4cc3ca969383a323e68e4ffc4f95a3c6627b65d8ebe04c34675d9dca8e127d584ec1c8949181a121e48c4dfe4d9badc86c756bd6e5ee423a695393c4801c735640cfc69a9f8faf2fea8243f04399afca6e7769d4e7ec40386b5191c6821e715442cdc4989d8dad2de88041f2419fa9cc68716fd2e1ea463e6d5797c08418775244cbc29e9b8bab2bee8647f4479dabce6a736dd0e3e8443c6f5595c2861a755046c9c09c9989a929ec8445f64593a5c0647d63deede64a32615b9bcc88147b5e48c7ce929787a727e28a4bf84b91a7c2667f61dcefe44830635999ce8a16795c4ac5cc909585a525e08849fa4997a1c4607967dae9e24e36655f9fc88c107f5a4cc3ca969383a323e68e4ffc4f95a3c6627b65d8ebe04c34675d9dca8e127d584ec1c8949181a121e48c4dfe4d9badc86c756bd6e5ee423a695393c4801c735640cfc69a9f8faf2fea8243f04399afca6e7769d4e7ec40386b5191c6821e715442cdc4989d8dad2de88041f2419fa9cc68716fd2e1ea463e6d5797c08418775244cbc29e9b8bab2bee8647f4479dabce6a736dd0e3e8443c6f5595c2861a755046c9c09c9989a929ec8445f64593a5c0647d63deede64a32615b9bcc88147b5e48c7ce929787a727e28a4bf84b91a7c2667f61dcefe44830635999ce8a16795c4ac5cc909585a525e08849fa4997a1c4607967dae9e24e36655f9fc88c107f5a4cc3ca969383a323e68e4ffc4f95a3c6627b65d8ebe04c34675d9dca8e127d584ec1c8949181a121e48c4dfe4d9badc86c756bd6e5ee423a695393c4801c735640cfc69a9f8faf2fea8243f04399afca6e7769d4e7ec40386b5191c6821e715442cdc4989d8dad2de88041f2419fa9cc68716fd2e1ea463e6d5797c08418775244cbc29e9b8bab2bee8647f4479dabce6a736dd0e3e8443c6f5595c2861a755046c9c09c9989a929ec8445f64593a5c0647d63deede64a32615b9bcc88147b5e48c7ce929787a727e28a4bf84b91a7c2667f61dcefe44830635999ce8a16795c4ac5cc909585a525e08849fa4997a1c4607967dae9e24e36655f9fc88c107f5a4cc3ca969383a323e68e4ffc4f95a3c6627b65d8ebe04c34675d9dca8e127d584ec1c8949181a121e48c4dfe4d9badc86c756bd6e5ee423a695393c4801c735640cfc69a9f8faf2fea8243f04399afca6e7769d4e7ec40386b5191c6821e715442cdc4989d8dad2de88041f2419fa9cc68716fd2e1ea463e6d5797c08418775244cbc29e9b8bab2bee8647f4479dabce6a736dd0e3e8443c6f5595c2861a755046c9c09c9989a929ec8445f64593a5c0647d63deede64a32615b9bcc88147b5e48c7ce929787a727e28a4bf84b91a7c2667f61dcefe44830635999ce8a16795c4ac5cc909585a525e08849fa4997a1c4607967dae9e24e36655f9fc88c107f5a4cc3ca969383a323e68e4ffc4f95a3c6627b65d8ebe04c34675d9dca8e127d584ec1c8949181a121e48c4dfe4d9badc86c756bd6e5ee423a695393c480132e87e07a464cc947e9bef6cb362abab748cd7eced69fb955ecbf8a7360f4a13",
        "hex": "6a206bdea94b43c6eaf076a6322b2bb0e6d09fe5d9b0d0e413ffbf8c0b9520b5bd7c4db0043a5c0647d63deede64a32615b9bcc88147b5e48c7ce929787a727e28a4bf84b91a7c2667f61dcefe44830635999ce8a16795c4ac5cc909585a525e08849fa4997a1c4607967dae9e24e36655f9fc88c107f5a4cc3ca969383a323e68e4ffc4f95a3c6627b65d8ebe04c34675d9dca8e127d584ec1c8949181a121e48c4dfe4d9badc86c756bd6e5ee423a695393c4801c735640cfc69a9f8faf2fea8243f04399afca6e7769d4e7ec40386b5191c6821e715442cdc4989d8dad2de88041f2419fa9cc68716fd2e1ea463e6d5797c08418775244cbc29e9b8bab2bee8647f4479dabce6a736dd0e3e8443c6f5595c2861a755046c9c09c9989a929ec8445f64593a5c0647d63deede64a32615b9bcc88147b5e48c7ce929787a727e28a4bf84b91a7c2667f61dcefe44830635999ce8a16795c4ac5cc909585a525e08849fa4997a1c4607967dae9e24e36655f9fc88c107f5a4cc3ca969383a323e68e4ffc4f95a3c6627b65d8ebe04c34675d9dca8e127d584ec1c8949181a121e48c4dfe4d9badc86c756bd6e5ee423a695393c4801c735640cfc69a9f8faf2fea8243f04399afca6e7769d4e7ec40386b5191c6821e715442cdc4989d8dad2de88041f2419fa9cc68716fd2e1ea463e6d5797c08418775244cbc29e9b8bab2bee8647f4479dabce6a736dd0e3e8443c6f5595c2861a755046c9c09c9989a929ec8445f64593a5c0647d63deede64a32615b9bcc88147b5e48c7ce929787a727e28a4bf84b91a7c2667f61dcefe44830635999ce8a16795c4ac5cc909585a525e08849fa4997a1c4607967dae9e24e36655f9fc88c107f5a4cc3ca969383a323e68e4ffc4f95a3c6627b65d8ebe04c34675d9dca8e127d584ec1c8949181a121e48c4dfe4d9badc86c756bd6e5ee423a695393c4801c735640cfc69a9f8faf2fea8243f04399afca6e7769d4e7ec40386b5191c6821e715442cdc4989d8dad2de88041f2419fa9cc68716fd2e1ea463e6d5797c08418775244cbc29e9b8bab2bee8647f4479dabce6a736dd0e3e8443c6f5595c2861a755046c9c09c9989a929ec8445f64593a5c0647d63deede64a32615b9bcc88147b5e48c7ce929787a727e28a4bf84b91a7c2667f61dcefe44830635999ce8a16795c4ac5cc909585a525e08849fa4997a1c4607967dae9e24e36655f9fc88c107f5a4cc3ca969383a323e68e4ffc4f95a3c6627b65d8ebe04c34675d9dca8e127d584ec1c8949181a121e48c4dfe4d9badc86c756bd6e5ee423a695393c4801c735640cfc69a9f8faf2fea8243f04399afca6e7769d4e7ec40386b5191c6821e715442cdc4989d8dad2de88041f2419fa9cc68716fd2e1ea463e6d5797c08418775244cbc29e9b8bab2bee8647f4479dabce6a736dd0e3e8443c6f5595c2861a755046c9c09c9989a929ec8445f64593a5c0647d63deede64a32615b9bcc88147b5e48c7ce929787a727e28a4bf84b91a7c2667f61dcefe44830635999ce8a16795c4ac5cc909585a525e08849fa4997a1c4607967dae9e24e36655f9fc88c107f5a4cc3ca969383a323e68e4ffc4f95a3c6627b65d8ebe04c34675d9dca8e127d584ec1c8949181a121e48c4dfe4d9badc86c756bd6e5ee423a695393c480132e87e07a464cc947e9bef6cb362abab748cd7eced69fb955ecbf8a7360f4a13",
        "type": "nulldata"
      }
    },
    {
      "value": 499995.9324,
      "n": 1,
      "scriptPubKey": {
        "asm": "1 972015854f6aad8211b7b44627988be59cf370783b98c6e6f7a29b73c03fab57",
        "hex": "5120972015854f6aad8211b7b44627988be59cf370783b98c6e6f7a29b73c03fab57",
        "reqSigs": 1,
        "type": "witness_v1_scripthash",
        "addresses": [
          "3QJmnh"
        ]
      }
    }
  ],
  "blockhash": "32a2d379a33ec88ae1cb3a8a1a44f2d12b76aebf574ecf7ac16b289397ed6cd9",
  "confirmations": 1,
  "time": 1764176557,
  "blocktime": 1764176557
}