{
  "hex": "01000000000101bbe0bf6fca7ebdfda96ea29e21822c5935d0d1f81f9d60c772b5f8355b0831d80000000000feffffff0200e1f50500000000fdd5046a20be2559dbdcc8baf4787849216a9ed78969a757c608c4286cfa01d258f28b72544db004853d34a9fb614ac1fe26b74fe92910dbbf5359a7d6c0e656e55d263794476e53a51d1489db416ae1de06976fc90930fb9f737987f6e0c676c57d0617b4674e73c57d74e9bb210a81be66f70fa969509bff1319e79680a616a51d6677d4072e13e55d54c99b012aa19e46d72f894970bbdf3339c7b6a08636853d4657f4270e3305bdb4297be1ca417ea637cf69a9905b3fd3d927564066d665dda6b714c7eed3259d94095bc1ea615e8617ef4989b07b1ff3f907766046f645fd869734e7cef345fdf4693ba18a013ee6778f29e9d01b7f93996716002696259de6f75487ae9365ddd4491b81aa211ec657af09c9f03b5fb3b947362006b605bdc6d774a78eb3853d34a9fb614ac1fe26b74fe92910dbbf5359a7d6c0e656e55d263794476e53a51d1489db416ae1de06976fc90930fb9f737987f6e0c676c57d0617b4674e73c57d74e9bb210a81be66f70fa969509bff1319e79680a616a51d6677d4072e13e55d54c99b012aa19e46d72f894970bbdf3339c7b6a08636853d4657f4270e3305bdb4297be1ca417ea637cf69a9905b3fd3d927564066d665dda6b714c7eed3259d94095bc1ea615e8617ef4989b07b1ff3f907766046f645fd869734e7cef345fdf4693ba18a013ee6778f29e9d01b7f93996716002696259de6f75487ae9365ddd4491b81aa211ec657af09c9f03b5fb3b947362006b605bdc6d774a78eb3853d34a9fb614ac1fe26b74fe92910dbbf5359a7d6c0e656e55d263794476e53a51d1489db416ae1de06976fc90930fb9f737987f6e0c676c57d0617b4674e73c57d74e9bb210a81be66f70fa969509bff1319e79680a616a51d6677d4072e13e55d54c99b012aa19e46d72f894970bbdf3339c7b6a08636853d4657f4270e3305bdb4297be1ca417ea637cf69a9905b3fd3d927564066d665dda6b714c7eed3259d94095bc1ea615e8617ef4989b07b1ff3f907766046f645fd869734e7cef345fdf4693ba18a013ee6778f29e9d01b7f93996716002696259de6f75487ae9365ddd4491b81aa211ec657af09c9f03b5fb3b947362006b605bdc6d774a78eb3853d34a9fb614ac1fe26b74fe92910dbbf5359a7d6c0e656e55d263794476e53a51d1489db416ae1de06976fc90930fb9f737987f6e0c676c57d0617b4674e73c57d74e9bb210a81be66f70fa969509bff1319e79680a616a51d6677d4072e13e55d54c99b012aa19e46d72f894970bbdf3339c7b6a08636853d4657f4270e3305bdb4297be1ca417ea637cf69a9905b3fd3d927564066d665dda6b714c7eed3259d94095bc1ea615e8617ef4989b07b1ff3f907766046f645fd869734e7cef345fdf4693ba18a013ee6778f29e9d01b7f93996716002696259de6f75487ae9365ddd4491b81aa211ec657af09c9f03b5fb3b947362006b605bdc6d774a78eb3853d34a9fb614ac1fe26b74fe92910dbbf5359a7d6c0e656e55d263794476e53a51d1489db416ae1de06976fc90930fb9f737987f6e0c676c57d0617b4674e73c57d74e9bb210a81be66f70fa969509bff1319e79680a616a51d6677d4072e13e55d54c99b012aa19e46d72f894970bbdf3339c7b6a08636853d4657f4270e3305bdb4297be1ca417ea637cf69a9905bfbd88f137a2a69a3146fa445103a2c3a405ccad5bf4795ef758f3d60b0356f34907857cc782d0000225120f1298974846b4341ec8f0ad69e5959f6ac2f7f09595ff144954ea2a850f3083f02fd7509f52ae60ecee96e5171e78e0d42964c54f79af71dc4e00e8299c49074187646f4b00491bb481e1a5372d4b34b39884ecc7ec6fd515545713ab1941f73a47a9402379620bc5e97a4072c40572164a110295806031ea398b4ad5a6e38656f01c590d1af8baf1c4a24cf9c37c120a5afe42278bda3aa312e10c9dadf2c566f761263375b0042d33db79f87204a5cd30599c43396bdceb7fef2b68a61f9ed7b2020bc1cedaf9013b177bc7c5410465d7584a59f1dc011df726bb64c5f2c626851bdc06cf206a86cf68d278af665787233a4f3f7587a78002917433844b9da237baa63e60d70e12528cd4e9f4fe77f1dff6e067108ab7a4e664041798f41896782f18a642414c8d8c8c03679435268d0542453baeb6f85ed1e8471743dc0bed9314686b79c95b8d0e14c545a4cc661c25029dbcf18cc69eb8a8d5bde353d4821dc6925c9521e243fd2ef450f5ccc2f3ecde76f5841b4d4685aa76f0e1ad3ce7b3629befed210ef5016035739553fa6101f33facc6549bb3db0edb97cc82587384e10d443de93959da75f9ff3d58e7e127720ea78a6d413b1eadf4f9c4918182e72f164ba2266976887025302b73a567dd75adc4d0ef9c109a5d26f869cef3d091902cb56dafb5a000543e31abadd0a8d88131574b7cade759e6921b2ea8cbcf69bf7c4242a761cb9141a3e0e23d56d9094cd2aaaea2efd97598b2369b6d90f72e1e634a9e3bee483d5ddf835a0cbc287ae43d959b9720cfb55b1ba832223759e044dd2d2c43121999e1c8bed6aeb2fa5a7367494cd045b1581827328fc2eca38ab055673dc8908d2b8872c9bede6f1cdbd180709a0440026cb9f34aff2c1333d84b2be16c8cae8430591f21352d6e29976666e96451c4ce9302704f71d76420290fa60b1aad04b482488c667cb30fea05b4a47a756b7c1ba756cd957938c9df0e42fb1780f6a7368835db55528d66ca5ef7ed4cd978c885645d5505350c7cbfc189b6716b68660b2202af3fd4331c9722eea70e72cacc2a3e04e31b2bf6f550f26f4550b78dc74b9bf8dde9861dd265d93f181b3bc18352b12f9c3584bd5b422e1cb652afc42628839b8b2ba49e659fb9d966466ca428e296720c2b56ff3e90c8189b0a42339497181e8beaf55fb8bbfafaf1ab5d0f5bbb42617ba201baf1bf332c4ee0541067734d01f49c623d1fb359d669104c4608f05bf4ae3d73f7e0d24c553fce211c45ca7b7ccc122d7dd45402c3002312711cd78bea8fbb54f403649b8f7dcd76ac804845541eaa6e382105b9fb6d93de57fed020fcfafb31687b5811a00c469dd8d9d3702be8afacc2dca5b98af30870d106ed8931ada7d11a77bae795e114701d38cbaef4996f27ed5f12fed090cb61d5ef996dc018c7592bc91f6bc8dc4ce5244ef34ff856ed20954abb3ba9d38b9fb3da82cca0e1df8c626b05e92bb07da0b0ca5a04f8d2a9432132d70da34cd590326bce4b692557e2ca5b57c31826c967f11878b23e8dfbb7ee5e51ad50309dd3c8f55aaa05d2e63dd19debb5ad2e7b65cebb71ea36b9f50e09635821c2687ffa0f41ba9980d664e916ac97c0046d96ca85d8125d08f885ec2bbcc3b562a50961d7016af28eed5e9ea4889f4bebce3ae100113e91f72e003d91beffc268e6240599e3c08660dd595bde1b98c241fd4c74a78c6c982b2124c924be09d2eadd23442baebacc1ef79fbeb06fb93a6c4aa53cbe57bf8310b984b105d7f87f940aac8897f8a479b1756efb90ee35e408bcd5c26c9954abc2a6c324aa232132eba4ec48f93e0345a74b39e12ef6b0d545d6ea0a788a19553542fba5a473310b68dd8e5b6e161b43740f80d579336ee7244f9a9c75f5c0cb8fcac61571f4f7780556ea3985bbfc45ea2532fa8bc97416d3e90e7125cf18a0944d874a0edb22a51e95a26205c9895a1933708d0801a98fabd93f055dfbb1be6d3ee69177fa1c9cea112197981c47342538a5d3c307990db79459c3b170effa778411770b1da27365dad750304d191db4fd1d268689564fd85055312ab1765634309c816f93ec4882789f17213abeb07f5f9361af09def17a90ff2b686a41096e9304f49a9de465f2db302d566a997c58cad5e1634adbbd0b36ba315f7d36237c748c45c9027afcfe16afe23fb67ef6780a7833cb9fcf581aa27c6e48008838e737eaef48d20c61dabe550fd56a6bd877fbd2cf8c98df0b08e9543ad7dac108d09795b6357b7b9c9776b8bbec04fac0cd7e6df86647a213d06657621424238b59a1fc14234523fbc05ed1000e93d40773ced7df98a9fbc73e20342c0a4085cfee676eee90af3c91b0dfc8c832453dd5925c5b96e60cedaef07c4f33d5e6e7a0754bdb7b711f085601e88a81f8251f3fae18ef27dd6d84a95d42aa8c65185878ec9fb21f32eefc58e47659d73849842bb3fb9cc715150fa7d88bad70ea6407d9ac7ecefa36360649904faeb9ba42337ff3f0bbe70df7242440585a05bfb01e8fa4285eddd0614877da0be301ad39ffeafcc2b479bbc7185de01d884143928bf60df586b40db55b8daab81015ddf94922142af017c1363469964b7f18988d3eb808e9e53e8ad711599130b859b86c1ec40632cd3bed5775d472a169933b4926cab9f32bb8009d6e020d56679683cf3dbfd4cac88115a9e265d44ee76bdd7a309e75d4b1687f55c0a392ab38f8acf114ed83a7c3d6265c934d5e8a312c4168119d07eb80bc3472e45506792ac5227dabfb5f9164e97aa9f96dd75daa616c5ab25f67bd57a043e8fe34a367b55ee5c9bf51da253e70efe98e6689b84a1bedc1281ea88ed3f6676bf39bf5b3fcd12528fc4f258e96f743710287cdc895239d90b1b1ededefd549374c6ffe1f02a20818bed07cc3cd3adec9204a7ce3bfb74e17926a248d17534463a5202b38c31ffd7d48154d2f77dada480edc2ffd5ecd0d920df8e7c135047230db4b20d7d3dc345c95cd381f50f63db486fa8149ac1efd4f09a7475d92dde6f2c738691faef0ead739068965f4bd97238d7e95d41de8739fdff7894c97b85a33f3221b39f2030f7a5d835dcadb98205f2510b1f0ffa4fd95f43512892a4e52900784d89ba30f55b4a03ef486722b3261f7d3f05eba9e07e24cea660b27d444faa557b7875613eed72f72785b7e841750b6eec6cfb7352a7f93bf75869765c3b48efc0dfca13da531837b44154af3a761a8b4b57656457bb7dcac3c11539ec0c992b536443a6a7ff7fb06f09b432dfd7d9c763119901887dfb252600c5b9f11d7c17089fdf6ab6cb8f617bda8b051e126a7632d25f030c162c2d3d4264727b7f9ba5c6f117192430343c5567839fa4aec9cbd4e107080a1539525e616b6e71768e92bcdfe4f3fafd19445153545d6169707295f4f7fd0000000000000000000000000000000f1f334101fd210500a712cf3d5aa36d40248f89a5f38676e258b3d36942f90fdef3d9c2559382528c5fa3be935156bf52f365ff3aa0e5f0cc436346c30d20656c5ba2cb6ab9cf26ae609bd23e324d0f9c31b253a6cb628d7497922a73d3035e8dab25545021165140c73afbc23354eb9715da954390c9af7f9766ec26f8a06ebdcc17ee65618710e3b07fbcaa23fdcf5f8ab18d8fb4fa96d027b647d0b3832f5092910a9ab173869c735d018136d14b3b9035494b25346018737973c7a16c521d727b0fd7d9ced9fd465d1a23243e7732d0abb00712a82e5317cf00c58bf39e90fd725b3e340fda988d68de3654e6457138a1302a88c2dc8e18f1812c8805a4b1dcf6098760e86f36fc324183708642a760881132f3ac92a38227d8c48b6ae1cba34d3e0759e1521fda0922149e49e8084beb905bf4bad9908db20709f9c10ad3ca70fa87120ec0f59540356bc59d4228c1cc74d05487424b812573d990fbd961a2dbb3c19570b15d5b4bdb269594f4505f19500249e1e09cd7a0a8b88b415c9cf80632e2947cb24340302938ab1ec274310daf14c42e284bf64d2ac239936132e1a23e09d9f517bf7cc3f50be805f4b399ea712ca30f0afb38b8ff8ce69cd283c2f99003a4b27c4ea3449428b8b8eda08e9a1299dc8e952ccc27119227b17478cee951f26ebd9454576dde02de6487ffda900b863e2c29c26b75d9c427d2ac0596ada1406c1355981724d263f61174f4a16bb5b8ba0bd498f73945d0212dc63891e0c2a0092e8db58b2cfb947827db2d13b7af72366bf17901d47af84587191771a13b4d6fd3db9abb38602ec86c90bb59469eaa0c93c985008997b1274f3734a664392b4b00c0de9a3f183c22c9442107384eecb1b1ccb445cf1e4e691cbbd7c0412df51f67692496341d01e92e9934725e765d04b49d08d24cf85cb73262757c41c9e2d5d4d465e216cdf8ceeeef51486608a096dca48b59e06e1a05f0fa8740ac872f86081638a23777cbcc898a03960cb11a8ce32b45dc7e2a38eda3e45777f45e17bb95c8fe61fe33701bd87066b94fbd8afbb131ff2340e70a64f3fbd78427ff36eed0bc8e2c37c3541e03a4cfab3b8ed5fee43895f5a1422eec3393a24676f3fae613500b59ad9d1b6b15f3cf0e8068820713a79096df97d1f4f705ab53aac3ef68c65d66cf9961a6d08884cf685e91d09b76e74ed1d446ffd7da8084482d81dd19840a6e50beaf8e91aba6cd4c4d64e5f519e63406054b7149007ef47c19f822335f1b53710d5d42b73007a296f9c2e74be215f3b7c4dcb7a7f9b4e3e0106046de294581b654e126fecd6f071c69f858857b49fe2a34a71e00ee79f867ad817318a39ddc77ea1e4c0d3b824951ba915745f32975ed013debc4ce90f9333f23751530d6dc073e0aac4caeb66a859cce0c38fe495741e8d4ef61c0e10cfb988252ddc953f4c8e1c5fc731ef35c42f7643325505cde9bff1f217eed7d6201467c6764602c9ea457726d1d8ab7a8b02b17116d7ecf654efdf3ec17f2d0ea3c61521de4293a5e8983340d25369804187c1225f921dab205c12aad91bac8dd80ed5fa7d736ed4f91ae7151501dcd5d643efe1f075b2104a04e267d9831057542ed3b326a09609eacefccf333273c41a3f7c73f272ccc668853969053de48aa6deebe475436651b9b4603267af54d0f4717a724118e4606d1230592c82df299da18ee1106b3979e3090e4fc4a3ca0b1d1fd9b468faf4cd447bfdce45c6b0137b76364662139dc2726438e2354480d5fc127058be970116287095b61145f5c73bc684d398c10a2e84535ce71e40b998e2c12b7034c31caccbeabc0d45dd479f9041e00836e915c2526000000",
  "txid": "b29c945c4451bc85b3f819935dc459df3b822eba98bf125ea2e718c46f410a85",
  "hash": "2083cfc4a6f191ff5c9c81cf7f1b0e04f6d0661cf63e469172d43de13fde7ef6",
  "size": 5085,
  "vsize": 2278,
  "version": 1,
  "locktime": 38,
  "vin": [
    {
      "txid": "d831085b35f8b572c7609d1ff8d1d035592c82219ea26ea9fdbd7eca6fbfe0bb",
      "vout": 0,
      "scriptSig": {
        "asm": "",
        "hex": ""
      },
      "txinwitness": [
        "f52ae60ecee96e5171e78e0d42964c54f79af71dc4e00e8299c49074187646f4b00491bb481e1a5372d4b34b39884ecc7ec6fd515545713ab1941f73a47a9402379620bc5e97a4072c40572164a110295806031ea398b4ad5a6e38656f01c590d1af8baf1c4a24cf9c37c120a5afe42278bda3aa312e10c9dadf2c566f761263375b0042d33db79f87204a5cd30599c43396bdceb7fef2b68a61f9ed7b2020bc1cedaf9013b177bc7c5410465d7584a59f1dc011df726bb64c5f2c626851bdc06cf206a86cf68d278af665787233a4f3f7587a78002917433844b9da237baa63e60d70e12528cd4e9f4fe77f1dff6e067108ab7a4e664041798f41896782f18a642414c8d8c8c03679435268d0542453baeb6f85ed1e8471743dc0bed9314686b79c95b8d0e14c545a4cc661c25029dbcf18cc69eb8a8d5bde353d4821dc6925c9521e243fd2ef450f5ccc2f3ecde76f5841b4d4685aa76f0e1ad3ce7b3629befed210ef5016035739553fa6101f33facc6549bb3db0edb97cc82587384e10d443de93959da75f9ff3d58e7e127720ea78a6d413b1eadf4f9c4918182e72f164ba2266976887025302b73a567dd75adc4d0ef9c109a5d26f869cef3d091902cb56dafb5a000543e31abadd0a8d88131574b7cade759e6921b2ea8cbcf69bf7c4242a761cb9141a3e0e23d56d9094cd2aaaea2efd97598b2369b6d90f72e1e634a9e3bee483d5ddf835a0cbc287ae43d959b9720cfb55b1ba832223759e044dd2d2c43121999e1c8bed6aeb2fa5a7367494cd045b1581827328fc2eca38ab055673dc8908d2b8872c9bede6f1cdbd180709a0440026cb9f34aff2c1333d84b2be16c8cae8430591f21352d6e29976666e96451c4ce9302704f71d76420290fa60b1aad04b482488c667cb30fea05b4a47a756b7c1ba756cd957938c9df0e42fb1780f6a7368835db55528d66ca5ef7ed4cd978c885645d5505350c7cbfc189b6716b68660b2202af3fd4331c9722eea70e72cacc2a3e04e31b2bf6f550f26f4550b78dc74b9bf8dde9861dd265d93f181b3bc18352b12f9c3584bd5b422e1cb652afc42628839b8b2ba49e659fb9d966466ca428e296720c2b56ff3e90c8189b0a42339497181e8beaf55fb8bbfafaf1ab5d0f5bbb42617ba201baf1bf332c4ee0541067734d01f49c623d1fb359d669104c4608f05bf4ae3d73f7e0d24c553fce211c45ca7b7ccc122d7dd45402c3002312711cd78bea8fbb54f403649b8f7dcd76ac804845541eaa6e382105b9fb6d93de57fed020fcfafb31687b5811a00c469dd8d9d3702be8afacc2dca5b98af30870d106ed8931ada7d11a77bae795e114701d38cbaef4996f27ed5f12fed090cb61d5ef996dc018c7592bc91f6bc8dc4ce5244ef34ff856ed20954abb3ba9d38b9fb3da82cca0e1df8c626b05e92bb07da0b0ca5a04f8d2a9432132d70da34cd590326bce4b692557e2ca5b57c31826c967f11878b23e8dfbb7ee5e51ad50309dd3c8f55aaa05d2e63dd19debb5ad2e7b65cebb71ea36b9f50e09635821c2687ffa0f41ba9980d664e916ac97c0046d96ca85d8125d08f885ec2bbcc3b562a50961d7016af28eed5e9ea4889f4bebce3ae100113e91f72e003d91beffc268e6240599e3c08660dd595bde1b98c241fd4c74a78c6c982b2124c924be09d2eadd23442baebacc1ef79fbeb06fb93a6c4aa53cbe57bf8310b984b105d7f87f940aac8897f8a479b1756efb90ee35e408bcd5c26c9954abc2a6c324aa232132eba4ec48f93e0345a74b39e12ef6b0d545d6ea0a788a19553542fba5a473310b68dd8e5b6e161b43740f80d579336ee7244f9a9c75f5c0cb8fcac61571f4f7780556ea3985bbfc45ea2532fa8bc97416d3e90e7125cf18a0944d874a0edb22a51e95a26205c9895a1933708d0801a98fabd93f055dfbb1be6d3ee69177fa1c9cea112197981c47342538a5d3c307990db79459c3b170effa778411770b1da27365dad750304d191db4fd1d268689564fd85055312ab1765634309c816f93ec4882789f17213abeb07f5f9361af09def17a90ff2b686a41096e9304f49a9de465f2db302d566a997c58cad5e1634adbbd0b36ba315f7d36237c748c45c9027afcfe16afe23fb67ef6780a7833cb9fcf581aa27c6e48008838e737eaef48d20c61dabe550fd56a6bd877fbd2cf8c98df0b08e9543ad7dac108d09795b6357b7b9c9776b8bbec04fac0cd7e6df86647a213d06657621424238b59a1fc14234523fbc05ed1000e93d40773ced7df98a9fbc73e20342c0a4085cfee676eee90af3c91b0dfc8c832453dd5925c5b96e60cedaef07c4f33d5e6e7a0754bdb7b711f085601e88a81f8251f3fae18ef27dd6d84a95d42aa8c65185878ec9fb21f32eefc58e47659d73849842bb3fb9cc715150fa7d88bad70ea6407d9ac7ecefa36360649904faeb9ba42337ff3f0bbe70df7242440585a05bfb01e8fa4285eddd0614877da0be301ad39ffeafcc2b479bbc7185de01d884143928bf60df586b40db55b8daab81015ddf94922142af017c1363469964b7f18988d3eb808e9e53e8ad711599130b859b86c1ec40632cd3bed5775d472a169933b4926cab9f32bb8009d6e020d56679683cf3dbfd4cac88115a9e265d44ee76bdd7a309e75d4b1687f55c0a392ab38f8acf114ed83a7c3d6265c934d5e8a312c4168119d07eb80bc3472e45506792ac5227dabfb5f9164e97aa9f96dd75daa616c5ab25f67bd57a043e8fe34a367b55ee5c9bf51da253e70efe98e6689b84a1bedc1281ea88ed3f6676bf39bf5b3fcd12528fc4f258e96f743710287cdc895239d90b1b1ededefd549374c6ffe1f02a20818bed07cc3cd3adec9204a7ce3bfb74e17926a248d17534463a5202b38c31ffd7d48154d2f77dada480edc2ffd5ecd0d920df8e7c135047230db4b20d7d3dc345c95cd381f50f63db486fa8149ac1efd4f09a7475d92dde6f2c738691faef0ead739068965f4bd97238d7e95d41de8739fdff7894c97b85a33f3221b39f2030f7a5d835dcadb98205f2510b1f0ffa4fd95f43512892a4e52900784d89ba30f55b4a03ef486722b3261f7d3f05eba9e07e24cea660b27d444faa557b7875613eed72f72785b7e841750b6eec6cfb7352a7f93bf75869765c3b48efc0dfca13da531837b44154af3a761a8b4b57656457bb7dcac3c11539ec0c992b536443a6a7ff7fb06f09b432dfd7d9c763119901887dfb252600c5b9f11d7c17089fdf6ab6cb8f617bda8b051e126a7632d25f030c162c2d3d4264727b7f9ba5c6f117192430343c5567839fa4aec9cbd4e107080a1539525e616b6e71768e92bcdfe4f3fafd19445153545d6169707295f4f7fd0000000000000000000000000000000f1f334101",
        "00a712cf3d5aa36d40248f89a5f38676e258b3d36942f90fdef3d9c2559382528c5fa3be935156bf52f365ff3aa0e5f0cc436346c30d20656c5ba2cb6ab9cf26ae609bd23e324d0f9c31b253a6cb628d7497922a73d3035e8dab25545021165140c73afbc23354eb9715da954390c9af7f9766ec26f8a06ebdcc17ee65618710e3b07fbcaa23fdcf5f8ab18d8fb4fa96d027b647d0b3832f5092910a9ab173869c735d018136d14b3b9035494b25346018737973c7a16c521d727b0fd7d9ced9fd465d1a23243e7732d0abb00712a82e5317cf00c58bf39e90fd725b3e340fda988d68de3654e6457138a1302a88c2dc8e18f1812c8805a4b1dcf6098760e86f36fc324183708642a760881132f3ac92a38227d8c48b6ae1cba34d3e0759e1521fda0922149e49e8084beb905bf4bad9908db20709f9c10ad3ca70fa87120ec0f59540356bc59d4228c1cc74d05487424b812573d990fbd961a2dbb3c19570b15d5b4bdb269594f4505f19500249e1e09cd7a0a8b88b415c9cf80632e2947cb24340302938ab1ec274310daf14c42e284bf64d2ac239936132e1a23e09d9f517bf7cc3f50be805f4b399ea712ca30f0afb38b8ff8ce69cd283c2f99003a4b27c4ea3449428b8b8eda08e9a1299dc8e952ccc27119227b17478cee951f26ebd9454576dde02de6487ffda900b863e2c29c26b75d9c427d2ac0596ada1406c1355981724d263f61174f4a16bb5b8ba0bd498f73945d0212dc63891e0c2a0092e8db58b2cfb947827db2d13b7af72366bf17901d47af84587191771a13b4d6fd3db9abb38602ec86c90bb59469eaa0c93c985008997b1274f3734a664392b4b00c0de9a3f183c22c9442107384eecb1b1ccb445cf1e4e691cbbd7c0412df51f67692496341d01e92e9934725e765d04b49d08d24cf85cb73262757c41c9e2d5d4d465e216cdf8ceeeef51486608a096dca48b59e06e1a05f0fa8740ac872f86081638a23777cbcc898a03960cb11a8ce32b45dc7e2a38eda3e45777f45e17bb95c8fe61fe33701bd87066b94fbd8afbb131ff2340e70a64f3fbd78427ff36eed0bc8e2c37c3541e03a4cfab3b8ed5fee43895f5a1422eec3393a24676f3fae613500b59ad9d1b6b15f3cf0e8068820713a79096df97d1f4f705ab53aac3ef68c65d66cf9961a6d08884cf685e91d09b76e74ed1d446ffd7da8084482d81dd19840a6e50beaf8e91aba6cd4c4d64e5f519e63406054b7149007ef47c19f822335f1b53710d5d42b73007a296f9c2e74be215f3b7c4dcb7a7f9b4e3e0106046de294581b654e126fecd6f071c69f858857b49fe2a34a71e00ee79f867ad817318a39ddc77ea1e4c0d3b824951ba915745f32975ed013debc4ce90f9333f23751530d6dc073e0aac4caeb66a859cce0c38fe495741e8d4ef61c0e10cfb988252ddc953f4c8e1c5fc731ef35c42f7643325505cde9bff1f217eed7d6201467c6764602c9ea457726d1d8ab7a8b02b17116d7ecf654efdf3ec17f2d0ea3c61521de4293a5e8983340d25369804187c1225f921dab205c12aad91bac8dd80ed5fa7d736ed4f91ae7151501dcd5d643efe1f075b2104a04e267d9831057542ed3b326a09609eacefccf333273c41a3f7c73f272ccc668853969053de48aa6deebe475436651b9b4603267af54d0f4717a724118e4606d1230592c82df299da18ee1106b3979e3090e4fc4a3ca0b1d1fd9b468faf4cd447bfdce45c6b0137b76364662139dc2726438e2354480d5fc127058be970116287095b61145f5c73bc684d398c10a2e84535ce71e40b998e2c12b7034c31caccbeabc0d45dd479f9041e00836e915c25"
      ],
      "sequence": 4294967294
    }
  ],
  "vout": [
    {
      "value": 1.0,
      "n": 0,
      "scriptPubKey": {
        "asm": "OP_RETURN be2559dbdcc8baf4787849216a9ed78969a757c608c4286cfa01d258f28b7254 853d34a9fb614ac1fe26b74fe92910dbbf5359a7d6c0e656e55d263794476e53a51d1489db416ae1de06976fc90930fb9f737987f6e0c676c57d0617b4674e73c57d74e9bb210a81be66f70fa969509bff1319e79680a616a51d6677d4072e13e55d54c99b012aa19e46d72f894970bbdf3339c7b6a08636853d4657f4270e3305bdb4297be1ca417ea637cf69a9905b3fd3d927564066d665dda6b714c7eed3259d94095bc1ea615e8617ef4989b07b1ff3f907766046f645fd869734e7cef345fdf4693ba18a013ee6778f29e9d01b7f93996716002696259de6f75487ae9365ddd4491b81aa211ec657af09c9f03b5fb3b947362006b605bdc6d774a78eb3853d34a9fb614ac1fe26b74fe92910dbbf5359a7d6c0e656e55d263794476e53a51d1489db416ae1de06976fc90930fb9f737987f6e0c676c57d0617b4674e73c57d74e9bb210a81be66f70fa969509bff1319e79680a616a51d6677d4072e13e55d54c99b012aa19e46d72f894970bbdf3339c7b6a08636853d4657f4270e3305bdb4297be1ca417ea637cf69a9905b3fd3d927564066d665dda6b714c7eed3259d94095bc1ea615e8617ef4989b07b1ff3f907766046f645fd869734e7cef345fdf4693ba18a013ee6778f29e9d01b7f93996716002696259de6f75487ae9365ddd4491b81aa211ec657af09c9f03b5fb3b947362006b605bdc6d774a78eb3853d34a9fb614ac1fe26b74fe92910dbbf5359a7d6c0e656e55d263794476e53a51d1489db416ae1de06976fc90930fb9f737987f6e0c676c57d0617b4674e73c57d74e9bb210a81be66f70fa969509bff1319e79680a616a51d6677d4072e13e55d54c99b012aa19e46d72f894970bbdf3339c7b6a08636853d4657f4270e3305bdb4297be1ca417ea637cf69a9905b3fd3d927564066d665dda6b714c7eed3259d94095bc1ea615e8617ef4989b07b1ff3f907766046f645fd869734e7cef345fdf4693ba18a013ee6778f29e9d01b7f93996716002696259de6f75487ae9365ddd4491b81aa211ec657af09c9f03b5fb3b947362006b605bdc6d774a78eb3853d34a9fb614ac1fe26b74fe92910dbbf5359a7d6c0e656e55d263794476e53a51d1489db416ae1de06976fc90930fb9f737987f6e0c676c57d0617b4674e73c57d74e9bb210a81be66f70fa969509bff1319e79680a616a51d6677d4072e13e55d54c99b012aa19e46d72f894970bbdf3339c7b6a08636853d4657f4270e3305bdb4297be1ca417ea637cf69a9905b3fd3d927564066d665dda6b714c7eed3259d94095bc1ea615e8617ef4989b07b1ff3f907766046f645fd869734e7cef345fdf4693ba18a013ee6778f29e9d01b7f93996716002696259de6f75487ae9365ddd4491b81aa211ec657af09c9f03b5fb3b947362006b605bdc6d774a78eb3853d34a9fb614ac1fe26b74fe92910dbbf5359a7d6c0e656e55d263794476e53a51d1489db416ae1de06976fc90930fb9f737987f6e0c676c57d0617b4674e73c57d74e9bb210a81be66f70fa969509bff1319e79680a616a51d6677d4072e13e55d54c99b012aa19e46d72f894970bbdf3339c7b6a08636853d4657f4270e3305bdb4297be1ca417ea637cf69a9905bfbd88f137a2a69a3146fa445103a2c3a405ccad5bf4795ef758f3d60b0356f34",
        "hex": "6a20be2559dbdcc8baf4787849216a9ed78969a757c608c4286cfa01d258f28b72544db004853d34a9fb614ac1fe26b74fe92910dbbf5359a7d6c0e656e55d263794476e53a51d1489db416ae1de06976fc90930fb9f737987f6e0c676c57d0617b4674e73c57d74e9bb210a81be66f70fa969509bff1319e79680a616a51d6677d4072e13e55d54c99b012aa19e46d72f894970bbdf3339c7b6a08636853d4657f4270e3305bdb4297be1ca417ea637cf69a9905b3fd3d927564066d665dda6b714c7eed3259d94095bc1ea615e8617ef4989b07b1ff3f907766046f645fd869734e7cef345fdf4693ba18a013ee6778f29e9d01b7f93996716002696259de6f75487ae9365ddd4491b81aa211ec657af09c9f03b5fb3b947362006b605bdc6d774a78eb3853d34a9fb614ac1fe26b74fe92910dbbf5359a7d6c0e656e55d263794476e53a51d1489db416ae1de06976fc90930fb9f737987f6e0c676c57d0617b4674e73c57d74e9bb210a81be66f70fa969509bff1319e79680a616a51d6677d4072e13e55d54c99b012aa19e46d72f894970bbdf3339c7b6a08636853d4657f4270e3305bdb4297be1ca417ea637cf69a9905b3fd3d927564066d665dda6b714c7eed3259d94095bc1ea615e8617ef4989b07b1ff3f907766046f645fd869734e7cef345fdf4693ba18a013ee6778f29e9d01b7f93996716002696259de6f75487ae9365ddd4491b81aa211ec657af09c9f03b5fb3b947362006b605bdc6d774a78eb3853d34a9fb614ac1fe26b74fe92910dbbf5359a7d6c0e656e55d263794476e53a51d1489db416ae1de06976fc90930fb9f737987f6e0c676c57d0617b4674e73c57d74e9bb210a81be66f70fa969509bff1319e79680a616a51d6677d4072e13e55d54c99b012aa19e46d72f894970bbdf3339c7b6a08636853d4657f4270e3305bdb4297be1ca417ea637cf69a9905b3fd3d927564066d665dda6b714c7eed3259d94095bc1ea615e8617ef4989b07b1ff3f907766046f645fd869734e7cef345fdf4693ba18a013ee6778f29e9d01b7f93996716002696259de6f75487ae9365ddd4491b81aa211ec657af09c9f03b5fb3b947362006b605bdc6d774a78eb3853d34a9fb614ac1fe26b74fe92910dbbf5359a7d6c0e656e55d263794476e53a51d1489db416ae1de06976fc90930fb9f737987f6e0c676c57d0617b4674e73c57d74e9bb210a81be66f70fa969509bff1319e79680a616a51d6677d4072e13e55d54c99b012aa19e46d72f894970bbdf3339c7b6a08636853d4657f4270e3305bdb4297be1ca417ea637cf69a9905b3fd3d927564066d665dda6b714c7eed3259d94095bc1ea615e8617ef4989b07b1ff3f907766046f645fd869734e7cef345fdf4693ba18a013ee6778f29e9d01b7f93996716002696259de6f75487ae9365ddd4491b81aa211ec657af09c9f03b5fb3b947362006b605bdc6d774a78eb3853d34a9fb614ac1fe26b74fe92910dbbf5359a7d6c0e656e55d263794476e53a51d1489db416ae1de06976fc90930fb9f737987f6e0c676c57d0617b4674e73c57d74e9bb210a81be66f70fa969509bff1319e79680a616a51d6677d4072e13e55d54c99b012aa19e46d72f894970bbdf3339c7b6a08636853d4657f4270e3305bdb4297be1ca417ea637cf69a9905bfbd88f137a2a69a3146fa445103a2c3a405ccad5bf4795ef758f3d60b0356f34",
        "type": "nulldata"
      }
    },
    {
      "value": 499968.4761,
      "n": 1,
      "scriptPubKey": {
        "asm": "1 f1298974846b4341ec8f0ad69e5959f6ac2f7f09595ff144954ea2a850f3083f",
        "hex": "5120f1298974846b4341ec8f0ad69e5959f6ac2f7f09595ff144954ea2a850f3083f",
        "reqSigs": 1,
        "type": "witness_v1_scripthash",
        "addresses": [
          "3QJmnh"
        ]
      }
    }
  ],
  "blockhash": "e950f66e7d48487e03ac7a1b4e7864aa28758accf0e3d98358cdf64a352531e0",
  "confirmations": 1,
  "time": 1764181937,
  "blocktime": 1764181937
}