{
  "hex": "01000000000101e2b85f861aed45c8aef8a17c9140293dadddc30bf1ff17778ea2998ccdf2a35c0100000000feffffff02202367d2782d0000225120442d067f4a4ad5ef4036a664646eeec3b90c4ce19a2ae0561ef1aea5fe0fb18d00e1f50500000000fdd5046a209d5fb0e263a340b1dab39050e9d5f645973dc0d28703795636e3518632783c9c4db004ff3acf47c4da9af105a872c0ecaa2dee6bbf7051e2466b0863495248ea9c03fcdf1aef67e4fabad1258852e0cc8a0dce4b9f5071c2664b2843697268cabc23dcbf7a8f07849adab145e83280acea6dae2bff3011a2062b4823091208aadc43bc9f5aaf27a4bafa9165c812a08cca4d8e0bdf103182260b68032932288afc639c7fba4fc7445a1a718528f2406c2aad6eeb3ff0d162c6eb88e3c9d2c86a1c837c5f9a6fe7647a3a51a508d2604c0a8d4ecb1fd0f142e6cba8c3e9f2e84a3ca35c3ffa0f87041a5a31c568b2002c6aed2eab7fb0912286abc8a38992882a5cc33c1fda2fa7243a7a11e54892200c4acd0e8b5f90b102a68be883a9b2a80a7ce31cff3acf47c4da9af105a872c0ecaa2dee6bbf7051e2466b0863495248ea9c03fcdf1aef67e4fabad1258852e0cc8a0dce4b9f5071c2664b2843697268cabc23dcbf7a8f07849adab145e83280acea6dae2bff3011a2062b4823091208aadc43bc9f5aaf27a4bafa9165c812a08cca4d8e0bdf103182260b68032932288afc639c7fba4fc7445a1a718528f2406c2aad6eeb3ff0d162c6eb88e3c9d2c86a1c837c5f9a6fe7647a3a51a508d2604c0a8d4ecb1fd0f142e6cba8c3e9f2e84a3ca35c3ffa0f87041a5a31c568b2002c6aed2eab7fb0912286abc8a38992882a5cc33c1fda2fa7243a7a11e54892200c4acd0e8b5f90b102a68be883a9b2a80a7ce31cff3acf47c4da9af105a872c0ecaa2dee6bbf7051e2466b0863495248ea9c03fcdf1aef67e4fabad1258852e0cc8a0dce4b9f5071c2664b2843697268cabc23dcbf7a8f07849adab145e83280acea6dae2bff3011a2062b4823091208aadc43bc9f5aaf27a4bafa9165c812a08cca4d8e0bdf103182260b68032932288afc639c7fba4fc7445a1a718528f2406c2aad6eeb3ff0d162c6eb88e3c9d2c86a1c837c5f9a6fe7647a3a51a508d2604c0a8d4ecb1fd0f142e6cba8c3e9f2e84a3ca35c3ffa0f87041a5a31c568b2002c6aed2eab7fb0912286abc8a38992882a5cc33c1fda2fa7243a7a11e54892200c4acd0e8b5f90b102a68be883a9b2a80a7ce31cff3acf47c4da9af105a872c0ecaa2dee6bbf7051e2466b0863495248ea9c03fcdf1aef67e4fabad1258852e0cc8a0dce4b9f5071c2664b2843697268cabc23dcbf7a8f07849adab145e83280acea6dae2bff3011a2062b4823091208aadc43bc9f5aaf27a4bafa9165c812a08cca4d8e0bdf103182260b68032932288afc639c7fba4fc7445a1a718528f2406c2aad6eeb3ff0d162c6eb88e3c9d2c86a1c837c5f9a6fe7647a3a51a508d2604c0a8d4ecb1fd0f142e6cba8c3e9f2e84a3ca35c3ffa0f87041a5a31c568b2002c6aed2eab7fb0912286abc8a38992882a5cc33c1fda2fa7243a7a11e54892200c4acd0e8b5f90b102a68be883a9b2a80a7ce31cff3acf47c4da9af105a872c0ecaa2dee6bbf7051e2466b0863495248ea9c03fcdf1aef67e4fabad1258852e0cc8a0dce4b9f5071c2664b2843697268cabc23dcbf7a8f07849adab145e83280acea6dae2bff3011a2062b4823091208aadc43bc9f5aaf27a4bafa9165c812a08cca4d8e0bdf103182260b68032932288afc639c7fba4fc7445a1a718528f2406c2aad6e50dcf20ae94786c05abfbee707f821c294ca1386a443f53464e125497f8b4c2502fd75098cfc83ad5833923cce58bc7290da7fc9420f54ddcf88296ca3a400c3dd28c193fb5124fecdbcd945097d72a521ac5a05435f9631706926f608b5fecd0abbec593c00a80dcc88fb60f2ecbaf547fcc80adb7de3ce31280f0b68cf4b9d90e566889c5d728e62eee1c1c52cd53c3c3ae73196875110d93d31a4264c0a959b5925e35e723b1e4737b1327e31a051a74171c5250417c0d988043c0f4cf4f2a5f175e5a015f6d4edd4c20b3d7b3be485690c2df57e735d567945516cfd72261375093a5745fba7635427dcfdb35f78d5b75ab6a5dae61d2b13f154cd49cdb96d8e057aca02192a31bd46849f0f9520bee7d29095d456b1e5ffca0a7f756c8a5cba6eaf44748f08e4290720737862e0a887858adbf1abeef130408f01220da3f8827f09e061261b4242dcb1761f61574dbbbed7fb198a6d237b05e0cbc9382ed3f24d6e02eb663b537c1b7e57b3b063950299203e603c49b283b35d78f9a7161bc24d5e333f2991dfaab2593d4c01e75c082f1713bf68c068b508d544133d3b89de0ad9d14d50932b1cd3652c76fa3b08bf481e2198627924f24c174009644c1cddfb0bc78f2ea888722c5dca5b15e2db5719b513632ddaa50659b8b5c7126fc26df4f2b42253a3eca82ce825ab0f85d27bdb883e3bee07678dd5e417df5cffa4894ad31ac79572c53a45b149b6a05929d6d87c014640e4dd892fcc1a5c87d96c39db65a33c78629fe29c21659600ff5e5eaa812625f1dd08100e04a3a0e77f90e7e146a4b3c91fcf61bc17e171b653fda117d36f130bbcfb7410c549a6eb74d95e76a876a846bfefbfd4febe2a806aa21c8ebd2bce52a17a56cb874b9fbcd42ed700bd2e8bb1fe31e77a801dc0cb21bacb4e4736fd61207cd091c948d33970110c8427571e2987996481f5a235ac9ecd763cc15c61a67798c90b21cae20d1ad283eea631bb081aefed2cd3b12ae0c1856bc6cdd8211e1ea9768b971bb028599be3be4ab5a5649182ced8eb3e3fe21c893fdaff819bc0f5a8f46dad62133468256c11f2d00575f5c3dcfa476c4142ab6eed20c3841709fb18ac15bf9c946a1a80517e7a47d384d932de7bb029017b4181942ab9427d3ab2837475556069303cc445dcbe00f1e7a64cc55f937f00b8b48dd00f27b3bc686c3b182ef387ab80e584e128d9ecb10960a4472d82007138b8b722bcfc84841687d2c95d5b19ee5d6e56b434551d6f3bc23c44cd5461e758464b056220156a4b1183eada00a22a49accf648221979ea37219dae5ce2779ea719f3a19631871c8f75dc4e44b7bea4d1340f5be2a0cee532d3b1727af3fa895f5fc1959837e3bd6168f5f6719c8542e5f7c305ebf298303590091d5b5e54c4ee826888af7df61c1cca7a5c5ccc5b5574a63ace82da15e4657d7a0853d694345c3b2e4c879ced38957058dc6cc98611ea0fa858c6bac6356566498207d07a00145494b3c41692656c84f1f0f9c06ef94f81942f31f7c3572e90a4ebd86fdab9d04b2be37dad0f5e24277bcbac846de803b0ae74ce95bb43c4c075e7ce6a275ae76abee808eb4cae3903073c47b8197f15b98cea4b6feddbedebb13a40e3cfd70573776e5248b80ec5d006d2978549a17cb31705a7e66753d4e9060277cc68c9f7d6440314d936586004a8b5ce1cd134f94e53a21960433d7360313d0f5a24ab2251c14ebc7f3bce5318b921a28234d0fdecbf129ed83eff53aaca154441daa6e97c0737f2fa4a6658a0f51bd58e3515b5c6ba2dfa03396f2820f36b56b5942e3682126059ee27553ce25c9a01f77bf969572d99300308904e23c964ea7aa7767381434e4e55655e4b158ce4440cbe1e329c8b227c95ee2848def1c06c193009a196148db08010536c03109837233c473fe3334f29e7de1dd0aadf581eee1ccbf304de445a7f0a05142959458a9d78770d2b3e8e4eda321d3d735841ce0a833805b9b4b31f84b018a5ef31f69d6957132d3520ce86939c04c9ddfb3ed1da4071d538f97f13717bd282bf9a60ee5fdaf89117fd8f61241b95c361bf26a57be6d31c0e8ac5c46156c205141a3e3abe2c691b1a370e9864df8b58538d0911657ba2e18bc36392b027b13325ea357186f88cc951456284379c06a7eaa677d0d4e3e3fbfbf577ce5567f40e4652bfeb1667d51ee0019fa2c2c07b12b3fac94aafe7d3c4795c33e21e82880d04bb8c291e461f0c90c2191de75af42f4e294dff0b27fcaa643dd476c41b82d825782650019947781d88b8da0254b784e2acae0b10d9ba732fd4e7f3c1d627bc05548f02c280fea3f38cba09d37c6bd09f5ad5b56336f81ec221eb5c7627a48b38c80ff8f30017315c4995913185fa2b8df7fd2413d65133c4aac5d754d6113e0012761a5e1b591a6b0b2d540e9355a5b1ed083ac4c1a57861a8f24f4fd66818a98eff88b89c317fea4054e4bd79be7325329de5aadec455e4a28ef0d69b6d3fbe94adfb8cfb40ffab3e61012d0566841f5a0336d448360e7481f61842e2b426c28be216000c6fa4bb806763fe64a1cf0819c1c10ffa32f483313752e7fb23105039b86fe6591d4c734aaca29baea2ded3ac959ac7ebeee6059edaa5102e7603ab21c76d27bb2aca395db3040349a0e04ae7f7e76a8423549f92199034d3c09d5f8014dafe517a6965d61c8e444b05a9d005201658e2e49c91d01104b58dba798737d31e6c717f7a9d321e3c31f815f5ec99986374d78c1bba08ad346c40aa0ea5f1c39937d2c514a6003349c31fce378366832c7904432b9916928f714cbacfb364b9c0779f8d193b840e06dc23edd8674dfb404177dd95d9db368c2d655e25728cdc966597ebd84733845070fc740a85e62c22376a08606921756c5821fbad73b54db981ad340b2982a0689df492cf9c4ddcea05d8a69f49ef3ae322be3f4d69611136cdda8a35121f6d39f21c7f41e7753e014892ebcd9def218e322570db06a112586a135f7b0c589e214c08f78eb8b97b725deade09d48e42f0918cff2efc740e493c60e2adaa5ecbf53ae9c0d38c7cd9c82742d9a2f9ba0f9137e18bcd5994af2b8e45c3d43184a5b598269bb45aeef4facec11a8c2aedf0c0e9f44d891c01bb0d4be431cd526a624533829685d2a4f68b224e7e1226de5b4bb1dc778292299f8083bb33d0949b8bdb28636c585b083fced95562c756693071545b0cd6b522902f89fe1be5c3e0bf631e5a4ce0f6a98d7a1e4e970705f4b97239c9e7cf24cfddbe4418e2c228677dd5e305da58682e54acbb5b67dce6cfdba857b256eb0780e45a8c8389e6c9363bf7e272e424f79818896a7b50f122433475e697e818b8ec4d9f8040a14244b55666777859bafc3cbec192325272c3e474f61676c7a81a9acc6cbd1d9dae4ed000000000000000000000000000000000000000a18273d01fd210500bbd2abbc5ee5c4c747ba4c2af8c084da9a74b46478ff59104fb5bbba9ca0460ef7f9ac80df6b61ccbfd273baddf3360b591a0eed55e851255c6716319cad9bc3d5d36dc794513c5177dd053b26d055ea431954cae427bee64c0ed210b0be7c362e95ddcb5d56ecbe5ad26071e3039e958ccb7341bea6231046b2ae82899ff08e2eae7ce22eb259b89a676cf23297d7d58361aaa08f28dc6eface3e59ff40d69e14f051563e2f386ff2151b9f0d61e6f9f784b3db2760329fa06004e3b5b4ff092e2cf87f1c4651a79bbc438041e346f8ba25258687f6a494d3d00620633f9ed301a6db76341f1e1bd4a56d72d8f498486bb9802ff778cb8c70013d8a817e3c195f0353aa47f24dab5794e2c2dc13447004940fb7d4554f46ba7b96b3f7a45c2a1d052fb601e545670e2d0c5d09489841fbdf7c2791cbeec3cb82133510ae6b46ef89393852fb004edf883a195637344c99c5eccf3a983a2117fdade4e2f18bca46d48059a0bc56a5e4553402cc54897530fa49af53f77513851ed24c5362f76a5b12d440ab777f9a4554489efcc1a14cd354117a43280382b173d52685a10495ec56403ec17150f696508b8252b1b79576ef84db4da43adee91cb46b994e2562b2f61d394e72825f1056b8b19c8cce562c788552b8b994c8c0a8e48064d07fb3793869a406ff4a3882a02a8f419e3f48525cd7f3df443d3f984bc355e6169c59e64bb5ac8198bc981375c2c8c90c80274eb08fc121fc88a748055400bea49e8381cec61c7c1ea7df5db0457fdc745e1f824eaa37ddcd5851f1fc27831f03a12dd512ee6f47d34e61b2cdc8fe3641f80b9ff0e03755e88a96eabdaf6eb7f04fb4db2e85eb876b4fa2f5727d098f1e004cce272e1f4c8e9049b1e3607b412d18135a4bb40507719098395e5e2d3ecf13c08345eda7c902caa57d7cc3d9bb705c0469f81c28305afef0993f4c94cc18a86b900e1c475fbd0329c993ef78930cb0ff978eabe86ed6a43a6eab648a089b2b0bda5e40f1aacc6459e1761c3be604fa8072b7c19372185e08f779c448d23ad6ee2380abdf27f50265fb71b17c02d9bc2d4cb45249be795d5d8eaf71ab6fecd27cdac254148bc0dae5c5c5e94632ee8df24f2f7999d6b063744e242804b19f02e6615147bec6c1122d9134d67addfb1b59d249170d22ea0e8ab5995d60a1f4f58ccfc7852dbbe7d12923eaf003c4a5eb09d98137045476755d42abd9b895f770a4a2b35b3fe19b449898bbd7b7a6a63e89a6a700a71f9aae89fead86393e9f6c390c72593fee4200b0d88bfe3739a0f798fd7704d7a2726bb0723323a6861e6b27c09187eb09a83f6f223130d4f013cb83dca019e25a1a52c0ecfa1e461871952cb2de30942241460ce8de2f76a2ca83531b249174e0fd82d7f702b4394b29b807e46ac090ceabecdfb6830de78f65d4b25449f6218de305b1976f0eaee8d943bbe1919689e927cd8fb787906be0e7969a577558b5a139a3f02d8ab45d52197daaac6d72949639b95ffc3561cec98e54afb22fbc8cfadbb5ff6ab5d9776c6052ad2618786e2395a719f0891188599c238d8b64aa4a641d3f8aecc8778aa296d7a430a10b2a31836f0b1b673d7464dff8510d31917a1bdc76290a16e35ecfe71306bea6accce02ef74fa7e6fd09329ab4506b33a039f9d56b3a45299615c2d8f5fbc89d37be634a5d6ead6afde44e064af6fc621e38976b396aa3ab73c2b5e4e5c12a06493ea0b76f922983bf96a87be1e6ef5778aa7a36c988044daf30e67c7e8b5bb9262b1e320d3985cbffe7187986b401114dc7d989d45320548c531e44338f0de69506cc9eedf868b3f7bd6f11ef3a80000000",
  "txid": "b448c64c4fc3d096d07583f5bd951693a3de5dd0bb633943006e55057e98f026",
  "hash": "714ae661235786de8a0806810a04856fde5e6db0847c4a8daf098837bb0d1cf3",
  "size": 5085,
  "vsize": 2278,
  "version": 1,
  "locktime": 128,
  "vin": [
    {
      "txid": "5ca3f2cd8c99a28e7717fff10bc3ddad3d2940917ca1f8aec845ed1a865fb8e2",
      "vout": 1,
      "scriptSig": {
        "asm": "",
        "hex": ""
      },
      "txinwitness": [
        "8cfc83ad5833923cce58bc7290da7fc9420f54ddcf88296ca3a400c3dd28c193fb5124fecdbcd945097d72a521ac5a05435f9631706926f608b5fecd0abbec593c00a80dcc88fb60f2ecbaf547fcc80adb7de3ce31280f0b68cf4b9d90e566889c5d728e62eee1c1c52cd53c3c3ae73196875110d93d31a4264c0a959b5925e35e723b1e4737b1327e31a051a74171c5250417c0d988043c0f4cf4f2a5f175e5a015f6d4edd4c20b3d7b3be485690c2df57e735d567945516cfd72261375093a5745fba7635427dcfdb35f78d5b75ab6a5dae61d2b13f154cd49cdb96d8e057aca02192a31bd46849f0f9520bee7d29095d456b1e5ffca0a7f756c8a5cba6eaf44748f08e4290720737862e0a887858adbf1abeef130408f01220da3f8827f09e061261b4242dcb1761f61574dbbbed7fb198a6d237b05e0cbc9382ed3f24d6e02eb663b537c1b7e57b3b063950299203e603c49b283b35d78f9a7161bc24d5e333f2991dfaab2593d4c01e75c082f1713bf68c068b508d544133d3b89de0ad9d14d50932b1cd3652c76fa3b08bf481e2198627924f24c174009644c1cddfb0bc78f2ea888722c5dca5b15e2db5719b513632ddaa50659b8b5c7126fc26df4f2b42253a3eca82ce825ab0f85d27bdb883e3bee07678dd5e417df5cffa4894ad31ac79572c53a45b149b6a05929d6d87c014640e4dd892fcc1a5c87d96c39db65a33c78629fe29c21659600ff5e5eaa812625f1dd08100e04a3a0e77f90e7e146a4b3c91fcf61bc17e171b653fda117d36f130bbcfb7410c549a6eb74d95e76a876a846bfefbfd4febe2a806aa21c8ebd2bce52a17a56cb874b9fbcd42ed700bd2e8bb1fe31e77a801dc0cb21bacb4e4736fd61207cd091c948d33970110c8427571e2987996481f5a235ac9ecd763cc15c61a67798c90b21cae20d1ad283eea631bb081aefed2cd3b12ae0c1856bc6cdd8211e1ea9768b971bb028599be3be4ab5a5649182ced8eb3e3fe21c893fdaff819bc0f5a8f46dad62133468256c11f2d00575f5c3dcfa476c4142ab6eed20c3841709fb18ac15bf9c946a1a80517e7a47d384d932de7bb029017b4181942ab9427d3ab2837475556069303cc445dcbe00f1e7a64cc55f937f00b8b48dd00f27b3bc686c3b182ef387ab80e584e128d9ecb10960a4472d82007138b8b722bcfc84841687d2c95d5b19ee5d6e56b434551d6f3bc23c44cd5461e758464b056220156a4b1183eada00a22a49accf648221979ea37219dae5ce2779ea719f3a19631871c8f75dc4e44b7bea4d1340f5be2a0cee532d3b1727af3fa895f5fc1959837e3bd6168f5f6719c8542e5f7c305ebf298303590091d5b5e54c4ee826888af7df61c1cca7a5c5ccc5b5574a63ace82da15e4657d7a0853d694345c3b2e4c879ced38957058dc6cc98611ea0fa858c6bac6356566498207d07a00145494b3c41692656c84f1f0f9c06ef94f81942f31f7c3572e90a4ebd86fdab9d04b2be37dad0f5e24277bcbac846de803b0ae74ce95bb43c4c075e7ce6a275ae76abee808eb4cae3903073c47b8197f15b98cea4b6feddbedebb13a40e3cfd70573776e5248b80ec5d006d2978549a17cb31705a7e66753d4e9060277cc68c9f7d6440314d936586004a8b5ce1cd134f94e53a21960433d7360313d0f5a24ab2251c14ebc7f3bce5318b921a28234d0fdecbf129ed83eff53aaca154441daa6e97c0737f2fa4a6658a0f51bd58e3515b5c6ba2dfa03396f2820f36b56b5942e3682126059ee27553ce25c9a01f77bf969572d99300308904e23c964ea7aa7767381434e4e55655e4b158ce4440cbe1e329c8b227c95ee2848def1c06c193009a196148db08010536c03109837233c473fe3334f29e7de1dd0aadf581eee1ccbf304de445a7f0a05142959458a9d78770d2b3e8e4eda321d3d735841ce0a833805b9b4b31f84b018a5ef31f69d6957132d3520ce86939c04c9ddfb3ed1da4071d538f97f13717bd282bf9a60ee5fdaf89117fd8f61241b95c361bf26a57be6d31c0e8ac5c46156c205141a3e3abe2c691b1a370e9864df8b58538d0911657ba2e18bc36392b027b13325ea357186f88cc951456284379c06a7eaa677d0d4e3e3fbfbf577ce5567f40e4652bfeb1667d51ee0019fa2c2c07b12b3fac94aafe7d3c4795c33e21e82880d04bb8c291e461f0c90c2191de75af42f4e294dff0b27fcaa643dd476c41b82d825782650019947781d88b8da0254b784e2acae0b10d9ba732fd4e7f3c1d627bc05548f02c280fea3f38cba09d37c6bd09f5ad5b56336f81ec221eb5c7627a48b38c80ff8f30017315c4995913185fa2b8df7fd2413d65133c4aac5d754d6113e0012761a5e1b591a6b0b2d540e9355a5b1ed083ac4c1a57861a8f24f4fd66818a98eff88b89c317fea4054e4bd79be7325329de5aadec455e4a28ef0d69b6d3fbe94adfb8cfb40ffab3e61012d0566841f5a0336d448360e7481f61842e2b426c28be216000c6fa4bb806763fe64a1cf0819c1c10ffa32f483313752e7fb23105039b86fe6591d4c734aaca29baea2ded3ac959ac7ebeee6059edaa5102e7603ab21c76d27bb2aca395db3040349a0e04ae7f7e76a8423549f92199034d3c09d5f8014dafe517a6965d61c8e444b05a9d005201658e2e49c91d01104b58dba798737d31e6c717f7a9d321e3c31f815f5ec99986374d78c1bba08ad346c40aa0ea5f1c39937d2c514a6003349c31fce378366832c7904432b9916928f714cbacfb364b9c0779f8d193b840e06dc23edd8674dfb404177dd95d9db368c2d655e25728cdc966597ebd84733845070fc740a85e62c22376a08606921756c5821fbad73b54db981ad340b2982a0689df492cf9c4ddcea05d8a69f49ef3ae322be3f4d69611136cdda8a35121f6d39f21c7f41e7753e014892ebcd9def218e322570db06a112586a135f7b0c589e214c08f78eb8b97b725deade09d48e42f0918cff2efc740e493c60e2adaa5ecbf53ae9c0d38c7cd9c82742d9a2f9ba0f9137e18bcd5994af2b8e45c3d43184a5b598269bb45aeef4facec11a8c2aedf0c0e9f44d891c01bb0d4be431cd526a624533829685d2a4f68b224e7e1226de5b4bb1dc778292299f8083bb33d0949b8bdb28636c585b083fced95562c756693071545b0cd6b522902f89fe1be5c3e0bf631e5a4ce0f6a98d7a1e4e970705f4b97239c9e7cf24cfddbe4418e2c228677dd5e305da58682e54acbb5b67dce6cfdba857b256eb0780e45a8c8389e6c9363bf7e272e424f79818896a7b50f122433475e697e818b8ec4d9f8040a14244b55666777859bafc3cbec192325272c3e474f61676c7a81a9acc6cbd1d9dae4ed000000000000000000000000000000000000000a18273d01",
        "00bbd2abbc5ee5c4c747ba4c2af8c084da9a74b46478ff59104fb5bbba9ca0460ef7f9ac80df6b61ccbfd273baddf3360b591a0eed55e851255c6716319cad9bc3d5d36dc794513c5177dd053b26d055ea431954cae427bee64c0ed210b0be7c362e95ddcb5d56ecbe5ad26071e3039e958ccb7341bea6231046b2ae82899ff08e2eae7ce22eb259b89a676cf23297d7d58361aaa08f28dc6eface3e59ff40d69e14f051563e2f386ff2151b9f0d61e6f9f784b3db2760329fa06004e3b5b4ff092e2cf87f1c4651a79bbc438041e346f8ba25258687f6a494d3d00620633f9ed301a6db76341f1e1bd4a56d72d8f498486bb9802ff778cb8c70013d8a817e3c195f0353aa47f24dab5794e2c2dc13447004940fb7d4554f46ba7b96b3f7a45c2a1d052fb601e545670e2d0c5d09489841fbdf7c2791cbeec3cb82133510ae6b46ef89393852fb004edf883a195637344c99c5eccf3a983a2117fdade4e2f18bca46d48059a0bc56a5e4553402cc54897530fa49af53f77513851ed24c5362f76a5b12d440ab777f9a4554489efcc1a14cd354117a43280382b173d52685a10495ec56403ec17150f696508b8252b1b79576ef84db4da43adee91cb46b994e2562b2f61d394e72825f1056b8b19c8cce562c788552b8b994c8c0a8e48064d07fb3793869a406ff4a3882a02a8f419e3f48525cd7f3df443d3f984bc355e6169c59e64bb5ac8198bc981375c2c8c90c80274eb08fc121fc88a748055400bea49e8381cec61c7c1ea7df5db0457fdc745e1f824eaa37ddcd5851f1fc27831f03a12dd512ee6f47d34e61b2cdc8fe3641f80b9ff0e03755e88a96eabdaf6eb7f04fb4db2e85eb876b4fa2f5727d098f1e004cce272e1f4c8e9049b1e3607b412d18135a4bb40507719098395e5e2d3ecf13c08345eda7c902caa57d7cc3d9bb705c0469f81c28305afef0993f4c94cc18a86b900e1c475fbd0329c993ef78930cb0ff978eabe86ed6a43a6eab648a089b2b0bda5e40f1aacc6459e1761c3be604fa8072b7c19372185e08f779c448d23ad6ee2380abdf27f50265fb71b17c02d9bc2d4cb45249be795d5d8eaf71ab6fecd27cdac254148bc0dae5c5c5e94632ee8df24f2f7999d6b063744e242804b19f02e6615147bec6c1122d9134d67addfb1b59d249170d22ea0e8ab5995d60a1f4f58ccfc7852dbbe7d12923eaf003c4a5eb09d98137045476755d42abd9b895f770a4a2b35b3fe19b449898bbd7b7a6a63e89a6a700a71f9aae89fead86393e9f6c390c72593fee4200b0d88bfe3739a0f798fd7704d7a2726bb0723323a6861e6b27c09187eb09a83f6f223130d4f013cb83dca019e25a1a52c0ecfa1e461871952cb2de30942241460ce8de2f76a2ca83531b249174e0fd82d7f702b4394b29b807e46ac090ceabecdfb6830de78f65d4b25449f6218de305b1976f0eaee8d943bbe1919689e927cd8fb787906be0e7969a577558b5a139a3f02d8ab45d52197daaac6d72949639b95ffc3561cec98e54afb22fbc8cfadbb5ff6ab5d9776c6052ad2618786e2395a719f0891188599c238d8b64aa4a641d3f8aecc8778aa296d7a430a10b2a31836f0b1b673d7464dff8510d31917a1bdc76290a16e35ecfe71306bea6accce02ef74fa7e6fd09329ab4506b33a039f9d56b3a45299615c2d8f5fbc89d37be634a5d6ead6afde44e064af6fc621e38976b396aa3ab73c2b5e4e5c12a06493ea0b76f922983bf96a87be1e6ef5778aa7a36c988044daf30e67c7e8b5bb9262b1e320d3985cbffe7187986b401114dc7d989d45320548c531e44338f0de69506cc9eedf868b3f7bd6f11ef3a"
      ],
      "sequence": 4294967294
    }
  ],
  "vout": [
    {
      "value": 499969.493,
      "n": 0,
      "scriptPubKey": {
        "asm": "1 442d067f4a4ad5ef4036a664646eeec3b90c4ce19a2ae0561ef1aea5fe0fb18d",
        "hex": "5120442d067f4a4ad5ef4036a664646eeec3b90c4ce19a2ae0561ef1aea5fe0fb18d",
        "reqSigs": 1,
        "type": "witness_v1_scripthash",
        "addresses": [
          "3QJmnh"
        ]
      }
    },
    {
      "value": 1.0,
      "n": 1,
      "scriptPubKey": {
        "asm": "OP_RETURN 9d5fb0e263a340b1dab39050e9d5f645973dc0d28703795636e3518632783c9c ff3acf47c4da9af105a872c0ecaa2dee6bbf7051e2466b0863495248ea9c03fcdf1aef67e4fabad1258852e0cc8a0dce4b9f5071c2664b2843697268cabc23dcbf7a8f07849adab145e83280acea6dae2bff3011a2062b4823091208aadc43bc9f5aaf27a4bafa9165c812a08cca4d8e0bdf103182260b68032932288afc639c7fba4fc7445a1a718528f2406c2aad6eeb3ff0d162c6eb88e3c9d2c86a1c837c5f9a6fe7647a3a51a508d2604c0a8d4ecb1fd0f142e6cba8c3e9f2e84a3ca35c3ffa0f87041a5a31c568b2002c6aed2eab7fb0912286abc8a38992882a5cc33c1fda2fa7243a7a11e54892200c4acd0e8b5f90b102a68be883a9b2a80a7ce31cff3acf47c4da9af105a872c0ecaa2dee6bbf7051e2466b0863495248ea9c03fcdf1aef67e4fabad1258852e0cc8a0dce4b9f5071c2664b2843697268cabc23dcbf7a8f07849adab145e83280acea6dae2bff3011a2062b4823091208aadc43bc9f5aaf27a4bafa9165c812a08cca4d8e0bdf103182260b68032932288afc639c7fba4fc7445a1a718528f2406c2aad6eeb3ff0d162c6eb88e3c9d2c86a1c837c5f9a6fe7647a3a51a508d2604c0a8d4ecb1fd0f142e6cba8c3e9f2e84a3ca35c3ffa0f87041a5a31c568b2002c6aed2eab7fb0912286abc8a38992882a5cc33c1fda2fa7243a7a11e54892200c4acd0e8b5f90b102a68be883a9b2a80a7ce31cff3acf47c4da9af105a872c0ecaa2dee6bbf7051e2466b0863495248ea9c03fcdf1aef67e4fabad1258852e0cc8a0dce4b9f5071c2664b2843697268cabc23dcbf7a8f07849adab145e83280acea6dae2bff3011a2062b4823091208aadc43bc9f5aaf27a4bafa9165c812a08cca4d8e0bdf103182260b68032932288afc639c7fba4fc7445a1a718528f2406c2aad6eeb3ff0d162c6eb88e3c9d2c86a1c837c5f9a6fe7647a3a51a508d2604c0a8d4ecb1fd0f142e6cba8c3e9f2e84a3ca35c3ffa0f87041a5a31c568b2002c6aed2eab7fb0912286abc8a38992882a5cc33c1fda2fa7243a7a11e54892200c4acd0e8b5f90b102a68be883a9b2a80a7ce31cff3acf47c4da9af105a872c0ecaa2dee6bbf7051e2466b0863495248ea9c03fcdf1aef67e4fabad1258852e0cc8a0dce4b9f5071c2664b2843697268cabc23dcbf7a8f07849adab145e83280acea6dae2bff3011a2062b4823091208aadc43bc9f5aaf27a4bafa9165c812a08cca4d8e0bdf103182260b68032932288afc639c7fba4fc7445a1a718528f2406c2aad6eeb3ff0d162c6eb88e3c9d2c86a1c837c5f9a6fe7647a3a51a508d2604c0a8d4ecb1fd0f142e6cba8c3e9f2e84a3ca35c3ffa0f87041a5a31c568b2002c6aed2eab7fb0912286abc8a38992882a5cc33c1fda2fa7243a7a11e54892200c4acd0e8b5f90b102a68be883a9b2a80a7ce31cff3acf47c4da9af105a872c0ecaa2dee6bbf7051e2466b0863495248ea9c03fcdf1aef67e4fabad1258852e0cc8a0dce4b9f5071c2664b2843697268cabc23dcbf7a8f07849adab145e83280acea6dae2bff3011a2062b4823091208aadc43bc9f5aaf27a4bafa9165c812a08cca4d8e0bdf103182260b68032932288afc639c7fba4fc7445a1a718528f2406c2aad6e50dcf20ae94786c05abfbee707f821c294ca1386a443f53464e125497f8b4c25",
        "hex": "6a209d5fb0e263a340b1dab39050e9d5f645973dc0d28703795636e3518632783c9c4db004ff3acf47c4da9af105a872c0ecaa2dee6bbf7051e2466b0863495248ea9c03fcdf1aef67e4fabad1258852e0cc8a0dce4b9f5071c2664b2843697268cabc23dcbf7a8f07849adab145e83280acea6dae2bff3011a2062b4823091208aadc43bc9f5aaf27a4bafa9165c812a08cca4d8e0bdf103182260b68032932288afc639c7fba4fc7445a1a718528f2406c2aad6eeb3ff0d162c6eb88e3c9d2c86a1c837c5f9a6fe7647a3a51a508d2604c0a8d4ecb1fd0f142e6cba8c3e9f2e84a3ca35c3ffa0f87041a5a31c568b2002c6aed2eab7fb0912286abc8a38992882a5cc33c1fda2fa7243a7a11e54892200c4acd0e8b5f90b102a68be883a9b2a80a7ce31cff3acf47c4da9af105a872c0ecaa2dee6bbf7051e2466b0863495248ea9c03fcdf1aef67e4fabad1258852e0cc8a0dce4b9f5071c2664b2843697268cabc23dcbf7a8f07849adab145e83280acea6dae2bff3011a2062b4823091208aadc43bc9f5aaf27a4bafa9165c812a08cca4d8e0bdf103182260b68032932288afc639c7fba4fc7445a1a718528f2406c2aad6eeb3ff0d162c6eb88e3c9d2c86a1c837c5f9a6fe7647a3a51a508d2604c0a8d4ecb1fd0f142e6cba8c3e9f2e84a3ca35c3ffa0f87041a5a31c568b2002c6aed2eab7fb0912286abc8a38992882a5cc33c1fda2fa7243a7a11e54892200c4acd0e8b5f90b102a68be883a9b2a80a7ce31cff3acf47c4da9af105a872c0ecaa2dee6bbf7051e2466b0863495248ea9c03fcdf1aef67e4fabad1258852e0cc8a0dce4b9f5071c2664b2843697268cabc23dcbf7a8f07849adab145e83280acea6dae2bff3011a2062b4823091208aadc43bc9f5aaf27a4bafa9165c812a08cca4d8e0bdf103182260b68032932288afc639c7fba4fc7445a1a718528f2406c2aad6eeb3ff0d162c6eb88e3c9d2c86a1c837c5f9a6fe7647a3a51a508d2604c0a8d4ecb1fd0f142e6cba8c3e9f2e84a3ca35c3ffa0f87041a5a31c568b2002c6aed2eab7fb0912286abc8a38992882a5cc33c1fda2fa7243a7a11e54892200c4acd0e8b5f90b102a68be883a9b2a80a7ce31cff3acf47c4da9af105a872c0ecaa2dee6bbf7051e2466b0863495248ea9c03fcdf1aef67e4fabad1258852e0cc8a0dce4b9f5071c2664b2843697268cabc23dcbf7a8f07849adab145e83280acea6dae2bff3011a2062b4823091208aadc43bc9f5aaf27a4bafa9165c812a08cca4d8e0bdf103182260b68032932288afc639c7fba4fc7445a1a718528f2406c2aad6eeb3ff0d162c6eb88e3c9d2c86a1c837c5f9a6fe7647a3a51a508d2604c0a8d4ecb1fd0f142e6cba8c3e9f2e84a3ca35c3ffa0f87041a5a31c568b2002c6aed2eab7fb0912286abc8a38992882a5cc33c1fda2fa7243a7a11e54892200c4acd0e8b5f90b102a68be883a9b2a80a7ce31cff3acf47c4da9af105a872c0ecaa2dee6bbf7051e2466b0863495248ea9c03fcdf1aef67e4fabad1258852e0cc8a0dce4b9f5071c2664b2843697268cabc23dcbf7a8f07849adab145e83280acea6dae2bff3011a2062b4823091208aadc43bc9f5aaf27a4bafa9165c812a08cca4d8e0bdf103182260b68032932288afc639c7fba4fc7445a1a718528f2406c2aad6e50dcf20ae94786c05abfbee707f821c294ca1386a443f53464e125497f8b4c25",
        "type": "nulldata"
      }
    }
  ],
  "blockhash": "f0ff1fbaae405cadeb51abb379c93a956cf666ff613992ee95c2f945c1780bd2",
  "confirmations": 1,
  "time": 1764181685,
  "blocktime": 1764181685
}