{
  "hex": "01000000000101a9b0c249badb52bf70ed08b7a0b9488788b569564b027adfb3e8fd55d8c6412c0000000000feffffff02b0767139792d0000225120f00b877d405acb62735a14188210c674b01738fe131c383608bfbd43a697100a00e1f50500000000fdd5046a20fd19bf7fa9b4a7ac06c4c9edd1ab01223e82c329e6467210de6b570dc421cc2f4db004129a6c58fd02f3bf6cee97616803da9d836964961a1f1adb4f59e35c6176784c32ba4c78dd22d39f4cceb7414823fabda34944b63a3f3afb6f79c37c4156586c52da2c18bd42b3ff2caed72128439addc32924d65a5f5a9b0f19a31c2136380c72fa0c389d6293df0c8ef7010863bafde30904f67a7f7abb2f39833c0116182c921aecd87d82733fec6e17e1e8835a1d03e9e4169a9f9a5bcfd963dce1f6f8ccb23accf85da2531fcc4e37c1c8a37a3d23c9c436babfba7beff943fcc1d6d8ecd25aac983dc2337fac2e57a1a8c31a5d43a9a456dadfda1b8f99239ca1b6b88cf27a8cb81de2135f8c0e778188e33a7d63898476fafffa3bafb903bc819698ac129a6c58fd02f3bf6cee97616803da9d836964961a1f1adb4f59e35c6176784c32ba4c78dd22d39f4cceb7414823fabda34944b63a3f3afb6f79c37c4156586c52da2c18bd42b3ff2caed72128439addc32924d65a5f5a9b0f19a31c2136380c72fa0c389d6293df0c8ef7010863bafde30904f67a7f7abb2f39833c0116182c921aecd87d82733fec6e17e1e8835a1d03e9e4169a9f9a5bcfd963dce1f6f8ccb23accf85da2531fcc4e37c1c8a37a3d23c9c436babfba7beff943fcc1d6d8ecd25aac983dc2337fac2e57a1a8c31a5d43a9a456dadfda1b8f99239ca1b6b88cf27a8cb81de2135f8c0e778188e33a7d63898476fafffa3bafb903bc819698ac129a6c58fd02f3bf6cee97616803da9d836964961a1f1adb4f59e35c6176784c32ba4c78dd22d39f4cceb7414823fabda34944b63a3f3afb6f79c37c4156586c52da2c18bd42b3ff2caed72128439addc32924d65a5f5a9b0f19a31c2136380c72fa0c389d6293df0c8ef7010863bafde30904f67a7f7abb2f39833c0116182c921aecd87d82733fec6e17e1e8835a1d03e9e4169a9f9a5bcfd963dce1f6f8ccb23accf85da2531fcc4e37c1c8a37a3d23c9c436babfba7beff943fcc1d6d8ecd25aac983dc2337fac2e57a1a8c31a5d43a9a456dadfda1b8f99239ca1b6b88cf27a8cb81de2135f8c0e778188e33a7d63898476fafffa3bafb903bc819698ac129a6c58fd02f3bf6cee97616803da9d836964961a1f1adb4f59e35c6176784c32ba4c78dd22d39f4cceb7414823fabda34944b63a3f3afb6f79c37c4156586c52da2c18bd42b3ff2caed72128439addc32924d65a5f5a9b0f19a31c2136380c72fa0c389d6293df0c8ef7010863bafde30904f67a7f7abb2f39833c0116182c921aecd87d82733fec6e17e1e8835a1d03e9e4169a9f9a5bcfd963dce1f6f8ccb23accf85da2531fcc4e37c1c8a37a3d23c9c436babfba7beff943fcc1d6d8ecd25aac983dc2337fac2e57a1a8c31a5d43a9a456dadfda1b8f99239ca1b6b88cf27a8cb81de2135f8c0e778188e33a7d63898476fafffa3bafb903bc819698ac129a6c58fd02f3bf6cee97616803da9d836964961a1f1adb4f59e35c6176784c32ba4c78dd22d39f4cceb7414823fabda34944b63a3f3afb6f79c37c4156586c52da2c18bd42b3ff2caed72128439addc32924d65a5f5a9b0f19a31c2136380c72fa0c389d6293df0c8ef7010863bafde30904f67a7f7abb2f39833c0116182c921aecd87d82733fec6e17e1e8835a1d45135036886cfbcbd4a9ac42661a001a1b8cd09adefcc6869e00afc91ecdf0f702fd7509206f002064c65b8fd4d2453c8c9af894cd4a86837177af0e2d43778699257721ee850c81c05903705704b9285be771bbe0e193777f2735999ea25ba2ffff7f6ec9d19a8d0e7778dc3ab0911fcd7782bcf0247bc48553d6c714f178358f9fa53bb41a90283fbac01c8a63125728f04149774349879191f00e4d226c90084458079d95e562fc0bf3a3c6133f3b96fda3df684e5085e8d0e0e5437bf59384e03059bf63cede5fdad578bdca38c2f202cecfab97a5bad12f1fbe20b62bd4b758b27838a8501538d671f4ccedb97c16a370d06005da5d1dd21eebda80f2e752fa7ab8fbea97e441b32b226b489a4c7d1396b3c3f2be771d1122b2d47aad5d6620f93ff2b9fe02276f5df12d5495023c5e774da70b4d11c6a548e18a2ca65834183b3d14ee736f140010684fb209e9b8b5759a4de45a4f272e96156eb3ce4ec147b4602e4d64aa1497d9360690db1c83cf73df481f9654a26856b176f27ca4f5c893d8e5307af17892b8729b4b4878ea7b62157f5209a1fa5fc02e565c08bffa1e326c2f10b0b00542573ac17ea1326993a195578a312ea857a7c5f97bd4d8a4788e5f3e14dc96a7bcdd070f249788642ea15ab31ae688fc3efd9ce2532a3fc16db8bea643656bfc9d0f0e12ea18f70ec11afe656655b34cde6e0e7015aa3698f251fc17f8f237817f9f525e8217fca7612b19291e5861710b0fc6b28ec1cb10b66db61888fb85450388cae135ae2de979484283dae5bf8ba5a49108e544087891e380eb403aa03e2a58297f39db9cf879a99013c9459ae8d50b1910db5476edad6187fe57fd2ae6759556006d67b999d8db5cc9b2cad0ff9e2618143326abb59a4c134c5a94511a7e5a0f8dbac6054b0c258aa90767b8fd8ad733e060f81b04359dba1a2f75bfefa4cfb075383431f50b2cd072125582541b1bd0b076423a86938fc2718c3bf36f9bab7309fbab081d23033bcdc631570ba1a3442cdbf34c0e21800588b9389d3e63dafa1b702884a91cf89678710ec9080ee7c098420c059790554755be2d5e3115a8bb9b134dfcf7e5e74a4992414d9cb474c85770f92d7c5a2a8a4004c65493a72129cc99ce832cbe2248060418b5321d7fd1c48ee6cd26516125287c086fa5fbface4e52fdc5884d7efc569c2dcfff1668043807f54a34b52a97b862587f6b14080b758e6133597d85637ba33e39cb22517d01a5c30ec5573c705d73e8ab022505e4713f21878ca948f754771d06969da59ae522382b36ab28660622e42379b458fa07c528d6db1d7b8dacd612346d756682825e535111c29d1b082ed5d903b3122547cd37fd5b98a8b8f9c8b9b53028f42968cc8ad74cc5df4ad69de35fe57048f301e41ff0dc2ad9d0883335ae34bc94d974df8789be45c2e74707b61df162bf64967134074e9d4d2fb6e93997b52e0eb830bc6f5294dde824dfd969b6e18b402a666ebab4dd1ba6d572a69649b43e832428dcf196c13daeb5e5e4ec53fdca03dfedfafbe35ef2b5384840c7de2d259abf42e141b2bcdd4b943f7a5ca99cd4dc4164740c5ee72f6758c5ef458b0b0e2d0c5f8fe7029e20477c84c14eeb29932dea8aabaef04c45b1655d36fded3a159576c7305d7ac593bddbebca4b82229350a4c87bf01b822a1a9d89639ab1fc1aa42585c5a5b0b4e31809f1cdad4c98f07b8846484a0791a9cd8b56de0c1b12dd079e6cb1a2cfa5bbebe2675bc1890189516f1e29beb611984864c8b05dfed5cc934a19e8c231d96a5896456d86b14d36ee62c4664c6bd6b93e33b8a5bfb42ce99f9a905ee98c984ad0c5a3c6cb995f4cb8275326e828391c49cf2dedcee6b4b537d74319070b32eea2e51c5b1fbe2e579948c999645ba3486c1003f1e813f2e0e6b1624f67dce33ebabd90629533c62732c7e8ca8e2c3351c606000ba1a06a44230cfec2467e8a2d4f856d07dded812359037c97f2f65e4217160cd6265aaef2c9d3e9ef3bce8d6412548206139e9cbcd725f75177079b69de9e436445a41701b444cc6947c6514bd2291d5e68f6c41447689862260be71d8f5a83a821caba41aba46636ebb340b5833ff5337b5d405193c617eaa4b324da9938b2fad079245b2895ca02fc45a5c5af2e8451636b0f5cb61446aa8764f5f7cdf02f531a9e84d7353424dda9f00f59a853f9e72b5bfe491d392afe2b4403e2d5760f2c1bb1d23b8ff937e692fc6d82ec8d4964e5c755830c429ae95cf21420c6525f508e287c99f89bd3027bee8b835cfa7128c0faf86d678757340937517150f6b568f61151326c9c6eca000ac75372c0273c9c3a1be3d81a1b33a784537fae163505457c40eae65d8c5db4563e3c58092e33025d6886a132166c506336831b55f54c89f24e99ea0bbc4c77bdfdff15faf04a6c7c1f0c4d3cbf0b2ef020f3f842ef400fad3b6d1cc44b95274a3bed8d3b3d6ed0286469ebb75d3396174b39ff53519db31c217f1635a4e617da923315f8ac05d399365aadc05b02b7db812b5a2fe57066a39bbc6a63aef43d53de6de898073d194e5a57283d0a6e4236bcf8177243a7a3563e55e129b7695cb98f8568b4928799174ca392f1fed17d6ef1f5a7ae98b2239212cf77377cb3e735a03abab9c3e6a0a6c313483101968037343b1e556c0a95dbc6e6320275002a78d523dfba9d7ba0b7afc74574b02f2bdfd42deec3ffe661180fd951bb49aa8432862aad9cb243e1b69051dfcbb13b042819d5e7451d6fa91730cfe10ff9a4b4f2e7cd5f1c3909a8f99471b19154454c43a78568e8b5c7d767b59582a94d73a1fb14ed0e2e6a11ad229ccba1b6d9e2553a41005bf5d2d458ec9562abcd65e162c4e50943c206753f634a591a431d6f2664bb0bbdcb6dad0439f6bafaf0caf9261eeec320faddb079b8e08255c74104b4d7d07508cb19afbc1a925197fa6ecb241cf87515eaea8bb6671abad285836068888caddd19e8dcfbc3b03e11bd87dd33d0ac32602620296929f85ff1b025edd18ae7cbc0e96d5577cf4e9af6ca73f83645b90fb04137c6b4c3646c3050927f51f1bd0275fd4b686eb2e448d5e9b420b8abebe1fd4f6115b81cc35e47d7bff79a327686e1780c4e4bf7c873df627499bc92b0dc34c9f8b3db9e42e56fceb29f23a16ae8e4dae19be1dd842b721f37b71aedcbeabf0c87a28609cc689f47248f072763e8d6752b360d09ece2f5a0fa018193e6e6e737334b0bd5006a10f4b9311b0077a47f341ed9a9cf5e11d51d3de772442f137a764a37f45ee271cf9243ced483f630f64313ccdf5ae3b8cf78b61d0e3fdd01151407152d304950555d62777c8f94959daaccfd141b3e4d5064686d8b9ca2aec0cacbf0111f2a3845565e60616a6c8195b3b4b6e2edf71a2f3a53567e839497a1c5d2d3edf3f6fd000000000000000000001222354601fd210500b62fdfbe863ac82ead82d41dd43327d5eeb913a01a66bd0ba6f4d43bd09997d1b21ac56810da87fb303ac1249b34fcc2a369ab5ebf32b3a51f5ffc7a7c802c6bba3c718962126a3b4fa58e49f3759cea78a5d5463c5ae009c5c9d65182a94cbfc6149e866a09a2cdab18f052477d76dea216f9645c0dbb36ce2b87f7c6ac599bc11e4909e64e0bc2be4c91e1216fc61d749f3e9b3b884f04628b98cc4671b7da75f756012c5082a32c20b0eaa93c36cd4f901d226fd19bcfea2b0102fe54dedd28f2a95bc6fbb9810b1062703f8c527a20481c086642531db20962427b45a0e9659a48c8c59bd092d91b5841f155c018446ec4ed7278d60ec383c7d542fd5342ed886e91c726d8a9a94cef1ebb675068ba85836574b37e7dd40ab09fc86c2e2f520051b4be9cccbec5b1df98d61bbe5371b7603a6344e7cb49ca45140a8b257e1a7dd18d9cf99de835b221ddeaba92f7eda66802dcfce0d1e6ca353ca017d8a28cdcf2ae388cd818a16a143de8f77ea7897bb408951dec8676fb307aa1e769b33aa0edf8548994070d3cb4fcb8f2a5c11ca0a1e3a9317839aec4525f53b2c526d1fb524b2481c4ad4454e8ec2b884cf2d1e8dc782c516fa50794befef2246151c3c903dd4e61c80b94529a221eaeab8cbf89ffe2ad7a05f00c6119580111224d9e0050abed806cb30fe652fa0882b9919030f729c53e37b113ba1f4811cb35164794093c523469efc4cbcd90c4d7543513d64f99852331b931359a87a816e49b67977f73bffcb6589f5814ffd87d12ecb053b6671e6d276ff3c366d2ec3bb9dd4a37985530cd0f5535c192dd34afe840712fce4d4d4ba3ab366db4db760c485e8e2883a0aac5948e01ec8c98a5abfa731c3ccf081f34a9d71a952604990c885122df83096258f6b2ca14e879fb527825f94854d0a515b4590d1bebaa6027e8a8fd21464cc70093744f4e2571bdb4f8ba0b678f0660f95e22d2cc778e0dcf7cc737b2d316ec8f8edb876f983c01cf3f80644703a61dc3419295a235fca305acd3251049ee1e678e31fad21a0390b4b3253d5eb4bb3eac73b6b9f7fddd21a00e8f76232a91006d1aadc860f3b76252fb0e456b7fb4d75757b3616cc269e3582041c01a2ed96fec4fa071a12ffefccd472cf2e9baa8ecce1459469dadc626504c5bb4437043903f1bb8a252398cc40f9abc1f82a4e82a4d479706d1b53924250627f70285b8b92f7eec36cfcebbe729eae5e26d5d705f60fec5d79cf206102a77fd2fce1bf0fe27c1257d9b2bd6ac8d6bb7f86ae77cdaa4ea6f427c8cc90cafd8a7132fb130955aec8c4f328d7824b9a81056f656567f5927973daaefcabbe31054af32fbd32935de08e731e1075091fa40e302c54f4d1b5da73492fd5033229cafae555c2af8e49df453d27787a9a3fdb147402b66c9a99e6c4673d13609d2319a0559065e852afbef949b61b14f2cfd60e3e513d2122fe363787408b97cbb1316f2779c95da290cb11c45e8b0915dd92a700f669c705c26571f5ea086b71e4ea676ee761cf25708bee470283193063bdc2a7c14b5f95a731683bf877ad23e034e39876612e144f4d2dfe9bc6f91b4663be0fa16c60ac3d322be7f94532ffc7d195b03f1c16b7c6b0225785e1aea40cbedc1ec25db674911dff95772a7bb02f6f26113bd9513d1b5a3289b33081980e778df396f11884aadde236318d0d7c0842fdb1367cf22905cf001d9ffd046924f212b48170178ee674fe75cd951e80904e940786c79be5608ae1d7e3d5fcd05f4d87273781c3aa575361991e181fddd771606bc28b6f42948f1a250341dcf451b25d634144e421828a9988854a646d4964f71000000",
  "txid": "bce4e1a653c99590305e2e61ae81943a77ac0739e6620072d224eadddbcb6571",
  "hash": "7ff3574f019bd78b5d9c2da258360b97aa139f9a897fc85ae4b34eedb0dfba87",
  "size": 5085,
  "vsize": 2278,
  "version": 1,
  "locktime": 113,
  "vin": [
    {
      "txid": "2c41c6d855fde8b3df7a024b5669b5888748b9a0b708ed70bf52dbba49c2b0a9",
      "vout": 0,
      "scriptSig": {
        "asm": "",
        "hex": ""
      },
      "txinwitness": [
        "206f002064c65b8fd4d2453c8c9af894cd4a86837177af0e2d43778699257721ee850c81c05903705704b9285be771bbe0e193777f2735999ea25ba2ffff7f6ec9d19a8d0e7778dc3ab0911fcd7782bcf0247bc48553d6c714f178358f9fa53bb41a90283fbac01c8a63125728f04149774349879191f00e4d226c90084458079d95e562fc0bf3a3c6133f3b96fda3df684e5085e8d0e0e5437bf59384e03059bf63cede5fdad578bdca38c2f202cecfab97a5bad12f1fbe20b62bd4b758b27838a8501538d671f4ccedb97c16a370d06005da5d1dd21eebda80f2e752fa7ab8fbea97e441b32b226b489a4c7d1396b3c3f2be771d1122b2d47aad5d6620f93ff2b9fe02276f5df12d5495023c5e774da70b4d11c6a548e18a2ca65834183b3d14ee736f140010684fb209e9b8b5759a4de45a4f272e96156eb3ce4ec147b4602e4d64aa1497d9360690db1c83cf73df481f9654a26856b176f27ca4f5c893d8e5307af17892b8729b4b4878ea7b62157f5209a1fa5fc02e565c08bffa1e326c2f10b0b00542573ac17ea1326993a195578a312ea857a7c5f97bd4d8a4788e5f3e14dc96a7bcdd070f249788642ea15ab31ae688fc3efd9ce2532a3fc16db8bea643656bfc9d0f0e12ea18f70ec11afe656655b34cde6e0e7015aa3698f251fc17f8f237817f9f525e8217fca7612b19291e5861710b0fc6b28ec1cb10b66db61888fb85450388cae135ae2de979484283dae5bf8ba5a49108e544087891e380eb403aa03e2a58297f39db9cf879a99013c9459ae8d50b1910db5476edad6187fe57fd2ae6759556006d67b999d8db5cc9b2cad0ff9e2618143326abb59a4c134c5a94511a7e5a0f8dbac6054b0c258aa90767b8fd8ad733e060f81b04359dba1a2f75bfefa4cfb075383431f50b2cd072125582541b1bd0b076423a86938fc2718c3bf36f9bab7309fbab081d23033bcdc631570ba1a3442cdbf34c0e21800588b9389d3e63dafa1b702884a91cf89678710ec9080ee7c098420c059790554755be2d5e3115a8bb9b134dfcf7e5e74a4992414d9cb474c85770f92d7c5a2a8a4004c65493a72129cc99ce832cbe2248060418b5321d7fd1c48ee6cd26516125287c086fa5fbface4e52fdc5884d7efc569c2dcfff1668043807f54a34b52a97b862587f6b14080b758e6133597d85637ba33e39cb22517d01a5c30ec5573c705d73e8ab022505e4713f21878ca948f754771d06969da59ae522382b36ab28660622e42379b458fa07c528d6db1d7b8dacd612346d756682825e535111c29d1b082ed5d903b3122547cd37fd5b98a8b8f9c8b9b53028f42968cc8ad74cc5df4ad69de35fe57048f301e41ff0dc2ad9d0883335ae34bc94d974df8789be45c2e74707b61df162bf64967134074e9d4d2fb6e93997b52e0eb830bc6f5294dde824dfd969b6e18b402a666ebab4dd1ba6d572a69649b43e832428dcf196c13daeb5e5e4ec53fdca03dfedfafbe35ef2b5384840c7de2d259abf42e141b2bcdd4b943f7a5ca99cd4dc4164740c5ee72f6758c5ef458b0b0e2d0c5f8fe7029e20477c84c14eeb29932dea8aabaef04c45b1655d36fded3a159576c7305d7ac593bddbebca4b82229350a4c87bf01b822a1a9d89639ab1fc1aa42585c5a5b0b4e31809f1cdad4c98f07b8846484a0791a9cd8b56de0c1b12dd079e6cb1a2cfa5bbebe2675bc1890189516f1e29beb611984864c8b05dfed5cc934a19e8c231d96a5896456d86b14d36ee62c4664c6bd6b93e33b8a5bfb42ce99f9a905ee98c984ad0c5a3c6cb995f4cb8275326e828391c49cf2dedcee6b4b537d74319070b32eea2e51c5b1fbe2e579948c999645ba3486c1003f1e813f2e0e6b1624f67dce33ebabd90629533c62732c7e8ca8e2c3351c606000ba1a06a44230cfec2467e8a2d4f856d07dded812359037c97f2f65e4217160cd6265aaef2c9d3e9ef3bce8d6412548206139e9cbcd725f75177079b69de9e436445a41701b444cc6947c6514bd2291d5e68f6c41447689862260be71d8f5a83a821caba41aba46636ebb340b5833ff5337b5d405193c617eaa4b324da9938b2fad079245b2895ca02fc45a5c5af2e8451636b0f5cb61446aa8764f5f7cdf02f531a9e84d7353424dda9f00f59a853f9e72b5bfe491d392afe2b4403e2d5760f2c1bb1d23b8ff937e692fc6d82ec8d4964e5c755830c429ae95cf21420c6525f508e287c99f89bd3027bee8b835cfa7128c0faf86d678757340937517150f6b568f61151326c9c6eca000ac75372c0273c9c3a1be3d81a1b33a784537fae163505457c40eae65d8c5db4563e3c58092e33025d6886a132166c506336831b55f54c89f24e99ea0bbc4c77bdfdff15faf04a6c7c1f0c4d3cbf0b2ef020f3f842ef400fad3b6d1cc44b95274a3bed8d3b3d6ed0286469ebb75d3396174b39ff53519db31c217f1635a4e617da923315f8ac05d399365aadc05b02b7db812b5a2fe57066a39bbc6a63aef43d53de6de898073d194e5a57283d0a6e4236bcf8177243a7a3563e55e129b7695cb98f8568b4928799174ca392f1fed17d6ef1f5a7ae98b2239212cf77377cb3e735a03abab9c3e6a0a6c313483101968037343b1e556c0a95dbc6e6320275002a78d523dfba9d7ba0b7afc74574b02f2bdfd42deec3ffe661180fd951bb49aa8432862aad9cb243e1b69051dfcbb13b042819d5e7451d6fa91730cfe10ff9a4b4f2e7cd5f1c3909a8f99471b19154454c43a78568e8b5c7d767b59582a94d73a1fb14ed0e2e6a11ad229ccba1b6d9e2553a41005bf5d2d458ec9562abcd65e162c4e50943c206753f634a591a431d6f2664bb0bbdcb6dad0439f6bafaf0caf9261eeec320faddb079b8e08255c74104b4d7d07508cb19afbc1a925197fa6ecb241cf87515eaea8bb6671abad285836068888caddd19e8dcfbc3b03e11bd87dd33d0ac32602620296929f85ff1b025edd18ae7cbc0e96d5577cf4e9af6ca73f83645b90fb04137c6b4c3646c3050927f51f1bd0275fd4b686eb2e448d5e9b420b8abebe1fd4f6115b81cc35e47d7bff79a327686e1780c4e4bf7c873df627499bc92b0dc34c9f8b3db9e42e56fceb29f23a16ae8e4dae19be1dd842b721f37b71aedcbeabf0c87a28609cc689f47248f072763e8d6752b360d09ece2f5a0fa018193e6e6e737334b0bd5006a10f4b9311b0077a47f341ed9a9cf5e11d51d3de772442f137a764a37f45ee271cf9243ced483f630f64313ccdf5ae3b8cf78b61d0e3fdd01151407152d304950555d62777c8f94959daaccfd141b3e4d5064686d8b9ca2aec0cacbf0111f2a3845565e60616a6c8195b3b4b6e2edf71a2f3a53567e839497a1c5d2d3edf3f6fd000000000000000000001222354601",
        "00b62fdfbe863ac82ead82d41dd43327d5eeb913a01a66bd0ba6f4d43bd09997d1b21ac56810da87fb303ac1249b34fcc2a369ab5ebf32b3a51f5ffc7a7c802c6bba3c718962126a3b4fa58e49f3759cea78a5d5463c5ae009c5c9d65182a94cbfc6149e866a09a2cdab18f052477d76dea216f9645c0dbb36ce2b87f7c6ac599bc11e4909e64e0bc2be4c91e1216fc61d749f3e9b3b884f04628b98cc4671b7da75f756012c5082a32c20b0eaa93c36cd4f901d226fd19bcfea2b0102fe54dedd28f2a95bc6fbb9810b1062703f8c527a20481c086642531db20962427b45a0e9659a48c8c59bd092d91b5841f155c018446ec4ed7278d60ec383c7d542fd5342ed886e91c726d8a9a94cef1ebb675068ba85836574b37e7dd40ab09fc86c2e2f520051b4be9cccbec5b1df98d61bbe5371b7603a6344e7cb49ca45140a8b257e1a7dd18d9cf99de835b221ddeaba92f7eda66802dcfce0d1e6ca353ca017d8a28cdcf2ae388cd818a16a143de8f77ea7897bb408951dec8676fb307aa1e769b33aa0edf8548994070d3cb4fcb8f2a5c11ca0a1e3a9317839aec4525f53b2c526d1fb524b2481c4ad4454e8ec2b884cf2d1e8dc782c516fa50794befef2246151c3c903dd4e61c80b94529a221eaeab8cbf89ffe2ad7a05f00c6119580111224d9e0050abed806cb30fe652fa0882b9919030f729c53e37b113ba1f4811cb35164794093c523469efc4cbcd90c4d7543513d64f99852331b931359a87a816e49b67977f73bffcb6589f5814ffd87d12ecb053b6671e6d276ff3c366d2ec3bb9dd4a37985530cd0f5535c192dd34afe840712fce4d4d4ba3ab366db4db760c485e8e2883a0aac5948e01ec8c98a5abfa731c3ccf081f34a9d71a952604990c885122df83096258f6b2ca14e879fb527825f94854d0a515b4590d1bebaa6027e8a8fd21464cc70093744f4e2571bdb4f8ba0b678f0660f95e22d2cc778e0dcf7cc737b2d316ec8f8edb876f983c01cf3f80644703a61dc3419295a235fca305acd3251049ee1e678e31fad21a0390b4b3253d5eb4bb3eac73b6b9f7fddd21a00e8f76232a91006d1aadc860f3b76252fb0e456b7fb4d75757b3616cc269e3582041c01a2ed96fec4fa071a12ffefccd472cf2e9baa8ecce1459469dadc626504c5bb4437043903f1bb8a252398cc40f9abc1f82a4e82a4d479706d1b53924250627f70285b8b92f7eec36cfcebbe729eae5e26d5d705f60fec5d79cf206102a77fd2fce1bf0fe27c1257d9b2bd6ac8d6bb7f86ae77cdaa4ea6f427c8cc90cafd8a7132fb130955aec8c4f328d7824b9a81056f656567f5927973daaefcabbe31054af32fbd32935de08e731e1075091fa40e302c54f4d1b5da73492fd5033229cafae555c2af8e49df453d27787a9a3fdb147402b66c9a99e6c4673d13609d2319a0559065e852afbef949b61b14f2cfd60e3e513d2122fe363787408b97cbb1316f2779c95da290cb11c45e8b0915dd92a700f669c705c26571f5ea086b71e4ea676ee761cf25708bee470283193063bdc2a7c14b5f95a731683bf877ad23e034e39876612e144f4d2dfe9bc6f91b4663be0fa16c60ac3d322be7f94532ffc7d195b03f1c16b7c6b0225785e1aea40cbedc1ec25db674911dff95772a7bb02f6f26113bd9513d1b5a3289b33081980e778df396f11884aadde236318d0d7c0842fdb1367cf22905cf001d9ffd046924f212b48170178ee674fe75cd951e80904e940786c79be5608ae1d7e3d5fcd05f4d87273781c3aa575361991e181fddd771606bc28b6f42948f1a250341dcf451b25d634144e421828a9988854a646d4964f"
      ],
      "sequence": 4294967294
    }
  ],
  "vout": [
    {
      "value": 499986.7803,
      "n": 0,
      "scriptPubKey": {
        "asm": "1 f00b877d405acb62735a14188210c674b01738fe131c383608bfbd43a697100a",
        "hex": "5120f00b877d405acb62735a14188210c674b01738fe131c383608bfbd43a697100a",
        "reqSigs": 1,
        "type": "witness_v1_scripthash",
        "addresses": [
          "3QJmnh"
        ]
      }
    },
    {
      "value": 1.0,
      "n": 1,
      "scriptPubKey": {
        "asm": "OP_RETURN fd19bf7fa9b4a7ac06c4c9edd1ab01223e82c329e6467210de6b570dc421cc2f 129a6c58fd02f3bf6cee97616803da9d836964961a1f1adb4f59e35c6176784c32ba4c78dd22d39f4cceb7414823fabda34944b63a3f3afb6f79c37c4156586c52da2c18bd42b3ff2caed72128439addc32924d65a5f5a9b0f19a31c2136380c72fa0c389d6293df0c8ef7010863bafde30904f67a7f7abb2f39833c0116182c921aecd87d82733fec6e17e1e8835a1d03e9e4169a9f9a5bcfd963dce1f6f8ccb23accf85da2531fcc4e37c1c8a37a3d23c9c436babfba7beff943fcc1d6d8ecd25aac983dc2337fac2e57a1a8c31a5d43a9a456dadfda1b8f99239ca1b6b88cf27a8cb81de2135f8c0e778188e33a7d63898476fafffa3bafb903bc819698ac129a6c58fd02f3bf6cee97616803da9d836964961a1f1adb4f59e35c6176784c32ba4c78dd22d39f4cceb7414823fabda34944b63a3f3afb6f79c37c4156586c52da2c18bd42b3ff2caed72128439addc32924d65a5f5a9b0f19a31c2136380c72fa0c389d6293df0c8ef7010863bafde30904f67a7f7abb2f39833c0116182c921aecd87d82733fec6e17e1e8835a1d03e9e4169a9f9a5bcfd963dce1f6f8ccb23accf85da2531fcc4e37c1c8a37a3d23c9c436babfba7beff943fcc1d6d8ecd25aac983dc2337fac2e57a1a8c31a5d43a9a456dadfda1b8f99239ca1b6b88cf27a8cb81de2135f8c0e778188e33a7d63898476fafffa3bafb903bc819698ac129a6c58fd02f3bf6cee97616803da9d836964961a1f1adb4f59e35c6176784c32ba4c78dd22d39f4cceb7414823fabda34944b63a3f3afb6f79c37c4156586c52da2c18bd42b3ff2caed72128439addc32924d65a5f5a9b0f19a31c2136380c72fa0c389d6293df0c8ef7010863bafde30904f67a7f7abb2f39833c0116182c921aecd87d82733fec6e17e1e8835a1d03e9e4169a9f9a5bcfd963dce1f6f8ccb23accf85da2531fcc4e37c1c8a37a3d23c9c436babfba7beff943fcc1d6d8ecd25aac983dc2337fac2e57a1a8c31a5d43a9a456dadfda1b8f99239ca1b6b88cf27a8cb81de2135f8c0e778188e33a7d63898476fafffa3bafb903bc819698ac129a6c58fd02f3bf6cee97616803da9d836964961a1f1adb4f59e35c6176784c32ba4c78dd22d39f4cceb7414823fabda34944b63a3f3afb6f79c37c4156586c52da2c18bd42b3ff2caed72128439addc32924d65a5f5a9b0f19a31c2136380c72fa0c389d6293df0c8ef7010863bafde30904f67a7f7abb2f39833c0116182c921aecd87d82733fec6e17e1e8835a1d03e9e4169a9f9a5bcfd963dce1f6f8ccb23accf85da2531fcc4e37c1c8a37a3d23c9c436babfba7beff943fcc1d6d8ecd25aac983dc2337fac2e57a1a8c31a5d43a9a456dadfda1b8f99239ca1b6b88cf27a8cb81de2135f8c0e778188e33a7d63898476fafffa3bafb903bc819698ac129a6c58fd02f3bf6cee97616803da9d836964961a1f1adb4f59e35c6176784c32ba4c78dd22d39f4cceb7414823fabda34944b63a3f3afb6f79c37c4156586c52da2c18bd42b3ff2caed72128439addc32924d65a5f5a9b0f19a31c2136380c72fa0c389d6293df0c8ef7010863bafde30904f67a7f7abb2f39833c0116182c921aecd87d82733fec6e17e1e8835a1d45135036886cfbcbd4a9ac42661a001a1b8cd09adefcc6869e00afc91ecdf0f7",
        "hex": "6a20fd19bf7fa9b4a7ac06c4c9edd1ab01223e82c329e6467210de6b570dc421cc2f4db004129a6c58fd02f3bf6cee97616803da9d836964961a1f1adb4f59e35c6176784c32ba4c78dd22d39f4cceb7414823fabda34944b63a3f3afb6f79c37c4156586c52da2c18bd42b3ff2caed72128439addc32924d65a5f5a9b0f19a31c2136380c72fa0c389d6293df0c8ef7010863bafde30904f67a7f7abb2f39833c0116182c921aecd87d82733fec6e17e1e8835a1d03e9e4169a9f9a5bcfd963dce1f6f8ccb23accf85da2531fcc4e37c1c8a37a3d23c9c436babfba7beff943fcc1d6d8ecd25aac983dc2337fac2e57a1a8c31a5d43a9a456dadfda1b8f99239ca1b6b88cf27a8cb81de2135f8c0e778188e33a7d63898476fafffa3bafb903bc819698ac129a6c58fd02f3bf6cee97616803da9d836964961a1f1adb4f59e35c6176784c32ba4c78dd22d39f4cceb7414823fabda34944b63a3f3afb6f79c37c4156586c52da2c18bd42b3ff2caed72128439addc32924d65a5f5a9b0f19a31c2136380c72fa0c389d6293df0c8ef7010863bafde30904f67a7f7abb2f39833c0116182c921aecd87d82733fec6e17e1e8835a1d03e9e4169a9f9a5bcfd963dce1f6f8ccb23accf85da2531fcc4e37c1c8a37a3d23c9c436babfba7beff943fcc1d6d8ecd25aac983dc2337fac2e57a1a8c31a5d43a9a456dadfda1b8f99239ca1b6b88cf27a8cb81de2135f8c0e778188e33a7d63898476fafffa3bafb903bc819698ac129a6c58fd02f3bf6cee97616803da9d836964961a1f1adb4f59e35c6176784c32ba4c78dd22d39f4cceb7414823fabda34944b63a3f3afb6f79c37c4156586c52da2c18bd42b3ff2caed72128439addc32924d65a5f5a9b0f19a31c2136380c72fa0c389d6293df0c8ef7010863bafde30904f67a7f7abb2f39833c0116182c921aecd87d82733fec6e17e1e8835a1d03e9e4169a9f9a5bcfd963dce1f6f8ccb23accf85da2531fcc4e37c1c8a37a3d23c9c436babfba7beff943fcc1d6d8ecd25aac983dc2337fac2e57a1a8c31a5d43a9a456dadfda1b8f99239ca1b6b88cf27a8cb81de2135f8c0e778188e33a7d63898476fafffa3bafb903bc819698ac129a6c58fd02f3bf6cee97616803da9d836964961a1f1adb4f59e35c6176784c32ba4c78dd22d39f4cceb7414823fabda34944b63a3f3afb6f79c37c4156586c52da2c18bd42b3ff2caed72128439addc32924d65a5f5a9b0f19a31c2136380c72fa0c389d6293df0c8ef7010863bafde30904f67a7f7abb2f39833c0116182c921aecd87d82733fec6e17e1e8835a1d03e9e4169a9f9a5bcfd963dce1f6f8ccb23accf85da2531fcc4e37c1c8a37a3d23c9c436babfba7beff943fcc1d6d8ecd25aac983dc2337fac2e57a1a8c31a5d43a9a456dadfda1b8f99239ca1b6b88cf27a8cb81de2135f8c0e778188e33a7d63898476fafffa3bafb903bc819698ac129a6c58fd02f3bf6cee97616803da9d836964961a1f1adb4f59e35c6176784c32ba4c78dd22d39f4cceb7414823fabda34944b63a3f3afb6f79c37c4156586c52da2c18bd42b3ff2caed72128439addc32924d65a5f5a9b0f19a31c2136380c72fa0c389d6293df0c8ef7010863bafde30904f67a7f7abb2f39833c0116182c921aecd87d82733fec6e17e1e8835a1d45135036886cfbcbd4a9ac42661a001a1b8cd09adefcc6869e00afc91ecdf0f7",
        "type": "nulldata"
      }
    }
  ],
  "blockhash": "d7a7b9a6fa9b7eeca4ed3b292cd4c21f070551bfab2aaeca0619c41458c07723",
  "confirmations": 1,
  "time": 1764178593,
  "blocktime": 1764178593
}