{
  "hex": "010000000001019bb222633c5820f32e6aa5d44a8f0535705b194741c38764a3da7b4645ed380e0100000000feffffff0200774227792d0000225120aeb4655249fc23440d0b22aa1e78733b0cb22974478e14fad5ca72577ccda19900e1f50500000000fdd5046a20c944285ce0859e724212f482fc72491d13872f71b9d7f3d8961df38e69e67c5d4db0042aed7202b6a17d011171cee5fe885aee67aa800a2388cf55749aab0d74321afe0acd522296815d213151eec5dea87ace478aa02a03a8ef7554ba8b2d54123ade6aad3242f6e13d4151318ea5bec81aae27eac04a63c88f1534daeb4d34725abe4a8d1262d6c11d617111ae859ee83a8e07cae06a43e8af3514facb6d14527a9eaa6df2823621fd8191f14e657e08da6ee72a008aa3084fd5f41a2b8df4b29a7e8a4dd2a21601dda1b1d16e455e28fa4ec70a20aa83286ff5d43a0badd492ba5eea2db2c27661bdc1d1b10e253e489a2ea76a40cae3480f95b45a6bcdb4f2da3eca0d92e256419de1f1912e051e68ba0e874a60eac3682fb5947a4bed94d2fa1e2aed7202b6a17d011171cee5fe885aee67aa800a2388cf55749aab0d74321afe0acd522296815d213151eec5dea87ace478aa02a03a8ef7554ba8b2d54123ade6aad3242f6e13d4151318ea5bec81aae27eac04a63c88f1534daeb4d34725abe4a8d1262d6c11d617111ae859ee83a8e07cae06a43e8af3514facb6d14527a9eaa6df2823621fd8191f14e657e08da6ee72a008aa3084fd5f41a2b8df4b29a7e8a4dd2a21601dda1b1d16e455e28fa4ec70a20aa83286ff5d43a0badd492ba5eea2db2c27661bdc1d1b10e253e489a2ea76a40cae3480f95b45a6bcdb4f2da3eca0d92e256419de1f1912e051e68ba0e874a60eac3682fb5947a4bed94d2fa1e2aed7202b6a17d011171cee5fe885aee67aa800a2388cf55749aab0d74321afe0acd522296815d213151eec5dea87ace478aa02a03a8ef7554ba8b2d54123ade6aad3242f6e13d4151318ea5bec81aae27eac04a63c88f1534daeb4d34725abe4a8d1262d6c11d617111ae859ee83a8e07cae06a43e8af3514facb6d14527a9eaa6df2823621fd8191f14e657e08da6ee72a008aa3084fd5f41a2b8df4b29a7e8a4dd2a21601dda1b1d16e455e28fa4ec70a20aa83286ff5d43a0badd492ba5eea2db2c27661bdc1d1b10e253e489a2ea76a40cae3480f95b45a6bcdb4f2da3eca0d92e256419de1f1912e051e68ba0e874a60eac3682fb5947a4bed94d2fa1e2aed7202b6a17d011171cee5fe885aee67aa800a2388cf55749aab0d74321afe0acd522296815d213151eec5dea87ace478aa02a03a8ef7554ba8b2d54123ade6aad3242f6e13d4151318ea5bec81aae27eac04a63c88f1534daeb4d34725abe4a8d1262d6c11d617111ae859ee83a8e07cae06a43e8af3514facb6d14527a9eaa6df2823621fd8191f14e657e08da6ee72a008aa3084fd5f41a2b8df4b29a7e8a4dd2a21601dda1b1d16e455e28fa4ec70a20aa83286ff5d43a0badd492ba5eea2db2c27661bdc1d1b10e253e489a2ea76a40cae3480f95b45a6bcdb4f2da3eca0d92e256419de1f1912e051e68ba0e874a60eac3682fb5947a4bed94d2fa1e2aed7202b6a17d011171cee5fe885aee67aa800a2388cf55749aab0d74321afe0acd522296815d213151eec5dea87ace478aa02a03a8ef7554ba8b2d54123ade6aad3242f6e13d4151318ea5bec81aae27eac04a63c88f1534daeb4d34725abe4a8d1262d6c11d617111ae859ee83a8e07cae06a43e8af3514facb6d14527a9eaa6df2823621fd8191f14e657e08da6efea783b0721acd509df2fb583eb38923271fb3341ffb6c438828158b1ff465be02fd75099418af302072e7182b93f38e984fa1711c0bd22962318d4508b4d0111788c210b5ab8d2ea9bcb7ece913879e486becaeb52c1e4ce5ca64d884e59083d193d738a82ed91fb70491d8eca5f1243d71431a7a33ce5bd8e80604f1e62417bb4fe98cce9be1fe426f407acc654357036b6dccaea5161a7d67e0a1abe5575962726cabc8e5546157c34eb4191eb06c57f09066da99bcf40635fbd77b19a1496f0f725502f91f23bad730220255981f043b22e949b28eef52064ef92132f348c3f6ac7ab907d0db4e6ed834b48479be5be05a6b25867a63003d11bb048be4656e91f9669e990e1a4f63002b1b7f1e4674d1a4c2383f8213588e7f011773a185af9cc95c8889bfb770d8e1e6946c110af85139dd0c9278647778b7181359c84deb91b5463543b98a39569ca66a270ecc5e063cc2ef419739230a08ca5671d1140c93119cd1cdfdedd78ea6bf9874f474f7dbcc4bebf747514f1d3561242debf35a92961cdc580f9f0a2e990cdeb9d38a8be9e104f2889b520c5187593a491c5bc645942743986a04deec55e909fa25a7c2401247f36e650aac09a402bfd65c0f62c8178a79eae3ef4ce8081b8b7446ff85746cc15b0e9bfb17117a20d6b7a08a22779981cbac0ea1b39320ef621d4979c6f18e04f526e5af0804bcce4c08a954c11aee3ec2721e82a2179914ec87a2e6d9ff29624ae6b04bf7836f2a81fb2e9133e5bf2382c779002e8aa1da5df4c82f2d478a4565a0082a42df3ad18ef716797605a442a828e9d98e7569e7fb844e44f55bae891f393a9039464dfe55d1c11c28b0b9af5863c515504c22b86ccb416de59ade84ade2d28b121b80b1bab12a03564583640f5864cb9ff388a2f4885cc03fce9898b52e032f3e401c9ec43148a1d70b1fef9dfabf55914a3ce6b209c010a95d8451af7c2aff8b771411839d1cd3ed1004eae7ffc84d3ae45782f3b4a3be54e4b789085e4530160692281a3cc45cde970b6ac1d57f6e88d549af7899940cd83858f1d16e890667f7c235c1187822ea4e893dae2869ef6ed05266210701ea9fa50e6bd1bfa6666a6ce80d064913fb2fe4f67f3bf235dd0732a2c32acdc4e430bbd511415e9372a5c8db27b680950e3030689ddc7bd5f09d8e7c2e0bc743e2fe166220e7cd51bb7db70e56f73e0c0453bf6fc160ddeee0f4861b986231c3c0c5c4e15654162afc03d1ca321e0b5aa94f25c543a5a716585b300fe0b81f8d44314562be5c35b859d0ae64ddec6f8314f5e504d6f0922590b0733710bea19a9db96fb2616197a3df34499b019e466d6a75d2a4199e76c9a38411111cb9654720147e388111451700eefefbc2bf9d010cd2a634d95704274ff8b3df248126613f280dc2c529471c8c975cf1e9dbc1630c551a04a701eadb6776d44e368144ce148f872d8d46ddb8892c375c565254282f917bd887f8a1af2c70cdfe18ba2d391c84f5942c480d0e6e47aee82814e0c0369c011c85ef3c113337f4dba88f3c3ba632d51e2fc56f38349eedc13a1174ce098bb4764ab49c2e67b66009b821da1c743f26556c4eb0b134f435d66a9bdd42431b2f0efd13498fc4968b2273603da13762e15ffc4562881a2e7eba609f8cb0e70ab89a3a1d215e3ae1fdd93b109586f51d6f959c8c96b7247c3166c9c24fe37cf96f5902f43ba260228badc8390631148d56691fd07185a4879c52f8c3b300775572780c98751faf0e9b75b228adcba37d382d7310db11f682f84c845789046d52ac9afc5885ee9f21a0f76e2ce85f36c3ce59c870d7dfbf660a505995d62bd75c49a1cfd8d2701e69dc7d7bc8a01eb782f157e11bd25cadf4d8ed814ebaea08d61dcc0b26c244048cf80ac3beafa928e363c2295bf11e27df2902da5490aea6a64fdd20e1e0cc6619cc89f9e78ec3b8da14a703defdb48c8a960a72117f524bfd910e0dab811eeca89ea6e7cff14e4a46fc4b644e1f5fcededa597936a17df1408db9721ea153b4e999a8f32e10a0fc3c8954742996abf1e593aa6d07e37ad3bdbc2f1a0e63d96fbd55623ed941e8f7887f1c3c730f9d011b630fccfe25889489cd48a437eeb5e013ca253956f079c470a1daa32836a8b0c80757e5280b15b6d954ade4c7cb980a2cd1d94c024323e6b9bcb6ca751f5c7193f1b1bd6d37ebca604e7fcb7276752f879f7aa46e401558f1d2a965157b24294ba29275bc423a5720f1a450582e04fc54dcc8450bb4f6e76d5938c39eca7eac6324530b4a85462dd64ca6bfa28be896d096e9e9facc22ac706323df5dfc8154feb2e54faa52a0654b0540024c90cd18a17a7d200fcd1eb8c2a117ea51d848857f321e9621154cac30064762dadd5296db814a6a5724d0009a8c212de86e5284c797c4a3b478370614f510b544af81d1fa1181bbdfa3a9aa494c126d8bdb7663d3aa32ee34b856ec5aa8b43aed14ba62432707fb146266f5c32b9fb9a3cf700b32feaf6606612d5691f105bb82d069ec0d2bd504aee1fb41da7bd2bd82895fe437d7fc702077a82eef8c8c8a8845d90bdd15a81719ee0d098f15ae608cd11baf5b1634ecb1d6ba48abe5307cd78d375976b0ea94c691f3a9e453ed6f8937171b10f954ec8e00bbe7afa08c614872979c15bb2779b34f8a54d88676968dc64292a766eb87fd7e9d49b7ac87edd7b831e2190c2e38858c9e95c147f15cdb175bd8fe30705dda4c6952e48466b57d4bdbe3a95c0b0141395784a3ef399d3cb05d52466105c71a7d494a88a7d442323dcc70af0b78c7f55f5a6a8bfdf543250ec67d397cf169aa080cfa8c04e9c0bfb2e85a0081a75bd501e2f796a2c7e1c98baa1089576dd7641515e0b7876884aec99d95d71028624b8247b48aa6c393df9ade13aa4f5ead119625f45357ec89a8bd376e45ef87652117dc45f5b88808b80baac0ede72f6b6a7859d1a2c5b38464e3063a3cc8dd35e16adefd42a2aeb5bd6b5fe1e8cbbb8eab0daca4b1df897ff57ed0d5b8da9ed525c6b8174f5cdb9363d448da7065ee8aef2310636ad5cfa63e700a23ea802e787532401c6049826e778baf29bef27bf210b65217389d0bbc0fe42fce89b7907a846372c01cd642020121341f4aed8eaaf50c64b05f0b5d23af294d686045c4422f755259f9ddbe36deaacaaa983b61bdfb90e8e19e34c41858e0e33f9e3772c71de68b4d5d513cf4e11be213523f49772abd393788cd8bc4cf1d545ffea7c56dbe1087228a6d4256d33a7a986d99a71ffad1b8ba2e85f2b3b8cedb0118f4ce8d14af82a51309604e5a7e76114235a490e92e30ee40dda8e806171b2a4b4f818f97b2fc0311414672919a9d9ea3a8dd040a0c0e2b33414f67787c7d8692939db4cbd0d3f4040d1e2a31425a5b69828995b3c0e7f600000000000000000000000000000000000000000b172c3c01fd2105008fa5ecf8224a0c93d060de295479e14ac99b00a99bbeeadfe40aa4ca5dab1c1fbd4ed80bd0149d8b1d791bf83bf3153aa3f4569a9000c89550c00528dc7b531eed11af6b310a59396bb348aa85c36470f0eaea9187b78f5c5a583fb2bd41dbfe2b0adb99e0802641ee4210905eaa5288b96d71af4a2d7b7dc2a12a5a804fb433e882e91a4593097ac2a2b5cc11aecfd2c19134a3b083d81d0c5f33885035dba85940be5353aa7456f3901da8565bb76a56da00a1772b465b80df7f3ef7a5f8121d557b138177b78c60afa99187bd48df388e8ca407ba83a29430d0165cdad0330f44109a3030535146c2ea8dde735ea08b6532faa0cf7e8ff6d76287e73ebcc0a69c268ae4117cb9b60a5af3b7e82329a8004f0e8be8cc5991d21fc743b8907dcfb561f7cd9ad4bcd0dcd7e0331600a902e6ec019b25094594e2c2fa2c0db65387c9632c67f4292ea736a54da4c4d7dec909cf6a80f3259c9f0027027b34e6cc82c3d4f563f8fcfbf3c2416749451e1703698c9b8279397f33ae289528a391025d18b4047ba1bd2643f6e3422f192048d287180364f4f4c8314171846780732399d0182ab25083817c6d10208eee2b4675d8c6e87093744fccad874ba208468c3e6cd3bf2040223b498919dc854cb1cb561ce2a8f01c591694bf47adb1c5a1de374c8b7738a6031f044e514bb4a5e679d6775f7c34fdf03b419133fd3e2ee03bc4ea8bcf73fb627abcbf29d091e1439616556062e00ea18ad9966c0a1f7858eae1b210c894c3c121792592f72539919c178a89237a3089e728199122cee366821da16ffa7a50a16758d0fdae06d9109a22a63c9f525e37abc11c20a4dc0f88c9f1b80e93ab84970e558b0ae475cf423dd06bd8e507f05d8adc687b084c1115d71bf1b4eb4aaa4735c4fe631be004c29dd033997f6f59c8848a3436391be1fff07dfdc72e26289db0c715c87d89baa22e453d86014a80f753353a081997c071ffbdba43553b2537f879db9da56418d2df42a2810c773d3cf4738fbe5c3ba18907250e5675ea4079e86fe3417a1e4dc60b79a482d3d4714a936847972d6f9d4d8beb1c425d180d90a56ef07f31530c8578b7a5fa62b12f57502e88afe7401847ee69eb1cde79222b9581e68c300cd6e6431b8b40b46cc561c4a5a82174224133c265042c952da362ed795f457918d731f188f0486889214e10b14ea0c8c7863f13dd547234ae309bf1d4606028e46992f2362f735f664f1e7ec4b1223762d798d79481f241906b40377b291d966b4485cccd89e11f0fa67d5320e20f70112cb5d552f7cb75943ec41a1bea309f6d1919928070301ab1bf792ba2239eb9675bd10804e8d0b5b8ddb1ca8a8732145bb86d6b3ae3a5a7c51be7e4d783ee8605899ec69e27812dba699dda06f41d61459021691f3f7d4c3d50c0f88563588218868970ab60d1c74393cdad6671cd2c6dd1594e4bea2f2b1f2fe5ebda7a843f13ee137de52c5fe8d495fccac00e7378c3737554f97af26fdf37703b86642701a3b0a104e0ceb2292e9cf9e39a1d1f5cfbab86cd5abe02a07707f2d517b614cb7a93adc2b56d3c29aef81de695a52cf66844fb7402d9b0e986f7524c0aabac823d1c710cc960970b8dc390ee0809d0c05b769984e8e0a7da90c91eeb91527fdb6f747fbe240d66349ec423d21d12e7b0021652c8ffb9d62284901e58dc979dbe59c97bb6d30c4debe5b49cc54d5bc90f345dbeb4caef01fd02e9c29d658f833d2edb875ebeb8c7a689472bd84546afdaac6a9da7b75a796e9c59e5028d157c35f21fe141562791766a5e1a9e53abdeb7af9bbde1ef4c25794a2ac513d61685d8eb19764472000000",
  "txid": "b51f996cbac687bade50e4ca49b885b5e0c0159493166527dc29ddbfc5a8afe1",
  "hash": "27d4f6fe4b2e8d7bcf01cbe2c02cd53d1eee32fb59a65d79e459bb8f54b57c76",
  "size": 5085,
  "vsize": 2278,
  "version": 1,
  "locktime": 114,
  "vin": [
    {
      "txid": "0e38ed45467bdaa36487c34147195b7035058f4ad4a56a2ef320583c6322b29b",
      "vout": 1,
      "scriptSig": {
        "asm": "",
        "hex": ""
      },
      "txinwitness": [
        "9418af302072e7182b93f38e984fa1711c0bd22962318d4508b4d0111788c210b5ab8d2ea9bcb7ece913879e486becaeb52c1e4ce5ca64d884e59083d193d738a82ed91fb70491d8eca5f1243d71431a7a33ce5bd8e80604f1e62417bb4fe98cce9be1fe426f407acc654357036b6dccaea5161a7d67e0a1abe5575962726cabc8e5546157c34eb4191eb06c57f09066da99bcf40635fbd77b19a1496f0f725502f91f23bad730220255981f043b22e949b28eef52064ef92132f348c3f6ac7ab907d0db4e6ed834b48479be5be05a6b25867a63003d11bb048be4656e91f9669e990e1a4f63002b1b7f1e4674d1a4c2383f8213588e7f011773a185af9cc95c8889bfb770d8e1e6946c110af85139dd0c9278647778b7181359c84deb91b5463543b98a39569ca66a270ecc5e063cc2ef419739230a08ca5671d1140c93119cd1cdfdedd78ea6bf9874f474f7dbcc4bebf747514f1d3561242debf35a92961cdc580f9f0a2e990cdeb9d38a8be9e104f2889b520c5187593a491c5bc645942743986a04deec55e909fa25a7c2401247f36e650aac09a402bfd65c0f62c8178a79eae3ef4ce8081b8b7446ff85746cc15b0e9bfb17117a20d6b7a08a22779981cbac0ea1b39320ef621d4979c6f18e04f526e5af0804bcce4c08a954c11aee3ec2721e82a2179914ec87a2e6d9ff29624ae6b04bf7836f2a81fb2e9133e5bf2382c779002e8aa1da5df4c82f2d478a4565a0082a42df3ad18ef716797605a442a828e9d98e7569e7fb844e44f55bae891f393a9039464dfe55d1c11c28b0b9af5863c515504c22b86ccb416de59ade84ade2d28b121b80b1bab12a03564583640f5864cb9ff388a2f4885cc03fce9898b52e032f3e401c9ec43148a1d70b1fef9dfabf55914a3ce6b209c010a95d8451af7c2aff8b771411839d1cd3ed1004eae7ffc84d3ae45782f3b4a3be54e4b789085e4530160692281a3cc45cde970b6ac1d57f6e88d549af7899940cd83858f1d16e890667f7c235c1187822ea4e893dae2869ef6ed05266210701ea9fa50e6bd1bfa6666a6ce80d064913fb2fe4f67f3bf235dd0732a2c32acdc4e430bbd511415e9372a5c8db27b680950e3030689ddc7bd5f09d8e7c2e0bc743e2fe166220e7cd51bb7db70e56f73e0c0453bf6fc160ddeee0f4861b986231c3c0c5c4e15654162afc03d1ca321e0b5aa94f25c543a5a716585b300fe0b81f8d44314562be5c35b859d0ae64ddec6f8314f5e504d6f0922590b0733710bea19a9db96fb2616197a3df34499b019e466d6a75d2a4199e76c9a38411111cb9654720147e388111451700eefefbc2bf9d010cd2a634d95704274ff8b3df248126613f280dc2c529471c8c975cf1e9dbc1630c551a04a701eadb6776d44e368144ce148f872d8d46ddb8892c375c565254282f917bd887f8a1af2c70cdfe18ba2d391c84f5942c480d0e6e47aee82814e0c0369c011c85ef3c113337f4dba88f3c3ba632d51e2fc56f38349eedc13a1174ce098bb4764ab49c2e67b66009b821da1c743f26556c4eb0b134f435d66a9bdd42431b2f0efd13498fc4968b2273603da13762e15ffc4562881a2e7eba609f8cb0e70ab89a3a1d215e3ae1fdd93b109586f51d6f959c8c96b7247c3166c9c24fe37cf96f5902f43ba260228badc8390631148d56691fd07185a4879c52f8c3b300775572780c98751faf0e9b75b228adcba37d382d7310db11f682f84c845789046d52ac9afc5885ee9f21a0f76e2ce85f36c3ce59c870d7dfbf660a505995d62bd75c49a1cfd8d2701e69dc7d7bc8a01eb782f157e11bd25cadf4d8ed814ebaea08d61dcc0b26c244048cf80ac3beafa928e363c2295bf11e27df2902da5490aea6a64fdd20e1e0cc6619cc89f9e78ec3b8da14a703defdb48c8a960a72117f524bfd910e0dab811eeca89ea6e7cff14e4a46fc4b644e1f5fcededa597936a17df1408db9721ea153b4e999a8f32e10a0fc3c8954742996abf1e593aa6d07e37ad3bdbc2f1a0e63d96fbd55623ed941e8f7887f1c3c730f9d011b630fccfe25889489cd48a437eeb5e013ca253956f079c470a1daa32836a8b0c80757e5280b15b6d954ade4c7cb980a2cd1d94c024323e6b9bcb6ca751f5c7193f1b1bd6d37ebca604e7fcb7276752f879f7aa46e401558f1d2a965157b24294ba29275bc423a5720f1a450582e04fc54dcc8450bb4f6e76d5938c39eca7eac6324530b4a85462dd64ca6bfa28be896d096e9e9facc22ac706323df5dfc8154feb2e54faa52a0654b0540024c90cd18a17a7d200fcd1eb8c2a117ea51d848857f321e9621154cac30064762dadd5296db814a6a5724d0009a8c212de86e5284c797c4a3b478370614f510b544af81d1fa1181bbdfa3a9aa494c126d8bdb7663d3aa32ee34b856ec5aa8b43aed14ba62432707fb146266f5c32b9fb9a3cf700b32feaf6606612d5691f105bb82d069ec0d2bd504aee1fb41da7bd2bd82895fe437d7fc702077a82eef8c8c8a8845d90bdd15a81719ee0d098f15ae608cd11baf5b1634ecb1d6ba48abe5307cd78d375976b0ea94c691f3a9e453ed6f8937171b10f954ec8e00bbe7afa08c614872979c15bb2779b34f8a54d88676968dc64292a766eb87fd7e9d49b7ac87edd7b831e2190c2e38858c9e95c147f15cdb175bd8fe30705dda4c6952e48466b57d4bdbe3a95c0b0141395784a3ef399d3cb05d52466105c71a7d494a88a7d442323dcc70af0b78c7f55f5a6a8bfdf543250ec67d397cf169aa080cfa8c04e9c0bfb2e85a0081a75bd501e2f796a2c7e1c98baa1089576dd7641515e0b7876884aec99d95d71028624b8247b48aa6c393df9ade13aa4f5ead119625f45357ec89a8bd376e45ef87652117dc45f5b88808b80baac0ede72f6b6a7859d1a2c5b38464e3063a3cc8dd35e16adefd42a2aeb5bd6b5fe1e8cbbb8eab0daca4b1df897ff57ed0d5b8da9ed525c6b8174f5cdb9363d448da7065ee8aef2310636ad5cfa63e700a23ea802e787532401c6049826e778baf29bef27bf210b65217389d0bbc0fe42fce89b7907a846372c01cd642020121341f4aed8eaaf50c64b05f0b5d23af294d686045c4422f755259f9ddbe36deaacaaa983b61bdfb90e8e19e34c41858e0e33f9e3772c71de68b4d5d513cf4e11be213523f49772abd393788cd8bc4cf1d545ffea7c56dbe1087228a6d4256d33a7a986d99a71ffad1b8ba2e85f2b3b8cedb0118f4ce8d14af82a51309604e5a7e76114235a490e92e30ee40dda8e806171b2a4b4f818f97b2fc0311414672919a9d9ea3a8dd040a0c0e2b33414f67787c7d8692939db4cbd0d3f4040d1e2a31425a5b69828995b3c0e7f600000000000000000000000000000000000000000b172c3c01",
        "008fa5ecf8224a0c93d060de295479e14ac99b00a99bbeeadfe40aa4ca5dab1c1fbd4ed80bd0149d8b1d791bf83bf3153aa3f4569a9000c89550c00528dc7b531eed11af6b310a59396bb348aa85c36470f0eaea9187b78f5c5a583fb2bd41dbfe2b0adb99e0802641ee4210905eaa5288b96d71af4a2d7b7dc2a12a5a804fb433e882e91a4593097ac2a2b5cc11aecfd2c19134a3b083d81d0c5f33885035dba85940be5353aa7456f3901da8565bb76a56da00a1772b465b80df7f3ef7a5f8121d557b138177b78c60afa99187bd48df388e8ca407ba83a29430d0165cdad0330f44109a3030535146c2ea8dde735ea08b6532faa0cf7e8ff6d76287e73ebcc0a69c268ae4117cb9b60a5af3b7e82329a8004f0e8be8cc5991d21fc743b8907dcfb561f7cd9ad4bcd0dcd7e0331600a902e6ec019b25094594e2c2fa2c0db65387c9632c67f4292ea736a54da4c4d7dec909cf6a80f3259c9f0027027b34e6cc82c3d4f563f8fcfbf3c2416749451e1703698c9b8279397f33ae289528a391025d18b4047ba1bd2643f6e3422f192048d287180364f4f4c8314171846780732399d0182ab25083817c6d10208eee2b4675d8c6e87093744fccad874ba208468c3e6cd3bf2040223b498919dc854cb1cb561ce2a8f01c591694bf47adb1c5a1de374c8b7738a6031f044e514bb4a5e679d6775f7c34fdf03b419133fd3e2ee03bc4ea8bcf73fb627abcbf29d091e1439616556062e00ea18ad9966c0a1f7858eae1b210c894c3c121792592f72539919c178a89237a3089e728199122cee366821da16ffa7a50a16758d0fdae06d9109a22a63c9f525e37abc11c20a4dc0f88c9f1b80e93ab84970e558b0ae475cf423dd06bd8e507f05d8adc687b084c1115d71bf1b4eb4aaa4735c4fe631be004c29dd033997f6f59c8848a3436391be1fff07dfdc72e26289db0c715c87d89baa22e453d86014a80f753353a081997c071ffbdba43553b2537f879db9da56418d2df42a2810c773d3cf4738fbe5c3ba18907250e5675ea4079e86fe3417a1e4dc60b79a482d3d4714a936847972d6f9d4d8beb1c425d180d90a56ef07f31530c8578b7a5fa62b12f57502e88afe7401847ee69eb1cde79222b9581e68c300cd6e6431b8b40b46cc561c4a5a82174224133c265042c952da362ed795f457918d731f188f0486889214e10b14ea0c8c7863f13dd547234ae309bf1d4606028e46992f2362f735f664f1e7ec4b1223762d798d79481f241906b40377b291d966b4485cccd89e11f0fa67d5320e20f70112cb5d552f7cb75943ec41a1bea309f6d1919928070301ab1bf792ba2239eb9675bd10804e8d0b5b8ddb1ca8a8732145bb86d6b3ae3a5a7c51be7e4d783ee8605899ec69e27812dba699dda06f41d61459021691f3f7d4c3d50c0f88563588218868970ab60d1c74393cdad6671cd2c6dd1594e4bea2f2b1f2fe5ebda7a843f13ee137de52c5fe8d495fccac00e7378c3737554f97af26fdf37703b86642701a3b0a104e0ceb2292e9cf9e39a1d1f5cfbab86cd5abe02a07707f2d517b614cb7a93adc2b56d3c29aef81de695a52cf66844fb7402d9b0e986f7524c0aabac823d1c710cc960970b8dc390ee0809d0c05b769984e8e0a7da90c91eeb91527fdb6f747fbe240d66349ec423d21d12e7b0021652c8ffb9d62284901e58dc979dbe59c97bb6d30c4debe5b49cc54d5bc90f345dbeb4caef01fd02e9c29d658f833d2edb875ebeb8c7a689472bd84546afdaac6a9da7b75a796e9c59e5028d157c35f21fe141562791766a5e1a9e53abdeb7af9bbde1ef4c25794a2ac513d61685d8eb197644"
      ],
      "sequence": 4294967294
    }
  ],
  "vout": [
    {
      "value": 499983.7296,
      "n": 0,
      "scriptPubKey": {
        "asm": "1 aeb4655249fc23440d0b22aa1e78733b0cb22974478e14fad5ca72577ccda199",
        "hex": "5120aeb4655249fc23440d0b22aa1e78733b0cb22974478e14fad5ca72577ccda199",
        "reqSigs": 1,
        "type": "witness_v1_scripthash",
        "addresses": [
          "3QJmnh"
        ]
      }
    },
    {
      "value": 1.0,
      "n": 1,
      "scriptPubKey": {
        "asm": "OP_RETURN c944285ce0859e724212f482fc72491d13872f71b9d7f3d8961df38e69e67c5d 2aed7202b6a17d011171cee5fe885aee67aa800a2388cf55749aab0d74321afe0acd522296815d213151eec5dea87ace478aa02a03a8ef7554ba8b2d54123ade6aad3242f6e13d4151318ea5bec81aae27eac04a63c88f1534daeb4d34725abe4a8d1262d6c11d617111ae859ee83a8e07cae06a43e8af3514facb6d14527a9eaa6df2823621fd8191f14e657e08da6ee72a008aa3084fd5f41a2b8df4b29a7e8a4dd2a21601dda1b1d16e455e28fa4ec70a20aa83286ff5d43a0badd492ba5eea2db2c27661bdc1d1b10e253e489a2ea76a40cae3480f95b45a6bcdb4f2da3eca0d92e256419de1f1912e051e68ba0e874a60eac3682fb5947a4bed94d2fa1e2aed7202b6a17d011171cee5fe885aee67aa800a2388cf55749aab0d74321afe0acd522296815d213151eec5dea87ace478aa02a03a8ef7554ba8b2d54123ade6aad3242f6e13d4151318ea5bec81aae27eac04a63c88f1534daeb4d34725abe4a8d1262d6c11d617111ae859ee83a8e07cae06a43e8af3514facb6d14527a9eaa6df2823621fd8191f14e657e08da6ee72a008aa3084fd5f41a2b8df4b29a7e8a4dd2a21601dda1b1d16e455e28fa4ec70a20aa83286ff5d43a0badd492ba5eea2db2c27661bdc1d1b10e253e489a2ea76a40cae3480f95b45a6bcdb4f2da3eca0d92e256419de1f1912e051e68ba0e874a60eac3682fb5947a4bed94d2fa1e2aed7202b6a17d011171cee5fe885aee67aa800a2388cf55749aab0d74321afe0acd522296815d213151eec5dea87ace478aa02a03a8ef7554ba8b2d54123ade6aad3242f6e13d4151318ea5bec81aae27eac04a63c88f1534daeb4d34725abe4a8d1262d6c11d617111ae859ee83a8e07cae06a43e8af3514facb6d14527a9eaa6df2823621fd8191f14e657e08da6ee72a008aa3084fd5f41a2b8df4b29a7e8a4dd2a21601dda1b1d16e455e28fa4ec70a20aa83286ff5d43a0badd492ba5eea2db2c27661bdc1d1b10e253e489a2ea76a40cae3480f95b45a6bcdb4f2da3eca0d92e256419de1f1912e051e68ba0e874a60eac3682fb5947a4bed94d2fa1e2aed7202b6a17d011171cee5fe885aee67aa800a2388cf55749aab0d74321afe0acd522296815d213151eec5dea87ace478aa02a03a8ef7554ba8b2d54123ade6aad3242f6e13d4151318ea5bec81aae27eac04a63c88f1534daeb4d34725abe4a8d1262d6c11d617111ae859ee83a8e07cae06a43e8af3514facb6d14527a9eaa6df2823621fd8191f14e657e08da6ee72a008aa3084fd5f41a2b8df4b29a7e8a4dd2a21601dda1b1d16e455e28fa4ec70a20aa83286ff5d43a0badd492ba5eea2db2c27661bdc1d1b10e253e489a2ea76a40cae3480f95b45a6bcdb4f2da3eca0d92e256419de1f1912e051e68ba0e874a60eac3682fb5947a4bed94d2fa1e2aed7202b6a17d011171cee5fe885aee67aa800a2388cf55749aab0d74321afe0acd522296815d213151eec5dea87ace478aa02a03a8ef7554ba8b2d54123ade6aad3242f6e13d4151318ea5bec81aae27eac04a63c88f1534daeb4d34725abe4a8d1262d6c11d617111ae859ee83a8e07cae06a43e8af3514facb6d14527a9eaa6df2823621fd8191f14e657e08da6efea783b0721acd509df2fb583eb38923271fb3341ffb6c438828158b1ff465be",
        "hex": "6a20c944285ce0859e724212f482fc72491d13872f71b9d7f3d8961df38e69e67c5d4db0042aed7202b6a17d011171cee5fe885aee67aa800a2388cf55749aab0d74321afe0acd522296815d213151eec5dea87ace478aa02a03a8ef7554ba8b2d54123ade6aad3242f6e13d4151318ea5bec81aae27eac04a63c88f1534daeb4d34725abe4a8d1262d6c11d617111ae859ee83a8e07cae06a43e8af3514facb6d14527a9eaa6df2823621fd8191f14e657e08da6ee72a008aa3084fd5f41a2b8df4b29a7e8a4dd2a21601dda1b1d16e455e28fa4ec70a20aa83286ff5d43a0badd492ba5eea2db2c27661bdc1d1b10e253e489a2ea76a40cae3480f95b45a6bcdb4f2da3eca0d92e256419de1f1912e051e68ba0e874a60eac3682fb5947a4bed94d2fa1e2aed7202b6a17d011171cee5fe885aee67aa800a2388cf55749aab0d74321afe0acd522296815d213151eec5dea87ace478aa02a03a8ef7554ba8b2d54123ade6aad3242f6e13d4151318ea5bec81aae27eac04a63c88f1534daeb4d34725abe4a8d1262d6c11d617111ae859ee83a8e07cae06a43e8af3514facb6d14527a9eaa6df2823621fd8191f14e657e08da6ee72a008aa3084fd5f41a2b8df4b29a7e8a4dd2a21601dda1b1d16e455e28fa4ec70a20aa83286ff5d43a0badd492ba5eea2db2c27661bdc1d1b10e253e489a2ea76a40cae3480f95b45a6bcdb4f2da3eca0d92e256419de1f1912e051e68ba0e874a60eac3682fb5947a4bed94d2fa1e2aed7202b6a17d011171cee5fe885aee67aa800a2388cf55749aab0d74321afe0acd522296815d213151eec5dea87ace478aa02a03a8ef7554ba8b2d54123ade6aad3242f6e13d4151318ea5bec81aae27eac04a63c88f1534daeb4d34725abe4a8d1262d6c11d617111ae859ee83a8e07cae06a43e8af3514facb6d14527a9eaa6df2823621fd8191f14e657e08da6ee72a008aa3084fd5f41a2b8df4b29a7e8a4dd2a21601dda1b1d16e455e28fa4ec70a20aa83286ff5d43a0badd492ba5eea2db2c27661bdc1d1b10e253e489a2ea76a40cae3480f95b45a6bcdb4f2da3eca0d92e256419de1f1912e051e68ba0e874a60eac3682fb5947a4bed94d2fa1e2aed7202b6a17d011171cee5fe885aee67aa800a2388cf55749aab0d74321afe0acd522296815d213151eec5dea87ace478aa02a03a8ef7554ba8b2d54123ade6aad3242f6e13d4151318ea5bec81aae27eac04a63c88f1534daeb4d34725abe4a8d1262d6c11d617111ae859ee83a8e07cae06a43e8af3514facb6d14527a9eaa6df2823621fd8191f14e657e08da6ee72a008aa3084fd5f41a2b8df4b29a7e8a4dd2a21601dda1b1d16e455e28fa4ec70a20aa83286ff5d43a0badd492ba5eea2db2c27661bdc1d1b10e253e489a2ea76a40cae3480f95b45a6bcdb4f2da3eca0d92e256419de1f1912e051e68ba0e874a60eac3682fb5947a4bed94d2fa1e2aed7202b6a17d011171cee5fe885aee67aa800a2388cf55749aab0d74321afe0acd522296815d213151eec5dea87ace478aa02a03a8ef7554ba8b2d54123ade6aad3242f6e13d4151318ea5bec81aae27eac04a63c88f1534daeb4d34725abe4a8d1262d6c11d617111ae859ee83a8e07cae06a43e8af3514facb6d14527a9eaa6df2823621fd8191f14e657e08da6efea783b0721acd509df2fb583eb38923271fb3341ffb6c438828158b1ff465be",
        "type": "nulldata"
      }
    }
  ],
  "blockhash": "a404c97fd79b0f74ac8935f18e4afcd6ffd73e4b441b9f6bd67a7215b8c8499e",
  "confirmations": 1,
  "time": 1764178774,
  "blocktime": 1764178774
}