{
  "hex": "01000000000101fda0e944af57eb468e0165fcfd40e83be3abf4c919b65717800db16c19fd60460000000000feffffff029021522d792d000022512015a5a062ed0d614150409c477878aa1719382b02105d9fafbde1d0af0f1bd24700e1f50500000000fdd5046a20383944de30c4e6603a740f01b0bb92344551104a9e600e4269c9cbd699d21c774db0045976b3ad3ce0c10a9c0abf8b97b88c6596460e3bc2aecd0e3f916ae1828261867956938d1cc0e12abc2a9fabb798ac45b6662e1be28eed2e1fb14ac1a2a241a61936f3ed7ca0814adc4affcbd7f8cc25d6064e7b82ee8d4e7fd12aa1c2c221c63916d3cd5c80a16afc6adfebf7d8ec05f6266e5ba2cead6e5ff10a81e2e201e6d9f6332dbc60418a1c8a3f0b17380ce516c68ebb422e4d8ebf11ea610202e106f9d6130d9c4061aa3caa1f2b37182cc536e6ae9b620e6dae9f31ca412222c12699b6736dfc2001ca5cca7f4b57784ca55686cefb026e0dceff51aa214242a146b996534ddc0021ea7cea5f6b77586c8576a6eedb224e2deedf718a01626281665976b3ad3ce0c10a9c0abf8b97b88c6596460e3bc2aecd0e3f916ae1828261867956938d1cc0e12abc2a9fabb798ac45b6662e1be28eed2e1fb14ac1a2a241a61936f3ed7ca0814adc4affcbd7f8cc25d6064e7b82ee8d4e7fd12aa1c2c221c63916d3cd5c80a16afc6adfebf7d8ec05f6266e5ba2cead6e5ff10a81e2e201e6d9f6332dbc60418a1c8a3f0b17380ce516c68ebb422e4d8ebf11ea610202e106f9d6130d9c4061aa3caa1f2b37182cc536e6ae9b620e6dae9f31ca412222c12699b6736dfc2001ca5cca7f4b57784ca55686cefb026e0dceff51aa214242a146b996534ddc0021ea7cea5f6b77586c8576a6eedb224e2deedf718a01626281665976b3ad3ce0c10a9c0abf8b97b88c6596460e3bc2aecd0e3f916ae1828261867956938d1cc0e12abc2a9fabb798ac45b6662e1be28eed2e1fb14ac1a2a241a61936f3ed7ca0814adc4affcbd7f8cc25d6064e7b82ee8d4e7fd12aa1c2c221c63916d3cd5c80a16afc6adfebf7d8ec05f6266e5ba2cead6e5ff10a81e2e201e6d9f6332dbc60418a1c8a3f0b17380ce516c68ebb422e4d8ebf11ea610202e106f9d6130d9c4061aa3caa1f2b37182cc536e6ae9b620e6dae9f31ca412222c12699b6736dfc2001ca5cca7f4b57784ca55686cefb026e0dceff51aa214242a146b996534ddc0021ea7cea5f6b77586c8576a6eedb224e2deedf718a01626281665976b3ad3ce0c10a9c0abf8b97b88c6596460e3bc2aecd0e3f916ae1828261867956938d1cc0e12abc2a9fabb798ac45b6662e1be28eed2e1fb14ac1a2a241a61936f3ed7ca0814adc4affcbd7f8cc25d6064e7b82ee8d4e7fd12aa1c2c221c63916d3cd5c80a16afc6adfebf7d8ec05f6266e5ba2cead6e5ff10a81e2e201e6d9f6332dbc60418a1c8a3f0b17380ce516c68ebb422e4d8ebf11ea610202e106f9d6130d9c4061aa3caa1f2b37182cc536e6ae9b620e6dae9f31ca412222c12699b6736dfc2001ca5cca7f4b57784ca55686cefb026e0dceff51aa214242a146b996534ddc0021ea7cea5f6b77586c8576a6eedb224e2deedf718a01626281665976b3ad3ce0c10a9c0abf8b97b88c6596460e3bc2aecd0e3f916ae1828261867956938d1cc0e12abc2a9fabb798ac45b6662e1be28eed2e1fb14ac1a2a241a61936f3ed7ca0814adc4affcbd7f8cc25d6064e7b82ee8d4e7fd12aa1c2c221c63916d3cd5c80a16afc6adfebf7d8ec05f6266e5ba2cead6e5ff10a81e2e201e6d9f6332dbc60418a1c8a3f0b17380ce5a0564936132469891b35e96fe1d12f238293cb4bf35f039526ce7900510cc59802fd7509cea74513e9db614a4c45e7de34b11489454fb0b880fe193ba7d6ea4bf1b2380e62492ff9fea30cb23b36b722faa30fd2d9bcc5de6ae77b94d06d5a53ef2e4c375d405851d4bec8faaa057c0fa71f01554548e7722eb4c31ae4e79fa3a43526ce5fd19f4d88e50d75cc7ce63eedc4200b05b5ed99aee006747e5d80575c2a2c7cfe2b516c7f2766b05cea37134ec696ae995fdb19e6b5a319d86aacc6c2a7a9c694292971aaaa3013fd01add0cb667d61f9211c37acd513b9d4c229becdafb1542379de0fe240c5f95a4d0bfcdd9257173d88f2da147d8edf044edc75c5799c6d738ff9d124b4180f131ede81e42f49ba42e911a306626842b7278eae7956dbdcd6179b5f3d26f10f4177d73464b37e0db4d5d2920b619432a33e46e39a4fee612390bc6f37743872bb24acbeebc87db6181c3c47c0fa0e1923a0d1ef12abdf80e0f31d2a6c9a8fca66f42c47b0bdab016c96f949c4bb3a057ee8a652ed9f483ed03b9094995d215b6b53575b207e4d9e18e5e15565ba015c5082308c13bd7a70bf23e02f8768163a08a5d4499be2238bd050c3325aa8cc3a97a4c5ecf7557db77ad7822b8159e7cdaae4f61090e68413612bd44abfab1c8aa377373ac6459c3f43cfbbea6c40c77d393ac016dd6e3ba4080c6549cbb04abbb23bf2b3a88fad10bb010969ba5e2fc0d9384357f90620ea6b5bab491b9159ab6943d8223a23e6cfd4d9ec0a6fe49fabc3122ff3422c35e0e74b674b8b449a2c7cb5f1ce0f59e297037cdf5494d90d0411b6c56ab93582d3030ee10d4ebd6a9f2fb367b5d10ec591abc82599c9515c913e53c774a2feb1ed80ebc1ba8c3a1f60677717062d51b84288d495325ff5642d30539454fb98257d7ed3c5e42058842e5b519a17a3076c91f5dd09c6004025a3ab892c530f89fe7ca6e8baa6ed532f5b2f1b6efb5d20e2990f37f00d466f8e3d5a58010cf2b742bea351da4526908f3aef39b0342c556fbe684e0f89c7783199276d889578ca87c436edb3c88b3edefde67f290a62ed71b98375ebdc2edba07927621092930054ffa16159913c789fa687d0a6c6bde61f9f831903ec3cd77c0feea027ecc178f7017ef7cc6197aab7efbbb04f743b663f1bb0bcbccd5b6449df01a2d2aebd0f8a69cf1ff1a5429eceef9e9c3b8c4a364e8d3aec845605715dd3d73e8ca13060bc1aaa046ce4d415ef23d43ad68a277e9ebd682ea8b5f238074c5c0674a1f1629586fb97ac079b0ce6bca816806f0f68b2cdb9e318d83612dbca1cbc061843118c4c59aa90ec1d665f30d0627e0231dfb915581708b6766032c74fc65c5057ed00308995c60c6557864270cec95672a19abcf015d9819e5a7fc634c17bacf2f519fed2b7f9177805ecc153d6829103ff7bf98443ecc4e6d4b27f8118d6932cc013f85aaa6977bfa27bae08950f7c05d51d4eed4d04279ccc6c4fe80c08717d7df3c0fe7076e6da219b8574eeba98f24543995cca7f3f0255ba0e6d6282c65bed0ef5bbd4f067b7d83c0ffe81739d21ee27bc882cad896b69c825c7b4a1d07aee9e447e7e87e83e839d2004f63ab492023c2c8414ad203418b60916030bceaf7539d6851ff1b73426071321448cb8af44a1619932c1f0d9d1bd36652404d78632a53d677da0858c20a525ca936b4b17501c3b2bbfcc7b09a59f22b6c11a9b63510b0b4e6c8278ea9fb5f9275d08adc1947e9469208180931f7772ae7c5d951296220131a0ab2e5dd66dbd2985337d2f2aa20e081f1001891ce1d9a8a4ec210783864ce3e9fb8055665b74cf2342458559c32fba67045a8351067f3ce30c6ca5e0f369922d3f97d6a12085fc5709aaf902825468af6cfc670fc756a87a5c82f6103c629d16add64b029374ecf7fdadbc906784686a97c79bdc6bb0483dbadfbb8735ba3e490d2b386634a8f9c4c5e9502dad98566524aba2aad01af5f8e8bbb3dfa002187d2ab3cebe20b9f13aa6a0f1f0b934208960f6304830a66c1b75062d21ac754512e5d8501776a755dc682f0fe37c2630c7f8b88faac723dcfa1918e72c195f1a246a58be230466a5b330596e88eaf7a9269a07fcdc982a725a587b58e461d0ea274b062d2a5207e7aeaf59c3e0dab5934649d7dc200c92343c5ed876aa0bf9756294642291a29623d1bba33858f9e2f4aa436829372a2128d1d114d2f85568e75ddb27f5ca703776f4d00116ca3d041026422ae1a27b28a29540419108c0e4b24853d889dc6f907d4a272035d0c869bee03ae34d7802d5e0785471f3f16700527bf0d66032bd9d263ff6dbd2f0b3afa5d25b8cc5717aed65b0a2c351ccc1cf6179744563c7ff093281324da0e29fdd6090904ed150aa0ccfcb9a2200f33fa67ea1189de83f0fc8f529d108f589436c5509bb7621059905ac64168c3d5a6ab7a2835cf1c771a4f9b2ffa38a0899e3a9859c37e6d9dcae7bc41d2b060d12fbfa82708834b8bf5e46db52aa8e8bdd219247d07d15ce352c318f7482252635c0fb7dd3edfe43e36536c5c78e9516952860557992efb198f14bd2ffa4ae28440780390b108e8203461934bc6192ea4549a6b45e780b92b518fc88b54e9dc12626b6f07ba8dd7562b82f7da1387d65cf9db57c57efd33636b85dc74c70d531ba2b90c96f45720115a98d919589cb9742134ef3f73d972da04067783f56f6cf865683cc4a8977f9711dc9b687b346fc71981cc5b413ef1c7b1016f440729f1d0f5a81106afb4fec25d0f81ffd1cfca94f10c66e8e3962206b4891a92358cbc13566f1ea90b1bbc36b99984695415adef122c1c61bb5d4df64f9c2d203fe005e5e227e7106c38b126012dbe152f1ae4c1e6407faf656e2f27316e326a02a6743826b0a32ec4d77577cbf85af0e87d23f0f13dec8011de1d65f574da17b469d25424cbeae1af6be0e0155c514ae9b5eef739ec19b6a59afd2ccff5f889a8dc6033aa84b450a32e8a980372e079539d1d6c0085da0129782afa8d11ef7a90d6a60cc45e0813c415227c8c5f40e094e933ce14af7cd83ac861f4ec00c8f99f9515d3f580d6b16c0b8ef683f36f8591f558b8924b524288f8a59c15bb62b6d69aecb0abcdd6911cd6a53f72c0e2f9ecedf09e7323759013c77e601e3bed0b52f5dacda3d5a7cfbc6bac83e0c37f6b151510fc6949c521f0766963b6534c695d9fb8261637ac8d08314308828eb17a38a08bddfc0be8e8232a45a7f5c28776aa72b13a3018bcf351cdbf9e1117cbf93b9cc5fbd127572cee94e4e77fa439716232249c842e256c23d1612f38d309ec03098aa4569f1334f585d676d7e9ba8acbbbec5d1d9fe0613171e3e4165757b91b1b4d6d7e5ee0003042c2d33383e5154565e6169999fc1d8f3041e2c4463658b949cc4c9d2d3d5d600000000000000000000000000001020334201fd2105005b020a3366ab6f2ee04f64f960aa165a9c6e051e761bb6dfcbaac2030deafa73c982740e89dc35d32e3015821d8e127f1bb38c6e11ea01d8d79ada53abeae0afa857732bc3a3be38de7031cdc6577cba935866a7f378aa877d5453b70f63bd55226b90ef695a835c46f0a6788933485c94d436b3666bfb445a681de36e9e6130aeca910e4415e9fbc98928f88093163c2a61788bd1f80d615cd0839b90f15c789bfc12c6624b5638f1bce202cae0c727e756472dbd4a2923a9a60db77f0cbce10ca90037765183acc905fb437eb9b32a64cb148f66a384961ca89bc5717a9f6c3fd7d92b80744ec510ce564ab5a1026c5421995866ab27b9ba2ca8a10cac00c3bc09ed8852d8367204a60b0272f7acdabd2bf98f7e2f0b7623e067a87b15f68c3deec680d7959fd1faeeca56a1426d6d8fe9309ca52e8ababa8688b7cbda7b8d1576637c82955ac79274f34c6c4af985480e1ca2844cd041f5ac45fc439cc4784b46a3f04ed7d7d6ee870a67a9335952e5ef597dbf0fcb4d0371fee655c3e12f675cab6aeb98535ac2fea13e589a872fe9704bb4357cd8c4af1d2df2c7836c5a1592b68788bdad728e14d1dccdb15ad7adf3724c02fa95d0487560c1630ebed7d4a0bc05a9c3ce1d6ac58af2c45728003d7e6e969e722a3061fc0439b8b5eeb465f00a6f86b2a83a4583f518850dbd704028973fa1db992dfdb54f025962368dc03976c249695c7d361ba5071f1ec2561e267b568c19b19e7a17be0edd589d61b93744283467f65fba311f5456d5c31ae805ab0567ae1d0c8588eb557fb9f6ecee150ddb285a211ac25c2838838baedd7d42fdb4b223634afcc258dae0ac9a8f79bf77482a37b95cffa16942fe0143cd175da2907a07f85d8df2eb1af5a5eafa8900672e295d4b28bb6c84d6d00853e0a823e3dfa807bc431f04777251d97e46adc9d493013d997c25c519f2abb010777dd4fb934e155cc94dd4a6a3d78d9f4e39b88a0f2c9029969502f36ab5acb5afbc924bea5df49e4e2fc027e1d8fd8d6c583cf1076ebc5673a71e353e2e6c4b0fa4ffde44604bebe92daeec2cafae65839499de9848038b72a209b880fc4da52dfc91e7af814a5414b2b67ec33284e9ebee81029b6c305734dc4f19e958e805469f6ca4a57b274b87157796eff6684d9c08bacce3c75387abd59dac785a8140086feef121fdc42ab0d67382e795df4061f267c80b5650634d85e2ccb7ef195954f5446ae930996be353367621fea7e961429d5d72ccafa0aaed10e3bc25a0b87944a37a923ef915007b14459ab323d509f0883c1d2056b8ea25a656c3d6803424182ad0d67c6578c2231012b0875fe96c414f3a6123b785f3f4810287e6422137f6fa5d0730946d93337c612ae4d4fd4aecb8f5e50cc0cc20040c80f2d6275567f080d08d6e85ce2ea75ef5a843f6fded078754151020f94041028fc75caf3a0f5de788c830e56afab86b48ef5607051da2b01afcdf93f7117aafa2dbb00019c42dc4391ab8c629e2241334b65941c2b463a89e7849f7dfadb41851da1f8991dc3e4ebce314b760a735f7b9869e19f92bd0787c8281d83a7d7eace250b94ccad8fd7d7b9a07f94ad9954139467f415914e2432b2d33433301ce91564f8537d43354b2ee7e024684b0c2d7b7a87034ffc8ee07c3d05c22bcb8f6612237def1d96fc063f467489b9ed1ee87f92705f08b34653c1395ae2ada5165df4ae5af971616264c6102bfe219d191aa08db27302454cf7e11ab66bf4eb6e70c99303242c46c0f1c8ee920902753ae68c5a3a210f679e36b8af13b6ae27ed3a37f3b7237b11cc12cb6ff94b51b166765d5964920f99d74000000",
  "txid": "b396b69bf5ef2740c97e2371de4972b0a46730aff78503c98ce96a71de8e048c",
  "hash": "6710be601c4a6f8b6aaa9bc9854d9289d169b6a463b8953f1ef55862da87a09b",
  "size": 5085,
  "vsize": 2278,
  "version": 1,
  "locktime": 116,
  "vin": [
    {
      "txid": "4660fd196cb10d801757b619c9f4abe33be840fdfc65018e46eb57af44e9a0fd",
      "vout": 0,
      "scriptSig": {
        "asm": "",
        "hex": ""
      },
      "txinwitness": [
        "cea74513e9db614a4c45e7de34b11489454fb0b880fe193ba7d6ea4bf1b2380e62492ff9fea30cb23b36b722faa30fd2d9bcc5de6ae77b94d06d5a53ef2e4c375d405851d4bec8faaa057c0fa71f01554548e7722eb4c31ae4e79fa3a43526ce5fd19f4d88e50d75cc7ce63eedc4200b05b5ed99aee006747e5d80575c2a2c7cfe2b516c7f2766b05cea37134ec696ae995fdb19e6b5a319d86aacc6c2a7a9c694292971aaaa3013fd01add0cb667d61f9211c37acd513b9d4c229becdafb1542379de0fe240c5f95a4d0bfcdd9257173d88f2da147d8edf044edc75c5799c6d738ff9d124b4180f131ede81e42f49ba42e911a306626842b7278eae7956dbdcd6179b5f3d26f10f4177d73464b37e0db4d5d2920b619432a33e46e39a4fee612390bc6f37743872bb24acbeebc87db6181c3c47c0fa0e1923a0d1ef12abdf80e0f31d2a6c9a8fca66f42c47b0bdab016c96f949c4bb3a057ee8a652ed9f483ed03b9094995d215b6b53575b207e4d9e18e5e15565ba015c5082308c13bd7a70bf23e02f8768163a08a5d4499be2238bd050c3325aa8cc3a97a4c5ecf7557db77ad7822b8159e7cdaae4f61090e68413612bd44abfab1c8aa377373ac6459c3f43cfbbea6c40c77d393ac016dd6e3ba4080c6549cbb04abbb23bf2b3a88fad10bb010969ba5e2fc0d9384357f90620ea6b5bab491b9159ab6943d8223a23e6cfd4d9ec0a6fe49fabc3122ff3422c35e0e74b674b8b449a2c7cb5f1ce0f59e297037cdf5494d90d0411b6c56ab93582d3030ee10d4ebd6a9f2fb367b5d10ec591abc82599c9515c913e53c774a2feb1ed80ebc1ba8c3a1f60677717062d51b84288d495325ff5642d30539454fb98257d7ed3c5e42058842e5b519a17a3076c91f5dd09c6004025a3ab892c530f89fe7ca6e8baa6ed532f5b2f1b6efb5d20e2990f37f00d466f8e3d5a58010cf2b742bea351da4526908f3aef39b0342c556fbe684e0f89c7783199276d889578ca87c436edb3c88b3edefde67f290a62ed71b98375ebdc2edba07927621092930054ffa16159913c789fa687d0a6c6bde61f9f831903ec3cd77c0feea027ecc178f7017ef7cc6197aab7efbbb04f743b663f1bb0bcbccd5b6449df01a2d2aebd0f8a69cf1ff1a5429eceef9e9c3b8c4a364e8d3aec845605715dd3d73e8ca13060bc1aaa046ce4d415ef23d43ad68a277e9ebd682ea8b5f238074c5c0674a1f1629586fb97ac079b0ce6bca816806f0f68b2cdb9e318d83612dbca1cbc061843118c4c59aa90ec1d665f30d0627e0231dfb915581708b6766032c74fc65c5057ed00308995c60c6557864270cec95672a19abcf015d9819e5a7fc634c17bacf2f519fed2b7f9177805ecc153d6829103ff7bf98443ecc4e6d4b27f8118d6932cc013f85aaa6977bfa27bae08950f7c05d51d4eed4d04279ccc6c4fe80c08717d7df3c0fe7076e6da219b8574eeba98f24543995cca7f3f0255ba0e6d6282c65bed0ef5bbd4f067b7d83c0ffe81739d21ee27bc882cad896b69c825c7b4a1d07aee9e447e7e87e83e839d2004f63ab492023c2c8414ad203418b60916030bceaf7539d6851ff1b73426071321448cb8af44a1619932c1f0d9d1bd36652404d78632a53d677da0858c20a525ca936b4b17501c3b2bbfcc7b09a59f22b6c11a9b63510b0b4e6c8278ea9fb5f9275d08adc1947e9469208180931f7772ae7c5d951296220131a0ab2e5dd66dbd2985337d2f2aa20e081f1001891ce1d9a8a4ec210783864ce3e9fb8055665b74cf2342458559c32fba67045a8351067f3ce30c6ca5e0f369922d3f97d6a12085fc5709aaf902825468af6cfc670fc756a87a5c82f6103c629d16add64b029374ecf7fdadbc906784686a97c79bdc6bb0483dbadfbb8735ba3e490d2b386634a8f9c4c5e9502dad98566524aba2aad01af5f8e8bbb3dfa002187d2ab3cebe20b9f13aa6a0f1f0b934208960f6304830a66c1b75062d21ac754512e5d8501776a755dc682f0fe37c2630c7f8b88faac723dcfa1918e72c195f1a246a58be230466a5b330596e88eaf7a9269a07fcdc982a725a587b58e461d0ea274b062d2a5207e7aeaf59c3e0dab5934649d7dc200c92343c5ed876aa0bf9756294642291a29623d1bba33858f9e2f4aa436829372a2128d1d114d2f85568e75ddb27f5ca703776f4d00116ca3d041026422ae1a27b28a29540419108c0e4b24853d889dc6f907d4a272035d0c869bee03ae34d7802d5e0785471f3f16700527bf0d66032bd9d263ff6dbd2f0b3afa5d25b8cc5717aed65b0a2c351ccc1cf6179744563c7ff093281324da0e29fdd6090904ed150aa0ccfcb9a2200f33fa67ea1189de83f0fc8f529d108f589436c5509bb7621059905ac64168c3d5a6ab7a2835cf1c771a4f9b2ffa38a0899e3a9859c37e6d9dcae7bc41d2b060d12fbfa82708834b8bf5e46db52aa8e8bdd219247d07d15ce352c318f7482252635c0fb7dd3edfe43e36536c5c78e9516952860557992efb198f14bd2ffa4ae28440780390b108e8203461934bc6192ea4549a6b45e780b92b518fc88b54e9dc12626b6f07ba8dd7562b82f7da1387d65cf9db57c57efd33636b85dc74c70d531ba2b90c96f45720115a98d919589cb9742134ef3f73d972da04067783f56f6cf865683cc4a8977f9711dc9b687b346fc71981cc5b413ef1c7b1016f440729f1d0f5a81106afb4fec25d0f81ffd1cfca94f10c66e8e3962206b4891a92358cbc13566f1ea90b1bbc36b99984695415adef122c1c61bb5d4df64f9c2d203fe005e5e227e7106c38b126012dbe152f1ae4c1e6407faf656e2f27316e326a02a6743826b0a32ec4d77577cbf85af0e87d23f0f13dec8011de1d65f574da17b469d25424cbeae1af6be0e0155c514ae9b5eef739ec19b6a59afd2ccff5f889a8dc6033aa84b450a32e8a980372e079539d1d6c0085da0129782afa8d11ef7a90d6a60cc45e0813c415227c8c5f40e094e933ce14af7cd83ac861f4ec00c8f99f9515d3f580d6b16c0b8ef683f36f8591f558b8924b524288f8a59c15bb62b6d69aecb0abcdd6911cd6a53f72c0e2f9ecedf09e7323759013c77e601e3bed0b52f5dacda3d5a7cfbc6bac83e0c37f6b151510fc6949c521f0766963b6534c695d9fb8261637ac8d08314308828eb17a38a08bddfc0be8e8232a45a7f5c28776aa72b13a3018bcf351cdbf9e1117cbf93b9cc5fbd127572cee94e4e77fa439716232249c842e256c23d1612f38d309ec03098aa4569f1334f585d676d7e9ba8acbbbec5d1d9fe0613171e3e4165757b91b1b4d6d7e5ee0003042c2d33383e5154565e6169999fc1d8f3041e2c4463658b949cc4c9d2d3d5d600000000000000000000000000001020334201",
        "005b020a3366ab6f2ee04f64f960aa165a9c6e051e761bb6dfcbaac2030deafa73c982740e89dc35d32e3015821d8e127f1bb38c6e11ea01d8d79ada53abeae0afa857732bc3a3be38de7031cdc6577cba935866a7f378aa877d5453b70f63bd55226b90ef695a835c46f0a6788933485c94d436b3666bfb445a681de36e9e6130aeca910e4415e9fbc98928f88093163c2a61788bd1f80d615cd0839b90f15c789bfc12c6624b5638f1bce202cae0c727e756472dbd4a2923a9a60db77f0cbce10ca90037765183acc905fb437eb9b32a64cb148f66a384961ca89bc5717a9f6c3fd7d92b80744ec510ce564ab5a1026c5421995866ab27b9ba2ca8a10cac00c3bc09ed8852d8367204a60b0272f7acdabd2bf98f7e2f0b7623e067a87b15f68c3deec680d7959fd1faeeca56a1426d6d8fe9309ca52e8ababa8688b7cbda7b8d1576637c82955ac79274f34c6c4af985480e1ca2844cd041f5ac45fc439cc4784b46a3f04ed7d7d6ee870a67a9335952e5ef597dbf0fcb4d0371fee655c3e12f675cab6aeb98535ac2fea13e589a872fe9704bb4357cd8c4af1d2df2c7836c5a1592b68788bdad728e14d1dccdb15ad7adf3724c02fa95d0487560c1630ebed7d4a0bc05a9c3ce1d6ac58af2c45728003d7e6e969e722a3061fc0439b8b5eeb465f00a6f86b2a83a4583f518850dbd704028973fa1db992dfdb54f025962368dc03976c249695c7d361ba5071f1ec2561e267b568c19b19e7a17be0edd589d61b93744283467f65fba311f5456d5c31ae805ab0567ae1d0c8588eb557fb9f6ecee150ddb285a211ac25c2838838baedd7d42fdb4b223634afcc258dae0ac9a8f79bf77482a37b95cffa16942fe0143cd175da2907a07f85d8df2eb1af5a5eafa8900672e295d4b28bb6c84d6d00853e0a823e3dfa807bc431f04777251d97e46adc9d493013d997c25c519f2abb010777dd4fb934e155cc94dd4a6a3d78d9f4e39b88a0f2c9029969502f36ab5acb5afbc924bea5df49e4e2fc027e1d8fd8d6c583cf1076ebc5673a71e353e2e6c4b0fa4ffde44604bebe92daeec2cafae65839499de9848038b72a209b880fc4da52dfc91e7af814a5414b2b67ec33284e9ebee81029b6c305734dc4f19e958e805469f6ca4a57b274b87157796eff6684d9c08bacce3c75387abd59dac785a8140086feef121fdc42ab0d67382e795df4061f267c80b5650634d85e2ccb7ef195954f5446ae930996be353367621fea7e961429d5d72ccafa0aaed10e3bc25a0b87944a37a923ef915007b14459ab323d509f0883c1d2056b8ea25a656c3d6803424182ad0d67c6578c2231012b0875fe96c414f3a6123b785f3f4810287e6422137f6fa5d0730946d93337c612ae4d4fd4aecb8f5e50cc0cc20040c80f2d6275567f080d08d6e85ce2ea75ef5a843f6fded078754151020f94041028fc75caf3a0f5de788c830e56afab86b48ef5607051da2b01afcdf93f7117aafa2dbb00019c42dc4391ab8c629e2241334b65941c2b463a89e7849f7dfadb41851da1f8991dc3e4ebce314b760a735f7b9869e19f92bd0787c8281d83a7d7eace250b94ccad8fd7d7b9a07f94ad9954139467f415914e2432b2d33433301ce91564f8537d43354b2ee7e024684b0c2d7b7a87034ffc8ee07c3d05c22bcb8f6612237def1d96fc063f467489b9ed1ee87f92705f08b34653c1395ae2ada5165df4ae5af971616264c6102bfe219d191aa08db27302454cf7e11ab66bf4eb6e70c99303242c46c0f1c8ee920902753ae68c5a3a210f679e36b8af13b6ae27ed3a37f3b7237b11cc12cb6ff94b51b166765d5964920f99d"
      ],
      "sequence": 4294967294
    }
  ],
  "vout": [
    {
      "value": 499984.7465,
      "n": 0,
      "scriptPubKey": {
        "asm": "1 15a5a062ed0d614150409c477878aa1719382b02105d9fafbde1d0af0f1bd247",
        "hex": "512015a5a062ed0d614150409c477878aa1719382b02105d9fafbde1d0af0f1bd247",
        "reqSigs": 1,
        "type": "witness_v1_scripthash",
        "addresses": [
          "3QJmnh"
        ]
      }
    },
    {
      "value": 1.0,
      "n": 1,
      "scriptPubKey": {
        "asm": "OP_RETURN 383944de30c4e6603a740f01b0bb92344551104a9e600e4269c9cbd699d21c77 5976b3ad3ce0c10a9c0abf8b97b88c6596460e3bc2aecd0e3f916ae1828261867956938d1cc0e12abc2a9fabb798ac45b6662e1be28eed2e1fb14ac1a2a241a61936f3ed7ca0814adc4affcbd7f8cc25d6064e7b82ee8d4e7fd12aa1c2c221c63916d3cd5c80a16afc6adfebf7d8ec05f6266e5ba2cead6e5ff10a81e2e201e6d9f6332dbc60418a1c8a3f0b17380ce516c68ebb422e4d8ebf11ea610202e106f9d6130d9c4061aa3caa1f2b37182cc536e6ae9b620e6dae9f31ca412222c12699b6736dfc2001ca5cca7f4b57784ca55686cefb026e0dceff51aa214242a146b996534ddc0021ea7cea5f6b77586c8576a6eedb224e2deedf718a01626281665976b3ad3ce0c10a9c0abf8b97b88c6596460e3bc2aecd0e3f916ae1828261867956938d1cc0e12abc2a9fabb798ac45b6662e1be28eed2e1fb14ac1a2a241a61936f3ed7ca0814adc4affcbd7f8cc25d6064e7b82ee8d4e7fd12aa1c2c221c63916d3cd5c80a16afc6adfebf7d8ec05f6266e5ba2cead6e5ff10a81e2e201e6d9f6332dbc60418a1c8a3f0b17380ce516c68ebb422e4d8ebf11ea610202e106f9d6130d9c4061aa3caa1f2b37182cc536e6ae9b620e6dae9f31ca412222c12699b6736dfc2001ca5cca7f4b57784ca55686cefb026e0dceff51aa214242a146b996534ddc0021ea7cea5f6b77586c8576a6eedb224e2deedf718a01626281665976b3ad3ce0c10a9c0abf8b97b88c6596460e3bc2aecd0e3f916ae1828261867956938d1cc0e12abc2a9fabb798ac45b6662e1be28eed2e1fb14ac1a2a241a61936f3ed7ca0814adc4affcbd7f8cc25d6064e7b82ee8d4e7fd12aa1c2c221c63916d3cd5c80a16afc6adfebf7d8ec05f6266e5ba2cead6e5ff10a81e2e201e6d9f6332dbc60418a1c8a3f0b17380ce516c68ebb422e4d8ebf11ea610202e106f9d6130d9c4061aa3caa1f2b37182cc536e6ae9b620e6dae9f31ca412222c12699b6736dfc2001ca5cca7f4b57784ca55686cefb026e0dceff51aa214242a146b996534ddc0021ea7cea5f6b77586c8576a6eedb224e2deedf718a01626281665976b3ad3ce0c10a9c0abf8b97b88c6596460e3bc2aecd0e3f916ae1828261867956938d1cc0e12abc2a9fabb798ac45b6662e1be28eed2e1fb14ac1a2a241a61936f3ed7ca0814adc4affcbd7f8cc25d6064e7b82ee8d4e7fd12aa1c2c221c63916d3cd5c80a16afc6adfebf7d8ec05f6266e5ba2cead6e5ff10a81e2e201e6d9f6332dbc60418a1c8a3f0b17380ce516c68ebb422e4d8ebf11ea610202e106f9d6130d9c4061aa3caa1f2b37182cc536e6ae9b620e6dae9f31ca412222c12699b6736dfc2001ca5cca7f4b57784ca55686cefb026e0dceff51aa214242a146b996534ddc0021ea7cea5f6b77586c8576a6eedb224e2deedf718a01626281665976b3ad3ce0c10a9c0abf8b97b88c6596460e3bc2aecd0e3f916ae1828261867956938d1cc0e12abc2a9fabb798ac45b6662e1be28eed2e1fb14ac1a2a241a61936f3ed7ca0814adc4affcbd7f8cc25d6064e7b82ee8d4e7fd12aa1c2c221c63916d3cd5c80a16afc6adfebf7d8ec05f6266e5ba2cead6e5ff10a81e2e201e6d9f6332dbc60418a1c8a3f0b17380ce5a0564936132469891b35e96fe1d12f238293cb4bf35f039526ce7900510cc598",
        "hex": "6a20383944de30c4e6603a740f01b0bb92344551104a9e600e4269c9cbd699d21c774db0045976b3ad3ce0c10a9c0abf8b97b88c6596460e3bc2aecd0e3f916ae1828261867956938d1cc0e12abc2a9fabb798ac45b6662e1be28eed2e1fb14ac1a2a241a61936f3ed7ca0814adc4affcbd7f8cc25d6064e7b82ee8d4e7fd12aa1c2c221c63916d3cd5c80a16afc6adfebf7d8ec05f6266e5ba2cead6e5ff10a81e2e201e6d9f6332dbc60418a1c8a3f0b17380ce516c68ebb422e4d8ebf11ea610202e106f9d6130d9c4061aa3caa1f2b37182cc536e6ae9b620e6dae9f31ca412222c12699b6736dfc2001ca5cca7f4b57784ca55686cefb026e0dceff51aa214242a146b996534ddc0021ea7cea5f6b77586c8576a6eedb224e2deedf718a01626281665976b3ad3ce0c10a9c0abf8b97b88c6596460e3bc2aecd0e3f916ae1828261867956938d1cc0e12abc2a9fabb798ac45b6662e1be28eed2e1fb14ac1a2a241a61936f3ed7ca0814adc4affcbd7f8cc25d6064e7b82ee8d4e7fd12aa1c2c221c63916d3cd5c80a16afc6adfebf7d8ec05f6266e5ba2cead6e5ff10a81e2e201e6d9f6332dbc60418a1c8a3f0b17380ce516c68ebb422e4d8ebf11ea610202e106f9d6130d9c4061aa3caa1f2b37182cc536e6ae9b620e6dae9f31ca412222c12699b6736dfc2001ca5cca7f4b57784ca55686cefb026e0dceff51aa214242a146b996534ddc0021ea7cea5f6b77586c8576a6eedb224e2deedf718a01626281665976b3ad3ce0c10a9c0abf8b97b88c6596460e3bc2aecd0e3f916ae1828261867956938d1cc0e12abc2a9fabb798ac45b6662e1be28eed2e1fb14ac1a2a241a61936f3ed7ca0814adc4affcbd7f8cc25d6064e7b82ee8d4e7fd12aa1c2c221c63916d3cd5c80a16afc6adfebf7d8ec05f6266e5ba2cead6e5ff10a81e2e201e6d9f6332dbc60418a1c8a3f0b17380ce516c68ebb422e4d8ebf11ea610202e106f9d6130d9c4061aa3caa1f2b37182cc536e6ae9b620e6dae9f31ca412222c12699b6736dfc2001ca5cca7f4b57784ca55686cefb026e0dceff51aa214242a146b996534ddc0021ea7cea5f6b77586c8576a6eedb224e2deedf718a01626281665976b3ad3ce0c10a9c0abf8b97b88c6596460e3bc2aecd0e3f916ae1828261867956938d1cc0e12abc2a9fabb798ac45b6662e1be28eed2e1fb14ac1a2a241a61936f3ed7ca0814adc4affcbd7f8cc25d6064e7b82ee8d4e7fd12aa1c2c221c63916d3cd5c80a16afc6adfebf7d8ec05f6266e5ba2cead6e5ff10a81e2e201e6d9f6332dbc60418a1c8a3f0b17380ce516c68ebb422e4d8ebf11ea610202e106f9d6130d9c4061aa3caa1f2b37182cc536e6ae9b620e6dae9f31ca412222c12699b6736dfc2001ca5cca7f4b57784ca55686cefb026e0dceff51aa214242a146b996534ddc0021ea7cea5f6b77586c8576a6eedb224e2deedf718a01626281665976b3ad3ce0c10a9c0abf8b97b88c6596460e3bc2aecd0e3f916ae1828261867956938d1cc0e12abc2a9fabb798ac45b6662e1be28eed2e1fb14ac1a2a241a61936f3ed7ca0814adc4affcbd7f8cc25d6064e7b82ee8d4e7fd12aa1c2c221c63916d3cd5c80a16afc6adfebf7d8ec05f6266e5ba2cead6e5ff10a81e2e201e6d9f6332dbc60418a1c8a3f0b17380ce5a0564936132469891b35e96fe1d12f238293cb4bf35f039526ce7900510cc598",
        "type": "nulldata"
      }
    }
  ],
  "blockhash": "73359bfd0a4582986ffd1e7664419d7a0ef7b090643ab62685454f7a097cd719",
  "confirmations": 1,
  "time": 1764179247,
  "blocktime": 1764179247
}