{
  "hex": "010000000001011eef4879b981494fe7d2c58bfd3e89b2ba5ce43530aaaedc65cdab2dd595a7ab0100000000feffffff02a0cee9a1782d0000225120ccdb5214e19e3a841296656f66d8e43506e1eaa0511b04633b2b6571ee37cbde00e1f50500000000fdd5046a2021c63b3731ad35085cbcaf715be7a6bc5bc2df6cacb1f4f4db380c5eb4fb3c2a4db004f0095a56fc503b26a7fc38b4704d78f1851331c79cc0d01294944fc562f4bc93d0297a76dc701b0687dc1894506d58d1a53311e7bce0f032b4b46fe542d49cb3b0491a16bc107b66e7bc78f4300d38b1c5537187dc809052d4d40f8522b4fcd390693a369c305b46c79c58d4102d1891e57351a7fca0b072f4f42fa50294dcf37089dad67cd0bba6277cb834f0cdf8710593b1471c4050921414cf45e2743c1350a9faf65cf09b86075c9814d0edd85125b391673c6070b23434ef65c2541c3330c99a963c90fbe6673cf874b08db83145d3f1075c0010d254548f05a2347c5310e9bab61cb0dbc6471cd85490ad981165f3d1277c2030f27474af2582145c73f0095a56fc503b26a7fc38b4704d78f1851331c79cc0d01294944fc562f4bc93d0297a76dc701b0687dc1894506d58d1a53311e7bce0f032b4b46fe542d49cb3b0491a16bc107b66e7bc78f4300d38b1c5537187dc809052d4d40f8522b4fcd390693a369c305b46c79c58d4102d1891e57351a7fca0b072f4f42fa50294dcf37089dad67cd0bba6277cb834f0cdf8710593b1471c4050921414cf45e2743c1350a9faf65cf09b86075c9814d0edd85125b391673c6070b23434ef65c2541c3330c99a963c90fbe6673cf874b08db83145d3f1075c0010d254548f05a2347c5310e9bab61cb0dbc6471cd85490ad981165f3d1277c2030f27474af2582145c73f0095a56fc503b26a7fc38b4704d78f1851331c79cc0d01294944fc562f4bc93d0297a76dc701b0687dc1894506d58d1a53311e7bce0f032b4b46fe542d49cb3b0491a16bc107b66e7bc78f4300d38b1c5537187dc809052d4d40f8522b4fcd390693a369c305b46c79c58d4102d1891e57351a7fca0b072f4f42fa50294dcf37089dad67cd0bba6277cb834f0cdf8710593b1471c4050921414cf45e2743c1350a9faf65cf09b86075c9814d0edd85125b391673c6070b23434ef65c2541c3330c99a963c90fbe6673cf874b08db83145d3f1075c0010d254548f05a2347c5310e9bab61cb0dbc6471cd85490ad981165f3d1277c2030f27474af2582145c73f0095a56fc503b26a7fc38b4704d78f1851331c79cc0d01294944fc562f4bc93d0297a76dc701b0687dc1894506d58d1a53311e7bce0f032b4b46fe542d49cb3b0491a16bc107b66e7bc78f4300d38b1c5537187dc809052d4d40f8522b4fcd390693a369c305b46c79c58d4102d1891e57351a7fca0b072f4f42fa50294dcf37089dad67cd0bba6277cb834f0cdf8710593b1471c4050921414cf45e2743c1350a9faf65cf09b86075c9814d0edd85125b391673c6070b23434ef65c2541c3330c99a963c90fbe6673cf874b08db83145d3f1075c0010d254548f05a2347c5310e9bab61cb0dbc6471cd85490ad981165f3d1277c2030f27474af2582145c73f0095a56fc503b26a7fc38b4704d78f1851331c79cc0d01294944fc562f4bc93d0297a76dc701b0687dc1894506d58d1a53311e7bce0f032b4b46fe542d49cb3b0491a16bc107b66e7bc78f4300d38b1c5537187dc809052d4d40f8522b4fcd390693a369c305b46c79c58d4102d1891e57351a7fca0b072f4f42fa50294dcf37089dad67cd0bba6277cb834f0cdf87128f538e4de909c73429c9d790d3875a92789718f83d26bed05a138308b8d8fdb02fd7509d6d73426d961455d213be6296eb7ed40c6425c438584a39055171d21d678512330ed7147c6a6f1f2e800ad802df57ed9d896a99de0f282a6ddaedcdd9a95c0671ffc1f20cc6bfb49e1fa4f8fab0c5da88602525579489b417ba7a0d5c9ecf204978f39108aa2b5a4ae8ea9ab0d27fb25d5c7318f01799175e05368dbb33fdb87c491f46ddbb15c3656bf0b2bff981f4648129590b9e8a76a6f538695b9c5a6e3f3d4654c8cd6711f81fca5d1fd93fed62c19dbbd0a7fd595c5819a7c83e49e9c8f9d9c0f16cbe3ea4f31c84a64c83b1a603f523ecaa23109ac40af464aebf1250827b50b28db6194a7bcb4d1f545abf7ef244670e6cbefdb8973c3469ba3202d9c7599efa5ce08267c8ab6049a9a112b4d67fc5cbe93d5cdd509f26cbcdd02e9892ad4eb927fb090acf4d01a6876bb9e1491a1293b2d38453a7d9c961cabfa72c5f5f2841ffeca094a1d49494eb051aaae0884ab9bcddf9375049bd1c438f681b0ef1da40f03bc20b63c8736cc4fefd5c186ee5092c6cc7c979a54b331a54bfcce3f63e1346b52be3b222af65f2940303dcfc8ced816b744a5fdf73599b54f4cb7c40cb2061fdc8019787542eb787055a61d0c35547493c72b56590e95c4ea424f309c35ff556d7f1648329796533c52c1c76c944f982c2e6c88a21c21deba8e42688932cd693c05f2cd7ef46322689d573081960d7ab9b81919f0dcfbbcba585633517eee747f018cf943ad2dcdb3c97654d99de235c74678c8caf7b33be0b733354074c13b51128fdb02935bd205e81370765744e9212d280f28462a741600c584c5f2bcb8344b3782d135f014dca905f2ddca08a8402e46ec17b1c3d84a6da367cf02ea22e7dedfb92811bf8f31a9fe87e33e8402190014ac50c96886553cd44a65df1e21ff229d993de8c19612226a91bc83d6725c35cee0d3fcd3abcca5ee2320f45011f54b5ba82e3f1426b424331184676cc424656938016d4fbb1eabfa88a5b68c567e13a212957e9a775b2a5aba5d1b88e9261ca676c77695826e7730891da5f6abd223558622d948fdfed18d4e53e06d7718d315b703b695aab55261be13b8f3271d3fdf4290ed7d3246546c5153506b9aace9b7b1a88573b2f165beda6452ac530e688b2f05cd8be3863c34a190bda79000aa003560527f2b8108ee6db248abeec0d39004a0cd65d7987c20af3a41d724dcaa7260ed0736e6fb4b6fd9a569f8b9561d6fc7ff59680143e6d41616e37d7b9358f2db45f24f569d3c449b41a900924708be8bb7223affe3dcdffa7fc5a0ad66f625085839134668d229a3122ac9067676bf0ea3580deb0fd25da08805494ee158b2816e12a122db6097bf95d05685d0ba8bb8401d03c1dcd0d2dfea80f3fb9a9dc55b7cdc5468922bfb0a872e963c6ed976c41f2c24e54b61ccebe937fa0da37217402d7c221d99803e4835e65880e9a5f08486aff4669beab1071b3e381ab35a9ad46d5299f84c14beaeb96c40af6cb2f84f11f4b30e3c098189fb7106f82dacc4861a11f7f58c026ca7aafc36a7521f9bf22362d414c58ed820037a51371d3d9e0ed9e6d8750d81388b6236df79fcded65a18b827061adef660596aa15c4cf2757ba271303bf82c06c9f18deac2e5ea2d5ee8fd22bc0de2bee2f5dd84e1bacb77ce441f76791a5de3f7e901962b336f829e149cdaa7818b67ad6a47b011103fe12074ce544f7291f0c33d38a54cb4611ca876450f5673de106218cdc514f6a878cf5f2c0a3ae1abb2ccabf327a94e9fb6c78e043a022bf892a6b39f2ceb6703905a71fdb28c79ed1ca6509d86e805c9df509e604e59499292ad17214e4cd98999914063cd76e776f7520a6d9a333463c64e07359550380af366f618a0a6c206675cecef3d6c72815b2c8fdd541c125a94ff3ee7a0050f7dec1e06f31695ca386beddac1b6a529c090fecd41820bb02448e66a87dfd773683c9fa5e53278858582ec70e7babe01096a8ff7f068c925163bdeb9814ea4d5ed2ab3be87929429d2678d0c2d425e437ad039ac72f57d412afad26093e30f45a1d1cc1e32739705e7fd4806e0be7f9a92b45e30e278a605e931d95850c6a5d81857846ba63413be099130d430f6f2095f024a12e51730ea0a0e2498b5c2b65d44cdb4e35e094e11aee406603bc21073f493eea2cc497c95140873b2c11801829aac8ad6d1d8015aa9063c24d9c815372c07a2609abc97acdf19398a0e74bde1901715ad072ad4df096b98d665a7c415c950dc60f5e8911c663eaf1175e72c973e195d88b1d7e73bace6eb47ad02119fb29f33d04f15252a0f515aefb1dffe1184914a983500286a337aef2a05e50e91b8ebb1e39d851e99b42c660c47612223332b5b4b0dd08af29709ac1639a719b96e44ffa7f26de8ad0f9d19b4bfe4cae47d00031ab81ef51097b7c6da7ab8b41fdb77b66282edaade8024e43bd83e57453019401fc7612f00534469c9f0901a1ca267076f2e2719def1b4def5ac8807d4f8f6fd50202d5f33eb0752148d57e2cc25d17b0a43fa8e57a7033192baea572eb7fb655ef542d27c44ba2cc571bc4b09a95057631024b0f1e74b8361255afbd32c72f89da453ecae6adfe16b257764beae9b180a6ff3a14c2567d3967f8d176f8fca07e39c93ca13490ace353f479038ea81fd6f78a55699463aac579e05cea1d0ad30e3e540b72d1a0c093913baa8ccf182e643d1fe8cd8e9e80b221e7cf7bf190b17f7c574129b8307c8be01f5d50224388b562b000f251fb3287acc8585f14cd247cfc6d87a09a030c5ffd52c412d3a6f9f00d794f0cb2bcdbf41c1968cb46d04d4e5bf36867cb6c135b456115054f9db9b9d58937ccd4b368426ee1d17a790dd6b4050645259e374784bbad5eed740903bbb8e9dfd2486b16e0368c63cf941b288df00fced8beb7f70bb79fa868ec8100b37e507bfd4fb9ea9058cb5d14b0d059326168b7cbc093d4280057cd6d3fefed2e38cd5f1f44bb0832152582b899e2d8a43ac3a33f8117e42373af24868ad0fa1b782d754606a845fae289eebc864851ca9c94de2ad026bf997ed49afae2523d5d5204ede3d8c51dfd0bdeaaed683cd592ca66404f5d81664a8e3a62ea3e6ebc81f53e729f21317e26d3586d89ef5c5e647c7f2419ddb13774d2d8a90c78455c90332f483f77ad68a81c95977541906869a38c2f595f875b1b52d5a4f375d932a3ee38fc71d8040db37c374f04b7d3ef6687284b31efd7f000283991aa686e981b2db25a1d7c9017574020dfb0bcf10f3e2b22704d6ba58f6eca73b8d7dda1b202d475c62677178a5b0d7e8fe01151d2022243f4b4c606f7980848998d0d3e0e6eaf1f21b1f212b44838a8e9c9ebcd9f81d2c5498a5b3b6b8bbd5dae7fc00000000000000000000000000000000000e25323f01fd2105002c059574c05e18d691c2e25b8704c516dac544e14978cf9743f0e58ed9b8af09a4290d79ad87b1dc537eebfa0cbcadde1c9355de1a7b850bea98108009d6ab4c4f462501012192fde3561e2e2e2040ccdaea7a4ee25d643bbe92d3b5be078db624a9b2c43462fdc0bd48fa462af7a2b8a0d9ef387ac833cf162d90e36d3328a38c1fd4d236727b24599459816aa6aeaacaab58893e0e5676238758af3cb7ac3902062154a885294e7900d70fefae606ced037d65c8d6ccd0d6cc871e94dae7d956ab46fee71cbf900d90a3eb1717466826a47656f9c373d860b2bf9298c06d62bb253a0c60833a9c0dd12f736fc816e92948ab5245d41920957e5bd117e56d53bc4124b0bce3bd229424c91cc2b097a845bf2f7f646b9e3208d9d80eaf50b50bbce184bd3cd9b8307db097897aa8d09cd75cb4b4946d9df2356190f7a6f1fe9b374cf828bca991e6f6bef8541909ee202e78592af426a8d56f09b83036320e701b941f768727bc4d23b1abb6cda4c54c06bc6def35dea0c5293c0bb3f24bf0073994b4030cc7f0151da8e04783771ebec850d9ac546f92cb5631220e1467c80a2b5b27a241f412a2e8a35c9bae3c7d1f70d77d22b4831880b65ecff86cc7d0dfc45cc58d1acc8d7277d14f3423c0b118afd2de843b6d9f0144581a1ceb404f4c315c9470e244b9470aaef6dd5dd386e8ace2719686da1756b3bfeeba0e01f53c4f175db0399bc43844cd26bcb508226d2f8df80a3ccd150c9d39eeda28e87cbc207fb1c58aaf55428810712a290be9a38c17fe5de06679e9a3c5698b242db5b63aea5f252093c442c7f7d0f6d7960168762ec129a6731c23eae677eca7d092ddf818ff6194b9acafd753d883442da161d61e117c6f8eb5ba8d4a4325eb7cab8763f4445555c550b478198546d4753e96c5fe31df822f2a6eb2633f6bdcb473448ad353559582838a2e18c8d6641439bc1ca8643df6ded21ab5e5d681b3dc7a3c754a208cf7199e6a395b3d16336e99a9b80c0d107de7ac6d47a625cf51407f66d90b411da0710a31a425b59fea9259ad7dd1e76f47fd7b71d93e724ca02e46d27ee91a3a7af91446fb73de856cf2abe650a76e74675feca460e372848b9cdaf9d578fba259144d915d2a982e0b9355d165f855d75a416a915c4bca45fdae88878db42748059d16fb309043942dd2c13685d8f9fb26ea437e389497e093afe29cd50fb402e7e9cfc593c6754d0e83ac3871108c222133af33ce4dc29ad87d40895efe13de5a2e80021d039dfe6189efb85aa988a4f919d57f687884405d1d933a59eddb37ad056b980d0d566358976e8583a0bb40d766e35292c225b24aeed1bf1133eef258549496d4e1bd5171895c0d7b366538d443c29c35b2cafba8911282a61908680267f8b21f6d40fd97ab576bde7b28cb7aae04e836ee898d040e77917c80822724e7331bed478d2cdd42e9b38bd00851cff74b1a49b612c6cc02b89279668046765e7e6f7e5553303d830de29c7080ee8be65bdd9518e6eff5fd17f2c773a3239e692bb29722433c35ca725b3523af4c713aa18ec14293fe1dc09050d836303923afd8bec7f4fac8f4deb2c47d303a558591d505d7f6ff3b794f05e60ab1187bb67227e5f1b388cead41ca708155b1c3c7aaa5bbe06749f065bbe54da73a846e9459941d1e2c36cc786e6f3a4994d5dd6ddbfb56828a0d4b6607d8c431823deddb9115b2e2c4348151ca438c6f69661b7b5584402e0e6e5d6afd2091c7ee654205ab7a081fcb1dfe83700db141f6eda1314e5e2b3d57396e173c65a6b33e323a50cf49efce841a63bb4d060789cf6153444117b6c5870f600093182488000000",
  "txid": "b10feb113f49b8923eec29c66f0bfda69e0c3c0a6a77d2ee9feb07e1c4fa18f7",
  "hash": "27d213b73cffe6dd1058c18024fdaa421845596a83e689a6b47b65741331ddd7",
  "size": 5085,
  "vsize": 2278,
  "version": 1,
  "locktime": 136,
  "vin": [
    {
      "txid": "aba795d52dabcd65dcaeaa3035e45cbab2893efd8bc5d2e74f4981b97948ef1e",
      "vout": 1,
      "scriptSig": {
        "asm": "",
        "hex": ""
      },
      "txinwitness": [
        "d6d73426d961455d213be6296eb7ed40c6425c438584a39055171d21d678512330ed7147c6a6f1f2e800ad802df57ed9d896a99de0f282a6ddaedcdd9a95c0671ffc1f20cc6bfb49e1fa4f8fab0c5da88602525579489b417ba7a0d5c9ecf204978f39108aa2b5a4ae8ea9ab0d27fb25d5c7318f01799175e05368dbb33fdb87c491f46ddbb15c3656bf0b2bff981f4648129590b9e8a76a6f538695b9c5a6e3f3d4654c8cd6711f81fca5d1fd93fed62c19dbbd0a7fd595c5819a7c83e49e9c8f9d9c0f16cbe3ea4f31c84a64c83b1a603f523ecaa23109ac40af464aebf1250827b50b28db6194a7bcb4d1f545abf7ef244670e6cbefdb8973c3469ba3202d9c7599efa5ce08267c8ab6049a9a112b4d67fc5cbe93d5cdd509f26cbcdd02e9892ad4eb927fb090acf4d01a6876bb9e1491a1293b2d38453a7d9c961cabfa72c5f5f2841ffeca094a1d49494eb051aaae0884ab9bcddf9375049bd1c438f681b0ef1da40f03bc20b63c8736cc4fefd5c186ee5092c6cc7c979a54b331a54bfcce3f63e1346b52be3b222af65f2940303dcfc8ced816b744a5fdf73599b54f4cb7c40cb2061fdc8019787542eb787055a61d0c35547493c72b56590e95c4ea424f309c35ff556d7f1648329796533c52c1c76c944f982c2e6c88a21c21deba8e42688932cd693c05f2cd7ef46322689d573081960d7ab9b81919f0dcfbbcba585633517eee747f018cf943ad2dcdb3c97654d99de235c74678c8caf7b33be0b733354074c13b51128fdb02935bd205e81370765744e9212d280f28462a741600c584c5f2bcb8344b3782d135f014dca905f2ddca08a8402e46ec17b1c3d84a6da367cf02ea22e7dedfb92811bf8f31a9fe87e33e8402190014ac50c96886553cd44a65df1e21ff229d993de8c19612226a91bc83d6725c35cee0d3fcd3abcca5ee2320f45011f54b5ba82e3f1426b424331184676cc424656938016d4fbb1eabfa88a5b68c567e13a212957e9a775b2a5aba5d1b88e9261ca676c77695826e7730891da5f6abd223558622d948fdfed18d4e53e06d7718d315b703b695aab55261be13b8f3271d3fdf4290ed7d3246546c5153506b9aace9b7b1a88573b2f165beda6452ac530e688b2f05cd8be3863c34a190bda79000aa003560527f2b8108ee6db248abeec0d39004a0cd65d7987c20af3a41d724dcaa7260ed0736e6fb4b6fd9a569f8b9561d6fc7ff59680143e6d41616e37d7b9358f2db45f24f569d3c449b41a900924708be8bb7223affe3dcdffa7fc5a0ad66f625085839134668d229a3122ac9067676bf0ea3580deb0fd25da08805494ee158b2816e12a122db6097bf95d05685d0ba8bb8401d03c1dcd0d2dfea80f3fb9a9dc55b7cdc5468922bfb0a872e963c6ed976c41f2c24e54b61ccebe937fa0da37217402d7c221d99803e4835e65880e9a5f08486aff4669beab1071b3e381ab35a9ad46d5299f84c14beaeb96c40af6cb2f84f11f4b30e3c098189fb7106f82dacc4861a11f7f58c026ca7aafc36a7521f9bf22362d414c58ed820037a51371d3d9e0ed9e6d8750d81388b6236df79fcded65a18b827061adef660596aa15c4cf2757ba271303bf82c06c9f18deac2e5ea2d5ee8fd22bc0de2bee2f5dd84e1bacb77ce441f76791a5de3f7e901962b336f829e149cdaa7818b67ad6a47b011103fe12074ce544f7291f0c33d38a54cb4611ca876450f5673de106218cdc514f6a878cf5f2c0a3ae1abb2ccabf327a94e9fb6c78e043a022bf892a6b39f2ceb6703905a71fdb28c79ed1ca6509d86e805c9df509e604e59499292ad17214e4cd98999914063cd76e776f7520a6d9a333463c64e07359550380af366f618a0a6c206675cecef3d6c72815b2c8fdd541c125a94ff3ee7a0050f7dec1e06f31695ca386beddac1b6a529c090fecd41820bb02448e66a87dfd773683c9fa5e53278858582ec70e7babe01096a8ff7f068c925163bdeb9814ea4d5ed2ab3be87929429d2678d0c2d425e437ad039ac72f57d412afad26093e30f45a1d1cc1e32739705e7fd4806e0be7f9a92b45e30e278a605e931d95850c6a5d81857846ba63413be099130d430f6f2095f024a12e51730ea0a0e2498b5c2b65d44cdb4e35e094e11aee406603bc21073f493eea2cc497c95140873b2c11801829aac8ad6d1d8015aa9063c24d9c815372c07a2609abc97acdf19398a0e74bde1901715ad072ad4df096b98d665a7c415c950dc60f5e8911c663eaf1175e72c973e195d88b1d7e73bace6eb47ad02119fb29f33d04f15252a0f515aefb1dffe1184914a983500286a337aef2a05e50e91b8ebb1e39d851e99b42c660c47612223332b5b4b0dd08af29709ac1639a719b96e44ffa7f26de8ad0f9d19b4bfe4cae47d00031ab81ef51097b7c6da7ab8b41fdb77b66282edaade8024e43bd83e57453019401fc7612f00534469c9f0901a1ca267076f2e2719def1b4def5ac8807d4f8f6fd50202d5f33eb0752148d57e2cc25d17b0a43fa8e57a7033192baea572eb7fb655ef542d27c44ba2cc571bc4b09a95057631024b0f1e74b8361255afbd32c72f89da453ecae6adfe16b257764beae9b180a6ff3a14c2567d3967f8d176f8fca07e39c93ca13490ace353f479038ea81fd6f78a55699463aac579e05cea1d0ad30e3e540b72d1a0c093913baa8ccf182e643d1fe8cd8e9e80b221e7cf7bf190b17f7c574129b8307c8be01f5d50224388b562b000f251fb3287acc8585f14cd247cfc6d87a09a030c5ffd52c412d3a6f9f00d794f0cb2bcdbf41c1968cb46d04d4e5bf36867cb6c135b456115054f9db9b9d58937ccd4b368426ee1d17a790dd6b4050645259e374784bbad5eed740903bbb8e9dfd2486b16e0368c63cf941b288df00fced8beb7f70bb79fa868ec8100b37e507bfd4fb9ea9058cb5d14b0d059326168b7cbc093d4280057cd6d3fefed2e38cd5f1f44bb0832152582b899e2d8a43ac3a33f8117e42373af24868ad0fa1b782d754606a845fae289eebc864851ca9c94de2ad026bf997ed49afae2523d5d5204ede3d8c51dfd0bdeaaed683cd592ca66404f5d81664a8e3a62ea3e6ebc81f53e729f21317e26d3586d89ef5c5e647c7f2419ddb13774d2d8a90c78455c90332f483f77ad68a81c95977541906869a38c2f595f875b1b52d5a4f375d932a3ee38fc71d8040db37c374f04b7d3ef6687284b31efd7f000283991aa686e981b2db25a1d7c9017574020dfb0bcf10f3e2b22704d6ba58f6eca73b8d7dda1b202d475c62677178a5b0d7e8fe01151d2022243f4b4c606f7980848998d0d3e0e6eaf1f21b1f212b44838a8e9c9ebcd9f81d2c5498a5b3b6b8bbd5dae7fc00000000000000000000000000000000000e25323f01",
        "002c059574c05e18d691c2e25b8704c516dac544e14978cf9743f0e58ed9b8af09a4290d79ad87b1dc537eebfa0cbcadde1c9355de1a7b850bea98108009d6ab4c4f462501012192fde3561e2e2e2040ccdaea7a4ee25d643bbe92d3b5be078db624a9b2c43462fdc0bd48fa462af7a2b8a0d9ef387ac833cf162d90e36d3328a38c1fd4d236727b24599459816aa6aeaacaab58893e0e5676238758af3cb7ac3902062154a885294e7900d70fefae606ced037d65c8d6ccd0d6cc871e94dae7d956ab46fee71cbf900d90a3eb1717466826a47656f9c373d860b2bf9298c06d62bb253a0c60833a9c0dd12f736fc816e92948ab5245d41920957e5bd117e56d53bc4124b0bce3bd229424c91cc2b097a845bf2f7f646b9e3208d9d80eaf50b50bbce184bd3cd9b8307db097897aa8d09cd75cb4b4946d9df2356190f7a6f1fe9b374cf828bca991e6f6bef8541909ee202e78592af426a8d56f09b83036320e701b941f768727bc4d23b1abb6cda4c54c06bc6def35dea0c5293c0bb3f24bf0073994b4030cc7f0151da8e04783771ebec850d9ac546f92cb5631220e1467c80a2b5b27a241f412a2e8a35c9bae3c7d1f70d77d22b4831880b65ecff86cc7d0dfc45cc58d1acc8d7277d14f3423c0b118afd2de843b6d9f0144581a1ceb404f4c315c9470e244b9470aaef6dd5dd386e8ace2719686da1756b3bfeeba0e01f53c4f175db0399bc43844cd26bcb508226d2f8df80a3ccd150c9d39eeda28e87cbc207fb1c58aaf55428810712a290be9a38c17fe5de06679e9a3c5698b242db5b63aea5f252093c442c7f7d0f6d7960168762ec129a6731c23eae677eca7d092ddf818ff6194b9acafd753d883442da161d61e117c6f8eb5ba8d4a4325eb7cab8763f4445555c550b478198546d4753e96c5fe31df822f2a6eb2633f6bdcb473448ad353559582838a2e18c8d6641439bc1ca8643df6ded21ab5e5d681b3dc7a3c754a208cf7199e6a395b3d16336e99a9b80c0d107de7ac6d47a625cf51407f66d90b411da0710a31a425b59fea9259ad7dd1e76f47fd7b71d93e724ca02e46d27ee91a3a7af91446fb73de856cf2abe650a76e74675feca460e372848b9cdaf9d578fba259144d915d2a982e0b9355d165f855d75a416a915c4bca45fdae88878db42748059d16fb309043942dd2c13685d8f9fb26ea437e389497e093afe29cd50fb402e7e9cfc593c6754d0e83ac3871108c222133af33ce4dc29ad87d40895efe13de5a2e80021d039dfe6189efb85aa988a4f919d57f687884405d1d933a59eddb37ad056b980d0d566358976e8583a0bb40d766e35292c225b24aeed1bf1133eef258549496d4e1bd5171895c0d7b366538d443c29c35b2cafba8911282a61908680267f8b21f6d40fd97ab576bde7b28cb7aae04e836ee898d040e77917c80822724e7331bed478d2cdd42e9b38bd00851cff74b1a49b612c6cc02b89279668046765e7e6f7e5553303d830de29c7080ee8be65bdd9518e6eff5fd17f2c773a3239e692bb29722433c35ca725b3523af4c713aa18ec14293fe1dc09050d836303923afd8bec7f4fac8f4deb2c47d303a558591d505d7f6ff3b794f05e60ab1187bb67227e5f1b388cead41ca708155b1c3c7aaa5bbe06749f065bbe54da73a846e9459941d1e2c36cc786e6f3a4994d5dd6ddbfb56828a0d4b6607d8c431823deddb9115b2e2c4348151ca438c6f69661b7b5584402e0e6e5d6afd2091c7ee654205ab7a081fcb1dfe83700db141f6eda1314e5e2b3d57396e173c65a6b33e323a50cf49efce841a63bb4d060789cf6153444117b6c5870f6000931824"
      ],
      "sequence": 4294967294
    }
  ],
  "vout": [
    {
      "value": 499961.3578,
      "n": 0,
      "scriptPubKey": {
        "asm": "1 ccdb5214e19e3a841296656f66d8e43506e1eaa0511b04633b2b6571ee37cbde",
        "hex": "5120ccdb5214e19e3a841296656f66d8e43506e1eaa0511b04633b2b6571ee37cbde",
        "reqSigs": 1,
        "type": "witness_v1_scripthash",
        "addresses": [
          "3QJmnh"
        ]
      }
    },
    {
      "value": 1.0,
      "n": 1,
      "scriptPubKey": {
        "asm": "OP_RETURN 21c63b3731ad35085cbcaf715be7a6bc5bc2df6cacb1f4f4db380c5eb4fb3c2a f0095a56fc503b26a7fc38b4704d78f1851331c79cc0d01294944fc562f4bc93d0297a76dc701b0687dc1894506d58d1a53311e7bce0f032b4b46fe542d49cb3b0491a16bc107b66e7bc78f4300d38b1c5537187dc809052d4d40f8522b4fcd390693a369c305b46c79c58d4102d1891e57351a7fca0b072f4f42fa50294dcf37089dad67cd0bba6277cb834f0cdf8710593b1471c4050921414cf45e2743c1350a9faf65cf09b86075c9814d0edd85125b391673c6070b23434ef65c2541c3330c99a963c90fbe6673cf874b08db83145d3f1075c0010d254548f05a2347c5310e9bab61cb0dbc6471cd85490ad981165f3d1277c2030f27474af2582145c73f0095a56fc503b26a7fc38b4704d78f1851331c79cc0d01294944fc562f4bc93d0297a76dc701b0687dc1894506d58d1a53311e7bce0f032b4b46fe542d49cb3b0491a16bc107b66e7bc78f4300d38b1c5537187dc809052d4d40f8522b4fcd390693a369c305b46c79c58d4102d1891e57351a7fca0b072f4f42fa50294dcf37089dad67cd0bba6277cb834f0cdf8710593b1471c4050921414cf45e2743c1350a9faf65cf09b86075c9814d0edd85125b391673c6070b23434ef65c2541c3330c99a963c90fbe6673cf874b08db83145d3f1075c0010d254548f05a2347c5310e9bab61cb0dbc6471cd85490ad981165f3d1277c2030f27474af2582145c73f0095a56fc503b26a7fc38b4704d78f1851331c79cc0d01294944fc562f4bc93d0297a76dc701b0687dc1894506d58d1a53311e7bce0f032b4b46fe542d49cb3b0491a16bc107b66e7bc78f4300d38b1c5537187dc809052d4d40f8522b4fcd390693a369c305b46c79c58d4102d1891e57351a7fca0b072f4f42fa50294dcf37089dad67cd0bba6277cb834f0cdf8710593b1471c4050921414cf45e2743c1350a9faf65cf09b86075c9814d0edd85125b391673c6070b23434ef65c2541c3330c99a963c90fbe6673cf874b08db83145d3f1075c0010d254548f05a2347c5310e9bab61cb0dbc6471cd85490ad981165f3d1277c2030f27474af2582145c73f0095a56fc503b26a7fc38b4704d78f1851331c79cc0d01294944fc562f4bc93d0297a76dc701b0687dc1894506d58d1a53311e7bce0f032b4b46fe542d49cb3b0491a16bc107b66e7bc78f4300d38b1c5537187dc809052d4d40f8522b4fcd390693a369c305b46c79c58d4102d1891e57351a7fca0b072f4f42fa50294dcf37089dad67cd0bba6277cb834f0cdf8710593b1471c4050921414cf45e2743c1350a9faf65cf09b86075c9814d0edd85125b391673c6070b23434ef65c2541c3330c99a963c90fbe6673cf874b08db83145d3f1075c0010d254548f05a2347c5310e9bab61cb0dbc6471cd85490ad981165f3d1277c2030f27474af2582145c73f0095a56fc503b26a7fc38b4704d78f1851331c79cc0d01294944fc562f4bc93d0297a76dc701b0687dc1894506d58d1a53311e7bce0f032b4b46fe542d49cb3b0491a16bc107b66e7bc78f4300d38b1c5537187dc809052d4d40f8522b4fcd390693a369c305b46c79c58d4102d1891e57351a7fca0b072f4f42fa50294dcf37089dad67cd0bba6277cb834f0cdf87128f538e4de909c73429c9d790d3875a92789718f83d26bed05a138308b8d8fdb",
        "hex": "6a2021c63b3731ad35085cbcaf715be7a6bc5bc2df6cacb1f4f4db380c5eb4fb3c2a4db004f0095a56fc503b26a7fc38b4704d78f1851331c79cc0d01294944fc562f4bc93d0297a76dc701b0687dc1894506d58d1a53311e7bce0f032b4b46fe542d49cb3b0491a16bc107b66e7bc78f4300d38b1c5537187dc809052d4d40f8522b4fcd390693a369c305b46c79c58d4102d1891e57351a7fca0b072f4f42fa50294dcf37089dad67cd0bba6277cb834f0cdf8710593b1471c4050921414cf45e2743c1350a9faf65cf09b86075c9814d0edd85125b391673c6070b23434ef65c2541c3330c99a963c90fbe6673cf874b08db83145d3f1075c0010d254548f05a2347c5310e9bab61cb0dbc6471cd85490ad981165f3d1277c2030f27474af2582145c73f0095a56fc503b26a7fc38b4704d78f1851331c79cc0d01294944fc562f4bc93d0297a76dc701b0687dc1894506d58d1a53311e7bce0f032b4b46fe542d49cb3b0491a16bc107b66e7bc78f4300d38b1c5537187dc809052d4d40f8522b4fcd390693a369c305b46c79c58d4102d1891e57351a7fca0b072f4f42fa50294dcf37089dad67cd0bba6277cb834f0cdf8710593b1471c4050921414cf45e2743c1350a9faf65cf09b86075c9814d0edd85125b391673c6070b23434ef65c2541c3330c99a963c90fbe6673cf874b08db83145d3f1075c0010d254548f05a2347c5310e9bab61cb0dbc6471cd85490ad981165f3d1277c2030f27474af2582145c73f0095a56fc503b26a7fc38b4704d78f1851331c79cc0d01294944fc562f4bc93d0297a76dc701b0687dc1894506d58d1a53311e7bce0f032b4b46fe542d49cb3b0491a16bc107b66e7bc78f4300d38b1c5537187dc809052d4d40f8522b4fcd390693a369c305b46c79c58d4102d1891e57351a7fca0b072f4f42fa50294dcf37089dad67cd0bba6277cb834f0cdf8710593b1471c4050921414cf45e2743c1350a9faf65cf09b86075c9814d0edd85125b391673c6070b23434ef65c2541c3330c99a963c90fbe6673cf874b08db83145d3f1075c0010d254548f05a2347c5310e9bab61cb0dbc6471cd85490ad981165f3d1277c2030f27474af2582145c73f0095a56fc503b26a7fc38b4704d78f1851331c79cc0d01294944fc562f4bc93d0297a76dc701b0687dc1894506d58d1a53311e7bce0f032b4b46fe542d49cb3b0491a16bc107b66e7bc78f4300d38b1c5537187dc809052d4d40f8522b4fcd390693a369c305b46c79c58d4102d1891e57351a7fca0b072f4f42fa50294dcf37089dad67cd0bba6277cb834f0cdf8710593b1471c4050921414cf45e2743c1350a9faf65cf09b86075c9814d0edd85125b391673c6070b23434ef65c2541c3330c99a963c90fbe6673cf874b08db83145d3f1075c0010d254548f05a2347c5310e9bab61cb0dbc6471cd85490ad981165f3d1277c2030f27474af2582145c73f0095a56fc503b26a7fc38b4704d78f1851331c79cc0d01294944fc562f4bc93d0297a76dc701b0687dc1894506d58d1a53311e7bce0f032b4b46fe542d49cb3b0491a16bc107b66e7bc78f4300d38b1c5537187dc809052d4d40f8522b4fcd390693a369c305b46c79c58d4102d1891e57351a7fca0b072f4f42fa50294dcf37089dad67cd0bba6277cb834f0cdf87128f538e4de909c73429c9d790d3875a92789718f83d26bed05a138308b8d8fdb",
        "type": "nulldata"
      }
    }
  ],
  "blockhash": "c0ea0e6b16ad20f35d4757cbcff39c3d199dbd7e252fa8e6bc9f3f36ee858c22",
  "confirmations": 1,
  "time": 1764183276,
  "blocktime": 1764183276
}