{
  "hex": "01000000000101b0aabce8ecf2cb32bff5d6af6197d2a1abb57c30da119077e47e8a3342b435ca0100000000feffffff02e021231b792d0000225120f32bf1ee6e6f672aad3ae4dc519782abb5c7cd512a291308bb88993d7948592400e1f50500000000fdd5046a20a92ae90588d9892c2dc4e49304d4bf8b6fd956e0ba185e739ec28a51616443534db00457c70721f46ee8c22105b6b09b9b0c1fc1af42258b6331fa2b85aaf9491d140377e72701d44ec8e201259690bbbb2c3fe18f6205ab4311da0ba58ad9693d342317874761b42ea8826145f6f0dbdb4c5f81ef0265cb2371ba6bc5eab9095d544337a76741940e88a24165d6d0fbfb6c7fa1cf2245eb03519a4be5ca99297d7463d74787a174ee6842a18536301b1b8c9f412fc2a50be3b17aab052a79c99d9483f767a78154ce486281a516103b3bacbf610fe2852bc3915a8b250a59e9bdb4a39707c7e134ae2802e1c576705b5bccdf016f82e54ba3f13aeb456a3989ddd4c3b727e7c1148e0822c1e556507b7becff214fa2c56b83d11acb654a19a9fdf4e357c70721f46ee8c22105b6b09b9b0c1fc1af42258b6331fa2b85aaf9491d140377e72701d44ec8e201259690bbbb2c3fe18f6205ab4311da0ba58ad9693d342317874761b42ea8826145f6f0dbdb4c5f81ef0265cb2371ba6bc5eab9095d544337a76741940e88a24165d6d0fbfb6c7fa1cf2245eb03519a4be5ca99297d7463d74787a174ee6842a18536301b1b8c9f412fc2a50be3b17aab052a79c99d9483f767a78154ce486281a516103b3bacbf610fe2852bc3915a8b250a59e9bdb4a39707c7e134ae2802e1c576705b5bccdf016f82e54ba3f13aeb456a3989ddd4c3b727e7c1148e0822c1e556507b7becff214fa2c56b83d11acb654a19a9fdf4e357c70721f46ee8c22105b6b09b9b0c1fc1af42258b6331fa2b85aaf9491d140377e72701d44ec8e201259690bbbb2c3fe18f6205ab4311da0ba58ad9693d342317874761b42ea8826145f6f0dbdb4c5f81ef0265cb2371ba6bc5eab9095d544337a76741940e88a24165d6d0fbfb6c7fa1cf2245eb03519a4be5ca99297d7463d74787a174ee6842a18536301b1b8c9f412fc2a50be3b17aab052a79c99d9483f767a78154ce486281a516103b3bacbf610fe2852bc3915a8b250a59e9bdb4a39707c7e134ae2802e1c576705b5bccdf016f82e54ba3f13aeb456a3989ddd4c3b727e7c1148e0822c1e556507b7becff214fa2c56b83d11acb654a19a9fdf4e357c70721f46ee8c22105b6b09b9b0c1fc1af42258b6331fa2b85aaf9491d140377e72701d44ec8e201259690bbbb2c3fe18f6205ab4311da0ba58ad9693d342317874761b42ea8826145f6f0dbdb4c5f81ef0265cb2371ba6bc5eab9095d544337a76741940e88a24165d6d0fbfb6c7fa1cf2245eb03519a4be5ca99297d7463d74787a174ee6842a18536301b1b8c9f412fc2a50be3b17aab052a79c99d9483f767a78154ce486281a516103b3bacbf610fe2852bc3915a8b250a59e9bdb4a39707c7e134ae2802e1c576705b5bccdf016f82e54ba3f13aeb456a3989ddd4c3b727e7c1148e0822c1e556507b7becff214fa2c56b83d11acb654a19a9fdf4e357c70721f46ee8c22105b6b09b9b0c1fc1af42258b6331fa2b85aaf9491d140377e72701d44ec8e201259690bbbb2c3fe18f6205ab4311da0ba58ad9693d342317874761b42ea8826145f6f0dbdb4c5f81ef0265cb2371ba6bc5eab9095d544337a76741940e88a24165d6d0fbfb6c7fa1cf2245eb03519a4be5ca99297d7463d74787a174ee6842a18536301b1b8c9f2a9fa80a3b99672b9740efb5fc38997443f04f542f80b777a848868a2214c3f502fd750927f828a67ffe6fcc768a2862c93e75350ce493e6e5cf8ba7a24ecb8bd190ceefb00bc6ab28c2ba5de665c36965ee5709e96f3343855bacd2099a24fa7cd76ea3728f7647a7cec2c0299cd86cbe9ce500e3fa6f2cce54e2d4a75910e201772daa2f234394907be48d247e6473e32f7d717303f5a36bae35a2d53e521661dc10beacbfdafb8e70299e29d6c3cab2a47030cfa31162daa259b4124e6c30279b7cd004a7ed4de47038845399318456fd557ac7867328ca3ee82869b74c900ab339208f017a5c894d94781ff85d7e0e129c01deaaa5554154842f3412bdd614c0829184ef75437051b20df8fd3bf12361f9ce6362285ab9608e60b4cf62c9b19dd57749e5ee453ac50d6888dbe3629392b6bb506519dff9a3755e37abcb64968107dba7276ba9b7acf9f1668da86bd8f6c0f7cc45603798e7883f1bb7019fa7cd7278ba6705a13fa89cd5527d08620b6c62dcfc0eefd30e8b46f3790709d2ca1bebb5a2e63ef1181128dbe617714c1ae82af6cc9082fec14596fce139e7535b746cc96ea2314691379d6f2a541f6a8f5aaf10f90dc4e5ee744505ea470fc434c2291b222b7a41c91c76b2c32ba426181ac579e4a41a1bda394eb345f95de4bf22576383adf8bae83f97d5eb5e6f3c34d9a7bbec6eadd0ecd0d60de249b3f58717e3a637083ed51149b57792ff4172782776c2f00c5612009e6d63967646de1e4d09a687a609942ec800ea6d220949c30cf1b27c525fbe080d86c67a54d11fb35b2474a5f36b184d876bc5982796958aa5596ed26819d5c18eaf97bfabe56eb81fb0908695d39c3f284951c9e1dfde30aaaf78e6e88fb6915208146e9a6f987abd4b27ffe8273c6fa606fd105f75be5454364d59285b61e077603be5b3693640674a008fcc48f57775171811ba86edbdbbe9e382b167b70a6c8fd138e5b4ce8e3f7c54331cd00be8d37b0ced21cc4a9d7f4d758e7dbbb9387097c7ebed6bdff4a214fb13dbc38d10e609875730adafe5df747756dce25e8ea0dda56be77a2d6e0bab1e6c017c936ce8a4c277022ee39a8c5a601b53130658269485054c922acf0ca583ddbde955bf01cd7f5c4d03a29073177ce9ba4b5950f12d9878eaaa500bab4bc08287cbf56521c43ab093779c232a08b1803e4ff22cc5bd7860e9b8db0c222c4b90ca4b4aa143bd8fcca9663cba88078170937c2eb3889e16d38e1c43c1522eb69331c05b88bf24952d7212243f8394ca243d54f82019ed6ce4aeead721b617e610595794319577777df818a0d1aca5a61129f8a057ce4980dc8c68f85a4ff0e8e158de5fbcc5d1e3bf5d42963e30a262d045910d48b79eec32d43c14d7363c8963bbace01a2f6c56a0729e1a17cb21f398a87825e65061e980163f6769db378dd89c52313439067ab78e46906f33bd01eeffaaaaac045d981ccbc0446fa1c2ebfc25291cfa71d9a0ba039113bb3a04299a6054485836532b382b300d480d0d74ea89dd2071b6dd5591dd950c7763dfc241ad6740bcfa57a471cee11a2a2fb4bf8e9ef32db5ba73d2bccce1b7812eb9c0d447b3343591096ea60d2531a82bc89f00eb43f51083792cebda9ee09626259563365e4ee45524086d6f81acf25d6fbb99afeaded8a012b6c13679c91d6fd495e31a73f52ad228c262dd344489bfa1be64d875a78f6182e01009f2e08ddbdfadbe59f011b52531fbb756cccbb5aab17d378558f4a92db69b9a85f31d0448582d8108efbd0f482eaa1053d4097ded5544457b2a92ed148b59174bee7cf0c80d57d18b40f6b58b33858383e78cf4d209cdb9c4feaa3b36c5d474645edb0acd57e0716250207e50158460c16885a91bb793ab5d97595d54aaaedcc46ecc7dbf4969f4bdf15ac5bd51ad126e2e069d508a709619553940fc4036b11c62f62e88666a4edfca079ebc218756145f5106e010dbe41a33f29036fc2a6b482a5d87e50382f28713c1be9a41354fef62e33fb268f3e19c0f26749fab88d038d13eab69da64338cb1d7645ef753bbdb86c9b8f7724ee929c67a7a21262fbc7587b63842ce4ec4223ce5259a262faa654c2548107ba877f6c78ef8809ec84829ffcab8d04722e1aabc0800a20e7e2ced6770fdc21fc52b5b8015ac15a162a92844057fc4776feb41b2720a898756fab17da7ee36248fbdc3e0ffb15962193d59680e90069e56e91761e917dd789eb37b48039ffb653ae53541a4d2f4deb3149a8341b5d2f04863ada4cd48a032a628b4b668ade1755d8c270949804d6fe75150bedaf01b3b31da27dec121ccf87c7215a3c8a7eba610983e2499c46621398be8f7aeee1e967b71e9547796da03db939c308b4ea6b720524273d4b064b58d1b565bca7654098057044e68b1b2bf626bed3583875f66791c039d984ad5f7419a845a6ac258debfa4b59925244549ec8a25787e8f70ba7cbdb6e8ce5e4681f55766fa3c3cd8e8d5555bb295ffd65c8c4802a4420d3dcfd1884e13feb14115c88e62347899ecb7ca7fd534787e59496d2e245525f74e4aebaaba89d8b4ae601e887e1856a2dbeedfa300ea29fd5e0ae8f1ee21f61840b767fe7bcdb2c573aedd35edee7b98fe5638de060da96db3de9c36163fc9a981ac5d636137d15556d01e9649927847f4aad49a1bfe1eb85834422a20557a8e36ba01020091afc0103d189d3fdf8551d84cdc2c7f2f64f7433691bda68694660b5e278d9cdbeb6f5122e8bd7a8e0407d501898dd6a289e634cd097c0a39fca41c931c24401eef8ffc4bce5d4d26c7fb681acc3744192670c9a6ef36f8342844406f80297a89f2cb1f844fe3c6d24ded36b6fa91f5e037d587eca5b2f117f8b129b2d21519b8d7f8c9c3823ec937777c0976bb1c8df3f573c857ebd5008410aacc35f84502cfa8666da670f6913cca739f29c375a67fa93600295920c05c3c0900e1453ea2db18de8e3e8d7a322cb4debc526b2db7525327723e03a567978c8fdf85c4a3db39c65b0fc81a2fb6c9b3b6a38cd6355bfc36e672d284083a653f4d2a401e66fd20e6c8510399db12c24bd122dd3826bab3b6fca99725a4d3d9a38d0f812a7919e560d17a80edf837bdc4d12e6ba56e57fb6914f5a963758899047bee8355b3a225ff9e9261162001fd8b500501971bd5ce61f7225c08a4db5dd4893c818dbf05985dfca9251f57bf5dbfaf9365bb86535078682229dec94d09441675c36669e85c9cbfe2fd174e13d3c5c2c9aa3806dd6441129f68367ba3e9bd5c08327785df2eeda92692a8547c5f7c8eadb4a25d7018bc895e7c1d5f32eb4122f834b912151e242a4e55575d63717a8692a4acd2d9dcf8fc0f2f31353c3f49555d69848fa4cfd1e7f6020610111e1f2629323a404f586c76898f909195a6a9afc3ee0919262e3f4a656c6e9098a5b9c2cbeaef15263f5001fd2105003ce89d2604cfd999ad02b9ceddd2ad16effc13b6736880a9f0aeb10a916fc9af8dcbbc8b7481514a806f5fcb68a6f67cc1cd3a50ec8310491a0e860c18b2d62b0636824f901baa85b39d3db44c8a620e0d0bb333c47b48960876fb7501ad7133298b812e7f0ef47a9c786921672240389b43045fb2f764b3b5b07b40b48822e34283855eee2a4d1aa7bbee5271f1fe865db5474456f78f1aeae955534e9825bed9663fe614516c53094d17f35d59e773336cc91f7c6dca94e85a39817be8c265478f44dbef88f6fc5d27b4147a206e3292ddf3128351c37efd913d51a092df197a8cd292284b375dc8700bad1784b7dfce84ae8bce7bd7a39acf61749e8b8eacfb3125dd17597a7d5c1ccd15a4178da81986688841798fb14b8cc5e1ece3527cf6a4990de1ba441edca8f5e57c09ed1b61363c827dae66cdfffacbdad2013102b303360529bd929434fafce747c3d42ac9e85635a18d15e469ca0464dbbd9ff44e4f313316a1efa88f4a71afd42c42cd7d3323ef026f50d199dc72f1db171f2accacd8e58b20415bec2a4a83bb3cb2079c60f2a9848cdbbd3aadc020b7273cf68f006934f46a259aa2601d239061645e417062da7b5d854a52191c546b53904cfe54c45fac514b274e7db8f67cac425821e3a017dc03e457f9f2c6fcdf002781f60cc8ae92d20e8f185d917f15b0a57276a022a64b7b620cbe42d78a014bad8d2978b54d92f0ecf6d40ab5ccf9bd97da00c7085b5dda995acb3593d0ea3b65b5dff5f0634bfd4312e96c137b753ef1be256b408bbc2fedf29e804adeea20abee8cba90f170cf4c55a260870e2693870c49d1ecca7f2c862366d2f28ffa98e12323462b604654c475b4fa54e9c4279d3e3e932d9016ab9f092d5e96a2b355031185f46763623d5b8a95e44ad4cabff41d57635a48b5de577785b4e40e7784685cc53a9d9e483a9125e617693827ce34e0480ef014358de0ef06dc46a2bb8c8d428818728310a9e3034efcda93e45b54444887a127a436d3d8e12526f2f71d5382a25714ca68fe421c586a8c3efadabb2624b8dcaf5f36e1467414dc899e1671eb3edbe860ea0d0e5ec0c8388b75a9f99f5111abdde2ee090469bf330aefca7d9c6f76c1ef6b4532d037204ca745cf3292fb036cbf5990dfc20ee1417da6935b48260b7b744a164a841f685b578355de3ddcda0d533a32afeb02990a7d32bf06672125709ef7d8d5d1975f54f750cca30bc9cabf483135799a823d0d4bc8ea1ba54b8b3e502649d1e4f92cbacef26b8f167f5acd84ef32f5d567637936acb5ef2cb9e9790e544f2e66a3181d3d9f13ccb23fcc776d3bfc6ee76b43319d518d9d4b6eda3f5c2de6c710d8c3ceccd7d8a036545efe0219c69d3c05468714f77ce249cf4e2dfb1884e32906c8edc5acc02ab9308a50918aa72d1e24eff3b39a975af3073d5cbcd7bfbeccaa9f9623f40aba8a0aac38b1bccfd3914874856039c03535267caaf06fac77290d16d60b934cd089f8c0845e267e685a900bc398a5c38f2f8080bc12ee91945240b37646587b7ecddb43f826a69fe5b2458c122d8f1bb4d8c314793a5f25089983477a9e6f91b66b15e42cf9838effa282b9adfdff37eb5e8e51793bcf17294e9cb26dc40a27ec7d6fea751f3ce1d63bff3ecd79f2e72145fde3cd265047229da16354368a13861c0f66f13b6b384fe8cf38601623f94130e5ac8ad8ea35e013a21e910b4c1714147796248d742c2b7bc4c8827297eca52e9f1aa3430b6b4f9a5824109a4ab5919459a50bd9432ec28e245321099e308c9877577fa126b7c185cfe6f636752deeca39d2120740d503b0cede562f590f653e78000000",
  "txid": "b96ebf7c10b2bc49efdffad0ca676f8079a49fb1e355847463b43df18b684349",
  "hash": "b5c98840202163dcb87441d9261e94d6311b4b95d8c5056a5d1b164276dc1fc4",
  "size": 5085,
  "vsize": 2278,
  "version": 1,
  "locktime": 120,
  "vin": [
    {
      "txid": "ca35b442338a7ee4779011da307cb5aba1d29761afd6f5bf32cbf2ece8bcaab0",
      "vout": 1,
      "scriptSig": {
        "asm": "",
        "hex": ""
      },
      "txinwitness": [
        "27f828a67ffe6fcc768a2862c93e75350ce493e6e5cf8ba7a24ecb8bd190ceefb00bc6ab28c2ba5de665c36965ee5709e96f3343855bacd2099a24fa7cd76ea3728f7647a7cec2c0299cd86cbe9ce500e3fa6f2cce54e2d4a75910e201772daa2f234394907be48d247e6473e32f7d717303f5a36bae35a2d53e521661dc10beacbfdafb8e70299e29d6c3cab2a47030cfa31162daa259b4124e6c30279b7cd004a7ed4de47038845399318456fd557ac7867328ca3ee82869b74c900ab339208f017a5c894d94781ff85d7e0e129c01deaaa5554154842f3412bdd614c0829184ef75437051b20df8fd3bf12361f9ce6362285ab9608e60b4cf62c9b19dd57749e5ee453ac50d6888dbe3629392b6bb506519dff9a3755e37abcb64968107dba7276ba9b7acf9f1668da86bd8f6c0f7cc45603798e7883f1bb7019fa7cd7278ba6705a13fa89cd5527d08620b6c62dcfc0eefd30e8b46f3790709d2ca1bebb5a2e63ef1181128dbe617714c1ae82af6cc9082fec14596fce139e7535b746cc96ea2314691379d6f2a541f6a8f5aaf10f90dc4e5ee744505ea470fc434c2291b222b7a41c91c76b2c32ba426181ac579e4a41a1bda394eb345f95de4bf22576383adf8bae83f97d5eb5e6f3c34d9a7bbec6eadd0ecd0d60de249b3f58717e3a637083ed51149b57792ff4172782776c2f00c5612009e6d63967646de1e4d09a687a609942ec800ea6d220949c30cf1b27c525fbe080d86c67a54d11fb35b2474a5f36b184d876bc5982796958aa5596ed26819d5c18eaf97bfabe56eb81fb0908695d39c3f284951c9e1dfde30aaaf78e6e88fb6915208146e9a6f987abd4b27ffe8273c6fa606fd105f75be5454364d59285b61e077603be5b3693640674a008fcc48f57775171811ba86edbdbbe9e382b167b70a6c8fd138e5b4ce8e3f7c54331cd00be8d37b0ced21cc4a9d7f4d758e7dbbb9387097c7ebed6bdff4a214fb13dbc38d10e609875730adafe5df747756dce25e8ea0dda56be77a2d6e0bab1e6c017c936ce8a4c277022ee39a8c5a601b53130658269485054c922acf0ca583ddbde955bf01cd7f5c4d03a29073177ce9ba4b5950f12d9878eaaa500bab4bc08287cbf56521c43ab093779c232a08b1803e4ff22cc5bd7860e9b8db0c222c4b90ca4b4aa143bd8fcca9663cba88078170937c2eb3889e16d38e1c43c1522eb69331c05b88bf24952d7212243f8394ca243d54f82019ed6ce4aeead721b617e610595794319577777df818a0d1aca5a61129f8a057ce4980dc8c68f85a4ff0e8e158de5fbcc5d1e3bf5d42963e30a262d045910d48b79eec32d43c14d7363c8963bbace01a2f6c56a0729e1a17cb21f398a87825e65061e980163f6769db378dd89c52313439067ab78e46906f33bd01eeffaaaaac045d981ccbc0446fa1c2ebfc25291cfa71d9a0ba039113bb3a04299a6054485836532b382b300d480d0d74ea89dd2071b6dd5591dd950c7763dfc241ad6740bcfa57a471cee11a2a2fb4bf8e9ef32db5ba73d2bccce1b7812eb9c0d447b3343591096ea60d2531a82bc89f00eb43f51083792cebda9ee09626259563365e4ee45524086d6f81acf25d6fbb99afeaded8a012b6c13679c91d6fd495e31a73f52ad228c262dd344489bfa1be64d875a78f6182e01009f2e08ddbdfadbe59f011b52531fbb756cccbb5aab17d378558f4a92db69b9a85f31d0448582d8108efbd0f482eaa1053d4097ded5544457b2a92ed148b59174bee7cf0c80d57d18b40f6b58b33858383e78cf4d209cdb9c4feaa3b36c5d474645edb0acd57e0716250207e50158460c16885a91bb793ab5d97595d54aaaedcc46ecc7dbf4969f4bdf15ac5bd51ad126e2e069d508a709619553940fc4036b11c62f62e88666a4edfca079ebc218756145f5106e010dbe41a33f29036fc2a6b482a5d87e50382f28713c1be9a41354fef62e33fb268f3e19c0f26749fab88d038d13eab69da64338cb1d7645ef753bbdb86c9b8f7724ee929c67a7a21262fbc7587b63842ce4ec4223ce5259a262faa654c2548107ba877f6c78ef8809ec84829ffcab8d04722e1aabc0800a20e7e2ced6770fdc21fc52b5b8015ac15a162a92844057fc4776feb41b2720a898756fab17da7ee36248fbdc3e0ffb15962193d59680e90069e56e91761e917dd789eb37b48039ffb653ae53541a4d2f4deb3149a8341b5d2f04863ada4cd48a032a628b4b668ade1755d8c270949804d6fe75150bedaf01b3b31da27dec121ccf87c7215a3c8a7eba610983e2499c46621398be8f7aeee1e967b71e9547796da03db939c308b4ea6b720524273d4b064b58d1b565bca7654098057044e68b1b2bf626bed3583875f66791c039d984ad5f7419a845a6ac258debfa4b59925244549ec8a25787e8f70ba7cbdb6e8ce5e4681f55766fa3c3cd8e8d5555bb295ffd65c8c4802a4420d3dcfd1884e13feb14115c88e62347899ecb7ca7fd534787e59496d2e245525f74e4aebaaba89d8b4ae601e887e1856a2dbeedfa300ea29fd5e0ae8f1ee21f61840b767fe7bcdb2c573aedd35edee7b98fe5638de060da96db3de9c36163fc9a981ac5d636137d15556d01e9649927847f4aad49a1bfe1eb85834422a20557a8e36ba01020091afc0103d189d3fdf8551d84cdc2c7f2f64f7433691bda68694660b5e278d9cdbeb6f5122e8bd7a8e0407d501898dd6a289e634cd097c0a39fca41c931c24401eef8ffc4bce5d4d26c7fb681acc3744192670c9a6ef36f8342844406f80297a89f2cb1f844fe3c6d24ded36b6fa91f5e037d587eca5b2f117f8b129b2d21519b8d7f8c9c3823ec937777c0976bb1c8df3f573c857ebd5008410aacc35f84502cfa8666da670f6913cca739f29c375a67fa93600295920c05c3c0900e1453ea2db18de8e3e8d7a322cb4debc526b2db7525327723e03a567978c8fdf85c4a3db39c65b0fc81a2fb6c9b3b6a38cd6355bfc36e672d284083a653f4d2a401e66fd20e6c8510399db12c24bd122dd3826bab3b6fca99725a4d3d9a38d0f812a7919e560d17a80edf837bdc4d12e6ba56e57fb6914f5a963758899047bee8355b3a225ff9e9261162001fd8b500501971bd5ce61f7225c08a4db5dd4893c818dbf05985dfca9251f57bf5dbfaf9365bb86535078682229dec94d09441675c36669e85c9cbfe2fd174e13d3c5c2c9aa3806dd6441129f68367ba3e9bd5c08327785df2eeda92692a8547c5f7c8eadb4a25d7018bc895e7c1d5f32eb4122f834b912151e242a4e55575d63717a8692a4acd2d9dcf8fc0f2f31353c3f49555d69848fa4cfd1e7f6020610111e1f2629323a404f586c76898f909195a6a9afc3ee0919262e3f4a656c6e9098a5b9c2cbeaef15263f5001",
        "003ce89d2604cfd999ad02b9ceddd2ad16effc13b6736880a9f0aeb10a916fc9af8dcbbc8b7481514a806f5fcb68a6f67cc1cd3a50ec8310491a0e860c18b2d62b0636824f901baa85b39d3db44c8a620e0d0bb333c47b48960876fb7501ad7133298b812e7f0ef47a9c786921672240389b43045fb2f764b3b5b07b40b48822e34283855eee2a4d1aa7bbee5271f1fe865db5474456f78f1aeae955534e9825bed9663fe614516c53094d17f35d59e773336cc91f7c6dca94e85a39817be8c265478f44dbef88f6fc5d27b4147a206e3292ddf3128351c37efd913d51a092df197a8cd292284b375dc8700bad1784b7dfce84ae8bce7bd7a39acf61749e8b8eacfb3125dd17597a7d5c1ccd15a4178da81986688841798fb14b8cc5e1ece3527cf6a4990de1ba441edca8f5e57c09ed1b61363c827dae66cdfffacbdad2013102b303360529bd929434fafce747c3d42ac9e85635a18d15e469ca0464dbbd9ff44e4f313316a1efa88f4a71afd42c42cd7d3323ef026f50d199dc72f1db171f2accacd8e58b20415bec2a4a83bb3cb2079c60f2a9848cdbbd3aadc020b7273cf68f006934f46a259aa2601d239061645e417062da7b5d854a52191c546b53904cfe54c45fac514b274e7db8f67cac425821e3a017dc03e457f9f2c6fcdf002781f60cc8ae92d20e8f185d917f15b0a57276a022a64b7b620cbe42d78a014bad8d2978b54d92f0ecf6d40ab5ccf9bd97da00c7085b5dda995acb3593d0ea3b65b5dff5f0634bfd4312e96c137b753ef1be256b408bbc2fedf29e804adeea20abee8cba90f170cf4c55a260870e2693870c49d1ecca7f2c862366d2f28ffa98e12323462b604654c475b4fa54e9c4279d3e3e932d9016ab9f092d5e96a2b355031185f46763623d5b8a95e44ad4cabff41d57635a48b5de577785b4e40e7784685cc53a9d9e483a9125e617693827ce34e0480ef014358de0ef06dc46a2bb8c8d428818728310a9e3034efcda93e45b54444887a127a436d3d8e12526f2f71d5382a25714ca68fe421c586a8c3efadabb2624b8dcaf5f36e1467414dc899e1671eb3edbe860ea0d0e5ec0c8388b75a9f99f5111abdde2ee090469bf330aefca7d9c6f76c1ef6b4532d037204ca745cf3292fb036cbf5990dfc20ee1417da6935b48260b7b744a164a841f685b578355de3ddcda0d533a32afeb02990a7d32bf06672125709ef7d8d5d1975f54f750cca30bc9cabf483135799a823d0d4bc8ea1ba54b8b3e502649d1e4f92cbacef26b8f167f5acd84ef32f5d567637936acb5ef2cb9e9790e544f2e66a3181d3d9f13ccb23fcc776d3bfc6ee76b43319d518d9d4b6eda3f5c2de6c710d8c3ceccd7d8a036545efe0219c69d3c05468714f77ce249cf4e2dfb1884e32906c8edc5acc02ab9308a50918aa72d1e24eff3b39a975af3073d5cbcd7bfbeccaa9f9623f40aba8a0aac38b1bccfd3914874856039c03535267caaf06fac77290d16d60b934cd089f8c0845e267e685a900bc398a5c38f2f8080bc12ee91945240b37646587b7ecddb43f826a69fe5b2458c122d8f1bb4d8c314793a5f25089983477a9e6f91b66b15e42cf9838effa282b9adfdff37eb5e8e51793bcf17294e9cb26dc40a27ec7d6fea751f3ce1d63bff3ecd79f2e72145fde3cd265047229da16354368a13861c0f66f13b6b384fe8cf38601623f94130e5ac8ad8ea35e013a21e910b4c1714147796248d742c2b7bc4c8827297eca52e9f1aa3430b6b4f9a5824109a4ab5919459a50bd9432ec28e245321099e308c9877577fa126b7c185cfe6f636752deeca39d2120740d503b0cede562f590f653e"
      ],
      "sequence": 4294967294
    }
  ],
  "vout": [
    {
      "value": 499981.6958,
      "n": 0,
      "scriptPubKey": {
        "asm": "1 f32bf1ee6e6f672aad3ae4dc519782abb5c7cd512a291308bb88993d79485924",
        "hex": "5120f32bf1ee6e6f672aad3ae4dc519782abb5c7cd512a291308bb88993d79485924",
        "reqSigs": 1,
        "type": "witness_v1_scripthash",
        "addresses": [
          "3QJmnh"
        ]
      }
    },
    {
      "value": 1.0,
      "n": 1,
      "scriptPubKey": {
        "asm": "OP_RETURN a92ae90588d9892c2dc4e49304d4bf8b6fd956e0ba185e739ec28a5161644353 57c70721f46ee8c22105b6b09b9b0c1fc1af42258b6331fa2b85aaf9491d140377e72701d44ec8e201259690bbbb2c3fe18f6205ab4311da0ba58ad9693d342317874761b42ea8826145f6f0dbdb4c5f81ef0265cb2371ba6bc5eab9095d544337a76741940e88a24165d6d0fbfb6c7fa1cf2245eb03519a4be5ca99297d7463d74787a174ee6842a18536301b1b8c9f412fc2a50be3b17aab052a79c99d9483f767a78154ce486281a516103b3bacbf610fe2852bc3915a8b250a59e9bdb4a39707c7e134ae2802e1c576705b5bccdf016f82e54ba3f13aeb456a3989ddd4c3b727e7c1148e0822c1e556507b7becff214fa2c56b83d11acb654a19a9fdf4e357c70721f46ee8c22105b6b09b9b0c1fc1af42258b6331fa2b85aaf9491d140377e72701d44ec8e201259690bbbb2c3fe18f6205ab4311da0ba58ad9693d342317874761b42ea8826145f6f0dbdb4c5f81ef0265cb2371ba6bc5eab9095d544337a76741940e88a24165d6d0fbfb6c7fa1cf2245eb03519a4be5ca99297d7463d74787a174ee6842a18536301b1b8c9f412fc2a50be3b17aab052a79c99d9483f767a78154ce486281a516103b3bacbf610fe2852bc3915a8b250a59e9bdb4a39707c7e134ae2802e1c576705b5bccdf016f82e54ba3f13aeb456a3989ddd4c3b727e7c1148e0822c1e556507b7becff214fa2c56b83d11acb654a19a9fdf4e357c70721f46ee8c22105b6b09b9b0c1fc1af42258b6331fa2b85aaf9491d140377e72701d44ec8e201259690bbbb2c3fe18f6205ab4311da0ba58ad9693d342317874761b42ea8826145f6f0dbdb4c5f81ef0265cb2371ba6bc5eab9095d544337a76741940e88a24165d6d0fbfb6c7fa1cf2245eb03519a4be5ca99297d7463d74787a174ee6842a18536301b1b8c9f412fc2a50be3b17aab052a79c99d9483f767a78154ce486281a516103b3bacbf610fe2852bc3915a8b250a59e9bdb4a39707c7e134ae2802e1c576705b5bccdf016f82e54ba3f13aeb456a3989ddd4c3b727e7c1148e0822c1e556507b7becff214fa2c56b83d11acb654a19a9fdf4e357c70721f46ee8c22105b6b09b9b0c1fc1af42258b6331fa2b85aaf9491d140377e72701d44ec8e201259690bbbb2c3fe18f6205ab4311da0ba58ad9693d342317874761b42ea8826145f6f0dbdb4c5f81ef0265cb2371ba6bc5eab9095d544337a76741940e88a24165d6d0fbfb6c7fa1cf2245eb03519a4be5ca99297d7463d74787a174ee6842a18536301b1b8c9f412fc2a50be3b17aab052a79c99d9483f767a78154ce486281a516103b3bacbf610fe2852bc3915a8b250a59e9bdb4a39707c7e134ae2802e1c576705b5bccdf016f82e54ba3f13aeb456a3989ddd4c3b727e7c1148e0822c1e556507b7becff214fa2c56b83d11acb654a19a9fdf4e357c70721f46ee8c22105b6b09b9b0c1fc1af42258b6331fa2b85aaf9491d140377e72701d44ec8e201259690bbbb2c3fe18f6205ab4311da0ba58ad9693d342317874761b42ea8826145f6f0dbdb4c5f81ef0265cb2371ba6bc5eab9095d544337a76741940e88a24165d6d0fbfb6c7fa1cf2245eb03519a4be5ca99297d7463d74787a174ee6842a18536301b1b8c9f2a9fa80a3b99672b9740efb5fc38997443f04f542f80b777a848868a2214c3f5",
        "hex": "6a20a92ae90588d9892c2dc4e49304d4bf8b6fd956e0ba185e739ec28a51616443534db00457c70721f46ee8c22105b6b09b9b0c1fc1af42258b6331fa2b85aaf9491d140377e72701d44ec8e201259690bbbb2c3fe18f6205ab4311da0ba58ad9693d342317874761b42ea8826145f6f0dbdb4c5f81ef0265cb2371ba6bc5eab9095d544337a76741940e88a24165d6d0fbfb6c7fa1cf2245eb03519a4be5ca99297d7463d74787a174ee6842a18536301b1b8c9f412fc2a50be3b17aab052a79c99d9483f767a78154ce486281a516103b3bacbf610fe2852bc3915a8b250a59e9bdb4a39707c7e134ae2802e1c576705b5bccdf016f82e54ba3f13aeb456a3989ddd4c3b727e7c1148e0822c1e556507b7becff214fa2c56b83d11acb654a19a9fdf4e357c70721f46ee8c22105b6b09b9b0c1fc1af42258b6331fa2b85aaf9491d140377e72701d44ec8e201259690bbbb2c3fe18f6205ab4311da0ba58ad9693d342317874761b42ea8826145f6f0dbdb4c5f81ef0265cb2371ba6bc5eab9095d544337a76741940e88a24165d6d0fbfb6c7fa1cf2245eb03519a4be5ca99297d7463d74787a174ee6842a18536301b1b8c9f412fc2a50be3b17aab052a79c99d9483f767a78154ce486281a516103b3bacbf610fe2852bc3915a8b250a59e9bdb4a39707c7e134ae2802e1c576705b5bccdf016f82e54ba3f13aeb456a3989ddd4c3b727e7c1148e0822c1e556507b7becff214fa2c56b83d11acb654a19a9fdf4e357c70721f46ee8c22105b6b09b9b0c1fc1af42258b6331fa2b85aaf9491d140377e72701d44ec8e201259690bbbb2c3fe18f6205ab4311da0ba58ad9693d342317874761b42ea8826145f6f0dbdb4c5f81ef0265cb2371ba6bc5eab9095d544337a76741940e88a24165d6d0fbfb6c7fa1cf2245eb03519a4be5ca99297d7463d74787a174ee6842a18536301b1b8c9f412fc2a50be3b17aab052a79c99d9483f767a78154ce486281a516103b3bacbf610fe2852bc3915a8b250a59e9bdb4a39707c7e134ae2802e1c576705b5bccdf016f82e54ba3f13aeb456a3989ddd4c3b727e7c1148e0822c1e556507b7becff214fa2c56b83d11acb654a19a9fdf4e357c70721f46ee8c22105b6b09b9b0c1fc1af42258b6331fa2b85aaf9491d140377e72701d44ec8e201259690bbbb2c3fe18f6205ab4311da0ba58ad9693d342317874761b42ea8826145f6f0dbdb4c5f81ef0265cb2371ba6bc5eab9095d544337a76741940e88a24165d6d0fbfb6c7fa1cf2245eb03519a4be5ca99297d7463d74787a174ee6842a18536301b1b8c9f412fc2a50be3b17aab052a79c99d9483f767a78154ce486281a516103b3bacbf610fe2852bc3915a8b250a59e9bdb4a39707c7e134ae2802e1c576705b5bccdf016f82e54ba3f13aeb456a3989ddd4c3b727e7c1148e0822c1e556507b7becff214fa2c56b83d11acb654a19a9fdf4e357c70721f46ee8c22105b6b09b9b0c1fc1af42258b6331fa2b85aaf9491d140377e72701d44ec8e201259690bbbb2c3fe18f6205ab4311da0ba58ad9693d342317874761b42ea8826145f6f0dbdb4c5f81ef0265cb2371ba6bc5eab9095d544337a76741940e88a24165d6d0fbfb6c7fa1cf2245eb03519a4be5ca99297d7463d74787a174ee6842a18536301b1b8c9f2a9fa80a3b99672b9740efb5fc38997443f04f542f80b777a848868a2214c3f5",
        "type": "nulldata"
      }
    }
  ],
  "blockhash": "0125d69e6984563ac74cb1b0b8601a67b424e71230e7918fa710584dbb11162a",
  "confirmations": 1,
  "time": 1764180090,
  "blocktime": 1764180090
}