{
  "hex": "010000000001012e4b48de417b13ed8561c462b04d98d60b52a6b9c1ea1712103533924d50ffc80000000000feffffff02e07828ba782d00002251206cbd9e054a58a1dd2d339f77ba71a1850fe70c2ba2764bdf77b7a0635a4228f600e1f50500000000fdd5046a20e8e4a3898be94803d876ad708a635afd08eaefa3ef735b908d5e58c3bba989f04db00415bcbc65768d8507b195fa5b602e5922e30e979e945c89eb1de8efcd0dbced8f359c9c4556ada52791b5da7b400e7902c32eb7beb47ca9cb3dc8cfed2d9ccdaf55fcfc2536cdc547f1d5ba1b206e1962a34ed7ded41cc9ab5da8af8d4dfcadcf75dcdc0516ede567d1f59a3b004e3942836ef7fef43ce98b7d888fad6ddc8def953c3ce5f60d058731157adbe0aed9a2638e171e14dc096b9d686f4d8d3c6d0fb51c1cc5d62d25a711355afbc08ef98243ae373e34fc294bbd484f6dad1c4d2fd57c7ca5b64d45c771553a9ba0ee99e223ce575e549c492bdd282f0dcd7c2d4ff55c5c85966d65e751751abb80ceb9c203ee777e74bc690bfd080f2ded5c0d6f15bcbc65768d8507b195fa5b602e5922e30e979e945c89eb1de8efcd0dbced8f359c9c4556ada52791b5da7b400e7902c32eb7beb47ca9cb3dc8cfed2d9ccdaf55fcfc2536cdc547f1d5ba1b206e1962a34ed7ded41cc9ab5da8af8d4dfcadcf75dcdc0516ede567d1f59a3b004e3942836ef7fef43ce98b7d888fad6ddc8def953c3ce5f60d058731157adbe0aed9a2638e171e14dc096b9d686f4d8d3c6d0fb51c1cc5d62d25a711355afbc08ef98243ae373e34fc294bbd484f6dad1c4d2fd57c7ca5b64d45c771553a9ba0ee99e223ce575e549c492bdd282f0dcd7c2d4ff55c5c85966d65e751751abb80ceb9c203ee777e74bc690bfd080f2ded5c0d6f15bcbc65768d8507b195fa5b602e5922e30e979e945c89eb1de8efcd0dbced8f359c9c4556ada52791b5da7b400e7902c32eb7beb47ca9cb3dc8cfed2d9ccdaf55fcfc2536cdc547f1d5ba1b206e1962a34ed7ded41cc9ab5da8af8d4dfcadcf75dcdc0516ede567d1f59a3b004e3942836ef7fef43ce98b7d888fad6ddc8def953c3ce5f60d058731157adbe0aed9a2638e171e14dc096b9d686f4d8d3c6d0fb51c1cc5d62d25a711355afbc08ef98243ae373e34fc294bbd484f6dad1c4d2fd57c7ca5b64d45c771553a9ba0ee99e223ce575e549c492bdd282f0dcd7c2d4ff55c5c85966d65e751751abb80ceb9c203ee777e74bc690bfd080f2ded5c0d6f15bcbc65768d8507b195fa5b602e5922e30e979e945c89eb1de8efcd0dbced8f359c9c4556ada52791b5da7b400e7902c32eb7beb47ca9cb3dc8cfed2d9ccdaf55fcfc2536cdc547f1d5ba1b206e1962a34ed7ded41cc9ab5da8af8d4dfcadcf75dcdc0516ede567d1f59a3b004e3942836ef7fef43ce98b7d888fad6ddc8def953c3ce5f60d058731157adbe0aed9a2638e171e14dc096b9d686f4d8d3c6d0fb51c1cc5d62d25a711355afbc08ef98243ae373e34fc294bbd484f6dad1c4d2fd57c7ca5b64d45c771553a9ba0ee99e223ce575e549c492bdd282f0dcd7c2d4ff55c5c85966d65e751751abb80ceb9c203ee777e74bc690bfd080f2ded5c0d6f15bcbc65768d8507b195fa5b602e5922e30e979e945c89eb1de8efcd0dbced8f359c9c4556ada52791b5da7b400e7902c32eb7beb47ca9cb3dc8cfed2d9ccdaf55fcfc2536cdc547f1d5ba1b206e1962a34ed7ded41cc9ab5da8af8d4dfcadcf75dcdc0516ede567d1f59a3b004e3942836ef7fef43ce98b7d888fad6ddc8def953c3ce5f60d058731157adbe0aed9a2ee9927be5282754d8abf09ddf1deb313d7a8e9ed484a4fe115f2f5a1efd06ae702fd7509cf5722d1c5509bb30b9086e21a8470b56f33eb3e1a38ba82d2ee1f66a503e028f49e48bf4b1fe8508c97c088670a43d1da586bad68855273ab29cd9a5f43bab992642d0bdb2667e377ec0c3fb8044769513b3d381df640e43624cc1b293cab5db960926850ab6c90af4155fb8a5be6fbccc0b7d3e9b258a454e4cab543f8f7a170707f2fc93157cf84c4b287f2f94defb43dea837dc8d68921e6ba27c0f015f038b273ba0384aecdf81cf7d57255513866330c75cb5d00a82b0f3a6c7e56bbfa9a8c8b2fef466bb8cfa5872b61202c10bae251d58730adc1401346cc622e506e627727303bedf61fe811e522042956c2b8455a2e3d210922db8556c90b6a96a2338471412aa6e671a242a2b3084ea3d037c33df94ea7150c425036d5252bf724e66efc725eee9cbbcf4b844670dbb9aae62120249498cdcc0a81bdf596f661a607ac8ee8208416e4185913e58e99d516c5c9fd2cdea90ae2e7aaeeee0d735676c3870cc0fae4b3ca7d38a4a4eebe725307f04d56d5fbfa9e37f11f36025ab9485372ef18dc467af8c7c8b4b7b19f7d6d90a673b103726296edb56f73a3a58024457ec28c70274738488e91fe9429dc331d7478468ec2e6155ebd33ca608df8602e840d4e1037156cb2187952967ce47cbae38d77111e9f0ee7e5455d5a3b07c33555565f1b9abb0bbed0dd3d45e32c2303ada6a4cd99217f4b921c2672716ae7516846bcaf915d92a928438183d9e2ece274cc4d752ad36a0d7d8b565964db8c9c3a49034b21f464e9623fd59e846509a5f5a22d9e191269cf4d35bccb188e86f43a90beea4626620f44ea4945f723f50a8d6357536d6a405fe47c7a9349591925774f03b5890b6033e7a0b1f8162e1e19776e36e5e2c658c42288b7780b710b15218a559756f58c40297bf4c9c9e6a4baba438b00d4e7479108d68740e8b940f3b95b069517355f278765dfe1dd382899815b38b2a7827c310581161c88bf44dfd67f52a346632ef19d6b019576572436c54723d53c8d6765799473422e0bf69a0045d64ce453ae82a7ba3c6b552518b9b291c4ad1456cdfe162f4c39fe04b20b587575de6f1f95fe75c31941fc1d8ea268f84e2537d3693d787db631297786d9905579505a020331edc018ee240d8f0f052a68f9ecc64b9dbbd5e5421ed45ee1cfd56f8d75ec5b3a58a9c2dd6916a50a1f44c904e0688f735a74c8407dfb9054ac526679daca01ab62946d40cef086c4fd1ddd79223009c42a0a673fcb7a4fa58703cf7c5c2b6117b88ce3ddf0b88bafd6a23e898d559dc49a9ea0d4e3f85bcc1b762bbbeee7e5155a99736e668525ce3aa98e13192fa63459c5385a2406563407e58e86920c885f634f912191e470ef15099233cbccf0e89c5cd33a134c5be16d5a511b470009c19f2ab3e873cec46eefaa30e2e2491eb9db7eed05726617bbc3f013fe3fb656fad6745b725feab1d8727623b281814fb06d6207da6b343c370e64c1b78ec635f9e87a2ec75f4434800f59cec89c469c94f1e079de5b517395b08e557cb13d4f31a037c5bac2d91d9e13e9014f0919d00a53fc105f7091ca114386e06b36dac89997c544ee5f4ad90bef3caaa8d69a841c72fb6dfaeed9f8f0cdc729799a1b391e576c9d8efd545e3908b12e9332e547165a59581175daa658e1ab06b1017f26a861a4cfa1871fd522d1f66d9dde53e798b9f26938f0cd32a3e9e4e8266be63d45a8f974a9b4d2221772e8692fa3cd2dcfbdc583a452eb3c166f6bfd4034164166e77eed406bb6eef8d6417ed0e7e9bfd5021615e3dcbf513f49bedef04880854046cd4a888decf007fbd97a12dbd84b6c0c457623269a0d1ceaba08358305133cbd59bafc2ff7e763ccd9a0723f592954bde72669d027ddfa99bb4a87261a79368cce423a00691a9221cef80aa6aaca5217bd2e7ae4dc01d85866d430874c2f1ba2c033b87ed4e58621e2fb871ff0cb143b709581dfb0628981cc70034b579f579f1cd059089d686e9621d30e5f24a5bb26557de6f68c5cf3d400b902359d769edd4d87b5ff887d08368abaae81a828bd2e56dfe4fb90af9fd2ebc956888046b1fad588292af67bd3258a1139a57ec795f17a2efbdc0e024c178185832a3c882d3c74e087e3885e2a84d985c221a854a0e3039d7a89ded581ece0945bdd2d40ab7f1996e25e9368a90b9a07a062163a104a46aea42b4d589057c837eefa346333cbb2f75424a0d755a79b3ab12ed8d0c082a629bb1aa9c021ba843152319d6ebd75a9f125e936fd5826a7a7e26d4dcb5e8e94548be636b7c62b4833acde9d49bd279c22ad04d6c9763dd43e4d4d470c16f29e0497f25852d17785bb6ae41f0c60f6f5542bb1a4485d1964e7f02e693f072f1c8e08cff5e92c2038cdad602d2b72ce5cec614060b4081442b878d0f55017c0dc0fdebc5f26e5badb34bb058485f587c164598e16e49213e613eb44ede5a4312923c2b902c8c26232c314bb189d2d2fb7fe9644d6591026eda69b675917ea3b2758319a9d4c7296700a72c095cb7b62162f6aaa9f9bb45aff81e80c45242416c7ee68648ad3f9a0a08de3c8bec3f70b43b2d73a1fe62602d4bb0b4890335a2f52e0720516e584d7ff61c7269e7e075bb44c63a375517c549d085c589a4cb52618f77e6dae11192b65271542ba52c917c0e2c96760d2fc933ddaeb73208be9609820e4bf811dd033c3a8b98f04ce0a3a751fc2b6c8961a0e3e1075732fe2b00c136011646ac5b93dd23c04607cc755cf86073fce3fa45d8546e6361af589bba2860d5ebf8362dc3958a3d513cdf0955e52f576df96b5c09d823ef931149e5ccb900298bf90ee5f69942e78cc721f074c97fb9ac33d2bf18b85c55f1995b6c5c95848adbcf0a15e710779d5eae432b4a0acad3b0b48e5fd2f3b77b02173982ea9bf9232a083869a0be7220790cb45947f069dabfa808554ed99e8accf1937b927dd3607473c9f757706bb4d16fd72026904e435ff18791b2fd97adface28b974c0787e7b8190721403a4376261a145abf6e753c6ff65180bdd34a9fe67c6d99f5d57933900808f37cfae6f9d104aeebaceac71d112521a5883ce762a1f8c1e3257bca092b1ef4d5f8031d2ab0cd07482a9673ff242c58ca3797b931eb6459dd2fd5c3f052c0c67b9602ea6820449250a263452ff335c1a11289d45b072bf3e28aeddd7b31e0adbb170171ce20ec0bd3de2ffae3ecde1812758f099c6d751cd12b25c45ff6077276b74a247057f4ac5dc75e6fdcd9a964dc7bab2b0ae68baf97c5acd5bfa514b9213a3f6f7286a7afb5b6c1d6eceef1020e252b515b63686aa1b0cadb323a4145839dfafb1122254954587e84898d99b3cfd8deeaebfa00000000000000000000000000000000000000000000000000000f1c243601fd210500967797a80049bf6e33f0f56f3aeb4da00c120cbf32a92ca062357ac61b4fc5779ed8b99d2bd0789671ce81900378bf3f5f4512d81e26b6a30698ee1177949cea1ba0591e1505195934544186bf4bc4aad735f650297f9249a7ffa8fb9736c48df3900276caca2003356b45cc59de83e99f95e767d7648311f09448989ff0aa84df902648fcc729b9e97c945a4c09aa2d1e1d9f1decc33b8d6f6e8d9fe813a7fe12c548c76247636718a9ab4c6aa1450ecdcd4cbbaed8e85a26808a8a4e953f46b87b15a5788c26a7a73da532536fa24ca1ea8e9708377afefc4c6ad40a869cec26dd93e1857a9b369f01664f7cefee11d946cfe2315e676781a48d101225776532977cd8032316c4df14c742a6e9ddb8c4beb7d38453015623feed83880e615e681794de645ab7610eaf496d7e0e5ca5e6926c5cbb2d0740fe799c6cd4723c6faf7977cd520a7ef3a23f8ed04782440fb68e8c879e5f56a8520c1845e9df60a103bfc6cb303accd9223e42e1a75c785af2f7126720918fe841597277add631290af9afa2528c28e0a60c4083b866dfbf8484daf39a56b8fe43e85b3224ee7a152a66527185fe29700caf105ae74555ed8d8bf3e486950f1a0f433bc8bcd72642a165a9ac80143e97a72528db98f81af7f4f9506121eb54975a74b6d0f11c90e3734fb4795cc89d483a05d8e70f8a781416e73a964297961de4cb3458584a264033265c36382bb3624e346e69be3514ebb3a585ed3cdf83c64153a610dc8ce22ce8a70ac991541fba2686e9009694398045ec6afb9de26371a519874bdfb84c9d30b454c437f215e2778ad8990d56554914d3eefea6a4a5c903363d78e2575862647d4ce7ab998cad901d5f7ab81800b3427d2ee274a8c662787f47c834187b8def23fbac3bad41582d6d7e964ebdd7afba8c6b26be98af4e6c30b792e2ab735625c472df65ee45a19a2c9f4b8eeb6e283dd6b209e48269c60332c89165bcce51da6c740b60d7067d66eaace3a1b72287e69ce15cb3a50dbce99f7f8b702cc533762729e56fbcb8419ed70948319725ca5711c322997dabf9588df531b287521bd0fcc907e9680e7d0764425d10969a34941891d6dcdd7aafa8f1be072e984b2d3508f9e8d9d8fbe63d6f2ab3201c5ae43f7739863818ada7b94e7b84aa6c561d1153fc3bfa9da8b86a445db8f43027a683b240e8d32c7c2826b23a42529fa48d088932711b77a6009c060639bc57902a07eaed494e5bc827d796dc973c46654e7f22f6ae9ba7fbf0ddf18f71f0764c563e32d80d1731ac7e1113d3b570ee0e13cc39afad6d0b59e711138411bf421d995f01b562b83fb625aa9390973c1f68730d0f2c92eb64935bcc7891e0d3525bac85c5649df8ba566a51868145c22da1dc832bcfd09b19dfcc7c357b6dc0feed530c3e222904fd889d2b03b09233fc3d81637190861841e2181f5127ca3a9d3ce7a094a8e619b13edca3aec9a985be6a1df30e171e4a381ffde933a6d9f06158d810796fd0039ef2826f84a65440a41e2f30665f6604bb4c022bfd5b7857848ef798dded0ae4b8a6d7280c8a677dc1a262887eb9d94e59f286fcf70f2c855b9b8876d5f864f88c506e0a4a05748e6c2a766ea2b608f3ab0c5cfd6bb2e701331dd68c36701d44c15bc3c0a1ea2b7087394e744531c909a3e378f5142faa8ff16a71e17f553f2c139ffe68ee188589bad2cffbb8eff1317c73e0c160defdf3650c26ee72288eb4d56f065b4be88985e55d3f56aac8b18eca9b9e2e9855f7b2b99313aaeb5902513f161a2dde855693bd37898583973c0c7634968cc7eb463d36c53ddbfa3fd4155f80453180ca4b0626cd2b84000000",
  "txid": "b1fff9f825cc5227090d0001a9a9093e5f17351264204af41569c691c6220359",
  "hash": "f6359531a1577709270b189ed41ccc6cec83cb43fef36151cd51555618f5bde1",
  "size": 5085,
  "vsize": 2278,
  "version": 1,
  "locktime": 132,
  "vin": [
    {
      "txid": "c8ff504d923335101217eac1b9a6520bd6984db062c46185ed137b41de484b2e",
      "vout": 0,
      "scriptSig": {
        "asm": "",
        "hex": ""
      },
      "txinwitness": [
        "cf5722d1c5509bb30b9086e21a8470b56f33eb3e1a38ba82d2ee1f66a503e028f49e48bf4b1fe8508c97c088670a43d1da586bad68855273ab29cd9a5f43bab992642d0bdb2667e377ec0c3fb8044769513b3d381df640e43624cc1b293cab5db960926850ab6c90af4155fb8a5be6fbccc0b7d3e9b258a454e4cab543f8f7a170707f2fc93157cf84c4b287f2f94defb43dea837dc8d68921e6ba27c0f015f038b273ba0384aecdf81cf7d57255513866330c75cb5d00a82b0f3a6c7e56bbfa9a8c8b2fef466bb8cfa5872b61202c10bae251d58730adc1401346cc622e506e627727303bedf61fe811e522042956c2b8455a2e3d210922db8556c90b6a96a2338471412aa6e671a242a2b3084ea3d037c33df94ea7150c425036d5252bf724e66efc725eee9cbbcf4b844670dbb9aae62120249498cdcc0a81bdf596f661a607ac8ee8208416e4185913e58e99d516c5c9fd2cdea90ae2e7aaeeee0d735676c3870cc0fae4b3ca7d38a4a4eebe725307f04d56d5fbfa9e37f11f36025ab9485372ef18dc467af8c7c8b4b7b19f7d6d90a673b103726296edb56f73a3a58024457ec28c70274738488e91fe9429dc331d7478468ec2e6155ebd33ca608df8602e840d4e1037156cb2187952967ce47cbae38d77111e9f0ee7e5455d5a3b07c33555565f1b9abb0bbed0dd3d45e32c2303ada6a4cd99217f4b921c2672716ae7516846bcaf915d92a928438183d9e2ece274cc4d752ad36a0d7d8b565964db8c9c3a49034b21f464e9623fd59e846509a5f5a22d9e191269cf4d35bccb188e86f43a90beea4626620f44ea4945f723f50a8d6357536d6a405fe47c7a9349591925774f03b5890b6033e7a0b1f8162e1e19776e36e5e2c658c42288b7780b710b15218a559756f58c40297bf4c9c9e6a4baba438b00d4e7479108d68740e8b940f3b95b069517355f278765dfe1dd382899815b38b2a7827c310581161c88bf44dfd67f52a346632ef19d6b019576572436c54723d53c8d6765799473422e0bf69a0045d64ce453ae82a7ba3c6b552518b9b291c4ad1456cdfe162f4c39fe04b20b587575de6f1f95fe75c31941fc1d8ea268f84e2537d3693d787db631297786d9905579505a020331edc018ee240d8f0f052a68f9ecc64b9dbbd5e5421ed45ee1cfd56f8d75ec5b3a58a9c2dd6916a50a1f44c904e0688f735a74c8407dfb9054ac526679daca01ab62946d40cef086c4fd1ddd79223009c42a0a673fcb7a4fa58703cf7c5c2b6117b88ce3ddf0b88bafd6a23e898d559dc49a9ea0d4e3f85bcc1b762bbbeee7e5155a99736e668525ce3aa98e13192fa63459c5385a2406563407e58e86920c885f634f912191e470ef15099233cbccf0e89c5cd33a134c5be16d5a511b470009c19f2ab3e873cec46eefaa30e2e2491eb9db7eed05726617bbc3f013fe3fb656fad6745b725feab1d8727623b281814fb06d6207da6b343c370e64c1b78ec635f9e87a2ec75f4434800f59cec89c469c94f1e079de5b517395b08e557cb13d4f31a037c5bac2d91d9e13e9014f0919d00a53fc105f7091ca114386e06b36dac89997c544ee5f4ad90bef3caaa8d69a841c72fb6dfaeed9f8f0cdc729799a1b391e576c9d8efd545e3908b12e9332e547165a59581175daa658e1ab06b1017f26a861a4cfa1871fd522d1f66d9dde53e798b9f26938f0cd32a3e9e4e8266be63d45a8f974a9b4d2221772e8692fa3cd2dcfbdc583a452eb3c166f6bfd4034164166e77eed406bb6eef8d6417ed0e7e9bfd5021615e3dcbf513f49bedef04880854046cd4a888decf007fbd97a12dbd84b6c0c457623269a0d1ceaba08358305133cbd59bafc2ff7e763ccd9a0723f592954bde72669d027ddfa99bb4a87261a79368cce423a00691a9221cef80aa6aaca5217bd2e7ae4dc01d85866d430874c2f1ba2c033b87ed4e58621e2fb871ff0cb143b709581dfb0628981cc70034b579f579f1cd059089d686e9621d30e5f24a5bb26557de6f68c5cf3d400b902359d769edd4d87b5ff887d08368abaae81a828bd2e56dfe4fb90af9fd2ebc956888046b1fad588292af67bd3258a1139a57ec795f17a2efbdc0e024c178185832a3c882d3c74e087e3885e2a84d985c221a854a0e3039d7a89ded581ece0945bdd2d40ab7f1996e25e9368a90b9a07a062163a104a46aea42b4d589057c837eefa346333cbb2f75424a0d755a79b3ab12ed8d0c082a629bb1aa9c021ba843152319d6ebd75a9f125e936fd5826a7a7e26d4dcb5e8e94548be636b7c62b4833acde9d49bd279c22ad04d6c9763dd43e4d4d470c16f29e0497f25852d17785bb6ae41f0c60f6f5542bb1a4485d1964e7f02e693f072f1c8e08cff5e92c2038cdad602d2b72ce5cec614060b4081442b878d0f55017c0dc0fdebc5f26e5badb34bb058485f587c164598e16e49213e613eb44ede5a4312923c2b902c8c26232c314bb189d2d2fb7fe9644d6591026eda69b675917ea3b2758319a9d4c7296700a72c095cb7b62162f6aaa9f9bb45aff81e80c45242416c7ee68648ad3f9a0a08de3c8bec3f70b43b2d73a1fe62602d4bb0b4890335a2f52e0720516e584d7ff61c7269e7e075bb44c63a375517c549d085c589a4cb52618f77e6dae11192b65271542ba52c917c0e2c96760d2fc933ddaeb73208be9609820e4bf811dd033c3a8b98f04ce0a3a751fc2b6c8961a0e3e1075732fe2b00c136011646ac5b93dd23c04607cc755cf86073fce3fa45d8546e6361af589bba2860d5ebf8362dc3958a3d513cdf0955e52f576df96b5c09d823ef931149e5ccb900298bf90ee5f69942e78cc721f074c97fb9ac33d2bf18b85c55f1995b6c5c95848adbcf0a15e710779d5eae432b4a0acad3b0b48e5fd2f3b77b02173982ea9bf9232a083869a0be7220790cb45947f069dabfa808554ed99e8accf1937b927dd3607473c9f757706bb4d16fd72026904e435ff18791b2fd97adface28b974c0787e7b8190721403a4376261a145abf6e753c6ff65180bdd34a9fe67c6d99f5d57933900808f37cfae6f9d104aeebaceac71d112521a5883ce762a1f8c1e3257bca092b1ef4d5f8031d2ab0cd07482a9673ff242c58ca3797b931eb6459dd2fd5c3f052c0c67b9602ea6820449250a263452ff335c1a11289d45b072bf3e28aeddd7b31e0adbb170171ce20ec0bd3de2ffae3ecde1812758f099c6d751cd12b25c45ff6077276b74a247057f4ac5dc75e6fdcd9a964dc7bab2b0ae68baf97c5acd5bfa514b9213a3f6f7286a7afb5b6c1d6eceef1020e252b515b63686aa1b0cadb323a4145839dfafb1122254954587e84898d99b3cfd8deeaebfa00000000000000000000000000000000000000000000000000000f1c243601",
        "00967797a80049bf6e33f0f56f3aeb4da00c120cbf32a92ca062357ac61b4fc5779ed8b99d2bd0789671ce81900378bf3f5f4512d81e26b6a30698ee1177949cea1ba0591e1505195934544186bf4bc4aad735f650297f9249a7ffa8fb9736c48df3900276caca2003356b45cc59de83e99f95e767d7648311f09448989ff0aa84df902648fcc729b9e97c945a4c09aa2d1e1d9f1decc33b8d6f6e8d9fe813a7fe12c548c76247636718a9ab4c6aa1450ecdcd4cbbaed8e85a26808a8a4e953f46b87b15a5788c26a7a73da532536fa24ca1ea8e9708377afefc4c6ad40a869cec26dd93e1857a9b369f01664f7cefee11d946cfe2315e676781a48d101225776532977cd8032316c4df14c742a6e9ddb8c4beb7d38453015623feed83880e615e681794de645ab7610eaf496d7e0e5ca5e6926c5cbb2d0740fe799c6cd4723c6faf7977cd520a7ef3a23f8ed04782440fb68e8c879e5f56a8520c1845e9df60a103bfc6cb303accd9223e42e1a75c785af2f7126720918fe841597277add631290af9afa2528c28e0a60c4083b866dfbf8484daf39a56b8fe43e85b3224ee7a152a66527185fe29700caf105ae74555ed8d8bf3e486950f1a0f433bc8bcd72642a165a9ac80143e97a72528db98f81af7f4f9506121eb54975a74b6d0f11c90e3734fb4795cc89d483a05d8e70f8a781416e73a964297961de4cb3458584a264033265c36382bb3624e346e69be3514ebb3a585ed3cdf83c64153a610dc8ce22ce8a70ac991541fba2686e9009694398045ec6afb9de26371a519874bdfb84c9d30b454c437f215e2778ad8990d56554914d3eefea6a4a5c903363d78e2575862647d4ce7ab998cad901d5f7ab81800b3427d2ee274a8c662787f47c834187b8def23fbac3bad41582d6d7e964ebdd7afba8c6b26be98af4e6c30b792e2ab735625c472df65ee45a19a2c9f4b8eeb6e283dd6b209e48269c60332c89165bcce51da6c740b60d7067d66eaace3a1b72287e69ce15cb3a50dbce99f7f8b702cc533762729e56fbcb8419ed70948319725ca5711c322997dabf9588df531b287521bd0fcc907e9680e7d0764425d10969a34941891d6dcdd7aafa8f1be072e984b2d3508f9e8d9d8fbe63d6f2ab3201c5ae43f7739863818ada7b94e7b84aa6c561d1153fc3bfa9da8b86a445db8f43027a683b240e8d32c7c2826b23a42529fa48d088932711b77a6009c060639bc57902a07eaed494e5bc827d796dc973c46654e7f22f6ae9ba7fbf0ddf18f71f0764c563e32d80d1731ac7e1113d3b570ee0e13cc39afad6d0b59e711138411bf421d995f01b562b83fb625aa9390973c1f68730d0f2c92eb64935bcc7891e0d3525bac85c5649df8ba566a51868145c22da1dc832bcfd09b19dfcc7c357b6dc0feed530c3e222904fd889d2b03b09233fc3d81637190861841e2181f5127ca3a9d3ce7a094a8e619b13edca3aec9a985be6a1df30e171e4a381ffde933a6d9f06158d810796fd0039ef2826f84a65440a41e2f30665f6604bb4c022bfd5b7857848ef798dded0ae4b8a6d7280c8a677dc1a262887eb9d94e59f286fcf70f2c855b9b8876d5f864f88c506e0a4a05748e6c2a766ea2b608f3ab0c5cfd6bb2e701331dd68c36701d44c15bc3c0a1ea2b7087394e744531c909a3e378f5142faa8ff16a71e17f553f2c139ffe68ee188589bad2cffbb8eff1317c73e0c160defdf3650c26ee72288eb4d56f065b4be88985e55d3f56aac8b18eca9b9e2e9855f7b2b99313aaeb5902513f161a2dde855693bd37898583973c0c7634968cc7eb463d36c53ddbfa3fd4155f80453180ca4b0626cd2b"
      ],
      "sequence": 4294967294
    }
  ],
  "vout": [
    {
      "value": 499965.4254,
      "n": 0,
      "scriptPubKey": {
        "asm": "1 6cbd9e054a58a1dd2d339f77ba71a1850fe70c2ba2764bdf77b7a0635a4228f6",
        "hex": "51206cbd9e054a58a1dd2d339f77ba71a1850fe70c2ba2764bdf77b7a0635a4228f6",
        "reqSigs": 1,
        "type": "witness_v1_scripthash",
        "addresses": [
          "3QJmnh"
        ]
      }
    },
    {
      "value": 1.0,
      "n": 1,
      "scriptPubKey": {
        "asm": "OP_RETURN e8e4a3898be94803d876ad708a635afd08eaefa3ef735b908d5e58c3bba989f0 15bcbc65768d8507b195fa5b602e5922e30e979e945c89eb1de8efcd0dbced8f359c9c4556ada52791b5da7b400e7902c32eb7beb47ca9cb3dc8cfed2d9ccdaf55fcfc2536cdc547f1d5ba1b206e1962a34ed7ded41cc9ab5da8af8d4dfcadcf75dcdc0516ede567d1f59a3b004e3942836ef7fef43ce98b7d888fad6ddc8def953c3ce5f60d058731157adbe0aed9a2638e171e14dc096b9d686f4d8d3c6d0fb51c1cc5d62d25a711355afbc08ef98243ae373e34fc294bbd484f6dad1c4d2fd57c7ca5b64d45c771553a9ba0ee99e223ce575e549c492bdd282f0dcd7c2d4ff55c5c85966d65e751751abb80ceb9c203ee777e74bc690bfd080f2ded5c0d6f15bcbc65768d8507b195fa5b602e5922e30e979e945c89eb1de8efcd0dbced8f359c9c4556ada52791b5da7b400e7902c32eb7beb47ca9cb3dc8cfed2d9ccdaf55fcfc2536cdc547f1d5ba1b206e1962a34ed7ded41cc9ab5da8af8d4dfcadcf75dcdc0516ede567d1f59a3b004e3942836ef7fef43ce98b7d888fad6ddc8def953c3ce5f60d058731157adbe0aed9a2638e171e14dc096b9d686f4d8d3c6d0fb51c1cc5d62d25a711355afbc08ef98243ae373e34fc294bbd484f6dad1c4d2fd57c7ca5b64d45c771553a9ba0ee99e223ce575e549c492bdd282f0dcd7c2d4ff55c5c85966d65e751751abb80ceb9c203ee777e74bc690bfd080f2ded5c0d6f15bcbc65768d8507b195fa5b602e5922e30e979e945c89eb1de8efcd0dbced8f359c9c4556ada52791b5da7b400e7902c32eb7beb47ca9cb3dc8cfed2d9ccdaf55fcfc2536cdc547f1d5ba1b206e1962a34ed7ded41cc9ab5da8af8d4dfcadcf75dcdc0516ede567d1f59a3b004e3942836ef7fef43ce98b7d888fad6ddc8def953c3ce5f60d058731157adbe0aed9a2638e171e14dc096b9d686f4d8d3c6d0fb51c1cc5d62d25a711355afbc08ef98243ae373e34fc294bbd484f6dad1c4d2fd57c7ca5b64d45c771553a9ba0ee99e223ce575e549c492bdd282f0dcd7c2d4ff55c5c85966d65e751751abb80ceb9c203ee777e74bc690bfd080f2ded5c0d6f15bcbc65768d8507b195fa5b602e5922e30e979e945c89eb1de8efcd0dbced8f359c9c4556ada52791b5da7b400e7902c32eb7beb47ca9cb3dc8cfed2d9ccdaf55fcfc2536cdc547f1d5ba1b206e1962a34ed7ded41cc9ab5da8af8d4dfcadcf75dcdc0516ede567d1f59a3b004e3942836ef7fef43ce98b7d888fad6ddc8def953c3ce5f60d058731157adbe0aed9a2638e171e14dc096b9d686f4d8d3c6d0fb51c1cc5d62d25a711355afbc08ef98243ae373e34fc294bbd484f6dad1c4d2fd57c7ca5b64d45c771553a9ba0ee99e223ce575e549c492bdd282f0dcd7c2d4ff55c5c85966d65e751751abb80ceb9c203ee777e74bc690bfd080f2ded5c0d6f15bcbc65768d8507b195fa5b602e5922e30e979e945c89eb1de8efcd0dbced8f359c9c4556ada52791b5da7b400e7902c32eb7beb47ca9cb3dc8cfed2d9ccdaf55fcfc2536cdc547f1d5ba1b206e1962a34ed7ded41cc9ab5da8af8d4dfcadcf75dcdc0516ede567d1f59a3b004e3942836ef7fef43ce98b7d888fad6ddc8def953c3ce5f60d058731157adbe0aed9a2ee9927be5282754d8abf09ddf1deb313d7a8e9ed484a4fe115f2f5a1efd06ae7",
        "hex": "6a20e8e4a3898be94803d876ad708a635afd08eaefa3ef735b908d5e58c3bba989f04db00415bcbc65768d8507b195fa5b602e5922e30e979e945c89eb1de8efcd0dbced8f359c9c4556ada52791b5da7b400e7902c32eb7beb47ca9cb3dc8cfed2d9ccdaf55fcfc2536cdc547f1d5ba1b206e1962a34ed7ded41cc9ab5da8af8d4dfcadcf75dcdc0516ede567d1f59a3b004e3942836ef7fef43ce98b7d888fad6ddc8def953c3ce5f60d058731157adbe0aed9a2638e171e14dc096b9d686f4d8d3c6d0fb51c1cc5d62d25a711355afbc08ef98243ae373e34fc294bbd484f6dad1c4d2fd57c7ca5b64d45c771553a9ba0ee99e223ce575e549c492bdd282f0dcd7c2d4ff55c5c85966d65e751751abb80ceb9c203ee777e74bc690bfd080f2ded5c0d6f15bcbc65768d8507b195fa5b602e5922e30e979e945c89eb1de8efcd0dbced8f359c9c4556ada52791b5da7b400e7902c32eb7beb47ca9cb3dc8cfed2d9ccdaf55fcfc2536cdc547f1d5ba1b206e1962a34ed7ded41cc9ab5da8af8d4dfcadcf75dcdc0516ede567d1f59a3b004e3942836ef7fef43ce98b7d888fad6ddc8def953c3ce5f60d058731157adbe0aed9a2638e171e14dc096b9d686f4d8d3c6d0fb51c1cc5d62d25a711355afbc08ef98243ae373e34fc294bbd484f6dad1c4d2fd57c7ca5b64d45c771553a9ba0ee99e223ce575e549c492bdd282f0dcd7c2d4ff55c5c85966d65e751751abb80ceb9c203ee777e74bc690bfd080f2ded5c0d6f15bcbc65768d8507b195fa5b602e5922e30e979e945c89eb1de8efcd0dbced8f359c9c4556ada52791b5da7b400e7902c32eb7beb47ca9cb3dc8cfed2d9ccdaf55fcfc2536cdc547f1d5ba1b206e1962a34ed7ded41cc9ab5da8af8d4dfcadcf75dcdc0516ede567d1f59a3b004e3942836ef7fef43ce98b7d888fad6ddc8def953c3ce5f60d058731157adbe0aed9a2638e171e14dc096b9d686f4d8d3c6d0fb51c1cc5d62d25a711355afbc08ef98243ae373e34fc294bbd484f6dad1c4d2fd57c7ca5b64d45c771553a9ba0ee99e223ce575e549c492bdd282f0dcd7c2d4ff55c5c85966d65e751751abb80ceb9c203ee777e74bc690bfd080f2ded5c0d6f15bcbc65768d8507b195fa5b602e5922e30e979e945c89eb1de8efcd0dbced8f359c9c4556ada52791b5da7b400e7902c32eb7beb47ca9cb3dc8cfed2d9ccdaf55fcfc2536cdc547f1d5ba1b206e1962a34ed7ded41cc9ab5da8af8d4dfcadcf75dcdc0516ede567d1f59a3b004e3942836ef7fef43ce98b7d888fad6ddc8def953c3ce5f60d058731157adbe0aed9a2638e171e14dc096b9d686f4d8d3c6d0fb51c1cc5d62d25a711355afbc08ef98243ae373e34fc294bbd484f6dad1c4d2fd57c7ca5b64d45c771553a9ba0ee99e223ce575e549c492bdd282f0dcd7c2d4ff55c5c85966d65e751751abb80ceb9c203ee777e74bc690bfd080f2ded5c0d6f15bcbc65768d8507b195fa5b602e5922e30e979e945c89eb1de8efcd0dbced8f359c9c4556ada52791b5da7b400e7902c32eb7beb47ca9cb3dc8cfed2d9ccdaf55fcfc2536cdc547f1d5ba1b206e1962a34ed7ded41cc9ab5da8af8d4dfcadcf75dcdc0516ede567d1f59a3b004e3942836ef7fef43ce98b7d888fad6ddc8def953c3ce5f60d058731157adbe0aed9a2ee9927be5282754d8abf09ddf1deb313d7a8e9ed484a4fe115f2f5a1efd06ae7",
        "type": "nulldata"
      }
    }
  ],
  "blockhash": "2dfbfbf9a9b6a37d5bbaa2d3fd41803f08650e7d63861427b8d0526132d1543b",
  "confirmations": 1,
  "time": 1764182436,
  "blocktime": 1764182436
}