{
  "hex": "01000000000101ee0f96ea946cafd7b3ae7317ee6c21840a76e00237525ebc0706949228a6b8180000000000feffffff0280cbbf57792d00002251207fe02bf63cf962dd549781bb7db058a1ce6bfe97b9e80192bf84463b8effa4a700e1f50500000000fdd5046a20e9b5dd146acd219fdba72aaa1a5d4892bee4195187008b6deaf18102d0c90bcf4db004e40317a55ea059c1709f8d8957ae0fa4e6cae54f04a743614561efe21f6d667ac42337857e8079e150bfada9778e2f84c6eac56f248763416541cfc23f4d465aa44357e51ee0198130dfcdc917ee4fe4a68aa50f44e703210521afa25f2d263a846377c53ec039a110ffede937ce6fc486aa852f64c7230125018f827f0d061a64839725de20d941f01f0d09d72e8f24664a65cf8427c3e1c5e16f629fede6fa44a3b705fe00f961d03f2d29f70eaf04466a45efa407e3c1e5c14f42bfcdc6da24c3d7659e609901b05f4d49976ecf64260a258fc46783a185a12f22dfada6ba04e3f745be40b921907f6d69b74eef44062a05afe447a381a5810f02ff8d869ae40317a55ea059c1709f8d8957ae0fa4e6cae54f04a743614561efe21f6d667ac42337857e8079e150bfada9778e2f84c6eac56f248763416541cfc23f4d465aa44357e51ee0198130dfcdc917ee4fe4a68aa50f44e703210521afa25f2d263a846377c53ec039a110ffede937ce6fc486aa852f64c7230125018f827f0d061a64839725de20d941f01f0d09d72e8f24664a65cf8427c3e1c5e16f629fede6fa44a3b705fe00f961d03f2d29f70eaf04466a45efa407e3c1e5c14f42bfcdc6da24c3d7659e609901b05f4d49976ecf64260a258fc46783a185a12f22dfada6ba04e3f745be40b921907f6d69b74eef44062a05afe447a381a5810f02ff8d869ae40317a55ea059c1709f8d8957ae0fa4e6cae54f04a743614561efe21f6d667ac42337857e8079e150bfada9778e2f84c6eac56f248763416541cfc23f4d465aa44357e51ee0198130dfcdc917ee4fe4a68aa50f44e703210521afa25f2d263a846377c53ec039a110ffede937ce6fc486aa852f64c7230125018f827f0d061a64839725de20d941f01f0d09d72e8f24664a65cf8427c3e1c5e16f629fede6fa44a3b705fe00f961d03f2d29f70eaf04466a45efa407e3c1e5c14f42bfcdc6da24c3d7659e609901b05f4d49976ecf64260a258fc46783a185a12f22dfada6ba04e3f745be40b921907f6d69b74eef44062a05afe447a381a5810f02ff8d869ae40317a55ea059c1709f8d8957ae0fa4e6cae54f04a743614561efe21f6d667ac42337857e8079e150bfada9778e2f84c6eac56f248763416541cfc23f4d465aa44357e51ee0198130dfcdc917ee4fe4a68aa50f44e703210521afa25f2d263a846377c53ec039a110ffede937ce6fc486aa852f64c7230125018f827f0d061a64839725de20d941f01f0d09d72e8f24664a65cf8427c3e1c5e16f629fede6fa44a3b705fe00f961d03f2d29f70eaf04466a45efa407e3c1e5c14f42bfcdc6da24c3d7659e609901b05f4d49976ecf64260a258fc46783a185a12f22dfada6ba04e3f745be40b921907f6d69b74eef44062a05afe447a381a5810f02ff8d869ae40317a55ea059c1709f8d8957ae0fa4e6cae54f04a743614561efe21f6d667ac42337857e8079e150bfada9778e2f84c6eac56f248763416541cfc23f4d465aa44357e51ee0198130dfcdc917ee4fe4a68aa50f44e703210521afa25f2d263a846377c53ec039a110ffede937ce6fc486aa852f64c7230125018f827f0d061a64839725de20d941f01f0d09d72e8f24df9d7ffb3c65657066e5e7639817538f7107dc3a91692fa3d7c213a511b676ee02fd750985222b1b72d89b94880ecb4a1eb5da282084bfd7ea01c4cb6181eb0771941751ff7da239407c0ba104b622ee7e11e48537dcda8883087c1fa07999a8ad959240becd60d6a48ad3b4734f8c2a1673bf72b38ca142ecb16e8ef1101bfe34e41d643a4873fa717d8d0c83c4a908d2b55fca8907067c453c822657c14fac181401de44b5318a7a04eab7ff8ced8e438eda6fac84d846a74da3037941f0af015e097ef5d7806030f1eef60346e1962879188e01732d6804a01d902fe983fe0687f4374fbbf352c9f2b9ff37e618e6681aa74804e68385f518f19cdd035dfd0cb333a1c07a9e69859261ba7930e83aca2bea327b94266c9428a68015c72e71a2af77ef02d9ca17450adb9cc7bb416f07c14c0bac40532af3510f05d6c32849e9238fb9f289212ba0000eaf5ea6b75decae03d29081ed01678084cda46956396115ece9b33c76984a36366e7b283055b5a06540044baf35383d2c377c66ae1561b6c1c9cdefae217b07f46282d441c3a912d2c2093d0a211b45f173a792f1d7b0d8067f2fb703defd73df4805a6e28498a46af8decd12b947c297b27e8660b1c8d9ed9475da87d19e346e0d3a7f3c7d48faa3ac17c62815abe8fe621f9d86bb6c8cbc33c7d920737ac77b4357140cb41ca290c6c7830b1f1d24a5b67c787fd95570164c6235ed41fc6afc3d45277f01fb0c0f72dcf4be098551fdebdbd470f6e62b2ca5f3c86a2b6742a5dd1fbb63099cd12700bbb2250194ab0ce2532556d2efcb54855544bd3a93bba96ac8a46c050391e817cc05d1b162de1e47f6a62206d1109bfd44163dca2462b842888e20b06c6b9a6b4e9f0c6b2a46885bee02573ceda365b95ddb8d1c8fdf867ae6b78ed811f5f1138652b38dcb097640798dd55628cc23c70f12637e976e303d20115c0b4a40789cfa484357efbcb78d1e48ab2d207aa0244dd21dc9b8102b64120f0c481211c4eb1b48d02457d3d7b71ccf8c6689222e849368933f260fea2bea2b617f3e39d19c0a32edc7e5a4e1793592037f3797b998a7e4e4bdde1b2d70a538d00ca65ee773510f8bb8b87996145b5709551155f80baedd364282e8e7209658bac97a627ca100dda79257a7c6ae319b3feed59b285c49ae1723907ebe4ebf7002c5737cd9c141e89f06b86c5e169bba04d622ece0bbc5fc57df00f513cdc040e1ecbb23cc9e86ce4bda2256fd21111e24508d04e32088d06f1fa09cb2f91081697ebd0a07df7bd86758bdb623942c4801a50eb625091e6a68c0bbc96d15923073e86544f8e9636a5d6fff3c88e55c2f3fa42d9d450380e877b458de23469d44eccee69cc33c700b9024ec9cce0ceee8d6dd497a081b2bc939e9ea26471851dfc935643cebe27bcdb887052def1fcce9b5e7b043b5075b622f02197e8c37d1be2ee70b68d42db2168c417480d7787e4f858a2e98853b1650c5a63168ba0befebd0df3ce2fe0b0a6085ab62242c3d71fe9bae2945912ca9f30f7b034c89df7aa6d93ed76c0925c8bb60ff5a3b566a99a1880219572d3f0327ca1eb800fe2bc5467f6321bb58b4d17c756d3e7e60eee3e94bbb52bbe761842e338e28b5f7150b20932c43abe2aa62babf6826d02c7acf7b41ebe67bac965b77c97a51081a3dd31fd691d20e115dc6f2848706f6fd7cd481ccb6391e8d59fb1231fb61e3071e2bb07fae49eb26ae7c13fd7c3c7b654384868aa2cc16f96c97c38dfe9671b3f258e273c51546f8d50c191f41e0381c2f834f08a37147490e37bcc4b2bf60e63e73db4bb6d0c55227e52b49c5983ffaf75bea39f1a37568c991f26f5a5cc2505f7c7081f89afdce887d3c54a22315b32e7f3e31f30681587b4a89e4aaddcf50bd60862e28290f3fd0e73a859c603ffafa1a698aad46f7cbad908244535cdc0185dad33bb474f7e788a4c12c0b176216cec2492cc717ebcf699401c6c6a469dc27e466be63bf7e28197ff6d81ea5ca07959adca124c6e806db6c0569f7f832a265c478493d96c098af780c4a1846e8cc33cedc9d9348ee72bcebc9b09c906f7fdc7febb12a9d8ea24c935570368731dec572645a02a606b2efc05fb35c3335bcc1d19be31202a2af911481068f0ca2edd6b353b16606b565f3ed244b8b2293630ea58519c292eeb4e0086cf43701048762cb976a7b9e3a68b5ef8afddeb13f81a1c58a6c895cdaab98c2a6d74ba41246d6149408d88ca904a8381415cc0d9ea18d9bc8ef464831239ab6539f84448da6da595e5a4828bf3e6581622ca644e1b8d18a5dbe167c339378d022d70fb416b271c50cfb288a05cdd77f703bc7c2e132f36768f110f8d0b4bb6b430e866fbb8537938a15f20c0f15b54bf6280984eefe8f72db7ff81cf995cbb4b0cc6ffa23a91f8e03273c0f807fdfc50f9cf464b0a65201172f708e5114aebf199065df157ab59bbca35c685ca9b11b147133b84d3e7023b7240055ae8dc3a56a9fcbe47b3e2d54faf8117c16f2dcdba944784f12d9ce0ef6d54d329b915f36eaf35fbc714540202b7975c4fc500614464944ac44fe16b8c132c792556053253ee28bb0bc7717a62635be3948c3f5ade1d2e01b13a3b70b01727b7eb8cc14089e0ad7e7c920d1b9a36486ad4f124f0802ffc4c263f8cfac9a34e0ccf9f985ede2884274a2535d23cb94dd641ab087e084c5881ff6ac6ca75ab7465720ea5e952216dd40be4d25397dbfca28e24dd5e111d2599cc71f738be553e969fd73dde7afd90f7547bdc913b8d8f23329eaf37e861734a185f649151c62099533150eab08c5efa6969bbcaf97a873a8d4d3b8a0a1e57b946656df58198d09302edc9c9af21fd60ae32ee1bc5cc8ca911bc92cbba7d06d56b74f8b21a073781d204a53a1a143d775648378fd9047973dd054086c07aedcf69225e1a91508175a8e0fb048ffc41c98a8f8ecd4f1fce3ac7f43b025af1eb7d7435a91f061c9b41ca737ac7060da5f72fce71319046054bbfe8f1384c57b29bb729d2f1c0dc60a85da50903c703ef21e679c09925617e00b1eb8b3f776d64eab07a792c2c24306bbd2c4d853e6d3f58e0d31f2e72fee847cc44a157606d4112ed920b32c17a9331ea84baf337950bbfd07525da9d130c7faec60fe83a1e59e29a7fa22f8ed51c67d62a6fac6ed8a51d6cb408c638e1cd238bde9c3ce90b08a50c3825d1397665e14861ab7a28d0c8cdb2f1a4ca933428dab5ddfef27c6e2b40e247a9eeba814f6ee9e7859911d561f19e2ffc6adf2819ce40665294da56c9b3032610dbe19226d2d1661196502b68f1883094f9ec52f23d6fbd77f0c282a3036425c5e659ba0b1bcc6d2f3040514173d4451535e808693a2aab8c0c7d5dd00111e313d6272878f98aeafb2b7c7cbcee2e4eafe01031c283a93959cdcfcfe000000000000000000000000001023384301fd21050061bfef169512ded625dda94bf7e0a765a8aaabfffc27518a5aa0b096ca666201e37c335b4655a3e2e47f30e09449e38dd5cdebfe9aff861defb1f90189dbfca214e6921ee9dfbaee67abe2ad15d34a5e3a89fb56e0b03bd8c2329aa8d45f9444f7db8f41258cca3737b8faa79a7e3eeaff59411eba9efaf8a2d2e9b9d107b6990f16807eb2e40027e654b35bf9ebab1a97a4cd16ef07041305a7c98393e97f4c63a02b5675427ecb56bef588737d04f293a309ae868173081012ac7b4d1fc970c03292df0ecf121c1f04f91a7a2b764d158ac8c8cbcf1c2a390056680bafed7179336fb2691ae0a6c4b9f331f1dfcbe79b1122b2514fbc53b89951dfedc87f7bb727f8028dda0809001d23eea9356eaab2ae46890a44761a4afd0a9e3bef4e74364216e8a313be057f66a3d1774dfa87edf8c889215938a9b521cdff3ae2a46c9b3e9d42d9ad8bcf331fddbebf090f94eebca99e0c0ecbb611276f0e329940cc233689a55de0e0fcdf719f489566f338d4b2bccf5c9d5feaadc03f9763c660440c777f8208dcb9c767d540d94e487c89ef6715fc29ee3906dbae1280558cd0d611b31fd95dbe20c2ae949eed1804fe207d324ccb85dde9f47487eb5f63cb5c58415c73db2d3271ee591d1d9172673485c9ea0bbde1ab27e699c0e84aba73eb09ae908557148f5badcc01c8639e309cdb404d5156a0ba20f03523192ad45b295ca0a67d1bf5113378901875677f6d7eb8c0ca4dee3919586e1f7faca0eb480fab188bf64a35bce76e0d99f8ba3c0aa9658f32513958094ff0d253c328e97c8857e0391d53dce92fcd3fc603cf928b8b5707dfb1768c126d1c962618f65ea4729801f4aaf1dd37a4767f7de5610024635ec3667f04c6e929eb7b7525413843932379d63b87cadb702b7a737b8cf966512e319eca8671d2d89551b9b8ebfc9ca623e1c7daaea6cd184a9ffcb30989d818e84e94580334f4817b990836eab01452799d55dc3bdee958042c29f5de9cd951069eef0125aa200a541c4bfdbb2cc78ca184d4b8d1432b16e46594fb5647a7610cc0cfe6e3945adac391b8c9241b75a2825a10e962b5687cf9ebc77d15a60153d3bbb052260bb3f196bb27ddacdcf8df2fc36376daecf2c21d3c7ee409cd482a4c59321c839a297401a4ca41e2652aadda8c9589fb4cb9c74a1ba15951524b0b1e5dc75be9801196f14736671bb2bbf35b96850bae1cd7751e4fdf5d5182948a08e936d3e4c03bb676e8db7109321af2356e398c82942a190b2e0e72e0e50489eb6debf6302f6037bfdf287280a36cf0ab035203f07f34b78b354b2fedff9454e228b90e56b14fba0b3d0686d9af705671e1524c352e17772211751d8a8a6d6bfec9c8c198f56287d9e82777dfec6c284efa6e360b4163c4eba2a745bb6ed52accb35fe51d0cbeb45c41bbd9a923fc9757b160b86b88b2bf2523d8288fae0cce0c636fa26461779f1c626a60c391e672b09bbf0a3d367160f9599526df3aacdfd6531d4605e0017622d5cc521e175cc25f7ac8b5e1f43f028e217fafdececec4b27d5930a7b10784d6bcdc67d8af294d50bdeb408c77756a1b5dd9eaebcaae3d9d63afc2974f7897aaf9d3656d6a4e32d809e51f286ae7f8b9c77a1ca9fad387dbf3e27a21e5d6a2011d9e0c143a7af7f7515bb9117ddf9485115d48a5ffe0d046c404c821b361570418f272ac336cf96f8831252bf289f10107efed83d7305da350581716a46175c71f62354a594c5104606dc49b3312452144a3fc1a5ba350ad4da86c8aee19e7658162fff68b5b965ab56b9ee89850fbd35186b131921f378802470b91644155be7b328a8380a266b386000000",
  "txid": "b6003712c40fd3a7d2a6cb2d664043bb503804a3b66b827cad104118fcae2346",
  "hash": "93d8073c3cd92c7132cd634335b01d4283f194b123c6e00709181c84350f17f8",
  "size": 5085,
  "vsize": 2278,
  "version": 1,
  "locktime": 134,
  "vin": [
    {
      "txid": "18b8a62892940607bc5e523702e0760a84216cee1773aeb3d7af6c94ea960fee",
      "vout": 0,
      "scriptSig": {
        "asm": "",
        "hex": ""
      },
      "txinwitness": [
        "85222b1b72d89b94880ecb4a1eb5da282084bfd7ea01c4cb6181eb0771941751ff7da239407c0ba104b622ee7e11e48537dcda8883087c1fa07999a8ad959240becd60d6a48ad3b4734f8c2a1673bf72b38ca142ecb16e8ef1101bfe34e41d643a4873fa717d8d0c83c4a908d2b55fca8907067c453c822657c14fac181401de44b5318a7a04eab7ff8ced8e438eda6fac84d846a74da3037941f0af015e097ef5d7806030f1eef60346e1962879188e01732d6804a01d902fe983fe0687f4374fbbf352c9f2b9ff37e618e6681aa74804e68385f518f19cdd035dfd0cb333a1c07a9e69859261ba7930e83aca2bea327b94266c9428a68015c72e71a2af77ef02d9ca17450adb9cc7bb416f07c14c0bac40532af3510f05d6c32849e9238fb9f289212ba0000eaf5ea6b75decae03d29081ed01678084cda46956396115ece9b33c76984a36366e7b283055b5a06540044baf35383d2c377c66ae1561b6c1c9cdefae217b07f46282d441c3a912d2c2093d0a211b45f173a792f1d7b0d8067f2fb703defd73df4805a6e28498a46af8decd12b947c297b27e8660b1c8d9ed9475da87d19e346e0d3a7f3c7d48faa3ac17c62815abe8fe621f9d86bb6c8cbc33c7d920737ac77b4357140cb41ca290c6c7830b1f1d24a5b67c787fd95570164c6235ed41fc6afc3d45277f01fb0c0f72dcf4be098551fdebdbd470f6e62b2ca5f3c86a2b6742a5dd1fbb63099cd12700bbb2250194ab0ce2532556d2efcb54855544bd3a93bba96ac8a46c050391e817cc05d1b162de1e47f6a62206d1109bfd44163dca2462b842888e20b06c6b9a6b4e9f0c6b2a46885bee02573ceda365b95ddb8d1c8fdf867ae6b78ed811f5f1138652b38dcb097640798dd55628cc23c70f12637e976e303d20115c0b4a40789cfa484357efbcb78d1e48ab2d207aa0244dd21dc9b8102b64120f0c481211c4eb1b48d02457d3d7b71ccf8c6689222e849368933f260fea2bea2b617f3e39d19c0a32edc7e5a4e1793592037f3797b998a7e4e4bdde1b2d70a538d00ca65ee773510f8bb8b87996145b5709551155f80baedd364282e8e7209658bac97a627ca100dda79257a7c6ae319b3feed59b285c49ae1723907ebe4ebf7002c5737cd9c141e89f06b86c5e169bba04d622ece0bbc5fc57df00f513cdc040e1ecbb23cc9e86ce4bda2256fd21111e24508d04e32088d06f1fa09cb2f91081697ebd0a07df7bd86758bdb623942c4801a50eb625091e6a68c0bbc96d15923073e86544f8e9636a5d6fff3c88e55c2f3fa42d9d450380e877b458de23469d44eccee69cc33c700b9024ec9cce0ceee8d6dd497a081b2bc939e9ea26471851dfc935643cebe27bcdb887052def1fcce9b5e7b043b5075b622f02197e8c37d1be2ee70b68d42db2168c417480d7787e4f858a2e98853b1650c5a63168ba0befebd0df3ce2fe0b0a6085ab62242c3d71fe9bae2945912ca9f30f7b034c89df7aa6d93ed76c0925c8bb60ff5a3b566a99a1880219572d3f0327ca1eb800fe2bc5467f6321bb58b4d17c756d3e7e60eee3e94bbb52bbe761842e338e28b5f7150b20932c43abe2aa62babf6826d02c7acf7b41ebe67bac965b77c97a51081a3dd31fd691d20e115dc6f2848706f6fd7cd481ccb6391e8d59fb1231fb61e3071e2bb07fae49eb26ae7c13fd7c3c7b654384868aa2cc16f96c97c38dfe9671b3f258e273c51546f8d50c191f41e0381c2f834f08a37147490e37bcc4b2bf60e63e73db4bb6d0c55227e52b49c5983ffaf75bea39f1a37568c991f26f5a5cc2505f7c7081f89afdce887d3c54a22315b32e7f3e31f30681587b4a89e4aaddcf50bd60862e28290f3fd0e73a859c603ffafa1a698aad46f7cbad908244535cdc0185dad33bb474f7e788a4c12c0b176216cec2492cc717ebcf699401c6c6a469dc27e466be63bf7e28197ff6d81ea5ca07959adca124c6e806db6c0569f7f832a265c478493d96c098af780c4a1846e8cc33cedc9d9348ee72bcebc9b09c906f7fdc7febb12a9d8ea24c935570368731dec572645a02a606b2efc05fb35c3335bcc1d19be31202a2af911481068f0ca2edd6b353b16606b565f3ed244b8b2293630ea58519c292eeb4e0086cf43701048762cb976a7b9e3a68b5ef8afddeb13f81a1c58a6c895cdaab98c2a6d74ba41246d6149408d88ca904a8381415cc0d9ea18d9bc8ef464831239ab6539f84448da6da595e5a4828bf3e6581622ca644e1b8d18a5dbe167c339378d022d70fb416b271c50cfb288a05cdd77f703bc7c2e132f36768f110f8d0b4bb6b430e866fbb8537938a15f20c0f15b54bf6280984eefe8f72db7ff81cf995cbb4b0cc6ffa23a91f8e03273c0f807fdfc50f9cf464b0a65201172f708e5114aebf199065df157ab59bbca35c685ca9b11b147133b84d3e7023b7240055ae8dc3a56a9fcbe47b3e2d54faf8117c16f2dcdba944784f12d9ce0ef6d54d329b915f36eaf35fbc714540202b7975c4fc500614464944ac44fe16b8c132c792556053253ee28bb0bc7717a62635be3948c3f5ade1d2e01b13a3b70b01727b7eb8cc14089e0ad7e7c920d1b9a36486ad4f124f0802ffc4c263f8cfac9a34e0ccf9f985ede2884274a2535d23cb94dd641ab087e084c5881ff6ac6ca75ab7465720ea5e952216dd40be4d25397dbfca28e24dd5e111d2599cc71f738be553e969fd73dde7afd90f7547bdc913b8d8f23329eaf37e861734a185f649151c62099533150eab08c5efa6969bbcaf97a873a8d4d3b8a0a1e57b946656df58198d09302edc9c9af21fd60ae32ee1bc5cc8ca911bc92cbba7d06d56b74f8b21a073781d204a53a1a143d775648378fd9047973dd054086c07aedcf69225e1a91508175a8e0fb048ffc41c98a8f8ecd4f1fce3ac7f43b025af1eb7d7435a91f061c9b41ca737ac7060da5f72fce71319046054bbfe8f1384c57b29bb729d2f1c0dc60a85da50903c703ef21e679c09925617e00b1eb8b3f776d64eab07a792c2c24306bbd2c4d853e6d3f58e0d31f2e72fee847cc44a157606d4112ed920b32c17a9331ea84baf337950bbfd07525da9d130c7faec60fe83a1e59e29a7fa22f8ed51c67d62a6fac6ed8a51d6cb408c638e1cd238bde9c3ce90b08a50c3825d1397665e14861ab7a28d0c8cdb2f1a4ca933428dab5ddfef27c6e2b40e247a9eeba814f6ee9e7859911d561f19e2ffc6adf2819ce40665294da56c9b3032610dbe19226d2d1661196502b68f1883094f9ec52f23d6fbd77f0c282a3036425c5e659ba0b1bcc6d2f3040514173d4451535e808693a2aab8c0c7d5dd00111e313d6272878f98aeafb2b7c7cbcee2e4eafe01031c283a93959cdcfcfe000000000000000000000000001023384301",
        "0061bfef169512ded625dda94bf7e0a765a8aaabfffc27518a5aa0b096ca666201e37c335b4655a3e2e47f30e09449e38dd5cdebfe9aff861defb1f90189dbfca214e6921ee9dfbaee67abe2ad15d34a5e3a89fb56e0b03bd8c2329aa8d45f9444f7db8f41258cca3737b8faa79a7e3eeaff59411eba9efaf8a2d2e9b9d107b6990f16807eb2e40027e654b35bf9ebab1a97a4cd16ef07041305a7c98393e97f4c63a02b5675427ecb56bef588737d04f293a309ae868173081012ac7b4d1fc970c03292df0ecf121c1f04f91a7a2b764d158ac8c8cbcf1c2a390056680bafed7179336fb2691ae0a6c4b9f331f1dfcbe79b1122b2514fbc53b89951dfedc87f7bb727f8028dda0809001d23eea9356eaab2ae46890a44761a4afd0a9e3bef4e74364216e8a313be057f66a3d1774dfa87edf8c889215938a9b521cdff3ae2a46c9b3e9d42d9ad8bcf331fddbebf090f94eebca99e0c0ecbb611276f0e329940cc233689a55de0e0fcdf719f489566f338d4b2bccf5c9d5feaadc03f9763c660440c777f8208dcb9c767d540d94e487c89ef6715fc29ee3906dbae1280558cd0d611b31fd95dbe20c2ae949eed1804fe207d324ccb85dde9f47487eb5f63cb5c58415c73db2d3271ee591d1d9172673485c9ea0bbde1ab27e699c0e84aba73eb09ae908557148f5badcc01c8639e309cdb404d5156a0ba20f03523192ad45b295ca0a67d1bf5113378901875677f6d7eb8c0ca4dee3919586e1f7faca0eb480fab188bf64a35bce76e0d99f8ba3c0aa9658f32513958094ff0d253c328e97c8857e0391d53dce92fcd3fc603cf928b8b5707dfb1768c126d1c962618f65ea4729801f4aaf1dd37a4767f7de5610024635ec3667f04c6e929eb7b7525413843932379d63b87cadb702b7a737b8cf966512e319eca8671d2d89551b9b8ebfc9ca623e1c7daaea6cd184a9ffcb30989d818e84e94580334f4817b990836eab01452799d55dc3bdee958042c29f5de9cd951069eef0125aa200a541c4bfdbb2cc78ca184d4b8d1432b16e46594fb5647a7610cc0cfe6e3945adac391b8c9241b75a2825a10e962b5687cf9ebc77d15a60153d3bbb052260bb3f196bb27ddacdcf8df2fc36376daecf2c21d3c7ee409cd482a4c59321c839a297401a4ca41e2652aadda8c9589fb4cb9c74a1ba15951524b0b1e5dc75be9801196f14736671bb2bbf35b96850bae1cd7751e4fdf5d5182948a08e936d3e4c03bb676e8db7109321af2356e398c82942a190b2e0e72e0e50489eb6debf6302f6037bfdf287280a36cf0ab035203f07f34b78b354b2fedff9454e228b90e56b14fba0b3d0686d9af705671e1524c352e17772211751d8a8a6d6bfec9c8c198f56287d9e82777dfec6c284efa6e360b4163c4eba2a745bb6ed52accb35fe51d0cbeb45c41bbd9a923fc9757b160b86b88b2bf2523d8288fae0cce0c636fa26461779f1c626a60c391e672b09bbf0a3d367160f9599526df3aacdfd6531d4605e0017622d5cc521e175cc25f7ac8b5e1f43f028e217fafdececec4b27d5930a7b10784d6bcdc67d8af294d50bdeb408c77756a1b5dd9eaebcaae3d9d63afc2974f7897aaf9d3656d6a4e32d809e51f286ae7f8b9c77a1ca9fad387dbf3e27a21e5d6a2011d9e0c143a7af7f7515bb9117ddf9485115d48a5ffe0d046c404c821b361570418f272ac336cf96f8831252bf289f10107efed83d7305da350581716a46175c71f62354a594c5104606dc49b3312452144a3fc1a5ba350ad4da86c8aee19e7658162fff68b5b965ab56b9ee89850fbd35186b131921f378802470b91644155be7b328a8380a266b3"
      ],
      "sequence": 4294967294
    }
  ],
  "vout": [
    {
      "value": 499991.8648,
      "n": 0,
      "scriptPubKey": {
        "asm": "1 7fe02bf63cf962dd549781bb7db058a1ce6bfe97b9e80192bf84463b8effa4a7",
        "hex": "51207fe02bf63cf962dd549781bb7db058a1ce6bfe97b9e80192bf84463b8effa4a7",
        "reqSigs": 1,
        "type": "witness_v1_scripthash",
        "addresses": [
          "3QJmnh"
        ]
      }
    },
    {
      "value": 1.0,
      "n": 1,
      "scriptPubKey": {
        "asm": "OP_RETURN e9b5dd146acd219fdba72aaa1a5d4892bee4195187008b6deaf18102d0c90bcf e40317a55ea059c1709f8d8957ae0fa4e6cae54f04a743614561efe21f6d667ac42337857e8079e150bfada9778e2f84c6eac56f248763416541cfc23f4d465aa44357e51ee0198130dfcdc917ee4fe4a68aa50f44e703210521afa25f2d263a846377c53ec039a110ffede937ce6fc486aa852f64c7230125018f827f0d061a64839725de20d941f01f0d09d72e8f24664a65cf8427c3e1c5e16f629fede6fa44a3b705fe00f961d03f2d29f70eaf04466a45efa407e3c1e5c14f42bfcdc6da24c3d7659e609901b05f4d49976ecf64260a258fc46783a185a12f22dfada6ba04e3f745be40b921907f6d69b74eef44062a05afe447a381a5810f02ff8d869ae40317a55ea059c1709f8d8957ae0fa4e6cae54f04a743614561efe21f6d667ac42337857e8079e150bfada9778e2f84c6eac56f248763416541cfc23f4d465aa44357e51ee0198130dfcdc917ee4fe4a68aa50f44e703210521afa25f2d263a846377c53ec039a110ffede937ce6fc486aa852f64c7230125018f827f0d061a64839725de20d941f01f0d09d72e8f24664a65cf8427c3e1c5e16f629fede6fa44a3b705fe00f961d03f2d29f70eaf04466a45efa407e3c1e5c14f42bfcdc6da24c3d7659e609901b05f4d49976ecf64260a258fc46783a185a12f22dfada6ba04e3f745be40b921907f6d69b74eef44062a05afe447a381a5810f02ff8d869ae40317a55ea059c1709f8d8957ae0fa4e6cae54f04a743614561efe21f6d667ac42337857e8079e150bfada9778e2f84c6eac56f248763416541cfc23f4d465aa44357e51ee0198130dfcdc917ee4fe4a68aa50f44e703210521afa25f2d263a846377c53ec039a110ffede937ce6fc486aa852f64c7230125018f827f0d061a64839725de20d941f01f0d09d72e8f24664a65cf8427c3e1c5e16f629fede6fa44a3b705fe00f961d03f2d29f70eaf04466a45efa407e3c1e5c14f42bfcdc6da24c3d7659e609901b05f4d49976ecf64260a258fc46783a185a12f22dfada6ba04e3f745be40b921907f6d69b74eef44062a05afe447a381a5810f02ff8d869ae40317a55ea059c1709f8d8957ae0fa4e6cae54f04a743614561efe21f6d667ac42337857e8079e150bfada9778e2f84c6eac56f248763416541cfc23f4d465aa44357e51ee0198130dfcdc917ee4fe4a68aa50f44e703210521afa25f2d263a846377c53ec039a110ffede937ce6fc486aa852f64c7230125018f827f0d061a64839725de20d941f01f0d09d72e8f24664a65cf8427c3e1c5e16f629fede6fa44a3b705fe00f961d03f2d29f70eaf04466a45efa407e3c1e5c14f42bfcdc6da24c3d7659e609901b05f4d49976ecf64260a258fc46783a185a12f22dfada6ba04e3f745be40b921907f6d69b74eef44062a05afe447a381a5810f02ff8d869ae40317a55ea059c1709f8d8957ae0fa4e6cae54f04a743614561efe21f6d667ac42337857e8079e150bfada9778e2f84c6eac56f248763416541cfc23f4d465aa44357e51ee0198130dfcdc917ee4fe4a68aa50f44e703210521afa25f2d263a846377c53ec039a110ffede937ce6fc486aa852f64c7230125018f827f0d061a64839725de20d941f01f0d09d72e8f24df9d7ffb3c65657066e5e7639817538f7107dc3a91692fa3d7c213a511b676ee",
        "hex": "6a20e9b5dd146acd219fdba72aaa1a5d4892bee4195187008b6deaf18102d0c90bcf4db004e40317a55ea059c1709f8d8957ae0fa4e6cae54f04a743614561efe21f6d667ac42337857e8079e150bfada9778e2f84c6eac56f248763416541cfc23f4d465aa44357e51ee0198130dfcdc917ee4fe4a68aa50f44e703210521afa25f2d263a846377c53ec039a110ffede937ce6fc486aa852f64c7230125018f827f0d061a64839725de20d941f01f0d09d72e8f24664a65cf8427c3e1c5e16f629fede6fa44a3b705fe00f961d03f2d29f70eaf04466a45efa407e3c1e5c14f42bfcdc6da24c3d7659e609901b05f4d49976ecf64260a258fc46783a185a12f22dfada6ba04e3f745be40b921907f6d69b74eef44062a05afe447a381a5810f02ff8d869ae40317a55ea059c1709f8d8957ae0fa4e6cae54f04a743614561efe21f6d667ac42337857e8079e150bfada9778e2f84c6eac56f248763416541cfc23f4d465aa44357e51ee0198130dfcdc917ee4fe4a68aa50f44e703210521afa25f2d263a846377c53ec039a110ffede937ce6fc486aa852f64c7230125018f827f0d061a64839725de20d941f01f0d09d72e8f24664a65cf8427c3e1c5e16f629fede6fa44a3b705fe00f961d03f2d29f70eaf04466a45efa407e3c1e5c14f42bfcdc6da24c3d7659e609901b05f4d49976ecf64260a258fc46783a185a12f22dfada6ba04e3f745be40b921907f6d69b74eef44062a05afe447a381a5810f02ff8d869ae40317a55ea059c1709f8d8957ae0fa4e6cae54f04a743614561efe21f6d667ac42337857e8079e150bfada9778e2f84c6eac56f248763416541cfc23f4d465aa44357e51ee0198130dfcdc917ee4fe4a68aa50f44e703210521afa25f2d263a846377c53ec039a110ffede937ce6fc486aa852f64c7230125018f827f0d061a64839725de20d941f01f0d09d72e8f24664a65cf8427c3e1c5e16f629fede6fa44a3b705fe00f961d03f2d29f70eaf04466a45efa407e3c1e5c14f42bfcdc6da24c3d7659e609901b05f4d49976ecf64260a258fc46783a185a12f22dfada6ba04e3f745be40b921907f6d69b74eef44062a05afe447a381a5810f02ff8d869ae40317a55ea059c1709f8d8957ae0fa4e6cae54f04a743614561efe21f6d667ac42337857e8079e150bfada9778e2f84c6eac56f248763416541cfc23f4d465aa44357e51ee0198130dfcdc917ee4fe4a68aa50f44e703210521afa25f2d263a846377c53ec039a110ffede937ce6fc486aa852f64c7230125018f827f0d061a64839725de20d941f01f0d09d72e8f24664a65cf8427c3e1c5e16f629fede6fa44a3b705fe00f961d03f2d29f70eaf04466a45efa407e3c1e5c14f42bfcdc6da24c3d7659e609901b05f4d49976ecf64260a258fc46783a185a12f22dfada6ba04e3f745be40b921907f6d69b74eef44062a05afe447a381a5810f02ff8d869ae40317a55ea059c1709f8d8957ae0fa4e6cae54f04a743614561efe21f6d667ac42337857e8079e150bfada9778e2f84c6eac56f248763416541cfc23f4d465aa44357e51ee0198130dfcdc917ee4fe4a68aa50f44e703210521afa25f2d263a846377c53ec039a110ffede937ce6fc486aa852f64c7230125018f827f0d061a64839725de20d941f01f0d09d72e8f24df9d7ffb3c65657066e5e7639817538f7107dc3a91692fa3d7c213a511b676ee",
        "type": "nulldata"
      }
    }
  ],
  "blockhash": "74cd48d8c624c37e1fac27c00c19e94c48df61d3ca85b84b56360e4f6170fa6f",
  "confirmations": 1,
  "time": 1764182926,
  "blocktime": 1764182926
}