{
  "hex": "0100000000010154238993d692ed4dba0e6a3b9aee3b571fbf3c2dbbeea57269b2e5ec46fb8ad10000000000feffffff0200e1f50500000000fdd5046a20f9203885c33e8a8c0a648d996a6fe7622170073f9abb98deb13327e8c1ea23374db0047ea34187f807dfb563fb370ca234479adcee1d8eb71b2c9b042c85518ba3ec5d5e8361a7d827ff9543db172c821467bafcce3dae973b0cbb240ca571ab83cc7d3ee301c7b8479ff523bb774ce27407da9cae5dcef75b6cdb446cc511cbe3ac1d1ec321e79867bfd5039b576cc25427fabc8e7deed77b4cfb644ce531ebc38c3dfe23c10778875f35e37bb78c22b4c71a5c6e9d0e379bac1b84ac05d10b236cddde03e12758a77f15c35b97ac0294e73a7c4ebd2e17bb8c3ba48c25f12b034cfdbe63814738c71f75a33bf7cc62f4875a1c2edd4e77dbec5bc4ec45914b632c9d9e43a16718e73f55831bd7ec42d4a77a3c0efd6e57fbcc7be4cc65b16b430cbd7ea34187f807dfb563fb370ca234479adcee1d8eb71b2c9b042c85518ba3ec5d5e8361a7d827ff9543db172c821467bafcce3dae973b0cbb240ca571ab83cc7d3ee301c7b8479ff523bb774ce27407da9cae5dcef75b6cdb446cc511cbe3ac1d1ec321e79867bfd5039b576cc25427fabc8e7deed77b4cfb644ce531ebc38c3dfe23c10778875f35e37bb78c22b4c71a5c6e9d0e379bac1b84ac05d10b236cddde03e12758a77f15c35b97ac0294e73a7c4ebd2e17bb8c3ba48c25f12b034cfdbe63814738c71f75a33bf7cc62f4875a1c2edd4e77dbec5bc4ec45914b632c9d9e43a16718e73f55831bd7ec42d4a77a3c0efd6e57fbcc7be4cc65b16b430cbd7ea34187f807dfb563fb370ca234479adcee1d8eb71b2c9b042c85518ba3ec5d5e8361a7d827ff9543db172c821467bafcce3dae973b0cbb240ca571ab83cc7d3ee301c7b8479ff523bb774ce27407da9cae5dcef75b6cdb446cc511cbe3ac1d1ec321e79867bfd5039b576cc25427fabc8e7deed77b4cfb644ce531ebc38c3dfe23c10778875f35e37bb78c22b4c71a5c6e9d0e379bac1b84ac05d10b236cddde03e12758a77f15c35b97ac0294e73a7c4ebd2e17bb8c3ba48c25f12b034cfdbe63814738c71f75a33bf7cc62f4875a1c2edd4e77dbec5bc4ec45914b632c9d9e43a16718e73f55831bd7ec42d4a77a3c0efd6e57fbcc7be4cc65b16b430cbd7ea34187f807dfb563fb370ca234479adcee1d8eb71b2c9b042c85518ba3ec5d5e8361a7d827ff9543db172c821467bafcce3dae973b0cbb240ca571ab83cc7d3ee301c7b8479ff523bb774ce27407da9cae5dcef75b6cdb446cc511cbe3ac1d1ec321e79867bfd5039b576cc25427fabc8e7deed77b4cfb644ce531ebc38c3dfe23c10778875f35e37bb78c22b4c71a5c6e9d0e379bac1b84ac05d10b236cddde03e12758a77f15c35b97ac0294e73a7c4ebd2e17bb8c3ba48c25f12b034cfdbe63814738c71f75a33bf7cc62f4875a1c2edd4e77dbec5bc4ec45914b632c9d9e43a16718e73f55831bd7ec42d4a77a3c0efd6e57fbcc7be4cc65b16b430cbd7ea34187f807dfb563fb370ca234479adcee1d8eb71b2c9b042c85518ba3ec5d5e8361a7d827ff9543db172c821467bafcce3dae973b0cbb240ca571ab83cc7d3ee301c7b8479ff523bb774ce27407da9cae5dcef75b6cdb446cc511cbe3ac1d1ec321e79867bfd5039b576cc25427fabc8e7deed77b4cfb644ce531ebc38c3dfe23c10778875f35e37bb78c22b4c71a1bfa088df947af54cd6517bb998ce1a807dbc356c818697a2c9dabbb77a0b46cd0cb9045792d000022512041b74e6b258d1d4c06c3af62a38dfd9247c614c54130c697f819a7ef8632fc5602fd7509f5971b6647a643a4b21d4e0f8bc6f0aa5bd9282f0f7de3ddd736adb13226df870c30cddfd60104fbca17016856ed272e28b0fa559977829a4026976ba4d61126b8c6a793b3b7abad71f7c423ebd379b96ad3e59958ac88e464cef5532c63d7ce0a0eef5ec6c46ed5542cc0d0634258d986628b6e1d6c2ce714ed5407985046ea0d75e00e8566c564ad9ecbafdc08a66f6e3a784a5375583ad56edf10e99b269a0eae7a399363e37c22997e21a48d35a2e58e03f6960239525e451b769840dc3727e5aeda3fd5f02c0557c22c2f8426ed92d4e10389fb714333445a00a530b7a4473f61221480dc9fef9e57f9c90ab9dde6a6720a788c410de062a62b1f29591445aeeeca33297cf0f43d8e08170edb373dc5a12a1602944e5dea4f4bff32a7d97f09985a9521da688b8ba0c4fa0ab354a45f56f4f5a987d09ef4464d0c8b38bf8ceac353232d7e2ae3ce8722bc3a7bb21af787a91669695d739bd4126aebb3d841336a40f76ddd14f8fec40fd5185f0a20055d5f11242359fbc6da4ef780c4aab3a526911ad1590eb1be7c1c5020c30a19282f7e034c9de25f08a6a3b17fbb9b37c8688cdba0ece83870aec20373d3046fe54dead5a2af009de7a1368704a8eabaca34ed1a84ee824eaa6b8823c4954037f4fb68f9d9ca6878447e45535036e1ecfb6e77f1747978ca1dfe11f767b7d6e95bd78d69bbaff63fe76a316e4dfb6302928826f4ae6d87e3c6df98098f4c01f6363dac55bd83ba3539235715051d3cd9b1b804ea567795223af69273a43a2db7e7bd0a1f31e5f2f74a59806dff906fdb8300a996198766647ed3a1944e5b1d7e529407abf33704e7099ecbb08a1ac61795ffaf5c68bc64bbe5a27983e181c23f351698e28db749ae5302a16224c410e6d879f65c8bd41eb53eef74cd32ad63eaeb214d5c0e8df3633640a5118a137dbf11a873e5bc0789fc4a12c8c4c8b2406cc8216aacae7f38c35d7761c6d443e5e4992299679c8ee95eef1e74e0d124ab3c0ec024277ea93a5900f859444e29e4c929e49fbe6029b819aa162bd0d84a12957c1ee12958b72f92a20adef4f89c7f9945f871f8923b1afb10db8ed0d1553c02c5ba60cd37cbb15a1ad59d7bc75f16624734524bfdad065bd2d2283e5e3412a7ae9083ade1f1ef5891848f9b1d728c62c1a97820456a29d2595dafc14243a5ae99ae18c9a77a8c8eddd05a2e687a05ed8afdfbc3d246b5fd254542064bc0bf806d518355567d5976d40fb291215f8d9e4f72748fb5c667a25be40421bf600b448276187336d07e66f9dd29aa3aa36b9335c8de3b2a9b985d76dd908a337cd6b4c2d6e6649909e245d79430702a6b6adf49d3cf4b947fb6be592139f83e29056424e8260dd0b53d90a62ac9cee9dda090b275e5eef0c1b42c400778b14f5d506664fdd765e0f8cfc0db383f1889976fe6e35ac729d2cc6e0fdc72d4df02940142874f4d67bdb7f72ffd8b3531132f9c3494a655f715aa59fa7fdb37323d86f487542c47b33b022e704dee4898408a3b4778d05e73f25ca17002d81661864e2fba8168bad615f6d407716cd84418ad3f33ac07155a7a8001aa8de0cd0eb5d9f4f335aed5e666373c7841b26bfc3e029d224a0387b469ce0c8aa9ed6e689abcf9fc54b81e3e92dbc10c581620a91aea88203efef01a9c6bd8489b2dcc22f5e0e9817a7115c335be260bfded2c72cc2d553544aee022d1855f0463df902598d996092b58d0eb543eddeb0160d4e65e23ea4a75613c5eaf170ab88f8c86bd949e0b955a35ec2b022c768b0cec3a211fdcdad46a498b3c11d723f143f521166c5f4e54898060f429f0ec99425576841dc9278fe3ae5fae67f5e5031edbc50aa38a611144a432bdf8ac7cf17d4ebe9a528b61b117527688902adfa31ddcf0447ea2d0849e4da8b6938f97049c157f468f92e440e2dd94625dbb941d343a6c0e4437cf40835caeea55b3e02029b4da0085088d78651c5784db09d21142d015969c232e3a60f541696613aafd507b1b3a3b75793a43ba4c5b1a6fea77df9d98d7de6f4d93176477e07af92f4a6b67891da57844d2a1506e6007c0ce9726aa31b81dd696ff48f4831360fd20db083726ac86e9b64831914e4118db3c396887e17fc23658b503b9db273e7a5711d03996110421440e99cc9677d5574057c6bc174e2a886c1cdc0c672e1806a10369b1c848ed6a54e764be84f5852ccf2207c97ffa177aad0acb23c536b8c373c435c6514917c0d057b19212104bc29b5a2e975897d36013b08de176eefbd0782a68a54e8a42991de49e75b9815bb1b572fe060dfb98ae684072bd3219ac264e5d25a237b1c63e265a38da11deae2b2ec145e252eec24db10cf0171cbfbfbc35d24d68829fbe4c535d7e3ac9dbd2e51d81d22b0468f690eb00efe7a40dcdf214b39c6f4b2462f3b7e09e1eb6a2e2a24d8daf3b86d65b6dbd4b199736cb486d38ddd50360920f776cb1109fbfa9b982278b45ae4d62e6725c9e4a80d42f8320d66039b71f6e822feabb28b6baf8ed39f3c2533d13cd82c71527b607ec305e9d2c64df32a1bb2b343c21d1681d666151886802f9dcc07d7b0e26749d0a84c907a9ae797142c5ec7e2b1464f61c2357cc8b26b53ce4442020b0fadd06ead78b98cc3d1342149b4725177c8d66a57f12ac20318944beb76420037c763716f41fe9c87974cd60cadeb9e7e4a9a73783d1ea0537aa26ee8a9f293b27e83a271d5f7cac1f381b3bc196e9fa18dffe48cec57dc6ffdbbc299c9bbee61da2d09224ddc7fa6d2541590fe28498e6b78d087fa7d59d944c2a8feddda25be134a392a0b0273f5209411e0bd29e95d6fed0f6d44fb76cc62491023eb830058fb2d7c3431c83d14ca6644ca5ab7f501a0e045721a50645d231a7928c6ea76cd3c3325c0a1604ddd6bc19f530018d510350b617cb6c57ac2efd872108e77f79b929671f312fe5c979cd3ccf1f3ce54bf3af3f90e5bceb74ab8efa22af4a0acfbc41a821ba29647b9e5e09d1c0c1a4daed182cf3dd353d38b96b3f3096ff6b6cd917dea23ba98ff723864d8b9f1d01091591f801de27a4b859f4692dee90b9784a7f0ef9e64739c58e9ea9fc7e00ffbe28653e53839f0a3184efb8b239d495822b764d743063938e37113d0b2496ab70a6efd529422a3833336715053b8b8a38780b8a365254b7ebbcfc031fe5d4cfdac5555d32787821bb65f31857e6893a716a1e4153b904155f4a846b91b30abff7c715f8deea84e77ced3b92388640cd59425984f4e86614a25479f7bb2fce360e091721223a414a52595a84929bcfd1d7e3edeef7181a1d2b527c8295bac1c9cce9f4f9091e202228303b7383a7aab0d7f9fe17464b6e808388959da4abc2c8cddc0000000000000000000000000000001423324101fd2105000532cf665ad23978b2285efb9baf3b8c63add4c5e4417a92d48783c96bc5e3ac4c5e491d10827ae7a744734d952705f2f3ab78f0121d09bbbc5c18c289fb6a5cb2a7ee83ee08594eaf5abc464cef5cc35362e251b25e4e0aa527b862ec8288959daeb48129dd6ae3b1a58820cea670a3a5084472d88a6df323dd6788e82c1e562bd07c51154f7c48c60687619da33b78a086d489006ed876908131c7b8df11dd2fcf7999ef8856edab5bb3309a6063f5ee24b28e3c305f0ef7a5254c2fd142bc17fa77c06855c2fefe94960481421e1ce1adb933b8afb0c9eee21c622e08ce81df79638257a302e8a940d387f5fa45da706b0e23db84689245369fe1a16a873e48be1a975bd6546549b0afb4b7c681b56fd141b75c6fe86a996392a11e39fb58c74d39b28d5351c0cb81ab085ef5abc594790c28065f82edafdbff89914cc9c2e4c0da1884409ae278b94b56598231dccff97b3bc4cd9b5a484891a9a9062b1c8af5c420f886507d1e2ca8ce227268d975b90c664e12a96f59279a3053eaed81cedf3810d98229abf310b539507b79e9e13c0c72ce944db26ea053de5e46ccf8affa9382c9341490c67f3d2fef19f23a69d2a146d1c08e2c3e8a9a963b389634e53458f41f3699a9e49991e03e61da856e3de9d1dca74faf52e1583660cfb7f4152bdf58bf0374a18d6cb19f43e222944fdc681bd320fa6d88adde984330644f580bb9fa7c291972d76a19cdccaa723731abcbb1023d643663e157d4fff7fd667ae65ada410da9cdd526f3367f79ae1d83f4c4ee784a9fd9735edf9e508d60ce6e5d27eba06ab8e014690bcf30f0f209c6f848cdec0881fca006e4b62300f41e64d3d6b631d586b0eb57628bdbfbf29f0b96ee184404c534ff4d6c454fa9ab9ca55bce007cfa99bbe7682c00a3e24de7681192b147c0a7991eec2f64bcd666bc8ef4a6376c13a97a901aea07e8253e4e2306f874b9aa52faba5424e4931cd8c205dd00454f3508619ed246eba3752f513cc87bbf40688d3000a7533c912664f9ba99429d08323bd2c45948749c2adfb2c87f440c483758f7f1806224b5f0ac10df81db338c5e2bfe863faef8c5832076ac500fad9fd0940c176ceed11e4e318dfb4242232e3856f03aacb2358cb3960c09022bb855b8e6502c9d4bf48e883db4ae305b67cdf84bb499b15b8b8e0b16819af7d20062e66cd03d39315b31c7954cd57e359153f3515f0d500a31da2ec982fea06b3ffcce1bfd91777b1b1abf06447ed61e288119ba3b330b328007260e3f01b94d0bf0ebcc89c6bebb0dfaa691b17778ab4703ab00a2a2e3144d7cc0271b7bb7f171a545546fef0bcbe162f246b1cb7db27190439fd336f193b5b89f2669093071fccec65fd45530734654c4e79579ef013c3fe39250ad826e5494cf319dfcdea8a247a55a1facf5d35476b8da1855b4fd21ff64f4adc6b3e1a1c930d76b097348c4b47aac54353a7bb5a7b53092d348863109b88af01c3248a5f2fda6c2d83eab978078ab5d50565f842135d7db9946077272bd14dbde0bc39bd767a8db2cda657548e5a2eec66a39b5465e6accb1771e555c1740b89ab4068e19d3e6de090fb4be182eba50043ba42e7a36cdbdba7a477822b377e2999405a5f1d7681b9a2944312c01a5e40775383024b8eb7ea9502814c8d51a53f7b21b2d62f13b9bd25bd3b619f51eb29c8210c67b9fac3e030cc75d780e4ef1da2a125cef2ba64d9f334c59cb20d172e7bdb8439f67ec630da430a36e8fdbe418319e472d3374606f30fcfaee84573473d53318f2e82c3276e0f6e9545d713310ce5a560aa3567f4b2292aa59d0289a185b15daae0775266d000000",
  "txid": "ba82ff31871ce70e3198f4343e27b183be76c964545121e09598516d38271a01",
  "hash": "36c103a67bbd6255a7d1101e7a6d9b2edf58555b355ffe55ce29b021783fdeb0",
  "size": 5085,
  "vsize": 2278,
  "version": 1,
  "locktime": 109,
  "vin": [
    {
      "txid": "d18afb46ece5b26972a5eebb2d3cbf1f573bee9a3b6a0eba4ded92d693892354",
      "vout": 0,
      "scriptSig": {
        "asm": "",
        "hex": ""
      },
      "txinwitness": [
        "f5971b6647a643a4b21d4e0f8bc6f0aa5bd9282f0f7de3ddd736adb13226df870c30cddfd60104fbca17016856ed272e28b0fa559977829a4026976ba4d61126b8c6a793b3b7abad71f7c423ebd379b96ad3e59958ac88e464cef5532c63d7ce0a0eef5ec6c46ed5542cc0d0634258d986628b6e1d6c2ce714ed5407985046ea0d75e00e8566c564ad9ecbafdc08a66f6e3a784a5375583ad56edf10e99b269a0eae7a399363e37c22997e21a48d35a2e58e03f6960239525e451b769840dc3727e5aeda3fd5f02c0557c22c2f8426ed92d4e10389fb714333445a00a530b7a4473f61221480dc9fef9e57f9c90ab9dde6a6720a788c410de062a62b1f29591445aeeeca33297cf0f43d8e08170edb373dc5a12a1602944e5dea4f4bff32a7d97f09985a9521da688b8ba0c4fa0ab354a45f56f4f5a987d09ef4464d0c8b38bf8ceac353232d7e2ae3ce8722bc3a7bb21af787a91669695d739bd4126aebb3d841336a40f76ddd14f8fec40fd5185f0a20055d5f11242359fbc6da4ef780c4aab3a526911ad1590eb1be7c1c5020c30a19282f7e034c9de25f08a6a3b17fbb9b37c8688cdba0ece83870aec20373d3046fe54dead5a2af009de7a1368704a8eabaca34ed1a84ee824eaa6b8823c4954037f4fb68f9d9ca6878447e45535036e1ecfb6e77f1747978ca1dfe11f767b7d6e95bd78d69bbaff63fe76a316e4dfb6302928826f4ae6d87e3c6df98098f4c01f6363dac55bd83ba3539235715051d3cd9b1b804ea567795223af69273a43a2db7e7bd0a1f31e5f2f74a59806dff906fdb8300a996198766647ed3a1944e5b1d7e529407abf33704e7099ecbb08a1ac61795ffaf5c68bc64bbe5a27983e181c23f351698e28db749ae5302a16224c410e6d879f65c8bd41eb53eef74cd32ad63eaeb214d5c0e8df3633640a5118a137dbf11a873e5bc0789fc4a12c8c4c8b2406cc8216aacae7f38c35d7761c6d443e5e4992299679c8ee95eef1e74e0d124ab3c0ec024277ea93a5900f859444e29e4c929e49fbe6029b819aa162bd0d84a12957c1ee12958b72f92a20adef4f89c7f9945f871f8923b1afb10db8ed0d1553c02c5ba60cd37cbb15a1ad59d7bc75f16624734524bfdad065bd2d2283e5e3412a7ae9083ade1f1ef5891848f9b1d728c62c1a97820456a29d2595dafc14243a5ae99ae18c9a77a8c8eddd05a2e687a05ed8afdfbc3d246b5fd254542064bc0bf806d518355567d5976d40fb291215f8d9e4f72748fb5c667a25be40421bf600b448276187336d07e66f9dd29aa3aa36b9335c8de3b2a9b985d76dd908a337cd6b4c2d6e6649909e245d79430702a6b6adf49d3cf4b947fb6be592139f83e29056424e8260dd0b53d90a62ac9cee9dda090b275e5eef0c1b42c400778b14f5d506664fdd765e0f8cfc0db383f1889976fe6e35ac729d2cc6e0fdc72d4df02940142874f4d67bdb7f72ffd8b3531132f9c3494a655f715aa59fa7fdb37323d86f487542c47b33b022e704dee4898408a3b4778d05e73f25ca17002d81661864e2fba8168bad615f6d407716cd84418ad3f33ac07155a7a8001aa8de0cd0eb5d9f4f335aed5e666373c7841b26bfc3e029d224a0387b469ce0c8aa9ed6e689abcf9fc54b81e3e92dbc10c581620a91aea88203efef01a9c6bd8489b2dcc22f5e0e9817a7115c335be260bfded2c72cc2d553544aee022d1855f0463df902598d996092b58d0eb543eddeb0160d4e65e23ea4a75613c5eaf170ab88f8c86bd949e0b955a35ec2b022c768b0cec3a211fdcdad46a498b3c11d723f143f521166c5f4e54898060f429f0ec99425576841dc9278fe3ae5fae67f5e5031edbc50aa38a611144a432bdf8ac7cf17d4ebe9a528b61b117527688902adfa31ddcf0447ea2d0849e4da8b6938f97049c157f468f92e440e2dd94625dbb941d343a6c0e4437cf40835caeea55b3e02029b4da0085088d78651c5784db09d21142d015969c232e3a60f541696613aafd507b1b3a3b75793a43ba4c5b1a6fea77df9d98d7de6f4d93176477e07af92f4a6b67891da57844d2a1506e6007c0ce9726aa31b81dd696ff48f4831360fd20db083726ac86e9b64831914e4118db3c396887e17fc23658b503b9db273e7a5711d03996110421440e99cc9677d5574057c6bc174e2a886c1cdc0c672e1806a10369b1c848ed6a54e764be84f5852ccf2207c97ffa177aad0acb23c536b8c373c435c6514917c0d057b19212104bc29b5a2e975897d36013b08de176eefbd0782a68a54e8a42991de49e75b9815bb1b572fe060dfb98ae684072bd3219ac264e5d25a237b1c63e265a38da11deae2b2ec145e252eec24db10cf0171cbfbfbc35d24d68829fbe4c535d7e3ac9dbd2e51d81d22b0468f690eb00efe7a40dcdf214b39c6f4b2462f3b7e09e1eb6a2e2a24d8daf3b86d65b6dbd4b199736cb486d38ddd50360920f776cb1109fbfa9b982278b45ae4d62e6725c9e4a80d42f8320d66039b71f6e822feabb28b6baf8ed39f3c2533d13cd82c71527b607ec305e9d2c64df32a1bb2b343c21d1681d666151886802f9dcc07d7b0e26749d0a84c907a9ae797142c5ec7e2b1464f61c2357cc8b26b53ce4442020b0fadd06ead78b98cc3d1342149b4725177c8d66a57f12ac20318944beb76420037c763716f41fe9c87974cd60cadeb9e7e4a9a73783d1ea0537aa26ee8a9f293b27e83a271d5f7cac1f381b3bc196e9fa18dffe48cec57dc6ffdbbc299c9bbee61da2d09224ddc7fa6d2541590fe28498e6b78d087fa7d59d944c2a8feddda25be134a392a0b0273f5209411e0bd29e95d6fed0f6d44fb76cc62491023eb830058fb2d7c3431c83d14ca6644ca5ab7f501a0e045721a50645d231a7928c6ea76cd3c3325c0a1604ddd6bc19f530018d510350b617cb6c57ac2efd872108e77f79b929671f312fe5c979cd3ccf1f3ce54bf3af3f90e5bceb74ab8efa22af4a0acfbc41a821ba29647b9e5e09d1c0c1a4daed182cf3dd353d38b96b3f3096ff6b6cd917dea23ba98ff723864d8b9f1d01091591f801de27a4b859f4692dee90b9784a7f0ef9e64739c58e9ea9fc7e00ffbe28653e53839f0a3184efb8b239d495822b764d743063938e37113d0b2496ab70a6efd529422a3833336715053b8b8a38780b8a365254b7ebbcfc031fe5d4cfdac5555d32787821bb65f31857e6893a716a1e4153b904155f4a846b91b30abff7c715f8deea84e77ced3b92388640cd59425984f4e86614a25479f7bb2fce360e091721223a414a52595a84929bcfd1d7e3edeef7181a1d2b527c8295bac1c9cce9f4f9091e202228303b7383a7aab0d7f9fe17464b6e808388959da4abc2c8cddc0000000000000000000000000000001423324101",
        "000532cf665ad23978b2285efb9baf3b8c63add4c5e4417a92d48783c96bc5e3ac4c5e491d10827ae7a744734d952705f2f3ab78f0121d09bbbc5c18c289fb6a5cb2a7ee83ee08594eaf5abc464cef5cc35362e251b25e4e0aa527b862ec8288959daeb48129dd6ae3b1a58820cea670a3a5084472d88a6df323dd6788e82c1e562bd07c51154f7c48c60687619da33b78a086d489006ed876908131c7b8df11dd2fcf7999ef8856edab5bb3309a6063f5ee24b28e3c305f0ef7a5254c2fd142bc17fa77c06855c2fefe94960481421e1ce1adb933b8afb0c9eee21c622e08ce81df79638257a302e8a940d387f5fa45da706b0e23db84689245369fe1a16a873e48be1a975bd6546549b0afb4b7c681b56fd141b75c6fe86a996392a11e39fb58c74d39b28d5351c0cb81ab085ef5abc594790c28065f82edafdbff89914cc9c2e4c0da1884409ae278b94b56598231dccff97b3bc4cd9b5a484891a9a9062b1c8af5c420f886507d1e2ca8ce227268d975b90c664e12a96f59279a3053eaed81cedf3810d98229abf310b539507b79e9e13c0c72ce944db26ea053de5e46ccf8affa9382c9341490c67f3d2fef19f23a69d2a146d1c08e2c3e8a9a963b389634e53458f41f3699a9e49991e03e61da856e3de9d1dca74faf52e1583660cfb7f4152bdf58bf0374a18d6cb19f43e222944fdc681bd320fa6d88adde984330644f580bb9fa7c291972d76a19cdccaa723731abcbb1023d643663e157d4fff7fd667ae65ada410da9cdd526f3367f79ae1d83f4c4ee784a9fd9735edf9e508d60ce6e5d27eba06ab8e014690bcf30f0f209c6f848cdec0881fca006e4b62300f41e64d3d6b631d586b0eb57628bdbfbf29f0b96ee184404c534ff4d6c454fa9ab9ca55bce007cfa99bbe7682c00a3e24de7681192b147c0a7991eec2f64bcd666bc8ef4a6376c13a97a901aea07e8253e4e2306f874b9aa52faba5424e4931cd8c205dd00454f3508619ed246eba3752f513cc87bbf40688d3000a7533c912664f9ba99429d08323bd2c45948749c2adfb2c87f440c483758f7f1806224b5f0ac10df81db338c5e2bfe863faef8c5832076ac500fad9fd0940c176ceed11e4e318dfb4242232e3856f03aacb2358cb3960c09022bb855b8e6502c9d4bf48e883db4ae305b67cdf84bb499b15b8b8e0b16819af7d20062e66cd03d39315b31c7954cd57e359153f3515f0d500a31da2ec982fea06b3ffcce1bfd91777b1b1abf06447ed61e288119ba3b330b328007260e3f01b94d0bf0ebcc89c6bebb0dfaa691b17778ab4703ab00a2a2e3144d7cc0271b7bb7f171a545546fef0bcbe162f246b1cb7db27190439fd336f193b5b89f2669093071fccec65fd45530734654c4e79579ef013c3fe39250ad826e5494cf319dfcdea8a247a55a1facf5d35476b8da1855b4fd21ff64f4adc6b3e1a1c930d76b097348c4b47aac54353a7bb5a7b53092d348863109b88af01c3248a5f2fda6c2d83eab978078ab5d50565f842135d7db9946077272bd14dbde0bc39bd767a8db2cda657548e5a2eec66a39b5465e6accb1771e555c1740b89ab4068e19d3e6de090fb4be182eba50043ba42e7a36cdbdba7a477822b377e2999405a5f1d7681b9a2944312c01a5e40775383024b8eb7ea9502814c8d51a53f7b21b2d62f13b9bd25bd3b619f51eb29c8210c67b9fac3e030cc75d780e4ef1da2a125cef2ba64d9f334c59cb20d172e7bdb8439f67ec630da430a36e8fdbe418319e472d3374606f30fcfaee84573473d53318f2e82c3276e0f6e9545d713310ce5a560aa3567f4b2292aa59d0289a185b15daae077526"
      ],
      "sequence": 4294967294
    }
  ],
  "vout": [
    {
      "value": 1.0,
      "n": 0,
      "scriptPubKey": {
        "asm": "OP_RETURN f9203885c33e8a8c0a648d996a6fe7622170073f9abb98deb13327e8c1ea2337 7ea34187f807dfb563fb370ca234479adcee1d8eb71b2c9b042c85518ba3ec5d5e8361a7d827ff9543db172c821467bafcce3dae973b0cbb240ca571ab83cc7d3ee301c7b8479ff523bb774ce27407da9cae5dcef75b6cdb446cc511cbe3ac1d1ec321e79867bfd5039b576cc25427fabc8e7deed77b4cfb644ce531ebc38c3dfe23c10778875f35e37bb78c22b4c71a5c6e9d0e379bac1b84ac05d10b236cddde03e12758a77f15c35b97ac0294e73a7c4ebd2e17bb8c3ba48c25f12b034cfdbe63814738c71f75a33bf7cc62f4875a1c2edd4e77dbec5bc4ec45914b632c9d9e43a16718e73f55831bd7ec42d4a77a3c0efd6e57fbcc7be4cc65b16b430cbd7ea34187f807dfb563fb370ca234479adcee1d8eb71b2c9b042c85518ba3ec5d5e8361a7d827ff9543db172c821467bafcce3dae973b0cbb240ca571ab83cc7d3ee301c7b8479ff523bb774ce27407da9cae5dcef75b6cdb446cc511cbe3ac1d1ec321e79867bfd5039b576cc25427fabc8e7deed77b4cfb644ce531ebc38c3dfe23c10778875f35e37bb78c22b4c71a5c6e9d0e379bac1b84ac05d10b236cddde03e12758a77f15c35b97ac0294e73a7c4ebd2e17bb8c3ba48c25f12b034cfdbe63814738c71f75a33bf7cc62f4875a1c2edd4e77dbec5bc4ec45914b632c9d9e43a16718e73f55831bd7ec42d4a77a3c0efd6e57fbcc7be4cc65b16b430cbd7ea34187f807dfb563fb370ca234479adcee1d8eb71b2c9b042c85518ba3ec5d5e8361a7d827ff9543db172c821467bafcce3dae973b0cbb240ca571ab83cc7d3ee301c7b8479ff523bb774ce27407da9cae5dcef75b6cdb446cc511cbe3ac1d1ec321e79867bfd5039b576cc25427fabc8e7deed77b4cfb644ce531ebc38c3dfe23c10778875f35e37bb78c22b4c71a5c6e9d0e379bac1b84ac05d10b236cddde03e12758a77f15c35b97ac0294e73a7c4ebd2e17bb8c3ba48c25f12b034cfdbe63814738c71f75a33bf7cc62f4875a1c2edd4e77dbec5bc4ec45914b632c9d9e43a16718e73f55831bd7ec42d4a77a3c0efd6e57fbcc7be4cc65b16b430cbd7ea34187f807dfb563fb370ca234479adcee1d8eb71b2c9b042c85518ba3ec5d5e8361a7d827ff9543db172c821467bafcce3dae973b0cbb240ca571ab83cc7d3ee301c7b8479ff523bb774ce27407da9cae5dcef75b6cdb446cc511cbe3ac1d1ec321e79867bfd5039b576cc25427fabc8e7deed77b4cfb644ce531ebc38c3dfe23c10778875f35e37bb78c22b4c71a5c6e9d0e379bac1b84ac05d10b236cddde03e12758a77f15c35b97ac0294e73a7c4ebd2e17bb8c3ba48c25f12b034cfdbe63814738c71f75a33bf7cc62f4875a1c2edd4e77dbec5bc4ec45914b632c9d9e43a16718e73f55831bd7ec42d4a77a3c0efd6e57fbcc7be4cc65b16b430cbd7ea34187f807dfb563fb370ca234479adcee1d8eb71b2c9b042c85518ba3ec5d5e8361a7d827ff9543db172c821467bafcce3dae973b0cbb240ca571ab83cc7d3ee301c7b8479ff523bb774ce27407da9cae5dcef75b6cdb446cc511cbe3ac1d1ec321e79867bfd5039b576cc25427fabc8e7deed77b4cfb644ce531ebc38c3dfe23c10778875f35e37bb78c22b4c71a1bfa088df947af54cd6517bb998ce1a807dbc356c818697a2c9dabbb77a0b46c",
        "hex": "6a20f9203885c33e8a8c0a648d996a6fe7622170073f9abb98deb13327e8c1ea23374db0047ea34187f807dfb563fb370ca234479adcee1d8eb71b2c9b042c85518ba3ec5d5e8361a7d827ff9543db172c821467bafcce3dae973b0cbb240ca571ab83cc7d3ee301c7b8479ff523bb774ce27407da9cae5dcef75b6cdb446cc511cbe3ac1d1ec321e79867bfd5039b576cc25427fabc8e7deed77b4cfb644ce531ebc38c3dfe23c10778875f35e37bb78c22b4c71a5c6e9d0e379bac1b84ac05d10b236cddde03e12758a77f15c35b97ac0294e73a7c4ebd2e17bb8c3ba48c25f12b034cfdbe63814738c71f75a33bf7cc62f4875a1c2edd4e77dbec5bc4ec45914b632c9d9e43a16718e73f55831bd7ec42d4a77a3c0efd6e57fbcc7be4cc65b16b430cbd7ea34187f807dfb563fb370ca234479adcee1d8eb71b2c9b042c85518ba3ec5d5e8361a7d827ff9543db172c821467bafcce3dae973b0cbb240ca571ab83cc7d3ee301c7b8479ff523bb774ce27407da9cae5dcef75b6cdb446cc511cbe3ac1d1ec321e79867bfd5039b576cc25427fabc8e7deed77b4cfb644ce531ebc38c3dfe23c10778875f35e37bb78c22b4c71a5c6e9d0e379bac1b84ac05d10b236cddde03e12758a77f15c35b97ac0294e73a7c4ebd2e17bb8c3ba48c25f12b034cfdbe63814738c71f75a33bf7cc62f4875a1c2edd4e77dbec5bc4ec45914b632c9d9e43a16718e73f55831bd7ec42d4a77a3c0efd6e57fbcc7be4cc65b16b430cbd7ea34187f807dfb563fb370ca234479adcee1d8eb71b2c9b042c85518ba3ec5d5e8361a7d827ff9543db172c821467bafcce3dae973b0cbb240ca571ab83cc7d3ee301c7b8479ff523bb774ce27407da9cae5dcef75b6cdb446cc511cbe3ac1d1ec321e79867bfd5039b576cc25427fabc8e7deed77b4cfb644ce531ebc38c3dfe23c10778875f35e37bb78c22b4c71a5c6e9d0e379bac1b84ac05d10b236cddde03e12758a77f15c35b97ac0294e73a7c4ebd2e17bb8c3ba48c25f12b034cfdbe63814738c71f75a33bf7cc62f4875a1c2edd4e77dbec5bc4ec45914b632c9d9e43a16718e73f55831bd7ec42d4a77a3c0efd6e57fbcc7be4cc65b16b430cbd7ea34187f807dfb563fb370ca234479adcee1d8eb71b2c9b042c85518ba3ec5d5e8361a7d827ff9543db172c821467bafcce3dae973b0cbb240ca571ab83cc7d3ee301c7b8479ff523bb774ce27407da9cae5dcef75b6cdb446cc511cbe3ac1d1ec321e79867bfd5039b576cc25427fabc8e7deed77b4cfb644ce531ebc38c3dfe23c10778875f35e37bb78c22b4c71a5c6e9d0e379bac1b84ac05d10b236cddde03e12758a77f15c35b97ac0294e73a7c4ebd2e17bb8c3ba48c25f12b034cfdbe63814738c71f75a33bf7cc62f4875a1c2edd4e77dbec5bc4ec45914b632c9d9e43a16718e73f55831bd7ec42d4a77a3c0efd6e57fbcc7be4cc65b16b430cbd7ea34187f807dfb563fb370ca234479adcee1d8eb71b2c9b042c85518ba3ec5d5e8361a7d827ff9543db172c821467bafcce3dae973b0cbb240ca571ab83cc7d3ee301c7b8479ff523bb774ce27407da9cae5dcef75b6cdb446cc511cbe3ac1d1ec321e79867bfd5039b576cc25427fabc8e7deed77b4cfb644ce531ebc38c3dfe23c10778875f35e37bb78c22b4c71a1bfa088df947af54cd6517bb998ce1a807dbc356c818697a2c9dabbb77a0b46c",
        "type": "nulldata"
      }
    },
    {
      "value": 499988.8141,
      "n": 1,
      "scriptPubKey": {
        "asm": "1 41b74e6b258d1d4c06c3af62a38dfd9247c614c54130c697f819a7ef8632fc56",
        "hex": "512041b74e6b258d1d4c06c3af62a38dfd9247c614c54130c697f819a7ef8632fc56",
        "reqSigs": 1,
        "type": "witness_v1_scripthash",
        "addresses": [
          "3QJmnh"
        ]
      }
    }
  ],
  "blockhash": "9418e69333e129952491dcd6dc324ee50ca4a2e07f0678970cb85d951484494a",
  "confirmations": 1,
  "time": 1764177673,
  "blocktime": 1764177673
}