{
  "hex": "010000000001019899352da6368ffc01084931a800d5e1051b619320cac93489822f29864ef5870100000000feffffff0200e1f50500000000fdd5046a20850670e49dc32b20664c8ebe84d8d1b520628bd9e0a74e5554992120bc5607614db0041da88f566d165c7501b7c1a8d7baa8de417c24aec1975f8b3d38ed07467ca1bd3d88af764d367c552197e188f79a88fe615c048ee1b77fab1d18cd27665c819d5de8cf162d561c3541f781e897fae89e013c64ee81d71fcb7d78ad47063ce1fd7dc8ef360d763c1561d7a1c8b7dac8be211c44cea1f73feb5d588d67261cc1dd9d280fd6ed96dcf581374128573a285ec1fca42e4117df0bbdb86d87c6fc213dbd082ff6cdb6fcd5a1176108771a087ee1dc840e6137ff2b9d984da7e6dc011ddd684f96add69cb5c1770168177a681e81bce46e01579f4bfdf82dc786bc617dfd486fb68df6bc95e1572148375a483ea19cc44e2177bf6bddd80de7a69c415d1da88f566d165c7501b7c1a8d7baa8de417c24aec1975f8b3d38ed07467ca1bd3d88af764d367c552197e188f79a88fe615c048ee1b77fab1d18cd27665c819d5de8cf162d561c3541f781e897fae89e013c64ee81d71fcb7d78ad47063ce1fd7dc8ef360d763c1561d7a1c8b7dac8be211c44cea1f73feb5d588d67261cc1dd9d280fd6ed96dcf581374128573a285ec1fca42e4117df0bbdb86d87c6fc213dbd082ff6cdb6fcd5a1176108771a087ee1dc840e6137ff2b9d984da7e6dc011ddd684f96add69cb5c1770168177a681e81bce46e01579f4bfdf82dc786bc617dfd486fb68df6bc95e1572148375a483ea19cc44e2177bf6bddd80de7a69c415d1da88f566d165c7501b7c1a8d7baa8de417c24aec1975f8b3d38ed07467ca1bd3d88af764d367c552197e188f79a88fe615c048ee1b77fab1d18cd27665c819d5de8cf162d561c3541f781e897fae89e013c64ee81d71fcb7d78ad47063ce1fd7dc8ef360d763c1561d7a1c8b7dac8be211c44cea1f73feb5d588d67261cc1dd9d280fd6ed96dcf581374128573a285ec1fca42e4117df0bbdb86d87c6fc213dbd082ff6cdb6fcd5a1176108771a087ee1dc840e6137ff2b9d984da7e6dc011ddd684f96add69cb5c1770168177a681e81bce46e01579f4bfdf82dc786bc617dfd486fb68df6bc95e1572148375a483ea19cc44e2177bf6bddd80de7a69c415d1da88f566d165c7501b7c1a8d7baa8de417c24aec1975f8b3d38ed07467ca1bd3d88af764d367c552197e188f79a88fe615c048ee1b77fab1d18cd27665c819d5de8cf162d561c3541f781e897fae89e013c64ee81d71fcb7d78ad47063ce1fd7dc8ef360d763c1561d7a1c8b7dac8be211c44cea1f73feb5d588d67261cc1dd9d280fd6ed96dcf581374128573a285ec1fca42e4117df0bbdb86d87c6fc213dbd082ff6cdb6fcd5a1176108771a087ee1dc840e6137ff2b9d984da7e6dc011ddd684f96add69cb5c1770168177a681e81bce46e01579f4bfdf82dc786bc617dfd486fb68df6bc95e1572148375a483ea19cc44e2177bf6bddd80de7a69c415d1da88f566d165c7501b7c1a8d7baa8de417c24aec1975f8b3d38ed07467ca1bd3d88af764d367c552197e188f79a88fe615c048ee1b77fab1d18cd27665c819d5de8cf162d561c3541f781e897fae89e013c64ee81d71fcb7d78ad47063ce1fd7dc8ef360d763c1561d7a1c8b7dac8be211c44cea1f73feb5d588d67261cc1dd9d280fd6ed96dcf581374128573a285efb383be20020288d18deca4cfc9ec53d1e36da96561208c46be26bfc90185c0180cbbf57792d0000225120fb149674f2b4d5390ac727cad01f2d3033f0f7d40e96a40859f4f41194f630ad02fd75092172983ee887402fa1ce9da047da60eb5f8ff1fd2460f2a0836d59f7ee00ab94980db3784aaf3b44f9bff1d2fc0d0b59f386900a6cacd71d56caae3921d57374de5505ef81e531381df0cc0e9349ced90584a389187914992f50ce490b4e6aa4b1c5018ac73abb36b574e2738470f7d44eec2d7a4fdb597e3337f8fcf0054d507502011bf7c72b6226ea593fd2dee31127060ac30b97add57759d773265e5006c40818a2baa78403f870e946b21ffc7f985af7be4f72d95dcf694efe79c60fbc6da59f13ee5ac6cda4156453187065430def53652aaa635838ec5214842968262d9db3268ec2bdc8e2089e072cd58a0c8066be86ac229efea2ec2beb558444dcf95733945ebde040ad4dcea18251a625e01999962ea92ee94f542e66d911d2b0b7451588b8c8252ded7fbbd3f026b3c12239065555cd2abb4d11c0267e7c26f23cd6bbc78aac4adcb1b87e17d75e4b7b3256d0801e5831bed516b54e955348d44ea2631c172c247b424c000139c67ce447235e08798fb3c87c5b285fd2d95b58f897ced411953ee562162bf139b90177f955d4ea0c99a1afcc6e562aec9507d99abff47645044a87e71aa018ca6f786b358bbcdeedd88d8754a3aa60e4ed9495be0e3ce2ba61ab51f675c597c940dcb2ba94630ff5468147610a7e9e28626d7837a6835f09c86b4530b054424b4161182f53c9890e2d1752e4bf241b789f604bb32e8579374e8b00bf9e90048afa928421e4c5db4208893bc38d0e2f90a6aac9f3dd9f0b3b0f9b4f8c71ece845788ee28d5e0723df5ed055528bbdf6c5fe89972fbc4995970906a34e18a9d031898d05d46633a6f5ed17dbcf0d405840fedf31cad6afb132804d23733869bae9dd476c2133d01c16c9c8e4667a1f6bda4d2a4ff900a29417f4b01357920962d8e842b1c5cedac51f2096990397603836b9b555ac9ff037a64880e7f265470c34d38e29903f50020a232e7546988abf080c50e6aedda2ed8e7b85eada10ab11e3bc2e801acd438edec922517035355b27f2913f3a1fb6fca8d98e1c77c3a07f32c29ac146e5e392f73c6356313a980f44fbb7f2782076da8ae1038db91ba6078c50bac7e72fc281dd8e3170df2c5f8bf3c55bda044589ea9a9e6997037ca88df13b644d834c0173a909202b43653cba249a36ca2b7645e94069ed2e4848412d170483159efc991d9d281ab20770dbe378cd6dd2b09a6b4810233ada964e14655e64e4cec8aa3003878e19bd15e99543e0856fbe6fb6189fa45d00f80092a110a0b037a96bebd0ae4334ea2106c7d467b55d6ecaa5d80409cd3d8431e990864124c06a44764d5e24ba271f14eb2e3eed1feaf38ac4655ab9d9a3597d85b2132e1060366291fcbae1044ce1ec36a469632284b8809fc68112f08baf26a84149383807319e067eac6043a8e1cb3673e8290e4302fb8c38e4061cfe83e434d48964dac63fd42237f01ee042f6dcb9729b082007068481045eb0775f231dbe0a4cc2e6224f40bec822076420f8045ee51a2406349b3c9d1afa89a5fbb66120a2918ec53b6cd9a56bad93f14f97949ecb6662e5a783631f2eb674ed5591087f9838e2688456a6862d531988ceb6d7ff5147f055f6d99d82850c37081e4e9ed94f11878826f4aac835cc92416eb41fd3b0f6474e7444b3cfbacd813f1807cb2d8cbd5777d0ef25b651d6315def02b5f06bbae86461b0eabb704f7de551c391bae49911262e622673cd2e378b792cb967bc1bab8d2f0a5d73fee955542a3d7bcf7bfabd3b1b71e777a892a8dee4332e3d1ff083e24acd271ddcdd35950ec956bf23d50dd1415ca5e025e4953a82f35cae9a9598dd182bc839025af6479d979e85435f86582e4d0a6a0af77cc7062eadc07018460ea05debd6f42383d115b6836e5d1e20eb64bff52023c044738c7d7d08cf6048bf805de6607e7c428e6d2c268f1b14c9a068c870c42661f0d16df2a50cbe6c1f03d4088016d5e86f9e268dea6b8bcaeabfd2b59db70422d40acf21845b3a267e99096864cff30ce6bb517e792310a66fb2915a54e5532df44d03aaacc538d102f6a2f431248299542bc2bca600a544b61ce62dc32da57a8e31ed1746dfb3e8198b5236ecde11a1f6e72bbbf2d66a18952052dd9a9117af70f28f93b5f8dd1baaa7f654642736f7ac6898a09b19999cbcbf270e7a2ea0618d968e62ba59f1b2099865c42e84b59bf6c876c6658ebaace323f01a55870d61100145929a10d2e24909525c9116d8e9b1c6e42b22a13c99deb6758737909a06f4d1db6e727637ea2f41e3575d3fcd8a813a9fb98dbb092d45c97abd90bebba1c1e9523a3000b711e9a9aef750fc97a1609f7eed4e9fe565872c75d6af80a72b813b254a974b3af4bfab20d317c9bd669b62dcbd0c37816acac0bb9828f6fa0a0cf5b827f56ea894d0b5ccc4db6fb110c203435040c3f8b3c7d5df11464fd0f46dd3f51aadbd0fb16369eb1f71396844c94ec4be4f41d2972e273b6b76e1a5e0e40bc992e86266bf269d615645b962f8bf8c41760272875f9abc3dac367aa6cca8f545f686730467805d0de77b30ff812e8df9fb83d5225cca8b3cf743d406f45ab928620a595f15678c162ce02f054f664201962c4637318f69917836aaeb502cf336080940ed5c56079ebe35c4bc3633de76ccfd6cbbc99e0878401ed1eb36b8272c349ff294bebff3dc832a1582cf22845a5619d2171cd867d7c26ee8a5dc05332d9958ddf3304bdf26d98b6da0d03cc336606be164eff8a96c4a49f013eed49e1132f6626aa8e7e2312b719b6773b699111890856fb2a178a28d51df8aac164e7f3fe1bcbfdd724e45690479024cf3c748619ceeb5905ddef41fb9a8fa7bfdbab973eff7b961e68f881b325244168b163992e00dc79847a115cef884f26c4d63f02ea1ef26c1c22a9aed0ece62875b4605de6f7d474f67a766c57046b9d1687b7c2a9928b16eb52a184070be947efe675785f0b3b557c63cb332b8a8eea0a312729bea17a891c8413030e626a940d30f181a97b12a8c682273808b201d8a257ebef2f26b0b326f64028efed85e020194c92b58a21579318e5270cb7269d34fa92a999da91cb7c1a99898804356c9a9af27b680efe67260de5b84e8ec1a5f1c9b3d0ad3c320e123c76eac56970e43bbb5762eead5c2d318803acfe29c9dc6aa959f6bce789c4d63c62ba408a55d04baeac1aa7c09ce4892f6e35d6ef03cf81e719851d3d9709ad95674fc9a1f4f65f252388e1f5f4ef6d01c3470ce6e9b5d8b15fb44a921acd1aacca3caf70b131721454a4c52565d666770989ea2c6f502162535526170959ea0aeb7badadb0d111941535a5e7f82838694a8bbbddeed000a101428586b7387889095999fa2a6b3bfc6ea000000000000000000001221324601fd210500b7da6426426cf5c61f6ee08d3dbd271631d252157e200ae3cfd7e71e6b48e070c32a9b0e8efb8bb0e63308bee6be75aecc7fdfc2c409ff71f871650d51940a817c417791ef370c2b1596bf279cd8802084a3ab8abb1778004a0b7fab22abe14dbdd545395c0aefc663de8a9f6ad71462238f44dd54e1325e8d50f41410c73960a409c865abddf53e108fcaed573426d039ce8d300ef5ca6edbfdc41c4f8b8f0db70d06f818ccca4bc75a61dbb6c4997bdd5eda39d7a617d9e0b00aaba3aa05d974d830422e6b7c27444131da504e7b63a1c062ac59936bf0afe6ffea6beb263050d99965b3bb7bdf3b8c061967a1004d3b25185b3ef3cff75c0387002aa093f0b7ed4343135da66ad288a0a51a566354f1435425eaaad30ff9c722f95810fc5bed960d8ac0d001731c7632a9497c18557c60b9215e66350723d1ed6822bc544e24f2dd051557ae3b8d7ec8c3e33054be4dcc4b54d1c936ad6677cccc29179a7f4f4821861e755edee99e233f9bc2a6b1e3184d39aeacbc350546bf49714f61c70c3b6335e6f71d4ea331b4ea4b2e2d43ef26170f37168ab3e67773452ecb35e8c1a2fbd68790784623de67fcd971bc7b4599caa667866c659ad4792c35b3f3e8764312ff009f060ebe7135c5426932048ae5d5a63f345b32be4a97f53c6c7fcd58cc9a7566bd5e68cdd1d0fd51cd07cd1c46127fc6d7f892662114ee86fa89dd545c481a72c2217499fb7cb28d92e14b4484ce66ca68bfb09528dfd3f3cea43840e915e9a7360901b1444663f22a1c9477d8ecbadb8762fb8c2fd30cbc7609e197f70a4944ddb793db6a7a453ed3f5347df1707c3e8377e31e24ddfa8b30464dbfa5ff12f04354a439bb1c2a6788c58db9a34e9c66b36b5c2fedca66f1e4ab9b5ff362128cfac45ca03323113443d3dda24755cb4c5187b3cf15205336b7d60f2e0fa4279187e952ccced6b423b6af023a915e9741e684967487ed64ae589c812426ea5ff4a7cadb3dbbd24bfe4db3ddefd3a190914edf60f41ee1b2239f27a550cde7545f3de848504d83a0bfcf1edd4acdc268248fbbf73c1f37917c39c4290166378178ca7e4c25cd5e29a80f13c8b7ffe0e468ac34e8dd317383ffead4281046f2ff90c85d1ef791026304c804ab0f2de757ee9fd47b26e2b7c2f2fc5c17ef9bdd302f5dd824124f33e6dd8c8b5f90999cc93c5ec9f9e0ae5370f337aa345c40be0e92392706f7c8afc9e543904d19332aacfd386bd6e0913df303c6bae1b58962ed8e2341dd14c3b07530bf8ed8862c7bcb93372a72e2320bcae745629aef793ba3f6325027cd3d37c3301a8358e9c0e343e2cea8ccfa47c646928b3ef5881c183fc5cc366211846257d34403e43a4b4b26362c5d47eac0f04a49615e3172c8e21338cf8528e5f3617b35f38b321216366e4d0ebc2fb0d313f9e8b0c574eb73b3c33b989c77f0581c403398defde3cc7fd7d4519e602a64c8eec46c7accfc035aee6bde2ec41ad6ef467f39301b4c5e49cf69759942708ad94dffe617b1d1943211594f7d579e6addead98079a5bc77a0e8ee8cef013f76df3710919054f4921f60f494a24fc7bafe7ff40490eecd459bc35d1208412c0d78d36f0e7d39c1948317a4fc445d748b4a39a80b019287f335d4bb9af76a0c83cd279d0bf9c145bd977088b5dd0ba80a73f0adf349ac4c1037dfc556ad105881bc047888d6901fcfeacc276c6ebacbcac8a02591bb9249edb987fafa4160fdac55e3b2973fa0ab4819362dd840c0c1336014faab7d2189778647337bdf7d8a8fb2a493347e555d83c3e2395182fa68f1998e854e7cc6d5c9dd5839fc61d2ee00aad76c5ae4446a000000",
  "txid": "c37ca68fb792d08520eca9491e7c11ff4275f25ca5c431dd679313dbf9de065e",
  "hash": "a4b62bf6c25c49885ca521996a598921aee7658570398435baa07ec48750a4b3",
  "size": 5085,
  "vsize": 2278,
  "version": 1,
  "locktime": 106,
  "vin": [
    {
      "txid": "87f54e86292f828934c9ca2093611b05e1d500a831490801fc8f36a62d359998",
      "vout": 1,
      "scriptSig": {
        "asm": "",
        "hex": ""
      },
      "txinwitness": [
        "2172983ee887402fa1ce9da047da60eb5f8ff1fd2460f2a0836d59f7ee00ab94980db3784aaf3b44f9bff1d2fc0d0b59f386900a6cacd71d56caae3921d57374de5505ef81e531381df0cc0e9349ced90584a389187914992f50ce490b4e6aa4b1c5018ac73abb36b574e2738470f7d44eec2d7a4fdb597e3337f8fcf0054d507502011bf7c72b6226ea593fd2dee31127060ac30b97add57759d773265e5006c40818a2baa78403f870e946b21ffc7f985af7be4f72d95dcf694efe79c60fbc6da59f13ee5ac6cda4156453187065430def53652aaa635838ec5214842968262d9db3268ec2bdc8e2089e072cd58a0c8066be86ac229efea2ec2beb558444dcf95733945ebde040ad4dcea18251a625e01999962ea92ee94f542e66d911d2b0b7451588b8c8252ded7fbbd3f026b3c12239065555cd2abb4d11c0267e7c26f23cd6bbc78aac4adcb1b87e17d75e4b7b3256d0801e5831bed516b54e955348d44ea2631c172c247b424c000139c67ce447235e08798fb3c87c5b285fd2d95b58f897ced411953ee562162bf139b90177f955d4ea0c99a1afcc6e562aec9507d99abff47645044a87e71aa018ca6f786b358bbcdeedd88d8754a3aa60e4ed9495be0e3ce2ba61ab51f675c597c940dcb2ba94630ff5468147610a7e9e28626d7837a6835f09c86b4530b054424b4161182f53c9890e2d1752e4bf241b789f604bb32e8579374e8b00bf9e90048afa928421e4c5db4208893bc38d0e2f90a6aac9f3dd9f0b3b0f9b4f8c71ece845788ee28d5e0723df5ed055528bbdf6c5fe89972fbc4995970906a34e18a9d031898d05d46633a6f5ed17dbcf0d405840fedf31cad6afb132804d23733869bae9dd476c2133d01c16c9c8e4667a1f6bda4d2a4ff900a29417f4b01357920962d8e842b1c5cedac51f2096990397603836b9b555ac9ff037a64880e7f265470c34d38e29903f50020a232e7546988abf080c50e6aedda2ed8e7b85eada10ab11e3bc2e801acd438edec922517035355b27f2913f3a1fb6fca8d98e1c77c3a07f32c29ac146e5e392f73c6356313a980f44fbb7f2782076da8ae1038db91ba6078c50bac7e72fc281dd8e3170df2c5f8bf3c55bda044589ea9a9e6997037ca88df13b644d834c0173a909202b43653cba249a36ca2b7645e94069ed2e4848412d170483159efc991d9d281ab20770dbe378cd6dd2b09a6b4810233ada964e14655e64e4cec8aa3003878e19bd15e99543e0856fbe6fb6189fa45d00f80092a110a0b037a96bebd0ae4334ea2106c7d467b55d6ecaa5d80409cd3d8431e990864124c06a44764d5e24ba271f14eb2e3eed1feaf38ac4655ab9d9a3597d85b2132e1060366291fcbae1044ce1ec36a469632284b8809fc68112f08baf26a84149383807319e067eac6043a8e1cb3673e8290e4302fb8c38e4061cfe83e434d48964dac63fd42237f01ee042f6dcb9729b082007068481045eb0775f231dbe0a4cc2e6224f40bec822076420f8045ee51a2406349b3c9d1afa89a5fbb66120a2918ec53b6cd9a56bad93f14f97949ecb6662e5a783631f2eb674ed5591087f9838e2688456a6862d531988ceb6d7ff5147f055f6d99d82850c37081e4e9ed94f11878826f4aac835cc92416eb41fd3b0f6474e7444b3cfbacd813f1807cb2d8cbd5777d0ef25b651d6315def02b5f06bbae86461b0eabb704f7de551c391bae49911262e622673cd2e378b792cb967bc1bab8d2f0a5d73fee955542a3d7bcf7bfabd3b1b71e777a892a8dee4332e3d1ff083e24acd271ddcdd35950ec956bf23d50dd1415ca5e025e4953a82f35cae9a9598dd182bc839025af6479d979e85435f86582e4d0a6a0af77cc7062eadc07018460ea05debd6f42383d115b6836e5d1e20eb64bff52023c044738c7d7d08cf6048bf805de6607e7c428e6d2c268f1b14c9a068c870c42661f0d16df2a50cbe6c1f03d4088016d5e86f9e268dea6b8bcaeabfd2b59db70422d40acf21845b3a267e99096864cff30ce6bb517e792310a66fb2915a54e5532df44d03aaacc538d102f6a2f431248299542bc2bca600a544b61ce62dc32da57a8e31ed1746dfb3e8198b5236ecde11a1f6e72bbbf2d66a18952052dd9a9117af70f28f93b5f8dd1baaa7f654642736f7ac6898a09b19999cbcbf270e7a2ea0618d968e62ba59f1b2099865c42e84b59bf6c876c6658ebaace323f01a55870d61100145929a10d2e24909525c9116d8e9b1c6e42b22a13c99deb6758737909a06f4d1db6e727637ea2f41e3575d3fcd8a813a9fb98dbb092d45c97abd90bebba1c1e9523a3000b711e9a9aef750fc97a1609f7eed4e9fe565872c75d6af80a72b813b254a974b3af4bfab20d317c9bd669b62dcbd0c37816acac0bb9828f6fa0a0cf5b827f56ea894d0b5ccc4db6fb110c203435040c3f8b3c7d5df11464fd0f46dd3f51aadbd0fb16369eb1f71396844c94ec4be4f41d2972e273b6b76e1a5e0e40bc992e86266bf269d615645b962f8bf8c41760272875f9abc3dac367aa6cca8f545f686730467805d0de77b30ff812e8df9fb83d5225cca8b3cf743d406f45ab928620a595f15678c162ce02f054f664201962c4637318f69917836aaeb502cf336080940ed5c56079ebe35c4bc3633de76ccfd6cbbc99e0878401ed1eb36b8272c349ff294bebff3dc832a1582cf22845a5619d2171cd867d7c26ee8a5dc05332d9958ddf3304bdf26d98b6da0d03cc336606be164eff8a96c4a49f013eed49e1132f6626aa8e7e2312b719b6773b699111890856fb2a178a28d51df8aac164e7f3fe1bcbfdd724e45690479024cf3c748619ceeb5905ddef41fb9a8fa7bfdbab973eff7b961e68f881b325244168b163992e00dc79847a115cef884f26c4d63f02ea1ef26c1c22a9aed0ece62875b4605de6f7d474f67a766c57046b9d1687b7c2a9928b16eb52a184070be947efe675785f0b3b557c63cb332b8a8eea0a312729bea17a891c8413030e626a940d30f181a97b12a8c682273808b201d8a257ebef2f26b0b326f64028efed85e020194c92b58a21579318e5270cb7269d34fa92a999da91cb7c1a99898804356c9a9af27b680efe67260de5b84e8ec1a5f1c9b3d0ad3c320e123c76eac56970e43bbb5762eead5c2d318803acfe29c9dc6aa959f6bce789c4d63c62ba408a55d04baeac1aa7c09ce4892f6e35d6ef03cf81e719851d3d9709ad95674fc9a1f4f65f252388e1f5f4ef6d01c3470ce6e9b5d8b15fb44a921acd1aacca3caf70b131721454a4c52565d666770989ea2c6f502162535526170959ea0aeb7badadb0d111941535a5e7f82838694a8bbbddeed000a101428586b7387889095999fa2a6b3bfc6ea000000000000000000001221324601",
        "00b7da6426426cf5c61f6ee08d3dbd271631d252157e200ae3cfd7e71e6b48e070c32a9b0e8efb8bb0e63308bee6be75aecc7fdfc2c409ff71f871650d51940a817c417791ef370c2b1596bf279cd8802084a3ab8abb1778004a0b7fab22abe14dbdd545395c0aefc663de8a9f6ad71462238f44dd54e1325e8d50f41410c73960a409c865abddf53e108fcaed573426d039ce8d300ef5ca6edbfdc41c4f8b8f0db70d06f818ccca4bc75a61dbb6c4997bdd5eda39d7a617d9e0b00aaba3aa05d974d830422e6b7c27444131da504e7b63a1c062ac59936bf0afe6ffea6beb263050d99965b3bb7bdf3b8c061967a1004d3b25185b3ef3cff75c0387002aa093f0b7ed4343135da66ad288a0a51a566354f1435425eaaad30ff9c722f95810fc5bed960d8ac0d001731c7632a9497c18557c60b9215e66350723d1ed6822bc544e24f2dd051557ae3b8d7ec8c3e33054be4dcc4b54d1c936ad6677cccc29179a7f4f4821861e755edee99e233f9bc2a6b1e3184d39aeacbc350546bf49714f61c70c3b6335e6f71d4ea331b4ea4b2e2d43ef26170f37168ab3e67773452ecb35e8c1a2fbd68790784623de67fcd971bc7b4599caa667866c659ad4792c35b3f3e8764312ff009f060ebe7135c5426932048ae5d5a63f345b32be4a97f53c6c7fcd58cc9a7566bd5e68cdd1d0fd51cd07cd1c46127fc6d7f892662114ee86fa89dd545c481a72c2217499fb7cb28d92e14b4484ce66ca68bfb09528dfd3f3cea43840e915e9a7360901b1444663f22a1c9477d8ecbadb8762fb8c2fd30cbc7609e197f70a4944ddb793db6a7a453ed3f5347df1707c3e8377e31e24ddfa8b30464dbfa5ff12f04354a439bb1c2a6788c58db9a34e9c66b36b5c2fedca66f1e4ab9b5ff362128cfac45ca03323113443d3dda24755cb4c5187b3cf15205336b7d60f2e0fa4279187e952ccced6b423b6af023a915e9741e684967487ed64ae589c812426ea5ff4a7cadb3dbbd24bfe4db3ddefd3a190914edf60f41ee1b2239f27a550cde7545f3de848504d83a0bfcf1edd4acdc268248fbbf73c1f37917c39c4290166378178ca7e4c25cd5e29a80f13c8b7ffe0e468ac34e8dd317383ffead4281046f2ff90c85d1ef791026304c804ab0f2de757ee9fd47b26e2b7c2f2fc5c17ef9bdd302f5dd824124f33e6dd8c8b5f90999cc93c5ec9f9e0ae5370f337aa345c40be0e92392706f7c8afc9e543904d19332aacfd386bd6e0913df303c6bae1b58962ed8e2341dd14c3b07530bf8ed8862c7bcb93372a72e2320bcae745629aef793ba3f6325027cd3d37c3301a8358e9c0e343e2cea8ccfa47c646928b3ef5881c183fc5cc366211846257d34403e43a4b4b26362c5d47eac0f04a49615e3172c8e21338cf8528e5f3617b35f38b321216366e4d0ebc2fb0d313f9e8b0c574eb73b3c33b989c77f0581c403398defde3cc7fd7d4519e602a64c8eec46c7accfc035aee6bde2ec41ad6ef467f39301b4c5e49cf69759942708ad94dffe617b1d1943211594f7d579e6addead98079a5bc77a0e8ee8cef013f76df3710919054f4921f60f494a24fc7bafe7ff40490eecd459bc35d1208412c0d78d36f0e7d39c1948317a4fc445d748b4a39a80b019287f335d4bb9af76a0c83cd279d0bf9c145bd977088b5dd0ba80a73f0adf349ac4c1037dfc556ad105881bc047888d6901fcfeacc276c6ebacbcac8a02591bb9249edb987fafa4160fdac55e3b2973fa0ab4819362dd840c0c1336014faab7d2189778647337bdf7d8a8fb2a493347e555d83c3e2395182fa68f1998e854e7cc6d5c9dd5839fc61d2ee00aad76c5ae444"
      ],
      "sequence": 4294967294
    }
  ],
  "vout": [
    {
      "value": 1.0,
      "n": 0,
      "scriptPubKey": {
        "asm": "OP_RETURN 850670e49dc32b20664c8ebe84d8d1b520628bd9e0a74e5554992120bc560761 1da88f566d165c7501b7c1a8d7baa8de417c24aec1975f8b3d38ed07467ca1bd3d88af764d367c552197e188f79a88fe615c048ee1b77fab1d18cd27665c819d5de8cf162d561c3541f781e897fae89e013c64ee81d71fcb7d78ad47063ce1fd7dc8ef360d763c1561d7a1c8b7dac8be211c44cea1f73feb5d588d67261cc1dd9d280fd6ed96dcf581374128573a285ec1fca42e4117df0bbdb86d87c6fc213dbd082ff6cdb6fcd5a1176108771a087ee1dc840e6137ff2b9d984da7e6dc011ddd684f96add69cb5c1770168177a681e81bce46e01579f4bfdf82dc786bc617dfd486fb68df6bc95e1572148375a483ea19cc44e2177bf6bddd80de7a69c415d1da88f566d165c7501b7c1a8d7baa8de417c24aec1975f8b3d38ed07467ca1bd3d88af764d367c552197e188f79a88fe615c048ee1b77fab1d18cd27665c819d5de8cf162d561c3541f781e897fae89e013c64ee81d71fcb7d78ad47063ce1fd7dc8ef360d763c1561d7a1c8b7dac8be211c44cea1f73feb5d588d67261cc1dd9d280fd6ed96dcf581374128573a285ec1fca42e4117df0bbdb86d87c6fc213dbd082ff6cdb6fcd5a1176108771a087ee1dc840e6137ff2b9d984da7e6dc011ddd684f96add69cb5c1770168177a681e81bce46e01579f4bfdf82dc786bc617dfd486fb68df6bc95e1572148375a483ea19cc44e2177bf6bddd80de7a69c415d1da88f566d165c7501b7c1a8d7baa8de417c24aec1975f8b3d38ed07467ca1bd3d88af764d367c552197e188f79a88fe615c048ee1b77fab1d18cd27665c819d5de8cf162d561c3541f781e897fae89e013c64ee81d71fcb7d78ad47063ce1fd7dc8ef360d763c1561d7a1c8b7dac8be211c44cea1f73feb5d588d67261cc1dd9d280fd6ed96dcf581374128573a285ec1fca42e4117df0bbdb86d87c6fc213dbd082ff6cdb6fcd5a1176108771a087ee1dc840e6137ff2b9d984da7e6dc011ddd684f96add69cb5c1770168177a681e81bce46e01579f4bfdf82dc786bc617dfd486fb68df6bc95e1572148375a483ea19cc44e2177bf6bddd80de7a69c415d1da88f566d165c7501b7c1a8d7baa8de417c24aec1975f8b3d38ed07467ca1bd3d88af764d367c552197e188f79a88fe615c048ee1b77fab1d18cd27665c819d5de8cf162d561c3541f781e897fae89e013c64ee81d71fcb7d78ad47063ce1fd7dc8ef360d763c1561d7a1c8b7dac8be211c44cea1f73feb5d588d67261cc1dd9d280fd6ed96dcf581374128573a285ec1fca42e4117df0bbdb86d87c6fc213dbd082ff6cdb6fcd5a1176108771a087ee1dc840e6137ff2b9d984da7e6dc011ddd684f96add69cb5c1770168177a681e81bce46e01579f4bfdf82dc786bc617dfd486fb68df6bc95e1572148375a483ea19cc44e2177bf6bddd80de7a69c415d1da88f566d165c7501b7c1a8d7baa8de417c24aec1975f8b3d38ed07467ca1bd3d88af764d367c552197e188f79a88fe615c048ee1b77fab1d18cd27665c819d5de8cf162d561c3541f781e897fae89e013c64ee81d71fcb7d78ad47063ce1fd7dc8ef360d763c1561d7a1c8b7dac8be211c44cea1f73feb5d588d67261cc1dd9d280fd6ed96dcf581374128573a285efb383be20020288d18deca4cfc9ec53d1e36da96561208c46be26bfc90185c01",
        "hex": "6a20850670e49dc32b20664c8ebe84d8d1b520628bd9e0a74e5554992120bc5607614db0041da88f566d165c7501b7c1a8d7baa8de417c24aec1975f8b3d38ed07467ca1bd3d88af764d367c552197e188f79a88fe615c048ee1b77fab1d18cd27665c819d5de8cf162d561c3541f781e897fae89e013c64ee81d71fcb7d78ad47063ce1fd7dc8ef360d763c1561d7a1c8b7dac8be211c44cea1f73feb5d588d67261cc1dd9d280fd6ed96dcf581374128573a285ec1fca42e4117df0bbdb86d87c6fc213dbd082ff6cdb6fcd5a1176108771a087ee1dc840e6137ff2b9d984da7e6dc011ddd684f96add69cb5c1770168177a681e81bce46e01579f4bfdf82dc786bc617dfd486fb68df6bc95e1572148375a483ea19cc44e2177bf6bddd80de7a69c415d1da88f566d165c7501b7c1a8d7baa8de417c24aec1975f8b3d38ed07467ca1bd3d88af764d367c552197e188f79a88fe615c048ee1b77fab1d18cd27665c819d5de8cf162d561c3541f781e897fae89e013c64ee81d71fcb7d78ad47063ce1fd7dc8ef360d763c1561d7a1c8b7dac8be211c44cea1f73feb5d588d67261cc1dd9d280fd6ed96dcf581374128573a285ec1fca42e4117df0bbdb86d87c6fc213dbd082ff6cdb6fcd5a1176108771a087ee1dc840e6137ff2b9d984da7e6dc011ddd684f96add69cb5c1770168177a681e81bce46e01579f4bfdf82dc786bc617dfd486fb68df6bc95e1572148375a483ea19cc44e2177bf6bddd80de7a69c415d1da88f566d165c7501b7c1a8d7baa8de417c24aec1975f8b3d38ed07467ca1bd3d88af764d367c552197e188f79a88fe615c048ee1b77fab1d18cd27665c819d5de8cf162d561c3541f781e897fae89e013c64ee81d71fcb7d78ad47063ce1fd7dc8ef360d763c1561d7a1c8b7dac8be211c44cea1f73feb5d588d67261cc1dd9d280fd6ed96dcf581374128573a285ec1fca42e4117df0bbdb86d87c6fc213dbd082ff6cdb6fcd5a1176108771a087ee1dc840e6137ff2b9d984da7e6dc011ddd684f96add69cb5c1770168177a681e81bce46e01579f4bfdf82dc786bc617dfd486fb68df6bc95e1572148375a483ea19cc44e2177bf6bddd80de7a69c415d1da88f566d165c7501b7c1a8d7baa8de417c24aec1975f8b3d38ed07467ca1bd3d88af764d367c552197e188f79a88fe615c048ee1b77fab1d18cd27665c819d5de8cf162d561c3541f781e897fae89e013c64ee81d71fcb7d78ad47063ce1fd7dc8ef360d763c1561d7a1c8b7dac8be211c44cea1f73feb5d588d67261cc1dd9d280fd6ed96dcf581374128573a285ec1fca42e4117df0bbdb86d87c6fc213dbd082ff6cdb6fcd5a1176108771a087ee1dc840e6137ff2b9d984da7e6dc011ddd684f96add69cb5c1770168177a681e81bce46e01579f4bfdf82dc786bc617dfd486fb68df6bc95e1572148375a483ea19cc44e2177bf6bddd80de7a69c415d1da88f566d165c7501b7c1a8d7baa8de417c24aec1975f8b3d38ed07467ca1bd3d88af764d367c552197e188f79a88fe615c048ee1b77fab1d18cd27665c819d5de8cf162d561c3541f781e897fae89e013c64ee81d71fcb7d78ad47063ce1fd7dc8ef360d763c1561d7a1c8b7dac8be211c44cea1f73feb5d588d67261cc1dd9d280fd6ed96dcf581374128573a285efb383be20020288d18deca4cfc9ec53d1e36da96561208c46be26bfc90185c01",
        "type": "nulldata"
      }
    },
    {
      "value": 499991.8648,
      "n": 1,
      "scriptPubKey": {
        "asm": "1 fb149674f2b4d5390ac727cad01f2d3033f0f7d40e96a40859f4f41194f630ad",
        "hex": "5120fb149674f2b4d5390ac727cad01f2d3033f0f7d40e96a40859f4f41194f630ad",
        "reqSigs": 1,
        "type": "witness_v1_scripthash",
        "addresses": [
          "3QJmnh"
        ]
      }
    }
  ],
  "blockhash": "ed58b71ef50cb049f6fd5c1ad274bdeb3951d970e0a56ec51ef7152d34b6d8c5",
  "confirmations": 1,
  "time": 1764177054,
  "blocktime": 1764177054
}