{
  "hex": "0100000000010182bbf46d62b82145bc737e553469fb91f269b08392ba5109ea5ca6120eb361090100000000feffffff021076cf5d792d00002251208d91799dc7cf65bc0c6e473f54c2496a7b5262e84bbd7bf167b949adf766b17100e1f50500000000fdd5046a2021e8b63fc36cd7042383132823da5a8bd4cf00a33ae94bcb3d039337e0ea29324db0041509d4c58398aa9c0585142d418f8e882f6c591b62d88b79b62d66c90cfb4e673529f4e5a3b88abc25a5340d61afaea80f4c793b42f8ab59960d46e92cdb6e4755499485c3d8eadc45c5546d01cfcec86f2c195b2298cb39f66d26894cbb0e277569b4a5e3f8cafc65e5744d21efeee84f0c397b02b8eb19d64d06a96c9b2e079589544503182a1c850594adc10f0e08afecd99be2580bf936ade6498c7bcee7b5a9746523380a3ca525b48de12f2e288fccf9bbc2782bd9168dc669ac5beec7d5c9140543586a5cc545d4ed814f4e48efac99dba2184bb976eda609cc3b8ea7f5e9342563784a7ce565f4cda16f6e68cf8cb9fb82386b9956cd8629ec1bae871509d4c58398aa9c0585142d418f8e882f6c591b62d88b79b62d66c90cfb4e673529f4e5a3b88abc25a5340d61afaea80f4c793b42f8ab59960d46e92cdb6e4755499485c3d8eadc45c5546d01cfcec86f2c195b2298cb39f66d26894cbb0e277569b4a5e3f8cafc65e5744d21efeee84f0c397b02b8eb19d64d06a96c9b2e079589544503182a1c850594adc10f0e08afecd99be2580bf936ade6498c7bcee7b5a9746523380a3ca525b48de12f2e288fccf9bbc2782bd9168dc669ac5beec7d5c9140543586a5cc545d4ed814f4e48efac99dba2184bb976eda609cc3b8ea7f5e9342563784a7ce565f4cda16f6e68cf8cb9fb82386b9956cd8629ec1bae871509d4c58398aa9c0585142d418f8e882f6c591b62d88b79b62d66c90cfb4e673529f4e5a3b88abc25a5340d61afaea80f4c793b42f8ab59960d46e92cdb6e4755499485c3d8eadc45c5546d01cfcec86f2c195b2298cb39f66d26894cbb0e277569b4a5e3f8cafc65e5744d21efeee84f0c397b02b8eb19d64d06a96c9b2e079589544503182a1c850594adc10f0e08afecd99be2580bf936ade6498c7bcee7b5a9746523380a3ca525b48de12f2e288fccf9bbc2782bd9168dc669ac5beec7d5c9140543586a5cc545d4ed814f4e48efac99dba2184bb976eda609cc3b8ea7f5e9342563784a7ce565f4cda16f6e68cf8cb9fb82386b9956cd8629ec1bae871509d4c58398aa9c0585142d418f8e882f6c591b62d88b79b62d66c90cfb4e673529f4e5a3b88abc25a5340d61afaea80f4c793b42f8ab59960d46e92cdb6e4755499485c3d8eadc45c5546d01cfcec86f2c195b2298cb39f66d26894cbb0e277569b4a5e3f8cafc65e5744d21efeee84f0c397b02b8eb19d64d06a96c9b2e079589544503182a1c850594adc10f0e08afecd99be2580bf936ade6498c7bcee7b5a9746523380a3ca525b48de12f2e288fccf9bbc2782bd9168dc669ac5beec7d5c9140543586a5cc545d4ed814f4e48efac99dba2184bb976eda609cc3b8ea7f5e9342563784a7ce565f4cda16f6e68cf8cb9fb82386b9956cd8629ec1bae871509d4c58398aa9c0585142d418f8e882f6c591b62d88b79b62d66c90cfb4e673529f4e5a3b88abc25a5340d61afaea80f4c793b42f8ab59960d46e92cdb6e4755499485c3d8eadc45c5546d01cfcec86f2c195b2298cb39f66d26894cbb0e277569b4a5e3f8cafc65e5744d21efeee84f0c397b02b8eb19d64d06a96c9b2e079589544503182a1c850594adc10f0e089a71891ff520b8d51ba3d7b648d381ca22fdfad0df38873a764ab58088630f4c02fd750957fdef9193d140144296aa0ca2ef42221e711cf9851fad0a3b58e8ae436baa353bfa1e611afcf54e5f88deb5411c2b674c94b854b76cf177a6dc3ee527f007895c82462211bfd0ea40bc45457ad0544af82e68c7f24ef8c181315558a5d1f9807aaa90db2d60323f64a1e2aa0283c71f47b68118d0fc76183b4484c4f6e96cccfd82c1585582b7856c204c4c71e98a5b0770e91b1f9cecd54267f3b25a9a1c402d161cbf78070a257f0518cae74811f2acee72617277e6e3d3d0df0a3140bde6de689378d8b855bc724241be1b8fce80ab40dbee1c8c86c7cdb89bee50e59c4dfd254ce55beac591a381c95ee4f100f5ad1b3ebbf8b1e3fa83a23b2545c504c1266a34b0e5b978a2517c094c9ad9803809dd71814c52d70d530367dca12e4bc597eb9c779f2a3840d559231c04dbff002b1f18089ed36639647c6d72ad8900a5b0473489b32ab8aaea0e3c84b3dd70db8d24a24c09c8d97c2286dec13dc77046aa46c4fb3f0135724d2ec90cbdc6073eb033d8aa47d4232fc07679b9e8ccdee4eccbbcac9cd1ab56e7f3c47282fa284198921eabfec32bd33f1dbfe7a6723e537878b53afe59a6849863b9357d3f15412652500adf73d77bd3c741e38b98852c2ffb4ce6ab5443d98b224fff1bf525fd8f970dab240ff922b8a2507889b769b9751aa2640a8a3ef44bf257f9f4dfa1e260b37aa810180a87d0f0881315f83d59e7503b6483fdc2fffc995d5a32d00511a31268564609f5cc730476e10d78634c19e79cca868b73e1fdae5e5a66be84b0dcfb1b0a118a127d2f2d971a3169b900bdc273aa1dd2f37d47560604966e81532a3cde7406bc0af06946acb05078eccbdca80c77b4fb2302739ec86ecf12c5394340da24b0dd0ed4de61501b8efc23eae500e2f6d6eda834c0c9b141633ac70bd39b9ecd94ca783e3aaea8b68add3c7c174ec762d3635e2f02b1ace38b29fb1dffb696d60098b51e8d0c6c23e53b4d6f72e6d3e4bee10f5a4abdd48ce057c702fad59fd81cab1a0326022b4e5cb3c03e8d7d0c2bb5741546ad8df10e8daffed5a58257673780e0a4871505c252809ef513d541e9176a62759afa16fa697086a5bbd927092ba9f9bf3b735513024bcdc9ef02027023bb47113b17b0fa3b4d7418443562e7700952a23bd65ca28966180c14aeff1b2829a974ed1d11225fc63ca7510b4c588a4ee440998c9eb3e296c35680c0229c47ae634f113fe6162a0291ae6cb492415ab22f779d246d7ed5e715aab871662fe6630db1bc0624189348d1a64e0728886fe2994c71c09e01bd2cdd58c95855e7ed75c8195b8fa12900fcb830a98d13f493e930cd854cfff10dfadd164cecd07c7ffb4dd15333736cc8125dcb20a559b15bc7baab0ac02df515345d9f3dd589367b09b5466a11302ea0cc3ab59b8e75c116c45152d6c5f8454387564d3e656af2bcfec50241bc2ddb0fdb3c373193c9371ebdcb6190de97b23db9db824247b0fb1bef6653af5f5820107f77359edcd2a354bb83b269d99ac3aa71f562a20a73d97353d4980053c602b13448c01d993f74b5501e550d1d29611d8c048d26550024025a024a6fcbf6ea82082d44f5b750e22f67f39d9fdada4be8cd28d0c7a1798a0799ebfdbdb235419c9093c523d8656d730326a6d87754aa384d755cce171adb3074d72f5c5a9339754415ed222860906119c58b94fc8c5921fbb7e3ed303091aa4f37fde06d1c2d4e62f70712e5e2c8583ff5d846974be619d1f578648afeb0a824a09ba27fb2cf9dfe14c9cd674e1b2911eaf76a3f259f4882a9f36697b74bfec84da3cebc5254cefe1b3349092809ed1b0c2379e4c9397f4f48d2dea575fd200690a0d78e55843a196a0c358c732c419935f953a61c8bc81a5c0cad0053413889e534fa4035fbf99b8e4373738f10cffe2ddafd843f044d6c08e2461848dd94990a2b447c2f0afd12ba5ccc957698d1d4a15dd7186526f2149c8ef0c3a262f82ade563204bcad6fbb6588b8ae247eede84dc36c0d9b7cffc88088baadfc1bf440710801db630b0f24c3036b5dd311ab5ed95ca4e4900bb751da259dc6b367e55bbbea08fecaa2bff1b08a1a7dfa231f0994c4f56625aac291e6320a46cd430e9c53f91b97dd46d9b602f901550e08f39282ae9aa6d4b6746cab875cc3cd005395ec2d7b08ae784352dea52ef738219baf06ed2e1c8d81988920c75a1f4282aeed0beb0c7fa3d1abacd821e9dc5802e86e31971345a8000bda1f8702b26b6f3a8ba7c260a0ee8f8a4ee190447dadf9d59ee353bde8c4d7b1250ac54c63235c372c0cec1f7bd806670a2ad6c3e671bcd4f5eafb8e1cfcb42ff635257dc900ddd294213bff2167c7a4fe107cec383ff618c25bd3368b21e7c658fdda35e39deb90ee454e933ce87f609947e795aab2f0eb0c3822da1c0265f04c6cc9de6670c0eaaa949ba6f51095e5620af2d37f91387dc981d736eb58df1d4402d75d9e11a69aadc8d9f2bda0e9a5b4b0754968a4fdb6cc3b4a6ac74ba0b5a132646474edbdaa3f8fca57aafd5464d03029a0be87753798c8215cc04c17fe93241b803cf523bfdad8a4fcafb296863f5d5ad3551e55bf8753c9da58cd22390616faa1347eff6e65fac81946ca2d1e8f4b83bab866af232edbe892102700de5658d92ab40bcbfb32e637556657efef4f16a7e8f716a19861c8eaf53358e262c4d3c26eb347f4a1b35bb7b546eaf48f648e429ccd0738246d64a1f198d6ce33f4569db3355f5ba7e98616f6e1eb744f760b63fc74dc4674a5add0df6cb6786dc583ecf85772414f4233bc2125b7f65478ad57c53190df46cfce983c33da693f761f56a677e9c7d3abbeac07c08e001546219a7554b643e57b75c6152541a5955e7a6c81835908271b9b4e88718f175bbbeaff7992d4fcb7cb0c1607db7ec8bfe1e59af404995e4e81e7016be4922d9fdc7a99ebc0594cb836071a32b17ad382b4571069adc92d98efd80ada421369982c99292d1916fccdb7956bc94268c4da31b3dca03b1f272dc92508c53b95a0a68379001f33d51dbf54ec1f44bc52dedb24f8b2e0f0b3b901ee7c70eb19e88cbb890a0246f493baaabf338640e7c65d9c9659668849270f4cc961ae55997efe9132f73400a12b68d168583a4bf7e805d0b08977af73626cc40648dbade232dc91d4e3621688cf7af9735ce248c2a8467635cafead8472249dd1f29ca6ccd9ac27c79e317400795f64390c81ad4cdd4d0c017364871f85e4ba478e4471ae7184581f99f1f24b1151b3f6f9246ecd19419de51cb9112629307b818c94999a9fb7bfd2f2fa0607161a28505a787d8689c3d3f80d525d7fadafbfe1ec05060c0d101518232d535f626a78909fa3ade2e5000000000000000000000000000000000000000000101e273b01fd2105008c0a3e963f4ec17a7c90bb802f1ff19ad047a50b8096a7ed7e0af82070ef7dc0ad06301d018af58a051c24d1b344a25d9fba8bb67b82e8d3e99488ce3e8524c2fa31e8d187f06ca3fa9823828dab9c420d8cda39e13f870f405768dc72d300e3ad84e79d4a9d20493430359d189a83bb9b27a36b1b8d3a8ad5585d805246a634f7fa6f4a589eebab0f76396bd73e1093ab85111e3ea39308a74a28f1a9a6a725209213e3ba16f40699b8fcb9b9d8ebe43f88626b7dad62304d707732441b43ea9d38770bbcaf8d1a28845e4b90b2dc0ced304e69f540a73cbe04db65a5472fcba416ba81d46db5ff2c0d981f4edd9b9c644b2d664c5d5900602f2a217250477d5e089d986efc437c183639c721307056a5dc74e27fe806519af767b041b79d435b2ff314643f30a135fec97d12ef1138179373b55cccf3849af42e4a798f44d9f7f9cadd9ec909b315f38ae9f56a12dc8e29badd4c50c1e4c9321e11e99d7d1e02d5c8b9e9fe92b34a8fe202dc0390eeb0002addb416f36b24779194dffa6b43dbd5e239c51293ec19b286656ba03ad1c466a4419f535a8f1e645a702a1a320b7eafd6a4e0b8e14d0539be65f515b7bac66f8fbfb508b102e6666a92b464c23c3da649d85463a33849a88cf65de3fc156c783443f18e4ef01a817a5d03f486ff1e6e4385d1e4c4ace47a31eb38d6649c16f025b1d19d98a1b15b699d9dd6026b54a6a57f3d45d782d935d3dfe75b8698851f4889f4efbbb69d35ed4cfc9ef1b82a5b2d86ec5aa7ba4b57257f7aac8c081be3e76ba1a4f4190ca23703ee65e61b2803ddc17c149574f1c12d0bd5749d65fea7d5d8c5aba910bb8412eae50ec24d90451db4a6b10390c6cf2f86f0deed3c5ccddfff83b86bc9114a86ce44716f2d371324e400f1dff1c07d646b77551eaf8961b91be21e9bf8195d69220dc40f605274ebce9cb143242d9ccecd84f4e3ce650133e136006338f72be8f4fcaccc94017cc4eaff21534d558d8f169fd4cf59e46dcf8bf1af82246352ec7ae98a0f7352128ac19c8400ddc191e43f7f226e380edf99089493df9a81b504ff52851834a17ffc3a8043e857c0d8a7955e985454f3bb0a13979d78cd3ba426255a7dfe0666f09c423d5abc6726983857f6aa080db114a8140e85677585677934e18f282a5dee0cbb733a1946aebe0cad24a7dde455d2ac716129a898071b6cfb2b01f0a506636ac40b11f12a331891a77ce37f1840923890a3b3cc7b17a688c6dd8d984a3182fcb93960c27eed3b2d23a9467863468b0d186b7ce9f0ad260b39b72a0c190eb522e5a1a77c4c1ac2f1df4e82f3c15a00724585d51b2afc92121c1912c3cf6415489bd8c961208444f3efb613367a06300e200f1fa8c7f4bd53c844b6c613ac91d3a55c3bcfcaedd5a0d867ea56e02929e615ce5e80a0645fbfe997366fafd28581502d0af8a84edd0ac2f94b2e20ef6bb135cc6150c14d3175764345424834fbc79f4558a89d12a64f000bb65eac2875785b2968672dff12c3201242a97218bad3e5b80aca2ca979560e026b142d96120c8bef40609e28e9ce9a76b35ca0d41c5ffac4c67033c954e8c31f25e7f4c6f2d7cf405f8a6c498bad0569c6fab2e70b87905b9aea1a569b773cab25d4153149a499ab6febca53921a0088eb175561ef0e1556bdb4fde6f6f788a929217cb97308f085326c853727d74e6de46aecb9dbb7a564f8e81eea9d4614a080a7109c05f85998dfea2f60cf42ae1d440e043978d0698eb0b4c0e4c462fa68b9be102fee33ba0d09bc1cf4281c80721a101c34af08a30b3f125c19df3571f63aa8f59cbb73d7d4b9d98fffde572053f2667369000000",
  "txid": "c7f1cd8dccbb06a88b32f07d18baaa4ce15cdcc498ec5b21c4ad7010219f2fe7",
  "hash": "8387a750f69b88c9e345e61aad90587759c76282a0ed4d795ab342d1e88dd852",
  "size": 5085,
  "vsize": 2278,
  "version": 1,
  "locktime": 105,
  "vin": [
    {
      "txid": "0961b30e12a65cea0951ba9283b069f291fb6934557e73bc4521b8626df4bb82",
      "vout": 1,
      "scriptSig": {
        "asm": "",
        "hex": ""
      },
      "txinwitness": [
        "57fdef9193d140144296aa0ca2ef42221e711cf9851fad0a3b58e8ae436baa353bfa1e611afcf54e5f88deb5411c2b674c94b854b76cf177a6dc3ee527f007895c82462211bfd0ea40bc45457ad0544af82e68c7f24ef8c181315558a5d1f9807aaa90db2d60323f64a1e2aa0283c71f47b68118d0fc76183b4484c4f6e96cccfd82c1585582b7856c204c4c71e98a5b0770e91b1f9cecd54267f3b25a9a1c402d161cbf78070a257f0518cae74811f2acee72617277e6e3d3d0df0a3140bde6de689378d8b855bc724241be1b8fce80ab40dbee1c8c86c7cdb89bee50e59c4dfd254ce55beac591a381c95ee4f100f5ad1b3ebbf8b1e3fa83a23b2545c504c1266a34b0e5b978a2517c094c9ad9803809dd71814c52d70d530367dca12e4bc597eb9c779f2a3840d559231c04dbff002b1f18089ed36639647c6d72ad8900a5b0473489b32ab8aaea0e3c84b3dd70db8d24a24c09c8d97c2286dec13dc77046aa46c4fb3f0135724d2ec90cbdc6073eb033d8aa47d4232fc07679b9e8ccdee4eccbbcac9cd1ab56e7f3c47282fa284198921eabfec32bd33f1dbfe7a6723e537878b53afe59a6849863b9357d3f15412652500adf73d77bd3c741e38b98852c2ffb4ce6ab5443d98b224fff1bf525fd8f970dab240ff922b8a2507889b769b9751aa2640a8a3ef44bf257f9f4dfa1e260b37aa810180a87d0f0881315f83d59e7503b6483fdc2fffc995d5a32d00511a31268564609f5cc730476e10d78634c19e79cca868b73e1fdae5e5a66be84b0dcfb1b0a118a127d2f2d971a3169b900bdc273aa1dd2f37d47560604966e81532a3cde7406bc0af06946acb05078eccbdca80c77b4fb2302739ec86ecf12c5394340da24b0dd0ed4de61501b8efc23eae500e2f6d6eda834c0c9b141633ac70bd39b9ecd94ca783e3aaea8b68add3c7c174ec762d3635e2f02b1ace38b29fb1dffb696d60098b51e8d0c6c23e53b4d6f72e6d3e4bee10f5a4abdd48ce057c702fad59fd81cab1a0326022b4e5cb3c03e8d7d0c2bb5741546ad8df10e8daffed5a58257673780e0a4871505c252809ef513d541e9176a62759afa16fa697086a5bbd927092ba9f9bf3b735513024bcdc9ef02027023bb47113b17b0fa3b4d7418443562e7700952a23bd65ca28966180c14aeff1b2829a974ed1d11225fc63ca7510b4c588a4ee440998c9eb3e296c35680c0229c47ae634f113fe6162a0291ae6cb492415ab22f779d246d7ed5e715aab871662fe6630db1bc0624189348d1a64e0728886fe2994c71c09e01bd2cdd58c95855e7ed75c8195b8fa12900fcb830a98d13f493e930cd854cfff10dfadd164cecd07c7ffb4dd15333736cc8125dcb20a559b15bc7baab0ac02df515345d9f3dd589367b09b5466a11302ea0cc3ab59b8e75c116c45152d6c5f8454387564d3e656af2bcfec50241bc2ddb0fdb3c373193c9371ebdcb6190de97b23db9db824247b0fb1bef6653af5f5820107f77359edcd2a354bb83b269d99ac3aa71f562a20a73d97353d4980053c602b13448c01d993f74b5501e550d1d29611d8c048d26550024025a024a6fcbf6ea82082d44f5b750e22f67f39d9fdada4be8cd28d0c7a1798a0799ebfdbdb235419c9093c523d8656d730326a6d87754aa384d755cce171adb3074d72f5c5a9339754415ed222860906119c58b94fc8c5921fbb7e3ed303091aa4f37fde06d1c2d4e62f70712e5e2c8583ff5d846974be619d1f578648afeb0a824a09ba27fb2cf9dfe14c9cd674e1b2911eaf76a3f259f4882a9f36697b74bfec84da3cebc5254cefe1b3349092809ed1b0c2379e4c9397f4f48d2dea575fd200690a0d78e55843a196a0c358c732c419935f953a61c8bc81a5c0cad0053413889e534fa4035fbf99b8e4373738f10cffe2ddafd843f044d6c08e2461848dd94990a2b447c2f0afd12ba5ccc957698d1d4a15dd7186526f2149c8ef0c3a262f82ade563204bcad6fbb6588b8ae247eede84dc36c0d9b7cffc88088baadfc1bf440710801db630b0f24c3036b5dd311ab5ed95ca4e4900bb751da259dc6b367e55bbbea08fecaa2bff1b08a1a7dfa231f0994c4f56625aac291e6320a46cd430e9c53f91b97dd46d9b602f901550e08f39282ae9aa6d4b6746cab875cc3cd005395ec2d7b08ae784352dea52ef738219baf06ed2e1c8d81988920c75a1f4282aeed0beb0c7fa3d1abacd821e9dc5802e86e31971345a8000bda1f8702b26b6f3a8ba7c260a0ee8f8a4ee190447dadf9d59ee353bde8c4d7b1250ac54c63235c372c0cec1f7bd806670a2ad6c3e671bcd4f5eafb8e1cfcb42ff635257dc900ddd294213bff2167c7a4fe107cec383ff618c25bd3368b21e7c658fdda35e39deb90ee454e933ce87f609947e795aab2f0eb0c3822da1c0265f04c6cc9de6670c0eaaa949ba6f51095e5620af2d37f91387dc981d736eb58df1d4402d75d9e11a69aadc8d9f2bda0e9a5b4b0754968a4fdb6cc3b4a6ac74ba0b5a132646474edbdaa3f8fca57aafd5464d03029a0be87753798c8215cc04c17fe93241b803cf523bfdad8a4fcafb296863f5d5ad3551e55bf8753c9da58cd22390616faa1347eff6e65fac81946ca2d1e8f4b83bab866af232edbe892102700de5658d92ab40bcbfb32e637556657efef4f16a7e8f716a19861c8eaf53358e262c4d3c26eb347f4a1b35bb7b546eaf48f648e429ccd0738246d64a1f198d6ce33f4569db3355f5ba7e98616f6e1eb744f760b63fc74dc4674a5add0df6cb6786dc583ecf85772414f4233bc2125b7f65478ad57c53190df46cfce983c33da693f761f56a677e9c7d3abbeac07c08e001546219a7554b643e57b75c6152541a5955e7a6c81835908271b9b4e88718f175bbbeaff7992d4fcb7cb0c1607db7ec8bfe1e59af404995e4e81e7016be4922d9fdc7a99ebc0594cb836071a32b17ad382b4571069adc92d98efd80ada421369982c99292d1916fccdb7956bc94268c4da31b3dca03b1f272dc92508c53b95a0a68379001f33d51dbf54ec1f44bc52dedb24f8b2e0f0b3b901ee7c70eb19e88cbb890a0246f493baaabf338640e7c65d9c9659668849270f4cc961ae55997efe9132f73400a12b68d168583a4bf7e805d0b08977af73626cc40648dbade232dc91d4e3621688cf7af9735ce248c2a8467635cafead8472249dd1f29ca6ccd9ac27c79e317400795f64390c81ad4cdd4d0c017364871f85e4ba478e4471ae7184581f99f1f24b1151b3f6f9246ecd19419de51cb9112629307b818c94999a9fb7bfd2f2fa0607161a28505a787d8689c3d3f80d525d7fadafbfe1ec05060c0d101518232d535f626a78909fa3ade2e5000000000000000000000000000000000000000000101e273b01",
        "008c0a3e963f4ec17a7c90bb802f1ff19ad047a50b8096a7ed7e0af82070ef7dc0ad06301d018af58a051c24d1b344a25d9fba8bb67b82e8d3e99488ce3e8524c2fa31e8d187f06ca3fa9823828dab9c420d8cda39e13f870f405768dc72d300e3ad84e79d4a9d20493430359d189a83bb9b27a36b1b8d3a8ad5585d805246a634f7fa6f4a589eebab0f76396bd73e1093ab85111e3ea39308a74a28f1a9a6a725209213e3ba16f40699b8fcb9b9d8ebe43f88626b7dad62304d707732441b43ea9d38770bbcaf8d1a28845e4b90b2dc0ced304e69f540a73cbe04db65a5472fcba416ba81d46db5ff2c0d981f4edd9b9c644b2d664c5d5900602f2a217250477d5e089d986efc437c183639c721307056a5dc74e27fe806519af767b041b79d435b2ff314643f30a135fec97d12ef1138179373b55cccf3849af42e4a798f44d9f7f9cadd9ec909b315f38ae9f56a12dc8e29badd4c50c1e4c9321e11e99d7d1e02d5c8b9e9fe92b34a8fe202dc0390eeb0002addb416f36b24779194dffa6b43dbd5e239c51293ec19b286656ba03ad1c466a4419f535a8f1e645a702a1a320b7eafd6a4e0b8e14d0539be65f515b7bac66f8fbfb508b102e6666a92b464c23c3da649d85463a33849a88cf65de3fc156c783443f18e4ef01a817a5d03f486ff1e6e4385d1e4c4ace47a31eb38d6649c16f025b1d19d98a1b15b699d9dd6026b54a6a57f3d45d782d935d3dfe75b8698851f4889f4efbbb69d35ed4cfc9ef1b82a5b2d86ec5aa7ba4b57257f7aac8c081be3e76ba1a4f4190ca23703ee65e61b2803ddc17c149574f1c12d0bd5749d65fea7d5d8c5aba910bb8412eae50ec24d90451db4a6b10390c6cf2f86f0deed3c5ccddfff83b86bc9114a86ce44716f2d371324e400f1dff1c07d646b77551eaf8961b91be21e9bf8195d69220dc40f605274ebce9cb143242d9ccecd84f4e3ce650133e136006338f72be8f4fcaccc94017cc4eaff21534d558d8f169fd4cf59e46dcf8bf1af82246352ec7ae98a0f7352128ac19c8400ddc191e43f7f226e380edf99089493df9a81b504ff52851834a17ffc3a8043e857c0d8a7955e985454f3bb0a13979d78cd3ba426255a7dfe0666f09c423d5abc6726983857f6aa080db114a8140e85677585677934e18f282a5dee0cbb733a1946aebe0cad24a7dde455d2ac716129a898071b6cfb2b01f0a506636ac40b11f12a331891a77ce37f1840923890a3b3cc7b17a688c6dd8d984a3182fcb93960c27eed3b2d23a9467863468b0d186b7ce9f0ad260b39b72a0c190eb522e5a1a77c4c1ac2f1df4e82f3c15a00724585d51b2afc92121c1912c3cf6415489bd8c961208444f3efb613367a06300e200f1fa8c7f4bd53c844b6c613ac91d3a55c3bcfcaedd5a0d867ea56e02929e615ce5e80a0645fbfe997366fafd28581502d0af8a84edd0ac2f94b2e20ef6bb135cc6150c14d3175764345424834fbc79f4558a89d12a64f000bb65eac2875785b2968672dff12c3201242a97218bad3e5b80aca2ca979560e026b142d96120c8bef40609e28e9ce9a76b35ca0d41c5ffac4c67033c954e8c31f25e7f4c6f2d7cf405f8a6c498bad0569c6fab2e70b87905b9aea1a569b773cab25d4153149a499ab6febca53921a0088eb175561ef0e1556bdb4fde6f6f788a929217cb97308f085326c853727d74e6de46aecb9dbb7a564f8e81eea9d4614a080a7109c05f85998dfea2f60cf42ae1d440e043978d0698eb0b4c0e4c462fa68b9be102fee33ba0d09bc1cf4281c80721a101c34af08a30b3f125c19df3571f63aa8f59cbb73d7d4b9d98fffde572053f26673"
      ],
      "sequence": 4294967294
    }
  ],
  "vout": [
    {
      "value": 499992.8817,
      "n": 0,
      "scriptPubKey": {
        "asm": "1 8d91799dc7cf65bc0c6e473f54c2496a7b5262e84bbd7bf167b949adf766b171",
        "hex": "51208d91799dc7cf65bc0c6e473f54c2496a7b5262e84bbd7bf167b949adf766b171",
        "reqSigs": 1,
        "type": "witness_v1_scripthash",
        "addresses": [
          "3QJmnh"
        ]
      }
    },
    {
      "value": 1.0,
      "n": 1,
      "scriptPubKey": {
        "asm": "OP_RETURN 21e8b63fc36cd7042383132823da5a8bd4cf00a33ae94bcb3d039337e0ea2932 1509d4c58398aa9c0585142d418f8e882f6c591b62d88b79b62d66c90cfb4e673529f4e5a3b88abc25a5340d61afaea80f4c793b42f8ab59960d46e92cdb6e4755499485c3d8eadc45c5546d01cfcec86f2c195b2298cb39f66d26894cbb0e277569b4a5e3f8cafc65e5744d21efeee84f0c397b02b8eb19d64d06a96c9b2e079589544503182a1c850594adc10f0e08afecd99be2580bf936ade6498c7bcee7b5a9746523380a3ca525b48de12f2e288fccf9bbc2782bd9168dc669ac5beec7d5c9140543586a5cc545d4ed814f4e48efac99dba2184bb976eda609cc3b8ea7f5e9342563784a7ce565f4cda16f6e68cf8cb9fb82386b9956cd8629ec1bae871509d4c58398aa9c0585142d418f8e882f6c591b62d88b79b62d66c90cfb4e673529f4e5a3b88abc25a5340d61afaea80f4c793b42f8ab59960d46e92cdb6e4755499485c3d8eadc45c5546d01cfcec86f2c195b2298cb39f66d26894cbb0e277569b4a5e3f8cafc65e5744d21efeee84f0c397b02b8eb19d64d06a96c9b2e079589544503182a1c850594adc10f0e08afecd99be2580bf936ade6498c7bcee7b5a9746523380a3ca525b48de12f2e288fccf9bbc2782bd9168dc669ac5beec7d5c9140543586a5cc545d4ed814f4e48efac99dba2184bb976eda609cc3b8ea7f5e9342563784a7ce565f4cda16f6e68cf8cb9fb82386b9956cd8629ec1bae871509d4c58398aa9c0585142d418f8e882f6c591b62d88b79b62d66c90cfb4e673529f4e5a3b88abc25a5340d61afaea80f4c793b42f8ab59960d46e92cdb6e4755499485c3d8eadc45c5546d01cfcec86f2c195b2298cb39f66d26894cbb0e277569b4a5e3f8cafc65e5744d21efeee84f0c397b02b8eb19d64d06a96c9b2e079589544503182a1c850594adc10f0e08afecd99be2580bf936ade6498c7bcee7b5a9746523380a3ca525b48de12f2e288fccf9bbc2782bd9168dc669ac5beec7d5c9140543586a5cc545d4ed814f4e48efac99dba2184bb976eda609cc3b8ea7f5e9342563784a7ce565f4cda16f6e68cf8cb9fb82386b9956cd8629ec1bae871509d4c58398aa9c0585142d418f8e882f6c591b62d88b79b62d66c90cfb4e673529f4e5a3b88abc25a5340d61afaea80f4c793b42f8ab59960d46e92cdb6e4755499485c3d8eadc45c5546d01cfcec86f2c195b2298cb39f66d26894cbb0e277569b4a5e3f8cafc65e5744d21efeee84f0c397b02b8eb19d64d06a96c9b2e079589544503182a1c850594adc10f0e08afecd99be2580bf936ade6498c7bcee7b5a9746523380a3ca525b48de12f2e288fccf9bbc2782bd9168dc669ac5beec7d5c9140543586a5cc545d4ed814f4e48efac99dba2184bb976eda609cc3b8ea7f5e9342563784a7ce565f4cda16f6e68cf8cb9fb82386b9956cd8629ec1bae871509d4c58398aa9c0585142d418f8e882f6c591b62d88b79b62d66c90cfb4e673529f4e5a3b88abc25a5340d61afaea80f4c793b42f8ab59960d46e92cdb6e4755499485c3d8eadc45c5546d01cfcec86f2c195b2298cb39f66d26894cbb0e277569b4a5e3f8cafc65e5744d21efeee84f0c397b02b8eb19d64d06a96c9b2e079589544503182a1c850594adc10f0e089a71891ff520b8d51ba3d7b648d381ca22fdfad0df38873a764ab58088630f4c",
        "hex": "6a2021e8b63fc36cd7042383132823da5a8bd4cf00a33ae94bcb3d039337e0ea29324db0041509d4c58398aa9c0585142d418f8e882f6c591b62d88b79b62d66c90cfb4e673529f4e5a3b88abc25a5340d61afaea80f4c793b42f8ab59960d46e92cdb6e4755499485c3d8eadc45c5546d01cfcec86f2c195b2298cb39f66d26894cbb0e277569b4a5e3f8cafc65e5744d21efeee84f0c397b02b8eb19d64d06a96c9b2e079589544503182a1c850594adc10f0e08afecd99be2580bf936ade6498c7bcee7b5a9746523380a3ca525b48de12f2e288fccf9bbc2782bd9168dc669ac5beec7d5c9140543586a5cc545d4ed814f4e48efac99dba2184bb976eda609cc3b8ea7f5e9342563784a7ce565f4cda16f6e68cf8cb9fb82386b9956cd8629ec1bae871509d4c58398aa9c0585142d418f8e882f6c591b62d88b79b62d66c90cfb4e673529f4e5a3b88abc25a5340d61afaea80f4c793b42f8ab59960d46e92cdb6e4755499485c3d8eadc45c5546d01cfcec86f2c195b2298cb39f66d26894cbb0e277569b4a5e3f8cafc65e5744d21efeee84f0c397b02b8eb19d64d06a96c9b2e079589544503182a1c850594adc10f0e08afecd99be2580bf936ade6498c7bcee7b5a9746523380a3ca525b48de12f2e288fccf9bbc2782bd9168dc669ac5beec7d5c9140543586a5cc545d4ed814f4e48efac99dba2184bb976eda609cc3b8ea7f5e9342563784a7ce565f4cda16f6e68cf8cb9fb82386b9956cd8629ec1bae871509d4c58398aa9c0585142d418f8e882f6c591b62d88b79b62d66c90cfb4e673529f4e5a3b88abc25a5340d61afaea80f4c793b42f8ab59960d46e92cdb6e4755499485c3d8eadc45c5546d01cfcec86f2c195b2298cb39f66d26894cbb0e277569b4a5e3f8cafc65e5744d21efeee84f0c397b02b8eb19d64d06a96c9b2e079589544503182a1c850594adc10f0e08afecd99be2580bf936ade6498c7bcee7b5a9746523380a3ca525b48de12f2e288fccf9bbc2782bd9168dc669ac5beec7d5c9140543586a5cc545d4ed814f4e48efac99dba2184bb976eda609cc3b8ea7f5e9342563784a7ce565f4cda16f6e68cf8cb9fb82386b9956cd8629ec1bae871509d4c58398aa9c0585142d418f8e882f6c591b62d88b79b62d66c90cfb4e673529f4e5a3b88abc25a5340d61afaea80f4c793b42f8ab59960d46e92cdb6e4755499485c3d8eadc45c5546d01cfcec86f2c195b2298cb39f66d26894cbb0e277569b4a5e3f8cafc65e5744d21efeee84f0c397b02b8eb19d64d06a96c9b2e079589544503182a1c850594adc10f0e08afecd99be2580bf936ade6498c7bcee7b5a9746523380a3ca525b48de12f2e288fccf9bbc2782bd9168dc669ac5beec7d5c9140543586a5cc545d4ed814f4e48efac99dba2184bb976eda609cc3b8ea7f5e9342563784a7ce565f4cda16f6e68cf8cb9fb82386b9956cd8629ec1bae871509d4c58398aa9c0585142d418f8e882f6c591b62d88b79b62d66c90cfb4e673529f4e5a3b88abc25a5340d61afaea80f4c793b42f8ab59960d46e92cdb6e4755499485c3d8eadc45c5546d01cfcec86f2c195b2298cb39f66d26894cbb0e277569b4a5e3f8cafc65e5744d21efeee84f0c397b02b8eb19d64d06a96c9b2e079589544503182a1c850594adc10f0e089a71891ff520b8d51ba3d7b648d381ca22fdfad0df38873a764ab58088630f4c",
        "type": "nulldata"
      }
    }
  ],
  "blockhash": "86d3aa2e412fd1c0ad7fd5d7d84b7ddcf41a8bf652344eaa49dd1e6444ae5dce",
  "confirmations": 1,
  "time": 1764176858,
  "blocktime": 1764176858
}