{
  "hex": "010000000001014ba5bb245f2d359b1bb38f45920c0ae682fc8e9d5a1f86147464d68a981f3a030000000000feffffff02d02296e4782d00002251203060ed12f387dcc805001f8020dccacae6269590bb5b95bc23c3ee78a198b07f00e1f50500000000fdd5046a20e4c5220fd6eca64ef1603849cae14968add79c911a7ead1a45db61e1e842d0914db00486122180343d0b9036f628c7516f0ede6b0a5d2d64f9ab7a6e2a02b79650a00ba63201a0141d2bb016d608e7714f2efe4b2a7d0d44d98b5a4e0a2297b670802bc65261c0747d4bd076b66887112f4e9e2b4a1d6d24b9eb3a2e6a42f7d610e04be67241e0545d6bf0569648a7310f6ebe0b6a3d4d0499cb1a0e4a62d7f630c06b0692a100b4bd8b10b676a847d1ef8e5eeb8addade4792bfaeeaa823716d0208b26b28120949dab3096568867f1cfae7ecbaafd8dc4590bdace8aa21736f000ab46d2e140f4fdcb50f636e80791afce1eabca9deda4396bbaaeeac277569060cb66f2c160d4ddeb70d616c827b18fee3e8beabdcd84194b9a8ecae25776b040eb86122180343d0b9036f628c7516f0ede6b0a5d2d64f9ab7a6e2a02b79650a00ba63201a0141d2bb016d608e7714f2efe4b2a7d0d44d98b5a4e0a2297b670802bc65261c0747d4bd076b66887112f4e9e2b4a1d6d24b9eb3a2e6a42f7d610e04be67241e0545d6bf0569648a7310f6ebe0b6a3d4d0499cb1a0e4a62d7f630c06b0692a100b4bd8b10b676a847d1ef8e5eeb8addade4792bfaeeaa823716d0208b26b28120949dab3096568867f1cfae7ecbaafd8dc4590bdace8aa21736f000ab46d2e140f4fdcb50f636e80791afce1eabca9deda4396bbaaeeac277569060cb66f2c160d4ddeb70d616c827b18fee3e8beabdcd84194b9a8ecae25776b040eb86122180343d0b9036f628c7516f0ede6b0a5d2d64f9ab7a6e2a02b79650a00ba63201a0141d2bb016d608e7714f2efe4b2a7d0d44d98b5a4e0a2297b670802bc65261c0747d4bd076b66887112f4e9e2b4a1d6d24b9eb3a2e6a42f7d610e04be67241e0545d6bf0569648a7310f6ebe0b6a3d4d0499cb1a0e4a62d7f630c06b0692a100b4bd8b10b676a847d1ef8e5eeb8addade4792bfaeeaa823716d0208b26b28120949dab3096568867f1cfae7ecbaafd8dc4590bdace8aa21736f000ab46d2e140f4fdcb50f636e80791afce1eabca9deda4396bbaaeeac277569060cb66f2c160d4ddeb70d616c827b18fee3e8beabdcd84194b9a8ecae25776b040eb86122180343d0b9036f628c7516f0ede6b0a5d2d64f9ab7a6e2a02b79650a00ba63201a0141d2bb016d608e7714f2efe4b2a7d0d44d98b5a4e0a2297b670802bc65261c0747d4bd076b66887112f4e9e2b4a1d6d24b9eb3a2e6a42f7d610e04be67241e0545d6bf0569648a7310f6ebe0b6a3d4d0499cb1a0e4a62d7f630c06b0692a100b4bd8b10b676a847d1ef8e5eeb8addade4792bfaeeaa823716d0208b26b28120949dab3096568867f1cfae7ecbaafd8dc4590bdace8aa21736f000ab46d2e140f4fdcb50f636e80791afce1eabca9deda4396bbaaeeac277569060cb66f2c160d4ddeb70d616c827b18fee3e8beabdcd84194b9a8ecae25776b040eb86122180343d0b9036f628c7516f0ede6b0a5d2d64f9ab7a6e2a02b79650a00ba63201a0141d2bb016d608e7714f2efe4b2a7d0d44d98b5a4e0a2297b670802bc65261c0747d4bd076b66887112f4e9e2b4a1d6d24b9eb3a2e6a42f7d610e04be67241e0545d6bf0569648a7310f6ebe0b6a3d4d0499cb1a0e4a62d7f630c06b0692a100b4bd8b10b676a847d1ef8e5ec714bb590e082636b23a921e7382e04ca023123e9da7919324d7f2047bfae1e902fd750999093dded6de881cd16645b9aa86467c82f8f6cdc9e3ea03351336fef4f90745c0d307ee82daf2747761caa7447ec71e33da4f6a0e9160fa3d0ceae4e895f8127c43ddb72983b837cc006eb240417173a45df961cb675f671b7ae5f18ca82f1207c42acf35e029d8f3fc937dd920f3f8924c8e31c965ca74def3eb24c5ea5a810dd199fe29e03c708bd5a52bb118e3959052dbaff00332ea551853c3a479f5f312d4f55fffab2eac31030cc1642fc9e07b3ffd2f3b38da537b36524d8e06f047fd5e7e907e64174475129cfb2d1c74bb5ba8876dd988b81a6b90dc086bf6922699cbbc75b2448f3affc5f57ebf16bcac8bdca60d6f32f9bc50d64f77734e6fb2766c5ebe6cdb86b5f04fdd527ec461070bb43b0bee777c55fb6b39678a5a5b2bb3a13630c5aaa1e3530aa76620e32311a7f74d041d6b331e3353de6f8bd7de280376fa4e1374f0916d55efb14fcef3123f1f199870fcdfdc0da9bfb815c4d785a8749a6df4df8fcdaeaa908a4f8a87a2cc12f0d68d84e266b43845771bbb0415111fb230e9792906c00a288438c9369bcb140304db86fb394e82471bf51cee34f1be55246db32a775fe675baf1670b7fbbf1dbbaa1382346ef6021aad00525b845819e108fd9cab79940d6eaaec5c8922b50adaa58b624b117c139ee3749597a0aeeb2f91a39cba1b3b482d9671aeaba7160d6b64c152c598fe497da12ab56b104b81b715efc658254a7017dd98891405896af6ddc4cf6b24acb2646a88c8c8f932a69954d8a5622d95985d8bcdcbd36681f9e6249c6ce4b891fcba3bf7a97fc8246627bbe0ca11c9f4dc37a8c48e5f1a8798f4c1521b645a4beded6c2f6418b11a5a1c41706e1909940492bfa03fd85903c2fc5de294ca906d97d8d83305448672bd246691944f1e93ec5b37c1b8c74140401175e33cac5f2c8d1c369e51572327b4438aff6a8b36f0fac5e1e65c759d0b7483e6d7e88fadfc39d6496e175a15b8a5f9c8315da9a6e2a3fd2fb2e167fd940e7282634cbdbe04bceb7bf79db5d2ae4962db57794ca5feab75359263edd436352dd32984188a29508eea0ada016b75ec4c1c2d9fbe8a6c232591ad476e3b82c332d849912dd0140ac179ba07c11433773ceb30844f0a66a97ac343045fb4cc97bb2f01a001189155c04bd400cca1620f9514b61c259c6c2c904678ac3be31ed1f2c6ac3aa59bb689563aba848185d03e8c0856a50fa85827f3b315d07e02b8a02e136d100498e5b40b1f20fefb89621f6634b78a129126b1ec330d9d5b672c7914a46aa831189bd7c16cf79ee3e3b619617f581a5d8e3300d4d57e80be1a34d32a7ebb9b694424cefeac11332092267ba9d9678a8f8b948b864e8be768fd97e1d8e141282404d080c9775b889750d9c5a61faf9863268b9ef48c5aa8ef7b6a5663d73e72f57f54af63869958723c23d080c1244df99d92864448f7c9d4989017dc13d3bf389882d9c17a7dd88a7b60ff8c0b9e25a3dfb1c70f745d741ee5216fa6e72d5e181fd26bd7b4b34e444af4adc703e79e3f97e2a231e8c590327594258196b5de5038ad989a18958d69cf4671b0864a0a6f67dcc924af15d4867602fa452052ea0b80b2875e11755692ae998fd35a9373898d38d339f71eb4eaba7911dc99210c0cbc9c735227355e48b7615c80e64dd532f1ae0bb93115bc17845d987e971ad9ff09397c7e26887d4cc58fe649ab39f5073baba19a743a57984afe1b68f53adc8dcf1c14090f5fe5b43a1ddcc06ecfeb70ab43cb7ee5d882437622d85e956f5898aed971ff61aff09082b42a0d4155b707e766cd36e1c8e8bad0ff579719dc532f3e4346bc30f519dc2ee49ec8fcb0ca8dbae3f49af51a9343a7a86e604d5c77a9bb8ce257b146ae31afbd222618ff787e00e79143f0f57de1beb5ca456380ac3db1962cd3237a7720a518261477754c02f488250244bc0fbc05ba4f043e195a5b69926bcc97b3c877767ef3e0c2aab8e4cb8a7d83b3632fef7128865a072d2c2ac262e9f1f60fcf4e0fa8e316ab389f1e61e00ae36f1cd72d5d3833951cfb71954bda9df997d78b97d3d25ec01f8c8be39698607cad21060091b7148b46f78146982eeb0d5c22c714b3b6bbfce804518e0ff2b4769315eb9348f63609b4368a345a8e16793debdd8455f31da3c8803d6a303b6eea8ff307eb8f8040a8edeba1d4be88da067337db76ce25d1463b8833fed79296a6c9b9dc8547949d20a8bddce83940fe9ea6585885286e459c5e3717eed3e51740c17bc8fe111626bfa7edece69e5c4827495eca66fff7302e4b9ae9fa6a181ad7964f94025d46feff58c08928a36fc58314d9dcb4770d6326eef7ca4fe15d9f3bfdda1653d983d55d49f0a4cbb39d1f5d5d9301914d382f838f6d8e7f21b409b44c8afeac46492e4fe5f2a7752929d6a3972349b3f60f81053db46cb4f5086bfc934072513d4af163d97510dfd6702467249ae05f6468b69005cc060dd0ef054caf6419fca9d8ee762037abb3fafa8635b689927f7b4258d84a2bf81ecffd1804c1244ae018f05be3bad685f665925ddc62d3f873efcbe6b2fb130fa9fa7bc287b01d82a00e9f529c3d6a5fbdafeea1a59f6d21a8f6363918afa9aad48157ada1965d50aff7aff2c9ae87606bfbf2e7302d8701284e5bc5f93ac21a74e727eb05c5c9c0d0306eba87ce9ce94797e1dddbc70e52c47c19b2017a784f499a6773f9ceff06732ec7a6c07c7cd3c1e319973e718d7c1ad90d8ac2c9d2b4f77af4e6666b36eec4fa96d49d4b82cdbf1857c414ddce584d735831a032a560655693b8d2e38fbdef780d4cbd81bcb063d5c661264044039493f0b89c6f0da60b58a9209108ac842e9c589159739ababe07270b0918397107014976c0f9435dce84b9249827774f372e2a9845a29c3b88840efaddf19a04802c015768dd9bde0a7be5a695a57a417a80a8ab996163dda4b5290218fcb001bccafa76584590360ad93ba1b5827916377c1c140b243b420628e3b85c9652f6b6d668da4d8dec80c36021e78dee2b1c713158e244636b0997a6a634b492644706126583f47b63f9f6a7f7625f169305a67854237f60f3e739e78e38d0d4e690a55619f40ccc6e9154d1b1614e9080c7f407d18fef1a190c7a69d1981ac0273fa8f4e21e17cfb64f5d6ec7115d1fc0f064c409a5fa23fd613a2efa6a8633d3f8631385fab04370e75a682dc151b6e3e27f53c14f9e9f5a187db8e33303753edbe3104563dc52bb2b779920223e9e00987d2eff0de4174b87c7cce45c45cb6ccd5800e2c44467d94a8cfd6e3e8ecf40a0d4c6364667679999ea2ced1e5282b3d677684bfcfd2dc253e45474b525b6769819497b4b7caf40000000000000000000000000000000000000000000000000000000d1b253501fd210500b6437d2fbdd808436f3e647cbdeb3a3262279551129932c2427f655d74e6a5569a5bbfddc8f07b188c52fea6dafa54657f8ca6ae97230c9b4e3066c4facde942a8e2141c3a1d528ae0a7d530e9524e82e49296370e66567531a0263077a694587c54886e0a7d1e533685a57509956c16acd5b2352ff62812a80421e8ef20dcc31c51aa835db392ff030eb5cd21fee9af47c34536fe3bbf006bad0e661dce3a4ca582a61e72e84de56ff9a9f3a4c820ffcb4e94f38192f65053a3b34afc3f9374ce7fdd1a8ab8d29f5f7f8ea6ba2357346e81ffedc3a85529be79fe7243c24f3e3e717244a63113251dc5cc7acf9249967490855d1008e6e322fa7a0da84b8455b5c8abf78ace2b8b20c073e929fe79c956815b21ece519a62537f4b9aa3e1e597130e88f45afcde94a49f01514f780c7c21a843ba893d3b8e3e2c3cda5291f37fc47098d4e2cab0b3a6b887766d0870915038dea4b5e9e7432ea6a7fdbcb09eef2bccc8ac02a5692105262067f2ef5d0ba850d59615c196047fc3ecdc5e9fe8d7f2c9e95de9288d7398c1370ec93d40b4f682bdd7bf79324ae783010e5ce18754f0fbbe951a645af43f82f40b1da88e1334b41c029de827759ac8efc5ca9bf50a4d9b38eebf77f4abb9ff463f15fded47e44ae19c3263191e7a02b8b76c5861365bb85a666d7b9fc265945b36525e4633dc66d4a405a808b30ce6385f8e035756f818aba8046a20e05d1bae005490d562252996ae50ba2cb756e2f9f9dd1a43533baf368237cfa6daea9229118471c5856a6d54b61f79da6db4f52cb528deb1e614d4ab7cbdb56de8f412bb8825ea1832aa056364706c2786fa105b22f52b6672eeef652fd5c48c21abf04d1c05e6fd9bf6a22b73b29e8c9fa4c3b2a301e38ebd6217366d89d44e2a7d2f7f8d7fd4dc37e3a814540a3b4ecbece921ebd4806ddee5ea6565e98dbc5c4c4cd89a63faaf037b21e75b40175840b9525334f85f9876b460eaafe342f6456090b1ce9bdf8258ee8fd2e98c7f05477613fbe98eff0bd8653417de8be120b8a1a102aaf1a5786639c722aa8e2e1662c8719d0e0421f8f639c835ea299c377d55d21cc725d4d3f4647ae394783527be7fea7c776a6b7fa39885a4713e198608ea4b941d49445b7216f0ed9dde07cc618f4c6072d81ee43cd96c04e4410f911a9364bf6864f1fcc8006c6163846cbb97657761dd409f82685351f5c8f792148a3c38c63f5a3ee130b9481b847c271c715f4eac3a919b3afa1471d5c233dca8e258da7987b01658afdc68c786f134d41c053c3f12a8cb3dd40cdf29f95590e59149784f425f5a816b2e579beeb0fa7e8cd05d38c8d6541e6171d5cc77fa48d7fa434b1d8a4d4b1dc666f179cb817128d99c4fed2b82f6ed03af870cc9153d3e06adfaa30b098786109ad750787df1c6a1f57c949210adf997473f8e8c050ca6acefcf796b40eab0eae1d97e61d8010ecaefed7cab143cd6ae48b39d987b9d59d598cb3720da2718c4beaace5281132f1d4ece49b86f98bfe830b44827bc253b28b4a86889cbb27f0d3408e4959245322352678c36d694a430b7aae0cf87c6556e8073aa42c9b7b4607b936e94c91ecdfabc1f0ab6c6b8a46a9eb080b32c3c3fb7bf5fd47d21f19458a1c81d26bc00409ee86b281772a8f555884b6ed218d0a86d8cb9987e6409dafe2b826bf306294724b027fdb386883c16efd4b63affbd24095ac9d8d159f754f06a9bd1d12e213d15ad402fe07ac84b4291d6cdbb514cb28d029cd0be45496c1f3cc294ae0f7115c6bf94c1bbc195ec2f16931d4a8c6ff5b8dc7ab99ea4cccf7d9d90a303b926a03e855f6bab29f625e28000000",
  "txid": "c08b84cf7879743cd410b77aeb4efd5ebec3b0ba80d1e4eec2b5ca062fc32e71",
  "hash": "cf0ae00112b0f4489f4c67c6d1b4d2da51b65d28d7537db1a74df285aeea81a3",
  "size": 5085,
  "vsize": 2278,
  "version": 1,
  "locktime": 40,
  "vin": [
    {
      "txid": "033a1f988ad6647414861f5a9d8efc82e60a0c92458fb31b9b352d5f24bba54b",
      "vout": 0,
      "scriptSig": {
        "asm": "",
        "hex": ""
      },
      "txinwitness": [
        "99093dded6de881cd16645b9aa86467c82f8f6cdc9e3ea03351336fef4f90745c0d307ee82daf2747761caa7447ec71e33da4f6a0e9160fa3d0ceae4e895f8127c43ddb72983b837cc006eb240417173a45df961cb675f671b7ae5f18ca82f1207c42acf35e029d8f3fc937dd920f3f8924c8e31c965ca74def3eb24c5ea5a810dd199fe29e03c708bd5a52bb118e3959052dbaff00332ea551853c3a479f5f312d4f55fffab2eac31030cc1642fc9e07b3ffd2f3b38da537b36524d8e06f047fd5e7e907e64174475129cfb2d1c74bb5ba8876dd988b81a6b90dc086bf6922699cbbc75b2448f3affc5f57ebf16bcac8bdca60d6f32f9bc50d64f77734e6fb2766c5ebe6cdb86b5f04fdd527ec461070bb43b0bee777c55fb6b39678a5a5b2bb3a13630c5aaa1e3530aa76620e32311a7f74d041d6b331e3353de6f8bd7de280376fa4e1374f0916d55efb14fcef3123f1f199870fcdfdc0da9bfb815c4d785a8749a6df4df8fcdaeaa908a4f8a87a2cc12f0d68d84e266b43845771bbb0415111fb230e9792906c00a288438c9369bcb140304db86fb394e82471bf51cee34f1be55246db32a775fe675baf1670b7fbbf1dbbaa1382346ef6021aad00525b845819e108fd9cab79940d6eaaec5c8922b50adaa58b624b117c139ee3749597a0aeeb2f91a39cba1b3b482d9671aeaba7160d6b64c152c598fe497da12ab56b104b81b715efc658254a7017dd98891405896af6ddc4cf6b24acb2646a88c8c8f932a69954d8a5622d95985d8bcdcbd36681f9e6249c6ce4b891fcba3bf7a97fc8246627bbe0ca11c9f4dc37a8c48e5f1a8798f4c1521b645a4beded6c2f6418b11a5a1c41706e1909940492bfa03fd85903c2fc5de294ca906d97d8d83305448672bd246691944f1e93ec5b37c1b8c74140401175e33cac5f2c8d1c369e51572327b4438aff6a8b36f0fac5e1e65c759d0b7483e6d7e88fadfc39d6496e175a15b8a5f9c8315da9a6e2a3fd2fb2e167fd940e7282634cbdbe04bceb7bf79db5d2ae4962db57794ca5feab75359263edd436352dd32984188a29508eea0ada016b75ec4c1c2d9fbe8a6c232591ad476e3b82c332d849912dd0140ac179ba07c11433773ceb30844f0a66a97ac343045fb4cc97bb2f01a001189155c04bd400cca1620f9514b61c259c6c2c904678ac3be31ed1f2c6ac3aa59bb689563aba848185d03e8c0856a50fa85827f3b315d07e02b8a02e136d100498e5b40b1f20fefb89621f6634b78a129126b1ec330d9d5b672c7914a46aa831189bd7c16cf79ee3e3b619617f581a5d8e3300d4d57e80be1a34d32a7ebb9b694424cefeac11332092267ba9d9678a8f8b948b864e8be768fd97e1d8e141282404d080c9775b889750d9c5a61faf9863268b9ef48c5aa8ef7b6a5663d73e72f57f54af63869958723c23d080c1244df99d92864448f7c9d4989017dc13d3bf389882d9c17a7dd88a7b60ff8c0b9e25a3dfb1c70f745d741ee5216fa6e72d5e181fd26bd7b4b34e444af4adc703e79e3f97e2a231e8c590327594258196b5de5038ad989a18958d69cf4671b0864a0a6f67dcc924af15d4867602fa452052ea0b80b2875e11755692ae998fd35a9373898d38d339f71eb4eaba7911dc99210c0cbc9c735227355e48b7615c80e64dd532f1ae0bb93115bc17845d987e971ad9ff09397c7e26887d4cc58fe649ab39f5073baba19a743a57984afe1b68f53adc8dcf1c14090f5fe5b43a1ddcc06ecfeb70ab43cb7ee5d882437622d85e956f5898aed971ff61aff09082b42a0d4155b707e766cd36e1c8e8bad0ff579719dc532f3e4346bc30f519dc2ee49ec8fcb0ca8dbae3f49af51a9343a7a86e604d5c77a9bb8ce257b146ae31afbd222618ff787e00e79143f0f57de1beb5ca456380ac3db1962cd3237a7720a518261477754c02f488250244bc0fbc05ba4f043e195a5b69926bcc97b3c877767ef3e0c2aab8e4cb8a7d83b3632fef7128865a072d2c2ac262e9f1f60fcf4e0fa8e316ab389f1e61e00ae36f1cd72d5d3833951cfb71954bda9df997d78b97d3d25ec01f8c8be39698607cad21060091b7148b46f78146982eeb0d5c22c714b3b6bbfce804518e0ff2b4769315eb9348f63609b4368a345a8e16793debdd8455f31da3c8803d6a303b6eea8ff307eb8f8040a8edeba1d4be88da067337db76ce25d1463b8833fed79296a6c9b9dc8547949d20a8bddce83940fe9ea6585885286e459c5e3717eed3e51740c17bc8fe111626bfa7edece69e5c4827495eca66fff7302e4b9ae9fa6a181ad7964f94025d46feff58c08928a36fc58314d9dcb4770d6326eef7ca4fe15d9f3bfdda1653d983d55d49f0a4cbb39d1f5d5d9301914d382f838f6d8e7f21b409b44c8afeac46492e4fe5f2a7752929d6a3972349b3f60f81053db46cb4f5086bfc934072513d4af163d97510dfd6702467249ae05f6468b69005cc060dd0ef054caf6419fca9d8ee762037abb3fafa8635b689927f7b4258d84a2bf81ecffd1804c1244ae018f05be3bad685f665925ddc62d3f873efcbe6b2fb130fa9fa7bc287b01d82a00e9f529c3d6a5fbdafeea1a59f6d21a8f6363918afa9aad48157ada1965d50aff7aff2c9ae87606bfbf2e7302d8701284e5bc5f93ac21a74e727eb05c5c9c0d0306eba87ce9ce94797e1dddbc70e52c47c19b2017a784f499a6773f9ceff06732ec7a6c07c7cd3c1e319973e718d7c1ad90d8ac2c9d2b4f77af4e6666b36eec4fa96d49d4b82cdbf1857c414ddce584d735831a032a560655693b8d2e38fbdef780d4cbd81bcb063d5c661264044039493f0b89c6f0da60b58a9209108ac842e9c589159739ababe07270b0918397107014976c0f9435dce84b9249827774f372e2a9845a29c3b88840efaddf19a04802c015768dd9bde0a7be5a695a57a417a80a8ab996163dda4b5290218fcb001bccafa76584590360ad93ba1b5827916377c1c140b243b420628e3b85c9652f6b6d668da4d8dec80c36021e78dee2b1c713158e244636b0997a6a634b492644706126583f47b63f9f6a7f7625f169305a67854237f60f3e739e78e38d0d4e690a55619f40ccc6e9154d1b1614e9080c7f407d18fef1a190c7a69d1981ac0273fa8f4e21e17cfb64f5d6ec7115d1fc0f064c409a5fa23fd613a2efa6a8633d3f8631385fab04370e75a682dc151b6e3e27f53c14f9e9f5a187db8e33303753edbe3104563dc52bb2b779920223e9e00987d2eff0de4174b87c7cce45c45cb6ccd5800e2c44467d94a8cfd6e3e8ecf40a0d4c6364667679999ea2ced1e5282b3d677684bfcfd2dc253e45474b525b6769819497b4b7caf40000000000000000000000000000000000000000000000000000000d1b253501",
        "00b6437d2fbdd808436f3e647cbdeb3a3262279551129932c2427f655d74e6a5569a5bbfddc8f07b188c52fea6dafa54657f8ca6ae97230c9b4e3066c4facde942a8e2141c3a1d528ae0a7d530e9524e82e49296370e66567531a0263077a694587c54886e0a7d1e533685a57509956c16acd5b2352ff62812a80421e8ef20dcc31c51aa835db392ff030eb5cd21fee9af47c34536fe3bbf006bad0e661dce3a4ca582a61e72e84de56ff9a9f3a4c820ffcb4e94f38192f65053a3b34afc3f9374ce7fdd1a8ab8d29f5f7f8ea6ba2357346e81ffedc3a85529be79fe7243c24f3e3e717244a63113251dc5cc7acf9249967490855d1008e6e322fa7a0da84b8455b5c8abf78ace2b8b20c073e929fe79c956815b21ece519a62537f4b9aa3e1e597130e88f45afcde94a49f01514f780c7c21a843ba893d3b8e3e2c3cda5291f37fc47098d4e2cab0b3a6b887766d0870915038dea4b5e9e7432ea6a7fdbcb09eef2bccc8ac02a5692105262067f2ef5d0ba850d59615c196047fc3ecdc5e9fe8d7f2c9e95de9288d7398c1370ec93d40b4f682bdd7bf79324ae783010e5ce18754f0fbbe951a645af43f82f40b1da88e1334b41c029de827759ac8efc5ca9bf50a4d9b38eebf77f4abb9ff463f15fded47e44ae19c3263191e7a02b8b76c5861365bb85a666d7b9fc265945b36525e4633dc66d4a405a808b30ce6385f8e035756f818aba8046a20e05d1bae005490d562252996ae50ba2cb756e2f9f9dd1a43533baf368237cfa6daea9229118471c5856a6d54b61f79da6db4f52cb528deb1e614d4ab7cbdb56de8f412bb8825ea1832aa056364706c2786fa105b22f52b6672eeef652fd5c48c21abf04d1c05e6fd9bf6a22b73b29e8c9fa4c3b2a301e38ebd6217366d89d44e2a7d2f7f8d7fd4dc37e3a814540a3b4ecbece921ebd4806ddee5ea6565e98dbc5c4c4cd89a63faaf037b21e75b40175840b9525334f85f9876b460eaafe342f6456090b1ce9bdf8258ee8fd2e98c7f05477613fbe98eff0bd8653417de8be120b8a1a102aaf1a5786639c722aa8e2e1662c8719d0e0421f8f639c835ea299c377d55d21cc725d4d3f4647ae394783527be7fea7c776a6b7fa39885a4713e198608ea4b941d49445b7216f0ed9dde07cc618f4c6072d81ee43cd96c04e4410f911a9364bf6864f1fcc8006c6163846cbb97657761dd409f82685351f5c8f792148a3c38c63f5a3ee130b9481b847c271c715f4eac3a919b3afa1471d5c233dca8e258da7987b01658afdc68c786f134d41c053c3f12a8cb3dd40cdf29f95590e59149784f425f5a816b2e579beeb0fa7e8cd05d38c8d6541e6171d5cc77fa48d7fa434b1d8a4d4b1dc666f179cb817128d99c4fed2b82f6ed03af870cc9153d3e06adfaa30b098786109ad750787df1c6a1f57c949210adf997473f8e8c050ca6acefcf796b40eab0eae1d97e61d8010ecaefed7cab143cd6ae48b39d987b9d59d598cb3720da2718c4beaace5281132f1d4ece49b86f98bfe830b44827bc253b28b4a86889cbb27f0d3408e4959245322352678c36d694a430b7aae0cf87c6556e8073aa42c9b7b4607b936e94c91ecdfabc1f0ab6c6b8a46a9eb080b32c3c3fb7bf5fd47d21f19458a1c81d26bc00409ee86b281772a8f555884b6ed218d0a86d8cb9987e6409dafe2b826bf306294724b027fdb386883c16efd4b63affbd24095ac9d8d159f754f06a9bd1d12e213d15ad402fe07ac84b4291d6cdbb514cb28d029cd0be45496c1f3cc294ae0f7115c6bf94c1bbc195ec2f16931d4a8c6ff5b8dc7ab99ea4cccf7d9d90a303b926a03e855f6bab29f625e"
      ],
      "sequence": 4294967294
    }
  ],
  "vout": [
    {
      "value": 499972.5437,
      "n": 0,
      "scriptPubKey": {
        "asm": "1 3060ed12f387dcc805001f8020dccacae6269590bb5b95bc23c3ee78a198b07f",
        "hex": "51203060ed12f387dcc805001f8020dccacae6269590bb5b95bc23c3ee78a198b07f",
        "reqSigs": 1,
        "type": "witness_v1_scripthash",
        "addresses": [
          "3QJmnh"
        ]
      }
    },
    {
      "value": 1.0,
      "n": 1,
      "scriptPubKey": {
        "asm": "OP_RETURN e4c5220fd6eca64ef1603849cae14968add79c911a7ead1a45db61e1e842d091 86122180343d0b9036f628c7516f0ede6b0a5d2d64f9ab7a6e2a02b79650a00ba63201a0141d2bb016d608e7714f2efe4b2a7d0d44d98b5a4e0a2297b670802bc65261c0747d4bd076b66887112f4e9e2b4a1d6d24b9eb3a2e6a42f7d610e04be67241e0545d6bf0569648a7310f6ebe0b6a3d4d0499cb1a0e4a62d7f630c06b0692a100b4bd8b10b676a847d1ef8e5eeb8addade4792bfaeeaa823716d0208b26b28120949dab3096568867f1cfae7ecbaafd8dc4590bdace8aa21736f000ab46d2e140f4fdcb50f636e80791afce1eabca9deda4396bbaaeeac277569060cb66f2c160d4ddeb70d616c827b18fee3e8beabdcd84194b9a8ecae25776b040eb86122180343d0b9036f628c7516f0ede6b0a5d2d64f9ab7a6e2a02b79650a00ba63201a0141d2bb016d608e7714f2efe4b2a7d0d44d98b5a4e0a2297b670802bc65261c0747d4bd076b66887112f4e9e2b4a1d6d24b9eb3a2e6a42f7d610e04be67241e0545d6bf0569648a7310f6ebe0b6a3d4d0499cb1a0e4a62d7f630c06b0692a100b4bd8b10b676a847d1ef8e5eeb8addade4792bfaeeaa823716d0208b26b28120949dab3096568867f1cfae7ecbaafd8dc4590bdace8aa21736f000ab46d2e140f4fdcb50f636e80791afce1eabca9deda4396bbaaeeac277569060cb66f2c160d4ddeb70d616c827b18fee3e8beabdcd84194b9a8ecae25776b040eb86122180343d0b9036f628c7516f0ede6b0a5d2d64f9ab7a6e2a02b79650a00ba63201a0141d2bb016d608e7714f2efe4b2a7d0d44d98b5a4e0a2297b670802bc65261c0747d4bd076b66887112f4e9e2b4a1d6d24b9eb3a2e6a42f7d610e04be67241e0545d6bf0569648a7310f6ebe0b6a3d4d0499cb1a0e4a62d7f630c06b0692a100b4bd8b10b676a847d1ef8e5eeb8addade4792bfaeeaa823716d0208b26b28120949dab3096568867f1cfae7ecbaafd8dc4590bdace8aa21736f000ab46d2e140f4fdcb50f636e80791afce1eabca9deda4396bbaaeeac277569060cb66f2c160d4ddeb70d616c827b18fee3e8beabdcd84194b9a8ecae25776b040eb86122180343d0b9036f628c7516f0ede6b0a5d2d64f9ab7a6e2a02b79650a00ba63201a0141d2bb016d608e7714f2efe4b2a7d0d44d98b5a4e0a2297b670802bc65261c0747d4bd076b66887112f4e9e2b4a1d6d24b9eb3a2e6a42f7d610e04be67241e0545d6bf0569648a7310f6ebe0b6a3d4d0499cb1a0e4a62d7f630c06b0692a100b4bd8b10b676a847d1ef8e5eeb8addade4792bfaeeaa823716d0208b26b28120949dab3096568867f1cfae7ecbaafd8dc4590bdace8aa21736f000ab46d2e140f4fdcb50f636e80791afce1eabca9deda4396bbaaeeac277569060cb66f2c160d4ddeb70d616c827b18fee3e8beabdcd84194b9a8ecae25776b040eb86122180343d0b9036f628c7516f0ede6b0a5d2d64f9ab7a6e2a02b79650a00ba63201a0141d2bb016d608e7714f2efe4b2a7d0d44d98b5a4e0a2297b670802bc65261c0747d4bd076b66887112f4e9e2b4a1d6d24b9eb3a2e6a42f7d610e04be67241e0545d6bf0569648a7310f6ebe0b6a3d4d0499cb1a0e4a62d7f630c06b0692a100b4bd8b10b676a847d1ef8e5ec714bb590e082636b23a921e7382e04ca023123e9da7919324d7f2047bfae1e9",
        "hex": "6a20e4c5220fd6eca64ef1603849cae14968add79c911a7ead1a45db61e1e842d0914db00486122180343d0b9036f628c7516f0ede6b0a5d2d64f9ab7a6e2a02b79650a00ba63201a0141d2bb016d608e7714f2efe4b2a7d0d44d98b5a4e0a2297b670802bc65261c0747d4bd076b66887112f4e9e2b4a1d6d24b9eb3a2e6a42f7d610e04be67241e0545d6bf0569648a7310f6ebe0b6a3d4d0499cb1a0e4a62d7f630c06b0692a100b4bd8b10b676a847d1ef8e5eeb8addade4792bfaeeaa823716d0208b26b28120949dab3096568867f1cfae7ecbaafd8dc4590bdace8aa21736f000ab46d2e140f4fdcb50f636e80791afce1eabca9deda4396bbaaeeac277569060cb66f2c160d4ddeb70d616c827b18fee3e8beabdcd84194b9a8ecae25776b040eb86122180343d0b9036f628c7516f0ede6b0a5d2d64f9ab7a6e2a02b79650a00ba63201a0141d2bb016d608e7714f2efe4b2a7d0d44d98b5a4e0a2297b670802bc65261c0747d4bd076b66887112f4e9e2b4a1d6d24b9eb3a2e6a42f7d610e04be67241e0545d6bf0569648a7310f6ebe0b6a3d4d0499cb1a0e4a62d7f630c06b0692a100b4bd8b10b676a847d1ef8e5eeb8addade4792bfaeeaa823716d0208b26b28120949dab3096568867f1cfae7ecbaafd8dc4590bdace8aa21736f000ab46d2e140f4fdcb50f636e80791afce1eabca9deda4396bbaaeeac277569060cb66f2c160d4ddeb70d616c827b18fee3e8beabdcd84194b9a8ecae25776b040eb86122180343d0b9036f628c7516f0ede6b0a5d2d64f9ab7a6e2a02b79650a00ba63201a0141d2bb016d608e7714f2efe4b2a7d0d44d98b5a4e0a2297b670802bc65261c0747d4bd076b66887112f4e9e2b4a1d6d24b9eb3a2e6a42f7d610e04be67241e0545d6bf0569648a7310f6ebe0b6a3d4d0499cb1a0e4a62d7f630c06b0692a100b4bd8b10b676a847d1ef8e5eeb8addade4792bfaeeaa823716d0208b26b28120949dab3096568867f1cfae7ecbaafd8dc4590bdace8aa21736f000ab46d2e140f4fdcb50f636e80791afce1eabca9deda4396bbaaeeac277569060cb66f2c160d4ddeb70d616c827b18fee3e8beabdcd84194b9a8ecae25776b040eb86122180343d0b9036f628c7516f0ede6b0a5d2d64f9ab7a6e2a02b79650a00ba63201a0141d2bb016d608e7714f2efe4b2a7d0d44d98b5a4e0a2297b670802bc65261c0747d4bd076b66887112f4e9e2b4a1d6d24b9eb3a2e6a42f7d610e04be67241e0545d6bf0569648a7310f6ebe0b6a3d4d0499cb1a0e4a62d7f630c06b0692a100b4bd8b10b676a847d1ef8e5eeb8addade4792bfaeeaa823716d0208b26b28120949dab3096568867f1cfae7ecbaafd8dc4590bdace8aa21736f000ab46d2e140f4fdcb50f636e80791afce1eabca9deda4396bbaaeeac277569060cb66f2c160d4ddeb70d616c827b18fee3e8beabdcd84194b9a8ecae25776b040eb86122180343d0b9036f628c7516f0ede6b0a5d2d64f9ab7a6e2a02b79650a00ba63201a0141d2bb016d608e7714f2efe4b2a7d0d44d98b5a4e0a2297b670802bc65261c0747d4bd076b66887112f4e9e2b4a1d6d24b9eb3a2e6a42f7d610e04be67241e0545d6bf0569648a7310f6ebe0b6a3d4d0499cb1a0e4a62d7f630c06b0692a100b4bd8b10b676a847d1ef8e5ec714bb590e082636b23a921e7382e04ca023123e9da7919324d7f2047bfae1e9",
        "type": "nulldata"
      }
    }
  ],
  "blockhash": "e6a4adf54726245f4c34283d217923918cb1557d6baaa77edf2bc72597605551",
  "confirmations": 1,
  "time": 1764181118,
  "blocktime": 1764181118
}