{
  "hex": "01000000000101b9eaa85ad1950b0443c27a15680220188b555e7fea931cecd5b6b29e7b2a91210000000000feffffff0200e1f50500000000fdd5046a209a3eee1cf7c67a3f026c186bcabaa304a20ae9a307b66d7bbee8b8b624cb59694db00462e964f31e3cba5461c094c0c2cc547b697f3eed22256387b035e57da845810842c944d33e1c9a7441e0b4e0e2ec745b495f1ecd020543a79015c55d8865a12822a924b35e7cfa142180d480828c143b293f7ead626523c7f075a53de805c148028904937e5cda3401a0f4a0a2ac341b091f5e8d424503e7d055851dc825e168e269e4739ebc3ad4e1401440424cd4fbe9ffbe6da2a5e30730b565fd28c50188c249c453be9c1af4c1603460626cf4dbc9df9e4d8285c327109545dd08e521a8a229a433defc7a94a1005400020c94bba9bffe2de2e5a34770f525bd688541c882098413fedc5ab481207420222cb49b899fde0dc2c5836750d5059d48a561e862e964f31e3cba5461c094c0c2cc547b697f3eed22256387b035e57da845810842c944d33e1c9a7441e0b4e0e2ec745b495f1ecd020543a79015c55d8865a12822a924b35e7cfa142180d480828c143b293f7ead626523c7f075a53de805c148028904937e5cda3401a0f4a0a2ac341b091f5e8d424503e7d055851dc825e168e269e4739ebc3ad4e1401440424cd4fbe9ffbe6da2a5e30730b565fd28c50188c249c453be9c1af4c1603460626cf4dbc9df9e4d8285c327109545dd08e521a8a229a433defc7a94a1005400020c94bba9bffe2de2e5a34770f525bd688541c882098413fedc5ab481207420222cb49b899fde0dc2c5836750d5059d48a561e862e964f31e3cba5461c094c0c2cc547b697f3eed22256387b035e57da845810842c944d33e1c9a7441e0b4e0e2ec745b495f1ecd020543a79015c55d8865a12822a924b35e7cfa142180d480828c143b293f7ead626523c7f075a53de805c148028904937e5cda3401a0f4a0a2ac341b091f5e8d424503e7d055851dc825e168e269e4739ebc3ad4e1401440424cd4fbe9ffbe6da2a5e30730b565fd28c50188c249c453be9c1af4c1603460626cf4dbc9df9e4d8285c327109545dd08e521a8a229a433defc7a94a1005400020c94bba9bffe2de2e5a34770f525bd688541c882098413fedc5ab481207420222cb49b899fde0dc2c5836750d5059d48a561e862e964f31e3cba5461c094c0c2cc547b697f3eed22256387b035e57da845810842c944d33e1c9a7441e0b4e0e2ec745b495f1ecd020543a79015c55d8865a12822a924b35e7cfa142180d480828c143b293f7ead626523c7f075a53de805c148028904937e5cda3401a0f4a0a2ac341b091f5e8d424503e7d055851dc825e168e269e4739ebc3ad4e1401440424cd4fbe9ffbe6da2a5e30730b565fd28c50188c249c453be9c1af4c1603460626cf4dbc9df9e4d8285c327109545dd08e521a8a229a433defc7a94a1005400020c94bba9bffe2de2e5a34770f525bd688541c882098413fedc5ab481207420222cb49b899fde0dc2c5836750d5059d48a561e862e964f31e3cba5461c094c0c2cc547b697f3eed22256387b035e57da845810842c944d33e1c9a7441e0b4e0e2ec745b495f1ecd020543a79015c55d8865a12822a924b35e7cfa142180d480828c143b293f7ead626523c7f075a53de805c148028904937e5cda3401a0f4a0a2ac341b091f5e8d424503e7d055851dc825e168e269e4739ebc3ad4e1401440424cd4fb88b16b17e99b7dd244c719913b9a707d370791b6dd2ee3f8f9be28167f0d667a907857cc782d000022512056479c53e73749317c7ddc8e7374408694378c85b1143a6f2920abb66e22bddc02fd75093c2192e589776f65d6623daf50f0d313bbd0492f6e80508165fcbf91a17da12e3376990c0487499bc00d420ea8bca61bc960bcc54e59334831e9a4be0458c95d5a6dd3bbe5cc2bc6930b1d804dca977aed7abb777560db49ba987343bc7021dc1b6e703288dbb3a3a0ed172f5b684e18c79e960b6b08b9082c222d2e27683d20c48ee6d94c3e1cef349ccdb237475915264cee350c310a4464102914f204266aba9d29f7db6c4687cc9d03b48bf7534ec7caa3a339fcf1f945b6636f43c3389340f2826f9dd5a39d6097d3d4a0cd4282067c732d69f6ba81e2f11dd711d1c186d5b14533718a02d3ca856fe11af57f79787807bb4673d369fade6f6ed98a91d5844ce8f790e81c52cf07118314377c22769027ad8828fbed7a88b1841af8011ff15e62f06485f390fbd3a0d57c278410e407769bf37fb2344b0441b638d9e16ff087c8562e735df3fe414d7749ecf93444c33614788a0d108ffd2f9f88176e8f0a6713052bb9beefc8e1221b31b0bd2bf8aa91d3317ac7e0c5b74fd88916f9ed2e098813ef69c35e88288e2b72c156dae5d27bc60b2a5ccc63d3a0c45dc0a5f0a803c62336015ec88e18c2590366af375bc564fdae05e4aadf9607b5438659a43f806ff4a023fbf01d20ddf8ead1e0480c61dfe58e5d7072f1400b028806f41fd0f0544efcc3cefe011b579b9a2607c78fe8684b5e071e904d7def3eb6c53340babc4df813a3f586ead8bd5c5e38abfcad1175636e0334867827ff2a5a198d4150561fea699e08cc77f03101fc32b3d0bb15eddd0eb7dcc038ebbb4441a0d93c955fc38a81a48b4db3065e71f3d258916f40551848f1f78f0b25d4a7c14a87d9e02bece99082dd837a72c218f866309c4d054652279ca2d0945299dcf06fe0ad4022f749d875cad5b1bedc67b4146aa11e7489eb23d9cd45396e6d18fc872647507c59aad0dbb4c770eed0b18d8bad774e3de5a490a229606637608d3193662e5cd2d59bfcd89883985f5c74e35201d6f09f769786c0c7019193a64f197a21d12a8115351826755b0f2c6bd30b45f888f863d0c353345ccf2969229e0bc4366a89d845068b89bca5888828dc0d571d8de679fae07037b7b86ceff4ebbdf3d8e93a2ed8621341e549c11f57ce30a4f0194aa1d8fe35bdeb2f0206ed602cd23f0ae2100988f08366b8d87cbe2fcfac9ff1d91191f11ba847da07639b2c1256fa58488776bb1c8af87ba64aa38a37c7da07dbdb4d580e2e1d91c1794aebf052cc9b86aeb79678099746fd50dd1bcdbe4414dd4c27d5cc697708ef6f04d89da6dbfa3c579378ac7e2f4b7d381afab249908b110c183037d4329663412ab0e85191804fbab9b4b7a01d99eebe27fb285789e6bead19374a6be53af3a5fb93641574f533c57f4ed57a2608e92dd1c84c79512ec44d3254aaba011f203672d9964cc1d7f042a0db7defe2160ffa65e952b7ba12bb89109fee861e662d883ca77e21e36b7535d29985630008a38e6141eaa87131880bb83a6064df77736c976ae23ecd8854c89b38ba30ff1d8b6af3338d760e6c68f54534c1dfa01471a2000dae1b391a86e5ffd571b27ce88cd9ad2c2d4ff37624be03f1bb49a05966368f3fd3b1cdc60346d4fb5e3db9d65b6f0c8fc56acc28a05a43fc56ce15a9866f2331eb3b1f6820812d311c1911dc067ce0436564490f562229cd79f52e201b8b485e1bdd836f7d97a01d6dc0dafb1c8413035cc1f6e1e17f6cf7367ce0e1cbadcb0487d24fe4f64498a2cefe830ecaa4835f42f3fc7efe126549ae1f976a96beebc79f912ea6083e5c9fb3f6703cf838172d44ab362c0c63fee623544412aad425d9cc07ae8c6ea5a79a652b093177a64cf92f54f2c2804bdcdd9cb803d3c23abe0516d43e8d1c4d0c01ae399ccecb688189ceff7fb36a196a8f86d3352004e42b7ee568b7eb88791482b0e04d750d90cfd3d86b7523862674d6f627d812bd9cd0833a7e4128460acfdf07471f1018eb9f0fd3723fb6b2188cfce7270e2f7e28eaca1a87c2bc27d7ad123334cae9b02c86983e2a2a812f9a449b40e07153ee69a0e90db85f6f6a693d4a8501604d3359967512b11e93205ac83b50077e06be30140e8174de136c6d4875c0f45d4a9310a5a9d4bb60b9e49db887f79308058b3a0b1df7f728942427d437505c356c03ec663a3daccd2e19962cd9b3aadf8f163a3b784540f33d44f96f52ead075a8fd8c063aad9495408d99a5364e016bbe0bcd11244981c221ce274328a4c14186d6773e5e274d7d5fc6cc7a73ff1ecd162215d2e2de329314344a33746bc63595f5cd34a721d9459550382935522a83e065f94b38f8947aff6cdcfc587874f029a7f7209b47a8e55826727ccff11d162eab23fe7ad38a2ae8fd5a1b0f26bdd7c89e9245242924bdc84e60502867a79e7db9845e695cc95c49683b7adba9e7bcad1f6238f7ab7dde1e574d40bc6c5cde602682026b82a6fd9130d9f8121249c8ff7b5e5eb9c903cfda2317af683c3618f6c238de44ae7c601132e6819d8416f6a04933e0ba8b578b369362fb73a69687b16e4b3496df9bd7c15076217248ec8140efecc16271d297b904fae52c39ee155f1bea8efc7045d14873ee53f3414b12fb78bb693412b16ec0553f9020273bc4235f4afbd39ff76036d15430ad60cab26b61166f853c29ded57d1dfa5fe6b3bdcd910c67d7412f90bd894a79efab4b20a4476de9360845c1ba613a600b1fe0bc6a9ced059143f4deda5eb25e9452ba29c3304835569147aa1eed5621aa8cb27d6140d9e0a4942462afd505c1cf0b9fa488c7aba3cd1095322ff08f7e6cf6798662539eb4ee011020918643f990cb67475f52a6d74aa9883836b14b76cdac2faa9efe31e4b619534ce7624cad2c50c78595f6788cebba3baa438f8074035dad030e46343778385e43fa2a6987182ee6e3c99409e6b5d110835c97e9bafbaa0d662d2539758cd34d554870a3b860f976176642305bb5f040177249e4346ad4ba70a37f2b47a9306baaee68161584c96c3e79a23e5087eb9bf49b9fe7c7d366ecdd365309a3d854cd3ae953c3ff33537d26438da46db833ffe4bad39d4d4c52e1f9b1052c8307e8d95af276e9dd44043bce40dd5bd2f2e9cfbf19f841ba10efa279f9f2e43c763d2935e92733f2ef82f894bcf79fd7d40c3b22ae9c1c9cd3f68f868d1f379957fcce00672456238f3cd1da0bbf50ac603140ce6f386065bd46b11788bc166295622fe189ce97c47ab93703e763beff3ef4ac3a5b8d115f129c9feb49b6475633c9d0eeef050b212b2d303c4c5f768ea8afb7ba03040712275459647aafb3c9d1ddf6f903292b3347505153556ba6abd0eef4f5f604191d3238406470a8abb2c7c8cce2e3e6f200000000000000000000000000000f1f304201fd21050000cf34c38c984b3af0cfaff6d17de9ad9beaa4b4a52d494c1111c5686a29c485743fedd04d66522afe7aaa0e6ac8c7ecc51a85c39424b5883cafcee478038d82963d6dd0c2adc9b8ed3dfdc62d6887195b11abd84487e87841deeaaca16fe4fd6d9b298346e2b9dd0a47d5858811027ec987f8184a6f0e485d53b2dba754ce0552c98718697cfb89562d40d1cbddb42c90cc6fd13a5d291b6ae8fadf728643daae575c31aca2b1f1b19dfca99d091708eef52dad7149eae44aa07ce621a659b1d787a4a9398ce1c1fd8bb8aa0d051e87de9d68db9ddd0f089d7ce9b0e0131492ac10a037ec4c2931f9dc5700faddad6e0d419907c76ecbd5f67c7ab271b2848efc86f9cbe18b0783623e32dee8e4dbbf0eee2e88a42e323114766c5bd378bf5e3efc1932514657c02d20430fd2cf0321c37237490f2f2ddcd912f7d071a99abc2519d5d84b39eda66267f862618a36e3cc7e47775383143e367849a29317cd4a4b4e599e3db0ab1f5946f8de7d2510b23e64a8d1f31f70ae1a6927ebb329d2872b623d1f0abaf1521c8b284a645d2f14c8b8b227d50b9231346e4b1bd2dd6b08a19dd86f138f99db2a490ab2be2c5bdba6863ad81dd0c0b2c945813e6a7be0ce7a0319aa27d9bd182718bcb9dbd8a2803d5fd74612b2ae1d95e31225844ebd06cd702b5b7f403e08adb733ea7bcf3123a750a78f5b3ca48d15f220b5fb2b9b345d78cb9fe459a320458ed434d9910ef2c66c14a265358fcc947155301149e8e1a82dd440979a14fb32b8ce4dfc9d43046867b6160ea08d51ef7a04fdde7068850beaf931282890257da2dfa1234a4d1790cc1c913cdcd2369c1000a522c769b2a8130427f9405e9ab47aed875c15c1381d7dbdc64a776be1725aed6656be57195294b8f1cf9d9c060025e083b69fda3037d2b49ab9e0f4075c1069c588f502fc72b0c08dcc3e4174a89b0194c6946c3908d89a4f2c158a6ea39b13661b1cdcc1e2e597c4283ea03902854931725293060a48fdede09d1c6cb825fcd96971036b186d43cf6fd8d8486551f1b072262dc73df93dc46a3eb15fee2d3b8eead0fdc217d8859203ccd941979f66965d6ca2273d12c57489db48dc82681df422ee64f800957e0fc6012b3735a0b60b7ca90d096bf66e72431cf0730423712cf75f8aa0522b167d5dc2a1e6c79853338f33a3408ed4f1b9a7d05453f71393f5abe9f70ccd776f5b888ab158e7a215eb11c4df9fe621cd0af70797933b12b8c0defc8094f60d5fdbc83c8c8c61c44e8f4c1e4bd222e782a8599e94c638379ad32aceeda9927b805d5f90036e40bde2f754dca1a71f2744a42c5a5c9593ed1817f102dee134dec1d0616c28337b131823e068e31de025f51ab8e92e22a383fb520bf7a61646bb1dfb7517be407d2e5fc10d14ad0d1fd5f94af13679808e4661795a6aaacea072f8bc75f0b5b77119c0032b6a7f320d80b2ad2ffdfed5f8568197ab5094d673040625097c8b6e7feb06102d3031b33d8e9829bf8a7fdc9a3e01cf2f6d7c2743273041302606ab58b8cf1cc2c8dbe32e0e39bd94ec39b5df073d765a12958450402dc8a642aa24bd6102deeb76cf9ba3c61be536f570f0542cae8a4bf6fb8ae5487a69a2c2571643221f11dc85ad78ce99b94cfac87f27803ce935a853e9c8089118997f1fd289bc9935f7ec658a386da40140b6c1e9d851447787cbe746ef48ab34f6d261e94142dc9982dc96873c58b0a9de0730c703212714a924ff59bf3e2873ca62a941d12769598fdebc14b3cba55f312ecbc25c40f523b541c4c979962ae3e841eedc1f6284534305a3f18eb4a23b5fd47c5eeed4e6956b2f895f0f81000000",
  "txid": "c09d5ac13e68cdb337c8ea8aa23f8064381832462d8980116a29f0a8ff6ffa53",
  "hash": "c5383b9e9ec1d9924ba07ae95c1d7e79103543cd41efe7eec42c301a5d15d7ba",
  "size": 5085,
  "vsize": 2278,
  "version": 1,
  "locktime": 129,
  "vin": [
    {
      "txid": "21912a7b9eb2b6d5ec1c93ea7f5e558b18200268157ac243040b95d15aa8eab9",
      "vout": 0,
      "scriptSig": {
        "asm": "",
        "hex": ""
      },
      "txinwitness": [
        "3c2192e589776f65d6623daf50f0d313bbd0492f6e80508165fcbf91a17da12e3376990c0487499bc00d420ea8bca61bc960bcc54e59334831e9a4be0458c95d5a6dd3bbe5cc2bc6930b1d804dca977aed7abb777560db49ba987343bc7021dc1b6e703288dbb3a3a0ed172f5b684e18c79e960b6b08b9082c222d2e27683d20c48ee6d94c3e1cef349ccdb237475915264cee350c310a4464102914f204266aba9d29f7db6c4687cc9d03b48bf7534ec7caa3a339fcf1f945b6636f43c3389340f2826f9dd5a39d6097d3d4a0cd4282067c732d69f6ba81e2f11dd711d1c186d5b14533718a02d3ca856fe11af57f79787807bb4673d369fade6f6ed98a91d5844ce8f790e81c52cf07118314377c22769027ad8828fbed7a88b1841af8011ff15e62f06485f390fbd3a0d57c278410e407769bf37fb2344b0441b638d9e16ff087c8562e735df3fe414d7749ecf93444c33614788a0d108ffd2f9f88176e8f0a6713052bb9beefc8e1221b31b0bd2bf8aa91d3317ac7e0c5b74fd88916f9ed2e098813ef69c35e88288e2b72c156dae5d27bc60b2a5ccc63d3a0c45dc0a5f0a803c62336015ec88e18c2590366af375bc564fdae05e4aadf9607b5438659a43f806ff4a023fbf01d20ddf8ead1e0480c61dfe58e5d7072f1400b028806f41fd0f0544efcc3cefe011b579b9a2607c78fe8684b5e071e904d7def3eb6c53340babc4df813a3f586ead8bd5c5e38abfcad1175636e0334867827ff2a5a198d4150561fea699e08cc77f03101fc32b3d0bb15eddd0eb7dcc038ebbb4441a0d93c955fc38a81a48b4db3065e71f3d258916f40551848f1f78f0b25d4a7c14a87d9e02bece99082dd837a72c218f866309c4d054652279ca2d0945299dcf06fe0ad4022f749d875cad5b1bedc67b4146aa11e7489eb23d9cd45396e6d18fc872647507c59aad0dbb4c770eed0b18d8bad774e3de5a490a229606637608d3193662e5cd2d59bfcd89883985f5c74e35201d6f09f769786c0c7019193a64f197a21d12a8115351826755b0f2c6bd30b45f888f863d0c353345ccf2969229e0bc4366a89d845068b89bca5888828dc0d571d8de679fae07037b7b86ceff4ebbdf3d8e93a2ed8621341e549c11f57ce30a4f0194aa1d8fe35bdeb2f0206ed602cd23f0ae2100988f08366b8d87cbe2fcfac9ff1d91191f11ba847da07639b2c1256fa58488776bb1c8af87ba64aa38a37c7da07dbdb4d580e2e1d91c1794aebf052cc9b86aeb79678099746fd50dd1bcdbe4414dd4c27d5cc697708ef6f04d89da6dbfa3c579378ac7e2f4b7d381afab249908b110c183037d4329663412ab0e85191804fbab9b4b7a01d99eebe27fb285789e6bead19374a6be53af3a5fb93641574f533c57f4ed57a2608e92dd1c84c79512ec44d3254aaba011f203672d9964cc1d7f042a0db7defe2160ffa65e952b7ba12bb89109fee861e662d883ca77e21e36b7535d29985630008a38e6141eaa87131880bb83a6064df77736c976ae23ecd8854c89b38ba30ff1d8b6af3338d760e6c68f54534c1dfa01471a2000dae1b391a86e5ffd571b27ce88cd9ad2c2d4ff37624be03f1bb49a05966368f3fd3b1cdc60346d4fb5e3db9d65b6f0c8fc56acc28a05a43fc56ce15a9866f2331eb3b1f6820812d311c1911dc067ce0436564490f562229cd79f52e201b8b485e1bdd836f7d97a01d6dc0dafb1c8413035cc1f6e1e17f6cf7367ce0e1cbadcb0487d24fe4f64498a2cefe830ecaa4835f42f3fc7efe126549ae1f976a96beebc79f912ea6083e5c9fb3f6703cf838172d44ab362c0c63fee623544412aad425d9cc07ae8c6ea5a79a652b093177a64cf92f54f2c2804bdcdd9cb803d3c23abe0516d43e8d1c4d0c01ae399ccecb688189ceff7fb36a196a8f86d3352004e42b7ee568b7eb88791482b0e04d750d90cfd3d86b7523862674d6f627d812bd9cd0833a7e4128460acfdf07471f1018eb9f0fd3723fb6b2188cfce7270e2f7e28eaca1a87c2bc27d7ad123334cae9b02c86983e2a2a812f9a449b40e07153ee69a0e90db85f6f6a693d4a8501604d3359967512b11e93205ac83b50077e06be30140e8174de136c6d4875c0f45d4a9310a5a9d4bb60b9e49db887f79308058b3a0b1df7f728942427d437505c356c03ec663a3daccd2e19962cd9b3aadf8f163a3b784540f33d44f96f52ead075a8fd8c063aad9495408d99a5364e016bbe0bcd11244981c221ce274328a4c14186d6773e5e274d7d5fc6cc7a73ff1ecd162215d2e2de329314344a33746bc63595f5cd34a721d9459550382935522a83e065f94b38f8947aff6cdcfc587874f029a7f7209b47a8e55826727ccff11d162eab23fe7ad38a2ae8fd5a1b0f26bdd7c89e9245242924bdc84e60502867a79e7db9845e695cc95c49683b7adba9e7bcad1f6238f7ab7dde1e574d40bc6c5cde602682026b82a6fd9130d9f8121249c8ff7b5e5eb9c903cfda2317af683c3618f6c238de44ae7c601132e6819d8416f6a04933e0ba8b578b369362fb73a69687b16e4b3496df9bd7c15076217248ec8140efecc16271d297b904fae52c39ee155f1bea8efc7045d14873ee53f3414b12fb78bb693412b16ec0553f9020273bc4235f4afbd39ff76036d15430ad60cab26b61166f853c29ded57d1dfa5fe6b3bdcd910c67d7412f90bd894a79efab4b20a4476de9360845c1ba613a600b1fe0bc6a9ced059143f4deda5eb25e9452ba29c3304835569147aa1eed5621aa8cb27d6140d9e0a4942462afd505c1cf0b9fa488c7aba3cd1095322ff08f7e6cf6798662539eb4ee011020918643f990cb67475f52a6d74aa9883836b14b76cdac2faa9efe31e4b619534ce7624cad2c50c78595f6788cebba3baa438f8074035dad030e46343778385e43fa2a6987182ee6e3c99409e6b5d110835c97e9bafbaa0d662d2539758cd34d554870a3b860f976176642305bb5f040177249e4346ad4ba70a37f2b47a9306baaee68161584c96c3e79a23e5087eb9bf49b9fe7c7d366ecdd365309a3d854cd3ae953c3ff33537d26438da46db833ffe4bad39d4d4c52e1f9b1052c8307e8d95af276e9dd44043bce40dd5bd2f2e9cfbf19f841ba10efa279f9f2e43c763d2935e92733f2ef82f894bcf79fd7d40c3b22ae9c1c9cd3f68f868d1f379957fcce00672456238f3cd1da0bbf50ac603140ce6f386065bd46b11788bc166295622fe189ce97c47ab93703e763beff3ef4ac3a5b8d115f129c9feb49b6475633c9d0eeef050b212b2d303c4c5f768ea8afb7ba03040712275459647aafb3c9d1ddf6f903292b3347505153556ba6abd0eef4f5f604191d3238406470a8abb2c7c8cce2e3e6f200000000000000000000000000000f1f304201",
        "0000cf34c38c984b3af0cfaff6d17de9ad9beaa4b4a52d494c1111c5686a29c485743fedd04d66522afe7aaa0e6ac8c7ecc51a85c39424b5883cafcee478038d82963d6dd0c2adc9b8ed3dfdc62d6887195b11abd84487e87841deeaaca16fe4fd6d9b298346e2b9dd0a47d5858811027ec987f8184a6f0e485d53b2dba754ce0552c98718697cfb89562d40d1cbddb42c90cc6fd13a5d291b6ae8fadf728643daae575c31aca2b1f1b19dfca99d091708eef52dad7149eae44aa07ce621a659b1d787a4a9398ce1c1fd8bb8aa0d051e87de9d68db9ddd0f089d7ce9b0e0131492ac10a037ec4c2931f9dc5700faddad6e0d419907c76ecbd5f67c7ab271b2848efc86f9cbe18b0783623e32dee8e4dbbf0eee2e88a42e323114766c5bd378bf5e3efc1932514657c02d20430fd2cf0321c37237490f2f2ddcd912f7d071a99abc2519d5d84b39eda66267f862618a36e3cc7e47775383143e367849a29317cd4a4b4e599e3db0ab1f5946f8de7d2510b23e64a8d1f31f70ae1a6927ebb329d2872b623d1f0abaf1521c8b284a645d2f14c8b8b227d50b9231346e4b1bd2dd6b08a19dd86f138f99db2a490ab2be2c5bdba6863ad81dd0c0b2c945813e6a7be0ce7a0319aa27d9bd182718bcb9dbd8a2803d5fd74612b2ae1d95e31225844ebd06cd702b5b7f403e08adb733ea7bcf3123a750a78f5b3ca48d15f220b5fb2b9b345d78cb9fe459a320458ed434d9910ef2c66c14a265358fcc947155301149e8e1a82dd440979a14fb32b8ce4dfc9d43046867b6160ea08d51ef7a04fdde7068850beaf931282890257da2dfa1234a4d1790cc1c913cdcd2369c1000a522c769b2a8130427f9405e9ab47aed875c15c1381d7dbdc64a776be1725aed6656be57195294b8f1cf9d9c060025e083b69fda3037d2b49ab9e0f4075c1069c588f502fc72b0c08dcc3e4174a89b0194c6946c3908d89a4f2c158a6ea39b13661b1cdcc1e2e597c4283ea03902854931725293060a48fdede09d1c6cb825fcd96971036b186d43cf6fd8d8486551f1b072262dc73df93dc46a3eb15fee2d3b8eead0fdc217d8859203ccd941979f66965d6ca2273d12c57489db48dc82681df422ee64f800957e0fc6012b3735a0b60b7ca90d096bf66e72431cf0730423712cf75f8aa0522b167d5dc2a1e6c79853338f33a3408ed4f1b9a7d05453f71393f5abe9f70ccd776f5b888ab158e7a215eb11c4df9fe621cd0af70797933b12b8c0defc8094f60d5fdbc83c8c8c61c44e8f4c1e4bd222e782a8599e94c638379ad32aceeda9927b805d5f90036e40bde2f754dca1a71f2744a42c5a5c9593ed1817f102dee134dec1d0616c28337b131823e068e31de025f51ab8e92e22a383fb520bf7a61646bb1dfb7517be407d2e5fc10d14ad0d1fd5f94af13679808e4661795a6aaacea072f8bc75f0b5b77119c0032b6a7f320d80b2ad2ffdfed5f8568197ab5094d673040625097c8b6e7feb06102d3031b33d8e9829bf8a7fdc9a3e01cf2f6d7c2743273041302606ab58b8cf1cc2c8dbe32e0e39bd94ec39b5df073d765a12958450402dc8a642aa24bd6102deeb76cf9ba3c61be536f570f0542cae8a4bf6fb8ae5487a69a2c2571643221f11dc85ad78ce99b94cfac87f27803ce935a853e9c8089118997f1fd289bc9935f7ec658a386da40140b6c1e9d851447787cbe746ef48ab34f6d261e94142dc9982dc96873c58b0a9de0730c703212714a924ff59bf3e2873ca62a941d12769598fdebc14b3cba55f312ecbc25c40f523b541c4c979962ae3e841eedc1f6284534305a3f18eb4a23b5fd47c5eeed4e6956b2f895f0f"
      ],
      "sequence": 4294967294
    }
  ],
  "vout": [
    {
      "value": 1.0,
      "n": 0,
      "scriptPubKey": {
        "asm": "OP_RETURN 9a3eee1cf7c67a3f026c186bcabaa304a20ae9a307b66d7bbee8b8b624cb5969 62e964f31e3cba5461c094c0c2cc547b697f3eed22256387b035e57da845810842c944d33e1c9a7441e0b4e0e2ec745b495f1ecd020543a79015c55d8865a12822a924b35e7cfa142180d480828c143b293f7ead626523c7f075a53de805c148028904937e5cda3401a0f4a0a2ac341b091f5e8d424503e7d055851dc825e168e269e4739ebc3ad4e1401440424cd4fbe9ffbe6da2a5e30730b565fd28c50188c249c453be9c1af4c1603460626cf4dbc9df9e4d8285c327109545dd08e521a8a229a433defc7a94a1005400020c94bba9bffe2de2e5a34770f525bd688541c882098413fedc5ab481207420222cb49b899fde0dc2c5836750d5059d48a561e862e964f31e3cba5461c094c0c2cc547b697f3eed22256387b035e57da845810842c944d33e1c9a7441e0b4e0e2ec745b495f1ecd020543a79015c55d8865a12822a924b35e7cfa142180d480828c143b293f7ead626523c7f075a53de805c148028904937e5cda3401a0f4a0a2ac341b091f5e8d424503e7d055851dc825e168e269e4739ebc3ad4e1401440424cd4fbe9ffbe6da2a5e30730b565fd28c50188c249c453be9c1af4c1603460626cf4dbc9df9e4d8285c327109545dd08e521a8a229a433defc7a94a1005400020c94bba9bffe2de2e5a34770f525bd688541c882098413fedc5ab481207420222cb49b899fde0dc2c5836750d5059d48a561e862e964f31e3cba5461c094c0c2cc547b697f3eed22256387b035e57da845810842c944d33e1c9a7441e0b4e0e2ec745b495f1ecd020543a79015c55d8865a12822a924b35e7cfa142180d480828c143b293f7ead626523c7f075a53de805c148028904937e5cda3401a0f4a0a2ac341b091f5e8d424503e7d055851dc825e168e269e4739ebc3ad4e1401440424cd4fbe9ffbe6da2a5e30730b565fd28c50188c249c453be9c1af4c1603460626cf4dbc9df9e4d8285c327109545dd08e521a8a229a433defc7a94a1005400020c94bba9bffe2de2e5a34770f525bd688541c882098413fedc5ab481207420222cb49b899fde0dc2c5836750d5059d48a561e862e964f31e3cba5461c094c0c2cc547b697f3eed22256387b035e57da845810842c944d33e1c9a7441e0b4e0e2ec745b495f1ecd020543a79015c55d8865a12822a924b35e7cfa142180d480828c143b293f7ead626523c7f075a53de805c148028904937e5cda3401a0f4a0a2ac341b091f5e8d424503e7d055851dc825e168e269e4739ebc3ad4e1401440424cd4fbe9ffbe6da2a5e30730b565fd28c50188c249c453be9c1af4c1603460626cf4dbc9df9e4d8285c327109545dd08e521a8a229a433defc7a94a1005400020c94bba9bffe2de2e5a34770f525bd688541c882098413fedc5ab481207420222cb49b899fde0dc2c5836750d5059d48a561e862e964f31e3cba5461c094c0c2cc547b697f3eed22256387b035e57da845810842c944d33e1c9a7441e0b4e0e2ec745b495f1ecd020543a79015c55d8865a12822a924b35e7cfa142180d480828c143b293f7ead626523c7f075a53de805c148028904937e5cda3401a0f4a0a2ac341b091f5e8d424503e7d055851dc825e168e269e4739ebc3ad4e1401440424cd4fb88b16b17e99b7dd244c719913b9a707d370791b6dd2ee3f8f9be28167f0d667a",
        "hex": "6a209a3eee1cf7c67a3f026c186bcabaa304a20ae9a307b66d7bbee8b8b624cb59694db00462e964f31e3cba5461c094c0c2cc547b697f3eed22256387b035e57da845810842c944d33e1c9a7441e0b4e0e2ec745b495f1ecd020543a79015c55d8865a12822a924b35e7cfa142180d480828c143b293f7ead626523c7f075a53de805c148028904937e5cda3401a0f4a0a2ac341b091f5e8d424503e7d055851dc825e168e269e4739ebc3ad4e1401440424cd4fbe9ffbe6da2a5e30730b565fd28c50188c249c453be9c1af4c1603460626cf4dbc9df9e4d8285c327109545dd08e521a8a229a433defc7a94a1005400020c94bba9bffe2de2e5a34770f525bd688541c882098413fedc5ab481207420222cb49b899fde0dc2c5836750d5059d48a561e862e964f31e3cba5461c094c0c2cc547b697f3eed22256387b035e57da845810842c944d33e1c9a7441e0b4e0e2ec745b495f1ecd020543a79015c55d8865a12822a924b35e7cfa142180d480828c143b293f7ead626523c7f075a53de805c148028904937e5cda3401a0f4a0a2ac341b091f5e8d424503e7d055851dc825e168e269e4739ebc3ad4e1401440424cd4fbe9ffbe6da2a5e30730b565fd28c50188c249c453be9c1af4c1603460626cf4dbc9df9e4d8285c327109545dd08e521a8a229a433defc7a94a1005400020c94bba9bffe2de2e5a34770f525bd688541c882098413fedc5ab481207420222cb49b899fde0dc2c5836750d5059d48a561e862e964f31e3cba5461c094c0c2cc547b697f3eed22256387b035e57da845810842c944d33e1c9a7441e0b4e0e2ec745b495f1ecd020543a79015c55d8865a12822a924b35e7cfa142180d480828c143b293f7ead626523c7f075a53de805c148028904937e5cda3401a0f4a0a2ac341b091f5e8d424503e7d055851dc825e168e269e4739ebc3ad4e1401440424cd4fbe9ffbe6da2a5e30730b565fd28c50188c249c453be9c1af4c1603460626cf4dbc9df9e4d8285c327109545dd08e521a8a229a433defc7a94a1005400020c94bba9bffe2de2e5a34770f525bd688541c882098413fedc5ab481207420222cb49b899fde0dc2c5836750d5059d48a561e862e964f31e3cba5461c094c0c2cc547b697f3eed22256387b035e57da845810842c944d33e1c9a7441e0b4e0e2ec745b495f1ecd020543a79015c55d8865a12822a924b35e7cfa142180d480828c143b293f7ead626523c7f075a53de805c148028904937e5cda3401a0f4a0a2ac341b091f5e8d424503e7d055851dc825e168e269e4739ebc3ad4e1401440424cd4fbe9ffbe6da2a5e30730b565fd28c50188c249c453be9c1af4c1603460626cf4dbc9df9e4d8285c327109545dd08e521a8a229a433defc7a94a1005400020c94bba9bffe2de2e5a34770f525bd688541c882098413fedc5ab481207420222cb49b899fde0dc2c5836750d5059d48a561e862e964f31e3cba5461c094c0c2cc547b697f3eed22256387b035e57da845810842c944d33e1c9a7441e0b4e0e2ec745b495f1ecd020543a79015c55d8865a12822a924b35e7cfa142180d480828c143b293f7ead626523c7f075a53de805c148028904937e5cda3401a0f4a0a2ac341b091f5e8d424503e7d055851dc825e168e269e4739ebc3ad4e1401440424cd4fb88b16b17e99b7dd244c719913b9a707d370791b6dd2ee3f8f9be28167f0d667a",
        "type": "nulldata"
      }
    },
    {
      "value": 499968.4761,
      "n": 1,
      "scriptPubKey": {
        "asm": "1 56479c53e73749317c7ddc8e7374408694378c85b1143a6f2920abb66e22bddc",
        "hex": "512056479c53e73749317c7ddc8e7374408694378c85b1143a6f2920abb66e22bddc",
        "reqSigs": 1,
        "type": "witness_v1_scripthash",
        "addresses": [
          "3QJmnh"
        ]
      }
    }
  ],
  "blockhash": "e950f66e7d48487e03ac7a1b4e7864aa28758accf0e3d98358cdf64a352531e0",
  "confirmations": 1,
  "time": 1764181937,
  "blocktime": 1764181937
}