{
  "hex": "010000000001010a2f3f35667f026facaf3bb76e3829f7c5c6fd5ebe9f036a3153a6a054f87bf40100000000feffffff02a020df63792d00002251205109de226348001c2a48ae8914cfcbaeaa81b70ab1a278c53101fd551f132c6c00e1f50500000000fdd5046a20850bc7db77d94409792029d6802ba54408ee33355dc456089972c54cca0008344db0048badfdb4e1c8047d373feac41c46473b37497e990eaadcf5677b557a70f6e3f2ab8ddd94c1e8245d171fcae43c66671b17695eb92e8afcd5475b755a50d6c3d2cbedbdf4a188443d777faa845c06077b77093ed94eea9cb5273b153a30b6a3b2ebcd9dd481a8641d575f8aa47c26275b57291ef96ecabc95071b351a109683920b2d7d34614884fdb7bf6a449cc6c7bbb7c9fe198e2a5c75e7fbd5faf07663722b0d5d144168a4dd979f4a64bce6e79b97e9de39ae0a7c55c7dbf5dad05643524b6d3d742108c4bdf7ff2a04dc8687fbf789be59ce6a1c35a7bb95bab03623326b4d1d540128e49dd7df0a24fca6a7dbd7a99e79ee4a3c15879bb59a901603128badfdb4e1c8047d373feac41c46473b37497e990eaadcf5677b557a70f6e3f2ab8ddd94c1e8245d171fcae43c66671b17695eb92e8afcd5475b755a50d6c3d2cbedbdf4a188443d777faa845c06077b77093ed94eea9cb5273b153a30b6a3b2ebcd9dd481a8641d575f8aa47c26275b57291ef96ecabc95071b351a109683920b2d7d34614884fdb7bf6a449cc6c7bbb7c9fe198e2a5c75e7fbd5faf07663722b0d5d144168a4dd979f4a64bce6e79b97e9de39ae0a7c55c7dbf5dad05643524b6d3d742108c4bdf7ff2a04dc8687fbf789be59ce6a1c35a7bb95bab03623326b4d1d540128e49dd7df0a24fca6a7dbd7a99e79ee4a3c15879bb59a901603128badfdb4e1c8047d373feac41c46473b37497e990eaadcf5677b557a70f6e3f2ab8ddd94c1e8245d171fcae43c66671b17695eb92e8afcd5475b755a50d6c3d2cbedbdf4a188443d777faa845c06077b77093ed94eea9cb5273b153a30b6a3b2ebcd9dd481a8641d575f8aa47c26275b57291ef96ecabc95071b351a109683920b2d7d34614884fdb7bf6a449cc6c7bbb7c9fe198e2a5c75e7fbd5faf07663722b0d5d144168a4dd979f4a64bce6e79b97e9de39ae0a7c55c7dbf5dad05643524b6d3d742108c4bdf7ff2a04dc8687fbf789be59ce6a1c35a7bb95bab03623326b4d1d540128e49dd7df0a24fca6a7dbd7a99e79ee4a3c15879bb59a901603128badfdb4e1c8047d373feac41c46473b37497e990eaadcf5677b557a70f6e3f2ab8ddd94c1e8245d171fcae43c66671b17695eb92e8afcd5475b755a50d6c3d2cbedbdf4a188443d777faa845c06077b77093ed94eea9cb5273b153a30b6a3b2ebcd9dd481a8641d575f8aa47c26275b57291ef96ecabc95071b351a109683920b2d7d34614884fdb7bf6a449cc6c7bbb7c9fe198e2a5c75e7fbd5faf07663722b0d5d144168a4dd979f4a64bce6e79b97e9de39ae0a7c55c7dbf5dad05643524b6d3d742108c4bdf7ff2a04dc8687fbf789be59ce6a1c35a7bb95bab03623326b4d1d540128e49dd7df0a24fca6a7dbd7a99e79ee4a3c15879bb59a901603128badfdb4e1c8047d373feac41c46473b37497e990eaadcf5677b557a70f6e3f2ab8ddd94c1e8245d171fcae43c66671b17695eb92e8afcd5475b755a50d6c3d2cbedbdf4a188443d777faa845c06077b77093ed94eea9cb5273b153a30b6a3b2ebcd9dd481a8641d575f8aa47c26275b57291ef96ecabc95071b351a109683920b2d7d34614884fdb7bf6a449cc6c7bbd70d6ba27a2a9ce0f325185dffddcb4c3aea18f06a86a14d6aeced85090a504c02fd7509604bd7f6e7a60baad1628006e2aa9d1e0f8ab3b42dba92c20cd587a4219ad800176cc6d45eaf6610f180a775e9996788ab7f88dd05981627e30c43abc158d654fc91bd73042c6e5999784931c290cf7b6b01645950486b613d105dc837ae8da300df5c8a94127820e06b599928468783911aaa0d5f1c77dd20ecc7f952ad625d0e588f02b954e8d1cd87172ad124456063e37f2db7b1907d8c22d2421f2f1b01b988ee27e132751c2316ffd1faac706fa746ba96a77e2566863d2247ee5919165532a696d8cff4544b606a692ead3e90659a924defd60cb1dec2949d6d3955e4097f7f9a18ccfd3db2bb140b98517e213d1ae4612d6438cf20891c4bf72afb6a65a97298fc62d27e3edeadace5119e44ba2027b4293490e8e7f93074d5000a459308befb85063fea39ef39fe824e22397fdc328d2fd3b7cea12c5cf79704de0b2d33da5b19571159c1772da1bca7c61c06030a19b80c764aa4a6685fcfb4185f1c6d229ed050b911c6b81586e38ac7281f9c786627e5c4be7018f2165e1ed3a63a13adea35aab981142aaa57d6324ba5d03bb4d679dd2ca0461b84e5fd117b934ee0dbafab6b7ccd8d0e6eba1b27379f0931c28e925124960b9762e63a5c875f3d821e310cb3586190132346fc385ae9b01294a62ca16625a5eb55be1267797683d4f0ebd7895a60b643c36faf600223d826e836eb802657899a12a0950c17cfdb3b1a6f7fc9e7213199161f95deb58d8f55b0d8f5729f1a736aa564a7ec53091b1da022a714a25381a29b4627f6b3afa92b1b042cfba0b8faf3669cf033fd84fc1cff25b5f532570c6419e5aed610cde7e2105e7ed26e039741c6c1504ef31581391ea9f618a04d74a82f624cb2bd97cab3827e89f536899b1c2d402171012eb35ad591a8570c383a622f02c23e89b95dfdc04edb16117aae8bb1c1847afadfad15d8353fc80c743143cac0784978528278a1f91a504a71fc88c8e9bdc5ecf5c7e045cf925d5a955ce1e229d621edfbf374485cfd147c8799d164e52b853495c0697b714e373be6486b818a33118f156b3c3bd36f05751bff5a64659c8e5d30ca690b212c55570142977507abdce29014a65725298caa07386ece3e9f1f03f9850f30ecd66b5964c0345bf1f43f4af0098ce39c3ff3cf52e04a9c8096ef6e30550bae99a88281965bc3f93b7446737ea3d25dea49cb8981461cd9a2ba585d9affac79bda695bf5423eee22ef07253da54d0800010f4c37d9949991ab3bac545713d30b3f69445f1aabacc2e1e1544edc35ea563a436ac2d5f2b6693d3ed98d25d86c229954c87face6a7ede515d19238e3d102575de2f5b66cb00fb069373ab812fb8c81dbb634e57c4204b1b4617bd924820643fb94e01f9065e3dab0f71b4fd9c4acc990535c65171c64ced29245098f94db7d8ffd03ced8e000f8b55e2ade52ee567f1e9a556a7a390ad2cab406ee698f1100f681bb4f7be598bc3dccae7d1050b9cc9139bc33772f596c8ecfd39db46b27e26e63548a31a6c004de391cf81dba0d1193e465c1c1def8c398856f1bff7751cbe98926d767b96bcc5f36c277fd60be84f7fbec81f331568ce9664f6ab9ddd67531f3075b521ddb1b157c757ecbeb685a4c9f338e07b5669f2b8f9ce14b4e85d39a1571188eb2bd565776dc5ebac5138678e85c3180abd82cac4f480c833dff293a8308625a2ed4aa7810ada3ff582c213dfdceda9136e67e8741086410a61968576580dc249a2dbddb3e6d89ef042b86134aaf7b364830cc6552a4f9673f63d5e6147e1f37ef865e7e83407a0bfa842060f95524fb9ed0529e7879f704d9dd461d605fe09963e14eac545feddd7afbc88f59c8475d815712ad708d4681dd4a01fb7e453314f3a163d200cc6be484887e5916ca51abc28940717409d8f2cc42ce8d3bcf5c73108cb978655d12cf2e9ccdfbe0d7af4b249232c93772b4bebc77bfc294ce564112afab58648c2812d928e152d4c442262cd393ead30ebec22f9c52f7951981e967b76fe6fcd809e0bf105d7c45bfbe71af627d30b19c79a38b53a21d83ece9b707bb50d6f4264a78fddc29a001d92705cd498b411f42cd0f3b0def28edb7dd96315dd8604f8834fb9c7d796db88148e4f788d96c415485a85834e8e9234f9ee9e879f1f39ad9bbc1cc4a5175bde6cbdab2a41aeaffff81386a2efa15d938454464d2547429b6491b022de4dab59c840114f2eaad7c1f322dec195359e0e417a350e77eb225ab05d7e1b3a47f495cca54a121d4ce8bb6cb091f0e831245ba16d956df021e06df8e488c176858052f39004eaaca69c2256973f584e58cdf97d3870f38796e58d1a9114b06868ef265a35f8204f5c97548e8df6d588c63e9d4e82d3c9ab911892ea39aecd5595d0df9a878510a237567e4c30e7faa1b534271d1e3388c19a6150174bb75d79e66fb1191e3c8476ec4db61a9e9e9e9118d205528b2e7b2fe09db45203540617cdae864c32124e4bed6b96f0a15ac518944fc6a0ca4c32084f27311a4100dac99b955c57dbb3332ea4f1ee41b475e700d4728dc78a9046c1e338e94317e23b61eab2865f43a85a0302be3850e28813d11f39d7514de9f66fce871e2e222839485ba6f348b033671c1dccbe28e5b57ceaa912b50a08cfd7e2f1682ada7466f177ee7925e9682940bc0ef1603a84c7a1fc2f30d4caf9a973dcaeb2a57b26e16192a5f27eaaf1a741bddc379ab446d2027d71aac403355ccac38776ff0067c6d960211b9c91c388e68282d6ba58a64a6148835a81f0657f908b7dc1fec86bb8d7bf06d53c0cb69c8e5626d7708ac1001f5f4bcd7b25bbda86f813c771a1c7f6ddbfcb11ae5527fc584b4b72271100f012fc3bb7f102842673ced341c97db15a8192113fa54fe22f6bed619054a2d3735f859e56c8923ed773fcb6e1b25a3b7e204c6f7093d9cd77fced1e0dc4baf674fb1c2e037df15af7195ad655a4c0fa0f2f42e7abb45b977a2ff91edce45a8bd21b9232e4d2562a50b89c4b8b44576fee2eeeddce35fee41eab41bdaa505846f3272a7124c15dedef1fa561f678b7929c6129a51e983947941aa6ae773a415b21870307fcbea1632e56eb90b38eea8d915c3ed8833ec00eba07ae34d1df77110170b19369f4acf0a89ae7cd25eba32e044670ff8edc07523f65733be78dc70c596c21c32a4477a2fdb04ef8e75c9cc3d3aca377b22b68ba857fdd1aa6a685205e7f77da188181280a95a5bae01c79d6bd95ba7f410a030c82d46aea7fb572b61dfc60ccee59388a378e599642d28d00060b121620222758898e96abacbec4d7080c2a3036464f9ba8abbfe7ee091a2b4655919da1a6bdd1202a2d465d707ba4bcdfe2eb000000000000000000000000000000000000000000000000000000111e293501fd210500d221599e5b636ed541b70307b9b6a500e04b1653cb120c95d795b04b7fe372ae1d442c1cb5a90beab68ba8e9afe52e9f0ecc18274f40bb9acfa5a57efa56b8cab1c93841f74e425d42047afb746da07bcb7b0cf76c92e67e9589d2fa9725c566c42299f0c34a112b605be63dc2090987fa61fdce6db43f373b3dd390c0debe0acc581c130daca33a84fe9fcc1522dd378ceac1b17b40d181686c4bc6ef6c35aea6c3f2b49aeb4c1e6c1a05e01b990ad480f32c79aff2240c7e482d6586c183b8c9278165ec4d0c2051523239f3eb98f3a6fac0ce02e9ea597ab948a7cc732feb7d0fa20d75397b2a9c7b226de8a0b879e27abf373506241ce80b44fd2f4011e3e30268337aabe050e11a8ed83104ab19bc7906c25da33fab5ebbf4beabd16abff9bb58870da4eb69ed45d39ed58a603e0a40d73b98367a4d1165df170a70e7e387149035816502354619a054826d588bffeda898e99d7601ba392eff7b9266598d6ea1b88f14fc49dff35f8bbe1e9b8679c0c12a810ff09624f9be8c837967731557d2884cd11272f40db4a7f9b19364ba3d99b7ab8307dee2cc78670831fd315e4bb3373ac624f26030107abfe832596eacf3f0ec18b0816a7ff905383646afa3911fae3b9e9ad1bc3be74b75927abeca5a2ff6106ebea1508fabb5af3a04975a742287617dbdde4b11d11ee500c1b9e8f8b3e0c3119be8d413ca47e77121bb299d9779269ebec78563362f4cf92dd757365c1c4e8ae13c90a7ba849989ea22940d666120377187514e7471104a364e767cb3d8249436e1cd93330311d825ae1c78b67a3fa271e0f949e93e5717f325c134554c3c1ff1730f3e53af7f18ee69f4c6f58ca987267be366e34e383c9599c208b049433f5abc8f1eaae2939edf2e880a37190bd17bada088348c5253fd9ed0e4cc4c64f65313aca646b2d10b89ede3d3eeaa368ea163ca0c5c754ebcc1c0b482f85358869422e64fc03a3333b893cf73973f783b1d4c8eafca2d6bd17b729a8d36e867941a3565695ade7de1900d0ef8f850dd8f470d94037a07eeb1094b42dd86aeb031d7917538fc87f2f6ae0e9a4352d7aa93e4489c721447395c7f07248152ee390424cb976d88b758d918eed94e93b1b480db6a964e47d8620865dd90fb9e2e767bbcf4fa5fabd0e7c785df9d4d23a5535455bd88da22ec2c1d3ecdfa9f7e340689c73e055379d7c7a756b10b78c2688a0e5b1e9bd70537799acb44b582b51363749f523e6cf95b17aee666d2024c71fad39d257b416a58ca4f6358f894af726dd208987e285d486d0aa4787807c78aab8abd3c67701e3a4197a3cd05880f447980b6f092f0c143bdb416cc2f6a03a4a19a9a69dd0f708ba7773311503e65574d4bdbee989b9092b35f7a0a7d41470b4670cf7fbaf8f615afe1d2e83ddcabfba7cfe966075c0c25e42d5456e205b706fd4e3893a153a6e0dbd2aec0636229a83e5498faedce86ac6470d92a412cec46dfc3ee6537c53c81621bee384131e6198506f40d7031bb54e64183a932e1f72489dfe9bcbb6e9c7f4594536a3917003d25ac482491755a3959a4d52bd1d248cdf60d826240cee6a56040401c1d961f4e2bc5afc7f25e81fc01a8e10c9f26b60e317198238e169275119561c3f73cae58578d7b3e1e33befc35bcfd462bcf00136bccde2c6c63a8a716867b32bebfceccb1593944e7b9481dd668892284659bb729ea59ebcf2ef1a2d38374d5e353684b440bda6320aff1720e3903ddbae38cfafa19d5c2ddff1e007ab5e45bfdf13dfaa403b4a3c65728ffa66e73210f60425f8a1a263d02f312aece5fe3bb29274a397a1ab674ec419f49830f02bb68000000",
  "txid": "cdb7e2ab308cf48cf37a1704fb29baf0083fa467f00fa7550dbd20a092690386",
  "hash": "5f371f069a0e865521b94ec37458f610b55e0d677063eee845ce4b39a02f32a1",
  "size": 5085,
  "vsize": 2278,
  "version": 1,
  "locktime": 104,
  "vin": [
    {
      "txid": "f47bf854a0a653316a039fbe5efdc6c5f729386eb73bafac6f027f66353f2f0a",
      "vout": 1,
      "scriptSig": {
        "asm": "",
        "hex": ""
      },
      "txinwitness": [
        "604bd7f6e7a60baad1628006e2aa9d1e0f8ab3b42dba92c20cd587a4219ad800176cc6d45eaf6610f180a775e9996788ab7f88dd05981627e30c43abc158d654fc91bd73042c6e5999784931c290cf7b6b01645950486b613d105dc837ae8da300df5c8a94127820e06b599928468783911aaa0d5f1c77dd20ecc7f952ad625d0e588f02b954e8d1cd87172ad124456063e37f2db7b1907d8c22d2421f2f1b01b988ee27e132751c2316ffd1faac706fa746ba96a77e2566863d2247ee5919165532a696d8cff4544b606a692ead3e90659a924defd60cb1dec2949d6d3955e4097f7f9a18ccfd3db2bb140b98517e213d1ae4612d6438cf20891c4bf72afb6a65a97298fc62d27e3edeadace5119e44ba2027b4293490e8e7f93074d5000a459308befb85063fea39ef39fe824e22397fdc328d2fd3b7cea12c5cf79704de0b2d33da5b19571159c1772da1bca7c61c06030a19b80c764aa4a6685fcfb4185f1c6d229ed050b911c6b81586e38ac7281f9c786627e5c4be7018f2165e1ed3a63a13adea35aab981142aaa57d6324ba5d03bb4d679dd2ca0461b84e5fd117b934ee0dbafab6b7ccd8d0e6eba1b27379f0931c28e925124960b9762e63a5c875f3d821e310cb3586190132346fc385ae9b01294a62ca16625a5eb55be1267797683d4f0ebd7895a60b643c36faf600223d826e836eb802657899a12a0950c17cfdb3b1a6f7fc9e7213199161f95deb58d8f55b0d8f5729f1a736aa564a7ec53091b1da022a714a25381a29b4627f6b3afa92b1b042cfba0b8faf3669cf033fd84fc1cff25b5f532570c6419e5aed610cde7e2105e7ed26e039741c6c1504ef31581391ea9f618a04d74a82f624cb2bd97cab3827e89f536899b1c2d402171012eb35ad591a8570c383a622f02c23e89b95dfdc04edb16117aae8bb1c1847afadfad15d8353fc80c743143cac0784978528278a1f91a504a71fc88c8e9bdc5ecf5c7e045cf925d5a955ce1e229d621edfbf374485cfd147c8799d164e52b853495c0697b714e373be6486b818a33118f156b3c3bd36f05751bff5a64659c8e5d30ca690b212c55570142977507abdce29014a65725298caa07386ece3e9f1f03f9850f30ecd66b5964c0345bf1f43f4af0098ce39c3ff3cf52e04a9c8096ef6e30550bae99a88281965bc3f93b7446737ea3d25dea49cb8981461cd9a2ba585d9affac79bda695bf5423eee22ef07253da54d0800010f4c37d9949991ab3bac545713d30b3f69445f1aabacc2e1e1544edc35ea563a436ac2d5f2b6693d3ed98d25d86c229954c87face6a7ede515d19238e3d102575de2f5b66cb00fb069373ab812fb8c81dbb634e57c4204b1b4617bd924820643fb94e01f9065e3dab0f71b4fd9c4acc990535c65171c64ced29245098f94db7d8ffd03ced8e000f8b55e2ade52ee567f1e9a556a7a390ad2cab406ee698f1100f681bb4f7be598bc3dccae7d1050b9cc9139bc33772f596c8ecfd39db46b27e26e63548a31a6c004de391cf81dba0d1193e465c1c1def8c398856f1bff7751cbe98926d767b96bcc5f36c277fd60be84f7fbec81f331568ce9664f6ab9ddd67531f3075b521ddb1b157c757ecbeb685a4c9f338e07b5669f2b8f9ce14b4e85d39a1571188eb2bd565776dc5ebac5138678e85c3180abd82cac4f480c833dff293a8308625a2ed4aa7810ada3ff582c213dfdceda9136e67e8741086410a61968576580dc249a2dbddb3e6d89ef042b86134aaf7b364830cc6552a4f9673f63d5e6147e1f37ef865e7e83407a0bfa842060f95524fb9ed0529e7879f704d9dd461d605fe09963e14eac545feddd7afbc88f59c8475d815712ad708d4681dd4a01fb7e453314f3a163d200cc6be484887e5916ca51abc28940717409d8f2cc42ce8d3bcf5c73108cb978655d12cf2e9ccdfbe0d7af4b249232c93772b4bebc77bfc294ce564112afab58648c2812d928e152d4c442262cd393ead30ebec22f9c52f7951981e967b76fe6fcd809e0bf105d7c45bfbe71af627d30b19c79a38b53a21d83ece9b707bb50d6f4264a78fddc29a001d92705cd498b411f42cd0f3b0def28edb7dd96315dd8604f8834fb9c7d796db88148e4f788d96c415485a85834e8e9234f9ee9e879f1f39ad9bbc1cc4a5175bde6cbdab2a41aeaffff81386a2efa15d938454464d2547429b6491b022de4dab59c840114f2eaad7c1f322dec195359e0e417a350e77eb225ab05d7e1b3a47f495cca54a121d4ce8bb6cb091f0e831245ba16d956df021e06df8e488c176858052f39004eaaca69c2256973f584e58cdf97d3870f38796e58d1a9114b06868ef265a35f8204f5c97548e8df6d588c63e9d4e82d3c9ab911892ea39aecd5595d0df9a878510a237567e4c30e7faa1b534271d1e3388c19a6150174bb75d79e66fb1191e3c8476ec4db61a9e9e9e9118d205528b2e7b2fe09db45203540617cdae864c32124e4bed6b96f0a15ac518944fc6a0ca4c32084f27311a4100dac99b955c57dbb3332ea4f1ee41b475e700d4728dc78a9046c1e338e94317e23b61eab2865f43a85a0302be3850e28813d11f39d7514de9f66fce871e2e222839485ba6f348b033671c1dccbe28e5b57ceaa912b50a08cfd7e2f1682ada7466f177ee7925e9682940bc0ef1603a84c7a1fc2f30d4caf9a973dcaeb2a57b26e16192a5f27eaaf1a741bddc379ab446d2027d71aac403355ccac38776ff0067c6d960211b9c91c388e68282d6ba58a64a6148835a81f0657f908b7dc1fec86bb8d7bf06d53c0cb69c8e5626d7708ac1001f5f4bcd7b25bbda86f813c771a1c7f6ddbfcb11ae5527fc584b4b72271100f012fc3bb7f102842673ced341c97db15a8192113fa54fe22f6bed619054a2d3735f859e56c8923ed773fcb6e1b25a3b7e204c6f7093d9cd77fced1e0dc4baf674fb1c2e037df15af7195ad655a4c0fa0f2f42e7abb45b977a2ff91edce45a8bd21b9232e4d2562a50b89c4b8b44576fee2eeeddce35fee41eab41bdaa505846f3272a7124c15dedef1fa561f678b7929c6129a51e983947941aa6ae773a415b21870307fcbea1632e56eb90b38eea8d915c3ed8833ec00eba07ae34d1df77110170b19369f4acf0a89ae7cd25eba32e044670ff8edc07523f65733be78dc70c596c21c32a4477a2fdb04ef8e75c9cc3d3aca377b22b68ba857fdd1aa6a685205e7f77da188181280a95a5bae01c79d6bd95ba7f410a030c82d46aea7fb572b61dfc60ccee59388a378e599642d28d00060b121620222758898e96abacbec4d7080c2a3036464f9ba8abbfe7ee091a2b4655919da1a6bdd1202a2d465d707ba4bcdfe2eb000000000000000000000000000000000000000000000000000000111e293501",
        "00d221599e5b636ed541b70307b9b6a500e04b1653cb120c95d795b04b7fe372ae1d442c1cb5a90beab68ba8e9afe52e9f0ecc18274f40bb9acfa5a57efa56b8cab1c93841f74e425d42047afb746da07bcb7b0cf76c92e67e9589d2fa9725c566c42299f0c34a112b605be63dc2090987fa61fdce6db43f373b3dd390c0debe0acc581c130daca33a84fe9fcc1522dd378ceac1b17b40d181686c4bc6ef6c35aea6c3f2b49aeb4c1e6c1a05e01b990ad480f32c79aff2240c7e482d6586c183b8c9278165ec4d0c2051523239f3eb98f3a6fac0ce02e9ea597ab948a7cc732feb7d0fa20d75397b2a9c7b226de8a0b879e27abf373506241ce80b44fd2f4011e3e30268337aabe050e11a8ed83104ab19bc7906c25da33fab5ebbf4beabd16abff9bb58870da4eb69ed45d39ed58a603e0a40d73b98367a4d1165df170a70e7e387149035816502354619a054826d588bffeda898e99d7601ba392eff7b9266598d6ea1b88f14fc49dff35f8bbe1e9b8679c0c12a810ff09624f9be8c837967731557d2884cd11272f40db4a7f9b19364ba3d99b7ab8307dee2cc78670831fd315e4bb3373ac624f26030107abfe832596eacf3f0ec18b0816a7ff905383646afa3911fae3b9e9ad1bc3be74b75927abeca5a2ff6106ebea1508fabb5af3a04975a742287617dbdde4b11d11ee500c1b9e8f8b3e0c3119be8d413ca47e77121bb299d9779269ebec78563362f4cf92dd757365c1c4e8ae13c90a7ba849989ea22940d666120377187514e7471104a364e767cb3d8249436e1cd93330311d825ae1c78b67a3fa271e0f949e93e5717f325c134554c3c1ff1730f3e53af7f18ee69f4c6f58ca987267be366e34e383c9599c208b049433f5abc8f1eaae2939edf2e880a37190bd17bada088348c5253fd9ed0e4cc4c64f65313aca646b2d10b89ede3d3eeaa368ea163ca0c5c754ebcc1c0b482f85358869422e64fc03a3333b893cf73973f783b1d4c8eafca2d6bd17b729a8d36e867941a3565695ade7de1900d0ef8f850dd8f470d94037a07eeb1094b42dd86aeb031d7917538fc87f2f6ae0e9a4352d7aa93e4489c721447395c7f07248152ee390424cb976d88b758d918eed94e93b1b480db6a964e47d8620865dd90fb9e2e767bbcf4fa5fabd0e7c785df9d4d23a5535455bd88da22ec2c1d3ecdfa9f7e340689c73e055379d7c7a756b10b78c2688a0e5b1e9bd70537799acb44b582b51363749f523e6cf95b17aee666d2024c71fad39d257b416a58ca4f6358f894af726dd208987e285d486d0aa4787807c78aab8abd3c67701e3a4197a3cd05880f447980b6f092f0c143bdb416cc2f6a03a4a19a9a69dd0f708ba7773311503e65574d4bdbee989b9092b35f7a0a7d41470b4670cf7fbaf8f615afe1d2e83ddcabfba7cfe966075c0c25e42d5456e205b706fd4e3893a153a6e0dbd2aec0636229a83e5498faedce86ac6470d92a412cec46dfc3ee6537c53c81621bee384131e6198506f40d7031bb54e64183a932e1f72489dfe9bcbb6e9c7f4594536a3917003d25ac482491755a3959a4d52bd1d248cdf60d826240cee6a56040401c1d961f4e2bc5afc7f25e81fc01a8e10c9f26b60e317198238e169275119561c3f73cae58578d7b3e1e33befc35bcfd462bcf00136bccde2c6c63a8a716867b32bebfceccb1593944e7b9481dd668892284659bb729ea59ebcf2ef1a2d38374d5e353684b440bda6320aff1720e3903ddbae38cfafa19d5c2ddff1e007ab5e45bfdf13dfaa403b4a3c65728ffa66e73210f60425f8a1a263d02f312aece5fe3bb29274a397a1ab674ec419f49830f02bb"
      ],
      "sequence": 4294967294
    }
  ],
  "vout": [
    {
      "value": 499993.8986,
      "n": 0,
      "scriptPubKey": {
        "asm": "1 5109de226348001c2a48ae8914cfcbaeaa81b70ab1a278c53101fd551f132c6c",
        "hex": "51205109de226348001c2a48ae8914cfcbaeaa81b70ab1a278c53101fd551f132c6c",
        "reqSigs": 1,
        "type": "witness_v1_scripthash",
        "addresses": [
          "3QJmnh"
        ]
      }
    },
    {
      "value": 1.0,
      "n": 1,
      "scriptPubKey": {
        "asm": "OP_RETURN 850bc7db77d94409792029d6802ba54408ee33355dc456089972c54cca000834 8badfdb4e1c8047d373feac41c46473b37497e990eaadcf5677b557a70f6e3f2ab8ddd94c1e8245d171fcae43c66671b17695eb92e8afcd5475b755a50d6c3d2cbedbdf4a188443d777faa845c06077b77093ed94eea9cb5273b153a30b6a3b2ebcd9dd481a8641d575f8aa47c26275b57291ef96ecabc95071b351a109683920b2d7d34614884fdb7bf6a449cc6c7bbb7c9fe198e2a5c75e7fbd5faf07663722b0d5d144168a4dd979f4a64bce6e79b97e9de39ae0a7c55c7dbf5dad05643524b6d3d742108c4bdf7ff2a04dc8687fbf789be59ce6a1c35a7bb95bab03623326b4d1d540128e49dd7df0a24fca6a7dbd7a99e79ee4a3c15879bb59a901603128badfdb4e1c8047d373feac41c46473b37497e990eaadcf5677b557a70f6e3f2ab8ddd94c1e8245d171fcae43c66671b17695eb92e8afcd5475b755a50d6c3d2cbedbdf4a188443d777faa845c06077b77093ed94eea9cb5273b153a30b6a3b2ebcd9dd481a8641d575f8aa47c26275b57291ef96ecabc95071b351a109683920b2d7d34614884fdb7bf6a449cc6c7bbb7c9fe198e2a5c75e7fbd5faf07663722b0d5d144168a4dd979f4a64bce6e79b97e9de39ae0a7c55c7dbf5dad05643524b6d3d742108c4bdf7ff2a04dc8687fbf789be59ce6a1c35a7bb95bab03623326b4d1d540128e49dd7df0a24fca6a7dbd7a99e79ee4a3c15879bb59a901603128badfdb4e1c8047d373feac41c46473b37497e990eaadcf5677b557a70f6e3f2ab8ddd94c1e8245d171fcae43c66671b17695eb92e8afcd5475b755a50d6c3d2cbedbdf4a188443d777faa845c06077b77093ed94eea9cb5273b153a30b6a3b2ebcd9dd481a8641d575f8aa47c26275b57291ef96ecabc95071b351a109683920b2d7d34614884fdb7bf6a449cc6c7bbb7c9fe198e2a5c75e7fbd5faf07663722b0d5d144168a4dd979f4a64bce6e79b97e9de39ae0a7c55c7dbf5dad05643524b6d3d742108c4bdf7ff2a04dc8687fbf789be59ce6a1c35a7bb95bab03623326b4d1d540128e49dd7df0a24fca6a7dbd7a99e79ee4a3c15879bb59a901603128badfdb4e1c8047d373feac41c46473b37497e990eaadcf5677b557a70f6e3f2ab8ddd94c1e8245d171fcae43c66671b17695eb92e8afcd5475b755a50d6c3d2cbedbdf4a188443d777faa845c06077b77093ed94eea9cb5273b153a30b6a3b2ebcd9dd481a8641d575f8aa47c26275b57291ef96ecabc95071b351a109683920b2d7d34614884fdb7bf6a449cc6c7bbb7c9fe198e2a5c75e7fbd5faf07663722b0d5d144168a4dd979f4a64bce6e79b97e9de39ae0a7c55c7dbf5dad05643524b6d3d742108c4bdf7ff2a04dc8687fbf789be59ce6a1c35a7bb95bab03623326b4d1d540128e49dd7df0a24fca6a7dbd7a99e79ee4a3c15879bb59a901603128badfdb4e1c8047d373feac41c46473b37497e990eaadcf5677b557a70f6e3f2ab8ddd94c1e8245d171fcae43c66671b17695eb92e8afcd5475b755a50d6c3d2cbedbdf4a188443d777faa845c06077b77093ed94eea9cb5273b153a30b6a3b2ebcd9dd481a8641d575f8aa47c26275b57291ef96ecabc95071b351a109683920b2d7d34614884fdb7bf6a449cc6c7bbd70d6ba27a2a9ce0f325185dffddcb4c3aea18f06a86a14d6aeced85090a504c",
        "hex": "6a20850bc7db77d94409792029d6802ba54408ee33355dc456089972c54cca0008344db0048badfdb4e1c8047d373feac41c46473b37497e990eaadcf5677b557a70f6e3f2ab8ddd94c1e8245d171fcae43c66671b17695eb92e8afcd5475b755a50d6c3d2cbedbdf4a188443d777faa845c06077b77093ed94eea9cb5273b153a30b6a3b2ebcd9dd481a8641d575f8aa47c26275b57291ef96ecabc95071b351a109683920b2d7d34614884fdb7bf6a449cc6c7bbb7c9fe198e2a5c75e7fbd5faf07663722b0d5d144168a4dd979f4a64bce6e79b97e9de39ae0a7c55c7dbf5dad05643524b6d3d742108c4bdf7ff2a04dc8687fbf789be59ce6a1c35a7bb95bab03623326b4d1d540128e49dd7df0a24fca6a7dbd7a99e79ee4a3c15879bb59a901603128badfdb4e1c8047d373feac41c46473b37497e990eaadcf5677b557a70f6e3f2ab8ddd94c1e8245d171fcae43c66671b17695eb92e8afcd5475b755a50d6c3d2cbedbdf4a188443d777faa845c06077b77093ed94eea9cb5273b153a30b6a3b2ebcd9dd481a8641d575f8aa47c26275b57291ef96ecabc95071b351a109683920b2d7d34614884fdb7bf6a449cc6c7bbb7c9fe198e2a5c75e7fbd5faf07663722b0d5d144168a4dd979f4a64bce6e79b97e9de39ae0a7c55c7dbf5dad05643524b6d3d742108c4bdf7ff2a04dc8687fbf789be59ce6a1c35a7bb95bab03623326b4d1d540128e49dd7df0a24fca6a7dbd7a99e79ee4a3c15879bb59a901603128badfdb4e1c8047d373feac41c46473b37497e990eaadcf5677b557a70f6e3f2ab8ddd94c1e8245d171fcae43c66671b17695eb92e8afcd5475b755a50d6c3d2cbedbdf4a188443d777faa845c06077b77093ed94eea9cb5273b153a30b6a3b2ebcd9dd481a8641d575f8aa47c26275b57291ef96ecabc95071b351a109683920b2d7d34614884fdb7bf6a449cc6c7bbb7c9fe198e2a5c75e7fbd5faf07663722b0d5d144168a4dd979f4a64bce6e79b97e9de39ae0a7c55c7dbf5dad05643524b6d3d742108c4bdf7ff2a04dc8687fbf789be59ce6a1c35a7bb95bab03623326b4d1d540128e49dd7df0a24fca6a7dbd7a99e79ee4a3c15879bb59a901603128badfdb4e1c8047d373feac41c46473b37497e990eaadcf5677b557a70f6e3f2ab8ddd94c1e8245d171fcae43c66671b17695eb92e8afcd5475b755a50d6c3d2cbedbdf4a188443d777faa845c06077b77093ed94eea9cb5273b153a30b6a3b2ebcd9dd481a8641d575f8aa47c26275b57291ef96ecabc95071b351a109683920b2d7d34614884fdb7bf6a449cc6c7bbb7c9fe198e2a5c75e7fbd5faf07663722b0d5d144168a4dd979f4a64bce6e79b97e9de39ae0a7c55c7dbf5dad05643524b6d3d742108c4bdf7ff2a04dc8687fbf789be59ce6a1c35a7bb95bab03623326b4d1d540128e49dd7df0a24fca6a7dbd7a99e79ee4a3c15879bb59a901603128badfdb4e1c8047d373feac41c46473b37497e990eaadcf5677b557a70f6e3f2ab8ddd94c1e8245d171fcae43c66671b17695eb92e8afcd5475b755a50d6c3d2cbedbdf4a188443d777faa845c06077b77093ed94eea9cb5273b153a30b6a3b2ebcd9dd481a8641d575f8aa47c26275b57291ef96ecabc95071b351a109683920b2d7d34614884fdb7bf6a449cc6c7bbd70d6ba27a2a9ce0f325185dffddcb4c3aea18f06a86a14d6aeced85090a504c",
        "type": "nulldata"
      }
    }
  ],
  "blockhash": "32a2d379a33ec88ae1cb3a8a1a44f2d12b76aebf574ecf7ac16b289397ed6cd9",
  "confirmations": 1,
  "time": 1764176557,
  "blocktime": 1764176557
}