{
  "hex": "0100000000010127f222294267b80bb5e226dcd568ec0fe503aa1dbc1163da995be6642ece08e30100000000feffffff0200e1f50500000000fdd5046a2047f626c4e666c4f3e9ccd3e65dcec79294626cbdfee1d04e25e72ce29c9af0a74db0047054d52f2e289adc57dd4e657324195070d8c707c30ad02371241e6a4829b0d05074f50f0e08bafc77fd6e455304397050f8e727e32af00351043e4a680990f03014956f6e68da9c179d0e253364591030988747834a906331645e2a0869f0901034b54f4e48fabc37bd2e051344793010b8a767a36ab04311447e0a2849d0b0f0d455afaea81a5cd75dcee5f3a499d0f0584787438a50a3f1a49eeac8a93050d0f4758f8e883a7cf77deec5d384b9f0d07867a763aa7083d184becae8891070b09415efeee85a1c971d8ea5b3e4d990b01807c703ca10e3b1e4deaa88e9701090b435cfcec87a3cb73dae8593c4f9b0903827e723ea30c391c4fe8aa8c950307054d52f2e289adc57dd4e657324195070d8c707c30ad02371241e6a4829b0d05074f50f0e08bafc77fd6e455304397050f8e727e32af00351043e4a680990f03014956f6e68da9c179d0e253364591030988747834a906331645e2a0869f0901034b54f4e48fabc37bd2e051344793010b8a767a36ab04311447e0a2849d0b0f0d455afaea81a5cd75dcee5f3a499d0f0584787438a50a3f1a49eeac8a93050d0f4758f8e883a7cf77deec5d384b9f0d07867a763aa7083d184becae8891070b09415efeee85a1c971d8ea5b3e4d990b01807c703ca10e3b1e4deaa88e9701090b435cfcec87a3cb73dae8593c4f9b0903827e723ea30c391c4fe8aa8c950307054d52f2e289adc57dd4e657324195070d8c707c30ad02371241e6a4829b0d05074f50f0e08bafc77fd6e455304397050f8e727e32af00351043e4a680990f03014956f6e68da9c179d0e253364591030988747834a906331645e2a0869f0901034b54f4e48fabc37bd2e051344793010b8a767a36ab04311447e0a2849d0b0f0d455afaea81a5cd75dcee5f3a499d0f0584787438a50a3f1a49eeac8a93050d0f4758f8e883a7cf77deec5d384b9f0d07867a763aa7083d184becae8891070b09415efeee85a1c971d8ea5b3e4d990b01807c703ca10e3b1e4deaa88e9701090b435cfcec87a3cb73dae8593c4f9b0903827e723ea30c391c4fe8aa8c950307054d52f2e289adc57dd4e657324195070d8c707c30ad02371241e6a4829b0d05074f50f0e08bafc77fd6e455304397050f8e727e32af00351043e4a680990f03014956f6e68da9c179d0e253364591030988747834a906331645e2a0869f0901034b54f4e48fabc37bd2e051344793010b8a767a36ab04311447e0a2849d0b0f0d455afaea81a5cd75dcee5f3a499d0f0584787438a50a3f1a49eeac8a93050d0f4758f8e883a7cf77deec5d384b9f0d07867a763aa7083d184becae8891070b09415efeee85a1c971d8ea5b3e4d990b01807c703ca10e3b1e4deaa88e9701090b435cfcec87a3cb73dae8593c4f9b0903827e723ea30c391c4fe8aa8c950307054d52f2e289adc57dd4e657324195070d8c707c30ad02371241e6a4829b0d05074f50f0e08bafc77fd6e455304397050f8e727e32af00351043e4a680990f03014956f6e68da9c179d0e253364591030988747834a906331645e2a0869f0901034b54f4e48fabc37bd2e051344793010b8a767a36ab04311447e0a2849d0b0f0d455afaea81a5cd75dcee5f3a499d0605d444e52ec242b7b128c67d2dce4b513be6f105bc1ea9c81d135fc4f3c8fe54021813f792d0000225120d22307303d3682145d0e1cf166cecac8fb08e0ab6100ea477c48dcab61c5ea6a02fd7509d67aee7fdef0fb949c7694f35b34843f19802db1f3b498cd2ac5037c6f5bf7b10c7f6b8eb7e1e0ec6ee74dc8a639db22c4b9783a4ba1d090ad633fb1ee1e2129b42a39421b24679ebf934455d22cb8f744db43a59acd65084ac052f247c1b4427757a980b85820eec3bb724a027ba6bcb8f56aecf8374bfa235815ba3c04e50b1cbadd89ed8cc2cc24c56fa4711d566b9cba5f448a263116563dece7f668b959da881775fcd9d88a4b5ecb66e27ab9e85e9945f3dc25c5381e77df0de19a0e5e00d38a28412933ec6efbfd849f71d3a2f854ab8c800e96515801219f2a1e4b24c60337c181706bb092de5be03eab0c72d753324fa39ba27d079a9ed8c4dea0cd1663db53d1d4aca83fd53ed00b2d56213c97b4142d2ab4408fe20e6b0dd6a75efb6b42dc6927154b1b0555dccaf0e2b6a77e17c81883315ac2dcd78435c8921c43eea12b709ea8c10ebc597e1458d649bee7581a74f53815088cc16db2a29113ca2c7e81b1252699d99cc61f8064c6248995c66b9ff65e840f6e0c4bda7b6dc303a894ea3bf2f8a3d1feea9910b370f025710a8cc4bcfb5983f4ad521fa3a4ec9c8e908d1afcb821515b8053a2d8c291d9df188b5bb7f342bc3d28f96de962cdf1b8cc9205461e583573b51c98d15a253e7dd5699e42ff0f6ff771089548435bb5461137c4ddaa172d20cd484046c6c6715567afcb874e4ef24df71cf86534a4157154ae45602db3ae8673a2a41b209483930519e9be3789e8ec456ea8cfc982a8a783342b03c715b067016107c53fd761224e1fe422def28dc352384db226383f706d33a1f1c8f19a075671fb0b03d82b680762f98ec73289a0c8c8e23171c2601acc6a10ca3faaa2de2744faea3d1f63a8e0109c53b53461796b2b9674fd10f4bb9c661eaaaa220f82e59bf7890584e75c2a91749caf07a999610416f23a9153ea0ef269d931f749d2315daa080813e78d135c0a970037fa54b1745375310074b57163229d44f200c26cf731b5548134f554456c42ec1f3978f3bd15970e54e5c02b3892f4e5fe8bddadd83be3442148af77b3d2f29db4a1fd753fa0cfaae473fbd9bf27e7b8a8632b4cd70c414fb59043c64978d2c1be7c72e5601b278c80faba48bd69147b4003ded3c3302b597ce35a38531a62fdf5e7d92fb0e78806c8f15fa70a368a3244cec26c033552aeee42bd964beeac5f11b13b2e098863ae7bb878cd1f24e7ba7255369bdfdf7f656b0b3cf8532c3dc801db0bf3e1b9fe1107e33c698d52f073a34bdddd8ed7556e944512a2ecc862b84e09b1260e95ffbdc45515f9dd3cd8679d99765789c3ca3025f79d8f390ad15bed5fbf596824024d2a205dd0572e7c81a168379f9659a8d8b3d8ef5e8b48c0a38cc7edf628c283068e307c3ad464cf1c56c3ac100784ec614a000bae2a2d84294151242fa40c019bb99ee4cc00a38bab795f086c22df5084fe5c1d61a509702624ab7329c4d16c7169f692ffb3093077da13fbd0b14b381b602774c000cc79be75d82e97198e54d24acf83493eb321de75dda8673523ff94906ef6dcfa75ca05b6a223bc5c0721b702191fba375ce700e2e07d621d060e10c01296d0b46d10f0986e99ef7cdf17597073f95de0a5ecdbed18512bd2aa8e28407e9f5988b89501dd84fa594dff1449c27629fbb3833e40d67ff6697216699dbf6e0dfd79bf18741b66a0c0f2f35db6318c1ab601f37b9be3bcf34cce0cd7fd246876a776be8862a159993f703b790b1b3253b998f6995014a0289db1aaae517a3302ab40058d955b58f14d31e19ada96bdb1dd23702852295cdde6735cec92237201286875840c9c9b4d9c6421209cb7eeb4d59a59e0976b7fa6e649e01b97e9807198f455403e95bd71485a404bce21954768acdbba1ad6eb5f1c4120391d08c2cbd6bdac4624b0112470f2805649c9b10d20fe37592809072001ac024e4aef41e7672960a65c82eb8fc227e66d19c1174f74dee489363c395ed2dfa0ff1930b7442b68ca1547435a7501c441bdf6e7860a3af3a06bdee51668ad0cbba75e9b719325921d5a0c41dedb68d84e1fba414bdf6367187fa2308f663d7a54737c631bd95571b35baad5f89c7127a207260ce961a8c232a30eaf4b460400c44ba9f21e4e88f7e27c18aa5349f39c880ecf6948aee826f7b49b88eafe33d832d258cee1733fd61c243290fef6b2cc1fda2cda424958e1799892597a526131e297810917e86240a0d67acc8c9f73ef1c2db517ce94ef9e6b86259bc1fb8a82de343bd444daf17af18df20b38bd30f5bc3325253c7d4b3673eb2c708249d4aa8e978a57325fc966ebf2a76371ba0af9e593d0e75accdbdd8bb5290aa20283f60f7ce4b6b87f55d6632aedba14bf46df83fd356b2695895331908f60bf92a266c4ecfaa0e092b008d71dee89a13961238a3f2f5fbd8bc700cbd541c699d8ebc9894a5350e63252e4fbe4380fb380b7714387679f81aa1e0d503e14d11a6000dd1deacd199bb06a515c3a0a740ee1882e6413739cda0ce85784cf5fe81ecb094a89c2fc9809db550ffb999644bb0144a9101bc1eeb7690cd5804025bfde1b9dce3417293c2fa5faa0266840b497d45567cdb9586fd1406af54b7ae115ef4865d3a5cc4a6259d8a1406870030c75f822ad2b7e866a9743af709197316bfcf8800d2866913972072c5d665aebdd1a3266c843a861a19578c2637c995af7e4f35f0210cc5623ef302e9b48cea2de85dab749b04b098b95c200e46e9ba94b8338f3d9ffd6c0457b94468bfbc53459cb737b2f418402d54dc2f1bdbc609f2f0529e04b84dcb1c7ddeafec369f869bd3f90b41307b70bc71c715856b1e18571b25697dd7d448e4138c36400122788742cb57273f7555860e181ea7b1add91cbebd5e1f5728c7d2d5c55753882c7d529974593ca6ade0c5348af4cd67af0948e32ea1be432439e1ba9afa3c687fca3e27a5e44cd8fc5c4870f24b764df9d437c3aa3e5f260d4d0f34ba0d423cb919a39996d4d979eb0d4bc5a3bc425bd769726c95e8aaad94d92d4b9b33ea732531e925cbfc50dcaf5108be6305a1cc354f016a3740a933a37e7b893047e72c58f1c0d636ed7a9346c82d439951fb359b2d3d69548d70079f504e64eaac9064227d0153d126b2656cbeebd81415843e011994c0df7249047325b311e8d842331c2830aabc5ed63f62a8aa6ae3a257e0bb1c2796b71f879f01ee693f091ff56c605abb2f93ea0c8bdf4b1400272e320276aaf1b7fd6bc0ec82dd808fd65571187c3b341e654aba6add7e4150711375d62849095aec1cfeefd102943446870747d8f98a7d4dce5f1f80608111d23293a4c5e6a7f838aa4b0b7c1cdcedfeaf111333d454750535d69757c82a0b5d0e3e8f2f3fa0000000000000000000d1d334701fd21050087a9bc578b0fc3e6e1dafe18925e29bd33548dd3e6bd43a3dc9e18d163f71d8b293e4896b235402e5e522b51870b66ec6de6a86997680262b78e60ff4bf3dad93e4b961e88c41c3eb051543073e68c657bbf278d880a95637b7009002fc5cddac7fff3497937bb1a2724a74f63f66d270a69ca59d7847f9e8e4881e84910a3dd876886b2596c2ec4f60d4b9b5e8ab69035f9d2b136e92ba5f069c97713de545becf0b4c16fe48e9411bcc533db99cad510ef63faffea548cafa7295c7ffb7bd78c61018d22a842c21c6d31dfaf076418d60028b64821e82af2366ed4fab191115c25b1b90e5e459eeaa956820cccf95e9fc6a7fb82dda4751dd1b19d8c79ec82221e3431e8226c4c994cc41fdb3c3d3391952f15fc1496b0f1061241650952f48d3e0beebcd4cf4cb0f9be18869d9f574d1c97da171730f94da4017310b5db93c74e982576ae60f4d5ea12451d1e52272fdb665a13954bf85dff84e45c13b457d087bcb6457bb99cb4dbece4b750beb8c7be1c9cdab7c1d63ff91508e9030e859a72ef031843cbedeea6a4918e9f20455d03dbeb3326f9f9feb6928a185d2d7abff6ce17fbfc12a93260e7b8c35b1e23084f948e8340171511f450842dfb9a2b1b18353885e3612b3737d73e046ba49f1317c87893ca2b0d28b15ba619648c40d337cb56336a779243980175921314352dc39c71092c324f6735984eb6aa26b71dd314f2b4be129dec4bd7e258064240254e2a7b674071203857beca49a6ae6a0e817372fea107c128f9a37c9c167f0370a10c748b85e51cd3c49f377c3d22cc5793646008c9e276f0ba544ae2e2636d474b5eb52e69c70f9e5fb072b44d68895c6b12c6a64cc948bab882000f1e1a61b96c24a1955a73bc7bb4e1bc1c8519cae0c5e5252b5e4c645ac4bf2df2eb8ad7a4076b329e01e7ec8ab74519ad02dd49d2a65621c6a0e99e3660ddceccb83dce101bd8cad29b250ce7d5650493427e2e6d62e0a62706cc489925591d30194ac601c9947e5c3d254c8a8a2a0c16e7afe453a5f8f5674092ff294ccd2eb3b55a9c51522990edd5ba4f1ef2aa4e2bb04ec27827d44c5c94d60d72808058a47aa5d72abd891f56aec43c7d9475ce92c6fb00336dab6f34b0969f8dc97a568fe910c8933381496bf066c0daaffc9c530fc680fecee68e2843f0aa70b99006d1bc2b2c7b148b958e7830c2cd7bcb74715d4dc06547b53b3aee3da5f31b9c39570be26d2fd664679e942b4141c4dceb64a2fc7f4685bbb9a26d5fc81fb76a61da23e9ff54a0f461615b4461a967ee7508831c15a946fd8d51c3615bd6660245693d26e32364da29f9d4de5a0ce648376a9afa74ab439c1c5d8a21170c0c0187477797a93a4c0a1751e58da03181cd6d846f328f2c4c6c05cbb19ab08d6697312a50b7e3b848442f22e18f32d880c55fa8b79052a471a6cc2702de01765459634970f7a1896985ff108d55c1f7b29f30d5e131511e68b0546f36b34d69d0d0bc3bc5330410e6a912e0cd7f2c84297066d27623bab1df0c5ae663b2965f2553eea8ce33e0373e29e2c18b24bc3d9671b55f4a6f3bf1e437ad9b5a18a83ec7221be2ba24477d5bca33dc74f4cfaa6c16feece00991e12cff5e77c7e7c1c3bddb30b281a21cc7cf26621c4bf15ad560fe8a4f7aa17bd9a3004e34ed674e1ffa9bc99653f2a6a8fd7615000997b775040e283f1e00b1f97dcb30543303a21695bd2111863d78573f92c4371717ecc1fb2434de74cc1fbd2e0090ad49106fab54d1169b916f0fa67b15b22d3896fb45554f52bb5000a7872bcad57f14388fc857fc0942ec69b612cab0f2316d7016c019c34deece97b96e000000",
  "txid": "cc6e1db7536d0fc8665e89831dd9af7b9168c325e48f837ce65f9af661766156",
  "hash": "6d1dcd9ef3af68a088bb02170071fba10c4668b68db222855156963b972b3653",
  "size": 5085,
  "vsize": 2278,
  "version": 1,
  "locktime": 110,
  "vin": [
    {
      "txid": "e308ce2e64e65b99da6311bc1daa03e50fec68d5dc26e2b50bb867422922f227",
      "vout": 1,
      "scriptSig": {
        "asm": "",
        "hex": ""
      },
      "txinwitness": [
        "d67aee7fdef0fb949c7694f35b34843f19802db1f3b498cd2ac5037c6f5bf7b10c7f6b8eb7e1e0ec6ee74dc8a639db22c4b9783a4ba1d090ad633fb1ee1e2129b42a39421b24679ebf934455d22cb8f744db43a59acd65084ac052f247c1b4427757a980b85820eec3bb724a027ba6bcb8f56aecf8374bfa235815ba3c04e50b1cbadd89ed8cc2cc24c56fa4711d566b9cba5f448a263116563dece7f668b959da881775fcd9d88a4b5ecb66e27ab9e85e9945f3dc25c5381e77df0de19a0e5e00d38a28412933ec6efbfd849f71d3a2f854ab8c800e96515801219f2a1e4b24c60337c181706bb092de5be03eab0c72d753324fa39ba27d079a9ed8c4dea0cd1663db53d1d4aca83fd53ed00b2d56213c97b4142d2ab4408fe20e6b0dd6a75efb6b42dc6927154b1b0555dccaf0e2b6a77e17c81883315ac2dcd78435c8921c43eea12b709ea8c10ebc597e1458d649bee7581a74f53815088cc16db2a29113ca2c7e81b1252699d99cc61f8064c6248995c66b9ff65e840f6e0c4bda7b6dc303a894ea3bf2f8a3d1feea9910b370f025710a8cc4bcfb5983f4ad521fa3a4ec9c8e908d1afcb821515b8053a2d8c291d9df188b5bb7f342bc3d28f96de962cdf1b8cc9205461e583573b51c98d15a253e7dd5699e42ff0f6ff771089548435bb5461137c4ddaa172d20cd484046c6c6715567afcb874e4ef24df71cf86534a4157154ae45602db3ae8673a2a41b209483930519e9be3789e8ec456ea8cfc982a8a783342b03c715b067016107c53fd761224e1fe422def28dc352384db226383f706d33a1f1c8f19a075671fb0b03d82b680762f98ec73289a0c8c8e23171c2601acc6a10ca3faaa2de2744faea3d1f63a8e0109c53b53461796b2b9674fd10f4bb9c661eaaaa220f82e59bf7890584e75c2a91749caf07a999610416f23a9153ea0ef269d931f749d2315daa080813e78d135c0a970037fa54b1745375310074b57163229d44f200c26cf731b5548134f554456c42ec1f3978f3bd15970e54e5c02b3892f4e5fe8bddadd83be3442148af77b3d2f29db4a1fd753fa0cfaae473fbd9bf27e7b8a8632b4cd70c414fb59043c64978d2c1be7c72e5601b278c80faba48bd69147b4003ded3c3302b597ce35a38531a62fdf5e7d92fb0e78806c8f15fa70a368a3244cec26c033552aeee42bd964beeac5f11b13b2e098863ae7bb878cd1f24e7ba7255369bdfdf7f656b0b3cf8532c3dc801db0bf3e1b9fe1107e33c698d52f073a34bdddd8ed7556e944512a2ecc862b84e09b1260e95ffbdc45515f9dd3cd8679d99765789c3ca3025f79d8f390ad15bed5fbf596824024d2a205dd0572e7c81a168379f9659a8d8b3d8ef5e8b48c0a38cc7edf628c283068e307c3ad464cf1c56c3ac100784ec614a000bae2a2d84294151242fa40c019bb99ee4cc00a38bab795f086c22df5084fe5c1d61a509702624ab7329c4d16c7169f692ffb3093077da13fbd0b14b381b602774c000cc79be75d82e97198e54d24acf83493eb321de75dda8673523ff94906ef6dcfa75ca05b6a223bc5c0721b702191fba375ce700e2e07d621d060e10c01296d0b46d10f0986e99ef7cdf17597073f95de0a5ecdbed18512bd2aa8e28407e9f5988b89501dd84fa594dff1449c27629fbb3833e40d67ff6697216699dbf6e0dfd79bf18741b66a0c0f2f35db6318c1ab601f37b9be3bcf34cce0cd7fd246876a776be8862a159993f703b790b1b3253b998f6995014a0289db1aaae517a3302ab40058d955b58f14d31e19ada96bdb1dd23702852295cdde6735cec92237201286875840c9c9b4d9c6421209cb7eeb4d59a59e0976b7fa6e649e01b97e9807198f455403e95bd71485a404bce21954768acdbba1ad6eb5f1c4120391d08c2cbd6bdac4624b0112470f2805649c9b10d20fe37592809072001ac024e4aef41e7672960a65c82eb8fc227e66d19c1174f74dee489363c395ed2dfa0ff1930b7442b68ca1547435a7501c441bdf6e7860a3af3a06bdee51668ad0cbba75e9b719325921d5a0c41dedb68d84e1fba414bdf6367187fa2308f663d7a54737c631bd95571b35baad5f89c7127a207260ce961a8c232a30eaf4b460400c44ba9f21e4e88f7e27c18aa5349f39c880ecf6948aee826f7b49b88eafe33d832d258cee1733fd61c243290fef6b2cc1fda2cda424958e1799892597a526131e297810917e86240a0d67acc8c9f73ef1c2db517ce94ef9e6b86259bc1fb8a82de343bd444daf17af18df20b38bd30f5bc3325253c7d4b3673eb2c708249d4aa8e978a57325fc966ebf2a76371ba0af9e593d0e75accdbdd8bb5290aa20283f60f7ce4b6b87f55d6632aedba14bf46df83fd356b2695895331908f60bf92a266c4ecfaa0e092b008d71dee89a13961238a3f2f5fbd8bc700cbd541c699d8ebc9894a5350e63252e4fbe4380fb380b7714387679f81aa1e0d503e14d11a6000dd1deacd199bb06a515c3a0a740ee1882e6413739cda0ce85784cf5fe81ecb094a89c2fc9809db550ffb999644bb0144a9101bc1eeb7690cd5804025bfde1b9dce3417293c2fa5faa0266840b497d45567cdb9586fd1406af54b7ae115ef4865d3a5cc4a6259d8a1406870030c75f822ad2b7e866a9743af709197316bfcf8800d2866913972072c5d665aebdd1a3266c843a861a19578c2637c995af7e4f35f0210cc5623ef302e9b48cea2de85dab749b04b098b95c200e46e9ba94b8338f3d9ffd6c0457b94468bfbc53459cb737b2f418402d54dc2f1bdbc609f2f0529e04b84dcb1c7ddeafec369f869bd3f90b41307b70bc71c715856b1e18571b25697dd7d448e4138c36400122788742cb57273f7555860e181ea7b1add91cbebd5e1f5728c7d2d5c55753882c7d529974593ca6ade0c5348af4cd67af0948e32ea1be432439e1ba9afa3c687fca3e27a5e44cd8fc5c4870f24b764df9d437c3aa3e5f260d4d0f34ba0d423cb919a39996d4d979eb0d4bc5a3bc425bd769726c95e8aaad94d92d4b9b33ea732531e925cbfc50dcaf5108be6305a1cc354f016a3740a933a37e7b893047e72c58f1c0d636ed7a9346c82d439951fb359b2d3d69548d70079f504e64eaac9064227d0153d126b2656cbeebd81415843e011994c0df7249047325b311e8d842331c2830aabc5ed63f62a8aa6ae3a257e0bb1c2796b71f879f01ee693f091ff56c605abb2f93ea0c8bdf4b1400272e320276aaf1b7fd6bc0ec82dd808fd65571187c3b341e654aba6add7e4150711375d62849095aec1cfeefd102943446870747d8f98a7d4dce5f1f80608111d23293a4c5e6a7f838aa4b0b7c1cdcedfeaf111333d454750535d69757c82a0b5d0e3e8f2f3fa0000000000000000000d1d334701",
        "0087a9bc578b0fc3e6e1dafe18925e29bd33548dd3e6bd43a3dc9e18d163f71d8b293e4896b235402e5e522b51870b66ec6de6a86997680262b78e60ff4bf3dad93e4b961e88c41c3eb051543073e68c657bbf278d880a95637b7009002fc5cddac7fff3497937bb1a2724a74f63f66d270a69ca59d7847f9e8e4881e84910a3dd876886b2596c2ec4f60d4b9b5e8ab69035f9d2b136e92ba5f069c97713de545becf0b4c16fe48e9411bcc533db99cad510ef63faffea548cafa7295c7ffb7bd78c61018d22a842c21c6d31dfaf076418d60028b64821e82af2366ed4fab191115c25b1b90e5e459eeaa956820cccf95e9fc6a7fb82dda4751dd1b19d8c79ec82221e3431e8226c4c994cc41fdb3c3d3391952f15fc1496b0f1061241650952f48d3e0beebcd4cf4cb0f9be18869d9f574d1c97da171730f94da4017310b5db93c74e982576ae60f4d5ea12451d1e52272fdb665a13954bf85dff84e45c13b457d087bcb6457bb99cb4dbece4b750beb8c7be1c9cdab7c1d63ff91508e9030e859a72ef031843cbedeea6a4918e9f20455d03dbeb3326f9f9feb6928a185d2d7abff6ce17fbfc12a93260e7b8c35b1e23084f948e8340171511f450842dfb9a2b1b18353885e3612b3737d73e046ba49f1317c87893ca2b0d28b15ba619648c40d337cb56336a779243980175921314352dc39c71092c324f6735984eb6aa26b71dd314f2b4be129dec4bd7e258064240254e2a7b674071203857beca49a6ae6a0e817372fea107c128f9a37c9c167f0370a10c748b85e51cd3c49f377c3d22cc5793646008c9e276f0ba544ae2e2636d474b5eb52e69c70f9e5fb072b44d68895c6b12c6a64cc948bab882000f1e1a61b96c24a1955a73bc7bb4e1bc1c8519cae0c5e5252b5e4c645ac4bf2df2eb8ad7a4076b329e01e7ec8ab74519ad02dd49d2a65621c6a0e99e3660ddceccb83dce101bd8cad29b250ce7d5650493427e2e6d62e0a62706cc489925591d30194ac601c9947e5c3d254c8a8a2a0c16e7afe453a5f8f5674092ff294ccd2eb3b55a9c51522990edd5ba4f1ef2aa4e2bb04ec27827d44c5c94d60d72808058a47aa5d72abd891f56aec43c7d9475ce92c6fb00336dab6f34b0969f8dc97a568fe910c8933381496bf066c0daaffc9c530fc680fecee68e2843f0aa70b99006d1bc2b2c7b148b958e7830c2cd7bcb74715d4dc06547b53b3aee3da5f31b9c39570be26d2fd664679e942b4141c4dceb64a2fc7f4685bbb9a26d5fc81fb76a61da23e9ff54a0f461615b4461a967ee7508831c15a946fd8d51c3615bd6660245693d26e32364da29f9d4de5a0ce648376a9afa74ab439c1c5d8a21170c0c0187477797a93a4c0a1751e58da03181cd6d846f328f2c4c6c05cbb19ab08d6697312a50b7e3b848442f22e18f32d880c55fa8b79052a471a6cc2702de01765459634970f7a1896985ff108d55c1f7b29f30d5e131511e68b0546f36b34d69d0d0bc3bc5330410e6a912e0cd7f2c84297066d27623bab1df0c5ae663b2965f2553eea8ce33e0373e29e2c18b24bc3d9671b55f4a6f3bf1e437ad9b5a18a83ec7221be2ba24477d5bca33dc74f4cfaa6c16feece00991e12cff5e77c7e7c1c3bddb30b281a21cc7cf26621c4bf15ad560fe8a4f7aa17bd9a3004e34ed674e1ffa9bc99653f2a6a8fd7615000997b775040e283f1e00b1f97dcb30543303a21695bd2111863d78573f92c4371717ecc1fb2434de74cc1fbd2e0090ad49106fab54d1169b916f0fa67b15b22d3896fb45554f52bb5000a7872bcad57f14388fc857fc0942ec69b612cab0f2316d7016c019c34deece97b9"
      ],
      "sequence": 4294967294
    }
  ],
  "vout": [
    {
      "value": 1.0,
      "n": 0,
      "scriptPubKey": {
        "asm": "OP_RETURN 47f626c4e666c4f3e9ccd3e65dcec79294626cbdfee1d04e25e72ce29c9af0a7 7054d52f2e289adc57dd4e657324195070d8c707c30ad02371241e6a4829b0d05074f50f0e08bafc77fd6e455304397050f8e727e32af00351043e4a680990f03014956f6e68da9c179d0e253364591030988747834a906331645e2a0869f0901034b54f4e48fabc37bd2e051344793010b8a767a36ab04311447e0a2849d0b0f0d455afaea81a5cd75dcee5f3a499d0f0584787438a50a3f1a49eeac8a93050d0f4758f8e883a7cf77deec5d384b9f0d07867a763aa7083d184becae8891070b09415efeee85a1c971d8ea5b3e4d990b01807c703ca10e3b1e4deaa88e9701090b435cfcec87a3cb73dae8593c4f9b0903827e723ea30c391c4fe8aa8c950307054d52f2e289adc57dd4e657324195070d8c707c30ad02371241e6a4829b0d05074f50f0e08bafc77fd6e455304397050f8e727e32af00351043e4a680990f03014956f6e68da9c179d0e253364591030988747834a906331645e2a0869f0901034b54f4e48fabc37bd2e051344793010b8a767a36ab04311447e0a2849d0b0f0d455afaea81a5cd75dcee5f3a499d0f0584787438a50a3f1a49eeac8a93050d0f4758f8e883a7cf77deec5d384b9f0d07867a763aa7083d184becae8891070b09415efeee85a1c971d8ea5b3e4d990b01807c703ca10e3b1e4deaa88e9701090b435cfcec87a3cb73dae8593c4f9b0903827e723ea30c391c4fe8aa8c950307054d52f2e289adc57dd4e657324195070d8c707c30ad02371241e6a4829b0d05074f50f0e08bafc77fd6e455304397050f8e727e32af00351043e4a680990f03014956f6e68da9c179d0e253364591030988747834a906331645e2a0869f0901034b54f4e48fabc37bd2e051344793010b8a767a36ab04311447e0a2849d0b0f0d455afaea81a5cd75dcee5f3a499d0f0584787438a50a3f1a49eeac8a93050d0f4758f8e883a7cf77deec5d384b9f0d07867a763aa7083d184becae8891070b09415efeee85a1c971d8ea5b3e4d990b01807c703ca10e3b1e4deaa88e9701090b435cfcec87a3cb73dae8593c4f9b0903827e723ea30c391c4fe8aa8c950307054d52f2e289adc57dd4e657324195070d8c707c30ad02371241e6a4829b0d05074f50f0e08bafc77fd6e455304397050f8e727e32af00351043e4a680990f03014956f6e68da9c179d0e253364591030988747834a906331645e2a0869f0901034b54f4e48fabc37bd2e051344793010b8a767a36ab04311447e0a2849d0b0f0d455afaea81a5cd75dcee5f3a499d0f0584787438a50a3f1a49eeac8a93050d0f4758f8e883a7cf77deec5d384b9f0d07867a763aa7083d184becae8891070b09415efeee85a1c971d8ea5b3e4d990b01807c703ca10e3b1e4deaa88e9701090b435cfcec87a3cb73dae8593c4f9b0903827e723ea30c391c4fe8aa8c950307054d52f2e289adc57dd4e657324195070d8c707c30ad02371241e6a4829b0d05074f50f0e08bafc77fd6e455304397050f8e727e32af00351043e4a680990f03014956f6e68da9c179d0e253364591030988747834a906331645e2a0869f0901034b54f4e48fabc37bd2e051344793010b8a767a36ab04311447e0a2849d0b0f0d455afaea81a5cd75dcee5f3a499d0605d444e52ec242b7b128c67d2dce4b513be6f105bc1ea9c81d135fc4f3c8fe5",
        "hex": "6a2047f626c4e666c4f3e9ccd3e65dcec79294626cbdfee1d04e25e72ce29c9af0a74db0047054d52f2e289adc57dd4e657324195070d8c707c30ad02371241e6a4829b0d05074f50f0e08bafc77fd6e455304397050f8e727e32af00351043e4a680990f03014956f6e68da9c179d0e253364591030988747834a906331645e2a0869f0901034b54f4e48fabc37bd2e051344793010b8a767a36ab04311447e0a2849d0b0f0d455afaea81a5cd75dcee5f3a499d0f0584787438a50a3f1a49eeac8a93050d0f4758f8e883a7cf77deec5d384b9f0d07867a763aa7083d184becae8891070b09415efeee85a1c971d8ea5b3e4d990b01807c703ca10e3b1e4deaa88e9701090b435cfcec87a3cb73dae8593c4f9b0903827e723ea30c391c4fe8aa8c950307054d52f2e289adc57dd4e657324195070d8c707c30ad02371241e6a4829b0d05074f50f0e08bafc77fd6e455304397050f8e727e32af00351043e4a680990f03014956f6e68da9c179d0e253364591030988747834a906331645e2a0869f0901034b54f4e48fabc37bd2e051344793010b8a767a36ab04311447e0a2849d0b0f0d455afaea81a5cd75dcee5f3a499d0f0584787438a50a3f1a49eeac8a93050d0f4758f8e883a7cf77deec5d384b9f0d07867a763aa7083d184becae8891070b09415efeee85a1c971d8ea5b3e4d990b01807c703ca10e3b1e4deaa88e9701090b435cfcec87a3cb73dae8593c4f9b0903827e723ea30c391c4fe8aa8c950307054d52f2e289adc57dd4e657324195070d8c707c30ad02371241e6a4829b0d05074f50f0e08bafc77fd6e455304397050f8e727e32af00351043e4a680990f03014956f6e68da9c179d0e253364591030988747834a906331645e2a0869f0901034b54f4e48fabc37bd2e051344793010b8a767a36ab04311447e0a2849d0b0f0d455afaea81a5cd75dcee5f3a499d0f0584787438a50a3f1a49eeac8a93050d0f4758f8e883a7cf77deec5d384b9f0d07867a763aa7083d184becae8891070b09415efeee85a1c971d8ea5b3e4d990b01807c703ca10e3b1e4deaa88e9701090b435cfcec87a3cb73dae8593c4f9b0903827e723ea30c391c4fe8aa8c950307054d52f2e289adc57dd4e657324195070d8c707c30ad02371241e6a4829b0d05074f50f0e08bafc77fd6e455304397050f8e727e32af00351043e4a680990f03014956f6e68da9c179d0e253364591030988747834a906331645e2a0869f0901034b54f4e48fabc37bd2e051344793010b8a767a36ab04311447e0a2849d0b0f0d455afaea81a5cd75dcee5f3a499d0f0584787438a50a3f1a49eeac8a93050d0f4758f8e883a7cf77deec5d384b9f0d07867a763aa7083d184becae8891070b09415efeee85a1c971d8ea5b3e4d990b01807c703ca10e3b1e4deaa88e9701090b435cfcec87a3cb73dae8593c4f9b0903827e723ea30c391c4fe8aa8c950307054d52f2e289adc57dd4e657324195070d8c707c30ad02371241e6a4829b0d05074f50f0e08bafc77fd6e455304397050f8e727e32af00351043e4a680990f03014956f6e68da9c179d0e253364591030988747834a906331645e2a0869f0901034b54f4e48fabc37bd2e051344793010b8a767a36ab04311447e0a2849d0b0f0d455afaea81a5cd75dcee5f3a499d0605d444e52ec242b7b128c67d2dce4b513be6f105bc1ea9c81d135fc4f3c8fe5",
        "type": "nulldata"
      }
    },
    {
      "value": 499987.7972,
      "n": 1,
      "scriptPubKey": {
        "asm": "1 d22307303d3682145d0e1cf166cecac8fb08e0ab6100ea477c48dcab61c5ea6a",
        "hex": "5120d22307303d3682145d0e1cf166cecac8fb08e0ab6100ea477c48dcab61c5ea6a",
        "reqSigs": 1,
        "type": "witness_v1_scripthash",
        "addresses": [
          "3QJmnh"
        ]
      }
    }
  ],
  "blockhash": "2622e54cefe9d3081f6ac04e4c67f268d7c1e3313b2268ffede4439aafe1acd1",
  "confirmations": 1,
  "time": 1764177922,
  "blocktime": 1764177922
}