{
  "hex": "01000000000101fc05c0b6894705350edb915304c9b2916f6ccc8d34018263063c5f3fe3dc8e790100000000feffffff02f020b051792d00002251203979588aad6e257ff507c8711cbc095f9f9c578cc75a0d2d08fad3f28b9e3a8000e1f50500000000fdd5046a2016e56fb9c0ca620e30520737ccdf6c380777036de878b72ec5b8996b62de98cc4db00419b5050ef935ab01e4bbadcac9005952edddfc7f3c40e43a99662cd242eb4ba33995252ed9158b21c49b8deae9207972cdfddc5f1c60c41ab9460cf262cb6b8359f5454eb975eb41a4fbed8a89401912ad9dbc3f7c00a47ad9266c9202ab0be379d5656e9955cb6184dbcdaaa96039328dbd9c1f5c20845af9064cb2228b2bc39935858e79b52b81643b2d4a4980d9d26d5d7cffbcc064ba19e6ac52c26bcb23b915a5ae59950ba1441b0d6a69a0f9f24d7d5cdf9ce0449a39c68c72e24beb03d975c5ce39f56bc1247b6d0a09c099922d1d3cbffc8024fa59a6ec12822b8b63f955e5ee19d54be1045b4d2a29e0b9b20d3d1c9fdca004da7986cc32a20bab4319b5050ef935ab01e4bbadcac9005952edddfc7f3c40e43a99662cd242eb4ba33995252ed9158b21c49b8deae9207972cdfddc5f1c60c41ab9460cf262cb6b8359f5454eb975eb41a4fbed8a89401912ad9dbc3f7c00a47ad9266c9202ab0be379d5656e9955cb6184dbcdaaa96039328dbd9c1f5c20845af9064cb2228b2bc39935858e79b52b81643b2d4a4980d9d26d5d7cffbcc064ba19e6ac52c26bcb23b915a5ae59950ba1441b0d6a69a0f9f24d7d5cdf9ce0449a39c68c72e24beb03d975c5ce39f56bc1247b6d0a09c099922d1d3cbffc8024fa59a6ec12822b8b63f955e5ee19d54be1045b4d2a29e0b9b20d3d1c9fdca004da7986cc32a20bab4319b5050ef935ab01e4bbadcac9005952edddfc7f3c40e43a99662cd242eb4ba33995252ed9158b21c49b8deae9207972cdfddc5f1c60c41ab9460cf262cb6b8359f5454eb975eb41a4fbed8a89401912ad9dbc3f7c00a47ad9266c9202ab0be379d5656e9955cb6184dbcdaaa96039328dbd9c1f5c20845af9064cb2228b2bc39935858e79b52b81643b2d4a4980d9d26d5d7cffbcc064ba19e6ac52c26bcb23b915a5ae59950ba1441b0d6a69a0f9f24d7d5cdf9ce0449a39c68c72e24beb03d975c5ce39f56bc1247b6d0a09c099922d1d3cbffc8024fa59a6ec12822b8b63f955e5ee19d54be1045b4d2a29e0b9b20d3d1c9fdca004da7986cc32a20bab4319b5050ef935ab01e4bbadcac9005952edddfc7f3c40e43a99662cd242eb4ba33995252ed9158b21c49b8deae9207972cdfddc5f1c60c41ab9460cf262cb6b8359f5454eb975eb41a4fbed8a89401912ad9dbc3f7c00a47ad9266c9202ab0be379d5656e9955cb6184dbcdaaa96039328dbd9c1f5c20845af9064cb2228b2bc39935858e79b52b81643b2d4a4980d9d26d5d7cffbcc064ba19e6ac52c26bcb23b915a5ae59950ba1441b0d6a69a0f9f24d7d5cdf9ce0449a39c68c72e24beb03d975c5ce39f56bc1247b6d0a09c099922d1d3cbffc8024fa59a6ec12822b8b63f955e5ee19d54be1045b4d2a29e0b9b20d3d1c9fdca004da7986cc32a20bab4319b5050ef935ab01e4bbadcac9005952edddfc7f3c40e43a99662cd242eb4ba33995252ed9158b21c49b8deae9207972cdfddc5f1c60c41ab9460cf262cb6b8359f5454eb975eb41a4fbed8a89401912ad9dbc3f7c00a47ad9266c9202ab0be379d5656e9955cb6184dbcdaaa96039328dbd9c1f5c20845af9064cb2228b2bc39935858e79b52b81643b2d4a4980d9d2268fa53115f381a25b3e08833769d65b159445ff885d71fdfe21835535253eb602fd75092330dc4cd6c46ec41d574873bd75a896ff1bfa036e256f93dbadf15a02a2f0ba0cfd460cf9f7ba630572445944e233d56cd6a244331f9435a11521d2e78f12f647643588735921ae8ea94e07955852b550134bdf16fe0f5d000f98f0ee36bc74fd7308ebcc8cfe5d86b44be62aaebbead87c51a468c33e2dcb9d06df850652d1a1768ff727553aa115c093dd20c45b6e14ba8c075ea5a3bd0c77d1b98bf954e461f72bbe4690bf7a9c10d1d415c40d19b07cd7c51a52216f06e275ecec8497c380bbe63ca3b19824566960fe7f87abf584eef0f42690d4ee825689160a316694d96c92ed33122bd323535e0e290cf3bee105a655cb316413d47cd0d031535024b2a079b4440ae8fcf5b55c455e64af9e457f714e3d6010fa763520b9e4eba51e86439e1d61f6dce274561109884933ad2c8937a4e45a3b92503c02c8b6023f049b8a31e7cb82624183a915502a582665a4cdbf6f8c3275fc4b4c956f23e9ed580290ceb35be138f8373027620021a0608ef1006c95d1a8e6a17a88c833236641ab150c6201420a165cd892d86d984addcda561ab1c413c7f614cc474f20559403775810cb7aeab3f3858cba6b60a863ce0a593052f4612934b405cf152e97421f62e0332fb9831a632119f7d97084ed27e383b933cbd71598a458c50bd4ba4ab1c95b85ec4fb8109819d129814688868dd9be78187bcd55b386a2d0283f935a02440a7680e582dbb8e722775744a29891b5502b36865be214770af89d4b87ccbae5ae8ac8baef219b8224ea2fe41404794ab6ed1901d092c5916127d8edb0a7ea2c55000adca6a797e9d8180b038dba82a9008afa49b77370748aa112f0d72e6940b77b315c1e981bb6e43cf591836f0da9f8a05db27ad876edc55315a20615d8665ab48d78dfec92d2bf0b20ef2a3bb66c0e87b9e940908bc816941b47600f1ab12bca36fff58646c2b995bbe6ee7c01a084b5f8ebbe45a5d25bee26796b98e017b6f23f6b9f5b770c84afa98da384707fea1d9d66c9d4446be3f89c41289e3423070726557027778597d732d9d302da95549efb94a9ee51278df8936f1a2619ab81bf1a00ffcca5b01fe4fa926b1d35e7ec4bea07b12d5064242f297bf6df6a0f0980f4e12395ce588889336eda8f2c8d542cd0700e301b967fd4103671f966feefe0e67f24dcf9a64bdab7a0efbacf073d5af51d7944cd941e0068024fcda992760df98fa7cb00899b801bf0d112cfb0d9bbd4e73305ac6c26e48ee5efcab6ca79e99f60f12571e8f82bf089b74f2c12b2dd3f7df4377d6bf2b4ff7edf26c36153951ac747ba0a1482dd3f17ea9c0127805dcb7662d2830dcc94375c1eaeb925e21750bccb13181c70bbf186dd67b5c70a9e0d90b300f3884720b2ae5e74cc08c03780b2a1122635904cb4937dbc861c5b004f49d1e5b62e8a2e1419cee5ac845cedf89d5bf13876385c5015ab390db4a87064982c7b17646838eb9731f2b8f169aefb36cba653ccfa1496dee4b275e0b29a7907631a89c68ca68b8c3012d2e24d213c2115a6b58e22e9094d027b797c81cd0614e51f3f0a7d8d2c3ddf991b1f2d8fa799195e9d941856a327f93cb026f3ce2549300487061fe0d7757dd9143feb14105f2b480cc6b5ef0dce3b559fe8bd44e00467edaa5ff50b4380aa3eccb61fead448c58f30f66bd25964dda7dde2496ee95245634aa1bb8c46da85ff0ba8e8555f0f75b2f76e002349b68b58a6d59b155498bbd85e4d160f2cc50ad64ba89e03e4fae82691061fe0ab42ccfb15d770f2f44f079fb1837ec8c29b7ed95fb132b8c2c089c495d292ba484222252e2cfbadda59d5280d6863264d747fc471952fcf842662b28630bb7627bb91116bf13c1a2765f9fa5da0573b6ee0752c7d18069f3f7ad68b8d188de294f0f5ea6ae03289bff1748d91f5f559a3e9a5ff20d94b4a67e044813d162bd4a5a099f9e325e98f9934badf07152f479908bac6ef04ec2cb50eb965b6573b0c2cfb07d57c76a14cd455785d1882743add3c71807a9de2b0abe4446554c18ea1153dd02a6aa0f134ad001daefea990883c22b4af2e3498e005839506cdfa8071d1bcb10c63150a2a25ea27519409f9e3779b60081e810d730117ef417c44365444e68877fb08db779da7e75d5d3e341983e4a23682e5daff27830a020f8c66e2c90a8332d94326f571a0dc3d950c9bb46e3c2a1f0cfd2a2d1ef23b135b202972a5bb0327931250649d0e0591c7a4eb012e1d519dbcab51a04cacd7801c4452848e5cfb19f55c1bc9ad6d13edcc5ab53a7e13e9590491805af88743ff2d1469f9f01cdf99c2a159cd1ccdb51828a303cc24093535a34bbdbd3a60480f1862ddb5dfdd333c3829fdcbd69b7d3327e8c23ba036dc6849031d9e05d937c6065b00f3e2f5622b894cc1734cbe4576ff453d613ef0f0828c5818d1f79a540e93ceb2c03c7e0e876da7d35796169ebd57ab762e7818eab72bebe857577a4f8176d3d6128eaac4528bb6be1cdb27a690c469a4b09dc6286910f9dfffb349d114b6cdc079034b0456551eca9da6ac753cafc8bae2a9fcd7080a4c1c216ae7abe81ece0ef259222c3127570f13d9b3a1a374ed3be2616a882f4dd902d1073cbe1d17faf1f47678e9746aea0675df02a544a999e6797c613e132253d2de43bf2f9b716af126396163224dcc5e32e709ffccd2a5852f7c12c6110bb9f64042d873070554664d0b7bbb62f3557e03ec6b7e21bda022b3a7bf17724e61c30cb0c8bb651f9849b79e2049a8fbb8a1aa6d701a969e500b563fc9adf3a39056b0c00fd9e798ad5be994b3da4498a4e1ff1f7d57c26f0e8d696fcd46b905b2365d16820c7e381e850c4f3f5d31098a87396d3b1af34fad2534e105e5854a640fc7b7660279ecbc75c4c3a6b79c3a4fb2249c1e2052899d54daef6fa6640c117833cb74bbba90ba65a96bbf6c8d674a75530377b4498fb8563639fb360fd9da52693951c57fdf950bb59fcf62a5e5714ba4078f627de6e9de0ad42c1ddaea58ae50a6108b388afafc8fb849ced310c3fb95fd2a99aecfb7a68c5f0c015b3edd6c8f49426b1501cac685f384f05ccfa61094062bd49619703aa6c88cdd1234dcf8047a6b6659edc3f12db752d3724259eee9b5d1d02ef61896644dea517ea7275be271485b1b657c738e0779fd8091884abe41c700b828c96af699cea3bb3ec577f5139f11171f0d5a9e9e90fa661e06cb374a695558ad671d8dd767571a3b93ac82da2046c1c32d7731e684fcf63976ce8256b23798262f3dda87bbdf3a1020d1e1f2441464ca8c7d4f9030b4164677b7e98add2e2383b40697e92bfc8c90a141f232c3372a3a7cbef000000000000000000000000000000000000000000000000000000000000000000000000000c17202b01fd210500c4ce5842188874387c0de48bf67287c555ff2cab68650098917286fd2b952062b3abe4bf7273ab7eb0827d6e0596dfdb2a11222b18b01f5e184ca21bb5a83b503682ed981d0eb8cb8f94f8d4fab891856381dbb166b9050355c59b188001213649f61e13f7d6ef043d47713815cf127e6a38853383fd58d3f6749b4b49ea2a429374104b777197fe192dadacabd3da5e725145255e67ea56fdd98b35b2f9c9f00e5903f583655ea63bd719df830e4d6a387f8b85bd2efabbc9ae98f938f032ebdcb0b6199b787bf7e44745f557fbde9e55763bcd14b4c1c4b3c5a4c53b3ce4c04693be7bf45f8fb28476193e0d94d1cb32d694a565f1c3b3cba416ad2f15d967b4013c5863c24b39519f8014bd43de1ab3ac4ad4479640da49851ec7e0e790ef90808f33c019b86c6d6b0122bb45d79e2a2ffd55a5655b189c237102a5a90538efb800cfebb02978a7189714871b47c73224a37d98f84cdd09a041f61fc7a91bb271cac85e8786cbb3f1179650a92b9d01b7eb3e09a327ce84f4897af427b555546caccf74ed6f89c670f2951fcba2ae75c134f3aa15342e97f13a43961eec81892658efa029f3a954ad850324c679318a0b1ce717011d1a2f2a5e07149b7d434d92be5ca6aef86e210e6739575080842f5ceb717d723a8419af7f433ecc21f64e540afa9905f2aee956d983c009e1612d3051d4e786d8f24f17d30b7c809c25cfb4eaf0e252f7bdc465fb8b00d102a208998ae44a735fd7120fa0b7e5113274d0b82187c480113bfee898840eba1717c5d6cde2feb99329a8a855949aafa5ebbfcde5a8259646236de185acb79165b16e86064297220a1a1ac5dbdd6604d1e54b7e31c2156f327cd379ee80984147f98bb321ecaf88733ef5f69b4724c1a24c13bc876ad7d94f54102378f60c7c41f6cc99819231e85be1097d68b65afc7bb17bdf5ad78beaaf9d914ec2c77bb5d84277511c8dd8c3a2046a3ee15ed047061588de9b3efb9b1c22711a4219d28ed7d9832b3dc607785f23f0074ebf08ec013cba569d3ce893d32d568c80e2c462af0ef365ea4123d7f35d6b812d3dfe84ea0de68c39aab9cc3b4db57131914ef53b3684a1034839afd49ee03448026b82ae631f0c078e58258eb9b1901aa7c94e33a947e04dfa0d539ff9cb9e2bc1ea233cb4342bb0b68e49448798e4bfb35aabae2a5d0d0d9a971c28db9186337119ca513b43dacf9fdb28e3f6dd13bd56196655d22f60f6dbcd501e80891963e7a74e7baabae2a7b8a54aeefd95ee4af11bf1c5d45d0de7e7089dc4ddd84023f52058ea8fe9181f953642a1d5922da57c89021820e24518be7430bde46cd8dcd95eddf3ebb7167c350931a025792939e81f109dead0dfc7d8172c1da753afe3937bcdf47a9174697e93328183a41da95fd30ff4d2cb6b1cbdd2f86f61f36d3e727ee2482d63bfd35eeb215d6eac2dffc0482f280374f0791c81183eb910b82b6714a6933eceb34b5d91c9890e9e0e049b25b69dea585adf58507e67e41040b9139e230dcde811180b55c17f4e92a5e779d455e2cd63752e45da46cc0391260a5b250ea43dd7b4df7ae5622ac37c93693b41d16a3f072a7bb387d3f12b01b625701f833fd3f31f5d1050786589acdd41eb58f593414fd3d6bd5864d6b2f2fdd8f6710c51b23f08e4b349d0e5db0db448074af2196595dbc6a772f5512e192f4a6227ac9ca2e7b38d16f9712464a5fe0fcf40aa9749911d892e9684b56b49fd8594b91b87b33808e4e57a9ff6a438840fed7054bffc0ec281f25a5fdbf979b55d3f6005edc23cfa2cdcb53f2a2f790ea452d6a896bc0cea4fb3d075b5ca9cf54886fe14e7986b000000",
  "txid": "caca78bb02925dd55cbead0936c0839b664fc2137de6cbe315b1826514e1b50a",
  "hash": "db8d36fdf864488d7f191822cf94cdc155429315276d7ed0b8753c2de583b129",
  "size": 5085,
  "vsize": 2278,
  "version": 1,
  "locktime": 107,
  "vin": [
    {
      "txid": "798edce33f5f3c06638201348dcc6c6f91b2c9045391db0e35054789b6c005fc",
      "vout": 1,
      "scriptSig": {
        "asm": "",
        "hex": ""
      },
      "txinwitness": [
        "2330dc4cd6c46ec41d574873bd75a896ff1bfa036e256f93dbadf15a02a2f0ba0cfd460cf9f7ba630572445944e233d56cd6a244331f9435a11521d2e78f12f647643588735921ae8ea94e07955852b550134bdf16fe0f5d000f98f0ee36bc74fd7308ebcc8cfe5d86b44be62aaebbead87c51a468c33e2dcb9d06df850652d1a1768ff727553aa115c093dd20c45b6e14ba8c075ea5a3bd0c77d1b98bf954e461f72bbe4690bf7a9c10d1d415c40d19b07cd7c51a52216f06e275ecec8497c380bbe63ca3b19824566960fe7f87abf584eef0f42690d4ee825689160a316694d96c92ed33122bd323535e0e290cf3bee105a655cb316413d47cd0d031535024b2a079b4440ae8fcf5b55c455e64af9e457f714e3d6010fa763520b9e4eba51e86439e1d61f6dce274561109884933ad2c8937a4e45a3b92503c02c8b6023f049b8a31e7cb82624183a915502a582665a4cdbf6f8c3275fc4b4c956f23e9ed580290ceb35be138f8373027620021a0608ef1006c95d1a8e6a17a88c833236641ab150c6201420a165cd892d86d984addcda561ab1c413c7f614cc474f20559403775810cb7aeab3f3858cba6b60a863ce0a593052f4612934b405cf152e97421f62e0332fb9831a632119f7d97084ed27e383b933cbd71598a458c50bd4ba4ab1c95b85ec4fb8109819d129814688868dd9be78187bcd55b386a2d0283f935a02440a7680e582dbb8e722775744a29891b5502b36865be214770af89d4b87ccbae5ae8ac8baef219b8224ea2fe41404794ab6ed1901d092c5916127d8edb0a7ea2c55000adca6a797e9d8180b038dba82a9008afa49b77370748aa112f0d72e6940b77b315c1e981bb6e43cf591836f0da9f8a05db27ad876edc55315a20615d8665ab48d78dfec92d2bf0b20ef2a3bb66c0e87b9e940908bc816941b47600f1ab12bca36fff58646c2b995bbe6ee7c01a084b5f8ebbe45a5d25bee26796b98e017b6f23f6b9f5b770c84afa98da384707fea1d9d66c9d4446be3f89c41289e3423070726557027778597d732d9d302da95549efb94a9ee51278df8936f1a2619ab81bf1a00ffcca5b01fe4fa926b1d35e7ec4bea07b12d5064242f297bf6df6a0f0980f4e12395ce588889336eda8f2c8d542cd0700e301b967fd4103671f966feefe0e67f24dcf9a64bdab7a0efbacf073d5af51d7944cd941e0068024fcda992760df98fa7cb00899b801bf0d112cfb0d9bbd4e73305ac6c26e48ee5efcab6ca79e99f60f12571e8f82bf089b74f2c12b2dd3f7df4377d6bf2b4ff7edf26c36153951ac747ba0a1482dd3f17ea9c0127805dcb7662d2830dcc94375c1eaeb925e21750bccb13181c70bbf186dd67b5c70a9e0d90b300f3884720b2ae5e74cc08c03780b2a1122635904cb4937dbc861c5b004f49d1e5b62e8a2e1419cee5ac845cedf89d5bf13876385c5015ab390db4a87064982c7b17646838eb9731f2b8f169aefb36cba653ccfa1496dee4b275e0b29a7907631a89c68ca68b8c3012d2e24d213c2115a6b58e22e9094d027b797c81cd0614e51f3f0a7d8d2c3ddf991b1f2d8fa799195e9d941856a327f93cb026f3ce2549300487061fe0d7757dd9143feb14105f2b480cc6b5ef0dce3b559fe8bd44e00467edaa5ff50b4380aa3eccb61fead448c58f30f66bd25964dda7dde2496ee95245634aa1bb8c46da85ff0ba8e8555f0f75b2f76e002349b68b58a6d59b155498bbd85e4d160f2cc50ad64ba89e03e4fae82691061fe0ab42ccfb15d770f2f44f079fb1837ec8c29b7ed95fb132b8c2c089c495d292ba484222252e2cfbadda59d5280d6863264d747fc471952fcf842662b28630bb7627bb91116bf13c1a2765f9fa5da0573b6ee0752c7d18069f3f7ad68b8d188de294f0f5ea6ae03289bff1748d91f5f559a3e9a5ff20d94b4a67e044813d162bd4a5a099f9e325e98f9934badf07152f479908bac6ef04ec2cb50eb965b6573b0c2cfb07d57c76a14cd455785d1882743add3c71807a9de2b0abe4446554c18ea1153dd02a6aa0f134ad001daefea990883c22b4af2e3498e005839506cdfa8071d1bcb10c63150a2a25ea27519409f9e3779b60081e810d730117ef417c44365444e68877fb08db779da7e75d5d3e341983e4a23682e5daff27830a020f8c66e2c90a8332d94326f571a0dc3d950c9bb46e3c2a1f0cfd2a2d1ef23b135b202972a5bb0327931250649d0e0591c7a4eb012e1d519dbcab51a04cacd7801c4452848e5cfb19f55c1bc9ad6d13edcc5ab53a7e13e9590491805af88743ff2d1469f9f01cdf99c2a159cd1ccdb51828a303cc24093535a34bbdbd3a60480f1862ddb5dfdd333c3829fdcbd69b7d3327e8c23ba036dc6849031d9e05d937c6065b00f3e2f5622b894cc1734cbe4576ff453d613ef0f0828c5818d1f79a540e93ceb2c03c7e0e876da7d35796169ebd57ab762e7818eab72bebe857577a4f8176d3d6128eaac4528bb6be1cdb27a690c469a4b09dc6286910f9dfffb349d114b6cdc079034b0456551eca9da6ac753cafc8bae2a9fcd7080a4c1c216ae7abe81ece0ef259222c3127570f13d9b3a1a374ed3be2616a882f4dd902d1073cbe1d17faf1f47678e9746aea0675df02a544a999e6797c613e132253d2de43bf2f9b716af126396163224dcc5e32e709ffccd2a5852f7c12c6110bb9f64042d873070554664d0b7bbb62f3557e03ec6b7e21bda022b3a7bf17724e61c30cb0c8bb651f9849b79e2049a8fbb8a1aa6d701a969e500b563fc9adf3a39056b0c00fd9e798ad5be994b3da4498a4e1ff1f7d57c26f0e8d696fcd46b905b2365d16820c7e381e850c4f3f5d31098a87396d3b1af34fad2534e105e5854a640fc7b7660279ecbc75c4c3a6b79c3a4fb2249c1e2052899d54daef6fa6640c117833cb74bbba90ba65a96bbf6c8d674a75530377b4498fb8563639fb360fd9da52693951c57fdf950bb59fcf62a5e5714ba4078f627de6e9de0ad42c1ddaea58ae50a6108b388afafc8fb849ced310c3fb95fd2a99aecfb7a68c5f0c015b3edd6c8f49426b1501cac685f384f05ccfa61094062bd49619703aa6c88cdd1234dcf8047a6b6659edc3f12db752d3724259eee9b5d1d02ef61896644dea517ea7275be271485b1b657c738e0779fd8091884abe41c700b828c96af699cea3bb3ec577f5139f11171f0d5a9e9e90fa661e06cb374a695558ad671d8dd767571a3b93ac82da2046c1c32d7731e684fcf63976ce8256b23798262f3dda87bbdf3a1020d1e1f2441464ca8c7d4f9030b4164677b7e98add2e2383b40697e92bfc8c90a141f232c3372a3a7cbef000000000000000000000000000000000000000000000000000000000000000000000000000c17202b01",
        "00c4ce5842188874387c0de48bf67287c555ff2cab68650098917286fd2b952062b3abe4bf7273ab7eb0827d6e0596dfdb2a11222b18b01f5e184ca21bb5a83b503682ed981d0eb8cb8f94f8d4fab891856381dbb166b9050355c59b188001213649f61e13f7d6ef043d47713815cf127e6a38853383fd58d3f6749b4b49ea2a429374104b777197fe192dadacabd3da5e725145255e67ea56fdd98b35b2f9c9f00e5903f583655ea63bd719df830e4d6a387f8b85bd2efabbc9ae98f938f032ebdcb0b6199b787bf7e44745f557fbde9e55763bcd14b4c1c4b3c5a4c53b3ce4c04693be7bf45f8fb28476193e0d94d1cb32d694a565f1c3b3cba416ad2f15d967b4013c5863c24b39519f8014bd43de1ab3ac4ad4479640da49851ec7e0e790ef90808f33c019b86c6d6b0122bb45d79e2a2ffd55a5655b189c237102a5a90538efb800cfebb02978a7189714871b47c73224a37d98f84cdd09a041f61fc7a91bb271cac85e8786cbb3f1179650a92b9d01b7eb3e09a327ce84f4897af427b555546caccf74ed6f89c670f2951fcba2ae75c134f3aa15342e97f13a43961eec81892658efa029f3a954ad850324c679318a0b1ce717011d1a2f2a5e07149b7d434d92be5ca6aef86e210e6739575080842f5ceb717d723a8419af7f433ecc21f64e540afa9905f2aee956d983c009e1612d3051d4e786d8f24f17d30b7c809c25cfb4eaf0e252f7bdc465fb8b00d102a208998ae44a735fd7120fa0b7e5113274d0b82187c480113bfee898840eba1717c5d6cde2feb99329a8a855949aafa5ebbfcde5a8259646236de185acb79165b16e86064297220a1a1ac5dbdd6604d1e54b7e31c2156f327cd379ee80984147f98bb321ecaf88733ef5f69b4724c1a24c13bc876ad7d94f54102378f60c7c41f6cc99819231e85be1097d68b65afc7bb17bdf5ad78beaaf9d914ec2c77bb5d84277511c8dd8c3a2046a3ee15ed047061588de9b3efb9b1c22711a4219d28ed7d9832b3dc607785f23f0074ebf08ec013cba569d3ce893d32d568c80e2c462af0ef365ea4123d7f35d6b812d3dfe84ea0de68c39aab9cc3b4db57131914ef53b3684a1034839afd49ee03448026b82ae631f0c078e58258eb9b1901aa7c94e33a947e04dfa0d539ff9cb9e2bc1ea233cb4342bb0b68e49448798e4bfb35aabae2a5d0d0d9a971c28db9186337119ca513b43dacf9fdb28e3f6dd13bd56196655d22f60f6dbcd501e80891963e7a74e7baabae2a7b8a54aeefd95ee4af11bf1c5d45d0de7e7089dc4ddd84023f52058ea8fe9181f953642a1d5922da57c89021820e24518be7430bde46cd8dcd95eddf3ebb7167c350931a025792939e81f109dead0dfc7d8172c1da753afe3937bcdf47a9174697e93328183a41da95fd30ff4d2cb6b1cbdd2f86f61f36d3e727ee2482d63bfd35eeb215d6eac2dffc0482f280374f0791c81183eb910b82b6714a6933eceb34b5d91c9890e9e0e049b25b69dea585adf58507e67e41040b9139e230dcde811180b55c17f4e92a5e779d455e2cd63752e45da46cc0391260a5b250ea43dd7b4df7ae5622ac37c93693b41d16a3f072a7bb387d3f12b01b625701f833fd3f31f5d1050786589acdd41eb58f593414fd3d6bd5864d6b2f2fdd8f6710c51b23f08e4b349d0e5db0db448074af2196595dbc6a772f5512e192f4a6227ac9ca2e7b38d16f9712464a5fe0fcf40aa9749911d892e9684b56b49fd8594b91b87b33808e4e57a9ff6a438840fed7054bffc0ec281f25a5fdbf979b55d3f6005edc23cfa2cdcb53f2a2f790ea452d6a896bc0cea4fb3d075b5ca9cf54886fe14e798"
      ],
      "sequence": 4294967294
    }
  ],
  "vout": [
    {
      "value": 499990.8479,
      "n": 0,
      "scriptPubKey": {
        "asm": "1 3979588aad6e257ff507c8711cbc095f9f9c578cc75a0d2d08fad3f28b9e3a80",
        "hex": "51203979588aad6e257ff507c8711cbc095f9f9c578cc75a0d2d08fad3f28b9e3a80",
        "reqSigs": 1,
        "type": "witness_v1_scripthash",
        "addresses": [
          "3QJmnh"
        ]
      }
    },
    {
      "value": 1.0,
      "n": 1,
      "scriptPubKey": {
        "asm": "OP_RETURN 16e56fb9c0ca620e30520737ccdf6c380777036de878b72ec5b8996b62de98cc 19b5050ef935ab01e4bbadcac9005952edddfc7f3c40e43a99662cd242eb4ba33995252ed9158b21c49b8deae9207972cdfddc5f1c60c41ab9460cf262cb6b8359f5454eb975eb41a4fbed8a89401912ad9dbc3f7c00a47ad9266c9202ab0be379d5656e9955cb6184dbcdaaa96039328dbd9c1f5c20845af9064cb2228b2bc39935858e79b52b81643b2d4a4980d9d26d5d7cffbcc064ba19e6ac52c26bcb23b915a5ae59950ba1441b0d6a69a0f9f24d7d5cdf9ce0449a39c68c72e24beb03d975c5ce39f56bc1247b6d0a09c099922d1d3cbffc8024fa59a6ec12822b8b63f955e5ee19d54be1045b4d2a29e0b9b20d3d1c9fdca004da7986cc32a20bab4319b5050ef935ab01e4bbadcac9005952edddfc7f3c40e43a99662cd242eb4ba33995252ed9158b21c49b8deae9207972cdfddc5f1c60c41ab9460cf262cb6b8359f5454eb975eb41a4fbed8a89401912ad9dbc3f7c00a47ad9266c9202ab0be379d5656e9955cb6184dbcdaaa96039328dbd9c1f5c20845af9064cb2228b2bc39935858e79b52b81643b2d4a4980d9d26d5d7cffbcc064ba19e6ac52c26bcb23b915a5ae59950ba1441b0d6a69a0f9f24d7d5cdf9ce0449a39c68c72e24beb03d975c5ce39f56bc1247b6d0a09c099922d1d3cbffc8024fa59a6ec12822b8b63f955e5ee19d54be1045b4d2a29e0b9b20d3d1c9fdca004da7986cc32a20bab4319b5050ef935ab01e4bbadcac9005952edddfc7f3c40e43a99662cd242eb4ba33995252ed9158b21c49b8deae9207972cdfddc5f1c60c41ab9460cf262cb6b8359f5454eb975eb41a4fbed8a89401912ad9dbc3f7c00a47ad9266c9202ab0be379d5656e9955cb6184dbcdaaa96039328dbd9c1f5c20845af9064cb2228b2bc39935858e79b52b81643b2d4a4980d9d26d5d7cffbcc064ba19e6ac52c26bcb23b915a5ae59950ba1441b0d6a69a0f9f24d7d5cdf9ce0449a39c68c72e24beb03d975c5ce39f56bc1247b6d0a09c099922d1d3cbffc8024fa59a6ec12822b8b63f955e5ee19d54be1045b4d2a29e0b9b20d3d1c9fdca004da7986cc32a20bab4319b5050ef935ab01e4bbadcac9005952edddfc7f3c40e43a99662cd242eb4ba33995252ed9158b21c49b8deae9207972cdfddc5f1c60c41ab9460cf262cb6b8359f5454eb975eb41a4fbed8a89401912ad9dbc3f7c00a47ad9266c9202ab0be379d5656e9955cb6184dbcdaaa96039328dbd9c1f5c20845af9064cb2228b2bc39935858e79b52b81643b2d4a4980d9d26d5d7cffbcc064ba19e6ac52c26bcb23b915a5ae59950ba1441b0d6a69a0f9f24d7d5cdf9ce0449a39c68c72e24beb03d975c5ce39f56bc1247b6d0a09c099922d1d3cbffc8024fa59a6ec12822b8b63f955e5ee19d54be1045b4d2a29e0b9b20d3d1c9fdca004da7986cc32a20bab4319b5050ef935ab01e4bbadcac9005952edddfc7f3c40e43a99662cd242eb4ba33995252ed9158b21c49b8deae9207972cdfddc5f1c60c41ab9460cf262cb6b8359f5454eb975eb41a4fbed8a89401912ad9dbc3f7c00a47ad9266c9202ab0be379d5656e9955cb6184dbcdaaa96039328dbd9c1f5c20845af9064cb2228b2bc39935858e79b52b81643b2d4a4980d9d2268fa53115f381a25b3e08833769d65b159445ff885d71fdfe21835535253eb6",
        "hex": "6a2016e56fb9c0ca620e30520737ccdf6c380777036de878b72ec5b8996b62de98cc4db00419b5050ef935ab01e4bbadcac9005952edddfc7f3c40e43a99662cd242eb4ba33995252ed9158b21c49b8deae9207972cdfddc5f1c60c41ab9460cf262cb6b8359f5454eb975eb41a4fbed8a89401912ad9dbc3f7c00a47ad9266c9202ab0be379d5656e9955cb6184dbcdaaa96039328dbd9c1f5c20845af9064cb2228b2bc39935858e79b52b81643b2d4a4980d9d26d5d7cffbcc064ba19e6ac52c26bcb23b915a5ae59950ba1441b0d6a69a0f9f24d7d5cdf9ce0449a39c68c72e24beb03d975c5ce39f56bc1247b6d0a09c099922d1d3cbffc8024fa59a6ec12822b8b63f955e5ee19d54be1045b4d2a29e0b9b20d3d1c9fdca004da7986cc32a20bab4319b5050ef935ab01e4bbadcac9005952edddfc7f3c40e43a99662cd242eb4ba33995252ed9158b21c49b8deae9207972cdfddc5f1c60c41ab9460cf262cb6b8359f5454eb975eb41a4fbed8a89401912ad9dbc3f7c00a47ad9266c9202ab0be379d5656e9955cb6184dbcdaaa96039328dbd9c1f5c20845af9064cb2228b2bc39935858e79b52b81643b2d4a4980d9d26d5d7cffbcc064ba19e6ac52c26bcb23b915a5ae59950ba1441b0d6a69a0f9f24d7d5cdf9ce0449a39c68c72e24beb03d975c5ce39f56bc1247b6d0a09c099922d1d3cbffc8024fa59a6ec12822b8b63f955e5ee19d54be1045b4d2a29e0b9b20d3d1c9fdca004da7986cc32a20bab4319b5050ef935ab01e4bbadcac9005952edddfc7f3c40e43a99662cd242eb4ba33995252ed9158b21c49b8deae9207972cdfddc5f1c60c41ab9460cf262cb6b8359f5454eb975eb41a4fbed8a89401912ad9dbc3f7c00a47ad9266c9202ab0be379d5656e9955cb6184dbcdaaa96039328dbd9c1f5c20845af9064cb2228b2bc39935858e79b52b81643b2d4a4980d9d26d5d7cffbcc064ba19e6ac52c26bcb23b915a5ae59950ba1441b0d6a69a0f9f24d7d5cdf9ce0449a39c68c72e24beb03d975c5ce39f56bc1247b6d0a09c099922d1d3cbffc8024fa59a6ec12822b8b63f955e5ee19d54be1045b4d2a29e0b9b20d3d1c9fdca004da7986cc32a20bab4319b5050ef935ab01e4bbadcac9005952edddfc7f3c40e43a99662cd242eb4ba33995252ed9158b21c49b8deae9207972cdfddc5f1c60c41ab9460cf262cb6b8359f5454eb975eb41a4fbed8a89401912ad9dbc3f7c00a47ad9266c9202ab0be379d5656e9955cb6184dbcdaaa96039328dbd9c1f5c20845af9064cb2228b2bc39935858e79b52b81643b2d4a4980d9d26d5d7cffbcc064ba19e6ac52c26bcb23b915a5ae59950ba1441b0d6a69a0f9f24d7d5cdf9ce0449a39c68c72e24beb03d975c5ce39f56bc1247b6d0a09c099922d1d3cbffc8024fa59a6ec12822b8b63f955e5ee19d54be1045b4d2a29e0b9b20d3d1c9fdca004da7986cc32a20bab4319b5050ef935ab01e4bbadcac9005952edddfc7f3c40e43a99662cd242eb4ba33995252ed9158b21c49b8deae9207972cdfddc5f1c60c41ab9460cf262cb6b8359f5454eb975eb41a4fbed8a89401912ad9dbc3f7c00a47ad9266c9202ab0be379d5656e9955cb6184dbcdaaa96039328dbd9c1f5c20845af9064cb2228b2bc39935858e79b52b81643b2d4a4980d9d2268fa53115f381a25b3e08833769d65b159445ff885d71fdfe21835535253eb6",
        "type": "nulldata"
      }
    }
  ],
  "blockhash": "70f7ec20af3843e0d144de9ce3637c8baa62723aad58289fd59c71fdb9075fdf",
  "confirmations": 1,
  "time": 1764177228,
  "blocktime": 1764177228
}