{
  "hex": "010000000001012a0938376f7ac1251ac227da41f234153de1b414c2dc70cacabe92572ab114f80000000000feffffff02702338c0782d00002251208187275e75b20c5214958a28467f4b4a7580352e7501663c18db9c23811a229c00e1f50500000000fdd5046a20c39c629b66cf56eb77010559eea6005603a6b55c55388baf99fd418beb5d6eb54db0048aad86529b504fdf323aff27d77c7c1825a35887173e5a6e1c566ed18d6525cbaa8da672bb706fff121adf07f75c5c38058378a7371e7a4e3c764ef1ad4505ebcaedc612db100f9f727abf67973c3c5865e318c7577e1a2e5c162e91cd25658beacde632fb302fbf525a9f47b71c1c7845c338e7775e3a0e7c360eb1ed0545ab0a2d06d21bd0cf5fb2ba7fa757fcfc98a523d80797bedaee9cd6ee510de5a54b2a0d26f23bf0ef7f929a5f8777dcdcb88503f827b79efacebcf6ce712dc5856b4a6d46925b908f1ff2fa3fe717bcbcd8e5639847d7fe9aaedc96ae114da5e50b6a4d66b27bb0af3fd2da1fc7379c9cf8c543b867f7deba8efcb68e316d85c52b8aad86529b504fdf323aff27d77c7c1825a35887173e5a6e1c566ed18d6525cbaa8da672bb706fff121adf07f75c5c38058378a7371e7a4e3c764ef1ad4505ebcaedc612db100f9f727abf67973c3c5865e318c7577e1a2e5c162e91cd25658beacde632fb302fbf525a9f47b71c1c7845c338e7775e3a0e7c360eb1ed0545ab0a2d06d21bd0cf5fb2ba7fa757fcfc98a523d80797bedaee9cd6ee510de5a54b2a0d26f23bf0ef7f929a5f8777dcdcb88503f827b79efacebcf6ce712dc5856b4a6d46925b908f1ff2fa3fe717bcbcd8e5639847d7fe9aaedc96ae114da5e50b6a4d66b27bb0af3fd2da1fc7379c9cf8c543b867f7deba8efcb68e316d85c52b8aad86529b504fdf323aff27d77c7c1825a35887173e5a6e1c566ed18d6525cbaa8da672bb706fff121adf07f75c5c38058378a7371e7a4e3c764ef1ad4505ebcaedc612db100f9f727abf67973c3c5865e318c7577e1a2e5c162e91cd25658beacde632fb302fbf525a9f47b71c1c7845c338e7775e3a0e7c360eb1ed0545ab0a2d06d21bd0cf5fb2ba7fa757fcfc98a523d80797bedaee9cd6ee510de5a54b2a0d26f23bf0ef7f929a5f8777dcdcb88503f827b79efacebcf6ce712dc5856b4a6d46925b908f1ff2fa3fe717bcbcd8e5639847d7fe9aaedc96ae114da5e50b6a4d66b27bb0af3fd2da1fc7379c9cf8c543b867f7deba8efcb68e316d85c52b8aad86529b504fdf323aff27d77c7c1825a35887173e5a6e1c566ed18d6525cbaa8da672bb706fff121adf07f75c5c38058378a7371e7a4e3c764ef1ad4505ebcaedc612db100f9f727abf67973c3c5865e318c7577e1a2e5c162e91cd25658beacde632fb302fbf525a9f47b71c1c7845c338e7775e3a0e7c360eb1ed0545ab0a2d06d21bd0cf5fb2ba7fa757fcfc98a523d80797bedaee9cd6ee510de5a54b2a0d26f23bf0ef7f929a5f8777dcdcb88503f827b79efacebcf6ce712dc5856b4a6d46925b908f1ff2fa3fe717bcbcd8e5639847d7fe9aaedc96ae114da5e50b6a4d66b27bb0af3fd2da1fc7379c9cf8c543b867f7deba8efcb68e316d85c52b8aad86529b504fdf323aff27d77c7c1825a35887173e5a6e1c566ed18d6525cbaa8da672bb706fff121adf07f75c5c38058378a7371e7a4e3c764ef1ad4505ebcaedc612db100f9f727abf67973c3c5865e318c7577e1a2e5c162e91cd25658beacde632fb302fbf525a9f47b71c1c7845c338e7775e3a0e7c360eb1ed0545ab0a2d06d21bd0cf5fb2ba7fa757fcfc9857b8ee568fad35434ae710651a0acc7b636e4d8dbff02ba9ab8da132fb46e2ca02fd7509f9939cbbce83c52a937aa9543fa615ab33b5a918df5c1e4f2b66f59767036d7ea4968c6220a1a96737f1519358eee2a2c3a0d103d922225e288e7a001444d0edc644a330ec156dcb5f3a9f41adf8f287c9d454e33e8943e522542ebcbb6f53ad0bbefe5ce7fe944ed152f56732f2d527fe9dc68ae6f41ab0bbf1b0ec19d497ec466759631b01debadc6eb0a96b95ffad5086f5f412cf417f58b1f3e8e9533deceef7970ce6be646e0bbca0ad63a5cae39d49a91f66ac9b2a015f42915d393e92b2cd8748209b37e11f20da12c7f5f85f257decac13166d6ab7d6b569007d954f16445e5dc72c21decf7fe4c27c96aeba33d937f586dfe478fac12ba3180eea963a36280289a72afae2ad5180c9062b9e08258d55cf7774236df67cefcdc004436c6702e83786be8adcde41e3677aa510621b3811e0b81f7c3f1b9981b863f2e8c732d7215e6b80840b40c48e55c5e439e1342683ac2054b8812b2bd016aa4e492e09abfea69afc55b75c656a4eb8faf040ffe5b80832c7ef82a59952fa2b1700f9eb7f2fef8f2da01e490570172bd0f7e3e64d04f8fcf628d827a31bf0d3d40466b4476c75c907a57548bbca50726fc1c2c93541b4a503caad3f12c6c5aa26e6f7e00b52504c8d036cd67f7bb1f3be4f21b7314d5cb4d383974a8229c680beb359c65021c530ed74a75865267da142febc84669281ca8e4c29a274e7216b91a6927aa23bb52807ac78ac6174e4783fdf36f038b217e7b015111218a51be93085ccc2cbb1ad0e4ad36e86bc30aa4dc8e0f069b857cc4c41ec8eaab08a7d4bd78c7f9832024e616bbb41215416c48f6d45918f9a82e54d6adb31a97881d1c47433f9743a15db868e2e03c596e7a79b5d731b044cf2c8cf52a1dc487ccbdcead39cc1e231f9a3f2103ca658956bb1bd39bb15b594804e11fd56ccade423e8582de30cd3046265629f575e4f0d5f32cb00937bbeb26b23df7976d4406392d88f795454855f45a343c2cd5b35f822d625c1a4330cd7568017e3769e295331115d26736b05aac2886ff513be43b59599a1c9c1a58b5f9e2730394d080b877369615d0d4a4698f36fa52e04740fba222b5335966d5e8ed823e484d39cb1ab07f0dd639a48b03b60b0395fe7b65b64728ac3d3da5ac4dbebbe0e93bbdcd1a78d843b49e3b60cf59552768f527c2e6b277da7286c01076193e83af7bbf89dce66bec745ac355c6c0c6933030dcf3849893ba857ad28602ca0b58e66fdadf37a9397fd72968b00f992a6a0511a92322d0f70ac3656b28c6d79ed58ead4d39748d1ae84766745cf453b079d87f97c67300098efe70d561ec552d0c89639b55929bcd876146589347a15cecbefd55fe645b45a631d6b5ebf28ee06aee4c89fdb908b8f972914a28c22c871c33f4e127116b4c212a863d36843060a0c0f5ddcf6680037ad60373baccdf622cecc9114754b246c880b5de6a6f0d4227a024e36c5ae8181b4faff2c6c90275bba35e8c264edbcbd2b16bcaee38d20f33349f871ee40f147d9e6ad0aecaa98adee72c4d78f4a380eaa3a7dcb253c6ea1e9948a3ec32b4039e327d4e51e27fd229bc2fd8bf0859d4a1b1474e153bbe074c09272e70d6e2aa170d9fa59075070d9de38ab89efb485e9eb765229d7006b2ecac3a5b96b5a7e1c2f9fd505b32b2374784fbb75baa2c3d76085b556bb16597d74bf9be68abe01f6f87a80360e0b3c000de0fe0e8befc90422ccf53dc42b0ac3d91769f1563b35a1375ff3804d2f1a21d84d56b6321277317a0d32b1600282ed4d9ab1327f6e4c5a9e6c5c976005bc7eff1f13cd561fca374aec0cfc2d41f1ada106f367199b42902c212aa8e039522a21461e69a003b514a2d6466dcd588cd915c6dc746779ccaeac4382ba42478e2d80c9034aa406b12c18d1044b87a437758e63b8a776f9499a258a702c2e84bf923a5687a5bb107a4bd745fc6e5f507eb77a1650e4f608962ae04bb78ebea9c832baa2b6defc413ebeb06fc269b536b5484ef2c693502763ae31e59331b2f07d287edc77d70465d5a1a02b6015abc88b2efa4a7ae47493f159af68795db892d7b3f4ad58c5a931820548d4a6423e93b5290b8cfe940eca477b8bf0c5dbc8130a6a8664da6ed6c9b3fd2ab67b53323c0f028506561157b322263c50cc773f71d4c751ae96cea89bbfaf2c83d802dabafdb710b664f28db501db36ce98fb181e2db651d5d8356c5b8852899112e8e7b53b0f164756c2e19beca3b8fd5491a0b425193c4f410c1164f6db7ccd55c877b77e48465b2caecdadecc15d2a0d4ab532aa87224de489a066261d81ae1396a21108a5bc64243957c3eedb9e62059e45e29247c322adbfd6f3921a6e43537e7a1ada8ba78802e491553cca2300c8f718cbd1c9272efd83f91fc617c91ad48ea20394068fd4ecb23723ae996da3af3adf191defb5c04775ecc9314cfe25701f9c7091ad983f3eec87719a5584b8249fcda8e6d598bfc34d04573c162aabd9be736b36331d18c36c58e5861595fc00b205442aa44a19a418da0a5951725635d69577b4d512667d1de9425d5ebeab4b3ce7904a3b42682328699fd784b26bbddb0b1ec3405bd5d7d8971ccebefceb061fed5d6848dd49b86f42ea89ef3a7678f393ab682e88c017f5531d94b61e9791b9519eaf133e4d413bbda2764b23bcb6a356c7167b3129accecb5a12267bbb99fe17ef568c60e98e4d4e6ac46120abaed44089546c853894ba7b1c378cebac39239f3ee6f24d24875a4ca42739d493fdbf1addbb721651a12a8793225443b883a3a6655f9eae9447172775e855d61794729f593017f26675f5c3af7db03cc8226b4a8b5da27e18ae1947794352b0fcd37c8bc046da9072dc27b405ce4f38e5f6b6160a4091cc4304a814591d3616c44a67aac7a059ed843f3406254dd2ef1fa20ece4786a8943ff1a04fa596c92a0f46be73eb7ae57e6a3cf25c7ac990382d8e8353413b8d02f403e64fea4742d63b80e91acc42b2d354c1cf318d9bb3281eb5270e4bc70adb18bcfe6d281540494b666a8be4f30deab72e785c67f1eb8932ccab7a2dcfb60264dfdfdcb04be2ea3290eb3039571795196545c2e0cd325633d8954a2da7affb34bdd614438063436940284556485d8f50f8f72fee86221b5d630bc509346e0f196ca707dd077769239ce2b0c28b60c1334b92b66b61c4283b6e25ce6b335b50d65dc55430339b2e2bd84835729fdbc3c6d101da7cc36463695fba0e9bdb27f29d5b117698a64221c27dbe83d23a267583df00d444376769ee45021734454f6b7c9095a9cdcefe2644525972adb1bbe6e7f0f8fb0e1a293147f3ff2f4148558089969dedfc000000000000000000000000000000000000000000000000000000000000000000000000000d1a212b01fd21050001d3a2c19efbeb2dad009dd69e688811a7ecd6f33dcae77676805e562493773f83705a219a3eb55081de5a612b6b97a322cd22a6ac29d18eda967fa22b7310db7480e4d79f843bb4458fa90d88650c30904adf78bff286079d598f148b30ddceea24fc683bc2aacf7cad8387115bb0706db39fda1371b08f1329c5152a5e91ccd1d200bc6de6e224d5d1613c2194b2081764e1cc06f9dbfec44d1ec69898d365e0a28f3be784a05a7807ea42444a215f7a040326785faa94efeeeb021244511e7141545ca5a52669011a0d189b7a50debe7c17681f7b7c73db4e8a99ed9b02ef3b3e80f16ff0f4f726014e0159984306c865c2926c05d6f00ed17419fbff0b07867aef151a3b86047d853433be14ecaebe0e2e8cd60442659b44ce2e4412b223e4497ae021ac43fe7ad3826de07e6a85157e56fe44f597286fd36056e25b20e625774723f1dafacf68fd3b563e3c5880e2b0fa7ada29dd9df0fab536f5b34061c05602a477bf6f6f211b079bdfe0edd41b16a6cdc511fcea8039cad809221a1bb0523fa19940ffb74ad8fcc27c3203521c58f85182b522f3fda828f84ffb63f798d2b638dee64dbb065c5d3440367c1621500a83e84e233f25813d459a33a9af6bc3f0659a70702f797f69118114ee306370d5f0e62b58ecc57288f7251c1c117e2238acb5bd15937a46557a7a5922bf5eebf765454c319e9e30c068412548f6b6466d25466e16686c948aa98fefa58f1403aa86e87b2b18a753ef95b4375f27309bfa19aece7ddd18f9be491dde85f7cfbd40121385c5af38b2f1f6e44081b52390d046ea406590a01b1b49f6d5dd73404a263dcc9ab44d45c101b992154f7e3a991c1743a741fd564fdc295d349ac9dace4cdfa02599ff5b93ab4554c8c1091ab9a8e9894da6a35dfc44eb73ee0f3f6f96172f940b78002f3c9449f3356794baf67d8a974b3caf4514998a6d90ff9a35d7389903ed86a9bd0152a72c79869aa5ad0fa9f267c2cb2e647e29f4cdda245590ca243c425b3ff5ce08a85f75b318ded0a3a230ffb4664c7a3ec9baacd3dc368ec97734b5b2519910b4c8a4d3f65b771f14ad2aeaba017594c09e6a8528f700ded22cb0afb8ad82cb97f804e56302685bc01b0d38de7af34c9d37b079c95bbb5a80c950e215a8546e2abfc5169a3cacba3f2fbbd217fce0522961126755554df1c528f953b8058ce629c1148961229ee63afd85034aa0491b9f770205fda0f070ab6db38c871cf9f35c1b2174864f71c467f32a777e2dd614eee5bf82e51349eb3b9cf79ec0d4f0abd6a4d812d2988e400fb5bbce4e8c888aca9052c72cf5a7159ace77673c2b45097d3280d6bd78a250b1181f9560ca5fa5260649cd35468820088c5ed1840b1e08558d5edf654bcec4780d213cf9ebda47e312f30cbc6d837625e7253caec974f542aedb5649750f33cd1497fb7379b31085f04935553e5aca3ef85dd8ef3f589010906c7b6cb366e38acc234128911f1dca544d0aa351fd5f9547bee8074240bfcbd798b4c67f6db9c39f06b555fd803485db4dc9f63106abcc3c744ca5ef3b54bcea91af93de3e4316db9550aad77ae499e103f71e253263cfc3cabba01c23d8ec56ca129c8c83f5b613c00a7d668aea82d5eb34a56d89b97bc8455cb7fa6cba36392559247d726f0c61ca81f9165608498303697fa599b8456c61d4f3c7f6d2b84131ef1c95a48462a46f10bc17f129cf8c5fa1eec7cc5ae18f9ea873f1f3bd81e08ec55c1650640d465fb7723b283247b3c6544ff6652c585a676a6bb1edb2c670d3e74729c2934f2534330c994eb9b4d28611f93f16cf38ba0f055cfc9057990d5ef2aeb083000000",
  "txid": "c81023d2398e5fe44d1e3be22564af897ac2b8a3f9b3647b7aa65b2a15a9ccee",
  "hash": "e089ce3556bd196f59e1a08004359632ed99a7d1bef187a4fd7735b1b912d742",
  "size": 5085,
  "vsize": 2278,
  "version": 1,
  "locktime": 131,
  "vin": [
    {
      "txid": "f814b12a5792becaca70dcc214b4e13d1534f241da27c21a25c17a6f3738092a",
      "vout": 0,
      "scriptSig": {
        "asm": "",
        "hex": ""
      },
      "txinwitness": [
        "f9939cbbce83c52a937aa9543fa615ab33b5a918df5c1e4f2b66f59767036d7ea4968c6220a1a96737f1519358eee2a2c3a0d103d922225e288e7a001444d0edc644a330ec156dcb5f3a9f41adf8f287c9d454e33e8943e522542ebcbb6f53ad0bbefe5ce7fe944ed152f56732f2d527fe9dc68ae6f41ab0bbf1b0ec19d497ec466759631b01debadc6eb0a96b95ffad5086f5f412cf417f58b1f3e8e9533deceef7970ce6be646e0bbca0ad63a5cae39d49a91f66ac9b2a015f42915d393e92b2cd8748209b37e11f20da12c7f5f85f257decac13166d6ab7d6b569007d954f16445e5dc72c21decf7fe4c27c96aeba33d937f586dfe478fac12ba3180eea963a36280289a72afae2ad5180c9062b9e08258d55cf7774236df67cefcdc004436c6702e83786be8adcde41e3677aa510621b3811e0b81f7c3f1b9981b863f2e8c732d7215e6b80840b40c48e55c5e439e1342683ac2054b8812b2bd016aa4e492e09abfea69afc55b75c656a4eb8faf040ffe5b80832c7ef82a59952fa2b1700f9eb7f2fef8f2da01e490570172bd0f7e3e64d04f8fcf628d827a31bf0d3d40466b4476c75c907a57548bbca50726fc1c2c93541b4a503caad3f12c6c5aa26e6f7e00b52504c8d036cd67f7bb1f3be4f21b7314d5cb4d383974a8229c680beb359c65021c530ed74a75865267da142febc84669281ca8e4c29a274e7216b91a6927aa23bb52807ac78ac6174e4783fdf36f038b217e7b015111218a51be93085ccc2cbb1ad0e4ad36e86bc30aa4dc8e0f069b857cc4c41ec8eaab08a7d4bd78c7f9832024e616bbb41215416c48f6d45918f9a82e54d6adb31a97881d1c47433f9743a15db868e2e03c596e7a79b5d731b044cf2c8cf52a1dc487ccbdcead39cc1e231f9a3f2103ca658956bb1bd39bb15b594804e11fd56ccade423e8582de30cd3046265629f575e4f0d5f32cb00937bbeb26b23df7976d4406392d88f795454855f45a343c2cd5b35f822d625c1a4330cd7568017e3769e295331115d26736b05aac2886ff513be43b59599a1c9c1a58b5f9e2730394d080b877369615d0d4a4698f36fa52e04740fba222b5335966d5e8ed823e484d39cb1ab07f0dd639a48b03b60b0395fe7b65b64728ac3d3da5ac4dbebbe0e93bbdcd1a78d843b49e3b60cf59552768f527c2e6b277da7286c01076193e83af7bbf89dce66bec745ac355c6c0c6933030dcf3849893ba857ad28602ca0b58e66fdadf37a9397fd72968b00f992a6a0511a92322d0f70ac3656b28c6d79ed58ead4d39748d1ae84766745cf453b079d87f97c67300098efe70d561ec552d0c89639b55929bcd876146589347a15cecbefd55fe645b45a631d6b5ebf28ee06aee4c89fdb908b8f972914a28c22c871c33f4e127116b4c212a863d36843060a0c0f5ddcf6680037ad60373baccdf622cecc9114754b246c880b5de6a6f0d4227a024e36c5ae8181b4faff2c6c90275bba35e8c264edbcbd2b16bcaee38d20f33349f871ee40f147d9e6ad0aecaa98adee72c4d78f4a380eaa3a7dcb253c6ea1e9948a3ec32b4039e327d4e51e27fd229bc2fd8bf0859d4a1b1474e153bbe074c09272e70d6e2aa170d9fa59075070d9de38ab89efb485e9eb765229d7006b2ecac3a5b96b5a7e1c2f9fd505b32b2374784fbb75baa2c3d76085b556bb16597d74bf9be68abe01f6f87a80360e0b3c000de0fe0e8befc90422ccf53dc42b0ac3d91769f1563b35a1375ff3804d2f1a21d84d56b6321277317a0d32b1600282ed4d9ab1327f6e4c5a9e6c5c976005bc7eff1f13cd561fca374aec0cfc2d41f1ada106f367199b42902c212aa8e039522a21461e69a003b514a2d6466dcd588cd915c6dc746779ccaeac4382ba42478e2d80c9034aa406b12c18d1044b87a437758e63b8a776f9499a258a702c2e84bf923a5687a5bb107a4bd745fc6e5f507eb77a1650e4f608962ae04bb78ebea9c832baa2b6defc413ebeb06fc269b536b5484ef2c693502763ae31e59331b2f07d287edc77d70465d5a1a02b6015abc88b2efa4a7ae47493f159af68795db892d7b3f4ad58c5a931820548d4a6423e93b5290b8cfe940eca477b8bf0c5dbc8130a6a8664da6ed6c9b3fd2ab67b53323c0f028506561157b322263c50cc773f71d4c751ae96cea89bbfaf2c83d802dabafdb710b664f28db501db36ce98fb181e2db651d5d8356c5b8852899112e8e7b53b0f164756c2e19beca3b8fd5491a0b425193c4f410c1164f6db7ccd55c877b77e48465b2caecdadecc15d2a0d4ab532aa87224de489a066261d81ae1396a21108a5bc64243957c3eedb9e62059e45e29247c322adbfd6f3921a6e43537e7a1ada8ba78802e491553cca2300c8f718cbd1c9272efd83f91fc617c91ad48ea20394068fd4ecb23723ae996da3af3adf191defb5c04775ecc9314cfe25701f9c7091ad983f3eec87719a5584b8249fcda8e6d598bfc34d04573c162aabd9be736b36331d18c36c58e5861595fc00b205442aa44a19a418da0a5951725635d69577b4d512667d1de9425d5ebeab4b3ce7904a3b42682328699fd784b26bbddb0b1ec3405bd5d7d8971ccebefceb061fed5d6848dd49b86f42ea89ef3a7678f393ab682e88c017f5531d94b61e9791b9519eaf133e4d413bbda2764b23bcb6a356c7167b3129accecb5a12267bbb99fe17ef568c60e98e4d4e6ac46120abaed44089546c853894ba7b1c378cebac39239f3ee6f24d24875a4ca42739d493fdbf1addbb721651a12a8793225443b883a3a6655f9eae9447172775e855d61794729f593017f26675f5c3af7db03cc8226b4a8b5da27e18ae1947794352b0fcd37c8bc046da9072dc27b405ce4f38e5f6b6160a4091cc4304a814591d3616c44a67aac7a059ed843f3406254dd2ef1fa20ece4786a8943ff1a04fa596c92a0f46be73eb7ae57e6a3cf25c7ac990382d8e8353413b8d02f403e64fea4742d63b80e91acc42b2d354c1cf318d9bb3281eb5270e4bc70adb18bcfe6d281540494b666a8be4f30deab72e785c67f1eb8932ccab7a2dcfb60264dfdfdcb04be2ea3290eb3039571795196545c2e0cd325633d8954a2da7affb34bdd614438063436940284556485d8f50f8f72fee86221b5d630bc509346e0f196ca707dd077769239ce2b0c28b60c1334b92b66b61c4283b6e25ce6b335b50d65dc55430339b2e2bd84835729fdbc3c6d101da7cc36463695fba0e9bdb27f29d5b117698a64221c27dbe83d23a267583df00d444376769ee45021734454f6b7c9095a9cdcefe2644525972adb1bbe6e7f0f8fb0e1a293147f3ff2f4148558089969dedfc000000000000000000000000000000000000000000000000000000000000000000000000000d1a212b01",
        "0001d3a2c19efbeb2dad009dd69e688811a7ecd6f33dcae77676805e562493773f83705a219a3eb55081de5a612b6b97a322cd22a6ac29d18eda967fa22b7310db7480e4d79f843bb4458fa90d88650c30904adf78bff286079d598f148b30ddceea24fc683bc2aacf7cad8387115bb0706db39fda1371b08f1329c5152a5e91ccd1d200bc6de6e224d5d1613c2194b2081764e1cc06f9dbfec44d1ec69898d365e0a28f3be784a05a7807ea42444a215f7a040326785faa94efeeeb021244511e7141545ca5a52669011a0d189b7a50debe7c17681f7b7c73db4e8a99ed9b02ef3b3e80f16ff0f4f726014e0159984306c865c2926c05d6f00ed17419fbff0b07867aef151a3b86047d853433be14ecaebe0e2e8cd60442659b44ce2e4412b223e4497ae021ac43fe7ad3826de07e6a85157e56fe44f597286fd36056e25b20e625774723f1dafacf68fd3b563e3c5880e2b0fa7ada29dd9df0fab536f5b34061c05602a477bf6f6f211b079bdfe0edd41b16a6cdc511fcea8039cad809221a1bb0523fa19940ffb74ad8fcc27c3203521c58f85182b522f3fda828f84ffb63f798d2b638dee64dbb065c5d3440367c1621500a83e84e233f25813d459a33a9af6bc3f0659a70702f797f69118114ee306370d5f0e62b58ecc57288f7251c1c117e2238acb5bd15937a46557a7a5922bf5eebf765454c319e9e30c068412548f6b6466d25466e16686c948aa98fefa58f1403aa86e87b2b18a753ef95b4375f27309bfa19aece7ddd18f9be491dde85f7cfbd40121385c5af38b2f1f6e44081b52390d046ea406590a01b1b49f6d5dd73404a263dcc9ab44d45c101b992154f7e3a991c1743a741fd564fdc295d349ac9dace4cdfa02599ff5b93ab4554c8c1091ab9a8e9894da6a35dfc44eb73ee0f3f6f96172f940b78002f3c9449f3356794baf67d8a974b3caf4514998a6d90ff9a35d7389903ed86a9bd0152a72c79869aa5ad0fa9f267c2cb2e647e29f4cdda245590ca243c425b3ff5ce08a85f75b318ded0a3a230ffb4664c7a3ec9baacd3dc368ec97734b5b2519910b4c8a4d3f65b771f14ad2aeaba017594c09e6a8528f700ded22cb0afb8ad82cb97f804e56302685bc01b0d38de7af34c9d37b079c95bbb5a80c950e215a8546e2abfc5169a3cacba3f2fbbd217fce0522961126755554df1c528f953b8058ce629c1148961229ee63afd85034aa0491b9f770205fda0f070ab6db38c871cf9f35c1b2174864f71c467f32a777e2dd614eee5bf82e51349eb3b9cf79ec0d4f0abd6a4d812d2988e400fb5bbce4e8c888aca9052c72cf5a7159ace77673c2b45097d3280d6bd78a250b1181f9560ca5fa5260649cd35468820088c5ed1840b1e08558d5edf654bcec4780d213cf9ebda47e312f30cbc6d837625e7253caec974f542aedb5649750f33cd1497fb7379b31085f04935553e5aca3ef85dd8ef3f589010906c7b6cb366e38acc234128911f1dca544d0aa351fd5f9547bee8074240bfcbd798b4c67f6db9c39f06b555fd803485db4dc9f63106abcc3c744ca5ef3b54bcea91af93de3e4316db9550aad77ae499e103f71e253263cfc3cabba01c23d8ec56ca129c8c83f5b613c00a7d668aea82d5eb34a56d89b97bc8455cb7fa6cba36392559247d726f0c61ca81f9165608498303697fa599b8456c61d4f3c7f6d2b84131ef1c95a48462a46f10bc17f129cf8c5fa1eec7cc5ae18f9ea873f1f3bd81e08ec55c1650640d465fb7723b283247b3c6544ff6652c585a676a6bb1edb2c670d3e74729c2934f2534330c994eb9b4d28611f93f16cf38ba0f055cfc9057990d5ef2aeb0"
      ],
      "sequence": 4294967294
    }
  ],
  "vout": [
    {
      "value": 499966.4423,
      "n": 0,
      "scriptPubKey": {
        "asm": "1 8187275e75b20c5214958a28467f4b4a7580352e7501663c18db9c23811a229c",
        "hex": "51208187275e75b20c5214958a28467f4b4a7580352e7501663c18db9c23811a229c",
        "reqSigs": 1,
        "type": "witness_v1_scripthash",
        "addresses": [
          "3QJmnh"
        ]
      }
    },
    {
      "value": 1.0,
      "n": 1,
      "scriptPubKey": {
        "asm": "OP_RETURN c39c629b66cf56eb77010559eea6005603a6b55c55388baf99fd418beb5d6eb5 8aad86529b504fdf323aff27d77c7c1825a35887173e5a6e1c566ed18d6525cbaa8da672bb706fff121adf07f75c5c38058378a7371e7a4e3c764ef1ad4505ebcaedc612db100f9f727abf67973c3c5865e318c7577e1a2e5c162e91cd25658beacde632fb302fbf525a9f47b71c1c7845c338e7775e3a0e7c360eb1ed0545ab0a2d06d21bd0cf5fb2ba7fa757fcfc98a523d80797bedaee9cd6ee510de5a54b2a0d26f23bf0ef7f929a5f8777dcdcb88503f827b79efacebcf6ce712dc5856b4a6d46925b908f1ff2fa3fe717bcbcd8e5639847d7fe9aaedc96ae114da5e50b6a4d66b27bb0af3fd2da1fc7379c9cf8c543b867f7deba8efcb68e316d85c52b8aad86529b504fdf323aff27d77c7c1825a35887173e5a6e1c566ed18d6525cbaa8da672bb706fff121adf07f75c5c38058378a7371e7a4e3c764ef1ad4505ebcaedc612db100f9f727abf67973c3c5865e318c7577e1a2e5c162e91cd25658beacde632fb302fbf525a9f47b71c1c7845c338e7775e3a0e7c360eb1ed0545ab0a2d06d21bd0cf5fb2ba7fa757fcfc98a523d80797bedaee9cd6ee510de5a54b2a0d26f23bf0ef7f929a5f8777dcdcb88503f827b79efacebcf6ce712dc5856b4a6d46925b908f1ff2fa3fe717bcbcd8e5639847d7fe9aaedc96ae114da5e50b6a4d66b27bb0af3fd2da1fc7379c9cf8c543b867f7deba8efcb68e316d85c52b8aad86529b504fdf323aff27d77c7c1825a35887173e5a6e1c566ed18d6525cbaa8da672bb706fff121adf07f75c5c38058378a7371e7a4e3c764ef1ad4505ebcaedc612db100f9f727abf67973c3c5865e318c7577e1a2e5c162e91cd25658beacde632fb302fbf525a9f47b71c1c7845c338e7775e3a0e7c360eb1ed0545ab0a2d06d21bd0cf5fb2ba7fa757fcfc98a523d80797bedaee9cd6ee510de5a54b2a0d26f23bf0ef7f929a5f8777dcdcb88503f827b79efacebcf6ce712dc5856b4a6d46925b908f1ff2fa3fe717bcbcd8e5639847d7fe9aaedc96ae114da5e50b6a4d66b27bb0af3fd2da1fc7379c9cf8c543b867f7deba8efcb68e316d85c52b8aad86529b504fdf323aff27d77c7c1825a35887173e5a6e1c566ed18d6525cbaa8da672bb706fff121adf07f75c5c38058378a7371e7a4e3c764ef1ad4505ebcaedc612db100f9f727abf67973c3c5865e318c7577e1a2e5c162e91cd25658beacde632fb302fbf525a9f47b71c1c7845c338e7775e3a0e7c360eb1ed0545ab0a2d06d21bd0cf5fb2ba7fa757fcfc98a523d80797bedaee9cd6ee510de5a54b2a0d26f23bf0ef7f929a5f8777dcdcb88503f827b79efacebcf6ce712dc5856b4a6d46925b908f1ff2fa3fe717bcbcd8e5639847d7fe9aaedc96ae114da5e50b6a4d66b27bb0af3fd2da1fc7379c9cf8c543b867f7deba8efcb68e316d85c52b8aad86529b504fdf323aff27d77c7c1825a35887173e5a6e1c566ed18d6525cbaa8da672bb706fff121adf07f75c5c38058378a7371e7a4e3c764ef1ad4505ebcaedc612db100f9f727abf67973c3c5865e318c7577e1a2e5c162e91cd25658beacde632fb302fbf525a9f47b71c1c7845c338e7775e3a0e7c360eb1ed0545ab0a2d06d21bd0cf5fb2ba7fa757fcfc9857b8ee568fad35434ae710651a0acc7b636e4d8dbff02ba9ab8da132fb46e2ca",
        "hex": "6a20c39c629b66cf56eb77010559eea6005603a6b55c55388baf99fd418beb5d6eb54db0048aad86529b504fdf323aff27d77c7c1825a35887173e5a6e1c566ed18d6525cbaa8da672bb706fff121adf07f75c5c38058378a7371e7a4e3c764ef1ad4505ebcaedc612db100f9f727abf67973c3c5865e318c7577e1a2e5c162e91cd25658beacde632fb302fbf525a9f47b71c1c7845c338e7775e3a0e7c360eb1ed0545ab0a2d06d21bd0cf5fb2ba7fa757fcfc98a523d80797bedaee9cd6ee510de5a54b2a0d26f23bf0ef7f929a5f8777dcdcb88503f827b79efacebcf6ce712dc5856b4a6d46925b908f1ff2fa3fe717bcbcd8e5639847d7fe9aaedc96ae114da5e50b6a4d66b27bb0af3fd2da1fc7379c9cf8c543b867f7deba8efcb68e316d85c52b8aad86529b504fdf323aff27d77c7c1825a35887173e5a6e1c566ed18d6525cbaa8da672bb706fff121adf07f75c5c38058378a7371e7a4e3c764ef1ad4505ebcaedc612db100f9f727abf67973c3c5865e318c7577e1a2e5c162e91cd25658beacde632fb302fbf525a9f47b71c1c7845c338e7775e3a0e7c360eb1ed0545ab0a2d06d21bd0cf5fb2ba7fa757fcfc98a523d80797bedaee9cd6ee510de5a54b2a0d26f23bf0ef7f929a5f8777dcdcb88503f827b79efacebcf6ce712dc5856b4a6d46925b908f1ff2fa3fe717bcbcd8e5639847d7fe9aaedc96ae114da5e50b6a4d66b27bb0af3fd2da1fc7379c9cf8c543b867f7deba8efcb68e316d85c52b8aad86529b504fdf323aff27d77c7c1825a35887173e5a6e1c566ed18d6525cbaa8da672bb706fff121adf07f75c5c38058378a7371e7a4e3c764ef1ad4505ebcaedc612db100f9f727abf67973c3c5865e318c7577e1a2e5c162e91cd25658beacde632fb302fbf525a9f47b71c1c7845c338e7775e3a0e7c360eb1ed0545ab0a2d06d21bd0cf5fb2ba7fa757fcfc98a523d80797bedaee9cd6ee510de5a54b2a0d26f23bf0ef7f929a5f8777dcdcb88503f827b79efacebcf6ce712dc5856b4a6d46925b908f1ff2fa3fe717bcbcd8e5639847d7fe9aaedc96ae114da5e50b6a4d66b27bb0af3fd2da1fc7379c9cf8c543b867f7deba8efcb68e316d85c52b8aad86529b504fdf323aff27d77c7c1825a35887173e5a6e1c566ed18d6525cbaa8da672bb706fff121adf07f75c5c38058378a7371e7a4e3c764ef1ad4505ebcaedc612db100f9f727abf67973c3c5865e318c7577e1a2e5c162e91cd25658beacde632fb302fbf525a9f47b71c1c7845c338e7775e3a0e7c360eb1ed0545ab0a2d06d21bd0cf5fb2ba7fa757fcfc98a523d80797bedaee9cd6ee510de5a54b2a0d26f23bf0ef7f929a5f8777dcdcb88503f827b79efacebcf6ce712dc5856b4a6d46925b908f1ff2fa3fe717bcbcd8e5639847d7fe9aaedc96ae114da5e50b6a4d66b27bb0af3fd2da1fc7379c9cf8c543b867f7deba8efcb68e316d85c52b8aad86529b504fdf323aff27d77c7c1825a35887173e5a6e1c566ed18d6525cbaa8da672bb706fff121adf07f75c5c38058378a7371e7a4e3c764ef1ad4505ebcaedc612db100f9f727abf67973c3c5865e318c7577e1a2e5c162e91cd25658beacde632fb302fbf525a9f47b71c1c7845c338e7775e3a0e7c360eb1ed0545ab0a2d06d21bd0cf5fb2ba7fa757fcfc9857b8ee568fad35434ae710651a0acc7b636e4d8dbff02ba9ab8da132fb46e2ca",
        "type": "nulldata"
      }
    }
  ],
  "blockhash": "3357cb4dc001b5acbac31fcce3a77df76b11eaba9a4d126a2528d529fe11213e",
  "confirmations": 1,
  "time": 1764182290,
  "blocktime": 1764182290
}