{
  "hex": "0100000000010100d3e528666bb460cc98f17f2168acabaccc7fc20505d4084e601088c8f076d70100000000feffffff0200e1f50500000000fdd5046a20b2fcfdcc6f5cb345aa1239f0c13578028f961091e65eae24c369a70c3bb3318a4db004a90ba434be2ccfd655bc219c7ba61104e0a63b45200aab2e0d76fd0262d2add0892b84149e0ceff6759c01bc5b863124c0861b65002a8b0e2d56dd2242f28df0e94be474fe6c8f9615fc61dc3be65144a0e67b05604aeb6e4d36bd422292ed90c96bc454de4cafb635dc41fc1bc6716480c65b25406acb4e6d169d6202b2cdb0298b24b43eac4f56d53ca11cfb2691846026bbc5a08a2bae8df67d82e2522d5009ab04941e8c6f76f51c813cdb06b1a440069be580aa0b8eadd65da2c2720d7069cb64f47eec0f16957ce15cbb66d1c42066fb85e0ca6beecdb63dc2a2126d1049eb44d45ecc2f36b55cc17c9b46f1e40046dba5c0ea4bceed961de282324d30a90ba434be2ccfd655bc219c7ba61104e0a63b45200aab2e0d76fd0262d2add0892b84149e0ceff6759c01bc5b863124c0861b65002a8b0e2d56dd2242f28df0e94be474fe6c8f9615fc61dc3be65144a0e67b05604aeb6e4d36bd422292ed90c96bc454de4cafb635dc41fc1bc6716480c65b25406acb4e6d169d6202b2cdb0298b24b43eac4f56d53ca11cfb2691846026bbc5a08a2bae8df67d82e2522d5009ab04941e8c6f76f51c813cdb06b1a440069be580aa0b8eadd65da2c2720d7069cb64f47eec0f16957ce15cbb66d1c42066fb85e0ca6beecdb63dc2a2126d1049eb44d45ecc2f36b55cc17c9b46f1e40046dba5c0ea4bceed961de282324d30a90ba434be2ccfd655bc219c7ba61104e0a63b45200aab2e0d76fd0262d2add0892b84149e0ceff6759c01bc5b863124c0861b65002a8b0e2d56dd2242f28df0e94be474fe6c8f9615fc61dc3be65144a0e67b05604aeb6e4d36bd422292ed90c96bc454de4cafb635dc41fc1bc6716480c65b25406acb4e6d169d6202b2cdb0298b24b43eac4f56d53ca11cfb2691846026bbc5a08a2bae8df67d82e2522d5009ab04941e8c6f76f51c813cdb06b1a440069be580aa0b8eadd65da2c2720d7069cb64f47eec0f16957ce15cbb66d1c42066fb85e0ca6beecdb63dc2a2126d1049eb44d45ecc2f36b55cc17c9b46f1e40046dba5c0ea4bceed961de282324d30a90ba434be2ccfd655bc219c7ba61104e0a63b45200aab2e0d76fd0262d2add0892b84149e0ceff6759c01bc5b863124c0861b65002a8b0e2d56dd2242f28df0e94be474fe6c8f9615fc61dc3be65144a0e67b05604aeb6e4d36bd422292ed90c96bc454de4cafb635dc41fc1bc6716480c65b25406acb4e6d169d6202b2cdb0298b24b43eac4f56d53ca11cfb2691846026bbc5a08a2bae8df67d82e2522d5009ab04941e8c6f76f51c813cdb06b1a440069be580aa0b8eadd65da2c2720d7069cb64f47eec0f16957ce15cbb66d1c42066fb85e0ca6beecdb63dc2a2126d1049eb44d45ecc2f36b55cc17c9b46f1e40046dba5c0ea4bceed961de282324d30a90ba434be2ccfd655bc219c7ba61104e0a63b45200aab2e0d76fd0262d2add0892b84149e0ceff6759c01bc5b863124c0861b65002a8b0e2d56dd2242f28df0e94be474fe6c8f9615fc61dc3be65144a0e67b05604aeb6e4d36bd422292ed90c96bc454de4cafb635dc41fc1bc6716480c65b25406acb4e6d169d6202b2cdb0298b24b43eac4f56d53ca11cfb269184b72a601347d1c3f3f02fea0a051cecf58d0d7eb9880c8ae462a55aa20beaae8dc075fe6f792d0000225120909fca0252e48d9f85f76fad15139afd0421226da6be00ba1acf1017512db5f102fd7509b4480c8de83aa9c71b3ac72fa7a097204dadcf7e358f2c31a9ca23d8a901e86f82f5c4bc144baa5e99814a5e6325926acc7e808e6486a176f5bdcea876563d60aed55a152e18730cef9fcb07437d22b029df7562ba9c00b39a9de7f8368bb307fc25dc3e3c84bdf52fb49932f3dd32333698486d1cbd4d9011477deaba55ad2e839c63c2e7255c9b7ad482577f577fe8820582ec5516100f9385cd449943041c5fcde6fd52b5abff77de9513d21ac9c7c05c7fa0a36ce4f71a9bb156963db0f73b1d40569185667fb251ae90395222a276f2bf9b0e9d355558969ec7f1a59c98d74fec3e078e71fe4f77a9247b9d6c83022bcab72f792a09da6b376bc6d5215952413f31a143c3714d6f32f9daaafae168de026668a4f27b3ca61ea59ec35b390ade413204aef607e13490fed79f6cff4f6187a029ce95cf85da17b5abdafc9402f16eff9b09b503261ed49023629e7ef74cc53575fe19fc3eabd9f6710fea35f69ce07e15d3b65e017a41b23aab6e89d81f34051196987cc47742bd02325f207304ea2c727f45b415fd1df7277a9e06bdc611922ad4f0779d31a733cb8cd73e07fd8e080680097975d19196b7159d08370e3fccb8c7fb51cdd7234f1b090d85a2e68ec49be305924a9e8f4f975ffa315ad2d3f76404eb0efb6d46b7e382fdbe3937ae14baf8d17122761883b5579aa255e1851e71caa268623e8c1861c6d5a261e1d540b944cf5e6e2fe5e0f00f379062fa0638251f036a5f3f521e9545a8e01cb7e66ba63899bb3fe3be5169fc7b4bf033ae4bfb0bef12f441f6c3abfb6cd0dc708d46fa15e14bdcd8e5a6bd3f1f8ea9bcf6eed3c7c0890245fb58b41abc9f08d7f2dbbf91678bcaa5ed2468d3d2e4b03fedd0571c65b31758136f749fb43b0036a7bd40d043979b588cfdbfbd1a345a29b3387944e3868dc450afc405ebd1419b69c9d8cd499bcd75739d5d88f83bdf023467aec38d6eb11dc0cf66aa29770631be085ea59345ca3375d3f16e2b83629adb039a6fa9b8d7ff3ce0cfe800bd1541098578bba72d54dc4bdc6968ec4c463624eb64afad897a9cfc82799549234e895f7fb495db9a40c7aa2cece3cdd64537ddb5f02275ac60beedd875a7b07b08d481d573b9bb171d95a9496c1e74e45416275dff6b09726d39efd34844c714b523e033f804a754ab24f8872aa2c5488551331ef82b1750b14f65b627e345d38aa2cf95b871484965d52ff1de0ba4826c8d0ba534e8bc92491af9b6173f0161366be830e59ac189025ee4f6d760cc5f77992afb30739f7af907c2ecf676827a68217bf1d8664afc7fc4401ddfdae375797fb049afb9dc4ac25884d624433592cbb7aed95b5c6638f9d492e3d5b2c9dbed5f29e449656632bf831501cffeabbc9b27246885b5180c5c130ed75d5a4542a9fc49a640082b0354ca23bd394e9312031cf961702b6ed592bcee17e9d8fd9c3a3c4bd9e72d3bf6466a85e9a34b59d47003769f113b7cffc41ed26631f0774eee5c342242bf9cf33d5d3d63594ea18c171300294d5e6f9fb521ee831735bc539b2db9eabfbf5df264dcdd7f6c108faedd372de9981c4fcefec1edd7730cf5736d46af5e6b72023e6d2d2d8215b227cc64b36b613db2aa1cb6f9678731e66533dc03337fad58616ab783a1d7bb8a5c1b4a1da8af6b878dd9641c7da5896c29e4a1096c371942aeecb8bb0549123a63e68055b347db6778833d1341cb17142a89967617cd5c1501356c93930d7728733b9375872435439d059e5b484d6e93604d865e4e623e6809f74debf6fe308a04195d89b9d351872c2fbde8478daf21b74bddf2d062c9904963dd5941e4283d54c99b218ff344dd68dda0475091bb7d279293b925e35dcb281a5530d24042c8b84033b27f29c145078a1075656d9f282e8761a5d54a7cfc462ef57999075aa9ee5bcc83bd0941e2568a2637b2273ceec3f54503eb9adf54cb20465adf16047d00a791d855eb5e019c7743e39a2a5481fe913b6b86d71a7034c42b9c4a2b2a95a98328c2c81dd9771d6905c4840cc4aa13ebe6541f37ecc9e1b7766fda5ecb0c2694033e016e757ab3c567ecdfdd07e16316a5b68987417722fb80966c92307b24914153f47ce97c1784cdf06896511e66f29ba936773a3a857232fdeae341deaa53ee3737bd82dbc01344fde49a7caa240e01a86a564e4cfe1d10b7822187af0dda7efd1c0f0256dbebbcde63c1285f063094747645b58619093e21b20e4c537deb86f662afffe2387b79c7d603998df5e43bdaf9b1d17ca1903ce09d8ba757fa230615b6ddbeda6f485b5ffee9341e60e9e4b6226d4f1e2c4c2d932dd9c3c3d4b47df5059c1ee89dfd75576d1804ca5e95406a07de8fb90feb217c236bd6bb2726251fc5cf534655285f2289d26f19a88753e7441786a0da8ae759d2b1c4cbe906033800b01f3cb18de37e9e69312931d32e545475296e64ca5613a29f179729688baa8762c1e31bbc2fc2f655d0f0dc10c0281327638a87d4b6fc4f3ead011e9650ac3b5b1e6db2090b2c9687c6beb2cdeb87460760e9b7d89890716ad0ce1e9a1b1680afe861def0be8d345b15a38c63cb899561a2a3e1ea171f6a4522bc3600ba83a116478acdc42e227893038454909de8fb0474dd6d0e14efdafd881936e6b40a46a7ed9e7c149caec3cf23f2c33c9bfb4441d1f3008de92192d774abe6170ecf7b4a0a7e3449205a3c62d2ee17843b16991c9e6e384b2b4653f69bdac56f2561507b3147a988ad1b0a0d25e844e1623adc41a134cf7ef44abe3876a049fdda46e3a5e313b51df3cf624a5d80c0caa73ff14652f582cf117285598f9fdd48f1ab78cab15735402e8ad56621d490f1ac44df372f6f158cbb04235fc19f8f451beab30a8ae06a46e7efd603c903a78bdb566097717bbeef700028a2fba50ca517b18e45b512db2b8083114d2975fa72270c7805bfb3f15eb92f72f09cbb70300398bf1ffdfcd4e799a86bed611ca585b47fe0ba9b8a67b712c93e9ff9904bad771067fe60b11961720f6b8002ac3e0406be96e6a185f7f291886df736d77ebf94a326751d2cef7b68b46580e2fd99870c417559a6786bc3436d1dc2ee091957bad067e7ba82f4d6b7d288e19d1bd7cc44a6db95bed218e1011cf9b8454f085076c4aff70c25e528b9ebbccea42d023a4a74370bbfdd1745d7a9f52dd8549ca3010e98a868d3ad6efa3134b7a2c67dfd291a458c47fc88fd3372c957c52ccb3c0c8e03e3001fef081e2d912073cddb42ea516d85de741a96caaf90217820d0620e1c292b303a404956626675a6b0b1b8c0dee8f4fc040b24273243444f516375777982a2b6e8f5fa020608121923313543637778888c93a2a6b7c0d818454c4e74a0abbabdc5ccd6d8dbeff6fafc000015283c4e01fd21050005646711f0d5f5df3b41f0922c07952b90f9e43c2abc9e59a3971021dd8a7ef7abcc61108a32561c112c7ee0551f880c8c86bc8385a01ddf301de01b92afc4192d6da6d53e06b42440342c7af1b900ad5d83f8890d6b8ff3e4b43e08c3e774b58b5c3bad2777a19bdd34f2eaaaf46d68d197967d427397a4d8a0d6a31cac0890646ad38a9ad35ac657d32e8e1d70e0948e0cb80f5128aa5c46e37ca08f5c764b93c72abf81eb5dd748ca30d2a9015832cb707baa47cc6e6c4ce0cff538c615a274797e7b8f914dd66c3888f3e5de179d507416cb27fd33d5a05af9ab92a01182b96ed12f0e7dae985a34ab2603e9a106545bdd63270c12c71dafed1ffddefee4a617e4a44218f60def072edbfe60480309ff394d24a1ca1dfdaf6c37a2cb97517eb2aba754c7bf83d013609b02eb39913fdbe685260d9ad62363446662d7ce88ba759732e2da6acc14df562f529e7742d5b00df413774eb48a1e988aac0c41edbb4606ccf2c556b7af774a25413ac10f6ec29295da4459ed008dd25af76cb738d062389666ce68aa4c1bd05efe0f7b5fdfce582064b07aa9a754c00e04d41d84859a5ebe5dbb2e9621368f1f4849a094c56835183a1ab6cf9eb9e5e214d61b00654d2bee741012f2176c0fed47320902f90560104a5058aa159040c7c1c2506201f718cf2840d73a9570f1cc485738d5943087eec3999e06795348901a87d28abf5fc1150d4ef6ad189ccc2b2ce4f2611b11e4b58142977e72c2ba3120caae648411ffc7d94a20e5e0bd03910c5f6d5b86cea804975919775b48cf4f9d627c2e1a66dd38e02b15e4fccb5ca9f2a2a6bc75d3ad6bbd08e1b62be9fc3acc97a19436f830f44adfb0097433b521e8620e4664178ee75a9494bef594068474f9adf54be5d94169197a81b1d3f787828aa416b83e151514de4c24c459a67b9d19b71ec3f9600543048f9be80ab406d0a9aaf673493f274b98479825ba54eda8dfe309d402ca6b9c2e7d0c4ec6497287f2f9cfe91bab8bdd383a61aceaaa102c63ba5de3b99cf91c9040d5bb138b777a468e83e736ef0f365b7e32c5e0324b936cf9246d1c76b86d5c56af23aa247bbb2e867f05f142e32dc006bf4d48bd88b7dba9332be1956119b3a1ec7d699ae29c59804215fce1a368bdea49fd1219d46c9964cb2ebcc550445c0e7393cf50981b091b054156773aa757a423db74a2c3abc71c35e4ae61b688dbb04ee28983b65f3de91b772ccfb1f02318ed1aaad0b7d61bbeda4d41cfcc65547507e6bd4bb44d84e7964a3b786ad183cbec6857e2da91372b9740a7628b6088141bdd1334e71f55808d659edbaf7190308b17f825d6dbe01b797a4f144bb27bbb812e1ef7841200faa6fbabbb55be9e0604755c22e0cb6e65d9b797c1a22793647ff63032adc64c1e0ebe1aca5ca1530455868a44d255a9040a7d6cfee6f1f64d0add128717fa0055d10a44715b2a3f663ca5064c7cec9e31c77f604d872d40ed7b4506287d2dcb14202952fd56670e3c355ba02663e916aec4c0ec18ff07ad1ba68814a6b73f14a6b4f97999865acc7801c5c58cdbe3712c5c30477c3bc1176f67d0802054887adc18d17ec224b9de47461720116354d38173102c963fa4c98f988393766ef0732e21df9135d440ca958d5016ec8415e246588dc59078c64018e05b743d400a52b1e7d888cf7db6a426036fda164aac475a5823688cff276e70600ec85311dee90ffb9a76d8787ed08d229833767856502406d468c77bcac76771bcf1f2ca283792608cede827ddab7109f39265292610b7301ddfbc1a25e2c3168b1d184df2b7f715b8d621184ad5e2d98b455c29cebf8db468000000",
  "txid": "c3b5872d27ec94e468a7e9582ff5a458ece77b90323eff5d9dbbea299db27d40",
  "hash": "7b56f4e2c72cf3c22446ce4e4f3d4c44fe592176f0e165cb0c3a74b7f6857692",
  "size": 5085,
  "vsize": 2278,
  "version": 1,
  "locktime": 104,
  "vin": [
    {
      "txid": "d776f0c88810604e08d40505c27fccacabac68217ff198cc60b46b6628e5d300",
      "vout": 1,
      "scriptSig": {
        "asm": "",
        "hex": ""
      },
      "txinwitness": [
        "b4480c8de83aa9c71b3ac72fa7a097204dadcf7e358f2c31a9ca23d8a901e86f82f5c4bc144baa5e99814a5e6325926acc7e808e6486a176f5bdcea876563d60aed55a152e18730cef9fcb07437d22b029df7562ba9c00b39a9de7f8368bb307fc25dc3e3c84bdf52fb49932f3dd32333698486d1cbd4d9011477deaba55ad2e839c63c2e7255c9b7ad482577f577fe8820582ec5516100f9385cd449943041c5fcde6fd52b5abff77de9513d21ac9c7c05c7fa0a36ce4f71a9bb156963db0f73b1d40569185667fb251ae90395222a276f2bf9b0e9d355558969ec7f1a59c98d74fec3e078e71fe4f77a9247b9d6c83022bcab72f792a09da6b376bc6d5215952413f31a143c3714d6f32f9daaafae168de026668a4f27b3ca61ea59ec35b390ade413204aef607e13490fed79f6cff4f6187a029ce95cf85da17b5abdafc9402f16eff9b09b503261ed49023629e7ef74cc53575fe19fc3eabd9f6710fea35f69ce07e15d3b65e017a41b23aab6e89d81f34051196987cc47742bd02325f207304ea2c727f45b415fd1df7277a9e06bdc611922ad4f0779d31a733cb8cd73e07fd8e080680097975d19196b7159d08370e3fccb8c7fb51cdd7234f1b090d85a2e68ec49be305924a9e8f4f975ffa315ad2d3f76404eb0efb6d46b7e382fdbe3937ae14baf8d17122761883b5579aa255e1851e71caa268623e8c1861c6d5a261e1d540b944cf5e6e2fe5e0f00f379062fa0638251f036a5f3f521e9545a8e01cb7e66ba63899bb3fe3be5169fc7b4bf033ae4bfb0bef12f441f6c3abfb6cd0dc708d46fa15e14bdcd8e5a6bd3f1f8ea9bcf6eed3c7c0890245fb58b41abc9f08d7f2dbbf91678bcaa5ed2468d3d2e4b03fedd0571c65b31758136f749fb43b0036a7bd40d043979b588cfdbfbd1a345a29b3387944e3868dc450afc405ebd1419b69c9d8cd499bcd75739d5d88f83bdf023467aec38d6eb11dc0cf66aa29770631be085ea59345ca3375d3f16e2b83629adb039a6fa9b8d7ff3ce0cfe800bd1541098578bba72d54dc4bdc6968ec4c463624eb64afad897a9cfc82799549234e895f7fb495db9a40c7aa2cece3cdd64537ddb5f02275ac60beedd875a7b07b08d481d573b9bb171d95a9496c1e74e45416275dff6b09726d39efd34844c714b523e033f804a754ab24f8872aa2c5488551331ef82b1750b14f65b627e345d38aa2cf95b871484965d52ff1de0ba4826c8d0ba534e8bc92491af9b6173f0161366be830e59ac189025ee4f6d760cc5f77992afb30739f7af907c2ecf676827a68217bf1d8664afc7fc4401ddfdae375797fb049afb9dc4ac25884d624433592cbb7aed95b5c6638f9d492e3d5b2c9dbed5f29e449656632bf831501cffeabbc9b27246885b5180c5c130ed75d5a4542a9fc49a640082b0354ca23bd394e9312031cf961702b6ed592bcee17e9d8fd9c3a3c4bd9e72d3bf6466a85e9a34b59d47003769f113b7cffc41ed26631f0774eee5c342242bf9cf33d5d3d63594ea18c171300294d5e6f9fb521ee831735bc539b2db9eabfbf5df264dcdd7f6c108faedd372de9981c4fcefec1edd7730cf5736d46af5e6b72023e6d2d2d8215b227cc64b36b613db2aa1cb6f9678731e66533dc03337fad58616ab783a1d7bb8a5c1b4a1da8af6b878dd9641c7da5896c29e4a1096c371942aeecb8bb0549123a63e68055b347db6778833d1341cb17142a89967617cd5c1501356c93930d7728733b9375872435439d059e5b484d6e93604d865e4e623e6809f74debf6fe308a04195d89b9d351872c2fbde8478daf21b74bddf2d062c9904963dd5941e4283d54c99b218ff344dd68dda0475091bb7d279293b925e35dcb281a5530d24042c8b84033b27f29c145078a1075656d9f282e8761a5d54a7cfc462ef57999075aa9ee5bcc83bd0941e2568a2637b2273ceec3f54503eb9adf54cb20465adf16047d00a791d855eb5e019c7743e39a2a5481fe913b6b86d71a7034c42b9c4a2b2a95a98328c2c81dd9771d6905c4840cc4aa13ebe6541f37ecc9e1b7766fda5ecb0c2694033e016e757ab3c567ecdfdd07e16316a5b68987417722fb80966c92307b24914153f47ce97c1784cdf06896511e66f29ba936773a3a857232fdeae341deaa53ee3737bd82dbc01344fde49a7caa240e01a86a564e4cfe1d10b7822187af0dda7efd1c0f0256dbebbcde63c1285f063094747645b58619093e21b20e4c537deb86f662afffe2387b79c7d603998df5e43bdaf9b1d17ca1903ce09d8ba757fa230615b6ddbeda6f485b5ffee9341e60e9e4b6226d4f1e2c4c2d932dd9c3c3d4b47df5059c1ee89dfd75576d1804ca5e95406a07de8fb90feb217c236bd6bb2726251fc5cf534655285f2289d26f19a88753e7441786a0da8ae759d2b1c4cbe906033800b01f3cb18de37e9e69312931d32e545475296e64ca5613a29f179729688baa8762c1e31bbc2fc2f655d0f0dc10c0281327638a87d4b6fc4f3ead011e9650ac3b5b1e6db2090b2c9687c6beb2cdeb87460760e9b7d89890716ad0ce1e9a1b1680afe861def0be8d345b15a38c63cb899561a2a3e1ea171f6a4522bc3600ba83a116478acdc42e227893038454909de8fb0474dd6d0e14efdafd881936e6b40a46a7ed9e7c149caec3cf23f2c33c9bfb4441d1f3008de92192d774abe6170ecf7b4a0a7e3449205a3c62d2ee17843b16991c9e6e384b2b4653f69bdac56f2561507b3147a988ad1b0a0d25e844e1623adc41a134cf7ef44abe3876a049fdda46e3a5e313b51df3cf624a5d80c0caa73ff14652f582cf117285598f9fdd48f1ab78cab15735402e8ad56621d490f1ac44df372f6f158cbb04235fc19f8f451beab30a8ae06a46e7efd603c903a78bdb566097717bbeef700028a2fba50ca517b18e45b512db2b8083114d2975fa72270c7805bfb3f15eb92f72f09cbb70300398bf1ffdfcd4e799a86bed611ca585b47fe0ba9b8a67b712c93e9ff9904bad771067fe60b11961720f6b8002ac3e0406be96e6a185f7f291886df736d77ebf94a326751d2cef7b68b46580e2fd99870c417559a6786bc3436d1dc2ee091957bad067e7ba82f4d6b7d288e19d1bd7cc44a6db95bed218e1011cf9b8454f085076c4aff70c25e528b9ebbccea42d023a4a74370bbfdd1745d7a9f52dd8549ca3010e98a868d3ad6efa3134b7a2c67dfd291a458c47fc88fd3372c957c52ccb3c0c8e03e3001fef081e2d912073cddb42ea516d85de741a96caaf90217820d0620e1c292b303a404956626675a6b0b1b8c0dee8f4fc040b24273243444f516375777982a2b6e8f5fa020608121923313543637778888c93a2a6b7c0d818454c4e74a0abbabdc5ccd6d8dbeff6fafc000015283c4e01",
        "0005646711f0d5f5df3b41f0922c07952b90f9e43c2abc9e59a3971021dd8a7ef7abcc61108a32561c112c7ee0551f880c8c86bc8385a01ddf301de01b92afc4192d6da6d53e06b42440342c7af1b900ad5d83f8890d6b8ff3e4b43e08c3e774b58b5c3bad2777a19bdd34f2eaaaf46d68d197967d427397a4d8a0d6a31cac0890646ad38a9ad35ac657d32e8e1d70e0948e0cb80f5128aa5c46e37ca08f5c764b93c72abf81eb5dd748ca30d2a9015832cb707baa47cc6e6c4ce0cff538c615a274797e7b8f914dd66c3888f3e5de179d507416cb27fd33d5a05af9ab92a01182b96ed12f0e7dae985a34ab2603e9a106545bdd63270c12c71dafed1ffddefee4a617e4a44218f60def072edbfe60480309ff394d24a1ca1dfdaf6c37a2cb97517eb2aba754c7bf83d013609b02eb39913fdbe685260d9ad62363446662d7ce88ba759732e2da6acc14df562f529e7742d5b00df413774eb48a1e988aac0c41edbb4606ccf2c556b7af774a25413ac10f6ec29295da4459ed008dd25af76cb738d062389666ce68aa4c1bd05efe0f7b5fdfce582064b07aa9a754c00e04d41d84859a5ebe5dbb2e9621368f1f4849a094c56835183a1ab6cf9eb9e5e214d61b00654d2bee741012f2176c0fed47320902f90560104a5058aa159040c7c1c2506201f718cf2840d73a9570f1cc485738d5943087eec3999e06795348901a87d28abf5fc1150d4ef6ad189ccc2b2ce4f2611b11e4b58142977e72c2ba3120caae648411ffc7d94a20e5e0bd03910c5f6d5b86cea804975919775b48cf4f9d627c2e1a66dd38e02b15e4fccb5ca9f2a2a6bc75d3ad6bbd08e1b62be9fc3acc97a19436f830f44adfb0097433b521e8620e4664178ee75a9494bef594068474f9adf54be5d94169197a81b1d3f787828aa416b83e151514de4c24c459a67b9d19b71ec3f9600543048f9be80ab406d0a9aaf673493f274b98479825ba54eda8dfe309d402ca6b9c2e7d0c4ec6497287f2f9cfe91bab8bdd383a61aceaaa102c63ba5de3b99cf91c9040d5bb138b777a468e83e736ef0f365b7e32c5e0324b936cf9246d1c76b86d5c56af23aa247bbb2e867f05f142e32dc006bf4d48bd88b7dba9332be1956119b3a1ec7d699ae29c59804215fce1a368bdea49fd1219d46c9964cb2ebcc550445c0e7393cf50981b091b054156773aa757a423db74a2c3abc71c35e4ae61b688dbb04ee28983b65f3de91b772ccfb1f02318ed1aaad0b7d61bbeda4d41cfcc65547507e6bd4bb44d84e7964a3b786ad183cbec6857e2da91372b9740a7628b6088141bdd1334e71f55808d659edbaf7190308b17f825d6dbe01b797a4f144bb27bbb812e1ef7841200faa6fbabbb55be9e0604755c22e0cb6e65d9b797c1a22793647ff63032adc64c1e0ebe1aca5ca1530455868a44d255a9040a7d6cfee6f1f64d0add128717fa0055d10a44715b2a3f663ca5064c7cec9e31c77f604d872d40ed7b4506287d2dcb14202952fd56670e3c355ba02663e916aec4c0ec18ff07ad1ba68814a6b73f14a6b4f97999865acc7801c5c58cdbe3712c5c30477c3bc1176f67d0802054887adc18d17ec224b9de47461720116354d38173102c963fa4c98f988393766ef0732e21df9135d440ca958d5016ec8415e246588dc59078c64018e05b743d400a52b1e7d888cf7db6a426036fda164aac475a5823688cff276e70600ec85311dee90ffb9a76d8787ed08d229833767856502406d468c77bcac76771bcf1f2ca283792608cede827ddab7109f39265292610b7301ddfbc1a25e2c3168b1d184df2b7f715b8d621184ad5e2d98b455c29cebf8db4"
      ],
      "sequence": 4294967294
    }
  ],
  "vout": [
    {
      "value": 1.0,
      "n": 0,
      "scriptPubKey": {
        "asm": "OP_RETURN b2fcfdcc6f5cb345aa1239f0c13578028f961091e65eae24c369a70c3bb3318a a90ba434be2ccfd655bc219c7ba61104e0a63b45200aab2e0d76fd0262d2add0892b84149e0ceff6759c01bc5b863124c0861b65002a8b0e2d56dd2242f28df0e94be474fe6c8f9615fc61dc3be65144a0e67b05604aeb6e4d36bd422292ed90c96bc454de4cafb635dc41fc1bc6716480c65b25406acb4e6d169d6202b2cdb0298b24b43eac4f56d53ca11cfb2691846026bbc5a08a2bae8df67d82e2522d5009ab04941e8c6f76f51c813cdb06b1a440069be580aa0b8eadd65da2c2720d7069cb64f47eec0f16957ce15cbb66d1c42066fb85e0ca6beecdb63dc2a2126d1049eb44d45ecc2f36b55cc17c9b46f1e40046dba5c0ea4bceed961de282324d30a90ba434be2ccfd655bc219c7ba61104e0a63b45200aab2e0d76fd0262d2add0892b84149e0ceff6759c01bc5b863124c0861b65002a8b0e2d56dd2242f28df0e94be474fe6c8f9615fc61dc3be65144a0e67b05604aeb6e4d36bd422292ed90c96bc454de4cafb635dc41fc1bc6716480c65b25406acb4e6d169d6202b2cdb0298b24b43eac4f56d53ca11cfb2691846026bbc5a08a2bae8df67d82e2522d5009ab04941e8c6f76f51c813cdb06b1a440069be580aa0b8eadd65da2c2720d7069cb64f47eec0f16957ce15cbb66d1c42066fb85e0ca6beecdb63dc2a2126d1049eb44d45ecc2f36b55cc17c9b46f1e40046dba5c0ea4bceed961de282324d30a90ba434be2ccfd655bc219c7ba61104e0a63b45200aab2e0d76fd0262d2add0892b84149e0ceff6759c01bc5b863124c0861b65002a8b0e2d56dd2242f28df0e94be474fe6c8f9615fc61dc3be65144a0e67b05604aeb6e4d36bd422292ed90c96bc454de4cafb635dc41fc1bc6716480c65b25406acb4e6d169d6202b2cdb0298b24b43eac4f56d53ca11cfb2691846026bbc5a08a2bae8df67d82e2522d5009ab04941e8c6f76f51c813cdb06b1a440069be580aa0b8eadd65da2c2720d7069cb64f47eec0f16957ce15cbb66d1c42066fb85e0ca6beecdb63dc2a2126d1049eb44d45ecc2f36b55cc17c9b46f1e40046dba5c0ea4bceed961de282324d30a90ba434be2ccfd655bc219c7ba61104e0a63b45200aab2e0d76fd0262d2add0892b84149e0ceff6759c01bc5b863124c0861b65002a8b0e2d56dd2242f28df0e94be474fe6c8f9615fc61dc3be65144a0e67b05604aeb6e4d36bd422292ed90c96bc454de4cafb635dc41fc1bc6716480c65b25406acb4e6d169d6202b2cdb0298b24b43eac4f56d53ca11cfb2691846026bbc5a08a2bae8df67d82e2522d5009ab04941e8c6f76f51c813cdb06b1a440069be580aa0b8eadd65da2c2720d7069cb64f47eec0f16957ce15cbb66d1c42066fb85e0ca6beecdb63dc2a2126d1049eb44d45ecc2f36b55cc17c9b46f1e40046dba5c0ea4bceed961de282324d30a90ba434be2ccfd655bc219c7ba61104e0a63b45200aab2e0d76fd0262d2add0892b84149e0ceff6759c01bc5b863124c0861b65002a8b0e2d56dd2242f28df0e94be474fe6c8f9615fc61dc3be65144a0e67b05604aeb6e4d36bd422292ed90c96bc454de4cafb635dc41fc1bc6716480c65b25406acb4e6d169d6202b2cdb0298b24b43eac4f56d53ca11cfb269184b72a601347d1c3f3f02fea0a051cecf58d0d7eb9880c8ae462a55aa20beaae8d",
        "hex": "6a20b2fcfdcc6f5cb345aa1239f0c13578028f961091e65eae24c369a70c3bb3318a4db004a90ba434be2ccfd655bc219c7ba61104e0a63b45200aab2e0d76fd0262d2add0892b84149e0ceff6759c01bc5b863124c0861b65002a8b0e2d56dd2242f28df0e94be474fe6c8f9615fc61dc3be65144a0e67b05604aeb6e4d36bd422292ed90c96bc454de4cafb635dc41fc1bc6716480c65b25406acb4e6d169d6202b2cdb0298b24b43eac4f56d53ca11cfb2691846026bbc5a08a2bae8df67d82e2522d5009ab04941e8c6f76f51c813cdb06b1a440069be580aa0b8eadd65da2c2720d7069cb64f47eec0f16957ce15cbb66d1c42066fb85e0ca6beecdb63dc2a2126d1049eb44d45ecc2f36b55cc17c9b46f1e40046dba5c0ea4bceed961de282324d30a90ba434be2ccfd655bc219c7ba61104e0a63b45200aab2e0d76fd0262d2add0892b84149e0ceff6759c01bc5b863124c0861b65002a8b0e2d56dd2242f28df0e94be474fe6c8f9615fc61dc3be65144a0e67b05604aeb6e4d36bd422292ed90c96bc454de4cafb635dc41fc1bc6716480c65b25406acb4e6d169d6202b2cdb0298b24b43eac4f56d53ca11cfb2691846026bbc5a08a2bae8df67d82e2522d5009ab04941e8c6f76f51c813cdb06b1a440069be580aa0b8eadd65da2c2720d7069cb64f47eec0f16957ce15cbb66d1c42066fb85e0ca6beecdb63dc2a2126d1049eb44d45ecc2f36b55cc17c9b46f1e40046dba5c0ea4bceed961de282324d30a90ba434be2ccfd655bc219c7ba61104e0a63b45200aab2e0d76fd0262d2add0892b84149e0ceff6759c01bc5b863124c0861b65002a8b0e2d56dd2242f28df0e94be474fe6c8f9615fc61dc3be65144a0e67b05604aeb6e4d36bd422292ed90c96bc454de4cafb635dc41fc1bc6716480c65b25406acb4e6d169d6202b2cdb0298b24b43eac4f56d53ca11cfb2691846026bbc5a08a2bae8df67d82e2522d5009ab04941e8c6f76f51c813cdb06b1a440069be580aa0b8eadd65da2c2720d7069cb64f47eec0f16957ce15cbb66d1c42066fb85e0ca6beecdb63dc2a2126d1049eb44d45ecc2f36b55cc17c9b46f1e40046dba5c0ea4bceed961de282324d30a90ba434be2ccfd655bc219c7ba61104e0a63b45200aab2e0d76fd0262d2add0892b84149e0ceff6759c01bc5b863124c0861b65002a8b0e2d56dd2242f28df0e94be474fe6c8f9615fc61dc3be65144a0e67b05604aeb6e4d36bd422292ed90c96bc454de4cafb635dc41fc1bc6716480c65b25406acb4e6d169d6202b2cdb0298b24b43eac4f56d53ca11cfb2691846026bbc5a08a2bae8df67d82e2522d5009ab04941e8c6f76f51c813cdb06b1a440069be580aa0b8eadd65da2c2720d7069cb64f47eec0f16957ce15cbb66d1c42066fb85e0ca6beecdb63dc2a2126d1049eb44d45ecc2f36b55cc17c9b46f1e40046dba5c0ea4bceed961de282324d30a90ba434be2ccfd655bc219c7ba61104e0a63b45200aab2e0d76fd0262d2add0892b84149e0ceff6759c01bc5b863124c0861b65002a8b0e2d56dd2242f28df0e94be474fe6c8f9615fc61dc3be65144a0e67b05604aeb6e4d36bd422292ed90c96bc454de4cafb635dc41fc1bc6716480c65b25406acb4e6d169d6202b2cdb0298b24b43eac4f56d53ca11cfb269184b72a601347d1c3f3f02fea0a051cecf58d0d7eb9880c8ae462a55aa20beaae8d",
        "type": "nulldata"
      }
    },
    {
      "value": 499995.9324,
      "n": 1,
      "scriptPubKey": {
        "asm": "1 909fca0252e48d9f85f76fad15139afd0421226da6be00ba1acf1017512db5f1",
        "hex": "5120909fca0252e48d9f85f76fad15139afd0421226da6be00ba1acf1017512db5f1",
        "reqSigs": 1,
        "type": "witness_v1_scripthash",
        "addresses": [
          "3QJmnh"
        ]
      }
    }
  ],
  "blockhash": "32a2d379a33ec88ae1cb3a8a1a44f2d12b76aebf574ecf7ac16b289397ed6cd9",
  "confirmations": 1,
  "time": 1764176557,
  "blocktime": 1764176557
}