{
  "hex": "0100000000010116eecb55e5c5f1bdeafed114267f2c1df78423c7acdf9a5b3d1cdc9f5785a9380000000000feffffff0200e1f50500000000fdd5046a206336786cd7781cda243e507ff32631a6313e9f3047c7716264b91a445e2e3d444db004374a8e5ffa337ef3352978cf54358b5ca8501aa759ae88f57f9b7012dca1b972176aae7fda135ed3150958ef7415ab7c88703a87798ea8d55fbb5032fc819952770ace1fba733eb37569388f1475cb1ce8105ae719eec8b53fdb30529ce1f932572aee3f9a531e93554918af3455eb3cc8307ac739cee8951ffb1072bcc1d912b7ca0edf7ab3fe73b5a9f84fd4b50bdc28d09a27d92e0875ff1bf0925c2139f297ea2eff5a93de539589d86ff4952bfc08f0ba07f90e2855df3bd0b27c0119d2f78a4e9f3af3be33f5e9b80f94f54b9c6890da67996e4835bf5bb0d21c6179b2d7aa6ebf1ad39e13d5c9982fb4d56bbc48b0fa47b94e68159f7b90f23c415992374a8e5ffa337ef3352978cf54358b5ca8501aa759ae88f57f9b7012dca1b972176aae7fda135ed3150958ef7415ab7c88703a87798ea8d55fbb5032fc819952770ace1fba733eb37569388f1475cb1ce8105ae719eec8b53fdb30529ce1f932572aee3f9a531e93554918af3455eb3cc8307ac739cee8951ffb1072bcc1d912b7ca0edf7ab3fe73b5a9f84fd4b50bdc28d09a27d92e0875ff1bf0925c2139f297ea2eff5a93de539589d86ff4952bfc08f0ba07f90e2855df3bd0b27c0119d2f78a4e9f3af3be33f5e9b80f94f54b9c6890da67996e4835bf5bb0d21c6179b2d7aa6ebf1ad39e13d5c9982fb4d56bbc48b0fa47b94e68159f7b90f23c415992374a8e5ffa337ef3352978cf54358b5ca8501aa759ae88f57f9b7012dca1b972176aae7fda135ed3150958ef7415ab7c88703a87798ea8d55fbb5032fc819952770ace1fba733eb37569388f1475cb1ce8105ae719eec8b53fdb30529ce1f932572aee3f9a531e93554918af3455eb3cc8307ac739cee8951ffb1072bcc1d912b7ca0edf7ab3fe73b5a9f84fd4b50bdc28d09a27d92e0875ff1bf0925c2139f297ea2eff5a93de539589d86ff4952bfc08f0ba07f90e2855df3bd0b27c0119d2f78a4e9f3af3be33f5e9b80f94f54b9c6890da67996e4835bf5bb0d21c6179b2d7aa6ebf1ad39e13d5c9982fb4d56bbc48b0fa47b94e68159f7b90f23c415992374a8e5ffa337ef3352978cf54358b5ca8501aa759ae88f57f9b7012dca1b972176aae7fda135ed3150958ef7415ab7c88703a87798ea8d55fbb5032fc819952770ace1fba733eb37569388f1475cb1ce8105ae719eec8b53fdb30529ce1f932572aee3f9a531e93554918af3455eb3cc8307ac739cee8951ffb1072bcc1d912b7ca0edf7ab3fe73b5a9f84fd4b50bdc28d09a27d92e0875ff1bf0925c2139f297ea2eff5a93de539589d86ff4952bfc08f0ba07f90e2855df3bd0b27c0119d2f78a4e9f3af3be33f5e9b80f94f54b9c6890da67996e4835bf5bb0d21c6179b2d7aa6ebf1ad39e13d5c9982fb4d56bbc48b0fa47b94e68159f7b90f23c415992374a8e5ffa337ef3352978cf54358b5ca8501aa759ae88f57f9b7012dca1b972176aae7fda135ed3150958ef7415ab7c88703a87798ea8d55fbb5032fc819952770ace1fba733eb37569388f1475cb1ce8105ae719eec8b53fdb30529ce1f932572aee3f9a531e93554918af3455eb3cc8307ac739cee8951ffb1072bcc1d912b7ca0edf7ab3fe73b5a9f84fd4b50bdcce460f8175afd960867940f6fef7e20bf083805ad14d777ffb2ef369e704b3eaa020df63792d0000225120c0c1c0e494542b9a55f6af33d5478b451d0688c64b139ef39e057bc30d28f03d02fd7509449c9242ca520b3b6b5230054b33ff55d2f4a9e4bd7b138b60e00b46164a984c1bd448e582d7acbf9b57bf9e2fcaf504b7a523c48044c10ca2300b81b01938baade4ff036a6f0b5902b7538c608b1f85e881bd70627967791ab12ea2021eb4d738c25d9c97dfd1f6a445eda9460a1cc6437f1532bed326852c2778817c65aa009397f627b5a35c7addbd452878f789bec61eb38388df5b2b1c281de78076d781087e22fb407459ec08822282ca75e34631793495b227f04e3b09009b26a597796428a2562ab00532a678cc7e9afb441cfb514f6ebe35ca6a4da5e8f132121c6da171d0d2aa63a99e7511b50a262d036d45a430ad2a25f1ae8f094f6f972110b5158d3a03ab2c3e5ccc85f51b74580f13813fdabfa7c36b280474c580ad704adef494381b08ddbece6b73582b03595a3edb55bcf332840de1d8afd4f6ef9ea57fc4c5ffaf0ae07b1bebe7ca3f4059d97450faf43f8c6179d92556eed75fd3c895570406e3b505608c0aad8660c50bbbcee0b1f0e5924e959c9c5397b80cb97245acd1b6d64ba26fb3bae5c02d85e1f94e5ed8ab37e33456ed3a70e16708dc01ad9469755ac00deae514353fc82d3d8bd02d70f8b957aae08b9df9b3a2caa61814e2a8ea385ffdf6d2847d62d573b387cfe290e3a5e94e16f4edf258870045054a5bd0feeba05cdb739e503195bcec9c6e0f234bd8d4177c964f066e017866854c7f59881acbbc703c577fc3bee01e4c03e2e0a8fa47f6d7a024037534ee0d49c9d69d9e1d469efe8b3e34da6254f78348ec4b368d08714b09ec14d197f1eb27719551753bbdd5d0905acfb851f1e265dbf89cc1134ff240ccc395b09084b295e155b556e6a4cbb2fedc002cce2fe29da302559467b7dd26f5bbf33002394c7fbe2236506a8d84942a0fd743203e22f3829ed72248037f63683b0b79ade8d976f23ad4f228873e8545183e6c3447fbf0e850b562f4271ec1b8b6699cd4703291b083035f42c92557649715f12a04bd96e0d8125d1f81f24e6813030d45ff87e582ccbb3951ca191d09e505b80ce928bf6107e499d26e79168a00d20e39fe6c111fc31640598e2ce88a9992f9610680c353dd227f1e9093c2c7c0af72df063e5d473063c6155cfb3d8388c10ff31ad71b6ca0be31ee46751e2ae8fa4652beaf684e64731b5ae4b70a5e71d55f0386a8d8856daf5ee80ecf6eba51ec3a2a6f8193571aa62151165e2354b1e8f111aec0e310d6e90dbfe5de826848c4bd35905f6aaa407c7aa619b658d9405c6f58104dadce608d04ddaf0a95dae7dec3d599effe9af6f28b0f901bc037f26b6a227f19a7247a1775d4480fb1a1c7537700c96b321fb25f19847e889b58c0c98b50f67961b9591843188047ce8984203e66cd7b1f86f7c7b0a99345b3b9b47a0fd071d0e59530a012197380b22fe02f41b2e8ab16503d14e8ea445d4ab18d81b8915c12869b13b0a9bccccf0f84190d515408c85bc7d3081ea229df8deb4cf09f3d43929cf68ac56a2950c20a8f6da1e2a1b1168064243bd40295a4a663c09eb5c2c96b1a01ac2b83e2c10b246c436f619da8a01c5a7f85d69b4c50349994fc2076a1afd7bf9dc3d5928d6ceb510d079a274a6a98008cf2316a1063a196a862584e965bbd1cd070b82861596517e1609afac95d60b357b76eb881ec575b0044fa9d8b98e8679b238ab391cfb461ba0bf9ac6786a5a737006681506f9d0b2b9c867bc9b70cefc878a866a9e47a056273c82c15c3497b762fa0176dc3395806a37c08051bbb17f99f19a1276a50ca5adbd2c7694c036c5df35c7a68395fabdea390132d4b17d063f11a13e6ecd1d56ddf55b15cfcd2d5c217bb9245c751228253136b54a73a6d7dfd4e5894d8f2796dbcfc0ae8953ae0913dbb26cb837b3189c6d7f5597026579924ac138a947cca14be1934643a0fca3973372ed30c78190917bc561a48ea768f00bd1520afae41ee46996730be8e141f722ba2da2c44c65cbee857f4f7a88e3cf92fb12cb26b6d52f452a78f4fe5e25621f49736db6449c71007cce69dceb1cf75184e599e08f4d1d7042f2e9b0771fcbabc77bbbaaf5075243f457165aeb011e5f00e33c9da449cc2e23c5d4639fb8d47500a74bb16d0ebb096370e8cc9c437abeb56a71f95a57e178d998fe4e2a2769e8a06992a5407f3c55ad4b066b98fbe2a3219bf0df18637ed6c48b13c23d06e9389be7fb8fcd411e6d3eef6b6783217ac56095810afaa99347b23dc5db8f92a683c1d5e7ef7375f9f8eb1656fd17e0eef3c5050e6429ee6d156414ec10eed510659f5002217ee01459ffa3b1ad704c435a2e91f119153377c78fce973117b538aa02c008dcc57b7f8de55e83c023d8743bf953a25eb3dede03dcb36366aad5fed1651b10db594093685dc9ace047b79ad2528ac86bb5d5eacd496812f04458f4599ab9781301510d5c8e224301fc7dd5cb0e2dbecd21c1c6b8784420f599daa92ea73947aa599df5c94e306703387de67e8333a9a998440636f71bc9daf383ee9d0551bb2d4258691d6bbdd862d85b916260d679b3fc615e876f16cc6248aab82ccbff2bae57c17e98b40c21062ed951415cc60912d55369461f2c4a04d29db18ba9a3348bfaaf814386eb699a4653220b5c333f3096e2d855fa49f535463065eccc1f65f4dd8ae9b1a637ce40290f94759460348730b239753b2b593c97ae9999cbac52c2e9ac8466a8552cdd072fba197bb1482b8bf8f9ec0fd645f6b1d8c3dd77032f3bc4f8fb1e0fe64947c34e6c9c398620e909494e3466ea38e737310337313a4f286be74350585fefd8ee1310871daf79ee3be5c1c2880209d6bdb1cdcfec889a472bd6f556ccc301772a4efda97ecd1cdfbc03bedd22c154eac6862e48c8faee6f6c339cb63d724cba21ad15415cf04bbd448a923cadaea263c0c4b869e9b8b105f71a17768c4e6ea0cd47840f2ca7a2298aadf1742b97ee54bdcb644db742903f5cca663a06e9e4ed4416618a6b27fe4b11c9a08122c68aeac3663d42e1f870f14f6dc8491147900f51e03da22769247381f587c19a990d2305f520b4e6081f16eabcb2642b204cf3c7695b153a20725f1a20fc63f8b1e34f68372e1959ae74ae3293c16c2f408da62450ee3c6dc32f212d28226a892e8ed2344becaa2975155d223b7dde3437eb5975a8a8effed8a7c17c4780474ca199bc82783e25264faa33a34c017319b160c834ef2d7b86d40b8d461664ea4147997eb7e76355202f428f148a1dd128267200faf233294ecd445d659419b02779ff8950014173334797f8398a8ced4e7ecf1f31720304654c2d1dee3050a32393b71727382848889959699a8afbec7f0f4050d172b2f7177797b8d909397a9aaabbcf1f3000000000000000000000000000000000f182d4001fd21050069ecf77ee62b1ac4351fe72def5c1e48179caca96d1d3aeecb1b25c3d19a2b91b62af2f104d2385d62a1ae02bd66de67993c6088edacdb3e1e000415e53211652a6af316d0c56dafe872ab5f3b222fd7352070035b3e16ef4c06ee9752c46592a007b42d3c92f5635aa09dfba7e12e23a5a2ae541f06cabc427cb61fdd0f4eda992f3beedd8048a517976ada937936dba218a9395df532f8fadb93f9b466d8a9c617ba658177fc37b203260bdf2f8266b34adc28fd53c834ab3caa2f0f0f79a05215125b4b42f9f93d54e05ab3196d4d6a81d2b7c516f254ca28b68238e687d678115e39af9911ecc411324b2f6aabe80626b609be358fed6f3523e572e4882d54da9763d2389078c5e3e1d86b31d9620f5a96fe6907e0fbf13aee72f113c6fa0f97bc7aaa542dedc271ee3852a90d29be09ff1f0799cdc26a9fe2d413e3e00593bf3e414730b9d38942343d0d71c7bc36674c687cb0732cf96226692b8c71bad0ffe83a2400b998c700ccede4fe73b8dc4960a6a90a1b7a9f8a0ca16fd4c089d229abfe289b85f9fb751f5f2334d1cece0e3db0ee1c7c5814511a2bb052758bdf488aee94b1749bf968cc3652e8914b912f6b14c872a8e4f88fdf87b37353f336e20c04488a6ef036f4fa23f82ba70ff04c6e5c09331ad1df7c323f2bd2cc42fd2ba00ff325d80d64170b95201aab9fa5f05b3ee9e056c5c4ed3badfd167fae8c3393eddc70511f133457dedf4fe35bb2b8a900b085471f884cbca4c0b3e4473d0518d42531b7faf71bfd4cc4e6329aceedb44e5077a6a2791f78af62f6608f6c44af4e8a7870bbd4a37b5c619e3107154cdcee1b379fb8a10a08248c27b746771f846699c7c727badfd396c2ddf1c484a40258471cf4cb4d7234186894b585481b6113f217bdc3412482bfd9e464f1f60046afb07bbdb8b5eabb2c8a39ff7dd783fd2bd26d14465786bf8e1227f6fa47badbecbbf9a2d2fdac4035d406979d6bd08b2485351769f7a8c2358e7f49e0720de45791233ee30057a1eb0cde3bd912518083bf2f5d7c56cf9df13a768c90fd542ce8d4c56f7d2ae3c100d3f38e90857262e6c8001312869937373a7124b86722d6888092290af47877dfba0d13b04d95f8a46d6852e23e79a55210a13856bcdf41c1bf438e20b393a206518bc18a2aac3bdb9ad6a463964c4c1d4c5eb53bedfd38bd9479070209e83157cd154d683921780073040511eb9520736b6795ed200d4715abf6b17eac6a98797e995203791a6606ed569822b4bbca5ae6eebe826a673346a195f4667f2cf2e524bea70ec63551d766b5f11614e7f04f83d2aae6dda8c535840be4c5006fd64e43ab97b4d5193f09d1c11f908b39bc65e960f105b1ca180d2b3e875ecf319d69d6460d029692cb1fe6128daa0c3f1610818e29523b9f9432a03d4bf3261299e3d4e52a94effcdb0b037914efd70724f2b8344774fc90755321e5c35d86823c9b008a384462be4de93a94fffea1079e75f1d5e6a5ac5acc3c5dd828861e1203220acbc7a7c34460a57b1d8e43d4dc1b77f22d4f54fad0f8e5fa8a539eb03f7e377edf54b6865a968cbca341637b8c578918ef43118650b844df13acd38304041613d691769351ddeb749b73878dabb8ba6a3f4ae8a20f7cf6b0de5d86e70be4296569c30820da11165547600ee610220fe4c5bab006feb8894c3dc7a3ce27be001c3fd5b50e2305adce8b1467efc913fa4e08b1460d493b5667137ea1c29ae9f685e2eb23e35143cf7469b87e258531f4073c22a91763bab6f50011dd3a62d5f889ea516d82848e71c5d35b32e23515643c688081274554d85005e6660cf720f6b7ed8cf568000000",
  "txid": "c6afade6280bf1ffc8ab8d480fc03348888a6698817ca85487dea1783aae832c",
  "hash": "ea779d4b41a57ac3cb389349c4abc5459b802f4cea1fc93d6ba62e46c6652230",
  "size": 5085,
  "vsize": 2278,
  "version": 1,
  "locktime": 104,
  "vin": [
    {
      "txid": "38a985579fdc1c3d5b9adfacc72384f71d2c7f2614d1feeabdf1c5e555cbee16",
      "vout": 0,
      "scriptSig": {
        "asm": "",
        "hex": ""
      },
      "txinwitness": [
        "449c9242ca520b3b6b5230054b33ff55d2f4a9e4bd7b138b60e00b46164a984c1bd448e582d7acbf9b57bf9e2fcaf504b7a523c48044c10ca2300b81b01938baade4ff036a6f0b5902b7538c608b1f85e881bd70627967791ab12ea2021eb4d738c25d9c97dfd1f6a445eda9460a1cc6437f1532bed326852c2778817c65aa009397f627b5a35c7addbd452878f789bec61eb38388df5b2b1c281de78076d781087e22fb407459ec08822282ca75e34631793495b227f04e3b09009b26a597796428a2562ab00532a678cc7e9afb441cfb514f6ebe35ca6a4da5e8f132121c6da171d0d2aa63a99e7511b50a262d036d45a430ad2a25f1ae8f094f6f972110b5158d3a03ab2c3e5ccc85f51b74580f13813fdabfa7c36b280474c580ad704adef494381b08ddbece6b73582b03595a3edb55bcf332840de1d8afd4f6ef9ea57fc4c5ffaf0ae07b1bebe7ca3f4059d97450faf43f8c6179d92556eed75fd3c895570406e3b505608c0aad8660c50bbbcee0b1f0e5924e959c9c5397b80cb97245acd1b6d64ba26fb3bae5c02d85e1f94e5ed8ab37e33456ed3a70e16708dc01ad9469755ac00deae514353fc82d3d8bd02d70f8b957aae08b9df9b3a2caa61814e2a8ea385ffdf6d2847d62d573b387cfe290e3a5e94e16f4edf258870045054a5bd0feeba05cdb739e503195bcec9c6e0f234bd8d4177c964f066e017866854c7f59881acbbc703c577fc3bee01e4c03e2e0a8fa47f6d7a024037534ee0d49c9d69d9e1d469efe8b3e34da6254f78348ec4b368d08714b09ec14d197f1eb27719551753bbdd5d0905acfb851f1e265dbf89cc1134ff240ccc395b09084b295e155b556e6a4cbb2fedc002cce2fe29da302559467b7dd26f5bbf33002394c7fbe2236506a8d84942a0fd743203e22f3829ed72248037f63683b0b79ade8d976f23ad4f228873e8545183e6c3447fbf0e850b562f4271ec1b8b6699cd4703291b083035f42c92557649715f12a04bd96e0d8125d1f81f24e6813030d45ff87e582ccbb3951ca191d09e505b80ce928bf6107e499d26e79168a00d20e39fe6c111fc31640598e2ce88a9992f9610680c353dd227f1e9093c2c7c0af72df063e5d473063c6155cfb3d8388c10ff31ad71b6ca0be31ee46751e2ae8fa4652beaf684e64731b5ae4b70a5e71d55f0386a8d8856daf5ee80ecf6eba51ec3a2a6f8193571aa62151165e2354b1e8f111aec0e310d6e90dbfe5de826848c4bd35905f6aaa407c7aa619b658d9405c6f58104dadce608d04ddaf0a95dae7dec3d599effe9af6f28b0f901bc037f26b6a227f19a7247a1775d4480fb1a1c7537700c96b321fb25f19847e889b58c0c98b50f67961b9591843188047ce8984203e66cd7b1f86f7c7b0a99345b3b9b47a0fd071d0e59530a012197380b22fe02f41b2e8ab16503d14e8ea445d4ab18d81b8915c12869b13b0a9bccccf0f84190d515408c85bc7d3081ea229df8deb4cf09f3d43929cf68ac56a2950c20a8f6da1e2a1b1168064243bd40295a4a663c09eb5c2c96b1a01ac2b83e2c10b246c436f619da8a01c5a7f85d69b4c50349994fc2076a1afd7bf9dc3d5928d6ceb510d079a274a6a98008cf2316a1063a196a862584e965bbd1cd070b82861596517e1609afac95d60b357b76eb881ec575b0044fa9d8b98e8679b238ab391cfb461ba0bf9ac6786a5a737006681506f9d0b2b9c867bc9b70cefc878a866a9e47a056273c82c15c3497b762fa0176dc3395806a37c08051bbb17f99f19a1276a50ca5adbd2c7694c036c5df35c7a68395fabdea390132d4b17d063f11a13e6ecd1d56ddf55b15cfcd2d5c217bb9245c751228253136b54a73a6d7dfd4e5894d8f2796dbcfc0ae8953ae0913dbb26cb837b3189c6d7f5597026579924ac138a947cca14be1934643a0fca3973372ed30c78190917bc561a48ea768f00bd1520afae41ee46996730be8e141f722ba2da2c44c65cbee857f4f7a88e3cf92fb12cb26b6d52f452a78f4fe5e25621f49736db6449c71007cce69dceb1cf75184e599e08f4d1d7042f2e9b0771fcbabc77bbbaaf5075243f457165aeb011e5f00e33c9da449cc2e23c5d4639fb8d47500a74bb16d0ebb096370e8cc9c437abeb56a71f95a57e178d998fe4e2a2769e8a06992a5407f3c55ad4b066b98fbe2a3219bf0df18637ed6c48b13c23d06e9389be7fb8fcd411e6d3eef6b6783217ac56095810afaa99347b23dc5db8f92a683c1d5e7ef7375f9f8eb1656fd17e0eef3c5050e6429ee6d156414ec10eed510659f5002217ee01459ffa3b1ad704c435a2e91f119153377c78fce973117b538aa02c008dcc57b7f8de55e83c023d8743bf953a25eb3dede03dcb36366aad5fed1651b10db594093685dc9ace047b79ad2528ac86bb5d5eacd496812f04458f4599ab9781301510d5c8e224301fc7dd5cb0e2dbecd21c1c6b8784420f599daa92ea73947aa599df5c94e306703387de67e8333a9a998440636f71bc9daf383ee9d0551bb2d4258691d6bbdd862d85b916260d679b3fc615e876f16cc6248aab82ccbff2bae57c17e98b40c21062ed951415cc60912d55369461f2c4a04d29db18ba9a3348bfaaf814386eb699a4653220b5c333f3096e2d855fa49f535463065eccc1f65f4dd8ae9b1a637ce40290f94759460348730b239753b2b593c97ae9999cbac52c2e9ac8466a8552cdd072fba197bb1482b8bf8f9ec0fd645f6b1d8c3dd77032f3bc4f8fb1e0fe64947c34e6c9c398620e909494e3466ea38e737310337313a4f286be74350585fefd8ee1310871daf79ee3be5c1c2880209d6bdb1cdcfec889a472bd6f556ccc301772a4efda97ecd1cdfbc03bedd22c154eac6862e48c8faee6f6c339cb63d724cba21ad15415cf04bbd448a923cadaea263c0c4b869e9b8b105f71a17768c4e6ea0cd47840f2ca7a2298aadf1742b97ee54bdcb644db742903f5cca663a06e9e4ed4416618a6b27fe4b11c9a08122c68aeac3663d42e1f870f14f6dc8491147900f51e03da22769247381f587c19a990d2305f520b4e6081f16eabcb2642b204cf3c7695b153a20725f1a20fc63f8b1e34f68372e1959ae74ae3293c16c2f408da62450ee3c6dc32f212d28226a892e8ed2344becaa2975155d223b7dde3437eb5975a8a8effed8a7c17c4780474ca199bc82783e25264faa33a34c017319b160c834ef2d7b86d40b8d461664ea4147997eb7e76355202f428f148a1dd128267200faf233294ecd445d659419b02779ff8950014173334797f8398a8ced4e7ecf1f31720304654c2d1dee3050a32393b71727382848889959699a8afbec7f0f4050d172b2f7177797b8d909397a9aaabbcf1f3000000000000000000000000000000000f182d4001",
        "0069ecf77ee62b1ac4351fe72def5c1e48179caca96d1d3aeecb1b25c3d19a2b91b62af2f104d2385d62a1ae02bd66de67993c6088edacdb3e1e000415e53211652a6af316d0c56dafe872ab5f3b222fd7352070035b3e16ef4c06ee9752c46592a007b42d3c92f5635aa09dfba7e12e23a5a2ae541f06cabc427cb61fdd0f4eda992f3beedd8048a517976ada937936dba218a9395df532f8fadb93f9b466d8a9c617ba658177fc37b203260bdf2f8266b34adc28fd53c834ab3caa2f0f0f79a05215125b4b42f9f93d54e05ab3196d4d6a81d2b7c516f254ca28b68238e687d678115e39af9911ecc411324b2f6aabe80626b609be358fed6f3523e572e4882d54da9763d2389078c5e3e1d86b31d9620f5a96fe6907e0fbf13aee72f113c6fa0f97bc7aaa542dedc271ee3852a90d29be09ff1f0799cdc26a9fe2d413e3e00593bf3e414730b9d38942343d0d71c7bc36674c687cb0732cf96226692b8c71bad0ffe83a2400b998c700ccede4fe73b8dc4960a6a90a1b7a9f8a0ca16fd4c089d229abfe289b85f9fb751f5f2334d1cece0e3db0ee1c7c5814511a2bb052758bdf488aee94b1749bf968cc3652e8914b912f6b14c872a8e4f88fdf87b37353f336e20c04488a6ef036f4fa23f82ba70ff04c6e5c09331ad1df7c323f2bd2cc42fd2ba00ff325d80d64170b95201aab9fa5f05b3ee9e056c5c4ed3badfd167fae8c3393eddc70511f133457dedf4fe35bb2b8a900b085471f884cbca4c0b3e4473d0518d42531b7faf71bfd4cc4e6329aceedb44e5077a6a2791f78af62f6608f6c44af4e8a7870bbd4a37b5c619e3107154cdcee1b379fb8a10a08248c27b746771f846699c7c727badfd396c2ddf1c484a40258471cf4cb4d7234186894b585481b6113f217bdc3412482bfd9e464f1f60046afb07bbdb8b5eabb2c8a39ff7dd783fd2bd26d14465786bf8e1227f6fa47badbecbbf9a2d2fdac4035d406979d6bd08b2485351769f7a8c2358e7f49e0720de45791233ee30057a1eb0cde3bd912518083bf2f5d7c56cf9df13a768c90fd542ce8d4c56f7d2ae3c100d3f38e90857262e6c8001312869937373a7124b86722d6888092290af47877dfba0d13b04d95f8a46d6852e23e79a55210a13856bcdf41c1bf438e20b393a206518bc18a2aac3bdb9ad6a463964c4c1d4c5eb53bedfd38bd9479070209e83157cd154d683921780073040511eb9520736b6795ed200d4715abf6b17eac6a98797e995203791a6606ed569822b4bbca5ae6eebe826a673346a195f4667f2cf2e524bea70ec63551d766b5f11614e7f04f83d2aae6dda8c535840be4c5006fd64e43ab97b4d5193f09d1c11f908b39bc65e960f105b1ca180d2b3e875ecf319d69d6460d029692cb1fe6128daa0c3f1610818e29523b9f9432a03d4bf3261299e3d4e52a94effcdb0b037914efd70724f2b8344774fc90755321e5c35d86823c9b008a384462be4de93a94fffea1079e75f1d5e6a5ac5acc3c5dd828861e1203220acbc7a7c34460a57b1d8e43d4dc1b77f22d4f54fad0f8e5fa8a539eb03f7e377edf54b6865a968cbca341637b8c578918ef43118650b844df13acd38304041613d691769351ddeb749b73878dabb8ba6a3f4ae8a20f7cf6b0de5d86e70be4296569c30820da11165547600ee610220fe4c5bab006feb8894c3dc7a3ce27be001c3fd5b50e2305adce8b1467efc913fa4e08b1460d493b5667137ea1c29ae9f685e2eb23e35143cf7469b87e258531f4073c22a91763bab6f50011dd3a62d5f889ea516d82848e71c5d35b32e23515643c688081274554d85005e6660cf720f6b7ed8cf5"
      ],
      "sequence": 4294967294
    }
  ],
  "vout": [
    {
      "value": 1.0,
      "n": 0,
      "scriptPubKey": {
        "asm": "OP_RETURN 6336786cd7781cda243e507ff32631a6313e9f3047c7716264b91a445e2e3d44 374a8e5ffa337ef3352978cf54358b5ca8501aa759ae88f57f9b7012dca1b972176aae7fda135ed3150958ef7415ab7c88703a87798ea8d55fbb5032fc819952770ace1fba733eb37569388f1475cb1ce8105ae719eec8b53fdb30529ce1f932572aee3f9a531e93554918af3455eb3cc8307ac739cee8951ffb1072bcc1d912b7ca0edf7ab3fe73b5a9f84fd4b50bdc28d09a27d92e0875ff1bf0925c2139f297ea2eff5a93de539589d86ff4952bfc08f0ba07f90e2855df3bd0b27c0119d2f78a4e9f3af3be33f5e9b80f94f54b9c6890da67996e4835bf5bb0d21c6179b2d7aa6ebf1ad39e13d5c9982fb4d56bbc48b0fa47b94e68159f7b90f23c415992374a8e5ffa337ef3352978cf54358b5ca8501aa759ae88f57f9b7012dca1b972176aae7fda135ed3150958ef7415ab7c88703a87798ea8d55fbb5032fc819952770ace1fba733eb37569388f1475cb1ce8105ae719eec8b53fdb30529ce1f932572aee3f9a531e93554918af3455eb3cc8307ac739cee8951ffb1072bcc1d912b7ca0edf7ab3fe73b5a9f84fd4b50bdc28d09a27d92e0875ff1bf0925c2139f297ea2eff5a93de539589d86ff4952bfc08f0ba07f90e2855df3bd0b27c0119d2f78a4e9f3af3be33f5e9b80f94f54b9c6890da67996e4835bf5bb0d21c6179b2d7aa6ebf1ad39e13d5c9982fb4d56bbc48b0fa47b94e68159f7b90f23c415992374a8e5ffa337ef3352978cf54358b5ca8501aa759ae88f57f9b7012dca1b972176aae7fda135ed3150958ef7415ab7c88703a87798ea8d55fbb5032fc819952770ace1fba733eb37569388f1475cb1ce8105ae719eec8b53fdb30529ce1f932572aee3f9a531e93554918af3455eb3cc8307ac739cee8951ffb1072bcc1d912b7ca0edf7ab3fe73b5a9f84fd4b50bdc28d09a27d92e0875ff1bf0925c2139f297ea2eff5a93de539589d86ff4952bfc08f0ba07f90e2855df3bd0b27c0119d2f78a4e9f3af3be33f5e9b80f94f54b9c6890da67996e4835bf5bb0d21c6179b2d7aa6ebf1ad39e13d5c9982fb4d56bbc48b0fa47b94e68159f7b90f23c415992374a8e5ffa337ef3352978cf54358b5ca8501aa759ae88f57f9b7012dca1b972176aae7fda135ed3150958ef7415ab7c88703a87798ea8d55fbb5032fc819952770ace1fba733eb37569388f1475cb1ce8105ae719eec8b53fdb30529ce1f932572aee3f9a531e93554918af3455eb3cc8307ac739cee8951ffb1072bcc1d912b7ca0edf7ab3fe73b5a9f84fd4b50bdc28d09a27d92e0875ff1bf0925c2139f297ea2eff5a93de539589d86ff4952bfc08f0ba07f90e2855df3bd0b27c0119d2f78a4e9f3af3be33f5e9b80f94f54b9c6890da67996e4835bf5bb0d21c6179b2d7aa6ebf1ad39e13d5c9982fb4d56bbc48b0fa47b94e68159f7b90f23c415992374a8e5ffa337ef3352978cf54358b5ca8501aa759ae88f57f9b7012dca1b972176aae7fda135ed3150958ef7415ab7c88703a87798ea8d55fbb5032fc819952770ace1fba733eb37569388f1475cb1ce8105ae719eec8b53fdb30529ce1f932572aee3f9a531e93554918af3455eb3cc8307ac739cee8951ffb1072bcc1d912b7ca0edf7ab3fe73b5a9f84fd4b50bdcce460f8175afd960867940f6fef7e20bf083805ad14d777ffb2ef369e704b3ea",
        "hex": "6a206336786cd7781cda243e507ff32631a6313e9f3047c7716264b91a445e2e3d444db004374a8e5ffa337ef3352978cf54358b5ca8501aa759ae88f57f9b7012dca1b972176aae7fda135ed3150958ef7415ab7c88703a87798ea8d55fbb5032fc819952770ace1fba733eb37569388f1475cb1ce8105ae719eec8b53fdb30529ce1f932572aee3f9a531e93554918af3455eb3cc8307ac739cee8951ffb1072bcc1d912b7ca0edf7ab3fe73b5a9f84fd4b50bdc28d09a27d92e0875ff1bf0925c2139f297ea2eff5a93de539589d86ff4952bfc08f0ba07f90e2855df3bd0b27c0119d2f78a4e9f3af3be33f5e9b80f94f54b9c6890da67996e4835bf5bb0d21c6179b2d7aa6ebf1ad39e13d5c9982fb4d56bbc48b0fa47b94e68159f7b90f23c415992374a8e5ffa337ef3352978cf54358b5ca8501aa759ae88f57f9b7012dca1b972176aae7fda135ed3150958ef7415ab7c88703a87798ea8d55fbb5032fc819952770ace1fba733eb37569388f1475cb1ce8105ae719eec8b53fdb30529ce1f932572aee3f9a531e93554918af3455eb3cc8307ac739cee8951ffb1072bcc1d912b7ca0edf7ab3fe73b5a9f84fd4b50bdc28d09a27d92e0875ff1bf0925c2139f297ea2eff5a93de539589d86ff4952bfc08f0ba07f90e2855df3bd0b27c0119d2f78a4e9f3af3be33f5e9b80f94f54b9c6890da67996e4835bf5bb0d21c6179b2d7aa6ebf1ad39e13d5c9982fb4d56bbc48b0fa47b94e68159f7b90f23c415992374a8e5ffa337ef3352978cf54358b5ca8501aa759ae88f57f9b7012dca1b972176aae7fda135ed3150958ef7415ab7c88703a87798ea8d55fbb5032fc819952770ace1fba733eb37569388f1475cb1ce8105ae719eec8b53fdb30529ce1f932572aee3f9a531e93554918af3455eb3cc8307ac739cee8951ffb1072bcc1d912b7ca0edf7ab3fe73b5a9f84fd4b50bdc28d09a27d92e0875ff1bf0925c2139f297ea2eff5a93de539589d86ff4952bfc08f0ba07f90e2855df3bd0b27c0119d2f78a4e9f3af3be33f5e9b80f94f54b9c6890da67996e4835bf5bb0d21c6179b2d7aa6ebf1ad39e13d5c9982fb4d56bbc48b0fa47b94e68159f7b90f23c415992374a8e5ffa337ef3352978cf54358b5ca8501aa759ae88f57f9b7012dca1b972176aae7fda135ed3150958ef7415ab7c88703a87798ea8d55fbb5032fc819952770ace1fba733eb37569388f1475cb1ce8105ae719eec8b53fdb30529ce1f932572aee3f9a531e93554918af3455eb3cc8307ac739cee8951ffb1072bcc1d912b7ca0edf7ab3fe73b5a9f84fd4b50bdc28d09a27d92e0875ff1bf0925c2139f297ea2eff5a93de539589d86ff4952bfc08f0ba07f90e2855df3bd0b27c0119d2f78a4e9f3af3be33f5e9b80f94f54b9c6890da67996e4835bf5bb0d21c6179b2d7aa6ebf1ad39e13d5c9982fb4d56bbc48b0fa47b94e68159f7b90f23c415992374a8e5ffa337ef3352978cf54358b5ca8501aa759ae88f57f9b7012dca1b972176aae7fda135ed3150958ef7415ab7c88703a87798ea8d55fbb5032fc819952770ace1fba733eb37569388f1475cb1ce8105ae719eec8b53fdb30529ce1f932572aee3f9a531e93554918af3455eb3cc8307ac739cee8951ffb1072bcc1d912b7ca0edf7ab3fe73b5a9f84fd4b50bdcce460f8175afd960867940f6fef7e20bf083805ad14d777ffb2ef369e704b3ea",
        "type": "nulldata"
      }
    },
    {
      "value": 499993.8986,
      "n": 1,
      "scriptPubKey": {
        "asm": "1 c0c1c0e494542b9a55f6af33d5478b451d0688c64b139ef39e057bc30d28f03d",
        "hex": "5120c0c1c0e494542b9a55f6af33d5478b451d0688c64b139ef39e057bc30d28f03d",
        "reqSigs": 1,
        "type": "witness_v1_scripthash",
        "addresses": [
          "3QJmnh"
        ]
      }
    }
  ],
  "blockhash": "32a2d379a33ec88ae1cb3a8a1a44f2d12b76aebf574ecf7ac16b289397ed6cd9",
  "confirmations": 1,
  "time": 1764176557,
  "blocktime": 1764176557
}