{
  "hex": "01000000000101b57eb10004a126b403295d9032e57cc35c581357788259c3ddd3922be8023f440100000000feffffff0200e1f50500000000fdd5046a2045a790670bcc3b49ca647158b61546268dca4f369369daa1038cbe44938d13c94db0042ad1a198e527b245ea2996370245c2135747ab3fd3b9a4b4a28b53faa7e2799b0af181b8c5079265ca09b6172265e23377678b1ff399849482ab73da87c259bb6a91e1d8a567f205aa69d677420582531707eb7f93f9e4f4e2cb13bae7a239db4ab1c1f88547d2258a49f6576225a2733727cb5fb3d9c4d4c2eb339ac78219fbaa51211865a732c56aa916b782c54293d7c72bbf53392434220bd37a2762f91b8a710138458712e54a893697a2e562b3f7e70b9f73190414022bf35a0742d93bea11615825e772852ae956f7c28502d397876bff13796474624b933a6722b95bca31417805c752a50ac976d7e2a522f3b7a74bdf33594454426bb31a4702997b2ad1a198e527b245ea2996370245c2135747ab3fd3b9a4b4a28b53faa7e2799b0af181b8c5079265ca09b6172265e23377678b1ff399849482ab73da87c259bb6a91e1d8a567f205aa69d677420582531707eb7f93f9e4f4e2cb13bae7a239db4ab1c1f88547d2258a49f6576225a2733727cb5fb3d9c4d4c2eb339ac78219fbaa51211865a732c56aa916b782c54293d7c72bbf53392434220bd37a2762f91b8a710138458712e54a893697a2e562b3f7e70b9f73190414022bf35a0742d93bea11615825e772852ae956f7c28502d397876bff13796474624b933a6722b95bca31417805c752a50ac976d7e2a522f3b7a74bdf33594454426bb31a4702997b2ad1a198e527b245ea2996370245c2135747ab3fd3b9a4b4a28b53faa7e2799b0af181b8c5079265ca09b6172265e23377678b1ff399849482ab73da87c259bb6a91e1d8a567f205aa69d677420582531707eb7f93f9e4f4e2cb13bae7a239db4ab1c1f88547d2258a49f6576225a2733727cb5fb3d9c4d4c2eb339ac78219fbaa51211865a732c56aa916b782c54293d7c72bbf53392434220bd37a2762f91b8a710138458712e54a893697a2e562b3f7e70b9f73190414022bf35a0742d93bea11615825e772852ae956f7c28502d397876bff13796474624b933a6722b95bca31417805c752a50ac976d7e2a522f3b7a74bdf33594454426bb31a4702997b2ad1a198e527b245ea2996370245c2135747ab3fd3b9a4b4a28b53faa7e2799b0af181b8c5079265ca09b6172265e23377678b1ff399849482ab73da87c259bb6a91e1d8a567f205aa69d677420582531707eb7f93f9e4f4e2cb13bae7a239db4ab1c1f88547d2258a49f6576225a2733727cb5fb3d9c4d4c2eb339ac78219fbaa51211865a732c56aa916b782c54293d7c72bbf53392434220bd37a2762f91b8a710138458712e54a893697a2e562b3f7e70b9f73190414022bf35a0742d93bea11615825e772852ae956f7c28502d397876bff13796474624b933a6722b95bca31417805c752a50ac976d7e2a522f3b7a74bdf33594454426bb31a4702997b2ad1a198e527b245ea2996370245c2135747ab3fd3b9a4b4a28b53faa7e2799b0af181b8c5079265ca09b6172265e23377678b1ff399849482ab73da87c259bb6a91e1d8a567f205aa69d677420582531707eb7f93f9e4f4e2cb13bae7a239db4ab1c1f88547d2258a49f6576225a2733727cb5fb3d9c4d4c2eb339ac78219fbaa51211865a732c56aa916b782c54293cdab13436c786c211c97e174dc15817bf30e702f1633d31012a961700ea9e5b1a020df63792d000022512009f72530f49085c5146c7929c10f33d7aa43b8304f53fd9fef3651a4f7ded95202fd75091f7e97800f4c0c75191684395eed0e211906fb0fa900009431d519b210db7f3d6cad63c533da774a1e873fdd44709ef325e7e2bcc4550d76495e6e4f2fb5c3ccd4be5b0a7499f5950026319a8557e0b39c65a06c68d9776b399092c18102d5951f10ea0333327779866902e2a562ea0e3d2e8c89bb2032b54c7e3e33b100530c92afb2bc13bc5209479733e939f085cc3cd5f6bda60f705e499326c115a617a900a21a9728423dccf17645b020c3b26caf5768d9eac0eae6749d9af33bc7aeba5c51e51edbfaf2bf762d077ed43c57561796f364fca3282ec7790d0d22bdb287d92faba241928743fd8e36aa3c733b6362fefd2f807367fa4bb172a855462d80afcd93d64c41eba9940ed41710d07e12bddd2137d36f16a5b7385832791d5e12b57e89c63057a6b85afcc455f1c462d86071d3225671d29c003e076203a1cbeae2e0da3b4c5d2f016bed287140317189e64bf0183fd4a448513a040cee7baa8b03fc5ea5e4eb637d12dbdf72d7cb8a0ed154b2d76363e25799e81d9c64bb0e073550b38321e18b32bf3b89d8321a77090e71524aab64bb3ebc799fa92a07bb4dcb1fc5fdb41611ec99b1099a26d9a5e700096f3d5f1be951ddb74339eb999d5b3d4f9a67c95af7d55bd6af312ca4893ca23179eb2adbb28439b718d49ed8b12f5b2333901ea07f14ba89240dbb397626d48b683addbdc1962ed7f837b4e0aba173d0ddfaa81b33b9b7de48a473c8bc17b4d3d768cb3b418acdd1e849568c59124cdf04c68c4edd709c46f7328262aec1b451e26e5e17764509166d7d489dcb65dd16ae5f25c8ee0c79e88a9d45ab1997fc3051c1c55a9ae806609093b1b9ac989121baa10e61c8c35dbc8d2ddfa1c7bb18e384505e172728194f5cc62e49c78171cd84644975fe3f29a8a31ba166a584489a932e86c2123720ca16b685ba23a4fdf5c18c8c429f2be31a0aa661d03b9cb9a4247cafd2b974bb8475ab74d6101a8aa3d08df365abdd3977bd6db40955320253d3bc507240e4d8ef4e13d153f0cc6efcde5f4efbc50cb6ab59dbbcdaffa4624d1f1e8811fba92f8f8c36ede9d5d49fd7199f6920464ec4e2c2796a1ed741d60d801cd207ee5144f0146023d937cd60356c10df853e6b7ea7c404fca07de9d62159f017c1c101f1fd0322778ab3297e3a3ce74a6b06f1afce12ddcacd9615e835c4dd512f849182bc8a003ac418dc6125b12a92f33888b33c0ba9a239c51295ebdcbd1ed400195e6b1d997c33b0411b154b90aabf1b3eddb82d7613a92f43f5548f29c1f960d59718f64744c3b4f5f0e4c9445c16363be6a88c4907e1e50bafc5d53abd3cfdc133d3b68ab615d8bb819b4263fcd9216397f64c526aae5af51066563e8dc2f22a1557b0817bde6908180eb651ff896662e25983166ffc6c2af8ab54bd45ce2e0639a17c9c46679b644e12bba3cc6edd8b107b02f81f9cd04c8f2251281b58a5ffa3a799430c9f553f72458b10aeb6ccfe71a755d4cc13e8d6a9233f89a1d757fb917f1c849d68c1952d5996a521a66034620418bb9413df0ccad00084d51f0a3483beb294dcfd501340cdfa932688676bf0c41683e74e58cad38fb4f67eed976c9dcd52f4bdf2426fe1e0223a8cf6dabffc14d530a561446c28d7a861e2f6e4703cdb3a620b53d249605822ac0d47beebc89ade9d88fb0264c00e29021edaf8eb79cc76aa9922a8e275a2de0fda60ea782e8f7aca08c76f3b20cd76d15c1f66c0c2eb84746a04cd9e88100dd8e8e847ac7ea21b19e2260feb540a912e5a5992bb78d20c2e7912de30f5c7ae24014a690ae923c12dbd5e9c0d3478816d3af0d472bd4d478d843d90c2da7ae35e19e1935cdb1fc9985c93760d447f68a757dc7114d4269614a349f5c934e867226b08b5ae97ccadb3928d03a604db09b268cf63f9c892851ecac05fa2bc55ad77a6b51d1443aa245fea154c6afed2642098c8a1137f1d94b6255eec3db69cc156d4b14b7646032e3ff00eead070b5d6a60a8b639a8222c113ae328f4b9d53c5843b56d79c6962c1af67e962f72ded65d9587d7c23dbc8d06475480f17bbeb879305dc313dbde60485d027fdd3b9cc0c9f9c680c9ffdc4604795b052467237c12f26b1ea62998c768812f8ec1a98bce21d4689314bb09b7b6388bce7a4952e93f738f4f9d8b10d8d3bfdf2f6db0fd3f2fd47dc204a168b9b8b4a4a40215d1778e2b56f3c3c50a1cb62448478b276a95352638d4bf81f872ea8b1f967516dbf20fbfd53e10d6d7469616d9cd79acb26a0f7bd0603b345f79e70d67fc3a9e48286286f5c13cfcca78fc24da951db1ea503ad17fee6d7f245c4b07291a2a9b17bbc4ee23a13e092e65917496ec2ce4377f70d9b99179b5ac04f40ca2ae4fcf24e04de21d61826f6ac3d55688f07d462ed26a87d305a3f75825732c5b52939689ac874da7d9ffb5f21b114fddc09b1a357fd585dd5725e0a38e0ca475cfc6e080d11d91a1f2e9f4148aa21006c2d597d8d0a38be4e08715fc0e323db09244b8cba040b2acf67b5ed01c98ab998fb34de2fc0a6d40ac6ce836d0b16e391e2eb0de161a41e1ac1e058633fe1a9d09cf77eadf86f7353a90c3f445faaa61e3d925a27ab0b13094a288491d7213f4487966f8c1377a37aeb55329300c825216ad560c4a012185a967807412b11b3ed347cb1d4f71dc6d2cc7e35c91190ee08579ed4c5f33e17cacceecab3b0ee4ebb9b5e4d5ef53d6d75843da33a68065f777a81068026908f98523126290ca92209311c286de51f191cb1e32f8fad5390231bcf398055c741a68f23689009e8cefeac5688d96d704b316c559fe2d71014f9120148c96c2b43a1ae47c03bb876b1d8b5eb57e717ed2135fec505d734e20c950dd21d2eed3c70aa8f75d429724696839531010c836f2484a2672c9c7bf8d3be0e5f30601122a1df7e688556b7bbdcea6fb09895ddc76f3e3775a44cf3f1564fe28f931c9df56e38518f502397a31342ee5ec6786762655402896acf2abef07de836ffbf98732c27d208ccae7e8c5793c405ea50fd368a04a2f236190d15cfb7a90e9ff73a312fff7ccdb3148d413a050934355f72562f01d44d593184e1b54e4479af5377ea82b1e986b1d3502ddfbf561cfd73b95feac8c4714c76616031b8624d76bdb1e57fe282617ffb1d351dc3b4e8d98a9173481a7c166397249023c7b96551d12b899ea8ebf8fe0f1e8b170683f072d5d09985701116f93d40be57e00487d79de7d40400cb28e00f72f2b00babc3969388e68f087f33abfb5cc63291147400030918384e6bb4d7dadce0fa021929335c657aa2a8cef2141e28394764898a9798bdc9e5e8eaf6fb07242b60637b7c888a9fec000000000000000000000000000000000000000000000000000000000d18293401fd210500017ef2c0bbfb337569f13c9d1f7df036975e1d18128c71e42f484da2978b9144d1fe36844550c86222525baabd36252ab080cc7af6e617435b30ad118c71e387c17701a871b70aeab6be94f4e22ae13fe0bc2a29dc0e4fa1aa9f1d8593a45d626bcbeb17a93ed835a96975d298651a5f816c15150d3b65930bf35c270c8311b66101920fb030b3c5680fe9e24a86accdfab138884da44b4317d36c8fcef04787a35d57fd6e8d826b4eeb95dc72b01681590b593c78977d2802e3786705f7da25165d3cb1ab2c689b5ee508712a00f4c4af3e24c5a821c79b416eb30d56ff9ab322299d92e57857f99b541629e41954dd32a08e4f84e2097811001bca5390d428e5abe5b5a278da795e4585bbdcdaa24507619374b027f07a40c2de2ca25056e1edf134a0cf97a8d6ab6d4608abdc8b30bd8b6b3e9cc665d869bcf737e4fdaeb98ebab1f01239ea01dd82320b21ab9f1b977a90bcedaf97f465824ec5824d9c1568c0143d39b45e77a243d79886f0ce3936821c3fda05901002f9308862f8cf32b586db6c5a1c7b9e1f1e6ccd0bbcf7693c529b96ae1ba6679467e7a9dcbe8299c4da4e604e4f4c7ee397ce5b30147818ba4d7d520bdfbef0cda818c7db74d8e8f84b04cd3703ecd74949963a5125b9e8c69d3126ad2fe3d2a518af24da488ce4c5aab93043ca98d3612df86a3fe6b532dcec0582b301a68de3f76a0d3597995cad9720d2a041d9bfa9acd702ef1e42d34d4e9ad4bb2f952317837141af517c2e102f5e0573ab04e30b180a6d3750cfbf75eac99feb56e2502bd6d992129a7ec180167a2d1aeeda41245ede1acfed2b028d9ca70828993b306e72e0732d75728794a5811d1c361d8a242190441491caf7b49e4cda85320bed27372467d222813baf36ad05344575252d59f6f50d4e2e91566e8891dd41f4417df8a461f30d11a753615f28428562100f787b9bc5fc2fde3cd729c509d0789657a49822757d7f0e25f8308688ca3a723bfa690d8be823d2c7f24e67654408f4a36db5ee4ed8167f987b893c6180416b58d80b73995e754857835be4059b2f527dc9207696e9807e1039d1ed3fbd063455b1445afe156362585eb1bd72abd9cd7f30364607872b6ebbe9f3105604b0e3dd2fc4d7fb51d2a2a4192541fc41dbd64436f0eab5e8bed685e5016de22cf8f26d1623dac6975a9aab10463924be12cb34ea2c97b3710a7eb0dd60c6e4d24afc7c517c05c4e92dfc810bb84ef996e69db9fd44c3e2cad71899c4d77f05b91a637b1e445b2e9138a8ab310d38f8fd77903850b1a378db5084c950938b90f37e30758bf3e66f697d78efb0f7460bb461e9e375121709c17801e4195a81a7deda09c67e075f5d4f493e4759a79f83dd36e9f528b6c510373564ac36ca7217aba6bfa42264080587833ae6f430d8ea3dc15561f7c02e7ec7aaee28810652177b090d8a898459e6c2c4e6f94c6ef73031c59d387070e9666e97842ab0a360705527fc829f48c662a1270e7682a87e0780cb1049563def8fedd41e46d88a117ab1093b41d9fd902a4064c5e0fb7af1169125c59f689a34437b50b289c8cacc3f771017c23b157101b6283a9fdf096d8aa344c311eaf0613630b604a0e007f27a322096a30ae0717e3735e474729045dadb82a672760b54cf006f2919330787b33e628e63de8c031165f2a7f8242af2f73c3f971d55d53088fdc65ea1116fc217db331489bd3f413723019281b123f435b4f821d01e2beded8d9eb0f44b78ce220aaf39cbdc7ebb94c8e4a266ff3947768880beed4b86c85bf94a2281e478bf3b95987feba6b091a61d2107e6b964069d7847b831818e6c549717bf68000000",
  "txid": "cf9cee92c005f1244d3e3b87d9c3f627c40e3184b210c8587451da7788688b6f",
  "hash": "de1371596164481e105332630ba2a9ef8a04f953ded33a09bc4d83f9f6c95b3b",
  "size": 5085,
  "vsize": 2278,
  "version": 1,
  "locktime": 104,
  "vin": [
    {
      "txid": "443f02e82b92d3ddc35982785713585cc37ce532905d2903b426a10400b17eb5",
      "vout": 1,
      "scriptSig": {
        "asm": "",
        "hex": ""
      },
      "txinwitness": [
        "1f7e97800f4c0c75191684395eed0e211906fb0fa900009431d519b210db7f3d6cad63c533da774a1e873fdd44709ef325e7e2bcc4550d76495e6e4f2fb5c3ccd4be5b0a7499f5950026319a8557e0b39c65a06c68d9776b399092c18102d5951f10ea0333327779866902e2a562ea0e3d2e8c89bb2032b54c7e3e33b100530c92afb2bc13bc5209479733e939f085cc3cd5f6bda60f705e499326c115a617a900a21a9728423dccf17645b020c3b26caf5768d9eac0eae6749d9af33bc7aeba5c51e51edbfaf2bf762d077ed43c57561796f364fca3282ec7790d0d22bdb287d92faba241928743fd8e36aa3c733b6362fefd2f807367fa4bb172a855462d80afcd93d64c41eba9940ed41710d07e12bddd2137d36f16a5b7385832791d5e12b57e89c63057a6b85afcc455f1c462d86071d3225671d29c003e076203a1cbeae2e0da3b4c5d2f016bed287140317189e64bf0183fd4a448513a040cee7baa8b03fc5ea5e4eb637d12dbdf72d7cb8a0ed154b2d76363e25799e81d9c64bb0e073550b38321e18b32bf3b89d8321a77090e71524aab64bb3ebc799fa92a07bb4dcb1fc5fdb41611ec99b1099a26d9a5e700096f3d5f1be951ddb74339eb999d5b3d4f9a67c95af7d55bd6af312ca4893ca23179eb2adbb28439b718d49ed8b12f5b2333901ea07f14ba89240dbb397626d48b683addbdc1962ed7f837b4e0aba173d0ddfaa81b33b9b7de48a473c8bc17b4d3d768cb3b418acdd1e849568c59124cdf04c68c4edd709c46f7328262aec1b451e26e5e17764509166d7d489dcb65dd16ae5f25c8ee0c79e88a9d45ab1997fc3051c1c55a9ae806609093b1b9ac989121baa10e61c8c35dbc8d2ddfa1c7bb18e384505e172728194f5cc62e49c78171cd84644975fe3f29a8a31ba166a584489a932e86c2123720ca16b685ba23a4fdf5c18c8c429f2be31a0aa661d03b9cb9a4247cafd2b974bb8475ab74d6101a8aa3d08df365abdd3977bd6db40955320253d3bc507240e4d8ef4e13d153f0cc6efcde5f4efbc50cb6ab59dbbcdaffa4624d1f1e8811fba92f8f8c36ede9d5d49fd7199f6920464ec4e2c2796a1ed741d60d801cd207ee5144f0146023d937cd60356c10df853e6b7ea7c404fca07de9d62159f017c1c101f1fd0322778ab3297e3a3ce74a6b06f1afce12ddcacd9615e835c4dd512f849182bc8a003ac418dc6125b12a92f33888b33c0ba9a239c51295ebdcbd1ed400195e6b1d997c33b0411b154b90aabf1b3eddb82d7613a92f43f5548f29c1f960d59718f64744c3b4f5f0e4c9445c16363be6a88c4907e1e50bafc5d53abd3cfdc133d3b68ab615d8bb819b4263fcd9216397f64c526aae5af51066563e8dc2f22a1557b0817bde6908180eb651ff896662e25983166ffc6c2af8ab54bd45ce2e0639a17c9c46679b644e12bba3cc6edd8b107b02f81f9cd04c8f2251281b58a5ffa3a799430c9f553f72458b10aeb6ccfe71a755d4cc13e8d6a9233f89a1d757fb917f1c849d68c1952d5996a521a66034620418bb9413df0ccad00084d51f0a3483beb294dcfd501340cdfa932688676bf0c41683e74e58cad38fb4f67eed976c9dcd52f4bdf2426fe1e0223a8cf6dabffc14d530a561446c28d7a861e2f6e4703cdb3a620b53d249605822ac0d47beebc89ade9d88fb0264c00e29021edaf8eb79cc76aa9922a8e275a2de0fda60ea782e8f7aca08c76f3b20cd76d15c1f66c0c2eb84746a04cd9e88100dd8e8e847ac7ea21b19e2260feb540a912e5a5992bb78d20c2e7912de30f5c7ae24014a690ae923c12dbd5e9c0d3478816d3af0d472bd4d478d843d90c2da7ae35e19e1935cdb1fc9985c93760d447f68a757dc7114d4269614a349f5c934e867226b08b5ae97ccadb3928d03a604db09b268cf63f9c892851ecac05fa2bc55ad77a6b51d1443aa245fea154c6afed2642098c8a1137f1d94b6255eec3db69cc156d4b14b7646032e3ff00eead070b5d6a60a8b639a8222c113ae328f4b9d53c5843b56d79c6962c1af67e962f72ded65d9587d7c23dbc8d06475480f17bbeb879305dc313dbde60485d027fdd3b9cc0c9f9c680c9ffdc4604795b052467237c12f26b1ea62998c768812f8ec1a98bce21d4689314bb09b7b6388bce7a4952e93f738f4f9d8b10d8d3bfdf2f6db0fd3f2fd47dc204a168b9b8b4a4a40215d1778e2b56f3c3c50a1cb62448478b276a95352638d4bf81f872ea8b1f967516dbf20fbfd53e10d6d7469616d9cd79acb26a0f7bd0603b345f79e70d67fc3a9e48286286f5c13cfcca78fc24da951db1ea503ad17fee6d7f245c4b07291a2a9b17bbc4ee23a13e092e65917496ec2ce4377f70d9b99179b5ac04f40ca2ae4fcf24e04de21d61826f6ac3d55688f07d462ed26a87d305a3f75825732c5b52939689ac874da7d9ffb5f21b114fddc09b1a357fd585dd5725e0a38e0ca475cfc6e080d11d91a1f2e9f4148aa21006c2d597d8d0a38be4e08715fc0e323db09244b8cba040b2acf67b5ed01c98ab998fb34de2fc0a6d40ac6ce836d0b16e391e2eb0de161a41e1ac1e058633fe1a9d09cf77eadf86f7353a90c3f445faaa61e3d925a27ab0b13094a288491d7213f4487966f8c1377a37aeb55329300c825216ad560c4a012185a967807412b11b3ed347cb1d4f71dc6d2cc7e35c91190ee08579ed4c5f33e17cacceecab3b0ee4ebb9b5e4d5ef53d6d75843da33a68065f777a81068026908f98523126290ca92209311c286de51f191cb1e32f8fad5390231bcf398055c741a68f23689009e8cefeac5688d96d704b316c559fe2d71014f9120148c96c2b43a1ae47c03bb876b1d8b5eb57e717ed2135fec505d734e20c950dd21d2eed3c70aa8f75d429724696839531010c836f2484a2672c9c7bf8d3be0e5f30601122a1df7e688556b7bbdcea6fb09895ddc76f3e3775a44cf3f1564fe28f931c9df56e38518f502397a31342ee5ec6786762655402896acf2abef07de836ffbf98732c27d208ccae7e8c5793c405ea50fd368a04a2f236190d15cfb7a90e9ff73a312fff7ccdb3148d413a050934355f72562f01d44d593184e1b54e4479af5377ea82b1e986b1d3502ddfbf561cfd73b95feac8c4714c76616031b8624d76bdb1e57fe282617ffb1d351dc3b4e8d98a9173481a7c166397249023c7b96551d12b899ea8ebf8fe0f1e8b170683f072d5d09985701116f93d40be57e00487d79de7d40400cb28e00f72f2b00babc3969388e68f087f33abfb5cc63291147400030918384e6bb4d7dadce0fa021929335c657aa2a8cef2141e28394764898a9798bdc9e5e8eaf6fb07242b60637b7c888a9fec000000000000000000000000000000000000000000000000000000000d18293401",
        "00017ef2c0bbfb337569f13c9d1f7df036975e1d18128c71e42f484da2978b9144d1fe36844550c86222525baabd36252ab080cc7af6e617435b30ad118c71e387c17701a871b70aeab6be94f4e22ae13fe0bc2a29dc0e4fa1aa9f1d8593a45d626bcbeb17a93ed835a96975d298651a5f816c15150d3b65930bf35c270c8311b66101920fb030b3c5680fe9e24a86accdfab138884da44b4317d36c8fcef04787a35d57fd6e8d826b4eeb95dc72b01681590b593c78977d2802e3786705f7da25165d3cb1ab2c689b5ee508712a00f4c4af3e24c5a821c79b416eb30d56ff9ab322299d92e57857f99b541629e41954dd32a08e4f84e2097811001bca5390d428e5abe5b5a278da795e4585bbdcdaa24507619374b027f07a40c2de2ca25056e1edf134a0cf97a8d6ab6d4608abdc8b30bd8b6b3e9cc665d869bcf737e4fdaeb98ebab1f01239ea01dd82320b21ab9f1b977a90bcedaf97f465824ec5824d9c1568c0143d39b45e77a243d79886f0ce3936821c3fda05901002f9308862f8cf32b586db6c5a1c7b9e1f1e6ccd0bbcf7693c529b96ae1ba6679467e7a9dcbe8299c4da4e604e4f4c7ee397ce5b30147818ba4d7d520bdfbef0cda818c7db74d8e8f84b04cd3703ecd74949963a5125b9e8c69d3126ad2fe3d2a518af24da488ce4c5aab93043ca98d3612df86a3fe6b532dcec0582b301a68de3f76a0d3597995cad9720d2a041d9bfa9acd702ef1e42d34d4e9ad4bb2f952317837141af517c2e102f5e0573ab04e30b180a6d3750cfbf75eac99feb56e2502bd6d992129a7ec180167a2d1aeeda41245ede1acfed2b028d9ca70828993b306e72e0732d75728794a5811d1c361d8a242190441491caf7b49e4cda85320bed27372467d222813baf36ad05344575252d59f6f50d4e2e91566e8891dd41f4417df8a461f30d11a753615f28428562100f787b9bc5fc2fde3cd729c509d0789657a49822757d7f0e25f8308688ca3a723bfa690d8be823d2c7f24e67654408f4a36db5ee4ed8167f987b893c6180416b58d80b73995e754857835be4059b2f527dc9207696e9807e1039d1ed3fbd063455b1445afe156362585eb1bd72abd9cd7f30364607872b6ebbe9f3105604b0e3dd2fc4d7fb51d2a2a4192541fc41dbd64436f0eab5e8bed685e5016de22cf8f26d1623dac6975a9aab10463924be12cb34ea2c97b3710a7eb0dd60c6e4d24afc7c517c05c4e92dfc810bb84ef996e69db9fd44c3e2cad71899c4d77f05b91a637b1e445b2e9138a8ab310d38f8fd77903850b1a378db5084c950938b90f37e30758bf3e66f697d78efb0f7460bb461e9e375121709c17801e4195a81a7deda09c67e075f5d4f493e4759a79f83dd36e9f528b6c510373564ac36ca7217aba6bfa42264080587833ae6f430d8ea3dc15561f7c02e7ec7aaee28810652177b090d8a898459e6c2c4e6f94c6ef73031c59d387070e9666e97842ab0a360705527fc829f48c662a1270e7682a87e0780cb1049563def8fedd41e46d88a117ab1093b41d9fd902a4064c5e0fb7af1169125c59f689a34437b50b289c8cacc3f771017c23b157101b6283a9fdf096d8aa344c311eaf0613630b604a0e007f27a322096a30ae0717e3735e474729045dadb82a672760b54cf006f2919330787b33e628e63de8c031165f2a7f8242af2f73c3f971d55d53088fdc65ea1116fc217db331489bd3f413723019281b123f435b4f821d01e2beded8d9eb0f44b78ce220aaf39cbdc7ebb94c8e4a266ff3947768880beed4b86c85bf94a2281e478bf3b95987feba6b091a61d2107e6b964069d7847b831818e6c549717bf"
      ],
      "sequence": 4294967294
    }
  ],
  "vout": [
    {
      "value": 1.0,
      "n": 0,
      "scriptPubKey": {
        "asm": "OP_RETURN 45a790670bcc3b49ca647158b61546268dca4f369369daa1038cbe44938d13c9 2ad1a198e527b245ea2996370245c2135747ab3fd3b9a4b4a28b53faa7e2799b0af181b8c5079265ca09b6172265e23377678b1ff399849482ab73da87c259bb6a91e1d8a567f205aa69d677420582531707eb7f93f9e4f4e2cb13bae7a239db4ab1c1f88547d2258a49f6576225a2733727cb5fb3d9c4d4c2eb339ac78219fbaa51211865a732c56aa916b782c54293d7c72bbf53392434220bd37a2762f91b8a710138458712e54a893697a2e562b3f7e70b9f73190414022bf35a0742d93bea11615825e772852ae956f7c28502d397876bff13796474624b933a6722b95bca31417805c752a50ac976d7e2a522f3b7a74bdf33594454426bb31a4702997b2ad1a198e527b245ea2996370245c2135747ab3fd3b9a4b4a28b53faa7e2799b0af181b8c5079265ca09b6172265e23377678b1ff399849482ab73da87c259bb6a91e1d8a567f205aa69d677420582531707eb7f93f9e4f4e2cb13bae7a239db4ab1c1f88547d2258a49f6576225a2733727cb5fb3d9c4d4c2eb339ac78219fbaa51211865a732c56aa916b782c54293d7c72bbf53392434220bd37a2762f91b8a710138458712e54a893697a2e562b3f7e70b9f73190414022bf35a0742d93bea11615825e772852ae956f7c28502d397876bff13796474624b933a6722b95bca31417805c752a50ac976d7e2a522f3b7a74bdf33594454426bb31a4702997b2ad1a198e527b245ea2996370245c2135747ab3fd3b9a4b4a28b53faa7e2799b0af181b8c5079265ca09b6172265e23377678b1ff399849482ab73da87c259bb6a91e1d8a567f205aa69d677420582531707eb7f93f9e4f4e2cb13bae7a239db4ab1c1f88547d2258a49f6576225a2733727cb5fb3d9c4d4c2eb339ac78219fbaa51211865a732c56aa916b782c54293d7c72bbf53392434220bd37a2762f91b8a710138458712e54a893697a2e562b3f7e70b9f73190414022bf35a0742d93bea11615825e772852ae956f7c28502d397876bff13796474624b933a6722b95bca31417805c752a50ac976d7e2a522f3b7a74bdf33594454426bb31a4702997b2ad1a198e527b245ea2996370245c2135747ab3fd3b9a4b4a28b53faa7e2799b0af181b8c5079265ca09b6172265e23377678b1ff399849482ab73da87c259bb6a91e1d8a567f205aa69d677420582531707eb7f93f9e4f4e2cb13bae7a239db4ab1c1f88547d2258a49f6576225a2733727cb5fb3d9c4d4c2eb339ac78219fbaa51211865a732c56aa916b782c54293d7c72bbf53392434220bd37a2762f91b8a710138458712e54a893697a2e562b3f7e70b9f73190414022bf35a0742d93bea11615825e772852ae956f7c28502d397876bff13796474624b933a6722b95bca31417805c752a50ac976d7e2a522f3b7a74bdf33594454426bb31a4702997b2ad1a198e527b245ea2996370245c2135747ab3fd3b9a4b4a28b53faa7e2799b0af181b8c5079265ca09b6172265e23377678b1ff399849482ab73da87c259bb6a91e1d8a567f205aa69d677420582531707eb7f93f9e4f4e2cb13bae7a239db4ab1c1f88547d2258a49f6576225a2733727cb5fb3d9c4d4c2eb339ac78219fbaa51211865a732c56aa916b782c54293cdab13436c786c211c97e174dc15817bf30e702f1633d31012a961700ea9e5b1",
        "hex": "6a2045a790670bcc3b49ca647158b61546268dca4f369369daa1038cbe44938d13c94db0042ad1a198e527b245ea2996370245c2135747ab3fd3b9a4b4a28b53faa7e2799b0af181b8c5079265ca09b6172265e23377678b1ff399849482ab73da87c259bb6a91e1d8a567f205aa69d677420582531707eb7f93f9e4f4e2cb13bae7a239db4ab1c1f88547d2258a49f6576225a2733727cb5fb3d9c4d4c2eb339ac78219fbaa51211865a732c56aa916b782c54293d7c72bbf53392434220bd37a2762f91b8a710138458712e54a893697a2e562b3f7e70b9f73190414022bf35a0742d93bea11615825e772852ae956f7c28502d397876bff13796474624b933a6722b95bca31417805c752a50ac976d7e2a522f3b7a74bdf33594454426bb31a4702997b2ad1a198e527b245ea2996370245c2135747ab3fd3b9a4b4a28b53faa7e2799b0af181b8c5079265ca09b6172265e23377678b1ff399849482ab73da87c259bb6a91e1d8a567f205aa69d677420582531707eb7f93f9e4f4e2cb13bae7a239db4ab1c1f88547d2258a49f6576225a2733727cb5fb3d9c4d4c2eb339ac78219fbaa51211865a732c56aa916b782c54293d7c72bbf53392434220bd37a2762f91b8a710138458712e54a893697a2e562b3f7e70b9f73190414022bf35a0742d93bea11615825e772852ae956f7c28502d397876bff13796474624b933a6722b95bca31417805c752a50ac976d7e2a522f3b7a74bdf33594454426bb31a4702997b2ad1a198e527b245ea2996370245c2135747ab3fd3b9a4b4a28b53faa7e2799b0af181b8c5079265ca09b6172265e23377678b1ff399849482ab73da87c259bb6a91e1d8a567f205aa69d677420582531707eb7f93f9e4f4e2cb13bae7a239db4ab1c1f88547d2258a49f6576225a2733727cb5fb3d9c4d4c2eb339ac78219fbaa51211865a732c56aa916b782c54293d7c72bbf53392434220bd37a2762f91b8a710138458712e54a893697a2e562b3f7e70b9f73190414022bf35a0742d93bea11615825e772852ae956f7c28502d397876bff13796474624b933a6722b95bca31417805c752a50ac976d7e2a522f3b7a74bdf33594454426bb31a4702997b2ad1a198e527b245ea2996370245c2135747ab3fd3b9a4b4a28b53faa7e2799b0af181b8c5079265ca09b6172265e23377678b1ff399849482ab73da87c259bb6a91e1d8a567f205aa69d677420582531707eb7f93f9e4f4e2cb13bae7a239db4ab1c1f88547d2258a49f6576225a2733727cb5fb3d9c4d4c2eb339ac78219fbaa51211865a732c56aa916b782c54293d7c72bbf53392434220bd37a2762f91b8a710138458712e54a893697a2e562b3f7e70b9f73190414022bf35a0742d93bea11615825e772852ae956f7c28502d397876bff13796474624b933a6722b95bca31417805c752a50ac976d7e2a522f3b7a74bdf33594454426bb31a4702997b2ad1a198e527b245ea2996370245c2135747ab3fd3b9a4b4a28b53faa7e2799b0af181b8c5079265ca09b6172265e23377678b1ff399849482ab73da87c259bb6a91e1d8a567f205aa69d677420582531707eb7f93f9e4f4e2cb13bae7a239db4ab1c1f88547d2258a49f6576225a2733727cb5fb3d9c4d4c2eb339ac78219fbaa51211865a732c56aa916b782c54293cdab13436c786c211c97e174dc15817bf30e702f1633d31012a961700ea9e5b1",
        "type": "nulldata"
      }
    },
    {
      "value": 499993.8986,
      "n": 1,
      "scriptPubKey": {
        "asm": "1 09f72530f49085c5146c7929c10f33d7aa43b8304f53fd9fef3651a4f7ded952",
        "hex": "512009f72530f49085c5146c7929c10f33d7aa43b8304f53fd9fef3651a4f7ded952",
        "reqSigs": 1,
        "type": "witness_v1_scripthash",
        "addresses": [
          "3QJmnh"
        ]
      }
    }
  ],
  "blockhash": "32a2d379a33ec88ae1cb3a8a1a44f2d12b76aebf574ecf7ac16b289397ed6cd9",
  "confirmations": 1,
  "time": 1764176557,
  "blocktime": 1764176557
}