{
  "hex": "01000000000101e67295025134a25a530f84a4d8d662d08ee5d9b57c9049789cedeb8205e61da40100000000feffffff0220cc6133792d00002251203b37476bf238c2ee48d014a4806fc005667c3694e0dd6a8b6a696e07c3ec1ef600e1f50500000000fdd5046a20f28707ce08e9dfcfbe60b46d42d7324512a6bff9ac3f5560db0d7c4f29f97ffc4db00481a130115e4794cdcd759406b2cdfad0401c0873f6eaeb3dd66676d7381408b7a18110317e67b4eded55b42692eddaf0603c2853d6cacb1df64656f718342897c1e170511e07d48d8d35d446f28dba90005c4833b6aaab7d96263697785448f7e1c150713e27f4adad15f466d2ad9ab0207c6813968a8b5db60616b7587468d70121b091dec7144d4df51486324d7a50c09c88f3766a6bbd56e6f657b8948837210190b1fee7346d6dd534a6126d5a70e0bca8d3564a4b9d76c6d67798b4a8174161f0d19e87540d0db554c6720d3a1080dcc8b3362a2bfd16a6b617f8d4c8776141d0f1bea7742d2d9574e6522d1a30a0fce893160a0bdd36869637d8f4e85781a130115e4794cdcd759406b2cdfad0401c0873f6eaeb3dd66676d7381408b7a18110317e67b4eded55b42692eddaf0603c2853d6cacb1df64656f718342897c1e170511e07d48d8d35d446f28dba90005c4833b6aaab7d96263697785448f7e1c150713e27f4adad15f466d2ad9ab0207c6813968a8b5db60616b7587468d70121b091dec7144d4df51486324d7a50c09c88f3766a6bbd56e6f657b8948837210190b1fee7346d6dd534a6126d5a70e0bca8d3564a4b9d76c6d67798b4a8174161f0d19e87540d0db554c6720d3a1080dcc8b3362a2bfd16a6b617f8d4c8776141d0f1bea7742d2d9574e6522d1a30a0fce893160a0bdd36869637d8f4e85781a130115e4794cdcd759406b2cdfad0401c0873f6eaeb3dd66676d7381408b7a18110317e67b4eded55b42692eddaf0603c2853d6cacb1df64656f718342897c1e170511e07d48d8d35d446f28dba90005c4833b6aaab7d96263697785448f7e1c150713e27f4adad15f466d2ad9ab0207c6813968a8b5db60616b7587468d70121b091dec7144d4df51486324d7a50c09c88f3766a6bbd56e6f657b8948837210190b1fee7346d6dd534a6126d5a70e0bca8d3564a4b9d76c6d67798b4a8174161f0d19e87540d0db554c6720d3a1080dcc8b3362a2bfd16a6b617f8d4c8776141d0f1bea7742d2d9574e6522d1a30a0fce893160a0bdd36869637d8f4e85781a130115e4794cdcd759406b2cdfad0401c0873f6eaeb3dd66676d7381408b7a18110317e67b4eded55b42692eddaf0603c2853d6cacb1df64656f718342897c1e170511e07d48d8d35d446f28dba90005c4833b6aaab7d96263697785448f7e1c150713e27f4adad15f466d2ad9ab0207c6813968a8b5db60616b7587468d70121b091dec7144d4df51486324d7a50c09c88f3766a6bbd56e6f657b8948837210190b1fee7346d6dd534a6126d5a70e0bca8d3564a4b9d76c6d67798b4a8174161f0d19e87540d0db554c6720d3a1080dcc8b3362a2bfd16a6b617f8d4c8776141d0f1bea7742d2d9574e6522d1a30a0fce893160a0bdd36869637d8f4e85781a130115e4794cdcd759406b2cdfad0401c0873f6eaeb3dd66676d7381408b7a18110317e67b4eded55b42692eddaf0603c2853d6cacb1df64656f718342897c1e170511e07d48d8d35d446f28dba90005c4833b6aaab7d96263697785448f7e1c150713e27f4adad15f466d2ad9ab0207c6813968a8b5db60616b7587468d70121b091dec7144d4df51486324d7a5061cd91e3373ac5a2174267e0a5e9a87859e4bc094f7a1e8d1b95c361ca33543602fd7509f4aaff9309686b7910795e05b68d7c175765138507f7604bf7392035e502497ca596361679d2dc6adcf66e59a50815dac2f2a880e19a8331e92c25432914b1ef268a2cd8777929e44aca3c95f7ad955d5551e8a7b946cebcbc7eaad060c73841f3563d3a3df28268900ba8782a2cf4a9dff906fc7f13296cae929020c6350f543183289691811ee3dec1c87594ddde1930dd3a16db57fb1bda1baf73b19aaaabcace646cab5a918517844e20126ed6d34a34c91edafc09ea97e26783d57ff14dd93cc8fede5fcfd98dd1cacf927199f276be103c93f7732f14d65a195f80c53bf7725f07cd99421cd29ab8c6b2dbf5fa1e31ff950702cfe460c5a106f5a165d830d82fe1437d3e27484b0a7721abef45dd6fabd9bf5d00b1bbc0c838b0dacbe2c1983c1e2c64aad5387a6f2b459db6344b317eda40634bed46a2667c39abe42a64604ac50c47ede530890938a7c716ef078bcc6a5035007a1a5ffe2ecb405f6be104f0dccec6b3bbdea45015ed08e173efe786a0c098ae7257f7753da11ae00b7f256627b853e1b591c09c8eb4a63f39365f000080c65af2888fc4231c1e3f9973c2fbf33c455961a6d7eed87f7b8658acd50c17ea1cf276c9849b15ca9c1e74042a4e200b41b56a63577983d115100f6ec831587773e1cb7df741ecd4730e0ab3c004aa00b1d242fd0bdc929d145e26dcff64bbc37efd7862d9b42749c296cd80d1164c2964adad9d35476c009f392d5afa77b4ae52446cc77457e52f06bd647673f33313e14c71efc709434337afb06b5ad4ceeb494dd6e8089bc3313c853255b0f1629cd165da963a8906c2a80abfe18b310f1b51a357363d9a17e5c0337f1dd639c75c3144074af9ff8ec2e654e6b1264495744cc8180f8205db761384b455c32fae10cde26ff64b541ecd5dd934ff14ba392c20df512dcf1a26ee6c450494b3b0cdf24a1ff77616e98482db887c3144967cd493583af80094f7f1d0103b0c1f1a4913a539b495f4464e7e595750e831a25ec1994c121d74350b6bd86cf16911013c2ab6d89536e0f20a72eb94a554f3da0b4d47d7b3bd7f5c8b406277fddd9c43dfeb4cb680c508049ebbd1ddc0d3803ad9cecb90ad8f6ce000da91f6786044c2f0891cc8973e0eb2c239d4c8cbcfc86f102cb0e1745529ffdd065eaaa1066f1901618c7e5a4ca9753cfcd47f4ca11fb059118b45e576e397f3e7687d8350695b2ddab463f5b0b98ad049d2a3a90ad2f5b0f441f285e45125efb89bdd7f6afbc6c1fe5af4ccceb52884d4caddce45959ee9a76d0831e26ba911932f225ef0bfa4ef0d3d2bd31ee547af247b157302eeeb447052024aa0c2dd05c4b072b5e03f0d372cb37621c0a1f2b7b6ff09296fa0050c4e5b29187e7c62c53635c475491d4558afd6b627005c683a3fc7ec5c71863def3f7e6f91401c5dcff8bba959327486cae2f6c38ef32518662741fbb4099406ef5220e70fca003548fa91133683724c6d7a3c808220906ec58feef2f4f1a5f63f6369b2e900a6503c8c79b64b2ba8a4f8fe701001d50a0d7e33f0fbc09c310a1f3cebc19dc1a9b22cdca135b92d57a24d618e94d91849aafd92a03b0d81314221685fc4671b309d8d8bb492ebcee346799c0b02d3537b9039de2354c89db71aa8b426d70d44d7ffe983d347080eb6354c84db2f5639dd4a417b3747e4baf2826f9b27a0c534b08ee30e3f102c840bcc2ef92ca13a323068032907f5358d41ae815d3cca7ede29c9a88f00b87eda81c8b1b909d7772ccbab34e0bdd2fd5d689be934f6cffcc93f21ef918df0489da3f365a68c99920f7c08af9706d2b6da2fbd63045362405fa3ce07b93aeb15c7e7942fe014a865937b79e29d995adf70e3b04d0c0eea313889b0961dbdabe5f56923b68601fae094b7e9e761900de1eb91f424c175a4b75865dc267359e906c62b43b1df83e937c3259769fc673534a9edc7a86c0d0d9d2421b10c7fcfd7db3aca50c6142b0d77f013c98434f4168c52d859e1094573f56975c4034b988c9a2248f52201330d4ac4df2d9a44f67d9a54e84e7b28918670269a9ef3a15dead26d1aff9b1c81889839e2aeb048eece092da94de560649f7da50d52413a3fdd9c8f6889ff061b409dc52c1a1540add7da5e4da9f9b3b808f96f8363bf48a5f129197a2ad1c7f749ad1ed5f8cad08d3b02452391b1943eeae5f73894b5caf20fc0ea900d00cc487408675a0202d3807b32d3f7c0c89e8df72ef1dc6189477d2afb1b1b56fd91c28b82c47976292e6e9b180ff4fa2488c433f81fad08c4d71f424d9e8d7476815de5fe4bdae880c67ba481ff9b7e2aa6708a976e8bf3ee2ab3f240872b043ae7c19348bf1514f55bd0495d78b17c3d57fd5ca701b6627acf95dd85316eb78827aa85b601fe21e5ff640e4a70a203ebc7a6595b3551d3a5e6f13382a633bbe3a9cec5df1cb5f85d63bc0feeb01e7ab929b4d932569b5ed17ad24a917d8dece5d578200fb1c70e2d60f25edbcd24c90fbe3dbeb17de9e423c6e99ab42dc7194130b1e5423450c9682284a5af457e25c64910f47b51f25e00b40cc00c6213104af5312edfb3f32ec3a886a51353da9da19df936b6bf5174e9505c1821f97623e7300b2454d08f6d24758b7ca34a05693dad7f3935b9a759f95fc2f9dc3b38a734aae3b6df2097275ee4cfdc1a63532a9630b00b2c3a2d5eff6b1208d0d76c7b8e9a1f6614b56535dfe6a8aba3d09fe5c6b2c0343f5580583f385e14ebbbfa9b87d1c210cac354719488c9bed4428436303010589d90836cb165ef8e5ce7cb823733a9cd5acdaf30395438ab0f4880eb0595afc4dec4ae48e734858b9721b5697a66d75ee6b4f82d032a89203ae5be111735aef9bc5194dc97f5f150f2cef5eeed0d57afedbf05aa4ae9039ebcaebba6fbbfb71987b47cfe676b965e061e0b2db91122ae13f782a24633cf57738084aad50262faf520b2bd56cdb5e7617ce0f0b136f592299a7a9a8dc7efb72c1321319e70d3df40e607644d3cbf7939deda4b79df0c5f8f4d184f784dedbc746bc3c08f298942a0efdb25edaffcd603d94f11c61b1e6defe6e8d6e0e51f644ed96526c0b6d6ee8931272a13a42a4f963af150501778ee73a58f9e549b084c2eb77225e6ed6b1521da9695cbf396d6c0089c7e546960a5e464be3edb15ec54b6c1fe3ce7b2a74b820aada792ea83b5fe8264c181ff6ed35206e00b4b8ee56fa597a0cabae12c236a1e3f45ab521bb347b641261ac5bbb0271097f4e68386deef5d865e140e35bda3be6dcf05078a12bb040d1b1e242d303e4d787f8398a1a3cdd3f1192527445862738588a5bbc2d2d8f40316333e444f70797e98c3d6dfecfd0716263b414f595b747886cddee0e6f8000000000000000000000000000000001221304001fd2105004a8c15e4b30797ad7585b3f93cab2ba716dad66bf12ee3dbe060ee66681af156963d071bfb14ead3b8ae22997da394363c3e09c7eaae1bf63d106b742232973294dc74b0f989ed0ec6d897fcd54b2f50bdfb6fe5c3e9e86c11df3fb961b42fb6142b31ddd5d463602536af478e31962f7f1290f7e5dca393fe848ea0d355f5b95a350ea079b948b624e32f051840dcab28b721e6a412dd3bdaaa9e5647361fc1868f4d04ba2e60797fb0407dbc733697ada09f4ca84f673441cc5e554ea7ffd570de841376627c03064b917c6f4f9d5f3a17c835fb81576a6fa22688ed7d3e14b34e92cd62101b6fce90e7dcbccc884b92b71f404949a754656b55f9e698ea3c0755b09fde688cc7f88641397488e514951132cc47b5bd1cffd966a8c379c009ccc551255dd29add829e15ef6f430a6f9118b80e1de839a33a3f4b2fd196be3847eb261bf40a2d7e2880a5ec17100286395f59fca5526e98758d485eb808441b40f201ecca2af18aac3c4e8ed7ac16f92057794505de318c8f2acb5c70ef1cf085159f7923a127b3b423b55b94584d6738703531aef69a8c56f30dc2dfda97b8f9348c04c18ba6a27758e4569fa73c0fc17a81f9b162dd0cefcafcaa851cc2f7a8cbc323a7e9925afd794e6066eff5ba45fcb9fb85a66690fcf92e84734940df9e27969df9092cad960e3a6d1d67aef60ae8624c37a697ecbe8c58909243af9345fe018f3643a7ef6b0cad1d837920e39b437d19183247bfc83c97051d4bc6e1b8509a6c731f1906903a83b42b0d579e7e4a5d3493c10810d509302308080341a255e2c7ebc040db1f7293b49dabb5185727644bf7ae861ee804ba30895f146d8c60661e17a3463bca50183da60301cadad6f9c185ef5f3f2ea08195c0121c4ee78c6edaa79c59861f14da7bbed5081c27aa2e015ba8609091ee675595de51cc1d5bea1f9c4e1dc929b4fec45acbae59504568267eed5186ea7d40e620c74f0ba998de9506ed08d6fd526978552bdf1634168babaa95a767c7b56e9c8c58959d8546be20437ed5dfc3856c5553d68af63bdecd72b10a25399d1590286d554d702302a4793ae185476b585e3cb8fcdcd12f72defad15b3f43d568fc6bbf3310e6537fc25d224948dd98c37b7ffc3f295c07670d4f397a3d6fadcc80ed2a60f67c62f8eae77df64a412b8103b24efdc8c3a957a53c063449beee5ede6819edcb8b359a9ad80f8cdd7f1d3ba7931d90ab07e83fed3289949098ddf03ac00eecd35fe2e8055d6234f09cf23d61d3e083b67d926616098b7263dc2feaa45e3897988d7ef40da6cef1b11d29570ff38cb1d3bdbe6d6721903da7c1f9e660e3ded99cb4f3551a9ca8c90d21673587264fa38a9ef23a2265ee440bfb73787625d35ff5fd8c62a446a29f5251568e754da6c1266124256ca3e2f2c0b713dfd2859fee27716b13b8766633e069773488f400903cdc76aa1d0bd2788333c485c5e255e027c9535a09176fe3bb2ece06f3ac39739a0a7bc11fff5d12c81811b83772b0c49a4f643de78b2f784abc13526313a8b9340fa29632f0de60eb3c25c996c9895ab5ea31bd10aff4c3e9459cc7eed54757cfac9566d3d75540fd7be11aaac18e93fed1e0bef6993f36ac3ab23bcd4b7eb99a50eea149c59b09318438e19325663976ad88ed9eae3ec16c0899e549d634872126d91efcf8b134f69c007109e104e3cdc566221cf20e0cf0b41d146d5c8f239b5330796292bc778bfa98f99072277d7e92568126b94fa21813322eae7e1a4cca53dbac9c0d22ce9d4d830a544b0169c7ed0c051ca3d1544e9f9914cbd369a35961d7400e57a2dae931a0578d4bb1c004a16d000000",
  "txid": "c7355fddab7b6d53d24270c002ecabb735aa7f49cc6746c916e11faba4b3d88f",
  "hash": "8c1e215f210091638d52ac661b3c83ae097ed6b8e1d2bf7b80b3d28b6fb44c5f",
  "size": 5085,
  "vsize": 2278,
  "version": 1,
  "locktime": 109,
  "vin": [
    {
      "txid": "a41de60582ebed9c7849907cb5d9e58ed062d6d8a4840f535aa23451029572e6",
      "vout": 1,
      "scriptSig": {
        "asm": "",
        "hex": ""
      },
      "txinwitness": [
        "f4aaff9309686b7910795e05b68d7c175765138507f7604bf7392035e502497ca596361679d2dc6adcf66e59a50815dac2f2a880e19a8331e92c25432914b1ef268a2cd8777929e44aca3c95f7ad955d5551e8a7b946cebcbc7eaad060c73841f3563d3a3df28268900ba8782a2cf4a9dff906fc7f13296cae929020c6350f543183289691811ee3dec1c87594ddde1930dd3a16db57fb1bda1baf73b19aaaabcace646cab5a918517844e20126ed6d34a34c91edafc09ea97e26783d57ff14dd93cc8fede5fcfd98dd1cacf927199f276be103c93f7732f14d65a195f80c53bf7725f07cd99421cd29ab8c6b2dbf5fa1e31ff950702cfe460c5a106f5a165d830d82fe1437d3e27484b0a7721abef45dd6fabd9bf5d00b1bbc0c838b0dacbe2c1983c1e2c64aad5387a6f2b459db6344b317eda40634bed46a2667c39abe42a64604ac50c47ede530890938a7c716ef078bcc6a5035007a1a5ffe2ecb405f6be104f0dccec6b3bbdea45015ed08e173efe786a0c098ae7257f7753da11ae00b7f256627b853e1b591c09c8eb4a63f39365f000080c65af2888fc4231c1e3f9973c2fbf33c455961a6d7eed87f7b8658acd50c17ea1cf276c9849b15ca9c1e74042a4e200b41b56a63577983d115100f6ec831587773e1cb7df741ecd4730e0ab3c004aa00b1d242fd0bdc929d145e26dcff64bbc37efd7862d9b42749c296cd80d1164c2964adad9d35476c009f392d5afa77b4ae52446cc77457e52f06bd647673f33313e14c71efc709434337afb06b5ad4ceeb494dd6e8089bc3313c853255b0f1629cd165da963a8906c2a80abfe18b310f1b51a357363d9a17e5c0337f1dd639c75c3144074af9ff8ec2e654e6b1264495744cc8180f8205db761384b455c32fae10cde26ff64b541ecd5dd934ff14ba392c20df512dcf1a26ee6c450494b3b0cdf24a1ff77616e98482db887c3144967cd493583af80094f7f1d0103b0c1f1a4913a539b495f4464e7e595750e831a25ec1994c121d74350b6bd86cf16911013c2ab6d89536e0f20a72eb94a554f3da0b4d47d7b3bd7f5c8b406277fddd9c43dfeb4cb680c508049ebbd1ddc0d3803ad9cecb90ad8f6ce000da91f6786044c2f0891cc8973e0eb2c239d4c8cbcfc86f102cb0e1745529ffdd065eaaa1066f1901618c7e5a4ca9753cfcd47f4ca11fb059118b45e576e397f3e7687d8350695b2ddab463f5b0b98ad049d2a3a90ad2f5b0f441f285e45125efb89bdd7f6afbc6c1fe5af4ccceb52884d4caddce45959ee9a76d0831e26ba911932f225ef0bfa4ef0d3d2bd31ee547af247b157302eeeb447052024aa0c2dd05c4b072b5e03f0d372cb37621c0a1f2b7b6ff09296fa0050c4e5b29187e7c62c53635c475491d4558afd6b627005c683a3fc7ec5c71863def3f7e6f91401c5dcff8bba959327486cae2f6c38ef32518662741fbb4099406ef5220e70fca003548fa91133683724c6d7a3c808220906ec58feef2f4f1a5f63f6369b2e900a6503c8c79b64b2ba8a4f8fe701001d50a0d7e33f0fbc09c310a1f3cebc19dc1a9b22cdca135b92d57a24d618e94d91849aafd92a03b0d81314221685fc4671b309d8d8bb492ebcee346799c0b02d3537b9039de2354c89db71aa8b426d70d44d7ffe983d347080eb6354c84db2f5639dd4a417b3747e4baf2826f9b27a0c534b08ee30e3f102c840bcc2ef92ca13a323068032907f5358d41ae815d3cca7ede29c9a88f00b87eda81c8b1b909d7772ccbab34e0bdd2fd5d689be934f6cffcc93f21ef918df0489da3f365a68c99920f7c08af9706d2b6da2fbd63045362405fa3ce07b93aeb15c7e7942fe014a865937b79e29d995adf70e3b04d0c0eea313889b0961dbdabe5f56923b68601fae094b7e9e761900de1eb91f424c175a4b75865dc267359e906c62b43b1df83e937c3259769fc673534a9edc7a86c0d0d9d2421b10c7fcfd7db3aca50c6142b0d77f013c98434f4168c52d859e1094573f56975c4034b988c9a2248f52201330d4ac4df2d9a44f67d9a54e84e7b28918670269a9ef3a15dead26d1aff9b1c81889839e2aeb048eece092da94de560649f7da50d52413a3fdd9c8f6889ff061b409dc52c1a1540add7da5e4da9f9b3b808f96f8363bf48a5f129197a2ad1c7f749ad1ed5f8cad08d3b02452391b1943eeae5f73894b5caf20fc0ea900d00cc487408675a0202d3807b32d3f7c0c89e8df72ef1dc6189477d2afb1b1b56fd91c28b82c47976292e6e9b180ff4fa2488c433f81fad08c4d71f424d9e8d7476815de5fe4bdae880c67ba481ff9b7e2aa6708a976e8bf3ee2ab3f240872b043ae7c19348bf1514f55bd0495d78b17c3d57fd5ca701b6627acf95dd85316eb78827aa85b601fe21e5ff640e4a70a203ebc7a6595b3551d3a5e6f13382a633bbe3a9cec5df1cb5f85d63bc0feeb01e7ab929b4d932569b5ed17ad24a917d8dece5d578200fb1c70e2d60f25edbcd24c90fbe3dbeb17de9e423c6e99ab42dc7194130b1e5423450c9682284a5af457e25c64910f47b51f25e00b40cc00c6213104af5312edfb3f32ec3a886a51353da9da19df936b6bf5174e9505c1821f97623e7300b2454d08f6d24758b7ca34a05693dad7f3935b9a759f95fc2f9dc3b38a734aae3b6df2097275ee4cfdc1a63532a9630b00b2c3a2d5eff6b1208d0d76c7b8e9a1f6614b56535dfe6a8aba3d09fe5c6b2c0343f5580583f385e14ebbbfa9b87d1c210cac354719488c9bed4428436303010589d90836cb165ef8e5ce7cb823733a9cd5acdaf30395438ab0f4880eb0595afc4dec4ae48e734858b9721b5697a66d75ee6b4f82d032a89203ae5be111735aef9bc5194dc97f5f150f2cef5eeed0d57afedbf05aa4ae9039ebcaebba6fbbfb71987b47cfe676b965e061e0b2db91122ae13f782a24633cf57738084aad50262faf520b2bd56cdb5e7617ce0f0b136f592299a7a9a8dc7efb72c1321319e70d3df40e607644d3cbf7939deda4b79df0c5f8f4d184f784dedbc746bc3c08f298942a0efdb25edaffcd603d94f11c61b1e6defe6e8d6e0e51f644ed96526c0b6d6ee8931272a13a42a4f963af150501778ee73a58f9e549b084c2eb77225e6ed6b1521da9695cbf396d6c0089c7e546960a5e464be3edb15ec54b6c1fe3ce7b2a74b820aada792ea83b5fe8264c181ff6ed35206e00b4b8ee56fa597a0cabae12c236a1e3f45ab521bb347b641261ac5bbb0271097f4e68386deef5d865e140e35bda3be6dcf05078a12bb040d1b1e242d303e4d787f8398a1a3cdd3f1192527445862738588a5bbc2d2d8f40316333e444f70797e98c3d6dfecfd0716263b414f595b747886cddee0e6f8000000000000000000000000000000001221304001",
        "004a8c15e4b30797ad7585b3f93cab2ba716dad66bf12ee3dbe060ee66681af156963d071bfb14ead3b8ae22997da394363c3e09c7eaae1bf63d106b742232973294dc74b0f989ed0ec6d897fcd54b2f50bdfb6fe5c3e9e86c11df3fb961b42fb6142b31ddd5d463602536af478e31962f7f1290f7e5dca393fe848ea0d355f5b95a350ea079b948b624e32f051840dcab28b721e6a412dd3bdaaa9e5647361fc1868f4d04ba2e60797fb0407dbc733697ada09f4ca84f673441cc5e554ea7ffd570de841376627c03064b917c6f4f9d5f3a17c835fb81576a6fa22688ed7d3e14b34e92cd62101b6fce90e7dcbccc884b92b71f404949a754656b55f9e698ea3c0755b09fde688cc7f88641397488e514951132cc47b5bd1cffd966a8c379c009ccc551255dd29add829e15ef6f430a6f9118b80e1de839a33a3f4b2fd196be3847eb261bf40a2d7e2880a5ec17100286395f59fca5526e98758d485eb808441b40f201ecca2af18aac3c4e8ed7ac16f92057794505de318c8f2acb5c70ef1cf085159f7923a127b3b423b55b94584d6738703531aef69a8c56f30dc2dfda97b8f9348c04c18ba6a27758e4569fa73c0fc17a81f9b162dd0cefcafcaa851cc2f7a8cbc323a7e9925afd794e6066eff5ba45fcb9fb85a66690fcf92e84734940df9e27969df9092cad960e3a6d1d67aef60ae8624c37a697ecbe8c58909243af9345fe018f3643a7ef6b0cad1d837920e39b437d19183247bfc83c97051d4bc6e1b8509a6c731f1906903a83b42b0d579e7e4a5d3493c10810d509302308080341a255e2c7ebc040db1f7293b49dabb5185727644bf7ae861ee804ba30895f146d8c60661e17a3463bca50183da60301cadad6f9c185ef5f3f2ea08195c0121c4ee78c6edaa79c59861f14da7bbed5081c27aa2e015ba8609091ee675595de51cc1d5bea1f9c4e1dc929b4fec45acbae59504568267eed5186ea7d40e620c74f0ba998de9506ed08d6fd526978552bdf1634168babaa95a767c7b56e9c8c58959d8546be20437ed5dfc3856c5553d68af63bdecd72b10a25399d1590286d554d702302a4793ae185476b585e3cb8fcdcd12f72defad15b3f43d568fc6bbf3310e6537fc25d224948dd98c37b7ffc3f295c07670d4f397a3d6fadcc80ed2a60f67c62f8eae77df64a412b8103b24efdc8c3a957a53c063449beee5ede6819edcb8b359a9ad80f8cdd7f1d3ba7931d90ab07e83fed3289949098ddf03ac00eecd35fe2e8055d6234f09cf23d61d3e083b67d926616098b7263dc2feaa45e3897988d7ef40da6cef1b11d29570ff38cb1d3bdbe6d6721903da7c1f9e660e3ded99cb4f3551a9ca8c90d21673587264fa38a9ef23a2265ee440bfb73787625d35ff5fd8c62a446a29f5251568e754da6c1266124256ca3e2f2c0b713dfd2859fee27716b13b8766633e069773488f400903cdc76aa1d0bd2788333c485c5e255e027c9535a09176fe3bb2ece06f3ac39739a0a7bc11fff5d12c81811b83772b0c49a4f643de78b2f784abc13526313a8b9340fa29632f0de60eb3c25c996c9895ab5ea31bd10aff4c3e9459cc7eed54757cfac9566d3d75540fd7be11aaac18e93fed1e0bef6993f36ac3ab23bcd4b7eb99a50eea149c59b09318438e19325663976ad88ed9eae3ec16c0899e549d634872126d91efcf8b134f69c007109e104e3cdc566221cf20e0cf0b41d146d5c8f239b5330796292bc778bfa98f99072277d7e92568126b94fa21813322eae7e1a4cca53dbac9c0d22ce9d4d830a544b0169c7ed0c051ca3d1544e9f9914cbd369a35961d7400e57a2dae931a0578d4bb1c004a1"
      ],
      "sequence": 4294967294
    }
  ],
  "vout": [
    {
      "value": 499985.7634,
      "n": 0,
      "scriptPubKey": {
        "asm": "1 3b37476bf238c2ee48d014a4806fc005667c3694e0dd6a8b6a696e07c3ec1ef6",
        "hex": "51203b37476bf238c2ee48d014a4806fc005667c3694e0dd6a8b6a696e07c3ec1ef6",
        "reqSigs": 1,
        "type": "witness_v1_scripthash",
        "addresses": [
          "3QJmnh"
        ]
      }
    },
    {
      "value": 1.0,
      "n": 1,
      "scriptPubKey": {
        "asm": "OP_RETURN f28707ce08e9dfcfbe60b46d42d7324512a6bff9ac3f5560db0d7c4f29f97ffc 81a130115e4794cdcd759406b2cdfad0401c0873f6eaeb3dd66676d7381408b7a18110317e67b4eded55b42692eddaf0603c2853d6cacb1df64656f718342897c1e170511e07d48d8d35d446f28dba90005c4833b6aaab7d96263697785448f7e1c150713e27f4adad15f466d2ad9ab0207c6813968a8b5db60616b7587468d70121b091dec7144d4df51486324d7a50c09c88f3766a6bbd56e6f657b8948837210190b1fee7346d6dd534a6126d5a70e0bca8d3564a4b9d76c6d67798b4a8174161f0d19e87540d0db554c6720d3a1080dcc8b3362a2bfd16a6b617f8d4c8776141d0f1bea7742d2d9574e6522d1a30a0fce893160a0bdd36869637d8f4e85781a130115e4794cdcd759406b2cdfad0401c0873f6eaeb3dd66676d7381408b7a18110317e67b4eded55b42692eddaf0603c2853d6cacb1df64656f718342897c1e170511e07d48d8d35d446f28dba90005c4833b6aaab7d96263697785448f7e1c150713e27f4adad15f466d2ad9ab0207c6813968a8b5db60616b7587468d70121b091dec7144d4df51486324d7a50c09c88f3766a6bbd56e6f657b8948837210190b1fee7346d6dd534a6126d5a70e0bca8d3564a4b9d76c6d67798b4a8174161f0d19e87540d0db554c6720d3a1080dcc8b3362a2bfd16a6b617f8d4c8776141d0f1bea7742d2d9574e6522d1a30a0fce893160a0bdd36869637d8f4e85781a130115e4794cdcd759406b2cdfad0401c0873f6eaeb3dd66676d7381408b7a18110317e67b4eded55b42692eddaf0603c2853d6cacb1df64656f718342897c1e170511e07d48d8d35d446f28dba90005c4833b6aaab7d96263697785448f7e1c150713e27f4adad15f466d2ad9ab0207c6813968a8b5db60616b7587468d70121b091dec7144d4df51486324d7a50c09c88f3766a6bbd56e6f657b8948837210190b1fee7346d6dd534a6126d5a70e0bca8d3564a4b9d76c6d67798b4a8174161f0d19e87540d0db554c6720d3a1080dcc8b3362a2bfd16a6b617f8d4c8776141d0f1bea7742d2d9574e6522d1a30a0fce893160a0bdd36869637d8f4e85781a130115e4794cdcd759406b2cdfad0401c0873f6eaeb3dd66676d7381408b7a18110317e67b4eded55b42692eddaf0603c2853d6cacb1df64656f718342897c1e170511e07d48d8d35d446f28dba90005c4833b6aaab7d96263697785448f7e1c150713e27f4adad15f466d2ad9ab0207c6813968a8b5db60616b7587468d70121b091dec7144d4df51486324d7a50c09c88f3766a6bbd56e6f657b8948837210190b1fee7346d6dd534a6126d5a70e0bca8d3564a4b9d76c6d67798b4a8174161f0d19e87540d0db554c6720d3a1080dcc8b3362a2bfd16a6b617f8d4c8776141d0f1bea7742d2d9574e6522d1a30a0fce893160a0bdd36869637d8f4e85781a130115e4794cdcd759406b2cdfad0401c0873f6eaeb3dd66676d7381408b7a18110317e67b4eded55b42692eddaf0603c2853d6cacb1df64656f718342897c1e170511e07d48d8d35d446f28dba90005c4833b6aaab7d96263697785448f7e1c150713e27f4adad15f466d2ad9ab0207c6813968a8b5db60616b7587468d70121b091dec7144d4df51486324d7a5061cd91e3373ac5a2174267e0a5e9a87859e4bc094f7a1e8d1b95c361ca335436",
        "hex": "6a20f28707ce08e9dfcfbe60b46d42d7324512a6bff9ac3f5560db0d7c4f29f97ffc4db00481a130115e4794cdcd759406b2cdfad0401c0873f6eaeb3dd66676d7381408b7a18110317e67b4eded55b42692eddaf0603c2853d6cacb1df64656f718342897c1e170511e07d48d8d35d446f28dba90005c4833b6aaab7d96263697785448f7e1c150713e27f4adad15f466d2ad9ab0207c6813968a8b5db60616b7587468d70121b091dec7144d4df51486324d7a50c09c88f3766a6bbd56e6f657b8948837210190b1fee7346d6dd534a6126d5a70e0bca8d3564a4b9d76c6d67798b4a8174161f0d19e87540d0db554c6720d3a1080dcc8b3362a2bfd16a6b617f8d4c8776141d0f1bea7742d2d9574e6522d1a30a0fce893160a0bdd36869637d8f4e85781a130115e4794cdcd759406b2cdfad0401c0873f6eaeb3dd66676d7381408b7a18110317e67b4eded55b42692eddaf0603c2853d6cacb1df64656f718342897c1e170511e07d48d8d35d446f28dba90005c4833b6aaab7d96263697785448f7e1c150713e27f4adad15f466d2ad9ab0207c6813968a8b5db60616b7587468d70121b091dec7144d4df51486324d7a50c09c88f3766a6bbd56e6f657b8948837210190b1fee7346d6dd534a6126d5a70e0bca8d3564a4b9d76c6d67798b4a8174161f0d19e87540d0db554c6720d3a1080dcc8b3362a2bfd16a6b617f8d4c8776141d0f1bea7742d2d9574e6522d1a30a0fce893160a0bdd36869637d8f4e85781a130115e4794cdcd759406b2cdfad0401c0873f6eaeb3dd66676d7381408b7a18110317e67b4eded55b42692eddaf0603c2853d6cacb1df64656f718342897c1e170511e07d48d8d35d446f28dba90005c4833b6aaab7d96263697785448f7e1c150713e27f4adad15f466d2ad9ab0207c6813968a8b5db60616b7587468d70121b091dec7144d4df51486324d7a50c09c88f3766a6bbd56e6f657b8948837210190b1fee7346d6dd534a6126d5a70e0bca8d3564a4b9d76c6d67798b4a8174161f0d19e87540d0db554c6720d3a1080dcc8b3362a2bfd16a6b617f8d4c8776141d0f1bea7742d2d9574e6522d1a30a0fce893160a0bdd36869637d8f4e85781a130115e4794cdcd759406b2cdfad0401c0873f6eaeb3dd66676d7381408b7a18110317e67b4eded55b42692eddaf0603c2853d6cacb1df64656f718342897c1e170511e07d48d8d35d446f28dba90005c4833b6aaab7d96263697785448f7e1c150713e27f4adad15f466d2ad9ab0207c6813968a8b5db60616b7587468d70121b091dec7144d4df51486324d7a50c09c88f3766a6bbd56e6f657b8948837210190b1fee7346d6dd534a6126d5a70e0bca8d3564a4b9d76c6d67798b4a8174161f0d19e87540d0db554c6720d3a1080dcc8b3362a2bfd16a6b617f8d4c8776141d0f1bea7742d2d9574e6522d1a30a0fce893160a0bdd36869637d8f4e85781a130115e4794cdcd759406b2cdfad0401c0873f6eaeb3dd66676d7381408b7a18110317e67b4eded55b42692eddaf0603c2853d6cacb1df64656f718342897c1e170511e07d48d8d35d446f28dba90005c4833b6aaab7d96263697785448f7e1c150713e27f4adad15f466d2ad9ab0207c6813968a8b5db60616b7587468d70121b091dec7144d4df51486324d7a5061cd91e3373ac5a2174267e0a5e9a87859e4bc094f7a1e8d1b95c361ca335436",
        "type": "nulldata"
      }
    }
  ],
  "blockhash": "0588000bb82f4b14ca9e4626330a5c84a7bb9e1c31fd2ade5c3732d80cc4fd85",
  "confirmations": 1,
  "time": 1764178356,
  "blocktime": 1764178356
}