{
  "hex": "01000000000101078f3b3ff316aefce0facb09f43285932178f9153f9b854f3cbcd31785583b960000000000feffffff0200e1f50500000000fdd5046a204799cc93c2b2c8cdd9fb73d31cf1f59f22deb0e1c73cec89e9f33c6e7ba26c604db0047753157dae7e3e77ede86b14bb785d3ffd86c13206fafdcca9dca7362bcf14b55773355d8e5e1e57cdc84b349b587d1fdda6e11226daddec89fc87160bef34953713553dee3e7e37ada82b54fb381d7fbdc6817246babd8ce99ce7766b8f54f51733751dce1e5e178d880b74db183d5f9de6a152669a9dacc9bcc7564baf74d5f7d395fd2efebef76d68eb943bf8ddbf7d0641b2867a7d4c295c27b6ab4f9435d7f3b5dd0ede9ed74d48cbb41bd8fd9f5d266192a65a5d6c097c07968b6fb415b793d5bd6ebefeb72d28abd47bb89dff3d4601f2c63a3d0c691c67f6eb0fd47597b3f59d4e9ede970d088bf45b98bddf1d6621d2e61a1d2c493c47d6cb2ff4557753157dae7e3e77ede86b14bb785d3ffd86c13206fafdcca9dca7362bcf14b55773355d8e5e1e57cdc84b349b587d1fdda6e11226daddec89fc87160bef34953713553dee3e7e37ada82b54fb381d7fbdc6817246babd8ce99ce7766b8f54f51733751dce1e5e178d880b74db183d5f9de6a152669a9dacc9bcc7564baf74d5f7d395fd2efebef76d68eb943bf8ddbf7d0641b2867a7d4c295c27b6ab4f9435d7f3b5dd0ede9ed74d48cbb41bd8fd9f5d266192a65a5d6c097c07968b6fb415b793d5bd6ebefeb72d28abd47bb89dff3d4601f2c63a3d0c691c67f6eb0fd47597b3f59d4e9ede970d088bf45b98bddf1d6621d2e61a1d2c493c47d6cb2ff4557753157dae7e3e77ede86b14bb785d3ffd86c13206fafdcca9dca7362bcf14b55773355d8e5e1e57cdc84b349b587d1fdda6e11226daddec89fc87160bef34953713553dee3e7e37ada82b54fb381d7fbdc6817246babd8ce99ce7766b8f54f51733751dce1e5e178d880b74db183d5f9de6a152669a9dacc9bcc7564baf74d5f7d395fd2efebef76d68eb943bf8ddbf7d0641b2867a7d4c295c27b6ab4f9435d7f3b5dd0ede9ed74d48cbb41bd8fd9f5d266192a65a5d6c097c07968b6fb415b793d5bd6ebefeb72d28abd47bb89dff3d4601f2c63a3d0c691c67f6eb0fd47597b3f59d4e9ede970d088bf45b98bddf1d6621d2e61a1d2c493c47d6cb2ff4557753157dae7e3e77ede86b14bb785d3ffd86c13206fafdcca9dca7362bcf14b55773355d8e5e1e57cdc84b349b587d1fdda6e11226daddec89fc87160bef34953713553dee3e7e37ada82b54fb381d7fbdc6817246babd8ce99ce7766b8f54f51733751dce1e5e178d880b74db183d5f9de6a152669a9dacc9bcc7564baf74d5f7d395fd2efebef76d68eb943bf8ddbf7d0641b2867a7d4c295c27b6ab4f9435d7f3b5dd0ede9ed74d48cbb41bd8fd9f5d266192a65a5d6c097c07968b6fb415b793d5bd6ebefeb72d28abd47bb89dff3d4601f2c63a3d0c691c67f6eb0fd47597b3f59d4e9ede970d088bf45b98bddf1d6621d2e61a1d2c493c47d6cb2ff4557753157dae7e3e77ede86b14bb785d3ffd86c13206fafdcca9dca7362bcf14b55773355d8e5e1e57cdc84b349b587d1fdda6e11226daddec89fc87160bef34953713553dee3e7e37ada82b54fb381d7fbdc6817246babd8ce99ce7766b8f54f51733751dce1e5e178d880b74db183d5f9de6a152669a9dacc9bcc7564baf74d5f7d395fd2efebef76d68eb943bf8ddbf694ebb9e6a01f87aeaf3139f351587e759c9e97a158dc13152dcbe5474cfef9070752d82792d0000225120bdcb481d2b4765b94cc1ec3401b0830284e907444a7b37d3551f3e606ca07a8b02fd75091a9bb13d077767be8e8084249773971128187f56124ee3215abd590139c47f088575d07e6a10f1c75094e5f399f675b82a405489b7331bc11bf17b03e075eb6408c55b996bace9b701812c6d9612ea31f18aa033b514bdedbf829dea1914263f376ba7c5f073948a45f0d8535a5924686a108ec38a49307e96aaca5f3d2f1f8aaff3943ecf04074185e3a36073a155bbd08854f5276bf168f8a61f7706df78520540ae18bf93849906055d1a8bf5488b986b664d6827c079add9c4a1a201f586099464369ee0d81aa07abb9c010f0c18c4a5a087b8ac5a35e9f1036e143db97ea2b4f1cc75a422bc38c41ca52af8c0b853c6e3b00aee6799e8f49adcafe124d1af5e38df0defd747be25f194c160d2ec7641a7a0fb21171b7a3c8bd85a462a49eeba7fa38a434063e967ea431d421701929a5b86e3598fa7744dc29b53d63c8a4e6691963deaee9fddb01cadbf771d2b30c860c8e055260286b45242185f7e55d492f5226710268f189172bb548d463bcc5c6541de8309368bb7101dd60dffcb38bfd8068366a624bf73c8c89d768aae4d984ae988c347331b7994a6fd0e234ad8fea14396d01d9a51df01a91b145253b616621dc1a8ba73fb1779068ed976ac63318167dde3cfc70c5d09ba5e98bd1dec810837ead0b49db1e0ae044e4794fe55249e4e0485e9ca2a1a11c6599614df04352e0b2c580f2f96fe753c2df758440d7e12c3315e2d8a4f4a0dcbd2c80b2e209e686dfef241afc8037a2b9b248c6c46cb3f8b93fbac44732188f3ecb8c3a9c9e4839fddde268d6b2d504f4b26f517c761642c18ff466bf199a58cb13f5cc756aea6cdf196bc11ac966fb8c0fe28799452b533c76209592b807277d3bdf1d6d51f9ca5dd466dd411c98b718e35066688100ae02bec64cb94a69a35f112adcf0c8251d91a2b09df6d6da69065417ab831471951b7e121c7e1783734220dad7aa8212daec35cd6b1bdc07b89fd48c725552dfe5f49ad89c179df57a2a883533c45eb8d80d41772542634fbd178d64989c39afd9bc20f8de24128389c626061e442be89c8680474d80db5e6c0cfa30880706879191e44c000fd4248d73b1104cf7fae928dd20666ee8a0d17a3ba05ffbfb69a1d8c9ce34fc367341ebc721ba1193f4979cae29908d3e2347548e63c01f2909bdcf057d69cf739837045515a86d4eb963070c91999f9b804095415d9557dcbd08b73ffaed5998f2f25ce8ff44b4c10edc9cd099f8846d6c30f0e770e5edbc2745b15ef78ceab0c1b1aa60106f6c3d4126e32c8a8ecddb98680d767e551b442264572af8a754ed08c15aca8f1cfc497c8469b4d445a06d87db5fadd3eaf626bea4bcd97809a0a07869c64d3e1cb423c782b48a1feac5a9e6dc1ad1a7eca2c8eb897c520ad0183ea1fec1b72d533c3680c39e55157318720440576920148c24e958146bf5ebad4c4dec089ee8da8f1233ab45e263177a082d7bdbe47199a88c9f3965012c1021f2060667cce2c83ebe82f906fc79b94d16a1fdf9b56ffa74ee68200a55f455157de70d0a9f740299942d7b10cb6884003f1717b89a99bf440ec717d7b12683b4d47b676c1ae379635a67c629f0eab67f6d30fd51b00143e47ba01977012a6dfe4edc40bcb285d162809b8250f99223e1087695b7fc0c917f34442b17877a037231ce7dc01faa66e553b247c92d33e5e9c907d5a9cf6c23da2b3e2efa21cd12eb291a55a877f8f682816253720039b11a556b1d4a5f04cfc88d65d6715a4306d77b187890c722740f39a3332f11c87c96d50e7946d081d592784b76bab37ae7c230958f8a857076e25225a64c53ef50bab0a90aa0e3773482049a08a53a748a306685fbd3d99f88c3c75b96087b496b1bf76ff2556f81076c3976ab3eb4a24f4b60bbbe7e4a64421354df26a6e1413294c233730b91a16bef4be4b2b2495f26c98365f3817a809f1eed0c609a70dde8c99531fa1b7393c2bed5fe0766da5503f7b047f047dc04e1064c9709702d71eb8faaed526fd51f0d4c4b2113c6973d8485de39518ab7a636834346b2068ac89fb6d67b007bcf9394af0b8b6b98a6f5ae5ae4dd4d55773271e9e99f4c9484a314472141802e8aae47718df14db4341db38899f2d606bd164ce12f77f13ec3c65bb25739e4b8bc4ce7ff5b76fb7f39aa5e58f86d351fc844d9062d9864e4e056b9da1edfeb3948c21f7db3afce3d15d3ca5bd7573c5d1c17fcbf573b52ff89a6e85683cea16793aefa8e187666b878f927ad1a2de720c4696a782c62b3160db13665a86345f46f7110f14a6914347f0dc715a1aa98bad797f0b3660494365558cf8167ec9c8310dba613badd6fd1424f04eb3b4abcbc1c839129deb18544ea58998a4642724dc233f985286e1b705fa02a9dcc8c617b5cbb1a3424870ab793ed5da1b3dd05da2b07343972cb4162cd22aae387550fa799f3d8a6c6a793e0b490d2c3ae7044d273a4daa7dc0eb406f31865a898e4875279067b9ad121331c5ba34b4ac8cc800cb332508feb92697baef319de170413e75379043bfdf8950a9c8b093dd61f1f9827887d8661a93fbbb602f02f65adb66a7195ed088d15f3b3c1cea1ea7b467c244944a64a9c470754b79746c96da037f8f7c49cdf3f351ded8a0b2cdbc9666ae1325f268372bc9c30da02c66459991a31edb1bad1f121a5cee3970c68ca8d58850f639e894a4e3ae7a68fabdf97512672e46b2f388c8392cf6320bcfed90b73ed87570b088fb0bf1288db91c902221d5c9c5fbb311f009bb9f3fe04ae2fe6e681d119beb3be9eb566af4ea85db7f51d2f1e891fd44e42f1f7507e46ecf69707e1143b370e0af54fdc5904f04743fa123e5456a6371f740a7ce03c430d3c595d84ce87c4ef5327db53ebf42bb899b2335ec127cc689d139b47f87f14269b1afd5cfef1050c04cf8929145fdeb25d1d65827d09602f9b8a64aae477f1f39331cbc013573a23e071a938bd22717135a6a97b781eb8b07e9879f607900d32f1a396d90117186a71b5799a4909310ea2612dc7aabf48b84a152cbb8d2c9312396a60f57dde3449509446abaf7a799aa5a897daefe26aa69d82a4625ee2a66657e8d13cc76c56990b5127cf066e60ede3f2b3f45ed9f350f8b6c5f0c23eae8712a5933e462773c83c5421d49d4167e42138fef31bf518255f66129b5b98e15ba2d2129c27f9ba7569c0668f5754b3125e1c1b4a4fd35e89121a6ac7445aa6866d9cacb8a207b71f98cfa0d2ca814e2f6ad0a9b90997f1bf383165e167f5739eec960ac750516087c0b13151e2b373f555c618b8da2a5b4ccf0f2f3f7010406092026292c38454a678c95a1bdcae2e5ea000d29455865969fa8afb6c6dee8f1202b3233485c62667cbac2d0f6fbfd000000000000000000001428374601fd21050037b4682e93411fa63111aa3b20f390327cb5df7e74582a5190665fa2b3aee13007720b884f072bdf83a690f4f792ed0a401d376d9454471f22d6d9d45a93805b5591d1969d1cf8f541d42c7a0e9a4679cb6c155e8b06305e814af2a1013b71aa5505f0119ef3e53e02aec5fb06840db733a7e02e5ae2e67b84fb14088e2218670ff59ad5aea884786eed0fac52e98ccd0e9c474caf4ed69ee1ec9a648b3fcda5f26b33c0e5b19b401f05695fad6d2d475b3bf50c6005ab98bad5f5be3cba9e324d437c7c0fc70d0e627accc53b851324011ff466b59b64fcdda3019bf722aeba8d31bdbfe722cd2e8d314971c8fb6adf764fe08aff504c8e8ac766b6da74575834acbaf28b5435e032969346d88d075af31a77e425b080f674b8ff90840f0a35328e77475ebec3d22f5781f10e2fb001110890408da9617209b3e820b07d5e46b8c90826ed36a232acf21d2b95aa06fd629b302aacb6d1a40770a8a711d719514522d0b50bd803054be799450e6c2f4c28feb8ba4ed24ed42470137a7bb6b616900e8d2c8cbd247347aa2d9bb08a61b0937e677490de6919cac7a3797cff7c193527b492a42de47a18d84ac4ec903bc1bcf23895bb68527b31199f5e83f5aa3db7ffef5ca578a9ec69d42c2de462fcf2acf0ada57fe681e25fafa0a495a819a11aec899276d8490a3ae752f0fd1be04bb3c8ccdffaea82744e0e05ed0133004ca5210b3e6f579f74a8667e6fb0f086ac2d4da9d9b1f0069ba839d21b4af085d6bd29b115f34b8117d351f65b8b81fce731f2bd007f4b78b32d9059f45ce62c40565a098eef1ffa8afeb2dc3379e59d0a1583bdc1f97eed253aebc4460ea5eb6e250c9cc851b76006d11c03c70760a5367e98882eb113ee86061f18f7e924250309358d8f16bc8568401ae33c4f3889e7ba83b65495a9e2725d37ef91da7be4f46a98a7c7bae7cb8d45af3b6fac9b85669f20e9271cae67c51f54e220c56c5fa5f6627d4d1a711917d1c56ca3f9e6f54f1de03f5514017e85d6c512cbc59eed5ec998ee29001564df3dca0ea3d5c331771ccf4f99e3ac46681d95d124eded06b128a663e03921137f8fba93c9357d6062d14b5f599354f738e548818adfd576c6a4909c99413ed49dd2422acb54738dfdb28a4869c12fa575af41333180d02c7ba7b288e30f1989b7f36309966b766903a4a86c32dfaf183239dbfb106f94b34da6450a18a7ff8ffb6f8410069317a39dc4a3ad09aa8d36ee6b8cf20c1c773cb6f80e8dccb98e0c1daf3106695e0117fb5f97c9c0bb1f17e1826308ca910ed6463488a189e4b68e92149453a41ea9d2a89aa69e1702b5606e3386a8d883cecb7467c174c911410d3b9defde663d07869e6baa9d9dde52e50baef2dc5c1b546e736bab692419fe03c40fddec69b69d65b63f6aa1c4e4be2579c667e3d17e9135e8b6a68ab2da754e4374e3708d5c2407a83620f9145fc61ea427d956c706e44bad238ca557da1a5e012b564d2ff4290af34450e8433352b179c0e7b49b60d9258185f37df4584659a3b53ea7cb11f5130116dfdbdf43ad0f016ad3c3a1bb679fb03aa34a27cdf660380894a89797d817c1346c3dc0048bfdf2792bf90a64ec6f1a1f4f8d50c28476a45abef6a2214a1cfec8df89568f08b530bfac11d5f175446f464ddac965b65f6037783a6a4ca014c369bb32d920a8c4551075f13d57e28a0defa5353dfb2899b1230c9b933a51a35e8fd7f1da9574fcd1a0f88783bce4e4950bf2e6f967d8964aea0e5d8cabb24bd4b1741b83e1fbee598a1da2c9a5dc10cbb5d605dc33bc8e786fd62a5dd414631c201e1b83e2d55f89503b44a50b4055c367000000",
  "txid": "ce2e27a792bbb92b85b3dac2578f5793429a8e5051377e849ccb3bcf68cc1883",
  "hash": "e5aa25a66b46b8058d75057ec04e96b0c46862e52dffb70b04306a7fc4f6b4bf",
  "size": 5085,
  "vsize": 2278,
  "version": 1,
  "locktime": 103,
  "vin": [
    {
      "txid": "963b588517d3bc3c4f859b3f15f97821938532f409cbfae0fcae16f33f3b8f07",
      "vout": 0,
      "scriptSig": {
        "asm": "",
        "hex": ""
      },
      "txinwitness": [
        "1a9bb13d077767be8e8084249773971128187f56124ee3215abd590139c47f088575d07e6a10f1c75094e5f399f675b82a405489b7331bc11bf17b03e075eb6408c55b996bace9b701812c6d9612ea31f18aa033b514bdedbf829dea1914263f376ba7c5f073948a45f0d8535a5924686a108ec38a49307e96aaca5f3d2f1f8aaff3943ecf04074185e3a36073a155bbd08854f5276bf168f8a61f7706df78520540ae18bf93849906055d1a8bf5488b986b664d6827c079add9c4a1a201f586099464369ee0d81aa07abb9c010f0c18c4a5a087b8ac5a35e9f1036e143db97ea2b4f1cc75a422bc38c41ca52af8c0b853c6e3b00aee6799e8f49adcafe124d1af5e38df0defd747be25f194c160d2ec7641a7a0fb21171b7a3c8bd85a462a49eeba7fa38a434063e967ea431d421701929a5b86e3598fa7744dc29b53d63c8a4e6691963deaee9fddb01cadbf771d2b30c860c8e055260286b45242185f7e55d492f5226710268f189172bb548d463bcc5c6541de8309368bb7101dd60dffcb38bfd8068366a624bf73c8c89d768aae4d984ae988c347331b7994a6fd0e234ad8fea14396d01d9a51df01a91b145253b616621dc1a8ba73fb1779068ed976ac63318167dde3cfc70c5d09ba5e98bd1dec810837ead0b49db1e0ae044e4794fe55249e4e0485e9ca2a1a11c6599614df04352e0b2c580f2f96fe753c2df758440d7e12c3315e2d8a4f4a0dcbd2c80b2e209e686dfef241afc8037a2b9b248c6c46cb3f8b93fbac44732188f3ecb8c3a9c9e4839fddde268d6b2d504f4b26f517c761642c18ff466bf199a58cb13f5cc756aea6cdf196bc11ac966fb8c0fe28799452b533c76209592b807277d3bdf1d6d51f9ca5dd466dd411c98b718e35066688100ae02bec64cb94a69a35f112adcf0c8251d91a2b09df6d6da69065417ab831471951b7e121c7e1783734220dad7aa8212daec35cd6b1bdc07b89fd48c725552dfe5f49ad89c179df57a2a883533c45eb8d80d41772542634fbd178d64989c39afd9bc20f8de24128389c626061e442be89c8680474d80db5e6c0cfa30880706879191e44c000fd4248d73b1104cf7fae928dd20666ee8a0d17a3ba05ffbfb69a1d8c9ce34fc367341ebc721ba1193f4979cae29908d3e2347548e63c01f2909bdcf057d69cf739837045515a86d4eb963070c91999f9b804095415d9557dcbd08b73ffaed5998f2f25ce8ff44b4c10edc9cd099f8846d6c30f0e770e5edbc2745b15ef78ceab0c1b1aa60106f6c3d4126e32c8a8ecddb98680d767e551b442264572af8a754ed08c15aca8f1cfc497c8469b4d445a06d87db5fadd3eaf626bea4bcd97809a0a07869c64d3e1cb423c782b48a1feac5a9e6dc1ad1a7eca2c8eb897c520ad0183ea1fec1b72d533c3680c39e55157318720440576920148c24e958146bf5ebad4c4dec089ee8da8f1233ab45e263177a082d7bdbe47199a88c9f3965012c1021f2060667cce2c83ebe82f906fc79b94d16a1fdf9b56ffa74ee68200a55f455157de70d0a9f740299942d7b10cb6884003f1717b89a99bf440ec717d7b12683b4d47b676c1ae379635a67c629f0eab67f6d30fd51b00143e47ba01977012a6dfe4edc40bcb285d162809b8250f99223e1087695b7fc0c917f34442b17877a037231ce7dc01faa66e553b247c92d33e5e9c907d5a9cf6c23da2b3e2efa21cd12eb291a55a877f8f682816253720039b11a556b1d4a5f04cfc88d65d6715a4306d77b187890c722740f39a3332f11c87c96d50e7946d081d592784b76bab37ae7c230958f8a857076e25225a64c53ef50bab0a90aa0e3773482049a08a53a748a306685fbd3d99f88c3c75b96087b496b1bf76ff2556f81076c3976ab3eb4a24f4b60bbbe7e4a64421354df26a6e1413294c233730b91a16bef4be4b2b2495f26c98365f3817a809f1eed0c609a70dde8c99531fa1b7393c2bed5fe0766da5503f7b047f047dc04e1064c9709702d71eb8faaed526fd51f0d4c4b2113c6973d8485de39518ab7a636834346b2068ac89fb6d67b007bcf9394af0b8b6b98a6f5ae5ae4dd4d55773271e9e99f4c9484a314472141802e8aae47718df14db4341db38899f2d606bd164ce12f77f13ec3c65bb25739e4b8bc4ce7ff5b76fb7f39aa5e58f86d351fc844d9062d9864e4e056b9da1edfeb3948c21f7db3afce3d15d3ca5bd7573c5d1c17fcbf573b52ff89a6e85683cea16793aefa8e187666b878f927ad1a2de720c4696a782c62b3160db13665a86345f46f7110f14a6914347f0dc715a1aa98bad797f0b3660494365558cf8167ec9c8310dba613badd6fd1424f04eb3b4abcbc1c839129deb18544ea58998a4642724dc233f985286e1b705fa02a9dcc8c617b5cbb1a3424870ab793ed5da1b3dd05da2b07343972cb4162cd22aae387550fa799f3d8a6c6a793e0b490d2c3ae7044d273a4daa7dc0eb406f31865a898e4875279067b9ad121331c5ba34b4ac8cc800cb332508feb92697baef319de170413e75379043bfdf8950a9c8b093dd61f1f9827887d8661a93fbbb602f02f65adb66a7195ed088d15f3b3c1cea1ea7b467c244944a64a9c470754b79746c96da037f8f7c49cdf3f351ded8a0b2cdbc9666ae1325f268372bc9c30da02c66459991a31edb1bad1f121a5cee3970c68ca8d58850f639e894a4e3ae7a68fabdf97512672e46b2f388c8392cf6320bcfed90b73ed87570b088fb0bf1288db91c902221d5c9c5fbb311f009bb9f3fe04ae2fe6e681d119beb3be9eb566af4ea85db7f51d2f1e891fd44e42f1f7507e46ecf69707e1143b370e0af54fdc5904f04743fa123e5456a6371f740a7ce03c430d3c595d84ce87c4ef5327db53ebf42bb899b2335ec127cc689d139b47f87f14269b1afd5cfef1050c04cf8929145fdeb25d1d65827d09602f9b8a64aae477f1f39331cbc013573a23e071a938bd22717135a6a97b781eb8b07e9879f607900d32f1a396d90117186a71b5799a4909310ea2612dc7aabf48b84a152cbb8d2c9312396a60f57dde3449509446abaf7a799aa5a897daefe26aa69d82a4625ee2a66657e8d13cc76c56990b5127cf066e60ede3f2b3f45ed9f350f8b6c5f0c23eae8712a5933e462773c83c5421d49d4167e42138fef31bf518255f66129b5b98e15ba2d2129c27f9ba7569c0668f5754b3125e1c1b4a4fd35e89121a6ac7445aa6866d9cacb8a207b71f98cfa0d2ca814e2f6ad0a9b90997f1bf383165e167f5739eec960ac750516087c0b13151e2b373f555c618b8da2a5b4ccf0f2f3f7010406092026292c38454a678c95a1bdcae2e5ea000d29455865969fa8afb6c6dee8f1202b3233485c62667cbac2d0f6fbfd000000000000000000001428374601",
        "0037b4682e93411fa63111aa3b20f390327cb5df7e74582a5190665fa2b3aee13007720b884f072bdf83a690f4f792ed0a401d376d9454471f22d6d9d45a93805b5591d1969d1cf8f541d42c7a0e9a4679cb6c155e8b06305e814af2a1013b71aa5505f0119ef3e53e02aec5fb06840db733a7e02e5ae2e67b84fb14088e2218670ff59ad5aea884786eed0fac52e98ccd0e9c474caf4ed69ee1ec9a648b3fcda5f26b33c0e5b19b401f05695fad6d2d475b3bf50c6005ab98bad5f5be3cba9e324d437c7c0fc70d0e627accc53b851324011ff466b59b64fcdda3019bf722aeba8d31bdbfe722cd2e8d314971c8fb6adf764fe08aff504c8e8ac766b6da74575834acbaf28b5435e032969346d88d075af31a77e425b080f674b8ff90840f0a35328e77475ebec3d22f5781f10e2fb001110890408da9617209b3e820b07d5e46b8c90826ed36a232acf21d2b95aa06fd629b302aacb6d1a40770a8a711d719514522d0b50bd803054be799450e6c2f4c28feb8ba4ed24ed42470137a7bb6b616900e8d2c8cbd247347aa2d9bb08a61b0937e677490de6919cac7a3797cff7c193527b492a42de47a18d84ac4ec903bc1bcf23895bb68527b31199f5e83f5aa3db7ffef5ca578a9ec69d42c2de462fcf2acf0ada57fe681e25fafa0a495a819a11aec899276d8490a3ae752f0fd1be04bb3c8ccdffaea82744e0e05ed0133004ca5210b3e6f579f74a8667e6fb0f086ac2d4da9d9b1f0069ba839d21b4af085d6bd29b115f34b8117d351f65b8b81fce731f2bd007f4b78b32d9059f45ce62c40565a098eef1ffa8afeb2dc3379e59d0a1583bdc1f97eed253aebc4460ea5eb6e250c9cc851b76006d11c03c70760a5367e98882eb113ee86061f18f7e924250309358d8f16bc8568401ae33c4f3889e7ba83b65495a9e2725d37ef91da7be4f46a98a7c7bae7cb8d45af3b6fac9b85669f20e9271cae67c51f54e220c56c5fa5f6627d4d1a711917d1c56ca3f9e6f54f1de03f5514017e85d6c512cbc59eed5ec998ee29001564df3dca0ea3d5c331771ccf4f99e3ac46681d95d124eded06b128a663e03921137f8fba93c9357d6062d14b5f599354f738e548818adfd576c6a4909c99413ed49dd2422acb54738dfdb28a4869c12fa575af41333180d02c7ba7b288e30f1989b7f36309966b766903a4a86c32dfaf183239dbfb106f94b34da6450a18a7ff8ffb6f8410069317a39dc4a3ad09aa8d36ee6b8cf20c1c773cb6f80e8dccb98e0c1daf3106695e0117fb5f97c9c0bb1f17e1826308ca910ed6463488a189e4b68e92149453a41ea9d2a89aa69e1702b5606e3386a8d883cecb7467c174c911410d3b9defde663d07869e6baa9d9dde52e50baef2dc5c1b546e736bab692419fe03c40fddec69b69d65b63f6aa1c4e4be2579c667e3d17e9135e8b6a68ab2da754e4374e3708d5c2407a83620f9145fc61ea427d956c706e44bad238ca557da1a5e012b564d2ff4290af34450e8433352b179c0e7b49b60d9258185f37df4584659a3b53ea7cb11f5130116dfdbdf43ad0f016ad3c3a1bb679fb03aa34a27cdf660380894a89797d817c1346c3dc0048bfdf2792bf90a64ec6f1a1f4f8d50c28476a45abef6a2214a1cfec8df89568f08b530bfac11d5f175446f464ddac965b65f6037783a6a4ca014c369bb32d920a8c4551075f13d57e28a0defa5353dfb2899b1230c9b933a51a35e8fd7f1da9574fcd1a0f88783bce4e4950bf2e6f967d8964aea0e5d8cabb24bd4b1741b83e1fbee598a1da2c9a5dc10cbb5d605dc33bc8e786fd62a5dd414631c201e1b83e2d55f89503b44a50b4055c3"
      ],
      "sequence": 4294967294
    }
  ],
  "vout": [
    {
      "value": 1.0,
      "n": 0,
      "scriptPubKey": {
        "asm": "OP_RETURN 4799cc93c2b2c8cdd9fb73d31cf1f59f22deb0e1c73cec89e9f33c6e7ba26c60 7753157dae7e3e77ede86b14bb785d3ffd86c13206fafdcca9dca7362bcf14b55773355d8e5e1e57cdc84b349b587d1fdda6e11226daddec89fc87160bef34953713553dee3e7e37ada82b54fb381d7fbdc6817246babd8ce99ce7766b8f54f51733751dce1e5e178d880b74db183d5f9de6a152669a9dacc9bcc7564baf74d5f7d395fd2efebef76d68eb943bf8ddbf7d0641b2867a7d4c295c27b6ab4f9435d7f3b5dd0ede9ed74d48cbb41bd8fd9f5d266192a65a5d6c097c07968b6fb415b793d5bd6ebefeb72d28abd47bb89dff3d4601f2c63a3d0c691c67f6eb0fd47597b3f59d4e9ede970d088bf45b98bddf1d6621d2e61a1d2c493c47d6cb2ff4557753157dae7e3e77ede86b14bb785d3ffd86c13206fafdcca9dca7362bcf14b55773355d8e5e1e57cdc84b349b587d1fdda6e11226daddec89fc87160bef34953713553dee3e7e37ada82b54fb381d7fbdc6817246babd8ce99ce7766b8f54f51733751dce1e5e178d880b74db183d5f9de6a152669a9dacc9bcc7564baf74d5f7d395fd2efebef76d68eb943bf8ddbf7d0641b2867a7d4c295c27b6ab4f9435d7f3b5dd0ede9ed74d48cbb41bd8fd9f5d266192a65a5d6c097c07968b6fb415b793d5bd6ebefeb72d28abd47bb89dff3d4601f2c63a3d0c691c67f6eb0fd47597b3f59d4e9ede970d088bf45b98bddf1d6621d2e61a1d2c493c47d6cb2ff4557753157dae7e3e77ede86b14bb785d3ffd86c13206fafdcca9dca7362bcf14b55773355d8e5e1e57cdc84b349b587d1fdda6e11226daddec89fc87160bef34953713553dee3e7e37ada82b54fb381d7fbdc6817246babd8ce99ce7766b8f54f51733751dce1e5e178d880b74db183d5f9de6a152669a9dacc9bcc7564baf74d5f7d395fd2efebef76d68eb943bf8ddbf7d0641b2867a7d4c295c27b6ab4f9435d7f3b5dd0ede9ed74d48cbb41bd8fd9f5d266192a65a5d6c097c07968b6fb415b793d5bd6ebefeb72d28abd47bb89dff3d4601f2c63a3d0c691c67f6eb0fd47597b3f59d4e9ede970d088bf45b98bddf1d6621d2e61a1d2c493c47d6cb2ff4557753157dae7e3e77ede86b14bb785d3ffd86c13206fafdcca9dca7362bcf14b55773355d8e5e1e57cdc84b349b587d1fdda6e11226daddec89fc87160bef34953713553dee3e7e37ada82b54fb381d7fbdc6817246babd8ce99ce7766b8f54f51733751dce1e5e178d880b74db183d5f9de6a152669a9dacc9bcc7564baf74d5f7d395fd2efebef76d68eb943bf8ddbf7d0641b2867a7d4c295c27b6ab4f9435d7f3b5dd0ede9ed74d48cbb41bd8fd9f5d266192a65a5d6c097c07968b6fb415b793d5bd6ebefeb72d28abd47bb89dff3d4601f2c63a3d0c691c67f6eb0fd47597b3f59d4e9ede970d088bf45b98bddf1d6621d2e61a1d2c493c47d6cb2ff4557753157dae7e3e77ede86b14bb785d3ffd86c13206fafdcca9dca7362bcf14b55773355d8e5e1e57cdc84b349b587d1fdda6e11226daddec89fc87160bef34953713553dee3e7e37ada82b54fb381d7fbdc6817246babd8ce99ce7766b8f54f51733751dce1e5e178d880b74db183d5f9de6a152669a9dacc9bcc7564baf74d5f7d395fd2efebef76d68eb943bf8ddbf694ebb9e6a01f87aeaf3139f351587e759c9e97a158dc13152dcbe5474cfef90",
        "hex": "6a204799cc93c2b2c8cdd9fb73d31cf1f59f22deb0e1c73cec89e9f33c6e7ba26c604db0047753157dae7e3e77ede86b14bb785d3ffd86c13206fafdcca9dca7362bcf14b55773355d8e5e1e57cdc84b349b587d1fdda6e11226daddec89fc87160bef34953713553dee3e7e37ada82b54fb381d7fbdc6817246babd8ce99ce7766b8f54f51733751dce1e5e178d880b74db183d5f9de6a152669a9dacc9bcc7564baf74d5f7d395fd2efebef76d68eb943bf8ddbf7d0641b2867a7d4c295c27b6ab4f9435d7f3b5dd0ede9ed74d48cbb41bd8fd9f5d266192a65a5d6c097c07968b6fb415b793d5bd6ebefeb72d28abd47bb89dff3d4601f2c63a3d0c691c67f6eb0fd47597b3f59d4e9ede970d088bf45b98bddf1d6621d2e61a1d2c493c47d6cb2ff4557753157dae7e3e77ede86b14bb785d3ffd86c13206fafdcca9dca7362bcf14b55773355d8e5e1e57cdc84b349b587d1fdda6e11226daddec89fc87160bef34953713553dee3e7e37ada82b54fb381d7fbdc6817246babd8ce99ce7766b8f54f51733751dce1e5e178d880b74db183d5f9de6a152669a9dacc9bcc7564baf74d5f7d395fd2efebef76d68eb943bf8ddbf7d0641b2867a7d4c295c27b6ab4f9435d7f3b5dd0ede9ed74d48cbb41bd8fd9f5d266192a65a5d6c097c07968b6fb415b793d5bd6ebefeb72d28abd47bb89dff3d4601f2c63a3d0c691c67f6eb0fd47597b3f59d4e9ede970d088bf45b98bddf1d6621d2e61a1d2c493c47d6cb2ff4557753157dae7e3e77ede86b14bb785d3ffd86c13206fafdcca9dca7362bcf14b55773355d8e5e1e57cdc84b349b587d1fdda6e11226daddec89fc87160bef34953713553dee3e7e37ada82b54fb381d7fbdc6817246babd8ce99ce7766b8f54f51733751dce1e5e178d880b74db183d5f9de6a152669a9dacc9bcc7564baf74d5f7d395fd2efebef76d68eb943bf8ddbf7d0641b2867a7d4c295c27b6ab4f9435d7f3b5dd0ede9ed74d48cbb41bd8fd9f5d266192a65a5d6c097c07968b6fb415b793d5bd6ebefeb72d28abd47bb89dff3d4601f2c63a3d0c691c67f6eb0fd47597b3f59d4e9ede970d088bf45b98bddf1d6621d2e61a1d2c493c47d6cb2ff4557753157dae7e3e77ede86b14bb785d3ffd86c13206fafdcca9dca7362bcf14b55773355d8e5e1e57cdc84b349b587d1fdda6e11226daddec89fc87160bef34953713553dee3e7e37ada82b54fb381d7fbdc6817246babd8ce99ce7766b8f54f51733751dce1e5e178d880b74db183d5f9de6a152669a9dacc9bcc7564baf74d5f7d395fd2efebef76d68eb943bf8ddbf7d0641b2867a7d4c295c27b6ab4f9435d7f3b5dd0ede9ed74d48cbb41bd8fd9f5d266192a65a5d6c097c07968b6fb415b793d5bd6ebefeb72d28abd47bb89dff3d4601f2c63a3d0c691c67f6eb0fd47597b3f59d4e9ede970d088bf45b98bddf1d6621d2e61a1d2c493c47d6cb2ff4557753157dae7e3e77ede86b14bb785d3ffd86c13206fafdcca9dca7362bcf14b55773355d8e5e1e57cdc84b349b587d1fdda6e11226daddec89fc87160bef34953713553dee3e7e37ada82b54fb381d7fbdc6817246babd8ce99ce7766b8f54f51733751dce1e5e178d880b74db183d5f9de6a152669a9dacc9bcc7564baf74d5f7d395fd2efebef76d68eb943bf8ddbf694ebb9e6a01f87aeaf3139f351587e759c9e97a158dc13152dcbe5474cfef90",
        "type": "nulldata"
      }
    },
    {
      "value": 499998.9831,
      "n": 1,
      "scriptPubKey": {
        "asm": "1 bdcb481d2b4765b94cc1ec3401b0830284e907444a7b37d3551f3e606ca07a8b",
        "hex": "5120bdcb481d2b4765b94cc1ec3401b0830284e907444a7b37d3551f3e606ca07a8b",
        "reqSigs": 1,
        "type": "witness_v1_scripthash",
        "addresses": [
          "3QJmnh"
        ]
      }
    }
  ],
  "blockhash": "15af9b025c636b87e0a10c18a1a8de0e5f3c2069ad563b293161176d75df89a4",
  "confirmations": 1,
  "time": 1764174659,
  "blocktime": 1764174659
}