{
  "hex": "01000000000101abb9ec3a279fc8eec4f8d1816d2b4884d175f18b0aa8c63586cc6e60192bdf050000000000feffffff02702338c0782d0000225120a2e0673d9780beaa66ce0735501749ef659e18441597c5931d912a669b10a81100e1f50500000000fdd5046a205d8d560855eca9544e02aee80b66d542efdb8d60952be286067d5e80b5423b4c4db0041905ba4851ef916d806ef52b85183fb54cdb5bff049260e979bc09cb76c12e0239259a6871cfb14da04ed50ba5381f956cfb7bdf24b240c9599c29eb56e10e225945fa0811afd12dc02eb56bc5587ff50c9b1bbf44d220a939fc498b36816e427965da28318ff10de00e954be5785fd52cbb3b9f64f2008919dc69ab16a14e6299853ac8d16f11ed00ee75ab0598bf35cc5bdb7f8412e069f93c894bf641ae82b9a51ae8f14f31cd20ce558b25b89f15ec7bfb5fa432c049d91ca96bd6618ea2d9c57a88912f51ad40ae35eb45d8ff758c1b9b3fc452a029b97cc90bb601eec2f9e55aa8b10f718d608e15cb65f8df55ac3bbb1fe4728009995ce92b9621cee21905ba4851ef916d806ef52b85183fb54cdb5bff049260e979bc09cb76c12e0239259a6871cfb14da04ed50ba5381f956cfb7bdf24b240c9599c29eb56e10e225945fa0811afd12dc02eb56bc5587ff50c9b1bbf44d220a939fc498b36816e427965da28318ff10de00e954be5785fd52cbb3b9f64f2008919dc69ab16a14e6299853ac8d16f11ed00ee75ab0598bf35cc5bdb7f8412e069f93c894bf641ae82b9a51ae8f14f31cd20ce558b25b89f15ec7bfb5fa432c049d91ca96bd6618ea2d9c57a88912f51ad40ae35eb45d8ff758c1b9b3fc452a029b97cc90bb601eec2f9e55aa8b10f718d608e15cb65f8df55ac3bbb1fe4728009995ce92b9621cee21905ba4851ef916d806ef52b85183fb54cdb5bff049260e979bc09cb76c12e0239259a6871cfb14da04ed50ba5381f956cfb7bdf24b240c9599c29eb56e10e225945fa0811afd12dc02eb56bc5587ff50c9b1bbf44d220a939fc498b36816e427965da28318ff10de00e954be5785fd52cbb3b9f64f2008919dc69ab16a14e6299853ac8d16f11ed00ee75ab0598bf35cc5bdb7f8412e069f93c894bf641ae82b9a51ae8f14f31cd20ce558b25b89f15ec7bfb5fa432c049d91ca96bd6618ea2d9c57a88912f51ad40ae35eb45d8ff758c1b9b3fc452a029b97cc90bb601eec2f9e55aa8b10f718d608e15cb65f8df55ac3bbb1fe4728009995ce92b9621cee21905ba4851ef916d806ef52b85183fb54cdb5bff049260e979bc09cb76c12e0239259a6871cfb14da04ed50ba5381f956cfb7bdf24b240c9599c29eb56e10e225945fa0811afd12dc02eb56bc5587ff50c9b1bbf44d220a939fc498b36816e427965da28318ff10de00e954be5785fd52cbb3b9f64f2008919dc69ab16a14e6299853ac8d16f11ed00ee75ab0598bf35cc5bdb7f8412e069f93c894bf641ae82b9a51ae8f14f31cd20ce558b25b89f15ec7bfb5fa432c049d91ca96bd6618ea2d9c57a88912f51ad40ae35eb45d8ff758c1b9b3fc452a029b97cc90bb601eec2f9e55aa8b10f718d608e15cb65f8df55ac3bbb1fe4728009995ce92b9621cee21905ba4851ef916d806ef52b85183fb54cdb5bff049260e979bc09cb76c12e0239259a6871cfb14da04ed50ba5381f956cfb7bdf24b240c9599c29eb56e10e225945fa0811afd12dc02eb56bc5587ff50c9b1bbf44d220a939fc498b36816e427965da28318ff10de00e954be5785fd52cbb3b9f64f2008919dc69ab16a14e6299853ac8d16f11ed00ee75ab0598bf352ff78492deb7ce99fea98a5614432b4be70e767dc23b1b09807e90aed862afda02fd7509e03c4df121357740ad9e0c4e59fa244a82bbb2d734f3058853a4595f0e58ad0266f2e36742dc83b1119dff2654e45792ef661a0e4352f8f611f6339975902d0becce7333fa2cb6f8c9e08ee2959dfd04651eb61b056ff0ccea639a074fb64e943f97ce032475c0884651b8b15a36b854332c40ef9b2dc0067104e15a7f061f8cd6e79f9166f2d4c2b1bedf271963c593ab863b26283fae51f3882b857c9f34682a4fd4e205af0d8edec66c299a48721414a9ba43cf51be93e34eec8b6bb00a0c793b7a9ba431ad3341bc625fbf764a9a68c07fa3a1a8edb32aa71abf5b00c85c8431925c10acd1717fc96bd263a353175dd71dc04a3b623a87fc61407f525b4896290db83499b8d837bfb5299934d6271023e9e3c608d70289b18392d2177c9b8dc939a69dbbaf73b2dcc44317756aa8529b7137d11521c50dff2d4163e24aec9a30d19bfe1a9fe5f61f1c44415d3abbed31cbc8d8ad7347934b8a89b37101ca5b305397737afaccd89bb0b015bf846f54ab42075fe0b8591db875caf5094b839ad7db97bb5c0b3ead1bbc1e8be5e970ec8121fa77daabf37b1f1756794363f16c70585e9f1720f723c9dcac886bab67d131ffb000dd080d27743e9a5c7a616bc2348e99e2b65bdfd53509cf8e65c6fcbe2bda3364e91b586013a7a4a761113834fc65d243072c4884f258cafcfe86a3e89d021f3035d6d5fba2a7550b3956a8c83e3ca11c3e5c190af11615afa4220618186e68ae6968ce5cbd524dbb5a8de73ad19564e3d9358de9f174dda7dcd62b330b554a30f1b95fa178f96346ba616980c8a1914d082791a43bd8e4238b5ea13308e418257c1734ccf8499b38eaa38d602d94882f765b2a13d7d50775fd69bff2d93c5e71dd3522fba7b38fdedc6a63e35013f694e29827eae9514591ac58a770ce2aab34940752d3700592ab87cef5e8839a631b962ba2026570ef886f689986a59a217bc81a18b1954d26d028a25309df6b9800932e2706b691c50048925b923d245c33fcd5f0b6c5b9ad5ab950e9f9335721f674be6622f2186d6f247dbe1e71e19edea81677c705cedd1e80296583a71a7c2e212e8a168b55601e19bf7fe7c654b3f62ffd36b9ad2934da18453127c2890ab7163130f6e55e7e81325361aa5109e3d0c299dd591a142e8bf66d650abaa7936eed2ce9cbcf167ffb7e2f8838198df2fd1b9cfdee0de54b54882a6831dad2847107893e5587fdb137efa2a511779e571402abd468280e4513e280814021c5580e6c2be9e3e9d15c81c6f866fcf4b13f3a8354f489d20c3dc688c2a359c5f72c2042a482648788346f67da2cac931b87f49686a2d64fac5588688e2922341ca9e2b52dd0333c2e21dd2dd4c52928605ff02ad430b507772d6112cc78d84406d1a7e0ac897cd601e62fb7197eb00934f52cc48a5f85413c6a6390cc7be5d8163b39bff600b227c85a999683066b2941d9ded368e77bec286b6e8815cb6a587ffa671849de55effcb429933b797cb5ac95a16739bb0763bfb4419d83e8aed86b52e49f652971ade5a6f57ea6cdbad89ed808463c9201fd13ec98a9c0c008d17d2a52d4229b16d98d70e9d012b8c8fb60345717e7ce9fce83975b151a8ea6fe7869b34c5646c74b03ddc26e9ff782a7c03d360a80f5ad2cfb488d95b48de62419414ac58d20da031d0c25783f2ae934f99d5193c492ebd311fc209a1cfa1339b54a083a4b3f45333cf3d5bcf62f1bb8256e2afa4008f42f7321bb459d3b61c854dad0aea657ceab479b68f05270ca7009e3aaee7ed422f52c1d5332c75cecaa4feb23627c0f5338e7d993e2c3f7046f2e20527c527733e1588be0bb440c6beebc5fe882b4679a06a3758ea9e676801ee052b4cc62b50ca9fab1d868cb4cdc78420f502e7dbc38bc726542845aae355a20dcaaa30fa992d2e47e3603c091536eb32ba48fef658fb7eac5b3137b67654c89bafd144fcfbcdc0d7718bf8da5d0c34af0cf5ff5a302ded4d459f3716f6f0e5b5ca18acdc63af1056ae2376c0f0cc324376f382ef43318a428ca7ea2e62c44e81e5e9b065c87bbe79385076a82f51b1f0670b0daf73a9f07d28ff87da9fb171a495c211ca201e601ef1791dfa72128a88b3dd33afcd5f58a95160a55975a6c33847d1a1cd23d5c38d7671bde06cea4c4bea697ba1ecab7bce637f504a550e24adb3295ac958fd299594b0203a5bba57e65a6849991da179f25f7dd714068f1c29c8b5806e611a3b9d55150abecc53d518ec6120bd4fd24f3741331bbffe23d2de7853b23f40b31a576c8bc2a6947f84bd9c475898d2faf8fbd1ae321adc07e4ed21b314ff4e3a00ce2acf62a70484a437e61411a78fd0fdf39f0b14465c9411c058af92a52bec5e44870b5261a2c079757f10397feaecd2e3c5deb3278dc046aad3c7d3ba5314add8020fb350874d2832ddc4d2633ed1e8c79f3241d23b52a053ee3686b97fc6d3bb00b1d159813eb8d9bd8beb89db997af9e74de776f97143d82343f69d46d35c1fc2b34456a7bbca6ad2bbf24c4df19e275b4db69e341c3a40f17f0193458d268f845f46fd5164067ed37b19144e4372bc39da157227d7e4cd5be8d2cf9522b43551561bc34154a7de7ec67e752774a8a00feb0f242532bd7cbcd82dcbb760bb19633848354ac922e1b3fe89740c2e641d097aa2a0b4f334c5ffffcb6a2c0bcd9dfcafabec2c60b4aad526e9cc2fc6917353ac9ee8c4f8ef04f7221c697426a3dbbfc67e6f5f6506501295f424b8d23c8e442c5d8b5c4ade5b9c557fad64b173ca0c1d6c277460ada2a5356aa4766e5d23a6828eb9a5ddd2e72572c194274b7aec760cb9843aade346454d52f174b8122ef5851689fb506a2a5bfefb15da4fed7d57370bb3d184f315387b91fc03181894cf9adf17cec9e893ceb3ea619a83fb3fbde71fceca2fa2ddba26dc54d87318a99545ef1e3a9f91d5da12c0e40b9c1681621f5e106d3310d3761ff11c61d0f6d5f9447e98be4ef59157f02020e81c29bbd1dbbfc2db6359c10157f860ebde41d6d70e0a520feb13b8188d61c76528914356e8e8b83a435d57f8299fb6798cbaf3b9955d0bd5d8e098b1c55e29c5ca0517418b20a1f0858fb58e50f10b7dfca54837470a8919a6e8053f25a70647186d36f756c00615d405103c326c638e474184926e818029b0b2456efbe2573cdf214c80acb46fc2504c9d937eb68f8b2bca761272d3547f501b239dd56a35d777b711be1592c5c36e80f246d2207cef153ccfdc727a46821858a61c7f3819f82da8f3bb3aba064094c595b84b8c4c8dbf0f8030609252f4160656d757c87d1dde4f3f6f8fe0406090c10455a6365707e9193a5aad70c11263435434c52686b75787b80a5b1c4c7d0d700000000000000000000000000000b1e2e4201fd210500d1019bad83dbc8dd0aa840a947b71c0521ce8639c235d29926446da833d1c2a3710ffe773c3c2ca7e79acb4b5d7889279a1500b252e4f4a3f78e6ea990c5069954078dcfca3188992a54d46f365ac3b8e964a24b16c2c7c1e001309d96f0b18229b64c6435a45c46c87c59ea7bad6591c1a66633491b80e158b5da92dc9d132cf0a1e1b8c8f575f0de40fc84f0be8143706aea3320bf6ad7013a7b94476bfae67629b0d3244e4b7c69791ca381dc3afd5d271d8873c28e650c995eaedcd49ac6de44fbcb88c363ffa349dc350bbe4d6bc976249eb2235396b31b365e771f29cafe908ee6951fbee9f2df9ec6f08bfea84c4347fe9eb328da941b602f59616a9a9a9d946e54fdf255b65b6f550fa0a9770542627ba858813f703079811fd2276b2ae0b7c703b2ad580ac7065bac54b904f8a3cc050ec77bf11725c3cc3d112f9f859c95d76e7175f37655a8cd81a6c7db2fa4c07205e63d2c46202cda2b6c2d4d76c9585ff05993deff24560727f071fd27e2a075b5cabcbb8d2b59ddd0ed9cf02665c05462537df8b6cb833c1f6bb55b766caf398f71c73280b474a915eb3f93e1a605b7134dfb9e244b45d4b1baf9885eb7fe68158a5be26d3d3dd2f12ed2c818c0a1267a1bda794e6ef7f0a7f04f1f211d8f5958479976fa56497e98d3ab996f4fff2c60e7b8fc5e6bbf234eccba1c8d6f06fb159190063ccc84064d1bab22550ba078d5b10fa3e018545ef63059ca1a7d8dbf3c00e4f89167a05275090c8727322d6bc577bd16569244a92eacb8e6d5046ce7928ffe42858b3caad042e59cd0db44597ee6fddf441847fc32efbc4b6989a1f5429b90ab2f52429977ed7ec4494072b8d992b31d77f4229dc90ff25c1e63f13f86a0c9f2d158f11acbc900ca0d0436d386e844fd15fd6839990b625d2095f0e6b67d842680ce50cda711d1b4639fc4d4f83b9edebe54dcd004d73f6f29e0277218cfc5cb5bccf54cb49e0e9f3dde2413644cf8e401ebe2c3748974bb4d26825425bdadc15659b367b20496f656ac83a4e1535af871d66a3ffede973a7c3510b0af385e61311cf69609f0ab0969d23d0b574a6f0e2ecfd2318d9593f9a7f8b50a7c3e5ca28823f8fb636ff38f1b498a40351f71f8ee6e4c737ad61ca261aaf017b697fa30e6b758af65ba3aabc722c33831e4b5c3a17f750a153fb1ae8c6b1ec9d3e866aa6938017b31358bc353971426b9a2c2fac4877ad4af6d1d0b440a240d6f049a14dcc19ba6042cbe10af66268435a6789adfbdc7e41d4e3507800e60b42259840745aaa7e9f1d7881fca76c087f38c59b337d4802039092b2f67ec5eeb4fe8e2fd43e640d152748a3e2db32d23b1b0341c4b877dc5f9befd76ec4c76b2f472d9ba79a4b5650eb557e066206debca437ab45bf5863bf3af21d937f55bea59fa2e7ab785bf525105d5b1e00fba1ebe1a363eeb721a478f6ec4c08271813470139a95ad8da0d6bb85ccbdb7e782a8ce3b52da257499149e22ddbe56df12e0a43187826e550de44b41cedb998168211de76c11c7d765c43ecc5cd0234ce7cfd105b9de45921b6f3c40ad5a5bd2d60345c8d5fe8f25755ee49399f5a14bede9f8ca4d4057084b676158a61f849aade651a83127135510318bd006f1963a660af0640a711deae38363c0bc9a7cafce14fa713e817824204c0a5380b3c553ca17c6d17501b8c61d738371dd60ef8d21b7c41a6f65e543dbb9a0040ce1c169792e47f05db84a2fb28c878e600444b85b077ab923ccb8e7a9a930af31c67c6fe6e61600793c68a843c55160856550265fa7262635b4ce6a5b5857a1544e9982171adf6d98788f8ca673d69ccc1583000000",
  "txid": "c4a9891a6983caf99ec2eb37dff2600bb726dd66c267140122f29b9115c32fdb",
  "hash": "c99124bf941ec66c5e5b7ee5f223b0d80ecdca98307201727ffad4f2f9fe680f",
  "size": 5085,
  "vsize": 2278,
  "version": 1,
  "locktime": 131,
  "vin": [
    {
      "txid": "05df2b19606ecc8635c6a80a8bf175d184482b6d81d1f8c4eec89f273aecb9ab",
      "vout": 0,
      "scriptSig": {
        "asm": "",
        "hex": ""
      },
      "txinwitness": [
        "e03c4df121357740ad9e0c4e59fa244a82bbb2d734f3058853a4595f0e58ad0266f2e36742dc83b1119dff2654e45792ef661a0e4352f8f611f6339975902d0becce7333fa2cb6f8c9e08ee2959dfd04651eb61b056ff0ccea639a074fb64e943f97ce032475c0884651b8b15a36b854332c40ef9b2dc0067104e15a7f061f8cd6e79f9166f2d4c2b1bedf271963c593ab863b26283fae51f3882b857c9f34682a4fd4e205af0d8edec66c299a48721414a9ba43cf51be93e34eec8b6bb00a0c793b7a9ba431ad3341bc625fbf764a9a68c07fa3a1a8edb32aa71abf5b00c85c8431925c10acd1717fc96bd263a353175dd71dc04a3b623a87fc61407f525b4896290db83499b8d837bfb5299934d6271023e9e3c608d70289b18392d2177c9b8dc939a69dbbaf73b2dcc44317756aa8529b7137d11521c50dff2d4163e24aec9a30d19bfe1a9fe5f61f1c44415d3abbed31cbc8d8ad7347934b8a89b37101ca5b305397737afaccd89bb0b015bf846f54ab42075fe0b8591db875caf5094b839ad7db97bb5c0b3ead1bbc1e8be5e970ec8121fa77daabf37b1f1756794363f16c70585e9f1720f723c9dcac886bab67d131ffb000dd080d27743e9a5c7a616bc2348e99e2b65bdfd53509cf8e65c6fcbe2bda3364e91b586013a7a4a761113834fc65d243072c4884f258cafcfe86a3e89d021f3035d6d5fba2a7550b3956a8c83e3ca11c3e5c190af11615afa4220618186e68ae6968ce5cbd524dbb5a8de73ad19564e3d9358de9f174dda7dcd62b330b554a30f1b95fa178f96346ba616980c8a1914d082791a43bd8e4238b5ea13308e418257c1734ccf8499b38eaa38d602d94882f765b2a13d7d50775fd69bff2d93c5e71dd3522fba7b38fdedc6a63e35013f694e29827eae9514591ac58a770ce2aab34940752d3700592ab87cef5e8839a631b962ba2026570ef886f689986a59a217bc81a18b1954d26d028a25309df6b9800932e2706b691c50048925b923d245c33fcd5f0b6c5b9ad5ab950e9f9335721f674be6622f2186d6f247dbe1e71e19edea81677c705cedd1e80296583a71a7c2e212e8a168b55601e19bf7fe7c654b3f62ffd36b9ad2934da18453127c2890ab7163130f6e55e7e81325361aa5109e3d0c299dd591a142e8bf66d650abaa7936eed2ce9cbcf167ffb7e2f8838198df2fd1b9cfdee0de54b54882a6831dad2847107893e5587fdb137efa2a511779e571402abd468280e4513e280814021c5580e6c2be9e3e9d15c81c6f866fcf4b13f3a8354f489d20c3dc688c2a359c5f72c2042a482648788346f67da2cac931b87f49686a2d64fac5588688e2922341ca9e2b52dd0333c2e21dd2dd4c52928605ff02ad430b507772d6112cc78d84406d1a7e0ac897cd601e62fb7197eb00934f52cc48a5f85413c6a6390cc7be5d8163b39bff600b227c85a999683066b2941d9ded368e77bec286b6e8815cb6a587ffa671849de55effcb429933b797cb5ac95a16739bb0763bfb4419d83e8aed86b52e49f652971ade5a6f57ea6cdbad89ed808463c9201fd13ec98a9c0c008d17d2a52d4229b16d98d70e9d012b8c8fb60345717e7ce9fce83975b151a8ea6fe7869b34c5646c74b03ddc26e9ff782a7c03d360a80f5ad2cfb488d95b48de62419414ac58d20da031d0c25783f2ae934f99d5193c492ebd311fc209a1cfa1339b54a083a4b3f45333cf3d5bcf62f1bb8256e2afa4008f42f7321bb459d3b61c854dad0aea657ceab479b68f05270ca7009e3aaee7ed422f52c1d5332c75cecaa4feb23627c0f5338e7d993e2c3f7046f2e20527c527733e1588be0bb440c6beebc5fe882b4679a06a3758ea9e676801ee052b4cc62b50ca9fab1d868cb4cdc78420f502e7dbc38bc726542845aae355a20dcaaa30fa992d2e47e3603c091536eb32ba48fef658fb7eac5b3137b67654c89bafd144fcfbcdc0d7718bf8da5d0c34af0cf5ff5a302ded4d459f3716f6f0e5b5ca18acdc63af1056ae2376c0f0cc324376f382ef43318a428ca7ea2e62c44e81e5e9b065c87bbe79385076a82f51b1f0670b0daf73a9f07d28ff87da9fb171a495c211ca201e601ef1791dfa72128a88b3dd33afcd5f58a95160a55975a6c33847d1a1cd23d5c38d7671bde06cea4c4bea697ba1ecab7bce637f504a550e24adb3295ac958fd299594b0203a5bba57e65a6849991da179f25f7dd714068f1c29c8b5806e611a3b9d55150abecc53d518ec6120bd4fd24f3741331bbffe23d2de7853b23f40b31a576c8bc2a6947f84bd9c475898d2faf8fbd1ae321adc07e4ed21b314ff4e3a00ce2acf62a70484a437e61411a78fd0fdf39f0b14465c9411c058af92a52bec5e44870b5261a2c079757f10397feaecd2e3c5deb3278dc046aad3c7d3ba5314add8020fb350874d2832ddc4d2633ed1e8c79f3241d23b52a053ee3686b97fc6d3bb00b1d159813eb8d9bd8beb89db997af9e74de776f97143d82343f69d46d35c1fc2b34456a7bbca6ad2bbf24c4df19e275b4db69e341c3a40f17f0193458d268f845f46fd5164067ed37b19144e4372bc39da157227d7e4cd5be8d2cf9522b43551561bc34154a7de7ec67e752774a8a00feb0f242532bd7cbcd82dcbb760bb19633848354ac922e1b3fe89740c2e641d097aa2a0b4f334c5ffffcb6a2c0bcd9dfcafabec2c60b4aad526e9cc2fc6917353ac9ee8c4f8ef04f7221c697426a3dbbfc67e6f5f6506501295f424b8d23c8e442c5d8b5c4ade5b9c557fad64b173ca0c1d6c277460ada2a5356aa4766e5d23a6828eb9a5ddd2e72572c194274b7aec760cb9843aade346454d52f174b8122ef5851689fb506a2a5bfefb15da4fed7d57370bb3d184f315387b91fc03181894cf9adf17cec9e893ceb3ea619a83fb3fbde71fceca2fa2ddba26dc54d87318a99545ef1e3a9f91d5da12c0e40b9c1681621f5e106d3310d3761ff11c61d0f6d5f9447e98be4ef59157f02020e81c29bbd1dbbfc2db6359c10157f860ebde41d6d70e0a520feb13b8188d61c76528914356e8e8b83a435d57f8299fb6798cbaf3b9955d0bd5d8e098b1c55e29c5ca0517418b20a1f0858fb58e50f10b7dfca54837470a8919a6e8053f25a70647186d36f756c00615d405103c326c638e474184926e818029b0b2456efbe2573cdf214c80acb46fc2504c9d937eb68f8b2bca761272d3547f501b239dd56a35d777b711be1592c5c36e80f246d2207cef153ccfdc727a46821858a61c7f3819f82da8f3bb3aba064094c595b84b8c4c8dbf0f8030609252f4160656d757c87d1dde4f3f6f8fe0406090c10455a6365707e9193a5aad70c11263435434c52686b75787b80a5b1c4c7d0d700000000000000000000000000000b1e2e4201",
        "00d1019bad83dbc8dd0aa840a947b71c0521ce8639c235d29926446da833d1c2a3710ffe773c3c2ca7e79acb4b5d7889279a1500b252e4f4a3f78e6ea990c5069954078dcfca3188992a54d46f365ac3b8e964a24b16c2c7c1e001309d96f0b18229b64c6435a45c46c87c59ea7bad6591c1a66633491b80e158b5da92dc9d132cf0a1e1b8c8f575f0de40fc84f0be8143706aea3320bf6ad7013a7b94476bfae67629b0d3244e4b7c69791ca381dc3afd5d271d8873c28e650c995eaedcd49ac6de44fbcb88c363ffa349dc350bbe4d6bc976249eb2235396b31b365e771f29cafe908ee6951fbee9f2df9ec6f08bfea84c4347fe9eb328da941b602f59616a9a9a9d946e54fdf255b65b6f550fa0a9770542627ba858813f703079811fd2276b2ae0b7c703b2ad580ac7065bac54b904f8a3cc050ec77bf11725c3cc3d112f9f859c95d76e7175f37655a8cd81a6c7db2fa4c07205e63d2c46202cda2b6c2d4d76c9585ff05993deff24560727f071fd27e2a075b5cabcbb8d2b59ddd0ed9cf02665c05462537df8b6cb833c1f6bb55b766caf398f71c73280b474a915eb3f93e1a605b7134dfb9e244b45d4b1baf9885eb7fe68158a5be26d3d3dd2f12ed2c818c0a1267a1bda794e6ef7f0a7f04f1f211d8f5958479976fa56497e98d3ab996f4fff2c60e7b8fc5e6bbf234eccba1c8d6f06fb159190063ccc84064d1bab22550ba078d5b10fa3e018545ef63059ca1a7d8dbf3c00e4f89167a05275090c8727322d6bc577bd16569244a92eacb8e6d5046ce7928ffe42858b3caad042e59cd0db44597ee6fddf441847fc32efbc4b6989a1f5429b90ab2f52429977ed7ec4494072b8d992b31d77f4229dc90ff25c1e63f13f86a0c9f2d158f11acbc900ca0d0436d386e844fd15fd6839990b625d2095f0e6b67d842680ce50cda711d1b4639fc4d4f83b9edebe54dcd004d73f6f29e0277218cfc5cb5bccf54cb49e0e9f3dde2413644cf8e401ebe2c3748974bb4d26825425bdadc15659b367b20496f656ac83a4e1535af871d66a3ffede973a7c3510b0af385e61311cf69609f0ab0969d23d0b574a6f0e2ecfd2318d9593f9a7f8b50a7c3e5ca28823f8fb636ff38f1b498a40351f71f8ee6e4c737ad61ca261aaf017b697fa30e6b758af65ba3aabc722c33831e4b5c3a17f750a153fb1ae8c6b1ec9d3e866aa6938017b31358bc353971426b9a2c2fac4877ad4af6d1d0b440a240d6f049a14dcc19ba6042cbe10af66268435a6789adfbdc7e41d4e3507800e60b42259840745aaa7e9f1d7881fca76c087f38c59b337d4802039092b2f67ec5eeb4fe8e2fd43e640d152748a3e2db32d23b1b0341c4b877dc5f9befd76ec4c76b2f472d9ba79a4b5650eb557e066206debca437ab45bf5863bf3af21d937f55bea59fa2e7ab785bf525105d5b1e00fba1ebe1a363eeb721a478f6ec4c08271813470139a95ad8da0d6bb85ccbdb7e782a8ce3b52da257499149e22ddbe56df12e0a43187826e550de44b41cedb998168211de76c11c7d765c43ecc5cd0234ce7cfd105b9de45921b6f3c40ad5a5bd2d60345c8d5fe8f25755ee49399f5a14bede9f8ca4d4057084b676158a61f849aade651a83127135510318bd006f1963a660af0640a711deae38363c0bc9a7cafce14fa713e817824204c0a5380b3c553ca17c6d17501b8c61d738371dd60ef8d21b7c41a6f65e543dbb9a0040ce1c169792e47f05db84a2fb28c878e600444b85b077ab923ccb8e7a9a930af31c67c6fe6e61600793c68a843c55160856550265fa7262635b4ce6a5b5857a1544e9982171adf6d98788f8ca673d69ccc15"
      ],
      "sequence": 4294967294
    }
  ],
  "vout": [
    {
      "value": 499966.4423,
      "n": 0,
      "scriptPubKey": {
        "asm": "1 a2e0673d9780beaa66ce0735501749ef659e18441597c5931d912a669b10a811",
        "hex": "5120a2e0673d9780beaa66ce0735501749ef659e18441597c5931d912a669b10a811",
        "reqSigs": 1,
        "type": "witness_v1_scripthash",
        "addresses": [
          "3QJmnh"
        ]
      }
    },
    {
      "value": 1.0,
      "n": 1,
      "scriptPubKey": {
        "asm": "OP_RETURN 5d8d560855eca9544e02aee80b66d542efdb8d60952be286067d5e80b5423b4c 1905ba4851ef916d806ef52b85183fb54cdb5bff049260e979bc09cb76c12e0239259a6871cfb14da04ed50ba5381f956cfb7bdf24b240c9599c29eb56e10e225945fa0811afd12dc02eb56bc5587ff50c9b1bbf44d220a939fc498b36816e427965da28318ff10de00e954be5785fd52cbb3b9f64f2008919dc69ab16a14e6299853ac8d16f11ed00ee75ab0598bf35cc5bdb7f8412e069f93c894bf641ae82b9a51ae8f14f31cd20ce558b25b89f15ec7bfb5fa432c049d91ca96bd6618ea2d9c57a88912f51ad40ae35eb45d8ff758c1b9b3fc452a029b97cc90bb601eec2f9e55aa8b10f718d608e15cb65f8df55ac3bbb1fe4728009995ce92b9621cee21905ba4851ef916d806ef52b85183fb54cdb5bff049260e979bc09cb76c12e0239259a6871cfb14da04ed50ba5381f956cfb7bdf24b240c9599c29eb56e10e225945fa0811afd12dc02eb56bc5587ff50c9b1bbf44d220a939fc498b36816e427965da28318ff10de00e954be5785fd52cbb3b9f64f2008919dc69ab16a14e6299853ac8d16f11ed00ee75ab0598bf35cc5bdb7f8412e069f93c894bf641ae82b9a51ae8f14f31cd20ce558b25b89f15ec7bfb5fa432c049d91ca96bd6618ea2d9c57a88912f51ad40ae35eb45d8ff758c1b9b3fc452a029b97cc90bb601eec2f9e55aa8b10f718d608e15cb65f8df55ac3bbb1fe4728009995ce92b9621cee21905ba4851ef916d806ef52b85183fb54cdb5bff049260e979bc09cb76c12e0239259a6871cfb14da04ed50ba5381f956cfb7bdf24b240c9599c29eb56e10e225945fa0811afd12dc02eb56bc5587ff50c9b1bbf44d220a939fc498b36816e427965da28318ff10de00e954be5785fd52cbb3b9f64f2008919dc69ab16a14e6299853ac8d16f11ed00ee75ab0598bf35cc5bdb7f8412e069f93c894bf641ae82b9a51ae8f14f31cd20ce558b25b89f15ec7bfb5fa432c049d91ca96bd6618ea2d9c57a88912f51ad40ae35eb45d8ff758c1b9b3fc452a029b97cc90bb601eec2f9e55aa8b10f718d608e15cb65f8df55ac3bbb1fe4728009995ce92b9621cee21905ba4851ef916d806ef52b85183fb54cdb5bff049260e979bc09cb76c12e0239259a6871cfb14da04ed50ba5381f956cfb7bdf24b240c9599c29eb56e10e225945fa0811afd12dc02eb56bc5587ff50c9b1bbf44d220a939fc498b36816e427965da28318ff10de00e954be5785fd52cbb3b9f64f2008919dc69ab16a14e6299853ac8d16f11ed00ee75ab0598bf35cc5bdb7f8412e069f93c894bf641ae82b9a51ae8f14f31cd20ce558b25b89f15ec7bfb5fa432c049d91ca96bd6618ea2d9c57a88912f51ad40ae35eb45d8ff758c1b9b3fc452a029b97cc90bb601eec2f9e55aa8b10f718d608e15cb65f8df55ac3bbb1fe4728009995ce92b9621cee21905ba4851ef916d806ef52b85183fb54cdb5bff049260e979bc09cb76c12e0239259a6871cfb14da04ed50ba5381f956cfb7bdf24b240c9599c29eb56e10e225945fa0811afd12dc02eb56bc5587ff50c9b1bbf44d220a939fc498b36816e427965da28318ff10de00e954be5785fd52cbb3b9f64f2008919dc69ab16a14e6299853ac8d16f11ed00ee75ab0598bf352ff78492deb7ce99fea98a5614432b4be70e767dc23b1b09807e90aed862afda",
        "hex": "6a205d8d560855eca9544e02aee80b66d542efdb8d60952be286067d5e80b5423b4c4db0041905ba4851ef916d806ef52b85183fb54cdb5bff049260e979bc09cb76c12e0239259a6871cfb14da04ed50ba5381f956cfb7bdf24b240c9599c29eb56e10e225945fa0811afd12dc02eb56bc5587ff50c9b1bbf44d220a939fc498b36816e427965da28318ff10de00e954be5785fd52cbb3b9f64f2008919dc69ab16a14e6299853ac8d16f11ed00ee75ab0598bf35cc5bdb7f8412e069f93c894bf641ae82b9a51ae8f14f31cd20ce558b25b89f15ec7bfb5fa432c049d91ca96bd6618ea2d9c57a88912f51ad40ae35eb45d8ff758c1b9b3fc452a029b97cc90bb601eec2f9e55aa8b10f718d608e15cb65f8df55ac3bbb1fe4728009995ce92b9621cee21905ba4851ef916d806ef52b85183fb54cdb5bff049260e979bc09cb76c12e0239259a6871cfb14da04ed50ba5381f956cfb7bdf24b240c9599c29eb56e10e225945fa0811afd12dc02eb56bc5587ff50c9b1bbf44d220a939fc498b36816e427965da28318ff10de00e954be5785fd52cbb3b9f64f2008919dc69ab16a14e6299853ac8d16f11ed00ee75ab0598bf35cc5bdb7f8412e069f93c894bf641ae82b9a51ae8f14f31cd20ce558b25b89f15ec7bfb5fa432c049d91ca96bd6618ea2d9c57a88912f51ad40ae35eb45d8ff758c1b9b3fc452a029b97cc90bb601eec2f9e55aa8b10f718d608e15cb65f8df55ac3bbb1fe4728009995ce92b9621cee21905ba4851ef916d806ef52b85183fb54cdb5bff049260e979bc09cb76c12e0239259a6871cfb14da04ed50ba5381f956cfb7bdf24b240c9599c29eb56e10e225945fa0811afd12dc02eb56bc5587ff50c9b1bbf44d220a939fc498b36816e427965da28318ff10de00e954be5785fd52cbb3b9f64f2008919dc69ab16a14e6299853ac8d16f11ed00ee75ab0598bf35cc5bdb7f8412e069f93c894bf641ae82b9a51ae8f14f31cd20ce558b25b89f15ec7bfb5fa432c049d91ca96bd6618ea2d9c57a88912f51ad40ae35eb45d8ff758c1b9b3fc452a029b97cc90bb601eec2f9e55aa8b10f718d608e15cb65f8df55ac3bbb1fe4728009995ce92b9621cee21905ba4851ef916d806ef52b85183fb54cdb5bff049260e979bc09cb76c12e0239259a6871cfb14da04ed50ba5381f956cfb7bdf24b240c9599c29eb56e10e225945fa0811afd12dc02eb56bc5587ff50c9b1bbf44d220a939fc498b36816e427965da28318ff10de00e954be5785fd52cbb3b9f64f2008919dc69ab16a14e6299853ac8d16f11ed00ee75ab0598bf35cc5bdb7f8412e069f93c894bf641ae82b9a51ae8f14f31cd20ce558b25b89f15ec7bfb5fa432c049d91ca96bd6618ea2d9c57a88912f51ad40ae35eb45d8ff758c1b9b3fc452a029b97cc90bb601eec2f9e55aa8b10f718d608e15cb65f8df55ac3bbb1fe4728009995ce92b9621cee21905ba4851ef916d806ef52b85183fb54cdb5bff049260e979bc09cb76c12e0239259a6871cfb14da04ed50ba5381f956cfb7bdf24b240c9599c29eb56e10e225945fa0811afd12dc02eb56bc5587ff50c9b1bbf44d220a939fc498b36816e427965da28318ff10de00e954be5785fd52cbb3b9f64f2008919dc69ab16a14e6299853ac8d16f11ed00ee75ab0598bf352ff78492deb7ce99fea98a5614432b4be70e767dc23b1b09807e90aed862afda",
        "type": "nulldata"
      }
    }
  ],
  "blockhash": "3357cb4dc001b5acbac31fcce3a77df76b11eaba9a4d126a2528d529fe11213e",
  "confirmations": 1,
  "time": 1764182290,
  "blocktime": 1764182290
}