{
  "hex": "01000000000101e314ae99c86d5643fa724ca09f38d2d7e45a7dec37a503761baf3057b007a7e30000000000feffffff0200e1f50500000000fdd5046a20da95cf853f480d0bc23134ea96359965cfefc281e5a0d5358ec5909c4f117c5d4db0044c150583f7cdf4d7c02bccac12faf3b1cec38fecf2b5001bcf47c78d72aedf496c3525a3d7edd4f7e00bec8c32dad391eee3afccd295203bef67e7ad528eff690c5545c3b78db497806b8cec52bab3f18e83cfacb2f5405b8f0787cd32ee9f092c7565e397ad94b7a04baccc729a93d1aea3ef8c92d5607baf27a7ed12cebf29cc958503774d745740ab4c2c927a73314e430f6c7235809b4fc7470df22e5fc9ecb5a523576d5477608b6c0cb25a53116e632f4c5215a0bb6fe7672dd20e7fe98cd5c543370d341700eb0c6cd23a33710e034f2c3275c0db0f87074db26e1f89acf5e563172d143720cb2c4cf21a13512e236f0c1255e0fb2fa7276d924e3fa94c150583f7cdf4d7c02bccac12faf3b1cec38fecf2b5001bcf47c78d72aedf496c3525a3d7edd4f7e00bec8c32dad391eee3afccd295203bef67e7ad528eff690c5545c3b78db497806b8cec52bab3f18e83cfacb2f5405b8f0787cd32ee9f092c7565e397ad94b7a04baccc729a93d1aea3ef8c92d5607baf27a7ed12cebf29cc958503774d745740ab4c2c927a73314e430f6c7235809b4fc7470df22e5fc9ecb5a523576d5477608b6c0cb25a53116e632f4c5215a0bb6fe7672dd20e7fe98cd5c543370d341700eb0c6cd23a33710e034f2c3275c0db0f87074db26e1f89acf5e563172d143720cb2c4cf21a13512e236f0c1255e0fb2fa7276d924e3fa94c150583f7cdf4d7c02bccac12faf3b1cec38fecf2b5001bcf47c78d72aedf496c3525a3d7edd4f7e00bec8c32dad391eee3afccd295203bef67e7ad528eff690c5545c3b78db497806b8cec52bab3f18e83cfacb2f5405b8f0787cd32ee9f092c7565e397ad94b7a04baccc729a93d1aea3ef8c92d5607baf27a7ed12cebf29cc958503774d745740ab4c2c927a73314e430f6c7235809b4fc7470df22e5fc9ecb5a523576d5477608b6c0cb25a53116e632f4c5215a0bb6fe7672dd20e7fe98cd5c543370d341700eb0c6cd23a33710e034f2c3275c0db0f87074db26e1f89acf5e563172d143720cb2c4cf21a13512e236f0c1255e0fb2fa7276d924e3fa94c150583f7cdf4d7c02bccac12faf3b1cec38fecf2b5001bcf47c78d72aedf496c3525a3d7edd4f7e00bec8c32dad391eee3afccd295203bef67e7ad528eff690c5545c3b78db497806b8cec52bab3f18e83cfacb2f5405b8f0787cd32ee9f092c7565e397ad94b7a04baccc729a93d1aea3ef8c92d5607baf27a7ed12cebf29cc958503774d745740ab4c2c927a73314e430f6c7235809b4fc7470df22e5fc9ecb5a523576d5477608b6c0cb25a53116e632f4c5215a0bb6fe7672dd20e7fe98cd5c543370d341700eb0c6cd23a33710e034f2c3275c0db0f87074db26e1f89acf5e563172d143720cb2c4cf21a13512e236f0c1255e0fb2fa7276d924e3fa94c150583f7cdf4d7c02bccac12faf3b1cec38fecf2b5001bcf47c78d72aedf496c3525a3d7edd4f7e00bec8c32dad391eee3afccd295203bef67e7ad528eff690c5545c3b78db497806b8cec52bab3f18e83cfacb2f5405b8f0787cd32ee9f092c7565e397ad94b7a04baccc729a93d1aea3ef8c92d5607baf27a7ed12cebf29cc958503774d745740ab4c2c927a7331a2808c198ca08c4f8718c7a4c1ca30e6a5144e6601bd31b6caec305b0c737cb720cc6133792d0000225120cc69337b62e35a793968f3003632130567c2b6523c9aa1f15354a40a6431fec302fd7509e24b6cb7a4d7c4b044c05dbacde6beb914f5251ecd888f68f20d0e54617e704d0d6a3f39b969813ea66fad10d52b531c3f30a0b0c9b5e72c99c720952e7607df8bdd1fc9c12d0e3341f2266180cc1f5c497fb2444250d646fc04d497fa8805f894f88a97f7c4330aa8f145dfd665d7faf741a90f67f6d278ccf35851ad09a49073cf1d8c5f83e22105f477592f6e91cb7142f204fda8912a76be004f68db3972513347d3e3ee4a8937c1e45585afaa732ed31d7b7368606d93da2703eb27f13334a4cbb869161cd1806927d9cf85e8a680d4e7702a74187f5f93ec6b5c26b1231444818845deecf0a5aebabd1fdee317410fb78530fada2320945c80e318711de456ac4b2e06aaee2346f8dbceedbecbe946011b0341aebb569245ea38bf337aa8b43fe0d14c935dd87e9892114835c20e68cca66a56d45b6110e81ef5471f13ff026e5d7f2bb136a05bada59f44493767ca8fcf14078dd994d0576e98d73cc28d2e972c82a9b879f600547171c91775ecaf594d87916836f08814f834ead0bcb0c3b155bbe6520cc1059a8b827ef4776b506d187c047aba9a99daadb9ee590b95085c63a7a8d9eb5f548145e03133897b89bcf9b96cf29af44278f2a458b4a7ec9c9b542d8cb132432271d6691cdbea8d348e994d3679ad1c3924e437bfe8bce91ed6b0419c0f99e6e4891510019827146ff9b47faeeaa4ed38ff8fa12fabbbf7de9afdef6748f028aa111bb22cb639d88de8d473e765b7b760aac9e77016f89c1c7cc840ef9a6f88e7db12235cd60688011a5f492fcd21f80a387948bf912f9bbfcc4fe146d6f96880060722aa70530d86be8f6251de12dc0c225d7f44a6b057f549327a40b655fadcc2b13f977fa4c3feef4dda7118881343685adaef8970f1cac15a85306ae78a0602470c24d21005e32ca9fa25ddfed557b47d42b6314c3cd5be04fe3ed2ef9d04e7ff415ad4470a705833a69205483f3a17b8e068bf8a0b61b2f337cb2a83e1a754df9df4c1f9d9412bd8e74de1cc5d679203ba63d21f814788de55be05b075f8b639d09715cf00e6166329b78a3667838028398361eb02494ffb98e1e1ab3275adfcc1249827734b1d28051dcd7216935ebe6c4761758719262787b0f983265e7b7a31109ae63ef4fc8055d8935355b56a81cdb24d13484af6a486f626d27507e1056c66ffa317b2e9e5d94840ea221e5e2574f113ea50e0894ec9cfe7b48c1b39b8b97acb7f53bbeca1265db23b38eeddad5acdd1a83216fc5f91bc9c0002870073f3767803dcfafe7111f2c517ac05b5bfb95178b3470ba549ef058a41a81b7d193efe166042e76755d9a1c1a7c1167cfdd4f67674cc3c89dbb16162498ec3124caec04413b53d683452e8d8c05e32d641a3f175cde94156e30d92fd2c807ad8830fb7b27b3835db286a0322c11afa7568c8987dfdf3b3172ee1d55fdce0b0113c675ed18fd52f1222981169705af09c78c6410f418cb2c85cb38f0f62eee8989494df112fedfdbd1ec47e8b6583bcd1e3360ede3f2444663f5ea97792241cc01e898fa6d359c9c98b0d3db5ae85f94dc7155f689d88b84bf2e2bf9ff7c50f1ac4bbf7655d3a8c9dab61fd7b89e91c66a5d13100953f41191a3235f3c19bce0de1836e95ba5498cc621fe6b2e9d45f5f2ee8200f99981ec6df091240e7034780cf4ded269ec10e4967214c2778092856c840d57399c5adb61e099458d0ee06ace3114627573d544916879187043c96222db165855fade28944642669a32871ca81b895288c484adfb5165b5292aa6c7b3a8cd914d8178dc9b076e49a69b3c3d5f912bb3090a9dc737d8fc13c3d537290df07aab935ee3c23cd4ca8c870f8ddc3a44d8b95b9a3b03ef9f991f5aec2f07c0c0722939445b67161cda3f26237a11c296934108a374a06c2216aa460a28c48c53074c9315b5bada58f53d9d5ced34be60ff5c1c5dc421521ce757318c32f5f292fe7a2624f5f21fa742604b096e77dc20e8b0035b16cd3be8c05ee411613e4cfcc5546d0eba6e0244f7865d2220d0d899b3948aef05af3b216d577b62870cd7ed748354c409734cf01b9126df80041a9c33ff48f0f60ab5096d6d7aed84da61c946cf9825dfda6e6b16820af7599c8006194b21ae3614e9b174ae406e037f300a60c7017e664b0462180f1e26f2db01a60048cf148761bb5b41da4e5d4afad7111bcd879a0b0705c39305e339ddadcde73702116ea6568c58d38229e2248e8f6cc04d0cf5d2b389598a4371ce8c480c6ce4c07bfd464e3527c3411bb99fc7185adf9d1c9cd37f40e2221031ee30fbf70bef7b81c42aba596fa33725f3865772b76e44e9fe66fb90dd28647a1666608c48977cf25967b74d639119bc262ef56b430d6a259ebc457e6bd7e3609f5ad809a8fed008675ac11f6b462d0f21ac07324a46798af1577f8655719dcfb659ea35114edfeb6e561c485ab5c4b3e8b4bddc6bcf0268e69112dbc578c13945db536e31220baf2707342db78960197e706cb381bf1110e31a818aa9f9832c078501bc1677c4f24be565af753238b0346a760d6e9c5b5e25e1a97b5635ee89cf8c542c408679e9b71cfb1105af50404ce61000ca9e5d6871bdc1899518282fb4d4d84368d0f9666db54881e3cfabb243e8ebcb93d11a5f0122e08009cc9c83f95a2933e05d3b467d0c3a7e2568a0e74676ca3259529351b41c523344b413a7d06030b3db11696e19010f8378ccce76cd780924e909fc245059a5753cb017d225d5e8df90b44d1ef962db509297c95213e76bd4ec7628f3004a45a3f0441f90c7febe85e3e3eedebe9e1a795f255a02535067e7b3248339871e90e617fba5a2a3a192dd2b7bec552dd7a24fd702a03166aa9d48fb5b621b5c91d0e6d7cb72cc6ab92a58740d14d2ab2f5072dcafe4ed90b11b9441f336fa85feb80ce0f59946afbdd5168f87872e480060d62e93b6e4914ffcbfc87a50f1eb13a35c7a1559f53feee5b69057aa7fe6085ccd7dcde5af1f02591acf3970577250d2b90fd269dd5155d8457bf3a38d364b5867c56570d1905a46c4cb2a3219c9d524baf962c7890c4d1cbf1f5433bc2bdbee6d404032463e417077594796b5ff3a740f4ca63821106a12761f3e0d84cc5e16a8ae1b177ae50fbcef6c687edd6d4c9b9393cdf72c2c491d20dac3728bdf2f70e078a12c0859e0dc786ae97511546ad4541f65f961d677e34d510965ba4d9e6c04bd9b03810d8c663551d35508ad0132af831cc791be2927c3dce2cd1fd6bc75dd8361adcb6a14907fac56ba6163335464f626875889394bbbdc8e0e6ebfc2f3a455c6d85a8abafc9fc071e254345476061658389909bc0c1d103082f7a8187acb2b3b4dee1effa00000000000000000000000000000000000000000000111c2c3a01fd210500e0297c7e45777511efccc08100dcb479f2d4d7d0f660d02771d23e1baec2190db26fd601ec5296a977bcfd05b4541237eb8eba6344432be0b45dad0d17166e5c6fcf7a585f28c64a15204ca9999201a66007e89a027ca84008c5a2bd9be56fffb2d1c24b076f01201f9e49c9867a2d14c435594f7601b6f9481b72f93ecd4eee81130284c2d32a5529f543af8167765b71a679a0f046f2e8f0b2f37da95c3f035e2e3439db7701b970a5bbbeb8b3bf5b0c82678c27f93397f6b905fd5412454f9db56c019e3880bcd9db0b825ee24105e632fb53503cbac0cd532c3f4b707e4f6abc0c9c06f50183e09fb5e5b3d0124b1873d6676f043313887d78959c684dd1d5250576abc91c55b20e43fe699e646576bfe5a4ce3adef8cacebc031fb7808cb2b358532d8b1bd69864bd95197aa8cba0b86ebdb1d98c850482d4d1c5f36f39f6cfb24b64252a70353fed6bd809f145ea91320dd1a790a3b86eb51b67a8bbafa2af05a1544f2774b6f1d2aa3a7fceb3d8ece56c5741d5cb1ce04d161c29a9ea7bc5722fd5bd0c059c04cca51d125ab9702e4898f8c60e93db381d19365edecf5a43ccf21fd253ad797bcdf5486894be957141abc3e4bd93735cf70d416d954b9176f6ee80ffc358f03eee235afb4b8012ff947701626fd57dba573fe3184aa7d828e2d5c1bd51f9753abced3438d02649bace8b05b09e518d073c0532d178a69b1dc7612fc0164c2fe7d0d3d77bb37c707238e446b5a2a98381a0fe7d3154e6b2b693689a92557da76e7125306b18737087e0a1356198f4490d995e1c4655414fd2ae1c87297f4ca9d1ac6bd8e374362a435bcc50d47b3d846affeb90fd64fc8b8f8ea131182b1912beb4cdb1954b654249c300d268a33647787a5e952fb3ba0dd74f552a1d37872883491faed792230d803a6b530e1b0714f8cf277492041c37112b60da6f56c22eb6d1746d25b9792538698b64a4e26da88123545892d19fb3dbc9f1f86d94879eda116df5df99076756586cabe583d5a2fe5d5e4526c5ee65b68f99309670307b55045f1b348579ebf0c2da108d2e47b7ada3819c4857ae9ac53d4c7b94fe557f797d4c0b24808bb9cf6916c9b069dea87bf9347f0cb95624d9a5105c6eb2b51b1d942f3eb63a26dbda0564b0397ba2be4ab6fb342fd94721c852e9aec831668edfe145f4737323a8fdb86d4fb4d8056345bc58f9085035ed3529e23a942f23f53d620eeedd951a1ba01e071cb4cddbbcd0ca2b54ca1f20be19111728d4d19f6712fe8600baa551cd986285e49f99ca29a7a813658b3bba6634e593e4a813cd01d812a3c96a26bedd244875f69652d8436c2411b018dacd2e3fb37866b3a3653278b5015cd59cd0d06578c8bdd4d4f8b5b3b16ff559e862337997056758b9bbc7fca4283a5302adca650c53777b323afc1c6c089e2ee4ac73cd95922ab0c8f21255f4ef44b3b869b1bf507ae7c31fb35d31fc6d2b95734bba03c1cc2a73b1f8f0649446da46c476741fd294ebc09c0d3e1a12c7f4fe1679cfa2aee4e274ad90207e4c9d0ee1bc16a730a851b5c13458e470b6622be867701821991ee1f0a9c3f3c0ae87e464fead05d873e4058bbb85f95a37b850bd33f3b916803208c549420878663134446d20e7323e80b1414c9f31d457b7f2f6684f82a3d4fd46e3e612a1c01e3b0b424f43382eb891dd22d3e3071487218a6eb4623ed3f5624d4b1729a3bbdd7d265dd2061616a8f54c89f4be5b8862fb5a8c987d251982ceb9674eb92e0a6931189ed8eeee195a5ebd8f52066a9ff50b768575616f9143bf70e3111f5bcfe6ff0e8747b27f8c0d74c6e983d89fd5b8b02d9f683477000000",
  "txid": "dbad4a77045949057917d65c60aa46a499bdba2b585d00254822c61a444113e8",
  "hash": "39ddd7b075c4940a06144819b45b029f2c3a3234b2c686f9bf71f77423517c20",
  "size": 5085,
  "vsize": 2278,
  "version": 1,
  "locktime": 119,
  "vin": [
    {
      "txid": "e3a707b05730af1b7603a537ec7d5ae4d7d2389fa04c72fa43566dc899ae14e3",
      "vout": 0,
      "scriptSig": {
        "asm": "",
        "hex": ""
      },
      "txinwitness": [
        "e24b6cb7a4d7c4b044c05dbacde6beb914f5251ecd888f68f20d0e54617e704d0d6a3f39b969813ea66fad10d52b531c3f30a0b0c9b5e72c99c720952e7607df8bdd1fc9c12d0e3341f2266180cc1f5c497fb2444250d646fc04d497fa8805f894f88a97f7c4330aa8f145dfd665d7faf741a90f67f6d278ccf35851ad09a49073cf1d8c5f83e22105f477592f6e91cb7142f204fda8912a76be004f68db3972513347d3e3ee4a8937c1e45585afaa732ed31d7b7368606d93da2703eb27f13334a4cbb869161cd1806927d9cf85e8a680d4e7702a74187f5f93ec6b5c26b1231444818845deecf0a5aebabd1fdee317410fb78530fada2320945c80e318711de456ac4b2e06aaee2346f8dbceedbecbe946011b0341aebb569245ea38bf337aa8b43fe0d14c935dd87e9892114835c20e68cca66a56d45b6110e81ef5471f13ff026e5d7f2bb136a05bada59f44493767ca8fcf14078dd994d0576e98d73cc28d2e972c82a9b879f600547171c91775ecaf594d87916836f08814f834ead0bcb0c3b155bbe6520cc1059a8b827ef4776b506d187c047aba9a99daadb9ee590b95085c63a7a8d9eb5f548145e03133897b89bcf9b96cf29af44278f2a458b4a7ec9c9b542d8cb132432271d6691cdbea8d348e994d3679ad1c3924e437bfe8bce91ed6b0419c0f99e6e4891510019827146ff9b47faeeaa4ed38ff8fa12fabbbf7de9afdef6748f028aa111bb22cb639d88de8d473e765b7b760aac9e77016f89c1c7cc840ef9a6f88e7db12235cd60688011a5f492fcd21f80a387948bf912f9bbfcc4fe146d6f96880060722aa70530d86be8f6251de12dc0c225d7f44a6b057f549327a40b655fadcc2b13f977fa4c3feef4dda7118881343685adaef8970f1cac15a85306ae78a0602470c24d21005e32ca9fa25ddfed557b47d42b6314c3cd5be04fe3ed2ef9d04e7ff415ad4470a705833a69205483f3a17b8e068bf8a0b61b2f337cb2a83e1a754df9df4c1f9d9412bd8e74de1cc5d679203ba63d21f814788de55be05b075f8b639d09715cf00e6166329b78a3667838028398361eb02494ffb98e1e1ab3275adfcc1249827734b1d28051dcd7216935ebe6c4761758719262787b0f983265e7b7a31109ae63ef4fc8055d8935355b56a81cdb24d13484af6a486f626d27507e1056c66ffa317b2e9e5d94840ea221e5e2574f113ea50e0894ec9cfe7b48c1b39b8b97acb7f53bbeca1265db23b38eeddad5acdd1a83216fc5f91bc9c0002870073f3767803dcfafe7111f2c517ac05b5bfb95178b3470ba549ef058a41a81b7d193efe166042e76755d9a1c1a7c1167cfdd4f67674cc3c89dbb16162498ec3124caec04413b53d683452e8d8c05e32d641a3f175cde94156e30d92fd2c807ad8830fb7b27b3835db286a0322c11afa7568c8987dfdf3b3172ee1d55fdce0b0113c675ed18fd52f1222981169705af09c78c6410f418cb2c85cb38f0f62eee8989494df112fedfdbd1ec47e8b6583bcd1e3360ede3f2444663f5ea97792241cc01e898fa6d359c9c98b0d3db5ae85f94dc7155f689d88b84bf2e2bf9ff7c50f1ac4bbf7655d3a8c9dab61fd7b89e91c66a5d13100953f41191a3235f3c19bce0de1836e95ba5498cc621fe6b2e9d45f5f2ee8200f99981ec6df091240e7034780cf4ded269ec10e4967214c2778092856c840d57399c5adb61e099458d0ee06ace3114627573d544916879187043c96222db165855fade28944642669a32871ca81b895288c484adfb5165b5292aa6c7b3a8cd914d8178dc9b076e49a69b3c3d5f912bb3090a9dc737d8fc13c3d537290df07aab935ee3c23cd4ca8c870f8ddc3a44d8b95b9a3b03ef9f991f5aec2f07c0c0722939445b67161cda3f26237a11c296934108a374a06c2216aa460a28c48c53074c9315b5bada58f53d9d5ced34be60ff5c1c5dc421521ce757318c32f5f292fe7a2624f5f21fa742604b096e77dc20e8b0035b16cd3be8c05ee411613e4cfcc5546d0eba6e0244f7865d2220d0d899b3948aef05af3b216d577b62870cd7ed748354c409734cf01b9126df80041a9c33ff48f0f60ab5096d6d7aed84da61c946cf9825dfda6e6b16820af7599c8006194b21ae3614e9b174ae406e037f300a60c7017e664b0462180f1e26f2db01a60048cf148761bb5b41da4e5d4afad7111bcd879a0b0705c39305e339ddadcde73702116ea6568c58d38229e2248e8f6cc04d0cf5d2b389598a4371ce8c480c6ce4c07bfd464e3527c3411bb99fc7185adf9d1c9cd37f40e2221031ee30fbf70bef7b81c42aba596fa33725f3865772b76e44e9fe66fb90dd28647a1666608c48977cf25967b74d639119bc262ef56b430d6a259ebc457e6bd7e3609f5ad809a8fed008675ac11f6b462d0f21ac07324a46798af1577f8655719dcfb659ea35114edfeb6e561c485ab5c4b3e8b4bddc6bcf0268e69112dbc578c13945db536e31220baf2707342db78960197e706cb381bf1110e31a818aa9f9832c078501bc1677c4f24be565af753238b0346a760d6e9c5b5e25e1a97b5635ee89cf8c542c408679e9b71cfb1105af50404ce61000ca9e5d6871bdc1899518282fb4d4d84368d0f9666db54881e3cfabb243e8ebcb93d11a5f0122e08009cc9c83f95a2933e05d3b467d0c3a7e2568a0e74676ca3259529351b41c523344b413a7d06030b3db11696e19010f8378ccce76cd780924e909fc245059a5753cb017d225d5e8df90b44d1ef962db509297c95213e76bd4ec7628f3004a45a3f0441f90c7febe85e3e3eedebe9e1a795f255a02535067e7b3248339871e90e617fba5a2a3a192dd2b7bec552dd7a24fd702a03166aa9d48fb5b621b5c91d0e6d7cb72cc6ab92a58740d14d2ab2f5072dcafe4ed90b11b9441f336fa85feb80ce0f59946afbdd5168f87872e480060d62e93b6e4914ffcbfc87a50f1eb13a35c7a1559f53feee5b69057aa7fe6085ccd7dcde5af1f02591acf3970577250d2b90fd269dd5155d8457bf3a38d364b5867c56570d1905a46c4cb2a3219c9d524baf962c7890c4d1cbf1f5433bc2bdbee6d404032463e417077594796b5ff3a740f4ca63821106a12761f3e0d84cc5e16a8ae1b177ae50fbcef6c687edd6d4c9b9393cdf72c2c491d20dac3728bdf2f70e078a12c0859e0dc786ae97511546ad4541f65f961d677e34d510965ba4d9e6c04bd9b03810d8c663551d35508ad0132af831cc791be2927c3dce2cd1fd6bc75dd8361adcb6a14907fac56ba6163335464f626875889394bbbdc8e0e6ebfc2f3a455c6d85a8abafc9fc071e254345476061658389909bc0c1d103082f7a8187acb2b3b4dee1effa00000000000000000000000000000000000000000000111c2c3a01",
        "00e0297c7e45777511efccc08100dcb479f2d4d7d0f660d02771d23e1baec2190db26fd601ec5296a977bcfd05b4541237eb8eba6344432be0b45dad0d17166e5c6fcf7a585f28c64a15204ca9999201a66007e89a027ca84008c5a2bd9be56fffb2d1c24b076f01201f9e49c9867a2d14c435594f7601b6f9481b72f93ecd4eee81130284c2d32a5529f543af8167765b71a679a0f046f2e8f0b2f37da95c3f035e2e3439db7701b970a5bbbeb8b3bf5b0c82678c27f93397f6b905fd5412454f9db56c019e3880bcd9db0b825ee24105e632fb53503cbac0cd532c3f4b707e4f6abc0c9c06f50183e09fb5e5b3d0124b1873d6676f043313887d78959c684dd1d5250576abc91c55b20e43fe699e646576bfe5a4ce3adef8cacebc031fb7808cb2b358532d8b1bd69864bd95197aa8cba0b86ebdb1d98c850482d4d1c5f36f39f6cfb24b64252a70353fed6bd809f145ea91320dd1a790a3b86eb51b67a8bbafa2af05a1544f2774b6f1d2aa3a7fceb3d8ece56c5741d5cb1ce04d161c29a9ea7bc5722fd5bd0c059c04cca51d125ab9702e4898f8c60e93db381d19365edecf5a43ccf21fd253ad797bcdf5486894be957141abc3e4bd93735cf70d416d954b9176f6ee80ffc358f03eee235afb4b8012ff947701626fd57dba573fe3184aa7d828e2d5c1bd51f9753abced3438d02649bace8b05b09e518d073c0532d178a69b1dc7612fc0164c2fe7d0d3d77bb37c707238e446b5a2a98381a0fe7d3154e6b2b693689a92557da76e7125306b18737087e0a1356198f4490d995e1c4655414fd2ae1c87297f4ca9d1ac6bd8e374362a435bcc50d47b3d846affeb90fd64fc8b8f8ea131182b1912beb4cdb1954b654249c300d268a33647787a5e952fb3ba0dd74f552a1d37872883491faed792230d803a6b530e1b0714f8cf277492041c37112b60da6f56c22eb6d1746d25b9792538698b64a4e26da88123545892d19fb3dbc9f1f86d94879eda116df5df99076756586cabe583d5a2fe5d5e4526c5ee65b68f99309670307b55045f1b348579ebf0c2da108d2e47b7ada3819c4857ae9ac53d4c7b94fe557f797d4c0b24808bb9cf6916c9b069dea87bf9347f0cb95624d9a5105c6eb2b51b1d942f3eb63a26dbda0564b0397ba2be4ab6fb342fd94721c852e9aec831668edfe145f4737323a8fdb86d4fb4d8056345bc58f9085035ed3529e23a942f23f53d620eeedd951a1ba01e071cb4cddbbcd0ca2b54ca1f20be19111728d4d19f6712fe8600baa551cd986285e49f99ca29a7a813658b3bba6634e593e4a813cd01d812a3c96a26bedd244875f69652d8436c2411b018dacd2e3fb37866b3a3653278b5015cd59cd0d06578c8bdd4d4f8b5b3b16ff559e862337997056758b9bbc7fca4283a5302adca650c53777b323afc1c6c089e2ee4ac73cd95922ab0c8f21255f4ef44b3b869b1bf507ae7c31fb35d31fc6d2b95734bba03c1cc2a73b1f8f0649446da46c476741fd294ebc09c0d3e1a12c7f4fe1679cfa2aee4e274ad90207e4c9d0ee1bc16a730a851b5c13458e470b6622be867701821991ee1f0a9c3f3c0ae87e464fead05d873e4058bbb85f95a37b850bd33f3b916803208c549420878663134446d20e7323e80b1414c9f31d457b7f2f6684f82a3d4fd46e3e612a1c01e3b0b424f43382eb891dd22d3e3071487218a6eb4623ed3f5624d4b1729a3bbdd7d265dd2061616a8f54c89f4be5b8862fb5a8c987d251982ceb9674eb92e0a6931189ed8eeee195a5ebd8f52066a9ff50b768575616f9143bf70e3111f5bcfe6ff0e8747b27f8c0d74c6e983d89fd5b8b02d9f6834"
      ],
      "sequence": 4294967294
    }
  ],
  "vout": [
    {
      "value": 1.0,
      "n": 0,
      "scriptPubKey": {
        "asm": "OP_RETURN da95cf853f480d0bc23134ea96359965cfefc281e5a0d5358ec5909c4f117c5d 4c150583f7cdf4d7c02bccac12faf3b1cec38fecf2b5001bcf47c78d72aedf496c3525a3d7edd4f7e00bec8c32dad391eee3afccd295203bef67e7ad528eff690c5545c3b78db497806b8cec52bab3f18e83cfacb2f5405b8f0787cd32ee9f092c7565e397ad94b7a04baccc729a93d1aea3ef8c92d5607baf27a7ed12cebf29cc958503774d745740ab4c2c927a73314e430f6c7235809b4fc7470df22e5fc9ecb5a523576d5477608b6c0cb25a53116e632f4c5215a0bb6fe7672dd20e7fe98cd5c543370d341700eb0c6cd23a33710e034f2c3275c0db0f87074db26e1f89acf5e563172d143720cb2c4cf21a13512e236f0c1255e0fb2fa7276d924e3fa94c150583f7cdf4d7c02bccac12faf3b1cec38fecf2b5001bcf47c78d72aedf496c3525a3d7edd4f7e00bec8c32dad391eee3afccd295203bef67e7ad528eff690c5545c3b78db497806b8cec52bab3f18e83cfacb2f5405b8f0787cd32ee9f092c7565e397ad94b7a04baccc729a93d1aea3ef8c92d5607baf27a7ed12cebf29cc958503774d745740ab4c2c927a73314e430f6c7235809b4fc7470df22e5fc9ecb5a523576d5477608b6c0cb25a53116e632f4c5215a0bb6fe7672dd20e7fe98cd5c543370d341700eb0c6cd23a33710e034f2c3275c0db0f87074db26e1f89acf5e563172d143720cb2c4cf21a13512e236f0c1255e0fb2fa7276d924e3fa94c150583f7cdf4d7c02bccac12faf3b1cec38fecf2b5001bcf47c78d72aedf496c3525a3d7edd4f7e00bec8c32dad391eee3afccd295203bef67e7ad528eff690c5545c3b78db497806b8cec52bab3f18e83cfacb2f5405b8f0787cd32ee9f092c7565e397ad94b7a04baccc729a93d1aea3ef8c92d5607baf27a7ed12cebf29cc958503774d745740ab4c2c927a73314e430f6c7235809b4fc7470df22e5fc9ecb5a523576d5477608b6c0cb25a53116e632f4c5215a0bb6fe7672dd20e7fe98cd5c543370d341700eb0c6cd23a33710e034f2c3275c0db0f87074db26e1f89acf5e563172d143720cb2c4cf21a13512e236f0c1255e0fb2fa7276d924e3fa94c150583f7cdf4d7c02bccac12faf3b1cec38fecf2b5001bcf47c78d72aedf496c3525a3d7edd4f7e00bec8c32dad391eee3afccd295203bef67e7ad528eff690c5545c3b78db497806b8cec52bab3f18e83cfacb2f5405b8f0787cd32ee9f092c7565e397ad94b7a04baccc729a93d1aea3ef8c92d5607baf27a7ed12cebf29cc958503774d745740ab4c2c927a73314e430f6c7235809b4fc7470df22e5fc9ecb5a523576d5477608b6c0cb25a53116e632f4c5215a0bb6fe7672dd20e7fe98cd5c543370d341700eb0c6cd23a33710e034f2c3275c0db0f87074db26e1f89acf5e563172d143720cb2c4cf21a13512e236f0c1255e0fb2fa7276d924e3fa94c150583f7cdf4d7c02bccac12faf3b1cec38fecf2b5001bcf47c78d72aedf496c3525a3d7edd4f7e00bec8c32dad391eee3afccd295203bef67e7ad528eff690c5545c3b78db497806b8cec52bab3f18e83cfacb2f5405b8f0787cd32ee9f092c7565e397ad94b7a04baccc729a93d1aea3ef8c92d5607baf27a7ed12cebf29cc958503774d745740ab4c2c927a7331a2808c198ca08c4f8718c7a4c1ca30e6a5144e6601bd31b6caec305b0c737cb7",
        "hex": "6a20da95cf853f480d0bc23134ea96359965cfefc281e5a0d5358ec5909c4f117c5d4db0044c150583f7cdf4d7c02bccac12faf3b1cec38fecf2b5001bcf47c78d72aedf496c3525a3d7edd4f7e00bec8c32dad391eee3afccd295203bef67e7ad528eff690c5545c3b78db497806b8cec52bab3f18e83cfacb2f5405b8f0787cd32ee9f092c7565e397ad94b7a04baccc729a93d1aea3ef8c92d5607baf27a7ed12cebf29cc958503774d745740ab4c2c927a73314e430f6c7235809b4fc7470df22e5fc9ecb5a523576d5477608b6c0cb25a53116e632f4c5215a0bb6fe7672dd20e7fe98cd5c543370d341700eb0c6cd23a33710e034f2c3275c0db0f87074db26e1f89acf5e563172d143720cb2c4cf21a13512e236f0c1255e0fb2fa7276d924e3fa94c150583f7cdf4d7c02bccac12faf3b1cec38fecf2b5001bcf47c78d72aedf496c3525a3d7edd4f7e00bec8c32dad391eee3afccd295203bef67e7ad528eff690c5545c3b78db497806b8cec52bab3f18e83cfacb2f5405b8f0787cd32ee9f092c7565e397ad94b7a04baccc729a93d1aea3ef8c92d5607baf27a7ed12cebf29cc958503774d745740ab4c2c927a73314e430f6c7235809b4fc7470df22e5fc9ecb5a523576d5477608b6c0cb25a53116e632f4c5215a0bb6fe7672dd20e7fe98cd5c543370d341700eb0c6cd23a33710e034f2c3275c0db0f87074db26e1f89acf5e563172d143720cb2c4cf21a13512e236f0c1255e0fb2fa7276d924e3fa94c150583f7cdf4d7c02bccac12faf3b1cec38fecf2b5001bcf47c78d72aedf496c3525a3d7edd4f7e00bec8c32dad391eee3afccd295203bef67e7ad528eff690c5545c3b78db497806b8cec52bab3f18e83cfacb2f5405b8f0787cd32ee9f092c7565e397ad94b7a04baccc729a93d1aea3ef8c92d5607baf27a7ed12cebf29cc958503774d745740ab4c2c927a73314e430f6c7235809b4fc7470df22e5fc9ecb5a523576d5477608b6c0cb25a53116e632f4c5215a0bb6fe7672dd20e7fe98cd5c543370d341700eb0c6cd23a33710e034f2c3275c0db0f87074db26e1f89acf5e563172d143720cb2c4cf21a13512e236f0c1255e0fb2fa7276d924e3fa94c150583f7cdf4d7c02bccac12faf3b1cec38fecf2b5001bcf47c78d72aedf496c3525a3d7edd4f7e00bec8c32dad391eee3afccd295203bef67e7ad528eff690c5545c3b78db497806b8cec52bab3f18e83cfacb2f5405b8f0787cd32ee9f092c7565e397ad94b7a04baccc729a93d1aea3ef8c92d5607baf27a7ed12cebf29cc958503774d745740ab4c2c927a73314e430f6c7235809b4fc7470df22e5fc9ecb5a523576d5477608b6c0cb25a53116e632f4c5215a0bb6fe7672dd20e7fe98cd5c543370d341700eb0c6cd23a33710e034f2c3275c0db0f87074db26e1f89acf5e563172d143720cb2c4cf21a13512e236f0c1255e0fb2fa7276d924e3fa94c150583f7cdf4d7c02bccac12faf3b1cec38fecf2b5001bcf47c78d72aedf496c3525a3d7edd4f7e00bec8c32dad391eee3afccd295203bef67e7ad528eff690c5545c3b78db497806b8cec52bab3f18e83cfacb2f5405b8f0787cd32ee9f092c7565e397ad94b7a04baccc729a93d1aea3ef8c92d5607baf27a7ed12cebf29cc958503774d745740ab4c2c927a7331a2808c198ca08c4f8718c7a4c1ca30e6a5144e6601bd31b6caec305b0c737cb7",
        "type": "nulldata"
      }
    },
    {
      "value": 499985.7634,
      "n": 1,
      "scriptPubKey": {
        "asm": "1 cc69337b62e35a793968f3003632130567c2b6523c9aa1f15354a40a6431fec3",
        "hex": "5120cc69337b62e35a793968f3003632130567c2b6523c9aa1f15354a40a6431fec3",
        "reqSigs": 1,
        "type": "witness_v1_scripthash",
        "addresses": [
          "3QJmnh"
        ]
      }
    }
  ],
  "blockhash": "2c44072194b49e49486c87ae6b37abdd6c2c23e2c7b477f70371a1b5276080d1",
  "confirmations": 1,
  "time": 1764179865,
  "blocktime": 1764179865
}