{
  "hex": "01000000000101a0187f89cccd58ba07e888cefc903bb8511de871caa84ab59e905959c69286250100000000feffffff0200e1f50500000000fdd5046a20558eb133c7b8a1ec18dbbc9e31b46c327f67a29c56ae854c185744782c6678164db004d2a2217ce31d8bac30a46ee09a5bdbda7a40384ed3b80534c0c4555533911b83f282015cc33dab8c10844ec0ba7bfbfa5a60186ef3982514e0e4757513b13ba392e2613ca35dcbec70e42ea0da1b9b9a3a00780e93f845748084151573d15bc3b2c2411c837debcc50c40e80fa3bbbba1a20582eb3d86554a0a4353553f17be35222a1fc639d0b2cb024ee601adb5b5afac0b8ce533885b44044d5d5b3119b03720281dc43bd2b0c9004ce403afb7b7adae098ee7318a5946064f5f59331bb231262e1bc23dd4b6cf064ae205a9b1b1aba80f88e1378c5f400049595f351db433242c19c03fd6b4cd0448e007abb3b3a9aa0d8ae3358e5d42024b5b5d371fb63d2a2217ce31d8bac30a46ee09a5bdbda7a40384ed3b80534c0c4555533911b83f282015cc33dab8c10844ec0ba7bfbfa5a60186ef3982514e0e4757513b13ba392e2613ca35dcbec70e42ea0da1b9b9a3a00780e93f845748084151573d15bc3b2c2411c837debcc50c40e80fa3bbbba1a20582eb3d86554a0a4353553f17be35222a1fc639d0b2cb024ee601adb5b5afac0b8ce533885b44044d5d5b3119b03720281dc43bd2b0c9004ce403afb7b7adae098ee7318a5946064f5f59331bb231262e1bc23dd4b6cf064ae205a9b1b1aba80f88e1378c5f400049595f351db433242c19c03fd6b4cd0448e007abb3b3a9aa0d8ae3358e5d42024b5b5d371fb63d2a2217ce31d8bac30a46ee09a5bdbda7a40384ed3b80534c0c4555533911b83f282015cc33dab8c10844ec0ba7bfbfa5a60186ef3982514e0e4757513b13ba392e2613ca35dcbec70e42ea0da1b9b9a3a00780e93f845748084151573d15bc3b2c2411c837debcc50c40e80fa3bbbba1a20582eb3d86554a0a4353553f17be35222a1fc639d0b2cb024ee601adb5b5afac0b8ce533885b44044d5d5b3119b03720281dc43bd2b0c9004ce403afb7b7adae098ee7318a5946064f5f59331bb231262e1bc23dd4b6cf064ae205a9b1b1aba80f88e1378c5f400049595f351db433242c19c03fd6b4cd0448e007abb3b3a9aa0d8ae3358e5d42024b5b5d371fb63d2a2217ce31d8bac30a46ee09a5bdbda7a40384ed3b80534c0c4555533911b83f282015cc33dab8c10844ec0ba7bfbfa5a60186ef3982514e0e4757513b13ba392e2613ca35dcbec70e42ea0da1b9b9a3a00780e93f845748084151573d15bc3b2c2411c837debcc50c40e80fa3bbbba1a20582eb3d86554a0a4353553f17be35222a1fc639d0b2cb024ee601adb5b5afac0b8ce533885b44044d5d5b3119b03720281dc43bd2b0c9004ce403afb7b7adae098ee7318a5946064f5f59331bb231262e1bc23dd4b6cf064ae205a9b1b1aba80f88e1378c5f400049595f351db433242c19c03fd6b4cd0448e007abb3b3a9aa0d8ae3358e5d42024b5b5d371fb63d2a2217ce31d8bac30a46ee09a5bdbda7a40384ed3b80534c0c4555533911b83f282015cc33dab8c10844ec0ba7bfbfa5a60186ef3982514e0e4757513b13ba392e2613ca35dcbec70e42ea0da1b9b9a3a00780e93f845748084151573d15bc3b2c2411c837debcc50c40e80fa3bbbba1a20582eb3d86554a0a4353553f17be35222a1fc639d0b2cb024ee601adb5b5a4b3ea18d1adada85e69588c8ad6ff6952053427fb6de70379796f3cbce62f9bf1024da9b782d0000225120a927c5f2702c108172923bb9092d6d71589c9847fd6683ab776abcde4bf90c6a02fd75092efe20748aead19f7c05c3b6617f7cf7abd5db28cc7aec130b6f22263317e71cf991e17444ee3381e399faa71ad033f0919b0b8433322a9a4e4926083045c041cbacb1846c19cc41d3bfcfb2a6d39cce61a1c45f376c64a4aaadca22f20dc479f51a60e0d9bfc01d795e6c55951aa5c39d1fe30f28ab79213e9835ddb82dadbd24af068fab447a63f69882fda390f0b5d04f4884e86ea6fb3ab2719efcfdd0f3cf143a4d92c019c96cf1af6175fd51723f65c860e52807e0ac70b23e37a6d58d77d32e95ffb91b3eb6ef4dc98df593fbded03b5a5d6b532497fe1eca1c07c2404945bf14a7545386d6ae5d6af737fee2fb34c85b03bf98a86b6d687a80b06cbea2f19af4354620388de02a49343a13107841a039acdfc1db04db9974eadd4ae8439ddf76ab51b4ab06f3b1619d5b9c8ff28235499a9d52b6f58c637d036a6891ed07194cfc8a9fd3e405a3b59f302aa7b7d4e241a47d1002daea2fb3af7a0dd81bd023a78627e610ded4c2de48121690f5972771d668061f5437e564828023f94ba5ec01cab429570aefc0dff92b1a85ac59e8ddba53a60d63eb157a280407e0d79e076f7396dfa0cc501c3330f771800c470028f0ef4a8dd686fe43261fc20f650e93a6f463215765d65fc8f4e73c3464b4472a13faa41834bddec1f481d3ccca27c7d9e8458f41af5d0d06d9e474ff5408a793e5b9be6156b23ff3d9adf57f82797f48bc4f55c8bb9841147480c3c65da9cce46aa1c326d959ebecef20dee0b2865449f7cd25f4bdd4486f0b88b71dcf293dcf3eaa42bbcf3945b74796939e6241eb625bdb072252ce1c1a7cb73cb9f867df8d01758c8dd049b306f39ab4e3fcce67d48afda8476b1914262974a164c12b91b0d2c973b36bd679ae281109a613bc968dd3454f2f530a02f116f6f340c80cfac0a86569520f4e76748b9c9041b8c81b85f8b9607e4ca87c94631b8f4fd67b26e1b114c129f7564faafba61947e7b1df9cc35efdaa3fd4bfc7a95b1157437d7aa276b4eb5be71ba521d8b785d8c97a565a2a5a7a38270403f752d7be1aedb318d7984079cc903625e4f26a1a51903daaeb39eff0d081d517c9402d2ff33304d3b1933c7c7a1c55c3411afe01d25899eb24608e0690bd36d496baf47b375881c05d9eaa604687f6098ad73b846b737b73d1da74a1741d0c20eecb1bfb79428bb7ccfef875295dd5f9c1573bb72c592cf284e7635320c123a355e1d4a609c1f8042319b2ab603a1afb78917c3045036a5935dd80263739d84c9670b56ed127c99e3762036bf526faefc0626ae0aa01fb40f4e0e0f7ce2d3476176ec044017beecfd61433e447ec5dca51df0f46018a1593fbc4c51348842f67803cda72f4b1f340fba1e11831d37f781a47bde330a53e04a00233cc9e404bb50158fabd6afb2f9b2f6cf0ceacd94c3d69d501f152feb18d5151f49450da62cd002f3929a2b1d890ef07442edc9351356481cfc784822fa6f8a9137c1cc869f9f376b065e51427953374e53fb3e4db7336e230203b6bc5ced916966f148c8f6826efd1de44ca9b7a37f5c0339b482f7bce0c2bfae4527c40489bf961f6db0977a89adb7fa4282017c13b9202747e49bf9a3e4772a552ac89745bde92692c1a60eb0eb538bc6f04c9ce3fc1e5a45d53c68fa90a08cc5b8ef1f1259826501d9209913a39d89875137b14b40488598dafc32f030bb6e71282bec89bceec16da64edd2f8616b771257a23c078df0ba0bc0af05ea76c5b06928150b0dcf2dc5c3777a9fc9ea41ace61eb4b1ac603ef388bd0fe9361175bf7db617febe8718ff2179c975e87fe641a001fb1e2f30d6d3765bc4b7304dd514af1b80d8a6412714f26d8499272f8d33d75b9aa8a2433f283da2af5f1d58a8eee422b9b3c14f94101957830f62f6aba767d0d3fe9dbb250b56960ce5c4b60d8fb94fdf2f2344ca24c8f8523ff0116de7e385ac3a31477050e6bf0d3026476bd92bda31a5cd1d7ab51a46999befcd9a63231e975cfe25fca7b07d26892e710c861b12a34110468cf64152dfcd2a7e664575c40cd60143d829c589eb4b70913ecdc4da82731bdb30ee3ac31812e1cdc3fc4eac9f5749340c7b521313dfc0182f81f8ee373ab3b72805d8664b6fb243a1721dbe11a5eadbeab0859c1c99df3a9b6939cb22aae660486a04c7d87bd3ead4ea9eb51602232b22851fa66a53335e3dbd237830c090f07833d7300c242906c8f6d44ee3cdefd99bd042041c6da3178c854b09abee69f23d96ba5f61285fe78e43a7cbb107ebb729df3fa864a82d4554e42f774f04400fd7c853d89a4292640fc254ebf99a6258135b5acf89ac6492af03c12b3697205bb823d6f6192cedb6903056106dfa9b9228f4b10c79c78638adbd55fb896a96100a230c17e747606b8b2217812259d2017fed0a4b1caad3cdcb158078a362c04689188c041f1f1eca398357f0f3d8d14d20c792b25d6a973c99afae4fad4beac6ff558bb38a3de4d6b3ebfd8c72ac30bc6e8425785b9776d0ee88feeda164cbd4fc930d1aa5440271db2a01ab481d3d9996187c8ccae8cfdb76e9601bf1af7a973e0322b19324860464ed058a6926bf81ceb2b4096fdd9d506c442fa904bf3052aa36c3dbb050f489e9e449d314accdd3962d22d2281aa992b20f88d1ca3593b93dd665f16ed5c833b828f3202a1a8f175021699f40f9c38833a1de4b93a9a96f35a331718e65424c862bf54610e4eb4f65b3f47b2cfe8ae0c72b5cebbacf755c763729ebb6fb1d8bbc2e28ad6d454afb948ea0043ff1a5b2c7de0d3cad78dcb0fcaece6bf28a8354ac041feca79446b263bec9b301a47b8a318ce9f447326ccfce13a715ff7713f92ccb8f41bc86ff7b812cabd26dff3a85a6cf3f71ad45bec637978ce65fd2b6482a5017690223d3f65f49b1d109008638e2ec964b7acb70c75845b85add99aac4d9f79b45a3d3900761935734374ef13d5fd48f9c689e2422fb7df75620614f112aa35b073cbeb0b0b95bf7cd890fe7fde6680c44c7378474a1a3531ac295c09513b4d3ab7bbc1d6fcdf1cd70a63cd6c34596bde66c6a7b70bfd25c62a208f7c171b6a0252be424edb10e316999ab3d12106f4190c69d8b45aac18935e16f201825224b56e6a1185052023d767192231729e1ad8cce05fdf664bf85ebfc3f4199168d90e2277822fed1d8675b02af7eeda834ed2c154fcfe3f146ba72dfeb2cc8e7ac950a8ea80b62d72e8e225539cb812840cdaf767b368dd887800c5deb51ba6a15a5cbfdee45d2846b1af3ed7079b0bff70d1b2b3e455c8d9095a0adc9d3d9e5f4f90d141e41777c81a5bec2cbec041920252d303f5053545c6a8a8e939da4a5aaaeb0b1b3d6edf5ff141d304344596364686a6e7a8c94a0a8b1b8ccd0f8fb0000111d384e01fd2105006c281355136804d68629ccb116a53c116c798c90459b5c7292ea729411a574f2974e6a242c5f2345731938af50ecbb749bd734da678463bdc975aeb3835664a18bf30a3007eb55d3b9d449b5c452164c92f74d7d8699deb7def7121bff2a27447a4201638d8373883152639944f76a1bdf43f8e0d4965849686651391f33fdfbc9b1bcc065e92eee19ea3f7c916726c5d977ee588eca9a796a5ef76f96d0be403056addc713c47a372275e58e5aa9832d9ad9403ef8606b9d622208253524cde1cdd99dc212847e226dd0f48fc1b10e89f570d1797934ae0176a5a4ed3e0a638aaafa892c49002f95f8a8cef01531b4415c2082571a120a1c30c899d28f347ecb1a703b406022bbb9aac8a10e5265290a428857491387cccb4c293aaf7fd99e5ff369474e3d87403f317531f738b9dace5a82811b2538a445e03a64a2530446efa3928e45c0e8e12627114ad87398f0c84341a62c59635ec69d20513e553420d2660a24da7ed51fa8ee56a1030caff535fc703607a798780506acd2e56274ce4b2073ffdd3b5f761eec92a7557ea2df049ebb993ab6212cfd0a99b93338d55ef9dc1200cf1c81ea837294c404b79302482b8fb6692f2288dcc60d275800c6e8d89fdeb60cc48d0444e05bd0e448405d9d7daf2026b3b50007f60b2ac5d672ceaae5ce6738457bbf9354c02f775bbd82c8c643b3d070e7bbde5993f558850857894a1b2da2bf833528c902ba91fe77527232587f08c2549813eb8cec457e5d5b2365fd108b93da7c4834005b564e30c2fb5f2b9baab193fb72f5baeeeab72de2aa9a84b3f7e1adc330ac41ac9bcd3266c5aeac197216b5afd239de3f05912b198821a9eadba66fdb18285d4ad9724c9e1364ddaa46de14227d1d3fa1c233a55d61c7e747898148345d1ca0afa9fee63ece13f636c7fda8d45c85e424907167f293f7806a84b842f1a79979af1fa658eae546a9fbcc4a4c7fced1981599bc5e3350be3e694d15e56ee532a80273591a9cdc6c4871008ebef3e714e2d549d0657d31ad0bda12f13373d76d928778b006b751c10b7033402b61b449d2bc5ba86bc700a7e82b5ce420ff6833443a0e5cd6dc8c101a586c5b55b6c1679028244b01514f060c2ccee0e9345f5db6e31f27377b450b4e7edafa5016e49efb77c89e70dfe06cb8e0219072d17c81fc3e3dad81d67dc70588bdf4e3474ba978865d93598d026ba5f899bf08e804b1e000715c1b2ee62cea7350259a4167ac37cf29eca70354b4614a81ed22e79a7741b23dcb516620924437216018af819d087046cec047d3434dfa68bb0f50287cef3e1febe1462f41123eab1519ff0e64fd364a5682313d847beb66501bd5176d50601b20ec569b9bdccbb0bccdc85eee94eaeeebbfe962ffbaaa08fb82d96095d3e0661b9644656b223db9b36571a4529b161ddce917b456b78ce090668233ad6e70e1d106f3bd33e1d6ae5851c94e5358f562bf67a75c0ff600314b6332bfd60b2331cca0023104d7c427ad2199dd3e9beb34e9d7b6a5ce23bcc2cef305113b14fdaa67cac95e11b7cb1f5cd422ce59f93939cd0eca933a88a9cbf5e2462433819832b7fbb913d1b4055cf60dcedb0378659ee25f365c54a152ca548666ce2b018ad88e216e18fb848a635dda356263c958b4c0021730f5f27d46b0797b6cf8755d7af9a45dcb432aab15d71e2a44c0c0b49b2e1830db0dc9ffe5c60f660b7bbbcba4979e75bb6504cc8ab446ca776627980a7e944b39a6bb7021cfd5bd84f9fe816c6106294e053c9abb626af0d4ff5a3bfdabcff25115caab639c8873a7b1d58fc0f8c1c579ab7dcc4fc9756850153bfbd1d74da4a89000000",
  "txid": "dd22f2e207c062ada3a592ec622f5f0996f171c8670ecf02cf8fb01babb5ad1a",
  "hash": "936486db6010ee507d3e9a49b7c11c042d956e6106b25fe4ee6b31725d820e5d",
  "size": 5085,
  "vsize": 2278,
  "version": 1,
  "locktime": 137,
  "vin": [
    {
      "txid": "258692c65959909eb54aa8ca71e81d51b83b90fcce88e807ba58cdcc897f18a0",
      "vout": 1,
      "scriptSig": {
        "asm": "",
        "hex": ""
      },
      "txinwitness": [
        "2efe20748aead19f7c05c3b6617f7cf7abd5db28cc7aec130b6f22263317e71cf991e17444ee3381e399faa71ad033f0919b0b8433322a9a4e4926083045c041cbacb1846c19cc41d3bfcfb2a6d39cce61a1c45f376c64a4aaadca22f20dc479f51a60e0d9bfc01d795e6c55951aa5c39d1fe30f28ab79213e9835ddb82dadbd24af068fab447a63f69882fda390f0b5d04f4884e86ea6fb3ab2719efcfdd0f3cf143a4d92c019c96cf1af6175fd51723f65c860e52807e0ac70b23e37a6d58d77d32e95ffb91b3eb6ef4dc98df593fbded03b5a5d6b532497fe1eca1c07c2404945bf14a7545386d6ae5d6af737fee2fb34c85b03bf98a86b6d687a80b06cbea2f19af4354620388de02a49343a13107841a039acdfc1db04db9974eadd4ae8439ddf76ab51b4ab06f3b1619d5b9c8ff28235499a9d52b6f58c637d036a6891ed07194cfc8a9fd3e405a3b59f302aa7b7d4e241a47d1002daea2fb3af7a0dd81bd023a78627e610ded4c2de48121690f5972771d668061f5437e564828023f94ba5ec01cab429570aefc0dff92b1a85ac59e8ddba53a60d63eb157a280407e0d79e076f7396dfa0cc501c3330f771800c470028f0ef4a8dd686fe43261fc20f650e93a6f463215765d65fc8f4e73c3464b4472a13faa41834bddec1f481d3ccca27c7d9e8458f41af5d0d06d9e474ff5408a793e5b9be6156b23ff3d9adf57f82797f48bc4f55c8bb9841147480c3c65da9cce46aa1c326d959ebecef20dee0b2865449f7cd25f4bdd4486f0b88b71dcf293dcf3eaa42bbcf3945b74796939e6241eb625bdb072252ce1c1a7cb73cb9f867df8d01758c8dd049b306f39ab4e3fcce67d48afda8476b1914262974a164c12b91b0d2c973b36bd679ae281109a613bc968dd3454f2f530a02f116f6f340c80cfac0a86569520f4e76748b9c9041b8c81b85f8b9607e4ca87c94631b8f4fd67b26e1b114c129f7564faafba61947e7b1df9cc35efdaa3fd4bfc7a95b1157437d7aa276b4eb5be71ba521d8b785d8c97a565a2a5a7a38270403f752d7be1aedb318d7984079cc903625e4f26a1a51903daaeb39eff0d081d517c9402d2ff33304d3b1933c7c7a1c55c3411afe01d25899eb24608e0690bd36d496baf47b375881c05d9eaa604687f6098ad73b846b737b73d1da74a1741d0c20eecb1bfb79428bb7ccfef875295dd5f9c1573bb72c592cf284e7635320c123a355e1d4a609c1f8042319b2ab603a1afb78917c3045036a5935dd80263739d84c9670b56ed127c99e3762036bf526faefc0626ae0aa01fb40f4e0e0f7ce2d3476176ec044017beecfd61433e447ec5dca51df0f46018a1593fbc4c51348842f67803cda72f4b1f340fba1e11831d37f781a47bde330a53e04a00233cc9e404bb50158fabd6afb2f9b2f6cf0ceacd94c3d69d501f152feb18d5151f49450da62cd002f3929a2b1d890ef07442edc9351356481cfc784822fa6f8a9137c1cc869f9f376b065e51427953374e53fb3e4db7336e230203b6bc5ced916966f148c8f6826efd1de44ca9b7a37f5c0339b482f7bce0c2bfae4527c40489bf961f6db0977a89adb7fa4282017c13b9202747e49bf9a3e4772a552ac89745bde92692c1a60eb0eb538bc6f04c9ce3fc1e5a45d53c68fa90a08cc5b8ef1f1259826501d9209913a39d89875137b14b40488598dafc32f030bb6e71282bec89bceec16da64edd2f8616b771257a23c078df0ba0bc0af05ea76c5b06928150b0dcf2dc5c3777a9fc9ea41ace61eb4b1ac603ef388bd0fe9361175bf7db617febe8718ff2179c975e87fe641a001fb1e2f30d6d3765bc4b7304dd514af1b80d8a6412714f26d8499272f8d33d75b9aa8a2433f283da2af5f1d58a8eee422b9b3c14f94101957830f62f6aba767d0d3fe9dbb250b56960ce5c4b60d8fb94fdf2f2344ca24c8f8523ff0116de7e385ac3a31477050e6bf0d3026476bd92bda31a5cd1d7ab51a46999befcd9a63231e975cfe25fca7b07d26892e710c861b12a34110468cf64152dfcd2a7e664575c40cd60143d829c589eb4b70913ecdc4da82731bdb30ee3ac31812e1cdc3fc4eac9f5749340c7b521313dfc0182f81f8ee373ab3b72805d8664b6fb243a1721dbe11a5eadbeab0859c1c99df3a9b6939cb22aae660486a04c7d87bd3ead4ea9eb51602232b22851fa66a53335e3dbd237830c090f07833d7300c242906c8f6d44ee3cdefd99bd042041c6da3178c854b09abee69f23d96ba5f61285fe78e43a7cbb107ebb729df3fa864a82d4554e42f774f04400fd7c853d89a4292640fc254ebf99a6258135b5acf89ac6492af03c12b3697205bb823d6f6192cedb6903056106dfa9b9228f4b10c79c78638adbd55fb896a96100a230c17e747606b8b2217812259d2017fed0a4b1caad3cdcb158078a362c04689188c041f1f1eca398357f0f3d8d14d20c792b25d6a973c99afae4fad4beac6ff558bb38a3de4d6b3ebfd8c72ac30bc6e8425785b9776d0ee88feeda164cbd4fc930d1aa5440271db2a01ab481d3d9996187c8ccae8cfdb76e9601bf1af7a973e0322b19324860464ed058a6926bf81ceb2b4096fdd9d506c442fa904bf3052aa36c3dbb050f489e9e449d314accdd3962d22d2281aa992b20f88d1ca3593b93dd665f16ed5c833b828f3202a1a8f175021699f40f9c38833a1de4b93a9a96f35a331718e65424c862bf54610e4eb4f65b3f47b2cfe8ae0c72b5cebbacf755c763729ebb6fb1d8bbc2e28ad6d454afb948ea0043ff1a5b2c7de0d3cad78dcb0fcaece6bf28a8354ac041feca79446b263bec9b301a47b8a318ce9f447326ccfce13a715ff7713f92ccb8f41bc86ff7b812cabd26dff3a85a6cf3f71ad45bec637978ce65fd2b6482a5017690223d3f65f49b1d109008638e2ec964b7acb70c75845b85add99aac4d9f79b45a3d3900761935734374ef13d5fd48f9c689e2422fb7df75620614f112aa35b073cbeb0b0b95bf7cd890fe7fde6680c44c7378474a1a3531ac295c09513b4d3ab7bbc1d6fcdf1cd70a63cd6c34596bde66c6a7b70bfd25c62a208f7c171b6a0252be424edb10e316999ab3d12106f4190c69d8b45aac18935e16f201825224b56e6a1185052023d767192231729e1ad8cce05fdf664bf85ebfc3f4199168d90e2277822fed1d8675b02af7eeda834ed2c154fcfe3f146ba72dfeb2cc8e7ac950a8ea80b62d72e8e225539cb812840cdaf767b368dd887800c5deb51ba6a15a5cbfdee45d2846b1af3ed7079b0bff70d1b2b3e455c8d9095a0adc9d3d9e5f4f90d141e41777c81a5bec2cbec041920252d303f5053545c6a8a8e939da4a5aaaeb0b1b3d6edf5ff141d304344596364686a6e7a8c94a0a8b1b8ccd0f8fb0000111d384e01",
        "006c281355136804d68629ccb116a53c116c798c90459b5c7292ea729411a574f2974e6a242c5f2345731938af50ecbb749bd734da678463bdc975aeb3835664a18bf30a3007eb55d3b9d449b5c452164c92f74d7d8699deb7def7121bff2a27447a4201638d8373883152639944f76a1bdf43f8e0d4965849686651391f33fdfbc9b1bcc065e92eee19ea3f7c916726c5d977ee588eca9a796a5ef76f96d0be403056addc713c47a372275e58e5aa9832d9ad9403ef8606b9d622208253524cde1cdd99dc212847e226dd0f48fc1b10e89f570d1797934ae0176a5a4ed3e0a638aaafa892c49002f95f8a8cef01531b4415c2082571a120a1c30c899d28f347ecb1a703b406022bbb9aac8a10e5265290a428857491387cccb4c293aaf7fd99e5ff369474e3d87403f317531f738b9dace5a82811b2538a445e03a64a2530446efa3928e45c0e8e12627114ad87398f0c84341a62c59635ec69d20513e553420d2660a24da7ed51fa8ee56a1030caff535fc703607a798780506acd2e56274ce4b2073ffdd3b5f761eec92a7557ea2df049ebb993ab6212cfd0a99b93338d55ef9dc1200cf1c81ea837294c404b79302482b8fb6692f2288dcc60d275800c6e8d89fdeb60cc48d0444e05bd0e448405d9d7daf2026b3b50007f60b2ac5d672ceaae5ce6738457bbf9354c02f775bbd82c8c643b3d070e7bbde5993f558850857894a1b2da2bf833528c902ba91fe77527232587f08c2549813eb8cec457e5d5b2365fd108b93da7c4834005b564e30c2fb5f2b9baab193fb72f5baeeeab72de2aa9a84b3f7e1adc330ac41ac9bcd3266c5aeac197216b5afd239de3f05912b198821a9eadba66fdb18285d4ad9724c9e1364ddaa46de14227d1d3fa1c233a55d61c7e747898148345d1ca0afa9fee63ece13f636c7fda8d45c85e424907167f293f7806a84b842f1a79979af1fa658eae546a9fbcc4a4c7fced1981599bc5e3350be3e694d15e56ee532a80273591a9cdc6c4871008ebef3e714e2d549d0657d31ad0bda12f13373d76d928778b006b751c10b7033402b61b449d2bc5ba86bc700a7e82b5ce420ff6833443a0e5cd6dc8c101a586c5b55b6c1679028244b01514f060c2ccee0e9345f5db6e31f27377b450b4e7edafa5016e49efb77c89e70dfe06cb8e0219072d17c81fc3e3dad81d67dc70588bdf4e3474ba978865d93598d026ba5f899bf08e804b1e000715c1b2ee62cea7350259a4167ac37cf29eca70354b4614a81ed22e79a7741b23dcb516620924437216018af819d087046cec047d3434dfa68bb0f50287cef3e1febe1462f41123eab1519ff0e64fd364a5682313d847beb66501bd5176d50601b20ec569b9bdccbb0bccdc85eee94eaeeebbfe962ffbaaa08fb82d96095d3e0661b9644656b223db9b36571a4529b161ddce917b456b78ce090668233ad6e70e1d106f3bd33e1d6ae5851c94e5358f562bf67a75c0ff600314b6332bfd60b2331cca0023104d7c427ad2199dd3e9beb34e9d7b6a5ce23bcc2cef305113b14fdaa67cac95e11b7cb1f5cd422ce59f93939cd0eca933a88a9cbf5e2462433819832b7fbb913d1b4055cf60dcedb0378659ee25f365c54a152ca548666ce2b018ad88e216e18fb848a635dda356263c958b4c0021730f5f27d46b0797b6cf8755d7af9a45dcb432aab15d71e2a44c0c0b49b2e1830db0dc9ffe5c60f660b7bbbcba4979e75bb6504cc8ab446ca776627980a7e944b39a6bb7021cfd5bd84f9fe816c6106294e053c9abb626af0d4ff5a3bfdabcff25115caab639c8873a7b1d58fc0f8c1c579ab7dcc4fc9756850153bfbd1d74da4a"
      ],
      "sequence": 4294967294
    }
  ],
  "vout": [
    {
      "value": 1.0,
      "n": 0,
      "scriptPubKey": {
        "asm": "OP_RETURN 558eb133c7b8a1ec18dbbc9e31b46c327f67a29c56ae854c185744782c667816 d2a2217ce31d8bac30a46ee09a5bdbda7a40384ed3b80534c0c4555533911b83f282015cc33dab8c10844ec0ba7bfbfa5a60186ef3982514e0e4757513b13ba392e2613ca35dcbec70e42ea0da1b9b9a3a00780e93f845748084151573d15bc3b2c2411c837debcc50c40e80fa3bbbba1a20582eb3d86554a0a4353553f17be35222a1fc639d0b2cb024ee601adb5b5afac0b8ce533885b44044d5d5b3119b03720281dc43bd2b0c9004ce403afb7b7adae098ee7318a5946064f5f59331bb231262e1bc23dd4b6cf064ae205a9b1b1aba80f88e1378c5f400049595f351db433242c19c03fd6b4cd0448e007abb3b3a9aa0d8ae3358e5d42024b5b5d371fb63d2a2217ce31d8bac30a46ee09a5bdbda7a40384ed3b80534c0c4555533911b83f282015cc33dab8c10844ec0ba7bfbfa5a60186ef3982514e0e4757513b13ba392e2613ca35dcbec70e42ea0da1b9b9a3a00780e93f845748084151573d15bc3b2c2411c837debcc50c40e80fa3bbbba1a20582eb3d86554a0a4353553f17be35222a1fc639d0b2cb024ee601adb5b5afac0b8ce533885b44044d5d5b3119b03720281dc43bd2b0c9004ce403afb7b7adae098ee7318a5946064f5f59331bb231262e1bc23dd4b6cf064ae205a9b1b1aba80f88e1378c5f400049595f351db433242c19c03fd6b4cd0448e007abb3b3a9aa0d8ae3358e5d42024b5b5d371fb63d2a2217ce31d8bac30a46ee09a5bdbda7a40384ed3b80534c0c4555533911b83f282015cc33dab8c10844ec0ba7bfbfa5a60186ef3982514e0e4757513b13ba392e2613ca35dcbec70e42ea0da1b9b9a3a00780e93f845748084151573d15bc3b2c2411c837debcc50c40e80fa3bbbba1a20582eb3d86554a0a4353553f17be35222a1fc639d0b2cb024ee601adb5b5afac0b8ce533885b44044d5d5b3119b03720281dc43bd2b0c9004ce403afb7b7adae098ee7318a5946064f5f59331bb231262e1bc23dd4b6cf064ae205a9b1b1aba80f88e1378c5f400049595f351db433242c19c03fd6b4cd0448e007abb3b3a9aa0d8ae3358e5d42024b5b5d371fb63d2a2217ce31d8bac30a46ee09a5bdbda7a40384ed3b80534c0c4555533911b83f282015cc33dab8c10844ec0ba7bfbfa5a60186ef3982514e0e4757513b13ba392e2613ca35dcbec70e42ea0da1b9b9a3a00780e93f845748084151573d15bc3b2c2411c837debcc50c40e80fa3bbbba1a20582eb3d86554a0a4353553f17be35222a1fc639d0b2cb024ee601adb5b5afac0b8ce533885b44044d5d5b3119b03720281dc43bd2b0c9004ce403afb7b7adae098ee7318a5946064f5f59331bb231262e1bc23dd4b6cf064ae205a9b1b1aba80f88e1378c5f400049595f351db433242c19c03fd6b4cd0448e007abb3b3a9aa0d8ae3358e5d42024b5b5d371fb63d2a2217ce31d8bac30a46ee09a5bdbda7a40384ed3b80534c0c4555533911b83f282015cc33dab8c10844ec0ba7bfbfa5a60186ef3982514e0e4757513b13ba392e2613ca35dcbec70e42ea0da1b9b9a3a00780e93f845748084151573d15bc3b2c2411c837debcc50c40e80fa3bbbba1a20582eb3d86554a0a4353553f17be35222a1fc639d0b2cb024ee601adb5b5a4b3ea18d1adada85e69588c8ad6ff6952053427fb6de70379796f3cbce62f9bf",
        "hex": "6a20558eb133c7b8a1ec18dbbc9e31b46c327f67a29c56ae854c185744782c6678164db004d2a2217ce31d8bac30a46ee09a5bdbda7a40384ed3b80534c0c4555533911b83f282015cc33dab8c10844ec0ba7bfbfa5a60186ef3982514e0e4757513b13ba392e2613ca35dcbec70e42ea0da1b9b9a3a00780e93f845748084151573d15bc3b2c2411c837debcc50c40e80fa3bbbba1a20582eb3d86554a0a4353553f17be35222a1fc639d0b2cb024ee601adb5b5afac0b8ce533885b44044d5d5b3119b03720281dc43bd2b0c9004ce403afb7b7adae098ee7318a5946064f5f59331bb231262e1bc23dd4b6cf064ae205a9b1b1aba80f88e1378c5f400049595f351db433242c19c03fd6b4cd0448e007abb3b3a9aa0d8ae3358e5d42024b5b5d371fb63d2a2217ce31d8bac30a46ee09a5bdbda7a40384ed3b80534c0c4555533911b83f282015cc33dab8c10844ec0ba7bfbfa5a60186ef3982514e0e4757513b13ba392e2613ca35dcbec70e42ea0da1b9b9a3a00780e93f845748084151573d15bc3b2c2411c837debcc50c40e80fa3bbbba1a20582eb3d86554a0a4353553f17be35222a1fc639d0b2cb024ee601adb5b5afac0b8ce533885b44044d5d5b3119b03720281dc43bd2b0c9004ce403afb7b7adae098ee7318a5946064f5f59331bb231262e1bc23dd4b6cf064ae205a9b1b1aba80f88e1378c5f400049595f351db433242c19c03fd6b4cd0448e007abb3b3a9aa0d8ae3358e5d42024b5b5d371fb63d2a2217ce31d8bac30a46ee09a5bdbda7a40384ed3b80534c0c4555533911b83f282015cc33dab8c10844ec0ba7bfbfa5a60186ef3982514e0e4757513b13ba392e2613ca35dcbec70e42ea0da1b9b9a3a00780e93f845748084151573d15bc3b2c2411c837debcc50c40e80fa3bbbba1a20582eb3d86554a0a4353553f17be35222a1fc639d0b2cb024ee601adb5b5afac0b8ce533885b44044d5d5b3119b03720281dc43bd2b0c9004ce403afb7b7adae098ee7318a5946064f5f59331bb231262e1bc23dd4b6cf064ae205a9b1b1aba80f88e1378c5f400049595f351db433242c19c03fd6b4cd0448e007abb3b3a9aa0d8ae3358e5d42024b5b5d371fb63d2a2217ce31d8bac30a46ee09a5bdbda7a40384ed3b80534c0c4555533911b83f282015cc33dab8c10844ec0ba7bfbfa5a60186ef3982514e0e4757513b13ba392e2613ca35dcbec70e42ea0da1b9b9a3a00780e93f845748084151573d15bc3b2c2411c837debcc50c40e80fa3bbbba1a20582eb3d86554a0a4353553f17be35222a1fc639d0b2cb024ee601adb5b5afac0b8ce533885b44044d5d5b3119b03720281dc43bd2b0c9004ce403afb7b7adae098ee7318a5946064f5f59331bb231262e1bc23dd4b6cf064ae205a9b1b1aba80f88e1378c5f400049595f351db433242c19c03fd6b4cd0448e007abb3b3a9aa0d8ae3358e5d42024b5b5d371fb63d2a2217ce31d8bac30a46ee09a5bdbda7a40384ed3b80534c0c4555533911b83f282015cc33dab8c10844ec0ba7bfbfa5a60186ef3982514e0e4757513b13ba392e2613ca35dcbec70e42ea0da1b9b9a3a00780e93f845748084151573d15bc3b2c2411c837debcc50c40e80fa3bbbba1a20582eb3d86554a0a4353553f17be35222a1fc639d0b2cb024ee601adb5b5a4b3ea18d1adada85e69588c8ad6ff6952053427fb6de70379796f3cbce62f9bf",
        "type": "nulldata"
      }
    },
    {
      "value": 499960.3409,
      "n": 1,
      "scriptPubKey": {
        "asm": "1 a927c5f2702c108172923bb9092d6d71589c9847fd6683ab776abcde4bf90c6a",
        "hex": "5120a927c5f2702c108172923bb9092d6d71589c9847fd6683ab776abcde4bf90c6a",
        "reqSigs": 1,
        "type": "witness_v1_scripthash",
        "addresses": [
          "3QJmnh"
        ]
      }
    }
  ],
  "blockhash": "9c49f121af07ca043271baff5049446c1aadf74400091ff8de6bf4087ac8778e",
  "confirmations": 1,
  "time": 1764183425,
  "blocktime": 1764183425
}