{
  "hex": "01000000000101ae4627c2047bd439763d56f7acba96e0d4b03b8e7bb3be479263688cb0fabc770100000000feffffff0200e1f50500000000fdd5046a201d150cc18baa2d2dd9c7347da61d78c1cbc57c61c7c21c260e86c7d44494060d4db004a8a63c6b91d166d48b60947c47c7930d58f9accd095d27d536ccf988ad57975988861c4bb1f146f4ab40b45c67e7b32d78d98ced297d07f516ecd9a88d77b779e8e67c2bd1912694cb20d43c0787d34d18b9ec8d491d6795768cb9c8ed17d719c8c65c0bf1b106b4eb00f41c27a7f36d3899ccad693d47b556ac99e8cd37f7392826bceb1151e6540be014fcc747138dd8792c4d89dda755b64c79082dd717d908069ccb3171c6742bc034dce76733adf8590c6da9fd8775966c59280df737f96866fcab5111a6144ba054bc870753cd98396c0dc99de715f60c39486d9757994846dc8b713186346b80749ca72773edb8194c2de9bdc735d62c19684db777b9a8a63c6b91d166d48b60947c47c7930d58f9accd095d27d536ccf988ad57975988861c4bb1f146f4ab40b45c67e7b32d78d98ced297d07f516ecd9a88d77b779e8e67c2bd1912694cb20d43c0787d34d18b9ec8d491d6795768cb9c8ed17d719c8c65c0bf1b106b4eb00f41c27a7f36d3899ccad693d47b556ac99e8cd37f7392826bceb1151e6540be014fcc747138dd8792c4d89dda755b64c79082dd717d908069ccb3171c6742bc034dce76733adf8590c6da9fd8775966c59280df737f96866fcab5111a6144ba054bc870753cd98396c0dc99de715f60c39486d9757994846dc8b713186346b80749ca72773edb8194c2de9bdc735d62c19684db777b9a8a63c6b91d166d48b60947c47c7930d58f9accd095d27d536ccf988ad57975988861c4bb1f146f4ab40b45c67e7b32d78d98ced297d07f516ecd9a88d77b779e8e67c2bd1912694cb20d43c0787d34d18b9ec8d491d6795768cb9c8ed17d719c8c65c0bf1b106b4eb00f41c27a7f36d3899ccad693d47b556ac99e8cd37f7392826bceb1151e6540be014fcc747138dd8792c4d89dda755b64c79082dd717d908069ccb3171c6742bc034dce76733adf8590c6da9fd8775966c59280df737f96866fcab5111a6144ba054bc870753cd98396c0dc99de715f60c39486d9757994846dc8b713186346b80749ca72773edb8194c2de9bdc735d62c19684db777b9a8a63c6b91d166d48b60947c47c7930d58f9accd095d27d536ccf988ad57975988861c4bb1f146f4ab40b45c67e7b32d78d98ced297d07f516ecd9a88d77b779e8e67c2bd1912694cb20d43c0787d34d18b9ec8d491d6795768cb9c8ed17d719c8c65c0bf1b106b4eb00f41c27a7f36d3899ccad693d47b556ac99e8cd37f7392826bceb1151e6540be014fcc747138dd8792c4d89dda755b64c79082dd717d908069ccb3171c6742bc034dce76733adf8590c6da9fd8775966c59280df737f96866fcab5111a6144ba054bc870753cd98396c0dc99de715f60c39486d9757994846dc8b713186346b80749ca72773edb8194c2de9bdc735d62c19684db777b9a8a63c6b91d166d48b60947c47c7930d58f9accd095d27d536ccf988ad57975988861c4bb1f146f4ab40b45c67e7b32d78d98ced297d07f516ecd9a88d77b779e8e67c2bd1912694cb20d43c0787d34d18b9ec8d491d6795768cb9c8ed17d719c8c65c0bf1b106b4eb00f41c27a7f36d3899ccad693d47b556ac99e8cd37f7392826bceb1151e6540be014fcc747138d8678e72d0b675e2034c21e38e042c1d8f38fee71d2bd6f97132ed2f2f5178669a020df63792d0000225120864675914f0a371c123cae51735d6f204381aa4cadca4544c81577fb213064eb02fd75094a9b48c28a8530f4641f78f033e1c42efbb1d803118726410ff0fc3545eb0bf151820055793a4cba404a1286cdfce37869cabcf5fff518c8cc83f07738cc34855fcb4dc36cb174160d4cdde9ef63a2610704d5f7ea5b59759ae0c14ba9c85d3d571e4ace2c613026dc9c9eabf54458de5ec14784a7be07846f0da2f5d8b6f7bf9e4445c54a7f63f6afd8ef45386b68be8ac59a7f92b81dc3f28ee50d6cef4a30f928574510913902ef4a1028657bcf35753bfe79f0ce6858a62739e42333ace64aaf8f84632332083bfa23f6d8478616d49ef35e44b8cea1e600b6f8f99ed2e331692eb45cbb0988f31702931e10a30bd775d283de8b0b20778a0f149a9bc43bd4dacede801d020bec3e92a487b726bc4750fe5b4c1b5d17f5ad3cc2150605cad905c3e618b45a8833248f7cbfb06852bc83ee73a40e79bee5e97c84717cc144e8bce092df87016c9f94a37d3bf3ef560a1456b280ae0c1701515f12f111e226e70e4e70d3166afec8e0c6a3f51770853230bc8f2873314772fd750fa1e2cae1606e5c2d1ea924cafa3405f74c19c4b333719b947885db6b65a5c6cf72bfc40c7f078d020515fd6f34619ee87e0b4bf3ccfcf6f20123d196edf8f083a9b567811a6c43dab2095ed027e446643e6d5eb52b22a9e3f482a84a139ade99ce85671da338833d3cec72f140b168dbc70caee3297178284da2a24bbddac6948deea5807a6ab91b0203067d3e8f537d9818edb688f4e38315f6b00846f563c4432d55d92e4d8e36359a40984981988d4dfb2d445c005678de59b2efc4cb063aa1a5a25bc2f7422e611e59da53138e7a54cd62f83c95014b0ada4f732522bc2bb2ea30c9b514300037af82900a0d9180ec0a77053146f1f734483b96dce2fba8b79eed486c94f93ccd87953cc17ec3222df76c4e01d5bfa3450651542a89eb4daf3a32bf10a3c67d0df1e5bc8d5542636bfa4fab883747c553904ab2a51e7bdff1d6349db8b2cf27a5c51718d99f10bb6fd055a5ff26109dad3c66b2a8083cd726f27c48904e994a2f3682bc20d5b2fd415519b5d3be0c7f2297c1e61fac98409a6670d5db038705ff0c45b7457350476c8d82413a7765102b0c012d0388e08156bbed915dd4b2d7f1ef6a9d78292e364fc4431b1d7e1d55d8374c99af81d67fbfd9d6ea77583d4d2bd7a9025dcc0e31f52ed8447a259f48ab64ef4e35a24ddb38ec18221477bbdd73d1c67cb14110b053826ec0217a1e49e3a45be588718b7b9d93c5a96b9f0628a5fb0e34de4e89b6ae7df597469a50a6801d70117301f8590e8dbfd20d7ff7bfc5df274d63c3fefbe3a19e3180aea1b6df99df5faa55d156e17aebb111fde2f74a4abf04886de8a3064bc3280b727655df7508b7d178574e395fb54a8029e65aeac3d961aeae08894c0a29031d10ca2d31057f9c353bf0d9a05e2b09e08225803db0a330e07fd9328ceae2174349f7411a1b31417d93d1384db4e011492a5fb666cf8d7c031ff4a2efba54ee8ab47b0b071147a692ccb4a245fd9e1dc30d1cb1174232b3fc8f3958978109756ce2c3b2db19f73cb821c8b15b5cd76fb0d0d28009d17edf718592f1ccea459dc3302716b242b6426fea4564721c79dfee6a90b0c446c8505ac26e7a70edbe6fbb3988562b60118a5c1325a103b186415897aeb9adadfc7683d0c1870008bdd459b901baff46c1a93a66407201b28142de600e7db890f5adf916f089822849a1e1da860b49dfb50253262ae840689f3449dbc57b2fffc23f94badc515ccd8d19bb54d33c7f7e81c431e8df9b4b18f704bd5b6dea7f334f1bb312b148f6cfd8f9656ebad75e0b15494e65160f6dded561c195487ed3e21b7a167500bbf6f577db125567235169f1e480cfbee6ad8e4b4ac6ef002602ebfb1962e51eee1f0cf2f787081e6807b37630c6edc8a6fe823c8ef3ea3643f27e33463c2c5a815c03e62f5865a3d9fe65f255338e19a8458e00cdfea1ab8808d2b5e0e477daf304901b8beb5a426d20c0bb47676798b9851d14eed0597f73ad2d4200740789bf058ae6f6ccc302152f232059901faafa44be416673cb2a2f49dff84a93bc2f62dac661576f51158dc84649adbcafe26cb9d118b95319cdffe9de915e3429dbb37f72e7306c1f448d4223aae92fc2c505ca48081e9d94734701ff009fc130f1713e0e912ce42ce770163fd5733bb6ce6ae99abf111191188202481579b48a31851edb3752dd95f780a02c48e435efd0f833761e57d0ebfec6d6ee159657d5730728789d07c4c34f2592c1506af33936993fab3e35b09cfca48a920f88234981300c2f0a0e7325af940f7604b9d6e8b04a86f0b68453e4223fd0960542ee99c6f4215f7f7433b41c6f4101e637f96dc8f2d8da80ed432d605680e183be9fa107284a764765dec9f6c00afb0c74ce2648685030db17a1d218ef5e799069e113232fdf5911ed878475a302845dca728acb7d7df3ad0275aaab35a478c15e752148f15d9be9566ff067f3165d57b4fe64a26aaf389cd79ab7cfa5cfcc373cfa3632c80334eb4d7c8eff7d2501982ccdc263f39e3356b8176efdbe2bb4a8e9fe42f84425c54a51766cea7dd75d4975030a33433bc5667756862ad32ae6c967ce9bdc6dffdcc0d8560d6a99b7206d5cdbbb7de4eff5fe438d61f8c004d2240bcd4d8a199e3213c0ecfc1a47df78bfc3e35bb2909b204cbfabd16e2d0b9f60973f479d660f4a5b557413263beafab2899eb8940f9852ac2c4976878cf79f4329ce1d6dcc8ac6abe783bc7978fec9387d72a646f6300ffe98d91b6cd4ce6e846c5e5e04b4af5b93e3821aaeef1aac25e1422ab3a7c462c41dcabc0dc53c92161ab3ae7ab4987cc31e0990f271643e210cec6261b2e235637d3c29180bda575b1c5b282ba9928877d74ac28116a1a02a06264e6e3ac72b9836fdc0373a131c50b41d486b3def84d77ebe9d8aa8869afe36c659e61611d3ee9b99f5d07ff606d023e31df59d48a0517237843af3b59421b5602798317cf0a418bb59640318eb678ac316a0e151a40855e73747d33ee9699f4bc50b190ada27ca450271b260fd0a7bfe4a8f9e6f4d8daf680454c3a73fdb1c11bf4c524f2523aafa947ac06b6f09cd57f849e2f27416ebc1e3cca22eb2036c64342be52b821c28fd0854154dc0bce2a7968e15ed509a29d5e7db8721c87c497bb0b25c8455652e907d9a7e1b32bceae8c81a2dd3387a1c2e824a2aaba5e746c33e82390c0e7c90c1eaa6a3ccbc8b09da394a3dda30197f2781876975347578d169337ab22313e4020a1217282c4c687890a1a7aab9bed2d4d8e1eef729546d7487889195a7b3bfde2b2c37526682a4abacaebfc0cdd4d8e1eceffb0a0d0e121b272f32368081839297a7b2d7ebf8fd00000000000000001521344801fd210500d3b5b3b731d2d84be5d0b18f888207e8cd3bdb5611fb5e161c5c22e34e7eec3730178a7768523565c41f354e884e38a0ccb03058e48ba1ed613d008c1046fbcdde0ca316ab3818c66550010c4c5d70adb914f07b9a7a25dcda89edb8764cb622a7269018b8f7baa4084d9c2cf31e7b593a8690210da6567def362f0927343644a2cc79c1bf53b1e44982dbb86c945a8aba4e139538f33bba10d0a11e4050b6226e93b683271947d848853c08873d6ed56531f990b74197117e9fe721869f3d398039de7391c48418bb0b4e79455f4934fa63dfa7e5d3712378a3df04ba9a08caa9383237fe431e5633c590d69a0c8be7e7941d99df604a032fdd29195503429a1bb46e526a6723beaf43b6e0d55c63e6e0940b50d5c751db48717d255a1784480f4c622bbcdab6257c510cbdf03e30a6149f0567d8fc0a97a83db2e0d808acccf72f3842ed24d2ec7097bbd86debcd2abb4fd2444f8f4a6fa7e6e87248be4262201b9f493927de00d0e05c61e16b1c9795ff0bb89263966c4c272445b8efdd8a86cd26e3824e3e3a5287ef03786fed0ae5cd4a2b06e098c38c942f48ab4bbcb7cda8b673b4c1a64e6c803cdb86c21ee4a1a0b3af1921eb2b8c1c385907431037e1fa9680e173e572752d9aa76eabd522662a225c0dd06918a1dc0cd63fe9a51f65aa97bd1bef057544d638f1fbe6ca44b01db7e8913d9894313e980a9ad549635997805ec035c804e788622821b8d5052793310ae3c24c0fbe05816d8bd9ab0358755eea51ad79d9ff4f0477d85a9410941e77e7b1ffbea0db8ae7fba59df72d38f14ddec5abafd882a902da47406a847ac026b8f33c6e802cea8e1325aaee7eee42f7b0dc851922beaa0a1e2d22d4781b27e7621ed76f2012fa3db734960d7a3b1a4ca527d18c529d5f8a617180767314fad08e1c2f44762f95b270571239ae3d2045c3274113d110b39a8aada34c7fb42ee2852a6a4b37841c681a912eb9cd55135ced0ef9e34d430d6853a4ef0771dc812ce796714936daf23f58f5596a45f84a0583e3bc69a5d0a932d4d1addc12fb911d058b25b29d30670f70bbc55552150b375b004aa90b306a8878781cce884a277da8fe6a79497a0d53c5e11677be35dce6be7a6d1916ebdf936ac5632b4e4b83564c32fda4734909b495e6924bf6109bd404817210b235ed73b48dac94bbc43b01edc8df0a89eb55a62aec3cc146b75bccbbeedc811cb2fcf664b62cef0a9795b83b718df03bb1a15ffc21e28c4cbed21c580b27dc5b20067b43fbdfd0e6715ff7a9daa1571b2dab83382aebfd8103ba75fa54ea6171a586bf9de6ed4565516927525c8ee17de7ad7f65c8a12e216655137aa46332efb1aae3426f80f52ff0e42362635e8ec55ae63dedc684d6cd799765b6457fe2c7ab5827eabbe83cd8db4153f1d3a16efb87c57428ee3b6e17096242e8b0006b30eafe64cf620200b6b5b6af6e1029ed52ac2334b3b4d522b779d00fc0d1c44616e8797bfc872387287db3aa52f748f9b0e53638b5603141fdb1c427ecbe1a895da2ea3bdf116c3e5eb59e7d4708f1ac693f9dc2e7668b065978de25b4bd879cff753ba070b0eda4520aad8437697d2173bd65e1d5b13738790d9ccc7bc46307515c3aca9046b7984122efb5d99ac917af92d33cc0d8c3739f6f37e89a488d73f37ec96d01a09ef3af7ac2129a76628d22a93f3fea1623b3f489caf67e97003006e00e13bb3c5e41b2169fc73e270b5b4cb44d0353a4cd57df0d4e6752375c3ae3ee4599c97e5ba413c647db4dd38cc7516d6bc3b2ffa51ece141b084f80ec0d328d140aa92b1cb88ed3524a8c4566e9acef0d05ef70470d7b68000000",
  "txid": "d44f7799af8b71e0718af88872596cb032c6d1d6a2b89240eb4e19351c0f5ed8",
  "hash": "1035efad345bfee36f5a0930ef464837df86d78402e551de083cc8c41bd06d68",
  "size": 5085,
  "vsize": 2278,
  "version": 1,
  "locktime": 104,
  "vin": [
    {
      "txid": "77bcfab08c68639247beb37b8e3bb0d4e096baacf7563d7639d47b04c22746ae",
      "vout": 1,
      "scriptSig": {
        "asm": "",
        "hex": ""
      },
      "txinwitness": [
        "4a9b48c28a8530f4641f78f033e1c42efbb1d803118726410ff0fc3545eb0bf151820055793a4cba404a1286cdfce37869cabcf5fff518c8cc83f07738cc34855fcb4dc36cb174160d4cdde9ef63a2610704d5f7ea5b59759ae0c14ba9c85d3d571e4ace2c613026dc9c9eabf54458de5ec14784a7be07846f0da2f5d8b6f7bf9e4445c54a7f63f6afd8ef45386b68be8ac59a7f92b81dc3f28ee50d6cef4a30f928574510913902ef4a1028657bcf35753bfe79f0ce6858a62739e42333ace64aaf8f84632332083bfa23f6d8478616d49ef35e44b8cea1e600b6f8f99ed2e331692eb45cbb0988f31702931e10a30bd775d283de8b0b20778a0f149a9bc43bd4dacede801d020bec3e92a487b726bc4750fe5b4c1b5d17f5ad3cc2150605cad905c3e618b45a8833248f7cbfb06852bc83ee73a40e79bee5e97c84717cc144e8bce092df87016c9f94a37d3bf3ef560a1456b280ae0c1701515f12f111e226e70e4e70d3166afec8e0c6a3f51770853230bc8f2873314772fd750fa1e2cae1606e5c2d1ea924cafa3405f74c19c4b333719b947885db6b65a5c6cf72bfc40c7f078d020515fd6f34619ee87e0b4bf3ccfcf6f20123d196edf8f083a9b567811a6c43dab2095ed027e446643e6d5eb52b22a9e3f482a84a139ade99ce85671da338833d3cec72f140b168dbc70caee3297178284da2a24bbddac6948deea5807a6ab91b0203067d3e8f537d9818edb688f4e38315f6b00846f563c4432d55d92e4d8e36359a40984981988d4dfb2d445c005678de59b2efc4cb063aa1a5a25bc2f7422e611e59da53138e7a54cd62f83c95014b0ada4f732522bc2bb2ea30c9b514300037af82900a0d9180ec0a77053146f1f734483b96dce2fba8b79eed486c94f93ccd87953cc17ec3222df76c4e01d5bfa3450651542a89eb4daf3a32bf10a3c67d0df1e5bc8d5542636bfa4fab883747c553904ab2a51e7bdff1d6349db8b2cf27a5c51718d99f10bb6fd055a5ff26109dad3c66b2a8083cd726f27c48904e994a2f3682bc20d5b2fd415519b5d3be0c7f2297c1e61fac98409a6670d5db038705ff0c45b7457350476c8d82413a7765102b0c012d0388e08156bbed915dd4b2d7f1ef6a9d78292e364fc4431b1d7e1d55d8374c99af81d67fbfd9d6ea77583d4d2bd7a9025dcc0e31f52ed8447a259f48ab64ef4e35a24ddb38ec18221477bbdd73d1c67cb14110b053826ec0217a1e49e3a45be588718b7b9d93c5a96b9f0628a5fb0e34de4e89b6ae7df597469a50a6801d70117301f8590e8dbfd20d7ff7bfc5df274d63c3fefbe3a19e3180aea1b6df99df5faa55d156e17aebb111fde2f74a4abf04886de8a3064bc3280b727655df7508b7d178574e395fb54a8029e65aeac3d961aeae08894c0a29031d10ca2d31057f9c353bf0d9a05e2b09e08225803db0a330e07fd9328ceae2174349f7411a1b31417d93d1384db4e011492a5fb666cf8d7c031ff4a2efba54ee8ab47b0b071147a692ccb4a245fd9e1dc30d1cb1174232b3fc8f3958978109756ce2c3b2db19f73cb821c8b15b5cd76fb0d0d28009d17edf718592f1ccea459dc3302716b242b6426fea4564721c79dfee6a90b0c446c8505ac26e7a70edbe6fbb3988562b60118a5c1325a103b186415897aeb9adadfc7683d0c1870008bdd459b901baff46c1a93a66407201b28142de600e7db890f5adf916f089822849a1e1da860b49dfb50253262ae840689f3449dbc57b2fffc23f94badc515ccd8d19bb54d33c7f7e81c431e8df9b4b18f704bd5b6dea7f334f1bb312b148f6cfd8f9656ebad75e0b15494e65160f6dded561c195487ed3e21b7a167500bbf6f577db125567235169f1e480cfbee6ad8e4b4ac6ef002602ebfb1962e51eee1f0cf2f787081e6807b37630c6edc8a6fe823c8ef3ea3643f27e33463c2c5a815c03e62f5865a3d9fe65f255338e19a8458e00cdfea1ab8808d2b5e0e477daf304901b8beb5a426d20c0bb47676798b9851d14eed0597f73ad2d4200740789bf058ae6f6ccc302152f232059901faafa44be416673cb2a2f49dff84a93bc2f62dac661576f51158dc84649adbcafe26cb9d118b95319cdffe9de915e3429dbb37f72e7306c1f448d4223aae92fc2c505ca48081e9d94734701ff009fc130f1713e0e912ce42ce770163fd5733bb6ce6ae99abf111191188202481579b48a31851edb3752dd95f780a02c48e435efd0f833761e57d0ebfec6d6ee159657d5730728789d07c4c34f2592c1506af33936993fab3e35b09cfca48a920f88234981300c2f0a0e7325af940f7604b9d6e8b04a86f0b68453e4223fd0960542ee99c6f4215f7f7433b41c6f4101e637f96dc8f2d8da80ed432d605680e183be9fa107284a764765dec9f6c00afb0c74ce2648685030db17a1d218ef5e799069e113232fdf5911ed878475a302845dca728acb7d7df3ad0275aaab35a478c15e752148f15d9be9566ff067f3165d57b4fe64a26aaf389cd79ab7cfa5cfcc373cfa3632c80334eb4d7c8eff7d2501982ccdc263f39e3356b8176efdbe2bb4a8e9fe42f84425c54a51766cea7dd75d4975030a33433bc5667756862ad32ae6c967ce9bdc6dffdcc0d8560d6a99b7206d5cdbbb7de4eff5fe438d61f8c004d2240bcd4d8a199e3213c0ecfc1a47df78bfc3e35bb2909b204cbfabd16e2d0b9f60973f479d660f4a5b557413263beafab2899eb8940f9852ac2c4976878cf79f4329ce1d6dcc8ac6abe783bc7978fec9387d72a646f6300ffe98d91b6cd4ce6e846c5e5e04b4af5b93e3821aaeef1aac25e1422ab3a7c462c41dcabc0dc53c92161ab3ae7ab4987cc31e0990f271643e210cec6261b2e235637d3c29180bda575b1c5b282ba9928877d74ac28116a1a02a06264e6e3ac72b9836fdc0373a131c50b41d486b3def84d77ebe9d8aa8869afe36c659e61611d3ee9b99f5d07ff606d023e31df59d48a0517237843af3b59421b5602798317cf0a418bb59640318eb678ac316a0e151a40855e73747d33ee9699f4bc50b190ada27ca450271b260fd0a7bfe4a8f9e6f4d8daf680454c3a73fdb1c11bf4c524f2523aafa947ac06b6f09cd57f849e2f27416ebc1e3cca22eb2036c64342be52b821c28fd0854154dc0bce2a7968e15ed509a29d5e7db8721c87c497bb0b25c8455652e907d9a7e1b32bceae8c81a2dd3387a1c2e824a2aaba5e746c33e82390c0e7c90c1eaa6a3ccbc8b09da394a3dda30197f2781876975347578d169337ab22313e4020a1217282c4c687890a1a7aab9bed2d4d8e1eef729546d7487889195a7b3bfde2b2c37526682a4abacaebfc0cdd4d8e1eceffb0a0d0e121b272f32368081839297a7b2d7ebf8fd00000000000000001521344801",
        "00d3b5b3b731d2d84be5d0b18f888207e8cd3bdb5611fb5e161c5c22e34e7eec3730178a7768523565c41f354e884e38a0ccb03058e48ba1ed613d008c1046fbcdde0ca316ab3818c66550010c4c5d70adb914f07b9a7a25dcda89edb8764cb622a7269018b8f7baa4084d9c2cf31e7b593a8690210da6567def362f0927343644a2cc79c1bf53b1e44982dbb86c945a8aba4e139538f33bba10d0a11e4050b6226e93b683271947d848853c08873d6ed56531f990b74197117e9fe721869f3d398039de7391c48418bb0b4e79455f4934fa63dfa7e5d3712378a3df04ba9a08caa9383237fe431e5633c590d69a0c8be7e7941d99df604a032fdd29195503429a1bb46e526a6723beaf43b6e0d55c63e6e0940b50d5c751db48717d255a1784480f4c622bbcdab6257c510cbdf03e30a6149f0567d8fc0a97a83db2e0d808acccf72f3842ed24d2ec7097bbd86debcd2abb4fd2444f8f4a6fa7e6e87248be4262201b9f493927de00d0e05c61e16b1c9795ff0bb89263966c4c272445b8efdd8a86cd26e3824e3e3a5287ef03786fed0ae5cd4a2b06e098c38c942f48ab4bbcb7cda8b673b4c1a64e6c803cdb86c21ee4a1a0b3af1921eb2b8c1c385907431037e1fa9680e173e572752d9aa76eabd522662a225c0dd06918a1dc0cd63fe9a51f65aa97bd1bef057544d638f1fbe6ca44b01db7e8913d9894313e980a9ad549635997805ec035c804e788622821b8d5052793310ae3c24c0fbe05816d8bd9ab0358755eea51ad79d9ff4f0477d85a9410941e77e7b1ffbea0db8ae7fba59df72d38f14ddec5abafd882a902da47406a847ac026b8f33c6e802cea8e1325aaee7eee42f7b0dc851922beaa0a1e2d22d4781b27e7621ed76f2012fa3db734960d7a3b1a4ca527d18c529d5f8a617180767314fad08e1c2f44762f95b270571239ae3d2045c3274113d110b39a8aada34c7fb42ee2852a6a4b37841c681a912eb9cd55135ced0ef9e34d430d6853a4ef0771dc812ce796714936daf23f58f5596a45f84a0583e3bc69a5d0a932d4d1addc12fb911d058b25b29d30670f70bbc55552150b375b004aa90b306a8878781cce884a277da8fe6a79497a0d53c5e11677be35dce6be7a6d1916ebdf936ac5632b4e4b83564c32fda4734909b495e6924bf6109bd404817210b235ed73b48dac94bbc43b01edc8df0a89eb55a62aec3cc146b75bccbbeedc811cb2fcf664b62cef0a9795b83b718df03bb1a15ffc21e28c4cbed21c580b27dc5b20067b43fbdfd0e6715ff7a9daa1571b2dab83382aebfd8103ba75fa54ea6171a586bf9de6ed4565516927525c8ee17de7ad7f65c8a12e216655137aa46332efb1aae3426f80f52ff0e42362635e8ec55ae63dedc684d6cd799765b6457fe2c7ab5827eabbe83cd8db4153f1d3a16efb87c57428ee3b6e17096242e8b0006b30eafe64cf620200b6b5b6af6e1029ed52ac2334b3b4d522b779d00fc0d1c44616e8797bfc872387287db3aa52f748f9b0e53638b5603141fdb1c427ecbe1a895da2ea3bdf116c3e5eb59e7d4708f1ac693f9dc2e7668b065978de25b4bd879cff753ba070b0eda4520aad8437697d2173bd65e1d5b13738790d9ccc7bc46307515c3aca9046b7984122efb5d99ac917af92d33cc0d8c3739f6f37e89a488d73f37ec96d01a09ef3af7ac2129a76628d22a93f3fea1623b3f489caf67e97003006e00e13bb3c5e41b2169fc73e270b5b4cb44d0353a4cd57df0d4e6752375c3ae3ee4599c97e5ba413c647db4dd38cc7516d6bc3b2ffa51ece141b084f80ec0d328d140aa92b1cb88ed3524a8c4566e9acef0d05ef70470d7b"
      ],
      "sequence": 4294967294
    }
  ],
  "vout": [
    {
      "value": 1.0,
      "n": 0,
      "scriptPubKey": {
        "asm": "OP_RETURN 1d150cc18baa2d2dd9c7347da61d78c1cbc57c61c7c21c260e86c7d44494060d a8a63c6b91d166d48b60947c47c7930d58f9accd095d27d536ccf988ad57975988861c4bb1f146f4ab40b45c67e7b32d78d98ced297d07f516ecd9a88d77b779e8e67c2bd1912694cb20d43c0787d34d18b9ec8d491d6795768cb9c8ed17d719c8c65c0bf1b106b4eb00f41c27a7f36d3899ccad693d47b556ac99e8cd37f7392826bceb1151e6540be014fcc747138dd8792c4d89dda755b64c79082dd717d908069ccb3171c6742bc034dce76733adf8590c6da9fd8775966c59280df737f96866fcab5111a6144ba054bc870753cd98396c0dc99de715f60c39486d9757994846dc8b713186346b80749ca72773edb8194c2de9bdc735d62c19684db777b9a8a63c6b91d166d48b60947c47c7930d58f9accd095d27d536ccf988ad57975988861c4bb1f146f4ab40b45c67e7b32d78d98ced297d07f516ecd9a88d77b779e8e67c2bd1912694cb20d43c0787d34d18b9ec8d491d6795768cb9c8ed17d719c8c65c0bf1b106b4eb00f41c27a7f36d3899ccad693d47b556ac99e8cd37f7392826bceb1151e6540be014fcc747138dd8792c4d89dda755b64c79082dd717d908069ccb3171c6742bc034dce76733adf8590c6da9fd8775966c59280df737f96866fcab5111a6144ba054bc870753cd98396c0dc99de715f60c39486d9757994846dc8b713186346b80749ca72773edb8194c2de9bdc735d62c19684db777b9a8a63c6b91d166d48b60947c47c7930d58f9accd095d27d536ccf988ad57975988861c4bb1f146f4ab40b45c67e7b32d78d98ced297d07f516ecd9a88d77b779e8e67c2bd1912694cb20d43c0787d34d18b9ec8d491d6795768cb9c8ed17d719c8c65c0bf1b106b4eb00f41c27a7f36d3899ccad693d47b556ac99e8cd37f7392826bceb1151e6540be014fcc747138dd8792c4d89dda755b64c79082dd717d908069ccb3171c6742bc034dce76733adf8590c6da9fd8775966c59280df737f96866fcab5111a6144ba054bc870753cd98396c0dc99de715f60c39486d9757994846dc8b713186346b80749ca72773edb8194c2de9bdc735d62c19684db777b9a8a63c6b91d166d48b60947c47c7930d58f9accd095d27d536ccf988ad57975988861c4bb1f146f4ab40b45c67e7b32d78d98ced297d07f516ecd9a88d77b779e8e67c2bd1912694cb20d43c0787d34d18b9ec8d491d6795768cb9c8ed17d719c8c65c0bf1b106b4eb00f41c27a7f36d3899ccad693d47b556ac99e8cd37f7392826bceb1151e6540be014fcc747138dd8792c4d89dda755b64c79082dd717d908069ccb3171c6742bc034dce76733adf8590c6da9fd8775966c59280df737f96866fcab5111a6144ba054bc870753cd98396c0dc99de715f60c39486d9757994846dc8b713186346b80749ca72773edb8194c2de9bdc735d62c19684db777b9a8a63c6b91d166d48b60947c47c7930d58f9accd095d27d536ccf988ad57975988861c4bb1f146f4ab40b45c67e7b32d78d98ced297d07f516ecd9a88d77b779e8e67c2bd1912694cb20d43c0787d34d18b9ec8d491d6795768cb9c8ed17d719c8c65c0bf1b106b4eb00f41c27a7f36d3899ccad693d47b556ac99e8cd37f7392826bceb1151e6540be014fcc747138d8678e72d0b675e2034c21e38e042c1d8f38fee71d2bd6f97132ed2f2f5178669",
        "hex": "6a201d150cc18baa2d2dd9c7347da61d78c1cbc57c61c7c21c260e86c7d44494060d4db004a8a63c6b91d166d48b60947c47c7930d58f9accd095d27d536ccf988ad57975988861c4bb1f146f4ab40b45c67e7b32d78d98ced297d07f516ecd9a88d77b779e8e67c2bd1912694cb20d43c0787d34d18b9ec8d491d6795768cb9c8ed17d719c8c65c0bf1b106b4eb00f41c27a7f36d3899ccad693d47b556ac99e8cd37f7392826bceb1151e6540be014fcc747138dd8792c4d89dda755b64c79082dd717d908069ccb3171c6742bc034dce76733adf8590c6da9fd8775966c59280df737f96866fcab5111a6144ba054bc870753cd98396c0dc99de715f60c39486d9757994846dc8b713186346b80749ca72773edb8194c2de9bdc735d62c19684db777b9a8a63c6b91d166d48b60947c47c7930d58f9accd095d27d536ccf988ad57975988861c4bb1f146f4ab40b45c67e7b32d78d98ced297d07f516ecd9a88d77b779e8e67c2bd1912694cb20d43c0787d34d18b9ec8d491d6795768cb9c8ed17d719c8c65c0bf1b106b4eb00f41c27a7f36d3899ccad693d47b556ac99e8cd37f7392826bceb1151e6540be014fcc747138dd8792c4d89dda755b64c79082dd717d908069ccb3171c6742bc034dce76733adf8590c6da9fd8775966c59280df737f96866fcab5111a6144ba054bc870753cd98396c0dc99de715f60c39486d9757994846dc8b713186346b80749ca72773edb8194c2de9bdc735d62c19684db777b9a8a63c6b91d166d48b60947c47c7930d58f9accd095d27d536ccf988ad57975988861c4bb1f146f4ab40b45c67e7b32d78d98ced297d07f516ecd9a88d77b779e8e67c2bd1912694cb20d43c0787d34d18b9ec8d491d6795768cb9c8ed17d719c8c65c0bf1b106b4eb00f41c27a7f36d3899ccad693d47b556ac99e8cd37f7392826bceb1151e6540be014fcc747138dd8792c4d89dda755b64c79082dd717d908069ccb3171c6742bc034dce76733adf8590c6da9fd8775966c59280df737f96866fcab5111a6144ba054bc870753cd98396c0dc99de715f60c39486d9757994846dc8b713186346b80749ca72773edb8194c2de9bdc735d62c19684db777b9a8a63c6b91d166d48b60947c47c7930d58f9accd095d27d536ccf988ad57975988861c4bb1f146f4ab40b45c67e7b32d78d98ced297d07f516ecd9a88d77b779e8e67c2bd1912694cb20d43c0787d34d18b9ec8d491d6795768cb9c8ed17d719c8c65c0bf1b106b4eb00f41c27a7f36d3899ccad693d47b556ac99e8cd37f7392826bceb1151e6540be014fcc747138dd8792c4d89dda755b64c79082dd717d908069ccb3171c6742bc034dce76733adf8590c6da9fd8775966c59280df737f96866fcab5111a6144ba054bc870753cd98396c0dc99de715f60c39486d9757994846dc8b713186346b80749ca72773edb8194c2de9bdc735d62c19684db777b9a8a63c6b91d166d48b60947c47c7930d58f9accd095d27d536ccf988ad57975988861c4bb1f146f4ab40b45c67e7b32d78d98ced297d07f516ecd9a88d77b779e8e67c2bd1912694cb20d43c0787d34d18b9ec8d491d6795768cb9c8ed17d719c8c65c0bf1b106b4eb00f41c27a7f36d3899ccad693d47b556ac99e8cd37f7392826bceb1151e6540be014fcc747138d8678e72d0b675e2034c21e38e042c1d8f38fee71d2bd6f97132ed2f2f5178669",
        "type": "nulldata"
      }
    },
    {
      "value": 499993.8986,
      "n": 1,
      "scriptPubKey": {
        "asm": "1 864675914f0a371c123cae51735d6f204381aa4cadca4544c81577fb213064eb",
        "hex": "5120864675914f0a371c123cae51735d6f204381aa4cadca4544c81577fb213064eb",
        "reqSigs": 1,
        "type": "witness_v1_scripthash",
        "addresses": [
          "3QJmnh"
        ]
      }
    }
  ],
  "blockhash": "32a2d379a33ec88ae1cb3a8a1a44f2d12b76aebf574ecf7ac16b289397ed6cd9",
  "confirmations": 1,
  "time": 1764176557,
  "blocktime": 1764176557
}