{
  "hex": "010000000001018ebd93c9636d83690b677921c49e42ff9ac16b05adb0396019b8800de7c78b460000000000feffffff023022f408792d0000225120f66ea2f5870cad26223b5a9f132f7885005d67e33af410c88301d56339c8db7f00e1f50500000000fdd5046a20e14a4c514406268df8f58c532abbe90ad575b2a5e837a1ff993fec39b46369b04db004af5fbd8ff2aa4561e5dcc09dc928777346f6769dccc1176e5a9f595458aa3c498f7f9dafd28a6541c5fce0bde908575366d656bdece1374e7abf7974788a1c69ef1ffdcfb2ea0521a59c80dd8968373306b636dd8c81572e1adf191418ea7c09cf3fddef92ca250185bca0fda9481713269616fdaca1770e3aff393438ca5c292fdf3d0f722ac5e1655c401d49a8f7f3c676f61d4c4197eeda1fd9d4d82abcc90fff1d2f520ae5c1457c603d6988d7d3e656d63d6c61b7cefa3ff9f4f80a9ce96f9f7d4f326a85a1251c005d09e8b7b38636b65d0c01d7ae9a5f9994986afc894fbf5d6f124aa581053c207d29c89793a616967d2c21f78eba7fb9b4b84adca9af5fbd8ff2aa4561e5dcc09dc928777346f6769dccc1176e5a9f595458aa3c498f7f9dafd28a6541c5fce0bde908575366d656bdece1374e7abf7974788a1c69ef1ffdcfb2ea0521a59c80dd8968373306b636dd8c81572e1adf191418ea7c09cf3fddef92ca250185bca0fda9481713269616fdaca1770e3aff393438ca5c292fdf3d0f722ac5e1655c401d49a8f7f3c676f61d4c4197eeda1fd9d4d82abcc90fff1d2f520ae5c1457c603d6988d7d3e656d63d6c61b7cefa3ff9f4f80a9ce96f9f7d4f326a85a1251c005d09e8b7b38636b65d0c01d7ae9a5f9994986afc894fbf5d6f124aa581053c207d29c89793a616967d2c21f78eba7fb9b4b84adca9af5fbd8ff2aa4561e5dcc09dc928777346f6769dccc1176e5a9f595458aa3c498f7f9dafd28a6541c5fce0bde908575366d656bdece1374e7abf7974788a1c69ef1ffdcfb2ea0521a59c80dd8968373306b636dd8c81572e1adf191418ea7c09cf3fddef92ca250185bca0fda9481713269616fdaca1770e3aff393438ca5c292fdf3d0f722ac5e1655c401d49a8f7f3c676f61d4c4197eeda1fd9d4d82abcc90fff1d2f520ae5c1457c603d6988d7d3e656d63d6c61b7cefa3ff9f4f80a9ce96f9f7d4f326a85a1251c005d09e8b7b38636b65d0c01d7ae9a5f9994986afc894fbf5d6f124aa581053c207d29c89793a616967d2c21f78eba7fb9b4b84adca9af5fbd8ff2aa4561e5dcc09dc928777346f6769dccc1176e5a9f595458aa3c498f7f9dafd28a6541c5fce0bde908575366d656bdece1374e7abf7974788a1c69ef1ffdcfb2ea0521a59c80dd8968373306b636dd8c81572e1adf191418ea7c09cf3fddef92ca250185bca0fda9481713269616fdaca1770e3aff393438ca5c292fdf3d0f722ac5e1655c401d49a8f7f3c676f61d4c4197eeda1fd9d4d82abcc90fff1d2f520ae5c1457c603d6988d7d3e656d63d6c61b7cefa3ff9f4f80a9ce96f9f7d4f326a85a1251c005d09e8b7b38636b65d0c01d7ae9a5f9994986afc894fbf5d6f124aa581053c207d29c89793a616967d2c21f78eba7fb9b4b84adca9af5fbd8ff2aa4561e5dcc09dc928777346f6769dccc1176e5a9f595458aa3c498f7f9dafd28a6541c5fce0bde908575366d656bdece1374e7abf7974788a1c69ef1ffdcfb2ea0521a59c80dd8968373306b636dd8c81572e1adf191418ea7c09cf3fddef92ca250185bca0fda9481713269616fdaca1770e3aff393438ca5c292fdf3d0f722ac5e1655c401d49a8f7f35a95f7a8f10e6d6794b3eab59d55c560e01154a9d3a80a176e2abb172cac7a8c02fd750908626ad88892c1122ec0ab3e19cac6a57fc4be03b64176ef01be408b612b95b13cdf4895f33fdbc4b6857ed8026068951be55d935136e57c0f6f29121afaabf224a5aaff6fa0621fc2b312d99d45194e30b7963614b9e3dc4d26e08a2830fd5f3457dc8267f48bdcfd79d225f16cfd0f8e2475b3048762fa00d6ed1fc9deca89c739008109422e296ba0bb3560e47a48e620caa8bf6a623f94a85e248d9a157a4dad2d5b45c5def90b4468b95f1e2f103f54277cff916bb14acf875cf109314c471c09725254baf194008c3bf50becb0029a00af9fe8bab0d641967af87a6608969f79a5e29c81a55e3381f386835f7a010700f4348532f8c6b68e9879bb813e5cbf827fd97d86860d65835918dbdb2702e7875765795574983ff2cc31d3765c7563922364e68b1185ae722925bedfaca7a174841726888a093edb43561cde8023365ef0e292eb924dd7be59019e61bf27e85d9ea2b49b6d3a77f5c17f8cc76dceb2ced02abbb531ead9f27a5a78f21b8a559ab7345b7fb8628923e767a2f27feecaa2ac300e89dc773d98768460f3482cb45c5cc4ec92bd6843084723ca3fc5e475c70e79224a2ce7a71ec0e556a330caee886a159bf971f23f748272a8ae852d897c22ab6cfcf5a2f87a9ace0ab623815f1a8d4332607255e1c8103b4413d8b49da1a3d8b45f544306724365f1af26a7b8b60ec0b034b397019bcd31cad6eb56233cb0b8dc09d84c4322995864efedb3cbbe16e730ab6722422e40382a5ee70ca7116e06b17645e3c683c5a7abceebcf3f75d6646158f2a1f93e6040a59d684db3fd1da56e1cfa43d9af44c93022d71462ef0012b73462135b027182bbccd28a0dfa537a5c848481d00946596f51a11056eae9626975b6dd63bc8d640129429fc5bc74ab5223d1d0bccb96a4c585b71e408e85fa0aa304baaec41fc13d39a4792155f10c3bc1e925bb2e54f74fe7570446a5ba187e33226b5f76cd34df525c36c9862030ae7abbbb128b999f75bcf1b831791c4435660347413c6abc787d1ae113d88b61493140a1dbb9c3a8611371d638a00da516d24a3468d6a2638d1afb29e9ed7bc810d8265b1a6730930d473dbd6da1d521a29d590742fe72abdf6b992cb3ec26db585b9521dd9461f51451cfb66427aecb2cdaa2d53d53d9b1b5d89caa82f0e4544753a1379b549514d15632831488c2df2a19f42a98c91ec6fb8a124efa610d145ce4843b7170e9cfda07892ad1af1e9732bb0d52e37cdae36211b841494e73834f465a5d969817086140deb851e33a548a21d7a1c76e22f7340fd993dad1bf381ab97fbef2cf88d1bd24fb2955e1f0da66085a9c3c34dad1812e10af63e35a30b63f301cb3b13c9d3835fb78d0e0cbd4e851142691f38ddb81d921334c8a512307b38f130472cea200070c5a83a999a1423e57d57f036d209de3b3fcb7cb52fa69f7a55b552d63624610376745d46ea8c8b7ec274fa541dc1e93e1f9823ab3529709fba0111510aef2976b5223257d561ddd78396bbadabaa51ae9be87da1ba87b1c1757ca9e944197ac31071d5848f2e000b3951535ba266c913d8f3753e17d891feffc0e796f4ddbc5b3b3e9d5d270d292d037ee25eb3ab964d421f4c5df99077acd386eee12cba6fa4c5672428a6622b812c626cce5d97fe38d6000f5a135265795a314c07bea0ebcba9ad832523fb2e231cf001a44f11dd6a6ae03407f29230d6b971e2bdeb81d49d79232b9140c3335b42648a097e8c885343ac05075bfc8cc6919980be002f4879a9318fed0553e187cc270022cdb49e4af6460ed1e30f688bc7facffaeacd0ffe0249692fa959bebe94192d82b48dcb89f8b31a4957af9b980344502bf15f52ec0decd3d4f6d80e2a95a0df29adf75a24173f2bc5d4c0592384bd317eab334463ee94bacd5225eec5dab2d3f82794d3f86f73486b742ecef78ddec0f3bc299b4c1d2b196a6d6d71736930bccef76275819f958ff08ce2d452d846d8edabda609a07b75cc54694862cb2056bf9ad0f204d40a05d6afde1f56addeb1007a2a2e2b7edd6f49dff19fa8ab2051b0cdd945b5be0caaf6e0462ddd471348586e12f51a8361ad659ec14d91903eea9fb9365095783f6bd2cbb20ffa2a91cb362d12316a0c0555925db7e542d109250d339caa7f334a9597c97f8fbecfc4984df9ea79e8e4d393388f6a8e1936ecfa3d4909653bf81b1869d1acd8643cda585f3ad4ca0f40b980a26bb24119c2d7b360a77c67478169f93aa507b5146028bd7fcff48f53f5c353961d5f5543dc3931d2f29c73f853ff8ddd2fa1abc29284326c11a1fcee9fc1844490a8a02f98ae8e208152870df88cde74ec4af074ab486212276e6341e3af9b1fd8b5cc87992e3a7e2704381ead2ebc5d040d2a8bd463c64ff82f626bce6586a522b9d0c4de4c0f4b91b68bf476e4ec20364dda2dfc05afa6d75ec41ac4f5dbe2791ce179f9b39dc8602e02554f5b1ccee42a7a2f5ffbf6cbe90aeef26e12fb8530136a633fa31f6757d66252e79bd47518082fedb2360eb2fbcca6116344715b77e5c9545bc6be6cfa5dae6427602393c6592554dcc307bfff311142096a967b634519a118a8432d163d0c8ab687b7f6dad856c97d29f3dbd7012f333e740e3421ee4c0abde7360750efac0b973788f51bbc0be8b9aececd2210fff4a092fa63b07d879eee03496e390e66947399f2c9d557c38ba382e58d5326aab062e35bcbd2cec6ac484a44f49e6d917599e75d1701b5230462ea6e3324956ab1ef8941499200971e648b35304e7a01bcdeaadca58b028adcb7c55a7f5a705a56de918ad89c55222b7fa6e2c0789ed9e9f9e025b4b6bdf6d6481291008250c44aff4c8dfb0516227d76d3c41df63a7ccfeb82fbd6ae4cc6d56a7285ed0cca3bdb3c2c039872091d4a989b53d8ab662396b2fb798f03bc0fea5d8cc82336678320b5140b94844696b8bf422c4b4b3f89842bda2de61b33f14c970f338208f7aea00f4faf836bb3351d456ba23a33c1f744b23e9a45edcc025803a4527b1725f311fd84596af64f0e7fcee7cd97671ccf2c03b784129ac5f0516777ead034b55017e6eb8fefc517d5510ea63764b094b8802f21d16105c53455cca31dedc8609abe95e50fac5d2b299adb2b216cc2a825c4b2c922131f8444a3f5dd3f8184053b5219a1936606f8a93b4d2cc90730acc4e247364cb88592e5d12d23dd03d0318b9642b9556a3400768afe9b6894bfe70dff090f2a9827745198889181f7fc41cb8a3c5a368aa4378dc803e5bf448c38ad4ef9080d36474f575e7292999ec2d9e8eef200090d28292c41688792afc4d7d81832363a485ec3c6cce0e1e4ee0411121e83979c9fa8a9b7cbeef90000000000000000000000000000000000000000000000101e2b3901fd2105000501f46c2625215f5312203f9aa130aa77f9111f76dfca9d65e290af65ca56e9e5e2b902648cc038c3094d40a2e631f38dd9835af9be26e99c86f62f0b52cd99cb097d05ab629a0dd9f6a3f954f4cce733255c1d8991467ced87cda9c692084bdbecb02fe2622046c25e9ab48a4d99802aa39c04af47cc558944216cc2225f5f6155a47fa50edd8a52896d795295c95e1ffb304d36a75bbe9350e6c81779f1f793e4fe1e9b28da0403998c5a29a9843c0d4221b230b532dbc7815c173f77da2000b91e70d7fd22845cbf0b9e625d12d6c386d4f683d42c2d0a3a565be2dbf2c639c23295af51ba6acfff912f89140cabdda930b67c89f1ceaf77b76d43378e9b82cd7bcb653e77450bfd289416965329af94700d994a3b7490a8d64f4590b5df7e4ab4eb2e004a61480d1e8bd9e6f90ec7d28914027297c8081c4c5ac383aeb25689d0e63f55e05dbd1315132282aa57807008347d0ac2df3aa8e66d1226b9d74620b5d1d2ed88fcc3b9fc64cabb3b72e743f25265998d56b0074691948f7730f7e91d2c56b351c7ab267ef49dbe2433c76129689c1f5d8fe51d2011d46940a95200f76a9fc5aff322da19bf033bfab8d12f156dd9b7f8b54579d6124e69b5d2b891e88d5c77d89ec08f721b40c234f3c0277368ea168e07f8c9866568e4b35a89694607511d2fa9855f5052093901d145525bca7100bd1707612e708cfc92271ad0094bcf31a747f6d4d80ae18aa7b1767a8322469fa664cdc4a60b643260837141993b2d9d053cb96f935e0ed61249ac56423a31058e8f354837435cf6d5536994c86dc73d41cf6be5b7439187e2ea63c748785d0e6a89981e36b8dc4763849d6acb9561b2e6facd7e37bb1d454bccb44fb260df24e42871ed726fb056a864aa7912e351f67653cf04de08179ea22aaf24ac5f822f7b0e08d79352d0a1b73e2be858b9b61f3d425ce9156e500f6f5f97d34aaa2ca6cd1c7c18383ef0a59fc3937936386980645cca8413e19c03b6c3a28685d1cc12334497d3356af2c0c622c3dd4e58f358d119fed91068aea6ccf10f0b7e537af6192cfb49503521dfe7abad33f3c746d29eb2ccab3cba99ff982c9fe54f180f58d660d726e842f178cd7b0bd771cf9d6566d0e558b03e5380b20c06e5416ec72461d3f9dc1309ea03badb7a125347be5df53e9a1da40444236af746db0f5552049ffc6138e3cdcc5d5c0c5746fa19c1ea4c3b679b9ba77f28a56c4cbc48c184e93b645210fb7da31523a933cf573af436d947593f06c9504a69c01ba137fe821593d3da9168467e2ed22c12371fc84acef557f62d3dff4407628742b601b348a03a6ff4dcb541932361e84fab658e3002f5b446e43c2c7b7a840dfdf5ed5927781b5886261b939e5f74ba131c78f40b97906ac0da09e1c038784ce02f21be7c927ce595466bfebe120c854a01eb6760077893fbf9210cbe9cc25afa8233bfd148aa6d4213510fa696de22b07783163ab5539d4ba2ed2195c945cf46b1555cd728cdd4bef8f8aa82251988123484a6b51d29b4e4ed115b565caa01864257f433bb51ca788e0fbf35f7be9b3b32d78de0e00cd02c0e794a68083b7bd22ee1f8821795d61d11aa415b48a5fe57befc87d8e8d74683ebf318bacb8a3715f01e789488d737faf9acabb3078632a78b6781bd6ddf391bebbcdbdea060b033dcfeffd93547d98a314eec9fd6e7a02974bde556a3330b973db30e606fa8e3c82a7db2b076f73844b4ac75d047d1b6ce395f967f55c6bbe8c26f33b3e206df4125a58cca4b7610e7183c055f77e81216bd78a2e4c8ef4e24d5cef858f079584015a0979acc981987027f8ffd0485d179000000",
  "txid": "d0f721459acf6786b844897ceaa61c151a05bc7b0fd947c0a7a17503849fc2cd",
  "hash": "b440ff22ec81f77d4143b278fdc0f28f55ad23053cf0b78d965c47bae9bac080",
  "size": 5085,
  "vsize": 2278,
  "version": 1,
  "locktime": 121,
  "vin": [
    {
      "txid": "468bc7e70d80b8196039b0ad056bc19aff429ec42179670b69836d63c993bd8e",
      "vout": 0,
      "scriptSig": {
        "asm": "",
        "hex": ""
      },
      "txinwitness": [
        "08626ad88892c1122ec0ab3e19cac6a57fc4be03b64176ef01be408b612b95b13cdf4895f33fdbc4b6857ed8026068951be55d935136e57c0f6f29121afaabf224a5aaff6fa0621fc2b312d99d45194e30b7963614b9e3dc4d26e08a2830fd5f3457dc8267f48bdcfd79d225f16cfd0f8e2475b3048762fa00d6ed1fc9deca89c739008109422e296ba0bb3560e47a48e620caa8bf6a623f94a85e248d9a157a4dad2d5b45c5def90b4468b95f1e2f103f54277cff916bb14acf875cf109314c471c09725254baf194008c3bf50becb0029a00af9fe8bab0d641967af87a6608969f79a5e29c81a55e3381f386835f7a010700f4348532f8c6b68e9879bb813e5cbf827fd97d86860d65835918dbdb2702e7875765795574983ff2cc31d3765c7563922364e68b1185ae722925bedfaca7a174841726888a093edb43561cde8023365ef0e292eb924dd7be59019e61bf27e85d9ea2b49b6d3a77f5c17f8cc76dceb2ced02abbb531ead9f27a5a78f21b8a559ab7345b7fb8628923e767a2f27feecaa2ac300e89dc773d98768460f3482cb45c5cc4ec92bd6843084723ca3fc5e475c70e79224a2ce7a71ec0e556a330caee886a159bf971f23f748272a8ae852d897c22ab6cfcf5a2f87a9ace0ab623815f1a8d4332607255e1c8103b4413d8b49da1a3d8b45f544306724365f1af26a7b8b60ec0b034b397019bcd31cad6eb56233cb0b8dc09d84c4322995864efedb3cbbe16e730ab6722422e40382a5ee70ca7116e06b17645e3c683c5a7abceebcf3f75d6646158f2a1f93e6040a59d684db3fd1da56e1cfa43d9af44c93022d71462ef0012b73462135b027182bbccd28a0dfa537a5c848481d00946596f51a11056eae9626975b6dd63bc8d640129429fc5bc74ab5223d1d0bccb96a4c585b71e408e85fa0aa304baaec41fc13d39a4792155f10c3bc1e925bb2e54f74fe7570446a5ba187e33226b5f76cd34df525c36c9862030ae7abbbb128b999f75bcf1b831791c4435660347413c6abc787d1ae113d88b61493140a1dbb9c3a8611371d638a00da516d24a3468d6a2638d1afb29e9ed7bc810d8265b1a6730930d473dbd6da1d521a29d590742fe72abdf6b992cb3ec26db585b9521dd9461f51451cfb66427aecb2cdaa2d53d53d9b1b5d89caa82f0e4544753a1379b549514d15632831488c2df2a19f42a98c91ec6fb8a124efa610d145ce4843b7170e9cfda07892ad1af1e9732bb0d52e37cdae36211b841494e73834f465a5d969817086140deb851e33a548a21d7a1c76e22f7340fd993dad1bf381ab97fbef2cf88d1bd24fb2955e1f0da66085a9c3c34dad1812e10af63e35a30b63f301cb3b13c9d3835fb78d0e0cbd4e851142691f38ddb81d921334c8a512307b38f130472cea200070c5a83a999a1423e57d57f036d209de3b3fcb7cb52fa69f7a55b552d63624610376745d46ea8c8b7ec274fa541dc1e93e1f9823ab3529709fba0111510aef2976b5223257d561ddd78396bbadabaa51ae9be87da1ba87b1c1757ca9e944197ac31071d5848f2e000b3951535ba266c913d8f3753e17d891feffc0e796f4ddbc5b3b3e9d5d270d292d037ee25eb3ab964d421f4c5df99077acd386eee12cba6fa4c5672428a6622b812c626cce5d97fe38d6000f5a135265795a314c07bea0ebcba9ad832523fb2e231cf001a44f11dd6a6ae03407f29230d6b971e2bdeb81d49d79232b9140c3335b42648a097e8c885343ac05075bfc8cc6919980be002f4879a9318fed0553e187cc270022cdb49e4af6460ed1e30f688bc7facffaeacd0ffe0249692fa959bebe94192d82b48dcb89f8b31a4957af9b980344502bf15f52ec0decd3d4f6d80e2a95a0df29adf75a24173f2bc5d4c0592384bd317eab334463ee94bacd5225eec5dab2d3f82794d3f86f73486b742ecef78ddec0f3bc299b4c1d2b196a6d6d71736930bccef76275819f958ff08ce2d452d846d8edabda609a07b75cc54694862cb2056bf9ad0f204d40a05d6afde1f56addeb1007a2a2e2b7edd6f49dff19fa8ab2051b0cdd945b5be0caaf6e0462ddd471348586e12f51a8361ad659ec14d91903eea9fb9365095783f6bd2cbb20ffa2a91cb362d12316a0c0555925db7e542d109250d339caa7f334a9597c97f8fbecfc4984df9ea79e8e4d393388f6a8e1936ecfa3d4909653bf81b1869d1acd8643cda585f3ad4ca0f40b980a26bb24119c2d7b360a77c67478169f93aa507b5146028bd7fcff48f53f5c353961d5f5543dc3931d2f29c73f853ff8ddd2fa1abc29284326c11a1fcee9fc1844490a8a02f98ae8e208152870df88cde74ec4af074ab486212276e6341e3af9b1fd8b5cc87992e3a7e2704381ead2ebc5d040d2a8bd463c64ff82f626bce6586a522b9d0c4de4c0f4b91b68bf476e4ec20364dda2dfc05afa6d75ec41ac4f5dbe2791ce179f9b39dc8602e02554f5b1ccee42a7a2f5ffbf6cbe90aeef26e12fb8530136a633fa31f6757d66252e79bd47518082fedb2360eb2fbcca6116344715b77e5c9545bc6be6cfa5dae6427602393c6592554dcc307bfff311142096a967b634519a118a8432d163d0c8ab687b7f6dad856c97d29f3dbd7012f333e740e3421ee4c0abde7360750efac0b973788f51bbc0be8b9aececd2210fff4a092fa63b07d879eee03496e390e66947399f2c9d557c38ba382e58d5326aab062e35bcbd2cec6ac484a44f49e6d917599e75d1701b5230462ea6e3324956ab1ef8941499200971e648b35304e7a01bcdeaadca58b028adcb7c55a7f5a705a56de918ad89c55222b7fa6e2c0789ed9e9f9e025b4b6bdf6d6481291008250c44aff4c8dfb0516227d76d3c41df63a7ccfeb82fbd6ae4cc6d56a7285ed0cca3bdb3c2c039872091d4a989b53d8ab662396b2fb798f03bc0fea5d8cc82336678320b5140b94844696b8bf422c4b4b3f89842bda2de61b33f14c970f338208f7aea00f4faf836bb3351d456ba23a33c1f744b23e9a45edcc025803a4527b1725f311fd84596af64f0e7fcee7cd97671ccf2c03b784129ac5f0516777ead034b55017e6eb8fefc517d5510ea63764b094b8802f21d16105c53455cca31dedc8609abe95e50fac5d2b299adb2b216cc2a825c4b2c922131f8444a3f5dd3f8184053b5219a1936606f8a93b4d2cc90730acc4e247364cb88592e5d12d23dd03d0318b9642b9556a3400768afe9b6894bfe70dff090f2a9827745198889181f7fc41cb8a3c5a368aa4378dc803e5bf448c38ad4ef9080d36474f575e7292999ec2d9e8eef200090d28292c41688792afc4d7d81832363a485ec3c6cce0e1e4ee0411121e83979c9fa8a9b7cbeef90000000000000000000000000000000000000000000000101e2b3901",
        "000501f46c2625215f5312203f9aa130aa77f9111f76dfca9d65e290af65ca56e9e5e2b902648cc038c3094d40a2e631f38dd9835af9be26e99c86f62f0b52cd99cb097d05ab629a0dd9f6a3f954f4cce733255c1d8991467ced87cda9c692084bdbecb02fe2622046c25e9ab48a4d99802aa39c04af47cc558944216cc2225f5f6155a47fa50edd8a52896d795295c95e1ffb304d36a75bbe9350e6c81779f1f793e4fe1e9b28da0403998c5a29a9843c0d4221b230b532dbc7815c173f77da2000b91e70d7fd22845cbf0b9e625d12d6c386d4f683d42c2d0a3a565be2dbf2c639c23295af51ba6acfff912f89140cabdda930b67c89f1ceaf77b76d43378e9b82cd7bcb653e77450bfd289416965329af94700d994a3b7490a8d64f4590b5df7e4ab4eb2e004a61480d1e8bd9e6f90ec7d28914027297c8081c4c5ac383aeb25689d0e63f55e05dbd1315132282aa57807008347d0ac2df3aa8e66d1226b9d74620b5d1d2ed88fcc3b9fc64cabb3b72e743f25265998d56b0074691948f7730f7e91d2c56b351c7ab267ef49dbe2433c76129689c1f5d8fe51d2011d46940a95200f76a9fc5aff322da19bf033bfab8d12f156dd9b7f8b54579d6124e69b5d2b891e88d5c77d89ec08f721b40c234f3c0277368ea168e07f8c9866568e4b35a89694607511d2fa9855f5052093901d145525bca7100bd1707612e708cfc92271ad0094bcf31a747f6d4d80ae18aa7b1767a8322469fa664cdc4a60b643260837141993b2d9d053cb96f935e0ed61249ac56423a31058e8f354837435cf6d5536994c86dc73d41cf6be5b7439187e2ea63c748785d0e6a89981e36b8dc4763849d6acb9561b2e6facd7e37bb1d454bccb44fb260df24e42871ed726fb056a864aa7912e351f67653cf04de08179ea22aaf24ac5f822f7b0e08d79352d0a1b73e2be858b9b61f3d425ce9156e500f6f5f97d34aaa2ca6cd1c7c18383ef0a59fc3937936386980645cca8413e19c03b6c3a28685d1cc12334497d3356af2c0c622c3dd4e58f358d119fed91068aea6ccf10f0b7e537af6192cfb49503521dfe7abad33f3c746d29eb2ccab3cba99ff982c9fe54f180f58d660d726e842f178cd7b0bd771cf9d6566d0e558b03e5380b20c06e5416ec72461d3f9dc1309ea03badb7a125347be5df53e9a1da40444236af746db0f5552049ffc6138e3cdcc5d5c0c5746fa19c1ea4c3b679b9ba77f28a56c4cbc48c184e93b645210fb7da31523a933cf573af436d947593f06c9504a69c01ba137fe821593d3da9168467e2ed22c12371fc84acef557f62d3dff4407628742b601b348a03a6ff4dcb541932361e84fab658e3002f5b446e43c2c7b7a840dfdf5ed5927781b5886261b939e5f74ba131c78f40b97906ac0da09e1c038784ce02f21be7c927ce595466bfebe120c854a01eb6760077893fbf9210cbe9cc25afa8233bfd148aa6d4213510fa696de22b07783163ab5539d4ba2ed2195c945cf46b1555cd728cdd4bef8f8aa82251988123484a6b51d29b4e4ed115b565caa01864257f433bb51ca788e0fbf35f7be9b3b32d78de0e00cd02c0e794a68083b7bd22ee1f8821795d61d11aa415b48a5fe57befc87d8e8d74683ebf318bacb8a3715f01e789488d737faf9acabb3078632a78b6781bd6ddf391bebbcdbdea060b033dcfeffd93547d98a314eec9fd6e7a02974bde556a3330b973db30e606fa8e3c82a7db2b076f73844b4ac75d047d1b6ce395f967f55c6bbe8c26f33b3e206df4125a58cca4b7610e7183c055f77e81216bd78a2e4c8ef4e24d5cef858f079584015a0979acc981987027f8ffd0485d1"
      ],
      "sequence": 4294967294
    }
  ],
  "vout": [
    {
      "value": 499978.6451,
      "n": 0,
      "scriptPubKey": {
        "asm": "1 f66ea2f5870cad26223b5a9f132f7885005d67e33af410c88301d56339c8db7f",
        "hex": "5120f66ea2f5870cad26223b5a9f132f7885005d67e33af410c88301d56339c8db7f",
        "reqSigs": 1,
        "type": "witness_v1_scripthash",
        "addresses": [
          "3QJmnh"
        ]
      }
    },
    {
      "value": 1.0,
      "n": 1,
      "scriptPubKey": {
        "asm": "OP_RETURN e14a4c514406268df8f58c532abbe90ad575b2a5e837a1ff993fec39b46369b0 af5fbd8ff2aa4561e5dcc09dc928777346f6769dccc1176e5a9f595458aa3c498f7f9dafd28a6541c5fce0bde908575366d656bdece1374e7abf7974788a1c69ef1ffdcfb2ea0521a59c80dd8968373306b636dd8c81572e1adf191418ea7c09cf3fddef92ca250185bca0fda9481713269616fdaca1770e3aff393438ca5c292fdf3d0f722ac5e1655c401d49a8f7f3c676f61d4c4197eeda1fd9d4d82abcc90fff1d2f520ae5c1457c603d6988d7d3e656d63d6c61b7cefa3ff9f4f80a9ce96f9f7d4f326a85a1251c005d09e8b7b38636b65d0c01d7ae9a5f9994986afc894fbf5d6f124aa581053c207d29c89793a616967d2c21f78eba7fb9b4b84adca9af5fbd8ff2aa4561e5dcc09dc928777346f6769dccc1176e5a9f595458aa3c498f7f9dafd28a6541c5fce0bde908575366d656bdece1374e7abf7974788a1c69ef1ffdcfb2ea0521a59c80dd8968373306b636dd8c81572e1adf191418ea7c09cf3fddef92ca250185bca0fda9481713269616fdaca1770e3aff393438ca5c292fdf3d0f722ac5e1655c401d49a8f7f3c676f61d4c4197eeda1fd9d4d82abcc90fff1d2f520ae5c1457c603d6988d7d3e656d63d6c61b7cefa3ff9f4f80a9ce96f9f7d4f326a85a1251c005d09e8b7b38636b65d0c01d7ae9a5f9994986afc894fbf5d6f124aa581053c207d29c89793a616967d2c21f78eba7fb9b4b84adca9af5fbd8ff2aa4561e5dcc09dc928777346f6769dccc1176e5a9f595458aa3c498f7f9dafd28a6541c5fce0bde908575366d656bdece1374e7abf7974788a1c69ef1ffdcfb2ea0521a59c80dd8968373306b636dd8c81572e1adf191418ea7c09cf3fddef92ca250185bca0fda9481713269616fdaca1770e3aff393438ca5c292fdf3d0f722ac5e1655c401d49a8f7f3c676f61d4c4197eeda1fd9d4d82abcc90fff1d2f520ae5c1457c603d6988d7d3e656d63d6c61b7cefa3ff9f4f80a9ce96f9f7d4f326a85a1251c005d09e8b7b38636b65d0c01d7ae9a5f9994986afc894fbf5d6f124aa581053c207d29c89793a616967d2c21f78eba7fb9b4b84adca9af5fbd8ff2aa4561e5dcc09dc928777346f6769dccc1176e5a9f595458aa3c498f7f9dafd28a6541c5fce0bde908575366d656bdece1374e7abf7974788a1c69ef1ffdcfb2ea0521a59c80dd8968373306b636dd8c81572e1adf191418ea7c09cf3fddef92ca250185bca0fda9481713269616fdaca1770e3aff393438ca5c292fdf3d0f722ac5e1655c401d49a8f7f3c676f61d4c4197eeda1fd9d4d82abcc90fff1d2f520ae5c1457c603d6988d7d3e656d63d6c61b7cefa3ff9f4f80a9ce96f9f7d4f326a85a1251c005d09e8b7b38636b65d0c01d7ae9a5f9994986afc894fbf5d6f124aa581053c207d29c89793a616967d2c21f78eba7fb9b4b84adca9af5fbd8ff2aa4561e5dcc09dc928777346f6769dccc1176e5a9f595458aa3c498f7f9dafd28a6541c5fce0bde908575366d656bdece1374e7abf7974788a1c69ef1ffdcfb2ea0521a59c80dd8968373306b636dd8c81572e1adf191418ea7c09cf3fddef92ca250185bca0fda9481713269616fdaca1770e3aff393438ca5c292fdf3d0f722ac5e1655c401d49a8f7f35a95f7a8f10e6d6794b3eab59d55c560e01154a9d3a80a176e2abb172cac7a8c",
        "hex": "6a20e14a4c514406268df8f58c532abbe90ad575b2a5e837a1ff993fec39b46369b04db004af5fbd8ff2aa4561e5dcc09dc928777346f6769dccc1176e5a9f595458aa3c498f7f9dafd28a6541c5fce0bde908575366d656bdece1374e7abf7974788a1c69ef1ffdcfb2ea0521a59c80dd8968373306b636dd8c81572e1adf191418ea7c09cf3fddef92ca250185bca0fda9481713269616fdaca1770e3aff393438ca5c292fdf3d0f722ac5e1655c401d49a8f7f3c676f61d4c4197eeda1fd9d4d82abcc90fff1d2f520ae5c1457c603d6988d7d3e656d63d6c61b7cefa3ff9f4f80a9ce96f9f7d4f326a85a1251c005d09e8b7b38636b65d0c01d7ae9a5f9994986afc894fbf5d6f124aa581053c207d29c89793a616967d2c21f78eba7fb9b4b84adca9af5fbd8ff2aa4561e5dcc09dc928777346f6769dccc1176e5a9f595458aa3c498f7f9dafd28a6541c5fce0bde908575366d656bdece1374e7abf7974788a1c69ef1ffdcfb2ea0521a59c80dd8968373306b636dd8c81572e1adf191418ea7c09cf3fddef92ca250185bca0fda9481713269616fdaca1770e3aff393438ca5c292fdf3d0f722ac5e1655c401d49a8f7f3c676f61d4c4197eeda1fd9d4d82abcc90fff1d2f520ae5c1457c603d6988d7d3e656d63d6c61b7cefa3ff9f4f80a9ce96f9f7d4f326a85a1251c005d09e8b7b38636b65d0c01d7ae9a5f9994986afc894fbf5d6f124aa581053c207d29c89793a616967d2c21f78eba7fb9b4b84adca9af5fbd8ff2aa4561e5dcc09dc928777346f6769dccc1176e5a9f595458aa3c498f7f9dafd28a6541c5fce0bde908575366d656bdece1374e7abf7974788a1c69ef1ffdcfb2ea0521a59c80dd8968373306b636dd8c81572e1adf191418ea7c09cf3fddef92ca250185bca0fda9481713269616fdaca1770e3aff393438ca5c292fdf3d0f722ac5e1655c401d49a8f7f3c676f61d4c4197eeda1fd9d4d82abcc90fff1d2f520ae5c1457c603d6988d7d3e656d63d6c61b7cefa3ff9f4f80a9ce96f9f7d4f326a85a1251c005d09e8b7b38636b65d0c01d7ae9a5f9994986afc894fbf5d6f124aa581053c207d29c89793a616967d2c21f78eba7fb9b4b84adca9af5fbd8ff2aa4561e5dcc09dc928777346f6769dccc1176e5a9f595458aa3c498f7f9dafd28a6541c5fce0bde908575366d656bdece1374e7abf7974788a1c69ef1ffdcfb2ea0521a59c80dd8968373306b636dd8c81572e1adf191418ea7c09cf3fddef92ca250185bca0fda9481713269616fdaca1770e3aff393438ca5c292fdf3d0f722ac5e1655c401d49a8f7f3c676f61d4c4197eeda1fd9d4d82abcc90fff1d2f520ae5c1457c603d6988d7d3e656d63d6c61b7cefa3ff9f4f80a9ce96f9f7d4f326a85a1251c005d09e8b7b38636b65d0c01d7ae9a5f9994986afc894fbf5d6f124aa581053c207d29c89793a616967d2c21f78eba7fb9b4b84adca9af5fbd8ff2aa4561e5dcc09dc928777346f6769dccc1176e5a9f595458aa3c498f7f9dafd28a6541c5fce0bde908575366d656bdece1374e7abf7974788a1c69ef1ffdcfb2ea0521a59c80dd8968373306b636dd8c81572e1adf191418ea7c09cf3fddef92ca250185bca0fda9481713269616fdaca1770e3aff393438ca5c292fdf3d0f722ac5e1655c401d49a8f7f35a95f7a8f10e6d6794b3eab59d55c560e01154a9d3a80a176e2abb172cac7a8c",
        "type": "nulldata"
      }
    }
  ],
  "blockhash": "b00c1afcc726d07acf9b884f47bf06130e4cba196c4900690ef7405d42c36beb",
  "confirmations": 1,
  "time": 1764180257,
  "blocktime": 1764180257
}