{
  "hex": "01000000000101717462952575b5a3ddf151a191b3ece2758354bec4daa67a55d2d31389a638c70000000000feffffff02a020df63792d000022512043e9dbb1956f6d6aa9f0530f1818514a6876adf9a6e23fedb43b0727c1c92cc500e1f50500000000fdd5046a2064e7df4cf17bc766ef68c806aa0ee487d7140c5c77ee6b7ef5e63cbe2e4b967f4db00402f442bb102c26f87bde84e3aa91ea9ef2336569b5be757237e3d2bef49d77dd22d4629b300c06d85bfea4c38ab1cabed2134549959e555217c3f29ed4bd57fd42b402fb506c66b83b9ec4a3ead1aadeb2732529f5fe353277a392feb4dd379d629422db704c46981bbee483caf18afe92530509d5de15125783b2de94fd17bd8274c23b90aca678fb5e04632a116a1e72b3e5e9353ef5f2b763523e741df75da254e21bb08c8658db7e24430a314a3e5293c5c9151ed5d29743721e543dd77dc234827bd0ece638bb1e44236a512a5e32f3a5a9757eb5b2f723127e345db71de214a25bf0ccc6189b3e64034a710a7e12d38589555e9592d703325e147d973d02f442bb102c26f87bde84e3aa91ea9ef2336569b5be757237e3d2bef49d77dd22d4629b300c06d85bfea4c38ab1cabed2134549959e555217c3f29ed4bd57fd42b402fb506c66b83b9ec4a3ead1aadeb2732529f5fe353277a392feb4dd379d629422db704c46981bbee483caf18afe92530509d5de15125783b2de94fd17bd8274c23b90aca678fb5e04632a116a1e72b3e5e9353ef5f2b763523e741df75da254e21bb08c8658db7e24430a314a3e5293c5c9151ed5d29743721e543dd77dc234827bd0ece638bb1e44236a512a5e32f3a5a9757eb5b2f723127e345db71de214a25bf0ccc6189b3e64034a710a7e12d38589555e9592d703325e147d973d02f442bb102c26f87bde84e3aa91ea9ef2336569b5be757237e3d2bef49d77dd22d4629b300c06d85bfea4c38ab1cabed2134549959e555217c3f29ed4bd57fd42b402fb506c66b83b9ec4a3ead1aadeb2732529f5fe353277a392feb4dd379d629422db704c46981bbee483caf18afe92530509d5de15125783b2de94fd17bd8274c23b90aca678fb5e04632a116a1e72b3e5e9353ef5f2b763523e741df75da254e21bb08c8658db7e24430a314a3e5293c5c9151ed5d29743721e543dd77dc234827bd0ece638bb1e44236a512a5e32f3a5a9757eb5b2f723127e345db71de214a25bf0ccc6189b3e64034a710a7e12d38589555e9592d703325e147d973d02f442bb102c26f87bde84e3aa91ea9ef2336569b5be757237e3d2bef49d77dd22d4629b300c06d85bfea4c38ab1cabed2134549959e555217c3f29ed4bd57fd42b402fb506c66b83b9ec4a3ead1aadeb2732529f5fe353277a392feb4dd379d629422db704c46981bbee483caf18afe92530509d5de15125783b2de94fd17bd8274c23b90aca678fb5e04632a116a1e72b3e5e9353ef5f2b763523e741df75da254e21bb08c8658db7e24430a314a3e5293c5c9151ed5d29743721e543dd77dc234827bd0ece638bb1e44236a512a5e32f3a5a9757eb5b2f723127e345db71de214a25bf0ccc6189b3e64034a710a7e12d38589555e9592d703325e147d973d02f442bb102c26f87bde84e3aa91ea9ef2336569b5be757237e3d2bef49d77dd22d4629b300c06d85bfea4c38ab1cabed2134549959e555217c3f29ed4bd57fd42b402fb506c66b83b9ec4a3ead1aadeb2732529f5fe353277a392feb4dd379d629422db704c46981bbee483caf18afe92530509d5de15125783b2de94fd17bd8274c23b90aca678fb5e04632a116a1ee4a5625f53bfe25f0c3b313bcbdb03d8e4819394a79b6d4c4ab440dc3858c08502fd750978686f985179c0086c79d86e8d19885a8734a2b1e0b4c54f7a3acd76043fe92adb24c37a68896a6953cec5abec761afcc2f1a2111b069cde6b911708089b3f2cd7d6d65a08f4d9bd52602ce14bfc19b61d64a1c286a9da2c2901746bac2f439516272ffac305cddaf398a6d90499065322e67d84e48bc94e625ec1624dd49ba6497f957804bc134f38e1e26c08b494f0ab39b781b76ddc77b31418bf221e4b8ebdb4a777575f8080946bdf1562fb072b961dcc6cc4aaac7a80b40ac5d429e14603ae71ad2890d7799c3ce7de3ad94ab2a9ca0c6781cb6e78c6d6641414cf8d5437f28333c1dc5d13a6e29469cc3548c770a2215566f7d9e9745e68b4f0400214b7d55003e3b42abf1072269f2d89b68ee6ec8efdfffc7c0d0714f3a1c296f09b32a487acece5959cb4218fc40736103224bad790614ff011cf97ee4c1c2a5ed7ad148f679228d658e50e08e65b7c3ceb23c1eb8543861d34894e64701c030b6835c0de3eb5cfcd1f28e7430771bae7b977f91c5ecf003b22b5af06128e6968ce43da92ae55ef55ec45d32fd0cac8228883e71f8a453de35cb4eafb7251b723784a74a56bb5072fd67ba76cbcaf011260d1d275b16c97b7c55a15a8b671cec01735452367b640be1b27f1bfb05a35bc41ae39e9060377a5b0367e0435e09ff5e84320ac1cac0bb85a80576eb651268f887746019015e12779f44218e98146f05d0e056e8b55857fb77d8cb09bb93a907a8ea000f205ec9db91f73559720b4c452659bc128eef9d572b87ec10fd48faa9e68edcae0e7e572c4c291703a78b9a04b355ec2b800b6bd48474053cf7d9d402a07352d900b38701b400125e79a3182e7a837d259e727dc14459ee2d0220f7369df1b4b5532258e18348a83e9a1bd505bba94b3c0df1740bb5c7e07490f5b414f34ba84609a34d01ce338bf005255c7e178bc373378e48f8f0be4ce3ac00950791c26c23bcdbf3e7a162b1a07c3d030cc67fc7a318756c0799330ae7fa8893ebb5b8369871607c5df5d6e81ca64e396cd853c98707837d8797497993d05d641604e3f12da8d71536fd38c929bdc12c5bb19d2419af5b70e7d04d079f98bf0b919f98d5c19d0c3220e6c7a75704554c8b88e8e972d99a53c28167a770bb3cc571feeaa630f52b9fcb7cf544763edfbd48057992acc5251bf9fb61cdf72b780831fcff5fe9ceb9f559fe3e9b5f7f8d92474968217dd41820ecd24699f28dacfeb480bf4b2d09c01b2c7d900f9dce9548e860d3ceda1d57400c1549a4d9ebd1ae823e03963170e53799129fc78b8b88fb859016a16c4fa26ee4a10f51e46cca06a0ee3301bfe1fdbf52546b4c54fd99618e836b46dae52e9a65f962672c4108e2b1fb4ed641f4abb3ea82a4fe83a1b576a586a6b5c06b3858f1fac354ec73b246025f82c66293a456240b7cf6bba16c5333f053b7241bc7d96b8926199453a3402bd037ab1797a30c00d26f3e7b19780b177ed7ed318f7c72ed69927324af3b47f5258550ce318a6724b3f31fecdacc1b2aad8f4de7cf8c4c9e82855c14bb4ef6430b71d7627ff07603b4761057b5d8c142091748823951f846726968966e8b253dc73784cf67c55b37435ba66ceec9a7492c294e767ee1da06a24c8399e61a7a0ddaf9cf5d093cab634534e8d5492279b27023447497330a5ea8ed82b1f20650fa2b2eaa8ccf50a7d3d68a6485121f46579babc157f7fd0d6a0e32e04ce926823948e1f319351f887ae37faa4187a63a03e90d0ff71f20322979fe3d90d418855f9009abeb49e8f190cd8a692903aa9c952e7911a85c931117aaadd03cd807e6b6acf511ee1365f3c76c255254b654b3f9457667db03a7508c89e3a906ae18c65922f2e3f052f2bebf87d49c7f4f94d13d90ea4f121619df5284bfa9b7c6027cab8a03601a15c0a6fc2d0b9177c54ec958a87a618f34a73cca4c8d1a201d62fd23d92e15b2bdd8e947b3fe3cfba587b52db083e216ae6a16e48376b9bb15faa60ea0b6a22e679ce58756ebf5741cbbb2f56239a7eb4ada11aebede0d69e8e4f17e4b38b701f8f63975f78b61e1cff009535ad85e42abe49479ba7f8eaa374d23f5e01efc98b42aa5c2df99d904628092f0c9f9315b53967a1095a852b080b7487a50b4a27a8157bc25947d7870da43fe6d21799384331ff03a78d8e831653ac630cf52fb1176ecdf6938fa35735b7a771181c9bcf2544cc81fe64d12de4db6172b089996ad223890ed8125673233994f68eea749a96b643554b071db71909947a2b8f997e17201736ceb878b669fca5d2d82c2339f73467a473f9887b666f9ad2f15f38041d55406a6ded0198a031c5d92a983ab00bdfdae3b1bd928a0ee1b8cfe463565c7570ccabc836ad565ee59d19b7ac109bf1c3fdb6bee8f7cb03a13eec4d867910604151b77ddee58f2f56e95a7cc67c781f423b87c5dda3e434d095807f837843450072feba93393b057ce789772dc75dea293aa1e474b99e1c6c9b25d9cc4e37552b210b88f004f0f605f8995634033df2fc70290e6ee8d6f7c40b392732ea4427c391db9b26f7dbd37267d480d4894d0b7f163c04433a0e02694efcc5dabe9368e228117b654a01b3d53df5eb2fca92487f4a3a7c6a7a414acc7fd5210cdd5be1d11a97ff21ad102d5bd55f9f0fa45450489a9e5c4fb27725312ce42ba3f9571e1a9d45fd93078fd9200600773c687c3018dd1cc708c03a93037d67f2ed713933206955aa1a3b692c64744b132d1766f2fc5947b3b50721a9129e7bf0d725b3210cebd0bb9dca9aa4df10c8bb8b8b79127a8d824c786046620a96a6d7f8f2fc50429235556de523e5c4a2b513eec527f90676c6ed4e48bd1bfe4724f55a57755dda7a97cad758f49598f8d9ae56ca13a2a20b84f003b8f7f8f1497e4a94aab591d01a3c6f46fcce07cb82e0877e7396abd4ecf9b4efd228e3718feaa35372f7273b7f6d2b5a88e28f62686872d6a71cce0aa7353ea130a9431a8ab415ee5868c7ea743d1390a71b68f4302ff96819de77f2d2e18ed637ccb2464f301d39874b536ca48ec3f866fa8c6869d19189fa55b96942b10ccc7d924d4941d579cb61d6fe8aa199dc8607468fd9689f58ee1a40538ed37a7d5c31fd3468d1a213545fdaca5895de4b882a8e2013a5d80d7255f38ea1384db56a463859989f509119a39a3c3cee371049ac5cb3ab4f0d2165ecb0e4780df7ad3e49e46954fd29b4e0cdde241ac06666554f86ce74a48c2916c462a2eceb779439a803d5709395f0b8bd9026724a2d9bd943c604efb4fcfe112126292d585e638a8b9498a9b1c6d1d7fd020408282a2d313e8489adb8bcd1dff1171a282943516f77787b88a2acb0b8d6db0e224e4f6067a4c6c9cdfb0000000000000000000000000000000000001222333e01fd2105002077851f3ccb1451346a2fd0c8c826717d4846a32cc747abee494eba707d00ef1d5834e8c3b33dfe883b950bf9204e7dbe8d33ea901d0ec736d6d2b9c5b308a8781c05808565d49dd0c57a594942c829be78248f61f56f24197ca8a56c4e2f0da78ee659a0f1e99ce4fc888bdc9578ecfd30ddbf46e7fbdb7df68305e737f11c828bb9ff6da1002f5044dd6790c9ca5b57aef33b55516b2779dfef126e746c1373641f42041ec6b038b4ddab184df45a43e2186fc2e7a2c884615eb1052f0ae3f42fc84817ce71bf728e3f73c6cc0bd550db785ad5fce784dbcf618e38dea8dae59c49059725b90b5d5c7066e202c56f69493b93af55080814e74176f1e9b8228e44528a462984807f6d91707fbf9de8ab8c98b929a970cb5e3220e81cb0b49e6e1a1dcd854ed6e1ebec0c9b6c3891e213c8a64b4cde513e46bd20f1d06f03cf19e376c9f94b5cc88c4cf5beccbbaec7eaf42e975022f54c603dbcb615d796725019794c114485183e4e95db860664dbef275db70e055b2f803c42127d6b9e063f56d54eeb05fd1570c523115da5fca4eb4bbe422d3aed5d74c0211e2c9750df5c4ff04e58560e26474de98dfbc24041de3e694657cc9cb11dadb8fa34a14a0e2237416b1f0726abe29c54f11605176bcde62bd2838fe8ca36d0891f3b46b8b0a0a49f0d6bfeef60221ef5f80a5dcc6d1caa4a9a3cbead6906dd32b4ad7ef32846261c341d12115d38980a7b5ed2005e357061de20be85532df586ed1ccb1fe3aae725d07a57cb39c5cbf382e54ba4c02d3a180228d9820f7cae9f3ba553fdccba9ff199313175491efc414b28b66639414ae81e33f0a40a141a0ca2227060aafa48697d5dae0d5789e796cf7d2a54d0f93bf458151a733ea6c7ab1d42e8549c6eea053c33a66eef3b8e683cade8a36ad9cdde43612551e8794bb3090c474c83871bf8882c35c1b588d1512cf90c4ddbf25bda45e2ef34237cd0d2749bb27087d898b64a460f24b14fede68f63321d76f8144a7decc74fc8908c10fb19a52ee1f0413ccd0d898a78ddd891860588547ec2683b717882e6d828ef240003a6bc5f0f299000cbc2c261d79eee0de8db0bb97523fe576280aa2af09f4dcf51fef2aca62e2634fa2d2fd8383bd3c26eeec6c03d69bb3df480454e7d1826e8c4885e5ab90a0a37f339e1514c9f22f0e568fee3a140de73fe62422fdadfb66c2f9eb338166e8b3075ad1b123bef3820664bc606146a806255f5a6118342d8ad110ff79573e06889d2e752cdf2f3579e949f0e0c08836c84a346e08417e6bf4f5f79db8a1700b4985f4d932a36ea03f6083035b201917582df32ffb051af564a5bd93257ef934a963ea441257ea2890d0558bafa751e8228e7d9e6e5605080734cbf5b39575c174b051e7855364dfac08b368f6bbbb4d1ca32a61651feb6d040f4d21472bcc6e1135cc376ae2a8b59a85b8c7491ff89eba13206ac7f869259f85a6c6c34f48ea03f9da941d33c27c60ca379014ce2c5b4bec67efabdc47cf73cf2c82fa67d7ae8fe346f17e64cfa04eb27dda83c55ab93eadcc0b5aa9e8dc8a57d22a5a9f722a9db18395c7b09e9d7cefb012f3e7a8138af5c9829e5a9fb7c9e2ede457a228d1f36b958e2072072f530f205ea90665c3bc3564df8be220edba2e2b81a2a9c8d03c756afd80411c3c0e5ca0dd937a8c97af45d0686b30bffeeb8fba137e6eb9ca4ff258e1dc666d403ba035e1dc69059d6ed8930c2ec30eea509db5bae81e2672ae8e975155ed13d4a2807d57393b4bc1b71aa97f380766bdb455efc46db0ae58c4059b398a35cb427fd5853510d91c546050a5fefb2b3f98b686207753368000000",
  "txid": "dc85b9521e4e7a86bd141cf7a934be731276582a926f49d51c965561970f9c4c",
  "hash": "78b7015dd08dcaf170ed498bd6dcd1c2bf3dd9aeaa62e0c4d99ee8267dc70936",
  "size": 5085,
  "vsize": 2278,
  "version": 1,
  "locktime": 104,
  "vin": [
    {
      "txid": "c738a68913d3d2557aa6dac4be548375e2ecb391a151f1dda3b5752595627471",
      "vout": 0,
      "scriptSig": {
        "asm": "",
        "hex": ""
      },
      "txinwitness": [
        "78686f985179c0086c79d86e8d19885a8734a2b1e0b4c54f7a3acd76043fe92adb24c37a68896a6953cec5abec761afcc2f1a2111b069cde6b911708089b3f2cd7d6d65a08f4d9bd52602ce14bfc19b61d64a1c286a9da2c2901746bac2f439516272ffac305cddaf398a6d90499065322e67d84e48bc94e625ec1624dd49ba6497f957804bc134f38e1e26c08b494f0ab39b781b76ddc77b31418bf221e4b8ebdb4a777575f8080946bdf1562fb072b961dcc6cc4aaac7a80b40ac5d429e14603ae71ad2890d7799c3ce7de3ad94ab2a9ca0c6781cb6e78c6d6641414cf8d5437f28333c1dc5d13a6e29469cc3548c770a2215566f7d9e9745e68b4f0400214b7d55003e3b42abf1072269f2d89b68ee6ec8efdfffc7c0d0714f3a1c296f09b32a487acece5959cb4218fc40736103224bad790614ff011cf97ee4c1c2a5ed7ad148f679228d658e50e08e65b7c3ceb23c1eb8543861d34894e64701c030b6835c0de3eb5cfcd1f28e7430771bae7b977f91c5ecf003b22b5af06128e6968ce43da92ae55ef55ec45d32fd0cac8228883e71f8a453de35cb4eafb7251b723784a74a56bb5072fd67ba76cbcaf011260d1d275b16c97b7c55a15a8b671cec01735452367b640be1b27f1bfb05a35bc41ae39e9060377a5b0367e0435e09ff5e84320ac1cac0bb85a80576eb651268f887746019015e12779f44218e98146f05d0e056e8b55857fb77d8cb09bb93a907a8ea000f205ec9db91f73559720b4c452659bc128eef9d572b87ec10fd48faa9e68edcae0e7e572c4c291703a78b9a04b355ec2b800b6bd48474053cf7d9d402a07352d900b38701b400125e79a3182e7a837d259e727dc14459ee2d0220f7369df1b4b5532258e18348a83e9a1bd505bba94b3c0df1740bb5c7e07490f5b414f34ba84609a34d01ce338bf005255c7e178bc373378e48f8f0be4ce3ac00950791c26c23bcdbf3e7a162b1a07c3d030cc67fc7a318756c0799330ae7fa8893ebb5b8369871607c5df5d6e81ca64e396cd853c98707837d8797497993d05d641604e3f12da8d71536fd38c929bdc12c5bb19d2419af5b70e7d04d079f98bf0b919f98d5c19d0c3220e6c7a75704554c8b88e8e972d99a53c28167a770bb3cc571feeaa630f52b9fcb7cf544763edfbd48057992acc5251bf9fb61cdf72b780831fcff5fe9ceb9f559fe3e9b5f7f8d92474968217dd41820ecd24699f28dacfeb480bf4b2d09c01b2c7d900f9dce9548e860d3ceda1d57400c1549a4d9ebd1ae823e03963170e53799129fc78b8b88fb859016a16c4fa26ee4a10f51e46cca06a0ee3301bfe1fdbf52546b4c54fd99618e836b46dae52e9a65f962672c4108e2b1fb4ed641f4abb3ea82a4fe83a1b576a586a6b5c06b3858f1fac354ec73b246025f82c66293a456240b7cf6bba16c5333f053b7241bc7d96b8926199453a3402bd037ab1797a30c00d26f3e7b19780b177ed7ed318f7c72ed69927324af3b47f5258550ce318a6724b3f31fecdacc1b2aad8f4de7cf8c4c9e82855c14bb4ef6430b71d7627ff07603b4761057b5d8c142091748823951f846726968966e8b253dc73784cf67c55b37435ba66ceec9a7492c294e767ee1da06a24c8399e61a7a0ddaf9cf5d093cab634534e8d5492279b27023447497330a5ea8ed82b1f20650fa2b2eaa8ccf50a7d3d68a6485121f46579babc157f7fd0d6a0e32e04ce926823948e1f319351f887ae37faa4187a63a03e90d0ff71f20322979fe3d90d418855f9009abeb49e8f190cd8a692903aa9c952e7911a85c931117aaadd03cd807e6b6acf511ee1365f3c76c255254b654b3f9457667db03a7508c89e3a906ae18c65922f2e3f052f2bebf87d49c7f4f94d13d90ea4f121619df5284bfa9b7c6027cab8a03601a15c0a6fc2d0b9177c54ec958a87a618f34a73cca4c8d1a201d62fd23d92e15b2bdd8e947b3fe3cfba587b52db083e216ae6a16e48376b9bb15faa60ea0b6a22e679ce58756ebf5741cbbb2f56239a7eb4ada11aebede0d69e8e4f17e4b38b701f8f63975f78b61e1cff009535ad85e42abe49479ba7f8eaa374d23f5e01efc98b42aa5c2df99d904628092f0c9f9315b53967a1095a852b080b7487a50b4a27a8157bc25947d7870da43fe6d21799384331ff03a78d8e831653ac630cf52fb1176ecdf6938fa35735b7a771181c9bcf2544cc81fe64d12de4db6172b089996ad223890ed8125673233994f68eea749a96b643554b071db71909947a2b8f997e17201736ceb878b669fca5d2d82c2339f73467a473f9887b666f9ad2f15f38041d55406a6ded0198a031c5d92a983ab00bdfdae3b1bd928a0ee1b8cfe463565c7570ccabc836ad565ee59d19b7ac109bf1c3fdb6bee8f7cb03a13eec4d867910604151b77ddee58f2f56e95a7cc67c781f423b87c5dda3e434d095807f837843450072feba93393b057ce789772dc75dea293aa1e474b99e1c6c9b25d9cc4e37552b210b88f004f0f605f8995634033df2fc70290e6ee8d6f7c40b392732ea4427c391db9b26f7dbd37267d480d4894d0b7f163c04433a0e02694efcc5dabe9368e228117b654a01b3d53df5eb2fca92487f4a3a7c6a7a414acc7fd5210cdd5be1d11a97ff21ad102d5bd55f9f0fa45450489a9e5c4fb27725312ce42ba3f9571e1a9d45fd93078fd9200600773c687c3018dd1cc708c03a93037d67f2ed713933206955aa1a3b692c64744b132d1766f2fc5947b3b50721a9129e7bf0d725b3210cebd0bb9dca9aa4df10c8bb8b8b79127a8d824c786046620a96a6d7f8f2fc50429235556de523e5c4a2b513eec527f90676c6ed4e48bd1bfe4724f55a57755dda7a97cad758f49598f8d9ae56ca13a2a20b84f003b8f7f8f1497e4a94aab591d01a3c6f46fcce07cb82e0877e7396abd4ecf9b4efd228e3718feaa35372f7273b7f6d2b5a88e28f62686872d6a71cce0aa7353ea130a9431a8ab415ee5868c7ea743d1390a71b68f4302ff96819de77f2d2e18ed637ccb2464f301d39874b536ca48ec3f866fa8c6869d19189fa55b96942b10ccc7d924d4941d579cb61d6fe8aa199dc8607468fd9689f58ee1a40538ed37a7d5c31fd3468d1a213545fdaca5895de4b882a8e2013a5d80d7255f38ea1384db56a463859989f509119a39a3c3cee371049ac5cb3ab4f0d2165ecb0e4780df7ad3e49e46954fd29b4e0cdde241ac06666554f86ce74a48c2916c462a2eceb779439a803d5709395f0b8bd9026724a2d9bd943c604efb4fcfe112126292d585e638a8b9498a9b1c6d1d7fd020408282a2d313e8489adb8bcd1dff1171a282943516f77787b88a2acb0b8d6db0e224e4f6067a4c6c9cdfb0000000000000000000000000000000000001222333e01",
        "002077851f3ccb1451346a2fd0c8c826717d4846a32cc747abee494eba707d00ef1d5834e8c3b33dfe883b950bf9204e7dbe8d33ea901d0ec736d6d2b9c5b308a8781c05808565d49dd0c57a594942c829be78248f61f56f24197ca8a56c4e2f0da78ee659a0f1e99ce4fc888bdc9578ecfd30ddbf46e7fbdb7df68305e737f11c828bb9ff6da1002f5044dd6790c9ca5b57aef33b55516b2779dfef126e746c1373641f42041ec6b038b4ddab184df45a43e2186fc2e7a2c884615eb1052f0ae3f42fc84817ce71bf728e3f73c6cc0bd550db785ad5fce784dbcf618e38dea8dae59c49059725b90b5d5c7066e202c56f69493b93af55080814e74176f1e9b8228e44528a462984807f6d91707fbf9de8ab8c98b929a970cb5e3220e81cb0b49e6e1a1dcd854ed6e1ebec0c9b6c3891e213c8a64b4cde513e46bd20f1d06f03cf19e376c9f94b5cc88c4cf5beccbbaec7eaf42e975022f54c603dbcb615d796725019794c114485183e4e95db860664dbef275db70e055b2f803c42127d6b9e063f56d54eeb05fd1570c523115da5fca4eb4bbe422d3aed5d74c0211e2c9750df5c4ff04e58560e26474de98dfbc24041de3e694657cc9cb11dadb8fa34a14a0e2237416b1f0726abe29c54f11605176bcde62bd2838fe8ca36d0891f3b46b8b0a0a49f0d6bfeef60221ef5f80a5dcc6d1caa4a9a3cbead6906dd32b4ad7ef32846261c341d12115d38980a7b5ed2005e357061de20be85532df586ed1ccb1fe3aae725d07a57cb39c5cbf382e54ba4c02d3a180228d9820f7cae9f3ba553fdccba9ff199313175491efc414b28b66639414ae81e33f0a40a141a0ca2227060aafa48697d5dae0d5789e796cf7d2a54d0f93bf458151a733ea6c7ab1d42e8549c6eea053c33a66eef3b8e683cade8a36ad9cdde43612551e8794bb3090c474c83871bf8882c35c1b588d1512cf90c4ddbf25bda45e2ef34237cd0d2749bb27087d898b64a460f24b14fede68f63321d76f8144a7decc74fc8908c10fb19a52ee1f0413ccd0d898a78ddd891860588547ec2683b717882e6d828ef240003a6bc5f0f299000cbc2c261d79eee0de8db0bb97523fe576280aa2af09f4dcf51fef2aca62e2634fa2d2fd8383bd3c26eeec6c03d69bb3df480454e7d1826e8c4885e5ab90a0a37f339e1514c9f22f0e568fee3a140de73fe62422fdadfb66c2f9eb338166e8b3075ad1b123bef3820664bc606146a806255f5a6118342d8ad110ff79573e06889d2e752cdf2f3579e949f0e0c08836c84a346e08417e6bf4f5f79db8a1700b4985f4d932a36ea03f6083035b201917582df32ffb051af564a5bd93257ef934a963ea441257ea2890d0558bafa751e8228e7d9e6e5605080734cbf5b39575c174b051e7855364dfac08b368f6bbbb4d1ca32a61651feb6d040f4d21472bcc6e1135cc376ae2a8b59a85b8c7491ff89eba13206ac7f869259f85a6c6c34f48ea03f9da941d33c27c60ca379014ce2c5b4bec67efabdc47cf73cf2c82fa67d7ae8fe346f17e64cfa04eb27dda83c55ab93eadcc0b5aa9e8dc8a57d22a5a9f722a9db18395c7b09e9d7cefb012f3e7a8138af5c9829e5a9fb7c9e2ede457a228d1f36b958e2072072f530f205ea90665c3bc3564df8be220edba2e2b81a2a9c8d03c756afd80411c3c0e5ca0dd937a8c97af45d0686b30bffeeb8fba137e6eb9ca4ff258e1dc666d403ba035e1dc69059d6ed8930c2ec30eea509db5bae81e2672ae8e975155ed13d4a2807d57393b4bc1b71aa97f380766bdb455efc46db0ae58c4059b398a35cb427fd5853510d91c546050a5fefb2b3f98b6862077533"
      ],
      "sequence": 4294967294
    }
  ],
  "vout": [
    {
      "value": 499993.8986,
      "n": 0,
      "scriptPubKey": {
        "asm": "1 43e9dbb1956f6d6aa9f0530f1818514a6876adf9a6e23fedb43b0727c1c92cc5",
        "hex": "512043e9dbb1956f6d6aa9f0530f1818514a6876adf9a6e23fedb43b0727c1c92cc5",
        "reqSigs": 1,
        "type": "witness_v1_scripthash",
        "addresses": [
          "3QJmnh"
        ]
      }
    },
    {
      "value": 1.0,
      "n": 1,
      "scriptPubKey": {
        "asm": "OP_RETURN 64e7df4cf17bc766ef68c806aa0ee487d7140c5c77ee6b7ef5e63cbe2e4b967f 02f442bb102c26f87bde84e3aa91ea9ef2336569b5be757237e3d2bef49d77dd22d4629b300c06d85bfea4c38ab1cabed2134549959e555217c3f29ed4bd57fd42b402fb506c66b83b9ec4a3ead1aadeb2732529f5fe353277a392feb4dd379d629422db704c46981bbee483caf18afe92530509d5de15125783b2de94fd17bd8274c23b90aca678fb5e04632a116a1e72b3e5e9353ef5f2b763523e741df75da254e21bb08c8658db7e24430a314a3e5293c5c9151ed5d29743721e543dd77dc234827bd0ece638bb1e44236a512a5e32f3a5a9757eb5b2f723127e345db71de214a25bf0ccc6189b3e64034a710a7e12d38589555e9592d703325e147d973d02f442bb102c26f87bde84e3aa91ea9ef2336569b5be757237e3d2bef49d77dd22d4629b300c06d85bfea4c38ab1cabed2134549959e555217c3f29ed4bd57fd42b402fb506c66b83b9ec4a3ead1aadeb2732529f5fe353277a392feb4dd379d629422db704c46981bbee483caf18afe92530509d5de15125783b2de94fd17bd8274c23b90aca678fb5e04632a116a1e72b3e5e9353ef5f2b763523e741df75da254e21bb08c8658db7e24430a314a3e5293c5c9151ed5d29743721e543dd77dc234827bd0ece638bb1e44236a512a5e32f3a5a9757eb5b2f723127e345db71de214a25bf0ccc6189b3e64034a710a7e12d38589555e9592d703325e147d973d02f442bb102c26f87bde84e3aa91ea9ef2336569b5be757237e3d2bef49d77dd22d4629b300c06d85bfea4c38ab1cabed2134549959e555217c3f29ed4bd57fd42b402fb506c66b83b9ec4a3ead1aadeb2732529f5fe353277a392feb4dd379d629422db704c46981bbee483caf18afe92530509d5de15125783b2de94fd17bd8274c23b90aca678fb5e04632a116a1e72b3e5e9353ef5f2b763523e741df75da254e21bb08c8658db7e24430a314a3e5293c5c9151ed5d29743721e543dd77dc234827bd0ece638bb1e44236a512a5e32f3a5a9757eb5b2f723127e345db71de214a25bf0ccc6189b3e64034a710a7e12d38589555e9592d703325e147d973d02f442bb102c26f87bde84e3aa91ea9ef2336569b5be757237e3d2bef49d77dd22d4629b300c06d85bfea4c38ab1cabed2134549959e555217c3f29ed4bd57fd42b402fb506c66b83b9ec4a3ead1aadeb2732529f5fe353277a392feb4dd379d629422db704c46981bbee483caf18afe92530509d5de15125783b2de94fd17bd8274c23b90aca678fb5e04632a116a1e72b3e5e9353ef5f2b763523e741df75da254e21bb08c8658db7e24430a314a3e5293c5c9151ed5d29743721e543dd77dc234827bd0ece638bb1e44236a512a5e32f3a5a9757eb5b2f723127e345db71de214a25bf0ccc6189b3e64034a710a7e12d38589555e9592d703325e147d973d02f442bb102c26f87bde84e3aa91ea9ef2336569b5be757237e3d2bef49d77dd22d4629b300c06d85bfea4c38ab1cabed2134549959e555217c3f29ed4bd57fd42b402fb506c66b83b9ec4a3ead1aadeb2732529f5fe353277a392feb4dd379d629422db704c46981bbee483caf18afe92530509d5de15125783b2de94fd17bd8274c23b90aca678fb5e04632a116a1ee4a5625f53bfe25f0c3b313bcbdb03d8e4819394a79b6d4c4ab440dc3858c085",
        "hex": "6a2064e7df4cf17bc766ef68c806aa0ee487d7140c5c77ee6b7ef5e63cbe2e4b967f4db00402f442bb102c26f87bde84e3aa91ea9ef2336569b5be757237e3d2bef49d77dd22d4629b300c06d85bfea4c38ab1cabed2134549959e555217c3f29ed4bd57fd42b402fb506c66b83b9ec4a3ead1aadeb2732529f5fe353277a392feb4dd379d629422db704c46981bbee483caf18afe92530509d5de15125783b2de94fd17bd8274c23b90aca678fb5e04632a116a1e72b3e5e9353ef5f2b763523e741df75da254e21bb08c8658db7e24430a314a3e5293c5c9151ed5d29743721e543dd77dc234827bd0ece638bb1e44236a512a5e32f3a5a9757eb5b2f723127e345db71de214a25bf0ccc6189b3e64034a710a7e12d38589555e9592d703325e147d973d02f442bb102c26f87bde84e3aa91ea9ef2336569b5be757237e3d2bef49d77dd22d4629b300c06d85bfea4c38ab1cabed2134549959e555217c3f29ed4bd57fd42b402fb506c66b83b9ec4a3ead1aadeb2732529f5fe353277a392feb4dd379d629422db704c46981bbee483caf18afe92530509d5de15125783b2de94fd17bd8274c23b90aca678fb5e04632a116a1e72b3e5e9353ef5f2b763523e741df75da254e21bb08c8658db7e24430a314a3e5293c5c9151ed5d29743721e543dd77dc234827bd0ece638bb1e44236a512a5e32f3a5a9757eb5b2f723127e345db71de214a25bf0ccc6189b3e64034a710a7e12d38589555e9592d703325e147d973d02f442bb102c26f87bde84e3aa91ea9ef2336569b5be757237e3d2bef49d77dd22d4629b300c06d85bfea4c38ab1cabed2134549959e555217c3f29ed4bd57fd42b402fb506c66b83b9ec4a3ead1aadeb2732529f5fe353277a392feb4dd379d629422db704c46981bbee483caf18afe92530509d5de15125783b2de94fd17bd8274c23b90aca678fb5e04632a116a1e72b3e5e9353ef5f2b763523e741df75da254e21bb08c8658db7e24430a314a3e5293c5c9151ed5d29743721e543dd77dc234827bd0ece638bb1e44236a512a5e32f3a5a9757eb5b2f723127e345db71de214a25bf0ccc6189b3e64034a710a7e12d38589555e9592d703325e147d973d02f442bb102c26f87bde84e3aa91ea9ef2336569b5be757237e3d2bef49d77dd22d4629b300c06d85bfea4c38ab1cabed2134549959e555217c3f29ed4bd57fd42b402fb506c66b83b9ec4a3ead1aadeb2732529f5fe353277a392feb4dd379d629422db704c46981bbee483caf18afe92530509d5de15125783b2de94fd17bd8274c23b90aca678fb5e04632a116a1e72b3e5e9353ef5f2b763523e741df75da254e21bb08c8658db7e24430a314a3e5293c5c9151ed5d29743721e543dd77dc234827bd0ece638bb1e44236a512a5e32f3a5a9757eb5b2f723127e345db71de214a25bf0ccc6189b3e64034a710a7e12d38589555e9592d703325e147d973d02f442bb102c26f87bde84e3aa91ea9ef2336569b5be757237e3d2bef49d77dd22d4629b300c06d85bfea4c38ab1cabed2134549959e555217c3f29ed4bd57fd42b402fb506c66b83b9ec4a3ead1aadeb2732529f5fe353277a392feb4dd379d629422db704c46981bbee483caf18afe92530509d5de15125783b2de94fd17bd8274c23b90aca678fb5e04632a116a1ee4a5625f53bfe25f0c3b313bcbdb03d8e4819394a79b6d4c4ab440dc3858c085",
        "type": "nulldata"
      }
    }
  ],
  "blockhash": "32a2d379a33ec88ae1cb3a8a1a44f2d12b76aebf574ecf7ac16b289397ed6cd9",
  "confirmations": 1,
  "time": 1764176557,
  "blocktime": 1764176557
}