{
  "hex": "01000000000101ef7ad52a2ea93f435fe7d90e9562649acc5b84c64ea0428bb8eb67e45db05a5b0000000000feffffff02202367d2782d00002251204e879597c8ef4cc38c8a2de4c3c9ad317a3c975bbd0d9cc443a851003cda8bfb00e1f50500000000fdd5046a205b6ad3d20bdf1354423a6509940db0fe486aa2b2392c960aa033430332c619714db004a6bd9da547f37f08f0e7c5cd2202f685214611d9e9c5a1a2b14d3ab7aa748e4b869dbd8567d35f28d0c7e5ed0222d6a5016631f9c9e58182916d1a978a54ae6be6fddde507b33f48b0a7858d6242b6c561065199a985e1e2f10d7af7ea34ce0bc6ddfdc527931f689087a5ad426296e5412671b989a5c1c2d12d5ad7ca14ee2b263d1d25c773ff887067454da2827605a1c691596945212231cdba372af40ecb061d3d05e753dfa85047656d82a2562581e6b1794965010211ed9a170ad42eeb667d5d658733bfc83027050de2c23645e186d11929056162718dfa776ab44e8b465d7d45a7139fe81007252dc2e21665c1a6f1390925414251adda574a946eaba6bd9da547f37f08f0e7c5cd2202f685214611d9e9c5a1a2b14d3ab7aa748e4b869dbd8567d35f28d0c7e5ed0222d6a5016631f9c9e58182916d1a978a54ae6be6fddde507b33f48b0a7858d6242b6c561065199a985e1e2f10d7af7ea34ce0bc6ddfdc527931f689087a5ad426296e5412671b989a5c1c2d12d5ad7ca14ee2b263d1d25c773ff887067454da2827605a1c691596945212231cdba372af40ecb061d3d05e753dfa85047656d82a2562581e6b1794965010211ed9a170ad42eeb667d5d658733bfc83027050de2c23645e186d11929056162718dfa776ab44e8b465d7d45a7139fe81007252dc2e21665c1a6f1390925414251adda574a946eaba6bd9da547f37f08f0e7c5cd2202f685214611d9e9c5a1a2b14d3ab7aa748e4b869dbd8567d35f28d0c7e5ed0222d6a5016631f9c9e58182916d1a978a54ae6be6fddde507b33f48b0a7858d6242b6c561065199a985e1e2f10d7af7ea34ce0bc6ddfdc527931f689087a5ad426296e5412671b989a5c1c2d12d5ad7ca14ee2b263d1d25c773ff887067454da2827605a1c691596945212231cdba372af40ecb061d3d05e753dfa85047656d82a2562581e6b1794965010211ed9a170ad42eeb667d5d658733bfc83027050de2c23645e186d11929056162718dfa776ab44e8b465d7d45a7139fe81007252dc2e21665c1a6f1390925414251adda574a946eaba6bd9da547f37f08f0e7c5cd2202f685214611d9e9c5a1a2b14d3ab7aa748e4b869dbd8567d35f28d0c7e5ed0222d6a5016631f9c9e58182916d1a978a54ae6be6fddde507b33f48b0a7858d6242b6c561065199a985e1e2f10d7af7ea34ce0bc6ddfdc527931f689087a5ad426296e5412671b989a5c1c2d12d5ad7ca14ee2b263d1d25c773ff887067454da2827605a1c691596945212231cdba372af40ecb061d3d05e753dfa85047656d82a2562581e6b1794965010211ed9a170ad42eeb667d5d658733bfc83027050de2c23645e186d11929056162718dfa776ab44e8b465d7d45a7139fe81007252dc2e21665c1a6f1390925414251adda574a946eaba6bd9da547f37f08f0e7c5cd2202f685214611d9e9c5a1a2b14d3ab7aa748e4b869dbd8567d35f28d0c7e5ed0222d6a5016631f9c9e58182916d1a978a54ae6be6fddde507b33f48b0a7858d6242b6c561065199a985e1e2f10d7af7ea34ce0bc6ddfdc527931f689087a5ad426296e5412671b989a5c1c2d12d5ad7ca14ee2b263d1d25c773ff887067454da28276055308c623aefb37bfa4ec45be73f3aa89d28bef95814cb5c21455f1e53f45f4ab02fd750973a53de74670d6fbc6d65ebca336227c03fd4b733d98351cb9d89a06498705e93647577d26be3e1ec3f88afb946159e9f144470f419acb56685fbec1552b9f119510fda590973f0a9cb3c234373d1ecc2eeceb6aa1254740e64218e1cee9867dc197a472a654a5655ef4f0ef0b871509f6f5f2f5272f2218a6e884f595bcbb28dbb6cd751632cc11d513da6a7bbdcb96ebc317b2de7f35d42d95d6187494ac612a84c9d252edba9c21cacf6050747a1d00f0693cc3a25cbf067d3078812728791768410981d714c5ebc60dee499177d96330a3838012185cc1a8afb8862686fb2b3ee29bac2fe13a279310b4d33e1b994a6379b90166c4ae8b1fd3a8be1cec09af699fcb8f4ddf26af61e1526176aab7254a23772880b63e0a6a48eaae0b776280b7a8686c4eb709b335c6f8c9ce511973bf772183f84b39b2a6e30a5e563bf4c9996933e2e6fec9ca6eda38c450582a053b9dd74d7db1859910ae3baa6c58b92af03297e760704e6e51568ce9331b981f4fa6e7128316c7b7155433cce0aaff77c039760a5fea7ddad09626dd8904e553925945e5940bb9b3374a9a781f11a3d41e02e688c57567aac02a4c832089ed358b7196f1d4586594f8cb5f3bc879fe2b4d5d3c437afe406b7e9ccaad37af0d9d20996eae36819ac6eb6914da7da865cf4e89cd1b968832934536965c9fbe28ded360389c591e2c8c9145908ee7ea96be14fde61117110ef3d34da698c67839f083042083e649e72ccc778cc5219977fff1de1a4ca128ffbe46205f6a617080f91ed2d7f09ff494bb36bb9af9a21de8887a0817d15840dffa7c97dd0c7247904f939d3e97fea93b8e6d0fe5d61042b5ebf2e6bc1f3c7e5d3be5bbe101902d664901fa9b50f1b6b2b0cfad32e72c1721187e79d3584f53e03035e121df831e05c5f0364244053bc5894dace85c0f6959308c0b482061e2f4893cb18cd95cfd1c1f7c558ebd7392a1c2237899113aa271ba5ab988f5bbf6dcc410e48485f2c78f65879255e80a118f548fb252a66946889310a86dc616b258dd43d13138fbd3e8298b532a274102ab91cea22e8e49b2b810415250b4a9dfae30837479b9e07fa2b02b3837c6d64e561b476670e26e99d88f8b01e797d25ee59bfa577fdf7369a872901b32efb6f4341935bbfe51d05a6a3e34e6baa54c826ef09b6ca3d16aa657419f3174b090418e3a47189648a9969acbe3664ac8e3dfd9408b6b9442d628ca2cb331451dff40ddf9c11cf2160952667d81cbd16b01d06948696e093927c3554e1163af9d671dda4659066ec34dee7f286371654f0bd4c52d59a9f6a1932d549450e1ee5bd9f1987701fb08bec8084d527194d97a58b28df9c5247c3c933fb7289bc5e7185f480c6512ff453438eb130714e374286c8f4205d60d84d3b52a0ce1f7508cec3e272a3fad514d9ecf702e6bf96c78ad8a0dfb5e0e7df1a29aca289d02c862d4266fd724e96466cdb8193b0d57e5095155e0be8301ef6b62ac14912732622da926213159ea53c78ca66a24541169b120a6c944f774bf5ae479d8f67dc4e5a73a1339428e6c170d4789babad1d250dfa0ce71aa6d2144dbd434246f9ac4991d93f6da3f2a6e9c8f99b05ce96561172e02cd076b7c338cf0f91bb403dd95832f9ff32b5221f3dd7b091772e3be2bc2107ebed6ddb78b99604b94c948afa7c8e832fdff965154a381f78ddf141af663c0c7233c4f7e0d19f3b8ed39466a72d1f8aacdbcd4da1aec203ce03832f41b894126c13e2ba11e7ab2cbdf55627e5eef0aeec6efc8e377c10d8bdf75ab85c36cc7e58d3e9cfbaf42fb777a52fc29db27615f8923a1496011ae7f410a875699f2df9803e8bcf2e158cf8d543c39f9e97f6b49051701974f05b0a8c2f3ec712476337de6bfb28c64d6e690c7b3e21019a0cc3d5f7713dbbc97c74185c72fec0deefb4f20525f368dc90af05ff2db59bd4c5e3166dde62e24a9b8aebf39d82dbf498db302ad139c67e31d6e5c626012d3c28b8e72a61bbacf94a3f1ff34962eec5e758ea375e84a558003604724589eb1563c830adae332ef14a978994092472bfa38fe6207df5feafbd8f8b0fcb367130fd8616a14af54992826b06695a41e929b80e7c7c865c61331c38b885c71e8093ef2f1c3afb7ea3ca53c67d911fa7625267f4d8b82baee7056461b755b016bd8cf8a3ea4204beafd6d14c6a2315355b166ea0c28c3836b7e3cb20f9d09de8f3b32ffc1ae09c690726a6f66299078a09c0eee58369530f51e7a14e85e1dbfccaf5eb9ecb833050882b5d963219e8f0f66dafcfe83cd9448a51d2717558207d337f44ecb1d923166c5262092dc3d8c92b9f8c1ef1d907af8cbf97114644d542eb61bd1a67d4ac74a95336001023436f51b425199f4c7cffc7a11c6b99abeb08405137b9540bd48e8d0c82f909cdb93d6d0c5d9e7d006c39352e7e58ff8f533e5eb5c0a2b4abf886220d3afad077d7ef020ba78590ef71b14b2a26d4639cbbdc7a13f2d5642aed793c6398207fbabb053e0743fc2aa8011938319df88258dea11f2721e3947a1c6c9967e642b97c2ada55eff974e17b463a056499bd26946151918ee01ecb9ff0a662b56b8a63fc0e2ed6d62cc14f450367ea5b837fb54f99a22e72ce75687db42ab35f199f26f8efc2bd4152019e6f5d36d9961e63d98a237ee018e51f8ce4a1c3d26a9e1f3abde230ce6a196454061ee1805d376f6ac6459e36f9113b2d4fe7dd83cadfb659a1a00f3c2a3404526c93c1a271449cc9e0b2fb68353053d239741febcebb3b1986ac18d5928cb9dd9857d3608d7f8c8dc71d4aa9b8afc66db4b8701ecba183ba560c0203902e7be710d54bbea7e1087d20e711e3da1c915f205403cdb9116ee8cf2e724028f1850d7547cb7ed965a3688bdb9bd34f39d357d67eb91e5840df4259333ca391595aa1f1309e8e27800f8aa6b699dd0ecdb55cb3089784dcf430f92d867741112b33a940a70bce927ea3a05d8846a7422e616910bfae6af18714c2d9ac4dfbb5eb3684cb53173dd8d7f944bbbbf282be48525995743951eb43d317910f5cfa24ad03aab93341b17d7da4d59bad51d1afec9955272631f19387c4d7c8e2f8de2c355f37d9f880d654ab51348974ecd8bb0fc093d53efd2167305c9dbd0bd596e2d732e6c91505998a328be6cb747332f192b2dba1830b390f8dcfe6176d98a6e8cd59bf106a462a636603ad92f0fea0b3f46f207b3c45b5b82d001786fec92a51c374d88486ffd181f0ec570ef5f27102f92c059c90b4442d5faa7826705010910294a5562647d89acd3d8dbfbff292c2d406e75abb7b8bbd7d9e1f904054358767c7f828896a3adbac3c5c6cef6f827292d435a63699ea4a7afc0cbd5ef00000000000000000000000000000000101e314001fd2105006ec1a6ae6411cb19cbab687cf9891529f47a664b15fe2a1964ea5bc230285e67c3ea565bb493ec65994291a0feade2562cd0cda354931b6c944d58915128209739dec3ac07867002c8c457f68a07010d886bf41f922882d8f0b05e99d2e2dbeabdb8b3beaabd2d2b5e69abb6a65f443585a93b770512d7a6ccf126746b959eac83c3b803bc9b5b0a5860198b77a37a617f581b299d418ce1c275d7f854c69559fb6ac60999b58329a24d8da3ce39ac5438744f19c0c8417ff52ca651ce607d4b05a081791985285b64cdac09da55c3a3579ce4ba653a8d1099e74906146cd90f1a6845067d97cf1c49013f6e0e8857fc2720b09ee6137c9fb814b2568b6fb80809a083b8c47cbe6afa25d89246e836ccb30a4bff2b9427c4bbe6a37822f9ca50ec85ad5b1c90ad1dfe978a64f4b24530b0039d38436b71cf5d6f9af9bc65950fed45f671c5eb3e2286a957db00336cb0f90a54ceb7e25b13d2c8a5b68babd6185ca5d26e591eeb7788d91ca7237bb4ba91fcd6d23899121a616eb0b7510fdd6eaaf7250235892a9158b6ea9072e5c28b1f6252cdc5f9afe9d17bae65644ce22436ccc28b36255e8e4fa9609f0432c2196dba974d1de5f3ed93f1e8a1200dee95b7a30107032588e6abbdaca5aa3613ba52fd56ba279632f97de825c2a360f243020c6127d3d59ac76f3efbd6c2c65405a2fca0b0c0f3002222c1277b0c1a254a8ebe9023dc4b0b4bd8d3e6347ed9676726b6a27209689e1cfae49e7b56769ad18bee61274f3489bc86ad934af64dbd3e15920cf4a0050581fbd24af92e86d6dda0d7ab05c31bb75f00e9ce5ce18089ec635de643699be9b86f556e151dc0671266764e8ff44764d297d8c60d8606410afb261ef92dafcea0491419cb4c3d811c48ac4891ca8afc52ddf4509a48d5afc327c00b13220352d78f2d3765d4502eaff22f013b4113cde022b7fd95284a7aefd3f1931121cb715dd581bcc00359965e0dd63c6261d07c8f895b2ec274bb87a7faba0cf181d7e54cf1fc81bd53b04083fe13ecc5f81aa6a47594e27b9751c85dc4644894433f3a6c20d2115e161332c0525aeb79d58f877a53ddcfbf5a298144f73d0241c7b78259ceab78f1a1d4986d5b0129c0c8bbd13543c69fa197a7c5a799688ac8c2793879869f5a33b79abe84ac8cb29808f983d43aafd89751dff6c54bbe757be6b0a7a6474ac1b2c2e1ef90aae907b52076d26b3880a270e0b4faaef22a23df461fda733217d12048d95c32f764de833227d05a839a5e53265fc758dd4cbbcd122fc0a763c699938f183daed8097a847837d4e2d2fba806fd2a39d49e8116dcce7980411c69b13036dd6c3e13181a479923f520063b679986b3f072fc990c625df384b6c256f41e411e95ed55c0a998178d26fc42cae72e1719b58c48a12b2bdb2456fee521da4a53d9e2e5dc13e1b6a8de0979014c9884fc5a907c85fb4f9ce68f5af6cf883613ee092a5ba4c014afca49c7afd46268eb7aa0ba583a5974f2e1f1a207c433e4806103fa3abf01a480e470fb82853837ee9e5ee799fe8b100b02eecd4b41d6698de07a50bec8aea194d2049295d713414c09acc95e01425a1d8fb77bcf84ec3c8d0f7849e7effea75669d3d5589feefbe33b5d65c410db375cb2f4e6738a3052bc2217f4ccd48b7ba8977f319217f082c4139e12d0099dfb6556e24394ae4596ca11413ea79193a355a613e8d18fba7058180cecea696654a3cd4beb97492c7c2caf3fe364be492b20a0c03f9c8514e4a294e51386b2ac1885764eb6f1f0dea7fa6ca3f97d48d097577f404f74b43375e4fb88e6ef60bf35c6197caa70b158983022c4a9277d000000",
  "txid": "d2a9c1a5a2be98f0f08dfd4e451e555cec3e4719481433d42a07bf6610e4cac6",
  "hash": "05cd87a2abf8708be0f6d71580f6f237fc1d73ad698ec460d44d7daa43d53ca5",
  "size": 5085,
  "vsize": 2278,
  "version": 1,
  "locktime": 125,
  "vin": [
    {
      "txid": "5b5ab05de467ebb88b42a04ec6845bcc9a6462950ed9e75f433fa92e2ad57aef",
      "vout": 0,
      "scriptSig": {
        "asm": "",
        "hex": ""
      },
      "txinwitness": [
        "73a53de74670d6fbc6d65ebca336227c03fd4b733d98351cb9d89a06498705e93647577d26be3e1ec3f88afb946159e9f144470f419acb56685fbec1552b9f119510fda590973f0a9cb3c234373d1ecc2eeceb6aa1254740e64218e1cee9867dc197a472a654a5655ef4f0ef0b871509f6f5f2f5272f2218a6e884f595bcbb28dbb6cd751632cc11d513da6a7bbdcb96ebc317b2de7f35d42d95d6187494ac612a84c9d252edba9c21cacf6050747a1d00f0693cc3a25cbf067d3078812728791768410981d714c5ebc60dee499177d96330a3838012185cc1a8afb8862686fb2b3ee29bac2fe13a279310b4d33e1b994a6379b90166c4ae8b1fd3a8be1cec09af699fcb8f4ddf26af61e1526176aab7254a23772880b63e0a6a48eaae0b776280b7a8686c4eb709b335c6f8c9ce511973bf772183f84b39b2a6e30a5e563bf4c9996933e2e6fec9ca6eda38c450582a053b9dd74d7db1859910ae3baa6c58b92af03297e760704e6e51568ce9331b981f4fa6e7128316c7b7155433cce0aaff77c039760a5fea7ddad09626dd8904e553925945e5940bb9b3374a9a781f11a3d41e02e688c57567aac02a4c832089ed358b7196f1d4586594f8cb5f3bc879fe2b4d5d3c437afe406b7e9ccaad37af0d9d20996eae36819ac6eb6914da7da865cf4e89cd1b968832934536965c9fbe28ded360389c591e2c8c9145908ee7ea96be14fde61117110ef3d34da698c67839f083042083e649e72ccc778cc5219977fff1de1a4ca128ffbe46205f6a617080f91ed2d7f09ff494bb36bb9af9a21de8887a0817d15840dffa7c97dd0c7247904f939d3e97fea93b8e6d0fe5d61042b5ebf2e6bc1f3c7e5d3be5bbe101902d664901fa9b50f1b6b2b0cfad32e72c1721187e79d3584f53e03035e121df831e05c5f0364244053bc5894dace85c0f6959308c0b482061e2f4893cb18cd95cfd1c1f7c558ebd7392a1c2237899113aa271ba5ab988f5bbf6dcc410e48485f2c78f65879255e80a118f548fb252a66946889310a86dc616b258dd43d13138fbd3e8298b532a274102ab91cea22e8e49b2b810415250b4a9dfae30837479b9e07fa2b02b3837c6d64e561b476670e26e99d88f8b01e797d25ee59bfa577fdf7369a872901b32efb6f4341935bbfe51d05a6a3e34e6baa54c826ef09b6ca3d16aa657419f3174b090418e3a47189648a9969acbe3664ac8e3dfd9408b6b9442d628ca2cb331451dff40ddf9c11cf2160952667d81cbd16b01d06948696e093927c3554e1163af9d671dda4659066ec34dee7f286371654f0bd4c52d59a9f6a1932d549450e1ee5bd9f1987701fb08bec8084d527194d97a58b28df9c5247c3c933fb7289bc5e7185f480c6512ff453438eb130714e374286c8f4205d60d84d3b52a0ce1f7508cec3e272a3fad514d9ecf702e6bf96c78ad8a0dfb5e0e7df1a29aca289d02c862d4266fd724e96466cdb8193b0d57e5095155e0be8301ef6b62ac14912732622da926213159ea53c78ca66a24541169b120a6c944f774bf5ae479d8f67dc4e5a73a1339428e6c170d4789babad1d250dfa0ce71aa6d2144dbd434246f9ac4991d93f6da3f2a6e9c8f99b05ce96561172e02cd076b7c338cf0f91bb403dd95832f9ff32b5221f3dd7b091772e3be2bc2107ebed6ddb78b99604b94c948afa7c8e832fdff965154a381f78ddf141af663c0c7233c4f7e0d19f3b8ed39466a72d1f8aacdbcd4da1aec203ce03832f41b894126c13e2ba11e7ab2cbdf55627e5eef0aeec6efc8e377c10d8bdf75ab85c36cc7e58d3e9cfbaf42fb777a52fc29db27615f8923a1496011ae7f410a875699f2df9803e8bcf2e158cf8d543c39f9e97f6b49051701974f05b0a8c2f3ec712476337de6bfb28c64d6e690c7b3e21019a0cc3d5f7713dbbc97c74185c72fec0deefb4f20525f368dc90af05ff2db59bd4c5e3166dde62e24a9b8aebf39d82dbf498db302ad139c67e31d6e5c626012d3c28b8e72a61bbacf94a3f1ff34962eec5e758ea375e84a558003604724589eb1563c830adae332ef14a978994092472bfa38fe6207df5feafbd8f8b0fcb367130fd8616a14af54992826b06695a41e929b80e7c7c865c61331c38b885c71e8093ef2f1c3afb7ea3ca53c67d911fa7625267f4d8b82baee7056461b755b016bd8cf8a3ea4204beafd6d14c6a2315355b166ea0c28c3836b7e3cb20f9d09de8f3b32ffc1ae09c690726a6f66299078a09c0eee58369530f51e7a14e85e1dbfccaf5eb9ecb833050882b5d963219e8f0f66dafcfe83cd9448a51d2717558207d337f44ecb1d923166c5262092dc3d8c92b9f8c1ef1d907af8cbf97114644d542eb61bd1a67d4ac74a95336001023436f51b425199f4c7cffc7a11c6b99abeb08405137b9540bd48e8d0c82f909cdb93d6d0c5d9e7d006c39352e7e58ff8f533e5eb5c0a2b4abf886220d3afad077d7ef020ba78590ef71b14b2a26d4639cbbdc7a13f2d5642aed793c6398207fbabb053e0743fc2aa8011938319df88258dea11f2721e3947a1c6c9967e642b97c2ada55eff974e17b463a056499bd26946151918ee01ecb9ff0a662b56b8a63fc0e2ed6d62cc14f450367ea5b837fb54f99a22e72ce75687db42ab35f199f26f8efc2bd4152019e6f5d36d9961e63d98a237ee018e51f8ce4a1c3d26a9e1f3abde230ce6a196454061ee1805d376f6ac6459e36f9113b2d4fe7dd83cadfb659a1a00f3c2a3404526c93c1a271449cc9e0b2fb68353053d239741febcebb3b1986ac18d5928cb9dd9857d3608d7f8c8dc71d4aa9b8afc66db4b8701ecba183ba560c0203902e7be710d54bbea7e1087d20e711e3da1c915f205403cdb9116ee8cf2e724028f1850d7547cb7ed965a3688bdb9bd34f39d357d67eb91e5840df4259333ca391595aa1f1309e8e27800f8aa6b699dd0ecdb55cb3089784dcf430f92d867741112b33a940a70bce927ea3a05d8846a7422e616910bfae6af18714c2d9ac4dfbb5eb3684cb53173dd8d7f944bbbbf282be48525995743951eb43d317910f5cfa24ad03aab93341b17d7da4d59bad51d1afec9955272631f19387c4d7c8e2f8de2c355f37d9f880d654ab51348974ecd8bb0fc093d53efd2167305c9dbd0bd596e2d732e6c91505998a328be6cb747332f192b2dba1830b390f8dcfe6176d98a6e8cd59bf106a462a636603ad92f0fea0b3f46f207b3c45b5b82d001786fec92a51c374d88486ffd181f0ec570ef5f27102f92c059c90b4442d5faa7826705010910294a5562647d89acd3d8dbfbff292c2d406e75abb7b8bbd7d9e1f904054358767c7f828896a3adbac3c5c6cef6f827292d435a63699ea4a7afc0cbd5ef00000000000000000000000000000000101e314001",
        "006ec1a6ae6411cb19cbab687cf9891529f47a664b15fe2a1964ea5bc230285e67c3ea565bb493ec65994291a0feade2562cd0cda354931b6c944d58915128209739dec3ac07867002c8c457f68a07010d886bf41f922882d8f0b05e99d2e2dbeabdb8b3beaabd2d2b5e69abb6a65f443585a93b770512d7a6ccf126746b959eac83c3b803bc9b5b0a5860198b77a37a617f581b299d418ce1c275d7f854c69559fb6ac60999b58329a24d8da3ce39ac5438744f19c0c8417ff52ca651ce607d4b05a081791985285b64cdac09da55c3a3579ce4ba653a8d1099e74906146cd90f1a6845067d97cf1c49013f6e0e8857fc2720b09ee6137c9fb814b2568b6fb80809a083b8c47cbe6afa25d89246e836ccb30a4bff2b9427c4bbe6a37822f9ca50ec85ad5b1c90ad1dfe978a64f4b24530b0039d38436b71cf5d6f9af9bc65950fed45f671c5eb3e2286a957db00336cb0f90a54ceb7e25b13d2c8a5b68babd6185ca5d26e591eeb7788d91ca7237bb4ba91fcd6d23899121a616eb0b7510fdd6eaaf7250235892a9158b6ea9072e5c28b1f6252cdc5f9afe9d17bae65644ce22436ccc28b36255e8e4fa9609f0432c2196dba974d1de5f3ed93f1e8a1200dee95b7a30107032588e6abbdaca5aa3613ba52fd56ba279632f97de825c2a360f243020c6127d3d59ac76f3efbd6c2c65405a2fca0b0c0f3002222c1277b0c1a254a8ebe9023dc4b0b4bd8d3e6347ed9676726b6a27209689e1cfae49e7b56769ad18bee61274f3489bc86ad934af64dbd3e15920cf4a0050581fbd24af92e86d6dda0d7ab05c31bb75f00e9ce5ce18089ec635de643699be9b86f556e151dc0671266764e8ff44764d297d8c60d8606410afb261ef92dafcea0491419cb4c3d811c48ac4891ca8afc52ddf4509a48d5afc327c00b13220352d78f2d3765d4502eaff22f013b4113cde022b7fd95284a7aefd3f1931121cb715dd581bcc00359965e0dd63c6261d07c8f895b2ec274bb87a7faba0cf181d7e54cf1fc81bd53b04083fe13ecc5f81aa6a47594e27b9751c85dc4644894433f3a6c20d2115e161332c0525aeb79d58f877a53ddcfbf5a298144f73d0241c7b78259ceab78f1a1d4986d5b0129c0c8bbd13543c69fa197a7c5a799688ac8c2793879869f5a33b79abe84ac8cb29808f983d43aafd89751dff6c54bbe757be6b0a7a6474ac1b2c2e1ef90aae907b52076d26b3880a270e0b4faaef22a23df461fda733217d12048d95c32f764de833227d05a839a5e53265fc758dd4cbbcd122fc0a763c699938f183daed8097a847837d4e2d2fba806fd2a39d49e8116dcce7980411c69b13036dd6c3e13181a479923f520063b679986b3f072fc990c625df384b6c256f41e411e95ed55c0a998178d26fc42cae72e1719b58c48a12b2bdb2456fee521da4a53d9e2e5dc13e1b6a8de0979014c9884fc5a907c85fb4f9ce68f5af6cf883613ee092a5ba4c014afca49c7afd46268eb7aa0ba583a5974f2e1f1a207c433e4806103fa3abf01a480e470fb82853837ee9e5ee799fe8b100b02eecd4b41d6698de07a50bec8aea194d2049295d713414c09acc95e01425a1d8fb77bcf84ec3c8d0f7849e7effea75669d3d5589feefbe33b5d65c410db375cb2f4e6738a3052bc2217f4ccd48b7ba8977f319217f082c4139e12d0099dfb6556e24394ae4596ca11413ea79193a355a613e8d18fba7058180cecea696654a3cd4beb97492c7c2caf3fe364be492b20a0c03f9c8514e4a294e51386b2ac1885764eb6f1f0dea7fa6ca3f97d48d097577f404f74b43375e4fb88e6ef60bf35c6197caa70b158983022c4a927"
      ],
      "sequence": 4294967294
    }
  ],
  "vout": [
    {
      "value": 499969.493,
      "n": 0,
      "scriptPubKey": {
        "asm": "1 4e879597c8ef4cc38c8a2de4c3c9ad317a3c975bbd0d9cc443a851003cda8bfb",
        "hex": "51204e879597c8ef4cc38c8a2de4c3c9ad317a3c975bbd0d9cc443a851003cda8bfb",
        "reqSigs": 1,
        "type": "witness_v1_scripthash",
        "addresses": [
          "3QJmnh"
        ]
      }
    },
    {
      "value": 1.0,
      "n": 1,
      "scriptPubKey": {
        "asm": "OP_RETURN 5b6ad3d20bdf1354423a6509940db0fe486aa2b2392c960aa033430332c61971 a6bd9da547f37f08f0e7c5cd2202f685214611d9e9c5a1a2b14d3ab7aa748e4b869dbd8567d35f28d0c7e5ed0222d6a5016631f9c9e58182916d1a978a54ae6be6fddde507b33f48b0a7858d6242b6c561065199a985e1e2f10d7af7ea34ce0bc6ddfdc527931f689087a5ad426296e5412671b989a5c1c2d12d5ad7ca14ee2b263d1d25c773ff887067454da2827605a1c691596945212231cdba372af40ecb061d3d05e753dfa85047656d82a2562581e6b1794965010211ed9a170ad42eeb667d5d658733bfc83027050de2c23645e186d11929056162718dfa776ab44e8b465d7d45a7139fe81007252dc2e21665c1a6f1390925414251adda574a946eaba6bd9da547f37f08f0e7c5cd2202f685214611d9e9c5a1a2b14d3ab7aa748e4b869dbd8567d35f28d0c7e5ed0222d6a5016631f9c9e58182916d1a978a54ae6be6fddde507b33f48b0a7858d6242b6c561065199a985e1e2f10d7af7ea34ce0bc6ddfdc527931f689087a5ad426296e5412671b989a5c1c2d12d5ad7ca14ee2b263d1d25c773ff887067454da2827605a1c691596945212231cdba372af40ecb061d3d05e753dfa85047656d82a2562581e6b1794965010211ed9a170ad42eeb667d5d658733bfc83027050de2c23645e186d11929056162718dfa776ab44e8b465d7d45a7139fe81007252dc2e21665c1a6f1390925414251adda574a946eaba6bd9da547f37f08f0e7c5cd2202f685214611d9e9c5a1a2b14d3ab7aa748e4b869dbd8567d35f28d0c7e5ed0222d6a5016631f9c9e58182916d1a978a54ae6be6fddde507b33f48b0a7858d6242b6c561065199a985e1e2f10d7af7ea34ce0bc6ddfdc527931f689087a5ad426296e5412671b989a5c1c2d12d5ad7ca14ee2b263d1d25c773ff887067454da2827605a1c691596945212231cdba372af40ecb061d3d05e753dfa85047656d82a2562581e6b1794965010211ed9a170ad42eeb667d5d658733bfc83027050de2c23645e186d11929056162718dfa776ab44e8b465d7d45a7139fe81007252dc2e21665c1a6f1390925414251adda574a946eaba6bd9da547f37f08f0e7c5cd2202f685214611d9e9c5a1a2b14d3ab7aa748e4b869dbd8567d35f28d0c7e5ed0222d6a5016631f9c9e58182916d1a978a54ae6be6fddde507b33f48b0a7858d6242b6c561065199a985e1e2f10d7af7ea34ce0bc6ddfdc527931f689087a5ad426296e5412671b989a5c1c2d12d5ad7ca14ee2b263d1d25c773ff887067454da2827605a1c691596945212231cdba372af40ecb061d3d05e753dfa85047656d82a2562581e6b1794965010211ed9a170ad42eeb667d5d658733bfc83027050de2c23645e186d11929056162718dfa776ab44e8b465d7d45a7139fe81007252dc2e21665c1a6f1390925414251adda574a946eaba6bd9da547f37f08f0e7c5cd2202f685214611d9e9c5a1a2b14d3ab7aa748e4b869dbd8567d35f28d0c7e5ed0222d6a5016631f9c9e58182916d1a978a54ae6be6fddde507b33f48b0a7858d6242b6c561065199a985e1e2f10d7af7ea34ce0bc6ddfdc527931f689087a5ad426296e5412671b989a5c1c2d12d5ad7ca14ee2b263d1d25c773ff887067454da28276055308c623aefb37bfa4ec45be73f3aa89d28bef95814cb5c21455f1e53f45f4ab",
        "hex": "6a205b6ad3d20bdf1354423a6509940db0fe486aa2b2392c960aa033430332c619714db004a6bd9da547f37f08f0e7c5cd2202f685214611d9e9c5a1a2b14d3ab7aa748e4b869dbd8567d35f28d0c7e5ed0222d6a5016631f9c9e58182916d1a978a54ae6be6fddde507b33f48b0a7858d6242b6c561065199a985e1e2f10d7af7ea34ce0bc6ddfdc527931f689087a5ad426296e5412671b989a5c1c2d12d5ad7ca14ee2b263d1d25c773ff887067454da2827605a1c691596945212231cdba372af40ecb061d3d05e753dfa85047656d82a2562581e6b1794965010211ed9a170ad42eeb667d5d658733bfc83027050de2c23645e186d11929056162718dfa776ab44e8b465d7d45a7139fe81007252dc2e21665c1a6f1390925414251adda574a946eaba6bd9da547f37f08f0e7c5cd2202f685214611d9e9c5a1a2b14d3ab7aa748e4b869dbd8567d35f28d0c7e5ed0222d6a5016631f9c9e58182916d1a978a54ae6be6fddde507b33f48b0a7858d6242b6c561065199a985e1e2f10d7af7ea34ce0bc6ddfdc527931f689087a5ad426296e5412671b989a5c1c2d12d5ad7ca14ee2b263d1d25c773ff887067454da2827605a1c691596945212231cdba372af40ecb061d3d05e753dfa85047656d82a2562581e6b1794965010211ed9a170ad42eeb667d5d658733bfc83027050de2c23645e186d11929056162718dfa776ab44e8b465d7d45a7139fe81007252dc2e21665c1a6f1390925414251adda574a946eaba6bd9da547f37f08f0e7c5cd2202f685214611d9e9c5a1a2b14d3ab7aa748e4b869dbd8567d35f28d0c7e5ed0222d6a5016631f9c9e58182916d1a978a54ae6be6fddde507b33f48b0a7858d6242b6c561065199a985e1e2f10d7af7ea34ce0bc6ddfdc527931f689087a5ad426296e5412671b989a5c1c2d12d5ad7ca14ee2b263d1d25c773ff887067454da2827605a1c691596945212231cdba372af40ecb061d3d05e753dfa85047656d82a2562581e6b1794965010211ed9a170ad42eeb667d5d658733bfc83027050de2c23645e186d11929056162718dfa776ab44e8b465d7d45a7139fe81007252dc2e21665c1a6f1390925414251adda574a946eaba6bd9da547f37f08f0e7c5cd2202f685214611d9e9c5a1a2b14d3ab7aa748e4b869dbd8567d35f28d0c7e5ed0222d6a5016631f9c9e58182916d1a978a54ae6be6fddde507b33f48b0a7858d6242b6c561065199a985e1e2f10d7af7ea34ce0bc6ddfdc527931f689087a5ad426296e5412671b989a5c1c2d12d5ad7ca14ee2b263d1d25c773ff887067454da2827605a1c691596945212231cdba372af40ecb061d3d05e753dfa85047656d82a2562581e6b1794965010211ed9a170ad42eeb667d5d658733bfc83027050de2c23645e186d11929056162718dfa776ab44e8b465d7d45a7139fe81007252dc2e21665c1a6f1390925414251adda574a946eaba6bd9da547f37f08f0e7c5cd2202f685214611d9e9c5a1a2b14d3ab7aa748e4b869dbd8567d35f28d0c7e5ed0222d6a5016631f9c9e58182916d1a978a54ae6be6fddde507b33f48b0a7858d6242b6c561065199a985e1e2f10d7af7ea34ce0bc6ddfdc527931f689087a5ad426296e5412671b989a5c1c2d12d5ad7ca14ee2b263d1d25c773ff887067454da28276055308c623aefb37bfa4ec45be73f3aa89d28bef95814cb5c21455f1e53f45f4ab",
        "type": "nulldata"
      }
    }
  ],
  "blockhash": "e6a4adf54726245f4c34283d217923918cb1557d6baaa77edf2bc72597605551",
  "confirmations": 1,
  "time": 1764181118,
  "blocktime": 1764181118
}