{
  "hex": "010000000001019bc89a7bb86ff4599ec5f35acf123a4bc442513829680e0fbe4cdc01baa29d280100000000feffffff02c075fe6f792d00002251207e08d222068514fe03c3ce1065b29620756be03f014dfa911a1f106f1154a2ed00e1f50500000000fdd5046a20349b833d1d3449143a382fa426cdbcb0d6d1be58960165d99ee296eb6f5207e84db004c1fcd17ff53705b1261214e7bf51642c36b7ddf75ea4f2f8d6bb35f92b3673c3e1dcf15fd5172591063234c79f71440c1697fdd77e84d2d8f69b15d90b1653e381bc913fb57745f1665254a7ff11246c76f79db71ee4b2b896fb75b96b763383a19cb11f955765d146727487df31044c56d7bd973ec49298b6db55994b5613a3417c51ff75b78531a69294673fd1e4acb6375d77de247278563bb579abb6f343615c71df5597a51186b2b4471ff1c48c96177d57fe045258761b95598b96d363013c11bf35f7c571e6d2d4277f91a4ecf6771d379e643238167bf539ebf6b303211c319f15d7e551c6f2f4075fb184ccd6573d17be441218365bd519cbd69323c1fcd17ff53705b1261214e7bf51642c36b7ddf75ea4f2f8d6bb35f92b3673c3e1dcf15fd5172591063234c79f71440c1697fdd77e84d2d8f69b15d90b1653e381bc913fb57745f1665254a7ff11246c76f79db71ee4b2b896fb75b96b763383a19cb11f955765d146727487df31044c56d7bd973ec49298b6db55994b5613a3417c51ff75b78531a69294673fd1e4acb6375d77de247278563bb579abb6f343615c71df5597a51186b2b4471ff1c48c96177d57fe045258761b95598b96d363013c11bf35f7c571e6d2d4277f91a4ecf6771d379e643238167bf539ebf6b303211c319f15d7e551c6f2f4075fb184ccd6573d17be441218365bd519cbd69323c1fcd17ff53705b1261214e7bf51642c36b7ddf75ea4f2f8d6bb35f92b3673c3e1dcf15fd5172591063234c79f71440c1697fdd77e84d2d8f69b15d90b1653e381bc913fb57745f1665254a7ff11246c76f79db71ee4b2b896fb75b96b763383a19cb11f955765d146727487df31044c56d7bd973ec49298b6db55994b5613a3417c51ff75b78531a69294673fd1e4acb6375d77de247278563bb579abb6f343615c71df5597a51186b2b4471ff1c48c96177d57fe045258761b95598b96d363013c11bf35f7c571e6d2d4277f91a4ecf6771d379e643238167bf539ebf6b303211c319f15d7e551c6f2f4075fb184ccd6573d17be441218365bd519cbd69323c1fcd17ff53705b1261214e7bf51642c36b7ddf75ea4f2f8d6bb35f92b3673c3e1dcf15fd5172591063234c79f71440c1697fdd77e84d2d8f69b15d90b1653e381bc913fb57745f1665254a7ff11246c76f79db71ee4b2b896fb75b96b763383a19cb11f955765d146727487df31044c56d7bd973ec49298b6db55994b5613a3417c51ff75b78531a69294673fd1e4acb6375d77de247278563bb579abb6f343615c71df5597a51186b2b4471ff1c48c96177d57fe045258761b95598b96d363013c11bf35f7c571e6d2d4277f91a4ecf6771d379e643238167bf539ebf6b303211c319f15d7e551c6f2f4075fb184ccd6573d17be441218365bd519cbd69323c1fcd17ff53705b1261214e7bf51642c36b7ddf75ea4f2f8d6bb35f92b3673c3e1dcf15fd5172591063234c79f71440c1697fdd77e84d2d8f69b15d90b1653e381bc913fb57745f1665254a7ff11246c76f79db71ee4b2b896fb75b96b763383a19cb11f955765d146727487df31044c56d7bd973ec49298b6db55994b5613a3417c51ff75b78531a69294673fd1e4ace6e12ff32ae8cce7e28e5d21c6dbb9013c6cc62864adbd02cacbed00dd8c007c02fd7509dc395040aaf409642cacbd77eb3d36c3bf63b2e0241c3ab1c5ce34b95fd9a9fa76d0930247be9579a8e82bf4ba4f10724f92201c70f2e82328ecb7a4ff9bceab2c078b35bc4d9a469b5b656bb336d9e70bc0ab0908fb188a47455fd612ff6fc3c2225d830cc8d2d9e2d479933f12c1ca6a3bfded543ada2241cc9dd03de10351903d8b25323e7fccb4bb78d491a8a5414a7cd5c8628c2c61a79a8d0cff8671f2c5935f5e9871fc78fc02cae07d2caa5389ba429e1fbe3f9adc6d8c17a359fa4f865793e8a1c6f41c47c513ff67fe0e46390ce29e00e2812a5cb6dfed0e8c9babcf2657701e73003c6f9e24041227b6a368ecd9fe9f58bbf5f1cd03709c4f54f2f8d0e7bac546c9cd606d9b4adeee142974bb088e83a10bdf7b15f84c4519bd879c3ff74a7b880e592bebe693e25932eea2da78057ac34807275a632ce7a51964449308ba8033f663d5a54aa2ed07081d39e1e3cf99cab124e2b5a6345721505bec0f8a5073df7d963b63a14539372710fbcf309a9c4a1785766dd44d29068447e45c95019e72474948f989a0c8556207782182063e1b845d14634ad7a28cf87abcaa8981e64c4777b0bcffe9eb989e90c8776bdcf3640047d126ee9f06df67b14deb14e8bc72103d1f336fe92302d42ad8c019a8406026f34261f6fa7aaea339d7773ca662408320f2b4d7a12eedd27ce156eea86b0318b377ef4db6fadf7b62c77deb0daa91de84407d57d447af2d31e66e638a14510f3779d3e84262ce6467afaf9789e8ab91641c732a85c9cb428d21b91ff9038b1ade5333003172b89fc2fbe932544d140b5a97ab42f9b09e5495e8282a7a9e1f43c05bd678ce5aa8da5c0d8fd4eba4501f4eba1273cd3875902fa5c4ff32f5649dfaae9f63864535af66cbdc1ecfa0c29aeb64ffd7ab2ac094d535dff96494314db8a1abfb6beb94890bcffb7475f00c2be69e2a826c7570470828dc9e962bf72391b48814b482efc70eb5793dbfc8f035be1c0a6b4a25371e6c05d85ab6a12bc85e39cffda3212ddaaf37680ff67b50de94f26d7b0001d62767fe84edbbd33a46bcdc201e3e45d35a9bf0993d9002f93663550fba7455ebee01bab432598644d83df88bd1cfbf4d07607d0b02ea8d8c9c02151ab74b459effa8e4543d12cdf697317e1796ff39ba064cbc59dd10839f41316f6ddf7330d28b32f6930ea935d5bd6f468a3436045a40742a770cc2a7f42d87c339437583f357e1e1acf9bd674b136dbbb6921cefdf73182f83c2c7d33a59c24274cefef51a7a285b1db8b87a1c9cb28262d126b7c32c256ff120747c8f05bc4c5613cc6e747a339c687d026ad162ea7e6c3253b8fb5538f092e5cadc09fdba96a319719a523b4f5f297b581e746ec6a728657e8152801e80627446f7a754c5ed423e0e0285bd42349b38cfdf3fbf774597f4160973e8cd98d3d1095abc108118d7e1deee9dbfe2ae2ee1bce625d7cba20cd9e472a6f6707392893d3dc1042bb3b92046e7b5afd61c8c7e10dd31e22f79129c597bd8b233e76573be06f4f88e6a2b30ccecd51c4d76bca2741e769bb4fee20b70af5dfb5a3ca2929b0b4e3fe92d0c2a887205d39a1f434d10f535d066ff0f981c7a5985922c8b26dae83cda3e6f64aad1756dde0a17a550f334e5879ab7360361afad7c7fd662f9eb236bbf5f22ec38732417fe1613cdbe4b519ba655a0c367aa2ce39c036cab04f10415f282ed1ff1c65eaa120d26900093d36c89f3dc4da906f81e9e9e037dd8b96a9aa0bd092be8762cc536d0963791db800a9edb982a8fb74cb62e41d119d678031551a6e4671e1bcbd70134927aa061a9047851b132e9e8ca039cb2180dd559696729ddec33642e16761d97705c2f8b0f126647640ccebf5088265f06e40057efc28e01bf306a9963e6cc90b0f4cdf4289de01a58d74f30523e405718d08c89f64f2900126b1b665c40ded43098dbdbc10a6499d2c2098ca89dd13c3b983b80390c6d0b419bf48094e85fda9513ffe3ac07484206cab30d8049bd174c007baf4b880dc4d01560f1a6a61ab9e18fac3f1aa6b715822015199d8f731375d15e20ea5092e6b5c9b34fb0135b2f9a02d6bc34ce882a49339470c5a9789f21d0111a44457a76e22d0c73840e8967864d1a858916f77393422094de51cc1b30f7092881acb239e3e21327dfad930ac23c72b8bdf2e670cde01cf29cc44218e403e1c8b0c20d627840570b2e5b9e92f4d07874e35cdd6919d5f668e9f9642d10e7f1a1ac7d88857edd40d647244b05bdd78bf054403a19a23c9f97513d705784619b571635e7232cae6c7d45fcde28706eaf0387ad2d88ddd55c14778f31c8686e2365dbf881911667cc6158ba8e618037b26e5ad55e0f1999fb2e1acb8a707f9f48495a38f3c70241de4b86c243145a66b287d9def460471a81af17c6934e5781f0024c6b9c33304b7ea16a98083e76cd5b5547b94aa3364f57ddf18b93d9793456d49eaab2935addc4bd27ca43ade7521bbab2586cc03327ae917d449d209f3e01c6c7688b5c802b07c9961a5ef9c0c53d9a723e77da5eff0352f52ae42c75c892cf4fe5687c604a7d947cf8b20b7fc75ae159bf7f9fab44b35180868304574f2a18958a8374a8504b432a919e1f04864c55eec0cfebaa1d076ac207c9d8b155355cbb3168f418c860ec2c7c8c5ae9ac809090ba7ea6daff9f31020aa39acf77b8ef0700a5e8c3d40386b4877797ba569fc5e3c7df1385905802f828158bed35e050d6585d2b097a64012f40d734ff1333f62f496193c95d2af9dc16d4a5b43dbb411c4646800e1442f572454afb760c461ae00acbfb08a8b80462f8b1427650e6af1bcc288092c1dff7e74f8e36564a3c2a61695e426328bc11e524f2889e05480e0f5bd1b0ee170ee9cabb73f53abf1f33a644b31873249775c0ee264e856e175aaa5489915ee0a29711d951e84716db9afb0ae57cf5b49669cb93f1374f4300d2b0e466b6ae9ee10c2d659584439fc6885cfa1d4276960819f1c8ea8247db6356e71649235b85d702f19ddc7e22681c46fedcd22b86e70569abe13dcdd28ddab1190be85ac0890536a86a64dd4c51d16d5d94281d0b43be719023800ece00aff0f4e0abc5709d09f937e1ec2d9ef8784ec60bc8f79966fdb57b8d7dfdbcc1bba552f5104819fbef81e797b8a8586860d3879984e505cc4d8d05a53d77ea662940c283b97d8e3c87e421bd0304a7cd71b17a8f2be0be5ffa8954a13d90dd4b876a0c7e451f0cd2b6ef316869cd66f7ae9120486ee24ca752d1734bebe011223032465d889395d6e1e9ea0911182b2f446c818fa7acb8bac9d4d8dcee1012181a31383944494d5f606669738797d4dae2111d81999c9d9fc4cbd7defbff000000000000000000000000000000000d1f334001fd2105005263030931a615d8716c0ba271cd93a1feb1e225297e6a3b3b7a7b3bfe0daab7464c5f254f1a5c01be388f1f42060528e2d7fe21f2d025eb820df3b396540773fef06e39fe894c63f39110b53fc6d9bdd8380fb2fcda1c34bd7302409a9b15ae6a77b016732b80d547ccaa020d788d3293773178b01dcb7ab6e810246a19b8b4897ce89d47d8d11e804ac9000f9810298cd2ec8d8e45f1759fb7dce65a4bd20d490f2aed8e001d2b2599d3aab755262991f589db1e6f185d322c6139c1b794f5e5d61ec884066f4fa3ab94c0ab4e46ddace033189a0f2634d6fc4c126a5316954965e4d81c42e4ed4d2718ab73b652ea444473ca9124d86d9c22410f0d3eb2a5fd49956ead92e8ace146b5354f04c485d3b92d22218194d594d7660053bc3f25ae78232ba79dd48df28d5444916c65cd6a22f4bb04f69d3b50e3f9ad74537686735955fcb9a03796e13b0863c7889f4b5fd6d255126a925648e37ce91c410d8819c181349daddcf54f85434c9dcd255f355170f22edf1d7e8357b4ebcedca481bf734b81167647da1041603b4ea3be5b32dec7d335045371a016ebd7ed6c33469c1c166593b00d35f804ab225bff640d12e415325811288c36c278debb992673872137a1d3991124ba97e31c1684582b782849f59250dc2528f2e54e2255c0ec6efc644ca253e85a89f7a110cdd16f990c7b9547583b09f0274a1e6cd17a771dc9dbe3e8f826cb83769e9cf3e5ea12d140d557f68694b05f0bcbeaf2b03154881be4826a97c498a1d73fb448bdcec18c6b41e6245ab1866f7a1ecdee6f9749ee949476c5c0d5243ceb27d96f8ad008195c93437740378158adaf631303fcca6be28c539dc40cb01b23549e79a449c19deeb14c7a49fd7465bcae45557ed31fc53a2c7a95d0aa97a1f5e3972e79d7900bc66ed999aac617da84df2cb961224f7e8eaad580ea6ed3d63c7273dfff626c11b3a94da9c1520317d7edfbcba92ea798b54067290bc17d1d1cc2b6acd964ce4cdfa2508b10d56787f0e362b8b7c4b3d4a7dcf2c48dfa12a07ad3a0fe2b86a561dea81d422e257faa10de57130be2ee939996261a48e6e3d2ae5bd95827b0f417f727f269c33b44b3e754e0d4c21b5dc6777216a99fb8ccbd3fdbad018e13918de9ebfab0a79927392c14217ff042c61289643cc1a76ef5c8e020b9a1ee16e83eded56c56198e70360a5e8d5e9656bc389c34c42781458492ff12139d86fc2d43265c9ff36bab5f1becb385aa8633376996d07657c8c80b480135048a89b6f854c0a0440dbb6869cd41795ae43f5d6f62dd23b2c85329c768f5a4e03ad884a842f5e0dafa7caab795fee4557f7f308f4b751337e1c32678ccdb256f59efb6777135f2e4e5ae483259c4d83433c375cfedfb8b566638d55fd678c5d8f77ee0d23818099c79d9551c2e36ef6fe26556f5d021c9b0adfc6638069c06079eedc63e8623e611d4014169044a5808f8174671d20fae471f9f255749df4e4f79698354fa85e336e4a1f10d439a61c8adbbde617a92a75b49d7069ddde81af1a4222851780018a9dd50daaece2e6b54364151baf6b9f9e5553664cf71f6c5492d9a65de01f177da18e3175fe4708e0f03c2f8476c73036ef42376ea5677267ed441fb29fd9781c123c79600cce5e2f0818ef3a4610e508d29fbe58536ce36e03475557bc2681fec5e82be6978dd37062ab85717378ec3fce130ec6802c58240a2c487402f10814d55c4e598b9bf653a6a416b1ef0f7c61e51c9b642ed8711aa1ffed92ef77c5faa03f96f1b9fdabcb6f61a806da6f4f9656294ac99a82e0c54d5c6afc00c486ee46ea1e31c33999e8e59ac4c47d867000000",
  "txid": "dad38461ca04c43186a35527590116964b004708bd07c24bd0d044fb914e1e3c",
  "hash": "9c6b23862734993b9db78abfeb07ed5182010c4cd28523c7d7f420bdfc3716be",
  "size": 5085,
  "vsize": 2278,
  "version": 1,
  "locktime": 103,
  "vin": [
    {
      "txid": "289da2ba01dc4cbe0f0e6829385142c44b3a12cf5af3c59e59f46fb87b9ac89b",
      "vout": 1,
      "scriptSig": {
        "asm": "",
        "hex": ""
      },
      "txinwitness": [
        "dc395040aaf409642cacbd77eb3d36c3bf63b2e0241c3ab1c5ce34b95fd9a9fa76d0930247be9579a8e82bf4ba4f10724f92201c70f2e82328ecb7a4ff9bceab2c078b35bc4d9a469b5b656bb336d9e70bc0ab0908fb188a47455fd612ff6fc3c2225d830cc8d2d9e2d479933f12c1ca6a3bfded543ada2241cc9dd03de10351903d8b25323e7fccb4bb78d491a8a5414a7cd5c8628c2c61a79a8d0cff8671f2c5935f5e9871fc78fc02cae07d2caa5389ba429e1fbe3f9adc6d8c17a359fa4f865793e8a1c6f41c47c513ff67fe0e46390ce29e00e2812a5cb6dfed0e8c9babcf2657701e73003c6f9e24041227b6a368ecd9fe9f58bbf5f1cd03709c4f54f2f8d0e7bac546c9cd606d9b4adeee142974bb088e83a10bdf7b15f84c4519bd879c3ff74a7b880e592bebe693e25932eea2da78057ac34807275a632ce7a51964449308ba8033f663d5a54aa2ed07081d39e1e3cf99cab124e2b5a6345721505bec0f8a5073df7d963b63a14539372710fbcf309a9c4a1785766dd44d29068447e45c95019e72474948f989a0c8556207782182063e1b845d14634ad7a28cf87abcaa8981e64c4777b0bcffe9eb989e90c8776bdcf3640047d126ee9f06df67b14deb14e8bc72103d1f336fe92302d42ad8c019a8406026f34261f6fa7aaea339d7773ca662408320f2b4d7a12eedd27ce156eea86b0318b377ef4db6fadf7b62c77deb0daa91de84407d57d447af2d31e66e638a14510f3779d3e84262ce6467afaf9789e8ab91641c732a85c9cb428d21b91ff9038b1ade5333003172b89fc2fbe932544d140b5a97ab42f9b09e5495e8282a7a9e1f43c05bd678ce5aa8da5c0d8fd4eba4501f4eba1273cd3875902fa5c4ff32f5649dfaae9f63864535af66cbdc1ecfa0c29aeb64ffd7ab2ac094d535dff96494314db8a1abfb6beb94890bcffb7475f00c2be69e2a826c7570470828dc9e962bf72391b48814b482efc70eb5793dbfc8f035be1c0a6b4a25371e6c05d85ab6a12bc85e39cffda3212ddaaf37680ff67b50de94f26d7b0001d62767fe84edbbd33a46bcdc201e3e45d35a9bf0993d9002f93663550fba7455ebee01bab432598644d83df88bd1cfbf4d07607d0b02ea8d8c9c02151ab74b459effa8e4543d12cdf697317e1796ff39ba064cbc59dd10839f41316f6ddf7330d28b32f6930ea935d5bd6f468a3436045a40742a770cc2a7f42d87c339437583f357e1e1acf9bd674b136dbbb6921cefdf73182f83c2c7d33a59c24274cefef51a7a285b1db8b87a1c9cb28262d126b7c32c256ff120747c8f05bc4c5613cc6e747a339c687d026ad162ea7e6c3253b8fb5538f092e5cadc09fdba96a319719a523b4f5f297b581e746ec6a728657e8152801e80627446f7a754c5ed423e0e0285bd42349b38cfdf3fbf774597f4160973e8cd98d3d1095abc108118d7e1deee9dbfe2ae2ee1bce625d7cba20cd9e472a6f6707392893d3dc1042bb3b92046e7b5afd61c8c7e10dd31e22f79129c597bd8b233e76573be06f4f88e6a2b30ccecd51c4d76bca2741e769bb4fee20b70af5dfb5a3ca2929b0b4e3fe92d0c2a887205d39a1f434d10f535d066ff0f981c7a5985922c8b26dae83cda3e6f64aad1756dde0a17a550f334e5879ab7360361afad7c7fd662f9eb236bbf5f22ec38732417fe1613cdbe4b519ba655a0c367aa2ce39c036cab04f10415f282ed1ff1c65eaa120d26900093d36c89f3dc4da906f81e9e9e037dd8b96a9aa0bd092be8762cc536d0963791db800a9edb982a8fb74cb62e41d119d678031551a6e4671e1bcbd70134927aa061a9047851b132e9e8ca039cb2180dd559696729ddec33642e16761d97705c2f8b0f126647640ccebf5088265f06e40057efc28e01bf306a9963e6cc90b0f4cdf4289de01a58d74f30523e405718d08c89f64f2900126b1b665c40ded43098dbdbc10a6499d2c2098ca89dd13c3b983b80390c6d0b419bf48094e85fda9513ffe3ac07484206cab30d8049bd174c007baf4b880dc4d01560f1a6a61ab9e18fac3f1aa6b715822015199d8f731375d15e20ea5092e6b5c9b34fb0135b2f9a02d6bc34ce882a49339470c5a9789f21d0111a44457a76e22d0c73840e8967864d1a858916f77393422094de51cc1b30f7092881acb239e3e21327dfad930ac23c72b8bdf2e670cde01cf29cc44218e403e1c8b0c20d627840570b2e5b9e92f4d07874e35cdd6919d5f668e9f9642d10e7f1a1ac7d88857edd40d647244b05bdd78bf054403a19a23c9f97513d705784619b571635e7232cae6c7d45fcde28706eaf0387ad2d88ddd55c14778f31c8686e2365dbf881911667cc6158ba8e618037b26e5ad55e0f1999fb2e1acb8a707f9f48495a38f3c70241de4b86c243145a66b287d9def460471a81af17c6934e5781f0024c6b9c33304b7ea16a98083e76cd5b5547b94aa3364f57ddf18b93d9793456d49eaab2935addc4bd27ca43ade7521bbab2586cc03327ae917d449d209f3e01c6c7688b5c802b07c9961a5ef9c0c53d9a723e77da5eff0352f52ae42c75c892cf4fe5687c604a7d947cf8b20b7fc75ae159bf7f9fab44b35180868304574f2a18958a8374a8504b432a919e1f04864c55eec0cfebaa1d076ac207c9d8b155355cbb3168f418c860ec2c7c8c5ae9ac809090ba7ea6daff9f31020aa39acf77b8ef0700a5e8c3d40386b4877797ba569fc5e3c7df1385905802f828158bed35e050d6585d2b097a64012f40d734ff1333f62f496193c95d2af9dc16d4a5b43dbb411c4646800e1442f572454afb760c461ae00acbfb08a8b80462f8b1427650e6af1bcc288092c1dff7e74f8e36564a3c2a61695e426328bc11e524f2889e05480e0f5bd1b0ee170ee9cabb73f53abf1f33a644b31873249775c0ee264e856e175aaa5489915ee0a29711d951e84716db9afb0ae57cf5b49669cb93f1374f4300d2b0e466b6ae9ee10c2d659584439fc6885cfa1d4276960819f1c8ea8247db6356e71649235b85d702f19ddc7e22681c46fedcd22b86e70569abe13dcdd28ddab1190be85ac0890536a86a64dd4c51d16d5d94281d0b43be719023800ece00aff0f4e0abc5709d09f937e1ec2d9ef8784ec60bc8f79966fdb57b8d7dfdbcc1bba552f5104819fbef81e797b8a8586860d3879984e505cc4d8d05a53d77ea662940c283b97d8e3c87e421bd0304a7cd71b17a8f2be0be5ffa8954a13d90dd4b876a0c7e451f0cd2b6ef316869cd66f7ae9120486ee24ca752d1734bebe011223032465d889395d6e1e9ea0911182b2f446c818fa7acb8bac9d4d8dcee1012181a31383944494d5f606669738797d4dae2111d81999c9d9fc4cbd7defbff000000000000000000000000000000000d1f334001",
        "005263030931a615d8716c0ba271cd93a1feb1e225297e6a3b3b7a7b3bfe0daab7464c5f254f1a5c01be388f1f42060528e2d7fe21f2d025eb820df3b396540773fef06e39fe894c63f39110b53fc6d9bdd8380fb2fcda1c34bd7302409a9b15ae6a77b016732b80d547ccaa020d788d3293773178b01dcb7ab6e810246a19b8b4897ce89d47d8d11e804ac9000f9810298cd2ec8d8e45f1759fb7dce65a4bd20d490f2aed8e001d2b2599d3aab755262991f589db1e6f185d322c6139c1b794f5e5d61ec884066f4fa3ab94c0ab4e46ddace033189a0f2634d6fc4c126a5316954965e4d81c42e4ed4d2718ab73b652ea444473ca9124d86d9c22410f0d3eb2a5fd49956ead92e8ace146b5354f04c485d3b92d22218194d594d7660053bc3f25ae78232ba79dd48df28d5444916c65cd6a22f4bb04f69d3b50e3f9ad74537686735955fcb9a03796e13b0863c7889f4b5fd6d255126a925648e37ce91c410d8819c181349daddcf54f85434c9dcd255f355170f22edf1d7e8357b4ebcedca481bf734b81167647da1041603b4ea3be5b32dec7d335045371a016ebd7ed6c33469c1c166593b00d35f804ab225bff640d12e415325811288c36c278debb992673872137a1d3991124ba97e31c1684582b782849f59250dc2528f2e54e2255c0ec6efc644ca253e85a89f7a110cdd16f990c7b9547583b09f0274a1e6cd17a771dc9dbe3e8f826cb83769e9cf3e5ea12d140d557f68694b05f0bcbeaf2b03154881be4826a97c498a1d73fb448bdcec18c6b41e6245ab1866f7a1ecdee6f9749ee949476c5c0d5243ceb27d96f8ad008195c93437740378158adaf631303fcca6be28c539dc40cb01b23549e79a449c19deeb14c7a49fd7465bcae45557ed31fc53a2c7a95d0aa97a1f5e3972e79d7900bc66ed999aac617da84df2cb961224f7e8eaad580ea6ed3d63c7273dfff626c11b3a94da9c1520317d7edfbcba92ea798b54067290bc17d1d1cc2b6acd964ce4cdfa2508b10d56787f0e362b8b7c4b3d4a7dcf2c48dfa12a07ad3a0fe2b86a561dea81d422e257faa10de57130be2ee939996261a48e6e3d2ae5bd95827b0f417f727f269c33b44b3e754e0d4c21b5dc6777216a99fb8ccbd3fdbad018e13918de9ebfab0a79927392c14217ff042c61289643cc1a76ef5c8e020b9a1ee16e83eded56c56198e70360a5e8d5e9656bc389c34c42781458492ff12139d86fc2d43265c9ff36bab5f1becb385aa8633376996d07657c8c80b480135048a89b6f854c0a0440dbb6869cd41795ae43f5d6f62dd23b2c85329c768f5a4e03ad884a842f5e0dafa7caab795fee4557f7f308f4b751337e1c32678ccdb256f59efb6777135f2e4e5ae483259c4d83433c375cfedfb8b566638d55fd678c5d8f77ee0d23818099c79d9551c2e36ef6fe26556f5d021c9b0adfc6638069c06079eedc63e8623e611d4014169044a5808f8174671d20fae471f9f255749df4e4f79698354fa85e336e4a1f10d439a61c8adbbde617a92a75b49d7069ddde81af1a4222851780018a9dd50daaece2e6b54364151baf6b9f9e5553664cf71f6c5492d9a65de01f177da18e3175fe4708e0f03c2f8476c73036ef42376ea5677267ed441fb29fd9781c123c79600cce5e2f0818ef3a4610e508d29fbe58536ce36e03475557bc2681fec5e82be6978dd37062ab85717378ec3fce130ec6802c58240a2c487402f10814d55c4e598b9bf653a6a416b1ef0f7c61e51c9b642ed8711aa1ffed92ef77c5faa03f96f1b9fdabcb6f61a806da6f4f9656294ac99a82e0c54d5c6afc00c486ee46ea1e31c33999e8e59ac4c47d8"
      ],
      "sequence": 4294967294
    }
  ],
  "vout": [
    {
      "value": 499995.9324,
      "n": 0,
      "scriptPubKey": {
        "asm": "1 7e08d222068514fe03c3ce1065b29620756be03f014dfa911a1f106f1154a2ed",
        "hex": "51207e08d222068514fe03c3ce1065b29620756be03f014dfa911a1f106f1154a2ed",
        "reqSigs": 1,
        "type": "witness_v1_scripthash",
        "addresses": [
          "3QJmnh"
        ]
      }
    },
    {
      "value": 1.0,
      "n": 1,
      "scriptPubKey": {
        "asm": "OP_RETURN 349b833d1d3449143a382fa426cdbcb0d6d1be58960165d99ee296eb6f5207e8 c1fcd17ff53705b1261214e7bf51642c36b7ddf75ea4f2f8d6bb35f92b3673c3e1dcf15fd5172591063234c79f71440c1697fdd77e84d2d8f69b15d90b1653e381bc913fb57745f1665254a7ff11246c76f79db71ee4b2b896fb75b96b763383a19cb11f955765d146727487df31044c56d7bd973ec49298b6db55994b5613a3417c51ff75b78531a69294673fd1e4acb6375d77de247278563bb579abb6f343615c71df5597a51186b2b4471ff1c48c96177d57fe045258761b95598b96d363013c11bf35f7c571e6d2d4277f91a4ecf6771d379e643238167bf539ebf6b303211c319f15d7e551c6f2f4075fb184ccd6573d17be441218365bd519cbd69323c1fcd17ff53705b1261214e7bf51642c36b7ddf75ea4f2f8d6bb35f92b3673c3e1dcf15fd5172591063234c79f71440c1697fdd77e84d2d8f69b15d90b1653e381bc913fb57745f1665254a7ff11246c76f79db71ee4b2b896fb75b96b763383a19cb11f955765d146727487df31044c56d7bd973ec49298b6db55994b5613a3417c51ff75b78531a69294673fd1e4acb6375d77de247278563bb579abb6f343615c71df5597a51186b2b4471ff1c48c96177d57fe045258761b95598b96d363013c11bf35f7c571e6d2d4277f91a4ecf6771d379e643238167bf539ebf6b303211c319f15d7e551c6f2f4075fb184ccd6573d17be441218365bd519cbd69323c1fcd17ff53705b1261214e7bf51642c36b7ddf75ea4f2f8d6bb35f92b3673c3e1dcf15fd5172591063234c79f71440c1697fdd77e84d2d8f69b15d90b1653e381bc913fb57745f1665254a7ff11246c76f79db71ee4b2b896fb75b96b763383a19cb11f955765d146727487df31044c56d7bd973ec49298b6db55994b5613a3417c51ff75b78531a69294673fd1e4acb6375d77de247278563bb579abb6f343615c71df5597a51186b2b4471ff1c48c96177d57fe045258761b95598b96d363013c11bf35f7c571e6d2d4277f91a4ecf6771d379e643238167bf539ebf6b303211c319f15d7e551c6f2f4075fb184ccd6573d17be441218365bd519cbd69323c1fcd17ff53705b1261214e7bf51642c36b7ddf75ea4f2f8d6bb35f92b3673c3e1dcf15fd5172591063234c79f71440c1697fdd77e84d2d8f69b15d90b1653e381bc913fb57745f1665254a7ff11246c76f79db71ee4b2b896fb75b96b763383a19cb11f955765d146727487df31044c56d7bd973ec49298b6db55994b5613a3417c51ff75b78531a69294673fd1e4acb6375d77de247278563bb579abb6f343615c71df5597a51186b2b4471ff1c48c96177d57fe045258761b95598b96d363013c11bf35f7c571e6d2d4277f91a4ecf6771d379e643238167bf539ebf6b303211c319f15d7e551c6f2f4075fb184ccd6573d17be441218365bd519cbd69323c1fcd17ff53705b1261214e7bf51642c36b7ddf75ea4f2f8d6bb35f92b3673c3e1dcf15fd5172591063234c79f71440c1697fdd77e84d2d8f69b15d90b1653e381bc913fb57745f1665254a7ff11246c76f79db71ee4b2b896fb75b96b763383a19cb11f955765d146727487df31044c56d7bd973ec49298b6db55994b5613a3417c51ff75b78531a69294673fd1e4ace6e12ff32ae8cce7e28e5d21c6dbb9013c6cc62864adbd02cacbed00dd8c007c",
        "hex": "6a20349b833d1d3449143a382fa426cdbcb0d6d1be58960165d99ee296eb6f5207e84db004c1fcd17ff53705b1261214e7bf51642c36b7ddf75ea4f2f8d6bb35f92b3673c3e1dcf15fd5172591063234c79f71440c1697fdd77e84d2d8f69b15d90b1653e381bc913fb57745f1665254a7ff11246c76f79db71ee4b2b896fb75b96b763383a19cb11f955765d146727487df31044c56d7bd973ec49298b6db55994b5613a3417c51ff75b78531a69294673fd1e4acb6375d77de247278563bb579abb6f343615c71df5597a51186b2b4471ff1c48c96177d57fe045258761b95598b96d363013c11bf35f7c571e6d2d4277f91a4ecf6771d379e643238167bf539ebf6b303211c319f15d7e551c6f2f4075fb184ccd6573d17be441218365bd519cbd69323c1fcd17ff53705b1261214e7bf51642c36b7ddf75ea4f2f8d6bb35f92b3673c3e1dcf15fd5172591063234c79f71440c1697fdd77e84d2d8f69b15d90b1653e381bc913fb57745f1665254a7ff11246c76f79db71ee4b2b896fb75b96b763383a19cb11f955765d146727487df31044c56d7bd973ec49298b6db55994b5613a3417c51ff75b78531a69294673fd1e4acb6375d77de247278563bb579abb6f343615c71df5597a51186b2b4471ff1c48c96177d57fe045258761b95598b96d363013c11bf35f7c571e6d2d4277f91a4ecf6771d379e643238167bf539ebf6b303211c319f15d7e551c6f2f4075fb184ccd6573d17be441218365bd519cbd69323c1fcd17ff53705b1261214e7bf51642c36b7ddf75ea4f2f8d6bb35f92b3673c3e1dcf15fd5172591063234c79f71440c1697fdd77e84d2d8f69b15d90b1653e381bc913fb57745f1665254a7ff11246c76f79db71ee4b2b896fb75b96b763383a19cb11f955765d146727487df31044c56d7bd973ec49298b6db55994b5613a3417c51ff75b78531a69294673fd1e4acb6375d77de247278563bb579abb6f343615c71df5597a51186b2b4471ff1c48c96177d57fe045258761b95598b96d363013c11bf35f7c571e6d2d4277f91a4ecf6771d379e643238167bf539ebf6b303211c319f15d7e551c6f2f4075fb184ccd6573d17be441218365bd519cbd69323c1fcd17ff53705b1261214e7bf51642c36b7ddf75ea4f2f8d6bb35f92b3673c3e1dcf15fd5172591063234c79f71440c1697fdd77e84d2d8f69b15d90b1653e381bc913fb57745f1665254a7ff11246c76f79db71ee4b2b896fb75b96b763383a19cb11f955765d146727487df31044c56d7bd973ec49298b6db55994b5613a3417c51ff75b78531a69294673fd1e4acb6375d77de247278563bb579abb6f343615c71df5597a51186b2b4471ff1c48c96177d57fe045258761b95598b96d363013c11bf35f7c571e6d2d4277f91a4ecf6771d379e643238167bf539ebf6b303211c319f15d7e551c6f2f4075fb184ccd6573d17be441218365bd519cbd69323c1fcd17ff53705b1261214e7bf51642c36b7ddf75ea4f2f8d6bb35f92b3673c3e1dcf15fd5172591063234c79f71440c1697fdd77e84d2d8f69b15d90b1653e381bc913fb57745f1665254a7ff11246c76f79db71ee4b2b896fb75b96b763383a19cb11f955765d146727487df31044c56d7bd973ec49298b6db55994b5613a3417c51ff75b78531a69294673fd1e4ace6e12ff32ae8cce7e28e5d21c6dbb9013c6cc62864adbd02cacbed00dd8c007c",
        "type": "nulldata"
      }
    }
  ],
  "blockhash": "15af9b025c636b87e0a10c18a1a8de0e5f3c2069ad563b293161176d75df89a4",
  "confirmations": 1,
  "time": 1764174659,
  "blocktime": 1764174659
}