{
  "hex": "010000000001014078e56e7a0f0691cebf6583d93271c7df8339e69afbe572266ea627d71599780000000000feffffff0200774227792d000022512033e733faed122403f46a5ec9e87fe3885a68f883ca0731d008710288c5ace6f500e1f50500000000fdd5046a20c8ec5a2fcc17c4910d9e8f0c553251e758f8205e2c69a970a633138175515ef04db0047520e1fd9d2231d8264b1779512c3d8a33bbf5871333a0289961e09086c7c3665500c1ddbd0211f8066b3759710c1daa139bd5a733138008b941c0b0a6e7e3463560a1bddd627198660b5739116c7dca73fbb5c75373e068d921a0d0c68783261540819dfd4251b8462b7719314c5dea53db95e77353c048f90180f0e6a7a306f5a0617d1da2b158a6cb97f9d1acbd0ab33b750793b320a819e16010064743e6d580415d3d82917886ebb7d9f18c9d2a931b5527b393008839c14030266763c6b5e0213d5de2f118e68bd7b991ecfd4af37b3547d3f360e859a12050460703a695c0011d7dc2d138c6abf799b1ccdd6ad35b1567f3d340c879810070662723867520e1fd9d2231d8264b1779512c3d8a33bbf5871333a0289961e09086c7c3665500c1ddbd0211f8066b3759710c1daa139bd5a733138008b941c0b0a6e7e3463560a1bddd627198660b5739116c7dca73fbb5c75373e068d921a0d0c68783261540819dfd4251b8462b7719314c5dea53db95e77353c048f90180f0e6a7a306f5a0617d1da2b158a6cb97f9d1acbd0ab33b750793b320a819e16010064743e6d580415d3d82917886ebb7d9f18c9d2a931b5527b393008839c14030266763c6b5e0213d5de2f118e68bd7b991ecfd4af37b3547d3f360e859a12050460703a695c0011d7dc2d138c6abf799b1ccdd6ad35b1567f3d340c879810070662723867520e1fd9d2231d8264b1779512c3d8a33bbf5871333a0289961e09086c7c3665500c1ddbd0211f8066b3759710c1daa139bd5a733138008b941c0b0a6e7e3463560a1bddd627198660b5739116c7dca73fbb5c75373e068d921a0d0c68783261540819dfd4251b8462b7719314c5dea53db95e77353c048f90180f0e6a7a306f5a0617d1da2b158a6cb97f9d1acbd0ab33b750793b320a819e16010064743e6d580415d3d82917886ebb7d9f18c9d2a931b5527b393008839c14030266763c6b5e0213d5de2f118e68bd7b991ecfd4af37b3547d3f360e859a12050460703a695c0011d7dc2d138c6abf799b1ccdd6ad35b1567f3d340c879810070662723867520e1fd9d2231d8264b1779512c3d8a33bbf5871333a0289961e09086c7c3665500c1ddbd0211f8066b3759710c1daa139bd5a733138008b941c0b0a6e7e3463560a1bddd627198660b5739116c7dca73fbb5c75373e068d921a0d0c68783261540819dfd4251b8462b7719314c5dea53db95e77353c048f90180f0e6a7a306f5a0617d1da2b158a6cb97f9d1acbd0ab33b750793b320a819e16010064743e6d580415d3d82917886ebb7d9f18c9d2a931b5527b393008839c14030266763c6b5e0213d5de2f118e68bd7b991ecfd4af37b3547d3f360e859a12050460703a695c0011d7dc2d138c6abf799b1ccdd6ad35b1567f3d340c879810070662723867520e1fd9d2231d8264b1779512c3d8a33bbf5871333a0289961e09086c7c3665500c1ddbd0211f8066b3759710c1daa139bd5a733138008b941c0b0a6e7e3463560a1bddd627198660b5739116c7dca73fbb5c75373e068d921a0d0c68783261540819dfd4251b8462b7719314c5dea53db95e77353c048f90180f0e6a7a306f5a0617d1da2b158a6cb97f9d1acbd0ae1df547794c59e189f7dfab3c6f03532daa8281c796f9030ff3909ca6abef9c902fd7509b9112d7386746cfbbfc372cbe0f684a099a2996074a07a957c30e57f35f7db02025c917c7d1505483bb9d8f367961aad13f99a165909499089ebc908765cc1de6c0d4906fa8907f34ae28b769e4c2753a65de0850eb5d790ce3e782aac8b861e7b6b88940615ad251a2dd089d37c809b685a93d9bec367cc787f9a61ac9274f82b92585cd6a8d38a2c2b533819bdbab9f076f168d9ee232b6b6986e45ae9ffbe69dae30421ae2df331a086bcc8716d2fff1658871bf51c2e111afd77eb7323be6c83d186179112cc4e52af79f575cceb2f15bcdb0c2b6123637204858bb16666373c95362f5cb765987f7d65b7bd3fa2059d4d313c19d89788a07f21ddd8814865c0d623836861224ca929a172f2f0610e0d16d711282b799d713529de5dea2e56a338c7df5dc187704e999d627f08ffbc3e6ddc1a291f8c385ee48398afd0acae07c5b4d5895938972e2540764e7be3728f484b465ecc4890e81047090237575a89d179fbf14273e6e91705d4dc96b4cea76c231c75a51ddbac677f966632aaad06ae1638c6fe85dff1d13826e6a2aa3aeb3410c39d5c1e25c7e085962f95a9ce52599ca560e247ecfc5a9aaaf34e139431803682da27568ef623982568b7910f602aee76b207473422d5aa6ae9d423ebba2bbcf85cc78525217e5cafbf6b1968b10de69e50de0c5d28fbaebf94f229f86e2b1fa318f9a4e8c2a57a273331b4cb5d7caccd8e6dd77363d7bf834b8ddb80e683d4b2785033bebba1d396cc6d8822038631ed8a1f2d791f81effcb48917c3df40dc75f15230352d7a2819c153ae23f6a913538374d5d80e2b5ed7bca014c6fdc6e43aa87b597c8ba4a4811c7f3061fae974b37b894f5d0186b5f8392e133066d8cb9c139568660424418de0d9d44cdad2058f08e87c1dcd1003f331c8e4a35597b18d88ca7c021df6f3e02eb0bfad3a0d653faed2c8eaa9e7d562c6238e42a190cb0d4b794a9595df325493f136c55523d09901fb198c02a3e5ed6e724562cb29632478424e3d079b0a793ec4ca81fa04c7f3f0013f3e6cae05252463582e4fe41805a277e4fb24c3ffd02d29c33cce5cebcd462623a33f913d797958f6244dd0ce037dadc5585451727e22a9454d932d78fb48959d9955bb7655b5d812a8e29c1679ed22be7742e4d7c813a31fc4c014bfea22b08e358501562106f720c149b9b86a75b06e3f291f2c444a17d96d4c7a1ea3c2335dabb61ae0c000c825af0fea49a732b2b92fc6658101f3b093e0511f20e59ecaf73df711ebb76d2ee80a2afe1822bb2c149c208d54ebb44bdd6f1b8f061fcd06c7b35466b5c4813292b79afd905637bbbc8f8050a4b14a676f868d8440a7e8e321c13cbf210bce679ba26802eaa75d74a9bd32ed4bc7d8b2bb02bf2b10a43f8827f2e3ec481a55295117fcd0cd38e12d89da7949617b3ecd4c1f9574906e77cb37fe9f97498090047f8534b3ea8bebd1ed3757e040b1db9bce8b74066eb8f7b39ac42e48bee511a3a0910b55d476c576d78e433f9b238dd336fbbb2eea06c87e372b6a6e94e0abafadb1251846e38376abc2b392d5fec5265215ce43b743aa24df754ab10c5bef5c147d245dae39e4000c568a9bf1fab07696b4c62955ad5f3f2ece699e3a4ec747bc3b3435f554f9d81e01f5204d6e0b591c61f8b448a93f5ec15794ba5df618abe21181bd8460bd8615b656d252dcd4bcb5c86ef98c253ca84a20c35e98cdb1fea00bb75995ab69ade4a9b5b8cc1118f476200f743a4323163ac784d93ca612ab1c32bc4650c46b8ba864cbd0519ae3ef2283898aaf928703cd20669995bbd5de2df3d4977bbda5112b681ce19304d6fe43461eec7b81c2c59843fa578fc28aa8c516909e19ca0529c3410fe70ad1c762764300107b88b5b714e3d90f6c3bed8567719b7262840346095eb845661381aa3a04cf6b9b34f44b7c4401721d52b2dac1121349530425237bad153538e771173ffc05174d164c876c24da6f119509142eabaa6d35d4b25ff10a9a17dc51c37df6fda2f1242dc46ab953c00f1da41c7d36db2b57da3a1f865926c96710ba4a13544448bb1fb326ed21fc0db9c22e270a0919d87e8310e867d9b52c4e8221927f192029a341acf73dfc795a16df307364963decae20b9fb2116328260444fde46860d47af231119e1adab7e266d6319eca370cd4ee773388732e4382e1b6b5ee58f9b0c22ec661ef2c28dee7d0105f09810e8bd55d9d1482e361950e8e303e56c4bbef679c940caf920970f51acc68c33b75ccd90d253341a3c5c209e9cb374dbc8d9fd874593d71eef011d77f2704605a77c9033ff09f86574f9adc172676e362c8452ca5787c20150041f67b58e1bebe646a1246cc39b27cb3db510107530f6a52652e78979ca1eca7e449cf4a87a5766deca9c8e5ebcf187b7edce1b72e0a513a4a1e32b558c536ee04f540e189094b026f6ecd44fae6076da8170cd01b16d12b2be4f9e88b06953877770259fb43b1f7bba615f73a90e9dbdeae7695d87a02c28b800435c624a637ebff4d10b7ea3a8c3bd8cb0c99d3f52083a73985f45cbb7d0cca5814dd81e57da3c228fb32868243325878d4507b90eb70d20f68ecfb8a6d59e268cf981abd598f956147f138eb21dd842a4f47d9b0f627005cbb4fb7e4498d8db85b87d82ccce6865a5f172031683c0bc1d2f72b1d264e4afa8017730c0c986d4aaf5abe99a64ce27bbfd76013a7943ea10260bb4b4decf4fc33720e8075278e47f680a2a64f86168b451ca303e5c1595ba57b3ab1c4a0c967ef2566707e517a63a67164c7dbd67220461d315f6c634eaeae06c7dfbeea653dd6c22c6aa13e077a053abdf7cd65778ffd49e38a50d9ae420305584592a160a69ff5e891da133615f4c0f06ee06b366006e9f9613d86144017b78a6d58a519ed8ac5bba32a316c324667c36a94390ceb4520831797ba7049ddf82fc54c21d9fdd1d3291312f89094191376cae075a0795f2ec86dee457709c5e83155065a30a6793d28cf5e2b96978a8ed9c5d843b48d0b575c3646916fe282a4a14068c9b1c3c22100fb86c8340112c9bf76443955ca96c93f4d09d3d55ac64089949a1b7bae5d8edf0065930b7081869b9b133ecb16fb21d3dcb92822c00b9b819113fc281598f5c58fd525e7ec4eb7b3665f080ba7e82c0b9a05ff8eb8462033a83bdbd85ef9970fbe61a3bb31bf473661a5609ae8038075d4ddddb91417f0dd543eba35543f356ed02b1d654d6f3c73b1209165cb913171053f264eba304b56f2aa234957e9739979d052740585d84889899b2c1c8d3dce0eef8fc05151c3d57609a9ca8c3d5d7dcfe010d2b3645637191a0b0b3d7dfe90a17183e4d919eadbbc0cbedf1f4000000000000000000000000000000000000000012202e3c01fd2105009d2101e073c406e53cb839374bc6f51c0e635f9f4504ea9c0761870fafe9b83c3e089dcc34261b9c93e5adea6cf2a343d68c04e731542b8412a2cd4c7e4330816e65c45fbfe1310f14577844854c4dac70bfc03c5480184f5c8cae140cdc198f0461289bce69e6f8384e51e6a70866db0b66431b0dcee299fcc559964bc8c9b11d47d4410a28b78548e4cc9b112b8b8c8c49f179b3a4289f734254cd2f4ac51655e48d829ede9f4e049799044322cb07e3b35f25fce9585bf4d5822946455eeeab31bd679b576ed3531fd391f6e5a235df63baa160a1cd2d59fb45a2b1294127886deb7e95447950b72987c3811863dfeea168906eb17866dcad36532015c5391f0c9b0d9c63291c1541adadc59fd23723121e59ac78c2296048a9b5f53bfdd3502fc8221c8f73dce6cfbecdc98c9f081ebfeaef74399e041acfd98f003a80ec1e4f663a528c12f712084861fef4c50e6d08896e87ecd3b22c062d7cca920b9cc4a54b161f8e1a4a40984478090f8e8dd2fb6dc4951d4f74ed8bf0316788261babcdfae6acd6a17750859c2a0810cf7888dd6eb2636d6fd3d59841db3ed2f6b895fd38b55333b5779f09fcdb25adf270b2cc91a3e595de5c7c07d04169301760e55b61db323f6b7fe65ee6df8af3a67f5ae17f93968fcaa7f9e8930ec3157ec29651bfdfe7eb1c561fa2454a1b5dcd1f9aa0a3f61c8300cdf71b8c2449acc06767e9a834fb15b935a548a64cc140be60bbcf68bac73e46d7618c75a7af4241c33957537f689642f6dfb870ad5bc1efe781b5fd3a0bea8260c219163a1b9ebb0619b4d3c5b30e5032a45cb228fc71ba0435f6d32c3f365b3ba84c9a223448703faa1e1b9152619d101c8f7f83f61e278989dbcb784d6aface22041859b2e227d56176882442a97bf09e8aabe19da5e7b6af3370984376c8e14491d9c7a0e82b32197dec4b86db9c14bda645cc9d893d1607e12f69c1da14bc1988e1fb4e3c480265d40c32294a24408509bb424a9c2695dd24fedeea5c808d0e69c0b8471d5214aaa4b8cbcb1848d1a7595245b250966c28c22eaa089b81e47e07ae52318d7b168e5790abc1762081f3e08d239fc77243d58956ec94e39c4ff0b58344045c68570f75a1a414de405af321276eaa35994c0985e39d77347b55d673749f036988b674c98f8f2a4f103a174bee1881e658cdcfd7879089fd8312cb78efc5ae1a54d06ff3e340434bc40e8b7a78504ef557d79310722dea2906b8a2032457aa4eda438bf83c4e0bed986dfe73db82bb571d233be49924ce7ef654b8c4b25c45e640f8adf0d74667b7319b9bc33cf5bef36face942c3cb8ca8c2513c251723a7a9cfa2ece0ee10491caad798bc6f9886dc04bf98734df9a71601a75481b7ca230d4d398b215102b51cb6f5c3bb2d51c68b34c20a536db15a17c31c9d4d9f3d2accf0c22d95830c60f4373a3ec8f2389fcb24bc40948cdf623302af38cb5c0dc1c99de95f017639e33b1601fb81971f5d1d4dd54a2775102fca4e6328f0dc4cf4578e93cdbd5db71679e52fa074c8cfda756b9eb285fa61414af2c2ea72514054bc697bb7d7ffcc42e62335d279ffa0e8d520e533708b2208cc4369229eedecd7549875984a36c044c481b10b89bcac6c9076fdf2f97c505d4b50a3b1b4cdffb608800eb9877f747acf9131ccfc678670e059ba8beedc4aadd3cc173885254856120879fd04a538f3e57b90f0575613869edf1b8673af103db0db6dc23b7f9d3e87ba470f514e413df626414f4e9314c981005f591569097dfd6aa1d5ce1971f348810ca29d20c8560fc2aa9bd5c3355c193b3bf48b133fe06606fc67f9d6f9155fe04672000000",
  "txid": "d1d0c763db65a40d0c3966c41dcdc32ec7a46065c0387d49f44a1c59cce06db5",
  "hash": "eb146b8a7c47890fd251e97616391d591cf3874d11f90e5fec40c24b2d19b9dd",
  "size": 5085,
  "vsize": 2278,
  "version": 1,
  "locktime": 114,
  "vin": [
    {
      "txid": "789915d727a66e2672e5fb9ae63983dfc77132d98365bfce91060f7a6ee57840",
      "vout": 0,
      "scriptSig": {
        "asm": "",
        "hex": ""
      },
      "txinwitness": [
        "b9112d7386746cfbbfc372cbe0f684a099a2996074a07a957c30e57f35f7db02025c917c7d1505483bb9d8f367961aad13f99a165909499089ebc908765cc1de6c0d4906fa8907f34ae28b769e4c2753a65de0850eb5d790ce3e782aac8b861e7b6b88940615ad251a2dd089d37c809b685a93d9bec367cc787f9a61ac9274f82b92585cd6a8d38a2c2b533819bdbab9f076f168d9ee232b6b6986e45ae9ffbe69dae30421ae2df331a086bcc8716d2fff1658871bf51c2e111afd77eb7323be6c83d186179112cc4e52af79f575cceb2f15bcdb0c2b6123637204858bb16666373c95362f5cb765987f7d65b7bd3fa2059d4d313c19d89788a07f21ddd8814865c0d623836861224ca929a172f2f0610e0d16d711282b799d713529de5dea2e56a338c7df5dc187704e999d627f08ffbc3e6ddc1a291f8c385ee48398afd0acae07c5b4d5895938972e2540764e7be3728f484b465ecc4890e81047090237575a89d179fbf14273e6e91705d4dc96b4cea76c231c75a51ddbac677f966632aaad06ae1638c6fe85dff1d13826e6a2aa3aeb3410c39d5c1e25c7e085962f95a9ce52599ca560e247ecfc5a9aaaf34e139431803682da27568ef623982568b7910f602aee76b207473422d5aa6ae9d423ebba2bbcf85cc78525217e5cafbf6b1968b10de69e50de0c5d28fbaebf94f229f86e2b1fa318f9a4e8c2a57a273331b4cb5d7caccd8e6dd77363d7bf834b8ddb80e683d4b2785033bebba1d396cc6d8822038631ed8a1f2d791f81effcb48917c3df40dc75f15230352d7a2819c153ae23f6a913538374d5d80e2b5ed7bca014c6fdc6e43aa87b597c8ba4a4811c7f3061fae974b37b894f5d0186b5f8392e133066d8cb9c139568660424418de0d9d44cdad2058f08e87c1dcd1003f331c8e4a35597b18d88ca7c021df6f3e02eb0bfad3a0d653faed2c8eaa9e7d562c6238e42a190cb0d4b794a9595df325493f136c55523d09901fb198c02a3e5ed6e724562cb29632478424e3d079b0a793ec4ca81fa04c7f3f0013f3e6cae05252463582e4fe41805a277e4fb24c3ffd02d29c33cce5cebcd462623a33f913d797958f6244dd0ce037dadc5585451727e22a9454d932d78fb48959d9955bb7655b5d812a8e29c1679ed22be7742e4d7c813a31fc4c014bfea22b08e358501562106f720c149b9b86a75b06e3f291f2c444a17d96d4c7a1ea3c2335dabb61ae0c000c825af0fea49a732b2b92fc6658101f3b093e0511f20e59ecaf73df711ebb76d2ee80a2afe1822bb2c149c208d54ebb44bdd6f1b8f061fcd06c7b35466b5c4813292b79afd905637bbbc8f8050a4b14a676f868d8440a7e8e321c13cbf210bce679ba26802eaa75d74a9bd32ed4bc7d8b2bb02bf2b10a43f8827f2e3ec481a55295117fcd0cd38e12d89da7949617b3ecd4c1f9574906e77cb37fe9f97498090047f8534b3ea8bebd1ed3757e040b1db9bce8b74066eb8f7b39ac42e48bee511a3a0910b55d476c576d78e433f9b238dd336fbbb2eea06c87e372b6a6e94e0abafadb1251846e38376abc2b392d5fec5265215ce43b743aa24df754ab10c5bef5c147d245dae39e4000c568a9bf1fab07696b4c62955ad5f3f2ece699e3a4ec747bc3b3435f554f9d81e01f5204d6e0b591c61f8b448a93f5ec15794ba5df618abe21181bd8460bd8615b656d252dcd4bcb5c86ef98c253ca84a20c35e98cdb1fea00bb75995ab69ade4a9b5b8cc1118f476200f743a4323163ac784d93ca612ab1c32bc4650c46b8ba864cbd0519ae3ef2283898aaf928703cd20669995bbd5de2df3d4977bbda5112b681ce19304d6fe43461eec7b81c2c59843fa578fc28aa8c516909e19ca0529c3410fe70ad1c762764300107b88b5b714e3d90f6c3bed8567719b7262840346095eb845661381aa3a04cf6b9b34f44b7c4401721d52b2dac1121349530425237bad153538e771173ffc05174d164c876c24da6f119509142eabaa6d35d4b25ff10a9a17dc51c37df6fda2f1242dc46ab953c00f1da41c7d36db2b57da3a1f865926c96710ba4a13544448bb1fb326ed21fc0db9c22e270a0919d87e8310e867d9b52c4e8221927f192029a341acf73dfc795a16df307364963decae20b9fb2116328260444fde46860d47af231119e1adab7e266d6319eca370cd4ee773388732e4382e1b6b5ee58f9b0c22ec661ef2c28dee7d0105f09810e8bd55d9d1482e361950e8e303e56c4bbef679c940caf920970f51acc68c33b75ccd90d253341a3c5c209e9cb374dbc8d9fd874593d71eef011d77f2704605a77c9033ff09f86574f9adc172676e362c8452ca5787c20150041f67b58e1bebe646a1246cc39b27cb3db510107530f6a52652e78979ca1eca7e449cf4a87a5766deca9c8e5ebcf187b7edce1b72e0a513a4a1e32b558c536ee04f540e189094b026f6ecd44fae6076da8170cd01b16d12b2be4f9e88b06953877770259fb43b1f7bba615f73a90e9dbdeae7695d87a02c28b800435c624a637ebff4d10b7ea3a8c3bd8cb0c99d3f52083a73985f45cbb7d0cca5814dd81e57da3c228fb32868243325878d4507b90eb70d20f68ecfb8a6d59e268cf981abd598f956147f138eb21dd842a4f47d9b0f627005cbb4fb7e4498d8db85b87d82ccce6865a5f172031683c0bc1d2f72b1d264e4afa8017730c0c986d4aaf5abe99a64ce27bbfd76013a7943ea10260bb4b4decf4fc33720e8075278e47f680a2a64f86168b451ca303e5c1595ba57b3ab1c4a0c967ef2566707e517a63a67164c7dbd67220461d315f6c634eaeae06c7dfbeea653dd6c22c6aa13e077a053abdf7cd65778ffd49e38a50d9ae420305584592a160a69ff5e891da133615f4c0f06ee06b366006e9f9613d86144017b78a6d58a519ed8ac5bba32a316c324667c36a94390ceb4520831797ba7049ddf82fc54c21d9fdd1d3291312f89094191376cae075a0795f2ec86dee457709c5e83155065a30a6793d28cf5e2b96978a8ed9c5d843b48d0b575c3646916fe282a4a14068c9b1c3c22100fb86c8340112c9bf76443955ca96c93f4d09d3d55ac64089949a1b7bae5d8edf0065930b7081869b9b133ecb16fb21d3dcb92822c00b9b819113fc281598f5c58fd525e7ec4eb7b3665f080ba7e82c0b9a05ff8eb8462033a83bdbd85ef9970fbe61a3bb31bf473661a5609ae8038075d4ddddb91417f0dd543eba35543f356ed02b1d654d6f3c73b1209165cb913171053f264eba304b56f2aa234957e9739979d052740585d84889899b2c1c8d3dce0eef8fc05151c3d57609a9ca8c3d5d7dcfe010d2b3645637191a0b0b3d7dfe90a17183e4d919eadbbc0cbedf1f4000000000000000000000000000000000000000012202e3c01",
        "009d2101e073c406e53cb839374bc6f51c0e635f9f4504ea9c0761870fafe9b83c3e089dcc34261b9c93e5adea6cf2a343d68c04e731542b8412a2cd4c7e4330816e65c45fbfe1310f14577844854c4dac70bfc03c5480184f5c8cae140cdc198f0461289bce69e6f8384e51e6a70866db0b66431b0dcee299fcc559964bc8c9b11d47d4410a28b78548e4cc9b112b8b8c8c49f179b3a4289f734254cd2f4ac51655e48d829ede9f4e049799044322cb07e3b35f25fce9585bf4d5822946455eeeab31bd679b576ed3531fd391f6e5a235df63baa160a1cd2d59fb45a2b1294127886deb7e95447950b72987c3811863dfeea168906eb17866dcad36532015c5391f0c9b0d9c63291c1541adadc59fd23723121e59ac78c2296048a9b5f53bfdd3502fc8221c8f73dce6cfbecdc98c9f081ebfeaef74399e041acfd98f003a80ec1e4f663a528c12f712084861fef4c50e6d08896e87ecd3b22c062d7cca920b9cc4a54b161f8e1a4a40984478090f8e8dd2fb6dc4951d4f74ed8bf0316788261babcdfae6acd6a17750859c2a0810cf7888dd6eb2636d6fd3d59841db3ed2f6b895fd38b55333b5779f09fcdb25adf270b2cc91a3e595de5c7c07d04169301760e55b61db323f6b7fe65ee6df8af3a67f5ae17f93968fcaa7f9e8930ec3157ec29651bfdfe7eb1c561fa2454a1b5dcd1f9aa0a3f61c8300cdf71b8c2449acc06767e9a834fb15b935a548a64cc140be60bbcf68bac73e46d7618c75a7af4241c33957537f689642f6dfb870ad5bc1efe781b5fd3a0bea8260c219163a1b9ebb0619b4d3c5b30e5032a45cb228fc71ba0435f6d32c3f365b3ba84c9a223448703faa1e1b9152619d101c8f7f83f61e278989dbcb784d6aface22041859b2e227d56176882442a97bf09e8aabe19da5e7b6af3370984376c8e14491d9c7a0e82b32197dec4b86db9c14bda645cc9d893d1607e12f69c1da14bc1988e1fb4e3c480265d40c32294a24408509bb424a9c2695dd24fedeea5c808d0e69c0b8471d5214aaa4b8cbcb1848d1a7595245b250966c28c22eaa089b81e47e07ae52318d7b168e5790abc1762081f3e08d239fc77243d58956ec94e39c4ff0b58344045c68570f75a1a414de405af321276eaa35994c0985e39d77347b55d673749f036988b674c98f8f2a4f103a174bee1881e658cdcfd7879089fd8312cb78efc5ae1a54d06ff3e340434bc40e8b7a78504ef557d79310722dea2906b8a2032457aa4eda438bf83c4e0bed986dfe73db82bb571d233be49924ce7ef654b8c4b25c45e640f8adf0d74667b7319b9bc33cf5bef36face942c3cb8ca8c2513c251723a7a9cfa2ece0ee10491caad798bc6f9886dc04bf98734df9a71601a75481b7ca230d4d398b215102b51cb6f5c3bb2d51c68b34c20a536db15a17c31c9d4d9f3d2accf0c22d95830c60f4373a3ec8f2389fcb24bc40948cdf623302af38cb5c0dc1c99de95f017639e33b1601fb81971f5d1d4dd54a2775102fca4e6328f0dc4cf4578e93cdbd5db71679e52fa074c8cfda756b9eb285fa61414af2c2ea72514054bc697bb7d7ffcc42e62335d279ffa0e8d520e533708b2208cc4369229eedecd7549875984a36c044c481b10b89bcac6c9076fdf2f97c505d4b50a3b1b4cdffb608800eb9877f747acf9131ccfc678670e059ba8beedc4aadd3cc173885254856120879fd04a538f3e57b90f0575613869edf1b8673af103db0db6dc23b7f9d3e87ba470f514e413df626414f4e9314c981005f591569097dfd6aa1d5ce1971f348810ca29d20c8560fc2aa9bd5c3355c193b3bf48b133fe06606fc67f9d6f9155fe046"
      ],
      "sequence": 4294967294
    }
  ],
  "vout": [
    {
      "value": 499983.7296,
      "n": 0,
      "scriptPubKey": {
        "asm": "1 33e733faed122403f46a5ec9e87fe3885a68f883ca0731d008710288c5ace6f5",
        "hex": "512033e733faed122403f46a5ec9e87fe3885a68f883ca0731d008710288c5ace6f5",
        "reqSigs": 1,
        "type": "witness_v1_scripthash",
        "addresses": [
          "3QJmnh"
        ]
      }
    },
    {
      "value": 1.0,
      "n": 1,
      "scriptPubKey": {
        "asm": "OP_RETURN c8ec5a2fcc17c4910d9e8f0c553251e758f8205e2c69a970a633138175515ef0 7520e1fd9d2231d8264b1779512c3d8a33bbf5871333a0289961e09086c7c3665500c1ddbd0211f8066b3759710c1daa139bd5a733138008b941c0b0a6e7e3463560a1bddd627198660b5739116c7dca73fbb5c75373e068d921a0d0c68783261540819dfd4251b8462b7719314c5dea53db95e77353c048f90180f0e6a7a306f5a0617d1da2b158a6cb97f9d1acbd0ab33b750793b320a819e16010064743e6d580415d3d82917886ebb7d9f18c9d2a931b5527b393008839c14030266763c6b5e0213d5de2f118e68bd7b991ecfd4af37b3547d3f360e859a12050460703a695c0011d7dc2d138c6abf799b1ccdd6ad35b1567f3d340c879810070662723867520e1fd9d2231d8264b1779512c3d8a33bbf5871333a0289961e09086c7c3665500c1ddbd0211f8066b3759710c1daa139bd5a733138008b941c0b0a6e7e3463560a1bddd627198660b5739116c7dca73fbb5c75373e068d921a0d0c68783261540819dfd4251b8462b7719314c5dea53db95e77353c048f90180f0e6a7a306f5a0617d1da2b158a6cb97f9d1acbd0ab33b750793b320a819e16010064743e6d580415d3d82917886ebb7d9f18c9d2a931b5527b393008839c14030266763c6b5e0213d5de2f118e68bd7b991ecfd4af37b3547d3f360e859a12050460703a695c0011d7dc2d138c6abf799b1ccdd6ad35b1567f3d340c879810070662723867520e1fd9d2231d8264b1779512c3d8a33bbf5871333a0289961e09086c7c3665500c1ddbd0211f8066b3759710c1daa139bd5a733138008b941c0b0a6e7e3463560a1bddd627198660b5739116c7dca73fbb5c75373e068d921a0d0c68783261540819dfd4251b8462b7719314c5dea53db95e77353c048f90180f0e6a7a306f5a0617d1da2b158a6cb97f9d1acbd0ab33b750793b320a819e16010064743e6d580415d3d82917886ebb7d9f18c9d2a931b5527b393008839c14030266763c6b5e0213d5de2f118e68bd7b991ecfd4af37b3547d3f360e859a12050460703a695c0011d7dc2d138c6abf799b1ccdd6ad35b1567f3d340c879810070662723867520e1fd9d2231d8264b1779512c3d8a33bbf5871333a0289961e09086c7c3665500c1ddbd0211f8066b3759710c1daa139bd5a733138008b941c0b0a6e7e3463560a1bddd627198660b5739116c7dca73fbb5c75373e068d921a0d0c68783261540819dfd4251b8462b7719314c5dea53db95e77353c048f90180f0e6a7a306f5a0617d1da2b158a6cb97f9d1acbd0ab33b750793b320a819e16010064743e6d580415d3d82917886ebb7d9f18c9d2a931b5527b393008839c14030266763c6b5e0213d5de2f118e68bd7b991ecfd4af37b3547d3f360e859a12050460703a695c0011d7dc2d138c6abf799b1ccdd6ad35b1567f3d340c879810070662723867520e1fd9d2231d8264b1779512c3d8a33bbf5871333a0289961e09086c7c3665500c1ddbd0211f8066b3759710c1daa139bd5a733138008b941c0b0a6e7e3463560a1bddd627198660b5739116c7dca73fbb5c75373e068d921a0d0c68783261540819dfd4251b8462b7719314c5dea53db95e77353c048f90180f0e6a7a306f5a0617d1da2b158a6cb97f9d1acbd0ae1df547794c59e189f7dfab3c6f03532daa8281c796f9030ff3909ca6abef9c9",
        "hex": "6a20c8ec5a2fcc17c4910d9e8f0c553251e758f8205e2c69a970a633138175515ef04db0047520e1fd9d2231d8264b1779512c3d8a33bbf5871333a0289961e09086c7c3665500c1ddbd0211f8066b3759710c1daa139bd5a733138008b941c0b0a6e7e3463560a1bddd627198660b5739116c7dca73fbb5c75373e068d921a0d0c68783261540819dfd4251b8462b7719314c5dea53db95e77353c048f90180f0e6a7a306f5a0617d1da2b158a6cb97f9d1acbd0ab33b750793b320a819e16010064743e6d580415d3d82917886ebb7d9f18c9d2a931b5527b393008839c14030266763c6b5e0213d5de2f118e68bd7b991ecfd4af37b3547d3f360e859a12050460703a695c0011d7dc2d138c6abf799b1ccdd6ad35b1567f3d340c879810070662723867520e1fd9d2231d8264b1779512c3d8a33bbf5871333a0289961e09086c7c3665500c1ddbd0211f8066b3759710c1daa139bd5a733138008b941c0b0a6e7e3463560a1bddd627198660b5739116c7dca73fbb5c75373e068d921a0d0c68783261540819dfd4251b8462b7719314c5dea53db95e77353c048f90180f0e6a7a306f5a0617d1da2b158a6cb97f9d1acbd0ab33b750793b320a819e16010064743e6d580415d3d82917886ebb7d9f18c9d2a931b5527b393008839c14030266763c6b5e0213d5de2f118e68bd7b991ecfd4af37b3547d3f360e859a12050460703a695c0011d7dc2d138c6abf799b1ccdd6ad35b1567f3d340c879810070662723867520e1fd9d2231d8264b1779512c3d8a33bbf5871333a0289961e09086c7c3665500c1ddbd0211f8066b3759710c1daa139bd5a733138008b941c0b0a6e7e3463560a1bddd627198660b5739116c7dca73fbb5c75373e068d921a0d0c68783261540819dfd4251b8462b7719314c5dea53db95e77353c048f90180f0e6a7a306f5a0617d1da2b158a6cb97f9d1acbd0ab33b750793b320a819e16010064743e6d580415d3d82917886ebb7d9f18c9d2a931b5527b393008839c14030266763c6b5e0213d5de2f118e68bd7b991ecfd4af37b3547d3f360e859a12050460703a695c0011d7dc2d138c6abf799b1ccdd6ad35b1567f3d340c879810070662723867520e1fd9d2231d8264b1779512c3d8a33bbf5871333a0289961e09086c7c3665500c1ddbd0211f8066b3759710c1daa139bd5a733138008b941c0b0a6e7e3463560a1bddd627198660b5739116c7dca73fbb5c75373e068d921a0d0c68783261540819dfd4251b8462b7719314c5dea53db95e77353c048f90180f0e6a7a306f5a0617d1da2b158a6cb97f9d1acbd0ab33b750793b320a819e16010064743e6d580415d3d82917886ebb7d9f18c9d2a931b5527b393008839c14030266763c6b5e0213d5de2f118e68bd7b991ecfd4af37b3547d3f360e859a12050460703a695c0011d7dc2d138c6abf799b1ccdd6ad35b1567f3d340c879810070662723867520e1fd9d2231d8264b1779512c3d8a33bbf5871333a0289961e09086c7c3665500c1ddbd0211f8066b3759710c1daa139bd5a733138008b941c0b0a6e7e3463560a1bddd627198660b5739116c7dca73fbb5c75373e068d921a0d0c68783261540819dfd4251b8462b7719314c5dea53db95e77353c048f90180f0e6a7a306f5a0617d1da2b158a6cb97f9d1acbd0ae1df547794c59e189f7dfab3c6f03532daa8281c796f9030ff3909ca6abef9c9",
        "type": "nulldata"
      }
    }
  ],
  "blockhash": "a404c97fd79b0f74ac8935f18e4afcd6ffd73e4b441b9f6bd67a7215b8c8499e",
  "confirmations": 1,
  "time": 1764178774,
  "blocktime": 1764178774
}