{
  "hex": "01000000000101a0a3f98dc9dc58a8446b016b8f741f4af8fdd27f594ab1b91de952528ce292580100000000feffffff0270cc3221792d00002251208e686ba7c934987bc336639b2893f09641cc4ee8a6c745e1db30891e3fb2b27100e1f50500000000fdd5046a20667d8de0ef8a5354405c0b1c334fa5021dcfec5174434b1e7d1a1dffc3a847824db004dfe2422643955b28950015b67a8a2353f37e14027cd7edb4ce393c7b58b526a8ffc2620663b57b08b52035965aaa0373d35e34225cf7cd94ee191c5b789506889fa2026603d51b68d54055f63aca6313b33e54423c97adf48e797c3b18f566e8bf82224623f53b48f56075d61aea4333931e74621cb78dd4ae595c1b38d546c85f62c2a6c315dba815809536fa0aa3d373fe9482fc576d344eb9bcfbd835a6287f42e286e335fb8835a0b516da2a83f353deb4a2dc774d146e999cdbf81586081f2282e683559be855c0d576ba4ae39333bed4c2bc172d740ef9fcbb9875e6683f02a2c6a375bbc875e0f5569a6ac3b3139ef4e29c370d542ed9dc9bb855c648dfe2422643955b28950015b67a8a2353f37e14027cd7edb4ce393c7b58b526a8ffc2620663b57b08b52035965aaa0373d35e34225cf7cd94ee191c5b789506889fa2026603d51b68d54055f63aca6313b33e54423c97adf48e797c3b18f566e8bf82224623f53b48f56075d61aea4333931e74621cb78dd4ae595c1b38d546c85f62c2a6c315dba815809536fa0aa3d373fe9482fc576d344eb9bcfbd835a6287f42e286e335fb8835a0b516da2a83f353deb4a2dc774d146e999cdbf81586081f2282e683559be855c0d576ba4ae39333bed4c2bc172d740ef9fcbb9875e6683f02a2c6a375bbc875e0f5569a6ac3b3139ef4e29c370d542ed9dc9bb855c648dfe2422643955b28950015b67a8a2353f37e14027cd7edb4ce393c7b58b526a8ffc2620663b57b08b52035965aaa0373d35e34225cf7cd94ee191c5b789506889fa2026603d51b68d54055f63aca6313b33e54423c97adf48e797c3b18f566e8bf82224623f53b48f56075d61aea4333931e74621cb78dd4ae595c1b38d546c85f62c2a6c315dba815809536fa0aa3d373fe9482fc576d344eb9bcfbd835a6287f42e286e335fb8835a0b516da2a83f353deb4a2dc774d146e999cdbf81586081f2282e683559be855c0d576ba4ae39333bed4c2bc172d740ef9fcbb9875e6683f02a2c6a375bbc875e0f5569a6ac3b3139ef4e29c370d542ed9dc9bb855c648dfe2422643955b28950015b67a8a2353f37e14027cd7edb4ce393c7b58b526a8ffc2620663b57b08b52035965aaa0373d35e34225cf7cd94ee191c5b789506889fa2026603d51b68d54055f63aca6313b33e54423c97adf48e797c3b18f566e8bf82224623f53b48f56075d61aea4333931e74621cb78dd4ae595c1b38d546c85f62c2a6c315dba815809536fa0aa3d373fe9482fc576d344eb9bcfbd835a6287f42e286e335fb8835a0b516da2a83f353deb4a2dc774d146e999cdbf81586081f2282e683559be855c0d576ba4ae39333bed4c2bc172d740ef9fcbb9875e6683f02a2c6a375bbc875e0f5569a6ac3b3139ef4e29c370d542ed9dc9bb855c648dfe2422643955b28950015b67a8a2353f37e14027cd7edb4ce393c7b58b526a8ffc2620663b57b08b52035965aaa0373d35e34225cf7cd94ee191c5b789506889fa2026603d51b68d54055f63aca6313b33e54423c97adf48e797c3b18f566e8bf82224623f53b48f56075d61aea4333931e74621cb78dd4ae595c1b38d546c85f62c2a6c315dba815809536fa0aa3d371c793ecd0928e139417a9550427f2e2ac25d1f4db853674cffa4520d80ad13302fd750983cdc3543b5aedbe63482eb6c955e61371cbde192cdecc9128a93540e00a1d0c7b4555ed5574bb7d684c3d8d48cb65eeb5ae0f060c9a6122ba4d7e74f5a7c24635369d0ab0c994ea5e420845b336ab349eef73b2f99269f9361da008e06996015e6a48424db797f9b6d3e84ff8dcad590572ca32b634a4dd3430144560ada60870142f95fdd8188523142d989a93b63a1e072dffdab127b0793712ff489ec246ceea51a3730c51f06e36d1eb95ca71cfc685f5132cbcf2f44a3e143e5bee84d81946f16f0848a97ca40f8522d23b9baab9f9a15ef2ff0175996b958bb112b1ad4146797b02f6cc91302c20fd264d2dd4bbb2ddfbb0d7c33b1c700e287f8567e6d6e06466e006b4013c3554195823235dd6b89882d1a0dc436464f0c874eb47b31d829fcfcc38ad9a7f9fed18b23b07dc9376267aa921700373f5a74434b7e5478a3c1cd81e8ca4a44bf9a4d87b1d83f114c2c0234d281bbf7d422ed2a0525140a46ec86d534196b4a5bd114f3d71e5c128d8845bc18f82aa1c3d32fcdbe45fecc81d9e9eb90eb7fb72cbb9c4285dbd0d8ea1eb5d73fbdf3277bb2d1cec47c808bd876fd1054af40fe6ea27ab2b3fe2750686ae1b810eb5cb4bc66904e739928da7a3ead69a9e96009dc98acfcf75cbabfc467ec67e7215a759235a3bd898f310dbdb9f3ffb396ca4da2994d45b193e03144be4576662e842581c4a3f2675c475fbd0279da0d15f2615cd3bccc7be9a85dcdd12807ae0d8cccf4ff7a84d2632832128538d9e0af3433cf8e253a59b2ced53a130176bdf9759dd9cc1f5ae14c4da336153185217effa38225c4ee229714eef042e0786bd0c04bfedf99308e458c692cf1a57cf61c8a8a658e01f5195046cc46cd058f77863a7a1a2e8583de24bf317705355aaff8bd5b60dba34b9b1ee479a2ab66f0726a5dab41f283c13a02e9ea14b03184493f527a673c387e21df18701d117d03465bf740cae437362e04b6654468f433a409b9ef14062429b2c6d3a38ef4dccf72099c7681cc28420d0da1aae88010d5119e736804301571b8b8a5f289630e05c24ae17b865a4b7d88712a8c89da8f67e8d3885c0df63292dc1d6ed6f5a3efc48c292d09248923d2453d9d198a633644984744357304e05e723e8ca3427d750fb57461185ebc70097b124c325d36bc43aa498182e3d50ca29b7ad737b8f20b5a69e0554c9b2ad785b18dddd75e14578e7aacdbe6437598ec49ae7dff65b102254737acbaf4301f570f100cfe8b0c1a98f239473f48b95e1b306575202d7bf5e49dc5cc71d1c073067925979e938ac97b2c350ec37dafb695f84b9712717a13ec72142431d5ff835a7206ef45f752f3c78fc9913b9fe8e9b97298fcfae0dc5f2e113000c19b3c112268af959053ae8801e16ce3437005eaaae652e94fda06de643736600491edfcaa613cccd3a79d73874f2f186856bbdb7d25037913e6a684af003481bd8940b4891ec76b8c47eaa1e7f955e5ae3d6236b01159c9a39926f001df5b330eb5f6df3a18684c85f86255762a2fe77cf3007ec1161f9860b345f2c0290a7ce56b0a7d96f25a1b18de0c032c185e19e54785ae2c3636d722ea966d62f3019b479786aa008619fae40ac2b9f17158c8c77956285aeb1228a7b14a5fb4e3bc91985d9cefa59a11609ab38f038cdb4e49ad7df38109d1440e69e35918cc687f93beb9803b9932380c763356bd601814995190699e8dc9658a29b54f3f38d02856effc512b43a64c97f980ab29ff1231eae05b38446834d655441b49de1cc767c4d063568c6cf96c5f75f68607d0d6ef34a918ff5e390015bf2d5e74d32a54c7357eb26bcd7c499021e6273251e4f6bf3d90c643de6b96b398246b333fa1ae66420692e8c326b1cb844d1a8f4c139a2edc0956920fe067aade5a01785c13a305e34a5f3e1ddb77ab94a341e040d8e98f9b2c58eb4920406d5a9a2c02c51373a29e59c88a6dfc8900a5f498fc774024bf36d17be7624c02459202e216239f0655b62e2a028e97009249b26e8f852a96d516fb8ef76a35c5fcad55d81190b86d111aa8f0b0d441903ea5a95ff41543ce0a75e75583a5e1b4552dbeff24207fcb08d7955097babc5b794cd948274e8b123726db6f5d24d1d29e90ce5d261916f23432eaa313819dfcb9f87f846bf6c137240849239d4a99f16ee917adc4259385430efceb8a1d9999ca68d13432f74b921b7f470e52c1b8ddabd051088424835e56a31a2071fefc06067d75b6e237de59f7c3b04a0f008da6ae3d247ac33b9e67f0574dba09db4b6f1743bf103bc9cd703d0f54572fdc3795190e34da53d0c84d455e5ba26c4b840cfa409b09c000515c2006d6b6a2c0e599ba1de8ebe5ef3a16b98bece06c6f6922bce4db0c72e5a75fcd9813cf59c716099e6f582e774007dcd0dee4e6fc119ec15261b3a25e2bfe6772409b9fea4a249ade122ae280f6e30f9d3015baee1cf242a86cbbed637c7c1f9e683734b267d9d9742d6e98efcd581b79c51d94a5ba9c3344e370677fa6dde1f9ec5a0236250af4029366678e76e4a809446bf28e57f5f22a5ac45e071654f65168ef5d480e564950864fde5594e91edcec723f4e9a3144d2682bfb8565be7cd413512c8764e8d047ca2ea73c14b64d7316a566913cb091621b92b7e8a5aa0a53b6d2bfd9245d44d0d1d864f96f235535379d3843461b6da075f55ece35ee1d25dd62efbe923c12c85e35a2b082b1c6545b2a31f7a151a1a1a71d6c31de6de8cb1033137ca7be26cd0966e2cf870b58d11bfa0f36d610bc4b62b2e934f432eeda28c199e75d00a3898687af8299e72e6ba8e40118d79f3c07fef46eb0181381b1273ef5d4346e5bbb6c2315e51f5765c76086ebae27f84fbf620ac2aed04c3b506fcd64c7c5289db360eaa671e1acf60c8893e74ff4a8d4117c7618f9b56a905ee7a3aefce19989dfcd752ae529b656528bd0f64112187ef9e4cfd0e74f476eb1f04b3950c21c7abeb2d59139368244c160f3523f30fc63e1e6b6f7035342941c0f1457286bfa32749b800879fe39934f2ba47406b428b614ea3d7f1573842f3eac47c8119a4ca14305e708d0d2b91e95814fd3708f7edcfaaa2f20ff5b32f17aa67ba2740357112913d5d8b2b30da38e29997447994efab1c33ff64f136be9287f24be498f906595bddac31104607ae73378046d3e2dbfbb7989e36d9d0e0559fafce876688b2d30f344e5dc03cd929b78b4ecfdb8dd6de1163114640e45dd291becc15ff62dfd7f8860481a2a73ebead47a3115b905163e9cc20212e35545b637296acb1d0d5d6e32c2f484c54575c656b969ebed2e1e7f8080d2122282e35474b5a6c74757c82888fb4ced1f20a1e28303a778894abadb0b3c1dfe0f9fbfd000000000000000000000f1f344601fd210500b9524e2fd4379d8f951325e66c9e7dc568fcbc097b5c33c68b68d6f904a94fc9511a454f922768845275164b57c3fb4bbb6bf9a8f44c4a2ef492aaf44379366b65f3a59701d10b5af96d3025bc050c090efb7279b03a3829814741393f71c0a7d23e866639fc328cad5cca63d09dd89bec237cd23da540c32a529da25efeddb784c7859803d529895f66f424f91d658c5644b8b10c2816fc2303e770fc1cbdb54a318d2f72efd5163b0d649c8b5a0a7225237fde2cc9f3aee1a1fdf16725b506bb93e69cbfc6fc7e53617338cf2cff0c84af8e21e8ecece1587f6b0efc33dc11d9b81984d118ea08b5963c41c9c89d0dfe2a637ccb67630e0a6f8b2119efdf823a7aa37532c513b91f16ac0dd5cf13340ae07d2ff2482971da4866024f9f0fa5623ba71f7406bd71fce317ab322448352f60a4c07004a9d7d74b374cfbc390fd004d14e0cd30a57fbaac15d71ca6306651d8350e68bbbd81ae278ea14d6120326e01bd47599369c5c54a86d12cf3f2b966bbe9b221521411bd6f05892f0a92b02c07c49c139e997d3f90c8314548be68bac171d8782689a072253e6b16ebe2643c92f2bd8b9b296e16bda7ff1d8cd1f26321be9bad205a1bb1562eb5016c08af8003e392eebdde7f9816a4e61ee997fc2b8391230fe0777ac77a71f5cbce54db323b5d3c1a6caed9328370605b5db100144d7def654d2423f4f7c9d9ec0bd74a1f75112068c4718cc1a0f849dc7f27a76f16f95cef7161d5745c000efd180ddaab3fe851779b236f8d7706682df72cf73803d2d16ce16b2906b06da943088d9e3568e440dd2fd60e37d4bb5b9f19bec2ed1dcc39b564b78446c4d8bab72dfeab281b3e83c62445aa0d6d121bddf8403f605695f07cdd8d51e65a58e006aa8b8c485d2d16decc6d3927e5d51e7dd2db3705f008b335c7e8e8311cdea9da34e8ca286acf39ae9d6cdc4cee7dde9acda91a6488629a2a2c4f53b47c679352737e234bc33b6de9825cce83d76484b5fa310447b5dd4ef5077f1847dd0f46e9d4927e787d21e3bbc49437e9ecdcfa098bc54eefb8f6cafd9a1dcf071b593f1cd8b7406f0db1f3399aa0b04035d550f1d6c590f318e941a9a0afc663ddd7764e2aa024d39a0d916743c1b426d2263c2abebb92135d2b1c4082054940e5213b28703c909582e36078a97714aca2a16d2b50140f53ca8ba29046cf020f71f7d48a4e3df53a0cb351608f46eaa0fe9989e81deb4a8bd50029ade3cc3739ef524ead513a29c873881ee997419321f8510c0a1db1d9aa7e4cf16f7b956b6cb23744ef35c541904cc1101237d47aed8589d93373f6db71c2e349ae5ad1b7c4a2e0213fc4747ff0ad7d9cba3ac904dae8b0b79ad819fe128821fc46d11ba604623d2a5594f5f5cbc97fe8b8fba9eeaae154cef7c3ac3b3e3459f946e57e73700b90f12d3cb6c613667a6f4356c7cd8e3563ca631c323d289ea1ebb1b2896753d18c640c56a74b6e2d2e6371f6663979db573888573f1f46fcac77944f4fb7f3b677b080cfa12195b1d15d2c4a1ae4091a41b111134b8d8994dfe69feeb228f47f133452408bed4e85fd5b1043f8c79e7a9e606fc1340a8e9266f613e1bcc2858efc8360e10b7b9da1167c0e5f78499eac0428f5ea191830aa675f69fce53fac3c577f95af1ee01f32a482cf1232a63173147625c26ea1c84b8ab927ec3dcce372cbd9855d1098def7785efb058a2766499a61c8f344f86cc901d1bbc8cc9c27a594be5f4e60e8816a05af2ca1b34df38bb0ab5a0f8b8a8b439e2986c62c95a77d10ae75517c7b3ca3d2356eb131e07b1c60d1e75eeca0f7f09532f64c58a4296222a4be0c521a73000000",
  "txid": "dd8d9f4ebfcc383e3a09c0830b9baa0407892eb7772ea2b7b8f43865dcc762c7",
  "hash": "588e2cd31efbb0de80c28aa6e30ff18a04a2baac7e84218c6e01e3d0a5aa4570",
  "size": 5085,
  "vsize": 2278,
  "version": 1,
  "locktime": 115,
  "vin": [
    {
      "txid": "5892e28c5252e91db9b14a597fd2fdf84a1f748f6b016b44a858dcc98df9a3a0",
      "vout": 1,
      "scriptSig": {
        "asm": "",
        "hex": ""
      },
      "txinwitness": [
        "83cdc3543b5aedbe63482eb6c955e61371cbde192cdecc9128a93540e00a1d0c7b4555ed5574bb7d684c3d8d48cb65eeb5ae0f060c9a6122ba4d7e74f5a7c24635369d0ab0c994ea5e420845b336ab349eef73b2f99269f9361da008e06996015e6a48424db797f9b6d3e84ff8dcad590572ca32b634a4dd3430144560ada60870142f95fdd8188523142d989a93b63a1e072dffdab127b0793712ff489ec246ceea51a3730c51f06e36d1eb95ca71cfc685f5132cbcf2f44a3e143e5bee84d81946f16f0848a97ca40f8522d23b9baab9f9a15ef2ff0175996b958bb112b1ad4146797b02f6cc91302c20fd264d2dd4bbb2ddfbb0d7c33b1c700e287f8567e6d6e06466e006b4013c3554195823235dd6b89882d1a0dc436464f0c874eb47b31d829fcfcc38ad9a7f9fed18b23b07dc9376267aa921700373f5a74434b7e5478a3c1cd81e8ca4a44bf9a4d87b1d83f114c2c0234d281bbf7d422ed2a0525140a46ec86d534196b4a5bd114f3d71e5c128d8845bc18f82aa1c3d32fcdbe45fecc81d9e9eb90eb7fb72cbb9c4285dbd0d8ea1eb5d73fbdf3277bb2d1cec47c808bd876fd1054af40fe6ea27ab2b3fe2750686ae1b810eb5cb4bc66904e739928da7a3ead69a9e96009dc98acfcf75cbabfc467ec67e7215a759235a3bd898f310dbdb9f3ffb396ca4da2994d45b193e03144be4576662e842581c4a3f2675c475fbd0279da0d15f2615cd3bccc7be9a85dcdd12807ae0d8cccf4ff7a84d2632832128538d9e0af3433cf8e253a59b2ced53a130176bdf9759dd9cc1f5ae14c4da336153185217effa38225c4ee229714eef042e0786bd0c04bfedf99308e458c692cf1a57cf61c8a8a658e01f5195046cc46cd058f77863a7a1a2e8583de24bf317705355aaff8bd5b60dba34b9b1ee479a2ab66f0726a5dab41f283c13a02e9ea14b03184493f527a673c387e21df18701d117d03465bf740cae437362e04b6654468f433a409b9ef14062429b2c6d3a38ef4dccf72099c7681cc28420d0da1aae88010d5119e736804301571b8b8a5f289630e05c24ae17b865a4b7d88712a8c89da8f67e8d3885c0df63292dc1d6ed6f5a3efc48c292d09248923d2453d9d198a633644984744357304e05e723e8ca3427d750fb57461185ebc70097b124c325d36bc43aa498182e3d50ca29b7ad737b8f20b5a69e0554c9b2ad785b18dddd75e14578e7aacdbe6437598ec49ae7dff65b102254737acbaf4301f570f100cfe8b0c1a98f239473f48b95e1b306575202d7bf5e49dc5cc71d1c073067925979e938ac97b2c350ec37dafb695f84b9712717a13ec72142431d5ff835a7206ef45f752f3c78fc9913b9fe8e9b97298fcfae0dc5f2e113000c19b3c112268af959053ae8801e16ce3437005eaaae652e94fda06de643736600491edfcaa613cccd3a79d73874f2f186856bbdb7d25037913e6a684af003481bd8940b4891ec76b8c47eaa1e7f955e5ae3d6236b01159c9a39926f001df5b330eb5f6df3a18684c85f86255762a2fe77cf3007ec1161f9860b345f2c0290a7ce56b0a7d96f25a1b18de0c032c185e19e54785ae2c3636d722ea966d62f3019b479786aa008619fae40ac2b9f17158c8c77956285aeb1228a7b14a5fb4e3bc91985d9cefa59a11609ab38f038cdb4e49ad7df38109d1440e69e35918cc687f93beb9803b9932380c763356bd601814995190699e8dc9658a29b54f3f38d02856effc512b43a64c97f980ab29ff1231eae05b38446834d655441b49de1cc767c4d063568c6cf96c5f75f68607d0d6ef34a918ff5e390015bf2d5e74d32a54c7357eb26bcd7c499021e6273251e4f6bf3d90c643de6b96b398246b333fa1ae66420692e8c326b1cb844d1a8f4c139a2edc0956920fe067aade5a01785c13a305e34a5f3e1ddb77ab94a341e040d8e98f9b2c58eb4920406d5a9a2c02c51373a29e59c88a6dfc8900a5f498fc774024bf36d17be7624c02459202e216239f0655b62e2a028e97009249b26e8f852a96d516fb8ef76a35c5fcad55d81190b86d111aa8f0b0d441903ea5a95ff41543ce0a75e75583a5e1b4552dbeff24207fcb08d7955097babc5b794cd948274e8b123726db6f5d24d1d29e90ce5d261916f23432eaa313819dfcb9f87f846bf6c137240849239d4a99f16ee917adc4259385430efceb8a1d9999ca68d13432f74b921b7f470e52c1b8ddabd051088424835e56a31a2071fefc06067d75b6e237de59f7c3b04a0f008da6ae3d247ac33b9e67f0574dba09db4b6f1743bf103bc9cd703d0f54572fdc3795190e34da53d0c84d455e5ba26c4b840cfa409b09c000515c2006d6b6a2c0e599ba1de8ebe5ef3a16b98bece06c6f6922bce4db0c72e5a75fcd9813cf59c716099e6f582e774007dcd0dee4e6fc119ec15261b3a25e2bfe6772409b9fea4a249ade122ae280f6e30f9d3015baee1cf242a86cbbed637c7c1f9e683734b267d9d9742d6e98efcd581b79c51d94a5ba9c3344e370677fa6dde1f9ec5a0236250af4029366678e76e4a809446bf28e57f5f22a5ac45e071654f65168ef5d480e564950864fde5594e91edcec723f4e9a3144d2682bfb8565be7cd413512c8764e8d047ca2ea73c14b64d7316a566913cb091621b92b7e8a5aa0a53b6d2bfd9245d44d0d1d864f96f235535379d3843461b6da075f55ece35ee1d25dd62efbe923c12c85e35a2b082b1c6545b2a31f7a151a1a1a71d6c31de6de8cb1033137ca7be26cd0966e2cf870b58d11bfa0f36d610bc4b62b2e934f432eeda28c199e75d00a3898687af8299e72e6ba8e40118d79f3c07fef46eb0181381b1273ef5d4346e5bbb6c2315e51f5765c76086ebae27f84fbf620ac2aed04c3b506fcd64c7c5289db360eaa671e1acf60c8893e74ff4a8d4117c7618f9b56a905ee7a3aefce19989dfcd752ae529b656528bd0f64112187ef9e4cfd0e74f476eb1f04b3950c21c7abeb2d59139368244c160f3523f30fc63e1e6b6f7035342941c0f1457286bfa32749b800879fe39934f2ba47406b428b614ea3d7f1573842f3eac47c8119a4ca14305e708d0d2b91e95814fd3708f7edcfaaa2f20ff5b32f17aa67ba2740357112913d5d8b2b30da38e29997447994efab1c33ff64f136be9287f24be498f906595bddac31104607ae73378046d3e2dbfbb7989e36d9d0e0559fafce876688b2d30f344e5dc03cd929b78b4ecfdb8dd6de1163114640e45dd291becc15ff62dfd7f8860481a2a73ebead47a3115b905163e9cc20212e35545b637296acb1d0d5d6e32c2f484c54575c656b969ebed2e1e7f8080d2122282e35474b5a6c74757c82888fb4ced1f20a1e28303a778894abadb0b3c1dfe0f9fbfd000000000000000000000f1f344601",
        "00b9524e2fd4379d8f951325e66c9e7dc568fcbc097b5c33c68b68d6f904a94fc9511a454f922768845275164b57c3fb4bbb6bf9a8f44c4a2ef492aaf44379366b65f3a59701d10b5af96d3025bc050c090efb7279b03a3829814741393f71c0a7d23e866639fc328cad5cca63d09dd89bec237cd23da540c32a529da25efeddb784c7859803d529895f66f424f91d658c5644b8b10c2816fc2303e770fc1cbdb54a318d2f72efd5163b0d649c8b5a0a7225237fde2cc9f3aee1a1fdf16725b506bb93e69cbfc6fc7e53617338cf2cff0c84af8e21e8ecece1587f6b0efc33dc11d9b81984d118ea08b5963c41c9c89d0dfe2a637ccb67630e0a6f8b2119efdf823a7aa37532c513b91f16ac0dd5cf13340ae07d2ff2482971da4866024f9f0fa5623ba71f7406bd71fce317ab322448352f60a4c07004a9d7d74b374cfbc390fd004d14e0cd30a57fbaac15d71ca6306651d8350e68bbbd81ae278ea14d6120326e01bd47599369c5c54a86d12cf3f2b966bbe9b221521411bd6f05892f0a92b02c07c49c139e997d3f90c8314548be68bac171d8782689a072253e6b16ebe2643c92f2bd8b9b296e16bda7ff1d8cd1f26321be9bad205a1bb1562eb5016c08af8003e392eebdde7f9816a4e61ee997fc2b8391230fe0777ac77a71f5cbce54db323b5d3c1a6caed9328370605b5db100144d7def654d2423f4f7c9d9ec0bd74a1f75112068c4718cc1a0f849dc7f27a76f16f95cef7161d5745c000efd180ddaab3fe851779b236f8d7706682df72cf73803d2d16ce16b2906b06da943088d9e3568e440dd2fd60e37d4bb5b9f19bec2ed1dcc39b564b78446c4d8bab72dfeab281b3e83c62445aa0d6d121bddf8403f605695f07cdd8d51e65a58e006aa8b8c485d2d16decc6d3927e5d51e7dd2db3705f008b335c7e8e8311cdea9da34e8ca286acf39ae9d6cdc4cee7dde9acda91a6488629a2a2c4f53b47c679352737e234bc33b6de9825cce83d76484b5fa310447b5dd4ef5077f1847dd0f46e9d4927e787d21e3bbc49437e9ecdcfa098bc54eefb8f6cafd9a1dcf071b593f1cd8b7406f0db1f3399aa0b04035d550f1d6c590f318e941a9a0afc663ddd7764e2aa024d39a0d916743c1b426d2263c2abebb92135d2b1c4082054940e5213b28703c909582e36078a97714aca2a16d2b50140f53ca8ba29046cf020f71f7d48a4e3df53a0cb351608f46eaa0fe9989e81deb4a8bd50029ade3cc3739ef524ead513a29c873881ee997419321f8510c0a1db1d9aa7e4cf16f7b956b6cb23744ef35c541904cc1101237d47aed8589d93373f6db71c2e349ae5ad1b7c4a2e0213fc4747ff0ad7d9cba3ac904dae8b0b79ad819fe128821fc46d11ba604623d2a5594f5f5cbc97fe8b8fba9eeaae154cef7c3ac3b3e3459f946e57e73700b90f12d3cb6c613667a6f4356c7cd8e3563ca631c323d289ea1ebb1b2896753d18c640c56a74b6e2d2e6371f6663979db573888573f1f46fcac77944f4fb7f3b677b080cfa12195b1d15d2c4a1ae4091a41b111134b8d8994dfe69feeb228f47f133452408bed4e85fd5b1043f8c79e7a9e606fc1340a8e9266f613e1bcc2858efc8360e10b7b9da1167c0e5f78499eac0428f5ea191830aa675f69fce53fac3c577f95af1ee01f32a482cf1232a63173147625c26ea1c84b8ab927ec3dcce372cbd9855d1098def7785efb058a2766499a61c8f344f86cc901d1bbc8cc9c27a594be5f4e60e8816a05af2ca1b34df38bb0ab5a0f8b8a8b439e2986c62c95a77d10ae75517c7b3ca3d2356eb131e07b1c60d1e75eeca0f7f09532f64c58a4296222a4be0c521a"
      ],
      "sequence": 4294967294
    }
  ],
  "vout": [
    {
      "value": 499982.7127,
      "n": 0,
      "scriptPubKey": {
        "asm": "1 8e686ba7c934987bc336639b2893f09641cc4ee8a6c745e1db30891e3fb2b271",
        "hex": "51208e686ba7c934987bc336639b2893f09641cc4ee8a6c745e1db30891e3fb2b271",
        "reqSigs": 1,
        "type": "witness_v1_scripthash",
        "addresses": [
          "3QJmnh"
        ]
      }
    },
    {
      "value": 1.0,
      "n": 1,
      "scriptPubKey": {
        "asm": "OP_RETURN 667d8de0ef8a5354405c0b1c334fa5021dcfec5174434b1e7d1a1dffc3a84782 dfe2422643955b28950015b67a8a2353f37e14027cd7edb4ce393c7b58b526a8ffc2620663b57b08b52035965aaa0373d35e34225cf7cd94ee191c5b789506889fa2026603d51b68d54055f63aca6313b33e54423c97adf48e797c3b18f566e8bf82224623f53b48f56075d61aea4333931e74621cb78dd4ae595c1b38d546c85f62c2a6c315dba815809536fa0aa3d373fe9482fc576d344eb9bcfbd835a6287f42e286e335fb8835a0b516da2a83f353deb4a2dc774d146e999cdbf81586081f2282e683559be855c0d576ba4ae39333bed4c2bc172d740ef9fcbb9875e6683f02a2c6a375bbc875e0f5569a6ac3b3139ef4e29c370d542ed9dc9bb855c648dfe2422643955b28950015b67a8a2353f37e14027cd7edb4ce393c7b58b526a8ffc2620663b57b08b52035965aaa0373d35e34225cf7cd94ee191c5b789506889fa2026603d51b68d54055f63aca6313b33e54423c97adf48e797c3b18f566e8bf82224623f53b48f56075d61aea4333931e74621cb78dd4ae595c1b38d546c85f62c2a6c315dba815809536fa0aa3d373fe9482fc576d344eb9bcfbd835a6287f42e286e335fb8835a0b516da2a83f353deb4a2dc774d146e999cdbf81586081f2282e683559be855c0d576ba4ae39333bed4c2bc172d740ef9fcbb9875e6683f02a2c6a375bbc875e0f5569a6ac3b3139ef4e29c370d542ed9dc9bb855c648dfe2422643955b28950015b67a8a2353f37e14027cd7edb4ce393c7b58b526a8ffc2620663b57b08b52035965aaa0373d35e34225cf7cd94ee191c5b789506889fa2026603d51b68d54055f63aca6313b33e54423c97adf48e797c3b18f566e8bf82224623f53b48f56075d61aea4333931e74621cb78dd4ae595c1b38d546c85f62c2a6c315dba815809536fa0aa3d373fe9482fc576d344eb9bcfbd835a6287f42e286e335fb8835a0b516da2a83f353deb4a2dc774d146e999cdbf81586081f2282e683559be855c0d576ba4ae39333bed4c2bc172d740ef9fcbb9875e6683f02a2c6a375bbc875e0f5569a6ac3b3139ef4e29c370d542ed9dc9bb855c648dfe2422643955b28950015b67a8a2353f37e14027cd7edb4ce393c7b58b526a8ffc2620663b57b08b52035965aaa0373d35e34225cf7cd94ee191c5b789506889fa2026603d51b68d54055f63aca6313b33e54423c97adf48e797c3b18f566e8bf82224623f53b48f56075d61aea4333931e74621cb78dd4ae595c1b38d546c85f62c2a6c315dba815809536fa0aa3d373fe9482fc576d344eb9bcfbd835a6287f42e286e335fb8835a0b516da2a83f353deb4a2dc774d146e999cdbf81586081f2282e683559be855c0d576ba4ae39333bed4c2bc172d740ef9fcbb9875e6683f02a2c6a375bbc875e0f5569a6ac3b3139ef4e29c370d542ed9dc9bb855c648dfe2422643955b28950015b67a8a2353f37e14027cd7edb4ce393c7b58b526a8ffc2620663b57b08b52035965aaa0373d35e34225cf7cd94ee191c5b789506889fa2026603d51b68d54055f63aca6313b33e54423c97adf48e797c3b18f566e8bf82224623f53b48f56075d61aea4333931e74621cb78dd4ae595c1b38d546c85f62c2a6c315dba815809536fa0aa3d371c793ecd0928e139417a9550427f2e2ac25d1f4db853674cffa4520d80ad133",
        "hex": "6a20667d8de0ef8a5354405c0b1c334fa5021dcfec5174434b1e7d1a1dffc3a847824db004dfe2422643955b28950015b67a8a2353f37e14027cd7edb4ce393c7b58b526a8ffc2620663b57b08b52035965aaa0373d35e34225cf7cd94ee191c5b789506889fa2026603d51b68d54055f63aca6313b33e54423c97adf48e797c3b18f566e8bf82224623f53b48f56075d61aea4333931e74621cb78dd4ae595c1b38d546c85f62c2a6c315dba815809536fa0aa3d373fe9482fc576d344eb9bcfbd835a6287f42e286e335fb8835a0b516da2a83f353deb4a2dc774d146e999cdbf81586081f2282e683559be855c0d576ba4ae39333bed4c2bc172d740ef9fcbb9875e6683f02a2c6a375bbc875e0f5569a6ac3b3139ef4e29c370d542ed9dc9bb855c648dfe2422643955b28950015b67a8a2353f37e14027cd7edb4ce393c7b58b526a8ffc2620663b57b08b52035965aaa0373d35e34225cf7cd94ee191c5b789506889fa2026603d51b68d54055f63aca6313b33e54423c97adf48e797c3b18f566e8bf82224623f53b48f56075d61aea4333931e74621cb78dd4ae595c1b38d546c85f62c2a6c315dba815809536fa0aa3d373fe9482fc576d344eb9bcfbd835a6287f42e286e335fb8835a0b516da2a83f353deb4a2dc774d146e999cdbf81586081f2282e683559be855c0d576ba4ae39333bed4c2bc172d740ef9fcbb9875e6683f02a2c6a375bbc875e0f5569a6ac3b3139ef4e29c370d542ed9dc9bb855c648dfe2422643955b28950015b67a8a2353f37e14027cd7edb4ce393c7b58b526a8ffc2620663b57b08b52035965aaa0373d35e34225cf7cd94ee191c5b789506889fa2026603d51b68d54055f63aca6313b33e54423c97adf48e797c3b18f566e8bf82224623f53b48f56075d61aea4333931e74621cb78dd4ae595c1b38d546c85f62c2a6c315dba815809536fa0aa3d373fe9482fc576d344eb9bcfbd835a6287f42e286e335fb8835a0b516da2a83f353deb4a2dc774d146e999cdbf81586081f2282e683559be855c0d576ba4ae39333bed4c2bc172d740ef9fcbb9875e6683f02a2c6a375bbc875e0f5569a6ac3b3139ef4e29c370d542ed9dc9bb855c648dfe2422643955b28950015b67a8a2353f37e14027cd7edb4ce393c7b58b526a8ffc2620663b57b08b52035965aaa0373d35e34225cf7cd94ee191c5b789506889fa2026603d51b68d54055f63aca6313b33e54423c97adf48e797c3b18f566e8bf82224623f53b48f56075d61aea4333931e74621cb78dd4ae595c1b38d546c85f62c2a6c315dba815809536fa0aa3d373fe9482fc576d344eb9bcfbd835a6287f42e286e335fb8835a0b516da2a83f353deb4a2dc774d146e999cdbf81586081f2282e683559be855c0d576ba4ae39333bed4c2bc172d740ef9fcbb9875e6683f02a2c6a375bbc875e0f5569a6ac3b3139ef4e29c370d542ed9dc9bb855c648dfe2422643955b28950015b67a8a2353f37e14027cd7edb4ce393c7b58b526a8ffc2620663b57b08b52035965aaa0373d35e34225cf7cd94ee191c5b789506889fa2026603d51b68d54055f63aca6313b33e54423c97adf48e797c3b18f566e8bf82224623f53b48f56075d61aea4333931e74621cb78dd4ae595c1b38d546c85f62c2a6c315dba815809536fa0aa3d371c793ecd0928e139417a9550427f2e2ac25d1f4db853674cffa4520d80ad133",
        "type": "nulldata"
      }
    }
  ],
  "blockhash": "b157fe5006ea74e3e2696296011f5383f171fa956e468cbbd84742f98a1af3af",
  "confirmations": 1,
  "time": 1764179051,
  "blocktime": 1764179051
}