{
  "hex": "01000000000101e4a1f00b0ac25c6dc74f26334a5af631db78e8a6ea63378d4a8163002111a2350000000000feffffff02202367d2782d0000225120e8bf87cb80dfc43b9d0639f039ad982efdf8779ae08c6897765891ff55ecb2fa00e1f50500000000fdd5046a20d9d2512e6d904a1153ef7ed6cf9b411470475777f6e8ec28832791d72cdd2e794db004446edd2a0123867c87bfbf72bb41ae009edb5f73a267fbeb787ea4612b1bdbda644efd0a2103a65ca79f9f529b618e20befb7f538247dbcb585e84410b3bfbfa042e9d6a4163c63cc7ffff32fb01ee40de9b1f33e227bbab383ee4216b5b9b9a240ebd4a6143e61ce7dfdf12db21ce60febb3f13c2079b8b181ec4014b7bbbbac4ee5daa81a306fc073f3ff23bc12e801e5bdff322e77b6bf8fe24e1ab9b5b5ae4ce7d8aa18326dc271f1fd21be10ea03e7bffd302c75b4bd8de04c18bbb7b7a84ae1deac1e346bc477f7fb27b816ec05e1b9fb362a73b2bb8be64a1ebdb1b1aa48e3dcae1c3669c675f5f925ba14ee07e3bbf9342871b0b989e4481cbfb3b3a446edd2a0123867c87bfbf72bb41ae009edb5f73a267fbeb787ea4612b1bdbda644efd0a2103a65ca79f9f529b618e20befb7f538247dbcb585e84410b3bfbfa042e9d6a4163c63cc7ffff32fb01ee40de9b1f33e227bbab383ee4216b5b9b9a240ebd4a6143e61ce7dfdf12db21ce60febb3f13c2079b8b181ec4014b7bbbbac4ee5daa81a306fc073f3ff23bc12e801e5bdff322e77b6bf8fe24e1ab9b5b5ae4ce7d8aa18326dc271f1fd21be10ea03e7bffd302c75b4bd8de04c18bbb7b7a84ae1deac1e346bc477f7fb27b816ec05e1b9fb362a73b2bb8be64a1ebdb1b1aa48e3dcae1c3669c675f5f925ba14ee07e3bbf9342871b0b989e4481cbfb3b3a446edd2a0123867c87bfbf72bb41ae009edb5f73a267fbeb787ea4612b1bdbda644efd0a2103a65ca79f9f529b618e20befb7f538247dbcb585e84410b3bfbfa042e9d6a4163c63cc7ffff32fb01ee40de9b1f33e227bbab383ee4216b5b9b9a240ebd4a6143e61ce7dfdf12db21ce60febb3f13c2079b8b181ec4014b7bbbbac4ee5daa81a306fc073f3ff23bc12e801e5bdff322e77b6bf8fe24e1ab9b5b5ae4ce7d8aa18326dc271f1fd21be10ea03e7bffd302c75b4bd8de04c18bbb7b7a84ae1deac1e346bc477f7fb27b816ec05e1b9fb362a73b2bb8be64a1ebdb1b1aa48e3dcae1c3669c675f5f925ba14ee07e3bbf9342871b0b989e4481cbfb3b3a446edd2a0123867c87bfbf72bb41ae009edb5f73a267fbeb787ea4612b1bdbda644efd0a2103a65ca79f9f529b618e20befb7f538247dbcb585e84410b3bfbfa042e9d6a4163c63cc7ffff32fb01ee40de9b1f33e227bbab383ee4216b5b9b9a240ebd4a6143e61ce7dfdf12db21ce60febb3f13c2079b8b181ec4014b7bbbbac4ee5daa81a306fc073f3ff23bc12e801e5bdff322e77b6bf8fe24e1ab9b5b5ae4ce7d8aa18326dc271f1fd21be10ea03e7bffd302c75b4bd8de04c18bbb7b7a84ae1deac1e346bc477f7fb27b816ec05e1b9fb362a73b2bb8be64a1ebdb1b1aa48e3dcae1c3669c675f5f925ba14ee07e3bbf9342871b0b989e4481cbfb3b3a446edd2a0123867c87bfbf72bb41ae009edb5f73a267fbeb787ea4612b1bdbda644efd0a2103a65ca79f9f529b618e20befb7f538247dbcb585e84410b3bfbfa042e9d6a4163c63cc7ffff32fb01ee40de9b1f33e227bbab383ee4216b5b9b9a240ebd4a6143e61ce7dfdf12db21ce60febb3f13c2079b8b181ec4014b7bbbbac4ee5daa81a306fc073f3ff23bc12e804a2aa408285801efece3f09d5ebd50b53fdd279def3e820834ff2bba98ad757302fd7509b75e1cbfd8756ebdca0e47f1792c62b183548c4c67112c4c548dcf5b2c0c05273593ca2e8c92d4419134fdf3f7f00dd63b076fe2d10c868c8af75f3513685a2105bd9220d7a46e04a4f5ea89e504200255fc12f7be44e6a786099f7770ac986ff3161ecbd1a1352c489d00b0bf9282ec51128e829651fe2443580b2ee84ecefa92275cc2262575f449db1ecac8a15188c9902d6c210737274f50fcf3862b0f2fdbc43993f40651296285fdf20b8e0f0895aa11e762120a8c40237f9f1ddd660f1204573a042f7c676c490a4018e44246e91902e1e968ecf8361d8a5f5bd96eb488085902934b9d45a1cb6626d2ef680f452b8cac7ffc30f5b1239c97e6d0581af3dd5c39d5122acba2419955d638450e4c87f39fbf905d85ff1b26751e8af6d3b9ef39bf469057b2b0abf7c5c4605713f4259c6c52ba981e545e1cce0ce0571e0006a023f835f6ded3db52934b614d5e609d93ac678fc1f65dd4131991671f312b9137dfc77f9c8ac6864ebdeec0408c719363f6d8c1b91e7b064d7d06a39fc863837868e98d7f62b582ee06381d0cbf73d27c3309426c665eaad84f0f7f40071bb8f98a32eef4b6f172dd836172fc1b23d8bc3538221c976e00052eff1e7bd7a041b749493a95940fe037cd4bacce457f925ae1b5313064e5418e04aa447f134ef3e8d94edac89ed3fe8ede2c2c3ac944ebf166b5f3a0e3db8905cb9194dd42dd0957f053fcd5c6fca4aaef7af190e21482d381b780eae9b390505d1f330d77ef26b93b33bb04337d15d55ecd90aa38eec8aca473ee1599d2f88a22adb5665053ee78a786959c49dbb8ba926d8de35179348d8e853fef65638a6973a7d0a433ab052808f83618b577765de98f4005c25f283c6a19314cc9bd10dffbaf3e270044ec1f08f4b6240c269ec0d64631503b6cafa379740f68e5e7e7a108b29a68168d88cad3a2d8a81bda029c1160a82a19e1baba291eec0829ac840084d82171aaddde7da6057fab6db48d9d478b97f3f14bde9a69cb18f0fab16e3d44ae9ecc6f7a10e14894b11a4648459ffc544c68d512ffca85680e780a9a010dc4643318cb59348c5b764d3f0596155a0ed62f5e2611789d1eafea98f7aa63f45ca5e8607ee06b643389d9fa9793e7f99be0313cfcc9aefc6d44ce46d5e094dd0f3c0811e26734a679a467b2b9ff26c714d82395e50398f12320aa69cb539323fcd96c600c4dd9f711411013df334fdfb25071ab4326832d4984f42065644c24db4321aaa8aaf5ce9ae85f8016808d8c30872504879227bf43ba5f840cf12d9b9d9cd40003ad6ff4201fbfe4f4fdd46529d0ef79cf330d6af09c688f4ed729d17dd51b26cd95dd5d8a64f2e703c4401a8ab79664e55df45f1f232b9bce851e67a0a7a8de01a63df81d16b5f7215a4abcd54115f3724643ea47f31b2b437304e9d693f35c4667ef4e0d092e70ffe3f84690342e1505fde479dc82c56a7eb1132e50dddfa0d871463d34e39142308867bb12a82e8a48121acdffa1be521884f16bf3b1acbcb3297e950da034d68ad4277a6f3a96e72a9dad18e376d39b62388e955462b0bbcebc7c4d473eaa45b4d27bf25bdd0376516141507c2299c5a83ff2e925e52c92267453538621efa214c6da452f6ec2bd53d8859fd1d5d02344bcb4887b88c1a7c9ecb18d0467b7d8f2c2234448d7325e2ff67cffaaf1e4c8903f6ef8a0a91ec2ae651c3b7d7d6694c49c7c8d537c3cf72589c2949db88b433c7143cb5041f13f69e5b2d2f1c179f33b2c6f83f93e3c316e1301e779578d08d084ad9c44b6b102661c536f1f7fb1ea3c0e614460e0b87842ecef001e398b734492948e0cbc486c1b159a158b8fb587c0255663b404d62a7679bd8403c2d3086037243972d5c0a9df5fd1e8bd2d32cc0d6c75bfa85817b45ddb036aecb3979ba01ac9f109f60684704b596a576b02bf9361f587878e6cdc3d438b8e2322d5781f9ff68a46761574eaede24f9154e001bb4be8c354f73a154d638ecdf4c5c93b05c7e503b53502221d2c2c468df98f72394a7b1ec64151f9306eaaa9a1cedb56a8a1dd786f74e6c2a6d77894821dec2572170d2d41c5cd9efc95ccbf789452bb4cde7cb776c2c974fd67f6babc760a913e2cbdcb2d45a1f4532e48aa58d4e0c717f330066fb54936b257ad7079cf39246c2941aae62c1b2edc25e8ed0f2e309606d0cf506a755ab64b71ab75ee6e9891c43ac63046332083a17bc24003fbea5856bf9433afc15d03a42549503cc700c65a3bc3cd87317db7c90dd746759434f795b36763ecbdcba773f7c55f8e4ddd554a7099b7d8586066f7b7e4602b1630d385adf4e9af4bb54f60d758178c05389933ad02981487a27d7bc06c3f88e7f61db3c07e66fd9fe04ef8dbf252191231fca311283bbcc7abddc0205317944ee3c419d1b35e0546fc13dca824d6420bc9a2d1cfefe91638008a3933ef6eac7204f973ac3c9a1ff590eea417fa18c358d2031679f5b730975e9f02b1ffbf42d97740fd557e8632c180bf0754b001d6851630afc2eb382b3c8d3c45f2de8116f1bc16787fd28873accd318eb3f996d52c0ffc967fa5ec69265ee2c2cae4cb15ccaab1d6ff49185ff170805cef47a7abd634c6aab002dc442cd53401ee17918a538e29e81d84ad3afe8964eaa45274793f805c2fe671953cc8374ed7ad6ef429d72a11c3c15e03dd7b2bd82b18ab871910ccb874b6d6ecdc0017377a27f5d1bc45315032ca8915e7e2bfb1ae92e5d8017f92fc09de01145a8c14bed005083c889b0f11fd2bb26ca119c87fd582304ce1e1e9fa2b4fcc37e46ad777c01183c906a75bd86ab0bb8458577c11a360d45ef0022bd31ab702fa6975489e7d5feb302666a4b37ff9794f44f9915c07c23988f3d102fe3ae56ee642106b4ec09a3411b704bcd316eb5bc0d297100688978f78832ded25687899d63c0e924be474b27a11f093022b2bd759a9a590fe09a5a0385e5a5ae06959b8d8bc0eb40c21693b3057be2df7d07f62d3bec343f7e926aab66f2a9b5eac1a77c60405fdef1cb604df8465813dee2700a7d2d4011d8b4f71eeb814cf66df0f8a450b37ee1369fd491e8528b7578aec8f769d67f34fe26a81765a3ed1790369b1517a1aa05f38cfb901ae661ac37142c7600781026312786d229391c6cb41dc5d4147d7eab3709334f0ab557ea223dad648348be52806d2f73f1cad06e89ff99ca23ca0f8bcc4c8af605411b7ff82763d8983a662ce80406c2fe9e47313ff63cca8bae5684a5dcf57e39cffaa04da5fa1e23e1a133aad07141f26465d6d737579868bafd4e702051f203a3d4d61768e99b2c7cfd4ecf0f7101945494d5e616b98a2a6aec4cdd6d7e4e5eaecf7fa1b203191a3b2cf0000000000000000000000000000000000000f21373e01fd2105004c48c2c47bf6fdbe05b51a7e7f9472f47549667a0ece36d27ad6ac520e979892110793b9b6345c535f6d27ac9d618240d049ea160be6af52d8c49bc8e14384798d0d8d92254284756277bc4d1f0da21b938091f881aeacee0b7e5811287b77c617bdd9c8ac0ce95835c1ae8dacab3fa714e5f82a9b6bc3206fb419de5b6d3ee90f8a1851cad0026f24902bb6e3041af95b016242e8f4b223f7c757bede153eb75e0e3c4d02d066c0931db33581692b36df41b1914436a6fb43d5c65c24f5eb894b45d1f6dab99acd784d3b272a4d2f351ee38ab4b2eafc82f0bdb285630c605bf4b024be618a2d1725642a281b9a28775aeb15668564b2343549edc0907a2c6973238899f24ac862a3bed01ab2d37056ea0d31fc1247347f71bb641cb4a0d2b9bf074b364eb228f5f7419ad0734f065ae47340f6ad9645ab9804238c3288d3b1b4bdbeae2cd2682119d261f7db94767775a617d2496ec2dd4d002c7becf35befedd699bfc8ae1dcca32a71aed3eb94d60249996622e82824fcc134f3931dcd3c22220565673d58ef5b68b3e0dbe676807252925a7907e70c813615662b5de1b47b0cf738b25c094912dbcd0f115696cd36bc03fa3b27c66173c00753393a1b99324ffe08396911c84a0f5b27ebbd9d5709301e07ca8ac616bff4c621963dcdd26a8cbb28e913391f5b96da9b7986b016ebb0ce09c5e4788cca5b35c6d0c769aaa9ed59446fccd703b98381ceb352b111d83e731136e1c8b392c7f8e58d7aa71057248d8594b83de7ca4d3a008962f273ca303762996a5854000fd2080cf47a9f637f74f6a0d0510bcc96db8b6722620236a08c36d812ad3dd4d2393ed950beda1c1bad1db044509df69a2d9efa15fa48ea48a0c09aee8ed7767c0ff181c926fd0d1aa69afd39eda5b45d6d953935b26b1595d3bcd2bfa6e97a3c519f09cd62c2855e99b61fe891e88b61fb3dd3e74bef1e81fb60d2b08944017cba3997d7f26671ee665ac5ef3c7be2edaa47e678d567b731db3b3e5d0fd22b28508696e4278d6465c5df509d76c8aaa1b6770c649db70fed85d2065b0b7526bd93fa9570959024f43170965ac34da3311cc6090f2432484a4dd8b0d8023160e850a90593f617f3436ec317e80eaaa4e5b94dbaef1adf6fb0a52fac881ab86c6d46bd1aafdbe409578337296ad0d5827106714d4a5bcb7e6567a8d4d0947ef4bd5b617c7b2d87943e72ec6d8681aec86a8d3160c05b16ff5fbb77c1347aad84cd713e4b96489bc14c94a9a2b6003f17ff785005c4ee229c9b9f4c59cef01079d20fa55b5f539e20cf46cd1ca59869df9bce362d46ce7777a1f51c04c18406c308cce65a440c0b7276729b94c1b5ee2445d98ebbd4c6ea3fa05c81c36ce92f94e5de5682a92ad341d6cafaf73f08418ef31933b52b439c21a25c3c64cfed32ab309d4a3602cbf2d798749d09c7098700a10d3cbb75659338933b44d7914b942cd995fa2852c2664ea273c566e5a13dcfd09413ed9b7bd5ba85d60d6c9afa6a5dfcffa44d92cc5581edf01550b9b0489ad9465aef9647de56001f08524db9bf2179562ed251988905f41f5e5d44c6223fb3570077eb0e47125352f7e58f96db9d45be72dfaca93510962fe29c4b89d7d3b8a7b5bd0421a3cdb74be384d9fb68ef7777a3e8c736f328323a6097bba8582f4d0d0b87c73e7438831e1647555313bdfe5420ea170e6ec2cf8e00e51413efa373b561842b3eacdfe9c1e13069513b360f6f309ef50d5c6af4335cc9fee0c3dc0a3c7af6c15cd3792ef4e3d3078662e79cf3f3d2dae9849e254ee35cb118a237e61becaba77ac39502952248298d64acd7fa8d96ab83a780000000",
  "txid": "d831085b35f8b572c7609d1ff8d1d035592c82219ea26ea9fdbd7eca6fbfe0bb",
  "hash": "f7bcdc2df1c31c941ae08cec942180a567e26c5309c07014332f67b132bf483e",
  "size": 5085,
  "vsize": 2278,
  "version": 1,
  "locktime": 128,
  "vin": [
    {
      "txid": "35a211210063814a8d3763eaa6e878db31f65a4a33264fc76d5cc20a0bf0a1e4",
      "vout": 0,
      "scriptSig": {
        "asm": "",
        "hex": ""
      },
      "txinwitness": [
        "b75e1cbfd8756ebdca0e47f1792c62b183548c4c67112c4c548dcf5b2c0c05273593ca2e8c92d4419134fdf3f7f00dd63b076fe2d10c868c8af75f3513685a2105bd9220d7a46e04a4f5ea89e504200255fc12f7be44e6a786099f7770ac986ff3161ecbd1a1352c489d00b0bf9282ec51128e829651fe2443580b2ee84ecefa92275cc2262575f449db1ecac8a15188c9902d6c210737274f50fcf3862b0f2fdbc43993f40651296285fdf20b8e0f0895aa11e762120a8c40237f9f1ddd660f1204573a042f7c676c490a4018e44246e91902e1e968ecf8361d8a5f5bd96eb488085902934b9d45a1cb6626d2ef680f452b8cac7ffc30f5b1239c97e6d0581af3dd5c39d5122acba2419955d638450e4c87f39fbf905d85ff1b26751e8af6d3b9ef39bf469057b2b0abf7c5c4605713f4259c6c52ba981e545e1cce0ce0571e0006a023f835f6ded3db52934b614d5e609d93ac678fc1f65dd4131991671f312b9137dfc77f9c8ac6864ebdeec0408c719363f6d8c1b91e7b064d7d06a39fc863837868e98d7f62b582ee06381d0cbf73d27c3309426c665eaad84f0f7f40071bb8f98a32eef4b6f172dd836172fc1b23d8bc3538221c976e00052eff1e7bd7a041b749493a95940fe037cd4bacce457f925ae1b5313064e5418e04aa447f134ef3e8d94edac89ed3fe8ede2c2c3ac944ebf166b5f3a0e3db8905cb9194dd42dd0957f053fcd5c6fca4aaef7af190e21482d381b780eae9b390505d1f330d77ef26b93b33bb04337d15d55ecd90aa38eec8aca473ee1599d2f88a22adb5665053ee78a786959c49dbb8ba926d8de35179348d8e853fef65638a6973a7d0a433ab052808f83618b577765de98f4005c25f283c6a19314cc9bd10dffbaf3e270044ec1f08f4b6240c269ec0d64631503b6cafa379740f68e5e7e7a108b29a68168d88cad3a2d8a81bda029c1160a82a19e1baba291eec0829ac840084d82171aaddde7da6057fab6db48d9d478b97f3f14bde9a69cb18f0fab16e3d44ae9ecc6f7a10e14894b11a4648459ffc544c68d512ffca85680e780a9a010dc4643318cb59348c5b764d3f0596155a0ed62f5e2611789d1eafea98f7aa63f45ca5e8607ee06b643389d9fa9793e7f99be0313cfcc9aefc6d44ce46d5e094dd0f3c0811e26734a679a467b2b9ff26c714d82395e50398f12320aa69cb539323fcd96c600c4dd9f711411013df334fdfb25071ab4326832d4984f42065644c24db4321aaa8aaf5ce9ae85f8016808d8c30872504879227bf43ba5f840cf12d9b9d9cd40003ad6ff4201fbfe4f4fdd46529d0ef79cf330d6af09c688f4ed729d17dd51b26cd95dd5d8a64f2e703c4401a8ab79664e55df45f1f232b9bce851e67a0a7a8de01a63df81d16b5f7215a4abcd54115f3724643ea47f31b2b437304e9d693f35c4667ef4e0d092e70ffe3f84690342e1505fde479dc82c56a7eb1132e50dddfa0d871463d34e39142308867bb12a82e8a48121acdffa1be521884f16bf3b1acbcb3297e950da034d68ad4277a6f3a96e72a9dad18e376d39b62388e955462b0bbcebc7c4d473eaa45b4d27bf25bdd0376516141507c2299c5a83ff2e925e52c92267453538621efa214c6da452f6ec2bd53d8859fd1d5d02344bcb4887b88c1a7c9ecb18d0467b7d8f2c2234448d7325e2ff67cffaaf1e4c8903f6ef8a0a91ec2ae651c3b7d7d6694c49c7c8d537c3cf72589c2949db88b433c7143cb5041f13f69e5b2d2f1c179f33b2c6f83f93e3c316e1301e779578d08d084ad9c44b6b102661c536f1f7fb1ea3c0e614460e0b87842ecef001e398b734492948e0cbc486c1b159a158b8fb587c0255663b404d62a7679bd8403c2d3086037243972d5c0a9df5fd1e8bd2d32cc0d6c75bfa85817b45ddb036aecb3979ba01ac9f109f60684704b596a576b02bf9361f587878e6cdc3d438b8e2322d5781f9ff68a46761574eaede24f9154e001bb4be8c354f73a154d638ecdf4c5c93b05c7e503b53502221d2c2c468df98f72394a7b1ec64151f9306eaaa9a1cedb56a8a1dd786f74e6c2a6d77894821dec2572170d2d41c5cd9efc95ccbf789452bb4cde7cb776c2c974fd67f6babc760a913e2cbdcb2d45a1f4532e48aa58d4e0c717f330066fb54936b257ad7079cf39246c2941aae62c1b2edc25e8ed0f2e309606d0cf506a755ab64b71ab75ee6e9891c43ac63046332083a17bc24003fbea5856bf9433afc15d03a42549503cc700c65a3bc3cd87317db7c90dd746759434f795b36763ecbdcba773f7c55f8e4ddd554a7099b7d8586066f7b7e4602b1630d385adf4e9af4bb54f60d758178c05389933ad02981487a27d7bc06c3f88e7f61db3c07e66fd9fe04ef8dbf252191231fca311283bbcc7abddc0205317944ee3c419d1b35e0546fc13dca824d6420bc9a2d1cfefe91638008a3933ef6eac7204f973ac3c9a1ff590eea417fa18c358d2031679f5b730975e9f02b1ffbf42d97740fd557e8632c180bf0754b001d6851630afc2eb382b3c8d3c45f2de8116f1bc16787fd28873accd318eb3f996d52c0ffc967fa5ec69265ee2c2cae4cb15ccaab1d6ff49185ff170805cef47a7abd634c6aab002dc442cd53401ee17918a538e29e81d84ad3afe8964eaa45274793f805c2fe671953cc8374ed7ad6ef429d72a11c3c15e03dd7b2bd82b18ab871910ccb874b6d6ecdc0017377a27f5d1bc45315032ca8915e7e2bfb1ae92e5d8017f92fc09de01145a8c14bed005083c889b0f11fd2bb26ca119c87fd582304ce1e1e9fa2b4fcc37e46ad777c01183c906a75bd86ab0bb8458577c11a360d45ef0022bd31ab702fa6975489e7d5feb302666a4b37ff9794f44f9915c07c23988f3d102fe3ae56ee642106b4ec09a3411b704bcd316eb5bc0d297100688978f78832ded25687899d63c0e924be474b27a11f093022b2bd759a9a590fe09a5a0385e5a5ae06959b8d8bc0eb40c21693b3057be2df7d07f62d3bec343f7e926aab66f2a9b5eac1a77c60405fdef1cb604df8465813dee2700a7d2d4011d8b4f71eeb814cf66df0f8a450b37ee1369fd491e8528b7578aec8f769d67f34fe26a81765a3ed1790369b1517a1aa05f38cfb901ae661ac37142c7600781026312786d229391c6cb41dc5d4147d7eab3709334f0ab557ea223dad648348be52806d2f73f1cad06e89ff99ca23ca0f8bcc4c8af605411b7ff82763d8983a662ce80406c2fe9e47313ff63cca8bae5684a5dcf57e39cffaa04da5fa1e23e1a133aad07141f26465d6d737579868bafd4e702051f203a3d4d61768e99b2c7cfd4ecf0f7101945494d5e616b98a2a6aec4cdd6d7e4e5eaecf7fa1b203191a3b2cf0000000000000000000000000000000000000f21373e01",
        "004c48c2c47bf6fdbe05b51a7e7f9472f47549667a0ece36d27ad6ac520e979892110793b9b6345c535f6d27ac9d618240d049ea160be6af52d8c49bc8e14384798d0d8d92254284756277bc4d1f0da21b938091f881aeacee0b7e5811287b77c617bdd9c8ac0ce95835c1ae8dacab3fa714e5f82a9b6bc3206fb419de5b6d3ee90f8a1851cad0026f24902bb6e3041af95b016242e8f4b223f7c757bede153eb75e0e3c4d02d066c0931db33581692b36df41b1914436a6fb43d5c65c24f5eb894b45d1f6dab99acd784d3b272a4d2f351ee38ab4b2eafc82f0bdb285630c605bf4b024be618a2d1725642a281b9a28775aeb15668564b2343549edc0907a2c6973238899f24ac862a3bed01ab2d37056ea0d31fc1247347f71bb641cb4a0d2b9bf074b364eb228f5f7419ad0734f065ae47340f6ad9645ab9804238c3288d3b1b4bdbeae2cd2682119d261f7db94767775a617d2496ec2dd4d002c7becf35befedd699bfc8ae1dcca32a71aed3eb94d60249996622e82824fcc134f3931dcd3c22220565673d58ef5b68b3e0dbe676807252925a7907e70c813615662b5de1b47b0cf738b25c094912dbcd0f115696cd36bc03fa3b27c66173c00753393a1b99324ffe08396911c84a0f5b27ebbd9d5709301e07ca8ac616bff4c621963dcdd26a8cbb28e913391f5b96da9b7986b016ebb0ce09c5e4788cca5b35c6d0c769aaa9ed59446fccd703b98381ceb352b111d83e731136e1c8b392c7f8e58d7aa71057248d8594b83de7ca4d3a008962f273ca303762996a5854000fd2080cf47a9f637f74f6a0d0510bcc96db8b6722620236a08c36d812ad3dd4d2393ed950beda1c1bad1db044509df69a2d9efa15fa48ea48a0c09aee8ed7767c0ff181c926fd0d1aa69afd39eda5b45d6d953935b26b1595d3bcd2bfa6e97a3c519f09cd62c2855e99b61fe891e88b61fb3dd3e74bef1e81fb60d2b08944017cba3997d7f26671ee665ac5ef3c7be2edaa47e678d567b731db3b3e5d0fd22b28508696e4278d6465c5df509d76c8aaa1b6770c649db70fed85d2065b0b7526bd93fa9570959024f43170965ac34da3311cc6090f2432484a4dd8b0d8023160e850a90593f617f3436ec317e80eaaa4e5b94dbaef1adf6fb0a52fac881ab86c6d46bd1aafdbe409578337296ad0d5827106714d4a5bcb7e6567a8d4d0947ef4bd5b617c7b2d87943e72ec6d8681aec86a8d3160c05b16ff5fbb77c1347aad84cd713e4b96489bc14c94a9a2b6003f17ff785005c4ee229c9b9f4c59cef01079d20fa55b5f539e20cf46cd1ca59869df9bce362d46ce7777a1f51c04c18406c308cce65a440c0b7276729b94c1b5ee2445d98ebbd4c6ea3fa05c81c36ce92f94e5de5682a92ad341d6cafaf73f08418ef31933b52b439c21a25c3c64cfed32ab309d4a3602cbf2d798749d09c7098700a10d3cbb75659338933b44d7914b942cd995fa2852c2664ea273c566e5a13dcfd09413ed9b7bd5ba85d60d6c9afa6a5dfcffa44d92cc5581edf01550b9b0489ad9465aef9647de56001f08524db9bf2179562ed251988905f41f5e5d44c6223fb3570077eb0e47125352f7e58f96db9d45be72dfaca93510962fe29c4b89d7d3b8a7b5bd0421a3cdb74be384d9fb68ef7777a3e8c736f328323a6097bba8582f4d0d0b87c73e7438831e1647555313bdfe5420ea170e6ec2cf8e00e51413efa373b561842b3eacdfe9c1e13069513b360f6f309ef50d5c6af4335cc9fee0c3dc0a3c7af6c15cd3792ef4e3d3078662e79cf3f3d2dae9849e254ee35cb118a237e61becaba77ac39502952248298d64acd7fa8d96ab83a7"
      ],
      "sequence": 4294967294
    }
  ],
  "vout": [
    {
      "value": 499969.493,
      "n": 0,
      "scriptPubKey": {
        "asm": "1 e8bf87cb80dfc43b9d0639f039ad982efdf8779ae08c6897765891ff55ecb2fa",
        "hex": "5120e8bf87cb80dfc43b9d0639f039ad982efdf8779ae08c6897765891ff55ecb2fa",
        "reqSigs": 1,
        "type": "witness_v1_scripthash",
        "addresses": [
          "3QJmnh"
        ]
      }
    },
    {
      "value": 1.0,
      "n": 1,
      "scriptPubKey": {
        "asm": "OP_RETURN d9d2512e6d904a1153ef7ed6cf9b411470475777f6e8ec28832791d72cdd2e79 446edd2a0123867c87bfbf72bb41ae009edb5f73a267fbeb787ea4612b1bdbda644efd0a2103a65ca79f9f529b618e20befb7f538247dbcb585e84410b3bfbfa042e9d6a4163c63cc7ffff32fb01ee40de9b1f33e227bbab383ee4216b5b9b9a240ebd4a6143e61ce7dfdf12db21ce60febb3f13c2079b8b181ec4014b7bbbbac4ee5daa81a306fc073f3ff23bc12e801e5bdff322e77b6bf8fe24e1ab9b5b5ae4ce7d8aa18326dc271f1fd21be10ea03e7bffd302c75b4bd8de04c18bbb7b7a84ae1deac1e346bc477f7fb27b816ec05e1b9fb362a73b2bb8be64a1ebdb1b1aa48e3dcae1c3669c675f5f925ba14ee07e3bbf9342871b0b989e4481cbfb3b3a446edd2a0123867c87bfbf72bb41ae009edb5f73a267fbeb787ea4612b1bdbda644efd0a2103a65ca79f9f529b618e20befb7f538247dbcb585e84410b3bfbfa042e9d6a4163c63cc7ffff32fb01ee40de9b1f33e227bbab383ee4216b5b9b9a240ebd4a6143e61ce7dfdf12db21ce60febb3f13c2079b8b181ec4014b7bbbbac4ee5daa81a306fc073f3ff23bc12e801e5bdff322e77b6bf8fe24e1ab9b5b5ae4ce7d8aa18326dc271f1fd21be10ea03e7bffd302c75b4bd8de04c18bbb7b7a84ae1deac1e346bc477f7fb27b816ec05e1b9fb362a73b2bb8be64a1ebdb1b1aa48e3dcae1c3669c675f5f925ba14ee07e3bbf9342871b0b989e4481cbfb3b3a446edd2a0123867c87bfbf72bb41ae009edb5f73a267fbeb787ea4612b1bdbda644efd0a2103a65ca79f9f529b618e20befb7f538247dbcb585e84410b3bfbfa042e9d6a4163c63cc7ffff32fb01ee40de9b1f33e227bbab383ee4216b5b9b9a240ebd4a6143e61ce7dfdf12db21ce60febb3f13c2079b8b181ec4014b7bbbbac4ee5daa81a306fc073f3ff23bc12e801e5bdff322e77b6bf8fe24e1ab9b5b5ae4ce7d8aa18326dc271f1fd21be10ea03e7bffd302c75b4bd8de04c18bbb7b7a84ae1deac1e346bc477f7fb27b816ec05e1b9fb362a73b2bb8be64a1ebdb1b1aa48e3dcae1c3669c675f5f925ba14ee07e3bbf9342871b0b989e4481cbfb3b3a446edd2a0123867c87bfbf72bb41ae009edb5f73a267fbeb787ea4612b1bdbda644efd0a2103a65ca79f9f529b618e20befb7f538247dbcb585e84410b3bfbfa042e9d6a4163c63cc7ffff32fb01ee40de9b1f33e227bbab383ee4216b5b9b9a240ebd4a6143e61ce7dfdf12db21ce60febb3f13c2079b8b181ec4014b7bbbbac4ee5daa81a306fc073f3ff23bc12e801e5bdff322e77b6bf8fe24e1ab9b5b5ae4ce7d8aa18326dc271f1fd21be10ea03e7bffd302c75b4bd8de04c18bbb7b7a84ae1deac1e346bc477f7fb27b816ec05e1b9fb362a73b2bb8be64a1ebdb1b1aa48e3dcae1c3669c675f5f925ba14ee07e3bbf9342871b0b989e4481cbfb3b3a446edd2a0123867c87bfbf72bb41ae009edb5f73a267fbeb787ea4612b1bdbda644efd0a2103a65ca79f9f529b618e20befb7f538247dbcb585e84410b3bfbfa042e9d6a4163c63cc7ffff32fb01ee40de9b1f33e227bbab383ee4216b5b9b9a240ebd4a6143e61ce7dfdf12db21ce60febb3f13c2079b8b181ec4014b7bbbbac4ee5daa81a306fc073f3ff23bc12e804a2aa408285801efece3f09d5ebd50b53fdd279def3e820834ff2bba98ad7573",
        "hex": "6a20d9d2512e6d904a1153ef7ed6cf9b411470475777f6e8ec28832791d72cdd2e794db004446edd2a0123867c87bfbf72bb41ae009edb5f73a267fbeb787ea4612b1bdbda644efd0a2103a65ca79f9f529b618e20befb7f538247dbcb585e84410b3bfbfa042e9d6a4163c63cc7ffff32fb01ee40de9b1f33e227bbab383ee4216b5b9b9a240ebd4a6143e61ce7dfdf12db21ce60febb3f13c2079b8b181ec4014b7bbbbac4ee5daa81a306fc073f3ff23bc12e801e5bdff322e77b6bf8fe24e1ab9b5b5ae4ce7d8aa18326dc271f1fd21be10ea03e7bffd302c75b4bd8de04c18bbb7b7a84ae1deac1e346bc477f7fb27b816ec05e1b9fb362a73b2bb8be64a1ebdb1b1aa48e3dcae1c3669c675f5f925ba14ee07e3bbf9342871b0b989e4481cbfb3b3a446edd2a0123867c87bfbf72bb41ae009edb5f73a267fbeb787ea4612b1bdbda644efd0a2103a65ca79f9f529b618e20befb7f538247dbcb585e84410b3bfbfa042e9d6a4163c63cc7ffff32fb01ee40de9b1f33e227bbab383ee4216b5b9b9a240ebd4a6143e61ce7dfdf12db21ce60febb3f13c2079b8b181ec4014b7bbbbac4ee5daa81a306fc073f3ff23bc12e801e5bdff322e77b6bf8fe24e1ab9b5b5ae4ce7d8aa18326dc271f1fd21be10ea03e7bffd302c75b4bd8de04c18bbb7b7a84ae1deac1e346bc477f7fb27b816ec05e1b9fb362a73b2bb8be64a1ebdb1b1aa48e3dcae1c3669c675f5f925ba14ee07e3bbf9342871b0b989e4481cbfb3b3a446edd2a0123867c87bfbf72bb41ae009edb5f73a267fbeb787ea4612b1bdbda644efd0a2103a65ca79f9f529b618e20befb7f538247dbcb585e84410b3bfbfa042e9d6a4163c63cc7ffff32fb01ee40de9b1f33e227bbab383ee4216b5b9b9a240ebd4a6143e61ce7dfdf12db21ce60febb3f13c2079b8b181ec4014b7bbbbac4ee5daa81a306fc073f3ff23bc12e801e5bdff322e77b6bf8fe24e1ab9b5b5ae4ce7d8aa18326dc271f1fd21be10ea03e7bffd302c75b4bd8de04c18bbb7b7a84ae1deac1e346bc477f7fb27b816ec05e1b9fb362a73b2bb8be64a1ebdb1b1aa48e3dcae1c3669c675f5f925ba14ee07e3bbf9342871b0b989e4481cbfb3b3a446edd2a0123867c87bfbf72bb41ae009edb5f73a267fbeb787ea4612b1bdbda644efd0a2103a65ca79f9f529b618e20befb7f538247dbcb585e84410b3bfbfa042e9d6a4163c63cc7ffff32fb01ee40de9b1f33e227bbab383ee4216b5b9b9a240ebd4a6143e61ce7dfdf12db21ce60febb3f13c2079b8b181ec4014b7bbbbac4ee5daa81a306fc073f3ff23bc12e801e5bdff322e77b6bf8fe24e1ab9b5b5ae4ce7d8aa18326dc271f1fd21be10ea03e7bffd302c75b4bd8de04c18bbb7b7a84ae1deac1e346bc477f7fb27b816ec05e1b9fb362a73b2bb8be64a1ebdb1b1aa48e3dcae1c3669c675f5f925ba14ee07e3bbf9342871b0b989e4481cbfb3b3a446edd2a0123867c87bfbf72bb41ae009edb5f73a267fbeb787ea4612b1bdbda644efd0a2103a65ca79f9f529b618e20befb7f538247dbcb585e84410b3bfbfa042e9d6a4163c63cc7ffff32fb01ee40de9b1f33e227bbab383ee4216b5b9b9a240ebd4a6143e61ce7dfdf12db21ce60febb3f13c2079b8b181ec4014b7bbbbac4ee5daa81a306fc073f3ff23bc12e804a2aa408285801efece3f09d5ebd50b53fdd279def3e820834ff2bba98ad7573",
        "type": "nulldata"
      }
    }
  ],
  "blockhash": "f0ff1fbaae405cadeb51abb379c93a956cf666ff613992ee95c2f945c1780bd2",
  "confirmations": 1,
  "time": 1764181685,
  "blocktime": 1764181685
}