{
  "hex": "01000000000101712ec32f06cab5c2eee4d180bab0c3be5efd4eeb7ab710d43c747978cf848bc00000000000feffffff0200e1f50500000000fdd5046a200ae702f6ea35ba694051323d096d2a42dbdbc9a1a99a8406d812429fa5ccc8d64db004fea808c6e9784c7f58b0b0e49f63f84ae330a736e7119372b4bc95b7ee24d388de8828e6c9586c5f789090c4bf43d86ac3108716c731b352949cb597ce04f3a8bee84886a9380c3f18f0f0a4df23b80aa370e776a751d332f4fcd5f7ae6493c89ec868a689182c1f38d0d084ff03982a8350c7568771f312d4dcf5d78e44b3e87e28884669f8ccffd83030641fe378ca63b027b6679113f2343c15376ea453085e08a86649d8ecdff81010443fc358ea4390079647b133d2141c35174e8473283e68c80629b88cbf987070245fa3388a23f067f627d153b2747c55772ee413481e48e8260998ac9fb85050047f8318aa03d047d607f17392545c75570ec43368fea808c6e9784c7f58b0b0e49f63f84ae330a736e7119372b4bc95b7ee24d388de8828e6c9586c5f789090c4bf43d86ac3108716c731b352949cb597ce04f3a8bee84886a9380c3f18f0f0a4df23b80aa370e776a751d332f4fcd5f7ae6493c89ec868a689182c1f38d0d084ff03982a8350c7568771f312d4dcf5d78e44b3e87e28884669f8ccffd83030641fe378ca63b027b6679113f2343c15376ea453085e08a86649d8ecdff81010443fc358ea4390079647b133d2141c35174e8473283e68c80629b88cbf987070245fa3388a23f067f627d153b2747c55772ee413481e48e8260998ac9fb85050047f8318aa03d047d607f17392545c75570ec43368fea808c6e9784c7f58b0b0e49f63f84ae330a736e7119372b4bc95b7ee24d388de8828e6c9586c5f789090c4bf43d86ac3108716c731b352949cb597ce04f3a8bee84886a9380c3f18f0f0a4df23b80aa370e776a751d332f4fcd5f7ae6493c89ec868a689182c1f38d0d084ff03982a8350c7568771f312d4dcf5d78e44b3e87e28884669f8ccffd83030641fe378ca63b027b6679113f2343c15376ea453085e08a86649d8ecdff81010443fc358ea4390079647b133d2141c35174e8473283e68c80629b88cbf987070245fa3388a23f067f627d153b2747c55772ee413481e48e8260998ac9fb85050047f8318aa03d047d607f17392545c75570ec43368fea808c6e9784c7f58b0b0e49f63f84ae330a736e7119372b4bc95b7ee24d388de8828e6c9586c5f789090c4bf43d86ac3108716c731b352949cb597ce04f3a8bee84886a9380c3f18f0f0a4df23b80aa370e776a751d332f4fcd5f7ae6493c89ec868a689182c1f38d0d084ff03982a8350c7568771f312d4dcf5d78e44b3e87e28884669f8ccffd83030641fe378ca63b027b6679113f2343c15376ea453085e08a86649d8ecdff81010443fc358ea4390079647b133d2141c35174e8473283e68c80629b88cbf987070245fa3388a23f067f627d153b2747c55772ee413481e48e8260998ac9fb85050047f8318aa03d047d607f17392545c75570ec43368fea808c6e9784c7f58b0b0e49f63f84ae330a736e7119372b4bc95b7ee24d388de8828e6c9586c5f789090c4bf43d86ac3108716c731b352949cb597ce04f3a8bee84886a9380c3f18f0f0a4df23b80aa370e776a751d332f4fcd5f7ae6493c89ec868a689182c1f38d0d084ff03982a8350c7568771f312d4dcf5d78e44b3e87e28884669f8ccffd83030641fe378cac7d340718456d34501ab2de17c36664a8add0ad3e7dc233b3600986ec7987651407886de782d0000225120db8be72fa51caaf448381d3205d1ec411d4f87ecf92f84d98caeef5ab5013d4d02fd7509a1f78c85abba8d15f3e9e474f85a115b394fb97051d5140cdee31873815750944750c8c8e36e3fca49ef6c792e10d133324737b897ecd2e70ab0ecf838c045b1e17851525e6e1dcc8d795bf7bd335c93dd25bc2df63ae051221b3b936860382e99f63a8fd48d73de67c4d940408138166c7b46783ddcc0a82eab999f6f2de28119d6e9282a39a49ee6304660afcab6673af4c25a657c24c13bcf77c2b7c85bbea8d7409b4e39d0131e9f300da6f30b65052f06a60d0d6bf1ec07cb9bbc967f498c145a35a524529a3fad538578ff3785d0ea4b099fea960d9665981fd0ee591ccd32b82f5ea4afc43db2513ca34344668aab47ead4a38570ff72f4f3c54cb877729f98b2bf8c2b1792a5aa39ddb317e8b538471ef20267bb8f66569464106ed90cc1ae8854ff470028008f8b227634198310a86bf60d66a97e2473bcb1b93458dc3a006803e5baeff7626446f28f0aaacb5a07ccf69deb15bccb4e7315d3fb4feefb25b4dd86a2313222ab7ab7e80b34bdc808c31e95e18266a28f9744827812b140e557e55a6f51af45314c83fcb54e7e0144e0d8845b870ca697be2f05ea0f90f9994fba73778a5f3746a9087d5b7a47ce70f8425c5fef17f1b499687d8c50bc715298c0353781bac522e14d36291804b3a8544aeae60ca9d618fc83a1ee10d1e404788079cd65ff3ee684ed320d854e65ab50f4806055084f44bc82ededab6a9b7dca2d8e04ec2a892e7b99492e3a7376c11e8fdb3fd1872c1edc181538b7229fbcd7d37b4bcd79185ad56f58ca4e855497b954658b567aeaa6ca6bca53d1401c0265fcb22f5c498b240e4ad229cc67d5afd7f20e1153dfb97201cbdde8b8442cd6b7d278bdbaa55853c703622cc297c00f4fdd94de72bad084fa21f797736082304e25fb9aedbec0bfb2da6ef08f3c57c454b549ce7dbaa2de27dc86b3677aa88adfab034e68b8dc54882eeafbceef91e1c7af0d7d30ec6695bede6eec2869eba5f72b86eacf66c3751457b0c0e918036fe65a01038154c1850cc34e0578c302e9544ce917296cd091270c760e7c16ce58c54d8296e001e6e5aa69795398d993954137dd8922260a1849f0db9a28652799c25045ab96ba233c98e41cd4add22808f200a8774819e8552dd5b53e384c8f348eb5636c5773523caf11890f66853a3d0bb310761fddca5aca4e06b143b5f86e2229b78122be88a13bbec58ffae11b17fa90877d0e38e4299a7eb6bf2c539ba666de03347de915726fc1651b5dab1f36a0295021535192008a55060e8b1354065a6da39cde86ebfed268aa4d01defb66c69705c60330e6d33c65a55ba32578c2f2ebee64a0ad9a2c58ddf797eca3d12ebfee7d103ef74ac168755927a1079522a7521f2d121e2e9d588920a8324ad488272d37fce2cb78eeb8084b3ae676179861cd8520a97287a0dc1cc832771c0563529a78c62c503295d5fbb9cb196297ff431cf8c2601bf1ff1c03414f90ac1427eb516c45e4e8e68ebd907ae72a295a59351ced0477ac6c7f3e9fced5afa96356dd78d2a7b0ea3a44d5165c22b8a1a8ed07493acab289cbcb8bb90c5e6aa6103df4a472a0a8629214659f1842881df1b57feeae21916006cd2c08dd1a258b3d32579608f4136a3db45189f3cde7d9b521bdf8e192ba5c288f9ca1eaf4cec4d7bf38a4eda0029a7cc9c683f2d94bfd44575ccc4873e9c626dec470eb7b24dfa117719d5714057f830497fa1f871166eacd0db60876a744ef34206cd5919500185d62e4f0acfb7bfc27a2195b8d34dc2fbfdbb934d7d94c6f4ec852999ad67c0b855ee4cb9c10d7a01aa891a2ff1c27f47e585737c8aadd29d5669a210fb5aeff3a191cef4a34865c551aa8a65422ab12cbb3410090aa570d45c59344550410b2c8d263c718a9823ca3cd8c4d089e4bc27ccee41c759320f285420e39f06f96e03dd9a77d818fb5a3004cb3fd8597aee13b0c68e301947d86e81ec26af33fb85fc58e6b9bd26672f52b3df4da2d40c79d63242d81823b34aaea104773076c9657d5a7e23b31e251ececee1bad1585c38969eff71adbce992f097440bf793ee5004d0d5b2e859afe8fb54735694677d94ab62b83d3edae8ff8d853b125443f82446d62375b9d6ad0bd40d9f2caa26c8d03089d2e0eceb61a7cabeef9cf372ebf63413dc6f1fe2c3570e6c27fae1427bcda5b0273f5d5cd42445d16c2cab2a859ba14ffb1d4837ce1209bd58984e9e291e97f1d824ef5ba3104bda755c7f5975b598c5a5904ca38c6c97938b14d80ccefb05986369aa113e7a090d305059cadca5c8eac57761e1767ae2710a479c95528ce22c90910e117bcf5965c2840dc5561e2cfa0bb2c1819106a046ac11bb6c50d439f9d6911e7fb274f4914c4b2074ac11a39428ed05a7553aa28cc02bb422d0f69eb8b31e529171e906df9c71039cf35c40812336667203cd389f003dbcbd57cc1c5e3392074783400a429755ef566fb0141824ba34c0026f1a842f1fc98050c9bdbaf396ac9d6540b84ca36e22947c0e5f60d8ac366ac427b0a46628cd86c53970ad669ab0a60da0625ba0bd76bacf792ca4d01e8ad30db60d3cabb1cd026b9bd23e46040ddf4f338e0a6fe55ff34ed498d29f636995e77a52f2dbaddefa8aba8b33839ececbadb6d45a49cac74139600216b6f1983eecce9b16d9dea615e6fcd5ca347a0069dc75d0f1c7d5f19c4e1fd773f95a8b1656e2731fed1a87744690843eea67f031cbc19713ccb528db52eeb1a0038d6a4817072568716b8f52020ccb34d0a7749bdfc25623a03351cf7f7bfb6c31373100d611e1e1b733096fac5388d265199e13686f4b218b21e801e68ce5298d98ef244de608d228f49c1918d51875f422ee8d5edfe1d64397b7a71c85bd38f9e69a01b60f2943bd5a3663f3a760f6a933cde41e5952f5fb28a89a0538f6a6b608b254b245729ab9038400991cffc7c891b563765c5a06aeed202a76bad9d358212779cd91d76f300e5693daeff21fa7c4884691b44a3d39b84977475956a4595584f868711bc71f90cdd89a0a0a19456ad7d4262eff5799733d4d87966a4c1ed348fcbaa2b09699d7315ce1b1a532879304f4f3d7253693b5b0ebb0ba887920041df81e4502ddc10ee95a644f41abb49cb1168ca59d7a53dcca1b2c9f475437ba493bb81ee0f0ef8fcd7f00cbef56b7c61bc547058606b9567797f2d9b4d635b94a1c8192ca20581c6940631aa028a26dff32be3fc4135df3d0001d94726e37aae849b6014a5aa506799e6f2f4fb4514cc6d15602d3b592a4385fc1019383f4b6b8790b1bcbfd5dbf0fd1a2032828a8f90959dabc3c9ccced5daf2f5061f303e4b4e565e8eabaeafc5ced7f0f1fe01060f212c3d5658598485898bc8d600000000000000000000000000000f21334201fd210500241b61be9c78c497b87ad7e79441fdfd960129569fc1850ae5521c02e2f69066c3c40095442616889eb4e40836c4a4f76ecc528cc5e99fdafa7a2cfb190a9b123f93e7e19cb52d701dff26b21060cfe47991e585d147743fb5dc040abec51e2920a8304ac9785cde09b4fb34cff19d98d0bc3dd17183e4fb26d21ee24f84b70e72b07577bd745c8b573a58bd4b6636d6580bac681b933e73c392083ce31ea177a05d75110fcd2d7e9564dd0a358a7c3fea1138bb221e154eb4d1db2166886e605961e6d8b85b4a85e640b4aae6262a02ccccbfedc644da1b68c8edc204eeab0deb2f14ef6ed55234d69ccf8fb714f4984bcaa10463f9ecda217f2e7f6debd155e4cbc86244e1cde41d8f9e4badc1bdeef65bf002e6233dd3d93457773e8876ece41b22a14eb7623f61c34b658f9ab718d3acd3048b5e0ffbf54b5aa51dded4f2b44dbd18ff55fe44576fde72625c1dfbf14dabca090e317a86a63e84eb170097d8875bf2f145fe98bd81a81dc4637b336405368d00dbf439d96c93e910357a5a6dd28d882fbbb698e6f69d3791daebee44aef959bb70b31f6421f12a3b4c3687764039e74bd85506bdd6d36500e870c42de2ad4cee871601ef0e79c954636ede8fd44f79f9c5b612515ab8d5f6a07164b93cf64190bc5ff4b410de68d2c540773675f405d69e0e0159853279860fa8562493648b2be1c36e97b8e31ee8a965bbe3f4b6343a1ec29f31342ad01e824e8d254c71331630a27e0de54bc2708b1389407b32f9f6bbdfc5e263b8b23bdb526c5e5071a802ad276a26db5ee650a35a4cecebfc24e40841df2f01350f75ef3af0c87e185f7d1cca45e9d8e19f2e71a788668b763b2cb6e8c5c2cc9e002d9db38da6234ededa702f51fdc11d961d10a32d3449190d387020ab0fd20652b9b584fef9e91f7cd8fef770ca62d1082c8cbe684597dfc7d6ee5da9460c75395138940b42718bb137ad615a8903de6bbd63bb605a48bae52b3e426b5a1f5e8eb05c9c5cc0bd87a552386f698bb4168b8e12c157231018f65d76a31e4d83102b11603bc13cdef3fd38ec6d019567fb8a4f18cd5cad26e4e6b199ec515acf0a7f30f79e07577f620c628640f87cfcf0e6b723c1e429427f352752aa872428b75ccd17de0cbf962ef5f2f55c8c28af2d9288e01a005f07af9f0ac5c8ea45a9aef72dcb70e95313b8ee753feb660f32b951714114fd8d7840344917864ac3cf2014c452b80b21e14be493f40dd4ca311ec79a3d9bd83aad39a830b34fe5ff1bb6c9792ce32b3d7cdf435060212ecdd0498412edb9d78d44095cf1835038f3f1c8cf923c3bf2765df50d8ac32bfd92ed11b653a3ba0e3dda4d811c47bd604c2e04ef0346bd8ee82ef5d2039b3f366f04d208553027b978db19422059b0374b0251a8cd3cfae9a810bc9628c39a7434a6b3e2573b7cf0529f89f1c079068bb9e8cd89c706e097ac9cec7c882569f2985896e9e7961c6539b624b0ef73e9544a80ac1ad6a433a3a9485eb338b9840d3de70104af2078156927966bd975f61424a1458f9be5b901f6445c878110442a3fbb249db381696cce25e01dd699eadcb6e835484bc8818e198b80e8285fec54d9e76d988e7e8839a37ad9d6af5bcc6bdb3c69bdf0ba8c3cb87b6bb78ccb81b58c3b3bae10a9a6908b3145bc49ff6950b2e59d89efefc713f9d3b6a42322d32ec2007e2d78082e86f461fc94bce98d621b6da0e7b313d9ceeaaa76ce69249ceae3e3e9f5ea679d6a02f1a1dfa2495cc8c357bbd887360207444099814a5058b8b990fc872096d38345469b8ad87cde26ead7911435bab069b2063b0dd0bce45381dd0c9ddcdc75887e000000",
  "txid": "d99fa4bbfd80163069dc62d075eb2e5035bd3f19596da50f52deb4d2d954d106",
  "hash": "fffb37dec04ee9497eb228a231f7c05f7b22868233a280ae6c8fc561089c421a",
  "size": 5085,
  "vsize": 2278,
  "version": 1,
  "locktime": 126,
  "vin": [
    {
      "txid": "c08b84cf7879743cd410b77aeb4efd5ebec3b0ba80d1e4eec2b5ca062fc32e71",
      "vout": 0,
      "scriptSig": {
        "asm": "",
        "hex": ""
      },
      "txinwitness": [
        "a1f78c85abba8d15f3e9e474f85a115b394fb97051d5140cdee31873815750944750c8c8e36e3fca49ef6c792e10d133324737b897ecd2e70ab0ecf838c045b1e17851525e6e1dcc8d795bf7bd335c93dd25bc2df63ae051221b3b936860382e99f63a8fd48d73de67c4d940408138166c7b46783ddcc0a82eab999f6f2de28119d6e9282a39a49ee6304660afcab6673af4c25a657c24c13bcf77c2b7c85bbea8d7409b4e39d0131e9f300da6f30b65052f06a60d0d6bf1ec07cb9bbc967f498c145a35a524529a3fad538578ff3785d0ea4b099fea960d9665981fd0ee591ccd32b82f5ea4afc43db2513ca34344668aab47ead4a38570ff72f4f3c54cb877729f98b2bf8c2b1792a5aa39ddb317e8b538471ef20267bb8f66569464106ed90cc1ae8854ff470028008f8b227634198310a86bf60d66a97e2473bcb1b93458dc3a006803e5baeff7626446f28f0aaacb5a07ccf69deb15bccb4e7315d3fb4feefb25b4dd86a2313222ab7ab7e80b34bdc808c31e95e18266a28f9744827812b140e557e55a6f51af45314c83fcb54e7e0144e0d8845b870ca697be2f05ea0f90f9994fba73778a5f3746a9087d5b7a47ce70f8425c5fef17f1b499687d8c50bc715298c0353781bac522e14d36291804b3a8544aeae60ca9d618fc83a1ee10d1e404788079cd65ff3ee684ed320d854e65ab50f4806055084f44bc82ededab6a9b7dca2d8e04ec2a892e7b99492e3a7376c11e8fdb3fd1872c1edc181538b7229fbcd7d37b4bcd79185ad56f58ca4e855497b954658b567aeaa6ca6bca53d1401c0265fcb22f5c498b240e4ad229cc67d5afd7f20e1153dfb97201cbdde8b8442cd6b7d278bdbaa55853c703622cc297c00f4fdd94de72bad084fa21f797736082304e25fb9aedbec0bfb2da6ef08f3c57c454b549ce7dbaa2de27dc86b3677aa88adfab034e68b8dc54882eeafbceef91e1c7af0d7d30ec6695bede6eec2869eba5f72b86eacf66c3751457b0c0e918036fe65a01038154c1850cc34e0578c302e9544ce917296cd091270c760e7c16ce58c54d8296e001e6e5aa69795398d993954137dd8922260a1849f0db9a28652799c25045ab96ba233c98e41cd4add22808f200a8774819e8552dd5b53e384c8f348eb5636c5773523caf11890f66853a3d0bb310761fddca5aca4e06b143b5f86e2229b78122be88a13bbec58ffae11b17fa90877d0e38e4299a7eb6bf2c539ba666de03347de915726fc1651b5dab1f36a0295021535192008a55060e8b1354065a6da39cde86ebfed268aa4d01defb66c69705c60330e6d33c65a55ba32578c2f2ebee64a0ad9a2c58ddf797eca3d12ebfee7d103ef74ac168755927a1079522a7521f2d121e2e9d588920a8324ad488272d37fce2cb78eeb8084b3ae676179861cd8520a97287a0dc1cc832771c0563529a78c62c503295d5fbb9cb196297ff431cf8c2601bf1ff1c03414f90ac1427eb516c45e4e8e68ebd907ae72a295a59351ced0477ac6c7f3e9fced5afa96356dd78d2a7b0ea3a44d5165c22b8a1a8ed07493acab289cbcb8bb90c5e6aa6103df4a472a0a8629214659f1842881df1b57feeae21916006cd2c08dd1a258b3d32579608f4136a3db45189f3cde7d9b521bdf8e192ba5c288f9ca1eaf4cec4d7bf38a4eda0029a7cc9c683f2d94bfd44575ccc4873e9c626dec470eb7b24dfa117719d5714057f830497fa1f871166eacd0db60876a744ef34206cd5919500185d62e4f0acfb7bfc27a2195b8d34dc2fbfdbb934d7d94c6f4ec852999ad67c0b855ee4cb9c10d7a01aa891a2ff1c27f47e585737c8aadd29d5669a210fb5aeff3a191cef4a34865c551aa8a65422ab12cbb3410090aa570d45c59344550410b2c8d263c718a9823ca3cd8c4d089e4bc27ccee41c759320f285420e39f06f96e03dd9a77d818fb5a3004cb3fd8597aee13b0c68e301947d86e81ec26af33fb85fc58e6b9bd26672f52b3df4da2d40c79d63242d81823b34aaea104773076c9657d5a7e23b31e251ececee1bad1585c38969eff71adbce992f097440bf793ee5004d0d5b2e859afe8fb54735694677d94ab62b83d3edae8ff8d853b125443f82446d62375b9d6ad0bd40d9f2caa26c8d03089d2e0eceb61a7cabeef9cf372ebf63413dc6f1fe2c3570e6c27fae1427bcda5b0273f5d5cd42445d16c2cab2a859ba14ffb1d4837ce1209bd58984e9e291e97f1d824ef5ba3104bda755c7f5975b598c5a5904ca38c6c97938b14d80ccefb05986369aa113e7a090d305059cadca5c8eac57761e1767ae2710a479c95528ce22c90910e117bcf5965c2840dc5561e2cfa0bb2c1819106a046ac11bb6c50d439f9d6911e7fb274f4914c4b2074ac11a39428ed05a7553aa28cc02bb422d0f69eb8b31e529171e906df9c71039cf35c40812336667203cd389f003dbcbd57cc1c5e3392074783400a429755ef566fb0141824ba34c0026f1a842f1fc98050c9bdbaf396ac9d6540b84ca36e22947c0e5f60d8ac366ac427b0a46628cd86c53970ad669ab0a60da0625ba0bd76bacf792ca4d01e8ad30db60d3cabb1cd026b9bd23e46040ddf4f338e0a6fe55ff34ed498d29f636995e77a52f2dbaddefa8aba8b33839ececbadb6d45a49cac74139600216b6f1983eecce9b16d9dea615e6fcd5ca347a0069dc75d0f1c7d5f19c4e1fd773f95a8b1656e2731fed1a87744690843eea67f031cbc19713ccb528db52eeb1a0038d6a4817072568716b8f52020ccb34d0a7749bdfc25623a03351cf7f7bfb6c31373100d611e1e1b733096fac5388d265199e13686f4b218b21e801e68ce5298d98ef244de608d228f49c1918d51875f422ee8d5edfe1d64397b7a71c85bd38f9e69a01b60f2943bd5a3663f3a760f6a933cde41e5952f5fb28a89a0538f6a6b608b254b245729ab9038400991cffc7c891b563765c5a06aeed202a76bad9d358212779cd91d76f300e5693daeff21fa7c4884691b44a3d39b84977475956a4595584f868711bc71f90cdd89a0a0a19456ad7d4262eff5799733d4d87966a4c1ed348fcbaa2b09699d7315ce1b1a532879304f4f3d7253693b5b0ebb0ba887920041df81e4502ddc10ee95a644f41abb49cb1168ca59d7a53dcca1b2c9f475437ba493bb81ee0f0ef8fcd7f00cbef56b7c61bc547058606b9567797f2d9b4d635b94a1c8192ca20581c6940631aa028a26dff32be3fc4135df3d0001d94726e37aae849b6014a5aa506799e6f2f4fb4514cc6d15602d3b592a4385fc1019383f4b6b8790b1bcbfd5dbf0fd1a2032828a8f90959dabc3c9ccced5daf2f5061f303e4b4e565e8eabaeafc5ced7f0f1fe01060f212c3d5658598485898bc8d600000000000000000000000000000f21334201",
        "00241b61be9c78c497b87ad7e79441fdfd960129569fc1850ae5521c02e2f69066c3c40095442616889eb4e40836c4a4f76ecc528cc5e99fdafa7a2cfb190a9b123f93e7e19cb52d701dff26b21060cfe47991e585d147743fb5dc040abec51e2920a8304ac9785cde09b4fb34cff19d98d0bc3dd17183e4fb26d21ee24f84b70e72b07577bd745c8b573a58bd4b6636d6580bac681b933e73c392083ce31ea177a05d75110fcd2d7e9564dd0a358a7c3fea1138bb221e154eb4d1db2166886e605961e6d8b85b4a85e640b4aae6262a02ccccbfedc644da1b68c8edc204eeab0deb2f14ef6ed55234d69ccf8fb714f4984bcaa10463f9ecda217f2e7f6debd155e4cbc86244e1cde41d8f9e4badc1bdeef65bf002e6233dd3d93457773e8876ece41b22a14eb7623f61c34b658f9ab718d3acd3048b5e0ffbf54b5aa51dded4f2b44dbd18ff55fe44576fde72625c1dfbf14dabca090e317a86a63e84eb170097d8875bf2f145fe98bd81a81dc4637b336405368d00dbf439d96c93e910357a5a6dd28d882fbbb698e6f69d3791daebee44aef959bb70b31f6421f12a3b4c3687764039e74bd85506bdd6d36500e870c42de2ad4cee871601ef0e79c954636ede8fd44f79f9c5b612515ab8d5f6a07164b93cf64190bc5ff4b410de68d2c540773675f405d69e0e0159853279860fa8562493648b2be1c36e97b8e31ee8a965bbe3f4b6343a1ec29f31342ad01e824e8d254c71331630a27e0de54bc2708b1389407b32f9f6bbdfc5e263b8b23bdb526c5e5071a802ad276a26db5ee650a35a4cecebfc24e40841df2f01350f75ef3af0c87e185f7d1cca45e9d8e19f2e71a788668b763b2cb6e8c5c2cc9e002d9db38da6234ededa702f51fdc11d961d10a32d3449190d387020ab0fd20652b9b584fef9e91f7cd8fef770ca62d1082c8cbe684597dfc7d6ee5da9460c75395138940b42718bb137ad615a8903de6bbd63bb605a48bae52b3e426b5a1f5e8eb05c9c5cc0bd87a552386f698bb4168b8e12c157231018f65d76a31e4d83102b11603bc13cdef3fd38ec6d019567fb8a4f18cd5cad26e4e6b199ec515acf0a7f30f79e07577f620c628640f87cfcf0e6b723c1e429427f352752aa872428b75ccd17de0cbf962ef5f2f55c8c28af2d9288e01a005f07af9f0ac5c8ea45a9aef72dcb70e95313b8ee753feb660f32b951714114fd8d7840344917864ac3cf2014c452b80b21e14be493f40dd4ca311ec79a3d9bd83aad39a830b34fe5ff1bb6c9792ce32b3d7cdf435060212ecdd0498412edb9d78d44095cf1835038f3f1c8cf923c3bf2765df50d8ac32bfd92ed11b653a3ba0e3dda4d811c47bd604c2e04ef0346bd8ee82ef5d2039b3f366f04d208553027b978db19422059b0374b0251a8cd3cfae9a810bc9628c39a7434a6b3e2573b7cf0529f89f1c079068bb9e8cd89c706e097ac9cec7c882569f2985896e9e7961c6539b624b0ef73e9544a80ac1ad6a433a3a9485eb338b9840d3de70104af2078156927966bd975f61424a1458f9be5b901f6445c878110442a3fbb249db381696cce25e01dd699eadcb6e835484bc8818e198b80e8285fec54d9e76d988e7e8839a37ad9d6af5bcc6bdb3c69bdf0ba8c3cb87b6bb78ccb81b58c3b3bae10a9a6908b3145bc49ff6950b2e59d89efefc713f9d3b6a42322d32ec2007e2d78082e86f461fc94bce98d621b6da0e7b313d9ceeaaa76ce69249ceae3e3e9f5ea679d6a02f1a1dfa2495cc8c357bbd887360207444099814a5058b8b990fc872096d38345469b8ad87cde26ead7911435bab069b2063b0dd0bce45381dd0c9ddcdc7588"
      ],
      "sequence": 4294967294
    }
  ],
  "vout": [
    {
      "value": 1.0,
      "n": 0,
      "scriptPubKey": {
        "asm": "OP_RETURN 0ae702f6ea35ba694051323d096d2a42dbdbc9a1a99a8406d812429fa5ccc8d6 fea808c6e9784c7f58b0b0e49f63f84ae330a736e7119372b4bc95b7ee24d388de8828e6c9586c5f789090c4bf43d86ac3108716c731b352949cb597ce04f3a8bee84886a9380c3f18f0f0a4df23b80aa370e776a751d332f4fcd5f7ae6493c89ec868a689182c1f38d0d084ff03982a8350c7568771f312d4dcf5d78e44b3e87e28884669f8ccffd83030641fe378ca63b027b6679113f2343c15376ea453085e08a86649d8ecdff81010443fc358ea4390079647b133d2141c35174e8473283e68c80629b88cbf987070245fa3388a23f067f627d153b2747c55772ee413481e48e8260998ac9fb85050047f8318aa03d047d607f17392545c75570ec43368fea808c6e9784c7f58b0b0e49f63f84ae330a736e7119372b4bc95b7ee24d388de8828e6c9586c5f789090c4bf43d86ac3108716c731b352949cb597ce04f3a8bee84886a9380c3f18f0f0a4df23b80aa370e776a751d332f4fcd5f7ae6493c89ec868a689182c1f38d0d084ff03982a8350c7568771f312d4dcf5d78e44b3e87e28884669f8ccffd83030641fe378ca63b027b6679113f2343c15376ea453085e08a86649d8ecdff81010443fc358ea4390079647b133d2141c35174e8473283e68c80629b88cbf987070245fa3388a23f067f627d153b2747c55772ee413481e48e8260998ac9fb85050047f8318aa03d047d607f17392545c75570ec43368fea808c6e9784c7f58b0b0e49f63f84ae330a736e7119372b4bc95b7ee24d388de8828e6c9586c5f789090c4bf43d86ac3108716c731b352949cb597ce04f3a8bee84886a9380c3f18f0f0a4df23b80aa370e776a751d332f4fcd5f7ae6493c89ec868a689182c1f38d0d084ff03982a8350c7568771f312d4dcf5d78e44b3e87e28884669f8ccffd83030641fe378ca63b027b6679113f2343c15376ea453085e08a86649d8ecdff81010443fc358ea4390079647b133d2141c35174e8473283e68c80629b88cbf987070245fa3388a23f067f627d153b2747c55772ee413481e48e8260998ac9fb85050047f8318aa03d047d607f17392545c75570ec43368fea808c6e9784c7f58b0b0e49f63f84ae330a736e7119372b4bc95b7ee24d388de8828e6c9586c5f789090c4bf43d86ac3108716c731b352949cb597ce04f3a8bee84886a9380c3f18f0f0a4df23b80aa370e776a751d332f4fcd5f7ae6493c89ec868a689182c1f38d0d084ff03982a8350c7568771f312d4dcf5d78e44b3e87e28884669f8ccffd83030641fe378ca63b027b6679113f2343c15376ea453085e08a86649d8ecdff81010443fc358ea4390079647b133d2141c35174e8473283e68c80629b88cbf987070245fa3388a23f067f627d153b2747c55772ee413481e48e8260998ac9fb85050047f8318aa03d047d607f17392545c75570ec43368fea808c6e9784c7f58b0b0e49f63f84ae330a736e7119372b4bc95b7ee24d388de8828e6c9586c5f789090c4bf43d86ac3108716c731b352949cb597ce04f3a8bee84886a9380c3f18f0f0a4df23b80aa370e776a751d332f4fcd5f7ae6493c89ec868a689182c1f38d0d084ff03982a8350c7568771f312d4dcf5d78e44b3e87e28884669f8ccffd83030641fe378cac7d340718456d34501ab2de17c36664a8add0ad3e7dc233b3600986ec7987651",
        "hex": "6a200ae702f6ea35ba694051323d096d2a42dbdbc9a1a99a8406d812429fa5ccc8d64db004fea808c6e9784c7f58b0b0e49f63f84ae330a736e7119372b4bc95b7ee24d388de8828e6c9586c5f789090c4bf43d86ac3108716c731b352949cb597ce04f3a8bee84886a9380c3f18f0f0a4df23b80aa370e776a751d332f4fcd5f7ae6493c89ec868a689182c1f38d0d084ff03982a8350c7568771f312d4dcf5d78e44b3e87e28884669f8ccffd83030641fe378ca63b027b6679113f2343c15376ea453085e08a86649d8ecdff81010443fc358ea4390079647b133d2141c35174e8473283e68c80629b88cbf987070245fa3388a23f067f627d153b2747c55772ee413481e48e8260998ac9fb85050047f8318aa03d047d607f17392545c75570ec43368fea808c6e9784c7f58b0b0e49f63f84ae330a736e7119372b4bc95b7ee24d388de8828e6c9586c5f789090c4bf43d86ac3108716c731b352949cb597ce04f3a8bee84886a9380c3f18f0f0a4df23b80aa370e776a751d332f4fcd5f7ae6493c89ec868a689182c1f38d0d084ff03982a8350c7568771f312d4dcf5d78e44b3e87e28884669f8ccffd83030641fe378ca63b027b6679113f2343c15376ea453085e08a86649d8ecdff81010443fc358ea4390079647b133d2141c35174e8473283e68c80629b88cbf987070245fa3388a23f067f627d153b2747c55772ee413481e48e8260998ac9fb85050047f8318aa03d047d607f17392545c75570ec43368fea808c6e9784c7f58b0b0e49f63f84ae330a736e7119372b4bc95b7ee24d388de8828e6c9586c5f789090c4bf43d86ac3108716c731b352949cb597ce04f3a8bee84886a9380c3f18f0f0a4df23b80aa370e776a751d332f4fcd5f7ae6493c89ec868a689182c1f38d0d084ff03982a8350c7568771f312d4dcf5d78e44b3e87e28884669f8ccffd83030641fe378ca63b027b6679113f2343c15376ea453085e08a86649d8ecdff81010443fc358ea4390079647b133d2141c35174e8473283e68c80629b88cbf987070245fa3388a23f067f627d153b2747c55772ee413481e48e8260998ac9fb85050047f8318aa03d047d607f17392545c75570ec43368fea808c6e9784c7f58b0b0e49f63f84ae330a736e7119372b4bc95b7ee24d388de8828e6c9586c5f789090c4bf43d86ac3108716c731b352949cb597ce04f3a8bee84886a9380c3f18f0f0a4df23b80aa370e776a751d332f4fcd5f7ae6493c89ec868a689182c1f38d0d084ff03982a8350c7568771f312d4dcf5d78e44b3e87e28884669f8ccffd83030641fe378ca63b027b6679113f2343c15376ea453085e08a86649d8ecdff81010443fc358ea4390079647b133d2141c35174e8473283e68c80629b88cbf987070245fa3388a23f067f627d153b2747c55772ee413481e48e8260998ac9fb85050047f8318aa03d047d607f17392545c75570ec43368fea808c6e9784c7f58b0b0e49f63f84ae330a736e7119372b4bc95b7ee24d388de8828e6c9586c5f789090c4bf43d86ac3108716c731b352949cb597ce04f3a8bee84886a9380c3f18f0f0a4df23b80aa370e776a751d332f4fcd5f7ae6493c89ec868a689182c1f38d0d084ff03982a8350c7568771f312d4dcf5d78e44b3e87e28884669f8ccffd83030641fe378cac7d340718456d34501ab2de17c36664a8add0ad3e7dc233b3600986ec7987651",
        "type": "nulldata"
      }
    },
    {
      "value": 499971.5268,
      "n": 1,
      "scriptPubKey": {
        "asm": "1 db8be72fa51caaf448381d3205d1ec411d4f87ecf92f84d98caeef5ab5013d4d",
        "hex": "5120db8be72fa51caaf448381d3205d1ec411d4f87ecf92f84d98caeef5ab5013d4d",
        "reqSigs": 1,
        "type": "witness_v1_scripthash",
        "addresses": [
          "3QJmnh"
        ]
      }
    }
  ],
  "blockhash": "6d9c0c317b6a18c94c8dfa8ecf7920e3db1b4df4697afebc42d3fd28269e39fd",
  "confirmations": 1,
  "time": 1764181315,
  "blocktime": 1764181315
}