{
  "hex": "010000000001011b5989cf6d2cbff5eec56d7704d7ce1ae1777132d8d11bf6ac2f85487df304660000000000feffffff02e021231b792d0000225120e25e1e1d809bece2d7a0dbc1715cab5697481a34ee834324a3939166acbfbded00e1f50500000000fdd5046a20ac9dba101d9f04f8db639c0ee2f33a0cc3f57b645257817fd19d87ebef9b491e4db004028031803ec14fad7e646bf37e464638f6350399a31c05a5a99729a9acc8bde422a011a01ee16f8d5e444bd35e666618d61523b9833c258589b709898ce89dc442c071c07e810fed3e242bb33e060678b67543d9e35c45e5e9d769e9ec88fda462e051e05ea12fcd1e040b931e262658965563f9c37c65c5c9f749c9cca8dd848200b100be41cf2dfee4eb73fec6c6b876b58319239c85252917a9292c483d64a22091209e61ef0ddec4cb53dee6e6985695a33903bca505093789090c681d44c240f140fe018f6dbea4ab33be8686f836f5c35963dcc5656957e9696c087d24e260d160de21af4d9e848b139ea6a6d816d5e37943fce5454977c9494c285d04028031803ec14fad7e646bf37e464638f6350399a31c05a5a99729a9acc8bde422a011a01ee16f8d5e444bd35e666618d61523b9833c258589b709898ce89dc442c071c07e810fed3e242bb33e060678b67543d9e35c45e5e9d769e9ec88fda462e051e05ea12fcd1e040b931e262658965563f9c37c65c5c9f749c9cca8dd848200b100be41cf2dfee4eb73fec6c6b876b58319239c85252917a9292c483d64a22091209e61ef0ddec4cb53dee6e6985695a33903bca505093789090c681d44c240f140fe018f6dbea4ab33be8686f836f5c35963dcc5656957e9696c087d24e260d160de21af4d9e848b139ea6a6d816d5e37943fce5454977c9494c285d04028031803ec14fad7e646bf37e464638f6350399a31c05a5a99729a9acc8bde422a011a01ee16f8d5e444bd35e666618d61523b9833c258589b709898ce89dc442c071c07e810fed3e242bb33e060678b67543d9e35c45e5e9d769e9ec88fda462e051e05ea12fcd1e040b931e262658965563f9c37c65c5c9f749c9cca8dd848200b100be41cf2dfee4eb73fec6c6b876b58319239c85252917a9292c483d64a22091209e61ef0ddec4cb53dee6e6985695a33903bca505093789090c681d44c240f140fe018f6dbea4ab33be8686f836f5c35963dcc5656957e9696c087d24e260d160de21af4d9e848b139ea6a6d816d5e37943fce5454977c9494c285d04028031803ec14fad7e646bf37e464638f6350399a31c05a5a99729a9acc8bde422a011a01ee16f8d5e444bd35e666618d61523b9833c258589b709898ce89dc442c071c07e810fed3e242bb33e060678b67543d9e35c45e5e9d769e9ec88fda462e051e05ea12fcd1e040b931e262658965563f9c37c65c5c9f749c9cca8dd848200b100be41cf2dfee4eb73fec6c6b876b58319239c85252917a9292c483d64a22091209e61ef0ddec4cb53dee6e6985695a33903bca505093789090c681d44c240f140fe018f6dbea4ab33be8686f836f5c35963dcc5656957e9696c087d24e260d160de21af4d9e848b139ea6a6d816d5e37943fce5454977c9494c285d04028031803ec14fad7e646bf37e464638f6350399a31c05a5a99729a9acc8bde422a011a01ee16f8d5e444bd35e666618d61523b9833c258589b709898ce89dc442c071c07e810fed3e242bb33e060678b67543d9e35c45e5e9d769e9ec88fda462e051e05ea12fcd1e040b931e262658965563f9c37c65c5c9f749c9cca8dd848200b100be41cf2dfee4eb73fec6c6b8dd6a7c7ea996824d563f15cf231442168f6dacfb34dea81e278f8eafc52ac5e002fd75098980a6b6f6cd994b327eaf761aac3d805a8c5514e232f146ae027122122f95fde4ebbbc75b781ca4012cf439ae0b995fded5b04d45a30aa7eefd6cd94d6dc6d9af833dcd9a00a127deeb2109d8cb91523aa35c0e9ec07a3277abfa4ae94f7fd7ed562d24689bc04cfb9aa5b5ec89d44ab6356868c703ca953b0d164e13d815d68901f3797d160e1c9fdd45d6f88dcbc5a3ee670cb36eb34e3cec97fa7cf72b0788140b4aca6f2433ee34dff242868a9183a792a7991968485773142c3ab4b83b60601318d46ad36aebf876c127b46f5ac343cc2cd8b28af4f4bfdae580b6248688371111e66f5c8df979789fcf1e50a5b691fe494ce4fe92d190c49be485b53ed731e69cb50875fb809bb5d3545366bba04fa8b62986e2b6b91f47957d6a2c1749de266331f0377cfa5c3f436617b848728728f63d17b69dd977af087944befb8ab6e4207460f1b6d74d4f1426e71c06285b8c6616a550f3835fd6f927c012acf8d0407dcbfc38c2fd029494247c7644ecd86605c764d9b849bb3a571d65a219b35c92d2d3d534e0af327f14812ec083a961cfe6915ff36f04f6d526c7117534918e1cdeb1e9f1d6f54c155e6e1de06457a37c52945b567f5e64fc82d0006eb2b2fa97198b9cea6bfebd187d8e24816512d46c0219c1c9f954652eb0c651ea55d6721a2cbae016caa0ceaf717fb5779fc11ee2b5dc8efda1562869e2e7a83001ca9d40aaf1e924539760e5d79a92b36f6d52b7ce69ae757b720b15e7386476263ab1b508c3f5f9e7b236ed228213e0e9eb8a3215c170a9d8b1356551e34bb73f4d13ed0236ce6e8a9ba2eac69cc659dad3b5b2247310a81e0ef5e6b9fac1ab128352faf6f2927f23e11760a06ecf403085bfabb1e9dc52d735812f6cca6254dbde882e35543bd64352475e25382370cca4b33732569932c1e19d2b3c761679a01705319e3d6b197b4b13a9a674570f494d91b8b64b0fe3769187cb2439609d4d67a3e7a4ab8d12cec6b55070a33a314f1846363dcc62457eb30e04fae2814782518a58728d474255de0ff2a0b994fd3a4b856a14926c1588b1640cf15213a65867a4af9bf1bd5ac1a76ef74b22976223a89f65d62823d9801ddfe999696aa610ba037781e6a61c3666503e7cf5de470f8d037a611475041d0f337c9686259abc4b87022fc6bfa9041548f6a5b351045762e2cda211a4f394c3f15a3e06e7335c36f08f180f1b72e1312c6247cc9a65670d3243e08caa09e55faa580c8e867d91a6ce7afa5f2444ce15140d2bc1216a0ce54eb314ed4197523ce4e138e67625cf9f6c2970835245c816aa7db10f242353c9e7d172a2c58fbe57c47e287b725cb05803ce78f5a582db5a2ba6ce9cf5c2e835e9c9da9212114de4d721e545677b7abe9e19b5a877b497044ce217e73a18639f6e849db0a952e17a7f5f5cf48f88a97efe2d46b9f748691deb8626d173d8d1646de93a469c313436cf3d22ba876f22e393bbac18e55ce0aa2954b8389556b44f4ca9b56e9c4d6931a60b7eead5fcd7a01681d1bc5031e0d0994298bc69661807cc274c88819a07a8694077904f69c353f57409451d24d0a64999aeb8bab380192cd7290209eccb11bea3c4dca792daf60205a9fae5c0ce7613ef9cf6efe0ba713a36900128df2c5b4600f904caa309429cd217d18cb4473978cb1e0ef10a4d83cb835161112d2e4929dd0f69b57f334f9a136b6b8aec31ca822f7733ef5c176cec78c08f5995eb36332e3efaf07c3c37224c95f42840860a0a608fd3ff931c31c97b8f32b4baf211cc84d943ebb57c3337b1daa64a1d8846866818bd38b027c724c2055cad3b7b685f7939acf8209bd2398aa98e579c55c6372f11b65c826bece958aa4aa52a0817a9c3a21d4584c093d9fe75a4f16bd69bba1e09e9c07fa29d94badd9873c674e4da5cc5c9e781f60bf683903cf1272b579fe9473a1590346cc18d0acb983eabc3eafafc78eb9300e55040aa9b3d9931a4f0c72a160a7afd59506466c6d1756dd62c719309dd901d5b0d8e8c37b4a4b63bb3564015a6f5403cb67fbe877122dc87acd9316b635dc86f64fb4a4fc4d233fb2d01ffc46c30d5c01e2cc1878617953189f616d70cf7d209df17c7e452cff8733e583d729f587db79054ec97a0440607a232ed189b09e082a5b2f2d8a0f119e9bed65ed495f46fb9f69ae2ce22011420af9df9d9d793ee6218a773ef59cee79ea3a46c14622134b1c7cf5e3dc4df4c015f0f5bd6ff97714a56b6331af0f397287a6a04fe8662f5529ee2f0a609a1da157f2e467539a57d69f99492faeea791973d20fe02fc661474cc49c7980ed04be4523004d95fedd0858d78a73644d906473a268a3dd018306d830bfec640d34d5d460ebc2ac058531b172d12a41ab5031a9b2644e2bc72dfea924556a3f67affb4211174014f6bce1aae979e342e77cee7c0800a144203bbafab22a8fda636be95f261257db53dccf3f610fd394f666d041de99775e532cd9e0fd6998ff611a1f512c439ee1a5ff0dbe269f68d94f144701fc19e7696f0adaa344465b8d2449dec6dd850ef35ca15e47bc9da7a05aa1762f8b9d069ebeacb5097e3c0c6ac269f94ac9239de9c651ecbcccb5228ad612c8eb2d3979e4abdcdf71dfc651f6724f3351f4223bc9fa3af73947c03f0c05fec7150534a5f6214d8b7e094af727daea6b8f80f11170571187ce79b05c427c483fd3d953fd328c6d40d660409ec863d95322c75b3449e42a7005364a618f880c5e69b8fcb351cb2a9958ea34e2eaed6baebc1d8bc0a397a192d81c8765f796755775bbf0b1bc1dfe3f7d1771c7076ec0e3b9cdad9eb687256edb199a7985eed185c6d54b8b9e2e42d8302e9ec8ede1e428ddf3346104497a0ae6a2e25e645cb6a0ba50a56312202bd566a5eb73296c80c3e463461aab9340059f14c20c194d579b39c5864bafa38b622a65f10e957cd0163ba04ca1f9403ed7d995d3ca8b6676ab262977ec23dbb6eabb0b343eeec03dd35a3eb48db1e32ef5652d4f2d86656cb41bcaa0f1a18684b95286b8d7d5158b9035f76ee3e1625878d66e004d95d085ce57e484de26930f0ebb9355aa8692d7e3da1d9477d39d5508fcd627167cb6e813380f1671f9d25ef470895c4a35266b3040fcaff58e12653edaf27b2764f26cacf705403dcb8b47bd807ee015078051c5e73649bc3b076d8963bf8a5ca23f8e0ad446826050efb2b636269244798e90984a3b3f48804a7ee9c655a574a2b74a54387d40df6f1a8e3b98d0bbada8e3124367d21e648180f5208234e72737d7e8798aeb3b8eaf1fe273034425c9fa1a3b3b9babbc2d1ddeb000409191f272e2f323c47626c98a8b1bdc4d7dbdef5fa0a0b0c2d46525490acbec3dddee8f400000000000000000000000f1f364501fd21050002f3d1e35add9de61facbf3fce795e0612a004f8f8d79399805055ca68df8faaca3d74a76f271fb460928e0bd8e66b91e22f526ed6c90365c144da1bf7104f91b3a479cd39efaa7dd357115842b10b40c33a9e685557a04f431370d6ddc2120c67683aca84211649dc5e9641508b07462c3f480ef92e343a06880f2890277751729cfcbb64602c94ef1dce175d0f5d035d453e58d3e904822da5b0189f879d0c17b0b63d91f48eac8c047ebe9aab9f0fb5822798c5264b7c92b5bbbcb862c4c738dea68036b78605f20ce41a543c9819927be3cba918f793291af03b605126ec04576b927aad2d424c5d3b470e83a058022f4b991029a87534be11cf070f860ce7719298f39f8780b46469a3d877638695fea38c9395abe189983028c88acf01fec5e520a253c969d652977ff0d660147b849252b210e9e310ec61b638d83b3e3cdb459a36d33319118e6859370434a47aca6e0c6b9f14627b7db95580e785377fb4d8b0a897232e46a8601df2ae38a32c04c31c5cd0f2273f8875066c32b0e61a98b35f027343ed91df9c5294a758a3345ac832f146705eaad6961c109de6ce0ed66ff34153635faaa15762c868b3cc6665f70dbfdf15016fae0181b96d5cebf89cae954099896f64035234b878bb6ea7d717265fe377db380f92d78536a139c247c60071d5d7feff13d7cecdc8a7193bdc0b5bb966d913270ba33b8252add503edc77ce8706185c95fc870b5cf438cbc2ee5047218d096452aa9df6adcf66c275c57af78e4e6241077fc52a1dc50c11eb3d5fba73741b88add6413607c318a347e7e8f40a08a35db32abc6142863e098053971e16d27d3d0a81ef25663cbace13fc44962c19d68146d90e739fbe63b26e52a52baa68ace784b3474d6740de4cc656014d5f80f0ac6d4a0ed7c4a019d85c40e4b114c2b52e474b799f750d92ee6f88aaf180d477e847060c17560917d064f0bf7518365bc351799b669285accdd40a626b737f9aed352f6d77e69e30b93f6e1ee7240d09da4514af30280398cbeb9d1e41991002b2d8734b8c7d03b4be70f4be036f1cc0c3f811413ddb1d138f4b191d95ee6f6611160a90b153743895bf00b2e25cd7360ab23facd78c2edab9e85010f8dd03c5ef8c1dd0b894e8cee3ae8a4b0675eed5141dcf1dafd6d9d2f0613fb7ca1956fd315f9f96e190598a9d5e899c1ca1f8679ac1667ab6ba01266f5531d87a0cb978b56013d24c5c760fa6c1adc4c6c67956afdd94f7456ef0aadd8db9826ccd0f0de6f80b50df06fa40d1db457171c9e8c7c0de26a41b47ba3dd7b274f90ec4064018fcf542857b2b44ab5e51e05dcc649d34a07e3ba6ad0da457fda8b1a3793489a57ce3860f2cda3136933fa307bdf074bd62d11cf4e2f29b6daea5e4aaa43e1ed3dcc68d51a3fe9e1b1b2e081035ca6bbc3afaad203913e44eeaf7bd5562e21b871ac9454f3104938c93491713c1ac27bf4d571453bfc38fa7e83baa12526a53d5e3ac64937e59103a812d3bff816a36be66d71fab005f67d9a98412a60d2bd44fa223f94aecdf8fecded61da726f916b459e509ae044fdb2826d6db44edc4374caf94ddedefb33c72d9ccb9578d9f97616a586e6b4d55dbddaf2a468132cc9dfdb3047b45d58f93f207570584a5a87e8786e3baecb5923b6ab3c3bf98b0d3d70f1d02a216cfef232abf647a93e05bf1c835eb7de86a1167150f356afefc381a9875bfff04a064e4e8cb0628df8f06be0e90112d8772809cce938a62f67a63a6278f07fe2a9b05c72cd5a3b64a825d4a4a716c6b38f2ad2e999e392581f9f6624bc0ecb9beb579c8874913f1697f9641aba84cf038a3b09188a000000",
  "txid": "dc28d79995b099dc85220747089ff269bf77f5d5cb58024aba99bad108158922",
  "hash": "b3724fde8ab80625cb998da6e74b46b2903cfc1cc59a1c34d508aee318d3bd57",
  "size": 5085,
  "vsize": 2278,
  "version": 1,
  "locktime": 138,
  "vin": [
    {
      "txid": "6604f37d48852facf61bd1d8327177e11aced704776dc5eef5bf2c6dcf89591b",
      "vout": 0,
      "scriptSig": {
        "asm": "",
        "hex": ""
      },
      "txinwitness": [
        "8980a6b6f6cd994b327eaf761aac3d805a8c5514e232f146ae027122122f95fde4ebbbc75b781ca4012cf439ae0b995fded5b04d45a30aa7eefd6cd94d6dc6d9af833dcd9a00a127deeb2109d8cb91523aa35c0e9ec07a3277abfa4ae94f7fd7ed562d24689bc04cfb9aa5b5ec89d44ab6356868c703ca953b0d164e13d815d68901f3797d160e1c9fdd45d6f88dcbc5a3ee670cb36eb34e3cec97fa7cf72b0788140b4aca6f2433ee34dff242868a9183a792a7991968485773142c3ab4b83b60601318d46ad36aebf876c127b46f5ac343cc2cd8b28af4f4bfdae580b6248688371111e66f5c8df979789fcf1e50a5b691fe494ce4fe92d190c49be485b53ed731e69cb50875fb809bb5d3545366bba04fa8b62986e2b6b91f47957d6a2c1749de266331f0377cfa5c3f436617b848728728f63d17b69dd977af087944befb8ab6e4207460f1b6d74d4f1426e71c06285b8c6616a550f3835fd6f927c012acf8d0407dcbfc38c2fd029494247c7644ecd86605c764d9b849bb3a571d65a219b35c92d2d3d534e0af327f14812ec083a961cfe6915ff36f04f6d526c7117534918e1cdeb1e9f1d6f54c155e6e1de06457a37c52945b567f5e64fc82d0006eb2b2fa97198b9cea6bfebd187d8e24816512d46c0219c1c9f954652eb0c651ea55d6721a2cbae016caa0ceaf717fb5779fc11ee2b5dc8efda1562869e2e7a83001ca9d40aaf1e924539760e5d79a92b36f6d52b7ce69ae757b720b15e7386476263ab1b508c3f5f9e7b236ed228213e0e9eb8a3215c170a9d8b1356551e34bb73f4d13ed0236ce6e8a9ba2eac69cc659dad3b5b2247310a81e0ef5e6b9fac1ab128352faf6f2927f23e11760a06ecf403085bfabb1e9dc52d735812f6cca6254dbde882e35543bd64352475e25382370cca4b33732569932c1e19d2b3c761679a01705319e3d6b197b4b13a9a674570f494d91b8b64b0fe3769187cb2439609d4d67a3e7a4ab8d12cec6b55070a33a314f1846363dcc62457eb30e04fae2814782518a58728d474255de0ff2a0b994fd3a4b856a14926c1588b1640cf15213a65867a4af9bf1bd5ac1a76ef74b22976223a89f65d62823d9801ddfe999696aa610ba037781e6a61c3666503e7cf5de470f8d037a611475041d0f337c9686259abc4b87022fc6bfa9041548f6a5b351045762e2cda211a4f394c3f15a3e06e7335c36f08f180f1b72e1312c6247cc9a65670d3243e08caa09e55faa580c8e867d91a6ce7afa5f2444ce15140d2bc1216a0ce54eb314ed4197523ce4e138e67625cf9f6c2970835245c816aa7db10f242353c9e7d172a2c58fbe57c47e287b725cb05803ce78f5a582db5a2ba6ce9cf5c2e835e9c9da9212114de4d721e545677b7abe9e19b5a877b497044ce217e73a18639f6e849db0a952e17a7f5f5cf48f88a97efe2d46b9f748691deb8626d173d8d1646de93a469c313436cf3d22ba876f22e393bbac18e55ce0aa2954b8389556b44f4ca9b56e9c4d6931a60b7eead5fcd7a01681d1bc5031e0d0994298bc69661807cc274c88819a07a8694077904f69c353f57409451d24d0a64999aeb8bab380192cd7290209eccb11bea3c4dca792daf60205a9fae5c0ce7613ef9cf6efe0ba713a36900128df2c5b4600f904caa309429cd217d18cb4473978cb1e0ef10a4d83cb835161112d2e4929dd0f69b57f334f9a136b6b8aec31ca822f7733ef5c176cec78c08f5995eb36332e3efaf07c3c37224c95f42840860a0a608fd3ff931c31c97b8f32b4baf211cc84d943ebb57c3337b1daa64a1d8846866818bd38b027c724c2055cad3b7b685f7939acf8209bd2398aa98e579c55c6372f11b65c826bece958aa4aa52a0817a9c3a21d4584c093d9fe75a4f16bd69bba1e09e9c07fa29d94badd9873c674e4da5cc5c9e781f60bf683903cf1272b579fe9473a1590346cc18d0acb983eabc3eafafc78eb9300e55040aa9b3d9931a4f0c72a160a7afd59506466c6d1756dd62c719309dd901d5b0d8e8c37b4a4b63bb3564015a6f5403cb67fbe877122dc87acd9316b635dc86f64fb4a4fc4d233fb2d01ffc46c30d5c01e2cc1878617953189f616d70cf7d209df17c7e452cff8733e583d729f587db79054ec97a0440607a232ed189b09e082a5b2f2d8a0f119e9bed65ed495f46fb9f69ae2ce22011420af9df9d9d793ee6218a773ef59cee79ea3a46c14622134b1c7cf5e3dc4df4c015f0f5bd6ff97714a56b6331af0f397287a6a04fe8662f5529ee2f0a609a1da157f2e467539a57d69f99492faeea791973d20fe02fc661474cc49c7980ed04be4523004d95fedd0858d78a73644d906473a268a3dd018306d830bfec640d34d5d460ebc2ac058531b172d12a41ab5031a9b2644e2bc72dfea924556a3f67affb4211174014f6bce1aae979e342e77cee7c0800a144203bbafab22a8fda636be95f261257db53dccf3f610fd394f666d041de99775e532cd9e0fd6998ff611a1f512c439ee1a5ff0dbe269f68d94f144701fc19e7696f0adaa344465b8d2449dec6dd850ef35ca15e47bc9da7a05aa1762f8b9d069ebeacb5097e3c0c6ac269f94ac9239de9c651ecbcccb5228ad612c8eb2d3979e4abdcdf71dfc651f6724f3351f4223bc9fa3af73947c03f0c05fec7150534a5f6214d8b7e094af727daea6b8f80f11170571187ce79b05c427c483fd3d953fd328c6d40d660409ec863d95322c75b3449e42a7005364a618f880c5e69b8fcb351cb2a9958ea34e2eaed6baebc1d8bc0a397a192d81c8765f796755775bbf0b1bc1dfe3f7d1771c7076ec0e3b9cdad9eb687256edb199a7985eed185c6d54b8b9e2e42d8302e9ec8ede1e428ddf3346104497a0ae6a2e25e645cb6a0ba50a56312202bd566a5eb73296c80c3e463461aab9340059f14c20c194d579b39c5864bafa38b622a65f10e957cd0163ba04ca1f9403ed7d995d3ca8b6676ab262977ec23dbb6eabb0b343eeec03dd35a3eb48db1e32ef5652d4f2d86656cb41bcaa0f1a18684b95286b8d7d5158b9035f76ee3e1625878d66e004d95d085ce57e484de26930f0ebb9355aa8692d7e3da1d9477d39d5508fcd627167cb6e813380f1671f9d25ef470895c4a35266b3040fcaff58e12653edaf27b2764f26cacf705403dcb8b47bd807ee015078051c5e73649bc3b076d8963bf8a5ca23f8e0ad446826050efb2b636269244798e90984a3b3f48804a7ee9c655a574a2b74a54387d40df6f1a8e3b98d0bbada8e3124367d21e648180f5208234e72737d7e8798aeb3b8eaf1fe273034425c9fa1a3b3b9babbc2d1ddeb000409191f272e2f323c47626c98a8b1bdc4d7dbdef5fa0a0b0c2d46525490acbec3dddee8f400000000000000000000000f1f364501",
        "0002f3d1e35add9de61facbf3fce795e0612a004f8f8d79399805055ca68df8faaca3d74a76f271fb460928e0bd8e66b91e22f526ed6c90365c144da1bf7104f91b3a479cd39efaa7dd357115842b10b40c33a9e685557a04f431370d6ddc2120c67683aca84211649dc5e9641508b07462c3f480ef92e343a06880f2890277751729cfcbb64602c94ef1dce175d0f5d035d453e58d3e904822da5b0189f879d0c17b0b63d91f48eac8c047ebe9aab9f0fb5822798c5264b7c92b5bbbcb862c4c738dea68036b78605f20ce41a543c9819927be3cba918f793291af03b605126ec04576b927aad2d424c5d3b470e83a058022f4b991029a87534be11cf070f860ce7719298f39f8780b46469a3d877638695fea38c9395abe189983028c88acf01fec5e520a253c969d652977ff0d660147b849252b210e9e310ec61b638d83b3e3cdb459a36d33319118e6859370434a47aca6e0c6b9f14627b7db95580e785377fb4d8b0a897232e46a8601df2ae38a32c04c31c5cd0f2273f8875066c32b0e61a98b35f027343ed91df9c5294a758a3345ac832f146705eaad6961c109de6ce0ed66ff34153635faaa15762c868b3cc6665f70dbfdf15016fae0181b96d5cebf89cae954099896f64035234b878bb6ea7d717265fe377db380f92d78536a139c247c60071d5d7feff13d7cecdc8a7193bdc0b5bb966d913270ba33b8252add503edc77ce8706185c95fc870b5cf438cbc2ee5047218d096452aa9df6adcf66c275c57af78e4e6241077fc52a1dc50c11eb3d5fba73741b88add6413607c318a347e7e8f40a08a35db32abc6142863e098053971e16d27d3d0a81ef25663cbace13fc44962c19d68146d90e739fbe63b26e52a52baa68ace784b3474d6740de4cc656014d5f80f0ac6d4a0ed7c4a019d85c40e4b114c2b52e474b799f750d92ee6f88aaf180d477e847060c17560917d064f0bf7518365bc351799b669285accdd40a626b737f9aed352f6d77e69e30b93f6e1ee7240d09da4514af30280398cbeb9d1e41991002b2d8734b8c7d03b4be70f4be036f1cc0c3f811413ddb1d138f4b191d95ee6f6611160a90b153743895bf00b2e25cd7360ab23facd78c2edab9e85010f8dd03c5ef8c1dd0b894e8cee3ae8a4b0675eed5141dcf1dafd6d9d2f0613fb7ca1956fd315f9f96e190598a9d5e899c1ca1f8679ac1667ab6ba01266f5531d87a0cb978b56013d24c5c760fa6c1adc4c6c67956afdd94f7456ef0aadd8db9826ccd0f0de6f80b50df06fa40d1db457171c9e8c7c0de26a41b47ba3dd7b274f90ec4064018fcf542857b2b44ab5e51e05dcc649d34a07e3ba6ad0da457fda8b1a3793489a57ce3860f2cda3136933fa307bdf074bd62d11cf4e2f29b6daea5e4aaa43e1ed3dcc68d51a3fe9e1b1b2e081035ca6bbc3afaad203913e44eeaf7bd5562e21b871ac9454f3104938c93491713c1ac27bf4d571453bfc38fa7e83baa12526a53d5e3ac64937e59103a812d3bff816a36be66d71fab005f67d9a98412a60d2bd44fa223f94aecdf8fecded61da726f916b459e509ae044fdb2826d6db44edc4374caf94ddedefb33c72d9ccb9578d9f97616a586e6b4d55dbddaf2a468132cc9dfdb3047b45d58f93f207570584a5a87e8786e3baecb5923b6ab3c3bf98b0d3d70f1d02a216cfef232abf647a93e05bf1c835eb7de86a1167150f356afefc381a9875bfff04a064e4e8cb0628df8f06be0e90112d8772809cce938a62f67a63a6278f07fe2a9b05c72cd5a3b64a825d4a4a716c6b38f2ad2e999e392581f9f6624bc0ecb9beb579c8874913f1697f9641aba84cf038a3b0918"
      ],
      "sequence": 4294967294
    }
  ],
  "vout": [
    {
      "value": 499981.6958,
      "n": 0,
      "scriptPubKey": {
        "asm": "1 e25e1e1d809bece2d7a0dbc1715cab5697481a34ee834324a3939166acbfbded",
        "hex": "5120e25e1e1d809bece2d7a0dbc1715cab5697481a34ee834324a3939166acbfbded",
        "reqSigs": 1,
        "type": "witness_v1_scripthash",
        "addresses": [
          "3QJmnh"
        ]
      }
    },
    {
      "value": 1.0,
      "n": 1,
      "scriptPubKey": {
        "asm": "OP_RETURN ac9dba101d9f04f8db639c0ee2f33a0cc3f57b645257817fd19d87ebef9b491e 028031803ec14fad7e646bf37e464638f6350399a31c05a5a99729a9acc8bde422a011a01ee16f8d5e444bd35e666618d61523b9833c258589b709898ce89dc442c071c07e810fed3e242bb33e060678b67543d9e35c45e5e9d769e9ec88fda462e051e05ea12fcd1e040b931e262658965563f9c37c65c5c9f749c9cca8dd848200b100be41cf2dfee4eb73fec6c6b876b58319239c85252917a9292c483d64a22091209e61ef0ddec4cb53dee6e6985695a33903bca505093789090c681d44c240f140fe018f6dbea4ab33be8686f836f5c35963dcc5656957e9696c087d24e260d160de21af4d9e848b139ea6a6d816d5e37943fce5454977c9494c285d04028031803ec14fad7e646bf37e464638f6350399a31c05a5a99729a9acc8bde422a011a01ee16f8d5e444bd35e666618d61523b9833c258589b709898ce89dc442c071c07e810fed3e242bb33e060678b67543d9e35c45e5e9d769e9ec88fda462e051e05ea12fcd1e040b931e262658965563f9c37c65c5c9f749c9cca8dd848200b100be41cf2dfee4eb73fec6c6b876b58319239c85252917a9292c483d64a22091209e61ef0ddec4cb53dee6e6985695a33903bca505093789090c681d44c240f140fe018f6dbea4ab33be8686f836f5c35963dcc5656957e9696c087d24e260d160de21af4d9e848b139ea6a6d816d5e37943fce5454977c9494c285d04028031803ec14fad7e646bf37e464638f6350399a31c05a5a99729a9acc8bde422a011a01ee16f8d5e444bd35e666618d61523b9833c258589b709898ce89dc442c071c07e810fed3e242bb33e060678b67543d9e35c45e5e9d769e9ec88fda462e051e05ea12fcd1e040b931e262658965563f9c37c65c5c9f749c9cca8dd848200b100be41cf2dfee4eb73fec6c6b876b58319239c85252917a9292c483d64a22091209e61ef0ddec4cb53dee6e6985695a33903bca505093789090c681d44c240f140fe018f6dbea4ab33be8686f836f5c35963dcc5656957e9696c087d24e260d160de21af4d9e848b139ea6a6d816d5e37943fce5454977c9494c285d04028031803ec14fad7e646bf37e464638f6350399a31c05a5a99729a9acc8bde422a011a01ee16f8d5e444bd35e666618d61523b9833c258589b709898ce89dc442c071c07e810fed3e242bb33e060678b67543d9e35c45e5e9d769e9ec88fda462e051e05ea12fcd1e040b931e262658965563f9c37c65c5c9f749c9cca8dd848200b100be41cf2dfee4eb73fec6c6b876b58319239c85252917a9292c483d64a22091209e61ef0ddec4cb53dee6e6985695a33903bca505093789090c681d44c240f140fe018f6dbea4ab33be8686f836f5c35963dcc5656957e9696c087d24e260d160de21af4d9e848b139ea6a6d816d5e37943fce5454977c9494c285d04028031803ec14fad7e646bf37e464638f6350399a31c05a5a99729a9acc8bde422a011a01ee16f8d5e444bd35e666618d61523b9833c258589b709898ce89dc442c071c07e810fed3e242bb33e060678b67543d9e35c45e5e9d769e9ec88fda462e051e05ea12fcd1e040b931e262658965563f9c37c65c5c9f749c9cca8dd848200b100be41cf2dfee4eb73fec6c6b8dd6a7c7ea996824d563f15cf231442168f6dacfb34dea81e278f8eafc52ac5e0",
        "hex": "6a20ac9dba101d9f04f8db639c0ee2f33a0cc3f57b645257817fd19d87ebef9b491e4db004028031803ec14fad7e646bf37e464638f6350399a31c05a5a99729a9acc8bde422a011a01ee16f8d5e444bd35e666618d61523b9833c258589b709898ce89dc442c071c07e810fed3e242bb33e060678b67543d9e35c45e5e9d769e9ec88fda462e051e05ea12fcd1e040b931e262658965563f9c37c65c5c9f749c9cca8dd848200b100be41cf2dfee4eb73fec6c6b876b58319239c85252917a9292c483d64a22091209e61ef0ddec4cb53dee6e6985695a33903bca505093789090c681d44c240f140fe018f6dbea4ab33be8686f836f5c35963dcc5656957e9696c087d24e260d160de21af4d9e848b139ea6a6d816d5e37943fce5454977c9494c285d04028031803ec14fad7e646bf37e464638f6350399a31c05a5a99729a9acc8bde422a011a01ee16f8d5e444bd35e666618d61523b9833c258589b709898ce89dc442c071c07e810fed3e242bb33e060678b67543d9e35c45e5e9d769e9ec88fda462e051e05ea12fcd1e040b931e262658965563f9c37c65c5c9f749c9cca8dd848200b100be41cf2dfee4eb73fec6c6b876b58319239c85252917a9292c483d64a22091209e61ef0ddec4cb53dee6e6985695a33903bca505093789090c681d44c240f140fe018f6dbea4ab33be8686f836f5c35963dcc5656957e9696c087d24e260d160de21af4d9e848b139ea6a6d816d5e37943fce5454977c9494c285d04028031803ec14fad7e646bf37e464638f6350399a31c05a5a99729a9acc8bde422a011a01ee16f8d5e444bd35e666618d61523b9833c258589b709898ce89dc442c071c07e810fed3e242bb33e060678b67543d9e35c45e5e9d769e9ec88fda462e051e05ea12fcd1e040b931e262658965563f9c37c65c5c9f749c9cca8dd848200b100be41cf2dfee4eb73fec6c6b876b58319239c85252917a9292c483d64a22091209e61ef0ddec4cb53dee6e6985695a33903bca505093789090c681d44c240f140fe018f6dbea4ab33be8686f836f5c35963dcc5656957e9696c087d24e260d160de21af4d9e848b139ea6a6d816d5e37943fce5454977c9494c285d04028031803ec14fad7e646bf37e464638f6350399a31c05a5a99729a9acc8bde422a011a01ee16f8d5e444bd35e666618d61523b9833c258589b709898ce89dc442c071c07e810fed3e242bb33e060678b67543d9e35c45e5e9d769e9ec88fda462e051e05ea12fcd1e040b931e262658965563f9c37c65c5c9f749c9cca8dd848200b100be41cf2dfee4eb73fec6c6b876b58319239c85252917a9292c483d64a22091209e61ef0ddec4cb53dee6e6985695a33903bca505093789090c681d44c240f140fe018f6dbea4ab33be8686f836f5c35963dcc5656957e9696c087d24e260d160de21af4d9e848b139ea6a6d816d5e37943fce5454977c9494c285d04028031803ec14fad7e646bf37e464638f6350399a31c05a5a99729a9acc8bde422a011a01ee16f8d5e444bd35e666618d61523b9833c258589b709898ce89dc442c071c07e810fed3e242bb33e060678b67543d9e35c45e5e9d769e9ec88fda462e051e05ea12fcd1e040b931e262658965563f9c37c65c5c9f749c9cca8dd848200b100be41cf2dfee4eb73fec6c6b8dd6a7c7ea996824d563f15cf231442168f6dacfb34dea81e278f8eafc52ac5e0",
        "type": "nulldata"
      }
    }
  ],
  "blockhash": "394f302ff1829b8db869c98f7b64fb5f27cc2b50e933cff1e5bbeae34fa68a80",
  "confirmations": 1,
  "time": 1764183654,
  "blocktime": 1764183654
}