{
  "hex": "01000000000101da307e9751c500d449903c4b04f58c2ed3de7a9feec3c38e1b2a1b29f85f62080000000000feffffff0200e1f50500000000fdd5046a209b36039becc22c2d204d30fb8d862dc94025f57cf8654d5f251e47cf88b27d894db00449e2d432e52ef41a8d21ac4f815caf1dcb389ac6a85a330163c0a8d15068808269c2f412c50ed43aad018c6fa17c8f3deb18bae6887a132143e088f17048a0a209a29472a56eb45acd61ec0fc11cef5d8b78da86e81a73412380e8911028c0c22982b452854e947aed41cc2fe13ccf7dab58faa6c83a536103a0c8b13008e0e2c96254b265ae749a0da12ccf01dc2f9d4bb81a4628dab381e3402851d0e80002e9427492458e54ba2d810cef21fc0fbd6b983a6608fa93a1c3600871f0c82022892214f225ee34da4de16c8f419c6fdd0bf85a06689af3c1a300681190a84042a90234d205ce14fa6dc14caf61bc4ffd2bd87a2648bad3e183204831b088606249e2d432e52ef41a8d21ac4f815caf1dcb389ac6a85a330163c0a8d15068808269c2f412c50ed43aad018c6fa17c8f3deb18bae6887a132143e088f17048a0a209a29472a56eb45acd61ec0fc11cef5d8b78da86e81a73412380e8911028c0c22982b452854e947aed41cc2fe13ccf7dab58faa6c83a536103a0c8b13008e0e2c96254b265ae749a0da12ccf01dc2f9d4bb81a4628dab381e3402851d0e80002e9427492458e54ba2d810cef21fc0fbd6b983a6608fa93a1c3600871f0c82022892214f225ee34da4de16c8f419c6fdd0bf85a06689af3c1a300681190a84042a90234d205ce14fa6dc14caf61bc4ffd2bd87a2648bad3e183204831b088606249e2d432e52ef41a8d21ac4f815caf1dcb389ac6a85a330163c0a8d15068808269c2f412c50ed43aad018c6fa17c8f3deb18bae6887a132143e088f17048a0a209a29472a56eb45acd61ec0fc11cef5d8b78da86e81a73412380e8911028c0c22982b452854e947aed41cc2fe13ccf7dab58faa6c83a536103a0c8b13008e0e2c96254b265ae749a0da12ccf01dc2f9d4bb81a4628dab381e3402851d0e80002e9427492458e54ba2d810cef21fc0fbd6b983a6608fa93a1c3600871f0c82022892214f225ee34da4de16c8f419c6fdd0bf85a06689af3c1a300681190a84042a90234d205ce14fa6dc14caf61bc4ffd2bd87a2648bad3e183204831b088606249e2d432e52ef41a8d21ac4f815caf1dcb389ac6a85a330163c0a8d15068808269c2f412c50ed43aad018c6fa17c8f3deb18bae6887a132143e088f17048a0a209a29472a56eb45acd61ec0fc11cef5d8b78da86e81a73412380e8911028c0c22982b452854e947aed41cc2fe13ccf7dab58faa6c83a536103a0c8b13008e0e2c96254b265ae749a0da12ccf01dc2f9d4bb81a4628dab381e3402851d0e80002e9427492458e54ba2d810cef21fc0fbd6b983a6608fa93a1c3600871f0c82022892214f225ee34da4de16c8f419c6fdd0bf85a06689af3c1a300681190a84042a90234d205ce14fa6dc14caf61bc4ffd2bd87a2648bad3e183204831b088606249e2d432e52ef41a8d21ac4f815caf1dcb389ac6a85a330163c0a8d15068808269c2f412c50ed43aad018c6fa17c8f3deb18bae6887a132143e088f17048a0a209a29472a56eb45acd61ec0fc11cef5d8b78da86e81a73412380e8911028c0c22982b452854e947aed41cc2fe13ccf7dab58faa6c83a536103a0c8b13008e0e2c96254b265ae749a0da12ccf01dc2f9d92853ccd50c3455df6728247278c716996d2bbb26bf390c5def622d2214595dea0cee9a1782d0000225120527f9d18aa9c743130fc921bbd0db9ab656aa6ad3259c88a133b9ab665cc149802fd7509ab840e5035f213a911c40077acff2f3cc0e52e03e1664d4f69bb8ab0759110fcb529a31734f3c5b8723e0dab0d487a16f9dd354ee2b4a7c962c6c26f806abd5ad71ccfd700ac9ebfd0ae5efe2664a2c8510864ae4d42c9e83cd3d3b85280a427532b019c7292808e4a61bc5ba5eda50b2d3c9c4a35566371190b59e8ce8dd0b3f1ad76ca4cf02e7e715a3a87e5de7d5b62a13a18b16ee67b52b3f542a0265d9d8a35d2da9fbee25611b0c84614fa68a03754aee5d6b799612745cb411538ead17d0c07689a4c0f0df28dc530c7bece53dea211fb6d6921695f52767d14a7434a6c35edf6600bbce334caf6b4e4bc4c4e5b5edf032360df72b60125861c1d191daa8fb6b1055325e97e6fc6333489b1e0af2b5674fdd835529c91c924213220e650e1ed21b244f1b7136ccec907870695621f0b3cbe9a6dcd3d852ba4fa419be1c888a870198ba40d2d080259b6e51b7a15333b4f4765f3cde0d51153ff8b4d33b5261d70f23e98a7f767ba498158950d45ff311209f10a4f77c17f789b77f8a10ecc38b65e9f4b7233ee999e7f810f686ab3f29a1dbffd4501fe1129dbb84f67e74290f16221338f0a48b5a16d168719221a71249a36a238182ea0f8a874999f569b8c63f4f77dd07d4c69f078a6bb4476fe37171435b2afaa43c70a7c26dc18913ea365b843ad0c0b95a0eeb732f1dd8917cd13049259207ddbbbd75bfe8eea4d91c734db27404008c3ecc0ca797d3025b9552c9f68553312a4a187cb071a838220539595de888922e0d5bdbf3d621d6ed820d9b52330a8b9e2fa1277dac241b186b5cc047ee345170e5e9b611fbde2e3b6af55da516dca39b5b623677a60e278ff36b9217f888d934e1eae185ab9155590c49274867a6397b72fa1cffe29936a5546004c3afb45a937a9c1c32fa87310ebc9971b398cbe1c5d466cae5f87e7e6bc56a1ab28dc8403c62c2ad6aa9303356f6b8948d722eed9ddbfbf5e45a61684c08d309def41d90c002e357ba0bc36398a424d398c8082bcea58c18e4c587bedb0c3df0862110247e92b470bfc9d231450fa7409576faf183d492c6f9f7bfd9d42c7565db886f216d6fd02a6ba90cca0c25a42932fd125b00328d4cab8d28a0e3adb1f6306d925c23dbb43f31a13d78d201990dfb4fede42020e8f0df9288e37bf833f4a8f21827297bdb054ada297c4d028ba3f3539a67bec6cf68f8cae7cb00724b033d466f49b1f5d39b1a4607f68fb12d11ad673a25181de715ec621f91f52f5a2218cd9003c3d0cea2c18e7fe3a26d286e39d99b35f9197f3d4e6e586d19fbca3c6998e17df136568ef5d9b7c161bd71334892aaf23f822f58941f970a2144e69181a65d91f7973bda72102bd99f91d84edd584c79bafc5d26594e7838821baa7fe1d6a40b50328c128f880659b0e8d05d129bd511103827e642c5b0d07d0abb18473d24cc5fb443a48521395eb837476f1022c1652387520aee3de742edc1cb94a3f1e478a4a610a100d5146ceb376e3c3b474197f0168551a37deabc3c8252ac3db79cbb15d23b6179a841692bc4028bdd782f08f31b354bfffdb3087f2a4617e099f1bda82516417dac25df2392a87bfb6b51eba4ded1258d9f79cf0bb5af44422432bc9d8c736fb7eacd4de3f41d24a894232ef287ae18edf6eb2a13b66222575247377447fc66417175b25caa65bb757a1359005284d752ab591d134d9ce992cfa1fac162efe4931e04fc032c9ee6725bfc7753d5f513b9d0dd9cc52d482e069433329f4f4902704105673ba9e8d6fbf6eff19ef16a09dd35f7f1f29c415d61a4402cb56edd6193b288f3f4053331ca27a9f48ec917f101df4b8c9c181026e07b51a0cd060e3bc5ec427f5f16f23ac165ad33a2d82bab556c29fd26b0d7bef2959fd494748bf7db52a0c741c6e9c19bde2cc2f61b45eee33c50ed33216780057e091e6a6e706c669ed976c64e79dd3516d8cc49ae34e7f567c978e427d2d414857c74d1552f31b51f19e57e76293c010e5c705216286765700fd0e55ae6bdf1cb117f79c6da372673544b293714b6be45a817545d04dba768c5330a8c8a0e30deab0ff232a9e37b5759c67b7bd21829ca268c283f56ccdf75dca87504131a569b52781b02c9a8e2303621a5c62f04271f981b8303661f379c6c8f3143b6624f8210b24992dd4bbefe05a66482b408ba1a4771b176acc0b60cab7d707696520dfaf39e43881fdb0b12d7e57605564f9cf06500c6072a53124b7daeaa530541f8d85fe4ae5a03e264456405f729d02052c9c891b982a4d0de35a66b17457b9880ea0af6b1f8d6b6a1ed9496a47eda4d7823cdff2416a0b39de7d57693689c3569b5780443cae4c6b4f7daae354d6a1010ac8dce1b2f6b19c36d3fa6ce539dbf5375783f19e33bf849ce431031094632f9767bfdd5b5571c632eb22d5bcf5fd152c131111697aeffd61f061a0247210ffdf7a20c121c33960210d90b53fb111ae83244386274db1588931b7f9aac3277163cc5e176309172badc8b37ddbd13b7433875647da659cfe25bd3eef80b68680929cd918eaea1504edcb1570f1b099cb3741099ddbfa4c8e8ac6c584fe4f0c1057d4061dbd1edd3b99156a61de5664dad6bbb6e83ce2891395a0ef8969f9ccb42ffff49f14a70e41c1be0f8b70714bec94f3cc4d74acaa37fb921892deb009ee5728e16945bc8feb19e9eabaa28ad181445ff5c2b63147724a393ff95b2b51bac0b799551483621616e13a7dec81a1835022192541f5614e6fab7487d8ac449cfaf48c210a8f34bed0ae8e06e071d5fe77d34075580707de6543eaca9f8ec584888ba42b8cf9f69627c9d55a4d1a222821390a899d38f94bd7b3620fc2a7d83dd5678dbe0c1847223f1b3d47c013ab0303c2e56eacd02b2790e17c4fff6b7b90dacd7333c94b196116876b2904815d462262b874e24df76325b83bb3e1c67324fe3b58295eed66bbf6d325f70239abb5996248d6963d4a193c2f60d9fc10e3a5edc579acfe651d076f6156b8daf864e77bb5b480918418ceb7cbf2ffd44fa39adb6df37e99f3a242043740090e2a393d29c0c6894c264a20874c95eb324e1f2840cf546d50fe1c085f7cacf26966284f0100406a9193afeaf995f8e503fd8a1021783dbbfb8adf4dad34cf69b3003acf5b359d4a8f0b59a6f41f86426cf838c02795ef0847c93d5fcc2dd9aa7de79228d054fa591828e91d624f9ef6402b44fc06247b3073a2e00509592dca4cd611724327bae4c18c8bbb41d1a7be455881cd8185fad717a5a7a4bfcca10f1a2b333d5b6568709c9eacbdc2ccd4e20f10172d313a3b4f51768592afb8c5f6036898a0afbacaccd4d9f411283036566f75829abcbfc8c9dfe8eef20000000000000000000000000000000000000011212c3d01fd2105003730736f48ba805e0876a5275e09eb586974926b27c594197617133ff0a6e5b4b7c83f1311cadacfb57bc8adda9509c25bcf4737a68ad2c4523b69a826dfff9b7d59eee65aae0384778800ed03633be4f3416f265b9338c96f89e7729dd6bf25048ad204d83e9c2aa15dbcf155d18f9f28d2f5326c4b899023f724a7d0072df8b753504b4e965d68dea07218442fe3f783c897eabd865f741fe48ca74e957395f2196b4d7c1136c0661d8f874513771350ea4c10144e44b02f6e916592687ccb43e8c2edacbee68ab0c7335b9736c7c2f36fdd1ca01eba7fb154b9ee610c414ab575bb7c55a92e93d9d8296a6504e6cddfb26efab80765507bda21625569ba8d2332408f0f1378366d04ee1d430b243938f557808e16c5cc2f03337fcb3a89e254ce03b4f2eb122b7d6bdb49a33e2c66b5a00a051d06152d53110708397dfa8977853ef904a8b907fd8bd47ff0f046562201dafac330fc64448e772b6f8445e40d458439fad21ffb5fceecbc9ce09dc6db046a3bc6e31c11276803b86dc2e34b641f6b3543cd1b05c23e0b9db470bf7623f2645680394999eaeca25dedac3fd589db42b130686c2c7d7c7265263b51f3f46a7203c959a1d838e45794c62bb243cf16c78830bdb7ce548de6a1769de58c2f258641492bcfcc1449fb7d101cbc7b01266d40b2640573206cacba7b8cdcae00e535ee4472746a8ae29c03662243f5699f1d144f9b0da66c2b3042f964155e54cfec9bb6448a68dffe1985201fac435ab898c55b73059929549d494550e4768c613e9f2c59651d435c173fd5fe292108e37d65db1868a9d44951c85fb3c232ec94662371fb4d216555ae027746a80626642c8fa5024d13acdbc90a53b79c0a4603001949438062e1a05a9186bd9513b58bb3c19defa59d4fe71edfe9adef4aee6d5a52bf08e99b4bd589eac4b9778e426bdb50ea442923a555c2dd6bdfb0a166aedf55ea310f73d429872a5488059537e99ec2ba4a0fb6e3c51c3281ae7008233b3dc9e9688f6672de4c3a8ea016f5365d1b82561a3cc0bfd1d57b0a4e9462b81a7fcbb7769360e78f51f68156005605ad219b1ab5e6a0733bb6a5dc655a38face4f8a0310699271739c7f3791f2605c3e57b68643ee123cb735ed9f7d6d9c078e560cc8f12525897f0a05ff79be172d47bdffcaaac5e865485ca0df5a100e649045450a6316e69b50c240a041df3ebe585c606b31cff2108b2b3dcb1026f5a559f3c3e3c3e03766b7f2a36bf43daeb0ec87066f3fbd019556854d4821d3001425ce2a86e95ae9a9ae0a16866e55146943dd1c7a77fde7c360a81b86639ecf1799ad28efc895fdda55d3cdf383370c68137942b6a873df0cb5fe9e440c263ade4c5a1e5aacfb71d0644a9a9442aaa8839478d75d3af86716a6a2b68d6ac2b626a1b0e9573b3507388605cd8168b1fddd95d7761f0e186be448ac6df07d26947a844990eef810496809989c0d6fcf0f11a38a1923ad841289dd2ae32f63e5de14b1b40ed134706ac64ec4ccc12b69dfe7091994862355a97f93dacaf7fe2a11f8f8e34f405196188a4ee51686cddba2a255fce2127d2e969ee8b60a55e2b8efcdcff05d99d1661d49a0fdb8b5edc6f12b341bdbce53a7cba443b207fa37ece712234aa1998f4ecc0c6390fb3ace90db8d9569859e8693c2d21bec517eabce5e59fd31c031f12c70b16400b55b414a89fc65296dd201609a9361918f5990d64e09b06b43b03b1f3648ced7fa2012475c46524d0f8e0de9782c41c86ccf97273b43bef42e5c42593ebab3fc3bce25188ac58be390d9ad645d2a2d3de037b1d597148cb4aedbc3f14082387284f60352f388000000",
  "txid": "d50453d059af71a81ad88274c5e55c9fc68c42a3140d8f832adf0969f1c2e6ce",
  "hash": "9c1f01e175615eed0be59b1d0bd5ff1f58a22e55e02226b3e91599a8f97d7020",
  "size": 5085,
  "vsize": 2278,
  "version": 1,
  "locktime": 136,
  "vin": [
    {
      "txid": "08625ff8291b2a1b8ec3c3ee9f7aded32e8cf5044b3c9049d400c551977e30da",
      "vout": 0,
      "scriptSig": {
        "asm": "",
        "hex": ""
      },
      "txinwitness": [
        "ab840e5035f213a911c40077acff2f3cc0e52e03e1664d4f69bb8ab0759110fcb529a31734f3c5b8723e0dab0d487a16f9dd354ee2b4a7c962c6c26f806abd5ad71ccfd700ac9ebfd0ae5efe2664a2c8510864ae4d42c9e83cd3d3b85280a427532b019c7292808e4a61bc5ba5eda50b2d3c9c4a35566371190b59e8ce8dd0b3f1ad76ca4cf02e7e715a3a87e5de7d5b62a13a18b16ee67b52b3f542a0265d9d8a35d2da9fbee25611b0c84614fa68a03754aee5d6b799612745cb411538ead17d0c07689a4c0f0df28dc530c7bece53dea211fb6d6921695f52767d14a7434a6c35edf6600bbce334caf6b4e4bc4c4e5b5edf032360df72b60125861c1d191daa8fb6b1055325e97e6fc6333489b1e0af2b5674fdd835529c91c924213220e650e1ed21b244f1b7136ccec907870695621f0b3cbe9a6dcd3d852ba4fa419be1c888a870198ba40d2d080259b6e51b7a15333b4f4765f3cde0d51153ff8b4d33b5261d70f23e98a7f767ba498158950d45ff311209f10a4f77c17f789b77f8a10ecc38b65e9f4b7233ee999e7f810f686ab3f29a1dbffd4501fe1129dbb84f67e74290f16221338f0a48b5a16d168719221a71249a36a238182ea0f8a874999f569b8c63f4f77dd07d4c69f078a6bb4476fe37171435b2afaa43c70a7c26dc18913ea365b843ad0c0b95a0eeb732f1dd8917cd13049259207ddbbbd75bfe8eea4d91c734db27404008c3ecc0ca797d3025b9552c9f68553312a4a187cb071a838220539595de888922e0d5bdbf3d621d6ed820d9b52330a8b9e2fa1277dac241b186b5cc047ee345170e5e9b611fbde2e3b6af55da516dca39b5b623677a60e278ff36b9217f888d934e1eae185ab9155590c49274867a6397b72fa1cffe29936a5546004c3afb45a937a9c1c32fa87310ebc9971b398cbe1c5d466cae5f87e7e6bc56a1ab28dc8403c62c2ad6aa9303356f6b8948d722eed9ddbfbf5e45a61684c08d309def41d90c002e357ba0bc36398a424d398c8082bcea58c18e4c587bedb0c3df0862110247e92b470bfc9d231450fa7409576faf183d492c6f9f7bfd9d42c7565db886f216d6fd02a6ba90cca0c25a42932fd125b00328d4cab8d28a0e3adb1f6306d925c23dbb43f31a13d78d201990dfb4fede42020e8f0df9288e37bf833f4a8f21827297bdb054ada297c4d028ba3f3539a67bec6cf68f8cae7cb00724b033d466f49b1f5d39b1a4607f68fb12d11ad673a25181de715ec621f91f52f5a2218cd9003c3d0cea2c18e7fe3a26d286e39d99b35f9197f3d4e6e586d19fbca3c6998e17df136568ef5d9b7c161bd71334892aaf23f822f58941f970a2144e69181a65d91f7973bda72102bd99f91d84edd584c79bafc5d26594e7838821baa7fe1d6a40b50328c128f880659b0e8d05d129bd511103827e642c5b0d07d0abb18473d24cc5fb443a48521395eb837476f1022c1652387520aee3de742edc1cb94a3f1e478a4a610a100d5146ceb376e3c3b474197f0168551a37deabc3c8252ac3db79cbb15d23b6179a841692bc4028bdd782f08f31b354bfffdb3087f2a4617e099f1bda82516417dac25df2392a87bfb6b51eba4ded1258d9f79cf0bb5af44422432bc9d8c736fb7eacd4de3f41d24a894232ef287ae18edf6eb2a13b66222575247377447fc66417175b25caa65bb757a1359005284d752ab591d134d9ce992cfa1fac162efe4931e04fc032c9ee6725bfc7753d5f513b9d0dd9cc52d482e069433329f4f4902704105673ba9e8d6fbf6eff19ef16a09dd35f7f1f29c415d61a4402cb56edd6193b288f3f4053331ca27a9f48ec917f101df4b8c9c181026e07b51a0cd060e3bc5ec427f5f16f23ac165ad33a2d82bab556c29fd26b0d7bef2959fd494748bf7db52a0c741c6e9c19bde2cc2f61b45eee33c50ed33216780057e091e6a6e706c669ed976c64e79dd3516d8cc49ae34e7f567c978e427d2d414857c74d1552f31b51f19e57e76293c010e5c705216286765700fd0e55ae6bdf1cb117f79c6da372673544b293714b6be45a817545d04dba768c5330a8c8a0e30deab0ff232a9e37b5759c67b7bd21829ca268c283f56ccdf75dca87504131a569b52781b02c9a8e2303621a5c62f04271f981b8303661f379c6c8f3143b6624f8210b24992dd4bbefe05a66482b408ba1a4771b176acc0b60cab7d707696520dfaf39e43881fdb0b12d7e57605564f9cf06500c6072a53124b7daeaa530541f8d85fe4ae5a03e264456405f729d02052c9c891b982a4d0de35a66b17457b9880ea0af6b1f8d6b6a1ed9496a47eda4d7823cdff2416a0b39de7d57693689c3569b5780443cae4c6b4f7daae354d6a1010ac8dce1b2f6b19c36d3fa6ce539dbf5375783f19e33bf849ce431031094632f9767bfdd5b5571c632eb22d5bcf5fd152c131111697aeffd61f061a0247210ffdf7a20c121c33960210d90b53fb111ae83244386274db1588931b7f9aac3277163cc5e176309172badc8b37ddbd13b7433875647da659cfe25bd3eef80b68680929cd918eaea1504edcb1570f1b099cb3741099ddbfa4c8e8ac6c584fe4f0c1057d4061dbd1edd3b99156a61de5664dad6bbb6e83ce2891395a0ef8969f9ccb42ffff49f14a70e41c1be0f8b70714bec94f3cc4d74acaa37fb921892deb009ee5728e16945bc8feb19e9eabaa28ad181445ff5c2b63147724a393ff95b2b51bac0b799551483621616e13a7dec81a1835022192541f5614e6fab7487d8ac449cfaf48c210a8f34bed0ae8e06e071d5fe77d34075580707de6543eaca9f8ec584888ba42b8cf9f69627c9d55a4d1a222821390a899d38f94bd7b3620fc2a7d83dd5678dbe0c1847223f1b3d47c013ab0303c2e56eacd02b2790e17c4fff6b7b90dacd7333c94b196116876b2904815d462262b874e24df76325b83bb3e1c67324fe3b58295eed66bbf6d325f70239abb5996248d6963d4a193c2f60d9fc10e3a5edc579acfe651d076f6156b8daf864e77bb5b480918418ceb7cbf2ffd44fa39adb6df37e99f3a242043740090e2a393d29c0c6894c264a20874c95eb324e1f2840cf546d50fe1c085f7cacf26966284f0100406a9193afeaf995f8e503fd8a1021783dbbfb8adf4dad34cf69b3003acf5b359d4a8f0b59a6f41f86426cf838c02795ef0847c93d5fcc2dd9aa7de79228d054fa591828e91d624f9ef6402b44fc06247b3073a2e00509592dca4cd611724327bae4c18c8bbb41d1a7be455881cd8185fad717a5a7a4bfcca10f1a2b333d5b6568709c9eacbdc2ccd4e20f10172d313a3b4f51768592afb8c5f6036898a0afbacaccd4d9f411283036566f75829abcbfc8c9dfe8eef20000000000000000000000000000000000000011212c3d01",
        "003730736f48ba805e0876a5275e09eb586974926b27c594197617133ff0a6e5b4b7c83f1311cadacfb57bc8adda9509c25bcf4737a68ad2c4523b69a826dfff9b7d59eee65aae0384778800ed03633be4f3416f265b9338c96f89e7729dd6bf25048ad204d83e9c2aa15dbcf155d18f9f28d2f5326c4b899023f724a7d0072df8b753504b4e965d68dea07218442fe3f783c897eabd865f741fe48ca74e957395f2196b4d7c1136c0661d8f874513771350ea4c10144e44b02f6e916592687ccb43e8c2edacbee68ab0c7335b9736c7c2f36fdd1ca01eba7fb154b9ee610c414ab575bb7c55a92e93d9d8296a6504e6cddfb26efab80765507bda21625569ba8d2332408f0f1378366d04ee1d430b243938f557808e16c5cc2f03337fcb3a89e254ce03b4f2eb122b7d6bdb49a33e2c66b5a00a051d06152d53110708397dfa8977853ef904a8b907fd8bd47ff0f046562201dafac330fc64448e772b6f8445e40d458439fad21ffb5fceecbc9ce09dc6db046a3bc6e31c11276803b86dc2e34b641f6b3543cd1b05c23e0b9db470bf7623f2645680394999eaeca25dedac3fd589db42b130686c2c7d7c7265263b51f3f46a7203c959a1d838e45794c62bb243cf16c78830bdb7ce548de6a1769de58c2f258641492bcfcc1449fb7d101cbc7b01266d40b2640573206cacba7b8cdcae00e535ee4472746a8ae29c03662243f5699f1d144f9b0da66c2b3042f964155e54cfec9bb6448a68dffe1985201fac435ab898c55b73059929549d494550e4768c613e9f2c59651d435c173fd5fe292108e37d65db1868a9d44951c85fb3c232ec94662371fb4d216555ae027746a80626642c8fa5024d13acdbc90a53b79c0a4603001949438062e1a05a9186bd9513b58bb3c19defa59d4fe71edfe9adef4aee6d5a52bf08e99b4bd589eac4b9778e426bdb50ea442923a555c2dd6bdfb0a166aedf55ea310f73d429872a5488059537e99ec2ba4a0fb6e3c51c3281ae7008233b3dc9e9688f6672de4c3a8ea016f5365d1b82561a3cc0bfd1d57b0a4e9462b81a7fcbb7769360e78f51f68156005605ad219b1ab5e6a0733bb6a5dc655a38face4f8a0310699271739c7f3791f2605c3e57b68643ee123cb735ed9f7d6d9c078e560cc8f12525897f0a05ff79be172d47bdffcaaac5e865485ca0df5a100e649045450a6316e69b50c240a041df3ebe585c606b31cff2108b2b3dcb1026f5a559f3c3e3c3e03766b7f2a36bf43daeb0ec87066f3fbd019556854d4821d3001425ce2a86e95ae9a9ae0a16866e55146943dd1c7a77fde7c360a81b86639ecf1799ad28efc895fdda55d3cdf383370c68137942b6a873df0cb5fe9e440c263ade4c5a1e5aacfb71d0644a9a9442aaa8839478d75d3af86716a6a2b68d6ac2b626a1b0e9573b3507388605cd8168b1fddd95d7761f0e186be448ac6df07d26947a844990eef810496809989c0d6fcf0f11a38a1923ad841289dd2ae32f63e5de14b1b40ed134706ac64ec4ccc12b69dfe7091994862355a97f93dacaf7fe2a11f8f8e34f405196188a4ee51686cddba2a255fce2127d2e969ee8b60a55e2b8efcdcff05d99d1661d49a0fdb8b5edc6f12b341bdbce53a7cba443b207fa37ece712234aa1998f4ecc0c6390fb3ace90db8d9569859e8693c2d21bec517eabce5e59fd31c031f12c70b16400b55b414a89fc65296dd201609a9361918f5990d64e09b06b43b03b1f3648ced7fa2012475c46524d0f8e0de9782c41c86ccf97273b43bef42e5c42593ebab3fc3bce25188ac58be390d9ad645d2a2d3de037b1d597148cb4aedbc3f14082387284f60352f3"
      ],
      "sequence": 4294967294
    }
  ],
  "vout": [
    {
      "value": 1.0,
      "n": 0,
      "scriptPubKey": {
        "asm": "OP_RETURN 9b36039becc22c2d204d30fb8d862dc94025f57cf8654d5f251e47cf88b27d89 49e2d432e52ef41a8d21ac4f815caf1dcb389ac6a85a330163c0a8d15068808269c2f412c50ed43aad018c6fa17c8f3deb18bae6887a132143e088f17048a0a209a29472a56eb45acd61ec0fc11cef5d8b78da86e81a73412380e8911028c0c22982b452854e947aed41cc2fe13ccf7dab58faa6c83a536103a0c8b13008e0e2c96254b265ae749a0da12ccf01dc2f9d4bb81a4628dab381e3402851d0e80002e9427492458e54ba2d810cef21fc0fbd6b983a6608fa93a1c3600871f0c82022892214f225ee34da4de16c8f419c6fdd0bf85a06689af3c1a300681190a84042a90234d205ce14fa6dc14caf61bc4ffd2bd87a2648bad3e183204831b088606249e2d432e52ef41a8d21ac4f815caf1dcb389ac6a85a330163c0a8d15068808269c2f412c50ed43aad018c6fa17c8f3deb18bae6887a132143e088f17048a0a209a29472a56eb45acd61ec0fc11cef5d8b78da86e81a73412380e8911028c0c22982b452854e947aed41cc2fe13ccf7dab58faa6c83a536103a0c8b13008e0e2c96254b265ae749a0da12ccf01dc2f9d4bb81a4628dab381e3402851d0e80002e9427492458e54ba2d810cef21fc0fbd6b983a6608fa93a1c3600871f0c82022892214f225ee34da4de16c8f419c6fdd0bf85a06689af3c1a300681190a84042a90234d205ce14fa6dc14caf61bc4ffd2bd87a2648bad3e183204831b088606249e2d432e52ef41a8d21ac4f815caf1dcb389ac6a85a330163c0a8d15068808269c2f412c50ed43aad018c6fa17c8f3deb18bae6887a132143e088f17048a0a209a29472a56eb45acd61ec0fc11cef5d8b78da86e81a73412380e8911028c0c22982b452854e947aed41cc2fe13ccf7dab58faa6c83a536103a0c8b13008e0e2c96254b265ae749a0da12ccf01dc2f9d4bb81a4628dab381e3402851d0e80002e9427492458e54ba2d810cef21fc0fbd6b983a6608fa93a1c3600871f0c82022892214f225ee34da4de16c8f419c6fdd0bf85a06689af3c1a300681190a84042a90234d205ce14fa6dc14caf61bc4ffd2bd87a2648bad3e183204831b088606249e2d432e52ef41a8d21ac4f815caf1dcb389ac6a85a330163c0a8d15068808269c2f412c50ed43aad018c6fa17c8f3deb18bae6887a132143e088f17048a0a209a29472a56eb45acd61ec0fc11cef5d8b78da86e81a73412380e8911028c0c22982b452854e947aed41cc2fe13ccf7dab58faa6c83a536103a0c8b13008e0e2c96254b265ae749a0da12ccf01dc2f9d4bb81a4628dab381e3402851d0e80002e9427492458e54ba2d810cef21fc0fbd6b983a6608fa93a1c3600871f0c82022892214f225ee34da4de16c8f419c6fdd0bf85a06689af3c1a300681190a84042a90234d205ce14fa6dc14caf61bc4ffd2bd87a2648bad3e183204831b088606249e2d432e52ef41a8d21ac4f815caf1dcb389ac6a85a330163c0a8d15068808269c2f412c50ed43aad018c6fa17c8f3deb18bae6887a132143e088f17048a0a209a29472a56eb45acd61ec0fc11cef5d8b78da86e81a73412380e8911028c0c22982b452854e947aed41cc2fe13ccf7dab58faa6c83a536103a0c8b13008e0e2c96254b265ae749a0da12ccf01dc2f9d92853ccd50c3455df6728247278c716996d2bbb26bf390c5def622d2214595de",
        "hex": "6a209b36039becc22c2d204d30fb8d862dc94025f57cf8654d5f251e47cf88b27d894db00449e2d432e52ef41a8d21ac4f815caf1dcb389ac6a85a330163c0a8d15068808269c2f412c50ed43aad018c6fa17c8f3deb18bae6887a132143e088f17048a0a209a29472a56eb45acd61ec0fc11cef5d8b78da86e81a73412380e8911028c0c22982b452854e947aed41cc2fe13ccf7dab58faa6c83a536103a0c8b13008e0e2c96254b265ae749a0da12ccf01dc2f9d4bb81a4628dab381e3402851d0e80002e9427492458e54ba2d810cef21fc0fbd6b983a6608fa93a1c3600871f0c82022892214f225ee34da4de16c8f419c6fdd0bf85a06689af3c1a300681190a84042a90234d205ce14fa6dc14caf61bc4ffd2bd87a2648bad3e183204831b088606249e2d432e52ef41a8d21ac4f815caf1dcb389ac6a85a330163c0a8d15068808269c2f412c50ed43aad018c6fa17c8f3deb18bae6887a132143e088f17048a0a209a29472a56eb45acd61ec0fc11cef5d8b78da86e81a73412380e8911028c0c22982b452854e947aed41cc2fe13ccf7dab58faa6c83a536103a0c8b13008e0e2c96254b265ae749a0da12ccf01dc2f9d4bb81a4628dab381e3402851d0e80002e9427492458e54ba2d810cef21fc0fbd6b983a6608fa93a1c3600871f0c82022892214f225ee34da4de16c8f419c6fdd0bf85a06689af3c1a300681190a84042a90234d205ce14fa6dc14caf61bc4ffd2bd87a2648bad3e183204831b088606249e2d432e52ef41a8d21ac4f815caf1dcb389ac6a85a330163c0a8d15068808269c2f412c50ed43aad018c6fa17c8f3deb18bae6887a132143e088f17048a0a209a29472a56eb45acd61ec0fc11cef5d8b78da86e81a73412380e8911028c0c22982b452854e947aed41cc2fe13ccf7dab58faa6c83a536103a0c8b13008e0e2c96254b265ae749a0da12ccf01dc2f9d4bb81a4628dab381e3402851d0e80002e9427492458e54ba2d810cef21fc0fbd6b983a6608fa93a1c3600871f0c82022892214f225ee34da4de16c8f419c6fdd0bf85a06689af3c1a300681190a84042a90234d205ce14fa6dc14caf61bc4ffd2bd87a2648bad3e183204831b088606249e2d432e52ef41a8d21ac4f815caf1dcb389ac6a85a330163c0a8d15068808269c2f412c50ed43aad018c6fa17c8f3deb18bae6887a132143e088f17048a0a209a29472a56eb45acd61ec0fc11cef5d8b78da86e81a73412380e8911028c0c22982b452854e947aed41cc2fe13ccf7dab58faa6c83a536103a0c8b13008e0e2c96254b265ae749a0da12ccf01dc2f9d4bb81a4628dab381e3402851d0e80002e9427492458e54ba2d810cef21fc0fbd6b983a6608fa93a1c3600871f0c82022892214f225ee34da4de16c8f419c6fdd0bf85a06689af3c1a300681190a84042a90234d205ce14fa6dc14caf61bc4ffd2bd87a2648bad3e183204831b088606249e2d432e52ef41a8d21ac4f815caf1dcb389ac6a85a330163c0a8d15068808269c2f412c50ed43aad018c6fa17c8f3deb18bae6887a132143e088f17048a0a209a29472a56eb45acd61ec0fc11cef5d8b78da86e81a73412380e8911028c0c22982b452854e947aed41cc2fe13ccf7dab58faa6c83a536103a0c8b13008e0e2c96254b265ae749a0da12ccf01dc2f9d92853ccd50c3455df6728247278c716996d2bbb26bf390c5def622d2214595de",
        "type": "nulldata"
      }
    },
    {
      "value": 499961.3578,
      "n": 1,
      "scriptPubKey": {
        "asm": "1 527f9d18aa9c743130fc921bbd0db9ab656aa6ad3259c88a133b9ab665cc1498",
        "hex": "5120527f9d18aa9c743130fc921bbd0db9ab656aa6ad3259c88a133b9ab665cc1498",
        "reqSigs": 1,
        "type": "witness_v1_scripthash",
        "addresses": [
          "3QJmnh"
        ]
      }
    }
  ],
  "blockhash": "c0ea0e6b16ad20f35d4757cbcff39c3d199dbd7e252fa8e6bc9f3f36ee858c22",
  "confirmations": 1,
  "time": 1764183276,
  "blocktime": 1764183276
}