{
  "hex": "010000000001019e67c02172f1e50faa20ed7bcd3bf27889332ab9e5100328b3583e159602c6670100000000feffffff02d02296e4782d00002251207629f4db3630db24bf6c1ad550935db70fde5a155db54ec73e93cb17a9699d8200e1f50500000000fdd5046a2083ae82e7d0fd4ccae705ea29a885e850df894d4352ded903364df3f34e082f1b4db0045ce8f3559497892e47a1e0a0c588f20bd486ece280117a06cec5c093823d0d977cc8d375b4b7a90e6781c080e5a8d22bf4a6ccc2a0315a26eee5e0b3a21d2db71ca8b315d4d7c96e07e1a0e085c8b24b94c6aca2c0513a468e8580d3c27d4dd73c889335f4f7e94e27c180c0a5e8926bb4e68c82e0711a66aea5a0f3e25d6df7dc6873d5141709aec72160204508728b54066c620091fa864e45401302bd8d17fc4853f53437298ee7014000652852ab74264c4220b1daa66e656033229dad379c283395545749ee87612060054832cb14462c2240d1bac60e05005342fdcd57bc0813b5747769cea7410040256812eb34660c0260f19ae62e25207362dded775ce8f3559497892e47a1e0a0c588f20bd486ece280117a06cec5c093823d0d977cc8d375b4b7a90e6781c080e5a8d22bf4a6ccc2a0315a26eee5e0b3a21d2db71ca8b315d4d7c96e07e1a0e085c8b24b94c6aca2c0513a468e8580d3c27d4dd73c889335f4f7e94e27c180c0a5e8926bb4e68c82e0711a66aea5a0f3e25d6df7dc6873d5141709aec72160204508728b54066c620091fa864e45401302bd8d17fc4853f53437298ee7014000652852ab74264c4220b1daa66e656033229dad379c283395545749ee87612060054832cb14462c2240d1bac60e05005342fdcd57bc0813b5747769cea7410040256812eb34660c0260f19ae62e25207362dded775ce8f3559497892e47a1e0a0c588f20bd486ece280117a06cec5c093823d0d977cc8d375b4b7a90e6781c080e5a8d22bf4a6ccc2a0315a26eee5e0b3a21d2db71ca8b315d4d7c96e07e1a0e085c8b24b94c6aca2c0513a468e8580d3c27d4dd73c889335f4f7e94e27c180c0a5e8926bb4e68c82e0711a66aea5a0f3e25d6df7dc6873d5141709aec72160204508728b54066c620091fa864e45401302bd8d17fc4853f53437298ee7014000652852ab74264c4220b1daa66e656033229dad379c283395545749ee87612060054832cb14462c2240d1bac60e05005342fdcd57bc0813b5747769cea7410040256812eb34660c0260f19ae62e25207362dded775ce8f3559497892e47a1e0a0c588f20bd486ece280117a06cec5c093823d0d977cc8d375b4b7a90e6781c080e5a8d22bf4a6ccc2a0315a26eee5e0b3a21d2db71ca8b315d4d7c96e07e1a0e085c8b24b94c6aca2c0513a468e8580d3c27d4dd73c889335f4f7e94e27c180c0a5e8926bb4e68c82e0711a66aea5a0f3e25d6df7dc6873d5141709aec72160204508728b54066c620091fa864e45401302bd8d17fc4853f53437298ee7014000652852ab74264c4220b1daa66e656033229dad379c283395545749ee87612060054832cb14462c2240d1bac60e05005342fdcd57bc0813b5747769cea7410040256812eb34660c0260f19ae62e25207362dded775ce8f3559497892e47a1e0a0c588f20bd486ece280117a06cec5c093823d0d977cc8d375b4b7a90e6781c080e5a8d22bf4a6ccc2a0315a26eee5e0b3a21d2db71ca8b315d4d7c96e07e1a0e085c8b24b94c6aca2c0513a468e8580d3c27d4dd73c889335f4f7e94e27c180c0a5e8926bb4e68c82e0711a66aea5a0f3e25d6df7dc6873d5141709aec72160204508728b2125b5eeca48391ed3309a268e9b8d03f834a1fc29e80e5fb0388cfbc8b5417b02fd75097062f243537f5a54336e82f88e03aa9a656b7b7a0a781acfc1dd1abf9deceda5b29e388533fa19a919f424a4c5ca6fd12fbb144c51797bf0cdca5b49e2983b7f2b36b24a85572d7922eb6d4f78f976d706d6753b238a3babe21c25f2b2065403dfb7293ff0aa842f115d9ad1458a2124e4b66b4fcd6c2bb2cb94c84b64b042259264527d92cbfb5ee260ef8939f036daa4f42ba9511a3796e73a475e1450722f499c1a44ee6f7b5c1399714fd1cfaa8b2470635f9632d601884c8241b1ecf433598c6524e6d46a8a46551ba426e9d2a963dc780274f1371c10c50ab1606a37ff64796eaf3d193a8515bd642a2c63ab4a4eba4ec6ffc70d93abb739b4fc324981f5297eff5f4d38b93ca92e5b403c6b1bf011b8c61e749690dc237a11a6026cbd5b4cf47001627c0f8a6818b9fac139cf53c8c93e1b5c203b833999922d149944007e0d8ebb222cf92e862fec839322cecfa3f3909db1914243d8943955a0d3f851a2bc779932de2d0eae0ade16871fd2d174c4b1f168e6b45ef9f4315a17da137ce2a122c77b2343fd060cad12d961314ac09238d829f10f8b976e81ecd659d625b1cd50c7277bae9dbe2a954709566d9572edfd2cfc5abcd5e7a52237e36ab7debfffbc175306eedfd261b9bef6b814e79966af17538a064cb2589732d4ec981bf738a46e2660913134947854d0c9e2b6254087aa098a48b3f0e40afa4f040cc48072fe1fc37284037f08b5d1c48da025ef2eaecb65c1b49dcb8a632097e3c0d09864747d55b9930951594b9b1c94ba0add245a3b709298fa63d3301a1ce35bbcb1aeb6fae3b35dcd129eaca43b1d4d72f2df6644059a4d393695005664a79d50bbe75c239d1c0a509e38f33accaa88626cac6a0147ff0ec338b7ab33331d1560cec3f05ca6ade35bc4e6689d53699fc5b379ada51ef5ded4a11b9693ef6eb1b03939e0d0724c202fa11b8d8ed83130712b5605361fb85bcaddb0ce66bf703537036111facbc607785b428648dd0c3061ff5835867aabeab761cc73390ca0cdef7018d383a292eaba44480332391c8987c7d615cd63a74ca0e35ec916df253b80656b39aea8b7acbaeda0b38af1a3c904a9a59183c400629d21e27d70f2046af0a2152af3b08cb54c81b984ccf982e881f764c161ecee53b6cd20c77c3d0642643a59084022556f57dc16eca6fcde8616c817a75d0d7d1b690c934230fadb4ef467d6f53213e3633ddbf85faded216a4bb271b5ecb9d1fbec83c9e2e6030e707ab7226ae32c23be89c61ab1f5b54633d92ce4bac79331674baf18bb20dfc4a890cf6925d01cac8cb281a6ab70b3c2f72b480b42dddb46ace41c1ba8573af73e174f165e99f48a982a4b3d8a0a7af5b1b930fbff807d711f3d105efdc2ab68f725d1a9693dd42836450c5b8aa4d9690ff07aada6ee9cb16f1c53a697d2dd5b03ade3e589378182fcfafb46ad7288a4df27d80c3b57a031b9189f1dab63c343f42053372dfc9ff92b53aaa802ff9a77a3f42a3a8b3ac0e86e7004d9504187c31ea09dfcc69de69f9e78796133c3b38ae6691a6eb8c08468f3a97a6903bd7ab874689fb3eb0bf86a64890ec72fc0848496b7862accdcb5982d2d7ff833bacc4bf3c3c2c50ee377dbc2606bd1a5d680597b1fbac46d8b2d8227c73799b7fe6b2ec6f308156395ccb8985d026c3e595d5aae7a6ff5c8e4978266ddd9cc705b45efa415141223ebe61ca093ce90c303098d031926ba75863069bfb6aa585b158f3f1df07861faaca71d0bfb47e6f88add0a9343f288a9e42412a994e711aeabc9dd2241fb7c8a18d9cab49d437b567d10dd3deb2a9cc7b4c636f219492d329d3867fc6ad07fb25f6fcfcde370849c051fbcc4013d769f27bc9e62e192bb8854d403107113238c2e8b76de59801b9a50e873eb5f81d463ea84d0c84aa90818136e0bf88fe3b73107a1b76b2f29e225e803e0780a47a2d5a8c7565eb7e7dbecd55ab7776c473b4b45c08495b5a19acc198fa7593666b191082238d3953838727a38d8f2d458b2dbf8477979bf5eb484add01fc23ce4675439228cd472c78ae42ed2c1780a4c8977920d9308d3f880baa2048db5814b8005f1063d43479d5b93d2e976593088256c99e018576ac69ac3c0b94ac002a174bfc7b82bd04ad6cb7ceba5add3c4697b0005b782e06ce850125dfd50d5121fd9bc85dc294d1a99422b545e788af236947cf1732536e7ab66dc0bc2f5437d78d551c116e649818f9ad45c7c7ca66d8a5936131e88f08ab2db9aa091e161fd5c8210c3fb477cec82a6f2b848561ee66781305fbb8e434fd683f48beac5fe1f942db467b6a72705eddac75569e384da69ad39170efc3fb70a8942f19c04f43a337c59bb1207ca6aaa1f6e28806a481d6bb7003c7e78671269e8cef6c4ad55b3ec12ee1fff87a8242202030dc477e3594dbf9b020e80dd8fa907fa804bbc5c890634ea82a672e3f8250a342cbfe76c1529430f073c6768e731a7b2a916c71bd7c11e98d8dfa3b92c61f490d003ad1f7527721da15eee6cf0630c8a16ce07f63fe190af6b6aced0ce61abf7261c5579429791c52edc5e5b917b6001e3354b76c803e2f03d6f8e678e2e9f72a5d398363d3eab198b373d23b93bd00b81a9482e25cd2f9dd1c1fcee09ea9a708aa827ee982f1e018dafea7c0e46edef01eae941dbe21690317bf0e7ce25b2bee73f4d5c79bab36c465e326a367485f3e85197a6604d7c36fc6bd90605ed7192ba76fef806601f4875b1c34b18b3e0dd3cc01cc59ad8e208e4024a279118b1ea8455fb95a5dd821b524a653a79ad9eebcf94cabaa894e03a22504d2bdccb43685b5bead941f31325864a8e24c5e25a5751fd0e5409b3c2ae72a89131347da42156547492c55123bfa1e35e75bcf0a2ada1a6a20527c453cb6cfc7178ee8191d818dd6e939c397f34eaeefcc4f9002e8421ceaa995daf18a799227c7db239b989d7d5844acbdd2cf252f367a18296a7de1dc840bbe3b62b6228926abc5435756ae31fc6db3b97d6589f04ba946ba225c672811702775bbcdd34572cb80c8779ab1dbb93deb31cb75cf7bc1511f5cb4057313029ac882c78e597108eaa23f1bf4c88270c816c719787f72ed8bacaca9a5db969917a3a89263b5b5ca5a89508badb357814bfe7ce2950531da3a1376dc232859e750d979d117283b8f42ad8759c91cf4fe6f53e043ead127e38fc6c728bfa7614087aaceaa0b12a0dd6b00f063c7f68223aa813809e992b2d8a70bfd0ec9be811b98b155f6487f76da3104de6281e3e886d08060d1152acb4b5cfd9ee141e2a3235424a56686a90a7b7c1eaf2f8fa04282c2e314a595d606a828a8ca1adaff1023032355e6a87a9acb2b6c2d1ec0000000000000000000000000000000000000000000a1c2d3b01fd210500b70ae2209d8354d552dd8f755fa89d1450466dcbdf73df2bc84a68a712207807903e06602eea40b995d39854e6a7be8896e31270d5e302cd3d37eb9132dd7657db56cb7a9dc81b09084daeb121ef7dc7d1ac0ad9857129cb124f2943a45029ef99c658a1346a9097d01538b3a15cfb7c84013f2645a17b47c5720c6127f3a52f0569603d576bd06c572e07c3a1228346fe6677acd5fc2e904908c10fa610dc3f981ff566bcc6db7a32209a413e147a62451fbdb3b779f7ead61b75d85e8c9892bf7719418310f2fcc45346f973a8499dfdd977e4a97e4b5df538d80952d87fc79add7cba42fc289fadb34acc7344991d7d86d075be5ea6f06c427b11b030d39b689ae325d6963e6fc283b0870c285925a99da45bcf7354c7eda98cde2e72e513f7b0cc9a4a0d54607a8719e7e9b97fd4ef5a310b52ff9c62c64e803134546bab807a7aa05f7ae159c54989396f0e7134858c283f0334468be73b0130f6f59b6c3b2f09547c9e604fb87ae52a429260497496d2f0aec396240ae0fdc7fd0509a22ed431e758d4a1146b33bfaf5b15379ad69bf42d53685bf8c7b7b4a3499ae5cfd8e1e9fdbd11cd9a7cec10d4dfda80e048148f5582ffbd105f1c4a0e53e14d869fa0506212bde1a1e94505334afdeaf4bf2c3bb4bc0c1088f1db1592e7b042515c7d5ff69f5c85993a91c68921c3fb55aa46a63bee54d38f6baa4a624d61ca5d30e24d6467c642e3dc49ff7178432bc7e67bd0385eadb212b4d3c5cfd38859b739476fc051c995a2a95a433a4f2dba50317abb815aa6770a80512da0e37342342ff5f5424a8a364a7c4365ce661131bae12b01d896bd48e736e53d7a82fbd3c9adec5da03aca1f4a271c1d66c46f6c8875e37c2d1aa6680c8e43f07b7cb851c2bddeffaa468414291921cdb5cbf5fab6ca7994a89c5782d4732df9b9af1c63e0d9bb9cfe8aa43b471898f6b8db128c2f2f511313ce85b2dd0b8f203e28105b32a8f2b7f33c255b87dee480af5102d68846362d5cdbddea012e1bbefe2348171bacd1a1b1ee73ff4da31606f1120b46d20afef6ca152e1c4137b93cfc0937892dd3756fc11603cacbf51e9ae4763d5e83abaef0c5b2011b61d9909716d258d5ccdf996b9f3cd562254d14e8765511df9ae9cd58194769ae4c7baf7b8bf2a4fee639261abe63d0ec45a54e02231d7405066927dcaf988355a657561e60250f51c92e8b09a4917e25820ed93d732cb5c64fbe0a8bf3c41bad1ad7f4cb5f112098a3f516b38c47cc9f179e6e269a6f8f7f65b500d37eca1889415e0e6cbeb7be4847a83e6cfce9f13bc237ae96c99fd45c705628bde4c3dce9174c26b2212ad7a0bcb424ccf90ddaecf5fabe850149963cc9f599d3ab032e8161ade2740a5194633f0d57af37517cbf783dcd2137c51284c78e52f70acca1b57b7125ea3a226e069c8aaa50e4c51660b30b7be9fa9ad97b190bf783e3c8d420fd781aadac0b065409a86fe6eec391121bb97f028a8905155d38bebf362c271044241b64e3217c1e3762e3bbda6705045f548d102439d9bc4e103fde3fa3068daf9f3061b05b5330b7c9306cb26b79214d375ea6190f76c6aeca296ec57042896303d3af440e1ece4c84cb79de1b54dc2e262881c2addbaa93d1cf3e5f6753f6954dd609a2dca42de197b51799d3f6dad831cad4978df3881bf39190c3aeb4123516c7d9e2bf9248faac4d32141a0248722b390b1d2be40b17201f66cb58168d6a5b22a2ecc648a88de02373e5b4f6dc49abbaf0974dbb37f504eb74c037a548a98018f709c8d6126de85dd6dc27c70a67bf0d422ada682081c4c556fcaeb1b3948b1b8565a4d325e188000000",
  "txid": "d711b897d2987e1063eb666688fe63b17040d99971121c571b02ec64c4170cf2",
  "hash": "a2e297e0886607d0260d3a1565bc39d08d3873b4e0795c65375ee953cbad3612",
  "size": 5085,
  "vsize": 2278,
  "version": 1,
  "locktime": 136,
  "vin": [
    {
      "txid": "67c60296153e58b3280310e5b92a338978f23bcd7bed20aa0fe5f17221c0679e",
      "vout": 1,
      "scriptSig": {
        "asm": "",
        "hex": ""
      },
      "txinwitness": [
        "7062f243537f5a54336e82f88e03aa9a656b7b7a0a781acfc1dd1abf9deceda5b29e388533fa19a919f424a4c5ca6fd12fbb144c51797bf0cdca5b49e2983b7f2b36b24a85572d7922eb6d4f78f976d706d6753b238a3babe21c25f2b2065403dfb7293ff0aa842f115d9ad1458a2124e4b66b4fcd6c2bb2cb94c84b64b042259264527d92cbfb5ee260ef8939f036daa4f42ba9511a3796e73a475e1450722f499c1a44ee6f7b5c1399714fd1cfaa8b2470635f9632d601884c8241b1ecf433598c6524e6d46a8a46551ba426e9d2a963dc780274f1371c10c50ab1606a37ff64796eaf3d193a8515bd642a2c63ab4a4eba4ec6ffc70d93abb739b4fc324981f5297eff5f4d38b93ca92e5b403c6b1bf011b8c61e749690dc237a11a6026cbd5b4cf47001627c0f8a6818b9fac139cf53c8c93e1b5c203b833999922d149944007e0d8ebb222cf92e862fec839322cecfa3f3909db1914243d8943955a0d3f851a2bc779932de2d0eae0ade16871fd2d174c4b1f168e6b45ef9f4315a17da137ce2a122c77b2343fd060cad12d961314ac09238d829f10f8b976e81ecd659d625b1cd50c7277bae9dbe2a954709566d9572edfd2cfc5abcd5e7a52237e36ab7debfffbc175306eedfd261b9bef6b814e79966af17538a064cb2589732d4ec981bf738a46e2660913134947854d0c9e2b6254087aa098a48b3f0e40afa4f040cc48072fe1fc37284037f08b5d1c48da025ef2eaecb65c1b49dcb8a632097e3c0d09864747d55b9930951594b9b1c94ba0add245a3b709298fa63d3301a1ce35bbcb1aeb6fae3b35dcd129eaca43b1d4d72f2df6644059a4d393695005664a79d50bbe75c239d1c0a509e38f33accaa88626cac6a0147ff0ec338b7ab33331d1560cec3f05ca6ade35bc4e6689d53699fc5b379ada51ef5ded4a11b9693ef6eb1b03939e0d0724c202fa11b8d8ed83130712b5605361fb85bcaddb0ce66bf703537036111facbc607785b428648dd0c3061ff5835867aabeab761cc73390ca0cdef7018d383a292eaba44480332391c8987c7d615cd63a74ca0e35ec916df253b80656b39aea8b7acbaeda0b38af1a3c904a9a59183c400629d21e27d70f2046af0a2152af3b08cb54c81b984ccf982e881f764c161ecee53b6cd20c77c3d0642643a59084022556f57dc16eca6fcde8616c817a75d0d7d1b690c934230fadb4ef467d6f53213e3633ddbf85faded216a4bb271b5ecb9d1fbec83c9e2e6030e707ab7226ae32c23be89c61ab1f5b54633d92ce4bac79331674baf18bb20dfc4a890cf6925d01cac8cb281a6ab70b3c2f72b480b42dddb46ace41c1ba8573af73e174f165e99f48a982a4b3d8a0a7af5b1b930fbff807d711f3d105efdc2ab68f725d1a9693dd42836450c5b8aa4d9690ff07aada6ee9cb16f1c53a697d2dd5b03ade3e589378182fcfafb46ad7288a4df27d80c3b57a031b9189f1dab63c343f42053372dfc9ff92b53aaa802ff9a77a3f42a3a8b3ac0e86e7004d9504187c31ea09dfcc69de69f9e78796133c3b38ae6691a6eb8c08468f3a97a6903bd7ab874689fb3eb0bf86a64890ec72fc0848496b7862accdcb5982d2d7ff833bacc4bf3c3c2c50ee377dbc2606bd1a5d680597b1fbac46d8b2d8227c73799b7fe6b2ec6f308156395ccb8985d026c3e595d5aae7a6ff5c8e4978266ddd9cc705b45efa415141223ebe61ca093ce90c303098d031926ba75863069bfb6aa585b158f3f1df07861faaca71d0bfb47e6f88add0a9343f288a9e42412a994e711aeabc9dd2241fb7c8a18d9cab49d437b567d10dd3deb2a9cc7b4c636f219492d329d3867fc6ad07fb25f6fcfcde370849c051fbcc4013d769f27bc9e62e192bb8854d403107113238c2e8b76de59801b9a50e873eb5f81d463ea84d0c84aa90818136e0bf88fe3b73107a1b76b2f29e225e803e0780a47a2d5a8c7565eb7e7dbecd55ab7776c473b4b45c08495b5a19acc198fa7593666b191082238d3953838727a38d8f2d458b2dbf8477979bf5eb484add01fc23ce4675439228cd472c78ae42ed2c1780a4c8977920d9308d3f880baa2048db5814b8005f1063d43479d5b93d2e976593088256c99e018576ac69ac3c0b94ac002a174bfc7b82bd04ad6cb7ceba5add3c4697b0005b782e06ce850125dfd50d5121fd9bc85dc294d1a99422b545e788af236947cf1732536e7ab66dc0bc2f5437d78d551c116e649818f9ad45c7c7ca66d8a5936131e88f08ab2db9aa091e161fd5c8210c3fb477cec82a6f2b848561ee66781305fbb8e434fd683f48beac5fe1f942db467b6a72705eddac75569e384da69ad39170efc3fb70a8942f19c04f43a337c59bb1207ca6aaa1f6e28806a481d6bb7003c7e78671269e8cef6c4ad55b3ec12ee1fff87a8242202030dc477e3594dbf9b020e80dd8fa907fa804bbc5c890634ea82a672e3f8250a342cbfe76c1529430f073c6768e731a7b2a916c71bd7c11e98d8dfa3b92c61f490d003ad1f7527721da15eee6cf0630c8a16ce07f63fe190af6b6aced0ce61abf7261c5579429791c52edc5e5b917b6001e3354b76c803e2f03d6f8e678e2e9f72a5d398363d3eab198b373d23b93bd00b81a9482e25cd2f9dd1c1fcee09ea9a708aa827ee982f1e018dafea7c0e46edef01eae941dbe21690317bf0e7ce25b2bee73f4d5c79bab36c465e326a367485f3e85197a6604d7c36fc6bd90605ed7192ba76fef806601f4875b1c34b18b3e0dd3cc01cc59ad8e208e4024a279118b1ea8455fb95a5dd821b524a653a79ad9eebcf94cabaa894e03a22504d2bdccb43685b5bead941f31325864a8e24c5e25a5751fd0e5409b3c2ae72a89131347da42156547492c55123bfa1e35e75bcf0a2ada1a6a20527c453cb6cfc7178ee8191d818dd6e939c397f34eaeefcc4f9002e8421ceaa995daf18a799227c7db239b989d7d5844acbdd2cf252f367a18296a7de1dc840bbe3b62b6228926abc5435756ae31fc6db3b97d6589f04ba946ba225c672811702775bbcdd34572cb80c8779ab1dbb93deb31cb75cf7bc1511f5cb4057313029ac882c78e597108eaa23f1bf4c88270c816c719787f72ed8bacaca9a5db969917a3a89263b5b5ca5a89508badb357814bfe7ce2950531da3a1376dc232859e750d979d117283b8f42ad8759c91cf4fe6f53e043ead127e38fc6c728bfa7614087aaceaa0b12a0dd6b00f063c7f68223aa813809e992b2d8a70bfd0ec9be811b98b155f6487f76da3104de6281e3e886d08060d1152acb4b5cfd9ee141e2a3235424a56686a90a7b7c1eaf2f8fa04282c2e314a595d606a828a8ca1adaff1023032355e6a87a9acb2b6c2d1ec0000000000000000000000000000000000000000000a1c2d3b01",
        "00b70ae2209d8354d552dd8f755fa89d1450466dcbdf73df2bc84a68a712207807903e06602eea40b995d39854e6a7be8896e31270d5e302cd3d37eb9132dd7657db56cb7a9dc81b09084daeb121ef7dc7d1ac0ad9857129cb124f2943a45029ef99c658a1346a9097d01538b3a15cfb7c84013f2645a17b47c5720c6127f3a52f0569603d576bd06c572e07c3a1228346fe6677acd5fc2e904908c10fa610dc3f981ff566bcc6db7a32209a413e147a62451fbdb3b779f7ead61b75d85e8c9892bf7719418310f2fcc45346f973a8499dfdd977e4a97e4b5df538d80952d87fc79add7cba42fc289fadb34acc7344991d7d86d075be5ea6f06c427b11b030d39b689ae325d6963e6fc283b0870c285925a99da45bcf7354c7eda98cde2e72e513f7b0cc9a4a0d54607a8719e7e9b97fd4ef5a310b52ff9c62c64e803134546bab807a7aa05f7ae159c54989396f0e7134858c283f0334468be73b0130f6f59b6c3b2f09547c9e604fb87ae52a429260497496d2f0aec396240ae0fdc7fd0509a22ed431e758d4a1146b33bfaf5b15379ad69bf42d53685bf8c7b7b4a3499ae5cfd8e1e9fdbd11cd9a7cec10d4dfda80e048148f5582ffbd105f1c4a0e53e14d869fa0506212bde1a1e94505334afdeaf4bf2c3bb4bc0c1088f1db1592e7b042515c7d5ff69f5c85993a91c68921c3fb55aa46a63bee54d38f6baa4a624d61ca5d30e24d6467c642e3dc49ff7178432bc7e67bd0385eadb212b4d3c5cfd38859b739476fc051c995a2a95a433a4f2dba50317abb815aa6770a80512da0e37342342ff5f5424a8a364a7c4365ce661131bae12b01d896bd48e736e53d7a82fbd3c9adec5da03aca1f4a271c1d66c46f6c8875e37c2d1aa6680c8e43f07b7cb851c2bddeffaa468414291921cdb5cbf5fab6ca7994a89c5782d4732df9b9af1c63e0d9bb9cfe8aa43b471898f6b8db128c2f2f511313ce85b2dd0b8f203e28105b32a8f2b7f33c255b87dee480af5102d68846362d5cdbddea012e1bbefe2348171bacd1a1b1ee73ff4da31606f1120b46d20afef6ca152e1c4137b93cfc0937892dd3756fc11603cacbf51e9ae4763d5e83abaef0c5b2011b61d9909716d258d5ccdf996b9f3cd562254d14e8765511df9ae9cd58194769ae4c7baf7b8bf2a4fee639261abe63d0ec45a54e02231d7405066927dcaf988355a657561e60250f51c92e8b09a4917e25820ed93d732cb5c64fbe0a8bf3c41bad1ad7f4cb5f112098a3f516b38c47cc9f179e6e269a6f8f7f65b500d37eca1889415e0e6cbeb7be4847a83e6cfce9f13bc237ae96c99fd45c705628bde4c3dce9174c26b2212ad7a0bcb424ccf90ddaecf5fabe850149963cc9f599d3ab032e8161ade2740a5194633f0d57af37517cbf783dcd2137c51284c78e52f70acca1b57b7125ea3a226e069c8aaa50e4c51660b30b7be9fa9ad97b190bf783e3c8d420fd781aadac0b065409a86fe6eec391121bb97f028a8905155d38bebf362c271044241b64e3217c1e3762e3bbda6705045f548d102439d9bc4e103fde3fa3068daf9f3061b05b5330b7c9306cb26b79214d375ea6190f76c6aeca296ec57042896303d3af440e1ece4c84cb79de1b54dc2e262881c2addbaa93d1cf3e5f6753f6954dd609a2dca42de197b51799d3f6dad831cad4978df3881bf39190c3aeb4123516c7d9e2bf9248faac4d32141a0248722b390b1d2be40b17201f66cb58168d6a5b22a2ecc648a88de02373e5b4f6dc49abbaf0974dbb37f504eb74c037a548a98018f709c8d6126de85dd6dc27c70a67bf0d422ada682081c4c556fcaeb1b3948b1b8565a4d325e1"
      ],
      "sequence": 4294967294
    }
  ],
  "vout": [
    {
      "value": 499972.5437,
      "n": 0,
      "scriptPubKey": {
        "asm": "1 7629f4db3630db24bf6c1ad550935db70fde5a155db54ec73e93cb17a9699d82",
        "hex": "51207629f4db3630db24bf6c1ad550935db70fde5a155db54ec73e93cb17a9699d82",
        "reqSigs": 1,
        "type": "witness_v1_scripthash",
        "addresses": [
          "3QJmnh"
        ]
      }
    },
    {
      "value": 1.0,
      "n": 1,
      "scriptPubKey": {
        "asm": "OP_RETURN 83ae82e7d0fd4ccae705ea29a885e850df894d4352ded903364df3f34e082f1b 5ce8f3559497892e47a1e0a0c588f20bd486ece280117a06cec5c093823d0d977cc8d375b4b7a90e6781c080e5a8d22bf4a6ccc2a0315a26eee5e0b3a21d2db71ca8b315d4d7c96e07e1a0e085c8b24b94c6aca2c0513a468e8580d3c27d4dd73c889335f4f7e94e27c180c0a5e8926bb4e68c82e0711a66aea5a0f3e25d6df7dc6873d5141709aec72160204508728b54066c620091fa864e45401302bd8d17fc4853f53437298ee7014000652852ab74264c4220b1daa66e656033229dad379c283395545749ee87612060054832cb14462c2240d1bac60e05005342fdcd57bc0813b5747769cea7410040256812eb34660c0260f19ae62e25207362dded775ce8f3559497892e47a1e0a0c588f20bd486ece280117a06cec5c093823d0d977cc8d375b4b7a90e6781c080e5a8d22bf4a6ccc2a0315a26eee5e0b3a21d2db71ca8b315d4d7c96e07e1a0e085c8b24b94c6aca2c0513a468e8580d3c27d4dd73c889335f4f7e94e27c180c0a5e8926bb4e68c82e0711a66aea5a0f3e25d6df7dc6873d5141709aec72160204508728b54066c620091fa864e45401302bd8d17fc4853f53437298ee7014000652852ab74264c4220b1daa66e656033229dad379c283395545749ee87612060054832cb14462c2240d1bac60e05005342fdcd57bc0813b5747769cea7410040256812eb34660c0260f19ae62e25207362dded775ce8f3559497892e47a1e0a0c588f20bd486ece280117a06cec5c093823d0d977cc8d375b4b7a90e6781c080e5a8d22bf4a6ccc2a0315a26eee5e0b3a21d2db71ca8b315d4d7c96e07e1a0e085c8b24b94c6aca2c0513a468e8580d3c27d4dd73c889335f4f7e94e27c180c0a5e8926bb4e68c82e0711a66aea5a0f3e25d6df7dc6873d5141709aec72160204508728b54066c620091fa864e45401302bd8d17fc4853f53437298ee7014000652852ab74264c4220b1daa66e656033229dad379c283395545749ee87612060054832cb14462c2240d1bac60e05005342fdcd57bc0813b5747769cea7410040256812eb34660c0260f19ae62e25207362dded775ce8f3559497892e47a1e0a0c588f20bd486ece280117a06cec5c093823d0d977cc8d375b4b7a90e6781c080e5a8d22bf4a6ccc2a0315a26eee5e0b3a21d2db71ca8b315d4d7c96e07e1a0e085c8b24b94c6aca2c0513a468e8580d3c27d4dd73c889335f4f7e94e27c180c0a5e8926bb4e68c82e0711a66aea5a0f3e25d6df7dc6873d5141709aec72160204508728b54066c620091fa864e45401302bd8d17fc4853f53437298ee7014000652852ab74264c4220b1daa66e656033229dad379c283395545749ee87612060054832cb14462c2240d1bac60e05005342fdcd57bc0813b5747769cea7410040256812eb34660c0260f19ae62e25207362dded775ce8f3559497892e47a1e0a0c588f20bd486ece280117a06cec5c093823d0d977cc8d375b4b7a90e6781c080e5a8d22bf4a6ccc2a0315a26eee5e0b3a21d2db71ca8b315d4d7c96e07e1a0e085c8b24b94c6aca2c0513a468e8580d3c27d4dd73c889335f4f7e94e27c180c0a5e8926bb4e68c82e0711a66aea5a0f3e25d6df7dc6873d5141709aec72160204508728b2125b5eeca48391ed3309a268e9b8d03f834a1fc29e80e5fb0388cfbc8b5417b",
        "hex": "6a2083ae82e7d0fd4ccae705ea29a885e850df894d4352ded903364df3f34e082f1b4db0045ce8f3559497892e47a1e0a0c588f20bd486ece280117a06cec5c093823d0d977cc8d375b4b7a90e6781c080e5a8d22bf4a6ccc2a0315a26eee5e0b3a21d2db71ca8b315d4d7c96e07e1a0e085c8b24b94c6aca2c0513a468e8580d3c27d4dd73c889335f4f7e94e27c180c0a5e8926bb4e68c82e0711a66aea5a0f3e25d6df7dc6873d5141709aec72160204508728b54066c620091fa864e45401302bd8d17fc4853f53437298ee7014000652852ab74264c4220b1daa66e656033229dad379c283395545749ee87612060054832cb14462c2240d1bac60e05005342fdcd57bc0813b5747769cea7410040256812eb34660c0260f19ae62e25207362dded775ce8f3559497892e47a1e0a0c588f20bd486ece280117a06cec5c093823d0d977cc8d375b4b7a90e6781c080e5a8d22bf4a6ccc2a0315a26eee5e0b3a21d2db71ca8b315d4d7c96e07e1a0e085c8b24b94c6aca2c0513a468e8580d3c27d4dd73c889335f4f7e94e27c180c0a5e8926bb4e68c82e0711a66aea5a0f3e25d6df7dc6873d5141709aec72160204508728b54066c620091fa864e45401302bd8d17fc4853f53437298ee7014000652852ab74264c4220b1daa66e656033229dad379c283395545749ee87612060054832cb14462c2240d1bac60e05005342fdcd57bc0813b5747769cea7410040256812eb34660c0260f19ae62e25207362dded775ce8f3559497892e47a1e0a0c588f20bd486ece280117a06cec5c093823d0d977cc8d375b4b7a90e6781c080e5a8d22bf4a6ccc2a0315a26eee5e0b3a21d2db71ca8b315d4d7c96e07e1a0e085c8b24b94c6aca2c0513a468e8580d3c27d4dd73c889335f4f7e94e27c180c0a5e8926bb4e68c82e0711a66aea5a0f3e25d6df7dc6873d5141709aec72160204508728b54066c620091fa864e45401302bd8d17fc4853f53437298ee7014000652852ab74264c4220b1daa66e656033229dad379c283395545749ee87612060054832cb14462c2240d1bac60e05005342fdcd57bc0813b5747769cea7410040256812eb34660c0260f19ae62e25207362dded775ce8f3559497892e47a1e0a0c588f20bd486ece280117a06cec5c093823d0d977cc8d375b4b7a90e6781c080e5a8d22bf4a6ccc2a0315a26eee5e0b3a21d2db71ca8b315d4d7c96e07e1a0e085c8b24b94c6aca2c0513a468e8580d3c27d4dd73c889335f4f7e94e27c180c0a5e8926bb4e68c82e0711a66aea5a0f3e25d6df7dc6873d5141709aec72160204508728b54066c620091fa864e45401302bd8d17fc4853f53437298ee7014000652852ab74264c4220b1daa66e656033229dad379c283395545749ee87612060054832cb14462c2240d1bac60e05005342fdcd57bc0813b5747769cea7410040256812eb34660c0260f19ae62e25207362dded775ce8f3559497892e47a1e0a0c588f20bd486ece280117a06cec5c093823d0d977cc8d375b4b7a90e6781c080e5a8d22bf4a6ccc2a0315a26eee5e0b3a21d2db71ca8b315d4d7c96e07e1a0e085c8b24b94c6aca2c0513a468e8580d3c27d4dd73c889335f4f7e94e27c180c0a5e8926bb4e68c82e0711a66aea5a0f3e25d6df7dc6873d5141709aec72160204508728b2125b5eeca48391ed3309a268e9b8d03f834a1fc29e80e5fb0388cfbc8b5417b",
        "type": "nulldata"
      }
    }
  ],
  "blockhash": "c0ea0e6b16ad20f35d4757cbcff39c3d199dbd7e252fa8e6bc9f3f36ee858c22",
  "confirmations": 1,
  "time": 1764183276,
  "blocktime": 1764183276
}