{
  "hex": "01000000000101f43a38afee8385563a3b155d82ec91912f8cbdfe7bbf03adcfedaaf1a52ef0500100000000feffffff02407886de782d000022512051dde0e7824e91969523118c3a70bf9ae4c0b634650ae444676c47f85c7e877700e1f50500000000fdd5046a20cf0ac6b968bb56bf13e655c8f4d13fc94133fec0ecfbfb8722bdf20170413dcb4db00412ce515c1a067b649d5cd61aa104fb746a3cb7f3e8879b422ffd79592935d01732ee717c3a265b44bd7cf63a8124db544a1c97d3c8a7bb620fdd59790915f037528e111c5a463b24dd1c965ae144bb342a7cf7b3a8c7db026fbd39196975905772ae313c7a661b04fd3cb67ac1649b140a5cd79388e7fb224f9d19394955b077924ed1dc9a86fbe41ddc569a21847bf4eabc377368071bc2af7df9d9a9b55097b26ef1fcbaa6dbc43dfc76ba01a45bd4ca9c175348273be28f5dd9f9899570b7d20e919cdac6bba45d9c16da61c43bb4aafc773328475b82ef3db999e9f510d7f22eb1bcfae69b847dbc36fa41e41b948adc571308677ba2cf1d99b9c9d530f712ce515c1a067b649d5cd61aa104fb746a3cb7f3e8879b422ffd79592935d01732ee717c3a265b44bd7cf63a8124db544a1c97d3c8a7bb620fdd59790915f037528e111c5a463b24dd1c965ae144bb342a7cf7b3a8c7db026fbd39196975905772ae313c7a661b04fd3cb67ac1649b140a5cd79388e7fb224f9d19394955b077924ed1dc9a86fbe41ddc569a21847bf4eabc377368071bc2af7df9d9a9b55097b26ef1fcbaa6dbc43dfc76ba01a45bd4ca9c175348273be28f5dd9f9899570b7d20e919cdac6bba45d9c16da61c43bb4aafc773328475b82ef3db999e9f510d7f22eb1bcfae69b847dbc36fa41e41b948adc571308677ba2cf1d99b9c9d530f712ce515c1a067b649d5cd61aa104fb746a3cb7f3e8879b422ffd79592935d01732ee717c3a265b44bd7cf63a8124db544a1c97d3c8a7bb620fdd59790915f037528e111c5a463b24dd1c965ae144bb342a7cf7b3a8c7db026fbd39196975905772ae313c7a661b04fd3cb67ac1649b140a5cd79388e7fb224f9d19394955b077924ed1dc9a86fbe41ddc569a21847bf4eabc377368071bc2af7df9d9a9b55097b26ef1fcbaa6dbc43dfc76ba01a45bd4ca9c175348273be28f5dd9f9899570b7d20e919cdac6bba45d9c16da61c43bb4aafc773328475b82ef3db999e9f510d7f22eb1bcfae69b847dbc36fa41e41b948adc571308677ba2cf1d99b9c9d530f712ce515c1a067b649d5cd61aa104fb746a3cb7f3e8879b422ffd79592935d01732ee717c3a265b44bd7cf63a8124db544a1c97d3c8a7bb620fdd59790915f037528e111c5a463b24dd1c965ae144bb342a7cf7b3a8c7db026fbd39196975905772ae313c7a661b04fd3cb67ac1649b140a5cd79388e7fb224f9d19394955b077924ed1dc9a86fbe41ddc569a21847bf4eabc377368071bc2af7df9d9a9b55097b26ef1fcbaa6dbc43dfc76ba01a45bd4ca9c175348273be28f5dd9f9899570b7d20e919cdac6bba45d9c16da61c43bb4aafc773328475b82ef3db999e9f510d7f22eb1bcfae69b847dbc36fa41e41b948adc571308677ba2cf1d99b9c9d530f712ce515c1a067b649d5cd61aa104fb746a3cb7f3e8879b422ffd79592935d01732ee717c3a265b44bd7cf63a8124db544a1c97d3c8a7bb620fdd59790915f037528e111c5a463b24dd1c965ae144bb342a7cf7b3a8c7db026fbd39196975905772ae313c7a661b04fd3cb67ac1649b140a5cd79388e7fb224f9d19394955b077924ed1dc9a86fbe41ddc569a21847bf4b8fdd255f9a95786f24401477a1dfe6d8510ae8b75a1bcaf29561b5a6075a0f302fd75098f172ae149b2be5c4628b43744182c55daff1785352b7d5202065c10b31f49d9556f30b91abcb10c048977bfb1df027308c56a48466ec23b096a4dad748d31788365b9c813f10461b03bf53d36b63bb1bcd27b9d39b08ccbca8bb6521b5fa13d0a7e749962b35a1131c476af39d1e1c508892275aa6fff3201e54b1c40e631c520d2d5a04badb1799c82cb45ddb4ba500c8d6256fca207b87c0455bcb9783ac77cebd7e3260d1e1a2ea50f1094eb04851d5a4bfa77082e29cb1ec740e20fbe15e52edb400655df2db09486ea0139be131b7b5a03269f9d03d78b59b8f038dca378ca514057394971bbaec9f21e74c6f209d513583d8520baddecf28a88a1ed734d7fcd8b17e8142f157e20c7052a5205517db97de45e763755bc2c1fba654e482520de916c49b6decc546a6b3b3efa210b8b264322aa0905531b80b15429aa3a2cfbb12d3ecc6a56ddb959dc2ce2fb340018b77d7794768db0a392d0bc156ce506b2fabaae4237cbc95c791b587393bff9534400042abe2d4bfeebcc0cd0224a01ca22efeea587ac7bff36a776c7600ba90d64c1a8f42081224cc01ac90b342df3984da4099cce13e76a9fd4f904c2ef9a26c8b65206341149aeadd630a4ac633972f820eb3bfca4e19f28f09684f11883d4574c237cf0525b10af60d2253d74901c669043cf3246681c5d9e1031241923793beff07d940a4d4f169471b1d3bcc4a68fb2617e9f672320dad93fe1d1e29671bed627833138ce876f51f329ea9dc896ede9a719753b0763bed69fa4fe3eb39c29ae465cfd60c762403339e951e135888b99207854491caad763f46d55bb402127fe7b12d5e6a691e5aa9d98861b5d61f64da52017a3066c0da4f499f82648a7f5a10db04c4ed141f4360eb70e7ef705b7914160e502b47d2da4b96f4062322a0ca88d08abad2d72fad35a2b8bed3d409703a2777e1f846b06bbe3ccb1fded17163b175700de3a3d06010031f03e10df249d8203cc68f21d93710aeccf99d558bdc1b732ff294352576aeee92136b4e0f39aabf7b14d22a115a2cba2c0544057d836511cfe9962dc98deb7bb4dc9b5c94b94380a125f23fb91cabd00d74e0465c9ce2622cf1b8f8cb4a3e2ccceb1df816c76fe8df3a97aac17002a33e33dc0b043973d7850fa6f1b2741c3b997987ebe8a07e3429f1c46a2b843a90ba83f32c35b483420f0da8b8855ea749a7b9392db1aef5510fedf958708d60c8490fdb786a3e17fabd3a74a57b7baed910708ce63da8343ac9dead11456f6c182d1603ecae7bbe4b03d4d40cab8ad347ff597548362cbd4d108a3de3cfebfe8903afb5fc710bd1d7a3f8cf85ce74ad21d04d3eb8b061609157a50ec995112ca6123eda36adb482fccb73a6b8a00fe99cd4d55848efc89592097d7ae59e83a6499ca34ccb90f29c48674098b8670922ddc1950f019146cd1623d546609068e2569033e6f769cb6d05370f5da4b6589409eee641e9f9c7ff252c9cc0fa31875dd49cb832426a26e41b188f41049abdeb2b4194b903486312679c0894a908136ca818fe56aa6268fb83491ca73aec3e8c1303a68e146ca8723bb6bedcf3e8160fbcaf7e0b703e28d700da851da5e3171f19f78943ee474d41003e6a2f115eadea82aeface2ab2b6c3dd86a3f448e6d996d6541d1754b65bd682e44e32538ace40230c1e0816155d56573651925d6b8805cfd904d77a74542386ef284cf854e3e62e48e21b3dbf4105089081ae30313ade0a3b487267358e7aa2791697e5e928dad80a847ddbb24462c3fc541295d063bf346bf86cb5bb8270d550c41c3100773deb7a9d930a514155dbc5c88acbe083e96cd7cbba49315055eb2114c091d6e0c29d56ec9447b9d9b7a79f3d1723df7286be6de247e0ec2c4ba841fb1b0a40551dff4c9df2a52e1054db3c973a91fa149031576b29e8a2640bf95db4c82ce0f0e71d1760f646c845648304dc85590f9c957b0d62e271afd8ca9c48061328837b3480cf0e612b913c87c7975586f7beca2307cb1b4fa0e9807d12ff0dd85bf26db622730b40f7d8099493f6bc4c618216ad9bf232b1b8c7a07a9fa0466908236ca3239b7d64066f095d3f35acfa9fc17b21e6efd3c1d4255b2458d2ba327983e00a4917ca6b769715ae82bdceb323e84634dbfc98ce5a0a7849d5f73e6aa309ab8e9d2d390cca1f92ea2fe3f16d8de20c5cb3252555517d75e112fa06875cb7bff928a6d5e0424e7ecf34a811738a4d974477cec319dd48367edcde16fe936e058e6a023945a7832e58fe13f1521489edc2ce2d8e3f45d61e9531b91ddbe43c76453e4ced96ef199e33f84e765cf66cea7ab260816a5d79bb2043bc97585de368f6d03816908d6a3fa81c3bb8677ce646e2ee73b366fdad4cb9c003484d2e4daafd75ea00c1c7ed05d72003c0198ae6e69778f0b0ce34630cbad9faaca9218d3f9add5a3c7bb56b8fddbd6bcc188dd2441faa2a3a928967497e489d3fb7caa7b14505706ef913175ac995dff18a916ccdcfbe9952163699705040771bd47fbee9d1c36866d450b762b0e1d5d9686c1898f5d3f720a5377ea7c1fd24a0c577d60c4d4c073c71bbb26e4aed8ae304216175e1dc66a3a1b1ccab28359f719c341707e90050e7ab1b2a4e74043f5cff2c76217c1f56ac2b74bf560f433facd4263e8d776052b79517dc5e115cd8c3f190a55fd341752d5a3f0ce76d6545e8e9503b174528488a536a5a56ad167562ae5c5bfc84ac4088f92d0dc63dcecb10adf1fc37640ec2a8f93a4a6b626bdc2a0da49e22484390caca6b1c41fa8d4288efe1bf986f5600f8b95e09dabd0431ac7d56db60f4a25b39046df15fa74e5633d4073d54492a51654e0d7e9223cd9a1d0eac853fd0f4b200d73b463c955c2f7091dfa24f60b864ad765ab32f810f77e9da6c263424c8a7b3124cb2f368a692f81604dc923179bfbbe07f6ba4956e21f294036764a8df20cb947b738075ed87242ba8cf3a3ad703d6eb1427ec588d84bc897a89b07942bf5b3ba3e2338907113e674f389bad50bf3fdec7254479703c55a776617a67009549d657e9ccc1bd1fcc6d0a12a6d92b38d8d1d1e8bff511c66d41699e1be226178d73386dac8d45285571b638ad34cefdd2319107cebad8bb9e7fcb9b4cb1998fdd82a493192bd1a30044b18ca06e4ed6edef9de3db3a538da2a3eca819c48cf1095d25439873371e96650c6706b6c739db7849cd42cc16b0350a3ff55cd1654b9ecdbdb542370ffb78946ef7fb312a5d4bc472c4788b902e3e84eaa6084a6ad2b7f121a2a2b53598f949ef10a0b10121c314648505165679ca7b3b4b8bccacfe9161d25373e404e51566475848693badcf7f9fdff02112e3855607ca4a7b6b8c0c7d4d5dcdfe700000000000000000000000a1f334501fd21050013ace50b10eb42be503ecbb02aeedfad4b0c3461e4c99d26fd0c4ef32de67081eef6eac92b5628cc6b0bd6ef63ee74915d039085547534d38e1381f8ade36add3f92842fd1f8e2a37e289aee416713b394413bca1455d682175fc0df6c46d6b17dd656497c828e40e48eeb72908c4fb60140a1fc12a02035332d50ed96c441eae3fe5568869ef17fe454d7597aec647d7fcd87d8040c890b55c7dd58c345bcb27e5c507a21c30e61dedcbf645bbeaec05de594981e260b6ad314c8360bf6c38e28fdf50fd52bc69120ba2f7fe0cb8d3d73fdbd1d37337c7335a9428fa5c93fa7d62251789f374cfc15c703f1fe8555dcc84d2f39bec38a51469b23d2b11ecafd125ab89741e52671becb9cac042ceaee9bda2f7f5ec54a3b33ed2ba391e6536b0137bdc85acff42bb79c9ed4d9dcd7ef121c811e1a4f9ea5f6d3f34fcf546f30ae78b9673b266b6eafc46fc6a13f2c1237e407b14312da0290cdc71548f8a0e336c7e64a1f75b8523feaaba86286bc064e8b2cb47b61e9652c586f672b5642e44e1a6d5f1ad2ce7a0fb469bf76d755f9ed83ba002f236ddfba799a2c804e0877933e41ae1b8924b081ab40f975926c95f57744756d08a558ed090937155b4d650c6141bb8ae33d0336434fcc07d1f47d161f7501a1957c661c9d051151dea25e2cb4cb316afe67431daefc4edfb8aef2504f370e88cdcea64e9c2f2dc8bc914c4c44498ccaa5c86b57e55c3ba9cc0e34468896ca7f9681cb141a4131af6d5ca865fab09d0e00e5463679f5ac8887c84846ba3017be917278d62e71b7ac45c25c606240f7f1f79e6e65f62cc6fdb7c89dbf0eeb5fd59d02ffcf12a20ee46bd5548d6c1c7478d586731754a967329cdfd58fb59dbc617cffeb85e5a70d7dd7a2675ea1728764c2b2edd80c56cda734541dfbabfcd592c8e5128474f458539b43a303e9dbeb96103fe8592020786b88735892f6702a7ef0f9c25612baef9aa240669ffe65bf2037d7c5bf2c959fde29d793a2fc1692a6f388868e6cca9ea9ca3f47a0ae38e8d2e8151faca31172c1091e1b996b137b75c48c19aaddca27ae7da4fb4b1bcd5412d006066739f772492c3e19e0d68150d5603409b80de8860deb5429ab4316c590f15cac207244d564dcf1e6c1b5fd0ed886d830dfb31ff276c61b41dcbacb76751f7dc152eb6d50285bc2419fe8c7a92d7aaf26157af285119ac750a9c21b5ec9b45b632f6d4c0c0557a50c0d2881c58908c0ed4b8f53795d1258b7b1fa09b181796e500c8b1e434ad30b0602acf9c7ba886a8c94e56fb748df8fdb6728f25968e2ee8536d18cf6a4e9198f1b0fdb0a78ef7a749bfb7a7258abda3b1dcb5e7a39de3617053240a611fdd97960272734f316ebe7d887ecd576d0c2b48f148444b30778a044445e9d1abff53177c711d6bd6c569b75fd6fb36e2e3bb490b82439cda83051421fc95a3d64861dd7de378074d96ca93f9f42287b676daa54dcc59f5ad68ae6fd623c6e66aee520d43637e2ec9f7a5cc95ad61ddb38df4adc0f3351316be340782327799746df3ce5452fca52d79faca908e9ed959352823bb3b426a599441d5589933642175a11d8a895197bc8c845d53e3bb8fa2cb13984645dae87212883afc07e0c40f5f227493bae4232c2bb2712e10fc7e27c51b7b55a29998f8d92a67dc36f80517e9fa4d240d77c2aec869ef003b2c7eeaf26966798c179cb060df14a205373151bd427c70c757f6a39722326e5d2b8958549f9001dcc0b00e1294acd23db7536664d5450f0429b87d9d340c3b10b4ebbe414c5d4ea18ef3db2dee51c38a93ad2e8bcb5ec3a5d26db81c9c783854be5cccd67a77e000000",
  "txid": "e3f1110267ea3041ff4429923f884ff3c5cf5f06a1fb18730dc400ccb56ad90e",
  "hash": "ec8decf7134d6016bc1a7f4e029892ebcc05641cda842a111b837ebd81021a56",
  "size": 5085,
  "vsize": 2278,
  "version": 1,
  "locktime": 126,
  "vin": [
    {
      "txid": "50f02ea5f1aaedcfad03bf7bfebd8c2f9191ec825d153b3a568583eeaf383af4",
      "vout": 1,
      "scriptSig": {
        "asm": "",
        "hex": ""
      },
      "txinwitness": [
        "8f172ae149b2be5c4628b43744182c55daff1785352b7d5202065c10b31f49d9556f30b91abcb10c048977bfb1df027308c56a48466ec23b096a4dad748d31788365b9c813f10461b03bf53d36b63bb1bcd27b9d39b08ccbca8bb6521b5fa13d0a7e749962b35a1131c476af39d1e1c508892275aa6fff3201e54b1c40e631c520d2d5a04badb1799c82cb45ddb4ba500c8d6256fca207b87c0455bcb9783ac77cebd7e3260d1e1a2ea50f1094eb04851d5a4bfa77082e29cb1ec740e20fbe15e52edb400655df2db09486ea0139be131b7b5a03269f9d03d78b59b8f038dca378ca514057394971bbaec9f21e74c6f209d513583d8520baddecf28a88a1ed734d7fcd8b17e8142f157e20c7052a5205517db97de45e763755bc2c1fba654e482520de916c49b6decc546a6b3b3efa210b8b264322aa0905531b80b15429aa3a2cfbb12d3ecc6a56ddb959dc2ce2fb340018b77d7794768db0a392d0bc156ce506b2fabaae4237cbc95c791b587393bff9534400042abe2d4bfeebcc0cd0224a01ca22efeea587ac7bff36a776c7600ba90d64c1a8f42081224cc01ac90b342df3984da4099cce13e76a9fd4f904c2ef9a26c8b65206341149aeadd630a4ac633972f820eb3bfca4e19f28f09684f11883d4574c237cf0525b10af60d2253d74901c669043cf3246681c5d9e1031241923793beff07d940a4d4f169471b1d3bcc4a68fb2617e9f672320dad93fe1d1e29671bed627833138ce876f51f329ea9dc896ede9a719753b0763bed69fa4fe3eb39c29ae465cfd60c762403339e951e135888b99207854491caad763f46d55bb402127fe7b12d5e6a691e5aa9d98861b5d61f64da52017a3066c0da4f499f82648a7f5a10db04c4ed141f4360eb70e7ef705b7914160e502b47d2da4b96f4062322a0ca88d08abad2d72fad35a2b8bed3d409703a2777e1f846b06bbe3ccb1fded17163b175700de3a3d06010031f03e10df249d8203cc68f21d93710aeccf99d558bdc1b732ff294352576aeee92136b4e0f39aabf7b14d22a115a2cba2c0544057d836511cfe9962dc98deb7bb4dc9b5c94b94380a125f23fb91cabd00d74e0465c9ce2622cf1b8f8cb4a3e2ccceb1df816c76fe8df3a97aac17002a33e33dc0b043973d7850fa6f1b2741c3b997987ebe8a07e3429f1c46a2b843a90ba83f32c35b483420f0da8b8855ea749a7b9392db1aef5510fedf958708d60c8490fdb786a3e17fabd3a74a57b7baed910708ce63da8343ac9dead11456f6c182d1603ecae7bbe4b03d4d40cab8ad347ff597548362cbd4d108a3de3cfebfe8903afb5fc710bd1d7a3f8cf85ce74ad21d04d3eb8b061609157a50ec995112ca6123eda36adb482fccb73a6b8a00fe99cd4d55848efc89592097d7ae59e83a6499ca34ccb90f29c48674098b8670922ddc1950f019146cd1623d546609068e2569033e6f769cb6d05370f5da4b6589409eee641e9f9c7ff252c9cc0fa31875dd49cb832426a26e41b188f41049abdeb2b4194b903486312679c0894a908136ca818fe56aa6268fb83491ca73aec3e8c1303a68e146ca8723bb6bedcf3e8160fbcaf7e0b703e28d700da851da5e3171f19f78943ee474d41003e6a2f115eadea82aeface2ab2b6c3dd86a3f448e6d996d6541d1754b65bd682e44e32538ace40230c1e0816155d56573651925d6b8805cfd904d77a74542386ef284cf854e3e62e48e21b3dbf4105089081ae30313ade0a3b487267358e7aa2791697e5e928dad80a847ddbb24462c3fc541295d063bf346bf86cb5bb8270d550c41c3100773deb7a9d930a514155dbc5c88acbe083e96cd7cbba49315055eb2114c091d6e0c29d56ec9447b9d9b7a79f3d1723df7286be6de247e0ec2c4ba841fb1b0a40551dff4c9df2a52e1054db3c973a91fa149031576b29e8a2640bf95db4c82ce0f0e71d1760f646c845648304dc85590f9c957b0d62e271afd8ca9c48061328837b3480cf0e612b913c87c7975586f7beca2307cb1b4fa0e9807d12ff0dd85bf26db622730b40f7d8099493f6bc4c618216ad9bf232b1b8c7a07a9fa0466908236ca3239b7d64066f095d3f35acfa9fc17b21e6efd3c1d4255b2458d2ba327983e00a4917ca6b769715ae82bdceb323e84634dbfc98ce5a0a7849d5f73e6aa309ab8e9d2d390cca1f92ea2fe3f16d8de20c5cb3252555517d75e112fa06875cb7bff928a6d5e0424e7ecf34a811738a4d974477cec319dd48367edcde16fe936e058e6a023945a7832e58fe13f1521489edc2ce2d8e3f45d61e9531b91ddbe43c76453e4ced96ef199e33f84e765cf66cea7ab260816a5d79bb2043bc97585de368f6d03816908d6a3fa81c3bb8677ce646e2ee73b366fdad4cb9c003484d2e4daafd75ea00c1c7ed05d72003c0198ae6e69778f0b0ce34630cbad9faaca9218d3f9add5a3c7bb56b8fddbd6bcc188dd2441faa2a3a928967497e489d3fb7caa7b14505706ef913175ac995dff18a916ccdcfbe9952163699705040771bd47fbee9d1c36866d450b762b0e1d5d9686c1898f5d3f720a5377ea7c1fd24a0c577d60c4d4c073c71bbb26e4aed8ae304216175e1dc66a3a1b1ccab28359f719c341707e90050e7ab1b2a4e74043f5cff2c76217c1f56ac2b74bf560f433facd4263e8d776052b79517dc5e115cd8c3f190a55fd341752d5a3f0ce76d6545e8e9503b174528488a536a5a56ad167562ae5c5bfc84ac4088f92d0dc63dcecb10adf1fc37640ec2a8f93a4a6b626bdc2a0da49e22484390caca6b1c41fa8d4288efe1bf986f5600f8b95e09dabd0431ac7d56db60f4a25b39046df15fa74e5633d4073d54492a51654e0d7e9223cd9a1d0eac853fd0f4b200d73b463c955c2f7091dfa24f60b864ad765ab32f810f77e9da6c263424c8a7b3124cb2f368a692f81604dc923179bfbbe07f6ba4956e21f294036764a8df20cb947b738075ed87242ba8cf3a3ad703d6eb1427ec588d84bc897a89b07942bf5b3ba3e2338907113e674f389bad50bf3fdec7254479703c55a776617a67009549d657e9ccc1bd1fcc6d0a12a6d92b38d8d1d1e8bff511c66d41699e1be226178d73386dac8d45285571b638ad34cefdd2319107cebad8bb9e7fcb9b4cb1998fdd82a493192bd1a30044b18ca06e4ed6edef9de3db3a538da2a3eca819c48cf1095d25439873371e96650c6706b6c739db7849cd42cc16b0350a3ff55cd1654b9ecdbdb542370ffb78946ef7fb312a5d4bc472c4788b902e3e84eaa6084a6ad2b7f121a2a2b53598f949ef10a0b10121c314648505165679ca7b3b4b8bccacfe9161d25373e404e51566475848693badcf7f9fdff02112e3855607ca4a7b6b8c0c7d4d5dcdfe700000000000000000000000a1f334501",
        "0013ace50b10eb42be503ecbb02aeedfad4b0c3461e4c99d26fd0c4ef32de67081eef6eac92b5628cc6b0bd6ef63ee74915d039085547534d38e1381f8ade36add3f92842fd1f8e2a37e289aee416713b394413bca1455d682175fc0df6c46d6b17dd656497c828e40e48eeb72908c4fb60140a1fc12a02035332d50ed96c441eae3fe5568869ef17fe454d7597aec647d7fcd87d8040c890b55c7dd58c345bcb27e5c507a21c30e61dedcbf645bbeaec05de594981e260b6ad314c8360bf6c38e28fdf50fd52bc69120ba2f7fe0cb8d3d73fdbd1d37337c7335a9428fa5c93fa7d62251789f374cfc15c703f1fe8555dcc84d2f39bec38a51469b23d2b11ecafd125ab89741e52671becb9cac042ceaee9bda2f7f5ec54a3b33ed2ba391e6536b0137bdc85acff42bb79c9ed4d9dcd7ef121c811e1a4f9ea5f6d3f34fcf546f30ae78b9673b266b6eafc46fc6a13f2c1237e407b14312da0290cdc71548f8a0e336c7e64a1f75b8523feaaba86286bc064e8b2cb47b61e9652c586f672b5642e44e1a6d5f1ad2ce7a0fb469bf76d755f9ed83ba002f236ddfba799a2c804e0877933e41ae1b8924b081ab40f975926c95f57744756d08a558ed090937155b4d650c6141bb8ae33d0336434fcc07d1f47d161f7501a1957c661c9d051151dea25e2cb4cb316afe67431daefc4edfb8aef2504f370e88cdcea64e9c2f2dc8bc914c4c44498ccaa5c86b57e55c3ba9cc0e34468896ca7f9681cb141a4131af6d5ca865fab09d0e00e5463679f5ac8887c84846ba3017be917278d62e71b7ac45c25c606240f7f1f79e6e65f62cc6fdb7c89dbf0eeb5fd59d02ffcf12a20ee46bd5548d6c1c7478d586731754a967329cdfd58fb59dbc617cffeb85e5a70d7dd7a2675ea1728764c2b2edd80c56cda734541dfbabfcd592c8e5128474f458539b43a303e9dbeb96103fe8592020786b88735892f6702a7ef0f9c25612baef9aa240669ffe65bf2037d7c5bf2c959fde29d793a2fc1692a6f388868e6cca9ea9ca3f47a0ae38e8d2e8151faca31172c1091e1b996b137b75c48c19aaddca27ae7da4fb4b1bcd5412d006066739f772492c3e19e0d68150d5603409b80de8860deb5429ab4316c590f15cac207244d564dcf1e6c1b5fd0ed886d830dfb31ff276c61b41dcbacb76751f7dc152eb6d50285bc2419fe8c7a92d7aaf26157af285119ac750a9c21b5ec9b45b632f6d4c0c0557a50c0d2881c58908c0ed4b8f53795d1258b7b1fa09b181796e500c8b1e434ad30b0602acf9c7ba886a8c94e56fb748df8fdb6728f25968e2ee8536d18cf6a4e9198f1b0fdb0a78ef7a749bfb7a7258abda3b1dcb5e7a39de3617053240a611fdd97960272734f316ebe7d887ecd576d0c2b48f148444b30778a044445e9d1abff53177c711d6bd6c569b75fd6fb36e2e3bb490b82439cda83051421fc95a3d64861dd7de378074d96ca93f9f42287b676daa54dcc59f5ad68ae6fd623c6e66aee520d43637e2ec9f7a5cc95ad61ddb38df4adc0f3351316be340782327799746df3ce5452fca52d79faca908e9ed959352823bb3b426a599441d5589933642175a11d8a895197bc8c845d53e3bb8fa2cb13984645dae87212883afc07e0c40f5f227493bae4232c2bb2712e10fc7e27c51b7b55a29998f8d92a67dc36f80517e9fa4d240d77c2aec869ef003b2c7eeaf26966798c179cb060df14a205373151bd427c70c757f6a39722326e5d2b8958549f9001dcc0b00e1294acd23db7536664d5450f0429b87d9d340c3b10b4ebbe414c5d4ea18ef3db2dee51c38a93ad2e8bcb5ec3a5d26db81c9c783854be5cccd67a7"
      ],
      "sequence": 4294967294
    }
  ],
  "vout": [
    {
      "value": 499971.5268,
      "n": 0,
      "scriptPubKey": {
        "asm": "1 51dde0e7824e91969523118c3a70bf9ae4c0b634650ae444676c47f85c7e8777",
        "hex": "512051dde0e7824e91969523118c3a70bf9ae4c0b634650ae444676c47f85c7e8777",
        "reqSigs": 1,
        "type": "witness_v1_scripthash",
        "addresses": [
          "3QJmnh"
        ]
      }
    },
    {
      "value": 1.0,
      "n": 1,
      "scriptPubKey": {
        "asm": "OP_RETURN cf0ac6b968bb56bf13e655c8f4d13fc94133fec0ecfbfb8722bdf20170413dcb 12ce515c1a067b649d5cd61aa104fb746a3cb7f3e8879b422ffd79592935d01732ee717c3a265b44bd7cf63a8124db544a1c97d3c8a7bb620fdd59790915f037528e111c5a463b24dd1c965ae144bb342a7cf7b3a8c7db026fbd39196975905772ae313c7a661b04fd3cb67ac1649b140a5cd79388e7fb224f9d19394955b077924ed1dc9a86fbe41ddc569a21847bf4eabc377368071bc2af7df9d9a9b55097b26ef1fcbaa6dbc43dfc76ba01a45bd4ca9c175348273be28f5dd9f9899570b7d20e919cdac6bba45d9c16da61c43bb4aafc773328475b82ef3db999e9f510d7f22eb1bcfae69b847dbc36fa41e41b948adc571308677ba2cf1d99b9c9d530f712ce515c1a067b649d5cd61aa104fb746a3cb7f3e8879b422ffd79592935d01732ee717c3a265b44bd7cf63a8124db544a1c97d3c8a7bb620fdd59790915f037528e111c5a463b24dd1c965ae144bb342a7cf7b3a8c7db026fbd39196975905772ae313c7a661b04fd3cb67ac1649b140a5cd79388e7fb224f9d19394955b077924ed1dc9a86fbe41ddc569a21847bf4eabc377368071bc2af7df9d9a9b55097b26ef1fcbaa6dbc43dfc76ba01a45bd4ca9c175348273be28f5dd9f9899570b7d20e919cdac6bba45d9c16da61c43bb4aafc773328475b82ef3db999e9f510d7f22eb1bcfae69b847dbc36fa41e41b948adc571308677ba2cf1d99b9c9d530f712ce515c1a067b649d5cd61aa104fb746a3cb7f3e8879b422ffd79592935d01732ee717c3a265b44bd7cf63a8124db544a1c97d3c8a7bb620fdd59790915f037528e111c5a463b24dd1c965ae144bb342a7cf7b3a8c7db026fbd39196975905772ae313c7a661b04fd3cb67ac1649b140a5cd79388e7fb224f9d19394955b077924ed1dc9a86fbe41ddc569a21847bf4eabc377368071bc2af7df9d9a9b55097b26ef1fcbaa6dbc43dfc76ba01a45bd4ca9c175348273be28f5dd9f9899570b7d20e919cdac6bba45d9c16da61c43bb4aafc773328475b82ef3db999e9f510d7f22eb1bcfae69b847dbc36fa41e41b948adc571308677ba2cf1d99b9c9d530f712ce515c1a067b649d5cd61aa104fb746a3cb7f3e8879b422ffd79592935d01732ee717c3a265b44bd7cf63a8124db544a1c97d3c8a7bb620fdd59790915f037528e111c5a463b24dd1c965ae144bb342a7cf7b3a8c7db026fbd39196975905772ae313c7a661b04fd3cb67ac1649b140a5cd79388e7fb224f9d19394955b077924ed1dc9a86fbe41ddc569a21847bf4eabc377368071bc2af7df9d9a9b55097b26ef1fcbaa6dbc43dfc76ba01a45bd4ca9c175348273be28f5dd9f9899570b7d20e919cdac6bba45d9c16da61c43bb4aafc773328475b82ef3db999e9f510d7f22eb1bcfae69b847dbc36fa41e41b948adc571308677ba2cf1d99b9c9d530f712ce515c1a067b649d5cd61aa104fb746a3cb7f3e8879b422ffd79592935d01732ee717c3a265b44bd7cf63a8124db544a1c97d3c8a7bb620fdd59790915f037528e111c5a463b24dd1c965ae144bb342a7cf7b3a8c7db026fbd39196975905772ae313c7a661b04fd3cb67ac1649b140a5cd79388e7fb224f9d19394955b077924ed1dc9a86fbe41ddc569a21847bf4b8fdd255f9a95786f24401477a1dfe6d8510ae8b75a1bcaf29561b5a6075a0f3",
        "hex": "6a20cf0ac6b968bb56bf13e655c8f4d13fc94133fec0ecfbfb8722bdf20170413dcb4db00412ce515c1a067b649d5cd61aa104fb746a3cb7f3e8879b422ffd79592935d01732ee717c3a265b44bd7cf63a8124db544a1c97d3c8a7bb620fdd59790915f037528e111c5a463b24dd1c965ae144bb342a7cf7b3a8c7db026fbd39196975905772ae313c7a661b04fd3cb67ac1649b140a5cd79388e7fb224f9d19394955b077924ed1dc9a86fbe41ddc569a21847bf4eabc377368071bc2af7df9d9a9b55097b26ef1fcbaa6dbc43dfc76ba01a45bd4ca9c175348273be28f5dd9f9899570b7d20e919cdac6bba45d9c16da61c43bb4aafc773328475b82ef3db999e9f510d7f22eb1bcfae69b847dbc36fa41e41b948adc571308677ba2cf1d99b9c9d530f712ce515c1a067b649d5cd61aa104fb746a3cb7f3e8879b422ffd79592935d01732ee717c3a265b44bd7cf63a8124db544a1c97d3c8a7bb620fdd59790915f037528e111c5a463b24dd1c965ae144bb342a7cf7b3a8c7db026fbd39196975905772ae313c7a661b04fd3cb67ac1649b140a5cd79388e7fb224f9d19394955b077924ed1dc9a86fbe41ddc569a21847bf4eabc377368071bc2af7df9d9a9b55097b26ef1fcbaa6dbc43dfc76ba01a45bd4ca9c175348273be28f5dd9f9899570b7d20e919cdac6bba45d9c16da61c43bb4aafc773328475b82ef3db999e9f510d7f22eb1bcfae69b847dbc36fa41e41b948adc571308677ba2cf1d99b9c9d530f712ce515c1a067b649d5cd61aa104fb746a3cb7f3e8879b422ffd79592935d01732ee717c3a265b44bd7cf63a8124db544a1c97d3c8a7bb620fdd59790915f037528e111c5a463b24dd1c965ae144bb342a7cf7b3a8c7db026fbd39196975905772ae313c7a661b04fd3cb67ac1649b140a5cd79388e7fb224f9d19394955b077924ed1dc9a86fbe41ddc569a21847bf4eabc377368071bc2af7df9d9a9b55097b26ef1fcbaa6dbc43dfc76ba01a45bd4ca9c175348273be28f5dd9f9899570b7d20e919cdac6bba45d9c16da61c43bb4aafc773328475b82ef3db999e9f510d7f22eb1bcfae69b847dbc36fa41e41b948adc571308677ba2cf1d99b9c9d530f712ce515c1a067b649d5cd61aa104fb746a3cb7f3e8879b422ffd79592935d01732ee717c3a265b44bd7cf63a8124db544a1c97d3c8a7bb620fdd59790915f037528e111c5a463b24dd1c965ae144bb342a7cf7b3a8c7db026fbd39196975905772ae313c7a661b04fd3cb67ac1649b140a5cd79388e7fb224f9d19394955b077924ed1dc9a86fbe41ddc569a21847bf4eabc377368071bc2af7df9d9a9b55097b26ef1fcbaa6dbc43dfc76ba01a45bd4ca9c175348273be28f5dd9f9899570b7d20e919cdac6bba45d9c16da61c43bb4aafc773328475b82ef3db999e9f510d7f22eb1bcfae69b847dbc36fa41e41b948adc571308677ba2cf1d99b9c9d530f712ce515c1a067b649d5cd61aa104fb746a3cb7f3e8879b422ffd79592935d01732ee717c3a265b44bd7cf63a8124db544a1c97d3c8a7bb620fdd59790915f037528e111c5a463b24dd1c965ae144bb342a7cf7b3a8c7db026fbd39196975905772ae313c7a661b04fd3cb67ac1649b140a5cd79388e7fb224f9d19394955b077924ed1dc9a86fbe41ddc569a21847bf4b8fdd255f9a95786f24401477a1dfe6d8510ae8b75a1bcaf29561b5a6075a0f3",
        "type": "nulldata"
      }
    }
  ],
  "blockhash": "6d9c0c317b6a18c94c8dfa8ecf7920e3db1b4df4697afebc42d3fd28269e39fd",
  "confirmations": 1,
  "time": 1764181315,
  "blocktime": 1764181315
}