{
  "hex": "010000000001017ca702a80d8c15f752b6bd7133478fd8f26fb8a467843ccef02f4bb9a61ad79c0100000000feffffff02f020b051792d0000225120e91eb60e33d144e941925a2c30afbabeb6b3bd9696f27ebc54edd85044b6105a00e1f50500000000fdd5046a20dc199465e6a226722e56f6758f0fca215918647884f1812b87c6f9c386f5c92b4db004d1f48db17d843121d3404245967e558abdff4b494ae38b6112c2a5a2913d7d80f1d4ad915da41101f3606265b65e75aa9ddf6b696ac3ab4132e28582b11d5da091b4cdf13dc4716193000205d63e15cafdbf0b090aa3cb215282e5e2d17d3dc0b194edd11de45141b3202225f61e35eadd9f2b292a83eb0172a2c5c2f15d1de051740d31fd04b1a153c0c2c516fed50a3d7fcbc9ca630be19242252211bdfd0071542d11dd24918173e0e2e536def52a1d5febe9ea432bc1b2620502319ddd2011344d71bd44f1e11380828556be954a7d3f8b898a234ba1d202656251fdbd4031146d519d64d1c133a0a2a5769eb56a5d1faba9aa036b81f222454271dd9d60d1f48db17d843121d3404245967e558abdff4b494ae38b6112c2a5a2913d7d80f1d4ad915da41101f3606265b65e75aa9ddf6b696ac3ab4132e28582b11d5da091b4cdf13dc4716193000205d63e15cafdbf0b090aa3cb215282e5e2d17d3dc0b194edd11de45141b3202225f61e35eadd9f2b292a83eb0172a2c5c2f15d1de051740d31fd04b1a153c0c2c516fed50a3d7fcbc9ca630be19242252211bdfd0071542d11dd24918173e0e2e536def52a1d5febe9ea432bc1b2620502319ddd2011344d71bd44f1e11380828556be954a7d3f8b898a234ba1d202656251fdbd4031146d519d64d1c133a0a2a5769eb56a5d1faba9aa036b81f222454271dd9d60d1f48db17d843121d3404245967e558abdff4b494ae38b6112c2a5a2913d7d80f1d4ad915da41101f3606265b65e75aa9ddf6b696ac3ab4132e28582b11d5da091b4cdf13dc4716193000205d63e15cafdbf0b090aa3cb215282e5e2d17d3dc0b194edd11de45141b3202225f61e35eadd9f2b292a83eb0172a2c5c2f15d1de051740d31fd04b1a153c0c2c516fed50a3d7fcbc9ca630be19242252211bdfd0071542d11dd24918173e0e2e536def52a1d5febe9ea432bc1b2620502319ddd2011344d71bd44f1e11380828556be954a7d3f8b898a234ba1d202656251fdbd4031146d519d64d1c133a0a2a5769eb56a5d1faba9aa036b81f222454271dd9d60d1f48db17d843121d3404245967e558abdff4b494ae38b6112c2a5a2913d7d80f1d4ad915da41101f3606265b65e75aa9ddf6b696ac3ab4132e28582b11d5da091b4cdf13dc4716193000205d63e15cafdbf0b090aa3cb215282e5e2d17d3dc0b194edd11de45141b3202225f61e35eadd9f2b292a83eb0172a2c5c2f15d1de051740d31fd04b1a153c0c2c516fed50a3d7fcbc9ca630be19242252211bdfd0071542d11dd24918173e0e2e536def52a1d5febe9ea432bc1b2620502319ddd2011344d71bd44f1e11380828556be954a7d3f8b898a234ba1d202656251fdbd4031146d519d64d1c133a0a2a5769eb56a5d1faba9aa036b81f222454271dd9d60d1f48db17d843121d3404245967e558abdff4b494ae38b6112c2a5a2913d7d80f1d4ad915da41101f3606265b65e75aa9ddf6b696ac3ab4132e28582b11d5da091b4cdf13dc4716193000205d63e15cafdbf0b090aa3cb215282e5e2d17d3dc0b194edd11de45141b3202225f61e35eadd9f2b292a83eb0172a2c5c2f15d1de051740d31fd04b1a153c0c2c516fed50aac8c4cd39d2f870af9994c194737bb9444ab62b6a5bc808dc730a3dd51aed51302fd7509b15b3a1002a93d78c9f3a9f017a88a0bfa98f06a0c693f37a157909526b79ad66d47ca6bd165b833ddc97938de7eacd1ebfba3b0d0b02807f55652e083551c7a700fdf03e9774800165b7d6078228676f7121f976bfe6e1448b8968e6f9277d9bdb733859a99233e5802654888f61223209155731b0cf29fe7759c72f7a583d9066173c5be476e1e407706b97d022ae524a9f3974ed5b85b487f585a59906369e944f114ccfb0c1f487eefdf7af44abf1a49dc56e55ebdca3651f607fd812ac98db32a99d720795985b2e6fde8fa7072401ae0dfa794e207415aa89caedc3dde2b85a9da2d0a5a154969a0c8f568066611039969b91c27dc75d2bf5b9dd3d8cc4796bf1e3ba4a19bc26e94df40d96326f29a6bb55129a55c3c5a848bb7dd5b321187252ca80f4cff04f8b9255954dfb0e6f0af5c2fa7e8846d4a9f75a19c5fa5269c3d1685635fe3320f42786a0f59aa06c4552c0dec8079101d24c9a00a836e190fb930a9627cc5544372af3faa926cc2f13e4ab7ffc40385cbde66f6acd2ae117c40fd26740c3994e71689fe5b31006b8f3e9a9403cc714ef97398b0e8d6cc59c072df61bfcaa8f97f8faf6da32869eb36db05e3fbe56e798ad3b096fb2386ff6f6b3a39cd062aa0fc505a1b4a8eef99749d64a184f9f17d5ec2c2291ff7145f6d2a8b335fc7653719fe6c318cab2dee04afb6834c663d8a604b9ea0a003710f4578f995bfb46f992cbce7ad7c7c2c7db7f1e9142562ab5fa63e5a93d99f8e71c7f46b60b8a8c2f322c8b81dbf8b4ede66e130fb52c7083c719b2d529d32b8acf878c8cdaba1d25bdde0288ad176c9e0acf8391cecdf9db6b4ad1690e436111614d67d59faf401dc2830e8917911e2c02dfbd162c5c09b6e6746a9003cf8b3c87ede75d3d696cf4822bd5dfc2012f9b80eaa4d80692d0c3a6b29e7728e7890f2daa98c980fa8184d30fd6b817cd0c8fe55dba7bd3ab3dbab4c407b22e8ce84ca200a6536770f7f6827accb8a19b68781330e8d9141f702ce53434308926a99ba0e562f588ee547528b01d4a45d88aec2d88eb3a9a0582c36f5fb72ffd1b775ca89f166322dd15805c7237d3fac30b848864b2241ecee1979a88a3c3b777f18fcd1dc16044eef3af2ad6d75a585206edfa497e103bdae8aa207b66b2232b698de2af199847b077de0a9a8648a8e5a5d5948681deed85612cb409ea5ff8c6ec534e85f7998df24bb4cee4ebab0ff04dfae4291ab0435b89ffdcdbf94e6cb7f242609ff6d441195efaed5f6f43aa99715a8ea6aad929708351517631512c86450f35c73ff6d1e02aa59591ac09faf33288d4b0063a956f52f05ee31213b9a030959e171f783a1ca8fee7d134109f61ac5f26215e05a3571a883791d026c4650c0de9ea22c128b09f32622c8207e8de9e6238cb93ac2ceafabd93d4154b830c40e09d58dd1ecc5ff17377be89612ddd7422bd1b5275d92c1d8201a8078bfe9fc2eee0179d137dce5de14d9e9afcab079bd625bbe91c2a75ef851223e3a3bd88d375dd6a2b5b3aa92263b40db852c293689e276037ad994f5070b3ebf92bfe250402b3e3259b6bb69ba7af21fd21a3b3134eb15642486b4bd85bba4ffdd96efe4be55640d7b32db9ced2eee57bbb5b6b0d9ce680a768b5430cd014e3ecff688a5f100aa0621585955c3b656d349e9259171586abc5b9a43831942ee0a9806865c8339757d82126529253e614bfecbb324e74280610735a83568dfd6d9995568695c1edb822fbe996c3108462730c46b6a04f06baaab405b1553f24202f5d74ac33ee6049e9b05d33863b7352360e0a55e3c2f5fcb1839c01969310cf09c3663995d2fac9660ac9b565686003d3c432b9db8bbe89eb4d4cd613af77eb3832da7534d509af6b18dedc753696d3208be3923b124397af3d8d4f2ec7973d3f7db385e6e6cac568c6103b858e65217c29b1d6bfc903f5d494140bc61e2205f7631761699ab582b34d02a62cde4efbe252afdb928a0245ab0056329790d6cd77dd95cdc764a125c06471e6247d919e4380482141569375afc4d0fdb807ad564e2727d0f39056fe898c8badcb61dda4ddd43047e84851d1e1a41ccf4f2cd53ca3d0b80a31ddbd070abe2cb3ad187894e4fa1c1c7f8f6aaeb765119b8e6df94950606ad7bada7ab2a785d5dcffc8cea436aeb914df65e2d6b0fad08e65acec18d72434ebdf19e0f1d324db96809cd65143829c9361776ef765e2437fdfd5ae925074e8fa6cc8d79e92ea1e764c0380b0df307a4dc836bee934f1881965bab39a8df5d134de65d05e38495a36f8684e4cbf605ae7e168798cc32ccd4a3589879cdeaeb58dda8b1fed6de366b0ee03c8a398ac73624a4858dadc25b07fc229223488cfaca46237fa6aa7513f1562d929b652e6ed93a059755cdf910182849f5aef8a306b31b3b2f1efa21071377f81c20aaf1bc4dfdd1363d6e213138df7521578adb2c8357146436c9ab233a1dab0aaf856e7d82b966958c826ec85361d2f65dddb383e6a29e956272ef266532067e1b0706a8ecb6319653c91a3b7e0ef76d3e520f3dc52239941c83a0595002eb222a6e3802c78869b375e300feae32c2cc695e1a54e6834c16269a2bcf9123971915759ac01950896d2351176cbd445e0efc318a66b9d21c983e5defcfd4421f396a2903c1669c1c280c08a4df062069b022c0c6ab37e6501e9ed478010861070c88ae99d0dc0ee332ca90eb34ea54ba348fff244760d5cb58756322baf8c6501f5af0e2294c576df7ffbf87ad8bdd577c5b7457aa572cb4521dc8c2987e41ceb1dbb4b533e2fd8d3ede0c8c2e9eb0b6a0c3b436777a0fc15622627ac0e8cb47e90bb69543f1197df19aa2c96f072a80a0e1da9c406a94114108131b6f3ebd2f029c4899f05075b0801c031196d6bde7f2dfc330b9269d94aa7e1d095311a70ab981680aa7b8c6cc85f6c2db36477efb0864d7cc7b65d4b703ff66fbb0438572c5c7296c7b5e9c0f0b96844967fc66b9ec47d1cd68536a8b154b8fd1f32ae923b313c15ce50f61fdb36b97b849e37974f3c9c330ee57a561d0fce85bb9bc5f1b07eb663a1ae832d22ca156a5fc011d06700a51aab65e4c421fbe6c9c27ebe41d1bd98217da2295a30d4d9c1f2cfa2e5dd05903962d2ca2ed76f120cb03af87f81b579606f8d846639c57cf122265761a4f7892c109daae134a1a2fdca72551557b45e37a1dc3ff402c5bb4674e77f65e31c820efdee6fe68738395ad8fc78f321c9cf7efa879efe47d5f4eb7efbf20381223dfc014e7d0d7111e2740474a5d688e96a5a7b1b6bdc7d7e602090a16304a4c576d7c87b5c6d0e0e2f904050d0e213379a5bcc616505663656f72789395c6cedbebf0f70000000000000000000000000000000000000012232d3d01fd210500c6f2793e63f08f297046e1a8fb2314c89d9c0a1882861b33adb74de0e070a7ceb31a5dfb6d8464f934f4d57c7f5529c89e07ef406db76adc74a2efcb510036eddca91847f70d9b64272fd3ab51f1a308d9a7e7d68ed49cce7669c17c619da584fc1e3e6d46839f63efefa1e3fc41dc0c247602048aaa41393f919f9033c741e7d0fd8a363ad4dd0b4f9de659afc787743d057230a7b11980f8c5159aa76e097993302077931ddb538ea9d310a4b3b0a7fa68092cfce973c5400b35ff1e99e1d7adeb880e4794fd19a02db270ca657d2682e58d680e0c025bba16870b7e3f6ce691c6238e945fbf31edbc74884e4fa6fdb5260c1f1ccb66963523daeed7e10164f70dc414fd45e802b463075c5760e0b74612e307035f9a87952a97ef9a365ab28bc5ae89cbecf0142ec5f0af9a8ff849203969248e7cd49b771aad4c4ccb8b5d52cc602091cfb9a54b9acb97a39cfaa1a2cbf362222b598c46d66a4edd4fe337b87f0cc75b44c0a1bd8f756332b3e93b8d3149e8023f1b4a345eaae3985ae6bc1981fb15b0f03fec4d6e4aae7490dec9e1524201fabe8ac4cc4cf79b9aea63200c93b03dcfd0a7e3dabaec80af4050dabb66c5d1cb5b92f89e8a7799b80e8709c2b3ee73609118026fe7b8c56604688bcd49dfb766c94283fcf5a67bc94fba2720f098da0090d78d7e209c847b87c5a269e0361c538411652cb05aaef531c3f29b27273027700786296442587a300f97a0531b69f37beef467cfa7a62833f9b26e3bc2d159fb5ea2f9dfce2b907d79af8cc3516b4db5ff23cb4d1d759da7bbd36d12ef5212744ad21cc082c9eee6d0f09e1c47525f503659ef4cc2b5c6df9bc91e6ecd40edc3f2f4314755a9a2e79d712c3739b0c915e95f3abebe792701f2d32f8e24b496cb4b2ecf76a813f13ce3297f69ef71991811672ed4bf5a2f4aeff0238ab296494f732cfcba3ec3138c2b7c8f76dfa280c5b6b28acf1a6cc203c117692f544517ceaa1618cbec3310d24132cf9959c6f89359d154c892d93aec7f0574ea0e850f70e6cf579af2dcbf32aef28123625f653965b2077b8613844cb7d703c3e07c9e870ac854d7c2c41de2b3c1dae768683c0f87830e8446112f00b754d4d4496b6383f8763ade990ae6fb11867fed58d7badef28695f568764a935f95ec4ee8b6661170d9844febad01fc27611bb9e03942d1e7049e899d7d007c37b1782167c719eaddd4651e2b512bcd567bf28459d982ef730881b405efb926a98b88e9a544438aef71a6f8ee5e386cb537592e2d18e5b2b19d8ed72098956ffa222c1fc76845220633c4c0bc73336bb6a7e6ceae0412c49662df7a033e08d4ae93d0dba4c162fb0adf174d90a8115b68dbc82d87734ca7c7f4217f37aa98a6d7aad3a3d27832ef4851e8b831ba11f3d27884fe47c062ab6f62a80b2fc79f965000c9ed37bc4cececfdd2ede3b988683ca771fc657a6dcfe72081a3f55bd0139a3871b5c8cb91a9bbf6828993124956607731ac43f5ccd9372ebadd4a230559fcb272d3e8fd0efc5dc0c12faafed5d99c85a3aa39f5cc5ede6d3f6884ebb5cee415aafbc43b5b3ea8338a1ce0bcdcc9d84afbc1856fdf52c90cf1f5c8be5de1ff998115234906a157e485ac3f729160723f9db554dba5d9b526a5a3773de6939822597a747113ab75aac65699aed0a4f12984fbe0084251aad1ea7096deecd1fbf6855081551d6bcc9666735f4de07f707e10805f737aadab9a0c0c2a7de1fb69f2d5239857d3f00d9ece661e7eea88e774458febac07b827f763bd629d5522ec7832a26647d8be94c60e27583cb4808fa33a5a4a36089f0517972f6603491fce876b000000",
  "txid": "e97c8fef25b6aca8445f5cf0afe190b0ba9b2a0b5d46cfef7ce24334430b98ca",
  "hash": "02fcc8dfc20d5f599ca5f973e75adcdeae8b932438ee747b8d8f875e8c4bd26d",
  "size": 5085,
  "vsize": 2278,
  "version": 1,
  "locktime": 107,
  "vin": [
    {
      "txid": "9cd71aa6b94b2ff0ce3c8467a4b86ff2d88f473371bdb652f7158c0da802a77c",
      "vout": 1,
      "scriptSig": {
        "asm": "",
        "hex": ""
      },
      "txinwitness": [
        "b15b3a1002a93d78c9f3a9f017a88a0bfa98f06a0c693f37a157909526b79ad66d47ca6bd165b833ddc97938de7eacd1ebfba3b0d0b02807f55652e083551c7a700fdf03e9774800165b7d6078228676f7121f976bfe6e1448b8968e6f9277d9bdb733859a99233e5802654888f61223209155731b0cf29fe7759c72f7a583d9066173c5be476e1e407706b97d022ae524a9f3974ed5b85b487f585a59906369e944f114ccfb0c1f487eefdf7af44abf1a49dc56e55ebdca3651f607fd812ac98db32a99d720795985b2e6fde8fa7072401ae0dfa794e207415aa89caedc3dde2b85a9da2d0a5a154969a0c8f568066611039969b91c27dc75d2bf5b9dd3d8cc4796bf1e3ba4a19bc26e94df40d96326f29a6bb55129a55c3c5a848bb7dd5b321187252ca80f4cff04f8b9255954dfb0e6f0af5c2fa7e8846d4a9f75a19c5fa5269c3d1685635fe3320f42786a0f59aa06c4552c0dec8079101d24c9a00a836e190fb930a9627cc5544372af3faa926cc2f13e4ab7ffc40385cbde66f6acd2ae117c40fd26740c3994e71689fe5b31006b8f3e9a9403cc714ef97398b0e8d6cc59c072df61bfcaa8f97f8faf6da32869eb36db05e3fbe56e798ad3b096fb2386ff6f6b3a39cd062aa0fc505a1b4a8eef99749d64a184f9f17d5ec2c2291ff7145f6d2a8b335fc7653719fe6c318cab2dee04afb6834c663d8a604b9ea0a003710f4578f995bfb46f992cbce7ad7c7c2c7db7f1e9142562ab5fa63e5a93d99f8e71c7f46b60b8a8c2f322c8b81dbf8b4ede66e130fb52c7083c719b2d529d32b8acf878c8cdaba1d25bdde0288ad176c9e0acf8391cecdf9db6b4ad1690e436111614d67d59faf401dc2830e8917911e2c02dfbd162c5c09b6e6746a9003cf8b3c87ede75d3d696cf4822bd5dfc2012f9b80eaa4d80692d0c3a6b29e7728e7890f2daa98c980fa8184d30fd6b817cd0c8fe55dba7bd3ab3dbab4c407b22e8ce84ca200a6536770f7f6827accb8a19b68781330e8d9141f702ce53434308926a99ba0e562f588ee547528b01d4a45d88aec2d88eb3a9a0582c36f5fb72ffd1b775ca89f166322dd15805c7237d3fac30b848864b2241ecee1979a88a3c3b777f18fcd1dc16044eef3af2ad6d75a585206edfa497e103bdae8aa207b66b2232b698de2af199847b077de0a9a8648a8e5a5d5948681deed85612cb409ea5ff8c6ec534e85f7998df24bb4cee4ebab0ff04dfae4291ab0435b89ffdcdbf94e6cb7f242609ff6d441195efaed5f6f43aa99715a8ea6aad929708351517631512c86450f35c73ff6d1e02aa59591ac09faf33288d4b0063a956f52f05ee31213b9a030959e171f783a1ca8fee7d134109f61ac5f26215e05a3571a883791d026c4650c0de9ea22c128b09f32622c8207e8de9e6238cb93ac2ceafabd93d4154b830c40e09d58dd1ecc5ff17377be89612ddd7422bd1b5275d92c1d8201a8078bfe9fc2eee0179d137dce5de14d9e9afcab079bd625bbe91c2a75ef851223e3a3bd88d375dd6a2b5b3aa92263b40db852c293689e276037ad994f5070b3ebf92bfe250402b3e3259b6bb69ba7af21fd21a3b3134eb15642486b4bd85bba4ffdd96efe4be55640d7b32db9ced2eee57bbb5b6b0d9ce680a768b5430cd014e3ecff688a5f100aa0621585955c3b656d349e9259171586abc5b9a43831942ee0a9806865c8339757d82126529253e614bfecbb324e74280610735a83568dfd6d9995568695c1edb822fbe996c3108462730c46b6a04f06baaab405b1553f24202f5d74ac33ee6049e9b05d33863b7352360e0a55e3c2f5fcb1839c01969310cf09c3663995d2fac9660ac9b565686003d3c432b9db8bbe89eb4d4cd613af77eb3832da7534d509af6b18dedc753696d3208be3923b124397af3d8d4f2ec7973d3f7db385e6e6cac568c6103b858e65217c29b1d6bfc903f5d494140bc61e2205f7631761699ab582b34d02a62cde4efbe252afdb928a0245ab0056329790d6cd77dd95cdc764a125c06471e6247d919e4380482141569375afc4d0fdb807ad564e2727d0f39056fe898c8badcb61dda4ddd43047e84851d1e1a41ccf4f2cd53ca3d0b80a31ddbd070abe2cb3ad187894e4fa1c1c7f8f6aaeb765119b8e6df94950606ad7bada7ab2a785d5dcffc8cea436aeb914df65e2d6b0fad08e65acec18d72434ebdf19e0f1d324db96809cd65143829c9361776ef765e2437fdfd5ae925074e8fa6cc8d79e92ea1e764c0380b0df307a4dc836bee934f1881965bab39a8df5d134de65d05e38495a36f8684e4cbf605ae7e168798cc32ccd4a3589879cdeaeb58dda8b1fed6de366b0ee03c8a398ac73624a4858dadc25b07fc229223488cfaca46237fa6aa7513f1562d929b652e6ed93a059755cdf910182849f5aef8a306b31b3b2f1efa21071377f81c20aaf1bc4dfdd1363d6e213138df7521578adb2c8357146436c9ab233a1dab0aaf856e7d82b966958c826ec85361d2f65dddb383e6a29e956272ef266532067e1b0706a8ecb6319653c91a3b7e0ef76d3e520f3dc52239941c83a0595002eb222a6e3802c78869b375e300feae32c2cc695e1a54e6834c16269a2bcf9123971915759ac01950896d2351176cbd445e0efc318a66b9d21c983e5defcfd4421f396a2903c1669c1c280c08a4df062069b022c0c6ab37e6501e9ed478010861070c88ae99d0dc0ee332ca90eb34ea54ba348fff244760d5cb58756322baf8c6501f5af0e2294c576df7ffbf87ad8bdd577c5b7457aa572cb4521dc8c2987e41ceb1dbb4b533e2fd8d3ede0c8c2e9eb0b6a0c3b436777a0fc15622627ac0e8cb47e90bb69543f1197df19aa2c96f072a80a0e1da9c406a94114108131b6f3ebd2f029c4899f05075b0801c031196d6bde7f2dfc330b9269d94aa7e1d095311a70ab981680aa7b8c6cc85f6c2db36477efb0864d7cc7b65d4b703ff66fbb0438572c5c7296c7b5e9c0f0b96844967fc66b9ec47d1cd68536a8b154b8fd1f32ae923b313c15ce50f61fdb36b97b849e37974f3c9c330ee57a561d0fce85bb9bc5f1b07eb663a1ae832d22ca156a5fc011d06700a51aab65e4c421fbe6c9c27ebe41d1bd98217da2295a30d4d9c1f2cfa2e5dd05903962d2ca2ed76f120cb03af87f81b579606f8d846639c57cf122265761a4f7892c109daae134a1a2fdca72551557b45e37a1dc3ff402c5bb4674e77f65e31c820efdee6fe68738395ad8fc78f321c9cf7efa879efe47d5f4eb7efbf20381223dfc014e7d0d7111e2740474a5d688e96a5a7b1b6bdc7d7e602090a16304a4c576d7c87b5c6d0e0e2f904050d0e213379a5bcc616505663656f72789395c6cedbebf0f70000000000000000000000000000000000000012232d3d01",
        "00c6f2793e63f08f297046e1a8fb2314c89d9c0a1882861b33adb74de0e070a7ceb31a5dfb6d8464f934f4d57c7f5529c89e07ef406db76adc74a2efcb510036eddca91847f70d9b64272fd3ab51f1a308d9a7e7d68ed49cce7669c17c619da584fc1e3e6d46839f63efefa1e3fc41dc0c247602048aaa41393f919f9033c741e7d0fd8a363ad4dd0b4f9de659afc787743d057230a7b11980f8c5159aa76e097993302077931ddb538ea9d310a4b3b0a7fa68092cfce973c5400b35ff1e99e1d7adeb880e4794fd19a02db270ca657d2682e58d680e0c025bba16870b7e3f6ce691c6238e945fbf31edbc74884e4fa6fdb5260c1f1ccb66963523daeed7e10164f70dc414fd45e802b463075c5760e0b74612e307035f9a87952a97ef9a365ab28bc5ae89cbecf0142ec5f0af9a8ff849203969248e7cd49b771aad4c4ccb8b5d52cc602091cfb9a54b9acb97a39cfaa1a2cbf362222b598c46d66a4edd4fe337b87f0cc75b44c0a1bd8f756332b3e93b8d3149e8023f1b4a345eaae3985ae6bc1981fb15b0f03fec4d6e4aae7490dec9e1524201fabe8ac4cc4cf79b9aea63200c93b03dcfd0a7e3dabaec80af4050dabb66c5d1cb5b92f89e8a7799b80e8709c2b3ee73609118026fe7b8c56604688bcd49dfb766c94283fcf5a67bc94fba2720f098da0090d78d7e209c847b87c5a269e0361c538411652cb05aaef531c3f29b27273027700786296442587a300f97a0531b69f37beef467cfa7a62833f9b26e3bc2d159fb5ea2f9dfce2b907d79af8cc3516b4db5ff23cb4d1d759da7bbd36d12ef5212744ad21cc082c9eee6d0f09e1c47525f503659ef4cc2b5c6df9bc91e6ecd40edc3f2f4314755a9a2e79d712c3739b0c915e95f3abebe792701f2d32f8e24b496cb4b2ecf76a813f13ce3297f69ef71991811672ed4bf5a2f4aeff0238ab296494f732cfcba3ec3138c2b7c8f76dfa280c5b6b28acf1a6cc203c117692f544517ceaa1618cbec3310d24132cf9959c6f89359d154c892d93aec7f0574ea0e850f70e6cf579af2dcbf32aef28123625f653965b2077b8613844cb7d703c3e07c9e870ac854d7c2c41de2b3c1dae768683c0f87830e8446112f00b754d4d4496b6383f8763ade990ae6fb11867fed58d7badef28695f568764a935f95ec4ee8b6661170d9844febad01fc27611bb9e03942d1e7049e899d7d007c37b1782167c719eaddd4651e2b512bcd567bf28459d982ef730881b405efb926a98b88e9a544438aef71a6f8ee5e386cb537592e2d18e5b2b19d8ed72098956ffa222c1fc76845220633c4c0bc73336bb6a7e6ceae0412c49662df7a033e08d4ae93d0dba4c162fb0adf174d90a8115b68dbc82d87734ca7c7f4217f37aa98a6d7aad3a3d27832ef4851e8b831ba11f3d27884fe47c062ab6f62a80b2fc79f965000c9ed37bc4cececfdd2ede3b988683ca771fc657a6dcfe72081a3f55bd0139a3871b5c8cb91a9bbf6828993124956607731ac43f5ccd9372ebadd4a230559fcb272d3e8fd0efc5dc0c12faafed5d99c85a3aa39f5cc5ede6d3f6884ebb5cee415aafbc43b5b3ea8338a1ce0bcdcc9d84afbc1856fdf52c90cf1f5c8be5de1ff998115234906a157e485ac3f729160723f9db554dba5d9b526a5a3773de6939822597a747113ab75aac65699aed0a4f12984fbe0084251aad1ea7096deecd1fbf6855081551d6bcc9666735f4de07f707e10805f737aadab9a0c0c2a7de1fb69f2d5239857d3f00d9ece661e7eea88e774458febac07b827f763bd629d5522ec7832a26647d8be94c60e27583cb4808fa33a5a4a36089f0517972f6603491fce87"
      ],
      "sequence": 4294967294
    }
  ],
  "vout": [
    {
      "value": 499990.8479,
      "n": 0,
      "scriptPubKey": {
        "asm": "1 e91eb60e33d144e941925a2c30afbabeb6b3bd9696f27ebc54edd85044b6105a",
        "hex": "5120e91eb60e33d144e941925a2c30afbabeb6b3bd9696f27ebc54edd85044b6105a",
        "reqSigs": 1,
        "type": "witness_v1_scripthash",
        "addresses": [
          "3QJmnh"
        ]
      }
    },
    {
      "value": 1.0,
      "n": 1,
      "scriptPubKey": {
        "asm": "OP_RETURN dc199465e6a226722e56f6758f0fca215918647884f1812b87c6f9c386f5c92b d1f48db17d843121d3404245967e558abdff4b494ae38b6112c2a5a2913d7d80f1d4ad915da41101f3606265b65e75aa9ddf6b696ac3ab4132e28582b11d5da091b4cdf13dc4716193000205d63e15cafdbf0b090aa3cb215282e5e2d17d3dc0b194edd11de45141b3202225f61e35eadd9f2b292a83eb0172a2c5c2f15d1de051740d31fd04b1a153c0c2c516fed50a3d7fcbc9ca630be19242252211bdfd0071542d11dd24918173e0e2e536def52a1d5febe9ea432bc1b2620502319ddd2011344d71bd44f1e11380828556be954a7d3f8b898a234ba1d202656251fdbd4031146d519d64d1c133a0a2a5769eb56a5d1faba9aa036b81f222454271dd9d60d1f48db17d843121d3404245967e558abdff4b494ae38b6112c2a5a2913d7d80f1d4ad915da41101f3606265b65e75aa9ddf6b696ac3ab4132e28582b11d5da091b4cdf13dc4716193000205d63e15cafdbf0b090aa3cb215282e5e2d17d3dc0b194edd11de45141b3202225f61e35eadd9f2b292a83eb0172a2c5c2f15d1de051740d31fd04b1a153c0c2c516fed50a3d7fcbc9ca630be19242252211bdfd0071542d11dd24918173e0e2e536def52a1d5febe9ea432bc1b2620502319ddd2011344d71bd44f1e11380828556be954a7d3f8b898a234ba1d202656251fdbd4031146d519d64d1c133a0a2a5769eb56a5d1faba9aa036b81f222454271dd9d60d1f48db17d843121d3404245967e558abdff4b494ae38b6112c2a5a2913d7d80f1d4ad915da41101f3606265b65e75aa9ddf6b696ac3ab4132e28582b11d5da091b4cdf13dc4716193000205d63e15cafdbf0b090aa3cb215282e5e2d17d3dc0b194edd11de45141b3202225f61e35eadd9f2b292a83eb0172a2c5c2f15d1de051740d31fd04b1a153c0c2c516fed50a3d7fcbc9ca630be19242252211bdfd0071542d11dd24918173e0e2e536def52a1d5febe9ea432bc1b2620502319ddd2011344d71bd44f1e11380828556be954a7d3f8b898a234ba1d202656251fdbd4031146d519d64d1c133a0a2a5769eb56a5d1faba9aa036b81f222454271dd9d60d1f48db17d843121d3404245967e558abdff4b494ae38b6112c2a5a2913d7d80f1d4ad915da41101f3606265b65e75aa9ddf6b696ac3ab4132e28582b11d5da091b4cdf13dc4716193000205d63e15cafdbf0b090aa3cb215282e5e2d17d3dc0b194edd11de45141b3202225f61e35eadd9f2b292a83eb0172a2c5c2f15d1de051740d31fd04b1a153c0c2c516fed50a3d7fcbc9ca630be19242252211bdfd0071542d11dd24918173e0e2e536def52a1d5febe9ea432bc1b2620502319ddd2011344d71bd44f1e11380828556be954a7d3f8b898a234ba1d202656251fdbd4031146d519d64d1c133a0a2a5769eb56a5d1faba9aa036b81f222454271dd9d60d1f48db17d843121d3404245967e558abdff4b494ae38b6112c2a5a2913d7d80f1d4ad915da41101f3606265b65e75aa9ddf6b696ac3ab4132e28582b11d5da091b4cdf13dc4716193000205d63e15cafdbf0b090aa3cb215282e5e2d17d3dc0b194edd11de45141b3202225f61e35eadd9f2b292a83eb0172a2c5c2f15d1de051740d31fd04b1a153c0c2c516fed50aac8c4cd39d2f870af9994c194737bb9444ab62b6a5bc808dc730a3dd51aed513",
        "hex": "6a20dc199465e6a226722e56f6758f0fca215918647884f1812b87c6f9c386f5c92b4db004d1f48db17d843121d3404245967e558abdff4b494ae38b6112c2a5a2913d7d80f1d4ad915da41101f3606265b65e75aa9ddf6b696ac3ab4132e28582b11d5da091b4cdf13dc4716193000205d63e15cafdbf0b090aa3cb215282e5e2d17d3dc0b194edd11de45141b3202225f61e35eadd9f2b292a83eb0172a2c5c2f15d1de051740d31fd04b1a153c0c2c516fed50a3d7fcbc9ca630be19242252211bdfd0071542d11dd24918173e0e2e536def52a1d5febe9ea432bc1b2620502319ddd2011344d71bd44f1e11380828556be954a7d3f8b898a234ba1d202656251fdbd4031146d519d64d1c133a0a2a5769eb56a5d1faba9aa036b81f222454271dd9d60d1f48db17d843121d3404245967e558abdff4b494ae38b6112c2a5a2913d7d80f1d4ad915da41101f3606265b65e75aa9ddf6b696ac3ab4132e28582b11d5da091b4cdf13dc4716193000205d63e15cafdbf0b090aa3cb215282e5e2d17d3dc0b194edd11de45141b3202225f61e35eadd9f2b292a83eb0172a2c5c2f15d1de051740d31fd04b1a153c0c2c516fed50a3d7fcbc9ca630be19242252211bdfd0071542d11dd24918173e0e2e536def52a1d5febe9ea432bc1b2620502319ddd2011344d71bd44f1e11380828556be954a7d3f8b898a234ba1d202656251fdbd4031146d519d64d1c133a0a2a5769eb56a5d1faba9aa036b81f222454271dd9d60d1f48db17d843121d3404245967e558abdff4b494ae38b6112c2a5a2913d7d80f1d4ad915da41101f3606265b65e75aa9ddf6b696ac3ab4132e28582b11d5da091b4cdf13dc4716193000205d63e15cafdbf0b090aa3cb215282e5e2d17d3dc0b194edd11de45141b3202225f61e35eadd9f2b292a83eb0172a2c5c2f15d1de051740d31fd04b1a153c0c2c516fed50a3d7fcbc9ca630be19242252211bdfd0071542d11dd24918173e0e2e536def52a1d5febe9ea432bc1b2620502319ddd2011344d71bd44f1e11380828556be954a7d3f8b898a234ba1d202656251fdbd4031146d519d64d1c133a0a2a5769eb56a5d1faba9aa036b81f222454271dd9d60d1f48db17d843121d3404245967e558abdff4b494ae38b6112c2a5a2913d7d80f1d4ad915da41101f3606265b65e75aa9ddf6b696ac3ab4132e28582b11d5da091b4cdf13dc4716193000205d63e15cafdbf0b090aa3cb215282e5e2d17d3dc0b194edd11de45141b3202225f61e35eadd9f2b292a83eb0172a2c5c2f15d1de051740d31fd04b1a153c0c2c516fed50a3d7fcbc9ca630be19242252211bdfd0071542d11dd24918173e0e2e536def52a1d5febe9ea432bc1b2620502319ddd2011344d71bd44f1e11380828556be954a7d3f8b898a234ba1d202656251fdbd4031146d519d64d1c133a0a2a5769eb56a5d1faba9aa036b81f222454271dd9d60d1f48db17d843121d3404245967e558abdff4b494ae38b6112c2a5a2913d7d80f1d4ad915da41101f3606265b65e75aa9ddf6b696ac3ab4132e28582b11d5da091b4cdf13dc4716193000205d63e15cafdbf0b090aa3cb215282e5e2d17d3dc0b194edd11de45141b3202225f61e35eadd9f2b292a83eb0172a2c5c2f15d1de051740d31fd04b1a153c0c2c516fed50aac8c4cd39d2f870af9994c194737bb9444ab62b6a5bc808dc730a3dd51aed513",
        "type": "nulldata"
      }
    }
  ],
  "blockhash": "70f7ec20af3843e0d144de9ce3637c8baa62723aad58289fd59c71fdb9075fdf",
  "confirmations": 1,
  "time": 1764177228,
  "blocktime": 1764177228
}