{
  "hex": "01000000000101d4bb712940a85a6ed5a57102d3b7301b842ac9fe88ee6926f480b93abef54ffa0100000000feffffff02b0cd76d8782d0000225120fb4637adef9eaf108f68065124bfbde589f64bf0f142727c6976b82c0595f00a00e1f50500000000fdd5046a2034fdf65767c4b62e618ec1e4dbdd16f75f29eccecd3fa5d5d848d67dc61e16b64db00418684213c65fc6435761b350202296477bedd8a3b4b56cbf6f5d04e68a4b6b2938486233e67fe663774193700002b6675bcdf88394954c9f4f7d24c6aa6b4b0958280253861f86031721f3106062d6073bad98e3f4f52cff2f1d44a6ca0b2b6978082273a63fa6233701d3304042f6271b8db8c3d4d50cdf0f3d6486ea2b0b4998e8c29346df46c3d7e133d0a0a216c7fb6d58233435ec3fefdd84660acbeba9b8c8e2b366ff66e3f7c113f0808236e7db4d78031415cc1fcffda4462aebcb89d8a882d3069f068397a17390e0e25687bb2d18637475ac7faf9dc4264a8babe9f888a2f326bf26a3b78153b0c0c276a79b0d384354558c5f8fbde4066aab8bc918684213c65fc6435761b350202296477bedd8a3b4b56cbf6f5d04e68a4b6b2938486233e67fe663774193700002b6675bcdf88394954c9f4f7d24c6aa6b4b0958280253861f86031721f3106062d6073bad98e3f4f52cff2f1d44a6ca0b2b6978082273a63fa6233701d3304042f6271b8db8c3d4d50cdf0f3d6486ea2b0b4998e8c29346df46c3d7e133d0a0a216c7fb6d58233435ec3fefdd84660acbeba9b8c8e2b366ff66e3f7c113f0808236e7db4d78031415cc1fcffda4462aebcb89d8a882d3069f068397a17390e0e25687bb2d18637475ac7faf9dc4264a8babe9f888a2f326bf26a3b78153b0c0c276a79b0d384354558c5f8fbde4066aab8bc918684213c65fc6435761b350202296477bedd8a3b4b56cbf6f5d04e68a4b6b2938486233e67fe663774193700002b6675bcdf88394954c9f4f7d24c6aa6b4b0958280253861f86031721f3106062d6073bad98e3f4f52cff2f1d44a6ca0b2b6978082273a63fa6233701d3304042f6271b8db8c3d4d50cdf0f3d6486ea2b0b4998e8c29346df46c3d7e133d0a0a216c7fb6d58233435ec3fefdd84660acbeba9b8c8e2b366ff66e3f7c113f0808236e7db4d78031415cc1fcffda4462aebcb89d8a882d3069f068397a17390e0e25687bb2d18637475ac7faf9dc4264a8babe9f888a2f326bf26a3b78153b0c0c276a79b0d384354558c5f8fbde4066aab8bc918684213c65fc6435761b350202296477bedd8a3b4b56cbf6f5d04e68a4b6b2938486233e67fe663774193700002b6675bcdf88394954c9f4f7d24c6aa6b4b0958280253861f86031721f3106062d6073bad98e3f4f52cff2f1d44a6ca0b2b6978082273a63fa6233701d3304042f6271b8db8c3d4d50cdf0f3d6486ea2b0b4998e8c29346df46c3d7e133d0a0a216c7fb6d58233435ec3fefdd84660acbeba9b8c8e2b366ff66e3f7c113f0808236e7db4d78031415cc1fcffda4462aebcb89d8a882d3069f068397a17390e0e25687bb2d18637475ac7faf9dc4264a8babe9f888a2f326bf26a3b78153b0c0c276a79b0d384354558c5f8fbde4066aab8bc918684213c65fc6435761b350202296477bedd8a3b4b56cbf6f5d04e68a4b6b2938486233e67fe663774193700002b6675bcdf88394954c9f4f7d24c6aa6b4b0958280253861f86031721f3106062d6073bad98e3f4f52cff2f1d44a6ca0b2b6978082273a63fa6233701d3304042f6271b8db8c3d4d50cdf0f3d6486ea2b0b4998e8c29346df46c3d7e133d0a0a216c771110edbc00a5b7493282a25aec5e7fc2703568c000191074362e7c6edf5d67d02fd75098c8a8faa8660dafb9f6de0808ccac381bc0cf09e58a4ab90e7638c612b3f749691e283eca925226e73fcc2221600c29a0fbad37f071bf1b56d0f4c38c8d2bedd04efdb26fbad536b3303cc54418186b7555004859375bac5a97cfb0f1b3b632dc77ca06a4c9c7d35005d215a9e885a40ad62a7fe477dd39ab1e5215d9094c82fb705f85dba415bfc20dd23a806219af2d84de2e3acd394824b1193f84cd567ca414f7d58f87e9eb2c1455ea3b171c7f470ac85a7d02fad625aa02cf61225bf9a06f1849d01479ee178b8d13491224a220dc599bbbe8fc5be563c5fb9498074f76b8b8d11514ff1a26054c70ef54008779882a6c619115f78224d4d605eb5be14600b20db9418829f25edf89de85e4c147c012a80a3b624c55587115875b96dad8b7c6811d13d7cb391a671409d074782cbc8c0abf476d3288b185f280ba383bdedc73537dc56c955bd710dd57b40dbea9743f0c406d2b6f94556a6bff23ddc40623e4e87394ee8a44e71e58cb3457e025afbc2820c9a3af1d8d0b6156b049820a0184cc2dac3c24ec95ac6c60f23c9cbf0ca8156cc2682f715499e9e9a1ed6a77f8111bfe843beb127c46923dc68cc7529a289d66db9bb9b6f9bd288f229f0bb13dda0e1349fed1690c0282d1f001a1f74a32ce0e804b5f4429f7ed28d4a61b9c24c6a71d203e370803b29f34d98feee821c8570e21e70f7592011aad02dab1f679699128121c6ce781b2db460c860c653f7d764644bc8046eaa2f5c97027a73a679a15879d03443acc8fd78b0b7208f544917b1135c023e224072ccf131ddc7604e848c2fab65c4c575ff844f02137b0039e97fb0d640fccd70a40fa7758bfd64e072abb3b9a6c02144e5365896109a241a8a14dbc490495608c6550494b08337365a2730a315f24e6700854e4b7133455de654eb49e1cb31514210647e2a442dfb184d0ee43e0e9c4af236118594dcd8cc17cb94304e296c3bab3fa32622f1289564fa0f7f68627969a56e4439875e1c47434c99ad0b7cbb0765d59ffbb5f79d583a30c0e049bd31a2622b98cd4b4a76821b6e2910c2aae0e50424ff83c456b746f1264d547cf1ef6b21e268f59edb760155b8082a4574577ebce66072a00f4ebbc0e2ff07180aeaf52fe19507baa637c13e30d70626bc929212f246e6421280e30cfe86c16cb482a14585e52b803f7ca0e74ee354920b58b87739d94ca45bbcb166cd2bda2428dc6c5d401424e279754fe38e91f22557c375a00ab47208bf48d19d740ebcf209d5da5782decccdf5f9969f761539b9be58d0bcb4095540c32179a2734a7b3da9d77642ffda37824bdff1a9607cd027964982ce671ff0848d2dbe1c06e3020c4955401e341c1be414cbb0af4d989919590396d480bc1a39e2803272a93f55f62e022d34239e4120c5d37cd92f9319c625d1adfd3020a54ac5e7a607e9cc1e4d729f86fb63b009202b7ab051d105517858b45f4ade0e29924f901d6f249b2fd08f7ab6e1d343b12df7c7ad927ab41218ad0faaa35776d7ec2754a52fa2391e8590690883d06661ba7dcd7571180d11dba172f8194da983ba20c3df3a344db2a89028e0907b573296ed52228ec55cac10ad4f07c30ca77d810b45cbf12985ea97fed4fa53d7d0e5e0a211c8e1ab82893094dd82383e2f80c12248cb7253cecca29b82ce1cde1bf4dd4e2177fe8ed71274212c7d52459b428f0de54a873d9b6ecd7227e6ce8fd30d7e7e8a5e5ff5c58dd711b06555a1b5179475c7bf2f0252b73d3c7ed1562315a0a3a889d161b4e7d19a1ea880b809f9b79e145c52332e5a75242b272516b4f142323b891f21c416f3844e884ac5bc81d993c44309436bb9d80fcf632159a9659c0d49faa2e3ae0c5b181f723bcff4f21d9c6ab9123f230fe100470b1d191b86b89ebd186af677a94ed2199ef58c6443841396f26b3c24a036c82d8c3b81df7f1057ab70743c24d536891debe70d30cac47ff5b86a50805d30a9bb834bcf5f4c17bd8b1ae49087eea906d5e3498b710c5de0ca463a1ef1a56e570616afc69d27a57307f0db0c48e2df4be9443d9f829a9b2a8796c91d084ef288ed1f68fc98d1f3249193f39b7e1ea14d9f6fcdf7a02b1639171376f449dac2e577e640f5a7cf20fa59414d36ced6981355149bdb3f67a1cf67a7bc8b86bb3fe3a0b60066e1710f185b874013f4d10b526145492cfedd8b42725ea4e7acba15dd2a2ea88d7460cb39cd350da84a1cd42e5660fcd9ce6352d4917886ecf01b6d3a5f5aa7bd3f709a1f792cd5057c8b3f61a81b13f9720cdb632cfe1af2dceb66807a6d1487dc93ad1e9a4d3eac561dab97cffdba98a0a496aca98c8eab6d34f247972111dc15f886b03482294c33c92bb58f09bfa0080a5a3e8b427fce5099b76620b4bcbdb55ed29324de1c9c8f0690973ed6a91c755a800f7378b3bb4a7306b7c80bc3a70ec0f836d1e867b446e247276efe7982c798ccb58954ac9df5cbdd7c61afe1687bf3c7a2c67eb53b75434cef15d2a4eea5585de9463559f691d0380ce65aa3aa61cfed9a1a27f35ac30fb9f61c33bf9ae65f955b50919307a6aa6381b549640402732da2faee400c8f72ad2073c5fae5ad0f47f3f32d50901ae42ae3ca8cddfa4bbf4700aab107ca7948aff07559debeedfe5094aed927b93fab480f5449a91992cac57d04dc4e0ddabdc1eeb6b20d82f9729a9345b791e93494468cce0c81149d16777bdfd18393624516378552bb0bc8908cb50d3b05fb77c76aa173c2f94cad5ea850e885e1673fc58d5446e34bdade1a25321979712e7ecec9dff6a43a5479bd0f7e339b78be28908ad452322d1804abd29bb96546d5ef243c0f98f1e0d0981f752c04c75391b0af1edd04bef1fc1e88ff8dc7d86eeb13fddbfb7480e9950aa24d862cb64a6a5600baa92ce061e249d1bfa2b05e9f6307db71060711abc90e1fd671210e55eedc8587ceb1810cfcd07fb327dbca1af05ba8e8ac308a49c1f58774011a32298bf956e0e02dad73c5293f2737ff0e3607fa61440181d32af1f7bab289cb20c2c31877f6279cb0c2163c5258216c8f927c646bc6d00c888359f177d49e175eb46d9da128a0c68bf3b1f0d507ac0a0ae2b72015fb8b964aa7f76ab5b81ed377c04fac9b4ea694d03126f32ac786e8b8a29d8460db050f91788012b26294cfdb32fd6fad585909ffc2e8aba02c3746f8491f43841f13a594170a85c1bcc1045c514926aed3333ae1f1f406144a716250a2637a2047797ff3f8b8b5d948a1e35cef7c11f3f180f253875f91a39772d40f11132e5159757f8194c6ced1f0f1f3f9fe0b141f2431343843525771787fa1c806141a383c4669d1d3d5d9e504282a3a4e4f5d607f849498a6cd00000000000000000000000000000000000000000012212d3b01fd210500b3c8bbb5ac1c5c4a1c43d11118a10f60fe11136018d45218f6bd6e78c78b5c3dd004f0c0eaffc0cd6f835ff4c94725673077892d018b5d29d8a262bc30b5c980d4a5225c8dab2fc377cbab11e027e20115442456932e8550aebc552b6e16a3d323661cf226b7de866aabe085fc4ae6d3afc4579154764698d021451f16f5e2a8cf47776ee604ee2a073c92787b324aa9546599ae505a87152531ff90dc474fec56b27b247091e24b33a56df560b7b95ae72d1b857d9e61a4695b0f2f4753395075d2e8dcaa19bfd29c8c39772455e1392bb64fcbae4f05bcae5d9d074459963101c5be5128219b12ab26b0a85a93e6ced5b022254d6019907b7be871db864a14172f638f8aa546414d7c9af866ef9b9d1efea266420f15ad62a8ae6c2bcef1add775ff1f3a02aaf62d2fd5a20b07abd2a4b9184392be4e4adddfda86c5e91dab9a6a4bcf010daccff39f7defe0b545b36744344d9d1dd8b3ff2f794ee2ca83e9815d31c10989a9ca9b75f6416c5050e9ab1a6668a8e5e4d3c06e4803aa02352e994a5b60b10afa7600ec5e358b598983af004796ae3e106be5036fc9a2d34939246dc89f7d9c602d506af1f6cdb844a43ff4ac521893c99cd5a9e8dc70ee6a468722e85df486f7fdd90755388f2b1569c614a78a18b5bf4d77871ac3ef1a0d1cc031768db95b45fc60e48f317c2b53fb28856d98136c491936065ec6aec250a959f5f3711b7f14be1a3da552e29236ae8caf4fd28dab3ec5a05c2edd08b54c082b0612925b4bfc8f9e223041374af7d4c3bd483d56821cbbfcf4c5cd7f34b5eb79d0fc213100016d907c9896619fb33d88cce28c85a5f65f92edff58cc6f7a13d57c8e873cc345f3f5a69fed63f26c0a3356c24496d7102fae44c77fc49078e77416aede712ea93080ae137d44fdb72bb7841931aa60f401bb2ad417fbdc76b29a71587b9c0ee8eaf3a8b5298bfe021984acadef84cf182d4c94511e88d62ec650dbe260d64ec455108b6d0cf8c97d98d118071609cfc379284edf448c31a7c95d94aebd368ea2c266ec7119ffdb063669e00dbe470cb623836158349632e679a941d006890875d44a2f435fe4844a043e3d6560d020f570bd550a863912a6fb2d373b61892a4571e658c6cf3e4828e37f285a66f99a27bdd56f46c3e322027639b59c27aa0c3166c7092c0b7c4fb4b23bfc8d245c0f29c3e4082b3159efddd7e533c822ca4cc7067970deb422eae177776c49fdcc9f19cd3981c0e8ced7d3be13feabccdb659509d584ed74fc3ade0cb0c261689dfc7a6161e06f45d1d361fbacded52cec24f103eb363c0133689582b802251ed9dbd8d5e8e0dbbb554ec33639935c6205d8edafd30979d6b86026fbe60f75a99d8fc716ae566aec6ebae926ac6e8006284eeadb1da8b273a24be1f7c6470a903d79d82bf0837d9891cb06bffa4a9163cb321f3e5af65340fe9601e8ba9d59248e3b75a50780884a9c283f22a53a3aba6ed26ae9cdcb40d192d1668377c70e0ba1c67a2ace87739ecef37d4c18519feb62c58243bc4dede12d31a8187bc20fdbc5aa86fd5734b81a0fe8d2c7d8f551f9ad24e87a58f8f6dbebf0b07486f13d01c3c4bdf0e7eeb220f2c7b69d011c826fa1dfb6e11b15dfcaaf2bd568eed686cf6534fb8bde3b27ebdb9b3c80026bf0c2966f8ca855e7eb3599c0a466fd1f5bce742104facae8c4c27d2896342c68d0d12bfb4649aef4dce24fdbd95f9b06d09ac59c02c598f36542d87e0257efd8ae2b2c3dbec5c7d02df1b9cad518b3e0827cb4b097bfe60b8258aded8530aabd5c48e6fa07bf3264970a219af9f6e9f2a5ddd250fc89f5e1f3352a5d8a1e85000000",
  "txid": "ea7c328953f8d1b562338ecf921ae6b87143ea56ff67d01036cedf30af69b6a4",
  "hash": "098875efd78a435dfc506d2d50ff871a7d3a640ff4f247a9a2a51dbcad2d8178",
  "size": 5085,
  "vsize": 2278,
  "version": 1,
  "locktime": 133,
  "vin": [
    {
      "txid": "fa4ff5be3ab980f42669ee88fec92a841b30b7d30271a5d56e5aa8402971bbd4",
      "vout": 1,
      "scriptSig": {
        "asm": "",
        "hex": ""
      },
      "txinwitness": [
        "8c8a8faa8660dafb9f6de0808ccac381bc0cf09e58a4ab90e7638c612b3f749691e283eca925226e73fcc2221600c29a0fbad37f071bf1b56d0f4c38c8d2bedd04efdb26fbad536b3303cc54418186b7555004859375bac5a97cfb0f1b3b632dc77ca06a4c9c7d35005d215a9e885a40ad62a7fe477dd39ab1e5215d9094c82fb705f85dba415bfc20dd23a806219af2d84de2e3acd394824b1193f84cd567ca414f7d58f87e9eb2c1455ea3b171c7f470ac85a7d02fad625aa02cf61225bf9a06f1849d01479ee178b8d13491224a220dc599bbbe8fc5be563c5fb9498074f76b8b8d11514ff1a26054c70ef54008779882a6c619115f78224d4d605eb5be14600b20db9418829f25edf89de85e4c147c012a80a3b624c55587115875b96dad8b7c6811d13d7cb391a671409d074782cbc8c0abf476d3288b185f280ba383bdedc73537dc56c955bd710dd57b40dbea9743f0c406d2b6f94556a6bff23ddc40623e4e87394ee8a44e71e58cb3457e025afbc2820c9a3af1d8d0b6156b049820a0184cc2dac3c24ec95ac6c60f23c9cbf0ca8156cc2682f715499e9e9a1ed6a77f8111bfe843beb127c46923dc68cc7529a289d66db9bb9b6f9bd288f229f0bb13dda0e1349fed1690c0282d1f001a1f74a32ce0e804b5f4429f7ed28d4a61b9c24c6a71d203e370803b29f34d98feee821c8570e21e70f7592011aad02dab1f679699128121c6ce781b2db460c860c653f7d764644bc8046eaa2f5c97027a73a679a15879d03443acc8fd78b0b7208f544917b1135c023e224072ccf131ddc7604e848c2fab65c4c575ff844f02137b0039e97fb0d640fccd70a40fa7758bfd64e072abb3b9a6c02144e5365896109a241a8a14dbc490495608c6550494b08337365a2730a315f24e6700854e4b7133455de654eb49e1cb31514210647e2a442dfb184d0ee43e0e9c4af236118594dcd8cc17cb94304e296c3bab3fa32622f1289564fa0f7f68627969a56e4439875e1c47434c99ad0b7cbb0765d59ffbb5f79d583a30c0e049bd31a2622b98cd4b4a76821b6e2910c2aae0e50424ff83c456b746f1264d547cf1ef6b21e268f59edb760155b8082a4574577ebce66072a00f4ebbc0e2ff07180aeaf52fe19507baa637c13e30d70626bc929212f246e6421280e30cfe86c16cb482a14585e52b803f7ca0e74ee354920b58b87739d94ca45bbcb166cd2bda2428dc6c5d401424e279754fe38e91f22557c375a00ab47208bf48d19d740ebcf209d5da5782decccdf5f9969f761539b9be58d0bcb4095540c32179a2734a7b3da9d77642ffda37824bdff1a9607cd027964982ce671ff0848d2dbe1c06e3020c4955401e341c1be414cbb0af4d989919590396d480bc1a39e2803272a93f55f62e022d34239e4120c5d37cd92f9319c625d1adfd3020a54ac5e7a607e9cc1e4d729f86fb63b009202b7ab051d105517858b45f4ade0e29924f901d6f249b2fd08f7ab6e1d343b12df7c7ad927ab41218ad0faaa35776d7ec2754a52fa2391e8590690883d06661ba7dcd7571180d11dba172f8194da983ba20c3df3a344db2a89028e0907b573296ed52228ec55cac10ad4f07c30ca77d810b45cbf12985ea97fed4fa53d7d0e5e0a211c8e1ab82893094dd82383e2f80c12248cb7253cecca29b82ce1cde1bf4dd4e2177fe8ed71274212c7d52459b428f0de54a873d9b6ecd7227e6ce8fd30d7e7e8a5e5ff5c58dd711b06555a1b5179475c7bf2f0252b73d3c7ed1562315a0a3a889d161b4e7d19a1ea880b809f9b79e145c52332e5a75242b272516b4f142323b891f21c416f3844e884ac5bc81d993c44309436bb9d80fcf632159a9659c0d49faa2e3ae0c5b181f723bcff4f21d9c6ab9123f230fe100470b1d191b86b89ebd186af677a94ed2199ef58c6443841396f26b3c24a036c82d8c3b81df7f1057ab70743c24d536891debe70d30cac47ff5b86a50805d30a9bb834bcf5f4c17bd8b1ae49087eea906d5e3498b710c5de0ca463a1ef1a56e570616afc69d27a57307f0db0c48e2df4be9443d9f829a9b2a8796c91d084ef288ed1f68fc98d1f3249193f39b7e1ea14d9f6fcdf7a02b1639171376f449dac2e577e640f5a7cf20fa59414d36ced6981355149bdb3f67a1cf67a7bc8b86bb3fe3a0b60066e1710f185b874013f4d10b526145492cfedd8b42725ea4e7acba15dd2a2ea88d7460cb39cd350da84a1cd42e5660fcd9ce6352d4917886ecf01b6d3a5f5aa7bd3f709a1f792cd5057c8b3f61a81b13f9720cdb632cfe1af2dceb66807a6d1487dc93ad1e9a4d3eac561dab97cffdba98a0a496aca98c8eab6d34f247972111dc15f886b03482294c33c92bb58f09bfa0080a5a3e8b427fce5099b76620b4bcbdb55ed29324de1c9c8f0690973ed6a91c755a800f7378b3bb4a7306b7c80bc3a70ec0f836d1e867b446e247276efe7982c798ccb58954ac9df5cbdd7c61afe1687bf3c7a2c67eb53b75434cef15d2a4eea5585de9463559f691d0380ce65aa3aa61cfed9a1a27f35ac30fb9f61c33bf9ae65f955b50919307a6aa6381b549640402732da2faee400c8f72ad2073c5fae5ad0f47f3f32d50901ae42ae3ca8cddfa4bbf4700aab107ca7948aff07559debeedfe5094aed927b93fab480f5449a91992cac57d04dc4e0ddabdc1eeb6b20d82f9729a9345b791e93494468cce0c81149d16777bdfd18393624516378552bb0bc8908cb50d3b05fb77c76aa173c2f94cad5ea850e885e1673fc58d5446e34bdade1a25321979712e7ecec9dff6a43a5479bd0f7e339b78be28908ad452322d1804abd29bb96546d5ef243c0f98f1e0d0981f752c04c75391b0af1edd04bef1fc1e88ff8dc7d86eeb13fddbfb7480e9950aa24d862cb64a6a5600baa92ce061e249d1bfa2b05e9f6307db71060711abc90e1fd671210e55eedc8587ceb1810cfcd07fb327dbca1af05ba8e8ac308a49c1f58774011a32298bf956e0e02dad73c5293f2737ff0e3607fa61440181d32af1f7bab289cb20c2c31877f6279cb0c2163c5258216c8f927c646bc6d00c888359f177d49e175eb46d9da128a0c68bf3b1f0d507ac0a0ae2b72015fb8b964aa7f76ab5b81ed377c04fac9b4ea694d03126f32ac786e8b8a29d8460db050f91788012b26294cfdb32fd6fad585909ffc2e8aba02c3746f8491f43841f13a594170a85c1bcc1045c514926aed3333ae1f1f406144a716250a2637a2047797ff3f8b8b5d948a1e35cef7c11f3f180f253875f91a39772d40f11132e5159757f8194c6ced1f0f1f3f9fe0b141f2431343843525771787fa1c806141a383c4669d1d3d5d9e504282a3a4e4f5d607f849498a6cd00000000000000000000000000000000000000000012212d3b01",
        "00b3c8bbb5ac1c5c4a1c43d11118a10f60fe11136018d45218f6bd6e78c78b5c3dd004f0c0eaffc0cd6f835ff4c94725673077892d018b5d29d8a262bc30b5c980d4a5225c8dab2fc377cbab11e027e20115442456932e8550aebc552b6e16a3d323661cf226b7de866aabe085fc4ae6d3afc4579154764698d021451f16f5e2a8cf47776ee604ee2a073c92787b324aa9546599ae505a87152531ff90dc474fec56b27b247091e24b33a56df560b7b95ae72d1b857d9e61a4695b0f2f4753395075d2e8dcaa19bfd29c8c39772455e1392bb64fcbae4f05bcae5d9d074459963101c5be5128219b12ab26b0a85a93e6ced5b022254d6019907b7be871db864a14172f638f8aa546414d7c9af866ef9b9d1efea266420f15ad62a8ae6c2bcef1add775ff1f3a02aaf62d2fd5a20b07abd2a4b9184392be4e4adddfda86c5e91dab9a6a4bcf010daccff39f7defe0b545b36744344d9d1dd8b3ff2f794ee2ca83e9815d31c10989a9ca9b75f6416c5050e9ab1a6668a8e5e4d3c06e4803aa02352e994a5b60b10afa7600ec5e358b598983af004796ae3e106be5036fc9a2d34939246dc89f7d9c602d506af1f6cdb844a43ff4ac521893c99cd5a9e8dc70ee6a468722e85df486f7fdd90755388f2b1569c614a78a18b5bf4d77871ac3ef1a0d1cc031768db95b45fc60e48f317c2b53fb28856d98136c491936065ec6aec250a959f5f3711b7f14be1a3da552e29236ae8caf4fd28dab3ec5a05c2edd08b54c082b0612925b4bfc8f9e223041374af7d4c3bd483d56821cbbfcf4c5cd7f34b5eb79d0fc213100016d907c9896619fb33d88cce28c85a5f65f92edff58cc6f7a13d57c8e873cc345f3f5a69fed63f26c0a3356c24496d7102fae44c77fc49078e77416aede712ea93080ae137d44fdb72bb7841931aa60f401bb2ad417fbdc76b29a71587b9c0ee8eaf3a8b5298bfe021984acadef84cf182d4c94511e88d62ec650dbe260d64ec455108b6d0cf8c97d98d118071609cfc379284edf448c31a7c95d94aebd368ea2c266ec7119ffdb063669e00dbe470cb623836158349632e679a941d006890875d44a2f435fe4844a043e3d6560d020f570bd550a863912a6fb2d373b61892a4571e658c6cf3e4828e37f285a66f99a27bdd56f46c3e322027639b59c27aa0c3166c7092c0b7c4fb4b23bfc8d245c0f29c3e4082b3159efddd7e533c822ca4cc7067970deb422eae177776c49fdcc9f19cd3981c0e8ced7d3be13feabccdb659509d584ed74fc3ade0cb0c261689dfc7a6161e06f45d1d361fbacded52cec24f103eb363c0133689582b802251ed9dbd8d5e8e0dbbb554ec33639935c6205d8edafd30979d6b86026fbe60f75a99d8fc716ae566aec6ebae926ac6e8006284eeadb1da8b273a24be1f7c6470a903d79d82bf0837d9891cb06bffa4a9163cb321f3e5af65340fe9601e8ba9d59248e3b75a50780884a9c283f22a53a3aba6ed26ae9cdcb40d192d1668377c70e0ba1c67a2ace87739ecef37d4c18519feb62c58243bc4dede12d31a8187bc20fdbc5aa86fd5734b81a0fe8d2c7d8f551f9ad24e87a58f8f6dbebf0b07486f13d01c3c4bdf0e7eeb220f2c7b69d011c826fa1dfb6e11b15dfcaaf2bd568eed686cf6534fb8bde3b27ebdb9b3c80026bf0c2966f8ca855e7eb3599c0a466fd1f5bce742104facae8c4c27d2896342c68d0d12bfb4649aef4dce24fdbd95f9b06d09ac59c02c598f36542d87e0257efd8ae2b2c3dbec5c7d02df1b9cad518b3e0827cb4b097bfe60b8258aded8530aabd5c48e6fa07bf3264970a219af9f6e9f2a5ddd250fc89f5e1f3352a5d8a1e"
      ],
      "sequence": 4294967294
    }
  ],
  "vout": [
    {
      "value": 499970.5099,
      "n": 0,
      "scriptPubKey": {
        "asm": "1 fb4637adef9eaf108f68065124bfbde589f64bf0f142727c6976b82c0595f00a",
        "hex": "5120fb4637adef9eaf108f68065124bfbde589f64bf0f142727c6976b82c0595f00a",
        "reqSigs": 1,
        "type": "witness_v1_scripthash",
        "addresses": [
          "3QJmnh"
        ]
      }
    },
    {
      "value": 1.0,
      "n": 1,
      "scriptPubKey": {
        "asm": "OP_RETURN 34fdf65767c4b62e618ec1e4dbdd16f75f29eccecd3fa5d5d848d67dc61e16b6 18684213c65fc6435761b350202296477bedd8a3b4b56cbf6f5d04e68a4b6b2938486233e67fe663774193700002b6675bcdf88394954c9f4f7d24c6aa6b4b0958280253861f86031721f3106062d6073bad98e3f4f52cff2f1d44a6ca0b2b6978082273a63fa6233701d3304042f6271b8db8c3d4d50cdf0f3d6486ea2b0b4998e8c29346df46c3d7e133d0a0a216c7fb6d58233435ec3fefdd84660acbeba9b8c8e2b366ff66e3f7c113f0808236e7db4d78031415cc1fcffda4462aebcb89d8a882d3069f068397a17390e0e25687bb2d18637475ac7faf9dc4264a8babe9f888a2f326bf26a3b78153b0c0c276a79b0d384354558c5f8fbde4066aab8bc918684213c65fc6435761b350202296477bedd8a3b4b56cbf6f5d04e68a4b6b2938486233e67fe663774193700002b6675bcdf88394954c9f4f7d24c6aa6b4b0958280253861f86031721f3106062d6073bad98e3f4f52cff2f1d44a6ca0b2b6978082273a63fa6233701d3304042f6271b8db8c3d4d50cdf0f3d6486ea2b0b4998e8c29346df46c3d7e133d0a0a216c7fb6d58233435ec3fefdd84660acbeba9b8c8e2b366ff66e3f7c113f0808236e7db4d78031415cc1fcffda4462aebcb89d8a882d3069f068397a17390e0e25687bb2d18637475ac7faf9dc4264a8babe9f888a2f326bf26a3b78153b0c0c276a79b0d384354558c5f8fbde4066aab8bc918684213c65fc6435761b350202296477bedd8a3b4b56cbf6f5d04e68a4b6b2938486233e67fe663774193700002b6675bcdf88394954c9f4f7d24c6aa6b4b0958280253861f86031721f3106062d6073bad98e3f4f52cff2f1d44a6ca0b2b6978082273a63fa6233701d3304042f6271b8db8c3d4d50cdf0f3d6486ea2b0b4998e8c29346df46c3d7e133d0a0a216c7fb6d58233435ec3fefdd84660acbeba9b8c8e2b366ff66e3f7c113f0808236e7db4d78031415cc1fcffda4462aebcb89d8a882d3069f068397a17390e0e25687bb2d18637475ac7faf9dc4264a8babe9f888a2f326bf26a3b78153b0c0c276a79b0d384354558c5f8fbde4066aab8bc918684213c65fc6435761b350202296477bedd8a3b4b56cbf6f5d04e68a4b6b2938486233e67fe663774193700002b6675bcdf88394954c9f4f7d24c6aa6b4b0958280253861f86031721f3106062d6073bad98e3f4f52cff2f1d44a6ca0b2b6978082273a63fa6233701d3304042f6271b8db8c3d4d50cdf0f3d6486ea2b0b4998e8c29346df46c3d7e133d0a0a216c7fb6d58233435ec3fefdd84660acbeba9b8c8e2b366ff66e3f7c113f0808236e7db4d78031415cc1fcffda4462aebcb89d8a882d3069f068397a17390e0e25687bb2d18637475ac7faf9dc4264a8babe9f888a2f326bf26a3b78153b0c0c276a79b0d384354558c5f8fbde4066aab8bc918684213c65fc6435761b350202296477bedd8a3b4b56cbf6f5d04e68a4b6b2938486233e67fe663774193700002b6675bcdf88394954c9f4f7d24c6aa6b4b0958280253861f86031721f3106062d6073bad98e3f4f52cff2f1d44a6ca0b2b6978082273a63fa6233701d3304042f6271b8db8c3d4d50cdf0f3d6486ea2b0b4998e8c29346df46c3d7e133d0a0a216c771110edbc00a5b7493282a25aec5e7fc2703568c000191074362e7c6edf5d67d",
        "hex": "6a2034fdf65767c4b62e618ec1e4dbdd16f75f29eccecd3fa5d5d848d67dc61e16b64db00418684213c65fc6435761b350202296477bedd8a3b4b56cbf6f5d04e68a4b6b2938486233e67fe663774193700002b6675bcdf88394954c9f4f7d24c6aa6b4b0958280253861f86031721f3106062d6073bad98e3f4f52cff2f1d44a6ca0b2b6978082273a63fa6233701d3304042f6271b8db8c3d4d50cdf0f3d6486ea2b0b4998e8c29346df46c3d7e133d0a0a216c7fb6d58233435ec3fefdd84660acbeba9b8c8e2b366ff66e3f7c113f0808236e7db4d78031415cc1fcffda4462aebcb89d8a882d3069f068397a17390e0e25687bb2d18637475ac7faf9dc4264a8babe9f888a2f326bf26a3b78153b0c0c276a79b0d384354558c5f8fbde4066aab8bc918684213c65fc6435761b350202296477bedd8a3b4b56cbf6f5d04e68a4b6b2938486233e67fe663774193700002b6675bcdf88394954c9f4f7d24c6aa6b4b0958280253861f86031721f3106062d6073bad98e3f4f52cff2f1d44a6ca0b2b6978082273a63fa6233701d3304042f6271b8db8c3d4d50cdf0f3d6486ea2b0b4998e8c29346df46c3d7e133d0a0a216c7fb6d58233435ec3fefdd84660acbeba9b8c8e2b366ff66e3f7c113f0808236e7db4d78031415cc1fcffda4462aebcb89d8a882d3069f068397a17390e0e25687bb2d18637475ac7faf9dc4264a8babe9f888a2f326bf26a3b78153b0c0c276a79b0d384354558c5f8fbde4066aab8bc918684213c65fc6435761b350202296477bedd8a3b4b56cbf6f5d04e68a4b6b2938486233e67fe663774193700002b6675bcdf88394954c9f4f7d24c6aa6b4b0958280253861f86031721f3106062d6073bad98e3f4f52cff2f1d44a6ca0b2b6978082273a63fa6233701d3304042f6271b8db8c3d4d50cdf0f3d6486ea2b0b4998e8c29346df46c3d7e133d0a0a216c7fb6d58233435ec3fefdd84660acbeba9b8c8e2b366ff66e3f7c113f0808236e7db4d78031415cc1fcffda4462aebcb89d8a882d3069f068397a17390e0e25687bb2d18637475ac7faf9dc4264a8babe9f888a2f326bf26a3b78153b0c0c276a79b0d384354558c5f8fbde4066aab8bc918684213c65fc6435761b350202296477bedd8a3b4b56cbf6f5d04e68a4b6b2938486233e67fe663774193700002b6675bcdf88394954c9f4f7d24c6aa6b4b0958280253861f86031721f3106062d6073bad98e3f4f52cff2f1d44a6ca0b2b6978082273a63fa6233701d3304042f6271b8db8c3d4d50cdf0f3d6486ea2b0b4998e8c29346df46c3d7e133d0a0a216c7fb6d58233435ec3fefdd84660acbeba9b8c8e2b366ff66e3f7c113f0808236e7db4d78031415cc1fcffda4462aebcb89d8a882d3069f068397a17390e0e25687bb2d18637475ac7faf9dc4264a8babe9f888a2f326bf26a3b78153b0c0c276a79b0d384354558c5f8fbde4066aab8bc918684213c65fc6435761b350202296477bedd8a3b4b56cbf6f5d04e68a4b6b2938486233e67fe663774193700002b6675bcdf88394954c9f4f7d24c6aa6b4b0958280253861f86031721f3106062d6073bad98e3f4f52cff2f1d44a6ca0b2b6978082273a63fa6233701d3304042f6271b8db8c3d4d50cdf0f3d6486ea2b0b4998e8c29346df46c3d7e133d0a0a216c771110edbc00a5b7493282a25aec5e7fc2703568c000191074362e7c6edf5d67d",
        "type": "nulldata"
      }
    }
  ],
  "blockhash": "e83fb8d8eae63b54f6b1b3d1fbcbee555d4e910f42cfd1b5d97cc48d92172bc4",
  "confirmations": 1,
  "time": 1764182633,
  "blocktime": 1764182633
}