{
  "hex": "0100000000010134428ac30740f8d59c4d8f641e4ba673c95b4cfd50c0d8df757250336615c40c0000000000feffffff02c075fe6f792d000022512082265c47bb83aec6b1d42447143cc52a6ac0e9fb7bc387b4656150ea62fef21c00e1f50500000000fdd5046a20a3d32657a78a3ed7872da0f5ca9e3d4b34e2cc7a696741c8590ff87fe85f02db4db004d10c0cd96e7f4280ad1e7022bdaa20584e9efdfbdef327d02da6a22d9f1c6273f12c2cf94e5f62a08d3e50029d8a00786ebedddbfed307f00d86820dbf3c4253914c4c992e3f02c0ed5e3062fdea60180edebdbb9eb367906de6e26ddf5c2233b16c6cb90e1f22e0cd7e1042ddca40382efe9d9bbe9347b04dc6c24dff7c0213518c8c59eeffc2002d9ef0a23d2aa0d8ce1e7d7b5e73a750ad2622ad1f9ce2f371acac79cedfe2200dbed0821d0a80f8ee3e5d5b7e5387708d06028d3fbcc2d311cccc19aebf82406ddeb0e27d6ae0988e5e3d3b1e33e710ed6662ed5fdca2b331ecec398e9fa2604dfe90c25d4ac0b8ae7e1d1b3e13c730cd4642cd7ffc8293d10c0cd96e7f4280ad1e7022bdaa20584e9efdfbdef327d02da6a22d9f1c6273f12c2cf94e5f62a08d3e50029d8a00786ebedddbfed307f00d86820dbf3c4253914c4c992e3f02c0ed5e3062fdea60180edebdbb9eb367906de6e26ddf5c2233b16c6cb90e1f22e0cd7e1042ddca40382efe9d9bbe9347b04dc6c24dff7c0213518c8c59eeffc2002d9ef0a23d2aa0d8ce1e7d7b5e73a750ad2622ad1f9ce2f371acac79cedfe2200dbed0821d0a80f8ee3e5d5b7e5387708d06028d3fbcc2d311cccc19aebf82406ddeb0e27d6ae0988e5e3d3b1e33e710ed6662ed5fdca2b331ecec398e9fa2604dfe90c25d4ac0b8ae7e1d1b3e13c730cd4642cd7ffc8293d10c0cd96e7f4280ad1e7022bdaa20584e9efdfbdef327d02da6a22d9f1c6273f12c2cf94e5f62a08d3e50029d8a00786ebedddbfed307f00d86820dbf3c4253914c4c992e3f02c0ed5e3062fdea60180edebdbb9eb367906de6e26ddf5c2233b16c6cb90e1f22e0cd7e1042ddca40382efe9d9bbe9347b04dc6c24dff7c0213518c8c59eeffc2002d9ef0a23d2aa0d8ce1e7d7b5e73a750ad2622ad1f9ce2f371acac79cedfe2200dbed0821d0a80f8ee3e5d5b7e5387708d06028d3fbcc2d311cccc19aebf82406ddeb0e27d6ae0988e5e3d3b1e33e710ed6662ed5fdca2b331ecec398e9fa2604dfe90c25d4ac0b8ae7e1d1b3e13c730cd4642cd7ffc8293d10c0cd96e7f4280ad1e7022bdaa20584e9efdfbdef327d02da6a22d9f1c6273f12c2cf94e5f62a08d3e50029d8a00786ebedddbfed307f00d86820dbf3c4253914c4c992e3f02c0ed5e3062fdea60180edebdbb9eb367906de6e26ddf5c2233b16c6cb90e1f22e0cd7e1042ddca40382efe9d9bbe9347b04dc6c24dff7c0213518c8c59eeffc2002d9ef0a23d2aa0d8ce1e7d7b5e73a750ad2622ad1f9ce2f371acac79cedfe2200dbed0821d0a80f8ee3e5d5b7e5387708d06028d3fbcc2d311cccc19aebf82406ddeb0e27d6ae0988e5e3d3b1e33e710ed6662ed5fdca2b331ecec398e9fa2604dfe90c25d4ac0b8ae7e1d1b3e13c730cd4642cd7ffc8293d10c0cd96e7f4280ad1e7022bdaa20584e9efdfbdef327d02da6a22d9f1c6273f12c2cf94e5f62a08d3e50029d8a00786ebedddbfed307f00d86820dbf3c4253914c4c992e3f02c0ed5e3062fdea60180edebdbb9eb367906de6e26ddf5c2233b16c6cb90e1f22e0cd7e1042ddca40382efe9d9bbe9347b04dc6c24dff7c0213518c8c59eeffc2002d9ef0a23d2aa0d81599bc91a932a1ea627a0739bac410e0bf009b0478402764cebeca0fc7c81f3002fd750991b961a01f0e126046babb4087b74c388099728f284e37f6ac2786c597fe4c536041399fecfdf43f0548aadbfe2bf870133beb73e10bdff2bdc233685ff3425c0a8610b85deba47dd0cca3214b8679c42c35f00f5e9c4d0dbbe98d3dc2266bdd9bc613572e3611bfd76b2b32930b9f600f5eec8a73a43c2123c81a99436a3eceeb278a2027bc07e7fda5c48f9d7705710ac3f5736150503221c7248e95cf5f77673369d546dc05505ead4bafe4df5c1c11c8f77330525adeafe5fd2e0a4b08b2f7d5769b76a4ba110fb6ce106cec68a559628f27367c6f07595cec32c657af91f98a9c4095ff813286892f64781a1ede4a7b654dcd5d07eecf98f8660b0ec4acdd0af03f8c21cea4b6bbb203d6bd214d8c9b2e8e669d807761471771bd2e4eda8b49919fa51dcf9e0f77e338ab4389a6b30db9e3e9243f61ec0c04e903ef5f86bf88cb04a5783d98aa755563118dee467a8b1be88d9b7033c5844607151ed679756d0e9ba989e717dc8dbf1c7edefdf95bd30a1ce48c308f67a31d93cb8da0b4b1f1c6bf48400326120a74f2f64e6e305895da1279092b189fe1435ea7fff1361b19409373acf526e3c34e0fe331e5971d6e65b2c88c7897e5bc389468ade1cadbd03f01f460633dca44109f3b3e5f6d3f223ddf81fc086f0aa5118495b1d01d784ffb75ca2fbb8fe972edc6c3d62a6e9c47d1cfed2110242b6ca4dba949212471f378cbbb1360228eaf564a4fb371896ff59470c6227b1cafb24170451f5f7065504b298c42fc992cf5b1257fc11f16ce2dac7539a99d65cd1734d2359f9108c2a1cff97c1277ec20af41b7adf989c1ce845ab482641bd435f373312b3519eef4fa4c8b5059b4edba8a2b6a00d225b8bc5c892c43f40bf2399c7d94fc34016ae19a69681f0c8f681e3f6963c68e7f3226460d415a33b046d53508bff2c6ec6f68b46490947e22440fd57b775e1d069cd6d274d249cce9a40112f3228ea4d7cecf8efa00feb71742485615dcc0ea45c022fe1b051da2a9127026d0ba0bfcbb925302eb89320c23d75fd12c815a8959e0cc93a7d755a1032d340c4a6acbfc77c27330d4eb980e485f88aa3df7e2c3cb9c630b89e79e58a8f9856f9856e7bedd55925a2a5b394a064bee561ffd54b17d254b3097cd284e999795e9fecf89e2a0962afefb481fccac871b93450eb37b4df8a018c41e722fade88c033c4f17e02d16a0611cc8edf6be6658945c298bc3a7a2bcfd8c00e8f41862286a8e762760099cd9b3c43c2a453421267adce1879f46563c4d7356a077046e71f27a13fd5a19f7d24c6683ba1c6ed5d26e9f30d1bd84cbc270522086cdb047783d0160c469761e7542f690d316185e15ae6e9394d49b72961941abc77d7d7d33bf5117d0a8f6c3aa83568e161f28d73fcdbee4aa72ac6896163abb254453b2d07a28f86b34bf93f52aed89c93369b29ea496e553a034a12e4f74d8c2d298ff350e716abf13fea92ffc2b0aa01fe02cba96a10963aff398e8a9238c55783272ee4788c1bdb289566e5088e713145ec642c2af89c1be7151a169f1aa54d560c4749087dd160c9aa482e0631052628cac2787399cba148ebf2d24c0e355d119b5e4a70b89fabcbc646f2a38feec3b95ad25a83b3c7b9e70b1c09cc703ba692b442b446738207c5024e27a7b62b9a7c454e50822cb2b7086619210c13c0bb6c2eade27d7411829ce46cddca848d22d5d1fb4240a1c3a592be62616a92ddd7fd9febbc62dbf175c467ad3895685f5f04b01f7831c112bc25691c369ffc78073ac412d6a2808f9e099a7c4b52b588046dd06ba33f1926b11bcc0c785276059935e2d9d87b0c594b75fb076bf72dc87570b068d880686925cf16898fec78d6d9e963420b3a934dfa1a78c0d7d293a10dd097b7cd6d1093e783eed15dd6327a7c1f0a433a42c2a33ee257fb344342b6cb76bdb30f862ca145a71ab14cd9dbf25a16048dbd9d2d294ccaf83c816818ee876f63376c4d937e1a8ee1b2702ce882c8544c8989d8aabcf1403423211062010b17241c14ceccac2f9a7811572c489ec7154e81e36bcee4895df0616da726142771c30057e3b77434ae02e85b296761440284d672a6636ea3ff42c98aec5510f8c883f6b667782918aed4548490c2c5f3ef09673c82ee71c252e1527efeb32ddd4c29d210e368b75432f964d148c52401f75efc6c06b1b266fd8e13fc238c751ca5463cf8b0a5ba01593fccf877af4311c74a266664aa2e7cc6a8abd51966a33ab5321f743cfc9dd3c4e5144c805c4c1302e4bf54c0e22db5b68351f76844d90230d08c272bbfd4eaeee8ad787ae21cfa88c1373f0d3a5e96841eeb6fb737d6c615e66241e92900b8b2dbbedaee3cf32eeb49c6d6f5436897ef34af6fcc97b7584af8d1ffc8ff7aa39263148e800b3fee2e903df5072a944b83477dac66847652a6fe51c278ddc1f1fd7aea59d5ee5d295ea692ce1c3fcdcb9afac53fe8296515e14e91465ad3f094b8b90976b2d51085b9cbca0211a110d8db0fa2700bf60a4d799103a336155db2c8d58c8d28e3f33c9c48024e2240da24a02eefeeb251b8a3981de73912558609443d5ae1f03e442427d9f92a169842de8a03cbbeafef2ed7fc053c53a46cd6df381f1026a37ff3ebf4c284796aff2260871cb6c467c2e04c9a6e7c38f7de60a397732ee462ce03698b3d4522359ee8053026eafc64fdeb7e7acee388bbc863cca409fb2b530549dd6ce52b05f80b4d35ddba1a53c0acfd9f17387d24603c752151553847488cdbee8e07cc94420fee5b30ccf9dcc2dc17407a7da68f2a5e6471f8a81e7c14e1bbf57c4c82b5f6557ab0aa0b72ea89511184bc2a40db21b711acc721d22c8c6218a80dc6145894117a1c00286de82c0adf50ea8f1140035897a5f4d206877d13d1ec96dd092b6f97ec77e85dc64dc2410cf8372a45c7551877830ce445f965c5e605833de2e8ad4b700346719ee2d51d7741a3cfc25e8638dc5a74d75c6410968fcdf6a99fcef9c5fa41927f3bd35645d7d7ff9659800a33ebc946b30b4a53d311b0584c551dc0953b813e26630203de90d1bfb83784f5413a9693b0d815d0b4b66b357966d07c224777a9b57e011d77b85e23eaa5c4f62abe01a3f335758f3e94448ca025ead7c039ca3363ef915b86a5b9ae6cae07cbf4c070fc0bbdda6de93eb2a772f706c146209cf8f0c6d52ebe7312d0f3f929c8ae839eff87afa00b4ea3573eb2d16a5631ce68f890c5932b536afab1db6b46865cd98d80b0437ffc77df12fcf58d5d1f0127b29a6030e1113484eaccad7eb000a4e5162717d92b6e1e9f0f6f90214151d222a43464749515d6485b4bae7697a808f90959ab1b4d6d8f3f80000000000000000000000000000000000000000000000000000000917283501fd21050058236e7cc364df07a9b174ae02c81e9688b877138d5562ef380ddddaa60d80c89b8a42511f9a422cd151d15b591f67f797d8db3b216e7ac5465f928159c5a0f745e993a82cda95044f46a552542a8ecb66814500946df08bd2e223f4f00b32a542e6765a3cfe659612ed8890e5912f32d552858a53e0aacf4fdaf1b6c028942695e3fbe9eee45c529b20ae903dfd351b990cd28fdd6c16e684e33fe088b498389e8c8156a7c87ab2bb44a798d845ddc5f675d13e090a2ad193de0df1de267f81f9aa367a54eb6c789f6ba5afd598ced40f53f7b82b21f60038f5901b525b0a93627284133a55bdaf93f12358ba53f30196b940e4e90745a0effd5ad471246a70f772a953221353bff4ba7f96c95f0ae8540fda4c01c20b2392e05cc3ebcf6aa4193d1c44ada8ea96e6f5515e60bc6dcaafb19e4146eb5c09b7a3f6fef444b166a05b4c0f4645ce1de9aa7256ad2659ba4ac8ac0e927a2df4b7afd4a3c19b6f02bb43d3753cd264f3a5e6e541ab228837b0f46674482ab499a5f7fccdfe50a3b0c38d0ecc500b71323cd12fb171ae57a252aaf1f1d4f85039e9415fc8873c304133ba5f822fce63104b19aaec091253c2ca79cac5189a36b6440e409a73f73fe50aef02928b76fef0a4229c902e53ac2d5e6e19d1aeeb2366d349e8fe52f5e104b8471ec1fa2c9e191dd179acc3411a5f30f4223a3cdf6fadae6ce8129d0a1de0863573cd88a35c10848404eea626a8112a446a8e843f6e9fa34aa3933367ba4826c12f056cc2c6a2aaa4e3dd76d90e0b3878f22a8616d9a7861c5abc3d434716e8bfb79e7d72fa1249b691ce22b9efe5bc5649868eae002364b0f060ace303c38e220a88790796e795e71a4703ef62858d0bd89477da9b34d89f89b7907ffefd82c9d13120e6294fa6585e55513dbbe14528c8e34ef205aeb94e8bfcaf9cfa968e24332974aa070a1510ad1efab2ca9363ee3102aefebac6e83a7d4c84370531e4edc8b1e796a921c11e029f4084e10adf3db80398be14933f7d233f3853197aca38dd14dae0ca1d9edbd25a7001889bc128f40e917042371f4df2179ba5cfa949a9ba7a44f1f8da0944287eb75023dd9e03d7de21e0d733b329a66eb8e474cc4ae993d15c6e84d4052d49f1fb96ecef265727844d845d223becbd4de70b8cb52e9b0bf810c2b58d2601158c0c3239dca82f084631aa2e466ceaf647c2217d30bfbbacd659f91f9035c98d18b11f948b1a30200f7e19dd4fe383174467992ed084d93ccab73bc1c27f2c3a2e2697c243c360a62f7e5927c73d5cd895013ebab116d3a123a903acc8bdddb654fa0aeddcf5bf3c0c644a768e072c0bf2535317b64a6da91828306de7f65c5742804d7a042dad7cb8d8b2af23bc8a06159535b9841ab384abcb55ad2cc1da5365319f711390954aed40c9a455bd7b3f080d5fa56d80c4c0eaad751fa5c1584aa27a11753eda83e7153dbd23e5e31ea6a91088544907aa292925afd2e50b8d02eb0dd191ffb79aa40f210d0a644891ce23a72280e56857d8cc812c245c8732a8f4947f6c9f0a3097e8e26abf801b7a4f152c940d4505c084323d4b9a9376ace2c8244249b15157a033bddfa2cfb5f292d9a33066364267b3d780024cd63ec3cfb6dfedceef4c4c9628f5cf9ab84151555aeb844b4aafab60602231872a2eb6382c78509f17ec223485d79500dc8ff312f5b59567dcf6a3f7b799d1a3077c760ee5dbcc33f46730b5a4a04cb8860ad75fa54272e041d21f267a8e126b3551bc726f8e31d511c05b8fd3464534995265a95d2b3538c8f51e7c4cf36a00dcb7baaad2a5e86b1a4d2e190e871b85875796f537bed198a167000000",
  "txid": "ee12dea87976a12dd79ac1a1f35687e02156eafaee0fecee3f5d0d3f74652e85",
  "hash": "54b25d0b82e63ee1a18fb93984c2a663be407cf397bc39cb0f8df5304b289d67",
  "size": 5085,
  "vsize": 2278,
  "version": 1,
  "locktime": 103,
  "vin": [
    {
      "txid": "0cc4156633507275dfd8c050fd4c5bc973a64b1e648f4d9cd5f84007c38a4234",
      "vout": 0,
      "scriptSig": {
        "asm": "",
        "hex": ""
      },
      "txinwitness": [
        "91b961a01f0e126046babb4087b74c388099728f284e37f6ac2786c597fe4c536041399fecfdf43f0548aadbfe2bf870133beb73e10bdff2bdc233685ff3425c0a8610b85deba47dd0cca3214b8679c42c35f00f5e9c4d0dbbe98d3dc2266bdd9bc613572e3611bfd76b2b32930b9f600f5eec8a73a43c2123c81a99436a3eceeb278a2027bc07e7fda5c48f9d7705710ac3f5736150503221c7248e95cf5f77673369d546dc05505ead4bafe4df5c1c11c8f77330525adeafe5fd2e0a4b08b2f7d5769b76a4ba110fb6ce106cec68a559628f27367c6f07595cec32c657af91f98a9c4095ff813286892f64781a1ede4a7b654dcd5d07eecf98f8660b0ec4acdd0af03f8c21cea4b6bbb203d6bd214d8c9b2e8e669d807761471771bd2e4eda8b49919fa51dcf9e0f77e338ab4389a6b30db9e3e9243f61ec0c04e903ef5f86bf88cb04a5783d98aa755563118dee467a8b1be88d9b7033c5844607151ed679756d0e9ba989e717dc8dbf1c7edefdf95bd30a1ce48c308f67a31d93cb8da0b4b1f1c6bf48400326120a74f2f64e6e305895da1279092b189fe1435ea7fff1361b19409373acf526e3c34e0fe331e5971d6e65b2c88c7897e5bc389468ade1cadbd03f01f460633dca44109f3b3e5f6d3f223ddf81fc086f0aa5118495b1d01d784ffb75ca2fbb8fe972edc6c3d62a6e9c47d1cfed2110242b6ca4dba949212471f378cbbb1360228eaf564a4fb371896ff59470c6227b1cafb24170451f5f7065504b298c42fc992cf5b1257fc11f16ce2dac7539a99d65cd1734d2359f9108c2a1cff97c1277ec20af41b7adf989c1ce845ab482641bd435f373312b3519eef4fa4c8b5059b4edba8a2b6a00d225b8bc5c892c43f40bf2399c7d94fc34016ae19a69681f0c8f681e3f6963c68e7f3226460d415a33b046d53508bff2c6ec6f68b46490947e22440fd57b775e1d069cd6d274d249cce9a40112f3228ea4d7cecf8efa00feb71742485615dcc0ea45c022fe1b051da2a9127026d0ba0bfcbb925302eb89320c23d75fd12c815a8959e0cc93a7d755a1032d340c4a6acbfc77c27330d4eb980e485f88aa3df7e2c3cb9c630b89e79e58a8f9856f9856e7bedd55925a2a5b394a064bee561ffd54b17d254b3097cd284e999795e9fecf89e2a0962afefb481fccac871b93450eb37b4df8a018c41e722fade88c033c4f17e02d16a0611cc8edf6be6658945c298bc3a7a2bcfd8c00e8f41862286a8e762760099cd9b3c43c2a453421267adce1879f46563c4d7356a077046e71f27a13fd5a19f7d24c6683ba1c6ed5d26e9f30d1bd84cbc270522086cdb047783d0160c469761e7542f690d316185e15ae6e9394d49b72961941abc77d7d7d33bf5117d0a8f6c3aa83568e161f28d73fcdbee4aa72ac6896163abb254453b2d07a28f86b34bf93f52aed89c93369b29ea496e553a034a12e4f74d8c2d298ff350e716abf13fea92ffc2b0aa01fe02cba96a10963aff398e8a9238c55783272ee4788c1bdb289566e5088e713145ec642c2af89c1be7151a169f1aa54d560c4749087dd160c9aa482e0631052628cac2787399cba148ebf2d24c0e355d119b5e4a70b89fabcbc646f2a38feec3b95ad25a83b3c7b9e70b1c09cc703ba692b442b446738207c5024e27a7b62b9a7c454e50822cb2b7086619210c13c0bb6c2eade27d7411829ce46cddca848d22d5d1fb4240a1c3a592be62616a92ddd7fd9febbc62dbf175c467ad3895685f5f04b01f7831c112bc25691c369ffc78073ac412d6a2808f9e099a7c4b52b588046dd06ba33f1926b11bcc0c785276059935e2d9d87b0c594b75fb076bf72dc87570b068d880686925cf16898fec78d6d9e963420b3a934dfa1a78c0d7d293a10dd097b7cd6d1093e783eed15dd6327a7c1f0a433a42c2a33ee257fb344342b6cb76bdb30f862ca145a71ab14cd9dbf25a16048dbd9d2d294ccaf83c816818ee876f63376c4d937e1a8ee1b2702ce882c8544c8989d8aabcf1403423211062010b17241c14ceccac2f9a7811572c489ec7154e81e36bcee4895df0616da726142771c30057e3b77434ae02e85b296761440284d672a6636ea3ff42c98aec5510f8c883f6b667782918aed4548490c2c5f3ef09673c82ee71c252e1527efeb32ddd4c29d210e368b75432f964d148c52401f75efc6c06b1b266fd8e13fc238c751ca5463cf8b0a5ba01593fccf877af4311c74a266664aa2e7cc6a8abd51966a33ab5321f743cfc9dd3c4e5144c805c4c1302e4bf54c0e22db5b68351f76844d90230d08c272bbfd4eaeee8ad787ae21cfa88c1373f0d3a5e96841eeb6fb737d6c615e66241e92900b8b2dbbedaee3cf32eeb49c6d6f5436897ef34af6fcc97b7584af8d1ffc8ff7aa39263148e800b3fee2e903df5072a944b83477dac66847652a6fe51c278ddc1f1fd7aea59d5ee5d295ea692ce1c3fcdcb9afac53fe8296515e14e91465ad3f094b8b90976b2d51085b9cbca0211a110d8db0fa2700bf60a4d799103a336155db2c8d58c8d28e3f33c9c48024e2240da24a02eefeeb251b8a3981de73912558609443d5ae1f03e442427d9f92a169842de8a03cbbeafef2ed7fc053c53a46cd6df381f1026a37ff3ebf4c284796aff2260871cb6c467c2e04c9a6e7c38f7de60a397732ee462ce03698b3d4522359ee8053026eafc64fdeb7e7acee388bbc863cca409fb2b530549dd6ce52b05f80b4d35ddba1a53c0acfd9f17387d24603c752151553847488cdbee8e07cc94420fee5b30ccf9dcc2dc17407a7da68f2a5e6471f8a81e7c14e1bbf57c4c82b5f6557ab0aa0b72ea89511184bc2a40db21b711acc721d22c8c6218a80dc6145894117a1c00286de82c0adf50ea8f1140035897a5f4d206877d13d1ec96dd092b6f97ec77e85dc64dc2410cf8372a45c7551877830ce445f965c5e605833de2e8ad4b700346719ee2d51d7741a3cfc25e8638dc5a74d75c6410968fcdf6a99fcef9c5fa41927f3bd35645d7d7ff9659800a33ebc946b30b4a53d311b0584c551dc0953b813e26630203de90d1bfb83784f5413a9693b0d815d0b4b66b357966d07c224777a9b57e011d77b85e23eaa5c4f62abe01a3f335758f3e94448ca025ead7c039ca3363ef915b86a5b9ae6cae07cbf4c070fc0bbdda6de93eb2a772f706c146209cf8f0c6d52ebe7312d0f3f929c8ae839eff87afa00b4ea3573eb2d16a5631ce68f890c5932b536afab1db6b46865cd98d80b0437ffc77df12fcf58d5d1f0127b29a6030e1113484eaccad7eb000a4e5162717d92b6e1e9f0f6f90214151d222a43464749515d6485b4bae7697a808f90959ab1b4d6d8f3f80000000000000000000000000000000000000000000000000000000917283501",
        "0058236e7cc364df07a9b174ae02c81e9688b877138d5562ef380ddddaa60d80c89b8a42511f9a422cd151d15b591f67f797d8db3b216e7ac5465f928159c5a0f745e993a82cda95044f46a552542a8ecb66814500946df08bd2e223f4f00b32a542e6765a3cfe659612ed8890e5912f32d552858a53e0aacf4fdaf1b6c028942695e3fbe9eee45c529b20ae903dfd351b990cd28fdd6c16e684e33fe088b498389e8c8156a7c87ab2bb44a798d845ddc5f675d13e090a2ad193de0df1de267f81f9aa367a54eb6c789f6ba5afd598ced40f53f7b82b21f60038f5901b525b0a93627284133a55bdaf93f12358ba53f30196b940e4e90745a0effd5ad471246a70f772a953221353bff4ba7f96c95f0ae8540fda4c01c20b2392e05cc3ebcf6aa4193d1c44ada8ea96e6f5515e60bc6dcaafb19e4146eb5c09b7a3f6fef444b166a05b4c0f4645ce1de9aa7256ad2659ba4ac8ac0e927a2df4b7afd4a3c19b6f02bb43d3753cd264f3a5e6e541ab228837b0f46674482ab499a5f7fccdfe50a3b0c38d0ecc500b71323cd12fb171ae57a252aaf1f1d4f85039e9415fc8873c304133ba5f822fce63104b19aaec091253c2ca79cac5189a36b6440e409a73f73fe50aef02928b76fef0a4229c902e53ac2d5e6e19d1aeeb2366d349e8fe52f5e104b8471ec1fa2c9e191dd179acc3411a5f30f4223a3cdf6fadae6ce8129d0a1de0863573cd88a35c10848404eea626a8112a446a8e843f6e9fa34aa3933367ba4826c12f056cc2c6a2aaa4e3dd76d90e0b3878f22a8616d9a7861c5abc3d434716e8bfb79e7d72fa1249b691ce22b9efe5bc5649868eae002364b0f060ace303c38e220a88790796e795e71a4703ef62858d0bd89477da9b34d89f89b7907ffefd82c9d13120e6294fa6585e55513dbbe14528c8e34ef205aeb94e8bfcaf9cfa968e24332974aa070a1510ad1efab2ca9363ee3102aefebac6e83a7d4c84370531e4edc8b1e796a921c11e029f4084e10adf3db80398be14933f7d233f3853197aca38dd14dae0ca1d9edbd25a7001889bc128f40e917042371f4df2179ba5cfa949a9ba7a44f1f8da0944287eb75023dd9e03d7de21e0d733b329a66eb8e474cc4ae993d15c6e84d4052d49f1fb96ecef265727844d845d223becbd4de70b8cb52e9b0bf810c2b58d2601158c0c3239dca82f084631aa2e466ceaf647c2217d30bfbbacd659f91f9035c98d18b11f948b1a30200f7e19dd4fe383174467992ed084d93ccab73bc1c27f2c3a2e2697c243c360a62f7e5927c73d5cd895013ebab116d3a123a903acc8bdddb654fa0aeddcf5bf3c0c644a768e072c0bf2535317b64a6da91828306de7f65c5742804d7a042dad7cb8d8b2af23bc8a06159535b9841ab384abcb55ad2cc1da5365319f711390954aed40c9a455bd7b3f080d5fa56d80c4c0eaad751fa5c1584aa27a11753eda83e7153dbd23e5e31ea6a91088544907aa292925afd2e50b8d02eb0dd191ffb79aa40f210d0a644891ce23a72280e56857d8cc812c245c8732a8f4947f6c9f0a3097e8e26abf801b7a4f152c940d4505c084323d4b9a9376ace2c8244249b15157a033bddfa2cfb5f292d9a33066364267b3d780024cd63ec3cfb6dfedceef4c4c9628f5cf9ab84151555aeb844b4aafab60602231872a2eb6382c78509f17ec223485d79500dc8ff312f5b59567dcf6a3f7b799d1a3077c760ee5dbcc33f46730b5a4a04cb8860ad75fa54272e041d21f267a8e126b3551bc726f8e31d511c05b8fd3464534995265a95d2b3538c8f51e7c4cf36a00dcb7baaad2a5e86b1a4d2e190e871b85875796f537bed198a1"
      ],
      "sequence": 4294967294
    }
  ],
  "vout": [
    {
      "value": 499995.9324,
      "n": 0,
      "scriptPubKey": {
        "asm": "1 82265c47bb83aec6b1d42447143cc52a6ac0e9fb7bc387b4656150ea62fef21c",
        "hex": "512082265c47bb83aec6b1d42447143cc52a6ac0e9fb7bc387b4656150ea62fef21c",
        "reqSigs": 1,
        "type": "witness_v1_scripthash",
        "addresses": [
          "3QJmnh"
        ]
      }
    },
    {
      "value": 1.0,
      "n": 1,
      "scriptPubKey": {
        "asm": "OP_RETURN a3d32657a78a3ed7872da0f5ca9e3d4b34e2cc7a696741c8590ff87fe85f02db d10c0cd96e7f4280ad1e7022bdaa20584e9efdfbdef327d02da6a22d9f1c6273f12c2cf94e5f62a08d3e50029d8a00786ebedddbfed307f00d86820dbf3c4253914c4c992e3f02c0ed5e3062fdea60180edebdbb9eb367906de6e26ddf5c2233b16c6cb90e1f22e0cd7e1042ddca40382efe9d9bbe9347b04dc6c24dff7c0213518c8c59eeffc2002d9ef0a23d2aa0d8ce1e7d7b5e73a750ad2622ad1f9ce2f371acac79cedfe2200dbed0821d0a80f8ee3e5d5b7e5387708d06028d3fbcc2d311cccc19aebf82406ddeb0e27d6ae0988e5e3d3b1e33e710ed6662ed5fdca2b331ecec398e9fa2604dfe90c25d4ac0b8ae7e1d1b3e13c730cd4642cd7ffc8293d10c0cd96e7f4280ad1e7022bdaa20584e9efdfbdef327d02da6a22d9f1c6273f12c2cf94e5f62a08d3e50029d8a00786ebedddbfed307f00d86820dbf3c4253914c4c992e3f02c0ed5e3062fdea60180edebdbb9eb367906de6e26ddf5c2233b16c6cb90e1f22e0cd7e1042ddca40382efe9d9bbe9347b04dc6c24dff7c0213518c8c59eeffc2002d9ef0a23d2aa0d8ce1e7d7b5e73a750ad2622ad1f9ce2f371acac79cedfe2200dbed0821d0a80f8ee3e5d5b7e5387708d06028d3fbcc2d311cccc19aebf82406ddeb0e27d6ae0988e5e3d3b1e33e710ed6662ed5fdca2b331ecec398e9fa2604dfe90c25d4ac0b8ae7e1d1b3e13c730cd4642cd7ffc8293d10c0cd96e7f4280ad1e7022bdaa20584e9efdfbdef327d02da6a22d9f1c6273f12c2cf94e5f62a08d3e50029d8a00786ebedddbfed307f00d86820dbf3c4253914c4c992e3f02c0ed5e3062fdea60180edebdbb9eb367906de6e26ddf5c2233b16c6cb90e1f22e0cd7e1042ddca40382efe9d9bbe9347b04dc6c24dff7c0213518c8c59eeffc2002d9ef0a23d2aa0d8ce1e7d7b5e73a750ad2622ad1f9ce2f371acac79cedfe2200dbed0821d0a80f8ee3e5d5b7e5387708d06028d3fbcc2d311cccc19aebf82406ddeb0e27d6ae0988e5e3d3b1e33e710ed6662ed5fdca2b331ecec398e9fa2604dfe90c25d4ac0b8ae7e1d1b3e13c730cd4642cd7ffc8293d10c0cd96e7f4280ad1e7022bdaa20584e9efdfbdef327d02da6a22d9f1c6273f12c2cf94e5f62a08d3e50029d8a00786ebedddbfed307f00d86820dbf3c4253914c4c992e3f02c0ed5e3062fdea60180edebdbb9eb367906de6e26ddf5c2233b16c6cb90e1f22e0cd7e1042ddca40382efe9d9bbe9347b04dc6c24dff7c0213518c8c59eeffc2002d9ef0a23d2aa0d8ce1e7d7b5e73a750ad2622ad1f9ce2f371acac79cedfe2200dbed0821d0a80f8ee3e5d5b7e5387708d06028d3fbcc2d311cccc19aebf82406ddeb0e27d6ae0988e5e3d3b1e33e710ed6662ed5fdca2b331ecec398e9fa2604dfe90c25d4ac0b8ae7e1d1b3e13c730cd4642cd7ffc8293d10c0cd96e7f4280ad1e7022bdaa20584e9efdfbdef327d02da6a22d9f1c6273f12c2cf94e5f62a08d3e50029d8a00786ebedddbfed307f00d86820dbf3c4253914c4c992e3f02c0ed5e3062fdea60180edebdbb9eb367906de6e26ddf5c2233b16c6cb90e1f22e0cd7e1042ddca40382efe9d9bbe9347b04dc6c24dff7c0213518c8c59eeffc2002d9ef0a23d2aa0d81599bc91a932a1ea627a0739bac410e0bf009b0478402764cebeca0fc7c81f30",
        "hex": "6a20a3d32657a78a3ed7872da0f5ca9e3d4b34e2cc7a696741c8590ff87fe85f02db4db004d10c0cd96e7f4280ad1e7022bdaa20584e9efdfbdef327d02da6a22d9f1c6273f12c2cf94e5f62a08d3e50029d8a00786ebedddbfed307f00d86820dbf3c4253914c4c992e3f02c0ed5e3062fdea60180edebdbb9eb367906de6e26ddf5c2233b16c6cb90e1f22e0cd7e1042ddca40382efe9d9bbe9347b04dc6c24dff7c0213518c8c59eeffc2002d9ef0a23d2aa0d8ce1e7d7b5e73a750ad2622ad1f9ce2f371acac79cedfe2200dbed0821d0a80f8ee3e5d5b7e5387708d06028d3fbcc2d311cccc19aebf82406ddeb0e27d6ae0988e5e3d3b1e33e710ed6662ed5fdca2b331ecec398e9fa2604dfe90c25d4ac0b8ae7e1d1b3e13c730cd4642cd7ffc8293d10c0cd96e7f4280ad1e7022bdaa20584e9efdfbdef327d02da6a22d9f1c6273f12c2cf94e5f62a08d3e50029d8a00786ebedddbfed307f00d86820dbf3c4253914c4c992e3f02c0ed5e3062fdea60180edebdbb9eb367906de6e26ddf5c2233b16c6cb90e1f22e0cd7e1042ddca40382efe9d9bbe9347b04dc6c24dff7c0213518c8c59eeffc2002d9ef0a23d2aa0d8ce1e7d7b5e73a750ad2622ad1f9ce2f371acac79cedfe2200dbed0821d0a80f8ee3e5d5b7e5387708d06028d3fbcc2d311cccc19aebf82406ddeb0e27d6ae0988e5e3d3b1e33e710ed6662ed5fdca2b331ecec398e9fa2604dfe90c25d4ac0b8ae7e1d1b3e13c730cd4642cd7ffc8293d10c0cd96e7f4280ad1e7022bdaa20584e9efdfbdef327d02da6a22d9f1c6273f12c2cf94e5f62a08d3e50029d8a00786ebedddbfed307f00d86820dbf3c4253914c4c992e3f02c0ed5e3062fdea60180edebdbb9eb367906de6e26ddf5c2233b16c6cb90e1f22e0cd7e1042ddca40382efe9d9bbe9347b04dc6c24dff7c0213518c8c59eeffc2002d9ef0a23d2aa0d8ce1e7d7b5e73a750ad2622ad1f9ce2f371acac79cedfe2200dbed0821d0a80f8ee3e5d5b7e5387708d06028d3fbcc2d311cccc19aebf82406ddeb0e27d6ae0988e5e3d3b1e33e710ed6662ed5fdca2b331ecec398e9fa2604dfe90c25d4ac0b8ae7e1d1b3e13c730cd4642cd7ffc8293d10c0cd96e7f4280ad1e7022bdaa20584e9efdfbdef327d02da6a22d9f1c6273f12c2cf94e5f62a08d3e50029d8a00786ebedddbfed307f00d86820dbf3c4253914c4c992e3f02c0ed5e3062fdea60180edebdbb9eb367906de6e26ddf5c2233b16c6cb90e1f22e0cd7e1042ddca40382efe9d9bbe9347b04dc6c24dff7c0213518c8c59eeffc2002d9ef0a23d2aa0d8ce1e7d7b5e73a750ad2622ad1f9ce2f371acac79cedfe2200dbed0821d0a80f8ee3e5d5b7e5387708d06028d3fbcc2d311cccc19aebf82406ddeb0e27d6ae0988e5e3d3b1e33e710ed6662ed5fdca2b331ecec398e9fa2604dfe90c25d4ac0b8ae7e1d1b3e13c730cd4642cd7ffc8293d10c0cd96e7f4280ad1e7022bdaa20584e9efdfbdef327d02da6a22d9f1c6273f12c2cf94e5f62a08d3e50029d8a00786ebedddbfed307f00d86820dbf3c4253914c4c992e3f02c0ed5e3062fdea60180edebdbb9eb367906de6e26ddf5c2233b16c6cb90e1f22e0cd7e1042ddca40382efe9d9bbe9347b04dc6c24dff7c0213518c8c59eeffc2002d9ef0a23d2aa0d81599bc91a932a1ea627a0739bac410e0bf009b0478402764cebeca0fc7c81f30",
        "type": "nulldata"
      }
    }
  ],
  "blockhash": "15af9b025c636b87e0a10c18a1a8de0e5f3c2069ad563b293161176d75df89a4",
  "confirmations": 1,
  "time": 1764174659,
  "blocktime": 1764174659
}