{
  "hex": "01000000000101c762c7dc6538f4b8b7a22e77b72e890704aa9b0b83c0093a3e38ccbf4e9f8ddd0000000000feffffff0200e1f50500000000fdd5046a203c924912d6c64f930c9328a19ca029e1e5bb81350cf038593a61076b5a7793ab4db004c906a86a25a897dbe36399b69f19891c5e93056c4916197783bdaa5adc07f773e926884a0588b7fbc343b996bf39a93c7eb3254c69363957a39d8a7afc27d7538946e82a65e8d79ba323d9f6df59c95c1ed3452c09565937c3fdea1a9c47b733a966c80a45c8f7bb8303f9d6ff79e97c3ef3650c29767917e3ddca3abc679713498628eaa528175b63e319361f99099cde1385ecc99699f7033d2ada5c8777f369a608ca8508377b43c339163fb929bcfe33a5cce9b6b9d7231d0afa7ca757d309c668aae568571b23a359765fd949dc9e53c5ac89d6d9b7437d6a9a1cc737b329e6488ac548773b038379567ff969fcbe73e58ca9f6f997635d4aba3ce71793c906a86a25a897dbe36399b69f19891c5e93056c4916197783bdaa5adc07f773e926884a0588b7fbc343b996bf39a93c7eb3254c69363957a39d8a7afc27d7538946e82a65e8d79ba323d9f6df59c95c1ed3452c09565937c3fdea1a9c47b733a966c80a45c8f7bb8303f9d6ff79e97c3ef3650c29767917e3ddca3abc679713498628eaa528175b63e319361f99099cde1385ecc99699f7033d2ada5c8777f369a608ca8508377b43c339163fb929bcfe33a5cce9b6b9d7231d0afa7ca757d309c668aae568571b23a359765fd949dc9e53c5ac89d6d9b7437d6a9a1cc737b329e6488ac548773b038379567ff969fcbe73e58ca9f6f997635d4aba3ce71793c906a86a25a897dbe36399b69f19891c5e93056c4916197783bdaa5adc07f773e926884a0588b7fbc343b996bf39a93c7eb3254c69363957a39d8a7afc27d7538946e82a65e8d79ba323d9f6df59c95c1ed3452c09565937c3fdea1a9c47b733a966c80a45c8f7bb8303f9d6ff79e97c3ef3650c29767917e3ddca3abc679713498628eaa528175b63e319361f99099cde1385ecc99699f7033d2ada5c8777f369a608ca8508377b43c339163fb929bcfe33a5cce9b6b9d7231d0afa7ca757d309c668aae568571b23a359765fd949dc9e53c5ac89d6d9b7437d6a9a1cc737b329e6488ac548773b038379567ff969fcbe73e58ca9f6f997635d4aba3ce71793c906a86a25a897dbe36399b69f19891c5e93056c4916197783bdaa5adc07f773e926884a0588b7fbc343b996bf39a93c7eb3254c69363957a39d8a7afc27d7538946e82a65e8d79ba323d9f6df59c95c1ed3452c09565937c3fdea1a9c47b733a966c80a45c8f7bb8303f9d6ff79e97c3ef3650c29767917e3ddca3abc679713498628eaa528175b63e319361f99099cde1385ecc99699f7033d2ada5c8777f369a608ca8508377b43c339163fb929bcfe33a5cce9b6b9d7231d0afa7ca757d309c668aae568571b23a359765fd949dc9e53c5ac89d6d9b7437d6a9a1cc737b329e6488ac548773b038379567ff969fcbe73e58ca9f6f997635d4aba3ce71793c906a86a25a897dbe36399b69f19891c5e93056c4916197783bdaa5adc07f773e926884a0588b7fbc343b996bf39a93c7eb3254c69363957a39d8a7afc27d7538946e82a65e8d79ba323d9f6df59c95c1ed3452c09565937c3fdea1a9c47b733a966c80a45c8f7bb8303f9d6ff79e97c3ef3650c29767917e3ddca3abc679713498628eaa528175b63e319361f99099ccf5c7cdb6877f9a7801cae07bc2f59d97365d0ff2dfc7a1bb7ee1dcef956f6d6e021231b792d000022512078b49b05b710e9d15450bd52f85032b43e0f0da65df66fe7ae8d12b963de1e7102fd7509744173bb43d5f6f0c2305234fe43074058a4450e109e98539215c196157f63c0b45d500a49be9be67f47db591369ab50ccff217b95c695e2ffcffcf659da50a28a452d92d7fef1de40df3f0c0e65663d280a7e829a188b505dd7a08286e243bb73c7a93a08262861ac58b48441926ebe51754539cd28ce5037ed54d8874be526e628fee2ed89ae2b0bb0b5871e5d22ab4adae7f47a986fbd3ba9735b3018fd102cf21d72a8a6e055409d8dc0055f71303fa8dfc5bfa90ddee26824f5b696e6fc30906b7c63e70d62d5f919e379ba678b1f78d94bd82ba6c224e440c688d125d84c4855beff945172ac1e60ba88692c6327a5b304e7cd926219c4a0cf03cfdb0940ab55d26aa3fadeb21371e6020c866f31667db758009fd04a9794293f5f312e8162790b88635121bca467ad652cb754aea6a40f668ba239047867d9daa03dc415716586d2d8dbeb9e3eeb0ece30ed9dc0098cc6ee04abfd1c1a185d01d461b3356ca59e2cd14e167837efd2e2d9637af2105e6a4f0decc328e04cfce96b9d698e42e3899f4f02c4c8a23f2999cfb80f35a1fc3be5c864b546d8cf0b7f4a020f012054145e32e4e74ad5d90eef1505fafe9f3eacda3b1c15ff8c02a049e84e03822f56a68861426c19b655350954753f2720445947fbdae2706105f62f76022c4755c2988e3fd16d1c42881dde4c4eedd6c02d87decd8338dae21f15ad9622a96c5ede98c4b39d377adf9a78ee4dfc4c300b1173e6de26ef8ab061ee0396f7ee8964fef09867949ffbb109ff375580586c5af913c319052f8a87b9af09444be8f3047a3a1b6b08ee47c3f5c15806e2f41c32acbe9df8dca81a9121744b4c58edebedea2986064f46bd663ca4fa98e6f78afed5e01ada18387af97d7b81ac35d866673911175baa0215720d2a12254e59e88425365702eb99cfc6e5cb3608f110d724baca2ca1b3d17d78100ff36239c187de9d230e0b7dd7308baa06e9952c615a8beb3fa4fa98ef2f687e2544e67d9a1fdedeef6660f01a05fd5695a612c4fefa220ff5063e1aacd909f151c28f50b15051dbadbeb3ebfb7b7dbed565d0536723042c5cb4a5a852faa047b36b070c06cf7a0fa48579516f621d1e0f4fe091f003cac9e803ff2b856164ec7bd750394bdde8249a9ec9bf2ed683c75632ddddd952d080e8e02ae158457e4b0a1fd4da48cf67ce975a1658277d547f1302d14501c7ef35d741df5c8f03298319fd7e7145264a20a012e521162de0289ca1035a19c9b64f05a0e9cf51d4d4068a802ad0d686dbf42e99bf37b4331112438b49993d6023cf42214fdbc1ae2306c622f3f605b61de7dc780a4d334ab9106109837ab32bc3ac41086d7ced11d106e46e0f9c62c26f45f0df19eb59d071c90ddee4a42a7a5a6745f95e0c8f40c5f97f3abfb00762d068291630d8feaadab538d43f834d4de50ac4f3e3544545c1ae52d7f4c14e43cab63a19dcfa41bd852d52fbae497ca646d391b805c447bc202ddf10d248b0d019d42cf080087deb699a050601335a3269d3ca83d7b00de0c5be8ec438df7582e1f6d08855add8d09a19ed42598b8086f8f60ec4d21707b6ec026b5c85144f034e6a8ad903f479acdc1cec2f039b9def2c2fce2d05568824bffb861bee0f99e17ea50c407bbdda0b43c664d575b3bd0a18afcf7fbfb83122ad441c2899462fed79e86ed2c1c3fbd69554ebb603c1cbecadf3c86d80163997c4fbfd3d0f94e5edc592176d14d9c2cc3d2d75b6fc48bb23273617696a9f096e3af582c9f18151d5a1b309cb50c3efb35a09f4af43e612f88ea5ec5146c33ce97a372846516cc1eafc84e5e7774f0c4e96ff9243d157ad668e67918aebcf11cb22c11492546d80376c8f5504299ba1bdb6eb70b0b1f8b27a0e01685514fb1c2b4849a87cb56d6cf8758d45ddb3ea5af7c95901a3faa46c8ef217a34e628c28084f847d03027641df981d1778bccc3d344e1e9c6406fd6a53cb089d75afd783e950e2e9a2e6e2e0e0911fb7bb3b27b5cd9178f0084e402286485c369bf379533f99c56fe497892ffde9f7285201b86c252243029ea27f66c30286a2b3a561fc1b9676aa41c48704841288745805e1f329363121419f1396fc792d1a8ca123d7205c6957f3002d30efb08b8bd88752591a039b34c68f9846530acfbd0f0bb75ee28cd88ee74d823f13731a99b280ac65c0b8bb87118f469de0ee08fac84f896ffde5e4565f59540a155cbfd4b0877569bacc7ff50b891b693f9c830c8c664edc110a5bf096741f4f00ca01f77505fa5c1062f0ebd7fdf6a9f678d269f2dd43b2bacb62245ad72bd2e7030fe08c958b6dd33737701df20aa240db6c6b7da6fdeb0107a1f2464cec828b39a59d6853b58db92f065da5c89ecb22813d5a2601af145c0bd58b936d2f331c46c5f4486095c27de7504d9311399fc10da763ac087bb4c1bb74b1acab86b8596ba7a277b85fbb0fd430d1ff6e4099f9a4a5936714e9721ca6d395d4576e1fa3df092c0dc080ed883a4eb95a31ad1472ddf6acba02d9c38e420f3aa15af5d7c4f91a776ee771b601be020ca585a625b3a33bdc4799ad49ccc849621a9a0b3771c0d1136eac9dd4b9a50981c75c695f9e5853b38283f0d918333e11fc1be5442eb71ba4aa07d9404d29083ad3821983ae2955467fca3b8529b7a14b298005be17f6df14f6a5c6fe58f144ebf400dd18cfae282efd97e988aa44517b8615415b2232ce0f6184482f0eeb632a88b7eb03f45c0e224c58bb43d41223c7f05c808818dcb73a304b01171ecbf0d4f66aa4fb0977d63df9dbee85466aace80bfa99dcb55df03e1ac9452038295633dcf530e10456825d960d583b39b3edaad469a7d3ddc9e6a189a672907217b889fa7e8f9efc10b0c1f4f14eb4bb8510e728b4375b201fceffa8b8477b713a502351f811758da6993b545289038b9ed9a558516d5e2a34c48075e7e20c0ca9a51c8f2ae293a796519c24347979ca505143751747f499b5d6526ca139b9580bb91fcbf4223be27e49fe803e0335e5d2f5163b3ef45a1295bcc6682941e475b889a46b08ae771e8ae3682fcf3943370c5af0ca8531a0975d9ff0803ef915d3f165dec8da0db2dc5e98ca5232eb22c402fcd82da92f08c2a95990e907145b9c74391ce4be345914a2c524ea999e3f11266309871c28edf0716d27e995689c25c1c44a67f0be50b7b94ebe6311617168ee794722e2ed529f05e147ae05018c1937c2d1c813118c75f7f9c7430eca4d124d0d4fb1547ac1a6880d74dd7d007aa26a21844a515c8b0429505f6275939cafd9fc5297aab9c6cdced91d2b5964718caeb8dfebf4f5f7ff0d14366063757d9da9e0000000000000000000000000000000000000000000000000000000000000000000000000000b13212b01fd210500de72f2c0ab9932d6bb458686f04d55719c918c1176f26ea0c09f2e3abbf5a8d96cad8018de4464ce70de3b23ed0651495ef85e60937b848d91df85511879e63f649ea8280f29310209d8c59c31c5005a5b73e20ad4bcf5eaf6ec5bccd3cba87efe072b3367b569ea4d91eb7f8db8d1b9acb9210155f9f12c3c33ad7003cf315f31670f02ba315c3de3fb5b419d7f6449944869968bd1554d80f08b23148cc37336b10f904012d03e834f2c0c314e8dc384611dd12b66e52f8aa777a6260863c77c3a19939d5e5d8cc87f6a18f7ab13fcba815a450bec20f6b30822e7757a39a05f1f7706397fdbd891bd300c7400f29b9691f390e8752612828cd58c511ad9b7b471bc73f21171e77e28f4472a312797ce127271dadd4ed426b1c6710b748b3dcc81ba54faa68af06f91dab77d3a926ca1afd061aa2a2fb563afc13a4dd04ae6ead7eddd8f980ffed0ba17ea6cca4f0a29ec197a61455768698ae0d19e5ed5b6821d71d421fbc9a295184d4218f5c931981429fba5f098122dfee41ccca6d44b123a72aea0790b484f594d625c485a39833644e19d8487473d649c237d020692b29fb0ef914476ac1abba35c6294dad1a8d59b88b8e0570e88c3a6160ceb513228e7cbcb32fdbca12804aec5dc20b4208d7ac51a8646b354dac9e410b4a896fd2754a549ccf3f1ac60a26ed6c0e0f37568c0b9c380584cee4973f4f44344e7f0430cc2c38075e2184480917f64b05993fd8fbb5978d83d096aef7baa90cac2d880825a90540e319d0ac1c7ea295c8a3bad03e55670af2456967602ba2351ef98e5f2f1c55fca65dde9ec7357b071ef159c9f1fa40e32aa2232dd47e6881a77277b8252e8e519ba3139b0cf89c01180387b7495f28ac18340540327d1be9f15ce13cb5aa5a3f0e51cdd25410e9994a85ad82e0bccd6558b8f97f8c0cc09419bd4b39a5a986cbcf4a9f017871a477c5e9d4bb5f77fb1d433840862577ac2cb1bd9463f7078a7c662e47cc7d6592da6cda69f4d6956736deac5ad800a7ecfbf21ff7d4a1cbbb4ef7876e673c45e391df53dee785bf02846cdf10389efb48cfc2e0f031eaf08ad24bf8afdfd7e37be5da953d9965dc83d6a48b041d23cad3d8e04d6036fa697aeb1b8c9e35baf15d1a715d950affee84c4543b2ed4ff6948e507f24ec656df225afbf6834a514ea8159d34ccc98ac2c91dcff5f68dfb4eedcb772e0eecfb1090dab9b5ec2d7358fdf138f3a4f181231dd5f8a1d807e0a4c7166169882333889250ca287805234f924e1dec02c0a45b1e61f5b713ab4de885e40368818e4c3e1f85cb81c2445f6c14a91306b393f353ed2d790a9a26780c9a1d07bfabb906bbe2b79f56557cd25cd2e50921c3dad8052bfbd3a63caa260eec1c28ed93ac15502e092241dc81c6904e937e07c9531afdd34745cb009c56fc678ba27c6e122cc309545e1d0091ab75579b0f6b5c504e2b352d47e8113203dffc86fac3f8ef39eea6e0bbd8d8372483788514cbc357235db5c107ae883b53b32915cdf792606bdbf801c7022dfcc00609c926dbb91f32a20644f28ca11820228dde2e06ba0e6f849142cc5f819de539dd3e67f0ff48e35135220666288d45228fd1af535da10bead840e72908a30c667777ad33dae5726c8ccebd3fd16616501994e61c311ffdbcacca6f0229ad99c99014a50e7e74efd450a3d33454cbcfc2a5c97b39c227c5f4e5c7f10afdaf5b575c01d613403e1505fb58e94a9149f24662ec6a0981d25bf0dcac2514bae6ef767d84041edf0c97e46e6b1e05c87f4894572800541cb297bfe1e4371d9995d73f9174ed9ee30ae8a38be0bb4ed1c0c7f573461de6b74000000",
  "txid": "efc81b32b681d92c75cefb4f0144c18d46b92c151e281e7487e5a1a67b346324",
  "hash": "b8640d74aa2088760ad475ac77254611750d7eca28b6bea144b67382aa3b2d53",
  "size": 5085,
  "vsize": 2278,
  "version": 1,
  "locktime": 116,
  "vin": [
    {
      "txid": "dd8d9f4ebfcc383e3a09c0830b9baa0407892eb7772ea2b7b8f43865dcc762c7",
      "vout": 0,
      "scriptSig": {
        "asm": "",
        "hex": ""
      },
      "txinwitness": [
        "744173bb43d5f6f0c2305234fe43074058a4450e109e98539215c196157f63c0b45d500a49be9be67f47db591369ab50ccff217b95c695e2ffcffcf659da50a28a452d92d7fef1de40df3f0c0e65663d280a7e829a188b505dd7a08286e243bb73c7a93a08262861ac58b48441926ebe51754539cd28ce5037ed54d8874be526e628fee2ed89ae2b0bb0b5871e5d22ab4adae7f47a986fbd3ba9735b3018fd102cf21d72a8a6e055409d8dc0055f71303fa8dfc5bfa90ddee26824f5b696e6fc30906b7c63e70d62d5f919e379ba678b1f78d94bd82ba6c224e440c688d125d84c4855beff945172ac1e60ba88692c6327a5b304e7cd926219c4a0cf03cfdb0940ab55d26aa3fadeb21371e6020c866f31667db758009fd04a9794293f5f312e8162790b88635121bca467ad652cb754aea6a40f668ba239047867d9daa03dc415716586d2d8dbeb9e3eeb0ece30ed9dc0098cc6ee04abfd1c1a185d01d461b3356ca59e2cd14e167837efd2e2d9637af2105e6a4f0decc328e04cfce96b9d698e42e3899f4f02c4c8a23f2999cfb80f35a1fc3be5c864b546d8cf0b7f4a020f012054145e32e4e74ad5d90eef1505fafe9f3eacda3b1c15ff8c02a049e84e03822f56a68861426c19b655350954753f2720445947fbdae2706105f62f76022c4755c2988e3fd16d1c42881dde4c4eedd6c02d87decd8338dae21f15ad9622a96c5ede98c4b39d377adf9a78ee4dfc4c300b1173e6de26ef8ab061ee0396f7ee8964fef09867949ffbb109ff375580586c5af913c319052f8a87b9af09444be8f3047a3a1b6b08ee47c3f5c15806e2f41c32acbe9df8dca81a9121744b4c58edebedea2986064f46bd663ca4fa98e6f78afed5e01ada18387af97d7b81ac35d866673911175baa0215720d2a12254e59e88425365702eb99cfc6e5cb3608f110d724baca2ca1b3d17d78100ff36239c187de9d230e0b7dd7308baa06e9952c615a8beb3fa4fa98ef2f687e2544e67d9a1fdedeef6660f01a05fd5695a612c4fefa220ff5063e1aacd909f151c28f50b15051dbadbeb3ebfb7b7dbed565d0536723042c5cb4a5a852faa047b36b070c06cf7a0fa48579516f621d1e0f4fe091f003cac9e803ff2b856164ec7bd750394bdde8249a9ec9bf2ed683c75632ddddd952d080e8e02ae158457e4b0a1fd4da48cf67ce975a1658277d547f1302d14501c7ef35d741df5c8f03298319fd7e7145264a20a012e521162de0289ca1035a19c9b64f05a0e9cf51d4d4068a802ad0d686dbf42e99bf37b4331112438b49993d6023cf42214fdbc1ae2306c622f3f605b61de7dc780a4d334ab9106109837ab32bc3ac41086d7ced11d106e46e0f9c62c26f45f0df19eb59d071c90ddee4a42a7a5a6745f95e0c8f40c5f97f3abfb00762d068291630d8feaadab538d43f834d4de50ac4f3e3544545c1ae52d7f4c14e43cab63a19dcfa41bd852d52fbae497ca646d391b805c447bc202ddf10d248b0d019d42cf080087deb699a050601335a3269d3ca83d7b00de0c5be8ec438df7582e1f6d08855add8d09a19ed42598b8086f8f60ec4d21707b6ec026b5c85144f034e6a8ad903f479acdc1cec2f039b9def2c2fce2d05568824bffb861bee0f99e17ea50c407bbdda0b43c664d575b3bd0a18afcf7fbfb83122ad441c2899462fed79e86ed2c1c3fbd69554ebb603c1cbecadf3c86d80163997c4fbfd3d0f94e5edc592176d14d9c2cc3d2d75b6fc48bb23273617696a9f096e3af582c9f18151d5a1b309cb50c3efb35a09f4af43e612f88ea5ec5146c33ce97a372846516cc1eafc84e5e7774f0c4e96ff9243d157ad668e67918aebcf11cb22c11492546d80376c8f5504299ba1bdb6eb70b0b1f8b27a0e01685514fb1c2b4849a87cb56d6cf8758d45ddb3ea5af7c95901a3faa46c8ef217a34e628c28084f847d03027641df981d1778bccc3d344e1e9c6406fd6a53cb089d75afd783e950e2e9a2e6e2e0e0911fb7bb3b27b5cd9178f0084e402286485c369bf379533f99c56fe497892ffde9f7285201b86c252243029ea27f66c30286a2b3a561fc1b9676aa41c48704841288745805e1f329363121419f1396fc792d1a8ca123d7205c6957f3002d30efb08b8bd88752591a039b34c68f9846530acfbd0f0bb75ee28cd88ee74d823f13731a99b280ac65c0b8bb87118f469de0ee08fac84f896ffde5e4565f59540a155cbfd4b0877569bacc7ff50b891b693f9c830c8c664edc110a5bf096741f4f00ca01f77505fa5c1062f0ebd7fdf6a9f678d269f2dd43b2bacb62245ad72bd2e7030fe08c958b6dd33737701df20aa240db6c6b7da6fdeb0107a1f2464cec828b39a59d6853b58db92f065da5c89ecb22813d5a2601af145c0bd58b936d2f331c46c5f4486095c27de7504d9311399fc10da763ac087bb4c1bb74b1acab86b8596ba7a277b85fbb0fd430d1ff6e4099f9a4a5936714e9721ca6d395d4576e1fa3df092c0dc080ed883a4eb95a31ad1472ddf6acba02d9c38e420f3aa15af5d7c4f91a776ee771b601be020ca585a625b3a33bdc4799ad49ccc849621a9a0b3771c0d1136eac9dd4b9a50981c75c695f9e5853b38283f0d918333e11fc1be5442eb71ba4aa07d9404d29083ad3821983ae2955467fca3b8529b7a14b298005be17f6df14f6a5c6fe58f144ebf400dd18cfae282efd97e988aa44517b8615415b2232ce0f6184482f0eeb632a88b7eb03f45c0e224c58bb43d41223c7f05c808818dcb73a304b01171ecbf0d4f66aa4fb0977d63df9dbee85466aace80bfa99dcb55df03e1ac9452038295633dcf530e10456825d960d583b39b3edaad469a7d3ddc9e6a189a672907217b889fa7e8f9efc10b0c1f4f14eb4bb8510e728b4375b201fceffa8b8477b713a502351f811758da6993b545289038b9ed9a558516d5e2a34c48075e7e20c0ca9a51c8f2ae293a796519c24347979ca505143751747f499b5d6526ca139b9580bb91fcbf4223be27e49fe803e0335e5d2f5163b3ef45a1295bcc6682941e475b889a46b08ae771e8ae3682fcf3943370c5af0ca8531a0975d9ff0803ef915d3f165dec8da0db2dc5e98ca5232eb22c402fcd82da92f08c2a95990e907145b9c74391ce4be345914a2c524ea999e3f11266309871c28edf0716d27e995689c25c1c44a67f0be50b7b94ebe6311617168ee794722e2ed529f05e147ae05018c1937c2d1c813118c75f7f9c7430eca4d124d0d4fb1547ac1a6880d74dd7d007aa26a21844a515c8b0429505f6275939cafd9fc5297aab9c6cdced91d2b5964718caeb8dfebf4f5f7ff0d14366063757d9da9e0000000000000000000000000000000000000000000000000000000000000000000000000000b13212b01",
        "00de72f2c0ab9932d6bb458686f04d55719c918c1176f26ea0c09f2e3abbf5a8d96cad8018de4464ce70de3b23ed0651495ef85e60937b848d91df85511879e63f649ea8280f29310209d8c59c31c5005a5b73e20ad4bcf5eaf6ec5bccd3cba87efe072b3367b569ea4d91eb7f8db8d1b9acb9210155f9f12c3c33ad7003cf315f31670f02ba315c3de3fb5b419d7f6449944869968bd1554d80f08b23148cc37336b10f904012d03e834f2c0c314e8dc384611dd12b66e52f8aa777a6260863c77c3a19939d5e5d8cc87f6a18f7ab13fcba815a450bec20f6b30822e7757a39a05f1f7706397fdbd891bd300c7400f29b9691f390e8752612828cd58c511ad9b7b471bc73f21171e77e28f4472a312797ce127271dadd4ed426b1c6710b748b3dcc81ba54faa68af06f91dab77d3a926ca1afd061aa2a2fb563afc13a4dd04ae6ead7eddd8f980ffed0ba17ea6cca4f0a29ec197a61455768698ae0d19e5ed5b6821d71d421fbc9a295184d4218f5c931981429fba5f098122dfee41ccca6d44b123a72aea0790b484f594d625c485a39833644e19d8487473d649c237d020692b29fb0ef914476ac1abba35c6294dad1a8d59b88b8e0570e88c3a6160ceb513228e7cbcb32fdbca12804aec5dc20b4208d7ac51a8646b354dac9e410b4a896fd2754a549ccf3f1ac60a26ed6c0e0f37568c0b9c380584cee4973f4f44344e7f0430cc2c38075e2184480917f64b05993fd8fbb5978d83d096aef7baa90cac2d880825a90540e319d0ac1c7ea295c8a3bad03e55670af2456967602ba2351ef98e5f2f1c55fca65dde9ec7357b071ef159c9f1fa40e32aa2232dd47e6881a77277b8252e8e519ba3139b0cf89c01180387b7495f28ac18340540327d1be9f15ce13cb5aa5a3f0e51cdd25410e9994a85ad82e0bccd6558b8f97f8c0cc09419bd4b39a5a986cbcf4a9f017871a477c5e9d4bb5f77fb1d433840862577ac2cb1bd9463f7078a7c662e47cc7d6592da6cda69f4d6956736deac5ad800a7ecfbf21ff7d4a1cbbb4ef7876e673c45e391df53dee785bf02846cdf10389efb48cfc2e0f031eaf08ad24bf8afdfd7e37be5da953d9965dc83d6a48b041d23cad3d8e04d6036fa697aeb1b8c9e35baf15d1a715d950affee84c4543b2ed4ff6948e507f24ec656df225afbf6834a514ea8159d34ccc98ac2c91dcff5f68dfb4eedcb772e0eecfb1090dab9b5ec2d7358fdf138f3a4f181231dd5f8a1d807e0a4c7166169882333889250ca287805234f924e1dec02c0a45b1e61f5b713ab4de885e40368818e4c3e1f85cb81c2445f6c14a91306b393f353ed2d790a9a26780c9a1d07bfabb906bbe2b79f56557cd25cd2e50921c3dad8052bfbd3a63caa260eec1c28ed93ac15502e092241dc81c6904e937e07c9531afdd34745cb009c56fc678ba27c6e122cc309545e1d0091ab75579b0f6b5c504e2b352d47e8113203dffc86fac3f8ef39eea6e0bbd8d8372483788514cbc357235db5c107ae883b53b32915cdf792606bdbf801c7022dfcc00609c926dbb91f32a20644f28ca11820228dde2e06ba0e6f849142cc5f819de539dd3e67f0ff48e35135220666288d45228fd1af535da10bead840e72908a30c667777ad33dae5726c8ccebd3fd16616501994e61c311ffdbcacca6f0229ad99c99014a50e7e74efd450a3d33454cbcfc2a5c97b39c227c5f4e5c7f10afdaf5b575c01d613403e1505fb58e94a9149f24662ec6a0981d25bf0dcac2514bae6ef767d84041edf0c97e46e6b1e05c87f4894572800541cb297bfe1e4371d9995d73f9174ed9ee30ae8a38be0bb4ed1c0c7f573461de6b"
      ],
      "sequence": 4294967294
    }
  ],
  "vout": [
    {
      "value": 1.0,
      "n": 0,
      "scriptPubKey": {
        "asm": "OP_RETURN 3c924912d6c64f930c9328a19ca029e1e5bb81350cf038593a61076b5a7793ab c906a86a25a897dbe36399b69f19891c5e93056c4916197783bdaa5adc07f773e926884a0588b7fbc343b996bf39a93c7eb3254c69363957a39d8a7afc27d7538946e82a65e8d79ba323d9f6df59c95c1ed3452c09565937c3fdea1a9c47b733a966c80a45c8f7bb8303f9d6ff79e97c3ef3650c29767917e3ddca3abc679713498628eaa528175b63e319361f99099cde1385ecc99699f7033d2ada5c8777f369a608ca8508377b43c339163fb929bcfe33a5cce9b6b9d7231d0afa7ca757d309c668aae568571b23a359765fd949dc9e53c5ac89d6d9b7437d6a9a1cc737b329e6488ac548773b038379567ff969fcbe73e58ca9f6f997635d4aba3ce71793c906a86a25a897dbe36399b69f19891c5e93056c4916197783bdaa5adc07f773e926884a0588b7fbc343b996bf39a93c7eb3254c69363957a39d8a7afc27d7538946e82a65e8d79ba323d9f6df59c95c1ed3452c09565937c3fdea1a9c47b733a966c80a45c8f7bb8303f9d6ff79e97c3ef3650c29767917e3ddca3abc679713498628eaa528175b63e319361f99099cde1385ecc99699f7033d2ada5c8777f369a608ca8508377b43c339163fb929bcfe33a5cce9b6b9d7231d0afa7ca757d309c668aae568571b23a359765fd949dc9e53c5ac89d6d9b7437d6a9a1cc737b329e6488ac548773b038379567ff969fcbe73e58ca9f6f997635d4aba3ce71793c906a86a25a897dbe36399b69f19891c5e93056c4916197783bdaa5adc07f773e926884a0588b7fbc343b996bf39a93c7eb3254c69363957a39d8a7afc27d7538946e82a65e8d79ba323d9f6df59c95c1ed3452c09565937c3fdea1a9c47b733a966c80a45c8f7bb8303f9d6ff79e97c3ef3650c29767917e3ddca3abc679713498628eaa528175b63e319361f99099cde1385ecc99699f7033d2ada5c8777f369a608ca8508377b43c339163fb929bcfe33a5cce9b6b9d7231d0afa7ca757d309c668aae568571b23a359765fd949dc9e53c5ac89d6d9b7437d6a9a1cc737b329e6488ac548773b038379567ff969fcbe73e58ca9f6f997635d4aba3ce71793c906a86a25a897dbe36399b69f19891c5e93056c4916197783bdaa5adc07f773e926884a0588b7fbc343b996bf39a93c7eb3254c69363957a39d8a7afc27d7538946e82a65e8d79ba323d9f6df59c95c1ed3452c09565937c3fdea1a9c47b733a966c80a45c8f7bb8303f9d6ff79e97c3ef3650c29767917e3ddca3abc679713498628eaa528175b63e319361f99099cde1385ecc99699f7033d2ada5c8777f369a608ca8508377b43c339163fb929bcfe33a5cce9b6b9d7231d0afa7ca757d309c668aae568571b23a359765fd949dc9e53c5ac89d6d9b7437d6a9a1cc737b329e6488ac548773b038379567ff969fcbe73e58ca9f6f997635d4aba3ce71793c906a86a25a897dbe36399b69f19891c5e93056c4916197783bdaa5adc07f773e926884a0588b7fbc343b996bf39a93c7eb3254c69363957a39d8a7afc27d7538946e82a65e8d79ba323d9f6df59c95c1ed3452c09565937c3fdea1a9c47b733a966c80a45c8f7bb8303f9d6ff79e97c3ef3650c29767917e3ddca3abc679713498628eaa528175b63e319361f99099ccf5c7cdb6877f9a7801cae07bc2f59d97365d0ff2dfc7a1bb7ee1dcef956f6d6",
        "hex": "6a203c924912d6c64f930c9328a19ca029e1e5bb81350cf038593a61076b5a7793ab4db004c906a86a25a897dbe36399b69f19891c5e93056c4916197783bdaa5adc07f773e926884a0588b7fbc343b996bf39a93c7eb3254c69363957a39d8a7afc27d7538946e82a65e8d79ba323d9f6df59c95c1ed3452c09565937c3fdea1a9c47b733a966c80a45c8f7bb8303f9d6ff79e97c3ef3650c29767917e3ddca3abc679713498628eaa528175b63e319361f99099cde1385ecc99699f7033d2ada5c8777f369a608ca8508377b43c339163fb929bcfe33a5cce9b6b9d7231d0afa7ca757d309c668aae568571b23a359765fd949dc9e53c5ac89d6d9b7437d6a9a1cc737b329e6488ac548773b038379567ff969fcbe73e58ca9f6f997635d4aba3ce71793c906a86a25a897dbe36399b69f19891c5e93056c4916197783bdaa5adc07f773e926884a0588b7fbc343b996bf39a93c7eb3254c69363957a39d8a7afc27d7538946e82a65e8d79ba323d9f6df59c95c1ed3452c09565937c3fdea1a9c47b733a966c80a45c8f7bb8303f9d6ff79e97c3ef3650c29767917e3ddca3abc679713498628eaa528175b63e319361f99099cde1385ecc99699f7033d2ada5c8777f369a608ca8508377b43c339163fb929bcfe33a5cce9b6b9d7231d0afa7ca757d309c668aae568571b23a359765fd949dc9e53c5ac89d6d9b7437d6a9a1cc737b329e6488ac548773b038379567ff969fcbe73e58ca9f6f997635d4aba3ce71793c906a86a25a897dbe36399b69f19891c5e93056c4916197783bdaa5adc07f773e926884a0588b7fbc343b996bf39a93c7eb3254c69363957a39d8a7afc27d7538946e82a65e8d79ba323d9f6df59c95c1ed3452c09565937c3fdea1a9c47b733a966c80a45c8f7bb8303f9d6ff79e97c3ef3650c29767917e3ddca3abc679713498628eaa528175b63e319361f99099cde1385ecc99699f7033d2ada5c8777f369a608ca8508377b43c339163fb929bcfe33a5cce9b6b9d7231d0afa7ca757d309c668aae568571b23a359765fd949dc9e53c5ac89d6d9b7437d6a9a1cc737b329e6488ac548773b038379567ff969fcbe73e58ca9f6f997635d4aba3ce71793c906a86a25a897dbe36399b69f19891c5e93056c4916197783bdaa5adc07f773e926884a0588b7fbc343b996bf39a93c7eb3254c69363957a39d8a7afc27d7538946e82a65e8d79ba323d9f6df59c95c1ed3452c09565937c3fdea1a9c47b733a966c80a45c8f7bb8303f9d6ff79e97c3ef3650c29767917e3ddca3abc679713498628eaa528175b63e319361f99099cde1385ecc99699f7033d2ada5c8777f369a608ca8508377b43c339163fb929bcfe33a5cce9b6b9d7231d0afa7ca757d309c668aae568571b23a359765fd949dc9e53c5ac89d6d9b7437d6a9a1cc737b329e6488ac548773b038379567ff969fcbe73e58ca9f6f997635d4aba3ce71793c906a86a25a897dbe36399b69f19891c5e93056c4916197783bdaa5adc07f773e926884a0588b7fbc343b996bf39a93c7eb3254c69363957a39d8a7afc27d7538946e82a65e8d79ba323d9f6df59c95c1ed3452c09565937c3fdea1a9c47b733a966c80a45c8f7bb8303f9d6ff79e97c3ef3650c29767917e3ddca3abc679713498628eaa528175b63e319361f99099ccf5c7cdb6877f9a7801cae07bc2f59d97365d0ff2dfc7a1bb7ee1dcef956f6d6",
        "type": "nulldata"
      }
    },
    {
      "value": 499981.6958,
      "n": 1,
      "scriptPubKey": {
        "asm": "1 78b49b05b710e9d15450bd52f85032b43e0f0da65df66fe7ae8d12b963de1e71",
        "hex": "512078b49b05b710e9d15450bd52f85032b43e0f0da65df66fe7ae8d12b963de1e71",
        "reqSigs": 1,
        "type": "witness_v1_scripthash",
        "addresses": [
          "3QJmnh"
        ]
      }
    }
  ],
  "blockhash": "73359bfd0a4582986ffd1e7664419d7a0ef7b090643ab62685454f7a097cd719",
  "confirmations": 1,
  "time": 1764179247,
  "blocktime": 1764179247
}