{
  "hex": "010000000001012f0495f04ad2c3b4f7683c8fbfd110356097bb0d031f4628201962214d2a842a0000000000feffffff0250771315792d0000225120b80e1da5b28a7c6748402a105b2a17c0bcce75900cc552afab6c3c7a1c861e5300e1f50500000000fdd5046a205a40e156e9172a2335e3d9fceb3a6a071579cb2cfa353cd122fe0c53841d86e24db004e98bfdd084d388e6bbe64578705d90a2e6af6c63bad4a254270eb531a7d67dc6c9abddf0a4f3a8c69bc66558507db082c68f4c439af48274072e951187f65de6a9cbbd90c493c8a6fba60538301dd0e2a6ef2c23fa94e214674ef571e7963d8689eb9db0e4b3e886db862518103df0c286cf0c03dab4c234476ed551c7b61da6690b7d50045308663b66c5f8f0dd1022662fece33a5422d4a78e35b12756fd46492b5d70247328461b46e5d8d0fd3002460fccc31a7402f487ae15910776dd66294b3d10441348267b2685b8b09d5062266faca37a146294e7ce75f16716bd06096b1d30643368065b06a59890bd7042064f8c835a3442b4c7ee55d147369d26e98bfdd084d388e6bbe64578705d90a2e6af6c63bad4a254270eb531a7d67dc6c9abddf0a4f3a8c69bc66558507db082c68f4c439af48274072e951187f65de6a9cbbd90c493c8a6fba60538301dd0e2a6ef2c23fa94e214674ef571e7963d8689eb9db0e4b3e886db862518103df0c286cf0c03dab4c234476ed551c7b61da6690b7d50045308663b66c5f8f0dd1022662fece33a5422d4a78e35b12756fd46492b5d70247328461b46e5d8d0fd3002460fccc31a7402f487ae15910776dd66294b3d10441348267b2685b8b09d5062266faca37a146294e7ce75f16716bd06096b1d30643368065b06a59890bd7042064f8c835a3442b4c7ee55d147369d26e98bfdd084d388e6bbe64578705d90a2e6af6c63bad4a254270eb531a7d67dc6c9abddf0a4f3a8c69bc66558507db082c68f4c439af48274072e951187f65de6a9cbbd90c493c8a6fba60538301dd0e2a6ef2c23fa94e214674ef571e7963d8689eb9db0e4b3e886db862518103df0c286cf0c03dab4c234476ed551c7b61da6690b7d50045308663b66c5f8f0dd1022662fece33a5422d4a78e35b12756fd46492b5d70247328461b46e5d8d0fd3002460fccc31a7402f487ae15910776dd66294b3d10441348267b2685b8b09d5062266faca37a146294e7ce75f16716bd06096b1d30643368065b06a59890bd7042064f8c835a3442b4c7ee55d147369d26e98bfdd084d388e6bbe64578705d90a2e6af6c63bad4a254270eb531a7d67dc6c9abddf0a4f3a8c69bc66558507db082c68f4c439af48274072e951187f65de6a9cbbd90c493c8a6fba60538301dd0e2a6ef2c23fa94e214674ef571e7963d8689eb9db0e4b3e886db862518103df0c286cf0c03dab4c234476ed551c7b61da6690b7d50045308663b66c5f8f0dd1022662fece33a5422d4a78e35b12756fd46492b5d70247328461b46e5d8d0fd3002460fccc31a7402f487ae15910776dd66294b3d10441348267b2685b8b09d5062266faca37a146294e7ce75f16716bd06096b1d30643368065b06a59890bd7042064f8c835a3442b4c7ee55d147369d26e98bfdd084d388e6bbe64578705d90a2e6af6c63bad4a254270eb531a7d67dc6c9abddf0a4f3a8c69bc66558507db082c68f4c439af48274072e951187f65de6a9cbbd90c493c8a6fba60538301dd0e2a6ef2c23fa94e214674ef571e7963d8689eb9db0e4b3e886db862518103df0c286cf0c03dab4c234476ed551c7b61da6690b7d50045308663b66c5f8f0dd1022b19026bd653cbc5577c06447096326d0a8992a97eb2c17122c464e9995f0032602fd7509b819077036396fc6916bdf5b7fb3d98db250319d47c287de48e3c9e9f069e01cc39059211001c27778a24390633133cac2c987dc7bad3a1105ae06ef20b1eb79f07b8f41fef27054f5673fc58bfb35fee954bc704740e83000633bf893020e2431db5219d0ac005a728a670322025ad3ac4b0ba6c200cdd94f9b8f971847c81d3f978986066adfec0edc15fdc62c6ef7100521aea12388e0ceb7b8d2ce43138256d4f5b3f0e90739b2a5e8a5a0673f3d933b4eda2373d53ff90447fda4b74d06f238680f86ca3cc5aff09b126e8a0c0ec944383936400218bd9e9d1d90a47f2fb5185bbbf1eda35fd592fdb7ad36548aef91e3d3ba20aecf577b1c7f848c9601ff3ea6714a6907e3297f548e366f180e6d7119d27aa6a480623eae231a4194aedb78f68386f3718d9b3959eded6d3e2bd3ae1b1a0067c1b073401623f593cfecdf5967608bc028c81320c2dd5197928485ef97e1dd66095b65f49394f8686da8f4cd623b3f03804926442f101b3ec21b2b6cdee47bcdb4ef09e2050751325c6b1af7f671abd9d49b28820bffd93e0d8627fe5c1ea67bc2dc29e118d162b407304abf270685029f2d53fce423316c192e86fb5a44af1f5edc7c96120898e153a31bcfdd2976c8db6c375f4ac2e463fe4d3160bb9df98bb514cd9e25889030d9bda2b74a02c70e6e26064c521bd392724f273497ddaa8cc4f5190fe48c763d1c53b854f159b3395759a2fed64b162c1297de70e19966d14ec5acd2516684d9eb17398a72e80ea5dc1d6a666b2d0599f2f5c670162e1ca231de88b907a8240d0aebb2311e12ffe435e7c112ac2f06c970256ccb36cb1cd1ddfd7a31bcf79bc0a6f63b1c3832496ea2b9480ce2ff331cc572918e804b583e58d3aa8219aba15d6845f0b6ee8fbb828b68f3b450a31905ad040f74ed3ec2dc13eb81663e2b17c53e4359a06b08a5d68760131e816c7d6eaf5b156a62fb50c6126c1d28355da41fc8b4a79f0ad57ffebd131e5f25bfee642a93c5b78c81fca7e62e8ece161d85fafb5cc0b4bdf6bbd9776663ffd8960283b4d78f4dd5c4f04def4bf84fdb63a0a86832c7fba96f49c9abc3db63529f893cbd628ac1552aa6e90c2e09f9719ef90a3f0c07e3c00ccf3af7ae22ca8f9e9ff875ea74f466cf5dab6d0a49b2663aa7ec07151451e7267bcf52080040954cd0fe746e18f5098a2c672183c18951a7e8e65692c397cb5059d9084dfe7f1b262688921063dc8397816ad2d61ebebf1c2f5cd947a4124b81972734c76976fbd4b3d41f192ee1409013b89f49d3606a7fb60a170b51093548243cc4c9f1ce9db7d9a932effc0d35e7a9fba680e2307803f9ed0390b4657a9272e0f782c051590cb911a9cf1b331529b1056a54d794f54dad313f4720027063dbc0c2baa1d047e1eb831482c22a54e9f1402e1880c9d9b9287aa666a56d5dc481278683c1c55dc1b58f8c1de0237062deed76861dccf64d4b1633ea867dee95231cb9522a3114a5f09e1fe78d38bf23c3ed9121b3f3fd079794e789a7ed7b9906e16ecb4100e31de2adfd39234f2c1cd96f4f901f6d11fd3c59ff4c5dc90ec43e72cdfe5c872a5bd8ffa79248687f3f60b43b1f30a901d5daa36af722c00fb549b17bcb9acdaf8d287d387ed032d335455113247979a366a61394804cf8f81265f3a954d97a4664d18eb161f8003da3cdb8d6d3a58ad22b3436a479739e552ca7d0d90f173ce6f51c6edcecc14d1f9d3e1b1e8edcf24cb3386cd55f7181f908931f23e01eb6afdbff00f1a2f52cce133b318434f81c5602846f70ba2715889f0ee26080c3f6aa3ac005914fd447d621e8f3da9d1a45d07a228fb8b43d7ddc8c9c81ea84de08e34db935acaa9edc41b6706cadea1c21c32fd5a26dd20c8a396a560dfb197b04fbbef8f38846ed784fa4624fe7e427377d7e84a1b95db73f368549f222fa9c244e427d6c0cc6dca619bb3d6af5b6d87c556e821f7bf8baf6cacd1a1e86640f78b43eebc70618b2996b73b5c8d86ac40103f134633b5974672ca8d7574c9963bddc2658c04f9aac50c4f619d8df5cbf20cab2929e2e5c5a070a558d2341c14f74d1e05d0b81cc8d0813df078723ce5f591d3c18004406972a9bf00e5f54fb64321a55b0cb5c21e1e02348dbc2d2d7da83ae2ad29d205d0804647cdc96a0264beeb70f34ab25ec0ad03e35266f6110e1b67d65accec92ba16444e359701f6be684ffc88e206b3cddaae7614f015296243e6fb74aa0cc846f21ea5f6455623b87bde56fa45e588b9707c993adf1e66668357f401dc212dc693c2664cb81a27391106ea1a5f8f1089e7b4b705719ea80eb7b8458ab6301f4a769e3710965227962b8c3c9ae0608ea83df0fb4e2ff0b3cfe441791891c5993bd4083ea45ff2555ebb3a9e3c579d109dc7bc3d08ce19f49e2498c4da7dab50ee9267dce0f577e6c90310499c619aa8ceb7c98e9557929e734c9dbf18607788a368a220e3feb4a241040048d07c228800d2dd3374b834d84514f012142b6b9660883c4f08c221cf15ca00a15d9adc5a6279f860a60c84b68a244bf8d346708716df61cd06233803f05145d5e5e79a0a5b82d19b0c7c254f42422b0d0ea1fb5571106401629160f50187bb0f83a4205c377346ea0d3547f289efdc4e01ea62b4bcf614175acba9b5b18d7242098cb77e29de7e072ba7dd9972b95bd15c7b1038cdecb09221112a98f8d1a4ee2ee572fb18e2e3e01512b9765a9b6ac9db86be9a8044310e75f4c1ac7cdbd846ec35ab0f198096d49deeefe718ce33f3b742512fc5981a59f0a64c02d3aea03ed63ef7351db03a95a289c7a0a9c9492aadbf78ee9372ab0b42b1ac7c763915579b030a86c98ef84cadd70b89c21ff8cf16c4ba717e10bd66cc5cefe0d8748e05ea62d59e81470050316b3a31811150d262b87ca3eb41668a1c02d6beb2756095262c9adfbe182084bb5e85fec52e4158dbd313794bc2d89b856db4111abf6fd9cfc5c24699aa55b6077f6f6a54bf5d220d452cfba9c0db0f69ddd4399a184c95a8771601808dfe811b8b5f9968f4d27d0653f36cdef698d621de087ef0d7f57a2c607c8171f8b8df972edc518a84ac17631900e235e9081d3f6e8a4a8c32727566056d7d3ca99ee762fbdfa65fdc6347abc4c7bf8412b0936a55129931022877f87e051e39a9e2f4318ac46b8f72b241c967547660f70111de3fe3f8762d3b5f2b3dd54387359d5d38d6e12e1bce227e686ef90927f844e1d8dff96ad73b5871fa33cb774cf1c913f740ab860bac2b24ce9983a9e080a16263e8385b7b8bbc7f4f60b14173053646a75828e9196aabed3dbeafa01292e30355e60727c83999dbbc5cacbcde1ecf80a17313e5d636fb1b4ebeefc00000000000000000000000000000000000d1f333f01fd210500860e077c1fb3b1c48bc3bef86003c1b500ce0eca497a6f2e82b6436678d675320748c84c5989e93dc357adf53330f067734f132097f8c5a0cfb90d8dfc432240ca03dadea566b6cc3daa7da958953766c7cfbcef6b96aa9686c7dc76f9c3ec9d2316f80dd5a37cce424db6d21b267b103a321134ade9dd7e0abd7f23f7241dadd1d2a65cc9946d5d0fc4f6b2bd3e8ee08aaa7f9af095abd5e450c6bdd51dd08c6de5a8a2906cb116c54270bfa22ceb6ef0fce9b0b74d7be624a7b866c1385c808edec43146946ae77ff6c6b161d3d5dbb9fb190f4845c99126f228914c9125a7f42a4775648e64216d3fdf1c2a3f0bcf9c8b0399c53076353c3966e6b4fa3b25c199388f62be3561844cc1fa9cd934e644c8d65e419ae22a0525995c67ffd8dbbcc1abda969409cf795c8c1775f3dfd5956a2c29020450fefae3504405471c93692f5a08847b05d8d4dfb9a303f88bb860597045a25eb8aec97e4f805a5e0e5c541d1237f4da456584934e4f42380e955a19452d021a4f5cec8abd86ca02fb89a3e898f7bf5d03740b188f1c5b38bc952d4d5261c9019bfef388b3400cc99ef24cf17c33b13acf2478f10589cbd21f23ffbaa4b5a9c85dfaaf06cb5db192351d7bb0290ef06d65997f14f2c012973eeba445dc11777a3dc84b855f352f0febadd1fd51d7e178dbe767558284ee8fe5d19ff4dad6b70a6a5bd6b9dd7706065a87cdb8018db26da8813dbbef7c2e85c7411e038a2e496b7e58cea80417ce8964f963464c0b95d6e1f664ace93ba94168735d07a6d68bb5206592dca40c309ab870e4b64a705be5edc092e144269da7af0d130cd4f553a66dbf34117fd0dae06c58a8a4ca28a8b9a9ad7970e3e6c1786326bbee66175d0a3ecbf72c4c33effc7438a6ea829dfc66172e0dd3c5fe2b1f9681edd9735f5ddb05758074da9ce983f11b9c72038eadebead4cca57166009307ed7d1cea51bce016392b89c2d0c53387025777a9ef8ce91db613bde8927e65e4f50fcbaa9b098c0847f94410f438f5fbadba57be7ab635708a8054a1e44738fb0e8777c0164b8eeb279b8527e134b6679081572a9f6c24bd004a1e2f5caf6f5dd844900888782057b1c0006b707d2d3873f5bbc451737b7cb0ad6ab5cc4c40d442cb97f5f80b2ac7c0c0da366d735f2ef63f45fc38c6d17d2dc496df9f4cfda82cf86b4647891267c1e85a98cc80d8779666701aafd0678783f868e26d3ede0ed112288989bfb1d493d34d789fdc07b8490021c463180a955d0e4a989c053afa847ab5e0676e9933138b0e97f61e5c894bd48af2edaf6d4d9d2ef9144bce5a06df3b146f7b107cf0e2bac9b5510bad7e1bb3ee6e7442ae42455ff367c543fb7f0d9c7a325c57933d3b07b6d5f2c4b27ee2851a2683e680e51455732a0db9ed8cbec45967d4e76d44e47d9b5405d43257e8206a2831bb10d6af114fd14686de1c38a8384ff88032cb57eccabf2f32fffedd347a9bb91eec1cf519c2219d43630fca8675e30baac97f7e16f444868d142b0193dd089a16c5746e3de3bc87474b4ace9e6f4f4c894c0e407d74fbd7dacbd905b010dcec3fab9fd4f978554324f58ecbafa9f5de7e38800f7a869e766e331e2c5c7efec6834f8285407eed753d41266f1e22f28d3dcf575a4e191c834967ebd3770250afd893ff4da31b87458fa7320f65122bef5a3b82d48f7706b4ed3dae81773f2eeca4b5df12fc9989866256c88b5073d6ef0d443bcab679401b03d903ef852396dab33cbb96f16f5424486c71b853d1f1f991f791b7713ca2d6b63560d86d7b4facbb585376798bfd3ca993b1e61fb032b6f8e2d6189d8adebf88d20e1b75000000",
  "txid": "e635e69f04498e5b2630da0799e83eda9835d64e191a0a0e5bc18457a6ab3428",
  "hash": "db52f257c3efd271d558dd0e242a68a1a419b45c819cee25a10fadb47807f489",
  "size": 5085,
  "vsize": 2278,
  "version": 1,
  "locktime": 117,
  "vin": [
    {
      "txid": "2a842a4d2162192028461f030dbb97603510d1bf8f3c68f7b4c3d24af095042f",
      "vout": 0,
      "scriptSig": {
        "asm": "",
        "hex": ""
      },
      "txinwitness": [
        "b819077036396fc6916bdf5b7fb3d98db250319d47c287de48e3c9e9f069e01cc39059211001c27778a24390633133cac2c987dc7bad3a1105ae06ef20b1eb79f07b8f41fef27054f5673fc58bfb35fee954bc704740e83000633bf893020e2431db5219d0ac005a728a670322025ad3ac4b0ba6c200cdd94f9b8f971847c81d3f978986066adfec0edc15fdc62c6ef7100521aea12388e0ceb7b8d2ce43138256d4f5b3f0e90739b2a5e8a5a0673f3d933b4eda2373d53ff90447fda4b74d06f238680f86ca3cc5aff09b126e8a0c0ec944383936400218bd9e9d1d90a47f2fb5185bbbf1eda35fd592fdb7ad36548aef91e3d3ba20aecf577b1c7f848c9601ff3ea6714a6907e3297f548e366f180e6d7119d27aa6a480623eae231a4194aedb78f68386f3718d9b3959eded6d3e2bd3ae1b1a0067c1b073401623f593cfecdf5967608bc028c81320c2dd5197928485ef97e1dd66095b65f49394f8686da8f4cd623b3f03804926442f101b3ec21b2b6cdee47bcdb4ef09e2050751325c6b1af7f671abd9d49b28820bffd93e0d8627fe5c1ea67bc2dc29e118d162b407304abf270685029f2d53fce423316c192e86fb5a44af1f5edc7c96120898e153a31bcfdd2976c8db6c375f4ac2e463fe4d3160bb9df98bb514cd9e25889030d9bda2b74a02c70e6e26064c521bd392724f273497ddaa8cc4f5190fe48c763d1c53b854f159b3395759a2fed64b162c1297de70e19966d14ec5acd2516684d9eb17398a72e80ea5dc1d6a666b2d0599f2f5c670162e1ca231de88b907a8240d0aebb2311e12ffe435e7c112ac2f06c970256ccb36cb1cd1ddfd7a31bcf79bc0a6f63b1c3832496ea2b9480ce2ff331cc572918e804b583e58d3aa8219aba15d6845f0b6ee8fbb828b68f3b450a31905ad040f74ed3ec2dc13eb81663e2b17c53e4359a06b08a5d68760131e816c7d6eaf5b156a62fb50c6126c1d28355da41fc8b4a79f0ad57ffebd131e5f25bfee642a93c5b78c81fca7e62e8ece161d85fafb5cc0b4bdf6bbd9776663ffd8960283b4d78f4dd5c4f04def4bf84fdb63a0a86832c7fba96f49c9abc3db63529f893cbd628ac1552aa6e90c2e09f9719ef90a3f0c07e3c00ccf3af7ae22ca8f9e9ff875ea74f466cf5dab6d0a49b2663aa7ec07151451e7267bcf52080040954cd0fe746e18f5098a2c672183c18951a7e8e65692c397cb5059d9084dfe7f1b262688921063dc8397816ad2d61ebebf1c2f5cd947a4124b81972734c76976fbd4b3d41f192ee1409013b89f49d3606a7fb60a170b51093548243cc4c9f1ce9db7d9a932effc0d35e7a9fba680e2307803f9ed0390b4657a9272e0f782c051590cb911a9cf1b331529b1056a54d794f54dad313f4720027063dbc0c2baa1d047e1eb831482c22a54e9f1402e1880c9d9b9287aa666a56d5dc481278683c1c55dc1b58f8c1de0237062deed76861dccf64d4b1633ea867dee95231cb9522a3114a5f09e1fe78d38bf23c3ed9121b3f3fd079794e789a7ed7b9906e16ecb4100e31de2adfd39234f2c1cd96f4f901f6d11fd3c59ff4c5dc90ec43e72cdfe5c872a5bd8ffa79248687f3f60b43b1f30a901d5daa36af722c00fb549b17bcb9acdaf8d287d387ed032d335455113247979a366a61394804cf8f81265f3a954d97a4664d18eb161f8003da3cdb8d6d3a58ad22b3436a479739e552ca7d0d90f173ce6f51c6edcecc14d1f9d3e1b1e8edcf24cb3386cd55f7181f908931f23e01eb6afdbff00f1a2f52cce133b318434f81c5602846f70ba2715889f0ee26080c3f6aa3ac005914fd447d621e8f3da9d1a45d07a228fb8b43d7ddc8c9c81ea84de08e34db935acaa9edc41b6706cadea1c21c32fd5a26dd20c8a396a560dfb197b04fbbef8f38846ed784fa4624fe7e427377d7e84a1b95db73f368549f222fa9c244e427d6c0cc6dca619bb3d6af5b6d87c556e821f7bf8baf6cacd1a1e86640f78b43eebc70618b2996b73b5c8d86ac40103f134633b5974672ca8d7574c9963bddc2658c04f9aac50c4f619d8df5cbf20cab2929e2e5c5a070a558d2341c14f74d1e05d0b81cc8d0813df078723ce5f591d3c18004406972a9bf00e5f54fb64321a55b0cb5c21e1e02348dbc2d2d7da83ae2ad29d205d0804647cdc96a0264beeb70f34ab25ec0ad03e35266f6110e1b67d65accec92ba16444e359701f6be684ffc88e206b3cddaae7614f015296243e6fb74aa0cc846f21ea5f6455623b87bde56fa45e588b9707c993adf1e66668357f401dc212dc693c2664cb81a27391106ea1a5f8f1089e7b4b705719ea80eb7b8458ab6301f4a769e3710965227962b8c3c9ae0608ea83df0fb4e2ff0b3cfe441791891c5993bd4083ea45ff2555ebb3a9e3c579d109dc7bc3d08ce19f49e2498c4da7dab50ee9267dce0f577e6c90310499c619aa8ceb7c98e9557929e734c9dbf18607788a368a220e3feb4a241040048d07c228800d2dd3374b834d84514f012142b6b9660883c4f08c221cf15ca00a15d9adc5a6279f860a60c84b68a244bf8d346708716df61cd06233803f05145d5e5e79a0a5b82d19b0c7c254f42422b0d0ea1fb5571106401629160f50187bb0f83a4205c377346ea0d3547f289efdc4e01ea62b4bcf614175acba9b5b18d7242098cb77e29de7e072ba7dd9972b95bd15c7b1038cdecb09221112a98f8d1a4ee2ee572fb18e2e3e01512b9765a9b6ac9db86be9a8044310e75f4c1ac7cdbd846ec35ab0f198096d49deeefe718ce33f3b742512fc5981a59f0a64c02d3aea03ed63ef7351db03a95a289c7a0a9c9492aadbf78ee9372ab0b42b1ac7c763915579b030a86c98ef84cadd70b89c21ff8cf16c4ba717e10bd66cc5cefe0d8748e05ea62d59e81470050316b3a31811150d262b87ca3eb41668a1c02d6beb2756095262c9adfbe182084bb5e85fec52e4158dbd313794bc2d89b856db4111abf6fd9cfc5c24699aa55b6077f6f6a54bf5d220d452cfba9c0db0f69ddd4399a184c95a8771601808dfe811b8b5f9968f4d27d0653f36cdef698d621de087ef0d7f57a2c607c8171f8b8df972edc518a84ac17631900e235e9081d3f6e8a4a8c32727566056d7d3ca99ee762fbdfa65fdc6347abc4c7bf8412b0936a55129931022877f87e051e39a9e2f4318ac46b8f72b241c967547660f70111de3fe3f8762d3b5f2b3dd54387359d5d38d6e12e1bce227e686ef90927f844e1d8dff96ad73b5871fa33cb774cf1c913f740ab860bac2b24ce9983a9e080a16263e8385b7b8bbc7f4f60b14173053646a75828e9196aabed3dbeafa01292e30355e60727c83999dbbc5cacbcde1ecf80a17313e5d636fb1b4ebeefc00000000000000000000000000000000000d1f333f01",
        "00860e077c1fb3b1c48bc3bef86003c1b500ce0eca497a6f2e82b6436678d675320748c84c5989e93dc357adf53330f067734f132097f8c5a0cfb90d8dfc432240ca03dadea566b6cc3daa7da958953766c7cfbcef6b96aa9686c7dc76f9c3ec9d2316f80dd5a37cce424db6d21b267b103a321134ade9dd7e0abd7f23f7241dadd1d2a65cc9946d5d0fc4f6b2bd3e8ee08aaa7f9af095abd5e450c6bdd51dd08c6de5a8a2906cb116c54270bfa22ceb6ef0fce9b0b74d7be624a7b866c1385c808edec43146946ae77ff6c6b161d3d5dbb9fb190f4845c99126f228914c9125a7f42a4775648e64216d3fdf1c2a3f0bcf9c8b0399c53076353c3966e6b4fa3b25c199388f62be3561844cc1fa9cd934e644c8d65e419ae22a0525995c67ffd8dbbcc1abda969409cf795c8c1775f3dfd5956a2c29020450fefae3504405471c93692f5a08847b05d8d4dfb9a303f88bb860597045a25eb8aec97e4f805a5e0e5c541d1237f4da456584934e4f42380e955a19452d021a4f5cec8abd86ca02fb89a3e898f7bf5d03740b188f1c5b38bc952d4d5261c9019bfef388b3400cc99ef24cf17c33b13acf2478f10589cbd21f23ffbaa4b5a9c85dfaaf06cb5db192351d7bb0290ef06d65997f14f2c012973eeba445dc11777a3dc84b855f352f0febadd1fd51d7e178dbe767558284ee8fe5d19ff4dad6b70a6a5bd6b9dd7706065a87cdb8018db26da8813dbbef7c2e85c7411e038a2e496b7e58cea80417ce8964f963464c0b95d6e1f664ace93ba94168735d07a6d68bb5206592dca40c309ab870e4b64a705be5edc092e144269da7af0d130cd4f553a66dbf34117fd0dae06c58a8a4ca28a8b9a9ad7970e3e6c1786326bbee66175d0a3ecbf72c4c33effc7438a6ea829dfc66172e0dd3c5fe2b1f9681edd9735f5ddb05758074da9ce983f11b9c72038eadebead4cca57166009307ed7d1cea51bce016392b89c2d0c53387025777a9ef8ce91db613bde8927e65e4f50fcbaa9b098c0847f94410f438f5fbadba57be7ab635708a8054a1e44738fb0e8777c0164b8eeb279b8527e134b6679081572a9f6c24bd004a1e2f5caf6f5dd844900888782057b1c0006b707d2d3873f5bbc451737b7cb0ad6ab5cc4c40d442cb97f5f80b2ac7c0c0da366d735f2ef63f45fc38c6d17d2dc496df9f4cfda82cf86b4647891267c1e85a98cc80d8779666701aafd0678783f868e26d3ede0ed112288989bfb1d493d34d789fdc07b8490021c463180a955d0e4a989c053afa847ab5e0676e9933138b0e97f61e5c894bd48af2edaf6d4d9d2ef9144bce5a06df3b146f7b107cf0e2bac9b5510bad7e1bb3ee6e7442ae42455ff367c543fb7f0d9c7a325c57933d3b07b6d5f2c4b27ee2851a2683e680e51455732a0db9ed8cbec45967d4e76d44e47d9b5405d43257e8206a2831bb10d6af114fd14686de1c38a8384ff88032cb57eccabf2f32fffedd347a9bb91eec1cf519c2219d43630fca8675e30baac97f7e16f444868d142b0193dd089a16c5746e3de3bc87474b4ace9e6f4f4c894c0e407d74fbd7dacbd905b010dcec3fab9fd4f978554324f58ecbafa9f5de7e38800f7a869e766e331e2c5c7efec6834f8285407eed753d41266f1e22f28d3dcf575a4e191c834967ebd3770250afd893ff4da31b87458fa7320f65122bef5a3b82d48f7706b4ed3dae81773f2eeca4b5df12fc9989866256c88b5073d6ef0d443bcab679401b03d903ef852396dab33cbb96f16f5424486c71b853d1f1f991f791b7713ca2d6b63560d86d7b4facbb585376798bfd3ca993b1e61fb032b6f8e2d6189d8adebf88d20e1b"
      ],
      "sequence": 4294967294
    }
  ],
  "vout": [
    {
      "value": 499980.6789,
      "n": 0,
      "scriptPubKey": {
        "asm": "1 b80e1da5b28a7c6748402a105b2a17c0bcce75900cc552afab6c3c7a1c861e53",
        "hex": "5120b80e1da5b28a7c6748402a105b2a17c0bcce75900cc552afab6c3c7a1c861e53",
        "reqSigs": 1,
        "type": "witness_v1_scripthash",
        "addresses": [
          "3QJmnh"
        ]
      }
    },
    {
      "value": 1.0,
      "n": 1,
      "scriptPubKey": {
        "asm": "OP_RETURN 5a40e156e9172a2335e3d9fceb3a6a071579cb2cfa353cd122fe0c53841d86e2 e98bfdd084d388e6bbe64578705d90a2e6af6c63bad4a254270eb531a7d67dc6c9abddf0a4f3a8c69bc66558507db082c68f4c439af48274072e951187f65de6a9cbbd90c493c8a6fba60538301dd0e2a6ef2c23fa94e214674ef571e7963d8689eb9db0e4b3e886db862518103df0c286cf0c03dab4c234476ed551c7b61da6690b7d50045308663b66c5f8f0dd1022662fece33a5422d4a78e35b12756fd46492b5d70247328461b46e5d8d0fd3002460fccc31a7402f487ae15910776dd66294b3d10441348267b2685b8b09d5062266faca37a146294e7ce75f16716bd06096b1d30643368065b06a59890bd7042064f8c835a3442b4c7ee55d147369d26e98bfdd084d388e6bbe64578705d90a2e6af6c63bad4a254270eb531a7d67dc6c9abddf0a4f3a8c69bc66558507db082c68f4c439af48274072e951187f65de6a9cbbd90c493c8a6fba60538301dd0e2a6ef2c23fa94e214674ef571e7963d8689eb9db0e4b3e886db862518103df0c286cf0c03dab4c234476ed551c7b61da6690b7d50045308663b66c5f8f0dd1022662fece33a5422d4a78e35b12756fd46492b5d70247328461b46e5d8d0fd3002460fccc31a7402f487ae15910776dd66294b3d10441348267b2685b8b09d5062266faca37a146294e7ce75f16716bd06096b1d30643368065b06a59890bd7042064f8c835a3442b4c7ee55d147369d26e98bfdd084d388e6bbe64578705d90a2e6af6c63bad4a254270eb531a7d67dc6c9abddf0a4f3a8c69bc66558507db082c68f4c439af48274072e951187f65de6a9cbbd90c493c8a6fba60538301dd0e2a6ef2c23fa94e214674ef571e7963d8689eb9db0e4b3e886db862518103df0c286cf0c03dab4c234476ed551c7b61da6690b7d50045308663b66c5f8f0dd1022662fece33a5422d4a78e35b12756fd46492b5d70247328461b46e5d8d0fd3002460fccc31a7402f487ae15910776dd66294b3d10441348267b2685b8b09d5062266faca37a146294e7ce75f16716bd06096b1d30643368065b06a59890bd7042064f8c835a3442b4c7ee55d147369d26e98bfdd084d388e6bbe64578705d90a2e6af6c63bad4a254270eb531a7d67dc6c9abddf0a4f3a8c69bc66558507db082c68f4c439af48274072e951187f65de6a9cbbd90c493c8a6fba60538301dd0e2a6ef2c23fa94e214674ef571e7963d8689eb9db0e4b3e886db862518103df0c286cf0c03dab4c234476ed551c7b61da6690b7d50045308663b66c5f8f0dd1022662fece33a5422d4a78e35b12756fd46492b5d70247328461b46e5d8d0fd3002460fccc31a7402f487ae15910776dd66294b3d10441348267b2685b8b09d5062266faca37a146294e7ce75f16716bd06096b1d30643368065b06a59890bd7042064f8c835a3442b4c7ee55d147369d26e98bfdd084d388e6bbe64578705d90a2e6af6c63bad4a254270eb531a7d67dc6c9abddf0a4f3a8c69bc66558507db082c68f4c439af48274072e951187f65de6a9cbbd90c493c8a6fba60538301dd0e2a6ef2c23fa94e214674ef571e7963d8689eb9db0e4b3e886db862518103df0c286cf0c03dab4c234476ed551c7b61da6690b7d50045308663b66c5f8f0dd1022b19026bd653cbc5577c06447096326d0a8992a97eb2c17122c464e9995f00326",
        "hex": "6a205a40e156e9172a2335e3d9fceb3a6a071579cb2cfa353cd122fe0c53841d86e24db004e98bfdd084d388e6bbe64578705d90a2e6af6c63bad4a254270eb531a7d67dc6c9abddf0a4f3a8c69bc66558507db082c68f4c439af48274072e951187f65de6a9cbbd90c493c8a6fba60538301dd0e2a6ef2c23fa94e214674ef571e7963d8689eb9db0e4b3e886db862518103df0c286cf0c03dab4c234476ed551c7b61da6690b7d50045308663b66c5f8f0dd1022662fece33a5422d4a78e35b12756fd46492b5d70247328461b46e5d8d0fd3002460fccc31a7402f487ae15910776dd66294b3d10441348267b2685b8b09d5062266faca37a146294e7ce75f16716bd06096b1d30643368065b06a59890bd7042064f8c835a3442b4c7ee55d147369d26e98bfdd084d388e6bbe64578705d90a2e6af6c63bad4a254270eb531a7d67dc6c9abddf0a4f3a8c69bc66558507db082c68f4c439af48274072e951187f65de6a9cbbd90c493c8a6fba60538301dd0e2a6ef2c23fa94e214674ef571e7963d8689eb9db0e4b3e886db862518103df0c286cf0c03dab4c234476ed551c7b61da6690b7d50045308663b66c5f8f0dd1022662fece33a5422d4a78e35b12756fd46492b5d70247328461b46e5d8d0fd3002460fccc31a7402f487ae15910776dd66294b3d10441348267b2685b8b09d5062266faca37a146294e7ce75f16716bd06096b1d30643368065b06a59890bd7042064f8c835a3442b4c7ee55d147369d26e98bfdd084d388e6bbe64578705d90a2e6af6c63bad4a254270eb531a7d67dc6c9abddf0a4f3a8c69bc66558507db082c68f4c439af48274072e951187f65de6a9cbbd90c493c8a6fba60538301dd0e2a6ef2c23fa94e214674ef571e7963d8689eb9db0e4b3e886db862518103df0c286cf0c03dab4c234476ed551c7b61da6690b7d50045308663b66c5f8f0dd1022662fece33a5422d4a78e35b12756fd46492b5d70247328461b46e5d8d0fd3002460fccc31a7402f487ae15910776dd66294b3d10441348267b2685b8b09d5062266faca37a146294e7ce75f16716bd06096b1d30643368065b06a59890bd7042064f8c835a3442b4c7ee55d147369d26e98bfdd084d388e6bbe64578705d90a2e6af6c63bad4a254270eb531a7d67dc6c9abddf0a4f3a8c69bc66558507db082c68f4c439af48274072e951187f65de6a9cbbd90c493c8a6fba60538301dd0e2a6ef2c23fa94e214674ef571e7963d8689eb9db0e4b3e886db862518103df0c286cf0c03dab4c234476ed551c7b61da6690b7d50045308663b66c5f8f0dd1022662fece33a5422d4a78e35b12756fd46492b5d70247328461b46e5d8d0fd3002460fccc31a7402f487ae15910776dd66294b3d10441348267b2685b8b09d5062266faca37a146294e7ce75f16716bd06096b1d30643368065b06a59890bd7042064f8c835a3442b4c7ee55d147369d26e98bfdd084d388e6bbe64578705d90a2e6af6c63bad4a254270eb531a7d67dc6c9abddf0a4f3a8c69bc66558507db082c68f4c439af48274072e951187f65de6a9cbbd90c493c8a6fba60538301dd0e2a6ef2c23fa94e214674ef571e7963d8689eb9db0e4b3e886db862518103df0c286cf0c03dab4c234476ed551c7b61da6690b7d50045308663b66c5f8f0dd1022b19026bd653cbc5577c06447096326d0a8992a97eb2c17122c464e9995f00326",
        "type": "nulldata"
      }
    }
  ],
  "blockhash": "443ef5589806c3570db60b1178f56898637f167918ce0f0236a27ac7d0512dc1",
  "confirmations": 1,
  "time": 1764179461,
  "blocktime": 1764179461
}