{
  "hex": "010000000001018a3c0d47f9cdbc119cfe6bd75f06acf0c76de3db97e5980beeed3effab5007760000000000feffffff02a077e402792d000022512015f9bb6a97b62c1e799dadbf4d6ef90e87f1a714efe1ffb86f230916203d415100e1f50500000000fdd5046a20cd1abd36adc967e15fde6b98cf7d107393031a4d2dc706f9ea36399d3dc801514db0041c5a6d45f2c2509d6171e093d01bad76345b40c75c663c271f723e7e31d14a203c7a4d65d2e270bd4151c0b3f03b8d56147b60e77c461c073f521e5e11f16a005c1a2d05b28210dd2131a0d3905bed36741b00871c267c675f327e3e71910a607c3a0d2592a230fd011180f3b07bcd16543b20a73c065c477f125e1e51b12a409cdaedc57242d01de1f16013509b2df6b4dbc047dce6bca79ff2befeb151caa0bcfacde55262f03dc1d1403370bb0dd694fbe067fcc69c87bfd29ede9171ea80dc9aad853202905da1b1205310db6db6f49b80079ca6fce7dfb2febef1118ae0fcba8da51222b07d8191007330fb4d96d4bba027bc86dcc7ff92de9ed131aac01c5a6d45f2c2509d6171e093d01bad76345b40c75c663c271f723e7e31d14a203c7a4d65d2e270bd4151c0b3f03b8d56147b60e77c461c073f521e5e11f16a005c1a2d05b28210dd2131a0d3905bed36741b00871c267c675f327e3e71910a607c3a0d2592a230fd011180f3b07bcd16543b20a73c065c477f125e1e51b12a409cdaedc57242d01de1f16013509b2df6b4dbc047dce6bca79ff2befeb151caa0bcfacde55262f03dc1d1403370bb0dd694fbe067fcc69c87bfd29ede9171ea80dc9aad853202905da1b1205310db6db6f49b80079ca6fce7dfb2febef1118ae0fcba8da51222b07d8191007330fb4d96d4bba027bc86dcc7ff92de9ed131aac01c5a6d45f2c2509d6171e093d01bad76345b40c75c663c271f723e7e31d14a203c7a4d65d2e270bd4151c0b3f03b8d56147b60e77c461c073f521e5e11f16a005c1a2d05b28210dd2131a0d3905bed36741b00871c267c675f327e3e71910a607c3a0d2592a230fd011180f3b07bcd16543b20a73c065c477f125e1e51b12a409cdaedc57242d01de1f16013509b2df6b4dbc047dce6bca79ff2befeb151caa0bcfacde55262f03dc1d1403370bb0dd694fbe067fcc69c87bfd29ede9171ea80dc9aad853202905da1b1205310db6db6f49b80079ca6fce7dfb2febef1118ae0fcba8da51222b07d8191007330fb4d96d4bba027bc86dcc7ff92de9ed131aac01c5a6d45f2c2509d6171e093d01bad76345b40c75c663c271f723e7e31d14a203c7a4d65d2e270bd4151c0b3f03b8d56147b60e77c461c073f521e5e11f16a005c1a2d05b28210dd2131a0d3905bed36741b00871c267c675f327e3e71910a607c3a0d2592a230fd011180f3b07bcd16543b20a73c065c477f125e1e51b12a409cdaedc57242d01de1f16013509b2df6b4dbc047dce6bca79ff2befeb151caa0bcfacde55262f03dc1d1403370bb0dd694fbe067fcc69c87bfd29ede9171ea80dc9aad853202905da1b1205310db6db6f49b80079ca6fce7dfb2febef1118ae0fcba8da51222b07d8191007330fb4d96d4bba027bc86dcc7ff92de9ed131aac01c5a6d45f2c2509d6171e093d01bad76345b40c75c663c271f723e7e31d14a203c7a4d65d2e270bd4151c0b3f03b8d56147b60e77c461c073f521e5e11f16a005c1a2d05b28210dd2131a0d3905bed36741b00871c267c675f327e3e71910a607c3a0d2592a230fd011180f3b07bcd16543b20a73c065c477f125e1e51b12a409cdaedc57242d01de1f16013509b2df64217c6bf3b2f5bb013a349cf627a5cf6bb526c607fb41a16ae990c16624284b402fd750917685cc70809cda4de39596fa7cc1e50b9e2961888956ec2a89cdb8852eb12870e03969aa5a0998f575101137f8787ce9ea67c313dd2b5ec664f2172bd5c8416aa013d5be9e2142fcbd2c8be721fdb79d3d6c1e50629f048f3a6552ef6b7d705c956cecaff8ff6df2a453a69755bab1463c9bd396dd702ae0889605435985310ac5d819d46781c4c271a8717f995617bdff09096c389c096e1ae2cc1cd7dca5b1f409d3846a15d4ca23926f12b79be9cdf32cd6c86a737d60753d331e0def22ee247fca434c489e628a5e825124130d5b88666ea6ee0bba7029eb057d6cc222fb3e3ec7ce54e7d6e29ae856d580e6eb7525d38ecfbfca52571934c277abbf034b38cdd760a9a15b0f00b79ec1a5cddb48378faf24e245ab6544aadba49e1acb0d99d002194f0a3e7f13f75b902d1440d14ed4dd94b702a8013ce62ae0a231291c010e945f75a22a9ad7133d5871e970fb31475814a1536e6b1cd7d879a7a5fb435964be059c4005167c10d9bc3e7815a45ed873f25ba7ef284a8acc1b782e8227f54da29bf6a0fca9bc372312dac71f32cb0718e98edaab1a8385390ba6551a6ed1fba3f05a88acdf970a5b5fcfc85b0be32370c13a247810d39a4289d70a59b4994d9b502971255ae03fe2d673b397ae884f7ade03f9ebd1832c0ccfd1a744bc99bd15698888c611032e72e57b6317f601c5d73e1b0a8093d86709a9d91e95bdce1766b00791e8c6c26e3b4e4e528f18a0ae0552e0cd2415e2a2278a9b79b4b17be3b1dfdd85414f3ae4fae8afbb792383c6fcaf62012369e773cec52ee379dd81c187dfb99c31490290e3dd7437188dd422b27a0970ac2515d005fa97c441e70a4d645cc9216e71d06724af06c39fc8777b1bd93daa8cbc1f69cf11c5a49f12d70b75f9653ff19e4cc20f3285e04a0229a5939cd6d4a3a38e68897a255cf208b87a5320827063f7f506d8156dc85ea9381a5e2b7825c3921254cc156c7f6fad022e7ab256850219bc0f8e951b8330e8e282ec9c0fba61c409045552eed2b545a13c50c15cd8dfccbd2b5505caebdefcda41d1d1c3a74b690fbda186d9afe2d612ad35775b3399269c53f0396ff4c9f00b96972716616d5b1bc0ff8c55e0458f961c0ed3cd2dc5290ffc485c1b45a45818a50bc4978fba5ba27b553bd78a020ed9a2362138adc6144db492109fee9ce3afe74dff63026b347c77e0a2a358f6b0630f9c078816bf7d0394376afab941053dd159070b253dfe5352002803b8b6cdded0849d2038251bedbaaacaeb97d7609312dfd4873122ad6c2681865e7c39ec09d39af1c395348c97d3ddd059e6d0aa64743e29741e779cf38ec9754b6b6a401426ffacd60e03e8b0f883b9ae0609263ee10afbe0eb351a091247cc00f3adfda15dd60353a4767cdd2d8a1c9c8acf62602942ae185f62ad89fb86410d99665cec1eaf54c76068a348efba14f25ba0d0ca730d98c200dbb472ddbb7c431489f38568c70e25d514b1e86ac447046e3867af78ce8d8f4d8fe3763104cafc2258367f33e81fa8ffdccde40420682b919c2ca374318e594a2039d96d7aa52fed91fd1a761b54fb8cb9d010c9792aecb562f826b39c54c92027ca3dfd6a0ef0b99109f5b042adeec6e90d23ef71dc97e2b22fd4a4cc0e02214cf5d29ae2ddd44fba056f763bee8756a11c7b69200ef25e03d46268c4ae237f72b200ff02019343d3e932afde218f311c8b69fd60ff111ab75d7b34e447225268665d7520a0af52bb86f24dba774178c5f3cfd35e53bbac23998fe278a2f340bea4c2b8412a9ad62c6889a0daf95ee1600c5b9abefd9100df339edabdd034398a56a2d4809905bfc7ff323452fcd3ccb6c26eb7c15bf416662fcb656afe8d22d39331b6c7c9a630d9a13f1eb4650fa53181cd91e6a1adbb35d8de353854ae3670d2714575491ff0d91b83041756e8d6f35896078efaaabbc801bf677af603a7eca2098085e06592391255106ec4cc7b70b2e7cf24116c076003ef3c173e543261a96b8a06d1bfdc037d9beca490bf6c8c7a8f60dabe44dddcec3f8827179370227198baeb7b56abcca4bc521afdc05f44b2ee2e5cccde3fccf707712e6c807c68e27d8230e01976f5b7344087150492f0c1b54caf480009a6aea1a8c4b6f3ef384be5258949eb42aabace4031a40d625866109a5a28d783937de40f0cd272a491012f82eb061e579be23b00bd841f90430a59e0e097f5a8fd792df83e3e7b4649546a95e09ce6156aed5a70f32d6c6b6287981d18abfb56385eb7b9b9bec4a436070dae252d6ab2e18e8681cae0e8836dd7d1ecd3c96c595fc6fc7322d8011d9b2b9aea7c9ce155251045d96b8cede3f8b08e76dc6fa87137b3f12e0871e4a2bdf2b6f41f1a91a069efd637e2fb3d793445658a0694aab158b725add50a8eb9ac1513c000d06c9817ca0d40e6a87683cce7840616f7a5a1a6be2d479f604ddc61aded52603466414201fb4f214fb2b31860daee7c03d405adc6054168f541a73152680e707c1a3ac3f6e7b882eeaa9f40d02fec8c2e0a09d6206382161a7a932f9b76035c1bf59b4658d6174c89c42fefb68b1d60e9f4fd2252605f54fb7a3593fa2d65806ff66f20891f99dfe19edefd4c55bbe4fdde939ebce54483c18cd3a671f177c461594f57c9a22fe42256ae66ced651ee03a5e7e66d7961859c35a2b078c5340f9f410c928ba5abab6735e7e7d69650945730db2010f5982d02d3e14b44ac86ff49ec756c194061fcb9fcd43ebcf5e607073ce2b086c43a1c1761790505647541f4010b62d8015134501dc275e88b61e8d54fc9d1dc5d7f03642c0efeb9b2672e849185a36beb50a32c6e6ff456ac8d4457b209ef81a209471ada91487a75bdd82fd1671117112f1ad625ef82ae2992f880414ff388d19733be16ae13cad5898e99832000b89c06406cd2a5064ad0b0afc48b893d609dc07f79962bb5d16c95440c3e394ca51b74042df68abce121cf43e0b3a27100c099013336e0666826d20408e097c5ebc259b846ec43e12561bbf7f71ce3555654a4407125ce7d1de701fa04e6d64b8d0bec433ce6e9acb4f5beb6d8bd2705d449a615a6c47d242cf141b4bcd89aeec3375f0a5439d33d238971052b7b473de4f8ee38ecb1437de7226c98cb4cd1601436513edc9b43e2efef8b97f87e6602073ac73c167ae9d58773f077e32a90073da0e8a3c0c344c07e3101b1891810dca2773669a2a74cb092175e82a59a0ca75ab4af9f92aef186c5f452814cd3fed32001b6e7f5d113fb3ff25345e59639cb523293e494d7071a4a6b5b7c0cad3daf7fafc00023c525e76979fbfd4e6eef1081049548b96a2a8aae202545f61677479939db7bbc2c7d2d3d6d9f2f40000000000000000000000000000000000000000121f293c01fd210500e308f80a4c7cd2dc8ff4325ebac165e1e9a0a7792c1dfc966699b0b5b3ddc0596c74066e5eaf3083acef14533299f1757d6af915774da1fb23de1720a3b2fe8249a4076551d072d3bba91cbca90f7dfcea80b519cf7f1650a110e69718dcb23a18389d2c570f3c2b5769774cdacf6957bf49ca3c2ca88329d027781dc1fab1a1116a87ccd622d338eff27de9809e727c9a208ec32f80a6141d8815206c988911a2f0fabf5ed0a33ff94db8d171a7ec60a9179d85a22796663753baa530a2b8798093d51989d30b91ca6c9cac8868138fcd1b2f2987f1faf6bc4cd10998dbab2f2b7c04168a427c02b58b39c7c4ed921caf7666c19843b74d57170ca26331fa6c081c394a1ae32e0c29fe53be9c61867c18cad1be36c1ff304eb5e8fd51b2bcd9b965c21c3e24f62701e9033422a353a472c7775241bf701fa16dd358b9e010cff052fdd9a2aa8b94e36af7f7d5c2bae6ba346a8404392c118fad9cb35e9d53bf9f51aab517c24d9260e855bdded5821891873afa80eb3e7a87e723e275d7fecbf1b66bff60222da27718fa727c2cfe7e22e73cd007613ca682d8c9898c6c556748a4825fe5af6a56742986da5d4152dcbdf2153ff13b36a098d99de11230a20d8c6844ae5ab2bd52f0d8199a906b31a24a9e00f5f2e0961c619b65991f71eedbd0c0c7e5c37074f4cf157f47fc091cb5f971da06179bb8fddfe0f3c0880b3a1bab478e2e9342d1b745d3be3123b6f3737e19d413106d60a96c580be3bdecad3212e2880456053b20674a51c894f1dcef0430358d09f615a7499ea49e254ddc20ba78d524306e5b8597d2b979ef1bd143d02cfd49b6d3384e91d920f1452cd933bbad4a935d2a3625fc7db9efa6bce553dae1c945cffdc0bde0489f1b045abe1ad0ba2ee27842ac1a4f063f7bb5433c48f2ae2a078d534551ab7d3c84a6628e73d7cb8ce5b82460045b13c17fac93e1eab864985f56348e47a50daac1b706debe08e8fe2399e5ae3fd3312443ac7d635f94e76b7ee3ad976a2ff5eb929ee148f2d7bf5e0e0523dc681d126cf310923bcb071ad0c3398ddcc5d9e243b0e68f1e7425e46db21f569088716f48c3c4a2c7bb6a2517780763dd7ed9510b7baba86bc2922fa65744f4d54240fd4c87cf38ef47b8aa6b62ced6d08184a7629c70ae0a305807096143c670d919036557c3cd8e05fb12da582e6f48d8ad5b15bff9d1ec003930e7cea6e4300fe48d9f480f16c3f86438b81a26e8a9b15775aa1e90b6a30e10b00d76d7d3f226c1e002903aa10027e3e771faa739eec95cfeddc38c1dc17e5a18f97ef48f76abd60eabb95681802d29b64c2225a4b83b8b50723485cdb297faadbf94df8fae2ec7952e0f56c27c238c5211d139cf482d98567eac938dfe13c8ee28882fa4567be6f3f9db43ad44551648468b786a33d5bd5118b5077bfaacb4794b17218681b1625807abe3323ced97aab5e661da5e46da9406190bc72b33b28f83632bcfc5959c20ab174a063e8d993ed72a6162b9fa2a4371574d0a514adc5cc7f137db2dcfe225abc72759f75e6975cedecac4871ac9d9bb3f5b9a4faef0883b56993a8fea2a327d8f1c44e3dd1e79279431289e4c455fdee178495584bb8ba4d9a0547a765893361ec6948cb80791c57419c9547c438d11bb8708a806ad4928ed6dcae33b78cc1aaa9fc88d93f69d0b5302058c241a092eef02d0ead322d36168a882b61e1fc1476c2b01f303be1aa0c996ec96a2c8b5d3536d843bcbd56e58147d9aa6084d81bdb60634c727f4f9b3179846f97e1f252309d955161077631b6d35c995517f97545008c162fd9dc45f9808d682ba7489f6fdf9fab93278000000",
  "txid": "ed1f792efcf783c92edb0ee633117e7ada8614e1c742eff3fc12cc959f9fbac4",
  "hash": "2ba95091b8663daaa90d47545cc52fc86024f5b936e34f105d1869d3d3d0c9bc",
  "size": 5085,
  "vsize": 2278,
  "version": 1,
  "locktime": 120,
  "vin": [
    {
      "txid": "760750abff3eedee0b98e597dbe36dc7f0ac065fd76bfe9c11bccdf9470d3c8a",
      "vout": 0,
      "scriptSig": {
        "asm": "",
        "hex": ""
      },
      "txinwitness": [
        "17685cc70809cda4de39596fa7cc1e50b9e2961888956ec2a89cdb8852eb12870e03969aa5a0998f575101137f8787ce9ea67c313dd2b5ec664f2172bd5c8416aa013d5be9e2142fcbd2c8be721fdb79d3d6c1e50629f048f3a6552ef6b7d705c956cecaff8ff6df2a453a69755bab1463c9bd396dd702ae0889605435985310ac5d819d46781c4c271a8717f995617bdff09096c389c096e1ae2cc1cd7dca5b1f409d3846a15d4ca23926f12b79be9cdf32cd6c86a737d60753d331e0def22ee247fca434c489e628a5e825124130d5b88666ea6ee0bba7029eb057d6cc222fb3e3ec7ce54e7d6e29ae856d580e6eb7525d38ecfbfca52571934c277abbf034b38cdd760a9a15b0f00b79ec1a5cddb48378faf24e245ab6544aadba49e1acb0d99d002194f0a3e7f13f75b902d1440d14ed4dd94b702a8013ce62ae0a231291c010e945f75a22a9ad7133d5871e970fb31475814a1536e6b1cd7d879a7a5fb435964be059c4005167c10d9bc3e7815a45ed873f25ba7ef284a8acc1b782e8227f54da29bf6a0fca9bc372312dac71f32cb0718e98edaab1a8385390ba6551a6ed1fba3f05a88acdf970a5b5fcfc85b0be32370c13a247810d39a4289d70a59b4994d9b502971255ae03fe2d673b397ae884f7ade03f9ebd1832c0ccfd1a744bc99bd15698888c611032e72e57b6317f601c5d73e1b0a8093d86709a9d91e95bdce1766b00791e8c6c26e3b4e4e528f18a0ae0552e0cd2415e2a2278a9b79b4b17be3b1dfdd85414f3ae4fae8afbb792383c6fcaf62012369e773cec52ee379dd81c187dfb99c31490290e3dd7437188dd422b27a0970ac2515d005fa97c441e70a4d645cc9216e71d06724af06c39fc8777b1bd93daa8cbc1f69cf11c5a49f12d70b75f9653ff19e4cc20f3285e04a0229a5939cd6d4a3a38e68897a255cf208b87a5320827063f7f506d8156dc85ea9381a5e2b7825c3921254cc156c7f6fad022e7ab256850219bc0f8e951b8330e8e282ec9c0fba61c409045552eed2b545a13c50c15cd8dfccbd2b5505caebdefcda41d1d1c3a74b690fbda186d9afe2d612ad35775b3399269c53f0396ff4c9f00b96972716616d5b1bc0ff8c55e0458f961c0ed3cd2dc5290ffc485c1b45a45818a50bc4978fba5ba27b553bd78a020ed9a2362138adc6144db492109fee9ce3afe74dff63026b347c77e0a2a358f6b0630f9c078816bf7d0394376afab941053dd159070b253dfe5352002803b8b6cdded0849d2038251bedbaaacaeb97d7609312dfd4873122ad6c2681865e7c39ec09d39af1c395348c97d3ddd059e6d0aa64743e29741e779cf38ec9754b6b6a401426ffacd60e03e8b0f883b9ae0609263ee10afbe0eb351a091247cc00f3adfda15dd60353a4767cdd2d8a1c9c8acf62602942ae185f62ad89fb86410d99665cec1eaf54c76068a348efba14f25ba0d0ca730d98c200dbb472ddbb7c431489f38568c70e25d514b1e86ac447046e3867af78ce8d8f4d8fe3763104cafc2258367f33e81fa8ffdccde40420682b919c2ca374318e594a2039d96d7aa52fed91fd1a761b54fb8cb9d010c9792aecb562f826b39c54c92027ca3dfd6a0ef0b99109f5b042adeec6e90d23ef71dc97e2b22fd4a4cc0e02214cf5d29ae2ddd44fba056f763bee8756a11c7b69200ef25e03d46268c4ae237f72b200ff02019343d3e932afde218f311c8b69fd60ff111ab75d7b34e447225268665d7520a0af52bb86f24dba774178c5f3cfd35e53bbac23998fe278a2f340bea4c2b8412a9ad62c6889a0daf95ee1600c5b9abefd9100df339edabdd034398a56a2d4809905bfc7ff323452fcd3ccb6c26eb7c15bf416662fcb656afe8d22d39331b6c7c9a630d9a13f1eb4650fa53181cd91e6a1adbb35d8de353854ae3670d2714575491ff0d91b83041756e8d6f35896078efaaabbc801bf677af603a7eca2098085e06592391255106ec4cc7b70b2e7cf24116c076003ef3c173e543261a96b8a06d1bfdc037d9beca490bf6c8c7a8f60dabe44dddcec3f8827179370227198baeb7b56abcca4bc521afdc05f44b2ee2e5cccde3fccf707712e6c807c68e27d8230e01976f5b7344087150492f0c1b54caf480009a6aea1a8c4b6f3ef384be5258949eb42aabace4031a40d625866109a5a28d783937de40f0cd272a491012f82eb061e579be23b00bd841f90430a59e0e097f5a8fd792df83e3e7b4649546a95e09ce6156aed5a70f32d6c6b6287981d18abfb56385eb7b9b9bec4a436070dae252d6ab2e18e8681cae0e8836dd7d1ecd3c96c595fc6fc7322d8011d9b2b9aea7c9ce155251045d96b8cede3f8b08e76dc6fa87137b3f12e0871e4a2bdf2b6f41f1a91a069efd637e2fb3d793445658a0694aab158b725add50a8eb9ac1513c000d06c9817ca0d40e6a87683cce7840616f7a5a1a6be2d479f604ddc61aded52603466414201fb4f214fb2b31860daee7c03d405adc6054168f541a73152680e707c1a3ac3f6e7b882eeaa9f40d02fec8c2e0a09d6206382161a7a932f9b76035c1bf59b4658d6174c89c42fefb68b1d60e9f4fd2252605f54fb7a3593fa2d65806ff66f20891f99dfe19edefd4c55bbe4fdde939ebce54483c18cd3a671f177c461594f57c9a22fe42256ae66ced651ee03a5e7e66d7961859c35a2b078c5340f9f410c928ba5abab6735e7e7d69650945730db2010f5982d02d3e14b44ac86ff49ec756c194061fcb9fcd43ebcf5e607073ce2b086c43a1c1761790505647541f4010b62d8015134501dc275e88b61e8d54fc9d1dc5d7f03642c0efeb9b2672e849185a36beb50a32c6e6ff456ac8d4457b209ef81a209471ada91487a75bdd82fd1671117112f1ad625ef82ae2992f880414ff388d19733be16ae13cad5898e99832000b89c06406cd2a5064ad0b0afc48b893d609dc07f79962bb5d16c95440c3e394ca51b74042df68abce121cf43e0b3a27100c099013336e0666826d20408e097c5ebc259b846ec43e12561bbf7f71ce3555654a4407125ce7d1de701fa04e6d64b8d0bec433ce6e9acb4f5beb6d8bd2705d449a615a6c47d242cf141b4bcd89aeec3375f0a5439d33d238971052b7b473de4f8ee38ecb1437de7226c98cb4cd1601436513edc9b43e2efef8b97f87e6602073ac73c167ae9d58773f077e32a90073da0e8a3c0c344c07e3101b1891810dca2773669a2a74cb092175e82a59a0ca75ab4af9f92aef186c5f452814cd3fed32001b6e7f5d113fb3ff25345e59639cb523293e494d7071a4a6b5b7c0cad3daf7fafc00023c525e76979fbfd4e6eef1081049548b96a2a8aae202545f61677479939db7bbc2c7d2d3d6d9f2f40000000000000000000000000000000000000000121f293c01",
        "00e308f80a4c7cd2dc8ff4325ebac165e1e9a0a7792c1dfc966699b0b5b3ddc0596c74066e5eaf3083acef14533299f1757d6af915774da1fb23de1720a3b2fe8249a4076551d072d3bba91cbca90f7dfcea80b519cf7f1650a110e69718dcb23a18389d2c570f3c2b5769774cdacf6957bf49ca3c2ca88329d027781dc1fab1a1116a87ccd622d338eff27de9809e727c9a208ec32f80a6141d8815206c988911a2f0fabf5ed0a33ff94db8d171a7ec60a9179d85a22796663753baa530a2b8798093d51989d30b91ca6c9cac8868138fcd1b2f2987f1faf6bc4cd10998dbab2f2b7c04168a427c02b58b39c7c4ed921caf7666c19843b74d57170ca26331fa6c081c394a1ae32e0c29fe53be9c61867c18cad1be36c1ff304eb5e8fd51b2bcd9b965c21c3e24f62701e9033422a353a472c7775241bf701fa16dd358b9e010cff052fdd9a2aa8b94e36af7f7d5c2bae6ba346a8404392c118fad9cb35e9d53bf9f51aab517c24d9260e855bdded5821891873afa80eb3e7a87e723e275d7fecbf1b66bff60222da27718fa727c2cfe7e22e73cd007613ca682d8c9898c6c556748a4825fe5af6a56742986da5d4152dcbdf2153ff13b36a098d99de11230a20d8c6844ae5ab2bd52f0d8199a906b31a24a9e00f5f2e0961c619b65991f71eedbd0c0c7e5c37074f4cf157f47fc091cb5f971da06179bb8fddfe0f3c0880b3a1bab478e2e9342d1b745d3be3123b6f3737e19d413106d60a96c580be3bdecad3212e2880456053b20674a51c894f1dcef0430358d09f615a7499ea49e254ddc20ba78d524306e5b8597d2b979ef1bd143d02cfd49b6d3384e91d920f1452cd933bbad4a935d2a3625fc7db9efa6bce553dae1c945cffdc0bde0489f1b045abe1ad0ba2ee27842ac1a4f063f7bb5433c48f2ae2a078d534551ab7d3c84a6628e73d7cb8ce5b82460045b13c17fac93e1eab864985f56348e47a50daac1b706debe08e8fe2399e5ae3fd3312443ac7d635f94e76b7ee3ad976a2ff5eb929ee148f2d7bf5e0e0523dc681d126cf310923bcb071ad0c3398ddcc5d9e243b0e68f1e7425e46db21f569088716f48c3c4a2c7bb6a2517780763dd7ed9510b7baba86bc2922fa65744f4d54240fd4c87cf38ef47b8aa6b62ced6d08184a7629c70ae0a305807096143c670d919036557c3cd8e05fb12da582e6f48d8ad5b15bff9d1ec003930e7cea6e4300fe48d9f480f16c3f86438b81a26e8a9b15775aa1e90b6a30e10b00d76d7d3f226c1e002903aa10027e3e771faa739eec95cfeddc38c1dc17e5a18f97ef48f76abd60eabb95681802d29b64c2225a4b83b8b50723485cdb297faadbf94df8fae2ec7952e0f56c27c238c5211d139cf482d98567eac938dfe13c8ee28882fa4567be6f3f9db43ad44551648468b786a33d5bd5118b5077bfaacb4794b17218681b1625807abe3323ced97aab5e661da5e46da9406190bc72b33b28f83632bcfc5959c20ab174a063e8d993ed72a6162b9fa2a4371574d0a514adc5cc7f137db2dcfe225abc72759f75e6975cedecac4871ac9d9bb3f5b9a4faef0883b56993a8fea2a327d8f1c44e3dd1e79279431289e4c455fdee178495584bb8ba4d9a0547a765893361ec6948cb80791c57419c9547c438d11bb8708a806ad4928ed6dcae33b78cc1aaa9fc88d93f69d0b5302058c241a092eef02d0ead322d36168a882b61e1fc1476c2b01f303be1aa0c996ec96a2c8b5d3536d843bcbd56e58147d9aa6084d81bdb60634c727f4f9b3179846f97e1f252309d955161077631b6d35c995517f97545008c162fd9dc45f9808d682ba7489f6fdf9fab932"
      ],
      "sequence": 4294967294
    }
  ],
  "vout": [
    {
      "value": 499977.6282,
      "n": 0,
      "scriptPubKey": {
        "asm": "1 15f9bb6a97b62c1e799dadbf4d6ef90e87f1a714efe1ffb86f230916203d4151",
        "hex": "512015f9bb6a97b62c1e799dadbf4d6ef90e87f1a714efe1ffb86f230916203d4151",
        "reqSigs": 1,
        "type": "witness_v1_scripthash",
        "addresses": [
          "3QJmnh"
        ]
      }
    },
    {
      "value": 1.0,
      "n": 1,
      "scriptPubKey": {
        "asm": "OP_RETURN cd1abd36adc967e15fde6b98cf7d107393031a4d2dc706f9ea36399d3dc80151 1c5a6d45f2c2509d6171e093d01bad76345b40c75c663c271f723e7e31d14a203c7a4d65d2e270bd4151c0b3f03b8d56147b60e77c461c073f521e5e11f16a005c1a2d05b28210dd2131a0d3905bed36741b00871c267c675f327e3e71910a607c3a0d2592a230fd011180f3b07bcd16543b20a73c065c477f125e1e51b12a409cdaedc57242d01de1f16013509b2df6b4dbc047dce6bca79ff2befeb151caa0bcfacde55262f03dc1d1403370bb0dd694fbe067fcc69c87bfd29ede9171ea80dc9aad853202905da1b1205310db6db6f49b80079ca6fce7dfb2febef1118ae0fcba8da51222b07d8191007330fb4d96d4bba027bc86dcc7ff92de9ed131aac01c5a6d45f2c2509d6171e093d01bad76345b40c75c663c271f723e7e31d14a203c7a4d65d2e270bd4151c0b3f03b8d56147b60e77c461c073f521e5e11f16a005c1a2d05b28210dd2131a0d3905bed36741b00871c267c675f327e3e71910a607c3a0d2592a230fd011180f3b07bcd16543b20a73c065c477f125e1e51b12a409cdaedc57242d01de1f16013509b2df6b4dbc047dce6bca79ff2befeb151caa0bcfacde55262f03dc1d1403370bb0dd694fbe067fcc69c87bfd29ede9171ea80dc9aad853202905da1b1205310db6db6f49b80079ca6fce7dfb2febef1118ae0fcba8da51222b07d8191007330fb4d96d4bba027bc86dcc7ff92de9ed131aac01c5a6d45f2c2509d6171e093d01bad76345b40c75c663c271f723e7e31d14a203c7a4d65d2e270bd4151c0b3f03b8d56147b60e77c461c073f521e5e11f16a005c1a2d05b28210dd2131a0d3905bed36741b00871c267c675f327e3e71910a607c3a0d2592a230fd011180f3b07bcd16543b20a73c065c477f125e1e51b12a409cdaedc57242d01de1f16013509b2df6b4dbc047dce6bca79ff2befeb151caa0bcfacde55262f03dc1d1403370bb0dd694fbe067fcc69c87bfd29ede9171ea80dc9aad853202905da1b1205310db6db6f49b80079ca6fce7dfb2febef1118ae0fcba8da51222b07d8191007330fb4d96d4bba027bc86dcc7ff92de9ed131aac01c5a6d45f2c2509d6171e093d01bad76345b40c75c663c271f723e7e31d14a203c7a4d65d2e270bd4151c0b3f03b8d56147b60e77c461c073f521e5e11f16a005c1a2d05b28210dd2131a0d3905bed36741b00871c267c675f327e3e71910a607c3a0d2592a230fd011180f3b07bcd16543b20a73c065c477f125e1e51b12a409cdaedc57242d01de1f16013509b2df6b4dbc047dce6bca79ff2befeb151caa0bcfacde55262f03dc1d1403370bb0dd694fbe067fcc69c87bfd29ede9171ea80dc9aad853202905da1b1205310db6db6f49b80079ca6fce7dfb2febef1118ae0fcba8da51222b07d8191007330fb4d96d4bba027bc86dcc7ff92de9ed131aac01c5a6d45f2c2509d6171e093d01bad76345b40c75c663c271f723e7e31d14a203c7a4d65d2e270bd4151c0b3f03b8d56147b60e77c461c073f521e5e11f16a005c1a2d05b28210dd2131a0d3905bed36741b00871c267c675f327e3e71910a607c3a0d2592a230fd011180f3b07bcd16543b20a73c065c477f125e1e51b12a409cdaedc57242d01de1f16013509b2df64217c6bf3b2f5bb013a349cf627a5cf6bb526c607fb41a16ae990c16624284b4",
        "hex": "6a20cd1abd36adc967e15fde6b98cf7d107393031a4d2dc706f9ea36399d3dc801514db0041c5a6d45f2c2509d6171e093d01bad76345b40c75c663c271f723e7e31d14a203c7a4d65d2e270bd4151c0b3f03b8d56147b60e77c461c073f521e5e11f16a005c1a2d05b28210dd2131a0d3905bed36741b00871c267c675f327e3e71910a607c3a0d2592a230fd011180f3b07bcd16543b20a73c065c477f125e1e51b12a409cdaedc57242d01de1f16013509b2df6b4dbc047dce6bca79ff2befeb151caa0bcfacde55262f03dc1d1403370bb0dd694fbe067fcc69c87bfd29ede9171ea80dc9aad853202905da1b1205310db6db6f49b80079ca6fce7dfb2febef1118ae0fcba8da51222b07d8191007330fb4d96d4bba027bc86dcc7ff92de9ed131aac01c5a6d45f2c2509d6171e093d01bad76345b40c75c663c271f723e7e31d14a203c7a4d65d2e270bd4151c0b3f03b8d56147b60e77c461c073f521e5e11f16a005c1a2d05b28210dd2131a0d3905bed36741b00871c267c675f327e3e71910a607c3a0d2592a230fd011180f3b07bcd16543b20a73c065c477f125e1e51b12a409cdaedc57242d01de1f16013509b2df6b4dbc047dce6bca79ff2befeb151caa0bcfacde55262f03dc1d1403370bb0dd694fbe067fcc69c87bfd29ede9171ea80dc9aad853202905da1b1205310db6db6f49b80079ca6fce7dfb2febef1118ae0fcba8da51222b07d8191007330fb4d96d4bba027bc86dcc7ff92de9ed131aac01c5a6d45f2c2509d6171e093d01bad76345b40c75c663c271f723e7e31d14a203c7a4d65d2e270bd4151c0b3f03b8d56147b60e77c461c073f521e5e11f16a005c1a2d05b28210dd2131a0d3905bed36741b00871c267c675f327e3e71910a607c3a0d2592a230fd011180f3b07bcd16543b20a73c065c477f125e1e51b12a409cdaedc57242d01de1f16013509b2df6b4dbc047dce6bca79ff2befeb151caa0bcfacde55262f03dc1d1403370bb0dd694fbe067fcc69c87bfd29ede9171ea80dc9aad853202905da1b1205310db6db6f49b80079ca6fce7dfb2febef1118ae0fcba8da51222b07d8191007330fb4d96d4bba027bc86dcc7ff92de9ed131aac01c5a6d45f2c2509d6171e093d01bad76345b40c75c663c271f723e7e31d14a203c7a4d65d2e270bd4151c0b3f03b8d56147b60e77c461c073f521e5e11f16a005c1a2d05b28210dd2131a0d3905bed36741b00871c267c675f327e3e71910a607c3a0d2592a230fd011180f3b07bcd16543b20a73c065c477f125e1e51b12a409cdaedc57242d01de1f16013509b2df6b4dbc047dce6bca79ff2befeb151caa0bcfacde55262f03dc1d1403370bb0dd694fbe067fcc69c87bfd29ede9171ea80dc9aad853202905da1b1205310db6db6f49b80079ca6fce7dfb2febef1118ae0fcba8da51222b07d8191007330fb4d96d4bba027bc86dcc7ff92de9ed131aac01c5a6d45f2c2509d6171e093d01bad76345b40c75c663c271f723e7e31d14a203c7a4d65d2e270bd4151c0b3f03b8d56147b60e77c461c073f521e5e11f16a005c1a2d05b28210dd2131a0d3905bed36741b00871c267c675f327e3e71910a607c3a0d2592a230fd011180f3b07bcd16543b20a73c065c477f125e1e51b12a409cdaedc57242d01de1f16013509b2df64217c6bf3b2f5bb013a349cf627a5cf6bb526c607fb41a16ae990c16624284b4",
        "type": "nulldata"
      }
    }
  ],
  "blockhash": "0125d69e6984563ac74cb1b0b8601a67b424e71230e7918fa710584dbb11162a",
  "confirmations": 1,
  "time": 1764180090,
  "blocktime": 1764180090
}