{
  "hex": "010000000001010ed96ab5cc00c40d7318fba1065fcfc5f34f883f922944ff4130ea670211f1e30000000000feffffff0200e1f50500000000fdd5046a202910befae8b35b09af342d530b1685d0dfefa7fd2f0ba96603c3828b7c9403404db004e2080abae387de02004d71b5e1f918a62c8f130601c4db5aa7a16b26a1c6609cc2282a9ac3a7fe22206d5195c1d938860caf332621e4fb7a87814b0681e640bca2484afaa3c79e42400d31f5a1b958e66ccf534641849b1ae7e12b66e18620dc82686ada83e7be62602d11d5819978c64cef736661a4bb3ac7c10b46c1a600fc62888a3a63075e8280cdf13561799826ac0f938681445bda2721eba62146e01c42a8aa1a43277ea2a0edd1154159b8068c2fb3a6a1647bfa0701cb860166c03c22c8ca7a23471ec2c08db1752139d866ec4fd3c6c1041b9a6761abe66106a05c02e8ea5a03673ee2e0ad91550119f846cc6ff3e6e1243bba47418bc64126807ce2080abae387de02004d71b5e1f918a62c8f130601c4db5aa7a16b26a1c6609cc2282a9ac3a7fe22206d5195c1d938860caf332621e4fb7a87814b0681e640bca2484afaa3c79e42400d31f5a1b958e66ccf534641849b1ae7e12b66e18620dc82686ada83e7be62602d11d5819978c64cef736661a4bb3ac7c10b46c1a600fc62888a3a63075e8280cdf13561799826ac0f938681445bda2721eba62146e01c42a8aa1a43277ea2a0edd1154159b8068c2fb3a6a1647bfa0701cb860166c03c22c8ca7a23471ec2c08db1752139d866ec4fd3c6c1041b9a6761abe66106a05c02e8ea5a03673ee2e0ad91550119f846cc6ff3e6e1243bba47418bc64126807ce2080abae387de02004d71b5e1f918a62c8f130601c4db5aa7a16b26a1c6609cc2282a9ac3a7fe22206d5195c1d938860caf332621e4fb7a87814b0681e640bca2484afaa3c79e42400d31f5a1b958e66ccf534641849b1ae7e12b66e18620dc82686ada83e7be62602d11d5819978c64cef736661a4bb3ac7c10b46c1a600fc62888a3a63075e8280cdf13561799826ac0f938681445bda2721eba62146e01c42a8aa1a43277ea2a0edd1154159b8068c2fb3a6a1647bfa0701cb860166c03c22c8ca7a23471ec2c08db1752139d866ec4fd3c6c1041b9a6761abe66106a05c02e8ea5a03673ee2e0ad91550119f846cc6ff3e6e1243bba47418bc64126807ce2080abae387de02004d71b5e1f918a62c8f130601c4db5aa7a16b26a1c6609cc2282a9ac3a7fe22206d5195c1d938860caf332621e4fb7a87814b0681e640bca2484afaa3c79e42400d31f5a1b958e66ccf534641849b1ae7e12b66e18620dc82686ada83e7be62602d11d5819978c64cef736661a4bb3ac7c10b46c1a600fc62888a3a63075e8280cdf13561799826ac0f938681445bda2721eba62146e01c42a8aa1a43277ea2a0edd1154159b8068c2fb3a6a1647bfa0701cb860166c03c22c8ca7a23471ec2c08db1752139d866ec4fd3c6c1041b9a6761abe66106a05c02e8ea5a03673ee2e0ad91550119f846cc6ff3e6e1243bba47418bc64126807ce2080abae387de02004d71b5e1f918a62c8f130601c4db5aa7a16b26a1c6609cc2282a9ac3a7fe22206d5195c1d938860caf332621e4fb7a87814b0681e640bca2484afaa3c79e42400d31f5a1b958e66ccf534641849b1ae7e12b66e18620dc82686ada83e7be62602d11d5819978c64cef736661a4bb3ac7c10b46c1a600fc62888a3a63075e8280cdf13561799826ef608d9793a1cac9866b77ee93990398ac0b3fb0b45bc3b63dbbec1e45d0a35fb0cd76d8782d0000225120ca0c92bbb2aef91ebeaf4aecf23bd87fbc2c94d5efac306170cdf3ef5e0ae61902fd75090b031b580daa9366abc7a2629599446f06fa45b92b0d7737330b1f2b920968b8a06eff6e2a72e5d6da8ddfb88994d5ef087ca1bdda41df0ce5575ae1cdff3be8a5194b336e694aac518068ba1053583499a16f2b6f3077478add3032f3c97606888072fe6978db58ad0f6262bfa147f023aaca723db6ba2d9483a0648fd5ddb648be0e1d4164bd787cb10470cfcf36d6b0d28af8a7562d6ab803bea207a0db1e80ca18b3fe0596be7177d242879526e78350a563ae90a2ec47898f8af14c7abc04e15b7fb0fffe96c80eff3529cfb2223ba53c8a86c73e1286913ce3fda33c45b3a118b2db09bdd6c81085c677e442d7063159558215ad24cdc6375960acb54f56056f0d3f00dd183140bb2a4a85303274d6e6e4b739d0bded8fab9d9c5454b60e60c61b9091a4c07221e0893685b3ae8cf2d0ff37790c9d484748440d5fc291b0ccb2e685036896aee95f56002a637b223849afa25059a8bbba7824758ff1db799e54c251ac9ac8a3bad5edddce9d13dd6353d2b9b2682f4ac9cb08da37fbc1d0a758750526422e733c2217b6672dc10e82b35258374764d5caa74bc18fdbcdedb7d46a4ae6d69cab0cf7a5135cef14b05eb26ad1e5a8c3bbe1e715c84602ccea2919e85e36ba1b8415c76c850ece5fe51a493adfdb653aaa636a21b3e4f57da4dbacba44a9a97c73fccd5814b85431e1fdc775ae0e5576021010d301933fbc84d4d17f40a72b4f19185234d8c4b727e6bfd7452e22f153c1697cec07e23b1fe0e873615374fa9cbb0a2f2ea6ac5ebbfc834c46ca92e0a46cfd96988f42f85e8ae60445e4f305c4f64ea5b8deb3df3ee8af67b8d2fa0ff682ac231400a374e065326333d5882240231c9231feae3ed47ee54d1d0a9c260f092afdc8c14098328880245a4e25bf6e3cd53fa57784144b1f2f712e938be590618ca6b63f60f21bed5741eaa12b58cbe66f69facfbbb0488a826cc0cb9953316e3134b55453e843019d013aaf8692f789bb9e7151d701a1783a6c68025c2d038d6f771d57a964c6662a4e02c8e4991c3c256bcec6d4bee053896e886870252cd927f5ad44686ac1b48da7e01366b26e620c6714e947e1b63c853a5359ac41974a78d402ecd98df7bacc19ee3b5a4a3030e63b00f9e1adc2d1f08fa4395cf564ef5d205deff82bf491114f9ff51b12c4572bbf2a2b2a22ac00796be6fa004c12eadfccf65f5296eb20fac210d624dca8e7fed94897605b2de225dcea46435073be6a172e154c3669adcb5b2201635cf26faffc7d1326c1be8f8dc6fbd9f99b12e98e06036a04d2aec60ef1d4c2824fb15cd92916d000a03e10301f69b4240b3d2f08c5ece88b14b6c938e0ce22dab61628ab09e2cc5dfcc9857a66a6f53aa5b4e9dcbb4b1bfe68f959cfdc7a8f4966fcd9e0adfd2c1945ed1e8ec6867896c8068e8ea2d64a5546884afc4acdf13870d4d788c9e12d2c23bfe117d480eb8545d0056c4c8a6b510be0f2095547861141aceccb177cfb2e4abefc6c91d712f155450b8d8ac88afd91c6dc45f888d4ea119b7348ea02a4558010f82ffcf974abc5e88fb4ee5b20a570e39d07b71fc7eb447e19cdd01ef8bc410d6cde7822c364f60cb498c48a78672228fcc9cae4b09fb25a27e867d9005f7572ecc11b666a0627cf9891f5d87f3c9ea9a50995bc5a8cc75669508cebd772b7c152b9625c3ad420165cbfb66a08f12cc0961bce7a9cc119013fa930459f6ce91392a7352f9bee4cb4e22e3ca9945025f9c08547d35926f96fa5798b4e7d7e302559e2d42c5aed9d59c4a4db2604068395e846cbbb73dab05d53e5a6b8ccd07f3759f0c480d82e9992403ae15592a11b6569cb5d4fffd40c1d790ad1bb29d8d5c53c18869cc4d7477b88c96de099b3f9fb03d9dff3058cf4a6f6c88b6aeeeb47cb05cb5645939b22cd83c8308ac2d51b2d7ecd8cb4ca47b771a3f8ffcc6b5edfd45bf8341e08cab9e48660ce33ca891055bf7d3fa227c1a342a8320b5ee315495c62cfbddc6ec335c1776c8dd6f7badad5f6f47c6f2d7005021068f88fc276f08b278da359f16543adfaa8c031510f50b5f19d47462a9778586851383fa8af0361e942800ddfdbfacc4555199145388840dca9bb474986c323232b69e63bdeec3dcc3dce807fc4e002e6afeb3f031efebe21e397fad9344d951994c9dfd3b9cf20ade1141c3160cfaec48ba61976ff96d41aa6fb4c2c476d2fb42677bddf19c42e0bd35b2b2239c687475f069d1e05bca6c61fd8e89adc2150772402fc6848096d04f4a6c05af8c5199809f3574a9ef5ba9a5c6ba6f27986f86baefccf66ef931c4e914a2578b761a8e44f1f6f130d6e6ac154bc2963e166dc1ce188fb0cfc9473756def71f19ecec3f219f8f6a09def7df1df887fe72f13a64baa54f011035aa3edcf6ec730a27b18900c75acadecbffe2fd959814fd8cb99ad0b0b25c5151a8753cf69f9641282aa39455b8e62962a290da982d92c796a34b194a6bb1e10a094668a50ccb7f07f5c151613e5403ac3c5a8cffa6305dd55546e52efca35cd3b24504c57a548c7dff48772e67f8dd0f698931e2214b2ec09f53a2355ef31ff66c30d694eec3b30f2d86d32b41cd5f93db55537334147185319933a8200f81637ee4057489c91bfffe939ce38b4a1d64ebae963221dc705eea9ac30badb7b409cbbe24017f1f3fdecd551fd1bb18c3773121d683c6620f5e62595b0e4fa65739231cee6cb21ddbdf3fe4c70fc7a6cbe1e633d8da3b5ec481404e44192754fc9f7057a25c5b1fc9c698e0d7f70d069b0ccca6b946a4512b6a9043426c725f5b7f49f37244f5d9dc0e365ae928d19a315ec2d83178a61835d0f5eb452c77caef4ec8fd81bc5af5dadfa39b155c6d198cee1fb1d0776ce4d293b9c76161ea5a1dded43b56c048771ec1604f9778f2f3040bcc3ea684d62ae9a28892b6f31ced3c5beef4f112f64d7ae47e1460ea6cdc40ec4255e6c6ef7979e41a5f74237b1cb3c3e1893cc3a29fbabf33a2a5961f393389aae60a33602fb00860722f6033911b3db887149b9c849583b6cca727a33a359eb133170dd41d395f29b05b17096135abb7160bcc40d3841b7c25cae281e6c465cfd0985550d4ec9ab84016c9726034687aaa1f7724db21cceedd4876609b0ba1a25f167d2d0902a5c5d1ef426f910c6025b164a8179e5f390ce984d531517e59141742c8e14e6e8e95ba179f3d748d7003cc2205d1519bff42737b2e50e2dea1c2f9b757240e569def9fb0156c1fdb29b4e42041b88295f94edad39b423652f8213035c8c98c6d7ec070f1e272b494e51568d9fc1cdd3d4dce1080d171d28335d61696e73768990929dafb6bec3e90c2b31326c6f8286aab3bcc2c6e1eaf10000000000000000000000000000000000000007182d3d01fd2105008678302d2f836e50d92ad4a61a85d4c5334c953d5f7b1a8dccf211dc3b4495ae912a82de69245987cfd48d482f3b05469e706e6a1b73f00d91e93d082c136be9151c41affb3bbc60890d4402aa65bf709425f998f00d6f1176a2bd105db0837fef95545853fd05fdc3e8f58a47241961cb5558df36082e1413bd002e3f5a439d20e48c7fcbae98eba25a390628ab3ab60a9851b07ebff615d92445da8182083ecb46353dec7d71f23967077177f3b4fa828d0df9b9f49461aa95dd926165a1e7161e445294be821615e1ee9da3e0cfed8f7048d8ea67627645f54ca59d636b71f6a34fae04eb407e73737d96656721a9eaa72a7c30fc619d4b3ed81a9d2a42e26475136e333f6a87ad198d13fc73abe5579ec3499e15f6b132dd8dfa2b44714613ed97ff76b86e11858d48241d5c98bbd127e8cdfc6fadf597505ebebbe6813ca1aef2eea38440bf1041f3e965230e5a21f0b5deab4bb6b9771c075ffdc7df23c6e0695573137d6a0925fba4ed305861903c762e50d301155473b69b542eaa8333f0d888f1146d7ed5ed22bf4eeaaa6609d22fe4de914033ffb08c43ab05e68aa1ec5c2547151bfad6f6bb25bbc8ce5e05f65a0169932bdc58fc346a8466b8aa196851a314022911d0ec39fa304b22e40dac58601d18ba8309850aa1bd6cdbe3dae6986b9a3981d1f303dedfbe8d98a4a206e4464a6c3ad68c4ee62a07b2542c3fa5d118b8a38de5a509924793d522bcf87e2b68c5965656717cb0954086af629545f131ed2247c8c1ee0d6387195f86e40047580cd6488ae6cc1a8aa36dba28e81e8033dc41e94871c23dfc4e5f3c8e79f797d50c2a01493fa2d6f99710128b02ac0a91087f85b31e25cf2ecbdf37a3d941199a048ff5fed59a708df150679570f11f4fa8e4f934e3dd384a5aff5d963d8eaadca5862a761060cf648802928302a9ee5cb3914c3ecfb2bc94c68e9ba0716c23ed1b4fe5b2158ae5cba676f66635e441b0d2b1b0d61404da659f22757aeb20d2a38599e10f1fb639ac16752a8639d3a0ada02c85709420088266fff66213f413345f7130c54dacefb35cb0ee2065e12edef468acd1d5af73cf2b050b237d4c4fe9fb299119e7665f499b0a1eba6f7feb29c94fc2c2a1db62be313c7e25b8d830baf2c4d3831050adb49dcd0920d48db86390d72148614c39c79384c804cbee94b70b7bf1b95176edbe1441b5552a7aa7d4dfb394c90b04a8648e29f75269a03a9dbfad0b94f8c002f55e54878c26f1453684de90fa8f19912dc06d6648ae5ea99be38a02e35ad8ab669d967a147cfe22d86e28a4b45cea0a77e61238ff6cc824a37a1d215d74d80c06b54cf0890a17de780efa2cd496b10261885026fafcfb3661393fa6b9e6634b0629e58db6b5928f4c17030ffe086915c752dc3db94990720fbb6206721eadb5f9f97978a33f0fb03b59ac2caaa2df7d710ef42d2cd9ab91907d529303184fc7143b751042a7e52cae8ba821f1ed753ac4673871c786f9c8dc79f262f52f393ddcb91205811ae18741a9255eaf8aa983971650a1b33c9e0c57fc0fd9ba84960050d54269da92b1b123d88f5967a3086e5ca1fbd67b02a0f9a1901e9c0691c502e461c821c4deeec1a00063762db826c02e39afb8c6478553b2a4b0720b03615daf29af9bdb1b629cc9511e9daba84ddadb23a96f2f05698a8d64ba86e77cafc89dc9c18a84d15c2d57a249196eed692ae1dc7a01eaaaf035a3b6886522a329baf28014e785c5963cbd6ed5f2d7d24c9fb0a256153dcea8828819a1adc7f5a8b71e52f53a11868a7ee8f00d2981fb60bba625c421cb4717f74c05fec284d52bb992e568866c7f000000",
  "txid": "e877dc4117e90b1505ca85126f33e85f59c13e365575decba7b0e08999dc3676",
  "hash": "3646ef3ac74a0b8a5ce611a5eea635bba62f0215d1d9b1766246917b75018404",
  "size": 5085,
  "vsize": 2278,
  "version": 1,
  "locktime": 127,
  "vin": [
    {
      "txid": "e3f1110267ea3041ff4429923f884ff3c5cf5f06a1fb18730dc400ccb56ad90e",
      "vout": 0,
      "scriptSig": {
        "asm": "",
        "hex": ""
      },
      "txinwitness": [
        "0b031b580daa9366abc7a2629599446f06fa45b92b0d7737330b1f2b920968b8a06eff6e2a72e5d6da8ddfb88994d5ef087ca1bdda41df0ce5575ae1cdff3be8a5194b336e694aac518068ba1053583499a16f2b6f3077478add3032f3c97606888072fe6978db58ad0f6262bfa147f023aaca723db6ba2d9483a0648fd5ddb648be0e1d4164bd787cb10470cfcf36d6b0d28af8a7562d6ab803bea207a0db1e80ca18b3fe0596be7177d242879526e78350a563ae90a2ec47898f8af14c7abc04e15b7fb0fffe96c80eff3529cfb2223ba53c8a86c73e1286913ce3fda33c45b3a118b2db09bdd6c81085c677e442d7063159558215ad24cdc6375960acb54f56056f0d3f00dd183140bb2a4a85303274d6e6e4b739d0bded8fab9d9c5454b60e60c61b9091a4c07221e0893685b3ae8cf2d0ff37790c9d484748440d5fc291b0ccb2e685036896aee95f56002a637b223849afa25059a8bbba7824758ff1db799e54c251ac9ac8a3bad5edddce9d13dd6353d2b9b2682f4ac9cb08da37fbc1d0a758750526422e733c2217b6672dc10e82b35258374764d5caa74bc18fdbcdedb7d46a4ae6d69cab0cf7a5135cef14b05eb26ad1e5a8c3bbe1e715c84602ccea2919e85e36ba1b8415c76c850ece5fe51a493adfdb653aaa636a21b3e4f57da4dbacba44a9a97c73fccd5814b85431e1fdc775ae0e5576021010d301933fbc84d4d17f40a72b4f19185234d8c4b727e6bfd7452e22f153c1697cec07e23b1fe0e873615374fa9cbb0a2f2ea6ac5ebbfc834c46ca92e0a46cfd96988f42f85e8ae60445e4f305c4f64ea5b8deb3df3ee8af67b8d2fa0ff682ac231400a374e065326333d5882240231c9231feae3ed47ee54d1d0a9c260f092afdc8c14098328880245a4e25bf6e3cd53fa57784144b1f2f712e938be590618ca6b63f60f21bed5741eaa12b58cbe66f69facfbbb0488a826cc0cb9953316e3134b55453e843019d013aaf8692f789bb9e7151d701a1783a6c68025c2d038d6f771d57a964c6662a4e02c8e4991c3c256bcec6d4bee053896e886870252cd927f5ad44686ac1b48da7e01366b26e620c6714e947e1b63c853a5359ac41974a78d402ecd98df7bacc19ee3b5a4a3030e63b00f9e1adc2d1f08fa4395cf564ef5d205deff82bf491114f9ff51b12c4572bbf2a2b2a22ac00796be6fa004c12eadfccf65f5296eb20fac210d624dca8e7fed94897605b2de225dcea46435073be6a172e154c3669adcb5b2201635cf26faffc7d1326c1be8f8dc6fbd9f99b12e98e06036a04d2aec60ef1d4c2824fb15cd92916d000a03e10301f69b4240b3d2f08c5ece88b14b6c938e0ce22dab61628ab09e2cc5dfcc9857a66a6f53aa5b4e9dcbb4b1bfe68f959cfdc7a8f4966fcd9e0adfd2c1945ed1e8ec6867896c8068e8ea2d64a5546884afc4acdf13870d4d788c9e12d2c23bfe117d480eb8545d0056c4c8a6b510be0f2095547861141aceccb177cfb2e4abefc6c91d712f155450b8d8ac88afd91c6dc45f888d4ea119b7348ea02a4558010f82ffcf974abc5e88fb4ee5b20a570e39d07b71fc7eb447e19cdd01ef8bc410d6cde7822c364f60cb498c48a78672228fcc9cae4b09fb25a27e867d9005f7572ecc11b666a0627cf9891f5d87f3c9ea9a50995bc5a8cc75669508cebd772b7c152b9625c3ad420165cbfb66a08f12cc0961bce7a9cc119013fa930459f6ce91392a7352f9bee4cb4e22e3ca9945025f9c08547d35926f96fa5798b4e7d7e302559e2d42c5aed9d59c4a4db2604068395e846cbbb73dab05d53e5a6b8ccd07f3759f0c480d82e9992403ae15592a11b6569cb5d4fffd40c1d790ad1bb29d8d5c53c18869cc4d7477b88c96de099b3f9fb03d9dff3058cf4a6f6c88b6aeeeb47cb05cb5645939b22cd83c8308ac2d51b2d7ecd8cb4ca47b771a3f8ffcc6b5edfd45bf8341e08cab9e48660ce33ca891055bf7d3fa227c1a342a8320b5ee315495c62cfbddc6ec335c1776c8dd6f7badad5f6f47c6f2d7005021068f88fc276f08b278da359f16543adfaa8c031510f50b5f19d47462a9778586851383fa8af0361e942800ddfdbfacc4555199145388840dca9bb474986c323232b69e63bdeec3dcc3dce807fc4e002e6afeb3f031efebe21e397fad9344d951994c9dfd3b9cf20ade1141c3160cfaec48ba61976ff96d41aa6fb4c2c476d2fb42677bddf19c42e0bd35b2b2239c687475f069d1e05bca6c61fd8e89adc2150772402fc6848096d04f4a6c05af8c5199809f3574a9ef5ba9a5c6ba6f27986f86baefccf66ef931c4e914a2578b761a8e44f1f6f130d6e6ac154bc2963e166dc1ce188fb0cfc9473756def71f19ecec3f219f8f6a09def7df1df887fe72f13a64baa54f011035aa3edcf6ec730a27b18900c75acadecbffe2fd959814fd8cb99ad0b0b25c5151a8753cf69f9641282aa39455b8e62962a290da982d92c796a34b194a6bb1e10a094668a50ccb7f07f5c151613e5403ac3c5a8cffa6305dd55546e52efca35cd3b24504c57a548c7dff48772e67f8dd0f698931e2214b2ec09f53a2355ef31ff66c30d694eec3b30f2d86d32b41cd5f93db55537334147185319933a8200f81637ee4057489c91bfffe939ce38b4a1d64ebae963221dc705eea9ac30badb7b409cbbe24017f1f3fdecd551fd1bb18c3773121d683c6620f5e62595b0e4fa65739231cee6cb21ddbdf3fe4c70fc7a6cbe1e633d8da3b5ec481404e44192754fc9f7057a25c5b1fc9c698e0d7f70d069b0ccca6b946a4512b6a9043426c725f5b7f49f37244f5d9dc0e365ae928d19a315ec2d83178a61835d0f5eb452c77caef4ec8fd81bc5af5dadfa39b155c6d198cee1fb1d0776ce4d293b9c76161ea5a1dded43b56c048771ec1604f9778f2f3040bcc3ea684d62ae9a28892b6f31ced3c5beef4f112f64d7ae47e1460ea6cdc40ec4255e6c6ef7979e41a5f74237b1cb3c3e1893cc3a29fbabf33a2a5961f393389aae60a33602fb00860722f6033911b3db887149b9c849583b6cca727a33a359eb133170dd41d395f29b05b17096135abb7160bcc40d3841b7c25cae281e6c465cfd0985550d4ec9ab84016c9726034687aaa1f7724db21cceedd4876609b0ba1a25f167d2d0902a5c5d1ef426f910c6025b164a8179e5f390ce984d531517e59141742c8e14e6e8e95ba179f3d748d7003cc2205d1519bff42737b2e50e2dea1c2f9b757240e569def9fb0156c1fdb29b4e42041b88295f94edad39b423652f8213035c8c98c6d7ec070f1e272b494e51568d9fc1cdd3d4dce1080d171d28335d61696e73768990929dafb6bec3e90c2b31326c6f8286aab3bcc2c6e1eaf10000000000000000000000000000000000000007182d3d01",
        "008678302d2f836e50d92ad4a61a85d4c5334c953d5f7b1a8dccf211dc3b4495ae912a82de69245987cfd48d482f3b05469e706e6a1b73f00d91e93d082c136be9151c41affb3bbc60890d4402aa65bf709425f998f00d6f1176a2bd105db0837fef95545853fd05fdc3e8f58a47241961cb5558df36082e1413bd002e3f5a439d20e48c7fcbae98eba25a390628ab3ab60a9851b07ebff615d92445da8182083ecb46353dec7d71f23967077177f3b4fa828d0df9b9f49461aa95dd926165a1e7161e445294be821615e1ee9da3e0cfed8f7048d8ea67627645f54ca59d636b71f6a34fae04eb407e73737d96656721a9eaa72a7c30fc619d4b3ed81a9d2a42e26475136e333f6a87ad198d13fc73abe5579ec3499e15f6b132dd8dfa2b44714613ed97ff76b86e11858d48241d5c98bbd127e8cdfc6fadf597505ebebbe6813ca1aef2eea38440bf1041f3e965230e5a21f0b5deab4bb6b9771c075ffdc7df23c6e0695573137d6a0925fba4ed305861903c762e50d301155473b69b542eaa8333f0d888f1146d7ed5ed22bf4eeaaa6609d22fe4de914033ffb08c43ab05e68aa1ec5c2547151bfad6f6bb25bbc8ce5e05f65a0169932bdc58fc346a8466b8aa196851a314022911d0ec39fa304b22e40dac58601d18ba8309850aa1bd6cdbe3dae6986b9a3981d1f303dedfbe8d98a4a206e4464a6c3ad68c4ee62a07b2542c3fa5d118b8a38de5a509924793d522bcf87e2b68c5965656717cb0954086af629545f131ed2247c8c1ee0d6387195f86e40047580cd6488ae6cc1a8aa36dba28e81e8033dc41e94871c23dfc4e5f3c8e79f797d50c2a01493fa2d6f99710128b02ac0a91087f85b31e25cf2ecbdf37a3d941199a048ff5fed59a708df150679570f11f4fa8e4f934e3dd384a5aff5d963d8eaadca5862a761060cf648802928302a9ee5cb3914c3ecfb2bc94c68e9ba0716c23ed1b4fe5b2158ae5cba676f66635e441b0d2b1b0d61404da659f22757aeb20d2a38599e10f1fb639ac16752a8639d3a0ada02c85709420088266fff66213f413345f7130c54dacefb35cb0ee2065e12edef468acd1d5af73cf2b050b237d4c4fe9fb299119e7665f499b0a1eba6f7feb29c94fc2c2a1db62be313c7e25b8d830baf2c4d3831050adb49dcd0920d48db86390d72148614c39c79384c804cbee94b70b7bf1b95176edbe1441b5552a7aa7d4dfb394c90b04a8648e29f75269a03a9dbfad0b94f8c002f55e54878c26f1453684de90fa8f19912dc06d6648ae5ea99be38a02e35ad8ab669d967a147cfe22d86e28a4b45cea0a77e61238ff6cc824a37a1d215d74d80c06b54cf0890a17de780efa2cd496b10261885026fafcfb3661393fa6b9e6634b0629e58db6b5928f4c17030ffe086915c752dc3db94990720fbb6206721eadb5f9f97978a33f0fb03b59ac2caaa2df7d710ef42d2cd9ab91907d529303184fc7143b751042a7e52cae8ba821f1ed753ac4673871c786f9c8dc79f262f52f393ddcb91205811ae18741a9255eaf8aa983971650a1b33c9e0c57fc0fd9ba84960050d54269da92b1b123d88f5967a3086e5ca1fbd67b02a0f9a1901e9c0691c502e461c821c4deeec1a00063762db826c02e39afb8c6478553b2a4b0720b03615daf29af9bdb1b629cc9511e9daba84ddadb23a96f2f05698a8d64ba86e77cafc89dc9c18a84d15c2d57a249196eed692ae1dc7a01eaaaf035a3b6886522a329baf28014e785c5963cbd6ed5f2d7d24c9fb0a256153dcea8828819a1adc7f5a8b71e52f53a11868a7ee8f00d2981fb60bba625c421cb4717f74c05fec284d52bb992e568866c"
      ],
      "sequence": 4294967294
    }
  ],
  "vout": [
    {
      "value": 1.0,
      "n": 0,
      "scriptPubKey": {
        "asm": "OP_RETURN 2910befae8b35b09af342d530b1685d0dfefa7fd2f0ba96603c3828b7c940340 e2080abae387de02004d71b5e1f918a62c8f130601c4db5aa7a16b26a1c6609cc2282a9ac3a7fe22206d5195c1d938860caf332621e4fb7a87814b0681e640bca2484afaa3c79e42400d31f5a1b958e66ccf534641849b1ae7e12b66e18620dc82686ada83e7be62602d11d5819978c64cef736661a4bb3ac7c10b46c1a600fc62888a3a63075e8280cdf13561799826ac0f938681445bda2721eba62146e01c42a8aa1a43277ea2a0edd1154159b8068c2fb3a6a1647bfa0701cb860166c03c22c8ca7a23471ec2c08db1752139d866ec4fd3c6c1041b9a6761abe66106a05c02e8ea5a03673ee2e0ad91550119f846cc6ff3e6e1243bba47418bc64126807ce2080abae387de02004d71b5e1f918a62c8f130601c4db5aa7a16b26a1c6609cc2282a9ac3a7fe22206d5195c1d938860caf332621e4fb7a87814b0681e640bca2484afaa3c79e42400d31f5a1b958e66ccf534641849b1ae7e12b66e18620dc82686ada83e7be62602d11d5819978c64cef736661a4bb3ac7c10b46c1a600fc62888a3a63075e8280cdf13561799826ac0f938681445bda2721eba62146e01c42a8aa1a43277ea2a0edd1154159b8068c2fb3a6a1647bfa0701cb860166c03c22c8ca7a23471ec2c08db1752139d866ec4fd3c6c1041b9a6761abe66106a05c02e8ea5a03673ee2e0ad91550119f846cc6ff3e6e1243bba47418bc64126807ce2080abae387de02004d71b5e1f918a62c8f130601c4db5aa7a16b26a1c6609cc2282a9ac3a7fe22206d5195c1d938860caf332621e4fb7a87814b0681e640bca2484afaa3c79e42400d31f5a1b958e66ccf534641849b1ae7e12b66e18620dc82686ada83e7be62602d11d5819978c64cef736661a4bb3ac7c10b46c1a600fc62888a3a63075e8280cdf13561799826ac0f938681445bda2721eba62146e01c42a8aa1a43277ea2a0edd1154159b8068c2fb3a6a1647bfa0701cb860166c03c22c8ca7a23471ec2c08db1752139d866ec4fd3c6c1041b9a6761abe66106a05c02e8ea5a03673ee2e0ad91550119f846cc6ff3e6e1243bba47418bc64126807ce2080abae387de02004d71b5e1f918a62c8f130601c4db5aa7a16b26a1c6609cc2282a9ac3a7fe22206d5195c1d938860caf332621e4fb7a87814b0681e640bca2484afaa3c79e42400d31f5a1b958e66ccf534641849b1ae7e12b66e18620dc82686ada83e7be62602d11d5819978c64cef736661a4bb3ac7c10b46c1a600fc62888a3a63075e8280cdf13561799826ac0f938681445bda2721eba62146e01c42a8aa1a43277ea2a0edd1154159b8068c2fb3a6a1647bfa0701cb860166c03c22c8ca7a23471ec2c08db1752139d866ec4fd3c6c1041b9a6761abe66106a05c02e8ea5a03673ee2e0ad91550119f846cc6ff3e6e1243bba47418bc64126807ce2080abae387de02004d71b5e1f918a62c8f130601c4db5aa7a16b26a1c6609cc2282a9ac3a7fe22206d5195c1d938860caf332621e4fb7a87814b0681e640bca2484afaa3c79e42400d31f5a1b958e66ccf534641849b1ae7e12b66e18620dc82686ada83e7be62602d11d5819978c64cef736661a4bb3ac7c10b46c1a600fc62888a3a63075e8280cdf13561799826ef608d9793a1cac9866b77ee93990398ac0b3fb0b45bc3b63dbbec1e45d0a35f",
        "hex": "6a202910befae8b35b09af342d530b1685d0dfefa7fd2f0ba96603c3828b7c9403404db004e2080abae387de02004d71b5e1f918a62c8f130601c4db5aa7a16b26a1c6609cc2282a9ac3a7fe22206d5195c1d938860caf332621e4fb7a87814b0681e640bca2484afaa3c79e42400d31f5a1b958e66ccf534641849b1ae7e12b66e18620dc82686ada83e7be62602d11d5819978c64cef736661a4bb3ac7c10b46c1a600fc62888a3a63075e8280cdf13561799826ac0f938681445bda2721eba62146e01c42a8aa1a43277ea2a0edd1154159b8068c2fb3a6a1647bfa0701cb860166c03c22c8ca7a23471ec2c08db1752139d866ec4fd3c6c1041b9a6761abe66106a05c02e8ea5a03673ee2e0ad91550119f846cc6ff3e6e1243bba47418bc64126807ce2080abae387de02004d71b5e1f918a62c8f130601c4db5aa7a16b26a1c6609cc2282a9ac3a7fe22206d5195c1d938860caf332621e4fb7a87814b0681e640bca2484afaa3c79e42400d31f5a1b958e66ccf534641849b1ae7e12b66e18620dc82686ada83e7be62602d11d5819978c64cef736661a4bb3ac7c10b46c1a600fc62888a3a63075e8280cdf13561799826ac0f938681445bda2721eba62146e01c42a8aa1a43277ea2a0edd1154159b8068c2fb3a6a1647bfa0701cb860166c03c22c8ca7a23471ec2c08db1752139d866ec4fd3c6c1041b9a6761abe66106a05c02e8ea5a03673ee2e0ad91550119f846cc6ff3e6e1243bba47418bc64126807ce2080abae387de02004d71b5e1f918a62c8f130601c4db5aa7a16b26a1c6609cc2282a9ac3a7fe22206d5195c1d938860caf332621e4fb7a87814b0681e640bca2484afaa3c79e42400d31f5a1b958e66ccf534641849b1ae7e12b66e18620dc82686ada83e7be62602d11d5819978c64cef736661a4bb3ac7c10b46c1a600fc62888a3a63075e8280cdf13561799826ac0f938681445bda2721eba62146e01c42a8aa1a43277ea2a0edd1154159b8068c2fb3a6a1647bfa0701cb860166c03c22c8ca7a23471ec2c08db1752139d866ec4fd3c6c1041b9a6761abe66106a05c02e8ea5a03673ee2e0ad91550119f846cc6ff3e6e1243bba47418bc64126807ce2080abae387de02004d71b5e1f918a62c8f130601c4db5aa7a16b26a1c6609cc2282a9ac3a7fe22206d5195c1d938860caf332621e4fb7a87814b0681e640bca2484afaa3c79e42400d31f5a1b958e66ccf534641849b1ae7e12b66e18620dc82686ada83e7be62602d11d5819978c64cef736661a4bb3ac7c10b46c1a600fc62888a3a63075e8280cdf13561799826ac0f938681445bda2721eba62146e01c42a8aa1a43277ea2a0edd1154159b8068c2fb3a6a1647bfa0701cb860166c03c22c8ca7a23471ec2c08db1752139d866ec4fd3c6c1041b9a6761abe66106a05c02e8ea5a03673ee2e0ad91550119f846cc6ff3e6e1243bba47418bc64126807ce2080abae387de02004d71b5e1f918a62c8f130601c4db5aa7a16b26a1c6609cc2282a9ac3a7fe22206d5195c1d938860caf332621e4fb7a87814b0681e640bca2484afaa3c79e42400d31f5a1b958e66ccf534641849b1ae7e12b66e18620dc82686ada83e7be62602d11d5819978c64cef736661a4bb3ac7c10b46c1a600fc62888a3a63075e8280cdf13561799826ef608d9793a1cac9866b77ee93990398ac0b3fb0b45bc3b63dbbec1e45d0a35f",
        "type": "nulldata"
      }
    },
    {
      "value": 499970.5099,
      "n": 1,
      "scriptPubKey": {
        "asm": "1 ca0c92bbb2aef91ebeaf4aecf23bd87fbc2c94d5efac306170cdf3ef5e0ae619",
        "hex": "5120ca0c92bbb2aef91ebeaf4aecf23bd87fbc2c94d5efac306170cdf3ef5e0ae619",
        "reqSigs": 1,
        "type": "witness_v1_scripthash",
        "addresses": [
          "3QJmnh"
        ]
      }
    }
  ],
  "blockhash": "f7496688ea8085f6c88d1199f2534797ba9d5c262af7501e5ddf271dd00b2202",
  "confirmations": 1,
  "time": 1764181480,
  "blocktime": 1764181480
}