{
  "hex": "0100000000010195afbd356b86daff66a249cf0caaf293f61cd70302ee48defce88902e57a8a110100000000feffffff021076cf5d792d00002251204b581d187af2e34336ac50e5b06a6cdb746a3c8b95703a0ebd448b9641320cf500e1f50500000000fdd5046a20186a236abd2a1cfdc690df563aecdd77746e6833a365dfef2230e782b12b6ad84db00454a58ffd1f32a1600e2e29181477a51d8c68e56bf58318ee3b04c38f9b4bd8697485afdd3f1281402e0e09383457853dac48c54bd5a338ce1b24e3afbb6bf84914e5cfbd5f72e1204e6e69585437e55dcc28a52bb5c358ae7b4483cfdb0b982934c5ef9d7f52c1006e4e49787417c57dec08850b95e3788e5b64a3effb2bb809d4250f7d9fb221e08eaea99894f7259d0ce865eb7503986ebb84430f1bcb58e9f4052f5dbf9201c0ae8e89b8b4d705bd2cc845cb5523b84e9ba4632f3beb78c994654f3ddff261a0ceeee9d8d4b765dd4ca825ab3543d82efbc4034f5b8b18a9b4456f1dffd24180eecec9f8f49745fd6c88058b1563f80edbe4236f7bab388954a58ffd1f32a1600e2e29181477a51d8c68e56bf58318ee3b04c38f9b4bd8697485afdd3f1281402e0e09383457853dac48c54bd5a338ce1b24e3afbb6bf84914e5cfbd5f72e1204e6e69585437e55dcc28a52bb5c358ae7b4483cfdb0b982934c5ef9d7f52c1006e4e49787417c57dec08850b95e3788e5b64a3effb2bb809d4250f7d9fb221e08eaea99894f7259d0ce865eb7503986ebb84430f1bcb58e9f4052f5dbf9201c0ae8e89b8b4d705bd2cc845cb5523b84e9ba4632f3beb78c994654f3ddff261a0ceeee9d8d4b765dd4ca825ab3543d82efbc4034f5b8b18a9b4456f1dffd24180eecec9f8f49745fd6c88058b1563f80edbe4236f7bab388954a58ffd1f32a1600e2e29181477a51d8c68e56bf58318ee3b04c38f9b4bd8697485afdd3f1281402e0e09383457853dac48c54bd5a338ce1b24e3afbb6bf84914e5cfbd5f72e1204e6e69585437e55dcc28a52bb5c358ae7b4483cfdb0b982934c5ef9d7f52c1006e4e49787417c57dec08850b95e3788e5b64a3effb2bb809d4250f7d9fb221e08eaea99894f7259d0ce865eb7503986ebb84430f1bcb58e9f4052f5dbf9201c0ae8e89b8b4d705bd2cc845cb5523b84e9ba4632f3beb78c994654f3ddff261a0ceeee9d8d4b765dd4ca825ab3543d82efbc4034f5b8b18a9b4456f1dffd24180eecec9f8f49745fd6c88058b1563f80edbe4236f7bab388954a58ffd1f32a1600e2e29181477a51d8c68e56bf58318ee3b04c38f9b4bd8697485afdd3f1281402e0e09383457853dac48c54bd5a338ce1b24e3afbb6bf84914e5cfbd5f72e1204e6e69585437e55dcc28a52bb5c358ae7b4483cfdb0b982934c5ef9d7f52c1006e4e49787417c57dec08850b95e3788e5b64a3effb2bb809d4250f7d9fb221e08eaea99894f7259d0ce865eb7503986ebb84430f1bcb58e9f4052f5dbf9201c0ae8e89b8b4d705bd2cc845cb5523b84e9ba4632f3beb78c994654f3ddff261a0ceeee9d8d4b765dd4ca825ab3543d82efbc4034f5b8b18a9b4456f1dffd24180eecec9f8f49745fd6c88058b1563f80edbe4236f7bab388954a58ffd1f32a1600e2e29181477a51d8c68e56bf58318ee3b04c38f9b4bd8697485afdd3f1281402e0e09383457853dac48c54bd5a338ce1b24e3afbb6bf84914e5cfbd5f72e1204e6e69585437e55dcc28a52bb5c358ae7b4483cfdb0b982934c5ef9d7f52c1006e4e49787417c57dec08850b95e3788e5b64a3effb2bb809d4250f7d9fb221e08eaea99894f7259d22c189402df9c1d7729e18e8d22b04e42b7f628d34c180cbdbe8f6c20bb7058d02fd7509f411d84a20f6e2fe390a6d2f6602f384676078526f4a7d11c52ac8f6cd0ae898295aeb42f0a6f1364b9138f6264b479b51df42720f23c074932e051e97367641ff3a7a71b33021627ff1caf87f684a763b36278c3307c4dea6683b2f87b0044ae52845f5486e6ce51ac6418cafebf1ab36cb3dc53ad18316e4fed35bed1c620ecb56449b42069b903f357d85abee6ed60ba501fb8313413d3af752d41ff316f044e753c2ab55111b6abd64b70befc342ed2f508ff89b985392bda907d3a27568149605a408b2a9691dcea06addc73669405ff622b5fac7a9573e6aa694828e9d24b1f66d9c8b99087a26ac8527fd10cb94f078bf6ee2c6f9ea59d4bf7c2a9c13194a42e44f09c64c640c9a82f5b102cce6aaf5c6a6c8f292de755b2ae099eba062c0bb78e7031ac1de2956664f8cb910793ba121bc8c61898c5d0dd0b622b3a51648167c593a8bce87b12cab55500ff3d051e54b952d8c9fc856462ebae2f8570d4c92b374e1543ef48c09dc1134f9df940d96316ce72f552bc88fc5f7f9154f5c41c4bab9a5cf77889133b21874ef24b9f193dec81b9217d0f5649d804250c88f651a6152f8cf93ec096dd06a42d11e2ce70add63767f46c720dd54c25395fa2cc19a049cbd672bebf142e1c92361c1f2ffb0c97b1e2c3343e61e065c6f974f4bc0aec3c1f4057412ea14c3fabd311741f2997da2d5776c29defd0403c499cc2753365ef78e2ff39185ef8aa1ba2db1eb61755396688ec4e5138837690e2c950cd220337e3303313778b5b0dca861e666948773471a6b7d532412a20af58ca0705e39d06ffef7110414b5d0a606aac5b8a8bfc17e853495e105a97d3b17a216dcb950f2b1a875cc24e4fb09ddb0101ef49efc6ff9c5536481a6a0980441321fddd20c41ec44711ca417eecbde173bb759e8a90899af5cfc6d26c13388ab02aaef45f13aef4d5fe4d1e1c61f9c73c9ce496dfe97a2754b60bba19555cbda6018ca26ebac12dfbab6fe6d67439d1bf61e7dd6a0010c0ebf8b01a54292fa4f722b86c0e9eeb295e6d7a851c1ab5ae51fd950b8ac187c8a8caf141f6b8c21a7421f4f5dd91327ab3e8fd9a5d56d44562baddfa9dc4b03e73473f1e97443999eae6bfc15ae32518abba447754beced57bbba88a866e107a459179613d4f91c0e558b3444943169e5129fc73ddd335e2116ba50536a497b641dd9ebffdaf43fa17ffd10a0253ce0f8f6c4563cbd54e64c30696e5209f2739e4ed730aaf74de39a824cf93b0114563a98ca888f786e8db1ec23bf035b67a9429130b804e0c62865480830fba328a61b49ea8ae5e06c177e1bd571ff44fcf42cfc571eb14b674cd6418abc74478fcbe3129a470ea1f3b9d9ce3d71a82083d4d25be2f83adbf4c8b978d7c1a7d24ca3a3a865b03c8ff3a1836d8e0a0592a0a8992b70f6a07671622a47cd5371ff14385af2bca5b0fc492cf78637eb70a605495829cb56be2bb29e6971fa3848df51042ca60cfa2ed205f7d11ac65ce688a24618522411525d393d5ceba8b730102f47a1a5dfa10b7a1411c6dd18124204949ca508f717da81a9cca1d85ac1357731cad02ac24610116b41490978c7c826451212ab2875d3449cbe20d5436c3a2faab5ae7a2736f17b294b1e4f5d10fec37f77679e84fa8146b0f37a5cd2f7d2c01abd19d213cca32f3113fe9f3b9dcb5336e0225e50b74f5c7b1db58392e9b72a1a7b86620992b30a6cac2620af1c900eedc642e630b66bf5dc791c1ac59cb1034cbf529bcc3ff177c70045b47540cee6b6515c92028f2d3ea31a32edf34704b883653a050af3408b2689b2b70f240e5816faa7184c6a81b65c8f1d9d4679db867bf6b06228954f118e715fb0369e86389821c5c9ee5c65e32e0bbdad0e68f9bc2fb84b19d229aec337b96a2bfe01437690f566bc0204ccea0037ffdbd528121c052aab13a31b8925c268310d13d284b27b52a32704451a20381603347ff7d1a6b76951a3a1fed1228ac0720b13f4ca63833481f00b8eab8af824d3fa4b344f4987e234f073b1226d04784ecf164cfc47c600c554c4fa377fa487ac961313c4936b3ffe54d140088d264762db72df713fa51beda84d970fc478688273916787935e13ce2c6292f5d99914daa4dc2ec1a3a3c706057de9f615fc5b412d8a11361ada13e8da26369082238a2a3766b5b05e549469f01e3aa572b7c8b81027043b36dd16b784dd2a5a05532cde5aa00f97527352665c50ce42aa696f3d27b9dab1f1aa45e516d85d1be7ab5e9f60a6cbaf2290270b987e2b8f76018667e4a5252c5e0433f6115c6228821f512539bdd41c8870c3d586c80697067c19807d9411bd294e17dbb78478d164d1438539e51d6718d5803598cf849c5c09063b62bd5b01f80c26de52b1091aaf5848b5652a06398883f3c74bfb15fd381a801fa1082bcff57781ddb26a9ca4a1f49cdb76b13e106856ba7f86abded57a450f830303163b4c93645ff77909b3b311044e7357f3befba5ae5cf89d7bcab3d229d9789b5b383480a7fdcb952fb4e222bc1b68d3977ac0ea23dd868c270031bbba38420cef0d962cf9feb5727de41066303bd61772a7cd57bad2f380161bf823b877834a24e897a2726bca0b5b3e669341f24fe6e6ef7a280122ec7cbb306869ace9777f6d156a76cbfaa45864e071ad95d5afb77c4d2dd6b589bacd2578f4dd30bf9c70c03a4abe82e593722c9bdf9e818667a620bbb3a1c6a0d79eea2abff41d51395ccaa9b07f9793a3111d2236a4756975ffddb8c5701c8e4efc34e14fd4f81c1c1a41aa1b49c4890b531967e90a130bfad8d233379e531e21087368c0d95b595a9393052b4a8eed5a32b9611785ce7fa5f67576250520c88eb529496a60c6df3c10f00b29630bb01b99244e6751fdee7d10357bcbae838fd4c8931450529d4d8d1b14632c1e4a6c0c865c4485520999dbd2463678ab2bed14a05470d99213bd090ca0b4fc9ae638f51a1d99c48a6ec948ae2a9bb3176355cdcc98f9e80b42ee5f63e599ca5a461d5e18dd798c06f504dbbb20740af6c3a646b8b687c1a05c320f5ae59de7ef59c9fa1ca77764bac12c1c0464c09aa123f5ea9420d8fc2b6f9b162d8745d92e5d7840c7be0c0b4897a7218b1b610c5000513af370630beba789e976bd52c15789a60e0abed553aea8369e0d968d38ebd4fecf00c3b899f7817e65adcfef15c8320ff88e10cc7ea92b6ce594bf41cf2af965b064e8cea65d512360856cbc602a17c81c57f42e47a7843ade37c2b11d828495cd497c9d9b258bce82510815272d5b6874787eb4b9f7fc2829394561727a9fb9d4e0ebedf1222e36808592a0aab2c5dde1e2ea1d2e34393e45528286a2abb6bcccd0da00000000000000000000000000000000000000000000000d1b293901fd21050053de9025b5d4921d6fe662be2f29207cde78561d069e250d2c0e7ab7fbb62b167670ffdbf6da27ef592b7d1120a27c5770ad028178d1a65b210d48d7261407ba24fd86919d993f0b78f6de0dc8edc2fe115f4858d8baa44a085192ad43a1ed1379970f32dbf35cf7bdd25fd2a9022b33644eca086b90757a79389621c135b59290c0c6bf3d6868c9affc51a896c754e44889f7847cf903e01718b4339f2b7635c627c5ab916e8c38d19758ed8d1fef6ef261cb28eebb8a18b7055870a0a7aa80f7b99d0525c8aa7e054d3e1ad2a110a13b7f150aee21bcbd69a5e898f783eb2f1e9762f6cd5ab25cf634c8ec251ed52f7ace2b48a2c94db40f63a5cf5918f71bece4362f658427d151b9b4c118e1dee2e82bd02ab334506a24b3661d85ac3c08136a7f02864216923c32bf5010c38de0d8d66b23aa5d154a507c04e24af20ec1c03cd83186acbb833e675fc0e086ed29091d6aa0da70ee4c195d25b737fc9a8ea4e0eab8e8c3843a11f16b3a1ddaaaf3ae5db24b4897f5bbc732120e3b265c95e4ed7209f4fc1fbb9cfe2cb99d25e8a5a4d14a107d6640ce59c359afdfdc1d7343224e2eecaa5f59d609eb2d5d0a76a15b8b77f6e84edd454393d446f79ff08630db09710440ed29314083fcf2110ef8209b9342682334b0b06012542edb722696c1fa6a27522f5f6502d5c2c89f37dce190ca8f1de306157ec7f4cf0558fbc8ece5e1347fee8153561d41e408eac88a67654b571e9cc44acf3c0e5c49c5ff647ca01bd2bda7e75116291cc1567086a6033318a4adfbe40aa3bfd905967a087653a45759faf7ac5c2528d39c50744749604f2c475b9dd7276a1bc41649376442897afff1a219da36a256564a806bb41eb146b38a4ffdf66537462918457a4e088c559b0c7be3c9c1dd0a30def83696e8c400434d21d448a1fe0a8c38ddd582b24cad0418a9f457aa182772a4c7dc95cdd1dd2b6504098ca0cfa51b8d0753adcbf29e872582690bc474844fe54ca16e35ea7c678e537ca1ed1aadf813d7603e2485dabc2115fa50e122c56fb5d444b4081efb2ba262845e125d117d765380539e6cafeb45dbb29e1a6f090b32cbeb4ff5c1a871ba0a4666e9bc0b2a7dbf009eeeb54231a2ce59ce11411bffff6453d3c483c131ed0ddf0d2a110de35fda41e8e7ab1f72d482161d921060748893c06560d146dfd58ecc82b9c901a4d9b3ff8ac40896f10f279a1c18a37b77aee75a630f520a2ef539537f8790501e328704c7d186cee375552e0fd8eb60d405c41e2b1ebda73bae4eef5f9e5fe932f852496ac69e7c5f4531aa806305a02712dec8f5f6847dfe0f62dd5c8c6faaa60855a28ca03060d49b28f50eda4b937cdaddb7edc8c8f6a21e53cff26d5929e2e385e30e0deac93316d83393c40ec0a183c55ad91a2ab796a1a80939047414d8dd4ca7e869c5723accaec5d32c3b03dd651364f66ad20d03d5837a64a8f84bd899dd4f91b2f8480d8fbd1fd6b9d9b8b294d25af5c0cc1136d0c96115f84a7239b7d0d7a4fe7002742475cfee575f56901c34a80ea50beacfc8ffaa2eff80d54dfe1827a2af00ad5749cb3fb67dfcbe9aa6e96cd404ce97719db4571435c66cb82ee8beadc068adbf3f60bfe4643c9c7fce8beab5b5ae3da6517af444bfa8ac5936d64401746ec047e7998ae63bc25b15e1cbbaabf33f8a33b3ff57fc370a0e98b943568fe8ec98f551ea6f10ae481d2b5ff71382cacb092dcc3103ea9bef175e6890e0122af098281f32c196186adc77f5cf71ccc0f7fbdbea97580868ebef9e2a793caea505db5c8717c8fb5dafce655367ad1829cd0a95b7ff6e4847a2ae7cfeb1df5a0169000000",
  "txid": "e0eb439f8587b8cd042fac2080c4259bb06d7648f20f88701d3403b20e252825",
  "hash": "9ac6e985ae45049ccd41b59062785482dd854166e842c1fa4d47589f4fdea14c",
  "size": 5085,
  "vsize": 2278,
  "version": 1,
  "locktime": 105,
  "vin": [
    {
      "txid": "118a7ae50289e8fcde48ee0203d71cf693f2aa0ccf49a266ffda866b35bdaf95",
      "vout": 1,
      "scriptSig": {
        "asm": "",
        "hex": ""
      },
      "txinwitness": [
        "f411d84a20f6e2fe390a6d2f6602f384676078526f4a7d11c52ac8f6cd0ae898295aeb42f0a6f1364b9138f6264b479b51df42720f23c074932e051e97367641ff3a7a71b33021627ff1caf87f684a763b36278c3307c4dea6683b2f87b0044ae52845f5486e6ce51ac6418cafebf1ab36cb3dc53ad18316e4fed35bed1c620ecb56449b42069b903f357d85abee6ed60ba501fb8313413d3af752d41ff316f044e753c2ab55111b6abd64b70befc342ed2f508ff89b985392bda907d3a27568149605a408b2a9691dcea06addc73669405ff622b5fac7a9573e6aa694828e9d24b1f66d9c8b99087a26ac8527fd10cb94f078bf6ee2c6f9ea59d4bf7c2a9c13194a42e44f09c64c640c9a82f5b102cce6aaf5c6a6c8f292de755b2ae099eba062c0bb78e7031ac1de2956664f8cb910793ba121bc8c61898c5d0dd0b622b3a51648167c593a8bce87b12cab55500ff3d051e54b952d8c9fc856462ebae2f8570d4c92b374e1543ef48c09dc1134f9df940d96316ce72f552bc88fc5f7f9154f5c41c4bab9a5cf77889133b21874ef24b9f193dec81b9217d0f5649d804250c88f651a6152f8cf93ec096dd06a42d11e2ce70add63767f46c720dd54c25395fa2cc19a049cbd672bebf142e1c92361c1f2ffb0c97b1e2c3343e61e065c6f974f4bc0aec3c1f4057412ea14c3fabd311741f2997da2d5776c29defd0403c499cc2753365ef78e2ff39185ef8aa1ba2db1eb61755396688ec4e5138837690e2c950cd220337e3303313778b5b0dca861e666948773471a6b7d532412a20af58ca0705e39d06ffef7110414b5d0a606aac5b8a8bfc17e853495e105a97d3b17a216dcb950f2b1a875cc24e4fb09ddb0101ef49efc6ff9c5536481a6a0980441321fddd20c41ec44711ca417eecbde173bb759e8a90899af5cfc6d26c13388ab02aaef45f13aef4d5fe4d1e1c61f9c73c9ce496dfe97a2754b60bba19555cbda6018ca26ebac12dfbab6fe6d67439d1bf61e7dd6a0010c0ebf8b01a54292fa4f722b86c0e9eeb295e6d7a851c1ab5ae51fd950b8ac187c8a8caf141f6b8c21a7421f4f5dd91327ab3e8fd9a5d56d44562baddfa9dc4b03e73473f1e97443999eae6bfc15ae32518abba447754beced57bbba88a866e107a459179613d4f91c0e558b3444943169e5129fc73ddd335e2116ba50536a497b641dd9ebffdaf43fa17ffd10a0253ce0f8f6c4563cbd54e64c30696e5209f2739e4ed730aaf74de39a824cf93b0114563a98ca888f786e8db1ec23bf035b67a9429130b804e0c62865480830fba328a61b49ea8ae5e06c177e1bd571ff44fcf42cfc571eb14b674cd6418abc74478fcbe3129a470ea1f3b9d9ce3d71a82083d4d25be2f83adbf4c8b978d7c1a7d24ca3a3a865b03c8ff3a1836d8e0a0592a0a8992b70f6a07671622a47cd5371ff14385af2bca5b0fc492cf78637eb70a605495829cb56be2bb29e6971fa3848df51042ca60cfa2ed205f7d11ac65ce688a24618522411525d393d5ceba8b730102f47a1a5dfa10b7a1411c6dd18124204949ca508f717da81a9cca1d85ac1357731cad02ac24610116b41490978c7c826451212ab2875d3449cbe20d5436c3a2faab5ae7a2736f17b294b1e4f5d10fec37f77679e84fa8146b0f37a5cd2f7d2c01abd19d213cca32f3113fe9f3b9dcb5336e0225e50b74f5c7b1db58392e9b72a1a7b86620992b30a6cac2620af1c900eedc642e630b66bf5dc791c1ac59cb1034cbf529bcc3ff177c70045b47540cee6b6515c92028f2d3ea31a32edf34704b883653a050af3408b2689b2b70f240e5816faa7184c6a81b65c8f1d9d4679db867bf6b06228954f118e715fb0369e86389821c5c9ee5c65e32e0bbdad0e68f9bc2fb84b19d229aec337b96a2bfe01437690f566bc0204ccea0037ffdbd528121c052aab13a31b8925c268310d13d284b27b52a32704451a20381603347ff7d1a6b76951a3a1fed1228ac0720b13f4ca63833481f00b8eab8af824d3fa4b344f4987e234f073b1226d04784ecf164cfc47c600c554c4fa377fa487ac961313c4936b3ffe54d140088d264762db72df713fa51beda84d970fc478688273916787935e13ce2c6292f5d99914daa4dc2ec1a3a3c706057de9f615fc5b412d8a11361ada13e8da26369082238a2a3766b5b05e549469f01e3aa572b7c8b81027043b36dd16b784dd2a5a05532cde5aa00f97527352665c50ce42aa696f3d27b9dab1f1aa45e516d85d1be7ab5e9f60a6cbaf2290270b987e2b8f76018667e4a5252c5e0433f6115c6228821f512539bdd41c8870c3d586c80697067c19807d9411bd294e17dbb78478d164d1438539e51d6718d5803598cf849c5c09063b62bd5b01f80c26de52b1091aaf5848b5652a06398883f3c74bfb15fd381a801fa1082bcff57781ddb26a9ca4a1f49cdb76b13e106856ba7f86abded57a450f830303163b4c93645ff77909b3b311044e7357f3befba5ae5cf89d7bcab3d229d9789b5b383480a7fdcb952fb4e222bc1b68d3977ac0ea23dd868c270031bbba38420cef0d962cf9feb5727de41066303bd61772a7cd57bad2f380161bf823b877834a24e897a2726bca0b5b3e669341f24fe6e6ef7a280122ec7cbb306869ace9777f6d156a76cbfaa45864e071ad95d5afb77c4d2dd6b589bacd2578f4dd30bf9c70c03a4abe82e593722c9bdf9e818667a620bbb3a1c6a0d79eea2abff41d51395ccaa9b07f9793a3111d2236a4756975ffddb8c5701c8e4efc34e14fd4f81c1c1a41aa1b49c4890b531967e90a130bfad8d233379e531e21087368c0d95b595a9393052b4a8eed5a32b9611785ce7fa5f67576250520c88eb529496a60c6df3c10f00b29630bb01b99244e6751fdee7d10357bcbae838fd4c8931450529d4d8d1b14632c1e4a6c0c865c4485520999dbd2463678ab2bed14a05470d99213bd090ca0b4fc9ae638f51a1d99c48a6ec948ae2a9bb3176355cdcc98f9e80b42ee5f63e599ca5a461d5e18dd798c06f504dbbb20740af6c3a646b8b687c1a05c320f5ae59de7ef59c9fa1ca77764bac12c1c0464c09aa123f5ea9420d8fc2b6f9b162d8745d92e5d7840c7be0c0b4897a7218b1b610c5000513af370630beba789e976bd52c15789a60e0abed553aea8369e0d968d38ebd4fecf00c3b899f7817e65adcfef15c8320ff88e10cc7ea92b6ce594bf41cf2af965b064e8cea65d512360856cbc602a17c81c57f42e47a7843ade37c2b11d828495cd497c9d9b258bce82510815272d5b6874787eb4b9f7fc2829394561727a9fb9d4e0ebedf1222e36808592a0aab2c5dde1e2ea1d2e34393e45528286a2abb6bcccd0da00000000000000000000000000000000000000000000000d1b293901",
        "0053de9025b5d4921d6fe662be2f29207cde78561d069e250d2c0e7ab7fbb62b167670ffdbf6da27ef592b7d1120a27c5770ad028178d1a65b210d48d7261407ba24fd86919d993f0b78f6de0dc8edc2fe115f4858d8baa44a085192ad43a1ed1379970f32dbf35cf7bdd25fd2a9022b33644eca086b90757a79389621c135b59290c0c6bf3d6868c9affc51a896c754e44889f7847cf903e01718b4339f2b7635c627c5ab916e8c38d19758ed8d1fef6ef261cb28eebb8a18b7055870a0a7aa80f7b99d0525c8aa7e054d3e1ad2a110a13b7f150aee21bcbd69a5e898f783eb2f1e9762f6cd5ab25cf634c8ec251ed52f7ace2b48a2c94db40f63a5cf5918f71bece4362f658427d151b9b4c118e1dee2e82bd02ab334506a24b3661d85ac3c08136a7f02864216923c32bf5010c38de0d8d66b23aa5d154a507c04e24af20ec1c03cd83186acbb833e675fc0e086ed29091d6aa0da70ee4c195d25b737fc9a8ea4e0eab8e8c3843a11f16b3a1ddaaaf3ae5db24b4897f5bbc732120e3b265c95e4ed7209f4fc1fbb9cfe2cb99d25e8a5a4d14a107d6640ce59c359afdfdc1d7343224e2eecaa5f59d609eb2d5d0a76a15b8b77f6e84edd454393d446f79ff08630db09710440ed29314083fcf2110ef8209b9342682334b0b06012542edb722696c1fa6a27522f5f6502d5c2c89f37dce190ca8f1de306157ec7f4cf0558fbc8ece5e1347fee8153561d41e408eac88a67654b571e9cc44acf3c0e5c49c5ff647ca01bd2bda7e75116291cc1567086a6033318a4adfbe40aa3bfd905967a087653a45759faf7ac5c2528d39c50744749604f2c475b9dd7276a1bc41649376442897afff1a219da36a256564a806bb41eb146b38a4ffdf66537462918457a4e088c559b0c7be3c9c1dd0a30def83696e8c400434d21d448a1fe0a8c38ddd582b24cad0418a9f457aa182772a4c7dc95cdd1dd2b6504098ca0cfa51b8d0753adcbf29e872582690bc474844fe54ca16e35ea7c678e537ca1ed1aadf813d7603e2485dabc2115fa50e122c56fb5d444b4081efb2ba262845e125d117d765380539e6cafeb45dbb29e1a6f090b32cbeb4ff5c1a871ba0a4666e9bc0b2a7dbf009eeeb54231a2ce59ce11411bffff6453d3c483c131ed0ddf0d2a110de35fda41e8e7ab1f72d482161d921060748893c06560d146dfd58ecc82b9c901a4d9b3ff8ac40896f10f279a1c18a37b77aee75a630f520a2ef539537f8790501e328704c7d186cee375552e0fd8eb60d405c41e2b1ebda73bae4eef5f9e5fe932f852496ac69e7c5f4531aa806305a02712dec8f5f6847dfe0f62dd5c8c6faaa60855a28ca03060d49b28f50eda4b937cdaddb7edc8c8f6a21e53cff26d5929e2e385e30e0deac93316d83393c40ec0a183c55ad91a2ab796a1a80939047414d8dd4ca7e869c5723accaec5d32c3b03dd651364f66ad20d03d5837a64a8f84bd899dd4f91b2f8480d8fbd1fd6b9d9b8b294d25af5c0cc1136d0c96115f84a7239b7d0d7a4fe7002742475cfee575f56901c34a80ea50beacfc8ffaa2eff80d54dfe1827a2af00ad5749cb3fb67dfcbe9aa6e96cd404ce97719db4571435c66cb82ee8beadc068adbf3f60bfe4643c9c7fce8beab5b5ae3da6517af444bfa8ac5936d64401746ec047e7998ae63bc25b15e1cbbaabf33f8a33b3ff57fc370a0e98b943568fe8ec98f551ea6f10ae481d2b5ff71382cacb092dcc3103ea9bef175e6890e0122af098281f32c196186adc77f5cf71ccc0f7fbdbea97580868ebef9e2a793caea505db5c8717c8fb5dafce655367ad1829cd0a95b7ff6e4847a2ae7cfeb1df5a01"
      ],
      "sequence": 4294967294
    }
  ],
  "vout": [
    {
      "value": 499992.8817,
      "n": 0,
      "scriptPubKey": {
        "asm": "1 4b581d187af2e34336ac50e5b06a6cdb746a3c8b95703a0ebd448b9641320cf5",
        "hex": "51204b581d187af2e34336ac50e5b06a6cdb746a3c8b95703a0ebd448b9641320cf5",
        "reqSigs": 1,
        "type": "witness_v1_scripthash",
        "addresses": [
          "3QJmnh"
        ]
      }
    },
    {
      "value": 1.0,
      "n": 1,
      "scriptPubKey": {
        "asm": "OP_RETURN 186a236abd2a1cfdc690df563aecdd77746e6833a365dfef2230e782b12b6ad8 54a58ffd1f32a1600e2e29181477a51d8c68e56bf58318ee3b04c38f9b4bd8697485afdd3f1281402e0e09383457853dac48c54bd5a338ce1b24e3afbb6bf84914e5cfbd5f72e1204e6e69585437e55dcc28a52bb5c358ae7b4483cfdb0b982934c5ef9d7f52c1006e4e49787417c57dec08850b95e3788e5b64a3effb2bb809d4250f7d9fb221e08eaea99894f7259d0ce865eb7503986ebb84430f1bcb58e9f4052f5dbf9201c0ae8e89b8b4d705bd2cc845cb5523b84e9ba4632f3beb78c994654f3ddff261a0ceeee9d8d4b765dd4ca825ab3543d82efbc4034f5b8b18a9b4456f1dffd24180eecec9f8f49745fd6c88058b1563f80edbe4236f7bab388954a58ffd1f32a1600e2e29181477a51d8c68e56bf58318ee3b04c38f9b4bd8697485afdd3f1281402e0e09383457853dac48c54bd5a338ce1b24e3afbb6bf84914e5cfbd5f72e1204e6e69585437e55dcc28a52bb5c358ae7b4483cfdb0b982934c5ef9d7f52c1006e4e49787417c57dec08850b95e3788e5b64a3effb2bb809d4250f7d9fb221e08eaea99894f7259d0ce865eb7503986ebb84430f1bcb58e9f4052f5dbf9201c0ae8e89b8b4d705bd2cc845cb5523b84e9ba4632f3beb78c994654f3ddff261a0ceeee9d8d4b765dd4ca825ab3543d82efbc4034f5b8b18a9b4456f1dffd24180eecec9f8f49745fd6c88058b1563f80edbe4236f7bab388954a58ffd1f32a1600e2e29181477a51d8c68e56bf58318ee3b04c38f9b4bd8697485afdd3f1281402e0e09383457853dac48c54bd5a338ce1b24e3afbb6bf84914e5cfbd5f72e1204e6e69585437e55dcc28a52bb5c358ae7b4483cfdb0b982934c5ef9d7f52c1006e4e49787417c57dec08850b95e3788e5b64a3effb2bb809d4250f7d9fb221e08eaea99894f7259d0ce865eb7503986ebb84430f1bcb58e9f4052f5dbf9201c0ae8e89b8b4d705bd2cc845cb5523b84e9ba4632f3beb78c994654f3ddff261a0ceeee9d8d4b765dd4ca825ab3543d82efbc4034f5b8b18a9b4456f1dffd24180eecec9f8f49745fd6c88058b1563f80edbe4236f7bab388954a58ffd1f32a1600e2e29181477a51d8c68e56bf58318ee3b04c38f9b4bd8697485afdd3f1281402e0e09383457853dac48c54bd5a338ce1b24e3afbb6bf84914e5cfbd5f72e1204e6e69585437e55dcc28a52bb5c358ae7b4483cfdb0b982934c5ef9d7f52c1006e4e49787417c57dec08850b95e3788e5b64a3effb2bb809d4250f7d9fb221e08eaea99894f7259d0ce865eb7503986ebb84430f1bcb58e9f4052f5dbf9201c0ae8e89b8b4d705bd2cc845cb5523b84e9ba4632f3beb78c994654f3ddff261a0ceeee9d8d4b765dd4ca825ab3543d82efbc4034f5b8b18a9b4456f1dffd24180eecec9f8f49745fd6c88058b1563f80edbe4236f7bab388954a58ffd1f32a1600e2e29181477a51d8c68e56bf58318ee3b04c38f9b4bd8697485afdd3f1281402e0e09383457853dac48c54bd5a338ce1b24e3afbb6bf84914e5cfbd5f72e1204e6e69585437e55dcc28a52bb5c358ae7b4483cfdb0b982934c5ef9d7f52c1006e4e49787417c57dec08850b95e3788e5b64a3effb2bb809d4250f7d9fb221e08eaea99894f7259d22c189402df9c1d7729e18e8d22b04e42b7f628d34c180cbdbe8f6c20bb7058d",
        "hex": "6a20186a236abd2a1cfdc690df563aecdd77746e6833a365dfef2230e782b12b6ad84db00454a58ffd1f32a1600e2e29181477a51d8c68e56bf58318ee3b04c38f9b4bd8697485afdd3f1281402e0e09383457853dac48c54bd5a338ce1b24e3afbb6bf84914e5cfbd5f72e1204e6e69585437e55dcc28a52bb5c358ae7b4483cfdb0b982934c5ef9d7f52c1006e4e49787417c57dec08850b95e3788e5b64a3effb2bb809d4250f7d9fb221e08eaea99894f7259d0ce865eb7503986ebb84430f1bcb58e9f4052f5dbf9201c0ae8e89b8b4d705bd2cc845cb5523b84e9ba4632f3beb78c994654f3ddff261a0ceeee9d8d4b765dd4ca825ab3543d82efbc4034f5b8b18a9b4456f1dffd24180eecec9f8f49745fd6c88058b1563f80edbe4236f7bab388954a58ffd1f32a1600e2e29181477a51d8c68e56bf58318ee3b04c38f9b4bd8697485afdd3f1281402e0e09383457853dac48c54bd5a338ce1b24e3afbb6bf84914e5cfbd5f72e1204e6e69585437e55dcc28a52bb5c358ae7b4483cfdb0b982934c5ef9d7f52c1006e4e49787417c57dec08850b95e3788e5b64a3effb2bb809d4250f7d9fb221e08eaea99894f7259d0ce865eb7503986ebb84430f1bcb58e9f4052f5dbf9201c0ae8e89b8b4d705bd2cc845cb5523b84e9ba4632f3beb78c994654f3ddff261a0ceeee9d8d4b765dd4ca825ab3543d82efbc4034f5b8b18a9b4456f1dffd24180eecec9f8f49745fd6c88058b1563f80edbe4236f7bab388954a58ffd1f32a1600e2e29181477a51d8c68e56bf58318ee3b04c38f9b4bd8697485afdd3f1281402e0e09383457853dac48c54bd5a338ce1b24e3afbb6bf84914e5cfbd5f72e1204e6e69585437e55dcc28a52bb5c358ae7b4483cfdb0b982934c5ef9d7f52c1006e4e49787417c57dec08850b95e3788e5b64a3effb2bb809d4250f7d9fb221e08eaea99894f7259d0ce865eb7503986ebb84430f1bcb58e9f4052f5dbf9201c0ae8e89b8b4d705bd2cc845cb5523b84e9ba4632f3beb78c994654f3ddff261a0ceeee9d8d4b765dd4ca825ab3543d82efbc4034f5b8b18a9b4456f1dffd24180eecec9f8f49745fd6c88058b1563f80edbe4236f7bab388954a58ffd1f32a1600e2e29181477a51d8c68e56bf58318ee3b04c38f9b4bd8697485afdd3f1281402e0e09383457853dac48c54bd5a338ce1b24e3afbb6bf84914e5cfbd5f72e1204e6e69585437e55dcc28a52bb5c358ae7b4483cfdb0b982934c5ef9d7f52c1006e4e49787417c57dec08850b95e3788e5b64a3effb2bb809d4250f7d9fb221e08eaea99894f7259d0ce865eb7503986ebb84430f1bcb58e9f4052f5dbf9201c0ae8e89b8b4d705bd2cc845cb5523b84e9ba4632f3beb78c994654f3ddff261a0ceeee9d8d4b765dd4ca825ab3543d82efbc4034f5b8b18a9b4456f1dffd24180eecec9f8f49745fd6c88058b1563f80edbe4236f7bab388954a58ffd1f32a1600e2e29181477a51d8c68e56bf58318ee3b04c38f9b4bd8697485afdd3f1281402e0e09383457853dac48c54bd5a338ce1b24e3afbb6bf84914e5cfbd5f72e1204e6e69585437e55dcc28a52bb5c358ae7b4483cfdb0b982934c5ef9d7f52c1006e4e49787417c57dec08850b95e3788e5b64a3effb2bb809d4250f7d9fb221e08eaea99894f7259d22c189402df9c1d7729e18e8d22b04e42b7f628d34c180cbdbe8f6c20bb7058d",
        "type": "nulldata"
      }
    }
  ],
  "blockhash": "86d3aa2e412fd1c0ad7fd5d7d84b7ddcf41a8bf652344eaa49dd1e6444ae5dce",
  "confirmations": 1,
  "time": 1764176858,
  "blocktime": 1764176858
}