{
  "hex": "010000000001013ece8b937ee8cbd6d0521a0c62324d679f95c06d4d3cdb05addf0f923290d6a90000000000feffffff026076a04b792d00002251207f587219bdf98059385490caa540ba67bf9e7c94f30ce7670cd796d04e7a204a00e1f50500000000fdd5046a20520ee5a0d6fefc0f2790f51c86a5436416d67b12a9035c3e7adca307450a42254db004346b90a200558062395d0b104019587405b8161c2cd6ffefc296abf3a3220249144bb0822075a042197d2b30603978542598363c0cf6dfcfe2b68bd383022269742bd0e24015c022791d4b500059183445f8565c6c96bfaf82d6ebb3e3624209540bf0c26035e002593d6b702079381465d8767c4cb69f8fa2f6cb93c3426229b4eb102280d500e2b9dd8b90c099d8f48538969cac567f6f42162b7323a282c994cb3002a0f520c299fdabb0e0b9f8d4a518b6bc8c765f4f62360b530382a2e9f4ab5062c09540a2f99dcbd080d998b4c578d6dcec163f2f02566b3363e2c289d48b7042e0b56082d9bdebf0a0f9b894e558f6fccc361f0f22764b1343c2e2a9346b90a200558062395d0b104019587405b8161c2cd6ffefc296abf3a3220249144bb0822075a042197d2b30603978542598363c0cf6dfcfe2b68bd383022269742bd0e24015c022791d4b500059183445f8565c6c96bfaf82d6ebb3e3624209540bf0c26035e002593d6b702079381465d8767c4cb69f8fa2f6cb93c3426229b4eb102280d500e2b9dd8b90c099d8f48538969cac567f6f42162b7323a282c994cb3002a0f520c299fdabb0e0b9f8d4a518b6bc8c765f4f62360b530382a2e9f4ab5062c09540a2f99dcbd080d998b4c578d6dcec163f2f02566b3363e2c289d48b7042e0b56082d9bdebf0a0f9b894e558f6fccc361f0f22764b1343c2e2a9346b90a200558062395d0b104019587405b8161c2cd6ffefc296abf3a3220249144bb0822075a042197d2b30603978542598363c0cf6dfcfe2b68bd383022269742bd0e24015c022791d4b500059183445f8565c6c96bfaf82d6ebb3e3624209540bf0c26035e002593d6b702079381465d8767c4cb69f8fa2f6cb93c3426229b4eb102280d500e2b9dd8b90c099d8f48538969cac567f6f42162b7323a282c994cb3002a0f520c299fdabb0e0b9f8d4a518b6bc8c765f4f62360b530382a2e9f4ab5062c09540a2f99dcbd080d998b4c578d6dcec163f2f02566b3363e2c289d48b7042e0b56082d9bdebf0a0f9b894e558f6fccc361f0f22764b1343c2e2a9346b90a200558062395d0b104019587405b8161c2cd6ffefc296abf3a3220249144bb0822075a042197d2b30603978542598363c0cf6dfcfe2b68bd383022269742bd0e24015c022791d4b500059183445f8565c6c96bfaf82d6ebb3e3624209540bf0c26035e002593d6b702079381465d8767c4cb69f8fa2f6cb93c3426229b4eb102280d500e2b9dd8b90c099d8f48538969cac567f6f42162b7323a282c994cb3002a0f520c299fdabb0e0b9f8d4a518b6bc8c765f4f62360b530382a2e9f4ab5062c09540a2f99dcbd080d998b4c578d6dcec163f2f02566b3363e2c289d48b7042e0b56082d9bdebf0a0f9b894e558f6fccc361f0f22764b1343c2e2a9346b90a200558062395d0b104019587405b8161c2cd6ffefc296abf3a3220249144bb0822075a042197d2b30603978542598363c0cf6dfcfe2b68bd383022269742bd0e24015c022791d4b500059183445f8565c6c96bfaf82d6ebb3e3624209540bf0c26035e002593d6b702079381465d8767c4cb69f8fa2f6cb93c3426229b4eb102280d500e2b9dd8b90c099d8f440dc82c2cfcb403f873573169375c6ce2d9c11ef668f4756109dffaba9217a2002fd750970ceb9388392c067bd7e1d8d505f8b9105c9c1acd20ca693746227b6672572d3ee6c65b36960f81ebf30e15e210b4a1366e66b2785176baba21bc8290e34365b001327c6df16cabec8449251f5f1a564bec09cc88e44ae1f0632d96301f0d293dcf7c6076009378c5ab4c75edd7d0f0b8c7f7bceb4c9f27553ecbc7cef84611a9acd6f44233b92b4b5459d0cb680b9e71d38ecbcb47db1b4398b7b1c6743b574222b322a1408e52cccd3cbd5c54acf8b35d50300138064ef2efe8f58a45d5f2bf89c3c1326a6c449d4840ec2ddec4e426833a08b41ba252d2adda1328bf2fa90fa8022d327f7181e749166a06ccf2c760220c51854b37ca4a9ee24f9303a896480df60caec6fbe1e0ae99cfc8dd9c0d55464deff7e533e02757dc318345066592dcde1d5280f2319d369b110069732185d13df3de2fe2cefe60bb5d193dbdc88ec2d93cbce135cbe16f645f3ab7cbf43938b579110e435096094f8187848cab8c75d138782a11b66f1469a2ac331a3052ab004c5a83c0b81602808be899b867fa8397ed6e7551c38467f1868b673b95512457a5dfa350d774707db0cd239ef3c5163bde23575793b0df21cccdbb34cb863daef3bc77353ed6722002d097f9f7a620fcf8235343dd35ccc3424ec02a4f40610683cb4275ee97a0dc8bc27e8dd3d656f06c1765a3de6b44d10f33292e9c9cf227dde247e877b5afc8d0aa54016d348f683bd26c6330c7000aa431df8b7089b36cdd5088d5d142bcc8632074fc8924024a13599ec96e5770a130ce9045d859e254a6c051e6bda81531c228b7f3161a415054998307b675ffbf38132e546e79632602f8e591e3b0144484fc63ba2617add0724084e013966f4b1c1093e42357913b328c3e3d343b7f4902338ff384042c137829b8071994f5a630f39aa3162c258fe86f88e2bb0cf7a8c8d20cdeb14c6622698c02be3fad17683e9795785bf68302e5c0276bc34087aa6887f36ba19d97edd9618e463c4c267ca424c0fc3d9cfd05a0af5f2b7666e0976fed6fdacfc2ec95e13f148d35d9c96878374adb567b3043deef841e0131dd329632056f7afbb9224b439248db9c89e1b31080bc08f3b2e85edce0dfbed417927af694497301f3ae32424d899c72442bfccd55ce6f3fa75453b06fb608614ddcfd2893ed7914ca299f085b60ff6f0cb599cf41c7378da56cee226ed63fc778db0ca896e000770200f7e2ca40007076b896575f756900eb51a6077293a7d1865224d90ae8abd4686fbd838231d704d17991e76049b8c38950608bcc640860b783abf196b5d8fd9d82d3afec8cce19a1420646a2ee2812d97a6a1883d94484935a270c2c3210166f3914c51666451401bf465eb5be504600d19e167fdba99865f09669ded40d196a2bf6b63fbbdc2435e203e3526c20cb91d89a4f71b18a84ca9eaa6b1ce25e27c576ae67ffb16164f3cb1cfd251f0617160d8ce00eaa7934c18d138bfca401c4081a93540a7c125b387f7a09586b40d77680ca1dd05312d50fdd625dae0ca6d37f4e8f9a92eb0c4e3437d36ee4b381056c007ddecc8b7435a598d3a36ebe1c0ba833e8cd731556c866e0b97e5d6462c6c3b5137a73d4db5cdbfdb77a81fad8c73d43349bcf3fd83db21859d91fe391c243eeb05e6bac7d0df8d17a3801b1ee38d3aea3de8574216348a7434ad2e6a24ed3bf2784d25d37e08e17e69db78a44bb9c3a2d843d4b6cd164f44fa51714ece3a21896c12296d0bb43d553db67450e667cb47a34ef541798158653399ce7527b8483b82ad52544529079e7d5b908639b04dd42788470a9850b3e4673d6a3babd1ab718aa50e5c8cdadd69665debd0b4fe85d3f82ee24828a2817f0e7aff64faa02dd44305f4aae23fcb0c00b24572c16d92c4c7a89685d5f0faf111a8f2eb3e341168427839f72b662bfc9fdfa0e59671b28348acaae373342c33ce4f0623946ea878f091dd69fd4edd22ad4b4576a62379cb5cc9305c026484384cae8b2d38fff107b07fbfcac86b4e9008db530ff75a67d85b2eda922a87c13bde54415ffaa0417cde1cf036cbb3723ee1b68747582fee9a72252ec85b4ea815c3d537c5cece806b699f04b13022fb81f51d29e9a34ff6b82606c4f4d06ceb86abdd76613af533c3277dcb2d8a3fa92733da779b439e514367238264dbf2615425d66069db1343a9e2e26f6b3ffc0a3f2b9be4f70b7f73391f3056cb05bb5664fafd3b31256baeac33eff4523392f1623603b602d9a9ff30940c9a6597ec64098f5880cd4c079ea67ee101c47a244d2c95c25fc78f494ab8ceba05f56ad0f960992a87605320b8e06d03185799c1301dfefc2613767e0aaf04b748a1b1f2e8202ed260010979edb9878bacfea63d33e41f190533d4fa9cdf561feea5820f13c183096477a50c6187f54b5a59c272e1c886b2793380e522c9597071c115764b831064ccec4dae182a3a626769357d164c5f320522822acdb5cde9fb4d5869df11950796514108e9ed1a2cad1236b37a6ea63f65f49f5de6991781d6c82bd316dc49ecf343a5aa8b845aad9df2dcf0630109bf18c83869da3a10774c27c89c122020b1393f92c77549049dc9abca9e000ae433765446c99057c32321c861808ab4a2a1720f99f1cce1737ecaa95c126f3eb44a00c21967d273e05fc5baa2e5c2e52ddc231773a1e16cac4e036d1ae188066880fadf5303ebe0fe091376cca7bd54041842e1e0aaafa2f7806ae4b27d59fc7f1663a77e912907cab1a573567c19dbc14ca7ce3b62d77aed4f3d2ad4937fb53427f154dab75413ae8ff2da9b1678c15c5f887b40ee69df4462969db46d63a086743b4a7c621ccf2483f7cfeff41df1a54e99374b2cefcc47a5cd9dc2ec487da482bdb224c5bcdd62f004974bd9ff3143db3649c744d4f3ecc644d6f0760ec47ad4a412300dd45be721c460cd01cf0f148200086428de31280c149413b2b7fc72e64dcecc2a49151840cdaf2b9ba95a0432647f8dd2339bae2c4040224b992fe3348550fb08a284a1bca960bd75d9103bdd6472e12f18ae06b8e4592e5f6443232d536cfec92a1580c43a29d8ad7523340008eeb69eb58108c7da2d5a65290b21e6cd88fe2f9ff83f138104b123551ac7f3f0a11b8b42ebf49e3b3e409c5b7cec30b6757ed43f8562df1be196b2b503da693faaeedd7b8e180aca87b22e017784fa8b951363826e62e9a36dfc0d236f665dbfac6a5617639f6d9c1b6d663eaef7976f84d64acadc4546079e86d361e1a2adaf0ecde50cb5ba02372380ba340c574d20d3ac081c293f575c63a5b4b8c60a122224253f434f7f97a9c4d7dde7f0f3f500283438464e51667274939eb4b7e00b0c1b2742454c5b6f7d8996a6b0c8cfd0dbe800000000000000000000000000000000000b1d2c3f01fd2105002579480f5519d85c640897d4235e53f3a5c805d791d382d58b9a7e3407bb9fae84324756f75119911bf0ccc330f00fd7e73d412493177c969a7294d1af97551d807ee8617612d38ff361da8a93b1aa837f5f5a74a45bb0dc0a2dbb334ea3e767e29c471838f845f18be189640958324200bee56732d38cf1208d13934321d0e893ab37e27d3c770207e6bccdf1abffe9703a7c9857812ff335213bfdd574dd9f73799278ebde2c0784229e9c4c6dd4562dbbc877d72d00c49016a37d03259488334abe785f61b83cc555548322cf71d47952ef7c64e1a16f2caa6719e795c207e8e102187d746f025d473085bedaa0cf3c748d03f23a119cd61fcdda6b9a48b62294eb9995ba60ed340c96ae383fe2df25073e258762ca4eb186aee2a4dd3c10d8eeb4b7cb34de252d0bd17956af2f14082ceaadf44839be13740c085b6c7984912b0bf1179338df41df4e449baa1ab733e954cac83480e5c5f104f4be5ea2c38193a81375c02afa8e103213f246070e112b5f15ef8266c4e3d293e55989fd66b607db302d6ca85f17393f54bde8ac54b43baddf26866a09302702fa01fb970dc671134757a2726538a44943e649de20874bbf481ba4f880b7bd0e135138589681fdf2eee064a26de11606e84a56385c8a3bb3cdc3596e58d80e198929715d6cfdf0e1a730c784d7e27ec6a90e810425718863eef0e64a2df551445e7a6ab422e936840d24eb1d334c6ce1827b305a612f71e402fc66b299b78f73b275dd820a74ae71aa9dcd738ebf0a20daa4f05ff2b54248fc469c9c4ae458b2abf515894c20854790e4a1d8b0aa7ec7359eb5411e8454282ba1a005b709a2a5cdeae1c608bd860ddb42beed11456e06923f91d8cf92c95051d057ff5e1091c74c880f8015fd6c7f5df62370b3334bc7f3eff064db3c6789d43733c6d0499f0425c618b63c0f1d92c631a550ceafe333cbc156405207c2ffe78fca8aeba8f3b965f20fcdc82f2fddd06ad7c871bdc07f5ceaaff6f370c4cfe0139a82d736d36c7c97f17b36557cc38a26ab7d949218d8d91df96a38b0eb561ffe514cd46f2ef87281db951edb907bcdb6e64b49644f87562832d3730a6fbd0141e0078b483e6f9647ec3a8f90ae5fcacb2cc71be442e2fcd1d677a15e014e32526b4809c1447b38a8958a88c7b81e3e0cd8d849a3686f4ee0f400a6f9353b5d252d8fb973fada52e118f78c4d493012777152de68071cf6daf31bb7ce1a34456ca0df73459e0ce116f20fdf8ca8695dcfe7ac911a25f7168a8f93cfde7dfbbd87b4ae1a1078ec258d9874a359d33302a1ea1adfeb2dcbec3146e73fe6a6589b22306bf1b83125ccec8421403c96d0c5c88edbc788594d42625552e3a1b02ef578cdad4f68417143727594bf7d15c28a8998f1906537c0dd5e4d2120a16b7fbba78bcfd9c9c291bbe1c0bb51c815a38298b6911f5dfb89ba4be0e2cf7067ca2e30bc241735e2ae9007aaf4b62462dfebe3d38e04ea92364584a134c37c0829e709e09bf7ede031944a348a0c84d91c9da7d2e418985b24f73ab3cdc7d0980425da6d03c900d7aaa809ea38464b4e981697e4f8273e82657b51e139ff878a523806c89124474aab8ca2be3e4a1ccb70b781efdc89c663ba66b15aeed19b39822ae154444ab9d9127e205260e6c36261a82ec96e7d4a267d5534ae52b6e8a08c632f4e6a7f1fb478cb003c9128655377f5456c398fbead2cd8e45ba6c996ab7fcaebe7490603e14beff98c7be508771911020d33ec9e3461a2002432a294f439f0cb15f3a91a9c0bacc79a2b5a75e3a902067afd1ef327165a88580a45a6ba43aa33bec03c9cd5a688fd03081b73000000",
  "txid": "e349d235195c0572a6b0e6214bf7971f515fe1dd1e714ad2ee9b1990c2ec99e7",
  "hash": "e2633e2b680618b4b433da660c1fb520fc311e2044de9cd48976b35fc70817a9",
  "size": 5085,
  "vsize": 2278,
  "version": 1,
  "locktime": 115,
  "vin": [
    {
      "txid": "a9d69032920fdfad05db3c4d6dc0959f674d32620c1a52d0d6cbe87e938bce3e",
      "vout": 0,
      "scriptSig": {
        "asm": "",
        "hex": ""
      },
      "txinwitness": [
        "70ceb9388392c067bd7e1d8d505f8b9105c9c1acd20ca693746227b6672572d3ee6c65b36960f81ebf30e15e210b4a1366e66b2785176baba21bc8290e34365b001327c6df16cabec8449251f5f1a564bec09cc88e44ae1f0632d96301f0d293dcf7c6076009378c5ab4c75edd7d0f0b8c7f7bceb4c9f27553ecbc7cef84611a9acd6f44233b92b4b5459d0cb680b9e71d38ecbcb47db1b4398b7b1c6743b574222b322a1408e52cccd3cbd5c54acf8b35d50300138064ef2efe8f58a45d5f2bf89c3c1326a6c449d4840ec2ddec4e426833a08b41ba252d2adda1328bf2fa90fa8022d327f7181e749166a06ccf2c760220c51854b37ca4a9ee24f9303a896480df60caec6fbe1e0ae99cfc8dd9c0d55464deff7e533e02757dc318345066592dcde1d5280f2319d369b110069732185d13df3de2fe2cefe60bb5d193dbdc88ec2d93cbce135cbe16f645f3ab7cbf43938b579110e435096094f8187848cab8c75d138782a11b66f1469a2ac331a3052ab004c5a83c0b81602808be899b867fa8397ed6e7551c38467f1868b673b95512457a5dfa350d774707db0cd239ef3c5163bde23575793b0df21cccdbb34cb863daef3bc77353ed6722002d097f9f7a620fcf8235343dd35ccc3424ec02a4f40610683cb4275ee97a0dc8bc27e8dd3d656f06c1765a3de6b44d10f33292e9c9cf227dde247e877b5afc8d0aa54016d348f683bd26c6330c7000aa431df8b7089b36cdd5088d5d142bcc8632074fc8924024a13599ec96e5770a130ce9045d859e254a6c051e6bda81531c228b7f3161a415054998307b675ffbf38132e546e79632602f8e591e3b0144484fc63ba2617add0724084e013966f4b1c1093e42357913b328c3e3d343b7f4902338ff384042c137829b8071994f5a630f39aa3162c258fe86f88e2bb0cf7a8c8d20cdeb14c6622698c02be3fad17683e9795785bf68302e5c0276bc34087aa6887f36ba19d97edd9618e463c4c267ca424c0fc3d9cfd05a0af5f2b7666e0976fed6fdacfc2ec95e13f148d35d9c96878374adb567b3043deef841e0131dd329632056f7afbb9224b439248db9c89e1b31080bc08f3b2e85edce0dfbed417927af694497301f3ae32424d899c72442bfccd55ce6f3fa75453b06fb608614ddcfd2893ed7914ca299f085b60ff6f0cb599cf41c7378da56cee226ed63fc778db0ca896e000770200f7e2ca40007076b896575f756900eb51a6077293a7d1865224d90ae8abd4686fbd838231d704d17991e76049b8c38950608bcc640860b783abf196b5d8fd9d82d3afec8cce19a1420646a2ee2812d97a6a1883d94484935a270c2c3210166f3914c51666451401bf465eb5be504600d19e167fdba99865f09669ded40d196a2bf6b63fbbdc2435e203e3526c20cb91d89a4f71b18a84ca9eaa6b1ce25e27c576ae67ffb16164f3cb1cfd251f0617160d8ce00eaa7934c18d138bfca401c4081a93540a7c125b387f7a09586b40d77680ca1dd05312d50fdd625dae0ca6d37f4e8f9a92eb0c4e3437d36ee4b381056c007ddecc8b7435a598d3a36ebe1c0ba833e8cd731556c866e0b97e5d6462c6c3b5137a73d4db5cdbfdb77a81fad8c73d43349bcf3fd83db21859d91fe391c243eeb05e6bac7d0df8d17a3801b1ee38d3aea3de8574216348a7434ad2e6a24ed3bf2784d25d37e08e17e69db78a44bb9c3a2d843d4b6cd164f44fa51714ece3a21896c12296d0bb43d553db67450e667cb47a34ef541798158653399ce7527b8483b82ad52544529079e7d5b908639b04dd42788470a9850b3e4673d6a3babd1ab718aa50e5c8cdadd69665debd0b4fe85d3f82ee24828a2817f0e7aff64faa02dd44305f4aae23fcb0c00b24572c16d92c4c7a89685d5f0faf111a8f2eb3e341168427839f72b662bfc9fdfa0e59671b28348acaae373342c33ce4f0623946ea878f091dd69fd4edd22ad4b4576a62379cb5cc9305c026484384cae8b2d38fff107b07fbfcac86b4e9008db530ff75a67d85b2eda922a87c13bde54415ffaa0417cde1cf036cbb3723ee1b68747582fee9a72252ec85b4ea815c3d537c5cece806b699f04b13022fb81f51d29e9a34ff6b82606c4f4d06ceb86abdd76613af533c3277dcb2d8a3fa92733da779b439e514367238264dbf2615425d66069db1343a9e2e26f6b3ffc0a3f2b9be4f70b7f73391f3056cb05bb5664fafd3b31256baeac33eff4523392f1623603b602d9a9ff30940c9a6597ec64098f5880cd4c079ea67ee101c47a244d2c95c25fc78f494ab8ceba05f56ad0f960992a87605320b8e06d03185799c1301dfefc2613767e0aaf04b748a1b1f2e8202ed260010979edb9878bacfea63d33e41f190533d4fa9cdf561feea5820f13c183096477a50c6187f54b5a59c272e1c886b2793380e522c9597071c115764b831064ccec4dae182a3a626769357d164c5f320522822acdb5cde9fb4d5869df11950796514108e9ed1a2cad1236b37a6ea63f65f49f5de6991781d6c82bd316dc49ecf343a5aa8b845aad9df2dcf0630109bf18c83869da3a10774c27c89c122020b1393f92c77549049dc9abca9e000ae433765446c99057c32321c861808ab4a2a1720f99f1cce1737ecaa95c126f3eb44a00c21967d273e05fc5baa2e5c2e52ddc231773a1e16cac4e036d1ae188066880fadf5303ebe0fe091376cca7bd54041842e1e0aaafa2f7806ae4b27d59fc7f1663a77e912907cab1a573567c19dbc14ca7ce3b62d77aed4f3d2ad4937fb53427f154dab75413ae8ff2da9b1678c15c5f887b40ee69df4462969db46d63a086743b4a7c621ccf2483f7cfeff41df1a54e99374b2cefcc47a5cd9dc2ec487da482bdb224c5bcdd62f004974bd9ff3143db3649c744d4f3ecc644d6f0760ec47ad4a412300dd45be721c460cd01cf0f148200086428de31280c149413b2b7fc72e64dcecc2a49151840cdaf2b9ba95a0432647f8dd2339bae2c4040224b992fe3348550fb08a284a1bca960bd75d9103bdd6472e12f18ae06b8e4592e5f6443232d536cfec92a1580c43a29d8ad7523340008eeb69eb58108c7da2d5a65290b21e6cd88fe2f9ff83f138104b123551ac7f3f0a11b8b42ebf49e3b3e409c5b7cec30b6757ed43f8562df1be196b2b503da693faaeedd7b8e180aca87b22e017784fa8b951363826e62e9a36dfc0d236f665dbfac6a5617639f6d9c1b6d663eaef7976f84d64acadc4546079e86d361e1a2adaf0ecde50cb5ba02372380ba340c574d20d3ac081c293f575c63a5b4b8c60a122224253f434f7f97a9c4d7dde7f0f3f500283438464e51667274939eb4b7e00b0c1b2742454c5b6f7d8996a6b0c8cfd0dbe800000000000000000000000000000000000b1d2c3f01",
        "002579480f5519d85c640897d4235e53f3a5c805d791d382d58b9a7e3407bb9fae84324756f75119911bf0ccc330f00fd7e73d412493177c969a7294d1af97551d807ee8617612d38ff361da8a93b1aa837f5f5a74a45bb0dc0a2dbb334ea3e767e29c471838f845f18be189640958324200bee56732d38cf1208d13934321d0e893ab37e27d3c770207e6bccdf1abffe9703a7c9857812ff335213bfdd574dd9f73799278ebde2c0784229e9c4c6dd4562dbbc877d72d00c49016a37d03259488334abe785f61b83cc555548322cf71d47952ef7c64e1a16f2caa6719e795c207e8e102187d746f025d473085bedaa0cf3c748d03f23a119cd61fcdda6b9a48b62294eb9995ba60ed340c96ae383fe2df25073e258762ca4eb186aee2a4dd3c10d8eeb4b7cb34de252d0bd17956af2f14082ceaadf44839be13740c085b6c7984912b0bf1179338df41df4e449baa1ab733e954cac83480e5c5f104f4be5ea2c38193a81375c02afa8e103213f246070e112b5f15ef8266c4e3d293e55989fd66b607db302d6ca85f17393f54bde8ac54b43baddf26866a09302702fa01fb970dc671134757a2726538a44943e649de20874bbf481ba4f880b7bd0e135138589681fdf2eee064a26de11606e84a56385c8a3bb3cdc3596e58d80e198929715d6cfdf0e1a730c784d7e27ec6a90e810425718863eef0e64a2df551445e7a6ab422e936840d24eb1d334c6ce1827b305a612f71e402fc66b299b78f73b275dd820a74ae71aa9dcd738ebf0a20daa4f05ff2b54248fc469c9c4ae458b2abf515894c20854790e4a1d8b0aa7ec7359eb5411e8454282ba1a005b709a2a5cdeae1c608bd860ddb42beed11456e06923f91d8cf92c95051d057ff5e1091c74c880f8015fd6c7f5df62370b3334bc7f3eff064db3c6789d43733c6d0499f0425c618b63c0f1d92c631a550ceafe333cbc156405207c2ffe78fca8aeba8f3b965f20fcdc82f2fddd06ad7c871bdc07f5ceaaff6f370c4cfe0139a82d736d36c7c97f17b36557cc38a26ab7d949218d8d91df96a38b0eb561ffe514cd46f2ef87281db951edb907bcdb6e64b49644f87562832d3730a6fbd0141e0078b483e6f9647ec3a8f90ae5fcacb2cc71be442e2fcd1d677a15e014e32526b4809c1447b38a8958a88c7b81e3e0cd8d849a3686f4ee0f400a6f9353b5d252d8fb973fada52e118f78c4d493012777152de68071cf6daf31bb7ce1a34456ca0df73459e0ce116f20fdf8ca8695dcfe7ac911a25f7168a8f93cfde7dfbbd87b4ae1a1078ec258d9874a359d33302a1ea1adfeb2dcbec3146e73fe6a6589b22306bf1b83125ccec8421403c96d0c5c88edbc788594d42625552e3a1b02ef578cdad4f68417143727594bf7d15c28a8998f1906537c0dd5e4d2120a16b7fbba78bcfd9c9c291bbe1c0bb51c815a38298b6911f5dfb89ba4be0e2cf7067ca2e30bc241735e2ae9007aaf4b62462dfebe3d38e04ea92364584a134c37c0829e709e09bf7ede031944a348a0c84d91c9da7d2e418985b24f73ab3cdc7d0980425da6d03c900d7aaa809ea38464b4e981697e4f8273e82657b51e139ff878a523806c89124474aab8ca2be3e4a1ccb70b781efdc89c663ba66b15aeed19b39822ae154444ab9d9127e205260e6c36261a82ec96e7d4a267d5534ae52b6e8a08c632f4e6a7f1fb478cb003c9128655377f5456c398fbead2cd8e45ba6c996ab7fcaebe7490603e14beff98c7be508771911020d33ec9e3461a2002432a294f439f0cb15f3a91a9c0bacc79a2b5a75e3a902067afd1ef327165a88580a45a6ba43aa33bec03c9cd5a688fd03081b"
      ],
      "sequence": 4294967294
    }
  ],
  "vout": [
    {
      "value": 499989.831,
      "n": 0,
      "scriptPubKey": {
        "asm": "1 7f587219bdf98059385490caa540ba67bf9e7c94f30ce7670cd796d04e7a204a",
        "hex": "51207f587219bdf98059385490caa540ba67bf9e7c94f30ce7670cd796d04e7a204a",
        "reqSigs": 1,
        "type": "witness_v1_scripthash",
        "addresses": [
          "3QJmnh"
        ]
      }
    },
    {
      "value": 1.0,
      "n": 1,
      "scriptPubKey": {
        "asm": "OP_RETURN 520ee5a0d6fefc0f2790f51c86a5436416d67b12a9035c3e7adca307450a4225 346b90a200558062395d0b104019587405b8161c2cd6ffefc296abf3a3220249144bb0822075a042197d2b30603978542598363c0cf6dfcfe2b68bd383022269742bd0e24015c022791d4b500059183445f8565c6c96bfaf82d6ebb3e3624209540bf0c26035e002593d6b702079381465d8767c4cb69f8fa2f6cb93c3426229b4eb102280d500e2b9dd8b90c099d8f48538969cac567f6f42162b7323a282c994cb3002a0f520c299fdabb0e0b9f8d4a518b6bc8c765f4f62360b530382a2e9f4ab5062c09540a2f99dcbd080d998b4c578d6dcec163f2f02566b3363e2c289d48b7042e0b56082d9bdebf0a0f9b894e558f6fccc361f0f22764b1343c2e2a9346b90a200558062395d0b104019587405b8161c2cd6ffefc296abf3a3220249144bb0822075a042197d2b30603978542598363c0cf6dfcfe2b68bd383022269742bd0e24015c022791d4b500059183445f8565c6c96bfaf82d6ebb3e3624209540bf0c26035e002593d6b702079381465d8767c4cb69f8fa2f6cb93c3426229b4eb102280d500e2b9dd8b90c099d8f48538969cac567f6f42162b7323a282c994cb3002a0f520c299fdabb0e0b9f8d4a518b6bc8c765f4f62360b530382a2e9f4ab5062c09540a2f99dcbd080d998b4c578d6dcec163f2f02566b3363e2c289d48b7042e0b56082d9bdebf0a0f9b894e558f6fccc361f0f22764b1343c2e2a9346b90a200558062395d0b104019587405b8161c2cd6ffefc296abf3a3220249144bb0822075a042197d2b30603978542598363c0cf6dfcfe2b68bd383022269742bd0e24015c022791d4b500059183445f8565c6c96bfaf82d6ebb3e3624209540bf0c26035e002593d6b702079381465d8767c4cb69f8fa2f6cb93c3426229b4eb102280d500e2b9dd8b90c099d8f48538969cac567f6f42162b7323a282c994cb3002a0f520c299fdabb0e0b9f8d4a518b6bc8c765f4f62360b530382a2e9f4ab5062c09540a2f99dcbd080d998b4c578d6dcec163f2f02566b3363e2c289d48b7042e0b56082d9bdebf0a0f9b894e558f6fccc361f0f22764b1343c2e2a9346b90a200558062395d0b104019587405b8161c2cd6ffefc296abf3a3220249144bb0822075a042197d2b30603978542598363c0cf6dfcfe2b68bd383022269742bd0e24015c022791d4b500059183445f8565c6c96bfaf82d6ebb3e3624209540bf0c26035e002593d6b702079381465d8767c4cb69f8fa2f6cb93c3426229b4eb102280d500e2b9dd8b90c099d8f48538969cac567f6f42162b7323a282c994cb3002a0f520c299fdabb0e0b9f8d4a518b6bc8c765f4f62360b530382a2e9f4ab5062c09540a2f99dcbd080d998b4c578d6dcec163f2f02566b3363e2c289d48b7042e0b56082d9bdebf0a0f9b894e558f6fccc361f0f22764b1343c2e2a9346b90a200558062395d0b104019587405b8161c2cd6ffefc296abf3a3220249144bb0822075a042197d2b30603978542598363c0cf6dfcfe2b68bd383022269742bd0e24015c022791d4b500059183445f8565c6c96bfaf82d6ebb3e3624209540bf0c26035e002593d6b702079381465d8767c4cb69f8fa2f6cb93c3426229b4eb102280d500e2b9dd8b90c099d8f440dc82c2cfcb403f873573169375c6ce2d9c11ef668f4756109dffaba9217a20",
        "hex": "6a20520ee5a0d6fefc0f2790f51c86a5436416d67b12a9035c3e7adca307450a42254db004346b90a200558062395d0b104019587405b8161c2cd6ffefc296abf3a3220249144bb0822075a042197d2b30603978542598363c0cf6dfcfe2b68bd383022269742bd0e24015c022791d4b500059183445f8565c6c96bfaf82d6ebb3e3624209540bf0c26035e002593d6b702079381465d8767c4cb69f8fa2f6cb93c3426229b4eb102280d500e2b9dd8b90c099d8f48538969cac567f6f42162b7323a282c994cb3002a0f520c299fdabb0e0b9f8d4a518b6bc8c765f4f62360b530382a2e9f4ab5062c09540a2f99dcbd080d998b4c578d6dcec163f2f02566b3363e2c289d48b7042e0b56082d9bdebf0a0f9b894e558f6fccc361f0f22764b1343c2e2a9346b90a200558062395d0b104019587405b8161c2cd6ffefc296abf3a3220249144bb0822075a042197d2b30603978542598363c0cf6dfcfe2b68bd383022269742bd0e24015c022791d4b500059183445f8565c6c96bfaf82d6ebb3e3624209540bf0c26035e002593d6b702079381465d8767c4cb69f8fa2f6cb93c3426229b4eb102280d500e2b9dd8b90c099d8f48538969cac567f6f42162b7323a282c994cb3002a0f520c299fdabb0e0b9f8d4a518b6bc8c765f4f62360b530382a2e9f4ab5062c09540a2f99dcbd080d998b4c578d6dcec163f2f02566b3363e2c289d48b7042e0b56082d9bdebf0a0f9b894e558f6fccc361f0f22764b1343c2e2a9346b90a200558062395d0b104019587405b8161c2cd6ffefc296abf3a3220249144bb0822075a042197d2b30603978542598363c0cf6dfcfe2b68bd383022269742bd0e24015c022791d4b500059183445f8565c6c96bfaf82d6ebb3e3624209540bf0c26035e002593d6b702079381465d8767c4cb69f8fa2f6cb93c3426229b4eb102280d500e2b9dd8b90c099d8f48538969cac567f6f42162b7323a282c994cb3002a0f520c299fdabb0e0b9f8d4a518b6bc8c765f4f62360b530382a2e9f4ab5062c09540a2f99dcbd080d998b4c578d6dcec163f2f02566b3363e2c289d48b7042e0b56082d9bdebf0a0f9b894e558f6fccc361f0f22764b1343c2e2a9346b90a200558062395d0b104019587405b8161c2cd6ffefc296abf3a3220249144bb0822075a042197d2b30603978542598363c0cf6dfcfe2b68bd383022269742bd0e24015c022791d4b500059183445f8565c6c96bfaf82d6ebb3e3624209540bf0c26035e002593d6b702079381465d8767c4cb69f8fa2f6cb93c3426229b4eb102280d500e2b9dd8b90c099d8f48538969cac567f6f42162b7323a282c994cb3002a0f520c299fdabb0e0b9f8d4a518b6bc8c765f4f62360b530382a2e9f4ab5062c09540a2f99dcbd080d998b4c578d6dcec163f2f02566b3363e2c289d48b7042e0b56082d9bdebf0a0f9b894e558f6fccc361f0f22764b1343c2e2a9346b90a200558062395d0b104019587405b8161c2cd6ffefc296abf3a3220249144bb0822075a042197d2b30603978542598363c0cf6dfcfe2b68bd383022269742bd0e24015c022791d4b500059183445f8565c6c96bfaf82d6ebb3e3624209540bf0c26035e002593d6b702079381465d8767c4cb69f8fa2f6cb93c3426229b4eb102280d500e2b9dd8b90c099d8f440dc82c2cfcb403f873573169375c6ce2d9c11ef668f4756109dffaba9217a20",
        "type": "nulldata"
      }
    }
  ],
  "blockhash": "b157fe5006ea74e3e2696296011f5383f171fa956e468cbbd84742f98a1af3af",
  "confirmations": 1,
  "time": 1764179051,
  "blocktime": 1764179051
}