{
  "hex": "01000000000101bfa8d8f9d19914173657ce10a6703f80c5267f73c2ba1554e012f8860e98d3f20000000000feffffff0200e1f50500000000fdd5046a20679792cd4979bbd1a89bbaa445de12c38c0c41c0e723250fc60acf4cc33ca17c4db00400a5afe3fff121a61705e1b76eab89516a6f88bcc25d6a0e277b260462e3830320858fc3dfd101863725c1974e8ba9714a4fa89ce27d4a2e075b062442c3a32340e5efa3bfb161e65745a1f72eebc9112a2fc8fc821d2a4e673b664422a3c34360c5cf839f9141c6776581d70ecbe9310a0fe8dca23d0a6e471b46640283e36380252f637f71a12697856137ee2b09d1eaef083c42ddea8ea7fba684e2630383a0050f435f518106b7a54117ce0b29f1cacf281c62fdcaae87db86a4c24323a3c0656f233f31e166d7c52177ae6b4991aaaf487c029daacee7bbe6c4a22343c3e0454f031f11c146f7e501578e4b69b18a8f685c22bd8aeec79bc6e4820363e300a5afe3fff121a61705e1b76eab89516a6f88bcc25d6a0e277b260462e3830320858fc3dfd101863725c1974e8ba9714a4fa89ce27d4a2e075b062442c3a32340e5efa3bfb161e65745a1f72eebc9112a2fc8fc821d2a4e673b664422a3c34360c5cf839f9141c6776581d70ecbe9310a0fe8dca23d0a6e471b46640283e36380252f637f71a12697856137ee2b09d1eaef083c42ddea8ea7fba684e2630383a0050f435f518106b7a54117ce0b29f1cacf281c62fdcaae87db86a4c24323a3c0656f233f31e166d7c52177ae6b4991aaaf487c029daacee7bbe6c4a22343c3e0454f031f11c146f7e501578e4b69b18a8f685c22bd8aeec79bc6e4820363e300a5afe3fff121a61705e1b76eab89516a6f88bcc25d6a0e277b260462e3830320858fc3dfd101863725c1974e8ba9714a4fa89ce27d4a2e075b062442c3a32340e5efa3bfb161e65745a1f72eebc9112a2fc8fc821d2a4e673b664422a3c34360c5cf839f9141c6776581d70ecbe9310a0fe8dca23d0a6e471b46640283e36380252f637f71a12697856137ee2b09d1eaef083c42ddea8ea7fba684e2630383a0050f435f518106b7a54117ce0b29f1cacf281c62fdcaae87db86a4c24323a3c0656f233f31e166d7c52177ae6b4991aaaf487c029daacee7bbe6c4a22343c3e0454f031f11c146f7e501578e4b69b18a8f685c22bd8aeec79bc6e4820363e300a5afe3fff121a61705e1b76eab89516a6f88bcc25d6a0e277b260462e3830320858fc3dfd101863725c1974e8ba9714a4fa89ce27d4a2e075b062442c3a32340e5efa3bfb161e65745a1f72eebc9112a2fc8fc821d2a4e673b664422a3c34360c5cf839f9141c6776581d70ecbe9310a0fe8dca23d0a6e471b46640283e36380252f637f71a12697856137ee2b09d1eaef083c42ddea8ea7fba684e2630383a0050f435f518106b7a54117ce0b29f1cacf281c62fdcaae87db86a4c24323a3c0656f233f31e166d7c52177ae6b4991aaaf487c029daacee7bbe6c4a22343c3e0454f031f11c146f7e501578e4b69b18a8f685c22bd8aeec79bc6e4820363e300a5afe3fff121a61705e1b76eab89516a6f88bcc25d6a0e277b260462e3830320858fc3dfd101863725c1974e8ba9714a4fa89ce27d4a2e075b062442c3a32340e5efa3bfb161e65745a1f72eebc9112a2fc8fc821d2a4e673b664422a3c34360c5cf839f9141c6776581d70ecbe9310a0fe8dca23d0a6e471b46640283e36380252f637f71a12697856137ee2b09d141f3c4ae45bd69de4d4436e3725c7f2dc484da1d4d3fa15bf57ed770cb239fc41076cf5d792d000022512082e929ab29fa38e0b84a0e2baa654e77dbe29cb0e1017404e773874c96de069a02fd75099e7c2b1c76901e123db209e34e07af15413976b6a40f426cce87e96cb3886a83484cc33ae3bd7bdfe9d7d6ec2b5819cc9ab90667bd504ba513acb2a4974078c1e2306e2556a3718f532e6137e4f4f7b35fe1536d761b821693139285f808b80c89b76b3219599b891a9e8a59311a009c89b25dfb250f9eca5f7e1a1ccd395a1e0853bb6fa51d5310a5f76eea09bc24edffbc360f0c0f126c8f2b32cdba625ab9e9cbfb9799f9acd2c3026a620adc499144f4f526852250cddad1446845d8d69818b37dbef4d9d02ba867da44ff67195875b955c149539b8952f9d7ef7829d1f181e0a4d330d3c00029964446d07cffceb8eafef34d64032d750693fb55dc668f07f866523987b05d95913adb8e78df1737aa8a9589d5134aaebbe5372ae8bcf06b341b97752c9139eb3bbdde8e8cb7c89cdfcc3391e2752cb7f865b3a06087ae66a7d27855d82fba31ffcadac27cfa823b97d9b27c57ebc743baa78925436ae7698005c6aec46cb6aa9d5a45183afc0dd5667831bd013f97d9150f8b596e0eadc2a6f68b7a70934187e68b9084bcc4cef30730f45d2e9d0bd6b9b79a46b4a8b35d6ad33aae52d4752ff709ddae43fc587b8366646fa01d93a0502aba745c382c6a46f61311bfb240a366f78beba6f0583697ff38fc702d1eb4f7e7b971c20b604e745d2fdf085d398c536d365b157c63fba0d9b34756f2976b6fb86424fbb1bf3af6d6d83a1e569f4da32b58ced07374dce705f5be2a953be3e549b48a914e9fb017f98b9b3694d605363a9dc4e5d43079c048bebea9180756e6e6b1c22c74a7b8a555825247ee934066fd9dcb0686da7cb438d17b2ea9808dd6b79643492a27d9bcbf7e28cb1d1c6be517117b11471f83ddd3774b2e5bbfe3185ce3e35d03bfae97973d9c648249fa94bad4cd9df0eb7f44b71b5e3f0baa260fced092963597280ae18d77daad38b504029a3a017af4185985ce1c08d6c7f1823e325c668cf4bb6ad4d141ef91eae124b1962119cc1d20b4aab181f4394d5d06d14d00d5fb0961b575e681fe2f09c6363a218a801b8e8b97934eee9f11a00710fb37d132b43e62077fd43e181700917cc670576270390a69d9e18ef3a79302d423a7e802115d8bfb80fb913010c2161a698fdf436e85559983ca711c32e2eece6a853f4671462382b111fe0d7ba18c85a7e7f9ea0b27f3084594db588a055a8f466aad8e490b13fa204e239c26beefee2d915aeb363cf0beb8c1a8c70bdf786d4d95ec2cf00eda7170cb60bb4c17ed390302135968a21a1e5e47eadf807f9bdd8d32ca1a40556ebf83405d83482cd142d77b19f56855ce3b1da767713fb6b86f736c1b92eea128cb29d4a6df97005e18a36f4450a04a503ca8c43e1b1cc97b7d6e3ee74f6db770c77d8322008cba38db90f8ee19dd944092df1887c445f5e8614753f83f107f494ec74da700095dcb7a20270c6728297c86003a5d9601889825947cab62cd6db5d2df0a0d100cab2fbff5162e8f30b61425f75468fda70b4f06c766640f8407253497b07c625395b71ccd20583e0aa85b0f7a69afd5ae40778087242b7d82cd19dbd893728ae01fafbf05f53c7975868b70aa6c4ff496d1a6375ace0867cf55d488867bd7bc2ff8d64a378bfa6fef6742024ff153729ae48ecec15f4833beb51917f011a9d4318b91c1e28e064064a0d6ed4e1ad02eb990c43008d8fa75d2a83cf84f86f70962bb42d9d7f846cb18ef1cb46a90a9476c5a52330514db76d23bda3ca2f23c8ba56a02e84559c4883d609bd64312bd169695fe66de28cfc165bdf129a795f11acae17df9d65d32827831ef006e1dcd32403ed4aa3e3323c5ee055fbcd6da12381b540dcc1c531a6ae9c9ec249091d62d94248fa274c6466656d3c0839af20a265763e76a9f61a210b042aa657f317258eabe9e59144ae8d7cb19cd3812a38b41082a1f50b0a563c2b7fb40deed31e48a330f2355786b5a021e08a831ffb808ac7577b6288580cab24737571a566f0ae0a0711d002b6d5a9881c37fdf80354c5afa014592412e025d17879fbe68b8fd5444f2022ed086354875eaa0351068a87cebfe1ab2f18387f826948f7268596160cfe0d8bc559618116f233ca2fb2dc3660212ad6623c2d135a695635910805d5194cebc4017ebc135a55f18a704be2dbd7d6580530483316ded3dcab07fb572927f02aa52d79f9f85dc6f8067bb798846fdff74976588b386d401585045265842700df9faee0ec8be741591a0c62ad71e1e0e0884c42d5bc91eb97a20665b1d493615a6f179fbade2af3e9b784a9dfda3cce79e9899e5115d239fc073d1b33c6bb6a7fcd4c9d20662d0dec13462e8b8c2183fbdd5a2a5af6726515977000c9f155f868962f48dcd051c3cb329b25933c71c4309d7e282ccf0aa999656a171c50929d9308bdacca93e6553fb17f32d74b21d546fd88eb81d526927ca743a43f0aada93ca8d31174f155cbf9438822592a61755b84a773a52621f3a5aaa8c92bd3423263f20f46bc6f270dfaaa4fb57c6b8202c8c8818675b748e87d84ffdd385eead133a5a7730dd9ff5b396d7a4b8e9b49dc0b5bee1a3516a395b24a084a6fd979f9aa580131b73d11333b23f363f147119e4f8c84c1a4ad91b5930d95ce5f2ba916bce7f94d3012cf919bac1f90726f7ebbbe2f72122d93e4b6a55dba612f276f8e0ba52557c535fb6a2d60d1a9092f033520d4255bc509057b719684e5c071f510e0c3cce14ee7d61308ba42cbc30deb6362fcde0699f27d65c83bbc46e3b4b858b1aadae25bb26a3b4a26ede73f734d6a02af49ebf76aaba7508584683e3426035676230fbf9f2cc911cbeae941b0698694154c8184ab75e4e93b402a91d91b0a8fee99a2176a7f1cd7f7487c94803241fa7a61608b4d02f9dfdb16ec76410fc5c10d71b08f9a7c238093a0b0e9f6b454acfaada1093e92debd90fec218b1afd3d83642be8d384241b8d1eeb63f4b2935c5fa85127989aa97364e58c1f1569cadd0e480d2755eb0a8c5b56bb13d2cf0b10046f7e280c125f77cbf95f62a5cec2de6eb5d073977195f1125b69a323c624f5332271b23e6c30bf5c36aed837054f7b83faf3854eaa0486fd73a6c9d91ce2800cdb884a3a384678528140c6b1a4e667cf31726126ca5b386fd7f4e21822ecadfb08ef904dabddd83763282b6070493acb8a170a5aebca8510c39d94bd5834a97611670267eaf6a2cf0f101a2e4313c6e0d7ca018dde93aceeb1e9139d74da2424fa1ebedd4097013fe0ab8255f21cf0addef210f0fae1c52436577aa3b3dceaf92328324a575a5c5f78808594b1bdc3eaedef000a0d1b1d34474d5a949badb7bac7cddaf2fc04070d1748535e5f65666f7b898c8d92a2acaeb8bbd6dce2ecf0f200000000000000091b2e4901fd210500a010be5fe4e2cdc63dcfa934107916c1f148dabad4d9072690d1eb9318907997734df540ab68000d791b1726eff7758078e7d1ceaf866e26621b2268b5bd4d3616976b4a42182c1e5ca105101c921c4e2994cc8114e48583c0f245334bb82d66be07cc6e8da2c40b67193bc13e2abcf0199832918ca9752e074f1c90a2e1f90b00777fb059575083d74bedb5e983f49ebcab3cda9835c8ed8fb71fa9edfd0c52ce94bf6ec7f2c21b7cda6e8dd862138dca3da0db8c16cda3904f24fa07927a6f1045dfd294175477302337bd8aeabeaab07aa510ce7b2ed0463908d15979df82c910a7047053a0fa4707898260784464f0c521bec1d0e896a1efa29a0b396810e8003b8bc6c9e2fe165a1f8abbed2f2aace61f452d15bd53881d06886e5538165b19672a2a3b31ab8c32af26ae70858ba1b4ad3d89a4664b1ff3fa4179b3f796588c5da1a32c7d0bccb010ba91366781d870dd12ec32bb54a724ebe6737336b4d4ed3bda4abed64633365c8742a5f3ff344474a2c43ba5d588518c3531680df28dff9446244e90a117f561fb4a7ffcf00aafb3f1694b919f94bf59ebd4323dc6ee80ef17c450c5ff328a2a011015a0008deff188faa987a392eb8847fbe419c0aa8d61ceb7337f8ecf426139677e933b584a4e02584a8bfc0aaeebf4be052e239f340f91f68d66e8134ec68400f2e047dbeda47906b1b8ff133e2ac5dddf36a14a2181ea0b33be289f32ea5c95cb26170c1a0f56d8bb14be47ac8211f96bc820e71690253814127305fd50978ff7f0afafe2f6520baf825f35091379d7f5cfc18fe654f96a3a122cf744a65591ce229b985ce8cd02fb2a3c21bf11ca40e1541da1459da484d957c497de2c162123f1ee265710be747e7b3a7b60daf275d6593dc9e247e2ea96701599cbbd6b21e9a9c0dbdc995ae975a4461ff75d28a7d0dabca5aa01406ae5f51799e60ba41327bbffec3957d87312579ff4538ff5d9820ce691bbe28486211de881f77b4084e8f08ac9d315b4a06265c2af57e0d734a73ec10d2bd5594504bf86b0909bca951b279091c4e7bb170f3062f584a105a5dd06d3b711b99f9f1db61fc76f5077ed54f2adcc91f193c5e25b9d9a8bfda1f34bbec68d7b3465a95c43b06120dc4fa84fb49af0402d7fc653410698ae34ab525ac88f5415b8bd6a0e02c75bcadc5d55ea622970e17b8432acb54446e9e0f8e6b3d60c5ce0f1af370fd1d2ba36e34f878cad1b71375f541affe3abe2e0b98892a1611f4e5df3a03c69e4f30dcc3a05cbf6b4dedd06fd6ae4370753620843a35c36c800d89f8c737b2ba9860761802484310d2354697b384b257337531afc5faeecfcd062a1050932d41bccb2bc094cac607ff5facc01baf53d83445d64ca9ead605a8ac485a0afebe42f9722261ab2dbfada18606607d94a0bfd7826fc7b63b7ddc0223f976f902ea188edd71b45efbd613ca6dc78d79278e68124e02e00b3a8727b232f16ee4fc9315d27b8af18c5930d38c1444a38b33358c25306dfb4c75dade2de99cbeb3504ba4bde26f6f46f131cd743b693f154ddfcf2bfea4cdb0805332988d555c9e13d1e8efefe78f30d4ae47d22883e1f27b0c2ccfb35ac249697ffdf11f74bc807deb955aee9fb8c06b9dcb3fe481b611818cec977bfb1093737c91ebf138b518a6962ee78a5e01bfcb059904bdae47858b1b92acad955b52da03ccadb0f902370117db1944e06fc40fd7ca2026171312fd289909cceb559150a8d380bdd870bd5c6aef8476651c9e35030f3eb61b5cefb0d574c674f4beb3f07990b190b0307545f815ab25232c74122a18ced4b1702d189271a90dec1e8ce95c6413769000000",
  "txid": "e06febde13b88024ad9c95a0f075c0ca201eb12ffa5f64a683c9fd976d436bf7",
  "hash": "7b2b361914907d4dee86a914447051151169d7f57cc5e7c262e50e8bfb5199b5",
  "size": 5085,
  "vsize": 2278,
  "version": 1,
  "locktime": 105,
  "vin": [
    {
      "txid": "f2d3980e86f812e05415bac2737f26c5803f70a610ce5736171499d1f9d8a8bf",
      "vout": 0,
      "scriptSig": {
        "asm": "",
        "hex": ""
      },
      "txinwitness": [
        "9e7c2b1c76901e123db209e34e07af15413976b6a40f426cce87e96cb3886a83484cc33ae3bd7bdfe9d7d6ec2b5819cc9ab90667bd504ba513acb2a4974078c1e2306e2556a3718f532e6137e4f4f7b35fe1536d761b821693139285f808b80c89b76b3219599b891a9e8a59311a009c89b25dfb250f9eca5f7e1a1ccd395a1e0853bb6fa51d5310a5f76eea09bc24edffbc360f0c0f126c8f2b32cdba625ab9e9cbfb9799f9acd2c3026a620adc499144f4f526852250cddad1446845d8d69818b37dbef4d9d02ba867da44ff67195875b955c149539b8952f9d7ef7829d1f181e0a4d330d3c00029964446d07cffceb8eafef34d64032d750693fb55dc668f07f866523987b05d95913adb8e78df1737aa8a9589d5134aaebbe5372ae8bcf06b341b97752c9139eb3bbdde8e8cb7c89cdfcc3391e2752cb7f865b3a06087ae66a7d27855d82fba31ffcadac27cfa823b97d9b27c57ebc743baa78925436ae7698005c6aec46cb6aa9d5a45183afc0dd5667831bd013f97d9150f8b596e0eadc2a6f68b7a70934187e68b9084bcc4cef30730f45d2e9d0bd6b9b79a46b4a8b35d6ad33aae52d4752ff709ddae43fc587b8366646fa01d93a0502aba745c382c6a46f61311bfb240a366f78beba6f0583697ff38fc702d1eb4f7e7b971c20b604e745d2fdf085d398c536d365b157c63fba0d9b34756f2976b6fb86424fbb1bf3af6d6d83a1e569f4da32b58ced07374dce705f5be2a953be3e549b48a914e9fb017f98b9b3694d605363a9dc4e5d43079c048bebea9180756e6e6b1c22c74a7b8a555825247ee934066fd9dcb0686da7cb438d17b2ea9808dd6b79643492a27d9bcbf7e28cb1d1c6be517117b11471f83ddd3774b2e5bbfe3185ce3e35d03bfae97973d9c648249fa94bad4cd9df0eb7f44b71b5e3f0baa260fced092963597280ae18d77daad38b504029a3a017af4185985ce1c08d6c7f1823e325c668cf4bb6ad4d141ef91eae124b1962119cc1d20b4aab181f4394d5d06d14d00d5fb0961b575e681fe2f09c6363a218a801b8e8b97934eee9f11a00710fb37d132b43e62077fd43e181700917cc670576270390a69d9e18ef3a79302d423a7e802115d8bfb80fb913010c2161a698fdf436e85559983ca711c32e2eece6a853f4671462382b111fe0d7ba18c85a7e7f9ea0b27f3084594db588a055a8f466aad8e490b13fa204e239c26beefee2d915aeb363cf0beb8c1a8c70bdf786d4d95ec2cf00eda7170cb60bb4c17ed390302135968a21a1e5e47eadf807f9bdd8d32ca1a40556ebf83405d83482cd142d77b19f56855ce3b1da767713fb6b86f736c1b92eea128cb29d4a6df97005e18a36f4450a04a503ca8c43e1b1cc97b7d6e3ee74f6db770c77d8322008cba38db90f8ee19dd944092df1887c445f5e8614753f83f107f494ec74da700095dcb7a20270c6728297c86003a5d9601889825947cab62cd6db5d2df0a0d100cab2fbff5162e8f30b61425f75468fda70b4f06c766640f8407253497b07c625395b71ccd20583e0aa85b0f7a69afd5ae40778087242b7d82cd19dbd893728ae01fafbf05f53c7975868b70aa6c4ff496d1a6375ace0867cf55d488867bd7bc2ff8d64a378bfa6fef6742024ff153729ae48ecec15f4833beb51917f011a9d4318b91c1e28e064064a0d6ed4e1ad02eb990c43008d8fa75d2a83cf84f86f70962bb42d9d7f846cb18ef1cb46a90a9476c5a52330514db76d23bda3ca2f23c8ba56a02e84559c4883d609bd64312bd169695fe66de28cfc165bdf129a795f11acae17df9d65d32827831ef006e1dcd32403ed4aa3e3323c5ee055fbcd6da12381b540dcc1c531a6ae9c9ec249091d62d94248fa274c6466656d3c0839af20a265763e76a9f61a210b042aa657f317258eabe9e59144ae8d7cb19cd3812a38b41082a1f50b0a563c2b7fb40deed31e48a330f2355786b5a021e08a831ffb808ac7577b6288580cab24737571a566f0ae0a0711d002b6d5a9881c37fdf80354c5afa014592412e025d17879fbe68b8fd5444f2022ed086354875eaa0351068a87cebfe1ab2f18387f826948f7268596160cfe0d8bc559618116f233ca2fb2dc3660212ad6623c2d135a695635910805d5194cebc4017ebc135a55f18a704be2dbd7d6580530483316ded3dcab07fb572927f02aa52d79f9f85dc6f8067bb798846fdff74976588b386d401585045265842700df9faee0ec8be741591a0c62ad71e1e0e0884c42d5bc91eb97a20665b1d493615a6f179fbade2af3e9b784a9dfda3cce79e9899e5115d239fc073d1b33c6bb6a7fcd4c9d20662d0dec13462e8b8c2183fbdd5a2a5af6726515977000c9f155f868962f48dcd051c3cb329b25933c71c4309d7e282ccf0aa999656a171c50929d9308bdacca93e6553fb17f32d74b21d546fd88eb81d526927ca743a43f0aada93ca8d31174f155cbf9438822592a61755b84a773a52621f3a5aaa8c92bd3423263f20f46bc6f270dfaaa4fb57c6b8202c8c8818675b748e87d84ffdd385eead133a5a7730dd9ff5b396d7a4b8e9b49dc0b5bee1a3516a395b24a084a6fd979f9aa580131b73d11333b23f363f147119e4f8c84c1a4ad91b5930d95ce5f2ba916bce7f94d3012cf919bac1f90726f7ebbbe2f72122d93e4b6a55dba612f276f8e0ba52557c535fb6a2d60d1a9092f033520d4255bc509057b719684e5c071f510e0c3cce14ee7d61308ba42cbc30deb6362fcde0699f27d65c83bbc46e3b4b858b1aadae25bb26a3b4a26ede73f734d6a02af49ebf76aaba7508584683e3426035676230fbf9f2cc911cbeae941b0698694154c8184ab75e4e93b402a91d91b0a8fee99a2176a7f1cd7f7487c94803241fa7a61608b4d02f9dfdb16ec76410fc5c10d71b08f9a7c238093a0b0e9f6b454acfaada1093e92debd90fec218b1afd3d83642be8d384241b8d1eeb63f4b2935c5fa85127989aa97364e58c1f1569cadd0e480d2755eb0a8c5b56bb13d2cf0b10046f7e280c125f77cbf95f62a5cec2de6eb5d073977195f1125b69a323c624f5332271b23e6c30bf5c36aed837054f7b83faf3854eaa0486fd73a6c9d91ce2800cdb884a3a384678528140c6b1a4e667cf31726126ca5b386fd7f4e21822ecadfb08ef904dabddd83763282b6070493acb8a170a5aebca8510c39d94bd5834a97611670267eaf6a2cf0f101a2e4313c6e0d7ca018dde93aceeb1e9139d74da2424fa1ebedd4097013fe0ab8255f21cf0addef210f0fae1c52436577aa3b3dceaf92328324a575a5c5f78808594b1bdc3eaedef000a0d1b1d34474d5a949badb7bac7cddaf2fc04070d1748535e5f65666f7b898c8d92a2acaeb8bbd6dce2ecf0f200000000000000091b2e4901",
        "00a010be5fe4e2cdc63dcfa934107916c1f148dabad4d9072690d1eb9318907997734df540ab68000d791b1726eff7758078e7d1ceaf866e26621b2268b5bd4d3616976b4a42182c1e5ca105101c921c4e2994cc8114e48583c0f245334bb82d66be07cc6e8da2c40b67193bc13e2abcf0199832918ca9752e074f1c90a2e1f90b00777fb059575083d74bedb5e983f49ebcab3cda9835c8ed8fb71fa9edfd0c52ce94bf6ec7f2c21b7cda6e8dd862138dca3da0db8c16cda3904f24fa07927a6f1045dfd294175477302337bd8aeabeaab07aa510ce7b2ed0463908d15979df82c910a7047053a0fa4707898260784464f0c521bec1d0e896a1efa29a0b396810e8003b8bc6c9e2fe165a1f8abbed2f2aace61f452d15bd53881d06886e5538165b19672a2a3b31ab8c32af26ae70858ba1b4ad3d89a4664b1ff3fa4179b3f796588c5da1a32c7d0bccb010ba91366781d870dd12ec32bb54a724ebe6737336b4d4ed3bda4abed64633365c8742a5f3ff344474a2c43ba5d588518c3531680df28dff9446244e90a117f561fb4a7ffcf00aafb3f1694b919f94bf59ebd4323dc6ee80ef17c450c5ff328a2a011015a0008deff188faa987a392eb8847fbe419c0aa8d61ceb7337f8ecf426139677e933b584a4e02584a8bfc0aaeebf4be052e239f340f91f68d66e8134ec68400f2e047dbeda47906b1b8ff133e2ac5dddf36a14a2181ea0b33be289f32ea5c95cb26170c1a0f56d8bb14be47ac8211f96bc820e71690253814127305fd50978ff7f0afafe2f6520baf825f35091379d7f5cfc18fe654f96a3a122cf744a65591ce229b985ce8cd02fb2a3c21bf11ca40e1541da1459da484d957c497de2c162123f1ee265710be747e7b3a7b60daf275d6593dc9e247e2ea96701599cbbd6b21e9a9c0dbdc995ae975a4461ff75d28a7d0dabca5aa01406ae5f51799e60ba41327bbffec3957d87312579ff4538ff5d9820ce691bbe28486211de881f77b4084e8f08ac9d315b4a06265c2af57e0d734a73ec10d2bd5594504bf86b0909bca951b279091c4e7bb170f3062f584a105a5dd06d3b711b99f9f1db61fc76f5077ed54f2adcc91f193c5e25b9d9a8bfda1f34bbec68d7b3465a95c43b06120dc4fa84fb49af0402d7fc653410698ae34ab525ac88f5415b8bd6a0e02c75bcadc5d55ea622970e17b8432acb54446e9e0f8e6b3d60c5ce0f1af370fd1d2ba36e34f878cad1b71375f541affe3abe2e0b98892a1611f4e5df3a03c69e4f30dcc3a05cbf6b4dedd06fd6ae4370753620843a35c36c800d89f8c737b2ba9860761802484310d2354697b384b257337531afc5faeecfcd062a1050932d41bccb2bc094cac607ff5facc01baf53d83445d64ca9ead605a8ac485a0afebe42f9722261ab2dbfada18606607d94a0bfd7826fc7b63b7ddc0223f976f902ea188edd71b45efbd613ca6dc78d79278e68124e02e00b3a8727b232f16ee4fc9315d27b8af18c5930d38c1444a38b33358c25306dfb4c75dade2de99cbeb3504ba4bde26f6f46f131cd743b693f154ddfcf2bfea4cdb0805332988d555c9e13d1e8efefe78f30d4ae47d22883e1f27b0c2ccfb35ac249697ffdf11f74bc807deb955aee9fb8c06b9dcb3fe481b611818cec977bfb1093737c91ebf138b518a6962ee78a5e01bfcb059904bdae47858b1b92acad955b52da03ccadb0f902370117db1944e06fc40fd7ca2026171312fd289909cceb559150a8d380bdd870bd5c6aef8476651c9e35030f3eb61b5cefb0d574c674f4beb3f07990b190b0307545f815ab25232c74122a18ced4b1702d189271a90dec1e8ce95c64137"
      ],
      "sequence": 4294967294
    }
  ],
  "vout": [
    {
      "value": 1.0,
      "n": 0,
      "scriptPubKey": {
        "asm": "OP_RETURN 679792cd4979bbd1a89bbaa445de12c38c0c41c0e723250fc60acf4cc33ca17c 00a5afe3fff121a61705e1b76eab89516a6f88bcc25d6a0e277b260462e3830320858fc3dfd101863725c1974e8ba9714a4fa89ce27d4a2e075b062442c3a32340e5efa3bfb161e65745a1f72eebc9112a2fc8fc821d2a4e673b664422a3c34360c5cf839f9141c6776581d70ecbe9310a0fe8dca23d0a6e471b46640283e36380252f637f71a12697856137ee2b09d1eaef083c42ddea8ea7fba684e2630383a0050f435f518106b7a54117ce0b29f1cacf281c62fdcaae87db86a4c24323a3c0656f233f31e166d7c52177ae6b4991aaaf487c029daacee7bbe6c4a22343c3e0454f031f11c146f7e501578e4b69b18a8f685c22bd8aeec79bc6e4820363e300a5afe3fff121a61705e1b76eab89516a6f88bcc25d6a0e277b260462e3830320858fc3dfd101863725c1974e8ba9714a4fa89ce27d4a2e075b062442c3a32340e5efa3bfb161e65745a1f72eebc9112a2fc8fc821d2a4e673b664422a3c34360c5cf839f9141c6776581d70ecbe9310a0fe8dca23d0a6e471b46640283e36380252f637f71a12697856137ee2b09d1eaef083c42ddea8ea7fba684e2630383a0050f435f518106b7a54117ce0b29f1cacf281c62fdcaae87db86a4c24323a3c0656f233f31e166d7c52177ae6b4991aaaf487c029daacee7bbe6c4a22343c3e0454f031f11c146f7e501578e4b69b18a8f685c22bd8aeec79bc6e4820363e300a5afe3fff121a61705e1b76eab89516a6f88bcc25d6a0e277b260462e3830320858fc3dfd101863725c1974e8ba9714a4fa89ce27d4a2e075b062442c3a32340e5efa3bfb161e65745a1f72eebc9112a2fc8fc821d2a4e673b664422a3c34360c5cf839f9141c6776581d70ecbe9310a0fe8dca23d0a6e471b46640283e36380252f637f71a12697856137ee2b09d1eaef083c42ddea8ea7fba684e2630383a0050f435f518106b7a54117ce0b29f1cacf281c62fdcaae87db86a4c24323a3c0656f233f31e166d7c52177ae6b4991aaaf487c029daacee7bbe6c4a22343c3e0454f031f11c146f7e501578e4b69b18a8f685c22bd8aeec79bc6e4820363e300a5afe3fff121a61705e1b76eab89516a6f88bcc25d6a0e277b260462e3830320858fc3dfd101863725c1974e8ba9714a4fa89ce27d4a2e075b062442c3a32340e5efa3bfb161e65745a1f72eebc9112a2fc8fc821d2a4e673b664422a3c34360c5cf839f9141c6776581d70ecbe9310a0fe8dca23d0a6e471b46640283e36380252f637f71a12697856137ee2b09d1eaef083c42ddea8ea7fba684e2630383a0050f435f518106b7a54117ce0b29f1cacf281c62fdcaae87db86a4c24323a3c0656f233f31e166d7c52177ae6b4991aaaf487c029daacee7bbe6c4a22343c3e0454f031f11c146f7e501578e4b69b18a8f685c22bd8aeec79bc6e4820363e300a5afe3fff121a61705e1b76eab89516a6f88bcc25d6a0e277b260462e3830320858fc3dfd101863725c1974e8ba9714a4fa89ce27d4a2e075b062442c3a32340e5efa3bfb161e65745a1f72eebc9112a2fc8fc821d2a4e673b664422a3c34360c5cf839f9141c6776581d70ecbe9310a0fe8dca23d0a6e471b46640283e36380252f637f71a12697856137ee2b09d141f3c4ae45bd69de4d4436e3725c7f2dc484da1d4d3fa15bf57ed770cb239fc4",
        "hex": "6a20679792cd4979bbd1a89bbaa445de12c38c0c41c0e723250fc60acf4cc33ca17c4db00400a5afe3fff121a61705e1b76eab89516a6f88bcc25d6a0e277b260462e3830320858fc3dfd101863725c1974e8ba9714a4fa89ce27d4a2e075b062442c3a32340e5efa3bfb161e65745a1f72eebc9112a2fc8fc821d2a4e673b664422a3c34360c5cf839f9141c6776581d70ecbe9310a0fe8dca23d0a6e471b46640283e36380252f637f71a12697856137ee2b09d1eaef083c42ddea8ea7fba684e2630383a0050f435f518106b7a54117ce0b29f1cacf281c62fdcaae87db86a4c24323a3c0656f233f31e166d7c52177ae6b4991aaaf487c029daacee7bbe6c4a22343c3e0454f031f11c146f7e501578e4b69b18a8f685c22bd8aeec79bc6e4820363e300a5afe3fff121a61705e1b76eab89516a6f88bcc25d6a0e277b260462e3830320858fc3dfd101863725c1974e8ba9714a4fa89ce27d4a2e075b062442c3a32340e5efa3bfb161e65745a1f72eebc9112a2fc8fc821d2a4e673b664422a3c34360c5cf839f9141c6776581d70ecbe9310a0fe8dca23d0a6e471b46640283e36380252f637f71a12697856137ee2b09d1eaef083c42ddea8ea7fba684e2630383a0050f435f518106b7a54117ce0b29f1cacf281c62fdcaae87db86a4c24323a3c0656f233f31e166d7c52177ae6b4991aaaf487c029daacee7bbe6c4a22343c3e0454f031f11c146f7e501578e4b69b18a8f685c22bd8aeec79bc6e4820363e300a5afe3fff121a61705e1b76eab89516a6f88bcc25d6a0e277b260462e3830320858fc3dfd101863725c1974e8ba9714a4fa89ce27d4a2e075b062442c3a32340e5efa3bfb161e65745a1f72eebc9112a2fc8fc821d2a4e673b664422a3c34360c5cf839f9141c6776581d70ecbe9310a0fe8dca23d0a6e471b46640283e36380252f637f71a12697856137ee2b09d1eaef083c42ddea8ea7fba684e2630383a0050f435f518106b7a54117ce0b29f1cacf281c62fdcaae87db86a4c24323a3c0656f233f31e166d7c52177ae6b4991aaaf487c029daacee7bbe6c4a22343c3e0454f031f11c146f7e501578e4b69b18a8f685c22bd8aeec79bc6e4820363e300a5afe3fff121a61705e1b76eab89516a6f88bcc25d6a0e277b260462e3830320858fc3dfd101863725c1974e8ba9714a4fa89ce27d4a2e075b062442c3a32340e5efa3bfb161e65745a1f72eebc9112a2fc8fc821d2a4e673b664422a3c34360c5cf839f9141c6776581d70ecbe9310a0fe8dca23d0a6e471b46640283e36380252f637f71a12697856137ee2b09d1eaef083c42ddea8ea7fba684e2630383a0050f435f518106b7a54117ce0b29f1cacf281c62fdcaae87db86a4c24323a3c0656f233f31e166d7c52177ae6b4991aaaf487c029daacee7bbe6c4a22343c3e0454f031f11c146f7e501578e4b69b18a8f685c22bd8aeec79bc6e4820363e300a5afe3fff121a61705e1b76eab89516a6f88bcc25d6a0e277b260462e3830320858fc3dfd101863725c1974e8ba9714a4fa89ce27d4a2e075b062442c3a32340e5efa3bfb161e65745a1f72eebc9112a2fc8fc821d2a4e673b664422a3c34360c5cf839f9141c6776581d70ecbe9310a0fe8dca23d0a6e471b46640283e36380252f637f71a12697856137ee2b09d141f3c4ae45bd69de4d4436e3725c7f2dc484da1d4d3fa15bf57ed770cb239fc4",
        "type": "nulldata"
      }
    },
    {
      "value": 499992.8817,
      "n": 1,
      "scriptPubKey": {
        "asm": "1 82e929ab29fa38e0b84a0e2baa654e77dbe29cb0e1017404e773874c96de069a",
        "hex": "512082e929ab29fa38e0b84a0e2baa654e77dbe29cb0e1017404e773874c96de069a",
        "reqSigs": 1,
        "type": "witness_v1_scripthash",
        "addresses": [
          "3QJmnh"
        ]
      }
    }
  ],
  "blockhash": "86d3aa2e412fd1c0ad7fd5d7d84b7ddcf41a8bf652344eaa49dd1e6444ae5dce",
  "confirmations": 1,
  "time": 1764176858,
  "blocktime": 1764176858
}