{
  "hex": "01000000000101f962c1f07885f08d49eeff692ba2caddba9500ae9c66944749508c7557499a230000000000feffffff0250771315792d000022512076e40cb39e77656143484711340497669c26ae2ca2c068d94e09265a10a9018c00e1f50500000000fdd5046a20eae03525e4f34b49fc82ec667e6dc41ba6d5294b05e37d689ebeb700934b965e4db004b1af527b661c9216bca0630828577279383fda32e04a1103f7aa38a4672c8985918f725b463cb2369c80432808775259181ffa12c06a3123d78a1884470ca9a5f1ef123b265cd256fce0234868173239787f9a72a00a5143b7ea78e4276cc9c5d1cf321b067cf276dcc0036848371219585fba52802a716397ca58c4074ce9e5312fd2fbe69c12963c20e388a8d7f2f9b8bf5ab260ca9183772ab824e7ac0905110ff2dbc6bc32b61c00c3a888f7d2d9989f7a9240eab1a3570a9804c78c2925716f92bba6dc52d67c60a3c8e897b2b9f8ff1af2208ad1c3376af864a7ec4945514fb29b86fc72f65c4083e8c8b79299d8df3ad200aaf1e3174ad84487cc6965b1af527b661c9216bca0630828577279383fda32e04a1103f7aa38a4672c8985918f725b463cb2369c80432808775259181ffa12c06a3123d78a1884470ca9a5f1ef123b265cd256fce0234868173239787f9a72a00a5143b7ea78e4276cc9c5d1cf321b067cf276dcc0036848371219585fba52802a716397ca58c4074ce9e5312fd2fbe69c12963c20e388a8d7f2f9b8bf5ab260ca9183772ab824e7ac0905110ff2dbc6bc32b61c00c3a888f7d2d9989f7a9240eab1a3570a9804c78c2925716f92bba6dc52d67c60a3c8e897b2b9f8ff1af2208ad1c3376af864a7ec4945514fb29b86fc72f65c4083e8c8b79299d8df3ad200aaf1e3174ad84487cc6965b1af527b661c9216bca0630828577279383fda32e04a1103f7aa38a4672c8985918f725b463cb2369c80432808775259181ffa12c06a3123d78a1884470ca9a5f1ef123b265cd256fce0234868173239787f9a72a00a5143b7ea78e4276cc9c5d1cf321b067cf276dcc0036848371219585fba52802a716397ca58c4074ce9e5312fd2fbe69c12963c20e388a8d7f2f9b8bf5ab260ca9183772ab824e7ac0905110ff2dbc6bc32b61c00c3a888f7d2d9989f7a9240eab1a3570a9804c78c2925716f92bba6dc52d67c60a3c8e897b2b9f8ff1af2208ad1c3376af864a7ec4945514fb29b86fc72f65c4083e8c8b79299d8df3ad200aaf1e3174ad84487cc6965b1af527b661c9216bca0630828577279383fda32e04a1103f7aa38a4672c8985918f725b463cb2369c80432808775259181ffa12c06a3123d78a1884470ca9a5f1ef123b265cd256fce0234868173239787f9a72a00a5143b7ea78e4276cc9c5d1cf321b067cf276dcc0036848371219585fba52802a716397ca58c4074ce9e5312fd2fbe69c12963c20e388a8d7f2f9b8bf5ab260ca9183772ab824e7ac0905110ff2dbc6bc32b61c00c3a888f7d2d9989f7a9240eab1a3570a9804c78c2925716f92bba6dc52d67c60a3c8e897b2b9f8ff1af2208ad1c3376af864a7ec4945514fb29b86fc72f65c4083e8c8b79299d8df3ad200aaf1e3174ad84487cc6965b1af527b661c9216bca0630828577279383fda32e04a1103f7aa38a4672c8985918f725b463cb2369c80432808775259181ffa12c06a3123d78a1884470ca9a5f1ef123b265cd256fce0234868173239787f9a72a00a5143b7ea78e4276cc9c5d1cf321b067cf276dcc0036848371219585fba52802a716397ca58c4074ce9e5312fd2fbe69c12963c20e388a8d7f2f909d5fe5bd7d5e0d33c228bbdee4f093c899e0c19ae7b37ffc506b42ece3786f102fd7509b7fb8e4787fde0a49f2569982bea4656c002921ac9c10921fc7ae65d8958cdfd0fc9c685319ef8f9d904913d6a6e2ec16acbf300461ed9c6986b3a201f719db4c33b050cabf8b19bb96879f5dc27337f365dc263db717f866b16647f35ac91496d909d11580e3993537a4195272526309792b0aba7615e4f1ed1ecaadc6f9154525deb6d1ed812315cb0e2eddb64daeb55c4fb35afb51cbcf70f50e4962ac32b55c02afef1903f319d8b37ff68e579cff1c2fb09203d0ff8e214861bc4b848860a380b6e3e5463f11f377619dd5f1fcb810e9628699309f0b2507ef862ee7eab914c5525aeff712ff41a70c3ff9c295ec614911575743263f52e9ac20cc82e35fcd1c07aa34fb950db70138f0df2a06da6477327dd3306b4746faeb37e9acdfb4917381ab1365dc5c4dfa574d41b2103a7b75a85c976ced7bf0820db9a33082fdc576f34b5d4d48365712e2af84cba8d1a6c26c180959cf1eba871fd288f4b4386548834912fe4258e9639f2778b3f320a69e33e8f628dfa907a1423415d38ccb7843059465abedea6a9847bdbf3e756bcbd658bf11ce19c34fc012e8528dc965e39d78c01a4905936a85a40032dc969b039f6aaabb7e3a555f3ad443d36d2547705bad7d832ffc793231e2455831b6feb090bd30b402bab355d0c4034d9ba535942d4b0ff89a4c853e78e9c3d3f409a20a2ebe13722441b5dca063ec76a25684f8e12b8ef6f54933665ad8054b34d476958404b363f7a35ff31b4c95748d3d35a9ff1649e456e372e566a061c79fd29cf16a88527fa8d59176fbf83454e8137633e69938f41e4d80783f03bd73cee77fd4b767be660b36fb997f9eb2642743c2a502022bb2e5742d9092d9a5f0fc6cd44242f3f9128cc7aa802bf2ac1e9aaa6cd948299d879cbf0c1eab0f358449274712dc61b6c072e723d0c99f97b7d4db2ca67c57a8f2ff65da454f8356effa7bbd8f81e832a62715a762a2232f19d811e54c5b5ce984664f12e73ebfccc52db14096bbeb4d9fcaf53626d8dbe0527958859f7a578ac27a2042f990a6f452735313f2393adea964a2408a96fd42d5085a779bc66166421203ed2291c7ac4b9f9dff1336b5100f4c53daf0900e86eb55c3af2897282e6913a94a52b0949cde061ad2998fc38695e9567ff28205f8a4fd8d472aa349d747c992e1e212efbfff43acafb26d1336c64d7f1197cbc4413020c5a2afccce7a822e67b92741a39596d997b5a4629d4087256515f83bc4cb7e36ad6e9967bd53eeb564740e7f1b22ec1914f220eeb4ed51f72df4f18112f80419d6cf3529565b10236d892ce817ee167ff120b43ca06b60ceb7aeffb1c9a61b47ab5c8eb5d159ab202b5784352c70f0e4e3c73998383396deab4e31d3c1e73fc8c83f11eb1a793019218c84a406fc61ed0cebc9d409683b2b21e0d4ad62dbc006ce5eb83c45eca025a43b33dba10df4a5ab85898df2f83712cf93adf77088715e486fcf0cb2eeb8cd29767b43ecd10360c2903783364d87cde5bc38e2af2ea7eeb531d17b5eed2565dc7ce17544b48a47f9e0f0733798427348061a033703ddcade97e63ffcceb2a28d760e046986914347d24181d0b942be7a29c6342f5357a5bb50e85c4c67eb8d448f08ad8163e823545dadd622a99950c2e38976c74c3baf2303ea5520936d131757564958c4ec816b347b12e8eaff864bab9931e0d5d96d06f43abc8c4c93f39560decaf886905432dc7836d9fb7232a797874d6cbf4d0a6013afaab8e6cca827f666b26676b34e0f2c69cfa89e1d57c1281b3bb0793682101ccceb7a357597ec7113f1bb311138460652ca9e5cd0798a2dcc6f3ed46b686816694ab4af0c747e875f26f092de31c35e1baebf8c7d693b0293b6630a8f4abb32474ede264ab38c143bfd347e8eb15355210f9a6b1391cd4276052080b09e8304a4c6233ecfc7bfba6d95474afe559899dcd7a88b3c9a80720874f8ccb0b2f57e207aecc7f303bf39df9e90a67b47fe94c887b16da27ecb9f97e5fac56e98544ea72590abb08770f0c34f795b4b9f5941d2970838056cf69ed6d69dbb8c68f4f274f4305a2f10f7fca12ca4d102e85727f39b2c09ab1d49e35c16f71a97c14bc842e0459e50256cfb25cea3763c5bfd2ec5c1222fd28d686d5989f4d48828d450e61890b99ded2456cd46c98042fb3c6a06d44277e8cf1315d1507db61fb1f637680d3b07f4b9cd7fe59a7cb0cf20808ff810107f251d62cbd44a92e2b04b8f56fbb1b4c3b094848183d9c234a9c7ab65ab2ec619e5e32070133bbc19ca72eaaeebb9ebd0ce308351cd82fe1ef1dca119185a1891b2ee8918aef36b9d07adf7f588dfdc8491a2e994706c684d0010e73181ae859b10755aaf6e275333da0a6ac3cfaaea2657d7abb0883382fbca585041569e3de622214150c29507b95fb941b9036626e5ada3dd92684b1f5b79f34f3a4cc8767d0ccfda9c5faae58202fdebdea28982f565d5681c0d98093a1b01f3d3f01cbfcfbe40864e02516fb53391c1698d40ad0ff1e1d9e6bf2d2c8e9ea1c06ac1c36e3dc6f636122ca3b9ff5bd278c08d8511de1e50a3e58ee4476609454b582370c71d6b294aeeb0853813713a0ef37a92a63cc506d14369a5c1c224bf72160241c0c84d59745a8189b7c8255b935fe30e294b3ee9a89e2498ab9e6c1d2208079a696171fa5462c4bf04501d6b5b6d6186dd8b1698af0cc951d92a171454d76413b966946a4427cca1a8799b4e6dd96979f6d4727ae9ce3d852e0d63a5e9d05f6778e830d0f8663011d7497ed56d40a99d04ed4ac3d96d06361b2f9d395a1239c60698e89e8bb3749653a6e4ccad77484ec173b106e80df3b41034aa54c812e060cffec976cfe974f9f1f061431a035ef0620a48873856587d0092770b139e5cddf69768878188fa6cb25814cce9d70dd1e2b86abd48ece46924ab5cb30a2a2fbed0460926648e8c9493287464e70af3ee43e326cc3b900fdd6a44cc0b47529ddcf3217d02a48c29a7efccd5bedacc4b3367655b8176b59076f787b717e3b28e1269a119454e3277c2c9aaaaada73051b0a056315cfd58c53ba821bf5fae01b27f4dbf8ea7fc90bf943badcdccd77bdbb05ffa8e9dab0862f19d75a667b668ef7eb7aac841a72fb7d53cc29ef0a52c388a6b7a29c4fd0ce998b3981c58fe8b1eb1bad44c5f0302bad7071230f4389187afdd24d3f43aa03452e7285f743e6553ab15e3ec34f338094efc7a216b2a23981445391a4754ac6a53512995a186343cfd93c4de7caa441b7f86cc5d705f50d12303a436989a1b6bbf3fa2538474e7a91a4d2db383f696e7389a2add6f912323a3d494b6593949eafeef20000000000000000000000000000000000000000000000000000000000000000000000000c151f2c01fd2105009e0f0f2a352142c43e4354d43c1609ce73dc9b5fe9a03fce71e10144f4a685aa6871a39a464343299e580f2a607d577c3728ab62e8005252dd30bea7058c8ef1766a87633ee0ae147421d69cef53bbab4f2b2d41120e06678142747b0f25151fef1f0c5f7e9a4f74b5f38e0476d881db2927cb2b43352c957fc902d91f22287971f3ef85bd229aca6a5403a19f1810eca04046161963089322ca2002658d189d33f17a723ba581fb8725a6dfa614c69d297a8f15c9e6daf550ad6a560309d5c3a82ef83b593697d6292357020b73b3fd14f40fcf8424f58e2632820a9c0b013336e2040e409a70c6fb9e881fe23ef0c04a51c0c281863e81ee1d79829a2f68b70b353f27f592fde64c499cbdb2397f004be9e4b3950a1899d33f76451997ae614122464f7d0a770e5223db37d4e60bd37005ea43075a100ec469f18087d3f60ec3f7b536051b09d6a2871707b409b98f6f7d48ebad901e0119e8c0152f9b2d7e777f51209ef5a43dbd27dfa8f3bb9f2336e733fe5bd05a5df8f67a1f0e0d0ab73a3cc08de3754bba51e9b08284fbbd83ff1c83398b8cfe3de0bb306e00671ba640137f0a010197f48097d6ef7238482ff6b09648d29d940a91d197a4eebd4fc13bb378f99bc91791c68727e6d11434f817828a6a9d3b2cb801b9a6e2377ed611e837b83056049667ca696ba674eede40180be564f04f012519dd31f92f55003065c724c7e9acb2849203875c75bfff46f70baee3ac29f79ce031a4dbea6a1867f6439079d02bcb61dbd0360f106aa4dd0852ce1c72c06b9a2526ac9f4f5d5b66c9328bf24476833941ca1f691dc6eeb2c1e3c8f6d677dac3e97527f8d42d7dc348759e32c8859c9d0ba6867044f29a4dfea5cb407e36b6341d1ce09c468ce36d4d92db015566119036dd3546a46cbaaff2b01a5e21c2fe256767d87bb81d20b9c37f122ebb9d517879c8672c34f08a1d6ed45bd0c4dfa73fc0e17e18e44d6b2dda813af7545f43c06c0dd8b0bc85494c28455d7f4956a9debf22e0c4d08456dce336c6bb5ebf9494b204a4b85d2336c0cd12f852e69ef0840a8ef3e2e71b5d7ad522e45dc2d12748968cc5217722955041e286400e0bd183c105fb8dc75a507da71ee6bf324aa28391699e0431510fa1f8354bc23522a2c6fa0a663369e12ba5915fb1a208587436f50ca2f31c19dd9eb18ef633b532759ea9be0a02fa616a75baaa6eb0e45846f6089007134a375377edea6bcdbb1b8bedb2ba6d3a5aedd4a323a8f7f0cf9fc59916c857f52a6ef3739cd3b813684e0324915654077f5033aa2445fb94d866d1e35177993a4e1c342736d2c2364a34c54ba17b116fb6b8379821939898bf53a0dac3ca82951e1b268a66848f46c0311ee8ce75626365e88e40674de698a9e9392a1b4deb25d71f8537d6d7617402fc08f0fdf4a6872bdc6da1c7e0d4c6c64591449df989dafdfc64a2d785d0ac4eb28314918c394d656c58c0791a0a620c15c98ec2a0402489f654ce3dacc4fd99da83713a3fa09dfc709720e2be7577a786057ec4410cabae3e64039de7fd9139512113e0ef232d85b9c853ab95de437d26ac6001428e23b9f597e95474edbd60dbe8b74353da0c322768f5e01e0e9c8eee271f249e7873431a70bcc8c758fbc4eaaffd85157c3bb2fd65c7161fa9a2b157bdb88abe4524a18bde907a58dc9941ed283f4c23b9379ceedb871d1b21c330cb0fc04ce4fc3ddde9046756901f0b6d5fc848fdfb9e644bd60d6c54119df243a8533447af0e0c648693d4b282777aad5ebd135cef27f0077f22cd4323e3d321f20c25faf04847817c923eab670c25089132cb70f6fa3a07e6450e74000000",
  "txid": "eac0381d082e23dfd397b1c15ffca2843a4a57f7521c98c9e260368ed1b934b4",
  "hash": "0328657c3f8781ac8176f6d1399bd5d4c912bc98667d1aa6cd7fb841cd01e9b8",
  "size": 5085,
  "vsize": 2278,
  "version": 1,
  "locktime": 116,
  "vin": [
    {
      "txid": "239a4957758c50494794669cae0095baddcaa22b69ffee498df08578f0c162f9",
      "vout": 0,
      "scriptSig": {
        "asm": "",
        "hex": ""
      },
      "txinwitness": [
        "b7fb8e4787fde0a49f2569982bea4656c002921ac9c10921fc7ae65d8958cdfd0fc9c685319ef8f9d904913d6a6e2ec16acbf300461ed9c6986b3a201f719db4c33b050cabf8b19bb96879f5dc27337f365dc263db717f866b16647f35ac91496d909d11580e3993537a4195272526309792b0aba7615e4f1ed1ecaadc6f9154525deb6d1ed812315cb0e2eddb64daeb55c4fb35afb51cbcf70f50e4962ac32b55c02afef1903f319d8b37ff68e579cff1c2fb09203d0ff8e214861bc4b848860a380b6e3e5463f11f377619dd5f1fcb810e9628699309f0b2507ef862ee7eab914c5525aeff712ff41a70c3ff9c295ec614911575743263f52e9ac20cc82e35fcd1c07aa34fb950db70138f0df2a06da6477327dd3306b4746faeb37e9acdfb4917381ab1365dc5c4dfa574d41b2103a7b75a85c976ced7bf0820db9a33082fdc576f34b5d4d48365712e2af84cba8d1a6c26c180959cf1eba871fd288f4b4386548834912fe4258e9639f2778b3f320a69e33e8f628dfa907a1423415d38ccb7843059465abedea6a9847bdbf3e756bcbd658bf11ce19c34fc012e8528dc965e39d78c01a4905936a85a40032dc969b039f6aaabb7e3a555f3ad443d36d2547705bad7d832ffc793231e2455831b6feb090bd30b402bab355d0c4034d9ba535942d4b0ff89a4c853e78e9c3d3f409a20a2ebe13722441b5dca063ec76a25684f8e12b8ef6f54933665ad8054b34d476958404b363f7a35ff31b4c95748d3d35a9ff1649e456e372e566a061c79fd29cf16a88527fa8d59176fbf83454e8137633e69938f41e4d80783f03bd73cee77fd4b767be660b36fb997f9eb2642743c2a502022bb2e5742d9092d9a5f0fc6cd44242f3f9128cc7aa802bf2ac1e9aaa6cd948299d879cbf0c1eab0f358449274712dc61b6c072e723d0c99f97b7d4db2ca67c57a8f2ff65da454f8356effa7bbd8f81e832a62715a762a2232f19d811e54c5b5ce984664f12e73ebfccc52db14096bbeb4d9fcaf53626d8dbe0527958859f7a578ac27a2042f990a6f452735313f2393adea964a2408a96fd42d5085a779bc66166421203ed2291c7ac4b9f9dff1336b5100f4c53daf0900e86eb55c3af2897282e6913a94a52b0949cde061ad2998fc38695e9567ff28205f8a4fd8d472aa349d747c992e1e212efbfff43acafb26d1336c64d7f1197cbc4413020c5a2afccce7a822e67b92741a39596d997b5a4629d4087256515f83bc4cb7e36ad6e9967bd53eeb564740e7f1b22ec1914f220eeb4ed51f72df4f18112f80419d6cf3529565b10236d892ce817ee167ff120b43ca06b60ceb7aeffb1c9a61b47ab5c8eb5d159ab202b5784352c70f0e4e3c73998383396deab4e31d3c1e73fc8c83f11eb1a793019218c84a406fc61ed0cebc9d409683b2b21e0d4ad62dbc006ce5eb83c45eca025a43b33dba10df4a5ab85898df2f83712cf93adf77088715e486fcf0cb2eeb8cd29767b43ecd10360c2903783364d87cde5bc38e2af2ea7eeb531d17b5eed2565dc7ce17544b48a47f9e0f0733798427348061a033703ddcade97e63ffcceb2a28d760e046986914347d24181d0b942be7a29c6342f5357a5bb50e85c4c67eb8d448f08ad8163e823545dadd622a99950c2e38976c74c3baf2303ea5520936d131757564958c4ec816b347b12e8eaff864bab9931e0d5d96d06f43abc8c4c93f39560decaf886905432dc7836d9fb7232a797874d6cbf4d0a6013afaab8e6cca827f666b26676b34e0f2c69cfa89e1d57c1281b3bb0793682101ccceb7a357597ec7113f1bb311138460652ca9e5cd0798a2dcc6f3ed46b686816694ab4af0c747e875f26f092de31c35e1baebf8c7d693b0293b6630a8f4abb32474ede264ab38c143bfd347e8eb15355210f9a6b1391cd4276052080b09e8304a4c6233ecfc7bfba6d95474afe559899dcd7a88b3c9a80720874f8ccb0b2f57e207aecc7f303bf39df9e90a67b47fe94c887b16da27ecb9f97e5fac56e98544ea72590abb08770f0c34f795b4b9f5941d2970838056cf69ed6d69dbb8c68f4f274f4305a2f10f7fca12ca4d102e85727f39b2c09ab1d49e35c16f71a97c14bc842e0459e50256cfb25cea3763c5bfd2ec5c1222fd28d686d5989f4d48828d450e61890b99ded2456cd46c98042fb3c6a06d44277e8cf1315d1507db61fb1f637680d3b07f4b9cd7fe59a7cb0cf20808ff810107f251d62cbd44a92e2b04b8f56fbb1b4c3b094848183d9c234a9c7ab65ab2ec619e5e32070133bbc19ca72eaaeebb9ebd0ce308351cd82fe1ef1dca119185a1891b2ee8918aef36b9d07adf7f588dfdc8491a2e994706c684d0010e73181ae859b10755aaf6e275333da0a6ac3cfaaea2657d7abb0883382fbca585041569e3de622214150c29507b95fb941b9036626e5ada3dd92684b1f5b79f34f3a4cc8767d0ccfda9c5faae58202fdebdea28982f565d5681c0d98093a1b01f3d3f01cbfcfbe40864e02516fb53391c1698d40ad0ff1e1d9e6bf2d2c8e9ea1c06ac1c36e3dc6f636122ca3b9ff5bd278c08d8511de1e50a3e58ee4476609454b582370c71d6b294aeeb0853813713a0ef37a92a63cc506d14369a5c1c224bf72160241c0c84d59745a8189b7c8255b935fe30e294b3ee9a89e2498ab9e6c1d2208079a696171fa5462c4bf04501d6b5b6d6186dd8b1698af0cc951d92a171454d76413b966946a4427cca1a8799b4e6dd96979f6d4727ae9ce3d852e0d63a5e9d05f6778e830d0f8663011d7497ed56d40a99d04ed4ac3d96d06361b2f9d395a1239c60698e89e8bb3749653a6e4ccad77484ec173b106e80df3b41034aa54c812e060cffec976cfe974f9f1f061431a035ef0620a48873856587d0092770b139e5cddf69768878188fa6cb25814cce9d70dd1e2b86abd48ece46924ab5cb30a2a2fbed0460926648e8c9493287464e70af3ee43e326cc3b900fdd6a44cc0b47529ddcf3217d02a48c29a7efccd5bedacc4b3367655b8176b59076f787b717e3b28e1269a119454e3277c2c9aaaaada73051b0a056315cfd58c53ba821bf5fae01b27f4dbf8ea7fc90bf943badcdccd77bdbb05ffa8e9dab0862f19d75a667b668ef7eb7aac841a72fb7d53cc29ef0a52c388a6b7a29c4fd0ce998b3981c58fe8b1eb1bad44c5f0302bad7071230f4389187afdd24d3f43aa03452e7285f743e6553ab15e3ec34f338094efc7a216b2a23981445391a4754ac6a53512995a186343cfd93c4de7caa441b7f86cc5d705f50d12303a436989a1b6bbf3fa2538474e7a91a4d2db383f696e7389a2add6f912323a3d494b6593949eafeef20000000000000000000000000000000000000000000000000000000000000000000000000c151f2c01",
        "009e0f0f2a352142c43e4354d43c1609ce73dc9b5fe9a03fce71e10144f4a685aa6871a39a464343299e580f2a607d577c3728ab62e8005252dd30bea7058c8ef1766a87633ee0ae147421d69cef53bbab4f2b2d41120e06678142747b0f25151fef1f0c5f7e9a4f74b5f38e0476d881db2927cb2b43352c957fc902d91f22287971f3ef85bd229aca6a5403a19f1810eca04046161963089322ca2002658d189d33f17a723ba581fb8725a6dfa614c69d297a8f15c9e6daf550ad6a560309d5c3a82ef83b593697d6292357020b73b3fd14f40fcf8424f58e2632820a9c0b013336e2040e409a70c6fb9e881fe23ef0c04a51c0c281863e81ee1d79829a2f68b70b353f27f592fde64c499cbdb2397f004be9e4b3950a1899d33f76451997ae614122464f7d0a770e5223db37d4e60bd37005ea43075a100ec469f18087d3f60ec3f7b536051b09d6a2871707b409b98f6f7d48ebad901e0119e8c0152f9b2d7e777f51209ef5a43dbd27dfa8f3bb9f2336e733fe5bd05a5df8f67a1f0e0d0ab73a3cc08de3754bba51e9b08284fbbd83ff1c83398b8cfe3de0bb306e00671ba640137f0a010197f48097d6ef7238482ff6b09648d29d940a91d197a4eebd4fc13bb378f99bc91791c68727e6d11434f817828a6a9d3b2cb801b9a6e2377ed611e837b83056049667ca696ba674eede40180be564f04f012519dd31f92f55003065c724c7e9acb2849203875c75bfff46f70baee3ac29f79ce031a4dbea6a1867f6439079d02bcb61dbd0360f106aa4dd0852ce1c72c06b9a2526ac9f4f5d5b66c9328bf24476833941ca1f691dc6eeb2c1e3c8f6d677dac3e97527f8d42d7dc348759e32c8859c9d0ba6867044f29a4dfea5cb407e36b6341d1ce09c468ce36d4d92db015566119036dd3546a46cbaaff2b01a5e21c2fe256767d87bb81d20b9c37f122ebb9d517879c8672c34f08a1d6ed45bd0c4dfa73fc0e17e18e44d6b2dda813af7545f43c06c0dd8b0bc85494c28455d7f4956a9debf22e0c4d08456dce336c6bb5ebf9494b204a4b85d2336c0cd12f852e69ef0840a8ef3e2e71b5d7ad522e45dc2d12748968cc5217722955041e286400e0bd183c105fb8dc75a507da71ee6bf324aa28391699e0431510fa1f8354bc23522a2c6fa0a663369e12ba5915fb1a208587436f50ca2f31c19dd9eb18ef633b532759ea9be0a02fa616a75baaa6eb0e45846f6089007134a375377edea6bcdbb1b8bedb2ba6d3a5aedd4a323a8f7f0cf9fc59916c857f52a6ef3739cd3b813684e0324915654077f5033aa2445fb94d866d1e35177993a4e1c342736d2c2364a34c54ba17b116fb6b8379821939898bf53a0dac3ca82951e1b268a66848f46c0311ee8ce75626365e88e40674de698a9e9392a1b4deb25d71f8537d6d7617402fc08f0fdf4a6872bdc6da1c7e0d4c6c64591449df989dafdfc64a2d785d0ac4eb28314918c394d656c58c0791a0a620c15c98ec2a0402489f654ce3dacc4fd99da83713a3fa09dfc709720e2be7577a786057ec4410cabae3e64039de7fd9139512113e0ef232d85b9c853ab95de437d26ac6001428e23b9f597e95474edbd60dbe8b74353da0c322768f5e01e0e9c8eee271f249e7873431a70bcc8c758fbc4eaaffd85157c3bb2fd65c7161fa9a2b157bdb88abe4524a18bde907a58dc9941ed283f4c23b9379ceedb871d1b21c330cb0fc04ce4fc3ddde9046756901f0b6d5fc848fdfb9e644bd60d6c54119df243a8533447af0e0c648693d4b282777aad5ebd135cef27f0077f22cd4323e3d321f20c25faf04847817c923eab670c25089132cb70f6fa3a07e6450e"
      ],
      "sequence": 4294967294
    }
  ],
  "vout": [
    {
      "value": 499980.6789,
      "n": 0,
      "scriptPubKey": {
        "asm": "1 76e40cb39e77656143484711340497669c26ae2ca2c068d94e09265a10a9018c",
        "hex": "512076e40cb39e77656143484711340497669c26ae2ca2c068d94e09265a10a9018c",
        "reqSigs": 1,
        "type": "witness_v1_scripthash",
        "addresses": [
          "3QJmnh"
        ]
      }
    },
    {
      "value": 1.0,
      "n": 1,
      "scriptPubKey": {
        "asm": "OP_RETURN eae03525e4f34b49fc82ec667e6dc41ba6d5294b05e37d689ebeb700934b965e b1af527b661c9216bca0630828577279383fda32e04a1103f7aa38a4672c8985918f725b463cb2369c80432808775259181ffa12c06a3123d78a1884470ca9a5f1ef123b265cd256fce0234868173239787f9a72a00a5143b7ea78e4276cc9c5d1cf321b067cf276dcc0036848371219585fba52802a716397ca58c4074ce9e5312fd2fbe69c12963c20e388a8d7f2f9b8bf5ab260ca9183772ab824e7ac0905110ff2dbc6bc32b61c00c3a888f7d2d9989f7a9240eab1a3570a9804c78c2925716f92bba6dc52d67c60a3c8e897b2b9f8ff1af2208ad1c3376af864a7ec4945514fb29b86fc72f65c4083e8c8b79299d8df3ad200aaf1e3174ad84487cc6965b1af527b661c9216bca0630828577279383fda32e04a1103f7aa38a4672c8985918f725b463cb2369c80432808775259181ffa12c06a3123d78a1884470ca9a5f1ef123b265cd256fce0234868173239787f9a72a00a5143b7ea78e4276cc9c5d1cf321b067cf276dcc0036848371219585fba52802a716397ca58c4074ce9e5312fd2fbe69c12963c20e388a8d7f2f9b8bf5ab260ca9183772ab824e7ac0905110ff2dbc6bc32b61c00c3a888f7d2d9989f7a9240eab1a3570a9804c78c2925716f92bba6dc52d67c60a3c8e897b2b9f8ff1af2208ad1c3376af864a7ec4945514fb29b86fc72f65c4083e8c8b79299d8df3ad200aaf1e3174ad84487cc6965b1af527b661c9216bca0630828577279383fda32e04a1103f7aa38a4672c8985918f725b463cb2369c80432808775259181ffa12c06a3123d78a1884470ca9a5f1ef123b265cd256fce0234868173239787f9a72a00a5143b7ea78e4276cc9c5d1cf321b067cf276dcc0036848371219585fba52802a716397ca58c4074ce9e5312fd2fbe69c12963c20e388a8d7f2f9b8bf5ab260ca9183772ab824e7ac0905110ff2dbc6bc32b61c00c3a888f7d2d9989f7a9240eab1a3570a9804c78c2925716f92bba6dc52d67c60a3c8e897b2b9f8ff1af2208ad1c3376af864a7ec4945514fb29b86fc72f65c4083e8c8b79299d8df3ad200aaf1e3174ad84487cc6965b1af527b661c9216bca0630828577279383fda32e04a1103f7aa38a4672c8985918f725b463cb2369c80432808775259181ffa12c06a3123d78a1884470ca9a5f1ef123b265cd256fce0234868173239787f9a72a00a5143b7ea78e4276cc9c5d1cf321b067cf276dcc0036848371219585fba52802a716397ca58c4074ce9e5312fd2fbe69c12963c20e388a8d7f2f9b8bf5ab260ca9183772ab824e7ac0905110ff2dbc6bc32b61c00c3a888f7d2d9989f7a9240eab1a3570a9804c78c2925716f92bba6dc52d67c60a3c8e897b2b9f8ff1af2208ad1c3376af864a7ec4945514fb29b86fc72f65c4083e8c8b79299d8df3ad200aaf1e3174ad84487cc6965b1af527b661c9216bca0630828577279383fda32e04a1103f7aa38a4672c8985918f725b463cb2369c80432808775259181ffa12c06a3123d78a1884470ca9a5f1ef123b265cd256fce0234868173239787f9a72a00a5143b7ea78e4276cc9c5d1cf321b067cf276dcc0036848371219585fba52802a716397ca58c4074ce9e5312fd2fbe69c12963c20e388a8d7f2f909d5fe5bd7d5e0d33c228bbdee4f093c899e0c19ae7b37ffc506b42ece3786f1",
        "hex": "6a20eae03525e4f34b49fc82ec667e6dc41ba6d5294b05e37d689ebeb700934b965e4db004b1af527b661c9216bca0630828577279383fda32e04a1103f7aa38a4672c8985918f725b463cb2369c80432808775259181ffa12c06a3123d78a1884470ca9a5f1ef123b265cd256fce0234868173239787f9a72a00a5143b7ea78e4276cc9c5d1cf321b067cf276dcc0036848371219585fba52802a716397ca58c4074ce9e5312fd2fbe69c12963c20e388a8d7f2f9b8bf5ab260ca9183772ab824e7ac0905110ff2dbc6bc32b61c00c3a888f7d2d9989f7a9240eab1a3570a9804c78c2925716f92bba6dc52d67c60a3c8e897b2b9f8ff1af2208ad1c3376af864a7ec4945514fb29b86fc72f65c4083e8c8b79299d8df3ad200aaf1e3174ad84487cc6965b1af527b661c9216bca0630828577279383fda32e04a1103f7aa38a4672c8985918f725b463cb2369c80432808775259181ffa12c06a3123d78a1884470ca9a5f1ef123b265cd256fce0234868173239787f9a72a00a5143b7ea78e4276cc9c5d1cf321b067cf276dcc0036848371219585fba52802a716397ca58c4074ce9e5312fd2fbe69c12963c20e388a8d7f2f9b8bf5ab260ca9183772ab824e7ac0905110ff2dbc6bc32b61c00c3a888f7d2d9989f7a9240eab1a3570a9804c78c2925716f92bba6dc52d67c60a3c8e897b2b9f8ff1af2208ad1c3376af864a7ec4945514fb29b86fc72f65c4083e8c8b79299d8df3ad200aaf1e3174ad84487cc6965b1af527b661c9216bca0630828577279383fda32e04a1103f7aa38a4672c8985918f725b463cb2369c80432808775259181ffa12c06a3123d78a1884470ca9a5f1ef123b265cd256fce0234868173239787f9a72a00a5143b7ea78e4276cc9c5d1cf321b067cf276dcc0036848371219585fba52802a716397ca58c4074ce9e5312fd2fbe69c12963c20e388a8d7f2f9b8bf5ab260ca9183772ab824e7ac0905110ff2dbc6bc32b61c00c3a888f7d2d9989f7a9240eab1a3570a9804c78c2925716f92bba6dc52d67c60a3c8e897b2b9f8ff1af2208ad1c3376af864a7ec4945514fb29b86fc72f65c4083e8c8b79299d8df3ad200aaf1e3174ad84487cc6965b1af527b661c9216bca0630828577279383fda32e04a1103f7aa38a4672c8985918f725b463cb2369c80432808775259181ffa12c06a3123d78a1884470ca9a5f1ef123b265cd256fce0234868173239787f9a72a00a5143b7ea78e4276cc9c5d1cf321b067cf276dcc0036848371219585fba52802a716397ca58c4074ce9e5312fd2fbe69c12963c20e388a8d7f2f9b8bf5ab260ca9183772ab824e7ac0905110ff2dbc6bc32b61c00c3a888f7d2d9989f7a9240eab1a3570a9804c78c2925716f92bba6dc52d67c60a3c8e897b2b9f8ff1af2208ad1c3376af864a7ec4945514fb29b86fc72f65c4083e8c8b79299d8df3ad200aaf1e3174ad84487cc6965b1af527b661c9216bca0630828577279383fda32e04a1103f7aa38a4672c8985918f725b463cb2369c80432808775259181ffa12c06a3123d78a1884470ca9a5f1ef123b265cd256fce0234868173239787f9a72a00a5143b7ea78e4276cc9c5d1cf321b067cf276dcc0036848371219585fba52802a716397ca58c4074ce9e5312fd2fbe69c12963c20e388a8d7f2f909d5fe5bd7d5e0d33c228bbdee4f093c899e0c19ae7b37ffc506b42ece3786f1",
        "type": "nulldata"
      }
    }
  ],
  "blockhash": "73359bfd0a4582986ffd1e7664419d7a0ef7b090643ab62685454f7a097cd719",
  "confirmations": 1,
  "time": 1764179247,
  "blocktime": 1764179247
}