{
  "hex": "010000000001016fe82478f6d14910c374e1b0d437dffc61b3b62889e92ecfebea84661c0630fa0100000000feffffff02b0767139792d0000225120a8ce916173ed69cda13a0b7d84725e8743a1eb4acf31ec475f7d5707fe59353700e1f50500000000fdd5046a20ca67eabb14fb3b2291b14aef6f282ece5bae353a25cf755d15f90668b318a2324db0045d53cd821d4dcd81a6b04b0c032e5a7229075e5cc27b4419c063a23ecb4edb4b7d73eda23d6deda186906b2c230e7a5209277e7ce25b6439e043821eeb6efb6b1d138dc25d0d8dc1e6f00b4c436e1a3269471e1c823b04598023e27e8b0e9b0b3d33ade27d2dade1c6d02b6c634e3a1249673e3ca21b2479a003c25eab2ebb2bddd34d029dcd4d012630cb8c83aedaf2a987dedc42fbc49940e322be4bce5bcbfdf36d22bded6d210610ebaca38efad289a7fefc62dbe4b960c3029e6bee7beb9d930d42dd8d0d4166708bccc3ee9ab2e9c79e9c02bb84d900a362fe0b8e1b8bbdb32d62fdad2d614650abece3ceba92c9e7bebc229ba4f9208342de2bae3bab5d53cd821d4dcd81a6b04b0c032e5a7229075e5cc27b4419c063a23ecb4edb4b7d73eda23d6deda186906b2c230e7a5209277e7ce25b6439e043821eeb6efb6b1d138dc25d0d8dc1e6f00b4c436e1a3269471e1c823b04598023e27e8b0e9b0b3d33ade27d2dade1c6d02b6c634e3a1249673e3ca21b2479a003c25eab2ebb2bddd34d029dcd4d012630cb8c83aedaf2a987dedc42fbc49940e322be4bce5bcbfdf36d22bded6d210610ebaca38efad289a7fefc62dbe4b960c3029e6bee7beb9d930d42dd8d0d4166708bccc3ee9ab2e9c79e9c02bb84d900a362fe0b8e1b8bbdb32d62fdad2d614650abece3ceba92c9e7bebc229ba4f9208342de2bae3bab5d53cd821d4dcd81a6b04b0c032e5a7229075e5cc27b4419c063a23ecb4edb4b7d73eda23d6deda186906b2c230e7a5209277e7ce25b6439e043821eeb6efb6b1d138dc25d0d8dc1e6f00b4c436e1a3269471e1c823b04598023e27e8b0e9b0b3d33ade27d2dade1c6d02b6c634e3a1249673e3ca21b2479a003c25eab2ebb2bddd34d029dcd4d012630cb8c83aedaf2a987dedc42fbc49940e322be4bce5bcbfdf36d22bded6d210610ebaca38efad289a7fefc62dbe4b960c3029e6bee7beb9d930d42dd8d0d4166708bccc3ee9ab2e9c79e9c02bb84d900a362fe0b8e1b8bbdb32d62fdad2d614650abece3ceba92c9e7bebc229ba4f9208342de2bae3bab5d53cd821d4dcd81a6b04b0c032e5a7229075e5cc27b4419c063a23ecb4edb4b7d73eda23d6deda186906b2c230e7a5209277e7ce25b6439e043821eeb6efb6b1d138dc25d0d8dc1e6f00b4c436e1a3269471e1c823b04598023e27e8b0e9b0b3d33ade27d2dade1c6d02b6c634e3a1249673e3ca21b2479a003c25eab2ebb2bddd34d029dcd4d012630cb8c83aedaf2a987dedc42fbc49940e322be4bce5bcbfdf36d22bded6d210610ebaca38efad289a7fefc62dbe4b960c3029e6bee7beb9d930d42dd8d0d4166708bccc3ee9ab2e9c79e9c02bb84d900a362fe0b8e1b8bbdb32d62fdad2d614650abece3ceba92c9e7bebc229ba4f9208342de2bae3bab5d53cd821d4dcd81a6b04b0c032e5a7229075e5cc27b4419c063a23ecb4edb4b7d73eda23d6deda186906b2c230e7a5209277e7ce25b6439e043821eeb6efb6b1d138dc25d0d8dc1e6f00b4c436e1a3269471e1c823b04598023e27e8b0e9b0b3d33ade27d2dade1c6d02b6c634e3a1249673e3ca21b2479a003c25eab2ebb2bddd34d029dcd4d012630cb8c83aedaf28b41e749de5f043d39293656310cd4c840e27efa3d83706d2d91f0a0db98f7f902fd7509414330cead48dbb9f6dc359456c26d3df5f5fb85b1426a10fb7958618833e83506f08b2a7cfcccee6bba2b75b7691bdffba3fa7834ef19a13db08cc98438e9ee101f1d7951dc98d0bea98e5f48623d98783deaa5f375395b3780a46c9653864dd9fb859ecae08909e558ca96fcfc5c28cf78882a395caaefb3d0c6d9c77734addd920b519e1f8f6849ed3402251935775fecff20d0c45f1841d2620091ca75e7be24f3b2635437148a85583b8b80ac3c2caeb857006b148613e7a1dad5649ea383c9e096d2c29a0cb4c1de687d9d4121a0561ec58fee17239fa64dff487cd56caa3e4e2d706ccdb4d09e81c16a2cb8a192f50b65158a3fc0786d347c20a39952d3d0b3100d6492a2eed1043b84adadae0c0ea7186c8a05c58246c4661350d0d7d1a47c84dad1568b542fd33fbf3633e8aa5d8d91f8af5bab4956db9558a9657fd04cc34a19400e50a201e3bff713ac5eb3ba053cbdcfdc1b6957778c5d4b912b5781a5cf8f92f3389433cecec8eea3803b4c0caf5e819ccc730a0344a452117ca31a972122889d569db60b6856a9462e0c1a20080f6cb20dbae9637604b1d13b4ab2d7c8a9e7c0b50e4748d6db25d3ec78ed230af8337195587b9c8d44be7c324799e6fb78b01d66439ebc047cc6564a0ddafd7c6fabe00453eb736082ffd60520bd5ba311127cf507e51477361a146dddaf9e5fa1c36f66ead098e6df31293fe54cd3e5f13b1cae43f9ebcb960ae82bf30e4b7b33d062bbf810eeb57a3dad9eb13f923c019f07af596605f4c9088af0d607ae29685a65f9b262e79ed05f7384f8f3b9acedd93e794a8c6a5876149f916c41814ad743ce82e058fa6d50e0dcf37de16370785021c268a518e94d262f750e1925e7d3889518a6573e3e95fbd46b9b4b9c8f0b0c4d6dfbd12ed2f88238e4875d36ff3e6a2f31b40f8e94c6e7fadd452c6a04c37b4cf94a7c352621a2893abd9f9f2a127f29491aef9557c9319bd9e16a566b74aa81526af932e4a915d509e8b3caa178dad56ff61d98a4b6e8d5e6d11bd49c43db36b51c78947b05555360b1408dc953a4a0b7a134c7dfeebacb7aa3bb6c0c2d6a0348f99ffd05daf614d42c5d463c891dbb136321100944b2b7464e90fbb7d2acd373e9982068f4f57206075d778d5b60364c60e6cb1af19fe89d10ae5c93e14ecfe3dca0da281630d562dc9015509acd4223e18c3499d2d3941b0d49a26ecb942a27ab329861dab67399d479831e4a0a44931a1b5c8657252ffbf151c7bb59fcceaf4eacd1932ca85b322918702dede6cd123a2980de011c4fd6a7e39a30398feaf88f66917766ea8099d08f76683b32a1dd06008109c58b9fd6ac28133724b7c424a1c4c3f215f9be236c120c7c8c02a1e6253f7c1597568a94710e9dc99cf416d1c900fe7e79fb134897c07174c5f11e72e0f31b21ac9a3deae0223b9cea2a4dcf13913702a41ca83289812c0db75415637c79ab17fe44bc06830605a9ea558aad7613cb24b720c9f5192e1d0b577aac238867d7f9e96db1e296a7d94b893270ad703268be234d0aac74a32dc00584e967e07e2c7852dd107399c24569e454412b2abfc155df5796000f150135c312898de94fee09e9c063ed9a88a6ca0359b557dc60ed6fcbce9fbb505fb5234b9ec932b6b11a3933736df7b191a4942c0ec0af8b6f6e1dd4cf54cc89e356cb4c064ff201630120080a83e436ee7a6b5881a2af84a91e2423946cfa4abbf7675b89d99c1399959f8174210be4243544457b2882c2b3e2c75efd4d08663f6ade611169d7669f2cf7e59bfe4eb515c71b39fb312bf243c80cdc236b1852be8f696589b52bc19515a59f1fe7857e3294c632fc06172d1ba9d5e0d0d370b7ec3b5b8172b09e327b0c3f4fc6aa0f55e4599ee336bd70bfbc4c1afec17d823fdd63b4d35778ce247a0586bb92359d1c84cc793d42380e34f3294cc339a41e0261b5454074e959c002be6f6048902c2d16d90c3146caab601a1f6e4c82d45dae03495001f716a8e6db5d2640cb889f277f02fc583a2ae41162afec0aecc8ad813b4562a7caabd89ac10f47ce8e68ac31ca7ed9ad9a1bbbbdda2c4ba93213392a477b2246a49e8dc77641e55b6f7a9e73ded48f311cb3994be89f08be00e2be753ffbbeeac018dd682518ed5fe2a334e01163ecf87c39fc00d4d5940bb53bc06ab4504f5dbc9f8178a6988a0a52aac09e5af9128107d9e44082dc7e82478a2f6d02cc698d0432949ab194d1b797b09ea907b4edacb7c520e654faed42a5d4203710b148de7c5ca47353755eda181dd950de8ac0aa0e826ea521820293e06e0ed005b1bcc73a118037d25898bfd08675f675dacdd4b8620afed1a41f33ae8a71eaa880c372ef433b2532d9ed733946d421c4fa6d3328ce92896a034c037ac1c3b869dcd5c4b0244976b39c9f71033832a2574565aa57268fbb2fa0815e224b6aac1b2b7cffe787a93c13df848846e556f8ae9308dfbd644e2fceb0696ad65053b249f6dd83e471575b7fd485ebb756a55de6792edb5455c6d656a2079fa907754399bb7db22f574ed539282fa60c1a333b1567cb141a25c6e483dad876a54ba181bc1645c70771835c53d3649f4825099322663a1ef7314717d42cc0568aa5446df83a887492129cf347e38b8de30a59c7f13dae58d4309376a44fdb4c7fe11cdc24ea50f62cdb8280793a52df70f65b6dfa2184cdd631366a969b0febbb65911ffce2b78fec6e36347675b4323ef1095052925d27a9c8ea1032d3d058b22f3a3d196fee32e4f05c9a54b26f8b9d02ed2d49abe22c32685cd32bf34907378d24ae2aec3bc82d3230ab572229fff7a61d207228d3d7541b8e71e402dad576ffe84a530ec43599475e311fd7174ce820f4e6ec65d0e4cf9c8910aaac48d3f5f18ca18730caf90a2974defbbccd8c325a17b528bb64be68cdcdefe473f0b3003427199c9276eee388ec30ce2b958f29f1409b65d8ddaf62e876994c190cd4058c44cffd4958d063ced5be69319333dbded9949329a8d2642002925caa647ce26693d9542c2d5812176dbb2918c930a721d08a57d99afed0c0f67d589c92e1e0712d8eefe37470f7f6da35f68c22ecbabc8a734dd2e46a2d75495686ec4fe18e994187cd60bceb3b3067a2832452e60e07e3382aa8b5906ac285f4825dc2f070a570f81b4a44c78c7ee5a2e5afd2d865c52f4b724742bfefc9697cd7b8224f7f3c2e4d456579180542990c849613ae2be455a54c3fa1c52681e05c471b39f4b404db7e5ca2637be96e225cf96ac5d1490d2a05092b2d445c6a6c7d7f899ba2b0c2c3c5e1051b2b4d57656990bdc0c4d1dae0f70305080b0c131526434857838788898b95a3a9adbb040a343f44689bacdaebef0000000000000000000000000000001221364101fd210500385a6bae0882d6cb8505b8958e054674a59f39ee40a59265fd7b482bae327e466ad4baa0bcd20e302e334eba222db9eebff12244aee193198fa4a09a924422b647eb8c52d895a6dfb4d67a513bd87c2c6c28e1cfa7c3465874dbac9ab898a803e79b8378e38950eb76a2f1b19c8079e2816803bef37e92485a793e75d154667916c39a873342a1300e96534ecf9ed65a71c0473734eda88c90f0f780a6661625325bd6d5f5690bb02548aa0686a99c7f477ccb4e253917389d7995e5e2c8097bb7ba2cc8817a8a37a21638482b393ea76b3277b2bf8119bd9058e5ae9a679d52f1ea6a3cbd2820620d84fe67d8ae93916554f8ba42b9d7c00959b97009960bcedb14d746d8d03842b9460fd4e6685b47a9c64150915ceea8fa29cd9ef9dfd5ef631b4eb9cc5eb200042a36086d940212e276d4d17afa6b9878b8dfcc2ef70e91fe6f447746a1a8e7edf390fb2284a96bd6bf0c220dd1925334a491f43037e394f1ce7d607c01801750618350636c36dc0b300f95cec32268dbd76ba323cf09ff2718fe66ddc31924c10d27fa2ad51b5d6284c60d964f2f9303af352fc4a772df10947c96c057d4e3f846a75834213cae4e72691e57cf53bfda81c81cdcc7609186a62ed800845a0f35cc031614716f3654f7c7213efb18dba405a65d02dab4de502494c9d4aeda97f2e5fbe0bb49df7421c1a47bd9492679867c7add6c6cc0a5e65b09c8754ccf107b4ee394e7f81cdf6331258b0df2c65da57482fcbd5891653f5a1b629cfe8d599bb2ef20319008dc734840df72cd3372f001549bddfe119cee44197d1f3f57de07866375e2d134baf5544111a587519c99058b814bd2cdb51199c8109f2e9b6d3bf36498d706b323fc65804a619119ae3fac826c8be135f2cba36544dcfa637098056b42bb39a64187f84f37c6f4149a7718f9a1df60fd852e7f537eceecfd2d4186b7601629136ed26f35af501bd09e708b84fe92fefda41bf0fa550bd5dd3f28dfbe6bac2fd4591f0d04e4b69c0fb19586ba213894956cf6d922cd1cf7cc5526f9b15f40f1ab79e92278994b653e3ee21943e17c8aad4c605df47ce8fa8e88cd39590b05f99c766bdc1c15eb694ba0b65cc67e1d7ead65996aef4327d19aa285fa7517d2e50eb92b28c309850bc846777d49439efc443568fb9f0d0508f254166e64bbad5066217ced1257c3d22474fb82099aa79f2fb40a3323dc3f9f3288d867c6c1db54bce60210fe6c718fb72ca16ef7b107dee682cbc32d426a6858d01c5dae5546b9370dfcc9dc5e8d09bfb6919a1f7ae4d430cd13503b4ac31519629f2603ca0c69d538442797c899c5f90352d102e6d0d5d06cee6f672afa36d0076fb3de536957f7b3e09518831d226cd36748aadbb44874e325af86267ebc1533895047a9229aaceac1cf0b05301e27eeb082d556dc0f6f44870ae870b53f9c6719cdb2f1111453ed51c819991a349569cde3d5923d1a41fd4330a863421f8f12bc32d8f808fc5e373ef110f765982e04595820a9a7447706c07e5953cc5c91015fd8e1bc12ae1d6ca19fa3a8a604589a65772abe01fbb2412a1cc527e714df7dd42daa0800b7605f48c04f210f760271179c7435789e34580441465521697c881f919d2a6f7a027b05e0970874c056d0c678ddd76527c1d07e12ddc287f4dd1766f9248149b8b645c092c3cd4a1796e5c6934a6e1c1d10bd0959b82bd41f0279c579eac49904e3f380db3f6a93a5a107a72dd0c10f487184f3cec3bc4d462aab7618205d61dfc6f18551b57057903f6e5b48964ed5b97c1daf1cdb77a58cc6b034be6ac07e10092b1f215fd3afb6cd3b09b3371434c50b1575000000",
  "txid": "e3a707b05730af1b7603a537ec7d5ae4d7d2389fa04c72fa43566dc899ae14e3",
  "hash": "97d97dd5051ddb56d23a41337536387260cd50700f494d21f5fb807499a060b5",
  "size": 5085,
  "vsize": 2278,
  "version": 1,
  "locktime": 117,
  "vin": [
    {
      "txid": "fa30061c6684eaebcf2ee98928b6b361fcdf37d4b0e174c31049d1f67824e86f",
      "vout": 1,
      "scriptSig": {
        "asm": "",
        "hex": ""
      },
      "txinwitness": [
        "414330cead48dbb9f6dc359456c26d3df5f5fb85b1426a10fb7958618833e83506f08b2a7cfcccee6bba2b75b7691bdffba3fa7834ef19a13db08cc98438e9ee101f1d7951dc98d0bea98e5f48623d98783deaa5f375395b3780a46c9653864dd9fb859ecae08909e558ca96fcfc5c28cf78882a395caaefb3d0c6d9c77734addd920b519e1f8f6849ed3402251935775fecff20d0c45f1841d2620091ca75e7be24f3b2635437148a85583b8b80ac3c2caeb857006b148613e7a1dad5649ea383c9e096d2c29a0cb4c1de687d9d4121a0561ec58fee17239fa64dff487cd56caa3e4e2d706ccdb4d09e81c16a2cb8a192f50b65158a3fc0786d347c20a39952d3d0b3100d6492a2eed1043b84adadae0c0ea7186c8a05c58246c4661350d0d7d1a47c84dad1568b542fd33fbf3633e8aa5d8d91f8af5bab4956db9558a9657fd04cc34a19400e50a201e3bff713ac5eb3ba053cbdcfdc1b6957778c5d4b912b5781a5cf8f92f3389433cecec8eea3803b4c0caf5e819ccc730a0344a452117ca31a972122889d569db60b6856a9462e0c1a20080f6cb20dbae9637604b1d13b4ab2d7c8a9e7c0b50e4748d6db25d3ec78ed230af8337195587b9c8d44be7c324799e6fb78b01d66439ebc047cc6564a0ddafd7c6fabe00453eb736082ffd60520bd5ba311127cf507e51477361a146dddaf9e5fa1c36f66ead098e6df31293fe54cd3e5f13b1cae43f9ebcb960ae82bf30e4b7b33d062bbf810eeb57a3dad9eb13f923c019f07af596605f4c9088af0d607ae29685a65f9b262e79ed05f7384f8f3b9acedd93e794a8c6a5876149f916c41814ad743ce82e058fa6d50e0dcf37de16370785021c268a518e94d262f750e1925e7d3889518a6573e3e95fbd46b9b4b9c8f0b0c4d6dfbd12ed2f88238e4875d36ff3e6a2f31b40f8e94c6e7fadd452c6a04c37b4cf94a7c352621a2893abd9f9f2a127f29491aef9557c9319bd9e16a566b74aa81526af932e4a915d509e8b3caa178dad56ff61d98a4b6e8d5e6d11bd49c43db36b51c78947b05555360b1408dc953a4a0b7a134c7dfeebacb7aa3bb6c0c2d6a0348f99ffd05daf614d42c5d463c891dbb136321100944b2b7464e90fbb7d2acd373e9982068f4f57206075d778d5b60364c60e6cb1af19fe89d10ae5c93e14ecfe3dca0da281630d562dc9015509acd4223e18c3499d2d3941b0d49a26ecb942a27ab329861dab67399d479831e4a0a44931a1b5c8657252ffbf151c7bb59fcceaf4eacd1932ca85b322918702dede6cd123a2980de011c4fd6a7e39a30398feaf88f66917766ea8099d08f76683b32a1dd06008109c58b9fd6ac28133724b7c424a1c4c3f215f9be236c120c7c8c02a1e6253f7c1597568a94710e9dc99cf416d1c900fe7e79fb134897c07174c5f11e72e0f31b21ac9a3deae0223b9cea2a4dcf13913702a41ca83289812c0db75415637c79ab17fe44bc06830605a9ea558aad7613cb24b720c9f5192e1d0b577aac238867d7f9e96db1e296a7d94b893270ad703268be234d0aac74a32dc00584e967e07e2c7852dd107399c24569e454412b2abfc155df5796000f150135c312898de94fee09e9c063ed9a88a6ca0359b557dc60ed6fcbce9fbb505fb5234b9ec932b6b11a3933736df7b191a4942c0ec0af8b6f6e1dd4cf54cc89e356cb4c064ff201630120080a83e436ee7a6b5881a2af84a91e2423946cfa4abbf7675b89d99c1399959f8174210be4243544457b2882c2b3e2c75efd4d08663f6ade611169d7669f2cf7e59bfe4eb515c71b39fb312bf243c80cdc236b1852be8f696589b52bc19515a59f1fe7857e3294c632fc06172d1ba9d5e0d0d370b7ec3b5b8172b09e327b0c3f4fc6aa0f55e4599ee336bd70bfbc4c1afec17d823fdd63b4d35778ce247a0586bb92359d1c84cc793d42380e34f3294cc339a41e0261b5454074e959c002be6f6048902c2d16d90c3146caab601a1f6e4c82d45dae03495001f716a8e6db5d2640cb889f277f02fc583a2ae41162afec0aecc8ad813b4562a7caabd89ac10f47ce8e68ac31ca7ed9ad9a1bbbbdda2c4ba93213392a477b2246a49e8dc77641e55b6f7a9e73ded48f311cb3994be89f08be00e2be753ffbbeeac018dd682518ed5fe2a334e01163ecf87c39fc00d4d5940bb53bc06ab4504f5dbc9f8178a6988a0a52aac09e5af9128107d9e44082dc7e82478a2f6d02cc698d0432949ab194d1b797b09ea907b4edacb7c520e654faed42a5d4203710b148de7c5ca47353755eda181dd950de8ac0aa0e826ea521820293e06e0ed005b1bcc73a118037d25898bfd08675f675dacdd4b8620afed1a41f33ae8a71eaa880c372ef433b2532d9ed733946d421c4fa6d3328ce92896a034c037ac1c3b869dcd5c4b0244976b39c9f71033832a2574565aa57268fbb2fa0815e224b6aac1b2b7cffe787a93c13df848846e556f8ae9308dfbd644e2fceb0696ad65053b249f6dd83e471575b7fd485ebb756a55de6792edb5455c6d656a2079fa907754399bb7db22f574ed539282fa60c1a333b1567cb141a25c6e483dad876a54ba181bc1645c70771835c53d3649f4825099322663a1ef7314717d42cc0568aa5446df83a887492129cf347e38b8de30a59c7f13dae58d4309376a44fdb4c7fe11cdc24ea50f62cdb8280793a52df70f65b6dfa2184cdd631366a969b0febbb65911ffce2b78fec6e36347675b4323ef1095052925d27a9c8ea1032d3d058b22f3a3d196fee32e4f05c9a54b26f8b9d02ed2d49abe22c32685cd32bf34907378d24ae2aec3bc82d3230ab572229fff7a61d207228d3d7541b8e71e402dad576ffe84a530ec43599475e311fd7174ce820f4e6ec65d0e4cf9c8910aaac48d3f5f18ca18730caf90a2974defbbccd8c325a17b528bb64be68cdcdefe473f0b3003427199c9276eee388ec30ce2b958f29f1409b65d8ddaf62e876994c190cd4058c44cffd4958d063ced5be69319333dbded9949329a8d2642002925caa647ce26693d9542c2d5812176dbb2918c930a721d08a57d99afed0c0f67d589c92e1e0712d8eefe37470f7f6da35f68c22ecbabc8a734dd2e46a2d75495686ec4fe18e994187cd60bceb3b3067a2832452e60e07e3382aa8b5906ac285f4825dc2f070a570f81b4a44c78c7ee5a2e5afd2d865c52f4b724742bfefc9697cd7b8224f7f3c2e4d456579180542990c849613ae2be455a54c3fa1c52681e05c471b39f4b404db7e5ca2637be96e225cf96ac5d1490d2a05092b2d445c6a6c7d7f899ba2b0c2c3c5e1051b2b4d57656990bdc0c4d1dae0f70305080b0c131526434857838788898b95a3a9adbb040a343f44689bacdaebef0000000000000000000000000000001221364101",
        "00385a6bae0882d6cb8505b8958e054674a59f39ee40a59265fd7b482bae327e466ad4baa0bcd20e302e334eba222db9eebff12244aee193198fa4a09a924422b647eb8c52d895a6dfb4d67a513bd87c2c6c28e1cfa7c3465874dbac9ab898a803e79b8378e38950eb76a2f1b19c8079e2816803bef37e92485a793e75d154667916c39a873342a1300e96534ecf9ed65a71c0473734eda88c90f0f780a6661625325bd6d5f5690bb02548aa0686a99c7f477ccb4e253917389d7995e5e2c8097bb7ba2cc8817a8a37a21638482b393ea76b3277b2bf8119bd9058e5ae9a679d52f1ea6a3cbd2820620d84fe67d8ae93916554f8ba42b9d7c00959b97009960bcedb14d746d8d03842b9460fd4e6685b47a9c64150915ceea8fa29cd9ef9dfd5ef631b4eb9cc5eb200042a36086d940212e276d4d17afa6b9878b8dfcc2ef70e91fe6f447746a1a8e7edf390fb2284a96bd6bf0c220dd1925334a491f43037e394f1ce7d607c01801750618350636c36dc0b300f95cec32268dbd76ba323cf09ff2718fe66ddc31924c10d27fa2ad51b5d6284c60d964f2f9303af352fc4a772df10947c96c057d4e3f846a75834213cae4e72691e57cf53bfda81c81cdcc7609186a62ed800845a0f35cc031614716f3654f7c7213efb18dba405a65d02dab4de502494c9d4aeda97f2e5fbe0bb49df7421c1a47bd9492679867c7add6c6cc0a5e65b09c8754ccf107b4ee394e7f81cdf6331258b0df2c65da57482fcbd5891653f5a1b629cfe8d599bb2ef20319008dc734840df72cd3372f001549bddfe119cee44197d1f3f57de07866375e2d134baf5544111a587519c99058b814bd2cdb51199c8109f2e9b6d3bf36498d706b323fc65804a619119ae3fac826c8be135f2cba36544dcfa637098056b42bb39a64187f84f37c6f4149a7718f9a1df60fd852e7f537eceecfd2d4186b7601629136ed26f35af501bd09e708b84fe92fefda41bf0fa550bd5dd3f28dfbe6bac2fd4591f0d04e4b69c0fb19586ba213894956cf6d922cd1cf7cc5526f9b15f40f1ab79e92278994b653e3ee21943e17c8aad4c605df47ce8fa8e88cd39590b05f99c766bdc1c15eb694ba0b65cc67e1d7ead65996aef4327d19aa285fa7517d2e50eb92b28c309850bc846777d49439efc443568fb9f0d0508f254166e64bbad5066217ced1257c3d22474fb82099aa79f2fb40a3323dc3f9f3288d867c6c1db54bce60210fe6c718fb72ca16ef7b107dee682cbc32d426a6858d01c5dae5546b9370dfcc9dc5e8d09bfb6919a1f7ae4d430cd13503b4ac31519629f2603ca0c69d538442797c899c5f90352d102e6d0d5d06cee6f672afa36d0076fb3de536957f7b3e09518831d226cd36748aadbb44874e325af86267ebc1533895047a9229aaceac1cf0b05301e27eeb082d556dc0f6f44870ae870b53f9c6719cdb2f1111453ed51c819991a349569cde3d5923d1a41fd4330a863421f8f12bc32d8f808fc5e373ef110f765982e04595820a9a7447706c07e5953cc5c91015fd8e1bc12ae1d6ca19fa3a8a604589a65772abe01fbb2412a1cc527e714df7dd42daa0800b7605f48c04f210f760271179c7435789e34580441465521697c881f919d2a6f7a027b05e0970874c056d0c678ddd76527c1d07e12ddc287f4dd1766f9248149b8b645c092c3cd4a1796e5c6934a6e1c1d10bd0959b82bd41f0279c579eac49904e3f380db3f6a93a5a107a72dd0c10f487184f3cec3bc4d462aab7618205d61dfc6f18551b57057903f6e5b48964ed5b97c1daf1cdb77a58cc6b034be6ac07e10092b1f215fd3afb6cd3b09b3371434c50b15"
      ],
      "sequence": 4294967294
    }
  ],
  "vout": [
    {
      "value": 499986.7803,
      "n": 0,
      "scriptPubKey": {
        "asm": "1 a8ce916173ed69cda13a0b7d84725e8743a1eb4acf31ec475f7d5707fe593537",
        "hex": "5120a8ce916173ed69cda13a0b7d84725e8743a1eb4acf31ec475f7d5707fe593537",
        "reqSigs": 1,
        "type": "witness_v1_scripthash",
        "addresses": [
          "3QJmnh"
        ]
      }
    },
    {
      "value": 1.0,
      "n": 1,
      "scriptPubKey": {
        "asm": "OP_RETURN ca67eabb14fb3b2291b14aef6f282ece5bae353a25cf755d15f90668b318a232 5d53cd821d4dcd81a6b04b0c032e5a7229075e5cc27b4419c063a23ecb4edb4b7d73eda23d6deda186906b2c230e7a5209277e7ce25b6439e043821eeb6efb6b1d138dc25d0d8dc1e6f00b4c436e1a3269471e1c823b04598023e27e8b0e9b0b3d33ade27d2dade1c6d02b6c634e3a1249673e3ca21b2479a003c25eab2ebb2bddd34d029dcd4d012630cb8c83aedaf2a987dedc42fbc49940e322be4bce5bcbfdf36d22bded6d210610ebaca38efad289a7fefc62dbe4b960c3029e6bee7beb9d930d42dd8d0d4166708bccc3ee9ab2e9c79e9c02bb84d900a362fe0b8e1b8bbdb32d62fdad2d614650abece3ceba92c9e7bebc229ba4f9208342de2bae3bab5d53cd821d4dcd81a6b04b0c032e5a7229075e5cc27b4419c063a23ecb4edb4b7d73eda23d6deda186906b2c230e7a5209277e7ce25b6439e043821eeb6efb6b1d138dc25d0d8dc1e6f00b4c436e1a3269471e1c823b04598023e27e8b0e9b0b3d33ade27d2dade1c6d02b6c634e3a1249673e3ca21b2479a003c25eab2ebb2bddd34d029dcd4d012630cb8c83aedaf2a987dedc42fbc49940e322be4bce5bcbfdf36d22bded6d210610ebaca38efad289a7fefc62dbe4b960c3029e6bee7beb9d930d42dd8d0d4166708bccc3ee9ab2e9c79e9c02bb84d900a362fe0b8e1b8bbdb32d62fdad2d614650abece3ceba92c9e7bebc229ba4f9208342de2bae3bab5d53cd821d4dcd81a6b04b0c032e5a7229075e5cc27b4419c063a23ecb4edb4b7d73eda23d6deda186906b2c230e7a5209277e7ce25b6439e043821eeb6efb6b1d138dc25d0d8dc1e6f00b4c436e1a3269471e1c823b04598023e27e8b0e9b0b3d33ade27d2dade1c6d02b6c634e3a1249673e3ca21b2479a003c25eab2ebb2bddd34d029dcd4d012630cb8c83aedaf2a987dedc42fbc49940e322be4bce5bcbfdf36d22bded6d210610ebaca38efad289a7fefc62dbe4b960c3029e6bee7beb9d930d42dd8d0d4166708bccc3ee9ab2e9c79e9c02bb84d900a362fe0b8e1b8bbdb32d62fdad2d614650abece3ceba92c9e7bebc229ba4f9208342de2bae3bab5d53cd821d4dcd81a6b04b0c032e5a7229075e5cc27b4419c063a23ecb4edb4b7d73eda23d6deda186906b2c230e7a5209277e7ce25b6439e043821eeb6efb6b1d138dc25d0d8dc1e6f00b4c436e1a3269471e1c823b04598023e27e8b0e9b0b3d33ade27d2dade1c6d02b6c634e3a1249673e3ca21b2479a003c25eab2ebb2bddd34d029dcd4d012630cb8c83aedaf2a987dedc42fbc49940e322be4bce5bcbfdf36d22bded6d210610ebaca38efad289a7fefc62dbe4b960c3029e6bee7beb9d930d42dd8d0d4166708bccc3ee9ab2e9c79e9c02bb84d900a362fe0b8e1b8bbdb32d62fdad2d614650abece3ceba92c9e7bebc229ba4f9208342de2bae3bab5d53cd821d4dcd81a6b04b0c032e5a7229075e5cc27b4419c063a23ecb4edb4b7d73eda23d6deda186906b2c230e7a5209277e7ce25b6439e043821eeb6efb6b1d138dc25d0d8dc1e6f00b4c436e1a3269471e1c823b04598023e27e8b0e9b0b3d33ade27d2dade1c6d02b6c634e3a1249673e3ca21b2479a003c25eab2ebb2bddd34d029dcd4d012630cb8c83aedaf28b41e749de5f043d39293656310cd4c840e27efa3d83706d2d91f0a0db98f7f9",
        "hex": "6a20ca67eabb14fb3b2291b14aef6f282ece5bae353a25cf755d15f90668b318a2324db0045d53cd821d4dcd81a6b04b0c032e5a7229075e5cc27b4419c063a23ecb4edb4b7d73eda23d6deda186906b2c230e7a5209277e7ce25b6439e043821eeb6efb6b1d138dc25d0d8dc1e6f00b4c436e1a3269471e1c823b04598023e27e8b0e9b0b3d33ade27d2dade1c6d02b6c634e3a1249673e3ca21b2479a003c25eab2ebb2bddd34d029dcd4d012630cb8c83aedaf2a987dedc42fbc49940e322be4bce5bcbfdf36d22bded6d210610ebaca38efad289a7fefc62dbe4b960c3029e6bee7beb9d930d42dd8d0d4166708bccc3ee9ab2e9c79e9c02bb84d900a362fe0b8e1b8bbdb32d62fdad2d614650abece3ceba92c9e7bebc229ba4f9208342de2bae3bab5d53cd821d4dcd81a6b04b0c032e5a7229075e5cc27b4419c063a23ecb4edb4b7d73eda23d6deda186906b2c230e7a5209277e7ce25b6439e043821eeb6efb6b1d138dc25d0d8dc1e6f00b4c436e1a3269471e1c823b04598023e27e8b0e9b0b3d33ade27d2dade1c6d02b6c634e3a1249673e3ca21b2479a003c25eab2ebb2bddd34d029dcd4d012630cb8c83aedaf2a987dedc42fbc49940e322be4bce5bcbfdf36d22bded6d210610ebaca38efad289a7fefc62dbe4b960c3029e6bee7beb9d930d42dd8d0d4166708bccc3ee9ab2e9c79e9c02bb84d900a362fe0b8e1b8bbdb32d62fdad2d614650abece3ceba92c9e7bebc229ba4f9208342de2bae3bab5d53cd821d4dcd81a6b04b0c032e5a7229075e5cc27b4419c063a23ecb4edb4b7d73eda23d6deda186906b2c230e7a5209277e7ce25b6439e043821eeb6efb6b1d138dc25d0d8dc1e6f00b4c436e1a3269471e1c823b04598023e27e8b0e9b0b3d33ade27d2dade1c6d02b6c634e3a1249673e3ca21b2479a003c25eab2ebb2bddd34d029dcd4d012630cb8c83aedaf2a987dedc42fbc49940e322be4bce5bcbfdf36d22bded6d210610ebaca38efad289a7fefc62dbe4b960c3029e6bee7beb9d930d42dd8d0d4166708bccc3ee9ab2e9c79e9c02bb84d900a362fe0b8e1b8bbdb32d62fdad2d614650abece3ceba92c9e7bebc229ba4f9208342de2bae3bab5d53cd821d4dcd81a6b04b0c032e5a7229075e5cc27b4419c063a23ecb4edb4b7d73eda23d6deda186906b2c230e7a5209277e7ce25b6439e043821eeb6efb6b1d138dc25d0d8dc1e6f00b4c436e1a3269471e1c823b04598023e27e8b0e9b0b3d33ade27d2dade1c6d02b6c634e3a1249673e3ca21b2479a003c25eab2ebb2bddd34d029dcd4d012630cb8c83aedaf2a987dedc42fbc49940e322be4bce5bcbfdf36d22bded6d210610ebaca38efad289a7fefc62dbe4b960c3029e6bee7beb9d930d42dd8d0d4166708bccc3ee9ab2e9c79e9c02bb84d900a362fe0b8e1b8bbdb32d62fdad2d614650abece3ceba92c9e7bebc229ba4f9208342de2bae3bab5d53cd821d4dcd81a6b04b0c032e5a7229075e5cc27b4419c063a23ecb4edb4b7d73eda23d6deda186906b2c230e7a5209277e7ce25b6439e043821eeb6efb6b1d138dc25d0d8dc1e6f00b4c436e1a3269471e1c823b04598023e27e8b0e9b0b3d33ade27d2dade1c6d02b6c634e3a1249673e3ca21b2479a003c25eab2ebb2bddd34d029dcd4d012630cb8c83aedaf28b41e749de5f043d39293656310cd4c840e27efa3d83706d2d91f0a0db98f7f9",
        "type": "nulldata"
      }
    }
  ],
  "blockhash": "443ef5589806c3570db60b1178f56898637f167918ce0f0236a27ac7d0512dc1",
  "confirmations": 1,
  "time": 1764179461,
  "blocktime": 1764179461
}