{
  "hex": "01000000000101df6ff19b07f0a2dc8d0bac358e98a48ab5bd407af7c96585f2ba612061983d040100000000feffffff0200e1f50500000000fdd5046a20ec75965f70defc8e6a560eb79a38854ae403257e5a36458642a738f2e3c406d94db004a77e45536762c927f80b60d76162c4110638aea1f5191eb093fd9039e0f9d5ac875e65734742e907d82b40f74142e43126188e81d5393e90b3ddb019c0d9f58ce73e051327228967b84b2097212284514678eee1b5595ef0d3bdd079a0b995ecc71e25330702a947986b00b70102a4716658cec195797ed0f39df0598099b5cc27fec5d3e7e249a7788be057e1e2449186b82e2175999e30137d10b96079552c07dee5f3c7c2698758abc077c1c264b1a6980e0155b9be10335d30994059750c67be8593a7a209e738cba017a1a204d1c6f86e6135d9de70533d50f92039156c479ea5b3878229c718eb8037818224f1e6d84e4115f9fe50731d70d90019354ca77e45536762c927f80b60d76162c4110638aea1f5191eb093fd9039e0f9d5ac875e65734742e907d82b40f74142e43126188e81d5393e90b3ddb019c0d9f58ce73e051327228967b84b2097212284514678eee1b5595ef0d3bdd079a0b995ecc71e25330702a947986b00b70102a4716658cec195797ed0f39df0598099b5cc27fec5d3e7e249a7788be057e1e2449186b82e2175999e30137d10b96079552c07dee5f3c7c2698758abc077c1c264b1a6980e0155b9be10335d30994059750c67be8593a7a209e738cba017a1a204d1c6f86e6135d9de70533d50f92039156c479ea5b3878229c718eb8037818224f1e6d84e4115f9fe50731d70d90019354ca77e45536762c927f80b60d76162c4110638aea1f5191eb093fd9039e0f9d5ac875e65734742e907d82b40f74142e43126188e81d5393e90b3ddb019c0d9f58ce73e051327228967b84b2097212284514678eee1b5595ef0d3bdd079a0b995ecc71e25330702a947986b00b70102a4716658cec195797ed0f39df0598099b5cc27fec5d3e7e249a7788be057e1e2449186b82e2175999e30137d10b96079552c07dee5f3c7c2698758abc077c1c264b1a6980e0155b9be10335d30994059750c67be8593a7a209e738cba017a1a204d1c6f86e6135d9de70533d50f92039156c479ea5b3878229c718eb8037818224f1e6d84e4115f9fe50731d70d90019354ca77e45536762c927f80b60d76162c4110638aea1f5191eb093fd9039e0f9d5ac875e65734742e907d82b40f74142e43126188e81d5393e90b3ddb019c0d9f58ce73e051327228967b84b2097212284514678eee1b5595ef0d3bdd079a0b995ecc71e25330702a947986b00b70102a4716658cec195797ed0f39df0598099b5cc27fec5d3e7e249a7788be057e1e2449186b82e2175999e30137d10b96079552c07dee5f3c7c2698758abc077c1c264b1a6980e0155b9be10335d30994059750c67be8593a7a209e738cba017a1a204d1c6f86e6135d9de70533d50f92039156c479ea5b3878229c718eb8037818224f1e6d84e4115f9fe50731d70d90019354ca77e45536762c927f80b60d76162c4110638aea1f5191eb093fd9039e0f9d5ac875e65734742e907d82b40f74142e43126188e81d5393e90b3ddb019c0d9f58ce73e051327228967b84b2097212284514678eee1b5595ef0d3bdd079a0b995ecc71e25330702a947986b00b70102a4716658cec195797ed0f39df0598099b5cc27fec5d3e7e249a7788be057e1e24491e399c3f61061c476d9136fc4fa847e7bdec7e8387dfee31cc7db632a630339f14021813f792d000022512067c21fa1a33733c4caa9bc4115bf578ebb19cd0ce72f299238e19c1b6966bef002fd75094f68541a46a5de5fef7f3f154e6544a698867aa5d4d3417e5025fe6cd87c9566ab074ae70f0f5c73c1607bbe55f6d9bbe7cfb38852c67bb1c2ca6627ba4acf62eeb65449280e7dbf100bebd9d79e79351eeaefcdfe281eb3349f5f7364acabdcc54ee70a62b717a324d1eda3890a1e053f7c9b8f6a1af26c146d5501054b5b3f2ff87529547a61b40aebe8c335a20addaa8c45c54bc169a99d3f67b6b8a4c9aab745b0345aa9a40f98c73296d16f118e1e20bdc6985f4321b8b8fb5e6ea2616da8f1a079a9e639911312bd45f7b2aa4f8acdf167913e3e774d0d4e9da994dd4e1768f252cd0795bf8f960088d2b10190903bb9d27de9e9a72cc10b1d87a3dce1a8c4360a0ee5ce70cf1a9a589916c7959398c80acd68992d2c4aae612f01e643fd29b8e855b158b42c1d5aa1c08a0f8fecf65aa7e8c042a1bb9aeaf3e2f73e4a163d238267bb6cac42def3054720a3a8829d77128c60b1afb656e2e5c073db762944547031b07fba5e7c1a368a5323beffbe0dfc8a636e8237e5eb3064fa96a5050758922ac9bc51aad6d345909a7bc9454781ed9f01cba6dee6296da8ee08369504ed827bcc38af5059547dbdbccdbb5d9e26c80ec0c3c2039469d23a9f9f8a58dd6c1a43db28776faeccddda8694d64ed18136e4aadc5bf6164d9dc9f005a788f5ecd25595e751f3ff66b668a11eee866f8410c069fd8eb279f3c24aae566479c58dc33a08a4cc4d3887baeeda65b6be745746bc2643d83748917e3374d72207cae5b235427490ee3d4bb92fec51a1f8598ab33368803258a26777f593c82741f0be184055057c08d773bb2086698f69a74387e180dc4e86b475747d3ae5921f2184ff2544aebb9784a26107cfee3a3bdd920e1691075fb245f6b6b320dd2d08732a21516786b261d81b8d1384c5ebc4d1c32642290340221f8c496c24be3bba25c849465c9bcf2f5cd1d1a3dee22712c061cc7b9b159c1c004d9dab06b2afcc928b0bb80378361fc06c2b613a208e1a743335b06c2f90aff816fc4d2f1cfba45182b47a8389a51eb92ca91e31d673155e047394b4cf02c73b8fc05d1278ae8ee2dade88cdba4799021771cbed9b73757a161e704111ad592e458a1ede61da0689576b4d5634913ca1d91bba9332ba5442812310223b9f8c03e9499c7f09a7e0de2a6045fddc231de8e7bd2ffc6e9e2c5356e7537c8a4993fe4ffca733fd5ef38bc8fe1b94773266e46f203401b7c0b355c74fd102fa4b8a248e30e3837939822ca9a768fa1c6987d0b782bb03f8b327a8f35fad75e82055eb04bf2b9b7ec6e588bc615c8a06751cffbd51ac9306c892b5ebacd86dce0e27a9466a9e016d605c7f1a2bd3296f4963b679e6a9952386514ba4004149b6f61bf534df1adb8af8766475df48c99a407b8d0f6451d73ff184b2a3e6b735bfd994e3eabb12d13c3002bbe34490aab58af332cb0db3519b241364468eb1aeec41df11fc5cd7a9744dd862bebf4bd2554af16f6195c182d5656533e133d0e0befb8527366efd786607cf9af0f21a6f6b4a7db26a2c9cc697f4a8d6fe6062b4b811a61950e88e15fd36b4cfe2f1948f5db23bf5ea6b88dca3dfa347e32111aedbcf85d8859f4452a19979ea0d606f7b8de3e2c433e231b108e6f234be660105d2deb07c139d496e437de7b0fa9a4ed9e94bea61fe541efa353b472b102fa2d964bad29099935eaf6141dc5a76a35f39e95d5972967a1306abb441848bc156b3468f402edcc286340816dd0e8a4d8e5c1733bbc8d44f843fab8dfcf431d541a80b191dc4a9932bcdba6b210e1a64cb56ca17ea85295c24c7cc876f91a9c3f62776bccccc4014112bd0263c74be0463a88ac55757c7eb28efcbdf994530d8f5226c27c962aafc293ee36e38ffea7e6ce2ea09dd859f5763648f45b0d48877dc4cb83acee5c0a2090b1e03f8a379552c4c65c1a569aed9f8e792a0ed031ff7b024e02732591f17747f9751bba47c9d4c6521c14164f7af67669b185bea76e11044c8fb8dbef8979cf6ecbd44de0fb5b8a53eb56d416fd515c48d7c8be1a7d1cefeea7367e6642acbdd99725b864408850adfac319337b6626028616fa1768baf544597a6f78ffd888224af7495484f4526e2a29b18e161b46d2f42509e61375b26753400338de0b226f4b3eb2263467bc7a150cd2c18e8e3be7e2b3429921ffa04b3ea8a34c1db35cb2e4650a0258f387a335158d72eb8cafb8a60fbcadc082afa370dc3c81558772c2de5fb70f7da9bb9b28b816cf396488f68b8bf3ed9239a2eb8a22341d9dd939f5cdafdfcd2313914bc156757931a69b6be8f5fc208f59ffcd2bbcd26018ed20328600cb113f208d3fcb6ac842c0d0bf9295cc1e53da1aa0452a0004d40e404fe0e54cca73bca423b63ec6502aafbcfe67457146ed655c4ad6438f910db5f8bba80d5472839c6e8063cd22a9eaf1a0572179559833153118efdabd66433696adbd52382af341442f468bbe2b60ebf7649dbd6cf850939dccecf8d9bdf5a3f3831590b23643e825219b8a83b83efc74b3d18a01b04727fc656e61db83607ba8044bb8a8c1d15f34a01ff54f9ecc2a576dee714eb2c90d03d83aa2e26f29978c1b1968400f5cd2b4fc4205ef975f3326d8c6789b8d2d98db3cfd2c371157263d3c7ac93630c6a4779a3ece9c52011d65da8fbcc41c72af59d6aa65aafd6be7338190cda52e417692c472ca0481f10dbb7e4e7edb129dceb9d7a6eaf94173e3a3c8fdb7e39ae1a219ed108a404e231bc4acba9a05a3e9ea0d5fb6017a22174c9b5c5e9a17416cddde60b255d9d72a3709fd55892c4390314bdf3eb62cefe6cd1a228d3a992c9bd91816d8c795568d771df49aa8a3363be8dc42345c4e5c25b1b4e9b2f87c52c1d0820b5b170cd03ad28f08a38bde87994ee7f90b1f49d68861a8bdd992f3b47e0d429d772175e015a5ed15348825e3a7042462dc654019d03b1416d163559afd6d1a0716f017d00f885b44b6e651f0a5e4c0a5ece9e3acca4e2ae32cc4433b996efad73258cd7fe58eeb0f2302de888494daa52ae7d0e36b0d2094e7282ea35eaa32300e39cd20bc4a2dc6e33a8e3cfd14ecd7b84defcc78e492078ae15e0ebe8dca4a55146d840ad96ba6e1d42ba170f7804ee3bcac6763bba3e996bcf78ddd0fa614f5a8d175a641de0e6cbad7e590902a4fa499747d08b6bda1b9ddd339156f632097979ec3550d2e15e8d73976725d12ddc48ad3dacd47bce6615a0d973f102beb7dd2809ab9ff6f80ac499818070f34c0ba32fbca8a4a5c7a5d66d131823434d6379b7c3cce7050711121830565e696c7274919de6e8ec06080c1123325d658487999cb3c8cfdadbe2e8023137383a3b3e516e737592a1a6b1b2b9c1cae3000000000000000000000000000b1c2f4301fd2105009b9b606f96c62618e5e8f3e7a882d4d755da17716165ea9ba8b0e32251f4519194177d4ec1670a1a269c8894c706beb076f95d69fcb2d9eca3b5fa52ed8753e2c9b91e71e39ba87a547aa59e27dbef24b8fdbef52e0b750f979cb3e249088cbf3e42a03a2a95e791ce535e49d9b1d8e6be987de506d3f62ee73e9311b778841a35b97ee37498f322f50e68cfacd41ddfe4d9e0291bf61b739f39ca4b27ad8066aed3cb153b657859c79bdcb8fee14cfab1a1ea574daa470692019cf46aa920afdee54c64e05351d3bfe95d5cc4baaa68d97f5a90e535e52d53a94444c7b0a5191c359600fab98fb48500afd991291939935eb4d2cf3ca4119f62f01bc4d0cc9c35a4d18f53de279acbf4e543bf1f74c84edb8105eb7ec752e0375aac5ae34da68349c0a6c6fb2d0e31abc21a06256359a17914dce6aed576be9d6ebf3c2a063ee89e23a42cc13b43c22552e976f78b480ae22dc9a48dca9d7271a5a2889345942c2f609529ee7d57d32642719c5df25af107ef19ea796fa0ffa3bcffb550b4f0a5f67a84f1bda7391d795c2952e7bd3108f9e3891ba763c75939e443e22a44c5f529145fa218b5af6ed61e9ef2eb31d68b84ca1b34e5900c3aaafa63228aa8e59e6bd08d2021d87e2f9de63b9e7a4bb345262b40eea12a0d0442e82f9fea2bfe695d5040d02e0dbc206f8f3405db148bf2465f048d38e8108dba78b880ee6077bdb9ddb3f6a13dfa1d5572678a4bee584b295d95e7696fd5e1fe9a818bba69bb7d282d883f8ad91b0d157d5e1bec5365fe69242794c50417ee513b75fa8dd5688ab47c7b268249bf01f3dfa4c523356de6c49d439ef3a142f138b5429ddc5344315140c4e11e93dc5d436aa8fdf714936bec2bb38d2ea28464015cb7685ced081c16fedaab10fb9f063c53e61677198a89d70e0643b2584ff5dad75b79a1044d3cdcf2595076c233311b18b784f3a74cda957ef068c2e0bffa8bcae7d576ffd1cf5caab66360c559ac4a51724d2885121f91deefec3cefa3380361fb201baed62c6f26fb8603c341afda07a1b43a9a9343b42f0d3d807efdc12dad9a3dbaa48d5c5ec83753b6d1880cbe7e2b4be6b8ee4a8ecd6b388215a7f433f8f008fb6569aa45ba61120e756265458583f209a9a13183bee9a1f5285764a8d1cf2bafd6616e1e503e335aeb4afb8ad7229d431a623e439add0e2c6359958217cb6540ddde743920a9571d8a658994fd814dcff2a20a0348cb88640de0ed98561d9fef958f005bf9c27af977ac3475978ccfc538d55917f11e0e4e4485ff340e705b8275a321f097e29848adf07ccb36d46458c8cfe2be5b95cdba8ca0ea8d70ccd6ba426b17a01fe55d75c6a28b182e26d1242f21707c3812e200d23190eca03b32c90a2cad72ea224441220d69c1d44f9adf72a0eedf2cacf2af96c5eb521d38d4f7f733f4e85941e9b773d53f94a0762150dde23e134da5460ee9cb5ea203b09e34f8e2c019e7b7f890a0f28bc8aaa9b2308c4baf8229c3cf44dc24ec8ec94df7bca4a3289866fca19017ac977ed112bc3789b95a4db196f013e6225c585e23be67009644d615c3f5690ffa1dfbac39ac92532374a834f1915af88a0de643de8cf1e3296505e811658d4a9090c5268c489f430b7ead78a64b9ffd36878e2fc309ce9e7f3c6126d7c7c9d8a1daa955a2cec8d982776d62373def73806e2be457ffcbec3ee3b30537814fd6eb15f6178f8f04725ae84e520cd12caeab1be8825eeb5fe94ebbec036470ee5edbda2397ddd406b2e930cb091ff1227a11f0305c9090706748d5ba891838fecfe11f885ae8372e720456d7406fe9807d32c3149551103d46b96e000000",
  "txid": "efc2540b23f60bebfba4adc0a588985a211dab639df7e36eac908380d00f4a56",
  "hash": "0a2c81a7e1bacb712dad04258185d98b026777afc35678fa2a6df0ff43ba0bd1",
  "size": 5085,
  "vsize": 2278,
  "version": 1,
  "locktime": 110,
  "vin": [
    {
      "txid": "043d98612061baf28565c9f77a40bdb58aa4988e35ac0b8ddca2f0079bf16fdf",
      "vout": 1,
      "scriptSig": {
        "asm": "",
        "hex": ""
      },
      "txinwitness": [
        "4f68541a46a5de5fef7f3f154e6544a698867aa5d4d3417e5025fe6cd87c9566ab074ae70f0f5c73c1607bbe55f6d9bbe7cfb38852c67bb1c2ca6627ba4acf62eeb65449280e7dbf100bebd9d79e79351eeaefcdfe281eb3349f5f7364acabdcc54ee70a62b717a324d1eda3890a1e053f7c9b8f6a1af26c146d5501054b5b3f2ff87529547a61b40aebe8c335a20addaa8c45c54bc169a99d3f67b6b8a4c9aab745b0345aa9a40f98c73296d16f118e1e20bdc6985f4321b8b8fb5e6ea2616da8f1a079a9e639911312bd45f7b2aa4f8acdf167913e3e774d0d4e9da994dd4e1768f252cd0795bf8f960088d2b10190903bb9d27de9e9a72cc10b1d87a3dce1a8c4360a0ee5ce70cf1a9a589916c7959398c80acd68992d2c4aae612f01e643fd29b8e855b158b42c1d5aa1c08a0f8fecf65aa7e8c042a1bb9aeaf3e2f73e4a163d238267bb6cac42def3054720a3a8829d77128c60b1afb656e2e5c073db762944547031b07fba5e7c1a368a5323beffbe0dfc8a636e8237e5eb3064fa96a5050758922ac9bc51aad6d345909a7bc9454781ed9f01cba6dee6296da8ee08369504ed827bcc38af5059547dbdbccdbb5d9e26c80ec0c3c2039469d23a9f9f8a58dd6c1a43db28776faeccddda8694d64ed18136e4aadc5bf6164d9dc9f005a788f5ecd25595e751f3ff66b668a11eee866f8410c069fd8eb279f3c24aae566479c58dc33a08a4cc4d3887baeeda65b6be745746bc2643d83748917e3374d72207cae5b235427490ee3d4bb92fec51a1f8598ab33368803258a26777f593c82741f0be184055057c08d773bb2086698f69a74387e180dc4e86b475747d3ae5921f2184ff2544aebb9784a26107cfee3a3bdd920e1691075fb245f6b6b320dd2d08732a21516786b261d81b8d1384c5ebc4d1c32642290340221f8c496c24be3bba25c849465c9bcf2f5cd1d1a3dee22712c061cc7b9b159c1c004d9dab06b2afcc928b0bb80378361fc06c2b613a208e1a743335b06c2f90aff816fc4d2f1cfba45182b47a8389a51eb92ca91e31d673155e047394b4cf02c73b8fc05d1278ae8ee2dade88cdba4799021771cbed9b73757a161e704111ad592e458a1ede61da0689576b4d5634913ca1d91bba9332ba5442812310223b9f8c03e9499c7f09a7e0de2a6045fddc231de8e7bd2ffc6e9e2c5356e7537c8a4993fe4ffca733fd5ef38bc8fe1b94773266e46f203401b7c0b355c74fd102fa4b8a248e30e3837939822ca9a768fa1c6987d0b782bb03f8b327a8f35fad75e82055eb04bf2b9b7ec6e588bc615c8a06751cffbd51ac9306c892b5ebacd86dce0e27a9466a9e016d605c7f1a2bd3296f4963b679e6a9952386514ba4004149b6f61bf534df1adb8af8766475df48c99a407b8d0f6451d73ff184b2a3e6b735bfd994e3eabb12d13c3002bbe34490aab58af332cb0db3519b241364468eb1aeec41df11fc5cd7a9744dd862bebf4bd2554af16f6195c182d5656533e133d0e0befb8527366efd786607cf9af0f21a6f6b4a7db26a2c9cc697f4a8d6fe6062b4b811a61950e88e15fd36b4cfe2f1948f5db23bf5ea6b88dca3dfa347e32111aedbcf85d8859f4452a19979ea0d606f7b8de3e2c433e231b108e6f234be660105d2deb07c139d496e437de7b0fa9a4ed9e94bea61fe541efa353b472b102fa2d964bad29099935eaf6141dc5a76a35f39e95d5972967a1306abb441848bc156b3468f402edcc286340816dd0e8a4d8e5c1733bbc8d44f843fab8dfcf431d541a80b191dc4a9932bcdba6b210e1a64cb56ca17ea85295c24c7cc876f91a9c3f62776bccccc4014112bd0263c74be0463a88ac55757c7eb28efcbdf994530d8f5226c27c962aafc293ee36e38ffea7e6ce2ea09dd859f5763648f45b0d48877dc4cb83acee5c0a2090b1e03f8a379552c4c65c1a569aed9f8e792a0ed031ff7b024e02732591f17747f9751bba47c9d4c6521c14164f7af67669b185bea76e11044c8fb8dbef8979cf6ecbd44de0fb5b8a53eb56d416fd515c48d7c8be1a7d1cefeea7367e6642acbdd99725b864408850adfac319337b6626028616fa1768baf544597a6f78ffd888224af7495484f4526e2a29b18e161b46d2f42509e61375b26753400338de0b226f4b3eb2263467bc7a150cd2c18e8e3be7e2b3429921ffa04b3ea8a34c1db35cb2e4650a0258f387a335158d72eb8cafb8a60fbcadc082afa370dc3c81558772c2de5fb70f7da9bb9b28b816cf396488f68b8bf3ed9239a2eb8a22341d9dd939f5cdafdfcd2313914bc156757931a69b6be8f5fc208f59ffcd2bbcd26018ed20328600cb113f208d3fcb6ac842c0d0bf9295cc1e53da1aa0452a0004d40e404fe0e54cca73bca423b63ec6502aafbcfe67457146ed655c4ad6438f910db5f8bba80d5472839c6e8063cd22a9eaf1a0572179559833153118efdabd66433696adbd52382af341442f468bbe2b60ebf7649dbd6cf850939dccecf8d9bdf5a3f3831590b23643e825219b8a83b83efc74b3d18a01b04727fc656e61db83607ba8044bb8a8c1d15f34a01ff54f9ecc2a576dee714eb2c90d03d83aa2e26f29978c1b1968400f5cd2b4fc4205ef975f3326d8c6789b8d2d98db3cfd2c371157263d3c7ac93630c6a4779a3ece9c52011d65da8fbcc41c72af59d6aa65aafd6be7338190cda52e417692c472ca0481f10dbb7e4e7edb129dceb9d7a6eaf94173e3a3c8fdb7e39ae1a219ed108a404e231bc4acba9a05a3e9ea0d5fb6017a22174c9b5c5e9a17416cddde60b255d9d72a3709fd55892c4390314bdf3eb62cefe6cd1a228d3a992c9bd91816d8c795568d771df49aa8a3363be8dc42345c4e5c25b1b4e9b2f87c52c1d0820b5b170cd03ad28f08a38bde87994ee7f90b1f49d68861a8bdd992f3b47e0d429d772175e015a5ed15348825e3a7042462dc654019d03b1416d163559afd6d1a0716f017d00f885b44b6e651f0a5e4c0a5ece9e3acca4e2ae32cc4433b996efad73258cd7fe58eeb0f2302de888494daa52ae7d0e36b0d2094e7282ea35eaa32300e39cd20bc4a2dc6e33a8e3cfd14ecd7b84defcc78e492078ae15e0ebe8dca4a55146d840ad96ba6e1d42ba170f7804ee3bcac6763bba3e996bcf78ddd0fa614f5a8d175a641de0e6cbad7e590902a4fa499747d08b6bda1b9ddd339156f632097979ec3550d2e15e8d73976725d12ddc48ad3dacd47bce6615a0d973f102beb7dd2809ab9ff6f80ac499818070f34c0ba32fbca8a4a5c7a5d66d131823434d6379b7c3cce7050711121830565e696c7274919de6e8ec06080c1123325d658487999cb3c8cfdadbe2e8023137383a3b3e516e737592a1a6b1b2b9c1cae3000000000000000000000000000b1c2f4301",
        "009b9b606f96c62618e5e8f3e7a882d4d755da17716165ea9ba8b0e32251f4519194177d4ec1670a1a269c8894c706beb076f95d69fcb2d9eca3b5fa52ed8753e2c9b91e71e39ba87a547aa59e27dbef24b8fdbef52e0b750f979cb3e249088cbf3e42a03a2a95e791ce535e49d9b1d8e6be987de506d3f62ee73e9311b778841a35b97ee37498f322f50e68cfacd41ddfe4d9e0291bf61b739f39ca4b27ad8066aed3cb153b657859c79bdcb8fee14cfab1a1ea574daa470692019cf46aa920afdee54c64e05351d3bfe95d5cc4baaa68d97f5a90e535e52d53a94444c7b0a5191c359600fab98fb48500afd991291939935eb4d2cf3ca4119f62f01bc4d0cc9c35a4d18f53de279acbf4e543bf1f74c84edb8105eb7ec752e0375aac5ae34da68349c0a6c6fb2d0e31abc21a06256359a17914dce6aed576be9d6ebf3c2a063ee89e23a42cc13b43c22552e976f78b480ae22dc9a48dca9d7271a5a2889345942c2f609529ee7d57d32642719c5df25af107ef19ea796fa0ffa3bcffb550b4f0a5f67a84f1bda7391d795c2952e7bd3108f9e3891ba763c75939e443e22a44c5f529145fa218b5af6ed61e9ef2eb31d68b84ca1b34e5900c3aaafa63228aa8e59e6bd08d2021d87e2f9de63b9e7a4bb345262b40eea12a0d0442e82f9fea2bfe695d5040d02e0dbc206f8f3405db148bf2465f048d38e8108dba78b880ee6077bdb9ddb3f6a13dfa1d5572678a4bee584b295d95e7696fd5e1fe9a818bba69bb7d282d883f8ad91b0d157d5e1bec5365fe69242794c50417ee513b75fa8dd5688ab47c7b268249bf01f3dfa4c523356de6c49d439ef3a142f138b5429ddc5344315140c4e11e93dc5d436aa8fdf714936bec2bb38d2ea28464015cb7685ced081c16fedaab10fb9f063c53e61677198a89d70e0643b2584ff5dad75b79a1044d3cdcf2595076c233311b18b784f3a74cda957ef068c2e0bffa8bcae7d576ffd1cf5caab66360c559ac4a51724d2885121f91deefec3cefa3380361fb201baed62c6f26fb8603c341afda07a1b43a9a9343b42f0d3d807efdc12dad9a3dbaa48d5c5ec83753b6d1880cbe7e2b4be6b8ee4a8ecd6b388215a7f433f8f008fb6569aa45ba61120e756265458583f209a9a13183bee9a1f5285764a8d1cf2bafd6616e1e503e335aeb4afb8ad7229d431a623e439add0e2c6359958217cb6540ddde743920a9571d8a658994fd814dcff2a20a0348cb88640de0ed98561d9fef958f005bf9c27af977ac3475978ccfc538d55917f11e0e4e4485ff340e705b8275a321f097e29848adf07ccb36d46458c8cfe2be5b95cdba8ca0ea8d70ccd6ba426b17a01fe55d75c6a28b182e26d1242f21707c3812e200d23190eca03b32c90a2cad72ea224441220d69c1d44f9adf72a0eedf2cacf2af96c5eb521d38d4f7f733f4e85941e9b773d53f94a0762150dde23e134da5460ee9cb5ea203b09e34f8e2c019e7b7f890a0f28bc8aaa9b2308c4baf8229c3cf44dc24ec8ec94df7bca4a3289866fca19017ac977ed112bc3789b95a4db196f013e6225c585e23be67009644d615c3f5690ffa1dfbac39ac92532374a834f1915af88a0de643de8cf1e3296505e811658d4a9090c5268c489f430b7ead78a64b9ffd36878e2fc309ce9e7f3c6126d7c7c9d8a1daa955a2cec8d982776d62373def73806e2be457ffcbec3ee3b30537814fd6eb15f6178f8f04725ae84e520cd12caeab1be8825eeb5fe94ebbec036470ee5edbda2397ddd406b2e930cb091ff1227a11f0305c9090706748d5ba891838fecfe11f885ae8372e720456d7406fe9807d32c3149551103d46b9"
      ],
      "sequence": 4294967294
    }
  ],
  "vout": [
    {
      "value": 1.0,
      "n": 0,
      "scriptPubKey": {
        "asm": "OP_RETURN ec75965f70defc8e6a560eb79a38854ae403257e5a36458642a738f2e3c406d9 a77e45536762c927f80b60d76162c4110638aea1f5191eb093fd9039e0f9d5ac875e65734742e907d82b40f74142e43126188e81d5393e90b3ddb019c0d9f58ce73e051327228967b84b2097212284514678eee1b5595ef0d3bdd079a0b995ecc71e25330702a947986b00b70102a4716658cec195797ed0f39df0598099b5cc27fec5d3e7e249a7788be057e1e2449186b82e2175999e30137d10b96079552c07dee5f3c7c2698758abc077c1c264b1a6980e0155b9be10335d30994059750c67be8593a7a209e738cba017a1a204d1c6f86e6135d9de70533d50f92039156c479ea5b3878229c718eb8037818224f1e6d84e4115f9fe50731d70d90019354ca77e45536762c927f80b60d76162c4110638aea1f5191eb093fd9039e0f9d5ac875e65734742e907d82b40f74142e43126188e81d5393e90b3ddb019c0d9f58ce73e051327228967b84b2097212284514678eee1b5595ef0d3bdd079a0b995ecc71e25330702a947986b00b70102a4716658cec195797ed0f39df0598099b5cc27fec5d3e7e249a7788be057e1e2449186b82e2175999e30137d10b96079552c07dee5f3c7c2698758abc077c1c264b1a6980e0155b9be10335d30994059750c67be8593a7a209e738cba017a1a204d1c6f86e6135d9de70533d50f92039156c479ea5b3878229c718eb8037818224f1e6d84e4115f9fe50731d70d90019354ca77e45536762c927f80b60d76162c4110638aea1f5191eb093fd9039e0f9d5ac875e65734742e907d82b40f74142e43126188e81d5393e90b3ddb019c0d9f58ce73e051327228967b84b2097212284514678eee1b5595ef0d3bdd079a0b995ecc71e25330702a947986b00b70102a4716658cec195797ed0f39df0598099b5cc27fec5d3e7e249a7788be057e1e2449186b82e2175999e30137d10b96079552c07dee5f3c7c2698758abc077c1c264b1a6980e0155b9be10335d30994059750c67be8593a7a209e738cba017a1a204d1c6f86e6135d9de70533d50f92039156c479ea5b3878229c718eb8037818224f1e6d84e4115f9fe50731d70d90019354ca77e45536762c927f80b60d76162c4110638aea1f5191eb093fd9039e0f9d5ac875e65734742e907d82b40f74142e43126188e81d5393e90b3ddb019c0d9f58ce73e051327228967b84b2097212284514678eee1b5595ef0d3bdd079a0b995ecc71e25330702a947986b00b70102a4716658cec195797ed0f39df0598099b5cc27fec5d3e7e249a7788be057e1e2449186b82e2175999e30137d10b96079552c07dee5f3c7c2698758abc077c1c264b1a6980e0155b9be10335d30994059750c67be8593a7a209e738cba017a1a204d1c6f86e6135d9de70533d50f92039156c479ea5b3878229c718eb8037818224f1e6d84e4115f9fe50731d70d90019354ca77e45536762c927f80b60d76162c4110638aea1f5191eb093fd9039e0f9d5ac875e65734742e907d82b40f74142e43126188e81d5393e90b3ddb019c0d9f58ce73e051327228967b84b2097212284514678eee1b5595ef0d3bdd079a0b995ecc71e25330702a947986b00b70102a4716658cec195797ed0f39df0598099b5cc27fec5d3e7e249a7788be057e1e24491e399c3f61061c476d9136fc4fa847e7bdec7e8387dfee31cc7db632a630339f1",
        "hex": "6a20ec75965f70defc8e6a560eb79a38854ae403257e5a36458642a738f2e3c406d94db004a77e45536762c927f80b60d76162c4110638aea1f5191eb093fd9039e0f9d5ac875e65734742e907d82b40f74142e43126188e81d5393e90b3ddb019c0d9f58ce73e051327228967b84b2097212284514678eee1b5595ef0d3bdd079a0b995ecc71e25330702a947986b00b70102a4716658cec195797ed0f39df0598099b5cc27fec5d3e7e249a7788be057e1e2449186b82e2175999e30137d10b96079552c07dee5f3c7c2698758abc077c1c264b1a6980e0155b9be10335d30994059750c67be8593a7a209e738cba017a1a204d1c6f86e6135d9de70533d50f92039156c479ea5b3878229c718eb8037818224f1e6d84e4115f9fe50731d70d90019354ca77e45536762c927f80b60d76162c4110638aea1f5191eb093fd9039e0f9d5ac875e65734742e907d82b40f74142e43126188e81d5393e90b3ddb019c0d9f58ce73e051327228967b84b2097212284514678eee1b5595ef0d3bdd079a0b995ecc71e25330702a947986b00b70102a4716658cec195797ed0f39df0598099b5cc27fec5d3e7e249a7788be057e1e2449186b82e2175999e30137d10b96079552c07dee5f3c7c2698758abc077c1c264b1a6980e0155b9be10335d30994059750c67be8593a7a209e738cba017a1a204d1c6f86e6135d9de70533d50f92039156c479ea5b3878229c718eb8037818224f1e6d84e4115f9fe50731d70d90019354ca77e45536762c927f80b60d76162c4110638aea1f5191eb093fd9039e0f9d5ac875e65734742e907d82b40f74142e43126188e81d5393e90b3ddb019c0d9f58ce73e051327228967b84b2097212284514678eee1b5595ef0d3bdd079a0b995ecc71e25330702a947986b00b70102a4716658cec195797ed0f39df0598099b5cc27fec5d3e7e249a7788be057e1e2449186b82e2175999e30137d10b96079552c07dee5f3c7c2698758abc077c1c264b1a6980e0155b9be10335d30994059750c67be8593a7a209e738cba017a1a204d1c6f86e6135d9de70533d50f92039156c479ea5b3878229c718eb8037818224f1e6d84e4115f9fe50731d70d90019354ca77e45536762c927f80b60d76162c4110638aea1f5191eb093fd9039e0f9d5ac875e65734742e907d82b40f74142e43126188e81d5393e90b3ddb019c0d9f58ce73e051327228967b84b2097212284514678eee1b5595ef0d3bdd079a0b995ecc71e25330702a947986b00b70102a4716658cec195797ed0f39df0598099b5cc27fec5d3e7e249a7788be057e1e2449186b82e2175999e30137d10b96079552c07dee5f3c7c2698758abc077c1c264b1a6980e0155b9be10335d30994059750c67be8593a7a209e738cba017a1a204d1c6f86e6135d9de70533d50f92039156c479ea5b3878229c718eb8037818224f1e6d84e4115f9fe50731d70d90019354ca77e45536762c927f80b60d76162c4110638aea1f5191eb093fd9039e0f9d5ac875e65734742e907d82b40f74142e43126188e81d5393e90b3ddb019c0d9f58ce73e051327228967b84b2097212284514678eee1b5595ef0d3bdd079a0b995ecc71e25330702a947986b00b70102a4716658cec195797ed0f39df0598099b5cc27fec5d3e7e249a7788be057e1e24491e399c3f61061c476d9136fc4fa847e7bdec7e8387dfee31cc7db632a630339f1",
        "type": "nulldata"
      }
    },
    {
      "value": 499987.7972,
      "n": 1,
      "scriptPubKey": {
        "asm": "1 67c21fa1a33733c4caa9bc4115bf578ebb19cd0ce72f299238e19c1b6966bef0",
        "hex": "512067c21fa1a33733c4caa9bc4115bf578ebb19cd0ce72f299238e19c1b6966bef0",
        "reqSigs": 1,
        "type": "witness_v1_scripthash",
        "addresses": [
          "3QJmnh"
        ]
      }
    }
  ],
  "blockhash": "2622e54cefe9d3081f6ac04e4c67f268d7c1e3313b2268ffede4439aafe1acd1",
  "confirmations": 1,
  "time": 1764177922,
  "blocktime": 1764177922
}