{
  "hex": "010000000001012b5786ab58d74de95c56051b231de5fcb3a3e7d3df803fe412b4a501965acaaf0100000000feffffff02f077b5f0782d000022512079ce53dd9414a4c2f5cb9888ddcbfee4e725a1a88b6bef78a2fd22a4c268ef3400e1f50500000000fdd5046a2048bb6c7c112f75a175818a8e4115e4ee15246532b8626fddda8329e87b2f7b604db00479dea65fe2f8411a3941dc2ed30991b9d6924d87981b2ae1c7dbdb446a4b4bff59fe867fc2d8613a1961fc0ef329b199f6b26da7b83b0ac1e7fbfb644a6b6bdf399ee61fa2b8015a79019c6e9349d1f996d20dc7d85b6aa1879b9b042a0b0bbf19bec63f8298217a5921bc4eb369f1d9b6f22de7f87b4a81a7bbbb240a2b2b9ff95e26df6278c19ab9c15cae538911395612cd07189baa61475b5bc4eacbcb7fd97e06ff4258e1ba99e17c8e73a931197632ed2738bb8a41677b7be4caebeb5fb91e669f223881daf9811cee13c9517916528d4758dbea21071b1b84aa8b8b3f993e46bf0218a1fad9a13cce33e971593672ad6778fbca01273b3ba48aabab1f79dea65fe2f8411a3941dc2ed30991b9d6924d87981b2ae1c7dbdb446a4b4bff59fe867fc2d8613a1961fc0ef329b199f6b26da7b83b0ac1e7fbfb644a6b6bdf399ee61fa2b8015a79019c6e9349d1f996d20dc7d85b6aa1879b9b042a0b0bbf19bec63f8298217a5921bc4eb369f1d9b6f22de7f87b4a81a7bbbb240a2b2b9ff95e26df6278c19ab9c15cae538911395612cd07189baa61475b5bc4eacbcb7fd97e06ff4258e1ba99e17c8e73a931197632ed2738bb8a41677b7be4caebeb5fb91e669f223881daf9811cee13c9517916528d4758dbea21071b1b84aa8b8b3f993e46bf0218a1fad9a13cce33e971593672ad6778fbca01273b3ba48aabab1f79dea65fe2f8411a3941dc2ed30991b9d6924d87981b2ae1c7dbdb446a4b4bff59fe867fc2d8613a1961fc0ef329b199f6b26da7b83b0ac1e7fbfb644a6b6bdf399ee61fa2b8015a79019c6e9349d1f996d20dc7d85b6aa1879b9b042a0b0bbf19bec63f8298217a5921bc4eb369f1d9b6f22de7f87b4a81a7bbbb240a2b2b9ff95e26df6278c19ab9c15cae538911395612cd07189baa61475b5bc4eacbcb7fd97e06ff4258e1ba99e17c8e73a931197632ed2738bb8a41677b7be4caebeb5fb91e669f223881daf9811cee13c9517916528d4758dbea21071b1b84aa8b8b3f993e46bf0218a1fad9a13cce33e971593672ad6778fbca01273b3ba48aabab1f79dea65fe2f8411a3941dc2ed30991b9d6924d87981b2ae1c7dbdb446a4b4bff59fe867fc2d8613a1961fc0ef329b199f6b26da7b83b0ac1e7fbfb644a6b6bdf399ee61fa2b8015a79019c6e9349d1f996d20dc7d85b6aa1879b9b042a0b0bbf19bec63f8298217a5921bc4eb369f1d9b6f22de7f87b4a81a7bbbb240a2b2b9ff95e26df6278c19ab9c15cae538911395612cd07189baa61475b5bc4eacbcb7fd97e06ff4258e1ba99e17c8e73a931197632ed2738bb8a41677b7be4caebeb5fb91e669f223881daf9811cee13c9517916528d4758dbea21071b1b84aa8b8b3f993e46bf0218a1fad9a13cce33e971593672ad6778fbca01273b3ba48aabab1f79dea65fe2f8411a3941dc2ed30991b9d6924d87981b2ae1c7dbdb446a4b4bff59fe867fc2d8613a1961fc0ef329b199f6b26da7b83b0ac1e7fbfb644a6b6bdf399ee61fa2b8015a79019c6e9349d1f996d20dc7d85b6aa1879b9b042a0b0bbf19bec63f8298217a5921bc4eb369f1d9b6f22de7f87b4a81a7bbbb240a2b2b9ff95e26df6278c19ab9c15cae53891139000aa99d570a7aa6bc7b93c9e2026ef684fe080cfcb76f1c6b4b12dfb3a0174202fd7509cdadf73b62af3dce6e9e0d9f58442897aeb70f6515afadbd67af1f0c0a2be250b784f24ab92c7ab46451e7f8358387407ac50caded9a8a4663b871a6375acf58fedb52b0345f0ea9d7db8c70d01656c1e695ff37412fef94471f53ce80351d848b3b81be47557bf7e070f339bf463ed0a52fa77563f4b90eccf028d3ff11333d0b6f574ad31365a5eb00441f4361d79f0b4a675871d01b0d7fa8991a79d9a0f2fcbebd6dc7e28b18135eae646c576652ee7a130724502475eecb4cf16b0007dd91dec406ebff4ccd1458cd8799b4f84874029b7eef0832e64531c623dfad606f657d7ed8ce38055a16fb45ae1ffb7507a003eef9ca0e097cea579f7fdd0f2e6ecae873728269f5a01a59f1349d7fed6b90bacb13e84717fe762ee9cc2f5472dd742df73c0881176c911d77b7e02137fa2fafb7f9e7543d4b1ffcdc5a23511d922e5806197d2ec2d7587b02b1251c9a087c2a226eeb834cf9a0588c83b2570f71d854c4242c0bc5ce2b193609e53534d310ebd9fe6e7ad6ce8cdf93f5e2da06188d67e3bdbdb02b6a185a2251d58ddb75ec6d10cf6061660625fb74f465b15fc7f8b030a47c8b373d4f74a1b97e7f12bf9c83112218ca1444b46223d029aad2eb2bb5750c2eebfb7e9543d23d7c911b918576757c189808d04cbf051ca949c76b9493654b83e40025454936d1b82d638f5d714ecb35b4fdb6f6f19ddde4357bae943e6935fa0e666208b95fb67a1cfdac8f8ff8dfc1fe9804b366702dbd6bede5883adbcacaf57fcc1849d9494e3a62ad46137b4b417972609c2ad4961b1a3c8b7a22c8545defebe0f75730a09223f3f0c2f4b30a07692536d28055003907b40e85874391efac8f39f7715f10a747ba792a3a07947a6fc6a78a546bce73f9759bb3a4a5d875833bc93d7a6a41e51a39d8f55cd12e4b72d4247374150d1cda6067d79163248b40ad9aef5533fa9fce63abb181694ab71a3890cc40abc75c6991119b10cf61ff955017482a5c45d32e66bbfb00d1deefb0539f9ae5c86f1c79843c415777f8d6acde402d164da83c6d511a7bda72a8cdc23ccfde4f419bf26293b807ac6058b0792e8b136351aaac095ac5d9ef1295e8c0ea61168dee2365c8a9e41d8edff46a97ab74c0058970fd96ee761138df438fce153c7673644d028de6092ee951a600fd7ad469bf30df9a87f6208ccfc0ddf954968e63d3d7da64fd47c9c050ac1610a5ff1013c48891268b103da3c9a7be012cc4e6e45e2f6d89124d8fc3675fc50ebe7b31c6c3c26a512818fe68f1a1ee68b6fb6d33e91309e99976d055835d1891790c66844b6e3529d9487d43d29afea703a0607d1e988b20e46605b4f1bab791e3b3b352e867ca005bde2e388dbbdcf97d4d698bc874f194555b8a5920d70ec0d46ef32c7655624f7a879da233a3507d949788178dc16c89f117638899d174f8d81632caa94dec01ea823951789e57c8e510365bdfe4d2f249c3aa74f43795a3e6a55d31bcfef2cd6ddf14c9930bb424eba72ec9b9d6ccdeaf585c9597857455e84bebc4193bc0b429edbc8c7d145d8189697640703b06420a162e7ce19ef702f634ab604ed4953fbf71a33e9f46ec0c1850400978db4969e415b131bf566031e386eb29d4ea0185958b37234c523a13bacd5fcf80217e96465fda2bece20329830a43f7cd204c4b6c1fc152c28c275fdf8433c63d699983faf3a97a4b526b895c2b75ab45ed6d2d6aa5963dfdf0a0a019e1ed19dc049bfa564b875e24e9bc7948735951f1113250d8df6c602d20078750384175c3eb5e6b0b09bb6f04fbb87144680145833cdde405196f38cb1b138a9a353fa0bc89529b72b0172191ddcc364912a0ce441301c6758788b77a02afab6a6d7bc21c46bfca5eed12947aacf6e831fed0b4b8e16a278e358bb1c16f299e10ba2a9ebd937a1d6bbae3ade8a9cc3bd8479b4aa58b1eee3e26ec36fe465344e5636f7eb9beb9d7e82759dde10869fc8062f369c8bc7319943ea24db5eb838fe1cb690e2cd41a392acfb9914e41ec6cdf6e0e2664a27573acd88c2149e27219b02d1ab64f58d9dd4a6a3ee58fbfe8b574f2f2582ad57d0bb8130b84f3f1f32b5539cc6b649cb594f107bc3da4f69a0c7905628f09b52debd3d00a7cbaaaef9d854ef23986e41d44cad61cff3889c8568679418bd47887c68f3d4992b0b68bd831b84434f8478dbda23d6a02a4795035005ca3d9ae2c1f054f6b8b79a6ecb065ccf1bc929585c3a67ea7a49eeb4b043ac94e833417d33ea0b00aa104ac462ad62c661aaabfe6d3dad0baca079893b3b8f5b383c146a67e481e69507ff1406f11c58b6de3dbfd939f217ff7c1c6325792d3a89d4cadfa0a53080951fa254ba31a7229ec43d6cd25bae27a58bccb418c850f2660632e5a8d23cf854b3231b519f1e1193e4b093706f7859db9f43becd20c1fee040b6733f24954e3ac784fa9440996a53c6dfe70cb7becd826d31985bda75a7734c80a67589aa28ab1e995594c312760fe227720cb8115b97d78bfa61de0adfbda5758993f81f617057765db626406206d0eee9e56a6465d3cc5c83c5198bf01a3d34d7cd63a33cd28987fc33e8dc2c299310543ff8e3883806e89c76aa72d0752f41271c59d459749730a260a51d9d2745142471a8264b7761df1e208e9b35edeccdaf0d519ea81d403298d65604c74c82b193cb788553d12182cabdaf539f462cb14ffababb23493098354e32837bfee6b64bdf05ca83716edb2c3fd2e750f9480374a332817cd15669e4ca4610ab23ae3a461a6808053251a7f98557fa396329aaa5e2dac69b1bb9c0743e4951d8865ab67651182e7dd76e89b52809250eff3347c7e99ec970a8323431241378b9353c6ea21fdfb19c3e3c0805c377502b91b5111926ad8bea45634d8bb9251fb064ee4478f3e10480e066cc915be608df478465be6a5ff3add760b2163b034def688755c9764514f82fcc2b46d74b94b11b56aff4eb85e045f03091e31f80ce0fba0c1be5ff5510d6c30e24c45712aa96d4253a12bed3aeb0e20a9f8fe62131e203409f62f5c3d5136672c37b6ceec90de3920d64fda38a462ea2116a3cfe63e18c3a7c75df8b87aac06671c8770227beb9f386e7e3424b69f11c9c617bf27bd724e2b21092b0f096c93fbe4bfdc96cfb2ba2282227326d06e70e7c5400c0bf731b25d22f3336471db0dc30685db92c4ccdbb6485c905123311c92e6832c7ad652e304c366ac2a07a2a5d60f0d7c675eed380658377af77424a862011b365a7ce1fb23b6cd7fe85de2d305101b20212d3a40464c5659696b6da3a5b4d2d8e6edf1000110121b26567c7f8a929ec4d1def5f63851576f7b8295a7b3c0031a1c204656606f858ca0b9c8c9d3fa00000000000000000000000000001728324201fd21050096d505e8bd60e365b60c6464ff60571ac9b57bd2ee13e88007f12f205ab739992635450507f445feccecde31aae335f37afb0e82e33acddac1d02eff3dd74625d2e0c00852af81f60219b68e8f6897201f12ed005249d1545d22ebc2481d22ff7cb9263a53c036cdab928a5b76c0e5f1a28809c4833ade2509bc5a3e9253b49812bcc5698ecc22fdb9a7a6b6e5a258635d8a918aa207398a3026fe35ac3a65ed0c126e47e5b5b8904928bac03d99547b6f0eea5c0b31b5185c783625e9a1934f44a4cb9d3cd5afa21a80ca038e7319cd9e1564b9e8e2d2eab2e0711cffa7f30e50f35c7cac26a138a2719ff236603190e0fae63d8721da874289d91b690bd6385b1b04da9e230ce55ac4e6f2d53952ee9c53d10e620ced812dca9fba58728d6322dc0babd56748b48c2b03bcc62a8197528b31bbe1c203aabf43beb7aff36645e4c1e9fd7c7add7270efd3c97325b9ddc9f4c2122bf047e2720bdf215cc85b0349ffd29bbb82506e36ddff8657fbb2639c3693782a1433d5577c299a11ed382fa7a2d12aec4a2c4ed185ccf6acc1047fdc333c986873712ceeb404456294cff6a9a9ff408110f7e8c4ce9744457949335ea2485c46e27fcde16dd892d1daaef492582edd1ef701f30c75074dc158be696c67ac30bdd948d1b8e574e7dc56e2316220c86cc96af1c31c3b8c54e20254ee4adfa2810be40cafefd437147a6cf75f474c654ec77e0c1b0ae2304bcd298a6a72d5e3ecde913b08148440e10a0fc2f9d04b1eb272f3da47e742e6fa96677170a32c68ce4dc9469a8abf8bc98c5aad0cc6c82aadd66a96985e209a2b83f31491d18e84f43ac5dc15633184e0449f97d727275b1ad363ea14934fb49ec17d6dd359b22759ce76180d73949836c602c74349e7dd12d039300dbe9b0499e4825cd7f03a88e7ac9485486a2db86622327af4634b3ed479e844bc0a7a4cc58e80ce68b3d5383e28c6d457aacafe99aecd004e861407d2647bd765aada40276250d1081dd46ce87764ca2ec0328fba09b8bf40974b1613a1311784053d55d9192c3fcef62cc358f1df7e8de2d2fd48fb74d5b3cbc93a74a8e754ddf2fed4d0b756943ebb7eb0a257b53f7f4e614c86a6b2a834f0824c88c583ae10e1ff9d188e9012fa626a3d5c16187c676f20fddf739acb9936c62dff8df43c28e0160eca1fcccb42f1a38c64c789e7a2cf8bd1868d9718c8675515a0635b26c89b40c85414ee28d0484a3ec0ddf8e617a32d28fbb57fa633466184d5af736ad92ab194af0b086552ef9b43bd67f14a886a0c366c7f423bf1a434d0d68e71681e8f338845566dac0e43fbbcf2068457b500fe52d335b2ae2f676cf08561a71b801dd8366e3326e8d8739e9871abc87b432724537c44e9f5dde0877beee045d734a97d5a89e49b6742a035e5f933107203e191c61bbae44c1c2f100301a76bfae308fc4d1f9175fc20c315e04678a3ebadedf13a8d9f0f988d3238144b12261bb03ea6975307bee79f6c171ae980a1c22664b904ba83e9c9896363407c3cbeca036c1c7f16fa07a1b5b3594c4e39795dcc5997683f5782a4c5dc1ea6ec8e07061044b41bfb9a7f0eac521d95de19295ff041985923624ec6d38f2833a2818ce758da05fd57ee86f41cefe7d8402c986e8e41d06795675eb98dfbc7ef9eeec9dafb5816c785b4d79cf4b9215b76ebd60e692fcaf49a3d9e5dcc991308e5545f826f6dcd74a6aa08edaa25197c622f2f9c575f8401be069579326bfe3302b05dc09bd1559a58b7472ae2a616a3083f5432b1334192827a66ab155c2f5eec5b3f050c7329c7aeb414291fd2d72e1624efd403ee4ae2a5053380fc85000000",
  "txid": "ee62715307e2be51279374f475ad44fc0a07850b38657c21aed7eedef904dd59",
  "hash": "833146c99953b84f19dbaecc084f7ecebf8cac4d5029baccee0e6fd3902ead30",
  "size": 5085,
  "vsize": 2278,
  "version": 1,
  "locktime": 133,
  "vin": [
    {
      "txid": "afca5a9601a5b412e43f80dfd3e7a3b3fce51d231b05565ce94dd758ab86572b",
      "vout": 1,
      "scriptSig": {
        "asm": "",
        "hex": ""
      },
      "txinwitness": [
        "cdadf73b62af3dce6e9e0d9f58442897aeb70f6515afadbd67af1f0c0a2be250b784f24ab92c7ab46451e7f8358387407ac50caded9a8a4663b871a6375acf58fedb52b0345f0ea9d7db8c70d01656c1e695ff37412fef94471f53ce80351d848b3b81be47557bf7e070f339bf463ed0a52fa77563f4b90eccf028d3ff11333d0b6f574ad31365a5eb00441f4361d79f0b4a675871d01b0d7fa8991a79d9a0f2fcbebd6dc7e28b18135eae646c576652ee7a130724502475eecb4cf16b0007dd91dec406ebff4ccd1458cd8799b4f84874029b7eef0832e64531c623dfad606f657d7ed8ce38055a16fb45ae1ffb7507a003eef9ca0e097cea579f7fdd0f2e6ecae873728269f5a01a59f1349d7fed6b90bacb13e84717fe762ee9cc2f5472dd742df73c0881176c911d77b7e02137fa2fafb7f9e7543d4b1ffcdc5a23511d922e5806197d2ec2d7587b02b1251c9a087c2a226eeb834cf9a0588c83b2570f71d854c4242c0bc5ce2b193609e53534d310ebd9fe6e7ad6ce8cdf93f5e2da06188d67e3bdbdb02b6a185a2251d58ddb75ec6d10cf6061660625fb74f465b15fc7f8b030a47c8b373d4f74a1b97e7f12bf9c83112218ca1444b46223d029aad2eb2bb5750c2eebfb7e9543d23d7c911b918576757c189808d04cbf051ca949c76b9493654b83e40025454936d1b82d638f5d714ecb35b4fdb6f6f19ddde4357bae943e6935fa0e666208b95fb67a1cfdac8f8ff8dfc1fe9804b366702dbd6bede5883adbcacaf57fcc1849d9494e3a62ad46137b4b417972609c2ad4961b1a3c8b7a22c8545defebe0f75730a09223f3f0c2f4b30a07692536d28055003907b40e85874391efac8f39f7715f10a747ba792a3a07947a6fc6a78a546bce73f9759bb3a4a5d875833bc93d7a6a41e51a39d8f55cd12e4b72d4247374150d1cda6067d79163248b40ad9aef5533fa9fce63abb181694ab71a3890cc40abc75c6991119b10cf61ff955017482a5c45d32e66bbfb00d1deefb0539f9ae5c86f1c79843c415777f8d6acde402d164da83c6d511a7bda72a8cdc23ccfde4f419bf26293b807ac6058b0792e8b136351aaac095ac5d9ef1295e8c0ea61168dee2365c8a9e41d8edff46a97ab74c0058970fd96ee761138df438fce153c7673644d028de6092ee951a600fd7ad469bf30df9a87f6208ccfc0ddf954968e63d3d7da64fd47c9c050ac1610a5ff1013c48891268b103da3c9a7be012cc4e6e45e2f6d89124d8fc3675fc50ebe7b31c6c3c26a512818fe68f1a1ee68b6fb6d33e91309e99976d055835d1891790c66844b6e3529d9487d43d29afea703a0607d1e988b20e46605b4f1bab791e3b3b352e867ca005bde2e388dbbdcf97d4d698bc874f194555b8a5920d70ec0d46ef32c7655624f7a879da233a3507d949788178dc16c89f117638899d174f8d81632caa94dec01ea823951789e57c8e510365bdfe4d2f249c3aa74f43795a3e6a55d31bcfef2cd6ddf14c9930bb424eba72ec9b9d6ccdeaf585c9597857455e84bebc4193bc0b429edbc8c7d145d8189697640703b06420a162e7ce19ef702f634ab604ed4953fbf71a33e9f46ec0c1850400978db4969e415b131bf566031e386eb29d4ea0185958b37234c523a13bacd5fcf80217e96465fda2bece20329830a43f7cd204c4b6c1fc152c28c275fdf8433c63d699983faf3a97a4b526b895c2b75ab45ed6d2d6aa5963dfdf0a0a019e1ed19dc049bfa564b875e24e9bc7948735951f1113250d8df6c602d20078750384175c3eb5e6b0b09bb6f04fbb87144680145833cdde405196f38cb1b138a9a353fa0bc89529b72b0172191ddcc364912a0ce441301c6758788b77a02afab6a6d7bc21c46bfca5eed12947aacf6e831fed0b4b8e16a278e358bb1c16f299e10ba2a9ebd937a1d6bbae3ade8a9cc3bd8479b4aa58b1eee3e26ec36fe465344e5636f7eb9beb9d7e82759dde10869fc8062f369c8bc7319943ea24db5eb838fe1cb690e2cd41a392acfb9914e41ec6cdf6e0e2664a27573acd88c2149e27219b02d1ab64f58d9dd4a6a3ee58fbfe8b574f2f2582ad57d0bb8130b84f3f1f32b5539cc6b649cb594f107bc3da4f69a0c7905628f09b52debd3d00a7cbaaaef9d854ef23986e41d44cad61cff3889c8568679418bd47887c68f3d4992b0b68bd831b84434f8478dbda23d6a02a4795035005ca3d9ae2c1f054f6b8b79a6ecb065ccf1bc929585c3a67ea7a49eeb4b043ac94e833417d33ea0b00aa104ac462ad62c661aaabfe6d3dad0baca079893b3b8f5b383c146a67e481e69507ff1406f11c58b6de3dbfd939f217ff7c1c6325792d3a89d4cadfa0a53080951fa254ba31a7229ec43d6cd25bae27a58bccb418c850f2660632e5a8d23cf854b3231b519f1e1193e4b093706f7859db9f43becd20c1fee040b6733f24954e3ac784fa9440996a53c6dfe70cb7becd826d31985bda75a7734c80a67589aa28ab1e995594c312760fe227720cb8115b97d78bfa61de0adfbda5758993f81f617057765db626406206d0eee9e56a6465d3cc5c83c5198bf01a3d34d7cd63a33cd28987fc33e8dc2c299310543ff8e3883806e89c76aa72d0752f41271c59d459749730a260a51d9d2745142471a8264b7761df1e208e9b35edeccdaf0d519ea81d403298d65604c74c82b193cb788553d12182cabdaf539f462cb14ffababb23493098354e32837bfee6b64bdf05ca83716edb2c3fd2e750f9480374a332817cd15669e4ca4610ab23ae3a461a6808053251a7f98557fa396329aaa5e2dac69b1bb9c0743e4951d8865ab67651182e7dd76e89b52809250eff3347c7e99ec970a8323431241378b9353c6ea21fdfb19c3e3c0805c377502b91b5111926ad8bea45634d8bb9251fb064ee4478f3e10480e066cc915be608df478465be6a5ff3add760b2163b034def688755c9764514f82fcc2b46d74b94b11b56aff4eb85e045f03091e31f80ce0fba0c1be5ff5510d6c30e24c45712aa96d4253a12bed3aeb0e20a9f8fe62131e203409f62f5c3d5136672c37b6ceec90de3920d64fda38a462ea2116a3cfe63e18c3a7c75df8b87aac06671c8770227beb9f386e7e3424b69f11c9c617bf27bd724e2b21092b0f096c93fbe4bfdc96cfb2ba2282227326d06e70e7c5400c0bf731b25d22f3336471db0dc30685db92c4ccdbb6485c905123311c92e6832c7ad652e304c366ac2a07a2a5d60f0d7c675eed380658377af77424a862011b365a7ce1fb23b6cd7fe85de2d305101b20212d3a40464c5659696b6da3a5b4d2d8e6edf1000110121b26567c7f8a929ec4d1def5f63851576f7b8295a7b3c0031a1c204656606f858ca0b9c8c9d3fa00000000000000000000000000001728324201",
        "0096d505e8bd60e365b60c6464ff60571ac9b57bd2ee13e88007f12f205ab739992635450507f445feccecde31aae335f37afb0e82e33acddac1d02eff3dd74625d2e0c00852af81f60219b68e8f6897201f12ed005249d1545d22ebc2481d22ff7cb9263a53c036cdab928a5b76c0e5f1a28809c4833ade2509bc5a3e9253b49812bcc5698ecc22fdb9a7a6b6e5a258635d8a918aa207398a3026fe35ac3a65ed0c126e47e5b5b8904928bac03d99547b6f0eea5c0b31b5185c783625e9a1934f44a4cb9d3cd5afa21a80ca038e7319cd9e1564b9e8e2d2eab2e0711cffa7f30e50f35c7cac26a138a2719ff236603190e0fae63d8721da874289d91b690bd6385b1b04da9e230ce55ac4e6f2d53952ee9c53d10e620ced812dca9fba58728d6322dc0babd56748b48c2b03bcc62a8197528b31bbe1c203aabf43beb7aff36645e4c1e9fd7c7add7270efd3c97325b9ddc9f4c2122bf047e2720bdf215cc85b0349ffd29bbb82506e36ddff8657fbb2639c3693782a1433d5577c299a11ed382fa7a2d12aec4a2c4ed185ccf6acc1047fdc333c986873712ceeb404456294cff6a9a9ff408110f7e8c4ce9744457949335ea2485c46e27fcde16dd892d1daaef492582edd1ef701f30c75074dc158be696c67ac30bdd948d1b8e574e7dc56e2316220c86cc96af1c31c3b8c54e20254ee4adfa2810be40cafefd437147a6cf75f474c654ec77e0c1b0ae2304bcd298a6a72d5e3ecde913b08148440e10a0fc2f9d04b1eb272f3da47e742e6fa96677170a32c68ce4dc9469a8abf8bc98c5aad0cc6c82aadd66a96985e209a2b83f31491d18e84f43ac5dc15633184e0449f97d727275b1ad363ea14934fb49ec17d6dd359b22759ce76180d73949836c602c74349e7dd12d039300dbe9b0499e4825cd7f03a88e7ac9485486a2db86622327af4634b3ed479e844bc0a7a4cc58e80ce68b3d5383e28c6d457aacafe99aecd004e861407d2647bd765aada40276250d1081dd46ce87764ca2ec0328fba09b8bf40974b1613a1311784053d55d9192c3fcef62cc358f1df7e8de2d2fd48fb74d5b3cbc93a74a8e754ddf2fed4d0b756943ebb7eb0a257b53f7f4e614c86a6b2a834f0824c88c583ae10e1ff9d188e9012fa626a3d5c16187c676f20fddf739acb9936c62dff8df43c28e0160eca1fcccb42f1a38c64c789e7a2cf8bd1868d9718c8675515a0635b26c89b40c85414ee28d0484a3ec0ddf8e617a32d28fbb57fa633466184d5af736ad92ab194af0b086552ef9b43bd67f14a886a0c366c7f423bf1a434d0d68e71681e8f338845566dac0e43fbbcf2068457b500fe52d335b2ae2f676cf08561a71b801dd8366e3326e8d8739e9871abc87b432724537c44e9f5dde0877beee045d734a97d5a89e49b6742a035e5f933107203e191c61bbae44c1c2f100301a76bfae308fc4d1f9175fc20c315e04678a3ebadedf13a8d9f0f988d3238144b12261bb03ea6975307bee79f6c171ae980a1c22664b904ba83e9c9896363407c3cbeca036c1c7f16fa07a1b5b3594c4e39795dcc5997683f5782a4c5dc1ea6ec8e07061044b41bfb9a7f0eac521d95de19295ff041985923624ec6d38f2833a2818ce758da05fd57ee86f41cefe7d8402c986e8e41d06795675eb98dfbc7ef9eeec9dafb5816c785b4d79cf4b9215b76ebd60e692fcaf49a3d9e5dcc991308e5545f826f6dcd74a6aa08edaa25197c622f2f9c575f8401be069579326bfe3302b05dc09bd1559a58b7472ae2a616a3083f5432b1334192827a66ab155c2f5eec5b3f050c7329c7aeb414291fd2d72e1624efd403ee4ae2a5053380fc"
      ],
      "sequence": 4294967294
    }
  ],
  "vout": [
    {
      "value": 499974.5775,
      "n": 0,
      "scriptPubKey": {
        "asm": "1 79ce53dd9414a4c2f5cb9888ddcbfee4e725a1a88b6bef78a2fd22a4c268ef34",
        "hex": "512079ce53dd9414a4c2f5cb9888ddcbfee4e725a1a88b6bef78a2fd22a4c268ef34",
        "reqSigs": 1,
        "type": "witness_v1_scripthash",
        "addresses": [
          "3QJmnh"
        ]
      }
    },
    {
      "value": 1.0,
      "n": 1,
      "scriptPubKey": {
        "asm": "OP_RETURN 48bb6c7c112f75a175818a8e4115e4ee15246532b8626fddda8329e87b2f7b60 79dea65fe2f8411a3941dc2ed30991b9d6924d87981b2ae1c7dbdb446a4b4bff59fe867fc2d8613a1961fc0ef329b199f6b26da7b83b0ac1e7fbfb644a6b6bdf399ee61fa2b8015a79019c6e9349d1f996d20dc7d85b6aa1879b9b042a0b0bbf19bec63f8298217a5921bc4eb369f1d9b6f22de7f87b4a81a7bbbb240a2b2b9ff95e26df6278c19ab9c15cae538911395612cd07189baa61475b5bc4eacbcb7fd97e06ff4258e1ba99e17c8e73a931197632ed2738bb8a41677b7be4caebeb5fb91e669f223881daf9811cee13c9517916528d4758dbea21071b1b84aa8b8b3f993e46bf0218a1fad9a13cce33e971593672ad6778fbca01273b3ba48aabab1f79dea65fe2f8411a3941dc2ed30991b9d6924d87981b2ae1c7dbdb446a4b4bff59fe867fc2d8613a1961fc0ef329b199f6b26da7b83b0ac1e7fbfb644a6b6bdf399ee61fa2b8015a79019c6e9349d1f996d20dc7d85b6aa1879b9b042a0b0bbf19bec63f8298217a5921bc4eb369f1d9b6f22de7f87b4a81a7bbbb240a2b2b9ff95e26df6278c19ab9c15cae538911395612cd07189baa61475b5bc4eacbcb7fd97e06ff4258e1ba99e17c8e73a931197632ed2738bb8a41677b7be4caebeb5fb91e669f223881daf9811cee13c9517916528d4758dbea21071b1b84aa8b8b3f993e46bf0218a1fad9a13cce33e971593672ad6778fbca01273b3ba48aabab1f79dea65fe2f8411a3941dc2ed30991b9d6924d87981b2ae1c7dbdb446a4b4bff59fe867fc2d8613a1961fc0ef329b199f6b26da7b83b0ac1e7fbfb644a6b6bdf399ee61fa2b8015a79019c6e9349d1f996d20dc7d85b6aa1879b9b042a0b0bbf19bec63f8298217a5921bc4eb369f1d9b6f22de7f87b4a81a7bbbb240a2b2b9ff95e26df6278c19ab9c15cae538911395612cd07189baa61475b5bc4eacbcb7fd97e06ff4258e1ba99e17c8e73a931197632ed2738bb8a41677b7be4caebeb5fb91e669f223881daf9811cee13c9517916528d4758dbea21071b1b84aa8b8b3f993e46bf0218a1fad9a13cce33e971593672ad6778fbca01273b3ba48aabab1f79dea65fe2f8411a3941dc2ed30991b9d6924d87981b2ae1c7dbdb446a4b4bff59fe867fc2d8613a1961fc0ef329b199f6b26da7b83b0ac1e7fbfb644a6b6bdf399ee61fa2b8015a79019c6e9349d1f996d20dc7d85b6aa1879b9b042a0b0bbf19bec63f8298217a5921bc4eb369f1d9b6f22de7f87b4a81a7bbbb240a2b2b9ff95e26df6278c19ab9c15cae538911395612cd07189baa61475b5bc4eacbcb7fd97e06ff4258e1ba99e17c8e73a931197632ed2738bb8a41677b7be4caebeb5fb91e669f223881daf9811cee13c9517916528d4758dbea21071b1b84aa8b8b3f993e46bf0218a1fad9a13cce33e971593672ad6778fbca01273b3ba48aabab1f79dea65fe2f8411a3941dc2ed30991b9d6924d87981b2ae1c7dbdb446a4b4bff59fe867fc2d8613a1961fc0ef329b199f6b26da7b83b0ac1e7fbfb644a6b6bdf399ee61fa2b8015a79019c6e9349d1f996d20dc7d85b6aa1879b9b042a0b0bbf19bec63f8298217a5921bc4eb369f1d9b6f22de7f87b4a81a7bbbb240a2b2b9ff95e26df6278c19ab9c15cae53891139000aa99d570a7aa6bc7b93c9e2026ef684fe080cfcb76f1c6b4b12dfb3a01742",
        "hex": "6a2048bb6c7c112f75a175818a8e4115e4ee15246532b8626fddda8329e87b2f7b604db00479dea65fe2f8411a3941dc2ed30991b9d6924d87981b2ae1c7dbdb446a4b4bff59fe867fc2d8613a1961fc0ef329b199f6b26da7b83b0ac1e7fbfb644a6b6bdf399ee61fa2b8015a79019c6e9349d1f996d20dc7d85b6aa1879b9b042a0b0bbf19bec63f8298217a5921bc4eb369f1d9b6f22de7f87b4a81a7bbbb240a2b2b9ff95e26df6278c19ab9c15cae538911395612cd07189baa61475b5bc4eacbcb7fd97e06ff4258e1ba99e17c8e73a931197632ed2738bb8a41677b7be4caebeb5fb91e669f223881daf9811cee13c9517916528d4758dbea21071b1b84aa8b8b3f993e46bf0218a1fad9a13cce33e971593672ad6778fbca01273b3ba48aabab1f79dea65fe2f8411a3941dc2ed30991b9d6924d87981b2ae1c7dbdb446a4b4bff59fe867fc2d8613a1961fc0ef329b199f6b26da7b83b0ac1e7fbfb644a6b6bdf399ee61fa2b8015a79019c6e9349d1f996d20dc7d85b6aa1879b9b042a0b0bbf19bec63f8298217a5921bc4eb369f1d9b6f22de7f87b4a81a7bbbb240a2b2b9ff95e26df6278c19ab9c15cae538911395612cd07189baa61475b5bc4eacbcb7fd97e06ff4258e1ba99e17c8e73a931197632ed2738bb8a41677b7be4caebeb5fb91e669f223881daf9811cee13c9517916528d4758dbea21071b1b84aa8b8b3f993e46bf0218a1fad9a13cce33e971593672ad6778fbca01273b3ba48aabab1f79dea65fe2f8411a3941dc2ed30991b9d6924d87981b2ae1c7dbdb446a4b4bff59fe867fc2d8613a1961fc0ef329b199f6b26da7b83b0ac1e7fbfb644a6b6bdf399ee61fa2b8015a79019c6e9349d1f996d20dc7d85b6aa1879b9b042a0b0bbf19bec63f8298217a5921bc4eb369f1d9b6f22de7f87b4a81a7bbbb240a2b2b9ff95e26df6278c19ab9c15cae538911395612cd07189baa61475b5bc4eacbcb7fd97e06ff4258e1ba99e17c8e73a931197632ed2738bb8a41677b7be4caebeb5fb91e669f223881daf9811cee13c9517916528d4758dbea21071b1b84aa8b8b3f993e46bf0218a1fad9a13cce33e971593672ad6778fbca01273b3ba48aabab1f79dea65fe2f8411a3941dc2ed30991b9d6924d87981b2ae1c7dbdb446a4b4bff59fe867fc2d8613a1961fc0ef329b199f6b26da7b83b0ac1e7fbfb644a6b6bdf399ee61fa2b8015a79019c6e9349d1f996d20dc7d85b6aa1879b9b042a0b0bbf19bec63f8298217a5921bc4eb369f1d9b6f22de7f87b4a81a7bbbb240a2b2b9ff95e26df6278c19ab9c15cae538911395612cd07189baa61475b5bc4eacbcb7fd97e06ff4258e1ba99e17c8e73a931197632ed2738bb8a41677b7be4caebeb5fb91e669f223881daf9811cee13c9517916528d4758dbea21071b1b84aa8b8b3f993e46bf0218a1fad9a13cce33e971593672ad6778fbca01273b3ba48aabab1f79dea65fe2f8411a3941dc2ed30991b9d6924d87981b2ae1c7dbdb446a4b4bff59fe867fc2d8613a1961fc0ef329b199f6b26da7b83b0ac1e7fbfb644a6b6bdf399ee61fa2b8015a79019c6e9349d1f996d20dc7d85b6aa1879b9b042a0b0bbf19bec63f8298217a5921bc4eb369f1d9b6f22de7f87b4a81a7bbbb240a2b2b9ff95e26df6278c19ab9c15cae53891139000aa99d570a7aa6bc7b93c9e2026ef684fe080cfcb76f1c6b4b12dfb3a01742",
        "type": "nulldata"
      }
    }
  ],
  "blockhash": "e83fb8d8eae63b54f6b1b3d1fbcbee555d4e910f42cfd1b5d97cc48d92172bc4",
  "confirmations": 1,
  "time": 1764182633,
  "blocktime": 1764182633
}