{
  "hex": "01000000000101677f55265358845784c45c3bf85afe72b2d755afce22d8840cf316431593dbed0000000000feffffff0200e1f50500000000fdd5046a204b5296dcb83f977e886239e50325da0437948f0c3b66d04782cd70738a44ed874db0046e933350ac58fb9ceeecb880a16ce7183f8af9810ce1ed61ef6488d0422917584eb313708c78dbbccecc98a0814cc7381faad9a12cc1cd41cf44a8f0620937782ed37310ec18bbdcaeacf8c0e12ca7587fcab9c14ca1ad21af24c890026957180ef35330cc389bfc8e8cd8e0c10c87785fea99e16c818d018f04e8b022497738ee13b3d02cd87b1c6e6c380021ec6798bf0a79018c616de16fe40850c2a997d8ce3393f00cf85b3c4e4c182001cc47b89f2a5921ac414dc14fc42870e289b7f8ae53f3906c983b5c2e2c784061ac27d8ff4a3941cc212da12fa4481082e9d7988e73d3b04cb81b7c0e0c5860418c07f8df6a1961ec010d810f846830a2c9f7b86e933350ac58fb9ceeecb880a16ce7183f8af9810ce1ed61ef6488d0422917584eb313708c78dbbccecc98a0814cc7381faad9a12cc1cd41cf44a8f0620937782ed37310ec18bbdcaeacf8c0e12ca7587fcab9c14ca1ad21af24c890026957180ef35330cc389bfc8e8cd8e0c10c87785fea99e16c818d018f04e8b022497738ee13b3d02cd87b1c6e6c380021ec6798bf0a79018c616de16fe40850c2a997d8ce3393f00cf85b3c4e4c182001cc47b89f2a5921ac414dc14fc42870e289b7f8ae53f3906c983b5c2e2c784061ac27d8ff4a3941cc212da12fa4481082e9d7988e73d3b04cb81b7c0e0c5860418c07f8df6a1961ec010d810f846830a2c9f7b86e933350ac58fb9ceeecb880a16ce7183f8af9810ce1ed61ef6488d0422917584eb313708c78dbbccecc98a0814cc7381faad9a12cc1cd41cf44a8f0620937782ed37310ec18bbdcaeacf8c0e12ca7587fcab9c14ca1ad21af24c890026957180ef35330cc389bfc8e8cd8e0c10c87785fea99e16c818d018f04e8b022497738ee13b3d02cd87b1c6e6c380021ec6798bf0a79018c616de16fe40850c2a997d8ce3393f00cf85b3c4e4c182001cc47b89f2a5921ac414dc14fc42870e289b7f8ae53f3906c983b5c2e2c784061ac27d8ff4a3941cc212da12fa4481082e9d7988e73d3b04cb81b7c0e0c5860418c07f8df6a1961ec010d810f846830a2c9f7b86e933350ac58fb9ceeecb880a16ce7183f8af9810ce1ed61ef6488d0422917584eb313708c78dbbccecc98a0814cc7381faad9a12cc1cd41cf44a8f0620937782ed37310ec18bbdcaeacf8c0e12ca7587fcab9c14ca1ad21af24c890026957180ef35330cc389bfc8e8cd8e0c10c87785fea99e16c818d018f04e8b022497738ee13b3d02cd87b1c6e6c380021ec6798bf0a79018c616de16fe40850c2a997d8ce3393f00cf85b3c4e4c182001cc47b89f2a5921ac414dc14fc42870e289b7f8ae53f3906c983b5c2e2c784061ac27d8ff4a3941cc212da12fa4481082e9d7988e73d3b04cb81b7c0e0c5860418c07f8df6a1961ec010d810f846830a2c9f7b86e933350ac58fb9ceeecb880a16ce7183f8af9810ce1ed61ef6488d0422917584eb313708c78dbbccecc98a0814cc7381faad9a12cc1cd41cf44a8f0620937782ed37310ec18bbdcaeacf8c0e12ca7587fcab9c14ca1ad21af24c890026957180ef35330cc389bfc8e8cd8e0c10c87785fea99e16c818d018f04e8b022497738ee13b3d02cd87b1c6e6c380021ec67981bb8a0783c0a5f26d3211431f470bb528d749edc80f97d33d2b92795e8c8af4350771315792d0000225120c5cedc45975b691b8758b366f6dcd25d3c4d56b5523b485ee12bd2fc8e2c91ff02fd75098742d01f4596c75406724bf3cf62666e1ce138b671cc9d02475b1bae1b465e35f0961a704a6bcd7ba3f2429a15aaae046baff2f0d1fb532a144ad085f1177dd699a5628e65c7f0a89438792ef9d674b3c8931e4fbcb25e8b8f2fbcdf77b93db815e5b931f1048986b0db646da2ab781370f7121077672651d51212da4fdc6f15562c7d7dca06969c2237618d5a06881a29545549cd90728075abec65e46f4ec04c7c0ab1bdf4003ee98a50bf744b59cc47a958bf76a7a876ee23de5722dc6c506619861c9ea9d1cb5d0fcb8c07686a0a54586fb8f7b4f024de5aaf463487780328adb44742249e2e248a22efdce9713a642d360aeed37ea9cea816dd0f0d88dc26056c1886203bf59a12f2aef4f2816d26a6cdbad5ef3037fe65a9e5447c40b6ebfeb283f49e49c0110fa3192ad97bd516c607e74d2dc9a44f43703188524ee93a619ec28f94e655be54dfb4392177e2cc4a8244d5c9e946af07e417216884b96e1f89327999491a29c84c993eb6c54316485ed126c9134cdf3217200f08cef38fc11e69d8cd18df422d37a2375e27484efcd173b882a83440624bd3da981de93c416246d74844eb1d27a8bf4344678ca708fa0405e46260bc7bf4bf13c5d7b6cfce040a13654074f4be41f23d5393f9e9053e1170e68a933d616cf501bff696845e30bf3a4eb5f92d3b2a3af2214f68bf422530b97ab04f46de069aec57e10e306839d1daa10c1072753bd50d631a18eec1a331dd1ffe14ceace043c186d05ceaeff1f944719cb7e9e97f9afbdc3cd29761f2a5b75584a0f44e3893d3a58c9a61f023ef99ae8065e9efb24865067a0219df744a6432703eb80d6147c550766362cfe2053c0f3897938d10305a4bde3b43dc44bbe7dcdb15b9dd18a7de72aaa7e6655f4991562d8613a61cef93d73d2bdfae2b5d39b9db15ba1d94c097761ac5e906291388bbbaaf6bf0d1360e80ea0b993d8340f2e1874d7fbb4097218dc90694642ca81c89122c8df66fac9c7e4b3a99414f703895d3747e4eba751d781fc2230d253e24ee586ed44006f9919e23d7cf8d3fce95550c6a8cd0a828bc2d467c88c4361390d367cea3c3d0a0d1182d8ffe28878e2b15a4b9533d846e80c547e3c120e8b05e39876bac14b76f1f91901feab4101d874a76a82794946c066cfa5c04adc53a91ca4cebf01d4ddd7c0f954d5ed421dc489cbbef37ae7298e8c3dc7637e0d9340910120914286f880fcdf89a3fd923285f431c34191149459405c775934ec8b7458b221d28f1bee968b0a04b61ef1d8642d91aa11483411c72b6c6b9f7064696ef8b7393688d80d05d26e581fe3341859dae4979bd03d79e6af792fe3661fd8dcd18e32a3158198acc9ac26cfe4572ef8edf2ea9d42466500be19d1b5702295780c8a043ef0132a0fd50bcc93a65408e3eaf46520656b24e1262722b5b99e7ad1de9f39e22bd1ef7631830b9f114fe3371a11b2cfe5ae584bea51a78aa9492ffd07b3c4ea520aa992dfcb239250a5616a770e96b6929e333b2695adfe64b7006d31560db8e15d2736f901780064d81f30b5d9d8718c3ce18e1e771fd6cb23b836dbf821f964e25118cac29dfc14c6308bc81ad367fc3d3a01cb06c0e7ecdba2fb3c91ee90ad6d9cdb000b106738e34d89a04665b39c0c663159eb50fe8d6c1f5833913ac5df8c360f0fd526a9e3428817d6553beb90064814f350a5ffe4f0c2a67800ff938cc71d48717ca564c77380cbdf64ff33b3e677c01c796aaa37ba189330c6e6a82111769baf2333970713a8b48890ea3b8770be87aba1c0a25d34302b69d79ed1019be24c0fbf99fe0504cc80938d95996ac5b7eff0e9a2fe5a625dea1dd787477fae49413f5a383ba047f3da9b6625615629b4d9775ba7031ecc922a9edcaefbe0626cfdbf0f0f9ab3d63b3e2d071a3504623916d44633c5089a3b17485aae692a6a0df447bfa4e742a0ff7a940613289ab22fe9a52bacfd671aa49553c40a723a14a04a219a704e3172cee92b0f400b5115556479aaff099320829441535b5a0f517aed221aa3164542dc904252a023b9b981ea1b7676f1a1ecdb1e8c4ec1eee59e3dd908a6b56be8afbd3f51a985f7cfc1a7f8f507f09c8a4dd3bc95dc472a0ebed9ba5f3e6feed897b119c2841ffdf5c9bf63fb14a6be9af6b6cd4a0faf5fa1c0fc0837e387ac0f11c22ae19048d35f9e55369875b2f69902e98363b3c9f1eeb95610880d9fd12648746ae0e8821b9191e7e8d6403ba179459e97f4fe0d02c42addeee33d0fa77af22a6a096edcd3574f686ceb9f2320f903ad62b7e1ba4595d47d47adbbcc9810c3d1aa14851f8e44aa17cf3ca355c8bf01a9838e346068b90aa7ee3b62f8220c852960068d1cb8d2d7b53597e5b9ae001e33d1bfc22f4b7d7d81016b27ace5b188bdd710827e8fb0e7476bf3d66dc7d2198f5a8f00315dd11186dd620fe5d524c9a73048c0a42e3dc3570bf59740e4b5457364102b0b1b025e611f921a783f2cfdbbb69a69f9602c62c724f0e2d2d0af8807871443571952ce0dc145b9692f1ea399623964beb8746b0ffb3f0582c1ac8b196de27ebbd23f51069bf380208af4b4ba065b13a32a9bf04e92a16e9d5d7a428b2afabe432a79f79a395007502dd5f2c067d7b89a2c205681a18d7eb809ab4a425be581855d2f33f1aa730245de4e84d4abb7a4936cf244436fe75d38b7c74a14ec4fa09bc00160571de4b25f9c69aec4627022f18003062c2b76cc0685e5d75a9302d653cbd527094c111d04437760e485b35ebab6550d7cba5b90a415713f1ad5bae43b28a80378aa4d9e8f401240dfe951551c01e5305fcb95d0d7c3980d39a9ec4696430656625ab65b850faa5bcaa8a41789a20c19ad857188712cc869401fc84b68fc4bf5cc836876bae49faa12bbdc0357ff9253a241ebd2d329e2da888b66377ecac628a4916076a3b53a7287343e0e8a6ebafbe911a4c933fe45fe742bb3cec89a4d4940018ffce24cf0bb6c48fe49ce2791f6f05cbe2cc9b9516a4b42a39fa4cb8d3c841bca59c242600a8dc0bfd2e40eda7dae64aecb02ef6257815664f867b0610a5d0a3a931c88813a32e26c184c7dbd46f9d32a874933c3ae953addd393abd063789310116605e21fadc3d7c430aedaea426846c11b18073e847033eb811ae3e1187c12b5563c8cac3ed8c28b1caf7d17e465ef30c0e2d276a69cd731a8ae45a075107924a8677dcf4148b7e9b126e31b29786facd6996702cad0a84267e2047ca1f8f3f26066bcad42073fc8869460962f2a2a40951052337718f9b9cb4c0f0f1f4fe1516191a1d1f222d356c73768496a7aebbc8d4dee4eaebec062b4588a2a8b3ced40d0f2e387989c2cbcd000000000000000000000000000000000000000000000000000d252e3701fd210500101d73cca93c9ddd5c2eb7a50f7348b8d001e9da7dd69d71e891994659a572e9388931e37e7bbb6e74e57edbc9d2f08eb7ad1a4906a34a0b379fe648566a17f11774e9c07ca9153291d703a2e4d9eff88dc11ee6bc77744c757fc9aafd79e970e589791f5deb3404fda2663b1d68300ea14173c727a6c74fdb9b77441e30c013bbc204b17d4008772ab3d6255df9398aca0076dfb5b299797a67bf9641830de87bb1fe0aa2e230ffe9749f4619b2a153a37554a17b20096317ba0978b364c8244727a1c855c0e9997864981f9887c265bd80bb2a2133e5c0f5852c4781980b2616e94a7e4dfaa408357f7048f13f726b0f9b2091bc2c2a1046882346d90e3d1478a08a196f274e78acf9ad1717da5960f166ce1773784fba3a09838e57601871bd9557a119be9ed480eeb01a35eed39a48119e841b9e0631ca58beb4f5f1929300b5c45f56b29f1c5d415f3c1dc1fe603f2ec83778df05ff5b2eea6722c2d8bdd0193c2c12c3b2805302510ccff95069764ea77607357798f73640a4f242581d7c548fd2d99c3790f9f3f2baec2dd8228fa638e9b2db10b62ad12e96045db3f70181022de36bb944c3a891a253103111724a992ab2861f20b0ba03b6c6cedff08cab928df1c42e30a9a85195b71bb1b578f7964238233745bb18a630d4c1012f30e2b0a989d322efb68202510af39a30e7a5ba95f33226bf72e6a1a53bc271557f17f6097ab528ab70eac8a2f46bb1189230128cbb9110148da36cdc41abc63f8b327f032b681b8c9871b4a5b5164e4dfa487a791f37e9f45d3cc607d54a7578af8f15550de30db63a03acf9e6b6ad67e982f955290760dbc17c61d3189e99ec4e4ddd2bdbc3c2637bb020bf92736d9853dd4f7e15d0eb7aaef3146223f777423682c1c853a1719dfcb477f3a67643990af0759c2a975343946ed758d04e21282ba5c021d5ea499d878c949c52031bd81a5c06d92a80aab8c322a3b1fbdd237dc5e904fb91f059b3c8d01b4ad3088d509d1abd927b10e07473ea54f5adad1c27513142cfc9e0e3e5081b971bfa148c78f780f34d2f19f387313b0f91bd14a5186666175f01e4e7b768f0c155bf6d21f0092cacc5c9f10c48226002a8a92472b51d323b0884b320f22b61a95290e4072e5d71cfc3cfefb2d672154fcb020595965e06fd37d1203dd9bf02bce89dde28a5d5ef971375fdcc6a21e4277793c55a24bd1640d1fbbcf8f6efe6b0bdf0d0280914a0426c91e66a86f29d2ce05991e630c6161a5536ac3806e32a56830bf66fef538e72a5b745ac68b774ea2cdf7a7ac68458b1b7ca4a404b8e495b99c85efcacfda2b72cf0067190237892ca73fb75611137a6e6246f5e5799335a1bd302246aceaae122af20b2f46e8aec44a39e323a6d7c25911e84808e6a0e27e55a3f0841482d07fe79b3d44c12694fe1471ee611c0d40326dc711f27c11a1f629f3bf7f5390cc567f6fcd35f7840a721ac3a053a3e469b999d436d89c530102ed2bf8abce4ec7b9406d23e55d71e4197784244f18e04913f1d5d6eadee7debd3a63f14bbaca8a887ffe0bdfe4425e27b35bda1e40e232e884f92e233a54bb5aee6e55f4c70a1d2fa65a06d82fe1aceef62bb7f9aadc38067c8007c05e9980fe06c7fb358a70f6877fcecd6dfce4a5b60c40d42f8ce11eabfdb13b7e175cd1dd575f6be5f716119e19bb738cf794b2a541428ab53015d4a7048c023315f94892dce79fa44a63a68b9fbad5fd14a17a8e16e1723f88da88bb29a9f59b5a64b5fa3201965131a1e221ef5bf9270f35cd5009f658b138eb23c19bbda840af8557d244cfd0036d6277eba5986d95cec4786bf67cacf5672000000",
  "txid": "e05c024787fe7e8524ed1d603b4d8925bf00fb5ef966ae7f9464b62f9c1d6b16",
  "hash": "b4f8d55a39729c2c72a59a0e90b019ee79ebc2db729e7ed6a5815b2badf76900",
  "size": 5085,
  "vsize": 2278,
  "version": 1,
  "locktime": 114,
  "vin": [
    {
      "txid": "eddb93154316f30c84d822ceaf55d7b272fe5af83b5cc4845784585326557f67",
      "vout": 0,
      "scriptSig": {
        "asm": "",
        "hex": ""
      },
      "txinwitness": [
        "8742d01f4596c75406724bf3cf62666e1ce138b671cc9d02475b1bae1b465e35f0961a704a6bcd7ba3f2429a15aaae046baff2f0d1fb532a144ad085f1177dd699a5628e65c7f0a89438792ef9d674b3c8931e4fbcb25e8b8f2fbcdf77b93db815e5b931f1048986b0db646da2ab781370f7121077672651d51212da4fdc6f15562c7d7dca06969c2237618d5a06881a29545549cd90728075abec65e46f4ec04c7c0ab1bdf4003ee98a50bf744b59cc47a958bf76a7a876ee23de5722dc6c506619861c9ea9d1cb5d0fcb8c07686a0a54586fb8f7b4f024de5aaf463487780328adb44742249e2e248a22efdce9713a642d360aeed37ea9cea816dd0f0d88dc26056c1886203bf59a12f2aef4f2816d26a6cdbad5ef3037fe65a9e5447c40b6ebfeb283f49e49c0110fa3192ad97bd516c607e74d2dc9a44f43703188524ee93a619ec28f94e655be54dfb4392177e2cc4a8244d5c9e946af07e417216884b96e1f89327999491a29c84c993eb6c54316485ed126c9134cdf3217200f08cef38fc11e69d8cd18df422d37a2375e27484efcd173b882a83440624bd3da981de93c416246d74844eb1d27a8bf4344678ca708fa0405e46260bc7bf4bf13c5d7b6cfce040a13654074f4be41f23d5393f9e9053e1170e68a933d616cf501bff696845e30bf3a4eb5f92d3b2a3af2214f68bf422530b97ab04f46de069aec57e10e306839d1daa10c1072753bd50d631a18eec1a331dd1ffe14ceace043c186d05ceaeff1f944719cb7e9e97f9afbdc3cd29761f2a5b75584a0f44e3893d3a58c9a61f023ef99ae8065e9efb24865067a0219df744a6432703eb80d6147c550766362cfe2053c0f3897938d10305a4bde3b43dc44bbe7dcdb15b9dd18a7de72aaa7e6655f4991562d8613a61cef93d73d2bdfae2b5d39b9db15ba1d94c097761ac5e906291388bbbaaf6bf0d1360e80ea0b993d8340f2e1874d7fbb4097218dc90694642ca81c89122c8df66fac9c7e4b3a99414f703895d3747e4eba751d781fc2230d253e24ee586ed44006f9919e23d7cf8d3fce95550c6a8cd0a828bc2d467c88c4361390d367cea3c3d0a0d1182d8ffe28878e2b15a4b9533d846e80c547e3c120e8b05e39876bac14b76f1f91901feab4101d874a76a82794946c066cfa5c04adc53a91ca4cebf01d4ddd7c0f954d5ed421dc489cbbef37ae7298e8c3dc7637e0d9340910120914286f880fcdf89a3fd923285f431c34191149459405c775934ec8b7458b221d28f1bee968b0a04b61ef1d8642d91aa11483411c72b6c6b9f7064696ef8b7393688d80d05d26e581fe3341859dae4979bd03d79e6af792fe3661fd8dcd18e32a3158198acc9ac26cfe4572ef8edf2ea9d42466500be19d1b5702295780c8a043ef0132a0fd50bcc93a65408e3eaf46520656b24e1262722b5b99e7ad1de9f39e22bd1ef7631830b9f114fe3371a11b2cfe5ae584bea51a78aa9492ffd07b3c4ea520aa992dfcb239250a5616a770e96b6929e333b2695adfe64b7006d31560db8e15d2736f901780064d81f30b5d9d8718c3ce18e1e771fd6cb23b836dbf821f964e25118cac29dfc14c6308bc81ad367fc3d3a01cb06c0e7ecdba2fb3c91ee90ad6d9cdb000b106738e34d89a04665b39c0c663159eb50fe8d6c1f5833913ac5df8c360f0fd526a9e3428817d6553beb90064814f350a5ffe4f0c2a67800ff938cc71d48717ca564c77380cbdf64ff33b3e677c01c796aaa37ba189330c6e6a82111769baf2333970713a8b48890ea3b8770be87aba1c0a25d34302b69d79ed1019be24c0fbf99fe0504cc80938d95996ac5b7eff0e9a2fe5a625dea1dd787477fae49413f5a383ba047f3da9b6625615629b4d9775ba7031ecc922a9edcaefbe0626cfdbf0f0f9ab3d63b3e2d071a3504623916d44633c5089a3b17485aae692a6a0df447bfa4e742a0ff7a940613289ab22fe9a52bacfd671aa49553c40a723a14a04a219a704e3172cee92b0f400b5115556479aaff099320829441535b5a0f517aed221aa3164542dc904252a023b9b981ea1b7676f1a1ecdb1e8c4ec1eee59e3dd908a6b56be8afbd3f51a985f7cfc1a7f8f507f09c8a4dd3bc95dc472a0ebed9ba5f3e6feed897b119c2841ffdf5c9bf63fb14a6be9af6b6cd4a0faf5fa1c0fc0837e387ac0f11c22ae19048d35f9e55369875b2f69902e98363b3c9f1eeb95610880d9fd12648746ae0e8821b9191e7e8d6403ba179459e97f4fe0d02c42addeee33d0fa77af22a6a096edcd3574f686ceb9f2320f903ad62b7e1ba4595d47d47adbbcc9810c3d1aa14851f8e44aa17cf3ca355c8bf01a9838e346068b90aa7ee3b62f8220c852960068d1cb8d2d7b53597e5b9ae001e33d1bfc22f4b7d7d81016b27ace5b188bdd710827e8fb0e7476bf3d66dc7d2198f5a8f00315dd11186dd620fe5d524c9a73048c0a42e3dc3570bf59740e4b5457364102b0b1b025e611f921a783f2cfdbbb69a69f9602c62c724f0e2d2d0af8807871443571952ce0dc145b9692f1ea399623964beb8746b0ffb3f0582c1ac8b196de27ebbd23f51069bf380208af4b4ba065b13a32a9bf04e92a16e9d5d7a428b2afabe432a79f79a395007502dd5f2c067d7b89a2c205681a18d7eb809ab4a425be581855d2f33f1aa730245de4e84d4abb7a4936cf244436fe75d38b7c74a14ec4fa09bc00160571de4b25f9c69aec4627022f18003062c2b76cc0685e5d75a9302d653cbd527094c111d04437760e485b35ebab6550d7cba5b90a415713f1ad5bae43b28a80378aa4d9e8f401240dfe951551c01e5305fcb95d0d7c3980d39a9ec4696430656625ab65b850faa5bcaa8a41789a20c19ad857188712cc869401fc84b68fc4bf5cc836876bae49faa12bbdc0357ff9253a241ebd2d329e2da888b66377ecac628a4916076a3b53a7287343e0e8a6ebafbe911a4c933fe45fe742bb3cec89a4d4940018ffce24cf0bb6c48fe49ce2791f6f05cbe2cc9b9516a4b42a39fa4cb8d3c841bca59c242600a8dc0bfd2e40eda7dae64aecb02ef6257815664f867b0610a5d0a3a931c88813a32e26c184c7dbd46f9d32a874933c3ae953addd393abd063789310116605e21fadc3d7c430aedaea426846c11b18073e847033eb811ae3e1187c12b5563c8cac3ed8c28b1caf7d17e465ef30c0e2d276a69cd731a8ae45a075107924a8677dcf4148b7e9b126e31b29786facd6996702cad0a84267e2047ca1f8f3f26066bcad42073fc8869460962f2a2a40951052337718f9b9cb4c0f0f1f4fe1516191a1d1f222d356c73768496a7aebbc8d4dee4eaebec062b4588a2a8b3ced40d0f2e387989c2cbcd000000000000000000000000000000000000000000000000000d252e3701",
        "00101d73cca93c9ddd5c2eb7a50f7348b8d001e9da7dd69d71e891994659a572e9388931e37e7bbb6e74e57edbc9d2f08eb7ad1a4906a34a0b379fe648566a17f11774e9c07ca9153291d703a2e4d9eff88dc11ee6bc77744c757fc9aafd79e970e589791f5deb3404fda2663b1d68300ea14173c727a6c74fdb9b77441e30c013bbc204b17d4008772ab3d6255df9398aca0076dfb5b299797a67bf9641830de87bb1fe0aa2e230ffe9749f4619b2a153a37554a17b20096317ba0978b364c8244727a1c855c0e9997864981f9887c265bd80bb2a2133e5c0f5852c4781980b2616e94a7e4dfaa408357f7048f13f726b0f9b2091bc2c2a1046882346d90e3d1478a08a196f274e78acf9ad1717da5960f166ce1773784fba3a09838e57601871bd9557a119be9ed480eeb01a35eed39a48119e841b9e0631ca58beb4f5f1929300b5c45f56b29f1c5d415f3c1dc1fe603f2ec83778df05ff5b2eea6722c2d8bdd0193c2c12c3b2805302510ccff95069764ea77607357798f73640a4f242581d7c548fd2d99c3790f9f3f2baec2dd8228fa638e9b2db10b62ad12e96045db3f70181022de36bb944c3a891a253103111724a992ab2861f20b0ba03b6c6cedff08cab928df1c42e30a9a85195b71bb1b578f7964238233745bb18a630d4c1012f30e2b0a989d322efb68202510af39a30e7a5ba95f33226bf72e6a1a53bc271557f17f6097ab528ab70eac8a2f46bb1189230128cbb9110148da36cdc41abc63f8b327f032b681b8c9871b4a5b5164e4dfa487a791f37e9f45d3cc607d54a7578af8f15550de30db63a03acf9e6b6ad67e982f955290760dbc17c61d3189e99ec4e4ddd2bdbc3c2637bb020bf92736d9853dd4f7e15d0eb7aaef3146223f777423682c1c853a1719dfcb477f3a67643990af0759c2a975343946ed758d04e21282ba5c021d5ea499d878c949c52031bd81a5c06d92a80aab8c322a3b1fbdd237dc5e904fb91f059b3c8d01b4ad3088d509d1abd927b10e07473ea54f5adad1c27513142cfc9e0e3e5081b971bfa148c78f780f34d2f19f387313b0f91bd14a5186666175f01e4e7b768f0c155bf6d21f0092cacc5c9f10c48226002a8a92472b51d323b0884b320f22b61a95290e4072e5d71cfc3cfefb2d672154fcb020595965e06fd37d1203dd9bf02bce89dde28a5d5ef971375fdcc6a21e4277793c55a24bd1640d1fbbcf8f6efe6b0bdf0d0280914a0426c91e66a86f29d2ce05991e630c6161a5536ac3806e32a56830bf66fef538e72a5b745ac68b774ea2cdf7a7ac68458b1b7ca4a404b8e495b99c85efcacfda2b72cf0067190237892ca73fb75611137a6e6246f5e5799335a1bd302246aceaae122af20b2f46e8aec44a39e323a6d7c25911e84808e6a0e27e55a3f0841482d07fe79b3d44c12694fe1471ee611c0d40326dc711f27c11a1f629f3bf7f5390cc567f6fcd35f7840a721ac3a053a3e469b999d436d89c530102ed2bf8abce4ec7b9406d23e55d71e4197784244f18e04913f1d5d6eadee7debd3a63f14bbaca8a887ffe0bdfe4425e27b35bda1e40e232e884f92e233a54bb5aee6e55f4c70a1d2fa65a06d82fe1aceef62bb7f9aadc38067c8007c05e9980fe06c7fb358a70f6877fcecd6dfce4a5b60c40d42f8ce11eabfdb13b7e175cd1dd575f6be5f716119e19bb738cf794b2a541428ab53015d4a7048c023315f94892dce79fa44a63a68b9fbad5fd14a17a8e16e1723f88da88bb29a9f59b5a64b5fa3201965131a1e221ef5bf9270f35cd5009f658b138eb23c19bbda840af8557d244cfd0036d6277eba5986d95cec4786bf67cacf56"
      ],
      "sequence": 4294967294
    }
  ],
  "vout": [
    {
      "value": 1.0,
      "n": 0,
      "scriptPubKey": {
        "asm": "OP_RETURN 4b5296dcb83f977e886239e50325da0437948f0c3b66d04782cd70738a44ed87 6e933350ac58fb9ceeecb880a16ce7183f8af9810ce1ed61ef6488d0422917584eb313708c78dbbccecc98a0814cc7381faad9a12cc1cd41cf44a8f0620937782ed37310ec18bbdcaeacf8c0e12ca7587fcab9c14ca1ad21af24c890026957180ef35330cc389bfc8e8cd8e0c10c87785fea99e16c818d018f04e8b022497738ee13b3d02cd87b1c6e6c380021ec6798bf0a79018c616de16fe40850c2a997d8ce3393f00cf85b3c4e4c182001cc47b89f2a5921ac414dc14fc42870e289b7f8ae53f3906c983b5c2e2c784061ac27d8ff4a3941cc212da12fa4481082e9d7988e73d3b04cb81b7c0e0c5860418c07f8df6a1961ec010d810f846830a2c9f7b86e933350ac58fb9ceeecb880a16ce7183f8af9810ce1ed61ef6488d0422917584eb313708c78dbbccecc98a0814cc7381faad9a12cc1cd41cf44a8f0620937782ed37310ec18bbdcaeacf8c0e12ca7587fcab9c14ca1ad21af24c890026957180ef35330cc389bfc8e8cd8e0c10c87785fea99e16c818d018f04e8b022497738ee13b3d02cd87b1c6e6c380021ec6798bf0a79018c616de16fe40850c2a997d8ce3393f00cf85b3c4e4c182001cc47b89f2a5921ac414dc14fc42870e289b7f8ae53f3906c983b5c2e2c784061ac27d8ff4a3941cc212da12fa4481082e9d7988e73d3b04cb81b7c0e0c5860418c07f8df6a1961ec010d810f846830a2c9f7b86e933350ac58fb9ceeecb880a16ce7183f8af9810ce1ed61ef6488d0422917584eb313708c78dbbccecc98a0814cc7381faad9a12cc1cd41cf44a8f0620937782ed37310ec18bbdcaeacf8c0e12ca7587fcab9c14ca1ad21af24c890026957180ef35330cc389bfc8e8cd8e0c10c87785fea99e16c818d018f04e8b022497738ee13b3d02cd87b1c6e6c380021ec6798bf0a79018c616de16fe40850c2a997d8ce3393f00cf85b3c4e4c182001cc47b89f2a5921ac414dc14fc42870e289b7f8ae53f3906c983b5c2e2c784061ac27d8ff4a3941cc212da12fa4481082e9d7988e73d3b04cb81b7c0e0c5860418c07f8df6a1961ec010d810f846830a2c9f7b86e933350ac58fb9ceeecb880a16ce7183f8af9810ce1ed61ef6488d0422917584eb313708c78dbbccecc98a0814cc7381faad9a12cc1cd41cf44a8f0620937782ed37310ec18bbdcaeacf8c0e12ca7587fcab9c14ca1ad21af24c890026957180ef35330cc389bfc8e8cd8e0c10c87785fea99e16c818d018f04e8b022497738ee13b3d02cd87b1c6e6c380021ec6798bf0a79018c616de16fe40850c2a997d8ce3393f00cf85b3c4e4c182001cc47b89f2a5921ac414dc14fc42870e289b7f8ae53f3906c983b5c2e2c784061ac27d8ff4a3941cc212da12fa4481082e9d7988e73d3b04cb81b7c0e0c5860418c07f8df6a1961ec010d810f846830a2c9f7b86e933350ac58fb9ceeecb880a16ce7183f8af9810ce1ed61ef6488d0422917584eb313708c78dbbccecc98a0814cc7381faad9a12cc1cd41cf44a8f0620937782ed37310ec18bbdcaeacf8c0e12ca7587fcab9c14ca1ad21af24c890026957180ef35330cc389bfc8e8cd8e0c10c87785fea99e16c818d018f04e8b022497738ee13b3d02cd87b1c6e6c380021ec67981bb8a0783c0a5f26d3211431f470bb528d749edc80f97d33d2b92795e8c8af43",
        "hex": "6a204b5296dcb83f977e886239e50325da0437948f0c3b66d04782cd70738a44ed874db0046e933350ac58fb9ceeecb880a16ce7183f8af9810ce1ed61ef6488d0422917584eb313708c78dbbccecc98a0814cc7381faad9a12cc1cd41cf44a8f0620937782ed37310ec18bbdcaeacf8c0e12ca7587fcab9c14ca1ad21af24c890026957180ef35330cc389bfc8e8cd8e0c10c87785fea99e16c818d018f04e8b022497738ee13b3d02cd87b1c6e6c380021ec6798bf0a79018c616de16fe40850c2a997d8ce3393f00cf85b3c4e4c182001cc47b89f2a5921ac414dc14fc42870e289b7f8ae53f3906c983b5c2e2c784061ac27d8ff4a3941cc212da12fa4481082e9d7988e73d3b04cb81b7c0e0c5860418c07f8df6a1961ec010d810f846830a2c9f7b86e933350ac58fb9ceeecb880a16ce7183f8af9810ce1ed61ef6488d0422917584eb313708c78dbbccecc98a0814cc7381faad9a12cc1cd41cf44a8f0620937782ed37310ec18bbdcaeacf8c0e12ca7587fcab9c14ca1ad21af24c890026957180ef35330cc389bfc8e8cd8e0c10c87785fea99e16c818d018f04e8b022497738ee13b3d02cd87b1c6e6c380021ec6798bf0a79018c616de16fe40850c2a997d8ce3393f00cf85b3c4e4c182001cc47b89f2a5921ac414dc14fc42870e289b7f8ae53f3906c983b5c2e2c784061ac27d8ff4a3941cc212da12fa4481082e9d7988e73d3b04cb81b7c0e0c5860418c07f8df6a1961ec010d810f846830a2c9f7b86e933350ac58fb9ceeecb880a16ce7183f8af9810ce1ed61ef6488d0422917584eb313708c78dbbccecc98a0814cc7381faad9a12cc1cd41cf44a8f0620937782ed37310ec18bbdcaeacf8c0e12ca7587fcab9c14ca1ad21af24c890026957180ef35330cc389bfc8e8cd8e0c10c87785fea99e16c818d018f04e8b022497738ee13b3d02cd87b1c6e6c380021ec6798bf0a79018c616de16fe40850c2a997d8ce3393f00cf85b3c4e4c182001cc47b89f2a5921ac414dc14fc42870e289b7f8ae53f3906c983b5c2e2c784061ac27d8ff4a3941cc212da12fa4481082e9d7988e73d3b04cb81b7c0e0c5860418c07f8df6a1961ec010d810f846830a2c9f7b86e933350ac58fb9ceeecb880a16ce7183f8af9810ce1ed61ef6488d0422917584eb313708c78dbbccecc98a0814cc7381faad9a12cc1cd41cf44a8f0620937782ed37310ec18bbdcaeacf8c0e12ca7587fcab9c14ca1ad21af24c890026957180ef35330cc389bfc8e8cd8e0c10c87785fea99e16c818d018f04e8b022497738ee13b3d02cd87b1c6e6c380021ec6798bf0a79018c616de16fe40850c2a997d8ce3393f00cf85b3c4e4c182001cc47b89f2a5921ac414dc14fc42870e289b7f8ae53f3906c983b5c2e2c784061ac27d8ff4a3941cc212da12fa4481082e9d7988e73d3b04cb81b7c0e0c5860418c07f8df6a1961ec010d810f846830a2c9f7b86e933350ac58fb9ceeecb880a16ce7183f8af9810ce1ed61ef6488d0422917584eb313708c78dbbccecc98a0814cc7381faad9a12cc1cd41cf44a8f0620937782ed37310ec18bbdcaeacf8c0e12ca7587fcab9c14ca1ad21af24c890026957180ef35330cc389bfc8e8cd8e0c10c87785fea99e16c818d018f04e8b022497738ee13b3d02cd87b1c6e6c380021ec67981bb8a0783c0a5f26d3211431f470bb528d749edc80f97d33d2b92795e8c8af43",
        "type": "nulldata"
      }
    },
    {
      "value": 499980.6789,
      "n": 1,
      "scriptPubKey": {
        "asm": "1 c5cedc45975b691b8758b366f6dcd25d3c4d56b5523b485ee12bd2fc8e2c91ff",
        "hex": "5120c5cedc45975b691b8758b366f6dcd25d3c4d56b5523b485ee12bd2fc8e2c91ff",
        "reqSigs": 1,
        "type": "witness_v1_scripthash",
        "addresses": [
          "3QJmnh"
        ]
      }
    }
  ],
  "blockhash": "a404c97fd79b0f74ac8935f18e4afcd6ffd73e4b441b9f6bd67a7215b8c8499e",
  "confirmations": 1,
  "time": 1764178774,
  "blocktime": 1764178774
}