{
  "hex": "01000000000101ddab884ea23e7cbb108a79d2fdca2c6d4f057cf18b0ccb0cc7f1905a42fbed3e0000000000feffffff02c02309ae782d0000225120955da63c3e2217feae4cb493d68c6c3a1fcbdd5ec77887623ee10e856263a3e300e1f50500000000fdd5046a20f18662d6e0d1ff17ccab3e4f715676508e92f5cdd2f2e052f406d9189eb45c3e4db004ff82a96ae480cdf4047fae24f50f21ae06d6c41bc333b95855e5fe988db682bfdfa2894ac4a0edd4245f8e04d52f018e26f6e43be313997875c5deb8ad96a29fbfc2e92aa4c08db4443fee64b54f61ee4696845b8373f91815a5bed8cdf6c2ff9fe2c90a84e0ad94641fce44956f41ce66b6a47ba353d93835859ef8edd6e2df7f0229ea64004d7484ff2ea4758fa12e8656449b43b339d8d5657e180d36023f5f2209ca44206d54a4df0e8455af810ea67664bb639319f8f5455e382d16221f3f4269aa24400d34c4bf6ee435cfe16ec61604db03f3799895253e584d76427f1f62498a04602d14e49f4ec415efc14ee63624fb23d359b8b5051e786d56625fff82a96ae480cdf4047fae24f50f21ae06d6c41bc333b95855e5fe988db682bfdfa2894ac4a0edd4245f8e04d52f018e26f6e43be313997875c5deb8ad96a29fbfc2e92aa4c08db4443fee64b54f61ee4696845b8373f91815a5bed8cdf6c2ff9fe2c90a84e0ad94641fce44956f41ce66b6a47ba353d93835859ef8edd6e2df7f0229ea64004d7484ff2ea4758fa12e8656449b43b339d8d5657e180d36023f5f2209ca44206d54a4df0e8455af810ea67664bb639319f8f5455e382d16221f3f4269aa24400d34c4bf6ee435cfe16ec61604db03f3799895253e584d76427f1f62498a04602d14e49f4ec415efc14ee63624fb23d359b8b5051e786d56625fff82a96ae480cdf4047fae24f50f21ae06d6c41bc333b95855e5fe988db682bfdfa2894ac4a0edd4245f8e04d52f018e26f6e43be313997875c5deb8ad96a29fbfc2e92aa4c08db4443fee64b54f61ee4696845b8373f91815a5bed8cdf6c2ff9fe2c90a84e0ad94641fce44956f41ce66b6a47ba353d93835859ef8edd6e2df7f0229ea64004d7484ff2ea4758fa12e8656449b43b339d8d5657e180d36023f5f2209ca44206d54a4df0e8455af810ea67664bb639319f8f5455e382d16221f3f4269aa24400d34c4bf6ee435cfe16ec61604db03f3799895253e584d76427f1f62498a04602d14e49f4ec415efc14ee63624fb23d359b8b5051e786d56625fff82a96ae480cdf4047fae24f50f21ae06d6c41bc333b95855e5fe988db682bfdfa2894ac4a0edd4245f8e04d52f018e26f6e43be313997875c5deb8ad96a29fbfc2e92aa4c08db4443fee64b54f61ee4696845b8373f91815a5bed8cdf6c2ff9fe2c90a84e0ad94641fce44956f41ce66b6a47ba353d93835859ef8edd6e2df7f0229ea64004d7484ff2ea4758fa12e8656449b43b339d8d5657e180d36023f5f2209ca44206d54a4df0e8455af810ea67664bb639319f8f5455e382d16221f3f4269aa24400d34c4bf6ee435cfe16ec61604db03f3799895253e584d76427f1f62498a04602d14e49f4ec415efc14ee63624fb23d359b8b5051e786d56625fff82a96ae480cdf4047fae24f50f21ae06d6c41bc333b95855e5fe988db682bfdfa2894ac4a0edd4245f8e04d52f018e26f6e43be313997875c5deb8ad96a29fbfc2e92aa4c08db4443fee64b54f61ee4696845b8373f91815a5bed8cdf6c2ff9fe2c90a84e0ad94641fce44956f41ce66b6a47ba353d93835859ef8edd6e2df7f0229ea64004d7484ff2ea4758fa12e57c54676c5ca5cc59a9fbd1de6f459837e2a150575eaf1812fadce033516422b02fd7509c79ae348170003d1a96960de7262f1fa002c9a70a858ce384f2d095ec318582050fed5d1da7399db1bff21371e4fbff128941326ba43879837fe832c339ee75537a5539aba8605abea5764cd22263f3cdc823fca5e2bd18365a7dd76ba9578440d6fa9fc2054e8e8b10a4422cd03adedd847a55166da74dc447306a4a5b24eb636ee1caa6fc13fd64fc2f0a289627a3c687c2d842df632b37619107d7dc0ed8646aacbadcd16414b1cdd9aaef44783e951cd8d0d68ba7c474fd6c9e08acf1ea3c2a834b628785c42924d2c0b80f0156c4f3946ed3543d99a1da23f6a5aa4559e77263fef0785dbdd8715d1c7a924fe2e2ac11dfe24b9430bea4ba4016158f91e4cd5a9e0e33dff2e5f3d18ca8862ab5d8c1706b8662b83805bf7cb9b8ff761828fd7caf24f82dfc0743f9935f8435c0fb5e50116595744195f19fd9c6194de8d34419b4b65e92fede4a959b5b713615cf4679097093b9037447f7353af024a5dde06b7eee7c5b2f7d193e4a7e5fadc49a5ae4606879e046078643d2f1cd65b3a934fbf1affa44509a75d0aea16e70059a38d5b02e4d72c50405fe3e754e39de4cbac89df4abba6b9f36ba50fa91859a7c621eb9eaf3ab7fe20e9d4c5f41d111c1efed13f67cd375b0477aa938c11656010a5428f67a2ae36112ba71d53ec274554a4e4ebe8907846f0f601fe345c19b55e1bfd9815e2173f48894724da580b35b2fd01f08e118e7861c88119ad859a7865dfc7837051b199001520ef1065195a9a8d7decedbf783d5ca88eed97446aafca451530620f7ff769aaef09f993d6c0dd0eede2eb0b62027cc6cd2aa84b00bac914a45ba6c098a799d529d3a87a75d8b22ba7362914db40f2e3ccc1c90c95f02cc651391e07a54fcdfd2d1b066174c66381ae95186f99eac8d9f35471735316e7376546326a541cad75a89d25e8553cccaa17cd7bf20ab6cabd4acadf242e9257fa02193aebf217d0f9df0f07146b593c55ff474f62ce3dd2ed592b3691dd7e9f73ba78a340823fd77302cef17ea4b1c54c4973c7bbcb63af8f4445d1c1a5224d09be969f9e56698cf62b8d2c7a4f532c11ee55eeb4b9344df4375e6df9e1560092a6b9dec981348af5d332507152c138ae748ccc4f5ca1cdf87f5a0899582e4df14a887e9b363fd3845059a5034c8f8308b7c768f7207ff2aed8c4a022af130135da1bd7aa498d68a354f7e39b09aa768d33c8b0f51bbf4aeb8991737dec7094adb270c7ed1c07773788f08b80f77160724315e08975ac3063f6f45dff0df371a4da8fe90364892a1550f3324a08d04848df70e738d0164838fba1d4814d7b737b319ec13e2560668c4f15337c7208bd5ef2d0a5baafda3705ccdbb825f3fff718379037814ea4eca9a401963488c31e2416b8c284b09d297a5a4f8c3cf60438fac5a2b7899deb3683bb57eaee01cc64330b39d39452a82170b1e418c0c3bcd90ee205b60f8c92e92cafe674764f3f73c599802f305df86705f31db2491907c31d595db8257b9a49b02a50bd4ec1547a4d54dc31d37287dc297663af1bb76ca2e0fdd8f5318587e583c0061dbf931316adb4d9c26c2012bd5ff000aa8c1c828d3aab3d5b332e13797c740ee99116eb40e8ac748cc2e0298bc15375fbba0d702abf84c7c0f1dba3bb272386ad797119dc3b4bcd41407e98090b8867421370e8072644a2d2b8077fe2624ab3efcb355806c00d1c9b3e1701230c184d0ed112033a22489e466c3e4650cef84050dfeed775a74d4cdfb42f7efb912db4928a15795a92e0a22e89ecc53f9b69a11b2ab83f8e360725bb7ea071f07af05ed43c5f731cb117195e13ef9deae851f4fe09c961a299ed26924a5f72893608721fbe82b0085bb6583906f8dd41f95ec4a3c3e87421441e9a228163656b1dfe533e9b6e5e4b9ecb1cffeff8060e4f03174848c895ad65afbae3a8902a7d27bc29334a683e491fc7f0044e8348777cf2ce49ab72d164411720d654d729041db4f7728537f0c66759d2c21a0b5896eda6abb8302e055a660d9a2ca18bdb46a7ebe737a50ae0f25a7d6273dbee3ae378520552e1b13b44ed4453e38f3d38c8b0aaecfef3215d9d3e0845e3479ac5f9c496361bbe4c0a3cf26a6352bcf132210c66e1cf0a956109c0e2b06d4c0f797cb0d6a60e4ab370c1d00e3b06f2d6a3845588a9feeefc58662c4c4892ca385afa0266e4fb44433ac14bdf61d7987ccbcb5146da82c2bfe894b57f5879af7c96d82cad5a54bca6b159cb7a1efceb5e7d2db1c966d8b2efb7d8649534a53343ac645cae4de77ad081b9184ccaa2eb636f91deb7fbc0e3a7233e83ecbb734b939dcef56cf4ef82731c4f97f8b2e3b7aa85e37996130db2cf61b508d4fb01e504ce5a7f2f3dc4f209f374bd782ddd67683ba33c35fcf877f5decd1055bfd4c76398dcf63ea7a994028e3a78a3d6ad9e96d5be5fd216f39642cf8d439ce323e943c843818b14ae0db64229db74c0f4ba41de21ebe56ef3ae96b19da35fa98b3a5edd097000223923d6eba1ac432ef5b2c6e74ea6632be1affb9731a3a91be36691778be08b84f717096e746f04910b3f253aef6b2b6517e6b63b165df74faaa97f4a57561279f8fb3a814fb8e4c27f3dceefe8f7d6916f58dca687327286172da2834c69cf1f18d1bb87160f31b695148bbb43d886d0594d78f74caac97de27ed3d810f040dc6e5f5555d5ce5693eb14c0faa3262cb3bbadc29c27ec7727ad6806957f1fde7accc28ade32abe41f9f9457bff41898d6c1d1ecb14b0cac73a8fb57daea58a8f9653b5e11966e0ae1f951e64924b8a00684c4e92ebe858aa0e14f4b4cf0e7f8212703d05343a1442310ac81d2032e7694fececfe0512be10828596a1bf5dae42c3382ec009e982b0f2d5cc2715fb67aa8cb91531b75b81eb3ce95739a95e6543498909268ec81eabf494cf032957fb4505daabb50059e6d5f2392e062bd167c0e680df571ef786dc936039f9785a2cf8e6b6e80a2afb492028d91eb8087ba615e7a9765d9f95627b0dc7de643ca0d535642b036c2bf5ab7cc25e933852f4817d04c3c680ea44253743288816c664fcfdc6086cf99c3b2d5fea895c3ae92014d9fa9bf62fa0d6681eab1518b604ff0ef48f42fd37e265f73d1d87cbf38fd7add5299c42a5d2bc3db1ab0daa92c5535d30dae2e7812c6493ceeba0dbe501b98ba1c6064c1e7ccb822d749a9385cb57c7277777bc4d9ece62c7510f10b3a2a7d16d19f0e22e6f9f9aa7527edb82420ee4bcab3a9d38d3277b6847ad86a1cde1b423e292b72250e20232629384f505c5d5e95b9bcc5edfbfe031a242b2c3536495c62639aa0abafeaef0e1112161f494e525c737a90b4f1f92b2e404b62646993a5b1b3b6b7c1c5d5deff0000000000000000000000001223324401fd2105002d63b906605d63ae28e79e6d9fcedacdeb595a8feb0e654d5876caedd185d1fbf37a559fe3a3f5ab55a9fe6a59f5a9b587dfa279aed895f14e41f1c58c780c51b747bf0bc997664a04923512127d1527d6244e655118f18bcf9ab1acd04cb91663a400e91aba67d836257aa48b8b1b7c78e79a30f12291d871fff4a4fb1873df82f68ecda13f0c539c329fb9184547f33f9f13fc46d232905980df879ed61e69b6ad3c6bacf67ef293778fc04f106618b53f2ff16cf508f0f9b26fa0bd37059406a867087292f3733b228aa00af1ee89c371acf2c19bdf5a0ae83cceeea3fbea8bd8a04507e9fc51ed5d8bf3e05aae219d111ca00503e70a82aec10797ef86061c2dceb9bdbf58f57851b204889a9c21f388ee6eb9359e4b8f752fac3150ebd4d63518957e8e7d84b53b0ebd20635c63c4f08b460dc518de80f07a61ce28e95c47b8c50edac2754def05865897aa39172b3d5844a6e6a6d894699824502dd1decc041ef04f3b2fe321afee8f65ce3e60b43bbd55de315f81024a26cf0e1e794727decc5d711151fdc920bad9d0ca3a849a32b30aed7ae6fed6844fe5101f37883c1de14af0387946fa959e399cf8c0aef213c15a600b8ad048c595a38b264fdd42b2898e37b62c5ed7267d9d8443ec68584e9d424ce5b2bc768bca5e6d2675c15efcf9a2d8f2e68095d922da168697f973bf5299e1c74a88917936a402e6415ca6bee02f3110062d0bdccfc848fbb662629b2fdba6922c15fc21f459b2c5cd8ff080f2a961348b4187a15fccb53b37edb51a9bfc27ee66660348ae29dc6ddfead24dc5482670c0f0c5784383fbdf0db16a2c126b99449d25577f58a74a76500883576d403ffbd738a9098dd417a8fdfd1ed85ff1caf723e8b8d1b36fd1abf2b9ccd2ea72b907376e045d841f82085f55eb36bf08297a7f99b12ae7657872e95c288e0f7ebbfff2bfc1c68e291520fb9fcd3d5da2f5f5bedee1c94c85b26981707be1158226d28a3c3dcd3d7766d1c5d6b25501984698a4fbabd9d88e9515a70a59df61e3d33d7f57f598cce92ba4ee7f794c2c50be27b0bfd6b9b8289c8ede0bf6db82eda88d7a68398b7f436bb4f12f0b3cdb8aff0cf3c886f158474068f3c72803e02ecf33f699771e8802635d66104381a50f72da0f6521b6712ae5aa0d1784de753e359bfac31db6406ea5c6644ee50a6570917383e0bd398fc7f6599d1cb550ef608b729de21b87c6afdefe50a02d3c24589cf97e68d16f5be8e1152d698031d9ef318770b8474cec8739eaaf56de92af5a414ae57f764a0736f16311228687423a1839e4dbe3a05ac70a38399b318cd47ace44e3793bc49dc25b265d4dc25e4a40cf03234ed2f94c9d07495933f236809e75d92ad0c403f265de1f17082a35c91d8d94f0a1c938e4e504b2fec523e59e6c825eb2d031cc45d360ec4e7a8450ceb62f882ab586bf9f5bf747cd40d8ac84557c772d4b70b76722fc9cb0d9602e22684915c856829b8dea7092a84d30226a17914a1cdc77751986fa0b0b2b11e8f2a4427a3e8cbd78f619991479064ddfa9cf757283e06534e305720a49faf394a546d04de114d25137a3b1341dbe0bdb3171f6675f812021e42c70d9643df5203f7025f228a6e5c872d19fd6b244941670ceed51285934fc21b04dff3a71041c66b8478dc1c1e04c1932bf58cc6b6f3de537b83b732f7aee169f5bb955a467e438a1c53659e4d2808837ffc99d2096b56de4c8484320a2b62acaffe363663e3b8803af61c8cdfb850b0b4471ace254ac8a78639b144d2d47102cd4f503235fc3126794c2a4e8f2d2092b958e49493c8b67be12fd006a382c707459de832186000000",
  "txid": "ec8ed462e896990eb0437a44240a6527c99a2802d5354e368cd1b226a23bf1d5",
  "hash": "a21a01ae236f8aab5cc9969d6a54ba27402b80fa9acde786442808df314cc42a",
  "size": 5085,
  "vsize": 2278,
  "version": 1,
  "locktime": 134,
  "vin": [
    {
      "txid": "3eedfb425a90f1c70ccb0c8bf17c054f6d2ccafdd2798a10bb7c3ea24e88abdd",
      "vout": 0,
      "scriptSig": {
        "asm": "",
        "hex": ""
      },
      "txinwitness": [
        "c79ae348170003d1a96960de7262f1fa002c9a70a858ce384f2d095ec318582050fed5d1da7399db1bff21371e4fbff128941326ba43879837fe832c339ee75537a5539aba8605abea5764cd22263f3cdc823fca5e2bd18365a7dd76ba9578440d6fa9fc2054e8e8b10a4422cd03adedd847a55166da74dc447306a4a5b24eb636ee1caa6fc13fd64fc2f0a289627a3c687c2d842df632b37619107d7dc0ed8646aacbadcd16414b1cdd9aaef44783e951cd8d0d68ba7c474fd6c9e08acf1ea3c2a834b628785c42924d2c0b80f0156c4f3946ed3543d99a1da23f6a5aa4559e77263fef0785dbdd8715d1c7a924fe2e2ac11dfe24b9430bea4ba4016158f91e4cd5a9e0e33dff2e5f3d18ca8862ab5d8c1706b8662b83805bf7cb9b8ff761828fd7caf24f82dfc0743f9935f8435c0fb5e50116595744195f19fd9c6194de8d34419b4b65e92fede4a959b5b713615cf4679097093b9037447f7353af024a5dde06b7eee7c5b2f7d193e4a7e5fadc49a5ae4606879e046078643d2f1cd65b3a934fbf1affa44509a75d0aea16e70059a38d5b02e4d72c50405fe3e754e39de4cbac89df4abba6b9f36ba50fa91859a7c621eb9eaf3ab7fe20e9d4c5f41d111c1efed13f67cd375b0477aa938c11656010a5428f67a2ae36112ba71d53ec274554a4e4ebe8907846f0f601fe345c19b55e1bfd9815e2173f48894724da580b35b2fd01f08e118e7861c88119ad859a7865dfc7837051b199001520ef1065195a9a8d7decedbf783d5ca88eed97446aafca451530620f7ff769aaef09f993d6c0dd0eede2eb0b62027cc6cd2aa84b00bac914a45ba6c098a799d529d3a87a75d8b22ba7362914db40f2e3ccc1c90c95f02cc651391e07a54fcdfd2d1b066174c66381ae95186f99eac8d9f35471735316e7376546326a541cad75a89d25e8553cccaa17cd7bf20ab6cabd4acadf242e9257fa02193aebf217d0f9df0f07146b593c55ff474f62ce3dd2ed592b3691dd7e9f73ba78a340823fd77302cef17ea4b1c54c4973c7bbcb63af8f4445d1c1a5224d09be969f9e56698cf62b8d2c7a4f532c11ee55eeb4b9344df4375e6df9e1560092a6b9dec981348af5d332507152c138ae748ccc4f5ca1cdf87f5a0899582e4df14a887e9b363fd3845059a5034c8f8308b7c768f7207ff2aed8c4a022af130135da1bd7aa498d68a354f7e39b09aa768d33c8b0f51bbf4aeb8991737dec7094adb270c7ed1c07773788f08b80f77160724315e08975ac3063f6f45dff0df371a4da8fe90364892a1550f3324a08d04848df70e738d0164838fba1d4814d7b737b319ec13e2560668c4f15337c7208bd5ef2d0a5baafda3705ccdbb825f3fff718379037814ea4eca9a401963488c31e2416b8c284b09d297a5a4f8c3cf60438fac5a2b7899deb3683bb57eaee01cc64330b39d39452a82170b1e418c0c3bcd90ee205b60f8c92e92cafe674764f3f73c599802f305df86705f31db2491907c31d595db8257b9a49b02a50bd4ec1547a4d54dc31d37287dc297663af1bb76ca2e0fdd8f5318587e583c0061dbf931316adb4d9c26c2012bd5ff000aa8c1c828d3aab3d5b332e13797c740ee99116eb40e8ac748cc2e0298bc15375fbba0d702abf84c7c0f1dba3bb272386ad797119dc3b4bcd41407e98090b8867421370e8072644a2d2b8077fe2624ab3efcb355806c00d1c9b3e1701230c184d0ed112033a22489e466c3e4650cef84050dfeed775a74d4cdfb42f7efb912db4928a15795a92e0a22e89ecc53f9b69a11b2ab83f8e360725bb7ea071f07af05ed43c5f731cb117195e13ef9deae851f4fe09c961a299ed26924a5f72893608721fbe82b0085bb6583906f8dd41f95ec4a3c3e87421441e9a228163656b1dfe533e9b6e5e4b9ecb1cffeff8060e4f03174848c895ad65afbae3a8902a7d27bc29334a683e491fc7f0044e8348777cf2ce49ab72d164411720d654d729041db4f7728537f0c66759d2c21a0b5896eda6abb8302e055a660d9a2ca18bdb46a7ebe737a50ae0f25a7d6273dbee3ae378520552e1b13b44ed4453e38f3d38c8b0aaecfef3215d9d3e0845e3479ac5f9c496361bbe4c0a3cf26a6352bcf132210c66e1cf0a956109c0e2b06d4c0f797cb0d6a60e4ab370c1d00e3b06f2d6a3845588a9feeefc58662c4c4892ca385afa0266e4fb44433ac14bdf61d7987ccbcb5146da82c2bfe894b57f5879af7c96d82cad5a54bca6b159cb7a1efceb5e7d2db1c966d8b2efb7d8649534a53343ac645cae4de77ad081b9184ccaa2eb636f91deb7fbc0e3a7233e83ecbb734b939dcef56cf4ef82731c4f97f8b2e3b7aa85e37996130db2cf61b508d4fb01e504ce5a7f2f3dc4f209f374bd782ddd67683ba33c35fcf877f5decd1055bfd4c76398dcf63ea7a994028e3a78a3d6ad9e96d5be5fd216f39642cf8d439ce323e943c843818b14ae0db64229db74c0f4ba41de21ebe56ef3ae96b19da35fa98b3a5edd097000223923d6eba1ac432ef5b2c6e74ea6632be1affb9731a3a91be36691778be08b84f717096e746f04910b3f253aef6b2b6517e6b63b165df74faaa97f4a57561279f8fb3a814fb8e4c27f3dceefe8f7d6916f58dca687327286172da2834c69cf1f18d1bb87160f31b695148bbb43d886d0594d78f74caac97de27ed3d810f040dc6e5f5555d5ce5693eb14c0faa3262cb3bbadc29c27ec7727ad6806957f1fde7accc28ade32abe41f9f9457bff41898d6c1d1ecb14b0cac73a8fb57daea58a8f9653b5e11966e0ae1f951e64924b8a00684c4e92ebe858aa0e14f4b4cf0e7f8212703d05343a1442310ac81d2032e7694fececfe0512be10828596a1bf5dae42c3382ec009e982b0f2d5cc2715fb67aa8cb91531b75b81eb3ce95739a95e6543498909268ec81eabf494cf032957fb4505daabb50059e6d5f2392e062bd167c0e680df571ef786dc936039f9785a2cf8e6b6e80a2afb492028d91eb8087ba615e7a9765d9f95627b0dc7de643ca0d535642b036c2bf5ab7cc25e933852f4817d04c3c680ea44253743288816c664fcfdc6086cf99c3b2d5fea895c3ae92014d9fa9bf62fa0d6681eab1518b604ff0ef48f42fd37e265f73d1d87cbf38fd7add5299c42a5d2bc3db1ab0daa92c5535d30dae2e7812c6493ceeba0dbe501b98ba1c6064c1e7ccb822d749a9385cb57c7277777bc4d9ece62c7510f10b3a2a7d16d19f0e22e6f9f9aa7527edb82420ee4bcab3a9d38d3277b6847ad86a1cde1b423e292b72250e20232629384f505c5d5e95b9bcc5edfbfe031a242b2c3536495c62639aa0abafeaef0e1112161f494e525c737a90b4f1f92b2e404b62646993a5b1b3b6b7c1c5d5deff0000000000000000000000001223324401",
        "002d63b906605d63ae28e79e6d9fcedacdeb595a8feb0e654d5876caedd185d1fbf37a559fe3a3f5ab55a9fe6a59f5a9b587dfa279aed895f14e41f1c58c780c51b747bf0bc997664a04923512127d1527d6244e655118f18bcf9ab1acd04cb91663a400e91aba67d836257aa48b8b1b7c78e79a30f12291d871fff4a4fb1873df82f68ecda13f0c539c329fb9184547f33f9f13fc46d232905980df879ed61e69b6ad3c6bacf67ef293778fc04f106618b53f2ff16cf508f0f9b26fa0bd37059406a867087292f3733b228aa00af1ee89c371acf2c19bdf5a0ae83cceeea3fbea8bd8a04507e9fc51ed5d8bf3e05aae219d111ca00503e70a82aec10797ef86061c2dceb9bdbf58f57851b204889a9c21f388ee6eb9359e4b8f752fac3150ebd4d63518957e8e7d84b53b0ebd20635c63c4f08b460dc518de80f07a61ce28e95c47b8c50edac2754def05865897aa39172b3d5844a6e6a6d894699824502dd1decc041ef04f3b2fe321afee8f65ce3e60b43bbd55de315f81024a26cf0e1e794727decc5d711151fdc920bad9d0ca3a849a32b30aed7ae6fed6844fe5101f37883c1de14af0387946fa959e399cf8c0aef213c15a600b8ad048c595a38b264fdd42b2898e37b62c5ed7267d9d8443ec68584e9d424ce5b2bc768bca5e6d2675c15efcf9a2d8f2e68095d922da168697f973bf5299e1c74a88917936a402e6415ca6bee02f3110062d0bdccfc848fbb662629b2fdba6922c15fc21f459b2c5cd8ff080f2a961348b4187a15fccb53b37edb51a9bfc27ee66660348ae29dc6ddfead24dc5482670c0f0c5784383fbdf0db16a2c126b99449d25577f58a74a76500883576d403ffbd738a9098dd417a8fdfd1ed85ff1caf723e8b8d1b36fd1abf2b9ccd2ea72b907376e045d841f82085f55eb36bf08297a7f99b12ae7657872e95c288e0f7ebbfff2bfc1c68e291520fb9fcd3d5da2f5f5bedee1c94c85b26981707be1158226d28a3c3dcd3d7766d1c5d6b25501984698a4fbabd9d88e9515a70a59df61e3d33d7f57f598cce92ba4ee7f794c2c50be27b0bfd6b9b8289c8ede0bf6db82eda88d7a68398b7f436bb4f12f0b3cdb8aff0cf3c886f158474068f3c72803e02ecf33f699771e8802635d66104381a50f72da0f6521b6712ae5aa0d1784de753e359bfac31db6406ea5c6644ee50a6570917383e0bd398fc7f6599d1cb550ef608b729de21b87c6afdefe50a02d3c24589cf97e68d16f5be8e1152d698031d9ef318770b8474cec8739eaaf56de92af5a414ae57f764a0736f16311228687423a1839e4dbe3a05ac70a38399b318cd47ace44e3793bc49dc25b265d4dc25e4a40cf03234ed2f94c9d07495933f236809e75d92ad0c403f265de1f17082a35c91d8d94f0a1c938e4e504b2fec523e59e6c825eb2d031cc45d360ec4e7a8450ceb62f882ab586bf9f5bf747cd40d8ac84557c772d4b70b76722fc9cb0d9602e22684915c856829b8dea7092a84d30226a17914a1cdc77751986fa0b0b2b11e8f2a4427a3e8cbd78f619991479064ddfa9cf757283e06534e305720a49faf394a546d04de114d25137a3b1341dbe0bdb3171f6675f812021e42c70d9643df5203f7025f228a6e5c872d19fd6b244941670ceed51285934fc21b04dff3a71041c66b8478dc1c1e04c1932bf58cc6b6f3de537b83b732f7aee169f5bb955a467e438a1c53659e4d2808837ffc99d2096b56de4c8484320a2b62acaffe363663e3b8803af61c8cdfb850b0b4471ace254ac8a78639b144d2d47102cd4f503235fc3126794c2a4e8f2d2092b958e49493c8b67be12fd006a382c707459de8321"
      ],
      "sequence": 4294967294
    }
  ],
  "vout": [
    {
      "value": 499963.3916,
      "n": 0,
      "scriptPubKey": {
        "asm": "1 955da63c3e2217feae4cb493d68c6c3a1fcbdd5ec77887623ee10e856263a3e3",
        "hex": "5120955da63c3e2217feae4cb493d68c6c3a1fcbdd5ec77887623ee10e856263a3e3",
        "reqSigs": 1,
        "type": "witness_v1_scripthash",
        "addresses": [
          "3QJmnh"
        ]
      }
    },
    {
      "value": 1.0,
      "n": 1,
      "scriptPubKey": {
        "asm": "OP_RETURN f18662d6e0d1ff17ccab3e4f715676508e92f5cdd2f2e052f406d9189eb45c3e ff82a96ae480cdf4047fae24f50f21ae06d6c41bc333b95855e5fe988db682bfdfa2894ac4a0edd4245f8e04d52f018e26f6e43be313997875c5deb8ad96a29fbfc2e92aa4c08db4443fee64b54f61ee4696845b8373f91815a5bed8cdf6c2ff9fe2c90a84e0ad94641fce44956f41ce66b6a47ba353d93835859ef8edd6e2df7f0229ea64004d7484ff2ea4758fa12e8656449b43b339d8d5657e180d36023f5f2209ca44206d54a4df0e8455af810ea67664bb639319f8f5455e382d16221f3f4269aa24400d34c4bf6ee435cfe16ec61604db03f3799895253e584d76427f1f62498a04602d14e49f4ec415efc14ee63624fb23d359b8b5051e786d56625fff82a96ae480cdf4047fae24f50f21ae06d6c41bc333b95855e5fe988db682bfdfa2894ac4a0edd4245f8e04d52f018e26f6e43be313997875c5deb8ad96a29fbfc2e92aa4c08db4443fee64b54f61ee4696845b8373f91815a5bed8cdf6c2ff9fe2c90a84e0ad94641fce44956f41ce66b6a47ba353d93835859ef8edd6e2df7f0229ea64004d7484ff2ea4758fa12e8656449b43b339d8d5657e180d36023f5f2209ca44206d54a4df0e8455af810ea67664bb639319f8f5455e382d16221f3f4269aa24400d34c4bf6ee435cfe16ec61604db03f3799895253e584d76427f1f62498a04602d14e49f4ec415efc14ee63624fb23d359b8b5051e786d56625fff82a96ae480cdf4047fae24f50f21ae06d6c41bc333b95855e5fe988db682bfdfa2894ac4a0edd4245f8e04d52f018e26f6e43be313997875c5deb8ad96a29fbfc2e92aa4c08db4443fee64b54f61ee4696845b8373f91815a5bed8cdf6c2ff9fe2c90a84e0ad94641fce44956f41ce66b6a47ba353d93835859ef8edd6e2df7f0229ea64004d7484ff2ea4758fa12e8656449b43b339d8d5657e180d36023f5f2209ca44206d54a4df0e8455af810ea67664bb639319f8f5455e382d16221f3f4269aa24400d34c4bf6ee435cfe16ec61604db03f3799895253e584d76427f1f62498a04602d14e49f4ec415efc14ee63624fb23d359b8b5051e786d56625fff82a96ae480cdf4047fae24f50f21ae06d6c41bc333b95855e5fe988db682bfdfa2894ac4a0edd4245f8e04d52f018e26f6e43be313997875c5deb8ad96a29fbfc2e92aa4c08db4443fee64b54f61ee4696845b8373f91815a5bed8cdf6c2ff9fe2c90a84e0ad94641fce44956f41ce66b6a47ba353d93835859ef8edd6e2df7f0229ea64004d7484ff2ea4758fa12e8656449b43b339d8d5657e180d36023f5f2209ca44206d54a4df0e8455af810ea67664bb639319f8f5455e382d16221f3f4269aa24400d34c4bf6ee435cfe16ec61604db03f3799895253e584d76427f1f62498a04602d14e49f4ec415efc14ee63624fb23d359b8b5051e786d56625fff82a96ae480cdf4047fae24f50f21ae06d6c41bc333b95855e5fe988db682bfdfa2894ac4a0edd4245f8e04d52f018e26f6e43be313997875c5deb8ad96a29fbfc2e92aa4c08db4443fee64b54f61ee4696845b8373f91815a5bed8cdf6c2ff9fe2c90a84e0ad94641fce44956f41ce66b6a47ba353d93835859ef8edd6e2df7f0229ea64004d7484ff2ea4758fa12e57c54676c5ca5cc59a9fbd1de6f459837e2a150575eaf1812fadce033516422b",
        "hex": "6a20f18662d6e0d1ff17ccab3e4f715676508e92f5cdd2f2e052f406d9189eb45c3e4db004ff82a96ae480cdf4047fae24f50f21ae06d6c41bc333b95855e5fe988db682bfdfa2894ac4a0edd4245f8e04d52f018e26f6e43be313997875c5deb8ad96a29fbfc2e92aa4c08db4443fee64b54f61ee4696845b8373f91815a5bed8cdf6c2ff9fe2c90a84e0ad94641fce44956f41ce66b6a47ba353d93835859ef8edd6e2df7f0229ea64004d7484ff2ea4758fa12e8656449b43b339d8d5657e180d36023f5f2209ca44206d54a4df0e8455af810ea67664bb639319f8f5455e382d16221f3f4269aa24400d34c4bf6ee435cfe16ec61604db03f3799895253e584d76427f1f62498a04602d14e49f4ec415efc14ee63624fb23d359b8b5051e786d56625fff82a96ae480cdf4047fae24f50f21ae06d6c41bc333b95855e5fe988db682bfdfa2894ac4a0edd4245f8e04d52f018e26f6e43be313997875c5deb8ad96a29fbfc2e92aa4c08db4443fee64b54f61ee4696845b8373f91815a5bed8cdf6c2ff9fe2c90a84e0ad94641fce44956f41ce66b6a47ba353d93835859ef8edd6e2df7f0229ea64004d7484ff2ea4758fa12e8656449b43b339d8d5657e180d36023f5f2209ca44206d54a4df0e8455af810ea67664bb639319f8f5455e382d16221f3f4269aa24400d34c4bf6ee435cfe16ec61604db03f3799895253e584d76427f1f62498a04602d14e49f4ec415efc14ee63624fb23d359b8b5051e786d56625fff82a96ae480cdf4047fae24f50f21ae06d6c41bc333b95855e5fe988db682bfdfa2894ac4a0edd4245f8e04d52f018e26f6e43be313997875c5deb8ad96a29fbfc2e92aa4c08db4443fee64b54f61ee4696845b8373f91815a5bed8cdf6c2ff9fe2c90a84e0ad94641fce44956f41ce66b6a47ba353d93835859ef8edd6e2df7f0229ea64004d7484ff2ea4758fa12e8656449b43b339d8d5657e180d36023f5f2209ca44206d54a4df0e8455af810ea67664bb639319f8f5455e382d16221f3f4269aa24400d34c4bf6ee435cfe16ec61604db03f3799895253e584d76427f1f62498a04602d14e49f4ec415efc14ee63624fb23d359b8b5051e786d56625fff82a96ae480cdf4047fae24f50f21ae06d6c41bc333b95855e5fe988db682bfdfa2894ac4a0edd4245f8e04d52f018e26f6e43be313997875c5deb8ad96a29fbfc2e92aa4c08db4443fee64b54f61ee4696845b8373f91815a5bed8cdf6c2ff9fe2c90a84e0ad94641fce44956f41ce66b6a47ba353d93835859ef8edd6e2df7f0229ea64004d7484ff2ea4758fa12e8656449b43b339d8d5657e180d36023f5f2209ca44206d54a4df0e8455af810ea67664bb639319f8f5455e382d16221f3f4269aa24400d34c4bf6ee435cfe16ec61604db03f3799895253e584d76427f1f62498a04602d14e49f4ec415efc14ee63624fb23d359b8b5051e786d56625fff82a96ae480cdf4047fae24f50f21ae06d6c41bc333b95855e5fe988db682bfdfa2894ac4a0edd4245f8e04d52f018e26f6e43be313997875c5deb8ad96a29fbfc2e92aa4c08db4443fee64b54f61ee4696845b8373f91815a5bed8cdf6c2ff9fe2c90a84e0ad94641fce44956f41ce66b6a47ba353d93835859ef8edd6e2df7f0229ea64004d7484ff2ea4758fa12e57c54676c5ca5cc59a9fbd1de6f459837e2a150575eaf1812fadce033516422b",
        "type": "nulldata"
      }
    }
  ],
  "blockhash": "74cd48d8c624c37e1fac27c00c19e94c48df61d3ca85b84b56360e4f6170fa6f",
  "confirmations": 1,
  "time": 1764182926,
  "blocktime": 1764182926
}