{
  "hex": "010000000001013048cd64fd68851a70a65d06588ba3ec32ce00544db0ce10f3f24a2e42f6c5c50000000000feffffff0200ce47c6782d000022512044155d13db0b036e44f798df15e494b9b546fb1f002795fff59de3974a3237a200e1f50500000000fdd5046a2035d81dcce8b26aa5b69df70aad51638b34ea05248801c00fa640a3aade566f9d4db004a24eeed6b488ebca2110c5fb023553e267cdb8c2257810b6b93987172974da00826ecef694a8cbea0130e5db221573c247ed98e2055830969919a7370954fa20e20eae96f4c8ab8a615085bb427513a2278df882653850f6f979c75769349a40c22e8eb6d4e88baa4170a59b6255338207add8a2451870d6d959e7774914ba6022ce6e5634086b4aa190457b82b5d362e74d3842a5f8903639b90797a9f45a8002ee4e7614284b6a81b0655ba295f342c76d186285d8b016199927b789d47aa0628e2e1674482b0ae1d0053bc2f59322a70d7802e5b8d07679f947d7e9b41ac042ae0e3654680b2ac1f0251be2d5b302872d5822c598f05659d967f7c9943ae0a24eeed6b488ebca2110c5fb023553e267cdb8c2257810b6b93987172974da00826ecef694a8cbea0130e5db221573c247ed98e2055830969919a7370954fa20e20eae96f4c8ab8a615085bb427513a2278df882653850f6f979c75769349a40c22e8eb6d4e88baa4170a59b6255338207add8a2451870d6d959e7774914ba6022ce6e5634086b4aa190457b82b5d362e74d3842a5f8903639b90797a9f45a8002ee4e7614284b6a81b0655ba295f342c76d186285d8b016199927b789d47aa0628e2e1674482b0ae1d0053bc2f59322a70d7802e5b8d07679f947d7e9b41ac042ae0e3654680b2ac1f0251be2d5b302872d5822c598f05659d967f7c9943ae0a24eeed6b488ebca2110c5fb023553e267cdb8c2257810b6b93987172974da00826ecef694a8cbea0130e5db221573c247ed98e2055830969919a7370954fa20e20eae96f4c8ab8a615085bb427513a2278df882653850f6f979c75769349a40c22e8eb6d4e88baa4170a59b6255338207add8a2451870d6d959e7774914ba6022ce6e5634086b4aa190457b82b5d362e74d3842a5f8903639b90797a9f45a8002ee4e7614284b6a81b0655ba295f342c76d186285d8b016199927b789d47aa0628e2e1674482b0ae1d0053bc2f59322a70d7802e5b8d07679f947d7e9b41ac042ae0e3654680b2ac1f0251be2d5b302872d5822c598f05659d967f7c9943ae0a24eeed6b488ebca2110c5fb023553e267cdb8c2257810b6b93987172974da00826ecef694a8cbea0130e5db221573c247ed98e2055830969919a7370954fa20e20eae96f4c8ab8a615085bb427513a2278df882653850f6f979c75769349a40c22e8eb6d4e88baa4170a59b6255338207add8a2451870d6d959e7774914ba6022ce6e5634086b4aa190457b82b5d362e74d3842a5f8903639b90797a9f45a8002ee4e7614284b6a81b0655ba295f342c76d186285d8b016199927b789d47aa0628e2e1674482b0ae1d0053bc2f59322a70d7802e5b8d07679f947d7e9b41ac042ae0e3654680b2ac1f0251be2d5b302872d5822c598f05659d967f7c9943ae0a24eeed6b488ebca2110c5fb023553e267cdb8c2257810b6b93987172974da00826ecef694a8cbea0130e5db221573c247ed98e2055830969919a7370954fa20e20eae96f4c8ab8a615085bb427513a2278df882653850f6f979c75769349a40c22e8eb6d4e88baa4170a59b6255338207add8a2451870d6d959e7774914ba6022ce6e5634086b4aa190457b82b5d36216f1e595bcfd3be5517b089acacd63215a50e53d8fffef95613adde6edaf809602fd7509c69ed0e99b1c7c4e3a13513a649c03f200c959e71d28e8bc4bcb29622c023dd6ad496ca11f410942ef478b2eb1ed1a3b2ebc7a840e08269b051026a1e23cabdd1871b1c8f841895f2855c737c6953c49cb995c5b6c8fc8ea2532b62e581a6dcec6e40ab6245952a8ababa83e685ad2df137b728439431b8e83f3dc5110fd47d435f312b0d5b647bf02d54dbbb065d8c40e81ef9f5ad6b6038a5c78533d755448e4a08658e7241dafb25ba6e7fe3a8286f7552913ce448392218f8919d85ec824147c2d16eedd3d8cdb0aa822d1f7d7515d6001d7bf02e8c795873f8c2ef5751785f977130f1feae384cb1377cf3f27fee92ba37797b37b502afbb744000070402cd64e6e6655b33df2c00070c89f356115c0e144ba638f44431180b9ec55bb8115034fdde07d054c651eb85b409fcdc50578a99ede7541a919d84e74d94a6cc53208c84745f2ab3d5a2f4209ff23c97d92eb29303ec2d9760546c1cab2e740768a18f3eb2c84c521d16e03b42816f623159b42ef780305e67c2b649e6f26df9aed9e97180d8640ff11f4db946c4e52b0e9071ab5143cad91305c7e5dbd304320153e807a141a3c438ec786febf2e38c1c360006ee668e7c5d20a01aa7fddf42cb64465b2ba0d27781d8c9a8cb00272640c114b31971de5b18ed2b957bc0ba23b10f29671fc8e738ff12a4e58220633ed8a725dffcc0a24c509cdf34eb01cea9bc65654792f0aa3603e1b6ce519c4f9cd4afbc610987027621395ab67e72531805443a28bff5c2073a3142c66db8416fb1c428b3cc00e232513def036adaafb27aedf8d3fd4ffe0e98a0c7cd9eeb83fb032070ba6af8518f965680a4e9166f4bb00aa8c3b44b00726c36e7bef1e7caebe6d4ffb2b0f246fc36e6981da3cb6230598263d41456aafe6c00f78d7b968778938fe1b9450754aba062c8ce2540ca8b95c4de479e0d420aab4fc0910afc5e0da9403a1a9d1ec43bae76d95951e941f978f838e055769d56e4eb428108328dadf7f6941a3e4f75823dc7d30a6f62abf2c0a2abd850c8961983b97ecccc962ee4e84a22b308932ce130db39cafe2a7911ac02e4c473940df2c5ba51aa783d0af5f8e4927f5cc279a39f5c4624cd50ee842f206df35ab29a4af87eb21708491e2d1a205fdf286d95e76415f5eb74f98a2aa53dd43f154a1a7f46c46fab449ca7b1ecf8206d73d7ea1d9df832a499220d542baa59b8c5cfd71757684ee4663ff8d7226fca4c49a08d8f5831794d7f5e04f7c77e839721d23172650e58d4a1a4ccf10abb654b74fcb676bb68e9e0a3ef2122dde60b6046435bfc56533cef554dacf23136f769cad57c84feea01bcd007e1febd5c6ff9c0632240d8a192b6ab0e43ed194005a4ac25eda88a15daa73598f9c2a7570c7793d8c1002de5cd891cc4ac437cd66b63388cef610cbad65b001b0379b98cd9a3b448a36fe93bd8897b62f4934864b6d78504b468bdcd7580b1a54d8fc43909fbf4c522a15410aa3406456bc60caaf9d27079ea7a0eee8922d3718344eb48eb9f37ae459447fda3f954ced6c75c23a0e348c920633fe042c5473da11c243b442c778d577f040b62d71ac3eb9bd3e1f6a3843c16e23722dc946d4746b7eca7519741f4e80c627a5502a37ece96bac51a439c5b3120498f04e7a21d1221efe9ee83efb295aa546638b8235404edb698007b36af57b95c9ffcbc201db6fdb977440e12c98fd7e1240b4c638c917e586ca77c815e28896c29db432c1ca4a800f0257c1f0a1b116c178c04af80767a432a76ed987dfa05e2f22d37234ac22fca4a101a6ba2da530d155f9a4e1e5e8f93fa806697b6f85bda9c4425f29d52ac3522502d266c6f6871fdd528bd6a0bbd83fbc6be3e847974b196750e924682f63e6c8ca40f1320551189aef2c97ac9044a659edcd14daa601e050bfdffac26c7b969568fc7345629903e0942a4c4cd83fdba89b74f890dcb5619d186e8c4615130f7ae028f4ab417475da38cb89d6c84bab56068723b55f6b623e725fd9922e6a1b23b58fa935bd8ccbc8b72664d0857b963bdc3c994b2b93ea9c6ed83f0a650e1231f28c5b473b14ddfdcd698c20adf88e153231d551a6bc6880cc5553e2d5b9b85c7c2396224ceb84d7466a1211b87bef851705ddac8e499c754e75b86f2fe105cb1b86de158484e0ea74629aa5976f6d2fb9cc7918247e8b411d689b2ba1d4957cc151da10fafac30c9a721e05edc5048e9292acf76c3872de1c3cbe56ecef29242d9c747bfcd6b0a668015773404ffa9f6bfb0d1da6568ec20f023549f01c46c39bdf898ec31008b9aecd433fa60b346e37ae9fadd0ec495567476d6cedee620a9ab9e31c56f0c88c9c50c749fb939c3d6ee05bf84a4b5c00a4245ef72f257f50f16cb6cc4ab5a9c524397c3ce2544f1e6d88bbd3b6061b4817f15dce2d568f1ba4680c55cfc3dc0fbca4258d2e97f9fe2bb95f8ab2789834c16debbab27db4085625025b9cdb009d5a07d026b3749009b2ffb2abd4fce615ada11e4bd994b9165b50a2daeef29aae90c086a8a975dbabc7a5ff45eaa4a52b89e330a0edd20ac829207d053d1c3e24122eb55b80afe606fb8d6c37cf0c7e171413fa36f566446f9b6d02b093eb2b543b0ab45b5d4ff57ca7a64752ddc7846e91a786f9b1d6dc508519c2c65dd227580611f441c7fa72acbc31931cabc293d842754b038b7e1078e6abe6603fef79b2e3f602fe2ae8b794f543826a356d8e4ac560a46b0e7c9d34d59cd5c7579249566a550e119e01dbfe64fdbc92e59e91e3816b143a2ddea6513568e9b59e9667f27f0a21b3d7176384102a853584420e0f1b3e751142008a2d2373caff1bc33e06fb751b163220c30affbfbbd3b02ac445f6000e14bfac4b89bf046f57ef77439b8ced8fdb135014615ec95643deb6dd616ec8d4d1e4c23805fcc45cc764abe583ad92e927cd37aa21731db282d2426f7955bdc9e517008d096a8362897e36d56c48f602acc9dd9dd9adc595c35874b22fb72fdb95ac5d85686f595964734e42d2dfcdce06235dd48e66bc193d464e5165f47ad2a40261d3bbff8867b0c39992c8018f00362111cb09a5b2d2f0b0a6132b51e3fa34ff67921fd76aa7d7f24709415608675b647a2bde3b1b1d1577b7a4390e46fb0f2a0738c393b46538db87f574dd7a5daf34dc0d38fb276fec62bc2ea39889806c5a24d601f887f14ca8762662ecff25a97ed6784e986ae2f07cd571bc2f687bb8ca23078a47e9a6e326828bb4224f934e4fc3e432a40f2dd4e849d62452d61a73768104092c374453597f8c9fa3abb1c7d6f6f70a0b0e1316272d46525d657b7f92a6a9abaee1070a1c353b3e56667398a4a7b8060d12272a3648627882a3b1d2fafd000000000000000000000000000000001124314001fd210500db1c69f6fb80cb195860fee56e6477a5ad5f031aceb8b1cf63d1d6360b02955e096f63bc6c1903d943c369afb9ef5e84e379e71dff08a149d6d7bcdc78e6e585c6889a56711c300f9b05ebc0f42003caa1d611a8355f925be7c9e23b00c5bf82483eae5f9991d4bdb8194a9b913117fef344e06e7680826201ab0560aa463bb6d669eebd1c60b1150d5efb75525e2410cf6163a1967bf40c7b831bc6be01b8435895565f2dcef5beeed91e6ae4f86b59dc20a88b36b4ae5be85e7ddc79de744d9db084198065ac522c6466bdb33dbf0af29ffb692ca63c79c76f9bc5ee8994d7c4f260f06622b64f815c05f39455275db8c6a97e889b6fb96e5f18e2391696ecfc119031d0d589917855576a23383821960ef9ed8ee12817500a17a16e28c4da882e677acc8f4cc8834dd23dbdbf71ecf9da7e179cb2062e80b51723dee9bb306fb66fa7533c0d9b6b451d136a6dcadc7a7f53f29de480714ab0427931af4af6ed12e81ecbceeda6f00dc37552b4978bb1172e5b9ba5daeeaaf91d663319e74feeba1d421c250192464f2baaaef59ce8db6770893722cb5da4ab5dcbafc9c1594fc2d5092c70b8aedfc315b3b841d962373ee58cf00e6f907ce567f7c9618e3dfa33a5a2cfa281db5676f3c094064fce08c3da19a8230d47f325fe8b4f3801782e948c59296b6d96847f26f0f46e94a99efbcf58b9941581288b82f380fd924d852182abdd2ca2aa6a7b98f14e2498f7d68e18e4a842a7053f9b2d0b5721f5f6ef83ddd0714bf6786d6a7f17db2978a4ac5ba2b66c817a6f3685923142ca1d1a7c67150493d3af0d5a4b7aeebbc9dfe317a33770fefff12631844e646a832acb3e0f974a5bfec79069af9d7a7c2fe4f35538ebc5b4c55fff8acfc0865170e935e1cec847c29dc7e6559cb5a4444df38cf3efe8499d08d5dafe76f1e18414ac7cc1229e2313d017a118b14f6143a447760a47dc9eb2b44b0f520b88f90ae98e032318a50c5500ecbbf5c699726be511da259a4a28babe7ae811a74f6da4b08b5431de91d72fc717add00144b436815e40b5d4feccb553902f348c25b5c28891fcbcee0c2e3272d44f3e77308770250f2796d7fcda0410d401aca0df1b8c65ddeb39f60772e6f33b899a9ddc27486f6a169104c506288bb6c08046cc930426ed9972502f2696aee1bb06c33d725ff66dd5a6f26f9e3deba0d74a06ce51dacf54e09e84d25e1e3ff86d31552449e44637e01d97cbd5df4c905181d87754551e70c54356484d0c25a9384083bd2c16e61ad45facfefe27795566d388bac2f028864e99d32619da5996837f4600292b992d2b5f5246c30092a320d61459e0ee7a5ff4cbe13cb4e4d58f801d42a2038f6bf690a3220e658cf487ca7d81047fd247f4952d209402498adee8ce0d7699bd1e3923d68561aad3118f9ef934f7f9fcdc7dc931eed474ee9ae87849eba3c9d2704f047f53788f7c60171c351761b62cbd361d2a51799abc1e0bd9d162b8ff967ae7b06ba5a1edfddaacfdaf4e6c2c38ffa38d83c1c695c8b767a83898db9b2e3722028a1fa2c0568915257e4b6ac515d66f3fecc7c3414a10aa1a242652d2912c41fd3610efade8d0d06f5d9c90daba0fbeb1f937331ae4b8cc79edd1092e3e3cb3a6fe9952cc2e1465a40259ccd305c24c871f25ddf2237e07db2cc7884b889852cccb1e9e29f453edf454cd9c1eb1a2943faafeee73b5cbbe58fd2481feab1a150c05b00742bf64be61b400fc0dff94fa6bc9ec50ffdbeeef8c1a7e89403fa2a15e5c1ae222def738d8d9c9149526fbc4d8c84307259d6e2bd5f3d3edd1ea573e6a7c343451b49326bc758dfc75a1ab93bd8a000000",
  "txid": "fd9ff926326173ec8948d4cd9deae3d027e0be55ccfdd4ec588d9bea36034389",
  "hash": "9c7203a1eef5fb6e13ebedf0bc4fc5bb8302700e520d20dc257c4cdaf2ae946a",
  "size": 5085,
  "vsize": 2278,
  "version": 1,
  "locktime": 138,
  "vin": [
    {
      "txid": "c5c5f6422e4af2f310ceb04d5400ce32eca38b58065da6701a8568fd64cd4830",
      "vout": 0,
      "scriptSig": {
        "asm": "",
        "hex": ""
      },
      "txinwitness": [
        "c69ed0e99b1c7c4e3a13513a649c03f200c959e71d28e8bc4bcb29622c023dd6ad496ca11f410942ef478b2eb1ed1a3b2ebc7a840e08269b051026a1e23cabdd1871b1c8f841895f2855c737c6953c49cb995c5b6c8fc8ea2532b62e581a6dcec6e40ab6245952a8ababa83e685ad2df137b728439431b8e83f3dc5110fd47d435f312b0d5b647bf02d54dbbb065d8c40e81ef9f5ad6b6038a5c78533d755448e4a08658e7241dafb25ba6e7fe3a8286f7552913ce448392218f8919d85ec824147c2d16eedd3d8cdb0aa822d1f7d7515d6001d7bf02e8c795873f8c2ef5751785f977130f1feae384cb1377cf3f27fee92ba37797b37b502afbb744000070402cd64e6e6655b33df2c00070c89f356115c0e144ba638f44431180b9ec55bb8115034fdde07d054c651eb85b409fcdc50578a99ede7541a919d84e74d94a6cc53208c84745f2ab3d5a2f4209ff23c97d92eb29303ec2d9760546c1cab2e740768a18f3eb2c84c521d16e03b42816f623159b42ef780305e67c2b649e6f26df9aed9e97180d8640ff11f4db946c4e52b0e9071ab5143cad91305c7e5dbd304320153e807a141a3c438ec786febf2e38c1c360006ee668e7c5d20a01aa7fddf42cb64465b2ba0d27781d8c9a8cb00272640c114b31971de5b18ed2b957bc0ba23b10f29671fc8e738ff12a4e58220633ed8a725dffcc0a24c509cdf34eb01cea9bc65654792f0aa3603e1b6ce519c4f9cd4afbc610987027621395ab67e72531805443a28bff5c2073a3142c66db8416fb1c428b3cc00e232513def036adaafb27aedf8d3fd4ffe0e98a0c7cd9eeb83fb032070ba6af8518f965680a4e9166f4bb00aa8c3b44b00726c36e7bef1e7caebe6d4ffb2b0f246fc36e6981da3cb6230598263d41456aafe6c00f78d7b968778938fe1b9450754aba062c8ce2540ca8b95c4de479e0d420aab4fc0910afc5e0da9403a1a9d1ec43bae76d95951e941f978f838e055769d56e4eb428108328dadf7f6941a3e4f75823dc7d30a6f62abf2c0a2abd850c8961983b97ecccc962ee4e84a22b308932ce130db39cafe2a7911ac02e4c473940df2c5ba51aa783d0af5f8e4927f5cc279a39f5c4624cd50ee842f206df35ab29a4af87eb21708491e2d1a205fdf286d95e76415f5eb74f98a2aa53dd43f154a1a7f46c46fab449ca7b1ecf8206d73d7ea1d9df832a499220d542baa59b8c5cfd71757684ee4663ff8d7226fca4c49a08d8f5831794d7f5e04f7c77e839721d23172650e58d4a1a4ccf10abb654b74fcb676bb68e9e0a3ef2122dde60b6046435bfc56533cef554dacf23136f769cad57c84feea01bcd007e1febd5c6ff9c0632240d8a192b6ab0e43ed194005a4ac25eda88a15daa73598f9c2a7570c7793d8c1002de5cd891cc4ac437cd66b63388cef610cbad65b001b0379b98cd9a3b448a36fe93bd8897b62f4934864b6d78504b468bdcd7580b1a54d8fc43909fbf4c522a15410aa3406456bc60caaf9d27079ea7a0eee8922d3718344eb48eb9f37ae459447fda3f954ced6c75c23a0e348c920633fe042c5473da11c243b442c778d577f040b62d71ac3eb9bd3e1f6a3843c16e23722dc946d4746b7eca7519741f4e80c627a5502a37ece96bac51a439c5b3120498f04e7a21d1221efe9ee83efb295aa546638b8235404edb698007b36af57b95c9ffcbc201db6fdb977440e12c98fd7e1240b4c638c917e586ca77c815e28896c29db432c1ca4a800f0257c1f0a1b116c178c04af80767a432a76ed987dfa05e2f22d37234ac22fca4a101a6ba2da530d155f9a4e1e5e8f93fa806697b6f85bda9c4425f29d52ac3522502d266c6f6871fdd528bd6a0bbd83fbc6be3e847974b196750e924682f63e6c8ca40f1320551189aef2c97ac9044a659edcd14daa601e050bfdffac26c7b969568fc7345629903e0942a4c4cd83fdba89b74f890dcb5619d186e8c4615130f7ae028f4ab417475da38cb89d6c84bab56068723b55f6b623e725fd9922e6a1b23b58fa935bd8ccbc8b72664d0857b963bdc3c994b2b93ea9c6ed83f0a650e1231f28c5b473b14ddfdcd698c20adf88e153231d551a6bc6880cc5553e2d5b9b85c7c2396224ceb84d7466a1211b87bef851705ddac8e499c754e75b86f2fe105cb1b86de158484e0ea74629aa5976f6d2fb9cc7918247e8b411d689b2ba1d4957cc151da10fafac30c9a721e05edc5048e9292acf76c3872de1c3cbe56ecef29242d9c747bfcd6b0a668015773404ffa9f6bfb0d1da6568ec20f023549f01c46c39bdf898ec31008b9aecd433fa60b346e37ae9fadd0ec495567476d6cedee620a9ab9e31c56f0c88c9c50c749fb939c3d6ee05bf84a4b5c00a4245ef72f257f50f16cb6cc4ab5a9c524397c3ce2544f1e6d88bbd3b6061b4817f15dce2d568f1ba4680c55cfc3dc0fbca4258d2e97f9fe2bb95f8ab2789834c16debbab27db4085625025b9cdb009d5a07d026b3749009b2ffb2abd4fce615ada11e4bd994b9165b50a2daeef29aae90c086a8a975dbabc7a5ff45eaa4a52b89e330a0edd20ac829207d053d1c3e24122eb55b80afe606fb8d6c37cf0c7e171413fa36f566446f9b6d02b093eb2b543b0ab45b5d4ff57ca7a64752ddc7846e91a786f9b1d6dc508519c2c65dd227580611f441c7fa72acbc31931cabc293d842754b038b7e1078e6abe6603fef79b2e3f602fe2ae8b794f543826a356d8e4ac560a46b0e7c9d34d59cd5c7579249566a550e119e01dbfe64fdbc92e59e91e3816b143a2ddea6513568e9b59e9667f27f0a21b3d7176384102a853584420e0f1b3e751142008a2d2373caff1bc33e06fb751b163220c30affbfbbd3b02ac445f6000e14bfac4b89bf046f57ef77439b8ced8fdb135014615ec95643deb6dd616ec8d4d1e4c23805fcc45cc764abe583ad92e927cd37aa21731db282d2426f7955bdc9e517008d096a8362897e36d56c48f602acc9dd9dd9adc595c35874b22fb72fdb95ac5d85686f595964734e42d2dfcdce06235dd48e66bc193d464e5165f47ad2a40261d3bbff8867b0c39992c8018f00362111cb09a5b2d2f0b0a6132b51e3fa34ff67921fd76aa7d7f24709415608675b647a2bde3b1b1d1577b7a4390e46fb0f2a0738c393b46538db87f574dd7a5daf34dc0d38fb276fec62bc2ea39889806c5a24d601f887f14ca8762662ecff25a97ed6784e986ae2f07cd571bc2f687bb8ca23078a47e9a6e326828bb4224f934e4fc3e432a40f2dd4e849d62452d61a73768104092c374453597f8c9fa3abb1c7d6f6f70a0b0e1316272d46525d657b7f92a6a9abaee1070a1c353b3e56667398a4a7b8060d12272a3648627882a3b1d2fafd000000000000000000000000000000001124314001",
        "00db1c69f6fb80cb195860fee56e6477a5ad5f031aceb8b1cf63d1d6360b02955e096f63bc6c1903d943c369afb9ef5e84e379e71dff08a149d6d7bcdc78e6e585c6889a56711c300f9b05ebc0f42003caa1d611a8355f925be7c9e23b00c5bf82483eae5f9991d4bdb8194a9b913117fef344e06e7680826201ab0560aa463bb6d669eebd1c60b1150d5efb75525e2410cf6163a1967bf40c7b831bc6be01b8435895565f2dcef5beeed91e6ae4f86b59dc20a88b36b4ae5be85e7ddc79de744d9db084198065ac522c6466bdb33dbf0af29ffb692ca63c79c76f9bc5ee8994d7c4f260f06622b64f815c05f39455275db8c6a97e889b6fb96e5f18e2391696ecfc119031d0d589917855576a23383821960ef9ed8ee12817500a17a16e28c4da882e677acc8f4cc8834dd23dbdbf71ecf9da7e179cb2062e80b51723dee9bb306fb66fa7533c0d9b6b451d136a6dcadc7a7f53f29de480714ab0427931af4af6ed12e81ecbceeda6f00dc37552b4978bb1172e5b9ba5daeeaaf91d663319e74feeba1d421c250192464f2baaaef59ce8db6770893722cb5da4ab5dcbafc9c1594fc2d5092c70b8aedfc315b3b841d962373ee58cf00e6f907ce567f7c9618e3dfa33a5a2cfa281db5676f3c094064fce08c3da19a8230d47f325fe8b4f3801782e948c59296b6d96847f26f0f46e94a99efbcf58b9941581288b82f380fd924d852182abdd2ca2aa6a7b98f14e2498f7d68e18e4a842a7053f9b2d0b5721f5f6ef83ddd0714bf6786d6a7f17db2978a4ac5ba2b66c817a6f3685923142ca1d1a7c67150493d3af0d5a4b7aeebbc9dfe317a33770fefff12631844e646a832acb3e0f974a5bfec79069af9d7a7c2fe4f35538ebc5b4c55fff8acfc0865170e935e1cec847c29dc7e6559cb5a4444df38cf3efe8499d08d5dafe76f1e18414ac7cc1229e2313d017a118b14f6143a447760a47dc9eb2b44b0f520b88f90ae98e032318a50c5500ecbbf5c699726be511da259a4a28babe7ae811a74f6da4b08b5431de91d72fc717add00144b436815e40b5d4feccb553902f348c25b5c28891fcbcee0c2e3272d44f3e77308770250f2796d7fcda0410d401aca0df1b8c65ddeb39f60772e6f33b899a9ddc27486f6a169104c506288bb6c08046cc930426ed9972502f2696aee1bb06c33d725ff66dd5a6f26f9e3deba0d74a06ce51dacf54e09e84d25e1e3ff86d31552449e44637e01d97cbd5df4c905181d87754551e70c54356484d0c25a9384083bd2c16e61ad45facfefe27795566d388bac2f028864e99d32619da5996837f4600292b992d2b5f5246c30092a320d61459e0ee7a5ff4cbe13cb4e4d58f801d42a2038f6bf690a3220e658cf487ca7d81047fd247f4952d209402498adee8ce0d7699bd1e3923d68561aad3118f9ef934f7f9fcdc7dc931eed474ee9ae87849eba3c9d2704f047f53788f7c60171c351761b62cbd361d2a51799abc1e0bd9d162b8ff967ae7b06ba5a1edfddaacfdaf4e6c2c38ffa38d83c1c695c8b767a83898db9b2e3722028a1fa2c0568915257e4b6ac515d66f3fecc7c3414a10aa1a242652d2912c41fd3610efade8d0d06f5d9c90daba0fbeb1f937331ae4b8cc79edd1092e3e3cb3a6fe9952cc2e1465a40259ccd305c24c871f25ddf2237e07db2cc7884b889852cccb1e9e29f453edf454cd9c1eb1a2943faafeee73b5cbbe58fd2481feab1a150c05b00742bf64be61b400fc0dff94fa6bc9ec50ffdbeeef8c1a7e89403fa2a15e5c1ae222def738d8d9c9149526fbc4d8c84307259d6e2bd5f3d3edd1ea573e6a7c343451b49326bc758dfc75a1ab93bd"
      ],
      "sequence": 4294967294
    }
  ],
  "vout": [
    {
      "value": 499967.4592,
      "n": 0,
      "scriptPubKey": {
        "asm": "1 44155d13db0b036e44f798df15e494b9b546fb1f002795fff59de3974a3237a2",
        "hex": "512044155d13db0b036e44f798df15e494b9b546fb1f002795fff59de3974a3237a2",
        "reqSigs": 1,
        "type": "witness_v1_scripthash",
        "addresses": [
          "3QJmnh"
        ]
      }
    },
    {
      "value": 1.0,
      "n": 1,
      "scriptPubKey": {
        "asm": "OP_RETURN 35d81dcce8b26aa5b69df70aad51638b34ea05248801c00fa640a3aade566f9d a24eeed6b488ebca2110c5fb023553e267cdb8c2257810b6b93987172974da00826ecef694a8cbea0130e5db221573c247ed98e2055830969919a7370954fa20e20eae96f4c8ab8a615085bb427513a2278df882653850f6f979c75769349a40c22e8eb6d4e88baa4170a59b6255338207add8a2451870d6d959e7774914ba6022ce6e5634086b4aa190457b82b5d362e74d3842a5f8903639b90797a9f45a8002ee4e7614284b6a81b0655ba295f342c76d186285d8b016199927b789d47aa0628e2e1674482b0ae1d0053bc2f59322a70d7802e5b8d07679f947d7e9b41ac042ae0e3654680b2ac1f0251be2d5b302872d5822c598f05659d967f7c9943ae0a24eeed6b488ebca2110c5fb023553e267cdb8c2257810b6b93987172974da00826ecef694a8cbea0130e5db221573c247ed98e2055830969919a7370954fa20e20eae96f4c8ab8a615085bb427513a2278df882653850f6f979c75769349a40c22e8eb6d4e88baa4170a59b6255338207add8a2451870d6d959e7774914ba6022ce6e5634086b4aa190457b82b5d362e74d3842a5f8903639b90797a9f45a8002ee4e7614284b6a81b0655ba295f342c76d186285d8b016199927b789d47aa0628e2e1674482b0ae1d0053bc2f59322a70d7802e5b8d07679f947d7e9b41ac042ae0e3654680b2ac1f0251be2d5b302872d5822c598f05659d967f7c9943ae0a24eeed6b488ebca2110c5fb023553e267cdb8c2257810b6b93987172974da00826ecef694a8cbea0130e5db221573c247ed98e2055830969919a7370954fa20e20eae96f4c8ab8a615085bb427513a2278df882653850f6f979c75769349a40c22e8eb6d4e88baa4170a59b6255338207add8a2451870d6d959e7774914ba6022ce6e5634086b4aa190457b82b5d362e74d3842a5f8903639b90797a9f45a8002ee4e7614284b6a81b0655ba295f342c76d186285d8b016199927b789d47aa0628e2e1674482b0ae1d0053bc2f59322a70d7802e5b8d07679f947d7e9b41ac042ae0e3654680b2ac1f0251be2d5b302872d5822c598f05659d967f7c9943ae0a24eeed6b488ebca2110c5fb023553e267cdb8c2257810b6b93987172974da00826ecef694a8cbea0130e5db221573c247ed98e2055830969919a7370954fa20e20eae96f4c8ab8a615085bb427513a2278df882653850f6f979c75769349a40c22e8eb6d4e88baa4170a59b6255338207add8a2451870d6d959e7774914ba6022ce6e5634086b4aa190457b82b5d362e74d3842a5f8903639b90797a9f45a8002ee4e7614284b6a81b0655ba295f342c76d186285d8b016199927b789d47aa0628e2e1674482b0ae1d0053bc2f59322a70d7802e5b8d07679f947d7e9b41ac042ae0e3654680b2ac1f0251be2d5b302872d5822c598f05659d967f7c9943ae0a24eeed6b488ebca2110c5fb023553e267cdb8c2257810b6b93987172974da00826ecef694a8cbea0130e5db221573c247ed98e2055830969919a7370954fa20e20eae96f4c8ab8a615085bb427513a2278df882653850f6f979c75769349a40c22e8eb6d4e88baa4170a59b6255338207add8a2451870d6d959e7774914ba6022ce6e5634086b4aa190457b82b5d36216f1e595bcfd3be5517b089acacd63215a50e53d8fffef95613adde6edaf8096",
        "hex": "6a2035d81dcce8b26aa5b69df70aad51638b34ea05248801c00fa640a3aade566f9d4db004a24eeed6b488ebca2110c5fb023553e267cdb8c2257810b6b93987172974da00826ecef694a8cbea0130e5db221573c247ed98e2055830969919a7370954fa20e20eae96f4c8ab8a615085bb427513a2278df882653850f6f979c75769349a40c22e8eb6d4e88baa4170a59b6255338207add8a2451870d6d959e7774914ba6022ce6e5634086b4aa190457b82b5d362e74d3842a5f8903639b90797a9f45a8002ee4e7614284b6a81b0655ba295f342c76d186285d8b016199927b789d47aa0628e2e1674482b0ae1d0053bc2f59322a70d7802e5b8d07679f947d7e9b41ac042ae0e3654680b2ac1f0251be2d5b302872d5822c598f05659d967f7c9943ae0a24eeed6b488ebca2110c5fb023553e267cdb8c2257810b6b93987172974da00826ecef694a8cbea0130e5db221573c247ed98e2055830969919a7370954fa20e20eae96f4c8ab8a615085bb427513a2278df882653850f6f979c75769349a40c22e8eb6d4e88baa4170a59b6255338207add8a2451870d6d959e7774914ba6022ce6e5634086b4aa190457b82b5d362e74d3842a5f8903639b90797a9f45a8002ee4e7614284b6a81b0655ba295f342c76d186285d8b016199927b789d47aa0628e2e1674482b0ae1d0053bc2f59322a70d7802e5b8d07679f947d7e9b41ac042ae0e3654680b2ac1f0251be2d5b302872d5822c598f05659d967f7c9943ae0a24eeed6b488ebca2110c5fb023553e267cdb8c2257810b6b93987172974da00826ecef694a8cbea0130e5db221573c247ed98e2055830969919a7370954fa20e20eae96f4c8ab8a615085bb427513a2278df882653850f6f979c75769349a40c22e8eb6d4e88baa4170a59b6255338207add8a2451870d6d959e7774914ba6022ce6e5634086b4aa190457b82b5d362e74d3842a5f8903639b90797a9f45a8002ee4e7614284b6a81b0655ba295f342c76d186285d8b016199927b789d47aa0628e2e1674482b0ae1d0053bc2f59322a70d7802e5b8d07679f947d7e9b41ac042ae0e3654680b2ac1f0251be2d5b302872d5822c598f05659d967f7c9943ae0a24eeed6b488ebca2110c5fb023553e267cdb8c2257810b6b93987172974da00826ecef694a8cbea0130e5db221573c247ed98e2055830969919a7370954fa20e20eae96f4c8ab8a615085bb427513a2278df882653850f6f979c75769349a40c22e8eb6d4e88baa4170a59b6255338207add8a2451870d6d959e7774914ba6022ce6e5634086b4aa190457b82b5d362e74d3842a5f8903639b90797a9f45a8002ee4e7614284b6a81b0655ba295f342c76d186285d8b016199927b789d47aa0628e2e1674482b0ae1d0053bc2f59322a70d7802e5b8d07679f947d7e9b41ac042ae0e3654680b2ac1f0251be2d5b302872d5822c598f05659d967f7c9943ae0a24eeed6b488ebca2110c5fb023553e267cdb8c2257810b6b93987172974da00826ecef694a8cbea0130e5db221573c247ed98e2055830969919a7370954fa20e20eae96f4c8ab8a615085bb427513a2278df882653850f6f979c75769349a40c22e8eb6d4e88baa4170a59b6255338207add8a2451870d6d959e7774914ba6022ce6e5634086b4aa190457b82b5d36216f1e595bcfd3be5517b089acacd63215a50e53d8fffef95613adde6edaf8096",
        "type": "nulldata"
      }
    }
  ],
  "blockhash": "394f302ff1829b8db869c98f7b64fb5f27cc2b50e933cff1e5bbeae34fa68a80",
  "confirmations": 1,
  "time": 1764183654,
  "blocktime": 1764183654
}