{
  "hex": "01000000000101b6a87b9b28870b4e84715419b24ed2e45c5db5eacb118bfed62313c5cd9879150100000000feffffff028079ca95782d0000225120e943f5b540c54cc0aefbb972efbc03bd7c262d950de0e7c3253cc7e79e1a55a200e1f50500000000fdd5046a203b1e9c2799a2487189e50ecb93323e8b2a4a1254abde23589bfa6f4604a54f944db0043172b9b1ac4bfc48165042e53677c01f20e0a73418ee5a748df34431a9b0420d115299918c6bdc68367062c51657e03f00c0871438ce7a54add364118990622d7132f9f1ec0bbc08561002a57637805f60a0e77458ae1a34cdb30471e9f0024d5112d9d1cc2b9c28763022855617a07f4080c754788e3a14ed932451c9d0226db1f239312ccb7cc896d0c265b6f7409fa06027b4986edaf40d73c4b12930c28d91d219110ceb5ce8b6f0e24596d760bf80400794b84efad42d53e4910910e2adf1b279716c8b3c88d6908225f6b700dfe02067f4d82e9ab44d3384f1697082cdd19259514cab1ca8f6b0a205d69720ffc00047d4f80eba946d13a4d14950a2ed3172b9b1ac4bfc48165042e53677c01f20e0a73418ee5a748df34431a9b0420d115299918c6bdc68367062c51657e03f00c0871438ce7a54add364118990622d7132f9f1ec0bbc08561002a57637805f60a0e77458ae1a34cdb30471e9f0024d5112d9d1cc2b9c28763022855617a07f4080c754788e3a14ed932451c9d0226db1f239312ccb7cc896d0c265b6f7409fa06027b4986edaf40d73c4b12930c28d91d219110ceb5ce8b6f0e24596d760bf80400794b84efad42d53e4910910e2adf1b279716c8b3c88d6908225f6b700dfe02067f4d82e9ab44d3384f1697082cdd19259514cab1ca8f6b0a205d69720ffc00047d4f80eba946d13a4d14950a2ed3172b9b1ac4bfc48165042e53677c01f20e0a73418ee5a748df34431a9b0420d115299918c6bdc68367062c51657e03f00c0871438ce7a54add364118990622d7132f9f1ec0bbc08561002a57637805f60a0e77458ae1a34cdb30471e9f0024d5112d9d1cc2b9c28763022855617a07f4080c754788e3a14ed932451c9d0226db1f239312ccb7cc896d0c265b6f7409fa06027b4986edaf40d73c4b12930c28d91d219110ceb5ce8b6f0e24596d760bf80400794b84efad42d53e4910910e2adf1b279716c8b3c88d6908225f6b700dfe02067f4d82e9ab44d3384f1697082cdd19259514cab1ca8f6b0a205d69720ffc00047d4f80eba946d13a4d14950a2ed3172b9b1ac4bfc48165042e53677c01f20e0a73418ee5a748df34431a9b0420d115299918c6bdc68367062c51657e03f00c0871438ce7a54add364118990622d7132f9f1ec0bbc08561002a57637805f60a0e77458ae1a34cdb30471e9f0024d5112d9d1cc2b9c28763022855617a07f4080c754788e3a14ed932451c9d0226db1f239312ccb7cc896d0c265b6f7409fa06027b4986edaf40d73c4b12930c28d91d219110ceb5ce8b6f0e24596d760bf80400794b84efad42d53e4910910e2adf1b279716c8b3c88d6908225f6b700dfe02067f4d82e9ab44d3384f1697082cdd19259514cab1ca8f6b0a205d69720ffc00047d4f80eba946d13a4d14950a2ed3172b9b1ac4bfc48165042e53677c01f20e0a73418ee5a748df34431a9b0420d115299918c6bdc68367062c51657e03f00c0871438ce7a54add364118990622d7132f9f1ec0bbc08561002a57637805f60a0e77458ae1a34cdb30471e9f0024d5112d9d1cc2b9c28763022855617a07f4080c754788e3a14ed932451c9d0226db1f239312ccb7cc896d0c265b6f7409f8be8e1b615ab2d65cd19b5628942e36b48801723038f9d3637dbcb406ffddc7d02fd75090b7289789d5f7ba702009bd4aea14c2ef8bad120e72a894d40be966e486b87b15d986bf26f86b9449eb8527f43cbffa6e533209d7efa9e6bed9b5f2792b4466a4e47e6c7a3f255df7c66fe167883724ad867c20eabfa14273ea7305469a58fc3c4aafcbca17facf0088012d29992b4ed1e36faccb96937b304ba07c926f9304519ef2be77389c3f27d6cb0b73c134db265e7ce6518630485e1948b07eb8447dc979d789e3462731a0ec12d9a8256abac4cd7707c9157dcf010a5106acd82f5dd47487460d64e990a61ebca658a8a09491d938ff43f13ed9e457cca75aa20af26047d40feeca2a775d48b910f18cedec259cd5497d2f40b448c725123857516e1a81eddd63da2f9c639c376a8cc3321a22982a955bd93087281a0a075f1a5541e544510d8d1c610c56b8d79e1e34633975733753343937f8bdf5c2d08b5fece5341253561775e4c4a86ad186d5c585babbd2516d998f2022887ffaa4bf947f61c51936a38e850d8d3029b4b13873bcc88c7b6550af44940c7724a325dfdcc800852ada8947c9fa647ef5ec79b5e2776a2e60baa23af3bb003abf27249d38ca74c25c191a36df966608693f9c9c548cf73d73053b2256290241d86178b172d10fa422422ff7e8dd3d1b5c3df5bf9f3fa7473491e26aea8653967e97cd829dc578cb60fb644b912997f704dcfba67d93d912ba5ec712ac48f9951ae7152ef14957cb6dbfeaffec8e6bc40fd1e7e3d62b9131e8b36ae711e37f35e2d12573ee8c1b953a6f3d6a4cc63e58ecd3b9a35fcfdf7c30f47c16414b6588ae235d1224df6feb3be0bc7d50b11d2e1554c80eab52e9cb47b72a8af96d1f77e3fc2b679b6ec20bd8b4fb4a38430bf2b847058917c8c26f32638323ebbbbfd5c3c6f6d508790e5e9c67fea757b5485e7e235aa0d854c36bd43fc6924c85731c73111fe16a6a3845aa8e18afd337bc79bd8155f7c9079d9d364f304f088904b620c9c53b150439f1fda69ed0b339a7d92343723a846b80b5317e3fff23a7e89140fc639d55c9f22df3e407157ff4b1b26e3698cd8eea3bf9806eed3f4bd25356d9a336815199f1cf9c8b4021dd427ff7649ec2d656f7308edbe8b1e66b5ad5263a577016a3245f7a4337fc688833041433b7efdb6d2e87d1e7b2aa9c59ce5cd0c3cfab80b029e2a108042203a99c31ee3b950e48f7dec50b1df97a3f3705f988cca1f9adfacbcd64145b495eb68bd9cb7c6ff9d0c37f980e93a8ec16adbc19cd78fcce8bd3aae76598e50005bc12bc7d7371078efa3abbf4c8ca02a50d9b572f0c70d0ae8d0312596fff2f1add4ba1f7f06d2bab9c2d0ee11c70c3d408a0e221cd0d4377edd85b1d4e740b26d258a1402cc6eda291d42390a77711fc406c999d7f65ed1fc811a7f1b79cd77afccb30c441558476a346e4d65897219afefe8414901b693c23a67a62f4117cc5a48807a922d88aa1fbabcac7f238c326fd0ae99f7c819f91bf3e1f2953214fd69c3951a44773c14ebebd767dc504868baf05afd82644e650b5bb6013c75a8e69d52d471e932b6ec7510c2e066709ad5cb7891b2208c03437c0cb7f0ba66ace6b096044e1eadc0d2ecb851a06a13f97389e61c90d13c0b6211f9dcb3042130609820efbf80ef1ef2bf78d5634651004dcd09ad64966814430d7c4f40fa809487f4fa29358e7d8d4267ea610b35948f2dc0f1eceb77a28d1210dee5b0c157a2959080d8c16db19c9235af858f05bfec4f3b7e599b89ccefde52632b513c5a0b4bf5f5e87281cee25fea31258e82640cdcbe6aa7e31c7704ce4b16a62ae1889c0b877818063d55ab88aef7a3c2180a4d7e2de6339530adbd36453bf4b3393eb83503eb421c69974580f950a09fd58f79d88c4474080a381cead286b88d44aefde48a79f59561c2a9acd0589218397f0e45f26d940088ec92fe4df6529cae00b00e4f658e64e6dd48b88ce67161c7d392f80c59c5168248f1b0a51e1b9182de1207e179e4a8b175dce8a12efb5c172853d203fa01673be5155d3bc39e932c912e8cb9f5dfd2da07ce6c2d7210faec052482c5927dac0a42d6da75f27cfbcf5025f79c3c1e7047eac9419915d77214af74e113b12cf7f32794ebc1b3d9f09496acc3ce1d4e1bdefdcd6bc34a1d75ceb05a70226245afa0e42aaa5e160db0511889899851a995195bc9e3e5caf9fa7efc007ffbb679716fdabf6a517abb2a4b3326113da40d0f29dc8640f4524d1a9b9e056fd690c469885c99cae9270145422345e213fed1c2591e26f6d57d60c90c2cc979cc0cb0627335b4a0fec8d123a11cfbaf5ffc240e2efe6fe679aefcf6ac21397aca8aa47d91f79b871ea554080c3b11316e7880e0cd11bb6915d44c952a3b0e50e894f14b1240ff9e7e634513396c218aee091fc20f9b88e97cda397e0e91b13b08a2eb7b9114089f4c286b1a440a77b09620dc5ffcf7bb1749ef5a10a297ad9ed8497f48d9310f14283e80e2f0fd784189c22c437161487878a26ded6a36e811b74eab79fa64c9cc94fbf4fb32df1ea67d6df47060d1b8d18f7cd7e1fa9111915a1aae5374346b95137df4ae198e6de220275241057fd8e2b7d7bc859aff1b1158ab957b449c9f0792999f4040db23c195a3336af4e8223f9db6f60417b4142cfe13bb9c21ba98a588db1117b363805a01cbf23198906743fe6ab0936ba386453cbc880d5d7208749b48682336a4c19f12b92ae1144de4f8438eebad8196d822b932c6578456009125d90855f7c01ef58f23e4e6f9cd56f998a18102960512dddd628a8c54edbaf93e38e88f3aae613fbe8ecf74afe8056c80d550d9a2699017f20e1c0aed8298d140e3c3a4da6fbdfc4f0368caa4d442337d9d42926a301315a133991c05e4583d9fa2a503922f37f7ce3f37f58ddffb016c54d820e90f0a36fb7165dc1ff343e79b496dacd91668c63258438b9b914b46403b6c16007bfb79a080d0658adc83d754b7f19c20a33e22a8255f26e5bf250b23fdcbc1d55947581adc21ee909d4a2fa6c8ab2b3a8fa5a627701ec3ce50fbb43367b48e0bb250ae4c33688f99f4f32d4f094902d4c1e59d5a26b389247b9aaaff945a028d0d308311f46f464f9a51c6151b44a47978aae97762c2870650957c5fdaa66f7ab0b7f638918dec65ec410a11a12fc1e31c38ed7be73e2ec88870fd3010103fc5c106f80a4f296097c80dbc700cc23e15e7549e7b4ea34904be4409dfd4674877d3731c001f8edce10f0adab476a4b6fd11d421a40952263aaec021122474472b6d2c7e5c20c2fff29b36a57953bc3c12203a42616f8db0b9eaf50308323e4e51609baaacb2b6cbd3d9f202082640464a5e67c7dfe4eef0fd0d292f3446545d7b8297dcecfb00000000000000000000000000000000000000000000000000000b1b293601fd2105003a0bb8b17eaf6789be3b0166213a4c06ebc13dd799566e9a816a4aa30fc071e85bd15b36fc94db041c73255bf63cc9ef2c96af2aaf540281adec0b6af251b86e6b18e9ff68110a42628cece133b533f00f6a0974e06d62dcf38c7c9f04f208370561e95e6958358c12dc877904649eefc130652ee505b187f4c98f386c4fcf521a3f8c384a159fc9ae2a699c72c13aaa318cef5ec30f39edb1274aee9e29cd40ca54beacfecfab580f15570510c2aef8c3fa6e73901f4aaf6c9c704418c5bb5de6d105cc0aff3b56061e87c3c98356c0618273cef08a23537089e24ddd3aa14496f1d0588d35b3851aaa59d81bb48dba189a01c0e1468f23c1499103e721665000a6750a23617b4627e787f8f452b76121d88674d31d3e2ecd3e2113eb767d39079a2a54d27ee99aeaad483230d5d9e5a5f3645178055694f679bef2114265cb32767ce19540ffdbdba0d9fc17317bc8052aebffcfb2781a5d1e7164e1f7707fabe0f7964f331dacb4bc426e867c1c4c1577d6d888ea4c8e3dc895c3866df9d80798b0ab771b08d3e0de637d34459d8036986a9279f900233bc8310d913a8978a930278395cfd5fb5b422dca766264032a4b5a26e32bf04f1fe4609b41d6912e1f437a4398d5fe9281734897f49089cdbcadc15829326f3702faeae36e57d47154dfe0cc74d0c937203ab68bf0c16472b5206ae51eea02ca9826f28519d7f7615d96fa09e4f8f8e82eef7b743144363df7ec51fcb5b8ab299ad76d10883a9bed3fe7f0f8938a01a370e5f21fc8534e80b856e9b9461f39bb643343e02672c677fda12d5008f8babe9dd4416ead93af71f4314e6bd19868bfc4957e4eb456de68d00a0b73560eecfc3338f0b041ac7ffbe5fd6b6d54f5c65e44a42c078071bd9f223b644c0439b8c4184e8da816c20c485c4afeb0b124bd2bf57ef8054984673e3793befcf9f3cbe5633669ea068c5ea337ce1711f6b8cdef3acd137ea3fcece924ed374482b611d45750540ad504a71d614d5046bd7d02572ba9a99b9420bc656e9e62a39eddb5f54e4ebec6205e8f41af9cc5729ac83bb805c262907bf36058ed7ba5677bf9f4607c44d7de09640ec9812c234fb60d3749dd5342410c56a5966ab1e7ba700ba94001a19885c121296e8ff09d210fba9b3df45f652f38420bdc393df1b5aa76f66298f073227e98818df76f487116dd6e0bb6cbf1bdbe9f0a0f3372ce08a2f11606083ee5d062724eda6caf706ecfd913f03761f5145960eeb5140b08d5d254b8a51ab244f1d3ccaf8a0e90d3d5b881603471100f4072c392dc5cc15afa90939175e566fd34f47ca041665ba506bb4104efe68a5bc2436271db9f7b726aac218264b88f63a27859c71ff7f37842e64dd0cc4cec1b0772b452cfa8456b877639698e357d673f9f673f015ca4f6de3b45f3e55ffe3872afe43896b5288f8a4790d58ef4df96488352b9d9d965cd7ebb3a516b8a26574c69a3374b1b0f4ddcb27cf3eac19120fd65b088de45e6455063e7cb6c09dbbd62c3273ccde2d91faa905155f8fb966724565128362d97e9cf48f5515121ec29b97c694801fd50fb5fed0d9e50c3561f5e70c5ea1c2268ec58a454a86df1d7134f7ef3f0da8acc08ffe8ed780eb577392987abde6402236911f3cb2dc01023ba7ba398b82a5232895d2987556277f8463f62b025763a2ec5633309d8c6402d0b8cca7a0e797e082db0bad92742adb9ebc30c3728f649f786d7c60c59c7496150bded3b81c9786b884019fc4aac16eb6c7c1f9f03d240c5d0e3106e164290be74d300661cac6e8fc6617c79625bcaaa0b83c7fc7658a5ae9eb6e3f3725df190a8a5102956d88a000000",
  "txid": "f7c5e99abcb2659238d618f07ac5744a95fb211e4dfd417f554172c64683e2ff",
  "hash": "d682104cd965c91c9ec360999aac2937e22940e3d0cd0f465c25f2cb6a4b20d7",
  "size": 5085,
  "vsize": 2278,
  "version": 1,
  "locktime": 138,
  "vin": [
    {
      "txid": "157998cdc51323d6fe8b11cbeab55d5ce4d24eb2195471844e0b87289b7ba8b6",
      "vout": 1,
      "scriptSig": {
        "asm": "",
        "hex": ""
      },
      "txinwitness": [
        "0b7289789d5f7ba702009bd4aea14c2ef8bad120e72a894d40be966e486b87b15d986bf26f86b9449eb8527f43cbffa6e533209d7efa9e6bed9b5f2792b4466a4e47e6c7a3f255df7c66fe167883724ad867c20eabfa14273ea7305469a58fc3c4aafcbca17facf0088012d29992b4ed1e36faccb96937b304ba07c926f9304519ef2be77389c3f27d6cb0b73c134db265e7ce6518630485e1948b07eb8447dc979d789e3462731a0ec12d9a8256abac4cd7707c9157dcf010a5106acd82f5dd47487460d64e990a61ebca658a8a09491d938ff43f13ed9e457cca75aa20af26047d40feeca2a775d48b910f18cedec259cd5497d2f40b448c725123857516e1a81eddd63da2f9c639c376a8cc3321a22982a955bd93087281a0a075f1a5541e544510d8d1c610c56b8d79e1e34633975733753343937f8bdf5c2d08b5fece5341253561775e4c4a86ad186d5c585babbd2516d998f2022887ffaa4bf947f61c51936a38e850d8d3029b4b13873bcc88c7b6550af44940c7724a325dfdcc800852ada8947c9fa647ef5ec79b5e2776a2e60baa23af3bb003abf27249d38ca74c25c191a36df966608693f9c9c548cf73d73053b2256290241d86178b172d10fa422422ff7e8dd3d1b5c3df5bf9f3fa7473491e26aea8653967e97cd829dc578cb60fb644b912997f704dcfba67d93d912ba5ec712ac48f9951ae7152ef14957cb6dbfeaffec8e6bc40fd1e7e3d62b9131e8b36ae711e37f35e2d12573ee8c1b953a6f3d6a4cc63e58ecd3b9a35fcfdf7c30f47c16414b6588ae235d1224df6feb3be0bc7d50b11d2e1554c80eab52e9cb47b72a8af96d1f77e3fc2b679b6ec20bd8b4fb4a38430bf2b847058917c8c26f32638323ebbbbfd5c3c6f6d508790e5e9c67fea757b5485e7e235aa0d854c36bd43fc6924c85731c73111fe16a6a3845aa8e18afd337bc79bd8155f7c9079d9d364f304f088904b620c9c53b150439f1fda69ed0b339a7d92343723a846b80b5317e3fff23a7e89140fc639d55c9f22df3e407157ff4b1b26e3698cd8eea3bf9806eed3f4bd25356d9a336815199f1cf9c8b4021dd427ff7649ec2d656f7308edbe8b1e66b5ad5263a577016a3245f7a4337fc688833041433b7efdb6d2e87d1e7b2aa9c59ce5cd0c3cfab80b029e2a108042203a99c31ee3b950e48f7dec50b1df97a3f3705f988cca1f9adfacbcd64145b495eb68bd9cb7c6ff9d0c37f980e93a8ec16adbc19cd78fcce8bd3aae76598e50005bc12bc7d7371078efa3abbf4c8ca02a50d9b572f0c70d0ae8d0312596fff2f1add4ba1f7f06d2bab9c2d0ee11c70c3d408a0e221cd0d4377edd85b1d4e740b26d258a1402cc6eda291d42390a77711fc406c999d7f65ed1fc811a7f1b79cd77afccb30c441558476a346e4d65897219afefe8414901b693c23a67a62f4117cc5a48807a922d88aa1fbabcac7f238c326fd0ae99f7c819f91bf3e1f2953214fd69c3951a44773c14ebebd767dc504868baf05afd82644e650b5bb6013c75a8e69d52d471e932b6ec7510c2e066709ad5cb7891b2208c03437c0cb7f0ba66ace6b096044e1eadc0d2ecb851a06a13f97389e61c90d13c0b6211f9dcb3042130609820efbf80ef1ef2bf78d5634651004dcd09ad64966814430d7c4f40fa809487f4fa29358e7d8d4267ea610b35948f2dc0f1eceb77a28d1210dee5b0c157a2959080d8c16db19c9235af858f05bfec4f3b7e599b89ccefde52632b513c5a0b4bf5f5e87281cee25fea31258e82640cdcbe6aa7e31c7704ce4b16a62ae1889c0b877818063d55ab88aef7a3c2180a4d7e2de6339530adbd36453bf4b3393eb83503eb421c69974580f950a09fd58f79d88c4474080a381cead286b88d44aefde48a79f59561c2a9acd0589218397f0e45f26d940088ec92fe4df6529cae00b00e4f658e64e6dd48b88ce67161c7d392f80c59c5168248f1b0a51e1b9182de1207e179e4a8b175dce8a12efb5c172853d203fa01673be5155d3bc39e932c912e8cb9f5dfd2da07ce6c2d7210faec052482c5927dac0a42d6da75f27cfbcf5025f79c3c1e7047eac9419915d77214af74e113b12cf7f32794ebc1b3d9f09496acc3ce1d4e1bdefdcd6bc34a1d75ceb05a70226245afa0e42aaa5e160db0511889899851a995195bc9e3e5caf9fa7efc007ffbb679716fdabf6a517abb2a4b3326113da40d0f29dc8640f4524d1a9b9e056fd690c469885c99cae9270145422345e213fed1c2591e26f6d57d60c90c2cc979cc0cb0627335b4a0fec8d123a11cfbaf5ffc240e2efe6fe679aefcf6ac21397aca8aa47d91f79b871ea554080c3b11316e7880e0cd11bb6915d44c952a3b0e50e894f14b1240ff9e7e634513396c218aee091fc20f9b88e97cda397e0e91b13b08a2eb7b9114089f4c286b1a440a77b09620dc5ffcf7bb1749ef5a10a297ad9ed8497f48d9310f14283e80e2f0fd784189c22c437161487878a26ded6a36e811b74eab79fa64c9cc94fbf4fb32df1ea67d6df47060d1b8d18f7cd7e1fa9111915a1aae5374346b95137df4ae198e6de220275241057fd8e2b7d7bc859aff1b1158ab957b449c9f0792999f4040db23c195a3336af4e8223f9db6f60417b4142cfe13bb9c21ba98a588db1117b363805a01cbf23198906743fe6ab0936ba386453cbc880d5d7208749b48682336a4c19f12b92ae1144de4f8438eebad8196d822b932c6578456009125d90855f7c01ef58f23e4e6f9cd56f998a18102960512dddd628a8c54edbaf93e38e88f3aae613fbe8ecf74afe8056c80d550d9a2699017f20e1c0aed8298d140e3c3a4da6fbdfc4f0368caa4d442337d9d42926a301315a133991c05e4583d9fa2a503922f37f7ce3f37f58ddffb016c54d820e90f0a36fb7165dc1ff343e79b496dacd91668c63258438b9b914b46403b6c16007bfb79a080d0658adc83d754b7f19c20a33e22a8255f26e5bf250b23fdcbc1d55947581adc21ee909d4a2fa6c8ab2b3a8fa5a627701ec3ce50fbb43367b48e0bb250ae4c33688f99f4f32d4f094902d4c1e59d5a26b389247b9aaaff945a028d0d308311f46f464f9a51c6151b44a47978aae97762c2870650957c5fdaa66f7ab0b7f638918dec65ec410a11a12fc1e31c38ed7be73e2ec88870fd3010103fc5c106f80a4f296097c80dbc700cc23e15e7549e7b4ea34904be4409dfd4674877d3731c001f8edce10f0adab476a4b6fd11d421a40952263aaec021122474472b6d2c7e5c20c2fff29b36a57953bc3c12203a42616f8db0b9eaf50308323e4e51609baaacb2b6cbd3d9f202082640464a5e67c7dfe4eef0fd0d292f3446545d7b8297dcecfb00000000000000000000000000000000000000000000000000000b1b293601",
        "003a0bb8b17eaf6789be3b0166213a4c06ebc13dd799566e9a816a4aa30fc071e85bd15b36fc94db041c73255bf63cc9ef2c96af2aaf540281adec0b6af251b86e6b18e9ff68110a42628cece133b533f00f6a0974e06d62dcf38c7c9f04f208370561e95e6958358c12dc877904649eefc130652ee505b187f4c98f386c4fcf521a3f8c384a159fc9ae2a699c72c13aaa318cef5ec30f39edb1274aee9e29cd40ca54beacfecfab580f15570510c2aef8c3fa6e73901f4aaf6c9c704418c5bb5de6d105cc0aff3b56061e87c3c98356c0618273cef08a23537089e24ddd3aa14496f1d0588d35b3851aaa59d81bb48dba189a01c0e1468f23c1499103e721665000a6750a23617b4627e787f8f452b76121d88674d31d3e2ecd3e2113eb767d39079a2a54d27ee99aeaad483230d5d9e5a5f3645178055694f679bef2114265cb32767ce19540ffdbdba0d9fc17317bc8052aebffcfb2781a5d1e7164e1f7707fabe0f7964f331dacb4bc426e867c1c4c1577d6d888ea4c8e3dc895c3866df9d80798b0ab771b08d3e0de637d34459d8036986a9279f900233bc8310d913a8978a930278395cfd5fb5b422dca766264032a4b5a26e32bf04f1fe4609b41d6912e1f437a4398d5fe9281734897f49089cdbcadc15829326f3702faeae36e57d47154dfe0cc74d0c937203ab68bf0c16472b5206ae51eea02ca9826f28519d7f7615d96fa09e4f8f8e82eef7b743144363df7ec51fcb5b8ab299ad76d10883a9bed3fe7f0f8938a01a370e5f21fc8534e80b856e9b9461f39bb643343e02672c677fda12d5008f8babe9dd4416ead93af71f4314e6bd19868bfc4957e4eb456de68d00a0b73560eecfc3338f0b041ac7ffbe5fd6b6d54f5c65e44a42c078071bd9f223b644c0439b8c4184e8da816c20c485c4afeb0b124bd2bf57ef8054984673e3793befcf9f3cbe5633669ea068c5ea337ce1711f6b8cdef3acd137ea3fcece924ed374482b611d45750540ad504a71d614d5046bd7d02572ba9a99b9420bc656e9e62a39eddb5f54e4ebec6205e8f41af9cc5729ac83bb805c262907bf36058ed7ba5677bf9f4607c44d7de09640ec9812c234fb60d3749dd5342410c56a5966ab1e7ba700ba94001a19885c121296e8ff09d210fba9b3df45f652f38420bdc393df1b5aa76f66298f073227e98818df76f487116dd6e0bb6cbf1bdbe9f0a0f3372ce08a2f11606083ee5d062724eda6caf706ecfd913f03761f5145960eeb5140b08d5d254b8a51ab244f1d3ccaf8a0e90d3d5b881603471100f4072c392dc5cc15afa90939175e566fd34f47ca041665ba506bb4104efe68a5bc2436271db9f7b726aac218264b88f63a27859c71ff7f37842e64dd0cc4cec1b0772b452cfa8456b877639698e357d673f9f673f015ca4f6de3b45f3e55ffe3872afe43896b5288f8a4790d58ef4df96488352b9d9d965cd7ebb3a516b8a26574c69a3374b1b0f4ddcb27cf3eac19120fd65b088de45e6455063e7cb6c09dbbd62c3273ccde2d91faa905155f8fb966724565128362d97e9cf48f5515121ec29b97c694801fd50fb5fed0d9e50c3561f5e70c5ea1c2268ec58a454a86df1d7134f7ef3f0da8acc08ffe8ed780eb577392987abde6402236911f3cb2dc01023ba7ba398b82a5232895d2987556277f8463f62b025763a2ec5633309d8c6402d0b8cca7a0e797e082db0bad92742adb9ebc30c3728f649f786d7c60c59c7496150bded3b81c9786b884019fc4aac16eb6c7c1f9f03d240c5d0e3106e164290be74d300661cac6e8fc6617c79625bcaaa0b83c7fc7658a5ae9eb6e3f3725df190a8a5102956d8"
      ],
      "sequence": 4294967294
    }
  ],
  "vout": [
    {
      "value": 499959.324,
      "n": 0,
      "scriptPubKey": {
        "asm": "1 e943f5b540c54cc0aefbb972efbc03bd7c262d950de0e7c3253cc7e79e1a55a2",
        "hex": "5120e943f5b540c54cc0aefbb972efbc03bd7c262d950de0e7c3253cc7e79e1a55a2",
        "reqSigs": 1,
        "type": "witness_v1_scripthash",
        "addresses": [
          "3QJmnh"
        ]
      }
    },
    {
      "value": 1.0,
      "n": 1,
      "scriptPubKey": {
        "asm": "OP_RETURN 3b1e9c2799a2487189e50ecb93323e8b2a4a1254abde23589bfa6f4604a54f94 3172b9b1ac4bfc48165042e53677c01f20e0a73418ee5a748df34431a9b0420d115299918c6bdc68367062c51657e03f00c0871438ce7a54add364118990622d7132f9f1ec0bbc08561002a57637805f60a0e77458ae1a34cdb30471e9f0024d5112d9d1cc2b9c28763022855617a07f4080c754788e3a14ed932451c9d0226db1f239312ccb7cc896d0c265b6f7409fa06027b4986edaf40d73c4b12930c28d91d219110ceb5ce8b6f0e24596d760bf80400794b84efad42d53e4910910e2adf1b279716c8b3c88d6908225f6b700dfe02067f4d82e9ab44d3384f1697082cdd19259514cab1ca8f6b0a205d69720ffc00047d4f80eba946d13a4d14950a2ed3172b9b1ac4bfc48165042e53677c01f20e0a73418ee5a748df34431a9b0420d115299918c6bdc68367062c51657e03f00c0871438ce7a54add364118990622d7132f9f1ec0bbc08561002a57637805f60a0e77458ae1a34cdb30471e9f0024d5112d9d1cc2b9c28763022855617a07f4080c754788e3a14ed932451c9d0226db1f239312ccb7cc896d0c265b6f7409fa06027b4986edaf40d73c4b12930c28d91d219110ceb5ce8b6f0e24596d760bf80400794b84efad42d53e4910910e2adf1b279716c8b3c88d6908225f6b700dfe02067f4d82e9ab44d3384f1697082cdd19259514cab1ca8f6b0a205d69720ffc00047d4f80eba946d13a4d14950a2ed3172b9b1ac4bfc48165042e53677c01f20e0a73418ee5a748df34431a9b0420d115299918c6bdc68367062c51657e03f00c0871438ce7a54add364118990622d7132f9f1ec0bbc08561002a57637805f60a0e77458ae1a34cdb30471e9f0024d5112d9d1cc2b9c28763022855617a07f4080c754788e3a14ed932451c9d0226db1f239312ccb7cc896d0c265b6f7409fa06027b4986edaf40d73c4b12930c28d91d219110ceb5ce8b6f0e24596d760bf80400794b84efad42d53e4910910e2adf1b279716c8b3c88d6908225f6b700dfe02067f4d82e9ab44d3384f1697082cdd19259514cab1ca8f6b0a205d69720ffc00047d4f80eba946d13a4d14950a2ed3172b9b1ac4bfc48165042e53677c01f20e0a73418ee5a748df34431a9b0420d115299918c6bdc68367062c51657e03f00c0871438ce7a54add364118990622d7132f9f1ec0bbc08561002a57637805f60a0e77458ae1a34cdb30471e9f0024d5112d9d1cc2b9c28763022855617a07f4080c754788e3a14ed932451c9d0226db1f239312ccb7cc896d0c265b6f7409fa06027b4986edaf40d73c4b12930c28d91d219110ceb5ce8b6f0e24596d760bf80400794b84efad42d53e4910910e2adf1b279716c8b3c88d6908225f6b700dfe02067f4d82e9ab44d3384f1697082cdd19259514cab1ca8f6b0a205d69720ffc00047d4f80eba946d13a4d14950a2ed3172b9b1ac4bfc48165042e53677c01f20e0a73418ee5a748df34431a9b0420d115299918c6bdc68367062c51657e03f00c0871438ce7a54add364118990622d7132f9f1ec0bbc08561002a57637805f60a0e77458ae1a34cdb30471e9f0024d5112d9d1cc2b9c28763022855617a07f4080c754788e3a14ed932451c9d0226db1f239312ccb7cc896d0c265b6f7409f8be8e1b615ab2d65cd19b5628942e36b48801723038f9d3637dbcb406ffddc7d",
        "hex": "6a203b1e9c2799a2487189e50ecb93323e8b2a4a1254abde23589bfa6f4604a54f944db0043172b9b1ac4bfc48165042e53677c01f20e0a73418ee5a748df34431a9b0420d115299918c6bdc68367062c51657e03f00c0871438ce7a54add364118990622d7132f9f1ec0bbc08561002a57637805f60a0e77458ae1a34cdb30471e9f0024d5112d9d1cc2b9c28763022855617a07f4080c754788e3a14ed932451c9d0226db1f239312ccb7cc896d0c265b6f7409fa06027b4986edaf40d73c4b12930c28d91d219110ceb5ce8b6f0e24596d760bf80400794b84efad42d53e4910910e2adf1b279716c8b3c88d6908225f6b700dfe02067f4d82e9ab44d3384f1697082cdd19259514cab1ca8f6b0a205d69720ffc00047d4f80eba946d13a4d14950a2ed3172b9b1ac4bfc48165042e53677c01f20e0a73418ee5a748df34431a9b0420d115299918c6bdc68367062c51657e03f00c0871438ce7a54add364118990622d7132f9f1ec0bbc08561002a57637805f60a0e77458ae1a34cdb30471e9f0024d5112d9d1cc2b9c28763022855617a07f4080c754788e3a14ed932451c9d0226db1f239312ccb7cc896d0c265b6f7409fa06027b4986edaf40d73c4b12930c28d91d219110ceb5ce8b6f0e24596d760bf80400794b84efad42d53e4910910e2adf1b279716c8b3c88d6908225f6b700dfe02067f4d82e9ab44d3384f1697082cdd19259514cab1ca8f6b0a205d69720ffc00047d4f80eba946d13a4d14950a2ed3172b9b1ac4bfc48165042e53677c01f20e0a73418ee5a748df34431a9b0420d115299918c6bdc68367062c51657e03f00c0871438ce7a54add364118990622d7132f9f1ec0bbc08561002a57637805f60a0e77458ae1a34cdb30471e9f0024d5112d9d1cc2b9c28763022855617a07f4080c754788e3a14ed932451c9d0226db1f239312ccb7cc896d0c265b6f7409fa06027b4986edaf40d73c4b12930c28d91d219110ceb5ce8b6f0e24596d760bf80400794b84efad42d53e4910910e2adf1b279716c8b3c88d6908225f6b700dfe02067f4d82e9ab44d3384f1697082cdd19259514cab1ca8f6b0a205d69720ffc00047d4f80eba946d13a4d14950a2ed3172b9b1ac4bfc48165042e53677c01f20e0a73418ee5a748df34431a9b0420d115299918c6bdc68367062c51657e03f00c0871438ce7a54add364118990622d7132f9f1ec0bbc08561002a57637805f60a0e77458ae1a34cdb30471e9f0024d5112d9d1cc2b9c28763022855617a07f4080c754788e3a14ed932451c9d0226db1f239312ccb7cc896d0c265b6f7409fa06027b4986edaf40d73c4b12930c28d91d219110ceb5ce8b6f0e24596d760bf80400794b84efad42d53e4910910e2adf1b279716c8b3c88d6908225f6b700dfe02067f4d82e9ab44d3384f1697082cdd19259514cab1ca8f6b0a205d69720ffc00047d4f80eba946d13a4d14950a2ed3172b9b1ac4bfc48165042e53677c01f20e0a73418ee5a748df34431a9b0420d115299918c6bdc68367062c51657e03f00c0871438ce7a54add364118990622d7132f9f1ec0bbc08561002a57637805f60a0e77458ae1a34cdb30471e9f0024d5112d9d1cc2b9c28763022855617a07f4080c754788e3a14ed932451c9d0226db1f239312ccb7cc896d0c265b6f7409f8be8e1b615ab2d65cd19b5628942e36b48801723038f9d3637dbcb406ffddc7d",
        "type": "nulldata"
      }
    }
  ],
  "blockhash": "394f302ff1829b8db869c98f7b64fb5f27cc2b50e933cff1e5bbeae34fa68a80",
  "confirmations": 1,
  "time": 1764183654,
  "blocktime": 1764183654
}