{
  "hex": "01000000000101db9ba60677dc0e2606e78788f0737ab712ba3b01c3f9f5c4cac9f10d8fc1b47f0000000000feffffff0200e1f50500000000fdd5046a201c598c358af19bad6776ce0e6ffdc5d25d0a4d9ea651cf2bc5ba1d5542a8f78f4db004227ea3025277afe4818e14672e400d8c59233b8e9f3918e064fbbff166ab2c68025e832272578fc4a1ae34470e602dac79031baebf1938c044db9fd1468b0c48623ee3421237efa4c1ce54276e004dcc19637bcedf7958a024bbffb126eb6c28421ec3623217cf84e1ee74074e206dec39435beeff597880049bdf9106cb4c08a2fe2382d2f72f64010e94e7aec08d0cd9a3bb0e1fb99860e47b3f71e62bace882de03a2f2d70f44212eb4c78ee0ad2cf9839b2e3f99b840c45b1f51c60b8cc8e2be63c292b76f24414ed4a7ee80cd4c99e3fb4e5ff9d820a43b7f31a66beca8c29e43e2b2974f04616ef487cea0ed6cb9c3db6e7fd9f800841b5f11864bcc88227ea3025277afe4818e14672e400d8c59233b8e9f3918e064fbbff166ab2c68025e832272578fc4a1ae34470e602dac79031baebf1938c044db9fd1468b0c48623ee3421237efa4c1ce54276e004dcc19637bcedf7958a024bbffb126eb6c28421ec3623217cf84e1ee74074e206dec39435beeff597880049bdf9106cb4c08a2fe2382d2f72f64010e94e7aec08d0cd9a3bb0e1fb99860e47b3f71e62bace882de03a2f2d70f44212eb4c78ee0ad2cf9839b2e3f99b840c45b1f51c60b8cc8e2be63c292b76f24414ed4a7ee80cd4c99e3fb4e5ff9d820a43b7f31a66beca8c29e43e2b2974f04616ef487cea0ed6cb9c3db6e7fd9f800841b5f11864bcc88227ea3025277afe4818e14672e400d8c59233b8e9f3918e064fbbff166ab2c68025e832272578fc4a1ae34470e602dac79031baebf1938c044db9fd1468b0c48623ee3421237efa4c1ce54276e004dcc19637bcedf7958a024bbffb126eb6c28421ec3623217cf84e1ee74074e206dec39435beeff597880049bdf9106cb4c08a2fe2382d2f72f64010e94e7aec08d0cd9a3bb0e1fb99860e47b3f71e62bace882de03a2f2d70f44212eb4c78ee0ad2cf9839b2e3f99b840c45b1f51c60b8cc8e2be63c292b76f24414ed4a7ee80cd4c99e3fb4e5ff9d820a43b7f31a66beca8c29e43e2b2974f04616ef487cea0ed6cb9c3db6e7fd9f800841b5f11864bcc88227ea3025277afe4818e14672e400d8c59233b8e9f3918e064fbbff166ab2c68025e832272578fc4a1ae34470e602dac79031baebf1938c044db9fd1468b0c48623ee3421237efa4c1ce54276e004dcc19637bcedf7958a024bbffb126eb6c28421ec3623217cf84e1ee74074e206dec39435beeff597880049bdf9106cb4c08a2fe2382d2f72f64010e94e7aec08d0cd9a3bb0e1fb99860e47b3f71e62bace882de03a2f2d70f44212eb4c78ee0ad2cf9839b2e3f99b840c45b1f51c60b8cc8e2be63c292b76f24414ed4a7ee80cd4c99e3fb4e5ff9d820a43b7f31a66beca8c29e43e2b2974f04616ef487cea0ed6cb9c3db6e7fd9f800841b5f11864bcc88227ea3025277afe4818e14672e400d8c59233b8e9f3918e064fbbff166ab2c68025e832272578fc4a1ae34470e602dac79031baebf1938c044db9fd1468b0c48623ee3421237efa4c1ce54276e004dcc19637bcedf7958a024bbffb126eb6c28421ec3623217cf84e1ee74074e206dec39435beeff597880049bdf9106cb4c08a2fe2382d2f72f64010e94e7aec08d0c0b6238a9a5271ad1ca8d435030358e50d8248902b0bcb54d4aa2df657703059ec075fe6f792d0000225120f22e2fc3e8bbaed801f3b430864864429388784d77193e17154aa619b2ef60a102fd7509e80b1baa56e3b504ae83c1767f7fa0854cfe77e40db878d82e7491bc124505e253669b5a4d84c0e3e51b9fc6294060a1fd43019e8ebebb47288f2ca82a8cccf45984d51a62e04122fcafd3fa05eb2110fe4816a9aba2e9af2a4dc3e230bbef62c080e9ad79a91e22d090ccc04868512cc533c2a3ae6c43350faecde04d6876e88671ef1171347ba7b4d62ac7e30eec8aa00beeddab6311ddef50a0ed18f564ce989e242d12c2be7e83bcbac8001d579be488fc9380c04602589f4f5ab164a9482eab0afdb049404ebdd162ccece85c8b08c118a2a33d6d455fbd411aefbb00de086519ef7529c6b60e8825fe5f38d7411ddca2b20c4293e2633e0eb5f31c065ff4e73650506b3020952b8617772ebdbabb98c34779ace97285850032a4463892f703362d795ee357d59efd52a923bdca66043af2e683238a8d6fa4785cccda622e70629fdae43c6ab6b4e7a76ade3f4deda52294b87893fb3bcd3ec3ea6bf0ddf3f3aa7ffdf8c2f747dd9503a330c38aa8d00a2af538838869292d2f6b81da777862a792b98108633a23a0667e72b4e92e4df3fbe6e9e98cafecef7f78e30ae3d01c6179c8735ae52de1615383060d97c076e30224b00b912617bdc08554b513c56447070cf40290c919b4eed1ecfe94adf8f9a1d6a84ee326e4f846a776a30a14ad651f409c437d64d1aa73c212dfc66ffde55cc99fa4ef59b882f9891e1fdabd15477fc2420a2da8fc89de0d2ed0ab40506e70d2b1db1b9a89167913af52f1caf735f1770a039bb5cfcda8f73ee42dffc11e6863f2bc6f7a57e17165a970e70e1099bfd3f07c6c58b59b938b1e70b7c159478e39726bbfd76beb380dad172077fffdeda712e05401f955adacae32252a4444f14692899b9bbc95f9bffbcc011016e65962bfc8bf76fed3cb7641d3ad673a62306356975d831bcbb669f4f2d53736af9963b2ba005e2aee141073c1bc192a6b5f7c9687f0c985406b1fc6a10c97e22b52f85f0f7b87d7879a3d7d719621835c26a95abb0cca16c0da417ab23947a9a7972668a201de105b77aa5acb4e83a39de075f7fad32b240aed4bd8dada39aea8470c7c0785c6b7a3f9a0728083ebd0acfd734bb308cf83326f2eb45a0772bd6a370a808b7c60afd513122a81707b2b6d952491f9ef90867e8588478a91f387a539f2ead15509221b8002340ef15f03451d2affd84b9099dc6fc545b892cb7fbd427241e29a326149075931731b6084fbb39235679b0ceb8e582da5e969803539a651af36ad8653ae610f6789ccd603c12abe6b0f0ecd3f7c39140a877f2c95ee08eebcff2c89e50a7c5da7a661e078b67e3e5673262f89de929f1f36b873b645cda76cba29314b167404b11d218a198ab4a47490b180bff38a0fe1416460daa3ee2432138e6107bfa4b621bd066c086b1f030057631d754d17425ce62c226ddb7801641eef46da5b3f0567d9c9a92c8ff46c6d8c513bb2d37b45df88a53e76812488a4e058fecd9fababfad8d51296f8c38dac2d75db16478ff3367b3d7a7ceebc1b90172fcb27e7bba07c6a600b59815cbf148ae1c74d655b429e6b6d474232ca6138499506538ad50bc5ab1546c8466bc0e4f6138daefb462775afe4ed234e4704fe4f6986e5b6f55e8afed4ce1dc2fc07581b90689ea9188e0cdd74e308289bfcfb67d1a57b9c929fb789484f026b210e6075e74ee85c195557ba625a9ad63c4eec6db2dcbf04d79b2b4bf7d1553373ad5a2eec9827607b83b20d02b89a0e9a73057aecbd14f197385577cdb8ed0d16169b5e32693f93c4c7e4a5e8a9dfb7cd33bbf896c4a2ee9ddd182498e6d394fb37c4c61a87803e653862a722d90509de46e66d2f7df327b19ae2faacd9f949aa63fb12bf52c728a3e00b8877b02596cbac2fb54d3ee9161cc149d7d9ceff98c75917de78cb136187c049d4758bda48459b43e709f0a079b57a6c56cffcf8765a36af94a51f85fd8ea5008aa3be538b2bb90c0556e2b34ea04658363aedde2364e83b1208c48b87dd129df507eeb6dd5065132614160924ad9e562736090d88ccdc4ac21f662ac0dc8af3906b4601456e72debeaa91be5675d571b1463efdb21517c89b10b03eece4100fe17168971d4b44aa1237228bf520f8c4723cc13c3f5e840098ab3aa42a34b3c27c9b63283f4d3fcab555a5ffd8abe8ed6f3c9e19aaceb6c90273297beda49a47a6b290d3b9e63cc9625f6c36a276e5c4794d5d852a10823026099f7d945d96f15a32332111f54f8a6ab34b47925f16f389380ab1ddfbb7c32c9012bb67be172a5170273628e86bf0cb7c17fe4e5d7137adebc208c6217ce07a8b045b5dfd3b581e528883ffc29363b999601cb302d9cc43f4a58eada7428791702a52fc93fafea2d653501b0f017bdf3850bf7efbd612a25fb906b9f2d8cbc98efcd6db65931cbf0ae4a8cd5e175e7a27a7c10c29cebbd2858f4ea2ddc3d9a666266b59c4e79687981dcce68c6fb7c1a70f018e09068126d08158ae74c05a9a96db144e7dbb00e40823a62b4084238afc45d7c8d6b7c94755f3ce1eac16661dabf8bc23b0e86214c428e191be0cb86c821a25dd585b53f2d83ceed770cd5ed34a6fd7521bebd9c3db755ef9fb9d3ec4cbd64153dec01cb7de9967d7dd975a6faf457eaf13095d96fb2df31d33a5ab2a70d0f77ce8b8d7d565e97ca49887a73bbe44c87e05a53a84bf216df999211717729f446502f9a6335f28aa345cee1bece51b76ca4f79c13f423fd105f1ddbf2adb02a35199872e6f85b32e8b9b935d89ee50ef49c520d33ccaebbdd3e828f11dad7b22d23fd557de71607a775e06270f6e2b0df548fbf6fb4580597478a72d7aeb42b907ededb534702c013912b8b36c90211e514ec17fec7474f04f69abe925f8a363dc7f66b0420b7dbd051ee8c21a309ae7d3e015c5e07320413573f540b2e315a07561ff49218a88abb2fcb63bf692c44adfd6e75da98d36813e0eb23392c0d30489797bc83b3328cd5a48ace9e14b6e3c82848e61dc18a89aa4e1a5bc5eb7989df9cb197ff8860ea30ed4f4a0aeb218fef3b1dba529e71b5cee0cd81f30dd81cbd067f27254488be1096b8803cd39bcab78e876cbd0b7df1b4adc3adeb6b3eb5d15d55de88bd05eabcb7a3ada465d62e71a4ac9f3d9ee23968ecbcc15fcf588481500cdd1a1935fe1428eae3597c62f13c2c70d11ded99a6dfdde6bf4e3ee4f54938d89f7cf02c986d41deeb3bd69ba3a13524934d3662dae541a90b88d7872f495c34b0b937a0dfa13794a7299121d06c9197089c6c7041b2b373c58737899a2a9c0e8ebf109161724464e576983a5b3c1e6f00e191c2866738d969ac0c6c8dbe3f510151a1d1f282a2f4262656c7c8e8fafb8ccd5e3000000000000000000000000000000000f1d2c4001fd2105006fa8d056a81bf34c52da6c3699946bb9c411c265b9a0d777cff81561a05466534cf25cd06584e36001fdc623496a34352368505695dd28bfb824e4b63498597267d2bee3cfd3ea1f941e9203a66bb2153cb5900c84646270674e39c20c153fe5300363a36738552cee711cfcfe4074ad5d88728a0e0d7222229fa86b147cb6995ca50b750d2eb043e16138027608e696c5ad72723f4ae1d22918d395607a83679190b421f3c3a41b1b728179cb113c3a3281a309cb5eb3be6ef600cb310e104e8f08409da7b4f27d2a90192021711d2cd9a759eafbef713417bcddf278e459fa7138fb89f34807e2ead78e66d6e3812d0f54ad719b55c8a938b0e5d65e9998a86a4c84f4a4b5d3c82169f0ea8425d0f8c247b1a8d277fe8afc8c80733bf2d6002b2721a3917bdca8be085a598a60c0174accc4b196dff9e9651f5618d8ba40fb4c578c02ace1745c8846a826644b24f242c236d63316bdf6965fa188d8c352dff0fb3f874c924abc00ed85e801764ce2824790086f73ccc2a8b45abd0348bf6faa39b1a2b6530e99602b551ba8c61b5c2f2fa7083677e3db0fb4a0c1fc34cc5911ff127bbe3699c2ecc97126541d4c128e0754dd8edc8293984c722032502ae42034281590882ff431e24dc785be99d2f26999ffe5ccc210a9536562a616e632bd1ab0e54a8b5ed06003db2b7ef875564c9ad66a581c0647a29d6e38b4a1f266889c3a1df140f616b397a02a7cb0eb4ed160fce6a90efa9e1df96d536788b36841752d8fd32bfac2310c32a2c583b22abc4938927ed75a86c693a97a0c3eca0b81f7d034f1aef4bc204dad4241291c840e2fe01d49895a221950d3cd02392d7fd9f99d8b139250b0dc4888370174416f6d9bee018e3792abe8b9368f23ee224134ff98f0b0ccd25cd60bc56154e8698efaf0c74b9d1044969914cb07ed9102e9ddfaf804f6ceafca09f61725ad715929092cdf0703cd906bf9b7a9b929bca672793f2ee71701d1de464b645ca82d4d9cf21dfccee706a580ca58b2374d079441e216822ffbcfedd14a55892db991e054c86e2a87b8e86cc22a5087628f717f527c0d934e6d332277d37d30fe365997a7657e7125a9c79bdc118db02c088829e4fad4ea674d53c0436154842a302e29baed6e3761c064f68476c13d73b2394652feba66b673e3b1a639c9a2ac3cf0a4d9665c09f625c29a7ee95b6093fed83c4731de7d237931d501a82400f53fe2862a58d70005143161c018a2e56c920db0693b9dc7f8966d84494b1abd1e272f52d049e2501fc7a2208be9981b93c4e3aeb608d35b12cbebefd6be6c786cefbccf1c7238e81a9e92a3cdc7eb880b09259d064f3d4d8d061240540ee035aae27f4fdc5459ff4e4ff67caabec55a3ca7947e6686f854f4b1d8e000c7527235d5123b6bd7a8bd12cbe3e8048a8742364f6009935baa95701310dc99fcbdd866670d82b27cec2a2d5a2a9829c6839cd860a318176335cebeb7114a945ebf6b6d4703c14189ad8bee6822f015c0feb33c1bbc9207f6ac88ec7eb0d54cead3a4df36287d74803de6491949b2df19f679eda7b184ca781dfd6ef68c36d660c79534cd8d981aea6e99f41eb9982fe80cf052044db40a42d23f278e147da6aa5a41639d590bb681b558c316f75c4bbaad5c0fe4a8fd656cd1a14cb91c705789e653fe1a3121952a9fd53a249d4d967b8d6099f690fbd29369709f030933410bd3773e874e1bc314e2f94307a7c75289a94f8a6e2c4c7cc8b96307dc7b7168085ca1eea74944ded684f0e0de4f39d9b305d55eab68c778a56c9cffd7d5197c278e1870673a394d9b5c289721036cbd7116863a2ba7b4e167000000",
  "txid": "f74ff4a1c7f3f2ec23541e6846d474bd5cd87eb7d4ae696062b2ea3aea060971",
  "hash": "3797f11e1d646d82eeec0d9bc8a7d8920d629f3b3fdcfb5f7aa307dc4e6c25ec",
  "size": 5085,
  "vsize": 2278,
  "version": 1,
  "locktime": 103,
  "vin": [
    {
      "txid": "7fb4c18f0df1c9cac4f5f9c3013bba12b77a73f08887e706260edc7706a69bdb",
      "vout": 0,
      "scriptSig": {
        "asm": "",
        "hex": ""
      },
      "txinwitness": [
        "e80b1baa56e3b504ae83c1767f7fa0854cfe77e40db878d82e7491bc124505e253669b5a4d84c0e3e51b9fc6294060a1fd43019e8ebebb47288f2ca82a8cccf45984d51a62e04122fcafd3fa05eb2110fe4816a9aba2e9af2a4dc3e230bbef62c080e9ad79a91e22d090ccc04868512cc533c2a3ae6c43350faecde04d6876e88671ef1171347ba7b4d62ac7e30eec8aa00beeddab6311ddef50a0ed18f564ce989e242d12c2be7e83bcbac8001d579be488fc9380c04602589f4f5ab164a9482eab0afdb049404ebdd162ccece85c8b08c118a2a33d6d455fbd411aefbb00de086519ef7529c6b60e8825fe5f38d7411ddca2b20c4293e2633e0eb5f31c065ff4e73650506b3020952b8617772ebdbabb98c34779ace97285850032a4463892f703362d795ee357d59efd52a923bdca66043af2e683238a8d6fa4785cccda622e70629fdae43c6ab6b4e7a76ade3f4deda52294b87893fb3bcd3ec3ea6bf0ddf3f3aa7ffdf8c2f747dd9503a330c38aa8d00a2af538838869292d2f6b81da777862a792b98108633a23a0667e72b4e92e4df3fbe6e9e98cafecef7f78e30ae3d01c6179c8735ae52de1615383060d97c076e30224b00b912617bdc08554b513c56447070cf40290c919b4eed1ecfe94adf8f9a1d6a84ee326e4f846a776a30a14ad651f409c437d64d1aa73c212dfc66ffde55cc99fa4ef59b882f9891e1fdabd15477fc2420a2da8fc89de0d2ed0ab40506e70d2b1db1b9a89167913af52f1caf735f1770a039bb5cfcda8f73ee42dffc11e6863f2bc6f7a57e17165a970e70e1099bfd3f07c6c58b59b938b1e70b7c159478e39726bbfd76beb380dad172077fffdeda712e05401f955adacae32252a4444f14692899b9bbc95f9bffbcc011016e65962bfc8bf76fed3cb7641d3ad673a62306356975d831bcbb669f4f2d53736af9963b2ba005e2aee141073c1bc192a6b5f7c9687f0c985406b1fc6a10c97e22b52f85f0f7b87d7879a3d7d719621835c26a95abb0cca16c0da417ab23947a9a7972668a201de105b77aa5acb4e83a39de075f7fad32b240aed4bd8dada39aea8470c7c0785c6b7a3f9a0728083ebd0acfd734bb308cf83326f2eb45a0772bd6a370a808b7c60afd513122a81707b2b6d952491f9ef90867e8588478a91f387a539f2ead15509221b8002340ef15f03451d2affd84b9099dc6fc545b892cb7fbd427241e29a326149075931731b6084fbb39235679b0ceb8e582da5e969803539a651af36ad8653ae610f6789ccd603c12abe6b0f0ecd3f7c39140a877f2c95ee08eebcff2c89e50a7c5da7a661e078b67e3e5673262f89de929f1f36b873b645cda76cba29314b167404b11d218a198ab4a47490b180bff38a0fe1416460daa3ee2432138e6107bfa4b621bd066c086b1f030057631d754d17425ce62c226ddb7801641eef46da5b3f0567d9c9a92c8ff46c6d8c513bb2d37b45df88a53e76812488a4e058fecd9fababfad8d51296f8c38dac2d75db16478ff3367b3d7a7ceebc1b90172fcb27e7bba07c6a600b59815cbf148ae1c74d655b429e6b6d474232ca6138499506538ad50bc5ab1546c8466bc0e4f6138daefb462775afe4ed234e4704fe4f6986e5b6f55e8afed4ce1dc2fc07581b90689ea9188e0cdd74e308289bfcfb67d1a57b9c929fb789484f026b210e6075e74ee85c195557ba625a9ad63c4eec6db2dcbf04d79b2b4bf7d1553373ad5a2eec9827607b83b20d02b89a0e9a73057aecbd14f197385577cdb8ed0d16169b5e32693f93c4c7e4a5e8a9dfb7cd33bbf896c4a2ee9ddd182498e6d394fb37c4c61a87803e653862a722d90509de46e66d2f7df327b19ae2faacd9f949aa63fb12bf52c728a3e00b8877b02596cbac2fb54d3ee9161cc149d7d9ceff98c75917de78cb136187c049d4758bda48459b43e709f0a079b57a6c56cffcf8765a36af94a51f85fd8ea5008aa3be538b2bb90c0556e2b34ea04658363aedde2364e83b1208c48b87dd129df507eeb6dd5065132614160924ad9e562736090d88ccdc4ac21f662ac0dc8af3906b4601456e72debeaa91be5675d571b1463efdb21517c89b10b03eece4100fe17168971d4b44aa1237228bf520f8c4723cc13c3f5e840098ab3aa42a34b3c27c9b63283f4d3fcab555a5ffd8abe8ed6f3c9e19aaceb6c90273297beda49a47a6b290d3b9e63cc9625f6c36a276e5c4794d5d852a10823026099f7d945d96f15a32332111f54f8a6ab34b47925f16f389380ab1ddfbb7c32c9012bb67be172a5170273628e86bf0cb7c17fe4e5d7137adebc208c6217ce07a8b045b5dfd3b581e528883ffc29363b999601cb302d9cc43f4a58eada7428791702a52fc93fafea2d653501b0f017bdf3850bf7efbd612a25fb906b9f2d8cbc98efcd6db65931cbf0ae4a8cd5e175e7a27a7c10c29cebbd2858f4ea2ddc3d9a666266b59c4e79687981dcce68c6fb7c1a70f018e09068126d08158ae74c05a9a96db144e7dbb00e40823a62b4084238afc45d7c8d6b7c94755f3ce1eac16661dabf8bc23b0e86214c428e191be0cb86c821a25dd585b53f2d83ceed770cd5ed34a6fd7521bebd9c3db755ef9fb9d3ec4cbd64153dec01cb7de9967d7dd975a6faf457eaf13095d96fb2df31d33a5ab2a70d0f77ce8b8d7d565e97ca49887a73bbe44c87e05a53a84bf216df999211717729f446502f9a6335f28aa345cee1bece51b76ca4f79c13f423fd105f1ddbf2adb02a35199872e6f85b32e8b9b935d89ee50ef49c520d33ccaebbdd3e828f11dad7b22d23fd557de71607a775e06270f6e2b0df548fbf6fb4580597478a72d7aeb42b907ededb534702c013912b8b36c90211e514ec17fec7474f04f69abe925f8a363dc7f66b0420b7dbd051ee8c21a309ae7d3e015c5e07320413573f540b2e315a07561ff49218a88abb2fcb63bf692c44adfd6e75da98d36813e0eb23392c0d30489797bc83b3328cd5a48ace9e14b6e3c82848e61dc18a89aa4e1a5bc5eb7989df9cb197ff8860ea30ed4f4a0aeb218fef3b1dba529e71b5cee0cd81f30dd81cbd067f27254488be1096b8803cd39bcab78e876cbd0b7df1b4adc3adeb6b3eb5d15d55de88bd05eabcb7a3ada465d62e71a4ac9f3d9ee23968ecbcc15fcf588481500cdd1a1935fe1428eae3597c62f13c2c70d11ded99a6dfdde6bf4e3ee4f54938d89f7cf02c986d41deeb3bd69ba3a13524934d3662dae541a90b88d7872f495c34b0b937a0dfa13794a7299121d06c9197089c6c7041b2b373c58737899a2a9c0e8ebf109161724464e576983a5b3c1e6f00e191c2866738d969ac0c6c8dbe3f510151a1d1f282a2f4262656c7c8e8fafb8ccd5e3000000000000000000000000000000000f1d2c4001",
        "006fa8d056a81bf34c52da6c3699946bb9c411c265b9a0d777cff81561a05466534cf25cd06584e36001fdc623496a34352368505695dd28bfb824e4b63498597267d2bee3cfd3ea1f941e9203a66bb2153cb5900c84646270674e39c20c153fe5300363a36738552cee711cfcfe4074ad5d88728a0e0d7222229fa86b147cb6995ca50b750d2eb043e16138027608e696c5ad72723f4ae1d22918d395607a83679190b421f3c3a41b1b728179cb113c3a3281a309cb5eb3be6ef600cb310e104e8f08409da7b4f27d2a90192021711d2cd9a759eafbef713417bcddf278e459fa7138fb89f34807e2ead78e66d6e3812d0f54ad719b55c8a938b0e5d65e9998a86a4c84f4a4b5d3c82169f0ea8425d0f8c247b1a8d277fe8afc8c80733bf2d6002b2721a3917bdca8be085a598a60c0174accc4b196dff9e9651f5618d8ba40fb4c578c02ace1745c8846a826644b24f242c236d63316bdf6965fa188d8c352dff0fb3f874c924abc00ed85e801764ce2824790086f73ccc2a8b45abd0348bf6faa39b1a2b6530e99602b551ba8c61b5c2f2fa7083677e3db0fb4a0c1fc34cc5911ff127bbe3699c2ecc97126541d4c128e0754dd8edc8293984c722032502ae42034281590882ff431e24dc785be99d2f26999ffe5ccc210a9536562a616e632bd1ab0e54a8b5ed06003db2b7ef875564c9ad66a581c0647a29d6e38b4a1f266889c3a1df140f616b397a02a7cb0eb4ed160fce6a90efa9e1df96d536788b36841752d8fd32bfac2310c32a2c583b22abc4938927ed75a86c693a97a0c3eca0b81f7d034f1aef4bc204dad4241291c840e2fe01d49895a221950d3cd02392d7fd9f99d8b139250b0dc4888370174416f6d9bee018e3792abe8b9368f23ee224134ff98f0b0ccd25cd60bc56154e8698efaf0c74b9d1044969914cb07ed9102e9ddfaf804f6ceafca09f61725ad715929092cdf0703cd906bf9b7a9b929bca672793f2ee71701d1de464b645ca82d4d9cf21dfccee706a580ca58b2374d079441e216822ffbcfedd14a55892db991e054c86e2a87b8e86cc22a5087628f717f527c0d934e6d332277d37d30fe365997a7657e7125a9c79bdc118db02c088829e4fad4ea674d53c0436154842a302e29baed6e3761c064f68476c13d73b2394652feba66b673e3b1a639c9a2ac3cf0a4d9665c09f625c29a7ee95b6093fed83c4731de7d237931d501a82400f53fe2862a58d70005143161c018a2e56c920db0693b9dc7f8966d84494b1abd1e272f52d049e2501fc7a2208be9981b93c4e3aeb608d35b12cbebefd6be6c786cefbccf1c7238e81a9e92a3cdc7eb880b09259d064f3d4d8d061240540ee035aae27f4fdc5459ff4e4ff67caabec55a3ca7947e6686f854f4b1d8e000c7527235d5123b6bd7a8bd12cbe3e8048a8742364f6009935baa95701310dc99fcbdd866670d82b27cec2a2d5a2a9829c6839cd860a318176335cebeb7114a945ebf6b6d4703c14189ad8bee6822f015c0feb33c1bbc9207f6ac88ec7eb0d54cead3a4df36287d74803de6491949b2df19f679eda7b184ca781dfd6ef68c36d660c79534cd8d981aea6e99f41eb9982fe80cf052044db40a42d23f278e147da6aa5a41639d590bb681b558c316f75c4bbaad5c0fe4a8fd656cd1a14cb91c705789e653fe1a3121952a9fd53a249d4d967b8d6099f690fbd29369709f030933410bd3773e874e1bc314e2f94307a7c75289a94f8a6e2c4c7cc8b96307dc7b7168085ca1eea74944ded684f0e0de4f39d9b305d55eab68c778a56c9cffd7d5197c278e1870673a394d9b5c289721036cbd7116863a2ba7b4e1"
      ],
      "sequence": 4294967294
    }
  ],
  "vout": [
    {
      "value": 1.0,
      "n": 0,
      "scriptPubKey": {
        "asm": "OP_RETURN 1c598c358af19bad6776ce0e6ffdc5d25d0a4d9ea651cf2bc5ba1d5542a8f78f 227ea3025277afe4818e14672e400d8c59233b8e9f3918e064fbbff166ab2c68025e832272578fc4a1ae34470e602dac79031baebf1938c044db9fd1468b0c48623ee3421237efa4c1ce54276e004dcc19637bcedf7958a024bbffb126eb6c28421ec3623217cf84e1ee74074e206dec39435beeff597880049bdf9106cb4c08a2fe2382d2f72f64010e94e7aec08d0cd9a3bb0e1fb99860e47b3f71e62bace882de03a2f2d70f44212eb4c78ee0ad2cf9839b2e3f99b840c45b1f51c60b8cc8e2be63c292b76f24414ed4a7ee80cd4c99e3fb4e5ff9d820a43b7f31a66beca8c29e43e2b2974f04616ef487cea0ed6cb9c3db6e7fd9f800841b5f11864bcc88227ea3025277afe4818e14672e400d8c59233b8e9f3918e064fbbff166ab2c68025e832272578fc4a1ae34470e602dac79031baebf1938c044db9fd1468b0c48623ee3421237efa4c1ce54276e004dcc19637bcedf7958a024bbffb126eb6c28421ec3623217cf84e1ee74074e206dec39435beeff597880049bdf9106cb4c08a2fe2382d2f72f64010e94e7aec08d0cd9a3bb0e1fb99860e47b3f71e62bace882de03a2f2d70f44212eb4c78ee0ad2cf9839b2e3f99b840c45b1f51c60b8cc8e2be63c292b76f24414ed4a7ee80cd4c99e3fb4e5ff9d820a43b7f31a66beca8c29e43e2b2974f04616ef487cea0ed6cb9c3db6e7fd9f800841b5f11864bcc88227ea3025277afe4818e14672e400d8c59233b8e9f3918e064fbbff166ab2c68025e832272578fc4a1ae34470e602dac79031baebf1938c044db9fd1468b0c48623ee3421237efa4c1ce54276e004dcc19637bcedf7958a024bbffb126eb6c28421ec3623217cf84e1ee74074e206dec39435beeff597880049bdf9106cb4c08a2fe2382d2f72f64010e94e7aec08d0cd9a3bb0e1fb99860e47b3f71e62bace882de03a2f2d70f44212eb4c78ee0ad2cf9839b2e3f99b840c45b1f51c60b8cc8e2be63c292b76f24414ed4a7ee80cd4c99e3fb4e5ff9d820a43b7f31a66beca8c29e43e2b2974f04616ef487cea0ed6cb9c3db6e7fd9f800841b5f11864bcc88227ea3025277afe4818e14672e400d8c59233b8e9f3918e064fbbff166ab2c68025e832272578fc4a1ae34470e602dac79031baebf1938c044db9fd1468b0c48623ee3421237efa4c1ce54276e004dcc19637bcedf7958a024bbffb126eb6c28421ec3623217cf84e1ee74074e206dec39435beeff597880049bdf9106cb4c08a2fe2382d2f72f64010e94e7aec08d0cd9a3bb0e1fb99860e47b3f71e62bace882de03a2f2d70f44212eb4c78ee0ad2cf9839b2e3f99b840c45b1f51c60b8cc8e2be63c292b76f24414ed4a7ee80cd4c99e3fb4e5ff9d820a43b7f31a66beca8c29e43e2b2974f04616ef487cea0ed6cb9c3db6e7fd9f800841b5f11864bcc88227ea3025277afe4818e14672e400d8c59233b8e9f3918e064fbbff166ab2c68025e832272578fc4a1ae34470e602dac79031baebf1938c044db9fd1468b0c48623ee3421237efa4c1ce54276e004dcc19637bcedf7958a024bbffb126eb6c28421ec3623217cf84e1ee74074e206dec39435beeff597880049bdf9106cb4c08a2fe2382d2f72f64010e94e7aec08d0c0b6238a9a5271ad1ca8d435030358e50d8248902b0bcb54d4aa2df657703059e",
        "hex": "6a201c598c358af19bad6776ce0e6ffdc5d25d0a4d9ea651cf2bc5ba1d5542a8f78f4db004227ea3025277afe4818e14672e400d8c59233b8e9f3918e064fbbff166ab2c68025e832272578fc4a1ae34470e602dac79031baebf1938c044db9fd1468b0c48623ee3421237efa4c1ce54276e004dcc19637bcedf7958a024bbffb126eb6c28421ec3623217cf84e1ee74074e206dec39435beeff597880049bdf9106cb4c08a2fe2382d2f72f64010e94e7aec08d0cd9a3bb0e1fb99860e47b3f71e62bace882de03a2f2d70f44212eb4c78ee0ad2cf9839b2e3f99b840c45b1f51c60b8cc8e2be63c292b76f24414ed4a7ee80cd4c99e3fb4e5ff9d820a43b7f31a66beca8c29e43e2b2974f04616ef487cea0ed6cb9c3db6e7fd9f800841b5f11864bcc88227ea3025277afe4818e14672e400d8c59233b8e9f3918e064fbbff166ab2c68025e832272578fc4a1ae34470e602dac79031baebf1938c044db9fd1468b0c48623ee3421237efa4c1ce54276e004dcc19637bcedf7958a024bbffb126eb6c28421ec3623217cf84e1ee74074e206dec39435beeff597880049bdf9106cb4c08a2fe2382d2f72f64010e94e7aec08d0cd9a3bb0e1fb99860e47b3f71e62bace882de03a2f2d70f44212eb4c78ee0ad2cf9839b2e3f99b840c45b1f51c60b8cc8e2be63c292b76f24414ed4a7ee80cd4c99e3fb4e5ff9d820a43b7f31a66beca8c29e43e2b2974f04616ef487cea0ed6cb9c3db6e7fd9f800841b5f11864bcc88227ea3025277afe4818e14672e400d8c59233b8e9f3918e064fbbff166ab2c68025e832272578fc4a1ae34470e602dac79031baebf1938c044db9fd1468b0c48623ee3421237efa4c1ce54276e004dcc19637bcedf7958a024bbffb126eb6c28421ec3623217cf84e1ee74074e206dec39435beeff597880049bdf9106cb4c08a2fe2382d2f72f64010e94e7aec08d0cd9a3bb0e1fb99860e47b3f71e62bace882de03a2f2d70f44212eb4c78ee0ad2cf9839b2e3f99b840c45b1f51c60b8cc8e2be63c292b76f24414ed4a7ee80cd4c99e3fb4e5ff9d820a43b7f31a66beca8c29e43e2b2974f04616ef487cea0ed6cb9c3db6e7fd9f800841b5f11864bcc88227ea3025277afe4818e14672e400d8c59233b8e9f3918e064fbbff166ab2c68025e832272578fc4a1ae34470e602dac79031baebf1938c044db9fd1468b0c48623ee3421237efa4c1ce54276e004dcc19637bcedf7958a024bbffb126eb6c28421ec3623217cf84e1ee74074e206dec39435beeff597880049bdf9106cb4c08a2fe2382d2f72f64010e94e7aec08d0cd9a3bb0e1fb99860e47b3f71e62bace882de03a2f2d70f44212eb4c78ee0ad2cf9839b2e3f99b840c45b1f51c60b8cc8e2be63c292b76f24414ed4a7ee80cd4c99e3fb4e5ff9d820a43b7f31a66beca8c29e43e2b2974f04616ef487cea0ed6cb9c3db6e7fd9f800841b5f11864bcc88227ea3025277afe4818e14672e400d8c59233b8e9f3918e064fbbff166ab2c68025e832272578fc4a1ae34470e602dac79031baebf1938c044db9fd1468b0c48623ee3421237efa4c1ce54276e004dcc19637bcedf7958a024bbffb126eb6c28421ec3623217cf84e1ee74074e206dec39435beeff597880049bdf9106cb4c08a2fe2382d2f72f64010e94e7aec08d0c0b6238a9a5271ad1ca8d435030358e50d8248902b0bcb54d4aa2df657703059e",
        "type": "nulldata"
      }
    },
    {
      "value": 499995.9324,
      "n": 1,
      "scriptPubKey": {
        "asm": "1 f22e2fc3e8bbaed801f3b430864864429388784d77193e17154aa619b2ef60a1",
        "hex": "5120f22e2fc3e8bbaed801f3b430864864429388784d77193e17154aa619b2ef60a1",
        "reqSigs": 1,
        "type": "witness_v1_scripthash",
        "addresses": [
          "3QJmnh"
        ]
      }
    }
  ],
  "blockhash": "15af9b025c636b87e0a10c18a1a8de0e5f3c2069ad563b293161176d75df89a4",
  "confirmations": 1,
  "time": 1764174659,
  "blocktime": 1764174659
}