{
  "hex": "01000000000101900047bf845491452ca83320c1c4c93263dd2788e93cebf1965a4577c8eb84090100000000feffffff0200e1f50500000000fdd5046a208c2594d252a1006f6a6321f04c02beadb928021d7b8204f11f9d90e1929cee834db00402edc48763501911fc2cd9e516c552110bd1999cf5ac9851cc77a1aa3f1c948322cde4a743703931dc0cf9c536e572312bf1b9bcd58cb871ec57818a1f3cb4a342ad84c723105951bc6c99a5568512514b91d9dcb5ecd8118c37e1ea7f5cd4c3628da4e7033079719c4cb98576a532716bb1f9fc95ccf831ac17c1ca5f7cf4e3826d4407e3d099917cac59659645d2918b51191c752c18d14cf7212abf9c1403a24d6427c3f0b9b15c8c7945b665f2b1ab71393c550c38f16cd7010a9fbc3423c22d0447a390d9d13cec1925d60592d1cb11595c356c58910cb7616affdc5443e20d246783b0f9f11ccc3905f625b2f1eb31797c154c78b12c97414adffc746302edc48763501911fc2cd9e516c552110bd1999cf5ac9851cc77a1aa3f1c948322cde4a743703931dc0cf9c536e572312bf1b9bcd58cb871ec57818a1f3cb4a342ad84c723105951bc6c99a5568512514b91d9dcb5ecd8118c37e1ea7f5cd4c3628da4e7033079719c4cb98576a532716bb1f9fc95ccf831ac17c1ca5f7cf4e3826d4407e3d099917cac59659645d2918b51191c752c18d14cf7212abf9c1403a24d6427c3f0b9b15c8c7945b665f2b1ab71393c550c38f16cd7010a9fbc3423c22d0447a390d9d13cec1925d60592d1cb11595c356c58910cb7616affdc5443e20d246783b0f9f11ccc3905f625b2f1eb31797c154c78b12c97414adffc746302edc48763501911fc2cd9e516c552110bd1999cf5ac9851cc77a1aa3f1c948322cde4a743703931dc0cf9c536e572312bf1b9bcd58cb871ec57818a1f3cb4a342ad84c723105951bc6c99a5568512514b91d9dcb5ecd8118c37e1ea7f5cd4c3628da4e7033079719c4cb98576a532716bb1f9fc95ccf831ac17c1ca5f7cf4e3826d4407e3d099917cac59659645d2918b51191c752c18d14cf7212abf9c1403a24d6427c3f0b9b15c8c7945b665f2b1ab71393c550c38f16cd7010a9fbc3423c22d0447a390d9d13cec1925d60592d1cb11595c356c58910cb7616affdc5443e20d246783b0f9f11ccc3905f625b2f1eb31797c154c78b12c97414adffc746302edc48763501911fc2cd9e516c552110bd1999cf5ac9851cc77a1aa3f1c948322cde4a743703931dc0cf9c536e572312bf1b9bcd58cb871ec57818a1f3cb4a342ad84c723105951bc6c99a5568512514b91d9dcb5ecd8118c37e1ea7f5cd4c3628da4e7033079719c4cb98576a532716bb1f9fc95ccf831ac17c1ca5f7cf4e3826d4407e3d099917cac59659645d2918b51191c752c18d14cf7212abf9c1403a24d6427c3f0b9b15c8c7945b665f2b1ab71393c550c38f16cd7010a9fbc3423c22d0447a390d9d13cec1925d60592d1cb11595c356c58910cb7616affdc5443e20d246783b0f9f11ccc3905f625b2f1eb31797c154c78b12c97414adffc746302edc48763501911fc2cd9e516c552110bd1999cf5ac9851cc77a1aa3f1c948322cde4a743703931dc0cf9c536e572312bf1b9bcd58cb871ec57818a1f3cb4a342ad84c723105951bc6c99a5568512514b91d9dcb5ecd8118c37e1ea7f5cd4c3628da4e7033079719c4cb98576a532716bb1f9fc95ccf831ac17c1ca5f7cf4e3826d4407e3d099917cac59659645d291b26fc2c928f03c3cf9512683e0475eec0ca30a6d8d297c2633a04f26f5d08709407886de782d00002251203e8c2585b77526ce982b1c5f70565258c6096b770a75229e2ffa4bd802ecaf8602fd7509dc291ca760f855df03c8a36e42f67922a5ddd79b339d383dd0a27806ab0b25c2e98c4554a887ae13f62b9bcc6e530a5dd40f2754c1d3855a5c8c3ac5d498ac9d201aa21607a56600e9f5a5afc18e39a3b200d5560b85eaf76b7d5302d5f18408f718c676626b67ea37d0be9c6712346020a83cbeb8ab5e4ff802b55f4d9ed4e60b391796b2fa78a104c3ee6f3ccaf13f3b94982e0095345ed179e5529680fd0a0fee32e7da2adb5a15ea8b2dfb9bcfcde19b7714eb3012267eca5f89406fd44b44f06c6f73b744f0013919f041f7842eb19575cb5918c89cefcb2823dbb10a2ba82ef1b636fe9b7e6481dfda156c5e6d0b26f0eac1b7447449454d1a38e9582d24c13eb09cbd795729eca57a86dd69a08bec0ecfc00bf595acbcc4b5445bb0a4f99c76714649a5ee9884623297a9a0d3f8357d122cc71a6af86be8e2ab4ae663648375cc5cc138bb6ead55c6baf0ed1aaf96390204b8cc8737a79e3b3fb5f0c059ea7dfcd66732f7ab42cc9a8a976c547ab2de136576e5bb1362bbf0ddc0e359cad965b372fc3c76bb6263bde3746b198f46787159ae6eea6e02351f8a25db9ece01baf9d10c1e291e8899ff94defc7ca977418a090e655c68d03839d28a0664e3df62d6b25186016977e8843acd077705af8e0b99305d8a196e6ebd342118abedf63134e8e5719e89f85f08ca6d4afdce7dda2d640a5508a5088f2256a21a099df6ce1186d38b84c1b261ecfbba41e62bb3b732618b7c9f01daf732cb9cc51788c9f743f02e7360ba1036a77a60ac7b0b036b552939022361da3e7270f24c61fd9948ac0118c63d627ffbdf5adf71bb33fc2d04ef01d79976638e4656b4297b5edd65e61428a3198f065e2fca8a5b072f747d725b989c937a6bcf3b094721f54ed7c181f0a69589f8435a5d9e084674a78a918c67b3e302e313b03009d5af80aaf4be7fb9e1f58815d29df93b8c3199826fcf120bf1d3930df662d53b966e0770238b7ec6edb346460396e37f4d042d6692332ee74e9f2232fcdd582036aa5cfdba32c69bdb2135621e4262e055b89ce95effc15d4a83df2e8506098951e1a6cb2bd17c8178d31695a1e0946b3bf0dab45329345b31ebcc8da3ecb696f7c644fb0519cfc1625cc728cfa2f941965ecca04e45546ee63a7a9a9148cc524a576601679d21429f7de1f221f66e8c08228d59dfe1773ac3a23b8864756601b197296ed00887cab86a899544af6f05b7415e6d13c9cad2b0d55486069bf0ef52065646328a66a506d20373622b1a11e58e84fb041ad8f95da286adfd449b0c81c063b230996f0bc18c369f3bb92f36866edfe1cb7393989b505aa8d62ed7a02fe7efaed3e3d16947c7679cbb5765ccf6e47dc4ec85888635dde1e0928a5b0494b08b702afcdac77c75963d9e0acf79deeea88a8bd4f45671340717b67ffca6a1e3a4fb1ab0c80a18626688cf9dcc347830dda53663e7d052efa985cd4bf0d19218f500fe205d84830caec9ac9c33064e9a9a71ab8e796d01de183669169bc3003b7305a3dfe2cbf38c14691211860556c949c2819381577d294960a8d4b6255fb7cb6c75c4ed6594e3a62f5593aaae97682a5e4584b02974b8ea41501cfc916187eeff3b73781b7bf8b627eb0f36bb1dd9a6a126cabbf7197e255fa9447eddcbcb8af792c4fa83fdc859e51438e76e1ef6f8a5f642ca923294d016108231f633da569c5909b6ad3d4eb34792338cb4d3aef0d677639fd194d656eafbd2ad01e9872ceb2192ca82ea48b6781e137183c41e5d69c66d7399a5ddb8ff7e1b076d7a724dff68e4f5055388c7838b2fa6e67fa117488e5fb77a47071ce4f5e9ffec488ab012548946f38a252c26653ca7d5ff618aa664f7ae7f67a534f944ecf755efc8e15e1b410f5a5980249d6bba3b022bdd143f657cb579a71eee6026d00f24e09e30d220f98035a10896c95e5b1b7c99e0e48bd85ef7b32afff92a4f7f88c16d4f3626424c3e188bfb18a1bb03ff64b32e36404bf305a5abc011f9e784bdcecb4378ca4f693b6f1f18b291d115027130eab1c0387e5bf6b5312fe6e1216f04ce9ec43bb99f37b732eca3c59cc98ef4e05969ba817fe9475ebc8559b8333ffec6db715348ecd2f6a637f1e5652113041466bf304d5ea46d1d11790c11ae0f386e79a19778b903be13ec651b64da2b4941380040440211b29a6100c84c247a6e0c103f0e0964c46ab64d404e380e96e2baed4de0cbe6349738e06c50216319e3c8031df71dac357315fccb7a21a37e6a031986b23894b0bf365de6dd43bfd1a3bee0c9cf391d342182ed4f2960c69729b6aad5cd81e459e01cbcbd37952d79049cb3b580f14cd37160c03d111efc27cbe5528d5a2bd6b3e6c3010a0d1a6c6e9a3204b4bf4360600b10a3ac6655a67a2a3e7701a68c87538250fb750c916eab17db9b33da30e2bbcdbf7c7ddc024973c5de468fad1c87b4cc2ea584bd3b8fe5e839922f73c329ea916a90fe573365cc8ed6ab171eb499fc678a00d4f4d653b96b22a0beb7fd50e863b3968a976595919792b157fd070778729580a662f74ab5cdf5f7a59b4c3cee8fbdd84412627d658c33f1da6c24b855755b830746a78ba4f2f97b4fd8e9236b8f49f6a12a2e2ad9925f706a00ee459f8e0ded751e3f2e4b08584e71f5a0f139d7a46756c901d56cfe588217feb31715bf47dea69e5030cc5872411e8d08c5abf51cd0faf173a4b0161171c9b430b9e5e4d7de1469b3e85acf16ca22588764a1080af03ac50d8cadc89c9910d7f7c2970f2a7137d99e7620d60b73cb9d872af9fd158693119b861e3f36fb700efacbfd023da926e892e7cc56aec62fc315676fbb9007b3068dbd28f5be239b7210af89a3984ef14b5671af27f636c4d9806a3e60d72859be102710185878dcac0ce3d49bd62e3334f0635a89743734961f59f17335cfeba60f563e7cc31cbfc24b7de4004dc142123a8ee26bc855d6cbd386572299f83b1e48d5169c137383346f6e05bb58c636e5c5d9620711857784264b7f79a850fd37ca2da63e9a7b37656b507383ae0c265351128c17e8968cf46b21c73c46c95c1f3c310ff41fd949511127fe2b7a197fc153ff2ec96a8efc956c9969d5c597df08761903709f1d85c260e82383960e2ae61b4b43cbf50264dadbd5442a79b46ac5f250a9aa6b8c335535368649001467424f5037e17fe2e2f36a53f2078287888b4378b1175edea1da3e35922e0467b414c769c159cc8620ad9f609089ecc1a70f9775fc3ebe9d7047131d9c456cc3b846ed22163e663a4f14183152767c8b939aa4aab6c6e7edfd0c1217254d8091929facbbbfd2090e1020242e31454c51535e627e82879294a6b1c2e3f0f1fe0813253e5f73768d979b9c9ecbcfe7fe00000000000000000000101d364601fd21050087a7dac69e6475ee98cc198c037272d4d0e15698ea289e96792e59bc98e5cf1080f80904d40aa2ba4674e2ebdef1bc8c503e72484458088ca6599ad3bbc24573961cf03c541d9500db4339222dee67d765d0a815f439e7e26572e91701f6b0bf11a0bb64d3ad765abbd62b1a3d6ccd68ce54e209369bd1ffb7d13abb4a39b65ba89829a5e0f8e6b8fbfe60e0c269d5edad3c70c9dabc1d0b9493031ddee8a43e6cb0c3252fc72f18989c50b6e1dc1ac0f5793ea8cc03ca39223e92f838f2d07d4ef04b15b9f80a967b8f124fbb35e1d232997aa78eb6c4a5c490ff0c0940c341e425ad722549702a18f10450ad523a35d442c3a24c1767837ef20a30652e9aee7a6a3c35df974872f9088acf1121d31f09f728232efa7f5418fd09ab02fa61bf7d6ec64593320777e1a0b92513162758bc1949c7e6f7f857ade6cc636e017f9cfab311ad95031d959d94ca9c20b151025f39173af79ce8761d96845ee8d219dd5516f96b4b226eaf56716865f74b7f969e518c29bbee6134ccc4055001b37cf5b3084904ac3b3e29504c11c78b9798630af0d49cad86a7c7cf2324e6a946cbaed84b05d921d6e62c33d5c118a4b483388f77f5075b1c2b4ab7b027f098b76eeb8ae443dd88f1f616746e3944a00c05d64f3f87b37556c9444f787da30ba78ca2aadcd34ff9f6ab3cbfe7bdaf643d83115583930fc7d20ac957e7bd9faf1b22a46916d7e2471cb44d8a045da1227cb75ad6ede34681590e6dac680f324e31087704a1962a275b356fe510adba78516f64b019545fd2e76ce3a3b728fc25062c7cd14ef97d32e1feb8ec4983a77bc74a612a711febd44d4ac4081c7e59e6fe2865486df298b433ba30b5c1f405613ddbad71ba9138be0cca64f22435f78488a5fde9f4f0d21b391fc4e14aaf7da232213ec3f0ed906ff37a83c64a34accf3de34a8cb0ff97c701d11f7c0b0854f8a80661dab403c978a5e5022f73f643997e21a2ee00909253f07eb0bfdc59c516005624e8f9cd02d585fd63eba2123df5c2d37cb9942c054d3d905111b906b501e1ce6654cd3ee5d69d046d6d4f84b9ac0de70a2bc04c3f38013c1e864c8d3538f65eb431421e8c435f6cd74009b3df87a9df3f157b4e63489d936ce68ecd18419028ddd4de5035f4002aea88b91c05e8fdbfda4e569743c5a92027f13eeeab7142515c1553db4b91e33d1918063937693940ad4489e74cdcbe546edff60417f579c935c842cb33660c88019badffa94b31b31efce0330128db703a5afbe4b26e2b34f992e6d4d06714bc70c13e31d78b7ede334be382c20c8735e99d5acdba929c6302428b2733989fb8ccc43f4b927f2d5dc23a5c4216f6e613f80d1f0dec1922361c2452940ad154d1bd70fe6a7d393c60e29761798353825a6285c1f70efcaf29d55f84ade8b844377a5aa319be6dcef5e6f83e557774e06817a7cf62b3b430584e988376c18d35f6cce113af84c8cfee843ae5652e299b5d8c28f3a4cc9141d213d6b4333f7fd43d120128e77269f691720bf25b48e012b188000e7f3b11b64abdc49d515b5546209a3a26975ec27b94cc9a47bcf71f6ffd585d31f15c4eda254ca82d70a0d36f0609772ee56295ca372dee3a2f7ad7e91117c165fb41992f7c94802292cfb7ac652d19747d7344bc76a0b4c0ae61f963377ba15d7f806a438b4beb35c1daa031e3269ce703cd9d0f69885b56ebdcc26d1ef62bb89bbb2a11e0af0680551fba509fd953e140eadd9682f3d08951d522f2d75e1e94b12a15fd8a2709b1b0ee442314fccf3827d56d3efa53a0b92354777ed0d7c6a95075781357261919d3ce63d21b0e379a550886c4447082000000",
  "txid": "fa4ff5be3ab980f42669ee88fec92a841b30b7d30271a5d56e5aa8402971bbd4",
  "hash": "67c2d14054b86738ffff849c59f5f8a4ac8c5735663a0fc76a6e9dcab032e8b1",
  "size": 5085,
  "vsize": 2278,
  "version": 1,
  "locktime": 130,
  "vin": [
    {
      "txid": "0984ebc877455a96f1eb3ce98827dd6332c9c4c12033a82c45915484bf470090",
      "vout": 1,
      "scriptSig": {
        "asm": "",
        "hex": ""
      },
      "txinwitness": [
        "dc291ca760f855df03c8a36e42f67922a5ddd79b339d383dd0a27806ab0b25c2e98c4554a887ae13f62b9bcc6e530a5dd40f2754c1d3855a5c8c3ac5d498ac9d201aa21607a56600e9f5a5afc18e39a3b200d5560b85eaf76b7d5302d5f18408f718c676626b67ea37d0be9c6712346020a83cbeb8ab5e4ff802b55f4d9ed4e60b391796b2fa78a104c3ee6f3ccaf13f3b94982e0095345ed179e5529680fd0a0fee32e7da2adb5a15ea8b2dfb9bcfcde19b7714eb3012267eca5f89406fd44b44f06c6f73b744f0013919f041f7842eb19575cb5918c89cefcb2823dbb10a2ba82ef1b636fe9b7e6481dfda156c5e6d0b26f0eac1b7447449454d1a38e9582d24c13eb09cbd795729eca57a86dd69a08bec0ecfc00bf595acbcc4b5445bb0a4f99c76714649a5ee9884623297a9a0d3f8357d122cc71a6af86be8e2ab4ae663648375cc5cc138bb6ead55c6baf0ed1aaf96390204b8cc8737a79e3b3fb5f0c059ea7dfcd66732f7ab42cc9a8a976c547ab2de136576e5bb1362bbf0ddc0e359cad965b372fc3c76bb6263bde3746b198f46787159ae6eea6e02351f8a25db9ece01baf9d10c1e291e8899ff94defc7ca977418a090e655c68d03839d28a0664e3df62d6b25186016977e8843acd077705af8e0b99305d8a196e6ebd342118abedf63134e8e5719e89f85f08ca6d4afdce7dda2d640a5508a5088f2256a21a099df6ce1186d38b84c1b261ecfbba41e62bb3b732618b7c9f01daf732cb9cc51788c9f743f02e7360ba1036a77a60ac7b0b036b552939022361da3e7270f24c61fd9948ac0118c63d627ffbdf5adf71bb33fc2d04ef01d79976638e4656b4297b5edd65e61428a3198f065e2fca8a5b072f747d725b989c937a6bcf3b094721f54ed7c181f0a69589f8435a5d9e084674a78a918c67b3e302e313b03009d5af80aaf4be7fb9e1f58815d29df93b8c3199826fcf120bf1d3930df662d53b966e0770238b7ec6edb346460396e37f4d042d6692332ee74e9f2232fcdd582036aa5cfdba32c69bdb2135621e4262e055b89ce95effc15d4a83df2e8506098951e1a6cb2bd17c8178d31695a1e0946b3bf0dab45329345b31ebcc8da3ecb696f7c644fb0519cfc1625cc728cfa2f941965ecca04e45546ee63a7a9a9148cc524a576601679d21429f7de1f221f66e8c08228d59dfe1773ac3a23b8864756601b197296ed00887cab86a899544af6f05b7415e6d13c9cad2b0d55486069bf0ef52065646328a66a506d20373622b1a11e58e84fb041ad8f95da286adfd449b0c81c063b230996f0bc18c369f3bb92f36866edfe1cb7393989b505aa8d62ed7a02fe7efaed3e3d16947c7679cbb5765ccf6e47dc4ec85888635dde1e0928a5b0494b08b702afcdac77c75963d9e0acf79deeea88a8bd4f45671340717b67ffca6a1e3a4fb1ab0c80a18626688cf9dcc347830dda53663e7d052efa985cd4bf0d19218f500fe205d84830caec9ac9c33064e9a9a71ab8e796d01de183669169bc3003b7305a3dfe2cbf38c14691211860556c949c2819381577d294960a8d4b6255fb7cb6c75c4ed6594e3a62f5593aaae97682a5e4584b02974b8ea41501cfc916187eeff3b73781b7bf8b627eb0f36bb1dd9a6a126cabbf7197e255fa9447eddcbcb8af792c4fa83fdc859e51438e76e1ef6f8a5f642ca923294d016108231f633da569c5909b6ad3d4eb34792338cb4d3aef0d677639fd194d656eafbd2ad01e9872ceb2192ca82ea48b6781e137183c41e5d69c66d7399a5ddb8ff7e1b076d7a724dff68e4f5055388c7838b2fa6e67fa117488e5fb77a47071ce4f5e9ffec488ab012548946f38a252c26653ca7d5ff618aa664f7ae7f67a534f944ecf755efc8e15e1b410f5a5980249d6bba3b022bdd143f657cb579a71eee6026d00f24e09e30d220f98035a10896c95e5b1b7c99e0e48bd85ef7b32afff92a4f7f88c16d4f3626424c3e188bfb18a1bb03ff64b32e36404bf305a5abc011f9e784bdcecb4378ca4f693b6f1f18b291d115027130eab1c0387e5bf6b5312fe6e1216f04ce9ec43bb99f37b732eca3c59cc98ef4e05969ba817fe9475ebc8559b8333ffec6db715348ecd2f6a637f1e5652113041466bf304d5ea46d1d11790c11ae0f386e79a19778b903be13ec651b64da2b4941380040440211b29a6100c84c247a6e0c103f0e0964c46ab64d404e380e96e2baed4de0cbe6349738e06c50216319e3c8031df71dac357315fccb7a21a37e6a031986b23894b0bf365de6dd43bfd1a3bee0c9cf391d342182ed4f2960c69729b6aad5cd81e459e01cbcbd37952d79049cb3b580f14cd37160c03d111efc27cbe5528d5a2bd6b3e6c3010a0d1a6c6e9a3204b4bf4360600b10a3ac6655a67a2a3e7701a68c87538250fb750c916eab17db9b33da30e2bbcdbf7c7ddc024973c5de468fad1c87b4cc2ea584bd3b8fe5e839922f73c329ea916a90fe573365cc8ed6ab171eb499fc678a00d4f4d653b96b22a0beb7fd50e863b3968a976595919792b157fd070778729580a662f74ab5cdf5f7a59b4c3cee8fbdd84412627d658c33f1da6c24b855755b830746a78ba4f2f97b4fd8e9236b8f49f6a12a2e2ad9925f706a00ee459f8e0ded751e3f2e4b08584e71f5a0f139d7a46756c901d56cfe588217feb31715bf47dea69e5030cc5872411e8d08c5abf51cd0faf173a4b0161171c9b430b9e5e4d7de1469b3e85acf16ca22588764a1080af03ac50d8cadc89c9910d7f7c2970f2a7137d99e7620d60b73cb9d872af9fd158693119b861e3f36fb700efacbfd023da926e892e7cc56aec62fc315676fbb9007b3068dbd28f5be239b7210af89a3984ef14b5671af27f636c4d9806a3e60d72859be102710185878dcac0ce3d49bd62e3334f0635a89743734961f59f17335cfeba60f563e7cc31cbfc24b7de4004dc142123a8ee26bc855d6cbd386572299f83b1e48d5169c137383346f6e05bb58c636e5c5d9620711857784264b7f79a850fd37ca2da63e9a7b37656b507383ae0c265351128c17e8968cf46b21c73c46c95c1f3c310ff41fd949511127fe2b7a197fc153ff2ec96a8efc956c9969d5c597df08761903709f1d85c260e82383960e2ae61b4b43cbf50264dadbd5442a79b46ac5f250a9aa6b8c335535368649001467424f5037e17fe2e2f36a53f2078287888b4378b1175edea1da3e35922e0467b414c769c159cc8620ad9f609089ecc1a70f9775fc3ebe9d7047131d9c456cc3b846ed22163e663a4f14183152767c8b939aa4aab6c6e7edfd0c1217254d8091929facbbbfd2090e1020242e31454c51535e627e82879294a6b1c2e3f0f1fe0813253e5f73768d979b9c9ecbcfe7fe00000000000000000000101d364601",
        "0087a7dac69e6475ee98cc198c037272d4d0e15698ea289e96792e59bc98e5cf1080f80904d40aa2ba4674e2ebdef1bc8c503e72484458088ca6599ad3bbc24573961cf03c541d9500db4339222dee67d765d0a815f439e7e26572e91701f6b0bf11a0bb64d3ad765abbd62b1a3d6ccd68ce54e209369bd1ffb7d13abb4a39b65ba89829a5e0f8e6b8fbfe60e0c269d5edad3c70c9dabc1d0b9493031ddee8a43e6cb0c3252fc72f18989c50b6e1dc1ac0f5793ea8cc03ca39223e92f838f2d07d4ef04b15b9f80a967b8f124fbb35e1d232997aa78eb6c4a5c490ff0c0940c341e425ad722549702a18f10450ad523a35d442c3a24c1767837ef20a30652e9aee7a6a3c35df974872f9088acf1121d31f09f728232efa7f5418fd09ab02fa61bf7d6ec64593320777e1a0b92513162758bc1949c7e6f7f857ade6cc636e017f9cfab311ad95031d959d94ca9c20b151025f39173af79ce8761d96845ee8d219dd5516f96b4b226eaf56716865f74b7f969e518c29bbee6134ccc4055001b37cf5b3084904ac3b3e29504c11c78b9798630af0d49cad86a7c7cf2324e6a946cbaed84b05d921d6e62c33d5c118a4b483388f77f5075b1c2b4ab7b027f098b76eeb8ae443dd88f1f616746e3944a00c05d64f3f87b37556c9444f787da30ba78ca2aadcd34ff9f6ab3cbfe7bdaf643d83115583930fc7d20ac957e7bd9faf1b22a46916d7e2471cb44d8a045da1227cb75ad6ede34681590e6dac680f324e31087704a1962a275b356fe510adba78516f64b019545fd2e76ce3a3b728fc25062c7cd14ef97d32e1feb8ec4983a77bc74a612a711febd44d4ac4081c7e59e6fe2865486df298b433ba30b5c1f405613ddbad71ba9138be0cca64f22435f78488a5fde9f4f0d21b391fc4e14aaf7da232213ec3f0ed906ff37a83c64a34accf3de34a8cb0ff97c701d11f7c0b0854f8a80661dab403c978a5e5022f73f643997e21a2ee00909253f07eb0bfdc59c516005624e8f9cd02d585fd63eba2123df5c2d37cb9942c054d3d905111b906b501e1ce6654cd3ee5d69d046d6d4f84b9ac0de70a2bc04c3f38013c1e864c8d3538f65eb431421e8c435f6cd74009b3df87a9df3f157b4e63489d936ce68ecd18419028ddd4de5035f4002aea88b91c05e8fdbfda4e569743c5a92027f13eeeab7142515c1553db4b91e33d1918063937693940ad4489e74cdcbe546edff60417f579c935c842cb33660c88019badffa94b31b31efce0330128db703a5afbe4b26e2b34f992e6d4d06714bc70c13e31d78b7ede334be382c20c8735e99d5acdba929c6302428b2733989fb8ccc43f4b927f2d5dc23a5c4216f6e613f80d1f0dec1922361c2452940ad154d1bd70fe6a7d393c60e29761798353825a6285c1f70efcaf29d55f84ade8b844377a5aa319be6dcef5e6f83e557774e06817a7cf62b3b430584e988376c18d35f6cce113af84c8cfee843ae5652e299b5d8c28f3a4cc9141d213d6b4333f7fd43d120128e77269f691720bf25b48e012b188000e7f3b11b64abdc49d515b5546209a3a26975ec27b94cc9a47bcf71f6ffd585d31f15c4eda254ca82d70a0d36f0609772ee56295ca372dee3a2f7ad7e91117c165fb41992f7c94802292cfb7ac652d19747d7344bc76a0b4c0ae61f963377ba15d7f806a438b4beb35c1daa031e3269ce703cd9d0f69885b56ebdcc26d1ef62bb89bbb2a11e0af0680551fba509fd953e140eadd9682f3d08951d522f2d75e1e94b12a15fd8a2709b1b0ee442314fccf3827d56d3efa53a0b92354777ed0d7c6a95075781357261919d3ce63d21b0e379a550886c44470"
      ],
      "sequence": 4294967294
    }
  ],
  "vout": [
    {
      "value": 1.0,
      "n": 0,
      "scriptPubKey": {
        "asm": "OP_RETURN 8c2594d252a1006f6a6321f04c02beadb928021d7b8204f11f9d90e1929cee83 02edc48763501911fc2cd9e516c552110bd1999cf5ac9851cc77a1aa3f1c948322cde4a743703931dc0cf9c536e572312bf1b9bcd58cb871ec57818a1f3cb4a342ad84c723105951bc6c99a5568512514b91d9dcb5ecd8118c37e1ea7f5cd4c3628da4e7033079719c4cb98576a532716bb1f9fc95ccf831ac17c1ca5f7cf4e3826d4407e3d099917cac59659645d2918b51191c752c18d14cf7212abf9c1403a24d6427c3f0b9b15c8c7945b665f2b1ab71393c550c38f16cd7010a9fbc3423c22d0447a390d9d13cec1925d60592d1cb11595c356c58910cb7616affdc5443e20d246783b0f9f11ccc3905f625b2f1eb31797c154c78b12c97414adffc746302edc48763501911fc2cd9e516c552110bd1999cf5ac9851cc77a1aa3f1c948322cde4a743703931dc0cf9c536e572312bf1b9bcd58cb871ec57818a1f3cb4a342ad84c723105951bc6c99a5568512514b91d9dcb5ecd8118c37e1ea7f5cd4c3628da4e7033079719c4cb98576a532716bb1f9fc95ccf831ac17c1ca5f7cf4e3826d4407e3d099917cac59659645d2918b51191c752c18d14cf7212abf9c1403a24d6427c3f0b9b15c8c7945b665f2b1ab71393c550c38f16cd7010a9fbc3423c22d0447a390d9d13cec1925d60592d1cb11595c356c58910cb7616affdc5443e20d246783b0f9f11ccc3905f625b2f1eb31797c154c78b12c97414adffc746302edc48763501911fc2cd9e516c552110bd1999cf5ac9851cc77a1aa3f1c948322cde4a743703931dc0cf9c536e572312bf1b9bcd58cb871ec57818a1f3cb4a342ad84c723105951bc6c99a5568512514b91d9dcb5ecd8118c37e1ea7f5cd4c3628da4e7033079719c4cb98576a532716bb1f9fc95ccf831ac17c1ca5f7cf4e3826d4407e3d099917cac59659645d2918b51191c752c18d14cf7212abf9c1403a24d6427c3f0b9b15c8c7945b665f2b1ab71393c550c38f16cd7010a9fbc3423c22d0447a390d9d13cec1925d60592d1cb11595c356c58910cb7616affdc5443e20d246783b0f9f11ccc3905f625b2f1eb31797c154c78b12c97414adffc746302edc48763501911fc2cd9e516c552110bd1999cf5ac9851cc77a1aa3f1c948322cde4a743703931dc0cf9c536e572312bf1b9bcd58cb871ec57818a1f3cb4a342ad84c723105951bc6c99a5568512514b91d9dcb5ecd8118c37e1ea7f5cd4c3628da4e7033079719c4cb98576a532716bb1f9fc95ccf831ac17c1ca5f7cf4e3826d4407e3d099917cac59659645d2918b51191c752c18d14cf7212abf9c1403a24d6427c3f0b9b15c8c7945b665f2b1ab71393c550c38f16cd7010a9fbc3423c22d0447a390d9d13cec1925d60592d1cb11595c356c58910cb7616affdc5443e20d246783b0f9f11ccc3905f625b2f1eb31797c154c78b12c97414adffc746302edc48763501911fc2cd9e516c552110bd1999cf5ac9851cc77a1aa3f1c948322cde4a743703931dc0cf9c536e572312bf1b9bcd58cb871ec57818a1f3cb4a342ad84c723105951bc6c99a5568512514b91d9dcb5ecd8118c37e1ea7f5cd4c3628da4e7033079719c4cb98576a532716bb1f9fc95ccf831ac17c1ca5f7cf4e3826d4407e3d099917cac59659645d291b26fc2c928f03c3cf9512683e0475eec0ca30a6d8d297c2633a04f26f5d08709",
        "hex": "6a208c2594d252a1006f6a6321f04c02beadb928021d7b8204f11f9d90e1929cee834db00402edc48763501911fc2cd9e516c552110bd1999cf5ac9851cc77a1aa3f1c948322cde4a743703931dc0cf9c536e572312bf1b9bcd58cb871ec57818a1f3cb4a342ad84c723105951bc6c99a5568512514b91d9dcb5ecd8118c37e1ea7f5cd4c3628da4e7033079719c4cb98576a532716bb1f9fc95ccf831ac17c1ca5f7cf4e3826d4407e3d099917cac59659645d2918b51191c752c18d14cf7212abf9c1403a24d6427c3f0b9b15c8c7945b665f2b1ab71393c550c38f16cd7010a9fbc3423c22d0447a390d9d13cec1925d60592d1cb11595c356c58910cb7616affdc5443e20d246783b0f9f11ccc3905f625b2f1eb31797c154c78b12c97414adffc746302edc48763501911fc2cd9e516c552110bd1999cf5ac9851cc77a1aa3f1c948322cde4a743703931dc0cf9c536e572312bf1b9bcd58cb871ec57818a1f3cb4a342ad84c723105951bc6c99a5568512514b91d9dcb5ecd8118c37e1ea7f5cd4c3628da4e7033079719c4cb98576a532716bb1f9fc95ccf831ac17c1ca5f7cf4e3826d4407e3d099917cac59659645d2918b51191c752c18d14cf7212abf9c1403a24d6427c3f0b9b15c8c7945b665f2b1ab71393c550c38f16cd7010a9fbc3423c22d0447a390d9d13cec1925d60592d1cb11595c356c58910cb7616affdc5443e20d246783b0f9f11ccc3905f625b2f1eb31797c154c78b12c97414adffc746302edc48763501911fc2cd9e516c552110bd1999cf5ac9851cc77a1aa3f1c948322cde4a743703931dc0cf9c536e572312bf1b9bcd58cb871ec57818a1f3cb4a342ad84c723105951bc6c99a5568512514b91d9dcb5ecd8118c37e1ea7f5cd4c3628da4e7033079719c4cb98576a532716bb1f9fc95ccf831ac17c1ca5f7cf4e3826d4407e3d099917cac59659645d2918b51191c752c18d14cf7212abf9c1403a24d6427c3f0b9b15c8c7945b665f2b1ab71393c550c38f16cd7010a9fbc3423c22d0447a390d9d13cec1925d60592d1cb11595c356c58910cb7616affdc5443e20d246783b0f9f11ccc3905f625b2f1eb31797c154c78b12c97414adffc746302edc48763501911fc2cd9e516c552110bd1999cf5ac9851cc77a1aa3f1c948322cde4a743703931dc0cf9c536e572312bf1b9bcd58cb871ec57818a1f3cb4a342ad84c723105951bc6c99a5568512514b91d9dcb5ecd8118c37e1ea7f5cd4c3628da4e7033079719c4cb98576a532716bb1f9fc95ccf831ac17c1ca5f7cf4e3826d4407e3d099917cac59659645d2918b51191c752c18d14cf7212abf9c1403a24d6427c3f0b9b15c8c7945b665f2b1ab71393c550c38f16cd7010a9fbc3423c22d0447a390d9d13cec1925d60592d1cb11595c356c58910cb7616affdc5443e20d246783b0f9f11ccc3905f625b2f1eb31797c154c78b12c97414adffc746302edc48763501911fc2cd9e516c552110bd1999cf5ac9851cc77a1aa3f1c948322cde4a743703931dc0cf9c536e572312bf1b9bcd58cb871ec57818a1f3cb4a342ad84c723105951bc6c99a5568512514b91d9dcb5ecd8118c37e1ea7f5cd4c3628da4e7033079719c4cb98576a532716bb1f9fc95ccf831ac17c1ca5f7cf4e3826d4407e3d099917cac59659645d291b26fc2c928f03c3cf9512683e0475eec0ca30a6d8d297c2633a04f26f5d08709",
        "type": "nulldata"
      }
    },
    {
      "value": 499971.5268,
      "n": 1,
      "scriptPubKey": {
        "asm": "1 3e8c2585b77526ce982b1c5f70565258c6096b770a75229e2ffa4bd802ecaf86",
        "hex": "51203e8c2585b77526ce982b1c5f70565258c6096b770a75229e2ffa4bd802ecaf86",
        "reqSigs": 1,
        "type": "witness_v1_scripthash",
        "addresses": [
          "3QJmnh"
        ]
      }
    }
  ],
  "blockhash": "a9a7ce638639648c5b111e15e0d4489535a11a846f6b50fba3b7e2925471654c",
  "confirmations": 1,
  "time": 1764182153,
  "blocktime": 1764182153
}