{
  "hex": "0100000000010104497e76727a919efc584a3845e8a517bca7f6e2c04334962a306271e02d9eeb0000000000feffffff02a020df63792d000022512049bff499ead5f5c5f13b9387010b5cd70308468e178877cce3aa86675ae36d3200e1f50500000000fdd5046a20549bd8b28f5241e6569e722ce0664dc10087bd11ef1a36a00cb05f84422a3c4a4db0043e69bb0c7bcbda331ca6de05408c5490a7d755810021dbfac2fddaad616e43361e499b2c5bebfa133c86fe2560ac74b087f775a12001fbdae2ddfa8d414e63167e29fb4c3b8b9a735ce69e4500cc14d0e79715c140619bba82bd9aed212e03765e09db6c1babba537cc6be6520ec34f0c7b735e16041bb9aa29dbacd010e2356bee93b8cfb4b5ab39c265e85c00cd4102757d50180a15b7a427d5a2de1eec3b69ec91bacdb6b7a93bc067ea5e02cf4300777f521a0817b5a625d7a0dc1cee396fea97bccbb0b1af3dc661ec5804c945067179541c0e11b3a023d1a6da1ae83f6de895bec9b2b3ad3fc463ee5a06cb4704737b561e0c13b1a221d3a4d818ea3d63e69bb0c7bcbda331ca6de05408c5490a7d755810021dbfac2fddaad616e43361e499b2c5bebfa133c86fe2560ac74b087f775a12001fbdae2ddfa8d414e63167e29fb4c3b8b9a735ce69e4500cc14d0e79715c140619bba82bd9aed212e03765e09db6c1babba537cc6be6520ec34f0c7b735e16041bb9aa29dbacd010e2356bee93b8cfb4b5ab39c265e85c00cd4102757d50180a15b7a427d5a2de1eec3b69ec91bacdb6b7a93bc067ea5e02cf4300777f521a0817b5a625d7a0dc1cee396fea97bccbb0b1af3dc661ec5804c945067179541c0e11b3a023d1a6da1ae83f6de895bec9b2b3ad3fc463ee5a06cb4704737b561e0c13b1a221d3a4d818ea3d63e69bb0c7bcbda331ca6de05408c5490a7d755810021dbfac2fddaad616e43361e499b2c5bebfa133c86fe2560ac74b087f775a12001fbdae2ddfa8d414e63167e29fb4c3b8b9a735ce69e4500cc14d0e79715c140619bba82bd9aed212e03765e09db6c1babba537cc6be6520ec34f0c7b735e16041bb9aa29dbacd010e2356bee93b8cfb4b5ab39c265e85c00cd4102757d50180a15b7a427d5a2de1eec3b69ec91bacdb6b7a93bc067ea5e02cf4300777f521a0817b5a625d7a0dc1cee396fea97bccbb0b1af3dc661ec5804c945067179541c0e11b3a023d1a6da1ae83f6de895bec9b2b3ad3fc463ee5a06cb4704737b561e0c13b1a221d3a4d818ea3d63e69bb0c7bcbda331ca6de05408c5490a7d755810021dbfac2fddaad616e43361e499b2c5bebfa133c86fe2560ac74b087f775a12001fbdae2ddfa8d414e63167e29fb4c3b8b9a735ce69e4500cc14d0e79715c140619bba82bd9aed212e03765e09db6c1babba537cc6be6520ec34f0c7b735e16041bb9aa29dbacd010e2356bee93b8cfb4b5ab39c265e85c00cd4102757d50180a15b7a427d5a2de1eec3b69ec91bacdb6b7a93bc067ea5e02cf4300777f521a0817b5a625d7a0dc1cee396fea97bccbb0b1af3dc661ec5804c945067179541c0e11b3a023d1a6da1ae83f6de895bec9b2b3ad3fc463ee5a06cb4704737b561e0c13b1a221d3a4d818ea3d63e69bb0c7bcbda331ca6de05408c5490a7d755810021dbfac2fddaad616e43361e499b2c5bebfa133c86fe2560ac74b087f775a12001fbdae2ddfa8d414e63167e29fb4c3b8b9a735ce69e4500cc14d0e79715c140619bba82bd9aed212e03765e09db6c1babba537cc6be6520ec34f0c7b735e16041bb9aa29dbacd010e2356bee93b8cfb4b5ab39c265e85c00cd41040ecd6082eccb34d7e0bce08f0ce5e8ab40ae8e2b0b289acc08376172958c99302fd7509e291b0df899e46d2eb09398c678a6d9b31864e8670e85b1a33fe44b270d6d31c1356ab4251580f1541a606a43da5503ff36f5a71bfd9f450a06494f9d0b9c51cd7dc42d0cf79e7c364c15521e07671e2746365af75bf26b3ce7a646302030b6cbb82bbfe6bfb9c11d49838e8d0ec0ec5d2d8fbee1bed185bcce9913aa1197fa4e290c674bf3f504a6f38e80b0f6139a5f49750696f0a978df90bed6e2fd40580c7f2d3e7fe7f00a677088bca7c440ffcaa1c6444a3bd70f971b9154fe50c16c0c8df561199b45a7584ae824eb80002696108a52039d7d7d204191d6e645f4cae1c440ea8d2310fb880aeb2012ee9e1b4af66dbfec26fc7dc892d470d021d75669592cad5462e4b55c560ff5d1cb6e3ea42afebdc98674e2099e3b42e593063f317099a2bb825a5b2e92bf666ce2636967b4275bf4569ff61e986ce5c6057d1bc039e31d90eca5c42d7b2b18c5c6cef029ed92d48aacb8dca680f0b1f70db8586d1f561ce674898d3a30e0416fda7966fd0bca804d092f4386e502740042e6bd61c710bf14b81718c5188b3d067da9c107f7792a70b1e76690f35cbdb6a9b747baec46910549f929ba74396d35015d341c53bf0249596900e7d487d55deb6dab3ea1b731039112c9456e93d55f81e5ec711f5f71094620f07f4238c6a0889a91d00a1237506808b829df3bb9c8951007197db027db74c3048b1c726f50fda005c0fafd381122b0c5f48420652cfc378978feaabc3a2400713fa3d10e7b3de6914b7970af84754688ff75a334963768b5ebb8441430fbba69bc83e87419e5ea25172a5f1c20bd92d39b370072255733adad3a5708bdb6a2bc510e350bd302c9464e81cd27bec9091eb2b1a771e00c89eaf3a5c45e7337c279d8703a8ae1899d749ae2bc8926ae3218a7bff6c6bfe9b36f994d732a0d6694f4751c03595e8a26819a15a7bee44c34d055bd5052f083a24714d611e3dc4162eab5a3276bf4f0a7871fee52c03917fb32bed4b56f97aa6ae419689e0142941bfaf83c785dde4f7f5b06afa877b338cfb36447f19631ac57edc6da6653b2ab9b867e1f2a2405eb2585ee9976114ef6b1441e9f82eb4927f295851d09f552952c78fb9341d76f46c913f96218e5cce96aa5284ad53d3b1e60c8cbd4cad4eaa937288ecfa22e0c5cffdc4e4e58e6ec63cac69db9102358c314f32647a97e40cec031468faa7fb07f20dc7cd3c44444fc4fb7e313a5857f5ba4a2012826f08c9d5a49aba37e289cf160acf463e6ea5e2962f2d6250b5d3647a8df938152384bef84309abf987b0b2725e96597f5ed35e08b2fafc8941770cc9a76f7abb04cdfd3bde47d8389bced8d1a78ec72be218d88479fc64bdba33884f3e9801a4e9f1a7c6fe8ce901012f9a5ef0aabce9525ca3f2980e6b8e16a54018345023aeb5969b61181e8e9768b857fa39a14cd6374aba7738e6e1dd273096370a1f0b0463bc8866ff28dec85f2e0c2b24b778a6441b3ccc2b284d60c26bb57c864ea78983dc7ecae15f40d24ef8b4a56f9fe4f485255ab2a9a46629d4607a9fcd73d8f4a62b7baf51a1dc403a4799664d2993dd9ef4cf0468ec415503aa242c19c2f8a5e6bbf88343c0e37a50bfcc25950783479e0ce1f632e3e0b480ce2129bab00e13ae27897f1e7aae85be738ec0c19a0c7de77fa6a8202345528e3f99390d8125156a4bffa5b410ccbb61a6cb86ccb38e3c5fe1f7366d4dbd3e0ab6facec2fd857accb1d3e8e97fa092538ed341b6709f5732a68f0dc28de96a123fda0b936b92927eb11d60684f591b29374651b4ef94c36a9bdec75103ee30f1fe36b53fe72751b7965f39d50a94bee90420079c5243b1204a09511d8a282d9925a9719b33e32c40040a0a7a6ffa5de29738862b669bb5e84e1dd53096be2728899e9414e4f8c2d32317cc06762b3e9d1b71a2cc318927f2b8f8c6a68a38a641eb8502e52621f9ef091b05f57b334192a67d3cedbb7a284174c8ad3ce7bc9d53fb8215e0854320f21a6b3593e0557759b82d773806f617d1b8313dab60c3cff080d0dd801607b9c1e92d40909cf1af7aa9f446226a8ce3dfe2b3e44296d5319fd9fb9d43150987f28a00c26baa333a6de3159dfae24968c1d954c1cad3e87ca3ed3a085fc76a1ab7e33f1a7569176745f33f081cb2eadd1c830bd16e457b6e84b387f0c514d104d83c9ee9b0489043af50dc2e18dc69119db9ff05a6ebde4fd709b75e43988ea998718d7ef6fe69265c04aee4941677f83ee7c9edc40c13a43188fcd03197b28458ba9d3674eba049b514775afdeccdc0d4212edfdbe7183653360e4e6ace12b734e910e59a6703bda43b1d428f2cd4777d89b26e13fe7f94f9207823750ae3ad95b67eb4b28140e0c15c42b84989e609e1df8f499011e752420cd99b977b6e060f0115199e38acee36e5a0b86964d2bd0a1e1ff69130c029e401ee2d78508f0dcfc1f49da42e42131883d2f82c7397cdfb44ded3bda4a086723cb594582767ce1aaef276dae263d4b4793919cd5c3c77f10e41dae92b6946f188daa4890b931d62fa20ade8ab659933aa4872debe83a6d716937d54250c680f2ebe194d67dfb55152988f46d6ceba3d3b3468186b72dc4ae4e70c2fbc15f3a039d6047c5c65c613114608abb96fdb336e32d01e9b40aca4867f378cac5927cfd689a4d80ccb8077cff9fb7ae1915f5a422253b9f1ea63886b5fcad9b7a6b355a1d1ebea312482a1bf32780b4ba53cbff76223c074d4528437f9d0153d7e0322e55004bb50afa2878ae809e59ae49f9bc259586e098835f5cb2cb820186924d5472aad66c5d3d949f4f6afb6bb02d612cd3de5d2850024cf93a2a3c0b433ce83d087940c4ec50cfa9c7ce3ec6dc43657e519bef530080d0865bb1fe944e0aa3914d6de40e9e8d9c9e849d31a9c113e0bb4411ea66b7e330788b75b9c6ce5306588fddd100472ff2072c1bfccfe00598415df03b2ac480f797d3297bcad1388f054c482c7450ae71e6810616fb789bfcd3399d3c1c975e2491b56c5e6f15b88e54034e0876b99a2f75b5e2f665d72a82f5c217df1df95d346219c0e038642632ed653a1172ee3218fb044a86b8e77a1e0b81bcd9d401458660bee45ff851657110811cd48f73a84f33209164373ff76ab79eefac3a0e923e9b2835a78e8c03e719815d53461f8ca65165b454d284d8bbfe0bd3bfaf1ac8ce50eff7abdb4bfc11359823978318feda9aa49ae8ca32f4d0f561ac9dadc33db841c1ab7aa658c48bbcb2677226096aa861cacc5650f830d22921d4223882234374b636b73758d959ea5a7aab0bbccd1dbf8fc14283239414756757998a3aab6c0c4cccddcee1f2e464e535e6365abaeb2cdd0d1d9e3ecf7fd00141e2e585e666f77878d96b7c3ebeff70000000015283b4c01fd210500fa01c95120fae7a6f57d5a2086b97f44941f96e8e8af5d79ed2038be182aa4031db33aa402bb1d91d0598fd55ec73558638cc93823547275209aa32162f848d2acd9427ec2b6324265eb71481347192c9fb70c61e8a349a3c50f13a5d80b9533ef42fe303a4092e241a161de5fac9e6403596df3e1e41655fbf6dabba536db38cf9586a3a895ef48ec11c4e31b5ef4ad85cda0feb8adfe073d0849c445b5bb188e9f381ae8efda0653b21baff5cfb5f7e7980d7c4cb022f1874c7d32965b8eb16b47fbae68d4fc0cc8c4b96856c5466371bc5e11a992d8830f09df90970420feab49fa82ceffdf5c209183d76e0d5bb931c468f573a69a033b0727dcf68588bd42eb4e4865fd4bb94d5da499a65c1cc036df4301412bf74f34291734978765c60b5d52fae5983634eb887514ffd1523dc8fb6b9db298ae56282aae6d5cead7011aa678c3335a35cb2ef8af56f14e7415c312b70bd14a33ba2fa868226575928b687fe8f872a367feed074234cda1f25a32280cb3b4b70f2d1369b50cd3e503c73ad64a2877dcee25a7bbe1777e5fe122d8e43cd1b6d9bf9a03a28712a6e766dc7a07b215d88df8f630c68de8d5057bb49c322d414a12ade034635f3f23ab6a99b6a4ea50e61d09c516c9c1dc73aa17328eabc5e850c498b39021ed28eb2cd3358e9cfe52a94c7f0679fe89310ac197b225f8d83f93c3ad6513aa1993f879760910f437227dda70de3ff8a9f4647448f1a8848997d9f89c4ebd4aebbd25771f3377204503326e1b82681a6b8e635e19b5e358bb0ebecf80fd94450bd0187bcb9029fc61ecc66f5c5424d7f80a8f6269ed2b6a844650d05232b8389d702b1e3059f7c4eab2659328326cfba53090fb2bde34fecbbf51c00034d988b230a82518cb9c0a220eef31515666c9d9b9f5b9ca13cf7e7664b006f22fef375cbc82918511e16b64e7c1e498bef495fe89e91cfc859037db5cfd93567578729b017b202da2ba26d8a8ddf0c6e552931e166a371165f094d3f84157ad3fc9b608cd99bcf2871e5b2194cd774a6ddfb4dc92c5b0dac5c8b5e55be8cd6d6d7977a78a9ddc4261c719d74e11c3ebe012daf1ce201262a66b8dc4fb1efb3bbe398f940bb242fa6b7f88ec5932d8982676112d8cd5a34227519b511bf7fb2484b32b0fbbee518550b9d7a6ad2a689a6d37e1bcf23509eae80c039977e9b1f5d1147beb3bb722a8119ff00cd3bd512252978da4722a1ac8bf6c188f168dded16bf8c84eefdb5ba4247ef44bbb88ef61e9b4b2b329e3a784931a73f18d831f1392cb86509f85478eec1429c2aa52c110905d6efa13cfeffbd28d8ca110fcd6e90449532ca5be7f602cf2cd6ab15aa230df14980635a4390fb8d0ec287ff18637eaf3d3fcd600166405a22d21be2aac566aa313671010b4d9826052d280c5deff5afd2aa48f8f2d9c41d968ac9f1aa8ea7ec6c4a4d929fbcc52cb0d3b67ca88789585087d6cd012419814fa88ed93cbc549bfce90cc5d2b53710a16c0dbed41db2ca2eb791464c6c66e0680fe786cb7d14bf76e92eb460efbc175e1743dd14c8a2fd2040f7882267e4d8d477a543481047f04c899da76f271fbb3a2bca7b8aa47a5a293cf04ce07da61e5aa3a851c422d3ae56fc36934a464c43d3e66f7fdaf0977ffa628a2ae69570633e6c1c6c44b103b40562641383df33ef4155e9ae7756c0f23fc330e18a5f139a84924bf2e5299ce7319c1d5ba3b4f3b32cbeb9d59c1a94fab5149cc2c96a723f686c566e19ad23a091c420dbccbc639c4c1b63ad235b5f4e35bf0b4ea6d68ab057b78f325c4c3d4f5bb68bb916b4415b6e6de24a386ef40318054fbfc56c3d668000000",
  "txid": "f2d3980e86f812e05415bac2737f26c5803f70a610ce5736171499d1f9d8a8bf",
  "hash": "b99d417bc70bde971a585cdd4c71402b7841f42117e7facf20381fcc5c83d6e4",
  "size": 5085,
  "vsize": 2278,
  "version": 1,
  "locktime": 104,
  "vin": [
    {
      "txid": "eb9e2de07162302a963443c0e2f6a7bc17a5e845384a58fc9e917a72767e4904",
      "vout": 0,
      "scriptSig": {
        "asm": "",
        "hex": ""
      },
      "txinwitness": [
        "e291b0df899e46d2eb09398c678a6d9b31864e8670e85b1a33fe44b270d6d31c1356ab4251580f1541a606a43da5503ff36f5a71bfd9f450a06494f9d0b9c51cd7dc42d0cf79e7c364c15521e07671e2746365af75bf26b3ce7a646302030b6cbb82bbfe6bfb9c11d49838e8d0ec0ec5d2d8fbee1bed185bcce9913aa1197fa4e290c674bf3f504a6f38e80b0f6139a5f49750696f0a978df90bed6e2fd40580c7f2d3e7fe7f00a677088bca7c440ffcaa1c6444a3bd70f971b9154fe50c16c0c8df561199b45a7584ae824eb80002696108a52039d7d7d204191d6e645f4cae1c440ea8d2310fb880aeb2012ee9e1b4af66dbfec26fc7dc892d470d021d75669592cad5462e4b55c560ff5d1cb6e3ea42afebdc98674e2099e3b42e593063f317099a2bb825a5b2e92bf666ce2636967b4275bf4569ff61e986ce5c6057d1bc039e31d90eca5c42d7b2b18c5c6cef029ed92d48aacb8dca680f0b1f70db8586d1f561ce674898d3a30e0416fda7966fd0bca804d092f4386e502740042e6bd61c710bf14b81718c5188b3d067da9c107f7792a70b1e76690f35cbdb6a9b747baec46910549f929ba74396d35015d341c53bf0249596900e7d487d55deb6dab3ea1b731039112c9456e93d55f81e5ec711f5f71094620f07f4238c6a0889a91d00a1237506808b829df3bb9c8951007197db027db74c3048b1c726f50fda005c0fafd381122b0c5f48420652cfc378978feaabc3a2400713fa3d10e7b3de6914b7970af84754688ff75a334963768b5ebb8441430fbba69bc83e87419e5ea25172a5f1c20bd92d39b370072255733adad3a5708bdb6a2bc510e350bd302c9464e81cd27bec9091eb2b1a771e00c89eaf3a5c45e7337c279d8703a8ae1899d749ae2bc8926ae3218a7bff6c6bfe9b36f994d732a0d6694f4751c03595e8a26819a15a7bee44c34d055bd5052f083a24714d611e3dc4162eab5a3276bf4f0a7871fee52c03917fb32bed4b56f97aa6ae419689e0142941bfaf83c785dde4f7f5b06afa877b338cfb36447f19631ac57edc6da6653b2ab9b867e1f2a2405eb2585ee9976114ef6b1441e9f82eb4927f295851d09f552952c78fb9341d76f46c913f96218e5cce96aa5284ad53d3b1e60c8cbd4cad4eaa937288ecfa22e0c5cffdc4e4e58e6ec63cac69db9102358c314f32647a97e40cec031468faa7fb07f20dc7cd3c44444fc4fb7e313a5857f5ba4a2012826f08c9d5a49aba37e289cf160acf463e6ea5e2962f2d6250b5d3647a8df938152384bef84309abf987b0b2725e96597f5ed35e08b2fafc8941770cc9a76f7abb04cdfd3bde47d8389bced8d1a78ec72be218d88479fc64bdba33884f3e9801a4e9f1a7c6fe8ce901012f9a5ef0aabce9525ca3f2980e6b8e16a54018345023aeb5969b61181e8e9768b857fa39a14cd6374aba7738e6e1dd273096370a1f0b0463bc8866ff28dec85f2e0c2b24b778a6441b3ccc2b284d60c26bb57c864ea78983dc7ecae15f40d24ef8b4a56f9fe4f485255ab2a9a46629d4607a9fcd73d8f4a62b7baf51a1dc403a4799664d2993dd9ef4cf0468ec415503aa242c19c2f8a5e6bbf88343c0e37a50bfcc25950783479e0ce1f632e3e0b480ce2129bab00e13ae27897f1e7aae85be738ec0c19a0c7de77fa6a8202345528e3f99390d8125156a4bffa5b410ccbb61a6cb86ccb38e3c5fe1f7366d4dbd3e0ab6facec2fd857accb1d3e8e97fa092538ed341b6709f5732a68f0dc28de96a123fda0b936b92927eb11d60684f591b29374651b4ef94c36a9bdec75103ee30f1fe36b53fe72751b7965f39d50a94bee90420079c5243b1204a09511d8a282d9925a9719b33e32c40040a0a7a6ffa5de29738862b669bb5e84e1dd53096be2728899e9414e4f8c2d32317cc06762b3e9d1b71a2cc318927f2b8f8c6a68a38a641eb8502e52621f9ef091b05f57b334192a67d3cedbb7a284174c8ad3ce7bc9d53fb8215e0854320f21a6b3593e0557759b82d773806f617d1b8313dab60c3cff080d0dd801607b9c1e92d40909cf1af7aa9f446226a8ce3dfe2b3e44296d5319fd9fb9d43150987f28a00c26baa333a6de3159dfae24968c1d954c1cad3e87ca3ed3a085fc76a1ab7e33f1a7569176745f33f081cb2eadd1c830bd16e457b6e84b387f0c514d104d83c9ee9b0489043af50dc2e18dc69119db9ff05a6ebde4fd709b75e43988ea998718d7ef6fe69265c04aee4941677f83ee7c9edc40c13a43188fcd03197b28458ba9d3674eba049b514775afdeccdc0d4212edfdbe7183653360e4e6ace12b734e910e59a6703bda43b1d428f2cd4777d89b26e13fe7f94f9207823750ae3ad95b67eb4b28140e0c15c42b84989e609e1df8f499011e752420cd99b977b6e060f0115199e38acee36e5a0b86964d2bd0a1e1ff69130c029e401ee2d78508f0dcfc1f49da42e42131883d2f82c7397cdfb44ded3bda4a086723cb594582767ce1aaef276dae263d4b4793919cd5c3c77f10e41dae92b6946f188daa4890b931d62fa20ade8ab659933aa4872debe83a6d716937d54250c680f2ebe194d67dfb55152988f46d6ceba3d3b3468186b72dc4ae4e70c2fbc15f3a039d6047c5c65c613114608abb96fdb336e32d01e9b40aca4867f378cac5927cfd689a4d80ccb8077cff9fb7ae1915f5a422253b9f1ea63886b5fcad9b7a6b355a1d1ebea312482a1bf32780b4ba53cbff76223c074d4528437f9d0153d7e0322e55004bb50afa2878ae809e59ae49f9bc259586e098835f5cb2cb820186924d5472aad66c5d3d949f4f6afb6bb02d612cd3de5d2850024cf93a2a3c0b433ce83d087940c4ec50cfa9c7ce3ec6dc43657e519bef530080d0865bb1fe944e0aa3914d6de40e9e8d9c9e849d31a9c113e0bb4411ea66b7e330788b75b9c6ce5306588fddd100472ff2072c1bfccfe00598415df03b2ac480f797d3297bcad1388f054c482c7450ae71e6810616fb789bfcd3399d3c1c975e2491b56c5e6f15b88e54034e0876b99a2f75b5e2f665d72a82f5c217df1df95d346219c0e038642632ed653a1172ee3218fb044a86b8e77a1e0b81bcd9d401458660bee45ff851657110811cd48f73a84f33209164373ff76ab79eefac3a0e923e9b2835a78e8c03e719815d53461f8ca65165b454d284d8bbfe0bd3bfaf1ac8ce50eff7abdb4bfc11359823978318feda9aa49ae8ca32f4d0f561ac9dadc33db841c1ab7aa658c48bbcb2677226096aa861cacc5650f830d22921d4223882234374b636b73758d959ea5a7aab0bbccd1dbf8fc14283239414756757998a3aab6c0c4cccddcee1f2e464e535e6365abaeb2cdd0d1d9e3ecf7fd00141e2e585e666f77878d96b7c3ebeff70000000015283b4c01",
        "00fa01c95120fae7a6f57d5a2086b97f44941f96e8e8af5d79ed2038be182aa4031db33aa402bb1d91d0598fd55ec73558638cc93823547275209aa32162f848d2acd9427ec2b6324265eb71481347192c9fb70c61e8a349a3c50f13a5d80b9533ef42fe303a4092e241a161de5fac9e6403596df3e1e41655fbf6dabba536db38cf9586a3a895ef48ec11c4e31b5ef4ad85cda0feb8adfe073d0849c445b5bb188e9f381ae8efda0653b21baff5cfb5f7e7980d7c4cb022f1874c7d32965b8eb16b47fbae68d4fc0cc8c4b96856c5466371bc5e11a992d8830f09df90970420feab49fa82ceffdf5c209183d76e0d5bb931c468f573a69a033b0727dcf68588bd42eb4e4865fd4bb94d5da499a65c1cc036df4301412bf74f34291734978765c60b5d52fae5983634eb887514ffd1523dc8fb6b9db298ae56282aae6d5cead7011aa678c3335a35cb2ef8af56f14e7415c312b70bd14a33ba2fa868226575928b687fe8f872a367feed074234cda1f25a32280cb3b4b70f2d1369b50cd3e503c73ad64a2877dcee25a7bbe1777e5fe122d8e43cd1b6d9bf9a03a28712a6e766dc7a07b215d88df8f630c68de8d5057bb49c322d414a12ade034635f3f23ab6a99b6a4ea50e61d09c516c9c1dc73aa17328eabc5e850c498b39021ed28eb2cd3358e9cfe52a94c7f0679fe89310ac197b225f8d83f93c3ad6513aa1993f879760910f437227dda70de3ff8a9f4647448f1a8848997d9f89c4ebd4aebbd25771f3377204503326e1b82681a6b8e635e19b5e358bb0ebecf80fd94450bd0187bcb9029fc61ecc66f5c5424d7f80a8f6269ed2b6a844650d05232b8389d702b1e3059f7c4eab2659328326cfba53090fb2bde34fecbbf51c00034d988b230a82518cb9c0a220eef31515666c9d9b9f5b9ca13cf7e7664b006f22fef375cbc82918511e16b64e7c1e498bef495fe89e91cfc859037db5cfd93567578729b017b202da2ba26d8a8ddf0c6e552931e166a371165f094d3f84157ad3fc9b608cd99bcf2871e5b2194cd774a6ddfb4dc92c5b0dac5c8b5e55be8cd6d6d7977a78a9ddc4261c719d74e11c3ebe012daf1ce201262a66b8dc4fb1efb3bbe398f940bb242fa6b7f88ec5932d8982676112d8cd5a34227519b511bf7fb2484b32b0fbbee518550b9d7a6ad2a689a6d37e1bcf23509eae80c039977e9b1f5d1147beb3bb722a8119ff00cd3bd512252978da4722a1ac8bf6c188f168dded16bf8c84eefdb5ba4247ef44bbb88ef61e9b4b2b329e3a784931a73f18d831f1392cb86509f85478eec1429c2aa52c110905d6efa13cfeffbd28d8ca110fcd6e90449532ca5be7f602cf2cd6ab15aa230df14980635a4390fb8d0ec287ff18637eaf3d3fcd600166405a22d21be2aac566aa313671010b4d9826052d280c5deff5afd2aa48f8f2d9c41d968ac9f1aa8ea7ec6c4a4d929fbcc52cb0d3b67ca88789585087d6cd012419814fa88ed93cbc549bfce90cc5d2b53710a16c0dbed41db2ca2eb791464c6c66e0680fe786cb7d14bf76e92eb460efbc175e1743dd14c8a2fd2040f7882267e4d8d477a543481047f04c899da76f271fbb3a2bca7b8aa47a5a293cf04ce07da61e5aa3a851c422d3ae56fc36934a464c43d3e66f7fdaf0977ffa628a2ae69570633e6c1c6c44b103b40562641383df33ef4155e9ae7756c0f23fc330e18a5f139a84924bf2e5299ce7319c1d5ba3b4f3b32cbeb9d59c1a94fab5149cc2c96a723f686c566e19ad23a091c420dbccbc639c4c1b63ad235b5f4e35bf0b4ea6d68ab057b78f325c4c3d4f5bb68bb916b4415b6e6de24a386ef40318054fbfc56c3d6"
      ],
      "sequence": 4294967294
    }
  ],
  "vout": [
    {
      "value": 499993.8986,
      "n": 0,
      "scriptPubKey": {
        "asm": "1 49bff499ead5f5c5f13b9387010b5cd70308468e178877cce3aa86675ae36d32",
        "hex": "512049bff499ead5f5c5f13b9387010b5cd70308468e178877cce3aa86675ae36d32",
        "reqSigs": 1,
        "type": "witness_v1_scripthash",
        "addresses": [
          "3QJmnh"
        ]
      }
    },
    {
      "value": 1.0,
      "n": 1,
      "scriptPubKey": {
        "asm": "OP_RETURN 549bd8b28f5241e6569e722ce0664dc10087bd11ef1a36a00cb05f84422a3c4a 3e69bb0c7bcbda331ca6de05408c5490a7d755810021dbfac2fddaad616e43361e499b2c5bebfa133c86fe2560ac74b087f775a12001fbdae2ddfa8d414e63167e29fb4c3b8b9a735ce69e4500cc14d0e79715c140619bba82bd9aed212e03765e09db6c1babba537cc6be6520ec34f0c7b735e16041bb9aa29dbacd010e2356bee93b8cfb4b5ab39c265e85c00cd4102757d50180a15b7a427d5a2de1eec3b69ec91bacdb6b7a93bc067ea5e02cf4300777f521a0817b5a625d7a0dc1cee396fea97bccbb0b1af3dc661ec5804c945067179541c0e11b3a023d1a6da1ae83f6de895bec9b2b3ad3fc463ee5a06cb4704737b561e0c13b1a221d3a4d818ea3d63e69bb0c7bcbda331ca6de05408c5490a7d755810021dbfac2fddaad616e43361e499b2c5bebfa133c86fe2560ac74b087f775a12001fbdae2ddfa8d414e63167e29fb4c3b8b9a735ce69e4500cc14d0e79715c140619bba82bd9aed212e03765e09db6c1babba537cc6be6520ec34f0c7b735e16041bb9aa29dbacd010e2356bee93b8cfb4b5ab39c265e85c00cd4102757d50180a15b7a427d5a2de1eec3b69ec91bacdb6b7a93bc067ea5e02cf4300777f521a0817b5a625d7a0dc1cee396fea97bccbb0b1af3dc661ec5804c945067179541c0e11b3a023d1a6da1ae83f6de895bec9b2b3ad3fc463ee5a06cb4704737b561e0c13b1a221d3a4d818ea3d63e69bb0c7bcbda331ca6de05408c5490a7d755810021dbfac2fddaad616e43361e499b2c5bebfa133c86fe2560ac74b087f775a12001fbdae2ddfa8d414e63167e29fb4c3b8b9a735ce69e4500cc14d0e79715c140619bba82bd9aed212e03765e09db6c1babba537cc6be6520ec34f0c7b735e16041bb9aa29dbacd010e2356bee93b8cfb4b5ab39c265e85c00cd4102757d50180a15b7a427d5a2de1eec3b69ec91bacdb6b7a93bc067ea5e02cf4300777f521a0817b5a625d7a0dc1cee396fea97bccbb0b1af3dc661ec5804c945067179541c0e11b3a023d1a6da1ae83f6de895bec9b2b3ad3fc463ee5a06cb4704737b561e0c13b1a221d3a4d818ea3d63e69bb0c7bcbda331ca6de05408c5490a7d755810021dbfac2fddaad616e43361e499b2c5bebfa133c86fe2560ac74b087f775a12001fbdae2ddfa8d414e63167e29fb4c3b8b9a735ce69e4500cc14d0e79715c140619bba82bd9aed212e03765e09db6c1babba537cc6be6520ec34f0c7b735e16041bb9aa29dbacd010e2356bee93b8cfb4b5ab39c265e85c00cd4102757d50180a15b7a427d5a2de1eec3b69ec91bacdb6b7a93bc067ea5e02cf4300777f521a0817b5a625d7a0dc1cee396fea97bccbb0b1af3dc661ec5804c945067179541c0e11b3a023d1a6da1ae83f6de895bec9b2b3ad3fc463ee5a06cb4704737b561e0c13b1a221d3a4d818ea3d63e69bb0c7bcbda331ca6de05408c5490a7d755810021dbfac2fddaad616e43361e499b2c5bebfa133c86fe2560ac74b087f775a12001fbdae2ddfa8d414e63167e29fb4c3b8b9a735ce69e4500cc14d0e79715c140619bba82bd9aed212e03765e09db6c1babba537cc6be6520ec34f0c7b735e16041bb9aa29dbacd010e2356bee93b8cfb4b5ab39c265e85c00cd41040ecd6082eccb34d7e0bce08f0ce5e8ab40ae8e2b0b289acc08376172958c993",
        "hex": "6a20549bd8b28f5241e6569e722ce0664dc10087bd11ef1a36a00cb05f84422a3c4a4db0043e69bb0c7bcbda331ca6de05408c5490a7d755810021dbfac2fddaad616e43361e499b2c5bebfa133c86fe2560ac74b087f775a12001fbdae2ddfa8d414e63167e29fb4c3b8b9a735ce69e4500cc14d0e79715c140619bba82bd9aed212e03765e09db6c1babba537cc6be6520ec34f0c7b735e16041bb9aa29dbacd010e2356bee93b8cfb4b5ab39c265e85c00cd4102757d50180a15b7a427d5a2de1eec3b69ec91bacdb6b7a93bc067ea5e02cf4300777f521a0817b5a625d7a0dc1cee396fea97bccbb0b1af3dc661ec5804c945067179541c0e11b3a023d1a6da1ae83f6de895bec9b2b3ad3fc463ee5a06cb4704737b561e0c13b1a221d3a4d818ea3d63e69bb0c7bcbda331ca6de05408c5490a7d755810021dbfac2fddaad616e43361e499b2c5bebfa133c86fe2560ac74b087f775a12001fbdae2ddfa8d414e63167e29fb4c3b8b9a735ce69e4500cc14d0e79715c140619bba82bd9aed212e03765e09db6c1babba537cc6be6520ec34f0c7b735e16041bb9aa29dbacd010e2356bee93b8cfb4b5ab39c265e85c00cd4102757d50180a15b7a427d5a2de1eec3b69ec91bacdb6b7a93bc067ea5e02cf4300777f521a0817b5a625d7a0dc1cee396fea97bccbb0b1af3dc661ec5804c945067179541c0e11b3a023d1a6da1ae83f6de895bec9b2b3ad3fc463ee5a06cb4704737b561e0c13b1a221d3a4d818ea3d63e69bb0c7bcbda331ca6de05408c5490a7d755810021dbfac2fddaad616e43361e499b2c5bebfa133c86fe2560ac74b087f775a12001fbdae2ddfa8d414e63167e29fb4c3b8b9a735ce69e4500cc14d0e79715c140619bba82bd9aed212e03765e09db6c1babba537cc6be6520ec34f0c7b735e16041bb9aa29dbacd010e2356bee93b8cfb4b5ab39c265e85c00cd4102757d50180a15b7a427d5a2de1eec3b69ec91bacdb6b7a93bc067ea5e02cf4300777f521a0817b5a625d7a0dc1cee396fea97bccbb0b1af3dc661ec5804c945067179541c0e11b3a023d1a6da1ae83f6de895bec9b2b3ad3fc463ee5a06cb4704737b561e0c13b1a221d3a4d818ea3d63e69bb0c7bcbda331ca6de05408c5490a7d755810021dbfac2fddaad616e43361e499b2c5bebfa133c86fe2560ac74b087f775a12001fbdae2ddfa8d414e63167e29fb4c3b8b9a735ce69e4500cc14d0e79715c140619bba82bd9aed212e03765e09db6c1babba537cc6be6520ec34f0c7b735e16041bb9aa29dbacd010e2356bee93b8cfb4b5ab39c265e85c00cd4102757d50180a15b7a427d5a2de1eec3b69ec91bacdb6b7a93bc067ea5e02cf4300777f521a0817b5a625d7a0dc1cee396fea97bccbb0b1af3dc661ec5804c945067179541c0e11b3a023d1a6da1ae83f6de895bec9b2b3ad3fc463ee5a06cb4704737b561e0c13b1a221d3a4d818ea3d63e69bb0c7bcbda331ca6de05408c5490a7d755810021dbfac2fddaad616e43361e499b2c5bebfa133c86fe2560ac74b087f775a12001fbdae2ddfa8d414e63167e29fb4c3b8b9a735ce69e4500cc14d0e79715c140619bba82bd9aed212e03765e09db6c1babba537cc6be6520ec34f0c7b735e16041bb9aa29dbacd010e2356bee93b8cfb4b5ab39c265e85c00cd41040ecd6082eccb34d7e0bce08f0ce5e8ab40ae8e2b0b289acc08376172958c993",
        "type": "nulldata"
      }
    }
  ],
  "blockhash": "32a2d379a33ec88ae1cb3a8a1a44f2d12b76aebf574ecf7ac16b289397ed6cd9",
  "confirmations": 1,
  "time": 1764176557,
  "blocktime": 1764176557
}