{
  "hex": "010000000001019fba49b0824836a11f9292aa92cd7ba16286ecb0d3034d2ba43de08ddd80ab6e0000000000feffffff02702338c0782d0000225120230b65ec415026eb3ef9454a0f7af443ebe05e50a72b1e6e6bb875a124f96ea100e1f50500000000fdd5046a2068af2a43412cbde1cbd6a5614186b46e9e12d04500373b79d8d0b0f65d7946794db004fbddd81818d25827d5db5232d4dedf0f3eb3631b1a925554652bbdd141c38040dbfdf83838f27807f5fb7212f4feff2f1e93433b3ab27574450b9df161e3a060bb9d985858921867959b1272949e9f4f7ef3235b5ad21514256bfd910183c0009bbdb87878b23847b5bb3252b4bebf6f5ed3037b7af23534054bddb121a3e0207b5d58989852d8a7555bd2b2545e5f8fbe33e39b9a12d5d4e5ab3d51c14300c05b7d78b8b872f887757bf292747e7faf9e13c3bbba32f5f4c58b1d71e16320e03b1d18d8d81298e7151b92f2141e1fcffe73a3dbda529594a5eb7d11810340801b3d38f8f832b8c7353bb2d2343e3fefde5383fbfa72b5b485cb5d31a12360a0fbddd81818d25827d5db5232d4dedf0f3eb3631b1a925554652bbdd141c38040dbfdf83838f27807f5fb7212f4feff2f1e93433b3ab27574450b9df161e3a060bb9d985858921867959b1272949e9f4f7ef3235b5ad21514256bfd910183c0009bbdb87878b23847b5bb3252b4bebf6f5ed3037b7af23534054bddb121a3e0207b5d58989852d8a7555bd2b2545e5f8fbe33e39b9a12d5d4e5ab3d51c14300c05b7d78b8b872f887757bf292747e7faf9e13c3bbba32f5f4c58b1d71e16320e03b1d18d8d81298e7151b92f2141e1fcffe73a3dbda529594a5eb7d11810340801b3d38f8f832b8c7353bb2d2343e3fefde5383fbfa72b5b485cb5d31a12360a0fbddd81818d25827d5db5232d4dedf0f3eb3631b1a925554652bbdd141c38040dbfdf83838f27807f5fb7212f4feff2f1e93433b3ab27574450b9df161e3a060bb9d985858921867959b1272949e9f4f7ef3235b5ad21514256bfd910183c0009bbdb87878b23847b5bb3252b4bebf6f5ed3037b7af23534054bddb121a3e0207b5d58989852d8a7555bd2b2545e5f8fbe33e39b9a12d5d4e5ab3d51c14300c05b7d78b8b872f887757bf292747e7faf9e13c3bbba32f5f4c58b1d71e16320e03b1d18d8d81298e7151b92f2141e1fcffe73a3dbda529594a5eb7d11810340801b3d38f8f832b8c7353bb2d2343e3fefde5383fbfa72b5b485cb5d31a12360a0fbddd81818d25827d5db5232d4dedf0f3eb3631b1a925554652bbdd141c38040dbfdf83838f27807f5fb7212f4feff2f1e93433b3ab27574450b9df161e3a060bb9d985858921867959b1272949e9f4f7ef3235b5ad21514256bfd910183c0009bbdb87878b23847b5bb3252b4bebf6f5ed3037b7af23534054bddb121a3e0207b5d58989852d8a7555bd2b2545e5f8fbe33e39b9a12d5d4e5ab3d51c14300c05b7d78b8b872f887757bf292747e7faf9e13c3bbba32f5f4c58b1d71e16320e03b1d18d8d81298e7151b92f2141e1fcffe73a3dbda529594a5eb7d11810340801b3d38f8f832b8c7353bb2d2343e3fefde5383fbfa72b5b485cb5d31a12360a0fbddd81818d25827d5db5232d4dedf0f3eb3631b1a925554652bbdd141c38040dbfdf83838f27807f5fb7212f4feff2f1e93433b3ab27574450b9df161e3a060bb9d985858921867959b1272949e9f4f7ef3235b5ad21514256bfd910183c0009bbdb87878b23847b5bb3252b4bebf6f5ed3037b7af23534054bddb121a3e0207b5d58989852d8a7555bd2b2545e5f8f615adef19a108a21009be7773fce744feb727cade087660d1fc9a72c136710e602fd7509dfcfb951b2488e1d5b49a701d09e2e74e9a16da93d3ff36563bef2b797aeee421b27f9a1f8b17fc3210c882b3743aab0ca6170d6b6e54c5d8a8f5f8ff7993bde2bf8de83366b31babc28d16bbc42e0a6653bc5df0993ee57356f8f147625f0cf53fc326825683507e50843ed900811d69aab362560028fde91bd4d0bd268ff0e0b9b40d359a5fdf52df228cc4a893eca5e28b52ec7fb31bd0adfc2d9cc758ea9ccfa71110d146da3cbc01adc5649a1b9fe992ca4f2b3ecaa31ed1a4ecd02d777ba74dacb065226e0b6ee3f233abd27a7709a557bf743dfcf8ca4def7627f86579907bffa74ef238b94e15166470d197037a7f3f8bbf59fcd18eb883094c41a5ab7cc3a8bc7bf10d30e5b5aa8593ff240d5e16bdf5a6d7d53f5da2b66b8b32f444bc9b4f6863e6cc176e37605269341b79f805783b432263d450b2cb7b19cac1477eaaaeee06786aee24ecfa8c8309f55248da08141939ebfc71ba966d4bfe2a5f74428f5eebf9dbe8df2c73ff13beccbe54c3a1835701d87b60e3d874179b765c0a7ad81100d9205a767a6c4606476654a55ca6c215674be562707503cd071302e0c60e4ddde6a1e76a66da8b032314b06fa7328d6f9860b4065017281a907a39d8f2d4d5c66003eab0a491047376e0fa6ebad3601e01a81997d8f22c812a66e8cb73995dd6fa49769f3542aac1f263a24006fbd3b9b2b591d77b875124cae2535c4fbd12d591b64bbe82456a41470b6f9b06816142323c3d959fce4b35ad4dea2a53c3a48b9fa37fd8bf83a380f891ac307d8ce5024db244e1b04b2726044f21ed2ceb11dafb1e58de5809bee88d9cbc99aeea8f407f5df388f607ec1d14f754bf34ec44e6c77916c62b3fb560f305fc2a5acfb1c570ae52bf3dff09f10e31dd8c9e6733dba4b58da46aeb1248fa350131bc1c435f238f4e9bd61e4cb90cf0484c05ecb6ac8bfd2d1ef3a45be9d31c04642ddd3ae9e484d7568d8a88ef77a8b10e4d05aaac8b82e029de27bebe578aa16d72e7b3b4dc48e8f8fd0afc73a939dce07a2a86eb65c8fb8a3365ccb4beb6d14f325ca69e2e8f0f9fddb2fb4c8543965dcc6a57c600fe19efd406b96b32e2b6730105d9488d8aeb150df2d8386691a22f49f781438ee14c393b123d81e4a0aa031d918183ddaa7da459bf92e4b625c3d8855ac89d08f1ce0b87fb1354c1a601d08de99c647fde5dc2d6e8295552151ec334096d3632b1fef09c2ce388752db8a04fbc74c6c3da600a8fede3ad7d1f4f3297b869f1b51eae6540969722d095010cd6d0c87f53a2c2f60b0ab29aeadf25ee23e81c5bdeedac9502ce0c4f42d5132dddd844c1a0e6459b33c7edc3fb27f64bad1137426da70083ef2e7bc2950302f1753a67566c3ba56c073a3b05697a0c42e1f61471cdb9b6cacb3ebaed759122ee1602adbf166314b2f5cc720282761ea5f0aecb83a51a5c1b2656601cce0af8691b635246b745572cd1e765d71ea1a1f4f6d8b4b02329d870ef35374b52d85b1fea523724aefdacb8459690ef5d73a9a89bae76823debecce1bb37b42646a2764ffb2c1409e2c4b01597f9d4da3978ad5de47330555b5cd80dca2644738e2beb7563774b2b28e78d2923be03acb9cd8cef1eb69df09f95dcd3278b61ef14f5ff0dde3a517f865f0eb88817b0ad3d6a91bde69610ffd05e0959b184385de826b798ec06e82b5a3959fbe96358aeaac2ad8e26f7a6c646192337773b9daa8b4dca1d69d17c8adc1f39cf1a87b508876c846fe8685c6457e68097e08b3355c7fb9b400720b859b4cc40d50580f7a8e048a7bb12749066d617d05285bfab415175a956076bc59e7216680f63b68050adbb1143e95f8ffc98e525997259b48e119355e879cc16accb87434ac0118f4a48b7017f3e6dec24cd14dcecc4e3f75dd61c4e3b0a80e88e6b26551d54ce9ca027b5b962bdbfbe3360c7e8def79be04df96207883282c6fbb4d10a12f40102edecaf271b342f91f6ca3ef0f9c80a34ecf34a87298732fd3f6ecd8410690e1f4bd1a0d587781b8d7c8862c1cb8502a4ef84cfd089427c324757b10fa26fb0aa938a336e086819a2dae9c699f4d3d7e42521c243383fb556a6bfda43f34a137216c60110217f5a23cdd9ab01bd48cbae49c7ff582aab848279b3b6abab563639eba66d1217c881d44c1eff05a80524a46ff9e5be870b2ba122110f44be979aa575da6b2a1c1a4a05cf88ecd9fcdbb61f36548e180e5e3db0dc5d9b9ff1652b24ca234dcb7da277b72dd38f0f8eb6ca16e00ede9ccde057df20308e552fe7461fbbfeb03c3821ef1825dcc4561a6d6d1f06f3dd4ffd2cff3ac8009dc9876a04f33cada39d9d82a65889340c3f13cd3c0e4cfbe9065a3525cf9f59ae7f4eab0f018f4e0c6d00c3dbaa718737bf3714ae6bc912fc72dcaf90076812476fe82aae311825cb32f39f89bcc84f63187e74605867f9cd12efe949b9848863f16579ea344f655f3b9087759d1cb2f5ccdb55603f4f2a879e5cbc14ce316b247375db20615297c57a87a9cabcf385c1e6e8dcc0e04f4652715e032573eddcef9679d8d0e5862f9e00797dbff0294251a7a8fff6fa7ed5efc4e593bcd4275a323dae2783d7b4f421def3ee2ac2a7e696a57465aa2846a5b1bcaac646cbd5634cb5a26176ec08ef44e6977498a491dd9fe6440ba764a192a1588908945abeb3ca547f0acf5c1b185e4b8b1386398b36325b9d308374fc75b0d5c7b7b563045b0701ab6a31a2053f65a4e268d924b38968183950d884d51944bdacb17996623204ef64dfebdfcb161731f0f761c787b4f49b166b7c83eb872f6eb60a83683378ebcfc6b05631bbc220c7e6546c13b6d41bfa7ae7978b1c90fafcce56ae3bc267e827b60ff91b03b72dc83b320665a7acac441030c05b7f1323923816e5a781d3923eac16cff0a43d0ad46740c79cd6c1d848f7916aa278e960d897f6bdd69b4c77b19a88c2e2db3fa5c04a66f974127b0b5e1e4de6a1373054c4339a252c8f5de172b006985ac6c00028b915b7b08c14f007b0e3cccc10df9ef4decc6cf1b81efcbe116e62ffa32004175254bdffa38db2812678914b4af0bf784e8fc6aa25d60906c8a6f733caee6d71d35bb16dc1cf091a8fbfe0b8e834117dc70384f4b50e8b9316a15540267174ee207242951e21547579198b3f1b42319c84e2ab49c462fa06167a96b53c9626eb5cbb04dd3d4a7baf68fc60041f0da08b9c44860b68311e8a8c9ebd7225b800df5b7e0397f6cc65532b5d9702bcc6c4e77d5395f94bee3dba81b97c507f837206161c2035425a728ca2c3dfe9effe010c4463656870727587abadbabfeaeef50b484a4d60768995a6b8d8dcddeb131e35386164797f90b7ced1dbf7f9000000000000000000000000000000000000000f202e3d01fd210500961892318e6fccb75783d7111bf88eb617298e3983f2af93328ac4e9de3eab4b47e8c9afd019c329f9bc1270e5520597f128e86471df4978ecacc3d799f0b82c93d4f8e70c0fd9642cbbaab7656c1e041825914a88e8c439d4293abc635a9508d423cf5232e38fc603b0efc6a1cbe0a79c8d484a833120a66354a338a56692aec9aaf5263374d1bb3923c857add1daa5c9bfea10d31c4c43808d4f925be4b5a10dc0b7220d122a7bd3182a27e7014ce99a85067060c51a1ba3348c03785a1f1c0907af2fd528dde44da5ac8c39bb9cc301162145e2527bd3573da98598c0cecbd6454179a0962d940f9161735052ee652c2e3bf472b3fdeed71e99c6683762b063d0203b591cfe16a94a1bc448ef48865c18ed267eb9751a65c11dd7f0dc3cae25f8f94d0f187313e3789ee1b7fb7e1bf3c222c41e20d124a0d759557842f940763b8fc26c82f793f9d1e68a4cd76f7ae5a0361a9c6769f8674e2ccbc1ec454e4177aa9e305ca906d0a776b6ed2892daaa950c38a552e9d8aabc1bf6b86b9c0e8bcb71a917ea80124693c7828d6324293997cabb7f2394f6a635f07473d5c58f5521b56bfc08166818529988fe2a51a15e9fba4758a67393e566969027b92d61dca2b54a8961187bcd2af25af1adfeb64449499888e7879ab89a4c92e654442bf7a261ac9519b9d3992b6b0915371f1540a4c48305c7d34d809009e7730fdb902cad3c5692c227f784a9530f46ebd7f4b2df1e5a70e67b44b55da5863c940bdffec08176e22dbdbfcefe48989b9abbd0ed75ddd2ae4611fbe2633a6054fab227e16e779b29da68197028c250399121a7926d95d49707148143058e73d821ffd4c43bcb1750681c3b0945bcddff62b2db93ffe1d1bb52c54cea5bb50015520dacc7e63c25039625af22d3c17f302bc47bd79dce5b920488a64ab419785618810e4321f26941021ac7bad77913137a280567bd5b426a703d1ac27f9de04ecbc58da33bfcdc8c99d39d6968f5e87327645ad2946af0e754a99313d42b123c882f67a8cee03d265c4191992e1d437018750afef3fdde6a4608824929002a129217a78267e29a6167886f51b3a05734fda3596c7592ec8dc859105c249dd5a3d9b08dff4581dfeac48ebcd113e4358f6f00a2d1e200dc55c5c04b823691a7c571de5f56024f37296fe1dbcdab03a95d2cd2ded380ef968e2fcca2fd8f9c3386830699e62af9ff524161ae1a88bb7bb089576e4c612d483f4a60d7724ee13305017dddd6700c66818abaddf9f55478c3c95e5fe4859fd57be79c8f3bf13c127b2049c8e690ad043188005562fb37139e9909e52ed3c110451160d95bce21b03d1acd903827128bdb6aba9aca9f6917c898f073d5d28b714979ce7f6cbc0620c399efaea6db101af58dad962591c36494462fdd18cdb31d4c47eed78de29e45b4b963b3ea438d4d80581459ede21ea21cc2db94c162f26654288ffcd411e54900758eaee84d95104da47ebbe3dc9fdccf91c38ec2084e2d4a4a930b564b811064d1e6ab7543c4db3fb638dc23af74b788feedf032bcebf5fdd62d04c788a98d681982fac36767a4b667bf45754af3098abab5f7834e8725468014c197d69c87cb33892748c7f199802b739b696f52e1c33e918e3f3bd40fad163d4b49ced6c593f8abc66b1a0fb5831079eff4c8d3c22cd4e42931f7cdc38d121d00c3f7b0554bb87a9be8a5e0ad681d7b87a1ead8248b520c2c8387c30b20db2698c563752eebe0f6f9aa3f7c123890ca411fb2fbdc3a2b7fd0ba6a49edef8d73bd1953d85500499e674711d646f140c7f636d758619bb542846f19b95f571899fc5216c5fb171aa87c83000000",
  "txid": "fc63102e84541c51f3ab47843ea0967a7afee9ed42d59508e38375e99e53ea98",
  "hash": "a3bfde2307c2944909617c9ce4417085e7e7c2d9d8d6d035c0180ceb8b96886e",
  "size": 5085,
  "vsize": 2278,
  "version": 1,
  "locktime": 131,
  "vin": [
    {
      "txid": "6eab80dd8de03da42b4d03d3b0ec8662a17bcd92aa92921fa1364882b049ba9f",
      "vout": 0,
      "scriptSig": {
        "asm": "",
        "hex": ""
      },
      "txinwitness": [
        "dfcfb951b2488e1d5b49a701d09e2e74e9a16da93d3ff36563bef2b797aeee421b27f9a1f8b17fc3210c882b3743aab0ca6170d6b6e54c5d8a8f5f8ff7993bde2bf8de83366b31babc28d16bbc42e0a6653bc5df0993ee57356f8f147625f0cf53fc326825683507e50843ed900811d69aab362560028fde91bd4d0bd268ff0e0b9b40d359a5fdf52df228cc4a893eca5e28b52ec7fb31bd0adfc2d9cc758ea9ccfa71110d146da3cbc01adc5649a1b9fe992ca4f2b3ecaa31ed1a4ecd02d777ba74dacb065226e0b6ee3f233abd27a7709a557bf743dfcf8ca4def7627f86579907bffa74ef238b94e15166470d197037a7f3f8bbf59fcd18eb883094c41a5ab7cc3a8bc7bf10d30e5b5aa8593ff240d5e16bdf5a6d7d53f5da2b66b8b32f444bc9b4f6863e6cc176e37605269341b79f805783b432263d450b2cb7b19cac1477eaaaeee06786aee24ecfa8c8309f55248da08141939ebfc71ba966d4bfe2a5f74428f5eebf9dbe8df2c73ff13beccbe54c3a1835701d87b60e3d874179b765c0a7ad81100d9205a767a6c4606476654a55ca6c215674be562707503cd071302e0c60e4ddde6a1e76a66da8b032314b06fa7328d6f9860b4065017281a907a39d8f2d4d5c66003eab0a491047376e0fa6ebad3601e01a81997d8f22c812a66e8cb73995dd6fa49769f3542aac1f263a24006fbd3b9b2b591d77b875124cae2535c4fbd12d591b64bbe82456a41470b6f9b06816142323c3d959fce4b35ad4dea2a53c3a48b9fa37fd8bf83a380f891ac307d8ce5024db244e1b04b2726044f21ed2ceb11dafb1e58de5809bee88d9cbc99aeea8f407f5df388f607ec1d14f754bf34ec44e6c77916c62b3fb560f305fc2a5acfb1c570ae52bf3dff09f10e31dd8c9e6733dba4b58da46aeb1248fa350131bc1c435f238f4e9bd61e4cb90cf0484c05ecb6ac8bfd2d1ef3a45be9d31c04642ddd3ae9e484d7568d8a88ef77a8b10e4d05aaac8b82e029de27bebe578aa16d72e7b3b4dc48e8f8fd0afc73a939dce07a2a86eb65c8fb8a3365ccb4beb6d14f325ca69e2e8f0f9fddb2fb4c8543965dcc6a57c600fe19efd406b96b32e2b6730105d9488d8aeb150df2d8386691a22f49f781438ee14c393b123d81e4a0aa031d918183ddaa7da459bf92e4b625c3d8855ac89d08f1ce0b87fb1354c1a601d08de99c647fde5dc2d6e8295552151ec334096d3632b1fef09c2ce388752db8a04fbc74c6c3da600a8fede3ad7d1f4f3297b869f1b51eae6540969722d095010cd6d0c87f53a2c2f60b0ab29aeadf25ee23e81c5bdeedac9502ce0c4f42d5132dddd844c1a0e6459b33c7edc3fb27f64bad1137426da70083ef2e7bc2950302f1753a67566c3ba56c073a3b05697a0c42e1f61471cdb9b6cacb3ebaed759122ee1602adbf166314b2f5cc720282761ea5f0aecb83a51a5c1b2656601cce0af8691b635246b745572cd1e765d71ea1a1f4f6d8b4b02329d870ef35374b52d85b1fea523724aefdacb8459690ef5d73a9a89bae76823debecce1bb37b42646a2764ffb2c1409e2c4b01597f9d4da3978ad5de47330555b5cd80dca2644738e2beb7563774b2b28e78d2923be03acb9cd8cef1eb69df09f95dcd3278b61ef14f5ff0dde3a517f865f0eb88817b0ad3d6a91bde69610ffd05e0959b184385de826b798ec06e82b5a3959fbe96358aeaac2ad8e26f7a6c646192337773b9daa8b4dca1d69d17c8adc1f39cf1a87b508876c846fe8685c6457e68097e08b3355c7fb9b400720b859b4cc40d50580f7a8e048a7bb12749066d617d05285bfab415175a956076bc59e7216680f63b68050adbb1143e95f8ffc98e525997259b48e119355e879cc16accb87434ac0118f4a48b7017f3e6dec24cd14dcecc4e3f75dd61c4e3b0a80e88e6b26551d54ce9ca027b5b962bdbfbe3360c7e8def79be04df96207883282c6fbb4d10a12f40102edecaf271b342f91f6ca3ef0f9c80a34ecf34a87298732fd3f6ecd8410690e1f4bd1a0d587781b8d7c8862c1cb8502a4ef84cfd089427c324757b10fa26fb0aa938a336e086819a2dae9c699f4d3d7e42521c243383fb556a6bfda43f34a137216c60110217f5a23cdd9ab01bd48cbae49c7ff582aab848279b3b6abab563639eba66d1217c881d44c1eff05a80524a46ff9e5be870b2ba122110f44be979aa575da6b2a1c1a4a05cf88ecd9fcdbb61f36548e180e5e3db0dc5d9b9ff1652b24ca234dcb7da277b72dd38f0f8eb6ca16e00ede9ccde057df20308e552fe7461fbbfeb03c3821ef1825dcc4561a6d6d1f06f3dd4ffd2cff3ac8009dc9876a04f33cada39d9d82a65889340c3f13cd3c0e4cfbe9065a3525cf9f59ae7f4eab0f018f4e0c6d00c3dbaa718737bf3714ae6bc912fc72dcaf90076812476fe82aae311825cb32f39f89bcc84f63187e74605867f9cd12efe949b9848863f16579ea344f655f3b9087759d1cb2f5ccdb55603f4f2a879e5cbc14ce316b247375db20615297c57a87a9cabcf385c1e6e8dcc0e04f4652715e032573eddcef9679d8d0e5862f9e00797dbff0294251a7a8fff6fa7ed5efc4e593bcd4275a323dae2783d7b4f421def3ee2ac2a7e696a57465aa2846a5b1bcaac646cbd5634cb5a26176ec08ef44e6977498a491dd9fe6440ba764a192a1588908945abeb3ca547f0acf5c1b185e4b8b1386398b36325b9d308374fc75b0d5c7b7b563045b0701ab6a31a2053f65a4e268d924b38968183950d884d51944bdacb17996623204ef64dfebdfcb161731f0f761c787b4f49b166b7c83eb872f6eb60a83683378ebcfc6b05631bbc220c7e6546c13b6d41bfa7ae7978b1c90fafcce56ae3bc267e827b60ff91b03b72dc83b320665a7acac441030c05b7f1323923816e5a781d3923eac16cff0a43d0ad46740c79cd6c1d848f7916aa278e960d897f6bdd69b4c77b19a88c2e2db3fa5c04a66f974127b0b5e1e4de6a1373054c4339a252c8f5de172b006985ac6c00028b915b7b08c14f007b0e3cccc10df9ef4decc6cf1b81efcbe116e62ffa32004175254bdffa38db2812678914b4af0bf784e8fc6aa25d60906c8a6f733caee6d71d35bb16dc1cf091a8fbfe0b8e834117dc70384f4b50e8b9316a15540267174ee207242951e21547579198b3f1b42319c84e2ab49c462fa06167a96b53c9626eb5cbb04dd3d4a7baf68fc60041f0da08b9c44860b68311e8a8c9ebd7225b800df5b7e0397f6cc65532b5d9702bcc6c4e77d5395f94bee3dba81b97c507f837206161c2035425a728ca2c3dfe9effe010c4463656870727587abadbabfeaeef50b484a4d60768995a6b8d8dcddeb131e35386164797f90b7ced1dbf7f9000000000000000000000000000000000000000f202e3d01",
        "00961892318e6fccb75783d7111bf88eb617298e3983f2af93328ac4e9de3eab4b47e8c9afd019c329f9bc1270e5520597f128e86471df4978ecacc3d799f0b82c93d4f8e70c0fd9642cbbaab7656c1e041825914a88e8c439d4293abc635a9508d423cf5232e38fc603b0efc6a1cbe0a79c8d484a833120a66354a338a56692aec9aaf5263374d1bb3923c857add1daa5c9bfea10d31c4c43808d4f925be4b5a10dc0b7220d122a7bd3182a27e7014ce99a85067060c51a1ba3348c03785a1f1c0907af2fd528dde44da5ac8c39bb9cc301162145e2527bd3573da98598c0cecbd6454179a0962d940f9161735052ee652c2e3bf472b3fdeed71e99c6683762b063d0203b591cfe16a94a1bc448ef48865c18ed267eb9751a65c11dd7f0dc3cae25f8f94d0f187313e3789ee1b7fb7e1bf3c222c41e20d124a0d759557842f940763b8fc26c82f793f9d1e68a4cd76f7ae5a0361a9c6769f8674e2ccbc1ec454e4177aa9e305ca906d0a776b6ed2892daaa950c38a552e9d8aabc1bf6b86b9c0e8bcb71a917ea80124693c7828d6324293997cabb7f2394f6a635f07473d5c58f5521b56bfc08166818529988fe2a51a15e9fba4758a67393e566969027b92d61dca2b54a8961187bcd2af25af1adfeb64449499888e7879ab89a4c92e654442bf7a261ac9519b9d3992b6b0915371f1540a4c48305c7d34d809009e7730fdb902cad3c5692c227f784a9530f46ebd7f4b2df1e5a70e67b44b55da5863c940bdffec08176e22dbdbfcefe48989b9abbd0ed75ddd2ae4611fbe2633a6054fab227e16e779b29da68197028c250399121a7926d95d49707148143058e73d821ffd4c43bcb1750681c3b0945bcddff62b2db93ffe1d1bb52c54cea5bb50015520dacc7e63c25039625af22d3c17f302bc47bd79dce5b920488a64ab419785618810e4321f26941021ac7bad77913137a280567bd5b426a703d1ac27f9de04ecbc58da33bfcdc8c99d39d6968f5e87327645ad2946af0e754a99313d42b123c882f67a8cee03d265c4191992e1d437018750afef3fdde6a4608824929002a129217a78267e29a6167886f51b3a05734fda3596c7592ec8dc859105c249dd5a3d9b08dff4581dfeac48ebcd113e4358f6f00a2d1e200dc55c5c04b823691a7c571de5f56024f37296fe1dbcdab03a95d2cd2ded380ef968e2fcca2fd8f9c3386830699e62af9ff524161ae1a88bb7bb089576e4c612d483f4a60d7724ee13305017dddd6700c66818abaddf9f55478c3c95e5fe4859fd57be79c8f3bf13c127b2049c8e690ad043188005562fb37139e9909e52ed3c110451160d95bce21b03d1acd903827128bdb6aba9aca9f6917c898f073d5d28b714979ce7f6cbc0620c399efaea6db101af58dad962591c36494462fdd18cdb31d4c47eed78de29e45b4b963b3ea438d4d80581459ede21ea21cc2db94c162f26654288ffcd411e54900758eaee84d95104da47ebbe3dc9fdccf91c38ec2084e2d4a4a930b564b811064d1e6ab7543c4db3fb638dc23af74b788feedf032bcebf5fdd62d04c788a98d681982fac36767a4b667bf45754af3098abab5f7834e8725468014c197d69c87cb33892748c7f199802b739b696f52e1c33e918e3f3bd40fad163d4b49ced6c593f8abc66b1a0fb5831079eff4c8d3c22cd4e42931f7cdc38d121d00c3f7b0554bb87a9be8a5e0ad681d7b87a1ead8248b520c2c8387c30b20db2698c563752eebe0f6f9aa3f7c123890ca411fb2fbdc3a2b7fd0ba6a49edef8d73bd1953d85500499e674711d646f140c7f636d758619bb542846f19b95f571899fc5216c5fb171aa87c"
      ],
      "sequence": 4294967294
    }
  ],
  "vout": [
    {
      "value": 499966.4423,
      "n": 0,
      "scriptPubKey": {
        "asm": "1 230b65ec415026eb3ef9454a0f7af443ebe05e50a72b1e6e6bb875a124f96ea1",
        "hex": "5120230b65ec415026eb3ef9454a0f7af443ebe05e50a72b1e6e6bb875a124f96ea1",
        "reqSigs": 1,
        "type": "witness_v1_scripthash",
        "addresses": [
          "3QJmnh"
        ]
      }
    },
    {
      "value": 1.0,
      "n": 1,
      "scriptPubKey": {
        "asm": "OP_RETURN 68af2a43412cbde1cbd6a5614186b46e9e12d04500373b79d8d0b0f65d794679 fbddd81818d25827d5db5232d4dedf0f3eb3631b1a925554652bbdd141c38040dbfdf83838f27807f5fb7212f4feff2f1e93433b3ab27574450b9df161e3a060bb9d985858921867959b1272949e9f4f7ef3235b5ad21514256bfd910183c0009bbdb87878b23847b5bb3252b4bebf6f5ed3037b7af23534054bddb121a3e0207b5d58989852d8a7555bd2b2545e5f8fbe33e39b9a12d5d4e5ab3d51c14300c05b7d78b8b872f887757bf292747e7faf9e13c3bbba32f5f4c58b1d71e16320e03b1d18d8d81298e7151b92f2141e1fcffe73a3dbda529594a5eb7d11810340801b3d38f8f832b8c7353bb2d2343e3fefde5383fbfa72b5b485cb5d31a12360a0fbddd81818d25827d5db5232d4dedf0f3eb3631b1a925554652bbdd141c38040dbfdf83838f27807f5fb7212f4feff2f1e93433b3ab27574450b9df161e3a060bb9d985858921867959b1272949e9f4f7ef3235b5ad21514256bfd910183c0009bbdb87878b23847b5bb3252b4bebf6f5ed3037b7af23534054bddb121a3e0207b5d58989852d8a7555bd2b2545e5f8fbe33e39b9a12d5d4e5ab3d51c14300c05b7d78b8b872f887757bf292747e7faf9e13c3bbba32f5f4c58b1d71e16320e03b1d18d8d81298e7151b92f2141e1fcffe73a3dbda529594a5eb7d11810340801b3d38f8f832b8c7353bb2d2343e3fefde5383fbfa72b5b485cb5d31a12360a0fbddd81818d25827d5db5232d4dedf0f3eb3631b1a925554652bbdd141c38040dbfdf83838f27807f5fb7212f4feff2f1e93433b3ab27574450b9df161e3a060bb9d985858921867959b1272949e9f4f7ef3235b5ad21514256bfd910183c0009bbdb87878b23847b5bb3252b4bebf6f5ed3037b7af23534054bddb121a3e0207b5d58989852d8a7555bd2b2545e5f8fbe33e39b9a12d5d4e5ab3d51c14300c05b7d78b8b872f887757bf292747e7faf9e13c3bbba32f5f4c58b1d71e16320e03b1d18d8d81298e7151b92f2141e1fcffe73a3dbda529594a5eb7d11810340801b3d38f8f832b8c7353bb2d2343e3fefde5383fbfa72b5b485cb5d31a12360a0fbddd81818d25827d5db5232d4dedf0f3eb3631b1a925554652bbdd141c38040dbfdf83838f27807f5fb7212f4feff2f1e93433b3ab27574450b9df161e3a060bb9d985858921867959b1272949e9f4f7ef3235b5ad21514256bfd910183c0009bbdb87878b23847b5bb3252b4bebf6f5ed3037b7af23534054bddb121a3e0207b5d58989852d8a7555bd2b2545e5f8fbe33e39b9a12d5d4e5ab3d51c14300c05b7d78b8b872f887757bf292747e7faf9e13c3bbba32f5f4c58b1d71e16320e03b1d18d8d81298e7151b92f2141e1fcffe73a3dbda529594a5eb7d11810340801b3d38f8f832b8c7353bb2d2343e3fefde5383fbfa72b5b485cb5d31a12360a0fbddd81818d25827d5db5232d4dedf0f3eb3631b1a925554652bbdd141c38040dbfdf83838f27807f5fb7212f4feff2f1e93433b3ab27574450b9df161e3a060bb9d985858921867959b1272949e9f4f7ef3235b5ad21514256bfd910183c0009bbdb87878b23847b5bb3252b4bebf6f5ed3037b7af23534054bddb121a3e0207b5d58989852d8a7555bd2b2545e5f8f615adef19a108a21009be7773fce744feb727cade087660d1fc9a72c136710e6",
        "hex": "6a2068af2a43412cbde1cbd6a5614186b46e9e12d04500373b79d8d0b0f65d7946794db004fbddd81818d25827d5db5232d4dedf0f3eb3631b1a925554652bbdd141c38040dbfdf83838f27807f5fb7212f4feff2f1e93433b3ab27574450b9df161e3a060bb9d985858921867959b1272949e9f4f7ef3235b5ad21514256bfd910183c0009bbdb87878b23847b5bb3252b4bebf6f5ed3037b7af23534054bddb121a3e0207b5d58989852d8a7555bd2b2545e5f8fbe33e39b9a12d5d4e5ab3d51c14300c05b7d78b8b872f887757bf292747e7faf9e13c3bbba32f5f4c58b1d71e16320e03b1d18d8d81298e7151b92f2141e1fcffe73a3dbda529594a5eb7d11810340801b3d38f8f832b8c7353bb2d2343e3fefde5383fbfa72b5b485cb5d31a12360a0fbddd81818d25827d5db5232d4dedf0f3eb3631b1a925554652bbdd141c38040dbfdf83838f27807f5fb7212f4feff2f1e93433b3ab27574450b9df161e3a060bb9d985858921867959b1272949e9f4f7ef3235b5ad21514256bfd910183c0009bbdb87878b23847b5bb3252b4bebf6f5ed3037b7af23534054bddb121a3e0207b5d58989852d8a7555bd2b2545e5f8fbe33e39b9a12d5d4e5ab3d51c14300c05b7d78b8b872f887757bf292747e7faf9e13c3bbba32f5f4c58b1d71e16320e03b1d18d8d81298e7151b92f2141e1fcffe73a3dbda529594a5eb7d11810340801b3d38f8f832b8c7353bb2d2343e3fefde5383fbfa72b5b485cb5d31a12360a0fbddd81818d25827d5db5232d4dedf0f3eb3631b1a925554652bbdd141c38040dbfdf83838f27807f5fb7212f4feff2f1e93433b3ab27574450b9df161e3a060bb9d985858921867959b1272949e9f4f7ef3235b5ad21514256bfd910183c0009bbdb87878b23847b5bb3252b4bebf6f5ed3037b7af23534054bddb121a3e0207b5d58989852d8a7555bd2b2545e5f8fbe33e39b9a12d5d4e5ab3d51c14300c05b7d78b8b872f887757bf292747e7faf9e13c3bbba32f5f4c58b1d71e16320e03b1d18d8d81298e7151b92f2141e1fcffe73a3dbda529594a5eb7d11810340801b3d38f8f832b8c7353bb2d2343e3fefde5383fbfa72b5b485cb5d31a12360a0fbddd81818d25827d5db5232d4dedf0f3eb3631b1a925554652bbdd141c38040dbfdf83838f27807f5fb7212f4feff2f1e93433b3ab27574450b9df161e3a060bb9d985858921867959b1272949e9f4f7ef3235b5ad21514256bfd910183c0009bbdb87878b23847b5bb3252b4bebf6f5ed3037b7af23534054bddb121a3e0207b5d58989852d8a7555bd2b2545e5f8fbe33e39b9a12d5d4e5ab3d51c14300c05b7d78b8b872f887757bf292747e7faf9e13c3bbba32f5f4c58b1d71e16320e03b1d18d8d81298e7151b92f2141e1fcffe73a3dbda529594a5eb7d11810340801b3d38f8f832b8c7353bb2d2343e3fefde5383fbfa72b5b485cb5d31a12360a0fbddd81818d25827d5db5232d4dedf0f3eb3631b1a925554652bbdd141c38040dbfdf83838f27807f5fb7212f4feff2f1e93433b3ab27574450b9df161e3a060bb9d985858921867959b1272949e9f4f7ef3235b5ad21514256bfd910183c0009bbdb87878b23847b5bb3252b4bebf6f5ed3037b7af23534054bddb121a3e0207b5d58989852d8a7555bd2b2545e5f8f615adef19a108a21009be7773fce744feb727cade087660d1fc9a72c136710e6",
        "type": "nulldata"
      }
    }
  ],
  "blockhash": "3357cb4dc001b5acbac31fcce3a77df76b11eaba9a4d126a2528d529fe11213e",
  "confirmations": 1,
  "time": 1764182290,
  "blocktime": 1764182290
}