{
  "hex": "01000000000101f275431e4a62f7cebc38a38025d052321ae4f1b2d055518669aaf8b8d4ba36320000000000feffffff0260cda5ea782d00002251205acfa808afc6ea5893ace1bf842b5d9ab4bc96402a11989c2b8cd3bf3881870200e1f50500000000fdd5046a205220a80ca2ba0eaa9b10b0bb3f8bb830cd65177ca92366b173d0d005e02cdc204db004fb3a1f281976569cd63abb8e84a84e454d3d219f34eea1b3cbba94194d1fd051db1a3f08395676bcf61a9baea4886e656d1d01bf14ce8193eb9ab4396d3ff071bb7a5f68593616dc967afbcec4e80e050d7d61df74aee1f38bfad4590d5f90119b5a7f48791636fcb65adbeee4c82e252d5d41ff548ec1d3abdaf4792d7fb0317bba9fa899f6d61c56ba3b0e0428cec5cdbda11fb46e21334b3a1499cd9f50d15b9abf88b9d6f63c769a1b2e2408eee5ed9d813f944e01136b1a34b9edbf70f13bfadfe8d9b6965c16fa7b4e44688e858dfde15ff42e61730b7a54d98ddf10911bdaffc8f996b67c36da5b6e6448aea5adddc17fd40e41532b5a74f9adff30b1fb3a1f281976569cd63abb8e84a84e454d3d219f34eea1b3cbba94194d1fd051db1a3f08395676bcf61a9baea4886e656d1d01bf14ce8193eb9ab4396d3ff071bb7a5f68593616dc967afbcec4e80e050d7d61df74aee1f38bfad4590d5f90119b5a7f48791636fcb65adbeee4c82e252d5d41ff548ec1d3abdaf4792d7fb0317bba9fa899f6d61c56ba3b0e0428cec5cdbda11fb46e21334b3a1499cd9f50d15b9abf88b9d6f63c769a1b2e2408eee5ed9d813f944e01136b1a34b9edbf70f13bfadfe8d9b6965c16fa7b4e44688e858dfde15ff42e61730b7a54d98ddf10911bdaffc8f996b67c36da5b6e6448aea5adddc17fd40e41532b5a74f9adff30b1fb3a1f281976569cd63abb8e84a84e454d3d219f34eea1b3cbba94194d1fd051db1a3f08395676bcf61a9baea4886e656d1d01bf14ce8193eb9ab4396d3ff071bb7a5f68593616dc967afbcec4e80e050d7d61df74aee1f38bfad4590d5f90119b5a7f48791636fcb65adbeee4c82e252d5d41ff548ec1d3abdaf4792d7fb0317bba9fa899f6d61c56ba3b0e0428cec5cdbda11fb46e21334b3a1499cd9f50d15b9abf88b9d6f63c769a1b2e2408eee5ed9d813f944e01136b1a34b9edbf70f13bfadfe8d9b6965c16fa7b4e44688e858dfde15ff42e61730b7a54d98ddf10911bdaffc8f996b67c36da5b6e6448aea5adddc17fd40e41532b5a74f9adff30b1fb3a1f281976569cd63abb8e84a84e454d3d219f34eea1b3cbba94194d1fd051db1a3f08395676bcf61a9baea4886e656d1d01bf14ce8193eb9ab4396d3ff071bb7a5f68593616dc967afbcec4e80e050d7d61df74aee1f38bfad4590d5f90119b5a7f48791636fcb65adbeee4c82e252d5d41ff548ec1d3abdaf4792d7fb0317bba9fa899f6d61c56ba3b0e0428cec5cdbda11fb46e21334b3a1499cd9f50d15b9abf88b9d6f63c769a1b2e2408eee5ed9d813f944e01136b1a34b9edbf70f13bfadfe8d9b6965c16fa7b4e44688e858dfde15ff42e61730b7a54d98ddf10911bdaffc8f996b67c36da5b6e6448aea5adddc17fd40e41532b5a74f9adff30b1fb3a1f281976569cd63abb8e84a84e454d3d219f34eea1b3cbba94194d1fd051db1a3f08395676bcf61a9baea4886e656d1d01bf14ce8193eb9ab4396d3ff071bb7a5f68593616dc967afbcec4e80e050d7d61df74aee1f38bfad4590d5f90119b5a7f48791636fcb65adbeee4c82e252d5d41ff548ec1d3abdaf4792d7fb0317bba9fa899f6d61c56ba3b0e0428cec5ad00246d02cd35a95c3a08b7ac691d1007ab2a8d69214071ff1879c8e555fe5e02fd7509d788f6224be9288f2b43363ba94f79348bf6d3647c61cbe784f3cf2375821bbaa6bce61af9e8f36071cb039e6ea85e9fcb7f6a22d40e0be27d3abd82e3ad2ba2b2658c1deef2f1bf3a79c8df2e17d8e21465622218cecf2e0c8d3ee866d16b561815660bac464b34a359378006caa03f4206c03a12912d0f5bf21730b9481aa85701350dfe4befe37d5cb4ce51df659c6e8156abe9ecf3035d010a97c5baa02d654b3d6f7e1b58542e9204cc1d0d65ffde0374bb2b6258b24f9894d1b3a32fac1e6efc8d39bf1042e9aa3036c169176ada098dcd65421a9bfc08ba75990111a841e52a5aebefed86aab40673c952201275fba36babfe0e968f4f7a3eeab50e1909e38904c11980503d8094af55df0025489f5f34aa21bbc2292205cb9d572a44470e088e56468757758b4653a8fcd4c3178f9a90f24700f5dfad5a61b0d249ad78cebf0008073720e8f3f422641e1d23b8fe1c32ffccd682731c31827524cc324f5e14b111d6c5d92c7f01b7e618a3eb168519a958c9d99a21a39f9159c1bdb1b24e06dacc5a2f66702e8b4f8dad13a52a93d53ab05b33ae3d26d58fd7bbac1b0990180a1cc015a7105c755636da086ab167b3718dcf35aecb25e2330b9dfed56af24e963427a383f931ee1715366684d88a8d486fbcfdd4bf8a5b7dc713cbc0b67af682448adda9a5929bea1e146589c27e49220261130fe653b6a2580aa9611a00efdd0f7871af67ee6c5087113d49501afae0660bea2d08c5da8eaebee81c660f8a8f168729f0385e1f7ad3e15338eb0c836c844ca2100c5d13acbcf0e360c8f7e69adb50a9ff7b7043714cbbf1deacbd975d4a5d7428c43dbf8bfbb57033a3f13788f52d27559f1959cd3762ef4d4c0dd3c69bb75302f6ab974bc322afe7b5e283e5ed70d2d1c7c8ccb5929ad22bd789a97a1a21fa96c0dbde2dc62516f3f86f7f6f42266aaccfce79486a5752c7e2145244da45209b750aa1c4584857dde808cab88e23d13a78a7848ed5d8fe5f53ea624c210b94c7bd7f5aa5d0deff078a33c26ae9574cbec5f9c523818d1321a5f6a332fe4c9df6d95737a9f7356484fd986d98cc834be4d2202b1b877efdc510aa9af2924103eac4b04a251a64009905e550ff03c9bb529a0e1d96f698023be774da13ba46bd1e15378be69fdcaa4f8bba2491ef52c7825bcd2468b46ae1552c5f8c2ca26080705eed2ab3864f2b965d4dfd63f2f5eba69367131a509113eb7256933c60acde3ef51c2a93bb97eda235412a7d4b978c409bd4d90d2700cd8835b7e1862094d7b183d1d485e98a3914634767115080a9897256b74321ce8b7e27cc8e4e5cc4546017dcf56abf917f2d0f0e7d26d9457f3e75c5d3ef146345adb567e4fc55246dedd6602f5fa64ae7f123ef3b864186de40b757afe78e5dfc1ef158690523857edc085fd0f2673ec083420b1db82e0cd3928673d2e549e2f63c56b4cbc199e257cbb2ea6aca7f33830c9a5eb469c052fb11e53d45c544655405cfe06c3b799f49c6882e6bfe1402b3df82bdfa64a91647c5b4abe86803faba3b49f41f9ac40829879142bc79575bfda1bdee75ec4daad6e2e8b4b76d4fbc4d163b312badb4c5f007ef86c30d402b8b4b452d1c2e1e354835f583bda273ae3f41759a0390683570bb9cb2c74224b3c711ad90fbc0316da07e3cf6e272c9d885eef945b9fe1fb80fd915b2aee5a2c816fe3a109d2c00bde7b00b0c9a8b253192c6605d79f2ac8e411b604b48772a2eb54d5a71e83a9320fb32baac65cfc863c170a0f35b4afbeedabe2a5a8889c5ae153a4c884afdf961aa45f662602e3c8440aa2c6be42f20b7b6b2471348493423ca06237c8ff3491bf9d2b52025803a4636b87131abfa9c2596ff3055af40d580ac15cadd50bffdb9d817d52928aa6a7d821706c963173e5a300a1659f831b8d6f9dd34dc42f3ea50cacac6ee39ae717ce438dcae874f5db43de7e8d98f416e9870cfcc0aeebf4506db7a1f84c10d73f3b9d2106d6f074f9d2ae03b56a7d6b77cd14280d7b88c5a8edc0840b6898de9583bd2aff4f186fc99b26385cd2033e1e1aa1ccd3d34b9c244f6caccc59b06b31834bbdd2cd9fd306e6a493d53d5e4c08231ffb8593332b028da7a84473879225c041e7c9ad0faa1159fd96be06279cdbfba4a2942ab37c80b35bcc60fd9830bfd236c06ca882625005ae3de4ff311947394f5cb14f20dc6470afe88926ec290df1dd09609c5bdbcb1f5eb7c79e1e05486494d5e372b4f3280bd9ca5d9f170a987a83437ff4ea1a43fdc528d7a530706dd2fcad466f3767ee13e4491c441b9d2ed9fa8d1b2e06e86e0dc1fb44793661e7d6561e7a7cace29f5ef64005db68925c3411238f9eced273a140e1f3a295923c21ee5a49fe586360779e63a4204666f51be5861fef0ddb284061d60180eb4e23d00a80a65d6117d7b5402cedc1cb6ccbfbf6091237e485a907f49e3f46080a6d3e12718c627694d4c819e00b445962810273da29ca5ac92fddbd6111cd9f99b29ddc98527ac5fe879a4990878733b77e1398104a1b022c4ba0ed901cbf7c3ad7f36b2cf9d3e6f5991590810dcad752f4a0ae82d65b5f338e51211e6868043aa3cfaf39f6a2b94f7130b98cd0be16ca41115461496a58ce3e98408d1521c6b3cc7ee596409b3d3b51cf69e2214853c481ad54f60786d567b3b028eec77631b13d3806b14450fdd5235dbae664be0deb4700bbe5487169e9ad06f986cce4139e699dd9d2fbe2771a33c767d0734f3f9ffbe4f67853183cbb4cf8e840f354cee746e040ca84024e31ea2dc77e9a650c7d1b3b5d4c44a22b82d22614816b1b59d6396e7c0c64bd16fa9117cf4481aa7512e8a38f30af8b62e46c8d361454ab5f764cd116f7bc9048089ba09ad126827c5cc2a13ccb44998b7bf5d4a4a9ef6493208fa6a03ceba0c2603a64ac50ab47966514a589592c78ca7d3f52826d7fd438b8dfd3352ed71b074dd9e898c3302ed96e3a1e9ff9a041b8bbd2623209849030a02e32a2575678b42e55b9eaabdd0f1c3b58fb964fc38548821cc1755deb831bdb4a0fc2078809e33be7a01aed06d67bdf35f45b901e2b7c179fec114705269035e7babb9b2e17eab06f7700e838c4a966168f6a5b12eda8f74a1be3d841507a9941be12d3e15c6b2f98a5897b97f4d541b7e0b32ec11336c94eee1ab5331ea0b91989fca28c037da2c34d45a22b665c644bf2ce7ecf863ab13ccf76f2aa20bfd20eff66d53a7d0495050c6f2b4f7732bbbaf4ec623bf53d0e1d0b7f11bc6776797231b2b000c1b1c2b2c374549515253737c848796abcaf0f5f8fb03041a1d22272e3e4045545e646ebdcad5dbdcf82d3e4951566872787a91a8b0bfdf0c133037565b76777c9eaadc0000000000000000000000172b394501fd210500df0425fb4bfe40a5dbd462e14382da35760fa0f4fe3c39be2da31bd9526a7c12d449bc01e1fa94f4f3aaae505a6a3addfd245ba8ef5072221c6f87eff8d4f07abe2d7b6a69050f2700863802349b9a38a47f53fc6723c0689e2dd27b36dcc0508ddce905726662779df4acd7c9282f5b8b4870cd89523ce24c1ba4339b58bdd2218b8b32d098b2703d92ecdd494081f14521dd702b5c2dc8fa41259496a56c4f66ae0d91818b84fb12166fca9346095ff72d5fe8630e94caac634f17df74b6f9c7d28d608f3b62c1580a0c4a63161a6e045decaf7eaa10425056315e2daf4db71ec2bcea0626e5c14355168842fd4887eb4eb920407fd582ba427adcfb5ac8f69518b57b4fffe54269c347ac9fa30e8360cb6d26854ce41e52f8cf69a2e84b449051b75d61a08cb2377b5ce8dd61c80eb0553a02b15c6b9eda002a2bd3f19831211b7c28ed197da2e8fcb2cb6239d11443426b84c86a1daa8525d7891c2c29300007cca5c5f720a8e5a6282921104769b28c8e8e4fa0d76089f4061a1137b68c87c4750ff2e0ed04a900674b070a293eb4807c64778ec08189fbe069ea5d3f87bdbab1e4c171e12976f9962fbd6ef11007ebf2395fe0302580c97861f2f65a2ee07a933fa231f628339ab4a16f8194b4c351f810ef5d50e1a74300e3b4c1f7ed50ecd4fe51d9644a451ed8e912a24fb1673f2ba4bbf85cbce65893fcc54828787309085ee2163e4b0ad2c609c733a803bfbfd83ecc1293957e8a5dedf35bf3c7f3d456b0e4d8fa28bf39930726171f8d11b9498c5bcba5e7cc18d4d56be5cd1e70e256ee8ed317f51f27d287302d08e1d6234cae73c4b7352aeae10123b9eb6e04a95297c18bcf36ad61e18faf7ddc81215a6e767253c429e3e79b3921a45d068e14f7b192a0229089a217234f55abac09b9daf56ea14a6ba5985c94e300a0db91674f200fe92c071161f73fa8ae40f22e2cda549077c20b64e036209813ced9fb90641cfa8d49d31c7f432313703f750146ca11a6c6a17dc4e2afdc66ba86d127241992a588400954e182e2a99da49b56aa730f609840e8fe7b92b7d0915166b43431fe5eb8750c960bed47062f3e998920303e7093e8adaa95aab47a946c015aa759f484e7c482dd4e63ce996998a1351537c400f477de91f430164d287abe156a851d9b14feb17b2cf8e45c08cbb3f43882b5723da01bd16a435fab7e923afb25745c2ad8a2181d30a1a5bd7cf3187e4eedbc5fb3688b82f524dd79c89007fe808d42d807088e6cd428d0dd94f58b9164d0c84c4216091a69652bb4beca3e242ac45fb7d0449ac475fe06ff8bfedcc20474954e55f3c9666b6a0f6b3bd50962dea48a60dd57cf0887aef26d3b87d42056377b853d0e45ad1f9bf20de1e439a364a7a8335fe40416de14c9e0c2333a689b2df387ba498bae581db1c83faca674f2ee77458de8417f2d6da0b4dad491c10e5e659b263f2df2e737a12ed4e8db91991d27d20e4b7f17200c37a146b584faa3940229b71726d3561386fffa40550463bbe39e3df5b17897b79b61757802e8719d870cfe9b042cd508e5e5d15f517a2a0d8efe12d78ad7010ad0b1ca1c7e4e671925eaae8721ee2933cd9e84b0a57a8e8a51d2d086fcbd075a58783dfe3946b9b3150a17ccc34b9bc0bd88386315b379681fbdd76d9291f5dba50101538988caab9418bb7300f4c317e596f3e13d6566328c87c6f5d53fc5d099958b531d5db733ca4004759864016c980daac701ff17609afaf3e4c372ea5847bebd47a0b73265414a5d0c5601a76984ab5a167d76ebcd889a5aec6db58796edf558e0cf0a693e194a655945f3c4ad52964505627c000000",
  "txid": "f6537ee5822b3d91e75e29f5fe69002c819e8f05a9690cbf10630e910cb4792c",
  "hash": "bd169ff650f0a27e286204c1a6de24259265d418a698ab3908eff156bb64ae7b",
  "size": 5085,
  "vsize": 2278,
  "version": 1,
  "locktime": 124,
  "vin": [
    {
      "txid": "3236bad4b8f8aa69865155d0b2f1e41a3252d02580a338bccef7624a1e4375f2",
      "vout": 0,
      "scriptSig": {
        "asm": "",
        "hex": ""
      },
      "txinwitness": [
        "d788f6224be9288f2b43363ba94f79348bf6d3647c61cbe784f3cf2375821bbaa6bce61af9e8f36071cb039e6ea85e9fcb7f6a22d40e0be27d3abd82e3ad2ba2b2658c1deef2f1bf3a79c8df2e17d8e21465622218cecf2e0c8d3ee866d16b561815660bac464b34a359378006caa03f4206c03a12912d0f5bf21730b9481aa85701350dfe4befe37d5cb4ce51df659c6e8156abe9ecf3035d010a97c5baa02d654b3d6f7e1b58542e9204cc1d0d65ffde0374bb2b6258b24f9894d1b3a32fac1e6efc8d39bf1042e9aa3036c169176ada098dcd65421a9bfc08ba75990111a841e52a5aebefed86aab40673c952201275fba36babfe0e968f4f7a3eeab50e1909e38904c11980503d8094af55df0025489f5f34aa21bbc2292205cb9d572a44470e088e56468757758b4653a8fcd4c3178f9a90f24700f5dfad5a61b0d249ad78cebf0008073720e8f3f422641e1d23b8fe1c32ffccd682731c31827524cc324f5e14b111d6c5d92c7f01b7e618a3eb168519a958c9d99a21a39f9159c1bdb1b24e06dacc5a2f66702e8b4f8dad13a52a93d53ab05b33ae3d26d58fd7bbac1b0990180a1cc015a7105c755636da086ab167b3718dcf35aecb25e2330b9dfed56af24e963427a383f931ee1715366684d88a8d486fbcfdd4bf8a5b7dc713cbc0b67af682448adda9a5929bea1e146589c27e49220261130fe653b6a2580aa9611a00efdd0f7871af67ee6c5087113d49501afae0660bea2d08c5da8eaebee81c660f8a8f168729f0385e1f7ad3e15338eb0c836c844ca2100c5d13acbcf0e360c8f7e69adb50a9ff7b7043714cbbf1deacbd975d4a5d7428c43dbf8bfbb57033a3f13788f52d27559f1959cd3762ef4d4c0dd3c69bb75302f6ab974bc322afe7b5e283e5ed70d2d1c7c8ccb5929ad22bd789a97a1a21fa96c0dbde2dc62516f3f86f7f6f42266aaccfce79486a5752c7e2145244da45209b750aa1c4584857dde808cab88e23d13a78a7848ed5d8fe5f53ea624c210b94c7bd7f5aa5d0deff078a33c26ae9574cbec5f9c523818d1321a5f6a332fe4c9df6d95737a9f7356484fd986d98cc834be4d2202b1b877efdc510aa9af2924103eac4b04a251a64009905e550ff03c9bb529a0e1d96f698023be774da13ba46bd1e15378be69fdcaa4f8bba2491ef52c7825bcd2468b46ae1552c5f8c2ca26080705eed2ab3864f2b965d4dfd63f2f5eba69367131a509113eb7256933c60acde3ef51c2a93bb97eda235412a7d4b978c409bd4d90d2700cd8835b7e1862094d7b183d1d485e98a3914634767115080a9897256b74321ce8b7e27cc8e4e5cc4546017dcf56abf917f2d0f0e7d26d9457f3e75c5d3ef146345adb567e4fc55246dedd6602f5fa64ae7f123ef3b864186de40b757afe78e5dfc1ef158690523857edc085fd0f2673ec083420b1db82e0cd3928673d2e549e2f63c56b4cbc199e257cbb2ea6aca7f33830c9a5eb469c052fb11e53d45c544655405cfe06c3b799f49c6882e6bfe1402b3df82bdfa64a91647c5b4abe86803faba3b49f41f9ac40829879142bc79575bfda1bdee75ec4daad6e2e8b4b76d4fbc4d163b312badb4c5f007ef86c30d402b8b4b452d1c2e1e354835f583bda273ae3f41759a0390683570bb9cb2c74224b3c711ad90fbc0316da07e3cf6e272c9d885eef945b9fe1fb80fd915b2aee5a2c816fe3a109d2c00bde7b00b0c9a8b253192c6605d79f2ac8e411b604b48772a2eb54d5a71e83a9320fb32baac65cfc863c170a0f35b4afbeedabe2a5a8889c5ae153a4c884afdf961aa45f662602e3c8440aa2c6be42f20b7b6b2471348493423ca06237c8ff3491bf9d2b52025803a4636b87131abfa9c2596ff3055af40d580ac15cadd50bffdb9d817d52928aa6a7d821706c963173e5a300a1659f831b8d6f9dd34dc42f3ea50cacac6ee39ae717ce438dcae874f5db43de7e8d98f416e9870cfcc0aeebf4506db7a1f84c10d73f3b9d2106d6f074f9d2ae03b56a7d6b77cd14280d7b88c5a8edc0840b6898de9583bd2aff4f186fc99b26385cd2033e1e1aa1ccd3d34b9c244f6caccc59b06b31834bbdd2cd9fd306e6a493d53d5e4c08231ffb8593332b028da7a84473879225c041e7c9ad0faa1159fd96be06279cdbfba4a2942ab37c80b35bcc60fd9830bfd236c06ca882625005ae3de4ff311947394f5cb14f20dc6470afe88926ec290df1dd09609c5bdbcb1f5eb7c79e1e05486494d5e372b4f3280bd9ca5d9f170a987a83437ff4ea1a43fdc528d7a530706dd2fcad466f3767ee13e4491c441b9d2ed9fa8d1b2e06e86e0dc1fb44793661e7d6561e7a7cace29f5ef64005db68925c3411238f9eced273a140e1f3a295923c21ee5a49fe586360779e63a4204666f51be5861fef0ddb284061d60180eb4e23d00a80a65d6117d7b5402cedc1cb6ccbfbf6091237e485a907f49e3f46080a6d3e12718c627694d4c819e00b445962810273da29ca5ac92fddbd6111cd9f99b29ddc98527ac5fe879a4990878733b77e1398104a1b022c4ba0ed901cbf7c3ad7f36b2cf9d3e6f5991590810dcad752f4a0ae82d65b5f338e51211e6868043aa3cfaf39f6a2b94f7130b98cd0be16ca41115461496a58ce3e98408d1521c6b3cc7ee596409b3d3b51cf69e2214853c481ad54f60786d567b3b028eec77631b13d3806b14450fdd5235dbae664be0deb4700bbe5487169e9ad06f986cce4139e699dd9d2fbe2771a33c767d0734f3f9ffbe4f67853183cbb4cf8e840f354cee746e040ca84024e31ea2dc77e9a650c7d1b3b5d4c44a22b82d22614816b1b59d6396e7c0c64bd16fa9117cf4481aa7512e8a38f30af8b62e46c8d361454ab5f764cd116f7bc9048089ba09ad126827c5cc2a13ccb44998b7bf5d4a4a9ef6493208fa6a03ceba0c2603a64ac50ab47966514a589592c78ca7d3f52826d7fd438b8dfd3352ed71b074dd9e898c3302ed96e3a1e9ff9a041b8bbd2623209849030a02e32a2575678b42e55b9eaabdd0f1c3b58fb964fc38548821cc1755deb831bdb4a0fc2078809e33be7a01aed06d67bdf35f45b901e2b7c179fec114705269035e7babb9b2e17eab06f7700e838c4a966168f6a5b12eda8f74a1be3d841507a9941be12d3e15c6b2f98a5897b97f4d541b7e0b32ec11336c94eee1ab5331ea0b91989fca28c037da2c34d45a22b665c644bf2ce7ecf863ab13ccf76f2aa20bfd20eff66d53a7d0495050c6f2b4f7732bbbaf4ec623bf53d0e1d0b7f11bc6776797231b2b000c1b1c2b2c374549515253737c848796abcaf0f5f8fb03041a1d22272e3e4045545e646ebdcad5dbdcf82d3e4951566872787a91a8b0bfdf0c133037565b76777c9eaadc0000000000000000000000172b394501",
        "00df0425fb4bfe40a5dbd462e14382da35760fa0f4fe3c39be2da31bd9526a7c12d449bc01e1fa94f4f3aaae505a6a3addfd245ba8ef5072221c6f87eff8d4f07abe2d7b6a69050f2700863802349b9a38a47f53fc6723c0689e2dd27b36dcc0508ddce905726662779df4acd7c9282f5b8b4870cd89523ce24c1ba4339b58bdd2218b8b32d098b2703d92ecdd494081f14521dd702b5c2dc8fa41259496a56c4f66ae0d91818b84fb12166fca9346095ff72d5fe8630e94caac634f17df74b6f9c7d28d608f3b62c1580a0c4a63161a6e045decaf7eaa10425056315e2daf4db71ec2bcea0626e5c14355168842fd4887eb4eb920407fd582ba427adcfb5ac8f69518b57b4fffe54269c347ac9fa30e8360cb6d26854ce41e52f8cf69a2e84b449051b75d61a08cb2377b5ce8dd61c80eb0553a02b15c6b9eda002a2bd3f19831211b7c28ed197da2e8fcb2cb6239d11443426b84c86a1daa8525d7891c2c29300007cca5c5f720a8e5a6282921104769b28c8e8e4fa0d76089f4061a1137b68c87c4750ff2e0ed04a900674b070a293eb4807c64778ec08189fbe069ea5d3f87bdbab1e4c171e12976f9962fbd6ef11007ebf2395fe0302580c97861f2f65a2ee07a933fa231f628339ab4a16f8194b4c351f810ef5d50e1a74300e3b4c1f7ed50ecd4fe51d9644a451ed8e912a24fb1673f2ba4bbf85cbce65893fcc54828787309085ee2163e4b0ad2c609c733a803bfbfd83ecc1293957e8a5dedf35bf3c7f3d456b0e4d8fa28bf39930726171f8d11b9498c5bcba5e7cc18d4d56be5cd1e70e256ee8ed317f51f27d287302d08e1d6234cae73c4b7352aeae10123b9eb6e04a95297c18bcf36ad61e18faf7ddc81215a6e767253c429e3e79b3921a45d068e14f7b192a0229089a217234f55abac09b9daf56ea14a6ba5985c94e300a0db91674f200fe92c071161f73fa8ae40f22e2cda549077c20b64e036209813ced9fb90641cfa8d49d31c7f432313703f750146ca11a6c6a17dc4e2afdc66ba86d127241992a588400954e182e2a99da49b56aa730f609840e8fe7b92b7d0915166b43431fe5eb8750c960bed47062f3e998920303e7093e8adaa95aab47a946c015aa759f484e7c482dd4e63ce996998a1351537c400f477de91f430164d287abe156a851d9b14feb17b2cf8e45c08cbb3f43882b5723da01bd16a435fab7e923afb25745c2ad8a2181d30a1a5bd7cf3187e4eedbc5fb3688b82f524dd79c89007fe808d42d807088e6cd428d0dd94f58b9164d0c84c4216091a69652bb4beca3e242ac45fb7d0449ac475fe06ff8bfedcc20474954e55f3c9666b6a0f6b3bd50962dea48a60dd57cf0887aef26d3b87d42056377b853d0e45ad1f9bf20de1e439a364a7a8335fe40416de14c9e0c2333a689b2df387ba498bae581db1c83faca674f2ee77458de8417f2d6da0b4dad491c10e5e659b263f2df2e737a12ed4e8db91991d27d20e4b7f17200c37a146b584faa3940229b71726d3561386fffa40550463bbe39e3df5b17897b79b61757802e8719d870cfe9b042cd508e5e5d15f517a2a0d8efe12d78ad7010ad0b1ca1c7e4e671925eaae8721ee2933cd9e84b0a57a8e8a51d2d086fcbd075a58783dfe3946b9b3150a17ccc34b9bc0bd88386315b379681fbdd76d9291f5dba50101538988caab9418bb7300f4c317e596f3e13d6566328c87c6f5d53fc5d099958b531d5db733ca4004759864016c980daac701ff17609afaf3e4c372ea5847bebd47a0b73265414a5d0c5601a76984ab5a167d76ebcd889a5aec6db58796edf558e0cf0a693e194a655945f3c4ad5296450562"
      ],
      "sequence": 4294967294
    }
  ],
  "vout": [
    {
      "value": 499973.5606,
      "n": 0,
      "scriptPubKey": {
        "asm": "1 5acfa808afc6ea5893ace1bf842b5d9ab4bc96402a11989c2b8cd3bf38818702",
        "hex": "51205acfa808afc6ea5893ace1bf842b5d9ab4bc96402a11989c2b8cd3bf38818702",
        "reqSigs": 1,
        "type": "witness_v1_scripthash",
        "addresses": [
          "3QJmnh"
        ]
      }
    },
    {
      "value": 1.0,
      "n": 1,
      "scriptPubKey": {
        "asm": "OP_RETURN 5220a80ca2ba0eaa9b10b0bb3f8bb830cd65177ca92366b173d0d005e02cdc20 fb3a1f281976569cd63abb8e84a84e454d3d219f34eea1b3cbba94194d1fd051db1a3f08395676bcf61a9baea4886e656d1d01bf14ce8193eb9ab4396d3ff071bb7a5f68593616dc967afbcec4e80e050d7d61df74aee1f38bfad4590d5f90119b5a7f48791636fcb65adbeee4c82e252d5d41ff548ec1d3abdaf4792d7fb0317bba9fa899f6d61c56ba3b0e0428cec5cdbda11fb46e21334b3a1499cd9f50d15b9abf88b9d6f63c769a1b2e2408eee5ed9d813f944e01136b1a34b9edbf70f13bfadfe8d9b6965c16fa7b4e44688e858dfde15ff42e61730b7a54d98ddf10911bdaffc8f996b67c36da5b6e6448aea5adddc17fd40e41532b5a74f9adff30b1fb3a1f281976569cd63abb8e84a84e454d3d219f34eea1b3cbba94194d1fd051db1a3f08395676bcf61a9baea4886e656d1d01bf14ce8193eb9ab4396d3ff071bb7a5f68593616dc967afbcec4e80e050d7d61df74aee1f38bfad4590d5f90119b5a7f48791636fcb65adbeee4c82e252d5d41ff548ec1d3abdaf4792d7fb0317bba9fa899f6d61c56ba3b0e0428cec5cdbda11fb46e21334b3a1499cd9f50d15b9abf88b9d6f63c769a1b2e2408eee5ed9d813f944e01136b1a34b9edbf70f13bfadfe8d9b6965c16fa7b4e44688e858dfde15ff42e61730b7a54d98ddf10911bdaffc8f996b67c36da5b6e6448aea5adddc17fd40e41532b5a74f9adff30b1fb3a1f281976569cd63abb8e84a84e454d3d219f34eea1b3cbba94194d1fd051db1a3f08395676bcf61a9baea4886e656d1d01bf14ce8193eb9ab4396d3ff071bb7a5f68593616dc967afbcec4e80e050d7d61df74aee1f38bfad4590d5f90119b5a7f48791636fcb65adbeee4c82e252d5d41ff548ec1d3abdaf4792d7fb0317bba9fa899f6d61c56ba3b0e0428cec5cdbda11fb46e21334b3a1499cd9f50d15b9abf88b9d6f63c769a1b2e2408eee5ed9d813f944e01136b1a34b9edbf70f13bfadfe8d9b6965c16fa7b4e44688e858dfde15ff42e61730b7a54d98ddf10911bdaffc8f996b67c36da5b6e6448aea5adddc17fd40e41532b5a74f9adff30b1fb3a1f281976569cd63abb8e84a84e454d3d219f34eea1b3cbba94194d1fd051db1a3f08395676bcf61a9baea4886e656d1d01bf14ce8193eb9ab4396d3ff071bb7a5f68593616dc967afbcec4e80e050d7d61df74aee1f38bfad4590d5f90119b5a7f48791636fcb65adbeee4c82e252d5d41ff548ec1d3abdaf4792d7fb0317bba9fa899f6d61c56ba3b0e0428cec5cdbda11fb46e21334b3a1499cd9f50d15b9abf88b9d6f63c769a1b2e2408eee5ed9d813f944e01136b1a34b9edbf70f13bfadfe8d9b6965c16fa7b4e44688e858dfde15ff42e61730b7a54d98ddf10911bdaffc8f996b67c36da5b6e6448aea5adddc17fd40e41532b5a74f9adff30b1fb3a1f281976569cd63abb8e84a84e454d3d219f34eea1b3cbba94194d1fd051db1a3f08395676bcf61a9baea4886e656d1d01bf14ce8193eb9ab4396d3ff071bb7a5f68593616dc967afbcec4e80e050d7d61df74aee1f38bfad4590d5f90119b5a7f48791636fcb65adbeee4c82e252d5d41ff548ec1d3abdaf4792d7fb0317bba9fa899f6d61c56ba3b0e0428cec5ad00246d02cd35a95c3a08b7ac691d1007ab2a8d69214071ff1879c8e555fe5e",
        "hex": "6a205220a80ca2ba0eaa9b10b0bb3f8bb830cd65177ca92366b173d0d005e02cdc204db004fb3a1f281976569cd63abb8e84a84e454d3d219f34eea1b3cbba94194d1fd051db1a3f08395676bcf61a9baea4886e656d1d01bf14ce8193eb9ab4396d3ff071bb7a5f68593616dc967afbcec4e80e050d7d61df74aee1f38bfad4590d5f90119b5a7f48791636fcb65adbeee4c82e252d5d41ff548ec1d3abdaf4792d7fb0317bba9fa899f6d61c56ba3b0e0428cec5cdbda11fb46e21334b3a1499cd9f50d15b9abf88b9d6f63c769a1b2e2408eee5ed9d813f944e01136b1a34b9edbf70f13bfadfe8d9b6965c16fa7b4e44688e858dfde15ff42e61730b7a54d98ddf10911bdaffc8f996b67c36da5b6e6448aea5adddc17fd40e41532b5a74f9adff30b1fb3a1f281976569cd63abb8e84a84e454d3d219f34eea1b3cbba94194d1fd051db1a3f08395676bcf61a9baea4886e656d1d01bf14ce8193eb9ab4396d3ff071bb7a5f68593616dc967afbcec4e80e050d7d61df74aee1f38bfad4590d5f90119b5a7f48791636fcb65adbeee4c82e252d5d41ff548ec1d3abdaf4792d7fb0317bba9fa899f6d61c56ba3b0e0428cec5cdbda11fb46e21334b3a1499cd9f50d15b9abf88b9d6f63c769a1b2e2408eee5ed9d813f944e01136b1a34b9edbf70f13bfadfe8d9b6965c16fa7b4e44688e858dfde15ff42e61730b7a54d98ddf10911bdaffc8f996b67c36da5b6e6448aea5adddc17fd40e41532b5a74f9adff30b1fb3a1f281976569cd63abb8e84a84e454d3d219f34eea1b3cbba94194d1fd051db1a3f08395676bcf61a9baea4886e656d1d01bf14ce8193eb9ab4396d3ff071bb7a5f68593616dc967afbcec4e80e050d7d61df74aee1f38bfad4590d5f90119b5a7f48791636fcb65adbeee4c82e252d5d41ff548ec1d3abdaf4792d7fb0317bba9fa899f6d61c56ba3b0e0428cec5cdbda11fb46e21334b3a1499cd9f50d15b9abf88b9d6f63c769a1b2e2408eee5ed9d813f944e01136b1a34b9edbf70f13bfadfe8d9b6965c16fa7b4e44688e858dfde15ff42e61730b7a54d98ddf10911bdaffc8f996b67c36da5b6e6448aea5adddc17fd40e41532b5a74f9adff30b1fb3a1f281976569cd63abb8e84a84e454d3d219f34eea1b3cbba94194d1fd051db1a3f08395676bcf61a9baea4886e656d1d01bf14ce8193eb9ab4396d3ff071bb7a5f68593616dc967afbcec4e80e050d7d61df74aee1f38bfad4590d5f90119b5a7f48791636fcb65adbeee4c82e252d5d41ff548ec1d3abdaf4792d7fb0317bba9fa899f6d61c56ba3b0e0428cec5cdbda11fb46e21334b3a1499cd9f50d15b9abf88b9d6f63c769a1b2e2408eee5ed9d813f944e01136b1a34b9edbf70f13bfadfe8d9b6965c16fa7b4e44688e858dfde15ff42e61730b7a54d98ddf10911bdaffc8f996b67c36da5b6e6448aea5adddc17fd40e41532b5a74f9adff30b1fb3a1f281976569cd63abb8e84a84e454d3d219f34eea1b3cbba94194d1fd051db1a3f08395676bcf61a9baea4886e656d1d01bf14ce8193eb9ab4396d3ff071bb7a5f68593616dc967afbcec4e80e050d7d61df74aee1f38bfad4590d5f90119b5a7f48791636fcb65adbeee4c82e252d5d41ff548ec1d3abdaf4792d7fb0317bba9fa899f6d61c56ba3b0e0428cec5ad00246d02cd35a95c3a08b7ac691d1007ab2a8d69214071ff1879c8e555fe5e",
        "type": "nulldata"
      }
    }
  ],
  "blockhash": "fe93069f37b49cfb15542a42b300d4e9dc573fdbbe6c5d081907ef62d551896a",
  "confirmations": 1,
  "time": 1764180962,
  "blocktime": 1764180962
}