{
  "hex": "0100000000010162b86da82623f87800151c385e163815a966f6411d33c544084ff92cbaa220e10100000000feffffff0250771315792d000022512039e1764e00f19395869a58f8509fba9685eacd53c11262a4108fb2863f7ee03c00e1f50500000000fdd5046a2062295c697396ea7ab325035385526061794b015481711eab73320233bfdf14af4db00404cb7da2aca137571483d2f90feb9b4ff696b4800aa861b59ecb04d1f439dcd624eb5d828c81177734a3f2d92fcbbb6fd6b694a02a884195beeb24f1d419fcf6448b3de2ece1771754c392b94fabdb0fb6d6f4c04ae821f5de8b4491b4799c9664ab1dc2ccc1573774e3b2996f8bfb2f96f6d4e06ac801d5feab64b19459bcb6844bfd222c21b7d7940352798f6b1bcf761634008a28e1351e4b845174b95c56a46bdd020c0197f7b4237259af4b3bef56361420aa08c1153e6ba47154997c76c40bbd626c61f797d4431239cf2b5b8f36567440ca68a1755e0bc41134f91c16e42b9d424c41d7b7f4633219ef0b7baf16765460ea4881557e2be43114d93c3604cb7da2aca137571483d2f90feb9b4ff696b4800aa861b59ecb04d1f439dcd624eb5d828c81177734a3f2d92fcbbb6fd6b694a02a884195beeb24f1d419fcf6448b3de2ece1771754c392b94fabdb0fb6d6f4c04ae821f5de8b4491b4799c9664ab1dc2ccc1573774e3b2996f8bfb2f96f6d4e06ac801d5feab64b19459bcb6844bfd222c21b7d7940352798f6b1bcf761634008a28e1351e4b845174b95c56a46bdd020c0197f7b4237259af4b3bef56361420aa08c1153e6ba47154997c76c40bbd626c61f797d4431239cf2b5b8f36567440ca68a1755e0bc41134f91c16e42b9d424c41d7b7f4633219ef0b7baf16765460ea4881557e2be43114d93c3604cb7da2aca137571483d2f90feb9b4ff696b4800aa861b59ecb04d1f439dcd624eb5d828c81177734a3f2d92fcbbb6fd6b694a02a884195beeb24f1d419fcf6448b3de2ece1771754c392b94fabdb0fb6d6f4c04ae821f5de8b4491b4799c9664ab1dc2ccc1573774e3b2996f8bfb2f96f6d4e06ac801d5feab64b19459bcb6844bfd222c21b7d7940352798f6b1bcf761634008a28e1351e4b845174b95c56a46bdd020c0197f7b4237259af4b3bef56361420aa08c1153e6ba47154997c76c40bbd626c61f797d4431239cf2b5b8f36567440ca68a1755e0bc41134f91c16e42b9d424c41d7b7f4633219ef0b7baf16765460ea4881557e2be43114d93c3604cb7da2aca137571483d2f90feb9b4ff696b4800aa861b59ecb04d1f439dcd624eb5d828c81177734a3f2d92fcbbb6fd6b694a02a884195beeb24f1d419fcf6448b3de2ece1771754c392b94fabdb0fb6d6f4c04ae821f5de8b4491b4799c9664ab1dc2ccc1573774e3b2996f8bfb2f96f6d4e06ac801d5feab64b19459bcb6844bfd222c21b7d7940352798f6b1bcf761634008a28e1351e4b845174b95c56a46bdd020c0197f7b4237259af4b3bef56361420aa08c1153e6ba47154997c76c40bbd626c61f797d4431239cf2b5b8f36567440ca68a1755e0bc41134f91c16e42b9d424c41d7b7f4633219ef0b7baf16765460ea4881557e2be43114d93c3604cb7da2aca137571483d2f90feb9b4ff696b4800aa861b59ecb04d1f439dcd624eb5d828c81177734a3f2d92fcbbb6fd6b694a02a884195beeb24f1d419fcf6448b3de2ece1771754c392b94fabdb0fb6d6f4c04ae821f5de8b4491b4799c9664ab1dc2ccc1573774e3b2996f8bfb2f96f6d4e06ac801d5feab64b19459bcb6844bfd222c21b7d7940352798f6b1bcfb145ee2b01d51f1ae498e1461b57190296435e48e222ad28922566369aef0fd702fd7509e7ff24c05653bd9d0d4bb25a827e3d471c0d098e0857af60ac1998b325013aad35bf94f315fb16df8482b35e61eb3ab3fedb8f481829ed9288f336aea4dcd38b4e060ec254b390f1243432d057be8982d31f9a208091589d060b4c42bebbfc83a958ab1a1f6ea8d22cfb29b29ff5d8aebae900f8b931721fce8e1f6d737cf0833d8ad94867480958866331561428d9e4ac40d7f8be683b050fc46f0abe4f37a8f60269cde4be84189c9417ffcd667852fa09d714cf668873e862cfbee1f603318269de790c42d7e453142bd4dd2414d35ee55c88825c3b23a916a03832094485f48ad12030341cead7e9538de9fc771b9006b0f0cbb1b0e7fefb8a17ded23a1412cfc5fe2f24437d32e103ade053f47e0de54ff9b277450396bd3504eb69d6d2c1ff4e1e47f4b54b30eeed722ff661cc55cc1807039795b7df5050cea0317dbd8b034b5f08d1c5d443a4612ffc0c50f7d3f90e5df31685e21dccc092f7a53cf100f722845892b8aeda67d6da9561fc810229576c897f9770b0125d14cc97eef554acbdeaf531348a287102d983e4dd834023e824fd37070e01b85cc8918f302b20d0f2f348899528bd694fae6f80f73f0305d0708a079c417c9d924cb73a597d5aa172e17337c34cfe3a6fdf25e3b92b14170b6a135acd098d28c58d726294ced50c9d3f4f33151fba2b2b73f8d910b0346689e8fb0d1ecd24879f62c24ca03d155b884451b0d155cd2b5b55024d8f6614706d9932dec42705ddb6dc3937a0312605ee8eb703085c1e7d1661006519ab72846dc1c3ab15cc59dd36260c768b947a0c181739b7dea7fcae08fcbe989ae4b970c8310a7b990fac53fbe9f75577b500c33a233a99f17e1b398b3fe8a8613714ad0b192c717b335f249442ea3d5094e122a64ecf14f850ad8e70822134ca0af5caf3931a656703dabe08106663424ca899f9a28b3c8ab5872fa96fdabf401b51b679589ae5d33686d96d87d4ee4371c003ad00dda099e0864d064c85884328e3bd630f6af689f7a9f9c17ad0f3eb66ae5920083d0dde80b110fa2cd22fe7668bf27ed2a08171acbcc978d5a69eeea5e66cca71a98a9de4d8e651c2ca44ec53c5e145d00bb5710b6062101f69b935305d9e24d60d639241e3cc7b21ef6593718ba2a9055715f9af11e83de6c192fece7d24e8bf0bf083527c3c9abc76f58a6e7f90581b7a5a917a13aa6e55aa496d2058c9aecda141e87c6dfd13fccdf74377851b35dc749fd32458d1445ba3bbffbece4623032b860301acfbcb1d9038f6cc4b5509f9d1ab0f03a5a3faaa5665a6a2199c71503c8fb22e8bc538ab27a032cb270b6e64c8a766f709555a34c7a41a48f7fc452959e9ad4906fec3809f3c6dbfcecabfe20b9797cde0d41ef0a3bbd004e4aa0fbcf0a5569bf9867a3763acba626aa6a57fc22978a4539b20bc3de2f727f14152faaff2493c2aad82b2954e1c3c4fb39229728b48014d7b8bcb713552ba9f0f1c8a249b48400f89c2fd7049c2dbc7edc81fd5be9cefd51e174bd15066a9285abbcf9e204bb575750904d8f49acf441c0366552dca77c657240bc4999716f16aaad51537c87e35e315e7c962b83ee15d17d6221eed7191cc9fa9d1c994ca57fa147b0605dda78eb9158cb0583ad71f5f7d69e45560b684f1bb5f90728207c6537f6aab027a6a5fd3f58953fc4904e89b3c8b2e2bed717cfb4900fecf27b857cf2e31aa94deba317e970eac12782a790f7d3ff048f0e67585791f6f726aaa407fed69e29eaf0ca49ad85f730c10b76c2458f6eb3ad6c6fbaefdef3660b33011d1307e3e57366a5a2468b7a4c4ebb94f4c50a98bb71bbccef9a847b32bbac1124e370ed370e54678277083df4309280806f3a0bac383897d42a1f9d4bad16e504971b22dc9c705f60fdf32f54237bac39ce7775b484a57a2e44c7c78093fc133ca2e0191b87818afaefeb9942cb6565bea043732054192d64266fad311cd6262e4c900bfc8317745f289fc20b888a1494075b10341ee319e6ff87835c4d62fd487a205518de4507725fb54d2217f0145863767003a1b9e3dbc51fced43e1ae0b08e3a1609932483f2772cea24c821f61643d36eda7fbd1c203ba3319c66fc7ecbeb4c41fc2fba68b13d8bd94d482b10c3eb13f605ca9d928f2e94c4b4a9ea66661fc324ae84219da27bd7c9c365c45a93172463d6f0c80ad49a55d2cae567591daf63e86a94b1a4c652d94e724a878345e219f2926553adf490b51a898d61a55ac0dfdcac33f8f15b0c512c1502b71affa75064be1c5dc2c638a7a2474058bb92672499e3915cfccffb9c38cfe608284b7001a2126a4104ae818c805f7445e5a6b003d344e56790579c80dc58c53519261c0fc0d7d6d883d1071a65259a18ee2bafe4341a6201cdb9344e047100649967e2c445c2d7af3cdf130309dd14172ef640e0e661f39229743ca21d3b50f539eafdb2bce340b4afa6880fe97c249326352e8a68481113a4808829f4327ea7dc0e231b0a64276c5bd3178527ca55b63bcfb81a54d7e754146238cec13598241309551dd3e70262091a953c7de15d9085b3f04beac34aefee018011153e6de8ec0b7a60ba3dc4f897e20d2e7efb429a9f3fa1790716c40d62ac151dc692853141fd6930f77d7bbe6a80208a67352cf281aecd2ff15eb69203044b6d6e01273c6f83c68c7a9c54ae0a11e4e81f29781f4b1b97998fce419a2e1aa680605729624ec2138a09e8b55b352ba2d2d93a1380282cea783290955c254b8a74a2d071c49cf4311704bdb7889b31d1184292b18a0fcfddb2daec67c3337da009512f690f85c3c16633611df64c57d767e0235f1bdded92328df0eae0e33049df1df76a58b6034db557aeb57c95b131dd319bbb07416ebb9e97c4142189408b44c5e6636f9718bcf6f44ee01e25e06c092ca70896007b839c3a9cd7b42ea105cbfc0c6984198da4032740423215abf73fd101ab7cc4154c0596b1e4928691b1eb05d4012673e66e9e4cf65e2af3ae31e3c174ea9e2abaff39d1a94eae67515f94140560b5cb4d72a03aec4985e7787939bbe978f60095b0fc0926dc09038589da0a9ae992ff8098f2e3d57ee5b1cb1723c557526d32675120843bf7f8c4d9f1815451763333dfea40ecef10d5a829174d1a0ae27ff0f7fcd01623af92604eb84c056a4c6df8ce20985432812e1e134a9b8d66b420bb1238d086d3c433dfea93160bd27203ebd9c8d64f12705764cfb6094d7982c58dedf8f6cd9a43281df7a866bf2a83b30f77263dc37510f556f43cf6eb924da2b050c10192734364d69727984aeced0dde7ecef0b153a414360aaacadc9e4fd0d181e1f2e3c4152acadaebac1d4e2e40427303458767b8390949598999d9fd5e3ebf9fe00000000000000000000000000131f2f4301fd21050036896c76a50c63f593ea8748d22158b1dd28a7c440e68796b14ec9c5350cb8c9b5d448e9e6be997df29feeaddccba4364bcec3e85011547a233e4ca87b0861c8f297b1a1308a060b0280a936fe5191168d2880516f89e6966bd41c7b00739ffb901d082a2bc47ac0d438734c3976b0399ee7848d07687133c3ee3a02d4971db732ebf04c15da470722ee29d7782ccc5ca3dda0383d22c5d0ed4348c07f9adb28a11f843a43684df017e5c9f39f9ccb7a2122c4353ad6548547f1155340f1cb8d98e9942f9dabf02022e60b94e2e394f21cc01a9fc782cccb010483d6e8fbe9cc3598edbc3caa4614c95c787a484202acb642af31e55e453241f3c22844c5d267088b37e850b7150b3dc0ad586706b84ac49108e151a597962dfc54d1f0f36c16389f06636e5771d7a3576dc4475f32c60fbd32cabd8b7cdf62b0f5a5a4d23b6a672e678262c5e465901bcc062d882e10caa0d6ef2ea7b5254729b2c26e3782c05037a7c0b2e0b49494bf85d799556b702e4e231887973cc699efa293e7ce0193581dd0360d749504f169fcd5b447f1daab73fd0eb826b08bc9d5d9f5186b6130ed95ee5d5259eea387da727ad81e3e9e61888d1fbd151a975704464e39aeefd5593bf3301da05bb2721d8a7dbef829f57e6d067cc5fd15022cef27477ad5446b4dc8e70b8e56844ca8ba158db9571e16d447f8cd63dd5aed1838412b34b9563dd4433d63249aef567c53da5ba0f3f8737520a110fa45a06c301332e780c7c022882a27038a8db629761efdbfca4ed48e1039a433c7a062b2307fc20edde8404fb3380b6ea6f4bf3ee883fc76d8a546fabbb989aee129285a5df528d26623eecfe87c1979255e092d850bb514f5839851295d343ac887627e9ac151b3de6e96cbed26189ff3d472751551e7dddd16e56c78cd212171427340f7b3f9fa354654879a8fb9502c5270cd1d23e93bd34a244fd7dc73cd53ecb5267e7a52e5958122c6a4ac3b8e6a8072b7a8c8488113da9435fa8aa7d364b748da72c20b817fd4b9f088bd2ea87da1e71e050821b93547eb6c69d32c0dd9a9a828ea7000d949ae2730776d00b06fbfca4ddf06ce0beb6c88c2f3d3b12afa6cc1f99f14ee78067d4d9388b1241e28a1c53285344a377b9470bbdcb6d8c65ce3709243d5a86cb6127d5b3c7b42ae2803a67e48ddd7e79e78b606ec262233b683c77b69c42eeea7b66a5fb0cd4c886a775889efc30f5eb66731c7f5d17f1ca4f6b0a5ecd479f09ce28dbaed5bafc0d9a876800033394fe2c30682545d538b055a582bccde986a559d4fa275a7836cf978ae45dde67e22731f2c8edc954ed421eee48d31ba6265e34039a96cfaa399c1b522ba458829491a5500da7bc6d998d0094843c44584468d79e5061adbb89c4987343ecdcf63264398e6370dcce581bb1a85d9bd98497a0060fe91c5df3f9c668ece2c63d01287c1a6407fa09893d6e79fc9addd9e58431cf3fe9172077a43dd6260b16e3b9ccad07c0c3988ca4708e0061acd180da8668bc6da4b8c54641066a08868b659c30d6aaa3280fc69c90f99602f6f96ee354b6cc6cd3e81c670ada50c4feb949ffe9abaddad24bf8c77e05642161d8de23c5fb24809d8a8d4f78f8d72efe54b8b02a16dd3128cb23b252699a43a7c55d1306125bd663fb828872e5e8ecc59135e83d9f909d8d164c43349d407ec424df09d38232d15f119b3b8a85a57bdfe48d596c0b239271623cb9dd4a88e3d3889547988dfe947cde39b6e26f65428f0258e34f38b2d4f821cbdc391df275a67b5673a7e41838f3e4997656aef875d4896d63e895b3b237a36ab9db4a831a3e2c865217ddc57612875000000",
  "txid": "f8efd4087e2bff442ab892dfc21632954f7613f1c438efc9f4858b59b91462c6",
  "hash": "655c48ebc9a23df82e016df2383812f326d19739137806763525aeae76b01a04",
  "size": 5085,
  "vsize": 2278,
  "version": 1,
  "locktime": 117,
  "vin": [
    {
      "txid": "e120a2ba2cf94f0844c5331d41f666a91538165e381c150078f82326a86db862",
      "vout": 1,
      "scriptSig": {
        "asm": "",
        "hex": ""
      },
      "txinwitness": [
        "e7ff24c05653bd9d0d4bb25a827e3d471c0d098e0857af60ac1998b325013aad35bf94f315fb16df8482b35e61eb3ab3fedb8f481829ed9288f336aea4dcd38b4e060ec254b390f1243432d057be8982d31f9a208091589d060b4c42bebbfc83a958ab1a1f6ea8d22cfb29b29ff5d8aebae900f8b931721fce8e1f6d737cf0833d8ad94867480958866331561428d9e4ac40d7f8be683b050fc46f0abe4f37a8f60269cde4be84189c9417ffcd667852fa09d714cf668873e862cfbee1f603318269de790c42d7e453142bd4dd2414d35ee55c88825c3b23a916a03832094485f48ad12030341cead7e9538de9fc771b9006b0f0cbb1b0e7fefb8a17ded23a1412cfc5fe2f24437d32e103ade053f47e0de54ff9b277450396bd3504eb69d6d2c1ff4e1e47f4b54b30eeed722ff661cc55cc1807039795b7df5050cea0317dbd8b034b5f08d1c5d443a4612ffc0c50f7d3f90e5df31685e21dccc092f7a53cf100f722845892b8aeda67d6da9561fc810229576c897f9770b0125d14cc97eef554acbdeaf531348a287102d983e4dd834023e824fd37070e01b85cc8918f302b20d0f2f348899528bd694fae6f80f73f0305d0708a079c417c9d924cb73a597d5aa172e17337c34cfe3a6fdf25e3b92b14170b6a135acd098d28c58d726294ced50c9d3f4f33151fba2b2b73f8d910b0346689e8fb0d1ecd24879f62c24ca03d155b884451b0d155cd2b5b55024d8f6614706d9932dec42705ddb6dc3937a0312605ee8eb703085c1e7d1661006519ab72846dc1c3ab15cc59dd36260c768b947a0c181739b7dea7fcae08fcbe989ae4b970c8310a7b990fac53fbe9f75577b500c33a233a99f17e1b398b3fe8a8613714ad0b192c717b335f249442ea3d5094e122a64ecf14f850ad8e70822134ca0af5caf3931a656703dabe08106663424ca899f9a28b3c8ab5872fa96fdabf401b51b679589ae5d33686d96d87d4ee4371c003ad00dda099e0864d064c85884328e3bd630f6af689f7a9f9c17ad0f3eb66ae5920083d0dde80b110fa2cd22fe7668bf27ed2a08171acbcc978d5a69eeea5e66cca71a98a9de4d8e651c2ca44ec53c5e145d00bb5710b6062101f69b935305d9e24d60d639241e3cc7b21ef6593718ba2a9055715f9af11e83de6c192fece7d24e8bf0bf083527c3c9abc76f58a6e7f90581b7a5a917a13aa6e55aa496d2058c9aecda141e87c6dfd13fccdf74377851b35dc749fd32458d1445ba3bbffbece4623032b860301acfbcb1d9038f6cc4b5509f9d1ab0f03a5a3faaa5665a6a2199c71503c8fb22e8bc538ab27a032cb270b6e64c8a766f709555a34c7a41a48f7fc452959e9ad4906fec3809f3c6dbfcecabfe20b9797cde0d41ef0a3bbd004e4aa0fbcf0a5569bf9867a3763acba626aa6a57fc22978a4539b20bc3de2f727f14152faaff2493c2aad82b2954e1c3c4fb39229728b48014d7b8bcb713552ba9f0f1c8a249b48400f89c2fd7049c2dbc7edc81fd5be9cefd51e174bd15066a9285abbcf9e204bb575750904d8f49acf441c0366552dca77c657240bc4999716f16aaad51537c87e35e315e7c962b83ee15d17d6221eed7191cc9fa9d1c994ca57fa147b0605dda78eb9158cb0583ad71f5f7d69e45560b684f1bb5f90728207c6537f6aab027a6a5fd3f58953fc4904e89b3c8b2e2bed717cfb4900fecf27b857cf2e31aa94deba317e970eac12782a790f7d3ff048f0e67585791f6f726aaa407fed69e29eaf0ca49ad85f730c10b76c2458f6eb3ad6c6fbaefdef3660b33011d1307e3e57366a5a2468b7a4c4ebb94f4c50a98bb71bbccef9a847b32bbac1124e370ed370e54678277083df4309280806f3a0bac383897d42a1f9d4bad16e504971b22dc9c705f60fdf32f54237bac39ce7775b484a57a2e44c7c78093fc133ca2e0191b87818afaefeb9942cb6565bea043732054192d64266fad311cd6262e4c900bfc8317745f289fc20b888a1494075b10341ee319e6ff87835c4d62fd487a205518de4507725fb54d2217f0145863767003a1b9e3dbc51fced43e1ae0b08e3a1609932483f2772cea24c821f61643d36eda7fbd1c203ba3319c66fc7ecbeb4c41fc2fba68b13d8bd94d482b10c3eb13f605ca9d928f2e94c4b4a9ea66661fc324ae84219da27bd7c9c365c45a93172463d6f0c80ad49a55d2cae567591daf63e86a94b1a4c652d94e724a878345e219f2926553adf490b51a898d61a55ac0dfdcac33f8f15b0c512c1502b71affa75064be1c5dc2c638a7a2474058bb92672499e3915cfccffb9c38cfe608284b7001a2126a4104ae818c805f7445e5a6b003d344e56790579c80dc58c53519261c0fc0d7d6d883d1071a65259a18ee2bafe4341a6201cdb9344e047100649967e2c445c2d7af3cdf130309dd14172ef640e0e661f39229743ca21d3b50f539eafdb2bce340b4afa6880fe97c249326352e8a68481113a4808829f4327ea7dc0e231b0a64276c5bd3178527ca55b63bcfb81a54d7e754146238cec13598241309551dd3e70262091a953c7de15d9085b3f04beac34aefee018011153e6de8ec0b7a60ba3dc4f897e20d2e7efb429a9f3fa1790716c40d62ac151dc692853141fd6930f77d7bbe6a80208a67352cf281aecd2ff15eb69203044b6d6e01273c6f83c68c7a9c54ae0a11e4e81f29781f4b1b97998fce419a2e1aa680605729624ec2138a09e8b55b352ba2d2d93a1380282cea783290955c254b8a74a2d071c49cf4311704bdb7889b31d1184292b18a0fcfddb2daec67c3337da009512f690f85c3c16633611df64c57d767e0235f1bdded92328df0eae0e33049df1df76a58b6034db557aeb57c95b131dd319bbb07416ebb9e97c4142189408b44c5e6636f9718bcf6f44ee01e25e06c092ca70896007b839c3a9cd7b42ea105cbfc0c6984198da4032740423215abf73fd101ab7cc4154c0596b1e4928691b1eb05d4012673e66e9e4cf65e2af3ae31e3c174ea9e2abaff39d1a94eae67515f94140560b5cb4d72a03aec4985e7787939bbe978f60095b0fc0926dc09038589da0a9ae992ff8098f2e3d57ee5b1cb1723c557526d32675120843bf7f8c4d9f1815451763333dfea40ecef10d5a829174d1a0ae27ff0f7fcd01623af92604eb84c056a4c6df8ce20985432812e1e134a9b8d66b420bb1238d086d3c433dfea93160bd27203ebd9c8d64f12705764cfb6094d7982c58dedf8f6cd9a43281df7a866bf2a83b30f77263dc37510f556f43cf6eb924da2b050c10192734364d69727984aeced0dde7ecef0b153a414360aaacadc9e4fd0d181e1f2e3c4152acadaebac1d4e2e40427303458767b8390949598999d9fd5e3ebf9fe00000000000000000000000000131f2f4301",
        "0036896c76a50c63f593ea8748d22158b1dd28a7c440e68796b14ec9c5350cb8c9b5d448e9e6be997df29feeaddccba4364bcec3e85011547a233e4ca87b0861c8f297b1a1308a060b0280a936fe5191168d2880516f89e6966bd41c7b00739ffb901d082a2bc47ac0d438734c3976b0399ee7848d07687133c3ee3a02d4971db732ebf04c15da470722ee29d7782ccc5ca3dda0383d22c5d0ed4348c07f9adb28a11f843a43684df017e5c9f39f9ccb7a2122c4353ad6548547f1155340f1cb8d98e9942f9dabf02022e60b94e2e394f21cc01a9fc782cccb010483d6e8fbe9cc3598edbc3caa4614c95c787a484202acb642af31e55e453241f3c22844c5d267088b37e850b7150b3dc0ad586706b84ac49108e151a597962dfc54d1f0f36c16389f06636e5771d7a3576dc4475f32c60fbd32cabd8b7cdf62b0f5a5a4d23b6a672e678262c5e465901bcc062d882e10caa0d6ef2ea7b5254729b2c26e3782c05037a7c0b2e0b49494bf85d799556b702e4e231887973cc699efa293e7ce0193581dd0360d749504f169fcd5b447f1daab73fd0eb826b08bc9d5d9f5186b6130ed95ee5d5259eea387da727ad81e3e9e61888d1fbd151a975704464e39aeefd5593bf3301da05bb2721d8a7dbef829f57e6d067cc5fd15022cef27477ad5446b4dc8e70b8e56844ca8ba158db9571e16d447f8cd63dd5aed1838412b34b9563dd4433d63249aef567c53da5ba0f3f8737520a110fa45a06c301332e780c7c022882a27038a8db629761efdbfca4ed48e1039a433c7a062b2307fc20edde8404fb3380b6ea6f4bf3ee883fc76d8a546fabbb989aee129285a5df528d26623eecfe87c1979255e092d850bb514f5839851295d343ac887627e9ac151b3de6e96cbed26189ff3d472751551e7dddd16e56c78cd212171427340f7b3f9fa354654879a8fb9502c5270cd1d23e93bd34a244fd7dc73cd53ecb5267e7a52e5958122c6a4ac3b8e6a8072b7a8c8488113da9435fa8aa7d364b748da72c20b817fd4b9f088bd2ea87da1e71e050821b93547eb6c69d32c0dd9a9a828ea7000d949ae2730776d00b06fbfca4ddf06ce0beb6c88c2f3d3b12afa6cc1f99f14ee78067d4d9388b1241e28a1c53285344a377b9470bbdcb6d8c65ce3709243d5a86cb6127d5b3c7b42ae2803a67e48ddd7e79e78b606ec262233b683c77b69c42eeea7b66a5fb0cd4c886a775889efc30f5eb66731c7f5d17f1ca4f6b0a5ecd479f09ce28dbaed5bafc0d9a876800033394fe2c30682545d538b055a582bccde986a559d4fa275a7836cf978ae45dde67e22731f2c8edc954ed421eee48d31ba6265e34039a96cfaa399c1b522ba458829491a5500da7bc6d998d0094843c44584468d79e5061adbb89c4987343ecdcf63264398e6370dcce581bb1a85d9bd98497a0060fe91c5df3f9c668ece2c63d01287c1a6407fa09893d6e79fc9addd9e58431cf3fe9172077a43dd6260b16e3b9ccad07c0c3988ca4708e0061acd180da8668bc6da4b8c54641066a08868b659c30d6aaa3280fc69c90f99602f6f96ee354b6cc6cd3e81c670ada50c4feb949ffe9abaddad24bf8c77e05642161d8de23c5fb24809d8a8d4f78f8d72efe54b8b02a16dd3128cb23b252699a43a7c55d1306125bd663fb828872e5e8ecc59135e83d9f909d8d164c43349d407ec424df09d38232d15f119b3b8a85a57bdfe48d596c0b239271623cb9dd4a88e3d3889547988dfe947cde39b6e26f65428f0258e34f38b2d4f821cbdc391df275a67b5673a7e41838f3e4997656aef875d4896d63e895b3b237a36ab9db4a831a3e2c865217ddc576128"
      ],
      "sequence": 4294967294
    }
  ],
  "vout": [
    {
      "value": 499980.6789,
      "n": 0,
      "scriptPubKey": {
        "asm": "1 39e1764e00f19395869a58f8509fba9685eacd53c11262a4108fb2863f7ee03c",
        "hex": "512039e1764e00f19395869a58f8509fba9685eacd53c11262a4108fb2863f7ee03c",
        "reqSigs": 1,
        "type": "witness_v1_scripthash",
        "addresses": [
          "3QJmnh"
        ]
      }
    },
    {
      "value": 1.0,
      "n": 1,
      "scriptPubKey": {
        "asm": "OP_RETURN 62295c697396ea7ab325035385526061794b015481711eab73320233bfdf14af 04cb7da2aca137571483d2f90feb9b4ff696b4800aa861b59ecb04d1f439dcd624eb5d828c81177734a3f2d92fcbbb6fd6b694a02a884195beeb24f1d419fcf6448b3de2ece1771754c392b94fabdb0fb6d6f4c04ae821f5de8b4491b4799c9664ab1dc2ccc1573774e3b2996f8bfb2f96f6d4e06ac801d5feab64b19459bcb6844bfd222c21b7d7940352798f6b1bcf761634008a28e1351e4b845174b95c56a46bdd020c0197f7b4237259af4b3bef56361420aa08c1153e6ba47154997c76c40bbd626c61f797d4431239cf2b5b8f36567440ca68a1755e0bc41134f91c16e42b9d424c41d7b7f4633219ef0b7baf16765460ea4881557e2be43114d93c3604cb7da2aca137571483d2f90feb9b4ff696b4800aa861b59ecb04d1f439dcd624eb5d828c81177734a3f2d92fcbbb6fd6b694a02a884195beeb24f1d419fcf6448b3de2ece1771754c392b94fabdb0fb6d6f4c04ae821f5de8b4491b4799c9664ab1dc2ccc1573774e3b2996f8bfb2f96f6d4e06ac801d5feab64b19459bcb6844bfd222c21b7d7940352798f6b1bcf761634008a28e1351e4b845174b95c56a46bdd020c0197f7b4237259af4b3bef56361420aa08c1153e6ba47154997c76c40bbd626c61f797d4431239cf2b5b8f36567440ca68a1755e0bc41134f91c16e42b9d424c41d7b7f4633219ef0b7baf16765460ea4881557e2be43114d93c3604cb7da2aca137571483d2f90feb9b4ff696b4800aa861b59ecb04d1f439dcd624eb5d828c81177734a3f2d92fcbbb6fd6b694a02a884195beeb24f1d419fcf6448b3de2ece1771754c392b94fabdb0fb6d6f4c04ae821f5de8b4491b4799c9664ab1dc2ccc1573774e3b2996f8bfb2f96f6d4e06ac801d5feab64b19459bcb6844bfd222c21b7d7940352798f6b1bcf761634008a28e1351e4b845174b95c56a46bdd020c0197f7b4237259af4b3bef56361420aa08c1153e6ba47154997c76c40bbd626c61f797d4431239cf2b5b8f36567440ca68a1755e0bc41134f91c16e42b9d424c41d7b7f4633219ef0b7baf16765460ea4881557e2be43114d93c3604cb7da2aca137571483d2f90feb9b4ff696b4800aa861b59ecb04d1f439dcd624eb5d828c81177734a3f2d92fcbbb6fd6b694a02a884195beeb24f1d419fcf6448b3de2ece1771754c392b94fabdb0fb6d6f4c04ae821f5de8b4491b4799c9664ab1dc2ccc1573774e3b2996f8bfb2f96f6d4e06ac801d5feab64b19459bcb6844bfd222c21b7d7940352798f6b1bcf761634008a28e1351e4b845174b95c56a46bdd020c0197f7b4237259af4b3bef56361420aa08c1153e6ba47154997c76c40bbd626c61f797d4431239cf2b5b8f36567440ca68a1755e0bc41134f91c16e42b9d424c41d7b7f4633219ef0b7baf16765460ea4881557e2be43114d93c3604cb7da2aca137571483d2f90feb9b4ff696b4800aa861b59ecb04d1f439dcd624eb5d828c81177734a3f2d92fcbbb6fd6b694a02a884195beeb24f1d419fcf6448b3de2ece1771754c392b94fabdb0fb6d6f4c04ae821f5de8b4491b4799c9664ab1dc2ccc1573774e3b2996f8bfb2f96f6d4e06ac801d5feab64b19459bcb6844bfd222c21b7d7940352798f6b1bcfb145ee2b01d51f1ae498e1461b57190296435e48e222ad28922566369aef0fd7",
        "hex": "6a2062295c697396ea7ab325035385526061794b015481711eab73320233bfdf14af4db00404cb7da2aca137571483d2f90feb9b4ff696b4800aa861b59ecb04d1f439dcd624eb5d828c81177734a3f2d92fcbbb6fd6b694a02a884195beeb24f1d419fcf6448b3de2ece1771754c392b94fabdb0fb6d6f4c04ae821f5de8b4491b4799c9664ab1dc2ccc1573774e3b2996f8bfb2f96f6d4e06ac801d5feab64b19459bcb6844bfd222c21b7d7940352798f6b1bcf761634008a28e1351e4b845174b95c56a46bdd020c0197f7b4237259af4b3bef56361420aa08c1153e6ba47154997c76c40bbd626c61f797d4431239cf2b5b8f36567440ca68a1755e0bc41134f91c16e42b9d424c41d7b7f4633219ef0b7baf16765460ea4881557e2be43114d93c3604cb7da2aca137571483d2f90feb9b4ff696b4800aa861b59ecb04d1f439dcd624eb5d828c81177734a3f2d92fcbbb6fd6b694a02a884195beeb24f1d419fcf6448b3de2ece1771754c392b94fabdb0fb6d6f4c04ae821f5de8b4491b4799c9664ab1dc2ccc1573774e3b2996f8bfb2f96f6d4e06ac801d5feab64b19459bcb6844bfd222c21b7d7940352798f6b1bcf761634008a28e1351e4b845174b95c56a46bdd020c0197f7b4237259af4b3bef56361420aa08c1153e6ba47154997c76c40bbd626c61f797d4431239cf2b5b8f36567440ca68a1755e0bc41134f91c16e42b9d424c41d7b7f4633219ef0b7baf16765460ea4881557e2be43114d93c3604cb7da2aca137571483d2f90feb9b4ff696b4800aa861b59ecb04d1f439dcd624eb5d828c81177734a3f2d92fcbbb6fd6b694a02a884195beeb24f1d419fcf6448b3de2ece1771754c392b94fabdb0fb6d6f4c04ae821f5de8b4491b4799c9664ab1dc2ccc1573774e3b2996f8bfb2f96f6d4e06ac801d5feab64b19459bcb6844bfd222c21b7d7940352798f6b1bcf761634008a28e1351e4b845174b95c56a46bdd020c0197f7b4237259af4b3bef56361420aa08c1153e6ba47154997c76c40bbd626c61f797d4431239cf2b5b8f36567440ca68a1755e0bc41134f91c16e42b9d424c41d7b7f4633219ef0b7baf16765460ea4881557e2be43114d93c3604cb7da2aca137571483d2f90feb9b4ff696b4800aa861b59ecb04d1f439dcd624eb5d828c81177734a3f2d92fcbbb6fd6b694a02a884195beeb24f1d419fcf6448b3de2ece1771754c392b94fabdb0fb6d6f4c04ae821f5de8b4491b4799c9664ab1dc2ccc1573774e3b2996f8bfb2f96f6d4e06ac801d5feab64b19459bcb6844bfd222c21b7d7940352798f6b1bcf761634008a28e1351e4b845174b95c56a46bdd020c0197f7b4237259af4b3bef56361420aa08c1153e6ba47154997c76c40bbd626c61f797d4431239cf2b5b8f36567440ca68a1755e0bc41134f91c16e42b9d424c41d7b7f4633219ef0b7baf16765460ea4881557e2be43114d93c3604cb7da2aca137571483d2f90feb9b4ff696b4800aa861b59ecb04d1f439dcd624eb5d828c81177734a3f2d92fcbbb6fd6b694a02a884195beeb24f1d419fcf6448b3de2ece1771754c392b94fabdb0fb6d6f4c04ae821f5de8b4491b4799c9664ab1dc2ccc1573774e3b2996f8bfb2f96f6d4e06ac801d5feab64b19459bcb6844bfd222c21b7d7940352798f6b1bcfb145ee2b01d51f1ae498e1461b57190296435e48e222ad28922566369aef0fd7",
        "type": "nulldata"
      }
    }
  ],
  "blockhash": "443ef5589806c3570db60b1178f56898637f167918ce0f0236a27ac7d0512dc1",
  "confirmations": 1,
  "time": 1764179461,
  "blocktime": 1764179461
}