{
  "hex": "010000000001019f820b859fb3c6451274c61cbe763cdd06855cd98104c08d0d97c5434759ef620100000000feffffff023022f408792d0000225120b1b938f6091fd156371606bcda603c42df6afcb2bd4622ec0663589e8077e9c800e1f50500000000fdd5046a20ca92ec5e85b295f99060d449ce7a158faea163dd37b60d259c6eb97f1226e4a74db0041c91620af0ae7bb5efde22f00dd642c99bed736bcb3c03f9ac4942614bfd44523cb1422ad08e5b95cffe02d02df662e9bbcd534beb1c23d98c6962416bdd64725cd1224ab0ee3bf5af9e62b04d960289dbad332b8b7c43b9ec0902210bbd04127cf1026a90ce1bd58fbe42906db622a9fb8d130bab5c6399cc2922012b9d24329c11e28a702efb356f5ea2708d56c2491b6df3eb4bbc83792cc9c2e1cb7dc4d2bc31c2aa500edb154f7e8250ad76e2693b4dd3cb6b9ca3590ce9e2c1eb5de4f2dc51a2ca306ebb752f1ee230cd1682095b2db3ab0bfcc3396c8982a18b3d8492fc7182ea104e9b550f3ec210ed36a2297b0d938b2bdce3194ca9a281ab1da4b21c91620af0ae7bb5efde22f00dd642c99bed736bcb3c03f9ac4942614bfd44523cb1422ad08e5b95cffe02d02df662e9bbcd534beb1c23d98c6962416bdd64725cd1224ab0ee3bf5af9e62b04d960289dbad332b8b7c43b9ec0902210bbd04127cf1026a90ce1bd58fbe42906db622a9fb8d130bab5c6399cc2922012b9d24329c11e28a702efb356f5ea2708d56c2491b6df3eb4bbc83792cc9c2e1cb7dc4d2bc31c2aa500edb154f7e8250ad76e2693b4dd3cb6b9ca3590ce9e2c1eb5de4f2dc51a2ca306ebb752f1ee230cd1682095b2db3ab0bfcc3396c8982a18b3d8492fc7182ea104e9b550f3ec210ed36a2297b0d938b2bdce3194ca9a281ab1da4b21c91620af0ae7bb5efde22f00dd642c99bed736bcb3c03f9ac4942614bfd44523cb1422ad08e5b95cffe02d02df662e9bbcd534beb1c23d98c6962416bdd64725cd1224ab0ee3bf5af9e62b04d960289dbad332b8b7c43b9ec0902210bbd04127cf1026a90ce1bd58fbe42906db622a9fb8d130bab5c6399cc2922012b9d24329c11e28a702efb356f5ea2708d56c2491b6df3eb4bbc83792cc9c2e1cb7dc4d2bc31c2aa500edb154f7e8250ad76e2693b4dd3cb6b9ca3590ce9e2c1eb5de4f2dc51a2ca306ebb752f1ee230cd1682095b2db3ab0bfcc3396c8982a18b3d8492fc7182ea104e9b550f3ec210ed36a2297b0d938b2bdce3194ca9a281ab1da4b21c91620af0ae7bb5efde22f00dd642c99bed736bcb3c03f9ac4942614bfd44523cb1422ad08e5b95cffe02d02df662e9bbcd534beb1c23d98c6962416bdd64725cd1224ab0ee3bf5af9e62b04d960289dbad332b8b7c43b9ec0902210bbd04127cf1026a90ce1bd58fbe42906db622a9fb8d130bab5c6399cc2922012b9d24329c11e28a702efb356f5ea2708d56c2491b6df3eb4bbc83792cc9c2e1cb7dc4d2bc31c2aa500edb154f7e8250ad76e2693b4dd3cb6b9ca3590ce9e2c1eb5de4f2dc51a2ca306ebb752f1ee230cd1682095b2db3ab0bfcc3396c8982a18b3d8492fc7182ea104e9b550f3ec210ed36a2297b0d938b2bdce3194ca9a281ab1da4b21c91620af0ae7bb5efde22f00dd642c99bed736bcb3c03f9ac4942614bfd44523cb1422ad08e5b95cffe02d02df662e9bbcd534beb1c23d98c6962416bdd64725cd1224ab0ee3bf5af9e62b04d960289dbad332b8b7c43b9ec0902210bbd04127cf1026a90ce1bd58fbe42906db622a9fb8d130bab5c6399cc2922012b9d24329c11e28a702efb356f5ea2708d56c249519b86e580174220047395249586dfae77cdce38ea276b0d560b6a263782bca802fd75098bd1642c2aa3b5c8675a273fd036feb02339305085864e349c851e253a7a607bf1fe659f8fab2ce61c78b17c21a06e9921d143d997956924c085b0ee0ed12f15b8a6167cc3e2fcda4940c6649ecf19da843772823c9dd8560afe75c4e7451c94c8f2f399251c63b68608ee18b7cc8b3e0c3b1d600e70d42af269d7fc096a3d514359b864e20ca244191919dec8f3fb9f43f263588d9564244018f625ffe538544bec1ef95041ad378869da8c29f4ebc5c7413a1fa121b06f83e894960b8c2017283f3ddcb1c3bfffa68f2db6667fc5b45870d4b65ec0c5a2f8dd97a7b2c2dd11a5edde452ce018f716ed1b61876736465adfd10848fa7c7c7dcedbd42bb5a217c3e05cf62a29af4959ad491d8849ee5c1bb4efaa4aad0c45dfeba0a353eb77d124eec6814c9464163f45b4c8f58aff3de2f598b81f4651d7f978e14c3529d5cfde5d911c6ed8bd8cf4ed5a83779eb782480b79d6be179104d5f86fd3c95794dadd34571519472840043e894879db868fe3f6532e5565dc53132467b911ab2ccd4252bccf82ed63d59e4d82d9f206e82193133270e6c4cee2d5f3d045f6567d0ab7a96863a66caca096c4c45f03d23a6881b81fa48b7d099bf0188c0895d969aca9c3106641fc9029c781b8d6fbf49272b78f02ab39def0b4f3df39f73f13a6af96eb8495050f4c02ac7522109042a383d1a553cf8f7cb0856d87be383436856e39e1a54c0aeadfbd674ce203b122a860681f0d7a80e075ae997f97a20b1fa13747890aa1829a4efaf03a096e457e70e9e5b6f19468e9a42e28546fc0e7fb2538f1262ba3393a3729fd81680d5179559d0d1fc128a6cb04cd7f430502f747afa34fa5f13955798b3df7922ec48c71ff2ba08824e3a756e86102330e0934e542e301949eb66c7c287a1562e2e55ca7d14657f98df62ac701d33a0089e761a739e60bff6db4f0f73e30ac4a849db44bb99bcabe5009096ec06643a5862eed2306a1f5509ca5d8d17d0291c2de23021ae053d2342e3d8d4c7bfb4d956b517156cf34f0c353f4ed27517d887003ee2b24d7783f1e0848a4516adebce933114c4c639af6a857950100ef66bb3d0622db34568f046cb211603d28365d613b942df8e4375b98b7031fdf2d64afbe6c98217bb11505d760cc129cc912b62ea720081cbcd28aa991dcee9de604a85f182cb143d52b71fa192a9d97cc3036b6569a8cb4184ee39326192c9a70758a518f0aaeed0727b8ec426dac55c0de1ae50d952d5d5e12ca194c8506e65b233ffbd94e09668792b602508713981dc2ed20b14f6bc2ef56098f281bc1b91ced4a8c73b93f5083135071acb927817eea31e138c6fb86865f1e9ae1f6589b0a551c1a43f0f266e7a06ebd1c10556d6d030ef746a6f48cdbf88c085bd664b3153baaa78fa4b8ce13986ebebf0aeb4329dcf27d189db940f8b5074c9e1216b33d2c6c1658161f5c778ca3d7e39b937f86ae1b9980416d7a98970f3a0610ee0238463554203d064880a8e3b8448a8cb1d7b479bdcec2f531f98dbd68a47e952e94a274cc40c934b3a850cc8d52f0f8b19f156f08deef82c4c3b336dc8fd987899f7739d6a79179f5e550ff0ed5e49ea18747327dccc564e9fbc0e360e2cb567a6ac1ac68385d89b12cceffd75d129ab33c18b91e767ce65097144710e3f93b90cb198d3c9fb43d3992dfaae008d3da0f6c6b6d055402f840495deca5b2a89d4b036555f393cc0f65173b33eaa59581b8f988ce43637208ad64941b9f3ba5f4dd066700c2c04822930bc395dcd146084600c93f3b8806056e89faf74cc7b0c7ba3879b31c2b6b4b7b960e6cf7bc851de8871b649ab9be8feadcbbaf2c04954213531a0156238956ca18c2f39ebbdfffaf2010dca46ea096290f6ce32135130d7950c83fc2585ccc67d0939bd8c313fb8979d5b1da6e265f0fccc7aa1789745ad61899b5eff713284dd668fe6999f8393786faee69b534159ded32c7f6890ac3842e51d492752f36215928efe8441b503111780fab31e84bd81b62b159079781a29222083f8db4f1e40063608d24aecfc281719c4267a039ee7c8a20d408ebdfd7b8431ed49267c1353e04fc1164e96e03e3b8480701de7ed31d7ee9618636c24f21f8b6511aa2b68db1af15118c9fa175a29b8c5605fea2e39b15c22679472523b06abd5512e609a188475681e9500a80a2be873125a1859ac8d58bd4e699f80b5f6b38c67958819bc3f986fd29805b30fb76af59edf85c58e9136c7871cf6eceb26cd5fc7d3549ed984b821a10e71ae2ae5f7a3bf1a8b4d01a8918cd51542e4546d0cb9e942849e2f1e26db7bd774d06f4f9d5168f5403571991e319df68472f723179e676e962fefdb23d53c65121ce3c93cdbd95f8e4dc17838d99b4219aaaa30e5f8a6ea84af5a12c80456ef6e22b7fe0a1db97ca7db5f0ddbf6f571e31d5a81c120c0ede9c05093fddcfc873e6d64979720792a904a37aaf60885021936da91f67759c19b2db10eb8b9be5067721e16d6319efcdf266a90d5f4388b9f1b79ecc89282bb4118ae55cd871e242966cfb139bc761327457e081363e8d87862fa3ffaa633ecb5ca7004a7cc9a8c1987dff94fe2c3de32f8108ec82c916aa65af92ab7564ffc676e8fd06959591a77e5eb2d224f37abda0c09af8912ad3668402ee87711ca4347dee9c84222738c691b24c503cf5fe9638f97c154aac74cc33bc975886ffda767fa6551c3b794b87ae01800afad9dedd303408a4c7ad907ba780b8f0ccf9ad6163890cd185fccdcfbb87bd3ef70580b2234d6844d0ef4ef2cffbf20594961e9a8074560979e76fce57875fdb3d278d5b2eb0cd72ebcd88fbf5f0d079b7b3d9f61353b569b6b78838c7890f9f7b87df1bfcccab2e9a2ace8fa29899cc2ebb9d864ddfc4d59eadbc1959547ab79d99453325397340d43b9f26249cc44970a590992883de25977d6833d2ba887139820da8a9ac870e52ccc2f2180463c180cd590917a007fa221a4e37b0af9987c682913a06b54da34910dacf27cf01fc85e7782924ad05c2e283f2379cb05c11f357fdd0ea19be710bb8b7f7d860aca0c7bfa511a2a3f214d964ecfd51cb6d205ecd21d4506b293ffd58776f0838143b7889b3e0296e1424c83425064872d17576d354f29cec8e3c53b67b28c1ff11169b11b17f176f9a191cd74d318090ed175d5b2461eeeb828dcd6b8283bc07e5004156d9cdebedb972ebe1fc39255a9845d2821d99f5c1a751d56a47e883cb7a11e9587c4790873173b782c9ab9dd0cf7b5aa6cdf252c9ab820005070a27324a6165748691b5fb0405072d465a717580b2b8c6c7d8e6ecf206171a253a414e505c697a829194989aa2a6a7c1e5eff4ff02030c272a43446e808d0000000000000000000000000000000e1f374101fd210500a6422803893291a7617bd5de85014675fe6bdd52e5358d7bf8d2e5607c8ef19e4e4e7be363875f23a84389d39a67638b604925aa5c6a9d5bdc0d9119624816df51686d57813aa269352ad073e903c831ca032ca5ef7c8c499d6067d1a6adc9f8682bf4fc639495f8967488ec22da9eb7757a8a588c06233692bc034536c581addb9af35503d91050e8d181f6a0b56b6114f2ccbe2f7b2115b9b31f50fe9c66946eb5c685572bf71dd1863249102d73ae80754e68b3b78e7ee820a7034ee580e30bb2d3c15c92059b8bd3c5902333d55e1f6cf41bcd31515f7795cdaf960876610fdfc297d063c253f739b01eab1ea3f18725d3121ab217bb0f2b88cc4cd46e3c9595de98b8c814f63e29fab0d9a18e5258731456e2705df5a7eb51d3def401d0d9d23b0147c774d21a9de31dc593073ad0c235da60a481189ba87360062b4f800c0011524b8e70ff34f3a9e4a074d589e639d6a3ac002918909ac7b1f4ec34b30bdf22729c966719a39b617c64baed2ef772c51e30aa4c0397da751c53e2b92f1a33c86da4479f192365036c8a97a2d85f139176cc52702eea840d1ebfa66790611dd864b59bca6a41ae214558ad244d1d5d681d4f517ffbab80be79e409474b930ed8eaac243a345288ec26f0cdc90a73674a7259f2a0c8d5aff51e9e65a56f4a106cdadfffca8126da855084d997adf23831a28a4e729c5c0cf4486023ca482c078e9056e91449a8c066ea4e5c7e534ec3a3bb633a83cab7e28707d402218d262c8cf8758b3d364d96532df96bb9833725093a7d1be891c9d96b9d1ae9b6d50ca531750f6717f775dd92272d98912370cdc76920bbeef03f7e152db81ae3e6d409849e93303942bb871971adb6f49e9ed5e8434a665e6b79b09150fa1c19ab005094c47fb63e5394e63268428b854e37f1c09b275a0e499fef8618ae30708aeaec365f46ba0e6efcaf057ecafb7a30b63ccfd7b800e502c9e5348d27594e2ce90a0c361c11b3c6c06eea9139f6643860ff52772d576ce853251d85fd3d3df823bad5f0c3d6f781c8af8021468a2f070a04dd203412be1bf7909e19dd614d2b072a05939c864ed71d0434923d9b9cedfae3ba334cbfefc4edb74b285ce7fb444f1502b81f5f7db803f26d9d4ef32a0bf1cf7d33e864636e3e9ce5adfa6b9a4eceb936584315f2610c7bd883c227f8df1f6c8320530d992f9e041de813457a3cff8b77e31a101b3a5489bbbb512e40768cbc2b0da8f359d76406ce09134503a56bbb2ca21868802060d7da56916544fbfa2d8510e983bf44418e5af9b4dc6b9d194c14298da3ee90e9ab899c8bf03edbf4fc81d1e7798d7a2e57fd8fd23000c4f26cf7b5f566c67a18b35dc5a846392ada2e2b545e60ac150b44dc7da2f9c682ebe917ad29a4523e04b6bb918f972aab628ba49d1831b02c8fd4ac5b838b00ea2e2d264efb0a9155b55f66da46f640fa1661ce47ce6281d89135c97df67d7005f40b997e8dde318def55fd33a3f516f9e453d80fa1aead808ff3d09e6a7005c52d6fbe06b52397ce0f2254baaaf874c07242dbb443e0a7be304fc068de2eca9b58c9d25496cbedc7d308c7ce816d4d71a4fde28c8dbfde8b631cfcf623a39e182dae4ee0d35e10b78d9be9641b840d7ccabf17122823d5a5b84589eb9ac40eb6d87968f7055018f3c52658f536e757e498489d904e9e0d3295a2de6133575ec6dd46e666624493a24106e2a668ecba8212c5eb6da77da295a45c888620c5923e5644cf23c675412d40c8f456ca73f269c89f3ac609a0451b25d7067c0fab09145b1859982809e69ebad072b5b4c881ecacdcb53c50234a84dd12e07aa82c143477000000",
  "txid": "f92d42d76c3f4fd6afa344d1cb3588221d163b87f22b352be620dd0f16dfcb02",
  "hash": "7b6655076c4faa9c568c25b5bb1df5f1a778ae6ff029411c0fbe189a2de8b273",
  "size": 5085,
  "vsize": 2278,
  "version": 1,
  "locktime": 119,
  "vin": [
    {
      "txid": "62ef594743c5970d8dc00481d95c8506dd3c76be1cc6741245c6b39f850b829f",
      "vout": 1,
      "scriptSig": {
        "asm": "",
        "hex": ""
      },
      "txinwitness": [
        "8bd1642c2aa3b5c8675a273fd036feb02339305085864e349c851e253a7a607bf1fe659f8fab2ce61c78b17c21a06e9921d143d997956924c085b0ee0ed12f15b8a6167cc3e2fcda4940c6649ecf19da843772823c9dd8560afe75c4e7451c94c8f2f399251c63b68608ee18b7cc8b3e0c3b1d600e70d42af269d7fc096a3d514359b864e20ca244191919dec8f3fb9f43f263588d9564244018f625ffe538544bec1ef95041ad378869da8c29f4ebc5c7413a1fa121b06f83e894960b8c2017283f3ddcb1c3bfffa68f2db6667fc5b45870d4b65ec0c5a2f8dd97a7b2c2dd11a5edde452ce018f716ed1b61876736465adfd10848fa7c7c7dcedbd42bb5a217c3e05cf62a29af4959ad491d8849ee5c1bb4efaa4aad0c45dfeba0a353eb77d124eec6814c9464163f45b4c8f58aff3de2f598b81f4651d7f978e14c3529d5cfde5d911c6ed8bd8cf4ed5a83779eb782480b79d6be179104d5f86fd3c95794dadd34571519472840043e894879db868fe3f6532e5565dc53132467b911ab2ccd4252bccf82ed63d59e4d82d9f206e82193133270e6c4cee2d5f3d045f6567d0ab7a96863a66caca096c4c45f03d23a6881b81fa48b7d099bf0188c0895d969aca9c3106641fc9029c781b8d6fbf49272b78f02ab39def0b4f3df39f73f13a6af96eb8495050f4c02ac7522109042a383d1a553cf8f7cb0856d87be383436856e39e1a54c0aeadfbd674ce203b122a860681f0d7a80e075ae997f97a20b1fa13747890aa1829a4efaf03a096e457e70e9e5b6f19468e9a42e28546fc0e7fb2538f1262ba3393a3729fd81680d5179559d0d1fc128a6cb04cd7f430502f747afa34fa5f13955798b3df7922ec48c71ff2ba08824e3a756e86102330e0934e542e301949eb66c7c287a1562e2e55ca7d14657f98df62ac701d33a0089e761a739e60bff6db4f0f73e30ac4a849db44bb99bcabe5009096ec06643a5862eed2306a1f5509ca5d8d17d0291c2de23021ae053d2342e3d8d4c7bfb4d956b517156cf34f0c353f4ed27517d887003ee2b24d7783f1e0848a4516adebce933114c4c639af6a857950100ef66bb3d0622db34568f046cb211603d28365d613b942df8e4375b98b7031fdf2d64afbe6c98217bb11505d760cc129cc912b62ea720081cbcd28aa991dcee9de604a85f182cb143d52b71fa192a9d97cc3036b6569a8cb4184ee39326192c9a70758a518f0aaeed0727b8ec426dac55c0de1ae50d952d5d5e12ca194c8506e65b233ffbd94e09668792b602508713981dc2ed20b14f6bc2ef56098f281bc1b91ced4a8c73b93f5083135071acb927817eea31e138c6fb86865f1e9ae1f6589b0a551c1a43f0f266e7a06ebd1c10556d6d030ef746a6f48cdbf88c085bd664b3153baaa78fa4b8ce13986ebebf0aeb4329dcf27d189db940f8b5074c9e1216b33d2c6c1658161f5c778ca3d7e39b937f86ae1b9980416d7a98970f3a0610ee0238463554203d064880a8e3b8448a8cb1d7b479bdcec2f531f98dbd68a47e952e94a274cc40c934b3a850cc8d52f0f8b19f156f08deef82c4c3b336dc8fd987899f7739d6a79179f5e550ff0ed5e49ea18747327dccc564e9fbc0e360e2cb567a6ac1ac68385d89b12cceffd75d129ab33c18b91e767ce65097144710e3f93b90cb198d3c9fb43d3992dfaae008d3da0f6c6b6d055402f840495deca5b2a89d4b036555f393cc0f65173b33eaa59581b8f988ce43637208ad64941b9f3ba5f4dd066700c2c04822930bc395dcd146084600c93f3b8806056e89faf74cc7b0c7ba3879b31c2b6b4b7b960e6cf7bc851de8871b649ab9be8feadcbbaf2c04954213531a0156238956ca18c2f39ebbdfffaf2010dca46ea096290f6ce32135130d7950c83fc2585ccc67d0939bd8c313fb8979d5b1da6e265f0fccc7aa1789745ad61899b5eff713284dd668fe6999f8393786faee69b534159ded32c7f6890ac3842e51d492752f36215928efe8441b503111780fab31e84bd81b62b159079781a29222083f8db4f1e40063608d24aecfc281719c4267a039ee7c8a20d408ebdfd7b8431ed49267c1353e04fc1164e96e03e3b8480701de7ed31d7ee9618636c24f21f8b6511aa2b68db1af15118c9fa175a29b8c5605fea2e39b15c22679472523b06abd5512e609a188475681e9500a80a2be873125a1859ac8d58bd4e699f80b5f6b38c67958819bc3f986fd29805b30fb76af59edf85c58e9136c7871cf6eceb26cd5fc7d3549ed984b821a10e71ae2ae5f7a3bf1a8b4d01a8918cd51542e4546d0cb9e942849e2f1e26db7bd774d06f4f9d5168f5403571991e319df68472f723179e676e962fefdb23d53c65121ce3c93cdbd95f8e4dc17838d99b4219aaaa30e5f8a6ea84af5a12c80456ef6e22b7fe0a1db97ca7db5f0ddbf6f571e31d5a81c120c0ede9c05093fddcfc873e6d64979720792a904a37aaf60885021936da91f67759c19b2db10eb8b9be5067721e16d6319efcdf266a90d5f4388b9f1b79ecc89282bb4118ae55cd871e242966cfb139bc761327457e081363e8d87862fa3ffaa633ecb5ca7004a7cc9a8c1987dff94fe2c3de32f8108ec82c916aa65af92ab7564ffc676e8fd06959591a77e5eb2d224f37abda0c09af8912ad3668402ee87711ca4347dee9c84222738c691b24c503cf5fe9638f97c154aac74cc33bc975886ffda767fa6551c3b794b87ae01800afad9dedd303408a4c7ad907ba780b8f0ccf9ad6163890cd185fccdcfbb87bd3ef70580b2234d6844d0ef4ef2cffbf20594961e9a8074560979e76fce57875fdb3d278d5b2eb0cd72ebcd88fbf5f0d079b7b3d9f61353b569b6b78838c7890f9f7b87df1bfcccab2e9a2ace8fa29899cc2ebb9d864ddfc4d59eadbc1959547ab79d99453325397340d43b9f26249cc44970a590992883de25977d6833d2ba887139820da8a9ac870e52ccc2f2180463c180cd590917a007fa221a4e37b0af9987c682913a06b54da34910dacf27cf01fc85e7782924ad05c2e283f2379cb05c11f357fdd0ea19be710bb8b7f7d860aca0c7bfa511a2a3f214d964ecfd51cb6d205ecd21d4506b293ffd58776f0838143b7889b3e0296e1424c83425064872d17576d354f29cec8e3c53b67b28c1ff11169b11b17f176f9a191cd74d318090ed175d5b2461eeeb828dcd6b8283bc07e5004156d9cdebedb972ebe1fc39255a9845d2821d99f5c1a751d56a47e883cb7a11e9587c4790873173b782c9ab9dd0cf7b5aa6cdf252c9ab820005070a27324a6165748691b5fb0405072d465a717580b2b8c6c7d8e6ecf206171a253a414e505c697a829194989aa2a6a7c1e5eff4ff02030c272a43446e808d0000000000000000000000000000000e1f374101",
        "00a6422803893291a7617bd5de85014675fe6bdd52e5358d7bf8d2e5607c8ef19e4e4e7be363875f23a84389d39a67638b604925aa5c6a9d5bdc0d9119624816df51686d57813aa269352ad073e903c831ca032ca5ef7c8c499d6067d1a6adc9f8682bf4fc639495f8967488ec22da9eb7757a8a588c06233692bc034536c581addb9af35503d91050e8d181f6a0b56b6114f2ccbe2f7b2115b9b31f50fe9c66946eb5c685572bf71dd1863249102d73ae80754e68b3b78e7ee820a7034ee580e30bb2d3c15c92059b8bd3c5902333d55e1f6cf41bcd31515f7795cdaf960876610fdfc297d063c253f739b01eab1ea3f18725d3121ab217bb0f2b88cc4cd46e3c9595de98b8c814f63e29fab0d9a18e5258731456e2705df5a7eb51d3def401d0d9d23b0147c774d21a9de31dc593073ad0c235da60a481189ba87360062b4f800c0011524b8e70ff34f3a9e4a074d589e639d6a3ac002918909ac7b1f4ec34b30bdf22729c966719a39b617c64baed2ef772c51e30aa4c0397da751c53e2b92f1a33c86da4479f192365036c8a97a2d85f139176cc52702eea840d1ebfa66790611dd864b59bca6a41ae214558ad244d1d5d681d4f517ffbab80be79e409474b930ed8eaac243a345288ec26f0cdc90a73674a7259f2a0c8d5aff51e9e65a56f4a106cdadfffca8126da855084d997adf23831a28a4e729c5c0cf4486023ca482c078e9056e91449a8c066ea4e5c7e534ec3a3bb633a83cab7e28707d402218d262c8cf8758b3d364d96532df96bb9833725093a7d1be891c9d96b9d1ae9b6d50ca531750f6717f775dd92272d98912370cdc76920bbeef03f7e152db81ae3e6d409849e93303942bb871971adb6f49e9ed5e8434a665e6b79b09150fa1c19ab005094c47fb63e5394e63268428b854e37f1c09b275a0e499fef8618ae30708aeaec365f46ba0e6efcaf057ecafb7a30b63ccfd7b800e502c9e5348d27594e2ce90a0c361c11b3c6c06eea9139f6643860ff52772d576ce853251d85fd3d3df823bad5f0c3d6f781c8af8021468a2f070a04dd203412be1bf7909e19dd614d2b072a05939c864ed71d0434923d9b9cedfae3ba334cbfefc4edb74b285ce7fb444f1502b81f5f7db803f26d9d4ef32a0bf1cf7d33e864636e3e9ce5adfa6b9a4eceb936584315f2610c7bd883c227f8df1f6c8320530d992f9e041de813457a3cff8b77e31a101b3a5489bbbb512e40768cbc2b0da8f359d76406ce09134503a56bbb2ca21868802060d7da56916544fbfa2d8510e983bf44418e5af9b4dc6b9d194c14298da3ee90e9ab899c8bf03edbf4fc81d1e7798d7a2e57fd8fd23000c4f26cf7b5f566c67a18b35dc5a846392ada2e2b545e60ac150b44dc7da2f9c682ebe917ad29a4523e04b6bb918f972aab628ba49d1831b02c8fd4ac5b838b00ea2e2d264efb0a9155b55f66da46f640fa1661ce47ce6281d89135c97df67d7005f40b997e8dde318def55fd33a3f516f9e453d80fa1aead808ff3d09e6a7005c52d6fbe06b52397ce0f2254baaaf874c07242dbb443e0a7be304fc068de2eca9b58c9d25496cbedc7d308c7ce816d4d71a4fde28c8dbfde8b631cfcf623a39e182dae4ee0d35e10b78d9be9641b840d7ccabf17122823d5a5b84589eb9ac40eb6d87968f7055018f3c52658f536e757e498489d904e9e0d3295a2de6133575ec6dd46e666624493a24106e2a668ecba8212c5eb6da77da295a45c888620c5923e5644cf23c675412d40c8f456ca73f269c89f3ac609a0451b25d7067c0fab09145b1859982809e69ebad072b5b4c881ecacdcb53c50234a84dd12e07aa82c1434"
      ],
      "sequence": 4294967294
    }
  ],
  "vout": [
    {
      "value": 499978.6451,
      "n": 0,
      "scriptPubKey": {
        "asm": "1 b1b938f6091fd156371606bcda603c42df6afcb2bd4622ec0663589e8077e9c8",
        "hex": "5120b1b938f6091fd156371606bcda603c42df6afcb2bd4622ec0663589e8077e9c8",
        "reqSigs": 1,
        "type": "witness_v1_scripthash",
        "addresses": [
          "3QJmnh"
        ]
      }
    },
    {
      "value": 1.0,
      "n": 1,
      "scriptPubKey": {
        "asm": "OP_RETURN ca92ec5e85b295f99060d449ce7a158faea163dd37b60d259c6eb97f1226e4a7 1c91620af0ae7bb5efde22f00dd642c99bed736bcb3c03f9ac4942614bfd44523cb1422ad08e5b95cffe02d02df662e9bbcd534beb1c23d98c6962416bdd64725cd1224ab0ee3bf5af9e62b04d960289dbad332b8b7c43b9ec0902210bbd04127cf1026a90ce1bd58fbe42906db622a9fb8d130bab5c6399cc2922012b9d24329c11e28a702efb356f5ea2708d56c2491b6df3eb4bbc83792cc9c2e1cb7dc4d2bc31c2aa500edb154f7e8250ad76e2693b4dd3cb6b9ca3590ce9e2c1eb5de4f2dc51a2ca306ebb752f1ee230cd1682095b2db3ab0bfcc3396c8982a18b3d8492fc7182ea104e9b550f3ec210ed36a2297b0d938b2bdce3194ca9a281ab1da4b21c91620af0ae7bb5efde22f00dd642c99bed736bcb3c03f9ac4942614bfd44523cb1422ad08e5b95cffe02d02df662e9bbcd534beb1c23d98c6962416bdd64725cd1224ab0ee3bf5af9e62b04d960289dbad332b8b7c43b9ec0902210bbd04127cf1026a90ce1bd58fbe42906db622a9fb8d130bab5c6399cc2922012b9d24329c11e28a702efb356f5ea2708d56c2491b6df3eb4bbc83792cc9c2e1cb7dc4d2bc31c2aa500edb154f7e8250ad76e2693b4dd3cb6b9ca3590ce9e2c1eb5de4f2dc51a2ca306ebb752f1ee230cd1682095b2db3ab0bfcc3396c8982a18b3d8492fc7182ea104e9b550f3ec210ed36a2297b0d938b2bdce3194ca9a281ab1da4b21c91620af0ae7bb5efde22f00dd642c99bed736bcb3c03f9ac4942614bfd44523cb1422ad08e5b95cffe02d02df662e9bbcd534beb1c23d98c6962416bdd64725cd1224ab0ee3bf5af9e62b04d960289dbad332b8b7c43b9ec0902210bbd04127cf1026a90ce1bd58fbe42906db622a9fb8d130bab5c6399cc2922012b9d24329c11e28a702efb356f5ea2708d56c2491b6df3eb4bbc83792cc9c2e1cb7dc4d2bc31c2aa500edb154f7e8250ad76e2693b4dd3cb6b9ca3590ce9e2c1eb5de4f2dc51a2ca306ebb752f1ee230cd1682095b2db3ab0bfcc3396c8982a18b3d8492fc7182ea104e9b550f3ec210ed36a2297b0d938b2bdce3194ca9a281ab1da4b21c91620af0ae7bb5efde22f00dd642c99bed736bcb3c03f9ac4942614bfd44523cb1422ad08e5b95cffe02d02df662e9bbcd534beb1c23d98c6962416bdd64725cd1224ab0ee3bf5af9e62b04d960289dbad332b8b7c43b9ec0902210bbd04127cf1026a90ce1bd58fbe42906db622a9fb8d130bab5c6399cc2922012b9d24329c11e28a702efb356f5ea2708d56c2491b6df3eb4bbc83792cc9c2e1cb7dc4d2bc31c2aa500edb154f7e8250ad76e2693b4dd3cb6b9ca3590ce9e2c1eb5de4f2dc51a2ca306ebb752f1ee230cd1682095b2db3ab0bfcc3396c8982a18b3d8492fc7182ea104e9b550f3ec210ed36a2297b0d938b2bdce3194ca9a281ab1da4b21c91620af0ae7bb5efde22f00dd642c99bed736bcb3c03f9ac4942614bfd44523cb1422ad08e5b95cffe02d02df662e9bbcd534beb1c23d98c6962416bdd64725cd1224ab0ee3bf5af9e62b04d960289dbad332b8b7c43b9ec0902210bbd04127cf1026a90ce1bd58fbe42906db622a9fb8d130bab5c6399cc2922012b9d24329c11e28a702efb356f5ea2708d56c249519b86e580174220047395249586dfae77cdce38ea276b0d560b6a263782bca8",
        "hex": "6a20ca92ec5e85b295f99060d449ce7a158faea163dd37b60d259c6eb97f1226e4a74db0041c91620af0ae7bb5efde22f00dd642c99bed736bcb3c03f9ac4942614bfd44523cb1422ad08e5b95cffe02d02df662e9bbcd534beb1c23d98c6962416bdd64725cd1224ab0ee3bf5af9e62b04d960289dbad332b8b7c43b9ec0902210bbd04127cf1026a90ce1bd58fbe42906db622a9fb8d130bab5c6399cc2922012b9d24329c11e28a702efb356f5ea2708d56c2491b6df3eb4bbc83792cc9c2e1cb7dc4d2bc31c2aa500edb154f7e8250ad76e2693b4dd3cb6b9ca3590ce9e2c1eb5de4f2dc51a2ca306ebb752f1ee230cd1682095b2db3ab0bfcc3396c8982a18b3d8492fc7182ea104e9b550f3ec210ed36a2297b0d938b2bdce3194ca9a281ab1da4b21c91620af0ae7bb5efde22f00dd642c99bed736bcb3c03f9ac4942614bfd44523cb1422ad08e5b95cffe02d02df662e9bbcd534beb1c23d98c6962416bdd64725cd1224ab0ee3bf5af9e62b04d960289dbad332b8b7c43b9ec0902210bbd04127cf1026a90ce1bd58fbe42906db622a9fb8d130bab5c6399cc2922012b9d24329c11e28a702efb356f5ea2708d56c2491b6df3eb4bbc83792cc9c2e1cb7dc4d2bc31c2aa500edb154f7e8250ad76e2693b4dd3cb6b9ca3590ce9e2c1eb5de4f2dc51a2ca306ebb752f1ee230cd1682095b2db3ab0bfcc3396c8982a18b3d8492fc7182ea104e9b550f3ec210ed36a2297b0d938b2bdce3194ca9a281ab1da4b21c91620af0ae7bb5efde22f00dd642c99bed736bcb3c03f9ac4942614bfd44523cb1422ad08e5b95cffe02d02df662e9bbcd534beb1c23d98c6962416bdd64725cd1224ab0ee3bf5af9e62b04d960289dbad332b8b7c43b9ec0902210bbd04127cf1026a90ce1bd58fbe42906db622a9fb8d130bab5c6399cc2922012b9d24329c11e28a702efb356f5ea2708d56c2491b6df3eb4bbc83792cc9c2e1cb7dc4d2bc31c2aa500edb154f7e8250ad76e2693b4dd3cb6b9ca3590ce9e2c1eb5de4f2dc51a2ca306ebb752f1ee230cd1682095b2db3ab0bfcc3396c8982a18b3d8492fc7182ea104e9b550f3ec210ed36a2297b0d938b2bdce3194ca9a281ab1da4b21c91620af0ae7bb5efde22f00dd642c99bed736bcb3c03f9ac4942614bfd44523cb1422ad08e5b95cffe02d02df662e9bbcd534beb1c23d98c6962416bdd64725cd1224ab0ee3bf5af9e62b04d960289dbad332b8b7c43b9ec0902210bbd04127cf1026a90ce1bd58fbe42906db622a9fb8d130bab5c6399cc2922012b9d24329c11e28a702efb356f5ea2708d56c2491b6df3eb4bbc83792cc9c2e1cb7dc4d2bc31c2aa500edb154f7e8250ad76e2693b4dd3cb6b9ca3590ce9e2c1eb5de4f2dc51a2ca306ebb752f1ee230cd1682095b2db3ab0bfcc3396c8982a18b3d8492fc7182ea104e9b550f3ec210ed36a2297b0d938b2bdce3194ca9a281ab1da4b21c91620af0ae7bb5efde22f00dd642c99bed736bcb3c03f9ac4942614bfd44523cb1422ad08e5b95cffe02d02df662e9bbcd534beb1c23d98c6962416bdd64725cd1224ab0ee3bf5af9e62b04d960289dbad332b8b7c43b9ec0902210bbd04127cf1026a90ce1bd58fbe42906db622a9fb8d130bab5c6399cc2922012b9d24329c11e28a702efb356f5ea2708d56c249519b86e580174220047395249586dfae77cdce38ea276b0d560b6a263782bca8",
        "type": "nulldata"
      }
    }
  ],
  "blockhash": "2c44072194b49e49486c87ae6b37abdd6c2c23e2c7b477f70371a1b5276080d1",
  "confirmations": 1,
  "time": 1764179865,
  "blocktime": 1764179865
}