{
  "hex": "010000000001012c0bcebd03e2ea11464bee9bd3d403215cf89dc9a245d36696d5e6d65a2116110100000000feffffff02d0cb9045792d00002251209c7580be8f82ba4eefcbcd1dda418130495c70b3a944a011402126b332d82d9a00e1f50500000000fdd5046a20e42900506673e06fad7c69e7cbb6023ea58411a282f21219351b5fa0858c23374db00488af230e3a6ee7c84784f7424b2d58df5fbf30e0e66f54eb1128335511a8876ba88f032e1a4ec7e867a4d7626b0d78ff7f9f10c0c64f74cb310813753188a74bc8ef634e7a2ea78807c4b7020b6d189f1fff70a0a62f14ab5168731551e8c72be8cf436e5a0e87a827e497222b4d38bf3fdf5080860f348b7148533571c8e70b082fa38ebaee6748c70477c2cbadd85fdf3fb06066efd46b91a8b3d5912807eb280f83ae9ace4768e72457e2eb8df87fff1f904046cff44bb18893f5b10827cb486fe3cefaae2708874437828bed981f9f7ff02026af942bd1e8f395d16847ab684fc3eeda8e0728a76417a2abcdb83fbf5fd000068fb40bf1c8d3b5f148678b88af230e3a6ee7c84784f7424b2d58df5fbf30e0e66f54eb1128335511a8876ba88f032e1a4ec7e867a4d7626b0d78ff7f9f10c0c64f74cb310813753188a74bc8ef634e7a2ea78807c4b7020b6d189f1fff70a0a62f14ab5168731551e8c72be8cf436e5a0e87a827e497222b4d38bf3fdf5080860f348b7148533571c8e70b082fa38ebaee6748c70477c2cbadd85fdf3fb06066efd46b91a8b3d5912807eb280f83ae9ace4768e72457e2eb8df87fff1f904046cff44bb18893f5b10827cb486fe3cefaae2708874437828bed981f9f7ff02026af942bd1e8f395d16847ab684fc3eeda8e0728a76417a2abcdb83fbf5fd000068fb40bf1c8d3b5f148678b88af230e3a6ee7c84784f7424b2d58df5fbf30e0e66f54eb1128335511a8876ba88f032e1a4ec7e867a4d7626b0d78ff7f9f10c0c64f74cb310813753188a74bc8ef634e7a2ea78807c4b7020b6d189f1fff70a0a62f14ab5168731551e8c72be8cf436e5a0e87a827e497222b4d38bf3fdf5080860f348b7148533571c8e70b082fa38ebaee6748c70477c2cbadd85fdf3fb06066efd46b91a8b3d5912807eb280f83ae9ace4768e72457e2eb8df87fff1f904046cff44bb18893f5b10827cb486fe3cefaae2708874437828bed981f9f7ff02026af942bd1e8f395d16847ab684fc3eeda8e0728a76417a2abcdb83fbf5fd000068fb40bf1c8d3b5f148678b88af230e3a6ee7c84784f7424b2d58df5fbf30e0e66f54eb1128335511a8876ba88f032e1a4ec7e867a4d7626b0d78ff7f9f10c0c64f74cb310813753188a74bc8ef634e7a2ea78807c4b7020b6d189f1fff70a0a62f14ab5168731551e8c72be8cf436e5a0e87a827e497222b4d38bf3fdf5080860f348b7148533571c8e70b082fa38ebaee6748c70477c2cbadd85fdf3fb06066efd46b91a8b3d5912807eb280f83ae9ace4768e72457e2eb8df87fff1f904046cff44bb18893f5b10827cb486fe3cefaae2708874437828bed981f9f7ff02026af942bd1e8f395d16847ab684fc3eeda8e0728a76417a2abcdb83fbf5fd000068fb40bf1c8d3b5f148678b88af230e3a6ee7c84784f7424b2d58df5fbf30e0e66f54eb1128335511a8876ba88f032e1a4ec7e867a4d7626b0d78ff7f9f10c0c64f74cb310813753188a74bc8ef634e7a2ea78807c4b7020b6d189f1fff70a0a62f14ab5168731551e8c72be8cf436e5a0e87a827e497222b4d38bf3fdf5080860f348b7148533571c8e70b082fa38ebaee6748c70477c2cbadd85f8db45c8bd82fcc138dc556c72b1f26e383a34da1bf3de072a7e114d44ac5211902fd7509cc383b1df7753a11313d76f51dd1076f3de4492d1fb2108077d6be28629369b0adf9adf9676db2453c54a214098f187bcec322f0677d80c850aaabc3cc26053424b140df046b8e097800171204714c3588e7e0a7e7d7556ddab6552ea4b45fba8b86aeaf0f008b0630ee85aa2d8edd5779c60c7f9845d8dd1815589db988637b71f9830d95031edb6cca729dfa5d89f512a91107d55e687742ea0a74da86c60ccd9e4748dba4b059739ae52fea74bb0f9ad21f661b91b075b29377224f7c838b723f16a82257b69f989d16d2a7ce67000391606d4a3f8e475d837ca58c166af72eb012197f9b8e1d3706c1697ce4ea2aa1769186684d753e58ae4eb50f340948fac2c9f01b9cf3f859701f8740cb379f0ba115ad9aef91419c0b20d3b6b64384c417ba78aa3df1738c687d49fca658885b8c5c52bab21b3962ecaa99a929ba69d4020edcc07f7cc6afd7595137ea21668ec9e0573f0e31ecc2f98136dcebabfd483d82b04da077035fda4976fec2cc89340d375e0e58c7d61458e6092022c8d65d975c337c22817da3241af49696136e8951f39e8936a916efb1cd74d44f9c4abc61bebb0cffee2ec7a8b7fbb81785142981de9c57d8ed81e71aabd9cc6f91af02f1b02d8b7d9863bb9df8c8138da774686873a457a44122c97c8812b703346dfbddf7b5f0f7d99dfdc94b1f96f46dcecbe459cb26cc7c3b39e5194ec41d7ba3ffac3bdd887a662c6b6931b896abc94f68df7f376b6764a95ec1c5d04c32c41bf4688cdd4d6327d8ae89270473aa9913022b91942520659b7c17dadda06ed7e1cbbd016cf05d16c175ee669ab519fea748848d6b69efb5724f766fbca5a2fcd33f7a7dec0757b0deb5a2254d9fe0b1597816a6fad9296d21f8f7df771bef086c35dc3766126c77525c4903775e868a91d66e79caa82ab33acf0d77631d8babd50421346603cde7a810e8f69b2d6cdba47658b10478374dd6844a550bc60e644e1b3b1c319494bd3ce7839042da8d15d9c6d119dcaf1f0e0c11fb3c84d55700a6f53f00ac95727ea0b46b8c43f5a3ec1e1c22cfd591e401b7103dd0b4ed52fa2edeef7d0619a1a15dcee0b1f31702b40f4cd0552d9815e885a35c7b2dd85dead1dbda004868e0cfe3ef0affc86ba0506ff67a12774eef4f0050ac0fbb0c3445be6429446352bc60c4da0d0b15fe9c5659d84f9a60830a5ac5515aa5388791ffd55ae41d53f4ca4f5e9a1f466865c628e332a18bd08e50807c293aecd245d98be3926c8b8983d5d50632a89f0b24392068a9355d04e02f97f3d6cb8ea7b546250b6af8100ad0bb9b8498b21c8819cb8367a07a23656519c231b72b96e27dec397219516922dd3064488acde3a7ae30976862503d348a10166662e02acd0b06d09ab70388156b978f9263df6bea5255b7110a6cd738db8bf8b1dbe6726c55796af6c9df3082fd4acc1abafcabfd9b99ae07b1cefb13626a63424c103587979aba33e7224b17a4ad481b063da7217d206ffeafa4552825c461faccd776ed2196903c741ef77f46d79aa02637079c62b35d65f298cc18d888157b0be15a7bf72797468be0c24d152c6700ca34abcb7f3cd09f69f1ce9c5acbbdcec124a23c09a9aee5e89bb37d1c8b3effd7fc5087e7ed4f2992c38bbf61cecefed2e3f6f1d3168566f05dec53fd5f308d8de1dc0a99633556f803da6e2069edfb6d924fe970d482299d2e6b31365267fb5f403a7f3d70388e691e0eb15e76c8c0166573e09e1ff8f459237d4d1be57290682672b07b425895da8c36025a9d660925c1fbb62b6b795e2b213d81713b02d1c44a2d490ee1b75078c3bf3b5352a8677b2b5fa3cd2deeec222d7b0e44dab4f4b48245f20ab87053376f7653fb32dc3545a122f86dec456d8e758155167a093b730ddad0e51097d42ab49b6b69170d63402f1bf6a7bf2d6189ac91cb0e2187306d642d12b9caa4d5e61ccc09dd6160d3a7c056e67bce545bc58109b1fa1161b2a4e37e547b7ba163fc25e14dd7c2ffb7ca1cd0d170cad74410c449deb72f8b596b7ab84db94516ec17cf3e5cde41034e94478be3122e8cc21fa71a25b2c57ef6b1b2cd7fc50f10c48e19674b55e7303562060861cbd134a6494e05a2b5253a5f1ef17c82efff47709dc61d679431ce162b3bf134a7e42e742bf61dc922a437cbd0900792292fa0bd86fd6592e4e6af4567e8707614747c35dde0bc1b8695035641af5ce0e09e49552c0b8ca01b70a49a3c6e10403c49233c88a584d2a45784a1f0b5978150f9c1311fe39a65f3a7d887b8897944929e326bc44280eeb50acf8b31e2670c71891b69cb82ba72449aad62a6cf3028d3902eeeb7e1275032555462c4416792b5551084aef01aa2c027f65642c4c6b6a611022194ce01b0639be3ee2c5a135e3438753b0b19791c7d898b7071c2b08670c3239919e4adae763b271193ea1b899ff10ee9dae668f2796fb8c53554b69148c7d10e61e67ed0287f75778630e21d66af430ba3acfc865ac57cc883aadcfce0722513ee8e4fc3a1c8bc41f4832e05c88ce6e30a302ac9983e33a0ca9fa4b661d471146dcaa90ae7ebeb6d1f30a175e0fca6953b94c2db07d974e9cd0105e3825ac3be1777cd0d175918607abcf5a59a87df7c6d5fd527533feae4c61ba350b3d4a0930fa8d41003bd8cadf45e0a3e2bfd194153ab97d484360bcd63d13f83aa15099a0fcae618b7e101f0804d8bb7fcc4929ea8bac556a2da0674d4c69e3c7980339d4e13eab6aa0ee944faccce3807f47c783f031320015a2dea4885bf495e5f7b8b6407ee6f4d79f5139d04516ad05047f85e950de9c017c15e1ce7bdf656b6b66126ebded0a0b6f1ec580530ff7a6f932f0be48941717188ad6b5c6d32b5d2f238484b4f5a54eaff32c471c64a5c9b1e66fa854a69e1e4df53221ff025462590b7953698f487ca2451d1a80f5a934e749cd6f6a652df2a252e8e03d835250da63aa1d85e3757ac9635f4e3edd8a11a6c1bd080125ccb6572c61ff53dacd1b93b4c1b6ed62d9dfc03262e31aa7da2420d1f01a99ab5be9ed8ddeb9a351afd2b9a61ba13c15d5ce77735c560981822d33177dc1278ebda4962ce29236ca8597559a5bd1b73069fcc0fa1160accaf8be3c72ae677e49a70575e493009dafb3b11b309579068899849894dda4c7f53764372613885c19d90704e14585b3b452f80c952070fbe73e62d6b3a35a641ec18e3c7a2f76a683634387c44376136ae79452d17a13e0294a6b6769d612336f06ee0b67aa50ec9cf08e4e23f856ade562f37b3c60113141d2f303e5556587082868ee7f8183c565a5b6479829798a2b1c4c5c7cce6f0f30609143b4043445d8198a7a8abb7d7dcf4fafd0a232e34414350518f92b0bfc1e8f0f3000000000000000000001023364601fd210500b2e41892778aeaedddbbc6210c754d228f947c85495b92e9a625fdd9156ec21d0514a7d45a8e7b67236a8b4994bc2eb0685ef5416d2c86b74a294e5704d2ca9ba687648c992a9b04a15d99aba9881268b0a560e6a5d163bcd25f5c9f3a7e719af7c2355f72a3397b3bfa75b4bc323020f96048a954ced5e06c246dbb076d9a2224124594cf4c55f2c6bdaedff00d08e016f81a35350807494cf50e8428f2fc4522ac69cf5805ab81668136cf700835deaa7b95b5544ef07fa3a8d25fa109f8e8a59cfe18725b2a2acb17a91125f9368640cb3fb937788cdd13385b5fe553dd38bb71b495fa24524d9d3a0befbb19fc688cae01b950678f6ea5fe59d097c2f841c1e9c3adbada41e632f5ec7da7bdc8f5902b1457184e0599fb0615c73d1e489e4c022628f1f38dc30ddf701648edd744d33d775cbc2b595b01ca6f244a5878eba0cba6b310389b0d6a900fad6093ffd397f1423a10a11aac44c11978e73dbcae307c3e37bba8c0c626e16c6979769bfe733db9738315abff7660aeee88ed2bc3da4ee55959744dbbc41bb3f08b670732dfaba98020788b4895386a1fdb1c4737cb57e3e25db58d47bb1e84f631f0c4d92a34451b33c302e17373fbca6e09851aec34cbf5b150d02d8216ad1880aca6f2cad05c25ff32158144ec6f642bd14406aaa1fdf097cd389cfb0c99ea5e94a06e7008920296c93077978a4b0c247d627fa1616c7873b90cdd77070084a5bfc0761923e82dd094ae8de093757f6a6db20c3773e442a31a41b67804c1e84269a3cf0d5c3990b8f396dd6029f7d316fbb7f8c8aa335fd11411959f0bd06261b69468a52ccac5cffd50d073603e841494b8027d254f8a7d517d308e8224f732711292e46e850fbd3d2ae603d99dbc5abfb63873ea65919a9a757b7dbcf6887cdf017a851d3613fbf7ab26c102007357f6158e10f992093ef847817b9bea291ae2beb35779e1c6b19e46e6ca4e0058d6501c1fba8d5a72db4a98e6b6ac9830ce11269c247dfb97594543e3cced5fc9ab124e4386b3b6e4c6ab00d6a3dbdffcb37850943a4fab8dfce63b642c86cffa7c075c82641efaa2f82f8ce7f3b8f96a39c8c88bb4e68a409e120455b39a487ad1a45ade4a9b38b6f988666aca230281c78c7e028afadd5de4611e990d15fc00af87dc48146904cdc83ec92cae6a093f1ec2e737f237500594e8f05871ed9c549010d558bcd56afcf07e96f1372eaa145e08fb5929f579b1df7267157f6d98f02cc46316f621e4387aa2e1256882de473a302f2605cdd483c8898f77444977c9ba15945d5a263ab0fdc8c65aaa148096eb514ae21d5995ae65cacda1578db4834019c8125634361c02589f96db2dde1df2d723fe9bc9fd1a27ec8c62eb85209c6d251f90ad2baac975e2021989f1afa2a9685d109aa3636f7bed5a147bb8b167d1dd7ad97530dafa4dc2fd4a31f45fdd31438a731e13c98e1140b42f1306d4cbf2b28c863070d18daf11e7a189000d668b798948cd9d5909bddcd98e54cab3ae676037ea557aac13526e91b1ec7ed9f1e7493550e097b23e2545199ebbfc7cacb848f71c778b1e49561a8b0160b8e9ab966c25943657edbf780e8904ebf836dbda4108b8e54f930f7ce698cf599e06a55ad71d2a4e5f345f216256699c57f6cca34057b424f174285198412a29caa8ab9a9c2403152d60c56c9c4d326013de360ddbffc062cb3d5ea82f73cbf16ed0e9610d108786ffff39876e4cfbe39e57ed0cdfe17eb1234e60769d0cb4d6e4b4f321dcc5886035b6ba615bd54d3c14ba2d9d311e4329a06c8351218908055d896e127a5b426491e38e0c14699fb9c88b1a35eaa90586000000",
  "txid": "f4ccc157016e3af54bdfda0343ff8835a505ed9a93f3c52ec999efd00010a28f",
  "hash": "93d35f5771008b67412d1c640ea96939213da6b821605797c599073da8bc783e",
  "size": 5085,
  "vsize": 2278,
  "version": 1,
  "locktime": 134,
  "vin": [
    {
      "txid": "1116215ad6e6d59666d345a2c99df85c2103d4d39bee4b4611eae203bdce0b2c",
      "vout": 1,
      "scriptSig": {
        "asm": "",
        "hex": ""
      },
      "txinwitness": [
        "cc383b1df7753a11313d76f51dd1076f3de4492d1fb2108077d6be28629369b0adf9adf9676db2453c54a214098f187bcec322f0677d80c850aaabc3cc26053424b140df046b8e097800171204714c3588e7e0a7e7d7556ddab6552ea4b45fba8b86aeaf0f008b0630ee85aa2d8edd5779c60c7f9845d8dd1815589db988637b71f9830d95031edb6cca729dfa5d89f512a91107d55e687742ea0a74da86c60ccd9e4748dba4b059739ae52fea74bb0f9ad21f661b91b075b29377224f7c838b723f16a82257b69f989d16d2a7ce67000391606d4a3f8e475d837ca58c166af72eb012197f9b8e1d3706c1697ce4ea2aa1769186684d753e58ae4eb50f340948fac2c9f01b9cf3f859701f8740cb379f0ba115ad9aef91419c0b20d3b6b64384c417ba78aa3df1738c687d49fca658885b8c5c52bab21b3962ecaa99a929ba69d4020edcc07f7cc6afd7595137ea21668ec9e0573f0e31ecc2f98136dcebabfd483d82b04da077035fda4976fec2cc89340d375e0e58c7d61458e6092022c8d65d975c337c22817da3241af49696136e8951f39e8936a916efb1cd74d44f9c4abc61bebb0cffee2ec7a8b7fbb81785142981de9c57d8ed81e71aabd9cc6f91af02f1b02d8b7d9863bb9df8c8138da774686873a457a44122c97c8812b703346dfbddf7b5f0f7d99dfdc94b1f96f46dcecbe459cb26cc7c3b39e5194ec41d7ba3ffac3bdd887a662c6b6931b896abc94f68df7f376b6764a95ec1c5d04c32c41bf4688cdd4d6327d8ae89270473aa9913022b91942520659b7c17dadda06ed7e1cbbd016cf05d16c175ee669ab519fea748848d6b69efb5724f766fbca5a2fcd33f7a7dec0757b0deb5a2254d9fe0b1597816a6fad9296d21f8f7df771bef086c35dc3766126c77525c4903775e868a91d66e79caa82ab33acf0d77631d8babd50421346603cde7a810e8f69b2d6cdba47658b10478374dd6844a550bc60e644e1b3b1c319494bd3ce7839042da8d15d9c6d119dcaf1f0e0c11fb3c84d55700a6f53f00ac95727ea0b46b8c43f5a3ec1e1c22cfd591e401b7103dd0b4ed52fa2edeef7d0619a1a15dcee0b1f31702b40f4cd0552d9815e885a35c7b2dd85dead1dbda004868e0cfe3ef0affc86ba0506ff67a12774eef4f0050ac0fbb0c3445be6429446352bc60c4da0d0b15fe9c5659d84f9a60830a5ac5515aa5388791ffd55ae41d53f4ca4f5e9a1f466865c628e332a18bd08e50807c293aecd245d98be3926c8b8983d5d50632a89f0b24392068a9355d04e02f97f3d6cb8ea7b546250b6af8100ad0bb9b8498b21c8819cb8367a07a23656519c231b72b96e27dec397219516922dd3064488acde3a7ae30976862503d348a10166662e02acd0b06d09ab70388156b978f9263df6bea5255b7110a6cd738db8bf8b1dbe6726c55796af6c9df3082fd4acc1abafcabfd9b99ae07b1cefb13626a63424c103587979aba33e7224b17a4ad481b063da7217d206ffeafa4552825c461faccd776ed2196903c741ef77f46d79aa02637079c62b35d65f298cc18d888157b0be15a7bf72797468be0c24d152c6700ca34abcb7f3cd09f69f1ce9c5acbbdcec124a23c09a9aee5e89bb37d1c8b3effd7fc5087e7ed4f2992c38bbf61cecefed2e3f6f1d3168566f05dec53fd5f308d8de1dc0a99633556f803da6e2069edfb6d924fe970d482299d2e6b31365267fb5f403a7f3d70388e691e0eb15e76c8c0166573e09e1ff8f459237d4d1be57290682672b07b425895da8c36025a9d660925c1fbb62b6b795e2b213d81713b02d1c44a2d490ee1b75078c3bf3b5352a8677b2b5fa3cd2deeec222d7b0e44dab4f4b48245f20ab87053376f7653fb32dc3545a122f86dec456d8e758155167a093b730ddad0e51097d42ab49b6b69170d63402f1bf6a7bf2d6189ac91cb0e2187306d642d12b9caa4d5e61ccc09dd6160d3a7c056e67bce545bc58109b1fa1161b2a4e37e547b7ba163fc25e14dd7c2ffb7ca1cd0d170cad74410c449deb72f8b596b7ab84db94516ec17cf3e5cde41034e94478be3122e8cc21fa71a25b2c57ef6b1b2cd7fc50f10c48e19674b55e7303562060861cbd134a6494e05a2b5253a5f1ef17c82efff47709dc61d679431ce162b3bf134a7e42e742bf61dc922a437cbd0900792292fa0bd86fd6592e4e6af4567e8707614747c35dde0bc1b8695035641af5ce0e09e49552c0b8ca01b70a49a3c6e10403c49233c88a584d2a45784a1f0b5978150f9c1311fe39a65f3a7d887b8897944929e326bc44280eeb50acf8b31e2670c71891b69cb82ba72449aad62a6cf3028d3902eeeb7e1275032555462c4416792b5551084aef01aa2c027f65642c4c6b6a611022194ce01b0639be3ee2c5a135e3438753b0b19791c7d898b7071c2b08670c3239919e4adae763b271193ea1b899ff10ee9dae668f2796fb8c53554b69148c7d10e61e67ed0287f75778630e21d66af430ba3acfc865ac57cc883aadcfce0722513ee8e4fc3a1c8bc41f4832e05c88ce6e30a302ac9983e33a0ca9fa4b661d471146dcaa90ae7ebeb6d1f30a175e0fca6953b94c2db07d974e9cd0105e3825ac3be1777cd0d175918607abcf5a59a87df7c6d5fd527533feae4c61ba350b3d4a0930fa8d41003bd8cadf45e0a3e2bfd194153ab97d484360bcd63d13f83aa15099a0fcae618b7e101f0804d8bb7fcc4929ea8bac556a2da0674d4c69e3c7980339d4e13eab6aa0ee944faccce3807f47c783f031320015a2dea4885bf495e5f7b8b6407ee6f4d79f5139d04516ad05047f85e950de9c017c15e1ce7bdf656b6b66126ebded0a0b6f1ec580530ff7a6f932f0be48941717188ad6b5c6d32b5d2f238484b4f5a54eaff32c471c64a5c9b1e66fa854a69e1e4df53221ff025462590b7953698f487ca2451d1a80f5a934e749cd6f6a652df2a252e8e03d835250da63aa1d85e3757ac9635f4e3edd8a11a6c1bd080125ccb6572c61ff53dacd1b93b4c1b6ed62d9dfc03262e31aa7da2420d1f01a99ab5be9ed8ddeb9a351afd2b9a61ba13c15d5ce77735c560981822d33177dc1278ebda4962ce29236ca8597559a5bd1b73069fcc0fa1160accaf8be3c72ae677e49a70575e493009dafb3b11b309579068899849894dda4c7f53764372613885c19d90704e14585b3b452f80c952070fbe73e62d6b3a35a641ec18e3c7a2f76a683634387c44376136ae79452d17a13e0294a6b6769d612336f06ee0b67aa50ec9cf08e4e23f856ade562f37b3c60113141d2f303e5556587082868ee7f8183c565a5b6479829798a2b1c4c5c7cce6f0f30609143b4043445d8198a7a8abb7d7dcf4fafd0a232e34414350518f92b0bfc1e8f0f3000000000000000000001023364601",
        "00b2e41892778aeaedddbbc6210c754d228f947c85495b92e9a625fdd9156ec21d0514a7d45a8e7b67236a8b4994bc2eb0685ef5416d2c86b74a294e5704d2ca9ba687648c992a9b04a15d99aba9881268b0a560e6a5d163bcd25f5c9f3a7e719af7c2355f72a3397b3bfa75b4bc323020f96048a954ced5e06c246dbb076d9a2224124594cf4c55f2c6bdaedff00d08e016f81a35350807494cf50e8428f2fc4522ac69cf5805ab81668136cf700835deaa7b95b5544ef07fa3a8d25fa109f8e8a59cfe18725b2a2acb17a91125f9368640cb3fb937788cdd13385b5fe553dd38bb71b495fa24524d9d3a0befbb19fc688cae01b950678f6ea5fe59d097c2f841c1e9c3adbada41e632f5ec7da7bdc8f5902b1457184e0599fb0615c73d1e489e4c022628f1f38dc30ddf701648edd744d33d775cbc2b595b01ca6f244a5878eba0cba6b310389b0d6a900fad6093ffd397f1423a10a11aac44c11978e73dbcae307c3e37bba8c0c626e16c6979769bfe733db9738315abff7660aeee88ed2bc3da4ee55959744dbbc41bb3f08b670732dfaba98020788b4895386a1fdb1c4737cb57e3e25db58d47bb1e84f631f0c4d92a34451b33c302e17373fbca6e09851aec34cbf5b150d02d8216ad1880aca6f2cad05c25ff32158144ec6f642bd14406aaa1fdf097cd389cfb0c99ea5e94a06e7008920296c93077978a4b0c247d627fa1616c7873b90cdd77070084a5bfc0761923e82dd094ae8de093757f6a6db20c3773e442a31a41b67804c1e84269a3cf0d5c3990b8f396dd6029f7d316fbb7f8c8aa335fd11411959f0bd06261b69468a52ccac5cffd50d073603e841494b8027d254f8a7d517d308e8224f732711292e46e850fbd3d2ae603d99dbc5abfb63873ea65919a9a757b7dbcf6887cdf017a851d3613fbf7ab26c102007357f6158e10f992093ef847817b9bea291ae2beb35779e1c6b19e46e6ca4e0058d6501c1fba8d5a72db4a98e6b6ac9830ce11269c247dfb97594543e3cced5fc9ab124e4386b3b6e4c6ab00d6a3dbdffcb37850943a4fab8dfce63b642c86cffa7c075c82641efaa2f82f8ce7f3b8f96a39c8c88bb4e68a409e120455b39a487ad1a45ade4a9b38b6f988666aca230281c78c7e028afadd5de4611e990d15fc00af87dc48146904cdc83ec92cae6a093f1ec2e737f237500594e8f05871ed9c549010d558bcd56afcf07e96f1372eaa145e08fb5929f579b1df7267157f6d98f02cc46316f621e4387aa2e1256882de473a302f2605cdd483c8898f77444977c9ba15945d5a263ab0fdc8c65aaa148096eb514ae21d5995ae65cacda1578db4834019c8125634361c02589f96db2dde1df2d723fe9bc9fd1a27ec8c62eb85209c6d251f90ad2baac975e2021989f1afa2a9685d109aa3636f7bed5a147bb8b167d1dd7ad97530dafa4dc2fd4a31f45fdd31438a731e13c98e1140b42f1306d4cbf2b28c863070d18daf11e7a189000d668b798948cd9d5909bddcd98e54cab3ae676037ea557aac13526e91b1ec7ed9f1e7493550e097b23e2545199ebbfc7cacb848f71c778b1e49561a8b0160b8e9ab966c25943657edbf780e8904ebf836dbda4108b8e54f930f7ce698cf599e06a55ad71d2a4e5f345f216256699c57f6cca34057b424f174285198412a29caa8ab9a9c2403152d60c56c9c4d326013de360ddbffc062cb3d5ea82f73cbf16ed0e9610d108786ffff39876e4cfbe39e57ed0cdfe17eb1234e60769d0cb4d6e4b4f321dcc5886035b6ba615bd54d3c14ba2d9d311e4329a06c8351218908055d896e127a5b426491e38e0c14699fb9c88b1a35eaa905"
      ],
      "sequence": 4294967294
    }
  ],
  "vout": [
    {
      "value": 499988.8141,
      "n": 0,
      "scriptPubKey": {
        "asm": "1 9c7580be8f82ba4eefcbcd1dda418130495c70b3a944a011402126b332d82d9a",
        "hex": "51209c7580be8f82ba4eefcbcd1dda418130495c70b3a944a011402126b332d82d9a",
        "reqSigs": 1,
        "type": "witness_v1_scripthash",
        "addresses": [
          "3QJmnh"
        ]
      }
    },
    {
      "value": 1.0,
      "n": 1,
      "scriptPubKey": {
        "asm": "OP_RETURN e42900506673e06fad7c69e7cbb6023ea58411a282f21219351b5fa0858c2337 88af230e3a6ee7c84784f7424b2d58df5fbf30e0e66f54eb1128335511a8876ba88f032e1a4ec7e867a4d7626b0d78ff7f9f10c0c64f74cb310813753188a74bc8ef634e7a2ea78807c4b7020b6d189f1fff70a0a62f14ab5168731551e8c72be8cf436e5a0e87a827e497222b4d38bf3fdf5080860f348b7148533571c8e70b082fa38ebaee6748c70477c2cbadd85fdf3fb06066efd46b91a8b3d5912807eb280f83ae9ace4768e72457e2eb8df87fff1f904046cff44bb18893f5b10827cb486fe3cefaae2708874437828bed981f9f7ff02026af942bd1e8f395d16847ab684fc3eeda8e0728a76417a2abcdb83fbf5fd000068fb40bf1c8d3b5f148678b88af230e3a6ee7c84784f7424b2d58df5fbf30e0e66f54eb1128335511a8876ba88f032e1a4ec7e867a4d7626b0d78ff7f9f10c0c64f74cb310813753188a74bc8ef634e7a2ea78807c4b7020b6d189f1fff70a0a62f14ab5168731551e8c72be8cf436e5a0e87a827e497222b4d38bf3fdf5080860f348b7148533571c8e70b082fa38ebaee6748c70477c2cbadd85fdf3fb06066efd46b91a8b3d5912807eb280f83ae9ace4768e72457e2eb8df87fff1f904046cff44bb18893f5b10827cb486fe3cefaae2708874437828bed981f9f7ff02026af942bd1e8f395d16847ab684fc3eeda8e0728a76417a2abcdb83fbf5fd000068fb40bf1c8d3b5f148678b88af230e3a6ee7c84784f7424b2d58df5fbf30e0e66f54eb1128335511a8876ba88f032e1a4ec7e867a4d7626b0d78ff7f9f10c0c64f74cb310813753188a74bc8ef634e7a2ea78807c4b7020b6d189f1fff70a0a62f14ab5168731551e8c72be8cf436e5a0e87a827e497222b4d38bf3fdf5080860f348b7148533571c8e70b082fa38ebaee6748c70477c2cbadd85fdf3fb06066efd46b91a8b3d5912807eb280f83ae9ace4768e72457e2eb8df87fff1f904046cff44bb18893f5b10827cb486fe3cefaae2708874437828bed981f9f7ff02026af942bd1e8f395d16847ab684fc3eeda8e0728a76417a2abcdb83fbf5fd000068fb40bf1c8d3b5f148678b88af230e3a6ee7c84784f7424b2d58df5fbf30e0e66f54eb1128335511a8876ba88f032e1a4ec7e867a4d7626b0d78ff7f9f10c0c64f74cb310813753188a74bc8ef634e7a2ea78807c4b7020b6d189f1fff70a0a62f14ab5168731551e8c72be8cf436e5a0e87a827e497222b4d38bf3fdf5080860f348b7148533571c8e70b082fa38ebaee6748c70477c2cbadd85fdf3fb06066efd46b91a8b3d5912807eb280f83ae9ace4768e72457e2eb8df87fff1f904046cff44bb18893f5b10827cb486fe3cefaae2708874437828bed981f9f7ff02026af942bd1e8f395d16847ab684fc3eeda8e0728a76417a2abcdb83fbf5fd000068fb40bf1c8d3b5f148678b88af230e3a6ee7c84784f7424b2d58df5fbf30e0e66f54eb1128335511a8876ba88f032e1a4ec7e867a4d7626b0d78ff7f9f10c0c64f74cb310813753188a74bc8ef634e7a2ea78807c4b7020b6d189f1fff70a0a62f14ab5168731551e8c72be8cf436e5a0e87a827e497222b4d38bf3fdf5080860f348b7148533571c8e70b082fa38ebaee6748c70477c2cbadd85f8db45c8bd82fcc138dc556c72b1f26e383a34da1bf3de072a7e114d44ac52119",
        "hex": "6a20e42900506673e06fad7c69e7cbb6023ea58411a282f21219351b5fa0858c23374db00488af230e3a6ee7c84784f7424b2d58df5fbf30e0e66f54eb1128335511a8876ba88f032e1a4ec7e867a4d7626b0d78ff7f9f10c0c64f74cb310813753188a74bc8ef634e7a2ea78807c4b7020b6d189f1fff70a0a62f14ab5168731551e8c72be8cf436e5a0e87a827e497222b4d38bf3fdf5080860f348b7148533571c8e70b082fa38ebaee6748c70477c2cbadd85fdf3fb06066efd46b91a8b3d5912807eb280f83ae9ace4768e72457e2eb8df87fff1f904046cff44bb18893f5b10827cb486fe3cefaae2708874437828bed981f9f7ff02026af942bd1e8f395d16847ab684fc3eeda8e0728a76417a2abcdb83fbf5fd000068fb40bf1c8d3b5f148678b88af230e3a6ee7c84784f7424b2d58df5fbf30e0e66f54eb1128335511a8876ba88f032e1a4ec7e867a4d7626b0d78ff7f9f10c0c64f74cb310813753188a74bc8ef634e7a2ea78807c4b7020b6d189f1fff70a0a62f14ab5168731551e8c72be8cf436e5a0e87a827e497222b4d38bf3fdf5080860f348b7148533571c8e70b082fa38ebaee6748c70477c2cbadd85fdf3fb06066efd46b91a8b3d5912807eb280f83ae9ace4768e72457e2eb8df87fff1f904046cff44bb18893f5b10827cb486fe3cefaae2708874437828bed981f9f7ff02026af942bd1e8f395d16847ab684fc3eeda8e0728a76417a2abcdb83fbf5fd000068fb40bf1c8d3b5f148678b88af230e3a6ee7c84784f7424b2d58df5fbf30e0e66f54eb1128335511a8876ba88f032e1a4ec7e867a4d7626b0d78ff7f9f10c0c64f74cb310813753188a74bc8ef634e7a2ea78807c4b7020b6d189f1fff70a0a62f14ab5168731551e8c72be8cf436e5a0e87a827e497222b4d38bf3fdf5080860f348b7148533571c8e70b082fa38ebaee6748c70477c2cbadd85fdf3fb06066efd46b91a8b3d5912807eb280f83ae9ace4768e72457e2eb8df87fff1f904046cff44bb18893f5b10827cb486fe3cefaae2708874437828bed981f9f7ff02026af942bd1e8f395d16847ab684fc3eeda8e0728a76417a2abcdb83fbf5fd000068fb40bf1c8d3b5f148678b88af230e3a6ee7c84784f7424b2d58df5fbf30e0e66f54eb1128335511a8876ba88f032e1a4ec7e867a4d7626b0d78ff7f9f10c0c64f74cb310813753188a74bc8ef634e7a2ea78807c4b7020b6d189f1fff70a0a62f14ab5168731551e8c72be8cf436e5a0e87a827e497222b4d38bf3fdf5080860f348b7148533571c8e70b082fa38ebaee6748c70477c2cbadd85fdf3fb06066efd46b91a8b3d5912807eb280f83ae9ace4768e72457e2eb8df87fff1f904046cff44bb18893f5b10827cb486fe3cefaae2708874437828bed981f9f7ff02026af942bd1e8f395d16847ab684fc3eeda8e0728a76417a2abcdb83fbf5fd000068fb40bf1c8d3b5f148678b88af230e3a6ee7c84784f7424b2d58df5fbf30e0e66f54eb1128335511a8876ba88f032e1a4ec7e867a4d7626b0d78ff7f9f10c0c64f74cb310813753188a74bc8ef634e7a2ea78807c4b7020b6d189f1fff70a0a62f14ab5168731551e8c72be8cf436e5a0e87a827e497222b4d38bf3fdf5080860f348b7148533571c8e70b082fa38ebaee6748c70477c2cbadd85f8db45c8bd82fcc138dc556c72b1f26e383a34da1bf3de072a7e114d44ac52119",
        "type": "nulldata"
      }
    }
  ],
  "blockhash": "74cd48d8c624c37e1fac27c00c19e94c48df61d3ca85b84b56360e4f6170fa6f",
  "confirmations": 1,
  "time": 1764182926,
  "blocktime": 1764182926
}