{
  "hex": "01000000000101d467edd9405e0c1d2bdb3059d99da9fe7e33296efe56a35937ee8a592ee7750f0100000000feffffff02e0ca1d7c792d0000225120c52034667f505540ef776debf050a50527705734027af7ab0cc19f4c4aa5d5a100e1f50500000000fdd5046a2000abdc77cb11fe37e9dff9a0db1d040809b27b4fd0f41ef832ce2853d711fcc84db004ea12a6669c8cba170c8200ba40ba2a4240a6536b1e80465d969e107bc0cabcabca328646bcac9a372ca2209a609a0a626086734b3ea0667db6be305be0ea9c8baa52e626dcccfa574cc240fa00fa6a0200e6132b5ec0061dd6de503b808afceb8a72c606fcecda776ce260da20da4a2220c6330b7ee0263df6fe701ba0aadccb6a9226e61c0c3a978c02803ac03aaac2c026d3eb9e00c6dd161e90fb404a3c2b4ab206c63c2c1ab7ac22a01ae01a8ae2e006f3cbbe20e6fd363eb0db606a1c0b2ad266a65c4c7ad7cc42c07a807aea82806693abde40869d565ed0bb000a7c6b0af246867c6c5af7ec62e05aa05acaa2a046b38bfe60a6bd767ef09b202a5c4bea12a6669c8cba170c8200ba40ba2a4240a6536b1e80465d969e107bc0cabcabca328646bcac9a372ca2209a609a0a626086734b3ea0667db6be305be0ea9c8baa52e626dcccfa574cc240fa00fa6a0200e6132b5ec0061dd6de503b808afceb8a72c606fcecda776ce260da20da4a2220c6330b7ee0263df6fe701ba0aadccb6a9226e61c0c3a978c02803ac03aaac2c026d3eb9e00c6dd161e90fb404a3c2b4ab206c63c2c1ab7ac22a01ae01a8ae2e006f3cbbe20e6fd363eb0db606a1c0b2ad266a65c4c7ad7cc42c07a807aea82806693abde40869d565ed0bb000a7c6b0af246867c6c5af7ec62e05aa05acaa2a046b38bfe60a6bd767ef09b202a5c4bea12a6669c8cba170c8200ba40ba2a4240a6536b1e80465d969e107bc0cabcabca328646bcac9a372ca2209a609a0a626086734b3ea0667db6be305be0ea9c8baa52e626dcccfa574cc240fa00fa6a0200e6132b5ec0061dd6de503b808afceb8a72c606fcecda776ce260da20da4a2220c6330b7ee0263df6fe701ba0aadccb6a9226e61c0c3a978c02803ac03aaac2c026d3eb9e00c6dd161e90fb404a3c2b4ab206c63c2c1ab7ac22a01ae01a8ae2e006f3cbbe20e6fd363eb0db606a1c0b2ad266a65c4c7ad7cc42c07a807aea82806693abde40869d565ed0bb000a7c6b0af246867c6c5af7ec62e05aa05acaa2a046b38bfe60a6bd767ef09b202a5c4bea12a6669c8cba170c8200ba40ba2a4240a6536b1e80465d969e107bc0cabcabca328646bcac9a372ca2209a609a0a626086734b3ea0667db6be305be0ea9c8baa52e626dcccfa574cc240fa00fa6a0200e6132b5ec0061dd6de503b808afceb8a72c606fcecda776ce260da20da4a2220c6330b7ee0263df6fe701ba0aadccb6a9226e61c0c3a978c02803ac03aaac2c026d3eb9e00c6dd161e90fb404a3c2b4ab206c63c2c1ab7ac22a01ae01a8ae2e006f3cbbe20e6fd363eb0db606a1c0b2ad266a65c4c7ad7cc42c07a807aea82806693abde40869d565ed0bb000a7c6b0af246867c6c5af7ec62e05aa05acaa2a046b38bfe60a6bd767ef09b202a5c4bea12a6669c8cba170c8200ba40ba2a4240a6536b1e80465d969e107bc0cabcabca328646bcac9a372ca2209a609a0a626086734b3ea0667db6be305be0ea9c8baa52e626dcccfa574cc240fa00fa6a0200e6132b5ec0061dd6de503b808afceb8a72c606fcecda776ce260da20da4a2220c6330b7ee0263df6fe701ba0aadccb6a9226e61c0c3a978c02803ac03aaac287ecaa52e6b1311f790473af92b5126076215aa84e609c35a668876beb94946102fd7509fad5a46afc8cc157c64a36a265c73baba6541535b9cc0956ee4b2dfdeb4ef386e0b0915c8d4a0e7e882ac87cee388529370ed20e7f78609e4a65970489424bb3c834e6204a6fd353cff855fc0565e59121e680c338fb2d20234da5b6e2b686540872b0775ed3c93947d1e8b07300d8cf2303bc8429afb7580a2e4a21f039976e6c4e62feb33166a8caca523c867820d425151ac880a6ec763d28a6a1259cb45a20da26e386d9064d57d543fff9d27484f11c5b45369627aab909513c9d0d36be3ad190e8d789118e156799f5b39f814ec56d3b4bb70a768ba3be05b0fe53a855366a4e4998a2c7a75cac73b6e116b5923a95d11a3ae81017f9ce72d223d1b1e61655195792ff7ca5511deae5ac5d1dcf925776c171176c4e836d5ce5c3b27775382e663f687033c77dc677c9f6c6fc20996e34f86f29c0f79fd7a12f14d9cb878f4823044d2532601ff6fe1f9270299ed9baf73e42d6a372da3accd7ab4757c1b54506a49b4c2566e2b6579eed0e10c11f361b19d8b02105700b06a082b70b18d08998b278785d21d441fa95df3499122aca4b1db079f384b360dc8df385a00a98a1581d98acc602ae3456f18fc682953ec98fc54baf8f7790ea62e442e32f5ee0b92332ff7b8eaf497bb99ba12d17d623f92a3d047c005ffd23b73b7e2c55cfa51d1bf42e74b3070811dd3033afdbcd32fe41b3cd65123fe5c18eba5316a129fa7a4a9df3ef59f26e4e3abe348ab7da6ae3b1601e5704cab020603608364623ec12abcdde06193c12039258d6a0bf86d426914cbfeea765ba97050720d88bffc6b946c53b35026c51efe412b1f91ef5ab7709321f31e0a349fd38e84da020332378f9a97586da20a38b8e51ed6bdc10bdbe28e89291bc3ff24c3c04f8890b39f21666f80bd2b67103294ddd8ef0979ee657542ea92a2d29854b4f4ad28a4b1817434c5681cab58ca18953d89e120d704f4cb9c860d1caefdeca2f7a4a48d312424d0125a21883f3f632ceaca4391304727c6d73b4e5f6acfb8d459f553b1c06e487a2fc559f642d4cfeecbd9054d284c3107b08be663a7f7f213aec2e0e2a04870812dee470263d18cb938072354c901701f73d79f335cb5ec5a1bc6babae99d7374ea64a72a57b6220ca0019c21ccfb6e8c6a411c268a1c8bd4cd2ba3f0ca767469cc93aeb4d7e6db25b0175abd815df708458538cb33cb66387295b66a141b9d190bbe4733bcfeac70a761063491131c9b49f77a7074b0e54445a1bf51581e69d7c59b1c290c5e561926cf5b6fb18984631bd57f73b6136b73492f4c8eeb438e3607555e11156c3ed1a8f7a3ba7d7bc413571db9447ee4a307b667bf074804a593a69cd50c4d4aaa0d2e6cb130247d0761c864cab5cef27db09834024cf4f681ad2425c35d119ef47902d6b375fb7b9cccbc1774066354909b7ebdf4888b4b6b8edca3d002d20ca47a3d52b18430fb588c34130051eaa60399629371df11997f12cae74373f34ab9987472f9431a090661362a775707e6d12227bfb864c09ad0375583b8d08913bfc6236b3696fea739dc20f1f6b3d7c6f1334910166e187b1cfd6c412c2b9ef525c7149e9c9e09d09aeefa2109cab368d897380a8d98e8ae437c4baa6cc45eb4abeca14d436ea8f6170af3b6e516f0e720be1b0ea1a7fe96cc730e7113c902c4571aa5b9580da236665b4faf7f57588182a355001e88cd5314ada26efe5af7528322d59d93852d51d029e839a32acd082af8c0b6f836b9e79e8e87216bba81e1c8997c65c618edbbbb7045ef07247f5fd6692e4bde2ac5a4bb42b2af565441099c7bb3de7d900e6a76d888d9498b9b779d1999778b3c280bc98fa90a42bc56f10ddbdeb1b490a3b984c94b3ec91a07e898e00f07b60baff66f42fc589b4f81de417477029cd04bada776290f9f6a089519845aaca11acd1231188f34ac65be4cd8c9e6fa684dafbf7ae0f16036be2642e236162e5c0816905b57457b8f4abf70be688cd8e325492e3edcce1b7a37eb2b476eaef4a44bd8ffcad81a30c76593e454280a4588d45b898692e062f50c5967cd9828618c6f7428f259b1b0c5bf0bead688168ca8ba97f59bb37c82e1a10e274245273d5d0b3c1119c1f9b3a523365348eeccb32b9e5c6d5df974c534cb73b6b91d15030247116ac25d4eacb464ad2e53cd9c735d9d51644ab2736370c90acaf6ba6935e8715476aee12f219bbd9f7803315e97df2ded7f839e46ba17299f2be319f1a73963dc7ef1b34d05c1944dce7795b8c726bb7461128793e64537964f019e2254153b14e1e691bf3813a7ee21ea9a33eb0cefeddf92fc26831c11fd21354f404fa405a497eee2f089967f8cdf72931413486a56f07bedf544617d0fdb95ea8991d76751118a3bc835770b7944afd4956fed198c1547966dc3347956b537419178edab8ad971b164174f28ebd93cc2edebf4d827e28b3be842d6c4a4529abba97f08fc0cf4afec349004fbd3de5eb4ae01443dfaac28ba3f2b4a8207d65e055417152637e329a6c1369fb428f33443c39d433ed2d7e95c20ba0851314eb7702e14ec04bdc847fe0282941630cdbdc5fc3ed01153bf9fab784817c853b4f3d53f265372d9793456295d00bb00249984829d08fa7e18a72106c0945951b1cb78790a0b9f412d6d613b6f4abbc0e5eb5fc46fe6be23b36c243968656469d451ce23b990d54487dcd982b5da9b04b742bd8097be3a7decd9d57965cf1ccd6e64030a49ebed9cf0f03db0adf16d15ac85e0c2fd88650390d41a00098eb8e08cc4f30253cad1da04a716b28d414270cdd62fa333aef3838ca0ea775748e0901988227bd9bae8b70d12fdc4a3d058d304380f2ed88b0ed502f8d22c77304cc1739b205913cdeada6d820ddf3e7e1e91ce55e97c76cf6b00479dd67c42a971bd348e1a489ed3321943c9aa4a251c64b95c6668525a40c1892088b49c8383a42f7f4687f3872bbce4c3068c3d881e9fae3017a949e4caf4788f8f1dde0fb06cb477e7dcdcedd96b3fb3e23db0570966b5552f2eed5850dce245310a706040742e24b4de0399765cc9baa29f973e74c75c4c907bff758b965fb9c5cab11505ebf1f27da2d700558bd58148a56387bfcda5f43548f9e9c6b3b090652193092c1611689def18ced1b45cd1193a439afd172251bafebdddfa10a98041f20f328f6567fd4fd07085b6628c82b80374e043d6deeea244e78931b35c536c11d22ef20281c452248a51fb92c1a92c79d068376639356cec17748ee7657ef68a82416766c5162a0689654bfc52a05071b222a34393c4150545b5e5f6983a3b4b5b9cc00080c1834353c417682858b959e9fa2c0cc0214232f313d3e5c646d6f939cadb6bacbd0d7f1f21621303c527d8387a5bac2d9e1eb00000000000015273c4a01fd210500c3ee8362d3af0d446f6a9c56fc7b21f3246abd60da5cde9e4add613ba0516ea95cdb84f171cb15a9a415e28f21341174671239bc42980a1db09873a25bae2376712792eb4dd3846d56a68a53c451c1aa4f25d40424e0bf64de92d2a916ddbe46dfa1af64620bb3fed5693241da0e84724804ca5f1a871e3d82c3c0c3257413628e478121b66d7646a0fc6a441149ffef52a2d43c79556a76179cfc77ddeaaf685ff24414d46bd3a7ae9397ed6b96c0ea475183d8b4d783c49fae472ceed083bb8a22eeb53f48fda1c48493362b4b2a25fa23b4417689be1c35e06444be322a1d9dfe19a9dc2b1dd2a7574a6b3c8aa2b3da179bda04fe10f9a48c98b3a54a1b810864b5435d5f920590618582e6170de5a5f3e573cbb50156c5d5836f0f9239e026f3aba09990e0d2e9a69be2e05d59f1fc3db3e3f5371edb76eeb02b3af7f11d0aa7badefb5b2700073c11202f85227b2534ee128f157ef1b5ce76714de02adb4a8cb94fe6ae8d7890ba25cabad82eecf5af2ccec33e11a0c71e30dc60aa7a93fa4c311edcb8b3a5318eadad819d4c6dc7aa06766648324893558e80dd7f41e0a92945e80f99d8fa558dc029c4ec34c5f1bb5de3617fe32f0c26890b0ceef8d51733d77e9616c7e9aa1ff5eee77559c456d04254b764dee3a54d8bb451cd06feb17d354e13b52574bb19e6c9fd1e8ff999eea155e1ef74080d63f3323277578f69d5090df2f90ffe380533e77346555ee51be90fd0fe57b298700a7f3d08d0d90b3b50a6738b81ae7033744f495eeaf6d77d9dd08bbe57536e06a1d13e881f36971579faa12ce5bc4b60fe2923431116d46a0eba1081ee2c27e8b8ac963f5a475f6493506bca62218cf43af34437df38bc3f6d54de01ab453dce938b409caf2bec04b80e97e8bce647990f7bf3038943d8bb945c67e4b9b91ba4fdcc9f17485f2517b7484955775b72333d20d0699225ee59d8f33481090f29fd8390657172688385baedb0def4cfe06feffb35df8bb440614a54e830ba952096327fb46a5fdde97dbfab10dc2644324c7d35f429cbfa1bc0a5d2d4b882eeb8e0e27dd7c70ee8032b9ca184a8bc244f281626492b16f920cdf3b3f84435031b6b565b24f7a074177d1c9ee6cc472010a0151e3a3e4f455a27507a5a67590a2e96042a0bf868c558512a2d0db1b80d355eebcad56c68e6ce52dffb49e8b48343fd5c94b31402c3df994c721cfe100e33426369fb5e025ed42b11430486ec3967b2eadd25b6e021a90fcdba08d9e4b40848c6fb2956c39d15efda92857b62bc8302669966e988b020f1d9bcc1fe7af77770e8a1157f30c51ba43941917f9363affa7b41592a0ca2de1d484325f947ca900ac19ed8529cfd31569929b0c5c1659199cbdd2fa87c3f8bf2a1682ad070f7c1e8cdbfe5515b3b98db6986d85122ddb59ce8e79ae663ef216b436913e7f7919a2d5bd87b557bf906d39f6f245078276e54c503bd2f147162f41991bd084651dbca6a30e4123a2f1954e260d98bf033898f7a4ca47cae700df3be19ee77a2d1e252d140c1b15e002226942560dedd01caa662f9ff8f70de4e77b8500da638ce422cb3dbd1de5e26f09a88ff09d08fc22cbcf13f646de8a19946cb4914b4eaa377f95540d4b3d777d864e11e54eef4e4f0319624a8e5c8a37ad8417da1b2ddb6f570860c4c6a9f670ae69dac8a578e22b20fbd4b3ffb729278e34f14ac8f2e61d2df1cb4b328ffa8c3667aa3eb61876a152c33588b5b527f01084c420c7c0248657b70fd630672c644c01cdfae65f23cbd7f9e3b0451d22cf22ad3e5eaade9b3f090be2452669133ce00b227535ad57237c5d301d358812467000000",
  "txid": "f90930e45a6f22e15d75d10c0311c5ebf99cd24b9b666127bb328c3da6b79dbc",
  "hash": "9b718ce9462e6a9050120ee59360d2d9acb6830c45ca980c70c7d4d62ad859dd",
  "size": 5085,
  "vsize": 2278,
  "version": 1,
  "locktime": 103,
  "vin": [
    {
      "txid": "0f75e72e598aee3759a356fe6e29337efea99dd95930db2b1d0c5e40d9ed67d4",
      "vout": 1,
      "scriptSig": {
        "asm": "",
        "hex": ""
      },
      "txinwitness": [
        "fad5a46afc8cc157c64a36a265c73baba6541535b9cc0956ee4b2dfdeb4ef386e0b0915c8d4a0e7e882ac87cee388529370ed20e7f78609e4a65970489424bb3c834e6204a6fd353cff855fc0565e59121e680c338fb2d20234da5b6e2b686540872b0775ed3c93947d1e8b07300d8cf2303bc8429afb7580a2e4a21f039976e6c4e62feb33166a8caca523c867820d425151ac880a6ec763d28a6a1259cb45a20da26e386d9064d57d543fff9d27484f11c5b45369627aab909513c9d0d36be3ad190e8d789118e156799f5b39f814ec56d3b4bb70a768ba3be05b0fe53a855366a4e4998a2c7a75cac73b6e116b5923a95d11a3ae81017f9ce72d223d1b1e61655195792ff7ca5511deae5ac5d1dcf925776c171176c4e836d5ce5c3b27775382e663f687033c77dc677c9f6c6fc20996e34f86f29c0f79fd7a12f14d9cb878f4823044d2532601ff6fe1f9270299ed9baf73e42d6a372da3accd7ab4757c1b54506a49b4c2566e2b6579eed0e10c11f361b19d8b02105700b06a082b70b18d08998b278785d21d441fa95df3499122aca4b1db079f384b360dc8df385a00a98a1581d98acc602ae3456f18fc682953ec98fc54baf8f7790ea62e442e32f5ee0b92332ff7b8eaf497bb99ba12d17d623f92a3d047c005ffd23b73b7e2c55cfa51d1bf42e74b3070811dd3033afdbcd32fe41b3cd65123fe5c18eba5316a129fa7a4a9df3ef59f26e4e3abe348ab7da6ae3b1601e5704cab020603608364623ec12abcdde06193c12039258d6a0bf86d426914cbfeea765ba97050720d88bffc6b946c53b35026c51efe412b1f91ef5ab7709321f31e0a349fd38e84da020332378f9a97586da20a38b8e51ed6bdc10bdbe28e89291bc3ff24c3c04f8890b39f21666f80bd2b67103294ddd8ef0979ee657542ea92a2d29854b4f4ad28a4b1817434c5681cab58ca18953d89e120d704f4cb9c860d1caefdeca2f7a4a48d312424d0125a21883f3f632ceaca4391304727c6d73b4e5f6acfb8d459f553b1c06e487a2fc559f642d4cfeecbd9054d284c3107b08be663a7f7f213aec2e0e2a04870812dee470263d18cb938072354c901701f73d79f335cb5ec5a1bc6babae99d7374ea64a72a57b6220ca0019c21ccfb6e8c6a411c268a1c8bd4cd2ba3f0ca767469cc93aeb4d7e6db25b0175abd815df708458538cb33cb66387295b66a141b9d190bbe4733bcfeac70a761063491131c9b49f77a7074b0e54445a1bf51581e69d7c59b1c290c5e561926cf5b6fb18984631bd57f73b6136b73492f4c8eeb438e3607555e11156c3ed1a8f7a3ba7d7bc413571db9447ee4a307b667bf074804a593a69cd50c4d4aaa0d2e6cb130247d0761c864cab5cef27db09834024cf4f681ad2425c35d119ef47902d6b375fb7b9cccbc1774066354909b7ebdf4888b4b6b8edca3d002d20ca47a3d52b18430fb588c34130051eaa60399629371df11997f12cae74373f34ab9987472f9431a090661362a775707e6d12227bfb864c09ad0375583b8d08913bfc6236b3696fea739dc20f1f6b3d7c6f1334910166e187b1cfd6c412c2b9ef525c7149e9c9e09d09aeefa2109cab368d897380a8d98e8ae437c4baa6cc45eb4abeca14d436ea8f6170af3b6e516f0e720be1b0ea1a7fe96cc730e7113c902c4571aa5b9580da236665b4faf7f57588182a355001e88cd5314ada26efe5af7528322d59d93852d51d029e839a32acd082af8c0b6f836b9e79e8e87216bba81e1c8997c65c618edbbbb7045ef07247f5fd6692e4bde2ac5a4bb42b2af565441099c7bb3de7d900e6a76d888d9498b9b779d1999778b3c280bc98fa90a42bc56f10ddbdeb1b490a3b984c94b3ec91a07e898e00f07b60baff66f42fc589b4f81de417477029cd04bada776290f9f6a089519845aaca11acd1231188f34ac65be4cd8c9e6fa684dafbf7ae0f16036be2642e236162e5c0816905b57457b8f4abf70be688cd8e325492e3edcce1b7a37eb2b476eaef4a44bd8ffcad81a30c76593e454280a4588d45b898692e062f50c5967cd9828618c6f7428f259b1b0c5bf0bead688168ca8ba97f59bb37c82e1a10e274245273d5d0b3c1119c1f9b3a523365348eeccb32b9e5c6d5df974c534cb73b6b91d15030247116ac25d4eacb464ad2e53cd9c735d9d51644ab2736370c90acaf6ba6935e8715476aee12f219bbd9f7803315e97df2ded7f839e46ba17299f2be319f1a73963dc7ef1b34d05c1944dce7795b8c726bb7461128793e64537964f019e2254153b14e1e691bf3813a7ee21ea9a33eb0cefeddf92fc26831c11fd21354f404fa405a497eee2f089967f8cdf72931413486a56f07bedf544617d0fdb95ea8991d76751118a3bc835770b7944afd4956fed198c1547966dc3347956b537419178edab8ad971b164174f28ebd93cc2edebf4d827e28b3be842d6c4a4529abba97f08fc0cf4afec349004fbd3de5eb4ae01443dfaac28ba3f2b4a8207d65e055417152637e329a6c1369fb428f33443c39d433ed2d7e95c20ba0851314eb7702e14ec04bdc847fe0282941630cdbdc5fc3ed01153bf9fab784817c853b4f3d53f265372d9793456295d00bb00249984829d08fa7e18a72106c0945951b1cb78790a0b9f412d6d613b6f4abbc0e5eb5fc46fe6be23b36c243968656469d451ce23b990d54487dcd982b5da9b04b742bd8097be3a7decd9d57965cf1ccd6e64030a49ebed9cf0f03db0adf16d15ac85e0c2fd88650390d41a00098eb8e08cc4f30253cad1da04a716b28d414270cdd62fa333aef3838ca0ea775748e0901988227bd9bae8b70d12fdc4a3d058d304380f2ed88b0ed502f8d22c77304cc1739b205913cdeada6d820ddf3e7e1e91ce55e97c76cf6b00479dd67c42a971bd348e1a489ed3321943c9aa4a251c64b95c6668525a40c1892088b49c8383a42f7f4687f3872bbce4c3068c3d881e9fae3017a949e4caf4788f8f1dde0fb06cb477e7dcdcedd96b3fb3e23db0570966b5552f2eed5850dce245310a706040742e24b4de0399765cc9baa29f973e74c75c4c907bff758b965fb9c5cab11505ebf1f27da2d700558bd58148a56387bfcda5f43548f9e9c6b3b090652193092c1611689def18ced1b45cd1193a439afd172251bafebdddfa10a98041f20f328f6567fd4fd07085b6628c82b80374e043d6deeea244e78931b35c536c11d22ef20281c452248a51fb92c1a92c79d068376639356cec17748ee7657ef68a82416766c5162a0689654bfc52a05071b222a34393c4150545b5e5f6983a3b4b5b9cc00080c1834353c417682858b959e9fa2c0cc0214232f313d3e5c646d6f939cadb6bacbd0d7f1f21621303c527d8387a5bac2d9e1eb00000000000015273c4a01",
        "00c3ee8362d3af0d446f6a9c56fc7b21f3246abd60da5cde9e4add613ba0516ea95cdb84f171cb15a9a415e28f21341174671239bc42980a1db09873a25bae2376712792eb4dd3846d56a68a53c451c1aa4f25d40424e0bf64de92d2a916ddbe46dfa1af64620bb3fed5693241da0e84724804ca5f1a871e3d82c3c0c3257413628e478121b66d7646a0fc6a441149ffef52a2d43c79556a76179cfc77ddeaaf685ff24414d46bd3a7ae9397ed6b96c0ea475183d8b4d783c49fae472ceed083bb8a22eeb53f48fda1c48493362b4b2a25fa23b4417689be1c35e06444be322a1d9dfe19a9dc2b1dd2a7574a6b3c8aa2b3da179bda04fe10f9a48c98b3a54a1b810864b5435d5f920590618582e6170de5a5f3e573cbb50156c5d5836f0f9239e026f3aba09990e0d2e9a69be2e05d59f1fc3db3e3f5371edb76eeb02b3af7f11d0aa7badefb5b2700073c11202f85227b2534ee128f157ef1b5ce76714de02adb4a8cb94fe6ae8d7890ba25cabad82eecf5af2ccec33e11a0c71e30dc60aa7a93fa4c311edcb8b3a5318eadad819d4c6dc7aa06766648324893558e80dd7f41e0a92945e80f99d8fa558dc029c4ec34c5f1bb5de3617fe32f0c26890b0ceef8d51733d77e9616c7e9aa1ff5eee77559c456d04254b764dee3a54d8bb451cd06feb17d354e13b52574bb19e6c9fd1e8ff999eea155e1ef74080d63f3323277578f69d5090df2f90ffe380533e77346555ee51be90fd0fe57b298700a7f3d08d0d90b3b50a6738b81ae7033744f495eeaf6d77d9dd08bbe57536e06a1d13e881f36971579faa12ce5bc4b60fe2923431116d46a0eba1081ee2c27e8b8ac963f5a475f6493506bca62218cf43af34437df38bc3f6d54de01ab453dce938b409caf2bec04b80e97e8bce647990f7bf3038943d8bb945c67e4b9b91ba4fdcc9f17485f2517b7484955775b72333d20d0699225ee59d8f33481090f29fd8390657172688385baedb0def4cfe06feffb35df8bb440614a54e830ba952096327fb46a5fdde97dbfab10dc2644324c7d35f429cbfa1bc0a5d2d4b882eeb8e0e27dd7c70ee8032b9ca184a8bc244f281626492b16f920cdf3b3f84435031b6b565b24f7a074177d1c9ee6cc472010a0151e3a3e4f455a27507a5a67590a2e96042a0bf868c558512a2d0db1b80d355eebcad56c68e6ce52dffb49e8b48343fd5c94b31402c3df994c721cfe100e33426369fb5e025ed42b11430486ec3967b2eadd25b6e021a90fcdba08d9e4b40848c6fb2956c39d15efda92857b62bc8302669966e988b020f1d9bcc1fe7af77770e8a1157f30c51ba43941917f9363affa7b41592a0ca2de1d484325f947ca900ac19ed8529cfd31569929b0c5c1659199cbdd2fa87c3f8bf2a1682ad070f7c1e8cdbfe5515b3b98db6986d85122ddb59ce8e79ae663ef216b436913e7f7919a2d5bd87b557bf906d39f6f245078276e54c503bd2f147162f41991bd084651dbca6a30e4123a2f1954e260d98bf033898f7a4ca47cae700df3be19ee77a2d1e252d140c1b15e002226942560dedd01caa662f9ff8f70de4e77b8500da638ce422cb3dbd1de5e26f09a88ff09d08fc22cbcf13f646de8a19946cb4914b4eaa377f95540d4b3d777d864e11e54eef4e4f0319624a8e5c8a37ad8417da1b2ddb6f570860c4c6a9f670ae69dac8a578e22b20fbd4b3ffb729278e34f14ac8f2e61d2df1cb4b328ffa8c3667aa3eb61876a152c33588b5b527f01084c420c7c0248657b70fd630672c644c01cdfae65f23cbd7f9e3b0451d22cf22ad3e5eaade9b3f090be2452669133ce00b227535ad57237c5d301d3588124"
      ],
      "sequence": 4294967294
    }
  ],
  "vout": [
    {
      "value": 499997.9662,
      "n": 0,
      "scriptPubKey": {
        "asm": "1 c52034667f505540ef776debf050a50527705734027af7ab0cc19f4c4aa5d5a1",
        "hex": "5120c52034667f505540ef776debf050a50527705734027af7ab0cc19f4c4aa5d5a1",
        "reqSigs": 1,
        "type": "witness_v1_scripthash",
        "addresses": [
          "3QJmnh"
        ]
      }
    },
    {
      "value": 1.0,
      "n": 1,
      "scriptPubKey": {
        "asm": "OP_RETURN 00abdc77cb11fe37e9dff9a0db1d040809b27b4fd0f41ef832ce2853d711fcc8 ea12a6669c8cba170c8200ba40ba2a4240a6536b1e80465d969e107bc0cabcabca328646bcac9a372ca2209a609a0a626086734b3ea0667db6be305be0ea9c8baa52e626dcccfa574cc240fa00fa6a0200e6132b5ec0061dd6de503b808afceb8a72c606fcecda776ce260da20da4a2220c6330b7ee0263df6fe701ba0aadccb6a9226e61c0c3a978c02803ac03aaac2c026d3eb9e00c6dd161e90fb404a3c2b4ab206c63c2c1ab7ac22a01ae01a8ae2e006f3cbbe20e6fd363eb0db606a1c0b2ad266a65c4c7ad7cc42c07a807aea82806693abde40869d565ed0bb000a7c6b0af246867c6c5af7ec62e05aa05acaa2a046b38bfe60a6bd767ef09b202a5c4bea12a6669c8cba170c8200ba40ba2a4240a6536b1e80465d969e107bc0cabcabca328646bcac9a372ca2209a609a0a626086734b3ea0667db6be305be0ea9c8baa52e626dcccfa574cc240fa00fa6a0200e6132b5ec0061dd6de503b808afceb8a72c606fcecda776ce260da20da4a2220c6330b7ee0263df6fe701ba0aadccb6a9226e61c0c3a978c02803ac03aaac2c026d3eb9e00c6dd161e90fb404a3c2b4ab206c63c2c1ab7ac22a01ae01a8ae2e006f3cbbe20e6fd363eb0db606a1c0b2ad266a65c4c7ad7cc42c07a807aea82806693abde40869d565ed0bb000a7c6b0af246867c6c5af7ec62e05aa05acaa2a046b38bfe60a6bd767ef09b202a5c4bea12a6669c8cba170c8200ba40ba2a4240a6536b1e80465d969e107bc0cabcabca328646bcac9a372ca2209a609a0a626086734b3ea0667db6be305be0ea9c8baa52e626dcccfa574cc240fa00fa6a0200e6132b5ec0061dd6de503b808afceb8a72c606fcecda776ce260da20da4a2220c6330b7ee0263df6fe701ba0aadccb6a9226e61c0c3a978c02803ac03aaac2c026d3eb9e00c6dd161e90fb404a3c2b4ab206c63c2c1ab7ac22a01ae01a8ae2e006f3cbbe20e6fd363eb0db606a1c0b2ad266a65c4c7ad7cc42c07a807aea82806693abde40869d565ed0bb000a7c6b0af246867c6c5af7ec62e05aa05acaa2a046b38bfe60a6bd767ef09b202a5c4bea12a6669c8cba170c8200ba40ba2a4240a6536b1e80465d969e107bc0cabcabca328646bcac9a372ca2209a609a0a626086734b3ea0667db6be305be0ea9c8baa52e626dcccfa574cc240fa00fa6a0200e6132b5ec0061dd6de503b808afceb8a72c606fcecda776ce260da20da4a2220c6330b7ee0263df6fe701ba0aadccb6a9226e61c0c3a978c02803ac03aaac2c026d3eb9e00c6dd161e90fb404a3c2b4ab206c63c2c1ab7ac22a01ae01a8ae2e006f3cbbe20e6fd363eb0db606a1c0b2ad266a65c4c7ad7cc42c07a807aea82806693abde40869d565ed0bb000a7c6b0af246867c6c5af7ec62e05aa05acaa2a046b38bfe60a6bd767ef09b202a5c4bea12a6669c8cba170c8200ba40ba2a4240a6536b1e80465d969e107bc0cabcabca328646bcac9a372ca2209a609a0a626086734b3ea0667db6be305be0ea9c8baa52e626dcccfa574cc240fa00fa6a0200e6132b5ec0061dd6de503b808afceb8a72c606fcecda776ce260da20da4a2220c6330b7ee0263df6fe701ba0aadccb6a9226e61c0c3a978c02803ac03aaac287ecaa52e6b1311f790473af92b5126076215aa84e609c35a668876beb949461",
        "hex": "6a2000abdc77cb11fe37e9dff9a0db1d040809b27b4fd0f41ef832ce2853d711fcc84db004ea12a6669c8cba170c8200ba40ba2a4240a6536b1e80465d969e107bc0cabcabca328646bcac9a372ca2209a609a0a626086734b3ea0667db6be305be0ea9c8baa52e626dcccfa574cc240fa00fa6a0200e6132b5ec0061dd6de503b808afceb8a72c606fcecda776ce260da20da4a2220c6330b7ee0263df6fe701ba0aadccb6a9226e61c0c3a978c02803ac03aaac2c026d3eb9e00c6dd161e90fb404a3c2b4ab206c63c2c1ab7ac22a01ae01a8ae2e006f3cbbe20e6fd363eb0db606a1c0b2ad266a65c4c7ad7cc42c07a807aea82806693abde40869d565ed0bb000a7c6b0af246867c6c5af7ec62e05aa05acaa2a046b38bfe60a6bd767ef09b202a5c4bea12a6669c8cba170c8200ba40ba2a4240a6536b1e80465d969e107bc0cabcabca328646bcac9a372ca2209a609a0a626086734b3ea0667db6be305be0ea9c8baa52e626dcccfa574cc240fa00fa6a0200e6132b5ec0061dd6de503b808afceb8a72c606fcecda776ce260da20da4a2220c6330b7ee0263df6fe701ba0aadccb6a9226e61c0c3a978c02803ac03aaac2c026d3eb9e00c6dd161e90fb404a3c2b4ab206c63c2c1ab7ac22a01ae01a8ae2e006f3cbbe20e6fd363eb0db606a1c0b2ad266a65c4c7ad7cc42c07a807aea82806693abde40869d565ed0bb000a7c6b0af246867c6c5af7ec62e05aa05acaa2a046b38bfe60a6bd767ef09b202a5c4bea12a6669c8cba170c8200ba40ba2a4240a6536b1e80465d969e107bc0cabcabca328646bcac9a372ca2209a609a0a626086734b3ea0667db6be305be0ea9c8baa52e626dcccfa574cc240fa00fa6a0200e6132b5ec0061dd6de503b808afceb8a72c606fcecda776ce260da20da4a2220c6330b7ee0263df6fe701ba0aadccb6a9226e61c0c3a978c02803ac03aaac2c026d3eb9e00c6dd161e90fb404a3c2b4ab206c63c2c1ab7ac22a01ae01a8ae2e006f3cbbe20e6fd363eb0db606a1c0b2ad266a65c4c7ad7cc42c07a807aea82806693abde40869d565ed0bb000a7c6b0af246867c6c5af7ec62e05aa05acaa2a046b38bfe60a6bd767ef09b202a5c4bea12a6669c8cba170c8200ba40ba2a4240a6536b1e80465d969e107bc0cabcabca328646bcac9a372ca2209a609a0a626086734b3ea0667db6be305be0ea9c8baa52e626dcccfa574cc240fa00fa6a0200e6132b5ec0061dd6de503b808afceb8a72c606fcecda776ce260da20da4a2220c6330b7ee0263df6fe701ba0aadccb6a9226e61c0c3a978c02803ac03aaac2c026d3eb9e00c6dd161e90fb404a3c2b4ab206c63c2c1ab7ac22a01ae01a8ae2e006f3cbbe20e6fd363eb0db606a1c0b2ad266a65c4c7ad7cc42c07a807aea82806693abde40869d565ed0bb000a7c6b0af246867c6c5af7ec62e05aa05acaa2a046b38bfe60a6bd767ef09b202a5c4bea12a6669c8cba170c8200ba40ba2a4240a6536b1e80465d969e107bc0cabcabca328646bcac9a372ca2209a609a0a626086734b3ea0667db6be305be0ea9c8baa52e626dcccfa574cc240fa00fa6a0200e6132b5ec0061dd6de503b808afceb8a72c606fcecda776ce260da20da4a2220c6330b7ee0263df6fe701ba0aadccb6a9226e61c0c3a978c02803ac03aaac287ecaa52e6b1311f790473af92b5126076215aa84e609c35a668876beb949461",
        "type": "nulldata"
      }
    }
  ],
  "blockhash": "15af9b025c636b87e0a10c18a1a8de0e5f3c2069ad563b293161176d75df89a4",
  "confirmations": 1,
  "time": 1764174659,
  "blocktime": 1764174659
}