{
  "hex": "0100000000010103dbdd5f7eebb55503b01f1c433b75b161e3e355a81707f2efbd13469a13ba3d0000000000feffffff0200e1f50500000000fdd5046a20b6f9e4ba5020e829a8f7229c4bcfad962b7c973090a3bb65a2971eb6ff77a4af4db004ab462d4b4daef205e23515df907dad26d6006a1b7293885926174e9bf0edacd38b660d6b6d8ed225c21535ffb05d8d06f6204a3b52b3a87906376ebbd0cd8cf3eb066d0b0deeb245a275559fd03ded6696402a5b32d3c81966570edbb0adec93cb264d2b2dce9265825575bff01dcd46b6600a7b12f3e83946772efb908dccb32bc6adcbcd2e728562b5955f10fd2da65680ea9bf21308d9a697ce1b706d2c530be68debed0e52a54295b57f30dd0d8676a0cabbd23328f986b7ee3b504d0c736b86ed8b8d6e32c522f5d51f50bd6de616c0aadbb2534899e6d78e5b302d6c134ba6cdabad4e12e502d5f53f709d4dc636e08afb927368b9c6f7ae7b100d4c33ab462d4b4daef205e23515df907dad26d6006a1b7293885926174e9bf0edacd38b660d6b6d8ed225c21535ffb05d8d06f6204a3b52b3a87906376ebbd0cd8cf3eb066d0b0deeb245a275559fd03ded6696402a5b32d3c81966570edbb0adec93cb264d2b2dce9265825575bff01dcd46b6600a7b12f3e83946772efb908dccb32bc6adcbcd2e728562b5955f10fd2da65680ea9bf21308d9a697ce1b706d2c530be68debed0e52a54295b57f30dd0d8676a0cabbd23328f986b7ee3b504d0c736b86ed8b8d6e32c522f5d51f50bd6de616c0aadbb2534899e6d78e5b302d6c134ba6cdabad4e12e502d5f53f709d4dc636e08afb927368b9c6f7ae7b100d4c33ab462d4b4daef205e23515df907dad26d6006a1b7293885926174e9bf0edacd38b660d6b6d8ed225c21535ffb05d8d06f6204a3b52b3a87906376ebbd0cd8cf3eb066d0b0deeb245a275559fd03ded6696402a5b32d3c81966570edbb0adec93cb264d2b2dce9265825575bff01dcd46b6600a7b12f3e83946772efb908dccb32bc6adcbcd2e728562b5955f10fd2da65680ea9bf21308d9a697ce1b706d2c530be68debed0e52a54295b57f30dd0d8676a0cabbd23328f986b7ee3b504d0c736b86ed8b8d6e32c522f5d51f50bd6de616c0aadbb2534899e6d78e5b302d6c134ba6cdabad4e12e502d5f53f709d4dc636e08afb927368b9c6f7ae7b100d4c33ab462d4b4daef205e23515df907dad26d6006a1b7293885926174e9bf0edacd38b660d6b6d8ed225c21535ffb05d8d06f6204a3b52b3a87906376ebbd0cd8cf3eb066d0b0deeb245a275559fd03ded6696402a5b32d3c81966570edbb0adec93cb264d2b2dce9265825575bff01dcd46b6600a7b12f3e83946772efb908dccb32bc6adcbcd2e728562b5955f10fd2da65680ea9bf21308d9a697ce1b706d2c530be68debed0e52a54295b57f30dd0d8676a0cabbd23328f986b7ee3b504d0c736b86ed8b8d6e32c522f5d51f50bd6de616c0aadbb2534899e6d78e5b302d6c134ba6cdabad4e12e502d5f53f709d4dc636e08afb927368b9c6f7ae7b100d4c33ab462d4b4daef205e23515df907dad26d6006a1b7293885926174e9bf0edacd38b660d6b6d8ed225c21535ffb05d8d06f6204a3b52b3a87906376ebbd0cd8cf3eb066d0b0deeb245a275559fd03ded6696402a5b32d3c81966570edbb0adec93cb264d2b2dce9265825575bff01dcd46b6600a7b12f3e83946772efb908dccb32bc6adcbcd2e728562b5955f10fd2da67dbfe312f4b6d5b3f2af8673ebb443d6e3312f5b84eea1b6d00fdcd0c14e520fb0cd76d8782d0000225120814efcbbbee12d5ea8344883e116f11aeda8e044b4d7b891baa2783a60ca690f02fd750913973323823719dd26b1b53cd7deeb1d8dc7d335a9bc88f3014ce72bc97c32ee03fbd1355120d539e8999b42276f57eca63b95475a6b98512898627ff117cf9f0adea1db5df4dfd1fb16a33fda42ad8ecd789c188e7db6dff8edfac4ae5189c78d4ef9271b2f32a49548a51d362db4ca54f63c8c195299fd07a6e79e7b02b47c19ec89fe613ab1f5ef196e0479c452a4001699abf031acc659c819da227b49ec5e8d87596f517099dada9640dac499609d6a9b94e84fe9043d13f61b09c45729d832e9e87138126dabfa6881cded349fede8f374bb9641011e9e25a9e37e1f95b35c7474f7882b63739c0b2da92f50289efa03ed1077bb2ddacd1e0f86bc4dae872e553ac2a54dfc03a464e85d523c495a11cfa5b93a0c12482037ed95e6a9e72f3b66cb4a15fc6858fdcc7e6406c663e8284d6c4700e4f52d6e1b69a39e1529ef97d04f6334f57cbf3ac30fdc67759f2da3d07068da53662816d4d38e688d633fdf3d26c8bd2c9c139e2b80e30ac8b5fe1a471855185dd89f1c792934b124220126dde945d8f8e2c7c73d8c63d838833c9eda4eb613b9669fbb02b6e95695b57fac761780a5d6621175df584a1456ce0f36f42d192733f225ff721e9f445f5b96a4e80e92b3db97f617ebc9644332607b06061a3404b297bb62ba5e367129dfbf5772773603889397f582f8de165bb606586044c5e02ddcde39d468e1e2d6fdadddcabe6d184640fe0bebd2bfad58878d751004244a3d1f31aa11098742cb5e3e8223cca0321c4de28673b8c085ce00ab8e31a55374a9a2537d78fe664f4c907c791cee2399010940a35d332aca4127b17faa59313027fc1685c87851773bfdbc1db9a0e75ab3398f1ea85036a4f91cf7cb58542cc5fb6117d36c11c855000988b93f3ce5a10a2bdb61817d15ff8f802689e374a17705771cffe9783f8762a13c032a1f735cc264d95b318fefd73c7498c7fb96cb9bbf6292fa60b9d7da629c0dac98c46a48db044f2f853339a572f9f237d253c8cf6fe2bd88c2655a8c9947027dc09a4faf88cb99567dc1317bc3d9bf29f1c2f8b001f041e1b7ab6e32ed7e25ed2f5c84e446bd6a16cb08d21f5ab1c204fe84695767b99e0576ae124f365a0819b5ed7326538e7f1954aea61ba10dfb6673c635836d294924b593bfdead7eeee9230d81ea6561732ba4582146fa051f4a5011095b868cbe2ce7e41cf94ab13d671e7790dca9eece9c647585cc9c480dfc267fc826d36fd6b217e4f92a971f2132c4246993f8fb6442b53edf3e9af63b17c648fbc81d7e8eb92eb29aa9544825ee29ee480df17fcb5a7a8feb84b920a45a023eeb044b4c2f140d7fa58efb70f4a9a361bf1b080b8575d6364a220c50939755599c2b670c7375ae0f55bede0f1d84065a88c047576a626e5d0638c46e0cc76188fca64fd68442b760a59fb3cb1eb5aad34bcd750400bb3bc8312fdf4aaf7449d94ab9f5e381f1c4d242c02f13aa2b0e82ab0fddfe2975b519ce666ccda0601db5e03773059d110d9b80d57c6de86cb5b8be613d82db5a2e18a7d87d7c4af5925abb46ce6be380df4fc48a91814d4181f0454f6ad1befce404abb80f69fbd161e2bd89df9e89a011f1d24ec6fdc7e4a665660bf741204d58fd0428e2655ab5c26066fabe10a9f80ef013e28edc9b9d8b140451e13d370f229f096d328c56c0cdddd288d3be6778012280abf4c5d024d5cfb03400b9ed8b0b8435f65ffc80a920aee00feae547e3c54dfcd3d56585014c0a264b0cc9d3e21b2c76f022dbc78e06b3d9b534ca7908d6563840ee953d6d2177c40dbe32a10b00de68f834928b3bec2917dc05679fcd79b87c6cd80b4fc4a9bbc6cbcc26f51a2f9068a68d2f44563a69e3a1f2ac44847b0127ae2161a8448c3248f578007539528292684a1611c93cbbf0bfaa5ee418b73c3257d684c276c513f7f735226482c690748b2dc58be900f276b747ef2e4e47459460800fc11071409155a1eff795fa19b5a3d64db615c7d3de5ef27eabde4472431ac82efcebb0acace496c67775354619c0f66ada4aacfe52b116c1d215f15cffa6842a664557d6e0c0dc6b79f845fb9e4bcd8b22d2efcc4348b72b25901c7d31691871ab57d37cff14e6f0ba4cc58dc902b423b8a5f4eeb3da2a84bd8913efdd29b87a2e6a693654aeadf48fc7353d7c5b64a7990eca41f274fc49e76fa60eaed308ed5a4bbcccb0438a982a31e87a31758f3d14409c42ccee77552bc8d12f5487a1c0e38b69647d55543a1a255cb07913d009758583df21d3b4e766db1336d22290f60be2fb9d56ec09ce19725d8a4972aca0e42639e500be1f7bd7bd860044a53abe40ea09c791cc34f75ad88bcfe8b2d52fbb1b62a9abc14917d09fc5defd55539ee525eb0363582b3c727adeeea07fc638b220516c39f976cbe93d3d31747e1693b48421903fcdc87f2fc271846a2ee8914f9ecb27d74ed1fc3d43dd04d7e95ff84a35db986627525209afa0d289f0267878a4e9201d4f7e6fd5b84b78fd7955c262aacc45f258010b3565935276e42fc5399adc07123e9291b7e07616e2ec59e08a01f37f801dd0866e0576ca6d089d27d4eebba6ccf88e10825f9d30f57f25de85022a4a8080f511f8e702888b324067bb50045a840942585e3d0ab5681839159eb641f7692672ae553e1809528ac5da1c78b1e3b5940058dc0853b92ffbd3a2124e1aa4c7abe3fd251e626e40abaa4675110edc009167cd432ed42c0f0fda7d9cf8c7b72397feb1fdb23b44eeab2cb1b16801d3363f63fca727cb07b24bde97112e7d82c40be417338ebd56f38d039b2465a7565941d28968e5ab3afdcc833be59d0c2d878bfa5fed620e70db02d6ece8896f4d5aeb7c69a3a4a5f426e679b9a24901a774e8bab0e3ee7cde94ea034d8b9d94e691a896a20ad6b95e440544b171bf0c8f9cbad21ffd7f86d85b4cba48efb1d967f36cc2ce417d97a1c8be66629a1d1a631a922f06a28988296eeb7fdb6d369b02bab1dbb77c2b409f263577fb719bcd8ef768028fd737e5cd0d91509c29fe8f318627e1be55b0a6ea9d7bed1ea8c196ad173951a5765ca595ae40aab0e5139888fe25c25146eff168a94341c92949c5e0c48c6c0304b821f5d765aa30e43ab2fa42183c40c1b52c09a0a0f7a2130a00d17ce23c6000024b07535a21e3cad793ef4ab2b29a543b45a090860131daf17e0acf1bb8920b198fca570ca44fb91990dd7b03df70a2154449dfa61d6f5b55b28df9d1d2112b8030dd6b124f66f074e0f99a6b535fcfd460bbaeb2f3df1243505b607b7c87acadb0bec5d0dae3e9fe035c5e6a6b6f8e9ea9d2071b254c57707177878c9aaeb2c3d2e4e8ecf6f8fdfe0d1f4047626774757c8391a2a3b3b8bec9d2e2e9ea000000000000000000121c324701fd21050059031f9e826064db42b5641e5c93de232814cb52341dff6c69c12bd734be8bd2c0b1c09a54501ad6378233570837b99984b247d052b14b383c2d2c3e885a1267c5fdf7e994326dabc484dcfb06dd34583ecee004de61a502cb6f388034c5e4e0b72178393bcebde1cef35a529523e21b99d3f5119340729b6759fb73020739e0a06e5056d2a1e09d9bba22b3314dea7995a64e87b641440a6972850b710da6e73be8df0bebe333aa133bbf3ba9cee6061ccb307815a738a8253eb17d09e670556ff156af3db9b4c0f655a919f84aee65835319b1b72f51fbd4d79d1501e3091c0340c6e4409bd3928fd7853e2a67cb991a182ef69732fddc91913615145f69ade9b36f2ef23b1db1055e875077cc7e8264b55acd96aa77991863434526f49dac4e5c21e0938d0d2a8e2f1e2510ab4346d432fc87edd45fb6ba72d97c888588adfbe73ac1a9d32e2a47cc1120f641925f558da473f01a3227b5c787633693227e4542bc94edb0a84444c11969f8034c0a460dd1fa6905a34f6209e7420d04ba195453899a0924b64ea0eb3b943d1f275932489ef1ef30a0e6ebfc7ef5a063b9905415c332159ea9a6e9023f3d9ca33e3b4d048719ba40ea6e52bd4978812b3f77900163263751caf20b9f8789c328a11a71d0394a9694d42bca8ba1fcb1af7076cb5317c5cb8ffecb80a55365ec9589b8fb60c1c711f8a6b36de41c46a6a06b967bea2fae56570ae8c40dcb5ec529e445ad6d2677c1d227593e502da042b4ea045b8b7f926f54a944e373552bde43f77dbd062aa7c8537e1afd5d5b1fccff270a4999ec029db0817ff1ebf8517cae06b630a7e172ae278dbe2a904e8e3d15cc5e8462dcef4833a99e97dbb20055178f0c711044570fafca2457060436a04c53a62a187e88bccd8b56337fa7c93a7622e2fb1015a54bd7dbf2d57e874a8c84a73593f42de2f2ddd8e3a2d90884e389074fd37e50a5b16fbd4cdc8d86aef0ed8f4fb6bd173382caaf30a5c0f5281047f808195bc0e628482603b51278aaa595b0062ead2c1c6bbc3f9d0570b082be15060c584d81a4e6c7a06165b98ff7b1aa6377f20a47aa9c6df877b99fd028190f55a75ae8b7fe0fd01d48d6b8d16673082c812899f9691cbfc36c1755f923adb2b442840f636b0777e2f1a41b1f5d6c1dd7ed114601e7730048e3535454e7cd6ab6af6f7e14d72d2976f893f6b963bed26bafd04808671de7b0f6c7b8b2254609d4a93e10fee890a291a1670ad9d82d2217125caec86ad18be844ef171094c80708f24fbd0f9578222a906d2bc9ecd3954ed9b8519ec4810a9f3127543469087362068864698d343ae344dcc7459f8e8a8d2bf52c2641408a82cec2a7af7fda7134d86154535603c28aae8cf8fb25c2f38aacfd6ef38ccc0567c26a0b4a7705da113323b0c03c938dc6ffa7634b6057c21ad54916b91d4df6b7607d72f7b1db3b0a55f9395ec98d8f0082ccdf5e7962995c38378794c4cad88b9565a0c71d2d3d0c7890e835dbc981ddce63b4a513842baf9d85e1142cf373bb11e3b1acaac8607824d5ae69ec6e8aebe10ced7aab051e738b8f90bafd19ab134b68a52f44dce3577644ae8aae81cdff7077c43007daa8864ce461be35bb711ff3e450981972d2815d84b808138f0dd4fd709715c1b452ec1ace2976215e66a7e3d9187239e64f4f5814ecffdd4af71baee90742060fbda46e2465c1439dfdf6e12f66bf9641330f07869deb47faf98975bc27eb443f141486f93a84075845de4a4f9bec3b36e9239047045813dd2c1aa5cd10bf4da4689519f1b6d8e96c4dfc0f71f9a8297f7ac82eed644c04840b3e396a7245edf17025f085000000",
  "txid": "f2f6fa0313c280b0dce9b93baf155c194689d572d9642816e05af038066164a6",
  "hash": "3a9089b0b6025e9f533c467e85efdce4924e878189778a9e5d3ea40a214a430f",
  "size": 5085,
  "vsize": 2278,
  "version": 1,
  "locktime": 133,
  "vin": [
    {
      "txid": "3dba139a4613bdeff20717a855e3e361b1753b431c1fb00355b5eb7e5fdddb03",
      "vout": 0,
      "scriptSig": {
        "asm": "",
        "hex": ""
      },
      "txinwitness": [
        "13973323823719dd26b1b53cd7deeb1d8dc7d335a9bc88f3014ce72bc97c32ee03fbd1355120d539e8999b42276f57eca63b95475a6b98512898627ff117cf9f0adea1db5df4dfd1fb16a33fda42ad8ecd789c188e7db6dff8edfac4ae5189c78d4ef9271b2f32a49548a51d362db4ca54f63c8c195299fd07a6e79e7b02b47c19ec89fe613ab1f5ef196e0479c452a4001699abf031acc659c819da227b49ec5e8d87596f517099dada9640dac499609d6a9b94e84fe9043d13f61b09c45729d832e9e87138126dabfa6881cded349fede8f374bb9641011e9e25a9e37e1f95b35c7474f7882b63739c0b2da92f50289efa03ed1077bb2ddacd1e0f86bc4dae872e553ac2a54dfc03a464e85d523c495a11cfa5b93a0c12482037ed95e6a9e72f3b66cb4a15fc6858fdcc7e6406c663e8284d6c4700e4f52d6e1b69a39e1529ef97d04f6334f57cbf3ac30fdc67759f2da3d07068da53662816d4d38e688d633fdf3d26c8bd2c9c139e2b80e30ac8b5fe1a471855185dd89f1c792934b124220126dde945d8f8e2c7c73d8c63d838833c9eda4eb613b9669fbb02b6e95695b57fac761780a5d6621175df584a1456ce0f36f42d192733f225ff721e9f445f5b96a4e80e92b3db97f617ebc9644332607b06061a3404b297bb62ba5e367129dfbf5772773603889397f582f8de165bb606586044c5e02ddcde39d468e1e2d6fdadddcabe6d184640fe0bebd2bfad58878d751004244a3d1f31aa11098742cb5e3e8223cca0321c4de28673b8c085ce00ab8e31a55374a9a2537d78fe664f4c907c791cee2399010940a35d332aca4127b17faa59313027fc1685c87851773bfdbc1db9a0e75ab3398f1ea85036a4f91cf7cb58542cc5fb6117d36c11c855000988b93f3ce5a10a2bdb61817d15ff8f802689e374a17705771cffe9783f8762a13c032a1f735cc264d95b318fefd73c7498c7fb96cb9bbf6292fa60b9d7da629c0dac98c46a48db044f2f853339a572f9f237d253c8cf6fe2bd88c2655a8c9947027dc09a4faf88cb99567dc1317bc3d9bf29f1c2f8b001f041e1b7ab6e32ed7e25ed2f5c84e446bd6a16cb08d21f5ab1c204fe84695767b99e0576ae124f365a0819b5ed7326538e7f1954aea61ba10dfb6673c635836d294924b593bfdead7eeee9230d81ea6561732ba4582146fa051f4a5011095b868cbe2ce7e41cf94ab13d671e7790dca9eece9c647585cc9c480dfc267fc826d36fd6b217e4f92a971f2132c4246993f8fb6442b53edf3e9af63b17c648fbc81d7e8eb92eb29aa9544825ee29ee480df17fcb5a7a8feb84b920a45a023eeb044b4c2f140d7fa58efb70f4a9a361bf1b080b8575d6364a220c50939755599c2b670c7375ae0f55bede0f1d84065a88c047576a626e5d0638c46e0cc76188fca64fd68442b760a59fb3cb1eb5aad34bcd750400bb3bc8312fdf4aaf7449d94ab9f5e381f1c4d242c02f13aa2b0e82ab0fddfe2975b519ce666ccda0601db5e03773059d110d9b80d57c6de86cb5b8be613d82db5a2e18a7d87d7c4af5925abb46ce6be380df4fc48a91814d4181f0454f6ad1befce404abb80f69fbd161e2bd89df9e89a011f1d24ec6fdc7e4a665660bf741204d58fd0428e2655ab5c26066fabe10a9f80ef013e28edc9b9d8b140451e13d370f229f096d328c56c0cdddd288d3be6778012280abf4c5d024d5cfb03400b9ed8b0b8435f65ffc80a920aee00feae547e3c54dfcd3d56585014c0a264b0cc9d3e21b2c76f022dbc78e06b3d9b534ca7908d6563840ee953d6d2177c40dbe32a10b00de68f834928b3bec2917dc05679fcd79b87c6cd80b4fc4a9bbc6cbcc26f51a2f9068a68d2f44563a69e3a1f2ac44847b0127ae2161a8448c3248f578007539528292684a1611c93cbbf0bfaa5ee418b73c3257d684c276c513f7f735226482c690748b2dc58be900f276b747ef2e4e47459460800fc11071409155a1eff795fa19b5a3d64db615c7d3de5ef27eabde4472431ac82efcebb0acace496c67775354619c0f66ada4aacfe52b116c1d215f15cffa6842a664557d6e0c0dc6b79f845fb9e4bcd8b22d2efcc4348b72b25901c7d31691871ab57d37cff14e6f0ba4cc58dc902b423b8a5f4eeb3da2a84bd8913efdd29b87a2e6a693654aeadf48fc7353d7c5b64a7990eca41f274fc49e76fa60eaed308ed5a4bbcccb0438a982a31e87a31758f3d14409c42ccee77552bc8d12f5487a1c0e38b69647d55543a1a255cb07913d009758583df21d3b4e766db1336d22290f60be2fb9d56ec09ce19725d8a4972aca0e42639e500be1f7bd7bd860044a53abe40ea09c791cc34f75ad88bcfe8b2d52fbb1b62a9abc14917d09fc5defd55539ee525eb0363582b3c727adeeea07fc638b220516c39f976cbe93d3d31747e1693b48421903fcdc87f2fc271846a2ee8914f9ecb27d74ed1fc3d43dd04d7e95ff84a35db986627525209afa0d289f0267878a4e9201d4f7e6fd5b84b78fd7955c262aacc45f258010b3565935276e42fc5399adc07123e9291b7e07616e2ec59e08a01f37f801dd0866e0576ca6d089d27d4eebba6ccf88e10825f9d30f57f25de85022a4a8080f511f8e702888b324067bb50045a840942585e3d0ab5681839159eb641f7692672ae553e1809528ac5da1c78b1e3b5940058dc0853b92ffbd3a2124e1aa4c7abe3fd251e626e40abaa4675110edc009167cd432ed42c0f0fda7d9cf8c7b72397feb1fdb23b44eeab2cb1b16801d3363f63fca727cb07b24bde97112e7d82c40be417338ebd56f38d039b2465a7565941d28968e5ab3afdcc833be59d0c2d878bfa5fed620e70db02d6ece8896f4d5aeb7c69a3a4a5f426e679b9a24901a774e8bab0e3ee7cde94ea034d8b9d94e691a896a20ad6b95e440544b171bf0c8f9cbad21ffd7f86d85b4cba48efb1d967f36cc2ce417d97a1c8be66629a1d1a631a922f06a28988296eeb7fdb6d369b02bab1dbb77c2b409f263577fb719bcd8ef768028fd737e5cd0d91509c29fe8f318627e1be55b0a6ea9d7bed1ea8c196ad173951a5765ca595ae40aab0e5139888fe25c25146eff168a94341c92949c5e0c48c6c0304b821f5d765aa30e43ab2fa42183c40c1b52c09a0a0f7a2130a00d17ce23c6000024b07535a21e3cad793ef4ab2b29a543b45a090860131daf17e0acf1bb8920b198fca570ca44fb91990dd7b03df70a2154449dfa61d6f5b55b28df9d1d2112b8030dd6b124f66f074e0f99a6b535fcfd460bbaeb2f3df1243505b607b7c87acadb0bec5d0dae3e9fe035c5e6a6b6f8e9ea9d2071b254c57707177878c9aaeb2c3d2e4e8ecf6f8fdfe0d1f4047626774757c8391a2a3b3b8bec9d2e2e9ea000000000000000000121c324701",
        "0059031f9e826064db42b5641e5c93de232814cb52341dff6c69c12bd734be8bd2c0b1c09a54501ad6378233570837b99984b247d052b14b383c2d2c3e885a1267c5fdf7e994326dabc484dcfb06dd34583ecee004de61a502cb6f388034c5e4e0b72178393bcebde1cef35a529523e21b99d3f5119340729b6759fb73020739e0a06e5056d2a1e09d9bba22b3314dea7995a64e87b641440a6972850b710da6e73be8df0bebe333aa133bbf3ba9cee6061ccb307815a738a8253eb17d09e670556ff156af3db9b4c0f655a919f84aee65835319b1b72f51fbd4d79d1501e3091c0340c6e4409bd3928fd7853e2a67cb991a182ef69732fddc91913615145f69ade9b36f2ef23b1db1055e875077cc7e8264b55acd96aa77991863434526f49dac4e5c21e0938d0d2a8e2f1e2510ab4346d432fc87edd45fb6ba72d97c888588adfbe73ac1a9d32e2a47cc1120f641925f558da473f01a3227b5c787633693227e4542bc94edb0a84444c11969f8034c0a460dd1fa6905a34f6209e7420d04ba195453899a0924b64ea0eb3b943d1f275932489ef1ef30a0e6ebfc7ef5a063b9905415c332159ea9a6e9023f3d9ca33e3b4d048719ba40ea6e52bd4978812b3f77900163263751caf20b9f8789c328a11a71d0394a9694d42bca8ba1fcb1af7076cb5317c5cb8ffecb80a55365ec9589b8fb60c1c711f8a6b36de41c46a6a06b967bea2fae56570ae8c40dcb5ec529e445ad6d2677c1d227593e502da042b4ea045b8b7f926f54a944e373552bde43f77dbd062aa7c8537e1afd5d5b1fccff270a4999ec029db0817ff1ebf8517cae06b630a7e172ae278dbe2a904e8e3d15cc5e8462dcef4833a99e97dbb20055178f0c711044570fafca2457060436a04c53a62a187e88bccd8b56337fa7c93a7622e2fb1015a54bd7dbf2d57e874a8c84a73593f42de2f2ddd8e3a2d90884e389074fd37e50a5b16fbd4cdc8d86aef0ed8f4fb6bd173382caaf30a5c0f5281047f808195bc0e628482603b51278aaa595b0062ead2c1c6bbc3f9d0570b082be15060c584d81a4e6c7a06165b98ff7b1aa6377f20a47aa9c6df877b99fd028190f55a75ae8b7fe0fd01d48d6b8d16673082c812899f9691cbfc36c1755f923adb2b442840f636b0777e2f1a41b1f5d6c1dd7ed114601e7730048e3535454e7cd6ab6af6f7e14d72d2976f893f6b963bed26bafd04808671de7b0f6c7b8b2254609d4a93e10fee890a291a1670ad9d82d2217125caec86ad18be844ef171094c80708f24fbd0f9578222a906d2bc9ecd3954ed9b8519ec4810a9f3127543469087362068864698d343ae344dcc7459f8e8a8d2bf52c2641408a82cec2a7af7fda7134d86154535603c28aae8cf8fb25c2f38aacfd6ef38ccc0567c26a0b4a7705da113323b0c03c938dc6ffa7634b6057c21ad54916b91d4df6b7607d72f7b1db3b0a55f9395ec98d8f0082ccdf5e7962995c38378794c4cad88b9565a0c71d2d3d0c7890e835dbc981ddce63b4a513842baf9d85e1142cf373bb11e3b1acaac8607824d5ae69ec6e8aebe10ced7aab051e738b8f90bafd19ab134b68a52f44dce3577644ae8aae81cdff7077c43007daa8864ce461be35bb711ff3e450981972d2815d84b808138f0dd4fd709715c1b452ec1ace2976215e66a7e3d9187239e64f4f5814ecffdd4af71baee90742060fbda46e2465c1439dfdf6e12f66bf9641330f07869deb47faf98975bc27eb443f141486f93a84075845de4a4f9bec3b36e9239047045813dd2c1aa5cd10bf4da4689519f1b6d8e96c4dfc0f71f9a8297f7ac82eed644c04840b3e396a7245edf17025f0"
      ],
      "sequence": 4294967294
    }
  ],
  "vout": [
    {
      "value": 1.0,
      "n": 0,
      "scriptPubKey": {
        "asm": "OP_RETURN b6f9e4ba5020e829a8f7229c4bcfad962b7c973090a3bb65a2971eb6ff77a4af ab462d4b4daef205e23515df907dad26d6006a1b7293885926174e9bf0edacd38b660d6b6d8ed225c21535ffb05d8d06f6204a3b52b3a87906376ebbd0cd8cf3eb066d0b0deeb245a275559fd03ded6696402a5b32d3c81966570edbb0adec93cb264d2b2dce9265825575bff01dcd46b6600a7b12f3e83946772efb908dccb32bc6adcbcd2e728562b5955f10fd2da65680ea9bf21308d9a697ce1b706d2c530be68debed0e52a54295b57f30dd0d8676a0cabbd23328f986b7ee3b504d0c736b86ed8b8d6e32c522f5d51f50bd6de616c0aadbb2534899e6d78e5b302d6c134ba6cdabad4e12e502d5f53f709d4dc636e08afb927368b9c6f7ae7b100d4c33ab462d4b4daef205e23515df907dad26d6006a1b7293885926174e9bf0edacd38b660d6b6d8ed225c21535ffb05d8d06f6204a3b52b3a87906376ebbd0cd8cf3eb066d0b0deeb245a275559fd03ded6696402a5b32d3c81966570edbb0adec93cb264d2b2dce9265825575bff01dcd46b6600a7b12f3e83946772efb908dccb32bc6adcbcd2e728562b5955f10fd2da65680ea9bf21308d9a697ce1b706d2c530be68debed0e52a54295b57f30dd0d8676a0cabbd23328f986b7ee3b504d0c736b86ed8b8d6e32c522f5d51f50bd6de616c0aadbb2534899e6d78e5b302d6c134ba6cdabad4e12e502d5f53f709d4dc636e08afb927368b9c6f7ae7b100d4c33ab462d4b4daef205e23515df907dad26d6006a1b7293885926174e9bf0edacd38b660d6b6d8ed225c21535ffb05d8d06f6204a3b52b3a87906376ebbd0cd8cf3eb066d0b0deeb245a275559fd03ded6696402a5b32d3c81966570edbb0adec93cb264d2b2dce9265825575bff01dcd46b6600a7b12f3e83946772efb908dccb32bc6adcbcd2e728562b5955f10fd2da65680ea9bf21308d9a697ce1b706d2c530be68debed0e52a54295b57f30dd0d8676a0cabbd23328f986b7ee3b504d0c736b86ed8b8d6e32c522f5d51f50bd6de616c0aadbb2534899e6d78e5b302d6c134ba6cdabad4e12e502d5f53f709d4dc636e08afb927368b9c6f7ae7b100d4c33ab462d4b4daef205e23515df907dad26d6006a1b7293885926174e9bf0edacd38b660d6b6d8ed225c21535ffb05d8d06f6204a3b52b3a87906376ebbd0cd8cf3eb066d0b0deeb245a275559fd03ded6696402a5b32d3c81966570edbb0adec93cb264d2b2dce9265825575bff01dcd46b6600a7b12f3e83946772efb908dccb32bc6adcbcd2e728562b5955f10fd2da65680ea9bf21308d9a697ce1b706d2c530be68debed0e52a54295b57f30dd0d8676a0cabbd23328f986b7ee3b504d0c736b86ed8b8d6e32c522f5d51f50bd6de616c0aadbb2534899e6d78e5b302d6c134ba6cdabad4e12e502d5f53f709d4dc636e08afb927368b9c6f7ae7b100d4c33ab462d4b4daef205e23515df907dad26d6006a1b7293885926174e9bf0edacd38b660d6b6d8ed225c21535ffb05d8d06f6204a3b52b3a87906376ebbd0cd8cf3eb066d0b0deeb245a275559fd03ded6696402a5b32d3c81966570edbb0adec93cb264d2b2dce9265825575bff01dcd46b6600a7b12f3e83946772efb908dccb32bc6adcbcd2e728562b5955f10fd2da67dbfe312f4b6d5b3f2af8673ebb443d6e3312f5b84eea1b6d00fdcd0c14e520f",
        "hex": "6a20b6f9e4ba5020e829a8f7229c4bcfad962b7c973090a3bb65a2971eb6ff77a4af4db004ab462d4b4daef205e23515df907dad26d6006a1b7293885926174e9bf0edacd38b660d6b6d8ed225c21535ffb05d8d06f6204a3b52b3a87906376ebbd0cd8cf3eb066d0b0deeb245a275559fd03ded6696402a5b32d3c81966570edbb0adec93cb264d2b2dce9265825575bff01dcd46b6600a7b12f3e83946772efb908dccb32bc6adcbcd2e728562b5955f10fd2da65680ea9bf21308d9a697ce1b706d2c530be68debed0e52a54295b57f30dd0d8676a0cabbd23328f986b7ee3b504d0c736b86ed8b8d6e32c522f5d51f50bd6de616c0aadbb2534899e6d78e5b302d6c134ba6cdabad4e12e502d5f53f709d4dc636e08afb927368b9c6f7ae7b100d4c33ab462d4b4daef205e23515df907dad26d6006a1b7293885926174e9bf0edacd38b660d6b6d8ed225c21535ffb05d8d06f6204a3b52b3a87906376ebbd0cd8cf3eb066d0b0deeb245a275559fd03ded6696402a5b32d3c81966570edbb0adec93cb264d2b2dce9265825575bff01dcd46b6600a7b12f3e83946772efb908dccb32bc6adcbcd2e728562b5955f10fd2da65680ea9bf21308d9a697ce1b706d2c530be68debed0e52a54295b57f30dd0d8676a0cabbd23328f986b7ee3b504d0c736b86ed8b8d6e32c522f5d51f50bd6de616c0aadbb2534899e6d78e5b302d6c134ba6cdabad4e12e502d5f53f709d4dc636e08afb927368b9c6f7ae7b100d4c33ab462d4b4daef205e23515df907dad26d6006a1b7293885926174e9bf0edacd38b660d6b6d8ed225c21535ffb05d8d06f6204a3b52b3a87906376ebbd0cd8cf3eb066d0b0deeb245a275559fd03ded6696402a5b32d3c81966570edbb0adec93cb264d2b2dce9265825575bff01dcd46b6600a7b12f3e83946772efb908dccb32bc6adcbcd2e728562b5955f10fd2da65680ea9bf21308d9a697ce1b706d2c530be68debed0e52a54295b57f30dd0d8676a0cabbd23328f986b7ee3b504d0c736b86ed8b8d6e32c522f5d51f50bd6de616c0aadbb2534899e6d78e5b302d6c134ba6cdabad4e12e502d5f53f709d4dc636e08afb927368b9c6f7ae7b100d4c33ab462d4b4daef205e23515df907dad26d6006a1b7293885926174e9bf0edacd38b660d6b6d8ed225c21535ffb05d8d06f6204a3b52b3a87906376ebbd0cd8cf3eb066d0b0deeb245a275559fd03ded6696402a5b32d3c81966570edbb0adec93cb264d2b2dce9265825575bff01dcd46b6600a7b12f3e83946772efb908dccb32bc6adcbcd2e728562b5955f10fd2da65680ea9bf21308d9a697ce1b706d2c530be68debed0e52a54295b57f30dd0d8676a0cabbd23328f986b7ee3b504d0c736b86ed8b8d6e32c522f5d51f50bd6de616c0aadbb2534899e6d78e5b302d6c134ba6cdabad4e12e502d5f53f709d4dc636e08afb927368b9c6f7ae7b100d4c33ab462d4b4daef205e23515df907dad26d6006a1b7293885926174e9bf0edacd38b660d6b6d8ed225c21535ffb05d8d06f6204a3b52b3a87906376ebbd0cd8cf3eb066d0b0deeb245a275559fd03ded6696402a5b32d3c81966570edbb0adec93cb264d2b2dce9265825575bff01dcd46b6600a7b12f3e83946772efb908dccb32bc6adcbcd2e728562b5955f10fd2da67dbfe312f4b6d5b3f2af8673ebb443d6e3312f5b84eea1b6d00fdcd0c14e520f",
        "type": "nulldata"
      }
    },
    {
      "value": 499970.5099,
      "n": 1,
      "scriptPubKey": {
        "asm": "1 814efcbbbee12d5ea8344883e116f11aeda8e044b4d7b891baa2783a60ca690f",
        "hex": "5120814efcbbbee12d5ea8344883e116f11aeda8e044b4d7b891baa2783a60ca690f",
        "reqSigs": 1,
        "type": "witness_v1_scripthash",
        "addresses": [
          "3QJmnh"
        ]
      }
    }
  ],
  "blockhash": "e83fb8d8eae63b54f6b1b3d1fbcbee555d4e910f42cfd1b5d97cc48d92172bc4",
  "confirmations": 1,
  "time": 1764182633,
  "blocktime": 1764182633
}