{
  "hex": "01000000000101016960a9b19d5c2ad66858f6c1ec971d2221b1502b61eba7c8cdefe9e1bbaf250000000000feffffff0200ce47c6782d00002251207d04c75a413e5b133c2f0b59ecfc22d0adcb735d5931652f7da7d89cb3f8ad4a00e1f50500000000fdd5046a206e6368575b110172668e4b06bb253c840c496cd8908f24704763ed1d7640e7b94db004b6b87ac7a3675f3cd511494f80bfff53885784f17e283a735ebb13393ecf659c96985ae783477f1cf531696fa09fdf73a877a4d15e081a537e9b33191eef45bcf6f83a87e3271f7c9551090fc0ffbf13c817c4b13e687a331efb53797e8f25dcd6d81aa7c3073f5cb571292fe0df9f33e837e4911e485a133edb73595eaf05fc3638fa4723e7dfbc5591c9cf003f7fd308d70471fea8baf3de3b93b9be4fe51c1618da6703c7ff9c75b1e9ef201f5ff328f72451de889ad3fe1bb3999e6fc53c7678ba0763a79ffc15d1898f407f3f9348974431bee8fab39e7bd3f9fe0fa55c56589a274387bfdc35f1a9af605f1fb368b764119ec8da93be5bf3d9de2f857cb6b87ac7a3675f3cd511494f80bfff53885784f17e283a735ebb13393ecf659c96985ae783477f1cf531696fa09fdf73a877a4d15e081a537e9b33191eef45bcf6f83a87e3271f7c9551090fc0ffbf13c817c4b13e687a331efb53797e8f25dcd6d81aa7c3073f5cb571292fe0df9f33e837e4911e485a133edb73595eaf05fc3638fa4723e7dfbc5591c9cf003f7fd308d70471fea8baf3de3b93b9be4fe51c1618da6703c7ff9c75b1e9ef201f5ff328f72451de889ad3fe1bb3999e6fc53c7678ba0763a79ffc15d1898f407f3f9348974431bee8fab39e7bd3f9fe0fa55c56589a274387bfdc35f1a9af605f1fb368b764119ec8da93be5bf3d9de2f857cb6b87ac7a3675f3cd511494f80bfff53885784f17e283a735ebb13393ecf659c96985ae783477f1cf531696fa09fdf73a877a4d15e081a537e9b33191eef45bcf6f83a87e3271f7c9551090fc0ffbf13c817c4b13e687a331efb53797e8f25dcd6d81aa7c3073f5cb571292fe0df9f33e837e4911e485a133edb73595eaf05fc3638fa4723e7dfbc5591c9cf003f7fd308d70471fea8baf3de3b93b9be4fe51c1618da6703c7ff9c75b1e9ef201f5ff328f72451de889ad3fe1bb3999e6fc53c7678ba0763a79ffc15d1898f407f3f9348974431bee8fab39e7bd3f9fe0fa55c56589a274387bfdc35f1a9af605f1fb368b764119ec8da93be5bf3d9de2f857cb6b87ac7a3675f3cd511494f80bfff53885784f17e283a735ebb13393ecf659c96985ae783477f1cf531696fa09fdf73a877a4d15e081a537e9b33191eef45bcf6f83a87e3271f7c9551090fc0ffbf13c817c4b13e687a331efb53797e8f25dcd6d81aa7c3073f5cb571292fe0df9f33e837e4911e485a133edb73595eaf05fc3638fa4723e7dfbc5591c9cf003f7fd308d70471fea8baf3de3b93b9be4fe51c1618da6703c7ff9c75b1e9ef201f5ff328f72451de889ad3fe1bb3999e6fc53c7678ba0763a79ffc15d1898f407f3f9348974431bee8fab39e7bd3f9fe0fa55c56589a274387bfdc35f1a9af605f1fb368b764119ec8da93be5bf3d9de2f857cb6b87ac7a3675f3cd511494f80bfff53885784f17e283a735ebb13393ecf659c96985ae783477f1cf531696fa09fdf73a877a4d15e081a537e9b33191eef45bcf6f83a87e3271f7c9551090fc0ffbf13c817c4b13e687a331efb53797e8f25dcd6d81aa7c3073f5cb571292fe0df9f33e837e4911e485a133edb73595eaf05fc3638fa4723e7dfbc5591c9cf003f7fd34db6a93b7cef3e24798a7ecc5e4992948e5e22be4fc9e2afd0fc31078ac4db0602fd7509cfc2ed8d45ffdd69dbc952f886f02b534f035735d5fddb2be45ff5eb80b2c9d6e4751f5922ab14a662885e4038aab0b9924db42cc48886380b7a86f27906b7c801e4c4e088fc164e860f53245e05fd452482fa0f5e7fb9f24f639a1db07e9c0d2f04a526050a73eb9df3d29253f61bfa02cd13dc655e55db7a6e765a36eaa35531b7688e6e9bb0f06218076f15a0fea34379ece01b6a3a0cb6f842c5d16338453d36dea7ad90b7acdad6903764025fd6575a7c1aa99b54883dc183d72fdab3576fe2d3b63f3239daff739051e56f00c76f8d3afd2cb10ec249b3ebdecbbe946c6c1942403ed5e7ce0842822932a673375f57cf80af0786a8633579223479116dde49cdb77945e315fc9d99b35c97c605f5ec9badb821a598d482751989b142e6240f2f31a6f53b860ee3de41543c95a56bd157f5c279ca97f06c469db1ba24c83c4f4f2f6d0857f71044be8b83b0174240e1c5566b6141644348d05d46c43f032e23df75b1472ff6d1460488d51fdb2aa2cc4542e3da1808a8ab18675d020f47e5746656457d9532a29819e9e3ca6dfb5515d2dc869f8ada6e2d0b6d07065055925bb1a796489a5657b30bdecf13bb57971731dd2bfcf71279f9b6e705784581967746d6d0c96762f2dd1ef53405542e622d08888e81714640bc19c591f3c26bfa371ba1ac3796cc9073d361314c3c2a801445711dbae28c348598173c23cb8195b900e8f7731568b53952b10742fbba7a527e96bde1227abdcb1f8bd798760aafd1baae9797d66855e9e547471b8dabf53c396a2616f8a6bcbdec1fb2d81c62bd8a2edd82eb977564d201bf6acda8e92439295a605a5131c0b248efcb845d530d1fb05b45dc6d422b479d8922ef5b25e641e9e7759ad3c08104f9dc0f08f98cc0c8102de1b29b379b69f4d6e12faf7b4a08fa21d3afc101627316852992a21e22ba5db1d3d3c1229194523655f52f4a99c745201424f5bf128263ab03a8e550f84444872168c9b75675137cb035968101739bf436fc514df35fccedaa7e06d017a1b6cbced6e8f7b923e437d96b06bce83513146192f0508c80225abca0c6f98f2b32632e21b6101bea78e2098303d175ba3db587cda85908f5f118341d4f5836bbe95882b79425ab45af0d3acf48a4ffe141ab58bf3647dca6f0b766d7f9c2c18b89f361a6d14c35fadfd587831f8d677e609ff7b0b0a880ece8e12bcfd3ddb6ca994d4bdfb84b6d58c7c82942a3fddc244acf4a313e3691fcf2cf463e0eed6a2d3a602f0c6dcf46984c37cb8ff121d3e3bb7a7940980bec05167e5c76bb4c1e78c6fff328b456e7775163761f1460c77e6c7d0e3dc90cb2c2f7cde54d35801039dfeb4c48eb8cb483389a685bc041ea22dc391dd6d19186de34239598f99ff2c22d4327f2dc563abcc4f16d3c4f57b6ae3915f9000c2953ce85b29f9b4ef82c081f8d76d53f39b549c436db138faa4ecb52fd24d14f1b616d143b197c2337ff9bdf0d115514d64aafc50e4d4a0a3b84b402375289d9a2bab1250ac1890392d1d78dcef680227a865a1e0d278e1de4c5069238edea50c81b5fa30589cb971c91c3fa3afbeedfc617337dfb48919668eb09f65a69e5e81f119bb420850d39caf7caa3d96f1e76d888cc2a4e837f6fe6463aacf4861b5a25d28df0663a66c94b585b750bd2a362278a1449e9c8ead410b2b23319178a89a1186117cb72334ca4f4feee441a9522e0be513494a3fff96f078b7d0f58b48cfd70e788c9cf544fe9bccf7360cce576f1130175521afbefe38e2afd1e8ebf8ee79bdce29aeba84dc7ed42c0fd2d80a9fcfd53a822db68a9be9cd88849a05cb085fc4b800e4d65f18863cd115d116afe7ffd141bee95c7bbbf73ce66c50993789c859824485d2bcebec7db780d2c9050316cfb4529bd6f23e53bbb4897667f9072f10ad413cb0bc5575a63def9e0b1fadeee6e70f5154754078344b0c5258af14b234a9ab5479673e8190821249a184b2b35389eda4f88a573d893d93ebbfd13bf44af750c3c87ce4e497a0a3dd60b22ff382ab7fb58aaf19cecb8c495698470e24bcce32ea878138b422ca5ba2968193692e89f6d8e6e206be3259b6d2b08b054ca8826247766a41022be31e1968f341ab8e2e377ef9476876e13b3f937dbfb43f46a114d49da2845a30c425589082b4cca8e8ada0fe3d89206d34fa9a16169f7d322fedd501632d43fcde76efe74be2e2e0eade9bef52f4aebd873b2384386ce2b45007f2d5b238297550bbc0d4c2f6b81feb54c991f84ab2595497d5168cd32c5970fd4a38e3fec9fe736cdff929232e1106fee71acf599ea54213bd871c3ae6bb82a66c8dab794ca03a87ee8dbe7d23fd2d43372c0f531d5a13d8b89b547df95346c1feb7cf1fe25a24e1209a29349b66f5c51955050b87157c3265e0b71d649cd1a894f44d8867681e5effd39125ac41f9cb6f2aff9e9ecdfbfad140bdfd23621eafad80e1ce3de5be95d1d49583d9108d43d55312f5dc27110d92d36787f78d3d796a2c6191289c461643aebaa1daf75e5e1710ac9463c0ae52ee2460dbba1c4d8e6992ba6aa7a7344437881c1109f325aa446386343a1709340a621b5acee855aea4721fd0b2feb694eb646af4c369fe7db491fc9eb18789d3d92b68928f4ec0598e32725c2b3c637d5b09797c985a15752c6fcdea003b60f3fb00fd9e0a09725f2d393a39c34b15b3183fadfd19ee77ccc004a127adb0d90ca17b2cefe396269fa17879889a40fce031a8038aba8b21a73aa95c29110711781ca0af5253bfa1c4c96f1919ec41f75c6a829bd12b76639c9d95a827bdcd2fe41edd3b920f13d820dc0eba33f4b842afa0fe773e0dd1610fe1b6189816d05c10e8fc97b905dca56beaee6dac0eb61678c1dcebeade82d394d54f7ad16862ab4c15a494a99da22ea619f906ded2b7949bcad76b797e93c4a20efbe451d3f7df515dba728960718d9876f63378a097b4bd80fedb10ac19d1232c2102f8ca2af47224363fdb5fa66d61dd4f7e52387c5fddb63813c4ce870dc04873cd70d1f72271c9c108ce304864b76f86740b54f4b5c5acaccbbd8752ff1065f52edf7ac401e4db0d371c1917b2218b9532103e2eb3afeb77a81bd036880c7e6f9f5783a4b62183e697e29d793303c8c3d19ed18ff68e8d6254b411bf364d4d8a8046e1eb44624d7d8cf95680f6127746691a9ee7956f984236ce9ab6dd9597a395f98ad179e7d88876b1d49dc3a96bcd8ca1fcc2dd932e9c25e16ccd76a20abd7ad7e421d440c0543e4e00f3a44d902b87bc515323542525759757b97a2ddfe1a2a3d3f52606a6b858dc5d3d4f8fa032d555f6977798cb8b9c0d3292b303252545d6a6e9399bac9d1d5fb0000000000000000000000000000000000000000000000000d1c283801fd210500754b4de76b9feb11b589263ab136d5b7b67d59b03dda516bfa5a55dc80fe15f8cc684a0a835addb177eac9583370cab7cf0617e79ff388bd9b1266b224358bd291487612dcc15d4d342f814e30539d59697d192b002ec82e8ea90aaca4ec9e824c6f491d6aba985f2d036793739281d0337ace7181a59beccb7e9aa029a208d4a1b5d883609bc2df181b407710556dad87bacd25521fba4c6bfffaa70cabd65ee813f838a4e078eef3bf029e60c61f66334231ee82a3da4b2ce6a5e95c887fb624fb6f52b6996b526d45a568b19ac8c5a43e8ca0dc713d34f7f0e515340ba1694628ec6132b4be8c202145ceedd99f1f7cd6d77929d955cfe8e214a07ca01db6461698841a56747fb3a8cdd703e61408ac6d8ff27121df2201b83a64136920cb3f8b4ec96e08d22cd3631349b32cc86691241b942eb3a9596ca0d7be15ab8692d5059d90282dc689b252a2b9093542c5803aa701dea50fa9e864e08271fbbaad36a7b454be9015d5832630c569957f557648313eb1051f9132453ad907c7967f45f7716f1f011a50c6b7c01331a0b7fe9c90c39db35df36d2b9114873286c10aa5327b5358b1b18389cd73e10078803cc5598f963fcce1d18885345db3236332669552cff81ce8894f711490fa8fd53d9dd03671e5a4015a99dd20637d27aabe9787a3145aaa3562712de0e1b19cbff64244f89a526fcc0ca95d0f9b2e2e81a9ab960c5eec9540dfaa087968429c50674328a0e83351da0caf4e96eae66d7ec211849e088a29c0980e66e836dcab3ab143b62f7ab90e77dd132e541f1a5e2766e8cd348c226481eeacce98654c39580a66f199a7b1ae98445bc494479457627a05f1db1d1aefdbced1d7668596c42a62cee7f32259b2727faa19477641651f2670f1339bd1c22e630201b8a0fee51d788e2ea38e4e4ede6ac13f328cdcd6522314407e98fd61b28c68c8a1484bebd4d3268ee88f044a255c35fe8a2d787aaf58f3719daa07607f86803f4c3f86ba0075b2cc08895b25754de1c65a298ea2e6ab4ec3f7081accc8aa1417596614647b679812e1f92cc1a11c5d8e03efda94fa61fcdb46e78333b949c30b12ee5075838984b2192f1e15776922fc03c5f807679e50628878993f8a858579f3e413f85931cf8c5ea8747a9153eb041e92e953b0244326e0c6606aecdcbf45cdc6553256f1364d0976fc6edb24398d62cf0c37a1555997197f78ec60df804f42b1ad5724c035eccbc5ad35d32d7d5022b172154f206ab11c2784b634e10dcf4f3336a87c0654edbc4986e546ef4989c8a71b4e88aa8989683ce54878db3be2505f86fc8b9e27a2143fed0ed061cd5124233ba34e32201c583bbb8975180b00493d7dad3e8d9c3273f4d135dc5cb28342c25c1a059e4db7261cefc0d94dcaf4688aa8e89cc7fb9018bbffd9dd6ac1ca359937c2251bb2bbb2c391cf59f1b7259b6e428c239f52a39fe2bc8bb5914da2c432c07d28441ac8ea72dd6ade56c18b71b5bd8fdd3885392b07c410c2e5e813db9ab0258241b474a4d4ef9e238b6a63a7929fa786d5d2c576bbf12471727ed706755dcdb4f5f7e654ad239a6e08351336bea29700fec5ec1f410e4d85129d13d41c8b2900819cfe36acf02ff34ae9a0aa852ef7d2d67e35f430adfbab6b98d88f09e0a467593c8a92d32430b96794d618154b639746eb1182a5e970331049c6eced65351f214ffe564e100d6e365de6eed6166468f33477caf34b25b88c74d1e3e212feb868056d6e01465bec851e2f8448377a745dd0dc499c444ba24edae9bd14b7315934507f2271bbb0de1855062d9a9660fb8ca39bc684a0541f0e33251ec907021f6c82000000",
  "txid": "f814b12a5792becaca70dcc214b4e13d1534f241da27c21a25c17a6f3738092a",
  "hash": "42c08fa7e4d472824ea49d2ffda9893969b63dbec501d828cec2eaea45816020",
  "size": 5085,
  "vsize": 2278,
  "version": 1,
  "locktime": 130,
  "vin": [
    {
      "txid": "25afbbe1e9efcdc8a7eb612b50b121221d97ecc1f65868d62a5c9db1a9606901",
      "vout": 0,
      "scriptSig": {
        "asm": "",
        "hex": ""
      },
      "txinwitness": [
        "cfc2ed8d45ffdd69dbc952f886f02b534f035735d5fddb2be45ff5eb80b2c9d6e4751f5922ab14a662885e4038aab0b9924db42cc48886380b7a86f27906b7c801e4c4e088fc164e860f53245e05fd452482fa0f5e7fb9f24f639a1db07e9c0d2f04a526050a73eb9df3d29253f61bfa02cd13dc655e55db7a6e765a36eaa35531b7688e6e9bb0f06218076f15a0fea34379ece01b6a3a0cb6f842c5d16338453d36dea7ad90b7acdad6903764025fd6575a7c1aa99b54883dc183d72fdab3576fe2d3b63f3239daff739051e56f00c76f8d3afd2cb10ec249b3ebdecbbe946c6c1942403ed5e7ce0842822932a673375f57cf80af0786a8633579223479116dde49cdb77945e315fc9d99b35c97c605f5ec9badb821a598d482751989b142e6240f2f31a6f53b860ee3de41543c95a56bd157f5c279ca97f06c469db1ba24c83c4f4f2f6d0857f71044be8b83b0174240e1c5566b6141644348d05d46c43f032e23df75b1472ff6d1460488d51fdb2aa2cc4542e3da1808a8ab18675d020f47e5746656457d9532a29819e9e3ca6dfb5515d2dc869f8ada6e2d0b6d07065055925bb1a796489a5657b30bdecf13bb57971731dd2bfcf71279f9b6e705784581967746d6d0c96762f2dd1ef53405542e622d08888e81714640bc19c591f3c26bfa371ba1ac3796cc9073d361314c3c2a801445711dbae28c348598173c23cb8195b900e8f7731568b53952b10742fbba7a527e96bde1227abdcb1f8bd798760aafd1baae9797d66855e9e547471b8dabf53c396a2616f8a6bcbdec1fb2d81c62bd8a2edd82eb977564d201bf6acda8e92439295a605a5131c0b248efcb845d530d1fb05b45dc6d422b479d8922ef5b25e641e9e7759ad3c08104f9dc0f08f98cc0c8102de1b29b379b69f4d6e12faf7b4a08fa21d3afc101627316852992a21e22ba5db1d3d3c1229194523655f52f4a99c745201424f5bf128263ab03a8e550f84444872168c9b75675137cb035968101739bf436fc514df35fccedaa7e06d017a1b6cbced6e8f7b923e437d96b06bce83513146192f0508c80225abca0c6f98f2b32632e21b6101bea78e2098303d175ba3db587cda85908f5f118341d4f5836bbe95882b79425ab45af0d3acf48a4ffe141ab58bf3647dca6f0b766d7f9c2c18b89f361a6d14c35fadfd587831f8d677e609ff7b0b0a880ece8e12bcfd3ddb6ca994d4bdfb84b6d58c7c82942a3fddc244acf4a313e3691fcf2cf463e0eed6a2d3a602f0c6dcf46984c37cb8ff121d3e3bb7a7940980bec05167e5c76bb4c1e78c6fff328b456e7775163761f1460c77e6c7d0e3dc90cb2c2f7cde54d35801039dfeb4c48eb8cb483389a685bc041ea22dc391dd6d19186de34239598f99ff2c22d4327f2dc563abcc4f16d3c4f57b6ae3915f9000c2953ce85b29f9b4ef82c081f8d76d53f39b549c436db138faa4ecb52fd24d14f1b616d143b197c2337ff9bdf0d115514d64aafc50e4d4a0a3b84b402375289d9a2bab1250ac1890392d1d78dcef680227a865a1e0d278e1de4c5069238edea50c81b5fa30589cb971c91c3fa3afbeedfc617337dfb48919668eb09f65a69e5e81f119bb420850d39caf7caa3d96f1e76d888cc2a4e837f6fe6463aacf4861b5a25d28df0663a66c94b585b750bd2a362278a1449e9c8ead410b2b23319178a89a1186117cb72334ca4f4feee441a9522e0be513494a3fff96f078b7d0f58b48cfd70e788c9cf544fe9bccf7360cce576f1130175521afbefe38e2afd1e8ebf8ee79bdce29aeba84dc7ed42c0fd2d80a9fcfd53a822db68a9be9cd88849a05cb085fc4b800e4d65f18863cd115d116afe7ffd141bee95c7bbbf73ce66c50993789c859824485d2bcebec7db780d2c9050316cfb4529bd6f23e53bbb4897667f9072f10ad413cb0bc5575a63def9e0b1fadeee6e70f5154754078344b0c5258af14b234a9ab5479673e8190821249a184b2b35389eda4f88a573d893d93ebbfd13bf44af750c3c87ce4e497a0a3dd60b22ff382ab7fb58aaf19cecb8c495698470e24bcce32ea878138b422ca5ba2968193692e89f6d8e6e206be3259b6d2b08b054ca8826247766a41022be31e1968f341ab8e2e377ef9476876e13b3f937dbfb43f46a114d49da2845a30c425589082b4cca8e8ada0fe3d89206d34fa9a16169f7d322fedd501632d43fcde76efe74be2e2e0eade9bef52f4aebd873b2384386ce2b45007f2d5b238297550bbc0d4c2f6b81feb54c991f84ab2595497d5168cd32c5970fd4a38e3fec9fe736cdff929232e1106fee71acf599ea54213bd871c3ae6bb82a66c8dab794ca03a87ee8dbe7d23fd2d43372c0f531d5a13d8b89b547df95346c1feb7cf1fe25a24e1209a29349b66f5c51955050b87157c3265e0b71d649cd1a894f44d8867681e5effd39125ac41f9cb6f2aff9e9ecdfbfad140bdfd23621eafad80e1ce3de5be95d1d49583d9108d43d55312f5dc27110d92d36787f78d3d796a2c6191289c461643aebaa1daf75e5e1710ac9463c0ae52ee2460dbba1c4d8e6992ba6aa7a7344437881c1109f325aa446386343a1709340a621b5acee855aea4721fd0b2feb694eb646af4c369fe7db491fc9eb18789d3d92b68928f4ec0598e32725c2b3c637d5b09797c985a15752c6fcdea003b60f3fb00fd9e0a09725f2d393a39c34b15b3183fadfd19ee77ccc004a127adb0d90ca17b2cefe396269fa17879889a40fce031a8038aba8b21a73aa95c29110711781ca0af5253bfa1c4c96f1919ec41f75c6a829bd12b76639c9d95a827bdcd2fe41edd3b920f13d820dc0eba33f4b842afa0fe773e0dd1610fe1b6189816d05c10e8fc97b905dca56beaee6dac0eb61678c1dcebeade82d394d54f7ad16862ab4c15a494a99da22ea619f906ded2b7949bcad76b797e93c4a20efbe451d3f7df515dba728960718d9876f63378a097b4bd80fedb10ac19d1232c2102f8ca2af47224363fdb5fa66d61dd4f7e52387c5fddb63813c4ce870dc04873cd70d1f72271c9c108ce304864b76f86740b54f4b5c5acaccbbd8752ff1065f52edf7ac401e4db0d371c1917b2218b9532103e2eb3afeb77a81bd036880c7e6f9f5783a4b62183e697e29d793303c8c3d19ed18ff68e8d6254b411bf364d4d8a8046e1eb44624d7d8cf95680f6127746691a9ee7956f984236ce9ab6dd9597a395f98ad179e7d88876b1d49dc3a96bcd8ca1fcc2dd932e9c25e16ccd76a20abd7ad7e421d440c0543e4e00f3a44d902b87bc515323542525759757b97a2ddfe1a2a3d3f52606a6b858dc5d3d4f8fa032d555f6977798cb8b9c0d3292b303252545d6a6e9399bac9d1d5fb0000000000000000000000000000000000000000000000000d1c283801",
        "00754b4de76b9feb11b589263ab136d5b7b67d59b03dda516bfa5a55dc80fe15f8cc684a0a835addb177eac9583370cab7cf0617e79ff388bd9b1266b224358bd291487612dcc15d4d342f814e30539d59697d192b002ec82e8ea90aaca4ec9e824c6f491d6aba985f2d036793739281d0337ace7181a59beccb7e9aa029a208d4a1b5d883609bc2df181b407710556dad87bacd25521fba4c6bfffaa70cabd65ee813f838a4e078eef3bf029e60c61f66334231ee82a3da4b2ce6a5e95c887fb624fb6f52b6996b526d45a568b19ac8c5a43e8ca0dc713d34f7f0e515340ba1694628ec6132b4be8c202145ceedd99f1f7cd6d77929d955cfe8e214a07ca01db6461698841a56747fb3a8cdd703e61408ac6d8ff27121df2201b83a64136920cb3f8b4ec96e08d22cd3631349b32cc86691241b942eb3a9596ca0d7be15ab8692d5059d90282dc689b252a2b9093542c5803aa701dea50fa9e864e08271fbbaad36a7b454be9015d5832630c569957f557648313eb1051f9132453ad907c7967f45f7716f1f011a50c6b7c01331a0b7fe9c90c39db35df36d2b9114873286c10aa5327b5358b1b18389cd73e10078803cc5598f963fcce1d18885345db3236332669552cff81ce8894f711490fa8fd53d9dd03671e5a4015a99dd20637d27aabe9787a3145aaa3562712de0e1b19cbff64244f89a526fcc0ca95d0f9b2e2e81a9ab960c5eec9540dfaa087968429c50674328a0e83351da0caf4e96eae66d7ec211849e088a29c0980e66e836dcab3ab143b62f7ab90e77dd132e541f1a5e2766e8cd348c226481eeacce98654c39580a66f199a7b1ae98445bc494479457627a05f1db1d1aefdbced1d7668596c42a62cee7f32259b2727faa19477641651f2670f1339bd1c22e630201b8a0fee51d788e2ea38e4e4ede6ac13f328cdcd6522314407e98fd61b28c68c8a1484bebd4d3268ee88f044a255c35fe8a2d787aaf58f3719daa07607f86803f4c3f86ba0075b2cc08895b25754de1c65a298ea2e6ab4ec3f7081accc8aa1417596614647b679812e1f92cc1a11c5d8e03efda94fa61fcdb46e78333b949c30b12ee5075838984b2192f1e15776922fc03c5f807679e50628878993f8a858579f3e413f85931cf8c5ea8747a9153eb041e92e953b0244326e0c6606aecdcbf45cdc6553256f1364d0976fc6edb24398d62cf0c37a1555997197f78ec60df804f42b1ad5724c035eccbc5ad35d32d7d5022b172154f206ab11c2784b634e10dcf4f3336a87c0654edbc4986e546ef4989c8a71b4e88aa8989683ce54878db3be2505f86fc8b9e27a2143fed0ed061cd5124233ba34e32201c583bbb8975180b00493d7dad3e8d9c3273f4d135dc5cb28342c25c1a059e4db7261cefc0d94dcaf4688aa8e89cc7fb9018bbffd9dd6ac1ca359937c2251bb2bbb2c391cf59f1b7259b6e428c239f52a39fe2bc8bb5914da2c432c07d28441ac8ea72dd6ade56c18b71b5bd8fdd3885392b07c410c2e5e813db9ab0258241b474a4d4ef9e238b6a63a7929fa786d5d2c576bbf12471727ed706755dcdb4f5f7e654ad239a6e08351336bea29700fec5ec1f410e4d85129d13d41c8b2900819cfe36acf02ff34ae9a0aa852ef7d2d67e35f430adfbab6b98d88f09e0a467593c8a92d32430b96794d618154b639746eb1182a5e970331049c6eced65351f214ffe564e100d6e365de6eed6166468f33477caf34b25b88c74d1e3e212feb868056d6e01465bec851e2f8448377a745dd0dc499c444ba24edae9bd14b7315934507f2271bbb0de1855062d9a9660fb8ca39bc684a0541f0e33251ec907021f6c"
      ],
      "sequence": 4294967294
    }
  ],
  "vout": [
    {
      "value": 499967.4592,
      "n": 0,
      "scriptPubKey": {
        "asm": "1 7d04c75a413e5b133c2f0b59ecfc22d0adcb735d5931652f7da7d89cb3f8ad4a",
        "hex": "51207d04c75a413e5b133c2f0b59ecfc22d0adcb735d5931652f7da7d89cb3f8ad4a",
        "reqSigs": 1,
        "type": "witness_v1_scripthash",
        "addresses": [
          "3QJmnh"
        ]
      }
    },
    {
      "value": 1.0,
      "n": 1,
      "scriptPubKey": {
        "asm": "OP_RETURN 6e6368575b110172668e4b06bb253c840c496cd8908f24704763ed1d7640e7b9 b6b87ac7a3675f3cd511494f80bfff53885784f17e283a735ebb13393ecf659c96985ae783477f1cf531696fa09fdf73a877a4d15e081a537e9b33191eef45bcf6f83a87e3271f7c9551090fc0ffbf13c817c4b13e687a331efb53797e8f25dcd6d81aa7c3073f5cb571292fe0df9f33e837e4911e485a133edb73595eaf05fc3638fa4723e7dfbc5591c9cf003f7fd308d70471fea8baf3de3b93b9be4fe51c1618da6703c7ff9c75b1e9ef201f5ff328f72451de889ad3fe1bb3999e6fc53c7678ba0763a79ffc15d1898f407f3f9348974431bee8fab39e7bd3f9fe0fa55c56589a274387bfdc35f1a9af605f1fb368b764119ec8da93be5bf3d9de2f857cb6b87ac7a3675f3cd511494f80bfff53885784f17e283a735ebb13393ecf659c96985ae783477f1cf531696fa09fdf73a877a4d15e081a537e9b33191eef45bcf6f83a87e3271f7c9551090fc0ffbf13c817c4b13e687a331efb53797e8f25dcd6d81aa7c3073f5cb571292fe0df9f33e837e4911e485a133edb73595eaf05fc3638fa4723e7dfbc5591c9cf003f7fd308d70471fea8baf3de3b93b9be4fe51c1618da6703c7ff9c75b1e9ef201f5ff328f72451de889ad3fe1bb3999e6fc53c7678ba0763a79ffc15d1898f407f3f9348974431bee8fab39e7bd3f9fe0fa55c56589a274387bfdc35f1a9af605f1fb368b764119ec8da93be5bf3d9de2f857cb6b87ac7a3675f3cd511494f80bfff53885784f17e283a735ebb13393ecf659c96985ae783477f1cf531696fa09fdf73a877a4d15e081a537e9b33191eef45bcf6f83a87e3271f7c9551090fc0ffbf13c817c4b13e687a331efb53797e8f25dcd6d81aa7c3073f5cb571292fe0df9f33e837e4911e485a133edb73595eaf05fc3638fa4723e7dfbc5591c9cf003f7fd308d70471fea8baf3de3b93b9be4fe51c1618da6703c7ff9c75b1e9ef201f5ff328f72451de889ad3fe1bb3999e6fc53c7678ba0763a79ffc15d1898f407f3f9348974431bee8fab39e7bd3f9fe0fa55c56589a274387bfdc35f1a9af605f1fb368b764119ec8da93be5bf3d9de2f857cb6b87ac7a3675f3cd511494f80bfff53885784f17e283a735ebb13393ecf659c96985ae783477f1cf531696fa09fdf73a877a4d15e081a537e9b33191eef45bcf6f83a87e3271f7c9551090fc0ffbf13c817c4b13e687a331efb53797e8f25dcd6d81aa7c3073f5cb571292fe0df9f33e837e4911e485a133edb73595eaf05fc3638fa4723e7dfbc5591c9cf003f7fd308d70471fea8baf3de3b93b9be4fe51c1618da6703c7ff9c75b1e9ef201f5ff328f72451de889ad3fe1bb3999e6fc53c7678ba0763a79ffc15d1898f407f3f9348974431bee8fab39e7bd3f9fe0fa55c56589a274387bfdc35f1a9af605f1fb368b764119ec8da93be5bf3d9de2f857cb6b87ac7a3675f3cd511494f80bfff53885784f17e283a735ebb13393ecf659c96985ae783477f1cf531696fa09fdf73a877a4d15e081a537e9b33191eef45bcf6f83a87e3271f7c9551090fc0ffbf13c817c4b13e687a331efb53797e8f25dcd6d81aa7c3073f5cb571292fe0df9f33e837e4911e485a133edb73595eaf05fc3638fa4723e7dfbc5591c9cf003f7fd34db6a93b7cef3e24798a7ecc5e4992948e5e22be4fc9e2afd0fc31078ac4db06",
        "hex": "6a206e6368575b110172668e4b06bb253c840c496cd8908f24704763ed1d7640e7b94db004b6b87ac7a3675f3cd511494f80bfff53885784f17e283a735ebb13393ecf659c96985ae783477f1cf531696fa09fdf73a877a4d15e081a537e9b33191eef45bcf6f83a87e3271f7c9551090fc0ffbf13c817c4b13e687a331efb53797e8f25dcd6d81aa7c3073f5cb571292fe0df9f33e837e4911e485a133edb73595eaf05fc3638fa4723e7dfbc5591c9cf003f7fd308d70471fea8baf3de3b93b9be4fe51c1618da6703c7ff9c75b1e9ef201f5ff328f72451de889ad3fe1bb3999e6fc53c7678ba0763a79ffc15d1898f407f3f9348974431bee8fab39e7bd3f9fe0fa55c56589a274387bfdc35f1a9af605f1fb368b764119ec8da93be5bf3d9de2f857cb6b87ac7a3675f3cd511494f80bfff53885784f17e283a735ebb13393ecf659c96985ae783477f1cf531696fa09fdf73a877a4d15e081a537e9b33191eef45bcf6f83a87e3271f7c9551090fc0ffbf13c817c4b13e687a331efb53797e8f25dcd6d81aa7c3073f5cb571292fe0df9f33e837e4911e485a133edb73595eaf05fc3638fa4723e7dfbc5591c9cf003f7fd308d70471fea8baf3de3b93b9be4fe51c1618da6703c7ff9c75b1e9ef201f5ff328f72451de889ad3fe1bb3999e6fc53c7678ba0763a79ffc15d1898f407f3f9348974431bee8fab39e7bd3f9fe0fa55c56589a274387bfdc35f1a9af605f1fb368b764119ec8da93be5bf3d9de2f857cb6b87ac7a3675f3cd511494f80bfff53885784f17e283a735ebb13393ecf659c96985ae783477f1cf531696fa09fdf73a877a4d15e081a537e9b33191eef45bcf6f83a87e3271f7c9551090fc0ffbf13c817c4b13e687a331efb53797e8f25dcd6d81aa7c3073f5cb571292fe0df9f33e837e4911e485a133edb73595eaf05fc3638fa4723e7dfbc5591c9cf003f7fd308d70471fea8baf3de3b93b9be4fe51c1618da6703c7ff9c75b1e9ef201f5ff328f72451de889ad3fe1bb3999e6fc53c7678ba0763a79ffc15d1898f407f3f9348974431bee8fab39e7bd3f9fe0fa55c56589a274387bfdc35f1a9af605f1fb368b764119ec8da93be5bf3d9de2f857cb6b87ac7a3675f3cd511494f80bfff53885784f17e283a735ebb13393ecf659c96985ae783477f1cf531696fa09fdf73a877a4d15e081a537e9b33191eef45bcf6f83a87e3271f7c9551090fc0ffbf13c817c4b13e687a331efb53797e8f25dcd6d81aa7c3073f5cb571292fe0df9f33e837e4911e485a133edb73595eaf05fc3638fa4723e7dfbc5591c9cf003f7fd308d70471fea8baf3de3b93b9be4fe51c1618da6703c7ff9c75b1e9ef201f5ff328f72451de889ad3fe1bb3999e6fc53c7678ba0763a79ffc15d1898f407f3f9348974431bee8fab39e7bd3f9fe0fa55c56589a274387bfdc35f1a9af605f1fb368b764119ec8da93be5bf3d9de2f857cb6b87ac7a3675f3cd511494f80bfff53885784f17e283a735ebb13393ecf659c96985ae783477f1cf531696fa09fdf73a877a4d15e081a537e9b33191eef45bcf6f83a87e3271f7c9551090fc0ffbf13c817c4b13e687a331efb53797e8f25dcd6d81aa7c3073f5cb571292fe0df9f33e837e4911e485a133edb73595eaf05fc3638fa4723e7dfbc5591c9cf003f7fd34db6a93b7cef3e24798a7ecc5e4992948e5e22be4fc9e2afd0fc31078ac4db06",
        "type": "nulldata"
      }
    }
  ],
  "blockhash": "a9a7ce638639648c5b111e15e0d4489535a11a846f6b50fba3b7e2925471654c",
  "confirmations": 1,
  "time": 1764182153,
  "blocktime": 1764182153
}